{
	"contracts/userDetails.sol": {
		"userDetails": {
			"abi": [
				{
					"anonymous": false,
					"inputs": [
						{
							"indexed": true,
							"internalType": "address",
							"name": "_address",
							"type": "address"
						}
					],
					"name": "eventDeleteUser",
					"type": "event"
				},
				{
					"anonymous": false,
					"inputs": [
						{
							"indexed": true,
							"internalType": "address",
							"name": "_address",
							"type": "address"
						},
						{
							"indexed": false,
							"internalType": "enum IUserDetails.userType",
							"name": "_type",
							"type": "uint8"
						},
						{
							"indexed": false,
							"internalType": "bytes",
							"name": "_name",
							"type": "bytes"
						},
						{
							"indexed": false,
							"internalType": "bytes",
							"name": "_physicalAddress",
							"type": "bytes"
						},
						{
							"indexed": false,
							"internalType": "bytes",
							"name": "_image",
							"type": "bytes"
						},
						{
							"indexed": false,
							"internalType": "uint256",
							"name": "_timeUpdated",
							"type": "uint256"
						}
					],
					"name": "eventUserData",
					"type": "event"
				},
				{
					"inputs": [
						{
							"internalType": "enum IUserDetails.userType",
							"name": "_type",
							"type": "uint8"
						},
						{
							"internalType": "bytes",
							"name": "_name",
							"type": "bytes"
						},
						{
							"internalType": "bytes",
							"name": "_physicalAddress",
							"type": "bytes"
						},
						{
							"internalType": "bytes",
							"name": "_image",
							"type": "bytes"
						}
					],
					"name": "addUser",
					"outputs": [],
					"stateMutability": "nonpayable",
					"type": "function"
				},
				{
					"inputs": [],
					"name": "deleteUser",
					"outputs": [],
					"stateMutability": "nonpayable",
					"type": "function"
				},
				{
					"inputs": [
						{
							"internalType": "uint256",
							"name": "",
							"type": "uint256"
						}
					],
					"name": "distributors",
					"outputs": [
						{
							"internalType": "address",
							"name": "",
							"type": "address"
						}
					],
					"stateMutability": "view",
					"type": "function"
				},
				{
					"inputs": [
						{
							"internalType": "bytes",
							"name": "_image",
							"type": "bytes"
						}
					],
					"name": "editImage",
					"outputs": [],
					"stateMutability": "nonpayable",
					"type": "function"
				},
				{
					"inputs": [
						{
							"internalType": "bytes",
							"name": "_name",
							"type": "bytes"
						}
					],
					"name": "editName",
					"outputs": [],
					"stateMutability": "nonpayable",
					"type": "function"
				},
				{
					"inputs": [
						{
							"internalType": "bytes",
							"name": "_physicalAddress",
							"type": "bytes"
						}
					],
					"name": "editPhysicalAddress",
					"outputs": [],
					"stateMutability": "nonpayable",
					"type": "function"
				},
				{
					"inputs": [],
					"name": "getAllDistributors",
					"outputs": [
						{
							"components": [
								{
									"internalType": "enum IUserDetails.userType",
									"name": "userType",
									"type": "uint8"
								},
								{
									"internalType": "bytes",
									"name": "userName",
									"type": "bytes"
								},
								{
									"internalType": "bytes",
									"name": "userPhysicalAddress",
									"type": "bytes"
								},
								{
									"internalType": "bytes",
									"name": "userImage",
									"type": "bytes"
								},
								{
									"internalType": "bool",
									"name": "userStatus",
									"type": "bool"
								}
							],
							"internalType": "struct IUserDetails.userDetails[]",
							"name": "",
							"type": "tuple[]"
						}
					],
					"stateMutability": "view",
					"type": "function"
				},
				{
					"inputs": [],
					"name": "getAllManufacturers",
					"outputs": [
						{
							"components": [
								{
									"internalType": "enum IUserDetails.userType",
									"name": "userType",
									"type": "uint8"
								},
								{
									"internalType": "bytes",
									"name": "userName",
									"type": "bytes"
								},
								{
									"internalType": "bytes",
									"name": "userPhysicalAddress",
									"type": "bytes"
								},
								{
									"internalType": "bytes",
									"name": "userImage",
									"type": "bytes"
								},
								{
									"internalType": "bool",
									"name": "userStatus",
									"type": "bool"
								}
							],
							"internalType": "struct IUserDetails.userDetails[]",
							"name": "",
							"type": "tuple[]"
						}
					],
					"stateMutability": "view",
					"type": "function"
				},
				{
					"inputs": [],
					"name": "getAllSupplierAddresses",
					"outputs": [
						{
							"internalType": "address[]",
							"name": "",
							"type": "address[]"
						}
					],
					"stateMutability": "view",
					"type": "function"
				},
				{
					"inputs": [],
					"name": "getAllSuppliers",
					"outputs": [
						{
							"internalType": "address[]",
							"name": "",
							"type": "address[]"
						},
						{
							"components": [
								{
									"internalType": "enum IUserDetails.userType",
									"name": "userType",
									"type": "uint8"
								},
								{
									"internalType": "bytes",
									"name": "userName",
									"type": "bytes"
								},
								{
									"internalType": "bytes",
									"name": "userPhysicalAddress",
									"type": "bytes"
								},
								{
									"internalType": "bytes",
									"name": "userImage",
									"type": "bytes"
								},
								{
									"internalType": "bool",
									"name": "userStatus",
									"type": "bool"
								}
							],
							"internalType": "struct IUserDetails.userDetails[]",
							"name": "",
							"type": "tuple[]"
						}
					],
					"stateMutability": "view",
					"type": "function"
				},
				{
					"inputs": [],
					"name": "getAllUsers",
					"outputs": [
						{
							"components": [
								{
									"internalType": "enum IUserDetails.userType",
									"name": "userType",
									"type": "uint8"
								},
								{
									"internalType": "bytes",
									"name": "userName",
									"type": "bytes"
								},
								{
									"internalType": "bytes",
									"name": "userPhysicalAddress",
									"type": "bytes"
								},
								{
									"internalType": "bytes",
									"name": "userImage",
									"type": "bytes"
								},
								{
									"internalType": "bool",
									"name": "userStatus",
									"type": "bool"
								}
							],
							"internalType": "struct IUserDetails.userDetails[]",
							"name": "",
							"type": "tuple[]"
						}
					],
					"stateMutability": "view",
					"type": "function"
				},
				{
					"inputs": [
						{
							"internalType": "address",
							"name": "_address",
							"type": "address"
						}
					],
					"name": "getSingleUser",
					"outputs": [
						{
							"components": [
								{
									"internalType": "enum IUserDetails.userType",
									"name": "userType",
									"type": "uint8"
								},
								{
									"internalType": "bytes",
									"name": "userName",
									"type": "bytes"
								},
								{
									"internalType": "bytes",
									"name": "userPhysicalAddress",
									"type": "bytes"
								},
								{
									"internalType": "bytes",
									"name": "userImage",
									"type": "bytes"
								},
								{
									"internalType": "bool",
									"name": "userStatus",
									"type": "bool"
								}
							],
							"internalType": "struct IUserDetails.userDetails",
							"name": "",
							"type": "tuple"
						}
					],
					"stateMutability": "view",
					"type": "function"
				},
				{
					"inputs": [
						{
							"internalType": "uint256",
							"name": "",
							"type": "uint256"
						}
					],
					"name": "manufacturers",
					"outputs": [
						{
							"internalType": "address",
							"name": "",
							"type": "address"
						}
					],
					"stateMutability": "view",
					"type": "function"
				},
				{
					"inputs": [
						{
							"internalType": "uint256",
							"name": "",
							"type": "uint256"
						}
					],
					"name": "suppliers",
					"outputs": [
						{
							"internalType": "address",
							"name": "",
							"type": "address"
						}
					],
					"stateMutability": "view",
					"type": "function"
				},
				{
					"inputs": [
						{
							"internalType": "address",
							"name": "",
							"type": "address"
						}
					],
					"name": "userDetailsMapping",
					"outputs": [
						{
							"internalType": "enum IUserDetails.userType",
							"name": "userType",
							"type": "uint8"
						},
						{
							"internalType": "bytes",
							"name": "userName",
							"type": "bytes"
						},
						{
							"internalType": "bytes",
							"name": "userPhysicalAddress",
							"type": "bytes"
						},
						{
							"internalType": "bytes",
							"name": "userImage",
							"type": "bytes"
						},
						{
							"internalType": "bool",
							"name": "userStatus",
							"type": "bool"
						}
					],
					"stateMutability": "view",
					"type": "function"
				},
				{
					"inputs": [
						{
							"internalType": "uint256",
							"name": "",
							"type": "uint256"
						}
					],
					"name": "users",
					"outputs": [
						{
							"internalType": "address",
							"name": "",
							"type": "address"
						}
					],
					"stateMutability": "view",
					"type": "function"
				}
			],
			"devdoc": {
				"kind": "dev",
				"methods": {},
				"version": 1
			},
			"evm": {
				"assembly": "    /* \"contracts/userDetails.sol\":236:4863  contract userDetails is IUserDetails{\r... */\n  mstore(0x40, 0x80)\n  callvalue\n  dup1\n  iszero\n  tag_1\n  jumpi\n  0x00\n  dup1\n  revert\ntag_1:\n  pop\n  dataSize(sub_0)\n  dup1\n  dataOffset(sub_0)\n  0x00\n  codecopy\n  0x00\n  return\nstop\n\nsub_0: assembly {\n        /* \"contracts/userDetails.sol\":236:4863  contract userDetails is IUserDetails{\r... */\n      mstore(0x40, 0x80)\n      callvalue\n      dup1\n      iszero\n      tag_1\n      jumpi\n      0x00\n      dup1\n      revert\n    tag_1:\n      pop\n      jumpi(tag_2, lt(calldatasize, 0x04))\n      shr(0xe0, calldataload(0x00))\n      dup1\n      0x90175af1\n      gt\n      tag_19\n      jumpi\n      dup1\n      0xcea23121\n      gt\n      tag_20\n      jumpi\n      dup1\n      0xcea23121\n      eq\n      tag_15\n      jumpi\n      dup1\n      0xd1bab143\n      eq\n      tag_16\n      jumpi\n      dup1\n      0xddba07a4\n      eq\n      tag_17\n      jumpi\n      dup1\n      0xe2842d79\n      eq\n      tag_18\n      jumpi\n      jump(tag_2)\n    tag_20:\n      dup1\n      0x90175af1\n      eq\n      tag_11\n      jumpi\n      dup1\n      0x9ae7d008\n      eq\n      tag_12\n      jumpi\n      dup1\n      0xb53305dc\n      eq\n      tag_13\n      jumpi\n      dup1\n      0xc7bbd67e\n      eq\n      tag_14\n      jumpi\n      jump(tag_2)\n    tag_19:\n      dup1\n      0x50b492ba\n      gt\n      tag_21\n      jumpi\n      dup1\n      0x50b492ba\n      eq\n      tag_7\n      jumpi\n      dup1\n      0x5166608f\n      eq\n      tag_8\n      jumpi\n      dup1\n      0x6a26d064\n      eq\n      tag_9\n      jumpi\n      dup1\n      0x8e24c34b\n      eq\n      tag_10\n      jumpi\n      jump(tag_2)\n    tag_21:\n      dup1\n      0x026ff05e\n      eq\n      tag_3\n      jumpi\n      dup1\n      0x0c6c92ba\n      eq\n      tag_4\n      jumpi\n      dup1\n      0x35852541\n      eq\n      tag_5\n      jumpi\n      dup1\n      0x365b98b2\n      eq\n      tag_6\n      jumpi\n    tag_2:\n      0x00\n      dup1\n      revert\n        /* \"contracts/userDetails.sol\":1439:1587  function deleteUser()public override {\r... */\n    tag_3:\n      tag_22\n      tag_23\n      jump\t// in\n    tag_22:\n      stop\n        /* \"contracts/userDetails.sol\":1650:1941  function editName(bytes memory _name)public override {\r... */\n    tag_4:\n      tag_24\n      0x04\n      dup1\n      calldatasize\n      sub\n      dup2\n      add\n      swap1\n      tag_25\n      swap2\n      swap1\n      tag_26\n      jump\t// in\n    tag_25:\n      tag_27\n      jump\t// in\n    tag_24:\n      stop\n        /* \"contracts/userDetails.sol\":2781:2915  function getSingleUser(address _address) public view returns(userDetails memory){\r... */\n    tag_5:\n      tag_28\n      0x04\n      dup1\n      calldatasize\n      sub\n      dup2\n      add\n      swap1\n      tag_29\n      swap2\n      swap1\n      tag_30\n      jump\t// in\n    tag_29:\n      tag_31\n      jump\t// in\n    tag_28:\n      mload(0x40)\n      tag_32\n      swap2\n      swap1\n      tag_33\n      jump\t// in\n    tag_32:\n      mload(0x40)\n      dup1\n      swap2\n      sub\n      swap1\n      return\n        /* \"contracts/userDetails.sol\":455:477  address[] public users */\n    tag_6:\n      tag_34\n      0x04\n      dup1\n      calldatasize\n      sub\n      dup2\n      add\n      swap1\n      tag_35\n      swap2\n      swap1\n      tag_36\n      jump\t// in\n    tag_35:\n      tag_37\n      jump\t// in\n    tag_34:\n      mload(0x40)\n      tag_38\n      swap2\n      swap1\n      tag_39\n      jump\t// in\n    tag_38:\n      mload(0x40)\n      dup1\n      swap2\n      sub\n      swap1\n      return\n        /* \"contracts/userDetails.sol\":554:583  address[] public distributors */\n    tag_7:\n      tag_40\n      0x04\n      dup1\n      calldatasize\n      sub\n      dup2\n      add\n      swap1\n      tag_41\n      swap2\n      swap1\n      tag_36\n      jump\t// in\n    tag_41:\n      tag_42\n      jump\t// in\n    tag_40:\n      mload(0x40)\n      tag_43\n      swap2\n      swap1\n      tag_39\n      jump\t// in\n    tag_43:\n      mload(0x40)\n      dup1\n      swap2\n      sub\n      swap1\n      return\n        /* \"contracts/userDetails.sol\":336:391  mapping(address=>userDetails) public userDetailsMapping */\n    tag_8:\n      tag_44\n      0x04\n      dup1\n      calldatasize\n      sub\n      dup2\n      add\n      swap1\n      tag_45\n      swap2\n      swap1\n      tag_30\n      jump\t// in\n    tag_45:\n      tag_46\n      jump\t// in\n    tag_44:\n      mload(0x40)\n      tag_47\n      swap6\n      swap5\n      swap4\n      swap3\n      swap2\n      swap1\n      tag_48\n      jump\t// in\n    tag_47:\n      mload(0x40)\n      dup1\n      swap2\n      sub\n      swap1\n      return\n        /* \"contracts/userDetails.sol\":2016:2352  function editPhysicalAddress(bytes memory _physicalAddress)public override{\r... */\n    tag_9:\n      tag_49\n      0x04\n      dup1\n      calldatasize\n      sub\n      dup2\n      add\n      swap1\n      tag_50\n      swap2\n      swap1\n      tag_26\n      jump\t// in\n    tag_50:\n      tag_51\n      jump\t// in\n    tag_49:\n      stop\n        /* \"contracts/userDetails.sol\":4544:4858  function getAllDistributors() public view returns(userDetails[] memory){\r... */\n    tag_10:\n      tag_52\n      tag_53\n      jump\t// in\n    tag_52:\n      mload(0x40)\n      tag_54\n      swap2\n      swap1\n      tag_55\n      jump\t// in\n    tag_54:\n      mload(0x40)\n      dup1\n      swap2\n      sub\n      swap1\n      return\n        /* \"contracts/userDetails.sol\":517:547  address[] public manufacturers */\n    tag_11:\n      tag_56\n      0x04\n      dup1\n      calldatasize\n      sub\n      dup2\n      add\n      swap1\n      tag_57\n      swap2\n      swap1\n      tag_36\n      jump\t// in\n    tag_57:\n      tag_58\n      jump\t// in\n    tag_56:\n      mload(0x40)\n      tag_59\n      swap2\n      swap1\n      tag_39\n      jump\t// in\n    tag_59:\n      mload(0x40)\n      dup1\n      swap2\n      sub\n      swap1\n      return\n        /* \"contracts/userDetails.sol\":713:1386  function addUser(userType _type, bytes calldata _name, bytes calldata _physicalAddress,bytes memory _image)public override {\r... */\n    tag_12:\n      tag_60\n      0x04\n      dup1\n      calldatasize\n      sub\n      dup2\n      add\n      swap1\n      tag_61\n      swap2\n      swap1\n      tag_62\n      jump\t// in\n    tag_61:\n      tag_63\n      jump\t// in\n    tag_60:\n      stop\n        /* \"contracts/userDetails.sol\":3363:3933  function getAllSuppliers() public view returns(address[] memory, userDetails[] memory) {\r... */\n    tag_13:\n      tag_64\n      tag_65\n      jump\t// in\n    tag_64:\n      mload(0x40)\n      tag_66\n      swap3\n      swap2\n      swap1\n      tag_67\n      jump\t// in\n    tag_66:\n      mload(0x40)\n      dup1\n      swap2\n      sub\n      swap1\n      return\n        /* \"contracts/userDetails.sol\":3947:4055  function getAllSupplierAddresses() public view returns(address[] memory) {\r... */\n    tag_14:\n      tag_68\n      tag_69\n      jump\t// in\n    tag_68:\n      mload(0x40)\n      tag_70\n      swap2\n      swap1\n      tag_71\n      jump\t// in\n    tag_70:\n      mload(0x40)\n      dup1\n      swap2\n      sub\n      swap1\n      return\n        /* \"contracts/userDetails.sol\":484:510  address[] public suppliers */\n    tag_15:\n      tag_72\n      0x04\n      dup1\n      calldatasize\n      sub\n      dup2\n      add\n      swap1\n      tag_73\n      swap2\n      swap1\n      tag_36\n      jump\t// in\n    tag_73:\n      tag_74\n      jump\t// in\n    tag_72:\n      mload(0x40)\n      tag_75\n      swap2\n      swap1\n      tag_39\n      jump\t// in\n    tag_75:\n      mload(0x40)\n      dup1\n      swap2\n      sub\n      swap1\n      return\n        /* \"contracts/userDetails.sol\":2416:2701  function editImage(bytes memory _image)public override {\r... */\n    tag_16:\n      tag_76\n      0x04\n      dup1\n      calldatasize\n      sub\n      dup2\n      add\n      swap1\n      tag_77\n      swap2\n      swap1\n      tag_26\n      jump\t// in\n    tag_77:\n      tag_78\n      jump\t// in\n    tag_76:\n      stop\n        /* \"contracts/userDetails.sol\":4141:4459  function getAllManufacturers() public view returns(userDetails[] memory){\r... */\n    tag_17:\n      tag_79\n      tag_80\n      jump\t// in\n    tag_79:\n      mload(0x40)\n      tag_81\n      swap2\n      swap1\n      tag_55\n      jump\t// in\n    tag_81:\n      mload(0x40)\n      dup1\n      swap2\n      sub\n      swap1\n      return\n        /* \"contracts/userDetails.sol\":2997:3281  function getAllUsers() public view returns(userDetails[] memory){\r... */\n    tag_18:\n      tag_82\n      tag_83\n      jump\t// in\n    tag_82:\n      mload(0x40)\n      tag_84\n      swap2\n      swap1\n      tag_55\n      jump\t// in\n    tag_84:\n      mload(0x40)\n      dup1\n      swap2\n      sub\n      swap1\n      return\n        /* \"contracts/userDetails.sol\":1439:1587  function deleteUser()public override {\r... */\n    tag_23:\n        /* \"contracts/userDetails.sol\":1531:1536  false */\n      0x00\n        /* \"contracts/userDetails.sol\":1487:1505  userDetailsMapping */\n      dup1\n        /* \"contracts/userDetails.sol\":1487:1517  userDetailsMapping[msg.sender] */\n      0x00\n        /* \"contracts/userDetails.sol\":1506:1516  msg.sender */\n      caller\n        /* \"contracts/userDetails.sol\":1487:1517  userDetailsMapping[msg.sender] */\n      0xffffffffffffffffffffffffffffffffffffffff\n      and\n      0xffffffffffffffffffffffffffffffffffffffff\n      and\n      dup2\n      mstore\n      0x20\n      add\n      swap1\n      dup2\n      mstore\n      0x20\n      add\n      0x00\n      keccak256\n        /* \"contracts/userDetails.sol\":1487:1528  userDetailsMapping[msg.sender].userStatus */\n      0x04\n      add\n      0x00\n        /* \"contracts/userDetails.sol\":1487:1536  userDetailsMapping[msg.sender].userStatus = false */\n      0x0100\n      exp\n      dup2\n      sload\n      dup2\n      0xff\n      mul\n      not\n      and\n      swap1\n      dup4\n      iszero\n      iszero\n      mul\n      or\n      swap1\n      sstore\n      pop\n        /* \"contracts/userDetails.sol\":1568:1578  msg.sender */\n      caller\n        /* \"contracts/userDetails.sol\":1552:1579  eventDeleteUser(msg.sender) */\n      0xffffffffffffffffffffffffffffffffffffffff\n      and\n      0x5db32fb34ad07587763cb39a6a4e3e11627af9bb8b3754c2734c1e7c107c0b5b\n      mload(0x40)\n      mload(0x40)\n      dup1\n      swap2\n      sub\n      swap1\n      log2\n        /* \"contracts/userDetails.sol\":1439:1587  function deleteUser()public override {\r... */\n      jump\t// out\n        /* \"contracts/userDetails.sol\":1650:1941  function editName(bytes memory _name)public override {\r... */\n    tag_27:\n        /* \"contracts/userDetails.sol\":1756:1761  _name */\n      dup1\n        /* \"contracts/userDetails.sol\":1714:1732  userDetailsMapping */\n      0x00\n        /* \"contracts/userDetails.sol\":1714:1744  userDetailsMapping[msg.sender] */\n      dup1\n        /* \"contracts/userDetails.sol\":1733:1743  msg.sender */\n      caller\n        /* \"contracts/userDetails.sol\":1714:1744  userDetailsMapping[msg.sender] */\n      0xffffffffffffffffffffffffffffffffffffffff\n      and\n      0xffffffffffffffffffffffffffffffffffffffff\n      and\n      dup2\n      mstore\n      0x20\n      add\n      swap1\n      dup2\n      mstore\n      0x20\n      add\n      0x00\n      keccak256\n        /* \"contracts/userDetails.sol\":1714:1753  userDetailsMapping[msg.sender].userName */\n      0x01\n      add\n        /* \"contracts/userDetails.sol\":1714:1761  userDetailsMapping[msg.sender].userName = _name */\n      swap1\n      dup1\n      mload\n      swap1\n      0x20\n      add\n      swap1\n      tag_87\n      swap3\n      swap2\n      swap1\n      tag_88\n      jump\t// in\n    tag_87:\n      pop\n        /* \"contracts/userDetails.sol\":1772:1792  userDetails memory u */\n      0x00\n        /* \"contracts/userDetails.sol\":1795:1813  userDetailsMapping */\n      dup1\n        /* \"contracts/userDetails.sol\":1795:1825  userDetailsMapping[msg.sender] */\n      0x00\n        /* \"contracts/userDetails.sol\":1814:1824  msg.sender */\n      caller\n        /* \"contracts/userDetails.sol\":1795:1825  userDetailsMapping[msg.sender] */\n      0xffffffffffffffffffffffffffffffffffffffff\n      and\n      0xffffffffffffffffffffffffffffffffffffffff\n      and\n      dup2\n      mstore\n      0x20\n      add\n      swap1\n      dup2\n      mstore\n      0x20\n      add\n      0x00\n      keccak256\n        /* \"contracts/userDetails.sol\":1772:1825  userDetails memory u = userDetailsMapping[msg.sender] */\n      mload(0x40)\n      dup1\n      0xa0\n      add\n      0x40\n      mstore\n      swap1\n      dup2\n      0x00\n      dup3\n      add\n      0x00\n      swap1\n      sload\n      swap1\n      0x0100\n      exp\n      swap1\n      div\n      0xff\n      and\n      0x02\n      dup2\n      gt\n      iszero\n      tag_89\n      jumpi\n      tag_90\n      tag_91\n      jump\t// in\n    tag_90:\n    tag_89:\n      0x02\n      dup2\n      gt\n      iszero\n      tag_92\n      jumpi\n      tag_93\n      tag_91\n      jump\t// in\n    tag_93:\n    tag_92:\n      dup2\n      mstore\n      0x20\n      add\n      0x01\n      dup3\n      add\n      dup1\n      sload\n      tag_94\n      swap1\n      tag_95\n      jump\t// in\n    tag_94:\n      dup1\n      0x1f\n      add\n      0x20\n      dup1\n      swap2\n      div\n      mul\n      0x20\n      add\n      mload(0x40)\n      swap1\n      dup2\n      add\n      0x40\n      mstore\n      dup1\n      swap3\n      swap2\n      swap1\n      dup2\n      dup2\n      mstore\n      0x20\n      add\n      dup3\n      dup1\n      sload\n      tag_96\n      swap1\n      tag_95\n      jump\t// in\n    tag_96:\n      dup1\n      iszero\n      tag_97\n      jumpi\n      dup1\n      0x1f\n      lt\n      tag_98\n      jumpi\n      0x0100\n      dup1\n      dup4\n      sload\n      div\n      mul\n      dup4\n      mstore\n      swap2\n      0x20\n      add\n      swap2\n      jump(tag_97)\n    tag_98:\n      dup3\n      add\n      swap2\n      swap1\n      0x00\n      mstore\n      keccak256(0x00, 0x20)\n      swap1\n    tag_99:\n      dup2\n      sload\n      dup2\n      mstore\n      swap1\n      0x01\n      add\n      swap1\n      0x20\n      add\n      dup1\n      dup4\n      gt\n      tag_99\n      jumpi\n      dup3\n      swap1\n      sub\n      0x1f\n      and\n      dup3\n      add\n      swap2\n    tag_97:\n      pop\n      pop\n      pop\n      pop\n      pop\n      dup2\n      mstore\n      0x20\n      add\n      0x02\n      dup3\n      add\n      dup1\n      sload\n      tag_100\n      swap1\n      tag_95\n      jump\t// in\n    tag_100:\n      dup1\n      0x1f\n      add\n      0x20\n      dup1\n      swap2\n      div\n      mul\n      0x20\n      add\n      mload(0x40)\n      swap1\n      dup2\n      add\n      0x40\n      mstore\n      dup1\n      swap3\n      swap2\n      swap1\n      dup2\n      dup2\n      mstore\n      0x20\n      add\n      dup3\n      dup1\n      sload\n      tag_101\n      swap1\n      tag_95\n      jump\t// in\n    tag_101:\n      dup1\n      iszero\n      tag_102\n      jumpi\n      dup1\n      0x1f\n      lt\n      tag_103\n      jumpi\n      0x0100\n      dup1\n      dup4\n      sload\n      div\n      mul\n      dup4\n      mstore\n      swap2\n      0x20\n      add\n      swap2\n      jump(tag_102)\n    tag_103:\n      dup3\n      add\n      swap2\n      swap1\n      0x00\n      mstore\n      keccak256(0x00, 0x20)\n      swap1\n    tag_104:\n      dup2\n      sload\n      dup2\n      mstore\n      swap1\n      0x01\n      add\n      swap1\n      0x20\n      add\n      dup1\n      dup4\n      gt\n      tag_104\n      jumpi\n      dup3\n      swap1\n      sub\n      0x1f\n      and\n      dup3\n      add\n      swap2\n    tag_102:\n      pop\n      pop\n      pop\n      pop\n      pop\n      dup2\n      mstore\n      0x20\n      add\n      0x03\n      dup3\n      add\n      dup1\n      sload\n      tag_105\n      swap1\n      tag_95\n      jump\t// in\n    tag_105:\n      dup1\n      0x1f\n      add\n      0x20\n      dup1\n      swap2\n      div\n      mul\n      0x20\n      add\n      mload(0x40)\n      swap1\n      dup2\n      add\n      0x40\n      mstore\n      dup1\n      swap3\n      swap2\n      swap1\n      dup2\n      dup2\n      mstore\n      0x20\n      add\n      dup3\n      dup1\n      sload\n      tag_106\n      swap1\n      tag_95\n      jump\t// in\n    tag_106:\n      dup1\n      iszero\n      tag_107\n      jumpi\n      dup1\n      0x1f\n      lt\n      tag_108\n      jumpi\n      0x0100\n      dup1\n      dup4\n      sload\n      div\n      mul\n      dup4\n      mstore\n      swap2\n      0x20\n      add\n      swap2\n      jump(tag_107)\n    tag_108:\n      dup3\n      add\n      swap2\n      swap1\n      0x00\n      mstore\n      keccak256(0x00, 0x20)\n      swap1\n    tag_109:\n      dup2\n      sload\n      dup2\n      mstore\n      swap1\n      0x01\n      add\n      swap1\n      0x20\n      add\n      dup1\n      dup4\n      gt\n      tag_109\n      jumpi\n      dup3\n      swap1\n      sub\n      0x1f\n      and\n      dup3\n      add\n      swap2\n    tag_107:\n      pop\n      pop\n      pop\n      pop\n      pop\n      dup2\n      mstore\n      0x20\n      add\n      0x04\n      dup3\n      add\n      0x00\n      swap1\n      sload\n      swap1\n      0x0100\n      exp\n      swap1\n      div\n      0xff\n      and\n      iszero\n      iszero\n      iszero\n      iszero\n      dup2\n      mstore\n      pop\n      pop\n      swap1\n      pop\n        /* \"contracts/userDetails.sol\":1855:1865  msg.sender */\n      caller\n        /* \"contracts/userDetails.sol\":1841:1933  eventUserData(msg.sender,u.userType,_name,u.userPhysicalAddress,u.userImage,block.timestamp) */\n      0xffffffffffffffffffffffffffffffffffffffff\n      and\n      0xe49f40f57c43bcc0ea51de08718dcc45efb3325fb9d155e76c2a5ab33be2de16\n        /* \"contracts/userDetails.sol\":1866:1867  u */\n      dup3\n        /* \"contracts/userDetails.sol\":1866:1876  u.userType */\n      0x00\n      add\n      mload\n        /* \"contracts/userDetails.sol\":1877:1882  _name */\n      dup5\n        /* \"contracts/userDetails.sol\":1883:1884  u */\n      dup5\n        /* \"contracts/userDetails.sol\":1883:1904  u.userPhysicalAddress */\n      0x40\n      add\n      mload\n        /* \"contracts/userDetails.sol\":1905:1906  u */\n      dup6\n        /* \"contracts/userDetails.sol\":1905:1916  u.userImage */\n      0x60\n      add\n      mload\n        /* \"contracts/userDetails.sol\":1917:1932  block.timestamp */\n      timestamp\n        /* \"contracts/userDetails.sol\":1841:1933  eventUserData(msg.sender,u.userType,_name,u.userPhysicalAddress,u.userImage,block.timestamp) */\n      mload(0x40)\n      tag_110\n      swap6\n      swap5\n      swap4\n      swap3\n      swap2\n      swap1\n      tag_111\n      jump\t// in\n    tag_110:\n      mload(0x40)\n      dup1\n      swap2\n      sub\n      swap1\n      log2\n        /* \"contracts/userDetails.sol\":1703:1941  {\r... */\n      pop\n        /* \"contracts/userDetails.sol\":1650:1941  function editName(bytes memory _name)public override {\r... */\n      pop\n      jump\t// out\n        /* \"contracts/userDetails.sol\":2781:2915  function getSingleUser(address _address) public view returns(userDetails memory){\r... */\n    tag_31:\n        /* \"contracts/userDetails.sol\":2842:2860  userDetails memory */\n      tag_112\n      tag_113\n      jump\t// in\n    tag_112:\n        /* \"contracts/userDetails.sol\":2879:2897  userDetailsMapping */\n      0x00\n        /* \"contracts/userDetails.sol\":2879:2907  userDetailsMapping[_address] */\n      dup1\n        /* \"contracts/userDetails.sol\":2898:2906  _address */\n      dup4\n        /* \"contracts/userDetails.sol\":2879:2907  userDetailsMapping[_address] */\n      0xffffffffffffffffffffffffffffffffffffffff\n      and\n      0xffffffffffffffffffffffffffffffffffffffff\n      and\n      dup2\n      mstore\n      0x20\n      add\n      swap1\n      dup2\n      mstore\n      0x20\n      add\n      0x00\n      keccak256\n        /* \"contracts/userDetails.sol\":2872:2907  return userDetailsMapping[_address] */\n      mload(0x40)\n      dup1\n      0xa0\n      add\n      0x40\n      mstore\n      swap1\n      dup2\n      0x00\n      dup3\n      add\n      0x00\n      swap1\n      sload\n      swap1\n      0x0100\n      exp\n      swap1\n      div\n      0xff\n      and\n      0x02\n      dup2\n      gt\n      iszero\n      tag_115\n      jumpi\n      tag_116\n      tag_91\n      jump\t// in\n    tag_116:\n    tag_115:\n      0x02\n      dup2\n      gt\n      iszero\n      tag_117\n      jumpi\n      tag_118\n      tag_91\n      jump\t// in\n    tag_118:\n    tag_117:\n      dup2\n      mstore\n      0x20\n      add\n      0x01\n      dup3\n      add\n      dup1\n      sload\n      tag_119\n      swap1\n      tag_95\n      jump\t// in\n    tag_119:\n      dup1\n      0x1f\n      add\n      0x20\n      dup1\n      swap2\n      div\n      mul\n      0x20\n      add\n      mload(0x40)\n      swap1\n      dup2\n      add\n      0x40\n      mstore\n      dup1\n      swap3\n      swap2\n      swap1\n      dup2\n      dup2\n      mstore\n      0x20\n      add\n      dup3\n      dup1\n      sload\n      tag_120\n      swap1\n      tag_95\n      jump\t// in\n    tag_120:\n      dup1\n      iszero\n      tag_121\n      jumpi\n      dup1\n      0x1f\n      lt\n      tag_122\n      jumpi\n      0x0100\n      dup1\n      dup4\n      sload\n      div\n      mul\n      dup4\n      mstore\n      swap2\n      0x20\n      add\n      swap2\n      jump(tag_121)\n    tag_122:\n      dup3\n      add\n      swap2\n      swap1\n      0x00\n      mstore\n      keccak256(0x00, 0x20)\n      swap1\n    tag_123:\n      dup2\n      sload\n      dup2\n      mstore\n      swap1\n      0x01\n      add\n      swap1\n      0x20\n      add\n      dup1\n      dup4\n      gt\n      tag_123\n      jumpi\n      dup3\n      swap1\n      sub\n      0x1f\n      and\n      dup3\n      add\n      swap2\n    tag_121:\n      pop\n      pop\n      pop\n      pop\n      pop\n      dup2\n      mstore\n      0x20\n      add\n      0x02\n      dup3\n      add\n      dup1\n      sload\n      tag_124\n      swap1\n      tag_95\n      jump\t// in\n    tag_124:\n      dup1\n      0x1f\n      add\n      0x20\n      dup1\n      swap2\n      div\n      mul\n      0x20\n      add\n      mload(0x40)\n      swap1\n      dup2\n      add\n      0x40\n      mstore\n      dup1\n      swap3\n      swap2\n      swap1\n      dup2\n      dup2\n      mstore\n      0x20\n      add\n      dup3\n      dup1\n      sload\n      tag_125\n      swap1\n      tag_95\n      jump\t// in\n    tag_125:\n      dup1\n      iszero\n      tag_126\n      jumpi\n      dup1\n      0x1f\n      lt\n      tag_127\n      jumpi\n      0x0100\n      dup1\n      dup4\n      sload\n      div\n      mul\n      dup4\n      mstore\n      swap2\n      0x20\n      add\n      swap2\n      jump(tag_126)\n    tag_127:\n      dup3\n      add\n      swap2\n      swap1\n      0x00\n      mstore\n      keccak256(0x00, 0x20)\n      swap1\n    tag_128:\n      dup2\n      sload\n      dup2\n      mstore\n      swap1\n      0x01\n      add\n      swap1\n      0x20\n      add\n      dup1\n      dup4\n      gt\n      tag_128\n      jumpi\n      dup3\n      swap1\n      sub\n      0x1f\n      and\n      dup3\n      add\n      swap2\n    tag_126:\n      pop\n      pop\n      pop\n      pop\n      pop\n      dup2\n      mstore\n      0x20\n      add\n      0x03\n      dup3\n      add\n      dup1\n      sload\n      tag_129\n      swap1\n      tag_95\n      jump\t// in\n    tag_129:\n      dup1\n      0x1f\n      add\n      0x20\n      dup1\n      swap2\n      div\n      mul\n      0x20\n      add\n      mload(0x40)\n      swap1\n      dup2\n      add\n      0x40\n      mstore\n      dup1\n      swap3\n      swap2\n      swap1\n      dup2\n      dup2\n      mstore\n      0x20\n      add\n      dup3\n      dup1\n      sload\n      tag_130\n      swap1\n      tag_95\n      jump\t// in\n    tag_130:\n      dup1\n      iszero\n      tag_131\n      jumpi\n      dup1\n      0x1f\n      lt\n      tag_132\n      jumpi\n      0x0100\n      dup1\n      dup4\n      sload\n      div\n      mul\n      dup4\n      mstore\n      swap2\n      0x20\n      add\n      swap2\n      jump(tag_131)\n    tag_132:\n      dup3\n      add\n      swap2\n      swap1\n      0x00\n      mstore\n      keccak256(0x00, 0x20)\n      swap1\n    tag_133:\n      dup2\n      sload\n      dup2\n      mstore\n      swap1\n      0x01\n      add\n      swap1\n      0x20\n      add\n      dup1\n      dup4\n      gt\n      tag_133\n      jumpi\n      dup3\n      swap1\n      sub\n      0x1f\n      and\n      dup3\n      add\n      swap2\n    tag_131:\n      pop\n      pop\n      pop\n      pop\n      pop\n      dup2\n      mstore\n      0x20\n      add\n      0x04\n      dup3\n      add\n      0x00\n      swap1\n      sload\n      swap1\n      0x0100\n      exp\n      swap1\n      div\n      0xff\n      and\n      iszero\n      iszero\n      iszero\n      iszero\n      dup2\n      mstore\n      pop\n      pop\n      swap1\n      pop\n        /* \"contracts/userDetails.sol\":2781:2915  function getSingleUser(address _address) public view returns(userDetails memory){\r... */\n      swap2\n      swap1\n      pop\n      jump\t// out\n        /* \"contracts/userDetails.sol\":455:477  address[] public users */\n    tag_37:\n      0x01\n      dup2\n      dup2\n      sload\n      dup2\n      lt\n      tag_134\n      jumpi\n      0x00\n      dup1\n      revert\n    tag_134:\n      swap1\n      0x00\n      mstore\n      keccak256(0x00, 0x20)\n      add\n      0x00\n      swap2\n      pop\n      sload\n      swap1\n      0x0100\n      exp\n      swap1\n      div\n      0xffffffffffffffffffffffffffffffffffffffff\n      and\n      dup2\n      jump\t// out\n        /* \"contracts/userDetails.sol\":554:583  address[] public distributors */\n    tag_42:\n      0x04\n      dup2\n      dup2\n      sload\n      dup2\n      lt\n      tag_136\n      jumpi\n      0x00\n      dup1\n      revert\n    tag_136:\n      swap1\n      0x00\n      mstore\n      keccak256(0x00, 0x20)\n      add\n      0x00\n      swap2\n      pop\n      sload\n      swap1\n      0x0100\n      exp\n      swap1\n      div\n      0xffffffffffffffffffffffffffffffffffffffff\n      and\n      dup2\n      jump\t// out\n        /* \"contracts/userDetails.sol\":336:391  mapping(address=>userDetails) public userDetailsMapping */\n    tag_46:\n      mstore(0x20, 0x00)\n      dup1\n      0x00\n      mstore\n      keccak256(0x00, 0x40)\n      0x00\n      swap2\n      pop\n      swap1\n      pop\n      dup1\n      0x00\n      add\n      0x00\n      swap1\n      sload\n      swap1\n      0x0100\n      exp\n      swap1\n      div\n      0xff\n      and\n      swap1\n      dup1\n      0x01\n      add\n      dup1\n      sload\n      tag_138\n      swap1\n      tag_95\n      jump\t// in\n    tag_138:\n      dup1\n      0x1f\n      add\n      0x20\n      dup1\n      swap2\n      div\n      mul\n      0x20\n      add\n      mload(0x40)\n      swap1\n      dup2\n      add\n      0x40\n      mstore\n      dup1\n      swap3\n      swap2\n      swap1\n      dup2\n      dup2\n      mstore\n      0x20\n      add\n      dup3\n      dup1\n      sload\n      tag_139\n      swap1\n      tag_95\n      jump\t// in\n    tag_139:\n      dup1\n      iszero\n      tag_140\n      jumpi\n      dup1\n      0x1f\n      lt\n      tag_141\n      jumpi\n      0x0100\n      dup1\n      dup4\n      sload\n      div\n      mul\n      dup4\n      mstore\n      swap2\n      0x20\n      add\n      swap2\n      jump(tag_140)\n    tag_141:\n      dup3\n      add\n      swap2\n      swap1\n      0x00\n      mstore\n      keccak256(0x00, 0x20)\n      swap1\n    tag_142:\n      dup2\n      sload\n      dup2\n      mstore\n      swap1\n      0x01\n      add\n      swap1\n      0x20\n      add\n      dup1\n      dup4\n      gt\n      tag_142\n      jumpi\n      dup3\n      swap1\n      sub\n      0x1f\n      and\n      dup3\n      add\n      swap2\n    tag_140:\n      pop\n      pop\n      pop\n      pop\n      pop\n      swap1\n      dup1\n      0x02\n      add\n      dup1\n      sload\n      tag_143\n      swap1\n      tag_95\n      jump\t// in\n    tag_143:\n      dup1\n      0x1f\n      add\n      0x20\n      dup1\n      swap2\n      div\n      mul\n      0x20\n      add\n      mload(0x40)\n      swap1\n      dup2\n      add\n      0x40\n      mstore\n      dup1\n      swap3\n      swap2\n      swap1\n      dup2\n      dup2\n      mstore\n      0x20\n      add\n      dup3\n      dup1\n      sload\n      tag_144\n      swap1\n      tag_95\n      jump\t// in\n    tag_144:\n      dup1\n      iszero\n      tag_145\n      jumpi\n      dup1\n      0x1f\n      lt\n      tag_146\n      jumpi\n      0x0100\n      dup1\n      dup4\n      sload\n      div\n      mul\n      dup4\n      mstore\n      swap2\n      0x20\n      add\n      swap2\n      jump(tag_145)\n    tag_146:\n      dup3\n      add\n      swap2\n      swap1\n      0x00\n      mstore\n      keccak256(0x00, 0x20)\n      swap1\n    tag_147:\n      dup2\n      sload\n      dup2\n      mstore\n      swap1\n      0x01\n      add\n      swap1\n      0x20\n      add\n      dup1\n      dup4\n      gt\n      tag_147\n      jumpi\n      dup3\n      swap1\n      sub\n      0x1f\n      and\n      dup3\n      add\n      swap2\n    tag_145:\n      pop\n      pop\n      pop\n      pop\n      pop\n      swap1\n      dup1\n      0x03\n      add\n      dup1\n      sload\n      tag_148\n      swap1\n      tag_95\n      jump\t// in\n    tag_148:\n      dup1\n      0x1f\n      add\n      0x20\n      dup1\n      swap2\n      div\n      mul\n      0x20\n      add\n      mload(0x40)\n      swap1\n      dup2\n      add\n      0x40\n      mstore\n      dup1\n      swap3\n      swap2\n      swap1\n      dup2\n      dup2\n      mstore\n      0x20\n      add\n      dup3\n      dup1\n      sload\n      tag_149\n      swap1\n      tag_95\n      jump\t// in\n    tag_149:\n      dup1\n      iszero\n      tag_150\n      jumpi\n      dup1\n      0x1f\n      lt\n      tag_151\n      jumpi\n      0x0100\n      dup1\n      dup4\n      sload\n      div\n      mul\n      dup4\n      mstore\n      swap2\n      0x20\n      add\n      swap2\n      jump(tag_150)\n    tag_151:\n      dup3\n      add\n      swap2\n      swap1\n      0x00\n      mstore\n      keccak256(0x00, 0x20)\n      swap1\n    tag_152:\n      dup2\n      sload\n      dup2\n      mstore\n      swap1\n      0x01\n      add\n      swap1\n      0x20\n      add\n      dup1\n      dup4\n      gt\n      tag_152\n      jumpi\n      dup3\n      swap1\n      sub\n      0x1f\n      and\n      dup3\n      add\n      swap2\n    tag_150:\n      pop\n      pop\n      pop\n      pop\n      pop\n      swap1\n      dup1\n      0x04\n      add\n      0x00\n      swap1\n      sload\n      swap1\n      0x0100\n      exp\n      swap1\n      div\n      0xff\n      and\n      swap1\n      pop\n      dup6\n      jump\t// out\n        /* \"contracts/userDetails.sol\":2016:2352  function editPhysicalAddress(bytes memory _physicalAddress)public override{\r... */\n    tag_51:\n        /* \"contracts/userDetails.sol\":2154:2170  _physicalAddress */\n      dup1\n        /* \"contracts/userDetails.sol\":2101:2119  userDetailsMapping */\n      0x00\n        /* \"contracts/userDetails.sol\":2101:2131  userDetailsMapping[msg.sender] */\n      dup1\n        /* \"contracts/userDetails.sol\":2120:2130  msg.sender */\n      caller\n        /* \"contracts/userDetails.sol\":2101:2131  userDetailsMapping[msg.sender] */\n      0xffffffffffffffffffffffffffffffffffffffff\n      and\n      0xffffffffffffffffffffffffffffffffffffffff\n      and\n      dup2\n      mstore\n      0x20\n      add\n      swap1\n      dup2\n      mstore\n      0x20\n      add\n      0x00\n      keccak256\n        /* \"contracts/userDetails.sol\":2101:2151  userDetailsMapping[msg.sender].userPhysicalAddress */\n      0x02\n      add\n        /* \"contracts/userDetails.sol\":2101:2170  userDetailsMapping[msg.sender].userPhysicalAddress = _physicalAddress */\n      swap1\n      dup1\n      mload\n      swap1\n      0x20\n      add\n      swap1\n      tag_154\n      swap3\n      swap2\n      swap1\n      tag_88\n      jump\t// in\n    tag_154:\n      pop\n        /* \"contracts/userDetails.sol\":2181:2201  userDetails memory u */\n      0x00\n        /* \"contracts/userDetails.sol\":2204:2222  userDetailsMapping */\n      dup1\n        /* \"contracts/userDetails.sol\":2204:2234  userDetailsMapping[msg.sender] */\n      0x00\n        /* \"contracts/userDetails.sol\":2223:2233  msg.sender */\n      caller\n        /* \"contracts/userDetails.sol\":2204:2234  userDetailsMapping[msg.sender] */\n      0xffffffffffffffffffffffffffffffffffffffff\n      and\n      0xffffffffffffffffffffffffffffffffffffffff\n      and\n      dup2\n      mstore\n      0x20\n      add\n      swap1\n      dup2\n      mstore\n      0x20\n      add\n      0x00\n      keccak256\n        /* \"contracts/userDetails.sol\":2181:2234  userDetails memory u = userDetailsMapping[msg.sender] */\n      mload(0x40)\n      dup1\n      0xa0\n      add\n      0x40\n      mstore\n      swap1\n      dup2\n      0x00\n      dup3\n      add\n      0x00\n      swap1\n      sload\n      swap1\n      0x0100\n      exp\n      swap1\n      div\n      0xff\n      and\n      0x02\n      dup2\n      gt\n      iszero\n      tag_155\n      jumpi\n      tag_156\n      tag_91\n      jump\t// in\n    tag_156:\n    tag_155:\n      0x02\n      dup2\n      gt\n      iszero\n      tag_157\n      jumpi\n      tag_158\n      tag_91\n      jump\t// in\n    tag_158:\n    tag_157:\n      dup2\n      mstore\n      0x20\n      add\n      0x01\n      dup3\n      add\n      dup1\n      sload\n      tag_159\n      swap1\n      tag_95\n      jump\t// in\n    tag_159:\n      dup1\n      0x1f\n      add\n      0x20\n      dup1\n      swap2\n      div\n      mul\n      0x20\n      add\n      mload(0x40)\n      swap1\n      dup2\n      add\n      0x40\n      mstore\n      dup1\n      swap3\n      swap2\n      swap1\n      dup2\n      dup2\n      mstore\n      0x20\n      add\n      dup3\n      dup1\n      sload\n      tag_160\n      swap1\n      tag_95\n      jump\t// in\n    tag_160:\n      dup1\n      iszero\n      tag_161\n      jumpi\n      dup1\n      0x1f\n      lt\n      tag_162\n      jumpi\n      0x0100\n      dup1\n      dup4\n      sload\n      div\n      mul\n      dup4\n      mstore\n      swap2\n      0x20\n      add\n      swap2\n      jump(tag_161)\n    tag_162:\n      dup3\n      add\n      swap2\n      swap1\n      0x00\n      mstore\n      keccak256(0x00, 0x20)\n      swap1\n    tag_163:\n      dup2\n      sload\n      dup2\n      mstore\n      swap1\n      0x01\n      add\n      swap1\n      0x20\n      add\n      dup1\n      dup4\n      gt\n      tag_163\n      jumpi\n      dup3\n      swap1\n      sub\n      0x1f\n      and\n      dup3\n      add\n      swap2\n    tag_161:\n      pop\n      pop\n      pop\n      pop\n      pop\n      dup2\n      mstore\n      0x20\n      add\n      0x02\n      dup3\n      add\n      dup1\n      sload\n      tag_164\n      swap1\n      tag_95\n      jump\t// in\n    tag_164:\n      dup1\n      0x1f\n      add\n      0x20\n      dup1\n      swap2\n      div\n      mul\n      0x20\n      add\n      mload(0x40)\n      swap1\n      dup2\n      add\n      0x40\n      mstore\n      dup1\n      swap3\n      swap2\n      swap1\n      dup2\n      dup2\n      mstore\n      0x20\n      add\n      dup3\n      dup1\n      sload\n      tag_165\n      swap1\n      tag_95\n      jump\t// in\n    tag_165:\n      dup1\n      iszero\n      tag_166\n      jumpi\n      dup1\n      0x1f\n      lt\n      tag_167\n      jumpi\n      0x0100\n      dup1\n      dup4\n      sload\n      div\n      mul\n      dup4\n      mstore\n      swap2\n      0x20\n      add\n      swap2\n      jump(tag_166)\n    tag_167:\n      dup3\n      add\n      swap2\n      swap1\n      0x00\n      mstore\n      keccak256(0x00, 0x20)\n      swap1\n    tag_168:\n      dup2\n      sload\n      dup2\n      mstore\n      swap1\n      0x01\n      add\n      swap1\n      0x20\n      add\n      dup1\n      dup4\n      gt\n      tag_168\n      jumpi\n      dup3\n      swap1\n      sub\n      0x1f\n      and\n      dup3\n      add\n      swap2\n    tag_166:\n      pop\n      pop\n      pop\n      pop\n      pop\n      dup2\n      mstore\n      0x20\n      add\n      0x03\n      dup3\n      add\n      dup1\n      sload\n      tag_169\n      swap1\n      tag_95\n      jump\t// in\n    tag_169:\n      dup1\n      0x1f\n      add\n      0x20\n      dup1\n      swap2\n      div\n      mul\n      0x20\n      add\n      mload(0x40)\n      swap1\n      dup2\n      add\n      0x40\n      mstore\n      dup1\n      swap3\n      swap2\n      swap1\n      dup2\n      dup2\n      mstore\n      0x20\n      add\n      dup3\n      dup1\n      sload\n      tag_170\n      swap1\n      tag_95\n      jump\t// in\n    tag_170:\n      dup1\n      iszero\n      tag_171\n      jumpi\n      dup1\n      0x1f\n      lt\n      tag_172\n      jumpi\n      0x0100\n      dup1\n      dup4\n      sload\n      div\n      mul\n      dup4\n      mstore\n      swap2\n      0x20\n      add\n      swap2\n      jump(tag_171)\n    tag_172:\n      dup3\n      add\n      swap2\n      swap1\n      0x00\n      mstore\n      keccak256(0x00, 0x20)\n      swap1\n    tag_173:\n      dup2\n      sload\n      dup2\n      mstore\n      swap1\n      0x01\n      add\n      swap1\n      0x20\n      add\n      dup1\n      dup4\n      gt\n      tag_173\n      jumpi\n      dup3\n      swap1\n      sub\n      0x1f\n      and\n      dup3\n      add\n      swap2\n    tag_171:\n      pop\n      pop\n      pop\n      pop\n      pop\n      dup2\n      mstore\n      0x20\n      add\n      0x04\n      dup3\n      add\n      0x00\n      swap1\n      sload\n      swap1\n      0x0100\n      exp\n      swap1\n      div\n      0xff\n      and\n      iszero\n      iszero\n      iszero\n      iszero\n      dup2\n      mstore\n      pop\n      pop\n      swap1\n      pop\n        /* \"contracts/userDetails.sol\":2264:2274  msg.sender */\n      caller\n        /* \"contracts/userDetails.sol\":2250:2342  eventUserData(msg.sender,u.userType,u.userName,_physicalAddress,u.userImage,block.timestamp) */\n      0xffffffffffffffffffffffffffffffffffffffff\n      and\n      0xe49f40f57c43bcc0ea51de08718dcc45efb3325fb9d155e76c2a5ab33be2de16\n        /* \"contracts/userDetails.sol\":2275:2276  u */\n      dup3\n        /* \"contracts/userDetails.sol\":2275:2285  u.userType */\n      0x00\n      add\n      mload\n        /* \"contracts/userDetails.sol\":2286:2287  u */\n      dup4\n        /* \"contracts/userDetails.sol\":2286:2296  u.userName */\n      0x20\n      add\n      mload\n        /* \"contracts/userDetails.sol\":2297:2313  _physicalAddress */\n      dup6\n        /* \"contracts/userDetails.sol\":2314:2315  u */\n      dup6\n        /* \"contracts/userDetails.sol\":2314:2325  u.userImage */\n      0x60\n      add\n      mload\n        /* \"contracts/userDetails.sol\":2326:2341  block.timestamp */\n      timestamp\n        /* \"contracts/userDetails.sol\":2250:2342  eventUserData(msg.sender,u.userType,u.userName,_physicalAddress,u.userImage,block.timestamp) */\n      mload(0x40)\n      tag_174\n      swap6\n      swap5\n      swap4\n      swap3\n      swap2\n      swap1\n      tag_111\n      jump\t// in\n    tag_174:\n      mload(0x40)\n      dup1\n      swap2\n      sub\n      swap1\n      log2\n        /* \"contracts/userDetails.sol\":2090:2352  {\r... */\n      pop\n        /* \"contracts/userDetails.sol\":2016:2352  function editPhysicalAddress(bytes memory _physicalAddress)public override{\r... */\n      pop\n      jump\t// out\n        /* \"contracts/userDetails.sol\":4544:4858  function getAllDistributors() public view returns(userDetails[] memory){\r... */\n    tag_53:\n        /* \"contracts/userDetails.sol\":4594:4614  userDetails[] memory */\n      0x60\n        /* \"contracts/userDetails.sol\":4626:4652  userDetails[] memory distD */\n      0x00\n        /* \"contracts/userDetails.sol\":4673:4685  distributors */\n      0x04\n        /* \"contracts/userDetails.sol\":4673:4692  distributors.length */\n      dup1\n      sload\n      swap1\n      pop\n        /* \"contracts/userDetails.sol\":4655:4693  new userDetails[](distributors.length) */\n      0xffffffffffffffff\n      dup2\n      gt\n      iszero\n      tag_176\n      jumpi\n      tag_177\n      tag_178\n      jump\t// in\n    tag_177:\n    tag_176:\n      mload(0x40)\n      swap1\n      dup1\n      dup3\n      mstore\n      dup1\n      0x20\n      mul\n      0x20\n      add\n      dup3\n      add\n      0x40\n      mstore\n      dup1\n      iszero\n      tag_179\n      jumpi\n      dup2\n      0x20\n      add\n    tag_180:\n      tag_181\n      tag_113\n      jump\t// in\n    tag_181:\n      dup2\n      mstore\n      0x20\n      add\n      swap1\n      0x01\n      swap1\n      sub\n      swap1\n      dup2\n      tag_180\n      jumpi\n      swap1\n      pop\n    tag_179:\n      pop\n        /* \"contracts/userDetails.sol\":4626:4693  userDetails[] memory distD = new userDetails[](distributors.length) */\n      swap1\n      pop\n        /* \"contracts/userDetails.sol\":4708:4714  uint i */\n      0x00\n        /* \"contracts/userDetails.sol\":4704:4826  for(uint i=0;i<distributors.length;i++)\r... */\n    tag_182:\n        /* \"contracts/userDetails.sol\":4719:4731  distributors */\n      0x04\n        /* \"contracts/userDetails.sol\":4719:4738  distributors.length */\n      dup1\n      sload\n      swap1\n      pop\n        /* \"contracts/userDetails.sol\":4717:4718  i */\n      dup2\n        /* \"contracts/userDetails.sol\":4717:4738  i<distributors.length */\n      lt\n        /* \"contracts/userDetails.sol\":4704:4826  for(uint i=0;i<distributors.length;i++)\r... */\n      iszero\n      tag_183\n      jumpi\n        /* \"contracts/userDetails.sol\":4779:4797  userDetailsMapping */\n      0x00\n        /* \"contracts/userDetails.sol\":4779:4814  userDetailsMapping[distributors[i]] */\n      dup1\n        /* \"contracts/userDetails.sol\":4798:4810  distributors */\n      0x04\n        /* \"contracts/userDetails.sol\":4811:4812  i */\n      dup4\n        /* \"contracts/userDetails.sol\":4798:4813  distributors[i] */\n      dup2\n      sload\n      dup2\n      lt\n      tag_185\n      jumpi\n      tag_186\n      tag_187\n      jump\t// in\n    tag_186:\n    tag_185:\n      swap1\n      0x00\n      mstore\n      keccak256(0x00, 0x20)\n      add\n      0x00\n      swap1\n      sload\n      swap1\n      0x0100\n      exp\n      swap1\n      div\n      0xffffffffffffffffffffffffffffffffffffffff\n      and\n        /* \"contracts/userDetails.sol\":4779:4814  userDetailsMapping[distributors[i]] */\n      0xffffffffffffffffffffffffffffffffffffffff\n      and\n      0xffffffffffffffffffffffffffffffffffffffff\n      and\n      dup2\n      mstore\n      0x20\n      add\n      swap1\n      dup2\n      mstore\n      0x20\n      add\n      0x00\n      keccak256\n        /* \"contracts/userDetails.sol\":4768:4814  distD[i] = userDetailsMapping[distributors[i]] */\n      mload(0x40)\n      dup1\n      0xa0\n      add\n      0x40\n      mstore\n      swap1\n      dup2\n      0x00\n      dup3\n      add\n      0x00\n      swap1\n      sload\n      swap1\n      0x0100\n      exp\n      swap1\n      div\n      0xff\n      and\n      0x02\n      dup2\n      gt\n      iszero\n      tag_189\n      jumpi\n      tag_190\n      tag_91\n      jump\t// in\n    tag_190:\n    tag_189:\n      0x02\n      dup2\n      gt\n      iszero\n      tag_191\n      jumpi\n      tag_192\n      tag_91\n      jump\t// in\n    tag_192:\n    tag_191:\n      dup2\n      mstore\n      0x20\n      add\n      0x01\n      dup3\n      add\n      dup1\n      sload\n      tag_193\n      swap1\n      tag_95\n      jump\t// in\n    tag_193:\n      dup1\n      0x1f\n      add\n      0x20\n      dup1\n      swap2\n      div\n      mul\n      0x20\n      add\n      mload(0x40)\n      swap1\n      dup2\n      add\n      0x40\n      mstore\n      dup1\n      swap3\n      swap2\n      swap1\n      dup2\n      dup2\n      mstore\n      0x20\n      add\n      dup3\n      dup1\n      sload\n      tag_194\n      swap1\n      tag_95\n      jump\t// in\n    tag_194:\n      dup1\n      iszero\n      tag_195\n      jumpi\n      dup1\n      0x1f\n      lt\n      tag_196\n      jumpi\n      0x0100\n      dup1\n      dup4\n      sload\n      div\n      mul\n      dup4\n      mstore\n      swap2\n      0x20\n      add\n      swap2\n      jump(tag_195)\n    tag_196:\n      dup3\n      add\n      swap2\n      swap1\n      0x00\n      mstore\n      keccak256(0x00, 0x20)\n      swap1\n    tag_197:\n      dup2\n      sload\n      dup2\n      mstore\n      swap1\n      0x01\n      add\n      swap1\n      0x20\n      add\n      dup1\n      dup4\n      gt\n      tag_197\n      jumpi\n      dup3\n      swap1\n      sub\n      0x1f\n      and\n      dup3\n      add\n      swap2\n    tag_195:\n      pop\n      pop\n      pop\n      pop\n      pop\n      dup2\n      mstore\n      0x20\n      add\n      0x02\n      dup3\n      add\n      dup1\n      sload\n      tag_198\n      swap1\n      tag_95\n      jump\t// in\n    tag_198:\n      dup1\n      0x1f\n      add\n      0x20\n      dup1\n      swap2\n      div\n      mul\n      0x20\n      add\n      mload(0x40)\n      swap1\n      dup2\n      add\n      0x40\n      mstore\n      dup1\n      swap3\n      swap2\n      swap1\n      dup2\n      dup2\n      mstore\n      0x20\n      add\n      dup3\n      dup1\n      sload\n      tag_199\n      swap1\n      tag_95\n      jump\t// in\n    tag_199:\n      dup1\n      iszero\n      tag_200\n      jumpi\n      dup1\n      0x1f\n      lt\n      tag_201\n      jumpi\n      0x0100\n      dup1\n      dup4\n      sload\n      div\n      mul\n      dup4\n      mstore\n      swap2\n      0x20\n      add\n      swap2\n      jump(tag_200)\n    tag_201:\n      dup3\n      add\n      swap2\n      swap1\n      0x00\n      mstore\n      keccak256(0x00, 0x20)\n      swap1\n    tag_202:\n      dup2\n      sload\n      dup2\n      mstore\n      swap1\n      0x01\n      add\n      swap1\n      0x20\n      add\n      dup1\n      dup4\n      gt\n      tag_202\n      jumpi\n      dup3\n      swap1\n      sub\n      0x1f\n      and\n      dup3\n      add\n      swap2\n    tag_200:\n      pop\n      pop\n      pop\n      pop\n      pop\n      dup2\n      mstore\n      0x20\n      add\n      0x03\n      dup3\n      add\n      dup1\n      sload\n      tag_203\n      swap1\n      tag_95\n      jump\t// in\n    tag_203:\n      dup1\n      0x1f\n      add\n      0x20\n      dup1\n      swap2\n      div\n      mul\n      0x20\n      add\n      mload(0x40)\n      swap1\n      dup2\n      add\n      0x40\n      mstore\n      dup1\n      swap3\n      swap2\n      swap1\n      dup2\n      dup2\n      mstore\n      0x20\n      add\n      dup3\n      dup1\n      sload\n      tag_204\n      swap1\n      tag_95\n      jump\t// in\n    tag_204:\n      dup1\n      iszero\n      tag_205\n      jumpi\n      dup1\n      0x1f\n      lt\n      tag_206\n      jumpi\n      0x0100\n      dup1\n      dup4\n      sload\n      div\n      mul\n      dup4\n      mstore\n      swap2\n      0x20\n      add\n      swap2\n      jump(tag_205)\n    tag_206:\n      dup3\n      add\n      swap2\n      swap1\n      0x00\n      mstore\n      keccak256(0x00, 0x20)\n      swap1\n    tag_207:\n      dup2\n      sload\n      dup2\n      mstore\n      swap1\n      0x01\n      add\n      swap1\n      0x20\n      add\n      dup1\n      dup4\n      gt\n      tag_207\n      jumpi\n      dup3\n      swap1\n      sub\n      0x1f\n      and\n      dup3\n      add\n      swap2\n    tag_205:\n      pop\n      pop\n      pop\n      pop\n      pop\n      dup2\n      mstore\n      0x20\n      add\n      0x04\n      dup3\n      add\n      0x00\n      swap1\n      sload\n      swap1\n      0x0100\n      exp\n      swap1\n      div\n      0xff\n      and\n      iszero\n      iszero\n      iszero\n      iszero\n      dup2\n      mstore\n      pop\n      pop\n        /* \"contracts/userDetails.sol\":4768:4773  distD */\n      dup3\n        /* \"contracts/userDetails.sol\":4774:4775  i */\n      dup3\n        /* \"contracts/userDetails.sol\":4768:4776  distD[i] */\n      dup2\n      mload\n      dup2\n      lt\n      tag_208\n      jumpi\n      tag_209\n      tag_187\n      jump\t// in\n    tag_209:\n    tag_208:\n      0x20\n      mul\n      0x20\n      add\n      add\n        /* \"contracts/userDetails.sol\":4768:4814  distD[i] = userDetailsMapping[distributors[i]] */\n      dup2\n      swap1\n      mstore\n      pop\n        /* \"contracts/userDetails.sol\":4739:4742  i++ */\n      dup1\n      dup1\n      tag_210\n      swap1\n      tag_211\n      jump\t// in\n    tag_210:\n      swap2\n      pop\n      pop\n        /* \"contracts/userDetails.sol\":4704:4826  for(uint i=0;i<distributors.length;i++)\r... */\n      jump(tag_182)\n    tag_183:\n      pop\n        /* \"contracts/userDetails.sol\":4843:4848  distD */\n      dup1\n        /* \"contracts/userDetails.sol\":4836:4848  return distD */\n      swap2\n      pop\n      pop\n        /* \"contracts/userDetails.sol\":4544:4858  function getAllDistributors() public view returns(userDetails[] memory){\r... */\n      swap1\n      jump\t// out\n        /* \"contracts/userDetails.sol\":517:547  address[] public manufacturers */\n    tag_58:\n      0x03\n      dup2\n      dup2\n      sload\n      dup2\n      lt\n      tag_212\n      jumpi\n      0x00\n      dup1\n      revert\n    tag_212:\n      swap1\n      0x00\n      mstore\n      keccak256(0x00, 0x20)\n      add\n      0x00\n      swap2\n      pop\n      sload\n      swap1\n      0x0100\n      exp\n      swap1\n      div\n      0xffffffffffffffffffffffffffffffffffffffff\n      and\n      dup2\n      jump\t// out\n        /* \"contracts/userDetails.sol\":713:1386  function addUser(userType _type, bytes calldata _name, bytes calldata _physicalAddress,bytes memory _image)public override {\r... */\n    tag_63:\n        /* \"contracts/userDetails.sol\":907:908  0 */\n      0x00\n        /* \"contracts/userDetails.sol\":856:874  userDetailsMapping */\n      dup1\n        /* \"contracts/userDetails.sol\":856:886  userDetailsMapping[msg.sender] */\n      0x00\n        /* \"contracts/userDetails.sol\":875:885  msg.sender */\n      caller\n        /* \"contracts/userDetails.sol\":856:886  userDetailsMapping[msg.sender] */\n      0xffffffffffffffffffffffffffffffffffffffff\n      and\n      0xffffffffffffffffffffffffffffffffffffffff\n      and\n      dup2\n      mstore\n      0x20\n      add\n      swap1\n      dup2\n      mstore\n      0x20\n      add\n      0x00\n      keccak256\n        /* \"contracts/userDetails.sol\":856:895  userDetailsMapping[msg.sender].userName */\n      0x01\n      add\n        /* \"contracts/userDetails.sol\":855:903  (userDetailsMapping[msg.sender].userName).length */\n      dup1\n      sload\n      tag_215\n      swap1\n      tag_95\n      jump\t// in\n    tag_215:\n      swap1\n      pop\n        /* \"contracts/userDetails.sol\":855:908  (userDetailsMapping[msg.sender].userName).length == 0 */\n      eq\n        /* \"contracts/userDetails.sol\":847:936  require((userDetailsMapping[msg.sender].userName).length == 0, \"User already registered\") */\n      tag_216\n      jumpi\n      mload(0x40)\n      0x08c379a000000000000000000000000000000000000000000000000000000000\n      dup2\n      mstore\n      0x04\n      add\n      tag_217\n      swap1\n      tag_218\n      jump\t// in\n    tag_217:\n      mload(0x40)\n      dup1\n      swap2\n      sub\n      swap1\n      revert\n    tag_216:\n        /* \"contracts/userDetails.sol\":980:1034  userDetails(_type,_name,_physicalAddress,_image, true) */\n      mload(0x40)\n      dup1\n      0xa0\n      add\n      0x40\n      mstore\n      dup1\n        /* \"contracts/userDetails.sol\":992:997  _type */\n      dup8\n        /* \"contracts/userDetails.sol\":980:1034  userDetails(_type,_name,_physicalAddress,_image, true) */\n      0x02\n      dup2\n      gt\n      iszero\n      tag_219\n      jumpi\n      tag_220\n      tag_91\n      jump\t// in\n    tag_220:\n    tag_219:\n      dup2\n      mstore\n      0x20\n      add\n        /* \"contracts/userDetails.sol\":998:1003  _name */\n      dup7\n      dup7\n        /* \"contracts/userDetails.sol\":980:1034  userDetails(_type,_name,_physicalAddress,_image, true) */\n      dup1\n      dup1\n      0x1f\n      add\n      0x20\n      dup1\n      swap2\n      div\n      mul\n      0x20\n      add\n      mload(0x40)\n      swap1\n      dup2\n      add\n      0x40\n      mstore\n      dup1\n      swap4\n      swap3\n      swap2\n      swap1\n      dup2\n      dup2\n      mstore\n      0x20\n      add\n      dup4\n      dup4\n      dup1\n      dup3\n      dup5\n      calldatacopy\n      0x00\n      dup2\n      dup5\n      add\n      mstore\n      not(0x1f)\n      0x1f\n      dup3\n      add\n      and\n      swap1\n      pop\n      dup1\n      dup4\n      add\n      swap3\n      pop\n      pop\n      pop\n      pop\n      pop\n      pop\n      pop\n      dup2\n      mstore\n      0x20\n      add\n        /* \"contracts/userDetails.sol\":1004:1020  _physicalAddress */\n      dup5\n      dup5\n        /* \"contracts/userDetails.sol\":980:1034  userDetails(_type,_name,_physicalAddress,_image, true) */\n      dup1\n      dup1\n      0x1f\n      add\n      0x20\n      dup1\n      swap2\n      div\n      mul\n      0x20\n      add\n      mload(0x40)\n      swap1\n      dup2\n      add\n      0x40\n      mstore\n      dup1\n      swap4\n      swap3\n      swap2\n      swap1\n      dup2\n      dup2\n      mstore\n      0x20\n      add\n      dup4\n      dup4\n      dup1\n      dup3\n      dup5\n      calldatacopy\n      0x00\n      dup2\n      dup5\n      add\n      mstore\n      not(0x1f)\n      0x1f\n      dup3\n      add\n      and\n      swap1\n      pop\n      dup1\n      dup4\n      add\n      swap3\n      pop\n      pop\n      pop\n      pop\n      pop\n      pop\n      pop\n      dup2\n      mstore\n      0x20\n      add\n        /* \"contracts/userDetails.sol\":1021:1027  _image */\n      dup3\n        /* \"contracts/userDetails.sol\":980:1034  userDetails(_type,_name,_physicalAddress,_image, true) */\n      dup2\n      mstore\n      0x20\n      add\n        /* \"contracts/userDetails.sol\":1029:1033  true */\n      0x01\n        /* \"contracts/userDetails.sol\":980:1034  userDetails(_type,_name,_physicalAddress,_image, true) */\n      iszero\n      iszero\n      dup2\n      mstore\n      pop\n        /* \"contracts/userDetails.sol\":947:965  userDetailsMapping */\n      0x00\n        /* \"contracts/userDetails.sol\":947:977  userDetailsMapping[msg.sender] */\n      dup1\n        /* \"contracts/userDetails.sol\":966:976  msg.sender */\n      caller\n        /* \"contracts/userDetails.sol\":947:977  userDetailsMapping[msg.sender] */\n      0xffffffffffffffffffffffffffffffffffffffff\n      and\n      0xffffffffffffffffffffffffffffffffffffffff\n      and\n      dup2\n      mstore\n      0x20\n      add\n      swap1\n      dup2\n      mstore\n      0x20\n      add\n      0x00\n      keccak256\n        /* \"contracts/userDetails.sol\":947:1034  userDetailsMapping[msg.sender] = userDetails(_type,_name,_physicalAddress,_image, true) */\n      0x00\n      dup3\n      add\n      mload\n      dup2\n      0x00\n      add\n      exp(0x0100, 0x00)\n      dup2\n      sload\n      dup2\n      0xff\n      mul\n      not\n      and\n      swap1\n      dup4\n      0x02\n      dup2\n      gt\n      iszero\n      tag_221\n      jumpi\n      tag_222\n      tag_91\n      jump\t// in\n    tag_222:\n    tag_221:\n      mul\n      or\n      swap1\n      sstore\n      pop\n      0x20\n      dup3\n      add\n      mload\n      dup2\n      0x01\n      add\n      swap1\n      dup1\n      mload\n      swap1\n      0x20\n      add\n      swap1\n      tag_223\n      swap3\n      swap2\n      swap1\n      tag_88\n      jump\t// in\n    tag_223:\n      pop\n      0x40\n      dup3\n      add\n      mload\n      dup2\n      0x02\n      add\n      swap1\n      dup1\n      mload\n      swap1\n      0x20\n      add\n      swap1\n      tag_224\n      swap3\n      swap2\n      swap1\n      tag_88\n      jump\t// in\n    tag_224:\n      pop\n      0x60\n      dup3\n      add\n      mload\n      dup2\n      0x03\n      add\n      swap1\n      dup1\n      mload\n      swap1\n      0x20\n      add\n      swap1\n      tag_225\n      swap3\n      swap2\n      swap1\n      tag_88\n      jump\t// in\n    tag_225:\n      pop\n      0x80\n      dup3\n      add\n      mload\n      dup2\n      0x04\n      add\n      exp(0x0100, 0x00)\n      dup2\n      sload\n      dup2\n      0xff\n      mul\n      not\n      and\n      swap1\n      dup4\n      iszero\n      iszero\n      mul\n      or\n      swap1\n      sstore\n      pop\n      swap1\n      pop\n      pop\n        /* \"contracts/userDetails.sol\":1045:1050  users */\n      0x01\n        /* \"contracts/userDetails.sol\":1056:1066  msg.sender */\n      caller\n        /* \"contracts/userDetails.sol\":1045:1067  users.push(msg.sender) */\n      swap1\n      dup1\n      0x01\n      dup2\n      sload\n      add\n      dup1\n      dup3\n      sstore\n      dup1\n      swap2\n      pop\n      pop\n      0x01\n      swap1\n      sub\n      swap1\n      0x00\n      mstore\n      keccak256(0x00, 0x20)\n      add\n      0x00\n      swap1\n      swap2\n      swap1\n      swap2\n      swap1\n      swap2\n      0x0100\n      exp\n      dup2\n      sload\n      dup2\n      0xffffffffffffffffffffffffffffffffffffffff\n      mul\n      not\n      and\n      swap1\n      dup4\n      0xffffffffffffffffffffffffffffffffffffffff\n      and\n      mul\n      or\n      swap1\n      sstore\n      pop\n        /* \"contracts/userDetails.sol\":1090:1107  userType.Supplier */\n      0x00\n        /* \"contracts/userDetails.sol\":1081:1107  _type == userType.Supplier */\n      0x02\n      dup2\n      gt\n      iszero\n      tag_227\n      jumpi\n      tag_228\n      tag_91\n      jump\t// in\n    tag_228:\n    tag_227:\n        /* \"contracts/userDetails.sol\":1081:1086  _type */\n      dup7\n        /* \"contracts/userDetails.sol\":1081:1107  _type == userType.Supplier */\n      0x02\n      dup2\n      gt\n      iszero\n      tag_229\n      jumpi\n      tag_230\n      tag_91\n      jump\t// in\n    tag_230:\n    tag_229:\n      eq\n        /* \"contracts/userDetails.sol\":1078:1135  if(_type == userType.Supplier) suppliers.push(msg.sender) */\n      iszero\n      tag_231\n      jumpi\n        /* \"contracts/userDetails.sol\":1109:1118  suppliers */\n      0x02\n        /* \"contracts/userDetails.sol\":1124:1134  msg.sender */\n      caller\n        /* \"contracts/userDetails.sol\":1109:1135  suppliers.push(msg.sender) */\n      swap1\n      dup1\n      0x01\n      dup2\n      sload\n      add\n      dup1\n      dup3\n      sstore\n      dup1\n      swap2\n      pop\n      pop\n      0x01\n      swap1\n      sub\n      swap1\n      0x00\n      mstore\n      keccak256(0x00, 0x20)\n      add\n      0x00\n      swap1\n      swap2\n      swap1\n      swap2\n      swap1\n      swap2\n      0x0100\n      exp\n      dup2\n      sload\n      dup2\n      0xffffffffffffffffffffffffffffffffffffffff\n      mul\n      not\n      and\n      swap1\n      dup4\n      0xffffffffffffffffffffffffffffffffffffffff\n      and\n      mul\n      or\n      swap1\n      sstore\n      pop\n        /* \"contracts/userDetails.sol\":1078:1135  if(_type == userType.Supplier) suppliers.push(msg.sender) */\n    tag_231:\n        /* \"contracts/userDetails.sol\":1158:1179  userType.Manufacturer */\n      0x01\n        /* \"contracts/userDetails.sol\":1149:1179  _type == userType.Manufacturer */\n      0x02\n      dup2\n      gt\n      iszero\n      tag_233\n      jumpi\n      tag_234\n      tag_91\n      jump\t// in\n    tag_234:\n    tag_233:\n        /* \"contracts/userDetails.sol\":1149:1154  _type */\n      dup7\n        /* \"contracts/userDetails.sol\":1149:1179  _type == userType.Manufacturer */\n      0x02\n      dup2\n      gt\n      iszero\n      tag_235\n      jumpi\n      tag_236\n      tag_91\n      jump\t// in\n    tag_236:\n    tag_235:\n      eq\n        /* \"contracts/userDetails.sol\":1146:1211  if(_type == userType.Manufacturer) manufacturers.push(msg.sender) */\n      iszero\n      tag_237\n      jumpi\n        /* \"contracts/userDetails.sol\":1181:1194  manufacturers */\n      0x03\n        /* \"contracts/userDetails.sol\":1200:1210  msg.sender */\n      caller\n        /* \"contracts/userDetails.sol\":1181:1211  manufacturers.push(msg.sender) */\n      swap1\n      dup1\n      0x01\n      dup2\n      sload\n      add\n      dup1\n      dup3\n      sstore\n      dup1\n      swap2\n      pop\n      pop\n      0x01\n      swap1\n      sub\n      swap1\n      0x00\n      mstore\n      keccak256(0x00, 0x20)\n      add\n      0x00\n      swap1\n      swap2\n      swap1\n      swap2\n      swap1\n      swap2\n      0x0100\n      exp\n      dup2\n      sload\n      dup2\n      0xffffffffffffffffffffffffffffffffffffffff\n      mul\n      not\n      and\n      swap1\n      dup4\n      0xffffffffffffffffffffffffffffffffffffffff\n      and\n      mul\n      or\n      swap1\n      sstore\n      pop\n        /* \"contracts/userDetails.sol\":1146:1211  if(_type == userType.Manufacturer) manufacturers.push(msg.sender) */\n    tag_237:\n        /* \"contracts/userDetails.sol\":1234:1254  userType.Distributor */\n      0x02\n        /* \"contracts/userDetails.sol\":1225:1254  _type == userType.Distributor */\n      dup1\n      dup2\n      gt\n      iszero\n      tag_239\n      jumpi\n      tag_240\n      tag_91\n      jump\t// in\n    tag_240:\n    tag_239:\n        /* \"contracts/userDetails.sol\":1225:1230  _type */\n      dup7\n        /* \"contracts/userDetails.sol\":1225:1254  _type == userType.Distributor */\n      0x02\n      dup2\n      gt\n      iszero\n      tag_241\n      jumpi\n      tag_242\n      tag_91\n      jump\t// in\n    tag_242:\n    tag_241:\n      eq\n        /* \"contracts/userDetails.sol\":1222:1285  if(_type == userType.Distributor) distributors.push(msg.sender) */\n      iszero\n      tag_243\n      jumpi\n        /* \"contracts/userDetails.sol\":1256:1268  distributors */\n      0x04\n        /* \"contracts/userDetails.sol\":1274:1284  msg.sender */\n      caller\n        /* \"contracts/userDetails.sol\":1256:1285  distributors.push(msg.sender) */\n      swap1\n      dup1\n      0x01\n      dup2\n      sload\n      add\n      dup1\n      dup3\n      sstore\n      dup1\n      swap2\n      pop\n      pop\n      0x01\n      swap1\n      sub\n      swap1\n      0x00\n      mstore\n      keccak256(0x00, 0x20)\n      add\n      0x00\n      swap1\n      swap2\n      swap1\n      swap2\n      swap1\n      swap2\n      0x0100\n      exp\n      dup2\n      sload\n      dup2\n      0xffffffffffffffffffffffffffffffffffffffff\n      mul\n      not\n      and\n      swap1\n      dup4\n      0xffffffffffffffffffffffffffffffffffffffff\n      and\n      mul\n      or\n      swap1\n      sstore\n      pop\n        /* \"contracts/userDetails.sol\":1222:1285  if(_type == userType.Distributor) distributors.push(msg.sender) */\n    tag_243:\n        /* \"contracts/userDetails.sol\":1315:1325  msg.sender */\n      caller\n        /* \"contracts/userDetails.sol\":1301:1378  eventUserData(msg.sender,_type,_name,_physicalAddress,_image,block.timestamp) */\n      0xffffffffffffffffffffffffffffffffffffffff\n      and\n      0xe49f40f57c43bcc0ea51de08718dcc45efb3325fb9d155e76c2a5ab33be2de16\n        /* \"contracts/userDetails.sol\":1326:1331  _type */\n      dup8\n        /* \"contracts/userDetails.sol\":1332:1337  _name */\n      dup8\n      dup8\n        /* \"contracts/userDetails.sol\":1338:1354  _physicalAddress */\n      dup8\n      dup8\n        /* \"contracts/userDetails.sol\":1355:1361  _image */\n      dup8\n        /* \"contracts/userDetails.sol\":1362:1377  block.timestamp */\n      timestamp\n        /* \"contracts/userDetails.sol\":1301:1378  eventUserData(msg.sender,_type,_name,_physicalAddress,_image,block.timestamp) */\n      mload(0x40)\n      tag_245\n      swap8\n      swap7\n      swap6\n      swap5\n      swap4\n      swap3\n      swap2\n      swap1\n      tag_246\n      jump\t// in\n    tag_245:\n      mload(0x40)\n      dup1\n      swap2\n      sub\n      swap1\n      log2\n        /* \"contracts/userDetails.sol\":713:1386  function addUser(userType _type, bytes calldata _name, bytes calldata _physicalAddress,bytes memory _image)public override {\r... */\n      pop\n      pop\n      pop\n      pop\n      pop\n      pop\n      jump\t// out\n        /* \"contracts/userDetails.sol\":3363:3933  function getAllSuppliers() public view returns(address[] memory, userDetails[] memory) {\r... */\n    tag_65:\n        /* \"contracts/userDetails.sol\":3410:3426  address[] memory */\n      0x60\n        /* \"contracts/userDetails.sol\":3428:3448  userDetails[] memory */\n      dup1\n        /* \"contracts/userDetails.sol\":3461:3491  address[] memory suppAddresses */\n      0x00\n        /* \"contracts/userDetails.sol\":3508:3517  suppliers */\n      0x02\n        /* \"contracts/userDetails.sol\":3508:3524  suppliers.length */\n      dup1\n      sload\n      swap1\n      pop\n        /* \"contracts/userDetails.sol\":3494:3525  new address[](suppliers.length) */\n      0xffffffffffffffff\n      dup2\n      gt\n      iszero\n      tag_248\n      jumpi\n      tag_249\n      tag_178\n      jump\t// in\n    tag_249:\n    tag_248:\n      mload(0x40)\n      swap1\n      dup1\n      dup3\n      mstore\n      dup1\n      0x20\n      mul\n      0x20\n      add\n      dup3\n      add\n      0x40\n      mstore\n      dup1\n      iszero\n      tag_250\n      jumpi\n      dup2\n      0x20\n      add\n      0x20\n      dup3\n      mul\n      dup1\n      calldatasize\n      dup4\n      calldatacopy\n      dup1\n      dup3\n      add\n      swap2\n      pop\n      pop\n      swap1\n      pop\n    tag_250:\n      pop\n        /* \"contracts/userDetails.sol\":3461:3525  address[] memory suppAddresses = new address[](suppliers.length) */\n      swap1\n      pop\n        /* \"contracts/userDetails.sol\":3536:3568  userDetails[] memory suppDetails */\n      0x00\n        /* \"contracts/userDetails.sol\":3589:3598  suppliers */\n      0x02\n        /* \"contracts/userDetails.sol\":3589:3605  suppliers.length */\n      dup1\n      sload\n      swap1\n      pop\n        /* \"contracts/userDetails.sol\":3571:3606  new userDetails[](suppliers.length) */\n      0xffffffffffffffff\n      dup2\n      gt\n      iszero\n      tag_251\n      jumpi\n      tag_252\n      tag_178\n      jump\t// in\n    tag_252:\n    tag_251:\n      mload(0x40)\n      swap1\n      dup1\n      dup3\n      mstore\n      dup1\n      0x20\n      mul\n      0x20\n      add\n      dup3\n      add\n      0x40\n      mstore\n      dup1\n      iszero\n      tag_253\n      jumpi\n      dup2\n      0x20\n      add\n    tag_254:\n      tag_255\n      tag_113\n      jump\t// in\n    tag_255:\n      dup2\n      mstore\n      0x20\n      add\n      swap1\n      0x01\n      swap1\n      sub\n      swap1\n      dup2\n      tag_254\n      jumpi\n      swap1\n      pop\n    tag_253:\n      pop\n        /* \"contracts/userDetails.sol\":3536:3606  userDetails[] memory suppDetails = new userDetails[](suppliers.length) */\n      swap1\n      pop\n        /* \"contracts/userDetails.sol\":3623:3629  uint i */\n      0x00\n        /* \"contracts/userDetails.sol\":3619:3878  for(uint i=0; i<suppliers.length; i++) {\r... */\n    tag_256:\n        /* \"contracts/userDetails.sol\":3635:3644  suppliers */\n      0x02\n        /* \"contracts/userDetails.sol\":3635:3651  suppliers.length */\n      dup1\n      sload\n      swap1\n      pop\n        /* \"contracts/userDetails.sol\":3633:3634  i */\n      dup2\n        /* \"contracts/userDetails.sol\":3633:3651  i<suppliers.length */\n      lt\n        /* \"contracts/userDetails.sol\":3619:3878  for(uint i=0; i<suppliers.length; i++) {\r... */\n      iszero\n      tag_257\n      jumpi\n        /* \"contracts/userDetails.sol\":3673:3692  address suppAddress */\n      0x00\n        /* \"contracts/userDetails.sol\":3695:3704  suppliers */\n      0x02\n        /* \"contracts/userDetails.sol\":3705:3706  i */\n      dup3\n        /* \"contracts/userDetails.sol\":3695:3707  suppliers[i] */\n      dup2\n      sload\n      dup2\n      lt\n      tag_259\n      jumpi\n      tag_260\n      tag_187\n      jump\t// in\n    tag_260:\n    tag_259:\n      swap1\n      0x00\n      mstore\n      keccak256(0x00, 0x20)\n      add\n      0x00\n      swap1\n      sload\n      swap1\n      0x0100\n      exp\n      swap1\n      div\n      0xffffffffffffffffffffffffffffffffffffffff\n      and\n        /* \"contracts/userDetails.sol\":3673:3707  address suppAddress = suppliers[i] */\n      swap1\n      pop\n        /* \"contracts/userDetails.sol\":3722:3748  userDetails memory details */\n      0x00\n        /* \"contracts/userDetails.sol\":3751:3769  userDetailsMapping */\n      dup1\n        /* \"contracts/userDetails.sol\":3751:3782  userDetailsMapping[suppAddress] */\n      0x00\n        /* \"contracts/userDetails.sol\":3770:3781  suppAddress */\n      dup4\n        /* \"contracts/userDetails.sol\":3751:3782  userDetailsMapping[suppAddress] */\n      0xffffffffffffffffffffffffffffffffffffffff\n      and\n      0xffffffffffffffffffffffffffffffffffffffff\n      and\n      dup2\n      mstore\n      0x20\n      add\n      swap1\n      dup2\n      mstore\n      0x20\n      add\n      0x00\n      keccak256\n        /* \"contracts/userDetails.sol\":3722:3782  userDetails memory details = userDetailsMapping[suppAddress] */\n      mload(0x40)\n      dup1\n      0xa0\n      add\n      0x40\n      mstore\n      swap1\n      dup2\n      0x00\n      dup3\n      add\n      0x00\n      swap1\n      sload\n      swap1\n      0x0100\n      exp\n      swap1\n      div\n      0xff\n      and\n      0x02\n      dup2\n      gt\n      iszero\n      tag_262\n      jumpi\n      tag_263\n      tag_91\n      jump\t// in\n    tag_263:\n    tag_262:\n      0x02\n      dup2\n      gt\n      iszero\n      tag_264\n      jumpi\n      tag_265\n      tag_91\n      jump\t// in\n    tag_265:\n    tag_264:\n      dup2\n      mstore\n      0x20\n      add\n      0x01\n      dup3\n      add\n      dup1\n      sload\n      tag_266\n      swap1\n      tag_95\n      jump\t// in\n    tag_266:\n      dup1\n      0x1f\n      add\n      0x20\n      dup1\n      swap2\n      div\n      mul\n      0x20\n      add\n      mload(0x40)\n      swap1\n      dup2\n      add\n      0x40\n      mstore\n      dup1\n      swap3\n      swap2\n      swap1\n      dup2\n      dup2\n      mstore\n      0x20\n      add\n      dup3\n      dup1\n      sload\n      tag_267\n      swap1\n      tag_95\n      jump\t// in\n    tag_267:\n      dup1\n      iszero\n      tag_268\n      jumpi\n      dup1\n      0x1f\n      lt\n      tag_269\n      jumpi\n      0x0100\n      dup1\n      dup4\n      sload\n      div\n      mul\n      dup4\n      mstore\n      swap2\n      0x20\n      add\n      swap2\n      jump(tag_268)\n    tag_269:\n      dup3\n      add\n      swap2\n      swap1\n      0x00\n      mstore\n      keccak256(0x00, 0x20)\n      swap1\n    tag_270:\n      dup2\n      sload\n      dup2\n      mstore\n      swap1\n      0x01\n      add\n      swap1\n      0x20\n      add\n      dup1\n      dup4\n      gt\n      tag_270\n      jumpi\n      dup3\n      swap1\n      sub\n      0x1f\n      and\n      dup3\n      add\n      swap2\n    tag_268:\n      pop\n      pop\n      pop\n      pop\n      pop\n      dup2\n      mstore\n      0x20\n      add\n      0x02\n      dup3\n      add\n      dup1\n      sload\n      tag_271\n      swap1\n      tag_95\n      jump\t// in\n    tag_271:\n      dup1\n      0x1f\n      add\n      0x20\n      dup1\n      swap2\n      div\n      mul\n      0x20\n      add\n      mload(0x40)\n      swap1\n      dup2\n      add\n      0x40\n      mstore\n      dup1\n      swap3\n      swap2\n      swap1\n      dup2\n      dup2\n      mstore\n      0x20\n      add\n      dup3\n      dup1\n      sload\n      tag_272\n      swap1\n      tag_95\n      jump\t// in\n    tag_272:\n      dup1\n      iszero\n      tag_273\n      jumpi\n      dup1\n      0x1f\n      lt\n      tag_274\n      jumpi\n      0x0100\n      dup1\n      dup4\n      sload\n      div\n      mul\n      dup4\n      mstore\n      swap2\n      0x20\n      add\n      swap2\n      jump(tag_273)\n    tag_274:\n      dup3\n      add\n      swap2\n      swap1\n      0x00\n      mstore\n      keccak256(0x00, 0x20)\n      swap1\n    tag_275:\n      dup2\n      sload\n      dup2\n      mstore\n      swap1\n      0x01\n      add\n      swap1\n      0x20\n      add\n      dup1\n      dup4\n      gt\n      tag_275\n      jumpi\n      dup3\n      swap1\n      sub\n      0x1f\n      and\n      dup3\n      add\n      swap2\n    tag_273:\n      pop\n      pop\n      pop\n      pop\n      pop\n      dup2\n      mstore\n      0x20\n      add\n      0x03\n      dup3\n      add\n      dup1\n      sload\n      tag_276\n      swap1\n      tag_95\n      jump\t// in\n    tag_276:\n      dup1\n      0x1f\n      add\n      0x20\n      dup1\n      swap2\n      div\n      mul\n      0x20\n      add\n      mload(0x40)\n      swap1\n      dup2\n      add\n      0x40\n      mstore\n      dup1\n      swap3\n      swap2\n      swap1\n      dup2\n      dup2\n      mstore\n      0x20\n      add\n      dup3\n      dup1\n      sload\n      tag_277\n      swap1\n      tag_95\n      jump\t// in\n    tag_277:\n      dup1\n      iszero\n      tag_278\n      jumpi\n      dup1\n      0x1f\n      lt\n      tag_279\n      jumpi\n      0x0100\n      dup1\n      dup4\n      sload\n      div\n      mul\n      dup4\n      mstore\n      swap2\n      0x20\n      add\n      swap2\n      jump(tag_278)\n    tag_279:\n      dup3\n      add\n      swap2\n      swap1\n      0x00\n      mstore\n      keccak256(0x00, 0x20)\n      swap1\n    tag_280:\n      dup2\n      sload\n      dup2\n      mstore\n      swap1\n      0x01\n      add\n      swap1\n      0x20\n      add\n      dup1\n      dup4\n      gt\n      tag_280\n      jumpi\n      dup3\n      swap1\n      sub\n      0x1f\n      and\n      dup3\n      add\n      swap2\n    tag_278:\n      pop\n      pop\n      pop\n      pop\n      pop\n      dup2\n      mstore\n      0x20\n      add\n      0x04\n      dup3\n      add\n      0x00\n      swap1\n      sload\n      swap1\n      0x0100\n      exp\n      swap1\n      div\n      0xff\n      and\n      iszero\n      iszero\n      iszero\n      iszero\n      dup2\n      mstore\n      pop\n      pop\n      swap1\n      pop\n        /* \"contracts/userDetails.sol\":3816:3827  suppAddress */\n      dup2\n        /* \"contracts/userDetails.sol\":3797:3810  suppAddresses */\n      dup6\n        /* \"contracts/userDetails.sol\":3811:3812  i */\n      dup5\n        /* \"contracts/userDetails.sol\":3797:3813  suppAddresses[i] */\n      dup2\n      mload\n      dup2\n      lt\n      tag_281\n      jumpi\n      tag_282\n      tag_187\n      jump\t// in\n    tag_282:\n    tag_281:\n      0x20\n      mul\n      0x20\n      add\n      add\n        /* \"contracts/userDetails.sol\":3797:3827  suppAddresses[i] = suppAddress */\n      swap1\n      0xffffffffffffffffffffffffffffffffffffffff\n      and\n      swap1\n      dup2\n      0xffffffffffffffffffffffffffffffffffffffff\n      and\n      dup2\n      mstore\n      pop\n      pop\n        /* \"contracts/userDetails.sol\":3859:3866  details */\n      dup1\n        /* \"contracts/userDetails.sol\":3842:3853  suppDetails */\n      dup5\n        /* \"contracts/userDetails.sol\":3854:3855  i */\n      dup5\n        /* \"contracts/userDetails.sol\":3842:3856  suppDetails[i] */\n      dup2\n      mload\n      dup2\n      lt\n      tag_283\n      jumpi\n      tag_284\n      tag_187\n      jump\t// in\n    tag_284:\n    tag_283:\n      0x20\n      mul\n      0x20\n      add\n      add\n        /* \"contracts/userDetails.sol\":3842:3866  suppDetails[i] = details */\n      dup2\n      swap1\n      mstore\n      pop\n        /* \"contracts/userDetails.sol\":3658:3878  {\r... */\n      pop\n      pop\n        /* \"contracts/userDetails.sol\":3653:3656  i++ */\n      dup1\n      dup1\n      tag_285\n      swap1\n      tag_211\n      jump\t// in\n    tag_285:\n      swap2\n      pop\n      pop\n        /* \"contracts/userDetails.sol\":3619:3878  for(uint i=0; i<suppliers.length; i++) {\r... */\n      jump(tag_256)\n    tag_257:\n      pop\n        /* \"contracts/userDetails.sol\":3898:3911  suppAddresses */\n      dup2\n        /* \"contracts/userDetails.sol\":3913:3924  suppDetails */\n      dup2\n        /* \"contracts/userDetails.sol\":3890:3925  return (suppAddresses, suppDetails) */\n      swap4\n      pop\n      swap4\n      pop\n      pop\n      pop\n        /* \"contracts/userDetails.sol\":3363:3933  function getAllSuppliers() public view returns(address[] memory, userDetails[] memory) {\r... */\n      swap1\n      swap2\n      jump\t// out\n        /* \"contracts/userDetails.sol\":3947:4055  function getAllSupplierAddresses() public view returns(address[] memory) {\r... */\n    tag_69:\n        /* \"contracts/userDetails.sol\":4002:4018  address[] memory */\n      0x60\n        /* \"contracts/userDetails.sol\":4038:4047  suppliers */\n      0x02\n        /* \"contracts/userDetails.sol\":4031:4047  return suppliers */\n      dup1\n      sload\n      dup1\n      0x20\n      mul\n      0x20\n      add\n      mload(0x40)\n      swap1\n      dup2\n      add\n      0x40\n      mstore\n      dup1\n      swap3\n      swap2\n      swap1\n      dup2\n      dup2\n      mstore\n      0x20\n      add\n      dup3\n      dup1\n      sload\n      dup1\n      iszero\n      tag_287\n      jumpi\n      0x20\n      mul\n      dup3\n      add\n      swap2\n      swap1\n      0x00\n      mstore\n      keccak256(0x00, 0x20)\n      swap1\n    tag_288:\n      dup2\n      0x00\n      swap1\n      sload\n      swap1\n      0x0100\n      exp\n      swap1\n      div\n      0xffffffffffffffffffffffffffffffffffffffff\n      and\n      0xffffffffffffffffffffffffffffffffffffffff\n      and\n      dup2\n      mstore\n      0x20\n      add\n      swap1\n      0x01\n      add\n      swap1\n      dup1\n      dup4\n      gt\n      tag_288\n      jumpi\n    tag_287:\n      pop\n      pop\n      pop\n      pop\n      pop\n      swap1\n      pop\n        /* \"contracts/userDetails.sol\":3947:4055  function getAllSupplierAddresses() public view returns(address[] memory) {\r... */\n      swap1\n      jump\t// out\n        /* \"contracts/userDetails.sol\":484:510  address[] public suppliers */\n    tag_74:\n      0x02\n      dup2\n      dup2\n      sload\n      dup2\n      lt\n      tag_289\n      jumpi\n      0x00\n      dup1\n      revert\n    tag_289:\n      swap1\n      0x00\n      mstore\n      keccak256(0x00, 0x20)\n      add\n      0x00\n      swap2\n      pop\n      sload\n      swap1\n      0x0100\n      exp\n      swap1\n      div\n      0xffffffffffffffffffffffffffffffffffffffff\n      and\n      dup2\n      jump\t// out\n        /* \"contracts/userDetails.sol\":2416:2701  function editImage(bytes memory _image)public override {\r... */\n    tag_78:\n        /* \"contracts/userDetails.sol\":2525:2531  _image */\n      dup1\n        /* \"contracts/userDetails.sol\":2482:2500  userDetailsMapping */\n      0x00\n        /* \"contracts/userDetails.sol\":2482:2512  userDetailsMapping[msg.sender] */\n      dup1\n        /* \"contracts/userDetails.sol\":2501:2511  msg.sender */\n      caller\n        /* \"contracts/userDetails.sol\":2482:2512  userDetailsMapping[msg.sender] */\n      0xffffffffffffffffffffffffffffffffffffffff\n      and\n      0xffffffffffffffffffffffffffffffffffffffff\n      and\n      dup2\n      mstore\n      0x20\n      add\n      swap1\n      dup2\n      mstore\n      0x20\n      add\n      0x00\n      keccak256\n        /* \"contracts/userDetails.sol\":2482:2522  userDetailsMapping[msg.sender].userImage */\n      0x03\n      add\n        /* \"contracts/userDetails.sol\":2482:2531  userDetailsMapping[msg.sender].userImage = _image */\n      swap1\n      dup1\n      mload\n      swap1\n      0x20\n      add\n      swap1\n      tag_292\n      swap3\n      swap2\n      swap1\n      tag_88\n      jump\t// in\n    tag_292:\n      pop\n        /* \"contracts/userDetails.sol\":2542:2562  userDetails memory u */\n      0x00\n        /* \"contracts/userDetails.sol\":2565:2583  userDetailsMapping */\n      dup1\n        /* \"contracts/userDetails.sol\":2565:2595  userDetailsMapping[msg.sender] */\n      0x00\n        /* \"contracts/userDetails.sol\":2584:2594  msg.sender */\n      caller\n        /* \"contracts/userDetails.sol\":2565:2595  userDetailsMapping[msg.sender] */\n      0xffffffffffffffffffffffffffffffffffffffff\n      and\n      0xffffffffffffffffffffffffffffffffffffffff\n      and\n      dup2\n      mstore\n      0x20\n      add\n      swap1\n      dup2\n      mstore\n      0x20\n      add\n      0x00\n      keccak256\n        /* \"contracts/userDetails.sol\":2542:2595  userDetails memory u = userDetailsMapping[msg.sender] */\n      mload(0x40)\n      dup1\n      0xa0\n      add\n      0x40\n      mstore\n      swap1\n      dup2\n      0x00\n      dup3\n      add\n      0x00\n      swap1\n      sload\n      swap1\n      0x0100\n      exp\n      swap1\n      div\n      0xff\n      and\n      0x02\n      dup2\n      gt\n      iszero\n      tag_293\n      jumpi\n      tag_294\n      tag_91\n      jump\t// in\n    tag_294:\n    tag_293:\n      0x02\n      dup2\n      gt\n      iszero\n      tag_295\n      jumpi\n      tag_296\n      tag_91\n      jump\t// in\n    tag_296:\n    tag_295:\n      dup2\n      mstore\n      0x20\n      add\n      0x01\n      dup3\n      add\n      dup1\n      sload\n      tag_297\n      swap1\n      tag_95\n      jump\t// in\n    tag_297:\n      dup1\n      0x1f\n      add\n      0x20\n      dup1\n      swap2\n      div\n      mul\n      0x20\n      add\n      mload(0x40)\n      swap1\n      dup2\n      add\n      0x40\n      mstore\n      dup1\n      swap3\n      swap2\n      swap1\n      dup2\n      dup2\n      mstore\n      0x20\n      add\n      dup3\n      dup1\n      sload\n      tag_298\n      swap1\n      tag_95\n      jump\t// in\n    tag_298:\n      dup1\n      iszero\n      tag_299\n      jumpi\n      dup1\n      0x1f\n      lt\n      tag_300\n      jumpi\n      0x0100\n      dup1\n      dup4\n      sload\n      div\n      mul\n      dup4\n      mstore\n      swap2\n      0x20\n      add\n      swap2\n      jump(tag_299)\n    tag_300:\n      dup3\n      add\n      swap2\n      swap1\n      0x00\n      mstore\n      keccak256(0x00, 0x20)\n      swap1\n    tag_301:\n      dup2\n      sload\n      dup2\n      mstore\n      swap1\n      0x01\n      add\n      swap1\n      0x20\n      add\n      dup1\n      dup4\n      gt\n      tag_301\n      jumpi\n      dup3\n      swap1\n      sub\n      0x1f\n      and\n      dup3\n      add\n      swap2\n    tag_299:\n      pop\n      pop\n      pop\n      pop\n      pop\n      dup2\n      mstore\n      0x20\n      add\n      0x02\n      dup3\n      add\n      dup1\n      sload\n      tag_302\n      swap1\n      tag_95\n      jump\t// in\n    tag_302:\n      dup1\n      0x1f\n      add\n      0x20\n      dup1\n      swap2\n      div\n      mul\n      0x20\n      add\n      mload(0x40)\n      swap1\n      dup2\n      add\n      0x40\n      mstore\n      dup1\n      swap3\n      swap2\n      swap1\n      dup2\n      dup2\n      mstore\n      0x20\n      add\n      dup3\n      dup1\n      sload\n      tag_303\n      swap1\n      tag_95\n      jump\t// in\n    tag_303:\n      dup1\n      iszero\n      tag_304\n      jumpi\n      dup1\n      0x1f\n      lt\n      tag_305\n      jumpi\n      0x0100\n      dup1\n      dup4\n      sload\n      div\n      mul\n      dup4\n      mstore\n      swap2\n      0x20\n      add\n      swap2\n      jump(tag_304)\n    tag_305:\n      dup3\n      add\n      swap2\n      swap1\n      0x00\n      mstore\n      keccak256(0x00, 0x20)\n      swap1\n    tag_306:\n      dup2\n      sload\n      dup2\n      mstore\n      swap1\n      0x01\n      add\n      swap1\n      0x20\n      add\n      dup1\n      dup4\n      gt\n      tag_306\n      jumpi\n      dup3\n      swap1\n      sub\n      0x1f\n      and\n      dup3\n      add\n      swap2\n    tag_304:\n      pop\n      pop\n      pop\n      pop\n      pop\n      dup2\n      mstore\n      0x20\n      add\n      0x03\n      dup3\n      add\n      dup1\n      sload\n      tag_307\n      swap1\n      tag_95\n      jump\t// in\n    tag_307:\n      dup1\n      0x1f\n      add\n      0x20\n      dup1\n      swap2\n      div\n      mul\n      0x20\n      add\n      mload(0x40)\n      swap1\n      dup2\n      add\n      0x40\n      mstore\n      dup1\n      swap3\n      swap2\n      swap1\n      dup2\n      dup2\n      mstore\n      0x20\n      add\n      dup3\n      dup1\n      sload\n      tag_308\n      swap1\n      tag_95\n      jump\t// in\n    tag_308:\n      dup1\n      iszero\n      tag_309\n      jumpi\n      dup1\n      0x1f\n      lt\n      tag_310\n      jumpi\n      0x0100\n      dup1\n      dup4\n      sload\n      div\n      mul\n      dup4\n      mstore\n      swap2\n      0x20\n      add\n      swap2\n      jump(tag_309)\n    tag_310:\n      dup3\n      add\n      swap2\n      swap1\n      0x00\n      mstore\n      keccak256(0x00, 0x20)\n      swap1\n    tag_311:\n      dup2\n      sload\n      dup2\n      mstore\n      swap1\n      0x01\n      add\n      swap1\n      0x20\n      add\n      dup1\n      dup4\n      gt\n      tag_311\n      jumpi\n      dup3\n      swap1\n      sub\n      0x1f\n      and\n      dup3\n      add\n      swap2\n    tag_309:\n      pop\n      pop\n      pop\n      pop\n      pop\n      dup2\n      mstore\n      0x20\n      add\n      0x04\n      dup3\n      add\n      0x00\n      swap1\n      sload\n      swap1\n      0x0100\n      exp\n      swap1\n      div\n      0xff\n      and\n      iszero\n      iszero\n      iszero\n      iszero\n      dup2\n      mstore\n      pop\n      pop\n      swap1\n      pop\n        /* \"contracts/userDetails.sol\":2625:2635  msg.sender */\n      caller\n        /* \"contracts/userDetails.sol\":2611:2693  eventUserData(msg.sender,u.userType,u.userName,u.userImage,_image,block.timestamp) */\n      0xffffffffffffffffffffffffffffffffffffffff\n      and\n      0xe49f40f57c43bcc0ea51de08718dcc45efb3325fb9d155e76c2a5ab33be2de16\n        /* \"contracts/userDetails.sol\":2636:2637  u */\n      dup3\n        /* \"contracts/userDetails.sol\":2636:2646  u.userType */\n      0x00\n      add\n      mload\n        /* \"contracts/userDetails.sol\":2647:2648  u */\n      dup4\n        /* \"contracts/userDetails.sol\":2647:2657  u.userName */\n      0x20\n      add\n      mload\n        /* \"contracts/userDetails.sol\":2658:2659  u */\n      dup5\n        /* \"contracts/userDetails.sol\":2658:2669  u.userImage */\n      0x60\n      add\n      mload\n        /* \"contracts/userDetails.sol\":2670:2676  _image */\n      dup7\n        /* \"contracts/userDetails.sol\":2677:2692  block.timestamp */\n      timestamp\n        /* \"contracts/userDetails.sol\":2611:2693  eventUserData(msg.sender,u.userType,u.userName,u.userImage,_image,block.timestamp) */\n      mload(0x40)\n      tag_312\n      swap6\n      swap5\n      swap4\n      swap3\n      swap2\n      swap1\n      tag_111\n      jump\t// in\n    tag_312:\n      mload(0x40)\n      dup1\n      swap2\n      sub\n      swap1\n      log2\n        /* \"contracts/userDetails.sol\":2471:2701  {\r... */\n      pop\n        /* \"contracts/userDetails.sol\":2416:2701  function editImage(bytes memory _image)public override {\r... */\n      pop\n      jump\t// out\n        /* \"contracts/userDetails.sol\":4141:4459  function getAllManufacturers() public view returns(userDetails[] memory){\r... */\n    tag_80:\n        /* \"contracts/userDetails.sol\":4192:4212  userDetails[] memory */\n      0x60\n        /* \"contracts/userDetails.sol\":4224:4250  userDetails[] memory manuD */\n      0x00\n        /* \"contracts/userDetails.sol\":4271:4284  manufacturers */\n      0x03\n        /* \"contracts/userDetails.sol\":4271:4291  manufacturers.length */\n      dup1\n      sload\n      swap1\n      pop\n        /* \"contracts/userDetails.sol\":4253:4292  new userDetails[](manufacturers.length) */\n      0xffffffffffffffff\n      dup2\n      gt\n      iszero\n      tag_314\n      jumpi\n      tag_315\n      tag_178\n      jump\t// in\n    tag_315:\n    tag_314:\n      mload(0x40)\n      swap1\n      dup1\n      dup3\n      mstore\n      dup1\n      0x20\n      mul\n      0x20\n      add\n      dup3\n      add\n      0x40\n      mstore\n      dup1\n      iszero\n      tag_316\n      jumpi\n      dup2\n      0x20\n      add\n    tag_317:\n      tag_318\n      tag_113\n      jump\t// in\n    tag_318:\n      dup2\n      mstore\n      0x20\n      add\n      swap1\n      0x01\n      swap1\n      sub\n      swap1\n      dup2\n      tag_317\n      jumpi\n      swap1\n      pop\n    tag_316:\n      pop\n        /* \"contracts/userDetails.sol\":4224:4292  userDetails[] memory manuD = new userDetails[](manufacturers.length) */\n      swap1\n      pop\n        /* \"contracts/userDetails.sol\":4307:4313  uint i */\n      0x00\n        /* \"contracts/userDetails.sol\":4303:4427  for(uint i=0;i<manufacturers.length;i++)\r... */\n    tag_319:\n        /* \"contracts/userDetails.sol\":4318:4331  manufacturers */\n      0x03\n        /* \"contracts/userDetails.sol\":4318:4338  manufacturers.length */\n      dup1\n      sload\n      swap1\n      pop\n        /* \"contracts/userDetails.sol\":4316:4317  i */\n      dup2\n        /* \"contracts/userDetails.sol\":4316:4338  i<manufacturers.length */\n      lt\n        /* \"contracts/userDetails.sol\":4303:4427  for(uint i=0;i<manufacturers.length;i++)\r... */\n      iszero\n      tag_320\n      jumpi\n        /* \"contracts/userDetails.sol\":4379:4397  userDetailsMapping */\n      0x00\n        /* \"contracts/userDetails.sol\":4379:4415  userDetailsMapping[manufacturers[i]] */\n      dup1\n        /* \"contracts/userDetails.sol\":4398:4411  manufacturers */\n      0x03\n        /* \"contracts/userDetails.sol\":4412:4413  i */\n      dup4\n        /* \"contracts/userDetails.sol\":4398:4414  manufacturers[i] */\n      dup2\n      sload\n      dup2\n      lt\n      tag_322\n      jumpi\n      tag_323\n      tag_187\n      jump\t// in\n    tag_323:\n    tag_322:\n      swap1\n      0x00\n      mstore\n      keccak256(0x00, 0x20)\n      add\n      0x00\n      swap1\n      sload\n      swap1\n      0x0100\n      exp\n      swap1\n      div\n      0xffffffffffffffffffffffffffffffffffffffff\n      and\n        /* \"contracts/userDetails.sol\":4379:4415  userDetailsMapping[manufacturers[i]] */\n      0xffffffffffffffffffffffffffffffffffffffff\n      and\n      0xffffffffffffffffffffffffffffffffffffffff\n      and\n      dup2\n      mstore\n      0x20\n      add\n      swap1\n      dup2\n      mstore\n      0x20\n      add\n      0x00\n      keccak256\n        /* \"contracts/userDetails.sol\":4368:4415  manuD[i] = userDetailsMapping[manufacturers[i]] */\n      mload(0x40)\n      dup1\n      0xa0\n      add\n      0x40\n      mstore\n      swap1\n      dup2\n      0x00\n      dup3\n      add\n      0x00\n      swap1\n      sload\n      swap1\n      0x0100\n      exp\n      swap1\n      div\n      0xff\n      and\n      0x02\n      dup2\n      gt\n      iszero\n      tag_325\n      jumpi\n      tag_326\n      tag_91\n      jump\t// in\n    tag_326:\n    tag_325:\n      0x02\n      dup2\n      gt\n      iszero\n      tag_327\n      jumpi\n      tag_328\n      tag_91\n      jump\t// in\n    tag_328:\n    tag_327:\n      dup2\n      mstore\n      0x20\n      add\n      0x01\n      dup3\n      add\n      dup1\n      sload\n      tag_329\n      swap1\n      tag_95\n      jump\t// in\n    tag_329:\n      dup1\n      0x1f\n      add\n      0x20\n      dup1\n      swap2\n      div\n      mul\n      0x20\n      add\n      mload(0x40)\n      swap1\n      dup2\n      add\n      0x40\n      mstore\n      dup1\n      swap3\n      swap2\n      swap1\n      dup2\n      dup2\n      mstore\n      0x20\n      add\n      dup3\n      dup1\n      sload\n      tag_330\n      swap1\n      tag_95\n      jump\t// in\n    tag_330:\n      dup1\n      iszero\n      tag_331\n      jumpi\n      dup1\n      0x1f\n      lt\n      tag_332\n      jumpi\n      0x0100\n      dup1\n      dup4\n      sload\n      div\n      mul\n      dup4\n      mstore\n      swap2\n      0x20\n      add\n      swap2\n      jump(tag_331)\n    tag_332:\n      dup3\n      add\n      swap2\n      swap1\n      0x00\n      mstore\n      keccak256(0x00, 0x20)\n      swap1\n    tag_333:\n      dup2\n      sload\n      dup2\n      mstore\n      swap1\n      0x01\n      add\n      swap1\n      0x20\n      add\n      dup1\n      dup4\n      gt\n      tag_333\n      jumpi\n      dup3\n      swap1\n      sub\n      0x1f\n      and\n      dup3\n      add\n      swap2\n    tag_331:\n      pop\n      pop\n      pop\n      pop\n      pop\n      dup2\n      mstore\n      0x20\n      add\n      0x02\n      dup3\n      add\n      dup1\n      sload\n      tag_334\n      swap1\n      tag_95\n      jump\t// in\n    tag_334:\n      dup1\n      0x1f\n      add\n      0x20\n      dup1\n      swap2\n      div\n      mul\n      0x20\n      add\n      mload(0x40)\n      swap1\n      dup2\n      add\n      0x40\n      mstore\n      dup1\n      swap3\n      swap2\n      swap1\n      dup2\n      dup2\n      mstore\n      0x20\n      add\n      dup3\n      dup1\n      sload\n      tag_335\n      swap1\n      tag_95\n      jump\t// in\n    tag_335:\n      dup1\n      iszero\n      tag_336\n      jumpi\n      dup1\n      0x1f\n      lt\n      tag_337\n      jumpi\n      0x0100\n      dup1\n      dup4\n      sload\n      div\n      mul\n      dup4\n      mstore\n      swap2\n      0x20\n      add\n      swap2\n      jump(tag_336)\n    tag_337:\n      dup3\n      add\n      swap2\n      swap1\n      0x00\n      mstore\n      keccak256(0x00, 0x20)\n      swap1\n    tag_338:\n      dup2\n      sload\n      dup2\n      mstore\n      swap1\n      0x01\n      add\n      swap1\n      0x20\n      add\n      dup1\n      dup4\n      gt\n      tag_338\n      jumpi\n      dup3\n      swap1\n      sub\n      0x1f\n      and\n      dup3\n      add\n      swap2\n    tag_336:\n      pop\n      pop\n      pop\n      pop\n      pop\n      dup2\n      mstore\n      0x20\n      add\n      0x03\n      dup3\n      add\n      dup1\n      sload\n      tag_339\n      swap1\n      tag_95\n      jump\t// in\n    tag_339:\n      dup1\n      0x1f\n      add\n      0x20\n      dup1\n      swap2\n      div\n      mul\n      0x20\n      add\n      mload(0x40)\n      swap1\n      dup2\n      add\n      0x40\n      mstore\n      dup1\n      swap3\n      swap2\n      swap1\n      dup2\n      dup2\n      mstore\n      0x20\n      add\n      dup3\n      dup1\n      sload\n      tag_340\n      swap1\n      tag_95\n      jump\t// in\n    tag_340:\n      dup1\n      iszero\n      tag_341\n      jumpi\n      dup1\n      0x1f\n      lt\n      tag_342\n      jumpi\n      0x0100\n      dup1\n      dup4\n      sload\n      div\n      mul\n      dup4\n      mstore\n      swap2\n      0x20\n      add\n      swap2\n      jump(tag_341)\n    tag_342:\n      dup3\n      add\n      swap2\n      swap1\n      0x00\n      mstore\n      keccak256(0x00, 0x20)\n      swap1\n    tag_343:\n      dup2\n      sload\n      dup2\n      mstore\n      swap1\n      0x01\n      add\n      swap1\n      0x20\n      add\n      dup1\n      dup4\n      gt\n      tag_343\n      jumpi\n      dup3\n      swap1\n      sub\n      0x1f\n      and\n      dup3\n      add\n      swap2\n    tag_341:\n      pop\n      pop\n      pop\n      pop\n      pop\n      dup2\n      mstore\n      0x20\n      add\n      0x04\n      dup3\n      add\n      0x00\n      swap1\n      sload\n      swap1\n      0x0100\n      exp\n      swap1\n      div\n      0xff\n      and\n      iszero\n      iszero\n      iszero\n      iszero\n      dup2\n      mstore\n      pop\n      pop\n        /* \"contracts/userDetails.sol\":4368:4373  manuD */\n      dup3\n        /* \"contracts/userDetails.sol\":4374:4375  i */\n      dup3\n        /* \"contracts/userDetails.sol\":4368:4376  manuD[i] */\n      dup2\n      mload\n      dup2\n      lt\n      tag_344\n      jumpi\n      tag_345\n      tag_187\n      jump\t// in\n    tag_345:\n    tag_344:\n      0x20\n      mul\n      0x20\n      add\n      add\n        /* \"contracts/userDetails.sol\":4368:4415  manuD[i] = userDetailsMapping[manufacturers[i]] */\n      dup2\n      swap1\n      mstore\n      pop\n        /* \"contracts/userDetails.sol\":4339:4342  i++ */\n      dup1\n      dup1\n      tag_346\n      swap1\n      tag_211\n      jump\t// in\n    tag_346:\n      swap2\n      pop\n      pop\n        /* \"contracts/userDetails.sol\":4303:4427  for(uint i=0;i<manufacturers.length;i++)\r... */\n      jump(tag_319)\n    tag_320:\n      pop\n        /* \"contracts/userDetails.sol\":4444:4449  manuD */\n      dup1\n        /* \"contracts/userDetails.sol\":4437:4449  return manuD */\n      swap2\n      pop\n      pop\n        /* \"contracts/userDetails.sol\":4141:4459  function getAllManufacturers() public view returns(userDetails[] memory){\r... */\n      swap1\n      jump\t// out\n        /* \"contracts/userDetails.sol\":2997:3281  function getAllUsers() public view returns(userDetails[] memory){\r... */\n    tag_83:\n        /* \"contracts/userDetails.sol\":3040:3060  userDetails[] memory */\n      0x60\n        /* \"contracts/userDetails.sol\":3072:3098  userDetails[] memory userD */\n      0x00\n        /* \"contracts/userDetails.sol\":3119:3124  users */\n      0x01\n        /* \"contracts/userDetails.sol\":3119:3131  users.length */\n      dup1\n      sload\n      swap1\n      pop\n        /* \"contracts/userDetails.sol\":3101:3132  new userDetails[](users.length) */\n      0xffffffffffffffff\n      dup2\n      gt\n      iszero\n      tag_348\n      jumpi\n      tag_349\n      tag_178\n      jump\t// in\n    tag_349:\n    tag_348:\n      mload(0x40)\n      swap1\n      dup1\n      dup3\n      mstore\n      dup1\n      0x20\n      mul\n      0x20\n      add\n      dup3\n      add\n      0x40\n      mstore\n      dup1\n      iszero\n      tag_350\n      jumpi\n      dup2\n      0x20\n      add\n    tag_351:\n      tag_352\n      tag_113\n      jump\t// in\n    tag_352:\n      dup2\n      mstore\n      0x20\n      add\n      swap1\n      0x01\n      swap1\n      sub\n      swap1\n      dup2\n      tag_351\n      jumpi\n      swap1\n      pop\n    tag_350:\n      pop\n        /* \"contracts/userDetails.sol\":3072:3132  userDetails[] memory userD = new userDetails[](users.length) */\n      swap1\n      pop\n        /* \"contracts/userDetails.sol\":3147:3153  uint i */\n      0x00\n        /* \"contracts/userDetails.sol\":3143:3251  for(uint i=0;i<users.length;i++)\r... */\n    tag_353:\n        /* \"contracts/userDetails.sol\":3158:3163  users */\n      0x01\n        /* \"contracts/userDetails.sol\":3158:3170  users.length */\n      dup1\n      sload\n      swap1\n      pop\n        /* \"contracts/userDetails.sol\":3156:3157  i */\n      dup2\n        /* \"contracts/userDetails.sol\":3156:3170  i<users.length */\n      lt\n        /* \"contracts/userDetails.sol\":3143:3251  for(uint i=0;i<users.length;i++)\r... */\n      iszero\n      tag_354\n      jumpi\n        /* \"contracts/userDetails.sol\":3211:3229  userDetailsMapping */\n      0x00\n        /* \"contracts/userDetails.sol\":3211:3239  userDetailsMapping[users[i]] */\n      dup1\n        /* \"contracts/userDetails.sol\":3230:3235  users */\n      0x01\n        /* \"contracts/userDetails.sol\":3236:3237  i */\n      dup4\n        /* \"contracts/userDetails.sol\":3230:3238  users[i] */\n      dup2\n      sload\n      dup2\n      lt\n      tag_356\n      jumpi\n      tag_357\n      tag_187\n      jump\t// in\n    tag_357:\n    tag_356:\n      swap1\n      0x00\n      mstore\n      keccak256(0x00, 0x20)\n      add\n      0x00\n      swap1\n      sload\n      swap1\n      0x0100\n      exp\n      swap1\n      div\n      0xffffffffffffffffffffffffffffffffffffffff\n      and\n        /* \"contracts/userDetails.sol\":3211:3239  userDetailsMapping[users[i]] */\n      0xffffffffffffffffffffffffffffffffffffffff\n      and\n      0xffffffffffffffffffffffffffffffffffffffff\n      and\n      dup2\n      mstore\n      0x20\n      add\n      swap1\n      dup2\n      mstore\n      0x20\n      add\n      0x00\n      keccak256\n        /* \"contracts/userDetails.sol\":3200:3239  userD[i] = userDetailsMapping[users[i]] */\n      mload(0x40)\n      dup1\n      0xa0\n      add\n      0x40\n      mstore\n      swap1\n      dup2\n      0x00\n      dup3\n      add\n      0x00\n      swap1\n      sload\n      swap1\n      0x0100\n      exp\n      swap1\n      div\n      0xff\n      and\n      0x02\n      dup2\n      gt\n      iszero\n      tag_359\n      jumpi\n      tag_360\n      tag_91\n      jump\t// in\n    tag_360:\n    tag_359:\n      0x02\n      dup2\n      gt\n      iszero\n      tag_361\n      jumpi\n      tag_362\n      tag_91\n      jump\t// in\n    tag_362:\n    tag_361:\n      dup2\n      mstore\n      0x20\n      add\n      0x01\n      dup3\n      add\n      dup1\n      sload\n      tag_363\n      swap1\n      tag_95\n      jump\t// in\n    tag_363:\n      dup1\n      0x1f\n      add\n      0x20\n      dup1\n      swap2\n      div\n      mul\n      0x20\n      add\n      mload(0x40)\n      swap1\n      dup2\n      add\n      0x40\n      mstore\n      dup1\n      swap3\n      swap2\n      swap1\n      dup2\n      dup2\n      mstore\n      0x20\n      add\n      dup3\n      dup1\n      sload\n      tag_364\n      swap1\n      tag_95\n      jump\t// in\n    tag_364:\n      dup1\n      iszero\n      tag_365\n      jumpi\n      dup1\n      0x1f\n      lt\n      tag_366\n      jumpi\n      0x0100\n      dup1\n      dup4\n      sload\n      div\n      mul\n      dup4\n      mstore\n      swap2\n      0x20\n      add\n      swap2\n      jump(tag_365)\n    tag_366:\n      dup3\n      add\n      swap2\n      swap1\n      0x00\n      mstore\n      keccak256(0x00, 0x20)\n      swap1\n    tag_367:\n      dup2\n      sload\n      dup2\n      mstore\n      swap1\n      0x01\n      add\n      swap1\n      0x20\n      add\n      dup1\n      dup4\n      gt\n      tag_367\n      jumpi\n      dup3\n      swap1\n      sub\n      0x1f\n      and\n      dup3\n      add\n      swap2\n    tag_365:\n      pop\n      pop\n      pop\n      pop\n      pop\n      dup2\n      mstore\n      0x20\n      add\n      0x02\n      dup3\n      add\n      dup1\n      sload\n      tag_368\n      swap1\n      tag_95\n      jump\t// in\n    tag_368:\n      dup1\n      0x1f\n      add\n      0x20\n      dup1\n      swap2\n      div\n      mul\n      0x20\n      add\n      mload(0x40)\n      swap1\n      dup2\n      add\n      0x40\n      mstore\n      dup1\n      swap3\n      swap2\n      swap1\n      dup2\n      dup2\n      mstore\n      0x20\n      add\n      dup3\n      dup1\n      sload\n      tag_369\n      swap1\n      tag_95\n      jump\t// in\n    tag_369:\n      dup1\n      iszero\n      tag_370\n      jumpi\n      dup1\n      0x1f\n      lt\n      tag_371\n      jumpi\n      0x0100\n      dup1\n      dup4\n      sload\n      div\n      mul\n      dup4\n      mstore\n      swap2\n      0x20\n      add\n      swap2\n      jump(tag_370)\n    tag_371:\n      dup3\n      add\n      swap2\n      swap1\n      0x00\n      mstore\n      keccak256(0x00, 0x20)\n      swap1\n    tag_372:\n      dup2\n      sload\n      dup2\n      mstore\n      swap1\n      0x01\n      add\n      swap1\n      0x20\n      add\n      dup1\n      dup4\n      gt\n      tag_372\n      jumpi\n      dup3\n      swap1\n      sub\n      0x1f\n      and\n      dup3\n      add\n      swap2\n    tag_370:\n      pop\n      pop\n      pop\n      pop\n      pop\n      dup2\n      mstore\n      0x20\n      add\n      0x03\n      dup3\n      add\n      dup1\n      sload\n      tag_373\n      swap1\n      tag_95\n      jump\t// in\n    tag_373:\n      dup1\n      0x1f\n      add\n      0x20\n      dup1\n      swap2\n      div\n      mul\n      0x20\n      add\n      mload(0x40)\n      swap1\n      dup2\n      add\n      0x40\n      mstore\n      dup1\n      swap3\n      swap2\n      swap1\n      dup2\n      dup2\n      mstore\n      0x20\n      add\n      dup3\n      dup1\n      sload\n      tag_374\n      swap1\n      tag_95\n      jump\t// in\n    tag_374:\n      dup1\n      iszero\n      tag_375\n      jumpi\n      dup1\n      0x1f\n      lt\n      tag_376\n      jumpi\n      0x0100\n      dup1\n      dup4\n      sload\n      div\n      mul\n      dup4\n      mstore\n      swap2\n      0x20\n      add\n      swap2\n      jump(tag_375)\n    tag_376:\n      dup3\n      add\n      swap2\n      swap1\n      0x00\n      mstore\n      keccak256(0x00, 0x20)\n      swap1\n    tag_377:\n      dup2\n      sload\n      dup2\n      mstore\n      swap1\n      0x01\n      add\n      swap1\n      0x20\n      add\n      dup1\n      dup4\n      gt\n      tag_377\n      jumpi\n      dup3\n      swap1\n      sub\n      0x1f\n      and\n      dup3\n      add\n      swap2\n    tag_375:\n      pop\n      pop\n      pop\n      pop\n      pop\n      dup2\n      mstore\n      0x20\n      add\n      0x04\n      dup3\n      add\n      0x00\n      swap1\n      sload\n      swap1\n      0x0100\n      exp\n      swap1\n      div\n      0xff\n      and\n      iszero\n      iszero\n      iszero\n      iszero\n      dup2\n      mstore\n      pop\n      pop\n        /* \"contracts/userDetails.sol\":3200:3205  userD */\n      dup3\n        /* \"contracts/userDetails.sol\":3206:3207  i */\n      dup3\n        /* \"contracts/userDetails.sol\":3200:3208  userD[i] */\n      dup2\n      mload\n      dup2\n      lt\n      tag_378\n      jumpi\n      tag_379\n      tag_187\n      jump\t// in\n    tag_379:\n    tag_378:\n      0x20\n      mul\n      0x20\n      add\n      add\n        /* \"contracts/userDetails.sol\":3200:3239  userD[i] = userDetailsMapping[users[i]] */\n      dup2\n      swap1\n      mstore\n      pop\n        /* \"contracts/userDetails.sol\":3171:3174  i++ */\n      dup1\n      dup1\n      tag_380\n      swap1\n      tag_211\n      jump\t// in\n    tag_380:\n      swap2\n      pop\n      pop\n        /* \"contracts/userDetails.sol\":3143:3251  for(uint i=0;i<users.length;i++)\r... */\n      jump(tag_353)\n    tag_354:\n      pop\n        /* \"contracts/userDetails.sol\":3268:3273  userD */\n      dup1\n        /* \"contracts/userDetails.sol\":3261:3273  return userD */\n      swap2\n      pop\n      pop\n        /* \"contracts/userDetails.sol\":2997:3281  function getAllUsers() public view returns(userDetails[] memory){\r... */\n      swap1\n      jump\t// out\n    tag_88:\n      dup3\n      dup1\n      sload\n      tag_381\n      swap1\n      tag_95\n      jump\t// in\n    tag_381:\n      swap1\n      0x00\n      mstore\n      keccak256(0x00, 0x20)\n      swap1\n      0x1f\n      add\n      0x20\n      swap1\n      div\n      dup2\n      add\n      swap3\n      dup3\n      tag_383\n      jumpi\n      0x00\n      dup6\n      sstore\n      jump(tag_382)\n    tag_383:\n      dup3\n      0x1f\n      lt\n      tag_384\n      jumpi\n      dup1\n      mload\n      not(0xff)\n      and\n      dup4\n      dup1\n      add\n      or\n      dup6\n      sstore\n      jump(tag_382)\n    tag_384:\n      dup3\n      dup1\n      add\n      0x01\n      add\n      dup6\n      sstore\n      dup3\n      iszero\n      tag_382\n      jumpi\n      swap2\n      dup3\n      add\n    tag_385:\n      dup3\n      dup2\n      gt\n      iszero\n      tag_386\n      jumpi\n      dup3\n      mload\n      dup3\n      sstore\n      swap2\n      0x20\n      add\n      swap2\n      swap1\n      0x01\n      add\n      swap1\n      jump(tag_385)\n    tag_386:\n    tag_382:\n      pop\n      swap1\n      pop\n      tag_387\n      swap2\n      swap1\n      tag_388\n      jump\t// in\n    tag_387:\n      pop\n      swap1\n      jump\t// out\n    tag_113:\n      mload(0x40)\n      dup1\n      0xa0\n      add\n      0x40\n      mstore\n      dup1\n      0x00\n      0x02\n      dup2\n      gt\n      iszero\n      tag_389\n      jumpi\n      tag_390\n      tag_91\n      jump\t// in\n    tag_390:\n    tag_389:\n      dup2\n      mstore\n      0x20\n      add\n      0x60\n      dup2\n      mstore\n      0x20\n      add\n      0x60\n      dup2\n      mstore\n      0x20\n      add\n      0x60\n      dup2\n      mstore\n      0x20\n      add\n      iszero(iszero(0x00))\n      dup2\n      mstore\n      pop\n      swap1\n      jump\t// out\n    tag_388:\n    tag_391:\n      dup1\n      dup3\n      gt\n      iszero\n      tag_392\n      jumpi\n      0x00\n      dup2\n      0x00\n      swap1\n      sstore\n      pop\n      0x01\n      add\n      jump(tag_391)\n    tag_392:\n      pop\n      swap1\n      jump\t// out\n        /* \"#utility.yul\":7:417   */\n    tag_394:\n        /* \"#utility.yul\":84:89   */\n      0x00\n        /* \"#utility.yul\":109:174   */\n      tag_396\n        /* \"#utility.yul\":125:173   */\n      tag_397\n        /* \"#utility.yul\":166:172   */\n      dup5\n        /* \"#utility.yul\":125:173   */\n      tag_398\n      jump\t// in\n    tag_397:\n        /* \"#utility.yul\":109:174   */\n      tag_399\n      jump\t// in\n    tag_396:\n        /* \"#utility.yul\":100:174   */\n      swap1\n      pop\n        /* \"#utility.yul\":197:203   */\n      dup3\n        /* \"#utility.yul\":190:195   */\n      dup2\n        /* \"#utility.yul\":183:204   */\n      mstore\n        /* \"#utility.yul\":235:239   */\n      0x20\n        /* \"#utility.yul\":228:233   */\n      dup2\n        /* \"#utility.yul\":224:240   */\n      add\n        /* \"#utility.yul\":273:276   */\n      dup5\n        /* \"#utility.yul\":264:270   */\n      dup5\n        /* \"#utility.yul\":259:262   */\n      dup5\n        /* \"#utility.yul\":255:271   */\n      add\n        /* \"#utility.yul\":252:277   */\n      gt\n        /* \"#utility.yul\":249:361   */\n      iszero\n      tag_400\n      jumpi\n        /* \"#utility.yul\":280:359   */\n      tag_401\n      tag_402\n      jump\t// in\n    tag_401:\n        /* \"#utility.yul\":249:361   */\n    tag_400:\n        /* \"#utility.yul\":370:411   */\n      tag_403\n        /* \"#utility.yul\":404:410   */\n      dup5\n        /* \"#utility.yul\":399:402   */\n      dup3\n        /* \"#utility.yul\":394:397   */\n      dup6\n        /* \"#utility.yul\":370:411   */\n      tag_404\n      jump\t// in\n    tag_403:\n        /* \"#utility.yul\":90:417   */\n      pop\n        /* \"#utility.yul\":7:417   */\n      swap4\n      swap3\n      pop\n      pop\n      pop\n      jump\t// out\n        /* \"#utility.yul\":423:562   */\n    tag_405:\n        /* \"#utility.yul\":469:474   */\n      0x00\n        /* \"#utility.yul\":507:513   */\n      dup2\n        /* \"#utility.yul\":494:514   */\n      calldataload\n        /* \"#utility.yul\":485:514   */\n      swap1\n      pop\n        /* \"#utility.yul\":523:556   */\n      tag_407\n        /* \"#utility.yul\":550:555   */\n      dup2\n        /* \"#utility.yul\":523:556   */\n      tag_408\n      jump\t// in\n    tag_407:\n        /* \"#utility.yul\":423:562   */\n      swap3\n      swap2\n      pop\n      pop\n      jump\t// out\n        /* \"#utility.yul\":581:1133   */\n    tag_409:\n        /* \"#utility.yul\":638:646   */\n      0x00\n        /* \"#utility.yul\":648:654   */\n      dup1\n        /* \"#utility.yul\":698:701   */\n      dup4\n        /* \"#utility.yul\":691:695   */\n      0x1f\n        /* \"#utility.yul\":683:689   */\n      dup5\n        /* \"#utility.yul\":679:696   */\n      add\n        /* \"#utility.yul\":675:702   */\n      slt\n        /* \"#utility.yul\":665:787   */\n      tag_411\n      jumpi\n        /* \"#utility.yul\":706:785   */\n      tag_412\n      tag_413\n      jump\t// in\n    tag_412:\n        /* \"#utility.yul\":665:787   */\n    tag_411:\n        /* \"#utility.yul\":819:825   */\n      dup3\n        /* \"#utility.yul\":806:826   */\n      calldataload\n        /* \"#utility.yul\":796:826   */\n      swap1\n      pop\n        /* \"#utility.yul\":849:867   */\n      0xffffffffffffffff\n        /* \"#utility.yul\":841:847   */\n      dup2\n        /* \"#utility.yul\":838:868   */\n      gt\n        /* \"#utility.yul\":835:952   */\n      iszero\n      tag_414\n      jumpi\n        /* \"#utility.yul\":871:950   */\n      tag_415\n      tag_416\n      jump\t// in\n    tag_415:\n        /* \"#utility.yul\":835:952   */\n    tag_414:\n        /* \"#utility.yul\":985:989   */\n      0x20\n        /* \"#utility.yul\":977:983   */\n      dup4\n        /* \"#utility.yul\":973:990   */\n      add\n        /* \"#utility.yul\":961:990   */\n      swap2\n      pop\n        /* \"#utility.yul\":1039:1042   */\n      dup4\n        /* \"#utility.yul\":1031:1035   */\n      0x01\n        /* \"#utility.yul\":1023:1029   */\n      dup3\n        /* \"#utility.yul\":1019:1036   */\n      mul\n        /* \"#utility.yul\":1009:1017   */\n      dup4\n        /* \"#utility.yul\":1005:1037   */\n      add\n        /* \"#utility.yul\":1002:1043   */\n      gt\n        /* \"#utility.yul\":999:1127   */\n      iszero\n      tag_417\n      jumpi\n        /* \"#utility.yul\":1046:1125   */\n      tag_418\n      tag_419\n      jump\t// in\n    tag_418:\n        /* \"#utility.yul\":999:1127   */\n    tag_417:\n        /* \"#utility.yul\":581:1133   */\n      swap3\n      pop\n      swap3\n      swap1\n      pop\n      jump\t// out\n        /* \"#utility.yul\":1152:1490   */\n    tag_420:\n        /* \"#utility.yul\":1207:1212   */\n      0x00\n        /* \"#utility.yul\":1256:1259   */\n      dup3\n        /* \"#utility.yul\":1249:1253   */\n      0x1f\n        /* \"#utility.yul\":1241:1247   */\n      dup4\n        /* \"#utility.yul\":1237:1254   */\n      add\n        /* \"#utility.yul\":1233:1260   */\n      slt\n        /* \"#utility.yul\":1223:1345   */\n      tag_422\n      jumpi\n        /* \"#utility.yul\":1264:1343   */\n      tag_423\n      tag_413\n      jump\t// in\n    tag_423:\n        /* \"#utility.yul\":1223:1345   */\n    tag_422:\n        /* \"#utility.yul\":1381:1387   */\n      dup2\n        /* \"#utility.yul\":1368:1388   */\n      calldataload\n        /* \"#utility.yul\":1406:1484   */\n      tag_424\n        /* \"#utility.yul\":1480:1483   */\n      dup5\n        /* \"#utility.yul\":1472:1478   */\n      dup3\n        /* \"#utility.yul\":1465:1469   */\n      0x20\n        /* \"#utility.yul\":1457:1463   */\n      dup7\n        /* \"#utility.yul\":1453:1470   */\n      add\n        /* \"#utility.yul\":1406:1484   */\n      tag_394\n      jump\t// in\n    tag_424:\n        /* \"#utility.yul\":1397:1484   */\n      swap2\n      pop\n        /* \"#utility.yul\":1213:1490   */\n      pop\n        /* \"#utility.yul\":1152:1490   */\n      swap3\n      swap2\n      pop\n      pop\n      jump\t// out\n        /* \"#utility.yul\":1496:1655   */\n    tag_425:\n        /* \"#utility.yul\":1552:1557   */\n      0x00\n        /* \"#utility.yul\":1590:1596   */\n      dup2\n        /* \"#utility.yul\":1577:1597   */\n      calldataload\n        /* \"#utility.yul\":1568:1597   */\n      swap1\n      pop\n        /* \"#utility.yul\":1606:1649   */\n      tag_427\n        /* \"#utility.yul\":1643:1648   */\n      dup2\n        /* \"#utility.yul\":1606:1649   */\n      tag_428\n      jump\t// in\n    tag_427:\n        /* \"#utility.yul\":1496:1655   */\n      swap3\n      swap2\n      pop\n      pop\n      jump\t// out\n        /* \"#utility.yul\":1661:1800   */\n    tag_429:\n        /* \"#utility.yul\":1707:1712   */\n      0x00\n        /* \"#utility.yul\":1745:1751   */\n      dup2\n        /* \"#utility.yul\":1732:1752   */\n      calldataload\n        /* \"#utility.yul\":1723:1752   */\n      swap1\n      pop\n        /* \"#utility.yul\":1761:1794   */\n      tag_431\n        /* \"#utility.yul\":1788:1793   */\n      dup2\n        /* \"#utility.yul\":1761:1794   */\n      tag_432\n      jump\t// in\n    tag_431:\n        /* \"#utility.yul\":1661:1800   */\n      swap3\n      swap2\n      pop\n      pop\n      jump\t// out\n        /* \"#utility.yul\":1806:2135   */\n    tag_30:\n        /* \"#utility.yul\":1865:1871   */\n      0x00\n        /* \"#utility.yul\":1914:1916   */\n      0x20\n        /* \"#utility.yul\":1902:1911   */\n      dup3\n        /* \"#utility.yul\":1893:1900   */\n      dup5\n        /* \"#utility.yul\":1889:1912   */\n      sub\n        /* \"#utility.yul\":1885:1917   */\n      slt\n        /* \"#utility.yul\":1882:2001   */\n      iszero\n      tag_434\n      jumpi\n        /* \"#utility.yul\":1920:1999   */\n      tag_435\n      tag_436\n      jump\t// in\n    tag_435:\n        /* \"#utility.yul\":1882:2001   */\n    tag_434:\n        /* \"#utility.yul\":2040:2041   */\n      0x00\n        /* \"#utility.yul\":2065:2118   */\n      tag_437\n        /* \"#utility.yul\":2110:2117   */\n      dup5\n        /* \"#utility.yul\":2101:2107   */\n      dup3\n        /* \"#utility.yul\":2090:2099   */\n      dup6\n        /* \"#utility.yul\":2086:2108   */\n      add\n        /* \"#utility.yul\":2065:2118   */\n      tag_405\n      jump\t// in\n    tag_437:\n        /* \"#utility.yul\":2055:2118   */\n      swap2\n      pop\n        /* \"#utility.yul\":2011:2128   */\n      pop\n        /* \"#utility.yul\":1806:2135   */\n      swap3\n      swap2\n      pop\n      pop\n      jump\t// out\n        /* \"#utility.yul\":2141:2648   */\n    tag_26:\n        /* \"#utility.yul\":2209:2215   */\n      0x00\n        /* \"#utility.yul\":2258:2260   */\n      0x20\n        /* \"#utility.yul\":2246:2255   */\n      dup3\n        /* \"#utility.yul\":2237:2244   */\n      dup5\n        /* \"#utility.yul\":2233:2256   */\n      sub\n        /* \"#utility.yul\":2229:2261   */\n      slt\n        /* \"#utility.yul\":2226:2345   */\n      iszero\n      tag_439\n      jumpi\n        /* \"#utility.yul\":2264:2343   */\n      tag_440\n      tag_436\n      jump\t// in\n    tag_440:\n        /* \"#utility.yul\":2226:2345   */\n    tag_439:\n        /* \"#utility.yul\":2412:2413   */\n      0x00\n        /* \"#utility.yul\":2401:2410   */\n      dup3\n        /* \"#utility.yul\":2397:2414   */\n      add\n        /* \"#utility.yul\":2384:2415   */\n      calldataload\n        /* \"#utility.yul\":2442:2460   */\n      0xffffffffffffffff\n        /* \"#utility.yul\":2434:2440   */\n      dup2\n        /* \"#utility.yul\":2431:2461   */\n      gt\n        /* \"#utility.yul\":2428:2545   */\n      iszero\n      tag_441\n      jumpi\n        /* \"#utility.yul\":2464:2543   */\n      tag_442\n      tag_443\n      jump\t// in\n    tag_442:\n        /* \"#utility.yul\":2428:2545   */\n    tag_441:\n        /* \"#utility.yul\":2569:2631   */\n      tag_444\n        /* \"#utility.yul\":2623:2630   */\n      dup5\n        /* \"#utility.yul\":2614:2620   */\n      dup3\n        /* \"#utility.yul\":2603:2612   */\n      dup6\n        /* \"#utility.yul\":2599:2621   */\n      add\n        /* \"#utility.yul\":2569:2631   */\n      tag_420\n      jump\t// in\n    tag_444:\n        /* \"#utility.yul\":2559:2631   */\n      swap2\n      pop\n        /* \"#utility.yul\":2355:2641   */\n      pop\n        /* \"#utility.yul\":2141:2648   */\n      swap3\n      swap2\n      pop\n      pop\n      jump\t// out\n        /* \"#utility.yul\":2654:4013   */\n    tag_62:\n        /* \"#utility.yul\":2781:2787   */\n      0x00\n        /* \"#utility.yul\":2789:2795   */\n      dup1\n        /* \"#utility.yul\":2797:2803   */\n      0x00\n        /* \"#utility.yul\":2805:2811   */\n      dup1\n        /* \"#utility.yul\":2813:2819   */\n      0x00\n        /* \"#utility.yul\":2821:2827   */\n      dup1\n        /* \"#utility.yul\":2870:2873   */\n      0x80\n        /* \"#utility.yul\":2858:2867   */\n      dup8\n        /* \"#utility.yul\":2849:2856   */\n      dup10\n        /* \"#utility.yul\":2845:2868   */\n      sub\n        /* \"#utility.yul\":2841:2874   */\n      slt\n        /* \"#utility.yul\":2838:2958   */\n      iszero\n      tag_446\n      jumpi\n        /* \"#utility.yul\":2877:2956   */\n      tag_447\n      tag_436\n      jump\t// in\n    tag_447:\n        /* \"#utility.yul\":2838:2958   */\n    tag_446:\n        /* \"#utility.yul\":2997:2998   */\n      0x00\n        /* \"#utility.yul\":3022:3085   */\n      tag_448\n        /* \"#utility.yul\":3077:3084   */\n      dup10\n        /* \"#utility.yul\":3068:3074   */\n      dup3\n        /* \"#utility.yul\":3057:3066   */\n      dup11\n        /* \"#utility.yul\":3053:3075   */\n      add\n        /* \"#utility.yul\":3022:3085   */\n      tag_425\n      jump\t// in\n    tag_448:\n        /* \"#utility.yul\":3012:3085   */\n      swap7\n      pop\n        /* \"#utility.yul\":2968:3095   */\n      pop\n        /* \"#utility.yul\":3162:3164   */\n      0x20\n        /* \"#utility.yul\":3151:3160   */\n      dup8\n        /* \"#utility.yul\":3147:3165   */\n      add\n        /* \"#utility.yul\":3134:3166   */\n      calldataload\n        /* \"#utility.yul\":3193:3211   */\n      0xffffffffffffffff\n        /* \"#utility.yul\":3185:3191   */\n      dup2\n        /* \"#utility.yul\":3182:3212   */\n      gt\n        /* \"#utility.yul\":3179:3296   */\n      iszero\n      tag_449\n      jumpi\n        /* \"#utility.yul\":3215:3294   */\n      tag_450\n      tag_443\n      jump\t// in\n    tag_450:\n        /* \"#utility.yul\":3179:3296   */\n    tag_449:\n        /* \"#utility.yul\":3328:3392   */\n      tag_451\n        /* \"#utility.yul\":3384:3391   */\n      dup10\n        /* \"#utility.yul\":3375:3381   */\n      dup3\n        /* \"#utility.yul\":3364:3373   */\n      dup11\n        /* \"#utility.yul\":3360:3382   */\n      add\n        /* \"#utility.yul\":3328:3392   */\n      tag_409\n      jump\t// in\n    tag_451:\n        /* \"#utility.yul\":3310:3392   */\n      swap6\n      pop\n      swap6\n      pop\n        /* \"#utility.yul\":3105:3402   */\n      pop\n        /* \"#utility.yul\":3469:3471   */\n      0x40\n        /* \"#utility.yul\":3458:3467   */\n      dup8\n        /* \"#utility.yul\":3454:3472   */\n      add\n        /* \"#utility.yul\":3441:3473   */\n      calldataload\n        /* \"#utility.yul\":3500:3518   */\n      0xffffffffffffffff\n        /* \"#utility.yul\":3492:3498   */\n      dup2\n        /* \"#utility.yul\":3489:3519   */\n      gt\n        /* \"#utility.yul\":3486:3603   */\n      iszero\n      tag_452\n      jumpi\n        /* \"#utility.yul\":3522:3601   */\n      tag_453\n      tag_443\n      jump\t// in\n    tag_453:\n        /* \"#utility.yul\":3486:3603   */\n    tag_452:\n        /* \"#utility.yul\":3635:3699   */\n      tag_454\n        /* \"#utility.yul\":3691:3698   */\n      dup10\n        /* \"#utility.yul\":3682:3688   */\n      dup3\n        /* \"#utility.yul\":3671:3680   */\n      dup11\n        /* \"#utility.yul\":3667:3689   */\n      add\n        /* \"#utility.yul\":3635:3699   */\n      tag_409\n      jump\t// in\n    tag_454:\n        /* \"#utility.yul\":3617:3699   */\n      swap4\n      pop\n      swap4\n      pop\n        /* \"#utility.yul\":3412:3709   */\n      pop\n        /* \"#utility.yul\":3776:3778   */\n      0x60\n        /* \"#utility.yul\":3765:3774   */\n      dup8\n        /* \"#utility.yul\":3761:3779   */\n      add\n        /* \"#utility.yul\":3748:3780   */\n      calldataload\n        /* \"#utility.yul\":3807:3825   */\n      0xffffffffffffffff\n        /* \"#utility.yul\":3799:3805   */\n      dup2\n        /* \"#utility.yul\":3796:3826   */\n      gt\n        /* \"#utility.yul\":3793:3910   */\n      iszero\n      tag_455\n      jumpi\n        /* \"#utility.yul\":3829:3908   */\n      tag_456\n      tag_443\n      jump\t// in\n    tag_456:\n        /* \"#utility.yul\":3793:3910   */\n    tag_455:\n        /* \"#utility.yul\":3934:3996   */\n      tag_457\n        /* \"#utility.yul\":3988:3995   */\n      dup10\n        /* \"#utility.yul\":3979:3985   */\n      dup3\n        /* \"#utility.yul\":3968:3977   */\n      dup11\n        /* \"#utility.yul\":3964:3986   */\n      add\n        /* \"#utility.yul\":3934:3996   */\n      tag_420\n      jump\t// in\n    tag_457:\n        /* \"#utility.yul\":3924:3996   */\n      swap2\n      pop\n        /* \"#utility.yul\":3719:4006   */\n      pop\n        /* \"#utility.yul\":2654:4013   */\n      swap3\n      swap6\n      pop\n      swap3\n      swap6\n      pop\n      swap3\n      swap6\n      jump\t// out\n        /* \"#utility.yul\":4019:4348   */\n    tag_36:\n        /* \"#utility.yul\":4078:4084   */\n      0x00\n        /* \"#utility.yul\":4127:4129   */\n      0x20\n        /* \"#utility.yul\":4115:4124   */\n      dup3\n        /* \"#utility.yul\":4106:4113   */\n      dup5\n        /* \"#utility.yul\":4102:4125   */\n      sub\n        /* \"#utility.yul\":4098:4130   */\n      slt\n        /* \"#utility.yul\":4095:4214   */\n      iszero\n      tag_459\n      jumpi\n        /* \"#utility.yul\":4133:4212   */\n      tag_460\n      tag_436\n      jump\t// in\n    tag_460:\n        /* \"#utility.yul\":4095:4214   */\n    tag_459:\n        /* \"#utility.yul\":4253:4254   */\n      0x00\n        /* \"#utility.yul\":4278:4331   */\n      tag_461\n        /* \"#utility.yul\":4323:4330   */\n      dup5\n        /* \"#utility.yul\":4314:4320   */\n      dup3\n        /* \"#utility.yul\":4303:4312   */\n      dup6\n        /* \"#utility.yul\":4299:4321   */\n      add\n        /* \"#utility.yul\":4278:4331   */\n      tag_429\n      jump\t// in\n    tag_461:\n        /* \"#utility.yul\":4268:4331   */\n      swap2\n      pop\n        /* \"#utility.yul\":4224:4341   */\n      pop\n        /* \"#utility.yul\":4019:4348   */\n      swap3\n      swap2\n      pop\n      pop\n      jump\t// out\n        /* \"#utility.yul\":4354:4533   */\n    tag_462:\n        /* \"#utility.yul\":4423:4433   */\n      0x00\n        /* \"#utility.yul\":4444:4490   */\n      tag_464\n        /* \"#utility.yul\":4486:4489   */\n      dup4\n        /* \"#utility.yul\":4478:4484   */\n      dup4\n        /* \"#utility.yul\":4444:4490   */\n      tag_465\n      jump\t// in\n    tag_464:\n        /* \"#utility.yul\":4522:4526   */\n      0x20\n        /* \"#utility.yul\":4517:4520   */\n      dup4\n        /* \"#utility.yul\":4513:4527   */\n      add\n        /* \"#utility.yul\":4499:4527   */\n      swap1\n      pop\n        /* \"#utility.yul\":4354:4533   */\n      swap3\n      swap2\n      pop\n      pop\n      jump\t// out\n        /* \"#utility.yul\":4539:4803   */\n    tag_466:\n        /* \"#utility.yul\":4662:4672   */\n      0x00\n        /* \"#utility.yul\":4697:4797   */\n      tag_468\n        /* \"#utility.yul\":4793:4796   */\n      dup4\n        /* \"#utility.yul\":4785:4791   */\n      dup4\n        /* \"#utility.yul\":4697:4797   */\n      tag_469\n      jump\t// in\n    tag_468:\n        /* \"#utility.yul\":4683:4797   */\n      swap1\n      pop\n        /* \"#utility.yul\":4539:4803   */\n      swap3\n      swap2\n      pop\n      pop\n      jump\t// out\n        /* \"#utility.yul\":4809:4917   */\n    tag_465:\n        /* \"#utility.yul\":4886:4910   */\n      tag_471\n        /* \"#utility.yul\":4904:4909   */\n      dup2\n        /* \"#utility.yul\":4886:4910   */\n      tag_472\n      jump\t// in\n    tag_471:\n        /* \"#utility.yul\":4881:4884   */\n      dup3\n        /* \"#utility.yul\":4874:4911   */\n      mstore\n        /* \"#utility.yul\":4809:4917   */\n      pop\n      pop\n      jump\t// out\n        /* \"#utility.yul\":4923:5041   */\n    tag_473:\n        /* \"#utility.yul\":5010:5034   */\n      tag_475\n        /* \"#utility.yul\":5028:5033   */\n      dup2\n        /* \"#utility.yul\":5010:5034   */\n      tag_472\n      jump\t// in\n    tag_475:\n        /* \"#utility.yul\":5005:5008   */\n      dup3\n        /* \"#utility.yul\":4998:5035   */\n      mstore\n        /* \"#utility.yul\":4923:5041   */\n      pop\n      pop\n      jump\t// out\n        /* \"#utility.yul\":5077:5809   */\n    tag_476:\n        /* \"#utility.yul\":5196:5199   */\n      0x00\n        /* \"#utility.yul\":5225:5279   */\n      tag_478\n        /* \"#utility.yul\":5273:5278   */\n      dup3\n        /* \"#utility.yul\":5225:5279   */\n      tag_479\n      jump\t// in\n    tag_478:\n        /* \"#utility.yul\":5295:5381   */\n      tag_480\n        /* \"#utility.yul\":5374:5380   */\n      dup2\n        /* \"#utility.yul\":5369:5372   */\n      dup6\n        /* \"#utility.yul\":5295:5381   */\n      tag_481\n      jump\t// in\n    tag_480:\n        /* \"#utility.yul\":5288:5381   */\n      swap4\n      pop\n        /* \"#utility.yul\":5405:5461   */\n      tag_482\n        /* \"#utility.yul\":5455:5460   */\n      dup4\n        /* \"#utility.yul\":5405:5461   */\n      tag_483\n      jump\t// in\n    tag_482:\n        /* \"#utility.yul\":5484:5491   */\n      dup1\n        /* \"#utility.yul\":5515:5516   */\n      0x00\n        /* \"#utility.yul\":5500:5784   */\n    tag_484:\n        /* \"#utility.yul\":5525:5531   */\n      dup4\n        /* \"#utility.yul\":5522:5523   */\n      dup2\n        /* \"#utility.yul\":5519:5532   */\n      lt\n        /* \"#utility.yul\":5500:5784   */\n      iszero\n      tag_486\n      jumpi\n        /* \"#utility.yul\":5601:5607   */\n      dup2\n        /* \"#utility.yul\":5595:5608   */\n      mload\n        /* \"#utility.yul\":5628:5691   */\n      tag_487\n        /* \"#utility.yul\":5687:5690   */\n      dup9\n        /* \"#utility.yul\":5672:5685   */\n      dup3\n        /* \"#utility.yul\":5628:5691   */\n      tag_462\n      jump\t// in\n    tag_487:\n        /* \"#utility.yul\":5621:5691   */\n      swap8\n      pop\n        /* \"#utility.yul\":5714:5774   */\n      tag_488\n        /* \"#utility.yul\":5767:5773   */\n      dup4\n        /* \"#utility.yul\":5714:5774   */\n      tag_489\n      jump\t// in\n    tag_488:\n        /* \"#utility.yul\":5704:5774   */\n      swap3\n      pop\n        /* \"#utility.yul\":5560:5784   */\n      pop\n        /* \"#utility.yul\":5547:5548   */\n      0x01\n        /* \"#utility.yul\":5544:5545   */\n      dup2\n        /* \"#utility.yul\":5540:5549   */\n      add\n        /* \"#utility.yul\":5535:5549   */\n      swap1\n      pop\n        /* \"#utility.yul\":5500:5784   */\n      jump(tag_484)\n    tag_486:\n        /* \"#utility.yul\":5504:5518   */\n      pop\n        /* \"#utility.yul\":5800:5803   */\n      dup6\n        /* \"#utility.yul\":5793:5803   */\n      swap4\n      pop\n        /* \"#utility.yul\":5201:5809   */\n      pop\n      pop\n      pop\n        /* \"#utility.yul\":5077:5809   */\n      swap3\n      swap2\n      pop\n      pop\n      jump\t// out\n        /* \"#utility.yul\":5893:7020   */\n    tag_490:\n        /* \"#utility.yul\":6066:6069   */\n      0x00\n        /* \"#utility.yul\":6095:6176   */\n      tag_492\n        /* \"#utility.yul\":6170:6175   */\n      dup3\n        /* \"#utility.yul\":6095:6176   */\n      tag_493\n      jump\t// in\n    tag_492:\n        /* \"#utility.yul\":6192:6305   */\n      tag_494\n        /* \"#utility.yul\":6298:6304   */\n      dup2\n        /* \"#utility.yul\":6293:6296   */\n      dup6\n        /* \"#utility.yul\":6192:6305   */\n      tag_495\n      jump\t// in\n    tag_494:\n        /* \"#utility.yul\":6185:6305   */\n      swap4\n      pop\n        /* \"#utility.yul\":6331:6334   */\n      dup4\n        /* \"#utility.yul\":6376:6380   */\n      0x20\n        /* \"#utility.yul\":6368:6374   */\n      dup3\n        /* \"#utility.yul\":6364:6381   */\n      mul\n        /* \"#utility.yul\":6359:6362   */\n      dup6\n        /* \"#utility.yul\":6355:6382   */\n      add\n        /* \"#utility.yul\":6406:6489   */\n      tag_496\n        /* \"#utility.yul\":6483:6488   */\n      dup6\n        /* \"#utility.yul\":6406:6489   */\n      tag_497\n      jump\t// in\n    tag_496:\n        /* \"#utility.yul\":6512:6519   */\n      dup1\n        /* \"#utility.yul\":6543:6544   */\n      0x00\n        /* \"#utility.yul\":6528:6975   */\n    tag_498:\n        /* \"#utility.yul\":6553:6559   */\n      dup6\n        /* \"#utility.yul\":6550:6551   */\n      dup2\n        /* \"#utility.yul\":6547:6560   */\n      lt\n        /* \"#utility.yul\":6528:6975   */\n      iszero\n      tag_500\n      jumpi\n        /* \"#utility.yul\":6624:6633   */\n      dup5\n        /* \"#utility.yul\":6618:6622   */\n      dup5\n        /* \"#utility.yul\":6614:6634   */\n      sub\n        /* \"#utility.yul\":6609:6612   */\n      dup10\n        /* \"#utility.yul\":6602:6635   */\n      mstore\n        /* \"#utility.yul\":6675:6681   */\n      dup2\n        /* \"#utility.yul\":6669:6682   */\n      mload\n        /* \"#utility.yul\":6703:6821   */\n      tag_501\n        /* \"#utility.yul\":6816:6820   */\n      dup6\n        /* \"#utility.yul\":6801:6814   */\n      dup3\n        /* \"#utility.yul\":6703:6821   */\n      tag_466\n      jump\t// in\n    tag_501:\n        /* \"#utility.yul\":6695:6821   */\n      swap5\n      pop\n        /* \"#utility.yul\":6844:6931   */\n      tag_502\n        /* \"#utility.yul\":6924:6930   */\n      dup4\n        /* \"#utility.yul\":6844:6931   */\n      tag_503\n      jump\t// in\n    tag_502:\n        /* \"#utility.yul\":6834:6931   */\n      swap3\n      pop\n        /* \"#utility.yul\":6960:6964   */\n      0x20\n        /* \"#utility.yul\":6955:6958   */\n      dup11\n        /* \"#utility.yul\":6951:6965   */\n      add\n        /* \"#utility.yul\":6944:6965   */\n      swap10\n      pop\n        /* \"#utility.yul\":6588:6975   */\n      pop\n        /* \"#utility.yul\":6575:6576   */\n      0x01\n        /* \"#utility.yul\":6572:6573   */\n      dup2\n        /* \"#utility.yul\":6568:6577   */\n      add\n        /* \"#utility.yul\":6563:6577   */\n      swap1\n      pop\n        /* \"#utility.yul\":6528:6975   */\n      jump(tag_498)\n    tag_500:\n        /* \"#utility.yul\":6532:6546   */\n      pop\n        /* \"#utility.yul\":6991:6995   */\n      dup3\n        /* \"#utility.yul\":6984:6995   */\n      swap8\n      pop\n        /* \"#utility.yul\":7011:7014   */\n      dup8\n        /* \"#utility.yul\":7004:7014   */\n      swap6\n      pop\n        /* \"#utility.yul\":6071:7020   */\n      pop\n      pop\n      pop\n      pop\n      pop\n        /* \"#utility.yul\":5893:7020   */\n      swap3\n      swap2\n      pop\n      pop\n      jump\t// out\n        /* \"#utility.yul\":7026:7125   */\n    tag_504:\n        /* \"#utility.yul\":7097:7118   */\n      tag_506\n        /* \"#utility.yul\":7112:7117   */\n      dup2\n        /* \"#utility.yul\":7097:7118   */\n      tag_507\n      jump\t// in\n    tag_506:\n        /* \"#utility.yul\":7092:7095   */\n      dup3\n        /* \"#utility.yul\":7085:7119   */\n      mstore\n        /* \"#utility.yul\":7026:7125   */\n      pop\n      pop\n      jump\t// out\n        /* \"#utility.yul\":7131:7240   */\n    tag_508:\n        /* \"#utility.yul\":7212:7233   */\n      tag_510\n        /* \"#utility.yul\":7227:7232   */\n      dup2\n        /* \"#utility.yul\":7212:7233   */\n      tag_507\n      jump\t// in\n    tag_510:\n        /* \"#utility.yul\":7207:7210   */\n      dup3\n        /* \"#utility.yul\":7200:7234   */\n      mstore\n        /* \"#utility.yul\":7131:7240   */\n      pop\n      pop\n      jump\t// out\n        /* \"#utility.yul\":7268:7569   */\n    tag_511:\n        /* \"#utility.yul\":7364:7367   */\n      0x00\n        /* \"#utility.yul\":7385:7455   */\n      tag_513\n        /* \"#utility.yul\":7448:7454   */\n      dup4\n        /* \"#utility.yul\":7443:7446   */\n      dup6\n        /* \"#utility.yul\":7385:7455   */\n      tag_514\n      jump\t// in\n    tag_513:\n        /* \"#utility.yul\":7378:7455   */\n      swap4\n      pop\n        /* \"#utility.yul\":7465:7508   */\n      tag_515\n        /* \"#utility.yul\":7501:7507   */\n      dup4\n        /* \"#utility.yul\":7496:7499   */\n      dup6\n        /* \"#utility.yul\":7489:7494   */\n      dup5\n        /* \"#utility.yul\":7465:7508   */\n      tag_404\n      jump\t// in\n    tag_515:\n        /* \"#utility.yul\":7533:7562   */\n      tag_516\n        /* \"#utility.yul\":7555:7561   */\n      dup4\n        /* \"#utility.yul\":7533:7562   */\n      tag_517\n      jump\t// in\n    tag_516:\n        /* \"#utility.yul\":7528:7531   */\n      dup5\n        /* \"#utility.yul\":7524:7563   */\n      add\n        /* \"#utility.yul\":7517:7563   */\n      swap1\n      pop\n        /* \"#utility.yul\":7268:7569   */\n      swap4\n      swap3\n      pop\n      pop\n      pop\n      jump\t// out\n        /* \"#utility.yul\":7575:7915   */\n    tag_518:\n        /* \"#utility.yul\":7651:7654   */\n      0x00\n        /* \"#utility.yul\":7679:7717   */\n      tag_520\n        /* \"#utility.yul\":7711:7716   */\n      dup3\n        /* \"#utility.yul\":7679:7717   */\n      tag_521\n      jump\t// in\n    tag_520:\n        /* \"#utility.yul\":7733:7793   */\n      tag_522\n        /* \"#utility.yul\":7786:7792   */\n      dup2\n        /* \"#utility.yul\":7781:7784   */\n      dup6\n        /* \"#utility.yul\":7733:7793   */\n      tag_523\n      jump\t// in\n    tag_522:\n        /* \"#utility.yul\":7726:7793   */\n      swap4\n      pop\n        /* \"#utility.yul\":7802:7854   */\n      tag_524\n        /* \"#utility.yul\":7847:7853   */\n      dup2\n        /* \"#utility.yul\":7842:7845   */\n      dup6\n        /* \"#utility.yul\":7835:7839   */\n      0x20\n        /* \"#utility.yul\":7828:7833   */\n      dup7\n        /* \"#utility.yul\":7824:7840   */\n      add\n        /* \"#utility.yul\":7802:7854   */\n      tag_525\n      jump\t// in\n    tag_524:\n        /* \"#utility.yul\":7879:7908   */\n      tag_526\n        /* \"#utility.yul\":7901:7907   */\n      dup2\n        /* \"#utility.yul\":7879:7908   */\n      tag_517\n      jump\t// in\n    tag_526:\n        /* \"#utility.yul\":7874:7877   */\n      dup5\n        /* \"#utility.yul\":7870:7909   */\n      add\n        /* \"#utility.yul\":7863:7909   */\n      swap2\n      pop\n        /* \"#utility.yul\":7655:7915   */\n      pop\n        /* \"#utility.yul\":7575:7915   */\n      swap3\n      swap2\n      pop\n      pop\n      jump\t// out\n        /* \"#utility.yul\":7921:8281   */\n    tag_527:\n        /* \"#utility.yul\":8007:8010   */\n      0x00\n        /* \"#utility.yul\":8035:8073   */\n      tag_529\n        /* \"#utility.yul\":8067:8072   */\n      dup3\n        /* \"#utility.yul\":8035:8073   */\n      tag_521\n      jump\t// in\n    tag_529:\n        /* \"#utility.yul\":8089:8159   */\n      tag_530\n        /* \"#utility.yul\":8152:8158   */\n      dup2\n        /* \"#utility.yul\":8147:8150   */\n      dup6\n        /* \"#utility.yul\":8089:8159   */\n      tag_514\n      jump\t// in\n    tag_530:\n        /* \"#utility.yul\":8082:8159   */\n      swap4\n      pop\n        /* \"#utility.yul\":8168:8220   */\n      tag_531\n        /* \"#utility.yul\":8213:8219   */\n      dup2\n        /* \"#utility.yul\":8208:8211   */\n      dup6\n        /* \"#utility.yul\":8201:8205   */\n      0x20\n        /* \"#utility.yul\":8194:8199   */\n      dup7\n        /* \"#utility.yul\":8190:8206   */\n      add\n        /* \"#utility.yul\":8168:8220   */\n      tag_525\n      jump\t// in\n    tag_531:\n        /* \"#utility.yul\":8245:8274   */\n      tag_532\n        /* \"#utility.yul\":8267:8273   */\n      dup2\n        /* \"#utility.yul\":8245:8274   */\n      tag_517\n      jump\t// in\n    tag_532:\n        /* \"#utility.yul\":8240:8243   */\n      dup5\n        /* \"#utility.yul\":8236:8275   */\n      add\n        /* \"#utility.yul\":8229:8275   */\n      swap2\n      pop\n        /* \"#utility.yul\":8011:8281   */\n      pop\n        /* \"#utility.yul\":7921:8281   */\n      swap3\n      swap2\n      pop\n      pop\n      jump\t// out\n        /* \"#utility.yul\":8287:8424   */\n    tag_533:\n        /* \"#utility.yul\":8372:8417   */\n      tag_535\n        /* \"#utility.yul\":8411:8416   */\n      dup2\n        /* \"#utility.yul\":8372:8417   */\n      tag_536\n      jump\t// in\n    tag_535:\n        /* \"#utility.yul\":8367:8370   */\n      dup3\n        /* \"#utility.yul\":8360:8418   */\n      mstore\n        /* \"#utility.yul\":8287:8424   */\n      pop\n      pop\n      jump\t// out\n        /* \"#utility.yul\":8430:8577   */\n    tag_537:\n        /* \"#utility.yul\":8525:8570   */\n      tag_539\n        /* \"#utility.yul\":8564:8569   */\n      dup2\n        /* \"#utility.yul\":8525:8570   */\n      tag_536\n      jump\t// in\n    tag_539:\n        /* \"#utility.yul\":8520:8523   */\n      dup3\n        /* \"#utility.yul\":8513:8571   */\n      mstore\n        /* \"#utility.yul\":8430:8577   */\n      pop\n      pop\n      jump\t// out\n        /* \"#utility.yul\":8583:8949   */\n    tag_540:\n        /* \"#utility.yul\":8725:8728   */\n      0x00\n        /* \"#utility.yul\":8746:8813   */\n      tag_542\n        /* \"#utility.yul\":8810:8812   */\n      0x17\n        /* \"#utility.yul\":8805:8808   */\n      dup4\n        /* \"#utility.yul\":8746:8813   */\n      tag_543\n      jump\t// in\n    tag_542:\n        /* \"#utility.yul\":8739:8813   */\n      swap2\n      pop\n        /* \"#utility.yul\":8822:8915   */\n      tag_544\n        /* \"#utility.yul\":8911:8914   */\n      dup3\n        /* \"#utility.yul\":8822:8915   */\n      tag_545\n      jump\t// in\n    tag_544:\n        /* \"#utility.yul\":8940:8942   */\n      0x20\n        /* \"#utility.yul\":8935:8938   */\n      dup3\n        /* \"#utility.yul\":8931:8943   */\n      add\n        /* \"#utility.yul\":8924:8943   */\n      swap1\n      pop\n        /* \"#utility.yul\":8583:8949   */\n      swap2\n      swap1\n      pop\n      jump\t// out\n        /* \"#utility.yul\":9029:10323   */\n    tag_469:\n        /* \"#utility.yul\":9142:9145   */\n      0x00\n        /* \"#utility.yul\":9178:9182   */\n      0xa0\n        /* \"#utility.yul\":9173:9176   */\n      dup4\n        /* \"#utility.yul\":9169:9183   */\n      add\n        /* \"#utility.yul\":9269:9273   */\n      0x00\n        /* \"#utility.yul\":9262:9267   */\n      dup4\n        /* \"#utility.yul\":9258:9274   */\n      add\n        /* \"#utility.yul\":9252:9275   */\n      mload\n        /* \"#utility.yul\":9288:9359   */\n      tag_547\n        /* \"#utility.yul\":9353:9357   */\n      0x00\n        /* \"#utility.yul\":9348:9351   */\n      dup7\n        /* \"#utility.yul\":9344:9358   */\n      add\n        /* \"#utility.yul\":9330:9342   */\n      dup3\n        /* \"#utility.yul\":9288:9359   */\n      tag_533\n      jump\t// in\n    tag_547:\n        /* \"#utility.yul\":9193:9369   */\n      pop\n        /* \"#utility.yul\":9455:9459   */\n      0x20\n        /* \"#utility.yul\":9448:9453   */\n      dup4\n        /* \"#utility.yul\":9444:9460   */\n      add\n        /* \"#utility.yul\":9438:9461   */\n      mload\n        /* \"#utility.yul\":9508:9511   */\n      dup5\n        /* \"#utility.yul\":9502:9506   */\n      dup3\n        /* \"#utility.yul\":9498:9512   */\n      sub\n        /* \"#utility.yul\":9491:9495   */\n      0x20\n        /* \"#utility.yul\":9486:9489   */\n      dup7\n        /* \"#utility.yul\":9482:9496   */\n      add\n        /* \"#utility.yul\":9475:9513   */\n      mstore\n        /* \"#utility.yul\":9534:9605   */\n      tag_548\n        /* \"#utility.yul\":9600:9604   */\n      dup3\n        /* \"#utility.yul\":9586:9598   */\n      dup3\n        /* \"#utility.yul\":9534:9605   */\n      tag_518\n      jump\t// in\n    tag_548:\n        /* \"#utility.yul\":9526:9605   */\n      swap2\n      pop\n        /* \"#utility.yul\":9379:9616   */\n      pop\n        /* \"#utility.yul\":9713:9717   */\n      0x40\n        /* \"#utility.yul\":9706:9711   */\n      dup4\n        /* \"#utility.yul\":9702:9718   */\n      add\n        /* \"#utility.yul\":9696:9719   */\n      mload\n        /* \"#utility.yul\":9766:9769   */\n      dup5\n        /* \"#utility.yul\":9760:9764   */\n      dup3\n        /* \"#utility.yul\":9756:9770   */\n      sub\n        /* \"#utility.yul\":9749:9753   */\n      0x40\n        /* \"#utility.yul\":9744:9747   */\n      dup7\n        /* \"#utility.yul\":9740:9754   */\n      add\n        /* \"#utility.yul\":9733:9771   */\n      mstore\n        /* \"#utility.yul\":9792:9863   */\n      tag_549\n        /* \"#utility.yul\":9858:9862   */\n      dup3\n        /* \"#utility.yul\":9844:9856   */\n      dup3\n        /* \"#utility.yul\":9792:9863   */\n      tag_518\n      jump\t// in\n    tag_549:\n        /* \"#utility.yul\":9784:9863   */\n      swap2\n      pop\n        /* \"#utility.yul\":9626:9874   */\n      pop\n        /* \"#utility.yul\":9961:9965   */\n      0x60\n        /* \"#utility.yul\":9954:9959   */\n      dup4\n        /* \"#utility.yul\":9950:9966   */\n      add\n        /* \"#utility.yul\":9944:9967   */\n      mload\n        /* \"#utility.yul\":10014:10017   */\n      dup5\n        /* \"#utility.yul\":10008:10012   */\n      dup3\n        /* \"#utility.yul\":10004:10018   */\n      sub\n        /* \"#utility.yul\":9997:10001   */\n      0x60\n        /* \"#utility.yul\":9992:9995   */\n      dup7\n        /* \"#utility.yul\":9988:10002   */\n      add\n        /* \"#utility.yul\":9981:10019   */\n      mstore\n        /* \"#utility.yul\":10040:10111   */\n      tag_550\n        /* \"#utility.yul\":10106:10110   */\n      dup3\n        /* \"#utility.yul\":10092:10104   */\n      dup3\n        /* \"#utility.yul\":10040:10111   */\n      tag_518\n      jump\t// in\n    tag_550:\n        /* \"#utility.yul\":10032:10111   */\n      swap2\n      pop\n        /* \"#utility.yul\":9884:10122   */\n      pop\n        /* \"#utility.yul\":10210:10214   */\n      0x80\n        /* \"#utility.yul\":10203:10208   */\n      dup4\n        /* \"#utility.yul\":10199:10215   */\n      add\n        /* \"#utility.yul\":10193:10216   */\n      mload\n        /* \"#utility.yul\":10229:10286   */\n      tag_551\n        /* \"#utility.yul\":10280:10284   */\n      0x80\n        /* \"#utility.yul\":10275:10278   */\n      dup7\n        /* \"#utility.yul\":10271:10285   */\n      add\n        /* \"#utility.yul\":10257:10269   */\n      dup3\n        /* \"#utility.yul\":10229:10286   */\n      tag_504\n      jump\t// in\n    tag_551:\n        /* \"#utility.yul\":10132:10296   */\n      pop\n        /* \"#utility.yul\":10313:10317   */\n      dup1\n        /* \"#utility.yul\":10306:10317   */\n      swap2\n      pop\n        /* \"#utility.yul\":9147:10323   */\n      pop\n        /* \"#utility.yul\":9029:10323   */\n      swap3\n      swap2\n      pop\n      pop\n      jump\t// out\n        /* \"#utility.yul\":10403:11707   */\n    tag_552:\n        /* \"#utility.yul\":10526:10529   */\n      0x00\n        /* \"#utility.yul\":10562:10566   */\n      0xa0\n        /* \"#utility.yul\":10557:10560   */\n      dup4\n        /* \"#utility.yul\":10553:10567   */\n      add\n        /* \"#utility.yul\":10653:10657   */\n      0x00\n        /* \"#utility.yul\":10646:10651   */\n      dup4\n        /* \"#utility.yul\":10642:10658   */\n      add\n        /* \"#utility.yul\":10636:10659   */\n      mload\n        /* \"#utility.yul\":10672:10743   */\n      tag_554\n        /* \"#utility.yul\":10737:10741   */\n      0x00\n        /* \"#utility.yul\":10732:10735   */\n      dup7\n        /* \"#utility.yul\":10728:10742   */\n      add\n        /* \"#utility.yul\":10714:10726   */\n      dup3\n        /* \"#utility.yul\":10672:10743   */\n      tag_533\n      jump\t// in\n    tag_554:\n        /* \"#utility.yul\":10577:10753   */\n      pop\n        /* \"#utility.yul\":10839:10843   */\n      0x20\n        /* \"#utility.yul\":10832:10837   */\n      dup4\n        /* \"#utility.yul\":10828:10844   */\n      add\n        /* \"#utility.yul\":10822:10845   */\n      mload\n        /* \"#utility.yul\":10892:10895   */\n      dup5\n        /* \"#utility.yul\":10886:10890   */\n      dup3\n        /* \"#utility.yul\":10882:10896   */\n      sub\n        /* \"#utility.yul\":10875:10879   */\n      0x20\n        /* \"#utility.yul\":10870:10873   */\n      dup7\n        /* \"#utility.yul\":10866:10880   */\n      add\n        /* \"#utility.yul\":10859:10897   */\n      mstore\n        /* \"#utility.yul\":10918:10989   */\n      tag_555\n        /* \"#utility.yul\":10984:10988   */\n      dup3\n        /* \"#utility.yul\":10970:10982   */\n      dup3\n        /* \"#utility.yul\":10918:10989   */\n      tag_518\n      jump\t// in\n    tag_555:\n        /* \"#utility.yul\":10910:10989   */\n      swap2\n      pop\n        /* \"#utility.yul\":10763:11000   */\n      pop\n        /* \"#utility.yul\":11097:11101   */\n      0x40\n        /* \"#utility.yul\":11090:11095   */\n      dup4\n        /* \"#utility.yul\":11086:11102   */\n      add\n        /* \"#utility.yul\":11080:11103   */\n      mload\n        /* \"#utility.yul\":11150:11153   */\n      dup5\n        /* \"#utility.yul\":11144:11148   */\n      dup3\n        /* \"#utility.yul\":11140:11154   */\n      sub\n        /* \"#utility.yul\":11133:11137   */\n      0x40\n        /* \"#utility.yul\":11128:11131   */\n      dup7\n        /* \"#utility.yul\":11124:11138   */\n      add\n        /* \"#utility.yul\":11117:11155   */\n      mstore\n        /* \"#utility.yul\":11176:11247   */\n      tag_556\n        /* \"#utility.yul\":11242:11246   */\n      dup3\n        /* \"#utility.yul\":11228:11240   */\n      dup3\n        /* \"#utility.yul\":11176:11247   */\n      tag_518\n      jump\t// in\n    tag_556:\n        /* \"#utility.yul\":11168:11247   */\n      swap2\n      pop\n        /* \"#utility.yul\":11010:11258   */\n      pop\n        /* \"#utility.yul\":11345:11349   */\n      0x60\n        /* \"#utility.yul\":11338:11343   */\n      dup4\n        /* \"#utility.yul\":11334:11350   */\n      add\n        /* \"#utility.yul\":11328:11351   */\n      mload\n        /* \"#utility.yul\":11398:11401   */\n      dup5\n        /* \"#utility.yul\":11392:11396   */\n      dup3\n        /* \"#utility.yul\":11388:11402   */\n      sub\n        /* \"#utility.yul\":11381:11385   */\n      0x60\n        /* \"#utility.yul\":11376:11379   */\n      dup7\n        /* \"#utility.yul\":11372:11386   */\n      add\n        /* \"#utility.yul\":11365:11403   */\n      mstore\n        /* \"#utility.yul\":11424:11495   */\n      tag_557\n        /* \"#utility.yul\":11490:11494   */\n      dup3\n        /* \"#utility.yul\":11476:11488   */\n      dup3\n        /* \"#utility.yul\":11424:11495   */\n      tag_518\n      jump\t// in\n    tag_557:\n        /* \"#utility.yul\":11416:11495   */\n      swap2\n      pop\n        /* \"#utility.yul\":11268:11506   */\n      pop\n        /* \"#utility.yul\":11594:11598   */\n      0x80\n        /* \"#utility.yul\":11587:11592   */\n      dup4\n        /* \"#utility.yul\":11583:11599   */\n      add\n        /* \"#utility.yul\":11577:11600   */\n      mload\n        /* \"#utility.yul\":11613:11670   */\n      tag_558\n        /* \"#utility.yul\":11664:11668   */\n      0x80\n        /* \"#utility.yul\":11659:11662   */\n      dup7\n        /* \"#utility.yul\":11655:11669   */\n      add\n        /* \"#utility.yul\":11641:11653   */\n      dup3\n        /* \"#utility.yul\":11613:11670   */\n      tag_504\n      jump\t// in\n    tag_558:\n        /* \"#utility.yul\":11516:11680   */\n      pop\n        /* \"#utility.yul\":11697:11701   */\n      dup1\n        /* \"#utility.yul\":11690:11701   */\n      swap2\n      pop\n        /* \"#utility.yul\":10531:11707   */\n      pop\n        /* \"#utility.yul\":10403:11707   */\n      swap3\n      swap2\n      pop\n      pop\n      jump\t// out\n        /* \"#utility.yul\":11713:11831   */\n    tag_559:\n        /* \"#utility.yul\":11800:11824   */\n      tag_561\n        /* \"#utility.yul\":11818:11823   */\n      dup2\n        /* \"#utility.yul\":11800:11824   */\n      tag_562\n      jump\t// in\n    tag_561:\n        /* \"#utility.yul\":11795:11798   */\n      dup3\n        /* \"#utility.yul\":11788:11825   */\n      mstore\n        /* \"#utility.yul\":11713:11831   */\n      pop\n      pop\n      jump\t// out\n        /* \"#utility.yul\":11837:12059   */\n    tag_39:\n        /* \"#utility.yul\":11930:11934   */\n      0x00\n        /* \"#utility.yul\":11968:11970   */\n      0x20\n        /* \"#utility.yul\":11957:11966   */\n      dup3\n        /* \"#utility.yul\":11953:11971   */\n      add\n        /* \"#utility.yul\":11945:11971   */\n      swap1\n      pop\n        /* \"#utility.yul\":11981:12052   */\n      tag_564\n        /* \"#utility.yul\":12049:12050   */\n      0x00\n        /* \"#utility.yul\":12038:12047   */\n      dup4\n        /* \"#utility.yul\":12034:12051   */\n      add\n        /* \"#utility.yul\":12025:12031   */\n      dup5\n        /* \"#utility.yul\":11981:12052   */\n      tag_473\n      jump\t// in\n    tag_564:\n        /* \"#utility.yul\":11837:12059   */\n      swap3\n      swap2\n      pop\n      pop\n      jump\t// out\n        /* \"#utility.yul\":12065:12438   */\n    tag_71:\n        /* \"#utility.yul\":12208:12212   */\n      0x00\n        /* \"#utility.yul\":12246:12248   */\n      0x20\n        /* \"#utility.yul\":12235:12244   */\n      dup3\n        /* \"#utility.yul\":12231:12249   */\n      add\n        /* \"#utility.yul\":12223:12249   */\n      swap1\n      pop\n        /* \"#utility.yul\":12295:12304   */\n      dup2\n        /* \"#utility.yul\":12289:12293   */\n      dup2\n        /* \"#utility.yul\":12285:12305   */\n      sub\n        /* \"#utility.yul\":12281:12282   */\n      0x00\n        /* \"#utility.yul\":12270:12279   */\n      dup4\n        /* \"#utility.yul\":12266:12283   */\n      add\n        /* \"#utility.yul\":12259:12306   */\n      mstore\n        /* \"#utility.yul\":12323:12431   */\n      tag_566\n        /* \"#utility.yul\":12426:12430   */\n      dup2\n        /* \"#utility.yul\":12417:12423   */\n      dup5\n        /* \"#utility.yul\":12323:12431   */\n      tag_476\n      jump\t// in\n    tag_566:\n        /* \"#utility.yul\":12315:12431   */\n      swap1\n      pop\n        /* \"#utility.yul\":12065:12438   */\n      swap3\n      swap2\n      pop\n      pop\n      jump\t// out\n        /* \"#utility.yul\":12444:13186   */\n    tag_67:\n        /* \"#utility.yul\":12719:12723   */\n      0x00\n        /* \"#utility.yul\":12757:12759   */\n      0x40\n        /* \"#utility.yul\":12746:12755   */\n      dup3\n        /* \"#utility.yul\":12742:12760   */\n      add\n        /* \"#utility.yul\":12734:12760   */\n      swap1\n      pop\n        /* \"#utility.yul\":12806:12815   */\n      dup2\n        /* \"#utility.yul\":12800:12804   */\n      dup2\n        /* \"#utility.yul\":12796:12816   */\n      sub\n        /* \"#utility.yul\":12792:12793   */\n      0x00\n        /* \"#utility.yul\":12781:12790   */\n      dup4\n        /* \"#utility.yul\":12777:12794   */\n      add\n        /* \"#utility.yul\":12770:12817   */\n      mstore\n        /* \"#utility.yul\":12834:12942   */\n      tag_568\n        /* \"#utility.yul\":12937:12941   */\n      dup2\n        /* \"#utility.yul\":12928:12934   */\n      dup6\n        /* \"#utility.yul\":12834:12942   */\n      tag_476\n      jump\t// in\n    tag_568:\n        /* \"#utility.yul\":12826:12942   */\n      swap1\n      pop\n        /* \"#utility.yul\":12989:12998   */\n      dup2\n        /* \"#utility.yul\":12983:12987   */\n      dup2\n        /* \"#utility.yul\":12979:12999   */\n      sub\n        /* \"#utility.yul\":12974:12976   */\n      0x20\n        /* \"#utility.yul\":12963:12972   */\n      dup4\n        /* \"#utility.yul\":12959:12977   */\n      add\n        /* \"#utility.yul\":12952:13000   */\n      mstore\n        /* \"#utility.yul\":13017:13179   */\n      tag_569\n        /* \"#utility.yul\":13174:13178   */\n      dup2\n        /* \"#utility.yul\":13165:13171   */\n      dup5\n        /* \"#utility.yul\":13017:13179   */\n      tag_490\n      jump\t// in\n    tag_569:\n        /* \"#utility.yul\":13009:13179   */\n      swap1\n      pop\n        /* \"#utility.yul\":12444:13186   */\n      swap4\n      swap3\n      pop\n      pop\n      pop\n      jump\t// out\n        /* \"#utility.yul\":13192:13673   */\n    tag_55:\n        /* \"#utility.yul\":13389:13393   */\n      0x00\n        /* \"#utility.yul\":13427:13429   */\n      0x20\n        /* \"#utility.yul\":13416:13425   */\n      dup3\n        /* \"#utility.yul\":13412:13430   */\n      add\n        /* \"#utility.yul\":13404:13430   */\n      swap1\n      pop\n        /* \"#utility.yul\":13476:13485   */\n      dup2\n        /* \"#utility.yul\":13470:13474   */\n      dup2\n        /* \"#utility.yul\":13466:13486   */\n      sub\n        /* \"#utility.yul\":13462:13463   */\n      0x00\n        /* \"#utility.yul\":13451:13460   */\n      dup4\n        /* \"#utility.yul\":13447:13464   */\n      add\n        /* \"#utility.yul\":13440:13487   */\n      mstore\n        /* \"#utility.yul\":13504:13666   */\n      tag_571\n        /* \"#utility.yul\":13661:13665   */\n      dup2\n        /* \"#utility.yul\":13652:13658   */\n      dup5\n        /* \"#utility.yul\":13504:13666   */\n      tag_490\n      jump\t// in\n    tag_571:\n        /* \"#utility.yul\":13496:13666   */\n      swap1\n      pop\n        /* \"#utility.yul\":13192:13673   */\n      swap3\n      swap2\n      pop\n      pop\n      jump\t// out\n        /* \"#utility.yul\":13679:14660   */\n    tag_246:\n        /* \"#utility.yul\":13966:13970   */\n      0x00\n        /* \"#utility.yul\":14004:14007   */\n      0xa0\n        /* \"#utility.yul\":13993:14002   */\n      dup3\n        /* \"#utility.yul\":13989:14008   */\n      add\n        /* \"#utility.yul\":13981:14008   */\n      swap1\n      pop\n        /* \"#utility.yul\":14018:14097   */\n      tag_573\n        /* \"#utility.yul\":14094:14095   */\n      0x00\n        /* \"#utility.yul\":14083:14092   */\n      dup4\n        /* \"#utility.yul\":14079:14096   */\n      add\n        /* \"#utility.yul\":14070:14076   */\n      dup11\n        /* \"#utility.yul\":14018:14097   */\n      tag_537\n      jump\t// in\n    tag_573:\n        /* \"#utility.yul\":14144:14153   */\n      dup2\n        /* \"#utility.yul\":14138:14142   */\n      dup2\n        /* \"#utility.yul\":14134:14154   */\n      sub\n        /* \"#utility.yul\":14129:14131   */\n      0x20\n        /* \"#utility.yul\":14118:14127   */\n      dup4\n        /* \"#utility.yul\":14114:14132   */\n      add\n        /* \"#utility.yul\":14107:14155   */\n      mstore\n        /* \"#utility.yul\":14172:14258   */\n      tag_574\n        /* \"#utility.yul\":14253:14257   */\n      dup2\n        /* \"#utility.yul\":14244:14250   */\n      dup9\n        /* \"#utility.yul\":14236:14242   */\n      dup11\n        /* \"#utility.yul\":14172:14258   */\n      tag_511\n      jump\t// in\n    tag_574:\n        /* \"#utility.yul\":14164:14258   */\n      swap1\n      pop\n        /* \"#utility.yul\":14305:14314   */\n      dup2\n        /* \"#utility.yul\":14299:14303   */\n      dup2\n        /* \"#utility.yul\":14295:14315   */\n      sub\n        /* \"#utility.yul\":14290:14292   */\n      0x40\n        /* \"#utility.yul\":14279:14288   */\n      dup4\n        /* \"#utility.yul\":14275:14293   */\n      add\n        /* \"#utility.yul\":14268:14316   */\n      mstore\n        /* \"#utility.yul\":14333:14419   */\n      tag_575\n        /* \"#utility.yul\":14414:14418   */\n      dup2\n        /* \"#utility.yul\":14405:14411   */\n      dup7\n        /* \"#utility.yul\":14397:14403   */\n      dup9\n        /* \"#utility.yul\":14333:14419   */\n      tag_511\n      jump\t// in\n    tag_575:\n        /* \"#utility.yul\":14325:14419   */\n      swap1\n      pop\n        /* \"#utility.yul\":14466:14475   */\n      dup2\n        /* \"#utility.yul\":14460:14464   */\n      dup2\n        /* \"#utility.yul\":14456:14476   */\n      sub\n        /* \"#utility.yul\":14451:14453   */\n      0x60\n        /* \"#utility.yul\":14440:14449   */\n      dup4\n        /* \"#utility.yul\":14436:14454   */\n      add\n        /* \"#utility.yul\":14429:14477   */\n      mstore\n        /* \"#utility.yul\":14494:14570   */\n      tag_576\n        /* \"#utility.yul\":14565:14569   */\n      dup2\n        /* \"#utility.yul\":14556:14562   */\n      dup6\n        /* \"#utility.yul\":14494:14570   */\n      tag_527\n      jump\t// in\n    tag_576:\n        /* \"#utility.yul\":14486:14570   */\n      swap1\n      pop\n        /* \"#utility.yul\":14580:14653   */\n      tag_577\n        /* \"#utility.yul\":14648:14651   */\n      0x80\n        /* \"#utility.yul\":14637:14646   */\n      dup4\n        /* \"#utility.yul\":14633:14652   */\n      add\n        /* \"#utility.yul\":14624:14630   */\n      dup5\n        /* \"#utility.yul\":14580:14653   */\n      tag_559\n      jump\t// in\n    tag_577:\n        /* \"#utility.yul\":13679:14660   */\n      swap9\n      swap8\n      pop\n      pop\n      pop\n      pop\n      pop\n      pop\n      pop\n      pop\n      jump\t// out\n        /* \"#utility.yul\":14666:15595   */\n    tag_48:\n        /* \"#utility.yul\":14927:14931   */\n      0x00\n        /* \"#utility.yul\":14965:14968   */\n      0xa0\n        /* \"#utility.yul\":14954:14963   */\n      dup3\n        /* \"#utility.yul\":14950:14969   */\n      add\n        /* \"#utility.yul\":14942:14969   */\n      swap1\n      pop\n        /* \"#utility.yul\":14979:15058   */\n      tag_579\n        /* \"#utility.yul\":15055:15056   */\n      0x00\n        /* \"#utility.yul\":15044:15053   */\n      dup4\n        /* \"#utility.yul\":15040:15057   */\n      add\n        /* \"#utility.yul\":15031:15037   */\n      dup9\n        /* \"#utility.yul\":14979:15058   */\n      tag_537\n      jump\t// in\n    tag_579:\n        /* \"#utility.yul\":15105:15114   */\n      dup2\n        /* \"#utility.yul\":15099:15103   */\n      dup2\n        /* \"#utility.yul\":15095:15115   */\n      sub\n        /* \"#utility.yul\":15090:15092   */\n      0x20\n        /* \"#utility.yul\":15079:15088   */\n      dup4\n        /* \"#utility.yul\":15075:15093   */\n      add\n        /* \"#utility.yul\":15068:15116   */\n      mstore\n        /* \"#utility.yul\":15133:15209   */\n      tag_580\n        /* \"#utility.yul\":15204:15208   */\n      dup2\n        /* \"#utility.yul\":15195:15201   */\n      dup8\n        /* \"#utility.yul\":15133:15209   */\n      tag_527\n      jump\t// in\n    tag_580:\n        /* \"#utility.yul\":15125:15209   */\n      swap1\n      pop\n        /* \"#utility.yul\":15256:15265   */\n      dup2\n        /* \"#utility.yul\":15250:15254   */\n      dup2\n        /* \"#utility.yul\":15246:15266   */\n      sub\n        /* \"#utility.yul\":15241:15243   */\n      0x40\n        /* \"#utility.yul\":15230:15239   */\n      dup4\n        /* \"#utility.yul\":15226:15244   */\n      add\n        /* \"#utility.yul\":15219:15267   */\n      mstore\n        /* \"#utility.yul\":15284:15360   */\n      tag_581\n        /* \"#utility.yul\":15355:15359   */\n      dup2\n        /* \"#utility.yul\":15346:15352   */\n      dup7\n        /* \"#utility.yul\":15284:15360   */\n      tag_527\n      jump\t// in\n    tag_581:\n        /* \"#utility.yul\":15276:15360   */\n      swap1\n      pop\n        /* \"#utility.yul\":15407:15416   */\n      dup2\n        /* \"#utility.yul\":15401:15405   */\n      dup2\n        /* \"#utility.yul\":15397:15417   */\n      sub\n        /* \"#utility.yul\":15392:15394   */\n      0x60\n        /* \"#utility.yul\":15381:15390   */\n      dup4\n        /* \"#utility.yul\":15377:15395   */\n      add\n        /* \"#utility.yul\":15370:15418   */\n      mstore\n        /* \"#utility.yul\":15435:15511   */\n      tag_582\n        /* \"#utility.yul\":15506:15510   */\n      dup2\n        /* \"#utility.yul\":15497:15503   */\n      dup6\n        /* \"#utility.yul\":15435:15511   */\n      tag_527\n      jump\t// in\n    tag_582:\n        /* \"#utility.yul\":15427:15511   */\n      swap1\n      pop\n        /* \"#utility.yul\":15521:15588   */\n      tag_583\n        /* \"#utility.yul\":15583:15586   */\n      0x80\n        /* \"#utility.yul\":15572:15581   */\n      dup4\n        /* \"#utility.yul\":15568:15587   */\n      add\n        /* \"#utility.yul\":15559:15565   */\n      dup5\n        /* \"#utility.yul\":15521:15588   */\n      tag_508\n      jump\t// in\n    tag_583:\n        /* \"#utility.yul\":14666:15595   */\n      swap7\n      swap6\n      pop\n      pop\n      pop\n      pop\n      pop\n      pop\n      jump\t// out\n        /* \"#utility.yul\":15601:16542   */\n    tag_111:\n        /* \"#utility.yul\":15868:15872   */\n      0x00\n        /* \"#utility.yul\":15906:15909   */\n      0xa0\n        /* \"#utility.yul\":15895:15904   */\n      dup3\n        /* \"#utility.yul\":15891:15910   */\n      add\n        /* \"#utility.yul\":15883:15910   */\n      swap1\n      pop\n        /* \"#utility.yul\":15920:15999   */\n      tag_585\n        /* \"#utility.yul\":15996:15997   */\n      0x00\n        /* \"#utility.yul\":15985:15994   */\n      dup4\n        /* \"#utility.yul\":15981:15998   */\n      add\n        /* \"#utility.yul\":15972:15978   */\n      dup9\n        /* \"#utility.yul\":15920:15999   */\n      tag_537\n      jump\t// in\n    tag_585:\n        /* \"#utility.yul\":16046:16055   */\n      dup2\n        /* \"#utility.yul\":16040:16044   */\n      dup2\n        /* \"#utility.yul\":16036:16056   */\n      sub\n        /* \"#utility.yul\":16031:16033   */\n      0x20\n        /* \"#utility.yul\":16020:16029   */\n      dup4\n        /* \"#utility.yul\":16016:16034   */\n      add\n        /* \"#utility.yul\":16009:16057   */\n      mstore\n        /* \"#utility.yul\":16074:16150   */\n      tag_586\n        /* \"#utility.yul\":16145:16149   */\n      dup2\n        /* \"#utility.yul\":16136:16142   */\n      dup8\n        /* \"#utility.yul\":16074:16150   */\n      tag_527\n      jump\t// in\n    tag_586:\n        /* \"#utility.yul\":16066:16150   */\n      swap1\n      pop\n        /* \"#utility.yul\":16197:16206   */\n      dup2\n        /* \"#utility.yul\":16191:16195   */\n      dup2\n        /* \"#utility.yul\":16187:16207   */\n      sub\n        /* \"#utility.yul\":16182:16184   */\n      0x40\n        /* \"#utility.yul\":16171:16180   */\n      dup4\n        /* \"#utility.yul\":16167:16185   */\n      add\n        /* \"#utility.yul\":16160:16208   */\n      mstore\n        /* \"#utility.yul\":16225:16301   */\n      tag_587\n        /* \"#utility.yul\":16296:16300   */\n      dup2\n        /* \"#utility.yul\":16287:16293   */\n      dup7\n        /* \"#utility.yul\":16225:16301   */\n      tag_527\n      jump\t// in\n    tag_587:\n        /* \"#utility.yul\":16217:16301   */\n      swap1\n      pop\n        /* \"#utility.yul\":16348:16357   */\n      dup2\n        /* \"#utility.yul\":16342:16346   */\n      dup2\n        /* \"#utility.yul\":16338:16358   */\n      sub\n        /* \"#utility.yul\":16333:16335   */\n      0x60\n        /* \"#utility.yul\":16322:16331   */\n      dup4\n        /* \"#utility.yul\":16318:16336   */\n      add\n        /* \"#utility.yul\":16311:16359   */\n      mstore\n        /* \"#utility.yul\":16376:16452   */\n      tag_588\n        /* \"#utility.yul\":16447:16451   */\n      dup2\n        /* \"#utility.yul\":16438:16444   */\n      dup6\n        /* \"#utility.yul\":16376:16452   */\n      tag_527\n      jump\t// in\n    tag_588:\n        /* \"#utility.yul\":16368:16452   */\n      swap1\n      pop\n        /* \"#utility.yul\":16462:16535   */\n      tag_589\n        /* \"#utility.yul\":16530:16533   */\n      0x80\n        /* \"#utility.yul\":16519:16528   */\n      dup4\n        /* \"#utility.yul\":16515:16534   */\n      add\n        /* \"#utility.yul\":16506:16512   */\n      dup5\n        /* \"#utility.yul\":16462:16535   */\n      tag_559\n      jump\t// in\n    tag_589:\n        /* \"#utility.yul\":15601:16542   */\n      swap7\n      swap6\n      pop\n      pop\n      pop\n      pop\n      pop\n      pop\n      jump\t// out\n        /* \"#utility.yul\":16548:16967   */\n    tag_218:\n        /* \"#utility.yul\":16714:16718   */\n      0x00\n        /* \"#utility.yul\":16752:16754   */\n      0x20\n        /* \"#utility.yul\":16741:16750   */\n      dup3\n        /* \"#utility.yul\":16737:16755   */\n      add\n        /* \"#utility.yul\":16729:16755   */\n      swap1\n      pop\n        /* \"#utility.yul\":16801:16810   */\n      dup2\n        /* \"#utility.yul\":16795:16799   */\n      dup2\n        /* \"#utility.yul\":16791:16811   */\n      sub\n        /* \"#utility.yul\":16787:16788   */\n      0x00\n        /* \"#utility.yul\":16776:16785   */\n      dup4\n        /* \"#utility.yul\":16772:16789   */\n      add\n        /* \"#utility.yul\":16765:16812   */\n      mstore\n        /* \"#utility.yul\":16829:16960   */\n      tag_591\n        /* \"#utility.yul\":16955:16959   */\n      dup2\n        /* \"#utility.yul\":16829:16960   */\n      tag_540\n      jump\t// in\n    tag_591:\n        /* \"#utility.yul\":16821:16960   */\n      swap1\n      pop\n        /* \"#utility.yul\":16548:16967   */\n      swap2\n      swap1\n      pop\n      jump\t// out\n        /* \"#utility.yul\":16973:17354   */\n    tag_33:\n        /* \"#utility.yul\":17120:17124   */\n      0x00\n        /* \"#utility.yul\":17158:17160   */\n      0x20\n        /* \"#utility.yul\":17147:17156   */\n      dup3\n        /* \"#utility.yul\":17143:17161   */\n      add\n        /* \"#utility.yul\":17135:17161   */\n      swap1\n      pop\n        /* \"#utility.yul\":17207:17216   */\n      dup2\n        /* \"#utility.yul\":17201:17205   */\n      dup2\n        /* \"#utility.yul\":17197:17217   */\n      sub\n        /* \"#utility.yul\":17193:17194   */\n      0x00\n        /* \"#utility.yul\":17182:17191   */\n      dup4\n        /* \"#utility.yul\":17178:17195   */\n      add\n        /* \"#utility.yul\":17171:17218   */\n      mstore\n        /* \"#utility.yul\":17235:17347   */\n      tag_593\n        /* \"#utility.yul\":17342:17346   */\n      dup2\n        /* \"#utility.yul\":17333:17339   */\n      dup5\n        /* \"#utility.yul\":17235:17347   */\n      tag_552\n      jump\t// in\n    tag_593:\n        /* \"#utility.yul\":17227:17347   */\n      swap1\n      pop\n        /* \"#utility.yul\":16973:17354   */\n      swap3\n      swap2\n      pop\n      pop\n      jump\t// out\n        /* \"#utility.yul\":17360:17489   */\n    tag_399:\n        /* \"#utility.yul\":17394:17400   */\n      0x00\n        /* \"#utility.yul\":17421:17441   */\n      tag_595\n      tag_596\n      jump\t// in\n    tag_595:\n        /* \"#utility.yul\":17411:17441   */\n      swap1\n      pop\n        /* \"#utility.yul\":17450:17483   */\n      tag_597\n        /* \"#utility.yul\":17478:17482   */\n      dup3\n        /* \"#utility.yul\":17470:17476   */\n      dup3\n        /* \"#utility.yul\":17450:17483   */\n      tag_598\n      jump\t// in\n    tag_597:\n        /* \"#utility.yul\":17360:17489   */\n      swap2\n      swap1\n      pop\n      jump\t// out\n        /* \"#utility.yul\":17495:17570   */\n    tag_596:\n        /* \"#utility.yul\":17528:17534   */\n      0x00\n        /* \"#utility.yul\":17561:17563   */\n      0x40\n        /* \"#utility.yul\":17555:17564   */\n      mload\n        /* \"#utility.yul\":17545:17564   */\n      swap1\n      pop\n        /* \"#utility.yul\":17495:17570   */\n      swap1\n      jump\t// out\n        /* \"#utility.yul\":17576:17883   */\n    tag_398:\n        /* \"#utility.yul\":17637:17641   */\n      0x00\n        /* \"#utility.yul\":17727:17745   */\n      0xffffffffffffffff\n        /* \"#utility.yul\":17719:17725   */\n      dup3\n        /* \"#utility.yul\":17716:17746   */\n      gt\n        /* \"#utility.yul\":17713:17769   */\n      iszero\n      tag_601\n      jumpi\n        /* \"#utility.yul\":17749:17767   */\n      tag_602\n      tag_178\n      jump\t// in\n    tag_602:\n        /* \"#utility.yul\":17713:17769   */\n    tag_601:\n        /* \"#utility.yul\":17787:17816   */\n      tag_603\n        /* \"#utility.yul\":17809:17815   */\n      dup3\n        /* \"#utility.yul\":17787:17816   */\n      tag_517\n      jump\t// in\n    tag_603:\n        /* \"#utility.yul\":17779:17816   */\n      swap1\n      pop\n        /* \"#utility.yul\":17871:17875   */\n      0x20\n        /* \"#utility.yul\":17865:17869   */\n      dup2\n        /* \"#utility.yul\":17861:17876   */\n      add\n        /* \"#utility.yul\":17853:17876   */\n      swap1\n      pop\n        /* \"#utility.yul\":17576:17883   */\n      swap2\n      swap1\n      pop\n      jump\t// out\n        /* \"#utility.yul\":17889:18021   */\n    tag_483:\n        /* \"#utility.yul\":17956:17960   */\n      0x00\n        /* \"#utility.yul\":17979:17982   */\n      dup2\n        /* \"#utility.yul\":17971:17982   */\n      swap1\n      pop\n        /* \"#utility.yul\":18009:18013   */\n      0x20\n        /* \"#utility.yul\":18004:18007   */\n      dup3\n        /* \"#utility.yul\":18000:18014   */\n      add\n        /* \"#utility.yul\":17992:18014   */\n      swap1\n      pop\n        /* \"#utility.yul\":17889:18021   */\n      swap2\n      swap1\n      pop\n      jump\t// out\n        /* \"#utility.yul\":18027:18186   */\n    tag_497:\n        /* \"#utility.yul\":18121:18125   */\n      0x00\n        /* \"#utility.yul\":18144:18147   */\n      dup2\n        /* \"#utility.yul\":18136:18147   */\n      swap1\n      pop\n        /* \"#utility.yul\":18174:18178   */\n      0x20\n        /* \"#utility.yul\":18169:18172   */\n      dup3\n        /* \"#utility.yul\":18165:18179   */\n      add\n        /* \"#utility.yul\":18157:18179   */\n      swap1\n      pop\n        /* \"#utility.yul\":18027:18186   */\n      swap2\n      swap1\n      pop\n      jump\t// out\n        /* \"#utility.yul\":18192:18306   */\n    tag_479:\n        /* \"#utility.yul\":18259:18265   */\n      0x00\n        /* \"#utility.yul\":18293:18298   */\n      dup2\n        /* \"#utility.yul\":18287:18299   */\n      mload\n        /* \"#utility.yul\":18277:18299   */\n      swap1\n      pop\n        /* \"#utility.yul\":18192:18306   */\n      swap2\n      swap1\n      pop\n      jump\t// out\n        /* \"#utility.yul\":18312:18453   */\n    tag_493:\n        /* \"#utility.yul\":18406:18412   */\n      0x00\n        /* \"#utility.yul\":18440:18445   */\n      dup2\n        /* \"#utility.yul\":18434:18446   */\n      mload\n        /* \"#utility.yul\":18424:18446   */\n      swap1\n      pop\n        /* \"#utility.yul\":18312:18453   */\n      swap2\n      swap1\n      pop\n      jump\t// out\n        /* \"#utility.yul\":18459:18557   */\n    tag_521:\n        /* \"#utility.yul\":18510:18516   */\n      0x00\n        /* \"#utility.yul\":18544:18549   */\n      dup2\n        /* \"#utility.yul\":18538:18550   */\n      mload\n        /* \"#utility.yul\":18528:18550   */\n      swap1\n      pop\n        /* \"#utility.yul\":18459:18557   */\n      swap2\n      swap1\n      pop\n      jump\t// out\n        /* \"#utility.yul\":18563:18676   */\n    tag_489:\n        /* \"#utility.yul\":18633:18637   */\n      0x00\n        /* \"#utility.yul\":18665:18669   */\n      0x20\n        /* \"#utility.yul\":18660:18663   */\n      dup3\n        /* \"#utility.yul\":18656:18670   */\n      add\n        /* \"#utility.yul\":18648:18670   */\n      swap1\n      pop\n        /* \"#utility.yul\":18563:18676   */\n      swap2\n      swap1\n      pop\n      jump\t// out\n        /* \"#utility.yul\":18682:18822   */\n    tag_503:\n        /* \"#utility.yul\":18779:18783   */\n      0x00\n        /* \"#utility.yul\":18811:18815   */\n      0x20\n        /* \"#utility.yul\":18806:18809   */\n      dup3\n        /* \"#utility.yul\":18802:18816   */\n      add\n        /* \"#utility.yul\":18794:18816   */\n      swap1\n      pop\n        /* \"#utility.yul\":18682:18822   */\n      swap2\n      swap1\n      pop\n      jump\t// out\n        /* \"#utility.yul\":18828:19012   */\n    tag_481:\n        /* \"#utility.yul\":18927:18938   */\n      0x00\n        /* \"#utility.yul\":18961:18967   */\n      dup3\n        /* \"#utility.yul\":18956:18959   */\n      dup3\n        /* \"#utility.yul\":18949:18968   */\n      mstore\n        /* \"#utility.yul\":19001:19005   */\n      0x20\n        /* \"#utility.yul\":18996:18999   */\n      dup3\n        /* \"#utility.yul\":18992:19006   */\n      add\n        /* \"#utility.yul\":18977:19006   */\n      swap1\n      pop\n        /* \"#utility.yul\":18828:19012   */\n      swap3\n      swap2\n      pop\n      pop\n      jump\t// out\n        /* \"#utility.yul\":19018:19229   */\n    tag_495:\n        /* \"#utility.yul\":19144:19155   */\n      0x00\n        /* \"#utility.yul\":19178:19184   */\n      dup3\n        /* \"#utility.yul\":19173:19176   */\n      dup3\n        /* \"#utility.yul\":19166:19185   */\n      mstore\n        /* \"#utility.yul\":19218:19222   */\n      0x20\n        /* \"#utility.yul\":19213:19216   */\n      dup3\n        /* \"#utility.yul\":19209:19223   */\n      add\n        /* \"#utility.yul\":19194:19223   */\n      swap1\n      pop\n        /* \"#utility.yul\":19018:19229   */\n      swap3\n      swap2\n      pop\n      pop\n      jump\t// out\n        /* \"#utility.yul\":19235:19393   */\n    tag_523:\n        /* \"#utility.yul\":19308:19319   */\n      0x00\n        /* \"#utility.yul\":19342:19348   */\n      dup3\n        /* \"#utility.yul\":19337:19340   */\n      dup3\n        /* \"#utility.yul\":19330:19349   */\n      mstore\n        /* \"#utility.yul\":19382:19386   */\n      0x20\n        /* \"#utility.yul\":19377:19380   */\n      dup3\n        /* \"#utility.yul\":19373:19387   */\n      add\n        /* \"#utility.yul\":19358:19387   */\n      swap1\n      pop\n        /* \"#utility.yul\":19235:19393   */\n      swap3\n      swap2\n      pop\n      pop\n      jump\t// out\n        /* \"#utility.yul\":19399:19567   */\n    tag_514:\n        /* \"#utility.yul\":19482:19493   */\n      0x00\n        /* \"#utility.yul\":19516:19522   */\n      dup3\n        /* \"#utility.yul\":19511:19514   */\n      dup3\n        /* \"#utility.yul\":19504:19523   */\n      mstore\n        /* \"#utility.yul\":19556:19560   */\n      0x20\n        /* \"#utility.yul\":19551:19554   */\n      dup3\n        /* \"#utility.yul\":19547:19561   */\n      add\n        /* \"#utility.yul\":19532:19561   */\n      swap1\n      pop\n        /* \"#utility.yul\":19399:19567   */\n      swap3\n      swap2\n      pop\n      pop\n      jump\t// out\n        /* \"#utility.yul\":19573:19742   */\n    tag_543:\n        /* \"#utility.yul\":19657:19668   */\n      0x00\n        /* \"#utility.yul\":19691:19697   */\n      dup3\n        /* \"#utility.yul\":19686:19689   */\n      dup3\n        /* \"#utility.yul\":19679:19698   */\n      mstore\n        /* \"#utility.yul\":19731:19735   */\n      0x20\n        /* \"#utility.yul\":19726:19729   */\n      dup3\n        /* \"#utility.yul\":19722:19736   */\n      add\n        /* \"#utility.yul\":19707:19736   */\n      swap1\n      pop\n        /* \"#utility.yul\":19573:19742   */\n      swap3\n      swap2\n      pop\n      pop\n      jump\t// out\n        /* \"#utility.yul\":19748:19844   */\n    tag_472:\n        /* \"#utility.yul\":19785:19792   */\n      0x00\n        /* \"#utility.yul\":19814:19838   */\n      tag_617\n        /* \"#utility.yul\":19832:19837   */\n      dup3\n        /* \"#utility.yul\":19814:19838   */\n      tag_618\n      jump\t// in\n    tag_617:\n        /* \"#utility.yul\":19803:19838   */\n      swap1\n      pop\n        /* \"#utility.yul\":19748:19844   */\n      swap2\n      swap1\n      pop\n      jump\t// out\n        /* \"#utility.yul\":19850:19940   */\n    tag_507:\n        /* \"#utility.yul\":19884:19891   */\n      0x00\n        /* \"#utility.yul\":19927:19932   */\n      dup2\n        /* \"#utility.yul\":19920:19933   */\n      iszero\n        /* \"#utility.yul\":19913:19934   */\n      iszero\n        /* \"#utility.yul\":19902:19934   */\n      swap1\n      pop\n        /* \"#utility.yul\":19850:19940   */\n      swap2\n      swap1\n      pop\n      jump\t// out\n        /* \"#utility.yul\":19946:20077   */\n    tag_620:\n        /* \"#utility.yul\":19993:20000   */\n      0x00\n        /* \"#utility.yul\":20022:20027   */\n      dup2\n        /* \"#utility.yul\":20011:20027   */\n      swap1\n      pop\n        /* \"#utility.yul\":20028:20071   */\n      tag_622\n        /* \"#utility.yul\":20065:20070   */\n      dup3\n        /* \"#utility.yul\":20028:20071   */\n      tag_623\n      jump\t// in\n    tag_622:\n        /* \"#utility.yul\":19946:20077   */\n      swap2\n      swap1\n      pop\n      jump\t// out\n        /* \"#utility.yul\":20083:20209   */\n    tag_618:\n        /* \"#utility.yul\":20120:20127   */\n      0x00\n        /* \"#utility.yul\":20160:20202   */\n      0xffffffffffffffffffffffffffffffffffffffff\n        /* \"#utility.yul\":20153:20158   */\n      dup3\n        /* \"#utility.yul\":20149:20203   */\n      and\n        /* \"#utility.yul\":20138:20203   */\n      swap1\n      pop\n        /* \"#utility.yul\":20083:20209   */\n      swap2\n      swap1\n      pop\n      jump\t// out\n        /* \"#utility.yul\":20215:20292   */\n    tag_562:\n        /* \"#utility.yul\":20252:20259   */\n      0x00\n        /* \"#utility.yul\":20281:20286   */\n      dup2\n        /* \"#utility.yul\":20270:20286   */\n      swap1\n      pop\n        /* \"#utility.yul\":20215:20292   */\n      swap2\n      swap1\n      pop\n      jump\t// out\n        /* \"#utility.yul\":20298:20429   */\n    tag_536:\n        /* \"#utility.yul\":20356:20365   */\n      0x00\n        /* \"#utility.yul\":20389:20423   */\n      tag_627\n        /* \"#utility.yul\":20417:20422   */\n      dup3\n        /* \"#utility.yul\":20389:20423   */\n      tag_620\n      jump\t// in\n    tag_627:\n        /* \"#utility.yul\":20376:20423   */\n      swap1\n      pop\n        /* \"#utility.yul\":20298:20429   */\n      swap2\n      swap1\n      pop\n      jump\t// out\n        /* \"#utility.yul\":20435:20589   */\n    tag_404:\n        /* \"#utility.yul\":20519:20525   */\n      dup3\n        /* \"#utility.yul\":20514:20517   */\n      dup2\n        /* \"#utility.yul\":20509:20512   */\n      dup4\n        /* \"#utility.yul\":20496:20526   */\n      calldatacopy\n        /* \"#utility.yul\":20581:20582   */\n      0x00\n        /* \"#utility.yul\":20572:20578   */\n      dup4\n        /* \"#utility.yul\":20567:20570   */\n      dup4\n        /* \"#utility.yul\":20563:20579   */\n      add\n        /* \"#utility.yul\":20556:20583   */\n      mstore\n        /* \"#utility.yul\":20435:20589   */\n      pop\n      pop\n      pop\n      jump\t// out\n        /* \"#utility.yul\":20595:20902   */\n    tag_525:\n        /* \"#utility.yul\":20663:20664   */\n      0x00\n        /* \"#utility.yul\":20673:20786   */\n    tag_630:\n        /* \"#utility.yul\":20687:20693   */\n      dup4\n        /* \"#utility.yul\":20684:20685   */\n      dup2\n        /* \"#utility.yul\":20681:20694   */\n      lt\n        /* \"#utility.yul\":20673:20786   */\n      iszero\n      tag_632\n      jumpi\n        /* \"#utility.yul\":20772:20773   */\n      dup1\n        /* \"#utility.yul\":20767:20770   */\n      dup3\n        /* \"#utility.yul\":20763:20774   */\n      add\n        /* \"#utility.yul\":20757:20775   */\n      mload\n        /* \"#utility.yul\":20753:20754   */\n      dup2\n        /* \"#utility.yul\":20748:20751   */\n      dup5\n        /* \"#utility.yul\":20744:20755   */\n      add\n        /* \"#utility.yul\":20737:20776   */\n      mstore\n        /* \"#utility.yul\":20709:20711   */\n      0x20\n        /* \"#utility.yul\":20706:20707   */\n      dup2\n        /* \"#utility.yul\":20702:20712   */\n      add\n        /* \"#utility.yul\":20697:20712   */\n      swap1\n      pop\n        /* \"#utility.yul\":20673:20786   */\n      jump(tag_630)\n    tag_632:\n        /* \"#utility.yul\":20804:20810   */\n      dup4\n        /* \"#utility.yul\":20801:20802   */\n      dup2\n        /* \"#utility.yul\":20798:20811   */\n      gt\n        /* \"#utility.yul\":20795:20896   */\n      iszero\n      tag_633\n      jumpi\n        /* \"#utility.yul\":20884:20885   */\n      0x00\n        /* \"#utility.yul\":20875:20881   */\n      dup5\n        /* \"#utility.yul\":20870:20873   */\n      dup5\n        /* \"#utility.yul\":20866:20882   */\n      add\n        /* \"#utility.yul\":20859:20886   */\n      mstore\n        /* \"#utility.yul\":20795:20896   */\n    tag_633:\n        /* \"#utility.yul\":20644:20902   */\n      pop\n        /* \"#utility.yul\":20595:20902   */\n      pop\n      pop\n      pop\n      jump\t// out\n        /* \"#utility.yul\":20908:21228   */\n    tag_95:\n        /* \"#utility.yul\":20952:20958   */\n      0x00\n        /* \"#utility.yul\":20989:20990   */\n      0x02\n        /* \"#utility.yul\":20983:20987   */\n      dup3\n        /* \"#utility.yul\":20979:20991   */\n      div\n        /* \"#utility.yul\":20969:20991   */\n      swap1\n      pop\n        /* \"#utility.yul\":21036:21037   */\n      0x01\n        /* \"#utility.yul\":21030:21034   */\n      dup3\n        /* \"#utility.yul\":21026:21038   */\n      and\n        /* \"#utility.yul\":21057:21075   */\n      dup1\n        /* \"#utility.yul\":21047:21128   */\n      tag_635\n      jumpi\n        /* \"#utility.yul\":21113:21117   */\n      0x7f\n        /* \"#utility.yul\":21105:21111   */\n      dup3\n        /* \"#utility.yul\":21101:21118   */\n      and\n        /* \"#utility.yul\":21091:21118   */\n      swap2\n      pop\n        /* \"#utility.yul\":21047:21128   */\n    tag_635:\n        /* \"#utility.yul\":21175:21177   */\n      0x20\n        /* \"#utility.yul\":21167:21173   */\n      dup3\n        /* \"#utility.yul\":21164:21178   */\n      lt\n        /* \"#utility.yul\":21144:21162   */\n      dup2\n        /* \"#utility.yul\":21141:21179   */\n      eq\n        /* \"#utility.yul\":21138:21222   */\n      iszero\n      tag_636\n      jumpi\n        /* \"#utility.yul\":21194:21212   */\n      tag_637\n      tag_638\n      jump\t// in\n    tag_637:\n        /* \"#utility.yul\":21138:21222   */\n    tag_636:\n        /* \"#utility.yul\":20959:21228   */\n      pop\n        /* \"#utility.yul\":20908:21228   */\n      swap2\n      swap1\n      pop\n      jump\t// out\n        /* \"#utility.yul\":21234:21515   */\n    tag_598:\n        /* \"#utility.yul\":21317:21344   */\n      tag_640\n        /* \"#utility.yul\":21339:21343   */\n      dup3\n        /* \"#utility.yul\":21317:21344   */\n      tag_517\n      jump\t// in\n    tag_640:\n        /* \"#utility.yul\":21309:21315   */\n      dup2\n        /* \"#utility.yul\":21305:21345   */\n      add\n        /* \"#utility.yul\":21447:21453   */\n      dup2\n        /* \"#utility.yul\":21435:21445   */\n      dup2\n        /* \"#utility.yul\":21432:21454   */\n      lt\n        /* \"#utility.yul\":21411:21429   */\n      0xffffffffffffffff\n        /* \"#utility.yul\":21399:21409   */\n      dup3\n        /* \"#utility.yul\":21396:21430   */\n      gt\n        /* \"#utility.yul\":21393:21455   */\n      or\n        /* \"#utility.yul\":21390:21478   */\n      iszero\n      tag_641\n      jumpi\n        /* \"#utility.yul\":21458:21476   */\n      tag_642\n      tag_178\n      jump\t// in\n    tag_642:\n        /* \"#utility.yul\":21390:21478   */\n    tag_641:\n        /* \"#utility.yul\":21498:21508   */\n      dup1\n        /* \"#utility.yul\":21494:21496   */\n      0x40\n        /* \"#utility.yul\":21487:21509   */\n      mstore\n        /* \"#utility.yul\":21277:21515   */\n      pop\n        /* \"#utility.yul\":21234:21515   */\n      pop\n      pop\n      jump\t// out\n        /* \"#utility.yul\":21521:21754   */\n    tag_211:\n        /* \"#utility.yul\":21560:21563   */\n      0x00\n        /* \"#utility.yul\":21583:21607   */\n      tag_644\n        /* \"#utility.yul\":21601:21606   */\n      dup3\n        /* \"#utility.yul\":21583:21607   */\n      tag_562\n      jump\t// in\n    tag_644:\n        /* \"#utility.yul\":21574:21607   */\n      swap2\n      pop\n        /* \"#utility.yul\":21629:21695   */\n      0xffffffffffffffffffffffffffffffffffffffffffffffffffffffffffffffff\n        /* \"#utility.yul\":21622:21627   */\n      dup3\n        /* \"#utility.yul\":21619:21696   */\n      eq\n        /* \"#utility.yul\":21616:21719   */\n      iszero\n      tag_645\n      jumpi\n        /* \"#utility.yul\":21699:21717   */\n      tag_646\n      tag_647\n      jump\t// in\n    tag_646:\n        /* \"#utility.yul\":21616:21719   */\n    tag_645:\n        /* \"#utility.yul\":21746:21747   */\n      0x01\n        /* \"#utility.yul\":21739:21744   */\n      dup3\n        /* \"#utility.yul\":21735:21748   */\n      add\n        /* \"#utility.yul\":21728:21748   */\n      swap1\n      pop\n        /* \"#utility.yul\":21521:21754   */\n      swap2\n      swap1\n      pop\n      jump\t// out\n        /* \"#utility.yul\":21760:21940   */\n    tag_647:\n        /* \"#utility.yul\":21808:21885   */\n      0x4e487b7100000000000000000000000000000000000000000000000000000000\n        /* \"#utility.yul\":21805:21806   */\n      0x00\n        /* \"#utility.yul\":21798:21886   */\n      mstore\n        /* \"#utility.yul\":21905:21909   */\n      0x11\n        /* \"#utility.yul\":21902:21903   */\n      0x04\n        /* \"#utility.yul\":21895:21910   */\n      mstore\n        /* \"#utility.yul\":21929:21933   */\n      0x24\n        /* \"#utility.yul\":21926:21927   */\n      0x00\n        /* \"#utility.yul\":21919:21934   */\n      revert\n        /* \"#utility.yul\":21946:22126   */\n    tag_91:\n        /* \"#utility.yul\":21994:22071   */\n      0x4e487b7100000000000000000000000000000000000000000000000000000000\n        /* \"#utility.yul\":21991:21992   */\n      0x00\n        /* \"#utility.yul\":21984:22072   */\n      mstore\n        /* \"#utility.yul\":22091:22095   */\n      0x21\n        /* \"#utility.yul\":22088:22089   */\n      0x04\n        /* \"#utility.yul\":22081:22096   */\n      mstore\n        /* \"#utility.yul\":22115:22119   */\n      0x24\n        /* \"#utility.yul\":22112:22113   */\n      0x00\n        /* \"#utility.yul\":22105:22120   */\n      revert\n        /* \"#utility.yul\":22132:22312   */\n    tag_638:\n        /* \"#utility.yul\":22180:22257   */\n      0x4e487b7100000000000000000000000000000000000000000000000000000000\n        /* \"#utility.yul\":22177:22178   */\n      0x00\n        /* \"#utility.yul\":22170:22258   */\n      mstore\n        /* \"#utility.yul\":22277:22281   */\n      0x22\n        /* \"#utility.yul\":22274:22275   */\n      0x04\n        /* \"#utility.yul\":22267:22282   */\n      mstore\n        /* \"#utility.yul\":22301:22305   */\n      0x24\n        /* \"#utility.yul\":22298:22299   */\n      0x00\n        /* \"#utility.yul\":22291:22306   */\n      revert\n        /* \"#utility.yul\":22318:22498   */\n    tag_187:\n        /* \"#utility.yul\":22366:22443   */\n      0x4e487b7100000000000000000000000000000000000000000000000000000000\n        /* \"#utility.yul\":22363:22364   */\n      0x00\n        /* \"#utility.yul\":22356:22444   */\n      mstore\n        /* \"#utility.yul\":22463:22467   */\n      0x32\n        /* \"#utility.yul\":22460:22461   */\n      0x04\n        /* \"#utility.yul\":22453:22468   */\n      mstore\n        /* \"#utility.yul\":22487:22491   */\n      0x24\n        /* \"#utility.yul\":22484:22485   */\n      0x00\n        /* \"#utility.yul\":22477:22492   */\n      revert\n        /* \"#utility.yul\":22504:22684   */\n    tag_178:\n        /* \"#utility.yul\":22552:22629   */\n      0x4e487b7100000000000000000000000000000000000000000000000000000000\n        /* \"#utility.yul\":22549:22550   */\n      0x00\n        /* \"#utility.yul\":22542:22630   */\n      mstore\n        /* \"#utility.yul\":22649:22653   */\n      0x41\n        /* \"#utility.yul\":22646:22647   */\n      0x04\n        /* \"#utility.yul\":22639:22654   */\n      mstore\n        /* \"#utility.yul\":22673:22677   */\n      0x24\n        /* \"#utility.yul\":22670:22671   */\n      0x00\n        /* \"#utility.yul\":22663:22678   */\n      revert\n        /* \"#utility.yul\":22690:22807   */\n    tag_416:\n        /* \"#utility.yul\":22799:22800   */\n      0x00\n        /* \"#utility.yul\":22796:22797   */\n      dup1\n        /* \"#utility.yul\":22789:22801   */\n      revert\n        /* \"#utility.yul\":22813:22930   */\n    tag_413:\n        /* \"#utility.yul\":22922:22923   */\n      0x00\n        /* \"#utility.yul\":22919:22920   */\n      dup1\n        /* \"#utility.yul\":22912:22924   */\n      revert\n        /* \"#utility.yul\":22936:23053   */\n    tag_419:\n        /* \"#utility.yul\":23045:23046   */\n      0x00\n        /* \"#utility.yul\":23042:23043   */\n      dup1\n        /* \"#utility.yul\":23035:23047   */\n      revert\n        /* \"#utility.yul\":23059:23176   */\n    tag_402:\n        /* \"#utility.yul\":23168:23169   */\n      0x00\n        /* \"#utility.yul\":23165:23166   */\n      dup1\n        /* \"#utility.yul\":23158:23170   */\n      revert\n        /* \"#utility.yul\":23182:23299   */\n    tag_443:\n        /* \"#utility.yul\":23291:23292   */\n      0x00\n        /* \"#utility.yul\":23288:23289   */\n      dup1\n        /* \"#utility.yul\":23281:23293   */\n      revert\n        /* \"#utility.yul\":23305:23422   */\n    tag_436:\n        /* \"#utility.yul\":23414:23415   */\n      0x00\n        /* \"#utility.yul\":23411:23412   */\n      dup1\n        /* \"#utility.yul\":23404:23416   */\n      revert\n        /* \"#utility.yul\":23428:23530   */\n    tag_517:\n        /* \"#utility.yul\":23469:23475   */\n      0x00\n        /* \"#utility.yul\":23520:23522   */\n      0x1f\n        /* \"#utility.yul\":23516:23523   */\n      not\n        /* \"#utility.yul\":23511:23513   */\n      0x1f\n        /* \"#utility.yul\":23504:23509   */\n      dup4\n        /* \"#utility.yul\":23500:23514   */\n      add\n        /* \"#utility.yul\":23496:23524   */\n      and\n        /* \"#utility.yul\":23486:23524   */\n      swap1\n      pop\n        /* \"#utility.yul\":23428:23530   */\n      swap2\n      swap1\n      pop\n      jump\t// out\n        /* \"#utility.yul\":23536:23709   */\n    tag_545:\n        /* \"#utility.yul\":23676:23701   */\n      0x5573657220616c72656164792072656769737465726564000000000000000000\n        /* \"#utility.yul\":23672:23673   */\n      0x00\n        /* \"#utility.yul\":23664:23670   */\n      dup3\n        /* \"#utility.yul\":23660:23674   */\n      add\n        /* \"#utility.yul\":23653:23702   */\n      mstore\n        /* \"#utility.yul\":23536:23709   */\n      pop\n      jump\t// out\n        /* \"#utility.yul\":23715:23830   */\n    tag_623:\n        /* \"#utility.yul\":23798:23799   */\n      0x03\n        /* \"#utility.yul\":23791:23796   */\n      dup2\n        /* \"#utility.yul\":23788:23800   */\n      lt\n        /* \"#utility.yul\":23778:23824   */\n      tag_662\n      jumpi\n        /* \"#utility.yul\":23804:23822   */\n      tag_663\n      tag_91\n      jump\t// in\n    tag_663:\n        /* \"#utility.yul\":23778:23824   */\n    tag_662:\n        /* \"#utility.yul\":23715:23830   */\n      pop\n      jump\t// out\n        /* \"#utility.yul\":23836:23958   */\n    tag_408:\n        /* \"#utility.yul\":23909:23933   */\n      tag_665\n        /* \"#utility.yul\":23927:23932   */\n      dup2\n        /* \"#utility.yul\":23909:23933   */\n      tag_472\n      jump\t// in\n    tag_665:\n        /* \"#utility.yul\":23902:23907   */\n      dup2\n        /* \"#utility.yul\":23899:23934   */\n      eq\n        /* \"#utility.yul\":23889:23952   */\n      tag_666\n      jumpi\n        /* \"#utility.yul\":23948:23949   */\n      0x00\n        /* \"#utility.yul\":23945:23946   */\n      dup1\n        /* \"#utility.yul\":23938:23950   */\n      revert\n        /* \"#utility.yul\":23889:23952   */\n    tag_666:\n        /* \"#utility.yul\":23836:23958   */\n      pop\n      jump\t// out\n        /* \"#utility.yul\":23964:24073   */\n    tag_428:\n        /* \"#utility.yul\":24047:24048   */\n      0x03\n        /* \"#utility.yul\":24040:24045   */\n      dup2\n        /* \"#utility.yul\":24037:24049   */\n      lt\n        /* \"#utility.yul\":24027:24067   */\n      tag_668\n      jumpi\n        /* \"#utility.yul\":24063:24064   */\n      0x00\n        /* \"#utility.yul\":24060:24061   */\n      dup1\n        /* \"#utility.yul\":24053:24065   */\n      revert\n        /* \"#utility.yul\":24027:24067   */\n    tag_668:\n        /* \"#utility.yul\":23964:24073   */\n      pop\n      jump\t// out\n        /* \"#utility.yul\":24079:24201   */\n    tag_432:\n        /* \"#utility.yul\":24152:24176   */\n      tag_670\n        /* \"#utility.yul\":24170:24175   */\n      dup2\n        /* \"#utility.yul\":24152:24176   */\n      tag_562\n      jump\t// in\n    tag_670:\n        /* \"#utility.yul\":24145:24150   */\n      dup2\n        /* \"#utility.yul\":24142:24177   */\n      eq\n        /* \"#utility.yul\":24132:24195   */\n      tag_671\n      jumpi\n        /* \"#utility.yul\":24191:24192   */\n      0x00\n        /* \"#utility.yul\":24188:24189   */\n      dup1\n        /* \"#utility.yul\":24181:24193   */\n      revert\n        /* \"#utility.yul\":24132:24195   */\n    tag_671:\n        /* \"#utility.yul\":24079:24201   */\n      pop\n      jump\t// out\n\n    auxdata: 0xa2646970667358221220ceff75aea01965f88e70957350203d799a1330868010e1ca373cad34a4d44f8764736f6c63430008070033\n}\n",
				"bytecode": {
					"linkReferences": {},
					"object": "608060405234801561001057600080fd5b50613202806100206000396000f3fe608060405234801561001057600080fd5b50600436106101005760003560e01c806390175af111610097578063cea2312111610066578063cea23121146102b2578063d1bab143146102e2578063ddba07a4146102fe578063e2842d791461031c57610100565b806390175af1146102295780639ae7d00814610259578063b53305dc14610275578063c7bbd67e1461029457610100565b806350b492ba116100d357806350b492ba1461018b5780635166608f146101bb5780636a26d064146101ef5780638e24c34b1461020b57610100565b8063026ff05e146101055780630c6c92ba1461010f578063358525411461012b578063365b98b21461015b575b600080fd5b61010d61033a565b005b61012960048036038101906101249190612757565b6103d9565b005b6101456004803603810190610140919061272a565b6106ee565b6040516101529190612db4565b60405180910390f35b61017560048036038101906101709190612863565b610952565b6040516101829190612bc2565b60405180910390f35b6101a560048036038101906101a09190612863565b610991565b6040516101b29190612bc2565b60405180910390f35b6101d560048036038101906101d0919061272a565b6109d0565b6040516101e6959493929190612cc4565b60405180910390f35b61020960048036038101906102049190612757565b610bb8565b005b610213610ecd565b6040516102209190612c36565b60405180910390f35b610243600480360381019061023e9190612863565b611208565b6040516102509190612bc2565b60405180910390f35b610273600480360381019061026e91906127a0565b611247565b005b61027d6116fa565b60405161028b929190612bff565b60405180910390f35b61029c611ae7565b6040516102a99190612bdd565b60405180910390f35b6102cc60048036038101906102c79190612863565b611b75565b6040516102d99190612bc2565b60405180910390f35b6102fc60048036038101906102f79190612757565b611bb4565b005b610306611ec9565b6040516103139190612c36565b60405180910390f35b610324612204565b6040516103319190612c36565b60405180910390f35b60008060003373ffffffffffffffffffffffffffffffffffffffff1673ffffffffffffffffffffffffffffffffffffffff16815260200190815260200160002060040160006101000a81548160ff0219169083151502179055503373ffffffffffffffffffffffffffffffffffffffff167f5db32fb34ad07587763cb39a6a4e3e11627af9bb8b3754c2734c1e7c107c0b5b60405160405180910390a2565b806000803373ffffffffffffffffffffffffffffffffffffffff1673ffffffffffffffffffffffffffffffffffffffff168152602001908152602001600020600101908051906020019061042e92919061253f565b5060008060003373ffffffffffffffffffffffffffffffffffffffff1673ffffffffffffffffffffffffffffffffffffffff1681526020019081526020016000206040518060a00160405290816000820160009054906101000a900460ff16600281111561049f5761049e613066565b5b60028111156104b1576104b0613066565b5b81526020016001820180546104c590612f8b565b80601f01602080910402602001604051908101604052809291908181526020018280546104f190612f8b565b801561053e5780601f106105135761010080835404028352916020019161053e565b820191906000526020600020905b81548152906001019060200180831161052157829003601f168201915b5050505050815260200160028201805461055790612f8b565b80601f016020809104026020016040519081016040528092919081815260200182805461058390612f8b565b80156105d05780601f106105a5576101008083540402835291602001916105d0565b820191906000526020600020905b8154815290600101906020018083116105b357829003601f168201915b505050505081526020016003820180546105e990612f8b565b80601f016020809104026020016040519081016040528092919081815260200182805461061590612f8b565b80156106625780601f1061063757610100808354040283529160200191610662565b820191906000526020600020905b81548152906001019060200180831161064557829003601f168201915b505050505081526020016004820160009054906101000a900460ff16151515158152505090503373ffffffffffffffffffffffffffffffffffffffff167fe49f40f57c43bcc0ea51de08718dcc45efb3325fb9d155e76c2a5ab33be2de1682600001518484604001518560600151426040516106e2959493929190612d2c565b60405180910390a25050565b6106f66125c5565b6000808373ffffffffffffffffffffffffffffffffffffffff1673ffffffffffffffffffffffffffffffffffffffff1681526020019081526020016000206040518060a00160405290816000820160009054906101000a900460ff16600281111561076457610763613066565b5b600281111561077657610775613066565b5b815260200160018201805461078a90612f8b565b80601f01602080910402602001604051908101604052809291908181526020018280546107b690612f8b565b80156108035780601f106107d857610100808354040283529160200191610803565b820191906000526020600020905b8154815290600101906020018083116107e657829003601f168201915b5050505050815260200160028201805461081c90612f8b565b80601f016020809104026020016040519081016040528092919081815260200182805461084890612f8b565b80156108955780601f1061086a57610100808354040283529160200191610895565b820191906000526020600020905b81548152906001019060200180831161087857829003601f168201915b505050505081526020016003820180546108ae90612f8b565b80601f01602080910402602001604051908101604052809291908181526020018280546108da90612f8b565b80156109275780601f106108fc57610100808354040283529160200191610927565b820191906000526020600020905b81548152906001019060200180831161090a57829003601f168201915b505050505081526020016004820160009054906101000a900460ff1615151515815250509050919050565b6001818154811061096257600080fd5b906000526020600020016000915054906101000a900473ffffffffffffffffffffffffffffffffffffffff1681565b600481815481106109a157600080fd5b906000526020600020016000915054906101000a900473ffffffffffffffffffffffffffffffffffffffff1681565b60006020528060005260406000206000915090508060000160009054906101000a900460ff1690806001018054610a0690612f8b565b80601f0160208091040260200160405190810160405280929190818152602001828054610a3290612f8b565b8015610a7f5780601f10610a5457610100808354040283529160200191610a7f565b820191906000526020600020905b815481529060010190602001808311610a6257829003601f168201915b505050505090806002018054610a9490612f8b565b80601f0160208091040260200160405190810160405280929190818152602001828054610ac090612f8b565b8015610b0d5780601f10610ae257610100808354040283529160200191610b0d565b820191906000526020600020905b815481529060010190602001808311610af057829003601f168201915b505050505090806003018054610b2290612f8b565b80601f0160208091040260200160405190810160405280929190818152602001828054610b4e90612f8b565b8015610b9b5780601f10610b7057610100808354040283529160200191610b9b565b820191906000526020600020905b815481529060010190602001808311610b7e57829003601f168201915b5050505050908060040160009054906101000a900460ff16905085565b806000803373ffffffffffffffffffffffffffffffffffffffff1673ffffffffffffffffffffffffffffffffffffffff1681526020019081526020016000206002019080519060200190610c0d92919061253f565b5060008060003373ffffffffffffffffffffffffffffffffffffffff1673ffffffffffffffffffffffffffffffffffffffff1681526020019081526020016000206040518060a00160405290816000820160009054906101000a900460ff166002811115610c7e57610c7d613066565b5b6002811115610c9057610c8f613066565b5b8152602001600182018054610ca490612f8b565b80601f0160208091040260200160405190810160405280929190818152602001828054610cd090612f8b565b8015610d1d5780601f10610cf257610100808354040283529160200191610d1d565b820191906000526020600020905b815481529060010190602001808311610d0057829003601f168201915b50505050508152602001600282018054610d3690612f8b565b80601f0160208091040260200160405190810160405280929190818152602001828054610d6290612f8b565b8015610daf5780601f10610d8457610100808354040283529160200191610daf565b820191906000526020600020905b815481529060010190602001808311610d9257829003601f168201915b50505050508152602001600382018054610dc890612f8b565b80601f0160208091040260200160405190810160405280929190818152602001828054610df490612f8b565b8015610e415780601f10610e1657610100808354040283529160200191610e41565b820191906000526020600020905b815481529060010190602001808311610e2457829003601f168201915b505050505081526020016004820160009054906101000a900460ff16151515158152505090503373ffffffffffffffffffffffffffffffffffffffff167fe49f40f57c43bcc0ea51de08718dcc45efb3325fb9d155e76c2a5ab33be2de168260000151836020015185856060015142604051610ec1959493929190612d2c565b60405180910390a25050565b6060600060048054905067ffffffffffffffff811115610ef057610eef6130f3565b5b604051908082528060200260200182016040528015610f2957816020015b610f166125c5565b815260200190600190039081610f0e5790505b50905060005b6004805490508110156112005760008060048381548110610f5357610f526130c4565b5b9060005260206000200160009054906101000a900473ffffffffffffffffffffffffffffffffffffffff1673ffffffffffffffffffffffffffffffffffffffff1673ffffffffffffffffffffffffffffffffffffffff1681526020019081526020016000206040518060a00160405290816000820160009054906101000a900460ff166002811115610fe857610fe7613066565b5b6002811115610ffa57610ff9613066565b5b815260200160018201805461100e90612f8b565b80601f016020809104026020016040519081016040528092919081815260200182805461103a90612f8b565b80156110875780601f1061105c57610100808354040283529160200191611087565b820191906000526020600020905b81548152906001019060200180831161106a57829003601f168201915b505050505081526020016002820180546110a090612f8b565b80601f01602080910402602001604051908101604052809291908181526020018280546110cc90612f8b565b80156111195780601f106110ee57610100808354040283529160200191611119565b820191906000526020600020905b8154815290600101906020018083116110fc57829003601f168201915b5050505050815260200160038201805461113290612f8b565b80601f016020809104026020016040519081016040528092919081815260200182805461115e90612f8b565b80156111ab5780601f10611180576101008083540402835291602001916111ab565b820191906000526020600020905b81548152906001019060200180831161118e57829003601f168201915b505050505081526020016004820160009054906101000a900460ff1615151515815250508282815181106111e2576111e16130c4565b5b602002602001018190525080806111f890612fee565b915050610f2f565b508091505090565b6003818154811061121857600080fd5b906000526020600020016000915054906101000a900473ffffffffffffffffffffffffffffffffffffffff1681565b60008060003373ffffffffffffffffffffffffffffffffffffffff1673ffffffffffffffffffffffffffffffffffffffff168152602001908152602001600020600101805461129590612f8b565b9050146112d7576040517f08c379a00000000000000000000000000000000000000000000000000000000081526004016112ce90612d94565b60405180910390fd5b6040518060a001604052808760028111156112f5576112f4613066565b5b815260200186868080601f016020809104026020016040519081016040528093929190818152602001838380828437600081840152601f19601f82011690508083019250505050505050815260200184848080601f016020809104026020016040519081016040528093929190818152602001838380828437600081840152601f19601f820116905080830192505050505050508152602001828152602001600115158152506000803373ffffffffffffffffffffffffffffffffffffffff1673ffffffffffffffffffffffffffffffffffffffff16815260200190815260200160002060008201518160000160006101000a81548160ff0219169083600281111561140457611403613066565b5b0217905550602082015181600101908051906020019061142592919061253f565b50604082015181600201908051906020019061144292919061253f565b50606082015181600301908051906020019061145f92919061253f565b5060808201518160040160006101000a81548160ff0219169083151502179055509050506001339080600181540180825580915050600190039060005260206000200160009091909190916101000a81548173ffffffffffffffffffffffffffffffffffffffff021916908373ffffffffffffffffffffffffffffffffffffffff160217905550600060028111156114fa576114f9613066565b5b86600281111561150d5761150c613066565b5b1415611577576002339080600181540180825580915050600190039060005260206000200160009091909190916101000a81548173ffffffffffffffffffffffffffffffffffffffff021916908373ffffffffffffffffffffffffffffffffffffffff1602179055505b6001600281111561158b5761158a613066565b5b86600281111561159e5761159d613066565b5b1415611608576003339080600181540180825580915050600190039060005260206000200160009091909190916101000a81548173ffffffffffffffffffffffffffffffffffffffff021916908373ffffffffffffffffffffffffffffffffffffffff1602179055505b60028081111561161b5761161a613066565b5b86600281111561162e5761162d613066565b5b1415611698576004339080600181540180825580915050600190039060005260206000200160009091909190916101000a81548173ffffffffffffffffffffffffffffffffffffffff021916908373ffffffffffffffffffffffffffffffffffffffff1602179055505b3373ffffffffffffffffffffffffffffffffffffffff167fe49f40f57c43bcc0ea51de08718dcc45efb3325fb9d155e76c2a5ab33be2de16878787878787426040516116ea9796959493929190612c58565b60405180910390a2505050505050565b606080600060028054905067ffffffffffffffff81111561171e5761171d6130f3565b5b60405190808252806020026020018201604052801561174c5781602001602082028036833780820191505090505b509050600060028054905067ffffffffffffffff8111156117705761176f6130f3565b5b6040519080825280602002602001820160405280156117a957816020015b6117966125c5565b81526020019060019003908161178e5790505b50905060005b600280549050811015611ada576000600282815481106117d2576117d16130c4565b5b9060005260206000200160009054906101000a900473ffffffffffffffffffffffffffffffffffffffff16905060008060008373ffffffffffffffffffffffffffffffffffffffff1673ffffffffffffffffffffffffffffffffffffffff1681526020019081526020016000206040518060a00160405290816000820160009054906101000a900460ff16600281111561186f5761186e613066565b5b600281111561188157611880613066565b5b815260200160018201805461189590612f8b565b80601f01602080910402602001604051908101604052809291908181526020018280546118c190612f8b565b801561190e5780601f106118e35761010080835404028352916020019161190e565b820191906000526020600020905b8154815290600101906020018083116118f157829003601f168201915b5050505050815260200160028201805461192790612f8b565b80601f016020809104026020016040519081016040528092919081815260200182805461195390612f8b565b80156119a05780601f10611975576101008083540402835291602001916119a0565b820191906000526020600020905b81548152906001019060200180831161198357829003601f168201915b505050505081526020016003820180546119b990612f8b565b80601f01602080910402602001604051908101604052809291908181526020018280546119e590612f8b565b8015611a325780601f10611a0757610100808354040283529160200191611a32565b820191906000526020600020905b815481529060010190602001808311611a1557829003601f168201915b505050505081526020016004820160009054906101000a900460ff161515151581525050905081858481518110611a6c57611a6b6130c4565b5b602002602001019073ffffffffffffffffffffffffffffffffffffffff16908173ffffffffffffffffffffffffffffffffffffffff168152505080848481518110611aba57611ab96130c4565b5b602002602001018190525050508080611ad290612fee565b9150506117af565b5081819350935050509091565b60606002805480602002602001604051908101604052809291908181526020018280548015611b6b57602002820191906000526020600020905b8160009054906101000a900473ffffffffffffffffffffffffffffffffffffffff1673ffffffffffffffffffffffffffffffffffffffff1681526020019060010190808311611b21575b5050505050905090565b60028181548110611b8557600080fd5b906000526020600020016000915054906101000a900473ffffffffffffffffffffffffffffffffffffffff1681565b806000803373ffffffffffffffffffffffffffffffffffffffff1673ffffffffffffffffffffffffffffffffffffffff1681526020019081526020016000206003019080519060200190611c0992919061253f565b5060008060003373ffffffffffffffffffffffffffffffffffffffff1673ffffffffffffffffffffffffffffffffffffffff1681526020019081526020016000206040518060a00160405290816000820160009054906101000a900460ff166002811115611c7a57611c79613066565b5b6002811115611c8c57611c8b613066565b5b8152602001600182018054611ca090612f8b565b80601f0160208091040260200160405190810160405280929190818152602001828054611ccc90612f8b565b8015611d195780601f10611cee57610100808354040283529160200191611d19565b820191906000526020600020905b815481529060010190602001808311611cfc57829003601f168201915b50505050508152602001600282018054611d3290612f8b565b80601f0160208091040260200160405190810160405280929190818152602001828054611d5e90612f8b565b8015611dab5780601f10611d8057610100808354040283529160200191611dab565b820191906000526020600020905b815481529060010190602001808311611d8e57829003601f168201915b50505050508152602001600382018054611dc490612f8b565b80601f0160208091040260200160405190810160405280929190818152602001828054611df090612f8b565b8015611e3d5780601f10611e1257610100808354040283529160200191611e3d565b820191906000526020600020905b815481529060010190602001808311611e2057829003601f168201915b505050505081526020016004820160009054906101000a900460ff16151515158152505090503373ffffffffffffffffffffffffffffffffffffffff167fe49f40f57c43bcc0ea51de08718dcc45efb3325fb9d155e76c2a5ab33be2de168260000151836020015184606001518642604051611ebd959493929190612d2c565b60405180910390a25050565b6060600060038054905067ffffffffffffffff811115611eec57611eeb6130f3565b5b604051908082528060200260200182016040528015611f2557816020015b611f126125c5565b815260200190600190039081611f0a5790505b50905060005b6003805490508110156121fc5760008060038381548110611f4f57611f4e6130c4565b5b9060005260206000200160009054906101000a900473ffffffffffffffffffffffffffffffffffffffff1673ffffffffffffffffffffffffffffffffffffffff1673ffffffffffffffffffffffffffffffffffffffff1681526020019081526020016000206040518060a00160405290816000820160009054906101000a900460ff166002811115611fe457611fe3613066565b5b6002811115611ff657611ff5613066565b5b815260200160018201805461200a90612f8b565b80601f016020809104026020016040519081016040528092919081815260200182805461203690612f8b565b80156120835780601f1061205857610100808354040283529160200191612083565b820191906000526020600020905b81548152906001019060200180831161206657829003601f168201915b5050505050815260200160028201805461209c90612f8b565b80601f01602080910402602001604051908101604052809291908181526020018280546120c890612f8b565b80156121155780601f106120ea57610100808354040283529160200191612115565b820191906000526020600020905b8154815290600101906020018083116120f857829003601f168201915b5050505050815260200160038201805461212e90612f8b565b80601f016020809104026020016040519081016040528092919081815260200182805461215a90612f8b565b80156121a75780601f1061217c576101008083540402835291602001916121a7565b820191906000526020600020905b81548152906001019060200180831161218a57829003601f168201915b505050505081526020016004820160009054906101000a900460ff1615151515815250508282815181106121de576121dd6130c4565b5b602002602001018190525080806121f490612fee565b915050611f2b565b508091505090565b6060600060018054905067ffffffffffffffff811115612227576122266130f3565b5b60405190808252806020026020018201604052801561226057816020015b61224d6125c5565b8152602001906001900390816122455790505b50905060005b600180549050811015612537576000806001838154811061228a576122896130c4565b5b9060005260206000200160009054906101000a900473ffffffffffffffffffffffffffffffffffffffff1673ffffffffffffffffffffffffffffffffffffffff1673ffffffffffffffffffffffffffffffffffffffff1681526020019081526020016000206040518060a00160405290816000820160009054906101000a900460ff16600281111561231f5761231e613066565b5b600281111561233157612330613066565b5b815260200160018201805461234590612f8b565b80601f016020809104026020016040519081016040528092919081815260200182805461237190612f8b565b80156123be5780601f10612393576101008083540402835291602001916123be565b820191906000526020600020905b8154815290600101906020018083116123a157829003601f168201915b505050505081526020016002820180546123d790612f8b565b80601f016020809104026020016040519081016040528092919081815260200182805461240390612f8b565b80156124505780601f1061242557610100808354040283529160200191612450565b820191906000526020600020905b81548152906001019060200180831161243357829003601f168201915b5050505050815260200160038201805461246990612f8b565b80601f016020809104026020016040519081016040528092919081815260200182805461249590612f8b565b80156124e25780601f106124b7576101008083540402835291602001916124e2565b820191906000526020600020905b8154815290600101906020018083116124c557829003601f168201915b505050505081526020016004820160009054906101000a900460ff161515151581525050828281518110612519576125186130c4565b5b6020026020010181905250808061252f90612fee565b915050612266565b508091505090565b82805461254b90612f8b565b90600052602060002090601f01602090048101928261256d57600085556125b4565b82601f1061258657805160ff19168380011785556125b4565b828001600101855582156125b4579182015b828111156125b3578251825591602001919060010190612598565b5b5090506125c19190612608565b5090565b6040518060a00160405280600060028111156125e4576125e3613066565b5b81526020016060815260200160608152602001606081526020016000151581525090565b5b80821115612621576000816000905550600101612609565b5090565b600061263861263384612dfb565b612dd6565b90508281526020810184848401111561265457612653613131565b5b61265f848285612f49565b509392505050565b6000813590506126768161318e565b92915050565b60008083601f84011261269257612691613127565b5b8235905067ffffffffffffffff8111156126af576126ae613122565b5b6020830191508360018202830111156126cb576126ca61312c565b5b9250929050565b600082601f8301126126e7576126e6613127565b5b81356126f7848260208601612625565b91505092915050565b60008135905061270f816131a5565b92915050565b600081359050612724816131b5565b92915050565b6000602082840312156127405761273f61313b565b5b600061274e84828501612667565b91505092915050565b60006020828403121561276d5761276c61313b565b5b600082013567ffffffffffffffff81111561278b5761278a613136565b5b612797848285016126d2565b91505092915050565b600080600080600080608087890312156127bd576127bc61313b565b5b60006127cb89828a01612700565b965050602087013567ffffffffffffffff8111156127ec576127eb613136565b5b6127f889828a0161267c565b9550955050604087013567ffffffffffffffff81111561281b5761281a613136565b5b61282789828a0161267c565b9350935050606087013567ffffffffffffffff81111561284a57612849613136565b5b61285689828a016126d2565b9150509295509295509295565b6000602082840312156128795761287861313b565b5b600061288784828501612715565b91505092915050565b600061289c83836128bc565b60208301905092915050565b60006128b48383612aab565b905092915050565b6128c581612edc565b82525050565b6128d481612edc565b82525050565b60006128e582612e4c565b6128ef8185612e87565b93506128fa83612e2c565b8060005b8381101561292b5781516129128882612890565b975061291d83612e6d565b9250506001810190506128fe565b5085935050505092915050565b600061294382612e57565b61294d8185612e98565b93508360208202850161295f85612e3c565b8060005b8581101561299b578484038952815161297c85826128a8565b945061298783612e7a565b925060208a01995050600181019050612963565b50829750879550505050505092915050565b6129b681612eee565b82525050565b6129c581612eee565b82525050565b60006129d78385612eba565b93506129e4838584612f49565b6129ed83613140565b840190509392505050565b6000612a0382612e62565b612a0d8185612ea9565b9350612a1d818560208601612f58565b612a2681613140565b840191505092915050565b6000612a3c82612e62565b612a468185612eba565b9350612a56818560208601612f58565b612a5f81613140565b840191505092915050565b612a7381612f37565b82525050565b612a8281612f37565b82525050565b6000612a95601783612ecb565b9150612aa082613151565b602082019050919050565b600060a083016000830151612ac36000860182612a6a565b5060208301518482036020860152612adb82826129f8565b91505060408301518482036040860152612af582826129f8565b91505060608301518482036060860152612b0f82826129f8565b9150506080830151612b2460808601826129ad565b508091505092915050565b600060a083016000830151612b476000860182612a6a565b5060208301518482036020860152612b5f82826129f8565b91505060408301518482036040860152612b7982826129f8565b91505060608301518482036060860152612b9382826129f8565b9150506080830151612ba860808601826129ad565b508091505092915050565b612bbc81612f2d565b82525050565b6000602082019050612bd760008301846128cb565b92915050565b60006020820190508181036000830152612bf781846128da565b905092915050565b60006040820190508181036000830152612c1981856128da565b90508181036020830152612c2d8184612938565b90509392505050565b60006020820190508181036000830152612c508184612938565b905092915050565b600060a082019050612c6d600083018a612a79565b8181036020830152612c8081888a6129cb565b90508181036040830152612c958186886129cb565b90508181036060830152612ca98185612a31565b9050612cb86080830184612bb3565b98975050505050505050565b600060a082019050612cd96000830188612a79565b8181036020830152612ceb8187612a31565b90508181036040830152612cff8186612a31565b90508181036060830152612d138185612a31565b9050612d2260808301846129bc565b9695505050505050565b600060a082019050612d416000830188612a79565b8181036020830152612d538187612a31565b90508181036040830152612d678186612a31565b90508181036060830152612d7b8185612a31565b9050612d8a6080830184612bb3565b9695505050505050565b60006020820190508181036000830152612dad81612a88565b9050919050565b60006020820190508181036000830152612dce8184612b2f565b905092915050565b6000612de0612df1565b9050612dec8282612fbd565b919050565b6000604051905090565b600067ffffffffffffffff821115612e1657612e156130f3565b5b612e1f82613140565b9050602081019050919050565b6000819050602082019050919050565b6000819050602082019050919050565b600081519050919050565b600081519050919050565b600081519050919050565b6000602082019050919050565b6000602082019050919050565b600082825260208201905092915050565b600082825260208201905092915050565b600082825260208201905092915050565b600082825260208201905092915050565b600082825260208201905092915050565b6000612ee782612f0d565b9050919050565b60008115159050919050565b6000819050612f088261317a565b919050565b600073ffffffffffffffffffffffffffffffffffffffff82169050919050565b6000819050919050565b6000612f4282612efa565b9050919050565b82818337600083830152505050565b60005b83811015612f76578082015181840152602081019050612f5b565b83811115612f85576000848401525b50505050565b60006002820490506001821680612fa357607f821691505b60208210811415612fb757612fb6613095565b5b50919050565b612fc682613140565b810181811067ffffffffffffffff82111715612fe557612fe46130f3565b5b80604052505050565b6000612ff982612f2d565b91507fffffffffffffffffffffffffffffffffffffffffffffffffffffffffffffffff82141561302c5761302b613037565b5b600182019050919050565b7f4e487b7100000000000000000000000000000000000000000000000000000000600052601160045260246000fd5b7f4e487b7100000000000000000000000000000000000000000000000000000000600052602160045260246000fd5b7f4e487b7100000000000000000000000000000000000000000000000000000000600052602260045260246000fd5b7f4e487b7100000000000000000000000000000000000000000000000000000000600052603260045260246000fd5b7f4e487b7100000000000000000000000000000000000000000000000000000000600052604160045260246000fd5b600080fd5b600080fd5b600080fd5b600080fd5b600080fd5b600080fd5b6000601f19601f8301169050919050565b7f5573657220616c72656164792072656769737465726564000000000000000000600082015250565b6003811061318b5761318a613066565b5b50565b61319781612edc565b81146131a257600080fd5b50565b600381106131b257600080fd5b50565b6131be81612f2d565b81146131c957600080fd5b5056fea2646970667358221220ceff75aea01965f88e70957350203d799a1330868010e1ca373cad34a4d44f8764736f6c63430008070033",
					"opcodes": "PUSH1 0x80 PUSH1 0x40 MSTORE CALLVALUE DUP1 ISZERO PUSH2 0x10 JUMPI PUSH1 0x0 DUP1 REVERT JUMPDEST POP PUSH2 0x3202 DUP1 PUSH2 0x20 PUSH1 0x0 CODECOPY PUSH1 0x0 RETURN INVALID PUSH1 0x80 PUSH1 0x40 MSTORE CALLVALUE DUP1 ISZERO PUSH2 0x10 JUMPI PUSH1 0x0 DUP1 REVERT JUMPDEST POP PUSH1 0x4 CALLDATASIZE LT PUSH2 0x100 JUMPI PUSH1 0x0 CALLDATALOAD PUSH1 0xE0 SHR DUP1 PUSH4 0x90175AF1 GT PUSH2 0x97 JUMPI DUP1 PUSH4 0xCEA23121 GT PUSH2 0x66 JUMPI DUP1 PUSH4 0xCEA23121 EQ PUSH2 0x2B2 JUMPI DUP1 PUSH4 0xD1BAB143 EQ PUSH2 0x2E2 JUMPI DUP1 PUSH4 0xDDBA07A4 EQ PUSH2 0x2FE JUMPI DUP1 PUSH4 0xE2842D79 EQ PUSH2 0x31C JUMPI PUSH2 0x100 JUMP JUMPDEST DUP1 PUSH4 0x90175AF1 EQ PUSH2 0x229 JUMPI DUP1 PUSH4 0x9AE7D008 EQ PUSH2 0x259 JUMPI DUP1 PUSH4 0xB53305DC EQ PUSH2 0x275 JUMPI DUP1 PUSH4 0xC7BBD67E EQ PUSH2 0x294 JUMPI PUSH2 0x100 JUMP JUMPDEST DUP1 PUSH4 0x50B492BA GT PUSH2 0xD3 JUMPI DUP1 PUSH4 0x50B492BA EQ PUSH2 0x18B JUMPI DUP1 PUSH4 0x5166608F EQ PUSH2 0x1BB JUMPI DUP1 PUSH4 0x6A26D064 EQ PUSH2 0x1EF JUMPI DUP1 PUSH4 0x8E24C34B EQ PUSH2 0x20B JUMPI PUSH2 0x100 JUMP JUMPDEST DUP1 PUSH4 0x26FF05E EQ PUSH2 0x105 JUMPI DUP1 PUSH4 0xC6C92BA EQ PUSH2 0x10F JUMPI DUP1 PUSH4 0x35852541 EQ PUSH2 0x12B JUMPI DUP1 PUSH4 0x365B98B2 EQ PUSH2 0x15B JUMPI JUMPDEST PUSH1 0x0 DUP1 REVERT JUMPDEST PUSH2 0x10D PUSH2 0x33A JUMP JUMPDEST STOP JUMPDEST PUSH2 0x129 PUSH1 0x4 DUP1 CALLDATASIZE SUB DUP2 ADD SWAP1 PUSH2 0x124 SWAP2 SWAP1 PUSH2 0x2757 JUMP JUMPDEST PUSH2 0x3D9 JUMP JUMPDEST STOP JUMPDEST PUSH2 0x145 PUSH1 0x4 DUP1 CALLDATASIZE SUB DUP2 ADD SWAP1 PUSH2 0x140 SWAP2 SWAP1 PUSH2 0x272A JUMP JUMPDEST PUSH2 0x6EE JUMP JUMPDEST PUSH1 0x40 MLOAD PUSH2 0x152 SWAP2 SWAP1 PUSH2 0x2DB4 JUMP JUMPDEST PUSH1 0x40 MLOAD DUP1 SWAP2 SUB SWAP1 RETURN JUMPDEST PUSH2 0x175 PUSH1 0x4 DUP1 CALLDATASIZE SUB DUP2 ADD SWAP1 PUSH2 0x170 SWAP2 SWAP1 PUSH2 0x2863 JUMP JUMPDEST PUSH2 0x952 JUMP JUMPDEST PUSH1 0x40 MLOAD PUSH2 0x182 SWAP2 SWAP1 PUSH2 0x2BC2 JUMP JUMPDEST PUSH1 0x40 MLOAD DUP1 SWAP2 SUB SWAP1 RETURN JUMPDEST PUSH2 0x1A5 PUSH1 0x4 DUP1 CALLDATASIZE SUB DUP2 ADD SWAP1 PUSH2 0x1A0 SWAP2 SWAP1 PUSH2 0x2863 JUMP JUMPDEST PUSH2 0x991 JUMP JUMPDEST PUSH1 0x40 MLOAD PUSH2 0x1B2 SWAP2 SWAP1 PUSH2 0x2BC2 JUMP JUMPDEST PUSH1 0x40 MLOAD DUP1 SWAP2 SUB SWAP1 RETURN JUMPDEST PUSH2 0x1D5 PUSH1 0x4 DUP1 CALLDATASIZE SUB DUP2 ADD SWAP1 PUSH2 0x1D0 SWAP2 SWAP1 PUSH2 0x272A JUMP JUMPDEST PUSH2 0x9D0 JUMP JUMPDEST PUSH1 0x40 MLOAD PUSH2 0x1E6 SWAP6 SWAP5 SWAP4 SWAP3 SWAP2 SWAP1 PUSH2 0x2CC4 JUMP JUMPDEST PUSH1 0x40 MLOAD DUP1 SWAP2 SUB SWAP1 RETURN JUMPDEST PUSH2 0x209 PUSH1 0x4 DUP1 CALLDATASIZE SUB DUP2 ADD SWAP1 PUSH2 0x204 SWAP2 SWAP1 PUSH2 0x2757 JUMP JUMPDEST PUSH2 0xBB8 JUMP JUMPDEST STOP JUMPDEST PUSH2 0x213 PUSH2 0xECD JUMP JUMPDEST PUSH1 0x40 MLOAD PUSH2 0x220 SWAP2 SWAP1 PUSH2 0x2C36 JUMP JUMPDEST PUSH1 0x40 MLOAD DUP1 SWAP2 SUB SWAP1 RETURN JUMPDEST PUSH2 0x243 PUSH1 0x4 DUP1 CALLDATASIZE SUB DUP2 ADD SWAP1 PUSH2 0x23E SWAP2 SWAP1 PUSH2 0x2863 JUMP JUMPDEST PUSH2 0x1208 JUMP JUMPDEST PUSH1 0x40 MLOAD PUSH2 0x250 SWAP2 SWAP1 PUSH2 0x2BC2 JUMP JUMPDEST PUSH1 0x40 MLOAD DUP1 SWAP2 SUB SWAP1 RETURN JUMPDEST PUSH2 0x273 PUSH1 0x4 DUP1 CALLDATASIZE SUB DUP2 ADD SWAP1 PUSH2 0x26E SWAP2 SWAP1 PUSH2 0x27A0 JUMP JUMPDEST PUSH2 0x1247 JUMP JUMPDEST STOP JUMPDEST PUSH2 0x27D PUSH2 0x16FA JUMP JUMPDEST PUSH1 0x40 MLOAD PUSH2 0x28B SWAP3 SWAP2 SWAP1 PUSH2 0x2BFF JUMP JUMPDEST PUSH1 0x40 MLOAD DUP1 SWAP2 SUB SWAP1 RETURN JUMPDEST PUSH2 0x29C PUSH2 0x1AE7 JUMP JUMPDEST PUSH1 0x40 MLOAD PUSH2 0x2A9 SWAP2 SWAP1 PUSH2 0x2BDD JUMP JUMPDEST PUSH1 0x40 MLOAD DUP1 SWAP2 SUB SWAP1 RETURN JUMPDEST PUSH2 0x2CC PUSH1 0x4 DUP1 CALLDATASIZE SUB DUP2 ADD SWAP1 PUSH2 0x2C7 SWAP2 SWAP1 PUSH2 0x2863 JUMP JUMPDEST PUSH2 0x1B75 JUMP JUMPDEST PUSH1 0x40 MLOAD PUSH2 0x2D9 SWAP2 SWAP1 PUSH2 0x2BC2 JUMP JUMPDEST PUSH1 0x40 MLOAD DUP1 SWAP2 SUB SWAP1 RETURN JUMPDEST PUSH2 0x2FC PUSH1 0x4 DUP1 CALLDATASIZE SUB DUP2 ADD SWAP1 PUSH2 0x2F7 SWAP2 SWAP1 PUSH2 0x2757 JUMP JUMPDEST PUSH2 0x1BB4 JUMP JUMPDEST STOP JUMPDEST PUSH2 0x306 PUSH2 0x1EC9 JUMP JUMPDEST PUSH1 0x40 MLOAD PUSH2 0x313 SWAP2 SWAP1 PUSH2 0x2C36 JUMP JUMPDEST PUSH1 0x40 MLOAD DUP1 SWAP2 SUB SWAP1 RETURN JUMPDEST PUSH2 0x324 PUSH2 0x2204 JUMP JUMPDEST PUSH1 0x40 MLOAD PUSH2 0x331 SWAP2 SWAP1 PUSH2 0x2C36 JUMP JUMPDEST PUSH1 0x40 MLOAD DUP1 SWAP2 SUB SWAP1 RETURN JUMPDEST PUSH1 0x0 DUP1 PUSH1 0x0 CALLER PUSH20 0xFFFFFFFFFFFFFFFFFFFFFFFFFFFFFFFFFFFFFFFF AND PUSH20 0xFFFFFFFFFFFFFFFFFFFFFFFFFFFFFFFFFFFFFFFF AND DUP2 MSTORE PUSH1 0x20 ADD SWAP1 DUP2 MSTORE PUSH1 0x20 ADD PUSH1 0x0 KECCAK256 PUSH1 0x4 ADD PUSH1 0x0 PUSH2 0x100 EXP DUP2 SLOAD DUP2 PUSH1 0xFF MUL NOT AND SWAP1 DUP4 ISZERO ISZERO MUL OR SWAP1 SSTORE POP CALLER PUSH20 0xFFFFFFFFFFFFFFFFFFFFFFFFFFFFFFFFFFFFFFFF AND PUSH32 0x5DB32FB34AD07587763CB39A6A4E3E11627AF9BB8B3754C2734C1E7C107C0B5B PUSH1 0x40 MLOAD PUSH1 0x40 MLOAD DUP1 SWAP2 SUB SWAP1 LOG2 JUMP JUMPDEST DUP1 PUSH1 0x0 DUP1 CALLER PUSH20 0xFFFFFFFFFFFFFFFFFFFFFFFFFFFFFFFFFFFFFFFF AND PUSH20 0xFFFFFFFFFFFFFFFFFFFFFFFFFFFFFFFFFFFFFFFF AND DUP2 MSTORE PUSH1 0x20 ADD SWAP1 DUP2 MSTORE PUSH1 0x20 ADD PUSH1 0x0 KECCAK256 PUSH1 0x1 ADD SWAP1 DUP1 MLOAD SWAP1 PUSH1 0x20 ADD SWAP1 PUSH2 0x42E SWAP3 SWAP2 SWAP1 PUSH2 0x253F JUMP JUMPDEST POP PUSH1 0x0 DUP1 PUSH1 0x0 CALLER PUSH20 0xFFFFFFFFFFFFFFFFFFFFFFFFFFFFFFFFFFFFFFFF AND PUSH20 0xFFFFFFFFFFFFFFFFFFFFFFFFFFFFFFFFFFFFFFFF AND DUP2 MSTORE PUSH1 0x20 ADD SWAP1 DUP2 MSTORE PUSH1 0x20 ADD PUSH1 0x0 KECCAK256 PUSH1 0x40 MLOAD DUP1 PUSH1 0xA0 ADD PUSH1 0x40 MSTORE SWAP1 DUP2 PUSH1 0x0 DUP3 ADD PUSH1 0x0 SWAP1 SLOAD SWAP1 PUSH2 0x100 EXP SWAP1 DIV PUSH1 0xFF AND PUSH1 0x2 DUP2 GT ISZERO PUSH2 0x49F JUMPI PUSH2 0x49E PUSH2 0x3066 JUMP JUMPDEST JUMPDEST PUSH1 0x2 DUP2 GT ISZERO PUSH2 0x4B1 JUMPI PUSH2 0x4B0 PUSH2 0x3066 JUMP JUMPDEST JUMPDEST DUP2 MSTORE PUSH1 0x20 ADD PUSH1 0x1 DUP3 ADD DUP1 SLOAD PUSH2 0x4C5 SWAP1 PUSH2 0x2F8B JUMP JUMPDEST DUP1 PUSH1 0x1F ADD PUSH1 0x20 DUP1 SWAP2 DIV MUL PUSH1 0x20 ADD PUSH1 0x40 MLOAD SWAP1 DUP2 ADD PUSH1 0x40 MSTORE DUP1 SWAP3 SWAP2 SWAP1 DUP2 DUP2 MSTORE PUSH1 0x20 ADD DUP3 DUP1 SLOAD PUSH2 0x4F1 SWAP1 PUSH2 0x2F8B JUMP JUMPDEST DUP1 ISZERO PUSH2 0x53E JUMPI DUP1 PUSH1 0x1F LT PUSH2 0x513 JUMPI PUSH2 0x100 DUP1 DUP4 SLOAD DIV MUL DUP4 MSTORE SWAP2 PUSH1 0x20 ADD SWAP2 PUSH2 0x53E JUMP JUMPDEST DUP3 ADD SWAP2 SWAP1 PUSH1 0x0 MSTORE PUSH1 0x20 PUSH1 0x0 KECCAK256 SWAP1 JUMPDEST DUP2 SLOAD DUP2 MSTORE SWAP1 PUSH1 0x1 ADD SWAP1 PUSH1 0x20 ADD DUP1 DUP4 GT PUSH2 0x521 JUMPI DUP3 SWAP1 SUB PUSH1 0x1F AND DUP3 ADD SWAP2 JUMPDEST POP POP POP POP POP DUP2 MSTORE PUSH1 0x20 ADD PUSH1 0x2 DUP3 ADD DUP1 SLOAD PUSH2 0x557 SWAP1 PUSH2 0x2F8B JUMP JUMPDEST DUP1 PUSH1 0x1F ADD PUSH1 0x20 DUP1 SWAP2 DIV MUL PUSH1 0x20 ADD PUSH1 0x40 MLOAD SWAP1 DUP2 ADD PUSH1 0x40 MSTORE DUP1 SWAP3 SWAP2 SWAP1 DUP2 DUP2 MSTORE PUSH1 0x20 ADD DUP3 DUP1 SLOAD PUSH2 0x583 SWAP1 PUSH2 0x2F8B JUMP JUMPDEST DUP1 ISZERO PUSH2 0x5D0 JUMPI DUP1 PUSH1 0x1F LT PUSH2 0x5A5 JUMPI PUSH2 0x100 DUP1 DUP4 SLOAD DIV MUL DUP4 MSTORE SWAP2 PUSH1 0x20 ADD SWAP2 PUSH2 0x5D0 JUMP JUMPDEST DUP3 ADD SWAP2 SWAP1 PUSH1 0x0 MSTORE PUSH1 0x20 PUSH1 0x0 KECCAK256 SWAP1 JUMPDEST DUP2 SLOAD DUP2 MSTORE SWAP1 PUSH1 0x1 ADD SWAP1 PUSH1 0x20 ADD DUP1 DUP4 GT PUSH2 0x5B3 JUMPI DUP3 SWAP1 SUB PUSH1 0x1F AND DUP3 ADD SWAP2 JUMPDEST POP POP POP POP POP DUP2 MSTORE PUSH1 0x20 ADD PUSH1 0x3 DUP3 ADD DUP1 SLOAD PUSH2 0x5E9 SWAP1 PUSH2 0x2F8B JUMP JUMPDEST DUP1 PUSH1 0x1F ADD PUSH1 0x20 DUP1 SWAP2 DIV MUL PUSH1 0x20 ADD PUSH1 0x40 MLOAD SWAP1 DUP2 ADD PUSH1 0x40 MSTORE DUP1 SWAP3 SWAP2 SWAP1 DUP2 DUP2 MSTORE PUSH1 0x20 ADD DUP3 DUP1 SLOAD PUSH2 0x615 SWAP1 PUSH2 0x2F8B JUMP JUMPDEST DUP1 ISZERO PUSH2 0x662 JUMPI DUP1 PUSH1 0x1F LT PUSH2 0x637 JUMPI PUSH2 0x100 DUP1 DUP4 SLOAD DIV MUL DUP4 MSTORE SWAP2 PUSH1 0x20 ADD SWAP2 PUSH2 0x662 JUMP JUMPDEST DUP3 ADD SWAP2 SWAP1 PUSH1 0x0 MSTORE PUSH1 0x20 PUSH1 0x0 KECCAK256 SWAP1 JUMPDEST DUP2 SLOAD DUP2 MSTORE SWAP1 PUSH1 0x1 ADD SWAP1 PUSH1 0x20 ADD DUP1 DUP4 GT PUSH2 0x645 JUMPI DUP3 SWAP1 SUB PUSH1 0x1F AND DUP3 ADD SWAP2 JUMPDEST POP POP POP POP POP DUP2 MSTORE PUSH1 0x20 ADD PUSH1 0x4 DUP3 ADD PUSH1 0x0 SWAP1 SLOAD SWAP1 PUSH2 0x100 EXP SWAP1 DIV PUSH1 0xFF AND ISZERO ISZERO ISZERO ISZERO DUP2 MSTORE POP POP SWAP1 POP CALLER PUSH20 0xFFFFFFFFFFFFFFFFFFFFFFFFFFFFFFFFFFFFFFFF AND PUSH32 0xE49F40F57C43BCC0EA51DE08718DCC45EFB3325FB9D155E76C2A5AB33BE2DE16 DUP3 PUSH1 0x0 ADD MLOAD DUP5 DUP5 PUSH1 0x40 ADD MLOAD DUP6 PUSH1 0x60 ADD MLOAD TIMESTAMP PUSH1 0x40 MLOAD PUSH2 0x6E2 SWAP6 SWAP5 SWAP4 SWAP3 SWAP2 SWAP1 PUSH2 0x2D2C JUMP JUMPDEST PUSH1 0x40 MLOAD DUP1 SWAP2 SUB SWAP1 LOG2 POP POP JUMP JUMPDEST PUSH2 0x6F6 PUSH2 0x25C5 JUMP JUMPDEST PUSH1 0x0 DUP1 DUP4 PUSH20 0xFFFFFFFFFFFFFFFFFFFFFFFFFFFFFFFFFFFFFFFF AND PUSH20 0xFFFFFFFFFFFFFFFFFFFFFFFFFFFFFFFFFFFFFFFF AND DUP2 MSTORE PUSH1 0x20 ADD SWAP1 DUP2 MSTORE PUSH1 0x20 ADD PUSH1 0x0 KECCAK256 PUSH1 0x40 MLOAD DUP1 PUSH1 0xA0 ADD PUSH1 0x40 MSTORE SWAP1 DUP2 PUSH1 0x0 DUP3 ADD PUSH1 0x0 SWAP1 SLOAD SWAP1 PUSH2 0x100 EXP SWAP1 DIV PUSH1 0xFF AND PUSH1 0x2 DUP2 GT ISZERO PUSH2 0x764 JUMPI PUSH2 0x763 PUSH2 0x3066 JUMP JUMPDEST JUMPDEST PUSH1 0x2 DUP2 GT ISZERO PUSH2 0x776 JUMPI PUSH2 0x775 PUSH2 0x3066 JUMP JUMPDEST JUMPDEST DUP2 MSTORE PUSH1 0x20 ADD PUSH1 0x1 DUP3 ADD DUP1 SLOAD PUSH2 0x78A SWAP1 PUSH2 0x2F8B JUMP JUMPDEST DUP1 PUSH1 0x1F ADD PUSH1 0x20 DUP1 SWAP2 DIV MUL PUSH1 0x20 ADD PUSH1 0x40 MLOAD SWAP1 DUP2 ADD PUSH1 0x40 MSTORE DUP1 SWAP3 SWAP2 SWAP1 DUP2 DUP2 MSTORE PUSH1 0x20 ADD DUP3 DUP1 SLOAD PUSH2 0x7B6 SWAP1 PUSH2 0x2F8B JUMP JUMPDEST DUP1 ISZERO PUSH2 0x803 JUMPI DUP1 PUSH1 0x1F LT PUSH2 0x7D8 JUMPI PUSH2 0x100 DUP1 DUP4 SLOAD DIV MUL DUP4 MSTORE SWAP2 PUSH1 0x20 ADD SWAP2 PUSH2 0x803 JUMP JUMPDEST DUP3 ADD SWAP2 SWAP1 PUSH1 0x0 MSTORE PUSH1 0x20 PUSH1 0x0 KECCAK256 SWAP1 JUMPDEST DUP2 SLOAD DUP2 MSTORE SWAP1 PUSH1 0x1 ADD SWAP1 PUSH1 0x20 ADD DUP1 DUP4 GT PUSH2 0x7E6 JUMPI DUP3 SWAP1 SUB PUSH1 0x1F AND DUP3 ADD SWAP2 JUMPDEST POP POP POP POP POP DUP2 MSTORE PUSH1 0x20 ADD PUSH1 0x2 DUP3 ADD DUP1 SLOAD PUSH2 0x81C SWAP1 PUSH2 0x2F8B JUMP JUMPDEST DUP1 PUSH1 0x1F ADD PUSH1 0x20 DUP1 SWAP2 DIV MUL PUSH1 0x20 ADD PUSH1 0x40 MLOAD SWAP1 DUP2 ADD PUSH1 0x40 MSTORE DUP1 SWAP3 SWAP2 SWAP1 DUP2 DUP2 MSTORE PUSH1 0x20 ADD DUP3 DUP1 SLOAD PUSH2 0x848 SWAP1 PUSH2 0x2F8B JUMP JUMPDEST DUP1 ISZERO PUSH2 0x895 JUMPI DUP1 PUSH1 0x1F LT PUSH2 0x86A JUMPI PUSH2 0x100 DUP1 DUP4 SLOAD DIV MUL DUP4 MSTORE SWAP2 PUSH1 0x20 ADD SWAP2 PUSH2 0x895 JUMP JUMPDEST DUP3 ADD SWAP2 SWAP1 PUSH1 0x0 MSTORE PUSH1 0x20 PUSH1 0x0 KECCAK256 SWAP1 JUMPDEST DUP2 SLOAD DUP2 MSTORE SWAP1 PUSH1 0x1 ADD SWAP1 PUSH1 0x20 ADD DUP1 DUP4 GT PUSH2 0x878 JUMPI DUP3 SWAP1 SUB PUSH1 0x1F AND DUP3 ADD SWAP2 JUMPDEST POP POP POP POP POP DUP2 MSTORE PUSH1 0x20 ADD PUSH1 0x3 DUP3 ADD DUP1 SLOAD PUSH2 0x8AE SWAP1 PUSH2 0x2F8B JUMP JUMPDEST DUP1 PUSH1 0x1F ADD PUSH1 0x20 DUP1 SWAP2 DIV MUL PUSH1 0x20 ADD PUSH1 0x40 MLOAD SWAP1 DUP2 ADD PUSH1 0x40 MSTORE DUP1 SWAP3 SWAP2 SWAP1 DUP2 DUP2 MSTORE PUSH1 0x20 ADD DUP3 DUP1 SLOAD PUSH2 0x8DA SWAP1 PUSH2 0x2F8B JUMP JUMPDEST DUP1 ISZERO PUSH2 0x927 JUMPI DUP1 PUSH1 0x1F LT PUSH2 0x8FC JUMPI PUSH2 0x100 DUP1 DUP4 SLOAD DIV MUL DUP4 MSTORE SWAP2 PUSH1 0x20 ADD SWAP2 PUSH2 0x927 JUMP JUMPDEST DUP3 ADD SWAP2 SWAP1 PUSH1 0x0 MSTORE PUSH1 0x20 PUSH1 0x0 KECCAK256 SWAP1 JUMPDEST DUP2 SLOAD DUP2 MSTORE SWAP1 PUSH1 0x1 ADD SWAP1 PUSH1 0x20 ADD DUP1 DUP4 GT PUSH2 0x90A JUMPI DUP3 SWAP1 SUB PUSH1 0x1F AND DUP3 ADD SWAP2 JUMPDEST POP POP POP POP POP DUP2 MSTORE PUSH1 0x20 ADD PUSH1 0x4 DUP3 ADD PUSH1 0x0 SWAP1 SLOAD SWAP1 PUSH2 0x100 EXP SWAP1 DIV PUSH1 0xFF AND ISZERO ISZERO ISZERO ISZERO DUP2 MSTORE POP POP SWAP1 POP SWAP2 SWAP1 POP JUMP JUMPDEST PUSH1 0x1 DUP2 DUP2 SLOAD DUP2 LT PUSH2 0x962 JUMPI PUSH1 0x0 DUP1 REVERT JUMPDEST SWAP1 PUSH1 0x0 MSTORE PUSH1 0x20 PUSH1 0x0 KECCAK256 ADD PUSH1 0x0 SWAP2 POP SLOAD SWAP1 PUSH2 0x100 EXP SWAP1 DIV PUSH20 0xFFFFFFFFFFFFFFFFFFFFFFFFFFFFFFFFFFFFFFFF AND DUP2 JUMP JUMPDEST PUSH1 0x4 DUP2 DUP2 SLOAD DUP2 LT PUSH2 0x9A1 JUMPI PUSH1 0x0 DUP1 REVERT JUMPDEST SWAP1 PUSH1 0x0 MSTORE PUSH1 0x20 PUSH1 0x0 KECCAK256 ADD PUSH1 0x0 SWAP2 POP SLOAD SWAP1 PUSH2 0x100 EXP SWAP1 DIV PUSH20 0xFFFFFFFFFFFFFFFFFFFFFFFFFFFFFFFFFFFFFFFF AND DUP2 JUMP JUMPDEST PUSH1 0x0 PUSH1 0x20 MSTORE DUP1 PUSH1 0x0 MSTORE PUSH1 0x40 PUSH1 0x0 KECCAK256 PUSH1 0x0 SWAP2 POP SWAP1 POP DUP1 PUSH1 0x0 ADD PUSH1 0x0 SWAP1 SLOAD SWAP1 PUSH2 0x100 EXP SWAP1 DIV PUSH1 0xFF AND SWAP1 DUP1 PUSH1 0x1 ADD DUP1 SLOAD PUSH2 0xA06 SWAP1 PUSH2 0x2F8B JUMP JUMPDEST DUP1 PUSH1 0x1F ADD PUSH1 0x20 DUP1 SWAP2 DIV MUL PUSH1 0x20 ADD PUSH1 0x40 MLOAD SWAP1 DUP2 ADD PUSH1 0x40 MSTORE DUP1 SWAP3 SWAP2 SWAP1 DUP2 DUP2 MSTORE PUSH1 0x20 ADD DUP3 DUP1 SLOAD PUSH2 0xA32 SWAP1 PUSH2 0x2F8B JUMP JUMPDEST DUP1 ISZERO PUSH2 0xA7F JUMPI DUP1 PUSH1 0x1F LT PUSH2 0xA54 JUMPI PUSH2 0x100 DUP1 DUP4 SLOAD DIV MUL DUP4 MSTORE SWAP2 PUSH1 0x20 ADD SWAP2 PUSH2 0xA7F JUMP JUMPDEST DUP3 ADD SWAP2 SWAP1 PUSH1 0x0 MSTORE PUSH1 0x20 PUSH1 0x0 KECCAK256 SWAP1 JUMPDEST DUP2 SLOAD DUP2 MSTORE SWAP1 PUSH1 0x1 ADD SWAP1 PUSH1 0x20 ADD DUP1 DUP4 GT PUSH2 0xA62 JUMPI DUP3 SWAP1 SUB PUSH1 0x1F AND DUP3 ADD SWAP2 JUMPDEST POP POP POP POP POP SWAP1 DUP1 PUSH1 0x2 ADD DUP1 SLOAD PUSH2 0xA94 SWAP1 PUSH2 0x2F8B JUMP JUMPDEST DUP1 PUSH1 0x1F ADD PUSH1 0x20 DUP1 SWAP2 DIV MUL PUSH1 0x20 ADD PUSH1 0x40 MLOAD SWAP1 DUP2 ADD PUSH1 0x40 MSTORE DUP1 SWAP3 SWAP2 SWAP1 DUP2 DUP2 MSTORE PUSH1 0x20 ADD DUP3 DUP1 SLOAD PUSH2 0xAC0 SWAP1 PUSH2 0x2F8B JUMP JUMPDEST DUP1 ISZERO PUSH2 0xB0D JUMPI DUP1 PUSH1 0x1F LT PUSH2 0xAE2 JUMPI PUSH2 0x100 DUP1 DUP4 SLOAD DIV MUL DUP4 MSTORE SWAP2 PUSH1 0x20 ADD SWAP2 PUSH2 0xB0D JUMP JUMPDEST DUP3 ADD SWAP2 SWAP1 PUSH1 0x0 MSTORE PUSH1 0x20 PUSH1 0x0 KECCAK256 SWAP1 JUMPDEST DUP2 SLOAD DUP2 MSTORE SWAP1 PUSH1 0x1 ADD SWAP1 PUSH1 0x20 ADD DUP1 DUP4 GT PUSH2 0xAF0 JUMPI DUP3 SWAP1 SUB PUSH1 0x1F AND DUP3 ADD SWAP2 JUMPDEST POP POP POP POP POP SWAP1 DUP1 PUSH1 0x3 ADD DUP1 SLOAD PUSH2 0xB22 SWAP1 PUSH2 0x2F8B JUMP JUMPDEST DUP1 PUSH1 0x1F ADD PUSH1 0x20 DUP1 SWAP2 DIV MUL PUSH1 0x20 ADD PUSH1 0x40 MLOAD SWAP1 DUP2 ADD PUSH1 0x40 MSTORE DUP1 SWAP3 SWAP2 SWAP1 DUP2 DUP2 MSTORE PUSH1 0x20 ADD DUP3 DUP1 SLOAD PUSH2 0xB4E SWAP1 PUSH2 0x2F8B JUMP JUMPDEST DUP1 ISZERO PUSH2 0xB9B JUMPI DUP1 PUSH1 0x1F LT PUSH2 0xB70 JUMPI PUSH2 0x100 DUP1 DUP4 SLOAD DIV MUL DUP4 MSTORE SWAP2 PUSH1 0x20 ADD SWAP2 PUSH2 0xB9B JUMP JUMPDEST DUP3 ADD SWAP2 SWAP1 PUSH1 0x0 MSTORE PUSH1 0x20 PUSH1 0x0 KECCAK256 SWAP1 JUMPDEST DUP2 SLOAD DUP2 MSTORE SWAP1 PUSH1 0x1 ADD SWAP1 PUSH1 0x20 ADD DUP1 DUP4 GT PUSH2 0xB7E JUMPI DUP3 SWAP1 SUB PUSH1 0x1F AND DUP3 ADD SWAP2 JUMPDEST POP POP POP POP POP SWAP1 DUP1 PUSH1 0x4 ADD PUSH1 0x0 SWAP1 SLOAD SWAP1 PUSH2 0x100 EXP SWAP1 DIV PUSH1 0xFF AND SWAP1 POP DUP6 JUMP JUMPDEST DUP1 PUSH1 0x0 DUP1 CALLER PUSH20 0xFFFFFFFFFFFFFFFFFFFFFFFFFFFFFFFFFFFFFFFF AND PUSH20 0xFFFFFFFFFFFFFFFFFFFFFFFFFFFFFFFFFFFFFFFF AND DUP2 MSTORE PUSH1 0x20 ADD SWAP1 DUP2 MSTORE PUSH1 0x20 ADD PUSH1 0x0 KECCAK256 PUSH1 0x2 ADD SWAP1 DUP1 MLOAD SWAP1 PUSH1 0x20 ADD SWAP1 PUSH2 0xC0D SWAP3 SWAP2 SWAP1 PUSH2 0x253F JUMP JUMPDEST POP PUSH1 0x0 DUP1 PUSH1 0x0 CALLER PUSH20 0xFFFFFFFFFFFFFFFFFFFFFFFFFFFFFFFFFFFFFFFF AND PUSH20 0xFFFFFFFFFFFFFFFFFFFFFFFFFFFFFFFFFFFFFFFF AND DUP2 MSTORE PUSH1 0x20 ADD SWAP1 DUP2 MSTORE PUSH1 0x20 ADD PUSH1 0x0 KECCAK256 PUSH1 0x40 MLOAD DUP1 PUSH1 0xA0 ADD PUSH1 0x40 MSTORE SWAP1 DUP2 PUSH1 0x0 DUP3 ADD PUSH1 0x0 SWAP1 SLOAD SWAP1 PUSH2 0x100 EXP SWAP1 DIV PUSH1 0xFF AND PUSH1 0x2 DUP2 GT ISZERO PUSH2 0xC7E JUMPI PUSH2 0xC7D PUSH2 0x3066 JUMP JUMPDEST JUMPDEST PUSH1 0x2 DUP2 GT ISZERO PUSH2 0xC90 JUMPI PUSH2 0xC8F PUSH2 0x3066 JUMP JUMPDEST JUMPDEST DUP2 MSTORE PUSH1 0x20 ADD PUSH1 0x1 DUP3 ADD DUP1 SLOAD PUSH2 0xCA4 SWAP1 PUSH2 0x2F8B JUMP JUMPDEST DUP1 PUSH1 0x1F ADD PUSH1 0x20 DUP1 SWAP2 DIV MUL PUSH1 0x20 ADD PUSH1 0x40 MLOAD SWAP1 DUP2 ADD PUSH1 0x40 MSTORE DUP1 SWAP3 SWAP2 SWAP1 DUP2 DUP2 MSTORE PUSH1 0x20 ADD DUP3 DUP1 SLOAD PUSH2 0xCD0 SWAP1 PUSH2 0x2F8B JUMP JUMPDEST DUP1 ISZERO PUSH2 0xD1D JUMPI DUP1 PUSH1 0x1F LT PUSH2 0xCF2 JUMPI PUSH2 0x100 DUP1 DUP4 SLOAD DIV MUL DUP4 MSTORE SWAP2 PUSH1 0x20 ADD SWAP2 PUSH2 0xD1D JUMP JUMPDEST DUP3 ADD SWAP2 SWAP1 PUSH1 0x0 MSTORE PUSH1 0x20 PUSH1 0x0 KECCAK256 SWAP1 JUMPDEST DUP2 SLOAD DUP2 MSTORE SWAP1 PUSH1 0x1 ADD SWAP1 PUSH1 0x20 ADD DUP1 DUP4 GT PUSH2 0xD00 JUMPI DUP3 SWAP1 SUB PUSH1 0x1F AND DUP3 ADD SWAP2 JUMPDEST POP POP POP POP POP DUP2 MSTORE PUSH1 0x20 ADD PUSH1 0x2 DUP3 ADD DUP1 SLOAD PUSH2 0xD36 SWAP1 PUSH2 0x2F8B JUMP JUMPDEST DUP1 PUSH1 0x1F ADD PUSH1 0x20 DUP1 SWAP2 DIV MUL PUSH1 0x20 ADD PUSH1 0x40 MLOAD SWAP1 DUP2 ADD PUSH1 0x40 MSTORE DUP1 SWAP3 SWAP2 SWAP1 DUP2 DUP2 MSTORE PUSH1 0x20 ADD DUP3 DUP1 SLOAD PUSH2 0xD62 SWAP1 PUSH2 0x2F8B JUMP JUMPDEST DUP1 ISZERO PUSH2 0xDAF JUMPI DUP1 PUSH1 0x1F LT PUSH2 0xD84 JUMPI PUSH2 0x100 DUP1 DUP4 SLOAD DIV MUL DUP4 MSTORE SWAP2 PUSH1 0x20 ADD SWAP2 PUSH2 0xDAF JUMP JUMPDEST DUP3 ADD SWAP2 SWAP1 PUSH1 0x0 MSTORE PUSH1 0x20 PUSH1 0x0 KECCAK256 SWAP1 JUMPDEST DUP2 SLOAD DUP2 MSTORE SWAP1 PUSH1 0x1 ADD SWAP1 PUSH1 0x20 ADD DUP1 DUP4 GT PUSH2 0xD92 JUMPI DUP3 SWAP1 SUB PUSH1 0x1F AND DUP3 ADD SWAP2 JUMPDEST POP POP POP POP POP DUP2 MSTORE PUSH1 0x20 ADD PUSH1 0x3 DUP3 ADD DUP1 SLOAD PUSH2 0xDC8 SWAP1 PUSH2 0x2F8B JUMP JUMPDEST DUP1 PUSH1 0x1F ADD PUSH1 0x20 DUP1 SWAP2 DIV MUL PUSH1 0x20 ADD PUSH1 0x40 MLOAD SWAP1 DUP2 ADD PUSH1 0x40 MSTORE DUP1 SWAP3 SWAP2 SWAP1 DUP2 DUP2 MSTORE PUSH1 0x20 ADD DUP3 DUP1 SLOAD PUSH2 0xDF4 SWAP1 PUSH2 0x2F8B JUMP JUMPDEST DUP1 ISZERO PUSH2 0xE41 JUMPI DUP1 PUSH1 0x1F LT PUSH2 0xE16 JUMPI PUSH2 0x100 DUP1 DUP4 SLOAD DIV MUL DUP4 MSTORE SWAP2 PUSH1 0x20 ADD SWAP2 PUSH2 0xE41 JUMP JUMPDEST DUP3 ADD SWAP2 SWAP1 PUSH1 0x0 MSTORE PUSH1 0x20 PUSH1 0x0 KECCAK256 SWAP1 JUMPDEST DUP2 SLOAD DUP2 MSTORE SWAP1 PUSH1 0x1 ADD SWAP1 PUSH1 0x20 ADD DUP1 DUP4 GT PUSH2 0xE24 JUMPI DUP3 SWAP1 SUB PUSH1 0x1F AND DUP3 ADD SWAP2 JUMPDEST POP POP POP POP POP DUP2 MSTORE PUSH1 0x20 ADD PUSH1 0x4 DUP3 ADD PUSH1 0x0 SWAP1 SLOAD SWAP1 PUSH2 0x100 EXP SWAP1 DIV PUSH1 0xFF AND ISZERO ISZERO ISZERO ISZERO DUP2 MSTORE POP POP SWAP1 POP CALLER PUSH20 0xFFFFFFFFFFFFFFFFFFFFFFFFFFFFFFFFFFFFFFFF AND PUSH32 0xE49F40F57C43BCC0EA51DE08718DCC45EFB3325FB9D155E76C2A5AB33BE2DE16 DUP3 PUSH1 0x0 ADD MLOAD DUP4 PUSH1 0x20 ADD MLOAD DUP6 DUP6 PUSH1 0x60 ADD MLOAD TIMESTAMP PUSH1 0x40 MLOAD PUSH2 0xEC1 SWAP6 SWAP5 SWAP4 SWAP3 SWAP2 SWAP1 PUSH2 0x2D2C JUMP JUMPDEST PUSH1 0x40 MLOAD DUP1 SWAP2 SUB SWAP1 LOG2 POP POP JUMP JUMPDEST PUSH1 0x60 PUSH1 0x0 PUSH1 0x4 DUP1 SLOAD SWAP1 POP PUSH8 0xFFFFFFFFFFFFFFFF DUP2 GT ISZERO PUSH2 0xEF0 JUMPI PUSH2 0xEEF PUSH2 0x30F3 JUMP JUMPDEST JUMPDEST PUSH1 0x40 MLOAD SWAP1 DUP1 DUP3 MSTORE DUP1 PUSH1 0x20 MUL PUSH1 0x20 ADD DUP3 ADD PUSH1 0x40 MSTORE DUP1 ISZERO PUSH2 0xF29 JUMPI DUP2 PUSH1 0x20 ADD JUMPDEST PUSH2 0xF16 PUSH2 0x25C5 JUMP JUMPDEST DUP2 MSTORE PUSH1 0x20 ADD SWAP1 PUSH1 0x1 SWAP1 SUB SWAP1 DUP2 PUSH2 0xF0E JUMPI SWAP1 POP JUMPDEST POP SWAP1 POP PUSH1 0x0 JUMPDEST PUSH1 0x4 DUP1 SLOAD SWAP1 POP DUP2 LT ISZERO PUSH2 0x1200 JUMPI PUSH1 0x0 DUP1 PUSH1 0x4 DUP4 DUP2 SLOAD DUP2 LT PUSH2 0xF53 JUMPI PUSH2 0xF52 PUSH2 0x30C4 JUMP JUMPDEST JUMPDEST SWAP1 PUSH1 0x0 MSTORE PUSH1 0x20 PUSH1 0x0 KECCAK256 ADD PUSH1 0x0 SWAP1 SLOAD SWAP1 PUSH2 0x100 EXP SWAP1 DIV PUSH20 0xFFFFFFFFFFFFFFFFFFFFFFFFFFFFFFFFFFFFFFFF AND PUSH20 0xFFFFFFFFFFFFFFFFFFFFFFFFFFFFFFFFFFFFFFFF AND PUSH20 0xFFFFFFFFFFFFFFFFFFFFFFFFFFFFFFFFFFFFFFFF AND DUP2 MSTORE PUSH1 0x20 ADD SWAP1 DUP2 MSTORE PUSH1 0x20 ADD PUSH1 0x0 KECCAK256 PUSH1 0x40 MLOAD DUP1 PUSH1 0xA0 ADD PUSH1 0x40 MSTORE SWAP1 DUP2 PUSH1 0x0 DUP3 ADD PUSH1 0x0 SWAP1 SLOAD SWAP1 PUSH2 0x100 EXP SWAP1 DIV PUSH1 0xFF AND PUSH1 0x2 DUP2 GT ISZERO PUSH2 0xFE8 JUMPI PUSH2 0xFE7 PUSH2 0x3066 JUMP JUMPDEST JUMPDEST PUSH1 0x2 DUP2 GT ISZERO PUSH2 0xFFA JUMPI PUSH2 0xFF9 PUSH2 0x3066 JUMP JUMPDEST JUMPDEST DUP2 MSTORE PUSH1 0x20 ADD PUSH1 0x1 DUP3 ADD DUP1 SLOAD PUSH2 0x100E SWAP1 PUSH2 0x2F8B JUMP JUMPDEST DUP1 PUSH1 0x1F ADD PUSH1 0x20 DUP1 SWAP2 DIV MUL PUSH1 0x20 ADD PUSH1 0x40 MLOAD SWAP1 DUP2 ADD PUSH1 0x40 MSTORE DUP1 SWAP3 SWAP2 SWAP1 DUP2 DUP2 MSTORE PUSH1 0x20 ADD DUP3 DUP1 SLOAD PUSH2 0x103A SWAP1 PUSH2 0x2F8B JUMP JUMPDEST DUP1 ISZERO PUSH2 0x1087 JUMPI DUP1 PUSH1 0x1F LT PUSH2 0x105C JUMPI PUSH2 0x100 DUP1 DUP4 SLOAD DIV MUL DUP4 MSTORE SWAP2 PUSH1 0x20 ADD SWAP2 PUSH2 0x1087 JUMP JUMPDEST DUP3 ADD SWAP2 SWAP1 PUSH1 0x0 MSTORE PUSH1 0x20 PUSH1 0x0 KECCAK256 SWAP1 JUMPDEST DUP2 SLOAD DUP2 MSTORE SWAP1 PUSH1 0x1 ADD SWAP1 PUSH1 0x20 ADD DUP1 DUP4 GT PUSH2 0x106A JUMPI DUP3 SWAP1 SUB PUSH1 0x1F AND DUP3 ADD SWAP2 JUMPDEST POP POP POP POP POP DUP2 MSTORE PUSH1 0x20 ADD PUSH1 0x2 DUP3 ADD DUP1 SLOAD PUSH2 0x10A0 SWAP1 PUSH2 0x2F8B JUMP JUMPDEST DUP1 PUSH1 0x1F ADD PUSH1 0x20 DUP1 SWAP2 DIV MUL PUSH1 0x20 ADD PUSH1 0x40 MLOAD SWAP1 DUP2 ADD PUSH1 0x40 MSTORE DUP1 SWAP3 SWAP2 SWAP1 DUP2 DUP2 MSTORE PUSH1 0x20 ADD DUP3 DUP1 SLOAD PUSH2 0x10CC SWAP1 PUSH2 0x2F8B JUMP JUMPDEST DUP1 ISZERO PUSH2 0x1119 JUMPI DUP1 PUSH1 0x1F LT PUSH2 0x10EE JUMPI PUSH2 0x100 DUP1 DUP4 SLOAD DIV MUL DUP4 MSTORE SWAP2 PUSH1 0x20 ADD SWAP2 PUSH2 0x1119 JUMP JUMPDEST DUP3 ADD SWAP2 SWAP1 PUSH1 0x0 MSTORE PUSH1 0x20 PUSH1 0x0 KECCAK256 SWAP1 JUMPDEST DUP2 SLOAD DUP2 MSTORE SWAP1 PUSH1 0x1 ADD SWAP1 PUSH1 0x20 ADD DUP1 DUP4 GT PUSH2 0x10FC JUMPI DUP3 SWAP1 SUB PUSH1 0x1F AND DUP3 ADD SWAP2 JUMPDEST POP POP POP POP POP DUP2 MSTORE PUSH1 0x20 ADD PUSH1 0x3 DUP3 ADD DUP1 SLOAD PUSH2 0x1132 SWAP1 PUSH2 0x2F8B JUMP JUMPDEST DUP1 PUSH1 0x1F ADD PUSH1 0x20 DUP1 SWAP2 DIV MUL PUSH1 0x20 ADD PUSH1 0x40 MLOAD SWAP1 DUP2 ADD PUSH1 0x40 MSTORE DUP1 SWAP3 SWAP2 SWAP1 DUP2 DUP2 MSTORE PUSH1 0x20 ADD DUP3 DUP1 SLOAD PUSH2 0x115E SWAP1 PUSH2 0x2F8B JUMP JUMPDEST DUP1 ISZERO PUSH2 0x11AB JUMPI DUP1 PUSH1 0x1F LT PUSH2 0x1180 JUMPI PUSH2 0x100 DUP1 DUP4 SLOAD DIV MUL DUP4 MSTORE SWAP2 PUSH1 0x20 ADD SWAP2 PUSH2 0x11AB JUMP JUMPDEST DUP3 ADD SWAP2 SWAP1 PUSH1 0x0 MSTORE PUSH1 0x20 PUSH1 0x0 KECCAK256 SWAP1 JUMPDEST DUP2 SLOAD DUP2 MSTORE SWAP1 PUSH1 0x1 ADD SWAP1 PUSH1 0x20 ADD DUP1 DUP4 GT PUSH2 0x118E JUMPI DUP3 SWAP1 SUB PUSH1 0x1F AND DUP3 ADD SWAP2 JUMPDEST POP POP POP POP POP DUP2 MSTORE PUSH1 0x20 ADD PUSH1 0x4 DUP3 ADD PUSH1 0x0 SWAP1 SLOAD SWAP1 PUSH2 0x100 EXP SWAP1 DIV PUSH1 0xFF AND ISZERO ISZERO ISZERO ISZERO DUP2 MSTORE POP POP DUP3 DUP3 DUP2 MLOAD DUP2 LT PUSH2 0x11E2 JUMPI PUSH2 0x11E1 PUSH2 0x30C4 JUMP JUMPDEST JUMPDEST PUSH1 0x20 MUL PUSH1 0x20 ADD ADD DUP2 SWAP1 MSTORE POP DUP1 DUP1 PUSH2 0x11F8 SWAP1 PUSH2 0x2FEE JUMP JUMPDEST SWAP2 POP POP PUSH2 0xF2F JUMP JUMPDEST POP DUP1 SWAP2 POP POP SWAP1 JUMP JUMPDEST PUSH1 0x3 DUP2 DUP2 SLOAD DUP2 LT PUSH2 0x1218 JUMPI PUSH1 0x0 DUP1 REVERT JUMPDEST SWAP1 PUSH1 0x0 MSTORE PUSH1 0x20 PUSH1 0x0 KECCAK256 ADD PUSH1 0x0 SWAP2 POP SLOAD SWAP1 PUSH2 0x100 EXP SWAP1 DIV PUSH20 0xFFFFFFFFFFFFFFFFFFFFFFFFFFFFFFFFFFFFFFFF AND DUP2 JUMP JUMPDEST PUSH1 0x0 DUP1 PUSH1 0x0 CALLER PUSH20 0xFFFFFFFFFFFFFFFFFFFFFFFFFFFFFFFFFFFFFFFF AND PUSH20 0xFFFFFFFFFFFFFFFFFFFFFFFFFFFFFFFFFFFFFFFF AND DUP2 MSTORE PUSH1 0x20 ADD SWAP1 DUP2 MSTORE PUSH1 0x20 ADD PUSH1 0x0 KECCAK256 PUSH1 0x1 ADD DUP1 SLOAD PUSH2 0x1295 SWAP1 PUSH2 0x2F8B JUMP JUMPDEST SWAP1 POP EQ PUSH2 0x12D7 JUMPI PUSH1 0x40 MLOAD PUSH32 0x8C379A000000000000000000000000000000000000000000000000000000000 DUP2 MSTORE PUSH1 0x4 ADD PUSH2 0x12CE SWAP1 PUSH2 0x2D94 JUMP JUMPDEST PUSH1 0x40 MLOAD DUP1 SWAP2 SUB SWAP1 REVERT JUMPDEST PUSH1 0x40 MLOAD DUP1 PUSH1 0xA0 ADD PUSH1 0x40 MSTORE DUP1 DUP8 PUSH1 0x2 DUP2 GT ISZERO PUSH2 0x12F5 JUMPI PUSH2 0x12F4 PUSH2 0x3066 JUMP JUMPDEST JUMPDEST DUP2 MSTORE PUSH1 0x20 ADD DUP7 DUP7 DUP1 DUP1 PUSH1 0x1F ADD PUSH1 0x20 DUP1 SWAP2 DIV MUL PUSH1 0x20 ADD PUSH1 0x40 MLOAD SWAP1 DUP2 ADD PUSH1 0x40 MSTORE DUP1 SWAP4 SWAP3 SWAP2 SWAP1 DUP2 DUP2 MSTORE PUSH1 0x20 ADD DUP4 DUP4 DUP1 DUP3 DUP5 CALLDATACOPY PUSH1 0x0 DUP2 DUP5 ADD MSTORE PUSH1 0x1F NOT PUSH1 0x1F DUP3 ADD AND SWAP1 POP DUP1 DUP4 ADD SWAP3 POP POP POP POP POP POP POP DUP2 MSTORE PUSH1 0x20 ADD DUP5 DUP5 DUP1 DUP1 PUSH1 0x1F ADD PUSH1 0x20 DUP1 SWAP2 DIV MUL PUSH1 0x20 ADD PUSH1 0x40 MLOAD SWAP1 DUP2 ADD PUSH1 0x40 MSTORE DUP1 SWAP4 SWAP3 SWAP2 SWAP1 DUP2 DUP2 MSTORE PUSH1 0x20 ADD DUP4 DUP4 DUP1 DUP3 DUP5 CALLDATACOPY PUSH1 0x0 DUP2 DUP5 ADD MSTORE PUSH1 0x1F NOT PUSH1 0x1F DUP3 ADD AND SWAP1 POP DUP1 DUP4 ADD SWAP3 POP POP POP POP POP POP POP DUP2 MSTORE PUSH1 0x20 ADD DUP3 DUP2 MSTORE PUSH1 0x20 ADD PUSH1 0x1 ISZERO ISZERO DUP2 MSTORE POP PUSH1 0x0 DUP1 CALLER PUSH20 0xFFFFFFFFFFFFFFFFFFFFFFFFFFFFFFFFFFFFFFFF AND PUSH20 0xFFFFFFFFFFFFFFFFFFFFFFFFFFFFFFFFFFFFFFFF AND DUP2 MSTORE PUSH1 0x20 ADD SWAP1 DUP2 MSTORE PUSH1 0x20 ADD PUSH1 0x0 KECCAK256 PUSH1 0x0 DUP3 ADD MLOAD DUP2 PUSH1 0x0 ADD PUSH1 0x0 PUSH2 0x100 EXP DUP2 SLOAD DUP2 PUSH1 0xFF MUL NOT AND SWAP1 DUP4 PUSH1 0x2 DUP2 GT ISZERO PUSH2 0x1404 JUMPI PUSH2 0x1403 PUSH2 0x3066 JUMP JUMPDEST JUMPDEST MUL OR SWAP1 SSTORE POP PUSH1 0x20 DUP3 ADD MLOAD DUP2 PUSH1 0x1 ADD SWAP1 DUP1 MLOAD SWAP1 PUSH1 0x20 ADD SWAP1 PUSH2 0x1425 SWAP3 SWAP2 SWAP1 PUSH2 0x253F JUMP JUMPDEST POP PUSH1 0x40 DUP3 ADD MLOAD DUP2 PUSH1 0x2 ADD SWAP1 DUP1 MLOAD SWAP1 PUSH1 0x20 ADD SWAP1 PUSH2 0x1442 SWAP3 SWAP2 SWAP1 PUSH2 0x253F JUMP JUMPDEST POP PUSH1 0x60 DUP3 ADD MLOAD DUP2 PUSH1 0x3 ADD SWAP1 DUP1 MLOAD SWAP1 PUSH1 0x20 ADD SWAP1 PUSH2 0x145F SWAP3 SWAP2 SWAP1 PUSH2 0x253F JUMP JUMPDEST POP PUSH1 0x80 DUP3 ADD MLOAD DUP2 PUSH1 0x4 ADD PUSH1 0x0 PUSH2 0x100 EXP DUP2 SLOAD DUP2 PUSH1 0xFF MUL NOT AND SWAP1 DUP4 ISZERO ISZERO MUL OR SWAP1 SSTORE POP SWAP1 POP POP PUSH1 0x1 CALLER SWAP1 DUP1 PUSH1 0x1 DUP2 SLOAD ADD DUP1 DUP3 SSTORE DUP1 SWAP2 POP POP PUSH1 0x1 SWAP1 SUB SWAP1 PUSH1 0x0 MSTORE PUSH1 0x20 PUSH1 0x0 KECCAK256 ADD PUSH1 0x0 SWAP1 SWAP2 SWAP1 SWAP2 SWAP1 SWAP2 PUSH2 0x100 EXP DUP2 SLOAD DUP2 PUSH20 0xFFFFFFFFFFFFFFFFFFFFFFFFFFFFFFFFFFFFFFFF MUL NOT AND SWAP1 DUP4 PUSH20 0xFFFFFFFFFFFFFFFFFFFFFFFFFFFFFFFFFFFFFFFF AND MUL OR SWAP1 SSTORE POP PUSH1 0x0 PUSH1 0x2 DUP2 GT ISZERO PUSH2 0x14FA JUMPI PUSH2 0x14F9 PUSH2 0x3066 JUMP JUMPDEST JUMPDEST DUP7 PUSH1 0x2 DUP2 GT ISZERO PUSH2 0x150D JUMPI PUSH2 0x150C PUSH2 0x3066 JUMP JUMPDEST JUMPDEST EQ ISZERO PUSH2 0x1577 JUMPI PUSH1 0x2 CALLER SWAP1 DUP1 PUSH1 0x1 DUP2 SLOAD ADD DUP1 DUP3 SSTORE DUP1 SWAP2 POP POP PUSH1 0x1 SWAP1 SUB SWAP1 PUSH1 0x0 MSTORE PUSH1 0x20 PUSH1 0x0 KECCAK256 ADD PUSH1 0x0 SWAP1 SWAP2 SWAP1 SWAP2 SWAP1 SWAP2 PUSH2 0x100 EXP DUP2 SLOAD DUP2 PUSH20 0xFFFFFFFFFFFFFFFFFFFFFFFFFFFFFFFFFFFFFFFF MUL NOT AND SWAP1 DUP4 PUSH20 0xFFFFFFFFFFFFFFFFFFFFFFFFFFFFFFFFFFFFFFFF AND MUL OR SWAP1 SSTORE POP JUMPDEST PUSH1 0x1 PUSH1 0x2 DUP2 GT ISZERO PUSH2 0x158B JUMPI PUSH2 0x158A PUSH2 0x3066 JUMP JUMPDEST JUMPDEST DUP7 PUSH1 0x2 DUP2 GT ISZERO PUSH2 0x159E JUMPI PUSH2 0x159D PUSH2 0x3066 JUMP JUMPDEST JUMPDEST EQ ISZERO PUSH2 0x1608 JUMPI PUSH1 0x3 CALLER SWAP1 DUP1 PUSH1 0x1 DUP2 SLOAD ADD DUP1 DUP3 SSTORE DUP1 SWAP2 POP POP PUSH1 0x1 SWAP1 SUB SWAP1 PUSH1 0x0 MSTORE PUSH1 0x20 PUSH1 0x0 KECCAK256 ADD PUSH1 0x0 SWAP1 SWAP2 SWAP1 SWAP2 SWAP1 SWAP2 PUSH2 0x100 EXP DUP2 SLOAD DUP2 PUSH20 0xFFFFFFFFFFFFFFFFFFFFFFFFFFFFFFFFFFFFFFFF MUL NOT AND SWAP1 DUP4 PUSH20 0xFFFFFFFFFFFFFFFFFFFFFFFFFFFFFFFFFFFFFFFF AND MUL OR SWAP1 SSTORE POP JUMPDEST PUSH1 0x2 DUP1 DUP2 GT ISZERO PUSH2 0x161B JUMPI PUSH2 0x161A PUSH2 0x3066 JUMP JUMPDEST JUMPDEST DUP7 PUSH1 0x2 DUP2 GT ISZERO PUSH2 0x162E JUMPI PUSH2 0x162D PUSH2 0x3066 JUMP JUMPDEST JUMPDEST EQ ISZERO PUSH2 0x1698 JUMPI PUSH1 0x4 CALLER SWAP1 DUP1 PUSH1 0x1 DUP2 SLOAD ADD DUP1 DUP3 SSTORE DUP1 SWAP2 POP POP PUSH1 0x1 SWAP1 SUB SWAP1 PUSH1 0x0 MSTORE PUSH1 0x20 PUSH1 0x0 KECCAK256 ADD PUSH1 0x0 SWAP1 SWAP2 SWAP1 SWAP2 SWAP1 SWAP2 PUSH2 0x100 EXP DUP2 SLOAD DUP2 PUSH20 0xFFFFFFFFFFFFFFFFFFFFFFFFFFFFFFFFFFFFFFFF MUL NOT AND SWAP1 DUP4 PUSH20 0xFFFFFFFFFFFFFFFFFFFFFFFFFFFFFFFFFFFFFFFF AND MUL OR SWAP1 SSTORE POP JUMPDEST CALLER PUSH20 0xFFFFFFFFFFFFFFFFFFFFFFFFFFFFFFFFFFFFFFFF AND PUSH32 0xE49F40F57C43BCC0EA51DE08718DCC45EFB3325FB9D155E76C2A5AB33BE2DE16 DUP8 DUP8 DUP8 DUP8 DUP8 DUP8 TIMESTAMP PUSH1 0x40 MLOAD PUSH2 0x16EA SWAP8 SWAP7 SWAP6 SWAP5 SWAP4 SWAP3 SWAP2 SWAP1 PUSH2 0x2C58 JUMP JUMPDEST PUSH1 0x40 MLOAD DUP1 SWAP2 SUB SWAP1 LOG2 POP POP POP POP POP POP JUMP JUMPDEST PUSH1 0x60 DUP1 PUSH1 0x0 PUSH1 0x2 DUP1 SLOAD SWAP1 POP PUSH8 0xFFFFFFFFFFFFFFFF DUP2 GT ISZERO PUSH2 0x171E JUMPI PUSH2 0x171D PUSH2 0x30F3 JUMP JUMPDEST JUMPDEST PUSH1 0x40 MLOAD SWAP1 DUP1 DUP3 MSTORE DUP1 PUSH1 0x20 MUL PUSH1 0x20 ADD DUP3 ADD PUSH1 0x40 MSTORE DUP1 ISZERO PUSH2 0x174C JUMPI DUP2 PUSH1 0x20 ADD PUSH1 0x20 DUP3 MUL DUP1 CALLDATASIZE DUP4 CALLDATACOPY DUP1 DUP3 ADD SWAP2 POP POP SWAP1 POP JUMPDEST POP SWAP1 POP PUSH1 0x0 PUSH1 0x2 DUP1 SLOAD SWAP1 POP PUSH8 0xFFFFFFFFFFFFFFFF DUP2 GT ISZERO PUSH2 0x1770 JUMPI PUSH2 0x176F PUSH2 0x30F3 JUMP JUMPDEST JUMPDEST PUSH1 0x40 MLOAD SWAP1 DUP1 DUP3 MSTORE DUP1 PUSH1 0x20 MUL PUSH1 0x20 ADD DUP3 ADD PUSH1 0x40 MSTORE DUP1 ISZERO PUSH2 0x17A9 JUMPI DUP2 PUSH1 0x20 ADD JUMPDEST PUSH2 0x1796 PUSH2 0x25C5 JUMP JUMPDEST DUP2 MSTORE PUSH1 0x20 ADD SWAP1 PUSH1 0x1 SWAP1 SUB SWAP1 DUP2 PUSH2 0x178E JUMPI SWAP1 POP JUMPDEST POP SWAP1 POP PUSH1 0x0 JUMPDEST PUSH1 0x2 DUP1 SLOAD SWAP1 POP DUP2 LT ISZERO PUSH2 0x1ADA JUMPI PUSH1 0x0 PUSH1 0x2 DUP3 DUP2 SLOAD DUP2 LT PUSH2 0x17D2 JUMPI PUSH2 0x17D1 PUSH2 0x30C4 JUMP JUMPDEST JUMPDEST SWAP1 PUSH1 0x0 MSTORE PUSH1 0x20 PUSH1 0x0 KECCAK256 ADD PUSH1 0x0 SWAP1 SLOAD SWAP1 PUSH2 0x100 EXP SWAP1 DIV PUSH20 0xFFFFFFFFFFFFFFFFFFFFFFFFFFFFFFFFFFFFFFFF AND SWAP1 POP PUSH1 0x0 DUP1 PUSH1 0x0 DUP4 PUSH20 0xFFFFFFFFFFFFFFFFFFFFFFFFFFFFFFFFFFFFFFFF AND PUSH20 0xFFFFFFFFFFFFFFFFFFFFFFFFFFFFFFFFFFFFFFFF AND DUP2 MSTORE PUSH1 0x20 ADD SWAP1 DUP2 MSTORE PUSH1 0x20 ADD PUSH1 0x0 KECCAK256 PUSH1 0x40 MLOAD DUP1 PUSH1 0xA0 ADD PUSH1 0x40 MSTORE SWAP1 DUP2 PUSH1 0x0 DUP3 ADD PUSH1 0x0 SWAP1 SLOAD SWAP1 PUSH2 0x100 EXP SWAP1 DIV PUSH1 0xFF AND PUSH1 0x2 DUP2 GT ISZERO PUSH2 0x186F JUMPI PUSH2 0x186E PUSH2 0x3066 JUMP JUMPDEST JUMPDEST PUSH1 0x2 DUP2 GT ISZERO PUSH2 0x1881 JUMPI PUSH2 0x1880 PUSH2 0x3066 JUMP JUMPDEST JUMPDEST DUP2 MSTORE PUSH1 0x20 ADD PUSH1 0x1 DUP3 ADD DUP1 SLOAD PUSH2 0x1895 SWAP1 PUSH2 0x2F8B JUMP JUMPDEST DUP1 PUSH1 0x1F ADD PUSH1 0x20 DUP1 SWAP2 DIV MUL PUSH1 0x20 ADD PUSH1 0x40 MLOAD SWAP1 DUP2 ADD PUSH1 0x40 MSTORE DUP1 SWAP3 SWAP2 SWAP1 DUP2 DUP2 MSTORE PUSH1 0x20 ADD DUP3 DUP1 SLOAD PUSH2 0x18C1 SWAP1 PUSH2 0x2F8B JUMP JUMPDEST DUP1 ISZERO PUSH2 0x190E JUMPI DUP1 PUSH1 0x1F LT PUSH2 0x18E3 JUMPI PUSH2 0x100 DUP1 DUP4 SLOAD DIV MUL DUP4 MSTORE SWAP2 PUSH1 0x20 ADD SWAP2 PUSH2 0x190E JUMP JUMPDEST DUP3 ADD SWAP2 SWAP1 PUSH1 0x0 MSTORE PUSH1 0x20 PUSH1 0x0 KECCAK256 SWAP1 JUMPDEST DUP2 SLOAD DUP2 MSTORE SWAP1 PUSH1 0x1 ADD SWAP1 PUSH1 0x20 ADD DUP1 DUP4 GT PUSH2 0x18F1 JUMPI DUP3 SWAP1 SUB PUSH1 0x1F AND DUP3 ADD SWAP2 JUMPDEST POP POP POP POP POP DUP2 MSTORE PUSH1 0x20 ADD PUSH1 0x2 DUP3 ADD DUP1 SLOAD PUSH2 0x1927 SWAP1 PUSH2 0x2F8B JUMP JUMPDEST DUP1 PUSH1 0x1F ADD PUSH1 0x20 DUP1 SWAP2 DIV MUL PUSH1 0x20 ADD PUSH1 0x40 MLOAD SWAP1 DUP2 ADD PUSH1 0x40 MSTORE DUP1 SWAP3 SWAP2 SWAP1 DUP2 DUP2 MSTORE PUSH1 0x20 ADD DUP3 DUP1 SLOAD PUSH2 0x1953 SWAP1 PUSH2 0x2F8B JUMP JUMPDEST DUP1 ISZERO PUSH2 0x19A0 JUMPI DUP1 PUSH1 0x1F LT PUSH2 0x1975 JUMPI PUSH2 0x100 DUP1 DUP4 SLOAD DIV MUL DUP4 MSTORE SWAP2 PUSH1 0x20 ADD SWAP2 PUSH2 0x19A0 JUMP JUMPDEST DUP3 ADD SWAP2 SWAP1 PUSH1 0x0 MSTORE PUSH1 0x20 PUSH1 0x0 KECCAK256 SWAP1 JUMPDEST DUP2 SLOAD DUP2 MSTORE SWAP1 PUSH1 0x1 ADD SWAP1 PUSH1 0x20 ADD DUP1 DUP4 GT PUSH2 0x1983 JUMPI DUP3 SWAP1 SUB PUSH1 0x1F AND DUP3 ADD SWAP2 JUMPDEST POP POP POP POP POP DUP2 MSTORE PUSH1 0x20 ADD PUSH1 0x3 DUP3 ADD DUP1 SLOAD PUSH2 0x19B9 SWAP1 PUSH2 0x2F8B JUMP JUMPDEST DUP1 PUSH1 0x1F ADD PUSH1 0x20 DUP1 SWAP2 DIV MUL PUSH1 0x20 ADD PUSH1 0x40 MLOAD SWAP1 DUP2 ADD PUSH1 0x40 MSTORE DUP1 SWAP3 SWAP2 SWAP1 DUP2 DUP2 MSTORE PUSH1 0x20 ADD DUP3 DUP1 SLOAD PUSH2 0x19E5 SWAP1 PUSH2 0x2F8B JUMP JUMPDEST DUP1 ISZERO PUSH2 0x1A32 JUMPI DUP1 PUSH1 0x1F LT PUSH2 0x1A07 JUMPI PUSH2 0x100 DUP1 DUP4 SLOAD DIV MUL DUP4 MSTORE SWAP2 PUSH1 0x20 ADD SWAP2 PUSH2 0x1A32 JUMP JUMPDEST DUP3 ADD SWAP2 SWAP1 PUSH1 0x0 MSTORE PUSH1 0x20 PUSH1 0x0 KECCAK256 SWAP1 JUMPDEST DUP2 SLOAD DUP2 MSTORE SWAP1 PUSH1 0x1 ADD SWAP1 PUSH1 0x20 ADD DUP1 DUP4 GT PUSH2 0x1A15 JUMPI DUP3 SWAP1 SUB PUSH1 0x1F AND DUP3 ADD SWAP2 JUMPDEST POP POP POP POP POP DUP2 MSTORE PUSH1 0x20 ADD PUSH1 0x4 DUP3 ADD PUSH1 0x0 SWAP1 SLOAD SWAP1 PUSH2 0x100 EXP SWAP1 DIV PUSH1 0xFF AND ISZERO ISZERO ISZERO ISZERO DUP2 MSTORE POP POP SWAP1 POP DUP2 DUP6 DUP5 DUP2 MLOAD DUP2 LT PUSH2 0x1A6C JUMPI PUSH2 0x1A6B PUSH2 0x30C4 JUMP JUMPDEST JUMPDEST PUSH1 0x20 MUL PUSH1 0x20 ADD ADD SWAP1 PUSH20 0xFFFFFFFFFFFFFFFFFFFFFFFFFFFFFFFFFFFFFFFF AND SWAP1 DUP2 PUSH20 0xFFFFFFFFFFFFFFFFFFFFFFFFFFFFFFFFFFFFFFFF AND DUP2 MSTORE POP POP DUP1 DUP5 DUP5 DUP2 MLOAD DUP2 LT PUSH2 0x1ABA JUMPI PUSH2 0x1AB9 PUSH2 0x30C4 JUMP JUMPDEST JUMPDEST PUSH1 0x20 MUL PUSH1 0x20 ADD ADD DUP2 SWAP1 MSTORE POP POP POP DUP1 DUP1 PUSH2 0x1AD2 SWAP1 PUSH2 0x2FEE JUMP JUMPDEST SWAP2 POP POP PUSH2 0x17AF JUMP JUMPDEST POP DUP2 DUP2 SWAP4 POP SWAP4 POP POP POP SWAP1 SWAP2 JUMP JUMPDEST PUSH1 0x60 PUSH1 0x2 DUP1 SLOAD DUP1 PUSH1 0x20 MUL PUSH1 0x20 ADD PUSH1 0x40 MLOAD SWAP1 DUP2 ADD PUSH1 0x40 MSTORE DUP1 SWAP3 SWAP2 SWAP1 DUP2 DUP2 MSTORE PUSH1 0x20 ADD DUP3 DUP1 SLOAD DUP1 ISZERO PUSH2 0x1B6B JUMPI PUSH1 0x20 MUL DUP3 ADD SWAP2 SWAP1 PUSH1 0x0 MSTORE PUSH1 0x20 PUSH1 0x0 KECCAK256 SWAP1 JUMPDEST DUP2 PUSH1 0x0 SWAP1 SLOAD SWAP1 PUSH2 0x100 EXP SWAP1 DIV PUSH20 0xFFFFFFFFFFFFFFFFFFFFFFFFFFFFFFFFFFFFFFFF AND PUSH20 0xFFFFFFFFFFFFFFFFFFFFFFFFFFFFFFFFFFFFFFFF AND DUP2 MSTORE PUSH1 0x20 ADD SWAP1 PUSH1 0x1 ADD SWAP1 DUP1 DUP4 GT PUSH2 0x1B21 JUMPI JUMPDEST POP POP POP POP POP SWAP1 POP SWAP1 JUMP JUMPDEST PUSH1 0x2 DUP2 DUP2 SLOAD DUP2 LT PUSH2 0x1B85 JUMPI PUSH1 0x0 DUP1 REVERT JUMPDEST SWAP1 PUSH1 0x0 MSTORE PUSH1 0x20 PUSH1 0x0 KECCAK256 ADD PUSH1 0x0 SWAP2 POP SLOAD SWAP1 PUSH2 0x100 EXP SWAP1 DIV PUSH20 0xFFFFFFFFFFFFFFFFFFFFFFFFFFFFFFFFFFFFFFFF AND DUP2 JUMP JUMPDEST DUP1 PUSH1 0x0 DUP1 CALLER PUSH20 0xFFFFFFFFFFFFFFFFFFFFFFFFFFFFFFFFFFFFFFFF AND PUSH20 0xFFFFFFFFFFFFFFFFFFFFFFFFFFFFFFFFFFFFFFFF AND DUP2 MSTORE PUSH1 0x20 ADD SWAP1 DUP2 MSTORE PUSH1 0x20 ADD PUSH1 0x0 KECCAK256 PUSH1 0x3 ADD SWAP1 DUP1 MLOAD SWAP1 PUSH1 0x20 ADD SWAP1 PUSH2 0x1C09 SWAP3 SWAP2 SWAP1 PUSH2 0x253F JUMP JUMPDEST POP PUSH1 0x0 DUP1 PUSH1 0x0 CALLER PUSH20 0xFFFFFFFFFFFFFFFFFFFFFFFFFFFFFFFFFFFFFFFF AND PUSH20 0xFFFFFFFFFFFFFFFFFFFFFFFFFFFFFFFFFFFFFFFF AND DUP2 MSTORE PUSH1 0x20 ADD SWAP1 DUP2 MSTORE PUSH1 0x20 ADD PUSH1 0x0 KECCAK256 PUSH1 0x40 MLOAD DUP1 PUSH1 0xA0 ADD PUSH1 0x40 MSTORE SWAP1 DUP2 PUSH1 0x0 DUP3 ADD PUSH1 0x0 SWAP1 SLOAD SWAP1 PUSH2 0x100 EXP SWAP1 DIV PUSH1 0xFF AND PUSH1 0x2 DUP2 GT ISZERO PUSH2 0x1C7A JUMPI PUSH2 0x1C79 PUSH2 0x3066 JUMP JUMPDEST JUMPDEST PUSH1 0x2 DUP2 GT ISZERO PUSH2 0x1C8C JUMPI PUSH2 0x1C8B PUSH2 0x3066 JUMP JUMPDEST JUMPDEST DUP2 MSTORE PUSH1 0x20 ADD PUSH1 0x1 DUP3 ADD DUP1 SLOAD PUSH2 0x1CA0 SWAP1 PUSH2 0x2F8B JUMP JUMPDEST DUP1 PUSH1 0x1F ADD PUSH1 0x20 DUP1 SWAP2 DIV MUL PUSH1 0x20 ADD PUSH1 0x40 MLOAD SWAP1 DUP2 ADD PUSH1 0x40 MSTORE DUP1 SWAP3 SWAP2 SWAP1 DUP2 DUP2 MSTORE PUSH1 0x20 ADD DUP3 DUP1 SLOAD PUSH2 0x1CCC SWAP1 PUSH2 0x2F8B JUMP JUMPDEST DUP1 ISZERO PUSH2 0x1D19 JUMPI DUP1 PUSH1 0x1F LT PUSH2 0x1CEE JUMPI PUSH2 0x100 DUP1 DUP4 SLOAD DIV MUL DUP4 MSTORE SWAP2 PUSH1 0x20 ADD SWAP2 PUSH2 0x1D19 JUMP JUMPDEST DUP3 ADD SWAP2 SWAP1 PUSH1 0x0 MSTORE PUSH1 0x20 PUSH1 0x0 KECCAK256 SWAP1 JUMPDEST DUP2 SLOAD DUP2 MSTORE SWAP1 PUSH1 0x1 ADD SWAP1 PUSH1 0x20 ADD DUP1 DUP4 GT PUSH2 0x1CFC JUMPI DUP3 SWAP1 SUB PUSH1 0x1F AND DUP3 ADD SWAP2 JUMPDEST POP POP POP POP POP DUP2 MSTORE PUSH1 0x20 ADD PUSH1 0x2 DUP3 ADD DUP1 SLOAD PUSH2 0x1D32 SWAP1 PUSH2 0x2F8B JUMP JUMPDEST DUP1 PUSH1 0x1F ADD PUSH1 0x20 DUP1 SWAP2 DIV MUL PUSH1 0x20 ADD PUSH1 0x40 MLOAD SWAP1 DUP2 ADD PUSH1 0x40 MSTORE DUP1 SWAP3 SWAP2 SWAP1 DUP2 DUP2 MSTORE PUSH1 0x20 ADD DUP3 DUP1 SLOAD PUSH2 0x1D5E SWAP1 PUSH2 0x2F8B JUMP JUMPDEST DUP1 ISZERO PUSH2 0x1DAB JUMPI DUP1 PUSH1 0x1F LT PUSH2 0x1D80 JUMPI PUSH2 0x100 DUP1 DUP4 SLOAD DIV MUL DUP4 MSTORE SWAP2 PUSH1 0x20 ADD SWAP2 PUSH2 0x1DAB JUMP JUMPDEST DUP3 ADD SWAP2 SWAP1 PUSH1 0x0 MSTORE PUSH1 0x20 PUSH1 0x0 KECCAK256 SWAP1 JUMPDEST DUP2 SLOAD DUP2 MSTORE SWAP1 PUSH1 0x1 ADD SWAP1 PUSH1 0x20 ADD DUP1 DUP4 GT PUSH2 0x1D8E JUMPI DUP3 SWAP1 SUB PUSH1 0x1F AND DUP3 ADD SWAP2 JUMPDEST POP POP POP POP POP DUP2 MSTORE PUSH1 0x20 ADD PUSH1 0x3 DUP3 ADD DUP1 SLOAD PUSH2 0x1DC4 SWAP1 PUSH2 0x2F8B JUMP JUMPDEST DUP1 PUSH1 0x1F ADD PUSH1 0x20 DUP1 SWAP2 DIV MUL PUSH1 0x20 ADD PUSH1 0x40 MLOAD SWAP1 DUP2 ADD PUSH1 0x40 MSTORE DUP1 SWAP3 SWAP2 SWAP1 DUP2 DUP2 MSTORE PUSH1 0x20 ADD DUP3 DUP1 SLOAD PUSH2 0x1DF0 SWAP1 PUSH2 0x2F8B JUMP JUMPDEST DUP1 ISZERO PUSH2 0x1E3D JUMPI DUP1 PUSH1 0x1F LT PUSH2 0x1E12 JUMPI PUSH2 0x100 DUP1 DUP4 SLOAD DIV MUL DUP4 MSTORE SWAP2 PUSH1 0x20 ADD SWAP2 PUSH2 0x1E3D JUMP JUMPDEST DUP3 ADD SWAP2 SWAP1 PUSH1 0x0 MSTORE PUSH1 0x20 PUSH1 0x0 KECCAK256 SWAP1 JUMPDEST DUP2 SLOAD DUP2 MSTORE SWAP1 PUSH1 0x1 ADD SWAP1 PUSH1 0x20 ADD DUP1 DUP4 GT PUSH2 0x1E20 JUMPI DUP3 SWAP1 SUB PUSH1 0x1F AND DUP3 ADD SWAP2 JUMPDEST POP POP POP POP POP DUP2 MSTORE PUSH1 0x20 ADD PUSH1 0x4 DUP3 ADD PUSH1 0x0 SWAP1 SLOAD SWAP1 PUSH2 0x100 EXP SWAP1 DIV PUSH1 0xFF AND ISZERO ISZERO ISZERO ISZERO DUP2 MSTORE POP POP SWAP1 POP CALLER PUSH20 0xFFFFFFFFFFFFFFFFFFFFFFFFFFFFFFFFFFFFFFFF AND PUSH32 0xE49F40F57C43BCC0EA51DE08718DCC45EFB3325FB9D155E76C2A5AB33BE2DE16 DUP3 PUSH1 0x0 ADD MLOAD DUP4 PUSH1 0x20 ADD MLOAD DUP5 PUSH1 0x60 ADD MLOAD DUP7 TIMESTAMP PUSH1 0x40 MLOAD PUSH2 0x1EBD SWAP6 SWAP5 SWAP4 SWAP3 SWAP2 SWAP1 PUSH2 0x2D2C JUMP JUMPDEST PUSH1 0x40 MLOAD DUP1 SWAP2 SUB SWAP1 LOG2 POP POP JUMP JUMPDEST PUSH1 0x60 PUSH1 0x0 PUSH1 0x3 DUP1 SLOAD SWAP1 POP PUSH8 0xFFFFFFFFFFFFFFFF DUP2 GT ISZERO PUSH2 0x1EEC JUMPI PUSH2 0x1EEB PUSH2 0x30F3 JUMP JUMPDEST JUMPDEST PUSH1 0x40 MLOAD SWAP1 DUP1 DUP3 MSTORE DUP1 PUSH1 0x20 MUL PUSH1 0x20 ADD DUP3 ADD PUSH1 0x40 MSTORE DUP1 ISZERO PUSH2 0x1F25 JUMPI DUP2 PUSH1 0x20 ADD JUMPDEST PUSH2 0x1F12 PUSH2 0x25C5 JUMP JUMPDEST DUP2 MSTORE PUSH1 0x20 ADD SWAP1 PUSH1 0x1 SWAP1 SUB SWAP1 DUP2 PUSH2 0x1F0A JUMPI SWAP1 POP JUMPDEST POP SWAP1 POP PUSH1 0x0 JUMPDEST PUSH1 0x3 DUP1 SLOAD SWAP1 POP DUP2 LT ISZERO PUSH2 0x21FC JUMPI PUSH1 0x0 DUP1 PUSH1 0x3 DUP4 DUP2 SLOAD DUP2 LT PUSH2 0x1F4F JUMPI PUSH2 0x1F4E PUSH2 0x30C4 JUMP JUMPDEST JUMPDEST SWAP1 PUSH1 0x0 MSTORE PUSH1 0x20 PUSH1 0x0 KECCAK256 ADD PUSH1 0x0 SWAP1 SLOAD SWAP1 PUSH2 0x100 EXP SWAP1 DIV PUSH20 0xFFFFFFFFFFFFFFFFFFFFFFFFFFFFFFFFFFFFFFFF AND PUSH20 0xFFFFFFFFFFFFFFFFFFFFFFFFFFFFFFFFFFFFFFFF AND PUSH20 0xFFFFFFFFFFFFFFFFFFFFFFFFFFFFFFFFFFFFFFFF AND DUP2 MSTORE PUSH1 0x20 ADD SWAP1 DUP2 MSTORE PUSH1 0x20 ADD PUSH1 0x0 KECCAK256 PUSH1 0x40 MLOAD DUP1 PUSH1 0xA0 ADD PUSH1 0x40 MSTORE SWAP1 DUP2 PUSH1 0x0 DUP3 ADD PUSH1 0x0 SWAP1 SLOAD SWAP1 PUSH2 0x100 EXP SWAP1 DIV PUSH1 0xFF AND PUSH1 0x2 DUP2 GT ISZERO PUSH2 0x1FE4 JUMPI PUSH2 0x1FE3 PUSH2 0x3066 JUMP JUMPDEST JUMPDEST PUSH1 0x2 DUP2 GT ISZERO PUSH2 0x1FF6 JUMPI PUSH2 0x1FF5 PUSH2 0x3066 JUMP JUMPDEST JUMPDEST DUP2 MSTORE PUSH1 0x20 ADD PUSH1 0x1 DUP3 ADD DUP1 SLOAD PUSH2 0x200A SWAP1 PUSH2 0x2F8B JUMP JUMPDEST DUP1 PUSH1 0x1F ADD PUSH1 0x20 DUP1 SWAP2 DIV MUL PUSH1 0x20 ADD PUSH1 0x40 MLOAD SWAP1 DUP2 ADD PUSH1 0x40 MSTORE DUP1 SWAP3 SWAP2 SWAP1 DUP2 DUP2 MSTORE PUSH1 0x20 ADD DUP3 DUP1 SLOAD PUSH2 0x2036 SWAP1 PUSH2 0x2F8B JUMP JUMPDEST DUP1 ISZERO PUSH2 0x2083 JUMPI DUP1 PUSH1 0x1F LT PUSH2 0x2058 JUMPI PUSH2 0x100 DUP1 DUP4 SLOAD DIV MUL DUP4 MSTORE SWAP2 PUSH1 0x20 ADD SWAP2 PUSH2 0x2083 JUMP JUMPDEST DUP3 ADD SWAP2 SWAP1 PUSH1 0x0 MSTORE PUSH1 0x20 PUSH1 0x0 KECCAK256 SWAP1 JUMPDEST DUP2 SLOAD DUP2 MSTORE SWAP1 PUSH1 0x1 ADD SWAP1 PUSH1 0x20 ADD DUP1 DUP4 GT PUSH2 0x2066 JUMPI DUP3 SWAP1 SUB PUSH1 0x1F AND DUP3 ADD SWAP2 JUMPDEST POP POP POP POP POP DUP2 MSTORE PUSH1 0x20 ADD PUSH1 0x2 DUP3 ADD DUP1 SLOAD PUSH2 0x209C SWAP1 PUSH2 0x2F8B JUMP JUMPDEST DUP1 PUSH1 0x1F ADD PUSH1 0x20 DUP1 SWAP2 DIV MUL PUSH1 0x20 ADD PUSH1 0x40 MLOAD SWAP1 DUP2 ADD PUSH1 0x40 MSTORE DUP1 SWAP3 SWAP2 SWAP1 DUP2 DUP2 MSTORE PUSH1 0x20 ADD DUP3 DUP1 SLOAD PUSH2 0x20C8 SWAP1 PUSH2 0x2F8B JUMP JUMPDEST DUP1 ISZERO PUSH2 0x2115 JUMPI DUP1 PUSH1 0x1F LT PUSH2 0x20EA JUMPI PUSH2 0x100 DUP1 DUP4 SLOAD DIV MUL DUP4 MSTORE SWAP2 PUSH1 0x20 ADD SWAP2 PUSH2 0x2115 JUMP JUMPDEST DUP3 ADD SWAP2 SWAP1 PUSH1 0x0 MSTORE PUSH1 0x20 PUSH1 0x0 KECCAK256 SWAP1 JUMPDEST DUP2 SLOAD DUP2 MSTORE SWAP1 PUSH1 0x1 ADD SWAP1 PUSH1 0x20 ADD DUP1 DUP4 GT PUSH2 0x20F8 JUMPI DUP3 SWAP1 SUB PUSH1 0x1F AND DUP3 ADD SWAP2 JUMPDEST POP POP POP POP POP DUP2 MSTORE PUSH1 0x20 ADD PUSH1 0x3 DUP3 ADD DUP1 SLOAD PUSH2 0x212E SWAP1 PUSH2 0x2F8B JUMP JUMPDEST DUP1 PUSH1 0x1F ADD PUSH1 0x20 DUP1 SWAP2 DIV MUL PUSH1 0x20 ADD PUSH1 0x40 MLOAD SWAP1 DUP2 ADD PUSH1 0x40 MSTORE DUP1 SWAP3 SWAP2 SWAP1 DUP2 DUP2 MSTORE PUSH1 0x20 ADD DUP3 DUP1 SLOAD PUSH2 0x215A SWAP1 PUSH2 0x2F8B JUMP JUMPDEST DUP1 ISZERO PUSH2 0x21A7 JUMPI DUP1 PUSH1 0x1F LT PUSH2 0x217C JUMPI PUSH2 0x100 DUP1 DUP4 SLOAD DIV MUL DUP4 MSTORE SWAP2 PUSH1 0x20 ADD SWAP2 PUSH2 0x21A7 JUMP JUMPDEST DUP3 ADD SWAP2 SWAP1 PUSH1 0x0 MSTORE PUSH1 0x20 PUSH1 0x0 KECCAK256 SWAP1 JUMPDEST DUP2 SLOAD DUP2 MSTORE SWAP1 PUSH1 0x1 ADD SWAP1 PUSH1 0x20 ADD DUP1 DUP4 GT PUSH2 0x218A JUMPI DUP3 SWAP1 SUB PUSH1 0x1F AND DUP3 ADD SWAP2 JUMPDEST POP POP POP POP POP DUP2 MSTORE PUSH1 0x20 ADD PUSH1 0x4 DUP3 ADD PUSH1 0x0 SWAP1 SLOAD SWAP1 PUSH2 0x100 EXP SWAP1 DIV PUSH1 0xFF AND ISZERO ISZERO ISZERO ISZERO DUP2 MSTORE POP POP DUP3 DUP3 DUP2 MLOAD DUP2 LT PUSH2 0x21DE JUMPI PUSH2 0x21DD PUSH2 0x30C4 JUMP JUMPDEST JUMPDEST PUSH1 0x20 MUL PUSH1 0x20 ADD ADD DUP2 SWAP1 MSTORE POP DUP1 DUP1 PUSH2 0x21F4 SWAP1 PUSH2 0x2FEE JUMP JUMPDEST SWAP2 POP POP PUSH2 0x1F2B JUMP JUMPDEST POP DUP1 SWAP2 POP POP SWAP1 JUMP JUMPDEST PUSH1 0x60 PUSH1 0x0 PUSH1 0x1 DUP1 SLOAD SWAP1 POP PUSH8 0xFFFFFFFFFFFFFFFF DUP2 GT ISZERO PUSH2 0x2227 JUMPI PUSH2 0x2226 PUSH2 0x30F3 JUMP JUMPDEST JUMPDEST PUSH1 0x40 MLOAD SWAP1 DUP1 DUP3 MSTORE DUP1 PUSH1 0x20 MUL PUSH1 0x20 ADD DUP3 ADD PUSH1 0x40 MSTORE DUP1 ISZERO PUSH2 0x2260 JUMPI DUP2 PUSH1 0x20 ADD JUMPDEST PUSH2 0x224D PUSH2 0x25C5 JUMP JUMPDEST DUP2 MSTORE PUSH1 0x20 ADD SWAP1 PUSH1 0x1 SWAP1 SUB SWAP1 DUP2 PUSH2 0x2245 JUMPI SWAP1 POP JUMPDEST POP SWAP1 POP PUSH1 0x0 JUMPDEST PUSH1 0x1 DUP1 SLOAD SWAP1 POP DUP2 LT ISZERO PUSH2 0x2537 JUMPI PUSH1 0x0 DUP1 PUSH1 0x1 DUP4 DUP2 SLOAD DUP2 LT PUSH2 0x228A JUMPI PUSH2 0x2289 PUSH2 0x30C4 JUMP JUMPDEST JUMPDEST SWAP1 PUSH1 0x0 MSTORE PUSH1 0x20 PUSH1 0x0 KECCAK256 ADD PUSH1 0x0 SWAP1 SLOAD SWAP1 PUSH2 0x100 EXP SWAP1 DIV PUSH20 0xFFFFFFFFFFFFFFFFFFFFFFFFFFFFFFFFFFFFFFFF AND PUSH20 0xFFFFFFFFFFFFFFFFFFFFFFFFFFFFFFFFFFFFFFFF AND PUSH20 0xFFFFFFFFFFFFFFFFFFFFFFFFFFFFFFFFFFFFFFFF AND DUP2 MSTORE PUSH1 0x20 ADD SWAP1 DUP2 MSTORE PUSH1 0x20 ADD PUSH1 0x0 KECCAK256 PUSH1 0x40 MLOAD DUP1 PUSH1 0xA0 ADD PUSH1 0x40 MSTORE SWAP1 DUP2 PUSH1 0x0 DUP3 ADD PUSH1 0x0 SWAP1 SLOAD SWAP1 PUSH2 0x100 EXP SWAP1 DIV PUSH1 0xFF AND PUSH1 0x2 DUP2 GT ISZERO PUSH2 0x231F JUMPI PUSH2 0x231E PUSH2 0x3066 JUMP JUMPDEST JUMPDEST PUSH1 0x2 DUP2 GT ISZERO PUSH2 0x2331 JUMPI PUSH2 0x2330 PUSH2 0x3066 JUMP JUMPDEST JUMPDEST DUP2 MSTORE PUSH1 0x20 ADD PUSH1 0x1 DUP3 ADD DUP1 SLOAD PUSH2 0x2345 SWAP1 PUSH2 0x2F8B JUMP JUMPDEST DUP1 PUSH1 0x1F ADD PUSH1 0x20 DUP1 SWAP2 DIV MUL PUSH1 0x20 ADD PUSH1 0x40 MLOAD SWAP1 DUP2 ADD PUSH1 0x40 MSTORE DUP1 SWAP3 SWAP2 SWAP1 DUP2 DUP2 MSTORE PUSH1 0x20 ADD DUP3 DUP1 SLOAD PUSH2 0x2371 SWAP1 PUSH2 0x2F8B JUMP JUMPDEST DUP1 ISZERO PUSH2 0x23BE JUMPI DUP1 PUSH1 0x1F LT PUSH2 0x2393 JUMPI PUSH2 0x100 DUP1 DUP4 SLOAD DIV MUL DUP4 MSTORE SWAP2 PUSH1 0x20 ADD SWAP2 PUSH2 0x23BE JUMP JUMPDEST DUP3 ADD SWAP2 SWAP1 PUSH1 0x0 MSTORE PUSH1 0x20 PUSH1 0x0 KECCAK256 SWAP1 JUMPDEST DUP2 SLOAD DUP2 MSTORE SWAP1 PUSH1 0x1 ADD SWAP1 PUSH1 0x20 ADD DUP1 DUP4 GT PUSH2 0x23A1 JUMPI DUP3 SWAP1 SUB PUSH1 0x1F AND DUP3 ADD SWAP2 JUMPDEST POP POP POP POP POP DUP2 MSTORE PUSH1 0x20 ADD PUSH1 0x2 DUP3 ADD DUP1 SLOAD PUSH2 0x23D7 SWAP1 PUSH2 0x2F8B JUMP JUMPDEST DUP1 PUSH1 0x1F ADD PUSH1 0x20 DUP1 SWAP2 DIV MUL PUSH1 0x20 ADD PUSH1 0x40 MLOAD SWAP1 DUP2 ADD PUSH1 0x40 MSTORE DUP1 SWAP3 SWAP2 SWAP1 DUP2 DUP2 MSTORE PUSH1 0x20 ADD DUP3 DUP1 SLOAD PUSH2 0x2403 SWAP1 PUSH2 0x2F8B JUMP JUMPDEST DUP1 ISZERO PUSH2 0x2450 JUMPI DUP1 PUSH1 0x1F LT PUSH2 0x2425 JUMPI PUSH2 0x100 DUP1 DUP4 SLOAD DIV MUL DUP4 MSTORE SWAP2 PUSH1 0x20 ADD SWAP2 PUSH2 0x2450 JUMP JUMPDEST DUP3 ADD SWAP2 SWAP1 PUSH1 0x0 MSTORE PUSH1 0x20 PUSH1 0x0 KECCAK256 SWAP1 JUMPDEST DUP2 SLOAD DUP2 MSTORE SWAP1 PUSH1 0x1 ADD SWAP1 PUSH1 0x20 ADD DUP1 DUP4 GT PUSH2 0x2433 JUMPI DUP3 SWAP1 SUB PUSH1 0x1F AND DUP3 ADD SWAP2 JUMPDEST POP POP POP POP POP DUP2 MSTORE PUSH1 0x20 ADD PUSH1 0x3 DUP3 ADD DUP1 SLOAD PUSH2 0x2469 SWAP1 PUSH2 0x2F8B JUMP JUMPDEST DUP1 PUSH1 0x1F ADD PUSH1 0x20 DUP1 SWAP2 DIV MUL PUSH1 0x20 ADD PUSH1 0x40 MLOAD SWAP1 DUP2 ADD PUSH1 0x40 MSTORE DUP1 SWAP3 SWAP2 SWAP1 DUP2 DUP2 MSTORE PUSH1 0x20 ADD DUP3 DUP1 SLOAD PUSH2 0x2495 SWAP1 PUSH2 0x2F8B JUMP JUMPDEST DUP1 ISZERO PUSH2 0x24E2 JUMPI DUP1 PUSH1 0x1F LT PUSH2 0x24B7 JUMPI PUSH2 0x100 DUP1 DUP4 SLOAD DIV MUL DUP4 MSTORE SWAP2 PUSH1 0x20 ADD SWAP2 PUSH2 0x24E2 JUMP JUMPDEST DUP3 ADD SWAP2 SWAP1 PUSH1 0x0 MSTORE PUSH1 0x20 PUSH1 0x0 KECCAK256 SWAP1 JUMPDEST DUP2 SLOAD DUP2 MSTORE SWAP1 PUSH1 0x1 ADD SWAP1 PUSH1 0x20 ADD DUP1 DUP4 GT PUSH2 0x24C5 JUMPI DUP3 SWAP1 SUB PUSH1 0x1F AND DUP3 ADD SWAP2 JUMPDEST POP POP POP POP POP DUP2 MSTORE PUSH1 0x20 ADD PUSH1 0x4 DUP3 ADD PUSH1 0x0 SWAP1 SLOAD SWAP1 PUSH2 0x100 EXP SWAP1 DIV PUSH1 0xFF AND ISZERO ISZERO ISZERO ISZERO DUP2 MSTORE POP POP DUP3 DUP3 DUP2 MLOAD DUP2 LT PUSH2 0x2519 JUMPI PUSH2 0x2518 PUSH2 0x30C4 JUMP JUMPDEST JUMPDEST PUSH1 0x20 MUL PUSH1 0x20 ADD ADD DUP2 SWAP1 MSTORE POP DUP1 DUP1 PUSH2 0x252F SWAP1 PUSH2 0x2FEE JUMP JUMPDEST SWAP2 POP POP PUSH2 0x2266 JUMP JUMPDEST POP DUP1 SWAP2 POP POP SWAP1 JUMP JUMPDEST DUP3 DUP1 SLOAD PUSH2 0x254B SWAP1 PUSH2 0x2F8B JUMP JUMPDEST SWAP1 PUSH1 0x0 MSTORE PUSH1 0x20 PUSH1 0x0 KECCAK256 SWAP1 PUSH1 0x1F ADD PUSH1 0x20 SWAP1 DIV DUP2 ADD SWAP3 DUP3 PUSH2 0x256D JUMPI PUSH1 0x0 DUP6 SSTORE PUSH2 0x25B4 JUMP JUMPDEST DUP3 PUSH1 0x1F LT PUSH2 0x2586 JUMPI DUP1 MLOAD PUSH1 0xFF NOT AND DUP4 DUP1 ADD OR DUP6 SSTORE PUSH2 0x25B4 JUMP JUMPDEST DUP3 DUP1 ADD PUSH1 0x1 ADD DUP6 SSTORE DUP3 ISZERO PUSH2 0x25B4 JUMPI SWAP2 DUP3 ADD JUMPDEST DUP3 DUP2 GT ISZERO PUSH2 0x25B3 JUMPI DUP3 MLOAD DUP3 SSTORE SWAP2 PUSH1 0x20 ADD SWAP2 SWAP1 PUSH1 0x1 ADD SWAP1 PUSH2 0x2598 JUMP JUMPDEST JUMPDEST POP SWAP1 POP PUSH2 0x25C1 SWAP2 SWAP1 PUSH2 0x2608 JUMP JUMPDEST POP SWAP1 JUMP JUMPDEST PUSH1 0x40 MLOAD DUP1 PUSH1 0xA0 ADD PUSH1 0x40 MSTORE DUP1 PUSH1 0x0 PUSH1 0x2 DUP2 GT ISZERO PUSH2 0x25E4 JUMPI PUSH2 0x25E3 PUSH2 0x3066 JUMP JUMPDEST JUMPDEST DUP2 MSTORE PUSH1 0x20 ADD PUSH1 0x60 DUP2 MSTORE PUSH1 0x20 ADD PUSH1 0x60 DUP2 MSTORE PUSH1 0x20 ADD PUSH1 0x60 DUP2 MSTORE PUSH1 0x20 ADD PUSH1 0x0 ISZERO ISZERO DUP2 MSTORE POP SWAP1 JUMP JUMPDEST JUMPDEST DUP1 DUP3 GT ISZERO PUSH2 0x2621 JUMPI PUSH1 0x0 DUP2 PUSH1 0x0 SWAP1 SSTORE POP PUSH1 0x1 ADD PUSH2 0x2609 JUMP JUMPDEST POP SWAP1 JUMP JUMPDEST PUSH1 0x0 PUSH2 0x2638 PUSH2 0x2633 DUP5 PUSH2 0x2DFB JUMP JUMPDEST PUSH2 0x2DD6 JUMP JUMPDEST SWAP1 POP DUP3 DUP2 MSTORE PUSH1 0x20 DUP2 ADD DUP5 DUP5 DUP5 ADD GT ISZERO PUSH2 0x2654 JUMPI PUSH2 0x2653 PUSH2 0x3131 JUMP JUMPDEST JUMPDEST PUSH2 0x265F DUP5 DUP3 DUP6 PUSH2 0x2F49 JUMP JUMPDEST POP SWAP4 SWAP3 POP POP POP JUMP JUMPDEST PUSH1 0x0 DUP2 CALLDATALOAD SWAP1 POP PUSH2 0x2676 DUP2 PUSH2 0x318E JUMP JUMPDEST SWAP3 SWAP2 POP POP JUMP JUMPDEST PUSH1 0x0 DUP1 DUP4 PUSH1 0x1F DUP5 ADD SLT PUSH2 0x2692 JUMPI PUSH2 0x2691 PUSH2 0x3127 JUMP JUMPDEST JUMPDEST DUP3 CALLDATALOAD SWAP1 POP PUSH8 0xFFFFFFFFFFFFFFFF DUP2 GT ISZERO PUSH2 0x26AF JUMPI PUSH2 0x26AE PUSH2 0x3122 JUMP JUMPDEST JUMPDEST PUSH1 0x20 DUP4 ADD SWAP2 POP DUP4 PUSH1 0x1 DUP3 MUL DUP4 ADD GT ISZERO PUSH2 0x26CB JUMPI PUSH2 0x26CA PUSH2 0x312C JUMP JUMPDEST JUMPDEST SWAP3 POP SWAP3 SWAP1 POP JUMP JUMPDEST PUSH1 0x0 DUP3 PUSH1 0x1F DUP4 ADD SLT PUSH2 0x26E7 JUMPI PUSH2 0x26E6 PUSH2 0x3127 JUMP JUMPDEST JUMPDEST DUP2 CALLDATALOAD PUSH2 0x26F7 DUP5 DUP3 PUSH1 0x20 DUP7 ADD PUSH2 0x2625 JUMP JUMPDEST SWAP2 POP POP SWAP3 SWAP2 POP POP JUMP JUMPDEST PUSH1 0x0 DUP2 CALLDATALOAD SWAP1 POP PUSH2 0x270F DUP2 PUSH2 0x31A5 JUMP JUMPDEST SWAP3 SWAP2 POP POP JUMP JUMPDEST PUSH1 0x0 DUP2 CALLDATALOAD SWAP1 POP PUSH2 0x2724 DUP2 PUSH2 0x31B5 JUMP JUMPDEST SWAP3 SWAP2 POP POP JUMP JUMPDEST PUSH1 0x0 PUSH1 0x20 DUP3 DUP5 SUB SLT ISZERO PUSH2 0x2740 JUMPI PUSH2 0x273F PUSH2 0x313B JUMP JUMPDEST JUMPDEST PUSH1 0x0 PUSH2 0x274E DUP5 DUP3 DUP6 ADD PUSH2 0x2667 JUMP JUMPDEST SWAP2 POP POP SWAP3 SWAP2 POP POP JUMP JUMPDEST PUSH1 0x0 PUSH1 0x20 DUP3 DUP5 SUB SLT ISZERO PUSH2 0x276D JUMPI PUSH2 0x276C PUSH2 0x313B JUMP JUMPDEST JUMPDEST PUSH1 0x0 DUP3 ADD CALLDATALOAD PUSH8 0xFFFFFFFFFFFFFFFF DUP2 GT ISZERO PUSH2 0x278B JUMPI PUSH2 0x278A PUSH2 0x3136 JUMP JUMPDEST JUMPDEST PUSH2 0x2797 DUP5 DUP3 DUP6 ADD PUSH2 0x26D2 JUMP JUMPDEST SWAP2 POP POP SWAP3 SWAP2 POP POP JUMP JUMPDEST PUSH1 0x0 DUP1 PUSH1 0x0 DUP1 PUSH1 0x0 DUP1 PUSH1 0x80 DUP8 DUP10 SUB SLT ISZERO PUSH2 0x27BD JUMPI PUSH2 0x27BC PUSH2 0x313B JUMP JUMPDEST JUMPDEST PUSH1 0x0 PUSH2 0x27CB DUP10 DUP3 DUP11 ADD PUSH2 0x2700 JUMP JUMPDEST SWAP7 POP POP PUSH1 0x20 DUP8 ADD CALLDATALOAD PUSH8 0xFFFFFFFFFFFFFFFF DUP2 GT ISZERO PUSH2 0x27EC JUMPI PUSH2 0x27EB PUSH2 0x3136 JUMP JUMPDEST JUMPDEST PUSH2 0x27F8 DUP10 DUP3 DUP11 ADD PUSH2 0x267C JUMP JUMPDEST SWAP6 POP SWAP6 POP POP PUSH1 0x40 DUP8 ADD CALLDATALOAD PUSH8 0xFFFFFFFFFFFFFFFF DUP2 GT ISZERO PUSH2 0x281B JUMPI PUSH2 0x281A PUSH2 0x3136 JUMP JUMPDEST JUMPDEST PUSH2 0x2827 DUP10 DUP3 DUP11 ADD PUSH2 0x267C JUMP JUMPDEST SWAP4 POP SWAP4 POP POP PUSH1 0x60 DUP8 ADD CALLDATALOAD PUSH8 0xFFFFFFFFFFFFFFFF DUP2 GT ISZERO PUSH2 0x284A JUMPI PUSH2 0x2849 PUSH2 0x3136 JUMP JUMPDEST JUMPDEST PUSH2 0x2856 DUP10 DUP3 DUP11 ADD PUSH2 0x26D2 JUMP JUMPDEST SWAP2 POP POP SWAP3 SWAP6 POP SWAP3 SWAP6 POP SWAP3 SWAP6 JUMP JUMPDEST PUSH1 0x0 PUSH1 0x20 DUP3 DUP5 SUB SLT ISZERO PUSH2 0x2879 JUMPI PUSH2 0x2878 PUSH2 0x313B JUMP JUMPDEST JUMPDEST PUSH1 0x0 PUSH2 0x2887 DUP5 DUP3 DUP6 ADD PUSH2 0x2715 JUMP JUMPDEST SWAP2 POP POP SWAP3 SWAP2 POP POP JUMP JUMPDEST PUSH1 0x0 PUSH2 0x289C DUP4 DUP4 PUSH2 0x28BC JUMP JUMPDEST PUSH1 0x20 DUP4 ADD SWAP1 POP SWAP3 SWAP2 POP POP JUMP JUMPDEST PUSH1 0x0 PUSH2 0x28B4 DUP4 DUP4 PUSH2 0x2AAB JUMP JUMPDEST SWAP1 POP SWAP3 SWAP2 POP POP JUMP JUMPDEST PUSH2 0x28C5 DUP2 PUSH2 0x2EDC JUMP JUMPDEST DUP3 MSTORE POP POP JUMP JUMPDEST PUSH2 0x28D4 DUP2 PUSH2 0x2EDC JUMP JUMPDEST DUP3 MSTORE POP POP JUMP JUMPDEST PUSH1 0x0 PUSH2 0x28E5 DUP3 PUSH2 0x2E4C JUMP JUMPDEST PUSH2 0x28EF DUP2 DUP6 PUSH2 0x2E87 JUMP JUMPDEST SWAP4 POP PUSH2 0x28FA DUP4 PUSH2 0x2E2C JUMP JUMPDEST DUP1 PUSH1 0x0 JUMPDEST DUP4 DUP2 LT ISZERO PUSH2 0x292B JUMPI DUP2 MLOAD PUSH2 0x2912 DUP9 DUP3 PUSH2 0x2890 JUMP JUMPDEST SWAP8 POP PUSH2 0x291D DUP4 PUSH2 0x2E6D JUMP JUMPDEST SWAP3 POP POP PUSH1 0x1 DUP2 ADD SWAP1 POP PUSH2 0x28FE JUMP JUMPDEST POP DUP6 SWAP4 POP POP POP POP SWAP3 SWAP2 POP POP JUMP JUMPDEST PUSH1 0x0 PUSH2 0x2943 DUP3 PUSH2 0x2E57 JUMP JUMPDEST PUSH2 0x294D DUP2 DUP6 PUSH2 0x2E98 JUMP JUMPDEST SWAP4 POP DUP4 PUSH1 0x20 DUP3 MUL DUP6 ADD PUSH2 0x295F DUP6 PUSH2 0x2E3C JUMP JUMPDEST DUP1 PUSH1 0x0 JUMPDEST DUP6 DUP2 LT ISZERO PUSH2 0x299B JUMPI DUP5 DUP5 SUB DUP10 MSTORE DUP2 MLOAD PUSH2 0x297C DUP6 DUP3 PUSH2 0x28A8 JUMP JUMPDEST SWAP5 POP PUSH2 0x2987 DUP4 PUSH2 0x2E7A JUMP JUMPDEST SWAP3 POP PUSH1 0x20 DUP11 ADD SWAP10 POP POP PUSH1 0x1 DUP2 ADD SWAP1 POP PUSH2 0x2963 JUMP JUMPDEST POP DUP3 SWAP8 POP DUP8 SWAP6 POP POP POP POP POP POP SWAP3 SWAP2 POP POP JUMP JUMPDEST PUSH2 0x29B6 DUP2 PUSH2 0x2EEE JUMP JUMPDEST DUP3 MSTORE POP POP JUMP JUMPDEST PUSH2 0x29C5 DUP2 PUSH2 0x2EEE JUMP JUMPDEST DUP3 MSTORE POP POP JUMP JUMPDEST PUSH1 0x0 PUSH2 0x29D7 DUP4 DUP6 PUSH2 0x2EBA JUMP JUMPDEST SWAP4 POP PUSH2 0x29E4 DUP4 DUP6 DUP5 PUSH2 0x2F49 JUMP JUMPDEST PUSH2 0x29ED DUP4 PUSH2 0x3140 JUMP JUMPDEST DUP5 ADD SWAP1 POP SWAP4 SWAP3 POP POP POP JUMP JUMPDEST PUSH1 0x0 PUSH2 0x2A03 DUP3 PUSH2 0x2E62 JUMP JUMPDEST PUSH2 0x2A0D DUP2 DUP6 PUSH2 0x2EA9 JUMP JUMPDEST SWAP4 POP PUSH2 0x2A1D DUP2 DUP6 PUSH1 0x20 DUP7 ADD PUSH2 0x2F58 JUMP JUMPDEST PUSH2 0x2A26 DUP2 PUSH2 0x3140 JUMP JUMPDEST DUP5 ADD SWAP2 POP POP SWAP3 SWAP2 POP POP JUMP JUMPDEST PUSH1 0x0 PUSH2 0x2A3C DUP3 PUSH2 0x2E62 JUMP JUMPDEST PUSH2 0x2A46 DUP2 DUP6 PUSH2 0x2EBA JUMP JUMPDEST SWAP4 POP PUSH2 0x2A56 DUP2 DUP6 PUSH1 0x20 DUP7 ADD PUSH2 0x2F58 JUMP JUMPDEST PUSH2 0x2A5F DUP2 PUSH2 0x3140 JUMP JUMPDEST DUP5 ADD SWAP2 POP POP SWAP3 SWAP2 POP POP JUMP JUMPDEST PUSH2 0x2A73 DUP2 PUSH2 0x2F37 JUMP JUMPDEST DUP3 MSTORE POP POP JUMP JUMPDEST PUSH2 0x2A82 DUP2 PUSH2 0x2F37 JUMP JUMPDEST DUP3 MSTORE POP POP JUMP JUMPDEST PUSH1 0x0 PUSH2 0x2A95 PUSH1 0x17 DUP4 PUSH2 0x2ECB JUMP JUMPDEST SWAP2 POP PUSH2 0x2AA0 DUP3 PUSH2 0x3151 JUMP JUMPDEST PUSH1 0x20 DUP3 ADD SWAP1 POP SWAP2 SWAP1 POP JUMP JUMPDEST PUSH1 0x0 PUSH1 0xA0 DUP4 ADD PUSH1 0x0 DUP4 ADD MLOAD PUSH2 0x2AC3 PUSH1 0x0 DUP7 ADD DUP3 PUSH2 0x2A6A JUMP JUMPDEST POP PUSH1 0x20 DUP4 ADD MLOAD DUP5 DUP3 SUB PUSH1 0x20 DUP7 ADD MSTORE PUSH2 0x2ADB DUP3 DUP3 PUSH2 0x29F8 JUMP JUMPDEST SWAP2 POP POP PUSH1 0x40 DUP4 ADD MLOAD DUP5 DUP3 SUB PUSH1 0x40 DUP7 ADD MSTORE PUSH2 0x2AF5 DUP3 DUP3 PUSH2 0x29F8 JUMP JUMPDEST SWAP2 POP POP PUSH1 0x60 DUP4 ADD MLOAD DUP5 DUP3 SUB PUSH1 0x60 DUP7 ADD MSTORE PUSH2 0x2B0F DUP3 DUP3 PUSH2 0x29F8 JUMP JUMPDEST SWAP2 POP POP PUSH1 0x80 DUP4 ADD MLOAD PUSH2 0x2B24 PUSH1 0x80 DUP7 ADD DUP3 PUSH2 0x29AD JUMP JUMPDEST POP DUP1 SWAP2 POP POP SWAP3 SWAP2 POP POP JUMP JUMPDEST PUSH1 0x0 PUSH1 0xA0 DUP4 ADD PUSH1 0x0 DUP4 ADD MLOAD PUSH2 0x2B47 PUSH1 0x0 DUP7 ADD DUP3 PUSH2 0x2A6A JUMP JUMPDEST POP PUSH1 0x20 DUP4 ADD MLOAD DUP5 DUP3 SUB PUSH1 0x20 DUP7 ADD MSTORE PUSH2 0x2B5F DUP3 DUP3 PUSH2 0x29F8 JUMP JUMPDEST SWAP2 POP POP PUSH1 0x40 DUP4 ADD MLOAD DUP5 DUP3 SUB PUSH1 0x40 DUP7 ADD MSTORE PUSH2 0x2B79 DUP3 DUP3 PUSH2 0x29F8 JUMP JUMPDEST SWAP2 POP POP PUSH1 0x60 DUP4 ADD MLOAD DUP5 DUP3 SUB PUSH1 0x60 DUP7 ADD MSTORE PUSH2 0x2B93 DUP3 DUP3 PUSH2 0x29F8 JUMP JUMPDEST SWAP2 POP POP PUSH1 0x80 DUP4 ADD MLOAD PUSH2 0x2BA8 PUSH1 0x80 DUP7 ADD DUP3 PUSH2 0x29AD JUMP JUMPDEST POP DUP1 SWAP2 POP POP SWAP3 SWAP2 POP POP JUMP JUMPDEST PUSH2 0x2BBC DUP2 PUSH2 0x2F2D JUMP JUMPDEST DUP3 MSTORE POP POP JUMP JUMPDEST PUSH1 0x0 PUSH1 0x20 DUP3 ADD SWAP1 POP PUSH2 0x2BD7 PUSH1 0x0 DUP4 ADD DUP5 PUSH2 0x28CB JUMP JUMPDEST SWAP3 SWAP2 POP POP JUMP JUMPDEST PUSH1 0x0 PUSH1 0x20 DUP3 ADD SWAP1 POP DUP2 DUP2 SUB PUSH1 0x0 DUP4 ADD MSTORE PUSH2 0x2BF7 DUP2 DUP5 PUSH2 0x28DA JUMP JUMPDEST SWAP1 POP SWAP3 SWAP2 POP POP JUMP JUMPDEST PUSH1 0x0 PUSH1 0x40 DUP3 ADD SWAP1 POP DUP2 DUP2 SUB PUSH1 0x0 DUP4 ADD MSTORE PUSH2 0x2C19 DUP2 DUP6 PUSH2 0x28DA JUMP JUMPDEST SWAP1 POP DUP2 DUP2 SUB PUSH1 0x20 DUP4 ADD MSTORE PUSH2 0x2C2D DUP2 DUP5 PUSH2 0x2938 JUMP JUMPDEST SWAP1 POP SWAP4 SWAP3 POP POP POP JUMP JUMPDEST PUSH1 0x0 PUSH1 0x20 DUP3 ADD SWAP1 POP DUP2 DUP2 SUB PUSH1 0x0 DUP4 ADD MSTORE PUSH2 0x2C50 DUP2 DUP5 PUSH2 0x2938 JUMP JUMPDEST SWAP1 POP SWAP3 SWAP2 POP POP JUMP JUMPDEST PUSH1 0x0 PUSH1 0xA0 DUP3 ADD SWAP1 POP PUSH2 0x2C6D PUSH1 0x0 DUP4 ADD DUP11 PUSH2 0x2A79 JUMP JUMPDEST DUP2 DUP2 SUB PUSH1 0x20 DUP4 ADD MSTORE PUSH2 0x2C80 DUP2 DUP9 DUP11 PUSH2 0x29CB JUMP JUMPDEST SWAP1 POP DUP2 DUP2 SUB PUSH1 0x40 DUP4 ADD MSTORE PUSH2 0x2C95 DUP2 DUP7 DUP9 PUSH2 0x29CB JUMP JUMPDEST SWAP1 POP DUP2 DUP2 SUB PUSH1 0x60 DUP4 ADD MSTORE PUSH2 0x2CA9 DUP2 DUP6 PUSH2 0x2A31 JUMP JUMPDEST SWAP1 POP PUSH2 0x2CB8 PUSH1 0x80 DUP4 ADD DUP5 PUSH2 0x2BB3 JUMP JUMPDEST SWAP9 SWAP8 POP POP POP POP POP POP POP POP JUMP JUMPDEST PUSH1 0x0 PUSH1 0xA0 DUP3 ADD SWAP1 POP PUSH2 0x2CD9 PUSH1 0x0 DUP4 ADD DUP9 PUSH2 0x2A79 JUMP JUMPDEST DUP2 DUP2 SUB PUSH1 0x20 DUP4 ADD MSTORE PUSH2 0x2CEB DUP2 DUP8 PUSH2 0x2A31 JUMP JUMPDEST SWAP1 POP DUP2 DUP2 SUB PUSH1 0x40 DUP4 ADD MSTORE PUSH2 0x2CFF DUP2 DUP7 PUSH2 0x2A31 JUMP JUMPDEST SWAP1 POP DUP2 DUP2 SUB PUSH1 0x60 DUP4 ADD MSTORE PUSH2 0x2D13 DUP2 DUP6 PUSH2 0x2A31 JUMP JUMPDEST SWAP1 POP PUSH2 0x2D22 PUSH1 0x80 DUP4 ADD DUP5 PUSH2 0x29BC JUMP JUMPDEST SWAP7 SWAP6 POP POP POP POP POP POP JUMP JUMPDEST PUSH1 0x0 PUSH1 0xA0 DUP3 ADD SWAP1 POP PUSH2 0x2D41 PUSH1 0x0 DUP4 ADD DUP9 PUSH2 0x2A79 JUMP JUMPDEST DUP2 DUP2 SUB PUSH1 0x20 DUP4 ADD MSTORE PUSH2 0x2D53 DUP2 DUP8 PUSH2 0x2A31 JUMP JUMPDEST SWAP1 POP DUP2 DUP2 SUB PUSH1 0x40 DUP4 ADD MSTORE PUSH2 0x2D67 DUP2 DUP7 PUSH2 0x2A31 JUMP JUMPDEST SWAP1 POP DUP2 DUP2 SUB PUSH1 0x60 DUP4 ADD MSTORE PUSH2 0x2D7B DUP2 DUP6 PUSH2 0x2A31 JUMP JUMPDEST SWAP1 POP PUSH2 0x2D8A PUSH1 0x80 DUP4 ADD DUP5 PUSH2 0x2BB3 JUMP JUMPDEST SWAP7 SWAP6 POP POP POP POP POP POP JUMP JUMPDEST PUSH1 0x0 PUSH1 0x20 DUP3 ADD SWAP1 POP DUP2 DUP2 SUB PUSH1 0x0 DUP4 ADD MSTORE PUSH2 0x2DAD DUP2 PUSH2 0x2A88 JUMP JUMPDEST SWAP1 POP SWAP2 SWAP1 POP JUMP JUMPDEST PUSH1 0x0 PUSH1 0x20 DUP3 ADD SWAP1 POP DUP2 DUP2 SUB PUSH1 0x0 DUP4 ADD MSTORE PUSH2 0x2DCE DUP2 DUP5 PUSH2 0x2B2F JUMP JUMPDEST SWAP1 POP SWAP3 SWAP2 POP POP JUMP JUMPDEST PUSH1 0x0 PUSH2 0x2DE0 PUSH2 0x2DF1 JUMP JUMPDEST SWAP1 POP PUSH2 0x2DEC DUP3 DUP3 PUSH2 0x2FBD JUMP JUMPDEST SWAP2 SWAP1 POP JUMP JUMPDEST PUSH1 0x0 PUSH1 0x40 MLOAD SWAP1 POP SWAP1 JUMP JUMPDEST PUSH1 0x0 PUSH8 0xFFFFFFFFFFFFFFFF DUP3 GT ISZERO PUSH2 0x2E16 JUMPI PUSH2 0x2E15 PUSH2 0x30F3 JUMP JUMPDEST JUMPDEST PUSH2 0x2E1F DUP3 PUSH2 0x3140 JUMP JUMPDEST SWAP1 POP PUSH1 0x20 DUP2 ADD SWAP1 POP SWAP2 SWAP1 POP JUMP JUMPDEST PUSH1 0x0 DUP2 SWAP1 POP PUSH1 0x20 DUP3 ADD SWAP1 POP SWAP2 SWAP1 POP JUMP JUMPDEST PUSH1 0x0 DUP2 SWAP1 POP PUSH1 0x20 DUP3 ADD SWAP1 POP SWAP2 SWAP1 POP JUMP JUMPDEST PUSH1 0x0 DUP2 MLOAD SWAP1 POP SWAP2 SWAP1 POP JUMP JUMPDEST PUSH1 0x0 DUP2 MLOAD SWAP1 POP SWAP2 SWAP1 POP JUMP JUMPDEST PUSH1 0x0 DUP2 MLOAD SWAP1 POP SWAP2 SWAP1 POP JUMP JUMPDEST PUSH1 0x0 PUSH1 0x20 DUP3 ADD SWAP1 POP SWAP2 SWAP1 POP JUMP JUMPDEST PUSH1 0x0 PUSH1 0x20 DUP3 ADD SWAP1 POP SWAP2 SWAP1 POP JUMP JUMPDEST PUSH1 0x0 DUP3 DUP3 MSTORE PUSH1 0x20 DUP3 ADD SWAP1 POP SWAP3 SWAP2 POP POP JUMP JUMPDEST PUSH1 0x0 DUP3 DUP3 MSTORE PUSH1 0x20 DUP3 ADD SWAP1 POP SWAP3 SWAP2 POP POP JUMP JUMPDEST PUSH1 0x0 DUP3 DUP3 MSTORE PUSH1 0x20 DUP3 ADD SWAP1 POP SWAP3 SWAP2 POP POP JUMP JUMPDEST PUSH1 0x0 DUP3 DUP3 MSTORE PUSH1 0x20 DUP3 ADD SWAP1 POP SWAP3 SWAP2 POP POP JUMP JUMPDEST PUSH1 0x0 DUP3 DUP3 MSTORE PUSH1 0x20 DUP3 ADD SWAP1 POP SWAP3 SWAP2 POP POP JUMP JUMPDEST PUSH1 0x0 PUSH2 0x2EE7 DUP3 PUSH2 0x2F0D JUMP JUMPDEST SWAP1 POP SWAP2 SWAP1 POP JUMP JUMPDEST PUSH1 0x0 DUP2 ISZERO ISZERO SWAP1 POP SWAP2 SWAP1 POP JUMP JUMPDEST PUSH1 0x0 DUP2 SWAP1 POP PUSH2 0x2F08 DUP3 PUSH2 0x317A JUMP JUMPDEST SWAP2 SWAP1 POP JUMP JUMPDEST PUSH1 0x0 PUSH20 0xFFFFFFFFFFFFFFFFFFFFFFFFFFFFFFFFFFFFFFFF DUP3 AND SWAP1 POP SWAP2 SWAP1 POP JUMP JUMPDEST PUSH1 0x0 DUP2 SWAP1 POP SWAP2 SWAP1 POP JUMP JUMPDEST PUSH1 0x0 PUSH2 0x2F42 DUP3 PUSH2 0x2EFA JUMP JUMPDEST SWAP1 POP SWAP2 SWAP1 POP JUMP JUMPDEST DUP3 DUP2 DUP4 CALLDATACOPY PUSH1 0x0 DUP4 DUP4 ADD MSTORE POP POP POP JUMP JUMPDEST PUSH1 0x0 JUMPDEST DUP4 DUP2 LT ISZERO PUSH2 0x2F76 JUMPI DUP1 DUP3 ADD MLOAD DUP2 DUP5 ADD MSTORE PUSH1 0x20 DUP2 ADD SWAP1 POP PUSH2 0x2F5B JUMP JUMPDEST DUP4 DUP2 GT ISZERO PUSH2 0x2F85 JUMPI PUSH1 0x0 DUP5 DUP5 ADD MSTORE JUMPDEST POP POP POP POP JUMP JUMPDEST PUSH1 0x0 PUSH1 0x2 DUP3 DIV SWAP1 POP PUSH1 0x1 DUP3 AND DUP1 PUSH2 0x2FA3 JUMPI PUSH1 0x7F DUP3 AND SWAP2 POP JUMPDEST PUSH1 0x20 DUP3 LT DUP2 EQ ISZERO PUSH2 0x2FB7 JUMPI PUSH2 0x2FB6 PUSH2 0x3095 JUMP JUMPDEST JUMPDEST POP SWAP2 SWAP1 POP JUMP JUMPDEST PUSH2 0x2FC6 DUP3 PUSH2 0x3140 JUMP JUMPDEST DUP2 ADD DUP2 DUP2 LT PUSH8 0xFFFFFFFFFFFFFFFF DUP3 GT OR ISZERO PUSH2 0x2FE5 JUMPI PUSH2 0x2FE4 PUSH2 0x30F3 JUMP JUMPDEST JUMPDEST DUP1 PUSH1 0x40 MSTORE POP POP POP JUMP JUMPDEST PUSH1 0x0 PUSH2 0x2FF9 DUP3 PUSH2 0x2F2D JUMP JUMPDEST SWAP2 POP PUSH32 0xFFFFFFFFFFFFFFFFFFFFFFFFFFFFFFFFFFFFFFFFFFFFFFFFFFFFFFFFFFFFFFFF DUP3 EQ ISZERO PUSH2 0x302C JUMPI PUSH2 0x302B PUSH2 0x3037 JUMP JUMPDEST JUMPDEST PUSH1 0x1 DUP3 ADD SWAP1 POP SWAP2 SWAP1 POP JUMP JUMPDEST PUSH32 0x4E487B7100000000000000000000000000000000000000000000000000000000 PUSH1 0x0 MSTORE PUSH1 0x11 PUSH1 0x4 MSTORE PUSH1 0x24 PUSH1 0x0 REVERT JUMPDEST PUSH32 0x4E487B7100000000000000000000000000000000000000000000000000000000 PUSH1 0x0 MSTORE PUSH1 0x21 PUSH1 0x4 MSTORE PUSH1 0x24 PUSH1 0x0 REVERT JUMPDEST PUSH32 0x4E487B7100000000000000000000000000000000000000000000000000000000 PUSH1 0x0 MSTORE PUSH1 0x22 PUSH1 0x4 MSTORE PUSH1 0x24 PUSH1 0x0 REVERT JUMPDEST PUSH32 0x4E487B7100000000000000000000000000000000000000000000000000000000 PUSH1 0x0 MSTORE PUSH1 0x32 PUSH1 0x4 MSTORE PUSH1 0x24 PUSH1 0x0 REVERT JUMPDEST PUSH32 0x4E487B7100000000000000000000000000000000000000000000000000000000 PUSH1 0x0 MSTORE PUSH1 0x41 PUSH1 0x4 MSTORE PUSH1 0x24 PUSH1 0x0 REVERT JUMPDEST PUSH1 0x0 DUP1 REVERT JUMPDEST PUSH1 0x0 DUP1 REVERT JUMPDEST PUSH1 0x0 DUP1 REVERT JUMPDEST PUSH1 0x0 DUP1 REVERT JUMPDEST PUSH1 0x0 DUP1 REVERT JUMPDEST PUSH1 0x0 DUP1 REVERT JUMPDEST PUSH1 0x0 PUSH1 0x1F NOT PUSH1 0x1F DUP4 ADD AND SWAP1 POP SWAP2 SWAP1 POP JUMP JUMPDEST PUSH32 0x5573657220616C72656164792072656769737465726564000000000000000000 PUSH1 0x0 DUP3 ADD MSTORE POP JUMP JUMPDEST PUSH1 0x3 DUP2 LT PUSH2 0x318B JUMPI PUSH2 0x318A PUSH2 0x3066 JUMP JUMPDEST JUMPDEST POP JUMP JUMPDEST PUSH2 0x3197 DUP2 PUSH2 0x2EDC JUMP JUMPDEST DUP2 EQ PUSH2 0x31A2 JUMPI PUSH1 0x0 DUP1 REVERT JUMPDEST POP JUMP JUMPDEST PUSH1 0x3 DUP2 LT PUSH2 0x31B2 JUMPI PUSH1 0x0 DUP1 REVERT JUMPDEST POP JUMP JUMPDEST PUSH2 0x31BE DUP2 PUSH2 0x2F2D JUMP JUMPDEST DUP2 EQ PUSH2 0x31C9 JUMPI PUSH1 0x0 DUP1 REVERT JUMPDEST POP JUMP INVALID LOG2 PUSH5 0x6970667358 0x22 SLT KECCAK256 0xCE SELFDESTRUCT PUSH22 0xAEA01965F88E70957350203D799A1330868010E1CA37 EXTCODECOPY 0xAD CALLVALUE LOG4 0xD4 0x4F DUP8 PUSH5 0x736F6C6343 STOP ADDMOD SMOD STOP CALLER "
				},
				"gasEstimates": {
					"creation": {
						"codeDepositCost": "2560400",
						"executionCost": "2771",
						"totalCost": "2563171"
					},
					"external": {
						"addUser(uint8,bytes,bytes,bytes)": "infinite",
						"deleteUser()": "25690",
						"distributors(uint256)": "4979",
						"editImage(bytes)": "infinite",
						"editName(bytes)": "infinite",
						"editPhysicalAddress(bytes)": "infinite",
						"getAllDistributors()": "infinite",
						"getAllManufacturers()": "infinite",
						"getAllSupplierAddresses()": "infinite",
						"getAllSuppliers()": "infinite",
						"getAllUsers()": "infinite",
						"getSingleUser(address)": "infinite",
						"manufacturers(uint256)": "4979",
						"suppliers(uint256)": "4978",
						"userDetailsMapping(address)": "infinite",
						"users(uint256)": "5046"
					}
				},
				"methodIdentifiers": {
					"addUser(uint8,bytes,bytes,bytes)": "9ae7d008",
					"deleteUser()": "026ff05e",
					"distributors(uint256)": "50b492ba",
					"editImage(bytes)": "d1bab143",
					"editName(bytes)": "0c6c92ba",
					"editPhysicalAddress(bytes)": "6a26d064",
					"getAllDistributors()": "8e24c34b",
					"getAllManufacturers()": "ddba07a4",
					"getAllSupplierAddresses()": "c7bbd67e",
					"getAllSuppliers()": "b53305dc",
					"getAllUsers()": "e2842d79",
					"getSingleUser(address)": "35852541",
					"manufacturers(uint256)": "90175af1",
					"suppliers(uint256)": "cea23121",
					"userDetailsMapping(address)": "5166608f",
					"users(uint256)": "365b98b2"
				}
			},
			"storageLayout": {
				"storage": [
					{
						"astId": 78,
						"contract": "contracts/userDetails.sol:userDetails",
						"label": "userDetailsMapping",
						"offset": 0,
						"slot": "0",
						"type": "t_mapping(t_address,t_struct(userDetails)17_storage)"
					},
					{
						"astId": 82,
						"contract": "contracts/userDetails.sol:userDetails",
						"label": "users",
						"offset": 0,
						"slot": "1",
						"type": "t_array(t_address)dyn_storage"
					},
					{
						"astId": 85,
						"contract": "contracts/userDetails.sol:userDetails",
						"label": "suppliers",
						"offset": 0,
						"slot": "2",
						"type": "t_array(t_address)dyn_storage"
					},
					{
						"astId": 88,
						"contract": "contracts/userDetails.sol:userDetails",
						"label": "manufacturers",
						"offset": 0,
						"slot": "3",
						"type": "t_array(t_address)dyn_storage"
					},
					{
						"astId": 91,
						"contract": "contracts/userDetails.sol:userDetails",
						"label": "distributors",
						"offset": 0,
						"slot": "4",
						"type": "t_array(t_address)dyn_storage"
					}
				],
				"types": {
					"t_address": {
						"encoding": "inplace",
						"label": "address",
						"numberOfBytes": "20"
					},
					"t_array(t_address)dyn_storage": {
						"base": "t_address",
						"encoding": "dynamic_array",
						"label": "address[]",
						"numberOfBytes": "32"
					},
					"t_bool": {
						"encoding": "inplace",
						"label": "bool",
						"numberOfBytes": "1"
					},
					"t_bytes_storage": {
						"encoding": "bytes",
						"label": "bytes",
						"numberOfBytes": "32"
					},
					"t_enum(userType)5": {
						"encoding": "inplace",
						"label": "enum IUserDetails.userType",
						"numberOfBytes": "1"
					},
					"t_mapping(t_address,t_struct(userDetails)17_storage)": {
						"encoding": "mapping",
						"key": "t_address",
						"label": "mapping(address => struct IUserDetails.userDetails)",
						"numberOfBytes": "32",
						"value": "t_struct(userDetails)17_storage"
					},
					"t_struct(userDetails)17_storage": {
						"encoding": "inplace",
						"label": "struct IUserDetails.userDetails",
						"members": [
							{
								"astId": 8,
								"contract": "contracts/userDetails.sol:userDetails",
								"label": "userType",
								"offset": 0,
								"slot": "0",
								"type": "t_enum(userType)5"
							},
							{
								"astId": 10,
								"contract": "contracts/userDetails.sol:userDetails",
								"label": "userName",
								"offset": 0,
								"slot": "1",
								"type": "t_bytes_storage"
							},
							{
								"astId": 12,
								"contract": "contracts/userDetails.sol:userDetails",
								"label": "userPhysicalAddress",
								"offset": 0,
								"slot": "2",
								"type": "t_bytes_storage"
							},
							{
								"astId": 14,
								"contract": "contracts/userDetails.sol:userDetails",
								"label": "userImage",
								"offset": 0,
								"slot": "3",
								"type": "t_bytes_storage"
							},
							{
								"astId": 16,
								"contract": "contracts/userDetails.sol:userDetails",
								"label": "userStatus",
								"offset": 0,
								"slot": "4",
								"type": "t_bool"
							}
						],
						"numberOfBytes": "160"
					}
				}
			},
			"userdoc": {
				"kind": "user",
				"methods": {
					"addUser(uint8,bytes,bytes,bytes)": {
						"notice": "function to add the user"
					},
					"deleteUser()": {
						"notice": "Function to delete the user"
					},
					"editImage(bytes)": {
						"notice": "function to edit the Image of the user"
					},
					"editName(bytes)": {
						"notice": "function to edit the name of the user"
					},
					"editPhysicalAddress(bytes)": {
						"notice": "function to edit the physical address of the user"
					},
					"getAllDistributors()": {
						"notice": "function to return all the users registered as distributors"
					},
					"getAllManufacturers()": {
						"notice": "function to return all the users registered as manufacturers"
					},
					"getAllSuppliers()": {
						"notice": "function to return all the users registered as suppliers"
					},
					"getAllUsers()": {
						"notice": "function to return all the users registered on provyLens"
					},
					"getSingleUser(address)": {
						"notice": "function to return user details of any perticular user"
					},
					"userDetailsMapping(address)": {
						"notice": "mapping address with userDetails struct"
					},
					"users(uint256)": {
						"notice": "array to keep track of user' catogery"
					}
				},
				"version": 1
			}
		}
	}
}