{
	"contracts/supplierProduct.sol": {
		"supplierProduct": {
			"abi": [
				{
					"inputs": [
						{
							"internalType": "bytes",
							"name": "_name",
							"type": "bytes"
						},
						{
							"internalType": "bytes",
							"name": "_description",
							"type": "bytes"
						},
						{
							"internalType": "bytes",
							"name": "_unit",
							"type": "bytes"
						},
						{
							"internalType": "bytes",
							"name": "_price",
							"type": "bytes"
						},
						{
							"internalType": "bytes",
							"name": "_date",
							"type": "bytes"
						},
						{
							"internalType": "bytes",
							"name": "_expiryDate",
							"type": "bytes"
						}
					],
					"name": "addSupplierProduct",
					"outputs": [],
					"stateMutability": "nonpayable",
					"type": "function"
				},
				{
					"inputs": [
						{
							"internalType": "address",
							"name": "",
							"type": "address"
						},
						{
							"internalType": "uint256",
							"name": "",
							"type": "uint256"
						}
					],
					"name": "addressToproductsIdMapping",
					"outputs": [
						{
							"internalType": "uint256",
							"name": "",
							"type": "uint256"
						}
					],
					"stateMutability": "view",
					"type": "function"
				},
				{
					"inputs": [
						{
							"internalType": "uint256",
							"name": "_id",
							"type": "uint256"
						}
					],
					"name": "deleteProduct",
					"outputs": [],
					"stateMutability": "nonpayable",
					"type": "function"
				},
				{
					"inputs": [
						{
							"internalType": "address",
							"name": "_supplierAddress",
							"type": "address"
						}
					],
					"name": "getAllProductsOfSupplier",
					"outputs": [
						{
							"components": [
								{
									"internalType": "address",
									"name": "supplierAddress",
									"type": "address"
								},
								{
									"internalType": "bytes",
									"name": "sp_name",
									"type": "bytes"
								},
								{
									"internalType": "bytes",
									"name": "sp_description",
									"type": "bytes"
								},
								{
									"internalType": "bytes",
									"name": "sp_unit",
									"type": "bytes"
								},
								{
									"internalType": "bytes",
									"name": "sp_price",
									"type": "bytes"
								},
								{
									"internalType": "bytes",
									"name": "sp_date",
									"type": "bytes"
								},
								{
									"internalType": "bytes",
									"name": "sp_expiryDate",
									"type": "bytes"
								}
							],
							"internalType": "struct ISupplierProduct.supplierProduct[]",
							"name": "",
							"type": "tuple[]"
						}
					],
					"stateMutability": "view",
					"type": "function"
				},
				{
					"inputs": [
						{
							"internalType": "uint256",
							"name": "_id",
							"type": "uint256"
						}
					],
					"name": "getSingleProduct",
					"outputs": [
						{
							"components": [
								{
									"internalType": "address",
									"name": "supplierAddress",
									"type": "address"
								},
								{
									"internalType": "bytes",
									"name": "sp_name",
									"type": "bytes"
								},
								{
									"internalType": "bytes",
									"name": "sp_description",
									"type": "bytes"
								},
								{
									"internalType": "bytes",
									"name": "sp_unit",
									"type": "bytes"
								},
								{
									"internalType": "bytes",
									"name": "sp_price",
									"type": "bytes"
								},
								{
									"internalType": "bytes",
									"name": "sp_date",
									"type": "bytes"
								},
								{
									"internalType": "bytes",
									"name": "sp_expiryDate",
									"type": "bytes"
								}
							],
							"internalType": "struct ISupplierProduct.supplierProduct",
							"name": "",
							"type": "tuple"
						}
					],
					"stateMutability": "view",
					"type": "function"
				},
				{
					"inputs": [],
					"name": "getSupplierProductIds",
					"outputs": [
						{
							"internalType": "uint256[]",
							"name": "",
							"type": "uint256[]"
						}
					],
					"stateMutability": "view",
					"type": "function"
				},
				{
					"inputs": [
						{
							"internalType": "uint256",
							"name": "",
							"type": "uint256"
						}
					],
					"name": "productsIdMappingToStructMapping",
					"outputs": [
						{
							"internalType": "address",
							"name": "supplierAddress",
							"type": "address"
						},
						{
							"internalType": "bytes",
							"name": "sp_name",
							"type": "bytes"
						},
						{
							"internalType": "bytes",
							"name": "sp_description",
							"type": "bytes"
						},
						{
							"internalType": "bytes",
							"name": "sp_unit",
							"type": "bytes"
						},
						{
							"internalType": "bytes",
							"name": "sp_price",
							"type": "bytes"
						},
						{
							"internalType": "bytes",
							"name": "sp_date",
							"type": "bytes"
						},
						{
							"internalType": "bytes",
							"name": "sp_expiryDate",
							"type": "bytes"
						}
					],
					"stateMutability": "view",
					"type": "function"
				}
			],
			"devdoc": {
				"kind": "dev",
				"methods": {},
				"version": 1
			},
			"evm": {
				"assembly": "    /* \"contracts/supplierProduct.sol\":117:1859  contract supplierProduct is ISupplierProduct{... */\n  mstore(0x40, 0x80)\n    /* \"contracts/supplierProduct.sol\":190:191  1 */\n  0x01\n    /* \"contracts/supplierProduct.sol\":168:191  uint productCounter = 1 */\n  0x00\n  sstore\n    /* \"contracts/supplierProduct.sol\":117:1859  contract supplierProduct is ISupplierProduct{... */\n  callvalue\n  dup1\n  iszero\n  tag_1\n  jumpi\n  0x00\n  dup1\n  revert\ntag_1:\n  pop\n  dataSize(sub_0)\n  dup1\n  dataOffset(sub_0)\n  0x00\n  codecopy\n  0x00\n  return\nstop\n\nsub_0: assembly {\n        /* \"contracts/supplierProduct.sol\":117:1859  contract supplierProduct is ISupplierProduct{... */\n      mstore(0x40, 0x80)\n      callvalue\n      dup1\n      iszero\n      tag_1\n      jumpi\n      0x00\n      dup1\n      revert\n    tag_1:\n      pop\n      jumpi(tag_2, lt(calldatasize, 0x04))\n      shr(0xe0, calldataload(0x00))\n      dup1\n      0x9e9c191d\n      gt\n      tag_10\n      jumpi\n      dup1\n      0x9e9c191d\n      eq\n      tag_6\n      jumpi\n      dup1\n      0xe10f28c7\n      eq\n      tag_7\n      jumpi\n      dup1\n      0xed90c7b7\n      eq\n      tag_8\n      jumpi\n      dup1\n      0xf4a8dbf9\n      eq\n      tag_9\n      jumpi\n      jump(tag_2)\n    tag_10:\n      dup1\n      0x21c6f9e5\n      eq\n      tag_3\n      jumpi\n      dup1\n      0x2e1f9763\n      eq\n      tag_4\n      jumpi\n      dup1\n      0x83f95853\n      eq\n      tag_5\n      jumpi\n    tag_2:\n      0x00\n      dup1\n      revert\n        /* \"contracts/supplierProduct.sol\":302:362  mapping(address => uint[]) public addressToproductsIdMapping */\n    tag_3:\n      tag_11\n      0x04\n      dup1\n      calldatasize\n      sub\n      dup2\n      add\n      swap1\n      tag_12\n      swap2\n      swap1\n      tag_13\n      jump\t// in\n    tag_12:\n      tag_14\n      jump\t// in\n    tag_11:\n      mload(0x40)\n      tag_15\n      swap2\n      swap1\n      tag_16\n      jump\t// in\n    tag_15:\n      mload(0x40)\n      dup1\n      swap2\n      sub\n      swap1\n      return\n        /* \"contracts/supplierProduct.sol\":1132:1274  function getSingleProduct(uint _id) public view returns(supplierProduct memory){... */\n    tag_4:\n      tag_17\n      0x04\n      dup1\n      calldatasize\n      sub\n      dup2\n      add\n      swap1\n      tag_18\n      swap2\n      swap1\n      tag_19\n      jump\t// in\n    tag_18:\n      tag_20\n      jump\t// in\n    tag_17:\n      mload(0x40)\n      tag_21\n      swap2\n      swap1\n      tag_22\n      jump\t// in\n    tag_21:\n      mload(0x40)\n      dup1\n      swap2\n      sub\n      swap1\n      return\n        /* \"contracts/supplierProduct.sol\":1282:1746  function getAllProductsOfSupplier(address _supplierAddress) public view returns(supplierProduct[] memory)... */\n    tag_5:\n      tag_23\n      0x04\n      dup1\n      calldatasize\n      sub\n      dup2\n      add\n      swap1\n      tag_24\n      swap2\n      swap1\n      tag_25\n      jump\t// in\n    tag_24:\n      tag_26\n      jump\t// in\n    tag_23:\n      mload(0x40)\n      tag_27\n      swap2\n      swap1\n      tag_28\n      jump\t// in\n    tag_27:\n      mload(0x40)\n      dup1\n      swap2\n      sub\n      swap1\n      return\n        /* \"contracts/supplierProduct.sol\":223:295  mapping(uint => supplierProduct) public productsIdMappingToStructMapping */\n    tag_6:\n      tag_29\n      0x04\n      dup1\n      calldatasize\n      sub\n      dup2\n      add\n      swap1\n      tag_30\n      swap2\n      swap1\n      tag_19\n      jump\t// in\n    tag_30:\n      tag_31\n      jump\t// in\n    tag_29:\n      mload(0x40)\n      tag_32\n      swap8\n      swap7\n      swap6\n      swap5\n      swap4\n      swap3\n      swap2\n      swap1\n      tag_33\n      jump\t// in\n    tag_32:\n      mload(0x40)\n      dup1\n      swap2\n      sub\n      swap1\n      return\n        /* \"contracts/supplierProduct.sol\":993:1124  function getSupplierProductIds() public view returns(uint[] memory){... */\n    tag_7:\n      tag_34\n      tag_35\n      jump\t// in\n    tag_34:\n      mload(0x40)\n      tag_36\n      swap2\n      swap1\n      tag_37\n      jump\t// in\n    tag_36:\n      mload(0x40)\n      dup1\n      swap2\n      sub\n      swap1\n      return\n        /* \"contracts/supplierProduct.sol\":1754:1856  function deleteProduct(uint _id)public {... */\n    tag_8:\n      tag_38\n      0x04\n      dup1\n      calldatasize\n      sub\n      dup2\n      add\n      swap1\n      tag_39\n      swap2\n      swap1\n      tag_19\n      jump\t// in\n    tag_39:\n      tag_40\n      jump\t// in\n    tag_38:\n      stop\n        /* \"contracts/supplierProduct.sol\":574:985  function addSupplierProduct(bytes calldata _name,bytes calldata _description,bytes memory _unit,bytes memory _price,bytes memory _date,bytes memory _expiryDate)public {... */\n    tag_9:\n      tag_41\n      0x04\n      dup1\n      calldatasize\n      sub\n      dup2\n      add\n      swap1\n      tag_42\n      swap2\n      swap1\n      tag_43\n      jump\t// in\n    tag_42:\n      tag_44\n      jump\t// in\n    tag_41:\n      stop\n        /* \"contracts/supplierProduct.sol\":302:362  mapping(address => uint[]) public addressToproductsIdMapping */\n    tag_14:\n      mstore(0x20, 0x03)\n      dup2\n      0x00\n      mstore\n      keccak256(0x00, 0x40)\n      dup2\n      dup2\n      sload\n      dup2\n      lt\n      tag_45\n      jumpi\n      0x00\n      dup1\n      revert\n    tag_45:\n      swap1\n      0x00\n      mstore\n      keccak256(0x00, 0x20)\n      add\n      0x00\n      swap2\n      pop\n      swap2\n      pop\n      pop\n      sload\n      dup2\n      jump\t// out\n        /* \"contracts/supplierProduct.sol\":1132:1274  function getSingleProduct(uint _id) public view returns(supplierProduct memory){... */\n    tag_20:\n        /* \"contracts/supplierProduct.sol\":1188:1210  supplierProduct memory */\n      tag_47\n      tag_48\n      jump\t// in\n    tag_47:\n        /* \"contracts/supplierProduct.sol\":1229:1261  productsIdMappingToStructMapping */\n      0x02\n        /* \"contracts/supplierProduct.sol\":1229:1266  productsIdMappingToStructMapping[_id] */\n      0x00\n        /* \"contracts/supplierProduct.sol\":1262:1265  _id */\n      dup4\n        /* \"contracts/supplierProduct.sol\":1229:1266  productsIdMappingToStructMapping[_id] */\n      dup2\n      mstore\n      0x20\n      add\n      swap1\n      dup2\n      mstore\n      0x20\n      add\n      0x00\n      keccak256\n        /* \"contracts/supplierProduct.sol\":1222:1266  return productsIdMappingToStructMapping[_id] */\n      mload(0x40)\n      dup1\n      0xe0\n      add\n      0x40\n      mstore\n      swap1\n      dup2\n      0x00\n      dup3\n      add\n      0x00\n      swap1\n      sload\n      swap1\n      0x0100\n      exp\n      swap1\n      div\n      0xffffffffffffffffffffffffffffffffffffffff\n      and\n      0xffffffffffffffffffffffffffffffffffffffff\n      and\n      0xffffffffffffffffffffffffffffffffffffffff\n      and\n      dup2\n      mstore\n      0x20\n      add\n      0x01\n      dup3\n      add\n      dup1\n      sload\n      tag_50\n      swap1\n      tag_51\n      jump\t// in\n    tag_50:\n      dup1\n      0x1f\n      add\n      0x20\n      dup1\n      swap2\n      div\n      mul\n      0x20\n      add\n      mload(0x40)\n      swap1\n      dup2\n      add\n      0x40\n      mstore\n      dup1\n      swap3\n      swap2\n      swap1\n      dup2\n      dup2\n      mstore\n      0x20\n      add\n      dup3\n      dup1\n      sload\n      tag_52\n      swap1\n      tag_51\n      jump\t// in\n    tag_52:\n      dup1\n      iszero\n      tag_53\n      jumpi\n      dup1\n      0x1f\n      lt\n      tag_54\n      jumpi\n      0x0100\n      dup1\n      dup4\n      sload\n      div\n      mul\n      dup4\n      mstore\n      swap2\n      0x20\n      add\n      swap2\n      jump(tag_53)\n    tag_54:\n      dup3\n      add\n      swap2\n      swap1\n      0x00\n      mstore\n      keccak256(0x00, 0x20)\n      swap1\n    tag_55:\n      dup2\n      sload\n      dup2\n      mstore\n      swap1\n      0x01\n      add\n      swap1\n      0x20\n      add\n      dup1\n      dup4\n      gt\n      tag_55\n      jumpi\n      dup3\n      swap1\n      sub\n      0x1f\n      and\n      dup3\n      add\n      swap2\n    tag_53:\n      pop\n      pop\n      pop\n      pop\n      pop\n      dup2\n      mstore\n      0x20\n      add\n      0x02\n      dup3\n      add\n      dup1\n      sload\n      tag_56\n      swap1\n      tag_51\n      jump\t// in\n    tag_56:\n      dup1\n      0x1f\n      add\n      0x20\n      dup1\n      swap2\n      div\n      mul\n      0x20\n      add\n      mload(0x40)\n      swap1\n      dup2\n      add\n      0x40\n      mstore\n      dup1\n      swap3\n      swap2\n      swap1\n      dup2\n      dup2\n      mstore\n      0x20\n      add\n      dup3\n      dup1\n      sload\n      tag_57\n      swap1\n      tag_51\n      jump\t// in\n    tag_57:\n      dup1\n      iszero\n      tag_58\n      jumpi\n      dup1\n      0x1f\n      lt\n      tag_59\n      jumpi\n      0x0100\n      dup1\n      dup4\n      sload\n      div\n      mul\n      dup4\n      mstore\n      swap2\n      0x20\n      add\n      swap2\n      jump(tag_58)\n    tag_59:\n      dup3\n      add\n      swap2\n      swap1\n      0x00\n      mstore\n      keccak256(0x00, 0x20)\n      swap1\n    tag_60:\n      dup2\n      sload\n      dup2\n      mstore\n      swap1\n      0x01\n      add\n      swap1\n      0x20\n      add\n      dup1\n      dup4\n      gt\n      tag_60\n      jumpi\n      dup3\n      swap1\n      sub\n      0x1f\n      and\n      dup3\n      add\n      swap2\n    tag_58:\n      pop\n      pop\n      pop\n      pop\n      pop\n      dup2\n      mstore\n      0x20\n      add\n      0x03\n      dup3\n      add\n      dup1\n      sload\n      tag_61\n      swap1\n      tag_51\n      jump\t// in\n    tag_61:\n      dup1\n      0x1f\n      add\n      0x20\n      dup1\n      swap2\n      div\n      mul\n      0x20\n      add\n      mload(0x40)\n      swap1\n      dup2\n      add\n      0x40\n      mstore\n      dup1\n      swap3\n      swap2\n      swap1\n      dup2\n      dup2\n      mstore\n      0x20\n      add\n      dup3\n      dup1\n      sload\n      tag_62\n      swap1\n      tag_51\n      jump\t// in\n    tag_62:\n      dup1\n      iszero\n      tag_63\n      jumpi\n      dup1\n      0x1f\n      lt\n      tag_64\n      jumpi\n      0x0100\n      dup1\n      dup4\n      sload\n      div\n      mul\n      dup4\n      mstore\n      swap2\n      0x20\n      add\n      swap2\n      jump(tag_63)\n    tag_64:\n      dup3\n      add\n      swap2\n      swap1\n      0x00\n      mstore\n      keccak256(0x00, 0x20)\n      swap1\n    tag_65:\n      dup2\n      sload\n      dup2\n      mstore\n      swap1\n      0x01\n      add\n      swap1\n      0x20\n      add\n      dup1\n      dup4\n      gt\n      tag_65\n      jumpi\n      dup3\n      swap1\n      sub\n      0x1f\n      and\n      dup3\n      add\n      swap2\n    tag_63:\n      pop\n      pop\n      pop\n      pop\n      pop\n      dup2\n      mstore\n      0x20\n      add\n      0x04\n      dup3\n      add\n      dup1\n      sload\n      tag_66\n      swap1\n      tag_51\n      jump\t// in\n    tag_66:\n      dup1\n      0x1f\n      add\n      0x20\n      dup1\n      swap2\n      div\n      mul\n      0x20\n      add\n      mload(0x40)\n      swap1\n      dup2\n      add\n      0x40\n      mstore\n      dup1\n      swap3\n      swap2\n      swap1\n      dup2\n      dup2\n      mstore\n      0x20\n      add\n      dup3\n      dup1\n      sload\n      tag_67\n      swap1\n      tag_51\n      jump\t// in\n    tag_67:\n      dup1\n      iszero\n      tag_68\n      jumpi\n      dup1\n      0x1f\n      lt\n      tag_69\n      jumpi\n      0x0100\n      dup1\n      dup4\n      sload\n      div\n      mul\n      dup4\n      mstore\n      swap2\n      0x20\n      add\n      swap2\n      jump(tag_68)\n    tag_69:\n      dup3\n      add\n      swap2\n      swap1\n      0x00\n      mstore\n      keccak256(0x00, 0x20)\n      swap1\n    tag_70:\n      dup2\n      sload\n      dup2\n      mstore\n      swap1\n      0x01\n      add\n      swap1\n      0x20\n      add\n      dup1\n      dup4\n      gt\n      tag_70\n      jumpi\n      dup3\n      swap1\n      sub\n      0x1f\n      and\n      dup3\n      add\n      swap2\n    tag_68:\n      pop\n      pop\n      pop\n      pop\n      pop\n      dup2\n      mstore\n      0x20\n      add\n      0x05\n      dup3\n      add\n      dup1\n      sload\n      tag_71\n      swap1\n      tag_51\n      jump\t// in\n    tag_71:\n      dup1\n      0x1f\n      add\n      0x20\n      dup1\n      swap2\n      div\n      mul\n      0x20\n      add\n      mload(0x40)\n      swap1\n      dup2\n      add\n      0x40\n      mstore\n      dup1\n      swap3\n      swap2\n      swap1\n      dup2\n      dup2\n      mstore\n      0x20\n      add\n      dup3\n      dup1\n      sload\n      tag_72\n      swap1\n      tag_51\n      jump\t// in\n    tag_72:\n      dup1\n      iszero\n      tag_73\n      jumpi\n      dup1\n      0x1f\n      lt\n      tag_74\n      jumpi\n      0x0100\n      dup1\n      dup4\n      sload\n      div\n      mul\n      dup4\n      mstore\n      swap2\n      0x20\n      add\n      swap2\n      jump(tag_73)\n    tag_74:\n      dup3\n      add\n      swap2\n      swap1\n      0x00\n      mstore\n      keccak256(0x00, 0x20)\n      swap1\n    tag_75:\n      dup2\n      sload\n      dup2\n      mstore\n      swap1\n      0x01\n      add\n      swap1\n      0x20\n      add\n      dup1\n      dup4\n      gt\n      tag_75\n      jumpi\n      dup3\n      swap1\n      sub\n      0x1f\n      and\n      dup3\n      add\n      swap2\n    tag_73:\n      pop\n      pop\n      pop\n      pop\n      pop\n      dup2\n      mstore\n      0x20\n      add\n      0x06\n      dup3\n      add\n      dup1\n      sload\n      tag_76\n      swap1\n      tag_51\n      jump\t// in\n    tag_76:\n      dup1\n      0x1f\n      add\n      0x20\n      dup1\n      swap2\n      div\n      mul\n      0x20\n      add\n      mload(0x40)\n      swap1\n      dup2\n      add\n      0x40\n      mstore\n      dup1\n      swap3\n      swap2\n      swap1\n      dup2\n      dup2\n      mstore\n      0x20\n      add\n      dup3\n      dup1\n      sload\n      tag_77\n      swap1\n      tag_51\n      jump\t// in\n    tag_77:\n      dup1\n      iszero\n      tag_78\n      jumpi\n      dup1\n      0x1f\n      lt\n      tag_79\n      jumpi\n      0x0100\n      dup1\n      dup4\n      sload\n      div\n      mul\n      dup4\n      mstore\n      swap2\n      0x20\n      add\n      swap2\n      jump(tag_78)\n    tag_79:\n      dup3\n      add\n      swap2\n      swap1\n      0x00\n      mstore\n      keccak256(0x00, 0x20)\n      swap1\n    tag_80:\n      dup2\n      sload\n      dup2\n      mstore\n      swap1\n      0x01\n      add\n      swap1\n      0x20\n      add\n      dup1\n      dup4\n      gt\n      tag_80\n      jumpi\n      dup3\n      swap1\n      sub\n      0x1f\n      and\n      dup3\n      add\n      swap2\n    tag_78:\n      pop\n      pop\n      pop\n      pop\n      pop\n      dup2\n      mstore\n      pop\n      pop\n      swap1\n      pop\n        /* \"contracts/supplierProduct.sol\":1132:1274  function getSingleProduct(uint _id) public view returns(supplierProduct memory){... */\n      swap2\n      swap1\n      pop\n      jump\t// out\n        /* \"contracts/supplierProduct.sol\":1282:1746  function getAllProductsOfSupplier(address _supplierAddress) public view returns(supplierProduct[] memory)... */\n    tag_26:\n        /* \"contracts/supplierProduct.sol\":1362:1386  supplierProduct[] memory */\n      0x60\n        /* \"contracts/supplierProduct.sol\":1404:1428  uint[] memory productIds */\n      0x00\n        /* \"contracts/supplierProduct.sol\":1430:1456  addressToproductsIdMapping */\n      0x03\n        /* \"contracts/supplierProduct.sol\":1430:1474  addressToproductsIdMapping[_supplierAddress] */\n      0x00\n        /* \"contracts/supplierProduct.sol\":1457:1473  _supplierAddress */\n      dup5\n        /* \"contracts/supplierProduct.sol\":1430:1474  addressToproductsIdMapping[_supplierAddress] */\n      0xffffffffffffffffffffffffffffffffffffffff\n      and\n      0xffffffffffffffffffffffffffffffffffffffff\n      and\n      dup2\n      mstore\n      0x20\n      add\n      swap1\n      dup2\n      mstore\n      0x20\n      add\n      0x00\n      keccak256\n        /* \"contracts/supplierProduct.sol\":1404:1474  uint[] memory productIds= addressToproductsIdMapping[_supplierAddress] */\n      dup1\n      sload\n      dup1\n      0x20\n      mul\n      0x20\n      add\n      mload(0x40)\n      swap1\n      dup2\n      add\n      0x40\n      mstore\n      dup1\n      swap3\n      swap2\n      swap1\n      dup2\n      dup2\n      mstore\n      0x20\n      add\n      dup3\n      dup1\n      sload\n      dup1\n      iszero\n      tag_82\n      jumpi\n      0x20\n      mul\n      dup3\n      add\n      swap2\n      swap1\n      0x00\n      mstore\n      keccak256(0x00, 0x20)\n      swap1\n    tag_83:\n      dup2\n      sload\n      dup2\n      mstore\n      0x20\n      add\n      swap1\n      0x01\n      add\n      swap1\n      dup1\n      dup4\n      gt\n      tag_83\n      jumpi\n    tag_82:\n      pop\n      pop\n      pop\n      pop\n      pop\n      swap1\n      pop\n        /* \"contracts/supplierProduct.sol\":1485:1519  supplierProduct[] memory supplierP */\n      0x00\n        /* \"contracts/supplierProduct.sol\":1544:1554  productIds */\n      dup2\n        /* \"contracts/supplierProduct.sol\":1544:1561  productIds.length */\n      mload\n        /* \"contracts/supplierProduct.sol\":1522:1562  new supplierProduct[](productIds.length) */\n      0xffffffffffffffff\n      dup2\n      gt\n      iszero\n      tag_84\n      jumpi\n      tag_85\n      tag_86\n      jump\t// in\n    tag_85:\n    tag_84:\n      mload(0x40)\n      swap1\n      dup1\n      dup3\n      mstore\n      dup1\n      0x20\n      mul\n      0x20\n      add\n      dup3\n      add\n      0x40\n      mstore\n      dup1\n      iszero\n      tag_87\n      jumpi\n      dup2\n      0x20\n      add\n    tag_88:\n      tag_89\n      tag_48\n      jump\t// in\n    tag_89:\n      dup2\n      mstore\n      0x20\n      add\n      swap1\n      0x01\n      swap1\n      sub\n      swap1\n      dup2\n      tag_88\n      jumpi\n      swap1\n      pop\n    tag_87:\n      pop\n        /* \"contracts/supplierProduct.sol\":1485:1562  supplierProduct[] memory supplierP = new supplierProduct[](productIds.length) */\n      swap1\n      pop\n        /* \"contracts/supplierProduct.sol\":1577:1583  uint i */\n      0x00\n        /* \"contracts/supplierProduct.sol\":1573:1712  for(uint i=0;i<productIds.length;i++)... */\n    tag_90:\n        /* \"contracts/supplierProduct.sol\":1588:1598  productIds */\n      dup3\n        /* \"contracts/supplierProduct.sol\":1588:1605  productIds.length */\n      mload\n        /* \"contracts/supplierProduct.sol\":1586:1587  i */\n      dup2\n        /* \"contracts/supplierProduct.sol\":1586:1605  i<productIds.length */\n      lt\n        /* \"contracts/supplierProduct.sol\":1573:1712  for(uint i=0;i<productIds.length;i++)... */\n      iszero\n      tag_91\n      jumpi\n        /* \"contracts/supplierProduct.sol\":1653:1685  productsIdMappingToStructMapping */\n      0x02\n        /* \"contracts/supplierProduct.sol\":1653:1700  productsIdMappingToStructMapping[productIds[i]] */\n      0x00\n        /* \"contracts/supplierProduct.sol\":1686:1696  productIds */\n      dup5\n        /* \"contracts/supplierProduct.sol\":1697:1698  i */\n      dup4\n        /* \"contracts/supplierProduct.sol\":1686:1699  productIds[i] */\n      dup2\n      mload\n      dup2\n      lt\n      tag_93\n      jumpi\n      tag_94\n      tag_95\n      jump\t// in\n    tag_94:\n    tag_93:\n      0x20\n      mul\n      0x20\n      add\n      add\n      mload\n        /* \"contracts/supplierProduct.sol\":1653:1700  productsIdMappingToStructMapping[productIds[i]] */\n      dup2\n      mstore\n      0x20\n      add\n      swap1\n      dup2\n      mstore\n      0x20\n      add\n      0x00\n      keccak256\n        /* \"contracts/supplierProduct.sol\":1639:1700  supplierP[i] =productsIdMappingToStructMapping[productIds[i]] */\n      mload(0x40)\n      dup1\n      0xe0\n      add\n      0x40\n      mstore\n      swap1\n      dup2\n      0x00\n      dup3\n      add\n      0x00\n      swap1\n      sload\n      swap1\n      0x0100\n      exp\n      swap1\n      div\n      0xffffffffffffffffffffffffffffffffffffffff\n      and\n      0xffffffffffffffffffffffffffffffffffffffff\n      and\n      0xffffffffffffffffffffffffffffffffffffffff\n      and\n      dup2\n      mstore\n      0x20\n      add\n      0x01\n      dup3\n      add\n      dup1\n      sload\n      tag_96\n      swap1\n      tag_51\n      jump\t// in\n    tag_96:\n      dup1\n      0x1f\n      add\n      0x20\n      dup1\n      swap2\n      div\n      mul\n      0x20\n      add\n      mload(0x40)\n      swap1\n      dup2\n      add\n      0x40\n      mstore\n      dup1\n      swap3\n      swap2\n      swap1\n      dup2\n      dup2\n      mstore\n      0x20\n      add\n      dup3\n      dup1\n      sload\n      tag_97\n      swap1\n      tag_51\n      jump\t// in\n    tag_97:\n      dup1\n      iszero\n      tag_98\n      jumpi\n      dup1\n      0x1f\n      lt\n      tag_99\n      jumpi\n      0x0100\n      dup1\n      dup4\n      sload\n      div\n      mul\n      dup4\n      mstore\n      swap2\n      0x20\n      add\n      swap2\n      jump(tag_98)\n    tag_99:\n      dup3\n      add\n      swap2\n      swap1\n      0x00\n      mstore\n      keccak256(0x00, 0x20)\n      swap1\n    tag_100:\n      dup2\n      sload\n      dup2\n      mstore\n      swap1\n      0x01\n      add\n      swap1\n      0x20\n      add\n      dup1\n      dup4\n      gt\n      tag_100\n      jumpi\n      dup3\n      swap1\n      sub\n      0x1f\n      and\n      dup3\n      add\n      swap2\n    tag_98:\n      pop\n      pop\n      pop\n      pop\n      pop\n      dup2\n      mstore\n      0x20\n      add\n      0x02\n      dup3\n      add\n      dup1\n      sload\n      tag_101\n      swap1\n      tag_51\n      jump\t// in\n    tag_101:\n      dup1\n      0x1f\n      add\n      0x20\n      dup1\n      swap2\n      div\n      mul\n      0x20\n      add\n      mload(0x40)\n      swap1\n      dup2\n      add\n      0x40\n      mstore\n      dup1\n      swap3\n      swap2\n      swap1\n      dup2\n      dup2\n      mstore\n      0x20\n      add\n      dup3\n      dup1\n      sload\n      tag_102\n      swap1\n      tag_51\n      jump\t// in\n    tag_102:\n      dup1\n      iszero\n      tag_103\n      jumpi\n      dup1\n      0x1f\n      lt\n      tag_104\n      jumpi\n      0x0100\n      dup1\n      dup4\n      sload\n      div\n      mul\n      dup4\n      mstore\n      swap2\n      0x20\n      add\n      swap2\n      jump(tag_103)\n    tag_104:\n      dup3\n      add\n      swap2\n      swap1\n      0x00\n      mstore\n      keccak256(0x00, 0x20)\n      swap1\n    tag_105:\n      dup2\n      sload\n      dup2\n      mstore\n      swap1\n      0x01\n      add\n      swap1\n      0x20\n      add\n      dup1\n      dup4\n      gt\n      tag_105\n      jumpi\n      dup3\n      swap1\n      sub\n      0x1f\n      and\n      dup3\n      add\n      swap2\n    tag_103:\n      pop\n      pop\n      pop\n      pop\n      pop\n      dup2\n      mstore\n      0x20\n      add\n      0x03\n      dup3\n      add\n      dup1\n      sload\n      tag_106\n      swap1\n      tag_51\n      jump\t// in\n    tag_106:\n      dup1\n      0x1f\n      add\n      0x20\n      dup1\n      swap2\n      div\n      mul\n      0x20\n      add\n      mload(0x40)\n      swap1\n      dup2\n      add\n      0x40\n      mstore\n      dup1\n      swap3\n      swap2\n      swap1\n      dup2\n      dup2\n      mstore\n      0x20\n      add\n      dup3\n      dup1\n      sload\n      tag_107\n      swap1\n      tag_51\n      jump\t// in\n    tag_107:\n      dup1\n      iszero\n      tag_108\n      jumpi\n      dup1\n      0x1f\n      lt\n      tag_109\n      jumpi\n      0x0100\n      dup1\n      dup4\n      sload\n      div\n      mul\n      dup4\n      mstore\n      swap2\n      0x20\n      add\n      swap2\n      jump(tag_108)\n    tag_109:\n      dup3\n      add\n      swap2\n      swap1\n      0x00\n      mstore\n      keccak256(0x00, 0x20)\n      swap1\n    tag_110:\n      dup2\n      sload\n      dup2\n      mstore\n      swap1\n      0x01\n      add\n      swap1\n      0x20\n      add\n      dup1\n      dup4\n      gt\n      tag_110\n      jumpi\n      dup3\n      swap1\n      sub\n      0x1f\n      and\n      dup3\n      add\n      swap2\n    tag_108:\n      pop\n      pop\n      pop\n      pop\n      pop\n      dup2\n      mstore\n      0x20\n      add\n      0x04\n      dup3\n      add\n      dup1\n      sload\n      tag_111\n      swap1\n      tag_51\n      jump\t// in\n    tag_111:\n      dup1\n      0x1f\n      add\n      0x20\n      dup1\n      swap2\n      div\n      mul\n      0x20\n      add\n      mload(0x40)\n      swap1\n      dup2\n      add\n      0x40\n      mstore\n      dup1\n      swap3\n      swap2\n      swap1\n      dup2\n      dup2\n      mstore\n      0x20\n      add\n      dup3\n      dup1\n      sload\n      tag_112\n      swap1\n      tag_51\n      jump\t// in\n    tag_112:\n      dup1\n      iszero\n      tag_113\n      jumpi\n      dup1\n      0x1f\n      lt\n      tag_114\n      jumpi\n      0x0100\n      dup1\n      dup4\n      sload\n      div\n      mul\n      dup4\n      mstore\n      swap2\n      0x20\n      add\n      swap2\n      jump(tag_113)\n    tag_114:\n      dup3\n      add\n      swap2\n      swap1\n      0x00\n      mstore\n      keccak256(0x00, 0x20)\n      swap1\n    tag_115:\n      dup2\n      sload\n      dup2\n      mstore\n      swap1\n      0x01\n      add\n      swap1\n      0x20\n      add\n      dup1\n      dup4\n      gt\n      tag_115\n      jumpi\n      dup3\n      swap1\n      sub\n      0x1f\n      and\n      dup3\n      add\n      swap2\n    tag_113:\n      pop\n      pop\n      pop\n      pop\n      pop\n      dup2\n      mstore\n      0x20\n      add\n      0x05\n      dup3\n      add\n      dup1\n      sload\n      tag_116\n      swap1\n      tag_51\n      jump\t// in\n    tag_116:\n      dup1\n      0x1f\n      add\n      0x20\n      dup1\n      swap2\n      div\n      mul\n      0x20\n      add\n      mload(0x40)\n      swap1\n      dup2\n      add\n      0x40\n      mstore\n      dup1\n      swap3\n      swap2\n      swap1\n      dup2\n      dup2\n      mstore\n      0x20\n      add\n      dup3\n      dup1\n      sload\n      tag_117\n      swap1\n      tag_51\n      jump\t// in\n    tag_117:\n      dup1\n      iszero\n      tag_118\n      jumpi\n      dup1\n      0x1f\n      lt\n      tag_119\n      jumpi\n      0x0100\n      dup1\n      dup4\n      sload\n      div\n      mul\n      dup4\n      mstore\n      swap2\n      0x20\n      add\n      swap2\n      jump(tag_118)\n    tag_119:\n      dup3\n      add\n      swap2\n      swap1\n      0x00\n      mstore\n      keccak256(0x00, 0x20)\n      swap1\n    tag_120:\n      dup2\n      sload\n      dup2\n      mstore\n      swap1\n      0x01\n      add\n      swap1\n      0x20\n      add\n      dup1\n      dup4\n      gt\n      tag_120\n      jumpi\n      dup3\n      swap1\n      sub\n      0x1f\n      and\n      dup3\n      add\n      swap2\n    tag_118:\n      pop\n      pop\n      pop\n      pop\n      pop\n      dup2\n      mstore\n      0x20\n      add\n      0x06\n      dup3\n      add\n      dup1\n      sload\n      tag_121\n      swap1\n      tag_51\n      jump\t// in\n    tag_121:\n      dup1\n      0x1f\n      add\n      0x20\n      dup1\n      swap2\n      div\n      mul\n      0x20\n      add\n      mload(0x40)\n      swap1\n      dup2\n      add\n      0x40\n      mstore\n      dup1\n      swap3\n      swap2\n      swap1\n      dup2\n      dup2\n      mstore\n      0x20\n      add\n      dup3\n      dup1\n      sload\n      tag_122\n      swap1\n      tag_51\n      jump\t// in\n    tag_122:\n      dup1\n      iszero\n      tag_123\n      jumpi\n      dup1\n      0x1f\n      lt\n      tag_124\n      jumpi\n      0x0100\n      dup1\n      dup4\n      sload\n      div\n      mul\n      dup4\n      mstore\n      swap2\n      0x20\n      add\n      swap2\n      jump(tag_123)\n    tag_124:\n      dup3\n      add\n      swap2\n      swap1\n      0x00\n      mstore\n      keccak256(0x00, 0x20)\n      swap1\n    tag_125:\n      dup2\n      sload\n      dup2\n      mstore\n      swap1\n      0x01\n      add\n      swap1\n      0x20\n      add\n      dup1\n      dup4\n      gt\n      tag_125\n      jumpi\n      dup3\n      swap1\n      sub\n      0x1f\n      and\n      dup3\n      add\n      swap2\n    tag_123:\n      pop\n      pop\n      pop\n      pop\n      pop\n      dup2\n      mstore\n      pop\n      pop\n        /* \"contracts/supplierProduct.sol\":1639:1648  supplierP */\n      dup3\n        /* \"contracts/supplierProduct.sol\":1649:1650  i */\n      dup3\n        /* \"contracts/supplierProduct.sol\":1639:1651  supplierP[i] */\n      dup2\n      mload\n      dup2\n      lt\n      tag_126\n      jumpi\n      tag_127\n      tag_95\n      jump\t// in\n    tag_127:\n    tag_126:\n      0x20\n      mul\n      0x20\n      add\n      add\n        /* \"contracts/supplierProduct.sol\":1639:1700  supplierP[i] =productsIdMappingToStructMapping[productIds[i]] */\n      dup2\n      swap1\n      mstore\n      pop\n        /* \"contracts/supplierProduct.sol\":1606:1609  i++ */\n      dup1\n      dup1\n      tag_128\n      swap1\n      tag_129\n      jump\t// in\n    tag_128:\n      swap2\n      pop\n      pop\n        /* \"contracts/supplierProduct.sol\":1573:1712  for(uint i=0;i<productIds.length;i++)... */\n      jump(tag_90)\n    tag_91:\n      pop\n        /* \"contracts/supplierProduct.sol\":1729:1738  supplierP */\n      dup1\n        /* \"contracts/supplierProduct.sol\":1722:1738  return supplierP */\n      swap3\n      pop\n      pop\n      pop\n        /* \"contracts/supplierProduct.sol\":1282:1746  function getAllProductsOfSupplier(address _supplierAddress) public view returns(supplierProduct[] memory)... */\n      swap2\n      swap1\n      pop\n      jump\t// out\n        /* \"contracts/supplierProduct.sol\":223:295  mapping(uint => supplierProduct) public productsIdMappingToStructMapping */\n    tag_31:\n      mstore(0x20, 0x02)\n      dup1\n      0x00\n      mstore\n      keccak256(0x00, 0x40)\n      0x00\n      swap2\n      pop\n      swap1\n      pop\n      dup1\n      0x00\n      add\n      0x00\n      swap1\n      sload\n      swap1\n      0x0100\n      exp\n      swap1\n      div\n      0xffffffffffffffffffffffffffffffffffffffff\n      and\n      swap1\n      dup1\n      0x01\n      add\n      dup1\n      sload\n      tag_130\n      swap1\n      tag_51\n      jump\t// in\n    tag_130:\n      dup1\n      0x1f\n      add\n      0x20\n      dup1\n      swap2\n      div\n      mul\n      0x20\n      add\n      mload(0x40)\n      swap1\n      dup2\n      add\n      0x40\n      mstore\n      dup1\n      swap3\n      swap2\n      swap1\n      dup2\n      dup2\n      mstore\n      0x20\n      add\n      dup3\n      dup1\n      sload\n      tag_131\n      swap1\n      tag_51\n      jump\t// in\n    tag_131:\n      dup1\n      iszero\n      tag_132\n      jumpi\n      dup1\n      0x1f\n      lt\n      tag_133\n      jumpi\n      0x0100\n      dup1\n      dup4\n      sload\n      div\n      mul\n      dup4\n      mstore\n      swap2\n      0x20\n      add\n      swap2\n      jump(tag_132)\n    tag_133:\n      dup3\n      add\n      swap2\n      swap1\n      0x00\n      mstore\n      keccak256(0x00, 0x20)\n      swap1\n    tag_134:\n      dup2\n      sload\n      dup2\n      mstore\n      swap1\n      0x01\n      add\n      swap1\n      0x20\n      add\n      dup1\n      dup4\n      gt\n      tag_134\n      jumpi\n      dup3\n      swap1\n      sub\n      0x1f\n      and\n      dup3\n      add\n      swap2\n    tag_132:\n      pop\n      pop\n      pop\n      pop\n      pop\n      swap1\n      dup1\n      0x02\n      add\n      dup1\n      sload\n      tag_135\n      swap1\n      tag_51\n      jump\t// in\n    tag_135:\n      dup1\n      0x1f\n      add\n      0x20\n      dup1\n      swap2\n      div\n      mul\n      0x20\n      add\n      mload(0x40)\n      swap1\n      dup2\n      add\n      0x40\n      mstore\n      dup1\n      swap3\n      swap2\n      swap1\n      dup2\n      dup2\n      mstore\n      0x20\n      add\n      dup3\n      dup1\n      sload\n      tag_136\n      swap1\n      tag_51\n      jump\t// in\n    tag_136:\n      dup1\n      iszero\n      tag_137\n      jumpi\n      dup1\n      0x1f\n      lt\n      tag_138\n      jumpi\n      0x0100\n      dup1\n      dup4\n      sload\n      div\n      mul\n      dup4\n      mstore\n      swap2\n      0x20\n      add\n      swap2\n      jump(tag_137)\n    tag_138:\n      dup3\n      add\n      swap2\n      swap1\n      0x00\n      mstore\n      keccak256(0x00, 0x20)\n      swap1\n    tag_139:\n      dup2\n      sload\n      dup2\n      mstore\n      swap1\n      0x01\n      add\n      swap1\n      0x20\n      add\n      dup1\n      dup4\n      gt\n      tag_139\n      jumpi\n      dup3\n      swap1\n      sub\n      0x1f\n      and\n      dup3\n      add\n      swap2\n    tag_137:\n      pop\n      pop\n      pop\n      pop\n      pop\n      swap1\n      dup1\n      0x03\n      add\n      dup1\n      sload\n      tag_140\n      swap1\n      tag_51\n      jump\t// in\n    tag_140:\n      dup1\n      0x1f\n      add\n      0x20\n      dup1\n      swap2\n      div\n      mul\n      0x20\n      add\n      mload(0x40)\n      swap1\n      dup2\n      add\n      0x40\n      mstore\n      dup1\n      swap3\n      swap2\n      swap1\n      dup2\n      dup2\n      mstore\n      0x20\n      add\n      dup3\n      dup1\n      sload\n      tag_141\n      swap1\n      tag_51\n      jump\t// in\n    tag_141:\n      dup1\n      iszero\n      tag_142\n      jumpi\n      dup1\n      0x1f\n      lt\n      tag_143\n      jumpi\n      0x0100\n      dup1\n      dup4\n      sload\n      div\n      mul\n      dup4\n      mstore\n      swap2\n      0x20\n      add\n      swap2\n      jump(tag_142)\n    tag_143:\n      dup3\n      add\n      swap2\n      swap1\n      0x00\n      mstore\n      keccak256(0x00, 0x20)\n      swap1\n    tag_144:\n      dup2\n      sload\n      dup2\n      mstore\n      swap1\n      0x01\n      add\n      swap1\n      0x20\n      add\n      dup1\n      dup4\n      gt\n      tag_144\n      jumpi\n      dup3\n      swap1\n      sub\n      0x1f\n      and\n      dup3\n      add\n      swap2\n    tag_142:\n      pop\n      pop\n      pop\n      pop\n      pop\n      swap1\n      dup1\n      0x04\n      add\n      dup1\n      sload\n      tag_145\n      swap1\n      tag_51\n      jump\t// in\n    tag_145:\n      dup1\n      0x1f\n      add\n      0x20\n      dup1\n      swap2\n      div\n      mul\n      0x20\n      add\n      mload(0x40)\n      swap1\n      dup2\n      add\n      0x40\n      mstore\n      dup1\n      swap3\n      swap2\n      swap1\n      dup2\n      dup2\n      mstore\n      0x20\n      add\n      dup3\n      dup1\n      sload\n      tag_146\n      swap1\n      tag_51\n      jump\t// in\n    tag_146:\n      dup1\n      iszero\n      tag_147\n      jumpi\n      dup1\n      0x1f\n      lt\n      tag_148\n      jumpi\n      0x0100\n      dup1\n      dup4\n      sload\n      div\n      mul\n      dup4\n      mstore\n      swap2\n      0x20\n      add\n      swap2\n      jump(tag_147)\n    tag_148:\n      dup3\n      add\n      swap2\n      swap1\n      0x00\n      mstore\n      keccak256(0x00, 0x20)\n      swap1\n    tag_149:\n      dup2\n      sload\n      dup2\n      mstore\n      swap1\n      0x01\n      add\n      swap1\n      0x20\n      add\n      dup1\n      dup4\n      gt\n      tag_149\n      jumpi\n      dup3\n      swap1\n      sub\n      0x1f\n      and\n      dup3\n      add\n      swap2\n    tag_147:\n      pop\n      pop\n      pop\n      pop\n      pop\n      swap1\n      dup1\n      0x05\n      add\n      dup1\n      sload\n      tag_150\n      swap1\n      tag_51\n      jump\t// in\n    tag_150:\n      dup1\n      0x1f\n      add\n      0x20\n      dup1\n      swap2\n      div\n      mul\n      0x20\n      add\n      mload(0x40)\n      swap1\n      dup2\n      add\n      0x40\n      mstore\n      dup1\n      swap3\n      swap2\n      swap1\n      dup2\n      dup2\n      mstore\n      0x20\n      add\n      dup3\n      dup1\n      sload\n      tag_151\n      swap1\n      tag_51\n      jump\t// in\n    tag_151:\n      dup1\n      iszero\n      tag_152\n      jumpi\n      dup1\n      0x1f\n      lt\n      tag_153\n      jumpi\n      0x0100\n      dup1\n      dup4\n      sload\n      div\n      mul\n      dup4\n      mstore\n      swap2\n      0x20\n      add\n      swap2\n      jump(tag_152)\n    tag_153:\n      dup3\n      add\n      swap2\n      swap1\n      0x00\n      mstore\n      keccak256(0x00, 0x20)\n      swap1\n    tag_154:\n      dup2\n      sload\n      dup2\n      mstore\n      swap1\n      0x01\n      add\n      swap1\n      0x20\n      add\n      dup1\n      dup4\n      gt\n      tag_154\n      jumpi\n      dup3\n      swap1\n      sub\n      0x1f\n      and\n      dup3\n      add\n      swap2\n    tag_152:\n      pop\n      pop\n      pop\n      pop\n      pop\n      swap1\n      dup1\n      0x06\n      add\n      dup1\n      sload\n      tag_155\n      swap1\n      tag_51\n      jump\t// in\n    tag_155:\n      dup1\n      0x1f\n      add\n      0x20\n      dup1\n      swap2\n      div\n      mul\n      0x20\n      add\n      mload(0x40)\n      swap1\n      dup2\n      add\n      0x40\n      mstore\n      dup1\n      swap3\n      swap2\n      swap1\n      dup2\n      dup2\n      mstore\n      0x20\n      add\n      dup3\n      dup1\n      sload\n      tag_156\n      swap1\n      tag_51\n      jump\t// in\n    tag_156:\n      dup1\n      iszero\n      tag_157\n      jumpi\n      dup1\n      0x1f\n      lt\n      tag_158\n      jumpi\n      0x0100\n      dup1\n      dup4\n      sload\n      div\n      mul\n      dup4\n      mstore\n      swap2\n      0x20\n      add\n      swap2\n      jump(tag_157)\n    tag_158:\n      dup3\n      add\n      swap2\n      swap1\n      0x00\n      mstore\n      keccak256(0x00, 0x20)\n      swap1\n    tag_159:\n      dup2\n      sload\n      dup2\n      mstore\n      swap1\n      0x01\n      add\n      swap1\n      0x20\n      add\n      dup1\n      dup4\n      gt\n      tag_159\n      jumpi\n      dup3\n      swap1\n      sub\n      0x1f\n      and\n      dup3\n      add\n      swap2\n    tag_157:\n      pop\n      pop\n      pop\n      pop\n      pop\n      swap1\n      pop\n      dup8\n      jump\t// out\n        /* \"contracts/supplierProduct.sol\":993:1124  function getSupplierProductIds() public view returns(uint[] memory){... */\n    tag_35:\n        /* \"contracts/supplierProduct.sol\":1046:1059  uint[] memory */\n      0x60\n        /* \"contracts/supplierProduct.sol\":1078:1104  addressToproductsIdMapping */\n      0x03\n        /* \"contracts/supplierProduct.sol\":1078:1116  addressToproductsIdMapping[msg.sender] */\n      0x00\n        /* \"contracts/supplierProduct.sol\":1105:1115  msg.sender */\n      caller\n        /* \"contracts/supplierProduct.sol\":1078:1116  addressToproductsIdMapping[msg.sender] */\n      0xffffffffffffffffffffffffffffffffffffffff\n      and\n      0xffffffffffffffffffffffffffffffffffffffff\n      and\n      dup2\n      mstore\n      0x20\n      add\n      swap1\n      dup2\n      mstore\n      0x20\n      add\n      0x00\n      keccak256\n        /* \"contracts/supplierProduct.sol\":1071:1116  return addressToproductsIdMapping[msg.sender] */\n      dup1\n      sload\n      dup1\n      0x20\n      mul\n      0x20\n      add\n      mload(0x40)\n      swap1\n      dup2\n      add\n      0x40\n      mstore\n      dup1\n      swap3\n      swap2\n      swap1\n      dup2\n      dup2\n      mstore\n      0x20\n      add\n      dup3\n      dup1\n      sload\n      dup1\n      iszero\n      tag_161\n      jumpi\n      0x20\n      mul\n      dup3\n      add\n      swap2\n      swap1\n      0x00\n      mstore\n      keccak256(0x00, 0x20)\n      swap1\n    tag_162:\n      dup2\n      sload\n      dup2\n      mstore\n      0x20\n      add\n      swap1\n      0x01\n      add\n      swap1\n      dup1\n      dup4\n      gt\n      tag_162\n      jumpi\n    tag_161:\n      pop\n      pop\n      pop\n      pop\n      pop\n      swap1\n      pop\n        /* \"contracts/supplierProduct.sol\":993:1124  function getSupplierProductIds() public view returns(uint[] memory){... */\n      swap1\n      jump\t// out\n        /* \"contracts/supplierProduct.sol\":1754:1856  function deleteProduct(uint _id)public {... */\n    tag_40:\n        /* \"contracts/supplierProduct.sol\":1811:1843  productsIdMappingToStructMapping */\n      0x02\n        /* \"contracts/supplierProduct.sol\":1811:1848  productsIdMappingToStructMapping[_id] */\n      0x00\n        /* \"contracts/supplierProduct.sol\":1844:1847  _id */\n      dup3\n        /* \"contracts/supplierProduct.sol\":1811:1848  productsIdMappingToStructMapping[_id] */\n      dup2\n      mstore\n      0x20\n      add\n      swap1\n      dup2\n      mstore\n      0x20\n      add\n      0x00\n      keccak256\n      0x00\n        /* \"contracts/supplierProduct.sol\":1804:1848  delete productsIdMappingToStructMapping[_id] */\n      dup1\n      dup3\n      add\n      exp(0x0100, 0x00)\n      dup2\n      sload\n      swap1\n      0xffffffffffffffffffffffffffffffffffffffff\n      mul\n      not\n      and\n      swap1\n      sstore\n      0x01\n      dup3\n      add\n      0x00\n      tag_164\n      swap2\n      swap1\n      tag_165\n      jump\t// in\n    tag_164:\n      0x02\n      dup3\n      add\n      0x00\n      tag_166\n      swap2\n      swap1\n      tag_165\n      jump\t// in\n    tag_166:\n      0x03\n      dup3\n      add\n      0x00\n      tag_167\n      swap2\n      swap1\n      tag_165\n      jump\t// in\n    tag_167:\n      0x04\n      dup3\n      add\n      0x00\n      tag_168\n      swap2\n      swap1\n      tag_165\n      jump\t// in\n    tag_168:\n      0x05\n      dup3\n      add\n      0x00\n      tag_169\n      swap2\n      swap1\n      tag_165\n      jump\t// in\n    tag_169:\n      0x06\n      dup3\n      add\n      0x00\n      tag_170\n      swap2\n      swap1\n      tag_165\n      jump\t// in\n    tag_170:\n      pop\n      pop\n        /* \"contracts/supplierProduct.sol\":1754:1856  function deleteProduct(uint _id)public {... */\n      pop\n      jump\t// out\n        /* \"contracts/supplierProduct.sol\":574:985  function addSupplierProduct(bytes calldata _name,bytes calldata _description,bytes memory _unit,bytes memory _price,bytes memory _date,bytes memory _expiryDate)public {... */\n    tag_44:\n        /* \"contracts/supplierProduct.sol\":803:880  supplierProduct(msg.sender,_name,_description,_unit,_price,_date,_expiryDate) */\n      mload(0x40)\n      dup1\n      0xe0\n      add\n      0x40\n      mstore\n      dup1\n        /* \"contracts/supplierProduct.sol\":819:829  msg.sender */\n      caller\n        /* \"contracts/supplierProduct.sol\":803:880  supplierProduct(msg.sender,_name,_description,_unit,_price,_date,_expiryDate) */\n      0xffffffffffffffffffffffffffffffffffffffff\n      and\n      dup2\n      mstore\n      0x20\n      add\n        /* \"contracts/supplierProduct.sol\":830:835  _name */\n      dup10\n      dup10\n        /* \"contracts/supplierProduct.sol\":803:880  supplierProduct(msg.sender,_name,_description,_unit,_price,_date,_expiryDate) */\n      dup1\n      dup1\n      0x1f\n      add\n      0x20\n      dup1\n      swap2\n      div\n      mul\n      0x20\n      add\n      mload(0x40)\n      swap1\n      dup2\n      add\n      0x40\n      mstore\n      dup1\n      swap4\n      swap3\n      swap2\n      swap1\n      dup2\n      dup2\n      mstore\n      0x20\n      add\n      dup4\n      dup4\n      dup1\n      dup3\n      dup5\n      calldatacopy\n      0x00\n      dup2\n      dup5\n      add\n      mstore\n      not(0x1f)\n      0x1f\n      dup3\n      add\n      and\n      swap1\n      pop\n      dup1\n      dup4\n      add\n      swap3\n      pop\n      pop\n      pop\n      pop\n      pop\n      pop\n      pop\n      dup2\n      mstore\n      0x20\n      add\n        /* \"contracts/supplierProduct.sol\":836:848  _description */\n      dup8\n      dup8\n        /* \"contracts/supplierProduct.sol\":803:880  supplierProduct(msg.sender,_name,_description,_unit,_price,_date,_expiryDate) */\n      dup1\n      dup1\n      0x1f\n      add\n      0x20\n      dup1\n      swap2\n      div\n      mul\n      0x20\n      add\n      mload(0x40)\n      swap1\n      dup2\n      add\n      0x40\n      mstore\n      dup1\n      swap4\n      swap3\n      swap2\n      swap1\n      dup2\n      dup2\n      mstore\n      0x20\n      add\n      dup4\n      dup4\n      dup1\n      dup3\n      dup5\n      calldatacopy\n      0x00\n      dup2\n      dup5\n      add\n      mstore\n      not(0x1f)\n      0x1f\n      dup3\n      add\n      and\n      swap1\n      pop\n      dup1\n      dup4\n      add\n      swap3\n      pop\n      pop\n      pop\n      pop\n      pop\n      pop\n      pop\n      dup2\n      mstore\n      0x20\n      add\n        /* \"contracts/supplierProduct.sol\":849:854  _unit */\n      dup6\n        /* \"contracts/supplierProduct.sol\":803:880  supplierProduct(msg.sender,_name,_description,_unit,_price,_date,_expiryDate) */\n      dup2\n      mstore\n      0x20\n      add\n        /* \"contracts/supplierProduct.sol\":855:861  _price */\n      dup5\n        /* \"contracts/supplierProduct.sol\":803:880  supplierProduct(msg.sender,_name,_description,_unit,_price,_date,_expiryDate) */\n      dup2\n      mstore\n      0x20\n      add\n        /* \"contracts/supplierProduct.sol\":862:867  _date */\n      dup4\n        /* \"contracts/supplierProduct.sol\":803:880  supplierProduct(msg.sender,_name,_description,_unit,_price,_date,_expiryDate) */\n      dup2\n      mstore\n      0x20\n      add\n        /* \"contracts/supplierProduct.sol\":868:879  _expiryDate */\n      dup3\n        /* \"contracts/supplierProduct.sol\":803:880  supplierProduct(msg.sender,_name,_description,_unit,_price,_date,_expiryDate) */\n      dup2\n      mstore\n      pop\n        /* \"contracts/supplierProduct.sol\":752:784  productsIdMappingToStructMapping */\n      0x02\n        /* \"contracts/supplierProduct.sol\":752:800  productsIdMappingToStructMapping[productCounter] */\n      0x00\n        /* \"contracts/supplierProduct.sol\":785:799  productCounter */\n      dup1\n      sload\n        /* \"contracts/supplierProduct.sol\":752:800  productsIdMappingToStructMapping[productCounter] */\n      dup2\n      mstore\n      0x20\n      add\n      swap1\n      dup2\n      mstore\n      0x20\n      add\n      0x00\n      keccak256\n        /* \"contracts/supplierProduct.sol\":752:880  productsIdMappingToStructMapping[productCounter] = supplierProduct(msg.sender,_name,_description,_unit,_price,_date,_expiryDate) */\n      0x00\n      dup3\n      add\n      mload\n      dup2\n      0x00\n      add\n      exp(0x0100, 0x00)\n      dup2\n      sload\n      dup2\n      0xffffffffffffffffffffffffffffffffffffffff\n      mul\n      not\n      and\n      swap1\n      dup4\n      0xffffffffffffffffffffffffffffffffffffffff\n      and\n      mul\n      or\n      swap1\n      sstore\n      pop\n      0x20\n      dup3\n      add\n      mload\n      dup2\n      0x01\n      add\n      swap1\n      dup2\n      tag_172\n      swap2\n      swap1\n      tag_173\n      jump\t// in\n    tag_172:\n      pop\n      0x40\n      dup3\n      add\n      mload\n      dup2\n      0x02\n      add\n      swap1\n      dup2\n      tag_174\n      swap2\n      swap1\n      tag_173\n      jump\t// in\n    tag_174:\n      pop\n      0x60\n      dup3\n      add\n      mload\n      dup2\n      0x03\n      add\n      swap1\n      dup2\n      tag_175\n      swap2\n      swap1\n      tag_173\n      jump\t// in\n    tag_175:\n      pop\n      0x80\n      dup3\n      add\n      mload\n      dup2\n      0x04\n      add\n      swap1\n      dup2\n      tag_176\n      swap2\n      swap1\n      tag_173\n      jump\t// in\n    tag_176:\n      pop\n      0xa0\n      dup3\n      add\n      mload\n      dup2\n      0x05\n      add\n      swap1\n      dup2\n      tag_177\n      swap2\n      swap1\n      tag_173\n      jump\t// in\n    tag_177:\n      pop\n      0xc0\n      dup3\n      add\n      mload\n      dup2\n      0x06\n      add\n      swap1\n      dup2\n      tag_178\n      swap2\n      swap1\n      tag_173\n      jump\t// in\n    tag_178:\n      pop\n      swap1\n      pop\n      pop\n        /* \"contracts/supplierProduct.sol\":891:917  addressToproductsIdMapping */\n      0x03\n        /* \"contracts/supplierProduct.sol\":891:929  addressToproductsIdMapping[msg.sender] */\n      0x00\n        /* \"contracts/supplierProduct.sol\":918:928  msg.sender */\n      caller\n        /* \"contracts/supplierProduct.sol\":891:929  addressToproductsIdMapping[msg.sender] */\n      0xffffffffffffffffffffffffffffffffffffffff\n      and\n      0xffffffffffffffffffffffffffffffffffffffff\n      and\n      dup2\n      mstore\n      0x20\n      add\n      swap1\n      dup2\n      mstore\n      0x20\n      add\n      0x00\n      keccak256\n        /* \"contracts/supplierProduct.sol\":935:949  productCounter */\n      sload(0x00)\n        /* \"contracts/supplierProduct.sol\":891:950  addressToproductsIdMapping[msg.sender].push(productCounter) */\n      swap1\n      dup1\n      0x01\n      dup2\n      sload\n      add\n      dup1\n      dup3\n      sstore\n      dup1\n      swap2\n      pop\n      pop\n      0x01\n      swap1\n      sub\n      swap1\n      0x00\n      mstore\n      keccak256(0x00, 0x20)\n      add\n      0x00\n      swap1\n      swap2\n      swap1\n      swap2\n      swap1\n      swap2\n      pop\n      sstore\n        /* \"contracts/supplierProduct.sol\":961:975  productCounter */\n      0x00\n      dup1\n        /* \"contracts/supplierProduct.sol\":961:977  productCounter++ */\n      dup2\n      sload\n      dup1\n      swap3\n      swap2\n      swap1\n      tag_180\n      swap1\n      tag_129\n      jump\t// in\n    tag_180:\n      swap2\n      swap1\n      pop\n      sstore\n      pop\n        /* \"contracts/supplierProduct.sol\":574:985  function addSupplierProduct(bytes calldata _name,bytes calldata _description,bytes memory _unit,bytes memory _price,bytes memory _date,bytes memory _expiryDate)public {... */\n      pop\n      pop\n      pop\n      pop\n      pop\n      pop\n      pop\n      pop\n      jump\t// out\n    tag_48:\n      mload(0x40)\n      dup1\n      0xe0\n      add\n      0x40\n      mstore\n      dup1\n      and(0xffffffffffffffffffffffffffffffffffffffff, 0x00)\n      dup2\n      mstore\n      0x20\n      add\n      0x60\n      dup2\n      mstore\n      0x20\n      add\n      0x60\n      dup2\n      mstore\n      0x20\n      add\n      0x60\n      dup2\n      mstore\n      0x20\n      add\n      0x60\n      dup2\n      mstore\n      0x20\n      add\n      0x60\n      dup2\n      mstore\n      0x20\n      add\n      0x60\n      dup2\n      mstore\n      pop\n      swap1\n      jump\t// out\n    tag_165:\n      pop\n      dup1\n      sload\n      tag_181\n      swap1\n      tag_51\n      jump\t// in\n    tag_181:\n      0x00\n      dup3\n      sstore\n      dup1\n      0x1f\n      lt\n      tag_183\n      jumpi\n      pop\n      jump(tag_182)\n    tag_183:\n      0x1f\n      add\n      0x20\n      swap1\n      div\n      swap1\n      0x00\n      mstore\n      keccak256(0x00, 0x20)\n      swap1\n      dup2\n      add\n      swap1\n      tag_184\n      swap2\n      swap1\n      tag_185\n      jump\t// in\n    tag_184:\n    tag_182:\n      pop\n      jump\t// out\n    tag_185:\n    tag_186:\n      dup1\n      dup3\n      gt\n      iszero\n      tag_187\n      jumpi\n      0x00\n      dup2\n      0x00\n      swap1\n      sstore\n      pop\n      0x01\n      add\n      jump(tag_186)\n    tag_187:\n      pop\n      swap1\n      jump\t// out\n        /* \"#utility.yul\":7:82   */\n    tag_188:\n        /* \"#utility.yul\":40:46   */\n      0x00\n        /* \"#utility.yul\":73:75   */\n      0x40\n        /* \"#utility.yul\":67:76   */\n      mload\n        /* \"#utility.yul\":57:76   */\n      swap1\n      pop\n        /* \"#utility.yul\":7:82   */\n      swap1\n      jump\t// out\n        /* \"#utility.yul\":88:205   */\n    tag_189:\n        /* \"#utility.yul\":197:198   */\n      0x00\n        /* \"#utility.yul\":194:195   */\n      dup1\n        /* \"#utility.yul\":187:199   */\n      revert\n        /* \"#utility.yul\":211:328   */\n    tag_190:\n        /* \"#utility.yul\":320:321   */\n      0x00\n        /* \"#utility.yul\":317:318   */\n      dup1\n        /* \"#utility.yul\":310:322   */\n      revert\n        /* \"#utility.yul\":334:460   */\n    tag_191:\n        /* \"#utility.yul\":371:378   */\n      0x00\n        /* \"#utility.yul\":411:453   */\n      0xffffffffffffffffffffffffffffffffffffffff\n        /* \"#utility.yul\":404:409   */\n      dup3\n        /* \"#utility.yul\":400:454   */\n      and\n        /* \"#utility.yul\":389:454   */\n      swap1\n      pop\n        /* \"#utility.yul\":334:460   */\n      swap2\n      swap1\n      pop\n      jump\t// out\n        /* \"#utility.yul\":466:562   */\n    tag_192:\n        /* \"#utility.yul\":503:510   */\n      0x00\n        /* \"#utility.yul\":532:556   */\n      tag_257\n        /* \"#utility.yul\":550:555   */\n      dup3\n        /* \"#utility.yul\":532:556   */\n      tag_191\n      jump\t// in\n    tag_257:\n        /* \"#utility.yul\":521:556   */\n      swap1\n      pop\n        /* \"#utility.yul\":466:562   */\n      swap2\n      swap1\n      pop\n      jump\t// out\n        /* \"#utility.yul\":568:690   */\n    tag_193:\n        /* \"#utility.yul\":641:665   */\n      tag_259\n        /* \"#utility.yul\":659:664   */\n      dup2\n        /* \"#utility.yul\":641:665   */\n      tag_192\n      jump\t// in\n    tag_259:\n        /* \"#utility.yul\":634:639   */\n      dup2\n        /* \"#utility.yul\":631:666   */\n      eq\n        /* \"#utility.yul\":621:684   */\n      tag_260\n      jumpi\n        /* \"#utility.yul\":680:681   */\n      0x00\n        /* \"#utility.yul\":677:678   */\n      dup1\n        /* \"#utility.yul\":670:682   */\n      revert\n        /* \"#utility.yul\":621:684   */\n    tag_260:\n        /* \"#utility.yul\":568:690   */\n      pop\n      jump\t// out\n        /* \"#utility.yul\":696:835   */\n    tag_194:\n        /* \"#utility.yul\":742:747   */\n      0x00\n        /* \"#utility.yul\":780:786   */\n      dup2\n        /* \"#utility.yul\":767:787   */\n      calldataload\n        /* \"#utility.yul\":758:787   */\n      swap1\n      pop\n        /* \"#utility.yul\":796:829   */\n      tag_262\n        /* \"#utility.yul\":823:828   */\n      dup2\n        /* \"#utility.yul\":796:829   */\n      tag_193\n      jump\t// in\n    tag_262:\n        /* \"#utility.yul\":696:835   */\n      swap3\n      swap2\n      pop\n      pop\n      jump\t// out\n        /* \"#utility.yul\":841:918   */\n    tag_195:\n        /* \"#utility.yul\":878:885   */\n      0x00\n        /* \"#utility.yul\":907:912   */\n      dup2\n        /* \"#utility.yul\":896:912   */\n      swap1\n      pop\n        /* \"#utility.yul\":841:918   */\n      swap2\n      swap1\n      pop\n      jump\t// out\n        /* \"#utility.yul\":924:1046   */\n    tag_196:\n        /* \"#utility.yul\":997:1021   */\n      tag_265\n        /* \"#utility.yul\":1015:1020   */\n      dup2\n        /* \"#utility.yul\":997:1021   */\n      tag_195\n      jump\t// in\n    tag_265:\n        /* \"#utility.yul\":990:995   */\n      dup2\n        /* \"#utility.yul\":987:1022   */\n      eq\n        /* \"#utility.yul\":977:1040   */\n      tag_266\n      jumpi\n        /* \"#utility.yul\":1036:1037   */\n      0x00\n        /* \"#utility.yul\":1033:1034   */\n      dup1\n        /* \"#utility.yul\":1026:1038   */\n      revert\n        /* \"#utility.yul\":977:1040   */\n    tag_266:\n        /* \"#utility.yul\":924:1046   */\n      pop\n      jump\t// out\n        /* \"#utility.yul\":1052:1191   */\n    tag_197:\n        /* \"#utility.yul\":1098:1103   */\n      0x00\n        /* \"#utility.yul\":1136:1142   */\n      dup2\n        /* \"#utility.yul\":1123:1143   */\n      calldataload\n        /* \"#utility.yul\":1114:1143   */\n      swap1\n      pop\n        /* \"#utility.yul\":1152:1185   */\n      tag_268\n        /* \"#utility.yul\":1179:1184   */\n      dup2\n        /* \"#utility.yul\":1152:1185   */\n      tag_196\n      jump\t// in\n    tag_268:\n        /* \"#utility.yul\":1052:1191   */\n      swap3\n      swap2\n      pop\n      pop\n      jump\t// out\n        /* \"#utility.yul\":1197:1671   */\n    tag_13:\n        /* \"#utility.yul\":1265:1271   */\n      0x00\n        /* \"#utility.yul\":1273:1279   */\n      dup1\n        /* \"#utility.yul\":1322:1324   */\n      0x40\n        /* \"#utility.yul\":1310:1319   */\n      dup4\n        /* \"#utility.yul\":1301:1308   */\n      dup6\n        /* \"#utility.yul\":1297:1320   */\n      sub\n        /* \"#utility.yul\":1293:1325   */\n      slt\n        /* \"#utility.yul\":1290:1409   */\n      iszero\n      tag_270\n      jumpi\n        /* \"#utility.yul\":1328:1407   */\n      tag_271\n      tag_189\n      jump\t// in\n    tag_271:\n        /* \"#utility.yul\":1290:1409   */\n    tag_270:\n        /* \"#utility.yul\":1448:1449   */\n      0x00\n        /* \"#utility.yul\":1473:1526   */\n      tag_272\n        /* \"#utility.yul\":1518:1525   */\n      dup6\n        /* \"#utility.yul\":1509:1515   */\n      dup3\n        /* \"#utility.yul\":1498:1507   */\n      dup7\n        /* \"#utility.yul\":1494:1516   */\n      add\n        /* \"#utility.yul\":1473:1526   */\n      tag_194\n      jump\t// in\n    tag_272:\n        /* \"#utility.yul\":1463:1526   */\n      swap3\n      pop\n        /* \"#utility.yul\":1419:1536   */\n      pop\n        /* \"#utility.yul\":1575:1577   */\n      0x20\n        /* \"#utility.yul\":1601:1654   */\n      tag_273\n        /* \"#utility.yul\":1646:1653   */\n      dup6\n        /* \"#utility.yul\":1637:1643   */\n      dup3\n        /* \"#utility.yul\":1626:1635   */\n      dup7\n        /* \"#utility.yul\":1622:1644   */\n      add\n        /* \"#utility.yul\":1601:1654   */\n      tag_197\n      jump\t// in\n    tag_273:\n        /* \"#utility.yul\":1591:1654   */\n      swap2\n      pop\n        /* \"#utility.yul\":1546:1664   */\n      pop\n        /* \"#utility.yul\":1197:1671   */\n      swap3\n      pop\n      swap3\n      swap1\n      pop\n      jump\t// out\n        /* \"#utility.yul\":1677:1795   */\n    tag_198:\n        /* \"#utility.yul\":1764:1788   */\n      tag_275\n        /* \"#utility.yul\":1782:1787   */\n      dup2\n        /* \"#utility.yul\":1764:1788   */\n      tag_195\n      jump\t// in\n    tag_275:\n        /* \"#utility.yul\":1759:1762   */\n      dup3\n        /* \"#utility.yul\":1752:1789   */\n      mstore\n        /* \"#utility.yul\":1677:1795   */\n      pop\n      pop\n      jump\t// out\n        /* \"#utility.yul\":1801:2023   */\n    tag_16:\n        /* \"#utility.yul\":1894:1898   */\n      0x00\n        /* \"#utility.yul\":1932:1934   */\n      0x20\n        /* \"#utility.yul\":1921:1930   */\n      dup3\n        /* \"#utility.yul\":1917:1935   */\n      add\n        /* \"#utility.yul\":1909:1935   */\n      swap1\n      pop\n        /* \"#utility.yul\":1945:2016   */\n      tag_277\n        /* \"#utility.yul\":2013:2014   */\n      0x00\n        /* \"#utility.yul\":2002:2011   */\n      dup4\n        /* \"#utility.yul\":1998:2015   */\n      add\n        /* \"#utility.yul\":1989:1995   */\n      dup5\n        /* \"#utility.yul\":1945:2016   */\n      tag_198\n      jump\t// in\n    tag_277:\n        /* \"#utility.yul\":1801:2023   */\n      swap3\n      swap2\n      pop\n      pop\n      jump\t// out\n        /* \"#utility.yul\":2029:2358   */\n    tag_19:\n        /* \"#utility.yul\":2088:2094   */\n      0x00\n        /* \"#utility.yul\":2137:2139   */\n      0x20\n        /* \"#utility.yul\":2125:2134   */\n      dup3\n        /* \"#utility.yul\":2116:2123   */\n      dup5\n        /* \"#utility.yul\":2112:2135   */\n      sub\n        /* \"#utility.yul\":2108:2140   */\n      slt\n        /* \"#utility.yul\":2105:2224   */\n      iszero\n      tag_279\n      jumpi\n        /* \"#utility.yul\":2143:2222   */\n      tag_280\n      tag_189\n      jump\t// in\n    tag_280:\n        /* \"#utility.yul\":2105:2224   */\n    tag_279:\n        /* \"#utility.yul\":2263:2264   */\n      0x00\n        /* \"#utility.yul\":2288:2341   */\n      tag_281\n        /* \"#utility.yul\":2333:2340   */\n      dup5\n        /* \"#utility.yul\":2324:2330   */\n      dup3\n        /* \"#utility.yul\":2313:2322   */\n      dup6\n        /* \"#utility.yul\":2309:2331   */\n      add\n        /* \"#utility.yul\":2288:2341   */\n      tag_197\n      jump\t// in\n    tag_281:\n        /* \"#utility.yul\":2278:2341   */\n      swap2\n      pop\n        /* \"#utility.yul\":2234:2351   */\n      pop\n        /* \"#utility.yul\":2029:2358   */\n      swap3\n      swap2\n      pop\n      pop\n      jump\t// out\n        /* \"#utility.yul\":2364:2472   */\n    tag_199:\n        /* \"#utility.yul\":2441:2465   */\n      tag_283\n        /* \"#utility.yul\":2459:2464   */\n      dup2\n        /* \"#utility.yul\":2441:2465   */\n      tag_192\n      jump\t// in\n    tag_283:\n        /* \"#utility.yul\":2436:2439   */\n      dup3\n        /* \"#utility.yul\":2429:2466   */\n      mstore\n        /* \"#utility.yul\":2364:2472   */\n      pop\n      pop\n      jump\t// out\n        /* \"#utility.yul\":2478:2576   */\n    tag_200:\n        /* \"#utility.yul\":2529:2535   */\n      0x00\n        /* \"#utility.yul\":2563:2568   */\n      dup2\n        /* \"#utility.yul\":2557:2569   */\n      mload\n        /* \"#utility.yul\":2547:2569   */\n      swap1\n      pop\n        /* \"#utility.yul\":2478:2576   */\n      swap2\n      swap1\n      pop\n      jump\t// out\n        /* \"#utility.yul\":2582:2740   */\n    tag_201:\n        /* \"#utility.yul\":2655:2666   */\n      0x00\n        /* \"#utility.yul\":2689:2695   */\n      dup3\n        /* \"#utility.yul\":2684:2687   */\n      dup3\n        /* \"#utility.yul\":2677:2696   */\n      mstore\n        /* \"#utility.yul\":2729:2733   */\n      0x20\n        /* \"#utility.yul\":2724:2727   */\n      dup3\n        /* \"#utility.yul\":2720:2734   */\n      add\n        /* \"#utility.yul\":2705:2734   */\n      swap1\n      pop\n        /* \"#utility.yul\":2582:2740   */\n      swap3\n      swap2\n      pop\n      pop\n      jump\t// out\n        /* \"#utility.yul\":2746:2992   */\n    tag_202:\n        /* \"#utility.yul\":2827:2828   */\n      0x00\n        /* \"#utility.yul\":2837:2950   */\n    tag_287:\n        /* \"#utility.yul\":2851:2857   */\n      dup4\n        /* \"#utility.yul\":2848:2849   */\n      dup2\n        /* \"#utility.yul\":2845:2858   */\n      lt\n        /* \"#utility.yul\":2837:2950   */\n      iszero\n      tag_289\n      jumpi\n        /* \"#utility.yul\":2936:2937   */\n      dup1\n        /* \"#utility.yul\":2931:2934   */\n      dup3\n        /* \"#utility.yul\":2927:2938   */\n      add\n        /* \"#utility.yul\":2921:2939   */\n      mload\n        /* \"#utility.yul\":2917:2918   */\n      dup2\n        /* \"#utility.yul\":2912:2915   */\n      dup5\n        /* \"#utility.yul\":2908:2919   */\n      add\n        /* \"#utility.yul\":2901:2940   */\n      mstore\n        /* \"#utility.yul\":2873:2875   */\n      0x20\n        /* \"#utility.yul\":2870:2871   */\n      dup2\n        /* \"#utility.yul\":2866:2876   */\n      add\n        /* \"#utility.yul\":2861:2876   */\n      swap1\n      pop\n        /* \"#utility.yul\":2837:2950   */\n      jump(tag_287)\n    tag_289:\n        /* \"#utility.yul\":2984:2985   */\n      0x00\n        /* \"#utility.yul\":2975:2981   */\n      dup5\n        /* \"#utility.yul\":2970:2973   */\n      dup5\n        /* \"#utility.yul\":2966:2982   */\n      add\n        /* \"#utility.yul\":2959:2986   */\n      mstore\n        /* \"#utility.yul\":2808:2992   */\n      pop\n        /* \"#utility.yul\":2746:2992   */\n      pop\n      pop\n      pop\n      jump\t// out\n        /* \"#utility.yul\":2998:3100   */\n    tag_203:\n        /* \"#utility.yul\":3039:3045   */\n      0x00\n        /* \"#utility.yul\":3090:3092   */\n      0x1f\n        /* \"#utility.yul\":3086:3093   */\n      not\n        /* \"#utility.yul\":3081:3083   */\n      0x1f\n        /* \"#utility.yul\":3074:3079   */\n      dup4\n        /* \"#utility.yul\":3070:3084   */\n      add\n        /* \"#utility.yul\":3066:3094   */\n      and\n        /* \"#utility.yul\":3056:3094   */\n      swap1\n      pop\n        /* \"#utility.yul\":2998:3100   */\n      swap2\n      swap1\n      pop\n      jump\t// out\n        /* \"#utility.yul\":3106:3459   */\n    tag_204:\n        /* \"#utility.yul\":3182:3185   */\n      0x00\n        /* \"#utility.yul\":3210:3248   */\n      tag_292\n        /* \"#utility.yul\":3242:3247   */\n      dup3\n        /* \"#utility.yul\":3210:3248   */\n      tag_200\n      jump\t// in\n    tag_292:\n        /* \"#utility.yul\":3264:3324   */\n      tag_293\n        /* \"#utility.yul\":3317:3323   */\n      dup2\n        /* \"#utility.yul\":3312:3315   */\n      dup6\n        /* \"#utility.yul\":3264:3324   */\n      tag_201\n      jump\t// in\n    tag_293:\n        /* \"#utility.yul\":3257:3324   */\n      swap4\n      pop\n        /* \"#utility.yul\":3333:3398   */\n      tag_294\n        /* \"#utility.yul\":3391:3397   */\n      dup2\n        /* \"#utility.yul\":3386:3389   */\n      dup6\n        /* \"#utility.yul\":3379:3383   */\n      0x20\n        /* \"#utility.yul\":3372:3377   */\n      dup7\n        /* \"#utility.yul\":3368:3384   */\n      add\n        /* \"#utility.yul\":3333:3398   */\n      tag_202\n      jump\t// in\n    tag_294:\n        /* \"#utility.yul\":3423:3452   */\n      tag_295\n        /* \"#utility.yul\":3445:3451   */\n      dup2\n        /* \"#utility.yul\":3423:3452   */\n      tag_203\n      jump\t// in\n    tag_295:\n        /* \"#utility.yul\":3418:3421   */\n      dup5\n        /* \"#utility.yul\":3414:3453   */\n      add\n        /* \"#utility.yul\":3407:3453   */\n      swap2\n      pop\n        /* \"#utility.yul\":3186:3459   */\n      pop\n        /* \"#utility.yul\":3106:3459   */\n      swap3\n      swap2\n      pop\n      pop\n      jump\t// out\n        /* \"#utility.yul\":3555:5429   */\n    tag_205:\n        /* \"#utility.yul\":3686:3689   */\n      0x00\n        /* \"#utility.yul\":3722:3726   */\n      0xe0\n        /* \"#utility.yul\":3717:3720   */\n      dup4\n        /* \"#utility.yul\":3713:3727   */\n      add\n        /* \"#utility.yul\":3820:3824   */\n      0x00\n        /* \"#utility.yul\":3813:3818   */\n      dup4\n        /* \"#utility.yul\":3809:3825   */\n      add\n        /* \"#utility.yul\":3803:3826   */\n      mload\n        /* \"#utility.yul\":3839:3902   */\n      tag_297\n        /* \"#utility.yul\":3896:3900   */\n      0x00\n        /* \"#utility.yul\":3891:3894   */\n      dup7\n        /* \"#utility.yul\":3887:3901   */\n      add\n        /* \"#utility.yul\":3873:3885   */\n      dup3\n        /* \"#utility.yul\":3839:3902   */\n      tag_199\n      jump\t// in\n    tag_297:\n        /* \"#utility.yul\":3737:3912   */\n      pop\n        /* \"#utility.yul\":3997:4001   */\n      0x20\n        /* \"#utility.yul\":3990:3995   */\n      dup4\n        /* \"#utility.yul\":3986:4002   */\n      add\n        /* \"#utility.yul\":3980:4003   */\n      mload\n        /* \"#utility.yul\":4050:4053   */\n      dup5\n        /* \"#utility.yul\":4044:4048   */\n      dup3\n        /* \"#utility.yul\":4040:4054   */\n      sub\n        /* \"#utility.yul\":4033:4037   */\n      0x20\n        /* \"#utility.yul\":4028:4031   */\n      dup7\n        /* \"#utility.yul\":4024:4038   */\n      add\n        /* \"#utility.yul\":4017:4055   */\n      mstore\n        /* \"#utility.yul\":4076:4147   */\n      tag_298\n        /* \"#utility.yul\":4142:4146   */\n      dup3\n        /* \"#utility.yul\":4128:4140   */\n      dup3\n        /* \"#utility.yul\":4076:4147   */\n      tag_204\n      jump\t// in\n    tag_298:\n        /* \"#utility.yul\":4068:4147   */\n      swap2\n      pop\n        /* \"#utility.yul\":3922:4158   */\n      pop\n        /* \"#utility.yul\":4250:4254   */\n      0x40\n        /* \"#utility.yul\":4243:4248   */\n      dup4\n        /* \"#utility.yul\":4239:4255   */\n      add\n        /* \"#utility.yul\":4233:4256   */\n      mload\n        /* \"#utility.yul\":4303:4306   */\n      dup5\n        /* \"#utility.yul\":4297:4301   */\n      dup3\n        /* \"#utility.yul\":4293:4307   */\n      sub\n        /* \"#utility.yul\":4286:4290   */\n      0x40\n        /* \"#utility.yul\":4281:4284   */\n      dup7\n        /* \"#utility.yul\":4277:4291   */\n      add\n        /* \"#utility.yul\":4270:4308   */\n      mstore\n        /* \"#utility.yul\":4329:4400   */\n      tag_299\n        /* \"#utility.yul\":4395:4399   */\n      dup3\n        /* \"#utility.yul\":4381:4393   */\n      dup3\n        /* \"#utility.yul\":4329:4400   */\n      tag_204\n      jump\t// in\n    tag_299:\n        /* \"#utility.yul\":4321:4400   */\n      swap2\n      pop\n        /* \"#utility.yul\":4168:4411   */\n      pop\n        /* \"#utility.yul\":4496:4500   */\n      0x60\n        /* \"#utility.yul\":4489:4494   */\n      dup4\n        /* \"#utility.yul\":4485:4501   */\n      add\n        /* \"#utility.yul\":4479:4502   */\n      mload\n        /* \"#utility.yul\":4549:4552   */\n      dup5\n        /* \"#utility.yul\":4543:4547   */\n      dup3\n        /* \"#utility.yul\":4539:4553   */\n      sub\n        /* \"#utility.yul\":4532:4536   */\n      0x60\n        /* \"#utility.yul\":4527:4530   */\n      dup7\n        /* \"#utility.yul\":4523:4537   */\n      add\n        /* \"#utility.yul\":4516:4554   */\n      mstore\n        /* \"#utility.yul\":4575:4646   */\n      tag_300\n        /* \"#utility.yul\":4641:4645   */\n      dup3\n        /* \"#utility.yul\":4627:4639   */\n      dup3\n        /* \"#utility.yul\":4575:4646   */\n      tag_204\n      jump\t// in\n    tag_300:\n        /* \"#utility.yul\":4567:4646   */\n      swap2\n      pop\n        /* \"#utility.yul\":4421:4657   */\n      pop\n        /* \"#utility.yul\":4743:4747   */\n      0x80\n        /* \"#utility.yul\":4736:4741   */\n      dup4\n        /* \"#utility.yul\":4732:4748   */\n      add\n        /* \"#utility.yul\":4726:4749   */\n      mload\n        /* \"#utility.yul\":4796:4799   */\n      dup5\n        /* \"#utility.yul\":4790:4794   */\n      dup3\n        /* \"#utility.yul\":4786:4800   */\n      sub\n        /* \"#utility.yul\":4779:4783   */\n      0x80\n        /* \"#utility.yul\":4774:4777   */\n      dup7\n        /* \"#utility.yul\":4770:4784   */\n      add\n        /* \"#utility.yul\":4763:4801   */\n      mstore\n        /* \"#utility.yul\":4822:4893   */\n      tag_301\n        /* \"#utility.yul\":4888:4892   */\n      dup3\n        /* \"#utility.yul\":4874:4886   */\n      dup3\n        /* \"#utility.yul\":4822:4893   */\n      tag_204\n      jump\t// in\n    tag_301:\n        /* \"#utility.yul\":4814:4893   */\n      swap2\n      pop\n        /* \"#utility.yul\":4667:4904   */\n      pop\n        /* \"#utility.yul\":4989:4993   */\n      0xa0\n        /* \"#utility.yul\":4982:4987   */\n      dup4\n        /* \"#utility.yul\":4978:4994   */\n      add\n        /* \"#utility.yul\":4972:4995   */\n      mload\n        /* \"#utility.yul\":5042:5045   */\n      dup5\n        /* \"#utility.yul\":5036:5040   */\n      dup3\n        /* \"#utility.yul\":5032:5046   */\n      sub\n        /* \"#utility.yul\":5025:5029   */\n      0xa0\n        /* \"#utility.yul\":5020:5023   */\n      dup7\n        /* \"#utility.yul\":5016:5030   */\n      add\n        /* \"#utility.yul\":5009:5047   */\n      mstore\n        /* \"#utility.yul\":5068:5139   */\n      tag_302\n        /* \"#utility.yul\":5134:5138   */\n      dup3\n        /* \"#utility.yul\":5120:5132   */\n      dup3\n        /* \"#utility.yul\":5068:5139   */\n      tag_204\n      jump\t// in\n    tag_302:\n        /* \"#utility.yul\":5060:5139   */\n      swap2\n      pop\n        /* \"#utility.yul\":4914:5150   */\n      pop\n        /* \"#utility.yul\":5241:5245   */\n      0xc0\n        /* \"#utility.yul\":5234:5239   */\n      dup4\n        /* \"#utility.yul\":5230:5246   */\n      add\n        /* \"#utility.yul\":5224:5247   */\n      mload\n        /* \"#utility.yul\":5294:5297   */\n      dup5\n        /* \"#utility.yul\":5288:5292   */\n      dup3\n        /* \"#utility.yul\":5284:5298   */\n      sub\n        /* \"#utility.yul\":5277:5281   */\n      0xc0\n        /* \"#utility.yul\":5272:5275   */\n      dup7\n        /* \"#utility.yul\":5268:5282   */\n      add\n        /* \"#utility.yul\":5261:5299   */\n      mstore\n        /* \"#utility.yul\":5320:5391   */\n      tag_303\n        /* \"#utility.yul\":5386:5390   */\n      dup3\n        /* \"#utility.yul\":5372:5384   */\n      dup3\n        /* \"#utility.yul\":5320:5391   */\n      tag_204\n      jump\t// in\n    tag_303:\n        /* \"#utility.yul\":5312:5391   */\n      swap2\n      pop\n        /* \"#utility.yul\":5160:5402   */\n      pop\n        /* \"#utility.yul\":5419:5423   */\n      dup1\n        /* \"#utility.yul\":5412:5423   */\n      swap2\n      pop\n        /* \"#utility.yul\":3691:5429   */\n      pop\n        /* \"#utility.yul\":3555:5429   */\n      swap3\n      swap2\n      pop\n      pop\n      jump\t// out\n        /* \"#utility.yul\":5435:5832   */\n    tag_22:\n        /* \"#utility.yul\":5590:5594   */\n      0x00\n        /* \"#utility.yul\":5628:5630   */\n      0x20\n        /* \"#utility.yul\":5617:5626   */\n      dup3\n        /* \"#utility.yul\":5613:5631   */\n      add\n        /* \"#utility.yul\":5605:5631   */\n      swap1\n      pop\n        /* \"#utility.yul\":5677:5686   */\n      dup2\n        /* \"#utility.yul\":5671:5675   */\n      dup2\n        /* \"#utility.yul\":5667:5687   */\n      sub\n        /* \"#utility.yul\":5663:5664   */\n      0x00\n        /* \"#utility.yul\":5652:5661   */\n      dup4\n        /* \"#utility.yul\":5648:5665   */\n      add\n        /* \"#utility.yul\":5641:5688   */\n      mstore\n        /* \"#utility.yul\":5705:5825   */\n      tag_305\n        /* \"#utility.yul\":5820:5824   */\n      dup2\n        /* \"#utility.yul\":5811:5817   */\n      dup5\n        /* \"#utility.yul\":5705:5825   */\n      tag_205\n      jump\t// in\n    tag_305:\n        /* \"#utility.yul\":5697:5825   */\n      swap1\n      pop\n        /* \"#utility.yul\":5435:5832   */\n      swap3\n      swap2\n      pop\n      pop\n      jump\t// out\n        /* \"#utility.yul\":5838:6167   */\n    tag_25:\n        /* \"#utility.yul\":5897:5903   */\n      0x00\n        /* \"#utility.yul\":5946:5948   */\n      0x20\n        /* \"#utility.yul\":5934:5943   */\n      dup3\n        /* \"#utility.yul\":5925:5932   */\n      dup5\n        /* \"#utility.yul\":5921:5944   */\n      sub\n        /* \"#utility.yul\":5917:5949   */\n      slt\n        /* \"#utility.yul\":5914:6033   */\n      iszero\n      tag_307\n      jumpi\n        /* \"#utility.yul\":5952:6031   */\n      tag_308\n      tag_189\n      jump\t// in\n    tag_308:\n        /* \"#utility.yul\":5914:6033   */\n    tag_307:\n        /* \"#utility.yul\":6072:6073   */\n      0x00\n        /* \"#utility.yul\":6097:6150   */\n      tag_309\n        /* \"#utility.yul\":6142:6149   */\n      dup5\n        /* \"#utility.yul\":6133:6139   */\n      dup3\n        /* \"#utility.yul\":6122:6131   */\n      dup6\n        /* \"#utility.yul\":6118:6140   */\n      add\n        /* \"#utility.yul\":6097:6150   */\n      tag_194\n      jump\t// in\n    tag_309:\n        /* \"#utility.yul\":6087:6150   */\n      swap2\n      pop\n        /* \"#utility.yul\":6043:6160   */\n      pop\n        /* \"#utility.yul\":5838:6167   */\n      swap3\n      swap2\n      pop\n      pop\n      jump\t// out\n        /* \"#utility.yul\":6173:6318   */\n    tag_206:\n        /* \"#utility.yul\":6271:6277   */\n      0x00\n        /* \"#utility.yul\":6305:6310   */\n      dup2\n        /* \"#utility.yul\":6299:6311   */\n      mload\n        /* \"#utility.yul\":6289:6311   */\n      swap1\n      pop\n        /* \"#utility.yul\":6173:6318   */\n      swap2\n      swap1\n      pop\n      jump\t// out\n        /* \"#utility.yul\":6324:6539   */\n    tag_207:\n        /* \"#utility.yul\":6454:6465   */\n      0x00\n        /* \"#utility.yul\":6488:6494   */\n      dup3\n        /* \"#utility.yul\":6483:6486   */\n      dup3\n        /* \"#utility.yul\":6476:6495   */\n      mstore\n        /* \"#utility.yul\":6528:6532   */\n      0x20\n        /* \"#utility.yul\":6523:6526   */\n      dup3\n        /* \"#utility.yul\":6519:6533   */\n      add\n        /* \"#utility.yul\":6504:6533   */\n      swap1\n      pop\n        /* \"#utility.yul\":6324:6539   */\n      swap3\n      swap2\n      pop\n      pop\n      jump\t// out\n        /* \"#utility.yul\":6545:6708   */\n    tag_208:\n        /* \"#utility.yul\":6643:6647   */\n      0x00\n        /* \"#utility.yul\":6666:6669   */\n      dup2\n        /* \"#utility.yul\":6658:6669   */\n      swap1\n      pop\n        /* \"#utility.yul\":6696:6700   */\n      0x20\n        /* \"#utility.yul\":6691:6694   */\n      dup3\n        /* \"#utility.yul\":6687:6701   */\n      add\n        /* \"#utility.yul\":6679:6701   */\n      swap1\n      pop\n        /* \"#utility.yul\":6545:6708   */\n      swap2\n      swap1\n      pop\n      jump\t// out\n        /* \"#utility.yul\":6804:8668   */\n    tag_209:\n        /* \"#utility.yul\":6925:6928   */\n      0x00\n        /* \"#utility.yul\":6961:6965   */\n      0xe0\n        /* \"#utility.yul\":6956:6959   */\n      dup4\n        /* \"#utility.yul\":6952:6966   */\n      add\n        /* \"#utility.yul\":7059:7063   */\n      0x00\n        /* \"#utility.yul\":7052:7057   */\n      dup4\n        /* \"#utility.yul\":7048:7064   */\n      add\n        /* \"#utility.yul\":7042:7065   */\n      mload\n        /* \"#utility.yul\":7078:7141   */\n      tag_314\n        /* \"#utility.yul\":7135:7139   */\n      0x00\n        /* \"#utility.yul\":7130:7133   */\n      dup7\n        /* \"#utility.yul\":7126:7140   */\n      add\n        /* \"#utility.yul\":7112:7124   */\n      dup3\n        /* \"#utility.yul\":7078:7141   */\n      tag_199\n      jump\t// in\n    tag_314:\n        /* \"#utility.yul\":6976:7151   */\n      pop\n        /* \"#utility.yul\":7236:7240   */\n      0x20\n        /* \"#utility.yul\":7229:7234   */\n      dup4\n        /* \"#utility.yul\":7225:7241   */\n      add\n        /* \"#utility.yul\":7219:7242   */\n      mload\n        /* \"#utility.yul\":7289:7292   */\n      dup5\n        /* \"#utility.yul\":7283:7287   */\n      dup3\n        /* \"#utility.yul\":7279:7293   */\n      sub\n        /* \"#utility.yul\":7272:7276   */\n      0x20\n        /* \"#utility.yul\":7267:7270   */\n      dup7\n        /* \"#utility.yul\":7263:7277   */\n      add\n        /* \"#utility.yul\":7256:7294   */\n      mstore\n        /* \"#utility.yul\":7315:7386   */\n      tag_315\n        /* \"#utility.yul\":7381:7385   */\n      dup3\n        /* \"#utility.yul\":7367:7379   */\n      dup3\n        /* \"#utility.yul\":7315:7386   */\n      tag_204\n      jump\t// in\n    tag_315:\n        /* \"#utility.yul\":7307:7386   */\n      swap2\n      pop\n        /* \"#utility.yul\":7161:7397   */\n      pop\n        /* \"#utility.yul\":7489:7493   */\n      0x40\n        /* \"#utility.yul\":7482:7487   */\n      dup4\n        /* \"#utility.yul\":7478:7494   */\n      add\n        /* \"#utility.yul\":7472:7495   */\n      mload\n        /* \"#utility.yul\":7542:7545   */\n      dup5\n        /* \"#utility.yul\":7536:7540   */\n      dup3\n        /* \"#utility.yul\":7532:7546   */\n      sub\n        /* \"#utility.yul\":7525:7529   */\n      0x40\n        /* \"#utility.yul\":7520:7523   */\n      dup7\n        /* \"#utility.yul\":7516:7530   */\n      add\n        /* \"#utility.yul\":7509:7547   */\n      mstore\n        /* \"#utility.yul\":7568:7639   */\n      tag_316\n        /* \"#utility.yul\":7634:7638   */\n      dup3\n        /* \"#utility.yul\":7620:7632   */\n      dup3\n        /* \"#utility.yul\":7568:7639   */\n      tag_204\n      jump\t// in\n    tag_316:\n        /* \"#utility.yul\":7560:7639   */\n      swap2\n      pop\n        /* \"#utility.yul\":7407:7650   */\n      pop\n        /* \"#utility.yul\":7735:7739   */\n      0x60\n        /* \"#utility.yul\":7728:7733   */\n      dup4\n        /* \"#utility.yul\":7724:7740   */\n      add\n        /* \"#utility.yul\":7718:7741   */\n      mload\n        /* \"#utility.yul\":7788:7791   */\n      dup5\n        /* \"#utility.yul\":7782:7786   */\n      dup3\n        /* \"#utility.yul\":7778:7792   */\n      sub\n        /* \"#utility.yul\":7771:7775   */\n      0x60\n        /* \"#utility.yul\":7766:7769   */\n      dup7\n        /* \"#utility.yul\":7762:7776   */\n      add\n        /* \"#utility.yul\":7755:7793   */\n      mstore\n        /* \"#utility.yul\":7814:7885   */\n      tag_317\n        /* \"#utility.yul\":7880:7884   */\n      dup3\n        /* \"#utility.yul\":7866:7878   */\n      dup3\n        /* \"#utility.yul\":7814:7885   */\n      tag_204\n      jump\t// in\n    tag_317:\n        /* \"#utility.yul\":7806:7885   */\n      swap2\n      pop\n        /* \"#utility.yul\":7660:7896   */\n      pop\n        /* \"#utility.yul\":7982:7986   */\n      0x80\n        /* \"#utility.yul\":7975:7980   */\n      dup4\n        /* \"#utility.yul\":7971:7987   */\n      add\n        /* \"#utility.yul\":7965:7988   */\n      mload\n        /* \"#utility.yul\":8035:8038   */\n      dup5\n        /* \"#utility.yul\":8029:8033   */\n      dup3\n        /* \"#utility.yul\":8025:8039   */\n      sub\n        /* \"#utility.yul\":8018:8022   */\n      0x80\n        /* \"#utility.yul\":8013:8016   */\n      dup7\n        /* \"#utility.yul\":8009:8023   */\n      add\n        /* \"#utility.yul\":8002:8040   */\n      mstore\n        /* \"#utility.yul\":8061:8132   */\n      tag_318\n        /* \"#utility.yul\":8127:8131   */\n      dup3\n        /* \"#utility.yul\":8113:8125   */\n      dup3\n        /* \"#utility.yul\":8061:8132   */\n      tag_204\n      jump\t// in\n    tag_318:\n        /* \"#utility.yul\":8053:8132   */\n      swap2\n      pop\n        /* \"#utility.yul\":7906:8143   */\n      pop\n        /* \"#utility.yul\":8228:8232   */\n      0xa0\n        /* \"#utility.yul\":8221:8226   */\n      dup4\n        /* \"#utility.yul\":8217:8233   */\n      add\n        /* \"#utility.yul\":8211:8234   */\n      mload\n        /* \"#utility.yul\":8281:8284   */\n      dup5\n        /* \"#utility.yul\":8275:8279   */\n      dup3\n        /* \"#utility.yul\":8271:8285   */\n      sub\n        /* \"#utility.yul\":8264:8268   */\n      0xa0\n        /* \"#utility.yul\":8259:8262   */\n      dup7\n        /* \"#utility.yul\":8255:8269   */\n      add\n        /* \"#utility.yul\":8248:8286   */\n      mstore\n        /* \"#utility.yul\":8307:8378   */\n      tag_319\n        /* \"#utility.yul\":8373:8377   */\n      dup3\n        /* \"#utility.yul\":8359:8371   */\n      dup3\n        /* \"#utility.yul\":8307:8378   */\n      tag_204\n      jump\t// in\n    tag_319:\n        /* \"#utility.yul\":8299:8378   */\n      swap2\n      pop\n        /* \"#utility.yul\":8153:8389   */\n      pop\n        /* \"#utility.yul\":8480:8484   */\n      0xc0\n        /* \"#utility.yul\":8473:8478   */\n      dup4\n        /* \"#utility.yul\":8469:8485   */\n      add\n        /* \"#utility.yul\":8463:8486   */\n      mload\n        /* \"#utility.yul\":8533:8536   */\n      dup5\n        /* \"#utility.yul\":8527:8531   */\n      dup3\n        /* \"#utility.yul\":8523:8537   */\n      sub\n        /* \"#utility.yul\":8516:8520   */\n      0xc0\n        /* \"#utility.yul\":8511:8514   */\n      dup7\n        /* \"#utility.yul\":8507:8521   */\n      add\n        /* \"#utility.yul\":8500:8538   */\n      mstore\n        /* \"#utility.yul\":8559:8630   */\n      tag_320\n        /* \"#utility.yul\":8625:8629   */\n      dup3\n        /* \"#utility.yul\":8611:8623   */\n      dup3\n        /* \"#utility.yul\":8559:8630   */\n      tag_204\n      jump\t// in\n    tag_320:\n        /* \"#utility.yul\":8551:8630   */\n      swap2\n      pop\n        /* \"#utility.yul\":8399:8641   */\n      pop\n        /* \"#utility.yul\":8658:8662   */\n      dup1\n        /* \"#utility.yul\":8651:8662   */\n      swap2\n      pop\n        /* \"#utility.yul\":6930:8668   */\n      pop\n        /* \"#utility.yul\":6804:8668   */\n      swap3\n      swap2\n      pop\n      pop\n      jump\t// out\n        /* \"#utility.yul\":8674:8954   */\n    tag_210:\n        /* \"#utility.yul\":8805:8815   */\n      0x00\n        /* \"#utility.yul\":8840:8948   */\n      tag_322\n        /* \"#utility.yul\":8944:8947   */\n      dup4\n        /* \"#utility.yul\":8936:8942   */\n      dup4\n        /* \"#utility.yul\":8840:8948   */\n      tag_209\n      jump\t// in\n    tag_322:\n        /* \"#utility.yul\":8826:8948   */\n      swap1\n      pop\n        /* \"#utility.yul\":8674:8954   */\n      swap3\n      swap2\n      pop\n      pop\n      jump\t// out\n        /* \"#utility.yul\":8960:9104   */\n    tag_211:\n        /* \"#utility.yul\":9061:9065   */\n      0x00\n        /* \"#utility.yul\":9093:9097   */\n      0x20\n        /* \"#utility.yul\":9088:9091   */\n      dup3\n        /* \"#utility.yul\":9084:9098   */\n      add\n        /* \"#utility.yul\":9076:9098   */\n      swap1\n      pop\n        /* \"#utility.yul\":8960:9104   */\n      swap2\n      swap1\n      pop\n      jump\t// out\n        /* \"#utility.yul\":9204:10363   */\n    tag_212:\n        /* \"#utility.yul\":9385:9388   */\n      0x00\n        /* \"#utility.yul\":9414:9499   */\n      tag_325\n        /* \"#utility.yul\":9493:9498   */\n      dup3\n        /* \"#utility.yul\":9414:9499   */\n      tag_206\n      jump\t// in\n    tag_325:\n        /* \"#utility.yul\":9515:9632   */\n      tag_326\n        /* \"#utility.yul\":9625:9631   */\n      dup2\n        /* \"#utility.yul\":9620:9623   */\n      dup6\n        /* \"#utility.yul\":9515:9632   */\n      tag_207\n      jump\t// in\n    tag_326:\n        /* \"#utility.yul\":9508:9632   */\n      swap4\n      pop\n        /* \"#utility.yul\":9658:9661   */\n      dup4\n        /* \"#utility.yul\":9703:9707   */\n      0x20\n        /* \"#utility.yul\":9695:9701   */\n      dup3\n        /* \"#utility.yul\":9691:9708   */\n      mul\n        /* \"#utility.yul\":9686:9689   */\n      dup6\n        /* \"#utility.yul\":9682:9709   */\n      add\n        /* \"#utility.yul\":9733:9820   */\n      tag_327\n        /* \"#utility.yul\":9814:9819   */\n      dup6\n        /* \"#utility.yul\":9733:9820   */\n      tag_208\n      jump\t// in\n    tag_327:\n        /* \"#utility.yul\":9843:9850   */\n      dup1\n        /* \"#utility.yul\":9874:9875   */\n      0x00\n        /* \"#utility.yul\":9859:10318   */\n    tag_328:\n        /* \"#utility.yul\":9884:9890   */\n      dup6\n        /* \"#utility.yul\":9881:9882   */\n      dup2\n        /* \"#utility.yul\":9878:9891   */\n      lt\n        /* \"#utility.yul\":9859:10318   */\n      iszero\n      tag_330\n      jumpi\n        /* \"#utility.yul\":9955:9964   */\n      dup5\n        /* \"#utility.yul\":9949:9953   */\n      dup5\n        /* \"#utility.yul\":9945:9965   */\n      sub\n        /* \"#utility.yul\":9940:9943   */\n      dup10\n        /* \"#utility.yul\":9933:9966   */\n      mstore\n        /* \"#utility.yul\":10006:10012   */\n      dup2\n        /* \"#utility.yul\":10000:10013   */\n      mload\n        /* \"#utility.yul\":10034:10160   */\n      tag_331\n        /* \"#utility.yul\":10155:10159   */\n      dup6\n        /* \"#utility.yul\":10140:10153   */\n      dup3\n        /* \"#utility.yul\":10034:10160   */\n      tag_210\n      jump\t// in\n    tag_331:\n        /* \"#utility.yul\":10026:10160   */\n      swap5\n      pop\n        /* \"#utility.yul\":10183:10274   */\n      tag_332\n        /* \"#utility.yul\":10267:10273   */\n      dup4\n        /* \"#utility.yul\":10183:10274   */\n      tag_211\n      jump\t// in\n    tag_332:\n        /* \"#utility.yul\":10173:10274   */\n      swap3\n      pop\n        /* \"#utility.yul\":10303:10307   */\n      0x20\n        /* \"#utility.yul\":10298:10301   */\n      dup11\n        /* \"#utility.yul\":10294:10308   */\n      add\n        /* \"#utility.yul\":10287:10308   */\n      swap10\n      pop\n        /* \"#utility.yul\":9919:10318   */\n      pop\n        /* \"#utility.yul\":9906:9907   */\n      0x01\n        /* \"#utility.yul\":9903:9904   */\n      dup2\n        /* \"#utility.yul\":9899:9908   */\n      add\n        /* \"#utility.yul\":9894:9908   */\n      swap1\n      pop\n        /* \"#utility.yul\":9859:10318   */\n      jump(tag_328)\n    tag_330:\n        /* \"#utility.yul\":9863:9877   */\n      pop\n        /* \"#utility.yul\":10334:10338   */\n      dup3\n        /* \"#utility.yul\":10327:10338   */\n      swap8\n      pop\n        /* \"#utility.yul\":10354:10357   */\n      dup8\n        /* \"#utility.yul\":10347:10357   */\n      swap6\n      pop\n        /* \"#utility.yul\":9390:10363   */\n      pop\n      pop\n      pop\n      pop\n      pop\n        /* \"#utility.yul\":9204:10363   */\n      swap3\n      swap2\n      pop\n      pop\n      jump\t// out\n        /* \"#utility.yul\":10369:10866   */\n    tag_28:\n        /* \"#utility.yul\":10574:10578   */\n      0x00\n        /* \"#utility.yul\":10612:10614   */\n      0x20\n        /* \"#utility.yul\":10601:10610   */\n      dup3\n        /* \"#utility.yul\":10597:10615   */\n      add\n        /* \"#utility.yul\":10589:10615   */\n      swap1\n      pop\n        /* \"#utility.yul\":10661:10670   */\n      dup2\n        /* \"#utility.yul\":10655:10659   */\n      dup2\n        /* \"#utility.yul\":10651:10671   */\n      sub\n        /* \"#utility.yul\":10647:10648   */\n      0x00\n        /* \"#utility.yul\":10636:10645   */\n      dup4\n        /* \"#utility.yul\":10632:10649   */\n      add\n        /* \"#utility.yul\":10625:10672   */\n      mstore\n        /* \"#utility.yul\":10689:10859   */\n      tag_334\n        /* \"#utility.yul\":10854:10858   */\n      dup2\n        /* \"#utility.yul\":10845:10851   */\n      dup5\n        /* \"#utility.yul\":10689:10859   */\n      tag_212\n      jump\t// in\n    tag_334:\n        /* \"#utility.yul\":10681:10859   */\n      swap1\n      pop\n        /* \"#utility.yul\":10369:10866   */\n      swap3\n      swap2\n      pop\n      pop\n      jump\t// out\n        /* \"#utility.yul\":10872:10990   */\n    tag_213:\n        /* \"#utility.yul\":10959:10983   */\n      tag_336\n        /* \"#utility.yul\":10977:10982   */\n      dup2\n        /* \"#utility.yul\":10959:10983   */\n      tag_192\n      jump\t// in\n    tag_336:\n        /* \"#utility.yul\":10954:10957   */\n      dup3\n        /* \"#utility.yul\":10947:10984   */\n      mstore\n        /* \"#utility.yul\":10872:10990   */\n      pop\n      pop\n      jump\t// out\n        /* \"#utility.yul\":10996:11164   */\n    tag_214:\n        /* \"#utility.yul\":11079:11090   */\n      0x00\n        /* \"#utility.yul\":11113:11119   */\n      dup3\n        /* \"#utility.yul\":11108:11111   */\n      dup3\n        /* \"#utility.yul\":11101:11120   */\n      mstore\n        /* \"#utility.yul\":11153:11157   */\n      0x20\n        /* \"#utility.yul\":11148:11151   */\n      dup3\n        /* \"#utility.yul\":11144:11158   */\n      add\n        /* \"#utility.yul\":11129:11158   */\n      swap1\n      pop\n        /* \"#utility.yul\":10996:11164   */\n      swap3\n      swap2\n      pop\n      pop\n      jump\t// out\n        /* \"#utility.yul\":11170:11543   */\n    tag_215:\n        /* \"#utility.yul\":11256:11259   */\n      0x00\n        /* \"#utility.yul\":11284:11322   */\n      tag_339\n        /* \"#utility.yul\":11316:11321   */\n      dup3\n        /* \"#utility.yul\":11284:11322   */\n      tag_200\n      jump\t// in\n    tag_339:\n        /* \"#utility.yul\":11338:11408   */\n      tag_340\n        /* \"#utility.yul\":11401:11407   */\n      dup2\n        /* \"#utility.yul\":11396:11399   */\n      dup6\n        /* \"#utility.yul\":11338:11408   */\n      tag_214\n      jump\t// in\n    tag_340:\n        /* \"#utility.yul\":11331:11408   */\n      swap4\n      pop\n        /* \"#utility.yul\":11417:11482   */\n      tag_341\n        /* \"#utility.yul\":11475:11481   */\n      dup2\n        /* \"#utility.yul\":11470:11473   */\n      dup6\n        /* \"#utility.yul\":11463:11467   */\n      0x20\n        /* \"#utility.yul\":11456:11461   */\n      dup7\n        /* \"#utility.yul\":11452:11468   */\n      add\n        /* \"#utility.yul\":11417:11482   */\n      tag_202\n      jump\t// in\n    tag_341:\n        /* \"#utility.yul\":11507:11536   */\n      tag_342\n        /* \"#utility.yul\":11529:11535   */\n      dup2\n        /* \"#utility.yul\":11507:11536   */\n      tag_203\n      jump\t// in\n    tag_342:\n        /* \"#utility.yul\":11502:11505   */\n      dup5\n        /* \"#utility.yul\":11498:11537   */\n      add\n        /* \"#utility.yul\":11491:11537   */\n      swap2\n      pop\n        /* \"#utility.yul\":11260:11543   */\n      pop\n        /* \"#utility.yul\":11170:11543   */\n      swap3\n      swap2\n      pop\n      pop\n      jump\t// out\n        /* \"#utility.yul\":11549:12957   */\n    tag_33:\n        /* \"#utility.yul\":11918:11922   */\n      0x00\n        /* \"#utility.yul\":11956:11959   */\n      0xe0\n        /* \"#utility.yul\":11945:11954   */\n      dup3\n        /* \"#utility.yul\":11941:11960   */\n      add\n        /* \"#utility.yul\":11933:11960   */\n      swap1\n      pop\n        /* \"#utility.yul\":11970:12041   */\n      tag_344\n        /* \"#utility.yul\":12038:12039   */\n      0x00\n        /* \"#utility.yul\":12027:12036   */\n      dup4\n        /* \"#utility.yul\":12023:12040   */\n      add\n        /* \"#utility.yul\":12014:12020   */\n      dup11\n        /* \"#utility.yul\":11970:12041   */\n      tag_213\n      jump\t// in\n    tag_344:\n        /* \"#utility.yul\":12088:12097   */\n      dup2\n        /* \"#utility.yul\":12082:12086   */\n      dup2\n        /* \"#utility.yul\":12078:12098   */\n      sub\n        /* \"#utility.yul\":12073:12075   */\n      0x20\n        /* \"#utility.yul\":12062:12071   */\n      dup4\n        /* \"#utility.yul\":12058:12076   */\n      add\n        /* \"#utility.yul\":12051:12099   */\n      mstore\n        /* \"#utility.yul\":12116:12192   */\n      tag_345\n        /* \"#utility.yul\":12187:12191   */\n      dup2\n        /* \"#utility.yul\":12178:12184   */\n      dup10\n        /* \"#utility.yul\":12116:12192   */\n      tag_215\n      jump\t// in\n    tag_345:\n        /* \"#utility.yul\":12108:12192   */\n      swap1\n      pop\n        /* \"#utility.yul\":12239:12248   */\n      dup2\n        /* \"#utility.yul\":12233:12237   */\n      dup2\n        /* \"#utility.yul\":12229:12249   */\n      sub\n        /* \"#utility.yul\":12224:12226   */\n      0x40\n        /* \"#utility.yul\":12213:12222   */\n      dup4\n        /* \"#utility.yul\":12209:12227   */\n      add\n        /* \"#utility.yul\":12202:12250   */\n      mstore\n        /* \"#utility.yul\":12267:12343   */\n      tag_346\n        /* \"#utility.yul\":12338:12342   */\n      dup2\n        /* \"#utility.yul\":12329:12335   */\n      dup9\n        /* \"#utility.yul\":12267:12343   */\n      tag_215\n      jump\t// in\n    tag_346:\n        /* \"#utility.yul\":12259:12343   */\n      swap1\n      pop\n        /* \"#utility.yul\":12390:12399   */\n      dup2\n        /* \"#utility.yul\":12384:12388   */\n      dup2\n        /* \"#utility.yul\":12380:12400   */\n      sub\n        /* \"#utility.yul\":12375:12377   */\n      0x60\n        /* \"#utility.yul\":12364:12373   */\n      dup4\n        /* \"#utility.yul\":12360:12378   */\n      add\n        /* \"#utility.yul\":12353:12401   */\n      mstore\n        /* \"#utility.yul\":12418:12494   */\n      tag_347\n        /* \"#utility.yul\":12489:12493   */\n      dup2\n        /* \"#utility.yul\":12480:12486   */\n      dup8\n        /* \"#utility.yul\":12418:12494   */\n      tag_215\n      jump\t// in\n    tag_347:\n        /* \"#utility.yul\":12410:12494   */\n      swap1\n      pop\n        /* \"#utility.yul\":12542:12551   */\n      dup2\n        /* \"#utility.yul\":12536:12540   */\n      dup2\n        /* \"#utility.yul\":12532:12552   */\n      sub\n        /* \"#utility.yul\":12526:12529   */\n      0x80\n        /* \"#utility.yul\":12515:12524   */\n      dup4\n        /* \"#utility.yul\":12511:12530   */\n      add\n        /* \"#utility.yul\":12504:12553   */\n      mstore\n        /* \"#utility.yul\":12570:12646   */\n      tag_348\n        /* \"#utility.yul\":12641:12645   */\n      dup2\n        /* \"#utility.yul\":12632:12638   */\n      dup7\n        /* \"#utility.yul\":12570:12646   */\n      tag_215\n      jump\t// in\n    tag_348:\n        /* \"#utility.yul\":12562:12646   */\n      swap1\n      pop\n        /* \"#utility.yul\":12694:12703   */\n      dup2\n        /* \"#utility.yul\":12688:12692   */\n      dup2\n        /* \"#utility.yul\":12684:12704   */\n      sub\n        /* \"#utility.yul\":12678:12681   */\n      0xa0\n        /* \"#utility.yul\":12667:12676   */\n      dup4\n        /* \"#utility.yul\":12663:12682   */\n      add\n        /* \"#utility.yul\":12656:12705   */\n      mstore\n        /* \"#utility.yul\":12722:12798   */\n      tag_349\n        /* \"#utility.yul\":12793:12797   */\n      dup2\n        /* \"#utility.yul\":12784:12790   */\n      dup6\n        /* \"#utility.yul\":12722:12798   */\n      tag_215\n      jump\t// in\n    tag_349:\n        /* \"#utility.yul\":12714:12798   */\n      swap1\n      pop\n        /* \"#utility.yul\":12846:12855   */\n      dup2\n        /* \"#utility.yul\":12840:12844   */\n      dup2\n        /* \"#utility.yul\":12836:12856   */\n      sub\n        /* \"#utility.yul\":12830:12833   */\n      0xc0\n        /* \"#utility.yul\":12819:12828   */\n      dup4\n        /* \"#utility.yul\":12815:12834   */\n      add\n        /* \"#utility.yul\":12808:12857   */\n      mstore\n        /* \"#utility.yul\":12874:12950   */\n      tag_350\n        /* \"#utility.yul\":12945:12949   */\n      dup2\n        /* \"#utility.yul\":12936:12942   */\n      dup5\n        /* \"#utility.yul\":12874:12950   */\n      tag_215\n      jump\t// in\n    tag_350:\n        /* \"#utility.yul\":12866:12950   */\n      swap1\n      pop\n        /* \"#utility.yul\":11549:12957   */\n      swap9\n      swap8\n      pop\n      pop\n      pop\n      pop\n      pop\n      pop\n      pop\n      pop\n      jump\t// out\n        /* \"#utility.yul\":12963:13077   */\n    tag_216:\n        /* \"#utility.yul\":13030:13036   */\n      0x00\n        /* \"#utility.yul\":13064:13069   */\n      dup2\n        /* \"#utility.yul\":13058:13070   */\n      mload\n        /* \"#utility.yul\":13048:13070   */\n      swap1\n      pop\n        /* \"#utility.yul\":12963:13077   */\n      swap2\n      swap1\n      pop\n      jump\t// out\n        /* \"#utility.yul\":13083:13267   */\n    tag_217:\n        /* \"#utility.yul\":13182:13193   */\n      0x00\n        /* \"#utility.yul\":13216:13222   */\n      dup3\n        /* \"#utility.yul\":13211:13214   */\n      dup3\n        /* \"#utility.yul\":13204:13223   */\n      mstore\n        /* \"#utility.yul\":13256:13260   */\n      0x20\n        /* \"#utility.yul\":13251:13254   */\n      dup3\n        /* \"#utility.yul\":13247:13261   */\n      add\n        /* \"#utility.yul\":13232:13261   */\n      swap1\n      pop\n        /* \"#utility.yul\":13083:13267   */\n      swap3\n      swap2\n      pop\n      pop\n      jump\t// out\n        /* \"#utility.yul\":13273:13405   */\n    tag_218:\n        /* \"#utility.yul\":13340:13344   */\n      0x00\n        /* \"#utility.yul\":13363:13366   */\n      dup2\n        /* \"#utility.yul\":13355:13366   */\n      swap1\n      pop\n        /* \"#utility.yul\":13393:13397   */\n      0x20\n        /* \"#utility.yul\":13388:13391   */\n      dup3\n        /* \"#utility.yul\":13384:13398   */\n      add\n        /* \"#utility.yul\":13376:13398   */\n      swap1\n      pop\n        /* \"#utility.yul\":13273:13405   */\n      swap2\n      swap1\n      pop\n      jump\t// out\n        /* \"#utility.yul\":13411:13519   */\n    tag_219:\n        /* \"#utility.yul\":13488:13512   */\n      tag_355\n        /* \"#utility.yul\":13506:13511   */\n      dup2\n        /* \"#utility.yul\":13488:13512   */\n      tag_195\n      jump\t// in\n    tag_355:\n        /* \"#utility.yul\":13483:13486   */\n      dup3\n        /* \"#utility.yul\":13476:13513   */\n      mstore\n        /* \"#utility.yul\":13411:13519   */\n      pop\n      pop\n      jump\t// out\n        /* \"#utility.yul\":13525:13704   */\n    tag_220:\n        /* \"#utility.yul\":13594:13604   */\n      0x00\n        /* \"#utility.yul\":13615:13661   */\n      tag_357\n        /* \"#utility.yul\":13657:13660   */\n      dup4\n        /* \"#utility.yul\":13649:13655   */\n      dup4\n        /* \"#utility.yul\":13615:13661   */\n      tag_219\n      jump\t// in\n    tag_357:\n        /* \"#utility.yul\":13693:13697   */\n      0x20\n        /* \"#utility.yul\":13688:13691   */\n      dup4\n        /* \"#utility.yul\":13684:13698   */\n      add\n        /* \"#utility.yul\":13670:13698   */\n      swap1\n      pop\n        /* \"#utility.yul\":13525:13704   */\n      swap3\n      swap2\n      pop\n      pop\n      jump\t// out\n        /* \"#utility.yul\":13710:13823   */\n    tag_221:\n        /* \"#utility.yul\":13780:13784   */\n      0x00\n        /* \"#utility.yul\":13812:13816   */\n      0x20\n        /* \"#utility.yul\":13807:13810   */\n      dup3\n        /* \"#utility.yul\":13803:13817   */\n      add\n        /* \"#utility.yul\":13795:13817   */\n      swap1\n      pop\n        /* \"#utility.yul\":13710:13823   */\n      swap2\n      swap1\n      pop\n      jump\t// out\n        /* \"#utility.yul\":13859:14591   */\n    tag_222:\n        /* \"#utility.yul\":13978:13981   */\n      0x00\n        /* \"#utility.yul\":14007:14061   */\n      tag_360\n        /* \"#utility.yul\":14055:14060   */\n      dup3\n        /* \"#utility.yul\":14007:14061   */\n      tag_216\n      jump\t// in\n    tag_360:\n        /* \"#utility.yul\":14077:14163   */\n      tag_361\n        /* \"#utility.yul\":14156:14162   */\n      dup2\n        /* \"#utility.yul\":14151:14154   */\n      dup6\n        /* \"#utility.yul\":14077:14163   */\n      tag_217\n      jump\t// in\n    tag_361:\n        /* \"#utility.yul\":14070:14163   */\n      swap4\n      pop\n        /* \"#utility.yul\":14187:14243   */\n      tag_362\n        /* \"#utility.yul\":14237:14242   */\n      dup4\n        /* \"#utility.yul\":14187:14243   */\n      tag_218\n      jump\t// in\n    tag_362:\n        /* \"#utility.yul\":14266:14273   */\n      dup1\n        /* \"#utility.yul\":14297:14298   */\n      0x00\n        /* \"#utility.yul\":14282:14566   */\n    tag_363:\n        /* \"#utility.yul\":14307:14313   */\n      dup4\n        /* \"#utility.yul\":14304:14305   */\n      dup2\n        /* \"#utility.yul\":14301:14314   */\n      lt\n        /* \"#utility.yul\":14282:14566   */\n      iszero\n      tag_365\n      jumpi\n        /* \"#utility.yul\":14383:14389   */\n      dup2\n        /* \"#utility.yul\":14377:14390   */\n      mload\n        /* \"#utility.yul\":14410:14473   */\n      tag_366\n        /* \"#utility.yul\":14469:14472   */\n      dup9\n        /* \"#utility.yul\":14454:14467   */\n      dup3\n        /* \"#utility.yul\":14410:14473   */\n      tag_220\n      jump\t// in\n    tag_366:\n        /* \"#utility.yul\":14403:14473   */\n      swap8\n      pop\n        /* \"#utility.yul\":14496:14556   */\n      tag_367\n        /* \"#utility.yul\":14549:14555   */\n      dup4\n        /* \"#utility.yul\":14496:14556   */\n      tag_221\n      jump\t// in\n    tag_367:\n        /* \"#utility.yul\":14486:14556   */\n      swap3\n      pop\n        /* \"#utility.yul\":14342:14566   */\n      pop\n        /* \"#utility.yul\":14329:14330   */\n      0x01\n        /* \"#utility.yul\":14326:14327   */\n      dup2\n        /* \"#utility.yul\":14322:14331   */\n      add\n        /* \"#utility.yul\":14317:14331   */\n      swap1\n      pop\n        /* \"#utility.yul\":14282:14566   */\n      jump(tag_363)\n    tag_365:\n        /* \"#utility.yul\":14286:14300   */\n      pop\n        /* \"#utility.yul\":14582:14585   */\n      dup6\n        /* \"#utility.yul\":14575:14585   */\n      swap4\n      pop\n        /* \"#utility.yul\":13983:14591   */\n      pop\n      pop\n      pop\n        /* \"#utility.yul\":13859:14591   */\n      swap3\n      swap2\n      pop\n      pop\n      jump\t// out\n        /* \"#utility.yul\":14597:14970   */\n    tag_37:\n        /* \"#utility.yul\":14740:14744   */\n      0x00\n        /* \"#utility.yul\":14778:14780   */\n      0x20\n        /* \"#utility.yul\":14767:14776   */\n      dup3\n        /* \"#utility.yul\":14763:14781   */\n      add\n        /* \"#utility.yul\":14755:14781   */\n      swap1\n      pop\n        /* \"#utility.yul\":14827:14836   */\n      dup2\n        /* \"#utility.yul\":14821:14825   */\n      dup2\n        /* \"#utility.yul\":14817:14837   */\n      sub\n        /* \"#utility.yul\":14813:14814   */\n      0x00\n        /* \"#utility.yul\":14802:14811   */\n      dup4\n        /* \"#utility.yul\":14798:14815   */\n      add\n        /* \"#utility.yul\":14791:14838   */\n      mstore\n        /* \"#utility.yul\":14855:14963   */\n      tag_369\n        /* \"#utility.yul\":14958:14962   */\n      dup2\n        /* \"#utility.yul\":14949:14955   */\n      dup5\n        /* \"#utility.yul\":14855:14963   */\n      tag_222\n      jump\t// in\n    tag_369:\n        /* \"#utility.yul\":14847:14963   */\n      swap1\n      pop\n        /* \"#utility.yul\":14597:14970   */\n      swap3\n      swap2\n      pop\n      pop\n      jump\t// out\n        /* \"#utility.yul\":14976:15093   */\n    tag_223:\n        /* \"#utility.yul\":15085:15086   */\n      0x00\n        /* \"#utility.yul\":15082:15083   */\n      dup1\n        /* \"#utility.yul\":15075:15087   */\n      revert\n        /* \"#utility.yul\":15099:15216   */\n    tag_224:\n        /* \"#utility.yul\":15208:15209   */\n      0x00\n        /* \"#utility.yul\":15205:15206   */\n      dup1\n        /* \"#utility.yul\":15198:15210   */\n      revert\n        /* \"#utility.yul\":15222:15339   */\n    tag_225:\n        /* \"#utility.yul\":15331:15332   */\n      0x00\n        /* \"#utility.yul\":15328:15329   */\n      dup1\n        /* \"#utility.yul\":15321:15333   */\n      revert\n        /* \"#utility.yul\":15358:15910   */\n    tag_226:\n        /* \"#utility.yul\":15415:15423   */\n      0x00\n        /* \"#utility.yul\":15425:15431   */\n      dup1\n        /* \"#utility.yul\":15475:15478   */\n      dup4\n        /* \"#utility.yul\":15468:15472   */\n      0x1f\n        /* \"#utility.yul\":15460:15466   */\n      dup5\n        /* \"#utility.yul\":15456:15473   */\n      add\n        /* \"#utility.yul\":15452:15479   */\n      slt\n        /* \"#utility.yul\":15442:15564   */\n      tag_374\n      jumpi\n        /* \"#utility.yul\":15483:15562   */\n      tag_375\n      tag_223\n      jump\t// in\n    tag_375:\n        /* \"#utility.yul\":15442:15564   */\n    tag_374:\n        /* \"#utility.yul\":15596:15602   */\n      dup3\n        /* \"#utility.yul\":15583:15603   */\n      calldataload\n        /* \"#utility.yul\":15573:15603   */\n      swap1\n      pop\n        /* \"#utility.yul\":15626:15644   */\n      0xffffffffffffffff\n        /* \"#utility.yul\":15618:15624   */\n      dup2\n        /* \"#utility.yul\":15615:15645   */\n      gt\n        /* \"#utility.yul\":15612:15729   */\n      iszero\n      tag_376\n      jumpi\n        /* \"#utility.yul\":15648:15727   */\n      tag_377\n      tag_224\n      jump\t// in\n    tag_377:\n        /* \"#utility.yul\":15612:15729   */\n    tag_376:\n        /* \"#utility.yul\":15762:15766   */\n      0x20\n        /* \"#utility.yul\":15754:15760   */\n      dup4\n        /* \"#utility.yul\":15750:15767   */\n      add\n        /* \"#utility.yul\":15738:15767   */\n      swap2\n      pop\n        /* \"#utility.yul\":15816:15819   */\n      dup4\n        /* \"#utility.yul\":15808:15812   */\n      0x01\n        /* \"#utility.yul\":15800:15806   */\n      dup3\n        /* \"#utility.yul\":15796:15813   */\n      mul\n        /* \"#utility.yul\":15786:15794   */\n      dup4\n        /* \"#utility.yul\":15782:15814   */\n      add\n        /* \"#utility.yul\":15779:15820   */\n      gt\n        /* \"#utility.yul\":15776:15904   */\n      iszero\n      tag_378\n      jumpi\n        /* \"#utility.yul\":15823:15902   */\n      tag_379\n      tag_225\n      jump\t// in\n    tag_379:\n        /* \"#utility.yul\":15776:15904   */\n    tag_378:\n        /* \"#utility.yul\":15358:15910   */\n      swap3\n      pop\n      swap3\n      swap1\n      pop\n      jump\t// out\n        /* \"#utility.yul\":15916:16033   */\n    tag_227:\n        /* \"#utility.yul\":16025:16026   */\n      0x00\n        /* \"#utility.yul\":16022:16023   */\n      dup1\n        /* \"#utility.yul\":16015:16027   */\n      revert\n        /* \"#utility.yul\":16039:16219   */\n    tag_86:\n        /* \"#utility.yul\":16087:16164   */\n      0x4e487b7100000000000000000000000000000000000000000000000000000000\n        /* \"#utility.yul\":16084:16085   */\n      0x00\n        /* \"#utility.yul\":16077:16165   */\n      mstore\n        /* \"#utility.yul\":16184:16188   */\n      0x41\n        /* \"#utility.yul\":16181:16182   */\n      0x04\n        /* \"#utility.yul\":16174:16189   */\n      mstore\n        /* \"#utility.yul\":16208:16212   */\n      0x24\n        /* \"#utility.yul\":16205:16206   */\n      0x00\n        /* \"#utility.yul\":16198:16213   */\n      revert\n        /* \"#utility.yul\":16225:16506   */\n    tag_228:\n        /* \"#utility.yul\":16308:16335   */\n      tag_383\n        /* \"#utility.yul\":16330:16334   */\n      dup3\n        /* \"#utility.yul\":16308:16335   */\n      tag_203\n      jump\t// in\n    tag_383:\n        /* \"#utility.yul\":16300:16306   */\n      dup2\n        /* \"#utility.yul\":16296:16336   */\n      add\n        /* \"#utility.yul\":16438:16444   */\n      dup2\n        /* \"#utility.yul\":16426:16436   */\n      dup2\n        /* \"#utility.yul\":16423:16445   */\n      lt\n        /* \"#utility.yul\":16402:16420   */\n      0xffffffffffffffff\n        /* \"#utility.yul\":16390:16400   */\n      dup3\n        /* \"#utility.yul\":16387:16421   */\n      gt\n        /* \"#utility.yul\":16384:16446   */\n      or\n        /* \"#utility.yul\":16381:16469   */\n      iszero\n      tag_384\n      jumpi\n        /* \"#utility.yul\":16449:16467   */\n      tag_385\n      tag_86\n      jump\t// in\n    tag_385:\n        /* \"#utility.yul\":16381:16469   */\n    tag_384:\n        /* \"#utility.yul\":16489:16499   */\n      dup1\n        /* \"#utility.yul\":16485:16487   */\n      0x40\n        /* \"#utility.yul\":16478:16500   */\n      mstore\n        /* \"#utility.yul\":16268:16506   */\n      pop\n        /* \"#utility.yul\":16225:16506   */\n      pop\n      pop\n      jump\t// out\n        /* \"#utility.yul\":16512:16641   */\n    tag_229:\n        /* \"#utility.yul\":16546:16552   */\n      0x00\n        /* \"#utility.yul\":16573:16593   */\n      tag_387\n      tag_188\n      jump\t// in\n    tag_387:\n        /* \"#utility.yul\":16563:16593   */\n      swap1\n      pop\n        /* \"#utility.yul\":16602:16635   */\n      tag_388\n        /* \"#utility.yul\":16630:16634   */\n      dup3\n        /* \"#utility.yul\":16622:16628   */\n      dup3\n        /* \"#utility.yul\":16602:16635   */\n      tag_228\n      jump\t// in\n    tag_388:\n        /* \"#utility.yul\":16512:16641   */\n      swap2\n      swap1\n      pop\n      jump\t// out\n        /* \"#utility.yul\":16647:16954   */\n    tag_230:\n        /* \"#utility.yul\":16708:16712   */\n      0x00\n        /* \"#utility.yul\":16798:16816   */\n      0xffffffffffffffff\n        /* \"#utility.yul\":16790:16796   */\n      dup3\n        /* \"#utility.yul\":16787:16817   */\n      gt\n        /* \"#utility.yul\":16784:16840   */\n      iszero\n      tag_390\n      jumpi\n        /* \"#utility.yul\":16820:16838   */\n      tag_391\n      tag_86\n      jump\t// in\n    tag_391:\n        /* \"#utility.yul\":16784:16840   */\n    tag_390:\n        /* \"#utility.yul\":16858:16887   */\n      tag_392\n        /* \"#utility.yul\":16880:16886   */\n      dup3\n        /* \"#utility.yul\":16858:16887   */\n      tag_203\n      jump\t// in\n    tag_392:\n        /* \"#utility.yul\":16850:16887   */\n      swap1\n      pop\n        /* \"#utility.yul\":16942:16946   */\n      0x20\n        /* \"#utility.yul\":16936:16940   */\n      dup2\n        /* \"#utility.yul\":16932:16947   */\n      add\n        /* \"#utility.yul\":16924:16947   */\n      swap1\n      pop\n        /* \"#utility.yul\":16647:16954   */\n      swap2\n      swap1\n      pop\n      jump\t// out\n        /* \"#utility.yul\":16960:17106   */\n    tag_231:\n        /* \"#utility.yul\":17057:17063   */\n      dup3\n        /* \"#utility.yul\":17052:17055   */\n      dup2\n        /* \"#utility.yul\":17047:17050   */\n      dup4\n        /* \"#utility.yul\":17034:17064   */\n      calldatacopy\n        /* \"#utility.yul\":17098:17099   */\n      0x00\n        /* \"#utility.yul\":17089:17095   */\n      dup4\n        /* \"#utility.yul\":17084:17087   */\n      dup4\n        /* \"#utility.yul\":17080:17096   */\n      add\n        /* \"#utility.yul\":17073:17100   */\n      mstore\n        /* \"#utility.yul\":16960:17106   */\n      pop\n      pop\n      pop\n      jump\t// out\n        /* \"#utility.yul\":17112:17535   */\n    tag_232:\n        /* \"#utility.yul\":17189:17194   */\n      0x00\n        /* \"#utility.yul\":17214:17279   */\n      tag_395\n        /* \"#utility.yul\":17230:17278   */\n      tag_396\n        /* \"#utility.yul\":17271:17277   */\n      dup5\n        /* \"#utility.yul\":17230:17278   */\n      tag_230\n      jump\t// in\n    tag_396:\n        /* \"#utility.yul\":17214:17279   */\n      tag_229\n      jump\t// in\n    tag_395:\n        /* \"#utility.yul\":17205:17279   */\n      swap1\n      pop\n        /* \"#utility.yul\":17302:17308   */\n      dup3\n        /* \"#utility.yul\":17295:17300   */\n      dup2\n        /* \"#utility.yul\":17288:17309   */\n      mstore\n        /* \"#utility.yul\":17340:17344   */\n      0x20\n        /* \"#utility.yul\":17333:17338   */\n      dup2\n        /* \"#utility.yul\":17329:17345   */\n      add\n        /* \"#utility.yul\":17378:17381   */\n      dup5\n        /* \"#utility.yul\":17369:17375   */\n      dup5\n        /* \"#utility.yul\":17364:17367   */\n      dup5\n        /* \"#utility.yul\":17360:17376   */\n      add\n        /* \"#utility.yul\":17357:17382   */\n      gt\n        /* \"#utility.yul\":17354:17466   */\n      iszero\n      tag_397\n      jumpi\n        /* \"#utility.yul\":17385:17464   */\n      tag_398\n      tag_227\n      jump\t// in\n    tag_398:\n        /* \"#utility.yul\":17354:17466   */\n    tag_397:\n        /* \"#utility.yul\":17475:17529   */\n      tag_399\n        /* \"#utility.yul\":17522:17528   */\n      dup5\n        /* \"#utility.yul\":17517:17520   */\n      dup3\n        /* \"#utility.yul\":17512:17515   */\n      dup6\n        /* \"#utility.yul\":17475:17529   */\n      tag_231\n      jump\t// in\n    tag_399:\n        /* \"#utility.yul\":17195:17535   */\n      pop\n        /* \"#utility.yul\":17112:17535   */\n      swap4\n      swap3\n      pop\n      pop\n      pop\n      jump\t// out\n        /* \"#utility.yul\":17554:17892   */\n    tag_233:\n        /* \"#utility.yul\":17609:17614   */\n      0x00\n        /* \"#utility.yul\":17658:17661   */\n      dup3\n        /* \"#utility.yul\":17651:17655   */\n      0x1f\n        /* \"#utility.yul\":17643:17649   */\n      dup4\n        /* \"#utility.yul\":17639:17656   */\n      add\n        /* \"#utility.yul\":17635:17662   */\n      slt\n        /* \"#utility.yul\":17625:17747   */\n      tag_401\n      jumpi\n        /* \"#utility.yul\":17666:17745   */\n      tag_402\n      tag_223\n      jump\t// in\n    tag_402:\n        /* \"#utility.yul\":17625:17747   */\n    tag_401:\n        /* \"#utility.yul\":17783:17789   */\n      dup2\n        /* \"#utility.yul\":17770:17790   */\n      calldataload\n        /* \"#utility.yul\":17808:17886   */\n      tag_403\n        /* \"#utility.yul\":17882:17885   */\n      dup5\n        /* \"#utility.yul\":17874:17880   */\n      dup3\n        /* \"#utility.yul\":17867:17871   */\n      0x20\n        /* \"#utility.yul\":17859:17865   */\n      dup7\n        /* \"#utility.yul\":17855:17872   */\n      add\n        /* \"#utility.yul\":17808:17886   */\n      tag_232\n      jump\t// in\n    tag_403:\n        /* \"#utility.yul\":17799:17886   */\n      swap2\n      pop\n        /* \"#utility.yul\":17615:17892   */\n      pop\n        /* \"#utility.yul\":17554:17892   */\n      swap3\n      swap2\n      pop\n      pop\n      jump\t// out\n        /* \"#utility.yul\":17898:20063   */\n    tag_43:\n        /* \"#utility.yul\":18060:18066   */\n      0x00\n        /* \"#utility.yul\":18068:18074   */\n      dup1\n        /* \"#utility.yul\":18076:18082   */\n      0x00\n        /* \"#utility.yul\":18084:18090   */\n      dup1\n        /* \"#utility.yul\":18092:18098   */\n      0x00\n        /* \"#utility.yul\":18100:18106   */\n      dup1\n        /* \"#utility.yul\":18108:18114   */\n      0x00\n        /* \"#utility.yul\":18116:18122   */\n      dup1\n        /* \"#utility.yul\":18165:18168   */\n      0xc0\n        /* \"#utility.yul\":18153:18162   */\n      dup10\n        /* \"#utility.yul\":18144:18151   */\n      dup12\n        /* \"#utility.yul\":18140:18163   */\n      sub\n        /* \"#utility.yul\":18136:18169   */\n      slt\n        /* \"#utility.yul\":18133:18253   */\n      iszero\n      tag_405\n      jumpi\n        /* \"#utility.yul\":18172:18251   */\n      tag_406\n      tag_189\n      jump\t// in\n    tag_406:\n        /* \"#utility.yul\":18133:18253   */\n    tag_405:\n        /* \"#utility.yul\":18320:18321   */\n      0x00\n        /* \"#utility.yul\":18309:18318   */\n      dup10\n        /* \"#utility.yul\":18305:18322   */\n      add\n        /* \"#utility.yul\":18292:18323   */\n      calldataload\n        /* \"#utility.yul\":18350:18368   */\n      0xffffffffffffffff\n        /* \"#utility.yul\":18342:18348   */\n      dup2\n        /* \"#utility.yul\":18339:18369   */\n      gt\n        /* \"#utility.yul\":18336:18453   */\n      iszero\n      tag_407\n      jumpi\n        /* \"#utility.yul\":18372:18451   */\n      tag_408\n      tag_190\n      jump\t// in\n    tag_408:\n        /* \"#utility.yul\":18336:18453   */\n    tag_407:\n        /* \"#utility.yul\":18485:18549   */\n      tag_409\n        /* \"#utility.yul\":18541:18548   */\n      dup12\n        /* \"#utility.yul\":18532:18538   */\n      dup3\n        /* \"#utility.yul\":18521:18530   */\n      dup13\n        /* \"#utility.yul\":18517:18539   */\n      add\n        /* \"#utility.yul\":18485:18549   */\n      tag_226\n      jump\t// in\n    tag_409:\n        /* \"#utility.yul\":18467:18549   */\n      swap9\n      pop\n      swap9\n      pop\n        /* \"#utility.yul\":18263:18559   */\n      pop\n        /* \"#utility.yul\":18626:18628   */\n      0x20\n        /* \"#utility.yul\":18615:18624   */\n      dup10\n        /* \"#utility.yul\":18611:18629   */\n      add\n        /* \"#utility.yul\":18598:18630   */\n      calldataload\n        /* \"#utility.yul\":18657:18675   */\n      0xffffffffffffffff\n        /* \"#utility.yul\":18649:18655   */\n      dup2\n        /* \"#utility.yul\":18646:18676   */\n      gt\n        /* \"#utility.yul\":18643:18760   */\n      iszero\n      tag_410\n      jumpi\n        /* \"#utility.yul\":18679:18758   */\n      tag_411\n      tag_190\n      jump\t// in\n    tag_411:\n        /* \"#utility.yul\":18643:18760   */\n    tag_410:\n        /* \"#utility.yul\":18792:18856   */\n      tag_412\n        /* \"#utility.yul\":18848:18855   */\n      dup12\n        /* \"#utility.yul\":18839:18845   */\n      dup3\n        /* \"#utility.yul\":18828:18837   */\n      dup13\n        /* \"#utility.yul\":18824:18846   */\n      add\n        /* \"#utility.yul\":18792:18856   */\n      tag_226\n      jump\t// in\n    tag_412:\n        /* \"#utility.yul\":18774:18856   */\n      swap7\n      pop\n      swap7\n      pop\n        /* \"#utility.yul\":18569:18866   */\n      pop\n        /* \"#utility.yul\":18933:18935   */\n      0x40\n        /* \"#utility.yul\":18922:18931   */\n      dup10\n        /* \"#utility.yul\":18918:18936   */\n      add\n        /* \"#utility.yul\":18905:18937   */\n      calldataload\n        /* \"#utility.yul\":18964:18982   */\n      0xffffffffffffffff\n        /* \"#utility.yul\":18956:18962   */\n      dup2\n        /* \"#utility.yul\":18953:18983   */\n      gt\n        /* \"#utility.yul\":18950:19067   */\n      iszero\n      tag_413\n      jumpi\n        /* \"#utility.yul\":18986:19065   */\n      tag_414\n      tag_190\n      jump\t// in\n    tag_414:\n        /* \"#utility.yul\":18950:19067   */\n    tag_413:\n        /* \"#utility.yul\":19091:19153   */\n      tag_415\n        /* \"#utility.yul\":19145:19152   */\n      dup12\n        /* \"#utility.yul\":19136:19142   */\n      dup3\n        /* \"#utility.yul\":19125:19134   */\n      dup13\n        /* \"#utility.yul\":19121:19143   */\n      add\n        /* \"#utility.yul\":19091:19153   */\n      tag_233\n      jump\t// in\n    tag_415:\n        /* \"#utility.yul\":19081:19153   */\n      swap5\n      pop\n        /* \"#utility.yul\":18876:19163   */\n      pop\n        /* \"#utility.yul\":19230:19232   */\n      0x60\n        /* \"#utility.yul\":19219:19228   */\n      dup10\n        /* \"#utility.yul\":19215:19233   */\n      add\n        /* \"#utility.yul\":19202:19234   */\n      calldataload\n        /* \"#utility.yul\":19261:19279   */\n      0xffffffffffffffff\n        /* \"#utility.yul\":19253:19259   */\n      dup2\n        /* \"#utility.yul\":19250:19280   */\n      gt\n        /* \"#utility.yul\":19247:19364   */\n      iszero\n      tag_416\n      jumpi\n        /* \"#utility.yul\":19283:19362   */\n      tag_417\n      tag_190\n      jump\t// in\n    tag_417:\n        /* \"#utility.yul\":19247:19364   */\n    tag_416:\n        /* \"#utility.yul\":19388:19450   */\n      tag_418\n        /* \"#utility.yul\":19442:19449   */\n      dup12\n        /* \"#utility.yul\":19433:19439   */\n      dup3\n        /* \"#utility.yul\":19422:19431   */\n      dup13\n        /* \"#utility.yul\":19418:19440   */\n      add\n        /* \"#utility.yul\":19388:19450   */\n      tag_233\n      jump\t// in\n    tag_418:\n        /* \"#utility.yul\":19378:19450   */\n      swap4\n      pop\n        /* \"#utility.yul\":19173:19460   */\n      pop\n        /* \"#utility.yul\":19527:19530   */\n      0x80\n        /* \"#utility.yul\":19516:19525   */\n      dup10\n        /* \"#utility.yul\":19512:19531   */\n      add\n        /* \"#utility.yul\":19499:19532   */\n      calldataload\n        /* \"#utility.yul\":19559:19577   */\n      0xffffffffffffffff\n        /* \"#utility.yul\":19551:19557   */\n      dup2\n        /* \"#utility.yul\":19548:19578   */\n      gt\n        /* \"#utility.yul\":19545:19662   */\n      iszero\n      tag_419\n      jumpi\n        /* \"#utility.yul\":19581:19660   */\n      tag_420\n      tag_190\n      jump\t// in\n    tag_420:\n        /* \"#utility.yul\":19545:19662   */\n    tag_419:\n        /* \"#utility.yul\":19686:19748   */\n      tag_421\n        /* \"#utility.yul\":19740:19747   */\n      dup12\n        /* \"#utility.yul\":19731:19737   */\n      dup3\n        /* \"#utility.yul\":19720:19729   */\n      dup13\n        /* \"#utility.yul\":19716:19738   */\n      add\n        /* \"#utility.yul\":19686:19748   */\n      tag_233\n      jump\t// in\n    tag_421:\n        /* \"#utility.yul\":19676:19748   */\n      swap3\n      pop\n        /* \"#utility.yul\":19470:19758   */\n      pop\n        /* \"#utility.yul\":19825:19828   */\n      0xa0\n        /* \"#utility.yul\":19814:19823   */\n      dup10\n        /* \"#utility.yul\":19810:19829   */\n      add\n        /* \"#utility.yul\":19797:19830   */\n      calldataload\n        /* \"#utility.yul\":19857:19875   */\n      0xffffffffffffffff\n        /* \"#utility.yul\":19849:19855   */\n      dup2\n        /* \"#utility.yul\":19846:19876   */\n      gt\n        /* \"#utility.yul\":19843:19960   */\n      iszero\n      tag_422\n      jumpi\n        /* \"#utility.yul\":19879:19958   */\n      tag_423\n      tag_190\n      jump\t// in\n    tag_423:\n        /* \"#utility.yul\":19843:19960   */\n    tag_422:\n        /* \"#utility.yul\":19984:20046   */\n      tag_424\n        /* \"#utility.yul\":20038:20045   */\n      dup12\n        /* \"#utility.yul\":20029:20035   */\n      dup3\n        /* \"#utility.yul\":20018:20027   */\n      dup13\n        /* \"#utility.yul\":20014:20036   */\n      add\n        /* \"#utility.yul\":19984:20046   */\n      tag_233\n      jump\t// in\n    tag_424:\n        /* \"#utility.yul\":19974:20046   */\n      swap2\n      pop\n        /* \"#utility.yul\":19768:20056   */\n      pop\n        /* \"#utility.yul\":17898:20063   */\n      swap3\n      swap6\n      swap9\n      pop\n      swap3\n      swap6\n      swap9\n      swap1\n      swap4\n      swap7\n      pop\n      jump\t// out\n        /* \"#utility.yul\":20069:20249   */\n    tag_234:\n        /* \"#utility.yul\":20117:20194   */\n      0x4e487b7100000000000000000000000000000000000000000000000000000000\n        /* \"#utility.yul\":20114:20115   */\n      0x00\n        /* \"#utility.yul\":20107:20195   */\n      mstore\n        /* \"#utility.yul\":20214:20218   */\n      0x22\n        /* \"#utility.yul\":20211:20212   */\n      0x04\n        /* \"#utility.yul\":20204:20219   */\n      mstore\n        /* \"#utility.yul\":20238:20242   */\n      0x24\n        /* \"#utility.yul\":20235:20236   */\n      0x00\n        /* \"#utility.yul\":20228:20243   */\n      revert\n        /* \"#utility.yul\":20255:20575   */\n    tag_51:\n        /* \"#utility.yul\":20299:20305   */\n      0x00\n        /* \"#utility.yul\":20336:20337   */\n      0x02\n        /* \"#utility.yul\":20330:20334   */\n      dup3\n        /* \"#utility.yul\":20326:20338   */\n      div\n        /* \"#utility.yul\":20316:20338   */\n      swap1\n      pop\n        /* \"#utility.yul\":20383:20384   */\n      0x01\n        /* \"#utility.yul\":20377:20381   */\n      dup3\n        /* \"#utility.yul\":20373:20385   */\n      and\n        /* \"#utility.yul\":20404:20422   */\n      dup1\n        /* \"#utility.yul\":20394:20475   */\n      tag_427\n      jumpi\n        /* \"#utility.yul\":20460:20464   */\n      0x7f\n        /* \"#utility.yul\":20452:20458   */\n      dup3\n        /* \"#utility.yul\":20448:20465   */\n      and\n        /* \"#utility.yul\":20438:20465   */\n      swap2\n      pop\n        /* \"#utility.yul\":20394:20475   */\n    tag_427:\n        /* \"#utility.yul\":20522:20524   */\n      0x20\n        /* \"#utility.yul\":20514:20520   */\n      dup3\n        /* \"#utility.yul\":20511:20525   */\n      lt\n        /* \"#utility.yul\":20491:20509   */\n      dup2\n        /* \"#utility.yul\":20488:20526   */\n      sub\n        /* \"#utility.yul\":20485:20569   */\n      tag_428\n      jumpi\n        /* \"#utility.yul\":20541:20559   */\n      tag_429\n      tag_234\n      jump\t// in\n    tag_429:\n        /* \"#utility.yul\":20485:20569   */\n    tag_428:\n        /* \"#utility.yul\":20306:20575   */\n      pop\n        /* \"#utility.yul\":20255:20575   */\n      swap2\n      swap1\n      pop\n      jump\t// out\n        /* \"#utility.yul\":20581:20761   */\n    tag_95:\n        /* \"#utility.yul\":20629:20706   */\n      0x4e487b7100000000000000000000000000000000000000000000000000000000\n        /* \"#utility.yul\":20626:20627   */\n      0x00\n        /* \"#utility.yul\":20619:20707   */\n      mstore\n        /* \"#utility.yul\":20726:20730   */\n      0x32\n        /* \"#utility.yul\":20723:20724   */\n      0x04\n        /* \"#utility.yul\":20716:20731   */\n      mstore\n        /* \"#utility.yul\":20750:20754   */\n      0x24\n        /* \"#utility.yul\":20747:20748   */\n      0x00\n        /* \"#utility.yul\":20740:20755   */\n      revert\n        /* \"#utility.yul\":20767:20947   */\n    tag_235:\n        /* \"#utility.yul\":20815:20892   */\n      0x4e487b7100000000000000000000000000000000000000000000000000000000\n        /* \"#utility.yul\":20812:20813   */\n      0x00\n        /* \"#utility.yul\":20805:20893   */\n      mstore\n        /* \"#utility.yul\":20912:20916   */\n      0x11\n        /* \"#utility.yul\":20909:20910   */\n      0x04\n        /* \"#utility.yul\":20902:20917   */\n      mstore\n        /* \"#utility.yul\":20936:20940   */\n      0x24\n        /* \"#utility.yul\":20933:20934   */\n      0x00\n        /* \"#utility.yul\":20926:20941   */\n      revert\n        /* \"#utility.yul\":20953:21186   */\n    tag_129:\n        /* \"#utility.yul\":20992:20995   */\n      0x00\n        /* \"#utility.yul\":21015:21039   */\n      tag_433\n        /* \"#utility.yul\":21033:21038   */\n      dup3\n        /* \"#utility.yul\":21015:21039   */\n      tag_195\n      jump\t// in\n    tag_433:\n        /* \"#utility.yul\":21006:21039   */\n      swap2\n      pop\n        /* \"#utility.yul\":21061:21127   */\n      0xffffffffffffffffffffffffffffffffffffffffffffffffffffffffffffffff\n        /* \"#utility.yul\":21054:21059   */\n      dup3\n        /* \"#utility.yul\":21051:21128   */\n      sub\n        /* \"#utility.yul\":21048:21151   */\n      tag_434\n      jumpi\n        /* \"#utility.yul\":21131:21149   */\n      tag_435\n      tag_235\n      jump\t// in\n    tag_435:\n        /* \"#utility.yul\":21048:21151   */\n    tag_434:\n        /* \"#utility.yul\":21178:21179   */\n      0x01\n        /* \"#utility.yul\":21171:21176   */\n      dup3\n        /* \"#utility.yul\":21167:21180   */\n      add\n        /* \"#utility.yul\":21160:21180   */\n      swap1\n      pop\n        /* \"#utility.yul\":20953:21186   */\n      swap2\n      swap1\n      pop\n      jump\t// out\n        /* \"#utility.yul\":21192:21332   */\n    tag_236:\n        /* \"#utility.yul\":21240:21244   */\n      0x00\n        /* \"#utility.yul\":21263:21266   */\n      dup2\n        /* \"#utility.yul\":21255:21266   */\n      swap1\n      pop\n        /* \"#utility.yul\":21286:21289   */\n      dup2\n        /* \"#utility.yul\":21283:21284   */\n      0x00\n        /* \"#utility.yul\":21276:21290   */\n      mstore\n        /* \"#utility.yul\":21320:21324   */\n      0x20\n        /* \"#utility.yul\":21317:21318   */\n      0x00\n        /* \"#utility.yul\":21307:21325   */\n      keccak256\n        /* \"#utility.yul\":21299:21325   */\n      swap1\n      pop\n        /* \"#utility.yul\":21192:21332   */\n      swap2\n      swap1\n      pop\n      jump\t// out\n        /* \"#utility.yul\":21338:21431   */\n    tag_237:\n        /* \"#utility.yul\":21375:21381   */\n      0x00\n        /* \"#utility.yul\":21422:21424   */\n      0x20\n        /* \"#utility.yul\":21417:21419   */\n      0x1f\n        /* \"#utility.yul\":21410:21415   */\n      dup4\n        /* \"#utility.yul\":21406:21420   */\n      add\n        /* \"#utility.yul\":21402:21425   */\n      div\n        /* \"#utility.yul\":21392:21425   */\n      swap1\n      pop\n        /* \"#utility.yul\":21338:21431   */\n      swap2\n      swap1\n      pop\n      jump\t// out\n        /* \"#utility.yul\":21437:21544   */\n    tag_238:\n        /* \"#utility.yul\":21481:21489   */\n      0x00\n        /* \"#utility.yul\":21531:21536   */\n      dup3\n        /* \"#utility.yul\":21525:21529   */\n      dup3\n        /* \"#utility.yul\":21521:21537   */\n      shl\n        /* \"#utility.yul\":21500:21537   */\n      swap1\n      pop\n        /* \"#utility.yul\":21437:21544   */\n      swap3\n      swap2\n      pop\n      pop\n      jump\t// out\n        /* \"#utility.yul\":21550:21943   */\n    tag_239:\n        /* \"#utility.yul\":21619:21625   */\n      0x00\n        /* \"#utility.yul\":21669:21670   */\n      0x08\n        /* \"#utility.yul\":21657:21667   */\n      dup4\n        /* \"#utility.yul\":21653:21671   */\n      mul\n        /* \"#utility.yul\":21692:21789   */\n      tag_440\n        /* \"#utility.yul\":21722:21788   */\n      0xffffffffffffffffffffffffffffffffffffffffffffffffffffffffffffffff\n        /* \"#utility.yul\":21711:21720   */\n      dup3\n        /* \"#utility.yul\":21692:21789   */\n      tag_238\n      jump\t// in\n    tag_440:\n        /* \"#utility.yul\":21810:21849   */\n      tag_441\n        /* \"#utility.yul\":21840:21848   */\n      dup7\n        /* \"#utility.yul\":21829:21838   */\n      dup4\n        /* \"#utility.yul\":21810:21849   */\n      tag_238\n      jump\t// in\n    tag_441:\n        /* \"#utility.yul\":21798:21849   */\n      swap6\n      pop\n        /* \"#utility.yul\":21882:21886   */\n      dup1\n        /* \"#utility.yul\":21878:21887   */\n      not\n        /* \"#utility.yul\":21871:21876   */\n      dup5\n        /* \"#utility.yul\":21867:21888   */\n      and\n        /* \"#utility.yul\":21858:21888   */\n      swap4\n      pop\n        /* \"#utility.yul\":21931:21935   */\n      dup1\n        /* \"#utility.yul\":21921:21929   */\n      dup7\n        /* \"#utility.yul\":21917:21936   */\n      and\n        /* \"#utility.yul\":21910:21915   */\n      dup5\n        /* \"#utility.yul\":21907:21937   */\n      or\n        /* \"#utility.yul\":21897:21937   */\n      swap3\n      pop\n        /* \"#utility.yul\":21626:21943   */\n      pop\n      pop\n        /* \"#utility.yul\":21550:21943   */\n      swap4\n      swap3\n      pop\n      pop\n      pop\n      jump\t// out\n        /* \"#utility.yul\":21949:22009   */\n    tag_240:\n        /* \"#utility.yul\":21977:21980   */\n      0x00\n        /* \"#utility.yul\":21998:22003   */\n      dup2\n        /* \"#utility.yul\":21991:22003   */\n      swap1\n      pop\n        /* \"#utility.yul\":21949:22009   */\n      swap2\n      swap1\n      pop\n      jump\t// out\n        /* \"#utility.yul\":22015:22157   */\n    tag_241:\n        /* \"#utility.yul\":22065:22074   */\n      0x00\n        /* \"#utility.yul\":22098:22151   */\n      tag_444\n        /* \"#utility.yul\":22116:22150   */\n      tag_445\n        /* \"#utility.yul\":22125:22149   */\n      tag_446\n        /* \"#utility.yul\":22143:22148   */\n      dup5\n        /* \"#utility.yul\":22125:22149   */\n      tag_195\n      jump\t// in\n    tag_446:\n        /* \"#utility.yul\":22116:22150   */\n      tag_240\n      jump\t// in\n    tag_445:\n        /* \"#utility.yul\":22098:22151   */\n      tag_195\n      jump\t// in\n    tag_444:\n        /* \"#utility.yul\":22085:22151   */\n      swap1\n      pop\n        /* \"#utility.yul\":22015:22157   */\n      swap2\n      swap1\n      pop\n      jump\t// out\n        /* \"#utility.yul\":22163:22238   */\n    tag_242:\n        /* \"#utility.yul\":22206:22209   */\n      0x00\n        /* \"#utility.yul\":22227:22232   */\n      dup2\n        /* \"#utility.yul\":22220:22232   */\n      swap1\n      pop\n        /* \"#utility.yul\":22163:22238   */\n      swap2\n      swap1\n      pop\n      jump\t// out\n        /* \"#utility.yul\":22244:22513   */\n    tag_243:\n        /* \"#utility.yul\":22354:22393   */\n      tag_449\n        /* \"#utility.yul\":22385:22392   */\n      dup4\n        /* \"#utility.yul\":22354:22393   */\n      tag_241\n      jump\t// in\n    tag_449:\n        /* \"#utility.yul\":22415:22506   */\n      tag_450\n        /* \"#utility.yul\":22464:22505   */\n      tag_451\n        /* \"#utility.yul\":22488:22504   */\n      dup3\n        /* \"#utility.yul\":22464:22505   */\n      tag_242\n      jump\t// in\n    tag_451:\n        /* \"#utility.yul\":22456:22462   */\n      dup5\n        /* \"#utility.yul\":22449:22453   */\n      dup5\n        /* \"#utility.yul\":22443:22454   */\n      sload\n        /* \"#utility.yul\":22415:22506   */\n      tag_239\n      jump\t// in\n    tag_450:\n        /* \"#utility.yul\":22409:22413   */\n      dup3\n        /* \"#utility.yul\":22402:22507   */\n      sstore\n        /* \"#utility.yul\":22320:22513   */\n      pop\n        /* \"#utility.yul\":22244:22513   */\n      pop\n      pop\n      pop\n      jump\t// out\n        /* \"#utility.yul\":22519:22592   */\n    tag_244:\n        /* \"#utility.yul\":22564:22567   */\n      0x00\n        /* \"#utility.yul\":22519:22592   */\n      swap1\n      jump\t// out\n        /* \"#utility.yul\":22598:22787   */\n    tag_245:\n        /* \"#utility.yul\":22675:22707   */\n      tag_454\n      tag_244\n      jump\t// in\n    tag_454:\n        /* \"#utility.yul\":22716:22781   */\n      tag_455\n        /* \"#utility.yul\":22774:22780   */\n      dup2\n        /* \"#utility.yul\":22766:22772   */\n      dup5\n        /* \"#utility.yul\":22760:22764   */\n      dup5\n        /* \"#utility.yul\":22716:22781   */\n      tag_243\n      jump\t// in\n    tag_455:\n        /* \"#utility.yul\":22651:22787   */\n      pop\n        /* \"#utility.yul\":22598:22787   */\n      pop\n      pop\n      jump\t// out\n        /* \"#utility.yul\":22793:22979   */\n    tag_246:\n        /* \"#utility.yul\":22853:22973   */\n    tag_457:\n        /* \"#utility.yul\":22870:22873   */\n      dup2\n        /* \"#utility.yul\":22863:22868   */\n      dup2\n        /* \"#utility.yul\":22860:22874   */\n      lt\n        /* \"#utility.yul\":22853:22973   */\n      iszero\n      tag_459\n      jumpi\n        /* \"#utility.yul\":22924:22963   */\n      tag_460\n        /* \"#utility.yul\":22961:22962   */\n      0x00\n        /* \"#utility.yul\":22954:22959   */\n      dup3\n        /* \"#utility.yul\":22924:22963   */\n      tag_245\n      jump\t// in\n    tag_460:\n        /* \"#utility.yul\":22897:22898   */\n      0x01\n        /* \"#utility.yul\":22890:22895   */\n      dup2\n        /* \"#utility.yul\":22886:22899   */\n      add\n        /* \"#utility.yul\":22877:22899   */\n      swap1\n      pop\n        /* \"#utility.yul\":22853:22973   */\n      jump(tag_457)\n    tag_459:\n        /* \"#utility.yul\":22793:22979   */\n      pop\n      pop\n      jump\t// out\n        /* \"#utility.yul\":22985:23526   */\n    tag_247:\n        /* \"#utility.yul\":23085:23087   */\n      0x1f\n        /* \"#utility.yul\":23080:23083   */\n      dup3\n        /* \"#utility.yul\":23077:23088   */\n      gt\n        /* \"#utility.yul\":23074:23519   */\n      iszero\n      tag_462\n      jumpi\n        /* \"#utility.yul\":23119:23156   */\n      tag_463\n        /* \"#utility.yul\":23150:23155   */\n      dup2\n        /* \"#utility.yul\":23119:23156   */\n      tag_236\n      jump\t// in\n    tag_463:\n        /* \"#utility.yul\":23202:23231   */\n      tag_464\n        /* \"#utility.yul\":23220:23230   */\n      dup5\n        /* \"#utility.yul\":23202:23231   */\n      tag_237\n      jump\t// in\n    tag_464:\n        /* \"#utility.yul\":23192:23200   */\n      dup2\n        /* \"#utility.yul\":23188:23232   */\n      add\n        /* \"#utility.yul\":23385:23387   */\n      0x20\n        /* \"#utility.yul\":23373:23383   */\n      dup6\n        /* \"#utility.yul\":23370:23388   */\n      lt\n        /* \"#utility.yul\":23367:23416   */\n      iszero\n      tag_465\n      jumpi\n        /* \"#utility.yul\":23406:23414   */\n      dup2\n        /* \"#utility.yul\":23391:23414   */\n      swap1\n      pop\n        /* \"#utility.yul\":23367:23416   */\n    tag_465:\n        /* \"#utility.yul\":23429:23509   */\n      tag_466\n        /* \"#utility.yul\":23485:23507   */\n      tag_467\n        /* \"#utility.yul\":23503:23506   */\n      dup6\n        /* \"#utility.yul\":23485:23507   */\n      tag_237\n      jump\t// in\n    tag_467:\n        /* \"#utility.yul\":23475:23483   */\n      dup4\n        /* \"#utility.yul\":23471:23508   */\n      add\n        /* \"#utility.yul\":23458:23469   */\n      dup3\n        /* \"#utility.yul\":23429:23509   */\n      tag_246\n      jump\t// in\n    tag_466:\n        /* \"#utility.yul\":23089:23519   */\n      pop\n      pop\n        /* \"#utility.yul\":23074:23519   */\n    tag_462:\n        /* \"#utility.yul\":22985:23526   */\n      pop\n      pop\n      pop\n      jump\t// out\n        /* \"#utility.yul\":23532:23649   */\n    tag_248:\n        /* \"#utility.yul\":23586:23594   */\n      0x00\n        /* \"#utility.yul\":23636:23641   */\n      dup3\n        /* \"#utility.yul\":23630:23634   */\n      dup3\n        /* \"#utility.yul\":23626:23642   */\n      shr\n        /* \"#utility.yul\":23605:23642   */\n      swap1\n      pop\n        /* \"#utility.yul\":23532:23649   */\n      swap3\n      swap2\n      pop\n      pop\n      jump\t// out\n        /* \"#utility.yul\":23655:23824   */\n    tag_249:\n        /* \"#utility.yul\":23699:23705   */\n      0x00\n        /* \"#utility.yul\":23732:23783   */\n      tag_470\n        /* \"#utility.yul\":23780:23781   */\n      0x00\n        /* \"#utility.yul\":23776:23782   */\n      not\n        /* \"#utility.yul\":23768:23773   */\n      dup5\n        /* \"#utility.yul\":23765:23766   */\n      0x08\n        /* \"#utility.yul\":23761:23774   */\n      mul\n        /* \"#utility.yul\":23732:23783   */\n      tag_248\n      jump\t// in\n    tag_470:\n        /* \"#utility.yul\":23728:23784   */\n      not\n        /* \"#utility.yul\":23813:23817   */\n      dup1\n        /* \"#utility.yul\":23807:23811   */\n      dup4\n        /* \"#utility.yul\":23803:23818   */\n      and\n        /* \"#utility.yul\":23793:23818   */\n      swap2\n      pop\n        /* \"#utility.yul\":23706:23824   */\n      pop\n        /* \"#utility.yul\":23655:23824   */\n      swap3\n      swap2\n      pop\n      pop\n      jump\t// out\n        /* \"#utility.yul\":23829:24124   */\n    tag_250:\n        /* \"#utility.yul\":23905:23909   */\n      0x00\n        /* \"#utility.yul\":24051:24080   */\n      tag_472\n        /* \"#utility.yul\":24076:24079   */\n      dup4\n        /* \"#utility.yul\":24070:24074   */\n      dup4\n        /* \"#utility.yul\":24051:24080   */\n      tag_249\n      jump\t// in\n    tag_472:\n        /* \"#utility.yul\":24043:24080   */\n      swap2\n      pop\n        /* \"#utility.yul\":24113:24116   */\n      dup3\n        /* \"#utility.yul\":24110:24111   */\n      0x02\n        /* \"#utility.yul\":24106:24117   */\n      mul\n        /* \"#utility.yul\":24100:24104   */\n      dup3\n        /* \"#utility.yul\":24097:24118   */\n      or\n        /* \"#utility.yul\":24089:24118   */\n      swap1\n      pop\n        /* \"#utility.yul\":23829:24124   */\n      swap3\n      swap2\n      pop\n      pop\n      jump\t// out\n        /* \"#utility.yul\":24129:25519   */\n    tag_173:\n        /* \"#utility.yul\":24244:24280   */\n      tag_474\n        /* \"#utility.yul\":24276:24279   */\n      dup3\n        /* \"#utility.yul\":24244:24280   */\n      tag_200\n      jump\t// in\n    tag_474:\n        /* \"#utility.yul\":24345:24363   */\n      0xffffffffffffffff\n        /* \"#utility.yul\":24337:24343   */\n      dup2\n        /* \"#utility.yul\":24334:24364   */\n      gt\n        /* \"#utility.yul\":24331:24387   */\n      iszero\n      tag_475\n      jumpi\n        /* \"#utility.yul\":24367:24385   */\n      tag_476\n      tag_86\n      jump\t// in\n    tag_476:\n        /* \"#utility.yul\":24331:24387   */\n    tag_475:\n        /* \"#utility.yul\":24411:24449   */\n      tag_477\n        /* \"#utility.yul\":24443:24447   */\n      dup3\n        /* \"#utility.yul\":24437:24448   */\n      sload\n        /* \"#utility.yul\":24411:24449   */\n      tag_51\n      jump\t// in\n    tag_477:\n        /* \"#utility.yul\":24496:24562   */\n      tag_478\n        /* \"#utility.yul\":24555:24561   */\n      dup3\n        /* \"#utility.yul\":24547:24553   */\n      dup3\n        /* \"#utility.yul\":24541:24545   */\n      dup6\n        /* \"#utility.yul\":24496:24562   */\n      tag_247\n      jump\t// in\n    tag_478:\n        /* \"#utility.yul\":24589:24590   */\n      0x00\n        /* \"#utility.yul\":24613:24617   */\n      0x20\n        /* \"#utility.yul\":24600:24617   */\n      swap1\n      pop\n        /* \"#utility.yul\":24645:24647   */\n      0x1f\n        /* \"#utility.yul\":24637:24643   */\n      dup4\n        /* \"#utility.yul\":24634:24648   */\n      gt\n        /* \"#utility.yul\":24662:24663   */\n      0x01\n        /* \"#utility.yul\":24657:25274   */\n      dup2\n      eq\n      tag_480\n      jumpi\n        /* \"#utility.yul\":25318:25319   */\n      0x00\n        /* \"#utility.yul\":25335:25341   */\n      dup5\n        /* \"#utility.yul\":25332:25409   */\n      iszero\n      tag_481\n      jumpi\n        /* \"#utility.yul\":25384:25393   */\n      dup3\n        /* \"#utility.yul\":25379:25382   */\n      dup8\n        /* \"#utility.yul\":25375:25394   */\n      add\n        /* \"#utility.yul\":25369:25395   */\n      mload\n        /* \"#utility.yul\":25360:25395   */\n      swap1\n      pop\n        /* \"#utility.yul\":25332:25409   */\n    tag_481:\n        /* \"#utility.yul\":25435:25502   */\n      tag_482\n        /* \"#utility.yul\":25495:25501   */\n      dup6\n        /* \"#utility.yul\":25488:25493   */\n      dup3\n        /* \"#utility.yul\":25435:25502   */\n      tag_250\n      jump\t// in\n    tag_482:\n        /* \"#utility.yul\":25429:25433   */\n      dup7\n        /* \"#utility.yul\":25422:25503   */\n      sstore\n        /* \"#utility.yul\":25291:25513   */\n      pop\n        /* \"#utility.yul\":24627:25513   */\n      jump(tag_479)\n        /* \"#utility.yul\":24657:25274   */\n    tag_480:\n        /* \"#utility.yul\":24709:24713   */\n      0x1f\n        /* \"#utility.yul\":24705:24714   */\n      not\n        /* \"#utility.yul\":24697:24703   */\n      dup5\n        /* \"#utility.yul\":24693:24715   */\n      and\n        /* \"#utility.yul\":24743:24779   */\n      tag_483\n        /* \"#utility.yul\":24774:24778   */\n      dup7\n        /* \"#utility.yul\":24743:24779   */\n      tag_236\n      jump\t// in\n    tag_483:\n        /* \"#utility.yul\":24801:24802   */\n      0x00\n        /* \"#utility.yul\":24815:25023   */\n    tag_484:\n        /* \"#utility.yul\":24829:24836   */\n      dup3\n        /* \"#utility.yul\":24826:24827   */\n      dup2\n        /* \"#utility.yul\":24823:24837   */\n      lt\n        /* \"#utility.yul\":24815:25023   */\n      iszero\n      tag_486\n      jumpi\n        /* \"#utility.yul\":24908:24917   */\n      dup5\n        /* \"#utility.yul\":24903:24906   */\n      dup10\n        /* \"#utility.yul\":24899:24918   */\n      add\n        /* \"#utility.yul\":24893:24919   */\n      mload\n        /* \"#utility.yul\":24885:24891   */\n      dup3\n        /* \"#utility.yul\":24878:24920   */\n      sstore\n        /* \"#utility.yul\":24959:24960   */\n      0x01\n        /* \"#utility.yul\":24951:24957   */\n      dup3\n        /* \"#utility.yul\":24947:24961   */\n      add\n        /* \"#utility.yul\":24937:24961   */\n      swap2\n      pop\n        /* \"#utility.yul\":25006:25008   */\n      0x20\n        /* \"#utility.yul\":24995:25004   */\n      dup6\n        /* \"#utility.yul\":24991:25009   */\n      add\n        /* \"#utility.yul\":24978:25009   */\n      swap5\n      pop\n        /* \"#utility.yul\":24852:24856   */\n      0x20\n        /* \"#utility.yul\":24849:24850   */\n      dup2\n        /* \"#utility.yul\":24845:24857   */\n      add\n        /* \"#utility.yul\":24840:24857   */\n      swap1\n      pop\n        /* \"#utility.yul\":24815:25023   */\n      jump(tag_484)\n    tag_486:\n        /* \"#utility.yul\":25051:25057   */\n      dup7\n        /* \"#utility.yul\":25042:25049   */\n      dup4\n        /* \"#utility.yul\":25039:25058   */\n      lt\n        /* \"#utility.yul\":25036:25215   */\n      iszero\n      tag_487\n      jumpi\n        /* \"#utility.yul\":25109:25118   */\n      dup5\n        /* \"#utility.yul\":25104:25107   */\n      dup10\n        /* \"#utility.yul\":25100:25119   */\n      add\n        /* \"#utility.yul\":25094:25120   */\n      mload\n        /* \"#utility.yul\":25152:25200   */\n      tag_488\n        /* \"#utility.yul\":25194:25198   */\n      0x1f\n        /* \"#utility.yul\":25186:25192   */\n      dup10\n        /* \"#utility.yul\":25182:25199   */\n      and\n        /* \"#utility.yul\":25171:25180   */\n      dup3\n        /* \"#utility.yul\":25152:25200   */\n      tag_249\n      jump\t// in\n    tag_488:\n        /* \"#utility.yul\":25144:25150   */\n      dup4\n        /* \"#utility.yul\":25137:25201   */\n      sstore\n        /* \"#utility.yul\":25059:25215   */\n      pop\n        /* \"#utility.yul\":25036:25215   */\n    tag_487:\n        /* \"#utility.yul\":25261:25262   */\n      0x01\n        /* \"#utility.yul\":25257:25258   */\n      0x02\n        /* \"#utility.yul\":25249:25255   */\n      dup9\n        /* \"#utility.yul\":25245:25259   */\n      mul\n        /* \"#utility.yul\":25241:25263   */\n      add\n        /* \"#utility.yul\":25235:25239   */\n      dup9\n        /* \"#utility.yul\":25228:25264   */\n      sstore\n        /* \"#utility.yul\":24664:25274   */\n      pop\n      pop\n      pop\n        /* \"#utility.yul\":24627:25513   */\n    tag_479:\n      pop\n        /* \"#utility.yul\":24219:25519   */\n      pop\n      pop\n      pop\n        /* \"#utility.yul\":24129:25519   */\n      pop\n      pop\n      jump\t// out\n\n    auxdata: 0xa2646970667358221220d8a4464484fb2959210ccd20784b4e5b683e193bbd3005022b92e03a41b2744764736f6c63430008120033\n}\n",
				"bytecode": {
					"linkReferences": {},
					"object": "6080604052600160005534801561001557600080fd5b50611f8f806100256000396000f3fe608060405234801561001057600080fd5b506004361061007d5760003560e01c80639e9c191d1161005b5780639e9c191d14610112578063e10f28c714610148578063ed90c7b714610166578063f4a8dbf9146101825761007d565b806321c6f9e5146100825780632e1f9763146100b257806383f95853146100e2575b600080fd5b61009c60048036038101906100979190611348565b61019e565b6040516100a99190611397565b60405180910390f35b6100cc60048036038101906100c791906113b2565b6101cf565b6040516100d9919061153d565b60405180910390f35b6100fc60048036038101906100f7919061155f565b6105be565b604051610109919061170d565b60405180910390f35b61012c600480360381019061012791906113b2565b610aed565b60405161013f9796959493929190611788565b60405180910390f35b610150610e7f565b60405161015d91906118df565b60405180910390f35b610180600480360381019061017b91906113b2565b610f14565b005b61019c60048036038101906101979190611a96565b610fb4565b005b600360205281600052604060002081815481106101ba57600080fd5b90600052602060002001600091509150505481565b6101d76111f0565b600260008381526020019081526020016000206040518060e00160405290816000820160009054906101000a900473ffffffffffffffffffffffffffffffffffffffff1673ffffffffffffffffffffffffffffffffffffffff1673ffffffffffffffffffffffffffffffffffffffff16815260200160018201805461025b90611c04565b80601f016020809104026020016040519081016040528092919081815260200182805461028790611c04565b80156102d45780601f106102a9576101008083540402835291602001916102d4565b820191906000526020600020905b8154815290600101906020018083116102b757829003601f168201915b505050505081526020016002820180546102ed90611c04565b80601f016020809104026020016040519081016040528092919081815260200182805461031990611c04565b80156103665780601f1061033b57610100808354040283529160200191610366565b820191906000526020600020905b81548152906001019060200180831161034957829003601f168201915b5050505050815260200160038201805461037f90611c04565b80601f01602080910402602001604051908101604052809291908181526020018280546103ab90611c04565b80156103f85780601f106103cd576101008083540402835291602001916103f8565b820191906000526020600020905b8154815290600101906020018083116103db57829003601f168201915b5050505050815260200160048201805461041190611c04565b80601f016020809104026020016040519081016040528092919081815260200182805461043d90611c04565b801561048a5780601f1061045f5761010080835404028352916020019161048a565b820191906000526020600020905b81548152906001019060200180831161046d57829003601f168201915b505050505081526020016005820180546104a390611c04565b80601f01602080910402602001604051908101604052809291908181526020018280546104cf90611c04565b801561051c5780601f106104f15761010080835404028352916020019161051c565b820191906000526020600020905b8154815290600101906020018083116104ff57829003601f168201915b5050505050815260200160068201805461053590611c04565b80601f016020809104026020016040519081016040528092919081815260200182805461056190611c04565b80156105ae5780601f10610583576101008083540402835291602001916105ae565b820191906000526020600020905b81548152906001019060200180831161059157829003601f168201915b5050505050815250509050919050565b60606000600360008473ffffffffffffffffffffffffffffffffffffffff1673ffffffffffffffffffffffffffffffffffffffff16815260200190815260200160002080548060200260200160405190810160405280929190818152602001828054801561064b57602002820191906000526020600020905b815481526020019060010190808311610637575b505050505090506000815167ffffffffffffffff81111561066f5761066e61196b565b5b6040519080825280602002602001820160405280156106a857816020015b6106956111f0565b81526020019060019003908161068d5790505b50905060005b8251811015610ae257600260008483815181106106ce576106cd611c35565b5b602002602001015181526020019081526020016000206040518060e00160405290816000820160009054906101000a900473ffffffffffffffffffffffffffffffffffffffff1673ffffffffffffffffffffffffffffffffffffffff1673ffffffffffffffffffffffffffffffffffffffff16815260200160018201805461075590611c04565b80601f016020809104026020016040519081016040528092919081815260200182805461078190611c04565b80156107ce5780601f106107a3576101008083540402835291602001916107ce565b820191906000526020600020905b8154815290600101906020018083116107b157829003601f168201915b505050505081526020016002820180546107e790611c04565b80601f016020809104026020016040519081016040528092919081815260200182805461081390611c04565b80156108605780601f1061083557610100808354040283529160200191610860565b820191906000526020600020905b81548152906001019060200180831161084357829003601f168201915b5050505050815260200160038201805461087990611c04565b80601f01602080910402602001604051908101604052809291908181526020018280546108a590611c04565b80156108f25780601f106108c7576101008083540402835291602001916108f2565b820191906000526020600020905b8154815290600101906020018083116108d557829003601f168201915b5050505050815260200160048201805461090b90611c04565b80601f016020809104026020016040519081016040528092919081815260200182805461093790611c04565b80156109845780601f1061095957610100808354040283529160200191610984565b820191906000526020600020905b81548152906001019060200180831161096757829003601f168201915b5050505050815260200160058201805461099d90611c04565b80601f01602080910402602001604051908101604052809291908181526020018280546109c990611c04565b8015610a165780601f106109eb57610100808354040283529160200191610a16565b820191906000526020600020905b8154815290600101906020018083116109f957829003601f168201915b50505050508152602001600682018054610a2f90611c04565b80601f0160208091040260200160405190810160405280929190818152602001828054610a5b90611c04565b8015610aa85780601f10610a7d57610100808354040283529160200191610aa8565b820191906000526020600020905b815481529060010190602001808311610a8b57829003601f168201915b505050505081525050828281518110610ac457610ac3611c35565b5b60200260200101819052508080610ada90611c93565b9150506106ae565b508092505050919050565b60026020528060005260406000206000915090508060000160009054906101000a900473ffffffffffffffffffffffffffffffffffffffff1690806001018054610b3690611c04565b80601f0160208091040260200160405190810160405280929190818152602001828054610b6290611c04565b8015610baf5780601f10610b8457610100808354040283529160200191610baf565b820191906000526020600020905b815481529060010190602001808311610b9257829003601f168201915b505050505090806002018054610bc490611c04565b80601f0160208091040260200160405190810160405280929190818152602001828054610bf090611c04565b8015610c3d5780601f10610c1257610100808354040283529160200191610c3d565b820191906000526020600020905b815481529060010190602001808311610c2057829003601f168201915b505050505090806003018054610c5290611c04565b80601f0160208091040260200160405190810160405280929190818152602001828054610c7e90611c04565b8015610ccb5780601f10610ca057610100808354040283529160200191610ccb565b820191906000526020600020905b815481529060010190602001808311610cae57829003601f168201915b505050505090806004018054610ce090611c04565b80601f0160208091040260200160405190810160405280929190818152602001828054610d0c90611c04565b8015610d595780601f10610d2e57610100808354040283529160200191610d59565b820191906000526020600020905b815481529060010190602001808311610d3c57829003601f168201915b505050505090806005018054610d6e90611c04565b80601f0160208091040260200160405190810160405280929190818152602001828054610d9a90611c04565b8015610de75780601f10610dbc57610100808354040283529160200191610de7565b820191906000526020600020905b815481529060010190602001808311610dca57829003601f168201915b505050505090806006018054610dfc90611c04565b80601f0160208091040260200160405190810160405280929190818152602001828054610e2890611c04565b8015610e755780601f10610e4a57610100808354040283529160200191610e75565b820191906000526020600020905b815481529060010190602001808311610e5857829003601f168201915b5050505050905087565b6060600360003373ffffffffffffffffffffffffffffffffffffffff1673ffffffffffffffffffffffffffffffffffffffff168152602001908152602001600020805480602002602001604051908101604052809291908181526020018280548015610f0a57602002820191906000526020600020905b815481526020019060010190808311610ef6575b5050505050905090565b60026000828152602001908152602001600020600080820160006101000a81549073ffffffffffffffffffffffffffffffffffffffff0219169055600182016000610f5f9190611243565b600282016000610f6f9190611243565b600382016000610f7f9190611243565b600482016000610f8f9190611243565b600582016000610f9f9190611243565b600682016000610faf9190611243565b505050565b6040518060e001604052803373ffffffffffffffffffffffffffffffffffffffff16815260200189898080601f016020809104026020016040519081016040528093929190818152602001838380828437600081840152601f19601f82011690508083019250505050505050815260200187878080601f016020809104026020016040519081016040528093929190818152602001838380828437600081840152601f19601f82011690508083019250505050505050815260200185815260200184815260200183815260200182815250600260008054815260200190815260200160002060008201518160000160006101000a81548173ffffffffffffffffffffffffffffffffffffffff021916908373ffffffffffffffffffffffffffffffffffffffff16021790555060208201518160010190816110f59190611e87565b50604082015181600201908161110b9190611e87565b5060608201518160030190816111219190611e87565b5060808201518160040190816111379190611e87565b5060a082015181600501908161114d9190611e87565b5060c08201518160060190816111639190611e87565b50905050600360003373ffffffffffffffffffffffffffffffffffffffff1673ffffffffffffffffffffffffffffffffffffffff16815260200190815260200160002060005490806001815401808255809150506001900390600052602060002001600090919091909150556000808154809291906111e190611c93565b91905055505050505050505050565b6040518060e00160405280600073ffffffffffffffffffffffffffffffffffffffff1681526020016060815260200160608152602001606081526020016060815260200160608152602001606081525090565b50805461124f90611c04565b6000825580601f106112615750611280565b601f01602090049060005260206000209081019061127f9190611283565b5b50565b5b8082111561129c576000816000905550600101611284565b5090565b6000604051905090565b600080fd5b600080fd5b600073ffffffffffffffffffffffffffffffffffffffff82169050919050565b60006112df826112b4565b9050919050565b6112ef816112d4565b81146112fa57600080fd5b50565b60008135905061130c816112e6565b92915050565b6000819050919050565b61132581611312565b811461133057600080fd5b50565b6000813590506113428161131c565b92915050565b6000806040838503121561135f5761135e6112aa565b5b600061136d858286016112fd565b925050602061137e85828601611333565b9150509250929050565b61139181611312565b82525050565b60006020820190506113ac6000830184611388565b92915050565b6000602082840312156113c8576113c76112aa565b5b60006113d684828501611333565b91505092915050565b6113e8816112d4565b82525050565b600081519050919050565b600082825260208201905092915050565b60005b8381101561142857808201518184015260208101905061140d565b60008484015250505050565b6000601f19601f8301169050919050565b6000611450826113ee565b61145a81856113f9565b935061146a81856020860161140a565b61147381611434565b840191505092915050565b600060e08301600083015161149660008601826113df565b50602083015184820360208601526114ae8282611445565b915050604083015184820360408601526114c88282611445565b915050606083015184820360608601526114e28282611445565b915050608083015184820360808601526114fc8282611445565b91505060a083015184820360a08601526115168282611445565b91505060c083015184820360c08601526115308282611445565b9150508091505092915050565b60006020820190508181036000830152611557818461147e565b905092915050565b600060208284031215611575576115746112aa565b5b6000611583848285016112fd565b91505092915050565b600081519050919050565b600082825260208201905092915050565b6000819050602082019050919050565b600060e0830160008301516115d060008601826113df565b50602083015184820360208601526115e88282611445565b915050604083015184820360408601526116028282611445565b9150506060830151848203606086015261161c8282611445565b915050608083015184820360808601526116368282611445565b91505060a083015184820360a08601526116508282611445565b91505060c083015184820360c086015261166a8282611445565b9150508091505092915050565b600061168383836115b8565b905092915050565b6000602082019050919050565b60006116a38261158c565b6116ad8185611597565b9350836020820285016116bf856115a8565b8060005b858110156116fb57848403895281516116dc8582611677565b94506116e78361168b565b925060208a019950506001810190506116c3565b50829750879550505050505092915050565b600060208201905081810360008301526117278184611698565b905092915050565b611738816112d4565b82525050565b600082825260208201905092915050565b600061175a826113ee565b611764818561173e565b935061177481856020860161140a565b61177d81611434565b840191505092915050565b600060e08201905061179d600083018a61172f565b81810360208301526117af818961174f565b905081810360408301526117c3818861174f565b905081810360608301526117d7818761174f565b905081810360808301526117eb818661174f565b905081810360a08301526117ff818561174f565b905081810360c0830152611813818461174f565b905098975050505050505050565b600081519050919050565b600082825260208201905092915050565b6000819050602082019050919050565b61185681611312565b82525050565b6000611868838361184d565b60208301905092915050565b6000602082019050919050565b600061188c82611821565b611896818561182c565b93506118a18361183d565b8060005b838110156118d25781516118b9888261185c565b97506118c483611874565b9250506001810190506118a5565b5085935050505092915050565b600060208201905081810360008301526118f98184611881565b905092915050565b600080fd5b600080fd5b600080fd5b60008083601f84011261192657611925611901565b5b8235905067ffffffffffffffff81111561194357611942611906565b5b60208301915083600182028301111561195f5761195e61190b565b5b9250929050565b600080fd5b7f4e487b7100000000000000000000000000000000000000000000000000000000600052604160045260246000fd5b6119a382611434565b810181811067ffffffffffffffff821117156119c2576119c161196b565b5b80604052505050565b60006119d56112a0565b90506119e1828261199a565b919050565b600067ffffffffffffffff821115611a0157611a0061196b565b5b611a0a82611434565b9050602081019050919050565b82818337600083830152505050565b6000611a39611a34846119e6565b6119cb565b905082815260208101848484011115611a5557611a54611966565b5b611a60848285611a17565b509392505050565b600082601f830112611a7d57611a7c611901565b5b8135611a8d848260208601611a26565b91505092915050565b60008060008060008060008060c0898b031215611ab657611ab56112aa565b5b600089013567ffffffffffffffff811115611ad457611ad36112af565b5b611ae08b828c01611910565b9850985050602089013567ffffffffffffffff811115611b0357611b026112af565b5b611b0f8b828c01611910565b9650965050604089013567ffffffffffffffff811115611b3257611b316112af565b5b611b3e8b828c01611a68565b945050606089013567ffffffffffffffff811115611b5f57611b5e6112af565b5b611b6b8b828c01611a68565b935050608089013567ffffffffffffffff811115611b8c57611b8b6112af565b5b611b988b828c01611a68565b92505060a089013567ffffffffffffffff811115611bb957611bb86112af565b5b611bc58b828c01611a68565b9150509295985092959890939650565b7f4e487b7100000000000000000000000000000000000000000000000000000000600052602260045260246000fd5b60006002820490506001821680611c1c57607f821691505b602082108103611c2f57611c2e611bd5565b5b50919050565b7f4e487b7100000000000000000000000000000000000000000000000000000000600052603260045260246000fd5b7f4e487b7100000000000000000000000000000000000000000000000000000000600052601160045260246000fd5b6000611c9e82611312565b91507fffffffffffffffffffffffffffffffffffffffffffffffffffffffffffffffff8203611cd057611ccf611c64565b5b600182019050919050565b60008190508160005260206000209050919050565b60006020601f8301049050919050565b600082821b905092915050565b600060088302611d3d7fffffffffffffffffffffffffffffffffffffffffffffffffffffffffffffffff82611d00565b611d478683611d00565b95508019841693508086168417925050509392505050565b6000819050919050565b6000611d84611d7f611d7a84611312565b611d5f565b611312565b9050919050565b6000819050919050565b611d9e83611d69565b611db2611daa82611d8b565b848454611d0d565b825550505050565b600090565b611dc7611dba565b611dd2818484611d95565b505050565b5b81811015611df657611deb600082611dbf565b600181019050611dd8565b5050565b601f821115611e3b57611e0c81611cdb565b611e1584611cf0565b81016020851015611e24578190505b611e38611e3085611cf0565b830182611dd7565b50505b505050565b600082821c905092915050565b6000611e5e60001984600802611e40565b1980831691505092915050565b6000611e778383611e4d565b9150826002028217905092915050565b611e90826113ee565b67ffffffffffffffff811115611ea957611ea861196b565b5b611eb38254611c04565b611ebe828285611dfa565b600060209050601f831160018114611ef15760008415611edf578287015190505b611ee98582611e6b565b865550611f51565b601f198416611eff86611cdb565b60005b82811015611f2757848901518255600182019150602085019450602081019050611f02565b86831015611f445784890151611f40601f891682611e4d565b8355505b6001600288020188555050505b50505050505056fea2646970667358221220d8a4464484fb2959210ccd20784b4e5b683e193bbd3005022b92e03a41b2744764736f6c63430008120033",
					"opcodes": "PUSH1 0x80 PUSH1 0x40 MSTORE PUSH1 0x1 PUSH1 0x0 SSTORE CALLVALUE DUP1 ISZERO PUSH2 0x15 JUMPI PUSH1 0x0 DUP1 REVERT JUMPDEST POP PUSH2 0x1F8F DUP1 PUSH2 0x25 PUSH1 0x0 CODECOPY PUSH1 0x0 RETURN INVALID PUSH1 0x80 PUSH1 0x40 MSTORE CALLVALUE DUP1 ISZERO PUSH2 0x10 JUMPI PUSH1 0x0 DUP1 REVERT JUMPDEST POP PUSH1 0x4 CALLDATASIZE LT PUSH2 0x7D JUMPI PUSH1 0x0 CALLDATALOAD PUSH1 0xE0 SHR DUP1 PUSH4 0x9E9C191D GT PUSH2 0x5B JUMPI DUP1 PUSH4 0x9E9C191D EQ PUSH2 0x112 JUMPI DUP1 PUSH4 0xE10F28C7 EQ PUSH2 0x148 JUMPI DUP1 PUSH4 0xED90C7B7 EQ PUSH2 0x166 JUMPI DUP1 PUSH4 0xF4A8DBF9 EQ PUSH2 0x182 JUMPI PUSH2 0x7D JUMP JUMPDEST DUP1 PUSH4 0x21C6F9E5 EQ PUSH2 0x82 JUMPI DUP1 PUSH4 0x2E1F9763 EQ PUSH2 0xB2 JUMPI DUP1 PUSH4 0x83F95853 EQ PUSH2 0xE2 JUMPI JUMPDEST PUSH1 0x0 DUP1 REVERT JUMPDEST PUSH2 0x9C PUSH1 0x4 DUP1 CALLDATASIZE SUB DUP2 ADD SWAP1 PUSH2 0x97 SWAP2 SWAP1 PUSH2 0x1348 JUMP JUMPDEST PUSH2 0x19E JUMP JUMPDEST PUSH1 0x40 MLOAD PUSH2 0xA9 SWAP2 SWAP1 PUSH2 0x1397 JUMP JUMPDEST PUSH1 0x40 MLOAD DUP1 SWAP2 SUB SWAP1 RETURN JUMPDEST PUSH2 0xCC PUSH1 0x4 DUP1 CALLDATASIZE SUB DUP2 ADD SWAP1 PUSH2 0xC7 SWAP2 SWAP1 PUSH2 0x13B2 JUMP JUMPDEST PUSH2 0x1CF JUMP JUMPDEST PUSH1 0x40 MLOAD PUSH2 0xD9 SWAP2 SWAP1 PUSH2 0x153D JUMP JUMPDEST PUSH1 0x40 MLOAD DUP1 SWAP2 SUB SWAP1 RETURN JUMPDEST PUSH2 0xFC PUSH1 0x4 DUP1 CALLDATASIZE SUB DUP2 ADD SWAP1 PUSH2 0xF7 SWAP2 SWAP1 PUSH2 0x155F JUMP JUMPDEST PUSH2 0x5BE JUMP JUMPDEST PUSH1 0x40 MLOAD PUSH2 0x109 SWAP2 SWAP1 PUSH2 0x170D JUMP JUMPDEST PUSH1 0x40 MLOAD DUP1 SWAP2 SUB SWAP1 RETURN JUMPDEST PUSH2 0x12C PUSH1 0x4 DUP1 CALLDATASIZE SUB DUP2 ADD SWAP1 PUSH2 0x127 SWAP2 SWAP1 PUSH2 0x13B2 JUMP JUMPDEST PUSH2 0xAED JUMP JUMPDEST PUSH1 0x40 MLOAD PUSH2 0x13F SWAP8 SWAP7 SWAP6 SWAP5 SWAP4 SWAP3 SWAP2 SWAP1 PUSH2 0x1788 JUMP JUMPDEST PUSH1 0x40 MLOAD DUP1 SWAP2 SUB SWAP1 RETURN JUMPDEST PUSH2 0x150 PUSH2 0xE7F JUMP JUMPDEST PUSH1 0x40 MLOAD PUSH2 0x15D SWAP2 SWAP1 PUSH2 0x18DF JUMP JUMPDEST PUSH1 0x40 MLOAD DUP1 SWAP2 SUB SWAP1 RETURN JUMPDEST PUSH2 0x180 PUSH1 0x4 DUP1 CALLDATASIZE SUB DUP2 ADD SWAP1 PUSH2 0x17B SWAP2 SWAP1 PUSH2 0x13B2 JUMP JUMPDEST PUSH2 0xF14 JUMP JUMPDEST STOP JUMPDEST PUSH2 0x19C PUSH1 0x4 DUP1 CALLDATASIZE SUB DUP2 ADD SWAP1 PUSH2 0x197 SWAP2 SWAP1 PUSH2 0x1A96 JUMP JUMPDEST PUSH2 0xFB4 JUMP JUMPDEST STOP JUMPDEST PUSH1 0x3 PUSH1 0x20 MSTORE DUP2 PUSH1 0x0 MSTORE PUSH1 0x40 PUSH1 0x0 KECCAK256 DUP2 DUP2 SLOAD DUP2 LT PUSH2 0x1BA JUMPI PUSH1 0x0 DUP1 REVERT JUMPDEST SWAP1 PUSH1 0x0 MSTORE PUSH1 0x20 PUSH1 0x0 KECCAK256 ADD PUSH1 0x0 SWAP2 POP SWAP2 POP POP SLOAD DUP2 JUMP JUMPDEST PUSH2 0x1D7 PUSH2 0x11F0 JUMP JUMPDEST PUSH1 0x2 PUSH1 0x0 DUP4 DUP2 MSTORE PUSH1 0x20 ADD SWAP1 DUP2 MSTORE PUSH1 0x20 ADD PUSH1 0x0 KECCAK256 PUSH1 0x40 MLOAD DUP1 PUSH1 0xE0 ADD PUSH1 0x40 MSTORE SWAP1 DUP2 PUSH1 0x0 DUP3 ADD PUSH1 0x0 SWAP1 SLOAD SWAP1 PUSH2 0x100 EXP SWAP1 DIV PUSH20 0xFFFFFFFFFFFFFFFFFFFFFFFFFFFFFFFFFFFFFFFF AND PUSH20 0xFFFFFFFFFFFFFFFFFFFFFFFFFFFFFFFFFFFFFFFF AND PUSH20 0xFFFFFFFFFFFFFFFFFFFFFFFFFFFFFFFFFFFFFFFF AND DUP2 MSTORE PUSH1 0x20 ADD PUSH1 0x1 DUP3 ADD DUP1 SLOAD PUSH2 0x25B SWAP1 PUSH2 0x1C04 JUMP JUMPDEST DUP1 PUSH1 0x1F ADD PUSH1 0x20 DUP1 SWAP2 DIV MUL PUSH1 0x20 ADD PUSH1 0x40 MLOAD SWAP1 DUP2 ADD PUSH1 0x40 MSTORE DUP1 SWAP3 SWAP2 SWAP1 DUP2 DUP2 MSTORE PUSH1 0x20 ADD DUP3 DUP1 SLOAD PUSH2 0x287 SWAP1 PUSH2 0x1C04 JUMP JUMPDEST DUP1 ISZERO PUSH2 0x2D4 JUMPI DUP1 PUSH1 0x1F LT PUSH2 0x2A9 JUMPI PUSH2 0x100 DUP1 DUP4 SLOAD DIV MUL DUP4 MSTORE SWAP2 PUSH1 0x20 ADD SWAP2 PUSH2 0x2D4 JUMP JUMPDEST DUP3 ADD SWAP2 SWAP1 PUSH1 0x0 MSTORE PUSH1 0x20 PUSH1 0x0 KECCAK256 SWAP1 JUMPDEST DUP2 SLOAD DUP2 MSTORE SWAP1 PUSH1 0x1 ADD SWAP1 PUSH1 0x20 ADD DUP1 DUP4 GT PUSH2 0x2B7 JUMPI DUP3 SWAP1 SUB PUSH1 0x1F AND DUP3 ADD SWAP2 JUMPDEST POP POP POP POP POP DUP2 MSTORE PUSH1 0x20 ADD PUSH1 0x2 DUP3 ADD DUP1 SLOAD PUSH2 0x2ED SWAP1 PUSH2 0x1C04 JUMP JUMPDEST DUP1 PUSH1 0x1F ADD PUSH1 0x20 DUP1 SWAP2 DIV MUL PUSH1 0x20 ADD PUSH1 0x40 MLOAD SWAP1 DUP2 ADD PUSH1 0x40 MSTORE DUP1 SWAP3 SWAP2 SWAP1 DUP2 DUP2 MSTORE PUSH1 0x20 ADD DUP3 DUP1 SLOAD PUSH2 0x319 SWAP1 PUSH2 0x1C04 JUMP JUMPDEST DUP1 ISZERO PUSH2 0x366 JUMPI DUP1 PUSH1 0x1F LT PUSH2 0x33B JUMPI PUSH2 0x100 DUP1 DUP4 SLOAD DIV MUL DUP4 MSTORE SWAP2 PUSH1 0x20 ADD SWAP2 PUSH2 0x366 JUMP JUMPDEST DUP3 ADD SWAP2 SWAP1 PUSH1 0x0 MSTORE PUSH1 0x20 PUSH1 0x0 KECCAK256 SWAP1 JUMPDEST DUP2 SLOAD DUP2 MSTORE SWAP1 PUSH1 0x1 ADD SWAP1 PUSH1 0x20 ADD DUP1 DUP4 GT PUSH2 0x349 JUMPI DUP3 SWAP1 SUB PUSH1 0x1F AND DUP3 ADD SWAP2 JUMPDEST POP POP POP POP POP DUP2 MSTORE PUSH1 0x20 ADD PUSH1 0x3 DUP3 ADD DUP1 SLOAD PUSH2 0x37F SWAP1 PUSH2 0x1C04 JUMP JUMPDEST DUP1 PUSH1 0x1F ADD PUSH1 0x20 DUP1 SWAP2 DIV MUL PUSH1 0x20 ADD PUSH1 0x40 MLOAD SWAP1 DUP2 ADD PUSH1 0x40 MSTORE DUP1 SWAP3 SWAP2 SWAP1 DUP2 DUP2 MSTORE PUSH1 0x20 ADD DUP3 DUP1 SLOAD PUSH2 0x3AB SWAP1 PUSH2 0x1C04 JUMP JUMPDEST DUP1 ISZERO PUSH2 0x3F8 JUMPI DUP1 PUSH1 0x1F LT PUSH2 0x3CD JUMPI PUSH2 0x100 DUP1 DUP4 SLOAD DIV MUL DUP4 MSTORE SWAP2 PUSH1 0x20 ADD SWAP2 PUSH2 0x3F8 JUMP JUMPDEST DUP3 ADD SWAP2 SWAP1 PUSH1 0x0 MSTORE PUSH1 0x20 PUSH1 0x0 KECCAK256 SWAP1 JUMPDEST DUP2 SLOAD DUP2 MSTORE SWAP1 PUSH1 0x1 ADD SWAP1 PUSH1 0x20 ADD DUP1 DUP4 GT PUSH2 0x3DB JUMPI DUP3 SWAP1 SUB PUSH1 0x1F AND DUP3 ADD SWAP2 JUMPDEST POP POP POP POP POP DUP2 MSTORE PUSH1 0x20 ADD PUSH1 0x4 DUP3 ADD DUP1 SLOAD PUSH2 0x411 SWAP1 PUSH2 0x1C04 JUMP JUMPDEST DUP1 PUSH1 0x1F ADD PUSH1 0x20 DUP1 SWAP2 DIV MUL PUSH1 0x20 ADD PUSH1 0x40 MLOAD SWAP1 DUP2 ADD PUSH1 0x40 MSTORE DUP1 SWAP3 SWAP2 SWAP1 DUP2 DUP2 MSTORE PUSH1 0x20 ADD DUP3 DUP1 SLOAD PUSH2 0x43D SWAP1 PUSH2 0x1C04 JUMP JUMPDEST DUP1 ISZERO PUSH2 0x48A JUMPI DUP1 PUSH1 0x1F LT PUSH2 0x45F JUMPI PUSH2 0x100 DUP1 DUP4 SLOAD DIV MUL DUP4 MSTORE SWAP2 PUSH1 0x20 ADD SWAP2 PUSH2 0x48A JUMP JUMPDEST DUP3 ADD SWAP2 SWAP1 PUSH1 0x0 MSTORE PUSH1 0x20 PUSH1 0x0 KECCAK256 SWAP1 JUMPDEST DUP2 SLOAD DUP2 MSTORE SWAP1 PUSH1 0x1 ADD SWAP1 PUSH1 0x20 ADD DUP1 DUP4 GT PUSH2 0x46D JUMPI DUP3 SWAP1 SUB PUSH1 0x1F AND DUP3 ADD SWAP2 JUMPDEST POP POP POP POP POP DUP2 MSTORE PUSH1 0x20 ADD PUSH1 0x5 DUP3 ADD DUP1 SLOAD PUSH2 0x4A3 SWAP1 PUSH2 0x1C04 JUMP JUMPDEST DUP1 PUSH1 0x1F ADD PUSH1 0x20 DUP1 SWAP2 DIV MUL PUSH1 0x20 ADD PUSH1 0x40 MLOAD SWAP1 DUP2 ADD PUSH1 0x40 MSTORE DUP1 SWAP3 SWAP2 SWAP1 DUP2 DUP2 MSTORE PUSH1 0x20 ADD DUP3 DUP1 SLOAD PUSH2 0x4CF SWAP1 PUSH2 0x1C04 JUMP JUMPDEST DUP1 ISZERO PUSH2 0x51C JUMPI DUP1 PUSH1 0x1F LT PUSH2 0x4F1 JUMPI PUSH2 0x100 DUP1 DUP4 SLOAD DIV MUL DUP4 MSTORE SWAP2 PUSH1 0x20 ADD SWAP2 PUSH2 0x51C JUMP JUMPDEST DUP3 ADD SWAP2 SWAP1 PUSH1 0x0 MSTORE PUSH1 0x20 PUSH1 0x0 KECCAK256 SWAP1 JUMPDEST DUP2 SLOAD DUP2 MSTORE SWAP1 PUSH1 0x1 ADD SWAP1 PUSH1 0x20 ADD DUP1 DUP4 GT PUSH2 0x4FF JUMPI DUP3 SWAP1 SUB PUSH1 0x1F AND DUP3 ADD SWAP2 JUMPDEST POP POP POP POP POP DUP2 MSTORE PUSH1 0x20 ADD PUSH1 0x6 DUP3 ADD DUP1 SLOAD PUSH2 0x535 SWAP1 PUSH2 0x1C04 JUMP JUMPDEST DUP1 PUSH1 0x1F ADD PUSH1 0x20 DUP1 SWAP2 DIV MUL PUSH1 0x20 ADD PUSH1 0x40 MLOAD SWAP1 DUP2 ADD PUSH1 0x40 MSTORE DUP1 SWAP3 SWAP2 SWAP1 DUP2 DUP2 MSTORE PUSH1 0x20 ADD DUP3 DUP1 SLOAD PUSH2 0x561 SWAP1 PUSH2 0x1C04 JUMP JUMPDEST DUP1 ISZERO PUSH2 0x5AE JUMPI DUP1 PUSH1 0x1F LT PUSH2 0x583 JUMPI PUSH2 0x100 DUP1 DUP4 SLOAD DIV MUL DUP4 MSTORE SWAP2 PUSH1 0x20 ADD SWAP2 PUSH2 0x5AE JUMP JUMPDEST DUP3 ADD SWAP2 SWAP1 PUSH1 0x0 MSTORE PUSH1 0x20 PUSH1 0x0 KECCAK256 SWAP1 JUMPDEST DUP2 SLOAD DUP2 MSTORE SWAP1 PUSH1 0x1 ADD SWAP1 PUSH1 0x20 ADD DUP1 DUP4 GT PUSH2 0x591 JUMPI DUP3 SWAP1 SUB PUSH1 0x1F AND DUP3 ADD SWAP2 JUMPDEST POP POP POP POP POP DUP2 MSTORE POP POP SWAP1 POP SWAP2 SWAP1 POP JUMP JUMPDEST PUSH1 0x60 PUSH1 0x0 PUSH1 0x3 PUSH1 0x0 DUP5 PUSH20 0xFFFFFFFFFFFFFFFFFFFFFFFFFFFFFFFFFFFFFFFF AND PUSH20 0xFFFFFFFFFFFFFFFFFFFFFFFFFFFFFFFFFFFFFFFF AND DUP2 MSTORE PUSH1 0x20 ADD SWAP1 DUP2 MSTORE PUSH1 0x20 ADD PUSH1 0x0 KECCAK256 DUP1 SLOAD DUP1 PUSH1 0x20 MUL PUSH1 0x20 ADD PUSH1 0x40 MLOAD SWAP1 DUP2 ADD PUSH1 0x40 MSTORE DUP1 SWAP3 SWAP2 SWAP1 DUP2 DUP2 MSTORE PUSH1 0x20 ADD DUP3 DUP1 SLOAD DUP1 ISZERO PUSH2 0x64B JUMPI PUSH1 0x20 MUL DUP3 ADD SWAP2 SWAP1 PUSH1 0x0 MSTORE PUSH1 0x20 PUSH1 0x0 KECCAK256 SWAP1 JUMPDEST DUP2 SLOAD DUP2 MSTORE PUSH1 0x20 ADD SWAP1 PUSH1 0x1 ADD SWAP1 DUP1 DUP4 GT PUSH2 0x637 JUMPI JUMPDEST POP POP POP POP POP SWAP1 POP PUSH1 0x0 DUP2 MLOAD PUSH8 0xFFFFFFFFFFFFFFFF DUP2 GT ISZERO PUSH2 0x66F JUMPI PUSH2 0x66E PUSH2 0x196B JUMP JUMPDEST JUMPDEST PUSH1 0x40 MLOAD SWAP1 DUP1 DUP3 MSTORE DUP1 PUSH1 0x20 MUL PUSH1 0x20 ADD DUP3 ADD PUSH1 0x40 MSTORE DUP1 ISZERO PUSH2 0x6A8 JUMPI DUP2 PUSH1 0x20 ADD JUMPDEST PUSH2 0x695 PUSH2 0x11F0 JUMP JUMPDEST DUP2 MSTORE PUSH1 0x20 ADD SWAP1 PUSH1 0x1 SWAP1 SUB SWAP1 DUP2 PUSH2 0x68D JUMPI SWAP1 POP JUMPDEST POP SWAP1 POP PUSH1 0x0 JUMPDEST DUP3 MLOAD DUP2 LT ISZERO PUSH2 0xAE2 JUMPI PUSH1 0x2 PUSH1 0x0 DUP5 DUP4 DUP2 MLOAD DUP2 LT PUSH2 0x6CE JUMPI PUSH2 0x6CD PUSH2 0x1C35 JUMP JUMPDEST JUMPDEST PUSH1 0x20 MUL PUSH1 0x20 ADD ADD MLOAD DUP2 MSTORE PUSH1 0x20 ADD SWAP1 DUP2 MSTORE PUSH1 0x20 ADD PUSH1 0x0 KECCAK256 PUSH1 0x40 MLOAD DUP1 PUSH1 0xE0 ADD PUSH1 0x40 MSTORE SWAP1 DUP2 PUSH1 0x0 DUP3 ADD PUSH1 0x0 SWAP1 SLOAD SWAP1 PUSH2 0x100 EXP SWAP1 DIV PUSH20 0xFFFFFFFFFFFFFFFFFFFFFFFFFFFFFFFFFFFFFFFF AND PUSH20 0xFFFFFFFFFFFFFFFFFFFFFFFFFFFFFFFFFFFFFFFF AND PUSH20 0xFFFFFFFFFFFFFFFFFFFFFFFFFFFFFFFFFFFFFFFF AND DUP2 MSTORE PUSH1 0x20 ADD PUSH1 0x1 DUP3 ADD DUP1 SLOAD PUSH2 0x755 SWAP1 PUSH2 0x1C04 JUMP JUMPDEST DUP1 PUSH1 0x1F ADD PUSH1 0x20 DUP1 SWAP2 DIV MUL PUSH1 0x20 ADD PUSH1 0x40 MLOAD SWAP1 DUP2 ADD PUSH1 0x40 MSTORE DUP1 SWAP3 SWAP2 SWAP1 DUP2 DUP2 MSTORE PUSH1 0x20 ADD DUP3 DUP1 SLOAD PUSH2 0x781 SWAP1 PUSH2 0x1C04 JUMP JUMPDEST DUP1 ISZERO PUSH2 0x7CE JUMPI DUP1 PUSH1 0x1F LT PUSH2 0x7A3 JUMPI PUSH2 0x100 DUP1 DUP4 SLOAD DIV MUL DUP4 MSTORE SWAP2 PUSH1 0x20 ADD SWAP2 PUSH2 0x7CE JUMP JUMPDEST DUP3 ADD SWAP2 SWAP1 PUSH1 0x0 MSTORE PUSH1 0x20 PUSH1 0x0 KECCAK256 SWAP1 JUMPDEST DUP2 SLOAD DUP2 MSTORE SWAP1 PUSH1 0x1 ADD SWAP1 PUSH1 0x20 ADD DUP1 DUP4 GT PUSH2 0x7B1 JUMPI DUP3 SWAP1 SUB PUSH1 0x1F AND DUP3 ADD SWAP2 JUMPDEST POP POP POP POP POP DUP2 MSTORE PUSH1 0x20 ADD PUSH1 0x2 DUP3 ADD DUP1 SLOAD PUSH2 0x7E7 SWAP1 PUSH2 0x1C04 JUMP JUMPDEST DUP1 PUSH1 0x1F ADD PUSH1 0x20 DUP1 SWAP2 DIV MUL PUSH1 0x20 ADD PUSH1 0x40 MLOAD SWAP1 DUP2 ADD PUSH1 0x40 MSTORE DUP1 SWAP3 SWAP2 SWAP1 DUP2 DUP2 MSTORE PUSH1 0x20 ADD DUP3 DUP1 SLOAD PUSH2 0x813 SWAP1 PUSH2 0x1C04 JUMP JUMPDEST DUP1 ISZERO PUSH2 0x860 JUMPI DUP1 PUSH1 0x1F LT PUSH2 0x835 JUMPI PUSH2 0x100 DUP1 DUP4 SLOAD DIV MUL DUP4 MSTORE SWAP2 PUSH1 0x20 ADD SWAP2 PUSH2 0x860 JUMP JUMPDEST DUP3 ADD SWAP2 SWAP1 PUSH1 0x0 MSTORE PUSH1 0x20 PUSH1 0x0 KECCAK256 SWAP1 JUMPDEST DUP2 SLOAD DUP2 MSTORE SWAP1 PUSH1 0x1 ADD SWAP1 PUSH1 0x20 ADD DUP1 DUP4 GT PUSH2 0x843 JUMPI DUP3 SWAP1 SUB PUSH1 0x1F AND DUP3 ADD SWAP2 JUMPDEST POP POP POP POP POP DUP2 MSTORE PUSH1 0x20 ADD PUSH1 0x3 DUP3 ADD DUP1 SLOAD PUSH2 0x879 SWAP1 PUSH2 0x1C04 JUMP JUMPDEST DUP1 PUSH1 0x1F ADD PUSH1 0x20 DUP1 SWAP2 DIV MUL PUSH1 0x20 ADD PUSH1 0x40 MLOAD SWAP1 DUP2 ADD PUSH1 0x40 MSTORE DUP1 SWAP3 SWAP2 SWAP1 DUP2 DUP2 MSTORE PUSH1 0x20 ADD DUP3 DUP1 SLOAD PUSH2 0x8A5 SWAP1 PUSH2 0x1C04 JUMP JUMPDEST DUP1 ISZERO PUSH2 0x8F2 JUMPI DUP1 PUSH1 0x1F LT PUSH2 0x8C7 JUMPI PUSH2 0x100 DUP1 DUP4 SLOAD DIV MUL DUP4 MSTORE SWAP2 PUSH1 0x20 ADD SWAP2 PUSH2 0x8F2 JUMP JUMPDEST DUP3 ADD SWAP2 SWAP1 PUSH1 0x0 MSTORE PUSH1 0x20 PUSH1 0x0 KECCAK256 SWAP1 JUMPDEST DUP2 SLOAD DUP2 MSTORE SWAP1 PUSH1 0x1 ADD SWAP1 PUSH1 0x20 ADD DUP1 DUP4 GT PUSH2 0x8D5 JUMPI DUP3 SWAP1 SUB PUSH1 0x1F AND DUP3 ADD SWAP2 JUMPDEST POP POP POP POP POP DUP2 MSTORE PUSH1 0x20 ADD PUSH1 0x4 DUP3 ADD DUP1 SLOAD PUSH2 0x90B SWAP1 PUSH2 0x1C04 JUMP JUMPDEST DUP1 PUSH1 0x1F ADD PUSH1 0x20 DUP1 SWAP2 DIV MUL PUSH1 0x20 ADD PUSH1 0x40 MLOAD SWAP1 DUP2 ADD PUSH1 0x40 MSTORE DUP1 SWAP3 SWAP2 SWAP1 DUP2 DUP2 MSTORE PUSH1 0x20 ADD DUP3 DUP1 SLOAD PUSH2 0x937 SWAP1 PUSH2 0x1C04 JUMP JUMPDEST DUP1 ISZERO PUSH2 0x984 JUMPI DUP1 PUSH1 0x1F LT PUSH2 0x959 JUMPI PUSH2 0x100 DUP1 DUP4 SLOAD DIV MUL DUP4 MSTORE SWAP2 PUSH1 0x20 ADD SWAP2 PUSH2 0x984 JUMP JUMPDEST DUP3 ADD SWAP2 SWAP1 PUSH1 0x0 MSTORE PUSH1 0x20 PUSH1 0x0 KECCAK256 SWAP1 JUMPDEST DUP2 SLOAD DUP2 MSTORE SWAP1 PUSH1 0x1 ADD SWAP1 PUSH1 0x20 ADD DUP1 DUP4 GT PUSH2 0x967 JUMPI DUP3 SWAP1 SUB PUSH1 0x1F AND DUP3 ADD SWAP2 JUMPDEST POP POP POP POP POP DUP2 MSTORE PUSH1 0x20 ADD PUSH1 0x5 DUP3 ADD DUP1 SLOAD PUSH2 0x99D SWAP1 PUSH2 0x1C04 JUMP JUMPDEST DUP1 PUSH1 0x1F ADD PUSH1 0x20 DUP1 SWAP2 DIV MUL PUSH1 0x20 ADD PUSH1 0x40 MLOAD SWAP1 DUP2 ADD PUSH1 0x40 MSTORE DUP1 SWAP3 SWAP2 SWAP1 DUP2 DUP2 MSTORE PUSH1 0x20 ADD DUP3 DUP1 SLOAD PUSH2 0x9C9 SWAP1 PUSH2 0x1C04 JUMP JUMPDEST DUP1 ISZERO PUSH2 0xA16 JUMPI DUP1 PUSH1 0x1F LT PUSH2 0x9EB JUMPI PUSH2 0x100 DUP1 DUP4 SLOAD DIV MUL DUP4 MSTORE SWAP2 PUSH1 0x20 ADD SWAP2 PUSH2 0xA16 JUMP JUMPDEST DUP3 ADD SWAP2 SWAP1 PUSH1 0x0 MSTORE PUSH1 0x20 PUSH1 0x0 KECCAK256 SWAP1 JUMPDEST DUP2 SLOAD DUP2 MSTORE SWAP1 PUSH1 0x1 ADD SWAP1 PUSH1 0x20 ADD DUP1 DUP4 GT PUSH2 0x9F9 JUMPI DUP3 SWAP1 SUB PUSH1 0x1F AND DUP3 ADD SWAP2 JUMPDEST POP POP POP POP POP DUP2 MSTORE PUSH1 0x20 ADD PUSH1 0x6 DUP3 ADD DUP1 SLOAD PUSH2 0xA2F SWAP1 PUSH2 0x1C04 JUMP JUMPDEST DUP1 PUSH1 0x1F ADD PUSH1 0x20 DUP1 SWAP2 DIV MUL PUSH1 0x20 ADD PUSH1 0x40 MLOAD SWAP1 DUP2 ADD PUSH1 0x40 MSTORE DUP1 SWAP3 SWAP2 SWAP1 DUP2 DUP2 MSTORE PUSH1 0x20 ADD DUP3 DUP1 SLOAD PUSH2 0xA5B SWAP1 PUSH2 0x1C04 JUMP JUMPDEST DUP1 ISZERO PUSH2 0xAA8 JUMPI DUP1 PUSH1 0x1F LT PUSH2 0xA7D JUMPI PUSH2 0x100 DUP1 DUP4 SLOAD DIV MUL DUP4 MSTORE SWAP2 PUSH1 0x20 ADD SWAP2 PUSH2 0xAA8 JUMP JUMPDEST DUP3 ADD SWAP2 SWAP1 PUSH1 0x0 MSTORE PUSH1 0x20 PUSH1 0x0 KECCAK256 SWAP1 JUMPDEST DUP2 SLOAD DUP2 MSTORE SWAP1 PUSH1 0x1 ADD SWAP1 PUSH1 0x20 ADD DUP1 DUP4 GT PUSH2 0xA8B JUMPI DUP3 SWAP1 SUB PUSH1 0x1F AND DUP3 ADD SWAP2 JUMPDEST POP POP POP POP POP DUP2 MSTORE POP POP DUP3 DUP3 DUP2 MLOAD DUP2 LT PUSH2 0xAC4 JUMPI PUSH2 0xAC3 PUSH2 0x1C35 JUMP JUMPDEST JUMPDEST PUSH1 0x20 MUL PUSH1 0x20 ADD ADD DUP2 SWAP1 MSTORE POP DUP1 DUP1 PUSH2 0xADA SWAP1 PUSH2 0x1C93 JUMP JUMPDEST SWAP2 POP POP PUSH2 0x6AE JUMP JUMPDEST POP DUP1 SWAP3 POP POP POP SWAP2 SWAP1 POP JUMP JUMPDEST PUSH1 0x2 PUSH1 0x20 MSTORE DUP1 PUSH1 0x0 MSTORE PUSH1 0x40 PUSH1 0x0 KECCAK256 PUSH1 0x0 SWAP2 POP SWAP1 POP DUP1 PUSH1 0x0 ADD PUSH1 0x0 SWAP1 SLOAD SWAP1 PUSH2 0x100 EXP SWAP1 DIV PUSH20 0xFFFFFFFFFFFFFFFFFFFFFFFFFFFFFFFFFFFFFFFF AND SWAP1 DUP1 PUSH1 0x1 ADD DUP1 SLOAD PUSH2 0xB36 SWAP1 PUSH2 0x1C04 JUMP JUMPDEST DUP1 PUSH1 0x1F ADD PUSH1 0x20 DUP1 SWAP2 DIV MUL PUSH1 0x20 ADD PUSH1 0x40 MLOAD SWAP1 DUP2 ADD PUSH1 0x40 MSTORE DUP1 SWAP3 SWAP2 SWAP1 DUP2 DUP2 MSTORE PUSH1 0x20 ADD DUP3 DUP1 SLOAD PUSH2 0xB62 SWAP1 PUSH2 0x1C04 JUMP JUMPDEST DUP1 ISZERO PUSH2 0xBAF JUMPI DUP1 PUSH1 0x1F LT PUSH2 0xB84 JUMPI PUSH2 0x100 DUP1 DUP4 SLOAD DIV MUL DUP4 MSTORE SWAP2 PUSH1 0x20 ADD SWAP2 PUSH2 0xBAF JUMP JUMPDEST DUP3 ADD SWAP2 SWAP1 PUSH1 0x0 MSTORE PUSH1 0x20 PUSH1 0x0 KECCAK256 SWAP1 JUMPDEST DUP2 SLOAD DUP2 MSTORE SWAP1 PUSH1 0x1 ADD SWAP1 PUSH1 0x20 ADD DUP1 DUP4 GT PUSH2 0xB92 JUMPI DUP3 SWAP1 SUB PUSH1 0x1F AND DUP3 ADD SWAP2 JUMPDEST POP POP POP POP POP SWAP1 DUP1 PUSH1 0x2 ADD DUP1 SLOAD PUSH2 0xBC4 SWAP1 PUSH2 0x1C04 JUMP JUMPDEST DUP1 PUSH1 0x1F ADD PUSH1 0x20 DUP1 SWAP2 DIV MUL PUSH1 0x20 ADD PUSH1 0x40 MLOAD SWAP1 DUP2 ADD PUSH1 0x40 MSTORE DUP1 SWAP3 SWAP2 SWAP1 DUP2 DUP2 MSTORE PUSH1 0x20 ADD DUP3 DUP1 SLOAD PUSH2 0xBF0 SWAP1 PUSH2 0x1C04 JUMP JUMPDEST DUP1 ISZERO PUSH2 0xC3D JUMPI DUP1 PUSH1 0x1F LT PUSH2 0xC12 JUMPI PUSH2 0x100 DUP1 DUP4 SLOAD DIV MUL DUP4 MSTORE SWAP2 PUSH1 0x20 ADD SWAP2 PUSH2 0xC3D JUMP JUMPDEST DUP3 ADD SWAP2 SWAP1 PUSH1 0x0 MSTORE PUSH1 0x20 PUSH1 0x0 KECCAK256 SWAP1 JUMPDEST DUP2 SLOAD DUP2 MSTORE SWAP1 PUSH1 0x1 ADD SWAP1 PUSH1 0x20 ADD DUP1 DUP4 GT PUSH2 0xC20 JUMPI DUP3 SWAP1 SUB PUSH1 0x1F AND DUP3 ADD SWAP2 JUMPDEST POP POP POP POP POP SWAP1 DUP1 PUSH1 0x3 ADD DUP1 SLOAD PUSH2 0xC52 SWAP1 PUSH2 0x1C04 JUMP JUMPDEST DUP1 PUSH1 0x1F ADD PUSH1 0x20 DUP1 SWAP2 DIV MUL PUSH1 0x20 ADD PUSH1 0x40 MLOAD SWAP1 DUP2 ADD PUSH1 0x40 MSTORE DUP1 SWAP3 SWAP2 SWAP1 DUP2 DUP2 MSTORE PUSH1 0x20 ADD DUP3 DUP1 SLOAD PUSH2 0xC7E SWAP1 PUSH2 0x1C04 JUMP JUMPDEST DUP1 ISZERO PUSH2 0xCCB JUMPI DUP1 PUSH1 0x1F LT PUSH2 0xCA0 JUMPI PUSH2 0x100 DUP1 DUP4 SLOAD DIV MUL DUP4 MSTORE SWAP2 PUSH1 0x20 ADD SWAP2 PUSH2 0xCCB JUMP JUMPDEST DUP3 ADD SWAP2 SWAP1 PUSH1 0x0 MSTORE PUSH1 0x20 PUSH1 0x0 KECCAK256 SWAP1 JUMPDEST DUP2 SLOAD DUP2 MSTORE SWAP1 PUSH1 0x1 ADD SWAP1 PUSH1 0x20 ADD DUP1 DUP4 GT PUSH2 0xCAE JUMPI DUP3 SWAP1 SUB PUSH1 0x1F AND DUP3 ADD SWAP2 JUMPDEST POP POP POP POP POP SWAP1 DUP1 PUSH1 0x4 ADD DUP1 SLOAD PUSH2 0xCE0 SWAP1 PUSH2 0x1C04 JUMP JUMPDEST DUP1 PUSH1 0x1F ADD PUSH1 0x20 DUP1 SWAP2 DIV MUL PUSH1 0x20 ADD PUSH1 0x40 MLOAD SWAP1 DUP2 ADD PUSH1 0x40 MSTORE DUP1 SWAP3 SWAP2 SWAP1 DUP2 DUP2 MSTORE PUSH1 0x20 ADD DUP3 DUP1 SLOAD PUSH2 0xD0C SWAP1 PUSH2 0x1C04 JUMP JUMPDEST DUP1 ISZERO PUSH2 0xD59 JUMPI DUP1 PUSH1 0x1F LT PUSH2 0xD2E JUMPI PUSH2 0x100 DUP1 DUP4 SLOAD DIV MUL DUP4 MSTORE SWAP2 PUSH1 0x20 ADD SWAP2 PUSH2 0xD59 JUMP JUMPDEST DUP3 ADD SWAP2 SWAP1 PUSH1 0x0 MSTORE PUSH1 0x20 PUSH1 0x0 KECCAK256 SWAP1 JUMPDEST DUP2 SLOAD DUP2 MSTORE SWAP1 PUSH1 0x1 ADD SWAP1 PUSH1 0x20 ADD DUP1 DUP4 GT PUSH2 0xD3C JUMPI DUP3 SWAP1 SUB PUSH1 0x1F AND DUP3 ADD SWAP2 JUMPDEST POP POP POP POP POP SWAP1 DUP1 PUSH1 0x5 ADD DUP1 SLOAD PUSH2 0xD6E SWAP1 PUSH2 0x1C04 JUMP JUMPDEST DUP1 PUSH1 0x1F ADD PUSH1 0x20 DUP1 SWAP2 DIV MUL PUSH1 0x20 ADD PUSH1 0x40 MLOAD SWAP1 DUP2 ADD PUSH1 0x40 MSTORE DUP1 SWAP3 SWAP2 SWAP1 DUP2 DUP2 MSTORE PUSH1 0x20 ADD DUP3 DUP1 SLOAD PUSH2 0xD9A SWAP1 PUSH2 0x1C04 JUMP JUMPDEST DUP1 ISZERO PUSH2 0xDE7 JUMPI DUP1 PUSH1 0x1F LT PUSH2 0xDBC JUMPI PUSH2 0x100 DUP1 DUP4 SLOAD DIV MUL DUP4 MSTORE SWAP2 PUSH1 0x20 ADD SWAP2 PUSH2 0xDE7 JUMP JUMPDEST DUP3 ADD SWAP2 SWAP1 PUSH1 0x0 MSTORE PUSH1 0x20 PUSH1 0x0 KECCAK256 SWAP1 JUMPDEST DUP2 SLOAD DUP2 MSTORE SWAP1 PUSH1 0x1 ADD SWAP1 PUSH1 0x20 ADD DUP1 DUP4 GT PUSH2 0xDCA JUMPI DUP3 SWAP1 SUB PUSH1 0x1F AND DUP3 ADD SWAP2 JUMPDEST POP POP POP POP POP SWAP1 DUP1 PUSH1 0x6 ADD DUP1 SLOAD PUSH2 0xDFC SWAP1 PUSH2 0x1C04 JUMP JUMPDEST DUP1 PUSH1 0x1F ADD PUSH1 0x20 DUP1 SWAP2 DIV MUL PUSH1 0x20 ADD PUSH1 0x40 MLOAD SWAP1 DUP2 ADD PUSH1 0x40 MSTORE DUP1 SWAP3 SWAP2 SWAP1 DUP2 DUP2 MSTORE PUSH1 0x20 ADD DUP3 DUP1 SLOAD PUSH2 0xE28 SWAP1 PUSH2 0x1C04 JUMP JUMPDEST DUP1 ISZERO PUSH2 0xE75 JUMPI DUP1 PUSH1 0x1F LT PUSH2 0xE4A JUMPI PUSH2 0x100 DUP1 DUP4 SLOAD DIV MUL DUP4 MSTORE SWAP2 PUSH1 0x20 ADD SWAP2 PUSH2 0xE75 JUMP JUMPDEST DUP3 ADD SWAP2 SWAP1 PUSH1 0x0 MSTORE PUSH1 0x20 PUSH1 0x0 KECCAK256 SWAP1 JUMPDEST DUP2 SLOAD DUP2 MSTORE SWAP1 PUSH1 0x1 ADD SWAP1 PUSH1 0x20 ADD DUP1 DUP4 GT PUSH2 0xE58 JUMPI DUP3 SWAP1 SUB PUSH1 0x1F AND DUP3 ADD SWAP2 JUMPDEST POP POP POP POP POP SWAP1 POP DUP8 JUMP JUMPDEST PUSH1 0x60 PUSH1 0x3 PUSH1 0x0 CALLER PUSH20 0xFFFFFFFFFFFFFFFFFFFFFFFFFFFFFFFFFFFFFFFF AND PUSH20 0xFFFFFFFFFFFFFFFFFFFFFFFFFFFFFFFFFFFFFFFF AND DUP2 MSTORE PUSH1 0x20 ADD SWAP1 DUP2 MSTORE PUSH1 0x20 ADD PUSH1 0x0 KECCAK256 DUP1 SLOAD DUP1 PUSH1 0x20 MUL PUSH1 0x20 ADD PUSH1 0x40 MLOAD SWAP1 DUP2 ADD PUSH1 0x40 MSTORE DUP1 SWAP3 SWAP2 SWAP1 DUP2 DUP2 MSTORE PUSH1 0x20 ADD DUP3 DUP1 SLOAD DUP1 ISZERO PUSH2 0xF0A JUMPI PUSH1 0x20 MUL DUP3 ADD SWAP2 SWAP1 PUSH1 0x0 MSTORE PUSH1 0x20 PUSH1 0x0 KECCAK256 SWAP1 JUMPDEST DUP2 SLOAD DUP2 MSTORE PUSH1 0x20 ADD SWAP1 PUSH1 0x1 ADD SWAP1 DUP1 DUP4 GT PUSH2 0xEF6 JUMPI JUMPDEST POP POP POP POP POP SWAP1 POP SWAP1 JUMP JUMPDEST PUSH1 0x2 PUSH1 0x0 DUP3 DUP2 MSTORE PUSH1 0x20 ADD SWAP1 DUP2 MSTORE PUSH1 0x20 ADD PUSH1 0x0 KECCAK256 PUSH1 0x0 DUP1 DUP3 ADD PUSH1 0x0 PUSH2 0x100 EXP DUP2 SLOAD SWAP1 PUSH20 0xFFFFFFFFFFFFFFFFFFFFFFFFFFFFFFFFFFFFFFFF MUL NOT AND SWAP1 SSTORE PUSH1 0x1 DUP3 ADD PUSH1 0x0 PUSH2 0xF5F SWAP2 SWAP1 PUSH2 0x1243 JUMP JUMPDEST PUSH1 0x2 DUP3 ADD PUSH1 0x0 PUSH2 0xF6F SWAP2 SWAP1 PUSH2 0x1243 JUMP JUMPDEST PUSH1 0x3 DUP3 ADD PUSH1 0x0 PUSH2 0xF7F SWAP2 SWAP1 PUSH2 0x1243 JUMP JUMPDEST PUSH1 0x4 DUP3 ADD PUSH1 0x0 PUSH2 0xF8F SWAP2 SWAP1 PUSH2 0x1243 JUMP JUMPDEST PUSH1 0x5 DUP3 ADD PUSH1 0x0 PUSH2 0xF9F SWAP2 SWAP1 PUSH2 0x1243 JUMP JUMPDEST PUSH1 0x6 DUP3 ADD PUSH1 0x0 PUSH2 0xFAF SWAP2 SWAP1 PUSH2 0x1243 JUMP JUMPDEST POP POP POP JUMP JUMPDEST PUSH1 0x40 MLOAD DUP1 PUSH1 0xE0 ADD PUSH1 0x40 MSTORE DUP1 CALLER PUSH20 0xFFFFFFFFFFFFFFFFFFFFFFFFFFFFFFFFFFFFFFFF AND DUP2 MSTORE PUSH1 0x20 ADD DUP10 DUP10 DUP1 DUP1 PUSH1 0x1F ADD PUSH1 0x20 DUP1 SWAP2 DIV MUL PUSH1 0x20 ADD PUSH1 0x40 MLOAD SWAP1 DUP2 ADD PUSH1 0x40 MSTORE DUP1 SWAP4 SWAP3 SWAP2 SWAP1 DUP2 DUP2 MSTORE PUSH1 0x20 ADD DUP4 DUP4 DUP1 DUP3 DUP5 CALLDATACOPY PUSH1 0x0 DUP2 DUP5 ADD MSTORE PUSH1 0x1F NOT PUSH1 0x1F DUP3 ADD AND SWAP1 POP DUP1 DUP4 ADD SWAP3 POP POP POP POP POP POP POP DUP2 MSTORE PUSH1 0x20 ADD DUP8 DUP8 DUP1 DUP1 PUSH1 0x1F ADD PUSH1 0x20 DUP1 SWAP2 DIV MUL PUSH1 0x20 ADD PUSH1 0x40 MLOAD SWAP1 DUP2 ADD PUSH1 0x40 MSTORE DUP1 SWAP4 SWAP3 SWAP2 SWAP1 DUP2 DUP2 MSTORE PUSH1 0x20 ADD DUP4 DUP4 DUP1 DUP3 DUP5 CALLDATACOPY PUSH1 0x0 DUP2 DUP5 ADD MSTORE PUSH1 0x1F NOT PUSH1 0x1F DUP3 ADD AND SWAP1 POP DUP1 DUP4 ADD SWAP3 POP POP POP POP POP POP POP DUP2 MSTORE PUSH1 0x20 ADD DUP6 DUP2 MSTORE PUSH1 0x20 ADD DUP5 DUP2 MSTORE PUSH1 0x20 ADD DUP4 DUP2 MSTORE PUSH1 0x20 ADD DUP3 DUP2 MSTORE POP PUSH1 0x2 PUSH1 0x0 DUP1 SLOAD DUP2 MSTORE PUSH1 0x20 ADD SWAP1 DUP2 MSTORE PUSH1 0x20 ADD PUSH1 0x0 KECCAK256 PUSH1 0x0 DUP3 ADD MLOAD DUP2 PUSH1 0x0 ADD PUSH1 0x0 PUSH2 0x100 EXP DUP2 SLOAD DUP2 PUSH20 0xFFFFFFFFFFFFFFFFFFFFFFFFFFFFFFFFFFFFFFFF MUL NOT AND SWAP1 DUP4 PUSH20 0xFFFFFFFFFFFFFFFFFFFFFFFFFFFFFFFFFFFFFFFF AND MUL OR SWAP1 SSTORE POP PUSH1 0x20 DUP3 ADD MLOAD DUP2 PUSH1 0x1 ADD SWAP1 DUP2 PUSH2 0x10F5 SWAP2 SWAP1 PUSH2 0x1E87 JUMP JUMPDEST POP PUSH1 0x40 DUP3 ADD MLOAD DUP2 PUSH1 0x2 ADD SWAP1 DUP2 PUSH2 0x110B SWAP2 SWAP1 PUSH2 0x1E87 JUMP JUMPDEST POP PUSH1 0x60 DUP3 ADD MLOAD DUP2 PUSH1 0x3 ADD SWAP1 DUP2 PUSH2 0x1121 SWAP2 SWAP1 PUSH2 0x1E87 JUMP JUMPDEST POP PUSH1 0x80 DUP3 ADD MLOAD DUP2 PUSH1 0x4 ADD SWAP1 DUP2 PUSH2 0x1137 SWAP2 SWAP1 PUSH2 0x1E87 JUMP JUMPDEST POP PUSH1 0xA0 DUP3 ADD MLOAD DUP2 PUSH1 0x5 ADD SWAP1 DUP2 PUSH2 0x114D SWAP2 SWAP1 PUSH2 0x1E87 JUMP JUMPDEST POP PUSH1 0xC0 DUP3 ADD MLOAD DUP2 PUSH1 0x6 ADD SWAP1 DUP2 PUSH2 0x1163 SWAP2 SWAP1 PUSH2 0x1E87 JUMP JUMPDEST POP SWAP1 POP POP PUSH1 0x3 PUSH1 0x0 CALLER PUSH20 0xFFFFFFFFFFFFFFFFFFFFFFFFFFFFFFFFFFFFFFFF AND PUSH20 0xFFFFFFFFFFFFFFFFFFFFFFFFFFFFFFFFFFFFFFFF AND DUP2 MSTORE PUSH1 0x20 ADD SWAP1 DUP2 MSTORE PUSH1 0x20 ADD PUSH1 0x0 KECCAK256 PUSH1 0x0 SLOAD SWAP1 DUP1 PUSH1 0x1 DUP2 SLOAD ADD DUP1 DUP3 SSTORE DUP1 SWAP2 POP POP PUSH1 0x1 SWAP1 SUB SWAP1 PUSH1 0x0 MSTORE PUSH1 0x20 PUSH1 0x0 KECCAK256 ADD PUSH1 0x0 SWAP1 SWAP2 SWAP1 SWAP2 SWAP1 SWAP2 POP SSTORE PUSH1 0x0 DUP1 DUP2 SLOAD DUP1 SWAP3 SWAP2 SWAP1 PUSH2 0x11E1 SWAP1 PUSH2 0x1C93 JUMP JUMPDEST SWAP2 SWAP1 POP SSTORE POP POP POP POP POP POP POP POP POP JUMP JUMPDEST PUSH1 0x40 MLOAD DUP1 PUSH1 0xE0 ADD PUSH1 0x40 MSTORE DUP1 PUSH1 0x0 PUSH20 0xFFFFFFFFFFFFFFFFFFFFFFFFFFFFFFFFFFFFFFFF AND DUP2 MSTORE PUSH1 0x20 ADD PUSH1 0x60 DUP2 MSTORE PUSH1 0x20 ADD PUSH1 0x60 DUP2 MSTORE PUSH1 0x20 ADD PUSH1 0x60 DUP2 MSTORE PUSH1 0x20 ADD PUSH1 0x60 DUP2 MSTORE PUSH1 0x20 ADD PUSH1 0x60 DUP2 MSTORE PUSH1 0x20 ADD PUSH1 0x60 DUP2 MSTORE POP SWAP1 JUMP JUMPDEST POP DUP1 SLOAD PUSH2 0x124F SWAP1 PUSH2 0x1C04 JUMP JUMPDEST PUSH1 0x0 DUP3 SSTORE DUP1 PUSH1 0x1F LT PUSH2 0x1261 JUMPI POP PUSH2 0x1280 JUMP JUMPDEST PUSH1 0x1F ADD PUSH1 0x20 SWAP1 DIV SWAP1 PUSH1 0x0 MSTORE PUSH1 0x20 PUSH1 0x0 KECCAK256 SWAP1 DUP2 ADD SWAP1 PUSH2 0x127F SWAP2 SWAP1 PUSH2 0x1283 JUMP JUMPDEST JUMPDEST POP JUMP JUMPDEST JUMPDEST DUP1 DUP3 GT ISZERO PUSH2 0x129C JUMPI PUSH1 0x0 DUP2 PUSH1 0x0 SWAP1 SSTORE POP PUSH1 0x1 ADD PUSH2 0x1284 JUMP JUMPDEST POP SWAP1 JUMP JUMPDEST PUSH1 0x0 PUSH1 0x40 MLOAD SWAP1 POP SWAP1 JUMP JUMPDEST PUSH1 0x0 DUP1 REVERT JUMPDEST PUSH1 0x0 DUP1 REVERT JUMPDEST PUSH1 0x0 PUSH20 0xFFFFFFFFFFFFFFFFFFFFFFFFFFFFFFFFFFFFFFFF DUP3 AND SWAP1 POP SWAP2 SWAP1 POP JUMP JUMPDEST PUSH1 0x0 PUSH2 0x12DF DUP3 PUSH2 0x12B4 JUMP JUMPDEST SWAP1 POP SWAP2 SWAP1 POP JUMP JUMPDEST PUSH2 0x12EF DUP2 PUSH2 0x12D4 JUMP JUMPDEST DUP2 EQ PUSH2 0x12FA JUMPI PUSH1 0x0 DUP1 REVERT JUMPDEST POP JUMP JUMPDEST PUSH1 0x0 DUP2 CALLDATALOAD SWAP1 POP PUSH2 0x130C DUP2 PUSH2 0x12E6 JUMP JUMPDEST SWAP3 SWAP2 POP POP JUMP JUMPDEST PUSH1 0x0 DUP2 SWAP1 POP SWAP2 SWAP1 POP JUMP JUMPDEST PUSH2 0x1325 DUP2 PUSH2 0x1312 JUMP JUMPDEST DUP2 EQ PUSH2 0x1330 JUMPI PUSH1 0x0 DUP1 REVERT JUMPDEST POP JUMP JUMPDEST PUSH1 0x0 DUP2 CALLDATALOAD SWAP1 POP PUSH2 0x1342 DUP2 PUSH2 0x131C JUMP JUMPDEST SWAP3 SWAP2 POP POP JUMP JUMPDEST PUSH1 0x0 DUP1 PUSH1 0x40 DUP4 DUP6 SUB SLT ISZERO PUSH2 0x135F JUMPI PUSH2 0x135E PUSH2 0x12AA JUMP JUMPDEST JUMPDEST PUSH1 0x0 PUSH2 0x136D DUP6 DUP3 DUP7 ADD PUSH2 0x12FD JUMP JUMPDEST SWAP3 POP POP PUSH1 0x20 PUSH2 0x137E DUP6 DUP3 DUP7 ADD PUSH2 0x1333 JUMP JUMPDEST SWAP2 POP POP SWAP3 POP SWAP3 SWAP1 POP JUMP JUMPDEST PUSH2 0x1391 DUP2 PUSH2 0x1312 JUMP JUMPDEST DUP3 MSTORE POP POP JUMP JUMPDEST PUSH1 0x0 PUSH1 0x20 DUP3 ADD SWAP1 POP PUSH2 0x13AC PUSH1 0x0 DUP4 ADD DUP5 PUSH2 0x1388 JUMP JUMPDEST SWAP3 SWAP2 POP POP JUMP JUMPDEST PUSH1 0x0 PUSH1 0x20 DUP3 DUP5 SUB SLT ISZERO PUSH2 0x13C8 JUMPI PUSH2 0x13C7 PUSH2 0x12AA JUMP JUMPDEST JUMPDEST PUSH1 0x0 PUSH2 0x13D6 DUP5 DUP3 DUP6 ADD PUSH2 0x1333 JUMP JUMPDEST SWAP2 POP POP SWAP3 SWAP2 POP POP JUMP JUMPDEST PUSH2 0x13E8 DUP2 PUSH2 0x12D4 JUMP JUMPDEST DUP3 MSTORE POP POP JUMP JUMPDEST PUSH1 0x0 DUP2 MLOAD SWAP1 POP SWAP2 SWAP1 POP JUMP JUMPDEST PUSH1 0x0 DUP3 DUP3 MSTORE PUSH1 0x20 DUP3 ADD SWAP1 POP SWAP3 SWAP2 POP POP JUMP JUMPDEST PUSH1 0x0 JUMPDEST DUP4 DUP2 LT ISZERO PUSH2 0x1428 JUMPI DUP1 DUP3 ADD MLOAD DUP2 DUP5 ADD MSTORE PUSH1 0x20 DUP2 ADD SWAP1 POP PUSH2 0x140D JUMP JUMPDEST PUSH1 0x0 DUP5 DUP5 ADD MSTORE POP POP POP POP JUMP JUMPDEST PUSH1 0x0 PUSH1 0x1F NOT PUSH1 0x1F DUP4 ADD AND SWAP1 POP SWAP2 SWAP1 POP JUMP JUMPDEST PUSH1 0x0 PUSH2 0x1450 DUP3 PUSH2 0x13EE JUMP JUMPDEST PUSH2 0x145A DUP2 DUP6 PUSH2 0x13F9 JUMP JUMPDEST SWAP4 POP PUSH2 0x146A DUP2 DUP6 PUSH1 0x20 DUP7 ADD PUSH2 0x140A JUMP JUMPDEST PUSH2 0x1473 DUP2 PUSH2 0x1434 JUMP JUMPDEST DUP5 ADD SWAP2 POP POP SWAP3 SWAP2 POP POP JUMP JUMPDEST PUSH1 0x0 PUSH1 0xE0 DUP4 ADD PUSH1 0x0 DUP4 ADD MLOAD PUSH2 0x1496 PUSH1 0x0 DUP7 ADD DUP3 PUSH2 0x13DF JUMP JUMPDEST POP PUSH1 0x20 DUP4 ADD MLOAD DUP5 DUP3 SUB PUSH1 0x20 DUP7 ADD MSTORE PUSH2 0x14AE DUP3 DUP3 PUSH2 0x1445 JUMP JUMPDEST SWAP2 POP POP PUSH1 0x40 DUP4 ADD MLOAD DUP5 DUP3 SUB PUSH1 0x40 DUP7 ADD MSTORE PUSH2 0x14C8 DUP3 DUP3 PUSH2 0x1445 JUMP JUMPDEST SWAP2 POP POP PUSH1 0x60 DUP4 ADD MLOAD DUP5 DUP3 SUB PUSH1 0x60 DUP7 ADD MSTORE PUSH2 0x14E2 DUP3 DUP3 PUSH2 0x1445 JUMP JUMPDEST SWAP2 POP POP PUSH1 0x80 DUP4 ADD MLOAD DUP5 DUP3 SUB PUSH1 0x80 DUP7 ADD MSTORE PUSH2 0x14FC DUP3 DUP3 PUSH2 0x1445 JUMP JUMPDEST SWAP2 POP POP PUSH1 0xA0 DUP4 ADD MLOAD DUP5 DUP3 SUB PUSH1 0xA0 DUP7 ADD MSTORE PUSH2 0x1516 DUP3 DUP3 PUSH2 0x1445 JUMP JUMPDEST SWAP2 POP POP PUSH1 0xC0 DUP4 ADD MLOAD DUP5 DUP3 SUB PUSH1 0xC0 DUP7 ADD MSTORE PUSH2 0x1530 DUP3 DUP3 PUSH2 0x1445 JUMP JUMPDEST SWAP2 POP POP DUP1 SWAP2 POP POP SWAP3 SWAP2 POP POP JUMP JUMPDEST PUSH1 0x0 PUSH1 0x20 DUP3 ADD SWAP1 POP DUP2 DUP2 SUB PUSH1 0x0 DUP4 ADD MSTORE PUSH2 0x1557 DUP2 DUP5 PUSH2 0x147E JUMP JUMPDEST SWAP1 POP SWAP3 SWAP2 POP POP JUMP JUMPDEST PUSH1 0x0 PUSH1 0x20 DUP3 DUP5 SUB SLT ISZERO PUSH2 0x1575 JUMPI PUSH2 0x1574 PUSH2 0x12AA JUMP JUMPDEST JUMPDEST PUSH1 0x0 PUSH2 0x1583 DUP5 DUP3 DUP6 ADD PUSH2 0x12FD JUMP JUMPDEST SWAP2 POP POP SWAP3 SWAP2 POP POP JUMP JUMPDEST PUSH1 0x0 DUP2 MLOAD SWAP1 POP SWAP2 SWAP1 POP JUMP JUMPDEST PUSH1 0x0 DUP3 DUP3 MSTORE PUSH1 0x20 DUP3 ADD SWAP1 POP SWAP3 SWAP2 POP POP JUMP JUMPDEST PUSH1 0x0 DUP2 SWAP1 POP PUSH1 0x20 DUP3 ADD SWAP1 POP SWAP2 SWAP1 POP JUMP JUMPDEST PUSH1 0x0 PUSH1 0xE0 DUP4 ADD PUSH1 0x0 DUP4 ADD MLOAD PUSH2 0x15D0 PUSH1 0x0 DUP7 ADD DUP3 PUSH2 0x13DF JUMP JUMPDEST POP PUSH1 0x20 DUP4 ADD MLOAD DUP5 DUP3 SUB PUSH1 0x20 DUP7 ADD MSTORE PUSH2 0x15E8 DUP3 DUP3 PUSH2 0x1445 JUMP JUMPDEST SWAP2 POP POP PUSH1 0x40 DUP4 ADD MLOAD DUP5 DUP3 SUB PUSH1 0x40 DUP7 ADD MSTORE PUSH2 0x1602 DUP3 DUP3 PUSH2 0x1445 JUMP JUMPDEST SWAP2 POP POP PUSH1 0x60 DUP4 ADD MLOAD DUP5 DUP3 SUB PUSH1 0x60 DUP7 ADD MSTORE PUSH2 0x161C DUP3 DUP3 PUSH2 0x1445 JUMP JUMPDEST SWAP2 POP POP PUSH1 0x80 DUP4 ADD MLOAD DUP5 DUP3 SUB PUSH1 0x80 DUP7 ADD MSTORE PUSH2 0x1636 DUP3 DUP3 PUSH2 0x1445 JUMP JUMPDEST SWAP2 POP POP PUSH1 0xA0 DUP4 ADD MLOAD DUP5 DUP3 SUB PUSH1 0xA0 DUP7 ADD MSTORE PUSH2 0x1650 DUP3 DUP3 PUSH2 0x1445 JUMP JUMPDEST SWAP2 POP POP PUSH1 0xC0 DUP4 ADD MLOAD DUP5 DUP3 SUB PUSH1 0xC0 DUP7 ADD MSTORE PUSH2 0x166A DUP3 DUP3 PUSH2 0x1445 JUMP JUMPDEST SWAP2 POP POP DUP1 SWAP2 POP POP SWAP3 SWAP2 POP POP JUMP JUMPDEST PUSH1 0x0 PUSH2 0x1683 DUP4 DUP4 PUSH2 0x15B8 JUMP JUMPDEST SWAP1 POP SWAP3 SWAP2 POP POP JUMP JUMPDEST PUSH1 0x0 PUSH1 0x20 DUP3 ADD SWAP1 POP SWAP2 SWAP1 POP JUMP JUMPDEST PUSH1 0x0 PUSH2 0x16A3 DUP3 PUSH2 0x158C JUMP JUMPDEST PUSH2 0x16AD DUP2 DUP6 PUSH2 0x1597 JUMP JUMPDEST SWAP4 POP DUP4 PUSH1 0x20 DUP3 MUL DUP6 ADD PUSH2 0x16BF DUP6 PUSH2 0x15A8 JUMP JUMPDEST DUP1 PUSH1 0x0 JUMPDEST DUP6 DUP2 LT ISZERO PUSH2 0x16FB JUMPI DUP5 DUP5 SUB DUP10 MSTORE DUP2 MLOAD PUSH2 0x16DC DUP6 DUP3 PUSH2 0x1677 JUMP JUMPDEST SWAP5 POP PUSH2 0x16E7 DUP4 PUSH2 0x168B JUMP JUMPDEST SWAP3 POP PUSH1 0x20 DUP11 ADD SWAP10 POP POP PUSH1 0x1 DUP2 ADD SWAP1 POP PUSH2 0x16C3 JUMP JUMPDEST POP DUP3 SWAP8 POP DUP8 SWAP6 POP POP POP POP POP POP SWAP3 SWAP2 POP POP JUMP JUMPDEST PUSH1 0x0 PUSH1 0x20 DUP3 ADD SWAP1 POP DUP2 DUP2 SUB PUSH1 0x0 DUP4 ADD MSTORE PUSH2 0x1727 DUP2 DUP5 PUSH2 0x1698 JUMP JUMPDEST SWAP1 POP SWAP3 SWAP2 POP POP JUMP JUMPDEST PUSH2 0x1738 DUP2 PUSH2 0x12D4 JUMP JUMPDEST DUP3 MSTORE POP POP JUMP JUMPDEST PUSH1 0x0 DUP3 DUP3 MSTORE PUSH1 0x20 DUP3 ADD SWAP1 POP SWAP3 SWAP2 POP POP JUMP JUMPDEST PUSH1 0x0 PUSH2 0x175A DUP3 PUSH2 0x13EE JUMP JUMPDEST PUSH2 0x1764 DUP2 DUP6 PUSH2 0x173E JUMP JUMPDEST SWAP4 POP PUSH2 0x1774 DUP2 DUP6 PUSH1 0x20 DUP7 ADD PUSH2 0x140A JUMP JUMPDEST PUSH2 0x177D DUP2 PUSH2 0x1434 JUMP JUMPDEST DUP5 ADD SWAP2 POP POP SWAP3 SWAP2 POP POP JUMP JUMPDEST PUSH1 0x0 PUSH1 0xE0 DUP3 ADD SWAP1 POP PUSH2 0x179D PUSH1 0x0 DUP4 ADD DUP11 PUSH2 0x172F JUMP JUMPDEST DUP2 DUP2 SUB PUSH1 0x20 DUP4 ADD MSTORE PUSH2 0x17AF DUP2 DUP10 PUSH2 0x174F JUMP JUMPDEST SWAP1 POP DUP2 DUP2 SUB PUSH1 0x40 DUP4 ADD MSTORE PUSH2 0x17C3 DUP2 DUP9 PUSH2 0x174F JUMP JUMPDEST SWAP1 POP DUP2 DUP2 SUB PUSH1 0x60 DUP4 ADD MSTORE PUSH2 0x17D7 DUP2 DUP8 PUSH2 0x174F JUMP JUMPDEST SWAP1 POP DUP2 DUP2 SUB PUSH1 0x80 DUP4 ADD MSTORE PUSH2 0x17EB DUP2 DUP7 PUSH2 0x174F JUMP JUMPDEST SWAP1 POP DUP2 DUP2 SUB PUSH1 0xA0 DUP4 ADD MSTORE PUSH2 0x17FF DUP2 DUP6 PUSH2 0x174F JUMP JUMPDEST SWAP1 POP DUP2 DUP2 SUB PUSH1 0xC0 DUP4 ADD MSTORE PUSH2 0x1813 DUP2 DUP5 PUSH2 0x174F JUMP JUMPDEST SWAP1 POP SWAP9 SWAP8 POP POP POP POP POP POP POP POP JUMP JUMPDEST PUSH1 0x0 DUP2 MLOAD SWAP1 POP SWAP2 SWAP1 POP JUMP JUMPDEST PUSH1 0x0 DUP3 DUP3 MSTORE PUSH1 0x20 DUP3 ADD SWAP1 POP SWAP3 SWAP2 POP POP JUMP JUMPDEST PUSH1 0x0 DUP2 SWAP1 POP PUSH1 0x20 DUP3 ADD SWAP1 POP SWAP2 SWAP1 POP JUMP JUMPDEST PUSH2 0x1856 DUP2 PUSH2 0x1312 JUMP JUMPDEST DUP3 MSTORE POP POP JUMP JUMPDEST PUSH1 0x0 PUSH2 0x1868 DUP4 DUP4 PUSH2 0x184D JUMP JUMPDEST PUSH1 0x20 DUP4 ADD SWAP1 POP SWAP3 SWAP2 POP POP JUMP JUMPDEST PUSH1 0x0 PUSH1 0x20 DUP3 ADD SWAP1 POP SWAP2 SWAP1 POP JUMP JUMPDEST PUSH1 0x0 PUSH2 0x188C DUP3 PUSH2 0x1821 JUMP JUMPDEST PUSH2 0x1896 DUP2 DUP6 PUSH2 0x182C JUMP JUMPDEST SWAP4 POP PUSH2 0x18A1 DUP4 PUSH2 0x183D JUMP JUMPDEST DUP1 PUSH1 0x0 JUMPDEST DUP4 DUP2 LT ISZERO PUSH2 0x18D2 JUMPI DUP2 MLOAD PUSH2 0x18B9 DUP9 DUP3 PUSH2 0x185C JUMP JUMPDEST SWAP8 POP PUSH2 0x18C4 DUP4 PUSH2 0x1874 JUMP JUMPDEST SWAP3 POP POP PUSH1 0x1 DUP2 ADD SWAP1 POP PUSH2 0x18A5 JUMP JUMPDEST POP DUP6 SWAP4 POP POP POP POP SWAP3 SWAP2 POP POP JUMP JUMPDEST PUSH1 0x0 PUSH1 0x20 DUP3 ADD SWAP1 POP DUP2 DUP2 SUB PUSH1 0x0 DUP4 ADD MSTORE PUSH2 0x18F9 DUP2 DUP5 PUSH2 0x1881 JUMP JUMPDEST SWAP1 POP SWAP3 SWAP2 POP POP JUMP JUMPDEST PUSH1 0x0 DUP1 REVERT JUMPDEST PUSH1 0x0 DUP1 REVERT JUMPDEST PUSH1 0x0 DUP1 REVERT JUMPDEST PUSH1 0x0 DUP1 DUP4 PUSH1 0x1F DUP5 ADD SLT PUSH2 0x1926 JUMPI PUSH2 0x1925 PUSH2 0x1901 JUMP JUMPDEST JUMPDEST DUP3 CALLDATALOAD SWAP1 POP PUSH8 0xFFFFFFFFFFFFFFFF DUP2 GT ISZERO PUSH2 0x1943 JUMPI PUSH2 0x1942 PUSH2 0x1906 JUMP JUMPDEST JUMPDEST PUSH1 0x20 DUP4 ADD SWAP2 POP DUP4 PUSH1 0x1 DUP3 MUL DUP4 ADD GT ISZERO PUSH2 0x195F JUMPI PUSH2 0x195E PUSH2 0x190B JUMP JUMPDEST JUMPDEST SWAP3 POP SWAP3 SWAP1 POP JUMP JUMPDEST PUSH1 0x0 DUP1 REVERT JUMPDEST PUSH32 0x4E487B7100000000000000000000000000000000000000000000000000000000 PUSH1 0x0 MSTORE PUSH1 0x41 PUSH1 0x4 MSTORE PUSH1 0x24 PUSH1 0x0 REVERT JUMPDEST PUSH2 0x19A3 DUP3 PUSH2 0x1434 JUMP JUMPDEST DUP2 ADD DUP2 DUP2 LT PUSH8 0xFFFFFFFFFFFFFFFF DUP3 GT OR ISZERO PUSH2 0x19C2 JUMPI PUSH2 0x19C1 PUSH2 0x196B JUMP JUMPDEST JUMPDEST DUP1 PUSH1 0x40 MSTORE POP POP POP JUMP JUMPDEST PUSH1 0x0 PUSH2 0x19D5 PUSH2 0x12A0 JUMP JUMPDEST SWAP1 POP PUSH2 0x19E1 DUP3 DUP3 PUSH2 0x199A JUMP JUMPDEST SWAP2 SWAP1 POP JUMP JUMPDEST PUSH1 0x0 PUSH8 0xFFFFFFFFFFFFFFFF DUP3 GT ISZERO PUSH2 0x1A01 JUMPI PUSH2 0x1A00 PUSH2 0x196B JUMP JUMPDEST JUMPDEST PUSH2 0x1A0A DUP3 PUSH2 0x1434 JUMP JUMPDEST SWAP1 POP PUSH1 0x20 DUP2 ADD SWAP1 POP SWAP2 SWAP1 POP JUMP JUMPDEST DUP3 DUP2 DUP4 CALLDATACOPY PUSH1 0x0 DUP4 DUP4 ADD MSTORE POP POP POP JUMP JUMPDEST PUSH1 0x0 PUSH2 0x1A39 PUSH2 0x1A34 DUP5 PUSH2 0x19E6 JUMP JUMPDEST PUSH2 0x19CB JUMP JUMPDEST SWAP1 POP DUP3 DUP2 MSTORE PUSH1 0x20 DUP2 ADD DUP5 DUP5 DUP5 ADD GT ISZERO PUSH2 0x1A55 JUMPI PUSH2 0x1A54 PUSH2 0x1966 JUMP JUMPDEST JUMPDEST PUSH2 0x1A60 DUP5 DUP3 DUP6 PUSH2 0x1A17 JUMP JUMPDEST POP SWAP4 SWAP3 POP POP POP JUMP JUMPDEST PUSH1 0x0 DUP3 PUSH1 0x1F DUP4 ADD SLT PUSH2 0x1A7D JUMPI PUSH2 0x1A7C PUSH2 0x1901 JUMP JUMPDEST JUMPDEST DUP2 CALLDATALOAD PUSH2 0x1A8D DUP5 DUP3 PUSH1 0x20 DUP7 ADD PUSH2 0x1A26 JUMP JUMPDEST SWAP2 POP POP SWAP3 SWAP2 POP POP JUMP JUMPDEST PUSH1 0x0 DUP1 PUSH1 0x0 DUP1 PUSH1 0x0 DUP1 PUSH1 0x0 DUP1 PUSH1 0xC0 DUP10 DUP12 SUB SLT ISZERO PUSH2 0x1AB6 JUMPI PUSH2 0x1AB5 PUSH2 0x12AA JUMP JUMPDEST JUMPDEST PUSH1 0x0 DUP10 ADD CALLDATALOAD PUSH8 0xFFFFFFFFFFFFFFFF DUP2 GT ISZERO PUSH2 0x1AD4 JUMPI PUSH2 0x1AD3 PUSH2 0x12AF JUMP JUMPDEST JUMPDEST PUSH2 0x1AE0 DUP12 DUP3 DUP13 ADD PUSH2 0x1910 JUMP JUMPDEST SWAP9 POP SWAP9 POP POP PUSH1 0x20 DUP10 ADD CALLDATALOAD PUSH8 0xFFFFFFFFFFFFFFFF DUP2 GT ISZERO PUSH2 0x1B03 JUMPI PUSH2 0x1B02 PUSH2 0x12AF JUMP JUMPDEST JUMPDEST PUSH2 0x1B0F DUP12 DUP3 DUP13 ADD PUSH2 0x1910 JUMP JUMPDEST SWAP7 POP SWAP7 POP POP PUSH1 0x40 DUP10 ADD CALLDATALOAD PUSH8 0xFFFFFFFFFFFFFFFF DUP2 GT ISZERO PUSH2 0x1B32 JUMPI PUSH2 0x1B31 PUSH2 0x12AF JUMP JUMPDEST JUMPDEST PUSH2 0x1B3E DUP12 DUP3 DUP13 ADD PUSH2 0x1A68 JUMP JUMPDEST SWAP5 POP POP PUSH1 0x60 DUP10 ADD CALLDATALOAD PUSH8 0xFFFFFFFFFFFFFFFF DUP2 GT ISZERO PUSH2 0x1B5F JUMPI PUSH2 0x1B5E PUSH2 0x12AF JUMP JUMPDEST JUMPDEST PUSH2 0x1B6B DUP12 DUP3 DUP13 ADD PUSH2 0x1A68 JUMP JUMPDEST SWAP4 POP POP PUSH1 0x80 DUP10 ADD CALLDATALOAD PUSH8 0xFFFFFFFFFFFFFFFF DUP2 GT ISZERO PUSH2 0x1B8C JUMPI PUSH2 0x1B8B PUSH2 0x12AF JUMP JUMPDEST JUMPDEST PUSH2 0x1B98 DUP12 DUP3 DUP13 ADD PUSH2 0x1A68 JUMP JUMPDEST SWAP3 POP POP PUSH1 0xA0 DUP10 ADD CALLDATALOAD PUSH8 0xFFFFFFFFFFFFFFFF DUP2 GT ISZERO PUSH2 0x1BB9 JUMPI PUSH2 0x1BB8 PUSH2 0x12AF JUMP JUMPDEST JUMPDEST PUSH2 0x1BC5 DUP12 DUP3 DUP13 ADD PUSH2 0x1A68 JUMP JUMPDEST SWAP2 POP POP SWAP3 SWAP6 SWAP9 POP SWAP3 SWAP6 SWAP9 SWAP1 SWAP4 SWAP7 POP JUMP JUMPDEST PUSH32 0x4E487B7100000000000000000000000000000000000000000000000000000000 PUSH1 0x0 MSTORE PUSH1 0x22 PUSH1 0x4 MSTORE PUSH1 0x24 PUSH1 0x0 REVERT JUMPDEST PUSH1 0x0 PUSH1 0x2 DUP3 DIV SWAP1 POP PUSH1 0x1 DUP3 AND DUP1 PUSH2 0x1C1C JUMPI PUSH1 0x7F DUP3 AND SWAP2 POP JUMPDEST PUSH1 0x20 DUP3 LT DUP2 SUB PUSH2 0x1C2F JUMPI PUSH2 0x1C2E PUSH2 0x1BD5 JUMP JUMPDEST JUMPDEST POP SWAP2 SWAP1 POP JUMP JUMPDEST PUSH32 0x4E487B7100000000000000000000000000000000000000000000000000000000 PUSH1 0x0 MSTORE PUSH1 0x32 PUSH1 0x4 MSTORE PUSH1 0x24 PUSH1 0x0 REVERT JUMPDEST PUSH32 0x4E487B7100000000000000000000000000000000000000000000000000000000 PUSH1 0x0 MSTORE PUSH1 0x11 PUSH1 0x4 MSTORE PUSH1 0x24 PUSH1 0x0 REVERT JUMPDEST PUSH1 0x0 PUSH2 0x1C9E DUP3 PUSH2 0x1312 JUMP JUMPDEST SWAP2 POP PUSH32 0xFFFFFFFFFFFFFFFFFFFFFFFFFFFFFFFFFFFFFFFFFFFFFFFFFFFFFFFFFFFFFFFF DUP3 SUB PUSH2 0x1CD0 JUMPI PUSH2 0x1CCF PUSH2 0x1C64 JUMP JUMPDEST JUMPDEST PUSH1 0x1 DUP3 ADD SWAP1 POP SWAP2 SWAP1 POP JUMP JUMPDEST PUSH1 0x0 DUP2 SWAP1 POP DUP2 PUSH1 0x0 MSTORE PUSH1 0x20 PUSH1 0x0 KECCAK256 SWAP1 POP SWAP2 SWAP1 POP JUMP JUMPDEST PUSH1 0x0 PUSH1 0x20 PUSH1 0x1F DUP4 ADD DIV SWAP1 POP SWAP2 SWAP1 POP JUMP JUMPDEST PUSH1 0x0 DUP3 DUP3 SHL SWAP1 POP SWAP3 SWAP2 POP POP JUMP JUMPDEST PUSH1 0x0 PUSH1 0x8 DUP4 MUL PUSH2 0x1D3D PUSH32 0xFFFFFFFFFFFFFFFFFFFFFFFFFFFFFFFFFFFFFFFFFFFFFFFFFFFFFFFFFFFFFFFF DUP3 PUSH2 0x1D00 JUMP JUMPDEST PUSH2 0x1D47 DUP7 DUP4 PUSH2 0x1D00 JUMP JUMPDEST SWAP6 POP DUP1 NOT DUP5 AND SWAP4 POP DUP1 DUP7 AND DUP5 OR SWAP3 POP POP POP SWAP4 SWAP3 POP POP POP JUMP JUMPDEST PUSH1 0x0 DUP2 SWAP1 POP SWAP2 SWAP1 POP JUMP JUMPDEST PUSH1 0x0 PUSH2 0x1D84 PUSH2 0x1D7F PUSH2 0x1D7A DUP5 PUSH2 0x1312 JUMP JUMPDEST PUSH2 0x1D5F JUMP JUMPDEST PUSH2 0x1312 JUMP JUMPDEST SWAP1 POP SWAP2 SWAP1 POP JUMP JUMPDEST PUSH1 0x0 DUP2 SWAP1 POP SWAP2 SWAP1 POP JUMP JUMPDEST PUSH2 0x1D9E DUP4 PUSH2 0x1D69 JUMP JUMPDEST PUSH2 0x1DB2 PUSH2 0x1DAA DUP3 PUSH2 0x1D8B JUMP JUMPDEST DUP5 DUP5 SLOAD PUSH2 0x1D0D JUMP JUMPDEST DUP3 SSTORE POP POP POP POP JUMP JUMPDEST PUSH1 0x0 SWAP1 JUMP JUMPDEST PUSH2 0x1DC7 PUSH2 0x1DBA JUMP JUMPDEST PUSH2 0x1DD2 DUP2 DUP5 DUP5 PUSH2 0x1D95 JUMP JUMPDEST POP POP POP JUMP JUMPDEST JUMPDEST DUP2 DUP2 LT ISZERO PUSH2 0x1DF6 JUMPI PUSH2 0x1DEB PUSH1 0x0 DUP3 PUSH2 0x1DBF JUMP JUMPDEST PUSH1 0x1 DUP2 ADD SWAP1 POP PUSH2 0x1DD8 JUMP JUMPDEST POP POP JUMP JUMPDEST PUSH1 0x1F DUP3 GT ISZERO PUSH2 0x1E3B JUMPI PUSH2 0x1E0C DUP2 PUSH2 0x1CDB JUMP JUMPDEST PUSH2 0x1E15 DUP5 PUSH2 0x1CF0 JUMP JUMPDEST DUP2 ADD PUSH1 0x20 DUP6 LT ISZERO PUSH2 0x1E24 JUMPI DUP2 SWAP1 POP JUMPDEST PUSH2 0x1E38 PUSH2 0x1E30 DUP6 PUSH2 0x1CF0 JUMP JUMPDEST DUP4 ADD DUP3 PUSH2 0x1DD7 JUMP JUMPDEST POP POP JUMPDEST POP POP POP JUMP JUMPDEST PUSH1 0x0 DUP3 DUP3 SHR SWAP1 POP SWAP3 SWAP2 POP POP JUMP JUMPDEST PUSH1 0x0 PUSH2 0x1E5E PUSH1 0x0 NOT DUP5 PUSH1 0x8 MUL PUSH2 0x1E40 JUMP JUMPDEST NOT DUP1 DUP4 AND SWAP2 POP POP SWAP3 SWAP2 POP POP JUMP JUMPDEST PUSH1 0x0 PUSH2 0x1E77 DUP4 DUP4 PUSH2 0x1E4D JUMP JUMPDEST SWAP2 POP DUP3 PUSH1 0x2 MUL DUP3 OR SWAP1 POP SWAP3 SWAP2 POP POP JUMP JUMPDEST PUSH2 0x1E90 DUP3 PUSH2 0x13EE JUMP JUMPDEST PUSH8 0xFFFFFFFFFFFFFFFF DUP2 GT ISZERO PUSH2 0x1EA9 JUMPI PUSH2 0x1EA8 PUSH2 0x196B JUMP JUMPDEST JUMPDEST PUSH2 0x1EB3 DUP3 SLOAD PUSH2 0x1C04 JUMP JUMPDEST PUSH2 0x1EBE DUP3 DUP3 DUP6 PUSH2 0x1DFA JUMP JUMPDEST PUSH1 0x0 PUSH1 0x20 SWAP1 POP PUSH1 0x1F DUP4 GT PUSH1 0x1 DUP2 EQ PUSH2 0x1EF1 JUMPI PUSH1 0x0 DUP5 ISZERO PUSH2 0x1EDF JUMPI DUP3 DUP8 ADD MLOAD SWAP1 POP JUMPDEST PUSH2 0x1EE9 DUP6 DUP3 PUSH2 0x1E6B JUMP JUMPDEST DUP7 SSTORE POP PUSH2 0x1F51 JUMP JUMPDEST PUSH1 0x1F NOT DUP5 AND PUSH2 0x1EFF DUP7 PUSH2 0x1CDB JUMP JUMPDEST PUSH1 0x0 JUMPDEST DUP3 DUP2 LT ISZERO PUSH2 0x1F27 JUMPI DUP5 DUP10 ADD MLOAD DUP3 SSTORE PUSH1 0x1 DUP3 ADD SWAP2 POP PUSH1 0x20 DUP6 ADD SWAP5 POP PUSH1 0x20 DUP2 ADD SWAP1 POP PUSH2 0x1F02 JUMP JUMPDEST DUP7 DUP4 LT ISZERO PUSH2 0x1F44 JUMPI DUP5 DUP10 ADD MLOAD PUSH2 0x1F40 PUSH1 0x1F DUP10 AND DUP3 PUSH2 0x1E4D JUMP JUMPDEST DUP4 SSTORE POP JUMPDEST PUSH1 0x1 PUSH1 0x2 DUP9 MUL ADD DUP9 SSTORE POP POP POP JUMPDEST POP POP POP POP POP POP JUMP INVALID LOG2 PUSH5 0x6970667358 0x22 SLT KECCAK256 0xD8 LOG4 CHAINID PREVRANDAO DUP5 0xFB 0x29 MSIZE 0x21 0xC 0xCD KECCAK256 PUSH25 0x4B4E5B683E193BBD3005022B92E03A41B2744764736F6C6343 STOP ADDMOD SLT STOP CALLER "
				},
				"gasEstimates": {
					"creation": {
						"codeDepositCost": "1615800",
						"executionCost": "23800",
						"totalCost": "1639600"
					},
					"external": {
						"addSupplierProduct(bytes,bytes,bytes,bytes,bytes,bytes)": "infinite",
						"addressToproductsIdMapping(address,uint256)": "infinite",
						"deleteProduct(uint256)": "infinite",
						"getAllProductsOfSupplier(address)": "infinite",
						"getSingleProduct(uint256)": "infinite",
						"getSupplierProductIds()": "infinite",
						"productsIdMappingToStructMapping(uint256)": "infinite"
					}
				},
				"methodIdentifiers": {
					"addSupplierProduct(bytes,bytes,bytes,bytes,bytes,bytes)": "f4a8dbf9",
					"addressToproductsIdMapping(address,uint256)": "21c6f9e5",
					"deleteProduct(uint256)": "ed90c7b7",
					"getAllProductsOfSupplier(address)": "83f95853",
					"getSingleProduct(uint256)": "2e1f9763",
					"getSupplierProductIds()": "e10f28c7",
					"productsIdMappingToStructMapping(uint256)": "9e9c191d"
				}
			},
			"storageLayout": {
				"storage": [
					{
						"astId": 45,
						"contract": "contracts/supplierProduct.sol:supplierProduct",
						"label": "productCounter",
						"offset": 0,
						"slot": "0",
						"type": "t_uint256"
					},
					{
						"astId": 48,
						"contract": "contracts/supplierProduct.sol:supplierProduct",
						"label": "allProducts",
						"offset": 0,
						"slot": "1",
						"type": "t_array(t_uint256)dyn_storage"
					},
					{
						"astId": 53,
						"contract": "contracts/supplierProduct.sol:supplierProduct",
						"label": "productsIdMappingToStructMapping",
						"offset": 0,
						"slot": "2",
						"type": "t_mapping(t_uint256,t_struct(supplierProduct)16_storage)"
					},
					{
						"astId": 58,
						"contract": "contracts/supplierProduct.sol:supplierProduct",
						"label": "addressToproductsIdMapping",
						"offset": 0,
						"slot": "3",
						"type": "t_mapping(t_address,t_array(t_uint256)dyn_storage)"
					}
				],
				"types": {
					"t_address": {
						"encoding": "inplace",
						"label": "address",
						"numberOfBytes": "20"
					},
					"t_array(t_uint256)dyn_storage": {
						"base": "t_uint256",
						"encoding": "dynamic_array",
						"label": "uint256[]",
						"numberOfBytes": "32"
					},
					"t_bytes_storage": {
						"encoding": "bytes",
						"label": "bytes",
						"numberOfBytes": "32"
					},
					"t_mapping(t_address,t_array(t_uint256)dyn_storage)": {
						"encoding": "mapping",
						"key": "t_address",
						"label": "mapping(address => uint256[])",
						"numberOfBytes": "32",
						"value": "t_array(t_uint256)dyn_storage"
					},
					"t_mapping(t_uint256,t_struct(supplierProduct)16_storage)": {
						"encoding": "mapping",
						"key": "t_uint256",
						"label": "mapping(uint256 => struct ISupplierProduct.supplierProduct)",
						"numberOfBytes": "32",
						"value": "t_struct(supplierProduct)16_storage"
					},
					"t_struct(supplierProduct)16_storage": {
						"encoding": "inplace",
						"label": "struct ISupplierProduct.supplierProduct",
						"members": [
							{
								"astId": 3,
								"contract": "contracts/supplierProduct.sol:supplierProduct",
								"label": "supplierAddress",
								"offset": 0,
								"slot": "0",
								"type": "t_address"
							},
							{
								"astId": 5,
								"contract": "contracts/supplierProduct.sol:supplierProduct",
								"label": "sp_name",
								"offset": 0,
								"slot": "1",
								"type": "t_bytes_storage"
							},
							{
								"astId": 7,
								"contract": "contracts/supplierProduct.sol:supplierProduct",
								"label": "sp_description",
								"offset": 0,
								"slot": "2",
								"type": "t_bytes_storage"
							},
							{
								"astId": 9,
								"contract": "contracts/supplierProduct.sol:supplierProduct",
								"label": "sp_unit",
								"offset": 0,
								"slot": "3",
								"type": "t_bytes_storage"
							},
							{
								"astId": 11,
								"contract": "contracts/supplierProduct.sol:supplierProduct",
								"label": "sp_price",
								"offset": 0,
								"slot": "4",
								"type": "t_bytes_storage"
							},
							{
								"astId": 13,
								"contract": "contracts/supplierProduct.sol:supplierProduct",
								"label": "sp_date",
								"offset": 0,
								"slot": "5",
								"type": "t_bytes_storage"
							},
							{
								"astId": 15,
								"contract": "contracts/supplierProduct.sol:supplierProduct",
								"label": "sp_expiryDate",
								"offset": 0,
								"slot": "6",
								"type": "t_bytes_storage"
							}
						],
						"numberOfBytes": "224"
					},
					"t_uint256": {
						"encoding": "inplace",
						"label": "uint256",
						"numberOfBytes": "32"
					}
				}
			},
			"userdoc": {
				"kind": "user",
				"methods": {},
				"version": 1
			}
		}
	}
}