{
	"contracts/manufacturerDistributor.sol": {
		"manufacturerDistributor": {
			"abi": [
				{
					"inputs": [
						{
							"internalType": "address",
							"name": "",
							"type": "address"
						},
						{
							"internalType": "uint256",
							"name": "",
							"type": "uint256"
						}
					],
					"name": "distributorTosmIDMapping",
					"outputs": [
						{
							"internalType": "uint256",
							"name": "",
							"type": "uint256"
						}
					],
					"stateMutability": "view",
					"type": "function"
				},
				{
					"inputs": [
						{
							"internalType": "address",
							"name": "_distributorAddress",
							"type": "address"
						}
					],
					"name": "getAllmdIdForManufacturer",
					"outputs": [
						{
							"components": [
								{
									"internalType": "bytes",
									"name": "mp_id",
									"type": "bytes"
								},
								{
									"internalType": "address",
									"name": "m_address",
									"type": "address"
								},
								{
									"internalType": "address",
									"name": "d_address",
									"type": "address"
								},
								{
									"internalType": "uint32",
									"name": "dispatchTime",
									"type": "uint32"
								},
								{
									"internalType": "uint32",
									"name": "arrivalTime",
									"type": "uint32"
								}
							],
							"internalType": "struct IManufacturerDistributor.manufacturerDistributor[]",
							"name": "",
							"type": "tuple[]"
						}
					],
					"stateMutability": "view",
					"type": "function"
				},
				{
					"inputs": [
						{
							"internalType": "uint256",
							"name": "_mdid",
							"type": "uint256"
						}
					],
					"name": "getProduct",
					"outputs": [
						{
							"components": [
								{
									"internalType": "bytes",
									"name": "mp_id",
									"type": "bytes"
								},
								{
									"internalType": "address",
									"name": "m_address",
									"type": "address"
								},
								{
									"internalType": "address",
									"name": "d_address",
									"type": "address"
								},
								{
									"internalType": "uint32",
									"name": "dispatchTime",
									"type": "uint32"
								},
								{
									"internalType": "uint32",
									"name": "arrivalTime",
									"type": "uint32"
								}
							],
							"internalType": "struct IManufacturerDistributor.manufacturerDistributor",
							"name": "",
							"type": "tuple"
						}
					],
					"stateMutability": "view",
					"type": "function"
				},
				{
					"inputs": [],
					"name": "mdId",
					"outputs": [
						{
							"internalType": "uint256",
							"name": "",
							"type": "uint256"
						}
					],
					"stateMutability": "view",
					"type": "function"
				},
				{
					"inputs": [
						{
							"internalType": "uint256",
							"name": "",
							"type": "uint256"
						}
					],
					"name": "mdidToStructMapping",
					"outputs": [
						{
							"internalType": "bytes",
							"name": "mp_id",
							"type": "bytes"
						},
						{
							"internalType": "address",
							"name": "m_address",
							"type": "address"
						},
						{
							"internalType": "address",
							"name": "d_address",
							"type": "address"
						},
						{
							"internalType": "uint32",
							"name": "dispatchTime",
							"type": "uint32"
						},
						{
							"internalType": "uint32",
							"name": "arrivalTime",
							"type": "uint32"
						}
					],
					"stateMutability": "view",
					"type": "function"
				},
				{
					"inputs": [
						{
							"internalType": "uint256",
							"name": "_mdId",
							"type": "uint256"
						},
						{
							"internalType": "uint32",
							"name": "_arrivalTime",
							"type": "uint32"
						}
					],
					"name": "receiveProduct",
					"outputs": [],
					"stateMutability": "nonpayable",
					"type": "function"
				},
				{
					"inputs": [
						{
							"internalType": "bytes",
							"name": "_mp_id",
							"type": "bytes"
						},
						{
							"internalType": "address",
							"name": "_manufacturerAddress",
							"type": "address"
						},
						{
							"internalType": "address",
							"name": "_distributorAddress",
							"type": "address"
						},
						{
							"internalType": "uint32",
							"name": "_dispatchTime",
							"type": "uint32"
						},
						{
							"internalType": "uint32",
							"name": "_arrivalTime",
							"type": "uint32"
						}
					],
					"name": "transferproduct",
					"outputs": [],
					"stateMutability": "nonpayable",
					"type": "function"
				}
			],
			"devdoc": {
				"kind": "dev",
				"methods": {},
				"version": 1
			},
			"evm": {
				"assembly": "    /* \"contracts/manufacturerDistributor.sol\":125:1742  contract manufacturerDistributor is IManufacturerDistributor{... */\n  mstore(0x40, 0x80)\n    /* \"contracts/manufacturerDistributor.sol\":211:212  1 */\n  0x01\n    /* \"contracts/manufacturerDistributor.sol\":192:212  uint public mdId = 1 */\n  0x00\n  sstore\n    /* \"contracts/manufacturerDistributor.sol\":125:1742  contract manufacturerDistributor is IManufacturerDistributor{... */\n  callvalue\n  dup1\n  iszero\n  tag_1\n  jumpi\n  0x00\n  dup1\n  revert\ntag_1:\n  pop\n  dataSize(sub_0)\n  dup1\n  dataOffset(sub_0)\n  0x00\n  codecopy\n  0x00\n  return\nstop\n\nsub_0: assembly {\n        /* \"contracts/manufacturerDistributor.sol\":125:1742  contract manufacturerDistributor is IManufacturerDistributor{... */\n      mstore(0x40, 0x80)\n      callvalue\n      dup1\n      iszero\n      tag_1\n      jumpi\n      0x00\n      dup1\n      revert\n    tag_1:\n      pop\n      jumpi(tag_2, lt(calldatasize, 0x04))\n      shr(0xe0, calldataload(0x00))\n      dup1\n      0x9df2505e\n      gt\n      tag_10\n      jumpi\n      dup1\n      0x9df2505e\n      eq\n      tag_6\n      jumpi\n      dup1\n      0xb9db15b4\n      eq\n      tag_7\n      jumpi\n      dup1\n      0xcb59d430\n      eq\n      tag_8\n      jumpi\n      dup1\n      0xe3eba904\n      eq\n      tag_9\n      jumpi\n      jump(tag_2)\n    tag_10:\n      dup1\n      0x83f48c96\n      eq\n      tag_3\n      jumpi\n      dup1\n      0x911a34fe\n      eq\n      tag_4\n      jumpi\n      dup1\n      0x96fccba4\n      eq\n      tag_5\n      jumpi\n    tag_2:\n      0x00\n      dup1\n      revert\n        /* \"contracts/manufacturerDistributor.sol\":485:543  mapping(address => uint[]) public distributorTosmIDMapping */\n    tag_3:\n      tag_11\n      0x04\n      dup1\n      calldatasize\n      sub\n      dup2\n      add\n      swap1\n      tag_12\n      swap2\n      swap1\n      tag_13\n      jump\t// in\n    tag_12:\n      tag_14\n      jump\t// in\n    tag_11:\n      mload(0x40)\n      tag_15\n      swap2\n      swap1\n      tag_16\n      jump\t// in\n    tag_15:\n      mload(0x40)\n      dup1\n      swap2\n      sub\n      swap1\n      return\n        /* \"contracts/manufacturerDistributor.sol\":952:1107  function receiveProduct(uint _mdId, uint32 _arrivalTime)external override{... */\n    tag_4:\n      tag_17\n      0x04\n      dup1\n      calldatasize\n      sub\n      dup2\n      add\n      swap1\n      tag_18\n      swap2\n      swap1\n      tag_19\n      jump\t// in\n    tag_18:\n      tag_20\n      jump\t// in\n    tag_17:\n      stop\n        /* \"contracts/manufacturerDistributor.sol\":1259:1739  function getAllmdIdForManufacturer(address _distributorAddress) public view returns(manufacturerDistributor[] memory){... */\n    tag_5:\n      tag_21\n      0x04\n      dup1\n      calldatasize\n      sub\n      dup2\n      add\n      swap1\n      tag_22\n      swap2\n      swap1\n      tag_23\n      jump\t// in\n    tag_22:\n      tag_24\n      jump\t// in\n    tag_21:\n      mload(0x40)\n      tag_25\n      swap2\n      swap1\n      tag_26\n      jump\t// in\n    tag_25:\n      mload(0x40)\n      dup1\n      swap2\n      sub\n      swap1\n      return\n        /* \"contracts/manufacturerDistributor.sol\":552:943  function transferproduct(bytes memory _mp_id, address _manufacturerAddress,address _distributorAddress,uint32 _dispatchTime,uint32 _arrivalTime)external override{... */\n    tag_6:\n      tag_27\n      0x04\n      dup1\n      calldatasize\n      sub\n      dup2\n      add\n      swap1\n      tag_28\n      swap2\n      swap1\n      tag_29\n      jump\t// in\n    tag_28:\n      tag_30\n      jump\t// in\n    tag_27:\n      stop\n        /* \"contracts/manufacturerDistributor.sol\":1114:1249  function getProduct(uint _mdid) public view returns(manufacturerDistributor memory){... */\n    tag_7:\n      tag_31\n      0x04\n      dup1\n      calldatasize\n      sub\n      dup2\n      add\n      swap1\n      tag_32\n      swap2\n      swap1\n      tag_33\n      jump\t// in\n    tag_32:\n      tag_34\n      jump\t// in\n    tag_31:\n      mload(0x40)\n      tag_35\n      swap2\n      swap1\n      tag_36\n      jump\t// in\n    tag_35:\n      mload(0x40)\n      dup1\n      swap2\n      sub\n      swap1\n      return\n        /* \"contracts/manufacturerDistributor.sol\":411:478  mapping(uint => manufacturerDistributor) public mdidToStructMapping */\n    tag_8:\n      tag_37\n      0x04\n      dup1\n      calldatasize\n      sub\n      dup2\n      add\n      swap1\n      tag_38\n      swap2\n      swap1\n      tag_33\n      jump\t// in\n    tag_38:\n      tag_39\n      jump\t// in\n    tag_37:\n      mload(0x40)\n      tag_40\n      swap6\n      swap5\n      swap4\n      swap3\n      swap2\n      swap1\n      tag_41\n      jump\t// in\n    tag_40:\n      mload(0x40)\n      dup1\n      swap2\n      sub\n      swap1\n      return\n        /* \"contracts/manufacturerDistributor.sol\":192:212  uint public mdId = 1 */\n    tag_9:\n      tag_42\n      tag_43\n      jump\t// in\n    tag_42:\n      mload(0x40)\n      tag_44\n      swap2\n      swap1\n      tag_16\n      jump\t// in\n    tag_44:\n      mload(0x40)\n      dup1\n      swap2\n      sub\n      swap1\n      return\n        /* \"contracts/manufacturerDistributor.sol\":485:543  mapping(address => uint[]) public distributorTosmIDMapping */\n    tag_14:\n      mstore(0x20, 0x03)\n      dup2\n      0x00\n      mstore\n      keccak256(0x00, 0x40)\n      dup2\n      dup2\n      sload\n      dup2\n      lt\n      tag_45\n      jumpi\n      0x00\n      dup1\n      revert\n    tag_45:\n      swap1\n      0x00\n      mstore\n      keccak256(0x00, 0x20)\n      add\n      0x00\n      swap2\n      pop\n      swap2\n      pop\n      pop\n      sload\n      dup2\n      jump\t// out\n        /* \"contracts/manufacturerDistributor.sol\":952:1107  function receiveProduct(uint _mdId, uint32 _arrivalTime)external override{... */\n    tag_20:\n        /* \"contracts/manufacturerDistributor.sol\":1077:1089  _arrivalTime */\n      dup1\n        /* \"contracts/manufacturerDistributor.sol\":1036:1055  mdidToStructMapping */\n      0x02\n        /* \"contracts/manufacturerDistributor.sol\":1036:1062  mdidToStructMapping[_mdId] */\n      0x00\n        /* \"contracts/manufacturerDistributor.sol\":1056:1061  _mdId */\n      dup5\n        /* \"contracts/manufacturerDistributor.sol\":1036:1062  mdidToStructMapping[_mdId] */\n      dup2\n      mstore\n      0x20\n      add\n      swap1\n      dup2\n      mstore\n      0x20\n      add\n      0x00\n      keccak256\n        /* \"contracts/manufacturerDistributor.sol\":1036:1074  mdidToStructMapping[_mdId].arrivalTime */\n      0x02\n      add\n      0x18\n        /* \"contracts/manufacturerDistributor.sol\":1036:1089  mdidToStructMapping[_mdId].arrivalTime = _arrivalTime */\n      0x0100\n      exp\n      dup2\n      sload\n      dup2\n      0xffffffff\n      mul\n      not\n      and\n      swap1\n      dup4\n      0xffffffff\n      and\n      mul\n      or\n      swap1\n      sstore\n      pop\n        /* \"contracts/manufacturerDistributor.sol\":952:1107  function receiveProduct(uint _mdId, uint32 _arrivalTime)external override{... */\n      pop\n      pop\n      jump\t// out\n        /* \"contracts/manufacturerDistributor.sol\":1259:1739  function getAllmdIdForManufacturer(address _distributorAddress) public view returns(manufacturerDistributor[] memory){... */\n    tag_24:\n        /* \"contracts/manufacturerDistributor.sol\":1343:1375  manufacturerDistributor[] memory */\n      0x60\n        /* \"contracts/manufacturerDistributor.sol\":1397:1419  uint[] memory mdIdData */\n      0x00\n        /* \"contracts/manufacturerDistributor.sol\":1422:1446  distributorTosmIDMapping */\n      0x03\n        /* \"contracts/manufacturerDistributor.sol\":1422:1467  distributorTosmIDMapping[_distributorAddress] */\n      0x00\n        /* \"contracts/manufacturerDistributor.sol\":1447:1466  _distributorAddress */\n      dup5\n        /* \"contracts/manufacturerDistributor.sol\":1422:1467  distributorTosmIDMapping[_distributorAddress] */\n      0xffffffffffffffffffffffffffffffffffffffff\n      and\n      0xffffffffffffffffffffffffffffffffffffffff\n      and\n      dup2\n      mstore\n      0x20\n      add\n      swap1\n      dup2\n      mstore\n      0x20\n      add\n      0x00\n      keccak256\n        /* \"contracts/manufacturerDistributor.sol\":1397:1467  uint[] memory mdIdData = distributorTosmIDMapping[_distributorAddress] */\n      dup1\n      sload\n      dup1\n      0x20\n      mul\n      0x20\n      add\n      mload(0x40)\n      swap1\n      dup2\n      add\n      0x40\n      mstore\n      dup1\n      swap3\n      swap2\n      swap1\n      dup2\n      dup2\n      mstore\n      0x20\n      add\n      dup3\n      dup1\n      sload\n      dup1\n      iszero\n      tag_49\n      jumpi\n      0x20\n      mul\n      dup3\n      add\n      swap2\n      swap1\n      0x00\n      mstore\n      keccak256(0x00, 0x20)\n      swap1\n    tag_50:\n      dup2\n      sload\n      dup2\n      mstore\n      0x20\n      add\n      swap1\n      0x01\n      add\n      swap1\n      dup1\n      dup4\n      gt\n      tag_50\n      jumpi\n    tag_49:\n      pop\n      pop\n      pop\n      pop\n      pop\n      swap1\n      pop\n        /* \"contracts/manufacturerDistributor.sol\":1478:1522  manufacturerDistributor[] memory mdIdDetails */\n      0x00\n        /* \"contracts/manufacturerDistributor.sol\":1555:1563  mdIdData */\n      dup2\n        /* \"contracts/manufacturerDistributor.sol\":1555:1570  mdIdData.length */\n      mload\n        /* \"contracts/manufacturerDistributor.sol\":1525:1571  new manufacturerDistributor[](mdIdData.length) */\n      0xffffffffffffffff\n      dup2\n      gt\n      iszero\n      tag_51\n      jumpi\n      tag_52\n      tag_53\n      jump\t// in\n    tag_52:\n    tag_51:\n      mload(0x40)\n      swap1\n      dup1\n      dup3\n      mstore\n      dup1\n      0x20\n      mul\n      0x20\n      add\n      dup3\n      add\n      0x40\n      mstore\n      dup1\n      iszero\n      tag_54\n      jumpi\n      dup2\n      0x20\n      add\n    tag_55:\n      tag_56\n      tag_57\n      jump\t// in\n    tag_56:\n      dup2\n      mstore\n      0x20\n      add\n      swap1\n      0x01\n      swap1\n      sub\n      swap1\n      dup2\n      tag_55\n      jumpi\n      swap1\n      pop\n    tag_54:\n      pop\n        /* \"contracts/manufacturerDistributor.sol\":1478:1571  manufacturerDistributor[] memory mdIdDetails = new manufacturerDistributor[](mdIdData.length) */\n      swap1\n      pop\n        /* \"contracts/manufacturerDistributor.sol\":1586:1592  uint i */\n      0x00\n        /* \"contracts/manufacturerDistributor.sol\":1582:1703  for(uint i=0;i<mdIdData.length;i++)... */\n    tag_58:\n        /* \"contracts/manufacturerDistributor.sol\":1597:1605  mdIdData */\n      dup3\n        /* \"contracts/manufacturerDistributor.sol\":1597:1612  mdIdData.length */\n      mload\n        /* \"contracts/manufacturerDistributor.sol\":1595:1596  i */\n      dup2\n        /* \"contracts/manufacturerDistributor.sol\":1595:1612  i<mdIdData.length */\n      lt\n        /* \"contracts/manufacturerDistributor.sol\":1582:1703  for(uint i=0;i<mdIdData.length;i++)... */\n      iszero\n      tag_59\n      jumpi\n        /* \"contracts/manufacturerDistributor.sol\":1659:1678  mdidToStructMapping */\n      0x02\n        /* \"contracts/manufacturerDistributor.sol\":1659:1691  mdidToStructMapping[mdIdData[i]] */\n      0x00\n        /* \"contracts/manufacturerDistributor.sol\":1679:1687  mdIdData */\n      dup5\n        /* \"contracts/manufacturerDistributor.sol\":1688:1689  i */\n      dup4\n        /* \"contracts/manufacturerDistributor.sol\":1679:1690  mdIdData[i] */\n      dup2\n      mload\n      dup2\n      lt\n      tag_61\n      jumpi\n      tag_62\n      tag_63\n      jump\t// in\n    tag_62:\n    tag_61:\n      0x20\n      mul\n      0x20\n      add\n      add\n      mload\n        /* \"contracts/manufacturerDistributor.sol\":1659:1691  mdidToStructMapping[mdIdData[i]] */\n      dup2\n      mstore\n      0x20\n      add\n      swap1\n      dup2\n      mstore\n      0x20\n      add\n      0x00\n      keccak256\n        /* \"contracts/manufacturerDistributor.sol\":1642:1691  mdIdDetails[i] = mdidToStructMapping[mdIdData[i]] */\n      mload(0x40)\n      dup1\n      0xa0\n      add\n      0x40\n      mstore\n      swap1\n      dup2\n      0x00\n      dup3\n      add\n      dup1\n      sload\n      tag_64\n      swap1\n      tag_65\n      jump\t// in\n    tag_64:\n      dup1\n      0x1f\n      add\n      0x20\n      dup1\n      swap2\n      div\n      mul\n      0x20\n      add\n      mload(0x40)\n      swap1\n      dup2\n      add\n      0x40\n      mstore\n      dup1\n      swap3\n      swap2\n      swap1\n      dup2\n      dup2\n      mstore\n      0x20\n      add\n      dup3\n      dup1\n      sload\n      tag_66\n      swap1\n      tag_65\n      jump\t// in\n    tag_66:\n      dup1\n      iszero\n      tag_67\n      jumpi\n      dup1\n      0x1f\n      lt\n      tag_68\n      jumpi\n      0x0100\n      dup1\n      dup4\n      sload\n      div\n      mul\n      dup4\n      mstore\n      swap2\n      0x20\n      add\n      swap2\n      jump(tag_67)\n    tag_68:\n      dup3\n      add\n      swap2\n      swap1\n      0x00\n      mstore\n      keccak256(0x00, 0x20)\n      swap1\n    tag_69:\n      dup2\n      sload\n      dup2\n      mstore\n      swap1\n      0x01\n      add\n      swap1\n      0x20\n      add\n      dup1\n      dup4\n      gt\n      tag_69\n      jumpi\n      dup3\n      swap1\n      sub\n      0x1f\n      and\n      dup3\n      add\n      swap2\n    tag_67:\n      pop\n      pop\n      pop\n      pop\n      pop\n      dup2\n      mstore\n      0x20\n      add\n      0x01\n      dup3\n      add\n      0x00\n      swap1\n      sload\n      swap1\n      0x0100\n      exp\n      swap1\n      div\n      0xffffffffffffffffffffffffffffffffffffffff\n      and\n      0xffffffffffffffffffffffffffffffffffffffff\n      and\n      0xffffffffffffffffffffffffffffffffffffffff\n      and\n      dup2\n      mstore\n      0x20\n      add\n      0x02\n      dup3\n      add\n      0x00\n      swap1\n      sload\n      swap1\n      0x0100\n      exp\n      swap1\n      div\n      0xffffffffffffffffffffffffffffffffffffffff\n      and\n      0xffffffffffffffffffffffffffffffffffffffff\n      and\n      0xffffffffffffffffffffffffffffffffffffffff\n      and\n      dup2\n      mstore\n      0x20\n      add\n      0x02\n      dup3\n      add\n      0x14\n      swap1\n      sload\n      swap1\n      0x0100\n      exp\n      swap1\n      div\n      0xffffffff\n      and\n      0xffffffff\n      and\n      0xffffffff\n      and\n      dup2\n      mstore\n      0x20\n      add\n      0x02\n      dup3\n      add\n      0x18\n      swap1\n      sload\n      swap1\n      0x0100\n      exp\n      swap1\n      div\n      0xffffffff\n      and\n      0xffffffff\n      and\n      0xffffffff\n      and\n      dup2\n      mstore\n      pop\n      pop\n        /* \"contracts/manufacturerDistributor.sol\":1642:1653  mdIdDetails */\n      dup3\n        /* \"contracts/manufacturerDistributor.sol\":1654:1655  i */\n      dup3\n        /* \"contracts/manufacturerDistributor.sol\":1642:1656  mdIdDetails[i] */\n      dup2\n      mload\n      dup2\n      lt\n      tag_70\n      jumpi\n      tag_71\n      tag_63\n      jump\t// in\n    tag_71:\n    tag_70:\n      0x20\n      mul\n      0x20\n      add\n      add\n        /* \"contracts/manufacturerDistributor.sol\":1642:1691  mdIdDetails[i] = mdidToStructMapping[mdIdData[i]] */\n      dup2\n      swap1\n      mstore\n      pop\n        /* \"contracts/manufacturerDistributor.sol\":1613:1616  i++ */\n      dup1\n      dup1\n      tag_72\n      swap1\n      tag_73\n      jump\t// in\n    tag_72:\n      swap2\n      pop\n      pop\n        /* \"contracts/manufacturerDistributor.sol\":1582:1703  for(uint i=0;i<mdIdData.length;i++)... */\n      jump(tag_58)\n    tag_59:\n      pop\n        /* \"contracts/manufacturerDistributor.sol\":1720:1731  mdIdDetails */\n      dup1\n        /* \"contracts/manufacturerDistributor.sol\":1713:1731  return mdIdDetails */\n      swap3\n      pop\n      pop\n      pop\n        /* \"contracts/manufacturerDistributor.sol\":1259:1739  function getAllmdIdForManufacturer(address _distributorAddress) public view returns(manufacturerDistributor[] memory){... */\n      swap2\n      swap1\n      pop\n      jump\t// out\n        /* \"contracts/manufacturerDistributor.sol\":552:943  function transferproduct(bytes memory _mp_id, address _manufacturerAddress,address _distributorAddress,uint32 _dispatchTime,uint32 _arrivalTime)external override{... */\n    tag_30:\n        /* \"contracts/manufacturerDistributor.sol\":752:851  manufacturerDistributor(_mp_id,_manufacturerAddress,_distributorAddress,_dispatchTime,_arrivalTime) */\n      mload(0x40)\n      dup1\n      0xa0\n      add\n      0x40\n      mstore\n      dup1\n        /* \"contracts/manufacturerDistributor.sol\":776:782  _mp_id */\n      dup7\n        /* \"contracts/manufacturerDistributor.sol\":752:851  manufacturerDistributor(_mp_id,_manufacturerAddress,_distributorAddress,_dispatchTime,_arrivalTime) */\n      dup2\n      mstore\n      0x20\n      add\n        /* \"contracts/manufacturerDistributor.sol\":783:803  _manufacturerAddress */\n      dup6\n        /* \"contracts/manufacturerDistributor.sol\":752:851  manufacturerDistributor(_mp_id,_manufacturerAddress,_distributorAddress,_dispatchTime,_arrivalTime) */\n      0xffffffffffffffffffffffffffffffffffffffff\n      and\n      dup2\n      mstore\n      0x20\n      add\n        /* \"contracts/manufacturerDistributor.sol\":804:823  _distributorAddress */\n      dup5\n        /* \"contracts/manufacturerDistributor.sol\":752:851  manufacturerDistributor(_mp_id,_manufacturerAddress,_distributorAddress,_dispatchTime,_arrivalTime) */\n      0xffffffffffffffffffffffffffffffffffffffff\n      and\n      dup2\n      mstore\n      0x20\n      add\n        /* \"contracts/manufacturerDistributor.sol\":824:837  _dispatchTime */\n      dup4\n        /* \"contracts/manufacturerDistributor.sol\":752:851  manufacturerDistributor(_mp_id,_manufacturerAddress,_distributorAddress,_dispatchTime,_arrivalTime) */\n      0xffffffff\n      and\n      dup2\n      mstore\n      0x20\n      add\n        /* \"contracts/manufacturerDistributor.sol\":838:850  _arrivalTime */\n      dup3\n        /* \"contracts/manufacturerDistributor.sol\":752:851  manufacturerDistributor(_mp_id,_manufacturerAddress,_distributorAddress,_dispatchTime,_arrivalTime) */\n      0xffffffff\n      and\n      dup2\n      mstore\n      pop\n        /* \"contracts/manufacturerDistributor.sol\":724:743  mdidToStructMapping */\n      0x02\n        /* \"contracts/manufacturerDistributor.sol\":724:749  mdidToStructMapping[mdId] */\n      0x00\n        /* \"contracts/manufacturerDistributor.sol\":744:748  mdId */\n      dup1\n      sload\n        /* \"contracts/manufacturerDistributor.sol\":724:749  mdidToStructMapping[mdId] */\n      dup2\n      mstore\n      0x20\n      add\n      swap1\n      dup2\n      mstore\n      0x20\n      add\n      0x00\n      keccak256\n        /* \"contracts/manufacturerDistributor.sol\":724:851  mdidToStructMapping[mdId] = manufacturerDistributor(_mp_id,_manufacturerAddress,_distributorAddress,_dispatchTime,_arrivalTime) */\n      0x00\n      dup3\n      add\n      mload\n      dup2\n      0x00\n      add\n      swap1\n      dup2\n      tag_75\n      swap2\n      swap1\n      tag_76\n      jump\t// in\n    tag_75:\n      pop\n      0x20\n      dup3\n      add\n      mload\n      dup2\n      0x01\n      add\n      exp(0x0100, 0x00)\n      dup2\n      sload\n      dup2\n      0xffffffffffffffffffffffffffffffffffffffff\n      mul\n      not\n      and\n      swap1\n      dup4\n      0xffffffffffffffffffffffffffffffffffffffff\n      and\n      mul\n      or\n      swap1\n      sstore\n      pop\n      0x40\n      dup3\n      add\n      mload\n      dup2\n      0x02\n      add\n      exp(0x0100, 0x00)\n      dup2\n      sload\n      dup2\n      0xffffffffffffffffffffffffffffffffffffffff\n      mul\n      not\n      and\n      swap1\n      dup4\n      0xffffffffffffffffffffffffffffffffffffffff\n      and\n      mul\n      or\n      swap1\n      sstore\n      pop\n      0x60\n      dup3\n      add\n      mload\n      dup2\n      0x02\n      add\n      exp(0x0100, 0x14)\n      dup2\n      sload\n      dup2\n      0xffffffff\n      mul\n      not\n      and\n      swap1\n      dup4\n      0xffffffff\n      and\n      mul\n      or\n      swap1\n      sstore\n      pop\n      0x80\n      dup3\n      add\n      mload\n      dup2\n      0x02\n      add\n      exp(0x0100, 0x18)\n      dup2\n      sload\n      dup2\n      0xffffffff\n      mul\n      not\n      and\n      swap1\n      dup4\n      0xffffffff\n      and\n      mul\n      or\n      swap1\n      sstore\n      pop\n      swap1\n      pop\n      pop\n        /* \"contracts/manufacturerDistributor.sol\":862:886  distributorTosmIDMapping */\n      0x03\n        /* \"contracts/manufacturerDistributor.sol\":862:907  distributorTosmIDMapping[_distributorAddress] */\n      0x00\n        /* \"contracts/manufacturerDistributor.sol\":887:906  _distributorAddress */\n      dup5\n        /* \"contracts/manufacturerDistributor.sol\":862:907  distributorTosmIDMapping[_distributorAddress] */\n      0xffffffffffffffffffffffffffffffffffffffff\n      and\n      0xffffffffffffffffffffffffffffffffffffffff\n      and\n      dup2\n      mstore\n      0x20\n      add\n      swap1\n      dup2\n      mstore\n      0x20\n      add\n      0x00\n      keccak256\n        /* \"contracts/manufacturerDistributor.sol\":913:917  mdId */\n      sload(0x00)\n        /* \"contracts/manufacturerDistributor.sol\":862:918  distributorTosmIDMapping[_distributorAddress].push(mdId) */\n      swap1\n      dup1\n      0x01\n      dup2\n      sload\n      add\n      dup1\n      dup3\n      sstore\n      dup1\n      swap2\n      pop\n      pop\n      0x01\n      swap1\n      sub\n      swap1\n      0x00\n      mstore\n      keccak256(0x00, 0x20)\n      add\n      0x00\n      swap1\n      swap2\n      swap1\n      swap2\n      swap1\n      swap2\n      pop\n      sstore\n        /* \"contracts/manufacturerDistributor.sol\":929:933  mdId */\n      0x00\n      dup1\n        /* \"contracts/manufacturerDistributor.sol\":929:935  mdId++ */\n      dup2\n      sload\n      dup1\n      swap3\n      swap2\n      swap1\n      tag_78\n      swap1\n      tag_73\n      jump\t// in\n    tag_78:\n      swap2\n      swap1\n      pop\n      sstore\n      pop\n        /* \"contracts/manufacturerDistributor.sol\":552:943  function transferproduct(bytes memory _mp_id, address _manufacturerAddress,address _distributorAddress,uint32 _dispatchTime,uint32 _arrivalTime)external override{... */\n      pop\n      pop\n      pop\n      pop\n      pop\n      jump\t// out\n        /* \"contracts/manufacturerDistributor.sol\":1114:1249  function getProduct(uint _mdid) public view returns(manufacturerDistributor memory){... */\n    tag_34:\n        /* \"contracts/manufacturerDistributor.sol\":1166:1196  manufacturerDistributor memory */\n      tag_79\n      tag_57\n      jump\t// in\n    tag_79:\n        /* \"contracts/manufacturerDistributor.sol\":1215:1234  mdidToStructMapping */\n      0x02\n        /* \"contracts/manufacturerDistributor.sol\":1215:1241  mdidToStructMapping[_mdid] */\n      0x00\n        /* \"contracts/manufacturerDistributor.sol\":1235:1240  _mdid */\n      dup4\n        /* \"contracts/manufacturerDistributor.sol\":1215:1241  mdidToStructMapping[_mdid] */\n      dup2\n      mstore\n      0x20\n      add\n      swap1\n      dup2\n      mstore\n      0x20\n      add\n      0x00\n      keccak256\n        /* \"contracts/manufacturerDistributor.sol\":1208:1241  return mdidToStructMapping[_mdid] */\n      mload(0x40)\n      dup1\n      0xa0\n      add\n      0x40\n      mstore\n      swap1\n      dup2\n      0x00\n      dup3\n      add\n      dup1\n      sload\n      tag_81\n      swap1\n      tag_65\n      jump\t// in\n    tag_81:\n      dup1\n      0x1f\n      add\n      0x20\n      dup1\n      swap2\n      div\n      mul\n      0x20\n      add\n      mload(0x40)\n      swap1\n      dup2\n      add\n      0x40\n      mstore\n      dup1\n      swap3\n      swap2\n      swap1\n      dup2\n      dup2\n      mstore\n      0x20\n      add\n      dup3\n      dup1\n      sload\n      tag_82\n      swap1\n      tag_65\n      jump\t// in\n    tag_82:\n      dup1\n      iszero\n      tag_83\n      jumpi\n      dup1\n      0x1f\n      lt\n      tag_84\n      jumpi\n      0x0100\n      dup1\n      dup4\n      sload\n      div\n      mul\n      dup4\n      mstore\n      swap2\n      0x20\n      add\n      swap2\n      jump(tag_83)\n    tag_84:\n      dup3\n      add\n      swap2\n      swap1\n      0x00\n      mstore\n      keccak256(0x00, 0x20)\n      swap1\n    tag_85:\n      dup2\n      sload\n      dup2\n      mstore\n      swap1\n      0x01\n      add\n      swap1\n      0x20\n      add\n      dup1\n      dup4\n      gt\n      tag_85\n      jumpi\n      dup3\n      swap1\n      sub\n      0x1f\n      and\n      dup3\n      add\n      swap2\n    tag_83:\n      pop\n      pop\n      pop\n      pop\n      pop\n      dup2\n      mstore\n      0x20\n      add\n      0x01\n      dup3\n      add\n      0x00\n      swap1\n      sload\n      swap1\n      0x0100\n      exp\n      swap1\n      div\n      0xffffffffffffffffffffffffffffffffffffffff\n      and\n      0xffffffffffffffffffffffffffffffffffffffff\n      and\n      0xffffffffffffffffffffffffffffffffffffffff\n      and\n      dup2\n      mstore\n      0x20\n      add\n      0x02\n      dup3\n      add\n      0x00\n      swap1\n      sload\n      swap1\n      0x0100\n      exp\n      swap1\n      div\n      0xffffffffffffffffffffffffffffffffffffffff\n      and\n      0xffffffffffffffffffffffffffffffffffffffff\n      and\n      0xffffffffffffffffffffffffffffffffffffffff\n      and\n      dup2\n      mstore\n      0x20\n      add\n      0x02\n      dup3\n      add\n      0x14\n      swap1\n      sload\n      swap1\n      0x0100\n      exp\n      swap1\n      div\n      0xffffffff\n      and\n      0xffffffff\n      and\n      0xffffffff\n      and\n      dup2\n      mstore\n      0x20\n      add\n      0x02\n      dup3\n      add\n      0x18\n      swap1\n      sload\n      swap1\n      0x0100\n      exp\n      swap1\n      div\n      0xffffffff\n      and\n      0xffffffff\n      and\n      0xffffffff\n      and\n      dup2\n      mstore\n      pop\n      pop\n      swap1\n      pop\n        /* \"contracts/manufacturerDistributor.sol\":1114:1249  function getProduct(uint _mdid) public view returns(manufacturerDistributor memory){... */\n      swap2\n      swap1\n      pop\n      jump\t// out\n        /* \"contracts/manufacturerDistributor.sol\":411:478  mapping(uint => manufacturerDistributor) public mdidToStructMapping */\n    tag_39:\n      mstore(0x20, 0x02)\n      dup1\n      0x00\n      mstore\n      keccak256(0x00, 0x40)\n      0x00\n      swap2\n      pop\n      swap1\n      pop\n      dup1\n      0x00\n      add\n      dup1\n      sload\n      tag_86\n      swap1\n      tag_65\n      jump\t// in\n    tag_86:\n      dup1\n      0x1f\n      add\n      0x20\n      dup1\n      swap2\n      div\n      mul\n      0x20\n      add\n      mload(0x40)\n      swap1\n      dup2\n      add\n      0x40\n      mstore\n      dup1\n      swap3\n      swap2\n      swap1\n      dup2\n      dup2\n      mstore\n      0x20\n      add\n      dup3\n      dup1\n      sload\n      tag_87\n      swap1\n      tag_65\n      jump\t// in\n    tag_87:\n      dup1\n      iszero\n      tag_88\n      jumpi\n      dup1\n      0x1f\n      lt\n      tag_89\n      jumpi\n      0x0100\n      dup1\n      dup4\n      sload\n      div\n      mul\n      dup4\n      mstore\n      swap2\n      0x20\n      add\n      swap2\n      jump(tag_88)\n    tag_89:\n      dup3\n      add\n      swap2\n      swap1\n      0x00\n      mstore\n      keccak256(0x00, 0x20)\n      swap1\n    tag_90:\n      dup2\n      sload\n      dup2\n      mstore\n      swap1\n      0x01\n      add\n      swap1\n      0x20\n      add\n      dup1\n      dup4\n      gt\n      tag_90\n      jumpi\n      dup3\n      swap1\n      sub\n      0x1f\n      and\n      dup3\n      add\n      swap2\n    tag_88:\n      pop\n      pop\n      pop\n      pop\n      pop\n      swap1\n      dup1\n      0x01\n      add\n      0x00\n      swap1\n      sload\n      swap1\n      0x0100\n      exp\n      swap1\n      div\n      0xffffffffffffffffffffffffffffffffffffffff\n      and\n      swap1\n      dup1\n      0x02\n      add\n      0x00\n      swap1\n      sload\n      swap1\n      0x0100\n      exp\n      swap1\n      div\n      0xffffffffffffffffffffffffffffffffffffffff\n      and\n      swap1\n      dup1\n      0x02\n      add\n      0x14\n      swap1\n      sload\n      swap1\n      0x0100\n      exp\n      swap1\n      div\n      0xffffffff\n      and\n      swap1\n      dup1\n      0x02\n      add\n      0x18\n      swap1\n      sload\n      swap1\n      0x0100\n      exp\n      swap1\n      div\n      0xffffffff\n      and\n      swap1\n      pop\n      dup6\n      jump\t// out\n        /* \"contracts/manufacturerDistributor.sol\":192:212  uint public mdId = 1 */\n    tag_43:\n      sload(0x00)\n      dup2\n      jump\t// out\n    tag_57:\n      mload(0x40)\n      dup1\n      0xa0\n      add\n      0x40\n      mstore\n      dup1\n      0x60\n      dup2\n      mstore\n      0x20\n      add\n      and(0xffffffffffffffffffffffffffffffffffffffff, 0x00)\n      dup2\n      mstore\n      0x20\n      add\n      and(0xffffffffffffffffffffffffffffffffffffffff, 0x00)\n      dup2\n      mstore\n      0x20\n      add\n      and(0xffffffff, 0x00)\n      dup2\n      mstore\n      0x20\n      add\n      and(0xffffffff, 0x00)\n      dup2\n      mstore\n      pop\n      swap1\n      jump\t// out\n        /* \"#utility.yul\":7:82   */\n    tag_91:\n        /* \"#utility.yul\":40:46   */\n      0x00\n        /* \"#utility.yul\":73:75   */\n      0x40\n        /* \"#utility.yul\":67:76   */\n      mload\n        /* \"#utility.yul\":57:76   */\n      swap1\n      pop\n        /* \"#utility.yul\":7:82   */\n      swap1\n      jump\t// out\n        /* \"#utility.yul\":88:205   */\n    tag_92:\n        /* \"#utility.yul\":197:198   */\n      0x00\n        /* \"#utility.yul\":194:195   */\n      dup1\n        /* \"#utility.yul\":187:199   */\n      revert\n        /* \"#utility.yul\":211:328   */\n    tag_93:\n        /* \"#utility.yul\":320:321   */\n      0x00\n        /* \"#utility.yul\":317:318   */\n      dup1\n        /* \"#utility.yul\":310:322   */\n      revert\n        /* \"#utility.yul\":334:460   */\n    tag_94:\n        /* \"#utility.yul\":371:378   */\n      0x00\n        /* \"#utility.yul\":411:453   */\n      0xffffffffffffffffffffffffffffffffffffffff\n        /* \"#utility.yul\":404:409   */\n      dup3\n        /* \"#utility.yul\":400:454   */\n      and\n        /* \"#utility.yul\":389:454   */\n      swap1\n      pop\n        /* \"#utility.yul\":334:460   */\n      swap2\n      swap1\n      pop\n      jump\t// out\n        /* \"#utility.yul\":466:562   */\n    tag_95:\n        /* \"#utility.yul\":503:510   */\n      0x00\n        /* \"#utility.yul\":532:556   */\n      tag_155\n        /* \"#utility.yul\":550:555   */\n      dup3\n        /* \"#utility.yul\":532:556   */\n      tag_94\n      jump\t// in\n    tag_155:\n        /* \"#utility.yul\":521:556   */\n      swap1\n      pop\n        /* \"#utility.yul\":466:562   */\n      swap2\n      swap1\n      pop\n      jump\t// out\n        /* \"#utility.yul\":568:690   */\n    tag_96:\n        /* \"#utility.yul\":641:665   */\n      tag_157\n        /* \"#utility.yul\":659:664   */\n      dup2\n        /* \"#utility.yul\":641:665   */\n      tag_95\n      jump\t// in\n    tag_157:\n        /* \"#utility.yul\":634:639   */\n      dup2\n        /* \"#utility.yul\":631:666   */\n      eq\n        /* \"#utility.yul\":621:684   */\n      tag_158\n      jumpi\n        /* \"#utility.yul\":680:681   */\n      0x00\n        /* \"#utility.yul\":677:678   */\n      dup1\n        /* \"#utility.yul\":670:682   */\n      revert\n        /* \"#utility.yul\":621:684   */\n    tag_158:\n        /* \"#utility.yul\":568:690   */\n      pop\n      jump\t// out\n        /* \"#utility.yul\":696:835   */\n    tag_97:\n        /* \"#utility.yul\":742:747   */\n      0x00\n        /* \"#utility.yul\":780:786   */\n      dup2\n        /* \"#utility.yul\":767:787   */\n      calldataload\n        /* \"#utility.yul\":758:787   */\n      swap1\n      pop\n        /* \"#utility.yul\":796:829   */\n      tag_160\n        /* \"#utility.yul\":823:828   */\n      dup2\n        /* \"#utility.yul\":796:829   */\n      tag_96\n      jump\t// in\n    tag_160:\n        /* \"#utility.yul\":696:835   */\n      swap3\n      swap2\n      pop\n      pop\n      jump\t// out\n        /* \"#utility.yul\":841:918   */\n    tag_98:\n        /* \"#utility.yul\":878:885   */\n      0x00\n        /* \"#utility.yul\":907:912   */\n      dup2\n        /* \"#utility.yul\":896:912   */\n      swap1\n      pop\n        /* \"#utility.yul\":841:918   */\n      swap2\n      swap1\n      pop\n      jump\t// out\n        /* \"#utility.yul\":924:1046   */\n    tag_99:\n        /* \"#utility.yul\":997:1021   */\n      tag_163\n        /* \"#utility.yul\":1015:1020   */\n      dup2\n        /* \"#utility.yul\":997:1021   */\n      tag_98\n      jump\t// in\n    tag_163:\n        /* \"#utility.yul\":990:995   */\n      dup2\n        /* \"#utility.yul\":987:1022   */\n      eq\n        /* \"#utility.yul\":977:1040   */\n      tag_164\n      jumpi\n        /* \"#utility.yul\":1036:1037   */\n      0x00\n        /* \"#utility.yul\":1033:1034   */\n      dup1\n        /* \"#utility.yul\":1026:1038   */\n      revert\n        /* \"#utility.yul\":977:1040   */\n    tag_164:\n        /* \"#utility.yul\":924:1046   */\n      pop\n      jump\t// out\n        /* \"#utility.yul\":1052:1191   */\n    tag_100:\n        /* \"#utility.yul\":1098:1103   */\n      0x00\n        /* \"#utility.yul\":1136:1142   */\n      dup2\n        /* \"#utility.yul\":1123:1143   */\n      calldataload\n        /* \"#utility.yul\":1114:1143   */\n      swap1\n      pop\n        /* \"#utility.yul\":1152:1185   */\n      tag_166\n        /* \"#utility.yul\":1179:1184   */\n      dup2\n        /* \"#utility.yul\":1152:1185   */\n      tag_99\n      jump\t// in\n    tag_166:\n        /* \"#utility.yul\":1052:1191   */\n      swap3\n      swap2\n      pop\n      pop\n      jump\t// out\n        /* \"#utility.yul\":1197:1671   */\n    tag_13:\n        /* \"#utility.yul\":1265:1271   */\n      0x00\n        /* \"#utility.yul\":1273:1279   */\n      dup1\n        /* \"#utility.yul\":1322:1324   */\n      0x40\n        /* \"#utility.yul\":1310:1319   */\n      dup4\n        /* \"#utility.yul\":1301:1308   */\n      dup6\n        /* \"#utility.yul\":1297:1320   */\n      sub\n        /* \"#utility.yul\":1293:1325   */\n      slt\n        /* \"#utility.yul\":1290:1409   */\n      iszero\n      tag_168\n      jumpi\n        /* \"#utility.yul\":1328:1407   */\n      tag_169\n      tag_92\n      jump\t// in\n    tag_169:\n        /* \"#utility.yul\":1290:1409   */\n    tag_168:\n        /* \"#utility.yul\":1448:1449   */\n      0x00\n        /* \"#utility.yul\":1473:1526   */\n      tag_170\n        /* \"#utility.yul\":1518:1525   */\n      dup6\n        /* \"#utility.yul\":1509:1515   */\n      dup3\n        /* \"#utility.yul\":1498:1507   */\n      dup7\n        /* \"#utility.yul\":1494:1516   */\n      add\n        /* \"#utility.yul\":1473:1526   */\n      tag_97\n      jump\t// in\n    tag_170:\n        /* \"#utility.yul\":1463:1526   */\n      swap3\n      pop\n        /* \"#utility.yul\":1419:1536   */\n      pop\n        /* \"#utility.yul\":1575:1577   */\n      0x20\n        /* \"#utility.yul\":1601:1654   */\n      tag_171\n        /* \"#utility.yul\":1646:1653   */\n      dup6\n        /* \"#utility.yul\":1637:1643   */\n      dup3\n        /* \"#utility.yul\":1626:1635   */\n      dup7\n        /* \"#utility.yul\":1622:1644   */\n      add\n        /* \"#utility.yul\":1601:1654   */\n      tag_100\n      jump\t// in\n    tag_171:\n        /* \"#utility.yul\":1591:1654   */\n      swap2\n      pop\n        /* \"#utility.yul\":1546:1664   */\n      pop\n        /* \"#utility.yul\":1197:1671   */\n      swap3\n      pop\n      swap3\n      swap1\n      pop\n      jump\t// out\n        /* \"#utility.yul\":1677:1795   */\n    tag_101:\n        /* \"#utility.yul\":1764:1788   */\n      tag_173\n        /* \"#utility.yul\":1782:1787   */\n      dup2\n        /* \"#utility.yul\":1764:1788   */\n      tag_98\n      jump\t// in\n    tag_173:\n        /* \"#utility.yul\":1759:1762   */\n      dup3\n        /* \"#utility.yul\":1752:1789   */\n      mstore\n        /* \"#utility.yul\":1677:1795   */\n      pop\n      pop\n      jump\t// out\n        /* \"#utility.yul\":1801:2023   */\n    tag_16:\n        /* \"#utility.yul\":1894:1898   */\n      0x00\n        /* \"#utility.yul\":1932:1934   */\n      0x20\n        /* \"#utility.yul\":1921:1930   */\n      dup3\n        /* \"#utility.yul\":1917:1935   */\n      add\n        /* \"#utility.yul\":1909:1935   */\n      swap1\n      pop\n        /* \"#utility.yul\":1945:2016   */\n      tag_175\n        /* \"#utility.yul\":2013:2014   */\n      0x00\n        /* \"#utility.yul\":2002:2011   */\n      dup4\n        /* \"#utility.yul\":1998:2015   */\n      add\n        /* \"#utility.yul\":1989:1995   */\n      dup5\n        /* \"#utility.yul\":1945:2016   */\n      tag_101\n      jump\t// in\n    tag_175:\n        /* \"#utility.yul\":1801:2023   */\n      swap3\n      swap2\n      pop\n      pop\n      jump\t// out\n        /* \"#utility.yul\":2029:2122   */\n    tag_102:\n        /* \"#utility.yul\":2065:2072   */\n      0x00\n        /* \"#utility.yul\":2105:2115   */\n      0xffffffff\n        /* \"#utility.yul\":2098:2103   */\n      dup3\n        /* \"#utility.yul\":2094:2116   */\n      and\n        /* \"#utility.yul\":2083:2116   */\n      swap1\n      pop\n        /* \"#utility.yul\":2029:2122   */\n      swap2\n      swap1\n      pop\n      jump\t// out\n        /* \"#utility.yul\":2128:2248   */\n    tag_103:\n        /* \"#utility.yul\":2200:2223   */\n      tag_178\n        /* \"#utility.yul\":2217:2222   */\n      dup2\n        /* \"#utility.yul\":2200:2223   */\n      tag_102\n      jump\t// in\n    tag_178:\n        /* \"#utility.yul\":2193:2198   */\n      dup2\n        /* \"#utility.yul\":2190:2224   */\n      eq\n        /* \"#utility.yul\":2180:2242   */\n      tag_179\n      jumpi\n        /* \"#utility.yul\":2238:2239   */\n      0x00\n        /* \"#utility.yul\":2235:2236   */\n      dup1\n        /* \"#utility.yul\":2228:2240   */\n      revert\n        /* \"#utility.yul\":2180:2242   */\n    tag_179:\n        /* \"#utility.yul\":2128:2248   */\n      pop\n      jump\t// out\n        /* \"#utility.yul\":2254:2391   */\n    tag_104:\n        /* \"#utility.yul\":2299:2304   */\n      0x00\n        /* \"#utility.yul\":2337:2343   */\n      dup2\n        /* \"#utility.yul\":2324:2344   */\n      calldataload\n        /* \"#utility.yul\":2315:2344   */\n      swap1\n      pop\n        /* \"#utility.yul\":2353:2385   */\n      tag_181\n        /* \"#utility.yul\":2379:2384   */\n      dup2\n        /* \"#utility.yul\":2353:2385   */\n      tag_103\n      jump\t// in\n    tag_181:\n        /* \"#utility.yul\":2254:2391   */\n      swap3\n      swap2\n      pop\n      pop\n      jump\t// out\n        /* \"#utility.yul\":2397:2869   */\n    tag_19:\n        /* \"#utility.yul\":2464:2470   */\n      0x00\n        /* \"#utility.yul\":2472:2478   */\n      dup1\n        /* \"#utility.yul\":2521:2523   */\n      0x40\n        /* \"#utility.yul\":2509:2518   */\n      dup4\n        /* \"#utility.yul\":2500:2507   */\n      dup6\n        /* \"#utility.yul\":2496:2519   */\n      sub\n        /* \"#utility.yul\":2492:2524   */\n      slt\n        /* \"#utility.yul\":2489:2608   */\n      iszero\n      tag_183\n      jumpi\n        /* \"#utility.yul\":2527:2606   */\n      tag_184\n      tag_92\n      jump\t// in\n    tag_184:\n        /* \"#utility.yul\":2489:2608   */\n    tag_183:\n        /* \"#utility.yul\":2647:2648   */\n      0x00\n        /* \"#utility.yul\":2672:2725   */\n      tag_185\n        /* \"#utility.yul\":2717:2724   */\n      dup6\n        /* \"#utility.yul\":2708:2714   */\n      dup3\n        /* \"#utility.yul\":2697:2706   */\n      dup7\n        /* \"#utility.yul\":2693:2715   */\n      add\n        /* \"#utility.yul\":2672:2725   */\n      tag_100\n      jump\t// in\n    tag_185:\n        /* \"#utility.yul\":2662:2725   */\n      swap3\n      pop\n        /* \"#utility.yul\":2618:2735   */\n      pop\n        /* \"#utility.yul\":2774:2776   */\n      0x20\n        /* \"#utility.yul\":2800:2852   */\n      tag_186\n        /* \"#utility.yul\":2844:2851   */\n      dup6\n        /* \"#utility.yul\":2835:2841   */\n      dup3\n        /* \"#utility.yul\":2824:2833   */\n      dup7\n        /* \"#utility.yul\":2820:2842   */\n      add\n        /* \"#utility.yul\":2800:2852   */\n      tag_104\n      jump\t// in\n    tag_186:\n        /* \"#utility.yul\":2790:2852   */\n      swap2\n      pop\n        /* \"#utility.yul\":2745:2862   */\n      pop\n        /* \"#utility.yul\":2397:2869   */\n      swap3\n      pop\n      swap3\n      swap1\n      pop\n      jump\t// out\n        /* \"#utility.yul\":2875:3204   */\n    tag_23:\n        /* \"#utility.yul\":2934:2940   */\n      0x00\n        /* \"#utility.yul\":2983:2985   */\n      0x20\n        /* \"#utility.yul\":2971:2980   */\n      dup3\n        /* \"#utility.yul\":2962:2969   */\n      dup5\n        /* \"#utility.yul\":2958:2981   */\n      sub\n        /* \"#utility.yul\":2954:2986   */\n      slt\n        /* \"#utility.yul\":2951:3070   */\n      iszero\n      tag_188\n      jumpi\n        /* \"#utility.yul\":2989:3068   */\n      tag_189\n      tag_92\n      jump\t// in\n    tag_189:\n        /* \"#utility.yul\":2951:3070   */\n    tag_188:\n        /* \"#utility.yul\":3109:3110   */\n      0x00\n        /* \"#utility.yul\":3134:3187   */\n      tag_190\n        /* \"#utility.yul\":3179:3186   */\n      dup5\n        /* \"#utility.yul\":3170:3176   */\n      dup3\n        /* \"#utility.yul\":3159:3168   */\n      dup6\n        /* \"#utility.yul\":3155:3177   */\n      add\n        /* \"#utility.yul\":3134:3187   */\n      tag_97\n      jump\t// in\n    tag_190:\n        /* \"#utility.yul\":3124:3187   */\n      swap2\n      pop\n        /* \"#utility.yul\":3080:3197   */\n      pop\n        /* \"#utility.yul\":2875:3204   */\n      swap3\n      swap2\n      pop\n      pop\n      jump\t// out\n        /* \"#utility.yul\":3210:3363   */\n    tag_105:\n        /* \"#utility.yul\":3316:3322   */\n      0x00\n        /* \"#utility.yul\":3350:3355   */\n      dup2\n        /* \"#utility.yul\":3344:3356   */\n      mload\n        /* \"#utility.yul\":3334:3356   */\n      swap1\n      pop\n        /* \"#utility.yul\":3210:3363   */\n      swap2\n      swap1\n      pop\n      jump\t// out\n        /* \"#utility.yul\":3369:3592   */\n    tag_106:\n        /* \"#utility.yul\":3507:3518   */\n      0x00\n        /* \"#utility.yul\":3541:3547   */\n      dup3\n        /* \"#utility.yul\":3536:3539   */\n      dup3\n        /* \"#utility.yul\":3529:3548   */\n      mstore\n        /* \"#utility.yul\":3581:3585   */\n      0x20\n        /* \"#utility.yul\":3576:3579   */\n      dup3\n        /* \"#utility.yul\":3572:3586   */\n      add\n        /* \"#utility.yul\":3557:3586   */\n      swap1\n      pop\n        /* \"#utility.yul\":3369:3592   */\n      swap3\n      swap2\n      pop\n      pop\n      jump\t// out\n        /* \"#utility.yul\":3598:3769   */\n    tag_107:\n        /* \"#utility.yul\":3704:3708   */\n      0x00\n        /* \"#utility.yul\":3727:3730   */\n      dup2\n        /* \"#utility.yul\":3719:3730   */\n      swap1\n      pop\n        /* \"#utility.yul\":3757:3761   */\n      0x20\n        /* \"#utility.yul\":3752:3755   */\n      dup3\n        /* \"#utility.yul\":3748:3762   */\n      add\n        /* \"#utility.yul\":3740:3762   */\n      swap1\n      pop\n        /* \"#utility.yul\":3598:3769   */\n      swap2\n      swap1\n      pop\n      jump\t// out\n        /* \"#utility.yul\":3775:3873   */\n    tag_108:\n        /* \"#utility.yul\":3826:3832   */\n      0x00\n        /* \"#utility.yul\":3860:3865   */\n      dup2\n        /* \"#utility.yul\":3854:3866   */\n      mload\n        /* \"#utility.yul\":3844:3866   */\n      swap1\n      pop\n        /* \"#utility.yul\":3775:3873   */\n      swap2\n      swap1\n      pop\n      jump\t// out\n        /* \"#utility.yul\":3879:4037   */\n    tag_109:\n        /* \"#utility.yul\":3952:3963   */\n      0x00\n        /* \"#utility.yul\":3986:3992   */\n      dup3\n        /* \"#utility.yul\":3981:3984   */\n      dup3\n        /* \"#utility.yul\":3974:3993   */\n      mstore\n        /* \"#utility.yul\":4026:4030   */\n      0x20\n        /* \"#utility.yul\":4021:4024   */\n      dup3\n        /* \"#utility.yul\":4017:4031   */\n      add\n        /* \"#utility.yul\":4002:4031   */\n      swap1\n      pop\n        /* \"#utility.yul\":3879:4037   */\n      swap3\n      swap2\n      pop\n      pop\n      jump\t// out\n        /* \"#utility.yul\":4043:4289   */\n    tag_110:\n        /* \"#utility.yul\":4124:4125   */\n      0x00\n        /* \"#utility.yul\":4134:4247   */\n    tag_197:\n        /* \"#utility.yul\":4148:4154   */\n      dup4\n        /* \"#utility.yul\":4145:4146   */\n      dup2\n        /* \"#utility.yul\":4142:4155   */\n      lt\n        /* \"#utility.yul\":4134:4247   */\n      iszero\n      tag_199\n      jumpi\n        /* \"#utility.yul\":4233:4234   */\n      dup1\n        /* \"#utility.yul\":4228:4231   */\n      dup3\n        /* \"#utility.yul\":4224:4235   */\n      add\n        /* \"#utility.yul\":4218:4236   */\n      mload\n        /* \"#utility.yul\":4214:4215   */\n      dup2\n        /* \"#utility.yul\":4209:4212   */\n      dup5\n        /* \"#utility.yul\":4205:4216   */\n      add\n        /* \"#utility.yul\":4198:4237   */\n      mstore\n        /* \"#utility.yul\":4170:4172   */\n      0x20\n        /* \"#utility.yul\":4167:4168   */\n      dup2\n        /* \"#utility.yul\":4163:4173   */\n      add\n        /* \"#utility.yul\":4158:4173   */\n      swap1\n      pop\n        /* \"#utility.yul\":4134:4247   */\n      jump(tag_197)\n    tag_199:\n        /* \"#utility.yul\":4281:4282   */\n      0x00\n        /* \"#utility.yul\":4272:4278   */\n      dup5\n        /* \"#utility.yul\":4267:4270   */\n      dup5\n        /* \"#utility.yul\":4263:4279   */\n      add\n        /* \"#utility.yul\":4256:4283   */\n      mstore\n        /* \"#utility.yul\":4105:4289   */\n      pop\n        /* \"#utility.yul\":4043:4289   */\n      pop\n      pop\n      pop\n      jump\t// out\n        /* \"#utility.yul\":4295:4397   */\n    tag_111:\n        /* \"#utility.yul\":4336:4342   */\n      0x00\n        /* \"#utility.yul\":4387:4389   */\n      0x1f\n        /* \"#utility.yul\":4383:4390   */\n      not\n        /* \"#utility.yul\":4378:4380   */\n      0x1f\n        /* \"#utility.yul\":4371:4376   */\n      dup4\n        /* \"#utility.yul\":4367:4381   */\n      add\n        /* \"#utility.yul\":4363:4391   */\n      and\n        /* \"#utility.yul\":4353:4391   */\n      swap1\n      pop\n        /* \"#utility.yul\":4295:4397   */\n      swap2\n      swap1\n      pop\n      jump\t// out\n        /* \"#utility.yul\":4403:4756   */\n    tag_112:\n        /* \"#utility.yul\":4479:4482   */\n      0x00\n        /* \"#utility.yul\":4507:4545   */\n      tag_202\n        /* \"#utility.yul\":4539:4544   */\n      dup3\n        /* \"#utility.yul\":4507:4545   */\n      tag_108\n      jump\t// in\n    tag_202:\n        /* \"#utility.yul\":4561:4621   */\n      tag_203\n        /* \"#utility.yul\":4614:4620   */\n      dup2\n        /* \"#utility.yul\":4609:4612   */\n      dup6\n        /* \"#utility.yul\":4561:4621   */\n      tag_109\n      jump\t// in\n    tag_203:\n        /* \"#utility.yul\":4554:4621   */\n      swap4\n      pop\n        /* \"#utility.yul\":4630:4695   */\n      tag_204\n        /* \"#utility.yul\":4688:4694   */\n      dup2\n        /* \"#utility.yul\":4683:4686   */\n      dup6\n        /* \"#utility.yul\":4676:4680   */\n      0x20\n        /* \"#utility.yul\":4669:4674   */\n      dup7\n        /* \"#utility.yul\":4665:4681   */\n      add\n        /* \"#utility.yul\":4630:4695   */\n      tag_110\n      jump\t// in\n    tag_204:\n        /* \"#utility.yul\":4720:4749   */\n      tag_205\n        /* \"#utility.yul\":4742:4748   */\n      dup2\n        /* \"#utility.yul\":4720:4749   */\n      tag_111\n      jump\t// in\n    tag_205:\n        /* \"#utility.yul\":4715:4718   */\n      dup5\n        /* \"#utility.yul\":4711:4750   */\n      add\n        /* \"#utility.yul\":4704:4750   */\n      swap2\n      pop\n        /* \"#utility.yul\":4483:4756   */\n      pop\n        /* \"#utility.yul\":4403:4756   */\n      swap3\n      swap2\n      pop\n      pop\n      jump\t// out\n        /* \"#utility.yul\":4762:4870   */\n    tag_113:\n        /* \"#utility.yul\":4839:4863   */\n      tag_207\n        /* \"#utility.yul\":4857:4862   */\n      dup2\n        /* \"#utility.yul\":4839:4863   */\n      tag_95\n      jump\t// in\n    tag_207:\n        /* \"#utility.yul\":4834:4837   */\n      dup3\n        /* \"#utility.yul\":4827:4864   */\n      mstore\n        /* \"#utility.yul\":4762:4870   */\n      pop\n      pop\n      jump\t// out\n        /* \"#utility.yul\":4876:4981   */\n    tag_114:\n        /* \"#utility.yul\":4951:4974   */\n      tag_209\n        /* \"#utility.yul\":4968:4973   */\n      dup2\n        /* \"#utility.yul\":4951:4974   */\n      tag_102\n      jump\t// in\n    tag_209:\n        /* \"#utility.yul\":4946:4949   */\n      dup3\n        /* \"#utility.yul\":4939:4975   */\n      mstore\n        /* \"#utility.yul\":4876:4981   */\n      pop\n      pop\n      jump\t// out\n        /* \"#utility.yul\":5109:6275   */\n    tag_115:\n        /* \"#utility.yul\":5246:5249   */\n      0x00\n        /* \"#utility.yul\":5282:5286   */\n      0xa0\n        /* \"#utility.yul\":5277:5280   */\n      dup4\n        /* \"#utility.yul\":5273:5287   */\n      add\n        /* \"#utility.yul\":5370:5374   */\n      0x00\n        /* \"#utility.yul\":5363:5368   */\n      dup4\n        /* \"#utility.yul\":5359:5375   */\n      add\n        /* \"#utility.yul\":5353:5376   */\n      mload\n        /* \"#utility.yul\":5423:5426   */\n      dup5\n        /* \"#utility.yul\":5417:5421   */\n      dup3\n        /* \"#utility.yul\":5413:5427   */\n      sub\n        /* \"#utility.yul\":5406:5410   */\n      0x00\n        /* \"#utility.yul\":5401:5404   */\n      dup7\n        /* \"#utility.yul\":5397:5411   */\n      add\n        /* \"#utility.yul\":5390:5428   */\n      mstore\n        /* \"#utility.yul\":5449:5520   */\n      tag_211\n        /* \"#utility.yul\":5515:5519   */\n      dup3\n        /* \"#utility.yul\":5501:5513   */\n      dup3\n        /* \"#utility.yul\":5449:5520   */\n      tag_112\n      jump\t// in\n    tag_211:\n        /* \"#utility.yul\":5441:5520   */\n      swap2\n      pop\n        /* \"#utility.yul\":5297:5531   */\n      pop\n        /* \"#utility.yul\":5618:5622   */\n      0x20\n        /* \"#utility.yul\":5611:5616   */\n      dup4\n        /* \"#utility.yul\":5607:5623   */\n      add\n        /* \"#utility.yul\":5601:5624   */\n      mload\n        /* \"#utility.yul\":5637:5700   */\n      tag_212\n        /* \"#utility.yul\":5694:5698   */\n      0x20\n        /* \"#utility.yul\":5689:5692   */\n      dup7\n        /* \"#utility.yul\":5685:5699   */\n      add\n        /* \"#utility.yul\":5671:5683   */\n      dup3\n        /* \"#utility.yul\":5637:5700   */\n      tag_113\n      jump\t// in\n    tag_212:\n        /* \"#utility.yul\":5541:5710   */\n      pop\n        /* \"#utility.yul\":5797:5801   */\n      0x40\n        /* \"#utility.yul\":5790:5795   */\n      dup4\n        /* \"#utility.yul\":5786:5802   */\n      add\n        /* \"#utility.yul\":5780:5803   */\n      mload\n        /* \"#utility.yul\":5816:5879   */\n      tag_213\n        /* \"#utility.yul\":5873:5877   */\n      0x40\n        /* \"#utility.yul\":5868:5871   */\n      dup7\n        /* \"#utility.yul\":5864:5878   */\n      add\n        /* \"#utility.yul\":5850:5862   */\n      dup3\n        /* \"#utility.yul\":5816:5879   */\n      tag_113\n      jump\t// in\n    tag_213:\n        /* \"#utility.yul\":5720:5889   */\n      pop\n        /* \"#utility.yul\":5979:5983   */\n      0x60\n        /* \"#utility.yul\":5972:5977   */\n      dup4\n        /* \"#utility.yul\":5968:5984   */\n      add\n        /* \"#utility.yul\":5962:5985   */\n      mload\n        /* \"#utility.yul\":5998:6059   */\n      tag_214\n        /* \"#utility.yul\":6053:6057   */\n      0x60\n        /* \"#utility.yul\":6048:6051   */\n      dup7\n        /* \"#utility.yul\":6044:6058   */\n      add\n        /* \"#utility.yul\":6030:6042   */\n      dup3\n        /* \"#utility.yul\":5998:6059   */\n      tag_114\n      jump\t// in\n    tag_214:\n        /* \"#utility.yul\":5899:6069   */\n      pop\n        /* \"#utility.yul\":6158:6162   */\n      0x80\n        /* \"#utility.yul\":6151:6156   */\n      dup4\n        /* \"#utility.yul\":6147:6163   */\n      add\n        /* \"#utility.yul\":6141:6164   */\n      mload\n        /* \"#utility.yul\":6177:6238   */\n      tag_215\n        /* \"#utility.yul\":6232:6236   */\n      0x80\n        /* \"#utility.yul\":6227:6230   */\n      dup7\n        /* \"#utility.yul\":6223:6237   */\n      add\n        /* \"#utility.yul\":6209:6221   */\n      dup3\n        /* \"#utility.yul\":6177:6238   */\n      tag_114\n      jump\t// in\n    tag_215:\n        /* \"#utility.yul\":6079:6248   */\n      pop\n        /* \"#utility.yul\":6265:6269   */\n      dup1\n        /* \"#utility.yul\":6258:6269   */\n      swap2\n      pop\n        /* \"#utility.yul\":5251:6275   */\n      pop\n        /* \"#utility.yul\":5109:6275   */\n      swap3\n      swap2\n      pop\n      pop\n      jump\t// out\n        /* \"#utility.yul\":6281:6593   */\n    tag_116:\n        /* \"#utility.yul\":6428:6438   */\n      0x00\n        /* \"#utility.yul\":6463:6587   */\n      tag_217\n        /* \"#utility.yul\":6583:6586   */\n      dup4\n        /* \"#utility.yul\":6575:6581   */\n      dup4\n        /* \"#utility.yul\":6463:6587   */\n      tag_115\n      jump\t// in\n    tag_217:\n        /* \"#utility.yul\":6449:6587   */\n      swap1\n      pop\n        /* \"#utility.yul\":6281:6593   */\n      swap3\n      swap2\n      pop\n      pop\n      jump\t// out\n        /* \"#utility.yul\":6599:6751   */\n    tag_117:\n        /* \"#utility.yul\":6708:6712   */\n      0x00\n        /* \"#utility.yul\":6740:6744   */\n      0x20\n        /* \"#utility.yul\":6735:6738   */\n      dup3\n        /* \"#utility.yul\":6731:6745   */\n      add\n        /* \"#utility.yul\":6723:6745   */\n      swap1\n      pop\n        /* \"#utility.yul\":6599:6751   */\n      swap2\n      swap1\n      pop\n      jump\t// out\n        /* \"#utility.yul\":6883:8106   */\n    tag_118:\n        /* \"#utility.yul\":7080:7083   */\n      0x00\n        /* \"#utility.yul\":7109:7202   */\n      tag_220\n        /* \"#utility.yul\":7196:7201   */\n      dup3\n        /* \"#utility.yul\":7109:7202   */\n      tag_105\n      jump\t// in\n    tag_220:\n        /* \"#utility.yul\":7218:7343   */\n      tag_221\n        /* \"#utility.yul\":7336:7342   */\n      dup2\n        /* \"#utility.yul\":7331:7334   */\n      dup6\n        /* \"#utility.yul\":7218:7343   */\n      tag_106\n      jump\t// in\n    tag_221:\n        /* \"#utility.yul\":7211:7343   */\n      swap4\n      pop\n        /* \"#utility.yul\":7369:7372   */\n      dup4\n        /* \"#utility.yul\":7414:7418   */\n      0x20\n        /* \"#utility.yul\":7406:7412   */\n      dup3\n        /* \"#utility.yul\":7402:7419   */\n      mul\n        /* \"#utility.yul\":7397:7400   */\n      dup6\n        /* \"#utility.yul\":7393:7420   */\n      add\n        /* \"#utility.yul\":7444:7539   */\n      tag_222\n        /* \"#utility.yul\":7533:7538   */\n      dup6\n        /* \"#utility.yul\":7444:7539   */\n      tag_107\n      jump\t// in\n    tag_222:\n        /* \"#utility.yul\":7562:7569   */\n      dup1\n        /* \"#utility.yul\":7593:7594   */\n      0x00\n        /* \"#utility.yul\":7578:8061   */\n    tag_223:\n        /* \"#utility.yul\":7603:7609   */\n      dup6\n        /* \"#utility.yul\":7600:7601   */\n      dup2\n        /* \"#utility.yul\":7597:7610   */\n      lt\n        /* \"#utility.yul\":7578:8061   */\n      iszero\n      tag_225\n      jumpi\n        /* \"#utility.yul\":7674:7683   */\n      dup5\n        /* \"#utility.yul\":7668:7672   */\n      dup5\n        /* \"#utility.yul\":7664:7684   */\n      sub\n        /* \"#utility.yul\":7659:7662   */\n      dup10\n        /* \"#utility.yul\":7652:7685   */\n      mstore\n        /* \"#utility.yul\":7725:7731   */\n      dup2\n        /* \"#utility.yul\":7719:7732   */\n      mload\n        /* \"#utility.yul\":7753:7895   */\n      tag_226\n        /* \"#utility.yul\":7890:7894   */\n      dup6\n        /* \"#utility.yul\":7875:7888   */\n      dup3\n        /* \"#utility.yul\":7753:7895   */\n      tag_116\n      jump\t// in\n    tag_226:\n        /* \"#utility.yul\":7745:7895   */\n      swap5\n      pop\n        /* \"#utility.yul\":7918:8017   */\n      tag_227\n        /* \"#utility.yul\":8010:8016   */\n      dup4\n        /* \"#utility.yul\":7918:8017   */\n      tag_117\n      jump\t// in\n    tag_227:\n        /* \"#utility.yul\":7908:8017   */\n      swap3\n      pop\n        /* \"#utility.yul\":8046:8050   */\n      0x20\n        /* \"#utility.yul\":8041:8044   */\n      dup11\n        /* \"#utility.yul\":8037:8051   */\n      add\n        /* \"#utility.yul\":8030:8051   */\n      swap10\n      pop\n        /* \"#utility.yul\":7638:8061   */\n      pop\n        /* \"#utility.yul\":7625:7626   */\n      0x01\n        /* \"#utility.yul\":7622:7623   */\n      dup2\n        /* \"#utility.yul\":7618:7627   */\n      add\n        /* \"#utility.yul\":7613:7627   */\n      swap1\n      pop\n        /* \"#utility.yul\":7578:8061   */\n      jump(tag_223)\n    tag_225:\n        /* \"#utility.yul\":7582:7596   */\n      pop\n        /* \"#utility.yul\":8077:8081   */\n      dup3\n        /* \"#utility.yul\":8070:8081   */\n      swap8\n      pop\n        /* \"#utility.yul\":8097:8100   */\n      dup8\n        /* \"#utility.yul\":8090:8100   */\n      swap6\n      pop\n        /* \"#utility.yul\":7085:8106   */\n      pop\n      pop\n      pop\n      pop\n      pop\n        /* \"#utility.yul\":6883:8106   */\n      swap3\n      swap2\n      pop\n      pop\n      jump\t// out\n        /* \"#utility.yul\":8112:8641   */\n    tag_26:\n        /* \"#utility.yul\":8333:8337   */\n      0x00\n        /* \"#utility.yul\":8371:8373   */\n      0x20\n        /* \"#utility.yul\":8360:8369   */\n      dup3\n        /* \"#utility.yul\":8356:8374   */\n      add\n        /* \"#utility.yul\":8348:8374   */\n      swap1\n      pop\n        /* \"#utility.yul\":8420:8429   */\n      dup2\n        /* \"#utility.yul\":8414:8418   */\n      dup2\n        /* \"#utility.yul\":8410:8430   */\n      sub\n        /* \"#utility.yul\":8406:8407   */\n      0x00\n        /* \"#utility.yul\":8395:8404   */\n      dup4\n        /* \"#utility.yul\":8391:8408   */\n      add\n        /* \"#utility.yul\":8384:8431   */\n      mstore\n        /* \"#utility.yul\":8448:8634   */\n      tag_229\n        /* \"#utility.yul\":8629:8633   */\n      dup2\n        /* \"#utility.yul\":8620:8626   */\n      dup5\n        /* \"#utility.yul\":8448:8634   */\n      tag_118\n      jump\t// in\n    tag_229:\n        /* \"#utility.yul\":8440:8634   */\n      swap1\n      pop\n        /* \"#utility.yul\":8112:8641   */\n      swap3\n      swap2\n      pop\n      pop\n      jump\t// out\n        /* \"#utility.yul\":8647:8764   */\n    tag_119:\n        /* \"#utility.yul\":8756:8757   */\n      0x00\n        /* \"#utility.yul\":8753:8754   */\n      dup1\n        /* \"#utility.yul\":8746:8758   */\n      revert\n        /* \"#utility.yul\":8770:8887   */\n    tag_120:\n        /* \"#utility.yul\":8879:8880   */\n      0x00\n        /* \"#utility.yul\":8876:8877   */\n      dup1\n        /* \"#utility.yul\":8869:8881   */\n      revert\n        /* \"#utility.yul\":8893:9073   */\n    tag_53:\n        /* \"#utility.yul\":8941:9018   */\n      0x4e487b7100000000000000000000000000000000000000000000000000000000\n        /* \"#utility.yul\":8938:8939   */\n      0x00\n        /* \"#utility.yul\":8931:9019   */\n      mstore\n        /* \"#utility.yul\":9038:9042   */\n      0x41\n        /* \"#utility.yul\":9035:9036   */\n      0x04\n        /* \"#utility.yul\":9028:9043   */\n      mstore\n        /* \"#utility.yul\":9062:9066   */\n      0x24\n        /* \"#utility.yul\":9059:9060   */\n      0x00\n        /* \"#utility.yul\":9052:9067   */\n      revert\n        /* \"#utility.yul\":9079:9360   */\n    tag_121:\n        /* \"#utility.yul\":9162:9189   */\n      tag_234\n        /* \"#utility.yul\":9184:9188   */\n      dup3\n        /* \"#utility.yul\":9162:9189   */\n      tag_111\n      jump\t// in\n    tag_234:\n        /* \"#utility.yul\":9154:9160   */\n      dup2\n        /* \"#utility.yul\":9150:9190   */\n      add\n        /* \"#utility.yul\":9292:9298   */\n      dup2\n        /* \"#utility.yul\":9280:9290   */\n      dup2\n        /* \"#utility.yul\":9277:9299   */\n      lt\n        /* \"#utility.yul\":9256:9274   */\n      0xffffffffffffffff\n        /* \"#utility.yul\":9244:9254   */\n      dup3\n        /* \"#utility.yul\":9241:9275   */\n      gt\n        /* \"#utility.yul\":9238:9300   */\n      or\n        /* \"#utility.yul\":9235:9323   */\n      iszero\n      tag_235\n      jumpi\n        /* \"#utility.yul\":9303:9321   */\n      tag_236\n      tag_53\n      jump\t// in\n    tag_236:\n        /* \"#utility.yul\":9235:9323   */\n    tag_235:\n        /* \"#utility.yul\":9343:9353   */\n      dup1\n        /* \"#utility.yul\":9339:9341   */\n      0x40\n        /* \"#utility.yul\":9332:9354   */\n      mstore\n        /* \"#utility.yul\":9122:9360   */\n      pop\n        /* \"#utility.yul\":9079:9360   */\n      pop\n      pop\n      jump\t// out\n        /* \"#utility.yul\":9366:9495   */\n    tag_122:\n        /* \"#utility.yul\":9400:9406   */\n      0x00\n        /* \"#utility.yul\":9427:9447   */\n      tag_238\n      tag_91\n      jump\t// in\n    tag_238:\n        /* \"#utility.yul\":9417:9447   */\n      swap1\n      pop\n        /* \"#utility.yul\":9456:9489   */\n      tag_239\n        /* \"#utility.yul\":9484:9488   */\n      dup3\n        /* \"#utility.yul\":9476:9482   */\n      dup3\n        /* \"#utility.yul\":9456:9489   */\n      tag_121\n      jump\t// in\n    tag_239:\n        /* \"#utility.yul\":9366:9495   */\n      swap2\n      swap1\n      pop\n      jump\t// out\n        /* \"#utility.yul\":9501:9808   */\n    tag_123:\n        /* \"#utility.yul\":9562:9566   */\n      0x00\n        /* \"#utility.yul\":9652:9670   */\n      0xffffffffffffffff\n        /* \"#utility.yul\":9644:9650   */\n      dup3\n        /* \"#utility.yul\":9641:9671   */\n      gt\n        /* \"#utility.yul\":9638:9694   */\n      iszero\n      tag_241\n      jumpi\n        /* \"#utility.yul\":9674:9692   */\n      tag_242\n      tag_53\n      jump\t// in\n    tag_242:\n        /* \"#utility.yul\":9638:9694   */\n    tag_241:\n        /* \"#utility.yul\":9712:9741   */\n      tag_243\n        /* \"#utility.yul\":9734:9740   */\n      dup3\n        /* \"#utility.yul\":9712:9741   */\n      tag_111\n      jump\t// in\n    tag_243:\n        /* \"#utility.yul\":9704:9741   */\n      swap1\n      pop\n        /* \"#utility.yul\":9796:9800   */\n      0x20\n        /* \"#utility.yul\":9790:9794   */\n      dup2\n        /* \"#utility.yul\":9786:9801   */\n      add\n        /* \"#utility.yul\":9778:9801   */\n      swap1\n      pop\n        /* \"#utility.yul\":9501:9808   */\n      swap2\n      swap1\n      pop\n      jump\t// out\n        /* \"#utility.yul\":9814:9960   */\n    tag_124:\n        /* \"#utility.yul\":9911:9917   */\n      dup3\n        /* \"#utility.yul\":9906:9909   */\n      dup2\n        /* \"#utility.yul\":9901:9904   */\n      dup4\n        /* \"#utility.yul\":9888:9918   */\n      calldatacopy\n        /* \"#utility.yul\":9952:9953   */\n      0x00\n        /* \"#utility.yul\":9943:9949   */\n      dup4\n        /* \"#utility.yul\":9938:9941   */\n      dup4\n        /* \"#utility.yul\":9934:9950   */\n      add\n        /* \"#utility.yul\":9927:9954   */\n      mstore\n        /* \"#utility.yul\":9814:9960   */\n      pop\n      pop\n      pop\n      jump\t// out\n        /* \"#utility.yul\":9966:10389   */\n    tag_125:\n        /* \"#utility.yul\":10043:10048   */\n      0x00\n        /* \"#utility.yul\":10068:10133   */\n      tag_246\n        /* \"#utility.yul\":10084:10132   */\n      tag_247\n        /* \"#utility.yul\":10125:10131   */\n      dup5\n        /* \"#utility.yul\":10084:10132   */\n      tag_123\n      jump\t// in\n    tag_247:\n        /* \"#utility.yul\":10068:10133   */\n      tag_122\n      jump\t// in\n    tag_246:\n        /* \"#utility.yul\":10059:10133   */\n      swap1\n      pop\n        /* \"#utility.yul\":10156:10162   */\n      dup3\n        /* \"#utility.yul\":10149:10154   */\n      dup2\n        /* \"#utility.yul\":10142:10163   */\n      mstore\n        /* \"#utility.yul\":10194:10198   */\n      0x20\n        /* \"#utility.yul\":10187:10192   */\n      dup2\n        /* \"#utility.yul\":10183:10199   */\n      add\n        /* \"#utility.yul\":10232:10235   */\n      dup5\n        /* \"#utility.yul\":10223:10229   */\n      dup5\n        /* \"#utility.yul\":10218:10221   */\n      dup5\n        /* \"#utility.yul\":10214:10230   */\n      add\n        /* \"#utility.yul\":10211:10236   */\n      gt\n        /* \"#utility.yul\":10208:10320   */\n      iszero\n      tag_248\n      jumpi\n        /* \"#utility.yul\":10239:10318   */\n      tag_249\n      tag_120\n      jump\t// in\n    tag_249:\n        /* \"#utility.yul\":10208:10320   */\n    tag_248:\n        /* \"#utility.yul\":10329:10383   */\n      tag_250\n        /* \"#utility.yul\":10376:10382   */\n      dup5\n        /* \"#utility.yul\":10371:10374   */\n      dup3\n        /* \"#utility.yul\":10366:10369   */\n      dup6\n        /* \"#utility.yul\":10329:10383   */\n      tag_124\n      jump\t// in\n    tag_250:\n        /* \"#utility.yul\":10049:10389   */\n      pop\n        /* \"#utility.yul\":9966:10389   */\n      swap4\n      swap3\n      pop\n      pop\n      pop\n      jump\t// out\n        /* \"#utility.yul\":10408:10746   */\n    tag_126:\n        /* \"#utility.yul\":10463:10468   */\n      0x00\n        /* \"#utility.yul\":10512:10515   */\n      dup3\n        /* \"#utility.yul\":10505:10509   */\n      0x1f\n        /* \"#utility.yul\":10497:10503   */\n      dup4\n        /* \"#utility.yul\":10493:10510   */\n      add\n        /* \"#utility.yul\":10489:10516   */\n      slt\n        /* \"#utility.yul\":10479:10601   */\n      tag_252\n      jumpi\n        /* \"#utility.yul\":10520:10599   */\n      tag_253\n      tag_119\n      jump\t// in\n    tag_253:\n        /* \"#utility.yul\":10479:10601   */\n    tag_252:\n        /* \"#utility.yul\":10637:10643   */\n      dup2\n        /* \"#utility.yul\":10624:10644   */\n      calldataload\n        /* \"#utility.yul\":10662:10740   */\n      tag_254\n        /* \"#utility.yul\":10736:10739   */\n      dup5\n        /* \"#utility.yul\":10728:10734   */\n      dup3\n        /* \"#utility.yul\":10721:10725   */\n      0x20\n        /* \"#utility.yul\":10713:10719   */\n      dup7\n        /* \"#utility.yul\":10709:10726   */\n      add\n        /* \"#utility.yul\":10662:10740   */\n      tag_125\n      jump\t// in\n    tag_254:\n        /* \"#utility.yul\":10653:10740   */\n      swap2\n      pop\n        /* \"#utility.yul\":10469:10746   */\n      pop\n        /* \"#utility.yul\":10408:10746   */\n      swap3\n      swap2\n      pop\n      pop\n      jump\t// out\n        /* \"#utility.yul\":10752:11837   */\n    tag_29:\n        /* \"#utility.yul\":10854:10860   */\n      0x00\n        /* \"#utility.yul\":10862:10868   */\n      dup1\n        /* \"#utility.yul\":10870:10876   */\n      0x00\n        /* \"#utility.yul\":10878:10884   */\n      dup1\n        /* \"#utility.yul\":10886:10892   */\n      0x00\n        /* \"#utility.yul\":10935:10938   */\n      0xa0\n        /* \"#utility.yul\":10923:10932   */\n      dup7\n        /* \"#utility.yul\":10914:10921   */\n      dup9\n        /* \"#utility.yul\":10910:10933   */\n      sub\n        /* \"#utility.yul\":10906:10939   */\n      slt\n        /* \"#utility.yul\":10903:11023   */\n      iszero\n      tag_256\n      jumpi\n        /* \"#utility.yul\":10942:11021   */\n      tag_257\n      tag_92\n      jump\t// in\n    tag_257:\n        /* \"#utility.yul\":10903:11023   */\n    tag_256:\n        /* \"#utility.yul\":11090:11091   */\n      0x00\n        /* \"#utility.yul\":11079:11088   */\n      dup7\n        /* \"#utility.yul\":11075:11092   */\n      add\n        /* \"#utility.yul\":11062:11093   */\n      calldataload\n        /* \"#utility.yul\":11120:11138   */\n      0xffffffffffffffff\n        /* \"#utility.yul\":11112:11118   */\n      dup2\n        /* \"#utility.yul\":11109:11139   */\n      gt\n        /* \"#utility.yul\":11106:11223   */\n      iszero\n      tag_258\n      jumpi\n        /* \"#utility.yul\":11142:11221   */\n      tag_259\n      tag_93\n      jump\t// in\n    tag_259:\n        /* \"#utility.yul\":11106:11223   */\n    tag_258:\n        /* \"#utility.yul\":11247:11309   */\n      tag_260\n        /* \"#utility.yul\":11301:11308   */\n      dup9\n        /* \"#utility.yul\":11292:11298   */\n      dup3\n        /* \"#utility.yul\":11281:11290   */\n      dup10\n        /* \"#utility.yul\":11277:11299   */\n      add\n        /* \"#utility.yul\":11247:11309   */\n      tag_126\n      jump\t// in\n    tag_260:\n        /* \"#utility.yul\":11237:11309   */\n      swap6\n      pop\n        /* \"#utility.yul\":11033:11319   */\n      pop\n        /* \"#utility.yul\":11358:11360   */\n      0x20\n        /* \"#utility.yul\":11384:11437   */\n      tag_261\n        /* \"#utility.yul\":11429:11436   */\n      dup9\n        /* \"#utility.yul\":11420:11426   */\n      dup3\n        /* \"#utility.yul\":11409:11418   */\n      dup10\n        /* \"#utility.yul\":11405:11427   */\n      add\n        /* \"#utility.yul\":11384:11437   */\n      tag_97\n      jump\t// in\n    tag_261:\n        /* \"#utility.yul\":11374:11437   */\n      swap5\n      pop\n        /* \"#utility.yul\":11329:11447   */\n      pop\n        /* \"#utility.yul\":11486:11488   */\n      0x40\n        /* \"#utility.yul\":11512:11565   */\n      tag_262\n        /* \"#utility.yul\":11557:11564   */\n      dup9\n        /* \"#utility.yul\":11548:11554   */\n      dup3\n        /* \"#utility.yul\":11537:11546   */\n      dup10\n        /* \"#utility.yul\":11533:11555   */\n      add\n        /* \"#utility.yul\":11512:11565   */\n      tag_97\n      jump\t// in\n    tag_262:\n        /* \"#utility.yul\":11502:11565   */\n      swap4\n      pop\n        /* \"#utility.yul\":11457:11575   */\n      pop\n        /* \"#utility.yul\":11614:11616   */\n      0x60\n        /* \"#utility.yul\":11640:11692   */\n      tag_263\n        /* \"#utility.yul\":11684:11691   */\n      dup9\n        /* \"#utility.yul\":11675:11681   */\n      dup3\n        /* \"#utility.yul\":11664:11673   */\n      dup10\n        /* \"#utility.yul\":11660:11682   */\n      add\n        /* \"#utility.yul\":11640:11692   */\n      tag_104\n      jump\t// in\n    tag_263:\n        /* \"#utility.yul\":11630:11692   */\n      swap3\n      pop\n        /* \"#utility.yul\":11585:11702   */\n      pop\n        /* \"#utility.yul\":11741:11744   */\n      0x80\n        /* \"#utility.yul\":11768:11820   */\n      tag_264\n        /* \"#utility.yul\":11812:11819   */\n      dup9\n        /* \"#utility.yul\":11803:11809   */\n      dup3\n        /* \"#utility.yul\":11792:11801   */\n      dup10\n        /* \"#utility.yul\":11788:11810   */\n      add\n        /* \"#utility.yul\":11768:11820   */\n      tag_104\n      jump\t// in\n    tag_264:\n        /* \"#utility.yul\":11758:11820   */\n      swap2\n      pop\n        /* \"#utility.yul\":11712:11830   */\n      pop\n        /* \"#utility.yul\":10752:11837   */\n      swap3\n      swap6\n      pop\n      swap3\n      swap6\n      swap1\n      swap4\n      pop\n      jump\t// out\n        /* \"#utility.yul\":11843:12172   */\n    tag_33:\n        /* \"#utility.yul\":11902:11908   */\n      0x00\n        /* \"#utility.yul\":11951:11953   */\n      0x20\n        /* \"#utility.yul\":11939:11948   */\n      dup3\n        /* \"#utility.yul\":11930:11937   */\n      dup5\n        /* \"#utility.yul\":11926:11949   */\n      sub\n        /* \"#utility.yul\":11922:11954   */\n      slt\n        /* \"#utility.yul\":11919:12038   */\n      iszero\n      tag_266\n      jumpi\n        /* \"#utility.yul\":11957:12036   */\n      tag_267\n      tag_92\n      jump\t// in\n    tag_267:\n        /* \"#utility.yul\":11919:12038   */\n    tag_266:\n        /* \"#utility.yul\":12077:12078   */\n      0x00\n        /* \"#utility.yul\":12102:12155   */\n      tag_268\n        /* \"#utility.yul\":12147:12154   */\n      dup5\n        /* \"#utility.yul\":12138:12144   */\n      dup3\n        /* \"#utility.yul\":12127:12136   */\n      dup6\n        /* \"#utility.yul\":12123:12145   */\n      add\n        /* \"#utility.yul\":12102:12155   */\n      tag_100\n      jump\t// in\n    tag_268:\n        /* \"#utility.yul\":12092:12155   */\n      swap2\n      pop\n        /* \"#utility.yul\":12048:12165   */\n      pop\n        /* \"#utility.yul\":11843:12172   */\n      swap3\n      swap2\n      pop\n      pop\n      jump\t// out\n        /* \"#utility.yul\":12300:13476   */\n    tag_127:\n        /* \"#utility.yul\":12447:12450   */\n      0x00\n        /* \"#utility.yul\":12483:12487   */\n      0xa0\n        /* \"#utility.yul\":12478:12481   */\n      dup4\n        /* \"#utility.yul\":12474:12488   */\n      add\n        /* \"#utility.yul\":12571:12575   */\n      0x00\n        /* \"#utility.yul\":12564:12569   */\n      dup4\n        /* \"#utility.yul\":12560:12576   */\n      add\n        /* \"#utility.yul\":12554:12577   */\n      mload\n        /* \"#utility.yul\":12624:12627   */\n      dup5\n        /* \"#utility.yul\":12618:12622   */\n      dup3\n        /* \"#utility.yul\":12614:12628   */\n      sub\n        /* \"#utility.yul\":12607:12611   */\n      0x00\n        /* \"#utility.yul\":12602:12605   */\n      dup7\n        /* \"#utility.yul\":12598:12612   */\n      add\n        /* \"#utility.yul\":12591:12629   */\n      mstore\n        /* \"#utility.yul\":12650:12721   */\n      tag_270\n        /* \"#utility.yul\":12716:12720   */\n      dup3\n        /* \"#utility.yul\":12702:12714   */\n      dup3\n        /* \"#utility.yul\":12650:12721   */\n      tag_112\n      jump\t// in\n    tag_270:\n        /* \"#utility.yul\":12642:12721   */\n      swap2\n      pop\n        /* \"#utility.yul\":12498:12732   */\n      pop\n        /* \"#utility.yul\":12819:12823   */\n      0x20\n        /* \"#utility.yul\":12812:12817   */\n      dup4\n        /* \"#utility.yul\":12808:12824   */\n      add\n        /* \"#utility.yul\":12802:12825   */\n      mload\n        /* \"#utility.yul\":12838:12901   */\n      tag_271\n        /* \"#utility.yul\":12895:12899   */\n      0x20\n        /* \"#utility.yul\":12890:12893   */\n      dup7\n        /* \"#utility.yul\":12886:12900   */\n      add\n        /* \"#utility.yul\":12872:12884   */\n      dup3\n        /* \"#utility.yul\":12838:12901   */\n      tag_113\n      jump\t// in\n    tag_271:\n        /* \"#utility.yul\":12742:12911   */\n      pop\n        /* \"#utility.yul\":12998:13002   */\n      0x40\n        /* \"#utility.yul\":12991:12996   */\n      dup4\n        /* \"#utility.yul\":12987:13003   */\n      add\n        /* \"#utility.yul\":12981:13004   */\n      mload\n        /* \"#utility.yul\":13017:13080   */\n      tag_272\n        /* \"#utility.yul\":13074:13078   */\n      0x40\n        /* \"#utility.yul\":13069:13072   */\n      dup7\n        /* \"#utility.yul\":13065:13079   */\n      add\n        /* \"#utility.yul\":13051:13063   */\n      dup3\n        /* \"#utility.yul\":13017:13080   */\n      tag_113\n      jump\t// in\n    tag_272:\n        /* \"#utility.yul\":12921:13090   */\n      pop\n        /* \"#utility.yul\":13180:13184   */\n      0x60\n        /* \"#utility.yul\":13173:13178   */\n      dup4\n        /* \"#utility.yul\":13169:13185   */\n      add\n        /* \"#utility.yul\":13163:13186   */\n      mload\n        /* \"#utility.yul\":13199:13260   */\n      tag_273\n        /* \"#utility.yul\":13254:13258   */\n      0x60\n        /* \"#utility.yul\":13249:13252   */\n      dup7\n        /* \"#utility.yul\":13245:13259   */\n      add\n        /* \"#utility.yul\":13231:13243   */\n      dup3\n        /* \"#utility.yul\":13199:13260   */\n      tag_114\n      jump\t// in\n    tag_273:\n        /* \"#utility.yul\":13100:13270   */\n      pop\n        /* \"#utility.yul\":13359:13363   */\n      0x80\n        /* \"#utility.yul\":13352:13357   */\n      dup4\n        /* \"#utility.yul\":13348:13364   */\n      add\n        /* \"#utility.yul\":13342:13365   */\n      mload\n        /* \"#utility.yul\":13378:13439   */\n      tag_274\n        /* \"#utility.yul\":13433:13437   */\n      0x80\n        /* \"#utility.yul\":13428:13431   */\n      dup7\n        /* \"#utility.yul\":13424:13438   */\n      add\n        /* \"#utility.yul\":13410:13422   */\n      dup3\n        /* \"#utility.yul\":13378:13439   */\n      tag_114\n      jump\t// in\n    tag_274:\n        /* \"#utility.yul\":13280:13449   */\n      pop\n        /* \"#utility.yul\":13466:13470   */\n      dup1\n        /* \"#utility.yul\":13459:13470   */\n      swap2\n      pop\n        /* \"#utility.yul\":12452:13476   */\n      pop\n        /* \"#utility.yul\":12300:13476   */\n      swap3\n      swap2\n      pop\n      pop\n      jump\t// out\n        /* \"#utility.yul\":13482:13911   */\n    tag_36:\n        /* \"#utility.yul\":13653:13657   */\n      0x00\n        /* \"#utility.yul\":13691:13693   */\n      0x20\n        /* \"#utility.yul\":13680:13689   */\n      dup3\n        /* \"#utility.yul\":13676:13694   */\n      add\n        /* \"#utility.yul\":13668:13694   */\n      swap1\n      pop\n        /* \"#utility.yul\":13740:13749   */\n      dup2\n        /* \"#utility.yul\":13734:13738   */\n      dup2\n        /* \"#utility.yul\":13730:13750   */\n      sub\n        /* \"#utility.yul\":13726:13727   */\n      0x00\n        /* \"#utility.yul\":13715:13724   */\n      dup4\n        /* \"#utility.yul\":13711:13728   */\n      add\n        /* \"#utility.yul\":13704:13751   */\n      mstore\n        /* \"#utility.yul\":13768:13904   */\n      tag_276\n        /* \"#utility.yul\":13899:13903   */\n      dup2\n        /* \"#utility.yul\":13890:13896   */\n      dup5\n        /* \"#utility.yul\":13768:13904   */\n      tag_127\n      jump\t// in\n    tag_276:\n        /* \"#utility.yul\":13760:13904   */\n      swap1\n      pop\n        /* \"#utility.yul\":13482:13911   */\n      swap3\n      swap2\n      pop\n      pop\n      jump\t// out\n        /* \"#utility.yul\":13917:14085   */\n    tag_128:\n        /* \"#utility.yul\":14000:14011   */\n      0x00\n        /* \"#utility.yul\":14034:14040   */\n      dup3\n        /* \"#utility.yul\":14029:14032   */\n      dup3\n        /* \"#utility.yul\":14022:14041   */\n      mstore\n        /* \"#utility.yul\":14074:14078   */\n      0x20\n        /* \"#utility.yul\":14069:14072   */\n      dup3\n        /* \"#utility.yul\":14065:14079   */\n      add\n        /* \"#utility.yul\":14050:14079   */\n      swap1\n      pop\n        /* \"#utility.yul\":13917:14085   */\n      swap3\n      swap2\n      pop\n      pop\n      jump\t// out\n        /* \"#utility.yul\":14091:14464   */\n    tag_129:\n        /* \"#utility.yul\":14177:14180   */\n      0x00\n        /* \"#utility.yul\":14205:14243   */\n      tag_279\n        /* \"#utility.yul\":14237:14242   */\n      dup3\n        /* \"#utility.yul\":14205:14243   */\n      tag_108\n      jump\t// in\n    tag_279:\n        /* \"#utility.yul\":14259:14329   */\n      tag_280\n        /* \"#utility.yul\":14322:14328   */\n      dup2\n        /* \"#utility.yul\":14317:14320   */\n      dup6\n        /* \"#utility.yul\":14259:14329   */\n      tag_128\n      jump\t// in\n    tag_280:\n        /* \"#utility.yul\":14252:14329   */\n      swap4\n      pop\n        /* \"#utility.yul\":14338:14403   */\n      tag_281\n        /* \"#utility.yul\":14396:14402   */\n      dup2\n        /* \"#utility.yul\":14391:14394   */\n      dup6\n        /* \"#utility.yul\":14384:14388   */\n      0x20\n        /* \"#utility.yul\":14377:14382   */\n      dup7\n        /* \"#utility.yul\":14373:14389   */\n      add\n        /* \"#utility.yul\":14338:14403   */\n      tag_110\n      jump\t// in\n    tag_281:\n        /* \"#utility.yul\":14428:14457   */\n      tag_282\n        /* \"#utility.yul\":14450:14456   */\n      dup2\n        /* \"#utility.yul\":14428:14457   */\n      tag_111\n      jump\t// in\n    tag_282:\n        /* \"#utility.yul\":14423:14426   */\n      dup5\n        /* \"#utility.yul\":14419:14458   */\n      add\n        /* \"#utility.yul\":14412:14458   */\n      swap2\n      pop\n        /* \"#utility.yul\":14181:14464   */\n      pop\n        /* \"#utility.yul\":14091:14464   */\n      swap3\n      swap2\n      pop\n      pop\n      jump\t// out\n        /* \"#utility.yul\":14470:14588   */\n    tag_130:\n        /* \"#utility.yul\":14557:14581   */\n      tag_284\n        /* \"#utility.yul\":14575:14580   */\n      dup2\n        /* \"#utility.yul\":14557:14581   */\n      tag_95\n      jump\t// in\n    tag_284:\n        /* \"#utility.yul\":14552:14555   */\n      dup3\n        /* \"#utility.yul\":14545:14582   */\n      mstore\n        /* \"#utility.yul\":14470:14588   */\n      pop\n      pop\n      jump\t// out\n        /* \"#utility.yul\":14594:14709   */\n    tag_131:\n        /* \"#utility.yul\":14679:14702   */\n      tag_286\n        /* \"#utility.yul\":14696:14701   */\n      dup2\n        /* \"#utility.yul\":14679:14702   */\n      tag_102\n      jump\t// in\n    tag_286:\n        /* \"#utility.yul\":14674:14677   */\n      dup3\n        /* \"#utility.yul\":14667:14703   */\n      mstore\n        /* \"#utility.yul\":14594:14709   */\n      pop\n      pop\n      jump\t// out\n        /* \"#utility.yul\":14715:15458   */\n    tag_41:\n        /* \"#utility.yul\":14934:14938   */\n      0x00\n        /* \"#utility.yul\":14972:14975   */\n      0xa0\n        /* \"#utility.yul\":14961:14970   */\n      dup3\n        /* \"#utility.yul\":14957:14976   */\n      add\n        /* \"#utility.yul\":14949:14976   */\n      swap1\n      pop\n        /* \"#utility.yul\":15022:15031   */\n      dup2\n        /* \"#utility.yul\":15016:15020   */\n      dup2\n        /* \"#utility.yul\":15012:15032   */\n      sub\n        /* \"#utility.yul\":15008:15009   */\n      0x00\n        /* \"#utility.yul\":14997:15006   */\n      dup4\n        /* \"#utility.yul\":14993:15010   */\n      add\n        /* \"#utility.yul\":14986:15033   */\n      mstore\n        /* \"#utility.yul\":15050:15126   */\n      tag_288\n        /* \"#utility.yul\":15121:15125   */\n      dup2\n        /* \"#utility.yul\":15112:15118   */\n      dup9\n        /* \"#utility.yul\":15050:15126   */\n      tag_129\n      jump\t// in\n    tag_288:\n        /* \"#utility.yul\":15042:15126   */\n      swap1\n      pop\n        /* \"#utility.yul\":15136:15208   */\n      tag_289\n        /* \"#utility.yul\":15204:15206   */\n      0x20\n        /* \"#utility.yul\":15193:15202   */\n      dup4\n        /* \"#utility.yul\":15189:15207   */\n      add\n        /* \"#utility.yul\":15180:15186   */\n      dup8\n        /* \"#utility.yul\":15136:15208   */\n      tag_130\n      jump\t// in\n    tag_289:\n        /* \"#utility.yul\":15218:15290   */\n      tag_290\n        /* \"#utility.yul\":15286:15288   */\n      0x40\n        /* \"#utility.yul\":15275:15284   */\n      dup4\n        /* \"#utility.yul\":15271:15289   */\n      add\n        /* \"#utility.yul\":15262:15268   */\n      dup7\n        /* \"#utility.yul\":15218:15290   */\n      tag_130\n      jump\t// in\n    tag_290:\n        /* \"#utility.yul\":15300:15370   */\n      tag_291\n        /* \"#utility.yul\":15366:15368   */\n      0x60\n        /* \"#utility.yul\":15355:15364   */\n      dup4\n        /* \"#utility.yul\":15351:15369   */\n      add\n        /* \"#utility.yul\":15342:15348   */\n      dup6\n        /* \"#utility.yul\":15300:15370   */\n      tag_131\n      jump\t// in\n    tag_291:\n        /* \"#utility.yul\":15380:15451   */\n      tag_292\n        /* \"#utility.yul\":15446:15449   */\n      0x80\n        /* \"#utility.yul\":15435:15444   */\n      dup4\n        /* \"#utility.yul\":15431:15450   */\n      add\n        /* \"#utility.yul\":15422:15428   */\n      dup5\n        /* \"#utility.yul\":15380:15451   */\n      tag_131\n      jump\t// in\n    tag_292:\n        /* \"#utility.yul\":14715:15458   */\n      swap7\n      swap6\n      pop\n      pop\n      pop\n      pop\n      pop\n      pop\n      jump\t// out\n        /* \"#utility.yul\":15464:15644   */\n    tag_63:\n        /* \"#utility.yul\":15512:15589   */\n      0x4e487b7100000000000000000000000000000000000000000000000000000000\n        /* \"#utility.yul\":15509:15510   */\n      0x00\n        /* \"#utility.yul\":15502:15590   */\n      mstore\n        /* \"#utility.yul\":15609:15613   */\n      0x32\n        /* \"#utility.yul\":15606:15607   */\n      0x04\n        /* \"#utility.yul\":15599:15614   */\n      mstore\n        /* \"#utility.yul\":15633:15637   */\n      0x24\n        /* \"#utility.yul\":15630:15631   */\n      0x00\n        /* \"#utility.yul\":15623:15638   */\n      revert\n        /* \"#utility.yul\":15650:15830   */\n    tag_132:\n        /* \"#utility.yul\":15698:15775   */\n      0x4e487b7100000000000000000000000000000000000000000000000000000000\n        /* \"#utility.yul\":15695:15696   */\n      0x00\n        /* \"#utility.yul\":15688:15776   */\n      mstore\n        /* \"#utility.yul\":15795:15799   */\n      0x22\n        /* \"#utility.yul\":15792:15793   */\n      0x04\n        /* \"#utility.yul\":15785:15800   */\n      mstore\n        /* \"#utility.yul\":15819:15823   */\n      0x24\n        /* \"#utility.yul\":15816:15817   */\n      0x00\n        /* \"#utility.yul\":15809:15824   */\n      revert\n        /* \"#utility.yul\":15836:16156   */\n    tag_65:\n        /* \"#utility.yul\":15880:15886   */\n      0x00\n        /* \"#utility.yul\":15917:15918   */\n      0x02\n        /* \"#utility.yul\":15911:15915   */\n      dup3\n        /* \"#utility.yul\":15907:15919   */\n      div\n        /* \"#utility.yul\":15897:15919   */\n      swap1\n      pop\n        /* \"#utility.yul\":15964:15965   */\n      0x01\n        /* \"#utility.yul\":15958:15962   */\n      dup3\n        /* \"#utility.yul\":15954:15966   */\n      and\n        /* \"#utility.yul\":15985:16003   */\n      dup1\n        /* \"#utility.yul\":15975:16056   */\n      tag_296\n      jumpi\n        /* \"#utility.yul\":16041:16045   */\n      0x7f\n        /* \"#utility.yul\":16033:16039   */\n      dup3\n        /* \"#utility.yul\":16029:16046   */\n      and\n        /* \"#utility.yul\":16019:16046   */\n      swap2\n      pop\n        /* \"#utility.yul\":15975:16056   */\n    tag_296:\n        /* \"#utility.yul\":16103:16105   */\n      0x20\n        /* \"#utility.yul\":16095:16101   */\n      dup3\n        /* \"#utility.yul\":16092:16106   */\n      lt\n        /* \"#utility.yul\":16072:16090   */\n      dup2\n        /* \"#utility.yul\":16069:16107   */\n      sub\n        /* \"#utility.yul\":16066:16150   */\n      tag_297\n      jumpi\n        /* \"#utility.yul\":16122:16140   */\n      tag_298\n      tag_132\n      jump\t// in\n    tag_298:\n        /* \"#utility.yul\":16066:16150   */\n    tag_297:\n        /* \"#utility.yul\":15887:16156   */\n      pop\n        /* \"#utility.yul\":15836:16156   */\n      swap2\n      swap1\n      pop\n      jump\t// out\n        /* \"#utility.yul\":16162:16342   */\n    tag_133:\n        /* \"#utility.yul\":16210:16287   */\n      0x4e487b7100000000000000000000000000000000000000000000000000000000\n        /* \"#utility.yul\":16207:16208   */\n      0x00\n        /* \"#utility.yul\":16200:16288   */\n      mstore\n        /* \"#utility.yul\":16307:16311   */\n      0x11\n        /* \"#utility.yul\":16304:16305   */\n      0x04\n        /* \"#utility.yul\":16297:16312   */\n      mstore\n        /* \"#utility.yul\":16331:16335   */\n      0x24\n        /* \"#utility.yul\":16328:16329   */\n      0x00\n        /* \"#utility.yul\":16321:16336   */\n      revert\n        /* \"#utility.yul\":16348:16581   */\n    tag_73:\n        /* \"#utility.yul\":16387:16390   */\n      0x00\n        /* \"#utility.yul\":16410:16434   */\n      tag_301\n        /* \"#utility.yul\":16428:16433   */\n      dup3\n        /* \"#utility.yul\":16410:16434   */\n      tag_98\n      jump\t// in\n    tag_301:\n        /* \"#utility.yul\":16401:16434   */\n      swap2\n      pop\n        /* \"#utility.yul\":16456:16522   */\n      0xffffffffffffffffffffffffffffffffffffffffffffffffffffffffffffffff\n        /* \"#utility.yul\":16449:16454   */\n      dup3\n        /* \"#utility.yul\":16446:16523   */\n      sub\n        /* \"#utility.yul\":16443:16546   */\n      tag_302\n      jumpi\n        /* \"#utility.yul\":16526:16544   */\n      tag_303\n      tag_133\n      jump\t// in\n    tag_303:\n        /* \"#utility.yul\":16443:16546   */\n    tag_302:\n        /* \"#utility.yul\":16573:16574   */\n      0x01\n        /* \"#utility.yul\":16566:16571   */\n      dup3\n        /* \"#utility.yul\":16562:16575   */\n      add\n        /* \"#utility.yul\":16555:16575   */\n      swap1\n      pop\n        /* \"#utility.yul\":16348:16581   */\n      swap2\n      swap1\n      pop\n      jump\t// out\n        /* \"#utility.yul\":16587:16727   */\n    tag_134:\n        /* \"#utility.yul\":16635:16639   */\n      0x00\n        /* \"#utility.yul\":16658:16661   */\n      dup2\n        /* \"#utility.yul\":16650:16661   */\n      swap1\n      pop\n        /* \"#utility.yul\":16681:16684   */\n      dup2\n        /* \"#utility.yul\":16678:16679   */\n      0x00\n        /* \"#utility.yul\":16671:16685   */\n      mstore\n        /* \"#utility.yul\":16715:16719   */\n      0x20\n        /* \"#utility.yul\":16712:16713   */\n      0x00\n        /* \"#utility.yul\":16702:16720   */\n      keccak256\n        /* \"#utility.yul\":16694:16720   */\n      swap1\n      pop\n        /* \"#utility.yul\":16587:16727   */\n      swap2\n      swap1\n      pop\n      jump\t// out\n        /* \"#utility.yul\":16733:16826   */\n    tag_135:\n        /* \"#utility.yul\":16770:16776   */\n      0x00\n        /* \"#utility.yul\":16817:16819   */\n      0x20\n        /* \"#utility.yul\":16812:16814   */\n      0x1f\n        /* \"#utility.yul\":16805:16810   */\n      dup4\n        /* \"#utility.yul\":16801:16815   */\n      add\n        /* \"#utility.yul\":16797:16820   */\n      div\n        /* \"#utility.yul\":16787:16820   */\n      swap1\n      pop\n        /* \"#utility.yul\":16733:16826   */\n      swap2\n      swap1\n      pop\n      jump\t// out\n        /* \"#utility.yul\":16832:16939   */\n    tag_136:\n        /* \"#utility.yul\":16876:16884   */\n      0x00\n        /* \"#utility.yul\":16926:16931   */\n      dup3\n        /* \"#utility.yul\":16920:16924   */\n      dup3\n        /* \"#utility.yul\":16916:16932   */\n      shl\n        /* \"#utility.yul\":16895:16932   */\n      swap1\n      pop\n        /* \"#utility.yul\":16832:16939   */\n      swap3\n      swap2\n      pop\n      pop\n      jump\t// out\n        /* \"#utility.yul\":16945:17338   */\n    tag_137:\n        /* \"#utility.yul\":17014:17020   */\n      0x00\n        /* \"#utility.yul\":17064:17065   */\n      0x08\n        /* \"#utility.yul\":17052:17062   */\n      dup4\n        /* \"#utility.yul\":17048:17066   */\n      mul\n        /* \"#utility.yul\":17087:17184   */\n      tag_308\n        /* \"#utility.yul\":17117:17183   */\n      0xffffffffffffffffffffffffffffffffffffffffffffffffffffffffffffffff\n        /* \"#utility.yul\":17106:17115   */\n      dup3\n        /* \"#utility.yul\":17087:17184   */\n      tag_136\n      jump\t// in\n    tag_308:\n        /* \"#utility.yul\":17205:17244   */\n      tag_309\n        /* \"#utility.yul\":17235:17243   */\n      dup7\n        /* \"#utility.yul\":17224:17233   */\n      dup4\n        /* \"#utility.yul\":17205:17244   */\n      tag_136\n      jump\t// in\n    tag_309:\n        /* \"#utility.yul\":17193:17244   */\n      swap6\n      pop\n        /* \"#utility.yul\":17277:17281   */\n      dup1\n        /* \"#utility.yul\":17273:17282   */\n      not\n        /* \"#utility.yul\":17266:17271   */\n      dup5\n        /* \"#utility.yul\":17262:17283   */\n      and\n        /* \"#utility.yul\":17253:17283   */\n      swap4\n      pop\n        /* \"#utility.yul\":17326:17330   */\n      dup1\n        /* \"#utility.yul\":17316:17324   */\n      dup7\n        /* \"#utility.yul\":17312:17331   */\n      and\n        /* \"#utility.yul\":17305:17310   */\n      dup5\n        /* \"#utility.yul\":17302:17332   */\n      or\n        /* \"#utility.yul\":17292:17332   */\n      swap3\n      pop\n        /* \"#utility.yul\":17021:17338   */\n      pop\n      pop\n        /* \"#utility.yul\":16945:17338   */\n      swap4\n      swap3\n      pop\n      pop\n      pop\n      jump\t// out\n        /* \"#utility.yul\":17344:17404   */\n    tag_138:\n        /* \"#utility.yul\":17372:17375   */\n      0x00\n        /* \"#utility.yul\":17393:17398   */\n      dup2\n        /* \"#utility.yul\":17386:17398   */\n      swap1\n      pop\n        /* \"#utility.yul\":17344:17404   */\n      swap2\n      swap1\n      pop\n      jump\t// out\n        /* \"#utility.yul\":17410:17552   */\n    tag_139:\n        /* \"#utility.yul\":17460:17469   */\n      0x00\n        /* \"#utility.yul\":17493:17546   */\n      tag_312\n        /* \"#utility.yul\":17511:17545   */\n      tag_313\n        /* \"#utility.yul\":17520:17544   */\n      tag_314\n        /* \"#utility.yul\":17538:17543   */\n      dup5\n        /* \"#utility.yul\":17520:17544   */\n      tag_98\n      jump\t// in\n    tag_314:\n        /* \"#utility.yul\":17511:17545   */\n      tag_138\n      jump\t// in\n    tag_313:\n        /* \"#utility.yul\":17493:17546   */\n      tag_98\n      jump\t// in\n    tag_312:\n        /* \"#utility.yul\":17480:17546   */\n      swap1\n      pop\n        /* \"#utility.yul\":17410:17552   */\n      swap2\n      swap1\n      pop\n      jump\t// out\n        /* \"#utility.yul\":17558:17633   */\n    tag_140:\n        /* \"#utility.yul\":17601:17604   */\n      0x00\n        /* \"#utility.yul\":17622:17627   */\n      dup2\n        /* \"#utility.yul\":17615:17627   */\n      swap1\n      pop\n        /* \"#utility.yul\":17558:17633   */\n      swap2\n      swap1\n      pop\n      jump\t// out\n        /* \"#utility.yul\":17639:17908   */\n    tag_141:\n        /* \"#utility.yul\":17749:17788   */\n      tag_317\n        /* \"#utility.yul\":17780:17787   */\n      dup4\n        /* \"#utility.yul\":17749:17788   */\n      tag_139\n      jump\t// in\n    tag_317:\n        /* \"#utility.yul\":17810:17901   */\n      tag_318\n        /* \"#utility.yul\":17859:17900   */\n      tag_319\n        /* \"#utility.yul\":17883:17899   */\n      dup3\n        /* \"#utility.yul\":17859:17900   */\n      tag_140\n      jump\t// in\n    tag_319:\n        /* \"#utility.yul\":17851:17857   */\n      dup5\n        /* \"#utility.yul\":17844:17848   */\n      dup5\n        /* \"#utility.yul\":17838:17849   */\n      sload\n        /* \"#utility.yul\":17810:17901   */\n      tag_137\n      jump\t// in\n    tag_318:\n        /* \"#utility.yul\":17804:17808   */\n      dup3\n        /* \"#utility.yul\":17797:17902   */\n      sstore\n        /* \"#utility.yul\":17715:17908   */\n      pop\n        /* \"#utility.yul\":17639:17908   */\n      pop\n      pop\n      pop\n      jump\t// out\n        /* \"#utility.yul\":17914:17987   */\n    tag_142:\n        /* \"#utility.yul\":17959:17962   */\n      0x00\n        /* \"#utility.yul\":17914:17987   */\n      swap1\n      jump\t// out\n        /* \"#utility.yul\":17993:18182   */\n    tag_143:\n        /* \"#utility.yul\":18070:18102   */\n      tag_322\n      tag_142\n      jump\t// in\n    tag_322:\n        /* \"#utility.yul\":18111:18176   */\n      tag_323\n        /* \"#utility.yul\":18169:18175   */\n      dup2\n        /* \"#utility.yul\":18161:18167   */\n      dup5\n        /* \"#utility.yul\":18155:18159   */\n      dup5\n        /* \"#utility.yul\":18111:18176   */\n      tag_141\n      jump\t// in\n    tag_323:\n        /* \"#utility.yul\":18046:18182   */\n      pop\n        /* \"#utility.yul\":17993:18182   */\n      pop\n      pop\n      jump\t// out\n        /* \"#utility.yul\":18188:18374   */\n    tag_144:\n        /* \"#utility.yul\":18248:18368   */\n    tag_325:\n        /* \"#utility.yul\":18265:18268   */\n      dup2\n        /* \"#utility.yul\":18258:18263   */\n      dup2\n        /* \"#utility.yul\":18255:18269   */\n      lt\n        /* \"#utility.yul\":18248:18368   */\n      iszero\n      tag_327\n      jumpi\n        /* \"#utility.yul\":18319:18358   */\n      tag_328\n        /* \"#utility.yul\":18356:18357   */\n      0x00\n        /* \"#utility.yul\":18349:18354   */\n      dup3\n        /* \"#utility.yul\":18319:18358   */\n      tag_143\n      jump\t// in\n    tag_328:\n        /* \"#utility.yul\":18292:18293   */\n      0x01\n        /* \"#utility.yul\":18285:18290   */\n      dup2\n        /* \"#utility.yul\":18281:18294   */\n      add\n        /* \"#utility.yul\":18272:18294   */\n      swap1\n      pop\n        /* \"#utility.yul\":18248:18368   */\n      jump(tag_325)\n    tag_327:\n        /* \"#utility.yul\":18188:18374   */\n      pop\n      pop\n      jump\t// out\n        /* \"#utility.yul\":18380:18921   */\n    tag_145:\n        /* \"#utility.yul\":18480:18482   */\n      0x1f\n        /* \"#utility.yul\":18475:18478   */\n      dup3\n        /* \"#utility.yul\":18472:18483   */\n      gt\n        /* \"#utility.yul\":18469:18914   */\n      iszero\n      tag_330\n      jumpi\n        /* \"#utility.yul\":18514:18551   */\n      tag_331\n        /* \"#utility.yul\":18545:18550   */\n      dup2\n        /* \"#utility.yul\":18514:18551   */\n      tag_134\n      jump\t// in\n    tag_331:\n        /* \"#utility.yul\":18597:18626   */\n      tag_332\n        /* \"#utility.yul\":18615:18625   */\n      dup5\n        /* \"#utility.yul\":18597:18626   */\n      tag_135\n      jump\t// in\n    tag_332:\n        /* \"#utility.yul\":18587:18595   */\n      dup2\n        /* \"#utility.yul\":18583:18627   */\n      add\n        /* \"#utility.yul\":18780:18782   */\n      0x20\n        /* \"#utility.yul\":18768:18778   */\n      dup6\n        /* \"#utility.yul\":18765:18783   */\n      lt\n        /* \"#utility.yul\":18762:18811   */\n      iszero\n      tag_333\n      jumpi\n        /* \"#utility.yul\":18801:18809   */\n      dup2\n        /* \"#utility.yul\":18786:18809   */\n      swap1\n      pop\n        /* \"#utility.yul\":18762:18811   */\n    tag_333:\n        /* \"#utility.yul\":18824:18904   */\n      tag_334\n        /* \"#utility.yul\":18880:18902   */\n      tag_335\n        /* \"#utility.yul\":18898:18901   */\n      dup6\n        /* \"#utility.yul\":18880:18902   */\n      tag_135\n      jump\t// in\n    tag_335:\n        /* \"#utility.yul\":18870:18878   */\n      dup4\n        /* \"#utility.yul\":18866:18903   */\n      add\n        /* \"#utility.yul\":18853:18864   */\n      dup3\n        /* \"#utility.yul\":18824:18904   */\n      tag_144\n      jump\t// in\n    tag_334:\n        /* \"#utility.yul\":18484:18914   */\n      pop\n      pop\n        /* \"#utility.yul\":18469:18914   */\n    tag_330:\n        /* \"#utility.yul\":18380:18921   */\n      pop\n      pop\n      pop\n      jump\t// out\n        /* \"#utility.yul\":18927:19044   */\n    tag_146:\n        /* \"#utility.yul\":18981:18989   */\n      0x00\n        /* \"#utility.yul\":19031:19036   */\n      dup3\n        /* \"#utility.yul\":19025:19029   */\n      dup3\n        /* \"#utility.yul\":19021:19037   */\n      shr\n        /* \"#utility.yul\":19000:19037   */\n      swap1\n      pop\n        /* \"#utility.yul\":18927:19044   */\n      swap3\n      swap2\n      pop\n      pop\n      jump\t// out\n        /* \"#utility.yul\":19050:19219   */\n    tag_147:\n        /* \"#utility.yul\":19094:19100   */\n      0x00\n        /* \"#utility.yul\":19127:19178   */\n      tag_338\n        /* \"#utility.yul\":19175:19176   */\n      0x00\n        /* \"#utility.yul\":19171:19177   */\n      not\n        /* \"#utility.yul\":19163:19168   */\n      dup5\n        /* \"#utility.yul\":19160:19161   */\n      0x08\n        /* \"#utility.yul\":19156:19169   */\n      mul\n        /* \"#utility.yul\":19127:19178   */\n      tag_146\n      jump\t// in\n    tag_338:\n        /* \"#utility.yul\":19123:19179   */\n      not\n        /* \"#utility.yul\":19208:19212   */\n      dup1\n        /* \"#utility.yul\":19202:19206   */\n      dup4\n        /* \"#utility.yul\":19198:19213   */\n      and\n        /* \"#utility.yul\":19188:19213   */\n      swap2\n      pop\n        /* \"#utility.yul\":19101:19219   */\n      pop\n        /* \"#utility.yul\":19050:19219   */\n      swap3\n      swap2\n      pop\n      pop\n      jump\t// out\n        /* \"#utility.yul\":19224:19519   */\n    tag_148:\n        /* \"#utility.yul\":19300:19304   */\n      0x00\n        /* \"#utility.yul\":19446:19475   */\n      tag_340\n        /* \"#utility.yul\":19471:19474   */\n      dup4\n        /* \"#utility.yul\":19465:19469   */\n      dup4\n        /* \"#utility.yul\":19446:19475   */\n      tag_147\n      jump\t// in\n    tag_340:\n        /* \"#utility.yul\":19438:19475   */\n      swap2\n      pop\n        /* \"#utility.yul\":19508:19511   */\n      dup3\n        /* \"#utility.yul\":19505:19506   */\n      0x02\n        /* \"#utility.yul\":19501:19512   */\n      mul\n        /* \"#utility.yul\":19495:19499   */\n      dup3\n        /* \"#utility.yul\":19492:19513   */\n      or\n        /* \"#utility.yul\":19484:19513   */\n      swap1\n      pop\n        /* \"#utility.yul\":19224:19519   */\n      swap3\n      swap2\n      pop\n      pop\n      jump\t// out\n        /* \"#utility.yul\":19524:20914   */\n    tag_76:\n        /* \"#utility.yul\":19639:19675   */\n      tag_342\n        /* \"#utility.yul\":19671:19674   */\n      dup3\n        /* \"#utility.yul\":19639:19675   */\n      tag_108\n      jump\t// in\n    tag_342:\n        /* \"#utility.yul\":19740:19758   */\n      0xffffffffffffffff\n        /* \"#utility.yul\":19732:19738   */\n      dup2\n        /* \"#utility.yul\":19729:19759   */\n      gt\n        /* \"#utility.yul\":19726:19782   */\n      iszero\n      tag_343\n      jumpi\n        /* \"#utility.yul\":19762:19780   */\n      tag_344\n      tag_53\n      jump\t// in\n    tag_344:\n        /* \"#utility.yul\":19726:19782   */\n    tag_343:\n        /* \"#utility.yul\":19806:19844   */\n      tag_345\n        /* \"#utility.yul\":19838:19842   */\n      dup3\n        /* \"#utility.yul\":19832:19843   */\n      sload\n        /* \"#utility.yul\":19806:19844   */\n      tag_65\n      jump\t// in\n    tag_345:\n        /* \"#utility.yul\":19891:19957   */\n      tag_346\n        /* \"#utility.yul\":19950:19956   */\n      dup3\n        /* \"#utility.yul\":19942:19948   */\n      dup3\n        /* \"#utility.yul\":19936:19940   */\n      dup6\n        /* \"#utility.yul\":19891:19957   */\n      tag_145\n      jump\t// in\n    tag_346:\n        /* \"#utility.yul\":19984:19985   */\n      0x00\n        /* \"#utility.yul\":20008:20012   */\n      0x20\n        /* \"#utility.yul\":19995:20012   */\n      swap1\n      pop\n        /* \"#utility.yul\":20040:20042   */\n      0x1f\n        /* \"#utility.yul\":20032:20038   */\n      dup4\n        /* \"#utility.yul\":20029:20043   */\n      gt\n        /* \"#utility.yul\":20057:20058   */\n      0x01\n        /* \"#utility.yul\":20052:20669   */\n      dup2\n      eq\n      tag_348\n      jumpi\n        /* \"#utility.yul\":20713:20714   */\n      0x00\n        /* \"#utility.yul\":20730:20736   */\n      dup5\n        /* \"#utility.yul\":20727:20804   */\n      iszero\n      tag_349\n      jumpi\n        /* \"#utility.yul\":20779:20788   */\n      dup3\n        /* \"#utility.yul\":20774:20777   */\n      dup8\n        /* \"#utility.yul\":20770:20789   */\n      add\n        /* \"#utility.yul\":20764:20790   */\n      mload\n        /* \"#utility.yul\":20755:20790   */\n      swap1\n      pop\n        /* \"#utility.yul\":20727:20804   */\n    tag_349:\n        /* \"#utility.yul\":20830:20897   */\n      tag_350\n        /* \"#utility.yul\":20890:20896   */\n      dup6\n        /* \"#utility.yul\":20883:20888   */\n      dup3\n        /* \"#utility.yul\":20830:20897   */\n      tag_148\n      jump\t// in\n    tag_350:\n        /* \"#utility.yul\":20824:20828   */\n      dup7\n        /* \"#utility.yul\":20817:20898   */\n      sstore\n        /* \"#utility.yul\":20686:20908   */\n      pop\n        /* \"#utility.yul\":20022:20908   */\n      jump(tag_347)\n        /* \"#utility.yul\":20052:20669   */\n    tag_348:\n        /* \"#utility.yul\":20104:20108   */\n      0x1f\n        /* \"#utility.yul\":20100:20109   */\n      not\n        /* \"#utility.yul\":20092:20098   */\n      dup5\n        /* \"#utility.yul\":20088:20110   */\n      and\n        /* \"#utility.yul\":20138:20174   */\n      tag_351\n        /* \"#utility.yul\":20169:20173   */\n      dup7\n        /* \"#utility.yul\":20138:20174   */\n      tag_134\n      jump\t// in\n    tag_351:\n        /* \"#utility.yul\":20196:20197   */\n      0x00\n        /* \"#utility.yul\":20210:20418   */\n    tag_352:\n        /* \"#utility.yul\":20224:20231   */\n      dup3\n        /* \"#utility.yul\":20221:20222   */\n      dup2\n        /* \"#utility.yul\":20218:20232   */\n      lt\n        /* \"#utility.yul\":20210:20418   */\n      iszero\n      tag_354\n      jumpi\n        /* \"#utility.yul\":20303:20312   */\n      dup5\n        /* \"#utility.yul\":20298:20301   */\n      dup10\n        /* \"#utility.yul\":20294:20313   */\n      add\n        /* \"#utility.yul\":20288:20314   */\n      mload\n        /* \"#utility.yul\":20280:20286   */\n      dup3\n        /* \"#utility.yul\":20273:20315   */\n      sstore\n        /* \"#utility.yul\":20354:20355   */\n      0x01\n        /* \"#utility.yul\":20346:20352   */\n      dup3\n        /* \"#utility.yul\":20342:20356   */\n      add\n        /* \"#utility.yul\":20332:20356   */\n      swap2\n      pop\n        /* \"#utility.yul\":20401:20403   */\n      0x20\n        /* \"#utility.yul\":20390:20399   */\n      dup6\n        /* \"#utility.yul\":20386:20404   */\n      add\n        /* \"#utility.yul\":20373:20404   */\n      swap5\n      pop\n        /* \"#utility.yul\":20247:20251   */\n      0x20\n        /* \"#utility.yul\":20244:20245   */\n      dup2\n        /* \"#utility.yul\":20240:20252   */\n      add\n        /* \"#utility.yul\":20235:20252   */\n      swap1\n      pop\n        /* \"#utility.yul\":20210:20418   */\n      jump(tag_352)\n    tag_354:\n        /* \"#utility.yul\":20446:20452   */\n      dup7\n        /* \"#utility.yul\":20437:20444   */\n      dup4\n        /* \"#utility.yul\":20434:20453   */\n      lt\n        /* \"#utility.yul\":20431:20610   */\n      iszero\n      tag_355\n      jumpi\n        /* \"#utility.yul\":20504:20513   */\n      dup5\n        /* \"#utility.yul\":20499:20502   */\n      dup10\n        /* \"#utility.yul\":20495:20514   */\n      add\n        /* \"#utility.yul\":20489:20515   */\n      mload\n        /* \"#utility.yul\":20547:20595   */\n      tag_356\n        /* \"#utility.yul\":20589:20593   */\n      0x1f\n        /* \"#utility.yul\":20581:20587   */\n      dup10\n        /* \"#utility.yul\":20577:20594   */\n      and\n        /* \"#utility.yul\":20566:20575   */\n      dup3\n        /* \"#utility.yul\":20547:20595   */\n      tag_147\n      jump\t// in\n    tag_356:\n        /* \"#utility.yul\":20539:20545   */\n      dup4\n        /* \"#utility.yul\":20532:20596   */\n      sstore\n        /* \"#utility.yul\":20454:20610   */\n      pop\n        /* \"#utility.yul\":20431:20610   */\n    tag_355:\n        /* \"#utility.yul\":20656:20657   */\n      0x01\n        /* \"#utility.yul\":20652:20653   */\n      0x02\n        /* \"#utility.yul\":20644:20650   */\n      dup9\n        /* \"#utility.yul\":20640:20654   */\n      mul\n        /* \"#utility.yul\":20636:20658   */\n      add\n        /* \"#utility.yul\":20630:20634   */\n      dup9\n        /* \"#utility.yul\":20623:20659   */\n      sstore\n        /* \"#utility.yul\":20059:20669   */\n      pop\n      pop\n      pop\n        /* \"#utility.yul\":20022:20908   */\n    tag_347:\n      pop\n        /* \"#utility.yul\":19614:20914   */\n      pop\n      pop\n      pop\n        /* \"#utility.yul\":19524:20914   */\n      pop\n      pop\n      jump\t// out\n\n    auxdata: 0xa264697066735822122007cd082d84e461f6de3c99ba642b503a3b13610b228eb69efabf6c2fe42752f364736f6c63430008120033\n}\n",
				"bytecode": {
					"linkReferences": {},
					"object": "6080604052600160005534801561001557600080fd5b506114fd806100256000396000f3fe608060405234801561001057600080fd5b506004361061007d5760003560e01c80639df2505e1161005b5780639df2505e146100fe578063b9db15b41461011a578063cb59d4301461014a578063e3eba9041461017e5761007d565b806383f48c9614610082578063911a34fe146100b257806396fccba4146100ce575b600080fd5b61009c60048036038101906100979190610ad5565b61019c565b6040516100a99190610b24565b60405180910390f35b6100cc60048036038101906100c79190610b7b565b6101cd565b005b6100e860048036038101906100e39190610bbb565b610206565b6040516100f59190610dce565b60405180910390f35b61011860048036038101906101139190610f25565b6104fd565b005b610134600480360381019061012f9190610fbc565b6106eb565b604051610141919061105f565b60405180910390f35b610164600480360381019061015f9190610fbc565b6108a2565b6040516101759594939291906110e9565b60405180910390f35b6101866109c0565b6040516101939190610b24565b60405180910390f35b600360205281600052604060002081815481106101b857600080fd5b90600052602060002001600091509150505481565b806002600084815260200190815260200160002060020160186101000a81548163ffffffff021916908363ffffffff1602179055505050565b60606000600360008473ffffffffffffffffffffffffffffffffffffffff1673ffffffffffffffffffffffffffffffffffffffff16815260200190815260200160002080548060200260200160405190810160405280929190818152602001828054801561029357602002820191906000526020600020905b81548152602001906001019080831161027f575b505050505090506000815167ffffffffffffffff8111156102b7576102b6610dfa565b5b6040519080825280602002602001820160405280156102f057816020015b6102dd6109c6565b8152602001906001900390816102d55790505b50905060005b82518110156104f2576002600084838151811061031657610315611143565b5b602002602001015181526020019081526020016000206040518060a0016040529081600082018054610347906111a1565b80601f0160208091040260200160405190810160405280929190818152602001828054610373906111a1565b80156103c05780601f10610395576101008083540402835291602001916103c0565b820191906000526020600020905b8154815290600101906020018083116103a357829003601f168201915b505050505081526020016001820160009054906101000a900473ffffffffffffffffffffffffffffffffffffffff1673ffffffffffffffffffffffffffffffffffffffff1673ffffffffffffffffffffffffffffffffffffffff1681526020016002820160009054906101000a900473ffffffffffffffffffffffffffffffffffffffff1673ffffffffffffffffffffffffffffffffffffffff1673ffffffffffffffffffffffffffffffffffffffff1681526020016002820160149054906101000a900463ffffffff1663ffffffff1663ffffffff1681526020016002820160189054906101000a900463ffffffff1663ffffffff1663ffffffff16815250508282815181106104d4576104d3611143565b5b602002602001018190525080806104ea90611201565b9150506102f6565b508092505050919050565b6040518060a001604052808681526020018573ffffffffffffffffffffffffffffffffffffffff1681526020018473ffffffffffffffffffffffffffffffffffffffff1681526020018363ffffffff1681526020018263ffffffff168152506002600080548152602001908152602001600020600082015181600001908161058591906113f5565b5060208201518160010160006101000a81548173ffffffffffffffffffffffffffffffffffffffff021916908373ffffffffffffffffffffffffffffffffffffffff16021790555060408201518160020160006101000a81548173ffffffffffffffffffffffffffffffffffffffff021916908373ffffffffffffffffffffffffffffffffffffffff16021790555060608201518160020160146101000a81548163ffffffff021916908363ffffffff16021790555060808201518160020160186101000a81548163ffffffff021916908363ffffffff160217905550905050600360008473ffffffffffffffffffffffffffffffffffffffff1673ffffffffffffffffffffffffffffffffffffffff16815260200190815260200160002060005490806001815401808255809150506001900390600052602060002001600090919091909150556000808154809291906106df90611201565b91905055505050505050565b6106f36109c6565b600260008381526020019081526020016000206040518060a0016040529081600082018054610721906111a1565b80601f016020809104026020016040519081016040528092919081815260200182805461074d906111a1565b801561079a5780601f1061076f5761010080835404028352916020019161079a565b820191906000526020600020905b81548152906001019060200180831161077d57829003601f168201915b505050505081526020016001820160009054906101000a900473ffffffffffffffffffffffffffffffffffffffff1673ffffffffffffffffffffffffffffffffffffffff1673ffffffffffffffffffffffffffffffffffffffff1681526020016002820160009054906101000a900473ffffffffffffffffffffffffffffffffffffffff1673ffffffffffffffffffffffffffffffffffffffff1673ffffffffffffffffffffffffffffffffffffffff1681526020016002820160149054906101000a900463ffffffff1663ffffffff1663ffffffff1681526020016002820160189054906101000a900463ffffffff1663ffffffff1663ffffffff16815250509050919050565b60026020528060005260406000206000915090508060000180546108c5906111a1565b80601f01602080910402602001604051908101604052809291908181526020018280546108f1906111a1565b801561093e5780601f106109135761010080835404028352916020019161093e565b820191906000526020600020905b81548152906001019060200180831161092157829003601f168201915b5050505050908060010160009054906101000a900473ffffffffffffffffffffffffffffffffffffffff16908060020160009054906101000a900473ffffffffffffffffffffffffffffffffffffffff16908060020160149054906101000a900463ffffffff16908060020160189054906101000a900463ffffffff16905085565b60005481565b6040518060a0016040528060608152602001600073ffffffffffffffffffffffffffffffffffffffff168152602001600073ffffffffffffffffffffffffffffffffffffffff168152602001600063ffffffff168152602001600063ffffffff1681525090565b6000604051905090565b600080fd5b600080fd5b600073ffffffffffffffffffffffffffffffffffffffff82169050919050565b6000610a6c82610a41565b9050919050565b610a7c81610a61565b8114610a8757600080fd5b50565b600081359050610a9981610a73565b92915050565b6000819050919050565b610ab281610a9f565b8114610abd57600080fd5b50565b600081359050610acf81610aa9565b92915050565b60008060408385031215610aec57610aeb610a37565b5b6000610afa85828601610a8a565b9250506020610b0b85828601610ac0565b9150509250929050565b610b1e81610a9f565b82525050565b6000602082019050610b396000830184610b15565b92915050565b600063ffffffff82169050919050565b610b5881610b3f565b8114610b6357600080fd5b50565b600081359050610b7581610b4f565b92915050565b60008060408385031215610b9257610b91610a37565b5b6000610ba085828601610ac0565b9250506020610bb185828601610b66565b9150509250929050565b600060208284031215610bd157610bd0610a37565b5b6000610bdf84828501610a8a565b91505092915050565b600081519050919050565b600082825260208201905092915050565b6000819050602082019050919050565b600081519050919050565b600082825260208201905092915050565b60005b83811015610c4e578082015181840152602081019050610c33565b60008484015250505050565b6000601f19601f8301169050919050565b6000610c7682610c14565b610c808185610c1f565b9350610c90818560208601610c30565b610c9981610c5a565b840191505092915050565b610cad81610a61565b82525050565b610cbc81610b3f565b82525050565b600060a0830160008301518482036000860152610cdf8282610c6b565b9150506020830151610cf46020860182610ca4565b506040830151610d076040860182610ca4565b506060830151610d1a6060860182610cb3565b506080830151610d2d6080860182610cb3565b508091505092915050565b6000610d448383610cc2565b905092915050565b6000602082019050919050565b6000610d6482610be8565b610d6e8185610bf3565b935083602082028501610d8085610c04565b8060005b85811015610dbc5784840389528151610d9d8582610d38565b9450610da883610d4c565b925060208a01995050600181019050610d84565b50829750879550505050505092915050565b60006020820190508181036000830152610de88184610d59565b905092915050565b600080fd5b600080fd5b7f4e487b7100000000000000000000000000000000000000000000000000000000600052604160045260246000fd5b610e3282610c5a565b810181811067ffffffffffffffff82111715610e5157610e50610dfa565b5b80604052505050565b6000610e64610a2d565b9050610e708282610e29565b919050565b600067ffffffffffffffff821115610e9057610e8f610dfa565b5b610e9982610c5a565b9050602081019050919050565b82818337600083830152505050565b6000610ec8610ec384610e75565b610e5a565b905082815260208101848484011115610ee457610ee3610df5565b5b610eef848285610ea6565b509392505050565b600082601f830112610f0c57610f0b610df0565b5b8135610f1c848260208601610eb5565b91505092915050565b600080600080600060a08688031215610f4157610f40610a37565b5b600086013567ffffffffffffffff811115610f5f57610f5e610a3c565b5b610f6b88828901610ef7565b9550506020610f7c88828901610a8a565b9450506040610f8d88828901610a8a565b9350506060610f9e88828901610b66565b9250506080610faf88828901610b66565b9150509295509295909350565b600060208284031215610fd257610fd1610a37565b5b6000610fe084828501610ac0565b91505092915050565b600060a08301600083015184820360008601526110068282610c6b565b915050602083015161101b6020860182610ca4565b50604083015161102e6040860182610ca4565b5060608301516110416060860182610cb3565b5060808301516110546080860182610cb3565b508091505092915050565b600060208201905081810360008301526110798184610fe9565b905092915050565b600082825260208201905092915050565b600061109d82610c14565b6110a78185611081565b93506110b7818560208601610c30565b6110c081610c5a565b840191505092915050565b6110d481610a61565b82525050565b6110e381610b3f565b82525050565b600060a08201905081810360008301526111038188611092565b905061111260208301876110cb565b61111f60408301866110cb565b61112c60608301856110da565b61113960808301846110da565b9695505050505050565b7f4e487b7100000000000000000000000000000000000000000000000000000000600052603260045260246000fd5b7f4e487b7100000000000000000000000000000000000000000000000000000000600052602260045260246000fd5b600060028204905060018216806111b957607f821691505b6020821081036111cc576111cb611172565b5b50919050565b7f4e487b7100000000000000000000000000000000000000000000000000000000600052601160045260246000fd5b600061120c82610a9f565b91507fffffffffffffffffffffffffffffffffffffffffffffffffffffffffffffffff820361123e5761123d6111d2565b5b600182019050919050565b60008190508160005260206000209050919050565b60006020601f8301049050919050565b600082821b905092915050565b6000600883026112ab7fffffffffffffffffffffffffffffffffffffffffffffffffffffffffffffffff8261126e565b6112b5868361126e565b95508019841693508086168417925050509392505050565b6000819050919050565b60006112f26112ed6112e884610a9f565b6112cd565b610a9f565b9050919050565b6000819050919050565b61130c836112d7565b611320611318826112f9565b84845461127b565b825550505050565b600090565b611335611328565b611340818484611303565b505050565b5b818110156113645761135960008261132d565b600181019050611346565b5050565b601f8211156113a95761137a81611249565b6113838461125e565b81016020851015611392578190505b6113a661139e8561125e565b830182611345565b50505b505050565b600082821c905092915050565b60006113cc600019846008026113ae565b1980831691505092915050565b60006113e583836113bb565b9150826002028217905092915050565b6113fe82610c14565b67ffffffffffffffff81111561141757611416610dfa565b5b61142182546111a1565b61142c828285611368565b600060209050601f83116001811461145f576000841561144d578287015190505b61145785826113d9565b8655506114bf565b601f19841661146d86611249565b60005b8281101561149557848901518255600182019150602085019450602081019050611470565b868310156114b257848901516114ae601f8916826113bb565b8355505b6001600288020188555050505b50505050505056fea264697066735822122007cd082d84e461f6de3c99ba642b503a3b13610b228eb69efabf6c2fe42752f364736f6c63430008120033",
					"opcodes": "PUSH1 0x80 PUSH1 0x40 MSTORE PUSH1 0x1 PUSH1 0x0 SSTORE CALLVALUE DUP1 ISZERO PUSH2 0x15 JUMPI PUSH1 0x0 DUP1 REVERT JUMPDEST POP PUSH2 0x14FD DUP1 PUSH2 0x25 PUSH1 0x0 CODECOPY PUSH1 0x0 RETURN INVALID PUSH1 0x80 PUSH1 0x40 MSTORE CALLVALUE DUP1 ISZERO PUSH2 0x10 JUMPI PUSH1 0x0 DUP1 REVERT JUMPDEST POP PUSH1 0x4 CALLDATASIZE LT PUSH2 0x7D JUMPI PUSH1 0x0 CALLDATALOAD PUSH1 0xE0 SHR DUP1 PUSH4 0x9DF2505E GT PUSH2 0x5B JUMPI DUP1 PUSH4 0x9DF2505E EQ PUSH2 0xFE JUMPI DUP1 PUSH4 0xB9DB15B4 EQ PUSH2 0x11A JUMPI DUP1 PUSH4 0xCB59D430 EQ PUSH2 0x14A JUMPI DUP1 PUSH4 0xE3EBA904 EQ PUSH2 0x17E JUMPI PUSH2 0x7D JUMP JUMPDEST DUP1 PUSH4 0x83F48C96 EQ PUSH2 0x82 JUMPI DUP1 PUSH4 0x911A34FE EQ PUSH2 0xB2 JUMPI DUP1 PUSH4 0x96FCCBA4 EQ PUSH2 0xCE JUMPI JUMPDEST PUSH1 0x0 DUP1 REVERT JUMPDEST PUSH2 0x9C PUSH1 0x4 DUP1 CALLDATASIZE SUB DUP2 ADD SWAP1 PUSH2 0x97 SWAP2 SWAP1 PUSH2 0xAD5 JUMP JUMPDEST PUSH2 0x19C JUMP JUMPDEST PUSH1 0x40 MLOAD PUSH2 0xA9 SWAP2 SWAP1 PUSH2 0xB24 JUMP JUMPDEST PUSH1 0x40 MLOAD DUP1 SWAP2 SUB SWAP1 RETURN JUMPDEST PUSH2 0xCC PUSH1 0x4 DUP1 CALLDATASIZE SUB DUP2 ADD SWAP1 PUSH2 0xC7 SWAP2 SWAP1 PUSH2 0xB7B JUMP JUMPDEST PUSH2 0x1CD JUMP JUMPDEST STOP JUMPDEST PUSH2 0xE8 PUSH1 0x4 DUP1 CALLDATASIZE SUB DUP2 ADD SWAP1 PUSH2 0xE3 SWAP2 SWAP1 PUSH2 0xBBB JUMP JUMPDEST PUSH2 0x206 JUMP JUMPDEST PUSH1 0x40 MLOAD PUSH2 0xF5 SWAP2 SWAP1 PUSH2 0xDCE JUMP JUMPDEST PUSH1 0x40 MLOAD DUP1 SWAP2 SUB SWAP1 RETURN JUMPDEST PUSH2 0x118 PUSH1 0x4 DUP1 CALLDATASIZE SUB DUP2 ADD SWAP1 PUSH2 0x113 SWAP2 SWAP1 PUSH2 0xF25 JUMP JUMPDEST PUSH2 0x4FD JUMP JUMPDEST STOP JUMPDEST PUSH2 0x134 PUSH1 0x4 DUP1 CALLDATASIZE SUB DUP2 ADD SWAP1 PUSH2 0x12F SWAP2 SWAP1 PUSH2 0xFBC JUMP JUMPDEST PUSH2 0x6EB JUMP JUMPDEST PUSH1 0x40 MLOAD PUSH2 0x141 SWAP2 SWAP1 PUSH2 0x105F JUMP JUMPDEST PUSH1 0x40 MLOAD DUP1 SWAP2 SUB SWAP1 RETURN JUMPDEST PUSH2 0x164 PUSH1 0x4 DUP1 CALLDATASIZE SUB DUP2 ADD SWAP1 PUSH2 0x15F SWAP2 SWAP1 PUSH2 0xFBC JUMP JUMPDEST PUSH2 0x8A2 JUMP JUMPDEST PUSH1 0x40 MLOAD PUSH2 0x175 SWAP6 SWAP5 SWAP4 SWAP3 SWAP2 SWAP1 PUSH2 0x10E9 JUMP JUMPDEST PUSH1 0x40 MLOAD DUP1 SWAP2 SUB SWAP1 RETURN JUMPDEST PUSH2 0x186 PUSH2 0x9C0 JUMP JUMPDEST PUSH1 0x40 MLOAD PUSH2 0x193 SWAP2 SWAP1 PUSH2 0xB24 JUMP JUMPDEST PUSH1 0x40 MLOAD DUP1 SWAP2 SUB SWAP1 RETURN JUMPDEST PUSH1 0x3 PUSH1 0x20 MSTORE DUP2 PUSH1 0x0 MSTORE PUSH1 0x40 PUSH1 0x0 KECCAK256 DUP2 DUP2 SLOAD DUP2 LT PUSH2 0x1B8 JUMPI PUSH1 0x0 DUP1 REVERT JUMPDEST SWAP1 PUSH1 0x0 MSTORE PUSH1 0x20 PUSH1 0x0 KECCAK256 ADD PUSH1 0x0 SWAP2 POP SWAP2 POP POP SLOAD DUP2 JUMP JUMPDEST DUP1 PUSH1 0x2 PUSH1 0x0 DUP5 DUP2 MSTORE PUSH1 0x20 ADD SWAP1 DUP2 MSTORE PUSH1 0x20 ADD PUSH1 0x0 KECCAK256 PUSH1 0x2 ADD PUSH1 0x18 PUSH2 0x100 EXP DUP2 SLOAD DUP2 PUSH4 0xFFFFFFFF MUL NOT AND SWAP1 DUP4 PUSH4 0xFFFFFFFF AND MUL OR SWAP1 SSTORE POP POP POP JUMP JUMPDEST PUSH1 0x60 PUSH1 0x0 PUSH1 0x3 PUSH1 0x0 DUP5 PUSH20 0xFFFFFFFFFFFFFFFFFFFFFFFFFFFFFFFFFFFFFFFF AND PUSH20 0xFFFFFFFFFFFFFFFFFFFFFFFFFFFFFFFFFFFFFFFF AND DUP2 MSTORE PUSH1 0x20 ADD SWAP1 DUP2 MSTORE PUSH1 0x20 ADD PUSH1 0x0 KECCAK256 DUP1 SLOAD DUP1 PUSH1 0x20 MUL PUSH1 0x20 ADD PUSH1 0x40 MLOAD SWAP1 DUP2 ADD PUSH1 0x40 MSTORE DUP1 SWAP3 SWAP2 SWAP1 DUP2 DUP2 MSTORE PUSH1 0x20 ADD DUP3 DUP1 SLOAD DUP1 ISZERO PUSH2 0x293 JUMPI PUSH1 0x20 MUL DUP3 ADD SWAP2 SWAP1 PUSH1 0x0 MSTORE PUSH1 0x20 PUSH1 0x0 KECCAK256 SWAP1 JUMPDEST DUP2 SLOAD DUP2 MSTORE PUSH1 0x20 ADD SWAP1 PUSH1 0x1 ADD SWAP1 DUP1 DUP4 GT PUSH2 0x27F JUMPI JUMPDEST POP POP POP POP POP SWAP1 POP PUSH1 0x0 DUP2 MLOAD PUSH8 0xFFFFFFFFFFFFFFFF DUP2 GT ISZERO PUSH2 0x2B7 JUMPI PUSH2 0x2B6 PUSH2 0xDFA JUMP JUMPDEST JUMPDEST PUSH1 0x40 MLOAD SWAP1 DUP1 DUP3 MSTORE DUP1 PUSH1 0x20 MUL PUSH1 0x20 ADD DUP3 ADD PUSH1 0x40 MSTORE DUP1 ISZERO PUSH2 0x2F0 JUMPI DUP2 PUSH1 0x20 ADD JUMPDEST PUSH2 0x2DD PUSH2 0x9C6 JUMP JUMPDEST DUP2 MSTORE PUSH1 0x20 ADD SWAP1 PUSH1 0x1 SWAP1 SUB SWAP1 DUP2 PUSH2 0x2D5 JUMPI SWAP1 POP JUMPDEST POP SWAP1 POP PUSH1 0x0 JUMPDEST DUP3 MLOAD DUP2 LT ISZERO PUSH2 0x4F2 JUMPI PUSH1 0x2 PUSH1 0x0 DUP5 DUP4 DUP2 MLOAD DUP2 LT PUSH2 0x316 JUMPI PUSH2 0x315 PUSH2 0x1143 JUMP JUMPDEST JUMPDEST PUSH1 0x20 MUL PUSH1 0x20 ADD ADD MLOAD DUP2 MSTORE PUSH1 0x20 ADD SWAP1 DUP2 MSTORE PUSH1 0x20 ADD PUSH1 0x0 KECCAK256 PUSH1 0x40 MLOAD DUP1 PUSH1 0xA0 ADD PUSH1 0x40 MSTORE SWAP1 DUP2 PUSH1 0x0 DUP3 ADD DUP1 SLOAD PUSH2 0x347 SWAP1 PUSH2 0x11A1 JUMP JUMPDEST DUP1 PUSH1 0x1F ADD PUSH1 0x20 DUP1 SWAP2 DIV MUL PUSH1 0x20 ADD PUSH1 0x40 MLOAD SWAP1 DUP2 ADD PUSH1 0x40 MSTORE DUP1 SWAP3 SWAP2 SWAP1 DUP2 DUP2 MSTORE PUSH1 0x20 ADD DUP3 DUP1 SLOAD PUSH2 0x373 SWAP1 PUSH2 0x11A1 JUMP JUMPDEST DUP1 ISZERO PUSH2 0x3C0 JUMPI DUP1 PUSH1 0x1F LT PUSH2 0x395 JUMPI PUSH2 0x100 DUP1 DUP4 SLOAD DIV MUL DUP4 MSTORE SWAP2 PUSH1 0x20 ADD SWAP2 PUSH2 0x3C0 JUMP JUMPDEST DUP3 ADD SWAP2 SWAP1 PUSH1 0x0 MSTORE PUSH1 0x20 PUSH1 0x0 KECCAK256 SWAP1 JUMPDEST DUP2 SLOAD DUP2 MSTORE SWAP1 PUSH1 0x1 ADD SWAP1 PUSH1 0x20 ADD DUP1 DUP4 GT PUSH2 0x3A3 JUMPI DUP3 SWAP1 SUB PUSH1 0x1F AND DUP3 ADD SWAP2 JUMPDEST POP POP POP POP POP DUP2 MSTORE PUSH1 0x20 ADD PUSH1 0x1 DUP3 ADD PUSH1 0x0 SWAP1 SLOAD SWAP1 PUSH2 0x100 EXP SWAP1 DIV PUSH20 0xFFFFFFFFFFFFFFFFFFFFFFFFFFFFFFFFFFFFFFFF AND PUSH20 0xFFFFFFFFFFFFFFFFFFFFFFFFFFFFFFFFFFFFFFFF AND PUSH20 0xFFFFFFFFFFFFFFFFFFFFFFFFFFFFFFFFFFFFFFFF AND DUP2 MSTORE PUSH1 0x20 ADD PUSH1 0x2 DUP3 ADD PUSH1 0x0 SWAP1 SLOAD SWAP1 PUSH2 0x100 EXP SWAP1 DIV PUSH20 0xFFFFFFFFFFFFFFFFFFFFFFFFFFFFFFFFFFFFFFFF AND PUSH20 0xFFFFFFFFFFFFFFFFFFFFFFFFFFFFFFFFFFFFFFFF AND PUSH20 0xFFFFFFFFFFFFFFFFFFFFFFFFFFFFFFFFFFFFFFFF AND DUP2 MSTORE PUSH1 0x20 ADD PUSH1 0x2 DUP3 ADD PUSH1 0x14 SWAP1 SLOAD SWAP1 PUSH2 0x100 EXP SWAP1 DIV PUSH4 0xFFFFFFFF AND PUSH4 0xFFFFFFFF AND PUSH4 0xFFFFFFFF AND DUP2 MSTORE PUSH1 0x20 ADD PUSH1 0x2 DUP3 ADD PUSH1 0x18 SWAP1 SLOAD SWAP1 PUSH2 0x100 EXP SWAP1 DIV PUSH4 0xFFFFFFFF AND PUSH4 0xFFFFFFFF AND PUSH4 0xFFFFFFFF AND DUP2 MSTORE POP POP DUP3 DUP3 DUP2 MLOAD DUP2 LT PUSH2 0x4D4 JUMPI PUSH2 0x4D3 PUSH2 0x1143 JUMP JUMPDEST JUMPDEST PUSH1 0x20 MUL PUSH1 0x20 ADD ADD DUP2 SWAP1 MSTORE POP DUP1 DUP1 PUSH2 0x4EA SWAP1 PUSH2 0x1201 JUMP JUMPDEST SWAP2 POP POP PUSH2 0x2F6 JUMP JUMPDEST POP DUP1 SWAP3 POP POP POP SWAP2 SWAP1 POP JUMP JUMPDEST PUSH1 0x40 MLOAD DUP1 PUSH1 0xA0 ADD PUSH1 0x40 MSTORE DUP1 DUP7 DUP2 MSTORE PUSH1 0x20 ADD DUP6 PUSH20 0xFFFFFFFFFFFFFFFFFFFFFFFFFFFFFFFFFFFFFFFF AND DUP2 MSTORE PUSH1 0x20 ADD DUP5 PUSH20 0xFFFFFFFFFFFFFFFFFFFFFFFFFFFFFFFFFFFFFFFF AND DUP2 MSTORE PUSH1 0x20 ADD DUP4 PUSH4 0xFFFFFFFF AND DUP2 MSTORE PUSH1 0x20 ADD DUP3 PUSH4 0xFFFFFFFF AND DUP2 MSTORE POP PUSH1 0x2 PUSH1 0x0 DUP1 SLOAD DUP2 MSTORE PUSH1 0x20 ADD SWAP1 DUP2 MSTORE PUSH1 0x20 ADD PUSH1 0x0 KECCAK256 PUSH1 0x0 DUP3 ADD MLOAD DUP2 PUSH1 0x0 ADD SWAP1 DUP2 PUSH2 0x585 SWAP2 SWAP1 PUSH2 0x13F5 JUMP JUMPDEST POP PUSH1 0x20 DUP3 ADD MLOAD DUP2 PUSH1 0x1 ADD PUSH1 0x0 PUSH2 0x100 EXP DUP2 SLOAD DUP2 PUSH20 0xFFFFFFFFFFFFFFFFFFFFFFFFFFFFFFFFFFFFFFFF MUL NOT AND SWAP1 DUP4 PUSH20 0xFFFFFFFFFFFFFFFFFFFFFFFFFFFFFFFFFFFFFFFF AND MUL OR SWAP1 SSTORE POP PUSH1 0x40 DUP3 ADD MLOAD DUP2 PUSH1 0x2 ADD PUSH1 0x0 PUSH2 0x100 EXP DUP2 SLOAD DUP2 PUSH20 0xFFFFFFFFFFFFFFFFFFFFFFFFFFFFFFFFFFFFFFFF MUL NOT AND SWAP1 DUP4 PUSH20 0xFFFFFFFFFFFFFFFFFFFFFFFFFFFFFFFFFFFFFFFF AND MUL OR SWAP1 SSTORE POP PUSH1 0x60 DUP3 ADD MLOAD DUP2 PUSH1 0x2 ADD PUSH1 0x14 PUSH2 0x100 EXP DUP2 SLOAD DUP2 PUSH4 0xFFFFFFFF MUL NOT AND SWAP1 DUP4 PUSH4 0xFFFFFFFF AND MUL OR SWAP1 SSTORE POP PUSH1 0x80 DUP3 ADD MLOAD DUP2 PUSH1 0x2 ADD PUSH1 0x18 PUSH2 0x100 EXP DUP2 SLOAD DUP2 PUSH4 0xFFFFFFFF MUL NOT AND SWAP1 DUP4 PUSH4 0xFFFFFFFF AND MUL OR SWAP1 SSTORE POP SWAP1 POP POP PUSH1 0x3 PUSH1 0x0 DUP5 PUSH20 0xFFFFFFFFFFFFFFFFFFFFFFFFFFFFFFFFFFFFFFFF AND PUSH20 0xFFFFFFFFFFFFFFFFFFFFFFFFFFFFFFFFFFFFFFFF AND DUP2 MSTORE PUSH1 0x20 ADD SWAP1 DUP2 MSTORE PUSH1 0x20 ADD PUSH1 0x0 KECCAK256 PUSH1 0x0 SLOAD SWAP1 DUP1 PUSH1 0x1 DUP2 SLOAD ADD DUP1 DUP3 SSTORE DUP1 SWAP2 POP POP PUSH1 0x1 SWAP1 SUB SWAP1 PUSH1 0x0 MSTORE PUSH1 0x20 PUSH1 0x0 KECCAK256 ADD PUSH1 0x0 SWAP1 SWAP2 SWAP1 SWAP2 SWAP1 SWAP2 POP SSTORE PUSH1 0x0 DUP1 DUP2 SLOAD DUP1 SWAP3 SWAP2 SWAP1 PUSH2 0x6DF SWAP1 PUSH2 0x1201 JUMP JUMPDEST SWAP2 SWAP1 POP SSTORE POP POP POP POP POP POP JUMP JUMPDEST PUSH2 0x6F3 PUSH2 0x9C6 JUMP JUMPDEST PUSH1 0x2 PUSH1 0x0 DUP4 DUP2 MSTORE PUSH1 0x20 ADD SWAP1 DUP2 MSTORE PUSH1 0x20 ADD PUSH1 0x0 KECCAK256 PUSH1 0x40 MLOAD DUP1 PUSH1 0xA0 ADD PUSH1 0x40 MSTORE SWAP1 DUP2 PUSH1 0x0 DUP3 ADD DUP1 SLOAD PUSH2 0x721 SWAP1 PUSH2 0x11A1 JUMP JUMPDEST DUP1 PUSH1 0x1F ADD PUSH1 0x20 DUP1 SWAP2 DIV MUL PUSH1 0x20 ADD PUSH1 0x40 MLOAD SWAP1 DUP2 ADD PUSH1 0x40 MSTORE DUP1 SWAP3 SWAP2 SWAP1 DUP2 DUP2 MSTORE PUSH1 0x20 ADD DUP3 DUP1 SLOAD PUSH2 0x74D SWAP1 PUSH2 0x11A1 JUMP JUMPDEST DUP1 ISZERO PUSH2 0x79A JUMPI DUP1 PUSH1 0x1F LT PUSH2 0x76F JUMPI PUSH2 0x100 DUP1 DUP4 SLOAD DIV MUL DUP4 MSTORE SWAP2 PUSH1 0x20 ADD SWAP2 PUSH2 0x79A JUMP JUMPDEST DUP3 ADD SWAP2 SWAP1 PUSH1 0x0 MSTORE PUSH1 0x20 PUSH1 0x0 KECCAK256 SWAP1 JUMPDEST DUP2 SLOAD DUP2 MSTORE SWAP1 PUSH1 0x1 ADD SWAP1 PUSH1 0x20 ADD DUP1 DUP4 GT PUSH2 0x77D JUMPI DUP3 SWAP1 SUB PUSH1 0x1F AND DUP3 ADD SWAP2 JUMPDEST POP POP POP POP POP DUP2 MSTORE PUSH1 0x20 ADD PUSH1 0x1 DUP3 ADD PUSH1 0x0 SWAP1 SLOAD SWAP1 PUSH2 0x100 EXP SWAP1 DIV PUSH20 0xFFFFFFFFFFFFFFFFFFFFFFFFFFFFFFFFFFFFFFFF AND PUSH20 0xFFFFFFFFFFFFFFFFFFFFFFFFFFFFFFFFFFFFFFFF AND PUSH20 0xFFFFFFFFFFFFFFFFFFFFFFFFFFFFFFFFFFFFFFFF AND DUP2 MSTORE PUSH1 0x20 ADD PUSH1 0x2 DUP3 ADD PUSH1 0x0 SWAP1 SLOAD SWAP1 PUSH2 0x100 EXP SWAP1 DIV PUSH20 0xFFFFFFFFFFFFFFFFFFFFFFFFFFFFFFFFFFFFFFFF AND PUSH20 0xFFFFFFFFFFFFFFFFFFFFFFFFFFFFFFFFFFFFFFFF AND PUSH20 0xFFFFFFFFFFFFFFFFFFFFFFFFFFFFFFFFFFFFFFFF AND DUP2 MSTORE PUSH1 0x20 ADD PUSH1 0x2 DUP3 ADD PUSH1 0x14 SWAP1 SLOAD SWAP1 PUSH2 0x100 EXP SWAP1 DIV PUSH4 0xFFFFFFFF AND PUSH4 0xFFFFFFFF AND PUSH4 0xFFFFFFFF AND DUP2 MSTORE PUSH1 0x20 ADD PUSH1 0x2 DUP3 ADD PUSH1 0x18 SWAP1 SLOAD SWAP1 PUSH2 0x100 EXP SWAP1 DIV PUSH4 0xFFFFFFFF AND PUSH4 0xFFFFFFFF AND PUSH4 0xFFFFFFFF AND DUP2 MSTORE POP POP SWAP1 POP SWAP2 SWAP1 POP JUMP JUMPDEST PUSH1 0x2 PUSH1 0x20 MSTORE DUP1 PUSH1 0x0 MSTORE PUSH1 0x40 PUSH1 0x0 KECCAK256 PUSH1 0x0 SWAP2 POP SWAP1 POP DUP1 PUSH1 0x0 ADD DUP1 SLOAD PUSH2 0x8C5 SWAP1 PUSH2 0x11A1 JUMP JUMPDEST DUP1 PUSH1 0x1F ADD PUSH1 0x20 DUP1 SWAP2 DIV MUL PUSH1 0x20 ADD PUSH1 0x40 MLOAD SWAP1 DUP2 ADD PUSH1 0x40 MSTORE DUP1 SWAP3 SWAP2 SWAP1 DUP2 DUP2 MSTORE PUSH1 0x20 ADD DUP3 DUP1 SLOAD PUSH2 0x8F1 SWAP1 PUSH2 0x11A1 JUMP JUMPDEST DUP1 ISZERO PUSH2 0x93E JUMPI DUP1 PUSH1 0x1F LT PUSH2 0x913 JUMPI PUSH2 0x100 DUP1 DUP4 SLOAD DIV MUL DUP4 MSTORE SWAP2 PUSH1 0x20 ADD SWAP2 PUSH2 0x93E JUMP JUMPDEST DUP3 ADD SWAP2 SWAP1 PUSH1 0x0 MSTORE PUSH1 0x20 PUSH1 0x0 KECCAK256 SWAP1 JUMPDEST DUP2 SLOAD DUP2 MSTORE SWAP1 PUSH1 0x1 ADD SWAP1 PUSH1 0x20 ADD DUP1 DUP4 GT PUSH2 0x921 JUMPI DUP3 SWAP1 SUB PUSH1 0x1F AND DUP3 ADD SWAP2 JUMPDEST POP POP POP POP POP SWAP1 DUP1 PUSH1 0x1 ADD PUSH1 0x0 SWAP1 SLOAD SWAP1 PUSH2 0x100 EXP SWAP1 DIV PUSH20 0xFFFFFFFFFFFFFFFFFFFFFFFFFFFFFFFFFFFFFFFF AND SWAP1 DUP1 PUSH1 0x2 ADD PUSH1 0x0 SWAP1 SLOAD SWAP1 PUSH2 0x100 EXP SWAP1 DIV PUSH20 0xFFFFFFFFFFFFFFFFFFFFFFFFFFFFFFFFFFFFFFFF AND SWAP1 DUP1 PUSH1 0x2 ADD PUSH1 0x14 SWAP1 SLOAD SWAP1 PUSH2 0x100 EXP SWAP1 DIV PUSH4 0xFFFFFFFF AND SWAP1 DUP1 PUSH1 0x2 ADD PUSH1 0x18 SWAP1 SLOAD SWAP1 PUSH2 0x100 EXP SWAP1 DIV PUSH4 0xFFFFFFFF AND SWAP1 POP DUP6 JUMP JUMPDEST PUSH1 0x0 SLOAD DUP2 JUMP JUMPDEST PUSH1 0x40 MLOAD DUP1 PUSH1 0xA0 ADD PUSH1 0x40 MSTORE DUP1 PUSH1 0x60 DUP2 MSTORE PUSH1 0x20 ADD PUSH1 0x0 PUSH20 0xFFFFFFFFFFFFFFFFFFFFFFFFFFFFFFFFFFFFFFFF AND DUP2 MSTORE PUSH1 0x20 ADD PUSH1 0x0 PUSH20 0xFFFFFFFFFFFFFFFFFFFFFFFFFFFFFFFFFFFFFFFF AND DUP2 MSTORE PUSH1 0x20 ADD PUSH1 0x0 PUSH4 0xFFFFFFFF AND DUP2 MSTORE PUSH1 0x20 ADD PUSH1 0x0 PUSH4 0xFFFFFFFF AND DUP2 MSTORE POP SWAP1 JUMP JUMPDEST PUSH1 0x0 PUSH1 0x40 MLOAD SWAP1 POP SWAP1 JUMP JUMPDEST PUSH1 0x0 DUP1 REVERT JUMPDEST PUSH1 0x0 DUP1 REVERT JUMPDEST PUSH1 0x0 PUSH20 0xFFFFFFFFFFFFFFFFFFFFFFFFFFFFFFFFFFFFFFFF DUP3 AND SWAP1 POP SWAP2 SWAP1 POP JUMP JUMPDEST PUSH1 0x0 PUSH2 0xA6C DUP3 PUSH2 0xA41 JUMP JUMPDEST SWAP1 POP SWAP2 SWAP1 POP JUMP JUMPDEST PUSH2 0xA7C DUP2 PUSH2 0xA61 JUMP JUMPDEST DUP2 EQ PUSH2 0xA87 JUMPI PUSH1 0x0 DUP1 REVERT JUMPDEST POP JUMP JUMPDEST PUSH1 0x0 DUP2 CALLDATALOAD SWAP1 POP PUSH2 0xA99 DUP2 PUSH2 0xA73 JUMP JUMPDEST SWAP3 SWAP2 POP POP JUMP JUMPDEST PUSH1 0x0 DUP2 SWAP1 POP SWAP2 SWAP1 POP JUMP JUMPDEST PUSH2 0xAB2 DUP2 PUSH2 0xA9F JUMP JUMPDEST DUP2 EQ PUSH2 0xABD JUMPI PUSH1 0x0 DUP1 REVERT JUMPDEST POP JUMP JUMPDEST PUSH1 0x0 DUP2 CALLDATALOAD SWAP1 POP PUSH2 0xACF DUP2 PUSH2 0xAA9 JUMP JUMPDEST SWAP3 SWAP2 POP POP JUMP JUMPDEST PUSH1 0x0 DUP1 PUSH1 0x40 DUP4 DUP6 SUB SLT ISZERO PUSH2 0xAEC JUMPI PUSH2 0xAEB PUSH2 0xA37 JUMP JUMPDEST JUMPDEST PUSH1 0x0 PUSH2 0xAFA DUP6 DUP3 DUP7 ADD PUSH2 0xA8A JUMP JUMPDEST SWAP3 POP POP PUSH1 0x20 PUSH2 0xB0B DUP6 DUP3 DUP7 ADD PUSH2 0xAC0 JUMP JUMPDEST SWAP2 POP POP SWAP3 POP SWAP3 SWAP1 POP JUMP JUMPDEST PUSH2 0xB1E DUP2 PUSH2 0xA9F JUMP JUMPDEST DUP3 MSTORE POP POP JUMP JUMPDEST PUSH1 0x0 PUSH1 0x20 DUP3 ADD SWAP1 POP PUSH2 0xB39 PUSH1 0x0 DUP4 ADD DUP5 PUSH2 0xB15 JUMP JUMPDEST SWAP3 SWAP2 POP POP JUMP JUMPDEST PUSH1 0x0 PUSH4 0xFFFFFFFF DUP3 AND SWAP1 POP SWAP2 SWAP1 POP JUMP JUMPDEST PUSH2 0xB58 DUP2 PUSH2 0xB3F JUMP JUMPDEST DUP2 EQ PUSH2 0xB63 JUMPI PUSH1 0x0 DUP1 REVERT JUMPDEST POP JUMP JUMPDEST PUSH1 0x0 DUP2 CALLDATALOAD SWAP1 POP PUSH2 0xB75 DUP2 PUSH2 0xB4F JUMP JUMPDEST SWAP3 SWAP2 POP POP JUMP JUMPDEST PUSH1 0x0 DUP1 PUSH1 0x40 DUP4 DUP6 SUB SLT ISZERO PUSH2 0xB92 JUMPI PUSH2 0xB91 PUSH2 0xA37 JUMP JUMPDEST JUMPDEST PUSH1 0x0 PUSH2 0xBA0 DUP6 DUP3 DUP7 ADD PUSH2 0xAC0 JUMP JUMPDEST SWAP3 POP POP PUSH1 0x20 PUSH2 0xBB1 DUP6 DUP3 DUP7 ADD PUSH2 0xB66 JUMP JUMPDEST SWAP2 POP POP SWAP3 POP SWAP3 SWAP1 POP JUMP JUMPDEST PUSH1 0x0 PUSH1 0x20 DUP3 DUP5 SUB SLT ISZERO PUSH2 0xBD1 JUMPI PUSH2 0xBD0 PUSH2 0xA37 JUMP JUMPDEST JUMPDEST PUSH1 0x0 PUSH2 0xBDF DUP5 DUP3 DUP6 ADD PUSH2 0xA8A JUMP JUMPDEST SWAP2 POP POP SWAP3 SWAP2 POP POP JUMP JUMPDEST PUSH1 0x0 DUP2 MLOAD SWAP1 POP SWAP2 SWAP1 POP JUMP JUMPDEST PUSH1 0x0 DUP3 DUP3 MSTORE PUSH1 0x20 DUP3 ADD SWAP1 POP SWAP3 SWAP2 POP POP JUMP JUMPDEST PUSH1 0x0 DUP2 SWAP1 POP PUSH1 0x20 DUP3 ADD SWAP1 POP SWAP2 SWAP1 POP JUMP JUMPDEST PUSH1 0x0 DUP2 MLOAD SWAP1 POP SWAP2 SWAP1 POP JUMP JUMPDEST PUSH1 0x0 DUP3 DUP3 MSTORE PUSH1 0x20 DUP3 ADD SWAP1 POP SWAP3 SWAP2 POP POP JUMP JUMPDEST PUSH1 0x0 JUMPDEST DUP4 DUP2 LT ISZERO PUSH2 0xC4E JUMPI DUP1 DUP3 ADD MLOAD DUP2 DUP5 ADD MSTORE PUSH1 0x20 DUP2 ADD SWAP1 POP PUSH2 0xC33 JUMP JUMPDEST PUSH1 0x0 DUP5 DUP5 ADD MSTORE POP POP POP POP JUMP JUMPDEST PUSH1 0x0 PUSH1 0x1F NOT PUSH1 0x1F DUP4 ADD AND SWAP1 POP SWAP2 SWAP1 POP JUMP JUMPDEST PUSH1 0x0 PUSH2 0xC76 DUP3 PUSH2 0xC14 JUMP JUMPDEST PUSH2 0xC80 DUP2 DUP6 PUSH2 0xC1F JUMP JUMPDEST SWAP4 POP PUSH2 0xC90 DUP2 DUP6 PUSH1 0x20 DUP7 ADD PUSH2 0xC30 JUMP JUMPDEST PUSH2 0xC99 DUP2 PUSH2 0xC5A JUMP JUMPDEST DUP5 ADD SWAP2 POP POP SWAP3 SWAP2 POP POP JUMP JUMPDEST PUSH2 0xCAD DUP2 PUSH2 0xA61 JUMP JUMPDEST DUP3 MSTORE POP POP JUMP JUMPDEST PUSH2 0xCBC DUP2 PUSH2 0xB3F JUMP JUMPDEST DUP3 MSTORE POP POP JUMP JUMPDEST PUSH1 0x0 PUSH1 0xA0 DUP4 ADD PUSH1 0x0 DUP4 ADD MLOAD DUP5 DUP3 SUB PUSH1 0x0 DUP7 ADD MSTORE PUSH2 0xCDF DUP3 DUP3 PUSH2 0xC6B JUMP JUMPDEST SWAP2 POP POP PUSH1 0x20 DUP4 ADD MLOAD PUSH2 0xCF4 PUSH1 0x20 DUP7 ADD DUP3 PUSH2 0xCA4 JUMP JUMPDEST POP PUSH1 0x40 DUP4 ADD MLOAD PUSH2 0xD07 PUSH1 0x40 DUP7 ADD DUP3 PUSH2 0xCA4 JUMP JUMPDEST POP PUSH1 0x60 DUP4 ADD MLOAD PUSH2 0xD1A PUSH1 0x60 DUP7 ADD DUP3 PUSH2 0xCB3 JUMP JUMPDEST POP PUSH1 0x80 DUP4 ADD MLOAD PUSH2 0xD2D PUSH1 0x80 DUP7 ADD DUP3 PUSH2 0xCB3 JUMP JUMPDEST POP DUP1 SWAP2 POP POP SWAP3 SWAP2 POP POP JUMP JUMPDEST PUSH1 0x0 PUSH2 0xD44 DUP4 DUP4 PUSH2 0xCC2 JUMP JUMPDEST SWAP1 POP SWAP3 SWAP2 POP POP JUMP JUMPDEST PUSH1 0x0 PUSH1 0x20 DUP3 ADD SWAP1 POP SWAP2 SWAP1 POP JUMP JUMPDEST PUSH1 0x0 PUSH2 0xD64 DUP3 PUSH2 0xBE8 JUMP JUMPDEST PUSH2 0xD6E DUP2 DUP6 PUSH2 0xBF3 JUMP JUMPDEST SWAP4 POP DUP4 PUSH1 0x20 DUP3 MUL DUP6 ADD PUSH2 0xD80 DUP6 PUSH2 0xC04 JUMP JUMPDEST DUP1 PUSH1 0x0 JUMPDEST DUP6 DUP2 LT ISZERO PUSH2 0xDBC JUMPI DUP5 DUP5 SUB DUP10 MSTORE DUP2 MLOAD PUSH2 0xD9D DUP6 DUP3 PUSH2 0xD38 JUMP JUMPDEST SWAP5 POP PUSH2 0xDA8 DUP4 PUSH2 0xD4C JUMP JUMPDEST SWAP3 POP PUSH1 0x20 DUP11 ADD SWAP10 POP POP PUSH1 0x1 DUP2 ADD SWAP1 POP PUSH2 0xD84 JUMP JUMPDEST POP DUP3 SWAP8 POP DUP8 SWAP6 POP POP POP POP POP POP SWAP3 SWAP2 POP POP JUMP JUMPDEST PUSH1 0x0 PUSH1 0x20 DUP3 ADD SWAP1 POP DUP2 DUP2 SUB PUSH1 0x0 DUP4 ADD MSTORE PUSH2 0xDE8 DUP2 DUP5 PUSH2 0xD59 JUMP JUMPDEST SWAP1 POP SWAP3 SWAP2 POP POP JUMP JUMPDEST PUSH1 0x0 DUP1 REVERT JUMPDEST PUSH1 0x0 DUP1 REVERT JUMPDEST PUSH32 0x4E487B7100000000000000000000000000000000000000000000000000000000 PUSH1 0x0 MSTORE PUSH1 0x41 PUSH1 0x4 MSTORE PUSH1 0x24 PUSH1 0x0 REVERT JUMPDEST PUSH2 0xE32 DUP3 PUSH2 0xC5A JUMP JUMPDEST DUP2 ADD DUP2 DUP2 LT PUSH8 0xFFFFFFFFFFFFFFFF DUP3 GT OR ISZERO PUSH2 0xE51 JUMPI PUSH2 0xE50 PUSH2 0xDFA JUMP JUMPDEST JUMPDEST DUP1 PUSH1 0x40 MSTORE POP POP POP JUMP JUMPDEST PUSH1 0x0 PUSH2 0xE64 PUSH2 0xA2D JUMP JUMPDEST SWAP1 POP PUSH2 0xE70 DUP3 DUP3 PUSH2 0xE29 JUMP JUMPDEST SWAP2 SWAP1 POP JUMP JUMPDEST PUSH1 0x0 PUSH8 0xFFFFFFFFFFFFFFFF DUP3 GT ISZERO PUSH2 0xE90 JUMPI PUSH2 0xE8F PUSH2 0xDFA JUMP JUMPDEST JUMPDEST PUSH2 0xE99 DUP3 PUSH2 0xC5A JUMP JUMPDEST SWAP1 POP PUSH1 0x20 DUP2 ADD SWAP1 POP SWAP2 SWAP1 POP JUMP JUMPDEST DUP3 DUP2 DUP4 CALLDATACOPY PUSH1 0x0 DUP4 DUP4 ADD MSTORE POP POP POP JUMP JUMPDEST PUSH1 0x0 PUSH2 0xEC8 PUSH2 0xEC3 DUP5 PUSH2 0xE75 JUMP JUMPDEST PUSH2 0xE5A JUMP JUMPDEST SWAP1 POP DUP3 DUP2 MSTORE PUSH1 0x20 DUP2 ADD DUP5 DUP5 DUP5 ADD GT ISZERO PUSH2 0xEE4 JUMPI PUSH2 0xEE3 PUSH2 0xDF5 JUMP JUMPDEST JUMPDEST PUSH2 0xEEF DUP5 DUP3 DUP6 PUSH2 0xEA6 JUMP JUMPDEST POP SWAP4 SWAP3 POP POP POP JUMP JUMPDEST PUSH1 0x0 DUP3 PUSH1 0x1F DUP4 ADD SLT PUSH2 0xF0C JUMPI PUSH2 0xF0B PUSH2 0xDF0 JUMP JUMPDEST JUMPDEST DUP2 CALLDATALOAD PUSH2 0xF1C DUP5 DUP3 PUSH1 0x20 DUP7 ADD PUSH2 0xEB5 JUMP JUMPDEST SWAP2 POP POP SWAP3 SWAP2 POP POP JUMP JUMPDEST PUSH1 0x0 DUP1 PUSH1 0x0 DUP1 PUSH1 0x0 PUSH1 0xA0 DUP7 DUP9 SUB SLT ISZERO PUSH2 0xF41 JUMPI PUSH2 0xF40 PUSH2 0xA37 JUMP JUMPDEST JUMPDEST PUSH1 0x0 DUP7 ADD CALLDATALOAD PUSH8 0xFFFFFFFFFFFFFFFF DUP2 GT ISZERO PUSH2 0xF5F JUMPI PUSH2 0xF5E PUSH2 0xA3C JUMP JUMPDEST JUMPDEST PUSH2 0xF6B DUP9 DUP3 DUP10 ADD PUSH2 0xEF7 JUMP JUMPDEST SWAP6 POP POP PUSH1 0x20 PUSH2 0xF7C DUP9 DUP3 DUP10 ADD PUSH2 0xA8A JUMP JUMPDEST SWAP5 POP POP PUSH1 0x40 PUSH2 0xF8D DUP9 DUP3 DUP10 ADD PUSH2 0xA8A JUMP JUMPDEST SWAP4 POP POP PUSH1 0x60 PUSH2 0xF9E DUP9 DUP3 DUP10 ADD PUSH2 0xB66 JUMP JUMPDEST SWAP3 POP POP PUSH1 0x80 PUSH2 0xFAF DUP9 DUP3 DUP10 ADD PUSH2 0xB66 JUMP JUMPDEST SWAP2 POP POP SWAP3 SWAP6 POP SWAP3 SWAP6 SWAP1 SWAP4 POP JUMP JUMPDEST PUSH1 0x0 PUSH1 0x20 DUP3 DUP5 SUB SLT ISZERO PUSH2 0xFD2 JUMPI PUSH2 0xFD1 PUSH2 0xA37 JUMP JUMPDEST JUMPDEST PUSH1 0x0 PUSH2 0xFE0 DUP5 DUP3 DUP6 ADD PUSH2 0xAC0 JUMP JUMPDEST SWAP2 POP POP SWAP3 SWAP2 POP POP JUMP JUMPDEST PUSH1 0x0 PUSH1 0xA0 DUP4 ADD PUSH1 0x0 DUP4 ADD MLOAD DUP5 DUP3 SUB PUSH1 0x0 DUP7 ADD MSTORE PUSH2 0x1006 DUP3 DUP3 PUSH2 0xC6B JUMP JUMPDEST SWAP2 POP POP PUSH1 0x20 DUP4 ADD MLOAD PUSH2 0x101B PUSH1 0x20 DUP7 ADD DUP3 PUSH2 0xCA4 JUMP JUMPDEST POP PUSH1 0x40 DUP4 ADD MLOAD PUSH2 0x102E PUSH1 0x40 DUP7 ADD DUP3 PUSH2 0xCA4 JUMP JUMPDEST POP PUSH1 0x60 DUP4 ADD MLOAD PUSH2 0x1041 PUSH1 0x60 DUP7 ADD DUP3 PUSH2 0xCB3 JUMP JUMPDEST POP PUSH1 0x80 DUP4 ADD MLOAD PUSH2 0x1054 PUSH1 0x80 DUP7 ADD DUP3 PUSH2 0xCB3 JUMP JUMPDEST POP DUP1 SWAP2 POP POP SWAP3 SWAP2 POP POP JUMP JUMPDEST PUSH1 0x0 PUSH1 0x20 DUP3 ADD SWAP1 POP DUP2 DUP2 SUB PUSH1 0x0 DUP4 ADD MSTORE PUSH2 0x1079 DUP2 DUP5 PUSH2 0xFE9 JUMP JUMPDEST SWAP1 POP SWAP3 SWAP2 POP POP JUMP JUMPDEST PUSH1 0x0 DUP3 DUP3 MSTORE PUSH1 0x20 DUP3 ADD SWAP1 POP SWAP3 SWAP2 POP POP JUMP JUMPDEST PUSH1 0x0 PUSH2 0x109D DUP3 PUSH2 0xC14 JUMP JUMPDEST PUSH2 0x10A7 DUP2 DUP6 PUSH2 0x1081 JUMP JUMPDEST SWAP4 POP PUSH2 0x10B7 DUP2 DUP6 PUSH1 0x20 DUP7 ADD PUSH2 0xC30 JUMP JUMPDEST PUSH2 0x10C0 DUP2 PUSH2 0xC5A JUMP JUMPDEST DUP5 ADD SWAP2 POP POP SWAP3 SWAP2 POP POP JUMP JUMPDEST PUSH2 0x10D4 DUP2 PUSH2 0xA61 JUMP JUMPDEST DUP3 MSTORE POP POP JUMP JUMPDEST PUSH2 0x10E3 DUP2 PUSH2 0xB3F JUMP JUMPDEST DUP3 MSTORE POP POP JUMP JUMPDEST PUSH1 0x0 PUSH1 0xA0 DUP3 ADD SWAP1 POP DUP2 DUP2 SUB PUSH1 0x0 DUP4 ADD MSTORE PUSH2 0x1103 DUP2 DUP9 PUSH2 0x1092 JUMP JUMPDEST SWAP1 POP PUSH2 0x1112 PUSH1 0x20 DUP4 ADD DUP8 PUSH2 0x10CB JUMP JUMPDEST PUSH2 0x111F PUSH1 0x40 DUP4 ADD DUP7 PUSH2 0x10CB JUMP JUMPDEST PUSH2 0x112C PUSH1 0x60 DUP4 ADD DUP6 PUSH2 0x10DA JUMP JUMPDEST PUSH2 0x1139 PUSH1 0x80 DUP4 ADD DUP5 PUSH2 0x10DA JUMP JUMPDEST SWAP7 SWAP6 POP POP POP POP POP POP JUMP JUMPDEST PUSH32 0x4E487B7100000000000000000000000000000000000000000000000000000000 PUSH1 0x0 MSTORE PUSH1 0x32 PUSH1 0x4 MSTORE PUSH1 0x24 PUSH1 0x0 REVERT JUMPDEST PUSH32 0x4E487B7100000000000000000000000000000000000000000000000000000000 PUSH1 0x0 MSTORE PUSH1 0x22 PUSH1 0x4 MSTORE PUSH1 0x24 PUSH1 0x0 REVERT JUMPDEST PUSH1 0x0 PUSH1 0x2 DUP3 DIV SWAP1 POP PUSH1 0x1 DUP3 AND DUP1 PUSH2 0x11B9 JUMPI PUSH1 0x7F DUP3 AND SWAP2 POP JUMPDEST PUSH1 0x20 DUP3 LT DUP2 SUB PUSH2 0x11CC JUMPI PUSH2 0x11CB PUSH2 0x1172 JUMP JUMPDEST JUMPDEST POP SWAP2 SWAP1 POP JUMP JUMPDEST PUSH32 0x4E487B7100000000000000000000000000000000000000000000000000000000 PUSH1 0x0 MSTORE PUSH1 0x11 PUSH1 0x4 MSTORE PUSH1 0x24 PUSH1 0x0 REVERT JUMPDEST PUSH1 0x0 PUSH2 0x120C DUP3 PUSH2 0xA9F JUMP JUMPDEST SWAP2 POP PUSH32 0xFFFFFFFFFFFFFFFFFFFFFFFFFFFFFFFFFFFFFFFFFFFFFFFFFFFFFFFFFFFFFFFF DUP3 SUB PUSH2 0x123E JUMPI PUSH2 0x123D PUSH2 0x11D2 JUMP JUMPDEST JUMPDEST PUSH1 0x1 DUP3 ADD SWAP1 POP SWAP2 SWAP1 POP JUMP JUMPDEST PUSH1 0x0 DUP2 SWAP1 POP DUP2 PUSH1 0x0 MSTORE PUSH1 0x20 PUSH1 0x0 KECCAK256 SWAP1 POP SWAP2 SWAP1 POP JUMP JUMPDEST PUSH1 0x0 PUSH1 0x20 PUSH1 0x1F DUP4 ADD DIV SWAP1 POP SWAP2 SWAP1 POP JUMP JUMPDEST PUSH1 0x0 DUP3 DUP3 SHL SWAP1 POP SWAP3 SWAP2 POP POP JUMP JUMPDEST PUSH1 0x0 PUSH1 0x8 DUP4 MUL PUSH2 0x12AB PUSH32 0xFFFFFFFFFFFFFFFFFFFFFFFFFFFFFFFFFFFFFFFFFFFFFFFFFFFFFFFFFFFFFFFF DUP3 PUSH2 0x126E JUMP JUMPDEST PUSH2 0x12B5 DUP7 DUP4 PUSH2 0x126E JUMP JUMPDEST SWAP6 POP DUP1 NOT DUP5 AND SWAP4 POP DUP1 DUP7 AND DUP5 OR SWAP3 POP POP POP SWAP4 SWAP3 POP POP POP JUMP JUMPDEST PUSH1 0x0 DUP2 SWAP1 POP SWAP2 SWAP1 POP JUMP JUMPDEST PUSH1 0x0 PUSH2 0x12F2 PUSH2 0x12ED PUSH2 0x12E8 DUP5 PUSH2 0xA9F JUMP JUMPDEST PUSH2 0x12CD JUMP JUMPDEST PUSH2 0xA9F JUMP JUMPDEST SWAP1 POP SWAP2 SWAP1 POP JUMP JUMPDEST PUSH1 0x0 DUP2 SWAP1 POP SWAP2 SWAP1 POP JUMP JUMPDEST PUSH2 0x130C DUP4 PUSH2 0x12D7 JUMP JUMPDEST PUSH2 0x1320 PUSH2 0x1318 DUP3 PUSH2 0x12F9 JUMP JUMPDEST DUP5 DUP5 SLOAD PUSH2 0x127B JUMP JUMPDEST DUP3 SSTORE POP POP POP POP JUMP JUMPDEST PUSH1 0x0 SWAP1 JUMP JUMPDEST PUSH2 0x1335 PUSH2 0x1328 JUMP JUMPDEST PUSH2 0x1340 DUP2 DUP5 DUP5 PUSH2 0x1303 JUMP JUMPDEST POP POP POP JUMP JUMPDEST JUMPDEST DUP2 DUP2 LT ISZERO PUSH2 0x1364 JUMPI PUSH2 0x1359 PUSH1 0x0 DUP3 PUSH2 0x132D JUMP JUMPDEST PUSH1 0x1 DUP2 ADD SWAP1 POP PUSH2 0x1346 JUMP JUMPDEST POP POP JUMP JUMPDEST PUSH1 0x1F DUP3 GT ISZERO PUSH2 0x13A9 JUMPI PUSH2 0x137A DUP2 PUSH2 0x1249 JUMP JUMPDEST PUSH2 0x1383 DUP5 PUSH2 0x125E JUMP JUMPDEST DUP2 ADD PUSH1 0x20 DUP6 LT ISZERO PUSH2 0x1392 JUMPI DUP2 SWAP1 POP JUMPDEST PUSH2 0x13A6 PUSH2 0x139E DUP6 PUSH2 0x125E JUMP JUMPDEST DUP4 ADD DUP3 PUSH2 0x1345 JUMP JUMPDEST POP POP JUMPDEST POP POP POP JUMP JUMPDEST PUSH1 0x0 DUP3 DUP3 SHR SWAP1 POP SWAP3 SWAP2 POP POP JUMP JUMPDEST PUSH1 0x0 PUSH2 0x13CC PUSH1 0x0 NOT DUP5 PUSH1 0x8 MUL PUSH2 0x13AE JUMP JUMPDEST NOT DUP1 DUP4 AND SWAP2 POP POP SWAP3 SWAP2 POP POP JUMP JUMPDEST PUSH1 0x0 PUSH2 0x13E5 DUP4 DUP4 PUSH2 0x13BB JUMP JUMPDEST SWAP2 POP DUP3 PUSH1 0x2 MUL DUP3 OR SWAP1 POP SWAP3 SWAP2 POP POP JUMP JUMPDEST PUSH2 0x13FE DUP3 PUSH2 0xC14 JUMP JUMPDEST PUSH8 0xFFFFFFFFFFFFFFFF DUP2 GT ISZERO PUSH2 0x1417 JUMPI PUSH2 0x1416 PUSH2 0xDFA JUMP JUMPDEST JUMPDEST PUSH2 0x1421 DUP3 SLOAD PUSH2 0x11A1 JUMP JUMPDEST PUSH2 0x142C DUP3 DUP3 DUP6 PUSH2 0x1368 JUMP JUMPDEST PUSH1 0x0 PUSH1 0x20 SWAP1 POP PUSH1 0x1F DUP4 GT PUSH1 0x1 DUP2 EQ PUSH2 0x145F JUMPI PUSH1 0x0 DUP5 ISZERO PUSH2 0x144D JUMPI DUP3 DUP8 ADD MLOAD SWAP1 POP JUMPDEST PUSH2 0x1457 DUP6 DUP3 PUSH2 0x13D9 JUMP JUMPDEST DUP7 SSTORE POP PUSH2 0x14BF JUMP JUMPDEST PUSH1 0x1F NOT DUP5 AND PUSH2 0x146D DUP7 PUSH2 0x1249 JUMP JUMPDEST PUSH1 0x0 JUMPDEST DUP3 DUP2 LT ISZERO PUSH2 0x1495 JUMPI DUP5 DUP10 ADD MLOAD DUP3 SSTORE PUSH1 0x1 DUP3 ADD SWAP2 POP PUSH1 0x20 DUP6 ADD SWAP5 POP PUSH1 0x20 DUP2 ADD SWAP1 POP PUSH2 0x1470 JUMP JUMPDEST DUP7 DUP4 LT ISZERO PUSH2 0x14B2 JUMPI DUP5 DUP10 ADD MLOAD PUSH2 0x14AE PUSH1 0x1F DUP10 AND DUP3 PUSH2 0x13BB JUMP JUMPDEST DUP4 SSTORE POP JUMPDEST PUSH1 0x1 PUSH1 0x2 DUP9 MUL ADD DUP9 SSTORE POP POP POP JUMPDEST POP POP POP POP POP POP JUMP INVALID LOG2 PUSH5 0x6970667358 0x22 SLT KECCAK256 SMOD 0xCD ADDMOD 0x2D DUP5 0xE4 PUSH2 0xF6DE EXTCODECOPY SWAP10 0xBA PUSH5 0x2B503A3B13 PUSH2 0xB22 DUP15 0xB6 SWAP15 STATICCALL 0xBF PUSH13 0x2FE42752F364736F6C63430008 SLT STOP CALLER "
				},
				"gasEstimates": {
					"creation": {
						"codeDepositCost": "1074600",
						"executionCost": "23220",
						"totalCost": "1097820"
					},
					"external": {
						"distributorTosmIDMapping(address,uint256)": "infinite",
						"getAllmdIdForManufacturer(address)": "infinite",
						"getProduct(uint256)": "infinite",
						"mdId()": "2495",
						"mdidToStructMapping(uint256)": "infinite",
						"receiveProduct(uint256,uint32)": "25009",
						"transferproduct(bytes,address,address,uint32,uint32)": "infinite"
					}
				},
				"methodIdentifiers": {
					"distributorTosmIDMapping(address,uint256)": "83f48c96",
					"getAllmdIdForManufacturer(address)": "96fccba4",
					"getProduct(uint256)": "b9db15b4",
					"mdId()": "e3eba904",
					"mdidToStructMapping(uint256)": "cb59d430",
					"receiveProduct(uint256,uint32)": "911a34fe",
					"transferproduct(bytes,address,address,uint32,uint32)": "9df2505e"
				}
			},
			"storageLayout": {
				"storage": [
					{
						"astId": 41,
						"contract": "contracts/manufacturerDistributor.sol:manufacturerDistributor",
						"label": "mdId",
						"offset": 0,
						"slot": "0",
						"type": "t_uint256"
					},
					{
						"astId": 44,
						"contract": "contracts/manufacturerDistributor.sol:manufacturerDistributor",
						"label": "alltransfers",
						"offset": 0,
						"slot": "1",
						"type": "t_array(t_uint256)dyn_storage"
					},
					{
						"astId": 49,
						"contract": "contracts/manufacturerDistributor.sol:manufacturerDistributor",
						"label": "mdidToStructMapping",
						"offset": 0,
						"slot": "2",
						"type": "t_mapping(t_uint256,t_struct(manufacturerDistributor)12_storage)"
					},
					{
						"astId": 54,
						"contract": "contracts/manufacturerDistributor.sol:manufacturerDistributor",
						"label": "distributorTosmIDMapping",
						"offset": 0,
						"slot": "3",
						"type": "t_mapping(t_address,t_array(t_uint256)dyn_storage)"
					}
				],
				"types": {
					"t_address": {
						"encoding": "inplace",
						"label": "address",
						"numberOfBytes": "20"
					},
					"t_array(t_uint256)dyn_storage": {
						"base": "t_uint256",
						"encoding": "dynamic_array",
						"label": "uint256[]",
						"numberOfBytes": "32"
					},
					"t_bytes_storage": {
						"encoding": "bytes",
						"label": "bytes",
						"numberOfBytes": "32"
					},
					"t_mapping(t_address,t_array(t_uint256)dyn_storage)": {
						"encoding": "mapping",
						"key": "t_address",
						"label": "mapping(address => uint256[])",
						"numberOfBytes": "32",
						"value": "t_array(t_uint256)dyn_storage"
					},
					"t_mapping(t_uint256,t_struct(manufacturerDistributor)12_storage)": {
						"encoding": "mapping",
						"key": "t_uint256",
						"label": "mapping(uint256 => struct IManufacturerDistributor.manufacturerDistributor)",
						"numberOfBytes": "32",
						"value": "t_struct(manufacturerDistributor)12_storage"
					},
					"t_struct(manufacturerDistributor)12_storage": {
						"encoding": "inplace",
						"label": "struct IManufacturerDistributor.manufacturerDistributor",
						"members": [
							{
								"astId": 3,
								"contract": "contracts/manufacturerDistributor.sol:manufacturerDistributor",
								"label": "mp_id",
								"offset": 0,
								"slot": "0",
								"type": "t_bytes_storage"
							},
							{
								"astId": 5,
								"contract": "contracts/manufacturerDistributor.sol:manufacturerDistributor",
								"label": "m_address",
								"offset": 0,
								"slot": "1",
								"type": "t_address"
							},
							{
								"astId": 7,
								"contract": "contracts/manufacturerDistributor.sol:manufacturerDistributor",
								"label": "d_address",
								"offset": 0,
								"slot": "2",
								"type": "t_address"
							},
							{
								"astId": 9,
								"contract": "contracts/manufacturerDistributor.sol:manufacturerDistributor",
								"label": "dispatchTime",
								"offset": 20,
								"slot": "2",
								"type": "t_uint32"
							},
							{
								"astId": 11,
								"contract": "contracts/manufacturerDistributor.sol:manufacturerDistributor",
								"label": "arrivalTime",
								"offset": 24,
								"slot": "2",
								"type": "t_uint32"
							}
						],
						"numberOfBytes": "96"
					},
					"t_uint256": {
						"encoding": "inplace",
						"label": "uint256",
						"numberOfBytes": "32"
					},
					"t_uint32": {
						"encoding": "inplace",
						"label": "uint32",
						"numberOfBytes": "4"
					}
				}
			},
			"userdoc": {
				"kind": "user",
				"methods": {},
				"version": 1
			}
		}
	}
}