{
	"contracts/supplierProduct.sol": {
		"supplierProduct": {
			"abi": [
				{
					"anonymous": false,
					"inputs": [
						{
							"indexed": true,
							"internalType": "uint256",
							"name": "_spid",
							"type": "uint256"
						},
						{
							"indexed": true,
							"internalType": "address",
							"name": "_address",
							"type": "address"
						},
						{
							"indexed": false,
							"internalType": "bytes",
							"name": "_name",
							"type": "bytes"
						},
						{
							"indexed": false,
							"internalType": "bytes",
							"name": "_description",
							"type": "bytes"
						},
						{
							"indexed": false,
							"internalType": "uint128",
							"name": "_unit",
							"type": "uint128"
						},
						{
							"indexed": false,
							"internalType": "uint128",
							"name": "_price",
							"type": "uint128"
						},
						{
							"indexed": false,
							"internalType": "uint32",
							"name": "_date",
							"type": "uint32"
						},
						{
							"indexed": false,
							"internalType": "uint32",
							"name": "_expiryDate",
							"type": "uint32"
						},
						{
							"indexed": false,
							"internalType": "uint256",
							"name": "_timeAdded",
							"type": "uint256"
						}
					],
					"name": "eventAddSupplierProduct",
					"type": "event"
				},
				{
					"anonymous": false,
					"inputs": [
						{
							"indexed": true,
							"internalType": "uint256",
							"name": "_spId",
							"type": "uint256"
						}
					],
					"name": "eventDeleteSupplierProduct",
					"type": "event"
				},
				{
					"anonymous": false,
					"inputs": [
						{
							"indexed": true,
							"internalType": "uint256",
							"name": "_spId",
							"type": "uint256"
						},
						{
							"indexed": false,
							"internalType": "uint128",
							"name": "_quantity",
							"type": "uint128"
						}
					],
					"name": "eventUpdateSupplierProductUints",
					"type": "event"
				},
				{
					"inputs": [
						{
							"internalType": "bytes",
							"name": "_name",
							"type": "bytes"
						},
						{
							"internalType": "bytes",
							"name": "_description",
							"type": "bytes"
						},
						{
							"internalType": "uint128",
							"name": "_unit",
							"type": "uint128"
						},
						{
							"internalType": "uint128",
							"name": "_price",
							"type": "uint128"
						},
						{
							"internalType": "uint32",
							"name": "_date",
							"type": "uint32"
						},
						{
							"internalType": "uint32",
							"name": "_expiryDate",
							"type": "uint32"
						}
					],
					"name": "addSupplierProduct",
					"outputs": [],
					"stateMutability": "nonpayable",
					"type": "function"
				},
				{
					"inputs": [
						{
							"internalType": "uint256",
							"name": "_spId",
							"type": "uint256"
						}
					],
					"name": "deleteSupplierProduct",
					"outputs": [],
					"stateMutability": "nonpayable",
					"type": "function"
				},
				{
					"inputs": [
						{
							"internalType": "address",
							"name": "_supplierAddress",
							"type": "address"
						}
					],
					"name": "getAllProductsOfSupplier",
					"outputs": [
						{
							"components": [
								{
									"internalType": "address",
									"name": "supplierAddress",
									"type": "address"
								},
								{
									"internalType": "bytes",
									"name": "sp_name",
									"type": "bytes"
								},
								{
									"internalType": "bytes",
									"name": "sp_description",
									"type": "bytes"
								},
								{
									"internalType": "uint128",
									"name": "sp_unit",
									"type": "uint128"
								},
								{
									"internalType": "uint128",
									"name": "sp_price",
									"type": "uint128"
								},
								{
									"internalType": "uint32",
									"name": "sp_date",
									"type": "uint32"
								},
								{
									"internalType": "uint32",
									"name": "sp_expiryDate",
									"type": "uint32"
								},
								{
									"internalType": "bool",
									"name": "sp_status",
									"type": "bool"
								}
							],
							"internalType": "struct ISupplierProduct.supplierProduct[]",
							"name": "",
							"type": "tuple[]"
						}
					],
					"stateMutability": "view",
					"type": "function"
				},
				{
					"inputs": [
						{
							"internalType": "uint256",
							"name": "_spId",
							"type": "uint256"
						}
					],
					"name": "getSingleSupplierProduct",
					"outputs": [
						{
							"components": [
								{
									"internalType": "address",
									"name": "supplierAddress",
									"type": "address"
								},
								{
									"internalType": "bytes",
									"name": "sp_name",
									"type": "bytes"
								},
								{
									"internalType": "bytes",
									"name": "sp_description",
									"type": "bytes"
								},
								{
									"internalType": "uint128",
									"name": "sp_unit",
									"type": "uint128"
								},
								{
									"internalType": "uint128",
									"name": "sp_price",
									"type": "uint128"
								},
								{
									"internalType": "uint32",
									"name": "sp_date",
									"type": "uint32"
								},
								{
									"internalType": "uint32",
									"name": "sp_expiryDate",
									"type": "uint32"
								},
								{
									"internalType": "bool",
									"name": "sp_status",
									"type": "bool"
								}
							],
							"internalType": "struct ISupplierProduct.supplierProduct",
							"name": "",
							"type": "tuple"
						}
					],
					"stateMutability": "view",
					"type": "function"
				},
				{
					"inputs": [],
					"name": "getSupplierProductIds",
					"outputs": [
						{
							"internalType": "uint256[]",
							"name": "",
							"type": "uint256[]"
						}
					],
					"stateMutability": "view",
					"type": "function"
				},
				{
					"inputs": [
						{
							"internalType": "address",
							"name": "",
							"type": "address"
						},
						{
							"internalType": "uint256",
							"name": "",
							"type": "uint256"
						}
					],
					"name": "supplierAddressToproductsIdMapping",
					"outputs": [
						{
							"internalType": "uint256",
							"name": "",
							"type": "uint256"
						}
					],
					"stateMutability": "view",
					"type": "function"
				},
				{
					"inputs": [
						{
							"internalType": "uint256",
							"name": "",
							"type": "uint256"
						}
					],
					"name": "supplierProductsIdToStructMapping",
					"outputs": [
						{
							"internalType": "address",
							"name": "supplierAddress",
							"type": "address"
						},
						{
							"internalType": "bytes",
							"name": "sp_name",
							"type": "bytes"
						},
						{
							"internalType": "bytes",
							"name": "sp_description",
							"type": "bytes"
						},
						{
							"internalType": "uint128",
							"name": "sp_unit",
							"type": "uint128"
						},
						{
							"internalType": "uint128",
							"name": "sp_price",
							"type": "uint128"
						},
						{
							"internalType": "uint32",
							"name": "sp_date",
							"type": "uint32"
						},
						{
							"internalType": "uint32",
							"name": "sp_expiryDate",
							"type": "uint32"
						},
						{
							"internalType": "bool",
							"name": "sp_status",
							"type": "bool"
						}
					],
					"stateMutability": "view",
					"type": "function"
				},
				{
					"inputs": [
						{
							"internalType": "uint256",
							"name": "_spId",
							"type": "uint256"
						},
						{
							"internalType": "uint128",
							"name": "_quantity",
							"type": "uint128"
						}
					],
					"name": "updateSupplierProductUints",
					"outputs": [],
					"stateMutability": "nonpayable",
					"type": "function"
				}
			],
			"devdoc": {
				"author": "ProvyLens team",
				"kind": "dev",
				"methods": {},
				"title": "The contract for handling supplier' product",
				"version": 1
			},
			"evm": {
				"assembly": "    /* \"contracts/supplierProduct.sol\":250:3251  contract supplierProduct is ISupplierProduct{\r... */\n  mstore(0x40, 0x80)\n    /* \"contracts/supplierProduct.sol\":370:371  1 */\n  0x01\n    /* \"contracts/supplierProduct.sol\":358:371  uint spId = 1 */\n  0x00\n  sstore\n    /* \"contracts/supplierProduct.sol\":250:3251  contract supplierProduct is ISupplierProduct{\r... */\n  callvalue\n  dup1\n  iszero\n  tag_1\n  jumpi\n  0x00\n  dup1\n  revert\ntag_1:\n  pop\n  dataSize(sub_0)\n  dup1\n  dataOffset(sub_0)\n  0x00\n  codecopy\n  0x00\n  return\nstop\n\nsub_0: assembly {\n        /* \"contracts/supplierProduct.sol\":250:3251  contract supplierProduct is ISupplierProduct{\r... */\n      mstore(0x40, 0x80)\n      callvalue\n      dup1\n      iszero\n      tag_1\n      jumpi\n      0x00\n      dup1\n      revert\n    tag_1:\n      pop\n      jumpi(tag_2, lt(calldatasize, 0x04))\n      shr(0xe0, calldataload(0x00))\n      dup1\n      0xc22ef68e\n      gt\n      tag_11\n      jumpi\n      dup1\n      0xc22ef68e\n      eq\n      tag_7\n      jumpi\n      dup1\n      0xe10f28c7\n      eq\n      tag_8\n      jumpi\n      dup1\n      0xee7e7c99\n      eq\n      tag_9\n      jumpi\n      dup1\n      0xf8bafa70\n      eq\n      tag_10\n      jumpi\n      jump(tag_2)\n    tag_11:\n      dup1\n      0x42af31d7\n      eq\n      tag_3\n      jumpi\n      dup1\n      0x6c87b826\n      eq\n      tag_4\n      jumpi\n      dup1\n      0x79ae0257\n      eq\n      tag_5\n      jumpi\n      dup1\n      0x83f95853\n      eq\n      tag_6\n      jumpi\n    tag_2:\n      0x00\n      dup1\n      revert\n        /* \"contracts/supplierProduct.sol\":598:666  mapping(address => uint[]) public supplierAddressToproductsIdMapping */\n    tag_3:\n      tag_12\n      0x04\n      dup1\n      calldatasize\n      sub\n      dup2\n      add\n      swap1\n      tag_13\n      swap2\n      swap1\n      tag_14\n      jump\t// in\n    tag_13:\n      tag_15\n      jump\t// in\n    tag_12:\n      mload(0x40)\n      tag_16\n      swap2\n      swap1\n      tag_17\n      jump\t// in\n    tag_16:\n      mload(0x40)\n      dup1\n      swap2\n      sub\n      swap1\n      return\n        /* \"contracts/supplierProduct.sol\":447:520  mapping(uint => supplierProduct) public supplierProductsIdToStructMapping */\n    tag_4:\n      tag_18\n      0x04\n      dup1\n      calldatasize\n      sub\n      dup2\n      add\n      swap1\n      tag_19\n      swap2\n      swap1\n      tag_20\n      jump\t// in\n    tag_19:\n      tag_21\n      jump\t// in\n    tag_18:\n      mload(0x40)\n      tag_22\n      swap9\n      swap8\n      swap7\n      swap6\n      swap5\n      swap4\n      swap3\n      swap2\n      swap1\n      tag_23\n      jump\t// in\n    tag_22:\n      mload(0x40)\n      dup1\n      swap2\n      sub\n      swap1\n      return\n        /* \"contracts/supplierProduct.sol\":3066:3248  function deleteSupplierProduct(uint _spId)public override {\r... */\n    tag_5:\n      tag_24\n      0x04\n      dup1\n      calldatasize\n      sub\n      dup2\n      add\n      swap1\n      tag_25\n      swap2\n      swap1\n      tag_20\n      jump\t// in\n    tag_25:\n      tag_26\n      jump\t// in\n    tag_24:\n      stop\n        /* \"contracts/supplierProduct.sol\":2506:2975  function getAllProductsOfSupplier(address _supplierAddress) public view returns(supplierProduct[] memory)\r... */\n    tag_6:\n      tag_27\n      0x04\n      dup1\n      calldatasize\n      sub\n      dup2\n      add\n      swap1\n      tag_28\n      swap2\n      swap1\n      tag_29\n      jump\t// in\n    tag_28:\n      tag_30\n      jump\t// in\n    tag_27:\n      mload(0x40)\n      tag_31\n      swap2\n      swap1\n      tag_32\n      jump\t// in\n    tag_31:\n      mload(0x40)\n      dup1\n      swap2\n      sub\n      swap1\n      return\n        /* \"contracts/supplierProduct.sol\":2256:2411  function getSingleSupplierProduct(uint _spId) public view returns(supplierProduct memory){\r... */\n    tag_7:\n      tag_33\n      0x04\n      dup1\n      calldatasize\n      sub\n      dup2\n      add\n      swap1\n      tag_34\n      swap2\n      swap1\n      tag_20\n      jump\t// in\n    tag_34:\n      tag_35\n      jump\t// in\n    tag_33:\n      mload(0x40)\n      tag_36\n      swap2\n      swap1\n      tag_37\n      jump\t// in\n    tag_36:\n      mload(0x40)\n      dup1\n      swap2\n      sub\n      swap1\n      return\n        /* \"contracts/supplierProduct.sol\":2048:2187  function getSupplierProductIds() public view returns(uint[] memory){\r... */\n    tag_8:\n      tag_38\n      tag_39\n      jump\t// in\n    tag_38:\n      mload(0x40)\n      tag_40\n      swap2\n      swap1\n      tag_41\n      jump\t// in\n    tag_40:\n      mload(0x40)\n      dup1\n      swap2\n      sub\n      swap1\n      return\n        /* \"contracts/supplierProduct.sol\":1143:1648  function addSupplierProduct(bytes calldata _name,bytes calldata _description,uint128 _unit,uint128 _price,uint32 _date,uint32 _expiryDate)public override  {\r... */\n    tag_9:\n      tag_42\n      0x04\n      dup1\n      calldatasize\n      sub\n      dup2\n      add\n      swap1\n      tag_43\n      swap2\n      swap1\n      tag_44\n      jump\t// in\n    tag_43:\n      tag_45\n      jump\t// in\n    tag_42:\n      stop\n        /* \"contracts/supplierProduct.sol\":1715:1983  function updateSupplierProductUints(uint _spId, uint128 _quantity) public override{\r... */\n    tag_10:\n      tag_46\n      0x04\n      dup1\n      calldatasize\n      sub\n      dup2\n      add\n      swap1\n      tag_47\n      swap2\n      swap1\n      tag_48\n      jump\t// in\n    tag_47:\n      tag_49\n      jump\t// in\n    tag_46:\n      stop\n        /* \"contracts/supplierProduct.sol\":598:666  mapping(address => uint[]) public supplierAddressToproductsIdMapping */\n    tag_15:\n      mstore(0x20, 0x02)\n      dup2\n      0x00\n      mstore\n      keccak256(0x00, 0x40)\n      dup2\n      dup2\n      sload\n      dup2\n      lt\n      tag_50\n      jumpi\n      0x00\n      dup1\n      revert\n    tag_50:\n      swap1\n      0x00\n      mstore\n      keccak256(0x00, 0x20)\n      add\n      0x00\n      swap2\n      pop\n      swap2\n      pop\n      pop\n      sload\n      dup2\n      jump\t// out\n        /* \"contracts/supplierProduct.sol\":447:520  mapping(uint => supplierProduct) public supplierProductsIdToStructMapping */\n    tag_21:\n      mstore(0x20, 0x01)\n      dup1\n      0x00\n      mstore\n      keccak256(0x00, 0x40)\n      0x00\n      swap2\n      pop\n      swap1\n      pop\n      dup1\n      0x00\n      add\n      0x00\n      swap1\n      sload\n      swap1\n      0x0100\n      exp\n      swap1\n      div\n      0xffffffffffffffffffffffffffffffffffffffff\n      and\n      swap1\n      dup1\n      0x01\n      add\n      dup1\n      sload\n      tag_52\n      swap1\n      tag_53\n      jump\t// in\n    tag_52:\n      dup1\n      0x1f\n      add\n      0x20\n      dup1\n      swap2\n      div\n      mul\n      0x20\n      add\n      mload(0x40)\n      swap1\n      dup2\n      add\n      0x40\n      mstore\n      dup1\n      swap3\n      swap2\n      swap1\n      dup2\n      dup2\n      mstore\n      0x20\n      add\n      dup3\n      dup1\n      sload\n      tag_54\n      swap1\n      tag_53\n      jump\t// in\n    tag_54:\n      dup1\n      iszero\n      tag_55\n      jumpi\n      dup1\n      0x1f\n      lt\n      tag_56\n      jumpi\n      0x0100\n      dup1\n      dup4\n      sload\n      div\n      mul\n      dup4\n      mstore\n      swap2\n      0x20\n      add\n      swap2\n      jump(tag_55)\n    tag_56:\n      dup3\n      add\n      swap2\n      swap1\n      0x00\n      mstore\n      keccak256(0x00, 0x20)\n      swap1\n    tag_57:\n      dup2\n      sload\n      dup2\n      mstore\n      swap1\n      0x01\n      add\n      swap1\n      0x20\n      add\n      dup1\n      dup4\n      gt\n      tag_57\n      jumpi\n      dup3\n      swap1\n      sub\n      0x1f\n      and\n      dup3\n      add\n      swap2\n    tag_55:\n      pop\n      pop\n      pop\n      pop\n      pop\n      swap1\n      dup1\n      0x02\n      add\n      dup1\n      sload\n      tag_58\n      swap1\n      tag_53\n      jump\t// in\n    tag_58:\n      dup1\n      0x1f\n      add\n      0x20\n      dup1\n      swap2\n      div\n      mul\n      0x20\n      add\n      mload(0x40)\n      swap1\n      dup2\n      add\n      0x40\n      mstore\n      dup1\n      swap3\n      swap2\n      swap1\n      dup2\n      dup2\n      mstore\n      0x20\n      add\n      dup3\n      dup1\n      sload\n      tag_59\n      swap1\n      tag_53\n      jump\t// in\n    tag_59:\n      dup1\n      iszero\n      tag_60\n      jumpi\n      dup1\n      0x1f\n      lt\n      tag_61\n      jumpi\n      0x0100\n      dup1\n      dup4\n      sload\n      div\n      mul\n      dup4\n      mstore\n      swap2\n      0x20\n      add\n      swap2\n      jump(tag_60)\n    tag_61:\n      dup3\n      add\n      swap2\n      swap1\n      0x00\n      mstore\n      keccak256(0x00, 0x20)\n      swap1\n    tag_62:\n      dup2\n      sload\n      dup2\n      mstore\n      swap1\n      0x01\n      add\n      swap1\n      0x20\n      add\n      dup1\n      dup4\n      gt\n      tag_62\n      jumpi\n      dup3\n      swap1\n      sub\n      0x1f\n      and\n      dup3\n      add\n      swap2\n    tag_60:\n      pop\n      pop\n      pop\n      pop\n      pop\n      swap1\n      dup1\n      0x03\n      add\n      0x00\n      swap1\n      sload\n      swap1\n      0x0100\n      exp\n      swap1\n      div\n      0xffffffffffffffffffffffffffffffff\n      and\n      swap1\n      dup1\n      0x03\n      add\n      0x10\n      swap1\n      sload\n      swap1\n      0x0100\n      exp\n      swap1\n      div\n      0xffffffffffffffffffffffffffffffff\n      and\n      swap1\n      dup1\n      0x04\n      add\n      0x00\n      swap1\n      sload\n      swap1\n      0x0100\n      exp\n      swap1\n      div\n      0xffffffff\n      and\n      swap1\n      dup1\n      0x04\n      add\n      0x04\n      swap1\n      sload\n      swap1\n      0x0100\n      exp\n      swap1\n      div\n      0xffffffff\n      and\n      swap1\n      dup1\n      0x04\n      add\n      0x08\n      swap1\n      sload\n      swap1\n      0x0100\n      exp\n      swap1\n      div\n      0xff\n      and\n      swap1\n      pop\n      dup9\n      jump\t// out\n        /* \"contracts/supplierProduct.sol\":3066:3248  function deleteSupplierProduct(uint _spId)public override {\r... */\n    tag_26:\n        /* \"contracts/supplierProduct.sol\":3186:3191  false */\n      0x00\n        /* \"contracts/supplierProduct.sol\":3135:3168  supplierProductsIdToStructMapping */\n      0x01\n        /* \"contracts/supplierProduct.sol\":3135:3175  supplierProductsIdToStructMapping[_spId] */\n      0x00\n        /* \"contracts/supplierProduct.sol\":3169:3174  _spId */\n      dup4\n        /* \"contracts/supplierProduct.sol\":3135:3175  supplierProductsIdToStructMapping[_spId] */\n      dup2\n      mstore\n      0x20\n      add\n      swap1\n      dup2\n      mstore\n      0x20\n      add\n      0x00\n      keccak256\n        /* \"contracts/supplierProduct.sol\":3135:3185  supplierProductsIdToStructMapping[_spId].sp_status */\n      0x04\n      add\n      0x08\n        /* \"contracts/supplierProduct.sol\":3135:3191  supplierProductsIdToStructMapping[_spId].sp_status=false */\n      0x0100\n      exp\n      dup2\n      sload\n      dup2\n      0xff\n      mul\n      not\n      and\n      swap1\n      dup4\n      iszero\n      iszero\n      mul\n      or\n      swap1\n      sstore\n      pop\n        /* \"contracts/supplierProduct.sol\":3234:3239  _spId */\n      dup1\n        /* \"contracts/supplierProduct.sol\":3207:3240  eventDeleteSupplierProduct(_spId) */\n      0x6c1a4e746947a5049a6693a4875a10617826c8361c631cac61717e141185fdd2\n      mload(0x40)\n      mload(0x40)\n      dup1\n      swap2\n      sub\n      swap1\n      log2\n        /* \"contracts/supplierProduct.sol\":3066:3248  function deleteSupplierProduct(uint _spId)public override {\r... */\n      pop\n      jump\t// out\n        /* \"contracts/supplierProduct.sol\":2506:2975  function getAllProductsOfSupplier(address _supplierAddress) public view returns(supplierProduct[] memory)\r... */\n    tag_30:\n        /* \"contracts/supplierProduct.sol\":2586:2610  supplierProduct[] memory */\n      0x60\n        /* \"contracts/supplierProduct.sol\":2628:2652  uint[] memory productIds */\n      0x00\n        /* \"contracts/supplierProduct.sol\":2654:2688  supplierAddressToproductsIdMapping */\n      0x02\n        /* \"contracts/supplierProduct.sol\":2654:2706  supplierAddressToproductsIdMapping[_supplierAddress] */\n      0x00\n        /* \"contracts/supplierProduct.sol\":2689:2705  _supplierAddress */\n      dup5\n        /* \"contracts/supplierProduct.sol\":2654:2706  supplierAddressToproductsIdMapping[_supplierAddress] */\n      0xffffffffffffffffffffffffffffffffffffffff\n      and\n      0xffffffffffffffffffffffffffffffffffffffff\n      and\n      dup2\n      mstore\n      0x20\n      add\n      swap1\n      dup2\n      mstore\n      0x20\n      add\n      0x00\n      keccak256\n        /* \"contracts/supplierProduct.sol\":2628:2706  uint[] memory productIds= supplierAddressToproductsIdMapping[_supplierAddress] */\n      dup1\n      sload\n      dup1\n      0x20\n      mul\n      0x20\n      add\n      mload(0x40)\n      swap1\n      dup2\n      add\n      0x40\n      mstore\n      dup1\n      swap3\n      swap2\n      swap1\n      dup2\n      dup2\n      mstore\n      0x20\n      add\n      dup3\n      dup1\n      sload\n      dup1\n      iszero\n      tag_65\n      jumpi\n      0x20\n      mul\n      dup3\n      add\n      swap2\n      swap1\n      0x00\n      mstore\n      keccak256(0x00, 0x20)\n      swap1\n    tag_66:\n      dup2\n      sload\n      dup2\n      mstore\n      0x20\n      add\n      swap1\n      0x01\n      add\n      swap1\n      dup1\n      dup4\n      gt\n      tag_66\n      jumpi\n    tag_65:\n      pop\n      pop\n      pop\n      pop\n      pop\n      swap1\n      pop\n        /* \"contracts/supplierProduct.sol\":2717:2751  supplierProduct[] memory supplierP */\n      0x00\n        /* \"contracts/supplierProduct.sol\":2776:2786  productIds */\n      dup2\n        /* \"contracts/supplierProduct.sol\":2776:2793  productIds.length */\n      mload\n        /* \"contracts/supplierProduct.sol\":2754:2794  new supplierProduct[](productIds.length) */\n      0xffffffffffffffff\n      dup2\n      gt\n      iszero\n      tag_67\n      jumpi\n      tag_68\n      tag_69\n      jump\t// in\n    tag_68:\n    tag_67:\n      mload(0x40)\n      swap1\n      dup1\n      dup3\n      mstore\n      dup1\n      0x20\n      mul\n      0x20\n      add\n      dup3\n      add\n      0x40\n      mstore\n      dup1\n      iszero\n      tag_70\n      jumpi\n      dup2\n      0x20\n      add\n    tag_71:\n      tag_72\n      tag_73\n      jump\t// in\n    tag_72:\n      dup2\n      mstore\n      0x20\n      add\n      swap1\n      0x01\n      swap1\n      sub\n      swap1\n      dup2\n      tag_71\n      jumpi\n      swap1\n      pop\n    tag_70:\n      pop\n        /* \"contracts/supplierProduct.sol\":2717:2794  supplierProduct[] memory supplierP = new supplierProduct[](productIds.length) */\n      swap1\n      pop\n        /* \"contracts/supplierProduct.sol\":2809:2815  uint i */\n      0x00\n        /* \"contracts/supplierProduct.sol\":2805:2941  for(uint i=0;i<productIds.length;i++)\r... */\n    tag_74:\n        /* \"contracts/supplierProduct.sol\":2820:2830  productIds */\n      dup3\n        /* \"contracts/supplierProduct.sol\":2820:2837  productIds.length */\n      mload\n        /* \"contracts/supplierProduct.sol\":2818:2819  i */\n      dup2\n        /* \"contracts/supplierProduct.sol\":2818:2837  i<productIds.length */\n      lt\n        /* \"contracts/supplierProduct.sol\":2805:2941  for(uint i=0;i<productIds.length;i++)\r... */\n      iszero\n      tag_75\n      jumpi\n        /* \"contracts/supplierProduct.sol\":2881:2914  supplierProductsIdToStructMapping */\n      0x01\n        /* \"contracts/supplierProduct.sol\":2881:2929  supplierProductsIdToStructMapping[productIds[i]] */\n      0x00\n        /* \"contracts/supplierProduct.sol\":2915:2925  productIds */\n      dup5\n        /* \"contracts/supplierProduct.sol\":2926:2927  i */\n      dup4\n        /* \"contracts/supplierProduct.sol\":2915:2928  productIds[i] */\n      dup2\n      mload\n      dup2\n      lt\n      tag_77\n      jumpi\n      tag_78\n      tag_79\n      jump\t// in\n    tag_78:\n    tag_77:\n      0x20\n      mul\n      0x20\n      add\n      add\n      mload\n        /* \"contracts/supplierProduct.sol\":2881:2929  supplierProductsIdToStructMapping[productIds[i]] */\n      dup2\n      mstore\n      0x20\n      add\n      swap1\n      dup2\n      mstore\n      0x20\n      add\n      0x00\n      keccak256\n        /* \"contracts/supplierProduct.sol\":2867:2929  supplierP[i] =supplierProductsIdToStructMapping[productIds[i]] */\n      mload(0x40)\n      dup1\n      0x0100\n      add\n      0x40\n      mstore\n      swap1\n      dup2\n      0x00\n      dup3\n      add\n      0x00\n      swap1\n      sload\n      swap1\n      0x0100\n      exp\n      swap1\n      div\n      0xffffffffffffffffffffffffffffffffffffffff\n      and\n      0xffffffffffffffffffffffffffffffffffffffff\n      and\n      0xffffffffffffffffffffffffffffffffffffffff\n      and\n      dup2\n      mstore\n      0x20\n      add\n      0x01\n      dup3\n      add\n      dup1\n      sload\n      tag_80\n      swap1\n      tag_53\n      jump\t// in\n    tag_80:\n      dup1\n      0x1f\n      add\n      0x20\n      dup1\n      swap2\n      div\n      mul\n      0x20\n      add\n      mload(0x40)\n      swap1\n      dup2\n      add\n      0x40\n      mstore\n      dup1\n      swap3\n      swap2\n      swap1\n      dup2\n      dup2\n      mstore\n      0x20\n      add\n      dup3\n      dup1\n      sload\n      tag_81\n      swap1\n      tag_53\n      jump\t// in\n    tag_81:\n      dup1\n      iszero\n      tag_82\n      jumpi\n      dup1\n      0x1f\n      lt\n      tag_83\n      jumpi\n      0x0100\n      dup1\n      dup4\n      sload\n      div\n      mul\n      dup4\n      mstore\n      swap2\n      0x20\n      add\n      swap2\n      jump(tag_82)\n    tag_83:\n      dup3\n      add\n      swap2\n      swap1\n      0x00\n      mstore\n      keccak256(0x00, 0x20)\n      swap1\n    tag_84:\n      dup2\n      sload\n      dup2\n      mstore\n      swap1\n      0x01\n      add\n      swap1\n      0x20\n      add\n      dup1\n      dup4\n      gt\n      tag_84\n      jumpi\n      dup3\n      swap1\n      sub\n      0x1f\n      and\n      dup3\n      add\n      swap2\n    tag_82:\n      pop\n      pop\n      pop\n      pop\n      pop\n      dup2\n      mstore\n      0x20\n      add\n      0x02\n      dup3\n      add\n      dup1\n      sload\n      tag_85\n      swap1\n      tag_53\n      jump\t// in\n    tag_85:\n      dup1\n      0x1f\n      add\n      0x20\n      dup1\n      swap2\n      div\n      mul\n      0x20\n      add\n      mload(0x40)\n      swap1\n      dup2\n      add\n      0x40\n      mstore\n      dup1\n      swap3\n      swap2\n      swap1\n      dup2\n      dup2\n      mstore\n      0x20\n      add\n      dup3\n      dup1\n      sload\n      tag_86\n      swap1\n      tag_53\n      jump\t// in\n    tag_86:\n      dup1\n      iszero\n      tag_87\n      jumpi\n      dup1\n      0x1f\n      lt\n      tag_88\n      jumpi\n      0x0100\n      dup1\n      dup4\n      sload\n      div\n      mul\n      dup4\n      mstore\n      swap2\n      0x20\n      add\n      swap2\n      jump(tag_87)\n    tag_88:\n      dup3\n      add\n      swap2\n      swap1\n      0x00\n      mstore\n      keccak256(0x00, 0x20)\n      swap1\n    tag_89:\n      dup2\n      sload\n      dup2\n      mstore\n      swap1\n      0x01\n      add\n      swap1\n      0x20\n      add\n      dup1\n      dup4\n      gt\n      tag_89\n      jumpi\n      dup3\n      swap1\n      sub\n      0x1f\n      and\n      dup3\n      add\n      swap2\n    tag_87:\n      pop\n      pop\n      pop\n      pop\n      pop\n      dup2\n      mstore\n      0x20\n      add\n      0x03\n      dup3\n      add\n      0x00\n      swap1\n      sload\n      swap1\n      0x0100\n      exp\n      swap1\n      div\n      0xffffffffffffffffffffffffffffffff\n      and\n      0xffffffffffffffffffffffffffffffff\n      and\n      0xffffffffffffffffffffffffffffffff\n      and\n      dup2\n      mstore\n      0x20\n      add\n      0x03\n      dup3\n      add\n      0x10\n      swap1\n      sload\n      swap1\n      0x0100\n      exp\n      swap1\n      div\n      0xffffffffffffffffffffffffffffffff\n      and\n      0xffffffffffffffffffffffffffffffff\n      and\n      0xffffffffffffffffffffffffffffffff\n      and\n      dup2\n      mstore\n      0x20\n      add\n      0x04\n      dup3\n      add\n      0x00\n      swap1\n      sload\n      swap1\n      0x0100\n      exp\n      swap1\n      div\n      0xffffffff\n      and\n      0xffffffff\n      and\n      0xffffffff\n      and\n      dup2\n      mstore\n      0x20\n      add\n      0x04\n      dup3\n      add\n      0x04\n      swap1\n      sload\n      swap1\n      0x0100\n      exp\n      swap1\n      div\n      0xffffffff\n      and\n      0xffffffff\n      and\n      0xffffffff\n      and\n      dup2\n      mstore\n      0x20\n      add\n      0x04\n      dup3\n      add\n      0x08\n      swap1\n      sload\n      swap1\n      0x0100\n      exp\n      swap1\n      div\n      0xff\n      and\n      iszero\n      iszero\n      iszero\n      iszero\n      dup2\n      mstore\n      pop\n      pop\n        /* \"contracts/supplierProduct.sol\":2867:2876  supplierP */\n      dup3\n        /* \"contracts/supplierProduct.sol\":2877:2878  i */\n      dup3\n        /* \"contracts/supplierProduct.sol\":2867:2879  supplierP[i] */\n      dup2\n      mload\n      dup2\n      lt\n      tag_90\n      jumpi\n      tag_91\n      tag_79\n      jump\t// in\n    tag_91:\n    tag_90:\n      0x20\n      mul\n      0x20\n      add\n      add\n        /* \"contracts/supplierProduct.sol\":2867:2929  supplierP[i] =supplierProductsIdToStructMapping[productIds[i]] */\n      dup2\n      swap1\n      mstore\n      pop\n        /* \"contracts/supplierProduct.sol\":2838:2841  i++ */\n      dup1\n      dup1\n      tag_92\n      swap1\n      tag_93\n      jump\t// in\n    tag_92:\n      swap2\n      pop\n      pop\n        /* \"contracts/supplierProduct.sol\":2805:2941  for(uint i=0;i<productIds.length;i++)\r... */\n      jump(tag_74)\n    tag_75:\n      pop\n        /* \"contracts/supplierProduct.sol\":2958:2967  supplierP */\n      dup1\n        /* \"contracts/supplierProduct.sol\":2951:2967  return supplierP */\n      swap3\n      pop\n      pop\n      pop\n        /* \"contracts/supplierProduct.sol\":2506:2975  function getAllProductsOfSupplier(address _supplierAddress) public view returns(supplierProduct[] memory)\r... */\n      swap2\n      swap1\n      pop\n      jump\t// out\n        /* \"contracts/supplierProduct.sol\":2256:2411  function getSingleSupplierProduct(uint _spId) public view returns(supplierProduct memory){\r... */\n    tag_35:\n        /* \"contracts/supplierProduct.sol\":2322:2344  supplierProduct memory */\n      tag_94\n      tag_73\n      jump\t// in\n    tag_94:\n        /* \"contracts/supplierProduct.sol\":2363:2396  supplierProductsIdToStructMapping */\n      0x01\n        /* \"contracts/supplierProduct.sol\":2363:2403  supplierProductsIdToStructMapping[_spId] */\n      0x00\n        /* \"contracts/supplierProduct.sol\":2397:2402  _spId */\n      dup4\n        /* \"contracts/supplierProduct.sol\":2363:2403  supplierProductsIdToStructMapping[_spId] */\n      dup2\n      mstore\n      0x20\n      add\n      swap1\n      dup2\n      mstore\n      0x20\n      add\n      0x00\n      keccak256\n        /* \"contracts/supplierProduct.sol\":2356:2403  return supplierProductsIdToStructMapping[_spId] */\n      mload(0x40)\n      dup1\n      0x0100\n      add\n      0x40\n      mstore\n      swap1\n      dup2\n      0x00\n      dup3\n      add\n      0x00\n      swap1\n      sload\n      swap1\n      0x0100\n      exp\n      swap1\n      div\n      0xffffffffffffffffffffffffffffffffffffffff\n      and\n      0xffffffffffffffffffffffffffffffffffffffff\n      and\n      0xffffffffffffffffffffffffffffffffffffffff\n      and\n      dup2\n      mstore\n      0x20\n      add\n      0x01\n      dup3\n      add\n      dup1\n      sload\n      tag_96\n      swap1\n      tag_53\n      jump\t// in\n    tag_96:\n      dup1\n      0x1f\n      add\n      0x20\n      dup1\n      swap2\n      div\n      mul\n      0x20\n      add\n      mload(0x40)\n      swap1\n      dup2\n      add\n      0x40\n      mstore\n      dup1\n      swap3\n      swap2\n      swap1\n      dup2\n      dup2\n      mstore\n      0x20\n      add\n      dup3\n      dup1\n      sload\n      tag_97\n      swap1\n      tag_53\n      jump\t// in\n    tag_97:\n      dup1\n      iszero\n      tag_98\n      jumpi\n      dup1\n      0x1f\n      lt\n      tag_99\n      jumpi\n      0x0100\n      dup1\n      dup4\n      sload\n      div\n      mul\n      dup4\n      mstore\n      swap2\n      0x20\n      add\n      swap2\n      jump(tag_98)\n    tag_99:\n      dup3\n      add\n      swap2\n      swap1\n      0x00\n      mstore\n      keccak256(0x00, 0x20)\n      swap1\n    tag_100:\n      dup2\n      sload\n      dup2\n      mstore\n      swap1\n      0x01\n      add\n      swap1\n      0x20\n      add\n      dup1\n      dup4\n      gt\n      tag_100\n      jumpi\n      dup3\n      swap1\n      sub\n      0x1f\n      and\n      dup3\n      add\n      swap2\n    tag_98:\n      pop\n      pop\n      pop\n      pop\n      pop\n      dup2\n      mstore\n      0x20\n      add\n      0x02\n      dup3\n      add\n      dup1\n      sload\n      tag_101\n      swap1\n      tag_53\n      jump\t// in\n    tag_101:\n      dup1\n      0x1f\n      add\n      0x20\n      dup1\n      swap2\n      div\n      mul\n      0x20\n      add\n      mload(0x40)\n      swap1\n      dup2\n      add\n      0x40\n      mstore\n      dup1\n      swap3\n      swap2\n      swap1\n      dup2\n      dup2\n      mstore\n      0x20\n      add\n      dup3\n      dup1\n      sload\n      tag_102\n      swap1\n      tag_53\n      jump\t// in\n    tag_102:\n      dup1\n      iszero\n      tag_103\n      jumpi\n      dup1\n      0x1f\n      lt\n      tag_104\n      jumpi\n      0x0100\n      dup1\n      dup4\n      sload\n      div\n      mul\n      dup4\n      mstore\n      swap2\n      0x20\n      add\n      swap2\n      jump(tag_103)\n    tag_104:\n      dup3\n      add\n      swap2\n      swap1\n      0x00\n      mstore\n      keccak256(0x00, 0x20)\n      swap1\n    tag_105:\n      dup2\n      sload\n      dup2\n      mstore\n      swap1\n      0x01\n      add\n      swap1\n      0x20\n      add\n      dup1\n      dup4\n      gt\n      tag_105\n      jumpi\n      dup3\n      swap1\n      sub\n      0x1f\n      and\n      dup3\n      add\n      swap2\n    tag_103:\n      pop\n      pop\n      pop\n      pop\n      pop\n      dup2\n      mstore\n      0x20\n      add\n      0x03\n      dup3\n      add\n      0x00\n      swap1\n      sload\n      swap1\n      0x0100\n      exp\n      swap1\n      div\n      0xffffffffffffffffffffffffffffffff\n      and\n      0xffffffffffffffffffffffffffffffff\n      and\n      0xffffffffffffffffffffffffffffffff\n      and\n      dup2\n      mstore\n      0x20\n      add\n      0x03\n      dup3\n      add\n      0x10\n      swap1\n      sload\n      swap1\n      0x0100\n      exp\n      swap1\n      div\n      0xffffffffffffffffffffffffffffffff\n      and\n      0xffffffffffffffffffffffffffffffff\n      and\n      0xffffffffffffffffffffffffffffffff\n      and\n      dup2\n      mstore\n      0x20\n      add\n      0x04\n      dup3\n      add\n      0x00\n      swap1\n      sload\n      swap1\n      0x0100\n      exp\n      swap1\n      div\n      0xffffffff\n      and\n      0xffffffff\n      and\n      0xffffffff\n      and\n      dup2\n      mstore\n      0x20\n      add\n      0x04\n      dup3\n      add\n      0x04\n      swap1\n      sload\n      swap1\n      0x0100\n      exp\n      swap1\n      div\n      0xffffffff\n      and\n      0xffffffff\n      and\n      0xffffffff\n      and\n      dup2\n      mstore\n      0x20\n      add\n      0x04\n      dup3\n      add\n      0x08\n      swap1\n      sload\n      swap1\n      0x0100\n      exp\n      swap1\n      div\n      0xff\n      and\n      iszero\n      iszero\n      iszero\n      iszero\n      dup2\n      mstore\n      pop\n      pop\n      swap1\n      pop\n        /* \"contracts/supplierProduct.sol\":2256:2411  function getSingleSupplierProduct(uint _spId) public view returns(supplierProduct memory){\r... */\n      swap2\n      swap1\n      pop\n      jump\t// out\n        /* \"contracts/supplierProduct.sol\":2048:2187  function getSupplierProductIds() public view returns(uint[] memory){\r... */\n    tag_39:\n        /* \"contracts/supplierProduct.sol\":2101:2114  uint[] memory */\n      0x60\n        /* \"contracts/supplierProduct.sol\":2133:2167  supplierAddressToproductsIdMapping */\n      0x02\n        /* \"contracts/supplierProduct.sol\":2133:2179  supplierAddressToproductsIdMapping[msg.sender] */\n      0x00\n        /* \"contracts/supplierProduct.sol\":2168:2178  msg.sender */\n      caller\n        /* \"contracts/supplierProduct.sol\":2133:2179  supplierAddressToproductsIdMapping[msg.sender] */\n      0xffffffffffffffffffffffffffffffffffffffff\n      and\n      0xffffffffffffffffffffffffffffffffffffffff\n      and\n      dup2\n      mstore\n      0x20\n      add\n      swap1\n      dup2\n      mstore\n      0x20\n      add\n      0x00\n      keccak256\n        /* \"contracts/supplierProduct.sol\":2126:2179  return supplierAddressToproductsIdMapping[msg.sender] */\n      dup1\n      sload\n      dup1\n      0x20\n      mul\n      0x20\n      add\n      mload(0x40)\n      swap1\n      dup2\n      add\n      0x40\n      mstore\n      dup1\n      swap3\n      swap2\n      swap1\n      dup2\n      dup2\n      mstore\n      0x20\n      add\n      dup3\n      dup1\n      sload\n      dup1\n      iszero\n      tag_107\n      jumpi\n      0x20\n      mul\n      dup3\n      add\n      swap2\n      swap1\n      0x00\n      mstore\n      keccak256(0x00, 0x20)\n      swap1\n    tag_108:\n      dup2\n      sload\n      dup2\n      mstore\n      0x20\n      add\n      swap1\n      0x01\n      add\n      swap1\n      dup1\n      dup4\n      gt\n      tag_108\n      jumpi\n    tag_107:\n      pop\n      pop\n      pop\n      pop\n      pop\n      swap1\n      pop\n        /* \"contracts/supplierProduct.sol\":2048:2187  function getSupplierProductIds() public view returns(uint[] memory){\r... */\n      swap1\n      jump\t// out\n        /* \"contracts/supplierProduct.sol\":1143:1648  function addSupplierProduct(bytes calldata _name,bytes calldata _description,uint128 _unit,uint128 _price,uint32 _date,uint32 _expiryDate)public override  {\r... */\n    tag_45:\n        /* \"contracts/supplierProduct.sol\":1351:1433  supplierProduct(msg.sender,_name,_description,_unit,_price,_date,_expiryDate,true) */\n      mload(0x40)\n      dup1\n      0x0100\n      add\n      0x40\n      mstore\n      dup1\n        /* \"contracts/supplierProduct.sol\":1367:1377  msg.sender */\n      caller\n        /* \"contracts/supplierProduct.sol\":1351:1433  supplierProduct(msg.sender,_name,_description,_unit,_price,_date,_expiryDate,true) */\n      0xffffffffffffffffffffffffffffffffffffffff\n      and\n      dup2\n      mstore\n      0x20\n      add\n        /* \"contracts/supplierProduct.sol\":1378:1383  _name */\n      dup10\n      dup10\n        /* \"contracts/supplierProduct.sol\":1351:1433  supplierProduct(msg.sender,_name,_description,_unit,_price,_date,_expiryDate,true) */\n      dup1\n      dup1\n      0x1f\n      add\n      0x20\n      dup1\n      swap2\n      div\n      mul\n      0x20\n      add\n      mload(0x40)\n      swap1\n      dup2\n      add\n      0x40\n      mstore\n      dup1\n      swap4\n      swap3\n      swap2\n      swap1\n      dup2\n      dup2\n      mstore\n      0x20\n      add\n      dup4\n      dup4\n      dup1\n      dup3\n      dup5\n      calldatacopy\n      0x00\n      dup2\n      dup5\n      add\n      mstore\n      not(0x1f)\n      0x1f\n      dup3\n      add\n      and\n      swap1\n      pop\n      dup1\n      dup4\n      add\n      swap3\n      pop\n      pop\n      pop\n      pop\n      pop\n      pop\n      pop\n      dup2\n      mstore\n      0x20\n      add\n        /* \"contracts/supplierProduct.sol\":1384:1396  _description */\n      dup8\n      dup8\n        /* \"contracts/supplierProduct.sol\":1351:1433  supplierProduct(msg.sender,_name,_description,_unit,_price,_date,_expiryDate,true) */\n      dup1\n      dup1\n      0x1f\n      add\n      0x20\n      dup1\n      swap2\n      div\n      mul\n      0x20\n      add\n      mload(0x40)\n      swap1\n      dup2\n      add\n      0x40\n      mstore\n      dup1\n      swap4\n      swap3\n      swap2\n      swap1\n      dup2\n      dup2\n      mstore\n      0x20\n      add\n      dup4\n      dup4\n      dup1\n      dup3\n      dup5\n      calldatacopy\n      0x00\n      dup2\n      dup5\n      add\n      mstore\n      not(0x1f)\n      0x1f\n      dup3\n      add\n      and\n      swap1\n      pop\n      dup1\n      dup4\n      add\n      swap3\n      pop\n      pop\n      pop\n      pop\n      pop\n      pop\n      pop\n      dup2\n      mstore\n      0x20\n      add\n        /* \"contracts/supplierProduct.sol\":1397:1402  _unit */\n      dup6\n        /* \"contracts/supplierProduct.sol\":1351:1433  supplierProduct(msg.sender,_name,_description,_unit,_price,_date,_expiryDate,true) */\n      0xffffffffffffffffffffffffffffffff\n      and\n      dup2\n      mstore\n      0x20\n      add\n        /* \"contracts/supplierProduct.sol\":1403:1409  _price */\n      dup5\n        /* \"contracts/supplierProduct.sol\":1351:1433  supplierProduct(msg.sender,_name,_description,_unit,_price,_date,_expiryDate,true) */\n      0xffffffffffffffffffffffffffffffff\n      and\n      dup2\n      mstore\n      0x20\n      add\n        /* \"contracts/supplierProduct.sol\":1410:1415  _date */\n      dup4\n        /* \"contracts/supplierProduct.sol\":1351:1433  supplierProduct(msg.sender,_name,_description,_unit,_price,_date,_expiryDate,true) */\n      0xffffffff\n      and\n      dup2\n      mstore\n      0x20\n      add\n        /* \"contracts/supplierProduct.sol\":1416:1427  _expiryDate */\n      dup3\n        /* \"contracts/supplierProduct.sol\":1351:1433  supplierProduct(msg.sender,_name,_description,_unit,_price,_date,_expiryDate,true) */\n      0xffffffff\n      and\n      dup2\n      mstore\n      0x20\n      add\n        /* \"contracts/supplierProduct.sol\":1428:1432  true */\n      0x01\n        /* \"contracts/supplierProduct.sol\":1351:1433  supplierProduct(msg.sender,_name,_description,_unit,_price,_date,_expiryDate,true) */\n      iszero\n      iszero\n      dup2\n      mstore\n      pop\n        /* \"contracts/supplierProduct.sol\":1309:1342  supplierProductsIdToStructMapping */\n      0x01\n        /* \"contracts/supplierProduct.sol\":1309:1348  supplierProductsIdToStructMapping[spId] */\n      0x00\n        /* \"contracts/supplierProduct.sol\":1343:1347  spId */\n      dup1\n      sload\n        /* \"contracts/supplierProduct.sol\":1309:1348  supplierProductsIdToStructMapping[spId] */\n      dup2\n      mstore\n      0x20\n      add\n      swap1\n      dup2\n      mstore\n      0x20\n      add\n      0x00\n      keccak256\n        /* \"contracts/supplierProduct.sol\":1309:1433  supplierProductsIdToStructMapping[spId] = supplierProduct(msg.sender,_name,_description,_unit,_price,_date,_expiryDate,true) */\n      0x00\n      dup3\n      add\n      mload\n      dup2\n      0x00\n      add\n      exp(0x0100, 0x00)\n      dup2\n      sload\n      dup2\n      0xffffffffffffffffffffffffffffffffffffffff\n      mul\n      not\n      and\n      swap1\n      dup4\n      0xffffffffffffffffffffffffffffffffffffffff\n      and\n      mul\n      or\n      swap1\n      sstore\n      pop\n      0x20\n      dup3\n      add\n      mload\n      dup2\n      0x01\n      add\n      swap1\n      dup1\n      mload\n      swap1\n      0x20\n      add\n      swap1\n      tag_110\n      swap3\n      swap2\n      swap1\n      tag_111\n      jump\t// in\n    tag_110:\n      pop\n      0x40\n      dup3\n      add\n      mload\n      dup2\n      0x02\n      add\n      swap1\n      dup1\n      mload\n      swap1\n      0x20\n      add\n      swap1\n      tag_112\n      swap3\n      swap2\n      swap1\n      tag_111\n      jump\t// in\n    tag_112:\n      pop\n      0x60\n      dup3\n      add\n      mload\n      dup2\n      0x03\n      add\n      exp(0x0100, 0x00)\n      dup2\n      sload\n      dup2\n      0xffffffffffffffffffffffffffffffff\n      mul\n      not\n      and\n      swap1\n      dup4\n      0xffffffffffffffffffffffffffffffff\n      and\n      mul\n      or\n      swap1\n      sstore\n      pop\n      0x80\n      dup3\n      add\n      mload\n      dup2\n      0x03\n      add\n      exp(0x0100, 0x10)\n      dup2\n      sload\n      dup2\n      0xffffffffffffffffffffffffffffffff\n      mul\n      not\n      and\n      swap1\n      dup4\n      0xffffffffffffffffffffffffffffffff\n      and\n      mul\n      or\n      swap1\n      sstore\n      pop\n      0xa0\n      dup3\n      add\n      mload\n      dup2\n      0x04\n      add\n      exp(0x0100, 0x00)\n      dup2\n      sload\n      dup2\n      0xffffffff\n      mul\n      not\n      and\n      swap1\n      dup4\n      0xffffffff\n      and\n      mul\n      or\n      swap1\n      sstore\n      pop\n      0xc0\n      dup3\n      add\n      mload\n      dup2\n      0x04\n      add\n      exp(0x0100, 0x04)\n      dup2\n      sload\n      dup2\n      0xffffffff\n      mul\n      not\n      and\n      swap1\n      dup4\n      0xffffffff\n      and\n      mul\n      or\n      swap1\n      sstore\n      pop\n      0xe0\n      dup3\n      add\n      mload\n      dup2\n      0x04\n      add\n      exp(0x0100, 0x08)\n      dup2\n      sload\n      dup2\n      0xff\n      mul\n      not\n      and\n      swap1\n      dup4\n      iszero\n      iszero\n      mul\n      or\n      swap1\n      sstore\n      pop\n      swap1\n      pop\n      pop\n        /* \"contracts/supplierProduct.sol\":1444:1478  supplierAddressToproductsIdMapping */\n      0x02\n        /* \"contracts/supplierProduct.sol\":1444:1490  supplierAddressToproductsIdMapping[msg.sender] */\n      0x00\n        /* \"contracts/supplierProduct.sol\":1479:1489  msg.sender */\n      caller\n        /* \"contracts/supplierProduct.sol\":1444:1490  supplierAddressToproductsIdMapping[msg.sender] */\n      0xffffffffffffffffffffffffffffffffffffffff\n      and\n      0xffffffffffffffffffffffffffffffffffffffff\n      and\n      dup2\n      mstore\n      0x20\n      add\n      swap1\n      dup2\n      mstore\n      0x20\n      add\n      0x00\n      keccak256\n        /* \"contracts/supplierProduct.sol\":1496:1500  spId */\n      sload(0x00)\n        /* \"contracts/supplierProduct.sol\":1444:1501  supplierAddressToproductsIdMapping[msg.sender].push(spId) */\n      swap1\n      dup1\n      0x01\n      dup2\n      sload\n      add\n      dup1\n      dup3\n      sstore\n      dup1\n      swap2\n      pop\n      pop\n      0x01\n      swap1\n      sub\n      swap1\n      0x00\n      mstore\n      keccak256(0x00, 0x20)\n      add\n      0x00\n      swap1\n      swap2\n      swap1\n      swap2\n      swap1\n      swap2\n      pop\n      sstore\n        /* \"contracts/supplierProduct.sol\":1546:1556  msg.sender */\n      caller\n        /* \"contracts/supplierProduct.sol\":1517:1623  eventAddSupplierProduct(spId,msg.sender,_name,_description,_unit,_price,_date,_expiryDate,block.timestamp) */\n      0xffffffffffffffffffffffffffffffffffffffff\n      and\n        /* \"contracts/supplierProduct.sol\":1541:1545  spId */\n      sload(0x00)\n        /* \"contracts/supplierProduct.sol\":1517:1623  eventAddSupplierProduct(spId,msg.sender,_name,_description,_unit,_price,_date,_expiryDate,block.timestamp) */\n      0xb544b666bf20d30fc9acbc75aee55e5847e8f95a49aa5d36b6dab734f0cbb303\n        /* \"contracts/supplierProduct.sol\":1557:1562  _name */\n      dup11\n      dup11\n        /* \"contracts/supplierProduct.sol\":1563:1575  _description */\n      dup11\n      dup11\n        /* \"contracts/supplierProduct.sol\":1576:1581  _unit */\n      dup11\n        /* \"contracts/supplierProduct.sol\":1582:1588  _price */\n      dup11\n        /* \"contracts/supplierProduct.sol\":1589:1594  _date */\n      dup11\n        /* \"contracts/supplierProduct.sol\":1595:1606  _expiryDate */\n      dup11\n        /* \"contracts/supplierProduct.sol\":1607:1622  block.timestamp */\n      timestamp\n        /* \"contracts/supplierProduct.sol\":1517:1623  eventAddSupplierProduct(spId,msg.sender,_name,_description,_unit,_price,_date,_expiryDate,block.timestamp) */\n      mload(0x40)\n      tag_114\n      swap10\n      swap9\n      swap8\n      swap7\n      swap6\n      swap5\n      swap4\n      swap3\n      swap2\n      swap1\n      tag_115\n      jump\t// in\n    tag_114:\n      mload(0x40)\n      dup1\n      swap2\n      sub\n      swap1\n      log3\n        /* \"contracts/supplierProduct.sol\":1634:1638  spId */\n      0x00\n      dup1\n        /* \"contracts/supplierProduct.sol\":1634:1640  spId++ */\n      dup2\n      sload\n      dup1\n      swap3\n      swap2\n      swap1\n      tag_116\n      swap1\n      tag_93\n      jump\t// in\n    tag_116:\n      swap2\n      swap1\n      pop\n      sstore\n      pop\n        /* \"contracts/supplierProduct.sol\":1143:1648  function addSupplierProduct(bytes calldata _name,bytes calldata _description,uint128 _unit,uint128 _price,uint32 _date,uint32 _expiryDate)public override  {\r... */\n      pop\n      pop\n      pop\n      pop\n      pop\n      pop\n      pop\n      pop\n      jump\t// out\n        /* \"contracts/supplierProduct.sol\":1715:1983  function updateSupplierProductUints(uint _spId, uint128 _quantity) public override{\r... */\n    tag_49:\n        /* \"contracts/supplierProduct.sol\":1860:1869  _quantity */\n      dup1\n        /* \"contracts/supplierProduct.sol\":1808:1841  supplierProductsIdToStructMapping */\n      0x01\n        /* \"contracts/supplierProduct.sol\":1808:1848  supplierProductsIdToStructMapping[_spId] */\n      0x00\n        /* \"contracts/supplierProduct.sol\":1842:1847  _spId */\n      dup5\n        /* \"contracts/supplierProduct.sol\":1808:1848  supplierProductsIdToStructMapping[_spId] */\n      dup2\n      mstore\n      0x20\n      add\n      swap1\n      dup2\n      mstore\n      0x20\n      add\n      0x00\n      keccak256\n        /* \"contracts/supplierProduct.sol\":1808:1856  supplierProductsIdToStructMapping[_spId].sp_unit */\n      0x03\n      add\n      0x00\n        /* \"contracts/supplierProduct.sol\":1808:1869  supplierProductsIdToStructMapping[_spId].sp_unit -= _quantity */\n      dup3\n      dup3\n      dup3\n      swap1\n      sload\n      swap1\n      0x0100\n      exp\n      swap1\n      div\n      0xffffffffffffffffffffffffffffffff\n      and\n      tag_118\n      swap2\n      swap1\n      tag_119\n      jump\t// in\n    tag_118:\n      swap3\n      pop\n      0x0100\n      exp\n      dup2\n      sload\n      dup2\n      0xffffffffffffffffffffffffffffffff\n      mul\n      not\n      and\n      swap1\n      dup4\n      0xffffffffffffffffffffffffffffffff\n      and\n      mul\n      or\n      swap1\n      sstore\n      pop\n        /* \"contracts/supplierProduct.sol\":1919:1924  _spId */\n      dup2\n        /* \"contracts/supplierProduct.sol\":1887:1975  eventUpdateSupplierProductUints(_spId, supplierProductsIdToStructMapping[_spId].sp_unit) */\n      0x1f3d301eca9b893fb3ae34f526f7b346cfe3086be67884ce1e652593c91668d6\n        /* \"contracts/supplierProduct.sol\":1926:1959  supplierProductsIdToStructMapping */\n      0x01\n        /* \"contracts/supplierProduct.sol\":1926:1966  supplierProductsIdToStructMapping[_spId] */\n      0x00\n        /* \"contracts/supplierProduct.sol\":1960:1965  _spId */\n      dup6\n        /* \"contracts/supplierProduct.sol\":1926:1966  supplierProductsIdToStructMapping[_spId] */\n      dup2\n      mstore\n      0x20\n      add\n      swap1\n      dup2\n      mstore\n      0x20\n      add\n      0x00\n      keccak256\n        /* \"contracts/supplierProduct.sol\":1926:1974  supplierProductsIdToStructMapping[_spId].sp_unit */\n      0x03\n      add\n      0x00\n      swap1\n      sload\n      swap1\n      0x0100\n      exp\n      swap1\n      div\n      0xffffffffffffffffffffffffffffffff\n      and\n        /* \"contracts/supplierProduct.sol\":1887:1975  eventUpdateSupplierProductUints(_spId, supplierProductsIdToStructMapping[_spId].sp_unit) */\n      mload(0x40)\n      tag_120\n      swap2\n      swap1\n      tag_121\n      jump\t// in\n    tag_120:\n      mload(0x40)\n      dup1\n      swap2\n      sub\n      swap1\n      log2\n        /* \"contracts/supplierProduct.sol\":1715:1983  function updateSupplierProductUints(uint _spId, uint128 _quantity) public override{\r... */\n      pop\n      pop\n      jump\t// out\n    tag_73:\n      mload(0x40)\n      dup1\n      0x0100\n      add\n      0x40\n      mstore\n      dup1\n      and(0xffffffffffffffffffffffffffffffffffffffff, 0x00)\n      dup2\n      mstore\n      0x20\n      add\n      0x60\n      dup2\n      mstore\n      0x20\n      add\n      0x60\n      dup2\n      mstore\n      0x20\n      add\n      and(0xffffffffffffffffffffffffffffffff, 0x00)\n      dup2\n      mstore\n      0x20\n      add\n      and(0xffffffffffffffffffffffffffffffff, 0x00)\n      dup2\n      mstore\n      0x20\n      add\n      and(0xffffffff, 0x00)\n      dup2\n      mstore\n      0x20\n      add\n      and(0xffffffff, 0x00)\n      dup2\n      mstore\n      0x20\n      add\n      iszero(iszero(0x00))\n      dup2\n      mstore\n      pop\n      swap1\n      jump\t// out\n    tag_111:\n      dup3\n      dup1\n      sload\n      tag_122\n      swap1\n      tag_53\n      jump\t// in\n    tag_122:\n      swap1\n      0x00\n      mstore\n      keccak256(0x00, 0x20)\n      swap1\n      0x1f\n      add\n      0x20\n      swap1\n      div\n      dup2\n      add\n      swap3\n      dup3\n      tag_124\n      jumpi\n      0x00\n      dup6\n      sstore\n      jump(tag_123)\n    tag_124:\n      dup3\n      0x1f\n      lt\n      tag_125\n      jumpi\n      dup1\n      mload\n      not(0xff)\n      and\n      dup4\n      dup1\n      add\n      or\n      dup6\n      sstore\n      jump(tag_123)\n    tag_125:\n      dup3\n      dup1\n      add\n      0x01\n      add\n      dup6\n      sstore\n      dup3\n      iszero\n      tag_123\n      jumpi\n      swap2\n      dup3\n      add\n    tag_126:\n      dup3\n      dup2\n      gt\n      iszero\n      tag_127\n      jumpi\n      dup3\n      mload\n      dup3\n      sstore\n      swap2\n      0x20\n      add\n      swap2\n      swap1\n      0x01\n      add\n      swap1\n      jump(tag_126)\n    tag_127:\n    tag_123:\n      pop\n      swap1\n      pop\n      tag_128\n      swap2\n      swap1\n      tag_129\n      jump\t// in\n    tag_128:\n      pop\n      swap1\n      jump\t// out\n    tag_129:\n    tag_130:\n      dup1\n      dup3\n      gt\n      iszero\n      tag_131\n      jumpi\n      0x00\n      dup2\n      0x00\n      swap1\n      sstore\n      pop\n      0x01\n      add\n      jump(tag_130)\n    tag_131:\n      pop\n      swap1\n      jump\t// out\n        /* \"#utility.yul\":7:146   */\n    tag_133:\n        /* \"#utility.yul\":53:58   */\n      0x00\n        /* \"#utility.yul\":91:97   */\n      dup2\n        /* \"#utility.yul\":78:98   */\n      calldataload\n        /* \"#utility.yul\":69:98   */\n      swap1\n      pop\n        /* \"#utility.yul\":107:140   */\n      tag_135\n        /* \"#utility.yul\":134:139   */\n      dup2\n        /* \"#utility.yul\":107:140   */\n      tag_136\n      jump\t// in\n    tag_135:\n        /* \"#utility.yul\":7:146   */\n      swap3\n      swap2\n      pop\n      pop\n      jump\t// out\n        /* \"#utility.yul\":165:717   */\n    tag_137:\n        /* \"#utility.yul\":222:230   */\n      0x00\n        /* \"#utility.yul\":232:238   */\n      dup1\n        /* \"#utility.yul\":282:285   */\n      dup4\n        /* \"#utility.yul\":275:279   */\n      0x1f\n        /* \"#utility.yul\":267:273   */\n      dup5\n        /* \"#utility.yul\":263:280   */\n      add\n        /* \"#utility.yul\":259:286   */\n      slt\n        /* \"#utility.yul\":249:371   */\n      tag_139\n      jumpi\n        /* \"#utility.yul\":290:369   */\n      tag_140\n      tag_141\n      jump\t// in\n    tag_140:\n        /* \"#utility.yul\":249:371   */\n    tag_139:\n        /* \"#utility.yul\":403:409   */\n      dup3\n        /* \"#utility.yul\":390:410   */\n      calldataload\n        /* \"#utility.yul\":380:410   */\n      swap1\n      pop\n        /* \"#utility.yul\":433:451   */\n      0xffffffffffffffff\n        /* \"#utility.yul\":425:431   */\n      dup2\n        /* \"#utility.yul\":422:452   */\n      gt\n        /* \"#utility.yul\":419:536   */\n      iszero\n      tag_142\n      jumpi\n        /* \"#utility.yul\":455:534   */\n      tag_143\n      tag_144\n      jump\t// in\n    tag_143:\n        /* \"#utility.yul\":419:536   */\n    tag_142:\n        /* \"#utility.yul\":569:573   */\n      0x20\n        /* \"#utility.yul\":561:567   */\n      dup4\n        /* \"#utility.yul\":557:574   */\n      add\n        /* \"#utility.yul\":545:574   */\n      swap2\n      pop\n        /* \"#utility.yul\":623:626   */\n      dup4\n        /* \"#utility.yul\":615:619   */\n      0x01\n        /* \"#utility.yul\":607:613   */\n      dup3\n        /* \"#utility.yul\":603:620   */\n      mul\n        /* \"#utility.yul\":593:601   */\n      dup4\n        /* \"#utility.yul\":589:621   */\n      add\n        /* \"#utility.yul\":586:627   */\n      gt\n        /* \"#utility.yul\":583:711   */\n      iszero\n      tag_145\n      jumpi\n        /* \"#utility.yul\":630:709   */\n      tag_146\n      tag_147\n      jump\t// in\n    tag_146:\n        /* \"#utility.yul\":583:711   */\n    tag_145:\n        /* \"#utility.yul\":165:717   */\n      swap3\n      pop\n      swap3\n      swap1\n      pop\n      jump\t// out\n        /* \"#utility.yul\":723:862   */\n    tag_148:\n        /* \"#utility.yul\":769:774   */\n      0x00\n        /* \"#utility.yul\":807:813   */\n      dup2\n        /* \"#utility.yul\":794:814   */\n      calldataload\n        /* \"#utility.yul\":785:814   */\n      swap1\n      pop\n        /* \"#utility.yul\":823:856   */\n      tag_150\n        /* \"#utility.yul\":850:855   */\n      dup2\n        /* \"#utility.yul\":823:856   */\n      tag_151\n      jump\t// in\n    tag_150:\n        /* \"#utility.yul\":723:862   */\n      swap3\n      swap2\n      pop\n      pop\n      jump\t// out\n        /* \"#utility.yul\":868:1007   */\n    tag_152:\n        /* \"#utility.yul\":914:919   */\n      0x00\n        /* \"#utility.yul\":952:958   */\n      dup2\n        /* \"#utility.yul\":939:959   */\n      calldataload\n        /* \"#utility.yul\":930:959   */\n      swap1\n      pop\n        /* \"#utility.yul\":968:1001   */\n      tag_154\n        /* \"#utility.yul\":995:1000   */\n      dup2\n        /* \"#utility.yul\":968:1001   */\n      tag_155\n      jump\t// in\n    tag_154:\n        /* \"#utility.yul\":868:1007   */\n      swap3\n      swap2\n      pop\n      pop\n      jump\t// out\n        /* \"#utility.yul\":1013:1150   */\n    tag_156:\n        /* \"#utility.yul\":1058:1063   */\n      0x00\n        /* \"#utility.yul\":1096:1102   */\n      dup2\n        /* \"#utility.yul\":1083:1103   */\n      calldataload\n        /* \"#utility.yul\":1074:1103   */\n      swap1\n      pop\n        /* \"#utility.yul\":1112:1144   */\n      tag_158\n        /* \"#utility.yul\":1138:1143   */\n      dup2\n        /* \"#utility.yul\":1112:1144   */\n      tag_159\n      jump\t// in\n    tag_158:\n        /* \"#utility.yul\":1013:1150   */\n      swap3\n      swap2\n      pop\n      pop\n      jump\t// out\n        /* \"#utility.yul\":1156:1485   */\n    tag_29:\n        /* \"#utility.yul\":1215:1221   */\n      0x00\n        /* \"#utility.yul\":1264:1266   */\n      0x20\n        /* \"#utility.yul\":1252:1261   */\n      dup3\n        /* \"#utility.yul\":1243:1250   */\n      dup5\n        /* \"#utility.yul\":1239:1262   */\n      sub\n        /* \"#utility.yul\":1235:1267   */\n      slt\n        /* \"#utility.yul\":1232:1351   */\n      iszero\n      tag_161\n      jumpi\n        /* \"#utility.yul\":1270:1349   */\n      tag_162\n      tag_163\n      jump\t// in\n    tag_162:\n        /* \"#utility.yul\":1232:1351   */\n    tag_161:\n        /* \"#utility.yul\":1390:1391   */\n      0x00\n        /* \"#utility.yul\":1415:1468   */\n      tag_164\n        /* \"#utility.yul\":1460:1467   */\n      dup5\n        /* \"#utility.yul\":1451:1457   */\n      dup3\n        /* \"#utility.yul\":1440:1449   */\n      dup6\n        /* \"#utility.yul\":1436:1458   */\n      add\n        /* \"#utility.yul\":1415:1468   */\n      tag_133\n      jump\t// in\n    tag_164:\n        /* \"#utility.yul\":1405:1468   */\n      swap2\n      pop\n        /* \"#utility.yul\":1361:1478   */\n      pop\n        /* \"#utility.yul\":1156:1485   */\n      swap3\n      swap2\n      pop\n      pop\n      jump\t// out\n        /* \"#utility.yul\":1491:1965   */\n    tag_14:\n        /* \"#utility.yul\":1559:1565   */\n      0x00\n        /* \"#utility.yul\":1567:1573   */\n      dup1\n        /* \"#utility.yul\":1616:1618   */\n      0x40\n        /* \"#utility.yul\":1604:1613   */\n      dup4\n        /* \"#utility.yul\":1595:1602   */\n      dup6\n        /* \"#utility.yul\":1591:1614   */\n      sub\n        /* \"#utility.yul\":1587:1619   */\n      slt\n        /* \"#utility.yul\":1584:1703   */\n      iszero\n      tag_166\n      jumpi\n        /* \"#utility.yul\":1622:1701   */\n      tag_167\n      tag_163\n      jump\t// in\n    tag_167:\n        /* \"#utility.yul\":1584:1703   */\n    tag_166:\n        /* \"#utility.yul\":1742:1743   */\n      0x00\n        /* \"#utility.yul\":1767:1820   */\n      tag_168\n        /* \"#utility.yul\":1812:1819   */\n      dup6\n        /* \"#utility.yul\":1803:1809   */\n      dup3\n        /* \"#utility.yul\":1792:1801   */\n      dup7\n        /* \"#utility.yul\":1788:1810   */\n      add\n        /* \"#utility.yul\":1767:1820   */\n      tag_133\n      jump\t// in\n    tag_168:\n        /* \"#utility.yul\":1757:1820   */\n      swap3\n      pop\n        /* \"#utility.yul\":1713:1830   */\n      pop\n        /* \"#utility.yul\":1869:1871   */\n      0x20\n        /* \"#utility.yul\":1895:1948   */\n      tag_169\n        /* \"#utility.yul\":1940:1947   */\n      dup6\n        /* \"#utility.yul\":1931:1937   */\n      dup3\n        /* \"#utility.yul\":1920:1929   */\n      dup7\n        /* \"#utility.yul\":1916:1938   */\n      add\n        /* \"#utility.yul\":1895:1948   */\n      tag_152\n      jump\t// in\n    tag_169:\n        /* \"#utility.yul\":1885:1948   */\n      swap2\n      pop\n        /* \"#utility.yul\":1840:1958   */\n      pop\n        /* \"#utility.yul\":1491:1965   */\n      swap3\n      pop\n      swap3\n      swap1\n      pop\n      jump\t// out\n        /* \"#utility.yul\":1971:3420   */\n    tag_44:\n        /* \"#utility.yul\":2095:2101   */\n      0x00\n        /* \"#utility.yul\":2103:2109   */\n      dup1\n        /* \"#utility.yul\":2111:2117   */\n      0x00\n        /* \"#utility.yul\":2119:2125   */\n      dup1\n        /* \"#utility.yul\":2127:2133   */\n      0x00\n        /* \"#utility.yul\":2135:2141   */\n      dup1\n        /* \"#utility.yul\":2143:2149   */\n      0x00\n        /* \"#utility.yul\":2151:2157   */\n      dup1\n        /* \"#utility.yul\":2200:2203   */\n      0xc0\n        /* \"#utility.yul\":2188:2197   */\n      dup10\n        /* \"#utility.yul\":2179:2186   */\n      dup12\n        /* \"#utility.yul\":2175:2198   */\n      sub\n        /* \"#utility.yul\":2171:2204   */\n      slt\n        /* \"#utility.yul\":2168:2288   */\n      iszero\n      tag_171\n      jumpi\n        /* \"#utility.yul\":2207:2286   */\n      tag_172\n      tag_163\n      jump\t// in\n    tag_172:\n        /* \"#utility.yul\":2168:2288   */\n    tag_171:\n        /* \"#utility.yul\":2355:2356   */\n      0x00\n        /* \"#utility.yul\":2344:2353   */\n      dup10\n        /* \"#utility.yul\":2340:2357   */\n      add\n        /* \"#utility.yul\":2327:2358   */\n      calldataload\n        /* \"#utility.yul\":2385:2403   */\n      0xffffffffffffffff\n        /* \"#utility.yul\":2377:2383   */\n      dup2\n        /* \"#utility.yul\":2374:2404   */\n      gt\n        /* \"#utility.yul\":2371:2488   */\n      iszero\n      tag_173\n      jumpi\n        /* \"#utility.yul\":2407:2486   */\n      tag_174\n      tag_175\n      jump\t// in\n    tag_174:\n        /* \"#utility.yul\":2371:2488   */\n    tag_173:\n        /* \"#utility.yul\":2520:2584   */\n      tag_176\n        /* \"#utility.yul\":2576:2583   */\n      dup12\n        /* \"#utility.yul\":2567:2573   */\n      dup3\n        /* \"#utility.yul\":2556:2565   */\n      dup13\n        /* \"#utility.yul\":2552:2574   */\n      add\n        /* \"#utility.yul\":2520:2584   */\n      tag_137\n      jump\t// in\n    tag_176:\n        /* \"#utility.yul\":2502:2584   */\n      swap9\n      pop\n      swap9\n      pop\n        /* \"#utility.yul\":2298:2594   */\n      pop\n        /* \"#utility.yul\":2661:2663   */\n      0x20\n        /* \"#utility.yul\":2650:2659   */\n      dup10\n        /* \"#utility.yul\":2646:2664   */\n      add\n        /* \"#utility.yul\":2633:2665   */\n      calldataload\n        /* \"#utility.yul\":2692:2710   */\n      0xffffffffffffffff\n        /* \"#utility.yul\":2684:2690   */\n      dup2\n        /* \"#utility.yul\":2681:2711   */\n      gt\n        /* \"#utility.yul\":2678:2795   */\n      iszero\n      tag_177\n      jumpi\n        /* \"#utility.yul\":2714:2793   */\n      tag_178\n      tag_175\n      jump\t// in\n    tag_178:\n        /* \"#utility.yul\":2678:2795   */\n    tag_177:\n        /* \"#utility.yul\":2827:2891   */\n      tag_179\n        /* \"#utility.yul\":2883:2890   */\n      dup12\n        /* \"#utility.yul\":2874:2880   */\n      dup3\n        /* \"#utility.yul\":2863:2872   */\n      dup13\n        /* \"#utility.yul\":2859:2881   */\n      add\n        /* \"#utility.yul\":2827:2891   */\n      tag_137\n      jump\t// in\n    tag_179:\n        /* \"#utility.yul\":2809:2891   */\n      swap7\n      pop\n      swap7\n      pop\n        /* \"#utility.yul\":2604:2901   */\n      pop\n        /* \"#utility.yul\":2940:2942   */\n      0x40\n        /* \"#utility.yul\":2966:3019   */\n      tag_180\n        /* \"#utility.yul\":3011:3018   */\n      dup12\n        /* \"#utility.yul\":3002:3008   */\n      dup3\n        /* \"#utility.yul\":2991:3000   */\n      dup13\n        /* \"#utility.yul\":2987:3009   */\n      add\n        /* \"#utility.yul\":2966:3019   */\n      tag_148\n      jump\t// in\n    tag_180:\n        /* \"#utility.yul\":2956:3019   */\n      swap5\n      pop\n        /* \"#utility.yul\":2911:3029   */\n      pop\n        /* \"#utility.yul\":3068:3070   */\n      0x60\n        /* \"#utility.yul\":3094:3147   */\n      tag_181\n        /* \"#utility.yul\":3139:3146   */\n      dup12\n        /* \"#utility.yul\":3130:3136   */\n      dup3\n        /* \"#utility.yul\":3119:3128   */\n      dup13\n        /* \"#utility.yul\":3115:3137   */\n      add\n        /* \"#utility.yul\":3094:3147   */\n      tag_148\n      jump\t// in\n    tag_181:\n        /* \"#utility.yul\":3084:3147   */\n      swap4\n      pop\n        /* \"#utility.yul\":3039:3157   */\n      pop\n        /* \"#utility.yul\":3196:3199   */\n      0x80\n        /* \"#utility.yul\":3223:3275   */\n      tag_182\n        /* \"#utility.yul\":3267:3274   */\n      dup12\n        /* \"#utility.yul\":3258:3264   */\n      dup3\n        /* \"#utility.yul\":3247:3256   */\n      dup13\n        /* \"#utility.yul\":3243:3265   */\n      add\n        /* \"#utility.yul\":3223:3275   */\n      tag_156\n      jump\t// in\n    tag_182:\n        /* \"#utility.yul\":3213:3275   */\n      swap3\n      pop\n        /* \"#utility.yul\":3167:3285   */\n      pop\n        /* \"#utility.yul\":3324:3327   */\n      0xa0\n        /* \"#utility.yul\":3351:3403   */\n      tag_183\n        /* \"#utility.yul\":3395:3402   */\n      dup12\n        /* \"#utility.yul\":3386:3392   */\n      dup3\n        /* \"#utility.yul\":3375:3384   */\n      dup13\n        /* \"#utility.yul\":3371:3393   */\n      add\n        /* \"#utility.yul\":3351:3403   */\n      tag_156\n      jump\t// in\n    tag_183:\n        /* \"#utility.yul\":3341:3403   */\n      swap2\n      pop\n        /* \"#utility.yul\":3295:3413   */\n      pop\n        /* \"#utility.yul\":1971:3420   */\n      swap3\n      swap6\n      swap9\n      pop\n      swap3\n      swap6\n      swap9\n      swap1\n      swap4\n      swap7\n      pop\n      jump\t// out\n        /* \"#utility.yul\":3426:3755   */\n    tag_20:\n        /* \"#utility.yul\":3485:3491   */\n      0x00\n        /* \"#utility.yul\":3534:3536   */\n      0x20\n        /* \"#utility.yul\":3522:3531   */\n      dup3\n        /* \"#utility.yul\":3513:3520   */\n      dup5\n        /* \"#utility.yul\":3509:3532   */\n      sub\n        /* \"#utility.yul\":3505:3537   */\n      slt\n        /* \"#utility.yul\":3502:3621   */\n      iszero\n      tag_185\n      jumpi\n        /* \"#utility.yul\":3540:3619   */\n      tag_186\n      tag_163\n      jump\t// in\n    tag_186:\n        /* \"#utility.yul\":3502:3621   */\n    tag_185:\n        /* \"#utility.yul\":3660:3661   */\n      0x00\n        /* \"#utility.yul\":3685:3738   */\n      tag_187\n        /* \"#utility.yul\":3730:3737   */\n      dup5\n        /* \"#utility.yul\":3721:3727   */\n      dup3\n        /* \"#utility.yul\":3710:3719   */\n      dup6\n        /* \"#utility.yul\":3706:3728   */\n      add\n        /* \"#utility.yul\":3685:3738   */\n      tag_152\n      jump\t// in\n    tag_187:\n        /* \"#utility.yul\":3675:3738   */\n      swap2\n      pop\n        /* \"#utility.yul\":3631:3748   */\n      pop\n        /* \"#utility.yul\":3426:3755   */\n      swap3\n      swap2\n      pop\n      pop\n      jump\t// out\n        /* \"#utility.yul\":3761:4235   */\n    tag_48:\n        /* \"#utility.yul\":3829:3835   */\n      0x00\n        /* \"#utility.yul\":3837:3843   */\n      dup1\n        /* \"#utility.yul\":3886:3888   */\n      0x40\n        /* \"#utility.yul\":3874:3883   */\n      dup4\n        /* \"#utility.yul\":3865:3872   */\n      dup6\n        /* \"#utility.yul\":3861:3884   */\n      sub\n        /* \"#utility.yul\":3857:3889   */\n      slt\n        /* \"#utility.yul\":3854:3973   */\n      iszero\n      tag_189\n      jumpi\n        /* \"#utility.yul\":3892:3971   */\n      tag_190\n      tag_163\n      jump\t// in\n    tag_190:\n        /* \"#utility.yul\":3854:3973   */\n    tag_189:\n        /* \"#utility.yul\":4012:4013   */\n      0x00\n        /* \"#utility.yul\":4037:4090   */\n      tag_191\n        /* \"#utility.yul\":4082:4089   */\n      dup6\n        /* \"#utility.yul\":4073:4079   */\n      dup3\n        /* \"#utility.yul\":4062:4071   */\n      dup7\n        /* \"#utility.yul\":4058:4080   */\n      add\n        /* \"#utility.yul\":4037:4090   */\n      tag_152\n      jump\t// in\n    tag_191:\n        /* \"#utility.yul\":4027:4090   */\n      swap3\n      pop\n        /* \"#utility.yul\":3983:4100   */\n      pop\n        /* \"#utility.yul\":4139:4141   */\n      0x20\n        /* \"#utility.yul\":4165:4218   */\n      tag_192\n        /* \"#utility.yul\":4210:4217   */\n      dup6\n        /* \"#utility.yul\":4201:4207   */\n      dup3\n        /* \"#utility.yul\":4190:4199   */\n      dup7\n        /* \"#utility.yul\":4186:4208   */\n      add\n        /* \"#utility.yul\":4165:4218   */\n      tag_148\n      jump\t// in\n    tag_192:\n        /* \"#utility.yul\":4155:4218   */\n      swap2\n      pop\n        /* \"#utility.yul\":4110:4228   */\n      pop\n        /* \"#utility.yul\":3761:4235   */\n      swap3\n      pop\n      swap3\n      swap1\n      pop\n      jump\t// out\n        /* \"#utility.yul\":4241:4521   */\n    tag_193:\n        /* \"#utility.yul\":4372:4382   */\n      0x00\n        /* \"#utility.yul\":4407:4515   */\n      tag_195\n        /* \"#utility.yul\":4511:4514   */\n      dup4\n        /* \"#utility.yul\":4503:4509   */\n      dup4\n        /* \"#utility.yul\":4407:4515   */\n      tag_196\n      jump\t// in\n    tag_195:\n        /* \"#utility.yul\":4393:4515   */\n      swap1\n      pop\n        /* \"#utility.yul\":4241:4521   */\n      swap3\n      swap2\n      pop\n      pop\n      jump\t// out\n        /* \"#utility.yul\":4527:4706   */\n    tag_197:\n        /* \"#utility.yul\":4596:4606   */\n      0x00\n        /* \"#utility.yul\":4617:4663   */\n      tag_199\n        /* \"#utility.yul\":4659:4662   */\n      dup4\n        /* \"#utility.yul\":4651:4657   */\n      dup4\n        /* \"#utility.yul\":4617:4663   */\n      tag_200\n      jump\t// in\n    tag_199:\n        /* \"#utility.yul\":4695:4699   */\n      0x20\n        /* \"#utility.yul\":4690:4693   */\n      dup4\n        /* \"#utility.yul\":4686:4700   */\n      add\n        /* \"#utility.yul\":4672:4700   */\n      swap1\n      pop\n        /* \"#utility.yul\":4527:4706   */\n      swap3\n      swap2\n      pop\n      pop\n      jump\t// out\n        /* \"#utility.yul\":4712:4820   */\n    tag_201:\n        /* \"#utility.yul\":4789:4813   */\n      tag_203\n        /* \"#utility.yul\":4807:4812   */\n      dup2\n        /* \"#utility.yul\":4789:4813   */\n      tag_204\n      jump\t// in\n    tag_203:\n        /* \"#utility.yul\":4784:4787   */\n      dup3\n        /* \"#utility.yul\":4777:4814   */\n      mstore\n        /* \"#utility.yul\":4712:4820   */\n      pop\n      pop\n      jump\t// out\n        /* \"#utility.yul\":4826:4944   */\n    tag_205:\n        /* \"#utility.yul\":4913:4937   */\n      tag_207\n        /* \"#utility.yul\":4931:4936   */\n      dup2\n        /* \"#utility.yul\":4913:4937   */\n      tag_204\n      jump\t// in\n    tag_207:\n        /* \"#utility.yul\":4908:4911   */\n      dup3\n        /* \"#utility.yul\":4901:4938   */\n      mstore\n        /* \"#utility.yul\":4826:4944   */\n      pop\n      pop\n      jump\t// out\n        /* \"#utility.yul\":5044:6203   */\n    tag_208:\n        /* \"#utility.yul\":5225:5228   */\n      0x00\n        /* \"#utility.yul\":5254:5339   */\n      tag_210\n        /* \"#utility.yul\":5333:5338   */\n      dup3\n        /* \"#utility.yul\":5254:5339   */\n      tag_211\n      jump\t// in\n    tag_210:\n        /* \"#utility.yul\":5355:5472   */\n      tag_212\n        /* \"#utility.yul\":5465:5471   */\n      dup2\n        /* \"#utility.yul\":5460:5463   */\n      dup6\n        /* \"#utility.yul\":5355:5472   */\n      tag_213\n      jump\t// in\n    tag_212:\n        /* \"#utility.yul\":5348:5472   */\n      swap4\n      pop\n        /* \"#utility.yul\":5498:5501   */\n      dup4\n        /* \"#utility.yul\":5543:5547   */\n      0x20\n        /* \"#utility.yul\":5535:5541   */\n      dup3\n        /* \"#utility.yul\":5531:5548   */\n      mul\n        /* \"#utility.yul\":5526:5529   */\n      dup6\n        /* \"#utility.yul\":5522:5549   */\n      add\n        /* \"#utility.yul\":5573:5660   */\n      tag_214\n        /* \"#utility.yul\":5654:5659   */\n      dup6\n        /* \"#utility.yul\":5573:5660   */\n      tag_215\n      jump\t// in\n    tag_214:\n        /* \"#utility.yul\":5683:5690   */\n      dup1\n        /* \"#utility.yul\":5714:5715   */\n      0x00\n        /* \"#utility.yul\":5699:6158   */\n    tag_216:\n        /* \"#utility.yul\":5724:5730   */\n      dup6\n        /* \"#utility.yul\":5721:5722   */\n      dup2\n        /* \"#utility.yul\":5718:5731   */\n      lt\n        /* \"#utility.yul\":5699:6158   */\n      iszero\n      tag_218\n      jumpi\n        /* \"#utility.yul\":5795:5804   */\n      dup5\n        /* \"#utility.yul\":5789:5793   */\n      dup5\n        /* \"#utility.yul\":5785:5805   */\n      sub\n        /* \"#utility.yul\":5780:5783   */\n      dup10\n        /* \"#utility.yul\":5773:5806   */\n      mstore\n        /* \"#utility.yul\":5846:5852   */\n      dup2\n        /* \"#utility.yul\":5840:5853   */\n      mload\n        /* \"#utility.yul\":5874:6000   */\n      tag_219\n        /* \"#utility.yul\":5995:5999   */\n      dup6\n        /* \"#utility.yul\":5980:5993   */\n      dup3\n        /* \"#utility.yul\":5874:6000   */\n      tag_193\n      jump\t// in\n    tag_219:\n        /* \"#utility.yul\":5866:6000   */\n      swap5\n      pop\n        /* \"#utility.yul\":6023:6114   */\n      tag_220\n        /* \"#utility.yul\":6107:6113   */\n      dup4\n        /* \"#utility.yul\":6023:6114   */\n      tag_221\n      jump\t// in\n    tag_220:\n        /* \"#utility.yul\":6013:6114   */\n      swap3\n      pop\n        /* \"#utility.yul\":6143:6147   */\n      0x20\n        /* \"#utility.yul\":6138:6141   */\n      dup11\n        /* \"#utility.yul\":6134:6148   */\n      add\n        /* \"#utility.yul\":6127:6148   */\n      swap10\n      pop\n        /* \"#utility.yul\":5759:6158   */\n      pop\n        /* \"#utility.yul\":5746:5747   */\n      0x01\n        /* \"#utility.yul\":5743:5744   */\n      dup2\n        /* \"#utility.yul\":5739:5748   */\n      add\n        /* \"#utility.yul\":5734:5748   */\n      swap1\n      pop\n        /* \"#utility.yul\":5699:6158   */\n      jump(tag_216)\n    tag_218:\n        /* \"#utility.yul\":5703:5717   */\n      pop\n        /* \"#utility.yul\":6174:6178   */\n      dup3\n        /* \"#utility.yul\":6167:6178   */\n      swap8\n      pop\n        /* \"#utility.yul\":6194:6197   */\n      dup8\n        /* \"#utility.yul\":6187:6197   */\n      swap6\n      pop\n        /* \"#utility.yul\":5230:6203   */\n      pop\n      pop\n      pop\n      pop\n      pop\n        /* \"#utility.yul\":5044:6203   */\n      swap3\n      swap2\n      pop\n      pop\n      jump\t// out\n        /* \"#utility.yul\":6239:6971   */\n    tag_222:\n        /* \"#utility.yul\":6358:6361   */\n      0x00\n        /* \"#utility.yul\":6387:6441   */\n      tag_224\n        /* \"#utility.yul\":6435:6440   */\n      dup3\n        /* \"#utility.yul\":6387:6441   */\n      tag_225\n      jump\t// in\n    tag_224:\n        /* \"#utility.yul\":6457:6543   */\n      tag_226\n        /* \"#utility.yul\":6536:6542   */\n      dup2\n        /* \"#utility.yul\":6531:6534   */\n      dup6\n        /* \"#utility.yul\":6457:6543   */\n      tag_227\n      jump\t// in\n    tag_226:\n        /* \"#utility.yul\":6450:6543   */\n      swap4\n      pop\n        /* \"#utility.yul\":6567:6623   */\n      tag_228\n        /* \"#utility.yul\":6617:6622   */\n      dup4\n        /* \"#utility.yul\":6567:6623   */\n      tag_229\n      jump\t// in\n    tag_228:\n        /* \"#utility.yul\":6646:6653   */\n      dup1\n        /* \"#utility.yul\":6677:6678   */\n      0x00\n        /* \"#utility.yul\":6662:6946   */\n    tag_230:\n        /* \"#utility.yul\":6687:6693   */\n      dup4\n        /* \"#utility.yul\":6684:6685   */\n      dup2\n        /* \"#utility.yul\":6681:6694   */\n      lt\n        /* \"#utility.yul\":6662:6946   */\n      iszero\n      tag_232\n      jumpi\n        /* \"#utility.yul\":6763:6769   */\n      dup2\n        /* \"#utility.yul\":6757:6770   */\n      mload\n        /* \"#utility.yul\":6790:6853   */\n      tag_233\n        /* \"#utility.yul\":6849:6852   */\n      dup9\n        /* \"#utility.yul\":6834:6847   */\n      dup3\n        /* \"#utility.yul\":6790:6853   */\n      tag_197\n      jump\t// in\n    tag_233:\n        /* \"#utility.yul\":6783:6853   */\n      swap8\n      pop\n        /* \"#utility.yul\":6876:6936   */\n      tag_234\n        /* \"#utility.yul\":6929:6935   */\n      dup4\n        /* \"#utility.yul\":6876:6936   */\n      tag_235\n      jump\t// in\n    tag_234:\n        /* \"#utility.yul\":6866:6936   */\n      swap3\n      pop\n        /* \"#utility.yul\":6722:6946   */\n      pop\n        /* \"#utility.yul\":6709:6710   */\n      0x01\n        /* \"#utility.yul\":6706:6707   */\n      dup2\n        /* \"#utility.yul\":6702:6711   */\n      add\n        /* \"#utility.yul\":6697:6711   */\n      swap1\n      pop\n        /* \"#utility.yul\":6662:6946   */\n      jump(tag_230)\n    tag_232:\n        /* \"#utility.yul\":6666:6680   */\n      pop\n        /* \"#utility.yul\":6962:6965   */\n      dup6\n        /* \"#utility.yul\":6955:6965   */\n      swap4\n      pop\n        /* \"#utility.yul\":6363:6971   */\n      pop\n      pop\n      pop\n        /* \"#utility.yul\":6239:6971   */\n      swap3\n      swap2\n      pop\n      pop\n      jump\t// out\n        /* \"#utility.yul\":6977:7076   */\n    tag_236:\n        /* \"#utility.yul\":7048:7069   */\n      tag_238\n        /* \"#utility.yul\":7063:7068   */\n      dup2\n        /* \"#utility.yul\":7048:7069   */\n      tag_239\n      jump\t// in\n    tag_238:\n        /* \"#utility.yul\":7043:7046   */\n      dup3\n        /* \"#utility.yul\":7036:7070   */\n      mstore\n        /* \"#utility.yul\":6977:7076   */\n      pop\n      pop\n      jump\t// out\n        /* \"#utility.yul\":7082:7191   */\n    tag_240:\n        /* \"#utility.yul\":7163:7184   */\n      tag_242\n        /* \"#utility.yul\":7178:7183   */\n      dup2\n        /* \"#utility.yul\":7163:7184   */\n      tag_239\n      jump\t// in\n    tag_242:\n        /* \"#utility.yul\":7158:7161   */\n      dup3\n        /* \"#utility.yul\":7151:7185   */\n      mstore\n        /* \"#utility.yul\":7082:7191   */\n      pop\n      pop\n      jump\t// out\n        /* \"#utility.yul\":7219:7520   */\n    tag_243:\n        /* \"#utility.yul\":7315:7318   */\n      0x00\n        /* \"#utility.yul\":7336:7406   */\n      tag_245\n        /* \"#utility.yul\":7399:7405   */\n      dup4\n        /* \"#utility.yul\":7394:7397   */\n      dup6\n        /* \"#utility.yul\":7336:7406   */\n      tag_246\n      jump\t// in\n    tag_245:\n        /* \"#utility.yul\":7329:7406   */\n      swap4\n      pop\n        /* \"#utility.yul\":7416:7459   */\n      tag_247\n        /* \"#utility.yul\":7452:7458   */\n      dup4\n        /* \"#utility.yul\":7447:7450   */\n      dup6\n        /* \"#utility.yul\":7440:7445   */\n      dup5\n        /* \"#utility.yul\":7416:7459   */\n      tag_248\n      jump\t// in\n    tag_247:\n        /* \"#utility.yul\":7484:7513   */\n      tag_249\n        /* \"#utility.yul\":7506:7512   */\n      dup4\n        /* \"#utility.yul\":7484:7513   */\n      tag_250\n      jump\t// in\n    tag_249:\n        /* \"#utility.yul\":7479:7482   */\n      dup5\n        /* \"#utility.yul\":7475:7514   */\n      add\n        /* \"#utility.yul\":7468:7514   */\n      swap1\n      pop\n        /* \"#utility.yul\":7219:7520   */\n      swap4\n      swap3\n      pop\n      pop\n      pop\n      jump\t// out\n        /* \"#utility.yul\":7526:7866   */\n    tag_251:\n        /* \"#utility.yul\":7602:7605   */\n      0x00\n        /* \"#utility.yul\":7630:7668   */\n      tag_253\n        /* \"#utility.yul\":7662:7667   */\n      dup3\n        /* \"#utility.yul\":7630:7668   */\n      tag_254\n      jump\t// in\n    tag_253:\n        /* \"#utility.yul\":7684:7744   */\n      tag_255\n        /* \"#utility.yul\":7737:7743   */\n      dup2\n        /* \"#utility.yul\":7732:7735   */\n      dup6\n        /* \"#utility.yul\":7684:7744   */\n      tag_256\n      jump\t// in\n    tag_255:\n        /* \"#utility.yul\":7677:7744   */\n      swap4\n      pop\n        /* \"#utility.yul\":7753:7805   */\n      tag_257\n        /* \"#utility.yul\":7798:7804   */\n      dup2\n        /* \"#utility.yul\":7793:7796   */\n      dup6\n        /* \"#utility.yul\":7786:7790   */\n      0x20\n        /* \"#utility.yul\":7779:7784   */\n      dup7\n        /* \"#utility.yul\":7775:7791   */\n      add\n        /* \"#utility.yul\":7753:7805   */\n      tag_258\n      jump\t// in\n    tag_257:\n        /* \"#utility.yul\":7830:7859   */\n      tag_259\n        /* \"#utility.yul\":7852:7858   */\n      dup2\n        /* \"#utility.yul\":7830:7859   */\n      tag_250\n      jump\t// in\n    tag_259:\n        /* \"#utility.yul\":7825:7828   */\n      dup5\n        /* \"#utility.yul\":7821:7860   */\n      add\n        /* \"#utility.yul\":7814:7860   */\n      swap2\n      pop\n        /* \"#utility.yul\":7606:7866   */\n      pop\n        /* \"#utility.yul\":7526:7866   */\n      swap3\n      swap2\n      pop\n      pop\n      jump\t// out\n        /* \"#utility.yul\":7872:8232   */\n    tag_260:\n        /* \"#utility.yul\":7958:7961   */\n      0x00\n        /* \"#utility.yul\":7986:8024   */\n      tag_262\n        /* \"#utility.yul\":8018:8023   */\n      dup3\n        /* \"#utility.yul\":7986:8024   */\n      tag_254\n      jump\t// in\n    tag_262:\n        /* \"#utility.yul\":8040:8110   */\n      tag_263\n        /* \"#utility.yul\":8103:8109   */\n      dup2\n        /* \"#utility.yul\":8098:8101   */\n      dup6\n        /* \"#utility.yul\":8040:8110   */\n      tag_246\n      jump\t// in\n    tag_263:\n        /* \"#utility.yul\":8033:8110   */\n      swap4\n      pop\n        /* \"#utility.yul\":8119:8171   */\n      tag_264\n        /* \"#utility.yul\":8164:8170   */\n      dup2\n        /* \"#utility.yul\":8159:8162   */\n      dup6\n        /* \"#utility.yul\":8152:8156   */\n      0x20\n        /* \"#utility.yul\":8145:8150   */\n      dup7\n        /* \"#utility.yul\":8141:8157   */\n      add\n        /* \"#utility.yul\":8119:8171   */\n      tag_258\n      jump\t// in\n    tag_264:\n        /* \"#utility.yul\":8196:8225   */\n      tag_265\n        /* \"#utility.yul\":8218:8224   */\n      dup2\n        /* \"#utility.yul\":8196:8225   */\n      tag_250\n      jump\t// in\n    tag_265:\n        /* \"#utility.yul\":8191:8194   */\n      dup5\n        /* \"#utility.yul\":8187:8226   */\n      add\n        /* \"#utility.yul\":8180:8226   */\n      swap2\n      pop\n        /* \"#utility.yul\":7962:8232   */\n      pop\n        /* \"#utility.yul\":7872:8232   */\n      swap3\n      swap2\n      pop\n      pop\n      jump\t// out\n        /* \"#utility.yul\":8328:10087   */\n    tag_196:\n        /* \"#utility.yul\":8449:8452   */\n      0x00\n        /* \"#utility.yul\":8485:8491   */\n      0x0100\n        /* \"#utility.yul\":8480:8483   */\n      dup4\n        /* \"#utility.yul\":8476:8492   */\n      add\n        /* \"#utility.yul\":8585:8589   */\n      0x00\n        /* \"#utility.yul\":8578:8583   */\n      dup4\n        /* \"#utility.yul\":8574:8590   */\n      add\n        /* \"#utility.yul\":8568:8591   */\n      mload\n        /* \"#utility.yul\":8604:8667   */\n      tag_267\n        /* \"#utility.yul\":8661:8665   */\n      0x00\n        /* \"#utility.yul\":8656:8659   */\n      dup7\n        /* \"#utility.yul\":8652:8666   */\n      add\n        /* \"#utility.yul\":8638:8650   */\n      dup3\n        /* \"#utility.yul\":8604:8667   */\n      tag_201\n      jump\t// in\n    tag_267:\n        /* \"#utility.yul\":8502:8677   */\n      pop\n        /* \"#utility.yul\":8762:8766   */\n      0x20\n        /* \"#utility.yul\":8755:8760   */\n      dup4\n        /* \"#utility.yul\":8751:8767   */\n      add\n        /* \"#utility.yul\":8745:8768   */\n      mload\n        /* \"#utility.yul\":8815:8818   */\n      dup5\n        /* \"#utility.yul\":8809:8813   */\n      dup3\n        /* \"#utility.yul\":8805:8819   */\n      sub\n        /* \"#utility.yul\":8798:8802   */\n      0x20\n        /* \"#utility.yul\":8793:8796   */\n      dup7\n        /* \"#utility.yul\":8789:8803   */\n      add\n        /* \"#utility.yul\":8782:8820   */\n      mstore\n        /* \"#utility.yul\":8841:8912   */\n      tag_268\n        /* \"#utility.yul\":8907:8911   */\n      dup3\n        /* \"#utility.yul\":8893:8905   */\n      dup3\n        /* \"#utility.yul\":8841:8912   */\n      tag_251\n      jump\t// in\n    tag_268:\n        /* \"#utility.yul\":8833:8912   */\n      swap2\n      pop\n        /* \"#utility.yul\":8687:8923   */\n      pop\n        /* \"#utility.yul\":9015:9019   */\n      0x40\n        /* \"#utility.yul\":9008:9013   */\n      dup4\n        /* \"#utility.yul\":9004:9020   */\n      add\n        /* \"#utility.yul\":8998:9021   */\n      mload\n        /* \"#utility.yul\":9068:9071   */\n      dup5\n        /* \"#utility.yul\":9062:9066   */\n      dup3\n        /* \"#utility.yul\":9058:9072   */\n      sub\n        /* \"#utility.yul\":9051:9055   */\n      0x40\n        /* \"#utility.yul\":9046:9049   */\n      dup7\n        /* \"#utility.yul\":9042:9056   */\n      add\n        /* \"#utility.yul\":9035:9073   */\n      mstore\n        /* \"#utility.yul\":9094:9165   */\n      tag_269\n        /* \"#utility.yul\":9160:9164   */\n      dup3\n        /* \"#utility.yul\":9146:9158   */\n      dup3\n        /* \"#utility.yul\":9094:9165   */\n      tag_251\n      jump\t// in\n    tag_269:\n        /* \"#utility.yul\":9086:9165   */\n      swap2\n      pop\n        /* \"#utility.yul\":8933:9176   */\n      pop\n        /* \"#utility.yul\":9261:9265   */\n      0x60\n        /* \"#utility.yul\":9254:9259   */\n      dup4\n        /* \"#utility.yul\":9250:9266   */\n      add\n        /* \"#utility.yul\":9244:9267   */\n      mload\n        /* \"#utility.yul\":9280:9343   */\n      tag_270\n        /* \"#utility.yul\":9337:9341   */\n      0x60\n        /* \"#utility.yul\":9332:9335   */\n      dup7\n        /* \"#utility.yul\":9328:9342   */\n      add\n        /* \"#utility.yul\":9314:9326   */\n      dup3\n        /* \"#utility.yul\":9280:9343   */\n      tag_271\n      jump\t// in\n    tag_270:\n        /* \"#utility.yul\":9186:9353   */\n      pop\n        /* \"#utility.yul\":9439:9443   */\n      0x80\n        /* \"#utility.yul\":9432:9437   */\n      dup4\n        /* \"#utility.yul\":9428:9444   */\n      add\n        /* \"#utility.yul\":9422:9445   */\n      mload\n        /* \"#utility.yul\":9458:9521   */\n      tag_272\n        /* \"#utility.yul\":9515:9519   */\n      0x80\n        /* \"#utility.yul\":9510:9513   */\n      dup7\n        /* \"#utility.yul\":9506:9520   */\n      add\n        /* \"#utility.yul\":9492:9504   */\n      dup3\n        /* \"#utility.yul\":9458:9521   */\n      tag_271\n      jump\t// in\n    tag_272:\n        /* \"#utility.yul\":9363:9531   */\n      pop\n        /* \"#utility.yul\":9616:9620   */\n      0xa0\n        /* \"#utility.yul\":9609:9614   */\n      dup4\n        /* \"#utility.yul\":9605:9621   */\n      add\n        /* \"#utility.yul\":9599:9622   */\n      mload\n        /* \"#utility.yul\":9635:9696   */\n      tag_273\n        /* \"#utility.yul\":9690:9694   */\n      0xa0\n        /* \"#utility.yul\":9685:9688   */\n      dup7\n        /* \"#utility.yul\":9681:9695   */\n      add\n        /* \"#utility.yul\":9667:9679   */\n      dup3\n        /* \"#utility.yul\":9635:9696   */\n      tag_274\n      jump\t// in\n    tag_273:\n        /* \"#utility.yul\":9541:9706   */\n      pop\n        /* \"#utility.yul\":9797:9801   */\n      0xc0\n        /* \"#utility.yul\":9790:9795   */\n      dup4\n        /* \"#utility.yul\":9786:9802   */\n      add\n        /* \"#utility.yul\":9780:9803   */\n      mload\n        /* \"#utility.yul\":9816:9877   */\n      tag_275\n        /* \"#utility.yul\":9871:9875   */\n      0xc0\n        /* \"#utility.yul\":9866:9869   */\n      dup7\n        /* \"#utility.yul\":9862:9876   */\n      add\n        /* \"#utility.yul\":9848:9860   */\n      dup3\n        /* \"#utility.yul\":9816:9877   */\n      tag_274\n      jump\t// in\n    tag_275:\n        /* \"#utility.yul\":9716:9887   */\n      pop\n        /* \"#utility.yul\":9974:9978   */\n      0xe0\n        /* \"#utility.yul\":9967:9972   */\n      dup4\n        /* \"#utility.yul\":9963:9979   */\n      add\n        /* \"#utility.yul\":9957:9980   */\n      mload\n        /* \"#utility.yul\":9993:10050   */\n      tag_276\n        /* \"#utility.yul\":10044:10048   */\n      0xe0\n        /* \"#utility.yul\":10039:10042   */\n      dup7\n        /* \"#utility.yul\":10035:10049   */\n      add\n        /* \"#utility.yul\":10021:10033   */\n      dup3\n        /* \"#utility.yul\":9993:10050   */\n      tag_236\n      jump\t// in\n    tag_276:\n        /* \"#utility.yul\":9897:10060   */\n      pop\n        /* \"#utility.yul\":10077:10081   */\n      dup1\n        /* \"#utility.yul\":10070:10081   */\n      swap2\n      pop\n        /* \"#utility.yul\":8454:10087   */\n      pop\n        /* \"#utility.yul\":8328:10087   */\n      swap3\n      swap2\n      pop\n      pop\n      jump\t// out\n        /* \"#utility.yul\":10183:11952   */\n    tag_277:\n        /* \"#utility.yul\":10314:10317   */\n      0x00\n        /* \"#utility.yul\":10350:10356   */\n      0x0100\n        /* \"#utility.yul\":10345:10348   */\n      dup4\n        /* \"#utility.yul\":10341:10357   */\n      add\n        /* \"#utility.yul\":10450:10454   */\n      0x00\n        /* \"#utility.yul\":10443:10448   */\n      dup4\n        /* \"#utility.yul\":10439:10455   */\n      add\n        /* \"#utility.yul\":10433:10456   */\n      mload\n        /* \"#utility.yul\":10469:10532   */\n      tag_279\n        /* \"#utility.yul\":10526:10530   */\n      0x00\n        /* \"#utility.yul\":10521:10524   */\n      dup7\n        /* \"#utility.yul\":10517:10531   */\n      add\n        /* \"#utility.yul\":10503:10515   */\n      dup3\n        /* \"#utility.yul\":10469:10532   */\n      tag_201\n      jump\t// in\n    tag_279:\n        /* \"#utility.yul\":10367:10542   */\n      pop\n        /* \"#utility.yul\":10627:10631   */\n      0x20\n        /* \"#utility.yul\":10620:10625   */\n      dup4\n        /* \"#utility.yul\":10616:10632   */\n      add\n        /* \"#utility.yul\":10610:10633   */\n      mload\n        /* \"#utility.yul\":10680:10683   */\n      dup5\n        /* \"#utility.yul\":10674:10678   */\n      dup3\n        /* \"#utility.yul\":10670:10684   */\n      sub\n        /* \"#utility.yul\":10663:10667   */\n      0x20\n        /* \"#utility.yul\":10658:10661   */\n      dup7\n        /* \"#utility.yul\":10654:10668   */\n      add\n        /* \"#utility.yul\":10647:10685   */\n      mstore\n        /* \"#utility.yul\":10706:10777   */\n      tag_280\n        /* \"#utility.yul\":10772:10776   */\n      dup3\n        /* \"#utility.yul\":10758:10770   */\n      dup3\n        /* \"#utility.yul\":10706:10777   */\n      tag_251\n      jump\t// in\n    tag_280:\n        /* \"#utility.yul\":10698:10777   */\n      swap2\n      pop\n        /* \"#utility.yul\":10552:10788   */\n      pop\n        /* \"#utility.yul\":10880:10884   */\n      0x40\n        /* \"#utility.yul\":10873:10878   */\n      dup4\n        /* \"#utility.yul\":10869:10885   */\n      add\n        /* \"#utility.yul\":10863:10886   */\n      mload\n        /* \"#utility.yul\":10933:10936   */\n      dup5\n        /* \"#utility.yul\":10927:10931   */\n      dup3\n        /* \"#utility.yul\":10923:10937   */\n      sub\n        /* \"#utility.yul\":10916:10920   */\n      0x40\n        /* \"#utility.yul\":10911:10914   */\n      dup7\n        /* \"#utility.yul\":10907:10921   */\n      add\n        /* \"#utility.yul\":10900:10938   */\n      mstore\n        /* \"#utility.yul\":10959:11030   */\n      tag_281\n        /* \"#utility.yul\":11025:11029   */\n      dup3\n        /* \"#utility.yul\":11011:11023   */\n      dup3\n        /* \"#utility.yul\":10959:11030   */\n      tag_251\n      jump\t// in\n    tag_281:\n        /* \"#utility.yul\":10951:11030   */\n      swap2\n      pop\n        /* \"#utility.yul\":10798:11041   */\n      pop\n        /* \"#utility.yul\":11126:11130   */\n      0x60\n        /* \"#utility.yul\":11119:11124   */\n      dup4\n        /* \"#utility.yul\":11115:11131   */\n      add\n        /* \"#utility.yul\":11109:11132   */\n      mload\n        /* \"#utility.yul\":11145:11208   */\n      tag_282\n        /* \"#utility.yul\":11202:11206   */\n      0x60\n        /* \"#utility.yul\":11197:11200   */\n      dup7\n        /* \"#utility.yul\":11193:11207   */\n      add\n        /* \"#utility.yul\":11179:11191   */\n      dup3\n        /* \"#utility.yul\":11145:11208   */\n      tag_271\n      jump\t// in\n    tag_282:\n        /* \"#utility.yul\":11051:11218   */\n      pop\n        /* \"#utility.yul\":11304:11308   */\n      0x80\n        /* \"#utility.yul\":11297:11302   */\n      dup4\n        /* \"#utility.yul\":11293:11309   */\n      add\n        /* \"#utility.yul\":11287:11310   */\n      mload\n        /* \"#utility.yul\":11323:11386   */\n      tag_283\n        /* \"#utility.yul\":11380:11384   */\n      0x80\n        /* \"#utility.yul\":11375:11378   */\n      dup7\n        /* \"#utility.yul\":11371:11385   */\n      add\n        /* \"#utility.yul\":11357:11369   */\n      dup3\n        /* \"#utility.yul\":11323:11386   */\n      tag_271\n      jump\t// in\n    tag_283:\n        /* \"#utility.yul\":11228:11396   */\n      pop\n        /* \"#utility.yul\":11481:11485   */\n      0xa0\n        /* \"#utility.yul\":11474:11479   */\n      dup4\n        /* \"#utility.yul\":11470:11486   */\n      add\n        /* \"#utility.yul\":11464:11487   */\n      mload\n        /* \"#utility.yul\":11500:11561   */\n      tag_284\n        /* \"#utility.yul\":11555:11559   */\n      0xa0\n        /* \"#utility.yul\":11550:11553   */\n      dup7\n        /* \"#utility.yul\":11546:11560   */\n      add\n        /* \"#utility.yul\":11532:11544   */\n      dup3\n        /* \"#utility.yul\":11500:11561   */\n      tag_274\n      jump\t// in\n    tag_284:\n        /* \"#utility.yul\":11406:11571   */\n      pop\n        /* \"#utility.yul\":11662:11666   */\n      0xc0\n        /* \"#utility.yul\":11655:11660   */\n      dup4\n        /* \"#utility.yul\":11651:11667   */\n      add\n        /* \"#utility.yul\":11645:11668   */\n      mload\n        /* \"#utility.yul\":11681:11742   */\n      tag_285\n        /* \"#utility.yul\":11736:11740   */\n      0xc0\n        /* \"#utility.yul\":11731:11734   */\n      dup7\n        /* \"#utility.yul\":11727:11741   */\n      add\n        /* \"#utility.yul\":11713:11725   */\n      dup3\n        /* \"#utility.yul\":11681:11742   */\n      tag_274\n      jump\t// in\n    tag_285:\n        /* \"#utility.yul\":11581:11752   */\n      pop\n        /* \"#utility.yul\":11839:11843   */\n      0xe0\n        /* \"#utility.yul\":11832:11837   */\n      dup4\n        /* \"#utility.yul\":11828:11844   */\n      add\n        /* \"#utility.yul\":11822:11845   */\n      mload\n        /* \"#utility.yul\":11858:11915   */\n      tag_286\n        /* \"#utility.yul\":11909:11913   */\n      0xe0\n        /* \"#utility.yul\":11904:11907   */\n      dup7\n        /* \"#utility.yul\":11900:11914   */\n      add\n        /* \"#utility.yul\":11886:11898   */\n      dup3\n        /* \"#utility.yul\":11858:11915   */\n      tag_236\n      jump\t// in\n    tag_286:\n        /* \"#utility.yul\":11762:11925   */\n      pop\n        /* \"#utility.yul\":11942:11946   */\n      dup1\n        /* \"#utility.yul\":11935:11946   */\n      swap2\n      pop\n        /* \"#utility.yul\":10319:11952   */\n      pop\n        /* \"#utility.yul\":10183:11952   */\n      swap3\n      swap2\n      pop\n      pop\n      jump\t// out\n        /* \"#utility.yul\":11958:12066   */\n    tag_271:\n        /* \"#utility.yul\":12035:12059   */\n      tag_288\n        /* \"#utility.yul\":12053:12058   */\n      dup2\n        /* \"#utility.yul\":12035:12059   */\n      tag_289\n      jump\t// in\n    tag_288:\n        /* \"#utility.yul\":12030:12033   */\n      dup3\n        /* \"#utility.yul\":12023:12060   */\n      mstore\n        /* \"#utility.yul\":11958:12066   */\n      pop\n      pop\n      jump\t// out\n        /* \"#utility.yul\":12072:12190   */\n    tag_290:\n        /* \"#utility.yul\":12159:12183   */\n      tag_292\n        /* \"#utility.yul\":12177:12182   */\n      dup2\n        /* \"#utility.yul\":12159:12183   */\n      tag_289\n      jump\t// in\n    tag_292:\n        /* \"#utility.yul\":12154:12157   */\n      dup3\n        /* \"#utility.yul\":12147:12184   */\n      mstore\n        /* \"#utility.yul\":12072:12190   */\n      pop\n      pop\n      jump\t// out\n        /* \"#utility.yul\":12196:12304   */\n    tag_200:\n        /* \"#utility.yul\":12273:12297   */\n      tag_294\n        /* \"#utility.yul\":12291:12296   */\n      dup2\n        /* \"#utility.yul\":12273:12297   */\n      tag_295\n      jump\t// in\n    tag_294:\n        /* \"#utility.yul\":12268:12271   */\n      dup3\n        /* \"#utility.yul\":12261:12298   */\n      mstore\n        /* \"#utility.yul\":12196:12304   */\n      pop\n      pop\n      jump\t// out\n        /* \"#utility.yul\":12310:12428   */\n    tag_296:\n        /* \"#utility.yul\":12397:12421   */\n      tag_298\n        /* \"#utility.yul\":12415:12420   */\n      dup2\n        /* \"#utility.yul\":12397:12421   */\n      tag_295\n      jump\t// in\n    tag_298:\n        /* \"#utility.yul\":12392:12395   */\n      dup3\n        /* \"#utility.yul\":12385:12422   */\n      mstore\n        /* \"#utility.yul\":12310:12428   */\n      pop\n      pop\n      jump\t// out\n        /* \"#utility.yul\":12434:12539   */\n    tag_274:\n        /* \"#utility.yul\":12509:12532   */\n      tag_300\n        /* \"#utility.yul\":12526:12531   */\n      dup2\n        /* \"#utility.yul\":12509:12532   */\n      tag_301\n      jump\t// in\n    tag_300:\n        /* \"#utility.yul\":12504:12507   */\n      dup3\n        /* \"#utility.yul\":12497:12533   */\n      mstore\n        /* \"#utility.yul\":12434:12539   */\n      pop\n      pop\n      jump\t// out\n        /* \"#utility.yul\":12545:12660   */\n    tag_302:\n        /* \"#utility.yul\":12630:12653   */\n      tag_304\n        /* \"#utility.yul\":12647:12652   */\n      dup2\n        /* \"#utility.yul\":12630:12653   */\n      tag_301\n      jump\t// in\n    tag_304:\n        /* \"#utility.yul\":12625:12628   */\n      dup3\n        /* \"#utility.yul\":12618:12654   */\n      mstore\n        /* \"#utility.yul\":12545:12660   */\n      pop\n      pop\n      jump\t// out\n        /* \"#utility.yul\":12666:13817   */\n    tag_23:\n        /* \"#utility.yul\":12981:12985   */\n      0x00\n        /* \"#utility.yul\":13019:13022   */\n      0x0100\n        /* \"#utility.yul\":13008:13017   */\n      dup3\n        /* \"#utility.yul\":13004:13023   */\n      add\n        /* \"#utility.yul\":12996:13023   */\n      swap1\n      pop\n        /* \"#utility.yul\":13033:13104   */\n      tag_306\n        /* \"#utility.yul\":13101:13102   */\n      0x00\n        /* \"#utility.yul\":13090:13099   */\n      dup4\n        /* \"#utility.yul\":13086:13103   */\n      add\n        /* \"#utility.yul\":13077:13083   */\n      dup12\n        /* \"#utility.yul\":13033:13104   */\n      tag_205\n      jump\t// in\n    tag_306:\n        /* \"#utility.yul\":13151:13160   */\n      dup2\n        /* \"#utility.yul\":13145:13149   */\n      dup2\n        /* \"#utility.yul\":13141:13161   */\n      sub\n        /* \"#utility.yul\":13136:13138   */\n      0x20\n        /* \"#utility.yul\":13125:13134   */\n      dup4\n        /* \"#utility.yul\":13121:13139   */\n      add\n        /* \"#utility.yul\":13114:13162   */\n      mstore\n        /* \"#utility.yul\":13179:13255   */\n      tag_307\n        /* \"#utility.yul\":13250:13254   */\n      dup2\n        /* \"#utility.yul\":13241:13247   */\n      dup11\n        /* \"#utility.yul\":13179:13255   */\n      tag_260\n      jump\t// in\n    tag_307:\n        /* \"#utility.yul\":13171:13255   */\n      swap1\n      pop\n        /* \"#utility.yul\":13302:13311   */\n      dup2\n        /* \"#utility.yul\":13296:13300   */\n      dup2\n        /* \"#utility.yul\":13292:13312   */\n      sub\n        /* \"#utility.yul\":13287:13289   */\n      0x40\n        /* \"#utility.yul\":13276:13285   */\n      dup4\n        /* \"#utility.yul\":13272:13290   */\n      add\n        /* \"#utility.yul\":13265:13313   */\n      mstore\n        /* \"#utility.yul\":13330:13406   */\n      tag_308\n        /* \"#utility.yul\":13401:13405   */\n      dup2\n        /* \"#utility.yul\":13392:13398   */\n      dup10\n        /* \"#utility.yul\":13330:13406   */\n      tag_260\n      jump\t// in\n    tag_308:\n        /* \"#utility.yul\":13322:13406   */\n      swap1\n      pop\n        /* \"#utility.yul\":13416:13488   */\n      tag_309\n        /* \"#utility.yul\":13484:13486   */\n      0x60\n        /* \"#utility.yul\":13473:13482   */\n      dup4\n        /* \"#utility.yul\":13469:13487   */\n      add\n        /* \"#utility.yul\":13460:13466   */\n      dup9\n        /* \"#utility.yul\":13416:13488   */\n      tag_290\n      jump\t// in\n    tag_309:\n        /* \"#utility.yul\":13498:13571   */\n      tag_310\n        /* \"#utility.yul\":13566:13569   */\n      0x80\n        /* \"#utility.yul\":13555:13564   */\n      dup4\n        /* \"#utility.yul\":13551:13570   */\n      add\n        /* \"#utility.yul\":13542:13548   */\n      dup8\n        /* \"#utility.yul\":13498:13571   */\n      tag_290\n      jump\t// in\n    tag_310:\n        /* \"#utility.yul\":13581:13652   */\n      tag_311\n        /* \"#utility.yul\":13647:13650   */\n      0xa0\n        /* \"#utility.yul\":13636:13645   */\n      dup4\n        /* \"#utility.yul\":13632:13651   */\n      add\n        /* \"#utility.yul\":13623:13629   */\n      dup7\n        /* \"#utility.yul\":13581:13652   */\n      tag_302\n      jump\t// in\n    tag_311:\n        /* \"#utility.yul\":13662:13733   */\n      tag_312\n        /* \"#utility.yul\":13728:13731   */\n      0xc0\n        /* \"#utility.yul\":13717:13726   */\n      dup4\n        /* \"#utility.yul\":13713:13732   */\n      add\n        /* \"#utility.yul\":13704:13710   */\n      dup6\n        /* \"#utility.yul\":13662:13733   */\n      tag_302\n      jump\t// in\n    tag_312:\n        /* \"#utility.yul\":13743:13810   */\n      tag_313\n        /* \"#utility.yul\":13805:13808   */\n      0xe0\n        /* \"#utility.yul\":13794:13803   */\n      dup4\n        /* \"#utility.yul\":13790:13809   */\n      add\n        /* \"#utility.yul\":13781:13787   */\n      dup5\n        /* \"#utility.yul\":13743:13810   */\n      tag_240\n      jump\t// in\n    tag_313:\n        /* \"#utility.yul\":12666:13817   */\n      swap10\n      swap9\n      pop\n      pop\n      pop\n      pop\n      pop\n      pop\n      pop\n      pop\n      pop\n      jump\t// out\n        /* \"#utility.yul\":13823:14320   */\n    tag_32:\n        /* \"#utility.yul\":14028:14032   */\n      0x00\n        /* \"#utility.yul\":14066:14068   */\n      0x20\n        /* \"#utility.yul\":14055:14064   */\n      dup3\n        /* \"#utility.yul\":14051:14069   */\n      add\n        /* \"#utility.yul\":14043:14069   */\n      swap1\n      pop\n        /* \"#utility.yul\":14115:14124   */\n      dup2\n        /* \"#utility.yul\":14109:14113   */\n      dup2\n        /* \"#utility.yul\":14105:14125   */\n      sub\n        /* \"#utility.yul\":14101:14102   */\n      0x00\n        /* \"#utility.yul\":14090:14099   */\n      dup4\n        /* \"#utility.yul\":14086:14103   */\n      add\n        /* \"#utility.yul\":14079:14126   */\n      mstore\n        /* \"#utility.yul\":14143:14313   */\n      tag_315\n        /* \"#utility.yul\":14308:14312   */\n      dup2\n        /* \"#utility.yul\":14299:14305   */\n      dup5\n        /* \"#utility.yul\":14143:14313   */\n      tag_208\n      jump\t// in\n    tag_315:\n        /* \"#utility.yul\":14135:14313   */\n      swap1\n      pop\n        /* \"#utility.yul\":13823:14320   */\n      swap3\n      swap2\n      pop\n      pop\n      jump\t// out\n        /* \"#utility.yul\":14326:14699   */\n    tag_41:\n        /* \"#utility.yul\":14469:14473   */\n      0x00\n        /* \"#utility.yul\":14507:14509   */\n      0x20\n        /* \"#utility.yul\":14496:14505   */\n      dup3\n        /* \"#utility.yul\":14492:14510   */\n      add\n        /* \"#utility.yul\":14484:14510   */\n      swap1\n      pop\n        /* \"#utility.yul\":14556:14565   */\n      dup2\n        /* \"#utility.yul\":14550:14554   */\n      dup2\n        /* \"#utility.yul\":14546:14566   */\n      sub\n        /* \"#utility.yul\":14542:14543   */\n      0x00\n        /* \"#utility.yul\":14531:14540   */\n      dup4\n        /* \"#utility.yul\":14527:14544   */\n      add\n        /* \"#utility.yul\":14520:14567   */\n      mstore\n        /* \"#utility.yul\":14584:14692   */\n      tag_317\n        /* \"#utility.yul\":14687:14691   */\n      dup2\n        /* \"#utility.yul\":14678:14684   */\n      dup5\n        /* \"#utility.yul\":14584:14692   */\n      tag_222\n      jump\t// in\n    tag_317:\n        /* \"#utility.yul\":14576:14692   */\n      swap1\n      pop\n        /* \"#utility.yul\":14326:14699   */\n      swap3\n      swap2\n      pop\n      pop\n      jump\t// out\n        /* \"#utility.yul\":14705:15797   */\n    tag_115:\n        /* \"#utility.yul\":15018:15022   */\n      0x00\n        /* \"#utility.yul\":15056:15059   */\n      0xe0\n        /* \"#utility.yul\":15045:15054   */\n      dup3\n        /* \"#utility.yul\":15041:15060   */\n      add\n        /* \"#utility.yul\":15033:15060   */\n      swap1\n      pop\n        /* \"#utility.yul\":15106:15115   */\n      dup2\n        /* \"#utility.yul\":15100:15104   */\n      dup2\n        /* \"#utility.yul\":15096:15116   */\n      sub\n        /* \"#utility.yul\":15092:15093   */\n      0x00\n        /* \"#utility.yul\":15081:15090   */\n      dup4\n        /* \"#utility.yul\":15077:15094   */\n      add\n        /* \"#utility.yul\":15070:15117   */\n      mstore\n        /* \"#utility.yul\":15134:15220   */\n      tag_319\n        /* \"#utility.yul\":15215:15219   */\n      dup2\n        /* \"#utility.yul\":15206:15212   */\n      dup12\n        /* \"#utility.yul\":15198:15204   */\n      dup14\n        /* \"#utility.yul\":15134:15220   */\n      tag_243\n      jump\t// in\n    tag_319:\n        /* \"#utility.yul\":15126:15220   */\n      swap1\n      pop\n        /* \"#utility.yul\":15267:15276   */\n      dup2\n        /* \"#utility.yul\":15261:15265   */\n      dup2\n        /* \"#utility.yul\":15257:15277   */\n      sub\n        /* \"#utility.yul\":15252:15254   */\n      0x20\n        /* \"#utility.yul\":15241:15250   */\n      dup4\n        /* \"#utility.yul\":15237:15255   */\n      add\n        /* \"#utility.yul\":15230:15278   */\n      mstore\n        /* \"#utility.yul\":15295:15381   */\n      tag_320\n        /* \"#utility.yul\":15376:15380   */\n      dup2\n        /* \"#utility.yul\":15367:15373   */\n      dup10\n        /* \"#utility.yul\":15359:15365   */\n      dup12\n        /* \"#utility.yul\":15295:15381   */\n      tag_243\n      jump\t// in\n    tag_320:\n        /* \"#utility.yul\":15287:15381   */\n      swap1\n      pop\n        /* \"#utility.yul\":15391:15463   */\n      tag_321\n        /* \"#utility.yul\":15459:15461   */\n      0x40\n        /* \"#utility.yul\":15448:15457   */\n      dup4\n        /* \"#utility.yul\":15444:15462   */\n      add\n        /* \"#utility.yul\":15435:15441   */\n      dup9\n        /* \"#utility.yul\":15391:15463   */\n      tag_290\n      jump\t// in\n    tag_321:\n        /* \"#utility.yul\":15473:15545   */\n      tag_322\n        /* \"#utility.yul\":15541:15543   */\n      0x60\n        /* \"#utility.yul\":15530:15539   */\n      dup4\n        /* \"#utility.yul\":15526:15544   */\n      add\n        /* \"#utility.yul\":15517:15523   */\n      dup8\n        /* \"#utility.yul\":15473:15545   */\n      tag_290\n      jump\t// in\n    tag_322:\n        /* \"#utility.yul\":15555:15626   */\n      tag_323\n        /* \"#utility.yul\":15621:15624   */\n      0x80\n        /* \"#utility.yul\":15610:15619   */\n      dup4\n        /* \"#utility.yul\":15606:15625   */\n      add\n        /* \"#utility.yul\":15597:15603   */\n      dup7\n        /* \"#utility.yul\":15555:15626   */\n      tag_302\n      jump\t// in\n    tag_323:\n        /* \"#utility.yul\":15636:15707   */\n      tag_324\n        /* \"#utility.yul\":15702:15705   */\n      0xa0\n        /* \"#utility.yul\":15691:15700   */\n      dup4\n        /* \"#utility.yul\":15687:15706   */\n      add\n        /* \"#utility.yul\":15678:15684   */\n      dup6\n        /* \"#utility.yul\":15636:15707   */\n      tag_302\n      jump\t// in\n    tag_324:\n        /* \"#utility.yul\":15717:15790   */\n      tag_325\n        /* \"#utility.yul\":15785:15788   */\n      0xc0\n        /* \"#utility.yul\":15774:15783   */\n      dup4\n        /* \"#utility.yul\":15770:15789   */\n      add\n        /* \"#utility.yul\":15761:15767   */\n      dup5\n        /* \"#utility.yul\":15717:15790   */\n      tag_296\n      jump\t// in\n    tag_325:\n        /* \"#utility.yul\":14705:15797   */\n      swap11\n      swap10\n      pop\n      pop\n      pop\n      pop\n      pop\n      pop\n      pop\n      pop\n      pop\n      pop\n      jump\t// out\n        /* \"#utility.yul\":15803:16200   */\n    tag_37:\n        /* \"#utility.yul\":15958:15962   */\n      0x00\n        /* \"#utility.yul\":15996:15998   */\n      0x20\n        /* \"#utility.yul\":15985:15994   */\n      dup3\n        /* \"#utility.yul\":15981:15999   */\n      add\n        /* \"#utility.yul\":15973:15999   */\n      swap1\n      pop\n        /* \"#utility.yul\":16045:16054   */\n      dup2\n        /* \"#utility.yul\":16039:16043   */\n      dup2\n        /* \"#utility.yul\":16035:16055   */\n      sub\n        /* \"#utility.yul\":16031:16032   */\n      0x00\n        /* \"#utility.yul\":16020:16029   */\n      dup4\n        /* \"#utility.yul\":16016:16033   */\n      add\n        /* \"#utility.yul\":16009:16056   */\n      mstore\n        /* \"#utility.yul\":16073:16193   */\n      tag_327\n        /* \"#utility.yul\":16188:16192   */\n      dup2\n        /* \"#utility.yul\":16179:16185   */\n      dup5\n        /* \"#utility.yul\":16073:16193   */\n      tag_277\n      jump\t// in\n    tag_327:\n        /* \"#utility.yul\":16065:16193   */\n      swap1\n      pop\n        /* \"#utility.yul\":15803:16200   */\n      swap3\n      swap2\n      pop\n      pop\n      jump\t// out\n        /* \"#utility.yul\":16206:16428   */\n    tag_121:\n        /* \"#utility.yul\":16299:16303   */\n      0x00\n        /* \"#utility.yul\":16337:16339   */\n      0x20\n        /* \"#utility.yul\":16326:16335   */\n      dup3\n        /* \"#utility.yul\":16322:16340   */\n      add\n        /* \"#utility.yul\":16314:16340   */\n      swap1\n      pop\n        /* \"#utility.yul\":16350:16421   */\n      tag_329\n        /* \"#utility.yul\":16418:16419   */\n      0x00\n        /* \"#utility.yul\":16407:16416   */\n      dup4\n        /* \"#utility.yul\":16403:16420   */\n      add\n        /* \"#utility.yul\":16394:16400   */\n      dup5\n        /* \"#utility.yul\":16350:16421   */\n      tag_290\n      jump\t// in\n    tag_329:\n        /* \"#utility.yul\":16206:16428   */\n      swap3\n      swap2\n      pop\n      pop\n      jump\t// out\n        /* \"#utility.yul\":16434:16656   */\n    tag_17:\n        /* \"#utility.yul\":16527:16531   */\n      0x00\n        /* \"#utility.yul\":16565:16567   */\n      0x20\n        /* \"#utility.yul\":16554:16563   */\n      dup3\n        /* \"#utility.yul\":16550:16568   */\n      add\n        /* \"#utility.yul\":16542:16568   */\n      swap1\n      pop\n        /* \"#utility.yul\":16578:16649   */\n      tag_331\n        /* \"#utility.yul\":16646:16647   */\n      0x00\n        /* \"#utility.yul\":16635:16644   */\n      dup4\n        /* \"#utility.yul\":16631:16648   */\n      add\n        /* \"#utility.yul\":16622:16628   */\n      dup5\n        /* \"#utility.yul\":16578:16649   */\n      tag_296\n      jump\t// in\n    tag_331:\n        /* \"#utility.yul\":16434:16656   */\n      swap3\n      swap2\n      pop\n      pop\n      jump\t// out\n        /* \"#utility.yul\":16743:16906   */\n    tag_215:\n        /* \"#utility.yul\":16841:16845   */\n      0x00\n        /* \"#utility.yul\":16864:16867   */\n      dup2\n        /* \"#utility.yul\":16856:16867   */\n      swap1\n      pop\n        /* \"#utility.yul\":16894:16898   */\n      0x20\n        /* \"#utility.yul\":16889:16892   */\n      dup3\n        /* \"#utility.yul\":16885:16899   */\n      add\n        /* \"#utility.yul\":16877:16899   */\n      swap1\n      pop\n        /* \"#utility.yul\":16743:16906   */\n      swap2\n      swap1\n      pop\n      jump\t// out\n        /* \"#utility.yul\":16912:17044   */\n    tag_229:\n        /* \"#utility.yul\":16979:16983   */\n      0x00\n        /* \"#utility.yul\":17002:17005   */\n      dup2\n        /* \"#utility.yul\":16994:17005   */\n      swap1\n      pop\n        /* \"#utility.yul\":17032:17036   */\n      0x20\n        /* \"#utility.yul\":17027:17030   */\n      dup3\n        /* \"#utility.yul\":17023:17037   */\n      add\n        /* \"#utility.yul\":17015:17037   */\n      swap1\n      pop\n        /* \"#utility.yul\":16912:17044   */\n      swap2\n      swap1\n      pop\n      jump\t// out\n        /* \"#utility.yul\":17050:17195   */\n    tag_211:\n        /* \"#utility.yul\":17148:17154   */\n      0x00\n        /* \"#utility.yul\":17182:17187   */\n      dup2\n        /* \"#utility.yul\":17176:17188   */\n      mload\n        /* \"#utility.yul\":17166:17188   */\n      swap1\n      pop\n        /* \"#utility.yul\":17050:17195   */\n      swap2\n      swap1\n      pop\n      jump\t// out\n        /* \"#utility.yul\":17201:17315   */\n    tag_225:\n        /* \"#utility.yul\":17268:17274   */\n      0x00\n        /* \"#utility.yul\":17302:17307   */\n      dup2\n        /* \"#utility.yul\":17296:17308   */\n      mload\n        /* \"#utility.yul\":17286:17308   */\n      swap1\n      pop\n        /* \"#utility.yul\":17201:17315   */\n      swap2\n      swap1\n      pop\n      jump\t// out\n        /* \"#utility.yul\":17321:17419   */\n    tag_254:\n        /* \"#utility.yul\":17372:17378   */\n      0x00\n        /* \"#utility.yul\":17406:17411   */\n      dup2\n        /* \"#utility.yul\":17400:17412   */\n      mload\n        /* \"#utility.yul\":17390:17412   */\n      swap1\n      pop\n        /* \"#utility.yul\":17321:17419   */\n      swap2\n      swap1\n      pop\n      jump\t// out\n        /* \"#utility.yul\":17425:17569   */\n    tag_221:\n        /* \"#utility.yul\":17526:17530   */\n      0x00\n        /* \"#utility.yul\":17558:17562   */\n      0x20\n        /* \"#utility.yul\":17553:17556   */\n      dup3\n        /* \"#utility.yul\":17549:17563   */\n      add\n        /* \"#utility.yul\":17541:17563   */\n      swap1\n      pop\n        /* \"#utility.yul\":17425:17569   */\n      swap2\n      swap1\n      pop\n      jump\t// out\n        /* \"#utility.yul\":17575:17688   */\n    tag_235:\n        /* \"#utility.yul\":17645:17649   */\n      0x00\n        /* \"#utility.yul\":17677:17681   */\n      0x20\n        /* \"#utility.yul\":17672:17675   */\n      dup3\n        /* \"#utility.yul\":17668:17682   */\n      add\n        /* \"#utility.yul\":17660:17682   */\n      swap1\n      pop\n        /* \"#utility.yul\":17575:17688   */\n      swap2\n      swap1\n      pop\n      jump\t// out\n        /* \"#utility.yul\":17694:17909   */\n    tag_213:\n        /* \"#utility.yul\":17824:17835   */\n      0x00\n        /* \"#utility.yul\":17858:17864   */\n      dup3\n        /* \"#utility.yul\":17853:17856   */\n      dup3\n        /* \"#utility.yul\":17846:17865   */\n      mstore\n        /* \"#utility.yul\":17898:17902   */\n      0x20\n        /* \"#utility.yul\":17893:17896   */\n      dup3\n        /* \"#utility.yul\":17889:17903   */\n      add\n        /* \"#utility.yul\":17874:17903   */\n      swap1\n      pop\n        /* \"#utility.yul\":17694:17909   */\n      swap3\n      swap2\n      pop\n      pop\n      jump\t// out\n        /* \"#utility.yul\":17915:18099   */\n    tag_227:\n        /* \"#utility.yul\":18014:18025   */\n      0x00\n        /* \"#utility.yul\":18048:18054   */\n      dup3\n        /* \"#utility.yul\":18043:18046   */\n      dup3\n        /* \"#utility.yul\":18036:18055   */\n      mstore\n        /* \"#utility.yul\":18088:18092   */\n      0x20\n        /* \"#utility.yul\":18083:18086   */\n      dup3\n        /* \"#utility.yul\":18079:18093   */\n      add\n        /* \"#utility.yul\":18064:18093   */\n      swap1\n      pop\n        /* \"#utility.yul\":17915:18099   */\n      swap3\n      swap2\n      pop\n      pop\n      jump\t// out\n        /* \"#utility.yul\":18105:18263   */\n    tag_256:\n        /* \"#utility.yul\":18178:18189   */\n      0x00\n        /* \"#utility.yul\":18212:18218   */\n      dup3\n        /* \"#utility.yul\":18207:18210   */\n      dup3\n        /* \"#utility.yul\":18200:18219   */\n      mstore\n        /* \"#utility.yul\":18252:18256   */\n      0x20\n        /* \"#utility.yul\":18247:18250   */\n      dup3\n        /* \"#utility.yul\":18243:18257   */\n      add\n        /* \"#utility.yul\":18228:18257   */\n      swap1\n      pop\n        /* \"#utility.yul\":18105:18263   */\n      swap3\n      swap2\n      pop\n      pop\n      jump\t// out\n        /* \"#utility.yul\":18269:18437   */\n    tag_246:\n        /* \"#utility.yul\":18352:18363   */\n      0x00\n        /* \"#utility.yul\":18386:18392   */\n      dup3\n        /* \"#utility.yul\":18381:18384   */\n      dup3\n        /* \"#utility.yul\":18374:18393   */\n      mstore\n        /* \"#utility.yul\":18426:18430   */\n      0x20\n        /* \"#utility.yul\":18421:18424   */\n      dup3\n        /* \"#utility.yul\":18417:18431   */\n      add\n        /* \"#utility.yul\":18402:18431   */\n      swap1\n      pop\n        /* \"#utility.yul\":18269:18437   */\n      swap3\n      swap2\n      pop\n      pop\n      jump\t// out\n        /* \"#utility.yul\":18443:18634   */\n    tag_119:\n        /* \"#utility.yul\":18483:18487   */\n      0x00\n        /* \"#utility.yul\":18503:18523   */\n      tag_346\n        /* \"#utility.yul\":18521:18522   */\n      dup3\n        /* \"#utility.yul\":18503:18523   */\n      tag_289\n      jump\t// in\n    tag_346:\n        /* \"#utility.yul\":18498:18523   */\n      swap2\n      pop\n        /* \"#utility.yul\":18537:18557   */\n      tag_347\n        /* \"#utility.yul\":18555:18556   */\n      dup4\n        /* \"#utility.yul\":18537:18557   */\n      tag_289\n      jump\t// in\n    tag_347:\n        /* \"#utility.yul\":18532:18557   */\n      swap3\n      pop\n        /* \"#utility.yul\":18576:18577   */\n      dup3\n        /* \"#utility.yul\":18573:18574   */\n      dup3\n        /* \"#utility.yul\":18570:18578   */\n      lt\n        /* \"#utility.yul\":18567:18601   */\n      iszero\n      tag_348\n      jumpi\n        /* \"#utility.yul\":18581:18599   */\n      tag_349\n      tag_350\n      jump\t// in\n    tag_349:\n        /* \"#utility.yul\":18567:18601   */\n    tag_348:\n        /* \"#utility.yul\":18626:18627   */\n      dup3\n        /* \"#utility.yul\":18623:18624   */\n      dup3\n        /* \"#utility.yul\":18619:18628   */\n      sub\n        /* \"#utility.yul\":18611:18628   */\n      swap1\n      pop\n        /* \"#utility.yul\":18443:18634   */\n      swap3\n      swap2\n      pop\n      pop\n      jump\t// out\n        /* \"#utility.yul\":18640:18736   */\n    tag_204:\n        /* \"#utility.yul\":18677:18684   */\n      0x00\n        /* \"#utility.yul\":18706:18730   */\n      tag_352\n        /* \"#utility.yul\":18724:18729   */\n      dup3\n        /* \"#utility.yul\":18706:18730   */\n      tag_353\n      jump\t// in\n    tag_352:\n        /* \"#utility.yul\":18695:18730   */\n      swap1\n      pop\n        /* \"#utility.yul\":18640:18736   */\n      swap2\n      swap1\n      pop\n      jump\t// out\n        /* \"#utility.yul\":18742:18832   */\n    tag_239:\n        /* \"#utility.yul\":18776:18783   */\n      0x00\n        /* \"#utility.yul\":18819:18824   */\n      dup2\n        /* \"#utility.yul\":18812:18825   */\n      iszero\n        /* \"#utility.yul\":18805:18826   */\n      iszero\n        /* \"#utility.yul\":18794:18826   */\n      swap1\n      pop\n        /* \"#utility.yul\":18742:18832   */\n      swap2\n      swap1\n      pop\n      jump\t// out\n        /* \"#utility.yul\":18838:18956   */\n    tag_289:\n        /* \"#utility.yul\":18875:18882   */\n      0x00\n        /* \"#utility.yul\":18915:18949   */\n      0xffffffffffffffffffffffffffffffff\n        /* \"#utility.yul\":18908:18913   */\n      dup3\n        /* \"#utility.yul\":18904:18950   */\n      and\n        /* \"#utility.yul\":18893:18950   */\n      swap1\n      pop\n        /* \"#utility.yul\":18838:18956   */\n      swap2\n      swap1\n      pop\n      jump\t// out\n        /* \"#utility.yul\":18962:19088   */\n    tag_353:\n        /* \"#utility.yul\":18999:19006   */\n      0x00\n        /* \"#utility.yul\":19039:19081   */\n      0xffffffffffffffffffffffffffffffffffffffff\n        /* \"#utility.yul\":19032:19037   */\n      dup3\n        /* \"#utility.yul\":19028:19082   */\n      and\n        /* \"#utility.yul\":19017:19082   */\n      swap1\n      pop\n        /* \"#utility.yul\":18962:19088   */\n      swap2\n      swap1\n      pop\n      jump\t// out\n        /* \"#utility.yul\":19094:19171   */\n    tag_295:\n        /* \"#utility.yul\":19131:19138   */\n      0x00\n        /* \"#utility.yul\":19160:19165   */\n      dup2\n        /* \"#utility.yul\":19149:19165   */\n      swap1\n      pop\n        /* \"#utility.yul\":19094:19171   */\n      swap2\n      swap1\n      pop\n      jump\t// out\n        /* \"#utility.yul\":19177:19270   */\n    tag_301:\n        /* \"#utility.yul\":19213:19220   */\n      0x00\n        /* \"#utility.yul\":19253:19263   */\n      0xffffffff\n        /* \"#utility.yul\":19246:19251   */\n      dup3\n        /* \"#utility.yul\":19242:19264   */\n      and\n        /* \"#utility.yul\":19231:19264   */\n      swap1\n      pop\n        /* \"#utility.yul\":19177:19270   */\n      swap2\n      swap1\n      pop\n      jump\t// out\n        /* \"#utility.yul\":19276:19430   */\n    tag_248:\n        /* \"#utility.yul\":19360:19366   */\n      dup3\n        /* \"#utility.yul\":19355:19358   */\n      dup2\n        /* \"#utility.yul\":19350:19353   */\n      dup4\n        /* \"#utility.yul\":19337:19367   */\n      calldatacopy\n        /* \"#utility.yul\":19422:19423   */\n      0x00\n        /* \"#utility.yul\":19413:19419   */\n      dup4\n        /* \"#utility.yul\":19408:19411   */\n      dup4\n        /* \"#utility.yul\":19404:19420   */\n      add\n        /* \"#utility.yul\":19397:19424   */\n      mstore\n        /* \"#utility.yul\":19276:19430   */\n      pop\n      pop\n      pop\n      jump\t// out\n        /* \"#utility.yul\":19436:19743   */\n    tag_258:\n        /* \"#utility.yul\":19504:19505   */\n      0x00\n        /* \"#utility.yul\":19514:19627   */\n    tag_361:\n        /* \"#utility.yul\":19528:19534   */\n      dup4\n        /* \"#utility.yul\":19525:19526   */\n      dup2\n        /* \"#utility.yul\":19522:19535   */\n      lt\n        /* \"#utility.yul\":19514:19627   */\n      iszero\n      tag_363\n      jumpi\n        /* \"#utility.yul\":19613:19614   */\n      dup1\n        /* \"#utility.yul\":19608:19611   */\n      dup3\n        /* \"#utility.yul\":19604:19615   */\n      add\n        /* \"#utility.yul\":19598:19616   */\n      mload\n        /* \"#utility.yul\":19594:19595   */\n      dup2\n        /* \"#utility.yul\":19589:19592   */\n      dup5\n        /* \"#utility.yul\":19585:19596   */\n      add\n        /* \"#utility.yul\":19578:19617   */\n      mstore\n        /* \"#utility.yul\":19550:19552   */\n      0x20\n        /* \"#utility.yul\":19547:19548   */\n      dup2\n        /* \"#utility.yul\":19543:19553   */\n      add\n        /* \"#utility.yul\":19538:19553   */\n      swap1\n      pop\n        /* \"#utility.yul\":19514:19627   */\n      jump(tag_361)\n    tag_363:\n        /* \"#utility.yul\":19645:19651   */\n      dup4\n        /* \"#utility.yul\":19642:19643   */\n      dup2\n        /* \"#utility.yul\":19639:19652   */\n      gt\n        /* \"#utility.yul\":19636:19737   */\n      iszero\n      tag_364\n      jumpi\n        /* \"#utility.yul\":19725:19726   */\n      0x00\n        /* \"#utility.yul\":19716:19722   */\n      dup5\n        /* \"#utility.yul\":19711:19714   */\n      dup5\n        /* \"#utility.yul\":19707:19723   */\n      add\n        /* \"#utility.yul\":19700:19727   */\n      mstore\n        /* \"#utility.yul\":19636:19737   */\n    tag_364:\n        /* \"#utility.yul\":19485:19743   */\n      pop\n        /* \"#utility.yul\":19436:19743   */\n      pop\n      pop\n      pop\n      jump\t// out\n        /* \"#utility.yul\":19749:20069   */\n    tag_53:\n        /* \"#utility.yul\":19793:19799   */\n      0x00\n        /* \"#utility.yul\":19830:19831   */\n      0x02\n        /* \"#utility.yul\":19824:19828   */\n      dup3\n        /* \"#utility.yul\":19820:19832   */\n      div\n        /* \"#utility.yul\":19810:19832   */\n      swap1\n      pop\n        /* \"#utility.yul\":19877:19878   */\n      0x01\n        /* \"#utility.yul\":19871:19875   */\n      dup3\n        /* \"#utility.yul\":19867:19879   */\n      and\n        /* \"#utility.yul\":19898:19916   */\n      dup1\n        /* \"#utility.yul\":19888:19969   */\n      tag_366\n      jumpi\n        /* \"#utility.yul\":19954:19958   */\n      0x7f\n        /* \"#utility.yul\":19946:19952   */\n      dup3\n        /* \"#utility.yul\":19942:19959   */\n      and\n        /* \"#utility.yul\":19932:19959   */\n      swap2\n      pop\n        /* \"#utility.yul\":19888:19969   */\n    tag_366:\n        /* \"#utility.yul\":20016:20018   */\n      0x20\n        /* \"#utility.yul\":20008:20014   */\n      dup3\n        /* \"#utility.yul\":20005:20019   */\n      lt\n        /* \"#utility.yul\":19985:20003   */\n      dup2\n        /* \"#utility.yul\":19982:20020   */\n      eq\n        /* \"#utility.yul\":19979:20063   */\n      iszero\n      tag_367\n      jumpi\n        /* \"#utility.yul\":20035:20053   */\n      tag_368\n      tag_369\n      jump\t// in\n    tag_368:\n        /* \"#utility.yul\":19979:20063   */\n    tag_367:\n        /* \"#utility.yul\":19800:20069   */\n      pop\n        /* \"#utility.yul\":19749:20069   */\n      swap2\n      swap1\n      pop\n      jump\t// out\n        /* \"#utility.yul\":20075:20308   */\n    tag_93:\n        /* \"#utility.yul\":20114:20117   */\n      0x00\n        /* \"#utility.yul\":20137:20161   */\n      tag_371\n        /* \"#utility.yul\":20155:20160   */\n      dup3\n        /* \"#utility.yul\":20137:20161   */\n      tag_295\n      jump\t// in\n    tag_371:\n        /* \"#utility.yul\":20128:20161   */\n      swap2\n      pop\n        /* \"#utility.yul\":20183:20249   */\n      0xffffffffffffffffffffffffffffffffffffffffffffffffffffffffffffffff\n        /* \"#utility.yul\":20176:20181   */\n      dup3\n        /* \"#utility.yul\":20173:20250   */\n      eq\n        /* \"#utility.yul\":20170:20273   */\n      iszero\n      tag_372\n      jumpi\n        /* \"#utility.yul\":20253:20271   */\n      tag_373\n      tag_350\n      jump\t// in\n    tag_373:\n        /* \"#utility.yul\":20170:20273   */\n    tag_372:\n        /* \"#utility.yul\":20300:20301   */\n      0x01\n        /* \"#utility.yul\":20293:20298   */\n      dup3\n        /* \"#utility.yul\":20289:20302   */\n      add\n        /* \"#utility.yul\":20282:20302   */\n      swap1\n      pop\n        /* \"#utility.yul\":20075:20308   */\n      swap2\n      swap1\n      pop\n      jump\t// out\n        /* \"#utility.yul\":20314:20494   */\n    tag_350:\n        /* \"#utility.yul\":20362:20439   */\n      0x4e487b7100000000000000000000000000000000000000000000000000000000\n        /* \"#utility.yul\":20359:20360   */\n      0x00\n        /* \"#utility.yul\":20352:20440   */\n      mstore\n        /* \"#utility.yul\":20459:20463   */\n      0x11\n        /* \"#utility.yul\":20456:20457   */\n      0x04\n        /* \"#utility.yul\":20449:20464   */\n      mstore\n        /* \"#utility.yul\":20483:20487   */\n      0x24\n        /* \"#utility.yul\":20480:20481   */\n      0x00\n        /* \"#utility.yul\":20473:20488   */\n      revert\n        /* \"#utility.yul\":20500:20680   */\n    tag_369:\n        /* \"#utility.yul\":20548:20625   */\n      0x4e487b7100000000000000000000000000000000000000000000000000000000\n        /* \"#utility.yul\":20545:20546   */\n      0x00\n        /* \"#utility.yul\":20538:20626   */\n      mstore\n        /* \"#utility.yul\":20645:20649   */\n      0x22\n        /* \"#utility.yul\":20642:20643   */\n      0x04\n        /* \"#utility.yul\":20635:20650   */\n      mstore\n        /* \"#utility.yul\":20669:20673   */\n      0x24\n        /* \"#utility.yul\":20666:20667   */\n      0x00\n        /* \"#utility.yul\":20659:20674   */\n      revert\n        /* \"#utility.yul\":20686:20866   */\n    tag_79:\n        /* \"#utility.yul\":20734:20811   */\n      0x4e487b7100000000000000000000000000000000000000000000000000000000\n        /* \"#utility.yul\":20731:20732   */\n      0x00\n        /* \"#utility.yul\":20724:20812   */\n      mstore\n        /* \"#utility.yul\":20831:20835   */\n      0x32\n        /* \"#utility.yul\":20828:20829   */\n      0x04\n        /* \"#utility.yul\":20821:20836   */\n      mstore\n        /* \"#utility.yul\":20855:20859   */\n      0x24\n        /* \"#utility.yul\":20852:20853   */\n      0x00\n        /* \"#utility.yul\":20845:20860   */\n      revert\n        /* \"#utility.yul\":20872:21052   */\n    tag_69:\n        /* \"#utility.yul\":20920:20997   */\n      0x4e487b7100000000000000000000000000000000000000000000000000000000\n        /* \"#utility.yul\":20917:20918   */\n      0x00\n        /* \"#utility.yul\":20910:20998   */\n      mstore\n        /* \"#utility.yul\":21017:21021   */\n      0x41\n        /* \"#utility.yul\":21014:21015   */\n      0x04\n        /* \"#utility.yul\":21007:21022   */\n      mstore\n        /* \"#utility.yul\":21041:21045   */\n      0x24\n        /* \"#utility.yul\":21038:21039   */\n      0x00\n        /* \"#utility.yul\":21031:21046   */\n      revert\n        /* \"#utility.yul\":21058:21175   */\n    tag_144:\n        /* \"#utility.yul\":21167:21168   */\n      0x00\n        /* \"#utility.yul\":21164:21165   */\n      dup1\n        /* \"#utility.yul\":21157:21169   */\n      revert\n        /* \"#utility.yul\":21181:21298   */\n    tag_141:\n        /* \"#utility.yul\":21290:21291   */\n      0x00\n        /* \"#utility.yul\":21287:21288   */\n      dup1\n        /* \"#utility.yul\":21280:21292   */\n      revert\n        /* \"#utility.yul\":21304:21421   */\n    tag_147:\n        /* \"#utility.yul\":21413:21414   */\n      0x00\n        /* \"#utility.yul\":21410:21411   */\n      dup1\n        /* \"#utility.yul\":21403:21415   */\n      revert\n        /* \"#utility.yul\":21427:21544   */\n    tag_175:\n        /* \"#utility.yul\":21536:21537   */\n      0x00\n        /* \"#utility.yul\":21533:21534   */\n      dup1\n        /* \"#utility.yul\":21526:21538   */\n      revert\n        /* \"#utility.yul\":21550:21667   */\n    tag_163:\n        /* \"#utility.yul\":21659:21660   */\n      0x00\n        /* \"#utility.yul\":21656:21657   */\n      dup1\n        /* \"#utility.yul\":21649:21661   */\n      revert\n        /* \"#utility.yul\":21673:21775   */\n    tag_250:\n        /* \"#utility.yul\":21714:21720   */\n      0x00\n        /* \"#utility.yul\":21765:21767   */\n      0x1f\n        /* \"#utility.yul\":21761:21768   */\n      not\n        /* \"#utility.yul\":21756:21758   */\n      0x1f\n        /* \"#utility.yul\":21749:21754   */\n      dup4\n        /* \"#utility.yul\":21745:21759   */\n      add\n        /* \"#utility.yul\":21741:21769   */\n      and\n        /* \"#utility.yul\":21731:21769   */\n      swap1\n      pop\n        /* \"#utility.yul\":21673:21775   */\n      swap2\n      swap1\n      pop\n      jump\t// out\n        /* \"#utility.yul\":21781:21903   */\n    tag_136:\n        /* \"#utility.yul\":21854:21878   */\n      tag_385\n        /* \"#utility.yul\":21872:21877   */\n      dup2\n        /* \"#utility.yul\":21854:21878   */\n      tag_204\n      jump\t// in\n    tag_385:\n        /* \"#utility.yul\":21847:21852   */\n      dup2\n        /* \"#utility.yul\":21844:21879   */\n      eq\n        /* \"#utility.yul\":21834:21897   */\n      tag_386\n      jumpi\n        /* \"#utility.yul\":21893:21894   */\n      0x00\n        /* \"#utility.yul\":21890:21891   */\n      dup1\n        /* \"#utility.yul\":21883:21895   */\n      revert\n        /* \"#utility.yul\":21834:21897   */\n    tag_386:\n        /* \"#utility.yul\":21781:21903   */\n      pop\n      jump\t// out\n        /* \"#utility.yul\":21909:22031   */\n    tag_151:\n        /* \"#utility.yul\":21982:22006   */\n      tag_388\n        /* \"#utility.yul\":22000:22005   */\n      dup2\n        /* \"#utility.yul\":21982:22006   */\n      tag_289\n      jump\t// in\n    tag_388:\n        /* \"#utility.yul\":21975:21980   */\n      dup2\n        /* \"#utility.yul\":21972:22007   */\n      eq\n        /* \"#utility.yul\":21962:22025   */\n      tag_389\n      jumpi\n        /* \"#utility.yul\":22021:22022   */\n      0x00\n        /* \"#utility.yul\":22018:22019   */\n      dup1\n        /* \"#utility.yul\":22011:22023   */\n      revert\n        /* \"#utility.yul\":21962:22025   */\n    tag_389:\n        /* \"#utility.yul\":21909:22031   */\n      pop\n      jump\t// out\n        /* \"#utility.yul\":22037:22159   */\n    tag_155:\n        /* \"#utility.yul\":22110:22134   */\n      tag_391\n        /* \"#utility.yul\":22128:22133   */\n      dup2\n        /* \"#utility.yul\":22110:22134   */\n      tag_295\n      jump\t// in\n    tag_391:\n        /* \"#utility.yul\":22103:22108   */\n      dup2\n        /* \"#utility.yul\":22100:22135   */\n      eq\n        /* \"#utility.yul\":22090:22153   */\n      tag_392\n      jumpi\n        /* \"#utility.yul\":22149:22150   */\n      0x00\n        /* \"#utility.yul\":22146:22147   */\n      dup1\n        /* \"#utility.yul\":22139:22151   */\n      revert\n        /* \"#utility.yul\":22090:22153   */\n    tag_392:\n        /* \"#utility.yul\":22037:22159   */\n      pop\n      jump\t// out\n        /* \"#utility.yul\":22165:22285   */\n    tag_159:\n        /* \"#utility.yul\":22237:22260   */\n      tag_394\n        /* \"#utility.yul\":22254:22259   */\n      dup2\n        /* \"#utility.yul\":22237:22260   */\n      tag_301\n      jump\t// in\n    tag_394:\n        /* \"#utility.yul\":22230:22235   */\n      dup2\n        /* \"#utility.yul\":22227:22261   */\n      eq\n        /* \"#utility.yul\":22217:22279   */\n      tag_395\n      jumpi\n        /* \"#utility.yul\":22275:22276   */\n      0x00\n        /* \"#utility.yul\":22272:22273   */\n      dup1\n        /* \"#utility.yul\":22265:22277   */\n      revert\n        /* \"#utility.yul\":22217:22279   */\n    tag_395:\n        /* \"#utility.yul\":22165:22285   */\n      pop\n      jump\t// out\n\n    auxdata: 0xa264697066735822122043b030b358343ed720503e0d6dcf8301a849a0e7614664afe30fe5eccf1209d964736f6c63430008070033\n}\n",
				"bytecode": {
					"linkReferences": {},
					"object": "6080604052600160005534801561001557600080fd5b50611bf6806100256000396000f3fe608060405234801561001057600080fd5b50600436106100885760003560e01c8063c22ef68e1161005b578063c22ef68e14610140578063e10f28c714610170578063ee7e7c991461018e578063f8bafa70146101aa57610088565b806342af31d71461008d5780636c87b826146100bd57806379ae0257146100f457806383f9585314610110575b600080fd5b6100a760048036038101906100a291906111b3565b6101c6565b6040516100b4919061185f565b60405180910390f35b6100d760048036038101906100d291906112c2565b6101f7565b6040516100eb9897969594939291906116d1565b60405180910390f35b61010e600480360381019061010991906112c2565b6103d4565b005b61012a60048036038101906101259190611186565b610433565b604051610137919061175d565b60405180910390f35b61015a600480360381019061015591906112c2565b610816565b6040516101679190611822565b60405180910390f35b610178610ab9565b604051610185919061177f565b60405180910390f35b6101a860048036038101906101a391906111f3565b610b4e565b005b6101c460048036038101906101bf91906112ef565b610ec7565b005b600260205281600052604060002081815481106101e257600080fd5b90600052602060002001600091509150505481565b60016020528060005260406000206000915090508060000160009054906101000a900473ffffffffffffffffffffffffffffffffffffffff169080600101805461024090611a03565b80601f016020809104026020016040519081016040528092919081815260200182805461026c90611a03565b80156102b95780601f1061028e576101008083540402835291602001916102b9565b820191906000526020600020905b81548152906001019060200180831161029c57829003601f168201915b5050505050908060020180546102ce90611a03565b80601f01602080910402602001604051908101604052809291908181526020018280546102fa90611a03565b80156103475780601f1061031c57610100808354040283529160200191610347565b820191906000526020600020905b81548152906001019060200180831161032a57829003601f168201915b5050505050908060030160009054906101000a90046fffffffffffffffffffffffffffffffff16908060030160109054906101000a90046fffffffffffffffffffffffffffffffff16908060040160009054906101000a900463ffffffff16908060040160049054906101000a900463ffffffff16908060040160089054906101000a900460ff16905088565b60006001600083815260200190815260200160002060040160086101000a81548160ff021916908315150217905550807f6c1a4e746947a5049a6693a4875a10617826c8361c631cac61717e141185fdd260405160405180910390a250565b60606000600260008473ffffffffffffffffffffffffffffffffffffffff1673ffffffffffffffffffffffffffffffffffffffff1681526020019081526020016000208054806020026020016040519081016040528092919081815260200182805480156104c057602002820191906000526020600020905b8154815260200190600101908083116104ac575b505050505090506000815167ffffffffffffffff8111156104e4576104e3611b0b565b5b60405190808252806020026020018201604052801561051d57816020015b61050a610fac565b8152602001906001900390816105025790505b50905060005b825181101561080b576001600084838151811061054357610542611adc565b5b60200260200101518152602001908152602001600020604051806101000160405290816000820160009054906101000a900473ffffffffffffffffffffffffffffffffffffffff1673ffffffffffffffffffffffffffffffffffffffff1673ffffffffffffffffffffffffffffffffffffffff1681526020016001820180546105cb90611a03565b80601f01602080910402602001604051908101604052809291908181526020018280546105f790611a03565b80156106445780601f1061061957610100808354040283529160200191610644565b820191906000526020600020905b81548152906001019060200180831161062757829003601f168201915b5050505050815260200160028201805461065d90611a03565b80601f016020809104026020016040519081016040528092919081815260200182805461068990611a03565b80156106d65780601f106106ab576101008083540402835291602001916106d6565b820191906000526020600020905b8154815290600101906020018083116106b957829003601f168201915b505050505081526020016003820160009054906101000a90046fffffffffffffffffffffffffffffffff166fffffffffffffffffffffffffffffffff166fffffffffffffffffffffffffffffffff1681526020016003820160109054906101000a90046fffffffffffffffffffffffffffffffff166fffffffffffffffffffffffffffffffff166fffffffffffffffffffffffffffffffff1681526020016004820160009054906101000a900463ffffffff1663ffffffff1663ffffffff1681526020016004820160049054906101000a900463ffffffff1663ffffffff1663ffffffff1681526020016004820160089054906101000a900460ff1615151515815250508282815181106107ed576107ec611adc565b5b6020026020010181905250808061080390611a35565b915050610523565b508092505050919050565b61081e610fac565b60016000838152602001908152602001600020604051806101000160405290816000820160009054906101000a900473ffffffffffffffffffffffffffffffffffffffff1673ffffffffffffffffffffffffffffffffffffffff1673ffffffffffffffffffffffffffffffffffffffff1681526020016001820180546108a390611a03565b80601f01602080910402602001604051908101604052809291908181526020018280546108cf90611a03565b801561091c5780601f106108f15761010080835404028352916020019161091c565b820191906000526020600020905b8154815290600101906020018083116108ff57829003601f168201915b5050505050815260200160028201805461093590611a03565b80601f016020809104026020016040519081016040528092919081815260200182805461096190611a03565b80156109ae5780601f10610983576101008083540402835291602001916109ae565b820191906000526020600020905b81548152906001019060200180831161099157829003601f168201915b505050505081526020016003820160009054906101000a90046fffffffffffffffffffffffffffffffff166fffffffffffffffffffffffffffffffff166fffffffffffffffffffffffffffffffff1681526020016003820160109054906101000a90046fffffffffffffffffffffffffffffffff166fffffffffffffffffffffffffffffffff166fffffffffffffffffffffffffffffffff1681526020016004820160009054906101000a900463ffffffff1663ffffffff1663ffffffff1681526020016004820160049054906101000a900463ffffffff1663ffffffff1663ffffffff1681526020016004820160089054906101000a900460ff1615151515815250509050919050565b6060600260003373ffffffffffffffffffffffffffffffffffffffff1673ffffffffffffffffffffffffffffffffffffffff168152602001908152602001600020805480602002602001604051908101604052809291908181526020018280548015610b4457602002820191906000526020600020905b815481526020019060010190808311610b30575b5050505050905090565b6040518061010001604052803373ffffffffffffffffffffffffffffffffffffffff16815260200189898080601f016020809104026020016040519081016040528093929190818152602001838380828437600081840152601f19601f82011690508083019250505050505050815260200187878080601f016020809104026020016040519081016040528093929190818152602001838380828437600081840152601f19601f820116905080830192505050505050508152602001856fffffffffffffffffffffffffffffffff168152602001846fffffffffffffffffffffffffffffffff1681526020018363ffffffff1681526020018263ffffffff16815260200160011515815250600160008054815260200190815260200160002060008201518160000160006101000a81548173ffffffffffffffffffffffffffffffffffffffff021916908373ffffffffffffffffffffffffffffffffffffffff1602179055506020820151816001019080519060200190610cd0929190611039565b506040820151816002019080519060200190610ced929190611039565b5060608201518160030160006101000a8154816fffffffffffffffffffffffffffffffff02191690836fffffffffffffffffffffffffffffffff16021790555060808201518160030160106101000a8154816fffffffffffffffffffffffffffffffff02191690836fffffffffffffffffffffffffffffffff16021790555060a08201518160040160006101000a81548163ffffffff021916908363ffffffff16021790555060c08201518160040160046101000a81548163ffffffff021916908363ffffffff16021790555060e08201518160040160086101000a81548160ff021916908315150217905550905050600260003373ffffffffffffffffffffffffffffffffffffffff1673ffffffffffffffffffffffffffffffffffffffff16815260200190815260200160002060005490806001815401808255809150506001900390600052602060002001600090919091909150553373ffffffffffffffffffffffffffffffffffffffff166000547fb544b666bf20d30fc9acbc75aee55e5847e8f95a49aa5d36b6dab734f0cbb3038a8a8a8a8a8a8a8a42604051610e9e999897969594939291906117a1565b60405180910390a3600080815480929190610eb890611a35565b91905055505050505050505050565b806001600084815260200190815260200160002060030160008282829054906101000a90046fffffffffffffffffffffffffffffffff16610f089190611919565b92506101000a8154816fffffffffffffffffffffffffffffffff02191690836fffffffffffffffffffffffffffffffff160217905550817f1f3d301eca9b893fb3ae34f526f7b346cfe3086be67884ce1e652593c91668d66001600085815260200190815260200160002060030160009054906101000a90046fffffffffffffffffffffffffffffffff16604051610fa09190611844565b60405180910390a25050565b604051806101000160405280600073ffffffffffffffffffffffffffffffffffffffff168152602001606081526020016060815260200160006fffffffffffffffffffffffffffffffff16815260200160006fffffffffffffffffffffffffffffffff168152602001600063ffffffff168152602001600063ffffffff1681526020016000151581525090565b82805461104590611a03565b90600052602060002090601f01602090048101928261106757600085556110ae565b82601f1061108057805160ff19168380011785556110ae565b828001600101855582156110ae579182015b828111156110ad578251825591602001919060010190611092565b5b5090506110bb91906110bf565b5090565b5b808211156110d85760008160009055506001016110c0565b5090565b6000813590506110eb81611b64565b92915050565b60008083601f84011261110757611106611b3f565b5b8235905067ffffffffffffffff81111561112457611123611b3a565b5b6020830191508360018202830111156111405761113f611b44565b5b9250929050565b60008135905061115681611b7b565b92915050565b60008135905061116b81611b92565b92915050565b60008135905061118081611ba9565b92915050565b60006020828403121561119c5761119b611b4e565b5b60006111aa848285016110dc565b91505092915050565b600080604083850312156111ca576111c9611b4e565b5b60006111d8858286016110dc565b92505060206111e98582860161115c565b9150509250929050565b60008060008060008060008060c0898b03121561121357611212611b4e565b5b600089013567ffffffffffffffff81111561123157611230611b49565b5b61123d8b828c016110f1565b9850985050602089013567ffffffffffffffff8111156112605761125f611b49565b5b61126c8b828c016110f1565b9650965050604061127f8b828c01611147565b94505060606112908b828c01611147565b93505060806112a18b828c01611171565b92505060a06112b28b828c01611171565b9150509295985092959890939650565b6000602082840312156112d8576112d7611b4e565b5b60006112e68482850161115c565b91505092915050565b6000806040838503121561130657611305611b4e565b5b60006113148582860161115c565b925050602061132585828601611147565b9150509250929050565b600061133b8383611509565b905092915050565b600061134f8383611695565b60208301905092915050565b6113648161194d565b82525050565b6113738161194d565b82525050565b60006113848261189a565b61138e81856118d5565b9350836020820285016113a08561187a565b8060005b858110156113dc57848403895281516113bd858261132f565b94506113c8836118bb565b925060208a019950506001810190506113a4565b50829750879550505050505092915050565b60006113f9826118a5565b61140381856118e6565b935061140e8361188a565b8060005b8381101561143f5781516114268882611343565b9750611431836118c8565b925050600181019050611412565b5085935050505092915050565b6114558161195f565b82525050565b6114648161195f565b82525050565b60006114768385611908565b93506114838385846119c1565b61148c83611b53565b840190509392505050565b60006114a2826118b0565b6114ac81856118f7565b93506114bc8185602086016119d0565b6114c581611b53565b840191505092915050565b60006114db826118b0565b6114e58185611908565b93506114f58185602086016119d0565b6114fe81611b53565b840191505092915050565b600061010083016000830151611522600086018261135b565b506020830151848203602086015261153a8282611497565b915050604083015184820360408601526115548282611497565b91505060608301516115696060860182611677565b50608083015161157c6080860182611677565b5060a083015161158f60a08601826116b3565b5060c08301516115a260c08601826116b3565b5060e08301516115b560e086018261144c565b508091505092915050565b6000610100830160008301516115d9600086018261135b565b50602083015184820360208601526115f18282611497565b9150506040830151848203604086015261160b8282611497565b91505060608301516116206060860182611677565b5060808301516116336080860182611677565b5060a083015161164660a08601826116b3565b5060c083015161165960c08601826116b3565b5060e083015161166c60e086018261144c565b508091505092915050565b6116808161196b565b82525050565b61168f8161196b565b82525050565b61169e816119a7565b82525050565b6116ad816119a7565b82525050565b6116bc816119b1565b82525050565b6116cb816119b1565b82525050565b6000610100820190506116e7600083018b61136a565b81810360208301526116f9818a6114d0565b9050818103604083015261170d81896114d0565b905061171c6060830188611686565b6117296080830187611686565b61173660a08301866116c2565b61174360c08301856116c2565b61175060e083018461145b565b9998505050505050505050565b600060208201905081810360008301526117778184611379565b905092915050565b6000602082019050818103600083015261179981846113ee565b905092915050565b600060e08201905081810360008301526117bc818b8d61146a565b905081810360208301526117d181898b61146a565b90506117e06040830188611686565b6117ed6060830187611686565b6117fa60808301866116c2565b61180760a08301856116c2565b61181460c08301846116a4565b9a9950505050505050505050565b6000602082019050818103600083015261183c81846115c0565b905092915050565b60006020820190506118596000830184611686565b92915050565b600060208201905061187460008301846116a4565b92915050565b6000819050602082019050919050565b6000819050602082019050919050565b600081519050919050565b600081519050919050565b600081519050919050565b6000602082019050919050565b6000602082019050919050565b600082825260208201905092915050565b600082825260208201905092915050565b600082825260208201905092915050565b600082825260208201905092915050565b60006119248261196b565b915061192f8361196b565b92508282101561194257611941611a7e565b5b828203905092915050565b600061195882611987565b9050919050565b60008115159050919050565b60006fffffffffffffffffffffffffffffffff82169050919050565b600073ffffffffffffffffffffffffffffffffffffffff82169050919050565b6000819050919050565b600063ffffffff82169050919050565b82818337600083830152505050565b60005b838110156119ee5780820151818401526020810190506119d3565b838111156119fd576000848401525b50505050565b60006002820490506001821680611a1b57607f821691505b60208210811415611a2f57611a2e611aad565b5b50919050565b6000611a40826119a7565b91507fffffffffffffffffffffffffffffffffffffffffffffffffffffffffffffffff821415611a7357611a72611a7e565b5b600182019050919050565b7f4e487b7100000000000000000000000000000000000000000000000000000000600052601160045260246000fd5b7f4e487b7100000000000000000000000000000000000000000000000000000000600052602260045260246000fd5b7f4e487b7100000000000000000000000000000000000000000000000000000000600052603260045260246000fd5b7f4e487b7100000000000000000000000000000000000000000000000000000000600052604160045260246000fd5b600080fd5b600080fd5b600080fd5b600080fd5b600080fd5b6000601f19601f8301169050919050565b611b6d8161194d565b8114611b7857600080fd5b50565b611b848161196b565b8114611b8f57600080fd5b50565b611b9b816119a7565b8114611ba657600080fd5b50565b611bb2816119b1565b8114611bbd57600080fd5b5056fea264697066735822122043b030b358343ed720503e0d6dcf8301a849a0e7614664afe30fe5eccf1209d964736f6c63430008070033",
					"opcodes": "PUSH1 0x80 PUSH1 0x40 MSTORE PUSH1 0x1 PUSH1 0x0 SSTORE CALLVALUE DUP1 ISZERO PUSH2 0x15 JUMPI PUSH1 0x0 DUP1 REVERT JUMPDEST POP PUSH2 0x1BF6 DUP1 PUSH2 0x25 PUSH1 0x0 CODECOPY PUSH1 0x0 RETURN INVALID PUSH1 0x80 PUSH1 0x40 MSTORE CALLVALUE DUP1 ISZERO PUSH2 0x10 JUMPI PUSH1 0x0 DUP1 REVERT JUMPDEST POP PUSH1 0x4 CALLDATASIZE LT PUSH2 0x88 JUMPI PUSH1 0x0 CALLDATALOAD PUSH1 0xE0 SHR DUP1 PUSH4 0xC22EF68E GT PUSH2 0x5B JUMPI DUP1 PUSH4 0xC22EF68E EQ PUSH2 0x140 JUMPI DUP1 PUSH4 0xE10F28C7 EQ PUSH2 0x170 JUMPI DUP1 PUSH4 0xEE7E7C99 EQ PUSH2 0x18E JUMPI DUP1 PUSH4 0xF8BAFA70 EQ PUSH2 0x1AA JUMPI PUSH2 0x88 JUMP JUMPDEST DUP1 PUSH4 0x42AF31D7 EQ PUSH2 0x8D JUMPI DUP1 PUSH4 0x6C87B826 EQ PUSH2 0xBD JUMPI DUP1 PUSH4 0x79AE0257 EQ PUSH2 0xF4 JUMPI DUP1 PUSH4 0x83F95853 EQ PUSH2 0x110 JUMPI JUMPDEST PUSH1 0x0 DUP1 REVERT JUMPDEST PUSH2 0xA7 PUSH1 0x4 DUP1 CALLDATASIZE SUB DUP2 ADD SWAP1 PUSH2 0xA2 SWAP2 SWAP1 PUSH2 0x11B3 JUMP JUMPDEST PUSH2 0x1C6 JUMP JUMPDEST PUSH1 0x40 MLOAD PUSH2 0xB4 SWAP2 SWAP1 PUSH2 0x185F JUMP JUMPDEST PUSH1 0x40 MLOAD DUP1 SWAP2 SUB SWAP1 RETURN JUMPDEST PUSH2 0xD7 PUSH1 0x4 DUP1 CALLDATASIZE SUB DUP2 ADD SWAP1 PUSH2 0xD2 SWAP2 SWAP1 PUSH2 0x12C2 JUMP JUMPDEST PUSH2 0x1F7 JUMP JUMPDEST PUSH1 0x40 MLOAD PUSH2 0xEB SWAP9 SWAP8 SWAP7 SWAP6 SWAP5 SWAP4 SWAP3 SWAP2 SWAP1 PUSH2 0x16D1 JUMP JUMPDEST PUSH1 0x40 MLOAD DUP1 SWAP2 SUB SWAP1 RETURN JUMPDEST PUSH2 0x10E PUSH1 0x4 DUP1 CALLDATASIZE SUB DUP2 ADD SWAP1 PUSH2 0x109 SWAP2 SWAP1 PUSH2 0x12C2 JUMP JUMPDEST PUSH2 0x3D4 JUMP JUMPDEST STOP JUMPDEST PUSH2 0x12A PUSH1 0x4 DUP1 CALLDATASIZE SUB DUP2 ADD SWAP1 PUSH2 0x125 SWAP2 SWAP1 PUSH2 0x1186 JUMP JUMPDEST PUSH2 0x433 JUMP JUMPDEST PUSH1 0x40 MLOAD PUSH2 0x137 SWAP2 SWAP1 PUSH2 0x175D JUMP JUMPDEST PUSH1 0x40 MLOAD DUP1 SWAP2 SUB SWAP1 RETURN JUMPDEST PUSH2 0x15A PUSH1 0x4 DUP1 CALLDATASIZE SUB DUP2 ADD SWAP1 PUSH2 0x155 SWAP2 SWAP1 PUSH2 0x12C2 JUMP JUMPDEST PUSH2 0x816 JUMP JUMPDEST PUSH1 0x40 MLOAD PUSH2 0x167 SWAP2 SWAP1 PUSH2 0x1822 JUMP JUMPDEST PUSH1 0x40 MLOAD DUP1 SWAP2 SUB SWAP1 RETURN JUMPDEST PUSH2 0x178 PUSH2 0xAB9 JUMP JUMPDEST PUSH1 0x40 MLOAD PUSH2 0x185 SWAP2 SWAP1 PUSH2 0x177F JUMP JUMPDEST PUSH1 0x40 MLOAD DUP1 SWAP2 SUB SWAP1 RETURN JUMPDEST PUSH2 0x1A8 PUSH1 0x4 DUP1 CALLDATASIZE SUB DUP2 ADD SWAP1 PUSH2 0x1A3 SWAP2 SWAP1 PUSH2 0x11F3 JUMP JUMPDEST PUSH2 0xB4E JUMP JUMPDEST STOP JUMPDEST PUSH2 0x1C4 PUSH1 0x4 DUP1 CALLDATASIZE SUB DUP2 ADD SWAP1 PUSH2 0x1BF SWAP2 SWAP1 PUSH2 0x12EF JUMP JUMPDEST PUSH2 0xEC7 JUMP JUMPDEST STOP JUMPDEST PUSH1 0x2 PUSH1 0x20 MSTORE DUP2 PUSH1 0x0 MSTORE PUSH1 0x40 PUSH1 0x0 KECCAK256 DUP2 DUP2 SLOAD DUP2 LT PUSH2 0x1E2 JUMPI PUSH1 0x0 DUP1 REVERT JUMPDEST SWAP1 PUSH1 0x0 MSTORE PUSH1 0x20 PUSH1 0x0 KECCAK256 ADD PUSH1 0x0 SWAP2 POP SWAP2 POP POP SLOAD DUP2 JUMP JUMPDEST PUSH1 0x1 PUSH1 0x20 MSTORE DUP1 PUSH1 0x0 MSTORE PUSH1 0x40 PUSH1 0x0 KECCAK256 PUSH1 0x0 SWAP2 POP SWAP1 POP DUP1 PUSH1 0x0 ADD PUSH1 0x0 SWAP1 SLOAD SWAP1 PUSH2 0x100 EXP SWAP1 DIV PUSH20 0xFFFFFFFFFFFFFFFFFFFFFFFFFFFFFFFFFFFFFFFF AND SWAP1 DUP1 PUSH1 0x1 ADD DUP1 SLOAD PUSH2 0x240 SWAP1 PUSH2 0x1A03 JUMP JUMPDEST DUP1 PUSH1 0x1F ADD PUSH1 0x20 DUP1 SWAP2 DIV MUL PUSH1 0x20 ADD PUSH1 0x40 MLOAD SWAP1 DUP2 ADD PUSH1 0x40 MSTORE DUP1 SWAP3 SWAP2 SWAP1 DUP2 DUP2 MSTORE PUSH1 0x20 ADD DUP3 DUP1 SLOAD PUSH2 0x26C SWAP1 PUSH2 0x1A03 JUMP JUMPDEST DUP1 ISZERO PUSH2 0x2B9 JUMPI DUP1 PUSH1 0x1F LT PUSH2 0x28E JUMPI PUSH2 0x100 DUP1 DUP4 SLOAD DIV MUL DUP4 MSTORE SWAP2 PUSH1 0x20 ADD SWAP2 PUSH2 0x2B9 JUMP JUMPDEST DUP3 ADD SWAP2 SWAP1 PUSH1 0x0 MSTORE PUSH1 0x20 PUSH1 0x0 KECCAK256 SWAP1 JUMPDEST DUP2 SLOAD DUP2 MSTORE SWAP1 PUSH1 0x1 ADD SWAP1 PUSH1 0x20 ADD DUP1 DUP4 GT PUSH2 0x29C JUMPI DUP3 SWAP1 SUB PUSH1 0x1F AND DUP3 ADD SWAP2 JUMPDEST POP POP POP POP POP SWAP1 DUP1 PUSH1 0x2 ADD DUP1 SLOAD PUSH2 0x2CE SWAP1 PUSH2 0x1A03 JUMP JUMPDEST DUP1 PUSH1 0x1F ADD PUSH1 0x20 DUP1 SWAP2 DIV MUL PUSH1 0x20 ADD PUSH1 0x40 MLOAD SWAP1 DUP2 ADD PUSH1 0x40 MSTORE DUP1 SWAP3 SWAP2 SWAP1 DUP2 DUP2 MSTORE PUSH1 0x20 ADD DUP3 DUP1 SLOAD PUSH2 0x2FA SWAP1 PUSH2 0x1A03 JUMP JUMPDEST DUP1 ISZERO PUSH2 0x347 JUMPI DUP1 PUSH1 0x1F LT PUSH2 0x31C JUMPI PUSH2 0x100 DUP1 DUP4 SLOAD DIV MUL DUP4 MSTORE SWAP2 PUSH1 0x20 ADD SWAP2 PUSH2 0x347 JUMP JUMPDEST DUP3 ADD SWAP2 SWAP1 PUSH1 0x0 MSTORE PUSH1 0x20 PUSH1 0x0 KECCAK256 SWAP1 JUMPDEST DUP2 SLOAD DUP2 MSTORE SWAP1 PUSH1 0x1 ADD SWAP1 PUSH1 0x20 ADD DUP1 DUP4 GT PUSH2 0x32A JUMPI DUP3 SWAP1 SUB PUSH1 0x1F AND DUP3 ADD SWAP2 JUMPDEST POP POP POP POP POP SWAP1 DUP1 PUSH1 0x3 ADD PUSH1 0x0 SWAP1 SLOAD SWAP1 PUSH2 0x100 EXP SWAP1 DIV PUSH16 0xFFFFFFFFFFFFFFFFFFFFFFFFFFFFFFFF AND SWAP1 DUP1 PUSH1 0x3 ADD PUSH1 0x10 SWAP1 SLOAD SWAP1 PUSH2 0x100 EXP SWAP1 DIV PUSH16 0xFFFFFFFFFFFFFFFFFFFFFFFFFFFFFFFF AND SWAP1 DUP1 PUSH1 0x4 ADD PUSH1 0x0 SWAP1 SLOAD SWAP1 PUSH2 0x100 EXP SWAP1 DIV PUSH4 0xFFFFFFFF AND SWAP1 DUP1 PUSH1 0x4 ADD PUSH1 0x4 SWAP1 SLOAD SWAP1 PUSH2 0x100 EXP SWAP1 DIV PUSH4 0xFFFFFFFF AND SWAP1 DUP1 PUSH1 0x4 ADD PUSH1 0x8 SWAP1 SLOAD SWAP1 PUSH2 0x100 EXP SWAP1 DIV PUSH1 0xFF AND SWAP1 POP DUP9 JUMP JUMPDEST PUSH1 0x0 PUSH1 0x1 PUSH1 0x0 DUP4 DUP2 MSTORE PUSH1 0x20 ADD SWAP1 DUP2 MSTORE PUSH1 0x20 ADD PUSH1 0x0 KECCAK256 PUSH1 0x4 ADD PUSH1 0x8 PUSH2 0x100 EXP DUP2 SLOAD DUP2 PUSH1 0xFF MUL NOT AND SWAP1 DUP4 ISZERO ISZERO MUL OR SWAP1 SSTORE POP DUP1 PUSH32 0x6C1A4E746947A5049A6693A4875A10617826C8361C631CAC61717E141185FDD2 PUSH1 0x40 MLOAD PUSH1 0x40 MLOAD DUP1 SWAP2 SUB SWAP1 LOG2 POP JUMP JUMPDEST PUSH1 0x60 PUSH1 0x0 PUSH1 0x2 PUSH1 0x0 DUP5 PUSH20 0xFFFFFFFFFFFFFFFFFFFFFFFFFFFFFFFFFFFFFFFF AND PUSH20 0xFFFFFFFFFFFFFFFFFFFFFFFFFFFFFFFFFFFFFFFF AND DUP2 MSTORE PUSH1 0x20 ADD SWAP1 DUP2 MSTORE PUSH1 0x20 ADD PUSH1 0x0 KECCAK256 DUP1 SLOAD DUP1 PUSH1 0x20 MUL PUSH1 0x20 ADD PUSH1 0x40 MLOAD SWAP1 DUP2 ADD PUSH1 0x40 MSTORE DUP1 SWAP3 SWAP2 SWAP1 DUP2 DUP2 MSTORE PUSH1 0x20 ADD DUP3 DUP1 SLOAD DUP1 ISZERO PUSH2 0x4C0 JUMPI PUSH1 0x20 MUL DUP3 ADD SWAP2 SWAP1 PUSH1 0x0 MSTORE PUSH1 0x20 PUSH1 0x0 KECCAK256 SWAP1 JUMPDEST DUP2 SLOAD DUP2 MSTORE PUSH1 0x20 ADD SWAP1 PUSH1 0x1 ADD SWAP1 DUP1 DUP4 GT PUSH2 0x4AC JUMPI JUMPDEST POP POP POP POP POP SWAP1 POP PUSH1 0x0 DUP2 MLOAD PUSH8 0xFFFFFFFFFFFFFFFF DUP2 GT ISZERO PUSH2 0x4E4 JUMPI PUSH2 0x4E3 PUSH2 0x1B0B JUMP JUMPDEST JUMPDEST PUSH1 0x40 MLOAD SWAP1 DUP1 DUP3 MSTORE DUP1 PUSH1 0x20 MUL PUSH1 0x20 ADD DUP3 ADD PUSH1 0x40 MSTORE DUP1 ISZERO PUSH2 0x51D JUMPI DUP2 PUSH1 0x20 ADD JUMPDEST PUSH2 0x50A PUSH2 0xFAC JUMP JUMPDEST DUP2 MSTORE PUSH1 0x20 ADD SWAP1 PUSH1 0x1 SWAP1 SUB SWAP1 DUP2 PUSH2 0x502 JUMPI SWAP1 POP JUMPDEST POP SWAP1 POP PUSH1 0x0 JUMPDEST DUP3 MLOAD DUP2 LT ISZERO PUSH2 0x80B JUMPI PUSH1 0x1 PUSH1 0x0 DUP5 DUP4 DUP2 MLOAD DUP2 LT PUSH2 0x543 JUMPI PUSH2 0x542 PUSH2 0x1ADC JUMP JUMPDEST JUMPDEST PUSH1 0x20 MUL PUSH1 0x20 ADD ADD MLOAD DUP2 MSTORE PUSH1 0x20 ADD SWAP1 DUP2 MSTORE PUSH1 0x20 ADD PUSH1 0x0 KECCAK256 PUSH1 0x40 MLOAD DUP1 PUSH2 0x100 ADD PUSH1 0x40 MSTORE SWAP1 DUP2 PUSH1 0x0 DUP3 ADD PUSH1 0x0 SWAP1 SLOAD SWAP1 PUSH2 0x100 EXP SWAP1 DIV PUSH20 0xFFFFFFFFFFFFFFFFFFFFFFFFFFFFFFFFFFFFFFFF AND PUSH20 0xFFFFFFFFFFFFFFFFFFFFFFFFFFFFFFFFFFFFFFFF AND PUSH20 0xFFFFFFFFFFFFFFFFFFFFFFFFFFFFFFFFFFFFFFFF AND DUP2 MSTORE PUSH1 0x20 ADD PUSH1 0x1 DUP3 ADD DUP1 SLOAD PUSH2 0x5CB SWAP1 PUSH2 0x1A03 JUMP JUMPDEST DUP1 PUSH1 0x1F ADD PUSH1 0x20 DUP1 SWAP2 DIV MUL PUSH1 0x20 ADD PUSH1 0x40 MLOAD SWAP1 DUP2 ADD PUSH1 0x40 MSTORE DUP1 SWAP3 SWAP2 SWAP1 DUP2 DUP2 MSTORE PUSH1 0x20 ADD DUP3 DUP1 SLOAD PUSH2 0x5F7 SWAP1 PUSH2 0x1A03 JUMP JUMPDEST DUP1 ISZERO PUSH2 0x644 JUMPI DUP1 PUSH1 0x1F LT PUSH2 0x619 JUMPI PUSH2 0x100 DUP1 DUP4 SLOAD DIV MUL DUP4 MSTORE SWAP2 PUSH1 0x20 ADD SWAP2 PUSH2 0x644 JUMP JUMPDEST DUP3 ADD SWAP2 SWAP1 PUSH1 0x0 MSTORE PUSH1 0x20 PUSH1 0x0 KECCAK256 SWAP1 JUMPDEST DUP2 SLOAD DUP2 MSTORE SWAP1 PUSH1 0x1 ADD SWAP1 PUSH1 0x20 ADD DUP1 DUP4 GT PUSH2 0x627 JUMPI DUP3 SWAP1 SUB PUSH1 0x1F AND DUP3 ADD SWAP2 JUMPDEST POP POP POP POP POP DUP2 MSTORE PUSH1 0x20 ADD PUSH1 0x2 DUP3 ADD DUP1 SLOAD PUSH2 0x65D SWAP1 PUSH2 0x1A03 JUMP JUMPDEST DUP1 PUSH1 0x1F ADD PUSH1 0x20 DUP1 SWAP2 DIV MUL PUSH1 0x20 ADD PUSH1 0x40 MLOAD SWAP1 DUP2 ADD PUSH1 0x40 MSTORE DUP1 SWAP3 SWAP2 SWAP1 DUP2 DUP2 MSTORE PUSH1 0x20 ADD DUP3 DUP1 SLOAD PUSH2 0x689 SWAP1 PUSH2 0x1A03 JUMP JUMPDEST DUP1 ISZERO PUSH2 0x6D6 JUMPI DUP1 PUSH1 0x1F LT PUSH2 0x6AB JUMPI PUSH2 0x100 DUP1 DUP4 SLOAD DIV MUL DUP4 MSTORE SWAP2 PUSH1 0x20 ADD SWAP2 PUSH2 0x6D6 JUMP JUMPDEST DUP3 ADD SWAP2 SWAP1 PUSH1 0x0 MSTORE PUSH1 0x20 PUSH1 0x0 KECCAK256 SWAP1 JUMPDEST DUP2 SLOAD DUP2 MSTORE SWAP1 PUSH1 0x1 ADD SWAP1 PUSH1 0x20 ADD DUP1 DUP4 GT PUSH2 0x6B9 JUMPI DUP3 SWAP1 SUB PUSH1 0x1F AND DUP3 ADD SWAP2 JUMPDEST POP POP POP POP POP DUP2 MSTORE PUSH1 0x20 ADD PUSH1 0x3 DUP3 ADD PUSH1 0x0 SWAP1 SLOAD SWAP1 PUSH2 0x100 EXP SWAP1 DIV PUSH16 0xFFFFFFFFFFFFFFFFFFFFFFFFFFFFFFFF AND PUSH16 0xFFFFFFFFFFFFFFFFFFFFFFFFFFFFFFFF AND PUSH16 0xFFFFFFFFFFFFFFFFFFFFFFFFFFFFFFFF AND DUP2 MSTORE PUSH1 0x20 ADD PUSH1 0x3 DUP3 ADD PUSH1 0x10 SWAP1 SLOAD SWAP1 PUSH2 0x100 EXP SWAP1 DIV PUSH16 0xFFFFFFFFFFFFFFFFFFFFFFFFFFFFFFFF AND PUSH16 0xFFFFFFFFFFFFFFFFFFFFFFFFFFFFFFFF AND PUSH16 0xFFFFFFFFFFFFFFFFFFFFFFFFFFFFFFFF AND DUP2 MSTORE PUSH1 0x20 ADD PUSH1 0x4 DUP3 ADD PUSH1 0x0 SWAP1 SLOAD SWAP1 PUSH2 0x100 EXP SWAP1 DIV PUSH4 0xFFFFFFFF AND PUSH4 0xFFFFFFFF AND PUSH4 0xFFFFFFFF AND DUP2 MSTORE PUSH1 0x20 ADD PUSH1 0x4 DUP3 ADD PUSH1 0x4 SWAP1 SLOAD SWAP1 PUSH2 0x100 EXP SWAP1 DIV PUSH4 0xFFFFFFFF AND PUSH4 0xFFFFFFFF AND PUSH4 0xFFFFFFFF AND DUP2 MSTORE PUSH1 0x20 ADD PUSH1 0x4 DUP3 ADD PUSH1 0x8 SWAP1 SLOAD SWAP1 PUSH2 0x100 EXP SWAP1 DIV PUSH1 0xFF AND ISZERO ISZERO ISZERO ISZERO DUP2 MSTORE POP POP DUP3 DUP3 DUP2 MLOAD DUP2 LT PUSH2 0x7ED JUMPI PUSH2 0x7EC PUSH2 0x1ADC JUMP JUMPDEST JUMPDEST PUSH1 0x20 MUL PUSH1 0x20 ADD ADD DUP2 SWAP1 MSTORE POP DUP1 DUP1 PUSH2 0x803 SWAP1 PUSH2 0x1A35 JUMP JUMPDEST SWAP2 POP POP PUSH2 0x523 JUMP JUMPDEST POP DUP1 SWAP3 POP POP POP SWAP2 SWAP1 POP JUMP JUMPDEST PUSH2 0x81E PUSH2 0xFAC JUMP JUMPDEST PUSH1 0x1 PUSH1 0x0 DUP4 DUP2 MSTORE PUSH1 0x20 ADD SWAP1 DUP2 MSTORE PUSH1 0x20 ADD PUSH1 0x0 KECCAK256 PUSH1 0x40 MLOAD DUP1 PUSH2 0x100 ADD PUSH1 0x40 MSTORE SWAP1 DUP2 PUSH1 0x0 DUP3 ADD PUSH1 0x0 SWAP1 SLOAD SWAP1 PUSH2 0x100 EXP SWAP1 DIV PUSH20 0xFFFFFFFFFFFFFFFFFFFFFFFFFFFFFFFFFFFFFFFF AND PUSH20 0xFFFFFFFFFFFFFFFFFFFFFFFFFFFFFFFFFFFFFFFF AND PUSH20 0xFFFFFFFFFFFFFFFFFFFFFFFFFFFFFFFFFFFFFFFF AND DUP2 MSTORE PUSH1 0x20 ADD PUSH1 0x1 DUP3 ADD DUP1 SLOAD PUSH2 0x8A3 SWAP1 PUSH2 0x1A03 JUMP JUMPDEST DUP1 PUSH1 0x1F ADD PUSH1 0x20 DUP1 SWAP2 DIV MUL PUSH1 0x20 ADD PUSH1 0x40 MLOAD SWAP1 DUP2 ADD PUSH1 0x40 MSTORE DUP1 SWAP3 SWAP2 SWAP1 DUP2 DUP2 MSTORE PUSH1 0x20 ADD DUP3 DUP1 SLOAD PUSH2 0x8CF SWAP1 PUSH2 0x1A03 JUMP JUMPDEST DUP1 ISZERO PUSH2 0x91C JUMPI DUP1 PUSH1 0x1F LT PUSH2 0x8F1 JUMPI PUSH2 0x100 DUP1 DUP4 SLOAD DIV MUL DUP4 MSTORE SWAP2 PUSH1 0x20 ADD SWAP2 PUSH2 0x91C JUMP JUMPDEST DUP3 ADD SWAP2 SWAP1 PUSH1 0x0 MSTORE PUSH1 0x20 PUSH1 0x0 KECCAK256 SWAP1 JUMPDEST DUP2 SLOAD DUP2 MSTORE SWAP1 PUSH1 0x1 ADD SWAP1 PUSH1 0x20 ADD DUP1 DUP4 GT PUSH2 0x8FF JUMPI DUP3 SWAP1 SUB PUSH1 0x1F AND DUP3 ADD SWAP2 JUMPDEST POP POP POP POP POP DUP2 MSTORE PUSH1 0x20 ADD PUSH1 0x2 DUP3 ADD DUP1 SLOAD PUSH2 0x935 SWAP1 PUSH2 0x1A03 JUMP JUMPDEST DUP1 PUSH1 0x1F ADD PUSH1 0x20 DUP1 SWAP2 DIV MUL PUSH1 0x20 ADD PUSH1 0x40 MLOAD SWAP1 DUP2 ADD PUSH1 0x40 MSTORE DUP1 SWAP3 SWAP2 SWAP1 DUP2 DUP2 MSTORE PUSH1 0x20 ADD DUP3 DUP1 SLOAD PUSH2 0x961 SWAP1 PUSH2 0x1A03 JUMP JUMPDEST DUP1 ISZERO PUSH2 0x9AE JUMPI DUP1 PUSH1 0x1F LT PUSH2 0x983 JUMPI PUSH2 0x100 DUP1 DUP4 SLOAD DIV MUL DUP4 MSTORE SWAP2 PUSH1 0x20 ADD SWAP2 PUSH2 0x9AE JUMP JUMPDEST DUP3 ADD SWAP2 SWAP1 PUSH1 0x0 MSTORE PUSH1 0x20 PUSH1 0x0 KECCAK256 SWAP1 JUMPDEST DUP2 SLOAD DUP2 MSTORE SWAP1 PUSH1 0x1 ADD SWAP1 PUSH1 0x20 ADD DUP1 DUP4 GT PUSH2 0x991 JUMPI DUP3 SWAP1 SUB PUSH1 0x1F AND DUP3 ADD SWAP2 JUMPDEST POP POP POP POP POP DUP2 MSTORE PUSH1 0x20 ADD PUSH1 0x3 DUP3 ADD PUSH1 0x0 SWAP1 SLOAD SWAP1 PUSH2 0x100 EXP SWAP1 DIV PUSH16 0xFFFFFFFFFFFFFFFFFFFFFFFFFFFFFFFF AND PUSH16 0xFFFFFFFFFFFFFFFFFFFFFFFFFFFFFFFF AND PUSH16 0xFFFFFFFFFFFFFFFFFFFFFFFFFFFFFFFF AND DUP2 MSTORE PUSH1 0x20 ADD PUSH1 0x3 DUP3 ADD PUSH1 0x10 SWAP1 SLOAD SWAP1 PUSH2 0x100 EXP SWAP1 DIV PUSH16 0xFFFFFFFFFFFFFFFFFFFFFFFFFFFFFFFF AND PUSH16 0xFFFFFFFFFFFFFFFFFFFFFFFFFFFFFFFF AND PUSH16 0xFFFFFFFFFFFFFFFFFFFFFFFFFFFFFFFF AND DUP2 MSTORE PUSH1 0x20 ADD PUSH1 0x4 DUP3 ADD PUSH1 0x0 SWAP1 SLOAD SWAP1 PUSH2 0x100 EXP SWAP1 DIV PUSH4 0xFFFFFFFF AND PUSH4 0xFFFFFFFF AND PUSH4 0xFFFFFFFF AND DUP2 MSTORE PUSH1 0x20 ADD PUSH1 0x4 DUP3 ADD PUSH1 0x4 SWAP1 SLOAD SWAP1 PUSH2 0x100 EXP SWAP1 DIV PUSH4 0xFFFFFFFF AND PUSH4 0xFFFFFFFF AND PUSH4 0xFFFFFFFF AND DUP2 MSTORE PUSH1 0x20 ADD PUSH1 0x4 DUP3 ADD PUSH1 0x8 SWAP1 SLOAD SWAP1 PUSH2 0x100 EXP SWAP1 DIV PUSH1 0xFF AND ISZERO ISZERO ISZERO ISZERO DUP2 MSTORE POP POP SWAP1 POP SWAP2 SWAP1 POP JUMP JUMPDEST PUSH1 0x60 PUSH1 0x2 PUSH1 0x0 CALLER PUSH20 0xFFFFFFFFFFFFFFFFFFFFFFFFFFFFFFFFFFFFFFFF AND PUSH20 0xFFFFFFFFFFFFFFFFFFFFFFFFFFFFFFFFFFFFFFFF AND DUP2 MSTORE PUSH1 0x20 ADD SWAP1 DUP2 MSTORE PUSH1 0x20 ADD PUSH1 0x0 KECCAK256 DUP1 SLOAD DUP1 PUSH1 0x20 MUL PUSH1 0x20 ADD PUSH1 0x40 MLOAD SWAP1 DUP2 ADD PUSH1 0x40 MSTORE DUP1 SWAP3 SWAP2 SWAP1 DUP2 DUP2 MSTORE PUSH1 0x20 ADD DUP3 DUP1 SLOAD DUP1 ISZERO PUSH2 0xB44 JUMPI PUSH1 0x20 MUL DUP3 ADD SWAP2 SWAP1 PUSH1 0x0 MSTORE PUSH1 0x20 PUSH1 0x0 KECCAK256 SWAP1 JUMPDEST DUP2 SLOAD DUP2 MSTORE PUSH1 0x20 ADD SWAP1 PUSH1 0x1 ADD SWAP1 DUP1 DUP4 GT PUSH2 0xB30 JUMPI JUMPDEST POP POP POP POP POP SWAP1 POP SWAP1 JUMP JUMPDEST PUSH1 0x40 MLOAD DUP1 PUSH2 0x100 ADD PUSH1 0x40 MSTORE DUP1 CALLER PUSH20 0xFFFFFFFFFFFFFFFFFFFFFFFFFFFFFFFFFFFFFFFF AND DUP2 MSTORE PUSH1 0x20 ADD DUP10 DUP10 DUP1 DUP1 PUSH1 0x1F ADD PUSH1 0x20 DUP1 SWAP2 DIV MUL PUSH1 0x20 ADD PUSH1 0x40 MLOAD SWAP1 DUP2 ADD PUSH1 0x40 MSTORE DUP1 SWAP4 SWAP3 SWAP2 SWAP1 DUP2 DUP2 MSTORE PUSH1 0x20 ADD DUP4 DUP4 DUP1 DUP3 DUP5 CALLDATACOPY PUSH1 0x0 DUP2 DUP5 ADD MSTORE PUSH1 0x1F NOT PUSH1 0x1F DUP3 ADD AND SWAP1 POP DUP1 DUP4 ADD SWAP3 POP POP POP POP POP POP POP DUP2 MSTORE PUSH1 0x20 ADD DUP8 DUP8 DUP1 DUP1 PUSH1 0x1F ADD PUSH1 0x20 DUP1 SWAP2 DIV MUL PUSH1 0x20 ADD PUSH1 0x40 MLOAD SWAP1 DUP2 ADD PUSH1 0x40 MSTORE DUP1 SWAP4 SWAP3 SWAP2 SWAP1 DUP2 DUP2 MSTORE PUSH1 0x20 ADD DUP4 DUP4 DUP1 DUP3 DUP5 CALLDATACOPY PUSH1 0x0 DUP2 DUP5 ADD MSTORE PUSH1 0x1F NOT PUSH1 0x1F DUP3 ADD AND SWAP1 POP DUP1 DUP4 ADD SWAP3 POP POP POP POP POP POP POP DUP2 MSTORE PUSH1 0x20 ADD DUP6 PUSH16 0xFFFFFFFFFFFFFFFFFFFFFFFFFFFFFFFF AND DUP2 MSTORE PUSH1 0x20 ADD DUP5 PUSH16 0xFFFFFFFFFFFFFFFFFFFFFFFFFFFFFFFF AND DUP2 MSTORE PUSH1 0x20 ADD DUP4 PUSH4 0xFFFFFFFF AND DUP2 MSTORE PUSH1 0x20 ADD DUP3 PUSH4 0xFFFFFFFF AND DUP2 MSTORE PUSH1 0x20 ADD PUSH1 0x1 ISZERO ISZERO DUP2 MSTORE POP PUSH1 0x1 PUSH1 0x0 DUP1 SLOAD DUP2 MSTORE PUSH1 0x20 ADD SWAP1 DUP2 MSTORE PUSH1 0x20 ADD PUSH1 0x0 KECCAK256 PUSH1 0x0 DUP3 ADD MLOAD DUP2 PUSH1 0x0 ADD PUSH1 0x0 PUSH2 0x100 EXP DUP2 SLOAD DUP2 PUSH20 0xFFFFFFFFFFFFFFFFFFFFFFFFFFFFFFFFFFFFFFFF MUL NOT AND SWAP1 DUP4 PUSH20 0xFFFFFFFFFFFFFFFFFFFFFFFFFFFFFFFFFFFFFFFF AND MUL OR SWAP1 SSTORE POP PUSH1 0x20 DUP3 ADD MLOAD DUP2 PUSH1 0x1 ADD SWAP1 DUP1 MLOAD SWAP1 PUSH1 0x20 ADD SWAP1 PUSH2 0xCD0 SWAP3 SWAP2 SWAP1 PUSH2 0x1039 JUMP JUMPDEST POP PUSH1 0x40 DUP3 ADD MLOAD DUP2 PUSH1 0x2 ADD SWAP1 DUP1 MLOAD SWAP1 PUSH1 0x20 ADD SWAP1 PUSH2 0xCED SWAP3 SWAP2 SWAP1 PUSH2 0x1039 JUMP JUMPDEST POP PUSH1 0x60 DUP3 ADD MLOAD DUP2 PUSH1 0x3 ADD PUSH1 0x0 PUSH2 0x100 EXP DUP2 SLOAD DUP2 PUSH16 0xFFFFFFFFFFFFFFFFFFFFFFFFFFFFFFFF MUL NOT AND SWAP1 DUP4 PUSH16 0xFFFFFFFFFFFFFFFFFFFFFFFFFFFFFFFF AND MUL OR SWAP1 SSTORE POP PUSH1 0x80 DUP3 ADD MLOAD DUP2 PUSH1 0x3 ADD PUSH1 0x10 PUSH2 0x100 EXP DUP2 SLOAD DUP2 PUSH16 0xFFFFFFFFFFFFFFFFFFFFFFFFFFFFFFFF MUL NOT AND SWAP1 DUP4 PUSH16 0xFFFFFFFFFFFFFFFFFFFFFFFFFFFFFFFF AND MUL OR SWAP1 SSTORE POP PUSH1 0xA0 DUP3 ADD MLOAD DUP2 PUSH1 0x4 ADD PUSH1 0x0 PUSH2 0x100 EXP DUP2 SLOAD DUP2 PUSH4 0xFFFFFFFF MUL NOT AND SWAP1 DUP4 PUSH4 0xFFFFFFFF AND MUL OR SWAP1 SSTORE POP PUSH1 0xC0 DUP3 ADD MLOAD DUP2 PUSH1 0x4 ADD PUSH1 0x4 PUSH2 0x100 EXP DUP2 SLOAD DUP2 PUSH4 0xFFFFFFFF MUL NOT AND SWAP1 DUP4 PUSH4 0xFFFFFFFF AND MUL OR SWAP1 SSTORE POP PUSH1 0xE0 DUP3 ADD MLOAD DUP2 PUSH1 0x4 ADD PUSH1 0x8 PUSH2 0x100 EXP DUP2 SLOAD DUP2 PUSH1 0xFF MUL NOT AND SWAP1 DUP4 ISZERO ISZERO MUL OR SWAP1 SSTORE POP SWAP1 POP POP PUSH1 0x2 PUSH1 0x0 CALLER PUSH20 0xFFFFFFFFFFFFFFFFFFFFFFFFFFFFFFFFFFFFFFFF AND PUSH20 0xFFFFFFFFFFFFFFFFFFFFFFFFFFFFFFFFFFFFFFFF AND DUP2 MSTORE PUSH1 0x20 ADD SWAP1 DUP2 MSTORE PUSH1 0x20 ADD PUSH1 0x0 KECCAK256 PUSH1 0x0 SLOAD SWAP1 DUP1 PUSH1 0x1 DUP2 SLOAD ADD DUP1 DUP3 SSTORE DUP1 SWAP2 POP POP PUSH1 0x1 SWAP1 SUB SWAP1 PUSH1 0x0 MSTORE PUSH1 0x20 PUSH1 0x0 KECCAK256 ADD PUSH1 0x0 SWAP1 SWAP2 SWAP1 SWAP2 SWAP1 SWAP2 POP SSTORE CALLER PUSH20 0xFFFFFFFFFFFFFFFFFFFFFFFFFFFFFFFFFFFFFFFF AND PUSH1 0x0 SLOAD PUSH32 0xB544B666BF20D30FC9ACBC75AEE55E5847E8F95A49AA5D36B6DAB734F0CBB303 DUP11 DUP11 DUP11 DUP11 DUP11 DUP11 DUP11 DUP11 TIMESTAMP PUSH1 0x40 MLOAD PUSH2 0xE9E SWAP10 SWAP9 SWAP8 SWAP7 SWAP6 SWAP5 SWAP4 SWAP3 SWAP2 SWAP1 PUSH2 0x17A1 JUMP JUMPDEST PUSH1 0x40 MLOAD DUP1 SWAP2 SUB SWAP1 LOG3 PUSH1 0x0 DUP1 DUP2 SLOAD DUP1 SWAP3 SWAP2 SWAP1 PUSH2 0xEB8 SWAP1 PUSH2 0x1A35 JUMP JUMPDEST SWAP2 SWAP1 POP SSTORE POP POP POP POP POP POP POP POP POP JUMP JUMPDEST DUP1 PUSH1 0x1 PUSH1 0x0 DUP5 DUP2 MSTORE PUSH1 0x20 ADD SWAP1 DUP2 MSTORE PUSH1 0x20 ADD PUSH1 0x0 KECCAK256 PUSH1 0x3 ADD PUSH1 0x0 DUP3 DUP3 DUP3 SWAP1 SLOAD SWAP1 PUSH2 0x100 EXP SWAP1 DIV PUSH16 0xFFFFFFFFFFFFFFFFFFFFFFFFFFFFFFFF AND PUSH2 0xF08 SWAP2 SWAP1 PUSH2 0x1919 JUMP JUMPDEST SWAP3 POP PUSH2 0x100 EXP DUP2 SLOAD DUP2 PUSH16 0xFFFFFFFFFFFFFFFFFFFFFFFFFFFFFFFF MUL NOT AND SWAP1 DUP4 PUSH16 0xFFFFFFFFFFFFFFFFFFFFFFFFFFFFFFFF AND MUL OR SWAP1 SSTORE POP DUP2 PUSH32 0x1F3D301ECA9B893FB3AE34F526F7B346CFE3086BE67884CE1E652593C91668D6 PUSH1 0x1 PUSH1 0x0 DUP6 DUP2 MSTORE PUSH1 0x20 ADD SWAP1 DUP2 MSTORE PUSH1 0x20 ADD PUSH1 0x0 KECCAK256 PUSH1 0x3 ADD PUSH1 0x0 SWAP1 SLOAD SWAP1 PUSH2 0x100 EXP SWAP1 DIV PUSH16 0xFFFFFFFFFFFFFFFFFFFFFFFFFFFFFFFF AND PUSH1 0x40 MLOAD PUSH2 0xFA0 SWAP2 SWAP1 PUSH2 0x1844 JUMP JUMPDEST PUSH1 0x40 MLOAD DUP1 SWAP2 SUB SWAP1 LOG2 POP POP JUMP JUMPDEST PUSH1 0x40 MLOAD DUP1 PUSH2 0x100 ADD PUSH1 0x40 MSTORE DUP1 PUSH1 0x0 PUSH20 0xFFFFFFFFFFFFFFFFFFFFFFFFFFFFFFFFFFFFFFFF AND DUP2 MSTORE PUSH1 0x20 ADD PUSH1 0x60 DUP2 MSTORE PUSH1 0x20 ADD PUSH1 0x60 DUP2 MSTORE PUSH1 0x20 ADD PUSH1 0x0 PUSH16 0xFFFFFFFFFFFFFFFFFFFFFFFFFFFFFFFF AND DUP2 MSTORE PUSH1 0x20 ADD PUSH1 0x0 PUSH16 0xFFFFFFFFFFFFFFFFFFFFFFFFFFFFFFFF AND DUP2 MSTORE PUSH1 0x20 ADD PUSH1 0x0 PUSH4 0xFFFFFFFF AND DUP2 MSTORE PUSH1 0x20 ADD PUSH1 0x0 PUSH4 0xFFFFFFFF AND DUP2 MSTORE PUSH1 0x20 ADD PUSH1 0x0 ISZERO ISZERO DUP2 MSTORE POP SWAP1 JUMP JUMPDEST DUP3 DUP1 SLOAD PUSH2 0x1045 SWAP1 PUSH2 0x1A03 JUMP JUMPDEST SWAP1 PUSH1 0x0 MSTORE PUSH1 0x20 PUSH1 0x0 KECCAK256 SWAP1 PUSH1 0x1F ADD PUSH1 0x20 SWAP1 DIV DUP2 ADD SWAP3 DUP3 PUSH2 0x1067 JUMPI PUSH1 0x0 DUP6 SSTORE PUSH2 0x10AE JUMP JUMPDEST DUP3 PUSH1 0x1F LT PUSH2 0x1080 JUMPI DUP1 MLOAD PUSH1 0xFF NOT AND DUP4 DUP1 ADD OR DUP6 SSTORE PUSH2 0x10AE JUMP JUMPDEST DUP3 DUP1 ADD PUSH1 0x1 ADD DUP6 SSTORE DUP3 ISZERO PUSH2 0x10AE JUMPI SWAP2 DUP3 ADD JUMPDEST DUP3 DUP2 GT ISZERO PUSH2 0x10AD JUMPI DUP3 MLOAD DUP3 SSTORE SWAP2 PUSH1 0x20 ADD SWAP2 SWAP1 PUSH1 0x1 ADD SWAP1 PUSH2 0x1092 JUMP JUMPDEST JUMPDEST POP SWAP1 POP PUSH2 0x10BB SWAP2 SWAP1 PUSH2 0x10BF JUMP JUMPDEST POP SWAP1 JUMP JUMPDEST JUMPDEST DUP1 DUP3 GT ISZERO PUSH2 0x10D8 JUMPI PUSH1 0x0 DUP2 PUSH1 0x0 SWAP1 SSTORE POP PUSH1 0x1 ADD PUSH2 0x10C0 JUMP JUMPDEST POP SWAP1 JUMP JUMPDEST PUSH1 0x0 DUP2 CALLDATALOAD SWAP1 POP PUSH2 0x10EB DUP2 PUSH2 0x1B64 JUMP JUMPDEST SWAP3 SWAP2 POP POP JUMP JUMPDEST PUSH1 0x0 DUP1 DUP4 PUSH1 0x1F DUP5 ADD SLT PUSH2 0x1107 JUMPI PUSH2 0x1106 PUSH2 0x1B3F JUMP JUMPDEST JUMPDEST DUP3 CALLDATALOAD SWAP1 POP PUSH8 0xFFFFFFFFFFFFFFFF DUP2 GT ISZERO PUSH2 0x1124 JUMPI PUSH2 0x1123 PUSH2 0x1B3A JUMP JUMPDEST JUMPDEST PUSH1 0x20 DUP4 ADD SWAP2 POP DUP4 PUSH1 0x1 DUP3 MUL DUP4 ADD GT ISZERO PUSH2 0x1140 JUMPI PUSH2 0x113F PUSH2 0x1B44 JUMP JUMPDEST JUMPDEST SWAP3 POP SWAP3 SWAP1 POP JUMP JUMPDEST PUSH1 0x0 DUP2 CALLDATALOAD SWAP1 POP PUSH2 0x1156 DUP2 PUSH2 0x1B7B JUMP JUMPDEST SWAP3 SWAP2 POP POP JUMP JUMPDEST PUSH1 0x0 DUP2 CALLDATALOAD SWAP1 POP PUSH2 0x116B DUP2 PUSH2 0x1B92 JUMP JUMPDEST SWAP3 SWAP2 POP POP JUMP JUMPDEST PUSH1 0x0 DUP2 CALLDATALOAD SWAP1 POP PUSH2 0x1180 DUP2 PUSH2 0x1BA9 JUMP JUMPDEST SWAP3 SWAP2 POP POP JUMP JUMPDEST PUSH1 0x0 PUSH1 0x20 DUP3 DUP5 SUB SLT ISZERO PUSH2 0x119C JUMPI PUSH2 0x119B PUSH2 0x1B4E JUMP JUMPDEST JUMPDEST PUSH1 0x0 PUSH2 0x11AA DUP5 DUP3 DUP6 ADD PUSH2 0x10DC JUMP JUMPDEST SWAP2 POP POP SWAP3 SWAP2 POP POP JUMP JUMPDEST PUSH1 0x0 DUP1 PUSH1 0x40 DUP4 DUP6 SUB SLT ISZERO PUSH2 0x11CA JUMPI PUSH2 0x11C9 PUSH2 0x1B4E JUMP JUMPDEST JUMPDEST PUSH1 0x0 PUSH2 0x11D8 DUP6 DUP3 DUP7 ADD PUSH2 0x10DC JUMP JUMPDEST SWAP3 POP POP PUSH1 0x20 PUSH2 0x11E9 DUP6 DUP3 DUP7 ADD PUSH2 0x115C JUMP JUMPDEST SWAP2 POP POP SWAP3 POP SWAP3 SWAP1 POP JUMP JUMPDEST PUSH1 0x0 DUP1 PUSH1 0x0 DUP1 PUSH1 0x0 DUP1 PUSH1 0x0 DUP1 PUSH1 0xC0 DUP10 DUP12 SUB SLT ISZERO PUSH2 0x1213 JUMPI PUSH2 0x1212 PUSH2 0x1B4E JUMP JUMPDEST JUMPDEST PUSH1 0x0 DUP10 ADD CALLDATALOAD PUSH8 0xFFFFFFFFFFFFFFFF DUP2 GT ISZERO PUSH2 0x1231 JUMPI PUSH2 0x1230 PUSH2 0x1B49 JUMP JUMPDEST JUMPDEST PUSH2 0x123D DUP12 DUP3 DUP13 ADD PUSH2 0x10F1 JUMP JUMPDEST SWAP9 POP SWAP9 POP POP PUSH1 0x20 DUP10 ADD CALLDATALOAD PUSH8 0xFFFFFFFFFFFFFFFF DUP2 GT ISZERO PUSH2 0x1260 JUMPI PUSH2 0x125F PUSH2 0x1B49 JUMP JUMPDEST JUMPDEST PUSH2 0x126C DUP12 DUP3 DUP13 ADD PUSH2 0x10F1 JUMP JUMPDEST SWAP7 POP SWAP7 POP POP PUSH1 0x40 PUSH2 0x127F DUP12 DUP3 DUP13 ADD PUSH2 0x1147 JUMP JUMPDEST SWAP5 POP POP PUSH1 0x60 PUSH2 0x1290 DUP12 DUP3 DUP13 ADD PUSH2 0x1147 JUMP JUMPDEST SWAP4 POP POP PUSH1 0x80 PUSH2 0x12A1 DUP12 DUP3 DUP13 ADD PUSH2 0x1171 JUMP JUMPDEST SWAP3 POP POP PUSH1 0xA0 PUSH2 0x12B2 DUP12 DUP3 DUP13 ADD PUSH2 0x1171 JUMP JUMPDEST SWAP2 POP POP SWAP3 SWAP6 SWAP9 POP SWAP3 SWAP6 SWAP9 SWAP1 SWAP4 SWAP7 POP JUMP JUMPDEST PUSH1 0x0 PUSH1 0x20 DUP3 DUP5 SUB SLT ISZERO PUSH2 0x12D8 JUMPI PUSH2 0x12D7 PUSH2 0x1B4E JUMP JUMPDEST JUMPDEST PUSH1 0x0 PUSH2 0x12E6 DUP5 DUP3 DUP6 ADD PUSH2 0x115C JUMP JUMPDEST SWAP2 POP POP SWAP3 SWAP2 POP POP JUMP JUMPDEST PUSH1 0x0 DUP1 PUSH1 0x40 DUP4 DUP6 SUB SLT ISZERO PUSH2 0x1306 JUMPI PUSH2 0x1305 PUSH2 0x1B4E JUMP JUMPDEST JUMPDEST PUSH1 0x0 PUSH2 0x1314 DUP6 DUP3 DUP7 ADD PUSH2 0x115C JUMP JUMPDEST SWAP3 POP POP PUSH1 0x20 PUSH2 0x1325 DUP6 DUP3 DUP7 ADD PUSH2 0x1147 JUMP JUMPDEST SWAP2 POP POP SWAP3 POP SWAP3 SWAP1 POP JUMP JUMPDEST PUSH1 0x0 PUSH2 0x133B DUP4 DUP4 PUSH2 0x1509 JUMP JUMPDEST SWAP1 POP SWAP3 SWAP2 POP POP JUMP JUMPDEST PUSH1 0x0 PUSH2 0x134F DUP4 DUP4 PUSH2 0x1695 JUMP JUMPDEST PUSH1 0x20 DUP4 ADD SWAP1 POP SWAP3 SWAP2 POP POP JUMP JUMPDEST PUSH2 0x1364 DUP2 PUSH2 0x194D JUMP JUMPDEST DUP3 MSTORE POP POP JUMP JUMPDEST PUSH2 0x1373 DUP2 PUSH2 0x194D JUMP JUMPDEST DUP3 MSTORE POP POP JUMP JUMPDEST PUSH1 0x0 PUSH2 0x1384 DUP3 PUSH2 0x189A JUMP JUMPDEST PUSH2 0x138E DUP2 DUP6 PUSH2 0x18D5 JUMP JUMPDEST SWAP4 POP DUP4 PUSH1 0x20 DUP3 MUL DUP6 ADD PUSH2 0x13A0 DUP6 PUSH2 0x187A JUMP JUMPDEST DUP1 PUSH1 0x0 JUMPDEST DUP6 DUP2 LT ISZERO PUSH2 0x13DC JUMPI DUP5 DUP5 SUB DUP10 MSTORE DUP2 MLOAD PUSH2 0x13BD DUP6 DUP3 PUSH2 0x132F JUMP JUMPDEST SWAP5 POP PUSH2 0x13C8 DUP4 PUSH2 0x18BB JUMP JUMPDEST SWAP3 POP PUSH1 0x20 DUP11 ADD SWAP10 POP POP PUSH1 0x1 DUP2 ADD SWAP1 POP PUSH2 0x13A4 JUMP JUMPDEST POP DUP3 SWAP8 POP DUP8 SWAP6 POP POP POP POP POP POP SWAP3 SWAP2 POP POP JUMP JUMPDEST PUSH1 0x0 PUSH2 0x13F9 DUP3 PUSH2 0x18A5 JUMP JUMPDEST PUSH2 0x1403 DUP2 DUP6 PUSH2 0x18E6 JUMP JUMPDEST SWAP4 POP PUSH2 0x140E DUP4 PUSH2 0x188A JUMP JUMPDEST DUP1 PUSH1 0x0 JUMPDEST DUP4 DUP2 LT ISZERO PUSH2 0x143F JUMPI DUP2 MLOAD PUSH2 0x1426 DUP9 DUP3 PUSH2 0x1343 JUMP JUMPDEST SWAP8 POP PUSH2 0x1431 DUP4 PUSH2 0x18C8 JUMP JUMPDEST SWAP3 POP POP PUSH1 0x1 DUP2 ADD SWAP1 POP PUSH2 0x1412 JUMP JUMPDEST POP DUP6 SWAP4 POP POP POP POP SWAP3 SWAP2 POP POP JUMP JUMPDEST PUSH2 0x1455 DUP2 PUSH2 0x195F JUMP JUMPDEST DUP3 MSTORE POP POP JUMP JUMPDEST PUSH2 0x1464 DUP2 PUSH2 0x195F JUMP JUMPDEST DUP3 MSTORE POP POP JUMP JUMPDEST PUSH1 0x0 PUSH2 0x1476 DUP4 DUP6 PUSH2 0x1908 JUMP JUMPDEST SWAP4 POP PUSH2 0x1483 DUP4 DUP6 DUP5 PUSH2 0x19C1 JUMP JUMPDEST PUSH2 0x148C DUP4 PUSH2 0x1B53 JUMP JUMPDEST DUP5 ADD SWAP1 POP SWAP4 SWAP3 POP POP POP JUMP JUMPDEST PUSH1 0x0 PUSH2 0x14A2 DUP3 PUSH2 0x18B0 JUMP JUMPDEST PUSH2 0x14AC DUP2 DUP6 PUSH2 0x18F7 JUMP JUMPDEST SWAP4 POP PUSH2 0x14BC DUP2 DUP6 PUSH1 0x20 DUP7 ADD PUSH2 0x19D0 JUMP JUMPDEST PUSH2 0x14C5 DUP2 PUSH2 0x1B53 JUMP JUMPDEST DUP5 ADD SWAP2 POP POP SWAP3 SWAP2 POP POP JUMP JUMPDEST PUSH1 0x0 PUSH2 0x14DB DUP3 PUSH2 0x18B0 JUMP JUMPDEST PUSH2 0x14E5 DUP2 DUP6 PUSH2 0x1908 JUMP JUMPDEST SWAP4 POP PUSH2 0x14F5 DUP2 DUP6 PUSH1 0x20 DUP7 ADD PUSH2 0x19D0 JUMP JUMPDEST PUSH2 0x14FE DUP2 PUSH2 0x1B53 JUMP JUMPDEST DUP5 ADD SWAP2 POP POP SWAP3 SWAP2 POP POP JUMP JUMPDEST PUSH1 0x0 PUSH2 0x100 DUP4 ADD PUSH1 0x0 DUP4 ADD MLOAD PUSH2 0x1522 PUSH1 0x0 DUP7 ADD DUP3 PUSH2 0x135B JUMP JUMPDEST POP PUSH1 0x20 DUP4 ADD MLOAD DUP5 DUP3 SUB PUSH1 0x20 DUP7 ADD MSTORE PUSH2 0x153A DUP3 DUP3 PUSH2 0x1497 JUMP JUMPDEST SWAP2 POP POP PUSH1 0x40 DUP4 ADD MLOAD DUP5 DUP3 SUB PUSH1 0x40 DUP7 ADD MSTORE PUSH2 0x1554 DUP3 DUP3 PUSH2 0x1497 JUMP JUMPDEST SWAP2 POP POP PUSH1 0x60 DUP4 ADD MLOAD PUSH2 0x1569 PUSH1 0x60 DUP7 ADD DUP3 PUSH2 0x1677 JUMP JUMPDEST POP PUSH1 0x80 DUP4 ADD MLOAD PUSH2 0x157C PUSH1 0x80 DUP7 ADD DUP3 PUSH2 0x1677 JUMP JUMPDEST POP PUSH1 0xA0 DUP4 ADD MLOAD PUSH2 0x158F PUSH1 0xA0 DUP7 ADD DUP3 PUSH2 0x16B3 JUMP JUMPDEST POP PUSH1 0xC0 DUP4 ADD MLOAD PUSH2 0x15A2 PUSH1 0xC0 DUP7 ADD DUP3 PUSH2 0x16B3 JUMP JUMPDEST POP PUSH1 0xE0 DUP4 ADD MLOAD PUSH2 0x15B5 PUSH1 0xE0 DUP7 ADD DUP3 PUSH2 0x144C JUMP JUMPDEST POP DUP1 SWAP2 POP POP SWAP3 SWAP2 POP POP JUMP JUMPDEST PUSH1 0x0 PUSH2 0x100 DUP4 ADD PUSH1 0x0 DUP4 ADD MLOAD PUSH2 0x15D9 PUSH1 0x0 DUP7 ADD DUP3 PUSH2 0x135B JUMP JUMPDEST POP PUSH1 0x20 DUP4 ADD MLOAD DUP5 DUP3 SUB PUSH1 0x20 DUP7 ADD MSTORE PUSH2 0x15F1 DUP3 DUP3 PUSH2 0x1497 JUMP JUMPDEST SWAP2 POP POP PUSH1 0x40 DUP4 ADD MLOAD DUP5 DUP3 SUB PUSH1 0x40 DUP7 ADD MSTORE PUSH2 0x160B DUP3 DUP3 PUSH2 0x1497 JUMP JUMPDEST SWAP2 POP POP PUSH1 0x60 DUP4 ADD MLOAD PUSH2 0x1620 PUSH1 0x60 DUP7 ADD DUP3 PUSH2 0x1677 JUMP JUMPDEST POP PUSH1 0x80 DUP4 ADD MLOAD PUSH2 0x1633 PUSH1 0x80 DUP7 ADD DUP3 PUSH2 0x1677 JUMP JUMPDEST POP PUSH1 0xA0 DUP4 ADD MLOAD PUSH2 0x1646 PUSH1 0xA0 DUP7 ADD DUP3 PUSH2 0x16B3 JUMP JUMPDEST POP PUSH1 0xC0 DUP4 ADD MLOAD PUSH2 0x1659 PUSH1 0xC0 DUP7 ADD DUP3 PUSH2 0x16B3 JUMP JUMPDEST POP PUSH1 0xE0 DUP4 ADD MLOAD PUSH2 0x166C PUSH1 0xE0 DUP7 ADD DUP3 PUSH2 0x144C JUMP JUMPDEST POP DUP1 SWAP2 POP POP SWAP3 SWAP2 POP POP JUMP JUMPDEST PUSH2 0x1680 DUP2 PUSH2 0x196B JUMP JUMPDEST DUP3 MSTORE POP POP JUMP JUMPDEST PUSH2 0x168F DUP2 PUSH2 0x196B JUMP JUMPDEST DUP3 MSTORE POP POP JUMP JUMPDEST PUSH2 0x169E DUP2 PUSH2 0x19A7 JUMP JUMPDEST DUP3 MSTORE POP POP JUMP JUMPDEST PUSH2 0x16AD DUP2 PUSH2 0x19A7 JUMP JUMPDEST DUP3 MSTORE POP POP JUMP JUMPDEST PUSH2 0x16BC DUP2 PUSH2 0x19B1 JUMP JUMPDEST DUP3 MSTORE POP POP JUMP JUMPDEST PUSH2 0x16CB DUP2 PUSH2 0x19B1 JUMP JUMPDEST DUP3 MSTORE POP POP JUMP JUMPDEST PUSH1 0x0 PUSH2 0x100 DUP3 ADD SWAP1 POP PUSH2 0x16E7 PUSH1 0x0 DUP4 ADD DUP12 PUSH2 0x136A JUMP JUMPDEST DUP2 DUP2 SUB PUSH1 0x20 DUP4 ADD MSTORE PUSH2 0x16F9 DUP2 DUP11 PUSH2 0x14D0 JUMP JUMPDEST SWAP1 POP DUP2 DUP2 SUB PUSH1 0x40 DUP4 ADD MSTORE PUSH2 0x170D DUP2 DUP10 PUSH2 0x14D0 JUMP JUMPDEST SWAP1 POP PUSH2 0x171C PUSH1 0x60 DUP4 ADD DUP9 PUSH2 0x1686 JUMP JUMPDEST PUSH2 0x1729 PUSH1 0x80 DUP4 ADD DUP8 PUSH2 0x1686 JUMP JUMPDEST PUSH2 0x1736 PUSH1 0xA0 DUP4 ADD DUP7 PUSH2 0x16C2 JUMP JUMPDEST PUSH2 0x1743 PUSH1 0xC0 DUP4 ADD DUP6 PUSH2 0x16C2 JUMP JUMPDEST PUSH2 0x1750 PUSH1 0xE0 DUP4 ADD DUP5 PUSH2 0x145B JUMP JUMPDEST SWAP10 SWAP9 POP POP POP POP POP POP POP POP POP JUMP JUMPDEST PUSH1 0x0 PUSH1 0x20 DUP3 ADD SWAP1 POP DUP2 DUP2 SUB PUSH1 0x0 DUP4 ADD MSTORE PUSH2 0x1777 DUP2 DUP5 PUSH2 0x1379 JUMP JUMPDEST SWAP1 POP SWAP3 SWAP2 POP POP JUMP JUMPDEST PUSH1 0x0 PUSH1 0x20 DUP3 ADD SWAP1 POP DUP2 DUP2 SUB PUSH1 0x0 DUP4 ADD MSTORE PUSH2 0x1799 DUP2 DUP5 PUSH2 0x13EE JUMP JUMPDEST SWAP1 POP SWAP3 SWAP2 POP POP JUMP JUMPDEST PUSH1 0x0 PUSH1 0xE0 DUP3 ADD SWAP1 POP DUP2 DUP2 SUB PUSH1 0x0 DUP4 ADD MSTORE PUSH2 0x17BC DUP2 DUP12 DUP14 PUSH2 0x146A JUMP JUMPDEST SWAP1 POP DUP2 DUP2 SUB PUSH1 0x20 DUP4 ADD MSTORE PUSH2 0x17D1 DUP2 DUP10 DUP12 PUSH2 0x146A JUMP JUMPDEST SWAP1 POP PUSH2 0x17E0 PUSH1 0x40 DUP4 ADD DUP9 PUSH2 0x1686 JUMP JUMPDEST PUSH2 0x17ED PUSH1 0x60 DUP4 ADD DUP8 PUSH2 0x1686 JUMP JUMPDEST PUSH2 0x17FA PUSH1 0x80 DUP4 ADD DUP7 PUSH2 0x16C2 JUMP JUMPDEST PUSH2 0x1807 PUSH1 0xA0 DUP4 ADD DUP6 PUSH2 0x16C2 JUMP JUMPDEST PUSH2 0x1814 PUSH1 0xC0 DUP4 ADD DUP5 PUSH2 0x16A4 JUMP JUMPDEST SWAP11 SWAP10 POP POP POP POP POP POP POP POP POP POP JUMP JUMPDEST PUSH1 0x0 PUSH1 0x20 DUP3 ADD SWAP1 POP DUP2 DUP2 SUB PUSH1 0x0 DUP4 ADD MSTORE PUSH2 0x183C DUP2 DUP5 PUSH2 0x15C0 JUMP JUMPDEST SWAP1 POP SWAP3 SWAP2 POP POP JUMP JUMPDEST PUSH1 0x0 PUSH1 0x20 DUP3 ADD SWAP1 POP PUSH2 0x1859 PUSH1 0x0 DUP4 ADD DUP5 PUSH2 0x1686 JUMP JUMPDEST SWAP3 SWAP2 POP POP JUMP JUMPDEST PUSH1 0x0 PUSH1 0x20 DUP3 ADD SWAP1 POP PUSH2 0x1874 PUSH1 0x0 DUP4 ADD DUP5 PUSH2 0x16A4 JUMP JUMPDEST SWAP3 SWAP2 POP POP JUMP JUMPDEST PUSH1 0x0 DUP2 SWAP1 POP PUSH1 0x20 DUP3 ADD SWAP1 POP SWAP2 SWAP1 POP JUMP JUMPDEST PUSH1 0x0 DUP2 SWAP1 POP PUSH1 0x20 DUP3 ADD SWAP1 POP SWAP2 SWAP1 POP JUMP JUMPDEST PUSH1 0x0 DUP2 MLOAD SWAP1 POP SWAP2 SWAP1 POP JUMP JUMPDEST PUSH1 0x0 DUP2 MLOAD SWAP1 POP SWAP2 SWAP1 POP JUMP JUMPDEST PUSH1 0x0 DUP2 MLOAD SWAP1 POP SWAP2 SWAP1 POP JUMP JUMPDEST PUSH1 0x0 PUSH1 0x20 DUP3 ADD SWAP1 POP SWAP2 SWAP1 POP JUMP JUMPDEST PUSH1 0x0 PUSH1 0x20 DUP3 ADD SWAP1 POP SWAP2 SWAP1 POP JUMP JUMPDEST PUSH1 0x0 DUP3 DUP3 MSTORE PUSH1 0x20 DUP3 ADD SWAP1 POP SWAP3 SWAP2 POP POP JUMP JUMPDEST PUSH1 0x0 DUP3 DUP3 MSTORE PUSH1 0x20 DUP3 ADD SWAP1 POP SWAP3 SWAP2 POP POP JUMP JUMPDEST PUSH1 0x0 DUP3 DUP3 MSTORE PUSH1 0x20 DUP3 ADD SWAP1 POP SWAP3 SWAP2 POP POP JUMP JUMPDEST PUSH1 0x0 DUP3 DUP3 MSTORE PUSH1 0x20 DUP3 ADD SWAP1 POP SWAP3 SWAP2 POP POP JUMP JUMPDEST PUSH1 0x0 PUSH2 0x1924 DUP3 PUSH2 0x196B JUMP JUMPDEST SWAP2 POP PUSH2 0x192F DUP4 PUSH2 0x196B JUMP JUMPDEST SWAP3 POP DUP3 DUP3 LT ISZERO PUSH2 0x1942 JUMPI PUSH2 0x1941 PUSH2 0x1A7E JUMP JUMPDEST JUMPDEST DUP3 DUP3 SUB SWAP1 POP SWAP3 SWAP2 POP POP JUMP JUMPDEST PUSH1 0x0 PUSH2 0x1958 DUP3 PUSH2 0x1987 JUMP JUMPDEST SWAP1 POP SWAP2 SWAP1 POP JUMP JUMPDEST PUSH1 0x0 DUP2 ISZERO ISZERO SWAP1 POP SWAP2 SWAP1 POP JUMP JUMPDEST PUSH1 0x0 PUSH16 0xFFFFFFFFFFFFFFFFFFFFFFFFFFFFFFFF DUP3 AND SWAP1 POP SWAP2 SWAP1 POP JUMP JUMPDEST PUSH1 0x0 PUSH20 0xFFFFFFFFFFFFFFFFFFFFFFFFFFFFFFFFFFFFFFFF DUP3 AND SWAP1 POP SWAP2 SWAP1 POP JUMP JUMPDEST PUSH1 0x0 DUP2 SWAP1 POP SWAP2 SWAP1 POP JUMP JUMPDEST PUSH1 0x0 PUSH4 0xFFFFFFFF DUP3 AND SWAP1 POP SWAP2 SWAP1 POP JUMP JUMPDEST DUP3 DUP2 DUP4 CALLDATACOPY PUSH1 0x0 DUP4 DUP4 ADD MSTORE POP POP POP JUMP JUMPDEST PUSH1 0x0 JUMPDEST DUP4 DUP2 LT ISZERO PUSH2 0x19EE JUMPI DUP1 DUP3 ADD MLOAD DUP2 DUP5 ADD MSTORE PUSH1 0x20 DUP2 ADD SWAP1 POP PUSH2 0x19D3 JUMP JUMPDEST DUP4 DUP2 GT ISZERO PUSH2 0x19FD JUMPI PUSH1 0x0 DUP5 DUP5 ADD MSTORE JUMPDEST POP POP POP POP JUMP JUMPDEST PUSH1 0x0 PUSH1 0x2 DUP3 DIV SWAP1 POP PUSH1 0x1 DUP3 AND DUP1 PUSH2 0x1A1B JUMPI PUSH1 0x7F DUP3 AND SWAP2 POP JUMPDEST PUSH1 0x20 DUP3 LT DUP2 EQ ISZERO PUSH2 0x1A2F JUMPI PUSH2 0x1A2E PUSH2 0x1AAD JUMP JUMPDEST JUMPDEST POP SWAP2 SWAP1 POP JUMP JUMPDEST PUSH1 0x0 PUSH2 0x1A40 DUP3 PUSH2 0x19A7 JUMP JUMPDEST SWAP2 POP PUSH32 0xFFFFFFFFFFFFFFFFFFFFFFFFFFFFFFFFFFFFFFFFFFFFFFFFFFFFFFFFFFFFFFFF DUP3 EQ ISZERO PUSH2 0x1A73 JUMPI PUSH2 0x1A72 PUSH2 0x1A7E JUMP JUMPDEST JUMPDEST PUSH1 0x1 DUP3 ADD SWAP1 POP SWAP2 SWAP1 POP JUMP JUMPDEST PUSH32 0x4E487B7100000000000000000000000000000000000000000000000000000000 PUSH1 0x0 MSTORE PUSH1 0x11 PUSH1 0x4 MSTORE PUSH1 0x24 PUSH1 0x0 REVERT JUMPDEST PUSH32 0x4E487B7100000000000000000000000000000000000000000000000000000000 PUSH1 0x0 MSTORE PUSH1 0x22 PUSH1 0x4 MSTORE PUSH1 0x24 PUSH1 0x0 REVERT JUMPDEST PUSH32 0x4E487B7100000000000000000000000000000000000000000000000000000000 PUSH1 0x0 MSTORE PUSH1 0x32 PUSH1 0x4 MSTORE PUSH1 0x24 PUSH1 0x0 REVERT JUMPDEST PUSH32 0x4E487B7100000000000000000000000000000000000000000000000000000000 PUSH1 0x0 MSTORE PUSH1 0x41 PUSH1 0x4 MSTORE PUSH1 0x24 PUSH1 0x0 REVERT JUMPDEST PUSH1 0x0 DUP1 REVERT JUMPDEST PUSH1 0x0 DUP1 REVERT JUMPDEST PUSH1 0x0 DUP1 REVERT JUMPDEST PUSH1 0x0 DUP1 REVERT JUMPDEST PUSH1 0x0 DUP1 REVERT JUMPDEST PUSH1 0x0 PUSH1 0x1F NOT PUSH1 0x1F DUP4 ADD AND SWAP1 POP SWAP2 SWAP1 POP JUMP JUMPDEST PUSH2 0x1B6D DUP2 PUSH2 0x194D JUMP JUMPDEST DUP2 EQ PUSH2 0x1B78 JUMPI PUSH1 0x0 DUP1 REVERT JUMPDEST POP JUMP JUMPDEST PUSH2 0x1B84 DUP2 PUSH2 0x196B JUMP JUMPDEST DUP2 EQ PUSH2 0x1B8F JUMPI PUSH1 0x0 DUP1 REVERT JUMPDEST POP JUMP JUMPDEST PUSH2 0x1B9B DUP2 PUSH2 0x19A7 JUMP JUMPDEST DUP2 EQ PUSH2 0x1BA6 JUMPI PUSH1 0x0 DUP1 REVERT JUMPDEST POP JUMP JUMPDEST PUSH2 0x1BB2 DUP2 PUSH2 0x19B1 JUMP JUMPDEST DUP2 EQ PUSH2 0x1BBD JUMPI PUSH1 0x0 DUP1 REVERT JUMPDEST POP JUMP INVALID LOG2 PUSH5 0x6970667358 0x22 SLT KECCAK256 NUMBER 0xB0 ADDRESS 0xB3 PC CALLVALUE RETURNDATACOPY 0xD7 KECCAK256 POP RETURNDATACOPY 0xD PUSH14 0xCF8301A849A0E7614664AFE30FE5 0xEC 0xCF SLT MULMOD 0xD9 PUSH5 0x736F6C6343 STOP ADDMOD SMOD STOP CALLER "
				},
				"gasEstimates": {
					"creation": {
						"codeDepositCost": "1431600",
						"executionCost": "23599",
						"totalCost": "1455199"
					},
					"external": {
						"addSupplierProduct(bytes,bytes,uint128,uint128,uint32,uint32)": "infinite",
						"deleteSupplierProduct(uint256)": "26007",
						"getAllProductsOfSupplier(address)": "infinite",
						"getSingleSupplierProduct(uint256)": "infinite",
						"getSupplierProductIds()": "infinite",
						"supplierAddressToproductsIdMapping(address,uint256)": "infinite",
						"supplierProductsIdToStructMapping(uint256)": "infinite",
						"updateSupplierProductUints(uint256,uint128)": "infinite"
					}
				},
				"methodIdentifiers": {
					"addSupplierProduct(bytes,bytes,uint128,uint128,uint32,uint32)": "ee7e7c99",
					"deleteSupplierProduct(uint256)": "79ae0257",
					"getAllProductsOfSupplier(address)": "83f95853",
					"getSingleSupplierProduct(uint256)": "c22ef68e",
					"getSupplierProductIds()": "e10f28c7",
					"supplierAddressToproductsIdMapping(address,uint256)": "42af31d7",
					"supplierProductsIdToStructMapping(uint256)": "6c87b826",
					"updateSupplierProductUints(uint256,uint128)": "f8bafa70"
				}
			},
			"storageLayout": {
				"storage": [
					{
						"astId": 86,
						"contract": "contracts/supplierProduct.sol:supplierProduct",
						"label": "spId",
						"offset": 0,
						"slot": "0",
						"type": "t_uint256"
					},
					{
						"astId": 92,
						"contract": "contracts/supplierProduct.sol:supplierProduct",
						"label": "supplierProductsIdToStructMapping",
						"offset": 0,
						"slot": "1",
						"type": "t_mapping(t_uint256,t_struct(supplierProduct)18_storage)"
					},
					{
						"astId": 98,
						"contract": "contracts/supplierProduct.sol:supplierProduct",
						"label": "supplierAddressToproductsIdMapping",
						"offset": 0,
						"slot": "2",
						"type": "t_mapping(t_address,t_array(t_uint256)dyn_storage)"
					}
				],
				"types": {
					"t_address": {
						"encoding": "inplace",
						"label": "address",
						"numberOfBytes": "20"
					},
					"t_array(t_uint256)dyn_storage": {
						"base": "t_uint256",
						"encoding": "dynamic_array",
						"label": "uint256[]",
						"numberOfBytes": "32"
					},
					"t_bool": {
						"encoding": "inplace",
						"label": "bool",
						"numberOfBytes": "1"
					},
					"t_bytes_storage": {
						"encoding": "bytes",
						"label": "bytes",
						"numberOfBytes": "32"
					},
					"t_mapping(t_address,t_array(t_uint256)dyn_storage)": {
						"encoding": "mapping",
						"key": "t_address",
						"label": "mapping(address => uint256[])",
						"numberOfBytes": "32",
						"value": "t_array(t_uint256)dyn_storage"
					},
					"t_mapping(t_uint256,t_struct(supplierProduct)18_storage)": {
						"encoding": "mapping",
						"key": "t_uint256",
						"label": "mapping(uint256 => struct ISupplierProduct.supplierProduct)",
						"numberOfBytes": "32",
						"value": "t_struct(supplierProduct)18_storage"
					},
					"t_struct(supplierProduct)18_storage": {
						"encoding": "inplace",
						"label": "struct ISupplierProduct.supplierProduct",
						"members": [
							{
								"astId": 3,
								"contract": "contracts/supplierProduct.sol:supplierProduct",
								"label": "supplierAddress",
								"offset": 0,
								"slot": "0",
								"type": "t_address"
							},
							{
								"astId": 5,
								"contract": "contracts/supplierProduct.sol:supplierProduct",
								"label": "sp_name",
								"offset": 0,
								"slot": "1",
								"type": "t_bytes_storage"
							},
							{
								"astId": 7,
								"contract": "contracts/supplierProduct.sol:supplierProduct",
								"label": "sp_description",
								"offset": 0,
								"slot": "2",
								"type": "t_bytes_storage"
							},
							{
								"astId": 9,
								"contract": "contracts/supplierProduct.sol:supplierProduct",
								"label": "sp_unit",
								"offset": 0,
								"slot": "3",
								"type": "t_uint128"
							},
							{
								"astId": 11,
								"contract": "contracts/supplierProduct.sol:supplierProduct",
								"label": "sp_price",
								"offset": 16,
								"slot": "3",
								"type": "t_uint128"
							},
							{
								"astId": 13,
								"contract": "contracts/supplierProduct.sol:supplierProduct",
								"label": "sp_date",
								"offset": 0,
								"slot": "4",
								"type": "t_uint32"
							},
							{
								"astId": 15,
								"contract": "contracts/supplierProduct.sol:supplierProduct",
								"label": "sp_expiryDate",
								"offset": 4,
								"slot": "4",
								"type": "t_uint32"
							},
							{
								"astId": 17,
								"contract": "contracts/supplierProduct.sol:supplierProduct",
								"label": "sp_status",
								"offset": 8,
								"slot": "4",
								"type": "t_bool"
							}
						],
						"numberOfBytes": "160"
					},
					"t_uint128": {
						"encoding": "inplace",
						"label": "uint128",
						"numberOfBytes": "16"
					},
					"t_uint256": {
						"encoding": "inplace",
						"label": "uint256",
						"numberOfBytes": "32"
					},
					"t_uint32": {
						"encoding": "inplace",
						"label": "uint32",
						"numberOfBytes": "4"
					}
				}
			},
			"userdoc": {
				"kind": "user",
				"methods": {
					"addSupplierProduct(bytes,bytes,uint128,uint128,uint32,uint32)": {
						"notice": "function to add supplier product"
					},
					"deleteSupplierProduct(uint256)": {
						"notice": "function to delete supplier product (making the product Inactive)"
					},
					"getAllProductsOfSupplier(address)": {
						"notice": "function to get all supplier products that it created on the platform"
					},
					"getSingleSupplierProduct(uint256)": {
						"notice": "function to return supplier' single product"
					},
					"getSupplierProductIds()": {
						"notice": "function to return supplier product IDs"
					},
					"supplierAddressToproductsIdMapping(address,uint256)": {
						"notice": "mapping user' address with all the created products"
					},
					"supplierProductsIdToStructMapping(uint256)": {
						"notice": "mapping product index with supplierProduct struct"
					},
					"updateSupplierProductUints(uint256,uint128)": {
						"notice": "function to update supplier product units"
					}
				},
				"notice": "Uses ISupplierProduct interface",
				"version": 1
			}
		}
	}
}