{
	"contracts/distributorProduct.sol": {
		"distributorProduct": {
			"abi": [
				{
					"anonymous": false,
					"inputs": [
						{
							"indexed": false,
							"internalType": "uint256",
							"name": "_dpId",
							"type": "uint256"
						},
						{
							"indexed": false,
							"internalType": "address[]",
							"name": "_manufacturerAddress",
							"type": "address[]"
						},
						{
							"indexed": false,
							"internalType": "uint256[]",
							"name": "_mdId",
							"type": "uint256[]"
						},
						{
							"indexed": false,
							"internalType": "bytes",
							"name": "_name",
							"type": "bytes"
						},
						{
							"indexed": false,
							"internalType": "bytes",
							"name": "_description",
							"type": "bytes"
						},
						{
							"indexed": false,
							"internalType": "uint128",
							"name": "_unit",
							"type": "uint128"
						},
						{
							"indexed": false,
							"internalType": "uint128",
							"name": "_price",
							"type": "uint128"
						},
						{
							"indexed": false,
							"internalType": "uint32",
							"name": "_date",
							"type": "uint32"
						},
						{
							"indexed": false,
							"internalType": "uint32",
							"name": "_expiryDate",
							"type": "uint32"
						}
					],
					"name": "eventAddDistributorProduct",
					"type": "event"
				},
				{
					"anonymous": false,
					"inputs": [
						{
							"indexed": false,
							"internalType": "uint256",
							"name": "_id",
							"type": "uint256"
						}
					],
					"name": "eventDeleteDistributorProduct",
					"type": "event"
				},
				{
					"inputs": [
						{
							"internalType": "address[]",
							"name": "_manufacturerAddress",
							"type": "address[]"
						},
						{
							"internalType": "uint256[]",
							"name": "_mdId",
							"type": "uint256[]"
						},
						{
							"internalType": "bytes",
							"name": "_name",
							"type": "bytes"
						},
						{
							"internalType": "bytes",
							"name": "_description",
							"type": "bytes"
						},
						{
							"internalType": "uint128",
							"name": "_unit",
							"type": "uint128"
						},
						{
							"internalType": "uint128",
							"name": "_price",
							"type": "uint128"
						},
						{
							"internalType": "uint32",
							"name": "_date",
							"type": "uint32"
						},
						{
							"internalType": "uint32",
							"name": "_expiryDate",
							"type": "uint32"
						}
					],
					"name": "addDistributorProduct",
					"outputs": [],
					"stateMutability": "nonpayable",
					"type": "function"
				},
				{
					"inputs": [
						{
							"internalType": "address",
							"name": "",
							"type": "address"
						},
						{
							"internalType": "uint256",
							"name": "",
							"type": "uint256"
						}
					],
					"name": "addressToproductsIdMapping",
					"outputs": [
						{
							"internalType": "uint256",
							"name": "",
							"type": "uint256"
						}
					],
					"stateMutability": "view",
					"type": "function"
				},
				{
					"inputs": [
						{
							"internalType": "uint256",
							"name": "_id",
							"type": "uint256"
						}
					],
					"name": "deleteProduct",
					"outputs": [],
					"stateMutability": "nonpayable",
					"type": "function"
				},
				{
					"inputs": [
						{
							"internalType": "address",
							"name": "_distributorAddress",
							"type": "address"
						}
					],
					"name": "getAllProductsOfDistributor",
					"outputs": [
						{
							"components": [
								{
									"internalType": "address[]",
									"name": "manufacturerAddress",
									"type": "address[]"
								},
								{
									"internalType": "uint256[]",
									"name": "md_id",
									"type": "uint256[]"
								},
								{
									"internalType": "bytes",
									"name": "dp_name",
									"type": "bytes"
								},
								{
									"internalType": "bytes",
									"name": "dp_description",
									"type": "bytes"
								},
								{
									"internalType": "uint128",
									"name": "dp_unit",
									"type": "uint128"
								},
								{
									"internalType": "uint128",
									"name": "dp_price",
									"type": "uint128"
								},
								{
									"internalType": "uint32",
									"name": "dp_date",
									"type": "uint32"
								},
								{
									"internalType": "uint32",
									"name": "dp_expiryDate",
									"type": "uint32"
								}
							],
							"internalType": "struct IDistributorProduct.distributorProduct[]",
							"name": "",
							"type": "tuple[]"
						}
					],
					"stateMutability": "view",
					"type": "function"
				},
				{
					"inputs": [],
					"name": "getDistributorProductIds",
					"outputs": [
						{
							"internalType": "uint256[]",
							"name": "",
							"type": "uint256[]"
						}
					],
					"stateMutability": "view",
					"type": "function"
				},
				{
					"inputs": [
						{
							"internalType": "uint256",
							"name": "_id",
							"type": "uint256"
						}
					],
					"name": "getSingleProduct",
					"outputs": [
						{
							"components": [
								{
									"internalType": "address[]",
									"name": "manufacturerAddress",
									"type": "address[]"
								},
								{
									"internalType": "uint256[]",
									"name": "md_id",
									"type": "uint256[]"
								},
								{
									"internalType": "bytes",
									"name": "dp_name",
									"type": "bytes"
								},
								{
									"internalType": "bytes",
									"name": "dp_description",
									"type": "bytes"
								},
								{
									"internalType": "uint128",
									"name": "dp_unit",
									"type": "uint128"
								},
								{
									"internalType": "uint128",
									"name": "dp_price",
									"type": "uint128"
								},
								{
									"internalType": "uint32",
									"name": "dp_date",
									"type": "uint32"
								},
								{
									"internalType": "uint32",
									"name": "dp_expiryDate",
									"type": "uint32"
								}
							],
							"internalType": "struct IDistributorProduct.distributorProduct",
							"name": "",
							"type": "tuple"
						}
					],
					"stateMutability": "view",
					"type": "function"
				},
				{
					"inputs": [
						{
							"internalType": "uint256",
							"name": "",
							"type": "uint256"
						}
					],
					"name": "productsIdMappingToStructMapping",
					"outputs": [
						{
							"internalType": "bytes",
							"name": "dp_name",
							"type": "bytes"
						},
						{
							"internalType": "bytes",
							"name": "dp_description",
							"type": "bytes"
						},
						{
							"internalType": "uint128",
							"name": "dp_unit",
							"type": "uint128"
						},
						{
							"internalType": "uint128",
							"name": "dp_price",
							"type": "uint128"
						},
						{
							"internalType": "uint32",
							"name": "dp_date",
							"type": "uint32"
						},
						{
							"internalType": "uint32",
							"name": "dp_expiryDate",
							"type": "uint32"
						}
					],
					"stateMutability": "view",
					"type": "function"
				}
			],
			"devdoc": {
				"kind": "dev",
				"methods": {},
				"version": 1
			},
			"evm": {
				"assembly": "    /* \"contracts/distributorProduct.sol\":120:2154  contract distributorProduct is IDistributorProduct{... */\n  mstore(0x40, 0x80)\n    /* \"contracts/distributorProduct.sol\":189:190  1 */\n  0x01\n    /* \"contracts/distributorProduct.sol\":177:190  uint dpId = 1 */\n  0x00\n  sstore\n    /* \"contracts/distributorProduct.sol\":120:2154  contract distributorProduct is IDistributorProduct{... */\n  callvalue\n  dup1\n  iszero\n  tag_1\n  jumpi\n  0x00\n  dup1\n  revert\ntag_1:\n  pop\n  dataSize(sub_0)\n  dup1\n  dataOffset(sub_0)\n  0x00\n  codecopy\n  0x00\n  return\nstop\n\nsub_0: assembly {\n        /* \"contracts/distributorProduct.sol\":120:2154  contract distributorProduct is IDistributorProduct{... */\n      mstore(0x40, 0x80)\n      callvalue\n      dup1\n      iszero\n      tag_1\n      jumpi\n      0x00\n      dup1\n      revert\n    tag_1:\n      pop\n      jumpi(tag_2, lt(calldatasize, 0x04))\n      shr(0xe0, calldataload(0x00))\n      dup1\n      0x9c9ed59f\n      gt\n      tag_10\n      jumpi\n      dup1\n      0x9c9ed59f\n      eq\n      tag_6\n      jumpi\n      dup1\n      0x9e9c191d\n      eq\n      tag_7\n      jumpi\n      dup1\n      0xed90c7b7\n      eq\n      tag_8\n      jumpi\n      dup1\n      0xf1afff56\n      eq\n      tag_9\n      jumpi\n      jump(tag_2)\n    tag_10:\n      dup1\n      0x21c6f9e5\n      eq\n      tag_3\n      jumpi\n      dup1\n      0x2e1f9763\n      eq\n      tag_4\n      jumpi\n      dup1\n      0x7d28c7de\n      eq\n      tag_5\n      jumpi\n    tag_2:\n      0x00\n      dup1\n      revert\n        /* \"contracts/distributorProduct.sol\":304:364  mapping(address => uint[]) public addressToproductsIdMapping */\n    tag_3:\n      tag_11\n      0x04\n      dup1\n      calldatasize\n      sub\n      dup2\n      add\n      swap1\n      tag_12\n      swap2\n      swap1\n      tag_13\n      jump\t// in\n    tag_12:\n      tag_14\n      jump\t// in\n    tag_11:\n      mload(0x40)\n      tag_15\n      swap2\n      swap1\n      tag_16\n      jump\t// in\n    tag_15:\n      mload(0x40)\n      dup1\n      swap2\n      sub\n      swap1\n      return\n        /* \"contracts/distributorProduct.sol\":1337:1482  function getSingleProduct(uint _id) public view returns(distributorProduct memory){... */\n    tag_4:\n      tag_17\n      0x04\n      dup1\n      calldatasize\n      sub\n      dup2\n      add\n      swap1\n      tag_18\n      swap2\n      swap1\n      tag_19\n      jump\t// in\n    tag_18:\n      tag_20\n      jump\t// in\n    tag_17:\n      mload(0x40)\n      tag_21\n      swap2\n      swap1\n      tag_22\n      jump\t// in\n    tag_21:\n      mload(0x40)\n      dup1\n      swap2\n      sub\n      swap1\n      return\n        /* \"contracts/distributorProduct.sol\":613:1187  function addDistributorProduct(address[] memory _manufacturerAddress,uint[] memory _mdId, bytes calldata _name,bytes calldata _description,uint128 _unit,uint128 _price,uint32 _date,uint32 _expiryDate)public override {... */\n    tag_5:\n      tag_23\n      0x04\n      dup1\n      calldatasize\n      sub\n      dup2\n      add\n      swap1\n      tag_24\n      swap2\n      swap1\n      tag_25\n      jump\t// in\n    tag_24:\n      tag_26\n      jump\t// in\n    tag_23:\n      stop\n        /* \"contracts/distributorProduct.sol\":1195:1329  function getDistributorProductIds() public view returns(uint[] memory){... */\n    tag_6:\n      tag_27\n      tag_28\n      jump\t// in\n    tag_27:\n      mload(0x40)\n      tag_29\n      swap2\n      swap1\n      tag_30\n      jump\t// in\n    tag_29:\n      mload(0x40)\n      dup1\n      swap2\n      sub\n      swap1\n      return\n        /* \"contracts/distributorProduct.sol\":222:297  mapping(uint => distributorProduct) public productsIdMappingToStructMapping */\n    tag_7:\n      tag_31\n      0x04\n      dup1\n      calldatasize\n      sub\n      dup2\n      add\n      swap1\n      tag_32\n      swap2\n      swap1\n      tag_19\n      jump\t// in\n    tag_32:\n      tag_33\n      jump\t// in\n    tag_31:\n      mload(0x40)\n      tag_34\n      swap7\n      swap6\n      swap5\n      swap4\n      swap3\n      swap2\n      swap1\n      tag_35\n      jump\t// in\n    tag_34:\n      mload(0x40)\n      dup1\n      swap2\n      sub\n      swap1\n      return\n        /* \"contracts/distributorProduct.sol\":1989:2151  function deleteProduct(uint _id)external override{... */\n    tag_8:\n      tag_36\n      0x04\n      dup1\n      calldatasize\n      sub\n      dup2\n      add\n      swap1\n      tag_37\n      swap2\n      swap1\n      tag_19\n      jump\t// in\n    tag_37:\n      tag_38\n      jump\t// in\n    tag_36:\n      stop\n        /* \"contracts/distributorProduct.sol\":1490:1981  function getAllProductsOfDistributor(address _distributorAddress) public view returns(distributorProduct[] memory)... */\n    tag_9:\n      tag_39\n      0x04\n      dup1\n      calldatasize\n      sub\n      dup2\n      add\n      swap1\n      tag_40\n      swap2\n      swap1\n      tag_41\n      jump\t// in\n    tag_40:\n      tag_42\n      jump\t// in\n    tag_39:\n      mload(0x40)\n      tag_43\n      swap2\n      swap1\n      tag_44\n      jump\t// in\n    tag_43:\n      mload(0x40)\n      dup1\n      swap2\n      sub\n      swap1\n      return\n        /* \"contracts/distributorProduct.sol\":304:364  mapping(address => uint[]) public addressToproductsIdMapping */\n    tag_14:\n      mstore(0x20, 0x03)\n      dup2\n      0x00\n      mstore\n      keccak256(0x00, 0x40)\n      dup2\n      dup2\n      sload\n      dup2\n      lt\n      tag_45\n      jumpi\n      0x00\n      dup1\n      revert\n    tag_45:\n      swap1\n      0x00\n      mstore\n      keccak256(0x00, 0x20)\n      add\n      0x00\n      swap2\n      pop\n      swap2\n      pop\n      pop\n      sload\n      dup2\n      jump\t// out\n        /* \"contracts/distributorProduct.sol\":1337:1482  function getSingleProduct(uint _id) public view returns(distributorProduct memory){... */\n    tag_20:\n        /* \"contracts/distributorProduct.sol\":1393:1418  distributorProduct memory */\n      tag_47\n      tag_48\n      jump\t// in\n    tag_47:\n        /* \"contracts/distributorProduct.sol\":1437:1469  productsIdMappingToStructMapping */\n      0x02\n        /* \"contracts/distributorProduct.sol\":1437:1474  productsIdMappingToStructMapping[_id] */\n      0x00\n        /* \"contracts/distributorProduct.sol\":1470:1473  _id */\n      dup4\n        /* \"contracts/distributorProduct.sol\":1437:1474  productsIdMappingToStructMapping[_id] */\n      dup2\n      mstore\n      0x20\n      add\n      swap1\n      dup2\n      mstore\n      0x20\n      add\n      0x00\n      keccak256\n        /* \"contracts/distributorProduct.sol\":1430:1474  return productsIdMappingToStructMapping[_id] */\n      mload(0x40)\n      dup1\n      0x0100\n      add\n      0x40\n      mstore\n      swap1\n      dup2\n      0x00\n      dup3\n      add\n      dup1\n      sload\n      dup1\n      0x20\n      mul\n      0x20\n      add\n      mload(0x40)\n      swap1\n      dup2\n      add\n      0x40\n      mstore\n      dup1\n      swap3\n      swap2\n      swap1\n      dup2\n      dup2\n      mstore\n      0x20\n      add\n      dup3\n      dup1\n      sload\n      dup1\n      iszero\n      tag_50\n      jumpi\n      0x20\n      mul\n      dup3\n      add\n      swap2\n      swap1\n      0x00\n      mstore\n      keccak256(0x00, 0x20)\n      swap1\n    tag_51:\n      dup2\n      0x00\n      swap1\n      sload\n      swap1\n      0x0100\n      exp\n      swap1\n      div\n      0xffffffffffffffffffffffffffffffffffffffff\n      and\n      0xffffffffffffffffffffffffffffffffffffffff\n      and\n      dup2\n      mstore\n      0x20\n      add\n      swap1\n      0x01\n      add\n      swap1\n      dup1\n      dup4\n      gt\n      tag_51\n      jumpi\n    tag_50:\n      pop\n      pop\n      pop\n      pop\n      pop\n      dup2\n      mstore\n      0x20\n      add\n      0x01\n      dup3\n      add\n      dup1\n      sload\n      dup1\n      0x20\n      mul\n      0x20\n      add\n      mload(0x40)\n      swap1\n      dup2\n      add\n      0x40\n      mstore\n      dup1\n      swap3\n      swap2\n      swap1\n      dup2\n      dup2\n      mstore\n      0x20\n      add\n      dup3\n      dup1\n      sload\n      dup1\n      iszero\n      tag_52\n      jumpi\n      0x20\n      mul\n      dup3\n      add\n      swap2\n      swap1\n      0x00\n      mstore\n      keccak256(0x00, 0x20)\n      swap1\n    tag_53:\n      dup2\n      sload\n      dup2\n      mstore\n      0x20\n      add\n      swap1\n      0x01\n      add\n      swap1\n      dup1\n      dup4\n      gt\n      tag_53\n      jumpi\n    tag_52:\n      pop\n      pop\n      pop\n      pop\n      pop\n      dup2\n      mstore\n      0x20\n      add\n      0x02\n      dup3\n      add\n      dup1\n      sload\n      tag_54\n      swap1\n      tag_55\n      jump\t// in\n    tag_54:\n      dup1\n      0x1f\n      add\n      0x20\n      dup1\n      swap2\n      div\n      mul\n      0x20\n      add\n      mload(0x40)\n      swap1\n      dup2\n      add\n      0x40\n      mstore\n      dup1\n      swap3\n      swap2\n      swap1\n      dup2\n      dup2\n      mstore\n      0x20\n      add\n      dup3\n      dup1\n      sload\n      tag_56\n      swap1\n      tag_55\n      jump\t// in\n    tag_56:\n      dup1\n      iszero\n      tag_57\n      jumpi\n      dup1\n      0x1f\n      lt\n      tag_58\n      jumpi\n      0x0100\n      dup1\n      dup4\n      sload\n      div\n      mul\n      dup4\n      mstore\n      swap2\n      0x20\n      add\n      swap2\n      jump(tag_57)\n    tag_58:\n      dup3\n      add\n      swap2\n      swap1\n      0x00\n      mstore\n      keccak256(0x00, 0x20)\n      swap1\n    tag_59:\n      dup2\n      sload\n      dup2\n      mstore\n      swap1\n      0x01\n      add\n      swap1\n      0x20\n      add\n      dup1\n      dup4\n      gt\n      tag_59\n      jumpi\n      dup3\n      swap1\n      sub\n      0x1f\n      and\n      dup3\n      add\n      swap2\n    tag_57:\n      pop\n      pop\n      pop\n      pop\n      pop\n      dup2\n      mstore\n      0x20\n      add\n      0x03\n      dup3\n      add\n      dup1\n      sload\n      tag_60\n      swap1\n      tag_55\n      jump\t// in\n    tag_60:\n      dup1\n      0x1f\n      add\n      0x20\n      dup1\n      swap2\n      div\n      mul\n      0x20\n      add\n      mload(0x40)\n      swap1\n      dup2\n      add\n      0x40\n      mstore\n      dup1\n      swap3\n      swap2\n      swap1\n      dup2\n      dup2\n      mstore\n      0x20\n      add\n      dup3\n      dup1\n      sload\n      tag_61\n      swap1\n      tag_55\n      jump\t// in\n    tag_61:\n      dup1\n      iszero\n      tag_62\n      jumpi\n      dup1\n      0x1f\n      lt\n      tag_63\n      jumpi\n      0x0100\n      dup1\n      dup4\n      sload\n      div\n      mul\n      dup4\n      mstore\n      swap2\n      0x20\n      add\n      swap2\n      jump(tag_62)\n    tag_63:\n      dup3\n      add\n      swap2\n      swap1\n      0x00\n      mstore\n      keccak256(0x00, 0x20)\n      swap1\n    tag_64:\n      dup2\n      sload\n      dup2\n      mstore\n      swap1\n      0x01\n      add\n      swap1\n      0x20\n      add\n      dup1\n      dup4\n      gt\n      tag_64\n      jumpi\n      dup3\n      swap1\n      sub\n      0x1f\n      and\n      dup3\n      add\n      swap2\n    tag_62:\n      pop\n      pop\n      pop\n      pop\n      pop\n      dup2\n      mstore\n      0x20\n      add\n      0x04\n      dup3\n      add\n      0x00\n      swap1\n      sload\n      swap1\n      0x0100\n      exp\n      swap1\n      div\n      0xffffffffffffffffffffffffffffffff\n      and\n      0xffffffffffffffffffffffffffffffff\n      and\n      0xffffffffffffffffffffffffffffffff\n      and\n      dup2\n      mstore\n      0x20\n      add\n      0x04\n      dup3\n      add\n      0x10\n      swap1\n      sload\n      swap1\n      0x0100\n      exp\n      swap1\n      div\n      0xffffffffffffffffffffffffffffffff\n      and\n      0xffffffffffffffffffffffffffffffff\n      and\n      0xffffffffffffffffffffffffffffffff\n      and\n      dup2\n      mstore\n      0x20\n      add\n      0x05\n      dup3\n      add\n      0x00\n      swap1\n      sload\n      swap1\n      0x0100\n      exp\n      swap1\n      div\n      0xffffffff\n      and\n      0xffffffff\n      and\n      0xffffffff\n      and\n      dup2\n      mstore\n      0x20\n      add\n      0x05\n      dup3\n      add\n      0x04\n      swap1\n      sload\n      swap1\n      0x0100\n      exp\n      swap1\n      div\n      0xffffffff\n      and\n      0xffffffff\n      and\n      0xffffffff\n      and\n      dup2\n      mstore\n      pop\n      pop\n      swap1\n      pop\n        /* \"contracts/distributorProduct.sol\":1337:1482  function getSingleProduct(uint _id) public view returns(distributorProduct memory){... */\n      swap2\n      swap1\n      pop\n      jump\t// out\n        /* \"contracts/distributorProduct.sol\":613:1187  function addDistributorProduct(address[] memory _manufacturerAddress,uint[] memory _mdId, bytes calldata _name,bytes calldata _description,uint128 _unit,uint128 _price,uint32 _date,uint32 _expiryDate)public override {... */\n    tag_26:\n        /* \"contracts/distributorProduct.sol\":881:977  distributorProduct(_manufacturerAddress,_mdId,_name,_description,_unit,_price,_date,_expiryDate) */\n      mload(0x40)\n      dup1\n      0x0100\n      add\n      0x40\n      mstore\n      dup1\n        /* \"contracts/distributorProduct.sol\":900:920  _manufacturerAddress */\n      dup12\n        /* \"contracts/distributorProduct.sol\":881:977  distributorProduct(_manufacturerAddress,_mdId,_name,_description,_unit,_price,_date,_expiryDate) */\n      dup2\n      mstore\n      0x20\n      add\n        /* \"contracts/distributorProduct.sol\":921:926  _mdId */\n      dup11\n        /* \"contracts/distributorProduct.sol\":881:977  distributorProduct(_manufacturerAddress,_mdId,_name,_description,_unit,_price,_date,_expiryDate) */\n      dup2\n      mstore\n      0x20\n      add\n        /* \"contracts/distributorProduct.sol\":927:932  _name */\n      dup10\n      dup10\n        /* \"contracts/distributorProduct.sol\":881:977  distributorProduct(_manufacturerAddress,_mdId,_name,_description,_unit,_price,_date,_expiryDate) */\n      dup1\n      dup1\n      0x1f\n      add\n      0x20\n      dup1\n      swap2\n      div\n      mul\n      0x20\n      add\n      mload(0x40)\n      swap1\n      dup2\n      add\n      0x40\n      mstore\n      dup1\n      swap4\n      swap3\n      swap2\n      swap1\n      dup2\n      dup2\n      mstore\n      0x20\n      add\n      dup4\n      dup4\n      dup1\n      dup3\n      dup5\n      calldatacopy\n      0x00\n      dup2\n      dup5\n      add\n      mstore\n      not(0x1f)\n      0x1f\n      dup3\n      add\n      and\n      swap1\n      pop\n      dup1\n      dup4\n      add\n      swap3\n      pop\n      pop\n      pop\n      pop\n      pop\n      pop\n      pop\n      dup2\n      mstore\n      0x20\n      add\n        /* \"contracts/distributorProduct.sol\":933:945  _description */\n      dup8\n      dup8\n        /* \"contracts/distributorProduct.sol\":881:977  distributorProduct(_manufacturerAddress,_mdId,_name,_description,_unit,_price,_date,_expiryDate) */\n      dup1\n      dup1\n      0x1f\n      add\n      0x20\n      dup1\n      swap2\n      div\n      mul\n      0x20\n      add\n      mload(0x40)\n      swap1\n      dup2\n      add\n      0x40\n      mstore\n      dup1\n      swap4\n      swap3\n      swap2\n      swap1\n      dup2\n      dup2\n      mstore\n      0x20\n      add\n      dup4\n      dup4\n      dup1\n      dup3\n      dup5\n      calldatacopy\n      0x00\n      dup2\n      dup5\n      add\n      mstore\n      not(0x1f)\n      0x1f\n      dup3\n      add\n      and\n      swap1\n      pop\n      dup1\n      dup4\n      add\n      swap3\n      pop\n      pop\n      pop\n      pop\n      pop\n      pop\n      pop\n      dup2\n      mstore\n      0x20\n      add\n        /* \"contracts/distributorProduct.sol\":946:951  _unit */\n      dup6\n        /* \"contracts/distributorProduct.sol\":881:977  distributorProduct(_manufacturerAddress,_mdId,_name,_description,_unit,_price,_date,_expiryDate) */\n      0xffffffffffffffffffffffffffffffff\n      and\n      dup2\n      mstore\n      0x20\n      add\n        /* \"contracts/distributorProduct.sol\":952:958  _price */\n      dup5\n        /* \"contracts/distributorProduct.sol\":881:977  distributorProduct(_manufacturerAddress,_mdId,_name,_description,_unit,_price,_date,_expiryDate) */\n      0xffffffffffffffffffffffffffffffff\n      and\n      dup2\n      mstore\n      0x20\n      add\n        /* \"contracts/distributorProduct.sol\":959:964  _date */\n      dup4\n        /* \"contracts/distributorProduct.sol\":881:977  distributorProduct(_manufacturerAddress,_mdId,_name,_description,_unit,_price,_date,_expiryDate) */\n      0xffffffff\n      and\n      dup2\n      mstore\n      0x20\n      add\n        /* \"contracts/distributorProduct.sol\":965:976  _expiryDate */\n      dup3\n        /* \"contracts/distributorProduct.sol\":881:977  distributorProduct(_manufacturerAddress,_mdId,_name,_description,_unit,_price,_date,_expiryDate) */\n      0xffffffff\n      and\n      dup2\n      mstore\n      pop\n        /* \"contracts/distributorProduct.sol\":840:872  productsIdMappingToStructMapping */\n      0x02\n        /* \"contracts/distributorProduct.sol\":840:878  productsIdMappingToStructMapping[dpId] */\n      0x00\n        /* \"contracts/distributorProduct.sol\":873:877  dpId */\n      dup1\n      sload\n        /* \"contracts/distributorProduct.sol\":840:878  productsIdMappingToStructMapping[dpId] */\n      dup2\n      mstore\n      0x20\n      add\n      swap1\n      dup2\n      mstore\n      0x20\n      add\n      0x00\n      keccak256\n        /* \"contracts/distributorProduct.sol\":840:977  productsIdMappingToStructMapping[dpId] = distributorProduct(_manufacturerAddress,_mdId,_name,_description,_unit,_price,_date,_expiryDate) */\n      0x00\n      dup3\n      add\n      mload\n      dup2\n      0x00\n      add\n      swap1\n      dup1\n      mload\n      swap1\n      0x20\n      add\n      swap1\n      tag_66\n      swap3\n      swap2\n      swap1\n      tag_67\n      jump\t// in\n    tag_66:\n      pop\n      0x20\n      dup3\n      add\n      mload\n      dup2\n      0x01\n      add\n      swap1\n      dup1\n      mload\n      swap1\n      0x20\n      add\n      swap1\n      tag_68\n      swap3\n      swap2\n      swap1\n      tag_69\n      jump\t// in\n    tag_68:\n      pop\n      0x40\n      dup3\n      add\n      mload\n      dup2\n      0x02\n      add\n      swap1\n      dup2\n      tag_70\n      swap2\n      swap1\n      tag_71\n      jump\t// in\n    tag_70:\n      pop\n      0x60\n      dup3\n      add\n      mload\n      dup2\n      0x03\n      add\n      swap1\n      dup2\n      tag_72\n      swap2\n      swap1\n      tag_71\n      jump\t// in\n    tag_72:\n      pop\n      0x80\n      dup3\n      add\n      mload\n      dup2\n      0x04\n      add\n      exp(0x0100, 0x00)\n      dup2\n      sload\n      dup2\n      0xffffffffffffffffffffffffffffffff\n      mul\n      not\n      and\n      swap1\n      dup4\n      0xffffffffffffffffffffffffffffffff\n      and\n      mul\n      or\n      swap1\n      sstore\n      pop\n      0xa0\n      dup3\n      add\n      mload\n      dup2\n      0x04\n      add\n      exp(0x0100, 0x10)\n      dup2\n      sload\n      dup2\n      0xffffffffffffffffffffffffffffffff\n      mul\n      not\n      and\n      swap1\n      dup4\n      0xffffffffffffffffffffffffffffffff\n      and\n      mul\n      or\n      swap1\n      sstore\n      pop\n      0xc0\n      dup3\n      add\n      mload\n      dup2\n      0x05\n      add\n      exp(0x0100, 0x00)\n      dup2\n      sload\n      dup2\n      0xffffffff\n      mul\n      not\n      and\n      swap1\n      dup4\n      0xffffffff\n      and\n      mul\n      or\n      swap1\n      sstore\n      pop\n      0xe0\n      dup3\n      add\n      mload\n      dup2\n      0x05\n      add\n      exp(0x0100, 0x04)\n      dup2\n      sload\n      dup2\n      0xffffffff\n      mul\n      not\n      and\n      swap1\n      dup4\n      0xffffffff\n      and\n      mul\n      or\n      swap1\n      sstore\n      pop\n      swap1\n      pop\n      pop\n        /* \"contracts/distributorProduct.sol\":988:1014  addressToproductsIdMapping */\n      0x03\n        /* \"contracts/distributorProduct.sol\":988:1026  addressToproductsIdMapping[msg.sender] */\n      0x00\n        /* \"contracts/distributorProduct.sol\":1015:1025  msg.sender */\n      caller\n        /* \"contracts/distributorProduct.sol\":988:1026  addressToproductsIdMapping[msg.sender] */\n      0xffffffffffffffffffffffffffffffffffffffff\n      and\n      0xffffffffffffffffffffffffffffffffffffffff\n      and\n      dup2\n      mstore\n      0x20\n      add\n      swap1\n      dup2\n      mstore\n      0x20\n      add\n      0x00\n      keccak256\n        /* \"contracts/distributorProduct.sol\":1032:1036  dpId */\n      sload(0x00)\n        /* \"contracts/distributorProduct.sol\":988:1037  addressToproductsIdMapping[msg.sender].push(dpId) */\n      swap1\n      dup1\n      0x01\n      dup2\n      sload\n      add\n      dup1\n      dup3\n      sstore\n      dup1\n      swap2\n      pop\n      pop\n      0x01\n      swap1\n      sub\n      swap1\n      0x00\n      mstore\n      keccak256(0x00, 0x20)\n      add\n      0x00\n      swap1\n      swap2\n      swap1\n      swap2\n      swap1\n      swap2\n      pop\n      sstore\n        /* \"contracts/distributorProduct.sol\":1053:1162  eventAddDistributorProduct(dpId,_manufacturerAddress,_mdId,_name,_description,_unit,_price,_date,_expiryDate) */\n      0x6cb3d046d7c4f38eb3876686d1c24375d3d3687a644ad4c396e3264375b85903\n        /* \"contracts/distributorProduct.sol\":1080:1084  dpId */\n      sload(0x00)\n        /* \"contracts/distributorProduct.sol\":1085:1105  _manufacturerAddress */\n      dup12\n        /* \"contracts/distributorProduct.sol\":1106:1111  _mdId */\n      dup12\n        /* \"contracts/distributorProduct.sol\":1112:1117  _name */\n      dup12\n      dup12\n        /* \"contracts/distributorProduct.sol\":1118:1130  _description */\n      dup12\n      dup12\n        /* \"contracts/distributorProduct.sol\":1131:1136  _unit */\n      dup12\n        /* \"contracts/distributorProduct.sol\":1137:1143  _price */\n      dup12\n        /* \"contracts/distributorProduct.sol\":1144:1149  _date */\n      dup12\n        /* \"contracts/distributorProduct.sol\":1150:1161  _expiryDate */\n      dup12\n        /* \"contracts/distributorProduct.sol\":1053:1162  eventAddDistributorProduct(dpId,_manufacturerAddress,_mdId,_name,_description,_unit,_price,_date,_expiryDate) */\n      mload(0x40)\n      tag_74\n      swap12\n      swap11\n      swap10\n      swap9\n      swap8\n      swap7\n      swap6\n      swap5\n      swap4\n      swap3\n      swap2\n      swap1\n      tag_75\n      jump\t// in\n    tag_74:\n      mload(0x40)\n      dup1\n      swap2\n      sub\n      swap1\n      log1\n        /* \"contracts/distributorProduct.sol\":1173:1177  dpId */\n      0x00\n      dup1\n        /* \"contracts/distributorProduct.sol\":1173:1179  dpId++ */\n      dup2\n      sload\n      dup1\n      swap3\n      swap2\n      swap1\n      tag_76\n      swap1\n      tag_77\n      jump\t// in\n    tag_76:\n      swap2\n      swap1\n      pop\n      sstore\n      pop\n        /* \"contracts/distributorProduct.sol\":613:1187  function addDistributorProduct(address[] memory _manufacturerAddress,uint[] memory _mdId, bytes calldata _name,bytes calldata _description,uint128 _unit,uint128 _price,uint32 _date,uint32 _expiryDate)public override {... */\n      pop\n      pop\n      pop\n      pop\n      pop\n      pop\n      pop\n      pop\n      pop\n      pop\n      jump\t// out\n        /* \"contracts/distributorProduct.sol\":1195:1329  function getDistributorProductIds() public view returns(uint[] memory){... */\n    tag_28:\n        /* \"contracts/distributorProduct.sol\":1251:1264  uint[] memory */\n      0x60\n        /* \"contracts/distributorProduct.sol\":1283:1309  addressToproductsIdMapping */\n      0x03\n        /* \"contracts/distributorProduct.sol\":1283:1321  addressToproductsIdMapping[msg.sender] */\n      0x00\n        /* \"contracts/distributorProduct.sol\":1310:1320  msg.sender */\n      caller\n        /* \"contracts/distributorProduct.sol\":1283:1321  addressToproductsIdMapping[msg.sender] */\n      0xffffffffffffffffffffffffffffffffffffffff\n      and\n      0xffffffffffffffffffffffffffffffffffffffff\n      and\n      dup2\n      mstore\n      0x20\n      add\n      swap1\n      dup2\n      mstore\n      0x20\n      add\n      0x00\n      keccak256\n        /* \"contracts/distributorProduct.sol\":1276:1321  return addressToproductsIdMapping[msg.sender] */\n      dup1\n      sload\n      dup1\n      0x20\n      mul\n      0x20\n      add\n      mload(0x40)\n      swap1\n      dup2\n      add\n      0x40\n      mstore\n      dup1\n      swap3\n      swap2\n      swap1\n      dup2\n      dup2\n      mstore\n      0x20\n      add\n      dup3\n      dup1\n      sload\n      dup1\n      iszero\n      tag_79\n      jumpi\n      0x20\n      mul\n      dup3\n      add\n      swap2\n      swap1\n      0x00\n      mstore\n      keccak256(0x00, 0x20)\n      swap1\n    tag_80:\n      dup2\n      sload\n      dup2\n      mstore\n      0x20\n      add\n      swap1\n      0x01\n      add\n      swap1\n      dup1\n      dup4\n      gt\n      tag_80\n      jumpi\n    tag_79:\n      pop\n      pop\n      pop\n      pop\n      pop\n      swap1\n      pop\n        /* \"contracts/distributorProduct.sol\":1195:1329  function getDistributorProductIds() public view returns(uint[] memory){... */\n      swap1\n      jump\t// out\n        /* \"contracts/distributorProduct.sol\":222:297  mapping(uint => distributorProduct) public productsIdMappingToStructMapping */\n    tag_33:\n      mstore(0x20, 0x02)\n      dup1\n      0x00\n      mstore\n      keccak256(0x00, 0x40)\n      0x00\n      swap2\n      pop\n      swap1\n      pop\n      dup1\n      0x02\n      add\n      dup1\n      sload\n      tag_81\n      swap1\n      tag_55\n      jump\t// in\n    tag_81:\n      dup1\n      0x1f\n      add\n      0x20\n      dup1\n      swap2\n      div\n      mul\n      0x20\n      add\n      mload(0x40)\n      swap1\n      dup2\n      add\n      0x40\n      mstore\n      dup1\n      swap3\n      swap2\n      swap1\n      dup2\n      dup2\n      mstore\n      0x20\n      add\n      dup3\n      dup1\n      sload\n      tag_82\n      swap1\n      tag_55\n      jump\t// in\n    tag_82:\n      dup1\n      iszero\n      tag_83\n      jumpi\n      dup1\n      0x1f\n      lt\n      tag_84\n      jumpi\n      0x0100\n      dup1\n      dup4\n      sload\n      div\n      mul\n      dup4\n      mstore\n      swap2\n      0x20\n      add\n      swap2\n      jump(tag_83)\n    tag_84:\n      dup3\n      add\n      swap2\n      swap1\n      0x00\n      mstore\n      keccak256(0x00, 0x20)\n      swap1\n    tag_85:\n      dup2\n      sload\n      dup2\n      mstore\n      swap1\n      0x01\n      add\n      swap1\n      0x20\n      add\n      dup1\n      dup4\n      gt\n      tag_85\n      jumpi\n      dup3\n      swap1\n      sub\n      0x1f\n      and\n      dup3\n      add\n      swap2\n    tag_83:\n      pop\n      pop\n      pop\n      pop\n      pop\n      swap1\n      dup1\n      0x03\n      add\n      dup1\n      sload\n      tag_86\n      swap1\n      tag_55\n      jump\t// in\n    tag_86:\n      dup1\n      0x1f\n      add\n      0x20\n      dup1\n      swap2\n      div\n      mul\n      0x20\n      add\n      mload(0x40)\n      swap1\n      dup2\n      add\n      0x40\n      mstore\n      dup1\n      swap3\n      swap2\n      swap1\n      dup2\n      dup2\n      mstore\n      0x20\n      add\n      dup3\n      dup1\n      sload\n      tag_87\n      swap1\n      tag_55\n      jump\t// in\n    tag_87:\n      dup1\n      iszero\n      tag_88\n      jumpi\n      dup1\n      0x1f\n      lt\n      tag_89\n      jumpi\n      0x0100\n      dup1\n      dup4\n      sload\n      div\n      mul\n      dup4\n      mstore\n      swap2\n      0x20\n      add\n      swap2\n      jump(tag_88)\n    tag_89:\n      dup3\n      add\n      swap2\n      swap1\n      0x00\n      mstore\n      keccak256(0x00, 0x20)\n      swap1\n    tag_90:\n      dup2\n      sload\n      dup2\n      mstore\n      swap1\n      0x01\n      add\n      swap1\n      0x20\n      add\n      dup1\n      dup4\n      gt\n      tag_90\n      jumpi\n      dup3\n      swap1\n      sub\n      0x1f\n      and\n      dup3\n      add\n      swap2\n    tag_88:\n      pop\n      pop\n      pop\n      pop\n      pop\n      swap1\n      dup1\n      0x04\n      add\n      0x00\n      swap1\n      sload\n      swap1\n      0x0100\n      exp\n      swap1\n      div\n      0xffffffffffffffffffffffffffffffff\n      and\n      swap1\n      dup1\n      0x04\n      add\n      0x10\n      swap1\n      sload\n      swap1\n      0x0100\n      exp\n      swap1\n      div\n      0xffffffffffffffffffffffffffffffff\n      and\n      swap1\n      dup1\n      0x05\n      add\n      0x00\n      swap1\n      sload\n      swap1\n      0x0100\n      exp\n      swap1\n      div\n      0xffffffff\n      and\n      swap1\n      dup1\n      0x05\n      add\n      0x04\n      swap1\n      sload\n      swap1\n      0x0100\n      exp\n      swap1\n      div\n      0xffffffff\n      and\n      swap1\n      pop\n      dup7\n      jump\t// out\n        /* \"contracts/distributorProduct.sol\":1989:2151  function deleteProduct(uint _id)external override{... */\n    tag_38:\n        /* \"contracts/distributorProduct.sol\":2056:2088  productsIdMappingToStructMapping */\n      0x02\n        /* \"contracts/distributorProduct.sol\":2056:2093  productsIdMappingToStructMapping[_id] */\n      0x00\n        /* \"contracts/distributorProduct.sol\":2089:2092  _id */\n      dup3\n        /* \"contracts/distributorProduct.sol\":2056:2093  productsIdMappingToStructMapping[_id] */\n      dup2\n      mstore\n      0x20\n      add\n      swap1\n      dup2\n      mstore\n      0x20\n      add\n      0x00\n      keccak256\n      0x00\n        /* \"contracts/distributorProduct.sol\":2049:2093  delete productsIdMappingToStructMapping[_id] */\n      dup1\n      dup3\n      add\n      0x00\n      tag_92\n      swap2\n      swap1\n      tag_93\n      jump\t// in\n    tag_92:\n      0x01\n      dup3\n      add\n      0x00\n      tag_94\n      swap2\n      swap1\n      tag_95\n      jump\t// in\n    tag_94:\n      0x02\n      dup3\n      add\n      0x00\n      tag_96\n      swap2\n      swap1\n      tag_97\n      jump\t// in\n    tag_96:\n      0x03\n      dup3\n      add\n      0x00\n      tag_98\n      swap2\n      swap1\n      tag_97\n      jump\t// in\n    tag_98:\n      0x04\n      dup3\n      add\n      exp(0x0100, 0x00)\n      dup2\n      sload\n      swap1\n      0xffffffffffffffffffffffffffffffff\n      mul\n      not\n      and\n      swap1\n      sstore\n      0x04\n      dup3\n      add\n      exp(0x0100, 0x10)\n      dup2\n      sload\n      swap1\n      0xffffffffffffffffffffffffffffffff\n      mul\n      not\n      and\n      swap1\n      sstore\n      0x05\n      dup3\n      add\n      exp(0x0100, 0x00)\n      dup2\n      sload\n      swap1\n      0xffffffff\n      mul\n      not\n      and\n      swap1\n      sstore\n      0x05\n      dup3\n      add\n      exp(0x0100, 0x04)\n      dup2\n      sload\n      swap1\n      0xffffffff\n      mul\n      not\n      and\n      swap1\n      sstore\n      pop\n      pop\n        /* \"contracts/distributorProduct.sol\":2109:2143  eventDeleteDistributorProduct(_id) */\n      0x0e998fc65a4459eb15332384e57a24f5672951bfdd9b2804cc635dd4ad0a10cd\n        /* \"contracts/distributorProduct.sol\":2139:2142  _id */\n      dup2\n        /* \"contracts/distributorProduct.sol\":2109:2143  eventDeleteDistributorProduct(_id) */\n      mload(0x40)\n      tag_99\n      swap2\n      swap1\n      tag_16\n      jump\t// in\n    tag_99:\n      mload(0x40)\n      dup1\n      swap2\n      sub\n      swap1\n      log1\n        /* \"contracts/distributorProduct.sol\":1989:2151  function deleteProduct(uint _id)external override{... */\n      pop\n      jump\t// out\n        /* \"contracts/distributorProduct.sol\":1490:1981  function getAllProductsOfDistributor(address _distributorAddress) public view returns(distributorProduct[] memory)... */\n    tag_42:\n        /* \"contracts/distributorProduct.sol\":1576:1603  distributorProduct[] memory */\n      0x60\n        /* \"contracts/distributorProduct.sol\":1621:1645  uint[] memory productIds */\n      0x00\n        /* \"contracts/distributorProduct.sol\":1647:1673  addressToproductsIdMapping */\n      0x03\n        /* \"contracts/distributorProduct.sol\":1647:1694  addressToproductsIdMapping[_distributorAddress] */\n      0x00\n        /* \"contracts/distributorProduct.sol\":1674:1693  _distributorAddress */\n      dup5\n        /* \"contracts/distributorProduct.sol\":1647:1694  addressToproductsIdMapping[_distributorAddress] */\n      0xffffffffffffffffffffffffffffffffffffffff\n      and\n      0xffffffffffffffffffffffffffffffffffffffff\n      and\n      dup2\n      mstore\n      0x20\n      add\n      swap1\n      dup2\n      mstore\n      0x20\n      add\n      0x00\n      keccak256\n        /* \"contracts/distributorProduct.sol\":1621:1694  uint[] memory productIds= addressToproductsIdMapping[_distributorAddress] */\n      dup1\n      sload\n      dup1\n      0x20\n      mul\n      0x20\n      add\n      mload(0x40)\n      swap1\n      dup2\n      add\n      0x40\n      mstore\n      dup1\n      swap3\n      swap2\n      swap1\n      dup2\n      dup2\n      mstore\n      0x20\n      add\n      dup3\n      dup1\n      sload\n      dup1\n      iszero\n      tag_101\n      jumpi\n      0x20\n      mul\n      dup3\n      add\n      swap2\n      swap1\n      0x00\n      mstore\n      keccak256(0x00, 0x20)\n      swap1\n    tag_102:\n      dup2\n      sload\n      dup2\n      mstore\n      0x20\n      add\n      swap1\n      0x01\n      add\n      swap1\n      dup1\n      dup4\n      gt\n      tag_102\n      jumpi\n    tag_101:\n      pop\n      pop\n      pop\n      pop\n      pop\n      swap1\n      pop\n        /* \"contracts/distributorProduct.sol\":1705:1745  distributorProduct[] memory DistributorP */\n      0x00\n        /* \"contracts/distributorProduct.sol\":1773:1783  productIds */\n      dup2\n        /* \"contracts/distributorProduct.sol\":1773:1790  productIds.length */\n      mload\n        /* \"contracts/distributorProduct.sol\":1748:1791  new distributorProduct[](productIds.length) */\n      0xffffffffffffffff\n      dup2\n      gt\n      iszero\n      tag_103\n      jumpi\n      tag_104\n      tag_105\n      jump\t// in\n    tag_104:\n    tag_103:\n      mload(0x40)\n      swap1\n      dup1\n      dup3\n      mstore\n      dup1\n      0x20\n      mul\n      0x20\n      add\n      dup3\n      add\n      0x40\n      mstore\n      dup1\n      iszero\n      tag_106\n      jumpi\n      dup2\n      0x20\n      add\n    tag_107:\n      tag_108\n      tag_48\n      jump\t// in\n    tag_108:\n      dup2\n      mstore\n      0x20\n      add\n      swap1\n      0x01\n      swap1\n      sub\n      swap1\n      dup2\n      tag_107\n      jumpi\n      swap1\n      pop\n    tag_106:\n      pop\n        /* \"contracts/distributorProduct.sol\":1705:1791  distributorProduct[] memory DistributorP = new distributorProduct[](productIds.length) */\n      swap1\n      pop\n        /* \"contracts/distributorProduct.sol\":1806:1812  uint i */\n      0x00\n        /* \"contracts/distributorProduct.sol\":1802:1944  for(uint i=0;i<productIds.length;i++)... */\n    tag_109:\n        /* \"contracts/distributorProduct.sol\":1817:1827  productIds */\n      dup3\n        /* \"contracts/distributorProduct.sol\":1817:1834  productIds.length */\n      mload\n        /* \"contracts/distributorProduct.sol\":1815:1816  i */\n      dup2\n        /* \"contracts/distributorProduct.sol\":1815:1834  i<productIds.length */\n      lt\n        /* \"contracts/distributorProduct.sol\":1802:1944  for(uint i=0;i<productIds.length;i++)... */\n      iszero\n      tag_110\n      jumpi\n        /* \"contracts/distributorProduct.sol\":1885:1917  productsIdMappingToStructMapping */\n      0x02\n        /* \"contracts/distributorProduct.sol\":1885:1932  productsIdMappingToStructMapping[productIds[i]] */\n      0x00\n        /* \"contracts/distributorProduct.sol\":1918:1928  productIds */\n      dup5\n        /* \"contracts/distributorProduct.sol\":1929:1930  i */\n      dup4\n        /* \"contracts/distributorProduct.sol\":1918:1931  productIds[i] */\n      dup2\n      mload\n      dup2\n      lt\n      tag_112\n      jumpi\n      tag_113\n      tag_114\n      jump\t// in\n    tag_113:\n    tag_112:\n      0x20\n      mul\n      0x20\n      add\n      add\n      mload\n        /* \"contracts/distributorProduct.sol\":1885:1932  productsIdMappingToStructMapping[productIds[i]] */\n      dup2\n      mstore\n      0x20\n      add\n      swap1\n      dup2\n      mstore\n      0x20\n      add\n      0x00\n      keccak256\n        /* \"contracts/distributorProduct.sol\":1868:1932  DistributorP[i] =productsIdMappingToStructMapping[productIds[i]] */\n      mload(0x40)\n      dup1\n      0x0100\n      add\n      0x40\n      mstore\n      swap1\n      dup2\n      0x00\n      dup3\n      add\n      dup1\n      sload\n      dup1\n      0x20\n      mul\n      0x20\n      add\n      mload(0x40)\n      swap1\n      dup2\n      add\n      0x40\n      mstore\n      dup1\n      swap3\n      swap2\n      swap1\n      dup2\n      dup2\n      mstore\n      0x20\n      add\n      dup3\n      dup1\n      sload\n      dup1\n      iszero\n      tag_115\n      jumpi\n      0x20\n      mul\n      dup3\n      add\n      swap2\n      swap1\n      0x00\n      mstore\n      keccak256(0x00, 0x20)\n      swap1\n    tag_116:\n      dup2\n      0x00\n      swap1\n      sload\n      swap1\n      0x0100\n      exp\n      swap1\n      div\n      0xffffffffffffffffffffffffffffffffffffffff\n      and\n      0xffffffffffffffffffffffffffffffffffffffff\n      and\n      dup2\n      mstore\n      0x20\n      add\n      swap1\n      0x01\n      add\n      swap1\n      dup1\n      dup4\n      gt\n      tag_116\n      jumpi\n    tag_115:\n      pop\n      pop\n      pop\n      pop\n      pop\n      dup2\n      mstore\n      0x20\n      add\n      0x01\n      dup3\n      add\n      dup1\n      sload\n      dup1\n      0x20\n      mul\n      0x20\n      add\n      mload(0x40)\n      swap1\n      dup2\n      add\n      0x40\n      mstore\n      dup1\n      swap3\n      swap2\n      swap1\n      dup2\n      dup2\n      mstore\n      0x20\n      add\n      dup3\n      dup1\n      sload\n      dup1\n      iszero\n      tag_117\n      jumpi\n      0x20\n      mul\n      dup3\n      add\n      swap2\n      swap1\n      0x00\n      mstore\n      keccak256(0x00, 0x20)\n      swap1\n    tag_118:\n      dup2\n      sload\n      dup2\n      mstore\n      0x20\n      add\n      swap1\n      0x01\n      add\n      swap1\n      dup1\n      dup4\n      gt\n      tag_118\n      jumpi\n    tag_117:\n      pop\n      pop\n      pop\n      pop\n      pop\n      dup2\n      mstore\n      0x20\n      add\n      0x02\n      dup3\n      add\n      dup1\n      sload\n      tag_119\n      swap1\n      tag_55\n      jump\t// in\n    tag_119:\n      dup1\n      0x1f\n      add\n      0x20\n      dup1\n      swap2\n      div\n      mul\n      0x20\n      add\n      mload(0x40)\n      swap1\n      dup2\n      add\n      0x40\n      mstore\n      dup1\n      swap3\n      swap2\n      swap1\n      dup2\n      dup2\n      mstore\n      0x20\n      add\n      dup3\n      dup1\n      sload\n      tag_120\n      swap1\n      tag_55\n      jump\t// in\n    tag_120:\n      dup1\n      iszero\n      tag_121\n      jumpi\n      dup1\n      0x1f\n      lt\n      tag_122\n      jumpi\n      0x0100\n      dup1\n      dup4\n      sload\n      div\n      mul\n      dup4\n      mstore\n      swap2\n      0x20\n      add\n      swap2\n      jump(tag_121)\n    tag_122:\n      dup3\n      add\n      swap2\n      swap1\n      0x00\n      mstore\n      keccak256(0x00, 0x20)\n      swap1\n    tag_123:\n      dup2\n      sload\n      dup2\n      mstore\n      swap1\n      0x01\n      add\n      swap1\n      0x20\n      add\n      dup1\n      dup4\n      gt\n      tag_123\n      jumpi\n      dup3\n      swap1\n      sub\n      0x1f\n      and\n      dup3\n      add\n      swap2\n    tag_121:\n      pop\n      pop\n      pop\n      pop\n      pop\n      dup2\n      mstore\n      0x20\n      add\n      0x03\n      dup3\n      add\n      dup1\n      sload\n      tag_124\n      swap1\n      tag_55\n      jump\t// in\n    tag_124:\n      dup1\n      0x1f\n      add\n      0x20\n      dup1\n      swap2\n      div\n      mul\n      0x20\n      add\n      mload(0x40)\n      swap1\n      dup2\n      add\n      0x40\n      mstore\n      dup1\n      swap3\n      swap2\n      swap1\n      dup2\n      dup2\n      mstore\n      0x20\n      add\n      dup3\n      dup1\n      sload\n      tag_125\n      swap1\n      tag_55\n      jump\t// in\n    tag_125:\n      dup1\n      iszero\n      tag_126\n      jumpi\n      dup1\n      0x1f\n      lt\n      tag_127\n      jumpi\n      0x0100\n      dup1\n      dup4\n      sload\n      div\n      mul\n      dup4\n      mstore\n      swap2\n      0x20\n      add\n      swap2\n      jump(tag_126)\n    tag_127:\n      dup3\n      add\n      swap2\n      swap1\n      0x00\n      mstore\n      keccak256(0x00, 0x20)\n      swap1\n    tag_128:\n      dup2\n      sload\n      dup2\n      mstore\n      swap1\n      0x01\n      add\n      swap1\n      0x20\n      add\n      dup1\n      dup4\n      gt\n      tag_128\n      jumpi\n      dup3\n      swap1\n      sub\n      0x1f\n      and\n      dup3\n      add\n      swap2\n    tag_126:\n      pop\n      pop\n      pop\n      pop\n      pop\n      dup2\n      mstore\n      0x20\n      add\n      0x04\n      dup3\n      add\n      0x00\n      swap1\n      sload\n      swap1\n      0x0100\n      exp\n      swap1\n      div\n      0xffffffffffffffffffffffffffffffff\n      and\n      0xffffffffffffffffffffffffffffffff\n      and\n      0xffffffffffffffffffffffffffffffff\n      and\n      dup2\n      mstore\n      0x20\n      add\n      0x04\n      dup3\n      add\n      0x10\n      swap1\n      sload\n      swap1\n      0x0100\n      exp\n      swap1\n      div\n      0xffffffffffffffffffffffffffffffff\n      and\n      0xffffffffffffffffffffffffffffffff\n      and\n      0xffffffffffffffffffffffffffffffff\n      and\n      dup2\n      mstore\n      0x20\n      add\n      0x05\n      dup3\n      add\n      0x00\n      swap1\n      sload\n      swap1\n      0x0100\n      exp\n      swap1\n      div\n      0xffffffff\n      and\n      0xffffffff\n      and\n      0xffffffff\n      and\n      dup2\n      mstore\n      0x20\n      add\n      0x05\n      dup3\n      add\n      0x04\n      swap1\n      sload\n      swap1\n      0x0100\n      exp\n      swap1\n      div\n      0xffffffff\n      and\n      0xffffffff\n      and\n      0xffffffff\n      and\n      dup2\n      mstore\n      pop\n      pop\n        /* \"contracts/distributorProduct.sol\":1868:1880  DistributorP */\n      dup3\n        /* \"contracts/distributorProduct.sol\":1881:1882  i */\n      dup3\n        /* \"contracts/distributorProduct.sol\":1868:1883  DistributorP[i] */\n      dup2\n      mload\n      dup2\n      lt\n      tag_129\n      jumpi\n      tag_130\n      tag_114\n      jump\t// in\n    tag_130:\n    tag_129:\n      0x20\n      mul\n      0x20\n      add\n      add\n        /* \"contracts/distributorProduct.sol\":1868:1932  DistributorP[i] =productsIdMappingToStructMapping[productIds[i]] */\n      dup2\n      swap1\n      mstore\n      pop\n        /* \"contracts/distributorProduct.sol\":1835:1838  i++ */\n      dup1\n      dup1\n      tag_131\n      swap1\n      tag_77\n      jump\t// in\n    tag_131:\n      swap2\n      pop\n      pop\n        /* \"contracts/distributorProduct.sol\":1802:1944  for(uint i=0;i<productIds.length;i++)... */\n      jump(tag_109)\n    tag_110:\n      pop\n        /* \"contracts/distributorProduct.sol\":1961:1973  DistributorP */\n      dup1\n        /* \"contracts/distributorProduct.sol\":1954:1973  return DistributorP */\n      swap3\n      pop\n      pop\n      pop\n        /* \"contracts/distributorProduct.sol\":1490:1981  function getAllProductsOfDistributor(address _distributorAddress) public view returns(distributorProduct[] memory)... */\n      swap2\n      swap1\n      pop\n      jump\t// out\n    tag_48:\n      mload(0x40)\n      dup1\n      0x0100\n      add\n      0x40\n      mstore\n      dup1\n      0x60\n      dup2\n      mstore\n      0x20\n      add\n      0x60\n      dup2\n      mstore\n      0x20\n      add\n      0x60\n      dup2\n      mstore\n      0x20\n      add\n      0x60\n      dup2\n      mstore\n      0x20\n      add\n      and(0xffffffffffffffffffffffffffffffff, 0x00)\n      dup2\n      mstore\n      0x20\n      add\n      and(0xffffffffffffffffffffffffffffffff, 0x00)\n      dup2\n      mstore\n      0x20\n      add\n      and(0xffffffff, 0x00)\n      dup2\n      mstore\n      0x20\n      add\n      and(0xffffffff, 0x00)\n      dup2\n      mstore\n      pop\n      swap1\n      jump\t// out\n    tag_67:\n      dup3\n      dup1\n      sload\n      dup3\n      dup3\n      sstore\n      swap1\n      0x00\n      mstore\n      keccak256(0x00, 0x20)\n      swap1\n      dup2\n      add\n      swap3\n      dup3\n      iszero\n      tag_132\n      jumpi\n      swap2\n      0x20\n      mul\n      dup3\n      add\n    tag_133:\n      dup3\n      dup2\n      gt\n      iszero\n      tag_134\n      jumpi\n      dup3\n      mload\n      dup3\n      exp(0x0100, 0x00)\n      dup2\n      sload\n      dup2\n      0xffffffffffffffffffffffffffffffffffffffff\n      mul\n      not\n      and\n      swap1\n      dup4\n      0xffffffffffffffffffffffffffffffffffffffff\n      and\n      mul\n      or\n      swap1\n      sstore\n      pop\n      swap2\n      0x20\n      add\n      swap2\n      swap1\n      0x01\n      add\n      swap1\n      jump(tag_133)\n    tag_134:\n    tag_132:\n      pop\n      swap1\n      pop\n      tag_135\n      swap2\n      swap1\n      tag_136\n      jump\t// in\n    tag_135:\n      pop\n      swap1\n      jump\t// out\n    tag_69:\n      dup3\n      dup1\n      sload\n      dup3\n      dup3\n      sstore\n      swap1\n      0x00\n      mstore\n      keccak256(0x00, 0x20)\n      swap1\n      dup2\n      add\n      swap3\n      dup3\n      iszero\n      tag_137\n      jumpi\n      swap2\n      0x20\n      mul\n      dup3\n      add\n    tag_138:\n      dup3\n      dup2\n      gt\n      iszero\n      tag_139\n      jumpi\n      dup3\n      mload\n      dup3\n      sstore\n      swap2\n      0x20\n      add\n      swap2\n      swap1\n      0x01\n      add\n      swap1\n      jump(tag_138)\n    tag_139:\n    tag_137:\n      pop\n      swap1\n      pop\n      tag_140\n      swap2\n      swap1\n      tag_136\n      jump\t// in\n    tag_140:\n      pop\n      swap1\n      jump\t// out\n    tag_93:\n      pop\n      dup1\n      sload\n      0x00\n      dup3\n      sstore\n      swap1\n      0x00\n      mstore\n      keccak256(0x00, 0x20)\n      swap1\n      dup2\n      add\n      swap1\n      tag_142\n      swap2\n      swap1\n      tag_136\n      jump\t// in\n    tag_142:\n      pop\n      jump\t// out\n    tag_95:\n      pop\n      dup1\n      sload\n      0x00\n      dup3\n      sstore\n      swap1\n      0x00\n      mstore\n      keccak256(0x00, 0x20)\n      swap1\n      dup2\n      add\n      swap1\n      tag_144\n      swap2\n      swap1\n      tag_136\n      jump\t// in\n    tag_144:\n      pop\n      jump\t// out\n    tag_97:\n      pop\n      dup1\n      sload\n      tag_145\n      swap1\n      tag_55\n      jump\t// in\n    tag_145:\n      0x00\n      dup3\n      sstore\n      dup1\n      0x1f\n      lt\n      tag_147\n      jumpi\n      pop\n      jump(tag_146)\n    tag_147:\n      0x1f\n      add\n      0x20\n      swap1\n      div\n      swap1\n      0x00\n      mstore\n      keccak256(0x00, 0x20)\n      swap1\n      dup2\n      add\n      swap1\n      tag_148\n      swap2\n      swap1\n      tag_136\n      jump\t// in\n    tag_148:\n    tag_146:\n      pop\n      jump\t// out\n    tag_136:\n    tag_149:\n      dup1\n      dup3\n      gt\n      iszero\n      tag_150\n      jumpi\n      0x00\n      dup2\n      0x00\n      swap1\n      sstore\n      pop\n      0x01\n      add\n      jump(tag_149)\n    tag_150:\n      pop\n      swap1\n      jump\t// out\n        /* \"#utility.yul\":7:82   */\n    tag_151:\n        /* \"#utility.yul\":40:46   */\n      0x00\n        /* \"#utility.yul\":73:75   */\n      0x40\n        /* \"#utility.yul\":67:76   */\n      mload\n        /* \"#utility.yul\":57:76   */\n      swap1\n      pop\n        /* \"#utility.yul\":7:82   */\n      swap1\n      jump\t// out\n        /* \"#utility.yul\":88:205   */\n    tag_152:\n        /* \"#utility.yul\":197:198   */\n      0x00\n        /* \"#utility.yul\":194:195   */\n      dup1\n        /* \"#utility.yul\":187:199   */\n      revert\n        /* \"#utility.yul\":211:328   */\n    tag_153:\n        /* \"#utility.yul\":320:321   */\n      0x00\n        /* \"#utility.yul\":317:318   */\n      dup1\n        /* \"#utility.yul\":310:322   */\n      revert\n        /* \"#utility.yul\":334:460   */\n    tag_154:\n        /* \"#utility.yul\":371:378   */\n      0x00\n        /* \"#utility.yul\":411:453   */\n      0xffffffffffffffffffffffffffffffffffffffff\n        /* \"#utility.yul\":404:409   */\n      dup3\n        /* \"#utility.yul\":400:454   */\n      and\n        /* \"#utility.yul\":389:454   */\n      swap1\n      pop\n        /* \"#utility.yul\":334:460   */\n      swap2\n      swap1\n      pop\n      jump\t// out\n        /* \"#utility.yul\":466:562   */\n    tag_155:\n        /* \"#utility.yul\":503:510   */\n      0x00\n        /* \"#utility.yul\":532:556   */\n      tag_242\n        /* \"#utility.yul\":550:555   */\n      dup3\n        /* \"#utility.yul\":532:556   */\n      tag_154\n      jump\t// in\n    tag_242:\n        /* \"#utility.yul\":521:556   */\n      swap1\n      pop\n        /* \"#utility.yul\":466:562   */\n      swap2\n      swap1\n      pop\n      jump\t// out\n        /* \"#utility.yul\":568:690   */\n    tag_156:\n        /* \"#utility.yul\":641:665   */\n      tag_244\n        /* \"#utility.yul\":659:664   */\n      dup2\n        /* \"#utility.yul\":641:665   */\n      tag_155\n      jump\t// in\n    tag_244:\n        /* \"#utility.yul\":634:639   */\n      dup2\n        /* \"#utility.yul\":631:666   */\n      eq\n        /* \"#utility.yul\":621:684   */\n      tag_245\n      jumpi\n        /* \"#utility.yul\":680:681   */\n      0x00\n        /* \"#utility.yul\":677:678   */\n      dup1\n        /* \"#utility.yul\":670:682   */\n      revert\n        /* \"#utility.yul\":621:684   */\n    tag_245:\n        /* \"#utility.yul\":568:690   */\n      pop\n      jump\t// out\n        /* \"#utility.yul\":696:835   */\n    tag_157:\n        /* \"#utility.yul\":742:747   */\n      0x00\n        /* \"#utility.yul\":780:786   */\n      dup2\n        /* \"#utility.yul\":767:787   */\n      calldataload\n        /* \"#utility.yul\":758:787   */\n      swap1\n      pop\n        /* \"#utility.yul\":796:829   */\n      tag_247\n        /* \"#utility.yul\":823:828   */\n      dup2\n        /* \"#utility.yul\":796:829   */\n      tag_156\n      jump\t// in\n    tag_247:\n        /* \"#utility.yul\":696:835   */\n      swap3\n      swap2\n      pop\n      pop\n      jump\t// out\n        /* \"#utility.yul\":841:918   */\n    tag_158:\n        /* \"#utility.yul\":878:885   */\n      0x00\n        /* \"#utility.yul\":907:912   */\n      dup2\n        /* \"#utility.yul\":896:912   */\n      swap1\n      pop\n        /* \"#utility.yul\":841:918   */\n      swap2\n      swap1\n      pop\n      jump\t// out\n        /* \"#utility.yul\":924:1046   */\n    tag_159:\n        /* \"#utility.yul\":997:1021   */\n      tag_250\n        /* \"#utility.yul\":1015:1020   */\n      dup2\n        /* \"#utility.yul\":997:1021   */\n      tag_158\n      jump\t// in\n    tag_250:\n        /* \"#utility.yul\":990:995   */\n      dup2\n        /* \"#utility.yul\":987:1022   */\n      eq\n        /* \"#utility.yul\":977:1040   */\n      tag_251\n      jumpi\n        /* \"#utility.yul\":1036:1037   */\n      0x00\n        /* \"#utility.yul\":1033:1034   */\n      dup1\n        /* \"#utility.yul\":1026:1038   */\n      revert\n        /* \"#utility.yul\":977:1040   */\n    tag_251:\n        /* \"#utility.yul\":924:1046   */\n      pop\n      jump\t// out\n        /* \"#utility.yul\":1052:1191   */\n    tag_160:\n        /* \"#utility.yul\":1098:1103   */\n      0x00\n        /* \"#utility.yul\":1136:1142   */\n      dup2\n        /* \"#utility.yul\":1123:1143   */\n      calldataload\n        /* \"#utility.yul\":1114:1143   */\n      swap1\n      pop\n        /* \"#utility.yul\":1152:1185   */\n      tag_253\n        /* \"#utility.yul\":1179:1184   */\n      dup2\n        /* \"#utility.yul\":1152:1185   */\n      tag_159\n      jump\t// in\n    tag_253:\n        /* \"#utility.yul\":1052:1191   */\n      swap3\n      swap2\n      pop\n      pop\n      jump\t// out\n        /* \"#utility.yul\":1197:1671   */\n    tag_13:\n        /* \"#utility.yul\":1265:1271   */\n      0x00\n        /* \"#utility.yul\":1273:1279   */\n      dup1\n        /* \"#utility.yul\":1322:1324   */\n      0x40\n        /* \"#utility.yul\":1310:1319   */\n      dup4\n        /* \"#utility.yul\":1301:1308   */\n      dup6\n        /* \"#utility.yul\":1297:1320   */\n      sub\n        /* \"#utility.yul\":1293:1325   */\n      slt\n        /* \"#utility.yul\":1290:1409   */\n      iszero\n      tag_255\n      jumpi\n        /* \"#utility.yul\":1328:1407   */\n      tag_256\n      tag_152\n      jump\t// in\n    tag_256:\n        /* \"#utility.yul\":1290:1409   */\n    tag_255:\n        /* \"#utility.yul\":1448:1449   */\n      0x00\n        /* \"#utility.yul\":1473:1526   */\n      tag_257\n        /* \"#utility.yul\":1518:1525   */\n      dup6\n        /* \"#utility.yul\":1509:1515   */\n      dup3\n        /* \"#utility.yul\":1498:1507   */\n      dup7\n        /* \"#utility.yul\":1494:1516   */\n      add\n        /* \"#utility.yul\":1473:1526   */\n      tag_157\n      jump\t// in\n    tag_257:\n        /* \"#utility.yul\":1463:1526   */\n      swap3\n      pop\n        /* \"#utility.yul\":1419:1536   */\n      pop\n        /* \"#utility.yul\":1575:1577   */\n      0x20\n        /* \"#utility.yul\":1601:1654   */\n      tag_258\n        /* \"#utility.yul\":1646:1653   */\n      dup6\n        /* \"#utility.yul\":1637:1643   */\n      dup3\n        /* \"#utility.yul\":1626:1635   */\n      dup7\n        /* \"#utility.yul\":1622:1644   */\n      add\n        /* \"#utility.yul\":1601:1654   */\n      tag_160\n      jump\t// in\n    tag_258:\n        /* \"#utility.yul\":1591:1654   */\n      swap2\n      pop\n        /* \"#utility.yul\":1546:1664   */\n      pop\n        /* \"#utility.yul\":1197:1671   */\n      swap3\n      pop\n      swap3\n      swap1\n      pop\n      jump\t// out\n        /* \"#utility.yul\":1677:1795   */\n    tag_161:\n        /* \"#utility.yul\":1764:1788   */\n      tag_260\n        /* \"#utility.yul\":1782:1787   */\n      dup2\n        /* \"#utility.yul\":1764:1788   */\n      tag_158\n      jump\t// in\n    tag_260:\n        /* \"#utility.yul\":1759:1762   */\n      dup3\n        /* \"#utility.yul\":1752:1789   */\n      mstore\n        /* \"#utility.yul\":1677:1795   */\n      pop\n      pop\n      jump\t// out\n        /* \"#utility.yul\":1801:2023   */\n    tag_16:\n        /* \"#utility.yul\":1894:1898   */\n      0x00\n        /* \"#utility.yul\":1932:1934   */\n      0x20\n        /* \"#utility.yul\":1921:1930   */\n      dup3\n        /* \"#utility.yul\":1917:1935   */\n      add\n        /* \"#utility.yul\":1909:1935   */\n      swap1\n      pop\n        /* \"#utility.yul\":1945:2016   */\n      tag_262\n        /* \"#utility.yul\":2013:2014   */\n      0x00\n        /* \"#utility.yul\":2002:2011   */\n      dup4\n        /* \"#utility.yul\":1998:2015   */\n      add\n        /* \"#utility.yul\":1989:1995   */\n      dup5\n        /* \"#utility.yul\":1945:2016   */\n      tag_161\n      jump\t// in\n    tag_262:\n        /* \"#utility.yul\":1801:2023   */\n      swap3\n      swap2\n      pop\n      pop\n      jump\t// out\n        /* \"#utility.yul\":2029:2358   */\n    tag_19:\n        /* \"#utility.yul\":2088:2094   */\n      0x00\n        /* \"#utility.yul\":2137:2139   */\n      0x20\n        /* \"#utility.yul\":2125:2134   */\n      dup3\n        /* \"#utility.yul\":2116:2123   */\n      dup5\n        /* \"#utility.yul\":2112:2135   */\n      sub\n        /* \"#utility.yul\":2108:2140   */\n      slt\n        /* \"#utility.yul\":2105:2224   */\n      iszero\n      tag_264\n      jumpi\n        /* \"#utility.yul\":2143:2222   */\n      tag_265\n      tag_152\n      jump\t// in\n    tag_265:\n        /* \"#utility.yul\":2105:2224   */\n    tag_264:\n        /* \"#utility.yul\":2263:2264   */\n      0x00\n        /* \"#utility.yul\":2288:2341   */\n      tag_266\n        /* \"#utility.yul\":2333:2340   */\n      dup5\n        /* \"#utility.yul\":2324:2330   */\n      dup3\n        /* \"#utility.yul\":2313:2322   */\n      dup6\n        /* \"#utility.yul\":2309:2331   */\n      add\n        /* \"#utility.yul\":2288:2341   */\n      tag_160\n      jump\t// in\n    tag_266:\n        /* \"#utility.yul\":2278:2341   */\n      swap2\n      pop\n        /* \"#utility.yul\":2234:2351   */\n      pop\n        /* \"#utility.yul\":2029:2358   */\n      swap3\n      swap2\n      pop\n      pop\n      jump\t// out\n        /* \"#utility.yul\":2364:2478   */\n    tag_162:\n        /* \"#utility.yul\":2431:2437   */\n      0x00\n        /* \"#utility.yul\":2465:2470   */\n      dup2\n        /* \"#utility.yul\":2459:2471   */\n      mload\n        /* \"#utility.yul\":2449:2471   */\n      swap1\n      pop\n        /* \"#utility.yul\":2364:2478   */\n      swap2\n      swap1\n      pop\n      jump\t// out\n        /* \"#utility.yul\":2484:2658   */\n    tag_163:\n        /* \"#utility.yul\":2573:2584   */\n      0x00\n        /* \"#utility.yul\":2607:2613   */\n      dup3\n        /* \"#utility.yul\":2602:2605   */\n      dup3\n        /* \"#utility.yul\":2595:2614   */\n      mstore\n        /* \"#utility.yul\":2647:2651   */\n      0x20\n        /* \"#utility.yul\":2642:2645   */\n      dup3\n        /* \"#utility.yul\":2638:2652   */\n      add\n        /* \"#utility.yul\":2623:2652   */\n      swap1\n      pop\n        /* \"#utility.yul\":2484:2658   */\n      swap3\n      swap2\n      pop\n      pop\n      jump\t// out\n        /* \"#utility.yul\":2664:2796   */\n    tag_164:\n        /* \"#utility.yul\":2731:2735   */\n      0x00\n        /* \"#utility.yul\":2754:2757   */\n      dup2\n        /* \"#utility.yul\":2746:2757   */\n      swap1\n      pop\n        /* \"#utility.yul\":2784:2788   */\n      0x20\n        /* \"#utility.yul\":2779:2782   */\n      dup3\n        /* \"#utility.yul\":2775:2789   */\n      add\n        /* \"#utility.yul\":2767:2789   */\n      swap1\n      pop\n        /* \"#utility.yul\":2664:2796   */\n      swap2\n      swap1\n      pop\n      jump\t// out\n        /* \"#utility.yul\":2802:2910   */\n    tag_165:\n        /* \"#utility.yul\":2879:2903   */\n      tag_271\n        /* \"#utility.yul\":2897:2902   */\n      dup2\n        /* \"#utility.yul\":2879:2903   */\n      tag_155\n      jump\t// in\n    tag_271:\n        /* \"#utility.yul\":2874:2877   */\n      dup3\n        /* \"#utility.yul\":2867:2904   */\n      mstore\n        /* \"#utility.yul\":2802:2910   */\n      pop\n      pop\n      jump\t// out\n        /* \"#utility.yul\":2916:3095   */\n    tag_166:\n        /* \"#utility.yul\":2985:2995   */\n      0x00\n        /* \"#utility.yul\":3006:3052   */\n      tag_273\n        /* \"#utility.yul\":3048:3051   */\n      dup4\n        /* \"#utility.yul\":3040:3046   */\n      dup4\n        /* \"#utility.yul\":3006:3052   */\n      tag_165\n      jump\t// in\n    tag_273:\n        /* \"#utility.yul\":3084:3088   */\n      0x20\n        /* \"#utility.yul\":3079:3082   */\n      dup4\n        /* \"#utility.yul\":3075:3089   */\n      add\n        /* \"#utility.yul\":3061:3089   */\n      swap1\n      pop\n        /* \"#utility.yul\":2916:3095   */\n      swap3\n      swap2\n      pop\n      pop\n      jump\t// out\n        /* \"#utility.yul\":3101:3214   */\n    tag_167:\n        /* \"#utility.yul\":3171:3175   */\n      0x00\n        /* \"#utility.yul\":3203:3207   */\n      0x20\n        /* \"#utility.yul\":3198:3201   */\n      dup3\n        /* \"#utility.yul\":3194:3208   */\n      add\n        /* \"#utility.yul\":3186:3208   */\n      swap1\n      pop\n        /* \"#utility.yul\":3101:3214   */\n      swap2\n      swap1\n      pop\n      jump\t// out\n        /* \"#utility.yul\":3250:3962   */\n    tag_168:\n        /* \"#utility.yul\":3359:3362   */\n      0x00\n        /* \"#utility.yul\":3388:3442   */\n      tag_276\n        /* \"#utility.yul\":3436:3441   */\n      dup3\n        /* \"#utility.yul\":3388:3442   */\n      tag_162\n      jump\t// in\n    tag_276:\n        /* \"#utility.yul\":3458:3534   */\n      tag_277\n        /* \"#utility.yul\":3527:3533   */\n      dup2\n        /* \"#utility.yul\":3522:3525   */\n      dup6\n        /* \"#utility.yul\":3458:3534   */\n      tag_163\n      jump\t// in\n    tag_277:\n        /* \"#utility.yul\":3451:3534   */\n      swap4\n      pop\n        /* \"#utility.yul\":3558:3614   */\n      tag_278\n        /* \"#utility.yul\":3608:3613   */\n      dup4\n        /* \"#utility.yul\":3558:3614   */\n      tag_164\n      jump\t// in\n    tag_278:\n        /* \"#utility.yul\":3637:3644   */\n      dup1\n        /* \"#utility.yul\":3668:3669   */\n      0x00\n        /* \"#utility.yul\":3653:3937   */\n    tag_279:\n        /* \"#utility.yul\":3678:3684   */\n      dup4\n        /* \"#utility.yul\":3675:3676   */\n      dup2\n        /* \"#utility.yul\":3672:3685   */\n      lt\n        /* \"#utility.yul\":3653:3937   */\n      iszero\n      tag_281\n      jumpi\n        /* \"#utility.yul\":3754:3760   */\n      dup2\n        /* \"#utility.yul\":3748:3761   */\n      mload\n        /* \"#utility.yul\":3781:3844   */\n      tag_282\n        /* \"#utility.yul\":3840:3843   */\n      dup9\n        /* \"#utility.yul\":3825:3838   */\n      dup3\n        /* \"#utility.yul\":3781:3844   */\n      tag_166\n      jump\t// in\n    tag_282:\n        /* \"#utility.yul\":3774:3844   */\n      swap8\n      pop\n        /* \"#utility.yul\":3867:3927   */\n      tag_283\n        /* \"#utility.yul\":3920:3926   */\n      dup4\n        /* \"#utility.yul\":3867:3927   */\n      tag_167\n      jump\t// in\n    tag_283:\n        /* \"#utility.yul\":3857:3927   */\n      swap3\n      pop\n        /* \"#utility.yul\":3713:3937   */\n      pop\n        /* \"#utility.yul\":3700:3701   */\n      0x01\n        /* \"#utility.yul\":3697:3698   */\n      dup2\n        /* \"#utility.yul\":3693:3702   */\n      add\n        /* \"#utility.yul\":3688:3702   */\n      swap1\n      pop\n        /* \"#utility.yul\":3653:3937   */\n      jump(tag_279)\n    tag_281:\n        /* \"#utility.yul\":3657:3671   */\n      pop\n        /* \"#utility.yul\":3953:3956   */\n      dup6\n        /* \"#utility.yul\":3946:3956   */\n      swap4\n      pop\n        /* \"#utility.yul\":3364:3962   */\n      pop\n      pop\n      pop\n        /* \"#utility.yul\":3250:3962   */\n      swap3\n      swap2\n      pop\n      pop\n      jump\t// out\n        /* \"#utility.yul\":3968:4082   */\n    tag_169:\n        /* \"#utility.yul\":4035:4041   */\n      0x00\n        /* \"#utility.yul\":4069:4074   */\n      dup2\n        /* \"#utility.yul\":4063:4075   */\n      mload\n        /* \"#utility.yul\":4053:4075   */\n      swap1\n      pop\n        /* \"#utility.yul\":3968:4082   */\n      swap2\n      swap1\n      pop\n      jump\t// out\n        /* \"#utility.yul\":4088:4262   */\n    tag_170:\n        /* \"#utility.yul\":4177:4188   */\n      0x00\n        /* \"#utility.yul\":4211:4217   */\n      dup3\n        /* \"#utility.yul\":4206:4209   */\n      dup3\n        /* \"#utility.yul\":4199:4218   */\n      mstore\n        /* \"#utility.yul\":4251:4255   */\n      0x20\n        /* \"#utility.yul\":4246:4249   */\n      dup3\n        /* \"#utility.yul\":4242:4256   */\n      add\n        /* \"#utility.yul\":4227:4256   */\n      swap1\n      pop\n        /* \"#utility.yul\":4088:4262   */\n      swap3\n      swap2\n      pop\n      pop\n      jump\t// out\n        /* \"#utility.yul\":4268:4400   */\n    tag_171:\n        /* \"#utility.yul\":4335:4339   */\n      0x00\n        /* \"#utility.yul\":4358:4361   */\n      dup2\n        /* \"#utility.yul\":4350:4361   */\n      swap1\n      pop\n        /* \"#utility.yul\":4388:4392   */\n      0x20\n        /* \"#utility.yul\":4383:4386   */\n      dup3\n        /* \"#utility.yul\":4379:4393   */\n      add\n        /* \"#utility.yul\":4371:4393   */\n      swap1\n      pop\n        /* \"#utility.yul\":4268:4400   */\n      swap2\n      swap1\n      pop\n      jump\t// out\n        /* \"#utility.yul\":4406:4514   */\n    tag_172:\n        /* \"#utility.yul\":4483:4507   */\n      tag_288\n        /* \"#utility.yul\":4501:4506   */\n      dup2\n        /* \"#utility.yul\":4483:4507   */\n      tag_158\n      jump\t// in\n    tag_288:\n        /* \"#utility.yul\":4478:4481   */\n      dup3\n        /* \"#utility.yul\":4471:4508   */\n      mstore\n        /* \"#utility.yul\":4406:4514   */\n      pop\n      pop\n      jump\t// out\n        /* \"#utility.yul\":4520:4699   */\n    tag_173:\n        /* \"#utility.yul\":4589:4599   */\n      0x00\n        /* \"#utility.yul\":4610:4656   */\n      tag_290\n        /* \"#utility.yul\":4652:4655   */\n      dup4\n        /* \"#utility.yul\":4644:4650   */\n      dup4\n        /* \"#utility.yul\":4610:4656   */\n      tag_172\n      jump\t// in\n    tag_290:\n        /* \"#utility.yul\":4688:4692   */\n      0x20\n        /* \"#utility.yul\":4683:4686   */\n      dup4\n        /* \"#utility.yul\":4679:4693   */\n      add\n        /* \"#utility.yul\":4665:4693   */\n      swap1\n      pop\n        /* \"#utility.yul\":4520:4699   */\n      swap3\n      swap2\n      pop\n      pop\n      jump\t// out\n        /* \"#utility.yul\":4705:4818   */\n    tag_174:\n        /* \"#utility.yul\":4775:4779   */\n      0x00\n        /* \"#utility.yul\":4807:4811   */\n      0x20\n        /* \"#utility.yul\":4802:4805   */\n      dup3\n        /* \"#utility.yul\":4798:4812   */\n      add\n        /* \"#utility.yul\":4790:4812   */\n      swap1\n      pop\n        /* \"#utility.yul\":4705:4818   */\n      swap2\n      swap1\n      pop\n      jump\t// out\n        /* \"#utility.yul\":4854:5566   */\n    tag_175:\n        /* \"#utility.yul\":4963:4966   */\n      0x00\n        /* \"#utility.yul\":4992:5046   */\n      tag_293\n        /* \"#utility.yul\":5040:5045   */\n      dup3\n        /* \"#utility.yul\":4992:5046   */\n      tag_169\n      jump\t// in\n    tag_293:\n        /* \"#utility.yul\":5062:5138   */\n      tag_294\n        /* \"#utility.yul\":5131:5137   */\n      dup2\n        /* \"#utility.yul\":5126:5129   */\n      dup6\n        /* \"#utility.yul\":5062:5138   */\n      tag_170\n      jump\t// in\n    tag_294:\n        /* \"#utility.yul\":5055:5138   */\n      swap4\n      pop\n        /* \"#utility.yul\":5162:5218   */\n      tag_295\n        /* \"#utility.yul\":5212:5217   */\n      dup4\n        /* \"#utility.yul\":5162:5218   */\n      tag_171\n      jump\t// in\n    tag_295:\n        /* \"#utility.yul\":5241:5248   */\n      dup1\n        /* \"#utility.yul\":5272:5273   */\n      0x00\n        /* \"#utility.yul\":5257:5541   */\n    tag_296:\n        /* \"#utility.yul\":5282:5288   */\n      dup4\n        /* \"#utility.yul\":5279:5280   */\n      dup2\n        /* \"#utility.yul\":5276:5289   */\n      lt\n        /* \"#utility.yul\":5257:5541   */\n      iszero\n      tag_298\n      jumpi\n        /* \"#utility.yul\":5358:5364   */\n      dup2\n        /* \"#utility.yul\":5352:5365   */\n      mload\n        /* \"#utility.yul\":5385:5448   */\n      tag_299\n        /* \"#utility.yul\":5444:5447   */\n      dup9\n        /* \"#utility.yul\":5429:5442   */\n      dup3\n        /* \"#utility.yul\":5385:5448   */\n      tag_173\n      jump\t// in\n    tag_299:\n        /* \"#utility.yul\":5378:5448   */\n      swap8\n      pop\n        /* \"#utility.yul\":5471:5531   */\n      tag_300\n        /* \"#utility.yul\":5524:5530   */\n      dup4\n        /* \"#utility.yul\":5471:5531   */\n      tag_174\n      jump\t// in\n    tag_300:\n        /* \"#utility.yul\":5461:5531   */\n      swap3\n      pop\n        /* \"#utility.yul\":5317:5541   */\n      pop\n        /* \"#utility.yul\":5304:5305   */\n      0x01\n        /* \"#utility.yul\":5301:5302   */\n      dup2\n        /* \"#utility.yul\":5297:5306   */\n      add\n        /* \"#utility.yul\":5292:5306   */\n      swap1\n      pop\n        /* \"#utility.yul\":5257:5541   */\n      jump(tag_296)\n    tag_298:\n        /* \"#utility.yul\":5261:5275   */\n      pop\n        /* \"#utility.yul\":5557:5560   */\n      dup6\n        /* \"#utility.yul\":5550:5560   */\n      swap4\n      pop\n        /* \"#utility.yul\":4968:5566   */\n      pop\n      pop\n      pop\n        /* \"#utility.yul\":4854:5566   */\n      swap3\n      swap2\n      pop\n      pop\n      jump\t// out\n        /* \"#utility.yul\":5572:5670   */\n    tag_176:\n        /* \"#utility.yul\":5623:5629   */\n      0x00\n        /* \"#utility.yul\":5657:5662   */\n      dup2\n        /* \"#utility.yul\":5651:5663   */\n      mload\n        /* \"#utility.yul\":5641:5663   */\n      swap1\n      pop\n        /* \"#utility.yul\":5572:5670   */\n      swap2\n      swap1\n      pop\n      jump\t// out\n        /* \"#utility.yul\":5676:5834   */\n    tag_177:\n        /* \"#utility.yul\":5749:5760   */\n      0x00\n        /* \"#utility.yul\":5783:5789   */\n      dup3\n        /* \"#utility.yul\":5778:5781   */\n      dup3\n        /* \"#utility.yul\":5771:5790   */\n      mstore\n        /* \"#utility.yul\":5823:5827   */\n      0x20\n        /* \"#utility.yul\":5818:5821   */\n      dup3\n        /* \"#utility.yul\":5814:5828   */\n      add\n        /* \"#utility.yul\":5799:5828   */\n      swap1\n      pop\n        /* \"#utility.yul\":5676:5834   */\n      swap3\n      swap2\n      pop\n      pop\n      jump\t// out\n        /* \"#utility.yul\":5840:6086   */\n    tag_178:\n        /* \"#utility.yul\":5921:5922   */\n      0x00\n        /* \"#utility.yul\":5931:6044   */\n    tag_304:\n        /* \"#utility.yul\":5945:5951   */\n      dup4\n        /* \"#utility.yul\":5942:5943   */\n      dup2\n        /* \"#utility.yul\":5939:5952   */\n      lt\n        /* \"#utility.yul\":5931:6044   */\n      iszero\n      tag_306\n      jumpi\n        /* \"#utility.yul\":6030:6031   */\n      dup1\n        /* \"#utility.yul\":6025:6028   */\n      dup3\n        /* \"#utility.yul\":6021:6032   */\n      add\n        /* \"#utility.yul\":6015:6033   */\n      mload\n        /* \"#utility.yul\":6011:6012   */\n      dup2\n        /* \"#utility.yul\":6006:6009   */\n      dup5\n        /* \"#utility.yul\":6002:6013   */\n      add\n        /* \"#utility.yul\":5995:6034   */\n      mstore\n        /* \"#utility.yul\":5967:5969   */\n      0x20\n        /* \"#utility.yul\":5964:5965   */\n      dup2\n        /* \"#utility.yul\":5960:5970   */\n      add\n        /* \"#utility.yul\":5955:5970   */\n      swap1\n      pop\n        /* \"#utility.yul\":5931:6044   */\n      jump(tag_304)\n    tag_306:\n        /* \"#utility.yul\":6078:6079   */\n      0x00\n        /* \"#utility.yul\":6069:6075   */\n      dup5\n        /* \"#utility.yul\":6064:6067   */\n      dup5\n        /* \"#utility.yul\":6060:6076   */\n      add\n        /* \"#utility.yul\":6053:6080   */\n      mstore\n        /* \"#utility.yul\":5902:6086   */\n      pop\n        /* \"#utility.yul\":5840:6086   */\n      pop\n      pop\n      pop\n      jump\t// out\n        /* \"#utility.yul\":6092:6194   */\n    tag_179:\n        /* \"#utility.yul\":6133:6139   */\n      0x00\n        /* \"#utility.yul\":6184:6186   */\n      0x1f\n        /* \"#utility.yul\":6180:6187   */\n      not\n        /* \"#utility.yul\":6175:6177   */\n      0x1f\n        /* \"#utility.yul\":6168:6173   */\n      dup4\n        /* \"#utility.yul\":6164:6178   */\n      add\n        /* \"#utility.yul\":6160:6188   */\n      and\n        /* \"#utility.yul\":6150:6188   */\n      swap1\n      pop\n        /* \"#utility.yul\":6092:6194   */\n      swap2\n      swap1\n      pop\n      jump\t// out\n        /* \"#utility.yul\":6200:6553   */\n    tag_180:\n        /* \"#utility.yul\":6276:6279   */\n      0x00\n        /* \"#utility.yul\":6304:6342   */\n      tag_309\n        /* \"#utility.yul\":6336:6341   */\n      dup3\n        /* \"#utility.yul\":6304:6342   */\n      tag_176\n      jump\t// in\n    tag_309:\n        /* \"#utility.yul\":6358:6418   */\n      tag_310\n        /* \"#utility.yul\":6411:6417   */\n      dup2\n        /* \"#utility.yul\":6406:6409   */\n      dup6\n        /* \"#utility.yul\":6358:6418   */\n      tag_177\n      jump\t// in\n    tag_310:\n        /* \"#utility.yul\":6351:6418   */\n      swap4\n      pop\n        /* \"#utility.yul\":6427:6492   */\n      tag_311\n        /* \"#utility.yul\":6485:6491   */\n      dup2\n        /* \"#utility.yul\":6480:6483   */\n      dup6\n        /* \"#utility.yul\":6473:6477   */\n      0x20\n        /* \"#utility.yul\":6466:6471   */\n      dup7\n        /* \"#utility.yul\":6462:6478   */\n      add\n        /* \"#utility.yul\":6427:6492   */\n      tag_178\n      jump\t// in\n    tag_311:\n        /* \"#utility.yul\":6517:6546   */\n      tag_312\n        /* \"#utility.yul\":6539:6545   */\n      dup2\n        /* \"#utility.yul\":6517:6546   */\n      tag_179\n      jump\t// in\n    tag_312:\n        /* \"#utility.yul\":6512:6515   */\n      dup5\n        /* \"#utility.yul\":6508:6547   */\n      add\n        /* \"#utility.yul\":6501:6547   */\n      swap2\n      pop\n        /* \"#utility.yul\":6280:6553   */\n      pop\n        /* \"#utility.yul\":6200:6553   */\n      swap3\n      swap2\n      pop\n      pop\n      jump\t// out\n        /* \"#utility.yul\":6559:6677   */\n    tag_181:\n        /* \"#utility.yul\":6596:6603   */\n      0x00\n        /* \"#utility.yul\":6636:6670   */\n      0xffffffffffffffffffffffffffffffff\n        /* \"#utility.yul\":6629:6634   */\n      dup3\n        /* \"#utility.yul\":6625:6671   */\n      and\n        /* \"#utility.yul\":6614:6671   */\n      swap1\n      pop\n        /* \"#utility.yul\":6559:6677   */\n      swap2\n      swap1\n      pop\n      jump\t// out\n        /* \"#utility.yul\":6683:6791   */\n    tag_182:\n        /* \"#utility.yul\":6760:6784   */\n      tag_315\n        /* \"#utility.yul\":6778:6783   */\n      dup2\n        /* \"#utility.yul\":6760:6784   */\n      tag_181\n      jump\t// in\n    tag_315:\n        /* \"#utility.yul\":6755:6758   */\n      dup3\n        /* \"#utility.yul\":6748:6785   */\n      mstore\n        /* \"#utility.yul\":6683:6791   */\n      pop\n      pop\n      jump\t// out\n        /* \"#utility.yul\":6797:6890   */\n    tag_183:\n        /* \"#utility.yul\":6833:6840   */\n      0x00\n        /* \"#utility.yul\":6873:6883   */\n      0xffffffff\n        /* \"#utility.yul\":6866:6871   */\n      dup3\n        /* \"#utility.yul\":6862:6884   */\n      and\n        /* \"#utility.yul\":6851:6884   */\n      swap1\n      pop\n        /* \"#utility.yul\":6797:6890   */\n      swap2\n      swap1\n      pop\n      jump\t// out\n        /* \"#utility.yul\":6896:7001   */\n    tag_184:\n        /* \"#utility.yul\":6971:6994   */\n      tag_318\n        /* \"#utility.yul\":6988:6993   */\n      dup2\n        /* \"#utility.yul\":6971:6994   */\n      tag_183\n      jump\t// in\n    tag_318:\n        /* \"#utility.yul\":6966:6969   */\n      dup3\n        /* \"#utility.yul\":6959:6995   */\n      mstore\n        /* \"#utility.yul\":6896:7001   */\n      pop\n      pop\n      jump\t// out\n        /* \"#utility.yul\":7109:9092   */\n    tag_185:\n        /* \"#utility.yul\":7246:7249   */\n      0x00\n        /* \"#utility.yul\":7282:7288   */\n      0x0100\n        /* \"#utility.yul\":7277:7280   */\n      dup4\n        /* \"#utility.yul\":7273:7289   */\n      add\n        /* \"#utility.yul\":7386:7390   */\n      0x00\n        /* \"#utility.yul\":7379:7384   */\n      dup4\n        /* \"#utility.yul\":7375:7391   */\n      add\n        /* \"#utility.yul\":7369:7392   */\n      mload\n        /* \"#utility.yul\":7439:7442   */\n      dup5\n        /* \"#utility.yul\":7433:7437   */\n      dup3\n        /* \"#utility.yul\":7429:7443   */\n      sub\n        /* \"#utility.yul\":7422:7426   */\n      0x00\n        /* \"#utility.yul\":7417:7420   */\n      dup7\n        /* \"#utility.yul\":7413:7427   */\n      add\n        /* \"#utility.yul\":7406:7444   */\n      mstore\n        /* \"#utility.yul\":7465:7568   */\n      tag_320\n        /* \"#utility.yul\":7563:7567   */\n      dup3\n        /* \"#utility.yul\":7549:7561   */\n      dup3\n        /* \"#utility.yul\":7465:7568   */\n      tag_168\n      jump\t// in\n    tag_320:\n        /* \"#utility.yul\":7457:7568   */\n      swap2\n      pop\n        /* \"#utility.yul\":7299:7579   */\n      pop\n        /* \"#utility.yul\":7662:7666   */\n      0x20\n        /* \"#utility.yul\":7655:7660   */\n      dup4\n        /* \"#utility.yul\":7651:7667   */\n      add\n        /* \"#utility.yul\":7645:7668   */\n      mload\n        /* \"#utility.yul\":7715:7718   */\n      dup5\n        /* \"#utility.yul\":7709:7713   */\n      dup3\n        /* \"#utility.yul\":7705:7719   */\n      sub\n        /* \"#utility.yul\":7698:7702   */\n      0x20\n        /* \"#utility.yul\":7693:7696   */\n      dup7\n        /* \"#utility.yul\":7689:7703   */\n      add\n        /* \"#utility.yul\":7682:7720   */\n      mstore\n        /* \"#utility.yul\":7741:7844   */\n      tag_321\n        /* \"#utility.yul\":7839:7843   */\n      dup3\n        /* \"#utility.yul\":7825:7837   */\n      dup3\n        /* \"#utility.yul\":7741:7844   */\n      tag_175\n      jump\t// in\n    tag_321:\n        /* \"#utility.yul\":7733:7844   */\n      swap2\n      pop\n        /* \"#utility.yul\":7589:7855   */\n      pop\n        /* \"#utility.yul\":7940:7944   */\n      0x40\n        /* \"#utility.yul\":7933:7938   */\n      dup4\n        /* \"#utility.yul\":7929:7945   */\n      add\n        /* \"#utility.yul\":7923:7946   */\n      mload\n        /* \"#utility.yul\":7993:7996   */\n      dup5\n        /* \"#utility.yul\":7987:7991   */\n      dup3\n        /* \"#utility.yul\":7983:7997   */\n      sub\n        /* \"#utility.yul\":7976:7980   */\n      0x40\n        /* \"#utility.yul\":7971:7974   */\n      dup7\n        /* \"#utility.yul\":7967:7981   */\n      add\n        /* \"#utility.yul\":7960:7998   */\n      mstore\n        /* \"#utility.yul\":8019:8090   */\n      tag_322\n        /* \"#utility.yul\":8085:8089   */\n      dup3\n        /* \"#utility.yul\":8071:8083   */\n      dup3\n        /* \"#utility.yul\":8019:8090   */\n      tag_180\n      jump\t// in\n    tag_322:\n        /* \"#utility.yul\":8011:8090   */\n      swap2\n      pop\n        /* \"#utility.yul\":7865:8101   */\n      pop\n        /* \"#utility.yul\":8193:8197   */\n      0x60\n        /* \"#utility.yul\":8186:8191   */\n      dup4\n        /* \"#utility.yul\":8182:8198   */\n      add\n        /* \"#utility.yul\":8176:8199   */\n      mload\n        /* \"#utility.yul\":8246:8249   */\n      dup5\n        /* \"#utility.yul\":8240:8244   */\n      dup3\n        /* \"#utility.yul\":8236:8250   */\n      sub\n        /* \"#utility.yul\":8229:8233   */\n      0x60\n        /* \"#utility.yul\":8224:8227   */\n      dup7\n        /* \"#utility.yul\":8220:8234   */\n      add\n        /* \"#utility.yul\":8213:8251   */\n      mstore\n        /* \"#utility.yul\":8272:8343   */\n      tag_323\n        /* \"#utility.yul\":8338:8342   */\n      dup3\n        /* \"#utility.yul\":8324:8336   */\n      dup3\n        /* \"#utility.yul\":8272:8343   */\n      tag_180\n      jump\t// in\n    tag_323:\n        /* \"#utility.yul\":8264:8343   */\n      swap2\n      pop\n        /* \"#utility.yul\":8111:8354   */\n      pop\n        /* \"#utility.yul\":8439:8443   */\n      0x80\n        /* \"#utility.yul\":8432:8437   */\n      dup4\n        /* \"#utility.yul\":8428:8444   */\n      add\n        /* \"#utility.yul\":8422:8445   */\n      mload\n        /* \"#utility.yul\":8458:8521   */\n      tag_324\n        /* \"#utility.yul\":8515:8519   */\n      0x80\n        /* \"#utility.yul\":8510:8513   */\n      dup7\n        /* \"#utility.yul\":8506:8520   */\n      add\n        /* \"#utility.yul\":8492:8504   */\n      dup3\n        /* \"#utility.yul\":8458:8521   */\n      tag_182\n      jump\t// in\n    tag_324:\n        /* \"#utility.yul\":8364:8531   */\n      pop\n        /* \"#utility.yul\":8617:8621   */\n      0xa0\n        /* \"#utility.yul\":8610:8615   */\n      dup4\n        /* \"#utility.yul\":8606:8622   */\n      add\n        /* \"#utility.yul\":8600:8623   */\n      mload\n        /* \"#utility.yul\":8636:8699   */\n      tag_325\n        /* \"#utility.yul\":8693:8697   */\n      0xa0\n        /* \"#utility.yul\":8688:8691   */\n      dup7\n        /* \"#utility.yul\":8684:8698   */\n      add\n        /* \"#utility.yul\":8670:8682   */\n      dup3\n        /* \"#utility.yul\":8636:8699   */\n      tag_182\n      jump\t// in\n    tag_325:\n        /* \"#utility.yul\":8541:8709   */\n      pop\n        /* \"#utility.yul\":8794:8798   */\n      0xc0\n        /* \"#utility.yul\":8787:8792   */\n      dup4\n        /* \"#utility.yul\":8783:8799   */\n      add\n        /* \"#utility.yul\":8777:8800   */\n      mload\n        /* \"#utility.yul\":8813:8874   */\n      tag_326\n        /* \"#utility.yul\":8868:8872   */\n      0xc0\n        /* \"#utility.yul\":8863:8866   */\n      dup7\n        /* \"#utility.yul\":8859:8873   */\n      add\n        /* \"#utility.yul\":8845:8857   */\n      dup3\n        /* \"#utility.yul\":8813:8874   */\n      tag_184\n      jump\t// in\n    tag_326:\n        /* \"#utility.yul\":8719:8884   */\n      pop\n        /* \"#utility.yul\":8975:8979   */\n      0xe0\n        /* \"#utility.yul\":8968:8973   */\n      dup4\n        /* \"#utility.yul\":8964:8980   */\n      add\n        /* \"#utility.yul\":8958:8981   */\n      mload\n        /* \"#utility.yul\":8994:9055   */\n      tag_327\n        /* \"#utility.yul\":9049:9053   */\n      0xe0\n        /* \"#utility.yul\":9044:9047   */\n      dup7\n        /* \"#utility.yul\":9040:9054   */\n      add\n        /* \"#utility.yul\":9026:9038   */\n      dup3\n        /* \"#utility.yul\":8994:9055   */\n      tag_184\n      jump\t// in\n    tag_327:\n        /* \"#utility.yul\":8894:9065   */\n      pop\n        /* \"#utility.yul\":9082:9086   */\n      dup1\n        /* \"#utility.yul\":9075:9086   */\n      swap2\n      pop\n        /* \"#utility.yul\":7251:9092   */\n      pop\n        /* \"#utility.yul\":7109:9092   */\n      swap3\n      swap2\n      pop\n      pop\n      jump\t// out\n        /* \"#utility.yul\":9098:9507   */\n    tag_22:\n        /* \"#utility.yul\":9259:9263   */\n      0x00\n        /* \"#utility.yul\":9297:9299   */\n      0x20\n        /* \"#utility.yul\":9286:9295   */\n      dup3\n        /* \"#utility.yul\":9282:9300   */\n      add\n        /* \"#utility.yul\":9274:9300   */\n      swap1\n      pop\n        /* \"#utility.yul\":9346:9355   */\n      dup2\n        /* \"#utility.yul\":9340:9344   */\n      dup2\n        /* \"#utility.yul\":9336:9356   */\n      sub\n        /* \"#utility.yul\":9332:9333   */\n      0x00\n        /* \"#utility.yul\":9321:9330   */\n      dup4\n        /* \"#utility.yul\":9317:9334   */\n      add\n        /* \"#utility.yul\":9310:9357   */\n      mstore\n        /* \"#utility.yul\":9374:9500   */\n      tag_329\n        /* \"#utility.yul\":9495:9499   */\n      dup2\n        /* \"#utility.yul\":9486:9492   */\n      dup5\n        /* \"#utility.yul\":9374:9500   */\n      tag_185\n      jump\t// in\n    tag_329:\n        /* \"#utility.yul\":9366:9500   */\n      swap1\n      pop\n        /* \"#utility.yul\":9098:9507   */\n      swap3\n      swap2\n      pop\n      pop\n      jump\t// out\n        /* \"#utility.yul\":9513:9630   */\n    tag_186:\n        /* \"#utility.yul\":9622:9623   */\n      0x00\n        /* \"#utility.yul\":9619:9620   */\n      dup1\n        /* \"#utility.yul\":9612:9624   */\n      revert\n        /* \"#utility.yul\":9636:9816   */\n    tag_105:\n        /* \"#utility.yul\":9684:9761   */\n      0x4e487b7100000000000000000000000000000000000000000000000000000000\n        /* \"#utility.yul\":9681:9682   */\n      0x00\n        /* \"#utility.yul\":9674:9762   */\n      mstore\n        /* \"#utility.yul\":9781:9785   */\n      0x41\n        /* \"#utility.yul\":9778:9779   */\n      0x04\n        /* \"#utility.yul\":9771:9786   */\n      mstore\n        /* \"#utility.yul\":9805:9809   */\n      0x24\n        /* \"#utility.yul\":9802:9803   */\n      0x00\n        /* \"#utility.yul\":9795:9810   */\n      revert\n        /* \"#utility.yul\":9822:10103   */\n    tag_187:\n        /* \"#utility.yul\":9905:9932   */\n      tag_333\n        /* \"#utility.yul\":9927:9931   */\n      dup3\n        /* \"#utility.yul\":9905:9932   */\n      tag_179\n      jump\t// in\n    tag_333:\n        /* \"#utility.yul\":9897:9903   */\n      dup2\n        /* \"#utility.yul\":9893:9933   */\n      add\n        /* \"#utility.yul\":10035:10041   */\n      dup2\n        /* \"#utility.yul\":10023:10033   */\n      dup2\n        /* \"#utility.yul\":10020:10042   */\n      lt\n        /* \"#utility.yul\":9999:10017   */\n      0xffffffffffffffff\n        /* \"#utility.yul\":9987:9997   */\n      dup3\n        /* \"#utility.yul\":9984:10018   */\n      gt\n        /* \"#utility.yul\":9981:10043   */\n      or\n        /* \"#utility.yul\":9978:10066   */\n      iszero\n      tag_334\n      jumpi\n        /* \"#utility.yul\":10046:10064   */\n      tag_335\n      tag_105\n      jump\t// in\n    tag_335:\n        /* \"#utility.yul\":9978:10066   */\n    tag_334:\n        /* \"#utility.yul\":10086:10096   */\n      dup1\n        /* \"#utility.yul\":10082:10084   */\n      0x40\n        /* \"#utility.yul\":10075:10097   */\n      mstore\n        /* \"#utility.yul\":9865:10103   */\n      pop\n        /* \"#utility.yul\":9822:10103   */\n      pop\n      pop\n      jump\t// out\n        /* \"#utility.yul\":10109:10238   */\n    tag_188:\n        /* \"#utility.yul\":10143:10149   */\n      0x00\n        /* \"#utility.yul\":10170:10190   */\n      tag_337\n      tag_151\n      jump\t// in\n    tag_337:\n        /* \"#utility.yul\":10160:10190   */\n      swap1\n      pop\n        /* \"#utility.yul\":10199:10232   */\n      tag_338\n        /* \"#utility.yul\":10227:10231   */\n      dup3\n        /* \"#utility.yul\":10219:10225   */\n      dup3\n        /* \"#utility.yul\":10199:10232   */\n      tag_187\n      jump\t// in\n    tag_338:\n        /* \"#utility.yul\":10109:10238   */\n      swap2\n      swap1\n      pop\n      jump\t// out\n        /* \"#utility.yul\":10244:10555   */\n    tag_189:\n        /* \"#utility.yul\":10321:10325   */\n      0x00\n        /* \"#utility.yul\":10411:10429   */\n      0xffffffffffffffff\n        /* \"#utility.yul\":10403:10409   */\n      dup3\n        /* \"#utility.yul\":10400:10430   */\n      gt\n        /* \"#utility.yul\":10397:10453   */\n      iszero\n      tag_340\n      jumpi\n        /* \"#utility.yul\":10433:10451   */\n      tag_341\n      tag_105\n      jump\t// in\n    tag_341:\n        /* \"#utility.yul\":10397:10453   */\n    tag_340:\n        /* \"#utility.yul\":10483:10487   */\n      0x20\n        /* \"#utility.yul\":10475:10481   */\n      dup3\n        /* \"#utility.yul\":10471:10488   */\n      mul\n        /* \"#utility.yul\":10463:10488   */\n      swap1\n      pop\n        /* \"#utility.yul\":10543:10547   */\n      0x20\n        /* \"#utility.yul\":10537:10541   */\n      dup2\n        /* \"#utility.yul\":10533:10548   */\n      add\n        /* \"#utility.yul\":10525:10548   */\n      swap1\n      pop\n        /* \"#utility.yul\":10244:10555   */\n      swap2\n      swap1\n      pop\n      jump\t// out\n        /* \"#utility.yul\":10561:10678   */\n    tag_190:\n        /* \"#utility.yul\":10670:10671   */\n      0x00\n        /* \"#utility.yul\":10667:10668   */\n      dup1\n        /* \"#utility.yul\":10660:10672   */\n      revert\n        /* \"#utility.yul\":10701:11411   */\n    tag_191:\n        /* \"#utility.yul\":10797:10802   */\n      0x00\n        /* \"#utility.yul\":10822:10903   */\n      tag_344\n        /* \"#utility.yul\":10838:10902   */\n      tag_345\n        /* \"#utility.yul\":10895:10901   */\n      dup5\n        /* \"#utility.yul\":10838:10902   */\n      tag_189\n      jump\t// in\n    tag_345:\n        /* \"#utility.yul\":10822:10903   */\n      tag_188\n      jump\t// in\n    tag_344:\n        /* \"#utility.yul\":10813:10903   */\n      swap1\n      pop\n        /* \"#utility.yul\":10923:10928   */\n      dup1\n        /* \"#utility.yul\":10952:10958   */\n      dup4\n        /* \"#utility.yul\":10945:10950   */\n      dup3\n        /* \"#utility.yul\":10938:10959   */\n      mstore\n        /* \"#utility.yul\":10986:10990   */\n      0x20\n        /* \"#utility.yul\":10979:10984   */\n      dup3\n        /* \"#utility.yul\":10975:10991   */\n      add\n        /* \"#utility.yul\":10968:10991   */\n      swap1\n      pop\n        /* \"#utility.yul\":11039:11043   */\n      0x20\n        /* \"#utility.yul\":11031:11037   */\n      dup5\n        /* \"#utility.yul\":11027:11044   */\n      mul\n        /* \"#utility.yul\":11019:11025   */\n      dup4\n        /* \"#utility.yul\":11015:11045   */\n      add\n        /* \"#utility.yul\":11068:11071   */\n      dup6\n        /* \"#utility.yul\":11060:11066   */\n      dup2\n        /* \"#utility.yul\":11057:11072   */\n      gt\n        /* \"#utility.yul\":11054:11176   */\n      iszero\n      tag_346\n      jumpi\n        /* \"#utility.yul\":11087:11166   */\n      tag_347\n      tag_190\n      jump\t// in\n    tag_347:\n        /* \"#utility.yul\":11054:11176   */\n    tag_346:\n        /* \"#utility.yul\":11202:11208   */\n      dup4\n        /* \"#utility.yul\":11185:11405   */\n    tag_348:\n        /* \"#utility.yul\":11219:11225   */\n      dup2\n        /* \"#utility.yul\":11214:11217   */\n      dup2\n        /* \"#utility.yul\":11211:11226   */\n      lt\n        /* \"#utility.yul\":11185:11405   */\n      iszero\n      tag_350\n      jumpi\n        /* \"#utility.yul\":11294:11297   */\n      dup1\n        /* \"#utility.yul\":11323:11360   */\n      tag_351\n        /* \"#utility.yul\":11356:11359   */\n      dup9\n        /* \"#utility.yul\":11344:11354   */\n      dup3\n        /* \"#utility.yul\":11323:11360   */\n      tag_157\n      jump\t// in\n    tag_351:\n        /* \"#utility.yul\":11318:11321   */\n      dup5\n        /* \"#utility.yul\":11311:11361   */\n      mstore\n        /* \"#utility.yul\":11390:11394   */\n      0x20\n        /* \"#utility.yul\":11385:11388   */\n      dup5\n        /* \"#utility.yul\":11381:11395   */\n      add\n        /* \"#utility.yul\":11374:11395   */\n      swap4\n      pop\n        /* \"#utility.yul\":11261:11405   */\n      pop\n        /* \"#utility.yul\":11245:11249   */\n      0x20\n        /* \"#utility.yul\":11240:11243   */\n      dup2\n        /* \"#utility.yul\":11236:11250   */\n      add\n        /* \"#utility.yul\":11229:11250   */\n      swap1\n      pop\n        /* \"#utility.yul\":11185:11405   */\n      jump(tag_348)\n    tag_350:\n        /* \"#utility.yul\":11189:11210   */\n      pop\n        /* \"#utility.yul\":10803:11411   */\n      pop\n      pop\n        /* \"#utility.yul\":10701:11411   */\n      swap4\n      swap3\n      pop\n      pop\n      pop\n      jump\t// out\n        /* \"#utility.yul\":11434:11804   */\n    tag_192:\n        /* \"#utility.yul\":11505:11510   */\n      0x00\n        /* \"#utility.yul\":11554:11557   */\n      dup3\n        /* \"#utility.yul\":11547:11551   */\n      0x1f\n        /* \"#utility.yul\":11539:11545   */\n      dup4\n        /* \"#utility.yul\":11535:11552   */\n      add\n        /* \"#utility.yul\":11531:11558   */\n      slt\n        /* \"#utility.yul\":11521:11643   */\n      tag_353\n      jumpi\n        /* \"#utility.yul\":11562:11641   */\n      tag_354\n      tag_186\n      jump\t// in\n    tag_354:\n        /* \"#utility.yul\":11521:11643   */\n    tag_353:\n        /* \"#utility.yul\":11679:11685   */\n      dup2\n        /* \"#utility.yul\":11666:11686   */\n      calldataload\n        /* \"#utility.yul\":11704:11798   */\n      tag_355\n        /* \"#utility.yul\":11794:11797   */\n      dup5\n        /* \"#utility.yul\":11786:11792   */\n      dup3\n        /* \"#utility.yul\":11779:11783   */\n      0x20\n        /* \"#utility.yul\":11771:11777   */\n      dup7\n        /* \"#utility.yul\":11767:11784   */\n      add\n        /* \"#utility.yul\":11704:11798   */\n      tag_191\n      jump\t// in\n    tag_355:\n        /* \"#utility.yul\":11695:11798   */\n      swap2\n      pop\n        /* \"#utility.yul\":11511:11804   */\n      pop\n        /* \"#utility.yul\":11434:11804   */\n      swap3\n      swap2\n      pop\n      pop\n      jump\t// out\n        /* \"#utility.yul\":11810:12121   */\n    tag_193:\n        /* \"#utility.yul\":11887:11891   */\n      0x00\n        /* \"#utility.yul\":11977:11995   */\n      0xffffffffffffffff\n        /* \"#utility.yul\":11969:11975   */\n      dup3\n        /* \"#utility.yul\":11966:11996   */\n      gt\n        /* \"#utility.yul\":11963:12019   */\n      iszero\n      tag_357\n      jumpi\n        /* \"#utility.yul\":11999:12017   */\n      tag_358\n      tag_105\n      jump\t// in\n    tag_358:\n        /* \"#utility.yul\":11963:12019   */\n    tag_357:\n        /* \"#utility.yul\":12049:12053   */\n      0x20\n        /* \"#utility.yul\":12041:12047   */\n      dup3\n        /* \"#utility.yul\":12037:12054   */\n      mul\n        /* \"#utility.yul\":12029:12054   */\n      swap1\n      pop\n        /* \"#utility.yul\":12109:12113   */\n      0x20\n        /* \"#utility.yul\":12103:12107   */\n      dup2\n        /* \"#utility.yul\":12099:12114   */\n      add\n        /* \"#utility.yul\":12091:12114   */\n      swap1\n      pop\n        /* \"#utility.yul\":11810:12121   */\n      swap2\n      swap1\n      pop\n      jump\t// out\n        /* \"#utility.yul\":12144:12854   */\n    tag_194:\n        /* \"#utility.yul\":12240:12245   */\n      0x00\n        /* \"#utility.yul\":12265:12346   */\n      tag_360\n        /* \"#utility.yul\":12281:12345   */\n      tag_361\n        /* \"#utility.yul\":12338:12344   */\n      dup5\n        /* \"#utility.yul\":12281:12345   */\n      tag_193\n      jump\t// in\n    tag_361:\n        /* \"#utility.yul\":12265:12346   */\n      tag_188\n      jump\t// in\n    tag_360:\n        /* \"#utility.yul\":12256:12346   */\n      swap1\n      pop\n        /* \"#utility.yul\":12366:12371   */\n      dup1\n        /* \"#utility.yul\":12395:12401   */\n      dup4\n        /* \"#utility.yul\":12388:12393   */\n      dup3\n        /* \"#utility.yul\":12381:12402   */\n      mstore\n        /* \"#utility.yul\":12429:12433   */\n      0x20\n        /* \"#utility.yul\":12422:12427   */\n      dup3\n        /* \"#utility.yul\":12418:12434   */\n      add\n        /* \"#utility.yul\":12411:12434   */\n      swap1\n      pop\n        /* \"#utility.yul\":12482:12486   */\n      0x20\n        /* \"#utility.yul\":12474:12480   */\n      dup5\n        /* \"#utility.yul\":12470:12487   */\n      mul\n        /* \"#utility.yul\":12462:12468   */\n      dup4\n        /* \"#utility.yul\":12458:12488   */\n      add\n        /* \"#utility.yul\":12511:12514   */\n      dup6\n        /* \"#utility.yul\":12503:12509   */\n      dup2\n        /* \"#utility.yul\":12500:12515   */\n      gt\n        /* \"#utility.yul\":12497:12619   */\n      iszero\n      tag_362\n      jumpi\n        /* \"#utility.yul\":12530:12609   */\n      tag_363\n      tag_190\n      jump\t// in\n    tag_363:\n        /* \"#utility.yul\":12497:12619   */\n    tag_362:\n        /* \"#utility.yul\":12645:12651   */\n      dup4\n        /* \"#utility.yul\":12628:12848   */\n    tag_364:\n        /* \"#utility.yul\":12662:12668   */\n      dup2\n        /* \"#utility.yul\":12657:12660   */\n      dup2\n        /* \"#utility.yul\":12654:12669   */\n      lt\n        /* \"#utility.yul\":12628:12848   */\n      iszero\n      tag_366\n      jumpi\n        /* \"#utility.yul\":12737:12740   */\n      dup1\n        /* \"#utility.yul\":12766:12803   */\n      tag_367\n        /* \"#utility.yul\":12799:12802   */\n      dup9\n        /* \"#utility.yul\":12787:12797   */\n      dup3\n        /* \"#utility.yul\":12766:12803   */\n      tag_160\n      jump\t// in\n    tag_367:\n        /* \"#utility.yul\":12761:12764   */\n      dup5\n        /* \"#utility.yul\":12754:12804   */\n      mstore\n        /* \"#utility.yul\":12833:12837   */\n      0x20\n        /* \"#utility.yul\":12828:12831   */\n      dup5\n        /* \"#utility.yul\":12824:12838   */\n      add\n        /* \"#utility.yul\":12817:12838   */\n      swap4\n      pop\n        /* \"#utility.yul\":12704:12848   */\n      pop\n        /* \"#utility.yul\":12688:12692   */\n      0x20\n        /* \"#utility.yul\":12683:12686   */\n      dup2\n        /* \"#utility.yul\":12679:12693   */\n      add\n        /* \"#utility.yul\":12672:12693   */\n      swap1\n      pop\n        /* \"#utility.yul\":12628:12848   */\n      jump(tag_364)\n    tag_366:\n        /* \"#utility.yul\":12632:12653   */\n      pop\n        /* \"#utility.yul\":12246:12854   */\n      pop\n      pop\n        /* \"#utility.yul\":12144:12854   */\n      swap4\n      swap3\n      pop\n      pop\n      pop\n      jump\t// out\n        /* \"#utility.yul\":12877:13247   */\n    tag_195:\n        /* \"#utility.yul\":12948:12953   */\n      0x00\n        /* \"#utility.yul\":12997:13000   */\n      dup3\n        /* \"#utility.yul\":12990:12994   */\n      0x1f\n        /* \"#utility.yul\":12982:12988   */\n      dup4\n        /* \"#utility.yul\":12978:12995   */\n      add\n        /* \"#utility.yul\":12974:13001   */\n      slt\n        /* \"#utility.yul\":12964:13086   */\n      tag_369\n      jumpi\n        /* \"#utility.yul\":13005:13084   */\n      tag_370\n      tag_186\n      jump\t// in\n    tag_370:\n        /* \"#utility.yul\":12964:13086   */\n    tag_369:\n        /* \"#utility.yul\":13122:13128   */\n      dup2\n        /* \"#utility.yul\":13109:13129   */\n      calldataload\n        /* \"#utility.yul\":13147:13241   */\n      tag_371\n        /* \"#utility.yul\":13237:13240   */\n      dup5\n        /* \"#utility.yul\":13229:13235   */\n      dup3\n        /* \"#utility.yul\":13222:13226   */\n      0x20\n        /* \"#utility.yul\":13214:13220   */\n      dup7\n        /* \"#utility.yul\":13210:13227   */\n      add\n        /* \"#utility.yul\":13147:13241   */\n      tag_194\n      jump\t// in\n    tag_371:\n        /* \"#utility.yul\":13138:13241   */\n      swap2\n      pop\n        /* \"#utility.yul\":12954:13247   */\n      pop\n        /* \"#utility.yul\":12877:13247   */\n      swap3\n      swap2\n      pop\n      pop\n      jump\t// out\n        /* \"#utility.yul\":13253:13370   */\n    tag_196:\n        /* \"#utility.yul\":13362:13363   */\n      0x00\n        /* \"#utility.yul\":13359:13360   */\n      dup1\n        /* \"#utility.yul\":13352:13364   */\n      revert\n        /* \"#utility.yul\":13389:13941   */\n    tag_197:\n        /* \"#utility.yul\":13446:13454   */\n      0x00\n        /* \"#utility.yul\":13456:13462   */\n      dup1\n        /* \"#utility.yul\":13506:13509   */\n      dup4\n        /* \"#utility.yul\":13499:13503   */\n      0x1f\n        /* \"#utility.yul\":13491:13497   */\n      dup5\n        /* \"#utility.yul\":13487:13504   */\n      add\n        /* \"#utility.yul\":13483:13510   */\n      slt\n        /* \"#utility.yul\":13473:13595   */\n      tag_374\n      jumpi\n        /* \"#utility.yul\":13514:13593   */\n      tag_375\n      tag_186\n      jump\t// in\n    tag_375:\n        /* \"#utility.yul\":13473:13595   */\n    tag_374:\n        /* \"#utility.yul\":13627:13633   */\n      dup3\n        /* \"#utility.yul\":13614:13634   */\n      calldataload\n        /* \"#utility.yul\":13604:13634   */\n      swap1\n      pop\n        /* \"#utility.yul\":13657:13675   */\n      0xffffffffffffffff\n        /* \"#utility.yul\":13649:13655   */\n      dup2\n        /* \"#utility.yul\":13646:13676   */\n      gt\n        /* \"#utility.yul\":13643:13760   */\n      iszero\n      tag_376\n      jumpi\n        /* \"#utility.yul\":13679:13758   */\n      tag_377\n      tag_196\n      jump\t// in\n    tag_377:\n        /* \"#utility.yul\":13643:13760   */\n    tag_376:\n        /* \"#utility.yul\":13793:13797   */\n      0x20\n        /* \"#utility.yul\":13785:13791   */\n      dup4\n        /* \"#utility.yul\":13781:13798   */\n      add\n        /* \"#utility.yul\":13769:13798   */\n      swap2\n      pop\n        /* \"#utility.yul\":13847:13850   */\n      dup4\n        /* \"#utility.yul\":13839:13843   */\n      0x01\n        /* \"#utility.yul\":13831:13837   */\n      dup3\n        /* \"#utility.yul\":13827:13844   */\n      mul\n        /* \"#utility.yul\":13817:13825   */\n      dup4\n        /* \"#utility.yul\":13813:13845   */\n      add\n        /* \"#utility.yul\":13810:13851   */\n      gt\n        /* \"#utility.yul\":13807:13935   */\n      iszero\n      tag_378\n      jumpi\n        /* \"#utility.yul\":13854:13933   */\n      tag_379\n      tag_190\n      jump\t// in\n    tag_379:\n        /* \"#utility.yul\":13807:13935   */\n    tag_378:\n        /* \"#utility.yul\":13389:13941   */\n      swap3\n      pop\n      swap3\n      swap1\n      pop\n      jump\t// out\n        /* \"#utility.yul\":13947:14069   */\n    tag_198:\n        /* \"#utility.yul\":14020:14044   */\n      tag_381\n        /* \"#utility.yul\":14038:14043   */\n      dup2\n        /* \"#utility.yul\":14020:14044   */\n      tag_181\n      jump\t// in\n    tag_381:\n        /* \"#utility.yul\":14013:14018   */\n      dup2\n        /* \"#utility.yul\":14010:14045   */\n      eq\n        /* \"#utility.yul\":14000:14063   */\n      tag_382\n      jumpi\n        /* \"#utility.yul\":14059:14060   */\n      0x00\n        /* \"#utility.yul\":14056:14057   */\n      dup1\n        /* \"#utility.yul\":14049:14061   */\n      revert\n        /* \"#utility.yul\":14000:14063   */\n    tag_382:\n        /* \"#utility.yul\":13947:14069   */\n      pop\n      jump\t// out\n        /* \"#utility.yul\":14075:14214   */\n    tag_199:\n        /* \"#utility.yul\":14121:14126   */\n      0x00\n        /* \"#utility.yul\":14159:14165   */\n      dup2\n        /* \"#utility.yul\":14146:14166   */\n      calldataload\n        /* \"#utility.yul\":14137:14166   */\n      swap1\n      pop\n        /* \"#utility.yul\":14175:14208   */\n      tag_384\n        /* \"#utility.yul\":14202:14207   */\n      dup2\n        /* \"#utility.yul\":14175:14208   */\n      tag_198\n      jump\t// in\n    tag_384:\n        /* \"#utility.yul\":14075:14214   */\n      swap3\n      swap2\n      pop\n      pop\n      jump\t// out\n        /* \"#utility.yul\":14220:14340   */\n    tag_200:\n        /* \"#utility.yul\":14292:14315   */\n      tag_386\n        /* \"#utility.yul\":14309:14314   */\n      dup2\n        /* \"#utility.yul\":14292:14315   */\n      tag_183\n      jump\t// in\n    tag_386:\n        /* \"#utility.yul\":14285:14290   */\n      dup2\n        /* \"#utility.yul\":14282:14316   */\n      eq\n        /* \"#utility.yul\":14272:14334   */\n      tag_387\n      jumpi\n        /* \"#utility.yul\":14330:14331   */\n      0x00\n        /* \"#utility.yul\":14327:14328   */\n      dup1\n        /* \"#utility.yul\":14320:14332   */\n      revert\n        /* \"#utility.yul\":14272:14334   */\n    tag_387:\n        /* \"#utility.yul\":14220:14340   */\n      pop\n      jump\t// out\n        /* \"#utility.yul\":14346:14483   */\n    tag_201:\n        /* \"#utility.yul\":14391:14396   */\n      0x00\n        /* \"#utility.yul\":14429:14435   */\n      dup2\n        /* \"#utility.yul\":14416:14436   */\n      calldataload\n        /* \"#utility.yul\":14407:14436   */\n      swap1\n      pop\n        /* \"#utility.yul\":14445:14477   */\n      tag_389\n        /* \"#utility.yul\":14471:14476   */\n      dup2\n        /* \"#utility.yul\":14445:14477   */\n      tag_200\n      jump\t// in\n    tag_389:\n        /* \"#utility.yul\":14346:14483   */\n      swap3\n      swap2\n      pop\n      pop\n      jump\t// out\n        /* \"#utility.yul\":14489:16650   */\n    tag_25:\n        /* \"#utility.yul\":14681:14687   */\n      0x00\n        /* \"#utility.yul\":14689:14695   */\n      dup1\n        /* \"#utility.yul\":14697:14703   */\n      0x00\n        /* \"#utility.yul\":14705:14711   */\n      dup1\n        /* \"#utility.yul\":14713:14719   */\n      0x00\n        /* \"#utility.yul\":14721:14727   */\n      dup1\n        /* \"#utility.yul\":14729:14735   */\n      0x00\n        /* \"#utility.yul\":14737:14743   */\n      dup1\n        /* \"#utility.yul\":14745:14751   */\n      0x00\n        /* \"#utility.yul\":14753:14759   */\n      dup1\n        /* \"#utility.yul\":14802:14805   */\n      0x0100\n        /* \"#utility.yul\":14790:14799   */\n      dup12\n        /* \"#utility.yul\":14781:14788   */\n      dup14\n        /* \"#utility.yul\":14777:14800   */\n      sub\n        /* \"#utility.yul\":14773:14806   */\n      slt\n        /* \"#utility.yul\":14770:14890   */\n      iszero\n      tag_391\n      jumpi\n        /* \"#utility.yul\":14809:14888   */\n      tag_392\n      tag_152\n      jump\t// in\n    tag_392:\n        /* \"#utility.yul\":14770:14890   */\n    tag_391:\n        /* \"#utility.yul\":14957:14958   */\n      0x00\n        /* \"#utility.yul\":14946:14955   */\n      dup12\n        /* \"#utility.yul\":14942:14959   */\n      add\n        /* \"#utility.yul\":14929:14960   */\n      calldataload\n        /* \"#utility.yul\":14987:15005   */\n      0xffffffffffffffff\n        /* \"#utility.yul\":14979:14985   */\n      dup2\n        /* \"#utility.yul\":14976:15006   */\n      gt\n        /* \"#utility.yul\":14973:15090   */\n      iszero\n      tag_393\n      jumpi\n        /* \"#utility.yul\":15009:15088   */\n      tag_394\n      tag_153\n      jump\t// in\n    tag_394:\n        /* \"#utility.yul\":14973:15090   */\n    tag_393:\n        /* \"#utility.yul\":15114:15192   */\n      tag_395\n        /* \"#utility.yul\":15184:15191   */\n      dup14\n        /* \"#utility.yul\":15175:15181   */\n      dup3\n        /* \"#utility.yul\":15164:15173   */\n      dup15\n        /* \"#utility.yul\":15160:15182   */\n      add\n        /* \"#utility.yul\":15114:15192   */\n      tag_192\n      jump\t// in\n    tag_395:\n        /* \"#utility.yul\":15104:15192   */\n      swap11\n      pop\n        /* \"#utility.yul\":14900:15202   */\n      pop\n        /* \"#utility.yul\":15269:15271   */\n      0x20\n        /* \"#utility.yul\":15258:15267   */\n      dup12\n        /* \"#utility.yul\":15254:15272   */\n      add\n        /* \"#utility.yul\":15241:15273   */\n      calldataload\n        /* \"#utility.yul\":15300:15318   */\n      0xffffffffffffffff\n        /* \"#utility.yul\":15292:15298   */\n      dup2\n        /* \"#utility.yul\":15289:15319   */\n      gt\n        /* \"#utility.yul\":15286:15403   */\n      iszero\n      tag_396\n      jumpi\n        /* \"#utility.yul\":15322:15401   */\n      tag_397\n      tag_153\n      jump\t// in\n    tag_397:\n        /* \"#utility.yul\":15286:15403   */\n    tag_396:\n        /* \"#utility.yul\":15427:15505   */\n      tag_398\n        /* \"#utility.yul\":15497:15504   */\n      dup14\n        /* \"#utility.yul\":15488:15494   */\n      dup3\n        /* \"#utility.yul\":15477:15486   */\n      dup15\n        /* \"#utility.yul\":15473:15495   */\n      add\n        /* \"#utility.yul\":15427:15505   */\n      tag_195\n      jump\t// in\n    tag_398:\n        /* \"#utility.yul\":15417:15505   */\n      swap10\n      pop\n        /* \"#utility.yul\":15212:15515   */\n      pop\n        /* \"#utility.yul\":15582:15584   */\n      0x40\n        /* \"#utility.yul\":15571:15580   */\n      dup12\n        /* \"#utility.yul\":15567:15585   */\n      add\n        /* \"#utility.yul\":15554:15586   */\n      calldataload\n        /* \"#utility.yul\":15613:15631   */\n      0xffffffffffffffff\n        /* \"#utility.yul\":15605:15611   */\n      dup2\n        /* \"#utility.yul\":15602:15632   */\n      gt\n        /* \"#utility.yul\":15599:15716   */\n      iszero\n      tag_399\n      jumpi\n        /* \"#utility.yul\":15635:15714   */\n      tag_400\n      tag_153\n      jump\t// in\n    tag_400:\n        /* \"#utility.yul\":15599:15716   */\n    tag_399:\n        /* \"#utility.yul\":15748:15812   */\n      tag_401\n        /* \"#utility.yul\":15804:15811   */\n      dup14\n        /* \"#utility.yul\":15795:15801   */\n      dup3\n        /* \"#utility.yul\":15784:15793   */\n      dup15\n        /* \"#utility.yul\":15780:15802   */\n      add\n        /* \"#utility.yul\":15748:15812   */\n      tag_197\n      jump\t// in\n    tag_401:\n        /* \"#utility.yul\":15730:15812   */\n      swap9\n      pop\n      swap9\n      pop\n        /* \"#utility.yul\":15525:15822   */\n      pop\n        /* \"#utility.yul\":15889:15891   */\n      0x60\n        /* \"#utility.yul\":15878:15887   */\n      dup12\n        /* \"#utility.yul\":15874:15892   */\n      add\n        /* \"#utility.yul\":15861:15893   */\n      calldataload\n        /* \"#utility.yul\":15920:15938   */\n      0xffffffffffffffff\n        /* \"#utility.yul\":15912:15918   */\n      dup2\n        /* \"#utility.yul\":15909:15939   */\n      gt\n        /* \"#utility.yul\":15906:16023   */\n      iszero\n      tag_402\n      jumpi\n        /* \"#utility.yul\":15942:16021   */\n      tag_403\n      tag_153\n      jump\t// in\n    tag_403:\n        /* \"#utility.yul\":15906:16023   */\n    tag_402:\n        /* \"#utility.yul\":16055:16119   */\n      tag_404\n        /* \"#utility.yul\":16111:16118   */\n      dup14\n        /* \"#utility.yul\":16102:16108   */\n      dup3\n        /* \"#utility.yul\":16091:16100   */\n      dup15\n        /* \"#utility.yul\":16087:16109   */\n      add\n        /* \"#utility.yul\":16055:16119   */\n      tag_197\n      jump\t// in\n    tag_404:\n        /* \"#utility.yul\":16037:16119   */\n      swap7\n      pop\n      swap7\n      pop\n        /* \"#utility.yul\":15832:16129   */\n      pop\n        /* \"#utility.yul\":16168:16171   */\n      0x80\n        /* \"#utility.yul\":16195:16248   */\n      tag_405\n        /* \"#utility.yul\":16240:16247   */\n      dup14\n        /* \"#utility.yul\":16231:16237   */\n      dup3\n        /* \"#utility.yul\":16220:16229   */\n      dup15\n        /* \"#utility.yul\":16216:16238   */\n      add\n        /* \"#utility.yul\":16195:16248   */\n      tag_199\n      jump\t// in\n    tag_405:\n        /* \"#utility.yul\":16185:16248   */\n      swap5\n      pop\n        /* \"#utility.yul\":16139:16258   */\n      pop\n        /* \"#utility.yul\":16297:16300   */\n      0xa0\n        /* \"#utility.yul\":16324:16377   */\n      tag_406\n        /* \"#utility.yul\":16369:16376   */\n      dup14\n        /* \"#utility.yul\":16360:16366   */\n      dup3\n        /* \"#utility.yul\":16349:16358   */\n      dup15\n        /* \"#utility.yul\":16345:16367   */\n      add\n        /* \"#utility.yul\":16324:16377   */\n      tag_199\n      jump\t// in\n    tag_406:\n        /* \"#utility.yul\":16314:16377   */\n      swap4\n      pop\n        /* \"#utility.yul\":16268:16387   */\n      pop\n        /* \"#utility.yul\":16426:16429   */\n      0xc0\n        /* \"#utility.yul\":16453:16505   */\n      tag_407\n        /* \"#utility.yul\":16497:16504   */\n      dup14\n        /* \"#utility.yul\":16488:16494   */\n      dup3\n        /* \"#utility.yul\":16477:16486   */\n      dup15\n        /* \"#utility.yul\":16473:16495   */\n      add\n        /* \"#utility.yul\":16453:16505   */\n      tag_201\n      jump\t// in\n    tag_407:\n        /* \"#utility.yul\":16443:16505   */\n      swap3\n      pop\n        /* \"#utility.yul\":16397:16515   */\n      pop\n        /* \"#utility.yul\":16554:16557   */\n      0xe0\n        /* \"#utility.yul\":16581:16633   */\n      tag_408\n        /* \"#utility.yul\":16625:16632   */\n      dup14\n        /* \"#utility.yul\":16616:16622   */\n      dup3\n        /* \"#utility.yul\":16605:16614   */\n      dup15\n        /* \"#utility.yul\":16601:16623   */\n      add\n        /* \"#utility.yul\":16581:16633   */\n      tag_201\n      jump\t// in\n    tag_408:\n        /* \"#utility.yul\":16571:16633   */\n      swap2\n      pop\n        /* \"#utility.yul\":16525:16643   */\n      pop\n        /* \"#utility.yul\":14489:16650   */\n      swap3\n      swap6\n      swap9\n      swap12\n      swap2\n      swap5\n      swap8\n      swap11\n      pop\n      swap3\n      swap6\n      swap9\n      pop\n      jump\t// out\n        /* \"#utility.yul\":16656:16840   */\n    tag_202:\n        /* \"#utility.yul\":16755:16766   */\n      0x00\n        /* \"#utility.yul\":16789:16795   */\n      dup3\n        /* \"#utility.yul\":16784:16787   */\n      dup3\n        /* \"#utility.yul\":16777:16796   */\n      mstore\n        /* \"#utility.yul\":16829:16833   */\n      0x20\n        /* \"#utility.yul\":16824:16827   */\n      dup3\n        /* \"#utility.yul\":16820:16834   */\n      add\n        /* \"#utility.yul\":16805:16834   */\n      swap1\n      pop\n        /* \"#utility.yul\":16656:16840   */\n      swap3\n      swap2\n      pop\n      pop\n      jump\t// out\n        /* \"#utility.yul\":16876:17608   */\n    tag_203:\n        /* \"#utility.yul\":16995:16998   */\n      0x00\n        /* \"#utility.yul\":17024:17078   */\n      tag_411\n        /* \"#utility.yul\":17072:17077   */\n      dup3\n        /* \"#utility.yul\":17024:17078   */\n      tag_169\n      jump\t// in\n    tag_411:\n        /* \"#utility.yul\":17094:17180   */\n      tag_412\n        /* \"#utility.yul\":17173:17179   */\n      dup2\n        /* \"#utility.yul\":17168:17171   */\n      dup6\n        /* \"#utility.yul\":17094:17180   */\n      tag_202\n      jump\t// in\n    tag_412:\n        /* \"#utility.yul\":17087:17180   */\n      swap4\n      pop\n        /* \"#utility.yul\":17204:17260   */\n      tag_413\n        /* \"#utility.yul\":17254:17259   */\n      dup4\n        /* \"#utility.yul\":17204:17260   */\n      tag_171\n      jump\t// in\n    tag_413:\n        /* \"#utility.yul\":17283:17290   */\n      dup1\n        /* \"#utility.yul\":17314:17315   */\n      0x00\n        /* \"#utility.yul\":17299:17583   */\n    tag_414:\n        /* \"#utility.yul\":17324:17330   */\n      dup4\n        /* \"#utility.yul\":17321:17322   */\n      dup2\n        /* \"#utility.yul\":17318:17331   */\n      lt\n        /* \"#utility.yul\":17299:17583   */\n      iszero\n      tag_416\n      jumpi\n        /* \"#utility.yul\":17400:17406   */\n      dup2\n        /* \"#utility.yul\":17394:17407   */\n      mload\n        /* \"#utility.yul\":17427:17490   */\n      tag_417\n        /* \"#utility.yul\":17486:17489   */\n      dup9\n        /* \"#utility.yul\":17471:17484   */\n      dup3\n        /* \"#utility.yul\":17427:17490   */\n      tag_173\n      jump\t// in\n    tag_417:\n        /* \"#utility.yul\":17420:17490   */\n      swap8\n      pop\n        /* \"#utility.yul\":17513:17573   */\n      tag_418\n        /* \"#utility.yul\":17566:17572   */\n      dup4\n        /* \"#utility.yul\":17513:17573   */\n      tag_174\n      jump\t// in\n    tag_418:\n        /* \"#utility.yul\":17503:17573   */\n      swap3\n      pop\n        /* \"#utility.yul\":17359:17583   */\n      pop\n        /* \"#utility.yul\":17346:17347   */\n      0x01\n        /* \"#utility.yul\":17343:17344   */\n      dup2\n        /* \"#utility.yul\":17339:17348   */\n      add\n        /* \"#utility.yul\":17334:17348   */\n      swap1\n      pop\n        /* \"#utility.yul\":17299:17583   */\n      jump(tag_414)\n    tag_416:\n        /* \"#utility.yul\":17303:17317   */\n      pop\n        /* \"#utility.yul\":17599:17602   */\n      dup6\n        /* \"#utility.yul\":17592:17602   */\n      swap4\n      pop\n        /* \"#utility.yul\":17000:17608   */\n      pop\n      pop\n      pop\n        /* \"#utility.yul\":16876:17608   */\n      swap3\n      swap2\n      pop\n      pop\n      jump\t// out\n        /* \"#utility.yul\":17614:17987   */\n    tag_30:\n        /* \"#utility.yul\":17757:17761   */\n      0x00\n        /* \"#utility.yul\":17795:17797   */\n      0x20\n        /* \"#utility.yul\":17784:17793   */\n      dup3\n        /* \"#utility.yul\":17780:17798   */\n      add\n        /* \"#utility.yul\":17772:17798   */\n      swap1\n      pop\n        /* \"#utility.yul\":17844:17853   */\n      dup2\n        /* \"#utility.yul\":17838:17842   */\n      dup2\n        /* \"#utility.yul\":17834:17854   */\n      sub\n        /* \"#utility.yul\":17830:17831   */\n      0x00\n        /* \"#utility.yul\":17819:17828   */\n      dup4\n        /* \"#utility.yul\":17815:17832   */\n      add\n        /* \"#utility.yul\":17808:17855   */\n      mstore\n        /* \"#utility.yul\":17872:17980   */\n      tag_420\n        /* \"#utility.yul\":17975:17979   */\n      dup2\n        /* \"#utility.yul\":17966:17972   */\n      dup5\n        /* \"#utility.yul\":17872:17980   */\n      tag_203\n      jump\t// in\n    tag_420:\n        /* \"#utility.yul\":17864:17980   */\n      swap1\n      pop\n        /* \"#utility.yul\":17614:17987   */\n      swap3\n      swap2\n      pop\n      pop\n      jump\t// out\n        /* \"#utility.yul\":17993:18161   */\n    tag_204:\n        /* \"#utility.yul\":18076:18087   */\n      0x00\n        /* \"#utility.yul\":18110:18116   */\n      dup3\n        /* \"#utility.yul\":18105:18108   */\n      dup3\n        /* \"#utility.yul\":18098:18117   */\n      mstore\n        /* \"#utility.yul\":18150:18154   */\n      0x20\n        /* \"#utility.yul\":18145:18148   */\n      dup3\n        /* \"#utility.yul\":18141:18155   */\n      add\n        /* \"#utility.yul\":18126:18155   */\n      swap1\n      pop\n        /* \"#utility.yul\":17993:18161   */\n      swap3\n      swap2\n      pop\n      pop\n      jump\t// out\n        /* \"#utility.yul\":18167:18540   */\n    tag_205:\n        /* \"#utility.yul\":18253:18256   */\n      0x00\n        /* \"#utility.yul\":18281:18319   */\n      tag_423\n        /* \"#utility.yul\":18313:18318   */\n      dup3\n        /* \"#utility.yul\":18281:18319   */\n      tag_176\n      jump\t// in\n    tag_423:\n        /* \"#utility.yul\":18335:18405   */\n      tag_424\n        /* \"#utility.yul\":18398:18404   */\n      dup2\n        /* \"#utility.yul\":18393:18396   */\n      dup6\n        /* \"#utility.yul\":18335:18405   */\n      tag_204\n      jump\t// in\n    tag_424:\n        /* \"#utility.yul\":18328:18405   */\n      swap4\n      pop\n        /* \"#utility.yul\":18414:18479   */\n      tag_425\n        /* \"#utility.yul\":18472:18478   */\n      dup2\n        /* \"#utility.yul\":18467:18470   */\n      dup6\n        /* \"#utility.yul\":18460:18464   */\n      0x20\n        /* \"#utility.yul\":18453:18458   */\n      dup7\n        /* \"#utility.yul\":18449:18465   */\n      add\n        /* \"#utility.yul\":18414:18479   */\n      tag_178\n      jump\t// in\n    tag_425:\n        /* \"#utility.yul\":18504:18533   */\n      tag_426\n        /* \"#utility.yul\":18526:18532   */\n      dup2\n        /* \"#utility.yul\":18504:18533   */\n      tag_179\n      jump\t// in\n    tag_426:\n        /* \"#utility.yul\":18499:18502   */\n      dup5\n        /* \"#utility.yul\":18495:18534   */\n      add\n        /* \"#utility.yul\":18488:18534   */\n      swap2\n      pop\n        /* \"#utility.yul\":18257:18540   */\n      pop\n        /* \"#utility.yul\":18167:18540   */\n      swap3\n      swap2\n      pop\n      pop\n      jump\t// out\n        /* \"#utility.yul\":18546:18664   */\n    tag_206:\n        /* \"#utility.yul\":18633:18657   */\n      tag_428\n        /* \"#utility.yul\":18651:18656   */\n      dup2\n        /* \"#utility.yul\":18633:18657   */\n      tag_181\n      jump\t// in\n    tag_428:\n        /* \"#utility.yul\":18628:18631   */\n      dup3\n        /* \"#utility.yul\":18621:18658   */\n      mstore\n        /* \"#utility.yul\":18546:18664   */\n      pop\n      pop\n      jump\t// out\n        /* \"#utility.yul\":18670:18785   */\n    tag_207:\n        /* \"#utility.yul\":18755:18778   */\n      tag_430\n        /* \"#utility.yul\":18772:18777   */\n      dup2\n        /* \"#utility.yul\":18755:18778   */\n      tag_183\n      jump\t// in\n    tag_430:\n        /* \"#utility.yul\":18750:18753   */\n      dup3\n        /* \"#utility.yul\":18743:18779   */\n      mstore\n        /* \"#utility.yul\":18670:18785   */\n      pop\n      pop\n      jump\t// out\n        /* \"#utility.yul\":18791:19732   */\n    tag_35:\n        /* \"#utility.yul\":19056:19060   */\n      0x00\n        /* \"#utility.yul\":19094:19097   */\n      0xc0\n        /* \"#utility.yul\":19083:19092   */\n      dup3\n        /* \"#utility.yul\":19079:19098   */\n      add\n        /* \"#utility.yul\":19071:19098   */\n      swap1\n      pop\n        /* \"#utility.yul\":19144:19153   */\n      dup2\n        /* \"#utility.yul\":19138:19142   */\n      dup2\n        /* \"#utility.yul\":19134:19154   */\n      sub\n        /* \"#utility.yul\":19130:19131   */\n      0x00\n        /* \"#utility.yul\":19119:19128   */\n      dup4\n        /* \"#utility.yul\":19115:19132   */\n      add\n        /* \"#utility.yul\":19108:19155   */\n      mstore\n        /* \"#utility.yul\":19172:19248   */\n      tag_432\n        /* \"#utility.yul\":19243:19247   */\n      dup2\n        /* \"#utility.yul\":19234:19240   */\n      dup10\n        /* \"#utility.yul\":19172:19248   */\n      tag_205\n      jump\t// in\n    tag_432:\n        /* \"#utility.yul\":19164:19248   */\n      swap1\n      pop\n        /* \"#utility.yul\":19295:19304   */\n      dup2\n        /* \"#utility.yul\":19289:19293   */\n      dup2\n        /* \"#utility.yul\":19285:19305   */\n      sub\n        /* \"#utility.yul\":19280:19282   */\n      0x20\n        /* \"#utility.yul\":19269:19278   */\n      dup4\n        /* \"#utility.yul\":19265:19283   */\n      add\n        /* \"#utility.yul\":19258:19306   */\n      mstore\n        /* \"#utility.yul\":19323:19399   */\n      tag_433\n        /* \"#utility.yul\":19394:19398   */\n      dup2\n        /* \"#utility.yul\":19385:19391   */\n      dup9\n        /* \"#utility.yul\":19323:19399   */\n      tag_205\n      jump\t// in\n    tag_433:\n        /* \"#utility.yul\":19315:19399   */\n      swap1\n      pop\n        /* \"#utility.yul\":19409:19481   */\n      tag_434\n        /* \"#utility.yul\":19477:19479   */\n      0x40\n        /* \"#utility.yul\":19466:19475   */\n      dup4\n        /* \"#utility.yul\":19462:19480   */\n      add\n        /* \"#utility.yul\":19453:19459   */\n      dup8\n        /* \"#utility.yul\":19409:19481   */\n      tag_206\n      jump\t// in\n    tag_434:\n        /* \"#utility.yul\":19491:19563   */\n      tag_435\n        /* \"#utility.yul\":19559:19561   */\n      0x60\n        /* \"#utility.yul\":19548:19557   */\n      dup4\n        /* \"#utility.yul\":19544:19562   */\n      add\n        /* \"#utility.yul\":19535:19541   */\n      dup7\n        /* \"#utility.yul\":19491:19563   */\n      tag_206\n      jump\t// in\n    tag_435:\n        /* \"#utility.yul\":19573:19644   */\n      tag_436\n        /* \"#utility.yul\":19639:19642   */\n      0x80\n        /* \"#utility.yul\":19628:19637   */\n      dup4\n        /* \"#utility.yul\":19624:19643   */\n      add\n        /* \"#utility.yul\":19615:19621   */\n      dup6\n        /* \"#utility.yul\":19573:19644   */\n      tag_207\n      jump\t// in\n    tag_436:\n        /* \"#utility.yul\":19654:19725   */\n      tag_437\n        /* \"#utility.yul\":19720:19723   */\n      0xa0\n        /* \"#utility.yul\":19709:19718   */\n      dup4\n        /* \"#utility.yul\":19705:19724   */\n      add\n        /* \"#utility.yul\":19696:19702   */\n      dup5\n        /* \"#utility.yul\":19654:19725   */\n      tag_207\n      jump\t// in\n    tag_437:\n        /* \"#utility.yul\":18791:19732   */\n      swap8\n      swap7\n      pop\n      pop\n      pop\n      pop\n      pop\n      pop\n      pop\n      jump\t// out\n        /* \"#utility.yul\":19738:20067   */\n    tag_41:\n        /* \"#utility.yul\":19797:19803   */\n      0x00\n        /* \"#utility.yul\":19846:19848   */\n      0x20\n        /* \"#utility.yul\":19834:19843   */\n      dup3\n        /* \"#utility.yul\":19825:19832   */\n      dup5\n        /* \"#utility.yul\":19821:19844   */\n      sub\n        /* \"#utility.yul\":19817:19849   */\n      slt\n        /* \"#utility.yul\":19814:19933   */\n      iszero\n      tag_439\n      jumpi\n        /* \"#utility.yul\":19852:19931   */\n      tag_440\n      tag_152\n      jump\t// in\n    tag_440:\n        /* \"#utility.yul\":19814:19933   */\n    tag_439:\n        /* \"#utility.yul\":19972:19973   */\n      0x00\n        /* \"#utility.yul\":19997:20050   */\n      tag_441\n        /* \"#utility.yul\":20042:20049   */\n      dup5\n        /* \"#utility.yul\":20033:20039   */\n      dup3\n        /* \"#utility.yul\":20022:20031   */\n      dup6\n        /* \"#utility.yul\":20018:20040   */\n      add\n        /* \"#utility.yul\":19997:20050   */\n      tag_157\n      jump\t// in\n    tag_441:\n        /* \"#utility.yul\":19987:20050   */\n      swap2\n      pop\n        /* \"#utility.yul\":19943:20060   */\n      pop\n        /* \"#utility.yul\":19738:20067   */\n      swap3\n      swap2\n      pop\n      pop\n      jump\t// out\n        /* \"#utility.yul\":20073:20221   */\n    tag_208:\n        /* \"#utility.yul\":20174:20180   */\n      0x00\n        /* \"#utility.yul\":20208:20213   */\n      dup2\n        /* \"#utility.yul\":20202:20214   */\n      mload\n        /* \"#utility.yul\":20192:20214   */\n      swap1\n      pop\n        /* \"#utility.yul\":20073:20221   */\n      swap2\n      swap1\n      pop\n      jump\t// out\n        /* \"#utility.yul\":20227:20445   */\n    tag_209:\n        /* \"#utility.yul\":20360:20371   */\n      0x00\n        /* \"#utility.yul\":20394:20400   */\n      dup3\n        /* \"#utility.yul\":20389:20392   */\n      dup3\n        /* \"#utility.yul\":20382:20401   */\n      mstore\n        /* \"#utility.yul\":20434:20438   */\n      0x20\n        /* \"#utility.yul\":20429:20432   */\n      dup3\n        /* \"#utility.yul\":20425:20439   */\n      add\n        /* \"#utility.yul\":20410:20439   */\n      swap1\n      pop\n        /* \"#utility.yul\":20227:20445   */\n      swap3\n      swap2\n      pop\n      pop\n      jump\t// out\n        /* \"#utility.yul\":20451:20617   */\n    tag_210:\n        /* \"#utility.yul\":20552:20556   */\n      0x00\n        /* \"#utility.yul\":20575:20578   */\n      dup2\n        /* \"#utility.yul\":20567:20578   */\n      swap1\n      pop\n        /* \"#utility.yul\":20605:20609   */\n      0x20\n        /* \"#utility.yul\":20600:20603   */\n      dup3\n        /* \"#utility.yul\":20596:20610   */\n      add\n        /* \"#utility.yul\":20588:20610   */\n      swap1\n      pop\n        /* \"#utility.yul\":20451:20617   */\n      swap2\n      swap1\n      pop\n      jump\t// out\n        /* \"#utility.yul\":20725:22698   */\n    tag_211:\n        /* \"#utility.yul\":20852:20855   */\n      0x00\n        /* \"#utility.yul\":20888:20894   */\n      0x0100\n        /* \"#utility.yul\":20883:20886   */\n      dup4\n        /* \"#utility.yul\":20879:20895   */\n      add\n        /* \"#utility.yul\":20992:20996   */\n      0x00\n        /* \"#utility.yul\":20985:20990   */\n      dup4\n        /* \"#utility.yul\":20981:20997   */\n      add\n        /* \"#utility.yul\":20975:20998   */\n      mload\n        /* \"#utility.yul\":21045:21048   */\n      dup5\n        /* \"#utility.yul\":21039:21043   */\n      dup3\n        /* \"#utility.yul\":21035:21049   */\n      sub\n        /* \"#utility.yul\":21028:21032   */\n      0x00\n        /* \"#utility.yul\":21023:21026   */\n      dup7\n        /* \"#utility.yul\":21019:21033   */\n      add\n        /* \"#utility.yul\":21012:21050   */\n      mstore\n        /* \"#utility.yul\":21071:21174   */\n      tag_446\n        /* \"#utility.yul\":21169:21173   */\n      dup3\n        /* \"#utility.yul\":21155:21167   */\n      dup3\n        /* \"#utility.yul\":21071:21174   */\n      tag_168\n      jump\t// in\n    tag_446:\n        /* \"#utility.yul\":21063:21174   */\n      swap2\n      pop\n        /* \"#utility.yul\":20905:21185   */\n      pop\n        /* \"#utility.yul\":21268:21272   */\n      0x20\n        /* \"#utility.yul\":21261:21266   */\n      dup4\n        /* \"#utility.yul\":21257:21273   */\n      add\n        /* \"#utility.yul\":21251:21274   */\n      mload\n        /* \"#utility.yul\":21321:21324   */\n      dup5\n        /* \"#utility.yul\":21315:21319   */\n      dup3\n        /* \"#utility.yul\":21311:21325   */\n      sub\n        /* \"#utility.yul\":21304:21308   */\n      0x20\n        /* \"#utility.yul\":21299:21302   */\n      dup7\n        /* \"#utility.yul\":21295:21309   */\n      add\n        /* \"#utility.yul\":21288:21326   */\n      mstore\n        /* \"#utility.yul\":21347:21450   */\n      tag_447\n        /* \"#utility.yul\":21445:21449   */\n      dup3\n        /* \"#utility.yul\":21431:21443   */\n      dup3\n        /* \"#utility.yul\":21347:21450   */\n      tag_175\n      jump\t// in\n    tag_447:\n        /* \"#utility.yul\":21339:21450   */\n      swap2\n      pop\n        /* \"#utility.yul\":21195:21461   */\n      pop\n        /* \"#utility.yul\":21546:21550   */\n      0x40\n        /* \"#utility.yul\":21539:21544   */\n      dup4\n        /* \"#utility.yul\":21535:21551   */\n      add\n        /* \"#utility.yul\":21529:21552   */\n      mload\n        /* \"#utility.yul\":21599:21602   */\n      dup5\n        /* \"#utility.yul\":21593:21597   */\n      dup3\n        /* \"#utility.yul\":21589:21603   */\n      sub\n        /* \"#utility.yul\":21582:21586   */\n      0x40\n        /* \"#utility.yul\":21577:21580   */\n      dup7\n        /* \"#utility.yul\":21573:21587   */\n      add\n        /* \"#utility.yul\":21566:21604   */\n      mstore\n        /* \"#utility.yul\":21625:21696   */\n      tag_448\n        /* \"#utility.yul\":21691:21695   */\n      dup3\n        /* \"#utility.yul\":21677:21689   */\n      dup3\n        /* \"#utility.yul\":21625:21696   */\n      tag_180\n      jump\t// in\n    tag_448:\n        /* \"#utility.yul\":21617:21696   */\n      swap2\n      pop\n        /* \"#utility.yul\":21471:21707   */\n      pop\n        /* \"#utility.yul\":21799:21803   */\n      0x60\n        /* \"#utility.yul\":21792:21797   */\n      dup4\n        /* \"#utility.yul\":21788:21804   */\n      add\n        /* \"#utility.yul\":21782:21805   */\n      mload\n        /* \"#utility.yul\":21852:21855   */\n      dup5\n        /* \"#utility.yul\":21846:21850   */\n      dup3\n        /* \"#utility.yul\":21842:21856   */\n      sub\n        /* \"#utility.yul\":21835:21839   */\n      0x60\n        /* \"#utility.yul\":21830:21833   */\n      dup7\n        /* \"#utility.yul\":21826:21840   */\n      add\n        /* \"#utility.yul\":21819:21857   */\n      mstore\n        /* \"#utility.yul\":21878:21949   */\n      tag_449\n        /* \"#utility.yul\":21944:21948   */\n      dup3\n        /* \"#utility.yul\":21930:21942   */\n      dup3\n        /* \"#utility.yul\":21878:21949   */\n      tag_180\n      jump\t// in\n    tag_449:\n        /* \"#utility.yul\":21870:21949   */\n      swap2\n      pop\n        /* \"#utility.yul\":21717:21960   */\n      pop\n        /* \"#utility.yul\":22045:22049   */\n      0x80\n        /* \"#utility.yul\":22038:22043   */\n      dup4\n        /* \"#utility.yul\":22034:22050   */\n      add\n        /* \"#utility.yul\":22028:22051   */\n      mload\n        /* \"#utility.yul\":22064:22127   */\n      tag_450\n        /* \"#utility.yul\":22121:22125   */\n      0x80\n        /* \"#utility.yul\":22116:22119   */\n      dup7\n        /* \"#utility.yul\":22112:22126   */\n      add\n        /* \"#utility.yul\":22098:22110   */\n      dup3\n        /* \"#utility.yul\":22064:22127   */\n      tag_182\n      jump\t// in\n    tag_450:\n        /* \"#utility.yul\":21970:22137   */\n      pop\n        /* \"#utility.yul\":22223:22227   */\n      0xa0\n        /* \"#utility.yul\":22216:22221   */\n      dup4\n        /* \"#utility.yul\":22212:22228   */\n      add\n        /* \"#utility.yul\":22206:22229   */\n      mload\n        /* \"#utility.yul\":22242:22305   */\n      tag_451\n        /* \"#utility.yul\":22299:22303   */\n      0xa0\n        /* \"#utility.yul\":22294:22297   */\n      dup7\n        /* \"#utility.yul\":22290:22304   */\n      add\n        /* \"#utility.yul\":22276:22288   */\n      dup3\n        /* \"#utility.yul\":22242:22305   */\n      tag_182\n      jump\t// in\n    tag_451:\n        /* \"#utility.yul\":22147:22315   */\n      pop\n        /* \"#utility.yul\":22400:22404   */\n      0xc0\n        /* \"#utility.yul\":22393:22398   */\n      dup4\n        /* \"#utility.yul\":22389:22405   */\n      add\n        /* \"#utility.yul\":22383:22406   */\n      mload\n        /* \"#utility.yul\":22419:22480   */\n      tag_452\n        /* \"#utility.yul\":22474:22478   */\n      0xc0\n        /* \"#utility.yul\":22469:22472   */\n      dup7\n        /* \"#utility.yul\":22465:22479   */\n      add\n        /* \"#utility.yul\":22451:22463   */\n      dup3\n        /* \"#utility.yul\":22419:22480   */\n      tag_184\n      jump\t// in\n    tag_452:\n        /* \"#utility.yul\":22325:22490   */\n      pop\n        /* \"#utility.yul\":22581:22585   */\n      0xe0\n        /* \"#utility.yul\":22574:22579   */\n      dup4\n        /* \"#utility.yul\":22570:22586   */\n      add\n        /* \"#utility.yul\":22564:22587   */\n      mload\n        /* \"#utility.yul\":22600:22661   */\n      tag_453\n        /* \"#utility.yul\":22655:22659   */\n      0xe0\n        /* \"#utility.yul\":22650:22653   */\n      dup7\n        /* \"#utility.yul\":22646:22660   */\n      add\n        /* \"#utility.yul\":22632:22644   */\n      dup3\n        /* \"#utility.yul\":22600:22661   */\n      tag_184\n      jump\t// in\n    tag_453:\n        /* \"#utility.yul\":22500:22671   */\n      pop\n        /* \"#utility.yul\":22688:22692   */\n      dup1\n        /* \"#utility.yul\":22681:22692   */\n      swap2\n      pop\n        /* \"#utility.yul\":20857:22698   */\n      pop\n        /* \"#utility.yul\":20725:22698   */\n      swap3\n      swap2\n      pop\n      pop\n      jump\t// out\n        /* \"#utility.yul\":22704:22996   */\n    tag_212:\n        /* \"#utility.yul\":22841:22851   */\n      0x00\n        /* \"#utility.yul\":22876:22990   */\n      tag_455\n        /* \"#utility.yul\":22986:22989   */\n      dup4\n        /* \"#utility.yul\":22978:22984   */\n      dup4\n        /* \"#utility.yul\":22876:22990   */\n      tag_211\n      jump\t// in\n    tag_455:\n        /* \"#utility.yul\":22862:22990   */\n      swap1\n      pop\n        /* \"#utility.yul\":22704:22996   */\n      swap3\n      swap2\n      pop\n      pop\n      jump\t// out\n        /* \"#utility.yul\":23002:23149   */\n    tag_213:\n        /* \"#utility.yul\":23106:23110   */\n      0x00\n        /* \"#utility.yul\":23138:23142   */\n      0x20\n        /* \"#utility.yul\":23133:23136   */\n      dup3\n        /* \"#utility.yul\":23129:23143   */\n      add\n        /* \"#utility.yul\":23121:23143   */\n      swap1\n      pop\n        /* \"#utility.yul\":23002:23149   */\n      swap2\n      swap1\n      pop\n      jump\t// out\n        /* \"#utility.yul\":23261:24444   */\n    tag_214:\n        /* \"#utility.yul\":23448:23451   */\n      0x00\n        /* \"#utility.yul\":23477:23565   */\n      tag_458\n        /* \"#utility.yul\":23559:23564   */\n      dup3\n        /* \"#utility.yul\":23477:23565   */\n      tag_208\n      jump\t// in\n    tag_458:\n        /* \"#utility.yul\":23581:23701   */\n      tag_459\n        /* \"#utility.yul\":23694:23700   */\n      dup2\n        /* \"#utility.yul\":23689:23692   */\n      dup6\n        /* \"#utility.yul\":23581:23701   */\n      tag_209\n      jump\t// in\n    tag_459:\n        /* \"#utility.yul\":23574:23701   */\n      swap4\n      pop\n        /* \"#utility.yul\":23727:23730   */\n      dup4\n        /* \"#utility.yul\":23772:23776   */\n      0x20\n        /* \"#utility.yul\":23764:23770   */\n      dup3\n        /* \"#utility.yul\":23760:23777   */\n      mul\n        /* \"#utility.yul\":23755:23758   */\n      dup6\n        /* \"#utility.yul\":23751:23778   */\n      add\n        /* \"#utility.yul\":23802:23892   */\n      tag_460\n        /* \"#utility.yul\":23886:23891   */\n      dup6\n        /* \"#utility.yul\":23802:23892   */\n      tag_210\n      jump\t// in\n    tag_460:\n        /* \"#utility.yul\":23915:23922   */\n      dup1\n        /* \"#utility.yul\":23946:23947   */\n      0x00\n        /* \"#utility.yul\":23931:24399   */\n    tag_461:\n        /* \"#utility.yul\":23956:23962   */\n      dup6\n        /* \"#utility.yul\":23953:23954   */\n      dup2\n        /* \"#utility.yul\":23950:23963   */\n      lt\n        /* \"#utility.yul\":23931:24399   */\n      iszero\n      tag_463\n      jumpi\n        /* \"#utility.yul\":24027:24036   */\n      dup5\n        /* \"#utility.yul\":24021:24025   */\n      dup5\n        /* \"#utility.yul\":24017:24037   */\n      sub\n        /* \"#utility.yul\":24012:24015   */\n      dup10\n        /* \"#utility.yul\":24005:24038   */\n      mstore\n        /* \"#utility.yul\":24078:24084   */\n      dup2\n        /* \"#utility.yul\":24072:24085   */\n      mload\n        /* \"#utility.yul\":24106:24238   */\n      tag_464\n        /* \"#utility.yul\":24233:24237   */\n      dup6\n        /* \"#utility.yul\":24218:24231   */\n      dup3\n        /* \"#utility.yul\":24106:24238   */\n      tag_212\n      jump\t// in\n    tag_464:\n        /* \"#utility.yul\":24098:24238   */\n      swap5\n      pop\n        /* \"#utility.yul\":24261:24355   */\n      tag_465\n        /* \"#utility.yul\":24348:24354   */\n      dup4\n        /* \"#utility.yul\":24261:24355   */\n      tag_213\n      jump\t// in\n    tag_465:\n        /* \"#utility.yul\":24251:24355   */\n      swap3\n      pop\n        /* \"#utility.yul\":24384:24388   */\n      0x20\n        /* \"#utility.yul\":24379:24382   */\n      dup11\n        /* \"#utility.yul\":24375:24389   */\n      add\n        /* \"#utility.yul\":24368:24389   */\n      swap10\n      pop\n        /* \"#utility.yul\":23991:24399   */\n      pop\n        /* \"#utility.yul\":23978:23979   */\n      0x01\n        /* \"#utility.yul\":23975:23976   */\n      dup2\n        /* \"#utility.yul\":23971:23980   */\n      add\n        /* \"#utility.yul\":23966:23980   */\n      swap1\n      pop\n        /* \"#utility.yul\":23931:24399   */\n      jump(tag_461)\n    tag_463:\n        /* \"#utility.yul\":23935:23949   */\n      pop\n        /* \"#utility.yul\":24415:24419   */\n      dup3\n        /* \"#utility.yul\":24408:24419   */\n      swap8\n      pop\n        /* \"#utility.yul\":24435:24438   */\n      dup8\n        /* \"#utility.yul\":24428:24438   */\n      swap6\n      pop\n        /* \"#utility.yul\":23453:24444   */\n      pop\n      pop\n      pop\n      pop\n      pop\n        /* \"#utility.yul\":23261:24444   */\n      swap3\n      swap2\n      pop\n      pop\n      jump\t// out\n        /* \"#utility.yul\":24450:24959   */\n    tag_44:\n        /* \"#utility.yul\":24661:24665   */\n      0x00\n        /* \"#utility.yul\":24699:24701   */\n      0x20\n        /* \"#utility.yul\":24688:24697   */\n      dup3\n        /* \"#utility.yul\":24684:24702   */\n      add\n        /* \"#utility.yul\":24676:24702   */\n      swap1\n      pop\n        /* \"#utility.yul\":24748:24757   */\n      dup2\n        /* \"#utility.yul\":24742:24746   */\n      dup2\n        /* \"#utility.yul\":24738:24758   */\n      sub\n        /* \"#utility.yul\":24734:24735   */\n      0x00\n        /* \"#utility.yul\":24723:24732   */\n      dup4\n        /* \"#utility.yul\":24719:24736   */\n      add\n        /* \"#utility.yul\":24712:24759   */\n      mstore\n        /* \"#utility.yul\":24776:24952   */\n      tag_467\n        /* \"#utility.yul\":24947:24951   */\n      dup2\n        /* \"#utility.yul\":24938:24944   */\n      dup5\n        /* \"#utility.yul\":24776:24952   */\n      tag_214\n      jump\t// in\n    tag_467:\n        /* \"#utility.yul\":24768:24952   */\n      swap1\n      pop\n        /* \"#utility.yul\":24450:24959   */\n      swap3\n      swap2\n      pop\n      pop\n      jump\t// out\n        /* \"#utility.yul\":24965:25145   */\n    tag_215:\n        /* \"#utility.yul\":25013:25090   */\n      0x4e487b7100000000000000000000000000000000000000000000000000000000\n        /* \"#utility.yul\":25010:25011   */\n      0x00\n        /* \"#utility.yul\":25003:25091   */\n      mstore\n        /* \"#utility.yul\":25110:25114   */\n      0x22\n        /* \"#utility.yul\":25107:25108   */\n      0x04\n        /* \"#utility.yul\":25100:25115   */\n      mstore\n        /* \"#utility.yul\":25134:25138   */\n      0x24\n        /* \"#utility.yul\":25131:25132   */\n      0x00\n        /* \"#utility.yul\":25124:25139   */\n      revert\n        /* \"#utility.yul\":25151:25471   */\n    tag_55:\n        /* \"#utility.yul\":25195:25201   */\n      0x00\n        /* \"#utility.yul\":25232:25233   */\n      0x02\n        /* \"#utility.yul\":25226:25230   */\n      dup3\n        /* \"#utility.yul\":25222:25234   */\n      div\n        /* \"#utility.yul\":25212:25234   */\n      swap1\n      pop\n        /* \"#utility.yul\":25279:25280   */\n      0x01\n        /* \"#utility.yul\":25273:25277   */\n      dup3\n        /* \"#utility.yul\":25269:25281   */\n      and\n        /* \"#utility.yul\":25300:25318   */\n      dup1\n        /* \"#utility.yul\":25290:25371   */\n      tag_470\n      jumpi\n        /* \"#utility.yul\":25356:25360   */\n      0x7f\n        /* \"#utility.yul\":25348:25354   */\n      dup3\n        /* \"#utility.yul\":25344:25361   */\n      and\n        /* \"#utility.yul\":25334:25361   */\n      swap2\n      pop\n        /* \"#utility.yul\":25290:25371   */\n    tag_470:\n        /* \"#utility.yul\":25418:25420   */\n      0x20\n        /* \"#utility.yul\":25410:25416   */\n      dup3\n        /* \"#utility.yul\":25407:25421   */\n      lt\n        /* \"#utility.yul\":25387:25405   */\n      dup2\n        /* \"#utility.yul\":25384:25422   */\n      sub\n        /* \"#utility.yul\":25381:25465   */\n      tag_471\n      jumpi\n        /* \"#utility.yul\":25437:25455   */\n      tag_472\n      tag_215\n      jump\t// in\n    tag_472:\n        /* \"#utility.yul\":25381:25465   */\n    tag_471:\n        /* \"#utility.yul\":25202:25471   */\n      pop\n        /* \"#utility.yul\":25151:25471   */\n      swap2\n      swap1\n      pop\n      jump\t// out\n        /* \"#utility.yul\":25477:25617   */\n    tag_216:\n        /* \"#utility.yul\":25525:25529   */\n      0x00\n        /* \"#utility.yul\":25548:25551   */\n      dup2\n        /* \"#utility.yul\":25540:25551   */\n      swap1\n      pop\n        /* \"#utility.yul\":25571:25574   */\n      dup2\n        /* \"#utility.yul\":25568:25569   */\n      0x00\n        /* \"#utility.yul\":25561:25575   */\n      mstore\n        /* \"#utility.yul\":25605:25609   */\n      0x20\n        /* \"#utility.yul\":25602:25603   */\n      0x00\n        /* \"#utility.yul\":25592:25610   */\n      keccak256\n        /* \"#utility.yul\":25584:25610   */\n      swap1\n      pop\n        /* \"#utility.yul\":25477:25617   */\n      swap2\n      swap1\n      pop\n      jump\t// out\n        /* \"#utility.yul\":25623:25716   */\n    tag_217:\n        /* \"#utility.yul\":25660:25666   */\n      0x00\n        /* \"#utility.yul\":25707:25709   */\n      0x20\n        /* \"#utility.yul\":25702:25704   */\n      0x1f\n        /* \"#utility.yul\":25695:25700   */\n      dup4\n        /* \"#utility.yul\":25691:25705   */\n      add\n        /* \"#utility.yul\":25687:25710   */\n      div\n        /* \"#utility.yul\":25677:25710   */\n      swap1\n      pop\n        /* \"#utility.yul\":25623:25716   */\n      swap2\n      swap1\n      pop\n      jump\t// out\n        /* \"#utility.yul\":25722:25829   */\n    tag_218:\n        /* \"#utility.yul\":25766:25774   */\n      0x00\n        /* \"#utility.yul\":25816:25821   */\n      dup3\n        /* \"#utility.yul\":25810:25814   */\n      dup3\n        /* \"#utility.yul\":25806:25822   */\n      shl\n        /* \"#utility.yul\":25785:25822   */\n      swap1\n      pop\n        /* \"#utility.yul\":25722:25829   */\n      swap3\n      swap2\n      pop\n      pop\n      jump\t// out\n        /* \"#utility.yul\":25835:26228   */\n    tag_219:\n        /* \"#utility.yul\":25904:25910   */\n      0x00\n        /* \"#utility.yul\":25954:25955   */\n      0x08\n        /* \"#utility.yul\":25942:25952   */\n      dup4\n        /* \"#utility.yul\":25938:25956   */\n      mul\n        /* \"#utility.yul\":25977:26074   */\n      tag_477\n        /* \"#utility.yul\":26007:26073   */\n      0xffffffffffffffffffffffffffffffffffffffffffffffffffffffffffffffff\n        /* \"#utility.yul\":25996:26005   */\n      dup3\n        /* \"#utility.yul\":25977:26074   */\n      tag_218\n      jump\t// in\n    tag_477:\n        /* \"#utility.yul\":26095:26134   */\n      tag_478\n        /* \"#utility.yul\":26125:26133   */\n      dup7\n        /* \"#utility.yul\":26114:26123   */\n      dup4\n        /* \"#utility.yul\":26095:26134   */\n      tag_218\n      jump\t// in\n    tag_478:\n        /* \"#utility.yul\":26083:26134   */\n      swap6\n      pop\n        /* \"#utility.yul\":26167:26171   */\n      dup1\n        /* \"#utility.yul\":26163:26172   */\n      not\n        /* \"#utility.yul\":26156:26161   */\n      dup5\n        /* \"#utility.yul\":26152:26173   */\n      and\n        /* \"#utility.yul\":26143:26173   */\n      swap4\n      pop\n        /* \"#utility.yul\":26216:26220   */\n      dup1\n        /* \"#utility.yul\":26206:26214   */\n      dup7\n        /* \"#utility.yul\":26202:26221   */\n      and\n        /* \"#utility.yul\":26195:26200   */\n      dup5\n        /* \"#utility.yul\":26192:26222   */\n      or\n        /* \"#utility.yul\":26182:26222   */\n      swap3\n      pop\n        /* \"#utility.yul\":25911:26228   */\n      pop\n      pop\n        /* \"#utility.yul\":25835:26228   */\n      swap4\n      swap3\n      pop\n      pop\n      pop\n      jump\t// out\n        /* \"#utility.yul\":26234:26294   */\n    tag_220:\n        /* \"#utility.yul\":26262:26265   */\n      0x00\n        /* \"#utility.yul\":26283:26288   */\n      dup2\n        /* \"#utility.yul\":26276:26288   */\n      swap1\n      pop\n        /* \"#utility.yul\":26234:26294   */\n      swap2\n      swap1\n      pop\n      jump\t// out\n        /* \"#utility.yul\":26300:26442   */\n    tag_221:\n        /* \"#utility.yul\":26350:26359   */\n      0x00\n        /* \"#utility.yul\":26383:26436   */\n      tag_481\n        /* \"#utility.yul\":26401:26435   */\n      tag_482\n        /* \"#utility.yul\":26410:26434   */\n      tag_483\n        /* \"#utility.yul\":26428:26433   */\n      dup5\n        /* \"#utility.yul\":26410:26434   */\n      tag_158\n      jump\t// in\n    tag_483:\n        /* \"#utility.yul\":26401:26435   */\n      tag_220\n      jump\t// in\n    tag_482:\n        /* \"#utility.yul\":26383:26436   */\n      tag_158\n      jump\t// in\n    tag_481:\n        /* \"#utility.yul\":26370:26436   */\n      swap1\n      pop\n        /* \"#utility.yul\":26300:26442   */\n      swap2\n      swap1\n      pop\n      jump\t// out\n        /* \"#utility.yul\":26448:26523   */\n    tag_222:\n        /* \"#utility.yul\":26491:26494   */\n      0x00\n        /* \"#utility.yul\":26512:26517   */\n      dup2\n        /* \"#utility.yul\":26505:26517   */\n      swap1\n      pop\n        /* \"#utility.yul\":26448:26523   */\n      swap2\n      swap1\n      pop\n      jump\t// out\n        /* \"#utility.yul\":26529:26798   */\n    tag_223:\n        /* \"#utility.yul\":26639:26678   */\n      tag_486\n        /* \"#utility.yul\":26670:26677   */\n      dup4\n        /* \"#utility.yul\":26639:26678   */\n      tag_221\n      jump\t// in\n    tag_486:\n        /* \"#utility.yul\":26700:26791   */\n      tag_487\n        /* \"#utility.yul\":26749:26790   */\n      tag_488\n        /* \"#utility.yul\":26773:26789   */\n      dup3\n        /* \"#utility.yul\":26749:26790   */\n      tag_222\n      jump\t// in\n    tag_488:\n        /* \"#utility.yul\":26741:26747   */\n      dup5\n        /* \"#utility.yul\":26734:26738   */\n      dup5\n        /* \"#utility.yul\":26728:26739   */\n      sload\n        /* \"#utility.yul\":26700:26791   */\n      tag_219\n      jump\t// in\n    tag_487:\n        /* \"#utility.yul\":26694:26698   */\n      dup3\n        /* \"#utility.yul\":26687:26792   */\n      sstore\n        /* \"#utility.yul\":26605:26798   */\n      pop\n        /* \"#utility.yul\":26529:26798   */\n      pop\n      pop\n      pop\n      jump\t// out\n        /* \"#utility.yul\":26804:26877   */\n    tag_224:\n        /* \"#utility.yul\":26849:26852   */\n      0x00\n        /* \"#utility.yul\":26804:26877   */\n      swap1\n      jump\t// out\n        /* \"#utility.yul\":26883:27072   */\n    tag_225:\n        /* \"#utility.yul\":26960:26992   */\n      tag_491\n      tag_224\n      jump\t// in\n    tag_491:\n        /* \"#utility.yul\":27001:27066   */\n      tag_492\n        /* \"#utility.yul\":27059:27065   */\n      dup2\n        /* \"#utility.yul\":27051:27057   */\n      dup5\n        /* \"#utility.yul\":27045:27049   */\n      dup5\n        /* \"#utility.yul\":27001:27066   */\n      tag_223\n      jump\t// in\n    tag_492:\n        /* \"#utility.yul\":26936:27072   */\n      pop\n        /* \"#utility.yul\":26883:27072   */\n      pop\n      pop\n      jump\t// out\n        /* \"#utility.yul\":27078:27264   */\n    tag_226:\n        /* \"#utility.yul\":27138:27258   */\n    tag_494:\n        /* \"#utility.yul\":27155:27158   */\n      dup2\n        /* \"#utility.yul\":27148:27153   */\n      dup2\n        /* \"#utility.yul\":27145:27159   */\n      lt\n        /* \"#utility.yul\":27138:27258   */\n      iszero\n      tag_496\n      jumpi\n        /* \"#utility.yul\":27209:27248   */\n      tag_497\n        /* \"#utility.yul\":27246:27247   */\n      0x00\n        /* \"#utility.yul\":27239:27244   */\n      dup3\n        /* \"#utility.yul\":27209:27248   */\n      tag_225\n      jump\t// in\n    tag_497:\n        /* \"#utility.yul\":27182:27183   */\n      0x01\n        /* \"#utility.yul\":27175:27180   */\n      dup2\n        /* \"#utility.yul\":27171:27184   */\n      add\n        /* \"#utility.yul\":27162:27184   */\n      swap1\n      pop\n        /* \"#utility.yul\":27138:27258   */\n      jump(tag_494)\n    tag_496:\n        /* \"#utility.yul\":27078:27264   */\n      pop\n      pop\n      jump\t// out\n        /* \"#utility.yul\":27270:27811   */\n    tag_227:\n        /* \"#utility.yul\":27370:27372   */\n      0x1f\n        /* \"#utility.yul\":27365:27368   */\n      dup3\n        /* \"#utility.yul\":27362:27373   */\n      gt\n        /* \"#utility.yul\":27359:27804   */\n      iszero\n      tag_499\n      jumpi\n        /* \"#utility.yul\":27404:27441   */\n      tag_500\n        /* \"#utility.yul\":27435:27440   */\n      dup2\n        /* \"#utility.yul\":27404:27441   */\n      tag_216\n      jump\t// in\n    tag_500:\n        /* \"#utility.yul\":27487:27516   */\n      tag_501\n        /* \"#utility.yul\":27505:27515   */\n      dup5\n        /* \"#utility.yul\":27487:27516   */\n      tag_217\n      jump\t// in\n    tag_501:\n        /* \"#utility.yul\":27477:27485   */\n      dup2\n        /* \"#utility.yul\":27473:27517   */\n      add\n        /* \"#utility.yul\":27670:27672   */\n      0x20\n        /* \"#utility.yul\":27658:27668   */\n      dup6\n        /* \"#utility.yul\":27655:27673   */\n      lt\n        /* \"#utility.yul\":27652:27701   */\n      iszero\n      tag_502\n      jumpi\n        /* \"#utility.yul\":27691:27699   */\n      dup2\n        /* \"#utility.yul\":27676:27699   */\n      swap1\n      pop\n        /* \"#utility.yul\":27652:27701   */\n    tag_502:\n        /* \"#utility.yul\":27714:27794   */\n      tag_503\n        /* \"#utility.yul\":27770:27792   */\n      tag_504\n        /* \"#utility.yul\":27788:27791   */\n      dup6\n        /* \"#utility.yul\":27770:27792   */\n      tag_217\n      jump\t// in\n    tag_504:\n        /* \"#utility.yul\":27760:27768   */\n      dup4\n        /* \"#utility.yul\":27756:27793   */\n      add\n        /* \"#utility.yul\":27743:27754   */\n      dup3\n        /* \"#utility.yul\":27714:27794   */\n      tag_226\n      jump\t// in\n    tag_503:\n        /* \"#utility.yul\":27374:27804   */\n      pop\n      pop\n        /* \"#utility.yul\":27359:27804   */\n    tag_499:\n        /* \"#utility.yul\":27270:27811   */\n      pop\n      pop\n      pop\n      jump\t// out\n        /* \"#utility.yul\":27817:27934   */\n    tag_228:\n        /* \"#utility.yul\":27871:27879   */\n      0x00\n        /* \"#utility.yul\":27921:27926   */\n      dup3\n        /* \"#utility.yul\":27915:27919   */\n      dup3\n        /* \"#utility.yul\":27911:27927   */\n      shr\n        /* \"#utility.yul\":27890:27927   */\n      swap1\n      pop\n        /* \"#utility.yul\":27817:27934   */\n      swap3\n      swap2\n      pop\n      pop\n      jump\t// out\n        /* \"#utility.yul\":27940:28109   */\n    tag_229:\n        /* \"#utility.yul\":27984:27990   */\n      0x00\n        /* \"#utility.yul\":28017:28068   */\n      tag_507\n        /* \"#utility.yul\":28065:28066   */\n      0x00\n        /* \"#utility.yul\":28061:28067   */\n      not\n        /* \"#utility.yul\":28053:28058   */\n      dup5\n        /* \"#utility.yul\":28050:28051   */\n      0x08\n        /* \"#utility.yul\":28046:28059   */\n      mul\n        /* \"#utility.yul\":28017:28068   */\n      tag_228\n      jump\t// in\n    tag_507:\n        /* \"#utility.yul\":28013:28069   */\n      not\n        /* \"#utility.yul\":28098:28102   */\n      dup1\n        /* \"#utility.yul\":28092:28096   */\n      dup4\n        /* \"#utility.yul\":28088:28103   */\n      and\n        /* \"#utility.yul\":28078:28103   */\n      swap2\n      pop\n        /* \"#utility.yul\":27991:28109   */\n      pop\n        /* \"#utility.yul\":27940:28109   */\n      swap3\n      swap2\n      pop\n      pop\n      jump\t// out\n        /* \"#utility.yul\":28114:28409   */\n    tag_230:\n        /* \"#utility.yul\":28190:28194   */\n      0x00\n        /* \"#utility.yul\":28336:28365   */\n      tag_509\n        /* \"#utility.yul\":28361:28364   */\n      dup4\n        /* \"#utility.yul\":28355:28359   */\n      dup4\n        /* \"#utility.yul\":28336:28365   */\n      tag_229\n      jump\t// in\n    tag_509:\n        /* \"#utility.yul\":28328:28365   */\n      swap2\n      pop\n        /* \"#utility.yul\":28398:28401   */\n      dup3\n        /* \"#utility.yul\":28395:28396   */\n      0x02\n        /* \"#utility.yul\":28391:28402   */\n      mul\n        /* \"#utility.yul\":28385:28389   */\n      dup3\n        /* \"#utility.yul\":28382:28403   */\n      or\n        /* \"#utility.yul\":28374:28403   */\n      swap1\n      pop\n        /* \"#utility.yul\":28114:28409   */\n      swap3\n      swap2\n      pop\n      pop\n      jump\t// out\n        /* \"#utility.yul\":28414:29804   */\n    tag_71:\n        /* \"#utility.yul\":28529:28565   */\n      tag_511\n        /* \"#utility.yul\":28561:28564   */\n      dup3\n        /* \"#utility.yul\":28529:28565   */\n      tag_176\n      jump\t// in\n    tag_511:\n        /* \"#utility.yul\":28630:28648   */\n      0xffffffffffffffff\n        /* \"#utility.yul\":28622:28628   */\n      dup2\n        /* \"#utility.yul\":28619:28649   */\n      gt\n        /* \"#utility.yul\":28616:28672   */\n      iszero\n      tag_512\n      jumpi\n        /* \"#utility.yul\":28652:28670   */\n      tag_513\n      tag_105\n      jump\t// in\n    tag_513:\n        /* \"#utility.yul\":28616:28672   */\n    tag_512:\n        /* \"#utility.yul\":28696:28734   */\n      tag_514\n        /* \"#utility.yul\":28728:28732   */\n      dup3\n        /* \"#utility.yul\":28722:28733   */\n      sload\n        /* \"#utility.yul\":28696:28734   */\n      tag_55\n      jump\t// in\n    tag_514:\n        /* \"#utility.yul\":28781:28847   */\n      tag_515\n        /* \"#utility.yul\":28840:28846   */\n      dup3\n        /* \"#utility.yul\":28832:28838   */\n      dup3\n        /* \"#utility.yul\":28826:28830   */\n      dup6\n        /* \"#utility.yul\":28781:28847   */\n      tag_227\n      jump\t// in\n    tag_515:\n        /* \"#utility.yul\":28874:28875   */\n      0x00\n        /* \"#utility.yul\":28898:28902   */\n      0x20\n        /* \"#utility.yul\":28885:28902   */\n      swap1\n      pop\n        /* \"#utility.yul\":28930:28932   */\n      0x1f\n        /* \"#utility.yul\":28922:28928   */\n      dup4\n        /* \"#utility.yul\":28919:28933   */\n      gt\n        /* \"#utility.yul\":28947:28948   */\n      0x01\n        /* \"#utility.yul\":28942:29559   */\n      dup2\n      eq\n      tag_517\n      jumpi\n        /* \"#utility.yul\":29603:29604   */\n      0x00\n        /* \"#utility.yul\":29620:29626   */\n      dup5\n        /* \"#utility.yul\":29617:29694   */\n      iszero\n      tag_518\n      jumpi\n        /* \"#utility.yul\":29669:29678   */\n      dup3\n        /* \"#utility.yul\":29664:29667   */\n      dup8\n        /* \"#utility.yul\":29660:29679   */\n      add\n        /* \"#utility.yul\":29654:29680   */\n      mload\n        /* \"#utility.yul\":29645:29680   */\n      swap1\n      pop\n        /* \"#utility.yul\":29617:29694   */\n    tag_518:\n        /* \"#utility.yul\":29720:29787   */\n      tag_519\n        /* \"#utility.yul\":29780:29786   */\n      dup6\n        /* \"#utility.yul\":29773:29778   */\n      dup3\n        /* \"#utility.yul\":29720:29787   */\n      tag_230\n      jump\t// in\n    tag_519:\n        /* \"#utility.yul\":29714:29718   */\n      dup7\n        /* \"#utility.yul\":29707:29788   */\n      sstore\n        /* \"#utility.yul\":29576:29798   */\n      pop\n        /* \"#utility.yul\":28912:29798   */\n      jump(tag_516)\n        /* \"#utility.yul\":28942:29559   */\n    tag_517:\n        /* \"#utility.yul\":28994:28998   */\n      0x1f\n        /* \"#utility.yul\":28990:28999   */\n      not\n        /* \"#utility.yul\":28982:28988   */\n      dup5\n        /* \"#utility.yul\":28978:29000   */\n      and\n        /* \"#utility.yul\":29028:29064   */\n      tag_520\n        /* \"#utility.yul\":29059:29063   */\n      dup7\n        /* \"#utility.yul\":29028:29064   */\n      tag_216\n      jump\t// in\n    tag_520:\n        /* \"#utility.yul\":29086:29087   */\n      0x00\n        /* \"#utility.yul\":29100:29308   */\n    tag_521:\n        /* \"#utility.yul\":29114:29121   */\n      dup3\n        /* \"#utility.yul\":29111:29112   */\n      dup2\n        /* \"#utility.yul\":29108:29122   */\n      lt\n        /* \"#utility.yul\":29100:29308   */\n      iszero\n      tag_523\n      jumpi\n        /* \"#utility.yul\":29193:29202   */\n      dup5\n        /* \"#utility.yul\":29188:29191   */\n      dup10\n        /* \"#utility.yul\":29184:29203   */\n      add\n        /* \"#utility.yul\":29178:29204   */\n      mload\n        /* \"#utility.yul\":29170:29176   */\n      dup3\n        /* \"#utility.yul\":29163:29205   */\n      sstore\n        /* \"#utility.yul\":29244:29245   */\n      0x01\n        /* \"#utility.yul\":29236:29242   */\n      dup3\n        /* \"#utility.yul\":29232:29246   */\n      add\n        /* \"#utility.yul\":29222:29246   */\n      swap2\n      pop\n        /* \"#utility.yul\":29291:29293   */\n      0x20\n        /* \"#utility.yul\":29280:29289   */\n      dup6\n        /* \"#utility.yul\":29276:29294   */\n      add\n        /* \"#utility.yul\":29263:29294   */\n      swap5\n      pop\n        /* \"#utility.yul\":29137:29141   */\n      0x20\n        /* \"#utility.yul\":29134:29135   */\n      dup2\n        /* \"#utility.yul\":29130:29142   */\n      add\n        /* \"#utility.yul\":29125:29142   */\n      swap1\n      pop\n        /* \"#utility.yul\":29100:29308   */\n      jump(tag_521)\n    tag_523:\n        /* \"#utility.yul\":29336:29342   */\n      dup7\n        /* \"#utility.yul\":29327:29334   */\n      dup4\n        /* \"#utility.yul\":29324:29343   */\n      lt\n        /* \"#utility.yul\":29321:29500   */\n      iszero\n      tag_524\n      jumpi\n        /* \"#utility.yul\":29394:29403   */\n      dup5\n        /* \"#utility.yul\":29389:29392   */\n      dup10\n        /* \"#utility.yul\":29385:29404   */\n      add\n        /* \"#utility.yul\":29379:29405   */\n      mload\n        /* \"#utility.yul\":29437:29485   */\n      tag_525\n        /* \"#utility.yul\":29479:29483   */\n      0x1f\n        /* \"#utility.yul\":29471:29477   */\n      dup10\n        /* \"#utility.yul\":29467:29484   */\n      and\n        /* \"#utility.yul\":29456:29465   */\n      dup3\n        /* \"#utility.yul\":29437:29485   */\n      tag_229\n      jump\t// in\n    tag_525:\n        /* \"#utility.yul\":29429:29435   */\n      dup4\n        /* \"#utility.yul\":29422:29486   */\n      sstore\n        /* \"#utility.yul\":29344:29500   */\n      pop\n        /* \"#utility.yul\":29321:29500   */\n    tag_524:\n        /* \"#utility.yul\":29546:29547   */\n      0x01\n        /* \"#utility.yul\":29542:29543   */\n      0x02\n        /* \"#utility.yul\":29534:29540   */\n      dup9\n        /* \"#utility.yul\":29530:29544   */\n      mul\n        /* \"#utility.yul\":29526:29548   */\n      add\n        /* \"#utility.yul\":29520:29524   */\n      dup9\n        /* \"#utility.yul\":29513:29549   */\n      sstore\n        /* \"#utility.yul\":28949:29559   */\n      pop\n      pop\n      pop\n        /* \"#utility.yul\":28912:29798   */\n    tag_516:\n      pop\n        /* \"#utility.yul\":28504:29804   */\n      pop\n      pop\n      pop\n        /* \"#utility.yul\":28414:29804   */\n      pop\n      pop\n      jump\t// out\n        /* \"#utility.yul\":29810:29994   */\n    tag_231:\n        /* \"#utility.yul\":29909:29920   */\n      0x00\n        /* \"#utility.yul\":29943:29949   */\n      dup3\n        /* \"#utility.yul\":29938:29941   */\n      dup3\n        /* \"#utility.yul\":29931:29950   */\n      mstore\n        /* \"#utility.yul\":29983:29987   */\n      0x20\n        /* \"#utility.yul\":29978:29981   */\n      dup3\n        /* \"#utility.yul\":29974:29988   */\n      add\n        /* \"#utility.yul\":29959:29988   */\n      swap1\n      pop\n        /* \"#utility.yul\":29810:29994   */\n      swap3\n      swap2\n      pop\n      pop\n      jump\t// out\n        /* \"#utility.yul\":30030:30762   */\n    tag_232:\n        /* \"#utility.yul\":30149:30152   */\n      0x00\n        /* \"#utility.yul\":30178:30232   */\n      tag_528\n        /* \"#utility.yul\":30226:30231   */\n      dup3\n        /* \"#utility.yul\":30178:30232   */\n      tag_162\n      jump\t// in\n    tag_528:\n        /* \"#utility.yul\":30248:30334   */\n      tag_529\n        /* \"#utility.yul\":30327:30333   */\n      dup2\n        /* \"#utility.yul\":30322:30325   */\n      dup6\n        /* \"#utility.yul\":30248:30334   */\n      tag_231\n      jump\t// in\n    tag_529:\n        /* \"#utility.yul\":30241:30334   */\n      swap4\n      pop\n        /* \"#utility.yul\":30358:30414   */\n      tag_530\n        /* \"#utility.yul\":30408:30413   */\n      dup4\n        /* \"#utility.yul\":30358:30414   */\n      tag_164\n      jump\t// in\n    tag_530:\n        /* \"#utility.yul\":30437:30444   */\n      dup1\n        /* \"#utility.yul\":30468:30469   */\n      0x00\n        /* \"#utility.yul\":30453:30737   */\n    tag_531:\n        /* \"#utility.yul\":30478:30484   */\n      dup4\n        /* \"#utility.yul\":30475:30476   */\n      dup2\n        /* \"#utility.yul\":30472:30485   */\n      lt\n        /* \"#utility.yul\":30453:30737   */\n      iszero\n      tag_533\n      jumpi\n        /* \"#utility.yul\":30554:30560   */\n      dup2\n        /* \"#utility.yul\":30548:30561   */\n      mload\n        /* \"#utility.yul\":30581:30644   */\n      tag_534\n        /* \"#utility.yul\":30640:30643   */\n      dup9\n        /* \"#utility.yul\":30625:30638   */\n      dup3\n        /* \"#utility.yul\":30581:30644   */\n      tag_166\n      jump\t// in\n    tag_534:\n        /* \"#utility.yul\":30574:30644   */\n      swap8\n      pop\n        /* \"#utility.yul\":30667:30727   */\n      tag_535\n        /* \"#utility.yul\":30720:30726   */\n      dup4\n        /* \"#utility.yul\":30667:30727   */\n      tag_167\n      jump\t// in\n    tag_535:\n        /* \"#utility.yul\":30657:30727   */\n      swap3\n      pop\n        /* \"#utility.yul\":30513:30737   */\n      pop\n        /* \"#utility.yul\":30500:30501   */\n      0x01\n        /* \"#utility.yul\":30497:30498   */\n      dup2\n        /* \"#utility.yul\":30493:30502   */\n      add\n        /* \"#utility.yul\":30488:30502   */\n      swap1\n      pop\n        /* \"#utility.yul\":30453:30737   */\n      jump(tag_531)\n    tag_533:\n        /* \"#utility.yul\":30457:30471   */\n      pop\n        /* \"#utility.yul\":30753:30756   */\n      dup6\n        /* \"#utility.yul\":30746:30756   */\n      swap4\n      pop\n        /* \"#utility.yul\":30154:30762   */\n      pop\n      pop\n      pop\n        /* \"#utility.yul\":30030:30762   */\n      swap3\n      swap2\n      pop\n      pop\n      jump\t// out\n        /* \"#utility.yul\":30768:30914   */\n    tag_233:\n        /* \"#utility.yul\":30865:30871   */\n      dup3\n        /* \"#utility.yul\":30860:30863   */\n      dup2\n        /* \"#utility.yul\":30855:30858   */\n      dup4\n        /* \"#utility.yul\":30842:30872   */\n      calldatacopy\n        /* \"#utility.yul\":30906:30907   */\n      0x00\n        /* \"#utility.yul\":30897:30903   */\n      dup4\n        /* \"#utility.yul\":30892:30895   */\n      dup4\n        /* \"#utility.yul\":30888:30904   */\n      add\n        /* \"#utility.yul\":30881:30908   */\n      mstore\n        /* \"#utility.yul\":30768:30914   */\n      pop\n      pop\n      pop\n      jump\t// out\n        /* \"#utility.yul\":30942:31256   */\n    tag_234:\n        /* \"#utility.yul\":31038:31041   */\n      0x00\n        /* \"#utility.yul\":31059:31129   */\n      tag_538\n        /* \"#utility.yul\":31122:31128   */\n      dup4\n        /* \"#utility.yul\":31117:31120   */\n      dup6\n        /* \"#utility.yul\":31059:31129   */\n      tag_204\n      jump\t// in\n    tag_538:\n        /* \"#utility.yul\":31052:31129   */\n      swap4\n      pop\n        /* \"#utility.yul\":31139:31195   */\n      tag_539\n        /* \"#utility.yul\":31188:31194   */\n      dup4\n        /* \"#utility.yul\":31183:31186   */\n      dup6\n        /* \"#utility.yul\":31176:31181   */\n      dup5\n        /* \"#utility.yul\":31139:31195   */\n      tag_233\n      jump\t// in\n    tag_539:\n        /* \"#utility.yul\":31220:31249   */\n      tag_540\n        /* \"#utility.yul\":31242:31248   */\n      dup4\n        /* \"#utility.yul\":31220:31249   */\n      tag_179\n      jump\t// in\n    tag_540:\n        /* \"#utility.yul\":31215:31218   */\n      dup5\n        /* \"#utility.yul\":31211:31250   */\n      add\n        /* \"#utility.yul\":31204:31250   */\n      swap1\n      pop\n        /* \"#utility.yul\":30942:31256   */\n      swap4\n      swap3\n      pop\n      pop\n      pop\n      jump\t// out\n        /* \"#utility.yul\":31262:32880   */\n    tag_75:\n        /* \"#utility.yul\":31732:31736   */\n      0x00\n        /* \"#utility.yul\":31770:31773   */\n      0x0120\n        /* \"#utility.yul\":31759:31768   */\n      dup3\n        /* \"#utility.yul\":31755:31774   */\n      add\n        /* \"#utility.yul\":31747:31774   */\n      swap1\n      pop\n        /* \"#utility.yul\":31784:31855   */\n      tag_542\n        /* \"#utility.yul\":31852:31853   */\n      0x00\n        /* \"#utility.yul\":31841:31850   */\n      dup4\n        /* \"#utility.yul\":31837:31854   */\n      add\n        /* \"#utility.yul\":31828:31834   */\n      dup15\n        /* \"#utility.yul\":31784:31855   */\n      tag_161\n      jump\t// in\n    tag_542:\n        /* \"#utility.yul\":31902:31911   */\n      dup2\n        /* \"#utility.yul\":31896:31900   */\n      dup2\n        /* \"#utility.yul\":31892:31912   */\n      sub\n        /* \"#utility.yul\":31887:31889   */\n      0x20\n        /* \"#utility.yul\":31876:31885   */\n      dup4\n        /* \"#utility.yul\":31872:31890   */\n      add\n        /* \"#utility.yul\":31865:31913   */\n      mstore\n        /* \"#utility.yul\":31930:32038   */\n      tag_543\n        /* \"#utility.yul\":32033:32037   */\n      dup2\n        /* \"#utility.yul\":32024:32030   */\n      dup14\n        /* \"#utility.yul\":31930:32038   */\n      tag_232\n      jump\t// in\n    tag_543:\n        /* \"#utility.yul\":31922:32038   */\n      swap1\n      pop\n        /* \"#utility.yul\":32085:32094   */\n      dup2\n        /* \"#utility.yul\":32079:32083   */\n      dup2\n        /* \"#utility.yul\":32075:32095   */\n      sub\n        /* \"#utility.yul\":32070:32072   */\n      0x40\n        /* \"#utility.yul\":32059:32068   */\n      dup4\n        /* \"#utility.yul\":32055:32073   */\n      add\n        /* \"#utility.yul\":32048:32096   */\n      mstore\n        /* \"#utility.yul\":32113:32221   */\n      tag_544\n        /* \"#utility.yul\":32216:32220   */\n      dup2\n        /* \"#utility.yul\":32207:32213   */\n      dup13\n        /* \"#utility.yul\":32113:32221   */\n      tag_203\n      jump\t// in\n    tag_544:\n        /* \"#utility.yul\":32105:32221   */\n      swap1\n      pop\n        /* \"#utility.yul\":32268:32277   */\n      dup2\n        /* \"#utility.yul\":32262:32266   */\n      dup2\n        /* \"#utility.yul\":32258:32278   */\n      sub\n        /* \"#utility.yul\":32253:32255   */\n      0x60\n        /* \"#utility.yul\":32242:32251   */\n      dup4\n        /* \"#utility.yul\":32238:32256   */\n      add\n        /* \"#utility.yul\":32231:32279   */\n      mstore\n        /* \"#utility.yul\":32296:32382   */\n      tag_545\n        /* \"#utility.yul\":32377:32381   */\n      dup2\n        /* \"#utility.yul\":32368:32374   */\n      dup11\n        /* \"#utility.yul\":32360:32366   */\n      dup13\n        /* \"#utility.yul\":32296:32382   */\n      tag_234\n      jump\t// in\n    tag_545:\n        /* \"#utility.yul\":32288:32382   */\n      swap1\n      pop\n        /* \"#utility.yul\":32430:32439   */\n      dup2\n        /* \"#utility.yul\":32424:32428   */\n      dup2\n        /* \"#utility.yul\":32420:32440   */\n      sub\n        /* \"#utility.yul\":32414:32417   */\n      0x80\n        /* \"#utility.yul\":32403:32412   */\n      dup4\n        /* \"#utility.yul\":32399:32418   */\n      add\n        /* \"#utility.yul\":32392:32441   */\n      mstore\n        /* \"#utility.yul\":32458:32544   */\n      tag_546\n        /* \"#utility.yul\":32539:32543   */\n      dup2\n        /* \"#utility.yul\":32530:32536   */\n      dup9\n        /* \"#utility.yul\":32522:32528   */\n      dup11\n        /* \"#utility.yul\":32458:32544   */\n      tag_234\n      jump\t// in\n    tag_546:\n        /* \"#utility.yul\":32450:32544   */\n      swap1\n      pop\n        /* \"#utility.yul\":32554:32627   */\n      tag_547\n        /* \"#utility.yul\":32622:32625   */\n      0xa0\n        /* \"#utility.yul\":32611:32620   */\n      dup4\n        /* \"#utility.yul\":32607:32626   */\n      add\n        /* \"#utility.yul\":32598:32604   */\n      dup8\n        /* \"#utility.yul\":32554:32627   */\n      tag_206\n      jump\t// in\n    tag_547:\n        /* \"#utility.yul\":32637:32710   */\n      tag_548\n        /* \"#utility.yul\":32705:32708   */\n      0xc0\n        /* \"#utility.yul\":32694:32703   */\n      dup4\n        /* \"#utility.yul\":32690:32709   */\n      add\n        /* \"#utility.yul\":32681:32687   */\n      dup7\n        /* \"#utility.yul\":32637:32710   */\n      tag_206\n      jump\t// in\n    tag_548:\n        /* \"#utility.yul\":32720:32791   */\n      tag_549\n        /* \"#utility.yul\":32786:32789   */\n      0xe0\n        /* \"#utility.yul\":32775:32784   */\n      dup4\n        /* \"#utility.yul\":32771:32790   */\n      add\n        /* \"#utility.yul\":32762:32768   */\n      dup6\n        /* \"#utility.yul\":32720:32791   */\n      tag_207\n      jump\t// in\n    tag_549:\n        /* \"#utility.yul\":32801:32873   */\n      tag_550\n        /* \"#utility.yul\":32868:32871   */\n      0x0100\n        /* \"#utility.yul\":32857:32866   */\n      dup4\n        /* \"#utility.yul\":32853:32872   */\n      add\n        /* \"#utility.yul\":32843:32850   */\n      dup5\n        /* \"#utility.yul\":32801:32873   */\n      tag_207\n      jump\t// in\n    tag_550:\n        /* \"#utility.yul\":31262:32880   */\n      swap13\n      swap12\n      pop\n      pop\n      pop\n      pop\n      pop\n      pop\n      pop\n      pop\n      pop\n      pop\n      pop\n      pop\n      jump\t// out\n        /* \"#utility.yul\":32886:33066   */\n    tag_235:\n        /* \"#utility.yul\":32934:33011   */\n      0x4e487b7100000000000000000000000000000000000000000000000000000000\n        /* \"#utility.yul\":32931:32932   */\n      0x00\n        /* \"#utility.yul\":32924:33012   */\n      mstore\n        /* \"#utility.yul\":33031:33035   */\n      0x11\n        /* \"#utility.yul\":33028:33029   */\n      0x04\n        /* \"#utility.yul\":33021:33036   */\n      mstore\n        /* \"#utility.yul\":33055:33059   */\n      0x24\n        /* \"#utility.yul\":33052:33053   */\n      0x00\n        /* \"#utility.yul\":33045:33060   */\n      revert\n        /* \"#utility.yul\":33072:33305   */\n    tag_77:\n        /* \"#utility.yul\":33111:33114   */\n      0x00\n        /* \"#utility.yul\":33134:33158   */\n      tag_553\n        /* \"#utility.yul\":33152:33157   */\n      dup3\n        /* \"#utility.yul\":33134:33158   */\n      tag_158\n      jump\t// in\n    tag_553:\n        /* \"#utility.yul\":33125:33158   */\n      swap2\n      pop\n        /* \"#utility.yul\":33180:33246   */\n      0xffffffffffffffffffffffffffffffffffffffffffffffffffffffffffffffff\n        /* \"#utility.yul\":33173:33178   */\n      dup3\n        /* \"#utility.yul\":33170:33247   */\n      sub\n        /* \"#utility.yul\":33167:33270   */\n      tag_554\n      jumpi\n        /* \"#utility.yul\":33250:33268   */\n      tag_555\n      tag_235\n      jump\t// in\n    tag_555:\n        /* \"#utility.yul\":33167:33270   */\n    tag_554:\n        /* \"#utility.yul\":33297:33298   */\n      0x01\n        /* \"#utility.yul\":33290:33295   */\n      dup3\n        /* \"#utility.yul\":33286:33299   */\n      add\n        /* \"#utility.yul\":33279:33299   */\n      swap1\n      pop\n        /* \"#utility.yul\":33072:33305   */\n      swap2\n      swap1\n      pop\n      jump\t// out\n        /* \"#utility.yul\":33311:33491   */\n    tag_114:\n        /* \"#utility.yul\":33359:33436   */\n      0x4e487b7100000000000000000000000000000000000000000000000000000000\n        /* \"#utility.yul\":33356:33357   */\n      0x00\n        /* \"#utility.yul\":33349:33437   */\n      mstore\n        /* \"#utility.yul\":33456:33460   */\n      0x32\n        /* \"#utility.yul\":33453:33454   */\n      0x04\n        /* \"#utility.yul\":33446:33461   */\n      mstore\n        /* \"#utility.yul\":33480:33484   */\n      0x24\n        /* \"#utility.yul\":33477:33478   */\n      0x00\n        /* \"#utility.yul\":33470:33485   */\n      revert\n\n    auxdata: 0xa26469706673582212202c5041e5c1a73d835288be0219ab0ca286438d43ae3113c42d76d7891142705864736f6c63430008130033\n}\n",
				"bytecode": {
					"linkReferences": {},
					"object": "6080604052600160005534801561001557600080fd5b50612232806100256000396000f3fe608060405234801561001057600080fd5b506004361061007d5760003560e01c80639c9ed59f1161005b5780639c9ed59f146100fe5780639e9c191d1461011c578063ed90c7b714610151578063f1afff561461016d5761007d565b806321c6f9e5146100825780632e1f9763146100b25780637d28c7de146100e2575b600080fd5b61009c60048036038101906100979190611221565b61019d565b6040516100a99190611270565b60405180910390f35b6100cc60048036038101906100c7919061128b565b6101ce565b6040516100d991906115d3565b60405180910390f35b6100fc60048036038101906100f791906118b3565b6104e6565b005b6101066107f9565b6040516101139190611a51565b60405180910390f35b6101366004803603810190610131919061128b565b61088e565b60405161014896959493929190611adb565b60405180910390f35b61016b6004803603810190610166919061128b565b610a32565b005b61018760048036038101906101829190611b4a565b610b36565b6040516101949190611cfe565b60405180910390f35b600360205281600052604060002081815481106101b957600080fd5b90600052602060002001600091509150505481565b6101d6610f8e565b60026000838152602001908152602001600020604051806101000160405290816000820180548060200260200160405190810160405280929190818152602001828054801561027a57602002820191906000526020600020905b8160009054906101000a900473ffffffffffffffffffffffffffffffffffffffff1673ffffffffffffffffffffffffffffffffffffffff1681526020019060010190808311610230575b50505050508152602001600182018054806020026020016040519081016040528092919081815260200182805480156102d257602002820191906000526020600020905b8154815260200190600101908083116102be575b505050505081526020016002820180546102eb90611d4f565b80601f016020809104026020016040519081016040528092919081815260200182805461031790611d4f565b80156103645780601f1061033957610100808354040283529160200191610364565b820191906000526020600020905b81548152906001019060200180831161034757829003601f168201915b5050505050815260200160038201805461037d90611d4f565b80601f01602080910402602001604051908101604052809291908181526020018280546103a990611d4f565b80156103f65780601f106103cb576101008083540402835291602001916103f6565b820191906000526020600020905b8154815290600101906020018083116103d957829003601f168201915b505050505081526020016004820160009054906101000a90046fffffffffffffffffffffffffffffffff166fffffffffffffffffffffffffffffffff166fffffffffffffffffffffffffffffffff1681526020016004820160109054906101000a90046fffffffffffffffffffffffffffffffff166fffffffffffffffffffffffffffffffff166fffffffffffffffffffffffffffffffff1681526020016005820160009054906101000a900463ffffffff1663ffffffff1663ffffffff1681526020016005820160049054906101000a900463ffffffff1663ffffffff1663ffffffff16815250509050919050565b6040518061010001604052808b81526020018a815260200189898080601f016020809104026020016040519081016040528093929190818152602001838380828437600081840152601f19601f82011690508083019250505050505050815260200187878080601f016020809104026020016040519081016040528093929190818152602001838380828437600081840152601f19601f820116905080830192505050505050508152602001856fffffffffffffffffffffffffffffffff168152602001846fffffffffffffffffffffffffffffffff1681526020018363ffffffff1681526020018263ffffffff1681525060026000805481526020019081526020016000206000820151816000019080519060200190610608929190611003565b50602082015181600101908051906020019061062592919061108d565b50604082015181600201908161063b9190611f2c565b5060608201518160030190816106519190611f2c565b5060808201518160040160006101000a8154816fffffffffffffffffffffffffffffffff02191690836fffffffffffffffffffffffffffffffff16021790555060a08201518160040160106101000a8154816fffffffffffffffffffffffffffffffff02191690836fffffffffffffffffffffffffffffffff16021790555060c08201518160050160006101000a81548163ffffffff021916908363ffffffff16021790555060e08201518160050160046101000a81548163ffffffff021916908363ffffffff160217905550905050600360003373ffffffffffffffffffffffffffffffffffffffff1673ffffffffffffffffffffffffffffffffffffffff16815260200190815260200160002060005490806001815401808255809150506001900390600052602060002001600090919091909150557f6cb3d046d7c4f38eb3876686d1c24375d3d3687a644ad4c396e3264375b859036000548b8b8b8b8b8b8b8b8b8b6040516107ce9b9a999897969594939291906120a9565b60405180910390a16000808154809291906107e890612185565b919050555050505050505050505050565b6060600360003373ffffffffffffffffffffffffffffffffffffffff1673ffffffffffffffffffffffffffffffffffffffff16815260200190815260200160002080548060200260200160405190810160405280929190818152602001828054801561088457602002820191906000526020600020905b815481526020019060010190808311610870575b5050505050905090565b60026020528060005260406000206000915090508060020180546108b190611d4f565b80601f01602080910402602001604051908101604052809291908181526020018280546108dd90611d4f565b801561092a5780601f106108ff5761010080835404028352916020019161092a565b820191906000526020600020905b81548152906001019060200180831161090d57829003601f168201915b50505050509080600301805461093f90611d4f565b80601f016020809104026020016040519081016040528092919081815260200182805461096b90611d4f565b80156109b85780601f1061098d576101008083540402835291602001916109b8565b820191906000526020600020905b81548152906001019060200180831161099b57829003601f168201915b5050505050908060040160009054906101000a90046fffffffffffffffffffffffffffffffff16908060040160109054906101000a90046fffffffffffffffffffffffffffffffff16908060050160009054906101000a900463ffffffff16908060050160049054906101000a900463ffffffff16905086565b6002600082815260200190815260200160002060008082016000610a5691906110da565b600182016000610a6691906110fb565b600282016000610a76919061111c565b600382016000610a86919061111c565b6004820160006101000a8154906fffffffffffffffffffffffffffffffff02191690556004820160106101000a8154906fffffffffffffffffffffffffffffffff02191690556005820160006101000a81549063ffffffff02191690556005820160046101000a81549063ffffffff021916905550507f0e998fc65a4459eb15332384e57a24f5672951bfdd9b2804cc635dd4ad0a10cd81604051610b2b9190611270565b60405180910390a150565b60606000600360008473ffffffffffffffffffffffffffffffffffffffff1673ffffffffffffffffffffffffffffffffffffffff168152602001908152602001600020805480602002602001604051908101604052809291908181526020018280548015610bc357602002820191906000526020600020905b815481526020019060010190808311610baf575b505050505090506000815167ffffffffffffffff811115610be757610be66115fa565b5b604051908082528060200260200182016040528015610c2057816020015b610c0d610f8e565b815260200190600190039081610c055790505b50905060005b8251811015610f835760026000848381518110610c4657610c456121cd565b5b602002602001015181526020019081526020016000206040518061010001604052908160008201805480602002602001604051908101604052809291908181526020018280548015610ced57602002820191906000526020600020905b8160009054906101000a900473ffffffffffffffffffffffffffffffffffffffff1673ffffffffffffffffffffffffffffffffffffffff1681526020019060010190808311610ca3575b5050505050815260200160018201805480602002602001604051908101604052809291908181526020018280548015610d4557602002820191906000526020600020905b815481526020019060010190808311610d31575b50505050508152602001600282018054610d5e90611d4f565b80601f0160208091040260200160405190810160405280929190818152602001828054610d8a90611d4f565b8015610dd75780601f10610dac57610100808354040283529160200191610dd7565b820191906000526020600020905b815481529060010190602001808311610dba57829003601f168201915b50505050508152602001600382018054610df090611d4f565b80601f0160208091040260200160405190810160405280929190818152602001828054610e1c90611d4f565b8015610e695780601f10610e3e57610100808354040283529160200191610e69565b820191906000526020600020905b815481529060010190602001808311610e4c57829003601f168201915b505050505081526020016004820160009054906101000a90046fffffffffffffffffffffffffffffffff166fffffffffffffffffffffffffffffffff166fffffffffffffffffffffffffffffffff1681526020016004820160109054906101000a90046fffffffffffffffffffffffffffffffff166fffffffffffffffffffffffffffffffff166fffffffffffffffffffffffffffffffff1681526020016005820160009054906101000a900463ffffffff1663ffffffff1663ffffffff1681526020016005820160049054906101000a900463ffffffff1663ffffffff1663ffffffff1681525050828281518110610f6557610f646121cd565b5b60200260200101819052508080610f7b90612185565b915050610c26565b508092505050919050565b6040518061010001604052806060815260200160608152602001606081526020016060815260200160006fffffffffffffffffffffffffffffffff16815260200160006fffffffffffffffffffffffffffffffff168152602001600063ffffffff168152602001600063ffffffff1681525090565b82805482825590600052602060002090810192821561107c579160200282015b8281111561107b5782518260006101000a81548173ffffffffffffffffffffffffffffffffffffffff021916908373ffffffffffffffffffffffffffffffffffffffff16021790555091602001919060010190611023565b5b509050611089919061115c565b5090565b8280548282559060005260206000209081019282156110c9579160200282015b828111156110c85782518255916020019190600101906110ad565b5b5090506110d6919061115c565b5090565b50805460008255906000526020600020908101906110f8919061115c565b50565b5080546000825590600052602060002090810190611119919061115c565b50565b50805461112890611d4f565b6000825580601f1061113a5750611159565b601f016020900490600052602060002090810190611158919061115c565b5b50565b5b8082111561117557600081600090555060010161115d565b5090565b6000604051905090565b600080fd5b600080fd5b600073ffffffffffffffffffffffffffffffffffffffff82169050919050565b60006111b88261118d565b9050919050565b6111c8816111ad565b81146111d357600080fd5b50565b6000813590506111e5816111bf565b92915050565b6000819050919050565b6111fe816111eb565b811461120957600080fd5b50565b60008135905061121b816111f5565b92915050565b6000806040838503121561123857611237611183565b5b6000611246858286016111d6565b92505060206112578582860161120c565b9150509250929050565b61126a816111eb565b82525050565b60006020820190506112856000830184611261565b92915050565b6000602082840312156112a1576112a0611183565b5b60006112af8482850161120c565b91505092915050565b600081519050919050565b600082825260208201905092915050565b6000819050602082019050919050565b6112ed816111ad565b82525050565b60006112ff83836112e4565b60208301905092915050565b6000602082019050919050565b6000611323826112b8565b61132d81856112c3565b9350611338836112d4565b8060005b8381101561136957815161135088826112f3565b975061135b8361130b565b92505060018101905061133c565b5085935050505092915050565b600081519050919050565b600082825260208201905092915050565b6000819050602082019050919050565b6113ab816111eb565b82525050565b60006113bd83836113a2565b60208301905092915050565b6000602082019050919050565b60006113e182611376565b6113eb8185611381565b93506113f683611392565b8060005b8381101561142757815161140e88826113b1565b9750611419836113c9565b9250506001810190506113fa565b5085935050505092915050565b600081519050919050565b600082825260208201905092915050565b60005b8381101561146e578082015181840152602081019050611453565b60008484015250505050565b6000601f19601f8301169050919050565b600061149682611434565b6114a0818561143f565b93506114b0818560208601611450565b6114b98161147a565b840191505092915050565b60006fffffffffffffffffffffffffffffffff82169050919050565b6114e9816114c4565b82525050565b600063ffffffff82169050919050565b611508816114ef565b82525050565b600061010083016000830151848203600086015261152c8282611318565b9150506020830151848203602086015261154682826113d6565b91505060408301518482036040860152611560828261148b565b9150506060830151848203606086015261157a828261148b565b915050608083015161158f60808601826114e0565b5060a08301516115a260a08601826114e0565b5060c08301516115b560c08601826114ff565b5060e08301516115c860e08601826114ff565b508091505092915050565b600060208201905081810360008301526115ed818461150e565b905092915050565b600080fd5b7f4e487b7100000000000000000000000000000000000000000000000000000000600052604160045260246000fd5b6116328261147a565b810181811067ffffffffffffffff82111715611651576116506115fa565b5b80604052505050565b6000611664611179565b90506116708282611629565b919050565b600067ffffffffffffffff8211156116905761168f6115fa565b5b602082029050602081019050919050565b600080fd5b60006116b96116b484611675565b61165a565b905080838252602082019050602084028301858111156116dc576116db6116a1565b5b835b8181101561170557806116f188826111d6565b8452602084019350506020810190506116de565b5050509392505050565b600082601f830112611724576117236115f5565b5b81356117348482602086016116a6565b91505092915050565b600067ffffffffffffffff821115611758576117576115fa565b5b602082029050602081019050919050565b600061177c6117778461173d565b61165a565b9050808382526020820190506020840283018581111561179f5761179e6116a1565b5b835b818110156117c857806117b4888261120c565b8452602084019350506020810190506117a1565b5050509392505050565b600082601f8301126117e7576117e66115f5565b5b81356117f7848260208601611769565b91505092915050565b600080fd5b60008083601f84011261181b5761181a6115f5565b5b8235905067ffffffffffffffff81111561183857611837611800565b5b602083019150836001820283011115611854576118536116a1565b5b9250929050565b611864816114c4565b811461186f57600080fd5b50565b6000813590506118818161185b565b92915050565b611890816114ef565b811461189b57600080fd5b50565b6000813590506118ad81611887565b92915050565b6000806000806000806000806000806101008b8d0312156118d7576118d6611183565b5b60008b013567ffffffffffffffff8111156118f5576118f4611188565b5b6119018d828e0161170f565b9a505060208b013567ffffffffffffffff81111561192257611921611188565b5b61192e8d828e016117d2565b99505060408b013567ffffffffffffffff81111561194f5761194e611188565b5b61195b8d828e01611805565b985098505060608b013567ffffffffffffffff81111561197e5761197d611188565b5b61198a8d828e01611805565b9650965050608061199d8d828e01611872565b94505060a06119ae8d828e01611872565b93505060c06119bf8d828e0161189e565b92505060e06119d08d828e0161189e565b9150509295989b9194979a5092959850565b600082825260208201905092915050565b60006119fe82611376565b611a0881856119e2565b9350611a1383611392565b8060005b83811015611a44578151611a2b88826113b1565b9750611a36836113c9565b925050600181019050611a17565b5085935050505092915050565b60006020820190508181036000830152611a6b81846119f3565b905092915050565b600082825260208201905092915050565b6000611a8f82611434565b611a998185611a73565b9350611aa9818560208601611450565b611ab28161147a565b840191505092915050565b611ac6816114c4565b82525050565b611ad5816114ef565b82525050565b600060c0820190508181036000830152611af58189611a84565b90508181036020830152611b098188611a84565b9050611b186040830187611abd565b611b256060830186611abd565b611b326080830185611acc565b611b3f60a0830184611acc565b979650505050505050565b600060208284031215611b6057611b5f611183565b5b6000611b6e848285016111d6565b91505092915050565b600081519050919050565b600082825260208201905092915050565b6000819050602082019050919050565b6000610100830160008301518482036000860152611bc18282611318565b91505060208301518482036020860152611bdb82826113d6565b91505060408301518482036040860152611bf5828261148b565b91505060608301518482036060860152611c0f828261148b565b9150506080830151611c2460808601826114e0565b5060a0830151611c3760a08601826114e0565b5060c0830151611c4a60c08601826114ff565b5060e0830151611c5d60e08601826114ff565b508091505092915050565b6000611c748383611ba3565b905092915050565b6000602082019050919050565b6000611c9482611b77565b611c9e8185611b82565b935083602082028501611cb085611b93565b8060005b85811015611cec5784840389528151611ccd8582611c68565b9450611cd883611c7c565b925060208a01995050600181019050611cb4565b50829750879550505050505092915050565b60006020820190508181036000830152611d188184611c89565b905092915050565b7f4e487b7100000000000000000000000000000000000000000000000000000000600052602260045260246000fd5b60006002820490506001821680611d6757607f821691505b602082108103611d7a57611d79611d20565b5b50919050565b60008190508160005260206000209050919050565b60006020601f8301049050919050565b600082821b905092915050565b600060088302611de27fffffffffffffffffffffffffffffffffffffffffffffffffffffffffffffffff82611da5565b611dec8683611da5565b95508019841693508086168417925050509392505050565b6000819050919050565b6000611e29611e24611e1f846111eb565b611e04565b6111eb565b9050919050565b6000819050919050565b611e4383611e0e565b611e57611e4f82611e30565b848454611db2565b825550505050565b600090565b611e6c611e5f565b611e77818484611e3a565b505050565b5b81811015611e9b57611e90600082611e64565b600181019050611e7d565b5050565b601f821115611ee057611eb181611d80565b611eba84611d95565b81016020851015611ec9578190505b611edd611ed585611d95565b830182611e7c565b50505b505050565b600082821c905092915050565b6000611f0360001984600802611ee5565b1980831691505092915050565b6000611f1c8383611ef2565b9150826002028217905092915050565b611f3582611434565b67ffffffffffffffff811115611f4e57611f4d6115fa565b5b611f588254611d4f565b611f63828285611e9f565b600060209050601f831160018114611f965760008415611f84578287015190505b611f8e8582611f10565b865550611ff6565b601f198416611fa486611d80565b60005b82811015611fcc57848901518255600182019150602085019450602081019050611fa7565b86831015611fe95784890151611fe5601f891682611ef2565b8355505b6001600288020188555050505b505050505050565b600082825260208201905092915050565b600061201a826112b8565b6120248185611ffe565b935061202f836112d4565b8060005b8381101561206057815161204788826112f3565b97506120528361130b565b925050600181019050612033565b5085935050505092915050565b82818337600083830152505050565b60006120888385611a73565b935061209583858461206d565b61209e8361147a565b840190509392505050565b6000610120820190506120bf600083018e611261565b81810360208301526120d1818d61200f565b905081810360408301526120e5818c6119f3565b905081810360608301526120fa818a8c61207c565b9050818103608083015261210f81888a61207c565b905061211e60a0830187611abd565b61212b60c0830186611abd565b61213860e0830185611acc565b612146610100830184611acc565b9c9b505050505050505050505050565b7f4e487b7100000000000000000000000000000000000000000000000000000000600052601160045260246000fd5b6000612190826111eb565b91507fffffffffffffffffffffffffffffffffffffffffffffffffffffffffffffffff82036121c2576121c1612156565b5b600182019050919050565b7f4e487b7100000000000000000000000000000000000000000000000000000000600052603260045260246000fdfea26469706673582212202c5041e5c1a73d835288be0219ab0ca286438d43ae3113c42d76d7891142705864736f6c63430008130033",
					"opcodes": "PUSH1 0x80 PUSH1 0x40 MSTORE PUSH1 0x1 PUSH1 0x0 SSTORE CALLVALUE DUP1 ISZERO PUSH2 0x15 JUMPI PUSH1 0x0 DUP1 REVERT JUMPDEST POP PUSH2 0x2232 DUP1 PUSH2 0x25 PUSH1 0x0 CODECOPY PUSH1 0x0 RETURN INVALID PUSH1 0x80 PUSH1 0x40 MSTORE CALLVALUE DUP1 ISZERO PUSH2 0x10 JUMPI PUSH1 0x0 DUP1 REVERT JUMPDEST POP PUSH1 0x4 CALLDATASIZE LT PUSH2 0x7D JUMPI PUSH1 0x0 CALLDATALOAD PUSH1 0xE0 SHR DUP1 PUSH4 0x9C9ED59F GT PUSH2 0x5B JUMPI DUP1 PUSH4 0x9C9ED59F EQ PUSH2 0xFE JUMPI DUP1 PUSH4 0x9E9C191D EQ PUSH2 0x11C JUMPI DUP1 PUSH4 0xED90C7B7 EQ PUSH2 0x151 JUMPI DUP1 PUSH4 0xF1AFFF56 EQ PUSH2 0x16D JUMPI PUSH2 0x7D JUMP JUMPDEST DUP1 PUSH4 0x21C6F9E5 EQ PUSH2 0x82 JUMPI DUP1 PUSH4 0x2E1F9763 EQ PUSH2 0xB2 JUMPI DUP1 PUSH4 0x7D28C7DE EQ PUSH2 0xE2 JUMPI JUMPDEST PUSH1 0x0 DUP1 REVERT JUMPDEST PUSH2 0x9C PUSH1 0x4 DUP1 CALLDATASIZE SUB DUP2 ADD SWAP1 PUSH2 0x97 SWAP2 SWAP1 PUSH2 0x1221 JUMP JUMPDEST PUSH2 0x19D JUMP JUMPDEST PUSH1 0x40 MLOAD PUSH2 0xA9 SWAP2 SWAP1 PUSH2 0x1270 JUMP JUMPDEST PUSH1 0x40 MLOAD DUP1 SWAP2 SUB SWAP1 RETURN JUMPDEST PUSH2 0xCC PUSH1 0x4 DUP1 CALLDATASIZE SUB DUP2 ADD SWAP1 PUSH2 0xC7 SWAP2 SWAP1 PUSH2 0x128B JUMP JUMPDEST PUSH2 0x1CE JUMP JUMPDEST PUSH1 0x40 MLOAD PUSH2 0xD9 SWAP2 SWAP1 PUSH2 0x15D3 JUMP JUMPDEST PUSH1 0x40 MLOAD DUP1 SWAP2 SUB SWAP1 RETURN JUMPDEST PUSH2 0xFC PUSH1 0x4 DUP1 CALLDATASIZE SUB DUP2 ADD SWAP1 PUSH2 0xF7 SWAP2 SWAP1 PUSH2 0x18B3 JUMP JUMPDEST PUSH2 0x4E6 JUMP JUMPDEST STOP JUMPDEST PUSH2 0x106 PUSH2 0x7F9 JUMP JUMPDEST PUSH1 0x40 MLOAD PUSH2 0x113 SWAP2 SWAP1 PUSH2 0x1A51 JUMP JUMPDEST PUSH1 0x40 MLOAD DUP1 SWAP2 SUB SWAP1 RETURN JUMPDEST PUSH2 0x136 PUSH1 0x4 DUP1 CALLDATASIZE SUB DUP2 ADD SWAP1 PUSH2 0x131 SWAP2 SWAP1 PUSH2 0x128B JUMP JUMPDEST PUSH2 0x88E JUMP JUMPDEST PUSH1 0x40 MLOAD PUSH2 0x148 SWAP7 SWAP6 SWAP5 SWAP4 SWAP3 SWAP2 SWAP1 PUSH2 0x1ADB JUMP JUMPDEST PUSH1 0x40 MLOAD DUP1 SWAP2 SUB SWAP1 RETURN JUMPDEST PUSH2 0x16B PUSH1 0x4 DUP1 CALLDATASIZE SUB DUP2 ADD SWAP1 PUSH2 0x166 SWAP2 SWAP1 PUSH2 0x128B JUMP JUMPDEST PUSH2 0xA32 JUMP JUMPDEST STOP JUMPDEST PUSH2 0x187 PUSH1 0x4 DUP1 CALLDATASIZE SUB DUP2 ADD SWAP1 PUSH2 0x182 SWAP2 SWAP1 PUSH2 0x1B4A JUMP JUMPDEST PUSH2 0xB36 JUMP JUMPDEST PUSH1 0x40 MLOAD PUSH2 0x194 SWAP2 SWAP1 PUSH2 0x1CFE JUMP JUMPDEST PUSH1 0x40 MLOAD DUP1 SWAP2 SUB SWAP1 RETURN JUMPDEST PUSH1 0x3 PUSH1 0x20 MSTORE DUP2 PUSH1 0x0 MSTORE PUSH1 0x40 PUSH1 0x0 KECCAK256 DUP2 DUP2 SLOAD DUP2 LT PUSH2 0x1B9 JUMPI PUSH1 0x0 DUP1 REVERT JUMPDEST SWAP1 PUSH1 0x0 MSTORE PUSH1 0x20 PUSH1 0x0 KECCAK256 ADD PUSH1 0x0 SWAP2 POP SWAP2 POP POP SLOAD DUP2 JUMP JUMPDEST PUSH2 0x1D6 PUSH2 0xF8E JUMP JUMPDEST PUSH1 0x2 PUSH1 0x0 DUP4 DUP2 MSTORE PUSH1 0x20 ADD SWAP1 DUP2 MSTORE PUSH1 0x20 ADD PUSH1 0x0 KECCAK256 PUSH1 0x40 MLOAD DUP1 PUSH2 0x100 ADD PUSH1 0x40 MSTORE SWAP1 DUP2 PUSH1 0x0 DUP3 ADD DUP1 SLOAD DUP1 PUSH1 0x20 MUL PUSH1 0x20 ADD PUSH1 0x40 MLOAD SWAP1 DUP2 ADD PUSH1 0x40 MSTORE DUP1 SWAP3 SWAP2 SWAP1 DUP2 DUP2 MSTORE PUSH1 0x20 ADD DUP3 DUP1 SLOAD DUP1 ISZERO PUSH2 0x27A JUMPI PUSH1 0x20 MUL DUP3 ADD SWAP2 SWAP1 PUSH1 0x0 MSTORE PUSH1 0x20 PUSH1 0x0 KECCAK256 SWAP1 JUMPDEST DUP2 PUSH1 0x0 SWAP1 SLOAD SWAP1 PUSH2 0x100 EXP SWAP1 DIV PUSH20 0xFFFFFFFFFFFFFFFFFFFFFFFFFFFFFFFFFFFFFFFF AND PUSH20 0xFFFFFFFFFFFFFFFFFFFFFFFFFFFFFFFFFFFFFFFF AND DUP2 MSTORE PUSH1 0x20 ADD SWAP1 PUSH1 0x1 ADD SWAP1 DUP1 DUP4 GT PUSH2 0x230 JUMPI JUMPDEST POP POP POP POP POP DUP2 MSTORE PUSH1 0x20 ADD PUSH1 0x1 DUP3 ADD DUP1 SLOAD DUP1 PUSH1 0x20 MUL PUSH1 0x20 ADD PUSH1 0x40 MLOAD SWAP1 DUP2 ADD PUSH1 0x40 MSTORE DUP1 SWAP3 SWAP2 SWAP1 DUP2 DUP2 MSTORE PUSH1 0x20 ADD DUP3 DUP1 SLOAD DUP1 ISZERO PUSH2 0x2D2 JUMPI PUSH1 0x20 MUL DUP3 ADD SWAP2 SWAP1 PUSH1 0x0 MSTORE PUSH1 0x20 PUSH1 0x0 KECCAK256 SWAP1 JUMPDEST DUP2 SLOAD DUP2 MSTORE PUSH1 0x20 ADD SWAP1 PUSH1 0x1 ADD SWAP1 DUP1 DUP4 GT PUSH2 0x2BE JUMPI JUMPDEST POP POP POP POP POP DUP2 MSTORE PUSH1 0x20 ADD PUSH1 0x2 DUP3 ADD DUP1 SLOAD PUSH2 0x2EB SWAP1 PUSH2 0x1D4F JUMP JUMPDEST DUP1 PUSH1 0x1F ADD PUSH1 0x20 DUP1 SWAP2 DIV MUL PUSH1 0x20 ADD PUSH1 0x40 MLOAD SWAP1 DUP2 ADD PUSH1 0x40 MSTORE DUP1 SWAP3 SWAP2 SWAP1 DUP2 DUP2 MSTORE PUSH1 0x20 ADD DUP3 DUP1 SLOAD PUSH2 0x317 SWAP1 PUSH2 0x1D4F JUMP JUMPDEST DUP1 ISZERO PUSH2 0x364 JUMPI DUP1 PUSH1 0x1F LT PUSH2 0x339 JUMPI PUSH2 0x100 DUP1 DUP4 SLOAD DIV MUL DUP4 MSTORE SWAP2 PUSH1 0x20 ADD SWAP2 PUSH2 0x364 JUMP JUMPDEST DUP3 ADD SWAP2 SWAP1 PUSH1 0x0 MSTORE PUSH1 0x20 PUSH1 0x0 KECCAK256 SWAP1 JUMPDEST DUP2 SLOAD DUP2 MSTORE SWAP1 PUSH1 0x1 ADD SWAP1 PUSH1 0x20 ADD DUP1 DUP4 GT PUSH2 0x347 JUMPI DUP3 SWAP1 SUB PUSH1 0x1F AND DUP3 ADD SWAP2 JUMPDEST POP POP POP POP POP DUP2 MSTORE PUSH1 0x20 ADD PUSH1 0x3 DUP3 ADD DUP1 SLOAD PUSH2 0x37D SWAP1 PUSH2 0x1D4F JUMP JUMPDEST DUP1 PUSH1 0x1F ADD PUSH1 0x20 DUP1 SWAP2 DIV MUL PUSH1 0x20 ADD PUSH1 0x40 MLOAD SWAP1 DUP2 ADD PUSH1 0x40 MSTORE DUP1 SWAP3 SWAP2 SWAP1 DUP2 DUP2 MSTORE PUSH1 0x20 ADD DUP3 DUP1 SLOAD PUSH2 0x3A9 SWAP1 PUSH2 0x1D4F JUMP JUMPDEST DUP1 ISZERO PUSH2 0x3F6 JUMPI DUP1 PUSH1 0x1F LT PUSH2 0x3CB JUMPI PUSH2 0x100 DUP1 DUP4 SLOAD DIV MUL DUP4 MSTORE SWAP2 PUSH1 0x20 ADD SWAP2 PUSH2 0x3F6 JUMP JUMPDEST DUP3 ADD SWAP2 SWAP1 PUSH1 0x0 MSTORE PUSH1 0x20 PUSH1 0x0 KECCAK256 SWAP1 JUMPDEST DUP2 SLOAD DUP2 MSTORE SWAP1 PUSH1 0x1 ADD SWAP1 PUSH1 0x20 ADD DUP1 DUP4 GT PUSH2 0x3D9 JUMPI DUP3 SWAP1 SUB PUSH1 0x1F AND DUP3 ADD SWAP2 JUMPDEST POP POP POP POP POP DUP2 MSTORE PUSH1 0x20 ADD PUSH1 0x4 DUP3 ADD PUSH1 0x0 SWAP1 SLOAD SWAP1 PUSH2 0x100 EXP SWAP1 DIV PUSH16 0xFFFFFFFFFFFFFFFFFFFFFFFFFFFFFFFF AND PUSH16 0xFFFFFFFFFFFFFFFFFFFFFFFFFFFFFFFF AND PUSH16 0xFFFFFFFFFFFFFFFFFFFFFFFFFFFFFFFF AND DUP2 MSTORE PUSH1 0x20 ADD PUSH1 0x4 DUP3 ADD PUSH1 0x10 SWAP1 SLOAD SWAP1 PUSH2 0x100 EXP SWAP1 DIV PUSH16 0xFFFFFFFFFFFFFFFFFFFFFFFFFFFFFFFF AND PUSH16 0xFFFFFFFFFFFFFFFFFFFFFFFFFFFFFFFF AND PUSH16 0xFFFFFFFFFFFFFFFFFFFFFFFFFFFFFFFF AND DUP2 MSTORE PUSH1 0x20 ADD PUSH1 0x5 DUP3 ADD PUSH1 0x0 SWAP1 SLOAD SWAP1 PUSH2 0x100 EXP SWAP1 DIV PUSH4 0xFFFFFFFF AND PUSH4 0xFFFFFFFF AND PUSH4 0xFFFFFFFF AND DUP2 MSTORE PUSH1 0x20 ADD PUSH1 0x5 DUP3 ADD PUSH1 0x4 SWAP1 SLOAD SWAP1 PUSH2 0x100 EXP SWAP1 DIV PUSH4 0xFFFFFFFF AND PUSH4 0xFFFFFFFF AND PUSH4 0xFFFFFFFF AND DUP2 MSTORE POP POP SWAP1 POP SWAP2 SWAP1 POP JUMP JUMPDEST PUSH1 0x40 MLOAD DUP1 PUSH2 0x100 ADD PUSH1 0x40 MSTORE DUP1 DUP12 DUP2 MSTORE PUSH1 0x20 ADD DUP11 DUP2 MSTORE PUSH1 0x20 ADD DUP10 DUP10 DUP1 DUP1 PUSH1 0x1F ADD PUSH1 0x20 DUP1 SWAP2 DIV MUL PUSH1 0x20 ADD PUSH1 0x40 MLOAD SWAP1 DUP2 ADD PUSH1 0x40 MSTORE DUP1 SWAP4 SWAP3 SWAP2 SWAP1 DUP2 DUP2 MSTORE PUSH1 0x20 ADD DUP4 DUP4 DUP1 DUP3 DUP5 CALLDATACOPY PUSH1 0x0 DUP2 DUP5 ADD MSTORE PUSH1 0x1F NOT PUSH1 0x1F DUP3 ADD AND SWAP1 POP DUP1 DUP4 ADD SWAP3 POP POP POP POP POP POP POP DUP2 MSTORE PUSH1 0x20 ADD DUP8 DUP8 DUP1 DUP1 PUSH1 0x1F ADD PUSH1 0x20 DUP1 SWAP2 DIV MUL PUSH1 0x20 ADD PUSH1 0x40 MLOAD SWAP1 DUP2 ADD PUSH1 0x40 MSTORE DUP1 SWAP4 SWAP3 SWAP2 SWAP1 DUP2 DUP2 MSTORE PUSH1 0x20 ADD DUP4 DUP4 DUP1 DUP3 DUP5 CALLDATACOPY PUSH1 0x0 DUP2 DUP5 ADD MSTORE PUSH1 0x1F NOT PUSH1 0x1F DUP3 ADD AND SWAP1 POP DUP1 DUP4 ADD SWAP3 POP POP POP POP POP POP POP DUP2 MSTORE PUSH1 0x20 ADD DUP6 PUSH16 0xFFFFFFFFFFFFFFFFFFFFFFFFFFFFFFFF AND DUP2 MSTORE PUSH1 0x20 ADD DUP5 PUSH16 0xFFFFFFFFFFFFFFFFFFFFFFFFFFFFFFFF AND DUP2 MSTORE PUSH1 0x20 ADD DUP4 PUSH4 0xFFFFFFFF AND DUP2 MSTORE PUSH1 0x20 ADD DUP3 PUSH4 0xFFFFFFFF AND DUP2 MSTORE POP PUSH1 0x2 PUSH1 0x0 DUP1 SLOAD DUP2 MSTORE PUSH1 0x20 ADD SWAP1 DUP2 MSTORE PUSH1 0x20 ADD PUSH1 0x0 KECCAK256 PUSH1 0x0 DUP3 ADD MLOAD DUP2 PUSH1 0x0 ADD SWAP1 DUP1 MLOAD SWAP1 PUSH1 0x20 ADD SWAP1 PUSH2 0x608 SWAP3 SWAP2 SWAP1 PUSH2 0x1003 JUMP JUMPDEST POP PUSH1 0x20 DUP3 ADD MLOAD DUP2 PUSH1 0x1 ADD SWAP1 DUP1 MLOAD SWAP1 PUSH1 0x20 ADD SWAP1 PUSH2 0x625 SWAP3 SWAP2 SWAP1 PUSH2 0x108D JUMP JUMPDEST POP PUSH1 0x40 DUP3 ADD MLOAD DUP2 PUSH1 0x2 ADD SWAP1 DUP2 PUSH2 0x63B SWAP2 SWAP1 PUSH2 0x1F2C JUMP JUMPDEST POP PUSH1 0x60 DUP3 ADD MLOAD DUP2 PUSH1 0x3 ADD SWAP1 DUP2 PUSH2 0x651 SWAP2 SWAP1 PUSH2 0x1F2C JUMP JUMPDEST POP PUSH1 0x80 DUP3 ADD MLOAD DUP2 PUSH1 0x4 ADD PUSH1 0x0 PUSH2 0x100 EXP DUP2 SLOAD DUP2 PUSH16 0xFFFFFFFFFFFFFFFFFFFFFFFFFFFFFFFF MUL NOT AND SWAP1 DUP4 PUSH16 0xFFFFFFFFFFFFFFFFFFFFFFFFFFFFFFFF AND MUL OR SWAP1 SSTORE POP PUSH1 0xA0 DUP3 ADD MLOAD DUP2 PUSH1 0x4 ADD PUSH1 0x10 PUSH2 0x100 EXP DUP2 SLOAD DUP2 PUSH16 0xFFFFFFFFFFFFFFFFFFFFFFFFFFFFFFFF MUL NOT AND SWAP1 DUP4 PUSH16 0xFFFFFFFFFFFFFFFFFFFFFFFFFFFFFFFF AND MUL OR SWAP1 SSTORE POP PUSH1 0xC0 DUP3 ADD MLOAD DUP2 PUSH1 0x5 ADD PUSH1 0x0 PUSH2 0x100 EXP DUP2 SLOAD DUP2 PUSH4 0xFFFFFFFF MUL NOT AND SWAP1 DUP4 PUSH4 0xFFFFFFFF AND MUL OR SWAP1 SSTORE POP PUSH1 0xE0 DUP3 ADD MLOAD DUP2 PUSH1 0x5 ADD PUSH1 0x4 PUSH2 0x100 EXP DUP2 SLOAD DUP2 PUSH4 0xFFFFFFFF MUL NOT AND SWAP1 DUP4 PUSH4 0xFFFFFFFF AND MUL OR SWAP1 SSTORE POP SWAP1 POP POP PUSH1 0x3 PUSH1 0x0 CALLER PUSH20 0xFFFFFFFFFFFFFFFFFFFFFFFFFFFFFFFFFFFFFFFF AND PUSH20 0xFFFFFFFFFFFFFFFFFFFFFFFFFFFFFFFFFFFFFFFF AND DUP2 MSTORE PUSH1 0x20 ADD SWAP1 DUP2 MSTORE PUSH1 0x20 ADD PUSH1 0x0 KECCAK256 PUSH1 0x0 SLOAD SWAP1 DUP1 PUSH1 0x1 DUP2 SLOAD ADD DUP1 DUP3 SSTORE DUP1 SWAP2 POP POP PUSH1 0x1 SWAP1 SUB SWAP1 PUSH1 0x0 MSTORE PUSH1 0x20 PUSH1 0x0 KECCAK256 ADD PUSH1 0x0 SWAP1 SWAP2 SWAP1 SWAP2 SWAP1 SWAP2 POP SSTORE PUSH32 0x6CB3D046D7C4F38EB3876686D1C24375D3D3687A644AD4C396E3264375B85903 PUSH1 0x0 SLOAD DUP12 DUP12 DUP12 DUP12 DUP12 DUP12 DUP12 DUP12 DUP12 DUP12 PUSH1 0x40 MLOAD PUSH2 0x7CE SWAP12 SWAP11 SWAP10 SWAP9 SWAP8 SWAP7 SWAP6 SWAP5 SWAP4 SWAP3 SWAP2 SWAP1 PUSH2 0x20A9 JUMP JUMPDEST PUSH1 0x40 MLOAD DUP1 SWAP2 SUB SWAP1 LOG1 PUSH1 0x0 DUP1 DUP2 SLOAD DUP1 SWAP3 SWAP2 SWAP1 PUSH2 0x7E8 SWAP1 PUSH2 0x2185 JUMP JUMPDEST SWAP2 SWAP1 POP SSTORE POP POP POP POP POP POP POP POP POP POP POP JUMP JUMPDEST PUSH1 0x60 PUSH1 0x3 PUSH1 0x0 CALLER PUSH20 0xFFFFFFFFFFFFFFFFFFFFFFFFFFFFFFFFFFFFFFFF AND PUSH20 0xFFFFFFFFFFFFFFFFFFFFFFFFFFFFFFFFFFFFFFFF AND DUP2 MSTORE PUSH1 0x20 ADD SWAP1 DUP2 MSTORE PUSH1 0x20 ADD PUSH1 0x0 KECCAK256 DUP1 SLOAD DUP1 PUSH1 0x20 MUL PUSH1 0x20 ADD PUSH1 0x40 MLOAD SWAP1 DUP2 ADD PUSH1 0x40 MSTORE DUP1 SWAP3 SWAP2 SWAP1 DUP2 DUP2 MSTORE PUSH1 0x20 ADD DUP3 DUP1 SLOAD DUP1 ISZERO PUSH2 0x884 JUMPI PUSH1 0x20 MUL DUP3 ADD SWAP2 SWAP1 PUSH1 0x0 MSTORE PUSH1 0x20 PUSH1 0x0 KECCAK256 SWAP1 JUMPDEST DUP2 SLOAD DUP2 MSTORE PUSH1 0x20 ADD SWAP1 PUSH1 0x1 ADD SWAP1 DUP1 DUP4 GT PUSH2 0x870 JUMPI JUMPDEST POP POP POP POP POP SWAP1 POP SWAP1 JUMP JUMPDEST PUSH1 0x2 PUSH1 0x20 MSTORE DUP1 PUSH1 0x0 MSTORE PUSH1 0x40 PUSH1 0x0 KECCAK256 PUSH1 0x0 SWAP2 POP SWAP1 POP DUP1 PUSH1 0x2 ADD DUP1 SLOAD PUSH2 0x8B1 SWAP1 PUSH2 0x1D4F JUMP JUMPDEST DUP1 PUSH1 0x1F ADD PUSH1 0x20 DUP1 SWAP2 DIV MUL PUSH1 0x20 ADD PUSH1 0x40 MLOAD SWAP1 DUP2 ADD PUSH1 0x40 MSTORE DUP1 SWAP3 SWAP2 SWAP1 DUP2 DUP2 MSTORE PUSH1 0x20 ADD DUP3 DUP1 SLOAD PUSH2 0x8DD SWAP1 PUSH2 0x1D4F JUMP JUMPDEST DUP1 ISZERO PUSH2 0x92A JUMPI DUP1 PUSH1 0x1F LT PUSH2 0x8FF JUMPI PUSH2 0x100 DUP1 DUP4 SLOAD DIV MUL DUP4 MSTORE SWAP2 PUSH1 0x20 ADD SWAP2 PUSH2 0x92A JUMP JUMPDEST DUP3 ADD SWAP2 SWAP1 PUSH1 0x0 MSTORE PUSH1 0x20 PUSH1 0x0 KECCAK256 SWAP1 JUMPDEST DUP2 SLOAD DUP2 MSTORE SWAP1 PUSH1 0x1 ADD SWAP1 PUSH1 0x20 ADD DUP1 DUP4 GT PUSH2 0x90D JUMPI DUP3 SWAP1 SUB PUSH1 0x1F AND DUP3 ADD SWAP2 JUMPDEST POP POP POP POP POP SWAP1 DUP1 PUSH1 0x3 ADD DUP1 SLOAD PUSH2 0x93F SWAP1 PUSH2 0x1D4F JUMP JUMPDEST DUP1 PUSH1 0x1F ADD PUSH1 0x20 DUP1 SWAP2 DIV MUL PUSH1 0x20 ADD PUSH1 0x40 MLOAD SWAP1 DUP2 ADD PUSH1 0x40 MSTORE DUP1 SWAP3 SWAP2 SWAP1 DUP2 DUP2 MSTORE PUSH1 0x20 ADD DUP3 DUP1 SLOAD PUSH2 0x96B SWAP1 PUSH2 0x1D4F JUMP JUMPDEST DUP1 ISZERO PUSH2 0x9B8 JUMPI DUP1 PUSH1 0x1F LT PUSH2 0x98D JUMPI PUSH2 0x100 DUP1 DUP4 SLOAD DIV MUL DUP4 MSTORE SWAP2 PUSH1 0x20 ADD SWAP2 PUSH2 0x9B8 JUMP JUMPDEST DUP3 ADD SWAP2 SWAP1 PUSH1 0x0 MSTORE PUSH1 0x20 PUSH1 0x0 KECCAK256 SWAP1 JUMPDEST DUP2 SLOAD DUP2 MSTORE SWAP1 PUSH1 0x1 ADD SWAP1 PUSH1 0x20 ADD DUP1 DUP4 GT PUSH2 0x99B JUMPI DUP3 SWAP1 SUB PUSH1 0x1F AND DUP3 ADD SWAP2 JUMPDEST POP POP POP POP POP SWAP1 DUP1 PUSH1 0x4 ADD PUSH1 0x0 SWAP1 SLOAD SWAP1 PUSH2 0x100 EXP SWAP1 DIV PUSH16 0xFFFFFFFFFFFFFFFFFFFFFFFFFFFFFFFF AND SWAP1 DUP1 PUSH1 0x4 ADD PUSH1 0x10 SWAP1 SLOAD SWAP1 PUSH2 0x100 EXP SWAP1 DIV PUSH16 0xFFFFFFFFFFFFFFFFFFFFFFFFFFFFFFFF AND SWAP1 DUP1 PUSH1 0x5 ADD PUSH1 0x0 SWAP1 SLOAD SWAP1 PUSH2 0x100 EXP SWAP1 DIV PUSH4 0xFFFFFFFF AND SWAP1 DUP1 PUSH1 0x5 ADD PUSH1 0x4 SWAP1 SLOAD SWAP1 PUSH2 0x100 EXP SWAP1 DIV PUSH4 0xFFFFFFFF AND SWAP1 POP DUP7 JUMP JUMPDEST PUSH1 0x2 PUSH1 0x0 DUP3 DUP2 MSTORE PUSH1 0x20 ADD SWAP1 DUP2 MSTORE PUSH1 0x20 ADD PUSH1 0x0 KECCAK256 PUSH1 0x0 DUP1 DUP3 ADD PUSH1 0x0 PUSH2 0xA56 SWAP2 SWAP1 PUSH2 0x10DA JUMP JUMPDEST PUSH1 0x1 DUP3 ADD PUSH1 0x0 PUSH2 0xA66 SWAP2 SWAP1 PUSH2 0x10FB JUMP JUMPDEST PUSH1 0x2 DUP3 ADD PUSH1 0x0 PUSH2 0xA76 SWAP2 SWAP1 PUSH2 0x111C JUMP JUMPDEST PUSH1 0x3 DUP3 ADD PUSH1 0x0 PUSH2 0xA86 SWAP2 SWAP1 PUSH2 0x111C JUMP JUMPDEST PUSH1 0x4 DUP3 ADD PUSH1 0x0 PUSH2 0x100 EXP DUP2 SLOAD SWAP1 PUSH16 0xFFFFFFFFFFFFFFFFFFFFFFFFFFFFFFFF MUL NOT AND SWAP1 SSTORE PUSH1 0x4 DUP3 ADD PUSH1 0x10 PUSH2 0x100 EXP DUP2 SLOAD SWAP1 PUSH16 0xFFFFFFFFFFFFFFFFFFFFFFFFFFFFFFFF MUL NOT AND SWAP1 SSTORE PUSH1 0x5 DUP3 ADD PUSH1 0x0 PUSH2 0x100 EXP DUP2 SLOAD SWAP1 PUSH4 0xFFFFFFFF MUL NOT AND SWAP1 SSTORE PUSH1 0x5 DUP3 ADD PUSH1 0x4 PUSH2 0x100 EXP DUP2 SLOAD SWAP1 PUSH4 0xFFFFFFFF MUL NOT AND SWAP1 SSTORE POP POP PUSH32 0xE998FC65A4459EB15332384E57A24F5672951BFDD9B2804CC635DD4AD0A10CD DUP2 PUSH1 0x40 MLOAD PUSH2 0xB2B SWAP2 SWAP1 PUSH2 0x1270 JUMP JUMPDEST PUSH1 0x40 MLOAD DUP1 SWAP2 SUB SWAP1 LOG1 POP JUMP JUMPDEST PUSH1 0x60 PUSH1 0x0 PUSH1 0x3 PUSH1 0x0 DUP5 PUSH20 0xFFFFFFFFFFFFFFFFFFFFFFFFFFFFFFFFFFFFFFFF AND PUSH20 0xFFFFFFFFFFFFFFFFFFFFFFFFFFFFFFFFFFFFFFFF AND DUP2 MSTORE PUSH1 0x20 ADD SWAP1 DUP2 MSTORE PUSH1 0x20 ADD PUSH1 0x0 KECCAK256 DUP1 SLOAD DUP1 PUSH1 0x20 MUL PUSH1 0x20 ADD PUSH1 0x40 MLOAD SWAP1 DUP2 ADD PUSH1 0x40 MSTORE DUP1 SWAP3 SWAP2 SWAP1 DUP2 DUP2 MSTORE PUSH1 0x20 ADD DUP3 DUP1 SLOAD DUP1 ISZERO PUSH2 0xBC3 JUMPI PUSH1 0x20 MUL DUP3 ADD SWAP2 SWAP1 PUSH1 0x0 MSTORE PUSH1 0x20 PUSH1 0x0 KECCAK256 SWAP1 JUMPDEST DUP2 SLOAD DUP2 MSTORE PUSH1 0x20 ADD SWAP1 PUSH1 0x1 ADD SWAP1 DUP1 DUP4 GT PUSH2 0xBAF JUMPI JUMPDEST POP POP POP POP POP SWAP1 POP PUSH1 0x0 DUP2 MLOAD PUSH8 0xFFFFFFFFFFFFFFFF DUP2 GT ISZERO PUSH2 0xBE7 JUMPI PUSH2 0xBE6 PUSH2 0x15FA JUMP JUMPDEST JUMPDEST PUSH1 0x40 MLOAD SWAP1 DUP1 DUP3 MSTORE DUP1 PUSH1 0x20 MUL PUSH1 0x20 ADD DUP3 ADD PUSH1 0x40 MSTORE DUP1 ISZERO PUSH2 0xC20 JUMPI DUP2 PUSH1 0x20 ADD JUMPDEST PUSH2 0xC0D PUSH2 0xF8E JUMP JUMPDEST DUP2 MSTORE PUSH1 0x20 ADD SWAP1 PUSH1 0x1 SWAP1 SUB SWAP1 DUP2 PUSH2 0xC05 JUMPI SWAP1 POP JUMPDEST POP SWAP1 POP PUSH1 0x0 JUMPDEST DUP3 MLOAD DUP2 LT ISZERO PUSH2 0xF83 JUMPI PUSH1 0x2 PUSH1 0x0 DUP5 DUP4 DUP2 MLOAD DUP2 LT PUSH2 0xC46 JUMPI PUSH2 0xC45 PUSH2 0x21CD JUMP JUMPDEST JUMPDEST PUSH1 0x20 MUL PUSH1 0x20 ADD ADD MLOAD DUP2 MSTORE PUSH1 0x20 ADD SWAP1 DUP2 MSTORE PUSH1 0x20 ADD PUSH1 0x0 KECCAK256 PUSH1 0x40 MLOAD DUP1 PUSH2 0x100 ADD PUSH1 0x40 MSTORE SWAP1 DUP2 PUSH1 0x0 DUP3 ADD DUP1 SLOAD DUP1 PUSH1 0x20 MUL PUSH1 0x20 ADD PUSH1 0x40 MLOAD SWAP1 DUP2 ADD PUSH1 0x40 MSTORE DUP1 SWAP3 SWAP2 SWAP1 DUP2 DUP2 MSTORE PUSH1 0x20 ADD DUP3 DUP1 SLOAD DUP1 ISZERO PUSH2 0xCED JUMPI PUSH1 0x20 MUL DUP3 ADD SWAP2 SWAP1 PUSH1 0x0 MSTORE PUSH1 0x20 PUSH1 0x0 KECCAK256 SWAP1 JUMPDEST DUP2 PUSH1 0x0 SWAP1 SLOAD SWAP1 PUSH2 0x100 EXP SWAP1 DIV PUSH20 0xFFFFFFFFFFFFFFFFFFFFFFFFFFFFFFFFFFFFFFFF AND PUSH20 0xFFFFFFFFFFFFFFFFFFFFFFFFFFFFFFFFFFFFFFFF AND DUP2 MSTORE PUSH1 0x20 ADD SWAP1 PUSH1 0x1 ADD SWAP1 DUP1 DUP4 GT PUSH2 0xCA3 JUMPI JUMPDEST POP POP POP POP POP DUP2 MSTORE PUSH1 0x20 ADD PUSH1 0x1 DUP3 ADD DUP1 SLOAD DUP1 PUSH1 0x20 MUL PUSH1 0x20 ADD PUSH1 0x40 MLOAD SWAP1 DUP2 ADD PUSH1 0x40 MSTORE DUP1 SWAP3 SWAP2 SWAP1 DUP2 DUP2 MSTORE PUSH1 0x20 ADD DUP3 DUP1 SLOAD DUP1 ISZERO PUSH2 0xD45 JUMPI PUSH1 0x20 MUL DUP3 ADD SWAP2 SWAP1 PUSH1 0x0 MSTORE PUSH1 0x20 PUSH1 0x0 KECCAK256 SWAP1 JUMPDEST DUP2 SLOAD DUP2 MSTORE PUSH1 0x20 ADD SWAP1 PUSH1 0x1 ADD SWAP1 DUP1 DUP4 GT PUSH2 0xD31 JUMPI JUMPDEST POP POP POP POP POP DUP2 MSTORE PUSH1 0x20 ADD PUSH1 0x2 DUP3 ADD DUP1 SLOAD PUSH2 0xD5E SWAP1 PUSH2 0x1D4F JUMP JUMPDEST DUP1 PUSH1 0x1F ADD PUSH1 0x20 DUP1 SWAP2 DIV MUL PUSH1 0x20 ADD PUSH1 0x40 MLOAD SWAP1 DUP2 ADD PUSH1 0x40 MSTORE DUP1 SWAP3 SWAP2 SWAP1 DUP2 DUP2 MSTORE PUSH1 0x20 ADD DUP3 DUP1 SLOAD PUSH2 0xD8A SWAP1 PUSH2 0x1D4F JUMP JUMPDEST DUP1 ISZERO PUSH2 0xDD7 JUMPI DUP1 PUSH1 0x1F LT PUSH2 0xDAC JUMPI PUSH2 0x100 DUP1 DUP4 SLOAD DIV MUL DUP4 MSTORE SWAP2 PUSH1 0x20 ADD SWAP2 PUSH2 0xDD7 JUMP JUMPDEST DUP3 ADD SWAP2 SWAP1 PUSH1 0x0 MSTORE PUSH1 0x20 PUSH1 0x0 KECCAK256 SWAP1 JUMPDEST DUP2 SLOAD DUP2 MSTORE SWAP1 PUSH1 0x1 ADD SWAP1 PUSH1 0x20 ADD DUP1 DUP4 GT PUSH2 0xDBA JUMPI DUP3 SWAP1 SUB PUSH1 0x1F AND DUP3 ADD SWAP2 JUMPDEST POP POP POP POP POP DUP2 MSTORE PUSH1 0x20 ADD PUSH1 0x3 DUP3 ADD DUP1 SLOAD PUSH2 0xDF0 SWAP1 PUSH2 0x1D4F JUMP JUMPDEST DUP1 PUSH1 0x1F ADD PUSH1 0x20 DUP1 SWAP2 DIV MUL PUSH1 0x20 ADD PUSH1 0x40 MLOAD SWAP1 DUP2 ADD PUSH1 0x40 MSTORE DUP1 SWAP3 SWAP2 SWAP1 DUP2 DUP2 MSTORE PUSH1 0x20 ADD DUP3 DUP1 SLOAD PUSH2 0xE1C SWAP1 PUSH2 0x1D4F JUMP JUMPDEST DUP1 ISZERO PUSH2 0xE69 JUMPI DUP1 PUSH1 0x1F LT PUSH2 0xE3E JUMPI PUSH2 0x100 DUP1 DUP4 SLOAD DIV MUL DUP4 MSTORE SWAP2 PUSH1 0x20 ADD SWAP2 PUSH2 0xE69 JUMP JUMPDEST DUP3 ADD SWAP2 SWAP1 PUSH1 0x0 MSTORE PUSH1 0x20 PUSH1 0x0 KECCAK256 SWAP1 JUMPDEST DUP2 SLOAD DUP2 MSTORE SWAP1 PUSH1 0x1 ADD SWAP1 PUSH1 0x20 ADD DUP1 DUP4 GT PUSH2 0xE4C JUMPI DUP3 SWAP1 SUB PUSH1 0x1F AND DUP3 ADD SWAP2 JUMPDEST POP POP POP POP POP DUP2 MSTORE PUSH1 0x20 ADD PUSH1 0x4 DUP3 ADD PUSH1 0x0 SWAP1 SLOAD SWAP1 PUSH2 0x100 EXP SWAP1 DIV PUSH16 0xFFFFFFFFFFFFFFFFFFFFFFFFFFFFFFFF AND PUSH16 0xFFFFFFFFFFFFFFFFFFFFFFFFFFFFFFFF AND PUSH16 0xFFFFFFFFFFFFFFFFFFFFFFFFFFFFFFFF AND DUP2 MSTORE PUSH1 0x20 ADD PUSH1 0x4 DUP3 ADD PUSH1 0x10 SWAP1 SLOAD SWAP1 PUSH2 0x100 EXP SWAP1 DIV PUSH16 0xFFFFFFFFFFFFFFFFFFFFFFFFFFFFFFFF AND PUSH16 0xFFFFFFFFFFFFFFFFFFFFFFFFFFFFFFFF AND PUSH16 0xFFFFFFFFFFFFFFFFFFFFFFFFFFFFFFFF AND DUP2 MSTORE PUSH1 0x20 ADD PUSH1 0x5 DUP3 ADD PUSH1 0x0 SWAP1 SLOAD SWAP1 PUSH2 0x100 EXP SWAP1 DIV PUSH4 0xFFFFFFFF AND PUSH4 0xFFFFFFFF AND PUSH4 0xFFFFFFFF AND DUP2 MSTORE PUSH1 0x20 ADD PUSH1 0x5 DUP3 ADD PUSH1 0x4 SWAP1 SLOAD SWAP1 PUSH2 0x100 EXP SWAP1 DIV PUSH4 0xFFFFFFFF AND PUSH4 0xFFFFFFFF AND PUSH4 0xFFFFFFFF AND DUP2 MSTORE POP POP DUP3 DUP3 DUP2 MLOAD DUP2 LT PUSH2 0xF65 JUMPI PUSH2 0xF64 PUSH2 0x21CD JUMP JUMPDEST JUMPDEST PUSH1 0x20 MUL PUSH1 0x20 ADD ADD DUP2 SWAP1 MSTORE POP DUP1 DUP1 PUSH2 0xF7B SWAP1 PUSH2 0x2185 JUMP JUMPDEST SWAP2 POP POP PUSH2 0xC26 JUMP JUMPDEST POP DUP1 SWAP3 POP POP POP SWAP2 SWAP1 POP JUMP JUMPDEST PUSH1 0x40 MLOAD DUP1 PUSH2 0x100 ADD PUSH1 0x40 MSTORE DUP1 PUSH1 0x60 DUP2 MSTORE PUSH1 0x20 ADD PUSH1 0x60 DUP2 MSTORE PUSH1 0x20 ADD PUSH1 0x60 DUP2 MSTORE PUSH1 0x20 ADD PUSH1 0x60 DUP2 MSTORE PUSH1 0x20 ADD PUSH1 0x0 PUSH16 0xFFFFFFFFFFFFFFFFFFFFFFFFFFFFFFFF AND DUP2 MSTORE PUSH1 0x20 ADD PUSH1 0x0 PUSH16 0xFFFFFFFFFFFFFFFFFFFFFFFFFFFFFFFF AND DUP2 MSTORE PUSH1 0x20 ADD PUSH1 0x0 PUSH4 0xFFFFFFFF AND DUP2 MSTORE PUSH1 0x20 ADD PUSH1 0x0 PUSH4 0xFFFFFFFF AND DUP2 MSTORE POP SWAP1 JUMP JUMPDEST DUP3 DUP1 SLOAD DUP3 DUP3 SSTORE SWAP1 PUSH1 0x0 MSTORE PUSH1 0x20 PUSH1 0x0 KECCAK256 SWAP1 DUP2 ADD SWAP3 DUP3 ISZERO PUSH2 0x107C JUMPI SWAP2 PUSH1 0x20 MUL DUP3 ADD JUMPDEST DUP3 DUP2 GT ISZERO PUSH2 0x107B JUMPI DUP3 MLOAD DUP3 PUSH1 0x0 PUSH2 0x100 EXP DUP2 SLOAD DUP2 PUSH20 0xFFFFFFFFFFFFFFFFFFFFFFFFFFFFFFFFFFFFFFFF MUL NOT AND SWAP1 DUP4 PUSH20 0xFFFFFFFFFFFFFFFFFFFFFFFFFFFFFFFFFFFFFFFF AND MUL OR SWAP1 SSTORE POP SWAP2 PUSH1 0x20 ADD SWAP2 SWAP1 PUSH1 0x1 ADD SWAP1 PUSH2 0x1023 JUMP JUMPDEST JUMPDEST POP SWAP1 POP PUSH2 0x1089 SWAP2 SWAP1 PUSH2 0x115C JUMP JUMPDEST POP SWAP1 JUMP JUMPDEST DUP3 DUP1 SLOAD DUP3 DUP3 SSTORE SWAP1 PUSH1 0x0 MSTORE PUSH1 0x20 PUSH1 0x0 KECCAK256 SWAP1 DUP2 ADD SWAP3 DUP3 ISZERO PUSH2 0x10C9 JUMPI SWAP2 PUSH1 0x20 MUL DUP3 ADD JUMPDEST DUP3 DUP2 GT ISZERO PUSH2 0x10C8 JUMPI DUP3 MLOAD DUP3 SSTORE SWAP2 PUSH1 0x20 ADD SWAP2 SWAP1 PUSH1 0x1 ADD SWAP1 PUSH2 0x10AD JUMP JUMPDEST JUMPDEST POP SWAP1 POP PUSH2 0x10D6 SWAP2 SWAP1 PUSH2 0x115C JUMP JUMPDEST POP SWAP1 JUMP JUMPDEST POP DUP1 SLOAD PUSH1 0x0 DUP3 SSTORE SWAP1 PUSH1 0x0 MSTORE PUSH1 0x20 PUSH1 0x0 KECCAK256 SWAP1 DUP2 ADD SWAP1 PUSH2 0x10F8 SWAP2 SWAP1 PUSH2 0x115C JUMP JUMPDEST POP JUMP JUMPDEST POP DUP1 SLOAD PUSH1 0x0 DUP3 SSTORE SWAP1 PUSH1 0x0 MSTORE PUSH1 0x20 PUSH1 0x0 KECCAK256 SWAP1 DUP2 ADD SWAP1 PUSH2 0x1119 SWAP2 SWAP1 PUSH2 0x115C JUMP JUMPDEST POP JUMP JUMPDEST POP DUP1 SLOAD PUSH2 0x1128 SWAP1 PUSH2 0x1D4F JUMP JUMPDEST PUSH1 0x0 DUP3 SSTORE DUP1 PUSH1 0x1F LT PUSH2 0x113A JUMPI POP PUSH2 0x1159 JUMP JUMPDEST PUSH1 0x1F ADD PUSH1 0x20 SWAP1 DIV SWAP1 PUSH1 0x0 MSTORE PUSH1 0x20 PUSH1 0x0 KECCAK256 SWAP1 DUP2 ADD SWAP1 PUSH2 0x1158 SWAP2 SWAP1 PUSH2 0x115C JUMP JUMPDEST JUMPDEST POP JUMP JUMPDEST JUMPDEST DUP1 DUP3 GT ISZERO PUSH2 0x1175 JUMPI PUSH1 0x0 DUP2 PUSH1 0x0 SWAP1 SSTORE POP PUSH1 0x1 ADD PUSH2 0x115D JUMP JUMPDEST POP SWAP1 JUMP JUMPDEST PUSH1 0x0 PUSH1 0x40 MLOAD SWAP1 POP SWAP1 JUMP JUMPDEST PUSH1 0x0 DUP1 REVERT JUMPDEST PUSH1 0x0 DUP1 REVERT JUMPDEST PUSH1 0x0 PUSH20 0xFFFFFFFFFFFFFFFFFFFFFFFFFFFFFFFFFFFFFFFF DUP3 AND SWAP1 POP SWAP2 SWAP1 POP JUMP JUMPDEST PUSH1 0x0 PUSH2 0x11B8 DUP3 PUSH2 0x118D JUMP JUMPDEST SWAP1 POP SWAP2 SWAP1 POP JUMP JUMPDEST PUSH2 0x11C8 DUP2 PUSH2 0x11AD JUMP JUMPDEST DUP2 EQ PUSH2 0x11D3 JUMPI PUSH1 0x0 DUP1 REVERT JUMPDEST POP JUMP JUMPDEST PUSH1 0x0 DUP2 CALLDATALOAD SWAP1 POP PUSH2 0x11E5 DUP2 PUSH2 0x11BF JUMP JUMPDEST SWAP3 SWAP2 POP POP JUMP JUMPDEST PUSH1 0x0 DUP2 SWAP1 POP SWAP2 SWAP1 POP JUMP JUMPDEST PUSH2 0x11FE DUP2 PUSH2 0x11EB JUMP JUMPDEST DUP2 EQ PUSH2 0x1209 JUMPI PUSH1 0x0 DUP1 REVERT JUMPDEST POP JUMP JUMPDEST PUSH1 0x0 DUP2 CALLDATALOAD SWAP1 POP PUSH2 0x121B DUP2 PUSH2 0x11F5 JUMP JUMPDEST SWAP3 SWAP2 POP POP JUMP JUMPDEST PUSH1 0x0 DUP1 PUSH1 0x40 DUP4 DUP6 SUB SLT ISZERO PUSH2 0x1238 JUMPI PUSH2 0x1237 PUSH2 0x1183 JUMP JUMPDEST JUMPDEST PUSH1 0x0 PUSH2 0x1246 DUP6 DUP3 DUP7 ADD PUSH2 0x11D6 JUMP JUMPDEST SWAP3 POP POP PUSH1 0x20 PUSH2 0x1257 DUP6 DUP3 DUP7 ADD PUSH2 0x120C JUMP JUMPDEST SWAP2 POP POP SWAP3 POP SWAP3 SWAP1 POP JUMP JUMPDEST PUSH2 0x126A DUP2 PUSH2 0x11EB JUMP JUMPDEST DUP3 MSTORE POP POP JUMP JUMPDEST PUSH1 0x0 PUSH1 0x20 DUP3 ADD SWAP1 POP PUSH2 0x1285 PUSH1 0x0 DUP4 ADD DUP5 PUSH2 0x1261 JUMP JUMPDEST SWAP3 SWAP2 POP POP JUMP JUMPDEST PUSH1 0x0 PUSH1 0x20 DUP3 DUP5 SUB SLT ISZERO PUSH2 0x12A1 JUMPI PUSH2 0x12A0 PUSH2 0x1183 JUMP JUMPDEST JUMPDEST PUSH1 0x0 PUSH2 0x12AF DUP5 DUP3 DUP6 ADD PUSH2 0x120C JUMP JUMPDEST SWAP2 POP POP SWAP3 SWAP2 POP POP JUMP JUMPDEST PUSH1 0x0 DUP2 MLOAD SWAP1 POP SWAP2 SWAP1 POP JUMP JUMPDEST PUSH1 0x0 DUP3 DUP3 MSTORE PUSH1 0x20 DUP3 ADD SWAP1 POP SWAP3 SWAP2 POP POP JUMP JUMPDEST PUSH1 0x0 DUP2 SWAP1 POP PUSH1 0x20 DUP3 ADD SWAP1 POP SWAP2 SWAP1 POP JUMP JUMPDEST PUSH2 0x12ED DUP2 PUSH2 0x11AD JUMP JUMPDEST DUP3 MSTORE POP POP JUMP JUMPDEST PUSH1 0x0 PUSH2 0x12FF DUP4 DUP4 PUSH2 0x12E4 JUMP JUMPDEST PUSH1 0x20 DUP4 ADD SWAP1 POP SWAP3 SWAP2 POP POP JUMP JUMPDEST PUSH1 0x0 PUSH1 0x20 DUP3 ADD SWAP1 POP SWAP2 SWAP1 POP JUMP JUMPDEST PUSH1 0x0 PUSH2 0x1323 DUP3 PUSH2 0x12B8 JUMP JUMPDEST PUSH2 0x132D DUP2 DUP6 PUSH2 0x12C3 JUMP JUMPDEST SWAP4 POP PUSH2 0x1338 DUP4 PUSH2 0x12D4 JUMP JUMPDEST DUP1 PUSH1 0x0 JUMPDEST DUP4 DUP2 LT ISZERO PUSH2 0x1369 JUMPI DUP2 MLOAD PUSH2 0x1350 DUP9 DUP3 PUSH2 0x12F3 JUMP JUMPDEST SWAP8 POP PUSH2 0x135B DUP4 PUSH2 0x130B JUMP JUMPDEST SWAP3 POP POP PUSH1 0x1 DUP2 ADD SWAP1 POP PUSH2 0x133C JUMP JUMPDEST POP DUP6 SWAP4 POP POP POP POP SWAP3 SWAP2 POP POP JUMP JUMPDEST PUSH1 0x0 DUP2 MLOAD SWAP1 POP SWAP2 SWAP1 POP JUMP JUMPDEST PUSH1 0x0 DUP3 DUP3 MSTORE PUSH1 0x20 DUP3 ADD SWAP1 POP SWAP3 SWAP2 POP POP JUMP JUMPDEST PUSH1 0x0 DUP2 SWAP1 POP PUSH1 0x20 DUP3 ADD SWAP1 POP SWAP2 SWAP1 POP JUMP JUMPDEST PUSH2 0x13AB DUP2 PUSH2 0x11EB JUMP JUMPDEST DUP3 MSTORE POP POP JUMP JUMPDEST PUSH1 0x0 PUSH2 0x13BD DUP4 DUP4 PUSH2 0x13A2 JUMP JUMPDEST PUSH1 0x20 DUP4 ADD SWAP1 POP SWAP3 SWAP2 POP POP JUMP JUMPDEST PUSH1 0x0 PUSH1 0x20 DUP3 ADD SWAP1 POP SWAP2 SWAP1 POP JUMP JUMPDEST PUSH1 0x0 PUSH2 0x13E1 DUP3 PUSH2 0x1376 JUMP JUMPDEST PUSH2 0x13EB DUP2 DUP6 PUSH2 0x1381 JUMP JUMPDEST SWAP4 POP PUSH2 0x13F6 DUP4 PUSH2 0x1392 JUMP JUMPDEST DUP1 PUSH1 0x0 JUMPDEST DUP4 DUP2 LT ISZERO PUSH2 0x1427 JUMPI DUP2 MLOAD PUSH2 0x140E DUP9 DUP3 PUSH2 0x13B1 JUMP JUMPDEST SWAP8 POP PUSH2 0x1419 DUP4 PUSH2 0x13C9 JUMP JUMPDEST SWAP3 POP POP PUSH1 0x1 DUP2 ADD SWAP1 POP PUSH2 0x13FA JUMP JUMPDEST POP DUP6 SWAP4 POP POP POP POP SWAP3 SWAP2 POP POP JUMP JUMPDEST PUSH1 0x0 DUP2 MLOAD SWAP1 POP SWAP2 SWAP1 POP JUMP JUMPDEST PUSH1 0x0 DUP3 DUP3 MSTORE PUSH1 0x20 DUP3 ADD SWAP1 POP SWAP3 SWAP2 POP POP JUMP JUMPDEST PUSH1 0x0 JUMPDEST DUP4 DUP2 LT ISZERO PUSH2 0x146E JUMPI DUP1 DUP3 ADD MLOAD DUP2 DUP5 ADD MSTORE PUSH1 0x20 DUP2 ADD SWAP1 POP PUSH2 0x1453 JUMP JUMPDEST PUSH1 0x0 DUP5 DUP5 ADD MSTORE POP POP POP POP JUMP JUMPDEST PUSH1 0x0 PUSH1 0x1F NOT PUSH1 0x1F DUP4 ADD AND SWAP1 POP SWAP2 SWAP1 POP JUMP JUMPDEST PUSH1 0x0 PUSH2 0x1496 DUP3 PUSH2 0x1434 JUMP JUMPDEST PUSH2 0x14A0 DUP2 DUP6 PUSH2 0x143F JUMP JUMPDEST SWAP4 POP PUSH2 0x14B0 DUP2 DUP6 PUSH1 0x20 DUP7 ADD PUSH2 0x1450 JUMP JUMPDEST PUSH2 0x14B9 DUP2 PUSH2 0x147A JUMP JUMPDEST DUP5 ADD SWAP2 POP POP SWAP3 SWAP2 POP POP JUMP JUMPDEST PUSH1 0x0 PUSH16 0xFFFFFFFFFFFFFFFFFFFFFFFFFFFFFFFF DUP3 AND SWAP1 POP SWAP2 SWAP1 POP JUMP JUMPDEST PUSH2 0x14E9 DUP2 PUSH2 0x14C4 JUMP JUMPDEST DUP3 MSTORE POP POP JUMP JUMPDEST PUSH1 0x0 PUSH4 0xFFFFFFFF DUP3 AND SWAP1 POP SWAP2 SWAP1 POP JUMP JUMPDEST PUSH2 0x1508 DUP2 PUSH2 0x14EF JUMP JUMPDEST DUP3 MSTORE POP POP JUMP JUMPDEST PUSH1 0x0 PUSH2 0x100 DUP4 ADD PUSH1 0x0 DUP4 ADD MLOAD DUP5 DUP3 SUB PUSH1 0x0 DUP7 ADD MSTORE PUSH2 0x152C DUP3 DUP3 PUSH2 0x1318 JUMP JUMPDEST SWAP2 POP POP PUSH1 0x20 DUP4 ADD MLOAD DUP5 DUP3 SUB PUSH1 0x20 DUP7 ADD MSTORE PUSH2 0x1546 DUP3 DUP3 PUSH2 0x13D6 JUMP JUMPDEST SWAP2 POP POP PUSH1 0x40 DUP4 ADD MLOAD DUP5 DUP3 SUB PUSH1 0x40 DUP7 ADD MSTORE PUSH2 0x1560 DUP3 DUP3 PUSH2 0x148B JUMP JUMPDEST SWAP2 POP POP PUSH1 0x60 DUP4 ADD MLOAD DUP5 DUP3 SUB PUSH1 0x60 DUP7 ADD MSTORE PUSH2 0x157A DUP3 DUP3 PUSH2 0x148B JUMP JUMPDEST SWAP2 POP POP PUSH1 0x80 DUP4 ADD MLOAD PUSH2 0x158F PUSH1 0x80 DUP7 ADD DUP3 PUSH2 0x14E0 JUMP JUMPDEST POP PUSH1 0xA0 DUP4 ADD MLOAD PUSH2 0x15A2 PUSH1 0xA0 DUP7 ADD DUP3 PUSH2 0x14E0 JUMP JUMPDEST POP PUSH1 0xC0 DUP4 ADD MLOAD PUSH2 0x15B5 PUSH1 0xC0 DUP7 ADD DUP3 PUSH2 0x14FF JUMP JUMPDEST POP PUSH1 0xE0 DUP4 ADD MLOAD PUSH2 0x15C8 PUSH1 0xE0 DUP7 ADD DUP3 PUSH2 0x14FF JUMP JUMPDEST POP DUP1 SWAP2 POP POP SWAP3 SWAP2 POP POP JUMP JUMPDEST PUSH1 0x0 PUSH1 0x20 DUP3 ADD SWAP1 POP DUP2 DUP2 SUB PUSH1 0x0 DUP4 ADD MSTORE PUSH2 0x15ED DUP2 DUP5 PUSH2 0x150E JUMP JUMPDEST SWAP1 POP SWAP3 SWAP2 POP POP JUMP JUMPDEST PUSH1 0x0 DUP1 REVERT JUMPDEST PUSH32 0x4E487B7100000000000000000000000000000000000000000000000000000000 PUSH1 0x0 MSTORE PUSH1 0x41 PUSH1 0x4 MSTORE PUSH1 0x24 PUSH1 0x0 REVERT JUMPDEST PUSH2 0x1632 DUP3 PUSH2 0x147A JUMP JUMPDEST DUP2 ADD DUP2 DUP2 LT PUSH8 0xFFFFFFFFFFFFFFFF DUP3 GT OR ISZERO PUSH2 0x1651 JUMPI PUSH2 0x1650 PUSH2 0x15FA JUMP JUMPDEST JUMPDEST DUP1 PUSH1 0x40 MSTORE POP POP POP JUMP JUMPDEST PUSH1 0x0 PUSH2 0x1664 PUSH2 0x1179 JUMP JUMPDEST SWAP1 POP PUSH2 0x1670 DUP3 DUP3 PUSH2 0x1629 JUMP JUMPDEST SWAP2 SWAP1 POP JUMP JUMPDEST PUSH1 0x0 PUSH8 0xFFFFFFFFFFFFFFFF DUP3 GT ISZERO PUSH2 0x1690 JUMPI PUSH2 0x168F PUSH2 0x15FA JUMP JUMPDEST JUMPDEST PUSH1 0x20 DUP3 MUL SWAP1 POP PUSH1 0x20 DUP2 ADD SWAP1 POP SWAP2 SWAP1 POP JUMP JUMPDEST PUSH1 0x0 DUP1 REVERT JUMPDEST PUSH1 0x0 PUSH2 0x16B9 PUSH2 0x16B4 DUP5 PUSH2 0x1675 JUMP JUMPDEST PUSH2 0x165A JUMP JUMPDEST SWAP1 POP DUP1 DUP4 DUP3 MSTORE PUSH1 0x20 DUP3 ADD SWAP1 POP PUSH1 0x20 DUP5 MUL DUP4 ADD DUP6 DUP2 GT ISZERO PUSH2 0x16DC JUMPI PUSH2 0x16DB PUSH2 0x16A1 JUMP JUMPDEST JUMPDEST DUP4 JUMPDEST DUP2 DUP2 LT ISZERO PUSH2 0x1705 JUMPI DUP1 PUSH2 0x16F1 DUP9 DUP3 PUSH2 0x11D6 JUMP JUMPDEST DUP5 MSTORE PUSH1 0x20 DUP5 ADD SWAP4 POP POP PUSH1 0x20 DUP2 ADD SWAP1 POP PUSH2 0x16DE JUMP JUMPDEST POP POP POP SWAP4 SWAP3 POP POP POP JUMP JUMPDEST PUSH1 0x0 DUP3 PUSH1 0x1F DUP4 ADD SLT PUSH2 0x1724 JUMPI PUSH2 0x1723 PUSH2 0x15F5 JUMP JUMPDEST JUMPDEST DUP2 CALLDATALOAD PUSH2 0x1734 DUP5 DUP3 PUSH1 0x20 DUP7 ADD PUSH2 0x16A6 JUMP JUMPDEST SWAP2 POP POP SWAP3 SWAP2 POP POP JUMP JUMPDEST PUSH1 0x0 PUSH8 0xFFFFFFFFFFFFFFFF DUP3 GT ISZERO PUSH2 0x1758 JUMPI PUSH2 0x1757 PUSH2 0x15FA JUMP JUMPDEST JUMPDEST PUSH1 0x20 DUP3 MUL SWAP1 POP PUSH1 0x20 DUP2 ADD SWAP1 POP SWAP2 SWAP1 POP JUMP JUMPDEST PUSH1 0x0 PUSH2 0x177C PUSH2 0x1777 DUP5 PUSH2 0x173D JUMP JUMPDEST PUSH2 0x165A JUMP JUMPDEST SWAP1 POP DUP1 DUP4 DUP3 MSTORE PUSH1 0x20 DUP3 ADD SWAP1 POP PUSH1 0x20 DUP5 MUL DUP4 ADD DUP6 DUP2 GT ISZERO PUSH2 0x179F JUMPI PUSH2 0x179E PUSH2 0x16A1 JUMP JUMPDEST JUMPDEST DUP4 JUMPDEST DUP2 DUP2 LT ISZERO PUSH2 0x17C8 JUMPI DUP1 PUSH2 0x17B4 DUP9 DUP3 PUSH2 0x120C JUMP JUMPDEST DUP5 MSTORE PUSH1 0x20 DUP5 ADD SWAP4 POP POP PUSH1 0x20 DUP2 ADD SWAP1 POP PUSH2 0x17A1 JUMP JUMPDEST POP POP POP SWAP4 SWAP3 POP POP POP JUMP JUMPDEST PUSH1 0x0 DUP3 PUSH1 0x1F DUP4 ADD SLT PUSH2 0x17E7 JUMPI PUSH2 0x17E6 PUSH2 0x15F5 JUMP JUMPDEST JUMPDEST DUP2 CALLDATALOAD PUSH2 0x17F7 DUP5 DUP3 PUSH1 0x20 DUP7 ADD PUSH2 0x1769 JUMP JUMPDEST SWAP2 POP POP SWAP3 SWAP2 POP POP JUMP JUMPDEST PUSH1 0x0 DUP1 REVERT JUMPDEST PUSH1 0x0 DUP1 DUP4 PUSH1 0x1F DUP5 ADD SLT PUSH2 0x181B JUMPI PUSH2 0x181A PUSH2 0x15F5 JUMP JUMPDEST JUMPDEST DUP3 CALLDATALOAD SWAP1 POP PUSH8 0xFFFFFFFFFFFFFFFF DUP2 GT ISZERO PUSH2 0x1838 JUMPI PUSH2 0x1837 PUSH2 0x1800 JUMP JUMPDEST JUMPDEST PUSH1 0x20 DUP4 ADD SWAP2 POP DUP4 PUSH1 0x1 DUP3 MUL DUP4 ADD GT ISZERO PUSH2 0x1854 JUMPI PUSH2 0x1853 PUSH2 0x16A1 JUMP JUMPDEST JUMPDEST SWAP3 POP SWAP3 SWAP1 POP JUMP JUMPDEST PUSH2 0x1864 DUP2 PUSH2 0x14C4 JUMP JUMPDEST DUP2 EQ PUSH2 0x186F JUMPI PUSH1 0x0 DUP1 REVERT JUMPDEST POP JUMP JUMPDEST PUSH1 0x0 DUP2 CALLDATALOAD SWAP1 POP PUSH2 0x1881 DUP2 PUSH2 0x185B JUMP JUMPDEST SWAP3 SWAP2 POP POP JUMP JUMPDEST PUSH2 0x1890 DUP2 PUSH2 0x14EF JUMP JUMPDEST DUP2 EQ PUSH2 0x189B JUMPI PUSH1 0x0 DUP1 REVERT JUMPDEST POP JUMP JUMPDEST PUSH1 0x0 DUP2 CALLDATALOAD SWAP1 POP PUSH2 0x18AD DUP2 PUSH2 0x1887 JUMP JUMPDEST SWAP3 SWAP2 POP POP JUMP JUMPDEST PUSH1 0x0 DUP1 PUSH1 0x0 DUP1 PUSH1 0x0 DUP1 PUSH1 0x0 DUP1 PUSH1 0x0 DUP1 PUSH2 0x100 DUP12 DUP14 SUB SLT ISZERO PUSH2 0x18D7 JUMPI PUSH2 0x18D6 PUSH2 0x1183 JUMP JUMPDEST JUMPDEST PUSH1 0x0 DUP12 ADD CALLDATALOAD PUSH8 0xFFFFFFFFFFFFFFFF DUP2 GT ISZERO PUSH2 0x18F5 JUMPI PUSH2 0x18F4 PUSH2 0x1188 JUMP JUMPDEST JUMPDEST PUSH2 0x1901 DUP14 DUP3 DUP15 ADD PUSH2 0x170F JUMP JUMPDEST SWAP11 POP POP PUSH1 0x20 DUP12 ADD CALLDATALOAD PUSH8 0xFFFFFFFFFFFFFFFF DUP2 GT ISZERO PUSH2 0x1922 JUMPI PUSH2 0x1921 PUSH2 0x1188 JUMP JUMPDEST JUMPDEST PUSH2 0x192E DUP14 DUP3 DUP15 ADD PUSH2 0x17D2 JUMP JUMPDEST SWAP10 POP POP PUSH1 0x40 DUP12 ADD CALLDATALOAD PUSH8 0xFFFFFFFFFFFFFFFF DUP2 GT ISZERO PUSH2 0x194F JUMPI PUSH2 0x194E PUSH2 0x1188 JUMP JUMPDEST JUMPDEST PUSH2 0x195B DUP14 DUP3 DUP15 ADD PUSH2 0x1805 JUMP JUMPDEST SWAP9 POP SWAP9 POP POP PUSH1 0x60 DUP12 ADD CALLDATALOAD PUSH8 0xFFFFFFFFFFFFFFFF DUP2 GT ISZERO PUSH2 0x197E JUMPI PUSH2 0x197D PUSH2 0x1188 JUMP JUMPDEST JUMPDEST PUSH2 0x198A DUP14 DUP3 DUP15 ADD PUSH2 0x1805 JUMP JUMPDEST SWAP7 POP SWAP7 POP POP PUSH1 0x80 PUSH2 0x199D DUP14 DUP3 DUP15 ADD PUSH2 0x1872 JUMP JUMPDEST SWAP5 POP POP PUSH1 0xA0 PUSH2 0x19AE DUP14 DUP3 DUP15 ADD PUSH2 0x1872 JUMP JUMPDEST SWAP4 POP POP PUSH1 0xC0 PUSH2 0x19BF DUP14 DUP3 DUP15 ADD PUSH2 0x189E JUMP JUMPDEST SWAP3 POP POP PUSH1 0xE0 PUSH2 0x19D0 DUP14 DUP3 DUP15 ADD PUSH2 0x189E JUMP JUMPDEST SWAP2 POP POP SWAP3 SWAP6 SWAP9 SWAP12 SWAP2 SWAP5 SWAP8 SWAP11 POP SWAP3 SWAP6 SWAP9 POP JUMP JUMPDEST PUSH1 0x0 DUP3 DUP3 MSTORE PUSH1 0x20 DUP3 ADD SWAP1 POP SWAP3 SWAP2 POP POP JUMP JUMPDEST PUSH1 0x0 PUSH2 0x19FE DUP3 PUSH2 0x1376 JUMP JUMPDEST PUSH2 0x1A08 DUP2 DUP6 PUSH2 0x19E2 JUMP JUMPDEST SWAP4 POP PUSH2 0x1A13 DUP4 PUSH2 0x1392 JUMP JUMPDEST DUP1 PUSH1 0x0 JUMPDEST DUP4 DUP2 LT ISZERO PUSH2 0x1A44 JUMPI DUP2 MLOAD PUSH2 0x1A2B DUP9 DUP3 PUSH2 0x13B1 JUMP JUMPDEST SWAP8 POP PUSH2 0x1A36 DUP4 PUSH2 0x13C9 JUMP JUMPDEST SWAP3 POP POP PUSH1 0x1 DUP2 ADD SWAP1 POP PUSH2 0x1A17 JUMP JUMPDEST POP DUP6 SWAP4 POP POP POP POP SWAP3 SWAP2 POP POP JUMP JUMPDEST PUSH1 0x0 PUSH1 0x20 DUP3 ADD SWAP1 POP DUP2 DUP2 SUB PUSH1 0x0 DUP4 ADD MSTORE PUSH2 0x1A6B DUP2 DUP5 PUSH2 0x19F3 JUMP JUMPDEST SWAP1 POP SWAP3 SWAP2 POP POP JUMP JUMPDEST PUSH1 0x0 DUP3 DUP3 MSTORE PUSH1 0x20 DUP3 ADD SWAP1 POP SWAP3 SWAP2 POP POP JUMP JUMPDEST PUSH1 0x0 PUSH2 0x1A8F DUP3 PUSH2 0x1434 JUMP JUMPDEST PUSH2 0x1A99 DUP2 DUP6 PUSH2 0x1A73 JUMP JUMPDEST SWAP4 POP PUSH2 0x1AA9 DUP2 DUP6 PUSH1 0x20 DUP7 ADD PUSH2 0x1450 JUMP JUMPDEST PUSH2 0x1AB2 DUP2 PUSH2 0x147A JUMP JUMPDEST DUP5 ADD SWAP2 POP POP SWAP3 SWAP2 POP POP JUMP JUMPDEST PUSH2 0x1AC6 DUP2 PUSH2 0x14C4 JUMP JUMPDEST DUP3 MSTORE POP POP JUMP JUMPDEST PUSH2 0x1AD5 DUP2 PUSH2 0x14EF JUMP JUMPDEST DUP3 MSTORE POP POP JUMP JUMPDEST PUSH1 0x0 PUSH1 0xC0 DUP3 ADD SWAP1 POP DUP2 DUP2 SUB PUSH1 0x0 DUP4 ADD MSTORE PUSH2 0x1AF5 DUP2 DUP10 PUSH2 0x1A84 JUMP JUMPDEST SWAP1 POP DUP2 DUP2 SUB PUSH1 0x20 DUP4 ADD MSTORE PUSH2 0x1B09 DUP2 DUP9 PUSH2 0x1A84 JUMP JUMPDEST SWAP1 POP PUSH2 0x1B18 PUSH1 0x40 DUP4 ADD DUP8 PUSH2 0x1ABD JUMP JUMPDEST PUSH2 0x1B25 PUSH1 0x60 DUP4 ADD DUP7 PUSH2 0x1ABD JUMP JUMPDEST PUSH2 0x1B32 PUSH1 0x80 DUP4 ADD DUP6 PUSH2 0x1ACC JUMP JUMPDEST PUSH2 0x1B3F PUSH1 0xA0 DUP4 ADD DUP5 PUSH2 0x1ACC JUMP JUMPDEST SWAP8 SWAP7 POP POP POP POP POP POP POP JUMP JUMPDEST PUSH1 0x0 PUSH1 0x20 DUP3 DUP5 SUB SLT ISZERO PUSH2 0x1B60 JUMPI PUSH2 0x1B5F PUSH2 0x1183 JUMP JUMPDEST JUMPDEST PUSH1 0x0 PUSH2 0x1B6E DUP5 DUP3 DUP6 ADD PUSH2 0x11D6 JUMP JUMPDEST SWAP2 POP POP SWAP3 SWAP2 POP POP JUMP JUMPDEST PUSH1 0x0 DUP2 MLOAD SWAP1 POP SWAP2 SWAP1 POP JUMP JUMPDEST PUSH1 0x0 DUP3 DUP3 MSTORE PUSH1 0x20 DUP3 ADD SWAP1 POP SWAP3 SWAP2 POP POP JUMP JUMPDEST PUSH1 0x0 DUP2 SWAP1 POP PUSH1 0x20 DUP3 ADD SWAP1 POP SWAP2 SWAP1 POP JUMP JUMPDEST PUSH1 0x0 PUSH2 0x100 DUP4 ADD PUSH1 0x0 DUP4 ADD MLOAD DUP5 DUP3 SUB PUSH1 0x0 DUP7 ADD MSTORE PUSH2 0x1BC1 DUP3 DUP3 PUSH2 0x1318 JUMP JUMPDEST SWAP2 POP POP PUSH1 0x20 DUP4 ADD MLOAD DUP5 DUP3 SUB PUSH1 0x20 DUP7 ADD MSTORE PUSH2 0x1BDB DUP3 DUP3 PUSH2 0x13D6 JUMP JUMPDEST SWAP2 POP POP PUSH1 0x40 DUP4 ADD MLOAD DUP5 DUP3 SUB PUSH1 0x40 DUP7 ADD MSTORE PUSH2 0x1BF5 DUP3 DUP3 PUSH2 0x148B JUMP JUMPDEST SWAP2 POP POP PUSH1 0x60 DUP4 ADD MLOAD DUP5 DUP3 SUB PUSH1 0x60 DUP7 ADD MSTORE PUSH2 0x1C0F DUP3 DUP3 PUSH2 0x148B JUMP JUMPDEST SWAP2 POP POP PUSH1 0x80 DUP4 ADD MLOAD PUSH2 0x1C24 PUSH1 0x80 DUP7 ADD DUP3 PUSH2 0x14E0 JUMP JUMPDEST POP PUSH1 0xA0 DUP4 ADD MLOAD PUSH2 0x1C37 PUSH1 0xA0 DUP7 ADD DUP3 PUSH2 0x14E0 JUMP JUMPDEST POP PUSH1 0xC0 DUP4 ADD MLOAD PUSH2 0x1C4A PUSH1 0xC0 DUP7 ADD DUP3 PUSH2 0x14FF JUMP JUMPDEST POP PUSH1 0xE0 DUP4 ADD MLOAD PUSH2 0x1C5D PUSH1 0xE0 DUP7 ADD DUP3 PUSH2 0x14FF JUMP JUMPDEST POP DUP1 SWAP2 POP POP SWAP3 SWAP2 POP POP JUMP JUMPDEST PUSH1 0x0 PUSH2 0x1C74 DUP4 DUP4 PUSH2 0x1BA3 JUMP JUMPDEST SWAP1 POP SWAP3 SWAP2 POP POP JUMP JUMPDEST PUSH1 0x0 PUSH1 0x20 DUP3 ADD SWAP1 POP SWAP2 SWAP1 POP JUMP JUMPDEST PUSH1 0x0 PUSH2 0x1C94 DUP3 PUSH2 0x1B77 JUMP JUMPDEST PUSH2 0x1C9E DUP2 DUP6 PUSH2 0x1B82 JUMP JUMPDEST SWAP4 POP DUP4 PUSH1 0x20 DUP3 MUL DUP6 ADD PUSH2 0x1CB0 DUP6 PUSH2 0x1B93 JUMP JUMPDEST DUP1 PUSH1 0x0 JUMPDEST DUP6 DUP2 LT ISZERO PUSH2 0x1CEC JUMPI DUP5 DUP5 SUB DUP10 MSTORE DUP2 MLOAD PUSH2 0x1CCD DUP6 DUP3 PUSH2 0x1C68 JUMP JUMPDEST SWAP5 POP PUSH2 0x1CD8 DUP4 PUSH2 0x1C7C JUMP JUMPDEST SWAP3 POP PUSH1 0x20 DUP11 ADD SWAP10 POP POP PUSH1 0x1 DUP2 ADD SWAP1 POP PUSH2 0x1CB4 JUMP JUMPDEST POP DUP3 SWAP8 POP DUP8 SWAP6 POP POP POP POP POP POP SWAP3 SWAP2 POP POP JUMP JUMPDEST PUSH1 0x0 PUSH1 0x20 DUP3 ADD SWAP1 POP DUP2 DUP2 SUB PUSH1 0x0 DUP4 ADD MSTORE PUSH2 0x1D18 DUP2 DUP5 PUSH2 0x1C89 JUMP JUMPDEST SWAP1 POP SWAP3 SWAP2 POP POP JUMP JUMPDEST PUSH32 0x4E487B7100000000000000000000000000000000000000000000000000000000 PUSH1 0x0 MSTORE PUSH1 0x22 PUSH1 0x4 MSTORE PUSH1 0x24 PUSH1 0x0 REVERT JUMPDEST PUSH1 0x0 PUSH1 0x2 DUP3 DIV SWAP1 POP PUSH1 0x1 DUP3 AND DUP1 PUSH2 0x1D67 JUMPI PUSH1 0x7F DUP3 AND SWAP2 POP JUMPDEST PUSH1 0x20 DUP3 LT DUP2 SUB PUSH2 0x1D7A JUMPI PUSH2 0x1D79 PUSH2 0x1D20 JUMP JUMPDEST JUMPDEST POP SWAP2 SWAP1 POP JUMP JUMPDEST PUSH1 0x0 DUP2 SWAP1 POP DUP2 PUSH1 0x0 MSTORE PUSH1 0x20 PUSH1 0x0 KECCAK256 SWAP1 POP SWAP2 SWAP1 POP JUMP JUMPDEST PUSH1 0x0 PUSH1 0x20 PUSH1 0x1F DUP4 ADD DIV SWAP1 POP SWAP2 SWAP1 POP JUMP JUMPDEST PUSH1 0x0 DUP3 DUP3 SHL SWAP1 POP SWAP3 SWAP2 POP POP JUMP JUMPDEST PUSH1 0x0 PUSH1 0x8 DUP4 MUL PUSH2 0x1DE2 PUSH32 0xFFFFFFFFFFFFFFFFFFFFFFFFFFFFFFFFFFFFFFFFFFFFFFFFFFFFFFFFFFFFFFFF DUP3 PUSH2 0x1DA5 JUMP JUMPDEST PUSH2 0x1DEC DUP7 DUP4 PUSH2 0x1DA5 JUMP JUMPDEST SWAP6 POP DUP1 NOT DUP5 AND SWAP4 POP DUP1 DUP7 AND DUP5 OR SWAP3 POP POP POP SWAP4 SWAP3 POP POP POP JUMP JUMPDEST PUSH1 0x0 DUP2 SWAP1 POP SWAP2 SWAP1 POP JUMP JUMPDEST PUSH1 0x0 PUSH2 0x1E29 PUSH2 0x1E24 PUSH2 0x1E1F DUP5 PUSH2 0x11EB JUMP JUMPDEST PUSH2 0x1E04 JUMP JUMPDEST PUSH2 0x11EB JUMP JUMPDEST SWAP1 POP SWAP2 SWAP1 POP JUMP JUMPDEST PUSH1 0x0 DUP2 SWAP1 POP SWAP2 SWAP1 POP JUMP JUMPDEST PUSH2 0x1E43 DUP4 PUSH2 0x1E0E JUMP JUMPDEST PUSH2 0x1E57 PUSH2 0x1E4F DUP3 PUSH2 0x1E30 JUMP JUMPDEST DUP5 DUP5 SLOAD PUSH2 0x1DB2 JUMP JUMPDEST DUP3 SSTORE POP POP POP POP JUMP JUMPDEST PUSH1 0x0 SWAP1 JUMP JUMPDEST PUSH2 0x1E6C PUSH2 0x1E5F JUMP JUMPDEST PUSH2 0x1E77 DUP2 DUP5 DUP5 PUSH2 0x1E3A JUMP JUMPDEST POP POP POP JUMP JUMPDEST JUMPDEST DUP2 DUP2 LT ISZERO PUSH2 0x1E9B JUMPI PUSH2 0x1E90 PUSH1 0x0 DUP3 PUSH2 0x1E64 JUMP JUMPDEST PUSH1 0x1 DUP2 ADD SWAP1 POP PUSH2 0x1E7D JUMP JUMPDEST POP POP JUMP JUMPDEST PUSH1 0x1F DUP3 GT ISZERO PUSH2 0x1EE0 JUMPI PUSH2 0x1EB1 DUP2 PUSH2 0x1D80 JUMP JUMPDEST PUSH2 0x1EBA DUP5 PUSH2 0x1D95 JUMP JUMPDEST DUP2 ADD PUSH1 0x20 DUP6 LT ISZERO PUSH2 0x1EC9 JUMPI DUP2 SWAP1 POP JUMPDEST PUSH2 0x1EDD PUSH2 0x1ED5 DUP6 PUSH2 0x1D95 JUMP JUMPDEST DUP4 ADD DUP3 PUSH2 0x1E7C JUMP JUMPDEST POP POP JUMPDEST POP POP POP JUMP JUMPDEST PUSH1 0x0 DUP3 DUP3 SHR SWAP1 POP SWAP3 SWAP2 POP POP JUMP JUMPDEST PUSH1 0x0 PUSH2 0x1F03 PUSH1 0x0 NOT DUP5 PUSH1 0x8 MUL PUSH2 0x1EE5 JUMP JUMPDEST NOT DUP1 DUP4 AND SWAP2 POP POP SWAP3 SWAP2 POP POP JUMP JUMPDEST PUSH1 0x0 PUSH2 0x1F1C DUP4 DUP4 PUSH2 0x1EF2 JUMP JUMPDEST SWAP2 POP DUP3 PUSH1 0x2 MUL DUP3 OR SWAP1 POP SWAP3 SWAP2 POP POP JUMP JUMPDEST PUSH2 0x1F35 DUP3 PUSH2 0x1434 JUMP JUMPDEST PUSH8 0xFFFFFFFFFFFFFFFF DUP2 GT ISZERO PUSH2 0x1F4E JUMPI PUSH2 0x1F4D PUSH2 0x15FA JUMP JUMPDEST JUMPDEST PUSH2 0x1F58 DUP3 SLOAD PUSH2 0x1D4F JUMP JUMPDEST PUSH2 0x1F63 DUP3 DUP3 DUP6 PUSH2 0x1E9F JUMP JUMPDEST PUSH1 0x0 PUSH1 0x20 SWAP1 POP PUSH1 0x1F DUP4 GT PUSH1 0x1 DUP2 EQ PUSH2 0x1F96 JUMPI PUSH1 0x0 DUP5 ISZERO PUSH2 0x1F84 JUMPI DUP3 DUP8 ADD MLOAD SWAP1 POP JUMPDEST PUSH2 0x1F8E DUP6 DUP3 PUSH2 0x1F10 JUMP JUMPDEST DUP7 SSTORE POP PUSH2 0x1FF6 JUMP JUMPDEST PUSH1 0x1F NOT DUP5 AND PUSH2 0x1FA4 DUP7 PUSH2 0x1D80 JUMP JUMPDEST PUSH1 0x0 JUMPDEST DUP3 DUP2 LT ISZERO PUSH2 0x1FCC JUMPI DUP5 DUP10 ADD MLOAD DUP3 SSTORE PUSH1 0x1 DUP3 ADD SWAP2 POP PUSH1 0x20 DUP6 ADD SWAP5 POP PUSH1 0x20 DUP2 ADD SWAP1 POP PUSH2 0x1FA7 JUMP JUMPDEST DUP7 DUP4 LT ISZERO PUSH2 0x1FE9 JUMPI DUP5 DUP10 ADD MLOAD PUSH2 0x1FE5 PUSH1 0x1F DUP10 AND DUP3 PUSH2 0x1EF2 JUMP JUMPDEST DUP4 SSTORE POP JUMPDEST PUSH1 0x1 PUSH1 0x2 DUP9 MUL ADD DUP9 SSTORE POP POP POP JUMPDEST POP POP POP POP POP POP JUMP JUMPDEST PUSH1 0x0 DUP3 DUP3 MSTORE PUSH1 0x20 DUP3 ADD SWAP1 POP SWAP3 SWAP2 POP POP JUMP JUMPDEST PUSH1 0x0 PUSH2 0x201A DUP3 PUSH2 0x12B8 JUMP JUMPDEST PUSH2 0x2024 DUP2 DUP6 PUSH2 0x1FFE JUMP JUMPDEST SWAP4 POP PUSH2 0x202F DUP4 PUSH2 0x12D4 JUMP JUMPDEST DUP1 PUSH1 0x0 JUMPDEST DUP4 DUP2 LT ISZERO PUSH2 0x2060 JUMPI DUP2 MLOAD PUSH2 0x2047 DUP9 DUP3 PUSH2 0x12F3 JUMP JUMPDEST SWAP8 POP PUSH2 0x2052 DUP4 PUSH2 0x130B JUMP JUMPDEST SWAP3 POP POP PUSH1 0x1 DUP2 ADD SWAP1 POP PUSH2 0x2033 JUMP JUMPDEST POP DUP6 SWAP4 POP POP POP POP SWAP3 SWAP2 POP POP JUMP JUMPDEST DUP3 DUP2 DUP4 CALLDATACOPY PUSH1 0x0 DUP4 DUP4 ADD MSTORE POP POP POP JUMP JUMPDEST PUSH1 0x0 PUSH2 0x2088 DUP4 DUP6 PUSH2 0x1A73 JUMP JUMPDEST SWAP4 POP PUSH2 0x2095 DUP4 DUP6 DUP5 PUSH2 0x206D JUMP JUMPDEST PUSH2 0x209E DUP4 PUSH2 0x147A JUMP JUMPDEST DUP5 ADD SWAP1 POP SWAP4 SWAP3 POP POP POP JUMP JUMPDEST PUSH1 0x0 PUSH2 0x120 DUP3 ADD SWAP1 POP PUSH2 0x20BF PUSH1 0x0 DUP4 ADD DUP15 PUSH2 0x1261 JUMP JUMPDEST DUP2 DUP2 SUB PUSH1 0x20 DUP4 ADD MSTORE PUSH2 0x20D1 DUP2 DUP14 PUSH2 0x200F JUMP JUMPDEST SWAP1 POP DUP2 DUP2 SUB PUSH1 0x40 DUP4 ADD MSTORE PUSH2 0x20E5 DUP2 DUP13 PUSH2 0x19F3 JUMP JUMPDEST SWAP1 POP DUP2 DUP2 SUB PUSH1 0x60 DUP4 ADD MSTORE PUSH2 0x20FA DUP2 DUP11 DUP13 PUSH2 0x207C JUMP JUMPDEST SWAP1 POP DUP2 DUP2 SUB PUSH1 0x80 DUP4 ADD MSTORE PUSH2 0x210F DUP2 DUP9 DUP11 PUSH2 0x207C JUMP JUMPDEST SWAP1 POP PUSH2 0x211E PUSH1 0xA0 DUP4 ADD DUP8 PUSH2 0x1ABD JUMP JUMPDEST PUSH2 0x212B PUSH1 0xC0 DUP4 ADD DUP7 PUSH2 0x1ABD JUMP JUMPDEST PUSH2 0x2138 PUSH1 0xE0 DUP4 ADD DUP6 PUSH2 0x1ACC JUMP JUMPDEST PUSH2 0x2146 PUSH2 0x100 DUP4 ADD DUP5 PUSH2 0x1ACC JUMP JUMPDEST SWAP13 SWAP12 POP POP POP POP POP POP POP POP POP POP POP POP JUMP JUMPDEST PUSH32 0x4E487B7100000000000000000000000000000000000000000000000000000000 PUSH1 0x0 MSTORE PUSH1 0x11 PUSH1 0x4 MSTORE PUSH1 0x24 PUSH1 0x0 REVERT JUMPDEST PUSH1 0x0 PUSH2 0x2190 DUP3 PUSH2 0x11EB JUMP JUMPDEST SWAP2 POP PUSH32 0xFFFFFFFFFFFFFFFFFFFFFFFFFFFFFFFFFFFFFFFFFFFFFFFFFFFFFFFFFFFFFFFF DUP3 SUB PUSH2 0x21C2 JUMPI PUSH2 0x21C1 PUSH2 0x2156 JUMP JUMPDEST JUMPDEST PUSH1 0x1 DUP3 ADD SWAP1 POP SWAP2 SWAP1 POP JUMP JUMPDEST PUSH32 0x4E487B7100000000000000000000000000000000000000000000000000000000 PUSH1 0x0 MSTORE PUSH1 0x32 PUSH1 0x4 MSTORE PUSH1 0x24 PUSH1 0x0 REVERT INVALID LOG2 PUSH5 0x6970667358 0x22 SLT KECCAK256 0x2C POP COINBASE 0xE5 0xC1 0xA7 RETURNDATASIZE DUP4 MSTORE DUP9 0xBE MUL NOT 0xAB 0xC LOG2 DUP7 NUMBER DUP14 NUMBER 0xAE BALANCE SGT 0xC4 0x2D PUSH23 0xD7891142705864736F6C63430008130033000000000000 "
				},
				"gasEstimates": {
					"creation": {
						"codeDepositCost": "1750800",
						"executionCost": "23947",
						"totalCost": "1774747"
					},
					"external": {
						"addDistributorProduct(address[],uint256[],bytes,bytes,uint128,uint128,uint32,uint32)": "infinite",
						"addressToproductsIdMapping(address,uint256)": "infinite",
						"deleteProduct(uint256)": "infinite",
						"getAllProductsOfDistributor(address)": "infinite",
						"getDistributorProductIds()": "infinite",
						"getSingleProduct(uint256)": "infinite",
						"productsIdMappingToStructMapping(uint256)": "infinite"
					}
				},
				"methodIdentifiers": {
					"addDistributorProduct(address[],uint256[],bytes,bytes,uint128,uint128,uint32,uint32)": "7d28c7de",
					"addressToproductsIdMapping(address,uint256)": "21c6f9e5",
					"deleteProduct(uint256)": "ed90c7b7",
					"getAllProductsOfDistributor(address)": "f1afff56",
					"getDistributorProductIds()": "9c9ed59f",
					"getSingleProduct(uint256)": "2e1f9763",
					"productsIdMappingToStructMapping(uint256)": "9e9c191d"
				}
			},
			"storageLayout": {
				"storage": [
					{
						"astId": 81,
						"contract": "contracts/distributorProduct.sol:distributorProduct",
						"label": "dpId",
						"offset": 0,
						"slot": "0",
						"type": "t_uint256"
					},
					{
						"astId": 84,
						"contract": "contracts/distributorProduct.sol:distributorProduct",
						"label": "allProducts",
						"offset": 0,
						"slot": "1",
						"type": "t_array(t_uint256)dyn_storage"
					},
					{
						"astId": 89,
						"contract": "contracts/distributorProduct.sol:distributorProduct",
						"label": "productsIdMappingToStructMapping",
						"offset": 0,
						"slot": "2",
						"type": "t_mapping(t_uint256,t_struct(distributorProduct)20_storage)"
					},
					{
						"astId": 94,
						"contract": "contracts/distributorProduct.sol:distributorProduct",
						"label": "addressToproductsIdMapping",
						"offset": 0,
						"slot": "3",
						"type": "t_mapping(t_address,t_array(t_uint256)dyn_storage)"
					}
				],
				"types": {
					"t_address": {
						"encoding": "inplace",
						"label": "address",
						"numberOfBytes": "20"
					},
					"t_array(t_address)dyn_storage": {
						"base": "t_address",
						"encoding": "dynamic_array",
						"label": "address[]",
						"numberOfBytes": "32"
					},
					"t_array(t_uint256)dyn_storage": {
						"base": "t_uint256",
						"encoding": "dynamic_array",
						"label": "uint256[]",
						"numberOfBytes": "32"
					},
					"t_bytes_storage": {
						"encoding": "bytes",
						"label": "bytes",
						"numberOfBytes": "32"
					},
					"t_mapping(t_address,t_array(t_uint256)dyn_storage)": {
						"encoding": "mapping",
						"key": "t_address",
						"label": "mapping(address => uint256[])",
						"numberOfBytes": "32",
						"value": "t_array(t_uint256)dyn_storage"
					},
					"t_mapping(t_uint256,t_struct(distributorProduct)20_storage)": {
						"encoding": "mapping",
						"key": "t_uint256",
						"label": "mapping(uint256 => struct IDistributorProduct.distributorProduct)",
						"numberOfBytes": "32",
						"value": "t_struct(distributorProduct)20_storage"
					},
					"t_struct(distributorProduct)20_storage": {
						"encoding": "inplace",
						"label": "struct IDistributorProduct.distributorProduct",
						"members": [
							{
								"astId": 4,
								"contract": "contracts/distributorProduct.sol:distributorProduct",
								"label": "manufacturerAddress",
								"offset": 0,
								"slot": "0",
								"type": "t_array(t_address)dyn_storage"
							},
							{
								"astId": 7,
								"contract": "contracts/distributorProduct.sol:distributorProduct",
								"label": "md_id",
								"offset": 0,
								"slot": "1",
								"type": "t_array(t_uint256)dyn_storage"
							},
							{
								"astId": 9,
								"contract": "contracts/distributorProduct.sol:distributorProduct",
								"label": "dp_name",
								"offset": 0,
								"slot": "2",
								"type": "t_bytes_storage"
							},
							{
								"astId": 11,
								"contract": "contracts/distributorProduct.sol:distributorProduct",
								"label": "dp_description",
								"offset": 0,
								"slot": "3",
								"type": "t_bytes_storage"
							},
							{
								"astId": 13,
								"contract": "contracts/distributorProduct.sol:distributorProduct",
								"label": "dp_unit",
								"offset": 0,
								"slot": "4",
								"type": "t_uint128"
							},
							{
								"astId": 15,
								"contract": "contracts/distributorProduct.sol:distributorProduct",
								"label": "dp_price",
								"offset": 16,
								"slot": "4",
								"type": "t_uint128"
							},
							{
								"astId": 17,
								"contract": "contracts/distributorProduct.sol:distributorProduct",
								"label": "dp_date",
								"offset": 0,
								"slot": "5",
								"type": "t_uint32"
							},
							{
								"astId": 19,
								"contract": "contracts/distributorProduct.sol:distributorProduct",
								"label": "dp_expiryDate",
								"offset": 4,
								"slot": "5",
								"type": "t_uint32"
							}
						],
						"numberOfBytes": "192"
					},
					"t_uint128": {
						"encoding": "inplace",
						"label": "uint128",
						"numberOfBytes": "16"
					},
					"t_uint256": {
						"encoding": "inplace",
						"label": "uint256",
						"numberOfBytes": "32"
					},
					"t_uint32": {
						"encoding": "inplace",
						"label": "uint32",
						"numberOfBytes": "4"
					}
				}
			},
			"userdoc": {
				"kind": "user",
				"methods": {},
				"version": 1
			}
		}
	}
}