{
	"contracts/supplierProduct.sol": {
		"supplierProduct": {
			"abi": [
				{
					"anonymous": false,
					"inputs": [
						{
							"indexed": true,
							"internalType": "uint256",
							"name": "_spid",
							"type": "uint256"
						},
						{
							"indexed": true,
							"internalType": "address",
							"name": "_address",
							"type": "address"
						},
						{
							"indexed": false,
							"internalType": "bytes",
							"name": "_name",
							"type": "bytes"
						},
						{
							"indexed": false,
							"internalType": "bytes",
							"name": "_description",
							"type": "bytes"
						},
						{
							"indexed": false,
							"internalType": "uint128",
							"name": "_unit",
							"type": "uint128"
						},
						{
							"indexed": false,
							"internalType": "uint128",
							"name": "_price",
							"type": "uint128"
						},
						{
							"indexed": false,
							"internalType": "uint32",
							"name": "_date",
							"type": "uint32"
						},
						{
							"indexed": false,
							"internalType": "uint32",
							"name": "_expiryDate",
							"type": "uint32"
						},
						{
							"indexed": false,
							"internalType": "uint256",
							"name": "_timeAdded",
							"type": "uint256"
						}
					],
					"name": "eventAddSupplierProduct",
					"type": "event"
				},
				{
					"anonymous": false,
					"inputs": [
						{
							"indexed": true,
							"internalType": "uint256",
							"name": "_spId",
							"type": "uint256"
						}
					],
					"name": "eventDeleteSupplierProduct",
					"type": "event"
				},
				{
					"anonymous": false,
					"inputs": [
						{
							"indexed": true,
							"internalType": "uint256",
							"name": "_spId",
							"type": "uint256"
						},
						{
							"indexed": false,
							"internalType": "uint128",
							"name": "_quantity",
							"type": "uint128"
						}
					],
					"name": "eventUpdateSupplierProductUints",
					"type": "event"
				},
				{
					"inputs": [
						{
							"internalType": "bytes",
							"name": "_name",
							"type": "bytes"
						},
						{
							"internalType": "bytes",
							"name": "_description",
							"type": "bytes"
						},
						{
							"internalType": "uint128",
							"name": "_unit",
							"type": "uint128"
						},
						{
							"internalType": "uint128",
							"name": "_price",
							"type": "uint128"
						},
						{
							"internalType": "uint32",
							"name": "_date",
							"type": "uint32"
						},
						{
							"internalType": "uint32",
							"name": "_expiryDate",
							"type": "uint32"
						}
					],
					"name": "addSupplierProduct",
					"outputs": [],
					"stateMutability": "nonpayable",
					"type": "function"
				},
				{
					"inputs": [
						{
							"internalType": "uint256",
							"name": "_spId",
							"type": "uint256"
						}
					],
					"name": "deleteSupplierProduct",
					"outputs": [],
					"stateMutability": "nonpayable",
					"type": "function"
				},
				{
					"inputs": [
						{
							"internalType": "address",
							"name": "_supplierAddress",
							"type": "address"
						}
					],
					"name": "getAllActiveProductsOfSupplier",
					"outputs": [
						{
							"components": [
								{
									"internalType": "address",
									"name": "supplierAddress",
									"type": "address"
								},
								{
									"internalType": "bytes",
									"name": "sp_name",
									"type": "bytes"
								},
								{
									"internalType": "bytes",
									"name": "sp_description",
									"type": "bytes"
								},
								{
									"internalType": "uint128",
									"name": "sp_unit",
									"type": "uint128"
								},
								{
									"internalType": "uint128",
									"name": "sp_price",
									"type": "uint128"
								},
								{
									"internalType": "uint32",
									"name": "sp_date",
									"type": "uint32"
								},
								{
									"internalType": "uint32",
									"name": "sp_expiryDate",
									"type": "uint32"
								},
								{
									"internalType": "bool",
									"name": "sp_status",
									"type": "bool"
								}
							],
							"internalType": "struct ISupplierProduct.supplierProduct[]",
							"name": "",
							"type": "tuple[]"
						},
						{
							"internalType": "uint256[]",
							"name": "",
							"type": "uint256[]"
						}
					],
					"stateMutability": "view",
					"type": "function"
				},
				{
					"inputs": [
						{
							"internalType": "address",
							"name": "_supplierAddress",
							"type": "address"
						}
					],
					"name": "getAllProductsOfSupplier",
					"outputs": [
						{
							"components": [
								{
									"internalType": "address",
									"name": "supplierAddress",
									"type": "address"
								},
								{
									"internalType": "bytes",
									"name": "sp_name",
									"type": "bytes"
								},
								{
									"internalType": "bytes",
									"name": "sp_description",
									"type": "bytes"
								},
								{
									"internalType": "uint128",
									"name": "sp_unit",
									"type": "uint128"
								},
								{
									"internalType": "uint128",
									"name": "sp_price",
									"type": "uint128"
								},
								{
									"internalType": "uint32",
									"name": "sp_date",
									"type": "uint32"
								},
								{
									"internalType": "uint32",
									"name": "sp_expiryDate",
									"type": "uint32"
								},
								{
									"internalType": "bool",
									"name": "sp_status",
									"type": "bool"
								}
							],
							"internalType": "struct ISupplierProduct.supplierProduct[]",
							"name": "",
							"type": "tuple[]"
						},
						{
							"internalType": "uint256[]",
							"name": "_productIds",
							"type": "uint256[]"
						}
					],
					"stateMutability": "view",
					"type": "function"
				},
				{
					"inputs": [
						{
							"internalType": "uint256",
							"name": "_spId",
							"type": "uint256"
						}
					],
					"name": "getSingleSupplierProduct",
					"outputs": [
						{
							"components": [
								{
									"internalType": "address",
									"name": "supplierAddress",
									"type": "address"
								},
								{
									"internalType": "bytes",
									"name": "sp_name",
									"type": "bytes"
								},
								{
									"internalType": "bytes",
									"name": "sp_description",
									"type": "bytes"
								},
								{
									"internalType": "uint128",
									"name": "sp_unit",
									"type": "uint128"
								},
								{
									"internalType": "uint128",
									"name": "sp_price",
									"type": "uint128"
								},
								{
									"internalType": "uint32",
									"name": "sp_date",
									"type": "uint32"
								},
								{
									"internalType": "uint32",
									"name": "sp_expiryDate",
									"type": "uint32"
								},
								{
									"internalType": "bool",
									"name": "sp_status",
									"type": "bool"
								}
							],
							"internalType": "struct ISupplierProduct.supplierProduct",
							"name": "",
							"type": "tuple"
						}
					],
					"stateMutability": "view",
					"type": "function"
				},
				{
					"inputs": [
						{
							"internalType": "address",
							"name": "_address",
							"type": "address"
						}
					],
					"name": "getSpIdsByAddress",
					"outputs": [
						{
							"internalType": "uint256[]",
							"name": "",
							"type": "uint256[]"
						}
					],
					"stateMutability": "view",
					"type": "function"
				},
				{
					"inputs": [],
					"name": "getSupplierProductIds",
					"outputs": [
						{
							"internalType": "uint256[]",
							"name": "",
							"type": "uint256[]"
						}
					],
					"stateMutability": "view",
					"type": "function"
				},
				{
					"inputs": [
						{
							"internalType": "address",
							"name": "",
							"type": "address"
						},
						{
							"internalType": "uint256",
							"name": "",
							"type": "uint256"
						}
					],
					"name": "supplierAddressToproductsIdMapping",
					"outputs": [
						{
							"internalType": "uint256",
							"name": "",
							"type": "uint256"
						}
					],
					"stateMutability": "view",
					"type": "function"
				},
				{
					"inputs": [
						{
							"internalType": "uint256",
							"name": "",
							"type": "uint256"
						}
					],
					"name": "supplierProductsIdToStructMapping",
					"outputs": [
						{
							"internalType": "address",
							"name": "supplierAddress",
							"type": "address"
						},
						{
							"internalType": "bytes",
							"name": "sp_name",
							"type": "bytes"
						},
						{
							"internalType": "bytes",
							"name": "sp_description",
							"type": "bytes"
						},
						{
							"internalType": "uint128",
							"name": "sp_unit",
							"type": "uint128"
						},
						{
							"internalType": "uint128",
							"name": "sp_price",
							"type": "uint128"
						},
						{
							"internalType": "uint32",
							"name": "sp_date",
							"type": "uint32"
						},
						{
							"internalType": "uint32",
							"name": "sp_expiryDate",
							"type": "uint32"
						},
						{
							"internalType": "bool",
							"name": "sp_status",
							"type": "bool"
						}
					],
					"stateMutability": "view",
					"type": "function"
				},
				{
					"inputs": [
						{
							"internalType": "uint256",
							"name": "_spId",
							"type": "uint256"
						},
						{
							"internalType": "uint128",
							"name": "_quantity",
							"type": "uint128"
						}
					],
					"name": "updateSupplierProductUints",
					"outputs": [],
					"stateMutability": "nonpayable",
					"type": "function"
				}
			],
			"devdoc": {
				"author": "ProvyLens team",
				"kind": "dev",
				"methods": {},
				"title": "The contract for handling supplier' product",
				"version": 1
			},
			"evm": {
				"assembly": "    /* \"contracts/supplierProduct.sol\":250:4623  contract supplierProduct is ISupplierProduct{... */\n  mstore(0x40, 0x80)\n    /* \"contracts/supplierProduct.sol\":370:371  1 */\n  0x01\n    /* \"contracts/supplierProduct.sol\":358:371  uint spId = 1 */\n  0x00\n  sstore\n    /* \"contracts/supplierProduct.sol\":250:4623  contract supplierProduct is ISupplierProduct{... */\n  callvalue\n  dup1\n  iszero\n  tag_1\n  jumpi\n  0x00\n  dup1\n  revert\ntag_1:\n  pop\n  dataSize(sub_0)\n  dup1\n  dataOffset(sub_0)\n  0x00\n  codecopy\n  0x00\n  return\nstop\n\nsub_0: assembly {\n        /* \"contracts/supplierProduct.sol\":250:4623  contract supplierProduct is ISupplierProduct{... */\n      mstore(0x40, 0x80)\n      callvalue\n      dup1\n      iszero\n      tag_1\n      jumpi\n      0x00\n      dup1\n      revert\n    tag_1:\n      pop\n      jumpi(tag_2, lt(calldatasize, 0x04))\n      shr(0xe0, calldataload(0x00))\n      dup1\n      0x83f95853\n      gt\n      tag_13\n      jumpi\n      dup1\n      0x83f95853\n      eq\n      tag_8\n      jumpi\n      dup1\n      0xc22ef68e\n      eq\n      tag_9\n      jumpi\n      dup1\n      0xe10f28c7\n      eq\n      tag_10\n      jumpi\n      dup1\n      0xee7e7c99\n      eq\n      tag_11\n      jumpi\n      dup1\n      0xf8bafa70\n      eq\n      tag_12\n      jumpi\n      jump(tag_2)\n    tag_13:\n      dup1\n      0x11517205\n      eq\n      tag_3\n      jumpi\n      dup1\n      0x2777259b\n      eq\n      tag_4\n      jumpi\n      dup1\n      0x42af31d7\n      eq\n      tag_5\n      jumpi\n      dup1\n      0x6c87b826\n      eq\n      tag_6\n      jumpi\n      dup1\n      0x79ae0257\n      eq\n      tag_7\n      jumpi\n    tag_2:\n      0x00\n      dup1\n      revert\n        /* \"contracts/supplierProduct.sol\":2204:2353  function getSpIdsByAddress(address _address) public view returns(uint[] memory){... */\n    tag_3:\n      tag_14\n      0x04\n      dup1\n      calldatasize\n      sub\n      dup2\n      add\n      swap1\n      tag_15\n      swap2\n      swap1\n      tag_16\n      jump\t// in\n    tag_15:\n      tag_17\n      jump\t// in\n    tag_14:\n      mload(0x40)\n      tag_18\n      swap2\n      swap1\n      tag_19\n      jump\t// in\n    tag_18:\n      mload(0x40)\n      dup1\n      swap2\n      sub\n      swap1\n      return\n        /* \"contracts/supplierProduct.sol\":3304:4343  function getAllActiveProductsOfSupplier(address _supplierAddress) public view returns (supplierProduct[] memory, uint[] memory)... */\n    tag_4:\n      tag_20\n      0x04\n      dup1\n      calldatasize\n      sub\n      dup2\n      add\n      swap1\n      tag_21\n      swap2\n      swap1\n      tag_16\n      jump\t// in\n    tag_21:\n      tag_22\n      jump\t// in\n    tag_20:\n      mload(0x40)\n      tag_23\n      swap3\n      swap2\n      swap1\n      tag_24\n      jump\t// in\n    tag_23:\n      mload(0x40)\n      dup1\n      swap2\n      sub\n      swap1\n      return\n        /* \"contracts/supplierProduct.sol\":598:666  mapping(address => uint[]) public supplierAddressToproductsIdMapping */\n    tag_5:\n      tag_25\n      0x04\n      dup1\n      calldatasize\n      sub\n      dup2\n      add\n      swap1\n      tag_26\n      swap2\n      swap1\n      tag_27\n      jump\t// in\n    tag_26:\n      tag_28\n      jump\t// in\n    tag_25:\n      mload(0x40)\n      tag_29\n      swap2\n      swap1\n      tag_30\n      jump\t// in\n    tag_29:\n      mload(0x40)\n      dup1\n      swap2\n      sub\n      swap1\n      return\n        /* \"contracts/supplierProduct.sol\":447:520  mapping(uint => supplierProduct) public supplierProductsIdToStructMapping */\n    tag_6:\n      tag_31\n      0x04\n      dup1\n      calldatasize\n      sub\n      dup2\n      add\n      swap1\n      tag_32\n      swap2\n      swap1\n      tag_33\n      jump\t// in\n    tag_32:\n      tag_34\n      jump\t// in\n    tag_31:\n      mload(0x40)\n      tag_35\n      swap9\n      swap8\n      swap7\n      swap6\n      swap5\n      swap4\n      swap3\n      swap2\n      swap1\n      tag_36\n      jump\t// in\n    tag_35:\n      mload(0x40)\n      dup1\n      swap2\n      sub\n      swap1\n      return\n        /* \"contracts/supplierProduct.sol\":4438:4620  function deleteSupplierProduct(uint _spId)public override {... */\n    tag_7:\n      tag_37\n      0x04\n      dup1\n      calldatasize\n      sub\n      dup2\n      add\n      swap1\n      tag_38\n      swap2\n      swap1\n      tag_33\n      jump\t// in\n    tag_38:\n      tag_39\n      jump\t// in\n    tag_37:\n      stop\n        /* \"contracts/supplierProduct.sol\":2672:3181  function getAllProductsOfSupplier(address _supplierAddress) public view returns(supplierProduct[] memory, uint[] memory _productIds)... */\n    tag_8:\n      tag_40\n      0x04\n      dup1\n      calldatasize\n      sub\n      dup2\n      add\n      swap1\n      tag_41\n      swap2\n      swap1\n      tag_16\n      jump\t// in\n    tag_41:\n      tag_42\n      jump\t// in\n    tag_40:\n      mload(0x40)\n      tag_43\n      swap3\n      swap2\n      swap1\n      tag_24\n      jump\t// in\n    tag_43:\n      mload(0x40)\n      dup1\n      swap2\n      sub\n      swap1\n      return\n        /* \"contracts/supplierProduct.sol\":2422:2577  function getSingleSupplierProduct(uint _spId) public view returns(supplierProduct memory){... */\n    tag_9:\n      tag_44\n      0x04\n      dup1\n      calldatasize\n      sub\n      dup2\n      add\n      swap1\n      tag_45\n      swap2\n      swap1\n      tag_33\n      jump\t// in\n    tag_45:\n      tag_46\n      jump\t// in\n    tag_44:\n      mload(0x40)\n      tag_47\n      swap2\n      swap1\n      tag_48\n      jump\t// in\n    tag_47:\n      mload(0x40)\n      dup1\n      swap2\n      sub\n      swap1\n      return\n        /* \"contracts/supplierProduct.sol\":2048:2187  function getSupplierProductIds() public view returns(uint[] memory){... */\n    tag_10:\n      tag_49\n      tag_50\n      jump\t// in\n    tag_49:\n      mload(0x40)\n      tag_51\n      swap2\n      swap1\n      tag_19\n      jump\t// in\n    tag_51:\n      mload(0x40)\n      dup1\n      swap2\n      sub\n      swap1\n      return\n        /* \"contracts/supplierProduct.sol\":1143:1648  function addSupplierProduct(bytes calldata _name,bytes calldata _description,uint128 _unit,uint128 _price,uint32 _date,uint32 _expiryDate)public override  {... */\n    tag_11:\n      tag_52\n      0x04\n      dup1\n      calldatasize\n      sub\n      dup2\n      add\n      swap1\n      tag_53\n      swap2\n      swap1\n      tag_54\n      jump\t// in\n    tag_53:\n      tag_55\n      jump\t// in\n    tag_52:\n      stop\n        /* \"contracts/supplierProduct.sol\":1715:1983  function updateSupplierProductUints(uint _spId, uint128 _quantity) public override{... */\n    tag_12:\n      tag_56\n      0x04\n      dup1\n      calldatasize\n      sub\n      dup2\n      add\n      swap1\n      tag_57\n      swap2\n      swap1\n      tag_58\n      jump\t// in\n    tag_57:\n      tag_59\n      jump\t// in\n    tag_56:\n      stop\n        /* \"contracts/supplierProduct.sol\":2204:2353  function getSpIdsByAddress(address _address) public view returns(uint[] memory){... */\n    tag_17:\n        /* \"contracts/supplierProduct.sol\":2269:2282  uint[] memory */\n      0x60\n        /* \"contracts/supplierProduct.sol\":2301:2335  supplierAddressToproductsIdMapping */\n      0x02\n        /* \"contracts/supplierProduct.sol\":2301:2345  supplierAddressToproductsIdMapping[_address] */\n      0x00\n        /* \"contracts/supplierProduct.sol\":2336:2344  _address */\n      dup4\n        /* \"contracts/supplierProduct.sol\":2301:2345  supplierAddressToproductsIdMapping[_address] */\n      0xffffffffffffffffffffffffffffffffffffffff\n      and\n      0xffffffffffffffffffffffffffffffffffffffff\n      and\n      dup2\n      mstore\n      0x20\n      add\n      swap1\n      dup2\n      mstore\n      0x20\n      add\n      0x00\n      keccak256\n        /* \"contracts/supplierProduct.sol\":2294:2345  return supplierAddressToproductsIdMapping[_address] */\n      dup1\n      sload\n      dup1\n      0x20\n      mul\n      0x20\n      add\n      mload(0x40)\n      swap1\n      dup2\n      add\n      0x40\n      mstore\n      dup1\n      swap3\n      swap2\n      swap1\n      dup2\n      dup2\n      mstore\n      0x20\n      add\n      dup3\n      dup1\n      sload\n      dup1\n      iszero\n      tag_61\n      jumpi\n      0x20\n      mul\n      dup3\n      add\n      swap2\n      swap1\n      0x00\n      mstore\n      keccak256(0x00, 0x20)\n      swap1\n    tag_62:\n      dup2\n      sload\n      dup2\n      mstore\n      0x20\n      add\n      swap1\n      0x01\n      add\n      swap1\n      dup1\n      dup4\n      gt\n      tag_62\n      jumpi\n    tag_61:\n      pop\n      pop\n      pop\n      pop\n      pop\n      swap1\n      pop\n        /* \"contracts/supplierProduct.sol\":2204:2353  function getSpIdsByAddress(address _address) public view returns(uint[] memory){... */\n      swap2\n      swap1\n      pop\n      jump\t// out\n        /* \"contracts/supplierProduct.sol\":3304:4343  function getAllActiveProductsOfSupplier(address _supplierAddress) public view returns (supplierProduct[] memory, uint[] memory)... */\n    tag_22:\n        /* \"contracts/supplierProduct.sol\":3391:3415  supplierProduct[] memory */\n      0x60\n        /* \"contracts/supplierProduct.sol\":3417:3430  uint[] memory */\n      dup1\n        /* \"contracts/supplierProduct.sol\":3448:3472  uint[] memory productIds */\n      0x00\n        /* \"contracts/supplierProduct.sol\":3475:3509  supplierAddressToproductsIdMapping */\n      0x02\n        /* \"contracts/supplierProduct.sol\":3475:3527  supplierAddressToproductsIdMapping[_supplierAddress] */\n      0x00\n        /* \"contracts/supplierProduct.sol\":3510:3526  _supplierAddress */\n      dup6\n        /* \"contracts/supplierProduct.sol\":3475:3527  supplierAddressToproductsIdMapping[_supplierAddress] */\n      0xffffffffffffffffffffffffffffffffffffffff\n      and\n      0xffffffffffffffffffffffffffffffffffffffff\n      and\n      dup2\n      mstore\n      0x20\n      add\n      swap1\n      dup2\n      mstore\n      0x20\n      add\n      0x00\n      keccak256\n        /* \"contracts/supplierProduct.sol\":3448:3527  uint[] memory productIds = supplierAddressToproductsIdMapping[_supplierAddress] */\n      dup1\n      sload\n      dup1\n      0x20\n      mul\n      0x20\n      add\n      mload(0x40)\n      swap1\n      dup2\n      add\n      0x40\n      mstore\n      dup1\n      swap3\n      swap2\n      swap1\n      dup2\n      dup2\n      mstore\n      0x20\n      add\n      dup3\n      dup1\n      sload\n      dup1\n      iszero\n      tag_64\n      jumpi\n      0x20\n      mul\n      dup3\n      add\n      swap2\n      swap1\n      0x00\n      mstore\n      keccak256(0x00, 0x20)\n      swap1\n    tag_65:\n      dup2\n      sload\n      dup2\n      mstore\n      0x20\n      add\n      swap1\n      0x01\n      add\n      swap1\n      dup1\n      dup4\n      gt\n      tag_65\n      jumpi\n    tag_64:\n      pop\n      pop\n      pop\n      pop\n      pop\n      swap1\n      pop\n        /* \"contracts/supplierProduct.sol\":3538:3569  uint[] memory activeProductsIds */\n      0x00\n        /* \"contracts/supplierProduct.sol\":3583:3593  productIds */\n      dup2\n        /* \"contracts/supplierProduct.sol\":3583:3600  productIds.length */\n      mload\n        /* \"contracts/supplierProduct.sol\":3572:3601  new uint[](productIds.length) */\n      0xffffffffffffffff\n      dup2\n      gt\n      iszero\n      tag_66\n      jumpi\n      tag_67\n      tag_68\n      jump\t// in\n    tag_67:\n    tag_66:\n      mload(0x40)\n      swap1\n      dup1\n      dup3\n      mstore\n      dup1\n      0x20\n      mul\n      0x20\n      add\n      dup3\n      add\n      0x40\n      mstore\n      dup1\n      iszero\n      tag_69\n      jumpi\n      dup2\n      0x20\n      add\n      0x20\n      dup3\n      mul\n      dup1\n      calldatasize\n      dup4\n      calldatacopy\n      dup1\n      dup3\n      add\n      swap2\n      pop\n      pop\n      swap1\n      pop\n    tag_69:\n      pop\n        /* \"contracts/supplierProduct.sol\":3538:3601  uint[] memory activeProductsIds = new uint[](productIds.length) */\n      swap1\n      pop\n        /* \"contracts/supplierProduct.sol\":3612:3653  supplierProduct[] memory supplierProducts */\n      0x00\n        /* \"contracts/supplierProduct.sol\":3678:3688  productIds */\n      dup3\n        /* \"contracts/supplierProduct.sol\":3678:3695  productIds.length */\n      mload\n        /* \"contracts/supplierProduct.sol\":3656:3696  new supplierProduct[](productIds.length) */\n      0xffffffffffffffff\n      dup2\n      gt\n      iszero\n      tag_70\n      jumpi\n      tag_71\n      tag_68\n      jump\t// in\n    tag_71:\n    tag_70:\n      mload(0x40)\n      swap1\n      dup1\n      dup3\n      mstore\n      dup1\n      0x20\n      mul\n      0x20\n      add\n      dup3\n      add\n      0x40\n      mstore\n      dup1\n      iszero\n      tag_72\n      jumpi\n      dup2\n      0x20\n      add\n    tag_73:\n      tag_74\n      tag_75\n      jump\t// in\n    tag_74:\n      dup2\n      mstore\n      0x20\n      add\n      swap1\n      0x01\n      swap1\n      sub\n      swap1\n      dup2\n      tag_73\n      jumpi\n      swap1\n      pop\n    tag_72:\n      pop\n        /* \"contracts/supplierProduct.sol\":3612:3696  supplierProduct[] memory supplierProducts = new supplierProduct[](productIds.length) */\n      swap1\n      pop\n        /* \"contracts/supplierProduct.sol\":3707:3723  uint activeCount */\n      0x00\n        /* \"contracts/supplierProduct.sol\":3743:3749  uint i */\n      dup1\n        /* \"contracts/supplierProduct.sol\":3738:4118  for (uint i = 0; i < productIds.length; i++) {... */\n    tag_76:\n        /* \"contracts/supplierProduct.sol\":3759:3769  productIds */\n      dup5\n        /* \"contracts/supplierProduct.sol\":3759:3776  productIds.length */\n      mload\n        /* \"contracts/supplierProduct.sol\":3755:3756  i */\n      dup2\n        /* \"contracts/supplierProduct.sol\":3755:3776  i < productIds.length */\n      lt\n        /* \"contracts/supplierProduct.sol\":3738:4118  for (uint i = 0; i < productIds.length; i++) {... */\n      iszero\n      tag_77\n      jumpi\n        /* \"contracts/supplierProduct.sol\":3798:3812  uint productId */\n      0x00\n        /* \"contracts/supplierProduct.sol\":3815:3825  productIds */\n      dup6\n        /* \"contracts/supplierProduct.sol\":3826:3827  i */\n      dup3\n        /* \"contracts/supplierProduct.sol\":3815:3828  productIds[i] */\n      dup2\n      mload\n      dup2\n      lt\n      tag_79\n      jumpi\n      tag_80\n      tag_81\n      jump\t// in\n    tag_80:\n    tag_79:\n      0x20\n      mul\n      0x20\n      add\n      add\n      mload\n        /* \"contracts/supplierProduct.sol\":3798:3828  uint productId = productIds[i] */\n      swap1\n      pop\n        /* \"contracts/supplierProduct.sol\":3847:3880  supplierProductsIdToStructMapping */\n      0x01\n        /* \"contracts/supplierProduct.sol\":3847:3891  supplierProductsIdToStructMapping[productId] */\n      0x00\n        /* \"contracts/supplierProduct.sol\":3881:3890  productId */\n      dup3\n        /* \"contracts/supplierProduct.sol\":3847:3891  supplierProductsIdToStructMapping[productId] */\n      dup2\n      mstore\n      0x20\n      add\n      swap1\n      dup2\n      mstore\n      0x20\n      add\n      0x00\n      keccak256\n        /* \"contracts/supplierProduct.sol\":3847:3901  supplierProductsIdToStructMapping[productId].sp_status */\n      0x04\n      add\n      0x08\n      swap1\n      sload\n      swap1\n      0x0100\n      exp\n      swap1\n      div\n      0xff\n      and\n        /* \"contracts/supplierProduct.sol\":3843:4107  if (supplierProductsIdToStructMapping[productId].sp_status) {... */\n      iszero\n      tag_82\n      jumpi\n        /* \"contracts/supplierProduct.sol\":3954:3987  supplierProductsIdToStructMapping */\n      0x01\n        /* \"contracts/supplierProduct.sol\":3954:3998  supplierProductsIdToStructMapping[productId] */\n      0x00\n        /* \"contracts/supplierProduct.sol\":3988:3997  productId */\n      dup3\n        /* \"contracts/supplierProduct.sol\":3954:3998  supplierProductsIdToStructMapping[productId] */\n      dup2\n      mstore\n      0x20\n      add\n      swap1\n      dup2\n      mstore\n      0x20\n      add\n      0x00\n      keccak256\n        /* \"contracts/supplierProduct.sol\":3922:3998  supplierProducts[activeCount] = supplierProductsIdToStructMapping[productId] */\n      mload(0x40)\n      dup1\n      0x0100\n      add\n      0x40\n      mstore\n      swap1\n      dup2\n      0x00\n      dup3\n      add\n      0x00\n      swap1\n      sload\n      swap1\n      0x0100\n      exp\n      swap1\n      div\n      0xffffffffffffffffffffffffffffffffffffffff\n      and\n      0xffffffffffffffffffffffffffffffffffffffff\n      and\n      0xffffffffffffffffffffffffffffffffffffffff\n      and\n      dup2\n      mstore\n      0x20\n      add\n      0x01\n      dup3\n      add\n      dup1\n      sload\n      tag_83\n      swap1\n      tag_84\n      jump\t// in\n    tag_83:\n      dup1\n      0x1f\n      add\n      0x20\n      dup1\n      swap2\n      div\n      mul\n      0x20\n      add\n      mload(0x40)\n      swap1\n      dup2\n      add\n      0x40\n      mstore\n      dup1\n      swap3\n      swap2\n      swap1\n      dup2\n      dup2\n      mstore\n      0x20\n      add\n      dup3\n      dup1\n      sload\n      tag_85\n      swap1\n      tag_84\n      jump\t// in\n    tag_85:\n      dup1\n      iszero\n      tag_86\n      jumpi\n      dup1\n      0x1f\n      lt\n      tag_87\n      jumpi\n      0x0100\n      dup1\n      dup4\n      sload\n      div\n      mul\n      dup4\n      mstore\n      swap2\n      0x20\n      add\n      swap2\n      jump(tag_86)\n    tag_87:\n      dup3\n      add\n      swap2\n      swap1\n      0x00\n      mstore\n      keccak256(0x00, 0x20)\n      swap1\n    tag_88:\n      dup2\n      sload\n      dup2\n      mstore\n      swap1\n      0x01\n      add\n      swap1\n      0x20\n      add\n      dup1\n      dup4\n      gt\n      tag_88\n      jumpi\n      dup3\n      swap1\n      sub\n      0x1f\n      and\n      dup3\n      add\n      swap2\n    tag_86:\n      pop\n      pop\n      pop\n      pop\n      pop\n      dup2\n      mstore\n      0x20\n      add\n      0x02\n      dup3\n      add\n      dup1\n      sload\n      tag_89\n      swap1\n      tag_84\n      jump\t// in\n    tag_89:\n      dup1\n      0x1f\n      add\n      0x20\n      dup1\n      swap2\n      div\n      mul\n      0x20\n      add\n      mload(0x40)\n      swap1\n      dup2\n      add\n      0x40\n      mstore\n      dup1\n      swap3\n      swap2\n      swap1\n      dup2\n      dup2\n      mstore\n      0x20\n      add\n      dup3\n      dup1\n      sload\n      tag_90\n      swap1\n      tag_84\n      jump\t// in\n    tag_90:\n      dup1\n      iszero\n      tag_91\n      jumpi\n      dup1\n      0x1f\n      lt\n      tag_92\n      jumpi\n      0x0100\n      dup1\n      dup4\n      sload\n      div\n      mul\n      dup4\n      mstore\n      swap2\n      0x20\n      add\n      swap2\n      jump(tag_91)\n    tag_92:\n      dup3\n      add\n      swap2\n      swap1\n      0x00\n      mstore\n      keccak256(0x00, 0x20)\n      swap1\n    tag_93:\n      dup2\n      sload\n      dup2\n      mstore\n      swap1\n      0x01\n      add\n      swap1\n      0x20\n      add\n      dup1\n      dup4\n      gt\n      tag_93\n      jumpi\n      dup3\n      swap1\n      sub\n      0x1f\n      and\n      dup3\n      add\n      swap2\n    tag_91:\n      pop\n      pop\n      pop\n      pop\n      pop\n      dup2\n      mstore\n      0x20\n      add\n      0x03\n      dup3\n      add\n      0x00\n      swap1\n      sload\n      swap1\n      0x0100\n      exp\n      swap1\n      div\n      0xffffffffffffffffffffffffffffffff\n      and\n      0xffffffffffffffffffffffffffffffff\n      and\n      0xffffffffffffffffffffffffffffffff\n      and\n      dup2\n      mstore\n      0x20\n      add\n      0x03\n      dup3\n      add\n      0x10\n      swap1\n      sload\n      swap1\n      0x0100\n      exp\n      swap1\n      div\n      0xffffffffffffffffffffffffffffffff\n      and\n      0xffffffffffffffffffffffffffffffff\n      and\n      0xffffffffffffffffffffffffffffffff\n      and\n      dup2\n      mstore\n      0x20\n      add\n      0x04\n      dup3\n      add\n      0x00\n      swap1\n      sload\n      swap1\n      0x0100\n      exp\n      swap1\n      div\n      0xffffffff\n      and\n      0xffffffff\n      and\n      0xffffffff\n      and\n      dup2\n      mstore\n      0x20\n      add\n      0x04\n      dup3\n      add\n      0x04\n      swap1\n      sload\n      swap1\n      0x0100\n      exp\n      swap1\n      div\n      0xffffffff\n      and\n      0xffffffff\n      and\n      0xffffffff\n      and\n      dup2\n      mstore\n      0x20\n      add\n      0x04\n      dup3\n      add\n      0x08\n      swap1\n      sload\n      swap1\n      0x0100\n      exp\n      swap1\n      div\n      0xff\n      and\n      iszero\n      iszero\n      iszero\n      iszero\n      dup2\n      mstore\n      pop\n      pop\n        /* \"contracts/supplierProduct.sol\":3922:3938  supplierProducts */\n      dup5\n        /* \"contracts/supplierProduct.sol\":3939:3950  activeCount */\n      dup5\n        /* \"contracts/supplierProduct.sol\":3922:3951  supplierProducts[activeCount] */\n      dup2\n      mload\n      dup2\n      lt\n      tag_94\n      jumpi\n      tag_95\n      tag_81\n      jump\t// in\n    tag_95:\n    tag_94:\n      0x20\n      mul\n      0x20\n      add\n      add\n        /* \"contracts/supplierProduct.sol\":3922:3998  supplierProducts[activeCount] = supplierProductsIdToStructMapping[productId] */\n      dup2\n      swap1\n      mstore\n      pop\n        /* \"contracts/supplierProduct.sol\":4050:4059  productId */\n      dup1\n        /* \"contracts/supplierProduct.sol\":4017:4034  activeProductsIds */\n      dup6\n        /* \"contracts/supplierProduct.sol\":4035:4046  activeCount */\n      dup5\n        /* \"contracts/supplierProduct.sol\":4017:4047  activeProductsIds[activeCount] */\n      dup2\n      mload\n      dup2\n      lt\n      tag_96\n      jumpi\n      tag_97\n      tag_81\n      jump\t// in\n    tag_97:\n    tag_96:\n      0x20\n      mul\n      0x20\n      add\n      add\n        /* \"contracts/supplierProduct.sol\":4017:4059  activeProductsIds[activeCount] = productId */\n      dup2\n      dup2\n      mstore\n      pop\n      pop\n        /* \"contracts/supplierProduct.sol\":4078:4091  activeCount++ */\n      dup3\n      dup1\n      tag_98\n      swap1\n      tag_99\n      jump\t// in\n    tag_98:\n      swap4\n      pop\n      pop\n        /* \"contracts/supplierProduct.sol\":3843:4107  if (supplierProductsIdToStructMapping[productId].sp_status) {... */\n    tag_82:\n        /* \"contracts/supplierProduct.sol\":3783:4118  {... */\n      pop\n        /* \"contracts/supplierProduct.sol\":3778:3781  i++ */\n      dup1\n      dup1\n      tag_100\n      swap1\n      tag_99\n      jump\t// in\n    tag_100:\n      swap2\n      pop\n      pop\n        /* \"contracts/supplierProduct.sol\":3738:4118  for (uint i = 0; i < productIds.length; i++) {... */\n      jump(tag_76)\n    tag_77:\n      pop\n        /* \"contracts/supplierProduct.sol\":4128:4151  uint[] memory activeIds */\n      0x00\n        /* \"contracts/supplierProduct.sol\":4165:4176  activeCount */\n      dup2\n        /* \"contracts/supplierProduct.sol\":4154:4177  new uint[](activeCount) */\n      0xffffffffffffffff\n      dup2\n      gt\n      iszero\n      tag_101\n      jumpi\n      tag_102\n      tag_68\n      jump\t// in\n    tag_102:\n    tag_101:\n      mload(0x40)\n      swap1\n      dup1\n      dup3\n      mstore\n      dup1\n      0x20\n      mul\n      0x20\n      add\n      dup3\n      add\n      0x40\n      mstore\n      dup1\n      iszero\n      tag_103\n      jumpi\n      dup2\n      0x20\n      add\n      0x20\n      dup3\n      mul\n      dup1\n      calldatasize\n      dup4\n      calldatacopy\n      dup1\n      dup3\n      add\n      swap2\n      pop\n      pop\n      swap1\n      pop\n    tag_103:\n      pop\n        /* \"contracts/supplierProduct.sol\":4128:4177  uint[] memory activeIds = new uint[](activeCount) */\n      swap1\n      pop\n        /* \"contracts/supplierProduct.sol\":4193:4199  uint i */\n      0x00\n        /* \"contracts/supplierProduct.sol\":4188:4289  for (uint i = 0; i < activeCount; i++) {... */\n    tag_104:\n        /* \"contracts/supplierProduct.sol\":4209:4220  activeCount */\n      dup3\n        /* \"contracts/supplierProduct.sol\":4205:4206  i */\n      dup2\n        /* \"contracts/supplierProduct.sol\":4205:4220  i < activeCount */\n      lt\n        /* \"contracts/supplierProduct.sol\":4188:4289  for (uint i = 0; i < activeCount; i++) {... */\n      iszero\n      tag_105\n      jumpi\n        /* \"contracts/supplierProduct.sol\":4257:4274  activeProductsIds */\n      dup5\n        /* \"contracts/supplierProduct.sol\":4275:4276  i */\n      dup2\n        /* \"contracts/supplierProduct.sol\":4257:4277  activeProductsIds[i] */\n      dup2\n      mload\n      dup2\n      lt\n      tag_107\n      jumpi\n      tag_108\n      tag_81\n      jump\t// in\n    tag_108:\n    tag_107:\n      0x20\n      mul\n      0x20\n      add\n      add\n      mload\n        /* \"contracts/supplierProduct.sol\":4242:4251  activeIds */\n      dup3\n        /* \"contracts/supplierProduct.sol\":4252:4253  i */\n      dup3\n        /* \"contracts/supplierProduct.sol\":4242:4254  activeIds[i] */\n      dup2\n      mload\n      dup2\n      lt\n      tag_109\n      jumpi\n      tag_110\n      tag_81\n      jump\t// in\n    tag_110:\n    tag_109:\n      0x20\n      mul\n      0x20\n      add\n      add\n        /* \"contracts/supplierProduct.sol\":4242:4277  activeIds[i] = activeProductsIds[i] */\n      dup2\n      dup2\n      mstore\n      pop\n      pop\n        /* \"contracts/supplierProduct.sol\":4222:4225  i++ */\n      dup1\n      dup1\n      tag_111\n      swap1\n      tag_99\n      jump\t// in\n    tag_111:\n      swap2\n      pop\n      pop\n        /* \"contracts/supplierProduct.sol\":4188:4289  for (uint i = 0; i < activeCount; i++) {... */\n      jump(tag_104)\n    tag_105:\n      pop\n        /* \"contracts/supplierProduct.sol\":4307:4323  supplierProducts */\n      dup3\n        /* \"contracts/supplierProduct.sol\":4325:4334  activeIds */\n      dup2\n        /* \"contracts/supplierProduct.sol\":4299:4335  return (supplierProducts, activeIds) */\n      swap7\n      pop\n      swap7\n      pop\n      pop\n      pop\n      pop\n      pop\n      pop\n        /* \"contracts/supplierProduct.sol\":3304:4343  function getAllActiveProductsOfSupplier(address _supplierAddress) public view returns (supplierProduct[] memory, uint[] memory)... */\n      swap2\n      pop\n      swap2\n      jump\t// out\n        /* \"contracts/supplierProduct.sol\":598:666  mapping(address => uint[]) public supplierAddressToproductsIdMapping */\n    tag_28:\n      mstore(0x20, 0x02)\n      dup2\n      0x00\n      mstore\n      keccak256(0x00, 0x40)\n      dup2\n      dup2\n      sload\n      dup2\n      lt\n      tag_112\n      jumpi\n      0x00\n      dup1\n      revert\n    tag_112:\n      swap1\n      0x00\n      mstore\n      keccak256(0x00, 0x20)\n      add\n      0x00\n      swap2\n      pop\n      swap2\n      pop\n      pop\n      sload\n      dup2\n      jump\t// out\n        /* \"contracts/supplierProduct.sol\":447:520  mapping(uint => supplierProduct) public supplierProductsIdToStructMapping */\n    tag_34:\n      mstore(0x20, 0x01)\n      dup1\n      0x00\n      mstore\n      keccak256(0x00, 0x40)\n      0x00\n      swap2\n      pop\n      swap1\n      pop\n      dup1\n      0x00\n      add\n      0x00\n      swap1\n      sload\n      swap1\n      0x0100\n      exp\n      swap1\n      div\n      0xffffffffffffffffffffffffffffffffffffffff\n      and\n      swap1\n      dup1\n      0x01\n      add\n      dup1\n      sload\n      tag_114\n      swap1\n      tag_84\n      jump\t// in\n    tag_114:\n      dup1\n      0x1f\n      add\n      0x20\n      dup1\n      swap2\n      div\n      mul\n      0x20\n      add\n      mload(0x40)\n      swap1\n      dup2\n      add\n      0x40\n      mstore\n      dup1\n      swap3\n      swap2\n      swap1\n      dup2\n      dup2\n      mstore\n      0x20\n      add\n      dup3\n      dup1\n      sload\n      tag_115\n      swap1\n      tag_84\n      jump\t// in\n    tag_115:\n      dup1\n      iszero\n      tag_116\n      jumpi\n      dup1\n      0x1f\n      lt\n      tag_117\n      jumpi\n      0x0100\n      dup1\n      dup4\n      sload\n      div\n      mul\n      dup4\n      mstore\n      swap2\n      0x20\n      add\n      swap2\n      jump(tag_116)\n    tag_117:\n      dup3\n      add\n      swap2\n      swap1\n      0x00\n      mstore\n      keccak256(0x00, 0x20)\n      swap1\n    tag_118:\n      dup2\n      sload\n      dup2\n      mstore\n      swap1\n      0x01\n      add\n      swap1\n      0x20\n      add\n      dup1\n      dup4\n      gt\n      tag_118\n      jumpi\n      dup3\n      swap1\n      sub\n      0x1f\n      and\n      dup3\n      add\n      swap2\n    tag_116:\n      pop\n      pop\n      pop\n      pop\n      pop\n      swap1\n      dup1\n      0x02\n      add\n      dup1\n      sload\n      tag_119\n      swap1\n      tag_84\n      jump\t// in\n    tag_119:\n      dup1\n      0x1f\n      add\n      0x20\n      dup1\n      swap2\n      div\n      mul\n      0x20\n      add\n      mload(0x40)\n      swap1\n      dup2\n      add\n      0x40\n      mstore\n      dup1\n      swap3\n      swap2\n      swap1\n      dup2\n      dup2\n      mstore\n      0x20\n      add\n      dup3\n      dup1\n      sload\n      tag_120\n      swap1\n      tag_84\n      jump\t// in\n    tag_120:\n      dup1\n      iszero\n      tag_121\n      jumpi\n      dup1\n      0x1f\n      lt\n      tag_122\n      jumpi\n      0x0100\n      dup1\n      dup4\n      sload\n      div\n      mul\n      dup4\n      mstore\n      swap2\n      0x20\n      add\n      swap2\n      jump(tag_121)\n    tag_122:\n      dup3\n      add\n      swap2\n      swap1\n      0x00\n      mstore\n      keccak256(0x00, 0x20)\n      swap1\n    tag_123:\n      dup2\n      sload\n      dup2\n      mstore\n      swap1\n      0x01\n      add\n      swap1\n      0x20\n      add\n      dup1\n      dup4\n      gt\n      tag_123\n      jumpi\n      dup3\n      swap1\n      sub\n      0x1f\n      and\n      dup3\n      add\n      swap2\n    tag_121:\n      pop\n      pop\n      pop\n      pop\n      pop\n      swap1\n      dup1\n      0x03\n      add\n      0x00\n      swap1\n      sload\n      swap1\n      0x0100\n      exp\n      swap1\n      div\n      0xffffffffffffffffffffffffffffffff\n      and\n      swap1\n      dup1\n      0x03\n      add\n      0x10\n      swap1\n      sload\n      swap1\n      0x0100\n      exp\n      swap1\n      div\n      0xffffffffffffffffffffffffffffffff\n      and\n      swap1\n      dup1\n      0x04\n      add\n      0x00\n      swap1\n      sload\n      swap1\n      0x0100\n      exp\n      swap1\n      div\n      0xffffffff\n      and\n      swap1\n      dup1\n      0x04\n      add\n      0x04\n      swap1\n      sload\n      swap1\n      0x0100\n      exp\n      swap1\n      div\n      0xffffffff\n      and\n      swap1\n      dup1\n      0x04\n      add\n      0x08\n      swap1\n      sload\n      swap1\n      0x0100\n      exp\n      swap1\n      div\n      0xff\n      and\n      swap1\n      pop\n      dup9\n      jump\t// out\n        /* \"contracts/supplierProduct.sol\":4438:4620  function deleteSupplierProduct(uint _spId)public override {... */\n    tag_39:\n        /* \"contracts/supplierProduct.sol\":4558:4563  false */\n      0x00\n        /* \"contracts/supplierProduct.sol\":4507:4540  supplierProductsIdToStructMapping */\n      0x01\n        /* \"contracts/supplierProduct.sol\":4507:4547  supplierProductsIdToStructMapping[_spId] */\n      0x00\n        /* \"contracts/supplierProduct.sol\":4541:4546  _spId */\n      dup4\n        /* \"contracts/supplierProduct.sol\":4507:4547  supplierProductsIdToStructMapping[_spId] */\n      dup2\n      mstore\n      0x20\n      add\n      swap1\n      dup2\n      mstore\n      0x20\n      add\n      0x00\n      keccak256\n        /* \"contracts/supplierProduct.sol\":4507:4557  supplierProductsIdToStructMapping[_spId].sp_status */\n      0x04\n      add\n      0x08\n        /* \"contracts/supplierProduct.sol\":4507:4563  supplierProductsIdToStructMapping[_spId].sp_status=false */\n      0x0100\n      exp\n      dup2\n      sload\n      dup2\n      0xff\n      mul\n      not\n      and\n      swap1\n      dup4\n      iszero\n      iszero\n      mul\n      or\n      swap1\n      sstore\n      pop\n        /* \"contracts/supplierProduct.sol\":4606:4611  _spId */\n      dup1\n        /* \"contracts/supplierProduct.sol\":4579:4612  eventDeleteSupplierProduct(_spId) */\n      0x6c1a4e746947a5049a6693a4875a10617826c8361c631cac61717e141185fdd2\n      mload(0x40)\n      mload(0x40)\n      dup1\n      swap2\n      sub\n      swap1\n      log2\n        /* \"contracts/supplierProduct.sol\":4438:4620  function deleteSupplierProduct(uint _spId)public override {... */\n      pop\n      jump\t// out\n        /* \"contracts/supplierProduct.sol\":2672:3181  function getAllProductsOfSupplier(address _supplierAddress) public view returns(supplierProduct[] memory, uint[] memory _productIds)... */\n    tag_42:\n        /* \"contracts/supplierProduct.sol\":2752:2776  supplierProduct[] memory */\n      0x60\n        /* \"contracts/supplierProduct.sol\":2778:2803  uint[] memory _productIds */\n      dup1\n        /* \"contracts/supplierProduct.sol\":2821:2845  uint[] memory productIds */\n      0x00\n        /* \"contracts/supplierProduct.sol\":2847:2881  supplierAddressToproductsIdMapping */\n      0x02\n        /* \"contracts/supplierProduct.sol\":2847:2899  supplierAddressToproductsIdMapping[_supplierAddress] */\n      0x00\n        /* \"contracts/supplierProduct.sol\":2882:2898  _supplierAddress */\n      dup6\n        /* \"contracts/supplierProduct.sol\":2847:2899  supplierAddressToproductsIdMapping[_supplierAddress] */\n      0xffffffffffffffffffffffffffffffffffffffff\n      and\n      0xffffffffffffffffffffffffffffffffffffffff\n      and\n      dup2\n      mstore\n      0x20\n      add\n      swap1\n      dup2\n      mstore\n      0x20\n      add\n      0x00\n      keccak256\n        /* \"contracts/supplierProduct.sol\":2821:2899  uint[] memory productIds= supplierAddressToproductsIdMapping[_supplierAddress] */\n      dup1\n      sload\n      dup1\n      0x20\n      mul\n      0x20\n      add\n      mload(0x40)\n      swap1\n      dup2\n      add\n      0x40\n      mstore\n      dup1\n      swap3\n      swap2\n      swap1\n      dup2\n      dup2\n      mstore\n      0x20\n      add\n      dup3\n      dup1\n      sload\n      dup1\n      iszero\n      tag_126\n      jumpi\n      0x20\n      mul\n      dup3\n      add\n      swap2\n      swap1\n      0x00\n      mstore\n      keccak256(0x00, 0x20)\n      swap1\n    tag_127:\n      dup2\n      sload\n      dup2\n      mstore\n      0x20\n      add\n      swap1\n      0x01\n      add\n      swap1\n      dup1\n      dup4\n      gt\n      tag_127\n      jumpi\n    tag_126:\n      pop\n      pop\n      pop\n      pop\n      pop\n      swap1\n      pop\n        /* \"contracts/supplierProduct.sol\":2910:2944  supplierProduct[] memory supplierP */\n      0x00\n        /* \"contracts/supplierProduct.sol\":2969:2979  productIds */\n      dup2\n        /* \"contracts/supplierProduct.sol\":2969:2986  productIds.length */\n      mload\n        /* \"contracts/supplierProduct.sol\":2947:2987  new supplierProduct[](productIds.length) */\n      0xffffffffffffffff\n      dup2\n      gt\n      iszero\n      tag_128\n      jumpi\n      tag_129\n      tag_68\n      jump\t// in\n    tag_129:\n    tag_128:\n      mload(0x40)\n      swap1\n      dup1\n      dup3\n      mstore\n      dup1\n      0x20\n      mul\n      0x20\n      add\n      dup3\n      add\n      0x40\n      mstore\n      dup1\n      iszero\n      tag_130\n      jumpi\n      dup2\n      0x20\n      add\n    tag_131:\n      tag_132\n      tag_75\n      jump\t// in\n    tag_132:\n      dup2\n      mstore\n      0x20\n      add\n      swap1\n      0x01\n      swap1\n      sub\n      swap1\n      dup2\n      tag_131\n      jumpi\n      swap1\n      pop\n    tag_130:\n      pop\n        /* \"contracts/supplierProduct.sol\":2910:2987  supplierProduct[] memory supplierP = new supplierProduct[](productIds.length) */\n      swap1\n      pop\n        /* \"contracts/supplierProduct.sol\":3002:3008  uint i */\n      0x00\n        /* \"contracts/supplierProduct.sol\":2998:3134  for(uint i=0;i<productIds.length;i++)... */\n    tag_133:\n        /* \"contracts/supplierProduct.sol\":3013:3023  productIds */\n      dup3\n        /* \"contracts/supplierProduct.sol\":3013:3030  productIds.length */\n      mload\n        /* \"contracts/supplierProduct.sol\":3011:3012  i */\n      dup2\n        /* \"contracts/supplierProduct.sol\":3011:3030  i<productIds.length */\n      lt\n        /* \"contracts/supplierProduct.sol\":2998:3134  for(uint i=0;i<productIds.length;i++)... */\n      iszero\n      tag_134\n      jumpi\n        /* \"contracts/supplierProduct.sol\":3074:3107  supplierProductsIdToStructMapping */\n      0x01\n        /* \"contracts/supplierProduct.sol\":3074:3122  supplierProductsIdToStructMapping[productIds[i]] */\n      0x00\n        /* \"contracts/supplierProduct.sol\":3108:3118  productIds */\n      dup5\n        /* \"contracts/supplierProduct.sol\":3119:3120  i */\n      dup4\n        /* \"contracts/supplierProduct.sol\":3108:3121  productIds[i] */\n      dup2\n      mload\n      dup2\n      lt\n      tag_136\n      jumpi\n      tag_137\n      tag_81\n      jump\t// in\n    tag_137:\n    tag_136:\n      0x20\n      mul\n      0x20\n      add\n      add\n      mload\n        /* \"contracts/supplierProduct.sol\":3074:3122  supplierProductsIdToStructMapping[productIds[i]] */\n      dup2\n      mstore\n      0x20\n      add\n      swap1\n      dup2\n      mstore\n      0x20\n      add\n      0x00\n      keccak256\n        /* \"contracts/supplierProduct.sol\":3060:3122  supplierP[i] =supplierProductsIdToStructMapping[productIds[i]] */\n      mload(0x40)\n      dup1\n      0x0100\n      add\n      0x40\n      mstore\n      swap1\n      dup2\n      0x00\n      dup3\n      add\n      0x00\n      swap1\n      sload\n      swap1\n      0x0100\n      exp\n      swap1\n      div\n      0xffffffffffffffffffffffffffffffffffffffff\n      and\n      0xffffffffffffffffffffffffffffffffffffffff\n      and\n      0xffffffffffffffffffffffffffffffffffffffff\n      and\n      dup2\n      mstore\n      0x20\n      add\n      0x01\n      dup3\n      add\n      dup1\n      sload\n      tag_138\n      swap1\n      tag_84\n      jump\t// in\n    tag_138:\n      dup1\n      0x1f\n      add\n      0x20\n      dup1\n      swap2\n      div\n      mul\n      0x20\n      add\n      mload(0x40)\n      swap1\n      dup2\n      add\n      0x40\n      mstore\n      dup1\n      swap3\n      swap2\n      swap1\n      dup2\n      dup2\n      mstore\n      0x20\n      add\n      dup3\n      dup1\n      sload\n      tag_139\n      swap1\n      tag_84\n      jump\t// in\n    tag_139:\n      dup1\n      iszero\n      tag_140\n      jumpi\n      dup1\n      0x1f\n      lt\n      tag_141\n      jumpi\n      0x0100\n      dup1\n      dup4\n      sload\n      div\n      mul\n      dup4\n      mstore\n      swap2\n      0x20\n      add\n      swap2\n      jump(tag_140)\n    tag_141:\n      dup3\n      add\n      swap2\n      swap1\n      0x00\n      mstore\n      keccak256(0x00, 0x20)\n      swap1\n    tag_142:\n      dup2\n      sload\n      dup2\n      mstore\n      swap1\n      0x01\n      add\n      swap1\n      0x20\n      add\n      dup1\n      dup4\n      gt\n      tag_142\n      jumpi\n      dup3\n      swap1\n      sub\n      0x1f\n      and\n      dup3\n      add\n      swap2\n    tag_140:\n      pop\n      pop\n      pop\n      pop\n      pop\n      dup2\n      mstore\n      0x20\n      add\n      0x02\n      dup3\n      add\n      dup1\n      sload\n      tag_143\n      swap1\n      tag_84\n      jump\t// in\n    tag_143:\n      dup1\n      0x1f\n      add\n      0x20\n      dup1\n      swap2\n      div\n      mul\n      0x20\n      add\n      mload(0x40)\n      swap1\n      dup2\n      add\n      0x40\n      mstore\n      dup1\n      swap3\n      swap2\n      swap1\n      dup2\n      dup2\n      mstore\n      0x20\n      add\n      dup3\n      dup1\n      sload\n      tag_144\n      swap1\n      tag_84\n      jump\t// in\n    tag_144:\n      dup1\n      iszero\n      tag_145\n      jumpi\n      dup1\n      0x1f\n      lt\n      tag_146\n      jumpi\n      0x0100\n      dup1\n      dup4\n      sload\n      div\n      mul\n      dup4\n      mstore\n      swap2\n      0x20\n      add\n      swap2\n      jump(tag_145)\n    tag_146:\n      dup3\n      add\n      swap2\n      swap1\n      0x00\n      mstore\n      keccak256(0x00, 0x20)\n      swap1\n    tag_147:\n      dup2\n      sload\n      dup2\n      mstore\n      swap1\n      0x01\n      add\n      swap1\n      0x20\n      add\n      dup1\n      dup4\n      gt\n      tag_147\n      jumpi\n      dup3\n      swap1\n      sub\n      0x1f\n      and\n      dup3\n      add\n      swap2\n    tag_145:\n      pop\n      pop\n      pop\n      pop\n      pop\n      dup2\n      mstore\n      0x20\n      add\n      0x03\n      dup3\n      add\n      0x00\n      swap1\n      sload\n      swap1\n      0x0100\n      exp\n      swap1\n      div\n      0xffffffffffffffffffffffffffffffff\n      and\n      0xffffffffffffffffffffffffffffffff\n      and\n      0xffffffffffffffffffffffffffffffff\n      and\n      dup2\n      mstore\n      0x20\n      add\n      0x03\n      dup3\n      add\n      0x10\n      swap1\n      sload\n      swap1\n      0x0100\n      exp\n      swap1\n      div\n      0xffffffffffffffffffffffffffffffff\n      and\n      0xffffffffffffffffffffffffffffffff\n      and\n      0xffffffffffffffffffffffffffffffff\n      and\n      dup2\n      mstore\n      0x20\n      add\n      0x04\n      dup3\n      add\n      0x00\n      swap1\n      sload\n      swap1\n      0x0100\n      exp\n      swap1\n      div\n      0xffffffff\n      and\n      0xffffffff\n      and\n      0xffffffff\n      and\n      dup2\n      mstore\n      0x20\n      add\n      0x04\n      dup3\n      add\n      0x04\n      swap1\n      sload\n      swap1\n      0x0100\n      exp\n      swap1\n      div\n      0xffffffff\n      and\n      0xffffffff\n      and\n      0xffffffff\n      and\n      dup2\n      mstore\n      0x20\n      add\n      0x04\n      dup3\n      add\n      0x08\n      swap1\n      sload\n      swap1\n      0x0100\n      exp\n      swap1\n      div\n      0xff\n      and\n      iszero\n      iszero\n      iszero\n      iszero\n      dup2\n      mstore\n      pop\n      pop\n        /* \"contracts/supplierProduct.sol\":3060:3069  supplierP */\n      dup3\n        /* \"contracts/supplierProduct.sol\":3070:3071  i */\n      dup3\n        /* \"contracts/supplierProduct.sol\":3060:3072  supplierP[i] */\n      dup2\n      mload\n      dup2\n      lt\n      tag_148\n      jumpi\n      tag_149\n      tag_81\n      jump\t// in\n    tag_149:\n    tag_148:\n      0x20\n      mul\n      0x20\n      add\n      add\n        /* \"contracts/supplierProduct.sol\":3060:3122  supplierP[i] =supplierProductsIdToStructMapping[productIds[i]] */\n      dup2\n      swap1\n      mstore\n      pop\n        /* \"contracts/supplierProduct.sol\":3031:3034  i++ */\n      dup1\n      dup1\n      tag_150\n      swap1\n      tag_99\n      jump\t// in\n    tag_150:\n      swap2\n      pop\n      pop\n        /* \"contracts/supplierProduct.sol\":2998:3134  for(uint i=0;i<productIds.length;i++)... */\n      jump(tag_133)\n    tag_134:\n      pop\n        /* \"contracts/supplierProduct.sol\":3152:3161  supplierP */\n      dup1\n        /* \"contracts/supplierProduct.sol\":3162:3172  productIds */\n      dup3\n        /* \"contracts/supplierProduct.sol\":3144:3173  return (supplierP,productIds) */\n      swap4\n      pop\n      swap4\n      pop\n      pop\n      pop\n        /* \"contracts/supplierProduct.sol\":2672:3181  function getAllProductsOfSupplier(address _supplierAddress) public view returns(supplierProduct[] memory, uint[] memory _productIds)... */\n      swap2\n      pop\n      swap2\n      jump\t// out\n        /* \"contracts/supplierProduct.sol\":2422:2577  function getSingleSupplierProduct(uint _spId) public view returns(supplierProduct memory){... */\n    tag_46:\n        /* \"contracts/supplierProduct.sol\":2488:2510  supplierProduct memory */\n      tag_151\n      tag_75\n      jump\t// in\n    tag_151:\n        /* \"contracts/supplierProduct.sol\":2529:2562  supplierProductsIdToStructMapping */\n      0x01\n        /* \"contracts/supplierProduct.sol\":2529:2569  supplierProductsIdToStructMapping[_spId] */\n      0x00\n        /* \"contracts/supplierProduct.sol\":2563:2568  _spId */\n      dup4\n        /* \"contracts/supplierProduct.sol\":2529:2569  supplierProductsIdToStructMapping[_spId] */\n      dup2\n      mstore\n      0x20\n      add\n      swap1\n      dup2\n      mstore\n      0x20\n      add\n      0x00\n      keccak256\n        /* \"contracts/supplierProduct.sol\":2522:2569  return supplierProductsIdToStructMapping[_spId] */\n      mload(0x40)\n      dup1\n      0x0100\n      add\n      0x40\n      mstore\n      swap1\n      dup2\n      0x00\n      dup3\n      add\n      0x00\n      swap1\n      sload\n      swap1\n      0x0100\n      exp\n      swap1\n      div\n      0xffffffffffffffffffffffffffffffffffffffff\n      and\n      0xffffffffffffffffffffffffffffffffffffffff\n      and\n      0xffffffffffffffffffffffffffffffffffffffff\n      and\n      dup2\n      mstore\n      0x20\n      add\n      0x01\n      dup3\n      add\n      dup1\n      sload\n      tag_153\n      swap1\n      tag_84\n      jump\t// in\n    tag_153:\n      dup1\n      0x1f\n      add\n      0x20\n      dup1\n      swap2\n      div\n      mul\n      0x20\n      add\n      mload(0x40)\n      swap1\n      dup2\n      add\n      0x40\n      mstore\n      dup1\n      swap3\n      swap2\n      swap1\n      dup2\n      dup2\n      mstore\n      0x20\n      add\n      dup3\n      dup1\n      sload\n      tag_154\n      swap1\n      tag_84\n      jump\t// in\n    tag_154:\n      dup1\n      iszero\n      tag_155\n      jumpi\n      dup1\n      0x1f\n      lt\n      tag_156\n      jumpi\n      0x0100\n      dup1\n      dup4\n      sload\n      div\n      mul\n      dup4\n      mstore\n      swap2\n      0x20\n      add\n      swap2\n      jump(tag_155)\n    tag_156:\n      dup3\n      add\n      swap2\n      swap1\n      0x00\n      mstore\n      keccak256(0x00, 0x20)\n      swap1\n    tag_157:\n      dup2\n      sload\n      dup2\n      mstore\n      swap1\n      0x01\n      add\n      swap1\n      0x20\n      add\n      dup1\n      dup4\n      gt\n      tag_157\n      jumpi\n      dup3\n      swap1\n      sub\n      0x1f\n      and\n      dup3\n      add\n      swap2\n    tag_155:\n      pop\n      pop\n      pop\n      pop\n      pop\n      dup2\n      mstore\n      0x20\n      add\n      0x02\n      dup3\n      add\n      dup1\n      sload\n      tag_158\n      swap1\n      tag_84\n      jump\t// in\n    tag_158:\n      dup1\n      0x1f\n      add\n      0x20\n      dup1\n      swap2\n      div\n      mul\n      0x20\n      add\n      mload(0x40)\n      swap1\n      dup2\n      add\n      0x40\n      mstore\n      dup1\n      swap3\n      swap2\n      swap1\n      dup2\n      dup2\n      mstore\n      0x20\n      add\n      dup3\n      dup1\n      sload\n      tag_159\n      swap1\n      tag_84\n      jump\t// in\n    tag_159:\n      dup1\n      iszero\n      tag_160\n      jumpi\n      dup1\n      0x1f\n      lt\n      tag_161\n      jumpi\n      0x0100\n      dup1\n      dup4\n      sload\n      div\n      mul\n      dup4\n      mstore\n      swap2\n      0x20\n      add\n      swap2\n      jump(tag_160)\n    tag_161:\n      dup3\n      add\n      swap2\n      swap1\n      0x00\n      mstore\n      keccak256(0x00, 0x20)\n      swap1\n    tag_162:\n      dup2\n      sload\n      dup2\n      mstore\n      swap1\n      0x01\n      add\n      swap1\n      0x20\n      add\n      dup1\n      dup4\n      gt\n      tag_162\n      jumpi\n      dup3\n      swap1\n      sub\n      0x1f\n      and\n      dup3\n      add\n      swap2\n    tag_160:\n      pop\n      pop\n      pop\n      pop\n      pop\n      dup2\n      mstore\n      0x20\n      add\n      0x03\n      dup3\n      add\n      0x00\n      swap1\n      sload\n      swap1\n      0x0100\n      exp\n      swap1\n      div\n      0xffffffffffffffffffffffffffffffff\n      and\n      0xffffffffffffffffffffffffffffffff\n      and\n      0xffffffffffffffffffffffffffffffff\n      and\n      dup2\n      mstore\n      0x20\n      add\n      0x03\n      dup3\n      add\n      0x10\n      swap1\n      sload\n      swap1\n      0x0100\n      exp\n      swap1\n      div\n      0xffffffffffffffffffffffffffffffff\n      and\n      0xffffffffffffffffffffffffffffffff\n      and\n      0xffffffffffffffffffffffffffffffff\n      and\n      dup2\n      mstore\n      0x20\n      add\n      0x04\n      dup3\n      add\n      0x00\n      swap1\n      sload\n      swap1\n      0x0100\n      exp\n      swap1\n      div\n      0xffffffff\n      and\n      0xffffffff\n      and\n      0xffffffff\n      and\n      dup2\n      mstore\n      0x20\n      add\n      0x04\n      dup3\n      add\n      0x04\n      swap1\n      sload\n      swap1\n      0x0100\n      exp\n      swap1\n      div\n      0xffffffff\n      and\n      0xffffffff\n      and\n      0xffffffff\n      and\n      dup2\n      mstore\n      0x20\n      add\n      0x04\n      dup3\n      add\n      0x08\n      swap1\n      sload\n      swap1\n      0x0100\n      exp\n      swap1\n      div\n      0xff\n      and\n      iszero\n      iszero\n      iszero\n      iszero\n      dup2\n      mstore\n      pop\n      pop\n      swap1\n      pop\n        /* \"contracts/supplierProduct.sol\":2422:2577  function getSingleSupplierProduct(uint _spId) public view returns(supplierProduct memory){... */\n      swap2\n      swap1\n      pop\n      jump\t// out\n        /* \"contracts/supplierProduct.sol\":2048:2187  function getSupplierProductIds() public view returns(uint[] memory){... */\n    tag_50:\n        /* \"contracts/supplierProduct.sol\":2101:2114  uint[] memory */\n      0x60\n        /* \"contracts/supplierProduct.sol\":2133:2167  supplierAddressToproductsIdMapping */\n      0x02\n        /* \"contracts/supplierProduct.sol\":2133:2179  supplierAddressToproductsIdMapping[msg.sender] */\n      0x00\n        /* \"contracts/supplierProduct.sol\":2168:2178  msg.sender */\n      caller\n        /* \"contracts/supplierProduct.sol\":2133:2179  supplierAddressToproductsIdMapping[msg.sender] */\n      0xffffffffffffffffffffffffffffffffffffffff\n      and\n      0xffffffffffffffffffffffffffffffffffffffff\n      and\n      dup2\n      mstore\n      0x20\n      add\n      swap1\n      dup2\n      mstore\n      0x20\n      add\n      0x00\n      keccak256\n        /* \"contracts/supplierProduct.sol\":2126:2179  return supplierAddressToproductsIdMapping[msg.sender] */\n      dup1\n      sload\n      dup1\n      0x20\n      mul\n      0x20\n      add\n      mload(0x40)\n      swap1\n      dup2\n      add\n      0x40\n      mstore\n      dup1\n      swap3\n      swap2\n      swap1\n      dup2\n      dup2\n      mstore\n      0x20\n      add\n      dup3\n      dup1\n      sload\n      dup1\n      iszero\n      tag_164\n      jumpi\n      0x20\n      mul\n      dup3\n      add\n      swap2\n      swap1\n      0x00\n      mstore\n      keccak256(0x00, 0x20)\n      swap1\n    tag_165:\n      dup2\n      sload\n      dup2\n      mstore\n      0x20\n      add\n      swap1\n      0x01\n      add\n      swap1\n      dup1\n      dup4\n      gt\n      tag_165\n      jumpi\n    tag_164:\n      pop\n      pop\n      pop\n      pop\n      pop\n      swap1\n      pop\n        /* \"contracts/supplierProduct.sol\":2048:2187  function getSupplierProductIds() public view returns(uint[] memory){... */\n      swap1\n      jump\t// out\n        /* \"contracts/supplierProduct.sol\":1143:1648  function addSupplierProduct(bytes calldata _name,bytes calldata _description,uint128 _unit,uint128 _price,uint32 _date,uint32 _expiryDate)public override  {... */\n    tag_55:\n        /* \"contracts/supplierProduct.sol\":1351:1433  supplierProduct(msg.sender,_name,_description,_unit,_price,_date,_expiryDate,true) */\n      mload(0x40)\n      dup1\n      0x0100\n      add\n      0x40\n      mstore\n      dup1\n        /* \"contracts/supplierProduct.sol\":1367:1377  msg.sender */\n      caller\n        /* \"contracts/supplierProduct.sol\":1351:1433  supplierProduct(msg.sender,_name,_description,_unit,_price,_date,_expiryDate,true) */\n      0xffffffffffffffffffffffffffffffffffffffff\n      and\n      dup2\n      mstore\n      0x20\n      add\n        /* \"contracts/supplierProduct.sol\":1378:1383  _name */\n      dup10\n      dup10\n        /* \"contracts/supplierProduct.sol\":1351:1433  supplierProduct(msg.sender,_name,_description,_unit,_price,_date,_expiryDate,true) */\n      dup1\n      dup1\n      0x1f\n      add\n      0x20\n      dup1\n      swap2\n      div\n      mul\n      0x20\n      add\n      mload(0x40)\n      swap1\n      dup2\n      add\n      0x40\n      mstore\n      dup1\n      swap4\n      swap3\n      swap2\n      swap1\n      dup2\n      dup2\n      mstore\n      0x20\n      add\n      dup4\n      dup4\n      dup1\n      dup3\n      dup5\n      calldatacopy\n      0x00\n      dup2\n      dup5\n      add\n      mstore\n      not(0x1f)\n      0x1f\n      dup3\n      add\n      and\n      swap1\n      pop\n      dup1\n      dup4\n      add\n      swap3\n      pop\n      pop\n      pop\n      pop\n      pop\n      pop\n      pop\n      dup2\n      mstore\n      0x20\n      add\n        /* \"contracts/supplierProduct.sol\":1384:1396  _description */\n      dup8\n      dup8\n        /* \"contracts/supplierProduct.sol\":1351:1433  supplierProduct(msg.sender,_name,_description,_unit,_price,_date,_expiryDate,true) */\n      dup1\n      dup1\n      0x1f\n      add\n      0x20\n      dup1\n      swap2\n      div\n      mul\n      0x20\n      add\n      mload(0x40)\n      swap1\n      dup2\n      add\n      0x40\n      mstore\n      dup1\n      swap4\n      swap3\n      swap2\n      swap1\n      dup2\n      dup2\n      mstore\n      0x20\n      add\n      dup4\n      dup4\n      dup1\n      dup3\n      dup5\n      calldatacopy\n      0x00\n      dup2\n      dup5\n      add\n      mstore\n      not(0x1f)\n      0x1f\n      dup3\n      add\n      and\n      swap1\n      pop\n      dup1\n      dup4\n      add\n      swap3\n      pop\n      pop\n      pop\n      pop\n      pop\n      pop\n      pop\n      dup2\n      mstore\n      0x20\n      add\n        /* \"contracts/supplierProduct.sol\":1397:1402  _unit */\n      dup6\n        /* \"contracts/supplierProduct.sol\":1351:1433  supplierProduct(msg.sender,_name,_description,_unit,_price,_date,_expiryDate,true) */\n      0xffffffffffffffffffffffffffffffff\n      and\n      dup2\n      mstore\n      0x20\n      add\n        /* \"contracts/supplierProduct.sol\":1403:1409  _price */\n      dup5\n        /* \"contracts/supplierProduct.sol\":1351:1433  supplierProduct(msg.sender,_name,_description,_unit,_price,_date,_expiryDate,true) */\n      0xffffffffffffffffffffffffffffffff\n      and\n      dup2\n      mstore\n      0x20\n      add\n        /* \"contracts/supplierProduct.sol\":1410:1415  _date */\n      dup4\n        /* \"contracts/supplierProduct.sol\":1351:1433  supplierProduct(msg.sender,_name,_description,_unit,_price,_date,_expiryDate,true) */\n      0xffffffff\n      and\n      dup2\n      mstore\n      0x20\n      add\n        /* \"contracts/supplierProduct.sol\":1416:1427  _expiryDate */\n      dup3\n        /* \"contracts/supplierProduct.sol\":1351:1433  supplierProduct(msg.sender,_name,_description,_unit,_price,_date,_expiryDate,true) */\n      0xffffffff\n      and\n      dup2\n      mstore\n      0x20\n      add\n        /* \"contracts/supplierProduct.sol\":1428:1432  true */\n      0x01\n        /* \"contracts/supplierProduct.sol\":1351:1433  supplierProduct(msg.sender,_name,_description,_unit,_price,_date,_expiryDate,true) */\n      iszero\n      iszero\n      dup2\n      mstore\n      pop\n        /* \"contracts/supplierProduct.sol\":1309:1342  supplierProductsIdToStructMapping */\n      0x01\n        /* \"contracts/supplierProduct.sol\":1309:1348  supplierProductsIdToStructMapping[spId] */\n      0x00\n        /* \"contracts/supplierProduct.sol\":1343:1347  spId */\n      dup1\n      sload\n        /* \"contracts/supplierProduct.sol\":1309:1348  supplierProductsIdToStructMapping[spId] */\n      dup2\n      mstore\n      0x20\n      add\n      swap1\n      dup2\n      mstore\n      0x20\n      add\n      0x00\n      keccak256\n        /* \"contracts/supplierProduct.sol\":1309:1433  supplierProductsIdToStructMapping[spId] = supplierProduct(msg.sender,_name,_description,_unit,_price,_date,_expiryDate,true) */\n      0x00\n      dup3\n      add\n      mload\n      dup2\n      0x00\n      add\n      exp(0x0100, 0x00)\n      dup2\n      sload\n      dup2\n      0xffffffffffffffffffffffffffffffffffffffff\n      mul\n      not\n      and\n      swap1\n      dup4\n      0xffffffffffffffffffffffffffffffffffffffff\n      and\n      mul\n      or\n      swap1\n      sstore\n      pop\n      0x20\n      dup3\n      add\n      mload\n      dup2\n      0x01\n      add\n      swap1\n      dup2\n      tag_167\n      swap2\n      swap1\n      tag_168\n      jump\t// in\n    tag_167:\n      pop\n      0x40\n      dup3\n      add\n      mload\n      dup2\n      0x02\n      add\n      swap1\n      dup2\n      tag_169\n      swap2\n      swap1\n      tag_168\n      jump\t// in\n    tag_169:\n      pop\n      0x60\n      dup3\n      add\n      mload\n      dup2\n      0x03\n      add\n      exp(0x0100, 0x00)\n      dup2\n      sload\n      dup2\n      0xffffffffffffffffffffffffffffffff\n      mul\n      not\n      and\n      swap1\n      dup4\n      0xffffffffffffffffffffffffffffffff\n      and\n      mul\n      or\n      swap1\n      sstore\n      pop\n      0x80\n      dup3\n      add\n      mload\n      dup2\n      0x03\n      add\n      exp(0x0100, 0x10)\n      dup2\n      sload\n      dup2\n      0xffffffffffffffffffffffffffffffff\n      mul\n      not\n      and\n      swap1\n      dup4\n      0xffffffffffffffffffffffffffffffff\n      and\n      mul\n      or\n      swap1\n      sstore\n      pop\n      0xa0\n      dup3\n      add\n      mload\n      dup2\n      0x04\n      add\n      exp(0x0100, 0x00)\n      dup2\n      sload\n      dup2\n      0xffffffff\n      mul\n      not\n      and\n      swap1\n      dup4\n      0xffffffff\n      and\n      mul\n      or\n      swap1\n      sstore\n      pop\n      0xc0\n      dup3\n      add\n      mload\n      dup2\n      0x04\n      add\n      exp(0x0100, 0x04)\n      dup2\n      sload\n      dup2\n      0xffffffff\n      mul\n      not\n      and\n      swap1\n      dup4\n      0xffffffff\n      and\n      mul\n      or\n      swap1\n      sstore\n      pop\n      0xe0\n      dup3\n      add\n      mload\n      dup2\n      0x04\n      add\n      exp(0x0100, 0x08)\n      dup2\n      sload\n      dup2\n      0xff\n      mul\n      not\n      and\n      swap1\n      dup4\n      iszero\n      iszero\n      mul\n      or\n      swap1\n      sstore\n      pop\n      swap1\n      pop\n      pop\n        /* \"contracts/supplierProduct.sol\":1444:1478  supplierAddressToproductsIdMapping */\n      0x02\n        /* \"contracts/supplierProduct.sol\":1444:1490  supplierAddressToproductsIdMapping[msg.sender] */\n      0x00\n        /* \"contracts/supplierProduct.sol\":1479:1489  msg.sender */\n      caller\n        /* \"contracts/supplierProduct.sol\":1444:1490  supplierAddressToproductsIdMapping[msg.sender] */\n      0xffffffffffffffffffffffffffffffffffffffff\n      and\n      0xffffffffffffffffffffffffffffffffffffffff\n      and\n      dup2\n      mstore\n      0x20\n      add\n      swap1\n      dup2\n      mstore\n      0x20\n      add\n      0x00\n      keccak256\n        /* \"contracts/supplierProduct.sol\":1496:1500  spId */\n      sload(0x00)\n        /* \"contracts/supplierProduct.sol\":1444:1501  supplierAddressToproductsIdMapping[msg.sender].push(spId) */\n      swap1\n      dup1\n      0x01\n      dup2\n      sload\n      add\n      dup1\n      dup3\n      sstore\n      dup1\n      swap2\n      pop\n      pop\n      0x01\n      swap1\n      sub\n      swap1\n      0x00\n      mstore\n      keccak256(0x00, 0x20)\n      add\n      0x00\n      swap1\n      swap2\n      swap1\n      swap2\n      swap1\n      swap2\n      pop\n      sstore\n        /* \"contracts/supplierProduct.sol\":1546:1556  msg.sender */\n      caller\n        /* \"contracts/supplierProduct.sol\":1517:1623  eventAddSupplierProduct(spId,msg.sender,_name,_description,_unit,_price,_date,_expiryDate,block.timestamp) */\n      0xffffffffffffffffffffffffffffffffffffffff\n      and\n        /* \"contracts/supplierProduct.sol\":1541:1545  spId */\n      sload(0x00)\n        /* \"contracts/supplierProduct.sol\":1517:1623  eventAddSupplierProduct(spId,msg.sender,_name,_description,_unit,_price,_date,_expiryDate,block.timestamp) */\n      0xb544b666bf20d30fc9acbc75aee55e5847e8f95a49aa5d36b6dab734f0cbb303\n        /* \"contracts/supplierProduct.sol\":1557:1562  _name */\n      dup11\n      dup11\n        /* \"contracts/supplierProduct.sol\":1563:1575  _description */\n      dup11\n      dup11\n        /* \"contracts/supplierProduct.sol\":1576:1581  _unit */\n      dup11\n        /* \"contracts/supplierProduct.sol\":1582:1588  _price */\n      dup11\n        /* \"contracts/supplierProduct.sol\":1589:1594  _date */\n      dup11\n        /* \"contracts/supplierProduct.sol\":1595:1606  _expiryDate */\n      dup11\n        /* \"contracts/supplierProduct.sol\":1607:1622  block.timestamp */\n      timestamp\n        /* \"contracts/supplierProduct.sol\":1517:1623  eventAddSupplierProduct(spId,msg.sender,_name,_description,_unit,_price,_date,_expiryDate,block.timestamp) */\n      mload(0x40)\n      tag_171\n      swap10\n      swap9\n      swap8\n      swap7\n      swap6\n      swap5\n      swap4\n      swap3\n      swap2\n      swap1\n      tag_172\n      jump\t// in\n    tag_171:\n      mload(0x40)\n      dup1\n      swap2\n      sub\n      swap1\n      log3\n        /* \"contracts/supplierProduct.sol\":1634:1638  spId */\n      0x00\n      dup1\n        /* \"contracts/supplierProduct.sol\":1634:1640  spId++ */\n      dup2\n      sload\n      dup1\n      swap3\n      swap2\n      swap1\n      tag_173\n      swap1\n      tag_99\n      jump\t// in\n    tag_173:\n      swap2\n      swap1\n      pop\n      sstore\n      pop\n        /* \"contracts/supplierProduct.sol\":1143:1648  function addSupplierProduct(bytes calldata _name,bytes calldata _description,uint128 _unit,uint128 _price,uint32 _date,uint32 _expiryDate)public override  {... */\n      pop\n      pop\n      pop\n      pop\n      pop\n      pop\n      pop\n      pop\n      jump\t// out\n        /* \"contracts/supplierProduct.sol\":1715:1983  function updateSupplierProductUints(uint _spId, uint128 _quantity) public override{... */\n    tag_59:\n        /* \"contracts/supplierProduct.sol\":1860:1869  _quantity */\n      dup1\n        /* \"contracts/supplierProduct.sol\":1808:1841  supplierProductsIdToStructMapping */\n      0x01\n        /* \"contracts/supplierProduct.sol\":1808:1848  supplierProductsIdToStructMapping[_spId] */\n      0x00\n        /* \"contracts/supplierProduct.sol\":1842:1847  _spId */\n      dup5\n        /* \"contracts/supplierProduct.sol\":1808:1848  supplierProductsIdToStructMapping[_spId] */\n      dup2\n      mstore\n      0x20\n      add\n      swap1\n      dup2\n      mstore\n      0x20\n      add\n      0x00\n      keccak256\n        /* \"contracts/supplierProduct.sol\":1808:1856  supplierProductsIdToStructMapping[_spId].sp_unit */\n      0x03\n      add\n      0x00\n        /* \"contracts/supplierProduct.sol\":1808:1869  supplierProductsIdToStructMapping[_spId].sp_unit -= _quantity */\n      dup3\n      dup3\n      dup3\n      swap1\n      sload\n      swap1\n      0x0100\n      exp\n      swap1\n      div\n      0xffffffffffffffffffffffffffffffff\n      and\n      tag_175\n      swap2\n      swap1\n      tag_176\n      jump\t// in\n    tag_175:\n      swap3\n      pop\n      0x0100\n      exp\n      dup2\n      sload\n      dup2\n      0xffffffffffffffffffffffffffffffff\n      mul\n      not\n      and\n      swap1\n      dup4\n      0xffffffffffffffffffffffffffffffff\n      and\n      mul\n      or\n      swap1\n      sstore\n      pop\n        /* \"contracts/supplierProduct.sol\":1919:1924  _spId */\n      dup2\n        /* \"contracts/supplierProduct.sol\":1887:1975  eventUpdateSupplierProductUints(_spId, supplierProductsIdToStructMapping[_spId].sp_unit) */\n      0x1f3d301eca9b893fb3ae34f526f7b346cfe3086be67884ce1e652593c91668d6\n        /* \"contracts/supplierProduct.sol\":1926:1959  supplierProductsIdToStructMapping */\n      0x01\n        /* \"contracts/supplierProduct.sol\":1926:1966  supplierProductsIdToStructMapping[_spId] */\n      0x00\n        /* \"contracts/supplierProduct.sol\":1960:1965  _spId */\n      dup6\n        /* \"contracts/supplierProduct.sol\":1926:1966  supplierProductsIdToStructMapping[_spId] */\n      dup2\n      mstore\n      0x20\n      add\n      swap1\n      dup2\n      mstore\n      0x20\n      add\n      0x00\n      keccak256\n        /* \"contracts/supplierProduct.sol\":1926:1974  supplierProductsIdToStructMapping[_spId].sp_unit */\n      0x03\n      add\n      0x00\n      swap1\n      sload\n      swap1\n      0x0100\n      exp\n      swap1\n      div\n      0xffffffffffffffffffffffffffffffff\n      and\n        /* \"contracts/supplierProduct.sol\":1887:1975  eventUpdateSupplierProductUints(_spId, supplierProductsIdToStructMapping[_spId].sp_unit) */\n      mload(0x40)\n      tag_177\n      swap2\n      swap1\n      tag_178\n      jump\t// in\n    tag_177:\n      mload(0x40)\n      dup1\n      swap2\n      sub\n      swap1\n      log2\n        /* \"contracts/supplierProduct.sol\":1715:1983  function updateSupplierProductUints(uint _spId, uint128 _quantity) public override{... */\n      pop\n      pop\n      jump\t// out\n    tag_75:\n      mload(0x40)\n      dup1\n      0x0100\n      add\n      0x40\n      mstore\n      dup1\n      and(0xffffffffffffffffffffffffffffffffffffffff, 0x00)\n      dup2\n      mstore\n      0x20\n      add\n      0x60\n      dup2\n      mstore\n      0x20\n      add\n      0x60\n      dup2\n      mstore\n      0x20\n      add\n      and(0xffffffffffffffffffffffffffffffff, 0x00)\n      dup2\n      mstore\n      0x20\n      add\n      and(0xffffffffffffffffffffffffffffffff, 0x00)\n      dup2\n      mstore\n      0x20\n      add\n      and(0xffffffff, 0x00)\n      dup2\n      mstore\n      0x20\n      add\n      and(0xffffffff, 0x00)\n      dup2\n      mstore\n      0x20\n      add\n      iszero(iszero(0x00))\n      dup2\n      mstore\n      pop\n      swap1\n      jump\t// out\n        /* \"#utility.yul\":88:205   */\n    tag_180:\n        /* \"#utility.yul\":197:198   */\n      0x00\n        /* \"#utility.yul\":194:195   */\n      dup1\n        /* \"#utility.yul\":187:199   */\n      revert\n        /* \"#utility.yul\":211:328   */\n    tag_181:\n        /* \"#utility.yul\":320:321   */\n      0x00\n        /* \"#utility.yul\":317:318   */\n      dup1\n        /* \"#utility.yul\":310:322   */\n      revert\n        /* \"#utility.yul\":334:460   */\n    tag_182:\n        /* \"#utility.yul\":371:378   */\n      0x00\n        /* \"#utility.yul\":411:453   */\n      0xffffffffffffffffffffffffffffffffffffffff\n        /* \"#utility.yul\":404:409   */\n      dup3\n        /* \"#utility.yul\":400:454   */\n      and\n        /* \"#utility.yul\":389:454   */\n      swap1\n      pop\n        /* \"#utility.yul\":334:460   */\n      swap2\n      swap1\n      pop\n      jump\t// out\n        /* \"#utility.yul\":466:562   */\n    tag_183:\n        /* \"#utility.yul\":503:510   */\n      0x00\n        /* \"#utility.yul\":532:556   */\n      tag_256\n        /* \"#utility.yul\":550:555   */\n      dup3\n        /* \"#utility.yul\":532:556   */\n      tag_182\n      jump\t// in\n    tag_256:\n        /* \"#utility.yul\":521:556   */\n      swap1\n      pop\n        /* \"#utility.yul\":466:562   */\n      swap2\n      swap1\n      pop\n      jump\t// out\n        /* \"#utility.yul\":568:690   */\n    tag_184:\n        /* \"#utility.yul\":641:665   */\n      tag_258\n        /* \"#utility.yul\":659:664   */\n      dup2\n        /* \"#utility.yul\":641:665   */\n      tag_183\n      jump\t// in\n    tag_258:\n        /* \"#utility.yul\":634:639   */\n      dup2\n        /* \"#utility.yul\":631:666   */\n      eq\n        /* \"#utility.yul\":621:684   */\n      tag_259\n      jumpi\n        /* \"#utility.yul\":680:681   */\n      0x00\n        /* \"#utility.yul\":677:678   */\n      dup1\n        /* \"#utility.yul\":670:682   */\n      revert\n        /* \"#utility.yul\":621:684   */\n    tag_259:\n        /* \"#utility.yul\":568:690   */\n      pop\n      jump\t// out\n        /* \"#utility.yul\":696:835   */\n    tag_185:\n        /* \"#utility.yul\":742:747   */\n      0x00\n        /* \"#utility.yul\":780:786   */\n      dup2\n        /* \"#utility.yul\":767:787   */\n      calldataload\n        /* \"#utility.yul\":758:787   */\n      swap1\n      pop\n        /* \"#utility.yul\":796:829   */\n      tag_261\n        /* \"#utility.yul\":823:828   */\n      dup2\n        /* \"#utility.yul\":796:829   */\n      tag_184\n      jump\t// in\n    tag_261:\n        /* \"#utility.yul\":696:835   */\n      swap3\n      swap2\n      pop\n      pop\n      jump\t// out\n        /* \"#utility.yul\":841:1170   */\n    tag_16:\n        /* \"#utility.yul\":900:906   */\n      0x00\n        /* \"#utility.yul\":949:951   */\n      0x20\n        /* \"#utility.yul\":937:946   */\n      dup3\n        /* \"#utility.yul\":928:935   */\n      dup5\n        /* \"#utility.yul\":924:947   */\n      sub\n        /* \"#utility.yul\":920:952   */\n      slt\n        /* \"#utility.yul\":917:1036   */\n      iszero\n      tag_263\n      jumpi\n        /* \"#utility.yul\":955:1034   */\n      tag_264\n      tag_180\n      jump\t// in\n    tag_264:\n        /* \"#utility.yul\":917:1036   */\n    tag_263:\n        /* \"#utility.yul\":1075:1076   */\n      0x00\n        /* \"#utility.yul\":1100:1153   */\n      tag_265\n        /* \"#utility.yul\":1145:1152   */\n      dup5\n        /* \"#utility.yul\":1136:1142   */\n      dup3\n        /* \"#utility.yul\":1125:1134   */\n      dup6\n        /* \"#utility.yul\":1121:1143   */\n      add\n        /* \"#utility.yul\":1100:1153   */\n      tag_185\n      jump\t// in\n    tag_265:\n        /* \"#utility.yul\":1090:1153   */\n      swap2\n      pop\n        /* \"#utility.yul\":1046:1163   */\n      pop\n        /* \"#utility.yul\":841:1170   */\n      swap3\n      swap2\n      pop\n      pop\n      jump\t// out\n        /* \"#utility.yul\":1176:1290   */\n    tag_186:\n        /* \"#utility.yul\":1243:1249   */\n      0x00\n        /* \"#utility.yul\":1277:1282   */\n      dup2\n        /* \"#utility.yul\":1271:1283   */\n      mload\n        /* \"#utility.yul\":1261:1283   */\n      swap1\n      pop\n        /* \"#utility.yul\":1176:1290   */\n      swap2\n      swap1\n      pop\n      jump\t// out\n        /* \"#utility.yul\":1296:1480   */\n    tag_187:\n        /* \"#utility.yul\":1395:1406   */\n      0x00\n        /* \"#utility.yul\":1429:1435   */\n      dup3\n        /* \"#utility.yul\":1424:1427   */\n      dup3\n        /* \"#utility.yul\":1417:1436   */\n      mstore\n        /* \"#utility.yul\":1469:1473   */\n      0x20\n        /* \"#utility.yul\":1464:1467   */\n      dup3\n        /* \"#utility.yul\":1460:1474   */\n      add\n        /* \"#utility.yul\":1445:1474   */\n      swap1\n      pop\n        /* \"#utility.yul\":1296:1480   */\n      swap3\n      swap2\n      pop\n      pop\n      jump\t// out\n        /* \"#utility.yul\":1486:1618   */\n    tag_188:\n        /* \"#utility.yul\":1553:1557   */\n      0x00\n        /* \"#utility.yul\":1576:1579   */\n      dup2\n        /* \"#utility.yul\":1568:1579   */\n      swap1\n      pop\n        /* \"#utility.yul\":1606:1610   */\n      0x20\n        /* \"#utility.yul\":1601:1604   */\n      dup3\n        /* \"#utility.yul\":1597:1611   */\n      add\n        /* \"#utility.yul\":1589:1611   */\n      swap1\n      pop\n        /* \"#utility.yul\":1486:1618   */\n      swap2\n      swap1\n      pop\n      jump\t// out\n        /* \"#utility.yul\":1624:1701   */\n    tag_189:\n        /* \"#utility.yul\":1661:1668   */\n      0x00\n        /* \"#utility.yul\":1690:1695   */\n      dup2\n        /* \"#utility.yul\":1679:1695   */\n      swap1\n      pop\n        /* \"#utility.yul\":1624:1701   */\n      swap2\n      swap1\n      pop\n      jump\t// out\n        /* \"#utility.yul\":1707:1815   */\n    tag_190:\n        /* \"#utility.yul\":1784:1808   */\n      tag_271\n        /* \"#utility.yul\":1802:1807   */\n      dup2\n        /* \"#utility.yul\":1784:1808   */\n      tag_189\n      jump\t// in\n    tag_271:\n        /* \"#utility.yul\":1779:1782   */\n      dup3\n        /* \"#utility.yul\":1772:1809   */\n      mstore\n        /* \"#utility.yul\":1707:1815   */\n      pop\n      pop\n      jump\t// out\n        /* \"#utility.yul\":1821:2000   */\n    tag_191:\n        /* \"#utility.yul\":1890:1900   */\n      0x00\n        /* \"#utility.yul\":1911:1957   */\n      tag_273\n        /* \"#utility.yul\":1953:1956   */\n      dup4\n        /* \"#utility.yul\":1945:1951   */\n      dup4\n        /* \"#utility.yul\":1911:1957   */\n      tag_190\n      jump\t// in\n    tag_273:\n        /* \"#utility.yul\":1989:1993   */\n      0x20\n        /* \"#utility.yul\":1984:1987   */\n      dup4\n        /* \"#utility.yul\":1980:1994   */\n      add\n        /* \"#utility.yul\":1966:1994   */\n      swap1\n      pop\n        /* \"#utility.yul\":1821:2000   */\n      swap3\n      swap2\n      pop\n      pop\n      jump\t// out\n        /* \"#utility.yul\":2006:2119   */\n    tag_192:\n        /* \"#utility.yul\":2076:2080   */\n      0x00\n        /* \"#utility.yul\":2108:2112   */\n      0x20\n        /* \"#utility.yul\":2103:2106   */\n      dup3\n        /* \"#utility.yul\":2099:2113   */\n      add\n        /* \"#utility.yul\":2091:2113   */\n      swap1\n      pop\n        /* \"#utility.yul\":2006:2119   */\n      swap2\n      swap1\n      pop\n      jump\t// out\n        /* \"#utility.yul\":2155:2887   */\n    tag_193:\n        /* \"#utility.yul\":2274:2277   */\n      0x00\n        /* \"#utility.yul\":2303:2357   */\n      tag_276\n        /* \"#utility.yul\":2351:2356   */\n      dup3\n        /* \"#utility.yul\":2303:2357   */\n      tag_186\n      jump\t// in\n    tag_276:\n        /* \"#utility.yul\":2373:2459   */\n      tag_277\n        /* \"#utility.yul\":2452:2458   */\n      dup2\n        /* \"#utility.yul\":2447:2450   */\n      dup6\n        /* \"#utility.yul\":2373:2459   */\n      tag_187\n      jump\t// in\n    tag_277:\n        /* \"#utility.yul\":2366:2459   */\n      swap4\n      pop\n        /* \"#utility.yul\":2483:2539   */\n      tag_278\n        /* \"#utility.yul\":2533:2538   */\n      dup4\n        /* \"#utility.yul\":2483:2539   */\n      tag_188\n      jump\t// in\n    tag_278:\n        /* \"#utility.yul\":2562:2569   */\n      dup1\n        /* \"#utility.yul\":2593:2594   */\n      0x00\n        /* \"#utility.yul\":2578:2862   */\n    tag_279:\n        /* \"#utility.yul\":2603:2609   */\n      dup4\n        /* \"#utility.yul\":2600:2601   */\n      dup2\n        /* \"#utility.yul\":2597:2610   */\n      lt\n        /* \"#utility.yul\":2578:2862   */\n      iszero\n      tag_281\n      jumpi\n        /* \"#utility.yul\":2679:2685   */\n      dup2\n        /* \"#utility.yul\":2673:2686   */\n      mload\n        /* \"#utility.yul\":2706:2769   */\n      tag_282\n        /* \"#utility.yul\":2765:2768   */\n      dup9\n        /* \"#utility.yul\":2750:2763   */\n      dup3\n        /* \"#utility.yul\":2706:2769   */\n      tag_191\n      jump\t// in\n    tag_282:\n        /* \"#utility.yul\":2699:2769   */\n      swap8\n      pop\n        /* \"#utility.yul\":2792:2852   */\n      tag_283\n        /* \"#utility.yul\":2845:2851   */\n      dup4\n        /* \"#utility.yul\":2792:2852   */\n      tag_192\n      jump\t// in\n    tag_283:\n        /* \"#utility.yul\":2782:2852   */\n      swap3\n      pop\n        /* \"#utility.yul\":2638:2862   */\n      pop\n        /* \"#utility.yul\":2625:2626   */\n      0x01\n        /* \"#utility.yul\":2622:2623   */\n      dup2\n        /* \"#utility.yul\":2618:2627   */\n      add\n        /* \"#utility.yul\":2613:2627   */\n      swap1\n      pop\n        /* \"#utility.yul\":2578:2862   */\n      jump(tag_279)\n    tag_281:\n        /* \"#utility.yul\":2582:2596   */\n      pop\n        /* \"#utility.yul\":2878:2881   */\n      dup6\n        /* \"#utility.yul\":2871:2881   */\n      swap4\n      pop\n        /* \"#utility.yul\":2279:2887   */\n      pop\n      pop\n      pop\n        /* \"#utility.yul\":2155:2887   */\n      swap3\n      swap2\n      pop\n      pop\n      jump\t// out\n        /* \"#utility.yul\":2893:3266   */\n    tag_19:\n        /* \"#utility.yul\":3036:3040   */\n      0x00\n        /* \"#utility.yul\":3074:3076   */\n      0x20\n        /* \"#utility.yul\":3063:3072   */\n      dup3\n        /* \"#utility.yul\":3059:3077   */\n      add\n        /* \"#utility.yul\":3051:3077   */\n      swap1\n      pop\n        /* \"#utility.yul\":3123:3132   */\n      dup2\n        /* \"#utility.yul\":3117:3121   */\n      dup2\n        /* \"#utility.yul\":3113:3133   */\n      sub\n        /* \"#utility.yul\":3109:3110   */\n      0x00\n        /* \"#utility.yul\":3098:3107   */\n      dup4\n        /* \"#utility.yul\":3094:3111   */\n      add\n        /* \"#utility.yul\":3087:3134   */\n      mstore\n        /* \"#utility.yul\":3151:3259   */\n      tag_285\n        /* \"#utility.yul\":3254:3258   */\n      dup2\n        /* \"#utility.yul\":3245:3251   */\n      dup5\n        /* \"#utility.yul\":3151:3259   */\n      tag_193\n      jump\t// in\n    tag_285:\n        /* \"#utility.yul\":3143:3259   */\n      swap1\n      pop\n        /* \"#utility.yul\":2893:3266   */\n      swap3\n      swap2\n      pop\n      pop\n      jump\t// out\n        /* \"#utility.yul\":3272:3417   */\n    tag_194:\n        /* \"#utility.yul\":3370:3376   */\n      0x00\n        /* \"#utility.yul\":3404:3409   */\n      dup2\n        /* \"#utility.yul\":3398:3410   */\n      mload\n        /* \"#utility.yul\":3388:3410   */\n      swap1\n      pop\n        /* \"#utility.yul\":3272:3417   */\n      swap2\n      swap1\n      pop\n      jump\t// out\n        /* \"#utility.yul\":3423:3638   */\n    tag_195:\n        /* \"#utility.yul\":3553:3564   */\n      0x00\n        /* \"#utility.yul\":3587:3593   */\n      dup3\n        /* \"#utility.yul\":3582:3585   */\n      dup3\n        /* \"#utility.yul\":3575:3594   */\n      mstore\n        /* \"#utility.yul\":3627:3631   */\n      0x20\n        /* \"#utility.yul\":3622:3625   */\n      dup3\n        /* \"#utility.yul\":3618:3632   */\n      add\n        /* \"#utility.yul\":3603:3632   */\n      swap1\n      pop\n        /* \"#utility.yul\":3423:3638   */\n      swap3\n      swap2\n      pop\n      pop\n      jump\t// out\n        /* \"#utility.yul\":3644:3807   */\n    tag_196:\n        /* \"#utility.yul\":3742:3746   */\n      0x00\n        /* \"#utility.yul\":3765:3768   */\n      dup2\n        /* \"#utility.yul\":3757:3768   */\n      swap1\n      pop\n        /* \"#utility.yul\":3795:3799   */\n      0x20\n        /* \"#utility.yul\":3790:3793   */\n      dup3\n        /* \"#utility.yul\":3786:3800   */\n      add\n        /* \"#utility.yul\":3778:3800   */\n      swap1\n      pop\n        /* \"#utility.yul\":3644:3807   */\n      swap2\n      swap1\n      pop\n      jump\t// out\n        /* \"#utility.yul\":3813:3921   */\n    tag_197:\n        /* \"#utility.yul\":3890:3914   */\n      tag_290\n        /* \"#utility.yul\":3908:3913   */\n      dup2\n        /* \"#utility.yul\":3890:3914   */\n      tag_183\n      jump\t// in\n    tag_290:\n        /* \"#utility.yul\":3885:3888   */\n      dup3\n        /* \"#utility.yul\":3878:3915   */\n      mstore\n        /* \"#utility.yul\":3813:3921   */\n      pop\n      pop\n      jump\t// out\n        /* \"#utility.yul\":3927:4025   */\n    tag_198:\n        /* \"#utility.yul\":3978:3984   */\n      0x00\n        /* \"#utility.yul\":4012:4017   */\n      dup2\n        /* \"#utility.yul\":4006:4018   */\n      mload\n        /* \"#utility.yul\":3996:4018   */\n      swap1\n      pop\n        /* \"#utility.yul\":3927:4025   */\n      swap2\n      swap1\n      pop\n      jump\t// out\n        /* \"#utility.yul\":4031:4189   */\n    tag_199:\n        /* \"#utility.yul\":4104:4115   */\n      0x00\n        /* \"#utility.yul\":4138:4144   */\n      dup3\n        /* \"#utility.yul\":4133:4136   */\n      dup3\n        /* \"#utility.yul\":4126:4145   */\n      mstore\n        /* \"#utility.yul\":4178:4182   */\n      0x20\n        /* \"#utility.yul\":4173:4176   */\n      dup3\n        /* \"#utility.yul\":4169:4183   */\n      add\n        /* \"#utility.yul\":4154:4183   */\n      swap1\n      pop\n        /* \"#utility.yul\":4031:4189   */\n      swap3\n      swap2\n      pop\n      pop\n      jump\t// out\n        /* \"#utility.yul\":4195:4441   */\n    tag_200:\n        /* \"#utility.yul\":4276:4277   */\n      0x00\n        /* \"#utility.yul\":4286:4399   */\n    tag_294:\n        /* \"#utility.yul\":4300:4306   */\n      dup4\n        /* \"#utility.yul\":4297:4298   */\n      dup2\n        /* \"#utility.yul\":4294:4307   */\n      lt\n        /* \"#utility.yul\":4286:4399   */\n      iszero\n      tag_296\n      jumpi\n        /* \"#utility.yul\":4385:4386   */\n      dup1\n        /* \"#utility.yul\":4380:4383   */\n      dup3\n        /* \"#utility.yul\":4376:4387   */\n      add\n        /* \"#utility.yul\":4370:4388   */\n      mload\n        /* \"#utility.yul\":4366:4367   */\n      dup2\n        /* \"#utility.yul\":4361:4364   */\n      dup5\n        /* \"#utility.yul\":4357:4368   */\n      add\n        /* \"#utility.yul\":4350:4389   */\n      mstore\n        /* \"#utility.yul\":4322:4324   */\n      0x20\n        /* \"#utility.yul\":4319:4320   */\n      dup2\n        /* \"#utility.yul\":4315:4325   */\n      add\n        /* \"#utility.yul\":4310:4325   */\n      swap1\n      pop\n        /* \"#utility.yul\":4286:4399   */\n      jump(tag_294)\n    tag_296:\n        /* \"#utility.yul\":4433:4434   */\n      0x00\n        /* \"#utility.yul\":4424:4430   */\n      dup5\n        /* \"#utility.yul\":4419:4422   */\n      dup5\n        /* \"#utility.yul\":4415:4431   */\n      add\n        /* \"#utility.yul\":4408:4435   */\n      mstore\n        /* \"#utility.yul\":4257:4441   */\n      pop\n        /* \"#utility.yul\":4195:4441   */\n      pop\n      pop\n      pop\n      jump\t// out\n        /* \"#utility.yul\":4447:4549   */\n    tag_201:\n        /* \"#utility.yul\":4488:4494   */\n      0x00\n        /* \"#utility.yul\":4539:4541   */\n      0x1f\n        /* \"#utility.yul\":4535:4542   */\n      not\n        /* \"#utility.yul\":4530:4532   */\n      0x1f\n        /* \"#utility.yul\":4523:4528   */\n      dup4\n        /* \"#utility.yul\":4519:4533   */\n      add\n        /* \"#utility.yul\":4515:4543   */\n      and\n        /* \"#utility.yul\":4505:4543   */\n      swap1\n      pop\n        /* \"#utility.yul\":4447:4549   */\n      swap2\n      swap1\n      pop\n      jump\t// out\n        /* \"#utility.yul\":4555:4908   */\n    tag_202:\n        /* \"#utility.yul\":4631:4634   */\n      0x00\n        /* \"#utility.yul\":4659:4697   */\n      tag_299\n        /* \"#utility.yul\":4691:4696   */\n      dup3\n        /* \"#utility.yul\":4659:4697   */\n      tag_198\n      jump\t// in\n    tag_299:\n        /* \"#utility.yul\":4713:4773   */\n      tag_300\n        /* \"#utility.yul\":4766:4772   */\n      dup2\n        /* \"#utility.yul\":4761:4764   */\n      dup6\n        /* \"#utility.yul\":4713:4773   */\n      tag_199\n      jump\t// in\n    tag_300:\n        /* \"#utility.yul\":4706:4773   */\n      swap4\n      pop\n        /* \"#utility.yul\":4782:4847   */\n      tag_301\n        /* \"#utility.yul\":4840:4846   */\n      dup2\n        /* \"#utility.yul\":4835:4838   */\n      dup6\n        /* \"#utility.yul\":4828:4832   */\n      0x20\n        /* \"#utility.yul\":4821:4826   */\n      dup7\n        /* \"#utility.yul\":4817:4833   */\n      add\n        /* \"#utility.yul\":4782:4847   */\n      tag_200\n      jump\t// in\n    tag_301:\n        /* \"#utility.yul\":4872:4901   */\n      tag_302\n        /* \"#utility.yul\":4894:4900   */\n      dup2\n        /* \"#utility.yul\":4872:4901   */\n      tag_201\n      jump\t// in\n    tag_302:\n        /* \"#utility.yul\":4867:4870   */\n      dup5\n        /* \"#utility.yul\":4863:4902   */\n      add\n        /* \"#utility.yul\":4856:4902   */\n      swap2\n      pop\n        /* \"#utility.yul\":4635:4908   */\n      pop\n        /* \"#utility.yul\":4555:4908   */\n      swap3\n      swap2\n      pop\n      pop\n      jump\t// out\n        /* \"#utility.yul\":4914:5032   */\n    tag_203:\n        /* \"#utility.yul\":4951:4958   */\n      0x00\n        /* \"#utility.yul\":4991:5025   */\n      0xffffffffffffffffffffffffffffffff\n        /* \"#utility.yul\":4984:4989   */\n      dup3\n        /* \"#utility.yul\":4980:5026   */\n      and\n        /* \"#utility.yul\":4969:5026   */\n      swap1\n      pop\n        /* \"#utility.yul\":4914:5032   */\n      swap2\n      swap1\n      pop\n      jump\t// out\n        /* \"#utility.yul\":5038:5146   */\n    tag_204:\n        /* \"#utility.yul\":5115:5139   */\n      tag_305\n        /* \"#utility.yul\":5133:5138   */\n      dup2\n        /* \"#utility.yul\":5115:5139   */\n      tag_203\n      jump\t// in\n    tag_305:\n        /* \"#utility.yul\":5110:5113   */\n      dup3\n        /* \"#utility.yul\":5103:5140   */\n      mstore\n        /* \"#utility.yul\":5038:5146   */\n      pop\n      pop\n      jump\t// out\n        /* \"#utility.yul\":5152:5245   */\n    tag_205:\n        /* \"#utility.yul\":5188:5195   */\n      0x00\n        /* \"#utility.yul\":5228:5238   */\n      0xffffffff\n        /* \"#utility.yul\":5221:5226   */\n      dup3\n        /* \"#utility.yul\":5217:5239   */\n      and\n        /* \"#utility.yul\":5206:5239   */\n      swap1\n      pop\n        /* \"#utility.yul\":5152:5245   */\n      swap2\n      swap1\n      pop\n      jump\t// out\n        /* \"#utility.yul\":5251:5356   */\n    tag_206:\n        /* \"#utility.yul\":5326:5349   */\n      tag_308\n        /* \"#utility.yul\":5343:5348   */\n      dup2\n        /* \"#utility.yul\":5326:5349   */\n      tag_205\n      jump\t// in\n    tag_308:\n        /* \"#utility.yul\":5321:5324   */\n      dup3\n        /* \"#utility.yul\":5314:5350   */\n      mstore\n        /* \"#utility.yul\":5251:5356   */\n      pop\n      pop\n      jump\t// out\n        /* \"#utility.yul\":5362:5452   */\n    tag_207:\n        /* \"#utility.yul\":5396:5403   */\n      0x00\n        /* \"#utility.yul\":5439:5444   */\n      dup2\n        /* \"#utility.yul\":5432:5445   */\n      iszero\n        /* \"#utility.yul\":5425:5446   */\n      iszero\n        /* \"#utility.yul\":5414:5446   */\n      swap1\n      pop\n        /* \"#utility.yul\":5362:5452   */\n      swap2\n      swap1\n      pop\n      jump\t// out\n        /* \"#utility.yul\":5458:5557   */\n    tag_208:\n        /* \"#utility.yul\":5529:5550   */\n      tag_311\n        /* \"#utility.yul\":5544:5549   */\n      dup2\n        /* \"#utility.yul\":5529:5550   */\n      tag_207\n      jump\t// in\n    tag_311:\n        /* \"#utility.yul\":5524:5527   */\n      dup3\n        /* \"#utility.yul\":5517:5551   */\n      mstore\n        /* \"#utility.yul\":5458:5557   */\n      pop\n      pop\n      jump\t// out\n        /* \"#utility.yul\":5653:7412   */\n    tag_209:\n        /* \"#utility.yul\":5774:5777   */\n      0x00\n        /* \"#utility.yul\":5810:5816   */\n      0x0100\n        /* \"#utility.yul\":5805:5808   */\n      dup4\n        /* \"#utility.yul\":5801:5817   */\n      add\n        /* \"#utility.yul\":5910:5914   */\n      0x00\n        /* \"#utility.yul\":5903:5908   */\n      dup4\n        /* \"#utility.yul\":5899:5915   */\n      add\n        /* \"#utility.yul\":5893:5916   */\n      mload\n        /* \"#utility.yul\":5929:5992   */\n      tag_313\n        /* \"#utility.yul\":5986:5990   */\n      0x00\n        /* \"#utility.yul\":5981:5984   */\n      dup7\n        /* \"#utility.yul\":5977:5991   */\n      add\n        /* \"#utility.yul\":5963:5975   */\n      dup3\n        /* \"#utility.yul\":5929:5992   */\n      tag_197\n      jump\t// in\n    tag_313:\n        /* \"#utility.yul\":5827:6002   */\n      pop\n        /* \"#utility.yul\":6087:6091   */\n      0x20\n        /* \"#utility.yul\":6080:6085   */\n      dup4\n        /* \"#utility.yul\":6076:6092   */\n      add\n        /* \"#utility.yul\":6070:6093   */\n      mload\n        /* \"#utility.yul\":6140:6143   */\n      dup5\n        /* \"#utility.yul\":6134:6138   */\n      dup3\n        /* \"#utility.yul\":6130:6144   */\n      sub\n        /* \"#utility.yul\":6123:6127   */\n      0x20\n        /* \"#utility.yul\":6118:6121   */\n      dup7\n        /* \"#utility.yul\":6114:6128   */\n      add\n        /* \"#utility.yul\":6107:6145   */\n      mstore\n        /* \"#utility.yul\":6166:6237   */\n      tag_314\n        /* \"#utility.yul\":6232:6236   */\n      dup3\n        /* \"#utility.yul\":6218:6230   */\n      dup3\n        /* \"#utility.yul\":6166:6237   */\n      tag_202\n      jump\t// in\n    tag_314:\n        /* \"#utility.yul\":6158:6237   */\n      swap2\n      pop\n        /* \"#utility.yul\":6012:6248   */\n      pop\n        /* \"#utility.yul\":6340:6344   */\n      0x40\n        /* \"#utility.yul\":6333:6338   */\n      dup4\n        /* \"#utility.yul\":6329:6345   */\n      add\n        /* \"#utility.yul\":6323:6346   */\n      mload\n        /* \"#utility.yul\":6393:6396   */\n      dup5\n        /* \"#utility.yul\":6387:6391   */\n      dup3\n        /* \"#utility.yul\":6383:6397   */\n      sub\n        /* \"#utility.yul\":6376:6380   */\n      0x40\n        /* \"#utility.yul\":6371:6374   */\n      dup7\n        /* \"#utility.yul\":6367:6381   */\n      add\n        /* \"#utility.yul\":6360:6398   */\n      mstore\n        /* \"#utility.yul\":6419:6490   */\n      tag_315\n        /* \"#utility.yul\":6485:6489   */\n      dup3\n        /* \"#utility.yul\":6471:6483   */\n      dup3\n        /* \"#utility.yul\":6419:6490   */\n      tag_202\n      jump\t// in\n    tag_315:\n        /* \"#utility.yul\":6411:6490   */\n      swap2\n      pop\n        /* \"#utility.yul\":6258:6501   */\n      pop\n        /* \"#utility.yul\":6586:6590   */\n      0x60\n        /* \"#utility.yul\":6579:6584   */\n      dup4\n        /* \"#utility.yul\":6575:6591   */\n      add\n        /* \"#utility.yul\":6569:6592   */\n      mload\n        /* \"#utility.yul\":6605:6668   */\n      tag_316\n        /* \"#utility.yul\":6662:6666   */\n      0x60\n        /* \"#utility.yul\":6657:6660   */\n      dup7\n        /* \"#utility.yul\":6653:6667   */\n      add\n        /* \"#utility.yul\":6639:6651   */\n      dup3\n        /* \"#utility.yul\":6605:6668   */\n      tag_204\n      jump\t// in\n    tag_316:\n        /* \"#utility.yul\":6511:6678   */\n      pop\n        /* \"#utility.yul\":6764:6768   */\n      0x80\n        /* \"#utility.yul\":6757:6762   */\n      dup4\n        /* \"#utility.yul\":6753:6769   */\n      add\n        /* \"#utility.yul\":6747:6770   */\n      mload\n        /* \"#utility.yul\":6783:6846   */\n      tag_317\n        /* \"#utility.yul\":6840:6844   */\n      0x80\n        /* \"#utility.yul\":6835:6838   */\n      dup7\n        /* \"#utility.yul\":6831:6845   */\n      add\n        /* \"#utility.yul\":6817:6829   */\n      dup3\n        /* \"#utility.yul\":6783:6846   */\n      tag_204\n      jump\t// in\n    tag_317:\n        /* \"#utility.yul\":6688:6856   */\n      pop\n        /* \"#utility.yul\":6941:6945   */\n      0xa0\n        /* \"#utility.yul\":6934:6939   */\n      dup4\n        /* \"#utility.yul\":6930:6946   */\n      add\n        /* \"#utility.yul\":6924:6947   */\n      mload\n        /* \"#utility.yul\":6960:7021   */\n      tag_318\n        /* \"#utility.yul\":7015:7019   */\n      0xa0\n        /* \"#utility.yul\":7010:7013   */\n      dup7\n        /* \"#utility.yul\":7006:7020   */\n      add\n        /* \"#utility.yul\":6992:7004   */\n      dup3\n        /* \"#utility.yul\":6960:7021   */\n      tag_206\n      jump\t// in\n    tag_318:\n        /* \"#utility.yul\":6866:7031   */\n      pop\n        /* \"#utility.yul\":7122:7126   */\n      0xc0\n        /* \"#utility.yul\":7115:7120   */\n      dup4\n        /* \"#utility.yul\":7111:7127   */\n      add\n        /* \"#utility.yul\":7105:7128   */\n      mload\n        /* \"#utility.yul\":7141:7202   */\n      tag_319\n        /* \"#utility.yul\":7196:7200   */\n      0xc0\n        /* \"#utility.yul\":7191:7194   */\n      dup7\n        /* \"#utility.yul\":7187:7201   */\n      add\n        /* \"#utility.yul\":7173:7185   */\n      dup3\n        /* \"#utility.yul\":7141:7202   */\n      tag_206\n      jump\t// in\n    tag_319:\n        /* \"#utility.yul\":7041:7212   */\n      pop\n        /* \"#utility.yul\":7299:7303   */\n      0xe0\n        /* \"#utility.yul\":7292:7297   */\n      dup4\n        /* \"#utility.yul\":7288:7304   */\n      add\n        /* \"#utility.yul\":7282:7305   */\n      mload\n        /* \"#utility.yul\":7318:7375   */\n      tag_320\n        /* \"#utility.yul\":7369:7373   */\n      0xe0\n        /* \"#utility.yul\":7364:7367   */\n      dup7\n        /* \"#utility.yul\":7360:7374   */\n      add\n        /* \"#utility.yul\":7346:7358   */\n      dup3\n        /* \"#utility.yul\":7318:7375   */\n      tag_208\n      jump\t// in\n    tag_320:\n        /* \"#utility.yul\":7222:7385   */\n      pop\n        /* \"#utility.yul\":7402:7406   */\n      dup1\n        /* \"#utility.yul\":7395:7406   */\n      swap2\n      pop\n        /* \"#utility.yul\":5779:7412   */\n      pop\n        /* \"#utility.yul\":5653:7412   */\n      swap3\n      swap2\n      pop\n      pop\n      jump\t// out\n        /* \"#utility.yul\":7418:7698   */\n    tag_210:\n        /* \"#utility.yul\":7549:7559   */\n      0x00\n        /* \"#utility.yul\":7584:7692   */\n      tag_322\n        /* \"#utility.yul\":7688:7691   */\n      dup4\n        /* \"#utility.yul\":7680:7686   */\n      dup4\n        /* \"#utility.yul\":7584:7692   */\n      tag_209\n      jump\t// in\n    tag_322:\n        /* \"#utility.yul\":7570:7692   */\n      swap1\n      pop\n        /* \"#utility.yul\":7418:7698   */\n      swap3\n      swap2\n      pop\n      pop\n      jump\t// out\n        /* \"#utility.yul\":7704:7848   */\n    tag_211:\n        /* \"#utility.yul\":7805:7809   */\n      0x00\n        /* \"#utility.yul\":7837:7841   */\n      0x20\n        /* \"#utility.yul\":7832:7835   */\n      dup3\n        /* \"#utility.yul\":7828:7842   */\n      add\n        /* \"#utility.yul\":7820:7842   */\n      swap1\n      pop\n        /* \"#utility.yul\":7704:7848   */\n      swap2\n      swap1\n      pop\n      jump\t// out\n        /* \"#utility.yul\":7948:9107   */\n    tag_212:\n        /* \"#utility.yul\":8129:8132   */\n      0x00\n        /* \"#utility.yul\":8158:8243   */\n      tag_325\n        /* \"#utility.yul\":8237:8242   */\n      dup3\n        /* \"#utility.yul\":8158:8243   */\n      tag_194\n      jump\t// in\n    tag_325:\n        /* \"#utility.yul\":8259:8376   */\n      tag_326\n        /* \"#utility.yul\":8369:8375   */\n      dup2\n        /* \"#utility.yul\":8364:8367   */\n      dup6\n        /* \"#utility.yul\":8259:8376   */\n      tag_195\n      jump\t// in\n    tag_326:\n        /* \"#utility.yul\":8252:8376   */\n      swap4\n      pop\n        /* \"#utility.yul\":8402:8405   */\n      dup4\n        /* \"#utility.yul\":8447:8451   */\n      0x20\n        /* \"#utility.yul\":8439:8445   */\n      dup3\n        /* \"#utility.yul\":8435:8452   */\n      mul\n        /* \"#utility.yul\":8430:8433   */\n      dup6\n        /* \"#utility.yul\":8426:8453   */\n      add\n        /* \"#utility.yul\":8477:8564   */\n      tag_327\n        /* \"#utility.yul\":8558:8563   */\n      dup6\n        /* \"#utility.yul\":8477:8564   */\n      tag_196\n      jump\t// in\n    tag_327:\n        /* \"#utility.yul\":8587:8594   */\n      dup1\n        /* \"#utility.yul\":8618:8619   */\n      0x00\n        /* \"#utility.yul\":8603:9062   */\n    tag_328:\n        /* \"#utility.yul\":8628:8634   */\n      dup6\n        /* \"#utility.yul\":8625:8626   */\n      dup2\n        /* \"#utility.yul\":8622:8635   */\n      lt\n        /* \"#utility.yul\":8603:9062   */\n      iszero\n      tag_330\n      jumpi\n        /* \"#utility.yul\":8699:8708   */\n      dup5\n        /* \"#utility.yul\":8693:8697   */\n      dup5\n        /* \"#utility.yul\":8689:8709   */\n      sub\n        /* \"#utility.yul\":8684:8687   */\n      dup10\n        /* \"#utility.yul\":8677:8710   */\n      mstore\n        /* \"#utility.yul\":8750:8756   */\n      dup2\n        /* \"#utility.yul\":8744:8757   */\n      mload\n        /* \"#utility.yul\":8778:8904   */\n      tag_331\n        /* \"#utility.yul\":8899:8903   */\n      dup6\n        /* \"#utility.yul\":8884:8897   */\n      dup3\n        /* \"#utility.yul\":8778:8904   */\n      tag_210\n      jump\t// in\n    tag_331:\n        /* \"#utility.yul\":8770:8904   */\n      swap5\n      pop\n        /* \"#utility.yul\":8927:9018   */\n      tag_332\n        /* \"#utility.yul\":9011:9017   */\n      dup4\n        /* \"#utility.yul\":8927:9018   */\n      tag_211\n      jump\t// in\n    tag_332:\n        /* \"#utility.yul\":8917:9018   */\n      swap3\n      pop\n        /* \"#utility.yul\":9047:9051   */\n      0x20\n        /* \"#utility.yul\":9042:9045   */\n      dup11\n        /* \"#utility.yul\":9038:9052   */\n      add\n        /* \"#utility.yul\":9031:9052   */\n      swap10\n      pop\n        /* \"#utility.yul\":8663:9062   */\n      pop\n        /* \"#utility.yul\":8650:8651   */\n      0x01\n        /* \"#utility.yul\":8647:8648   */\n      dup2\n        /* \"#utility.yul\":8643:8652   */\n      add\n        /* \"#utility.yul\":8638:8652   */\n      swap1\n      pop\n        /* \"#utility.yul\":8603:9062   */\n      jump(tag_328)\n    tag_330:\n        /* \"#utility.yul\":8607:8621   */\n      pop\n        /* \"#utility.yul\":9078:9082   */\n      dup3\n        /* \"#utility.yul\":9071:9082   */\n      swap8\n      pop\n        /* \"#utility.yul\":9098:9101   */\n      dup8\n        /* \"#utility.yul\":9091:9101   */\n      swap6\n      pop\n        /* \"#utility.yul\":8134:9107   */\n      pop\n      pop\n      pop\n      pop\n      pop\n        /* \"#utility.yul\":7948:9107   */\n      swap3\n      swap2\n      pop\n      pop\n      jump\t// out\n        /* \"#utility.yul\":9113:9871   */\n    tag_24:\n        /* \"#utility.yul\":9396:9400   */\n      0x00\n        /* \"#utility.yul\":9434:9436   */\n      0x40\n        /* \"#utility.yul\":9423:9432   */\n      dup3\n        /* \"#utility.yul\":9419:9437   */\n      add\n        /* \"#utility.yul\":9411:9437   */\n      swap1\n      pop\n        /* \"#utility.yul\":9483:9492   */\n      dup2\n        /* \"#utility.yul\":9477:9481   */\n      dup2\n        /* \"#utility.yul\":9473:9493   */\n      sub\n        /* \"#utility.yul\":9469:9470   */\n      0x00\n        /* \"#utility.yul\":9458:9467   */\n      dup4\n        /* \"#utility.yul\":9454:9471   */\n      add\n        /* \"#utility.yul\":9447:9494   */\n      mstore\n        /* \"#utility.yul\":9511:9681   */\n      tag_334\n        /* \"#utility.yul\":9676:9680   */\n      dup2\n        /* \"#utility.yul\":9667:9673   */\n      dup6\n        /* \"#utility.yul\":9511:9681   */\n      tag_212\n      jump\t// in\n    tag_334:\n        /* \"#utility.yul\":9503:9681   */\n      swap1\n      pop\n        /* \"#utility.yul\":9728:9737   */\n      dup2\n        /* \"#utility.yul\":9722:9726   */\n      dup2\n        /* \"#utility.yul\":9718:9738   */\n      sub\n        /* \"#utility.yul\":9713:9715   */\n      0x20\n        /* \"#utility.yul\":9702:9711   */\n      dup4\n        /* \"#utility.yul\":9698:9716   */\n      add\n        /* \"#utility.yul\":9691:9739   */\n      mstore\n        /* \"#utility.yul\":9756:9864   */\n      tag_335\n        /* \"#utility.yul\":9859:9863   */\n      dup2\n        /* \"#utility.yul\":9850:9856   */\n      dup5\n        /* \"#utility.yul\":9756:9864   */\n      tag_193\n      jump\t// in\n    tag_335:\n        /* \"#utility.yul\":9748:9864   */\n      swap1\n      pop\n        /* \"#utility.yul\":9113:9871   */\n      swap4\n      swap3\n      pop\n      pop\n      pop\n      jump\t// out\n        /* \"#utility.yul\":9877:9999   */\n    tag_213:\n        /* \"#utility.yul\":9950:9974   */\n      tag_337\n        /* \"#utility.yul\":9968:9973   */\n      dup2\n        /* \"#utility.yul\":9950:9974   */\n      tag_189\n      jump\t// in\n    tag_337:\n        /* \"#utility.yul\":9943:9948   */\n      dup2\n        /* \"#utility.yul\":9940:9975   */\n      eq\n        /* \"#utility.yul\":9930:9993   */\n      tag_338\n      jumpi\n        /* \"#utility.yul\":9989:9990   */\n      0x00\n        /* \"#utility.yul\":9986:9987   */\n      dup1\n        /* \"#utility.yul\":9979:9991   */\n      revert\n        /* \"#utility.yul\":9930:9993   */\n    tag_338:\n        /* \"#utility.yul\":9877:9999   */\n      pop\n      jump\t// out\n        /* \"#utility.yul\":10005:10144   */\n    tag_214:\n        /* \"#utility.yul\":10051:10056   */\n      0x00\n        /* \"#utility.yul\":10089:10095   */\n      dup2\n        /* \"#utility.yul\":10076:10096   */\n      calldataload\n        /* \"#utility.yul\":10067:10096   */\n      swap1\n      pop\n        /* \"#utility.yul\":10105:10138   */\n      tag_340\n        /* \"#utility.yul\":10132:10137   */\n      dup2\n        /* \"#utility.yul\":10105:10138   */\n      tag_213\n      jump\t// in\n    tag_340:\n        /* \"#utility.yul\":10005:10144   */\n      swap3\n      swap2\n      pop\n      pop\n      jump\t// out\n        /* \"#utility.yul\":10150:10624   */\n    tag_27:\n        /* \"#utility.yul\":10218:10224   */\n      0x00\n        /* \"#utility.yul\":10226:10232   */\n      dup1\n        /* \"#utility.yul\":10275:10277   */\n      0x40\n        /* \"#utility.yul\":10263:10272   */\n      dup4\n        /* \"#utility.yul\":10254:10261   */\n      dup6\n        /* \"#utility.yul\":10250:10273   */\n      sub\n        /* \"#utility.yul\":10246:10278   */\n      slt\n        /* \"#utility.yul\":10243:10362   */\n      iszero\n      tag_342\n      jumpi\n        /* \"#utility.yul\":10281:10360   */\n      tag_343\n      tag_180\n      jump\t// in\n    tag_343:\n        /* \"#utility.yul\":10243:10362   */\n    tag_342:\n        /* \"#utility.yul\":10401:10402   */\n      0x00\n        /* \"#utility.yul\":10426:10479   */\n      tag_344\n        /* \"#utility.yul\":10471:10478   */\n      dup6\n        /* \"#utility.yul\":10462:10468   */\n      dup3\n        /* \"#utility.yul\":10451:10460   */\n      dup7\n        /* \"#utility.yul\":10447:10469   */\n      add\n        /* \"#utility.yul\":10426:10479   */\n      tag_185\n      jump\t// in\n    tag_344:\n        /* \"#utility.yul\":10416:10479   */\n      swap3\n      pop\n        /* \"#utility.yul\":10372:10489   */\n      pop\n        /* \"#utility.yul\":10528:10530   */\n      0x20\n        /* \"#utility.yul\":10554:10607   */\n      tag_345\n        /* \"#utility.yul\":10599:10606   */\n      dup6\n        /* \"#utility.yul\":10590:10596   */\n      dup3\n        /* \"#utility.yul\":10579:10588   */\n      dup7\n        /* \"#utility.yul\":10575:10597   */\n      add\n        /* \"#utility.yul\":10554:10607   */\n      tag_214\n      jump\t// in\n    tag_345:\n        /* \"#utility.yul\":10544:10607   */\n      swap2\n      pop\n        /* \"#utility.yul\":10499:10617   */\n      pop\n        /* \"#utility.yul\":10150:10624   */\n      swap3\n      pop\n      swap3\n      swap1\n      pop\n      jump\t// out\n        /* \"#utility.yul\":10630:10748   */\n    tag_215:\n        /* \"#utility.yul\":10717:10741   */\n      tag_347\n        /* \"#utility.yul\":10735:10740   */\n      dup2\n        /* \"#utility.yul\":10717:10741   */\n      tag_189\n      jump\t// in\n    tag_347:\n        /* \"#utility.yul\":10712:10715   */\n      dup3\n        /* \"#utility.yul\":10705:10742   */\n      mstore\n        /* \"#utility.yul\":10630:10748   */\n      pop\n      pop\n      jump\t// out\n        /* \"#utility.yul\":10754:10976   */\n    tag_30:\n        /* \"#utility.yul\":10847:10851   */\n      0x00\n        /* \"#utility.yul\":10885:10887   */\n      0x20\n        /* \"#utility.yul\":10874:10883   */\n      dup3\n        /* \"#utility.yul\":10870:10888   */\n      add\n        /* \"#utility.yul\":10862:10888   */\n      swap1\n      pop\n        /* \"#utility.yul\":10898:10969   */\n      tag_349\n        /* \"#utility.yul\":10966:10967   */\n      0x00\n        /* \"#utility.yul\":10955:10964   */\n      dup4\n        /* \"#utility.yul\":10951:10968   */\n      add\n        /* \"#utility.yul\":10942:10948   */\n      dup5\n        /* \"#utility.yul\":10898:10969   */\n      tag_215\n      jump\t// in\n    tag_349:\n        /* \"#utility.yul\":10754:10976   */\n      swap3\n      swap2\n      pop\n      pop\n      jump\t// out\n        /* \"#utility.yul\":10982:11311   */\n    tag_33:\n        /* \"#utility.yul\":11041:11047   */\n      0x00\n        /* \"#utility.yul\":11090:11092   */\n      0x20\n        /* \"#utility.yul\":11078:11087   */\n      dup3\n        /* \"#utility.yul\":11069:11076   */\n      dup5\n        /* \"#utility.yul\":11065:11088   */\n      sub\n        /* \"#utility.yul\":11061:11093   */\n      slt\n        /* \"#utility.yul\":11058:11177   */\n      iszero\n      tag_351\n      jumpi\n        /* \"#utility.yul\":11096:11175   */\n      tag_352\n      tag_180\n      jump\t// in\n    tag_352:\n        /* \"#utility.yul\":11058:11177   */\n    tag_351:\n        /* \"#utility.yul\":11216:11217   */\n      0x00\n        /* \"#utility.yul\":11241:11294   */\n      tag_353\n        /* \"#utility.yul\":11286:11293   */\n      dup5\n        /* \"#utility.yul\":11277:11283   */\n      dup3\n        /* \"#utility.yul\":11266:11275   */\n      dup6\n        /* \"#utility.yul\":11262:11284   */\n      add\n        /* \"#utility.yul\":11241:11294   */\n      tag_214\n      jump\t// in\n    tag_353:\n        /* \"#utility.yul\":11231:11294   */\n      swap2\n      pop\n        /* \"#utility.yul\":11187:11304   */\n      pop\n        /* \"#utility.yul\":10982:11311   */\n      swap3\n      swap2\n      pop\n      pop\n      jump\t// out\n        /* \"#utility.yul\":11317:11435   */\n    tag_216:\n        /* \"#utility.yul\":11404:11428   */\n      tag_355\n        /* \"#utility.yul\":11422:11427   */\n      dup2\n        /* \"#utility.yul\":11404:11428   */\n      tag_183\n      jump\t// in\n    tag_355:\n        /* \"#utility.yul\":11399:11402   */\n      dup3\n        /* \"#utility.yul\":11392:11429   */\n      mstore\n        /* \"#utility.yul\":11317:11435   */\n      pop\n      pop\n      jump\t// out\n        /* \"#utility.yul\":11441:11609   */\n    tag_217:\n        /* \"#utility.yul\":11524:11535   */\n      0x00\n        /* \"#utility.yul\":11558:11564   */\n      dup3\n        /* \"#utility.yul\":11553:11556   */\n      dup3\n        /* \"#utility.yul\":11546:11565   */\n      mstore\n        /* \"#utility.yul\":11598:11602   */\n      0x20\n        /* \"#utility.yul\":11593:11596   */\n      dup3\n        /* \"#utility.yul\":11589:11603   */\n      add\n        /* \"#utility.yul\":11574:11603   */\n      swap1\n      pop\n        /* \"#utility.yul\":11441:11609   */\n      swap3\n      swap2\n      pop\n      pop\n      jump\t// out\n        /* \"#utility.yul\":11615:11988   */\n    tag_218:\n        /* \"#utility.yul\":11701:11704   */\n      0x00\n        /* \"#utility.yul\":11729:11767   */\n      tag_358\n        /* \"#utility.yul\":11761:11766   */\n      dup3\n        /* \"#utility.yul\":11729:11767   */\n      tag_198\n      jump\t// in\n    tag_358:\n        /* \"#utility.yul\":11783:11853   */\n      tag_359\n        /* \"#utility.yul\":11846:11852   */\n      dup2\n        /* \"#utility.yul\":11841:11844   */\n      dup6\n        /* \"#utility.yul\":11783:11853   */\n      tag_217\n      jump\t// in\n    tag_359:\n        /* \"#utility.yul\":11776:11853   */\n      swap4\n      pop\n        /* \"#utility.yul\":11862:11927   */\n      tag_360\n        /* \"#utility.yul\":11920:11926   */\n      dup2\n        /* \"#utility.yul\":11915:11918   */\n      dup6\n        /* \"#utility.yul\":11908:11912   */\n      0x20\n        /* \"#utility.yul\":11901:11906   */\n      dup7\n        /* \"#utility.yul\":11897:11913   */\n      add\n        /* \"#utility.yul\":11862:11927   */\n      tag_200\n      jump\t// in\n    tag_360:\n        /* \"#utility.yul\":11952:11981   */\n      tag_361\n        /* \"#utility.yul\":11974:11980   */\n      dup2\n        /* \"#utility.yul\":11952:11981   */\n      tag_201\n      jump\t// in\n    tag_361:\n        /* \"#utility.yul\":11947:11950   */\n      dup5\n        /* \"#utility.yul\":11943:11982   */\n      add\n        /* \"#utility.yul\":11936:11982   */\n      swap2\n      pop\n        /* \"#utility.yul\":11705:11988   */\n      pop\n        /* \"#utility.yul\":11615:11988   */\n      swap3\n      swap2\n      pop\n      pop\n      jump\t// out\n        /* \"#utility.yul\":11994:12112   */\n    tag_219:\n        /* \"#utility.yul\":12081:12105   */\n      tag_363\n        /* \"#utility.yul\":12099:12104   */\n      dup2\n        /* \"#utility.yul\":12081:12105   */\n      tag_203\n      jump\t// in\n    tag_363:\n        /* \"#utility.yul\":12076:12079   */\n      dup3\n        /* \"#utility.yul\":12069:12106   */\n      mstore\n        /* \"#utility.yul\":11994:12112   */\n      pop\n      pop\n      jump\t// out\n        /* \"#utility.yul\":12118:12233   */\n    tag_220:\n        /* \"#utility.yul\":12203:12226   */\n      tag_365\n        /* \"#utility.yul\":12220:12225   */\n      dup2\n        /* \"#utility.yul\":12203:12226   */\n      tag_205\n      jump\t// in\n    tag_365:\n        /* \"#utility.yul\":12198:12201   */\n      dup3\n        /* \"#utility.yul\":12191:12227   */\n      mstore\n        /* \"#utility.yul\":12118:12233   */\n      pop\n      pop\n      jump\t// out\n        /* \"#utility.yul\":12239:12348   */\n    tag_221:\n        /* \"#utility.yul\":12320:12341   */\n      tag_367\n        /* \"#utility.yul\":12335:12340   */\n      dup2\n        /* \"#utility.yul\":12320:12341   */\n      tag_207\n      jump\t// in\n    tag_367:\n        /* \"#utility.yul\":12315:12318   */\n      dup3\n        /* \"#utility.yul\":12308:12342   */\n      mstore\n        /* \"#utility.yul\":12239:12348   */\n      pop\n      pop\n      jump\t// out\n        /* \"#utility.yul\":12354:13505   */\n    tag_36:\n        /* \"#utility.yul\":12669:12673   */\n      0x00\n        /* \"#utility.yul\":12707:12710   */\n      0x0100\n        /* \"#utility.yul\":12696:12705   */\n      dup3\n        /* \"#utility.yul\":12692:12711   */\n      add\n        /* \"#utility.yul\":12684:12711   */\n      swap1\n      pop\n        /* \"#utility.yul\":12721:12792   */\n      tag_369\n        /* \"#utility.yul\":12789:12790   */\n      0x00\n        /* \"#utility.yul\":12778:12787   */\n      dup4\n        /* \"#utility.yul\":12774:12791   */\n      add\n        /* \"#utility.yul\":12765:12771   */\n      dup12\n        /* \"#utility.yul\":12721:12792   */\n      tag_216\n      jump\t// in\n    tag_369:\n        /* \"#utility.yul\":12839:12848   */\n      dup2\n        /* \"#utility.yul\":12833:12837   */\n      dup2\n        /* \"#utility.yul\":12829:12849   */\n      sub\n        /* \"#utility.yul\":12824:12826   */\n      0x20\n        /* \"#utility.yul\":12813:12822   */\n      dup4\n        /* \"#utility.yul\":12809:12827   */\n      add\n        /* \"#utility.yul\":12802:12850   */\n      mstore\n        /* \"#utility.yul\":12867:12943   */\n      tag_370\n        /* \"#utility.yul\":12938:12942   */\n      dup2\n        /* \"#utility.yul\":12929:12935   */\n      dup11\n        /* \"#utility.yul\":12867:12943   */\n      tag_218\n      jump\t// in\n    tag_370:\n        /* \"#utility.yul\":12859:12943   */\n      swap1\n      pop\n        /* \"#utility.yul\":12990:12999   */\n      dup2\n        /* \"#utility.yul\":12984:12988   */\n      dup2\n        /* \"#utility.yul\":12980:13000   */\n      sub\n        /* \"#utility.yul\":12975:12977   */\n      0x40\n        /* \"#utility.yul\":12964:12973   */\n      dup4\n        /* \"#utility.yul\":12960:12978   */\n      add\n        /* \"#utility.yul\":12953:13001   */\n      mstore\n        /* \"#utility.yul\":13018:13094   */\n      tag_371\n        /* \"#utility.yul\":13089:13093   */\n      dup2\n        /* \"#utility.yul\":13080:13086   */\n      dup10\n        /* \"#utility.yul\":13018:13094   */\n      tag_218\n      jump\t// in\n    tag_371:\n        /* \"#utility.yul\":13010:13094   */\n      swap1\n      pop\n        /* \"#utility.yul\":13104:13176   */\n      tag_372\n        /* \"#utility.yul\":13172:13174   */\n      0x60\n        /* \"#utility.yul\":13161:13170   */\n      dup4\n        /* \"#utility.yul\":13157:13175   */\n      add\n        /* \"#utility.yul\":13148:13154   */\n      dup9\n        /* \"#utility.yul\":13104:13176   */\n      tag_219\n      jump\t// in\n    tag_372:\n        /* \"#utility.yul\":13186:13259   */\n      tag_373\n        /* \"#utility.yul\":13254:13257   */\n      0x80\n        /* \"#utility.yul\":13243:13252   */\n      dup4\n        /* \"#utility.yul\":13239:13258   */\n      add\n        /* \"#utility.yul\":13230:13236   */\n      dup8\n        /* \"#utility.yul\":13186:13259   */\n      tag_219\n      jump\t// in\n    tag_373:\n        /* \"#utility.yul\":13269:13340   */\n      tag_374\n        /* \"#utility.yul\":13335:13338   */\n      0xa0\n        /* \"#utility.yul\":13324:13333   */\n      dup4\n        /* \"#utility.yul\":13320:13339   */\n      add\n        /* \"#utility.yul\":13311:13317   */\n      dup7\n        /* \"#utility.yul\":13269:13340   */\n      tag_220\n      jump\t// in\n    tag_374:\n        /* \"#utility.yul\":13350:13421   */\n      tag_375\n        /* \"#utility.yul\":13416:13419   */\n      0xc0\n        /* \"#utility.yul\":13405:13414   */\n      dup4\n        /* \"#utility.yul\":13401:13420   */\n      add\n        /* \"#utility.yul\":13392:13398   */\n      dup6\n        /* \"#utility.yul\":13350:13421   */\n      tag_220\n      jump\t// in\n    tag_375:\n        /* \"#utility.yul\":13431:13498   */\n      tag_376\n        /* \"#utility.yul\":13493:13496   */\n      0xe0\n        /* \"#utility.yul\":13482:13491   */\n      dup4\n        /* \"#utility.yul\":13478:13497   */\n      add\n        /* \"#utility.yul\":13469:13475   */\n      dup5\n        /* \"#utility.yul\":13431:13498   */\n      tag_221\n      jump\t// in\n    tag_376:\n        /* \"#utility.yul\":12354:13505   */\n      swap10\n      swap9\n      pop\n      pop\n      pop\n      pop\n      pop\n      pop\n      pop\n      pop\n      pop\n      jump\t// out\n        /* \"#utility.yul\":13601:15370   */\n    tag_222:\n        /* \"#utility.yul\":13732:13735   */\n      0x00\n        /* \"#utility.yul\":13768:13774   */\n      0x0100\n        /* \"#utility.yul\":13763:13766   */\n      dup4\n        /* \"#utility.yul\":13759:13775   */\n      add\n        /* \"#utility.yul\":13868:13872   */\n      0x00\n        /* \"#utility.yul\":13861:13866   */\n      dup4\n        /* \"#utility.yul\":13857:13873   */\n      add\n        /* \"#utility.yul\":13851:13874   */\n      mload\n        /* \"#utility.yul\":13887:13950   */\n      tag_378\n        /* \"#utility.yul\":13944:13948   */\n      0x00\n        /* \"#utility.yul\":13939:13942   */\n      dup7\n        /* \"#utility.yul\":13935:13949   */\n      add\n        /* \"#utility.yul\":13921:13933   */\n      dup3\n        /* \"#utility.yul\":13887:13950   */\n      tag_197\n      jump\t// in\n    tag_378:\n        /* \"#utility.yul\":13785:13960   */\n      pop\n        /* \"#utility.yul\":14045:14049   */\n      0x20\n        /* \"#utility.yul\":14038:14043   */\n      dup4\n        /* \"#utility.yul\":14034:14050   */\n      add\n        /* \"#utility.yul\":14028:14051   */\n      mload\n        /* \"#utility.yul\":14098:14101   */\n      dup5\n        /* \"#utility.yul\":14092:14096   */\n      dup3\n        /* \"#utility.yul\":14088:14102   */\n      sub\n        /* \"#utility.yul\":14081:14085   */\n      0x20\n        /* \"#utility.yul\":14076:14079   */\n      dup7\n        /* \"#utility.yul\":14072:14086   */\n      add\n        /* \"#utility.yul\":14065:14103   */\n      mstore\n        /* \"#utility.yul\":14124:14195   */\n      tag_379\n        /* \"#utility.yul\":14190:14194   */\n      dup3\n        /* \"#utility.yul\":14176:14188   */\n      dup3\n        /* \"#utility.yul\":14124:14195   */\n      tag_202\n      jump\t// in\n    tag_379:\n        /* \"#utility.yul\":14116:14195   */\n      swap2\n      pop\n        /* \"#utility.yul\":13970:14206   */\n      pop\n        /* \"#utility.yul\":14298:14302   */\n      0x40\n        /* \"#utility.yul\":14291:14296   */\n      dup4\n        /* \"#utility.yul\":14287:14303   */\n      add\n        /* \"#utility.yul\":14281:14304   */\n      mload\n        /* \"#utility.yul\":14351:14354   */\n      dup5\n        /* \"#utility.yul\":14345:14349   */\n      dup3\n        /* \"#utility.yul\":14341:14355   */\n      sub\n        /* \"#utility.yul\":14334:14338   */\n      0x40\n        /* \"#utility.yul\":14329:14332   */\n      dup7\n        /* \"#utility.yul\":14325:14339   */\n      add\n        /* \"#utility.yul\":14318:14356   */\n      mstore\n        /* \"#utility.yul\":14377:14448   */\n      tag_380\n        /* \"#utility.yul\":14443:14447   */\n      dup3\n        /* \"#utility.yul\":14429:14441   */\n      dup3\n        /* \"#utility.yul\":14377:14448   */\n      tag_202\n      jump\t// in\n    tag_380:\n        /* \"#utility.yul\":14369:14448   */\n      swap2\n      pop\n        /* \"#utility.yul\":14216:14459   */\n      pop\n        /* \"#utility.yul\":14544:14548   */\n      0x60\n        /* \"#utility.yul\":14537:14542   */\n      dup4\n        /* \"#utility.yul\":14533:14549   */\n      add\n        /* \"#utility.yul\":14527:14550   */\n      mload\n        /* \"#utility.yul\":14563:14626   */\n      tag_381\n        /* \"#utility.yul\":14620:14624   */\n      0x60\n        /* \"#utility.yul\":14615:14618   */\n      dup7\n        /* \"#utility.yul\":14611:14625   */\n      add\n        /* \"#utility.yul\":14597:14609   */\n      dup3\n        /* \"#utility.yul\":14563:14626   */\n      tag_204\n      jump\t// in\n    tag_381:\n        /* \"#utility.yul\":14469:14636   */\n      pop\n        /* \"#utility.yul\":14722:14726   */\n      0x80\n        /* \"#utility.yul\":14715:14720   */\n      dup4\n        /* \"#utility.yul\":14711:14727   */\n      add\n        /* \"#utility.yul\":14705:14728   */\n      mload\n        /* \"#utility.yul\":14741:14804   */\n      tag_382\n        /* \"#utility.yul\":14798:14802   */\n      0x80\n        /* \"#utility.yul\":14793:14796   */\n      dup7\n        /* \"#utility.yul\":14789:14803   */\n      add\n        /* \"#utility.yul\":14775:14787   */\n      dup3\n        /* \"#utility.yul\":14741:14804   */\n      tag_204\n      jump\t// in\n    tag_382:\n        /* \"#utility.yul\":14646:14814   */\n      pop\n        /* \"#utility.yul\":14899:14903   */\n      0xa0\n        /* \"#utility.yul\":14892:14897   */\n      dup4\n        /* \"#utility.yul\":14888:14904   */\n      add\n        /* \"#utility.yul\":14882:14905   */\n      mload\n        /* \"#utility.yul\":14918:14979   */\n      tag_383\n        /* \"#utility.yul\":14973:14977   */\n      0xa0\n        /* \"#utility.yul\":14968:14971   */\n      dup7\n        /* \"#utility.yul\":14964:14978   */\n      add\n        /* \"#utility.yul\":14950:14962   */\n      dup3\n        /* \"#utility.yul\":14918:14979   */\n      tag_206\n      jump\t// in\n    tag_383:\n        /* \"#utility.yul\":14824:14989   */\n      pop\n        /* \"#utility.yul\":15080:15084   */\n      0xc0\n        /* \"#utility.yul\":15073:15078   */\n      dup4\n        /* \"#utility.yul\":15069:15085   */\n      add\n        /* \"#utility.yul\":15063:15086   */\n      mload\n        /* \"#utility.yul\":15099:15160   */\n      tag_384\n        /* \"#utility.yul\":15154:15158   */\n      0xc0\n        /* \"#utility.yul\":15149:15152   */\n      dup7\n        /* \"#utility.yul\":15145:15159   */\n      add\n        /* \"#utility.yul\":15131:15143   */\n      dup3\n        /* \"#utility.yul\":15099:15160   */\n      tag_206\n      jump\t// in\n    tag_384:\n        /* \"#utility.yul\":14999:15170   */\n      pop\n        /* \"#utility.yul\":15257:15261   */\n      0xe0\n        /* \"#utility.yul\":15250:15255   */\n      dup4\n        /* \"#utility.yul\":15246:15262   */\n      add\n        /* \"#utility.yul\":15240:15263   */\n      mload\n        /* \"#utility.yul\":15276:15333   */\n      tag_385\n        /* \"#utility.yul\":15327:15331   */\n      0xe0\n        /* \"#utility.yul\":15322:15325   */\n      dup7\n        /* \"#utility.yul\":15318:15332   */\n      add\n        /* \"#utility.yul\":15304:15316   */\n      dup3\n        /* \"#utility.yul\":15276:15333   */\n      tag_208\n      jump\t// in\n    tag_385:\n        /* \"#utility.yul\":15180:15343   */\n      pop\n        /* \"#utility.yul\":15360:15364   */\n      dup1\n        /* \"#utility.yul\":15353:15364   */\n      swap2\n      pop\n        /* \"#utility.yul\":13737:15370   */\n      pop\n        /* \"#utility.yul\":13601:15370   */\n      swap3\n      swap2\n      pop\n      pop\n      jump\t// out\n        /* \"#utility.yul\":15376:15773   */\n    tag_48:\n        /* \"#utility.yul\":15531:15535   */\n      0x00\n        /* \"#utility.yul\":15569:15571   */\n      0x20\n        /* \"#utility.yul\":15558:15567   */\n      dup3\n        /* \"#utility.yul\":15554:15572   */\n      add\n        /* \"#utility.yul\":15546:15572   */\n      swap1\n      pop\n        /* \"#utility.yul\":15618:15627   */\n      dup2\n        /* \"#utility.yul\":15612:15616   */\n      dup2\n        /* \"#utility.yul\":15608:15628   */\n      sub\n        /* \"#utility.yul\":15604:15605   */\n      0x00\n        /* \"#utility.yul\":15593:15602   */\n      dup4\n        /* \"#utility.yul\":15589:15606   */\n      add\n        /* \"#utility.yul\":15582:15629   */\n      mstore\n        /* \"#utility.yul\":15646:15766   */\n      tag_387\n        /* \"#utility.yul\":15761:15765   */\n      dup2\n        /* \"#utility.yul\":15752:15758   */\n      dup5\n        /* \"#utility.yul\":15646:15766   */\n      tag_222\n      jump\t// in\n    tag_387:\n        /* \"#utility.yul\":15638:15766   */\n      swap1\n      pop\n        /* \"#utility.yul\":15376:15773   */\n      swap3\n      swap2\n      pop\n      pop\n      jump\t// out\n        /* \"#utility.yul\":15779:15896   */\n    tag_223:\n        /* \"#utility.yul\":15888:15889   */\n      0x00\n        /* \"#utility.yul\":15885:15886   */\n      dup1\n        /* \"#utility.yul\":15878:15890   */\n      revert\n        /* \"#utility.yul\":15902:16019   */\n    tag_224:\n        /* \"#utility.yul\":16011:16012   */\n      0x00\n        /* \"#utility.yul\":16008:16009   */\n      dup1\n        /* \"#utility.yul\":16001:16013   */\n      revert\n        /* \"#utility.yul\":16025:16142   */\n    tag_225:\n        /* \"#utility.yul\":16134:16135   */\n      0x00\n        /* \"#utility.yul\":16131:16132   */\n      dup1\n        /* \"#utility.yul\":16124:16136   */\n      revert\n        /* \"#utility.yul\":16161:16713   */\n    tag_226:\n        /* \"#utility.yul\":16218:16226   */\n      0x00\n        /* \"#utility.yul\":16228:16234   */\n      dup1\n        /* \"#utility.yul\":16278:16281   */\n      dup4\n        /* \"#utility.yul\":16271:16275   */\n      0x1f\n        /* \"#utility.yul\":16263:16269   */\n      dup5\n        /* \"#utility.yul\":16259:16276   */\n      add\n        /* \"#utility.yul\":16255:16282   */\n      slt\n        /* \"#utility.yul\":16245:16367   */\n      tag_392\n      jumpi\n        /* \"#utility.yul\":16286:16365   */\n      tag_393\n      tag_223\n      jump\t// in\n    tag_393:\n        /* \"#utility.yul\":16245:16367   */\n    tag_392:\n        /* \"#utility.yul\":16399:16405   */\n      dup3\n        /* \"#utility.yul\":16386:16406   */\n      calldataload\n        /* \"#utility.yul\":16376:16406   */\n      swap1\n      pop\n        /* \"#utility.yul\":16429:16447   */\n      0xffffffffffffffff\n        /* \"#utility.yul\":16421:16427   */\n      dup2\n        /* \"#utility.yul\":16418:16448   */\n      gt\n        /* \"#utility.yul\":16415:16532   */\n      iszero\n      tag_394\n      jumpi\n        /* \"#utility.yul\":16451:16530   */\n      tag_395\n      tag_224\n      jump\t// in\n    tag_395:\n        /* \"#utility.yul\":16415:16532   */\n    tag_394:\n        /* \"#utility.yul\":16565:16569   */\n      0x20\n        /* \"#utility.yul\":16557:16563   */\n      dup4\n        /* \"#utility.yul\":16553:16570   */\n      add\n        /* \"#utility.yul\":16541:16570   */\n      swap2\n      pop\n        /* \"#utility.yul\":16619:16622   */\n      dup4\n        /* \"#utility.yul\":16611:16615   */\n      0x01\n        /* \"#utility.yul\":16603:16609   */\n      dup3\n        /* \"#utility.yul\":16599:16616   */\n      mul\n        /* \"#utility.yul\":16589:16597   */\n      dup4\n        /* \"#utility.yul\":16585:16617   */\n      add\n        /* \"#utility.yul\":16582:16623   */\n      gt\n        /* \"#utility.yul\":16579:16707   */\n      iszero\n      tag_396\n      jumpi\n        /* \"#utility.yul\":16626:16705   */\n      tag_397\n      tag_225\n      jump\t// in\n    tag_397:\n        /* \"#utility.yul\":16579:16707   */\n    tag_396:\n        /* \"#utility.yul\":16161:16713   */\n      swap3\n      pop\n      swap3\n      swap1\n      pop\n      jump\t// out\n        /* \"#utility.yul\":16719:16841   */\n    tag_227:\n        /* \"#utility.yul\":16792:16816   */\n      tag_399\n        /* \"#utility.yul\":16810:16815   */\n      dup2\n        /* \"#utility.yul\":16792:16816   */\n      tag_203\n      jump\t// in\n    tag_399:\n        /* \"#utility.yul\":16785:16790   */\n      dup2\n        /* \"#utility.yul\":16782:16817   */\n      eq\n        /* \"#utility.yul\":16772:16835   */\n      tag_400\n      jumpi\n        /* \"#utility.yul\":16831:16832   */\n      0x00\n        /* \"#utility.yul\":16828:16829   */\n      dup1\n        /* \"#utility.yul\":16821:16833   */\n      revert\n        /* \"#utility.yul\":16772:16835   */\n    tag_400:\n        /* \"#utility.yul\":16719:16841   */\n      pop\n      jump\t// out\n        /* \"#utility.yul\":16847:16986   */\n    tag_228:\n        /* \"#utility.yul\":16893:16898   */\n      0x00\n        /* \"#utility.yul\":16931:16937   */\n      dup2\n        /* \"#utility.yul\":16918:16938   */\n      calldataload\n        /* \"#utility.yul\":16909:16938   */\n      swap1\n      pop\n        /* \"#utility.yul\":16947:16980   */\n      tag_402\n        /* \"#utility.yul\":16974:16979   */\n      dup2\n        /* \"#utility.yul\":16947:16980   */\n      tag_227\n      jump\t// in\n    tag_402:\n        /* \"#utility.yul\":16847:16986   */\n      swap3\n      swap2\n      pop\n      pop\n      jump\t// out\n        /* \"#utility.yul\":16992:17112   */\n    tag_229:\n        /* \"#utility.yul\":17064:17087   */\n      tag_404\n        /* \"#utility.yul\":17081:17086   */\n      dup2\n        /* \"#utility.yul\":17064:17087   */\n      tag_205\n      jump\t// in\n    tag_404:\n        /* \"#utility.yul\":17057:17062   */\n      dup2\n        /* \"#utility.yul\":17054:17088   */\n      eq\n        /* \"#utility.yul\":17044:17106   */\n      tag_405\n      jumpi\n        /* \"#utility.yul\":17102:17103   */\n      0x00\n        /* \"#utility.yul\":17099:17100   */\n      dup1\n        /* \"#utility.yul\":17092:17104   */\n      revert\n        /* \"#utility.yul\":17044:17106   */\n    tag_405:\n        /* \"#utility.yul\":16992:17112   */\n      pop\n      jump\t// out\n        /* \"#utility.yul\":17118:17255   */\n    tag_230:\n        /* \"#utility.yul\":17163:17168   */\n      0x00\n        /* \"#utility.yul\":17201:17207   */\n      dup2\n        /* \"#utility.yul\":17188:17208   */\n      calldataload\n        /* \"#utility.yul\":17179:17208   */\n      swap1\n      pop\n        /* \"#utility.yul\":17217:17249   */\n      tag_407\n        /* \"#utility.yul\":17243:17248   */\n      dup2\n        /* \"#utility.yul\":17217:17249   */\n      tag_229\n      jump\t// in\n    tag_407:\n        /* \"#utility.yul\":17118:17255   */\n      swap3\n      swap2\n      pop\n      pop\n      jump\t// out\n        /* \"#utility.yul\":17261:18710   */\n    tag_54:\n        /* \"#utility.yul\":17385:17391   */\n      0x00\n        /* \"#utility.yul\":17393:17399   */\n      dup1\n        /* \"#utility.yul\":17401:17407   */\n      0x00\n        /* \"#utility.yul\":17409:17415   */\n      dup1\n        /* \"#utility.yul\":17417:17423   */\n      0x00\n        /* \"#utility.yul\":17425:17431   */\n      dup1\n        /* \"#utility.yul\":17433:17439   */\n      0x00\n        /* \"#utility.yul\":17441:17447   */\n      dup1\n        /* \"#utility.yul\":17490:17493   */\n      0xc0\n        /* \"#utility.yul\":17478:17487   */\n      dup10\n        /* \"#utility.yul\":17469:17476   */\n      dup12\n        /* \"#utility.yul\":17465:17488   */\n      sub\n        /* \"#utility.yul\":17461:17494   */\n      slt\n        /* \"#utility.yul\":17458:17578   */\n      iszero\n      tag_409\n      jumpi\n        /* \"#utility.yul\":17497:17576   */\n      tag_410\n      tag_180\n      jump\t// in\n    tag_410:\n        /* \"#utility.yul\":17458:17578   */\n    tag_409:\n        /* \"#utility.yul\":17645:17646   */\n      0x00\n        /* \"#utility.yul\":17634:17643   */\n      dup10\n        /* \"#utility.yul\":17630:17647   */\n      add\n        /* \"#utility.yul\":17617:17648   */\n      calldataload\n        /* \"#utility.yul\":17675:17693   */\n      0xffffffffffffffff\n        /* \"#utility.yul\":17667:17673   */\n      dup2\n        /* \"#utility.yul\":17664:17694   */\n      gt\n        /* \"#utility.yul\":17661:17778   */\n      iszero\n      tag_411\n      jumpi\n        /* \"#utility.yul\":17697:17776   */\n      tag_412\n      tag_181\n      jump\t// in\n    tag_412:\n        /* \"#utility.yul\":17661:17778   */\n    tag_411:\n        /* \"#utility.yul\":17810:17874   */\n      tag_413\n        /* \"#utility.yul\":17866:17873   */\n      dup12\n        /* \"#utility.yul\":17857:17863   */\n      dup3\n        /* \"#utility.yul\":17846:17855   */\n      dup13\n        /* \"#utility.yul\":17842:17864   */\n      add\n        /* \"#utility.yul\":17810:17874   */\n      tag_226\n      jump\t// in\n    tag_413:\n        /* \"#utility.yul\":17792:17874   */\n      swap9\n      pop\n      swap9\n      pop\n        /* \"#utility.yul\":17588:17884   */\n      pop\n        /* \"#utility.yul\":17951:17953   */\n      0x20\n        /* \"#utility.yul\":17940:17949   */\n      dup10\n        /* \"#utility.yul\":17936:17954   */\n      add\n        /* \"#utility.yul\":17923:17955   */\n      calldataload\n        /* \"#utility.yul\":17982:18000   */\n      0xffffffffffffffff\n        /* \"#utility.yul\":17974:17980   */\n      dup2\n        /* \"#utility.yul\":17971:18001   */\n      gt\n        /* \"#utility.yul\":17968:18085   */\n      iszero\n      tag_414\n      jumpi\n        /* \"#utility.yul\":18004:18083   */\n      tag_415\n      tag_181\n      jump\t// in\n    tag_415:\n        /* \"#utility.yul\":17968:18085   */\n    tag_414:\n        /* \"#utility.yul\":18117:18181   */\n      tag_416\n        /* \"#utility.yul\":18173:18180   */\n      dup12\n        /* \"#utility.yul\":18164:18170   */\n      dup3\n        /* \"#utility.yul\":18153:18162   */\n      dup13\n        /* \"#utility.yul\":18149:18171   */\n      add\n        /* \"#utility.yul\":18117:18181   */\n      tag_226\n      jump\t// in\n    tag_416:\n        /* \"#utility.yul\":18099:18181   */\n      swap7\n      pop\n      swap7\n      pop\n        /* \"#utility.yul\":17894:18191   */\n      pop\n        /* \"#utility.yul\":18230:18232   */\n      0x40\n        /* \"#utility.yul\":18256:18309   */\n      tag_417\n        /* \"#utility.yul\":18301:18308   */\n      dup12\n        /* \"#utility.yul\":18292:18298   */\n      dup3\n        /* \"#utility.yul\":18281:18290   */\n      dup13\n        /* \"#utility.yul\":18277:18299   */\n      add\n        /* \"#utility.yul\":18256:18309   */\n      tag_228\n      jump\t// in\n    tag_417:\n        /* \"#utility.yul\":18246:18309   */\n      swap5\n      pop\n        /* \"#utility.yul\":18201:18319   */\n      pop\n        /* \"#utility.yul\":18358:18360   */\n      0x60\n        /* \"#utility.yul\":18384:18437   */\n      tag_418\n        /* \"#utility.yul\":18429:18436   */\n      dup12\n        /* \"#utility.yul\":18420:18426   */\n      dup3\n        /* \"#utility.yul\":18409:18418   */\n      dup13\n        /* \"#utility.yul\":18405:18427   */\n      add\n        /* \"#utility.yul\":18384:18437   */\n      tag_228\n      jump\t// in\n    tag_418:\n        /* \"#utility.yul\":18374:18437   */\n      swap4\n      pop\n        /* \"#utility.yul\":18329:18447   */\n      pop\n        /* \"#utility.yul\":18486:18489   */\n      0x80\n        /* \"#utility.yul\":18513:18565   */\n      tag_419\n        /* \"#utility.yul\":18557:18564   */\n      dup12\n        /* \"#utility.yul\":18548:18554   */\n      dup3\n        /* \"#utility.yul\":18537:18546   */\n      dup13\n        /* \"#utility.yul\":18533:18555   */\n      add\n        /* \"#utility.yul\":18513:18565   */\n      tag_230\n      jump\t// in\n    tag_419:\n        /* \"#utility.yul\":18503:18565   */\n      swap3\n      pop\n        /* \"#utility.yul\":18457:18575   */\n      pop\n        /* \"#utility.yul\":18614:18617   */\n      0xa0\n        /* \"#utility.yul\":18641:18693   */\n      tag_420\n        /* \"#utility.yul\":18685:18692   */\n      dup12\n        /* \"#utility.yul\":18676:18682   */\n      dup3\n        /* \"#utility.yul\":18665:18674   */\n      dup13\n        /* \"#utility.yul\":18661:18683   */\n      add\n        /* \"#utility.yul\":18641:18693   */\n      tag_230\n      jump\t// in\n    tag_420:\n        /* \"#utility.yul\":18631:18693   */\n      swap2\n      pop\n        /* \"#utility.yul\":18585:18703   */\n      pop\n        /* \"#utility.yul\":17261:18710   */\n      swap3\n      swap6\n      swap9\n      pop\n      swap3\n      swap6\n      swap9\n      swap1\n      swap4\n      swap7\n      pop\n      jump\t// out\n        /* \"#utility.yul\":18716:19190   */\n    tag_58:\n        /* \"#utility.yul\":18784:18790   */\n      0x00\n        /* \"#utility.yul\":18792:18798   */\n      dup1\n        /* \"#utility.yul\":18841:18843   */\n      0x40\n        /* \"#utility.yul\":18829:18838   */\n      dup4\n        /* \"#utility.yul\":18820:18827   */\n      dup6\n        /* \"#utility.yul\":18816:18839   */\n      sub\n        /* \"#utility.yul\":18812:18844   */\n      slt\n        /* \"#utility.yul\":18809:18928   */\n      iszero\n      tag_422\n      jumpi\n        /* \"#utility.yul\":18847:18926   */\n      tag_423\n      tag_180\n      jump\t// in\n    tag_423:\n        /* \"#utility.yul\":18809:18928   */\n    tag_422:\n        /* \"#utility.yul\":18967:18968   */\n      0x00\n        /* \"#utility.yul\":18992:19045   */\n      tag_424\n        /* \"#utility.yul\":19037:19044   */\n      dup6\n        /* \"#utility.yul\":19028:19034   */\n      dup3\n        /* \"#utility.yul\":19017:19026   */\n      dup7\n        /* \"#utility.yul\":19013:19035   */\n      add\n        /* \"#utility.yul\":18992:19045   */\n      tag_214\n      jump\t// in\n    tag_424:\n        /* \"#utility.yul\":18982:19045   */\n      swap3\n      pop\n        /* \"#utility.yul\":18938:19055   */\n      pop\n        /* \"#utility.yul\":19094:19096   */\n      0x20\n        /* \"#utility.yul\":19120:19173   */\n      tag_425\n        /* \"#utility.yul\":19165:19172   */\n      dup6\n        /* \"#utility.yul\":19156:19162   */\n      dup3\n        /* \"#utility.yul\":19145:19154   */\n      dup7\n        /* \"#utility.yul\":19141:19163   */\n      add\n        /* \"#utility.yul\":19120:19173   */\n      tag_228\n      jump\t// in\n    tag_425:\n        /* \"#utility.yul\":19110:19173   */\n      swap2\n      pop\n        /* \"#utility.yul\":19065:19183   */\n      pop\n        /* \"#utility.yul\":18716:19190   */\n      swap3\n      pop\n      swap3\n      swap1\n      pop\n      jump\t// out\n        /* \"#utility.yul\":19196:19376   */\n    tag_68:\n        /* \"#utility.yul\":19244:19321   */\n      0x4e487b7100000000000000000000000000000000000000000000000000000000\n        /* \"#utility.yul\":19241:19242   */\n      0x00\n        /* \"#utility.yul\":19234:19322   */\n      mstore\n        /* \"#utility.yul\":19341:19345   */\n      0x41\n        /* \"#utility.yul\":19338:19339   */\n      0x04\n        /* \"#utility.yul\":19331:19346   */\n      mstore\n        /* \"#utility.yul\":19365:19369   */\n      0x24\n        /* \"#utility.yul\":19362:19363   */\n      0x00\n        /* \"#utility.yul\":19355:19370   */\n      revert\n        /* \"#utility.yul\":19382:19562   */\n    tag_81:\n        /* \"#utility.yul\":19430:19507   */\n      0x4e487b7100000000000000000000000000000000000000000000000000000000\n        /* \"#utility.yul\":19427:19428   */\n      0x00\n        /* \"#utility.yul\":19420:19508   */\n      mstore\n        /* \"#utility.yul\":19527:19531   */\n      0x32\n        /* \"#utility.yul\":19524:19525   */\n      0x04\n        /* \"#utility.yul\":19517:19532   */\n      mstore\n        /* \"#utility.yul\":19551:19555   */\n      0x24\n        /* \"#utility.yul\":19548:19549   */\n      0x00\n        /* \"#utility.yul\":19541:19556   */\n      revert\n        /* \"#utility.yul\":19568:19748   */\n    tag_231:\n        /* \"#utility.yul\":19616:19693   */\n      0x4e487b7100000000000000000000000000000000000000000000000000000000\n        /* \"#utility.yul\":19613:19614   */\n      0x00\n        /* \"#utility.yul\":19606:19694   */\n      mstore\n        /* \"#utility.yul\":19713:19717   */\n      0x22\n        /* \"#utility.yul\":19710:19711   */\n      0x04\n        /* \"#utility.yul\":19703:19718   */\n      mstore\n        /* \"#utility.yul\":19737:19741   */\n      0x24\n        /* \"#utility.yul\":19734:19735   */\n      0x00\n        /* \"#utility.yul\":19727:19742   */\n      revert\n        /* \"#utility.yul\":19754:20074   */\n    tag_84:\n        /* \"#utility.yul\":19798:19804   */\n      0x00\n        /* \"#utility.yul\":19835:19836   */\n      0x02\n        /* \"#utility.yul\":19829:19833   */\n      dup3\n        /* \"#utility.yul\":19825:19837   */\n      div\n        /* \"#utility.yul\":19815:19837   */\n      swap1\n      pop\n        /* \"#utility.yul\":19882:19883   */\n      0x01\n        /* \"#utility.yul\":19876:19880   */\n      dup3\n        /* \"#utility.yul\":19872:19884   */\n      and\n        /* \"#utility.yul\":19903:19921   */\n      dup1\n        /* \"#utility.yul\":19893:19974   */\n      tag_430\n      jumpi\n        /* \"#utility.yul\":19959:19963   */\n      0x7f\n        /* \"#utility.yul\":19951:19957   */\n      dup3\n        /* \"#utility.yul\":19947:19964   */\n      and\n        /* \"#utility.yul\":19937:19964   */\n      swap2\n      pop\n        /* \"#utility.yul\":19893:19974   */\n    tag_430:\n        /* \"#utility.yul\":20021:20023   */\n      0x20\n        /* \"#utility.yul\":20013:20019   */\n      dup3\n        /* \"#utility.yul\":20010:20024   */\n      lt\n        /* \"#utility.yul\":19990:20008   */\n      dup2\n        /* \"#utility.yul\":19987:20025   */\n      sub\n        /* \"#utility.yul\":19984:20068   */\n      tag_431\n      jumpi\n        /* \"#utility.yul\":20040:20058   */\n      tag_432\n      tag_231\n      jump\t// in\n    tag_432:\n        /* \"#utility.yul\":19984:20068   */\n    tag_431:\n        /* \"#utility.yul\":19805:20074   */\n      pop\n        /* \"#utility.yul\":19754:20074   */\n      swap2\n      swap1\n      pop\n      jump\t// out\n        /* \"#utility.yul\":20080:20260   */\n    tag_232:\n        /* \"#utility.yul\":20128:20205   */\n      0x4e487b7100000000000000000000000000000000000000000000000000000000\n        /* \"#utility.yul\":20125:20126   */\n      0x00\n        /* \"#utility.yul\":20118:20206   */\n      mstore\n        /* \"#utility.yul\":20225:20229   */\n      0x11\n        /* \"#utility.yul\":20222:20223   */\n      0x04\n        /* \"#utility.yul\":20215:20230   */\n      mstore\n        /* \"#utility.yul\":20249:20253   */\n      0x24\n        /* \"#utility.yul\":20246:20247   */\n      0x00\n        /* \"#utility.yul\":20239:20254   */\n      revert\n        /* \"#utility.yul\":20266:20499   */\n    tag_99:\n        /* \"#utility.yul\":20305:20308   */\n      0x00\n        /* \"#utility.yul\":20328:20352   */\n      tag_435\n        /* \"#utility.yul\":20346:20351   */\n      dup3\n        /* \"#utility.yul\":20328:20352   */\n      tag_189\n      jump\t// in\n    tag_435:\n        /* \"#utility.yul\":20319:20352   */\n      swap2\n      pop\n        /* \"#utility.yul\":20374:20440   */\n      0xffffffffffffffffffffffffffffffffffffffffffffffffffffffffffffffff\n        /* \"#utility.yul\":20367:20372   */\n      dup3\n        /* \"#utility.yul\":20364:20441   */\n      sub\n        /* \"#utility.yul\":20361:20464   */\n      tag_436\n      jumpi\n        /* \"#utility.yul\":20444:20462   */\n      tag_437\n      tag_232\n      jump\t// in\n    tag_437:\n        /* \"#utility.yul\":20361:20464   */\n    tag_436:\n        /* \"#utility.yul\":20491:20492   */\n      0x01\n        /* \"#utility.yul\":20484:20489   */\n      dup3\n        /* \"#utility.yul\":20480:20493   */\n      add\n        /* \"#utility.yul\":20473:20493   */\n      swap1\n      pop\n        /* \"#utility.yul\":20266:20499   */\n      swap2\n      swap1\n      pop\n      jump\t// out\n        /* \"#utility.yul\":20505:20645   */\n    tag_233:\n        /* \"#utility.yul\":20553:20557   */\n      0x00\n        /* \"#utility.yul\":20576:20579   */\n      dup2\n        /* \"#utility.yul\":20568:20579   */\n      swap1\n      pop\n        /* \"#utility.yul\":20599:20602   */\n      dup2\n        /* \"#utility.yul\":20596:20597   */\n      0x00\n        /* \"#utility.yul\":20589:20603   */\n      mstore\n        /* \"#utility.yul\":20633:20637   */\n      0x20\n        /* \"#utility.yul\":20630:20631   */\n      0x00\n        /* \"#utility.yul\":20620:20638   */\n      keccak256\n        /* \"#utility.yul\":20612:20638   */\n      swap1\n      pop\n        /* \"#utility.yul\":20505:20645   */\n      swap2\n      swap1\n      pop\n      jump\t// out\n        /* \"#utility.yul\":20651:20744   */\n    tag_234:\n        /* \"#utility.yul\":20688:20694   */\n      0x00\n        /* \"#utility.yul\":20735:20737   */\n      0x20\n        /* \"#utility.yul\":20730:20732   */\n      0x1f\n        /* \"#utility.yul\":20723:20728   */\n      dup4\n        /* \"#utility.yul\":20719:20733   */\n      add\n        /* \"#utility.yul\":20715:20738   */\n      div\n        /* \"#utility.yul\":20705:20738   */\n      swap1\n      pop\n        /* \"#utility.yul\":20651:20744   */\n      swap2\n      swap1\n      pop\n      jump\t// out\n        /* \"#utility.yul\":20750:20857   */\n    tag_235:\n        /* \"#utility.yul\":20794:20802   */\n      0x00\n        /* \"#utility.yul\":20844:20849   */\n      dup3\n        /* \"#utility.yul\":20838:20842   */\n      dup3\n        /* \"#utility.yul\":20834:20850   */\n      shl\n        /* \"#utility.yul\":20813:20850   */\n      swap1\n      pop\n        /* \"#utility.yul\":20750:20857   */\n      swap3\n      swap2\n      pop\n      pop\n      jump\t// out\n        /* \"#utility.yul\":20863:21256   */\n    tag_236:\n        /* \"#utility.yul\":20932:20938   */\n      0x00\n        /* \"#utility.yul\":20982:20983   */\n      0x08\n        /* \"#utility.yul\":20970:20980   */\n      dup4\n        /* \"#utility.yul\":20966:20984   */\n      mul\n        /* \"#utility.yul\":21005:21102   */\n      tag_442\n        /* \"#utility.yul\":21035:21101   */\n      0xffffffffffffffffffffffffffffffffffffffffffffffffffffffffffffffff\n        /* \"#utility.yul\":21024:21033   */\n      dup3\n        /* \"#utility.yul\":21005:21102   */\n      tag_235\n      jump\t// in\n    tag_442:\n        /* \"#utility.yul\":21123:21162   */\n      tag_443\n        /* \"#utility.yul\":21153:21161   */\n      dup7\n        /* \"#utility.yul\":21142:21151   */\n      dup4\n        /* \"#utility.yul\":21123:21162   */\n      tag_235\n      jump\t// in\n    tag_443:\n        /* \"#utility.yul\":21111:21162   */\n      swap6\n      pop\n        /* \"#utility.yul\":21195:21199   */\n      dup1\n        /* \"#utility.yul\":21191:21200   */\n      not\n        /* \"#utility.yul\":21184:21189   */\n      dup5\n        /* \"#utility.yul\":21180:21201   */\n      and\n        /* \"#utility.yul\":21171:21201   */\n      swap4\n      pop\n        /* \"#utility.yul\":21244:21248   */\n      dup1\n        /* \"#utility.yul\":21234:21242   */\n      dup7\n        /* \"#utility.yul\":21230:21249   */\n      and\n        /* \"#utility.yul\":21223:21228   */\n      dup5\n        /* \"#utility.yul\":21220:21250   */\n      or\n        /* \"#utility.yul\":21210:21250   */\n      swap3\n      pop\n        /* \"#utility.yul\":20939:21256   */\n      pop\n      pop\n        /* \"#utility.yul\":20863:21256   */\n      swap4\n      swap3\n      pop\n      pop\n      pop\n      jump\t// out\n        /* \"#utility.yul\":21262:21322   */\n    tag_237:\n        /* \"#utility.yul\":21290:21293   */\n      0x00\n        /* \"#utility.yul\":21311:21316   */\n      dup2\n        /* \"#utility.yul\":21304:21316   */\n      swap1\n      pop\n        /* \"#utility.yul\":21262:21322   */\n      swap2\n      swap1\n      pop\n      jump\t// out\n        /* \"#utility.yul\":21328:21470   */\n    tag_238:\n        /* \"#utility.yul\":21378:21387   */\n      0x00\n        /* \"#utility.yul\":21411:21464   */\n      tag_446\n        /* \"#utility.yul\":21429:21463   */\n      tag_447\n        /* \"#utility.yul\":21438:21462   */\n      tag_448\n        /* \"#utility.yul\":21456:21461   */\n      dup5\n        /* \"#utility.yul\":21438:21462   */\n      tag_189\n      jump\t// in\n    tag_448:\n        /* \"#utility.yul\":21429:21463   */\n      tag_237\n      jump\t// in\n    tag_447:\n        /* \"#utility.yul\":21411:21464   */\n      tag_189\n      jump\t// in\n    tag_446:\n        /* \"#utility.yul\":21398:21464   */\n      swap1\n      pop\n        /* \"#utility.yul\":21328:21470   */\n      swap2\n      swap1\n      pop\n      jump\t// out\n        /* \"#utility.yul\":21476:21551   */\n    tag_239:\n        /* \"#utility.yul\":21519:21522   */\n      0x00\n        /* \"#utility.yul\":21540:21545   */\n      dup2\n        /* \"#utility.yul\":21533:21545   */\n      swap1\n      pop\n        /* \"#utility.yul\":21476:21551   */\n      swap2\n      swap1\n      pop\n      jump\t// out\n        /* \"#utility.yul\":21557:21826   */\n    tag_240:\n        /* \"#utility.yul\":21667:21706   */\n      tag_451\n        /* \"#utility.yul\":21698:21705   */\n      dup4\n        /* \"#utility.yul\":21667:21706   */\n      tag_238\n      jump\t// in\n    tag_451:\n        /* \"#utility.yul\":21728:21819   */\n      tag_452\n        /* \"#utility.yul\":21777:21818   */\n      tag_453\n        /* \"#utility.yul\":21801:21817   */\n      dup3\n        /* \"#utility.yul\":21777:21818   */\n      tag_239\n      jump\t// in\n    tag_453:\n        /* \"#utility.yul\":21769:21775   */\n      dup5\n        /* \"#utility.yul\":21762:21766   */\n      dup5\n        /* \"#utility.yul\":21756:21767   */\n      sload\n        /* \"#utility.yul\":21728:21819   */\n      tag_236\n      jump\t// in\n    tag_452:\n        /* \"#utility.yul\":21722:21726   */\n      dup3\n        /* \"#utility.yul\":21715:21820   */\n      sstore\n        /* \"#utility.yul\":21633:21826   */\n      pop\n        /* \"#utility.yul\":21557:21826   */\n      pop\n      pop\n      pop\n      jump\t// out\n        /* \"#utility.yul\":21832:21905   */\n    tag_241:\n        /* \"#utility.yul\":21877:21880   */\n      0x00\n        /* \"#utility.yul\":21832:21905   */\n      swap1\n      jump\t// out\n        /* \"#utility.yul\":21911:22100   */\n    tag_242:\n        /* \"#utility.yul\":21988:22020   */\n      tag_456\n      tag_241\n      jump\t// in\n    tag_456:\n        /* \"#utility.yul\":22029:22094   */\n      tag_457\n        /* \"#utility.yul\":22087:22093   */\n      dup2\n        /* \"#utility.yul\":22079:22085   */\n      dup5\n        /* \"#utility.yul\":22073:22077   */\n      dup5\n        /* \"#utility.yul\":22029:22094   */\n      tag_240\n      jump\t// in\n    tag_457:\n        /* \"#utility.yul\":21964:22100   */\n      pop\n        /* \"#utility.yul\":21911:22100   */\n      pop\n      pop\n      jump\t// out\n        /* \"#utility.yul\":22106:22292   */\n    tag_243:\n        /* \"#utility.yul\":22166:22286   */\n    tag_459:\n        /* \"#utility.yul\":22183:22186   */\n      dup2\n        /* \"#utility.yul\":22176:22181   */\n      dup2\n        /* \"#utility.yul\":22173:22187   */\n      lt\n        /* \"#utility.yul\":22166:22286   */\n      iszero\n      tag_461\n      jumpi\n        /* \"#utility.yul\":22237:22276   */\n      tag_462\n        /* \"#utility.yul\":22274:22275   */\n      0x00\n        /* \"#utility.yul\":22267:22272   */\n      dup3\n        /* \"#utility.yul\":22237:22276   */\n      tag_242\n      jump\t// in\n    tag_462:\n        /* \"#utility.yul\":22210:22211   */\n      0x01\n        /* \"#utility.yul\":22203:22208   */\n      dup2\n        /* \"#utility.yul\":22199:22212   */\n      add\n        /* \"#utility.yul\":22190:22212   */\n      swap1\n      pop\n        /* \"#utility.yul\":22166:22286   */\n      jump(tag_459)\n    tag_461:\n        /* \"#utility.yul\":22106:22292   */\n      pop\n      pop\n      jump\t// out\n        /* \"#utility.yul\":22298:22839   */\n    tag_244:\n        /* \"#utility.yul\":22398:22400   */\n      0x1f\n        /* \"#utility.yul\":22393:22396   */\n      dup3\n        /* \"#utility.yul\":22390:22401   */\n      gt\n        /* \"#utility.yul\":22387:22832   */\n      iszero\n      tag_464\n      jumpi\n        /* \"#utility.yul\":22432:22469   */\n      tag_465\n        /* \"#utility.yul\":22463:22468   */\n      dup2\n        /* \"#utility.yul\":22432:22469   */\n      tag_233\n      jump\t// in\n    tag_465:\n        /* \"#utility.yul\":22515:22544   */\n      tag_466\n        /* \"#utility.yul\":22533:22543   */\n      dup5\n        /* \"#utility.yul\":22515:22544   */\n      tag_234\n      jump\t// in\n    tag_466:\n        /* \"#utility.yul\":22505:22513   */\n      dup2\n        /* \"#utility.yul\":22501:22545   */\n      add\n        /* \"#utility.yul\":22698:22700   */\n      0x20\n        /* \"#utility.yul\":22686:22696   */\n      dup6\n        /* \"#utility.yul\":22683:22701   */\n      lt\n        /* \"#utility.yul\":22680:22729   */\n      iszero\n      tag_467\n      jumpi\n        /* \"#utility.yul\":22719:22727   */\n      dup2\n        /* \"#utility.yul\":22704:22727   */\n      swap1\n      pop\n        /* \"#utility.yul\":22680:22729   */\n    tag_467:\n        /* \"#utility.yul\":22742:22822   */\n      tag_468\n        /* \"#utility.yul\":22798:22820   */\n      tag_469\n        /* \"#utility.yul\":22816:22819   */\n      dup6\n        /* \"#utility.yul\":22798:22820   */\n      tag_234\n      jump\t// in\n    tag_469:\n        /* \"#utility.yul\":22788:22796   */\n      dup4\n        /* \"#utility.yul\":22784:22821   */\n      add\n        /* \"#utility.yul\":22771:22782   */\n      dup3\n        /* \"#utility.yul\":22742:22822   */\n      tag_243\n      jump\t// in\n    tag_468:\n        /* \"#utility.yul\":22402:22832   */\n      pop\n      pop\n        /* \"#utility.yul\":22387:22832   */\n    tag_464:\n        /* \"#utility.yul\":22298:22839   */\n      pop\n      pop\n      pop\n      jump\t// out\n        /* \"#utility.yul\":22845:22962   */\n    tag_245:\n        /* \"#utility.yul\":22899:22907   */\n      0x00\n        /* \"#utility.yul\":22949:22954   */\n      dup3\n        /* \"#utility.yul\":22943:22947   */\n      dup3\n        /* \"#utility.yul\":22939:22955   */\n      shr\n        /* \"#utility.yul\":22918:22955   */\n      swap1\n      pop\n        /* \"#utility.yul\":22845:22962   */\n      swap3\n      swap2\n      pop\n      pop\n      jump\t// out\n        /* \"#utility.yul\":22968:23137   */\n    tag_246:\n        /* \"#utility.yul\":23012:23018   */\n      0x00\n        /* \"#utility.yul\":23045:23096   */\n      tag_472\n        /* \"#utility.yul\":23093:23094   */\n      0x00\n        /* \"#utility.yul\":23089:23095   */\n      not\n        /* \"#utility.yul\":23081:23086   */\n      dup5\n        /* \"#utility.yul\":23078:23079   */\n      0x08\n        /* \"#utility.yul\":23074:23087   */\n      mul\n        /* \"#utility.yul\":23045:23096   */\n      tag_245\n      jump\t// in\n    tag_472:\n        /* \"#utility.yul\":23041:23097   */\n      not\n        /* \"#utility.yul\":23126:23130   */\n      dup1\n        /* \"#utility.yul\":23120:23124   */\n      dup4\n        /* \"#utility.yul\":23116:23131   */\n      and\n        /* \"#utility.yul\":23106:23131   */\n      swap2\n      pop\n        /* \"#utility.yul\":23019:23137   */\n      pop\n        /* \"#utility.yul\":22968:23137   */\n      swap3\n      swap2\n      pop\n      pop\n      jump\t// out\n        /* \"#utility.yul\":23142:23437   */\n    tag_247:\n        /* \"#utility.yul\":23218:23222   */\n      0x00\n        /* \"#utility.yul\":23364:23393   */\n      tag_474\n        /* \"#utility.yul\":23389:23392   */\n      dup4\n        /* \"#utility.yul\":23383:23387   */\n      dup4\n        /* \"#utility.yul\":23364:23393   */\n      tag_246\n      jump\t// in\n    tag_474:\n        /* \"#utility.yul\":23356:23393   */\n      swap2\n      pop\n        /* \"#utility.yul\":23426:23429   */\n      dup3\n        /* \"#utility.yul\":23423:23424   */\n      0x02\n        /* \"#utility.yul\":23419:23430   */\n      mul\n        /* \"#utility.yul\":23413:23417   */\n      dup3\n        /* \"#utility.yul\":23410:23431   */\n      or\n        /* \"#utility.yul\":23402:23431   */\n      swap1\n      pop\n        /* \"#utility.yul\":23142:23437   */\n      swap3\n      swap2\n      pop\n      pop\n      jump\t// out\n        /* \"#utility.yul\":23442:24832   */\n    tag_168:\n        /* \"#utility.yul\":23557:23593   */\n      tag_476\n        /* \"#utility.yul\":23589:23592   */\n      dup3\n        /* \"#utility.yul\":23557:23593   */\n      tag_198\n      jump\t// in\n    tag_476:\n        /* \"#utility.yul\":23658:23676   */\n      0xffffffffffffffff\n        /* \"#utility.yul\":23650:23656   */\n      dup2\n        /* \"#utility.yul\":23647:23677   */\n      gt\n        /* \"#utility.yul\":23644:23700   */\n      iszero\n      tag_477\n      jumpi\n        /* \"#utility.yul\":23680:23698   */\n      tag_478\n      tag_68\n      jump\t// in\n    tag_478:\n        /* \"#utility.yul\":23644:23700   */\n    tag_477:\n        /* \"#utility.yul\":23724:23762   */\n      tag_479\n        /* \"#utility.yul\":23756:23760   */\n      dup3\n        /* \"#utility.yul\":23750:23761   */\n      sload\n        /* \"#utility.yul\":23724:23762   */\n      tag_84\n      jump\t// in\n    tag_479:\n        /* \"#utility.yul\":23809:23875   */\n      tag_480\n        /* \"#utility.yul\":23868:23874   */\n      dup3\n        /* \"#utility.yul\":23860:23866   */\n      dup3\n        /* \"#utility.yul\":23854:23858   */\n      dup6\n        /* \"#utility.yul\":23809:23875   */\n      tag_244\n      jump\t// in\n    tag_480:\n        /* \"#utility.yul\":23902:23903   */\n      0x00\n        /* \"#utility.yul\":23926:23930   */\n      0x20\n        /* \"#utility.yul\":23913:23930   */\n      swap1\n      pop\n        /* \"#utility.yul\":23958:23960   */\n      0x1f\n        /* \"#utility.yul\":23950:23956   */\n      dup4\n        /* \"#utility.yul\":23947:23961   */\n      gt\n        /* \"#utility.yul\":23975:23976   */\n      0x01\n        /* \"#utility.yul\":23970:24587   */\n      dup2\n      eq\n      tag_482\n      jumpi\n        /* \"#utility.yul\":24631:24632   */\n      0x00\n        /* \"#utility.yul\":24648:24654   */\n      dup5\n        /* \"#utility.yul\":24645:24722   */\n      iszero\n      tag_483\n      jumpi\n        /* \"#utility.yul\":24697:24706   */\n      dup3\n        /* \"#utility.yul\":24692:24695   */\n      dup8\n        /* \"#utility.yul\":24688:24707   */\n      add\n        /* \"#utility.yul\":24682:24708   */\n      mload\n        /* \"#utility.yul\":24673:24708   */\n      swap1\n      pop\n        /* \"#utility.yul\":24645:24722   */\n    tag_483:\n        /* \"#utility.yul\":24748:24815   */\n      tag_484\n        /* \"#utility.yul\":24808:24814   */\n      dup6\n        /* \"#utility.yul\":24801:24806   */\n      dup3\n        /* \"#utility.yul\":24748:24815   */\n      tag_247\n      jump\t// in\n    tag_484:\n        /* \"#utility.yul\":24742:24746   */\n      dup7\n        /* \"#utility.yul\":24735:24816   */\n      sstore\n        /* \"#utility.yul\":24604:24826   */\n      pop\n        /* \"#utility.yul\":23940:24826   */\n      jump(tag_481)\n        /* \"#utility.yul\":23970:24587   */\n    tag_482:\n        /* \"#utility.yul\":24022:24026   */\n      0x1f\n        /* \"#utility.yul\":24018:24027   */\n      not\n        /* \"#utility.yul\":24010:24016   */\n      dup5\n        /* \"#utility.yul\":24006:24028   */\n      and\n        /* \"#utility.yul\":24056:24092   */\n      tag_485\n        /* \"#utility.yul\":24087:24091   */\n      dup7\n        /* \"#utility.yul\":24056:24092   */\n      tag_233\n      jump\t// in\n    tag_485:\n        /* \"#utility.yul\":24114:24115   */\n      0x00\n        /* \"#utility.yul\":24128:24336   */\n    tag_486:\n        /* \"#utility.yul\":24142:24149   */\n      dup3\n        /* \"#utility.yul\":24139:24140   */\n      dup2\n        /* \"#utility.yul\":24136:24150   */\n      lt\n        /* \"#utility.yul\":24128:24336   */\n      iszero\n      tag_488\n      jumpi\n        /* \"#utility.yul\":24221:24230   */\n      dup5\n        /* \"#utility.yul\":24216:24219   */\n      dup10\n        /* \"#utility.yul\":24212:24231   */\n      add\n        /* \"#utility.yul\":24206:24232   */\n      mload\n        /* \"#utility.yul\":24198:24204   */\n      dup3\n        /* \"#utility.yul\":24191:24233   */\n      sstore\n        /* \"#utility.yul\":24272:24273   */\n      0x01\n        /* \"#utility.yul\":24264:24270   */\n      dup3\n        /* \"#utility.yul\":24260:24274   */\n      add\n        /* \"#utility.yul\":24250:24274   */\n      swap2\n      pop\n        /* \"#utility.yul\":24319:24321   */\n      0x20\n        /* \"#utility.yul\":24308:24317   */\n      dup6\n        /* \"#utility.yul\":24304:24322   */\n      add\n        /* \"#utility.yul\":24291:24322   */\n      swap5\n      pop\n        /* \"#utility.yul\":24165:24169   */\n      0x20\n        /* \"#utility.yul\":24162:24163   */\n      dup2\n        /* \"#utility.yul\":24158:24170   */\n      add\n        /* \"#utility.yul\":24153:24170   */\n      swap1\n      pop\n        /* \"#utility.yul\":24128:24336   */\n      jump(tag_486)\n    tag_488:\n        /* \"#utility.yul\":24364:24370   */\n      dup7\n        /* \"#utility.yul\":24355:24362   */\n      dup4\n        /* \"#utility.yul\":24352:24371   */\n      lt\n        /* \"#utility.yul\":24349:24528   */\n      iszero\n      tag_489\n      jumpi\n        /* \"#utility.yul\":24422:24431   */\n      dup5\n        /* \"#utility.yul\":24417:24420   */\n      dup10\n        /* \"#utility.yul\":24413:24432   */\n      add\n        /* \"#utility.yul\":24407:24433   */\n      mload\n        /* \"#utility.yul\":24465:24513   */\n      tag_490\n        /* \"#utility.yul\":24507:24511   */\n      0x1f\n        /* \"#utility.yul\":24499:24505   */\n      dup10\n        /* \"#utility.yul\":24495:24512   */\n      and\n        /* \"#utility.yul\":24484:24493   */\n      dup3\n        /* \"#utility.yul\":24465:24513   */\n      tag_246\n      jump\t// in\n    tag_490:\n        /* \"#utility.yul\":24457:24463   */\n      dup4\n        /* \"#utility.yul\":24450:24514   */\n      sstore\n        /* \"#utility.yul\":24372:24528   */\n      pop\n        /* \"#utility.yul\":24349:24528   */\n    tag_489:\n        /* \"#utility.yul\":24574:24575   */\n      0x01\n        /* \"#utility.yul\":24570:24571   */\n      0x02\n        /* \"#utility.yul\":24562:24568   */\n      dup9\n        /* \"#utility.yul\":24558:24572   */\n      mul\n        /* \"#utility.yul\":24554:24576   */\n      add\n        /* \"#utility.yul\":24548:24552   */\n      dup9\n        /* \"#utility.yul\":24541:24577   */\n      sstore\n        /* \"#utility.yul\":23977:24587   */\n      pop\n      pop\n      pop\n        /* \"#utility.yul\":23940:24826   */\n    tag_481:\n      pop\n        /* \"#utility.yul\":23532:24832   */\n      pop\n      pop\n      pop\n        /* \"#utility.yul\":23442:24832   */\n      pop\n      pop\n      jump\t// out\n        /* \"#utility.yul\":24838:24984   */\n    tag_248:\n        /* \"#utility.yul\":24935:24941   */\n      dup3\n        /* \"#utility.yul\":24930:24933   */\n      dup2\n        /* \"#utility.yul\":24925:24928   */\n      dup4\n        /* \"#utility.yul\":24912:24942   */\n      calldatacopy\n        /* \"#utility.yul\":24976:24977   */\n      0x00\n        /* \"#utility.yul\":24967:24973   */\n      dup4\n        /* \"#utility.yul\":24962:24965   */\n      dup4\n        /* \"#utility.yul\":24958:24974   */\n      add\n        /* \"#utility.yul\":24951:24978   */\n      mstore\n        /* \"#utility.yul\":24838:24984   */\n      pop\n      pop\n      pop\n      jump\t// out\n        /* \"#utility.yul\":25012:25326   */\n    tag_249:\n        /* \"#utility.yul\":25108:25111   */\n      0x00\n        /* \"#utility.yul\":25129:25199   */\n      tag_493\n        /* \"#utility.yul\":25192:25198   */\n      dup4\n        /* \"#utility.yul\":25187:25190   */\n      dup6\n        /* \"#utility.yul\":25129:25199   */\n      tag_217\n      jump\t// in\n    tag_493:\n        /* \"#utility.yul\":25122:25199   */\n      swap4\n      pop\n        /* \"#utility.yul\":25209:25265   */\n      tag_494\n        /* \"#utility.yul\":25258:25264   */\n      dup4\n        /* \"#utility.yul\":25253:25256   */\n      dup6\n        /* \"#utility.yul\":25246:25251   */\n      dup5\n        /* \"#utility.yul\":25209:25265   */\n      tag_248\n      jump\t// in\n    tag_494:\n        /* \"#utility.yul\":25290:25319   */\n      tag_495\n        /* \"#utility.yul\":25312:25318   */\n      dup4\n        /* \"#utility.yul\":25290:25319   */\n      tag_201\n      jump\t// in\n    tag_495:\n        /* \"#utility.yul\":25285:25288   */\n      dup5\n        /* \"#utility.yul\":25281:25320   */\n      add\n        /* \"#utility.yul\":25274:25320   */\n      swap1\n      pop\n        /* \"#utility.yul\":25012:25326   */\n      swap4\n      swap3\n      pop\n      pop\n      pop\n      jump\t// out\n        /* \"#utility.yul\":25332:26424   */\n    tag_172:\n        /* \"#utility.yul\":25645:25649   */\n      0x00\n        /* \"#utility.yul\":25683:25686   */\n      0xe0\n        /* \"#utility.yul\":25672:25681   */\n      dup3\n        /* \"#utility.yul\":25668:25687   */\n      add\n        /* \"#utility.yul\":25660:25687   */\n      swap1\n      pop\n        /* \"#utility.yul\":25733:25742   */\n      dup2\n        /* \"#utility.yul\":25727:25731   */\n      dup2\n        /* \"#utility.yul\":25723:25743   */\n      sub\n        /* \"#utility.yul\":25719:25720   */\n      0x00\n        /* \"#utility.yul\":25708:25717   */\n      dup4\n        /* \"#utility.yul\":25704:25721   */\n      add\n        /* \"#utility.yul\":25697:25744   */\n      mstore\n        /* \"#utility.yul\":25761:25847   */\n      tag_497\n        /* \"#utility.yul\":25842:25846   */\n      dup2\n        /* \"#utility.yul\":25833:25839   */\n      dup12\n        /* \"#utility.yul\":25825:25831   */\n      dup14\n        /* \"#utility.yul\":25761:25847   */\n      tag_249\n      jump\t// in\n    tag_497:\n        /* \"#utility.yul\":25753:25847   */\n      swap1\n      pop\n        /* \"#utility.yul\":25894:25903   */\n      dup2\n        /* \"#utility.yul\":25888:25892   */\n      dup2\n        /* \"#utility.yul\":25884:25904   */\n      sub\n        /* \"#utility.yul\":25879:25881   */\n      0x20\n        /* \"#utility.yul\":25868:25877   */\n      dup4\n        /* \"#utility.yul\":25864:25882   */\n      add\n        /* \"#utility.yul\":25857:25905   */\n      mstore\n        /* \"#utility.yul\":25922:26008   */\n      tag_498\n        /* \"#utility.yul\":26003:26007   */\n      dup2\n        /* \"#utility.yul\":25994:26000   */\n      dup10\n        /* \"#utility.yul\":25986:25992   */\n      dup12\n        /* \"#utility.yul\":25922:26008   */\n      tag_249\n      jump\t// in\n    tag_498:\n        /* \"#utility.yul\":25914:26008   */\n      swap1\n      pop\n        /* \"#utility.yul\":26018:26090   */\n      tag_499\n        /* \"#utility.yul\":26086:26088   */\n      0x40\n        /* \"#utility.yul\":26075:26084   */\n      dup4\n        /* \"#utility.yul\":26071:26089   */\n      add\n        /* \"#utility.yul\":26062:26068   */\n      dup9\n        /* \"#utility.yul\":26018:26090   */\n      tag_219\n      jump\t// in\n    tag_499:\n        /* \"#utility.yul\":26100:26172   */\n      tag_500\n        /* \"#utility.yul\":26168:26170   */\n      0x60\n        /* \"#utility.yul\":26157:26166   */\n      dup4\n        /* \"#utility.yul\":26153:26171   */\n      add\n        /* \"#utility.yul\":26144:26150   */\n      dup8\n        /* \"#utility.yul\":26100:26172   */\n      tag_219\n      jump\t// in\n    tag_500:\n        /* \"#utility.yul\":26182:26253   */\n      tag_501\n        /* \"#utility.yul\":26248:26251   */\n      0x80\n        /* \"#utility.yul\":26237:26246   */\n      dup4\n        /* \"#utility.yul\":26233:26252   */\n      add\n        /* \"#utility.yul\":26224:26230   */\n      dup7\n        /* \"#utility.yul\":26182:26253   */\n      tag_220\n      jump\t// in\n    tag_501:\n        /* \"#utility.yul\":26263:26334   */\n      tag_502\n        /* \"#utility.yul\":26329:26332   */\n      0xa0\n        /* \"#utility.yul\":26318:26327   */\n      dup4\n        /* \"#utility.yul\":26314:26333   */\n      add\n        /* \"#utility.yul\":26305:26311   */\n      dup6\n        /* \"#utility.yul\":26263:26334   */\n      tag_220\n      jump\t// in\n    tag_502:\n        /* \"#utility.yul\":26344:26417   */\n      tag_503\n        /* \"#utility.yul\":26412:26415   */\n      0xc0\n        /* \"#utility.yul\":26401:26410   */\n      dup4\n        /* \"#utility.yul\":26397:26416   */\n      add\n        /* \"#utility.yul\":26388:26394   */\n      dup5\n        /* \"#utility.yul\":26344:26417   */\n      tag_215\n      jump\t// in\n    tag_503:\n        /* \"#utility.yul\":25332:26424   */\n      swap11\n      swap10\n      pop\n      pop\n      pop\n      pop\n      pop\n      pop\n      pop\n      pop\n      pop\n      pop\n      jump\t// out\n        /* \"#utility.yul\":26430:26657   */\n    tag_176:\n        /* \"#utility.yul\":26470:26474   */\n      0x00\n        /* \"#utility.yul\":26490:26510   */\n      tag_505\n        /* \"#utility.yul\":26508:26509   */\n      dup3\n        /* \"#utility.yul\":26490:26510   */\n      tag_203\n      jump\t// in\n    tag_505:\n        /* \"#utility.yul\":26485:26510   */\n      swap2\n      pop\n        /* \"#utility.yul\":26524:26544   */\n      tag_506\n        /* \"#utility.yul\":26542:26543   */\n      dup4\n        /* \"#utility.yul\":26524:26544   */\n      tag_203\n      jump\t// in\n    tag_506:\n        /* \"#utility.yul\":26519:26544   */\n      swap3\n      pop\n        /* \"#utility.yul\":26568:26569   */\n      dup3\n        /* \"#utility.yul\":26565:26566   */\n      dup3\n        /* \"#utility.yul\":26561:26570   */\n      sub\n        /* \"#utility.yul\":26553:26570   */\n      swap1\n      pop\n        /* \"#utility.yul\":26592:26626   */\n      0xffffffffffffffffffffffffffffffff\n        /* \"#utility.yul\":26586:26590   */\n      dup2\n        /* \"#utility.yul\":26583:26627   */\n      gt\n        /* \"#utility.yul\":26580:26650   */\n      iszero\n      tag_507\n      jumpi\n        /* \"#utility.yul\":26630:26648   */\n      tag_508\n      tag_232\n      jump\t// in\n    tag_508:\n        /* \"#utility.yul\":26580:26650   */\n    tag_507:\n        /* \"#utility.yul\":26430:26657   */\n      swap3\n      swap2\n      pop\n      pop\n      jump\t// out\n        /* \"#utility.yul\":26663:26885   */\n    tag_178:\n        /* \"#utility.yul\":26756:26760   */\n      0x00\n        /* \"#utility.yul\":26794:26796   */\n      0x20\n        /* \"#utility.yul\":26783:26792   */\n      dup3\n        /* \"#utility.yul\":26779:26797   */\n      add\n        /* \"#utility.yul\":26771:26797   */\n      swap1\n      pop\n        /* \"#utility.yul\":26807:26878   */\n      tag_510\n        /* \"#utility.yul\":26875:26876   */\n      0x00\n        /* \"#utility.yul\":26864:26873   */\n      dup4\n        /* \"#utility.yul\":26860:26877   */\n      add\n        /* \"#utility.yul\":26851:26857   */\n      dup5\n        /* \"#utility.yul\":26807:26878   */\n      tag_219\n      jump\t// in\n    tag_510:\n        /* \"#utility.yul\":26663:26885   */\n      swap3\n      swap2\n      pop\n      pop\n      jump\t// out\n\n    auxdata: 0xa2646970667358221220acb65c2f27a1d1945b9a75d4c0a4a873ef11e28b3faca6a6fe54d3ff35f3f30464736f6c63430008130033\n}\n",
				"bytecode": {
					"linkReferences": {},
					"object": "6080604052600160005534801561001557600080fd5b5061242d806100256000396000f3fe608060405234801561001057600080fd5b506004361061009e5760003560e01c806383f958531161006657806383f9585314610187578063c22ef68e146101b8578063e10f28c7146101e8578063ee7e7c9914610206578063f8bafa70146102225761009e565b806311517205146100a35780632777259b146100d357806342af31d7146101045780636c87b8261461013457806379ae02571461016b575b600080fd5b6100bd60048036038101906100b891906116e3565b61023e565b6040516100ca91906117d8565b60405180910390f35b6100ed60048036038101906100e891906116e3565b6102d5565b6040516100fb929190611a77565b60405180910390f35b61011e60048036038101906101199190611ada565b610812565b60405161012b9190611b29565b60405180910390f35b61014e60048036038101906101499190611b44565b610843565b604051610162989796959493929190611bf7565b60405180910390f35b61018560048036038101906101809190611b44565b610a20565b005b6101a1600480360381019061019c91906116e3565b610a7f565b6040516101af929190611a77565b60405180910390f35b6101d260048036038101906101cd9190611b44565b610e66565b6040516101df9190611d3a565b60405180910390f35b6101f0611109565b6040516101fd91906117d8565b60405180910390f35b610220600480360381019061021b9190611e19565b61119e565b005b61023c60048036038101906102379190611ee8565b611509565b005b6060600260008373ffffffffffffffffffffffffffffffffffffffff1673ffffffffffffffffffffffffffffffffffffffff1681526020019081526020016000208054806020026020016040519081016040528092919081815260200182805480156102c957602002820191906000526020600020905b8154815260200190600101908083116102b5575b50505050509050919050565b6060806000600260008573ffffffffffffffffffffffffffffffffffffffff1673ffffffffffffffffffffffffffffffffffffffff16815260200190815260200160002080548060200260200160405190810160405280929190818152602001828054801561036357602002820191906000526020600020905b81548152602001906001019080831161034f575b505050505090506000815167ffffffffffffffff81111561038757610386611f28565b5b6040519080825280602002602001820160405280156103b55781602001602082028036833780820191505090505b5090506000825167ffffffffffffffff8111156103d5576103d4611f28565b5b60405190808252806020026020018201604052801561040e57816020015b6103fb6115ee565b8152602001906001900390816103f35790505b5090506000805b845181101561075b57600085828151811061043357610432611f57565b5b602002602001015190506001600082815260200190815260200160002060040160089054906101000a900460ff16156107475760016000828152602001908152602001600020604051806101000160405290816000820160009054906101000a900473ffffffffffffffffffffffffffffffffffffffff1673ffffffffffffffffffffffffffffffffffffffff1673ffffffffffffffffffffffffffffffffffffffff1681526020016001820180546104eb90611fb5565b80601f016020809104026020016040519081016040528092919081815260200182805461051790611fb5565b80156105645780601f1061053957610100808354040283529160200191610564565b820191906000526020600020905b81548152906001019060200180831161054757829003601f168201915b5050505050815260200160028201805461057d90611fb5565b80601f01602080910402602001604051908101604052809291908181526020018280546105a990611fb5565b80156105f65780601f106105cb576101008083540402835291602001916105f6565b820191906000526020600020905b8154815290600101906020018083116105d957829003601f168201915b505050505081526020016003820160009054906101000a90046fffffffffffffffffffffffffffffffff166fffffffffffffffffffffffffffffffff166fffffffffffffffffffffffffffffffff1681526020016003820160109054906101000a90046fffffffffffffffffffffffffffffffff166fffffffffffffffffffffffffffffffff166fffffffffffffffffffffffffffffffff1681526020016004820160009054906101000a900463ffffffff1663ffffffff1663ffffffff1681526020016004820160049054906101000a900463ffffffff1663ffffffff1663ffffffff1681526020016004820160089054906101000a900460ff16151515158152505084848151811061070d5761070c611f57565b5b60200260200101819052508085848151811061072c5761072b611f57565b5b602002602001018181525050828061074390612015565b9350505b50808061075390612015565b915050610415565b5060008167ffffffffffffffff81111561077857610777611f28565b5b6040519080825280602002602001820160405280156107a65781602001602082028036833780820191505090505b50905060005b82811015610801578481815181106107c7576107c6611f57565b5b60200260200101518282815181106107e2576107e1611f57565b5b60200260200101818152505080806107f990612015565b9150506107ac565b508281965096505050505050915091565b6002602052816000526040600020818154811061082e57600080fd5b90600052602060002001600091509150505481565b60016020528060005260406000206000915090508060000160009054906101000a900473ffffffffffffffffffffffffffffffffffffffff169080600101805461088c90611fb5565b80601f01602080910402602001604051908101604052809291908181526020018280546108b890611fb5565b80156109055780601f106108da57610100808354040283529160200191610905565b820191906000526020600020905b8154815290600101906020018083116108e857829003601f168201915b50505050509080600201805461091a90611fb5565b80601f016020809104026020016040519081016040528092919081815260200182805461094690611fb5565b80156109935780601f1061096857610100808354040283529160200191610993565b820191906000526020600020905b81548152906001019060200180831161097657829003601f168201915b5050505050908060030160009054906101000a90046fffffffffffffffffffffffffffffffff16908060030160109054906101000a90046fffffffffffffffffffffffffffffffff16908060040160009054906101000a900463ffffffff16908060040160049054906101000a900463ffffffff16908060040160089054906101000a900460ff16905088565b60006001600083815260200190815260200160002060040160086101000a81548160ff021916908315150217905550807f6c1a4e746947a5049a6693a4875a10617826c8361c631cac61717e141185fdd260405160405180910390a250565b6060806000600260008573ffffffffffffffffffffffffffffffffffffffff1673ffffffffffffffffffffffffffffffffffffffff168152602001908152602001600020805480602002602001604051908101604052809291908181526020018280548015610b0d57602002820191906000526020600020905b815481526020019060010190808311610af9575b505050505090506000815167ffffffffffffffff811115610b3157610b30611f28565b5b604051908082528060200260200182016040528015610b6a57816020015b610b576115ee565b815260200190600190039081610b4f5790505b50905060005b8251811015610e585760016000848381518110610b9057610b8f611f57565b5b60200260200101518152602001908152602001600020604051806101000160405290816000820160009054906101000a900473ffffffffffffffffffffffffffffffffffffffff1673ffffffffffffffffffffffffffffffffffffffff1673ffffffffffffffffffffffffffffffffffffffff168152602001600182018054610c1890611fb5565b80601f0160208091040260200160405190810160405280929190818152602001828054610c4490611fb5565b8015610c915780601f10610c6657610100808354040283529160200191610c91565b820191906000526020600020905b815481529060010190602001808311610c7457829003601f168201915b50505050508152602001600282018054610caa90611fb5565b80601f0160208091040260200160405190810160405280929190818152602001828054610cd690611fb5565b8015610d235780601f10610cf857610100808354040283529160200191610d23565b820191906000526020600020905b815481529060010190602001808311610d0657829003601f168201915b505050505081526020016003820160009054906101000a90046fffffffffffffffffffffffffffffffff166fffffffffffffffffffffffffffffffff166fffffffffffffffffffffffffffffffff1681526020016003820160109054906101000a90046fffffffffffffffffffffffffffffffff166fffffffffffffffffffffffffffffffff166fffffffffffffffffffffffffffffffff1681526020016004820160009054906101000a900463ffffffff1663ffffffff1663ffffffff1681526020016004820160049054906101000a900463ffffffff1663ffffffff1663ffffffff1681526020016004820160089054906101000a900460ff161515151581525050828281518110610e3a57610e39611f57565b5b60200260200101819052508080610e5090612015565b915050610b70565b508082935093505050915091565b610e6e6115ee565b60016000838152602001908152602001600020604051806101000160405290816000820160009054906101000a900473ffffffffffffffffffffffffffffffffffffffff1673ffffffffffffffffffffffffffffffffffffffff1673ffffffffffffffffffffffffffffffffffffffff168152602001600182018054610ef390611fb5565b80601f0160208091040260200160405190810160405280929190818152602001828054610f1f90611fb5565b8015610f6c5780601f10610f4157610100808354040283529160200191610f6c565b820191906000526020600020905b815481529060010190602001808311610f4f57829003601f168201915b50505050508152602001600282018054610f8590611fb5565b80601f0160208091040260200160405190810160405280929190818152602001828054610fb190611fb5565b8015610ffe5780601f10610fd357610100808354040283529160200191610ffe565b820191906000526020600020905b815481529060010190602001808311610fe157829003601f168201915b505050505081526020016003820160009054906101000a90046fffffffffffffffffffffffffffffffff166fffffffffffffffffffffffffffffffff166fffffffffffffffffffffffffffffffff1681526020016003820160109054906101000a90046fffffffffffffffffffffffffffffffff166fffffffffffffffffffffffffffffffff166fffffffffffffffffffffffffffffffff1681526020016004820160009054906101000a900463ffffffff1663ffffffff1663ffffffff1681526020016004820160049054906101000a900463ffffffff1663ffffffff1663ffffffff1681526020016004820160089054906101000a900460ff1615151515815250509050919050565b6060600260003373ffffffffffffffffffffffffffffffffffffffff1673ffffffffffffffffffffffffffffffffffffffff16815260200190815260200160002080548060200260200160405190810160405280929190818152602001828054801561119457602002820191906000526020600020905b815481526020019060010190808311611180575b5050505050905090565b6040518061010001604052803373ffffffffffffffffffffffffffffffffffffffff16815260200189898080601f016020809104026020016040519081016040528093929190818152602001838380828437600081840152601f19601f82011690508083019250505050505050815260200187878080601f016020809104026020016040519081016040528093929190818152602001838380828437600081840152601f19601f820116905080830192505050505050508152602001856fffffffffffffffffffffffffffffffff168152602001846fffffffffffffffffffffffffffffffff1681526020018363ffffffff1681526020018263ffffffff16815260200160011515815250600160008054815260200190815260200160002060008201518160000160006101000a81548173ffffffffffffffffffffffffffffffffffffffff021916908373ffffffffffffffffffffffffffffffffffffffff16021790555060208201518160010190816113199190612209565b50604082015181600201908161132f9190612209565b5060608201518160030160006101000a8154816fffffffffffffffffffffffffffffffff02191690836fffffffffffffffffffffffffffffffff16021790555060808201518160030160106101000a8154816fffffffffffffffffffffffffffffffff02191690836fffffffffffffffffffffffffffffffff16021790555060a08201518160040160006101000a81548163ffffffff021916908363ffffffff16021790555060c08201518160040160046101000a81548163ffffffff021916908363ffffffff16021790555060e08201518160040160086101000a81548160ff021916908315150217905550905050600260003373ffffffffffffffffffffffffffffffffffffffff1673ffffffffffffffffffffffffffffffffffffffff16815260200190815260200160002060005490806001815401808255809150506001900390600052602060002001600090919091909150553373ffffffffffffffffffffffffffffffffffffffff166000547fb544b666bf20d30fc9acbc75aee55e5847e8f95a49aa5d36b6dab734f0cbb3038a8a8a8a8a8a8a8a426040516114e099989796959493929190612317565b60405180910390a36000808154809291906114fa90612015565b91905055505050505050505050565b806001600084815260200190815260200160002060030160008282829054906101000a90046fffffffffffffffffffffffffffffffff1661154a9190612398565b92506101000a8154816fffffffffffffffffffffffffffffffff02191690836fffffffffffffffffffffffffffffffff160217905550817f1f3d301eca9b893fb3ae34f526f7b346cfe3086be67884ce1e652593c91668d66001600085815260200190815260200160002060030160009054906101000a90046fffffffffffffffffffffffffffffffff166040516115e291906123dc565b60405180910390a25050565b604051806101000160405280600073ffffffffffffffffffffffffffffffffffffffff168152602001606081526020016060815260200160006fffffffffffffffffffffffffffffffff16815260200160006fffffffffffffffffffffffffffffffff168152602001600063ffffffff168152602001600063ffffffff1681526020016000151581525090565b600080fd5b600080fd5b600073ffffffffffffffffffffffffffffffffffffffff82169050919050565b60006116b082611685565b9050919050565b6116c0816116a5565b81146116cb57600080fd5b50565b6000813590506116dd816116b7565b92915050565b6000602082840312156116f9576116f861167b565b5b6000611707848285016116ce565b91505092915050565b600081519050919050565b600082825260208201905092915050565b6000819050602082019050919050565b6000819050919050565b61174f8161173c565b82525050565b60006117618383611746565b60208301905092915050565b6000602082019050919050565b600061178582611710565b61178f818561171b565b935061179a8361172c565b8060005b838110156117cb5781516117b28882611755565b97506117bd8361176d565b92505060018101905061179e565b5085935050505092915050565b600060208201905081810360008301526117f2818461177a565b905092915050565b600081519050919050565b600082825260208201905092915050565b6000819050602082019050919050565b61182f816116a5565b82525050565b600081519050919050565b600082825260208201905092915050565b60005b8381101561186f578082015181840152602081019050611854565b60008484015250505050565b6000601f19601f8301169050919050565b600061189782611835565b6118a18185611840565b93506118b1818560208601611851565b6118ba8161187b565b840191505092915050565b60006fffffffffffffffffffffffffffffffff82169050919050565b6118ea816118c5565b82525050565b600063ffffffff82169050919050565b611909816118f0565b82525050565b60008115159050919050565b6119248161190f565b82525050565b6000610100830160008301516119436000860182611826565b506020830151848203602086015261195b828261188c565b91505060408301518482036040860152611975828261188c565b915050606083015161198a60608601826118e1565b50608083015161199d60808601826118e1565b5060a08301516119b060a0860182611900565b5060c08301516119c360c0860182611900565b5060e08301516119d660e086018261191b565b508091505092915050565b60006119ed838361192a565b905092915050565b6000602082019050919050565b6000611a0d826117fa565b611a178185611805565b935083602082028501611a2985611816565b8060005b85811015611a655784840389528151611a4685826119e1565b9450611a51836119f5565b925060208a01995050600181019050611a2d565b50829750879550505050505092915050565b60006040820190508181036000830152611a918185611a02565b90508181036020830152611aa5818461177a565b90509392505050565b611ab78161173c565b8114611ac257600080fd5b50565b600081359050611ad481611aae565b92915050565b60008060408385031215611af157611af061167b565b5b6000611aff858286016116ce565b9250506020611b1085828601611ac5565b9150509250929050565b611b238161173c565b82525050565b6000602082019050611b3e6000830184611b1a565b92915050565b600060208284031215611b5a57611b5961167b565b5b6000611b6884828501611ac5565b91505092915050565b611b7a816116a5565b82525050565b600082825260208201905092915050565b6000611b9c82611835565b611ba68185611b80565b9350611bb6818560208601611851565b611bbf8161187b565b840191505092915050565b611bd3816118c5565b82525050565b611be2816118f0565b82525050565b611bf18161190f565b82525050565b600061010082019050611c0d600083018b611b71565b8181036020830152611c1f818a611b91565b90508181036040830152611c338189611b91565b9050611c426060830188611bca565b611c4f6080830187611bca565b611c5c60a0830186611bd9565b611c6960c0830185611bd9565b611c7660e0830184611be8565b9998505050505050505050565b600061010083016000830151611c9c6000860182611826565b5060208301518482036020860152611cb4828261188c565b91505060408301518482036040860152611cce828261188c565b9150506060830151611ce360608601826118e1565b506080830151611cf660808601826118e1565b5060a0830151611d0960a0860182611900565b5060c0830151611d1c60c0860182611900565b5060e0830151611d2f60e086018261191b565b508091505092915050565b60006020820190508181036000830152611d548184611c83565b905092915050565b600080fd5b600080fd5b600080fd5b60008083601f840112611d8157611d80611d5c565b5b8235905067ffffffffffffffff811115611d9e57611d9d611d61565b5b602083019150836001820283011115611dba57611db9611d66565b5b9250929050565b611dca816118c5565b8114611dd557600080fd5b50565b600081359050611de781611dc1565b92915050565b611df6816118f0565b8114611e0157600080fd5b50565b600081359050611e1381611ded565b92915050565b60008060008060008060008060c0898b031215611e3957611e3861167b565b5b600089013567ffffffffffffffff811115611e5757611e56611680565b5b611e638b828c01611d6b565b9850985050602089013567ffffffffffffffff811115611e8657611e85611680565b5b611e928b828c01611d6b565b96509650506040611ea58b828c01611dd8565b9450506060611eb68b828c01611dd8565b9350506080611ec78b828c01611e04565b92505060a0611ed88b828c01611e04565b9150509295985092959890939650565b60008060408385031215611eff57611efe61167b565b5b6000611f0d85828601611ac5565b9250506020611f1e85828601611dd8565b9150509250929050565b7f4e487b7100000000000000000000000000000000000000000000000000000000600052604160045260246000fd5b7f4e487b7100000000000000000000000000000000000000000000000000000000600052603260045260246000fd5b7f4e487b7100000000000000000000000000000000000000000000000000000000600052602260045260246000fd5b60006002820490506001821680611fcd57607f821691505b602082108103611fe057611fdf611f86565b5b50919050565b7f4e487b7100000000000000000000000000000000000000000000000000000000600052601160045260246000fd5b60006120208261173c565b91507fffffffffffffffffffffffffffffffffffffffffffffffffffffffffffffffff820361205257612051611fe6565b5b600182019050919050565b60008190508160005260206000209050919050565b60006020601f8301049050919050565b600082821b905092915050565b6000600883026120bf7fffffffffffffffffffffffffffffffffffffffffffffffffffffffffffffffff82612082565b6120c98683612082565b95508019841693508086168417925050509392505050565b6000819050919050565b60006121066121016120fc8461173c565b6120e1565b61173c565b9050919050565b6000819050919050565b612120836120eb565b61213461212c8261210d565b84845461208f565b825550505050565b600090565b61214961213c565b612154818484612117565b505050565b5b818110156121785761216d600082612141565b60018101905061215a565b5050565b601f8211156121bd5761218e8161205d565b61219784612072565b810160208510156121a6578190505b6121ba6121b285612072565b830182612159565b50505b505050565b600082821c905092915050565b60006121e0600019846008026121c2565b1980831691505092915050565b60006121f983836121cf565b9150826002028217905092915050565b61221282611835565b67ffffffffffffffff81111561222b5761222a611f28565b5b6122358254611fb5565b61224082828561217c565b600060209050601f8311600181146122735760008415612261578287015190505b61226b85826121ed565b8655506122d3565b601f1984166122818661205d565b60005b828110156122a957848901518255600182019150602085019450602081019050612284565b868310156122c657848901516122c2601f8916826121cf565b8355505b6001600288020188555050505b505050505050565b82818337600083830152505050565b60006122f68385611b80565b93506123038385846122db565b61230c8361187b565b840190509392505050565b600060e0820190508181036000830152612332818b8d6122ea565b9050818103602083015261234781898b6122ea565b90506123566040830188611bca565b6123636060830187611bca565b6123706080830186611bd9565b61237d60a0830185611bd9565b61238a60c0830184611b1a565b9a9950505050505050505050565b60006123a3826118c5565b91506123ae836118c5565b925082820390506fffffffffffffffffffffffffffffffff8111156123d6576123d5611fe6565b5b92915050565b60006020820190506123f16000830184611bca565b9291505056fea2646970667358221220acb65c2f27a1d1945b9a75d4c0a4a873ef11e28b3faca6a6fe54d3ff35f3f30464736f6c63430008130033",
					"opcodes": "PUSH1 0x80 PUSH1 0x40 MSTORE PUSH1 0x1 PUSH1 0x0 SSTORE CALLVALUE DUP1 ISZERO PUSH2 0x15 JUMPI PUSH1 0x0 DUP1 REVERT JUMPDEST POP PUSH2 0x242D DUP1 PUSH2 0x25 PUSH1 0x0 CODECOPY PUSH1 0x0 RETURN INVALID PUSH1 0x80 PUSH1 0x40 MSTORE CALLVALUE DUP1 ISZERO PUSH2 0x10 JUMPI PUSH1 0x0 DUP1 REVERT JUMPDEST POP PUSH1 0x4 CALLDATASIZE LT PUSH2 0x9E JUMPI PUSH1 0x0 CALLDATALOAD PUSH1 0xE0 SHR DUP1 PUSH4 0x83F95853 GT PUSH2 0x66 JUMPI DUP1 PUSH4 0x83F95853 EQ PUSH2 0x187 JUMPI DUP1 PUSH4 0xC22EF68E EQ PUSH2 0x1B8 JUMPI DUP1 PUSH4 0xE10F28C7 EQ PUSH2 0x1E8 JUMPI DUP1 PUSH4 0xEE7E7C99 EQ PUSH2 0x206 JUMPI DUP1 PUSH4 0xF8BAFA70 EQ PUSH2 0x222 JUMPI PUSH2 0x9E JUMP JUMPDEST DUP1 PUSH4 0x11517205 EQ PUSH2 0xA3 JUMPI DUP1 PUSH4 0x2777259B EQ PUSH2 0xD3 JUMPI DUP1 PUSH4 0x42AF31D7 EQ PUSH2 0x104 JUMPI DUP1 PUSH4 0x6C87B826 EQ PUSH2 0x134 JUMPI DUP1 PUSH4 0x79AE0257 EQ PUSH2 0x16B JUMPI JUMPDEST PUSH1 0x0 DUP1 REVERT JUMPDEST PUSH2 0xBD PUSH1 0x4 DUP1 CALLDATASIZE SUB DUP2 ADD SWAP1 PUSH2 0xB8 SWAP2 SWAP1 PUSH2 0x16E3 JUMP JUMPDEST PUSH2 0x23E JUMP JUMPDEST PUSH1 0x40 MLOAD PUSH2 0xCA SWAP2 SWAP1 PUSH2 0x17D8 JUMP JUMPDEST PUSH1 0x40 MLOAD DUP1 SWAP2 SUB SWAP1 RETURN JUMPDEST PUSH2 0xED PUSH1 0x4 DUP1 CALLDATASIZE SUB DUP2 ADD SWAP1 PUSH2 0xE8 SWAP2 SWAP1 PUSH2 0x16E3 JUMP JUMPDEST PUSH2 0x2D5 JUMP JUMPDEST PUSH1 0x40 MLOAD PUSH2 0xFB SWAP3 SWAP2 SWAP1 PUSH2 0x1A77 JUMP JUMPDEST PUSH1 0x40 MLOAD DUP1 SWAP2 SUB SWAP1 RETURN JUMPDEST PUSH2 0x11E PUSH1 0x4 DUP1 CALLDATASIZE SUB DUP2 ADD SWAP1 PUSH2 0x119 SWAP2 SWAP1 PUSH2 0x1ADA JUMP JUMPDEST PUSH2 0x812 JUMP JUMPDEST PUSH1 0x40 MLOAD PUSH2 0x12B SWAP2 SWAP1 PUSH2 0x1B29 JUMP JUMPDEST PUSH1 0x40 MLOAD DUP1 SWAP2 SUB SWAP1 RETURN JUMPDEST PUSH2 0x14E PUSH1 0x4 DUP1 CALLDATASIZE SUB DUP2 ADD SWAP1 PUSH2 0x149 SWAP2 SWAP1 PUSH2 0x1B44 JUMP JUMPDEST PUSH2 0x843 JUMP JUMPDEST PUSH1 0x40 MLOAD PUSH2 0x162 SWAP9 SWAP8 SWAP7 SWAP6 SWAP5 SWAP4 SWAP3 SWAP2 SWAP1 PUSH2 0x1BF7 JUMP JUMPDEST PUSH1 0x40 MLOAD DUP1 SWAP2 SUB SWAP1 RETURN JUMPDEST PUSH2 0x185 PUSH1 0x4 DUP1 CALLDATASIZE SUB DUP2 ADD SWAP1 PUSH2 0x180 SWAP2 SWAP1 PUSH2 0x1B44 JUMP JUMPDEST PUSH2 0xA20 JUMP JUMPDEST STOP JUMPDEST PUSH2 0x1A1 PUSH1 0x4 DUP1 CALLDATASIZE SUB DUP2 ADD SWAP1 PUSH2 0x19C SWAP2 SWAP1 PUSH2 0x16E3 JUMP JUMPDEST PUSH2 0xA7F JUMP JUMPDEST PUSH1 0x40 MLOAD PUSH2 0x1AF SWAP3 SWAP2 SWAP1 PUSH2 0x1A77 JUMP JUMPDEST PUSH1 0x40 MLOAD DUP1 SWAP2 SUB SWAP1 RETURN JUMPDEST PUSH2 0x1D2 PUSH1 0x4 DUP1 CALLDATASIZE SUB DUP2 ADD SWAP1 PUSH2 0x1CD SWAP2 SWAP1 PUSH2 0x1B44 JUMP JUMPDEST PUSH2 0xE66 JUMP JUMPDEST PUSH1 0x40 MLOAD PUSH2 0x1DF SWAP2 SWAP1 PUSH2 0x1D3A JUMP JUMPDEST PUSH1 0x40 MLOAD DUP1 SWAP2 SUB SWAP1 RETURN JUMPDEST PUSH2 0x1F0 PUSH2 0x1109 JUMP JUMPDEST PUSH1 0x40 MLOAD PUSH2 0x1FD SWAP2 SWAP1 PUSH2 0x17D8 JUMP JUMPDEST PUSH1 0x40 MLOAD DUP1 SWAP2 SUB SWAP1 RETURN JUMPDEST PUSH2 0x220 PUSH1 0x4 DUP1 CALLDATASIZE SUB DUP2 ADD SWAP1 PUSH2 0x21B SWAP2 SWAP1 PUSH2 0x1E19 JUMP JUMPDEST PUSH2 0x119E JUMP JUMPDEST STOP JUMPDEST PUSH2 0x23C PUSH1 0x4 DUP1 CALLDATASIZE SUB DUP2 ADD SWAP1 PUSH2 0x237 SWAP2 SWAP1 PUSH2 0x1EE8 JUMP JUMPDEST PUSH2 0x1509 JUMP JUMPDEST STOP JUMPDEST PUSH1 0x60 PUSH1 0x2 PUSH1 0x0 DUP4 PUSH20 0xFFFFFFFFFFFFFFFFFFFFFFFFFFFFFFFFFFFFFFFF AND PUSH20 0xFFFFFFFFFFFFFFFFFFFFFFFFFFFFFFFFFFFFFFFF AND DUP2 MSTORE PUSH1 0x20 ADD SWAP1 DUP2 MSTORE PUSH1 0x20 ADD PUSH1 0x0 KECCAK256 DUP1 SLOAD DUP1 PUSH1 0x20 MUL PUSH1 0x20 ADD PUSH1 0x40 MLOAD SWAP1 DUP2 ADD PUSH1 0x40 MSTORE DUP1 SWAP3 SWAP2 SWAP1 DUP2 DUP2 MSTORE PUSH1 0x20 ADD DUP3 DUP1 SLOAD DUP1 ISZERO PUSH2 0x2C9 JUMPI PUSH1 0x20 MUL DUP3 ADD SWAP2 SWAP1 PUSH1 0x0 MSTORE PUSH1 0x20 PUSH1 0x0 KECCAK256 SWAP1 JUMPDEST DUP2 SLOAD DUP2 MSTORE PUSH1 0x20 ADD SWAP1 PUSH1 0x1 ADD SWAP1 DUP1 DUP4 GT PUSH2 0x2B5 JUMPI JUMPDEST POP POP POP POP POP SWAP1 POP SWAP2 SWAP1 POP JUMP JUMPDEST PUSH1 0x60 DUP1 PUSH1 0x0 PUSH1 0x2 PUSH1 0x0 DUP6 PUSH20 0xFFFFFFFFFFFFFFFFFFFFFFFFFFFFFFFFFFFFFFFF AND PUSH20 0xFFFFFFFFFFFFFFFFFFFFFFFFFFFFFFFFFFFFFFFF AND DUP2 MSTORE PUSH1 0x20 ADD SWAP1 DUP2 MSTORE PUSH1 0x20 ADD PUSH1 0x0 KECCAK256 DUP1 SLOAD DUP1 PUSH1 0x20 MUL PUSH1 0x20 ADD PUSH1 0x40 MLOAD SWAP1 DUP2 ADD PUSH1 0x40 MSTORE DUP1 SWAP3 SWAP2 SWAP1 DUP2 DUP2 MSTORE PUSH1 0x20 ADD DUP3 DUP1 SLOAD DUP1 ISZERO PUSH2 0x363 JUMPI PUSH1 0x20 MUL DUP3 ADD SWAP2 SWAP1 PUSH1 0x0 MSTORE PUSH1 0x20 PUSH1 0x0 KECCAK256 SWAP1 JUMPDEST DUP2 SLOAD DUP2 MSTORE PUSH1 0x20 ADD SWAP1 PUSH1 0x1 ADD SWAP1 DUP1 DUP4 GT PUSH2 0x34F JUMPI JUMPDEST POP POP POP POP POP SWAP1 POP PUSH1 0x0 DUP2 MLOAD PUSH8 0xFFFFFFFFFFFFFFFF DUP2 GT ISZERO PUSH2 0x387 JUMPI PUSH2 0x386 PUSH2 0x1F28 JUMP JUMPDEST JUMPDEST PUSH1 0x40 MLOAD SWAP1 DUP1 DUP3 MSTORE DUP1 PUSH1 0x20 MUL PUSH1 0x20 ADD DUP3 ADD PUSH1 0x40 MSTORE DUP1 ISZERO PUSH2 0x3B5 JUMPI DUP2 PUSH1 0x20 ADD PUSH1 0x20 DUP3 MUL DUP1 CALLDATASIZE DUP4 CALLDATACOPY DUP1 DUP3 ADD SWAP2 POP POP SWAP1 POP JUMPDEST POP SWAP1 POP PUSH1 0x0 DUP3 MLOAD PUSH8 0xFFFFFFFFFFFFFFFF DUP2 GT ISZERO PUSH2 0x3D5 JUMPI PUSH2 0x3D4 PUSH2 0x1F28 JUMP JUMPDEST JUMPDEST PUSH1 0x40 MLOAD SWAP1 DUP1 DUP3 MSTORE DUP1 PUSH1 0x20 MUL PUSH1 0x20 ADD DUP3 ADD PUSH1 0x40 MSTORE DUP1 ISZERO PUSH2 0x40E JUMPI DUP2 PUSH1 0x20 ADD JUMPDEST PUSH2 0x3FB PUSH2 0x15EE JUMP JUMPDEST DUP2 MSTORE PUSH1 0x20 ADD SWAP1 PUSH1 0x1 SWAP1 SUB SWAP1 DUP2 PUSH2 0x3F3 JUMPI SWAP1 POP JUMPDEST POP SWAP1 POP PUSH1 0x0 DUP1 JUMPDEST DUP5 MLOAD DUP2 LT ISZERO PUSH2 0x75B JUMPI PUSH1 0x0 DUP6 DUP3 DUP2 MLOAD DUP2 LT PUSH2 0x433 JUMPI PUSH2 0x432 PUSH2 0x1F57 JUMP JUMPDEST JUMPDEST PUSH1 0x20 MUL PUSH1 0x20 ADD ADD MLOAD SWAP1 POP PUSH1 0x1 PUSH1 0x0 DUP3 DUP2 MSTORE PUSH1 0x20 ADD SWAP1 DUP2 MSTORE PUSH1 0x20 ADD PUSH1 0x0 KECCAK256 PUSH1 0x4 ADD PUSH1 0x8 SWAP1 SLOAD SWAP1 PUSH2 0x100 EXP SWAP1 DIV PUSH1 0xFF AND ISZERO PUSH2 0x747 JUMPI PUSH1 0x1 PUSH1 0x0 DUP3 DUP2 MSTORE PUSH1 0x20 ADD SWAP1 DUP2 MSTORE PUSH1 0x20 ADD PUSH1 0x0 KECCAK256 PUSH1 0x40 MLOAD DUP1 PUSH2 0x100 ADD PUSH1 0x40 MSTORE SWAP1 DUP2 PUSH1 0x0 DUP3 ADD PUSH1 0x0 SWAP1 SLOAD SWAP1 PUSH2 0x100 EXP SWAP1 DIV PUSH20 0xFFFFFFFFFFFFFFFFFFFFFFFFFFFFFFFFFFFFFFFF AND PUSH20 0xFFFFFFFFFFFFFFFFFFFFFFFFFFFFFFFFFFFFFFFF AND PUSH20 0xFFFFFFFFFFFFFFFFFFFFFFFFFFFFFFFFFFFFFFFF AND DUP2 MSTORE PUSH1 0x20 ADD PUSH1 0x1 DUP3 ADD DUP1 SLOAD PUSH2 0x4EB SWAP1 PUSH2 0x1FB5 JUMP JUMPDEST DUP1 PUSH1 0x1F ADD PUSH1 0x20 DUP1 SWAP2 DIV MUL PUSH1 0x20 ADD PUSH1 0x40 MLOAD SWAP1 DUP2 ADD PUSH1 0x40 MSTORE DUP1 SWAP3 SWAP2 SWAP1 DUP2 DUP2 MSTORE PUSH1 0x20 ADD DUP3 DUP1 SLOAD PUSH2 0x517 SWAP1 PUSH2 0x1FB5 JUMP JUMPDEST DUP1 ISZERO PUSH2 0x564 JUMPI DUP1 PUSH1 0x1F LT PUSH2 0x539 JUMPI PUSH2 0x100 DUP1 DUP4 SLOAD DIV MUL DUP4 MSTORE SWAP2 PUSH1 0x20 ADD SWAP2 PUSH2 0x564 JUMP JUMPDEST DUP3 ADD SWAP2 SWAP1 PUSH1 0x0 MSTORE PUSH1 0x20 PUSH1 0x0 KECCAK256 SWAP1 JUMPDEST DUP2 SLOAD DUP2 MSTORE SWAP1 PUSH1 0x1 ADD SWAP1 PUSH1 0x20 ADD DUP1 DUP4 GT PUSH2 0x547 JUMPI DUP3 SWAP1 SUB PUSH1 0x1F AND DUP3 ADD SWAP2 JUMPDEST POP POP POP POP POP DUP2 MSTORE PUSH1 0x20 ADD PUSH1 0x2 DUP3 ADD DUP1 SLOAD PUSH2 0x57D SWAP1 PUSH2 0x1FB5 JUMP JUMPDEST DUP1 PUSH1 0x1F ADD PUSH1 0x20 DUP1 SWAP2 DIV MUL PUSH1 0x20 ADD PUSH1 0x40 MLOAD SWAP1 DUP2 ADD PUSH1 0x40 MSTORE DUP1 SWAP3 SWAP2 SWAP1 DUP2 DUP2 MSTORE PUSH1 0x20 ADD DUP3 DUP1 SLOAD PUSH2 0x5A9 SWAP1 PUSH2 0x1FB5 JUMP JUMPDEST DUP1 ISZERO PUSH2 0x5F6 JUMPI DUP1 PUSH1 0x1F LT PUSH2 0x5CB JUMPI PUSH2 0x100 DUP1 DUP4 SLOAD DIV MUL DUP4 MSTORE SWAP2 PUSH1 0x20 ADD SWAP2 PUSH2 0x5F6 JUMP JUMPDEST DUP3 ADD SWAP2 SWAP1 PUSH1 0x0 MSTORE PUSH1 0x20 PUSH1 0x0 KECCAK256 SWAP1 JUMPDEST DUP2 SLOAD DUP2 MSTORE SWAP1 PUSH1 0x1 ADD SWAP1 PUSH1 0x20 ADD DUP1 DUP4 GT PUSH2 0x5D9 JUMPI DUP3 SWAP1 SUB PUSH1 0x1F AND DUP3 ADD SWAP2 JUMPDEST POP POP POP POP POP DUP2 MSTORE PUSH1 0x20 ADD PUSH1 0x3 DUP3 ADD PUSH1 0x0 SWAP1 SLOAD SWAP1 PUSH2 0x100 EXP SWAP1 DIV PUSH16 0xFFFFFFFFFFFFFFFFFFFFFFFFFFFFFFFF AND PUSH16 0xFFFFFFFFFFFFFFFFFFFFFFFFFFFFFFFF AND PUSH16 0xFFFFFFFFFFFFFFFFFFFFFFFFFFFFFFFF AND DUP2 MSTORE PUSH1 0x20 ADD PUSH1 0x3 DUP3 ADD PUSH1 0x10 SWAP1 SLOAD SWAP1 PUSH2 0x100 EXP SWAP1 DIV PUSH16 0xFFFFFFFFFFFFFFFFFFFFFFFFFFFFFFFF AND PUSH16 0xFFFFFFFFFFFFFFFFFFFFFFFFFFFFFFFF AND PUSH16 0xFFFFFFFFFFFFFFFFFFFFFFFFFFFFFFFF AND DUP2 MSTORE PUSH1 0x20 ADD PUSH1 0x4 DUP3 ADD PUSH1 0x0 SWAP1 SLOAD SWAP1 PUSH2 0x100 EXP SWAP1 DIV PUSH4 0xFFFFFFFF AND PUSH4 0xFFFFFFFF AND PUSH4 0xFFFFFFFF AND DUP2 MSTORE PUSH1 0x20 ADD PUSH1 0x4 DUP3 ADD PUSH1 0x4 SWAP1 SLOAD SWAP1 PUSH2 0x100 EXP SWAP1 DIV PUSH4 0xFFFFFFFF AND PUSH4 0xFFFFFFFF AND PUSH4 0xFFFFFFFF AND DUP2 MSTORE PUSH1 0x20 ADD PUSH1 0x4 DUP3 ADD PUSH1 0x8 SWAP1 SLOAD SWAP1 PUSH2 0x100 EXP SWAP1 DIV PUSH1 0xFF AND ISZERO ISZERO ISZERO ISZERO DUP2 MSTORE POP POP DUP5 DUP5 DUP2 MLOAD DUP2 LT PUSH2 0x70D JUMPI PUSH2 0x70C PUSH2 0x1F57 JUMP JUMPDEST JUMPDEST PUSH1 0x20 MUL PUSH1 0x20 ADD ADD DUP2 SWAP1 MSTORE POP DUP1 DUP6 DUP5 DUP2 MLOAD DUP2 LT PUSH2 0x72C JUMPI PUSH2 0x72B PUSH2 0x1F57 JUMP JUMPDEST JUMPDEST PUSH1 0x20 MUL PUSH1 0x20 ADD ADD DUP2 DUP2 MSTORE POP POP DUP3 DUP1 PUSH2 0x743 SWAP1 PUSH2 0x2015 JUMP JUMPDEST SWAP4 POP POP JUMPDEST POP DUP1 DUP1 PUSH2 0x753 SWAP1 PUSH2 0x2015 JUMP JUMPDEST SWAP2 POP POP PUSH2 0x415 JUMP JUMPDEST POP PUSH1 0x0 DUP2 PUSH8 0xFFFFFFFFFFFFFFFF DUP2 GT ISZERO PUSH2 0x778 JUMPI PUSH2 0x777 PUSH2 0x1F28 JUMP JUMPDEST JUMPDEST PUSH1 0x40 MLOAD SWAP1 DUP1 DUP3 MSTORE DUP1 PUSH1 0x20 MUL PUSH1 0x20 ADD DUP3 ADD PUSH1 0x40 MSTORE DUP1 ISZERO PUSH2 0x7A6 JUMPI DUP2 PUSH1 0x20 ADD PUSH1 0x20 DUP3 MUL DUP1 CALLDATASIZE DUP4 CALLDATACOPY DUP1 DUP3 ADD SWAP2 POP POP SWAP1 POP JUMPDEST POP SWAP1 POP PUSH1 0x0 JUMPDEST DUP3 DUP2 LT ISZERO PUSH2 0x801 JUMPI DUP5 DUP2 DUP2 MLOAD DUP2 LT PUSH2 0x7C7 JUMPI PUSH2 0x7C6 PUSH2 0x1F57 JUMP JUMPDEST JUMPDEST PUSH1 0x20 MUL PUSH1 0x20 ADD ADD MLOAD DUP3 DUP3 DUP2 MLOAD DUP2 LT PUSH2 0x7E2 JUMPI PUSH2 0x7E1 PUSH2 0x1F57 JUMP JUMPDEST JUMPDEST PUSH1 0x20 MUL PUSH1 0x20 ADD ADD DUP2 DUP2 MSTORE POP POP DUP1 DUP1 PUSH2 0x7F9 SWAP1 PUSH2 0x2015 JUMP JUMPDEST SWAP2 POP POP PUSH2 0x7AC JUMP JUMPDEST POP DUP3 DUP2 SWAP7 POP SWAP7 POP POP POP POP POP POP SWAP2 POP SWAP2 JUMP JUMPDEST PUSH1 0x2 PUSH1 0x20 MSTORE DUP2 PUSH1 0x0 MSTORE PUSH1 0x40 PUSH1 0x0 KECCAK256 DUP2 DUP2 SLOAD DUP2 LT PUSH2 0x82E JUMPI PUSH1 0x0 DUP1 REVERT JUMPDEST SWAP1 PUSH1 0x0 MSTORE PUSH1 0x20 PUSH1 0x0 KECCAK256 ADD PUSH1 0x0 SWAP2 POP SWAP2 POP POP SLOAD DUP2 JUMP JUMPDEST PUSH1 0x1 PUSH1 0x20 MSTORE DUP1 PUSH1 0x0 MSTORE PUSH1 0x40 PUSH1 0x0 KECCAK256 PUSH1 0x0 SWAP2 POP SWAP1 POP DUP1 PUSH1 0x0 ADD PUSH1 0x0 SWAP1 SLOAD SWAP1 PUSH2 0x100 EXP SWAP1 DIV PUSH20 0xFFFFFFFFFFFFFFFFFFFFFFFFFFFFFFFFFFFFFFFF AND SWAP1 DUP1 PUSH1 0x1 ADD DUP1 SLOAD PUSH2 0x88C SWAP1 PUSH2 0x1FB5 JUMP JUMPDEST DUP1 PUSH1 0x1F ADD PUSH1 0x20 DUP1 SWAP2 DIV MUL PUSH1 0x20 ADD PUSH1 0x40 MLOAD SWAP1 DUP2 ADD PUSH1 0x40 MSTORE DUP1 SWAP3 SWAP2 SWAP1 DUP2 DUP2 MSTORE PUSH1 0x20 ADD DUP3 DUP1 SLOAD PUSH2 0x8B8 SWAP1 PUSH2 0x1FB5 JUMP JUMPDEST DUP1 ISZERO PUSH2 0x905 JUMPI DUP1 PUSH1 0x1F LT PUSH2 0x8DA JUMPI PUSH2 0x100 DUP1 DUP4 SLOAD DIV MUL DUP4 MSTORE SWAP2 PUSH1 0x20 ADD SWAP2 PUSH2 0x905 JUMP JUMPDEST DUP3 ADD SWAP2 SWAP1 PUSH1 0x0 MSTORE PUSH1 0x20 PUSH1 0x0 KECCAK256 SWAP1 JUMPDEST DUP2 SLOAD DUP2 MSTORE SWAP1 PUSH1 0x1 ADD SWAP1 PUSH1 0x20 ADD DUP1 DUP4 GT PUSH2 0x8E8 JUMPI DUP3 SWAP1 SUB PUSH1 0x1F AND DUP3 ADD SWAP2 JUMPDEST POP POP POP POP POP SWAP1 DUP1 PUSH1 0x2 ADD DUP1 SLOAD PUSH2 0x91A SWAP1 PUSH2 0x1FB5 JUMP JUMPDEST DUP1 PUSH1 0x1F ADD PUSH1 0x20 DUP1 SWAP2 DIV MUL PUSH1 0x20 ADD PUSH1 0x40 MLOAD SWAP1 DUP2 ADD PUSH1 0x40 MSTORE DUP1 SWAP3 SWAP2 SWAP1 DUP2 DUP2 MSTORE PUSH1 0x20 ADD DUP3 DUP1 SLOAD PUSH2 0x946 SWAP1 PUSH2 0x1FB5 JUMP JUMPDEST DUP1 ISZERO PUSH2 0x993 JUMPI DUP1 PUSH1 0x1F LT PUSH2 0x968 JUMPI PUSH2 0x100 DUP1 DUP4 SLOAD DIV MUL DUP4 MSTORE SWAP2 PUSH1 0x20 ADD SWAP2 PUSH2 0x993 JUMP JUMPDEST DUP3 ADD SWAP2 SWAP1 PUSH1 0x0 MSTORE PUSH1 0x20 PUSH1 0x0 KECCAK256 SWAP1 JUMPDEST DUP2 SLOAD DUP2 MSTORE SWAP1 PUSH1 0x1 ADD SWAP1 PUSH1 0x20 ADD DUP1 DUP4 GT PUSH2 0x976 JUMPI DUP3 SWAP1 SUB PUSH1 0x1F AND DUP3 ADD SWAP2 JUMPDEST POP POP POP POP POP SWAP1 DUP1 PUSH1 0x3 ADD PUSH1 0x0 SWAP1 SLOAD SWAP1 PUSH2 0x100 EXP SWAP1 DIV PUSH16 0xFFFFFFFFFFFFFFFFFFFFFFFFFFFFFFFF AND SWAP1 DUP1 PUSH1 0x3 ADD PUSH1 0x10 SWAP1 SLOAD SWAP1 PUSH2 0x100 EXP SWAP1 DIV PUSH16 0xFFFFFFFFFFFFFFFFFFFFFFFFFFFFFFFF AND SWAP1 DUP1 PUSH1 0x4 ADD PUSH1 0x0 SWAP1 SLOAD SWAP1 PUSH2 0x100 EXP SWAP1 DIV PUSH4 0xFFFFFFFF AND SWAP1 DUP1 PUSH1 0x4 ADD PUSH1 0x4 SWAP1 SLOAD SWAP1 PUSH2 0x100 EXP SWAP1 DIV PUSH4 0xFFFFFFFF AND SWAP1 DUP1 PUSH1 0x4 ADD PUSH1 0x8 SWAP1 SLOAD SWAP1 PUSH2 0x100 EXP SWAP1 DIV PUSH1 0xFF AND SWAP1 POP DUP9 JUMP JUMPDEST PUSH1 0x0 PUSH1 0x1 PUSH1 0x0 DUP4 DUP2 MSTORE PUSH1 0x20 ADD SWAP1 DUP2 MSTORE PUSH1 0x20 ADD PUSH1 0x0 KECCAK256 PUSH1 0x4 ADD PUSH1 0x8 PUSH2 0x100 EXP DUP2 SLOAD DUP2 PUSH1 0xFF MUL NOT AND SWAP1 DUP4 ISZERO ISZERO MUL OR SWAP1 SSTORE POP DUP1 PUSH32 0x6C1A4E746947A5049A6693A4875A10617826C8361C631CAC61717E141185FDD2 PUSH1 0x40 MLOAD PUSH1 0x40 MLOAD DUP1 SWAP2 SUB SWAP1 LOG2 POP JUMP JUMPDEST PUSH1 0x60 DUP1 PUSH1 0x0 PUSH1 0x2 PUSH1 0x0 DUP6 PUSH20 0xFFFFFFFFFFFFFFFFFFFFFFFFFFFFFFFFFFFFFFFF AND PUSH20 0xFFFFFFFFFFFFFFFFFFFFFFFFFFFFFFFFFFFFFFFF AND DUP2 MSTORE PUSH1 0x20 ADD SWAP1 DUP2 MSTORE PUSH1 0x20 ADD PUSH1 0x0 KECCAK256 DUP1 SLOAD DUP1 PUSH1 0x20 MUL PUSH1 0x20 ADD PUSH1 0x40 MLOAD SWAP1 DUP2 ADD PUSH1 0x40 MSTORE DUP1 SWAP3 SWAP2 SWAP1 DUP2 DUP2 MSTORE PUSH1 0x20 ADD DUP3 DUP1 SLOAD DUP1 ISZERO PUSH2 0xB0D JUMPI PUSH1 0x20 MUL DUP3 ADD SWAP2 SWAP1 PUSH1 0x0 MSTORE PUSH1 0x20 PUSH1 0x0 KECCAK256 SWAP1 JUMPDEST DUP2 SLOAD DUP2 MSTORE PUSH1 0x20 ADD SWAP1 PUSH1 0x1 ADD SWAP1 DUP1 DUP4 GT PUSH2 0xAF9 JUMPI JUMPDEST POP POP POP POP POP SWAP1 POP PUSH1 0x0 DUP2 MLOAD PUSH8 0xFFFFFFFFFFFFFFFF DUP2 GT ISZERO PUSH2 0xB31 JUMPI PUSH2 0xB30 PUSH2 0x1F28 JUMP JUMPDEST JUMPDEST PUSH1 0x40 MLOAD SWAP1 DUP1 DUP3 MSTORE DUP1 PUSH1 0x20 MUL PUSH1 0x20 ADD DUP3 ADD PUSH1 0x40 MSTORE DUP1 ISZERO PUSH2 0xB6A JUMPI DUP2 PUSH1 0x20 ADD JUMPDEST PUSH2 0xB57 PUSH2 0x15EE JUMP JUMPDEST DUP2 MSTORE PUSH1 0x20 ADD SWAP1 PUSH1 0x1 SWAP1 SUB SWAP1 DUP2 PUSH2 0xB4F JUMPI SWAP1 POP JUMPDEST POP SWAP1 POP PUSH1 0x0 JUMPDEST DUP3 MLOAD DUP2 LT ISZERO PUSH2 0xE58 JUMPI PUSH1 0x1 PUSH1 0x0 DUP5 DUP4 DUP2 MLOAD DUP2 LT PUSH2 0xB90 JUMPI PUSH2 0xB8F PUSH2 0x1F57 JUMP JUMPDEST JUMPDEST PUSH1 0x20 MUL PUSH1 0x20 ADD ADD MLOAD DUP2 MSTORE PUSH1 0x20 ADD SWAP1 DUP2 MSTORE PUSH1 0x20 ADD PUSH1 0x0 KECCAK256 PUSH1 0x40 MLOAD DUP1 PUSH2 0x100 ADD PUSH1 0x40 MSTORE SWAP1 DUP2 PUSH1 0x0 DUP3 ADD PUSH1 0x0 SWAP1 SLOAD SWAP1 PUSH2 0x100 EXP SWAP1 DIV PUSH20 0xFFFFFFFFFFFFFFFFFFFFFFFFFFFFFFFFFFFFFFFF AND PUSH20 0xFFFFFFFFFFFFFFFFFFFFFFFFFFFFFFFFFFFFFFFF AND PUSH20 0xFFFFFFFFFFFFFFFFFFFFFFFFFFFFFFFFFFFFFFFF AND DUP2 MSTORE PUSH1 0x20 ADD PUSH1 0x1 DUP3 ADD DUP1 SLOAD PUSH2 0xC18 SWAP1 PUSH2 0x1FB5 JUMP JUMPDEST DUP1 PUSH1 0x1F ADD PUSH1 0x20 DUP1 SWAP2 DIV MUL PUSH1 0x20 ADD PUSH1 0x40 MLOAD SWAP1 DUP2 ADD PUSH1 0x40 MSTORE DUP1 SWAP3 SWAP2 SWAP1 DUP2 DUP2 MSTORE PUSH1 0x20 ADD DUP3 DUP1 SLOAD PUSH2 0xC44 SWAP1 PUSH2 0x1FB5 JUMP JUMPDEST DUP1 ISZERO PUSH2 0xC91 JUMPI DUP1 PUSH1 0x1F LT PUSH2 0xC66 JUMPI PUSH2 0x100 DUP1 DUP4 SLOAD DIV MUL DUP4 MSTORE SWAP2 PUSH1 0x20 ADD SWAP2 PUSH2 0xC91 JUMP JUMPDEST DUP3 ADD SWAP2 SWAP1 PUSH1 0x0 MSTORE PUSH1 0x20 PUSH1 0x0 KECCAK256 SWAP1 JUMPDEST DUP2 SLOAD DUP2 MSTORE SWAP1 PUSH1 0x1 ADD SWAP1 PUSH1 0x20 ADD DUP1 DUP4 GT PUSH2 0xC74 JUMPI DUP3 SWAP1 SUB PUSH1 0x1F AND DUP3 ADD SWAP2 JUMPDEST POP POP POP POP POP DUP2 MSTORE PUSH1 0x20 ADD PUSH1 0x2 DUP3 ADD DUP1 SLOAD PUSH2 0xCAA SWAP1 PUSH2 0x1FB5 JUMP JUMPDEST DUP1 PUSH1 0x1F ADD PUSH1 0x20 DUP1 SWAP2 DIV MUL PUSH1 0x20 ADD PUSH1 0x40 MLOAD SWAP1 DUP2 ADD PUSH1 0x40 MSTORE DUP1 SWAP3 SWAP2 SWAP1 DUP2 DUP2 MSTORE PUSH1 0x20 ADD DUP3 DUP1 SLOAD PUSH2 0xCD6 SWAP1 PUSH2 0x1FB5 JUMP JUMPDEST DUP1 ISZERO PUSH2 0xD23 JUMPI DUP1 PUSH1 0x1F LT PUSH2 0xCF8 JUMPI PUSH2 0x100 DUP1 DUP4 SLOAD DIV MUL DUP4 MSTORE SWAP2 PUSH1 0x20 ADD SWAP2 PUSH2 0xD23 JUMP JUMPDEST DUP3 ADD SWAP2 SWAP1 PUSH1 0x0 MSTORE PUSH1 0x20 PUSH1 0x0 KECCAK256 SWAP1 JUMPDEST DUP2 SLOAD DUP2 MSTORE SWAP1 PUSH1 0x1 ADD SWAP1 PUSH1 0x20 ADD DUP1 DUP4 GT PUSH2 0xD06 JUMPI DUP3 SWAP1 SUB PUSH1 0x1F AND DUP3 ADD SWAP2 JUMPDEST POP POP POP POP POP DUP2 MSTORE PUSH1 0x20 ADD PUSH1 0x3 DUP3 ADD PUSH1 0x0 SWAP1 SLOAD SWAP1 PUSH2 0x100 EXP SWAP1 DIV PUSH16 0xFFFFFFFFFFFFFFFFFFFFFFFFFFFFFFFF AND PUSH16 0xFFFFFFFFFFFFFFFFFFFFFFFFFFFFFFFF AND PUSH16 0xFFFFFFFFFFFFFFFFFFFFFFFFFFFFFFFF AND DUP2 MSTORE PUSH1 0x20 ADD PUSH1 0x3 DUP3 ADD PUSH1 0x10 SWAP1 SLOAD SWAP1 PUSH2 0x100 EXP SWAP1 DIV PUSH16 0xFFFFFFFFFFFFFFFFFFFFFFFFFFFFFFFF AND PUSH16 0xFFFFFFFFFFFFFFFFFFFFFFFFFFFFFFFF AND PUSH16 0xFFFFFFFFFFFFFFFFFFFFFFFFFFFFFFFF AND DUP2 MSTORE PUSH1 0x20 ADD PUSH1 0x4 DUP3 ADD PUSH1 0x0 SWAP1 SLOAD SWAP1 PUSH2 0x100 EXP SWAP1 DIV PUSH4 0xFFFFFFFF AND PUSH4 0xFFFFFFFF AND PUSH4 0xFFFFFFFF AND DUP2 MSTORE PUSH1 0x20 ADD PUSH1 0x4 DUP3 ADD PUSH1 0x4 SWAP1 SLOAD SWAP1 PUSH2 0x100 EXP SWAP1 DIV PUSH4 0xFFFFFFFF AND PUSH4 0xFFFFFFFF AND PUSH4 0xFFFFFFFF AND DUP2 MSTORE PUSH1 0x20 ADD PUSH1 0x4 DUP3 ADD PUSH1 0x8 SWAP1 SLOAD SWAP1 PUSH2 0x100 EXP SWAP1 DIV PUSH1 0xFF AND ISZERO ISZERO ISZERO ISZERO DUP2 MSTORE POP POP DUP3 DUP3 DUP2 MLOAD DUP2 LT PUSH2 0xE3A JUMPI PUSH2 0xE39 PUSH2 0x1F57 JUMP JUMPDEST JUMPDEST PUSH1 0x20 MUL PUSH1 0x20 ADD ADD DUP2 SWAP1 MSTORE POP DUP1 DUP1 PUSH2 0xE50 SWAP1 PUSH2 0x2015 JUMP JUMPDEST SWAP2 POP POP PUSH2 0xB70 JUMP JUMPDEST POP DUP1 DUP3 SWAP4 POP SWAP4 POP POP POP SWAP2 POP SWAP2 JUMP JUMPDEST PUSH2 0xE6E PUSH2 0x15EE JUMP JUMPDEST PUSH1 0x1 PUSH1 0x0 DUP4 DUP2 MSTORE PUSH1 0x20 ADD SWAP1 DUP2 MSTORE PUSH1 0x20 ADD PUSH1 0x0 KECCAK256 PUSH1 0x40 MLOAD DUP1 PUSH2 0x100 ADD PUSH1 0x40 MSTORE SWAP1 DUP2 PUSH1 0x0 DUP3 ADD PUSH1 0x0 SWAP1 SLOAD SWAP1 PUSH2 0x100 EXP SWAP1 DIV PUSH20 0xFFFFFFFFFFFFFFFFFFFFFFFFFFFFFFFFFFFFFFFF AND PUSH20 0xFFFFFFFFFFFFFFFFFFFFFFFFFFFFFFFFFFFFFFFF AND PUSH20 0xFFFFFFFFFFFFFFFFFFFFFFFFFFFFFFFFFFFFFFFF AND DUP2 MSTORE PUSH1 0x20 ADD PUSH1 0x1 DUP3 ADD DUP1 SLOAD PUSH2 0xEF3 SWAP1 PUSH2 0x1FB5 JUMP JUMPDEST DUP1 PUSH1 0x1F ADD PUSH1 0x20 DUP1 SWAP2 DIV MUL PUSH1 0x20 ADD PUSH1 0x40 MLOAD SWAP1 DUP2 ADD PUSH1 0x40 MSTORE DUP1 SWAP3 SWAP2 SWAP1 DUP2 DUP2 MSTORE PUSH1 0x20 ADD DUP3 DUP1 SLOAD PUSH2 0xF1F SWAP1 PUSH2 0x1FB5 JUMP JUMPDEST DUP1 ISZERO PUSH2 0xF6C JUMPI DUP1 PUSH1 0x1F LT PUSH2 0xF41 JUMPI PUSH2 0x100 DUP1 DUP4 SLOAD DIV MUL DUP4 MSTORE SWAP2 PUSH1 0x20 ADD SWAP2 PUSH2 0xF6C JUMP JUMPDEST DUP3 ADD SWAP2 SWAP1 PUSH1 0x0 MSTORE PUSH1 0x20 PUSH1 0x0 KECCAK256 SWAP1 JUMPDEST DUP2 SLOAD DUP2 MSTORE SWAP1 PUSH1 0x1 ADD SWAP1 PUSH1 0x20 ADD DUP1 DUP4 GT PUSH2 0xF4F JUMPI DUP3 SWAP1 SUB PUSH1 0x1F AND DUP3 ADD SWAP2 JUMPDEST POP POP POP POP POP DUP2 MSTORE PUSH1 0x20 ADD PUSH1 0x2 DUP3 ADD DUP1 SLOAD PUSH2 0xF85 SWAP1 PUSH2 0x1FB5 JUMP JUMPDEST DUP1 PUSH1 0x1F ADD PUSH1 0x20 DUP1 SWAP2 DIV MUL PUSH1 0x20 ADD PUSH1 0x40 MLOAD SWAP1 DUP2 ADD PUSH1 0x40 MSTORE DUP1 SWAP3 SWAP2 SWAP1 DUP2 DUP2 MSTORE PUSH1 0x20 ADD DUP3 DUP1 SLOAD PUSH2 0xFB1 SWAP1 PUSH2 0x1FB5 JUMP JUMPDEST DUP1 ISZERO PUSH2 0xFFE JUMPI DUP1 PUSH1 0x1F LT PUSH2 0xFD3 JUMPI PUSH2 0x100 DUP1 DUP4 SLOAD DIV MUL DUP4 MSTORE SWAP2 PUSH1 0x20 ADD SWAP2 PUSH2 0xFFE JUMP JUMPDEST DUP3 ADD SWAP2 SWAP1 PUSH1 0x0 MSTORE PUSH1 0x20 PUSH1 0x0 KECCAK256 SWAP1 JUMPDEST DUP2 SLOAD DUP2 MSTORE SWAP1 PUSH1 0x1 ADD SWAP1 PUSH1 0x20 ADD DUP1 DUP4 GT PUSH2 0xFE1 JUMPI DUP3 SWAP1 SUB PUSH1 0x1F AND DUP3 ADD SWAP2 JUMPDEST POP POP POP POP POP DUP2 MSTORE PUSH1 0x20 ADD PUSH1 0x3 DUP3 ADD PUSH1 0x0 SWAP1 SLOAD SWAP1 PUSH2 0x100 EXP SWAP1 DIV PUSH16 0xFFFFFFFFFFFFFFFFFFFFFFFFFFFFFFFF AND PUSH16 0xFFFFFFFFFFFFFFFFFFFFFFFFFFFFFFFF AND PUSH16 0xFFFFFFFFFFFFFFFFFFFFFFFFFFFFFFFF AND DUP2 MSTORE PUSH1 0x20 ADD PUSH1 0x3 DUP3 ADD PUSH1 0x10 SWAP1 SLOAD SWAP1 PUSH2 0x100 EXP SWAP1 DIV PUSH16 0xFFFFFFFFFFFFFFFFFFFFFFFFFFFFFFFF AND PUSH16 0xFFFFFFFFFFFFFFFFFFFFFFFFFFFFFFFF AND PUSH16 0xFFFFFFFFFFFFFFFFFFFFFFFFFFFFFFFF AND DUP2 MSTORE PUSH1 0x20 ADD PUSH1 0x4 DUP3 ADD PUSH1 0x0 SWAP1 SLOAD SWAP1 PUSH2 0x100 EXP SWAP1 DIV PUSH4 0xFFFFFFFF AND PUSH4 0xFFFFFFFF AND PUSH4 0xFFFFFFFF AND DUP2 MSTORE PUSH1 0x20 ADD PUSH1 0x4 DUP3 ADD PUSH1 0x4 SWAP1 SLOAD SWAP1 PUSH2 0x100 EXP SWAP1 DIV PUSH4 0xFFFFFFFF AND PUSH4 0xFFFFFFFF AND PUSH4 0xFFFFFFFF AND DUP2 MSTORE PUSH1 0x20 ADD PUSH1 0x4 DUP3 ADD PUSH1 0x8 SWAP1 SLOAD SWAP1 PUSH2 0x100 EXP SWAP1 DIV PUSH1 0xFF AND ISZERO ISZERO ISZERO ISZERO DUP2 MSTORE POP POP SWAP1 POP SWAP2 SWAP1 POP JUMP JUMPDEST PUSH1 0x60 PUSH1 0x2 PUSH1 0x0 CALLER PUSH20 0xFFFFFFFFFFFFFFFFFFFFFFFFFFFFFFFFFFFFFFFF AND PUSH20 0xFFFFFFFFFFFFFFFFFFFFFFFFFFFFFFFFFFFFFFFF AND DUP2 MSTORE PUSH1 0x20 ADD SWAP1 DUP2 MSTORE PUSH1 0x20 ADD PUSH1 0x0 KECCAK256 DUP1 SLOAD DUP1 PUSH1 0x20 MUL PUSH1 0x20 ADD PUSH1 0x40 MLOAD SWAP1 DUP2 ADD PUSH1 0x40 MSTORE DUP1 SWAP3 SWAP2 SWAP1 DUP2 DUP2 MSTORE PUSH1 0x20 ADD DUP3 DUP1 SLOAD DUP1 ISZERO PUSH2 0x1194 JUMPI PUSH1 0x20 MUL DUP3 ADD SWAP2 SWAP1 PUSH1 0x0 MSTORE PUSH1 0x20 PUSH1 0x0 KECCAK256 SWAP1 JUMPDEST DUP2 SLOAD DUP2 MSTORE PUSH1 0x20 ADD SWAP1 PUSH1 0x1 ADD SWAP1 DUP1 DUP4 GT PUSH2 0x1180 JUMPI JUMPDEST POP POP POP POP POP SWAP1 POP SWAP1 JUMP JUMPDEST PUSH1 0x40 MLOAD DUP1 PUSH2 0x100 ADD PUSH1 0x40 MSTORE DUP1 CALLER PUSH20 0xFFFFFFFFFFFFFFFFFFFFFFFFFFFFFFFFFFFFFFFF AND DUP2 MSTORE PUSH1 0x20 ADD DUP10 DUP10 DUP1 DUP1 PUSH1 0x1F ADD PUSH1 0x20 DUP1 SWAP2 DIV MUL PUSH1 0x20 ADD PUSH1 0x40 MLOAD SWAP1 DUP2 ADD PUSH1 0x40 MSTORE DUP1 SWAP4 SWAP3 SWAP2 SWAP1 DUP2 DUP2 MSTORE PUSH1 0x20 ADD DUP4 DUP4 DUP1 DUP3 DUP5 CALLDATACOPY PUSH1 0x0 DUP2 DUP5 ADD MSTORE PUSH1 0x1F NOT PUSH1 0x1F DUP3 ADD AND SWAP1 POP DUP1 DUP4 ADD SWAP3 POP POP POP POP POP POP POP DUP2 MSTORE PUSH1 0x20 ADD DUP8 DUP8 DUP1 DUP1 PUSH1 0x1F ADD PUSH1 0x20 DUP1 SWAP2 DIV MUL PUSH1 0x20 ADD PUSH1 0x40 MLOAD SWAP1 DUP2 ADD PUSH1 0x40 MSTORE DUP1 SWAP4 SWAP3 SWAP2 SWAP1 DUP2 DUP2 MSTORE PUSH1 0x20 ADD DUP4 DUP4 DUP1 DUP3 DUP5 CALLDATACOPY PUSH1 0x0 DUP2 DUP5 ADD MSTORE PUSH1 0x1F NOT PUSH1 0x1F DUP3 ADD AND SWAP1 POP DUP1 DUP4 ADD SWAP3 POP POP POP POP POP POP POP DUP2 MSTORE PUSH1 0x20 ADD DUP6 PUSH16 0xFFFFFFFFFFFFFFFFFFFFFFFFFFFFFFFF AND DUP2 MSTORE PUSH1 0x20 ADD DUP5 PUSH16 0xFFFFFFFFFFFFFFFFFFFFFFFFFFFFFFFF AND DUP2 MSTORE PUSH1 0x20 ADD DUP4 PUSH4 0xFFFFFFFF AND DUP2 MSTORE PUSH1 0x20 ADD DUP3 PUSH4 0xFFFFFFFF AND DUP2 MSTORE PUSH1 0x20 ADD PUSH1 0x1 ISZERO ISZERO DUP2 MSTORE POP PUSH1 0x1 PUSH1 0x0 DUP1 SLOAD DUP2 MSTORE PUSH1 0x20 ADD SWAP1 DUP2 MSTORE PUSH1 0x20 ADD PUSH1 0x0 KECCAK256 PUSH1 0x0 DUP3 ADD MLOAD DUP2 PUSH1 0x0 ADD PUSH1 0x0 PUSH2 0x100 EXP DUP2 SLOAD DUP2 PUSH20 0xFFFFFFFFFFFFFFFFFFFFFFFFFFFFFFFFFFFFFFFF MUL NOT AND SWAP1 DUP4 PUSH20 0xFFFFFFFFFFFFFFFFFFFFFFFFFFFFFFFFFFFFFFFF AND MUL OR SWAP1 SSTORE POP PUSH1 0x20 DUP3 ADD MLOAD DUP2 PUSH1 0x1 ADD SWAP1 DUP2 PUSH2 0x1319 SWAP2 SWAP1 PUSH2 0x2209 JUMP JUMPDEST POP PUSH1 0x40 DUP3 ADD MLOAD DUP2 PUSH1 0x2 ADD SWAP1 DUP2 PUSH2 0x132F SWAP2 SWAP1 PUSH2 0x2209 JUMP JUMPDEST POP PUSH1 0x60 DUP3 ADD MLOAD DUP2 PUSH1 0x3 ADD PUSH1 0x0 PUSH2 0x100 EXP DUP2 SLOAD DUP2 PUSH16 0xFFFFFFFFFFFFFFFFFFFFFFFFFFFFFFFF MUL NOT AND SWAP1 DUP4 PUSH16 0xFFFFFFFFFFFFFFFFFFFFFFFFFFFFFFFF AND MUL OR SWAP1 SSTORE POP PUSH1 0x80 DUP3 ADD MLOAD DUP2 PUSH1 0x3 ADD PUSH1 0x10 PUSH2 0x100 EXP DUP2 SLOAD DUP2 PUSH16 0xFFFFFFFFFFFFFFFFFFFFFFFFFFFFFFFF MUL NOT AND SWAP1 DUP4 PUSH16 0xFFFFFFFFFFFFFFFFFFFFFFFFFFFFFFFF AND MUL OR SWAP1 SSTORE POP PUSH1 0xA0 DUP3 ADD MLOAD DUP2 PUSH1 0x4 ADD PUSH1 0x0 PUSH2 0x100 EXP DUP2 SLOAD DUP2 PUSH4 0xFFFFFFFF MUL NOT AND SWAP1 DUP4 PUSH4 0xFFFFFFFF AND MUL OR SWAP1 SSTORE POP PUSH1 0xC0 DUP3 ADD MLOAD DUP2 PUSH1 0x4 ADD PUSH1 0x4 PUSH2 0x100 EXP DUP2 SLOAD DUP2 PUSH4 0xFFFFFFFF MUL NOT AND SWAP1 DUP4 PUSH4 0xFFFFFFFF AND MUL OR SWAP1 SSTORE POP PUSH1 0xE0 DUP3 ADD MLOAD DUP2 PUSH1 0x4 ADD PUSH1 0x8 PUSH2 0x100 EXP DUP2 SLOAD DUP2 PUSH1 0xFF MUL NOT AND SWAP1 DUP4 ISZERO ISZERO MUL OR SWAP1 SSTORE POP SWAP1 POP POP PUSH1 0x2 PUSH1 0x0 CALLER PUSH20 0xFFFFFFFFFFFFFFFFFFFFFFFFFFFFFFFFFFFFFFFF AND PUSH20 0xFFFFFFFFFFFFFFFFFFFFFFFFFFFFFFFFFFFFFFFF AND DUP2 MSTORE PUSH1 0x20 ADD SWAP1 DUP2 MSTORE PUSH1 0x20 ADD PUSH1 0x0 KECCAK256 PUSH1 0x0 SLOAD SWAP1 DUP1 PUSH1 0x1 DUP2 SLOAD ADD DUP1 DUP3 SSTORE DUP1 SWAP2 POP POP PUSH1 0x1 SWAP1 SUB SWAP1 PUSH1 0x0 MSTORE PUSH1 0x20 PUSH1 0x0 KECCAK256 ADD PUSH1 0x0 SWAP1 SWAP2 SWAP1 SWAP2 SWAP1 SWAP2 POP SSTORE CALLER PUSH20 0xFFFFFFFFFFFFFFFFFFFFFFFFFFFFFFFFFFFFFFFF AND PUSH1 0x0 SLOAD PUSH32 0xB544B666BF20D30FC9ACBC75AEE55E5847E8F95A49AA5D36B6DAB734F0CBB303 DUP11 DUP11 DUP11 DUP11 DUP11 DUP11 DUP11 DUP11 TIMESTAMP PUSH1 0x40 MLOAD PUSH2 0x14E0 SWAP10 SWAP9 SWAP8 SWAP7 SWAP6 SWAP5 SWAP4 SWAP3 SWAP2 SWAP1 PUSH2 0x2317 JUMP JUMPDEST PUSH1 0x40 MLOAD DUP1 SWAP2 SUB SWAP1 LOG3 PUSH1 0x0 DUP1 DUP2 SLOAD DUP1 SWAP3 SWAP2 SWAP1 PUSH2 0x14FA SWAP1 PUSH2 0x2015 JUMP JUMPDEST SWAP2 SWAP1 POP SSTORE POP POP POP POP POP POP POP POP POP JUMP JUMPDEST DUP1 PUSH1 0x1 PUSH1 0x0 DUP5 DUP2 MSTORE PUSH1 0x20 ADD SWAP1 DUP2 MSTORE PUSH1 0x20 ADD PUSH1 0x0 KECCAK256 PUSH1 0x3 ADD PUSH1 0x0 DUP3 DUP3 DUP3 SWAP1 SLOAD SWAP1 PUSH2 0x100 EXP SWAP1 DIV PUSH16 0xFFFFFFFFFFFFFFFFFFFFFFFFFFFFFFFF AND PUSH2 0x154A SWAP2 SWAP1 PUSH2 0x2398 JUMP JUMPDEST SWAP3 POP PUSH2 0x100 EXP DUP2 SLOAD DUP2 PUSH16 0xFFFFFFFFFFFFFFFFFFFFFFFFFFFFFFFF MUL NOT AND SWAP1 DUP4 PUSH16 0xFFFFFFFFFFFFFFFFFFFFFFFFFFFFFFFF AND MUL OR SWAP1 SSTORE POP DUP2 PUSH32 0x1F3D301ECA9B893FB3AE34F526F7B346CFE3086BE67884CE1E652593C91668D6 PUSH1 0x1 PUSH1 0x0 DUP6 DUP2 MSTORE PUSH1 0x20 ADD SWAP1 DUP2 MSTORE PUSH1 0x20 ADD PUSH1 0x0 KECCAK256 PUSH1 0x3 ADD PUSH1 0x0 SWAP1 SLOAD SWAP1 PUSH2 0x100 EXP SWAP1 DIV PUSH16 0xFFFFFFFFFFFFFFFFFFFFFFFFFFFFFFFF AND PUSH1 0x40 MLOAD PUSH2 0x15E2 SWAP2 SWAP1 PUSH2 0x23DC JUMP JUMPDEST PUSH1 0x40 MLOAD DUP1 SWAP2 SUB SWAP1 LOG2 POP POP JUMP JUMPDEST PUSH1 0x40 MLOAD DUP1 PUSH2 0x100 ADD PUSH1 0x40 MSTORE DUP1 PUSH1 0x0 PUSH20 0xFFFFFFFFFFFFFFFFFFFFFFFFFFFFFFFFFFFFFFFF AND DUP2 MSTORE PUSH1 0x20 ADD PUSH1 0x60 DUP2 MSTORE PUSH1 0x20 ADD PUSH1 0x60 DUP2 MSTORE PUSH1 0x20 ADD PUSH1 0x0 PUSH16 0xFFFFFFFFFFFFFFFFFFFFFFFFFFFFFFFF AND DUP2 MSTORE PUSH1 0x20 ADD PUSH1 0x0 PUSH16 0xFFFFFFFFFFFFFFFFFFFFFFFFFFFFFFFF AND DUP2 MSTORE PUSH1 0x20 ADD PUSH1 0x0 PUSH4 0xFFFFFFFF AND DUP2 MSTORE PUSH1 0x20 ADD PUSH1 0x0 PUSH4 0xFFFFFFFF AND DUP2 MSTORE PUSH1 0x20 ADD PUSH1 0x0 ISZERO ISZERO DUP2 MSTORE POP SWAP1 JUMP JUMPDEST PUSH1 0x0 DUP1 REVERT JUMPDEST PUSH1 0x0 DUP1 REVERT JUMPDEST PUSH1 0x0 PUSH20 0xFFFFFFFFFFFFFFFFFFFFFFFFFFFFFFFFFFFFFFFF DUP3 AND SWAP1 POP SWAP2 SWAP1 POP JUMP JUMPDEST PUSH1 0x0 PUSH2 0x16B0 DUP3 PUSH2 0x1685 JUMP JUMPDEST SWAP1 POP SWAP2 SWAP1 POP JUMP JUMPDEST PUSH2 0x16C0 DUP2 PUSH2 0x16A5 JUMP JUMPDEST DUP2 EQ PUSH2 0x16CB JUMPI PUSH1 0x0 DUP1 REVERT JUMPDEST POP JUMP JUMPDEST PUSH1 0x0 DUP2 CALLDATALOAD SWAP1 POP PUSH2 0x16DD DUP2 PUSH2 0x16B7 JUMP JUMPDEST SWAP3 SWAP2 POP POP JUMP JUMPDEST PUSH1 0x0 PUSH1 0x20 DUP3 DUP5 SUB SLT ISZERO PUSH2 0x16F9 JUMPI PUSH2 0x16F8 PUSH2 0x167B JUMP JUMPDEST JUMPDEST PUSH1 0x0 PUSH2 0x1707 DUP5 DUP3 DUP6 ADD PUSH2 0x16CE JUMP JUMPDEST SWAP2 POP POP SWAP3 SWAP2 POP POP JUMP JUMPDEST PUSH1 0x0 DUP2 MLOAD SWAP1 POP SWAP2 SWAP1 POP JUMP JUMPDEST PUSH1 0x0 DUP3 DUP3 MSTORE PUSH1 0x20 DUP3 ADD SWAP1 POP SWAP3 SWAP2 POP POP JUMP JUMPDEST PUSH1 0x0 DUP2 SWAP1 POP PUSH1 0x20 DUP3 ADD SWAP1 POP SWAP2 SWAP1 POP JUMP JUMPDEST PUSH1 0x0 DUP2 SWAP1 POP SWAP2 SWAP1 POP JUMP JUMPDEST PUSH2 0x174F DUP2 PUSH2 0x173C JUMP JUMPDEST DUP3 MSTORE POP POP JUMP JUMPDEST PUSH1 0x0 PUSH2 0x1761 DUP4 DUP4 PUSH2 0x1746 JUMP JUMPDEST PUSH1 0x20 DUP4 ADD SWAP1 POP SWAP3 SWAP2 POP POP JUMP JUMPDEST PUSH1 0x0 PUSH1 0x20 DUP3 ADD SWAP1 POP SWAP2 SWAP1 POP JUMP JUMPDEST PUSH1 0x0 PUSH2 0x1785 DUP3 PUSH2 0x1710 JUMP JUMPDEST PUSH2 0x178F DUP2 DUP6 PUSH2 0x171B JUMP JUMPDEST SWAP4 POP PUSH2 0x179A DUP4 PUSH2 0x172C JUMP JUMPDEST DUP1 PUSH1 0x0 JUMPDEST DUP4 DUP2 LT ISZERO PUSH2 0x17CB JUMPI DUP2 MLOAD PUSH2 0x17B2 DUP9 DUP3 PUSH2 0x1755 JUMP JUMPDEST SWAP8 POP PUSH2 0x17BD DUP4 PUSH2 0x176D JUMP JUMPDEST SWAP3 POP POP PUSH1 0x1 DUP2 ADD SWAP1 POP PUSH2 0x179E JUMP JUMPDEST POP DUP6 SWAP4 POP POP POP POP SWAP3 SWAP2 POP POP JUMP JUMPDEST PUSH1 0x0 PUSH1 0x20 DUP3 ADD SWAP1 POP DUP2 DUP2 SUB PUSH1 0x0 DUP4 ADD MSTORE PUSH2 0x17F2 DUP2 DUP5 PUSH2 0x177A JUMP JUMPDEST SWAP1 POP SWAP3 SWAP2 POP POP JUMP JUMPDEST PUSH1 0x0 DUP2 MLOAD SWAP1 POP SWAP2 SWAP1 POP JUMP JUMPDEST PUSH1 0x0 DUP3 DUP3 MSTORE PUSH1 0x20 DUP3 ADD SWAP1 POP SWAP3 SWAP2 POP POP JUMP JUMPDEST PUSH1 0x0 DUP2 SWAP1 POP PUSH1 0x20 DUP3 ADD SWAP1 POP SWAP2 SWAP1 POP JUMP JUMPDEST PUSH2 0x182F DUP2 PUSH2 0x16A5 JUMP JUMPDEST DUP3 MSTORE POP POP JUMP JUMPDEST PUSH1 0x0 DUP2 MLOAD SWAP1 POP SWAP2 SWAP1 POP JUMP JUMPDEST PUSH1 0x0 DUP3 DUP3 MSTORE PUSH1 0x20 DUP3 ADD SWAP1 POP SWAP3 SWAP2 POP POP JUMP JUMPDEST PUSH1 0x0 JUMPDEST DUP4 DUP2 LT ISZERO PUSH2 0x186F JUMPI DUP1 DUP3 ADD MLOAD DUP2 DUP5 ADD MSTORE PUSH1 0x20 DUP2 ADD SWAP1 POP PUSH2 0x1854 JUMP JUMPDEST PUSH1 0x0 DUP5 DUP5 ADD MSTORE POP POP POP POP JUMP JUMPDEST PUSH1 0x0 PUSH1 0x1F NOT PUSH1 0x1F DUP4 ADD AND SWAP1 POP SWAP2 SWAP1 POP JUMP JUMPDEST PUSH1 0x0 PUSH2 0x1897 DUP3 PUSH2 0x1835 JUMP JUMPDEST PUSH2 0x18A1 DUP2 DUP6 PUSH2 0x1840 JUMP JUMPDEST SWAP4 POP PUSH2 0x18B1 DUP2 DUP6 PUSH1 0x20 DUP7 ADD PUSH2 0x1851 JUMP JUMPDEST PUSH2 0x18BA DUP2 PUSH2 0x187B JUMP JUMPDEST DUP5 ADD SWAP2 POP POP SWAP3 SWAP2 POP POP JUMP JUMPDEST PUSH1 0x0 PUSH16 0xFFFFFFFFFFFFFFFFFFFFFFFFFFFFFFFF DUP3 AND SWAP1 POP SWAP2 SWAP1 POP JUMP JUMPDEST PUSH2 0x18EA DUP2 PUSH2 0x18C5 JUMP JUMPDEST DUP3 MSTORE POP POP JUMP JUMPDEST PUSH1 0x0 PUSH4 0xFFFFFFFF DUP3 AND SWAP1 POP SWAP2 SWAP1 POP JUMP JUMPDEST PUSH2 0x1909 DUP2 PUSH2 0x18F0 JUMP JUMPDEST DUP3 MSTORE POP POP JUMP JUMPDEST PUSH1 0x0 DUP2 ISZERO ISZERO SWAP1 POP SWAP2 SWAP1 POP JUMP JUMPDEST PUSH2 0x1924 DUP2 PUSH2 0x190F JUMP JUMPDEST DUP3 MSTORE POP POP JUMP JUMPDEST PUSH1 0x0 PUSH2 0x100 DUP4 ADD PUSH1 0x0 DUP4 ADD MLOAD PUSH2 0x1943 PUSH1 0x0 DUP7 ADD DUP3 PUSH2 0x1826 JUMP JUMPDEST POP PUSH1 0x20 DUP4 ADD MLOAD DUP5 DUP3 SUB PUSH1 0x20 DUP7 ADD MSTORE PUSH2 0x195B DUP3 DUP3 PUSH2 0x188C JUMP JUMPDEST SWAP2 POP POP PUSH1 0x40 DUP4 ADD MLOAD DUP5 DUP3 SUB PUSH1 0x40 DUP7 ADD MSTORE PUSH2 0x1975 DUP3 DUP3 PUSH2 0x188C JUMP JUMPDEST SWAP2 POP POP PUSH1 0x60 DUP4 ADD MLOAD PUSH2 0x198A PUSH1 0x60 DUP7 ADD DUP3 PUSH2 0x18E1 JUMP JUMPDEST POP PUSH1 0x80 DUP4 ADD MLOAD PUSH2 0x199D PUSH1 0x80 DUP7 ADD DUP3 PUSH2 0x18E1 JUMP JUMPDEST POP PUSH1 0xA0 DUP4 ADD MLOAD PUSH2 0x19B0 PUSH1 0xA0 DUP7 ADD DUP3 PUSH2 0x1900 JUMP JUMPDEST POP PUSH1 0xC0 DUP4 ADD MLOAD PUSH2 0x19C3 PUSH1 0xC0 DUP7 ADD DUP3 PUSH2 0x1900 JUMP JUMPDEST POP PUSH1 0xE0 DUP4 ADD MLOAD PUSH2 0x19D6 PUSH1 0xE0 DUP7 ADD DUP3 PUSH2 0x191B JUMP JUMPDEST POP DUP1 SWAP2 POP POP SWAP3 SWAP2 POP POP JUMP JUMPDEST PUSH1 0x0 PUSH2 0x19ED DUP4 DUP4 PUSH2 0x192A JUMP JUMPDEST SWAP1 POP SWAP3 SWAP2 POP POP JUMP JUMPDEST PUSH1 0x0 PUSH1 0x20 DUP3 ADD SWAP1 POP SWAP2 SWAP1 POP JUMP JUMPDEST PUSH1 0x0 PUSH2 0x1A0D DUP3 PUSH2 0x17FA JUMP JUMPDEST PUSH2 0x1A17 DUP2 DUP6 PUSH2 0x1805 JUMP JUMPDEST SWAP4 POP DUP4 PUSH1 0x20 DUP3 MUL DUP6 ADD PUSH2 0x1A29 DUP6 PUSH2 0x1816 JUMP JUMPDEST DUP1 PUSH1 0x0 JUMPDEST DUP6 DUP2 LT ISZERO PUSH2 0x1A65 JUMPI DUP5 DUP5 SUB DUP10 MSTORE DUP2 MLOAD PUSH2 0x1A46 DUP6 DUP3 PUSH2 0x19E1 JUMP JUMPDEST SWAP5 POP PUSH2 0x1A51 DUP4 PUSH2 0x19F5 JUMP JUMPDEST SWAP3 POP PUSH1 0x20 DUP11 ADD SWAP10 POP POP PUSH1 0x1 DUP2 ADD SWAP1 POP PUSH2 0x1A2D JUMP JUMPDEST POP DUP3 SWAP8 POP DUP8 SWAP6 POP POP POP POP POP POP SWAP3 SWAP2 POP POP JUMP JUMPDEST PUSH1 0x0 PUSH1 0x40 DUP3 ADD SWAP1 POP DUP2 DUP2 SUB PUSH1 0x0 DUP4 ADD MSTORE PUSH2 0x1A91 DUP2 DUP6 PUSH2 0x1A02 JUMP JUMPDEST SWAP1 POP DUP2 DUP2 SUB PUSH1 0x20 DUP4 ADD MSTORE PUSH2 0x1AA5 DUP2 DUP5 PUSH2 0x177A JUMP JUMPDEST SWAP1 POP SWAP4 SWAP3 POP POP POP JUMP JUMPDEST PUSH2 0x1AB7 DUP2 PUSH2 0x173C JUMP JUMPDEST DUP2 EQ PUSH2 0x1AC2 JUMPI PUSH1 0x0 DUP1 REVERT JUMPDEST POP JUMP JUMPDEST PUSH1 0x0 DUP2 CALLDATALOAD SWAP1 POP PUSH2 0x1AD4 DUP2 PUSH2 0x1AAE JUMP JUMPDEST SWAP3 SWAP2 POP POP JUMP JUMPDEST PUSH1 0x0 DUP1 PUSH1 0x40 DUP4 DUP6 SUB SLT ISZERO PUSH2 0x1AF1 JUMPI PUSH2 0x1AF0 PUSH2 0x167B JUMP JUMPDEST JUMPDEST PUSH1 0x0 PUSH2 0x1AFF DUP6 DUP3 DUP7 ADD PUSH2 0x16CE JUMP JUMPDEST SWAP3 POP POP PUSH1 0x20 PUSH2 0x1B10 DUP6 DUP3 DUP7 ADD PUSH2 0x1AC5 JUMP JUMPDEST SWAP2 POP POP SWAP3 POP SWAP3 SWAP1 POP JUMP JUMPDEST PUSH2 0x1B23 DUP2 PUSH2 0x173C JUMP JUMPDEST DUP3 MSTORE POP POP JUMP JUMPDEST PUSH1 0x0 PUSH1 0x20 DUP3 ADD SWAP1 POP PUSH2 0x1B3E PUSH1 0x0 DUP4 ADD DUP5 PUSH2 0x1B1A JUMP JUMPDEST SWAP3 SWAP2 POP POP JUMP JUMPDEST PUSH1 0x0 PUSH1 0x20 DUP3 DUP5 SUB SLT ISZERO PUSH2 0x1B5A JUMPI PUSH2 0x1B59 PUSH2 0x167B JUMP JUMPDEST JUMPDEST PUSH1 0x0 PUSH2 0x1B68 DUP5 DUP3 DUP6 ADD PUSH2 0x1AC5 JUMP JUMPDEST SWAP2 POP POP SWAP3 SWAP2 POP POP JUMP JUMPDEST PUSH2 0x1B7A DUP2 PUSH2 0x16A5 JUMP JUMPDEST DUP3 MSTORE POP POP JUMP JUMPDEST PUSH1 0x0 DUP3 DUP3 MSTORE PUSH1 0x20 DUP3 ADD SWAP1 POP SWAP3 SWAP2 POP POP JUMP JUMPDEST PUSH1 0x0 PUSH2 0x1B9C DUP3 PUSH2 0x1835 JUMP JUMPDEST PUSH2 0x1BA6 DUP2 DUP6 PUSH2 0x1B80 JUMP JUMPDEST SWAP4 POP PUSH2 0x1BB6 DUP2 DUP6 PUSH1 0x20 DUP7 ADD PUSH2 0x1851 JUMP JUMPDEST PUSH2 0x1BBF DUP2 PUSH2 0x187B JUMP JUMPDEST DUP5 ADD SWAP2 POP POP SWAP3 SWAP2 POP POP JUMP JUMPDEST PUSH2 0x1BD3 DUP2 PUSH2 0x18C5 JUMP JUMPDEST DUP3 MSTORE POP POP JUMP JUMPDEST PUSH2 0x1BE2 DUP2 PUSH2 0x18F0 JUMP JUMPDEST DUP3 MSTORE POP POP JUMP JUMPDEST PUSH2 0x1BF1 DUP2 PUSH2 0x190F JUMP JUMPDEST DUP3 MSTORE POP POP JUMP JUMPDEST PUSH1 0x0 PUSH2 0x100 DUP3 ADD SWAP1 POP PUSH2 0x1C0D PUSH1 0x0 DUP4 ADD DUP12 PUSH2 0x1B71 JUMP JUMPDEST DUP2 DUP2 SUB PUSH1 0x20 DUP4 ADD MSTORE PUSH2 0x1C1F DUP2 DUP11 PUSH2 0x1B91 JUMP JUMPDEST SWAP1 POP DUP2 DUP2 SUB PUSH1 0x40 DUP4 ADD MSTORE PUSH2 0x1C33 DUP2 DUP10 PUSH2 0x1B91 JUMP JUMPDEST SWAP1 POP PUSH2 0x1C42 PUSH1 0x60 DUP4 ADD DUP9 PUSH2 0x1BCA JUMP JUMPDEST PUSH2 0x1C4F PUSH1 0x80 DUP4 ADD DUP8 PUSH2 0x1BCA JUMP JUMPDEST PUSH2 0x1C5C PUSH1 0xA0 DUP4 ADD DUP7 PUSH2 0x1BD9 JUMP JUMPDEST PUSH2 0x1C69 PUSH1 0xC0 DUP4 ADD DUP6 PUSH2 0x1BD9 JUMP JUMPDEST PUSH2 0x1C76 PUSH1 0xE0 DUP4 ADD DUP5 PUSH2 0x1BE8 JUMP JUMPDEST SWAP10 SWAP9 POP POP POP POP POP POP POP POP POP JUMP JUMPDEST PUSH1 0x0 PUSH2 0x100 DUP4 ADD PUSH1 0x0 DUP4 ADD MLOAD PUSH2 0x1C9C PUSH1 0x0 DUP7 ADD DUP3 PUSH2 0x1826 JUMP JUMPDEST POP PUSH1 0x20 DUP4 ADD MLOAD DUP5 DUP3 SUB PUSH1 0x20 DUP7 ADD MSTORE PUSH2 0x1CB4 DUP3 DUP3 PUSH2 0x188C JUMP JUMPDEST SWAP2 POP POP PUSH1 0x40 DUP4 ADD MLOAD DUP5 DUP3 SUB PUSH1 0x40 DUP7 ADD MSTORE PUSH2 0x1CCE DUP3 DUP3 PUSH2 0x188C JUMP JUMPDEST SWAP2 POP POP PUSH1 0x60 DUP4 ADD MLOAD PUSH2 0x1CE3 PUSH1 0x60 DUP7 ADD DUP3 PUSH2 0x18E1 JUMP JUMPDEST POP PUSH1 0x80 DUP4 ADD MLOAD PUSH2 0x1CF6 PUSH1 0x80 DUP7 ADD DUP3 PUSH2 0x18E1 JUMP JUMPDEST POP PUSH1 0xA0 DUP4 ADD MLOAD PUSH2 0x1D09 PUSH1 0xA0 DUP7 ADD DUP3 PUSH2 0x1900 JUMP JUMPDEST POP PUSH1 0xC0 DUP4 ADD MLOAD PUSH2 0x1D1C PUSH1 0xC0 DUP7 ADD DUP3 PUSH2 0x1900 JUMP JUMPDEST POP PUSH1 0xE0 DUP4 ADD MLOAD PUSH2 0x1D2F PUSH1 0xE0 DUP7 ADD DUP3 PUSH2 0x191B JUMP JUMPDEST POP DUP1 SWAP2 POP POP SWAP3 SWAP2 POP POP JUMP JUMPDEST PUSH1 0x0 PUSH1 0x20 DUP3 ADD SWAP1 POP DUP2 DUP2 SUB PUSH1 0x0 DUP4 ADD MSTORE PUSH2 0x1D54 DUP2 DUP5 PUSH2 0x1C83 JUMP JUMPDEST SWAP1 POP SWAP3 SWAP2 POP POP JUMP JUMPDEST PUSH1 0x0 DUP1 REVERT JUMPDEST PUSH1 0x0 DUP1 REVERT JUMPDEST PUSH1 0x0 DUP1 REVERT JUMPDEST PUSH1 0x0 DUP1 DUP4 PUSH1 0x1F DUP5 ADD SLT PUSH2 0x1D81 JUMPI PUSH2 0x1D80 PUSH2 0x1D5C JUMP JUMPDEST JUMPDEST DUP3 CALLDATALOAD SWAP1 POP PUSH8 0xFFFFFFFFFFFFFFFF DUP2 GT ISZERO PUSH2 0x1D9E JUMPI PUSH2 0x1D9D PUSH2 0x1D61 JUMP JUMPDEST JUMPDEST PUSH1 0x20 DUP4 ADD SWAP2 POP DUP4 PUSH1 0x1 DUP3 MUL DUP4 ADD GT ISZERO PUSH2 0x1DBA JUMPI PUSH2 0x1DB9 PUSH2 0x1D66 JUMP JUMPDEST JUMPDEST SWAP3 POP SWAP3 SWAP1 POP JUMP JUMPDEST PUSH2 0x1DCA DUP2 PUSH2 0x18C5 JUMP JUMPDEST DUP2 EQ PUSH2 0x1DD5 JUMPI PUSH1 0x0 DUP1 REVERT JUMPDEST POP JUMP JUMPDEST PUSH1 0x0 DUP2 CALLDATALOAD SWAP1 POP PUSH2 0x1DE7 DUP2 PUSH2 0x1DC1 JUMP JUMPDEST SWAP3 SWAP2 POP POP JUMP JUMPDEST PUSH2 0x1DF6 DUP2 PUSH2 0x18F0 JUMP JUMPDEST DUP2 EQ PUSH2 0x1E01 JUMPI PUSH1 0x0 DUP1 REVERT JUMPDEST POP JUMP JUMPDEST PUSH1 0x0 DUP2 CALLDATALOAD SWAP1 POP PUSH2 0x1E13 DUP2 PUSH2 0x1DED JUMP JUMPDEST SWAP3 SWAP2 POP POP JUMP JUMPDEST PUSH1 0x0 DUP1 PUSH1 0x0 DUP1 PUSH1 0x0 DUP1 PUSH1 0x0 DUP1 PUSH1 0xC0 DUP10 DUP12 SUB SLT ISZERO PUSH2 0x1E39 JUMPI PUSH2 0x1E38 PUSH2 0x167B JUMP JUMPDEST JUMPDEST PUSH1 0x0 DUP10 ADD CALLDATALOAD PUSH8 0xFFFFFFFFFFFFFFFF DUP2 GT ISZERO PUSH2 0x1E57 JUMPI PUSH2 0x1E56 PUSH2 0x1680 JUMP JUMPDEST JUMPDEST PUSH2 0x1E63 DUP12 DUP3 DUP13 ADD PUSH2 0x1D6B JUMP JUMPDEST SWAP9 POP SWAP9 POP POP PUSH1 0x20 DUP10 ADD CALLDATALOAD PUSH8 0xFFFFFFFFFFFFFFFF DUP2 GT ISZERO PUSH2 0x1E86 JUMPI PUSH2 0x1E85 PUSH2 0x1680 JUMP JUMPDEST JUMPDEST PUSH2 0x1E92 DUP12 DUP3 DUP13 ADD PUSH2 0x1D6B JUMP JUMPDEST SWAP7 POP SWAP7 POP POP PUSH1 0x40 PUSH2 0x1EA5 DUP12 DUP3 DUP13 ADD PUSH2 0x1DD8 JUMP JUMPDEST SWAP5 POP POP PUSH1 0x60 PUSH2 0x1EB6 DUP12 DUP3 DUP13 ADD PUSH2 0x1DD8 JUMP JUMPDEST SWAP4 POP POP PUSH1 0x80 PUSH2 0x1EC7 DUP12 DUP3 DUP13 ADD PUSH2 0x1E04 JUMP JUMPDEST SWAP3 POP POP PUSH1 0xA0 PUSH2 0x1ED8 DUP12 DUP3 DUP13 ADD PUSH2 0x1E04 JUMP JUMPDEST SWAP2 POP POP SWAP3 SWAP6 SWAP9 POP SWAP3 SWAP6 SWAP9 SWAP1 SWAP4 SWAP7 POP JUMP JUMPDEST PUSH1 0x0 DUP1 PUSH1 0x40 DUP4 DUP6 SUB SLT ISZERO PUSH2 0x1EFF JUMPI PUSH2 0x1EFE PUSH2 0x167B JUMP JUMPDEST JUMPDEST PUSH1 0x0 PUSH2 0x1F0D DUP6 DUP3 DUP7 ADD PUSH2 0x1AC5 JUMP JUMPDEST SWAP3 POP POP PUSH1 0x20 PUSH2 0x1F1E DUP6 DUP3 DUP7 ADD PUSH2 0x1DD8 JUMP JUMPDEST SWAP2 POP POP SWAP3 POP SWAP3 SWAP1 POP JUMP JUMPDEST PUSH32 0x4E487B7100000000000000000000000000000000000000000000000000000000 PUSH1 0x0 MSTORE PUSH1 0x41 PUSH1 0x4 MSTORE PUSH1 0x24 PUSH1 0x0 REVERT JUMPDEST PUSH32 0x4E487B7100000000000000000000000000000000000000000000000000000000 PUSH1 0x0 MSTORE PUSH1 0x32 PUSH1 0x4 MSTORE PUSH1 0x24 PUSH1 0x0 REVERT JUMPDEST PUSH32 0x4E487B7100000000000000000000000000000000000000000000000000000000 PUSH1 0x0 MSTORE PUSH1 0x22 PUSH1 0x4 MSTORE PUSH1 0x24 PUSH1 0x0 REVERT JUMPDEST PUSH1 0x0 PUSH1 0x2 DUP3 DIV SWAP1 POP PUSH1 0x1 DUP3 AND DUP1 PUSH2 0x1FCD JUMPI PUSH1 0x7F DUP3 AND SWAP2 POP JUMPDEST PUSH1 0x20 DUP3 LT DUP2 SUB PUSH2 0x1FE0 JUMPI PUSH2 0x1FDF PUSH2 0x1F86 JUMP JUMPDEST JUMPDEST POP SWAP2 SWAP1 POP JUMP JUMPDEST PUSH32 0x4E487B7100000000000000000000000000000000000000000000000000000000 PUSH1 0x0 MSTORE PUSH1 0x11 PUSH1 0x4 MSTORE PUSH1 0x24 PUSH1 0x0 REVERT JUMPDEST PUSH1 0x0 PUSH2 0x2020 DUP3 PUSH2 0x173C JUMP JUMPDEST SWAP2 POP PUSH32 0xFFFFFFFFFFFFFFFFFFFFFFFFFFFFFFFFFFFFFFFFFFFFFFFFFFFFFFFFFFFFFFFF DUP3 SUB PUSH2 0x2052 JUMPI PUSH2 0x2051 PUSH2 0x1FE6 JUMP JUMPDEST JUMPDEST PUSH1 0x1 DUP3 ADD SWAP1 POP SWAP2 SWAP1 POP JUMP JUMPDEST PUSH1 0x0 DUP2 SWAP1 POP DUP2 PUSH1 0x0 MSTORE PUSH1 0x20 PUSH1 0x0 KECCAK256 SWAP1 POP SWAP2 SWAP1 POP JUMP JUMPDEST PUSH1 0x0 PUSH1 0x20 PUSH1 0x1F DUP4 ADD DIV SWAP1 POP SWAP2 SWAP1 POP JUMP JUMPDEST PUSH1 0x0 DUP3 DUP3 SHL SWAP1 POP SWAP3 SWAP2 POP POP JUMP JUMPDEST PUSH1 0x0 PUSH1 0x8 DUP4 MUL PUSH2 0x20BF PUSH32 0xFFFFFFFFFFFFFFFFFFFFFFFFFFFFFFFFFFFFFFFFFFFFFFFFFFFFFFFFFFFFFFFF DUP3 PUSH2 0x2082 JUMP JUMPDEST PUSH2 0x20C9 DUP7 DUP4 PUSH2 0x2082 JUMP JUMPDEST SWAP6 POP DUP1 NOT DUP5 AND SWAP4 POP DUP1 DUP7 AND DUP5 OR SWAP3 POP POP POP SWAP4 SWAP3 POP POP POP JUMP JUMPDEST PUSH1 0x0 DUP2 SWAP1 POP SWAP2 SWAP1 POP JUMP JUMPDEST PUSH1 0x0 PUSH2 0x2106 PUSH2 0x2101 PUSH2 0x20FC DUP5 PUSH2 0x173C JUMP JUMPDEST PUSH2 0x20E1 JUMP JUMPDEST PUSH2 0x173C JUMP JUMPDEST SWAP1 POP SWAP2 SWAP1 POP JUMP JUMPDEST PUSH1 0x0 DUP2 SWAP1 POP SWAP2 SWAP1 POP JUMP JUMPDEST PUSH2 0x2120 DUP4 PUSH2 0x20EB JUMP JUMPDEST PUSH2 0x2134 PUSH2 0x212C DUP3 PUSH2 0x210D JUMP JUMPDEST DUP5 DUP5 SLOAD PUSH2 0x208F JUMP JUMPDEST DUP3 SSTORE POP POP POP POP JUMP JUMPDEST PUSH1 0x0 SWAP1 JUMP JUMPDEST PUSH2 0x2149 PUSH2 0x213C JUMP JUMPDEST PUSH2 0x2154 DUP2 DUP5 DUP5 PUSH2 0x2117 JUMP JUMPDEST POP POP POP JUMP JUMPDEST JUMPDEST DUP2 DUP2 LT ISZERO PUSH2 0x2178 JUMPI PUSH2 0x216D PUSH1 0x0 DUP3 PUSH2 0x2141 JUMP JUMPDEST PUSH1 0x1 DUP2 ADD SWAP1 POP PUSH2 0x215A JUMP JUMPDEST POP POP JUMP JUMPDEST PUSH1 0x1F DUP3 GT ISZERO PUSH2 0x21BD JUMPI PUSH2 0x218E DUP2 PUSH2 0x205D JUMP JUMPDEST PUSH2 0x2197 DUP5 PUSH2 0x2072 JUMP JUMPDEST DUP2 ADD PUSH1 0x20 DUP6 LT ISZERO PUSH2 0x21A6 JUMPI DUP2 SWAP1 POP JUMPDEST PUSH2 0x21BA PUSH2 0x21B2 DUP6 PUSH2 0x2072 JUMP JUMPDEST DUP4 ADD DUP3 PUSH2 0x2159 JUMP JUMPDEST POP POP JUMPDEST POP POP POP JUMP JUMPDEST PUSH1 0x0 DUP3 DUP3 SHR SWAP1 POP SWAP3 SWAP2 POP POP JUMP JUMPDEST PUSH1 0x0 PUSH2 0x21E0 PUSH1 0x0 NOT DUP5 PUSH1 0x8 MUL PUSH2 0x21C2 JUMP JUMPDEST NOT DUP1 DUP4 AND SWAP2 POP POP SWAP3 SWAP2 POP POP JUMP JUMPDEST PUSH1 0x0 PUSH2 0x21F9 DUP4 DUP4 PUSH2 0x21CF JUMP JUMPDEST SWAP2 POP DUP3 PUSH1 0x2 MUL DUP3 OR SWAP1 POP SWAP3 SWAP2 POP POP JUMP JUMPDEST PUSH2 0x2212 DUP3 PUSH2 0x1835 JUMP JUMPDEST PUSH8 0xFFFFFFFFFFFFFFFF DUP2 GT ISZERO PUSH2 0x222B JUMPI PUSH2 0x222A PUSH2 0x1F28 JUMP JUMPDEST JUMPDEST PUSH2 0x2235 DUP3 SLOAD PUSH2 0x1FB5 JUMP JUMPDEST PUSH2 0x2240 DUP3 DUP3 DUP6 PUSH2 0x217C JUMP JUMPDEST PUSH1 0x0 PUSH1 0x20 SWAP1 POP PUSH1 0x1F DUP4 GT PUSH1 0x1 DUP2 EQ PUSH2 0x2273 JUMPI PUSH1 0x0 DUP5 ISZERO PUSH2 0x2261 JUMPI DUP3 DUP8 ADD MLOAD SWAP1 POP JUMPDEST PUSH2 0x226B DUP6 DUP3 PUSH2 0x21ED JUMP JUMPDEST DUP7 SSTORE POP PUSH2 0x22D3 JUMP JUMPDEST PUSH1 0x1F NOT DUP5 AND PUSH2 0x2281 DUP7 PUSH2 0x205D JUMP JUMPDEST PUSH1 0x0 JUMPDEST DUP3 DUP2 LT ISZERO PUSH2 0x22A9 JUMPI DUP5 DUP10 ADD MLOAD DUP3 SSTORE PUSH1 0x1 DUP3 ADD SWAP2 POP PUSH1 0x20 DUP6 ADD SWAP5 POP PUSH1 0x20 DUP2 ADD SWAP1 POP PUSH2 0x2284 JUMP JUMPDEST DUP7 DUP4 LT ISZERO PUSH2 0x22C6 JUMPI DUP5 DUP10 ADD MLOAD PUSH2 0x22C2 PUSH1 0x1F DUP10 AND DUP3 PUSH2 0x21CF JUMP JUMPDEST DUP4 SSTORE POP JUMPDEST PUSH1 0x1 PUSH1 0x2 DUP9 MUL ADD DUP9 SSTORE POP POP POP JUMPDEST POP POP POP POP POP POP JUMP JUMPDEST DUP3 DUP2 DUP4 CALLDATACOPY PUSH1 0x0 DUP4 DUP4 ADD MSTORE POP POP POP JUMP JUMPDEST PUSH1 0x0 PUSH2 0x22F6 DUP4 DUP6 PUSH2 0x1B80 JUMP JUMPDEST SWAP4 POP PUSH2 0x2303 DUP4 DUP6 DUP5 PUSH2 0x22DB JUMP JUMPDEST PUSH2 0x230C DUP4 PUSH2 0x187B JUMP JUMPDEST DUP5 ADD SWAP1 POP SWAP4 SWAP3 POP POP POP JUMP JUMPDEST PUSH1 0x0 PUSH1 0xE0 DUP3 ADD SWAP1 POP DUP2 DUP2 SUB PUSH1 0x0 DUP4 ADD MSTORE PUSH2 0x2332 DUP2 DUP12 DUP14 PUSH2 0x22EA JUMP JUMPDEST SWAP1 POP DUP2 DUP2 SUB PUSH1 0x20 DUP4 ADD MSTORE PUSH2 0x2347 DUP2 DUP10 DUP12 PUSH2 0x22EA JUMP JUMPDEST SWAP1 POP PUSH2 0x2356 PUSH1 0x40 DUP4 ADD DUP9 PUSH2 0x1BCA JUMP JUMPDEST PUSH2 0x2363 PUSH1 0x60 DUP4 ADD DUP8 PUSH2 0x1BCA JUMP JUMPDEST PUSH2 0x2370 PUSH1 0x80 DUP4 ADD DUP7 PUSH2 0x1BD9 JUMP JUMPDEST PUSH2 0x237D PUSH1 0xA0 DUP4 ADD DUP6 PUSH2 0x1BD9 JUMP JUMPDEST PUSH2 0x238A PUSH1 0xC0 DUP4 ADD DUP5 PUSH2 0x1B1A JUMP JUMPDEST SWAP11 SWAP10 POP POP POP POP POP POP POP POP POP POP JUMP JUMPDEST PUSH1 0x0 PUSH2 0x23A3 DUP3 PUSH2 0x18C5 JUMP JUMPDEST SWAP2 POP PUSH2 0x23AE DUP4 PUSH2 0x18C5 JUMP JUMPDEST SWAP3 POP DUP3 DUP3 SUB SWAP1 POP PUSH16 0xFFFFFFFFFFFFFFFFFFFFFFFFFFFFFFFF DUP2 GT ISZERO PUSH2 0x23D6 JUMPI PUSH2 0x23D5 PUSH2 0x1FE6 JUMP JUMPDEST JUMPDEST SWAP3 SWAP2 POP POP JUMP JUMPDEST PUSH1 0x0 PUSH1 0x20 DUP3 ADD SWAP1 POP PUSH2 0x23F1 PUSH1 0x0 DUP4 ADD DUP5 PUSH2 0x1BCA JUMP JUMPDEST SWAP3 SWAP2 POP POP JUMP INVALID LOG2 PUSH5 0x6970667358 0x22 SLT KECCAK256 0xAC 0xB6 0x5C 0x2F 0x27 LOG1 0xD1 SWAP5 JUMPDEST SWAP11 PUSH22 0xD4C0A4A873EF11E28B3FACA6A6FE54D3FF35F3F30464 PUSH20 0x6F6C634300081300330000000000000000000000 "
				},
				"gasEstimates": {
					"creation": {
						"codeDepositCost": "1852200",
						"executionCost": "24061",
						"totalCost": "1876261"
					},
					"external": {
						"addSupplierProduct(bytes,bytes,uint128,uint128,uint32,uint32)": "infinite",
						"deleteSupplierProduct(uint256)": "26051",
						"getAllActiveProductsOfSupplier(address)": "infinite",
						"getAllProductsOfSupplier(address)": "infinite",
						"getSingleSupplierProduct(uint256)": "infinite",
						"getSpIdsByAddress(address)": "infinite",
						"getSupplierProductIds()": "infinite",
						"supplierAddressToproductsIdMapping(address,uint256)": "infinite",
						"supplierProductsIdToStructMapping(uint256)": "infinite",
						"updateSupplierProductUints(uint256,uint128)": "infinite"
					}
				},
				"methodIdentifiers": {
					"addSupplierProduct(bytes,bytes,uint128,uint128,uint32,uint32)": "ee7e7c99",
					"deleteSupplierProduct(uint256)": "79ae0257",
					"getAllActiveProductsOfSupplier(address)": "2777259b",
					"getAllProductsOfSupplier(address)": "83f95853",
					"getSingleSupplierProduct(uint256)": "c22ef68e",
					"getSpIdsByAddress(address)": "11517205",
					"getSupplierProductIds()": "e10f28c7",
					"supplierAddressToproductsIdMapping(address,uint256)": "42af31d7",
					"supplierProductsIdToStructMapping(uint256)": "6c87b826",
					"updateSupplierProductUints(uint256,uint128)": "f8bafa70"
				}
			},
			"storageLayout": {
				"storage": [
					{
						"astId": 86,
						"contract": "contracts/supplierProduct.sol:supplierProduct",
						"label": "spId",
						"offset": 0,
						"slot": "0",
						"type": "t_uint256"
					},
					{
						"astId": 92,
						"contract": "contracts/supplierProduct.sol:supplierProduct",
						"label": "supplierProductsIdToStructMapping",
						"offset": 0,
						"slot": "1",
						"type": "t_mapping(t_uint256,t_struct(supplierProduct)18_storage)"
					},
					{
						"astId": 98,
						"contract": "contracts/supplierProduct.sol:supplierProduct",
						"label": "supplierAddressToproductsIdMapping",
						"offset": 0,
						"slot": "2",
						"type": "t_mapping(t_address,t_array(t_uint256)dyn_storage)"
					}
				],
				"types": {
					"t_address": {
						"encoding": "inplace",
						"label": "address",
						"numberOfBytes": "20"
					},
					"t_array(t_uint256)dyn_storage": {
						"base": "t_uint256",
						"encoding": "dynamic_array",
						"label": "uint256[]",
						"numberOfBytes": "32"
					},
					"t_bool": {
						"encoding": "inplace",
						"label": "bool",
						"numberOfBytes": "1"
					},
					"t_bytes_storage": {
						"encoding": "bytes",
						"label": "bytes",
						"numberOfBytes": "32"
					},
					"t_mapping(t_address,t_array(t_uint256)dyn_storage)": {
						"encoding": "mapping",
						"key": "t_address",
						"label": "mapping(address => uint256[])",
						"numberOfBytes": "32",
						"value": "t_array(t_uint256)dyn_storage"
					},
					"t_mapping(t_uint256,t_struct(supplierProduct)18_storage)": {
						"encoding": "mapping",
						"key": "t_uint256",
						"label": "mapping(uint256 => struct ISupplierProduct.supplierProduct)",
						"numberOfBytes": "32",
						"value": "t_struct(supplierProduct)18_storage"
					},
					"t_struct(supplierProduct)18_storage": {
						"encoding": "inplace",
						"label": "struct ISupplierProduct.supplierProduct",
						"members": [
							{
								"astId": 3,
								"contract": "contracts/supplierProduct.sol:supplierProduct",
								"label": "supplierAddress",
								"offset": 0,
								"slot": "0",
								"type": "t_address"
							},
							{
								"astId": 5,
								"contract": "contracts/supplierProduct.sol:supplierProduct",
								"label": "sp_name",
								"offset": 0,
								"slot": "1",
								"type": "t_bytes_storage"
							},
							{
								"astId": 7,
								"contract": "contracts/supplierProduct.sol:supplierProduct",
								"label": "sp_description",
								"offset": 0,
								"slot": "2",
								"type": "t_bytes_storage"
							},
							{
								"astId": 9,
								"contract": "contracts/supplierProduct.sol:supplierProduct",
								"label": "sp_unit",
								"offset": 0,
								"slot": "3",
								"type": "t_uint128"
							},
							{
								"astId": 11,
								"contract": "contracts/supplierProduct.sol:supplierProduct",
								"label": "sp_price",
								"offset": 16,
								"slot": "3",
								"type": "t_uint128"
							},
							{
								"astId": 13,
								"contract": "contracts/supplierProduct.sol:supplierProduct",
								"label": "sp_date",
								"offset": 0,
								"slot": "4",
								"type": "t_uint32"
							},
							{
								"astId": 15,
								"contract": "contracts/supplierProduct.sol:supplierProduct",
								"label": "sp_expiryDate",
								"offset": 4,
								"slot": "4",
								"type": "t_uint32"
							},
							{
								"astId": 17,
								"contract": "contracts/supplierProduct.sol:supplierProduct",
								"label": "sp_status",
								"offset": 8,
								"slot": "4",
								"type": "t_bool"
							}
						],
						"numberOfBytes": "160"
					},
					"t_uint128": {
						"encoding": "inplace",
						"label": "uint128",
						"numberOfBytes": "16"
					},
					"t_uint256": {
						"encoding": "inplace",
						"label": "uint256",
						"numberOfBytes": "32"
					},
					"t_uint32": {
						"encoding": "inplace",
						"label": "uint32",
						"numberOfBytes": "4"
					}
				}
			},
			"userdoc": {
				"kind": "user",
				"methods": {
					"addSupplierProduct(bytes,bytes,uint128,uint128,uint32,uint32)": {
						"notice": "function to add supplier product"
					},
					"deleteSupplierProduct(uint256)": {
						"notice": "function to delete supplier product (making the product Inactive)"
					},
					"getAllActiveProductsOfSupplier(address)": {
						"notice": "function to get all supplier products that it created on the platform(which are currently active)"
					},
					"getAllProductsOfSupplier(address)": {
						"notice": "function to get all supplier products that it created on the platform"
					},
					"getSingleSupplierProduct(uint256)": {
						"notice": "function to return supplier' single product"
					},
					"getSupplierProductIds()": {
						"notice": "function to return supplier product IDs"
					},
					"supplierAddressToproductsIdMapping(address,uint256)": {
						"notice": "mapping user' address with all the created products"
					},
					"supplierProductsIdToStructMapping(uint256)": {
						"notice": "mapping product index with supplierProduct struct"
					},
					"updateSupplierProductUints(uint256,uint128)": {
						"notice": "function to update supplier product units"
					}
				},
				"notice": "Uses ISupplierProduct interface",
				"version": 1
			}
		}
	}
}