{
	"contracts/manufacturerDistributor.sol": {
		"manufacturerDistributor": {
			"abi": [
				{
					"anonymous": false,
					"inputs": [
						{
							"indexed": false,
							"internalType": "uint32",
							"name": "_arrivalTime",
							"type": "uint32"
						}
					],
					"name": "eventArrivalTime",
					"type": "event"
				},
				{
					"anonymous": false,
					"inputs": [
						{
							"indexed": true,
							"internalType": "uint256",
							"name": "_mdId",
							"type": "uint256"
						},
						{
							"indexed": true,
							"internalType": "uint256",
							"name": "_mpId",
							"type": "uint256"
						},
						{
							"indexed": false,
							"internalType": "address",
							"name": "_manufacturerAddress",
							"type": "address"
						},
						{
							"indexed": false,
							"internalType": "address",
							"name": "_distributorAddress",
							"type": "address"
						},
						{
							"indexed": false,
							"internalType": "uint32",
							"name": "_dispatchTime",
							"type": "uint32"
						}
					],
					"name": "eventManufacturerDistributorTransfer",
					"type": "event"
				},
				{
					"inputs": [
						{
							"internalType": "address",
							"name": "",
							"type": "address"
						},
						{
							"internalType": "uint256",
							"name": "",
							"type": "uint256"
						}
					],
					"name": "distributorTosmIDMapping",
					"outputs": [
						{
							"internalType": "uint256",
							"name": "",
							"type": "uint256"
						}
					],
					"stateMutability": "view",
					"type": "function"
				},
				{
					"inputs": [
						{
							"internalType": "address",
							"name": "_distributorAddress",
							"type": "address"
						}
					],
					"name": "getAllmdIdForManufacturer",
					"outputs": [
						{
							"components": [
								{
									"internalType": "uint256",
									"name": "mpId",
									"type": "uint256"
								},
								{
									"internalType": "address",
									"name": "m_address",
									"type": "address"
								},
								{
									"internalType": "address",
									"name": "d_address",
									"type": "address"
								},
								{
									"internalType": "uint32",
									"name": "dispatchTime",
									"type": "uint32"
								},
								{
									"internalType": "uint32",
									"name": "arrivalTime",
									"type": "uint32"
								}
							],
							"internalType": "struct IManufacturerDistributor.manufacturerDistributor[]",
							"name": "",
							"type": "tuple[]"
						}
					],
					"stateMutability": "view",
					"type": "function"
				},
				{
					"inputs": [
						{
							"internalType": "uint256",
							"name": "_mdid",
							"type": "uint256"
						}
					],
					"name": "getProduct",
					"outputs": [
						{
							"components": [
								{
									"internalType": "uint256",
									"name": "mpId",
									"type": "uint256"
								},
								{
									"internalType": "address",
									"name": "m_address",
									"type": "address"
								},
								{
									"internalType": "address",
									"name": "d_address",
									"type": "address"
								},
								{
									"internalType": "uint32",
									"name": "dispatchTime",
									"type": "uint32"
								},
								{
									"internalType": "uint32",
									"name": "arrivalTime",
									"type": "uint32"
								}
							],
							"internalType": "struct IManufacturerDistributor.manufacturerDistributor",
							"name": "",
							"type": "tuple"
						}
					],
					"stateMutability": "view",
					"type": "function"
				},
				{
					"inputs": [],
					"name": "mdId",
					"outputs": [
						{
							"internalType": "uint256",
							"name": "",
							"type": "uint256"
						}
					],
					"stateMutability": "view",
					"type": "function"
				},
				{
					"inputs": [
						{
							"internalType": "uint256",
							"name": "",
							"type": "uint256"
						}
					],
					"name": "mdidToStructMapping",
					"outputs": [
						{
							"internalType": "uint256",
							"name": "mpId",
							"type": "uint256"
						},
						{
							"internalType": "address",
							"name": "m_address",
							"type": "address"
						},
						{
							"internalType": "address",
							"name": "d_address",
							"type": "address"
						},
						{
							"internalType": "uint32",
							"name": "dispatchTime",
							"type": "uint32"
						},
						{
							"internalType": "uint32",
							"name": "arrivalTime",
							"type": "uint32"
						}
					],
					"stateMutability": "view",
					"type": "function"
				},
				{
					"inputs": [
						{
							"internalType": "uint256",
							"name": "_mdId",
							"type": "uint256"
						}
					],
					"name": "receiveProduct",
					"outputs": [],
					"stateMutability": "nonpayable",
					"type": "function"
				},
				{
					"inputs": [
						{
							"internalType": "uint256",
							"name": "_mpId",
							"type": "uint256"
						},
						{
							"internalType": "address",
							"name": "_manufacturerAddress",
							"type": "address"
						},
						{
							"internalType": "address",
							"name": "_distributorAddress",
							"type": "address"
						},
						{
							"internalType": "uint32",
							"name": "_dispatchTime",
							"type": "uint32"
						},
						{
							"internalType": "uint32",
							"name": "_arrivalTime",
							"type": "uint32"
						}
					],
					"name": "transferproduct",
					"outputs": [],
					"stateMutability": "nonpayable",
					"type": "function"
				}
			],
			"devdoc": {
				"kind": "dev",
				"methods": {},
				"version": 1
			},
			"evm": {
				"assembly": "    /* \"contracts/manufacturerDistributor.sol\":125:2115  contract manufacturerDistributor is IManufacturerDistributor{\r... */\n  mstore(0x40, 0x80)\n    /* \"contracts/manufacturerDistributor.sol\":211:212  1 */\n  0x01\n    /* \"contracts/manufacturerDistributor.sol\":192:212  uint public mdId = 1 */\n  0x00\n  sstore\n    /* \"contracts/manufacturerDistributor.sol\":125:2115  contract manufacturerDistributor is IManufacturerDistributor{\r... */\n  callvalue\n  dup1\n  iszero\n  tag_1\n  jumpi\n  0x00\n  dup1\n  revert\ntag_1:\n  pop\n  dataSize(sub_0)\n  dup1\n  dataOffset(sub_0)\n  0x00\n  codecopy\n  0x00\n  return\nstop\n\nsub_0: assembly {\n        /* \"contracts/manufacturerDistributor.sol\":125:2115  contract manufacturerDistributor is IManufacturerDistributor{\r... */\n      mstore(0x40, 0x80)\n      callvalue\n      dup1\n      iszero\n      tag_1\n      jumpi\n      0x00\n      dup1\n      revert\n    tag_1:\n      pop\n      jumpi(tag_2, lt(calldatasize, 0x04))\n      shr(0xe0, calldataload(0x00))\n      dup1\n      0xb9db15b4\n      gt\n      tag_10\n      jumpi\n      dup1\n      0xb9db15b4\n      eq\n      tag_6\n      jumpi\n      dup1\n      0xc7414bee\n      eq\n      tag_7\n      jumpi\n      dup1\n      0xcb59d430\n      eq\n      tag_8\n      jumpi\n      dup1\n      0xe3eba904\n      eq\n      tag_9\n      jumpi\n      jump(tag_2)\n    tag_10:\n      dup1\n      0x29d78328\n      eq\n      tag_3\n      jumpi\n      dup1\n      0x83f48c96\n      eq\n      tag_4\n      jumpi\n      dup1\n      0x96fccba4\n      eq\n      tag_5\n      jumpi\n    tag_2:\n      0x00\n      dup1\n      revert\n        /* \"contracts/manufacturerDistributor.sol\":1278:1480  function receiveProduct(uint _mdId)external override{\r... */\n    tag_3:\n      tag_11\n      0x04\n      dup1\n      calldatasize\n      sub\n      dup2\n      add\n      swap1\n      tag_12\n      swap2\n      swap1\n      tag_13\n      jump\t// in\n    tag_12:\n      tag_14\n      jump\t// in\n    tag_11:\n      stop\n        /* \"contracts/manufacturerDistributor.sol\":702:760  mapping(address => uint[]) public distributorTosmIDMapping */\n    tag_4:\n      tag_15\n      0x04\n      dup1\n      calldatasize\n      sub\n      dup2\n      add\n      swap1\n      tag_16\n      swap2\n      swap1\n      tag_17\n      jump\t// in\n    tag_16:\n      tag_18\n      jump\t// in\n    tag_15:\n      mload(0x40)\n      tag_19\n      swap2\n      swap1\n      tag_20\n      jump\t// in\n    tag_19:\n      mload(0x40)\n      dup1\n      swap2\n      sub\n      swap1\n      return\n        /* \"contracts/manufacturerDistributor.sol\":1632:2112  function getAllmdIdForManufacturer(address _distributorAddress) public view returns(manufacturerDistributor[] memory){\r... */\n    tag_5:\n      tag_21\n      0x04\n      dup1\n      calldatasize\n      sub\n      dup2\n      add\n      swap1\n      tag_22\n      swap2\n      swap1\n      tag_23\n      jump\t// in\n    tag_22:\n      tag_24\n      jump\t// in\n    tag_21:\n      mload(0x40)\n      tag_25\n      swap2\n      swap1\n      tag_26\n      jump\t// in\n    tag_25:\n      mload(0x40)\n      dup1\n      swap2\n      sub\n      swap1\n      return\n        /* \"contracts/manufacturerDistributor.sol\":1487:1622  function getProduct(uint _mdid) public view returns(manufacturerDistributor memory){\r... */\n    tag_6:\n      tag_27\n      0x04\n      dup1\n      calldatasize\n      sub\n      dup2\n      add\n      swap1\n      tag_28\n      swap2\n      swap1\n      tag_13\n      jump\t// in\n    tag_28:\n      tag_29\n      jump\t// in\n    tag_27:\n      mload(0x40)\n      tag_30\n      swap2\n      swap1\n      tag_31\n      jump\t// in\n    tag_30:\n      mload(0x40)\n      dup1\n      swap2\n      sub\n      swap1\n      return\n        /* \"contracts/manufacturerDistributor.sol\":769:1269  function transferproduct(uint _mpId, address _manufacturerAddress,address _distributorAddress,uint32 _dispatchTime,uint32 _arrivalTime)external override{\r... */\n    tag_7:\n      tag_32\n      0x04\n      dup1\n      calldatasize\n      sub\n      dup2\n      add\n      swap1\n      tag_33\n      swap2\n      swap1\n      tag_34\n      jump\t// in\n    tag_33:\n      tag_35\n      jump\t// in\n    tag_32:\n      stop\n        /* \"contracts/manufacturerDistributor.sol\":628:695  mapping(uint => manufacturerDistributor) public mdidToStructMapping */\n    tag_8:\n      tag_36\n      0x04\n      dup1\n      calldatasize\n      sub\n      dup2\n      add\n      swap1\n      tag_37\n      swap2\n      swap1\n      tag_13\n      jump\t// in\n    tag_37:\n      tag_38\n      jump\t// in\n    tag_36:\n      mload(0x40)\n      tag_39\n      swap6\n      swap5\n      swap4\n      swap3\n      swap2\n      swap1\n      tag_40\n      jump\t// in\n    tag_39:\n      mload(0x40)\n      dup1\n      swap2\n      sub\n      swap1\n      return\n        /* \"contracts/manufacturerDistributor.sol\":192:212  uint public mdId = 1 */\n    tag_9:\n      tag_41\n      tag_42\n      jump\t// in\n    tag_41:\n      mload(0x40)\n      tag_43\n      swap2\n      swap1\n      tag_20\n      jump\t// in\n    tag_43:\n      mload(0x40)\n      dup1\n      swap2\n      sub\n      swap1\n      return\n        /* \"contracts/manufacturerDistributor.sol\":1278:1480  function receiveProduct(uint _mdId)external override{\r... */\n    tag_14:\n        /* \"contracts/manufacturerDistributor.sol\":1389:1404  block.timestamp */\n      timestamp\n        /* \"contracts/manufacturerDistributor.sol\":1341:1360  mdidToStructMapping */\n      0x02\n        /* \"contracts/manufacturerDistributor.sol\":1341:1367  mdidToStructMapping[_mdId] */\n      0x00\n        /* \"contracts/manufacturerDistributor.sol\":1361:1366  _mdId */\n      dup4\n        /* \"contracts/manufacturerDistributor.sol\":1341:1367  mdidToStructMapping[_mdId] */\n      dup2\n      mstore\n      0x20\n      add\n      swap1\n      dup2\n      mstore\n      0x20\n      add\n      0x00\n      keccak256\n        /* \"contracts/manufacturerDistributor.sol\":1341:1379  mdidToStructMapping[_mdId].arrivalTime */\n      0x02\n      add\n      0x18\n        /* \"contracts/manufacturerDistributor.sol\":1341:1405  mdidToStructMapping[_mdId].arrivalTime = uint32(block.timestamp) */\n      0x0100\n      exp\n      dup2\n      sload\n      dup2\n      0xffffffff\n      mul\n      not\n      and\n      swap1\n      dup4\n      0xffffffff\n      and\n      mul\n      or\n      swap1\n      sstore\n      pop\n        /* \"contracts/manufacturerDistributor.sol\":1421:1462  eventArrivalTime(uint32(block.timestamp)) */\n      0x64e64e323422dcfed18a892f84596ccf7cc94b1952625f3cc82e6461b529fff1\n        /* \"contracts/manufacturerDistributor.sol\":1445:1460  block.timestamp */\n      timestamp\n        /* \"contracts/manufacturerDistributor.sol\":1421:1462  eventArrivalTime(uint32(block.timestamp)) */\n      mload(0x40)\n      tag_45\n      swap2\n      swap1\n      tag_46\n      jump\t// in\n    tag_45:\n      mload(0x40)\n      dup1\n      swap2\n      sub\n      swap1\n      log1\n        /* \"contracts/manufacturerDistributor.sol\":1278:1480  function receiveProduct(uint _mdId)external override{\r... */\n      pop\n      jump\t// out\n        /* \"contracts/manufacturerDistributor.sol\":702:760  mapping(address => uint[]) public distributorTosmIDMapping */\n    tag_18:\n      mstore(0x20, 0x03)\n      dup2\n      0x00\n      mstore\n      keccak256(0x00, 0x40)\n      dup2\n      dup2\n      sload\n      dup2\n      lt\n      tag_47\n      jumpi\n      0x00\n      dup1\n      revert\n    tag_47:\n      swap1\n      0x00\n      mstore\n      keccak256(0x00, 0x20)\n      add\n      0x00\n      swap2\n      pop\n      swap2\n      pop\n      pop\n      sload\n      dup2\n      jump\t// out\n        /* \"contracts/manufacturerDistributor.sol\":1632:2112  function getAllmdIdForManufacturer(address _distributorAddress) public view returns(manufacturerDistributor[] memory){\r... */\n    tag_24:\n        /* \"contracts/manufacturerDistributor.sol\":1716:1748  manufacturerDistributor[] memory */\n      0x60\n        /* \"contracts/manufacturerDistributor.sol\":1770:1792  uint[] memory mdIdData */\n      0x00\n        /* \"contracts/manufacturerDistributor.sol\":1795:1819  distributorTosmIDMapping */\n      0x03\n        /* \"contracts/manufacturerDistributor.sol\":1795:1840  distributorTosmIDMapping[_distributorAddress] */\n      0x00\n        /* \"contracts/manufacturerDistributor.sol\":1820:1839  _distributorAddress */\n      dup5\n        /* \"contracts/manufacturerDistributor.sol\":1795:1840  distributorTosmIDMapping[_distributorAddress] */\n      0xffffffffffffffffffffffffffffffffffffffff\n      and\n      0xffffffffffffffffffffffffffffffffffffffff\n      and\n      dup2\n      mstore\n      0x20\n      add\n      swap1\n      dup2\n      mstore\n      0x20\n      add\n      0x00\n      keccak256\n        /* \"contracts/manufacturerDistributor.sol\":1770:1840  uint[] memory mdIdData = distributorTosmIDMapping[_distributorAddress] */\n      dup1\n      sload\n      dup1\n      0x20\n      mul\n      0x20\n      add\n      mload(0x40)\n      swap1\n      dup2\n      add\n      0x40\n      mstore\n      dup1\n      swap3\n      swap2\n      swap1\n      dup2\n      dup2\n      mstore\n      0x20\n      add\n      dup3\n      dup1\n      sload\n      dup1\n      iszero\n      tag_50\n      jumpi\n      0x20\n      mul\n      dup3\n      add\n      swap2\n      swap1\n      0x00\n      mstore\n      keccak256(0x00, 0x20)\n      swap1\n    tag_51:\n      dup2\n      sload\n      dup2\n      mstore\n      0x20\n      add\n      swap1\n      0x01\n      add\n      swap1\n      dup1\n      dup4\n      gt\n      tag_51\n      jumpi\n    tag_50:\n      pop\n      pop\n      pop\n      pop\n      pop\n      swap1\n      pop\n        /* \"contracts/manufacturerDistributor.sol\":1851:1895  manufacturerDistributor[] memory mdIdDetails */\n      0x00\n        /* \"contracts/manufacturerDistributor.sol\":1928:1936  mdIdData */\n      dup2\n        /* \"contracts/manufacturerDistributor.sol\":1928:1943  mdIdData.length */\n      mload\n        /* \"contracts/manufacturerDistributor.sol\":1898:1944  new manufacturerDistributor[](mdIdData.length) */\n      0xffffffffffffffff\n      dup2\n      gt\n      iszero\n      tag_52\n      jumpi\n      tag_53\n      tag_54\n      jump\t// in\n    tag_53:\n    tag_52:\n      mload(0x40)\n      swap1\n      dup1\n      dup3\n      mstore\n      dup1\n      0x20\n      mul\n      0x20\n      add\n      dup3\n      add\n      0x40\n      mstore\n      dup1\n      iszero\n      tag_55\n      jumpi\n      dup2\n      0x20\n      add\n    tag_56:\n      tag_57\n      tag_58\n      jump\t// in\n    tag_57:\n      dup2\n      mstore\n      0x20\n      add\n      swap1\n      0x01\n      swap1\n      sub\n      swap1\n      dup2\n      tag_56\n      jumpi\n      swap1\n      pop\n    tag_55:\n      pop\n        /* \"contracts/manufacturerDistributor.sol\":1851:1944  manufacturerDistributor[] memory mdIdDetails = new manufacturerDistributor[](mdIdData.length) */\n      swap1\n      pop\n        /* \"contracts/manufacturerDistributor.sol\":1959:1965  uint i */\n      0x00\n        /* \"contracts/manufacturerDistributor.sol\":1955:2076  for(uint i=0;i<mdIdData.length;i++)\r... */\n    tag_59:\n        /* \"contracts/manufacturerDistributor.sol\":1970:1978  mdIdData */\n      dup3\n        /* \"contracts/manufacturerDistributor.sol\":1970:1985  mdIdData.length */\n      mload\n        /* \"contracts/manufacturerDistributor.sol\":1968:1969  i */\n      dup2\n        /* \"contracts/manufacturerDistributor.sol\":1968:1985  i<mdIdData.length */\n      lt\n        /* \"contracts/manufacturerDistributor.sol\":1955:2076  for(uint i=0;i<mdIdData.length;i++)\r... */\n      iszero\n      tag_60\n      jumpi\n        /* \"contracts/manufacturerDistributor.sol\":2032:2051  mdidToStructMapping */\n      0x02\n        /* \"contracts/manufacturerDistributor.sol\":2032:2064  mdidToStructMapping[mdIdData[i]] */\n      0x00\n        /* \"contracts/manufacturerDistributor.sol\":2052:2060  mdIdData */\n      dup5\n        /* \"contracts/manufacturerDistributor.sol\":2061:2062  i */\n      dup4\n        /* \"contracts/manufacturerDistributor.sol\":2052:2063  mdIdData[i] */\n      dup2\n      mload\n      dup2\n      lt\n      tag_62\n      jumpi\n      tag_63\n      tag_64\n      jump\t// in\n    tag_63:\n    tag_62:\n      0x20\n      mul\n      0x20\n      add\n      add\n      mload\n        /* \"contracts/manufacturerDistributor.sol\":2032:2064  mdidToStructMapping[mdIdData[i]] */\n      dup2\n      mstore\n      0x20\n      add\n      swap1\n      dup2\n      mstore\n      0x20\n      add\n      0x00\n      keccak256\n        /* \"contracts/manufacturerDistributor.sol\":2015:2064  mdIdDetails[i] = mdidToStructMapping[mdIdData[i]] */\n      mload(0x40)\n      dup1\n      0xa0\n      add\n      0x40\n      mstore\n      swap1\n      dup2\n      0x00\n      dup3\n      add\n      sload\n      dup2\n      mstore\n      0x20\n      add\n      0x01\n      dup3\n      add\n      0x00\n      swap1\n      sload\n      swap1\n      0x0100\n      exp\n      swap1\n      div\n      0xffffffffffffffffffffffffffffffffffffffff\n      and\n      0xffffffffffffffffffffffffffffffffffffffff\n      and\n      0xffffffffffffffffffffffffffffffffffffffff\n      and\n      dup2\n      mstore\n      0x20\n      add\n      0x02\n      dup3\n      add\n      0x00\n      swap1\n      sload\n      swap1\n      0x0100\n      exp\n      swap1\n      div\n      0xffffffffffffffffffffffffffffffffffffffff\n      and\n      0xffffffffffffffffffffffffffffffffffffffff\n      and\n      0xffffffffffffffffffffffffffffffffffffffff\n      and\n      dup2\n      mstore\n      0x20\n      add\n      0x02\n      dup3\n      add\n      0x14\n      swap1\n      sload\n      swap1\n      0x0100\n      exp\n      swap1\n      div\n      0xffffffff\n      and\n      0xffffffff\n      and\n      0xffffffff\n      and\n      dup2\n      mstore\n      0x20\n      add\n      0x02\n      dup3\n      add\n      0x18\n      swap1\n      sload\n      swap1\n      0x0100\n      exp\n      swap1\n      div\n      0xffffffff\n      and\n      0xffffffff\n      and\n      0xffffffff\n      and\n      dup2\n      mstore\n      pop\n      pop\n        /* \"contracts/manufacturerDistributor.sol\":2015:2026  mdIdDetails */\n      dup3\n        /* \"contracts/manufacturerDistributor.sol\":2027:2028  i */\n      dup3\n        /* \"contracts/manufacturerDistributor.sol\":2015:2029  mdIdDetails[i] */\n      dup2\n      mload\n      dup2\n      lt\n      tag_65\n      jumpi\n      tag_66\n      tag_64\n      jump\t// in\n    tag_66:\n    tag_65:\n      0x20\n      mul\n      0x20\n      add\n      add\n        /* \"contracts/manufacturerDistributor.sol\":2015:2064  mdIdDetails[i] = mdidToStructMapping[mdIdData[i]] */\n      dup2\n      swap1\n      mstore\n      pop\n        /* \"contracts/manufacturerDistributor.sol\":1986:1989  i++ */\n      dup1\n      dup1\n      tag_67\n      swap1\n      tag_68\n      jump\t// in\n    tag_67:\n      swap2\n      pop\n      pop\n        /* \"contracts/manufacturerDistributor.sol\":1955:2076  for(uint i=0;i<mdIdData.length;i++)\r... */\n      jump(tag_59)\n    tag_60:\n      pop\n        /* \"contracts/manufacturerDistributor.sol\":2093:2104  mdIdDetails */\n      dup1\n        /* \"contracts/manufacturerDistributor.sol\":2086:2104  return mdIdDetails */\n      swap3\n      pop\n      pop\n      pop\n        /* \"contracts/manufacturerDistributor.sol\":1632:2112  function getAllmdIdForManufacturer(address _distributorAddress) public view returns(manufacturerDistributor[] memory){\r... */\n      swap2\n      swap1\n      pop\n      jump\t// out\n        /* \"contracts/manufacturerDistributor.sol\":1487:1622  function getProduct(uint _mdid) public view returns(manufacturerDistributor memory){\r... */\n    tag_29:\n        /* \"contracts/manufacturerDistributor.sol\":1539:1569  manufacturerDistributor memory */\n      tag_69\n      tag_58\n      jump\t// in\n    tag_69:\n        /* \"contracts/manufacturerDistributor.sol\":1588:1607  mdidToStructMapping */\n      0x02\n        /* \"contracts/manufacturerDistributor.sol\":1588:1614  mdidToStructMapping[_mdid] */\n      0x00\n        /* \"contracts/manufacturerDistributor.sol\":1608:1613  _mdid */\n      dup4\n        /* \"contracts/manufacturerDistributor.sol\":1588:1614  mdidToStructMapping[_mdid] */\n      dup2\n      mstore\n      0x20\n      add\n      swap1\n      dup2\n      mstore\n      0x20\n      add\n      0x00\n      keccak256\n        /* \"contracts/manufacturerDistributor.sol\":1581:1614  return mdidToStructMapping[_mdid] */\n      mload(0x40)\n      dup1\n      0xa0\n      add\n      0x40\n      mstore\n      swap1\n      dup2\n      0x00\n      dup3\n      add\n      sload\n      dup2\n      mstore\n      0x20\n      add\n      0x01\n      dup3\n      add\n      0x00\n      swap1\n      sload\n      swap1\n      0x0100\n      exp\n      swap1\n      div\n      0xffffffffffffffffffffffffffffffffffffffff\n      and\n      0xffffffffffffffffffffffffffffffffffffffff\n      and\n      0xffffffffffffffffffffffffffffffffffffffff\n      and\n      dup2\n      mstore\n      0x20\n      add\n      0x02\n      dup3\n      add\n      0x00\n      swap1\n      sload\n      swap1\n      0x0100\n      exp\n      swap1\n      div\n      0xffffffffffffffffffffffffffffffffffffffff\n      and\n      0xffffffffffffffffffffffffffffffffffffffff\n      and\n      0xffffffffffffffffffffffffffffffffffffffff\n      and\n      dup2\n      mstore\n      0x20\n      add\n      0x02\n      dup3\n      add\n      0x14\n      swap1\n      sload\n      swap1\n      0x0100\n      exp\n      swap1\n      div\n      0xffffffff\n      and\n      0xffffffff\n      and\n      0xffffffff\n      and\n      dup2\n      mstore\n      0x20\n      add\n      0x02\n      dup3\n      add\n      0x18\n      swap1\n      sload\n      swap1\n      0x0100\n      exp\n      swap1\n      div\n      0xffffffff\n      and\n      0xffffffff\n      and\n      0xffffffff\n      and\n      dup2\n      mstore\n      pop\n      pop\n      swap1\n      pop\n        /* \"contracts/manufacturerDistributor.sol\":1487:1622  function getProduct(uint _mdid) public view returns(manufacturerDistributor memory){\r... */\n      swap2\n      swap1\n      pop\n      jump\t// out\n        /* \"contracts/manufacturerDistributor.sol\":769:1269  function transferproduct(uint _mpId, address _manufacturerAddress,address _distributorAddress,uint32 _dispatchTime,uint32 _arrivalTime)external override{\r... */\n    tag_35:\n        /* \"contracts/manufacturerDistributor.sol\":960:1058  manufacturerDistributor(_mpId,_manufacturerAddress,_distributorAddress,_dispatchTime,_arrivalTime) */\n      mload(0x40)\n      dup1\n      0xa0\n      add\n      0x40\n      mstore\n      dup1\n        /* \"contracts/manufacturerDistributor.sol\":984:989  _mpId */\n      dup7\n        /* \"contracts/manufacturerDistributor.sol\":960:1058  manufacturerDistributor(_mpId,_manufacturerAddress,_distributorAddress,_dispatchTime,_arrivalTime) */\n      dup2\n      mstore\n      0x20\n      add\n        /* \"contracts/manufacturerDistributor.sol\":990:1010  _manufacturerAddress */\n      dup6\n        /* \"contracts/manufacturerDistributor.sol\":960:1058  manufacturerDistributor(_mpId,_manufacturerAddress,_distributorAddress,_dispatchTime,_arrivalTime) */\n      0xffffffffffffffffffffffffffffffffffffffff\n      and\n      dup2\n      mstore\n      0x20\n      add\n        /* \"contracts/manufacturerDistributor.sol\":1011:1030  _distributorAddress */\n      dup5\n        /* \"contracts/manufacturerDistributor.sol\":960:1058  manufacturerDistributor(_mpId,_manufacturerAddress,_distributorAddress,_dispatchTime,_arrivalTime) */\n      0xffffffffffffffffffffffffffffffffffffffff\n      and\n      dup2\n      mstore\n      0x20\n      add\n        /* \"contracts/manufacturerDistributor.sol\":1031:1044  _dispatchTime */\n      dup4\n        /* \"contracts/manufacturerDistributor.sol\":960:1058  manufacturerDistributor(_mpId,_manufacturerAddress,_distributorAddress,_dispatchTime,_arrivalTime) */\n      0xffffffff\n      and\n      dup2\n      mstore\n      0x20\n      add\n        /* \"contracts/manufacturerDistributor.sol\":1045:1057  _arrivalTime */\n      dup3\n        /* \"contracts/manufacturerDistributor.sol\":960:1058  manufacturerDistributor(_mpId,_manufacturerAddress,_distributorAddress,_dispatchTime,_arrivalTime) */\n      0xffffffff\n      and\n      dup2\n      mstore\n      pop\n        /* \"contracts/manufacturerDistributor.sol\":932:951  mdidToStructMapping */\n      0x02\n        /* \"contracts/manufacturerDistributor.sol\":932:957  mdidToStructMapping[mdId] */\n      0x00\n        /* \"contracts/manufacturerDistributor.sol\":952:956  mdId */\n      dup1\n      sload\n        /* \"contracts/manufacturerDistributor.sol\":932:957  mdidToStructMapping[mdId] */\n      dup2\n      mstore\n      0x20\n      add\n      swap1\n      dup2\n      mstore\n      0x20\n      add\n      0x00\n      keccak256\n        /* \"contracts/manufacturerDistributor.sol\":932:1058  mdidToStructMapping[mdId] = manufacturerDistributor(_mpId,_manufacturerAddress,_distributorAddress,_dispatchTime,_arrivalTime) */\n      0x00\n      dup3\n      add\n      mload\n      dup2\n      0x00\n      add\n      sstore\n      0x20\n      dup3\n      add\n      mload\n      dup2\n      0x01\n      add\n      exp(0x0100, 0x00)\n      dup2\n      sload\n      dup2\n      0xffffffffffffffffffffffffffffffffffffffff\n      mul\n      not\n      and\n      swap1\n      dup4\n      0xffffffffffffffffffffffffffffffffffffffff\n      and\n      mul\n      or\n      swap1\n      sstore\n      pop\n      0x40\n      dup3\n      add\n      mload\n      dup2\n      0x02\n      add\n      exp(0x0100, 0x00)\n      dup2\n      sload\n      dup2\n      0xffffffffffffffffffffffffffffffffffffffff\n      mul\n      not\n      and\n      swap1\n      dup4\n      0xffffffffffffffffffffffffffffffffffffffff\n      and\n      mul\n      or\n      swap1\n      sstore\n      pop\n      0x60\n      dup3\n      add\n      mload\n      dup2\n      0x02\n      add\n      exp(0x0100, 0x14)\n      dup2\n      sload\n      dup2\n      0xffffffff\n      mul\n      not\n      and\n      swap1\n      dup4\n      0xffffffff\n      and\n      mul\n      or\n      swap1\n      sstore\n      pop\n      0x80\n      dup3\n      add\n      mload\n      dup2\n      0x02\n      add\n      exp(0x0100, 0x18)\n      dup2\n      sload\n      dup2\n      0xffffffff\n      mul\n      not\n      and\n      swap1\n      dup4\n      0xffffffff\n      and\n      mul\n      or\n      swap1\n      sstore\n      pop\n      swap1\n      pop\n      pop\n        /* \"contracts/manufacturerDistributor.sol\":1069:1093  distributorTosmIDMapping */\n      0x03\n        /* \"contracts/manufacturerDistributor.sol\":1069:1114  distributorTosmIDMapping[_distributorAddress] */\n      0x00\n        /* \"contracts/manufacturerDistributor.sol\":1094:1113  _distributorAddress */\n      dup5\n        /* \"contracts/manufacturerDistributor.sol\":1069:1114  distributorTosmIDMapping[_distributorAddress] */\n      0xffffffffffffffffffffffffffffffffffffffff\n      and\n      0xffffffffffffffffffffffffffffffffffffffff\n      and\n      dup2\n      mstore\n      0x20\n      add\n      swap1\n      dup2\n      mstore\n      0x20\n      add\n      0x00\n      keccak256\n        /* \"contracts/manufacturerDistributor.sol\":1120:1124  mdId */\n      sload(0x00)\n        /* \"contracts/manufacturerDistributor.sol\":1069:1125  distributorTosmIDMapping[_distributorAddress].push(mdId) */\n      swap1\n      dup1\n      0x01\n      dup2\n      sload\n      add\n      dup1\n      dup3\n      sstore\n      dup1\n      swap2\n      pop\n      pop\n      0x01\n      swap1\n      sub\n      swap1\n      0x00\n      mstore\n      keccak256(0x00, 0x20)\n      add\n      0x00\n      swap1\n      swap2\n      swap1\n      swap2\n      swap1\n      swap2\n      pop\n      sstore\n        /* \"contracts/manufacturerDistributor.sol\":1183:1188  _mpId */\n      dup5\n        /* \"contracts/manufacturerDistributor.sol\":1178:1182  mdId */\n      sload(0x00)\n        /* \"contracts/manufacturerDistributor.sol\":1141:1244  eventManufacturerDistributorTransfer(mdId,_mpId,_manufacturerAddress,_distributorAddress,_dispatchTime) */\n      0x3d9c6d7fedf256315259fe8cb6863117af8f4a56f16c0767d72c06359e16e533\n        /* \"contracts/manufacturerDistributor.sol\":1189:1209  _manufacturerAddress */\n      dup7\n        /* \"contracts/manufacturerDistributor.sol\":1210:1229  _distributorAddress */\n      dup7\n        /* \"contracts/manufacturerDistributor.sol\":1230:1243  _dispatchTime */\n      dup7\n        /* \"contracts/manufacturerDistributor.sol\":1141:1244  eventManufacturerDistributorTransfer(mdId,_mpId,_manufacturerAddress,_distributorAddress,_dispatchTime) */\n      mload(0x40)\n      tag_73\n      swap4\n      swap3\n      swap2\n      swap1\n      tag_74\n      jump\t// in\n    tag_73:\n      mload(0x40)\n      dup1\n      swap2\n      sub\n      swap1\n      log3\n        /* \"contracts/manufacturerDistributor.sol\":1255:1259  mdId */\n      0x00\n      dup1\n        /* \"contracts/manufacturerDistributor.sol\":1255:1261  mdId++ */\n      dup2\n      sload\n      dup1\n      swap3\n      swap2\n      swap1\n      tag_75\n      swap1\n      tag_68\n      jump\t// in\n    tag_75:\n      swap2\n      swap1\n      pop\n      sstore\n      pop\n        /* \"contracts/manufacturerDistributor.sol\":769:1269  function transferproduct(uint _mpId, address _manufacturerAddress,address _distributorAddress,uint32 _dispatchTime,uint32 _arrivalTime)external override{\r... */\n      pop\n      pop\n      pop\n      pop\n      pop\n      jump\t// out\n        /* \"contracts/manufacturerDistributor.sol\":628:695  mapping(uint => manufacturerDistributor) public mdidToStructMapping */\n    tag_38:\n      mstore(0x20, 0x02)\n      dup1\n      0x00\n      mstore\n      keccak256(0x00, 0x40)\n      0x00\n      swap2\n      pop\n      swap1\n      pop\n      dup1\n      0x00\n      add\n      sload\n      swap1\n      dup1\n      0x01\n      add\n      0x00\n      swap1\n      sload\n      swap1\n      0x0100\n      exp\n      swap1\n      div\n      0xffffffffffffffffffffffffffffffffffffffff\n      and\n      swap1\n      dup1\n      0x02\n      add\n      0x00\n      swap1\n      sload\n      swap1\n      0x0100\n      exp\n      swap1\n      div\n      0xffffffffffffffffffffffffffffffffffffffff\n      and\n      swap1\n      dup1\n      0x02\n      add\n      0x14\n      swap1\n      sload\n      swap1\n      0x0100\n      exp\n      swap1\n      div\n      0xffffffff\n      and\n      swap1\n      dup1\n      0x02\n      add\n      0x18\n      swap1\n      sload\n      swap1\n      0x0100\n      exp\n      swap1\n      div\n      0xffffffff\n      and\n      swap1\n      pop\n      dup6\n      jump\t// out\n        /* \"contracts/manufacturerDistributor.sol\":192:212  uint public mdId = 1 */\n    tag_42:\n      sload(0x00)\n      dup2\n      jump\t// out\n    tag_58:\n      mload(0x40)\n      dup1\n      0xa0\n      add\n      0x40\n      mstore\n      dup1\n      0x00\n      dup2\n      mstore\n      0x20\n      add\n      and(0xffffffffffffffffffffffffffffffffffffffff, 0x00)\n      dup2\n      mstore\n      0x20\n      add\n      and(0xffffffffffffffffffffffffffffffffffffffff, 0x00)\n      dup2\n      mstore\n      0x20\n      add\n      and(0xffffffff, 0x00)\n      dup2\n      mstore\n      0x20\n      add\n      and(0xffffffff, 0x00)\n      dup2\n      mstore\n      pop\n      swap1\n      jump\t// out\n        /* \"#utility.yul\":7:146   */\n    tag_77:\n        /* \"#utility.yul\":53:58   */\n      0x00\n        /* \"#utility.yul\":91:97   */\n      dup2\n        /* \"#utility.yul\":78:98   */\n      calldataload\n        /* \"#utility.yul\":69:98   */\n      swap1\n      pop\n        /* \"#utility.yul\":107:140   */\n      tag_79\n        /* \"#utility.yul\":134:139   */\n      dup2\n        /* \"#utility.yul\":107:140   */\n      tag_80\n      jump\t// in\n    tag_79:\n        /* \"#utility.yul\":7:146   */\n      swap3\n      swap2\n      pop\n      pop\n      jump\t// out\n        /* \"#utility.yul\":152:291   */\n    tag_81:\n        /* \"#utility.yul\":198:203   */\n      0x00\n        /* \"#utility.yul\":236:242   */\n      dup2\n        /* \"#utility.yul\":223:243   */\n      calldataload\n        /* \"#utility.yul\":214:243   */\n      swap1\n      pop\n        /* \"#utility.yul\":252:285   */\n      tag_83\n        /* \"#utility.yul\":279:284   */\n      dup2\n        /* \"#utility.yul\":252:285   */\n      tag_84\n      jump\t// in\n    tag_83:\n        /* \"#utility.yul\":152:291   */\n      swap3\n      swap2\n      pop\n      pop\n      jump\t// out\n        /* \"#utility.yul\":297:434   */\n    tag_85:\n        /* \"#utility.yul\":342:347   */\n      0x00\n        /* \"#utility.yul\":380:386   */\n      dup2\n        /* \"#utility.yul\":367:387   */\n      calldataload\n        /* \"#utility.yul\":358:387   */\n      swap1\n      pop\n        /* \"#utility.yul\":396:428   */\n      tag_87\n        /* \"#utility.yul\":422:427   */\n      dup2\n        /* \"#utility.yul\":396:428   */\n      tag_88\n      jump\t// in\n    tag_87:\n        /* \"#utility.yul\":297:434   */\n      swap3\n      swap2\n      pop\n      pop\n      jump\t// out\n        /* \"#utility.yul\":440:769   */\n    tag_23:\n        /* \"#utility.yul\":499:505   */\n      0x00\n        /* \"#utility.yul\":548:550   */\n      0x20\n        /* \"#utility.yul\":536:545   */\n      dup3\n        /* \"#utility.yul\":527:534   */\n      dup5\n        /* \"#utility.yul\":523:546   */\n      sub\n        /* \"#utility.yul\":519:551   */\n      slt\n        /* \"#utility.yul\":516:635   */\n      iszero\n      tag_90\n      jumpi\n        /* \"#utility.yul\":554:633   */\n      tag_91\n      tag_92\n      jump\t// in\n    tag_91:\n        /* \"#utility.yul\":516:635   */\n    tag_90:\n        /* \"#utility.yul\":674:675   */\n      0x00\n        /* \"#utility.yul\":699:752   */\n      tag_93\n        /* \"#utility.yul\":744:751   */\n      dup5\n        /* \"#utility.yul\":735:741   */\n      dup3\n        /* \"#utility.yul\":724:733   */\n      dup6\n        /* \"#utility.yul\":720:742   */\n      add\n        /* \"#utility.yul\":699:752   */\n      tag_77\n      jump\t// in\n    tag_93:\n        /* \"#utility.yul\":689:752   */\n      swap2\n      pop\n        /* \"#utility.yul\":645:762   */\n      pop\n        /* \"#utility.yul\":440:769   */\n      swap3\n      swap2\n      pop\n      pop\n      jump\t// out\n        /* \"#utility.yul\":775:1249   */\n    tag_17:\n        /* \"#utility.yul\":843:849   */\n      0x00\n        /* \"#utility.yul\":851:857   */\n      dup1\n        /* \"#utility.yul\":900:902   */\n      0x40\n        /* \"#utility.yul\":888:897   */\n      dup4\n        /* \"#utility.yul\":879:886   */\n      dup6\n        /* \"#utility.yul\":875:898   */\n      sub\n        /* \"#utility.yul\":871:903   */\n      slt\n        /* \"#utility.yul\":868:987   */\n      iszero\n      tag_95\n      jumpi\n        /* \"#utility.yul\":906:985   */\n      tag_96\n      tag_92\n      jump\t// in\n    tag_96:\n        /* \"#utility.yul\":868:987   */\n    tag_95:\n        /* \"#utility.yul\":1026:1027   */\n      0x00\n        /* \"#utility.yul\":1051:1104   */\n      tag_97\n        /* \"#utility.yul\":1096:1103   */\n      dup6\n        /* \"#utility.yul\":1087:1093   */\n      dup3\n        /* \"#utility.yul\":1076:1085   */\n      dup7\n        /* \"#utility.yul\":1072:1094   */\n      add\n        /* \"#utility.yul\":1051:1104   */\n      tag_77\n      jump\t// in\n    tag_97:\n        /* \"#utility.yul\":1041:1104   */\n      swap3\n      pop\n        /* \"#utility.yul\":997:1114   */\n      pop\n        /* \"#utility.yul\":1153:1155   */\n      0x20\n        /* \"#utility.yul\":1179:1232   */\n      tag_98\n        /* \"#utility.yul\":1224:1231   */\n      dup6\n        /* \"#utility.yul\":1215:1221   */\n      dup3\n        /* \"#utility.yul\":1204:1213   */\n      dup7\n        /* \"#utility.yul\":1200:1222   */\n      add\n        /* \"#utility.yul\":1179:1232   */\n      tag_81\n      jump\t// in\n    tag_98:\n        /* \"#utility.yul\":1169:1232   */\n      swap2\n      pop\n        /* \"#utility.yul\":1124:1242   */\n      pop\n        /* \"#utility.yul\":775:1249   */\n      swap3\n      pop\n      swap3\n      swap1\n      pop\n      jump\t// out\n        /* \"#utility.yul\":1255:1584   */\n    tag_13:\n        /* \"#utility.yul\":1314:1320   */\n      0x00\n        /* \"#utility.yul\":1363:1365   */\n      0x20\n        /* \"#utility.yul\":1351:1360   */\n      dup3\n        /* \"#utility.yul\":1342:1349   */\n      dup5\n        /* \"#utility.yul\":1338:1361   */\n      sub\n        /* \"#utility.yul\":1334:1366   */\n      slt\n        /* \"#utility.yul\":1331:1450   */\n      iszero\n      tag_100\n      jumpi\n        /* \"#utility.yul\":1369:1448   */\n      tag_101\n      tag_92\n      jump\t// in\n    tag_101:\n        /* \"#utility.yul\":1331:1450   */\n    tag_100:\n        /* \"#utility.yul\":1489:1490   */\n      0x00\n        /* \"#utility.yul\":1514:1567   */\n      tag_102\n        /* \"#utility.yul\":1559:1566   */\n      dup5\n        /* \"#utility.yul\":1550:1556   */\n      dup3\n        /* \"#utility.yul\":1539:1548   */\n      dup6\n        /* \"#utility.yul\":1535:1557   */\n      add\n        /* \"#utility.yul\":1514:1567   */\n      tag_81\n      jump\t// in\n    tag_102:\n        /* \"#utility.yul\":1504:1567   */\n      swap2\n      pop\n        /* \"#utility.yul\":1460:1577   */\n      pop\n        /* \"#utility.yul\":1255:1584   */\n      swap3\n      swap2\n      pop\n      pop\n      jump\t// out\n        /* \"#utility.yul\":1590:2497   */\n    tag_34:\n        /* \"#utility.yul\":1683:1689   */\n      0x00\n        /* \"#utility.yul\":1691:1697   */\n      dup1\n        /* \"#utility.yul\":1699:1705   */\n      0x00\n        /* \"#utility.yul\":1707:1713   */\n      dup1\n        /* \"#utility.yul\":1715:1721   */\n      0x00\n        /* \"#utility.yul\":1764:1767   */\n      0xa0\n        /* \"#utility.yul\":1752:1761   */\n      dup7\n        /* \"#utility.yul\":1743:1750   */\n      dup9\n        /* \"#utility.yul\":1739:1762   */\n      sub\n        /* \"#utility.yul\":1735:1768   */\n      slt\n        /* \"#utility.yul\":1732:1852   */\n      iszero\n      tag_104\n      jumpi\n        /* \"#utility.yul\":1771:1850   */\n      tag_105\n      tag_92\n      jump\t// in\n    tag_105:\n        /* \"#utility.yul\":1732:1852   */\n    tag_104:\n        /* \"#utility.yul\":1891:1892   */\n      0x00\n        /* \"#utility.yul\":1916:1969   */\n      tag_106\n        /* \"#utility.yul\":1961:1968   */\n      dup9\n        /* \"#utility.yul\":1952:1958   */\n      dup3\n        /* \"#utility.yul\":1941:1950   */\n      dup10\n        /* \"#utility.yul\":1937:1959   */\n      add\n        /* \"#utility.yul\":1916:1969   */\n      tag_81\n      jump\t// in\n    tag_106:\n        /* \"#utility.yul\":1906:1969   */\n      swap6\n      pop\n        /* \"#utility.yul\":1862:1979   */\n      pop\n        /* \"#utility.yul\":2018:2020   */\n      0x20\n        /* \"#utility.yul\":2044:2097   */\n      tag_107\n        /* \"#utility.yul\":2089:2096   */\n      dup9\n        /* \"#utility.yul\":2080:2086   */\n      dup3\n        /* \"#utility.yul\":2069:2078   */\n      dup10\n        /* \"#utility.yul\":2065:2087   */\n      add\n        /* \"#utility.yul\":2044:2097   */\n      tag_77\n      jump\t// in\n    tag_107:\n        /* \"#utility.yul\":2034:2097   */\n      swap5\n      pop\n        /* \"#utility.yul\":1989:2107   */\n      pop\n        /* \"#utility.yul\":2146:2148   */\n      0x40\n        /* \"#utility.yul\":2172:2225   */\n      tag_108\n        /* \"#utility.yul\":2217:2224   */\n      dup9\n        /* \"#utility.yul\":2208:2214   */\n      dup3\n        /* \"#utility.yul\":2197:2206   */\n      dup10\n        /* \"#utility.yul\":2193:2215   */\n      add\n        /* \"#utility.yul\":2172:2225   */\n      tag_77\n      jump\t// in\n    tag_108:\n        /* \"#utility.yul\":2162:2225   */\n      swap4\n      pop\n        /* \"#utility.yul\":2117:2235   */\n      pop\n        /* \"#utility.yul\":2274:2276   */\n      0x60\n        /* \"#utility.yul\":2300:2352   */\n      tag_109\n        /* \"#utility.yul\":2344:2351   */\n      dup9\n        /* \"#utility.yul\":2335:2341   */\n      dup3\n        /* \"#utility.yul\":2324:2333   */\n      dup10\n        /* \"#utility.yul\":2320:2342   */\n      add\n        /* \"#utility.yul\":2300:2352   */\n      tag_85\n      jump\t// in\n    tag_109:\n        /* \"#utility.yul\":2290:2352   */\n      swap3\n      pop\n        /* \"#utility.yul\":2245:2362   */\n      pop\n        /* \"#utility.yul\":2401:2404   */\n      0x80\n        /* \"#utility.yul\":2428:2480   */\n      tag_110\n        /* \"#utility.yul\":2472:2479   */\n      dup9\n        /* \"#utility.yul\":2463:2469   */\n      dup3\n        /* \"#utility.yul\":2452:2461   */\n      dup10\n        /* \"#utility.yul\":2448:2470   */\n      add\n        /* \"#utility.yul\":2428:2480   */\n      tag_85\n      jump\t// in\n    tag_110:\n        /* \"#utility.yul\":2418:2480   */\n      swap2\n      pop\n        /* \"#utility.yul\":2372:2490   */\n      pop\n        /* \"#utility.yul\":1590:2497   */\n      swap3\n      swap6\n      pop\n      swap3\n      swap6\n      swap1\n      swap4\n      pop\n      jump\t// out\n        /* \"#utility.yul\":2503:2838   */\n    tag_111:\n        /* \"#utility.yul\":2650:2660   */\n      0x00\n        /* \"#utility.yul\":2671:2795   */\n      tag_113\n        /* \"#utility.yul\":2791:2794   */\n      dup4\n        /* \"#utility.yul\":2783:2789   */\n      dup4\n        /* \"#utility.yul\":2671:2795   */\n      tag_114\n      jump\t// in\n    tag_113:\n        /* \"#utility.yul\":2827:2831   */\n      0xa0\n        /* \"#utility.yul\":2822:2825   */\n      dup4\n        /* \"#utility.yul\":2818:2832   */\n      add\n        /* \"#utility.yul\":2804:2832   */\n      swap1\n      pop\n        /* \"#utility.yul\":2503:2838   */\n      swap3\n      swap2\n      pop\n      pop\n      jump\t// out\n        /* \"#utility.yul\":2844:2952   */\n    tag_115:\n        /* \"#utility.yul\":2921:2945   */\n      tag_117\n        /* \"#utility.yul\":2939:2944   */\n      dup2\n        /* \"#utility.yul\":2921:2945   */\n      tag_118\n      jump\t// in\n    tag_117:\n        /* \"#utility.yul\":2916:2919   */\n      dup3\n        /* \"#utility.yul\":2909:2946   */\n      mstore\n        /* \"#utility.yul\":2844:2952   */\n      pop\n      pop\n      jump\t// out\n        /* \"#utility.yul\":2958:3076   */\n    tag_119:\n        /* \"#utility.yul\":3045:3069   */\n      tag_121\n        /* \"#utility.yul\":3063:3068   */\n      dup2\n        /* \"#utility.yul\":3045:3069   */\n      tag_118\n      jump\t// in\n    tag_121:\n        /* \"#utility.yul\":3040:3043   */\n      dup3\n        /* \"#utility.yul\":3033:3070   */\n      mstore\n        /* \"#utility.yul\":2958:3076   */\n      pop\n      pop\n      jump\t// out\n        /* \"#utility.yul\":3208:4252   */\n    tag_122:\n        /* \"#utility.yul\":3405:3408   */\n      0x00\n        /* \"#utility.yul\":3434:3527   */\n      tag_124\n        /* \"#utility.yul\":3521:3526   */\n      dup3\n        /* \"#utility.yul\":3434:3527   */\n      tag_125\n      jump\t// in\n    tag_124:\n        /* \"#utility.yul\":3543:3668   */\n      tag_126\n        /* \"#utility.yul\":3661:3667   */\n      dup2\n        /* \"#utility.yul\":3656:3659   */\n      dup6\n        /* \"#utility.yul\":3543:3668   */\n      tag_127\n      jump\t// in\n    tag_126:\n        /* \"#utility.yul\":3536:3668   */\n      swap4\n      pop\n        /* \"#utility.yul\":3692:3787   */\n      tag_128\n        /* \"#utility.yul\":3781:3786   */\n      dup4\n        /* \"#utility.yul\":3692:3787   */\n      tag_129\n      jump\t// in\n    tag_128:\n        /* \"#utility.yul\":3810:3817   */\n      dup1\n        /* \"#utility.yul\":3841:3842   */\n      0x00\n        /* \"#utility.yul\":3826:4227   */\n    tag_130:\n        /* \"#utility.yul\":3851:3857   */\n      dup4\n        /* \"#utility.yul\":3848:3849   */\n      dup2\n        /* \"#utility.yul\":3845:3858   */\n      lt\n        /* \"#utility.yul\":3826:4227   */\n      iszero\n      tag_132\n      jumpi\n        /* \"#utility.yul\":3927:3933   */\n      dup2\n        /* \"#utility.yul\":3921:3934   */\n      mload\n        /* \"#utility.yul\":3954:4095   */\n      tag_133\n        /* \"#utility.yul\":4091:4094   */\n      dup9\n        /* \"#utility.yul\":4076:4089   */\n      dup3\n        /* \"#utility.yul\":3954:4095   */\n      tag_111\n      jump\t// in\n    tag_133:\n        /* \"#utility.yul\":3947:4095   */\n      swap8\n      pop\n        /* \"#utility.yul\":4118:4217   */\n      tag_134\n        /* \"#utility.yul\":4210:4216   */\n      dup4\n        /* \"#utility.yul\":4118:4217   */\n      tag_135\n      jump\t// in\n    tag_134:\n        /* \"#utility.yul\":4108:4217   */\n      swap3\n      pop\n        /* \"#utility.yul\":3886:4227   */\n      pop\n        /* \"#utility.yul\":3873:3874   */\n      0x01\n        /* \"#utility.yul\":3870:3871   */\n      dup2\n        /* \"#utility.yul\":3866:3875   */\n      add\n        /* \"#utility.yul\":3861:3875   */\n      swap1\n      pop\n        /* \"#utility.yul\":3826:4227   */\n      jump(tag_130)\n    tag_132:\n        /* \"#utility.yul\":3830:3844   */\n      pop\n        /* \"#utility.yul\":4243:4246   */\n      dup6\n        /* \"#utility.yul\":4236:4246   */\n      swap4\n      pop\n        /* \"#utility.yul\":3410:4252   */\n      pop\n      pop\n      pop\n        /* \"#utility.yul\":3208:4252   */\n      swap3\n      swap2\n      pop\n      pop\n      jump\t// out\n        /* \"#utility.yul\":4380:5448   */\n    tag_114:\n        /* \"#utility.yul\":4545:4549   */\n      0xa0\n        /* \"#utility.yul\":4540:4543   */\n      dup3\n        /* \"#utility.yul\":4536:4550   */\n      add\n        /* \"#utility.yul\":4632:4636   */\n      0x00\n        /* \"#utility.yul\":4625:4630   */\n      dup3\n        /* \"#utility.yul\":4621:4637   */\n      add\n        /* \"#utility.yul\":4615:4638   */\n      mload\n        /* \"#utility.yul\":4651:4714   */\n      tag_137\n        /* \"#utility.yul\":4708:4712   */\n      0x00\n        /* \"#utility.yul\":4703:4706   */\n      dup6\n        /* \"#utility.yul\":4699:4713   */\n      add\n        /* \"#utility.yul\":4685:4697   */\n      dup3\n        /* \"#utility.yul\":4651:4714   */\n      tag_138\n      jump\t// in\n    tag_137:\n        /* \"#utility.yul\":4560:4724   */\n      pop\n        /* \"#utility.yul\":4811:4815   */\n      0x20\n        /* \"#utility.yul\":4804:4809   */\n      dup3\n        /* \"#utility.yul\":4800:4816   */\n      add\n        /* \"#utility.yul\":4794:4817   */\n      mload\n        /* \"#utility.yul\":4830:4893   */\n      tag_139\n        /* \"#utility.yul\":4887:4891   */\n      0x20\n        /* \"#utility.yul\":4882:4885   */\n      dup6\n        /* \"#utility.yul\":4878:4892   */\n      add\n        /* \"#utility.yul\":4864:4876   */\n      dup3\n        /* \"#utility.yul\":4830:4893   */\n      tag_115\n      jump\t// in\n    tag_139:\n        /* \"#utility.yul\":4734:4903   */\n      pop\n        /* \"#utility.yul\":4990:4994   */\n      0x40\n        /* \"#utility.yul\":4983:4988   */\n      dup3\n        /* \"#utility.yul\":4979:4995   */\n      add\n        /* \"#utility.yul\":4973:4996   */\n      mload\n        /* \"#utility.yul\":5009:5072   */\n      tag_140\n        /* \"#utility.yul\":5066:5070   */\n      0x40\n        /* \"#utility.yul\":5061:5064   */\n      dup6\n        /* \"#utility.yul\":5057:5071   */\n      add\n        /* \"#utility.yul\":5043:5055   */\n      dup3\n        /* \"#utility.yul\":5009:5072   */\n      tag_115\n      jump\t// in\n    tag_140:\n        /* \"#utility.yul\":4913:5082   */\n      pop\n        /* \"#utility.yul\":5172:5176   */\n      0x60\n        /* \"#utility.yul\":5165:5170   */\n      dup3\n        /* \"#utility.yul\":5161:5177   */\n      add\n        /* \"#utility.yul\":5155:5178   */\n      mload\n        /* \"#utility.yul\":5191:5252   */\n      tag_141\n        /* \"#utility.yul\":5246:5250   */\n      0x60\n        /* \"#utility.yul\":5241:5244   */\n      dup6\n        /* \"#utility.yul\":5237:5251   */\n      add\n        /* \"#utility.yul\":5223:5235   */\n      dup3\n        /* \"#utility.yul\":5191:5252   */\n      tag_142\n      jump\t// in\n    tag_141:\n        /* \"#utility.yul\":5092:5262   */\n      pop\n        /* \"#utility.yul\":5351:5355   */\n      0x80\n        /* \"#utility.yul\":5344:5349   */\n      dup3\n        /* \"#utility.yul\":5340:5356   */\n      add\n        /* \"#utility.yul\":5334:5357   */\n      mload\n        /* \"#utility.yul\":5370:5431   */\n      tag_143\n        /* \"#utility.yul\":5425:5429   */\n      0x80\n        /* \"#utility.yul\":5420:5423   */\n      dup6\n        /* \"#utility.yul\":5416:5430   */\n      add\n        /* \"#utility.yul\":5402:5414   */\n      dup3\n        /* \"#utility.yul\":5370:5431   */\n      tag_142\n      jump\t// in\n    tag_143:\n        /* \"#utility.yul\":5272:5441   */\n      pop\n        /* \"#utility.yul\":4514:5448   */\n      pop\n        /* \"#utility.yul\":4380:5448   */\n      pop\n      pop\n      jump\t// out\n        /* \"#utility.yul\":5576:6654   */\n    tag_144:\n        /* \"#utility.yul\":5751:5755   */\n      0xa0\n        /* \"#utility.yul\":5746:5749   */\n      dup3\n        /* \"#utility.yul\":5742:5756   */\n      add\n        /* \"#utility.yul\":5838:5842   */\n      0x00\n        /* \"#utility.yul\":5831:5836   */\n      dup3\n        /* \"#utility.yul\":5827:5843   */\n      add\n        /* \"#utility.yul\":5821:5844   */\n      mload\n        /* \"#utility.yul\":5857:5920   */\n      tag_146\n        /* \"#utility.yul\":5914:5918   */\n      0x00\n        /* \"#utility.yul\":5909:5912   */\n      dup6\n        /* \"#utility.yul\":5905:5919   */\n      add\n        /* \"#utility.yul\":5891:5903   */\n      dup3\n        /* \"#utility.yul\":5857:5920   */\n      tag_138\n      jump\t// in\n    tag_146:\n        /* \"#utility.yul\":5766:5930   */\n      pop\n        /* \"#utility.yul\":6017:6021   */\n      0x20\n        /* \"#utility.yul\":6010:6015   */\n      dup3\n        /* \"#utility.yul\":6006:6022   */\n      add\n        /* \"#utility.yul\":6000:6023   */\n      mload\n        /* \"#utility.yul\":6036:6099   */\n      tag_147\n        /* \"#utility.yul\":6093:6097   */\n      0x20\n        /* \"#utility.yul\":6088:6091   */\n      dup6\n        /* \"#utility.yul\":6084:6098   */\n      add\n        /* \"#utility.yul\":6070:6082   */\n      dup3\n        /* \"#utility.yul\":6036:6099   */\n      tag_115\n      jump\t// in\n    tag_147:\n        /* \"#utility.yul\":5940:6109   */\n      pop\n        /* \"#utility.yul\":6196:6200   */\n      0x40\n        /* \"#utility.yul\":6189:6194   */\n      dup3\n        /* \"#utility.yul\":6185:6201   */\n      add\n        /* \"#utility.yul\":6179:6202   */\n      mload\n        /* \"#utility.yul\":6215:6278   */\n      tag_148\n        /* \"#utility.yul\":6272:6276   */\n      0x40\n        /* \"#utility.yul\":6267:6270   */\n      dup6\n        /* \"#utility.yul\":6263:6277   */\n      add\n        /* \"#utility.yul\":6249:6261   */\n      dup3\n        /* \"#utility.yul\":6215:6278   */\n      tag_115\n      jump\t// in\n    tag_148:\n        /* \"#utility.yul\":6119:6288   */\n      pop\n        /* \"#utility.yul\":6378:6382   */\n      0x60\n        /* \"#utility.yul\":6371:6376   */\n      dup3\n        /* \"#utility.yul\":6367:6383   */\n      add\n        /* \"#utility.yul\":6361:6384   */\n      mload\n        /* \"#utility.yul\":6397:6458   */\n      tag_149\n        /* \"#utility.yul\":6452:6456   */\n      0x60\n        /* \"#utility.yul\":6447:6450   */\n      dup6\n        /* \"#utility.yul\":6443:6457   */\n      add\n        /* \"#utility.yul\":6429:6441   */\n      dup3\n        /* \"#utility.yul\":6397:6458   */\n      tag_142\n      jump\t// in\n    tag_149:\n        /* \"#utility.yul\":6298:6468   */\n      pop\n        /* \"#utility.yul\":6557:6561   */\n      0x80\n        /* \"#utility.yul\":6550:6555   */\n      dup3\n        /* \"#utility.yul\":6546:6562   */\n      add\n        /* \"#utility.yul\":6540:6563   */\n      mload\n        /* \"#utility.yul\":6576:6637   */\n      tag_150\n        /* \"#utility.yul\":6631:6635   */\n      0x80\n        /* \"#utility.yul\":6626:6629   */\n      dup6\n        /* \"#utility.yul\":6622:6636   */\n      add\n        /* \"#utility.yul\":6608:6620   */\n      dup3\n        /* \"#utility.yul\":6576:6637   */\n      tag_142\n      jump\t// in\n    tag_150:\n        /* \"#utility.yul\":6478:6647   */\n      pop\n        /* \"#utility.yul\":5720:6654   */\n      pop\n        /* \"#utility.yul\":5576:6654   */\n      pop\n      pop\n      jump\t// out\n        /* \"#utility.yul\":6660:6768   */\n    tag_138:\n        /* \"#utility.yul\":6737:6761   */\n      tag_152\n        /* \"#utility.yul\":6755:6760   */\n      dup2\n        /* \"#utility.yul\":6737:6761   */\n      tag_153\n      jump\t// in\n    tag_152:\n        /* \"#utility.yul\":6732:6735   */\n      dup3\n        /* \"#utility.yul\":6725:6762   */\n      mstore\n        /* \"#utility.yul\":6660:6768   */\n      pop\n      pop\n      jump\t// out\n        /* \"#utility.yul\":6774:6892   */\n    tag_154:\n        /* \"#utility.yul\":6861:6885   */\n      tag_156\n        /* \"#utility.yul\":6879:6884   */\n      dup2\n        /* \"#utility.yul\":6861:6885   */\n      tag_153\n      jump\t// in\n    tag_156:\n        /* \"#utility.yul\":6856:6859   */\n      dup3\n        /* \"#utility.yul\":6849:6886   */\n      mstore\n        /* \"#utility.yul\":6774:6892   */\n      pop\n      pop\n      jump\t// out\n        /* \"#utility.yul\":6898:7003   */\n    tag_142:\n        /* \"#utility.yul\":6973:6996   */\n      tag_158\n        /* \"#utility.yul\":6990:6995   */\n      dup2\n        /* \"#utility.yul\":6973:6996   */\n      tag_159\n      jump\t// in\n    tag_158:\n        /* \"#utility.yul\":6968:6971   */\n      dup3\n        /* \"#utility.yul\":6961:6997   */\n      mstore\n        /* \"#utility.yul\":6898:7003   */\n      pop\n      pop\n      jump\t// out\n        /* \"#utility.yul\":7009:7124   */\n    tag_160:\n        /* \"#utility.yul\":7094:7117   */\n      tag_162\n        /* \"#utility.yul\":7111:7116   */\n      dup2\n        /* \"#utility.yul\":7094:7117   */\n      tag_159\n      jump\t// in\n    tag_162:\n        /* \"#utility.yul\":7089:7092   */\n      dup3\n        /* \"#utility.yul\":7082:7118   */\n      mstore\n        /* \"#utility.yul\":7009:7124   */\n      pop\n      pop\n      jump\t// out\n        /* \"#utility.yul\":7130:7568   */\n    tag_74:\n        /* \"#utility.yul\":7277:7281   */\n      0x00\n        /* \"#utility.yul\":7315:7317   */\n      0x60\n        /* \"#utility.yul\":7304:7313   */\n      dup3\n        /* \"#utility.yul\":7300:7318   */\n      add\n        /* \"#utility.yul\":7292:7318   */\n      swap1\n      pop\n        /* \"#utility.yul\":7328:7399   */\n      tag_164\n        /* \"#utility.yul\":7396:7397   */\n      0x00\n        /* \"#utility.yul\":7385:7394   */\n      dup4\n        /* \"#utility.yul\":7381:7398   */\n      add\n        /* \"#utility.yul\":7372:7378   */\n      dup7\n        /* \"#utility.yul\":7328:7399   */\n      tag_119\n      jump\t// in\n    tag_164:\n        /* \"#utility.yul\":7409:7481   */\n      tag_165\n        /* \"#utility.yul\":7477:7479   */\n      0x20\n        /* \"#utility.yul\":7466:7475   */\n      dup4\n        /* \"#utility.yul\":7462:7480   */\n      add\n        /* \"#utility.yul\":7453:7459   */\n      dup6\n        /* \"#utility.yul\":7409:7481   */\n      tag_119\n      jump\t// in\n    tag_165:\n        /* \"#utility.yul\":7491:7561   */\n      tag_166\n        /* \"#utility.yul\":7557:7559   */\n      0x40\n        /* \"#utility.yul\":7546:7555   */\n      dup4\n        /* \"#utility.yul\":7542:7560   */\n      add\n        /* \"#utility.yul\":7533:7539   */\n      dup5\n        /* \"#utility.yul\":7491:7561   */\n      tag_160\n      jump\t// in\n    tag_166:\n        /* \"#utility.yul\":7130:7568   */\n      swap5\n      swap4\n      pop\n      pop\n      pop\n      pop\n      jump\t// out\n        /* \"#utility.yul\":7574:8103   */\n    tag_26:\n        /* \"#utility.yul\":7795:7799   */\n      0x00\n        /* \"#utility.yul\":7833:7835   */\n      0x20\n        /* \"#utility.yul\":7822:7831   */\n      dup3\n        /* \"#utility.yul\":7818:7836   */\n      add\n        /* \"#utility.yul\":7810:7836   */\n      swap1\n      pop\n        /* \"#utility.yul\":7882:7891   */\n      dup2\n        /* \"#utility.yul\":7876:7880   */\n      dup2\n        /* \"#utility.yul\":7872:7892   */\n      sub\n        /* \"#utility.yul\":7868:7869   */\n      0x00\n        /* \"#utility.yul\":7857:7866   */\n      dup4\n        /* \"#utility.yul\":7853:7870   */\n      add\n        /* \"#utility.yul\":7846:7893   */\n      mstore\n        /* \"#utility.yul\":7910:8096   */\n      tag_168\n        /* \"#utility.yul\":8091:8095   */\n      dup2\n        /* \"#utility.yul\":8082:8088   */\n      dup5\n        /* \"#utility.yul\":7910:8096   */\n      tag_122\n      jump\t// in\n    tag_168:\n        /* \"#utility.yul\":7902:8096   */\n      swap1\n      pop\n        /* \"#utility.yul\":7574:8103   */\n      swap3\n      swap2\n      pop\n      pop\n      jump\t// out\n        /* \"#utility.yul\":8109:8488   */\n    tag_31:\n        /* \"#utility.yul\":8280:8284   */\n      0x00\n        /* \"#utility.yul\":8318:8321   */\n      0xa0\n        /* \"#utility.yul\":8307:8316   */\n      dup3\n        /* \"#utility.yul\":8303:8322   */\n      add\n        /* \"#utility.yul\":8295:8322   */\n      swap1\n      pop\n        /* \"#utility.yul\":8332:8481   */\n      tag_170\n        /* \"#utility.yul\":8478:8479   */\n      0x00\n        /* \"#utility.yul\":8467:8476   */\n      dup4\n        /* \"#utility.yul\":8463:8480   */\n      add\n        /* \"#utility.yul\":8454:8460   */\n      dup5\n        /* \"#utility.yul\":8332:8481   */\n      tag_144\n      jump\t// in\n    tag_170:\n        /* \"#utility.yul\":8109:8488   */\n      swap3\n      swap2\n      pop\n      pop\n      jump\t// out\n        /* \"#utility.yul\":8494:8716   */\n    tag_20:\n        /* \"#utility.yul\":8587:8591   */\n      0x00\n        /* \"#utility.yul\":8625:8627   */\n      0x20\n        /* \"#utility.yul\":8614:8623   */\n      dup3\n        /* \"#utility.yul\":8610:8628   */\n      add\n        /* \"#utility.yul\":8602:8628   */\n      swap1\n      pop\n        /* \"#utility.yul\":8638:8709   */\n      tag_172\n        /* \"#utility.yul\":8706:8707   */\n      0x00\n        /* \"#utility.yul\":8695:8704   */\n      dup4\n        /* \"#utility.yul\":8691:8708   */\n      add\n        /* \"#utility.yul\":8682:8688   */\n      dup5\n        /* \"#utility.yul\":8638:8709   */\n      tag_154\n      jump\t// in\n    tag_172:\n        /* \"#utility.yul\":8494:8716   */\n      swap3\n      swap2\n      pop\n      pop\n      jump\t// out\n        /* \"#utility.yul\":8722:9378   */\n    tag_40:\n        /* \"#utility.yul\":8923:8927   */\n      0x00\n        /* \"#utility.yul\":8961:8964   */\n      0xa0\n        /* \"#utility.yul\":8950:8959   */\n      dup3\n        /* \"#utility.yul\":8946:8965   */\n      add\n        /* \"#utility.yul\":8938:8965   */\n      swap1\n      pop\n        /* \"#utility.yul\":8975:9046   */\n      tag_174\n        /* \"#utility.yul\":9043:9044   */\n      0x00\n        /* \"#utility.yul\":9032:9041   */\n      dup4\n        /* \"#utility.yul\":9028:9045   */\n      add\n        /* \"#utility.yul\":9019:9025   */\n      dup9\n        /* \"#utility.yul\":8975:9046   */\n      tag_154\n      jump\t// in\n    tag_174:\n        /* \"#utility.yul\":9056:9128   */\n      tag_175\n        /* \"#utility.yul\":9124:9126   */\n      0x20\n        /* \"#utility.yul\":9113:9122   */\n      dup4\n        /* \"#utility.yul\":9109:9127   */\n      add\n        /* \"#utility.yul\":9100:9106   */\n      dup8\n        /* \"#utility.yul\":9056:9128   */\n      tag_119\n      jump\t// in\n    tag_175:\n        /* \"#utility.yul\":9138:9210   */\n      tag_176\n        /* \"#utility.yul\":9206:9208   */\n      0x40\n        /* \"#utility.yul\":9195:9204   */\n      dup4\n        /* \"#utility.yul\":9191:9209   */\n      add\n        /* \"#utility.yul\":9182:9188   */\n      dup7\n        /* \"#utility.yul\":9138:9210   */\n      tag_119\n      jump\t// in\n    tag_176:\n        /* \"#utility.yul\":9220:9290   */\n      tag_177\n        /* \"#utility.yul\":9286:9288   */\n      0x60\n        /* \"#utility.yul\":9275:9284   */\n      dup4\n        /* \"#utility.yul\":9271:9289   */\n      add\n        /* \"#utility.yul\":9262:9268   */\n      dup6\n        /* \"#utility.yul\":9220:9290   */\n      tag_160\n      jump\t// in\n    tag_177:\n        /* \"#utility.yul\":9300:9371   */\n      tag_178\n        /* \"#utility.yul\":9366:9369   */\n      0x80\n        /* \"#utility.yul\":9355:9364   */\n      dup4\n        /* \"#utility.yul\":9351:9370   */\n      add\n        /* \"#utility.yul\":9342:9348   */\n      dup5\n        /* \"#utility.yul\":9300:9371   */\n      tag_160\n      jump\t// in\n    tag_178:\n        /* \"#utility.yul\":8722:9378   */\n      swap7\n      swap6\n      pop\n      pop\n      pop\n      pop\n      pop\n      pop\n      jump\t// out\n        /* \"#utility.yul\":9384:9602   */\n    tag_46:\n        /* \"#utility.yul\":9475:9479   */\n      0x00\n        /* \"#utility.yul\":9513:9515   */\n      0x20\n        /* \"#utility.yul\":9502:9511   */\n      dup3\n        /* \"#utility.yul\":9498:9516   */\n      add\n        /* \"#utility.yul\":9490:9516   */\n      swap1\n      pop\n        /* \"#utility.yul\":9526:9595   */\n      tag_180\n        /* \"#utility.yul\":9592:9593   */\n      0x00\n        /* \"#utility.yul\":9581:9590   */\n      dup4\n        /* \"#utility.yul\":9577:9594   */\n      add\n        /* \"#utility.yul\":9568:9574   */\n      dup5\n        /* \"#utility.yul\":9526:9595   */\n      tag_160\n      jump\t// in\n    tag_180:\n        /* \"#utility.yul\":9384:9602   */\n      swap3\n      swap2\n      pop\n      pop\n      jump\t// out\n        /* \"#utility.yul\":9689:9860   */\n    tag_129:\n        /* \"#utility.yul\":9795:9799   */\n      0x00\n        /* \"#utility.yul\":9818:9821   */\n      dup2\n        /* \"#utility.yul\":9810:9821   */\n      swap1\n      pop\n        /* \"#utility.yul\":9848:9852   */\n      0x20\n        /* \"#utility.yul\":9843:9846   */\n      dup3\n        /* \"#utility.yul\":9839:9853   */\n      add\n        /* \"#utility.yul\":9831:9853   */\n      swap1\n      pop\n        /* \"#utility.yul\":9689:9860   */\n      swap2\n      swap1\n      pop\n      jump\t// out\n        /* \"#utility.yul\":9866:10019   */\n    tag_125:\n        /* \"#utility.yul\":9972:9978   */\n      0x00\n        /* \"#utility.yul\":10006:10011   */\n      dup2\n        /* \"#utility.yul\":10000:10012   */\n      mload\n        /* \"#utility.yul\":9990:10012   */\n      swap1\n      pop\n        /* \"#utility.yul\":9866:10019   */\n      swap2\n      swap1\n      pop\n      jump\t// out\n        /* \"#utility.yul\":10025:10177   */\n    tag_135:\n        /* \"#utility.yul\":10134:10138   */\n      0x00\n        /* \"#utility.yul\":10166:10170   */\n      0x20\n        /* \"#utility.yul\":10161:10164   */\n      dup3\n        /* \"#utility.yul\":10157:10171   */\n      add\n        /* \"#utility.yul\":10149:10171   */\n      swap1\n      pop\n        /* \"#utility.yul\":10025:10177   */\n      swap2\n      swap1\n      pop\n      jump\t// out\n        /* \"#utility.yul\":10183:10406   */\n    tag_127:\n        /* \"#utility.yul\":10321:10332   */\n      0x00\n        /* \"#utility.yul\":10355:10361   */\n      dup3\n        /* \"#utility.yul\":10350:10353   */\n      dup3\n        /* \"#utility.yul\":10343:10362   */\n      mstore\n        /* \"#utility.yul\":10395:10399   */\n      0x20\n        /* \"#utility.yul\":10390:10393   */\n      dup3\n        /* \"#utility.yul\":10386:10400   */\n      add\n        /* \"#utility.yul\":10371:10400   */\n      swap1\n      pop\n        /* \"#utility.yul\":10183:10406   */\n      swap3\n      swap2\n      pop\n      pop\n      jump\t// out\n        /* \"#utility.yul\":10412:10508   */\n    tag_118:\n        /* \"#utility.yul\":10449:10456   */\n      0x00\n        /* \"#utility.yul\":10478:10502   */\n      tag_188\n        /* \"#utility.yul\":10496:10501   */\n      dup3\n        /* \"#utility.yul\":10478:10502   */\n      tag_189\n      jump\t// in\n    tag_188:\n        /* \"#utility.yul\":10467:10502   */\n      swap1\n      pop\n        /* \"#utility.yul\":10412:10508   */\n      swap2\n      swap1\n      pop\n      jump\t// out\n        /* \"#utility.yul\":10514:10640   */\n    tag_189:\n        /* \"#utility.yul\":10551:10558   */\n      0x00\n        /* \"#utility.yul\":10591:10633   */\n      0xffffffffffffffffffffffffffffffffffffffff\n        /* \"#utility.yul\":10584:10589   */\n      dup3\n        /* \"#utility.yul\":10580:10634   */\n      and\n        /* \"#utility.yul\":10569:10634   */\n      swap1\n      pop\n        /* \"#utility.yul\":10514:10640   */\n      swap2\n      swap1\n      pop\n      jump\t// out\n        /* \"#utility.yul\":10646:10723   */\n    tag_153:\n        /* \"#utility.yul\":10683:10690   */\n      0x00\n        /* \"#utility.yul\":10712:10717   */\n      dup2\n        /* \"#utility.yul\":10701:10717   */\n      swap1\n      pop\n        /* \"#utility.yul\":10646:10723   */\n      swap2\n      swap1\n      pop\n      jump\t// out\n        /* \"#utility.yul\":10729:10822   */\n    tag_159:\n        /* \"#utility.yul\":10765:10772   */\n      0x00\n        /* \"#utility.yul\":10805:10815   */\n      0xffffffff\n        /* \"#utility.yul\":10798:10803   */\n      dup3\n        /* \"#utility.yul\":10794:10816   */\n      and\n        /* \"#utility.yul\":10783:10816   */\n      swap1\n      pop\n        /* \"#utility.yul\":10729:10822   */\n      swap2\n      swap1\n      pop\n      jump\t// out\n        /* \"#utility.yul\":10828:11061   */\n    tag_68:\n        /* \"#utility.yul\":10867:10870   */\n      0x00\n        /* \"#utility.yul\":10890:10914   */\n      tag_194\n        /* \"#utility.yul\":10908:10913   */\n      dup3\n        /* \"#utility.yul\":10890:10914   */\n      tag_153\n      jump\t// in\n    tag_194:\n        /* \"#utility.yul\":10881:10914   */\n      swap2\n      pop\n        /* \"#utility.yul\":10936:11002   */\n      0xffffffffffffffffffffffffffffffffffffffffffffffffffffffffffffffff\n        /* \"#utility.yul\":10929:10934   */\n      dup3\n        /* \"#utility.yul\":10926:11003   */\n      eq\n        /* \"#utility.yul\":10923:11026   */\n      iszero\n      tag_195\n      jumpi\n        /* \"#utility.yul\":11006:11024   */\n      tag_196\n      tag_197\n      jump\t// in\n    tag_196:\n        /* \"#utility.yul\":10923:11026   */\n    tag_195:\n        /* \"#utility.yul\":11053:11054   */\n      0x01\n        /* \"#utility.yul\":11046:11051   */\n      dup3\n        /* \"#utility.yul\":11042:11055   */\n      add\n        /* \"#utility.yul\":11035:11055   */\n      swap1\n      pop\n        /* \"#utility.yul\":10828:11061   */\n      swap2\n      swap1\n      pop\n      jump\t// out\n        /* \"#utility.yul\":11067:11247   */\n    tag_197:\n        /* \"#utility.yul\":11115:11192   */\n      0x4e487b7100000000000000000000000000000000000000000000000000000000\n        /* \"#utility.yul\":11112:11113   */\n      0x00\n        /* \"#utility.yul\":11105:11193   */\n      mstore\n        /* \"#utility.yul\":11212:11216   */\n      0x11\n        /* \"#utility.yul\":11209:11210   */\n      0x04\n        /* \"#utility.yul\":11202:11217   */\n      mstore\n        /* \"#utility.yul\":11236:11240   */\n      0x24\n        /* \"#utility.yul\":11233:11234   */\n      0x00\n        /* \"#utility.yul\":11226:11241   */\n      revert\n        /* \"#utility.yul\":11253:11433   */\n    tag_64:\n        /* \"#utility.yul\":11301:11378   */\n      0x4e487b7100000000000000000000000000000000000000000000000000000000\n        /* \"#utility.yul\":11298:11299   */\n      0x00\n        /* \"#utility.yul\":11291:11379   */\n      mstore\n        /* \"#utility.yul\":11398:11402   */\n      0x32\n        /* \"#utility.yul\":11395:11396   */\n      0x04\n        /* \"#utility.yul\":11388:11403   */\n      mstore\n        /* \"#utility.yul\":11422:11426   */\n      0x24\n        /* \"#utility.yul\":11419:11420   */\n      0x00\n        /* \"#utility.yul\":11412:11427   */\n      revert\n        /* \"#utility.yul\":11439:11619   */\n    tag_54:\n        /* \"#utility.yul\":11487:11564   */\n      0x4e487b7100000000000000000000000000000000000000000000000000000000\n        /* \"#utility.yul\":11484:11485   */\n      0x00\n        /* \"#utility.yul\":11477:11565   */\n      mstore\n        /* \"#utility.yul\":11584:11588   */\n      0x41\n        /* \"#utility.yul\":11581:11582   */\n      0x04\n        /* \"#utility.yul\":11574:11589   */\n      mstore\n        /* \"#utility.yul\":11608:11612   */\n      0x24\n        /* \"#utility.yul\":11605:11606   */\n      0x00\n        /* \"#utility.yul\":11598:11613   */\n      revert\n        /* \"#utility.yul\":11748:11865   */\n    tag_92:\n        /* \"#utility.yul\":11857:11858   */\n      0x00\n        /* \"#utility.yul\":11854:11855   */\n      dup1\n        /* \"#utility.yul\":11847:11859   */\n      revert\n        /* \"#utility.yul\":11871:11993   */\n    tag_80:\n        /* \"#utility.yul\":11944:11968   */\n      tag_205\n        /* \"#utility.yul\":11962:11967   */\n      dup2\n        /* \"#utility.yul\":11944:11968   */\n      tag_118\n      jump\t// in\n    tag_205:\n        /* \"#utility.yul\":11937:11942   */\n      dup2\n        /* \"#utility.yul\":11934:11969   */\n      eq\n        /* \"#utility.yul\":11924:11987   */\n      tag_206\n      jumpi\n        /* \"#utility.yul\":11983:11984   */\n      0x00\n        /* \"#utility.yul\":11980:11981   */\n      dup1\n        /* \"#utility.yul\":11973:11985   */\n      revert\n        /* \"#utility.yul\":11924:11987   */\n    tag_206:\n        /* \"#utility.yul\":11871:11993   */\n      pop\n      jump\t// out\n        /* \"#utility.yul\":11999:12121   */\n    tag_84:\n        /* \"#utility.yul\":12072:12096   */\n      tag_208\n        /* \"#utility.yul\":12090:12095   */\n      dup2\n        /* \"#utility.yul\":12072:12096   */\n      tag_153\n      jump\t// in\n    tag_208:\n        /* \"#utility.yul\":12065:12070   */\n      dup2\n        /* \"#utility.yul\":12062:12097   */\n      eq\n        /* \"#utility.yul\":12052:12115   */\n      tag_209\n      jumpi\n        /* \"#utility.yul\":12111:12112   */\n      0x00\n        /* \"#utility.yul\":12108:12109   */\n      dup1\n        /* \"#utility.yul\":12101:12113   */\n      revert\n        /* \"#utility.yul\":12052:12115   */\n    tag_209:\n        /* \"#utility.yul\":11999:12121   */\n      pop\n      jump\t// out\n        /* \"#utility.yul\":12127:12247   */\n    tag_88:\n        /* \"#utility.yul\":12199:12222   */\n      tag_211\n        /* \"#utility.yul\":12216:12221   */\n      dup2\n        /* \"#utility.yul\":12199:12222   */\n      tag_159\n      jump\t// in\n    tag_211:\n        /* \"#utility.yul\":12192:12197   */\n      dup2\n        /* \"#utility.yul\":12189:12223   */\n      eq\n        /* \"#utility.yul\":12179:12241   */\n      tag_212\n      jumpi\n        /* \"#utility.yul\":12237:12238   */\n      0x00\n        /* \"#utility.yul\":12234:12235   */\n      dup1\n        /* \"#utility.yul\":12227:12239   */\n      revert\n        /* \"#utility.yul\":12179:12241   */\n    tag_212:\n        /* \"#utility.yul\":12127:12247   */\n      pop\n      jump\t// out\n\n    auxdata: 0xa26469706673582212203826880a21ba1e9c2b54a2746fb13723dc71abe68a9f6042c17b12c09e360f4464736f6c63430008070033\n}\n",
				"bytecode": {
					"linkReferences": {},
					"object": "6080604052600160005534801561001557600080fd5b50610eca806100256000396000f3fe608060405234801561001057600080fd5b506004361061007d5760003560e01c8063b9db15b41161005b578063b9db15b4146100fe578063c7414bee1461012e578063cb59d4301461014a578063e3eba9041461017e5761007d565b806329d783281461008257806383f48c961461009e57806396fccba4146100ce575b600080fd5b61009c600480360381019061009791906109aa565b61019c565b005b6100b860048036038101906100b3919061096a565b61020b565b6040516100c59190610c66565b60405180910390f35b6100e860048036038101906100e3919061093d565b61023c565b6040516100f59190610c29565b60405180910390f35b610118600480360381019061011391906109aa565b6104ab565b6040516101259190610c4b565b60405180910390f35b610148600480360381019061014391906109d7565b6105da565b005b610164600480360381019061015f91906109aa565b6107fb565b604051610175959493929190610c81565b60405180910390f35b610186610891565b6040516101939190610c66565b60405180910390f35b426002600083815260200190815260200160002060020160186101000a81548163ffffffff021916908363ffffffff1602179055507f64e64e323422dcfed18a892f84596ccf7cc94b1952625f3cc82e6461b529fff1426040516102009190610cd4565b60405180910390a150565b6003602052816000526040600020818154811061022757600080fd5b90600052602060002001600091509150505481565b60606000600360008473ffffffffffffffffffffffffffffffffffffffff1673ffffffffffffffffffffffffffffffffffffffff1681526020019081526020016000208054806020026020016040519081016040528092919081815260200182805480156102c957602002820191906000526020600020905b8154815260200190600101908083116102b5575b505050505090506000815167ffffffffffffffff8111156102ed576102ec610e1b565b5b60405190808252806020026020018201604052801561032657816020015b610313610897565b81526020019060019003908161030b5790505b50905060005b82518110156104a0576002600084838151811061034c5761034b610dec565b5b602002602001015181526020019081526020016000206040518060a0016040529081600082015481526020016001820160009054906101000a900473ffffffffffffffffffffffffffffffffffffffff1673ffffffffffffffffffffffffffffffffffffffff1673ffffffffffffffffffffffffffffffffffffffff1681526020016002820160009054906101000a900473ffffffffffffffffffffffffffffffffffffffff1673ffffffffffffffffffffffffffffffffffffffff1673ffffffffffffffffffffffffffffffffffffffff1681526020016002820160149054906101000a900463ffffffff1663ffffffff1663ffffffff1681526020016002820160189054906101000a900463ffffffff1663ffffffff1663ffffffff168152505082828151811061048257610481610dec565b5b6020026020010181905250808061049890610d74565b91505061032c565b508092505050919050565b6104b3610897565b600260008381526020019081526020016000206040518060a0016040529081600082015481526020016001820160009054906101000a900473ffffffffffffffffffffffffffffffffffffffff1673ffffffffffffffffffffffffffffffffffffffff1673ffffffffffffffffffffffffffffffffffffffff1681526020016002820160009054906101000a900473ffffffffffffffffffffffffffffffffffffffff1673ffffffffffffffffffffffffffffffffffffffff1673ffffffffffffffffffffffffffffffffffffffff1681526020016002820160149054906101000a900463ffffffff1663ffffffff1663ffffffff1681526020016002820160189054906101000a900463ffffffff1663ffffffff1663ffffffff16815250509050919050565b6040518060a001604052808681526020018573ffffffffffffffffffffffffffffffffffffffff1681526020018473ffffffffffffffffffffffffffffffffffffffff1681526020018363ffffffff1681526020018263ffffffff1681525060026000805481526020019081526020016000206000820151816000015560208201518160010160006101000a81548173ffffffffffffffffffffffffffffffffffffffff021916908373ffffffffffffffffffffffffffffffffffffffff16021790555060408201518160020160006101000a81548173ffffffffffffffffffffffffffffffffffffffff021916908373ffffffffffffffffffffffffffffffffffffffff16021790555060608201518160020160146101000a81548163ffffffff021916908363ffffffff16021790555060808201518160020160186101000a81548163ffffffff021916908363ffffffff160217905550905050600360008473ffffffffffffffffffffffffffffffffffffffff1673ffffffffffffffffffffffffffffffffffffffff1681526020019081526020016000206000549080600181540180825580915050600190039060005260206000200160009091909190915055846000547f3d9c6d7fedf256315259fe8cb6863117af8f4a56f16c0767d72c06359e16e5338686866040516107d593929190610bf2565b60405180910390a36000808154809291906107ef90610d74565b91905055505050505050565b60026020528060005260406000206000915090508060000154908060010160009054906101000a900473ffffffffffffffffffffffffffffffffffffffff16908060020160009054906101000a900473ffffffffffffffffffffffffffffffffffffffff16908060020160149054906101000a900463ffffffff16908060020160189054906101000a900463ffffffff16905085565b60005481565b6040518060a0016040528060008152602001600073ffffffffffffffffffffffffffffffffffffffff168152602001600073ffffffffffffffffffffffffffffffffffffffff168152602001600063ffffffff168152602001600063ffffffff1681525090565b60008135905061090d81610e4f565b92915050565b60008135905061092281610e66565b92915050565b60008135905061093781610e7d565b92915050565b60006020828403121561095357610952610e4a565b5b6000610961848285016108fe565b91505092915050565b6000806040838503121561098157610980610e4a565b5b600061098f858286016108fe565b92505060206109a085828601610913565b9150509250929050565b6000602082840312156109c0576109bf610e4a565b5b60006109ce84828501610913565b91505092915050565b600080600080600060a086880312156109f3576109f2610e4a565b5b6000610a0188828901610913565b9550506020610a12888289016108fe565b9450506040610a23888289016108fe565b9350506060610a3488828901610928565b9250506080610a4588828901610928565b9150509295509295909350565b6000610a5e8383610ae6565b60a08301905092915050565b610a7381610d28565b82525050565b610a8281610d28565b82525050565b6000610a9382610cff565b610a9d8185610d17565b9350610aa883610cef565b8060005b83811015610ad9578151610ac08882610a52565b9750610acb83610d0a565b925050600181019050610aac565b5085935050505092915050565b60a082016000820151610afc6000850182610bb6565b506020820151610b0f6020850182610a6a565b506040820151610b226040850182610a6a565b506060820151610b356060850182610bd4565b506080820151610b486080850182610bd4565b50505050565b60a082016000820151610b646000850182610bb6565b506020820151610b776020850182610a6a565b506040820151610b8a6040850182610a6a565b506060820151610b9d6060850182610bd4565b506080820151610bb06080850182610bd4565b50505050565b610bbf81610d5a565b82525050565b610bce81610d5a565b82525050565b610bdd81610d64565b82525050565b610bec81610d64565b82525050565b6000606082019050610c076000830186610a79565b610c146020830185610a79565b610c216040830184610be3565b949350505050565b60006020820190508181036000830152610c438184610a88565b905092915050565b600060a082019050610c606000830184610b4e565b92915050565b6000602082019050610c7b6000830184610bc5565b92915050565b600060a082019050610c966000830188610bc5565b610ca36020830187610a79565b610cb06040830186610a79565b610cbd6060830185610be3565b610cca6080830184610be3565b9695505050505050565b6000602082019050610ce96000830184610be3565b92915050565b6000819050602082019050919050565b600081519050919050565b6000602082019050919050565b600082825260208201905092915050565b6000610d3382610d3a565b9050919050565b600073ffffffffffffffffffffffffffffffffffffffff82169050919050565b6000819050919050565b600063ffffffff82169050919050565b6000610d7f82610d5a565b91507fffffffffffffffffffffffffffffffffffffffffffffffffffffffffffffffff821415610db257610db1610dbd565b5b600182019050919050565b7f4e487b7100000000000000000000000000000000000000000000000000000000600052601160045260246000fd5b7f4e487b7100000000000000000000000000000000000000000000000000000000600052603260045260246000fd5b7f4e487b7100000000000000000000000000000000000000000000000000000000600052604160045260246000fd5b600080fd5b610e5881610d28565b8114610e6357600080fd5b50565b610e6f81610d5a565b8114610e7a57600080fd5b50565b610e8681610d64565b8114610e9157600080fd5b5056fea26469706673582212203826880a21ba1e9c2b54a2746fb13723dc71abe68a9f6042c17b12c09e360f4464736f6c63430008070033",
					"opcodes": "PUSH1 0x80 PUSH1 0x40 MSTORE PUSH1 0x1 PUSH1 0x0 SSTORE CALLVALUE DUP1 ISZERO PUSH2 0x15 JUMPI PUSH1 0x0 DUP1 REVERT JUMPDEST POP PUSH2 0xECA DUP1 PUSH2 0x25 PUSH1 0x0 CODECOPY PUSH1 0x0 RETURN INVALID PUSH1 0x80 PUSH1 0x40 MSTORE CALLVALUE DUP1 ISZERO PUSH2 0x10 JUMPI PUSH1 0x0 DUP1 REVERT JUMPDEST POP PUSH1 0x4 CALLDATASIZE LT PUSH2 0x7D JUMPI PUSH1 0x0 CALLDATALOAD PUSH1 0xE0 SHR DUP1 PUSH4 0xB9DB15B4 GT PUSH2 0x5B JUMPI DUP1 PUSH4 0xB9DB15B4 EQ PUSH2 0xFE JUMPI DUP1 PUSH4 0xC7414BEE EQ PUSH2 0x12E JUMPI DUP1 PUSH4 0xCB59D430 EQ PUSH2 0x14A JUMPI DUP1 PUSH4 0xE3EBA904 EQ PUSH2 0x17E JUMPI PUSH2 0x7D JUMP JUMPDEST DUP1 PUSH4 0x29D78328 EQ PUSH2 0x82 JUMPI DUP1 PUSH4 0x83F48C96 EQ PUSH2 0x9E JUMPI DUP1 PUSH4 0x96FCCBA4 EQ PUSH2 0xCE JUMPI JUMPDEST PUSH1 0x0 DUP1 REVERT JUMPDEST PUSH2 0x9C PUSH1 0x4 DUP1 CALLDATASIZE SUB DUP2 ADD SWAP1 PUSH2 0x97 SWAP2 SWAP1 PUSH2 0x9AA JUMP JUMPDEST PUSH2 0x19C JUMP JUMPDEST STOP JUMPDEST PUSH2 0xB8 PUSH1 0x4 DUP1 CALLDATASIZE SUB DUP2 ADD SWAP1 PUSH2 0xB3 SWAP2 SWAP1 PUSH2 0x96A JUMP JUMPDEST PUSH2 0x20B JUMP JUMPDEST PUSH1 0x40 MLOAD PUSH2 0xC5 SWAP2 SWAP1 PUSH2 0xC66 JUMP JUMPDEST PUSH1 0x40 MLOAD DUP1 SWAP2 SUB SWAP1 RETURN JUMPDEST PUSH2 0xE8 PUSH1 0x4 DUP1 CALLDATASIZE SUB DUP2 ADD SWAP1 PUSH2 0xE3 SWAP2 SWAP1 PUSH2 0x93D JUMP JUMPDEST PUSH2 0x23C JUMP JUMPDEST PUSH1 0x40 MLOAD PUSH2 0xF5 SWAP2 SWAP1 PUSH2 0xC29 JUMP JUMPDEST PUSH1 0x40 MLOAD DUP1 SWAP2 SUB SWAP1 RETURN JUMPDEST PUSH2 0x118 PUSH1 0x4 DUP1 CALLDATASIZE SUB DUP2 ADD SWAP1 PUSH2 0x113 SWAP2 SWAP1 PUSH2 0x9AA JUMP JUMPDEST PUSH2 0x4AB JUMP JUMPDEST PUSH1 0x40 MLOAD PUSH2 0x125 SWAP2 SWAP1 PUSH2 0xC4B JUMP JUMPDEST PUSH1 0x40 MLOAD DUP1 SWAP2 SUB SWAP1 RETURN JUMPDEST PUSH2 0x148 PUSH1 0x4 DUP1 CALLDATASIZE SUB DUP2 ADD SWAP1 PUSH2 0x143 SWAP2 SWAP1 PUSH2 0x9D7 JUMP JUMPDEST PUSH2 0x5DA JUMP JUMPDEST STOP JUMPDEST PUSH2 0x164 PUSH1 0x4 DUP1 CALLDATASIZE SUB DUP2 ADD SWAP1 PUSH2 0x15F SWAP2 SWAP1 PUSH2 0x9AA JUMP JUMPDEST PUSH2 0x7FB JUMP JUMPDEST PUSH1 0x40 MLOAD PUSH2 0x175 SWAP6 SWAP5 SWAP4 SWAP3 SWAP2 SWAP1 PUSH2 0xC81 JUMP JUMPDEST PUSH1 0x40 MLOAD DUP1 SWAP2 SUB SWAP1 RETURN JUMPDEST PUSH2 0x186 PUSH2 0x891 JUMP JUMPDEST PUSH1 0x40 MLOAD PUSH2 0x193 SWAP2 SWAP1 PUSH2 0xC66 JUMP JUMPDEST PUSH1 0x40 MLOAD DUP1 SWAP2 SUB SWAP1 RETURN JUMPDEST TIMESTAMP PUSH1 0x2 PUSH1 0x0 DUP4 DUP2 MSTORE PUSH1 0x20 ADD SWAP1 DUP2 MSTORE PUSH1 0x20 ADD PUSH1 0x0 KECCAK256 PUSH1 0x2 ADD PUSH1 0x18 PUSH2 0x100 EXP DUP2 SLOAD DUP2 PUSH4 0xFFFFFFFF MUL NOT AND SWAP1 DUP4 PUSH4 0xFFFFFFFF AND MUL OR SWAP1 SSTORE POP PUSH32 0x64E64E323422DCFED18A892F84596CCF7CC94B1952625F3CC82E6461B529FFF1 TIMESTAMP PUSH1 0x40 MLOAD PUSH2 0x200 SWAP2 SWAP1 PUSH2 0xCD4 JUMP JUMPDEST PUSH1 0x40 MLOAD DUP1 SWAP2 SUB SWAP1 LOG1 POP JUMP JUMPDEST PUSH1 0x3 PUSH1 0x20 MSTORE DUP2 PUSH1 0x0 MSTORE PUSH1 0x40 PUSH1 0x0 KECCAK256 DUP2 DUP2 SLOAD DUP2 LT PUSH2 0x227 JUMPI PUSH1 0x0 DUP1 REVERT JUMPDEST SWAP1 PUSH1 0x0 MSTORE PUSH1 0x20 PUSH1 0x0 KECCAK256 ADD PUSH1 0x0 SWAP2 POP SWAP2 POP POP SLOAD DUP2 JUMP JUMPDEST PUSH1 0x60 PUSH1 0x0 PUSH1 0x3 PUSH1 0x0 DUP5 PUSH20 0xFFFFFFFFFFFFFFFFFFFFFFFFFFFFFFFFFFFFFFFF AND PUSH20 0xFFFFFFFFFFFFFFFFFFFFFFFFFFFFFFFFFFFFFFFF AND DUP2 MSTORE PUSH1 0x20 ADD SWAP1 DUP2 MSTORE PUSH1 0x20 ADD PUSH1 0x0 KECCAK256 DUP1 SLOAD DUP1 PUSH1 0x20 MUL PUSH1 0x20 ADD PUSH1 0x40 MLOAD SWAP1 DUP2 ADD PUSH1 0x40 MSTORE DUP1 SWAP3 SWAP2 SWAP1 DUP2 DUP2 MSTORE PUSH1 0x20 ADD DUP3 DUP1 SLOAD DUP1 ISZERO PUSH2 0x2C9 JUMPI PUSH1 0x20 MUL DUP3 ADD SWAP2 SWAP1 PUSH1 0x0 MSTORE PUSH1 0x20 PUSH1 0x0 KECCAK256 SWAP1 JUMPDEST DUP2 SLOAD DUP2 MSTORE PUSH1 0x20 ADD SWAP1 PUSH1 0x1 ADD SWAP1 DUP1 DUP4 GT PUSH2 0x2B5 JUMPI JUMPDEST POP POP POP POP POP SWAP1 POP PUSH1 0x0 DUP2 MLOAD PUSH8 0xFFFFFFFFFFFFFFFF DUP2 GT ISZERO PUSH2 0x2ED JUMPI PUSH2 0x2EC PUSH2 0xE1B JUMP JUMPDEST JUMPDEST PUSH1 0x40 MLOAD SWAP1 DUP1 DUP3 MSTORE DUP1 PUSH1 0x20 MUL PUSH1 0x20 ADD DUP3 ADD PUSH1 0x40 MSTORE DUP1 ISZERO PUSH2 0x326 JUMPI DUP2 PUSH1 0x20 ADD JUMPDEST PUSH2 0x313 PUSH2 0x897 JUMP JUMPDEST DUP2 MSTORE PUSH1 0x20 ADD SWAP1 PUSH1 0x1 SWAP1 SUB SWAP1 DUP2 PUSH2 0x30B JUMPI SWAP1 POP JUMPDEST POP SWAP1 POP PUSH1 0x0 JUMPDEST DUP3 MLOAD DUP2 LT ISZERO PUSH2 0x4A0 JUMPI PUSH1 0x2 PUSH1 0x0 DUP5 DUP4 DUP2 MLOAD DUP2 LT PUSH2 0x34C JUMPI PUSH2 0x34B PUSH2 0xDEC JUMP JUMPDEST JUMPDEST PUSH1 0x20 MUL PUSH1 0x20 ADD ADD MLOAD DUP2 MSTORE PUSH1 0x20 ADD SWAP1 DUP2 MSTORE PUSH1 0x20 ADD PUSH1 0x0 KECCAK256 PUSH1 0x40 MLOAD DUP1 PUSH1 0xA0 ADD PUSH1 0x40 MSTORE SWAP1 DUP2 PUSH1 0x0 DUP3 ADD SLOAD DUP2 MSTORE PUSH1 0x20 ADD PUSH1 0x1 DUP3 ADD PUSH1 0x0 SWAP1 SLOAD SWAP1 PUSH2 0x100 EXP SWAP1 DIV PUSH20 0xFFFFFFFFFFFFFFFFFFFFFFFFFFFFFFFFFFFFFFFF AND PUSH20 0xFFFFFFFFFFFFFFFFFFFFFFFFFFFFFFFFFFFFFFFF AND PUSH20 0xFFFFFFFFFFFFFFFFFFFFFFFFFFFFFFFFFFFFFFFF AND DUP2 MSTORE PUSH1 0x20 ADD PUSH1 0x2 DUP3 ADD PUSH1 0x0 SWAP1 SLOAD SWAP1 PUSH2 0x100 EXP SWAP1 DIV PUSH20 0xFFFFFFFFFFFFFFFFFFFFFFFFFFFFFFFFFFFFFFFF AND PUSH20 0xFFFFFFFFFFFFFFFFFFFFFFFFFFFFFFFFFFFFFFFF AND PUSH20 0xFFFFFFFFFFFFFFFFFFFFFFFFFFFFFFFFFFFFFFFF AND DUP2 MSTORE PUSH1 0x20 ADD PUSH1 0x2 DUP3 ADD PUSH1 0x14 SWAP1 SLOAD SWAP1 PUSH2 0x100 EXP SWAP1 DIV PUSH4 0xFFFFFFFF AND PUSH4 0xFFFFFFFF AND PUSH4 0xFFFFFFFF AND DUP2 MSTORE PUSH1 0x20 ADD PUSH1 0x2 DUP3 ADD PUSH1 0x18 SWAP1 SLOAD SWAP1 PUSH2 0x100 EXP SWAP1 DIV PUSH4 0xFFFFFFFF AND PUSH4 0xFFFFFFFF AND PUSH4 0xFFFFFFFF AND DUP2 MSTORE POP POP DUP3 DUP3 DUP2 MLOAD DUP2 LT PUSH2 0x482 JUMPI PUSH2 0x481 PUSH2 0xDEC JUMP JUMPDEST JUMPDEST PUSH1 0x20 MUL PUSH1 0x20 ADD ADD DUP2 SWAP1 MSTORE POP DUP1 DUP1 PUSH2 0x498 SWAP1 PUSH2 0xD74 JUMP JUMPDEST SWAP2 POP POP PUSH2 0x32C JUMP JUMPDEST POP DUP1 SWAP3 POP POP POP SWAP2 SWAP1 POP JUMP JUMPDEST PUSH2 0x4B3 PUSH2 0x897 JUMP JUMPDEST PUSH1 0x2 PUSH1 0x0 DUP4 DUP2 MSTORE PUSH1 0x20 ADD SWAP1 DUP2 MSTORE PUSH1 0x20 ADD PUSH1 0x0 KECCAK256 PUSH1 0x40 MLOAD DUP1 PUSH1 0xA0 ADD PUSH1 0x40 MSTORE SWAP1 DUP2 PUSH1 0x0 DUP3 ADD SLOAD DUP2 MSTORE PUSH1 0x20 ADD PUSH1 0x1 DUP3 ADD PUSH1 0x0 SWAP1 SLOAD SWAP1 PUSH2 0x100 EXP SWAP1 DIV PUSH20 0xFFFFFFFFFFFFFFFFFFFFFFFFFFFFFFFFFFFFFFFF AND PUSH20 0xFFFFFFFFFFFFFFFFFFFFFFFFFFFFFFFFFFFFFFFF AND PUSH20 0xFFFFFFFFFFFFFFFFFFFFFFFFFFFFFFFFFFFFFFFF AND DUP2 MSTORE PUSH1 0x20 ADD PUSH1 0x2 DUP3 ADD PUSH1 0x0 SWAP1 SLOAD SWAP1 PUSH2 0x100 EXP SWAP1 DIV PUSH20 0xFFFFFFFFFFFFFFFFFFFFFFFFFFFFFFFFFFFFFFFF AND PUSH20 0xFFFFFFFFFFFFFFFFFFFFFFFFFFFFFFFFFFFFFFFF AND PUSH20 0xFFFFFFFFFFFFFFFFFFFFFFFFFFFFFFFFFFFFFFFF AND DUP2 MSTORE PUSH1 0x20 ADD PUSH1 0x2 DUP3 ADD PUSH1 0x14 SWAP1 SLOAD SWAP1 PUSH2 0x100 EXP SWAP1 DIV PUSH4 0xFFFFFFFF AND PUSH4 0xFFFFFFFF AND PUSH4 0xFFFFFFFF AND DUP2 MSTORE PUSH1 0x20 ADD PUSH1 0x2 DUP3 ADD PUSH1 0x18 SWAP1 SLOAD SWAP1 PUSH2 0x100 EXP SWAP1 DIV PUSH4 0xFFFFFFFF AND PUSH4 0xFFFFFFFF AND PUSH4 0xFFFFFFFF AND DUP2 MSTORE POP POP SWAP1 POP SWAP2 SWAP1 POP JUMP JUMPDEST PUSH1 0x40 MLOAD DUP1 PUSH1 0xA0 ADD PUSH1 0x40 MSTORE DUP1 DUP7 DUP2 MSTORE PUSH1 0x20 ADD DUP6 PUSH20 0xFFFFFFFFFFFFFFFFFFFFFFFFFFFFFFFFFFFFFFFF AND DUP2 MSTORE PUSH1 0x20 ADD DUP5 PUSH20 0xFFFFFFFFFFFFFFFFFFFFFFFFFFFFFFFFFFFFFFFF AND DUP2 MSTORE PUSH1 0x20 ADD DUP4 PUSH4 0xFFFFFFFF AND DUP2 MSTORE PUSH1 0x20 ADD DUP3 PUSH4 0xFFFFFFFF AND DUP2 MSTORE POP PUSH1 0x2 PUSH1 0x0 DUP1 SLOAD DUP2 MSTORE PUSH1 0x20 ADD SWAP1 DUP2 MSTORE PUSH1 0x20 ADD PUSH1 0x0 KECCAK256 PUSH1 0x0 DUP3 ADD MLOAD DUP2 PUSH1 0x0 ADD SSTORE PUSH1 0x20 DUP3 ADD MLOAD DUP2 PUSH1 0x1 ADD PUSH1 0x0 PUSH2 0x100 EXP DUP2 SLOAD DUP2 PUSH20 0xFFFFFFFFFFFFFFFFFFFFFFFFFFFFFFFFFFFFFFFF MUL NOT AND SWAP1 DUP4 PUSH20 0xFFFFFFFFFFFFFFFFFFFFFFFFFFFFFFFFFFFFFFFF AND MUL OR SWAP1 SSTORE POP PUSH1 0x40 DUP3 ADD MLOAD DUP2 PUSH1 0x2 ADD PUSH1 0x0 PUSH2 0x100 EXP DUP2 SLOAD DUP2 PUSH20 0xFFFFFFFFFFFFFFFFFFFFFFFFFFFFFFFFFFFFFFFF MUL NOT AND SWAP1 DUP4 PUSH20 0xFFFFFFFFFFFFFFFFFFFFFFFFFFFFFFFFFFFFFFFF AND MUL OR SWAP1 SSTORE POP PUSH1 0x60 DUP3 ADD MLOAD DUP2 PUSH1 0x2 ADD PUSH1 0x14 PUSH2 0x100 EXP DUP2 SLOAD DUP2 PUSH4 0xFFFFFFFF MUL NOT AND SWAP1 DUP4 PUSH4 0xFFFFFFFF AND MUL OR SWAP1 SSTORE POP PUSH1 0x80 DUP3 ADD MLOAD DUP2 PUSH1 0x2 ADD PUSH1 0x18 PUSH2 0x100 EXP DUP2 SLOAD DUP2 PUSH4 0xFFFFFFFF MUL NOT AND SWAP1 DUP4 PUSH4 0xFFFFFFFF AND MUL OR SWAP1 SSTORE POP SWAP1 POP POP PUSH1 0x3 PUSH1 0x0 DUP5 PUSH20 0xFFFFFFFFFFFFFFFFFFFFFFFFFFFFFFFFFFFFFFFF AND PUSH20 0xFFFFFFFFFFFFFFFFFFFFFFFFFFFFFFFFFFFFFFFF AND DUP2 MSTORE PUSH1 0x20 ADD SWAP1 DUP2 MSTORE PUSH1 0x20 ADD PUSH1 0x0 KECCAK256 PUSH1 0x0 SLOAD SWAP1 DUP1 PUSH1 0x1 DUP2 SLOAD ADD DUP1 DUP3 SSTORE DUP1 SWAP2 POP POP PUSH1 0x1 SWAP1 SUB SWAP1 PUSH1 0x0 MSTORE PUSH1 0x20 PUSH1 0x0 KECCAK256 ADD PUSH1 0x0 SWAP1 SWAP2 SWAP1 SWAP2 SWAP1 SWAP2 POP SSTORE DUP5 PUSH1 0x0 SLOAD PUSH32 0x3D9C6D7FEDF256315259FE8CB6863117AF8F4A56F16C0767D72C06359E16E533 DUP7 DUP7 DUP7 PUSH1 0x40 MLOAD PUSH2 0x7D5 SWAP4 SWAP3 SWAP2 SWAP1 PUSH2 0xBF2 JUMP JUMPDEST PUSH1 0x40 MLOAD DUP1 SWAP2 SUB SWAP1 LOG3 PUSH1 0x0 DUP1 DUP2 SLOAD DUP1 SWAP3 SWAP2 SWAP1 PUSH2 0x7EF SWAP1 PUSH2 0xD74 JUMP JUMPDEST SWAP2 SWAP1 POP SSTORE POP POP POP POP POP POP JUMP JUMPDEST PUSH1 0x2 PUSH1 0x20 MSTORE DUP1 PUSH1 0x0 MSTORE PUSH1 0x40 PUSH1 0x0 KECCAK256 PUSH1 0x0 SWAP2 POP SWAP1 POP DUP1 PUSH1 0x0 ADD SLOAD SWAP1 DUP1 PUSH1 0x1 ADD PUSH1 0x0 SWAP1 SLOAD SWAP1 PUSH2 0x100 EXP SWAP1 DIV PUSH20 0xFFFFFFFFFFFFFFFFFFFFFFFFFFFFFFFFFFFFFFFF AND SWAP1 DUP1 PUSH1 0x2 ADD PUSH1 0x0 SWAP1 SLOAD SWAP1 PUSH2 0x100 EXP SWAP1 DIV PUSH20 0xFFFFFFFFFFFFFFFFFFFFFFFFFFFFFFFFFFFFFFFF AND SWAP1 DUP1 PUSH1 0x2 ADD PUSH1 0x14 SWAP1 SLOAD SWAP1 PUSH2 0x100 EXP SWAP1 DIV PUSH4 0xFFFFFFFF AND SWAP1 DUP1 PUSH1 0x2 ADD PUSH1 0x18 SWAP1 SLOAD SWAP1 PUSH2 0x100 EXP SWAP1 DIV PUSH4 0xFFFFFFFF AND SWAP1 POP DUP6 JUMP JUMPDEST PUSH1 0x0 SLOAD DUP2 JUMP JUMPDEST PUSH1 0x40 MLOAD DUP1 PUSH1 0xA0 ADD PUSH1 0x40 MSTORE DUP1 PUSH1 0x0 DUP2 MSTORE PUSH1 0x20 ADD PUSH1 0x0 PUSH20 0xFFFFFFFFFFFFFFFFFFFFFFFFFFFFFFFFFFFFFFFF AND DUP2 MSTORE PUSH1 0x20 ADD PUSH1 0x0 PUSH20 0xFFFFFFFFFFFFFFFFFFFFFFFFFFFFFFFFFFFFFFFF AND DUP2 MSTORE PUSH1 0x20 ADD PUSH1 0x0 PUSH4 0xFFFFFFFF AND DUP2 MSTORE PUSH1 0x20 ADD PUSH1 0x0 PUSH4 0xFFFFFFFF AND DUP2 MSTORE POP SWAP1 JUMP JUMPDEST PUSH1 0x0 DUP2 CALLDATALOAD SWAP1 POP PUSH2 0x90D DUP2 PUSH2 0xE4F JUMP JUMPDEST SWAP3 SWAP2 POP POP JUMP JUMPDEST PUSH1 0x0 DUP2 CALLDATALOAD SWAP1 POP PUSH2 0x922 DUP2 PUSH2 0xE66 JUMP JUMPDEST SWAP3 SWAP2 POP POP JUMP JUMPDEST PUSH1 0x0 DUP2 CALLDATALOAD SWAP1 POP PUSH2 0x937 DUP2 PUSH2 0xE7D JUMP JUMPDEST SWAP3 SWAP2 POP POP JUMP JUMPDEST PUSH1 0x0 PUSH1 0x20 DUP3 DUP5 SUB SLT ISZERO PUSH2 0x953 JUMPI PUSH2 0x952 PUSH2 0xE4A JUMP JUMPDEST JUMPDEST PUSH1 0x0 PUSH2 0x961 DUP5 DUP3 DUP6 ADD PUSH2 0x8FE JUMP JUMPDEST SWAP2 POP POP SWAP3 SWAP2 POP POP JUMP JUMPDEST PUSH1 0x0 DUP1 PUSH1 0x40 DUP4 DUP6 SUB SLT ISZERO PUSH2 0x981 JUMPI PUSH2 0x980 PUSH2 0xE4A JUMP JUMPDEST JUMPDEST PUSH1 0x0 PUSH2 0x98F DUP6 DUP3 DUP7 ADD PUSH2 0x8FE JUMP JUMPDEST SWAP3 POP POP PUSH1 0x20 PUSH2 0x9A0 DUP6 DUP3 DUP7 ADD PUSH2 0x913 JUMP JUMPDEST SWAP2 POP POP SWAP3 POP SWAP3 SWAP1 POP JUMP JUMPDEST PUSH1 0x0 PUSH1 0x20 DUP3 DUP5 SUB SLT ISZERO PUSH2 0x9C0 JUMPI PUSH2 0x9BF PUSH2 0xE4A JUMP JUMPDEST JUMPDEST PUSH1 0x0 PUSH2 0x9CE DUP5 DUP3 DUP6 ADD PUSH2 0x913 JUMP JUMPDEST SWAP2 POP POP SWAP3 SWAP2 POP POP JUMP JUMPDEST PUSH1 0x0 DUP1 PUSH1 0x0 DUP1 PUSH1 0x0 PUSH1 0xA0 DUP7 DUP9 SUB SLT ISZERO PUSH2 0x9F3 JUMPI PUSH2 0x9F2 PUSH2 0xE4A JUMP JUMPDEST JUMPDEST PUSH1 0x0 PUSH2 0xA01 DUP9 DUP3 DUP10 ADD PUSH2 0x913 JUMP JUMPDEST SWAP6 POP POP PUSH1 0x20 PUSH2 0xA12 DUP9 DUP3 DUP10 ADD PUSH2 0x8FE JUMP JUMPDEST SWAP5 POP POP PUSH1 0x40 PUSH2 0xA23 DUP9 DUP3 DUP10 ADD PUSH2 0x8FE JUMP JUMPDEST SWAP4 POP POP PUSH1 0x60 PUSH2 0xA34 DUP9 DUP3 DUP10 ADD PUSH2 0x928 JUMP JUMPDEST SWAP3 POP POP PUSH1 0x80 PUSH2 0xA45 DUP9 DUP3 DUP10 ADD PUSH2 0x928 JUMP JUMPDEST SWAP2 POP POP SWAP3 SWAP6 POP SWAP3 SWAP6 SWAP1 SWAP4 POP JUMP JUMPDEST PUSH1 0x0 PUSH2 0xA5E DUP4 DUP4 PUSH2 0xAE6 JUMP JUMPDEST PUSH1 0xA0 DUP4 ADD SWAP1 POP SWAP3 SWAP2 POP POP JUMP JUMPDEST PUSH2 0xA73 DUP2 PUSH2 0xD28 JUMP JUMPDEST DUP3 MSTORE POP POP JUMP JUMPDEST PUSH2 0xA82 DUP2 PUSH2 0xD28 JUMP JUMPDEST DUP3 MSTORE POP POP JUMP JUMPDEST PUSH1 0x0 PUSH2 0xA93 DUP3 PUSH2 0xCFF JUMP JUMPDEST PUSH2 0xA9D DUP2 DUP6 PUSH2 0xD17 JUMP JUMPDEST SWAP4 POP PUSH2 0xAA8 DUP4 PUSH2 0xCEF JUMP JUMPDEST DUP1 PUSH1 0x0 JUMPDEST DUP4 DUP2 LT ISZERO PUSH2 0xAD9 JUMPI DUP2 MLOAD PUSH2 0xAC0 DUP9 DUP3 PUSH2 0xA52 JUMP JUMPDEST SWAP8 POP PUSH2 0xACB DUP4 PUSH2 0xD0A JUMP JUMPDEST SWAP3 POP POP PUSH1 0x1 DUP2 ADD SWAP1 POP PUSH2 0xAAC JUMP JUMPDEST POP DUP6 SWAP4 POP POP POP POP SWAP3 SWAP2 POP POP JUMP JUMPDEST PUSH1 0xA0 DUP3 ADD PUSH1 0x0 DUP3 ADD MLOAD PUSH2 0xAFC PUSH1 0x0 DUP6 ADD DUP3 PUSH2 0xBB6 JUMP JUMPDEST POP PUSH1 0x20 DUP3 ADD MLOAD PUSH2 0xB0F PUSH1 0x20 DUP6 ADD DUP3 PUSH2 0xA6A JUMP JUMPDEST POP PUSH1 0x40 DUP3 ADD MLOAD PUSH2 0xB22 PUSH1 0x40 DUP6 ADD DUP3 PUSH2 0xA6A JUMP JUMPDEST POP PUSH1 0x60 DUP3 ADD MLOAD PUSH2 0xB35 PUSH1 0x60 DUP6 ADD DUP3 PUSH2 0xBD4 JUMP JUMPDEST POP PUSH1 0x80 DUP3 ADD MLOAD PUSH2 0xB48 PUSH1 0x80 DUP6 ADD DUP3 PUSH2 0xBD4 JUMP JUMPDEST POP POP POP POP JUMP JUMPDEST PUSH1 0xA0 DUP3 ADD PUSH1 0x0 DUP3 ADD MLOAD PUSH2 0xB64 PUSH1 0x0 DUP6 ADD DUP3 PUSH2 0xBB6 JUMP JUMPDEST POP PUSH1 0x20 DUP3 ADD MLOAD PUSH2 0xB77 PUSH1 0x20 DUP6 ADD DUP3 PUSH2 0xA6A JUMP JUMPDEST POP PUSH1 0x40 DUP3 ADD MLOAD PUSH2 0xB8A PUSH1 0x40 DUP6 ADD DUP3 PUSH2 0xA6A JUMP JUMPDEST POP PUSH1 0x60 DUP3 ADD MLOAD PUSH2 0xB9D PUSH1 0x60 DUP6 ADD DUP3 PUSH2 0xBD4 JUMP JUMPDEST POP PUSH1 0x80 DUP3 ADD MLOAD PUSH2 0xBB0 PUSH1 0x80 DUP6 ADD DUP3 PUSH2 0xBD4 JUMP JUMPDEST POP POP POP POP JUMP JUMPDEST PUSH2 0xBBF DUP2 PUSH2 0xD5A JUMP JUMPDEST DUP3 MSTORE POP POP JUMP JUMPDEST PUSH2 0xBCE DUP2 PUSH2 0xD5A JUMP JUMPDEST DUP3 MSTORE POP POP JUMP JUMPDEST PUSH2 0xBDD DUP2 PUSH2 0xD64 JUMP JUMPDEST DUP3 MSTORE POP POP JUMP JUMPDEST PUSH2 0xBEC DUP2 PUSH2 0xD64 JUMP JUMPDEST DUP3 MSTORE POP POP JUMP JUMPDEST PUSH1 0x0 PUSH1 0x60 DUP3 ADD SWAP1 POP PUSH2 0xC07 PUSH1 0x0 DUP4 ADD DUP7 PUSH2 0xA79 JUMP JUMPDEST PUSH2 0xC14 PUSH1 0x20 DUP4 ADD DUP6 PUSH2 0xA79 JUMP JUMPDEST PUSH2 0xC21 PUSH1 0x40 DUP4 ADD DUP5 PUSH2 0xBE3 JUMP JUMPDEST SWAP5 SWAP4 POP POP POP POP JUMP JUMPDEST PUSH1 0x0 PUSH1 0x20 DUP3 ADD SWAP1 POP DUP2 DUP2 SUB PUSH1 0x0 DUP4 ADD MSTORE PUSH2 0xC43 DUP2 DUP5 PUSH2 0xA88 JUMP JUMPDEST SWAP1 POP SWAP3 SWAP2 POP POP JUMP JUMPDEST PUSH1 0x0 PUSH1 0xA0 DUP3 ADD SWAP1 POP PUSH2 0xC60 PUSH1 0x0 DUP4 ADD DUP5 PUSH2 0xB4E JUMP JUMPDEST SWAP3 SWAP2 POP POP JUMP JUMPDEST PUSH1 0x0 PUSH1 0x20 DUP3 ADD SWAP1 POP PUSH2 0xC7B PUSH1 0x0 DUP4 ADD DUP5 PUSH2 0xBC5 JUMP JUMPDEST SWAP3 SWAP2 POP POP JUMP JUMPDEST PUSH1 0x0 PUSH1 0xA0 DUP3 ADD SWAP1 POP PUSH2 0xC96 PUSH1 0x0 DUP4 ADD DUP9 PUSH2 0xBC5 JUMP JUMPDEST PUSH2 0xCA3 PUSH1 0x20 DUP4 ADD DUP8 PUSH2 0xA79 JUMP JUMPDEST PUSH2 0xCB0 PUSH1 0x40 DUP4 ADD DUP7 PUSH2 0xA79 JUMP JUMPDEST PUSH2 0xCBD PUSH1 0x60 DUP4 ADD DUP6 PUSH2 0xBE3 JUMP JUMPDEST PUSH2 0xCCA PUSH1 0x80 DUP4 ADD DUP5 PUSH2 0xBE3 JUMP JUMPDEST SWAP7 SWAP6 POP POP POP POP POP POP JUMP JUMPDEST PUSH1 0x0 PUSH1 0x20 DUP3 ADD SWAP1 POP PUSH2 0xCE9 PUSH1 0x0 DUP4 ADD DUP5 PUSH2 0xBE3 JUMP JUMPDEST SWAP3 SWAP2 POP POP JUMP JUMPDEST PUSH1 0x0 DUP2 SWAP1 POP PUSH1 0x20 DUP3 ADD SWAP1 POP SWAP2 SWAP1 POP JUMP JUMPDEST PUSH1 0x0 DUP2 MLOAD SWAP1 POP SWAP2 SWAP1 POP JUMP JUMPDEST PUSH1 0x0 PUSH1 0x20 DUP3 ADD SWAP1 POP SWAP2 SWAP1 POP JUMP JUMPDEST PUSH1 0x0 DUP3 DUP3 MSTORE PUSH1 0x20 DUP3 ADD SWAP1 POP SWAP3 SWAP2 POP POP JUMP JUMPDEST PUSH1 0x0 PUSH2 0xD33 DUP3 PUSH2 0xD3A JUMP JUMPDEST SWAP1 POP SWAP2 SWAP1 POP JUMP JUMPDEST PUSH1 0x0 PUSH20 0xFFFFFFFFFFFFFFFFFFFFFFFFFFFFFFFFFFFFFFFF DUP3 AND SWAP1 POP SWAP2 SWAP1 POP JUMP JUMPDEST PUSH1 0x0 DUP2 SWAP1 POP SWAP2 SWAP1 POP JUMP JUMPDEST PUSH1 0x0 PUSH4 0xFFFFFFFF DUP3 AND SWAP1 POP SWAP2 SWAP1 POP JUMP JUMPDEST PUSH1 0x0 PUSH2 0xD7F DUP3 PUSH2 0xD5A JUMP JUMPDEST SWAP2 POP PUSH32 0xFFFFFFFFFFFFFFFFFFFFFFFFFFFFFFFFFFFFFFFFFFFFFFFFFFFFFFFFFFFFFFFF DUP3 EQ ISZERO PUSH2 0xDB2 JUMPI PUSH2 0xDB1 PUSH2 0xDBD JUMP JUMPDEST JUMPDEST PUSH1 0x1 DUP3 ADD SWAP1 POP SWAP2 SWAP1 POP JUMP JUMPDEST PUSH32 0x4E487B7100000000000000000000000000000000000000000000000000000000 PUSH1 0x0 MSTORE PUSH1 0x11 PUSH1 0x4 MSTORE PUSH1 0x24 PUSH1 0x0 REVERT JUMPDEST PUSH32 0x4E487B7100000000000000000000000000000000000000000000000000000000 PUSH1 0x0 MSTORE PUSH1 0x32 PUSH1 0x4 MSTORE PUSH1 0x24 PUSH1 0x0 REVERT JUMPDEST PUSH32 0x4E487B7100000000000000000000000000000000000000000000000000000000 PUSH1 0x0 MSTORE PUSH1 0x41 PUSH1 0x4 MSTORE PUSH1 0x24 PUSH1 0x0 REVERT JUMPDEST PUSH1 0x0 DUP1 REVERT JUMPDEST PUSH2 0xE58 DUP2 PUSH2 0xD28 JUMP JUMPDEST DUP2 EQ PUSH2 0xE63 JUMPI PUSH1 0x0 DUP1 REVERT JUMPDEST POP JUMP JUMPDEST PUSH2 0xE6F DUP2 PUSH2 0xD5A JUMP JUMPDEST DUP2 EQ PUSH2 0xE7A JUMPI PUSH1 0x0 DUP1 REVERT JUMPDEST POP JUMP JUMPDEST PUSH2 0xE86 DUP2 PUSH2 0xD64 JUMP JUMPDEST DUP2 EQ PUSH2 0xE91 JUMPI PUSH1 0x0 DUP1 REVERT JUMPDEST POP JUMP INVALID LOG2 PUSH5 0x6970667358 0x22 SLT KECCAK256 CODESIZE 0x26 DUP9 EXP 0x21 0xBA 0x1E SWAP13 0x2B SLOAD LOG2 PUSH21 0x6FB13723DC71ABE68A9F6042C17B12C09E360F4464 PUSH20 0x6F6C634300080700330000000000000000000000 "
				},
				"gasEstimates": {
					"creation": {
						"codeDepositCost": "757200",
						"executionCost": "22898",
						"totalCost": "780098"
					},
					"external": {
						"distributorTosmIDMapping(address,uint256)": "infinite",
						"getAllmdIdForManufacturer(address)": "infinite",
						"getProduct(uint256)": "infinite",
						"mdId()": "2495",
						"mdidToStructMapping(uint256)": "infinite",
						"receiveProduct(uint256)": "26003",
						"transferproduct(uint256,address,address,uint32,uint32)": "infinite"
					}
				},
				"methodIdentifiers": {
					"distributorTosmIDMapping(address,uint256)": "83f48c96",
					"getAllmdIdForManufacturer(address)": "96fccba4",
					"getProduct(uint256)": "b9db15b4",
					"mdId()": "e3eba904",
					"mdidToStructMapping(uint256)": "cb59d430",
					"receiveProduct(uint256)": "29d78328",
					"transferproduct(uint256,address,address,uint32,uint32)": "c7414bee"
				}
			},
			"storageLayout": {
				"storage": [
					{
						"astId": 39,
						"contract": "contracts/manufacturerDistributor.sol:manufacturerDistributor",
						"label": "mdId",
						"offset": 0,
						"slot": "0",
						"type": "t_uint256"
					},
					{
						"astId": 42,
						"contract": "contracts/manufacturerDistributor.sol:manufacturerDistributor",
						"label": "alltransfers",
						"offset": 0,
						"slot": "1",
						"type": "t_array(t_uint256)dyn_storage"
					},
					{
						"astId": 63,
						"contract": "contracts/manufacturerDistributor.sol:manufacturerDistributor",
						"label": "mdidToStructMapping",
						"offset": 0,
						"slot": "2",
						"type": "t_mapping(t_uint256,t_struct(manufacturerDistributor)12_storage)"
					},
					{
						"astId": 68,
						"contract": "contracts/manufacturerDistributor.sol:manufacturerDistributor",
						"label": "distributorTosmIDMapping",
						"offset": 0,
						"slot": "3",
						"type": "t_mapping(t_address,t_array(t_uint256)dyn_storage)"
					}
				],
				"types": {
					"t_address": {
						"encoding": "inplace",
						"label": "address",
						"numberOfBytes": "20"
					},
					"t_array(t_uint256)dyn_storage": {
						"base": "t_uint256",
						"encoding": "dynamic_array",
						"label": "uint256[]",
						"numberOfBytes": "32"
					},
					"t_mapping(t_address,t_array(t_uint256)dyn_storage)": {
						"encoding": "mapping",
						"key": "t_address",
						"label": "mapping(address => uint256[])",
						"numberOfBytes": "32",
						"value": "t_array(t_uint256)dyn_storage"
					},
					"t_mapping(t_uint256,t_struct(manufacturerDistributor)12_storage)": {
						"encoding": "mapping",
						"key": "t_uint256",
						"label": "mapping(uint256 => struct IManufacturerDistributor.manufacturerDistributor)",
						"numberOfBytes": "32",
						"value": "t_struct(manufacturerDistributor)12_storage"
					},
					"t_struct(manufacturerDistributor)12_storage": {
						"encoding": "inplace",
						"label": "struct IManufacturerDistributor.manufacturerDistributor",
						"members": [
							{
								"astId": 3,
								"contract": "contracts/manufacturerDistributor.sol:manufacturerDistributor",
								"label": "mpId",
								"offset": 0,
								"slot": "0",
								"type": "t_uint256"
							},
							{
								"astId": 5,
								"contract": "contracts/manufacturerDistributor.sol:manufacturerDistributor",
								"label": "m_address",
								"offset": 0,
								"slot": "1",
								"type": "t_address"
							},
							{
								"astId": 7,
								"contract": "contracts/manufacturerDistributor.sol:manufacturerDistributor",
								"label": "d_address",
								"offset": 0,
								"slot": "2",
								"type": "t_address"
							},
							{
								"astId": 9,
								"contract": "contracts/manufacturerDistributor.sol:manufacturerDistributor",
								"label": "dispatchTime",
								"offset": 20,
								"slot": "2",
								"type": "t_uint32"
							},
							{
								"astId": 11,
								"contract": "contracts/manufacturerDistributor.sol:manufacturerDistributor",
								"label": "arrivalTime",
								"offset": 24,
								"slot": "2",
								"type": "t_uint32"
							}
						],
						"numberOfBytes": "96"
					},
					"t_uint256": {
						"encoding": "inplace",
						"label": "uint256",
						"numberOfBytes": "32"
					},
					"t_uint32": {
						"encoding": "inplace",
						"label": "uint32",
						"numberOfBytes": "4"
					}
				}
			},
			"userdoc": {
				"kind": "user",
				"methods": {},
				"version": 1
			}
		}
	}
}