{
	"contracts/manufacturerProduct.sol": {
		"manufacturerProduct": {
			"abi": [
				{
					"anonymous": false,
					"inputs": [
						{
							"indexed": true,
							"internalType": "uint256",
							"name": "_mpId",
							"type": "uint256"
						},
						{
							"indexed": false,
							"internalType": "address[]",
							"name": "_supplierAddress",
							"type": "address[]"
						},
						{
							"indexed": false,
							"internalType": "uint256[]",
							"name": "_smId",
							"type": "uint256[]"
						},
						{
							"indexed": false,
							"internalType": "bytes",
							"name": "_name",
							"type": "bytes"
						},
						{
							"indexed": false,
							"internalType": "bytes",
							"name": "_description",
							"type": "bytes"
						},
						{
							"indexed": false,
							"internalType": "uint128",
							"name": "_unit",
							"type": "uint128"
						},
						{
							"indexed": false,
							"internalType": "uint128",
							"name": "_price",
							"type": "uint128"
						},
						{
							"indexed": false,
							"internalType": "uint32",
							"name": "_date",
							"type": "uint32"
						},
						{
							"indexed": false,
							"internalType": "uint32",
							"name": "_expiryDate",
							"type": "uint32"
						}
					],
					"name": "eventAddManufacturerProduct",
					"type": "event"
				},
				{
					"anonymous": false,
					"inputs": [
						{
							"indexed": false,
							"internalType": "uint256",
							"name": "_mpId",
							"type": "uint256"
						}
					],
					"name": "eventDeleteManufacturerProduct",
					"type": "event"
				},
				{
					"anonymous": false,
					"inputs": [
						{
							"indexed": true,
							"internalType": "uint256",
							"name": "_dpId",
							"type": "uint256"
						},
						{
							"indexed": false,
							"internalType": "uint128",
							"name": "_quantity",
							"type": "uint128"
						}
					],
					"name": "eventUpdateManufacturerProductUints",
					"type": "event"
				},
				{
					"inputs": [
						{
							"internalType": "address[]",
							"name": "_supplierAddress",
							"type": "address[]"
						},
						{
							"internalType": "uint256[]",
							"name": "_smId",
							"type": "uint256[]"
						},
						{
							"internalType": "bytes",
							"name": "_name",
							"type": "bytes"
						},
						{
							"internalType": "bytes",
							"name": "_description",
							"type": "bytes"
						},
						{
							"internalType": "uint128",
							"name": "_unit",
							"type": "uint128"
						},
						{
							"internalType": "uint128",
							"name": "_price",
							"type": "uint128"
						},
						{
							"internalType": "uint32",
							"name": "_date",
							"type": "uint32"
						},
						{
							"internalType": "uint32",
							"name": "_expiryDate",
							"type": "uint32"
						}
					],
					"name": "addManufacturerProduct",
					"outputs": [],
					"stateMutability": "nonpayable",
					"type": "function"
				},
				{
					"inputs": [
						{
							"internalType": "uint256",
							"name": "_mpId",
							"type": "uint256"
						}
					],
					"name": "deleteManufacturerProduct",
					"outputs": [],
					"stateMutability": "nonpayable",
					"type": "function"
				},
				{
					"inputs": [
						{
							"internalType": "address",
							"name": "_manufacturerAddress",
							"type": "address"
						}
					],
					"name": "getAllProductsOfManufacturer",
					"outputs": [
						{
							"components": [
								{
									"internalType": "address[]",
									"name": "supplierAddress",
									"type": "address[]"
								},
								{
									"internalType": "uint256[]",
									"name": "smId",
									"type": "uint256[]"
								},
								{
									"internalType": "bytes",
									"name": "mp_name",
									"type": "bytes"
								},
								{
									"internalType": "bytes",
									"name": "mp_description",
									"type": "bytes"
								},
								{
									"internalType": "uint128",
									"name": "mp_unit",
									"type": "uint128"
								},
								{
									"internalType": "uint128",
									"name": "mp_price",
									"type": "uint128"
								},
								{
									"internalType": "uint32",
									"name": "mp_date",
									"type": "uint32"
								},
								{
									"internalType": "uint32",
									"name": "mp_expiryDate",
									"type": "uint32"
								},
								{
									"internalType": "bool",
									"name": "mp_status",
									"type": "bool"
								}
							],
							"internalType": "struct IManufacturerProduct.manufacturerProduct[]",
							"name": "",
							"type": "tuple[]"
						}
					],
					"stateMutability": "view",
					"type": "function"
				},
				{
					"inputs": [],
					"name": "getManufacturerProductIds",
					"outputs": [
						{
							"internalType": "uint256[]",
							"name": "",
							"type": "uint256[]"
						}
					],
					"stateMutability": "view",
					"type": "function"
				},
				{
					"inputs": [
						{
							"internalType": "uint256",
							"name": "_mpId",
							"type": "uint256"
						}
					],
					"name": "getSingleManufacturerProduct",
					"outputs": [
						{
							"components": [
								{
									"internalType": "address[]",
									"name": "supplierAddress",
									"type": "address[]"
								},
								{
									"internalType": "uint256[]",
									"name": "smId",
									"type": "uint256[]"
								},
								{
									"internalType": "bytes",
									"name": "mp_name",
									"type": "bytes"
								},
								{
									"internalType": "bytes",
									"name": "mp_description",
									"type": "bytes"
								},
								{
									"internalType": "uint128",
									"name": "mp_unit",
									"type": "uint128"
								},
								{
									"internalType": "uint128",
									"name": "mp_price",
									"type": "uint128"
								},
								{
									"internalType": "uint32",
									"name": "mp_date",
									"type": "uint32"
								},
								{
									"internalType": "uint32",
									"name": "mp_expiryDate",
									"type": "uint32"
								},
								{
									"internalType": "bool",
									"name": "mp_status",
									"type": "bool"
								}
							],
							"internalType": "struct IManufacturerProduct.manufacturerProduct",
							"name": "",
							"type": "tuple"
						}
					],
					"stateMutability": "view",
					"type": "function"
				},
				{
					"inputs": [
						{
							"internalType": "address",
							"name": "",
							"type": "address"
						},
						{
							"internalType": "uint256",
							"name": "",
							"type": "uint256"
						}
					],
					"name": "manufacturerAddressToproductsIdMapping",
					"outputs": [
						{
							"internalType": "uint256",
							"name": "",
							"type": "uint256"
						}
					],
					"stateMutability": "view",
					"type": "function"
				},
				{
					"inputs": [
						{
							"internalType": "uint256",
							"name": "",
							"type": "uint256"
						}
					],
					"name": "manufacturerProductsIdToStructMapping",
					"outputs": [
						{
							"internalType": "bytes",
							"name": "mp_name",
							"type": "bytes"
						},
						{
							"internalType": "bytes",
							"name": "mp_description",
							"type": "bytes"
						},
						{
							"internalType": "uint128",
							"name": "mp_unit",
							"type": "uint128"
						},
						{
							"internalType": "uint128",
							"name": "mp_price",
							"type": "uint128"
						},
						{
							"internalType": "uint32",
							"name": "mp_date",
							"type": "uint32"
						},
						{
							"internalType": "uint32",
							"name": "mp_expiryDate",
							"type": "uint32"
						},
						{
							"internalType": "bool",
							"name": "mp_status",
							"type": "bool"
						}
					],
					"stateMutability": "view",
					"type": "function"
				},
				{
					"inputs": [
						{
							"internalType": "uint256",
							"name": "_mpId",
							"type": "uint256"
						},
						{
							"internalType": "uint128",
							"name": "_quantity",
							"type": "uint128"
						}
					],
					"name": "updateManufacturerProductUints",
					"outputs": [],
					"stateMutability": "nonpayable",
					"type": "function"
				}
			],
			"devdoc": {
				"author": "ProvyLens team",
				"kind": "dev",
				"methods": {},
				"title": "The contract for handling manufacturer' product",
				"version": 1
			},
			"evm": {
				"assembly": "    /* \"contracts/manufacturerProduct.sol\":262:3601  contract manufacturerProduct is IManufacturerProduct{\r... */\n  mstore(0x40, 0x80)\n    /* \"contracts/manufacturerProduct.sol\":390:391  1 */\n  0x01\n    /* \"contracts/manufacturerProduct.sol\":378:391  uint mpId = 1 */\n  0x00\n  sstore\n    /* \"contracts/manufacturerProduct.sol\":262:3601  contract manufacturerProduct is IManufacturerProduct{\r... */\n  callvalue\n  dup1\n  iszero\n  tag_1\n  jumpi\n  0x00\n  dup1\n  revert\ntag_1:\n  pop\n  dataSize(sub_0)\n  dup1\n  dataOffset(sub_0)\n  0x00\n  codecopy\n  0x00\n  return\nstop\n\nsub_0: assembly {\n        /* \"contracts/manufacturerProduct.sol\":262:3601  contract manufacturerProduct is IManufacturerProduct{\r... */\n      mstore(0x40, 0x80)\n      callvalue\n      dup1\n      iszero\n      tag_1\n      jumpi\n      0x00\n      dup1\n      revert\n    tag_1:\n      pop\n      jumpi(tag_2, lt(calldatasize, 0x04))\n      shr(0xe0, calldataload(0x00))\n      dup1\n      0x65603df2\n      gt\n      tag_11\n      jumpi\n      dup1\n      0x65603df2\n      eq\n      tag_7\n      jumpi\n      dup1\n      0x9ea61c7e\n      eq\n      tag_8\n      jumpi\n      dup1\n      0xd37889c6\n      eq\n      tag_9\n      jumpi\n      dup1\n      0xf6a989f8\n      eq\n      tag_10\n      jumpi\n      jump(tag_2)\n    tag_11:\n      dup1\n      0x24e5e6aa\n      eq\n      tag_3\n      jumpi\n      dup1\n      0x448952e1\n      eq\n      tag_4\n      jumpi\n      dup1\n      0x580f469c\n      eq\n      tag_5\n      jumpi\n      dup1\n      0x60715971\n      eq\n      tag_6\n      jumpi\n    tag_2:\n      0x00\n      dup1\n      revert\n        /* \"contracts/manufacturerProduct.sol\":2303:2450  function getManufacturerProductIds() public view returns(uint[] memory){\r... */\n    tag_3:\n      tag_12\n      tag_13\n      jump\t// in\n    tag_12:\n      mload(0x40)\n      tag_14\n      swap2\n      swap1\n      tag_15\n      jump\t// in\n    tag_14:\n      mload(0x40)\n      dup1\n      swap2\n      sub\n      swap1\n      return\n        /* \"contracts/manufacturerProduct.sol\":1207:1879  function addManufacturerProduct(\r... */\n    tag_4:\n      tag_16\n      0x04\n      dup1\n      calldatasize\n      sub\n      dup2\n      add\n      swap1\n      tag_17\n      swap2\n      swap1\n      tag_18\n      jump\t// in\n    tag_17:\n      tag_19\n      jump\t// in\n    tag_16:\n      stop\n        /* \"contracts/manufacturerProduct.sol\":630:702  mapping(address => uint[]) public manufacturerAddressToproductsIdMapping */\n    tag_5:\n      tag_20\n      0x04\n      dup1\n      calldatasize\n      sub\n      dup2\n      add\n      swap1\n      tag_21\n      swap2\n      swap1\n      tag_22\n      jump\t// in\n    tag_21:\n      tag_23\n      jump\t// in\n    tag_20:\n      mload(0x40)\n      tag_24\n      swap2\n      swap1\n      tag_25\n      jump\t// in\n    tag_24:\n      mload(0x40)\n      dup1\n      swap2\n      sub\n      swap1\n      return\n        /* \"contracts/manufacturerProduct.sol\":2789:3302  function getAllProductsOfManufacturer(address _manufacturerAddress) public view returns(manufacturerProduct[] memory)\r... */\n    tag_6:\n      tag_26\n      0x04\n      dup1\n      calldatasize\n      sub\n      dup2\n      add\n      swap1\n      tag_27\n      swap2\n      swap1\n      tag_28\n      jump\t// in\n    tag_27:\n      tag_29\n      jump\t// in\n    tag_26:\n      mload(0x40)\n      tag_30\n      swap2\n      swap1\n      tag_31\n      jump\t// in\n    tag_30:\n      mload(0x40)\n      dup1\n      swap2\n      sub\n      swap1\n      return\n        /* \"contracts/manufacturerProduct.sol\":471:552  mapping(uint => manufacturerProduct) public manufacturerProductsIdToStructMapping */\n    tag_7:\n      tag_32\n      0x04\n      dup1\n      calldatasize\n      sub\n      dup2\n      add\n      swap1\n      tag_33\n      swap2\n      swap1\n      tag_34\n      jump\t// in\n    tag_33:\n      tag_35\n      jump\t// in\n    tag_32:\n      mload(0x40)\n      tag_36\n      swap8\n      swap7\n      swap6\n      swap5\n      swap4\n      swap3\n      swap2\n      swap1\n      tag_37\n      jump\t// in\n    tag_36:\n      mload(0x40)\n      dup1\n      swap2\n      sub\n      swap1\n      return\n        /* \"contracts/manufacturerProduct.sol\":3403:3598  function deleteManufacturerProduct(uint _mpId)external override{\r... */\n    tag_8:\n      tag_38\n      0x04\n      dup1\n      calldatasize\n      sub\n      dup2\n      add\n      swap1\n      tag_39\n      swap2\n      swap1\n      tag_34\n      jump\t// in\n    tag_39:\n      tag_40\n      jump\t// in\n    tag_38:\n      stop\n        /* \"contracts/manufacturerProduct.sol\":1950:2234  function updateManufacturerProductUints(uint _mpId, uint128 _quantity) public override{\r... */\n    tag_9:\n      tag_41\n      0x04\n      dup1\n      calldatasize\n      sub\n      dup2\n      add\n      swap1\n      tag_42\n      swap2\n      swap1\n      tag_43\n      jump\t// in\n    tag_42:\n      tag_44\n      jump\t// in\n    tag_41:\n      stop\n        /* \"contracts/manufacturerProduct.sol\":2523:2690  function getSingleManufacturerProduct(uint _mpId) public view returns(manufacturerProduct memory){\r... */\n    tag_10:\n      tag_45\n      0x04\n      dup1\n      calldatasize\n      sub\n      dup2\n      add\n      swap1\n      tag_46\n      swap2\n      swap1\n      tag_34\n      jump\t// in\n    tag_46:\n      tag_47\n      jump\t// in\n    tag_45:\n      mload(0x40)\n      tag_48\n      swap2\n      swap1\n      tag_49\n      jump\t// in\n    tag_48:\n      mload(0x40)\n      dup1\n      swap2\n      sub\n      swap1\n      return\n        /* \"contracts/manufacturerProduct.sol\":2303:2450  function getManufacturerProductIds() public view returns(uint[] memory){\r... */\n    tag_13:\n        /* \"contracts/manufacturerProduct.sol\":2360:2373  uint[] memory */\n      0x60\n        /* \"contracts/manufacturerProduct.sol\":2392:2430  manufacturerAddressToproductsIdMapping */\n      0x02\n        /* \"contracts/manufacturerProduct.sol\":2392:2442  manufacturerAddressToproductsIdMapping[msg.sender] */\n      0x00\n        /* \"contracts/manufacturerProduct.sol\":2431:2441  msg.sender */\n      caller\n        /* \"contracts/manufacturerProduct.sol\":2392:2442  manufacturerAddressToproductsIdMapping[msg.sender] */\n      0xffffffffffffffffffffffffffffffffffffffff\n      and\n      0xffffffffffffffffffffffffffffffffffffffff\n      and\n      dup2\n      mstore\n      0x20\n      add\n      swap1\n      dup2\n      mstore\n      0x20\n      add\n      0x00\n      keccak256\n        /* \"contracts/manufacturerProduct.sol\":2385:2442  return manufacturerAddressToproductsIdMapping[msg.sender] */\n      dup1\n      sload\n      dup1\n      0x20\n      mul\n      0x20\n      add\n      mload(0x40)\n      swap1\n      dup2\n      add\n      0x40\n      mstore\n      dup1\n      swap3\n      swap2\n      swap1\n      dup2\n      dup2\n      mstore\n      0x20\n      add\n      dup3\n      dup1\n      sload\n      dup1\n      iszero\n      tag_51\n      jumpi\n      0x20\n      mul\n      dup3\n      add\n      swap2\n      swap1\n      0x00\n      mstore\n      keccak256(0x00, 0x20)\n      swap1\n    tag_52:\n      dup2\n      sload\n      dup2\n      mstore\n      0x20\n      add\n      swap1\n      0x01\n      add\n      swap1\n      dup1\n      dup4\n      gt\n      tag_52\n      jumpi\n    tag_51:\n      pop\n      pop\n      pop\n      pop\n      pop\n      swap1\n      pop\n        /* \"contracts/manufacturerProduct.sol\":2303:2450  function getManufacturerProductIds() public view returns(uint[] memory){\r... */\n      swap1\n      jump\t// out\n        /* \"contracts/manufacturerProduct.sol\":1207:1879  function addManufacturerProduct(\r... */\n    tag_19:\n        /* \"contracts/manufacturerProduct.sol\":1562:1660  manufacturerProduct(_supplierAddress,_smId,_name,_description,_unit,_price,_date,_expiryDate,true) */\n      mload(0x40)\n      dup1\n      0x0120\n      add\n      0x40\n      mstore\n      dup1\n        /* \"contracts/manufacturerProduct.sol\":1582:1598  _supplierAddress */\n      dup12\n        /* \"contracts/manufacturerProduct.sol\":1562:1660  manufacturerProduct(_supplierAddress,_smId,_name,_description,_unit,_price,_date,_expiryDate,true) */\n      dup2\n      mstore\n      0x20\n      add\n        /* \"contracts/manufacturerProduct.sol\":1599:1604  _smId */\n      dup11\n        /* \"contracts/manufacturerProduct.sol\":1562:1660  manufacturerProduct(_supplierAddress,_smId,_name,_description,_unit,_price,_date,_expiryDate,true) */\n      dup2\n      mstore\n      0x20\n      add\n        /* \"contracts/manufacturerProduct.sol\":1605:1610  _name */\n      dup10\n      dup10\n        /* \"contracts/manufacturerProduct.sol\":1562:1660  manufacturerProduct(_supplierAddress,_smId,_name,_description,_unit,_price,_date,_expiryDate,true) */\n      dup1\n      dup1\n      0x1f\n      add\n      0x20\n      dup1\n      swap2\n      div\n      mul\n      0x20\n      add\n      mload(0x40)\n      swap1\n      dup2\n      add\n      0x40\n      mstore\n      dup1\n      swap4\n      swap3\n      swap2\n      swap1\n      dup2\n      dup2\n      mstore\n      0x20\n      add\n      dup4\n      dup4\n      dup1\n      dup3\n      dup5\n      calldatacopy\n      0x00\n      dup2\n      dup5\n      add\n      mstore\n      not(0x1f)\n      0x1f\n      dup3\n      add\n      and\n      swap1\n      pop\n      dup1\n      dup4\n      add\n      swap3\n      pop\n      pop\n      pop\n      pop\n      pop\n      pop\n      pop\n      dup2\n      mstore\n      0x20\n      add\n        /* \"contracts/manufacturerProduct.sol\":1611:1623  _description */\n      dup8\n      dup8\n        /* \"contracts/manufacturerProduct.sol\":1562:1660  manufacturerProduct(_supplierAddress,_smId,_name,_description,_unit,_price,_date,_expiryDate,true) */\n      dup1\n      dup1\n      0x1f\n      add\n      0x20\n      dup1\n      swap2\n      div\n      mul\n      0x20\n      add\n      mload(0x40)\n      swap1\n      dup2\n      add\n      0x40\n      mstore\n      dup1\n      swap4\n      swap3\n      swap2\n      swap1\n      dup2\n      dup2\n      mstore\n      0x20\n      add\n      dup4\n      dup4\n      dup1\n      dup3\n      dup5\n      calldatacopy\n      0x00\n      dup2\n      dup5\n      add\n      mstore\n      not(0x1f)\n      0x1f\n      dup3\n      add\n      and\n      swap1\n      pop\n      dup1\n      dup4\n      add\n      swap3\n      pop\n      pop\n      pop\n      pop\n      pop\n      pop\n      pop\n      dup2\n      mstore\n      0x20\n      add\n        /* \"contracts/manufacturerProduct.sol\":1624:1629  _unit */\n      dup6\n        /* \"contracts/manufacturerProduct.sol\":1562:1660  manufacturerProduct(_supplierAddress,_smId,_name,_description,_unit,_price,_date,_expiryDate,true) */\n      0xffffffffffffffffffffffffffffffff\n      and\n      dup2\n      mstore\n      0x20\n      add\n        /* \"contracts/manufacturerProduct.sol\":1630:1636  _price */\n      dup5\n        /* \"contracts/manufacturerProduct.sol\":1562:1660  manufacturerProduct(_supplierAddress,_smId,_name,_description,_unit,_price,_date,_expiryDate,true) */\n      0xffffffffffffffffffffffffffffffff\n      and\n      dup2\n      mstore\n      0x20\n      add\n        /* \"contracts/manufacturerProduct.sol\":1637:1642  _date */\n      dup4\n        /* \"contracts/manufacturerProduct.sol\":1562:1660  manufacturerProduct(_supplierAddress,_smId,_name,_description,_unit,_price,_date,_expiryDate,true) */\n      0xffffffff\n      and\n      dup2\n      mstore\n      0x20\n      add\n        /* \"contracts/manufacturerProduct.sol\":1643:1654  _expiryDate */\n      dup3\n        /* \"contracts/manufacturerProduct.sol\":1562:1660  manufacturerProduct(_supplierAddress,_smId,_name,_description,_unit,_price,_date,_expiryDate,true) */\n      0xffffffff\n      and\n      dup2\n      mstore\n      0x20\n      add\n        /* \"contracts/manufacturerProduct.sol\":1655:1659  true */\n      0x01\n        /* \"contracts/manufacturerProduct.sol\":1562:1660  manufacturerProduct(_supplierAddress,_smId,_name,_description,_unit,_price,_date,_expiryDate,true) */\n      iszero\n      iszero\n      dup2\n      mstore\n      pop\n        /* \"contracts/manufacturerProduct.sol\":1516:1553  manufacturerProductsIdToStructMapping */\n      0x01\n        /* \"contracts/manufacturerProduct.sol\":1516:1559  manufacturerProductsIdToStructMapping[mpId] */\n      0x00\n        /* \"contracts/manufacturerProduct.sol\":1554:1558  mpId */\n      dup1\n      sload\n        /* \"contracts/manufacturerProduct.sol\":1516:1559  manufacturerProductsIdToStructMapping[mpId] */\n      dup2\n      mstore\n      0x20\n      add\n      swap1\n      dup2\n      mstore\n      0x20\n      add\n      0x00\n      keccak256\n        /* \"contracts/manufacturerProduct.sol\":1516:1660  manufacturerProductsIdToStructMapping[mpId] = manufacturerProduct(_supplierAddress,_smId,_name,_description,_unit,_price,_date,_expiryDate,true) */\n      0x00\n      dup3\n      add\n      mload\n      dup2\n      0x00\n      add\n      swap1\n      dup1\n      mload\n      swap1\n      0x20\n      add\n      swap1\n      tag_54\n      swap3\n      swap2\n      swap1\n      tag_55\n      jump\t// in\n    tag_54:\n      pop\n      0x20\n      dup3\n      add\n      mload\n      dup2\n      0x01\n      add\n      swap1\n      dup1\n      mload\n      swap1\n      0x20\n      add\n      swap1\n      tag_56\n      swap3\n      swap2\n      swap1\n      tag_57\n      jump\t// in\n    tag_56:\n      pop\n      0x40\n      dup3\n      add\n      mload\n      dup2\n      0x02\n      add\n      swap1\n      dup1\n      mload\n      swap1\n      0x20\n      add\n      swap1\n      tag_58\n      swap3\n      swap2\n      swap1\n      tag_59\n      jump\t// in\n    tag_58:\n      pop\n      0x60\n      dup3\n      add\n      mload\n      dup2\n      0x03\n      add\n      swap1\n      dup1\n      mload\n      swap1\n      0x20\n      add\n      swap1\n      tag_60\n      swap3\n      swap2\n      swap1\n      tag_59\n      jump\t// in\n    tag_60:\n      pop\n      0x80\n      dup3\n      add\n      mload\n      dup2\n      0x04\n      add\n      exp(0x0100, 0x00)\n      dup2\n      sload\n      dup2\n      0xffffffffffffffffffffffffffffffff\n      mul\n      not\n      and\n      swap1\n      dup4\n      0xffffffffffffffffffffffffffffffff\n      and\n      mul\n      or\n      swap1\n      sstore\n      pop\n      0xa0\n      dup3\n      add\n      mload\n      dup2\n      0x04\n      add\n      exp(0x0100, 0x10)\n      dup2\n      sload\n      dup2\n      0xffffffffffffffffffffffffffffffff\n      mul\n      not\n      and\n      swap1\n      dup4\n      0xffffffffffffffffffffffffffffffff\n      and\n      mul\n      or\n      swap1\n      sstore\n      pop\n      0xc0\n      dup3\n      add\n      mload\n      dup2\n      0x05\n      add\n      exp(0x0100, 0x00)\n      dup2\n      sload\n      dup2\n      0xffffffff\n      mul\n      not\n      and\n      swap1\n      dup4\n      0xffffffff\n      and\n      mul\n      or\n      swap1\n      sstore\n      pop\n      0xe0\n      dup3\n      add\n      mload\n      dup2\n      0x05\n      add\n      exp(0x0100, 0x04)\n      dup2\n      sload\n      dup2\n      0xffffffff\n      mul\n      not\n      and\n      swap1\n      dup4\n      0xffffffff\n      and\n      mul\n      or\n      swap1\n      sstore\n      pop\n      0x0100\n      dup3\n      add\n      mload\n      dup2\n      0x05\n      add\n      exp(0x0100, 0x08)\n      dup2\n      sload\n      dup2\n      0xff\n      mul\n      not\n      and\n      swap1\n      dup4\n      iszero\n      iszero\n      mul\n      or\n      swap1\n      sstore\n      pop\n      swap1\n      pop\n      pop\n        /* \"contracts/manufacturerProduct.sol\":1671:1709  manufacturerAddressToproductsIdMapping */\n      0x02\n        /* \"contracts/manufacturerProduct.sol\":1671:1721  manufacturerAddressToproductsIdMapping[msg.sender] */\n      0x00\n        /* \"contracts/manufacturerProduct.sol\":1710:1720  msg.sender */\n      caller\n        /* \"contracts/manufacturerProduct.sol\":1671:1721  manufacturerAddressToproductsIdMapping[msg.sender] */\n      0xffffffffffffffffffffffffffffffffffffffff\n      and\n      0xffffffffffffffffffffffffffffffffffffffff\n      and\n      dup2\n      mstore\n      0x20\n      add\n      swap1\n      dup2\n      mstore\n      0x20\n      add\n      0x00\n      keccak256\n        /* \"contracts/manufacturerProduct.sol\":1727:1731  mpId */\n      sload(0x00)\n        /* \"contracts/manufacturerProduct.sol\":1671:1732  manufacturerAddressToproductsIdMapping[msg.sender].push(mpId) */\n      swap1\n      dup1\n      0x01\n      dup2\n      sload\n      add\n      dup1\n      dup3\n      sstore\n      dup1\n      swap2\n      pop\n      pop\n      0x01\n      swap1\n      sub\n      swap1\n      0x00\n      mstore\n      keccak256(0x00, 0x20)\n      add\n      0x00\n      swap1\n      swap2\n      swap1\n      swap2\n      swap1\n      swap2\n      pop\n      sstore\n        /* \"contracts/manufacturerProduct.sol\":1776:1780  mpId */\n      sload(0x00)\n        /* \"contracts/manufacturerProduct.sol\":1748:1854  eventAddManufacturerProduct(mpId,_supplierAddress,_smId,_name,_description,_unit,_price,_date,_expiryDate) */\n      0x0e20c89151faf0b5dda54ebc9d15340d8f36e022eaab7561945a997b339fc56e\n        /* \"contracts/manufacturerProduct.sol\":1781:1797  _supplierAddress */\n      dup12\n        /* \"contracts/manufacturerProduct.sol\":1798:1803  _smId */\n      dup12\n        /* \"contracts/manufacturerProduct.sol\":1804:1809  _name */\n      dup12\n      dup12\n        /* \"contracts/manufacturerProduct.sol\":1810:1822  _description */\n      dup12\n      dup12\n        /* \"contracts/manufacturerProduct.sol\":1823:1828  _unit */\n      dup12\n        /* \"contracts/manufacturerProduct.sol\":1829:1835  _price */\n      dup12\n        /* \"contracts/manufacturerProduct.sol\":1836:1841  _date */\n      dup12\n        /* \"contracts/manufacturerProduct.sol\":1842:1853  _expiryDate */\n      dup12\n        /* \"contracts/manufacturerProduct.sol\":1748:1854  eventAddManufacturerProduct(mpId,_supplierAddress,_smId,_name,_description,_unit,_price,_date,_expiryDate) */\n      mload(0x40)\n      tag_62\n      swap11\n      swap10\n      swap9\n      swap8\n      swap7\n      swap6\n      swap5\n      swap4\n      swap3\n      swap2\n      swap1\n      tag_63\n      jump\t// in\n    tag_62:\n      mload(0x40)\n      dup1\n      swap2\n      sub\n      swap1\n      log2\n        /* \"contracts/manufacturerProduct.sol\":1865:1869  mpId */\n      0x00\n      dup1\n        /* \"contracts/manufacturerProduct.sol\":1865:1871  mpId++ */\n      dup2\n      sload\n      dup1\n      swap3\n      swap2\n      swap1\n      tag_64\n      swap1\n      tag_65\n      jump\t// in\n    tag_64:\n      swap2\n      swap1\n      pop\n      sstore\n      pop\n        /* \"contracts/manufacturerProduct.sol\":1207:1879  function addManufacturerProduct(\r... */\n      pop\n      pop\n      pop\n      pop\n      pop\n      pop\n      pop\n      pop\n      pop\n      pop\n      jump\t// out\n        /* \"contracts/manufacturerProduct.sol\":630:702  mapping(address => uint[]) public manufacturerAddressToproductsIdMapping */\n    tag_23:\n      mstore(0x20, 0x02)\n      dup2\n      0x00\n      mstore\n      keccak256(0x00, 0x40)\n      dup2\n      dup2\n      sload\n      dup2\n      lt\n      tag_66\n      jumpi\n      0x00\n      dup1\n      revert\n    tag_66:\n      swap1\n      0x00\n      mstore\n      keccak256(0x00, 0x20)\n      add\n      0x00\n      swap2\n      pop\n      swap2\n      pop\n      pop\n      sload\n      dup2\n      jump\t// out\n        /* \"contracts/manufacturerProduct.sol\":2789:3302  function getAllProductsOfManufacturer(address _manufacturerAddress) public view returns(manufacturerProduct[] memory)\r... */\n    tag_29:\n        /* \"contracts/manufacturerProduct.sol\":2877:2905  manufacturerProduct[] memory */\n      0x60\n        /* \"contracts/manufacturerProduct.sol\":2923:2947  uint[] memory productIds */\n      0x00\n        /* \"contracts/manufacturerProduct.sol\":2949:2987  manufacturerAddressToproductsIdMapping */\n      0x02\n        /* \"contracts/manufacturerProduct.sol\":2949:3009  manufacturerAddressToproductsIdMapping[_manufacturerAddress] */\n      0x00\n        /* \"contracts/manufacturerProduct.sol\":2988:3008  _manufacturerAddress */\n      dup5\n        /* \"contracts/manufacturerProduct.sol\":2949:3009  manufacturerAddressToproductsIdMapping[_manufacturerAddress] */\n      0xffffffffffffffffffffffffffffffffffffffff\n      and\n      0xffffffffffffffffffffffffffffffffffffffff\n      and\n      dup2\n      mstore\n      0x20\n      add\n      swap1\n      dup2\n      mstore\n      0x20\n      add\n      0x00\n      keccak256\n        /* \"contracts/manufacturerProduct.sol\":2923:3009  uint[] memory productIds= manufacturerAddressToproductsIdMapping[_manufacturerAddress] */\n      dup1\n      sload\n      dup1\n      0x20\n      mul\n      0x20\n      add\n      mload(0x40)\n      swap1\n      dup2\n      add\n      0x40\n      mstore\n      dup1\n      swap3\n      swap2\n      swap1\n      dup2\n      dup2\n      mstore\n      0x20\n      add\n      dup3\n      dup1\n      sload\n      dup1\n      iszero\n      tag_69\n      jumpi\n      0x20\n      mul\n      dup3\n      add\n      swap2\n      swap1\n      0x00\n      mstore\n      keccak256(0x00, 0x20)\n      swap1\n    tag_70:\n      dup2\n      sload\n      dup2\n      mstore\n      0x20\n      add\n      swap1\n      0x01\n      add\n      swap1\n      dup1\n      dup4\n      gt\n      tag_70\n      jumpi\n    tag_69:\n      pop\n      pop\n      pop\n      pop\n      pop\n      swap1\n      pop\n        /* \"contracts/manufacturerProduct.sol\":3020:3062  manufacturerProduct[] memory ManufacturerP */\n      0x00\n        /* \"contracts/manufacturerProduct.sol\":3091:3101  productIds */\n      dup2\n        /* \"contracts/manufacturerProduct.sol\":3091:3108  productIds.length */\n      mload\n        /* \"contracts/manufacturerProduct.sol\":3065:3109  new manufacturerProduct[](productIds.length) */\n      0xffffffffffffffff\n      dup2\n      gt\n      iszero\n      tag_71\n      jumpi\n      tag_72\n      tag_73\n      jump\t// in\n    tag_72:\n    tag_71:\n      mload(0x40)\n      swap1\n      dup1\n      dup3\n      mstore\n      dup1\n      0x20\n      mul\n      0x20\n      add\n      dup3\n      add\n      0x40\n      mstore\n      dup1\n      iszero\n      tag_74\n      jumpi\n      dup2\n      0x20\n      add\n    tag_75:\n      tag_76\n      tag_77\n      jump\t// in\n    tag_76:\n      dup2\n      mstore\n      0x20\n      add\n      swap1\n      0x01\n      swap1\n      sub\n      swap1\n      dup2\n      tag_75\n      jumpi\n      swap1\n      pop\n    tag_74:\n      pop\n        /* \"contracts/manufacturerProduct.sol\":3020:3109  manufacturerProduct[] memory ManufacturerP = new manufacturerProduct[](productIds.length) */\n      swap1\n      pop\n        /* \"contracts/manufacturerProduct.sol\":3124:3130  uint i */\n      0x00\n        /* \"contracts/manufacturerProduct.sol\":3120:3264  for(uint i=0;i<productIds.length;i++)\r... */\n    tag_78:\n        /* \"contracts/manufacturerProduct.sol\":3135:3145  productIds */\n      dup3\n        /* \"contracts/manufacturerProduct.sol\":3135:3152  productIds.length */\n      mload\n        /* \"contracts/manufacturerProduct.sol\":3133:3134  i */\n      dup2\n        /* \"contracts/manufacturerProduct.sol\":3133:3152  i<productIds.length */\n      lt\n        /* \"contracts/manufacturerProduct.sol\":3120:3264  for(uint i=0;i<productIds.length;i++)\r... */\n      iszero\n      tag_79\n      jumpi\n        /* \"contracts/manufacturerProduct.sol\":3200:3237  manufacturerProductsIdToStructMapping */\n      0x01\n        /* \"contracts/manufacturerProduct.sol\":3200:3252  manufacturerProductsIdToStructMapping[productIds[i]] */\n      0x00\n        /* \"contracts/manufacturerProduct.sol\":3238:3248  productIds */\n      dup5\n        /* \"contracts/manufacturerProduct.sol\":3249:3250  i */\n      dup4\n        /* \"contracts/manufacturerProduct.sol\":3238:3251  productIds[i] */\n      dup2\n      mload\n      dup2\n      lt\n      tag_81\n      jumpi\n      tag_82\n      tag_83\n      jump\t// in\n    tag_82:\n    tag_81:\n      0x20\n      mul\n      0x20\n      add\n      add\n      mload\n        /* \"contracts/manufacturerProduct.sol\":3200:3252  manufacturerProductsIdToStructMapping[productIds[i]] */\n      dup2\n      mstore\n      0x20\n      add\n      swap1\n      dup2\n      mstore\n      0x20\n      add\n      0x00\n      keccak256\n        /* \"contracts/manufacturerProduct.sol\":3182:3252  ManufacturerP[i] =manufacturerProductsIdToStructMapping[productIds[i]] */\n      mload(0x40)\n      dup1\n      0x0120\n      add\n      0x40\n      mstore\n      swap1\n      dup2\n      0x00\n      dup3\n      add\n      dup1\n      sload\n      dup1\n      0x20\n      mul\n      0x20\n      add\n      mload(0x40)\n      swap1\n      dup2\n      add\n      0x40\n      mstore\n      dup1\n      swap3\n      swap2\n      swap1\n      dup2\n      dup2\n      mstore\n      0x20\n      add\n      dup3\n      dup1\n      sload\n      dup1\n      iszero\n      tag_84\n      jumpi\n      0x20\n      mul\n      dup3\n      add\n      swap2\n      swap1\n      0x00\n      mstore\n      keccak256(0x00, 0x20)\n      swap1\n    tag_85:\n      dup2\n      0x00\n      swap1\n      sload\n      swap1\n      0x0100\n      exp\n      swap1\n      div\n      0xffffffffffffffffffffffffffffffffffffffff\n      and\n      0xffffffffffffffffffffffffffffffffffffffff\n      and\n      dup2\n      mstore\n      0x20\n      add\n      swap1\n      0x01\n      add\n      swap1\n      dup1\n      dup4\n      gt\n      tag_85\n      jumpi\n    tag_84:\n      pop\n      pop\n      pop\n      pop\n      pop\n      dup2\n      mstore\n      0x20\n      add\n      0x01\n      dup3\n      add\n      dup1\n      sload\n      dup1\n      0x20\n      mul\n      0x20\n      add\n      mload(0x40)\n      swap1\n      dup2\n      add\n      0x40\n      mstore\n      dup1\n      swap3\n      swap2\n      swap1\n      dup2\n      dup2\n      mstore\n      0x20\n      add\n      dup3\n      dup1\n      sload\n      dup1\n      iszero\n      tag_86\n      jumpi\n      0x20\n      mul\n      dup3\n      add\n      swap2\n      swap1\n      0x00\n      mstore\n      keccak256(0x00, 0x20)\n      swap1\n    tag_87:\n      dup2\n      sload\n      dup2\n      mstore\n      0x20\n      add\n      swap1\n      0x01\n      add\n      swap1\n      dup1\n      dup4\n      gt\n      tag_87\n      jumpi\n    tag_86:\n      pop\n      pop\n      pop\n      pop\n      pop\n      dup2\n      mstore\n      0x20\n      add\n      0x02\n      dup3\n      add\n      dup1\n      sload\n      tag_88\n      swap1\n      tag_89\n      jump\t// in\n    tag_88:\n      dup1\n      0x1f\n      add\n      0x20\n      dup1\n      swap2\n      div\n      mul\n      0x20\n      add\n      mload(0x40)\n      swap1\n      dup2\n      add\n      0x40\n      mstore\n      dup1\n      swap3\n      swap2\n      swap1\n      dup2\n      dup2\n      mstore\n      0x20\n      add\n      dup3\n      dup1\n      sload\n      tag_90\n      swap1\n      tag_89\n      jump\t// in\n    tag_90:\n      dup1\n      iszero\n      tag_91\n      jumpi\n      dup1\n      0x1f\n      lt\n      tag_92\n      jumpi\n      0x0100\n      dup1\n      dup4\n      sload\n      div\n      mul\n      dup4\n      mstore\n      swap2\n      0x20\n      add\n      swap2\n      jump(tag_91)\n    tag_92:\n      dup3\n      add\n      swap2\n      swap1\n      0x00\n      mstore\n      keccak256(0x00, 0x20)\n      swap1\n    tag_93:\n      dup2\n      sload\n      dup2\n      mstore\n      swap1\n      0x01\n      add\n      swap1\n      0x20\n      add\n      dup1\n      dup4\n      gt\n      tag_93\n      jumpi\n      dup3\n      swap1\n      sub\n      0x1f\n      and\n      dup3\n      add\n      swap2\n    tag_91:\n      pop\n      pop\n      pop\n      pop\n      pop\n      dup2\n      mstore\n      0x20\n      add\n      0x03\n      dup3\n      add\n      dup1\n      sload\n      tag_94\n      swap1\n      tag_89\n      jump\t// in\n    tag_94:\n      dup1\n      0x1f\n      add\n      0x20\n      dup1\n      swap2\n      div\n      mul\n      0x20\n      add\n      mload(0x40)\n      swap1\n      dup2\n      add\n      0x40\n      mstore\n      dup1\n      swap3\n      swap2\n      swap1\n      dup2\n      dup2\n      mstore\n      0x20\n      add\n      dup3\n      dup1\n      sload\n      tag_95\n      swap1\n      tag_89\n      jump\t// in\n    tag_95:\n      dup1\n      iszero\n      tag_96\n      jumpi\n      dup1\n      0x1f\n      lt\n      tag_97\n      jumpi\n      0x0100\n      dup1\n      dup4\n      sload\n      div\n      mul\n      dup4\n      mstore\n      swap2\n      0x20\n      add\n      swap2\n      jump(tag_96)\n    tag_97:\n      dup3\n      add\n      swap2\n      swap1\n      0x00\n      mstore\n      keccak256(0x00, 0x20)\n      swap1\n    tag_98:\n      dup2\n      sload\n      dup2\n      mstore\n      swap1\n      0x01\n      add\n      swap1\n      0x20\n      add\n      dup1\n      dup4\n      gt\n      tag_98\n      jumpi\n      dup3\n      swap1\n      sub\n      0x1f\n      and\n      dup3\n      add\n      swap2\n    tag_96:\n      pop\n      pop\n      pop\n      pop\n      pop\n      dup2\n      mstore\n      0x20\n      add\n      0x04\n      dup3\n      add\n      0x00\n      swap1\n      sload\n      swap1\n      0x0100\n      exp\n      swap1\n      div\n      0xffffffffffffffffffffffffffffffff\n      and\n      0xffffffffffffffffffffffffffffffff\n      and\n      0xffffffffffffffffffffffffffffffff\n      and\n      dup2\n      mstore\n      0x20\n      add\n      0x04\n      dup3\n      add\n      0x10\n      swap1\n      sload\n      swap1\n      0x0100\n      exp\n      swap1\n      div\n      0xffffffffffffffffffffffffffffffff\n      and\n      0xffffffffffffffffffffffffffffffff\n      and\n      0xffffffffffffffffffffffffffffffff\n      and\n      dup2\n      mstore\n      0x20\n      add\n      0x05\n      dup3\n      add\n      0x00\n      swap1\n      sload\n      swap1\n      0x0100\n      exp\n      swap1\n      div\n      0xffffffff\n      and\n      0xffffffff\n      and\n      0xffffffff\n      and\n      dup2\n      mstore\n      0x20\n      add\n      0x05\n      dup3\n      add\n      0x04\n      swap1\n      sload\n      swap1\n      0x0100\n      exp\n      swap1\n      div\n      0xffffffff\n      and\n      0xffffffff\n      and\n      0xffffffff\n      and\n      dup2\n      mstore\n      0x20\n      add\n      0x05\n      dup3\n      add\n      0x08\n      swap1\n      sload\n      swap1\n      0x0100\n      exp\n      swap1\n      div\n      0xff\n      and\n      iszero\n      iszero\n      iszero\n      iszero\n      dup2\n      mstore\n      pop\n      pop\n        /* \"contracts/manufacturerProduct.sol\":3182:3195  ManufacturerP */\n      dup3\n        /* \"contracts/manufacturerProduct.sol\":3196:3197  i */\n      dup3\n        /* \"contracts/manufacturerProduct.sol\":3182:3198  ManufacturerP[i] */\n      dup2\n      mload\n      dup2\n      lt\n      tag_99\n      jumpi\n      tag_100\n      tag_83\n      jump\t// in\n    tag_100:\n    tag_99:\n      0x20\n      mul\n      0x20\n      add\n      add\n        /* \"contracts/manufacturerProduct.sol\":3182:3252  ManufacturerP[i] =manufacturerProductsIdToStructMapping[productIds[i]] */\n      dup2\n      swap1\n      mstore\n      pop\n        /* \"contracts/manufacturerProduct.sol\":3153:3156  i++ */\n      dup1\n      dup1\n      tag_101\n      swap1\n      tag_65\n      jump\t// in\n    tag_101:\n      swap2\n      pop\n      pop\n        /* \"contracts/manufacturerProduct.sol\":3120:3264  for(uint i=0;i<productIds.length;i++)\r... */\n      jump(tag_78)\n    tag_79:\n      pop\n        /* \"contracts/manufacturerProduct.sol\":3281:3294  ManufacturerP */\n      dup1\n        /* \"contracts/manufacturerProduct.sol\":3274:3294  return ManufacturerP */\n      swap3\n      pop\n      pop\n      pop\n        /* \"contracts/manufacturerProduct.sol\":2789:3302  function getAllProductsOfManufacturer(address _manufacturerAddress) public view returns(manufacturerProduct[] memory)\r... */\n      swap2\n      swap1\n      pop\n      jump\t// out\n        /* \"contracts/manufacturerProduct.sol\":471:552  mapping(uint => manufacturerProduct) public manufacturerProductsIdToStructMapping */\n    tag_35:\n      mstore(0x20, 0x01)\n      dup1\n      0x00\n      mstore\n      keccak256(0x00, 0x40)\n      0x00\n      swap2\n      pop\n      swap1\n      pop\n      dup1\n      0x02\n      add\n      dup1\n      sload\n      tag_102\n      swap1\n      tag_89\n      jump\t// in\n    tag_102:\n      dup1\n      0x1f\n      add\n      0x20\n      dup1\n      swap2\n      div\n      mul\n      0x20\n      add\n      mload(0x40)\n      swap1\n      dup2\n      add\n      0x40\n      mstore\n      dup1\n      swap3\n      swap2\n      swap1\n      dup2\n      dup2\n      mstore\n      0x20\n      add\n      dup3\n      dup1\n      sload\n      tag_103\n      swap1\n      tag_89\n      jump\t// in\n    tag_103:\n      dup1\n      iszero\n      tag_104\n      jumpi\n      dup1\n      0x1f\n      lt\n      tag_105\n      jumpi\n      0x0100\n      dup1\n      dup4\n      sload\n      div\n      mul\n      dup4\n      mstore\n      swap2\n      0x20\n      add\n      swap2\n      jump(tag_104)\n    tag_105:\n      dup3\n      add\n      swap2\n      swap1\n      0x00\n      mstore\n      keccak256(0x00, 0x20)\n      swap1\n    tag_106:\n      dup2\n      sload\n      dup2\n      mstore\n      swap1\n      0x01\n      add\n      swap1\n      0x20\n      add\n      dup1\n      dup4\n      gt\n      tag_106\n      jumpi\n      dup3\n      swap1\n      sub\n      0x1f\n      and\n      dup3\n      add\n      swap2\n    tag_104:\n      pop\n      pop\n      pop\n      pop\n      pop\n      swap1\n      dup1\n      0x03\n      add\n      dup1\n      sload\n      tag_107\n      swap1\n      tag_89\n      jump\t// in\n    tag_107:\n      dup1\n      0x1f\n      add\n      0x20\n      dup1\n      swap2\n      div\n      mul\n      0x20\n      add\n      mload(0x40)\n      swap1\n      dup2\n      add\n      0x40\n      mstore\n      dup1\n      swap3\n      swap2\n      swap1\n      dup2\n      dup2\n      mstore\n      0x20\n      add\n      dup3\n      dup1\n      sload\n      tag_108\n      swap1\n      tag_89\n      jump\t// in\n    tag_108:\n      dup1\n      iszero\n      tag_109\n      jumpi\n      dup1\n      0x1f\n      lt\n      tag_110\n      jumpi\n      0x0100\n      dup1\n      dup4\n      sload\n      div\n      mul\n      dup4\n      mstore\n      swap2\n      0x20\n      add\n      swap2\n      jump(tag_109)\n    tag_110:\n      dup3\n      add\n      swap2\n      swap1\n      0x00\n      mstore\n      keccak256(0x00, 0x20)\n      swap1\n    tag_111:\n      dup2\n      sload\n      dup2\n      mstore\n      swap1\n      0x01\n      add\n      swap1\n      0x20\n      add\n      dup1\n      dup4\n      gt\n      tag_111\n      jumpi\n      dup3\n      swap1\n      sub\n      0x1f\n      and\n      dup3\n      add\n      swap2\n    tag_109:\n      pop\n      pop\n      pop\n      pop\n      pop\n      swap1\n      dup1\n      0x04\n      add\n      0x00\n      swap1\n      sload\n      swap1\n      0x0100\n      exp\n      swap1\n      div\n      0xffffffffffffffffffffffffffffffff\n      and\n      swap1\n      dup1\n      0x04\n      add\n      0x10\n      swap1\n      sload\n      swap1\n      0x0100\n      exp\n      swap1\n      div\n      0xffffffffffffffffffffffffffffffff\n      and\n      swap1\n      dup1\n      0x05\n      add\n      0x00\n      swap1\n      sload\n      swap1\n      0x0100\n      exp\n      swap1\n      div\n      0xffffffff\n      and\n      swap1\n      dup1\n      0x05\n      add\n      0x04\n      swap1\n      sload\n      swap1\n      0x0100\n      exp\n      swap1\n      div\n      0xffffffff\n      and\n      swap1\n      dup1\n      0x05\n      add\n      0x08\n      swap1\n      sload\n      swap1\n      0x0100\n      exp\n      swap1\n      div\n      0xff\n      and\n      swap1\n      pop\n      dup8\n      jump\t// out\n        /* \"contracts/manufacturerProduct.sol\":3403:3598  function deleteManufacturerProduct(uint _mpId)external override{\r... */\n    tag_40:\n        /* \"contracts/manufacturerProduct.sol\":3532:3537  false */\n      0x00\n        /* \"contracts/manufacturerProduct.sol\":3477:3514  manufacturerProductsIdToStructMapping */\n      0x01\n        /* \"contracts/manufacturerProduct.sol\":3477:3521  manufacturerProductsIdToStructMapping[_mpId] */\n      0x00\n        /* \"contracts/manufacturerProduct.sol\":3515:3520  _mpId */\n      dup4\n        /* \"contracts/manufacturerProduct.sol\":3477:3521  manufacturerProductsIdToStructMapping[_mpId] */\n      dup2\n      mstore\n      0x20\n      add\n      swap1\n      dup2\n      mstore\n      0x20\n      add\n      0x00\n      keccak256\n        /* \"contracts/manufacturerProduct.sol\":3477:3531  manufacturerProductsIdToStructMapping[_mpId].mp_status */\n      0x05\n      add\n      0x08\n        /* \"contracts/manufacturerProduct.sol\":3477:3537  manufacturerProductsIdToStructMapping[_mpId].mp_status=false */\n      0x0100\n      exp\n      dup2\n      sload\n      dup2\n      0xff\n      mul\n      not\n      and\n      swap1\n      dup4\n      iszero\n      iszero\n      mul\n      or\n      swap1\n      sstore\n      pop\n        /* \"contracts/manufacturerProduct.sol\":3553:3590  eventDeleteManufacturerProduct(_mpId) */\n      0xbe5aa4247333e0978e80edfd1266e28e6cba6ea134522f795973c7133bc43174\n        /* \"contracts/manufacturerProduct.sol\":3584:3589  _mpId */\n      dup2\n        /* \"contracts/manufacturerProduct.sol\":3553:3590  eventDeleteManufacturerProduct(_mpId) */\n      mload(0x40)\n      tag_113\n      swap2\n      swap1\n      tag_25\n      jump\t// in\n    tag_113:\n      mload(0x40)\n      dup1\n      swap2\n      sub\n      swap1\n      log1\n        /* \"contracts/manufacturerProduct.sol\":3403:3598  function deleteManufacturerProduct(uint _mpId)external override{\r... */\n      pop\n      jump\t// out\n        /* \"contracts/manufacturerProduct.sol\":1950:2234  function updateManufacturerProductUints(uint _mpId, uint128 _quantity) public override{\r... */\n    tag_44:\n        /* \"contracts/manufacturerProduct.sol\":2103:2112  _quantity */\n      dup1\n        /* \"contracts/manufacturerProduct.sol\":2047:2084  manufacturerProductsIdToStructMapping */\n      0x01\n        /* \"contracts/manufacturerProduct.sol\":2047:2091  manufacturerProductsIdToStructMapping[_mpId] */\n      0x00\n        /* \"contracts/manufacturerProduct.sol\":2085:2090  _mpId */\n      dup5\n        /* \"contracts/manufacturerProduct.sol\":2047:2091  manufacturerProductsIdToStructMapping[_mpId] */\n      dup2\n      mstore\n      0x20\n      add\n      swap1\n      dup2\n      mstore\n      0x20\n      add\n      0x00\n      keccak256\n        /* \"contracts/manufacturerProduct.sol\":2047:2099  manufacturerProductsIdToStructMapping[_mpId].mp_unit */\n      0x04\n      add\n      0x00\n        /* \"contracts/manufacturerProduct.sol\":2047:2112  manufacturerProductsIdToStructMapping[_mpId].mp_unit -= _quantity */\n      dup3\n      dup3\n      dup3\n      swap1\n      sload\n      swap1\n      0x0100\n      exp\n      swap1\n      div\n      0xffffffffffffffffffffffffffffffff\n      and\n      tag_115\n      swap2\n      swap1\n      tag_116\n      jump\t// in\n    tag_115:\n      swap3\n      pop\n      0x0100\n      exp\n      dup2\n      sload\n      dup2\n      0xffffffffffffffffffffffffffffffff\n      mul\n      not\n      and\n      swap1\n      dup4\n      0xffffffffffffffffffffffffffffffff\n      and\n      mul\n      or\n      swap1\n      sstore\n      pop\n        /* \"contracts/manufacturerProduct.sol\":2166:2171  _mpId */\n      dup2\n        /* \"contracts/manufacturerProduct.sol\":2130:2226  eventUpdateManufacturerProductUints(_mpId, manufacturerProductsIdToStructMapping[_mpId].mp_unit) */\n      0x0cdf608777b7c369c17a854e339a0c861f903b381b92294555cd61b0c49f6cab\n        /* \"contracts/manufacturerProduct.sol\":2173:2210  manufacturerProductsIdToStructMapping */\n      0x01\n        /* \"contracts/manufacturerProduct.sol\":2173:2217  manufacturerProductsIdToStructMapping[_mpId] */\n      0x00\n        /* \"contracts/manufacturerProduct.sol\":2211:2216  _mpId */\n      dup6\n        /* \"contracts/manufacturerProduct.sol\":2173:2217  manufacturerProductsIdToStructMapping[_mpId] */\n      dup2\n      mstore\n      0x20\n      add\n      swap1\n      dup2\n      mstore\n      0x20\n      add\n      0x00\n      keccak256\n        /* \"contracts/manufacturerProduct.sol\":2173:2225  manufacturerProductsIdToStructMapping[_mpId].mp_unit */\n      0x04\n      add\n      0x00\n      swap1\n      sload\n      swap1\n      0x0100\n      exp\n      swap1\n      div\n      0xffffffffffffffffffffffffffffffff\n      and\n        /* \"contracts/manufacturerProduct.sol\":2130:2226  eventUpdateManufacturerProductUints(_mpId, manufacturerProductsIdToStructMapping[_mpId].mp_unit) */\n      mload(0x40)\n      tag_117\n      swap2\n      swap1\n      tag_118\n      jump\t// in\n    tag_117:\n      mload(0x40)\n      dup1\n      swap2\n      sub\n      swap1\n      log2\n        /* \"contracts/manufacturerProduct.sol\":1950:2234  function updateManufacturerProductUints(uint _mpId, uint128 _quantity) public override{\r... */\n      pop\n      pop\n      jump\t// out\n        /* \"contracts/manufacturerProduct.sol\":2523:2690  function getSingleManufacturerProduct(uint _mpId) public view returns(manufacturerProduct memory){\r... */\n    tag_47:\n        /* \"contracts/manufacturerProduct.sol\":2593:2619  manufacturerProduct memory */\n      tag_119\n      tag_77\n      jump\t// in\n    tag_119:\n        /* \"contracts/manufacturerProduct.sol\":2638:2675  manufacturerProductsIdToStructMapping */\n      0x01\n        /* \"contracts/manufacturerProduct.sol\":2638:2682  manufacturerProductsIdToStructMapping[_mpId] */\n      0x00\n        /* \"contracts/manufacturerProduct.sol\":2676:2681  _mpId */\n      dup4\n        /* \"contracts/manufacturerProduct.sol\":2638:2682  manufacturerProductsIdToStructMapping[_mpId] */\n      dup2\n      mstore\n      0x20\n      add\n      swap1\n      dup2\n      mstore\n      0x20\n      add\n      0x00\n      keccak256\n        /* \"contracts/manufacturerProduct.sol\":2631:2682  return manufacturerProductsIdToStructMapping[_mpId] */\n      mload(0x40)\n      dup1\n      0x0120\n      add\n      0x40\n      mstore\n      swap1\n      dup2\n      0x00\n      dup3\n      add\n      dup1\n      sload\n      dup1\n      0x20\n      mul\n      0x20\n      add\n      mload(0x40)\n      swap1\n      dup2\n      add\n      0x40\n      mstore\n      dup1\n      swap3\n      swap2\n      swap1\n      dup2\n      dup2\n      mstore\n      0x20\n      add\n      dup3\n      dup1\n      sload\n      dup1\n      iszero\n      tag_121\n      jumpi\n      0x20\n      mul\n      dup3\n      add\n      swap2\n      swap1\n      0x00\n      mstore\n      keccak256(0x00, 0x20)\n      swap1\n    tag_122:\n      dup2\n      0x00\n      swap1\n      sload\n      swap1\n      0x0100\n      exp\n      swap1\n      div\n      0xffffffffffffffffffffffffffffffffffffffff\n      and\n      0xffffffffffffffffffffffffffffffffffffffff\n      and\n      dup2\n      mstore\n      0x20\n      add\n      swap1\n      0x01\n      add\n      swap1\n      dup1\n      dup4\n      gt\n      tag_122\n      jumpi\n    tag_121:\n      pop\n      pop\n      pop\n      pop\n      pop\n      dup2\n      mstore\n      0x20\n      add\n      0x01\n      dup3\n      add\n      dup1\n      sload\n      dup1\n      0x20\n      mul\n      0x20\n      add\n      mload(0x40)\n      swap1\n      dup2\n      add\n      0x40\n      mstore\n      dup1\n      swap3\n      swap2\n      swap1\n      dup2\n      dup2\n      mstore\n      0x20\n      add\n      dup3\n      dup1\n      sload\n      dup1\n      iszero\n      tag_123\n      jumpi\n      0x20\n      mul\n      dup3\n      add\n      swap2\n      swap1\n      0x00\n      mstore\n      keccak256(0x00, 0x20)\n      swap1\n    tag_124:\n      dup2\n      sload\n      dup2\n      mstore\n      0x20\n      add\n      swap1\n      0x01\n      add\n      swap1\n      dup1\n      dup4\n      gt\n      tag_124\n      jumpi\n    tag_123:\n      pop\n      pop\n      pop\n      pop\n      pop\n      dup2\n      mstore\n      0x20\n      add\n      0x02\n      dup3\n      add\n      dup1\n      sload\n      tag_125\n      swap1\n      tag_89\n      jump\t// in\n    tag_125:\n      dup1\n      0x1f\n      add\n      0x20\n      dup1\n      swap2\n      div\n      mul\n      0x20\n      add\n      mload(0x40)\n      swap1\n      dup2\n      add\n      0x40\n      mstore\n      dup1\n      swap3\n      swap2\n      swap1\n      dup2\n      dup2\n      mstore\n      0x20\n      add\n      dup3\n      dup1\n      sload\n      tag_126\n      swap1\n      tag_89\n      jump\t// in\n    tag_126:\n      dup1\n      iszero\n      tag_127\n      jumpi\n      dup1\n      0x1f\n      lt\n      tag_128\n      jumpi\n      0x0100\n      dup1\n      dup4\n      sload\n      div\n      mul\n      dup4\n      mstore\n      swap2\n      0x20\n      add\n      swap2\n      jump(tag_127)\n    tag_128:\n      dup3\n      add\n      swap2\n      swap1\n      0x00\n      mstore\n      keccak256(0x00, 0x20)\n      swap1\n    tag_129:\n      dup2\n      sload\n      dup2\n      mstore\n      swap1\n      0x01\n      add\n      swap1\n      0x20\n      add\n      dup1\n      dup4\n      gt\n      tag_129\n      jumpi\n      dup3\n      swap1\n      sub\n      0x1f\n      and\n      dup3\n      add\n      swap2\n    tag_127:\n      pop\n      pop\n      pop\n      pop\n      pop\n      dup2\n      mstore\n      0x20\n      add\n      0x03\n      dup3\n      add\n      dup1\n      sload\n      tag_130\n      swap1\n      tag_89\n      jump\t// in\n    tag_130:\n      dup1\n      0x1f\n      add\n      0x20\n      dup1\n      swap2\n      div\n      mul\n      0x20\n      add\n      mload(0x40)\n      swap1\n      dup2\n      add\n      0x40\n      mstore\n      dup1\n      swap3\n      swap2\n      swap1\n      dup2\n      dup2\n      mstore\n      0x20\n      add\n      dup3\n      dup1\n      sload\n      tag_131\n      swap1\n      tag_89\n      jump\t// in\n    tag_131:\n      dup1\n      iszero\n      tag_132\n      jumpi\n      dup1\n      0x1f\n      lt\n      tag_133\n      jumpi\n      0x0100\n      dup1\n      dup4\n      sload\n      div\n      mul\n      dup4\n      mstore\n      swap2\n      0x20\n      add\n      swap2\n      jump(tag_132)\n    tag_133:\n      dup3\n      add\n      swap2\n      swap1\n      0x00\n      mstore\n      keccak256(0x00, 0x20)\n      swap1\n    tag_134:\n      dup2\n      sload\n      dup2\n      mstore\n      swap1\n      0x01\n      add\n      swap1\n      0x20\n      add\n      dup1\n      dup4\n      gt\n      tag_134\n      jumpi\n      dup3\n      swap1\n      sub\n      0x1f\n      and\n      dup3\n      add\n      swap2\n    tag_132:\n      pop\n      pop\n      pop\n      pop\n      pop\n      dup2\n      mstore\n      0x20\n      add\n      0x04\n      dup3\n      add\n      0x00\n      swap1\n      sload\n      swap1\n      0x0100\n      exp\n      swap1\n      div\n      0xffffffffffffffffffffffffffffffff\n      and\n      0xffffffffffffffffffffffffffffffff\n      and\n      0xffffffffffffffffffffffffffffffff\n      and\n      dup2\n      mstore\n      0x20\n      add\n      0x04\n      dup3\n      add\n      0x10\n      swap1\n      sload\n      swap1\n      0x0100\n      exp\n      swap1\n      div\n      0xffffffffffffffffffffffffffffffff\n      and\n      0xffffffffffffffffffffffffffffffff\n      and\n      0xffffffffffffffffffffffffffffffff\n      and\n      dup2\n      mstore\n      0x20\n      add\n      0x05\n      dup3\n      add\n      0x00\n      swap1\n      sload\n      swap1\n      0x0100\n      exp\n      swap1\n      div\n      0xffffffff\n      and\n      0xffffffff\n      and\n      0xffffffff\n      and\n      dup2\n      mstore\n      0x20\n      add\n      0x05\n      dup3\n      add\n      0x04\n      swap1\n      sload\n      swap1\n      0x0100\n      exp\n      swap1\n      div\n      0xffffffff\n      and\n      0xffffffff\n      and\n      0xffffffff\n      and\n      dup2\n      mstore\n      0x20\n      add\n      0x05\n      dup3\n      add\n      0x08\n      swap1\n      sload\n      swap1\n      0x0100\n      exp\n      swap1\n      div\n      0xff\n      and\n      iszero\n      iszero\n      iszero\n      iszero\n      dup2\n      mstore\n      pop\n      pop\n      swap1\n      pop\n        /* \"contracts/manufacturerProduct.sol\":2523:2690  function getSingleManufacturerProduct(uint _mpId) public view returns(manufacturerProduct memory){\r... */\n      swap2\n      swap1\n      pop\n      jump\t// out\n    tag_55:\n      dup3\n      dup1\n      sload\n      dup3\n      dup3\n      sstore\n      swap1\n      0x00\n      mstore\n      keccak256(0x00, 0x20)\n      swap1\n      dup2\n      add\n      swap3\n      dup3\n      iszero\n      tag_135\n      jumpi\n      swap2\n      0x20\n      mul\n      dup3\n      add\n    tag_136:\n      dup3\n      dup2\n      gt\n      iszero\n      tag_137\n      jumpi\n      dup3\n      mload\n      dup3\n      exp(0x0100, 0x00)\n      dup2\n      sload\n      dup2\n      0xffffffffffffffffffffffffffffffffffffffff\n      mul\n      not\n      and\n      swap1\n      dup4\n      0xffffffffffffffffffffffffffffffffffffffff\n      and\n      mul\n      or\n      swap1\n      sstore\n      pop\n      swap2\n      0x20\n      add\n      swap2\n      swap1\n      0x01\n      add\n      swap1\n      jump(tag_136)\n    tag_137:\n    tag_135:\n      pop\n      swap1\n      pop\n      tag_138\n      swap2\n      swap1\n      tag_139\n      jump\t// in\n    tag_138:\n      pop\n      swap1\n      jump\t// out\n    tag_57:\n      dup3\n      dup1\n      sload\n      dup3\n      dup3\n      sstore\n      swap1\n      0x00\n      mstore\n      keccak256(0x00, 0x20)\n      swap1\n      dup2\n      add\n      swap3\n      dup3\n      iszero\n      tag_140\n      jumpi\n      swap2\n      0x20\n      mul\n      dup3\n      add\n    tag_141:\n      dup3\n      dup2\n      gt\n      iszero\n      tag_142\n      jumpi\n      dup3\n      mload\n      dup3\n      sstore\n      swap2\n      0x20\n      add\n      swap2\n      swap1\n      0x01\n      add\n      swap1\n      jump(tag_141)\n    tag_142:\n    tag_140:\n      pop\n      swap1\n      pop\n      tag_143\n      swap2\n      swap1\n      tag_139\n      jump\t// in\n    tag_143:\n      pop\n      swap1\n      jump\t// out\n    tag_59:\n      dup3\n      dup1\n      sload\n      tag_144\n      swap1\n      tag_89\n      jump\t// in\n    tag_144:\n      swap1\n      0x00\n      mstore\n      keccak256(0x00, 0x20)\n      swap1\n      0x1f\n      add\n      0x20\n      swap1\n      div\n      dup2\n      add\n      swap3\n      dup3\n      tag_146\n      jumpi\n      0x00\n      dup6\n      sstore\n      jump(tag_145)\n    tag_146:\n      dup3\n      0x1f\n      lt\n      tag_147\n      jumpi\n      dup1\n      mload\n      not(0xff)\n      and\n      dup4\n      dup1\n      add\n      or\n      dup6\n      sstore\n      jump(tag_145)\n    tag_147:\n      dup3\n      dup1\n      add\n      0x01\n      add\n      dup6\n      sstore\n      dup3\n      iszero\n      tag_145\n      jumpi\n      swap2\n      dup3\n      add\n    tag_148:\n      dup3\n      dup2\n      gt\n      iszero\n      tag_149\n      jumpi\n      dup3\n      mload\n      dup3\n      sstore\n      swap2\n      0x20\n      add\n      swap2\n      swap1\n      0x01\n      add\n      swap1\n      jump(tag_148)\n    tag_149:\n    tag_145:\n      pop\n      swap1\n      pop\n      tag_150\n      swap2\n      swap1\n      tag_139\n      jump\t// in\n    tag_150:\n      pop\n      swap1\n      jump\t// out\n    tag_77:\n      mload(0x40)\n      dup1\n      0x0120\n      add\n      0x40\n      mstore\n      dup1\n      0x60\n      dup2\n      mstore\n      0x20\n      add\n      0x60\n      dup2\n      mstore\n      0x20\n      add\n      0x60\n      dup2\n      mstore\n      0x20\n      add\n      0x60\n      dup2\n      mstore\n      0x20\n      add\n      and(0xffffffffffffffffffffffffffffffff, 0x00)\n      dup2\n      mstore\n      0x20\n      add\n      and(0xffffffffffffffffffffffffffffffff, 0x00)\n      dup2\n      mstore\n      0x20\n      add\n      and(0xffffffff, 0x00)\n      dup2\n      mstore\n      0x20\n      add\n      and(0xffffffff, 0x00)\n      dup2\n      mstore\n      0x20\n      add\n      iszero(iszero(0x00))\n      dup2\n      mstore\n      pop\n      swap1\n      jump\t// out\n    tag_139:\n    tag_151:\n      dup1\n      dup3\n      gt\n      iszero\n      tag_152\n      jumpi\n      0x00\n      dup2\n      0x00\n      swap1\n      sstore\n      pop\n      0x01\n      add\n      jump(tag_151)\n    tag_152:\n      pop\n      swap1\n      jump\t// out\n        /* \"#utility.yul\":24:746   */\n    tag_154:\n        /* \"#utility.yul\":120:125   */\n      0x00\n        /* \"#utility.yul\":145:226   */\n      tag_156\n        /* \"#utility.yul\":161:225   */\n      tag_157\n        /* \"#utility.yul\":218:224   */\n      dup5\n        /* \"#utility.yul\":161:225   */\n      tag_158\n      jump\t// in\n    tag_157:\n        /* \"#utility.yul\":145:226   */\n      tag_159\n      jump\t// in\n    tag_156:\n        /* \"#utility.yul\":136:226   */\n      swap1\n      pop\n        /* \"#utility.yul\":246:251   */\n      dup1\n        /* \"#utility.yul\":275:281   */\n      dup4\n        /* \"#utility.yul\":268:273   */\n      dup3\n        /* \"#utility.yul\":261:282   */\n      mstore\n        /* \"#utility.yul\":309:313   */\n      0x20\n        /* \"#utility.yul\":302:307   */\n      dup3\n        /* \"#utility.yul\":298:314   */\n      add\n        /* \"#utility.yul\":291:314   */\n      swap1\n      pop\n        /* \"#utility.yul\":335:341   */\n      dup3\n        /* \"#utility.yul\":385:388   */\n      dup6\n        /* \"#utility.yul\":377:381   */\n      0x20\n        /* \"#utility.yul\":369:375   */\n      dup7\n        /* \"#utility.yul\":365:382   */\n      mul\n        /* \"#utility.yul\":360:363   */\n      dup3\n        /* \"#utility.yul\":356:383   */\n      add\n        /* \"#utility.yul\":353:389   */\n      gt\n        /* \"#utility.yul\":350:493   */\n      iszero\n      tag_160\n      jumpi\n        /* \"#utility.yul\":404:483   */\n      tag_161\n      tag_162\n      jump\t// in\n    tag_161:\n        /* \"#utility.yul\":350:493   */\n    tag_160:\n        /* \"#utility.yul\":517:518   */\n      0x00\n        /* \"#utility.yul\":502:740   */\n    tag_163:\n        /* \"#utility.yul\":527:533   */\n      dup6\n        /* \"#utility.yul\":524:525   */\n      dup2\n        /* \"#utility.yul\":521:534   */\n      lt\n        /* \"#utility.yul\":502:740   */\n      iszero\n      tag_165\n      jumpi\n        /* \"#utility.yul\":595:598   */\n      dup2\n        /* \"#utility.yul\":624:661   */\n      tag_166\n        /* \"#utility.yul\":657:660   */\n      dup9\n        /* \"#utility.yul\":645:655   */\n      dup3\n        /* \"#utility.yul\":624:661   */\n      tag_167\n      jump\t// in\n    tag_166:\n        /* \"#utility.yul\":619:622   */\n      dup5\n        /* \"#utility.yul\":612:662   */\n      mstore\n        /* \"#utility.yul\":691:695   */\n      0x20\n        /* \"#utility.yul\":686:689   */\n      dup5\n        /* \"#utility.yul\":682:696   */\n      add\n        /* \"#utility.yul\":675:696   */\n      swap4\n      pop\n        /* \"#utility.yul\":725:729   */\n      0x20\n        /* \"#utility.yul\":720:723   */\n      dup4\n        /* \"#utility.yul\":716:730   */\n      add\n        /* \"#utility.yul\":709:730   */\n      swap3\n      pop\n        /* \"#utility.yul\":562:740   */\n      pop\n        /* \"#utility.yul\":549:550   */\n      0x01\n        /* \"#utility.yul\":546:547   */\n      dup2\n        /* \"#utility.yul\":542:551   */\n      add\n        /* \"#utility.yul\":537:551   */\n      swap1\n      pop\n        /* \"#utility.yul\":502:740   */\n      jump(tag_163)\n    tag_165:\n        /* \"#utility.yul\":506:520   */\n      pop\n        /* \"#utility.yul\":126:746   */\n      pop\n      pop\n        /* \"#utility.yul\":24:746   */\n      swap4\n      swap3\n      pop\n      pop\n      pop\n      jump\t// out\n        /* \"#utility.yul\":769:1491   */\n    tag_168:\n        /* \"#utility.yul\":865:870   */\n      0x00\n        /* \"#utility.yul\":890:971   */\n      tag_170\n        /* \"#utility.yul\":906:970   */\n      tag_171\n        /* \"#utility.yul\":963:969   */\n      dup5\n        /* \"#utility.yul\":906:970   */\n      tag_172\n      jump\t// in\n    tag_171:\n        /* \"#utility.yul\":890:971   */\n      tag_159\n      jump\t// in\n    tag_170:\n        /* \"#utility.yul\":881:971   */\n      swap1\n      pop\n        /* \"#utility.yul\":991:996   */\n      dup1\n        /* \"#utility.yul\":1020:1026   */\n      dup4\n        /* \"#utility.yul\":1013:1018   */\n      dup3\n        /* \"#utility.yul\":1006:1027   */\n      mstore\n        /* \"#utility.yul\":1054:1058   */\n      0x20\n        /* \"#utility.yul\":1047:1052   */\n      dup3\n        /* \"#utility.yul\":1043:1059   */\n      add\n        /* \"#utility.yul\":1036:1059   */\n      swap1\n      pop\n        /* \"#utility.yul\":1080:1086   */\n      dup3\n        /* \"#utility.yul\":1130:1133   */\n      dup6\n        /* \"#utility.yul\":1122:1126   */\n      0x20\n        /* \"#utility.yul\":1114:1120   */\n      dup7\n        /* \"#utility.yul\":1110:1127   */\n      mul\n        /* \"#utility.yul\":1105:1108   */\n      dup3\n        /* \"#utility.yul\":1101:1128   */\n      add\n        /* \"#utility.yul\":1098:1134   */\n      gt\n        /* \"#utility.yul\":1095:1238   */\n      iszero\n      tag_173\n      jumpi\n        /* \"#utility.yul\":1149:1228   */\n      tag_174\n      tag_162\n      jump\t// in\n    tag_174:\n        /* \"#utility.yul\":1095:1238   */\n    tag_173:\n        /* \"#utility.yul\":1262:1263   */\n      0x00\n        /* \"#utility.yul\":1247:1485   */\n    tag_175:\n        /* \"#utility.yul\":1272:1278   */\n      dup6\n        /* \"#utility.yul\":1269:1270   */\n      dup2\n        /* \"#utility.yul\":1266:1279   */\n      lt\n        /* \"#utility.yul\":1247:1485   */\n      iszero\n      tag_177\n      jumpi\n        /* \"#utility.yul\":1340:1343   */\n      dup2\n        /* \"#utility.yul\":1369:1406   */\n      tag_178\n        /* \"#utility.yul\":1402:1405   */\n      dup9\n        /* \"#utility.yul\":1390:1400   */\n      dup3\n        /* \"#utility.yul\":1369:1406   */\n      tag_179\n      jump\t// in\n    tag_178:\n        /* \"#utility.yul\":1364:1367   */\n      dup5\n        /* \"#utility.yul\":1357:1407   */\n      mstore\n        /* \"#utility.yul\":1436:1440   */\n      0x20\n        /* \"#utility.yul\":1431:1434   */\n      dup5\n        /* \"#utility.yul\":1427:1441   */\n      add\n        /* \"#utility.yul\":1420:1441   */\n      swap4\n      pop\n        /* \"#utility.yul\":1470:1474   */\n      0x20\n        /* \"#utility.yul\":1465:1468   */\n      dup4\n        /* \"#utility.yul\":1461:1475   */\n      add\n        /* \"#utility.yul\":1454:1475   */\n      swap3\n      pop\n        /* \"#utility.yul\":1307:1485   */\n      pop\n        /* \"#utility.yul\":1294:1295   */\n      0x01\n        /* \"#utility.yul\":1291:1292   */\n      dup2\n        /* \"#utility.yul\":1287:1296   */\n      add\n        /* \"#utility.yul\":1282:1296   */\n      swap1\n      pop\n        /* \"#utility.yul\":1247:1485   */\n      jump(tag_175)\n    tag_177:\n        /* \"#utility.yul\":1251:1265   */\n      pop\n        /* \"#utility.yul\":871:1491   */\n      pop\n      pop\n        /* \"#utility.yul\":769:1491   */\n      swap4\n      swap3\n      pop\n      pop\n      pop\n      jump\t// out\n        /* \"#utility.yul\":1497:1636   */\n    tag_167:\n        /* \"#utility.yul\":1543:1548   */\n      0x00\n        /* \"#utility.yul\":1581:1587   */\n      dup2\n        /* \"#utility.yul\":1568:1588   */\n      calldataload\n        /* \"#utility.yul\":1559:1588   */\n      swap1\n      pop\n        /* \"#utility.yul\":1597:1630   */\n      tag_181\n        /* \"#utility.yul\":1624:1629   */\n      dup2\n        /* \"#utility.yul\":1597:1630   */\n      tag_182\n      jump\t// in\n    tag_181:\n        /* \"#utility.yul\":1497:1636   */\n      swap3\n      swap2\n      pop\n      pop\n      jump\t// out\n        /* \"#utility.yul\":1659:2029   */\n    tag_183:\n        /* \"#utility.yul\":1730:1735   */\n      0x00\n        /* \"#utility.yul\":1779:1782   */\n      dup3\n        /* \"#utility.yul\":1772:1776   */\n      0x1f\n        /* \"#utility.yul\":1764:1770   */\n      dup4\n        /* \"#utility.yul\":1760:1777   */\n      add\n        /* \"#utility.yul\":1756:1783   */\n      slt\n        /* \"#utility.yul\":1746:1868   */\n      tag_185\n      jumpi\n        /* \"#utility.yul\":1787:1866   */\n      tag_186\n      tag_187\n      jump\t// in\n    tag_186:\n        /* \"#utility.yul\":1746:1868   */\n    tag_185:\n        /* \"#utility.yul\":1904:1910   */\n      dup2\n        /* \"#utility.yul\":1891:1911   */\n      calldataload\n        /* \"#utility.yul\":1929:2023   */\n      tag_188\n        /* \"#utility.yul\":2019:2022   */\n      dup5\n        /* \"#utility.yul\":2011:2017   */\n      dup3\n        /* \"#utility.yul\":2004:2008   */\n      0x20\n        /* \"#utility.yul\":1996:2002   */\n      dup7\n        /* \"#utility.yul\":1992:2009   */\n      add\n        /* \"#utility.yul\":1929:2023   */\n      tag_154\n      jump\t// in\n    tag_188:\n        /* \"#utility.yul\":1920:2023   */\n      swap2\n      pop\n        /* \"#utility.yul\":1736:2029   */\n      pop\n        /* \"#utility.yul\":1659:2029   */\n      swap3\n      swap2\n      pop\n      pop\n      jump\t// out\n        /* \"#utility.yul\":2052:2422   */\n    tag_189:\n        /* \"#utility.yul\":2123:2128   */\n      0x00\n        /* \"#utility.yul\":2172:2175   */\n      dup3\n        /* \"#utility.yul\":2165:2169   */\n      0x1f\n        /* \"#utility.yul\":2157:2163   */\n      dup4\n        /* \"#utility.yul\":2153:2170   */\n      add\n        /* \"#utility.yul\":2149:2176   */\n      slt\n        /* \"#utility.yul\":2139:2261   */\n      tag_191\n      jumpi\n        /* \"#utility.yul\":2180:2259   */\n      tag_192\n      tag_187\n      jump\t// in\n    tag_192:\n        /* \"#utility.yul\":2139:2261   */\n    tag_191:\n        /* \"#utility.yul\":2297:2303   */\n      dup2\n        /* \"#utility.yul\":2284:2304   */\n      calldataload\n        /* \"#utility.yul\":2322:2416   */\n      tag_193\n        /* \"#utility.yul\":2412:2415   */\n      dup5\n        /* \"#utility.yul\":2404:2410   */\n      dup3\n        /* \"#utility.yul\":2397:2401   */\n      0x20\n        /* \"#utility.yul\":2389:2395   */\n      dup7\n        /* \"#utility.yul\":2385:2402   */\n      add\n        /* \"#utility.yul\":2322:2416   */\n      tag_168\n      jump\t// in\n    tag_193:\n        /* \"#utility.yul\":2313:2416   */\n      swap2\n      pop\n        /* \"#utility.yul\":2129:2422   */\n      pop\n        /* \"#utility.yul\":2052:2422   */\n      swap3\n      swap2\n      pop\n      pop\n      jump\t// out\n        /* \"#utility.yul\":2441:2993   */\n    tag_194:\n        /* \"#utility.yul\":2498:2506   */\n      0x00\n        /* \"#utility.yul\":2508:2514   */\n      dup1\n        /* \"#utility.yul\":2558:2561   */\n      dup4\n        /* \"#utility.yul\":2551:2555   */\n      0x1f\n        /* \"#utility.yul\":2543:2549   */\n      dup5\n        /* \"#utility.yul\":2539:2556   */\n      add\n        /* \"#utility.yul\":2535:2562   */\n      slt\n        /* \"#utility.yul\":2525:2647   */\n      tag_196\n      jumpi\n        /* \"#utility.yul\":2566:2645   */\n      tag_197\n      tag_187\n      jump\t// in\n    tag_197:\n        /* \"#utility.yul\":2525:2647   */\n    tag_196:\n        /* \"#utility.yul\":2679:2685   */\n      dup3\n        /* \"#utility.yul\":2666:2686   */\n      calldataload\n        /* \"#utility.yul\":2656:2686   */\n      swap1\n      pop\n        /* \"#utility.yul\":2709:2727   */\n      0xffffffffffffffff\n        /* \"#utility.yul\":2701:2707   */\n      dup2\n        /* \"#utility.yul\":2698:2728   */\n      gt\n        /* \"#utility.yul\":2695:2812   */\n      iszero\n      tag_198\n      jumpi\n        /* \"#utility.yul\":2731:2810   */\n      tag_199\n      tag_200\n      jump\t// in\n    tag_199:\n        /* \"#utility.yul\":2695:2812   */\n    tag_198:\n        /* \"#utility.yul\":2845:2849   */\n      0x20\n        /* \"#utility.yul\":2837:2843   */\n      dup4\n        /* \"#utility.yul\":2833:2850   */\n      add\n        /* \"#utility.yul\":2821:2850   */\n      swap2\n      pop\n        /* \"#utility.yul\":2899:2902   */\n      dup4\n        /* \"#utility.yul\":2891:2895   */\n      0x01\n        /* \"#utility.yul\":2883:2889   */\n      dup3\n        /* \"#utility.yul\":2879:2896   */\n      mul\n        /* \"#utility.yul\":2869:2877   */\n      dup4\n        /* \"#utility.yul\":2865:2897   */\n      add\n        /* \"#utility.yul\":2862:2903   */\n      gt\n        /* \"#utility.yul\":2859:2987   */\n      iszero\n      tag_201\n      jumpi\n        /* \"#utility.yul\":2906:2985   */\n      tag_202\n      tag_162\n      jump\t// in\n    tag_202:\n        /* \"#utility.yul\":2859:2987   */\n    tag_201:\n        /* \"#utility.yul\":2441:2993   */\n      swap3\n      pop\n      swap3\n      swap1\n      pop\n      jump\t// out\n        /* \"#utility.yul\":2999:3138   */\n    tag_203:\n        /* \"#utility.yul\":3045:3050   */\n      0x00\n        /* \"#utility.yul\":3083:3089   */\n      dup2\n        /* \"#utility.yul\":3070:3090   */\n      calldataload\n        /* \"#utility.yul\":3061:3090   */\n      swap1\n      pop\n        /* \"#utility.yul\":3099:3132   */\n      tag_205\n        /* \"#utility.yul\":3126:3131   */\n      dup2\n        /* \"#utility.yul\":3099:3132   */\n      tag_206\n      jump\t// in\n    tag_205:\n        /* \"#utility.yul\":2999:3138   */\n      swap3\n      swap2\n      pop\n      pop\n      jump\t// out\n        /* \"#utility.yul\":3144:3283   */\n    tag_179:\n        /* \"#utility.yul\":3190:3195   */\n      0x00\n        /* \"#utility.yul\":3228:3234   */\n      dup2\n        /* \"#utility.yul\":3215:3235   */\n      calldataload\n        /* \"#utility.yul\":3206:3235   */\n      swap1\n      pop\n        /* \"#utility.yul\":3244:3277   */\n      tag_208\n        /* \"#utility.yul\":3271:3276   */\n      dup2\n        /* \"#utility.yul\":3244:3277   */\n      tag_209\n      jump\t// in\n    tag_208:\n        /* \"#utility.yul\":3144:3283   */\n      swap3\n      swap2\n      pop\n      pop\n      jump\t// out\n        /* \"#utility.yul\":3289:3426   */\n    tag_210:\n        /* \"#utility.yul\":3334:3339   */\n      0x00\n        /* \"#utility.yul\":3372:3378   */\n      dup2\n        /* \"#utility.yul\":3359:3379   */\n      calldataload\n        /* \"#utility.yul\":3350:3379   */\n      swap1\n      pop\n        /* \"#utility.yul\":3388:3420   */\n      tag_212\n        /* \"#utility.yul\":3414:3419   */\n      dup2\n        /* \"#utility.yul\":3388:3420   */\n      tag_213\n      jump\t// in\n    tag_212:\n        /* \"#utility.yul\":3289:3426   */\n      swap3\n      swap2\n      pop\n      pop\n      jump\t// out\n        /* \"#utility.yul\":3432:3761   */\n    tag_28:\n        /* \"#utility.yul\":3491:3497   */\n      0x00\n        /* \"#utility.yul\":3540:3542   */\n      0x20\n        /* \"#utility.yul\":3528:3537   */\n      dup3\n        /* \"#utility.yul\":3519:3526   */\n      dup5\n        /* \"#utility.yul\":3515:3538   */\n      sub\n        /* \"#utility.yul\":3511:3543   */\n      slt\n        /* \"#utility.yul\":3508:3627   */\n      iszero\n      tag_215\n      jumpi\n        /* \"#utility.yul\":3546:3625   */\n      tag_216\n      tag_217\n      jump\t// in\n    tag_216:\n        /* \"#utility.yul\":3508:3627   */\n    tag_215:\n        /* \"#utility.yul\":3666:3667   */\n      0x00\n        /* \"#utility.yul\":3691:3744   */\n      tag_218\n        /* \"#utility.yul\":3736:3743   */\n      dup5\n        /* \"#utility.yul\":3727:3733   */\n      dup3\n        /* \"#utility.yul\":3716:3725   */\n      dup6\n        /* \"#utility.yul\":3712:3734   */\n      add\n        /* \"#utility.yul\":3691:3744   */\n      tag_167\n      jump\t// in\n    tag_218:\n        /* \"#utility.yul\":3681:3744   */\n      swap2\n      pop\n        /* \"#utility.yul\":3637:3754   */\n      pop\n        /* \"#utility.yul\":3432:3761   */\n      swap3\n      swap2\n      pop\n      pop\n      jump\t// out\n        /* \"#utility.yul\":3767:4241   */\n    tag_22:\n        /* \"#utility.yul\":3835:3841   */\n      0x00\n        /* \"#utility.yul\":3843:3849   */\n      dup1\n        /* \"#utility.yul\":3892:3894   */\n      0x40\n        /* \"#utility.yul\":3880:3889   */\n      dup4\n        /* \"#utility.yul\":3871:3878   */\n      dup6\n        /* \"#utility.yul\":3867:3890   */\n      sub\n        /* \"#utility.yul\":3863:3895   */\n      slt\n        /* \"#utility.yul\":3860:3979   */\n      iszero\n      tag_220\n      jumpi\n        /* \"#utility.yul\":3898:3977   */\n      tag_221\n      tag_217\n      jump\t// in\n    tag_221:\n        /* \"#utility.yul\":3860:3979   */\n    tag_220:\n        /* \"#utility.yul\":4018:4019   */\n      0x00\n        /* \"#utility.yul\":4043:4096   */\n      tag_222\n        /* \"#utility.yul\":4088:4095   */\n      dup6\n        /* \"#utility.yul\":4079:4085   */\n      dup3\n        /* \"#utility.yul\":4068:4077   */\n      dup7\n        /* \"#utility.yul\":4064:4086   */\n      add\n        /* \"#utility.yul\":4043:4096   */\n      tag_167\n      jump\t// in\n    tag_222:\n        /* \"#utility.yul\":4033:4096   */\n      swap3\n      pop\n        /* \"#utility.yul\":3989:4106   */\n      pop\n        /* \"#utility.yul\":4145:4147   */\n      0x20\n        /* \"#utility.yul\":4171:4224   */\n      tag_223\n        /* \"#utility.yul\":4216:4223   */\n      dup6\n        /* \"#utility.yul\":4207:4213   */\n      dup3\n        /* \"#utility.yul\":4196:4205   */\n      dup7\n        /* \"#utility.yul\":4192:4214   */\n      add\n        /* \"#utility.yul\":4171:4224   */\n      tag_179\n      jump\t// in\n    tag_223:\n        /* \"#utility.yul\":4161:4224   */\n      swap2\n      pop\n        /* \"#utility.yul\":4116:4234   */\n      pop\n        /* \"#utility.yul\":3767:4241   */\n      swap3\n      pop\n      swap3\n      swap1\n      pop\n      jump\t// out\n        /* \"#utility.yul\":4247:6408   */\n    tag_18:\n        /* \"#utility.yul\":4439:4445   */\n      0x00\n        /* \"#utility.yul\":4447:4453   */\n      dup1\n        /* \"#utility.yul\":4455:4461   */\n      0x00\n        /* \"#utility.yul\":4463:4469   */\n      dup1\n        /* \"#utility.yul\":4471:4477   */\n      0x00\n        /* \"#utility.yul\":4479:4485   */\n      dup1\n        /* \"#utility.yul\":4487:4493   */\n      0x00\n        /* \"#utility.yul\":4495:4501   */\n      dup1\n        /* \"#utility.yul\":4503:4509   */\n      0x00\n        /* \"#utility.yul\":4511:4517   */\n      dup1\n        /* \"#utility.yul\":4560:4563   */\n      0x0100\n        /* \"#utility.yul\":4548:4557   */\n      dup12\n        /* \"#utility.yul\":4539:4546   */\n      dup14\n        /* \"#utility.yul\":4535:4558   */\n      sub\n        /* \"#utility.yul\":4531:4564   */\n      slt\n        /* \"#utility.yul\":4528:4648   */\n      iszero\n      tag_225\n      jumpi\n        /* \"#utility.yul\":4567:4646   */\n      tag_226\n      tag_217\n      jump\t// in\n    tag_226:\n        /* \"#utility.yul\":4528:4648   */\n    tag_225:\n        /* \"#utility.yul\":4715:4716   */\n      0x00\n        /* \"#utility.yul\":4704:4713   */\n      dup12\n        /* \"#utility.yul\":4700:4717   */\n      add\n        /* \"#utility.yul\":4687:4718   */\n      calldataload\n        /* \"#utility.yul\":4745:4763   */\n      0xffffffffffffffff\n        /* \"#utility.yul\":4737:4743   */\n      dup2\n        /* \"#utility.yul\":4734:4764   */\n      gt\n        /* \"#utility.yul\":4731:4848   */\n      iszero\n      tag_227\n      jumpi\n        /* \"#utility.yul\":4767:4846   */\n      tag_228\n      tag_229\n      jump\t// in\n    tag_228:\n        /* \"#utility.yul\":4731:4848   */\n    tag_227:\n        /* \"#utility.yul\":4872:4950   */\n      tag_230\n        /* \"#utility.yul\":4942:4949   */\n      dup14\n        /* \"#utility.yul\":4933:4939   */\n      dup3\n        /* \"#utility.yul\":4922:4931   */\n      dup15\n        /* \"#utility.yul\":4918:4940   */\n      add\n        /* \"#utility.yul\":4872:4950   */\n      tag_183\n      jump\t// in\n    tag_230:\n        /* \"#utility.yul\":4862:4950   */\n      swap11\n      pop\n        /* \"#utility.yul\":4658:4960   */\n      pop\n        /* \"#utility.yul\":5027:5029   */\n      0x20\n        /* \"#utility.yul\":5016:5025   */\n      dup12\n        /* \"#utility.yul\":5012:5030   */\n      add\n        /* \"#utility.yul\":4999:5031   */\n      calldataload\n        /* \"#utility.yul\":5058:5076   */\n      0xffffffffffffffff\n        /* \"#utility.yul\":5050:5056   */\n      dup2\n        /* \"#utility.yul\":5047:5077   */\n      gt\n        /* \"#utility.yul\":5044:5161   */\n      iszero\n      tag_231\n      jumpi\n        /* \"#utility.yul\":5080:5159   */\n      tag_232\n      tag_229\n      jump\t// in\n    tag_232:\n        /* \"#utility.yul\":5044:5161   */\n    tag_231:\n        /* \"#utility.yul\":5185:5263   */\n      tag_233\n        /* \"#utility.yul\":5255:5262   */\n      dup14\n        /* \"#utility.yul\":5246:5252   */\n      dup3\n        /* \"#utility.yul\":5235:5244   */\n      dup15\n        /* \"#utility.yul\":5231:5253   */\n      add\n        /* \"#utility.yul\":5185:5263   */\n      tag_189\n      jump\t// in\n    tag_233:\n        /* \"#utility.yul\":5175:5263   */\n      swap10\n      pop\n        /* \"#utility.yul\":4970:5273   */\n      pop\n        /* \"#utility.yul\":5340:5342   */\n      0x40\n        /* \"#utility.yul\":5329:5338   */\n      dup12\n        /* \"#utility.yul\":5325:5343   */\n      add\n        /* \"#utility.yul\":5312:5344   */\n      calldataload\n        /* \"#utility.yul\":5371:5389   */\n      0xffffffffffffffff\n        /* \"#utility.yul\":5363:5369   */\n      dup2\n        /* \"#utility.yul\":5360:5390   */\n      gt\n        /* \"#utility.yul\":5357:5474   */\n      iszero\n      tag_234\n      jumpi\n        /* \"#utility.yul\":5393:5472   */\n      tag_235\n      tag_229\n      jump\t// in\n    tag_235:\n        /* \"#utility.yul\":5357:5474   */\n    tag_234:\n        /* \"#utility.yul\":5506:5570   */\n      tag_236\n        /* \"#utility.yul\":5562:5569   */\n      dup14\n        /* \"#utility.yul\":5553:5559   */\n      dup3\n        /* \"#utility.yul\":5542:5551   */\n      dup15\n        /* \"#utility.yul\":5538:5560   */\n      add\n        /* \"#utility.yul\":5506:5570   */\n      tag_194\n      jump\t// in\n    tag_236:\n        /* \"#utility.yul\":5488:5570   */\n      swap9\n      pop\n      swap9\n      pop\n        /* \"#utility.yul\":5283:5580   */\n      pop\n        /* \"#utility.yul\":5647:5649   */\n      0x60\n        /* \"#utility.yul\":5636:5645   */\n      dup12\n        /* \"#utility.yul\":5632:5650   */\n      add\n        /* \"#utility.yul\":5619:5651   */\n      calldataload\n        /* \"#utility.yul\":5678:5696   */\n      0xffffffffffffffff\n        /* \"#utility.yul\":5670:5676   */\n      dup2\n        /* \"#utility.yul\":5667:5697   */\n      gt\n        /* \"#utility.yul\":5664:5781   */\n      iszero\n      tag_237\n      jumpi\n        /* \"#utility.yul\":5700:5779   */\n      tag_238\n      tag_229\n      jump\t// in\n    tag_238:\n        /* \"#utility.yul\":5664:5781   */\n    tag_237:\n        /* \"#utility.yul\":5813:5877   */\n      tag_239\n        /* \"#utility.yul\":5869:5876   */\n      dup14\n        /* \"#utility.yul\":5860:5866   */\n      dup3\n        /* \"#utility.yul\":5849:5858   */\n      dup15\n        /* \"#utility.yul\":5845:5867   */\n      add\n        /* \"#utility.yul\":5813:5877   */\n      tag_194\n      jump\t// in\n    tag_239:\n        /* \"#utility.yul\":5795:5877   */\n      swap7\n      pop\n      swap7\n      pop\n        /* \"#utility.yul\":5590:5887   */\n      pop\n        /* \"#utility.yul\":5926:5929   */\n      0x80\n        /* \"#utility.yul\":5953:6006   */\n      tag_240\n        /* \"#utility.yul\":5998:6005   */\n      dup14\n        /* \"#utility.yul\":5989:5995   */\n      dup3\n        /* \"#utility.yul\":5978:5987   */\n      dup15\n        /* \"#utility.yul\":5974:5996   */\n      add\n        /* \"#utility.yul\":5953:6006   */\n      tag_203\n      jump\t// in\n    tag_240:\n        /* \"#utility.yul\":5943:6006   */\n      swap5\n      pop\n        /* \"#utility.yul\":5897:6016   */\n      pop\n        /* \"#utility.yul\":6055:6058   */\n      0xa0\n        /* \"#utility.yul\":6082:6135   */\n      tag_241\n        /* \"#utility.yul\":6127:6134   */\n      dup14\n        /* \"#utility.yul\":6118:6124   */\n      dup3\n        /* \"#utility.yul\":6107:6116   */\n      dup15\n        /* \"#utility.yul\":6103:6125   */\n      add\n        /* \"#utility.yul\":6082:6135   */\n      tag_203\n      jump\t// in\n    tag_241:\n        /* \"#utility.yul\":6072:6135   */\n      swap4\n      pop\n        /* \"#utility.yul\":6026:6145   */\n      pop\n        /* \"#utility.yul\":6184:6187   */\n      0xc0\n        /* \"#utility.yul\":6211:6263   */\n      tag_242\n        /* \"#utility.yul\":6255:6262   */\n      dup14\n        /* \"#utility.yul\":6246:6252   */\n      dup3\n        /* \"#utility.yul\":6235:6244   */\n      dup15\n        /* \"#utility.yul\":6231:6253   */\n      add\n        /* \"#utility.yul\":6211:6263   */\n      tag_210\n      jump\t// in\n    tag_242:\n        /* \"#utility.yul\":6201:6263   */\n      swap3\n      pop\n        /* \"#utility.yul\":6155:6273   */\n      pop\n        /* \"#utility.yul\":6312:6315   */\n      0xe0\n        /* \"#utility.yul\":6339:6391   */\n      tag_243\n        /* \"#utility.yul\":6383:6390   */\n      dup14\n        /* \"#utility.yul\":6374:6380   */\n      dup3\n        /* \"#utility.yul\":6363:6372   */\n      dup15\n        /* \"#utility.yul\":6359:6381   */\n      add\n        /* \"#utility.yul\":6339:6391   */\n      tag_210\n      jump\t// in\n    tag_243:\n        /* \"#utility.yul\":6329:6391   */\n      swap2\n      pop\n        /* \"#utility.yul\":6283:6401   */\n      pop\n        /* \"#utility.yul\":4247:6408   */\n      swap3\n      swap6\n      swap9\n      swap12\n      swap2\n      swap5\n      swap8\n      swap11\n      pop\n      swap3\n      swap6\n      swap9\n      pop\n      jump\t// out\n        /* \"#utility.yul\":6414:6743   */\n    tag_34:\n        /* \"#utility.yul\":6473:6479   */\n      0x00\n        /* \"#utility.yul\":6522:6524   */\n      0x20\n        /* \"#utility.yul\":6510:6519   */\n      dup3\n        /* \"#utility.yul\":6501:6508   */\n      dup5\n        /* \"#utility.yul\":6497:6520   */\n      sub\n        /* \"#utility.yul\":6493:6525   */\n      slt\n        /* \"#utility.yul\":6490:6609   */\n      iszero\n      tag_245\n      jumpi\n        /* \"#utility.yul\":6528:6607   */\n      tag_246\n      tag_217\n      jump\t// in\n    tag_246:\n        /* \"#utility.yul\":6490:6609   */\n    tag_245:\n        /* \"#utility.yul\":6648:6649   */\n      0x00\n        /* \"#utility.yul\":6673:6726   */\n      tag_247\n        /* \"#utility.yul\":6718:6725   */\n      dup5\n        /* \"#utility.yul\":6709:6715   */\n      dup3\n        /* \"#utility.yul\":6698:6707   */\n      dup6\n        /* \"#utility.yul\":6694:6716   */\n      add\n        /* \"#utility.yul\":6673:6726   */\n      tag_179\n      jump\t// in\n    tag_247:\n        /* \"#utility.yul\":6663:6726   */\n      swap2\n      pop\n        /* \"#utility.yul\":6619:6736   */\n      pop\n        /* \"#utility.yul\":6414:6743   */\n      swap3\n      swap2\n      pop\n      pop\n      jump\t// out\n        /* \"#utility.yul\":6749:7223   */\n    tag_43:\n        /* \"#utility.yul\":6817:6823   */\n      0x00\n        /* \"#utility.yul\":6825:6831   */\n      dup1\n        /* \"#utility.yul\":6874:6876   */\n      0x40\n        /* \"#utility.yul\":6862:6871   */\n      dup4\n        /* \"#utility.yul\":6853:6860   */\n      dup6\n        /* \"#utility.yul\":6849:6872   */\n      sub\n        /* \"#utility.yul\":6845:6877   */\n      slt\n        /* \"#utility.yul\":6842:6961   */\n      iszero\n      tag_249\n      jumpi\n        /* \"#utility.yul\":6880:6959   */\n      tag_250\n      tag_217\n      jump\t// in\n    tag_250:\n        /* \"#utility.yul\":6842:6961   */\n    tag_249:\n        /* \"#utility.yul\":7000:7001   */\n      0x00\n        /* \"#utility.yul\":7025:7078   */\n      tag_251\n        /* \"#utility.yul\":7070:7077   */\n      dup6\n        /* \"#utility.yul\":7061:7067   */\n      dup3\n        /* \"#utility.yul\":7050:7059   */\n      dup7\n        /* \"#utility.yul\":7046:7068   */\n      add\n        /* \"#utility.yul\":7025:7078   */\n      tag_179\n      jump\t// in\n    tag_251:\n        /* \"#utility.yul\":7015:7078   */\n      swap3\n      pop\n        /* \"#utility.yul\":6971:7088   */\n      pop\n        /* \"#utility.yul\":7127:7129   */\n      0x20\n        /* \"#utility.yul\":7153:7206   */\n      tag_252\n        /* \"#utility.yul\":7198:7205   */\n      dup6\n        /* \"#utility.yul\":7189:7195   */\n      dup3\n        /* \"#utility.yul\":7178:7187   */\n      dup7\n        /* \"#utility.yul\":7174:7196   */\n      add\n        /* \"#utility.yul\":7153:7206   */\n      tag_203\n      jump\t// in\n    tag_252:\n        /* \"#utility.yul\":7143:7206   */\n      swap2\n      pop\n        /* \"#utility.yul\":7098:7216   */\n      pop\n        /* \"#utility.yul\":6749:7223   */\n      swap3\n      pop\n      swap3\n      swap1\n      pop\n      jump\t// out\n        /* \"#utility.yul\":7229:7408   */\n    tag_253:\n        /* \"#utility.yul\":7298:7308   */\n      0x00\n        /* \"#utility.yul\":7319:7365   */\n      tag_255\n        /* \"#utility.yul\":7361:7364   */\n      dup4\n        /* \"#utility.yul\":7353:7359   */\n      dup4\n        /* \"#utility.yul\":7319:7365   */\n      tag_256\n      jump\t// in\n    tag_255:\n        /* \"#utility.yul\":7397:7401   */\n      0x20\n        /* \"#utility.yul\":7392:7395   */\n      dup4\n        /* \"#utility.yul\":7388:7402   */\n      add\n        /* \"#utility.yul\":7374:7402   */\n      swap1\n      pop\n        /* \"#utility.yul\":7229:7408   */\n      swap3\n      swap2\n      pop\n      pop\n      jump\t// out\n        /* \"#utility.yul\":7414:7710   */\n    tag_257:\n        /* \"#utility.yul\":7553:7563   */\n      0x00\n        /* \"#utility.yul\":7588:7704   */\n      tag_259\n        /* \"#utility.yul\":7700:7703   */\n      dup4\n        /* \"#utility.yul\":7692:7698   */\n      dup4\n        /* \"#utility.yul\":7588:7704   */\n      tag_260\n      jump\t// in\n    tag_259:\n        /* \"#utility.yul\":7574:7704   */\n      swap1\n      pop\n        /* \"#utility.yul\":7414:7710   */\n      swap3\n      swap2\n      pop\n      pop\n      jump\t// out\n        /* \"#utility.yul\":7716:7895   */\n    tag_261:\n        /* \"#utility.yul\":7785:7795   */\n      0x00\n        /* \"#utility.yul\":7806:7852   */\n      tag_263\n        /* \"#utility.yul\":7848:7851   */\n      dup4\n        /* \"#utility.yul\":7840:7846   */\n      dup4\n        /* \"#utility.yul\":7806:7852   */\n      tag_264\n      jump\t// in\n    tag_263:\n        /* \"#utility.yul\":7884:7888   */\n      0x20\n        /* \"#utility.yul\":7879:7882   */\n      dup4\n        /* \"#utility.yul\":7875:7889   */\n      add\n        /* \"#utility.yul\":7861:7889   */\n      swap1\n      pop\n        /* \"#utility.yul\":7716:7895   */\n      swap3\n      swap2\n      pop\n      pop\n      jump\t// out\n        /* \"#utility.yul\":7901:8009   */\n    tag_256:\n        /* \"#utility.yul\":7978:8002   */\n      tag_266\n        /* \"#utility.yul\":7996:8001   */\n      dup2\n        /* \"#utility.yul\":7978:8002   */\n      tag_267\n      jump\t// in\n    tag_266:\n        /* \"#utility.yul\":7973:7976   */\n      dup3\n        /* \"#utility.yul\":7966:8003   */\n      mstore\n        /* \"#utility.yul\":7901:8009   */\n      pop\n      pop\n      jump\t// out\n        /* \"#utility.yul\":8045:8757   */\n    tag_268:\n        /* \"#utility.yul\":8154:8157   */\n      0x00\n        /* \"#utility.yul\":8183:8237   */\n      tag_270\n        /* \"#utility.yul\":8231:8236   */\n      dup3\n        /* \"#utility.yul\":8183:8237   */\n      tag_271\n      jump\t// in\n    tag_270:\n        /* \"#utility.yul\":8253:8329   */\n      tag_272\n        /* \"#utility.yul\":8322:8328   */\n      dup2\n        /* \"#utility.yul\":8317:8320   */\n      dup6\n        /* \"#utility.yul\":8253:8329   */\n      tag_273\n      jump\t// in\n    tag_272:\n        /* \"#utility.yul\":8246:8329   */\n      swap4\n      pop\n        /* \"#utility.yul\":8353:8409   */\n      tag_274\n        /* \"#utility.yul\":8403:8408   */\n      dup4\n        /* \"#utility.yul\":8353:8409   */\n      tag_275\n      jump\t// in\n    tag_274:\n        /* \"#utility.yul\":8432:8439   */\n      dup1\n        /* \"#utility.yul\":8463:8464   */\n      0x00\n        /* \"#utility.yul\":8448:8732   */\n    tag_276:\n        /* \"#utility.yul\":8473:8479   */\n      dup4\n        /* \"#utility.yul\":8470:8471   */\n      dup2\n        /* \"#utility.yul\":8467:8480   */\n      lt\n        /* \"#utility.yul\":8448:8732   */\n      iszero\n      tag_278\n      jumpi\n        /* \"#utility.yul\":8549:8555   */\n      dup2\n        /* \"#utility.yul\":8543:8556   */\n      mload\n        /* \"#utility.yul\":8576:8639   */\n      tag_279\n        /* \"#utility.yul\":8635:8638   */\n      dup9\n        /* \"#utility.yul\":8620:8633   */\n      dup3\n        /* \"#utility.yul\":8576:8639   */\n      tag_253\n      jump\t// in\n    tag_279:\n        /* \"#utility.yul\":8569:8639   */\n      swap8\n      pop\n        /* \"#utility.yul\":8662:8722   */\n      tag_280\n        /* \"#utility.yul\":8715:8721   */\n      dup4\n        /* \"#utility.yul\":8662:8722   */\n      tag_281\n      jump\t// in\n    tag_280:\n        /* \"#utility.yul\":8652:8722   */\n      swap3\n      pop\n        /* \"#utility.yul\":8508:8732   */\n      pop\n        /* \"#utility.yul\":8495:8496   */\n      0x01\n        /* \"#utility.yul\":8492:8493   */\n      dup2\n        /* \"#utility.yul\":8488:8497   */\n      add\n        /* \"#utility.yul\":8483:8497   */\n      swap1\n      pop\n        /* \"#utility.yul\":8448:8732   */\n      jump(tag_276)\n    tag_278:\n        /* \"#utility.yul\":8452:8466   */\n      pop\n        /* \"#utility.yul\":8748:8751   */\n      dup6\n        /* \"#utility.yul\":8741:8751   */\n      swap4\n      pop\n        /* \"#utility.yul\":8159:8757   */\n      pop\n      pop\n      pop\n        /* \"#utility.yul\":8045:8757   */\n      swap3\n      swap2\n      pop\n      pop\n      jump\t// out\n        /* \"#utility.yul\":8793:9525   */\n    tag_282:\n        /* \"#utility.yul\":8912:8915   */\n      0x00\n        /* \"#utility.yul\":8941:8995   */\n      tag_284\n        /* \"#utility.yul\":8989:8994   */\n      dup3\n        /* \"#utility.yul\":8941:8995   */\n      tag_271\n      jump\t// in\n    tag_284:\n        /* \"#utility.yul\":9011:9097   */\n      tag_285\n        /* \"#utility.yul\":9090:9096   */\n      dup2\n        /* \"#utility.yul\":9085:9088   */\n      dup6\n        /* \"#utility.yul\":9011:9097   */\n      tag_286\n      jump\t// in\n    tag_285:\n        /* \"#utility.yul\":9004:9097   */\n      swap4\n      pop\n        /* \"#utility.yul\":9121:9177   */\n      tag_287\n        /* \"#utility.yul\":9171:9176   */\n      dup4\n        /* \"#utility.yul\":9121:9177   */\n      tag_275\n      jump\t// in\n    tag_287:\n        /* \"#utility.yul\":9200:9207   */\n      dup1\n        /* \"#utility.yul\":9231:9232   */\n      0x00\n        /* \"#utility.yul\":9216:9500   */\n    tag_288:\n        /* \"#utility.yul\":9241:9247   */\n      dup4\n        /* \"#utility.yul\":9238:9239   */\n      dup2\n        /* \"#utility.yul\":9235:9248   */\n      lt\n        /* \"#utility.yul\":9216:9500   */\n      iszero\n      tag_290\n      jumpi\n        /* \"#utility.yul\":9317:9323   */\n      dup2\n        /* \"#utility.yul\":9311:9324   */\n      mload\n        /* \"#utility.yul\":9344:9407   */\n      tag_291\n        /* \"#utility.yul\":9403:9406   */\n      dup9\n        /* \"#utility.yul\":9388:9401   */\n      dup3\n        /* \"#utility.yul\":9344:9407   */\n      tag_253\n      jump\t// in\n    tag_291:\n        /* \"#utility.yul\":9337:9407   */\n      swap8\n      pop\n        /* \"#utility.yul\":9430:9490   */\n      tag_292\n        /* \"#utility.yul\":9483:9489   */\n      dup4\n        /* \"#utility.yul\":9430:9490   */\n      tag_281\n      jump\t// in\n    tag_292:\n        /* \"#utility.yul\":9420:9490   */\n      swap3\n      pop\n        /* \"#utility.yul\":9276:9500   */\n      pop\n        /* \"#utility.yul\":9263:9264   */\n      0x01\n        /* \"#utility.yul\":9260:9261   */\n      dup2\n        /* \"#utility.yul\":9256:9265   */\n      add\n        /* \"#utility.yul\":9251:9265   */\n      swap1\n      pop\n        /* \"#utility.yul\":9216:9500   */\n      jump(tag_288)\n    tag_290:\n        /* \"#utility.yul\":9220:9234   */\n      pop\n        /* \"#utility.yul\":9516:9519   */\n      dup6\n        /* \"#utility.yul\":9509:9519   */\n      swap4\n      pop\n        /* \"#utility.yul\":8917:9525   */\n      pop\n      pop\n      pop\n        /* \"#utility.yul\":8793:9525   */\n      swap3\n      swap2\n      pop\n      pop\n      jump\t// out\n        /* \"#utility.yul\":9641:10832   */\n    tag_293:\n        /* \"#utility.yul\":9830:9833   */\n      0x00\n        /* \"#utility.yul\":9859:9948   */\n      tag_295\n        /* \"#utility.yul\":9942:9947   */\n      dup3\n        /* \"#utility.yul\":9859:9948   */\n      tag_296\n      jump\t// in\n    tag_295:\n        /* \"#utility.yul\":9964:10085   */\n      tag_297\n        /* \"#utility.yul\":10078:10084   */\n      dup2\n        /* \"#utility.yul\":10073:10076   */\n      dup6\n        /* \"#utility.yul\":9964:10085   */\n      tag_298\n      jump\t// in\n    tag_297:\n        /* \"#utility.yul\":9957:10085   */\n      swap4\n      pop\n        /* \"#utility.yul\":10111:10114   */\n      dup4\n        /* \"#utility.yul\":10156:10160   */\n      0x20\n        /* \"#utility.yul\":10148:10154   */\n      dup3\n        /* \"#utility.yul\":10144:10161   */\n      mul\n        /* \"#utility.yul\":10139:10142   */\n      dup6\n        /* \"#utility.yul\":10135:10162   */\n      add\n        /* \"#utility.yul\":10186:10277   */\n      tag_299\n        /* \"#utility.yul\":10271:10276   */\n      dup6\n        /* \"#utility.yul\":10186:10277   */\n      tag_300\n      jump\t// in\n    tag_299:\n        /* \"#utility.yul\":10300:10307   */\n      dup1\n        /* \"#utility.yul\":10331:10332   */\n      0x00\n        /* \"#utility.yul\":10316:10787   */\n    tag_301:\n        /* \"#utility.yul\":10341:10347   */\n      dup6\n        /* \"#utility.yul\":10338:10339   */\n      dup2\n        /* \"#utility.yul\":10335:10348   */\n      lt\n        /* \"#utility.yul\":10316:10787   */\n      iszero\n      tag_303\n      jumpi\n        /* \"#utility.yul\":10412:10421   */\n      dup5\n        /* \"#utility.yul\":10406:10410   */\n      dup5\n        /* \"#utility.yul\":10402:10422   */\n      sub\n        /* \"#utility.yul\":10397:10400   */\n      dup10\n        /* \"#utility.yul\":10390:10423   */\n      mstore\n        /* \"#utility.yul\":10463:10469   */\n      dup2\n        /* \"#utility.yul\":10457:10470   */\n      mload\n        /* \"#utility.yul\":10491:10625   */\n      tag_304\n        /* \"#utility.yul\":10620:10624   */\n      dup6\n        /* \"#utility.yul\":10605:10618   */\n      dup3\n        /* \"#utility.yul\":10491:10625   */\n      tag_257\n      jump\t// in\n    tag_304:\n        /* \"#utility.yul\":10483:10625   */\n      swap5\n      pop\n        /* \"#utility.yul\":10648:10743   */\n      tag_305\n        /* \"#utility.yul\":10736:10742   */\n      dup4\n        /* \"#utility.yul\":10648:10743   */\n      tag_306\n      jump\t// in\n    tag_305:\n        /* \"#utility.yul\":10638:10743   */\n      swap3\n      pop\n        /* \"#utility.yul\":10772:10776   */\n      0x20\n        /* \"#utility.yul\":10767:10770   */\n      dup11\n        /* \"#utility.yul\":10763:10777   */\n      add\n        /* \"#utility.yul\":10756:10777   */\n      swap10\n      pop\n        /* \"#utility.yul\":10376:10787   */\n      pop\n        /* \"#utility.yul\":10363:10364   */\n      0x01\n        /* \"#utility.yul\":10360:10361   */\n      dup2\n        /* \"#utility.yul\":10356:10365   */\n      add\n        /* \"#utility.yul\":10351:10365   */\n      swap1\n      pop\n        /* \"#utility.yul\":10316:10787   */\n      jump(tag_301)\n    tag_303:\n        /* \"#utility.yul\":10320:10334   */\n      pop\n        /* \"#utility.yul\":10803:10807   */\n      dup3\n        /* \"#utility.yul\":10796:10807   */\n      swap8\n      pop\n        /* \"#utility.yul\":10823:10826   */\n      dup8\n        /* \"#utility.yul\":10816:10826   */\n      swap6\n      pop\n        /* \"#utility.yul\":9835:10832   */\n      pop\n      pop\n      pop\n      pop\n      pop\n        /* \"#utility.yul\":9641:10832   */\n      swap3\n      swap2\n      pop\n      pop\n      jump\t// out\n        /* \"#utility.yul\":10868:11580   */\n    tag_307:\n        /* \"#utility.yul\":10977:10980   */\n      0x00\n        /* \"#utility.yul\":11006:11060   */\n      tag_309\n        /* \"#utility.yul\":11054:11059   */\n      dup3\n        /* \"#utility.yul\":11006:11060   */\n      tag_310\n      jump\t// in\n    tag_309:\n        /* \"#utility.yul\":11076:11152   */\n      tag_311\n        /* \"#utility.yul\":11145:11151   */\n      dup2\n        /* \"#utility.yul\":11140:11143   */\n      dup6\n        /* \"#utility.yul\":11076:11152   */\n      tag_312\n      jump\t// in\n    tag_311:\n        /* \"#utility.yul\":11069:11152   */\n      swap4\n      pop\n        /* \"#utility.yul\":11176:11232   */\n      tag_313\n        /* \"#utility.yul\":11226:11231   */\n      dup4\n        /* \"#utility.yul\":11176:11232   */\n      tag_314\n      jump\t// in\n    tag_313:\n        /* \"#utility.yul\":11255:11262   */\n      dup1\n        /* \"#utility.yul\":11286:11287   */\n      0x00\n        /* \"#utility.yul\":11271:11555   */\n    tag_315:\n        /* \"#utility.yul\":11296:11302   */\n      dup4\n        /* \"#utility.yul\":11293:11294   */\n      dup2\n        /* \"#utility.yul\":11290:11303   */\n      lt\n        /* \"#utility.yul\":11271:11555   */\n      iszero\n      tag_317\n      jumpi\n        /* \"#utility.yul\":11372:11378   */\n      dup2\n        /* \"#utility.yul\":11366:11379   */\n      mload\n        /* \"#utility.yul\":11399:11462   */\n      tag_318\n        /* \"#utility.yul\":11458:11461   */\n      dup9\n        /* \"#utility.yul\":11443:11456   */\n      dup3\n        /* \"#utility.yul\":11399:11462   */\n      tag_261\n      jump\t// in\n    tag_318:\n        /* \"#utility.yul\":11392:11462   */\n      swap8\n      pop\n        /* \"#utility.yul\":11485:11545   */\n      tag_319\n        /* \"#utility.yul\":11538:11544   */\n      dup4\n        /* \"#utility.yul\":11485:11545   */\n      tag_320\n      jump\t// in\n    tag_319:\n        /* \"#utility.yul\":11475:11545   */\n      swap3\n      pop\n        /* \"#utility.yul\":11331:11555   */\n      pop\n        /* \"#utility.yul\":11318:11319   */\n      0x01\n        /* \"#utility.yul\":11315:11316   */\n      dup2\n        /* \"#utility.yul\":11311:11320   */\n      add\n        /* \"#utility.yul\":11306:11320   */\n      swap1\n      pop\n        /* \"#utility.yul\":11271:11555   */\n      jump(tag_315)\n    tag_317:\n        /* \"#utility.yul\":11275:11289   */\n      pop\n        /* \"#utility.yul\":11571:11574   */\n      dup6\n        /* \"#utility.yul\":11564:11574   */\n      swap4\n      pop\n        /* \"#utility.yul\":10982:11580   */\n      pop\n      pop\n      pop\n        /* \"#utility.yul\":10868:11580   */\n      swap3\n      swap2\n      pop\n      pop\n      jump\t// out\n        /* \"#utility.yul\":11616:12348   */\n    tag_321:\n        /* \"#utility.yul\":11735:11738   */\n      0x00\n        /* \"#utility.yul\":11764:11818   */\n      tag_323\n        /* \"#utility.yul\":11812:11817   */\n      dup3\n        /* \"#utility.yul\":11764:11818   */\n      tag_310\n      jump\t// in\n    tag_323:\n        /* \"#utility.yul\":11834:11920   */\n      tag_324\n        /* \"#utility.yul\":11913:11919   */\n      dup2\n        /* \"#utility.yul\":11908:11911   */\n      dup6\n        /* \"#utility.yul\":11834:11920   */\n      tag_325\n      jump\t// in\n    tag_324:\n        /* \"#utility.yul\":11827:11920   */\n      swap4\n      pop\n        /* \"#utility.yul\":11944:12000   */\n      tag_326\n        /* \"#utility.yul\":11994:11999   */\n      dup4\n        /* \"#utility.yul\":11944:12000   */\n      tag_314\n      jump\t// in\n    tag_326:\n        /* \"#utility.yul\":12023:12030   */\n      dup1\n        /* \"#utility.yul\":12054:12055   */\n      0x00\n        /* \"#utility.yul\":12039:12323   */\n    tag_327:\n        /* \"#utility.yul\":12064:12070   */\n      dup4\n        /* \"#utility.yul\":12061:12062   */\n      dup2\n        /* \"#utility.yul\":12058:12071   */\n      lt\n        /* \"#utility.yul\":12039:12323   */\n      iszero\n      tag_329\n      jumpi\n        /* \"#utility.yul\":12140:12146   */\n      dup2\n        /* \"#utility.yul\":12134:12147   */\n      mload\n        /* \"#utility.yul\":12167:12230   */\n      tag_330\n        /* \"#utility.yul\":12226:12229   */\n      dup9\n        /* \"#utility.yul\":12211:12224   */\n      dup3\n        /* \"#utility.yul\":12167:12230   */\n      tag_261\n      jump\t// in\n    tag_330:\n        /* \"#utility.yul\":12160:12230   */\n      swap8\n      pop\n        /* \"#utility.yul\":12253:12313   */\n      tag_331\n        /* \"#utility.yul\":12306:12312   */\n      dup4\n        /* \"#utility.yul\":12253:12313   */\n      tag_320\n      jump\t// in\n    tag_331:\n        /* \"#utility.yul\":12243:12313   */\n      swap3\n      pop\n        /* \"#utility.yul\":12099:12323   */\n      pop\n        /* \"#utility.yul\":12086:12087   */\n      0x01\n        /* \"#utility.yul\":12083:12084   */\n      dup2\n        /* \"#utility.yul\":12079:12088   */\n      add\n        /* \"#utility.yul\":12074:12088   */\n      swap1\n      pop\n        /* \"#utility.yul\":12039:12323   */\n      jump(tag_327)\n    tag_329:\n        /* \"#utility.yul\":12043:12057   */\n      pop\n        /* \"#utility.yul\":12339:12342   */\n      dup6\n        /* \"#utility.yul\":12332:12342   */\n      swap4\n      pop\n        /* \"#utility.yul\":11740:12348   */\n      pop\n      pop\n      pop\n        /* \"#utility.yul\":11616:12348   */\n      swap3\n      swap2\n      pop\n      pop\n      jump\t// out\n        /* \"#utility.yul\":12354:12453   */\n    tag_332:\n        /* \"#utility.yul\":12425:12446   */\n      tag_334\n        /* \"#utility.yul\":12440:12445   */\n      dup2\n        /* \"#utility.yul\":12425:12446   */\n      tag_335\n      jump\t// in\n    tag_334:\n        /* \"#utility.yul\":12420:12423   */\n      dup3\n        /* \"#utility.yul\":12413:12447   */\n      mstore\n        /* \"#utility.yul\":12354:12453   */\n      pop\n      pop\n      jump\t// out\n        /* \"#utility.yul\":12459:12568   */\n    tag_336:\n        /* \"#utility.yul\":12540:12561   */\n      tag_338\n        /* \"#utility.yul\":12555:12560   */\n      dup2\n        /* \"#utility.yul\":12540:12561   */\n      tag_335\n      jump\t// in\n    tag_338:\n        /* \"#utility.yul\":12535:12538   */\n      dup3\n        /* \"#utility.yul\":12528:12562   */\n      mstore\n        /* \"#utility.yul\":12459:12568   */\n      pop\n      pop\n      jump\t// out\n        /* \"#utility.yul\":12596:12897   */\n    tag_339:\n        /* \"#utility.yul\":12692:12695   */\n      0x00\n        /* \"#utility.yul\":12713:12783   */\n      tag_341\n        /* \"#utility.yul\":12776:12782   */\n      dup4\n        /* \"#utility.yul\":12771:12774   */\n      dup6\n        /* \"#utility.yul\":12713:12783   */\n      tag_342\n      jump\t// in\n    tag_341:\n        /* \"#utility.yul\":12706:12783   */\n      swap4\n      pop\n        /* \"#utility.yul\":12793:12836   */\n      tag_343\n        /* \"#utility.yul\":12829:12835   */\n      dup4\n        /* \"#utility.yul\":12824:12827   */\n      dup6\n        /* \"#utility.yul\":12817:12822   */\n      dup5\n        /* \"#utility.yul\":12793:12836   */\n      tag_344\n      jump\t// in\n    tag_343:\n        /* \"#utility.yul\":12861:12890   */\n      tag_345\n        /* \"#utility.yul\":12883:12889   */\n      dup4\n        /* \"#utility.yul\":12861:12890   */\n      tag_346\n      jump\t// in\n    tag_345:\n        /* \"#utility.yul\":12856:12859   */\n      dup5\n        /* \"#utility.yul\":12852:12891   */\n      add\n        /* \"#utility.yul\":12845:12891   */\n      swap1\n      pop\n        /* \"#utility.yul\":12596:12897   */\n      swap4\n      swap3\n      pop\n      pop\n      pop\n      jump\t// out\n        /* \"#utility.yul\":12903:13243   */\n    tag_347:\n        /* \"#utility.yul\":12979:12982   */\n      0x00\n        /* \"#utility.yul\":13007:13045   */\n      tag_349\n        /* \"#utility.yul\":13039:13044   */\n      dup3\n        /* \"#utility.yul\":13007:13045   */\n      tag_350\n      jump\t// in\n    tag_349:\n        /* \"#utility.yul\":13061:13121   */\n      tag_351\n        /* \"#utility.yul\":13114:13120   */\n      dup2\n        /* \"#utility.yul\":13109:13112   */\n      dup6\n        /* \"#utility.yul\":13061:13121   */\n      tag_352\n      jump\t// in\n    tag_351:\n        /* \"#utility.yul\":13054:13121   */\n      swap4\n      pop\n        /* \"#utility.yul\":13130:13182   */\n      tag_353\n        /* \"#utility.yul\":13175:13181   */\n      dup2\n        /* \"#utility.yul\":13170:13173   */\n      dup6\n        /* \"#utility.yul\":13163:13167   */\n      0x20\n        /* \"#utility.yul\":13156:13161   */\n      dup7\n        /* \"#utility.yul\":13152:13168   */\n      add\n        /* \"#utility.yul\":13130:13182   */\n      tag_354\n      jump\t// in\n    tag_353:\n        /* \"#utility.yul\":13207:13236   */\n      tag_355\n        /* \"#utility.yul\":13229:13235   */\n      dup2\n        /* \"#utility.yul\":13207:13236   */\n      tag_346\n      jump\t// in\n    tag_355:\n        /* \"#utility.yul\":13202:13205   */\n      dup5\n        /* \"#utility.yul\":13198:13237   */\n      add\n        /* \"#utility.yul\":13191:13237   */\n      swap2\n      pop\n        /* \"#utility.yul\":12983:13243   */\n      pop\n        /* \"#utility.yul\":12903:13243   */\n      swap3\n      swap2\n      pop\n      pop\n      jump\t// out\n        /* \"#utility.yul\":13249:13609   */\n    tag_356:\n        /* \"#utility.yul\":13335:13338   */\n      0x00\n        /* \"#utility.yul\":13363:13401   */\n      tag_358\n        /* \"#utility.yul\":13395:13400   */\n      dup3\n        /* \"#utility.yul\":13363:13401   */\n      tag_350\n      jump\t// in\n    tag_358:\n        /* \"#utility.yul\":13417:13487   */\n      tag_359\n        /* \"#utility.yul\":13480:13486   */\n      dup2\n        /* \"#utility.yul\":13475:13478   */\n      dup6\n        /* \"#utility.yul\":13417:13487   */\n      tag_342\n      jump\t// in\n    tag_359:\n        /* \"#utility.yul\":13410:13487   */\n      swap4\n      pop\n        /* \"#utility.yul\":13496:13548   */\n      tag_360\n        /* \"#utility.yul\":13541:13547   */\n      dup2\n        /* \"#utility.yul\":13536:13539   */\n      dup6\n        /* \"#utility.yul\":13529:13533   */\n      0x20\n        /* \"#utility.yul\":13522:13527   */\n      dup7\n        /* \"#utility.yul\":13518:13534   */\n      add\n        /* \"#utility.yul\":13496:13548   */\n      tag_354\n      jump\t// in\n    tag_360:\n        /* \"#utility.yul\":13573:13602   */\n      tag_361\n        /* \"#utility.yul\":13595:13601   */\n      dup2\n        /* \"#utility.yul\":13573:13602   */\n      tag_346\n      jump\t// in\n    tag_361:\n        /* \"#utility.yul\":13568:13571   */\n      dup5\n        /* \"#utility.yul\":13564:13603   */\n      add\n        /* \"#utility.yul\":13557:13603   */\n      swap2\n      pop\n        /* \"#utility.yul\":13339:13609   */\n      pop\n        /* \"#utility.yul\":13249:13609   */\n      swap3\n      swap2\n      pop\n      pop\n      jump\t// out\n        /* \"#utility.yul\":13721:15868   */\n    tag_260:\n        /* \"#utility.yul\":13850:13853   */\n      0x00\n        /* \"#utility.yul\":13886:13892   */\n      0x0120\n        /* \"#utility.yul\":13881:13884   */\n      dup4\n        /* \"#utility.yul\":13877:13893   */\n      add\n        /* \"#utility.yul\":13986:13990   */\n      0x00\n        /* \"#utility.yul\":13979:13984   */\n      dup4\n        /* \"#utility.yul\":13975:13991   */\n      add\n        /* \"#utility.yul\":13969:13992   */\n      mload\n        /* \"#utility.yul\":14039:14042   */\n      dup5\n        /* \"#utility.yul\":14033:14037   */\n      dup3\n        /* \"#utility.yul\":14029:14043   */\n      sub\n        /* \"#utility.yul\":14022:14026   */\n      0x00\n        /* \"#utility.yul\":14017:14020   */\n      dup7\n        /* \"#utility.yul\":14013:14027   */\n      add\n        /* \"#utility.yul\":14006:14044   */\n      mstore\n        /* \"#utility.yul\":14065:14168   */\n      tag_363\n        /* \"#utility.yul\":14163:14167   */\n      dup3\n        /* \"#utility.yul\":14149:14161   */\n      dup3\n        /* \"#utility.yul\":14065:14168   */\n      tag_268\n      jump\t// in\n    tag_363:\n        /* \"#utility.yul\":14057:14168   */\n      swap2\n      pop\n        /* \"#utility.yul\":13903:14179   */\n      pop\n        /* \"#utility.yul\":14261:14265   */\n      0x20\n        /* \"#utility.yul\":14254:14259   */\n      dup4\n        /* \"#utility.yul\":14250:14266   */\n      add\n        /* \"#utility.yul\":14244:14267   */\n      mload\n        /* \"#utility.yul\":14314:14317   */\n      dup5\n        /* \"#utility.yul\":14308:14312   */\n      dup3\n        /* \"#utility.yul\":14304:14318   */\n      sub\n        /* \"#utility.yul\":14297:14301   */\n      0x20\n        /* \"#utility.yul\":14292:14295   */\n      dup7\n        /* \"#utility.yul\":14288:14302   */\n      add\n        /* \"#utility.yul\":14281:14319   */\n      mstore\n        /* \"#utility.yul\":14340:14443   */\n      tag_364\n        /* \"#utility.yul\":14438:14442   */\n      dup3\n        /* \"#utility.yul\":14424:14436   */\n      dup3\n        /* \"#utility.yul\":14340:14443   */\n      tag_307\n      jump\t// in\n    tag_364:\n        /* \"#utility.yul\":14332:14443   */\n      swap2\n      pop\n        /* \"#utility.yul\":14189:14454   */\n      pop\n        /* \"#utility.yul\":14539:14543   */\n      0x40\n        /* \"#utility.yul\":14532:14537   */\n      dup4\n        /* \"#utility.yul\":14528:14544   */\n      add\n        /* \"#utility.yul\":14522:14545   */\n      mload\n        /* \"#utility.yul\":14592:14595   */\n      dup5\n        /* \"#utility.yul\":14586:14590   */\n      dup3\n        /* \"#utility.yul\":14582:14596   */\n      sub\n        /* \"#utility.yul\":14575:14579   */\n      0x40\n        /* \"#utility.yul\":14570:14573   */\n      dup7\n        /* \"#utility.yul\":14566:14580   */\n      add\n        /* \"#utility.yul\":14559:14597   */\n      mstore\n        /* \"#utility.yul\":14618:14689   */\n      tag_365\n        /* \"#utility.yul\":14684:14688   */\n      dup3\n        /* \"#utility.yul\":14670:14682   */\n      dup3\n        /* \"#utility.yul\":14618:14689   */\n      tag_347\n      jump\t// in\n    tag_365:\n        /* \"#utility.yul\":14610:14689   */\n      swap2\n      pop\n        /* \"#utility.yul\":14464:14700   */\n      pop\n        /* \"#utility.yul\":14792:14796   */\n      0x60\n        /* \"#utility.yul\":14785:14790   */\n      dup4\n        /* \"#utility.yul\":14781:14797   */\n      add\n        /* \"#utility.yul\":14775:14798   */\n      mload\n        /* \"#utility.yul\":14845:14848   */\n      dup5\n        /* \"#utility.yul\":14839:14843   */\n      dup3\n        /* \"#utility.yul\":14835:14849   */\n      sub\n        /* \"#utility.yul\":14828:14832   */\n      0x60\n        /* \"#utility.yul\":14823:14826   */\n      dup7\n        /* \"#utility.yul\":14819:14833   */\n      add\n        /* \"#utility.yul\":14812:14850   */\n      mstore\n        /* \"#utility.yul\":14871:14942   */\n      tag_366\n        /* \"#utility.yul\":14937:14941   */\n      dup3\n        /* \"#utility.yul\":14923:14935   */\n      dup3\n        /* \"#utility.yul\":14871:14942   */\n      tag_347\n      jump\t// in\n    tag_366:\n        /* \"#utility.yul\":14863:14942   */\n      swap2\n      pop\n        /* \"#utility.yul\":14710:14953   */\n      pop\n        /* \"#utility.yul\":15038:15042   */\n      0x80\n        /* \"#utility.yul\":15031:15036   */\n      dup4\n        /* \"#utility.yul\":15027:15043   */\n      add\n        /* \"#utility.yul\":15021:15044   */\n      mload\n        /* \"#utility.yul\":15057:15120   */\n      tag_367\n        /* \"#utility.yul\":15114:15118   */\n      0x80\n        /* \"#utility.yul\":15109:15112   */\n      dup7\n        /* \"#utility.yul\":15105:15119   */\n      add\n        /* \"#utility.yul\":15091:15103   */\n      dup3\n        /* \"#utility.yul\":15057:15120   */\n      tag_368\n      jump\t// in\n    tag_367:\n        /* \"#utility.yul\":14963:15130   */\n      pop\n        /* \"#utility.yul\":15216:15220   */\n      0xa0\n        /* \"#utility.yul\":15209:15214   */\n      dup4\n        /* \"#utility.yul\":15205:15221   */\n      add\n        /* \"#utility.yul\":15199:15222   */\n      mload\n        /* \"#utility.yul\":15235:15298   */\n      tag_369\n        /* \"#utility.yul\":15292:15296   */\n      0xa0\n        /* \"#utility.yul\":15287:15290   */\n      dup7\n        /* \"#utility.yul\":15283:15297   */\n      add\n        /* \"#utility.yul\":15269:15281   */\n      dup3\n        /* \"#utility.yul\":15235:15298   */\n      tag_368\n      jump\t// in\n    tag_369:\n        /* \"#utility.yul\":15140:15308   */\n      pop\n        /* \"#utility.yul\":15393:15397   */\n      0xc0\n        /* \"#utility.yul\":15386:15391   */\n      dup4\n        /* \"#utility.yul\":15382:15398   */\n      add\n        /* \"#utility.yul\":15376:15399   */\n      mload\n        /* \"#utility.yul\":15412:15473   */\n      tag_370\n        /* \"#utility.yul\":15467:15471   */\n      0xc0\n        /* \"#utility.yul\":15462:15465   */\n      dup7\n        /* \"#utility.yul\":15458:15472   */\n      add\n        /* \"#utility.yul\":15444:15456   */\n      dup3\n        /* \"#utility.yul\":15412:15473   */\n      tag_371\n      jump\t// in\n    tag_370:\n        /* \"#utility.yul\":15318:15483   */\n      pop\n        /* \"#utility.yul\":15574:15578   */\n      0xe0\n        /* \"#utility.yul\":15567:15572   */\n      dup4\n        /* \"#utility.yul\":15563:15579   */\n      add\n        /* \"#utility.yul\":15557:15580   */\n      mload\n        /* \"#utility.yul\":15593:15654   */\n      tag_372\n        /* \"#utility.yul\":15648:15652   */\n      0xe0\n        /* \"#utility.yul\":15643:15646   */\n      dup7\n        /* \"#utility.yul\":15639:15653   */\n      add\n        /* \"#utility.yul\":15625:15637   */\n      dup3\n        /* \"#utility.yul\":15593:15654   */\n      tag_371\n      jump\t// in\n    tag_372:\n        /* \"#utility.yul\":15493:15664   */\n      pop\n        /* \"#utility.yul\":15751:15757   */\n      0x0100\n        /* \"#utility.yul\":15744:15749   */\n      dup4\n        /* \"#utility.yul\":15740:15758   */\n      add\n        /* \"#utility.yul\":15734:15759   */\n      mload\n        /* \"#utility.yul\":15772:15831   */\n      tag_373\n        /* \"#utility.yul\":15823:15829   */\n      0x0100\n        /* \"#utility.yul\":15818:15821   */\n      dup7\n        /* \"#utility.yul\":15814:15830   */\n      add\n        /* \"#utility.yul\":15800:15812   */\n      dup3\n        /* \"#utility.yul\":15772:15831   */\n      tag_332\n      jump\t// in\n    tag_373:\n        /* \"#utility.yul\":15674:15841   */\n      pop\n        /* \"#utility.yul\":15858:15862   */\n      dup1\n        /* \"#utility.yul\":15851:15862   */\n      swap2\n      pop\n        /* \"#utility.yul\":13855:15868   */\n      pop\n        /* \"#utility.yul\":13721:15868   */\n      swap3\n      swap2\n      pop\n      pop\n      jump\t// out\n        /* \"#utility.yul\":15980:18137   */\n    tag_374:\n        /* \"#utility.yul\":16119:16122   */\n      0x00\n        /* \"#utility.yul\":16155:16161   */\n      0x0120\n        /* \"#utility.yul\":16150:16153   */\n      dup4\n        /* \"#utility.yul\":16146:16162   */\n      add\n        /* \"#utility.yul\":16255:16259   */\n      0x00\n        /* \"#utility.yul\":16248:16253   */\n      dup4\n        /* \"#utility.yul\":16244:16260   */\n      add\n        /* \"#utility.yul\":16238:16261   */\n      mload\n        /* \"#utility.yul\":16308:16311   */\n      dup5\n        /* \"#utility.yul\":16302:16306   */\n      dup3\n        /* \"#utility.yul\":16298:16312   */\n      sub\n        /* \"#utility.yul\":16291:16295   */\n      0x00\n        /* \"#utility.yul\":16286:16289   */\n      dup7\n        /* \"#utility.yul\":16282:16296   */\n      add\n        /* \"#utility.yul\":16275:16313   */\n      mstore\n        /* \"#utility.yul\":16334:16437   */\n      tag_376\n        /* \"#utility.yul\":16432:16436   */\n      dup3\n        /* \"#utility.yul\":16418:16430   */\n      dup3\n        /* \"#utility.yul\":16334:16437   */\n      tag_268\n      jump\t// in\n    tag_376:\n        /* \"#utility.yul\":16326:16437   */\n      swap2\n      pop\n        /* \"#utility.yul\":16172:16448   */\n      pop\n        /* \"#utility.yul\":16530:16534   */\n      0x20\n        /* \"#utility.yul\":16523:16528   */\n      dup4\n        /* \"#utility.yul\":16519:16535   */\n      add\n        /* \"#utility.yul\":16513:16536   */\n      mload\n        /* \"#utility.yul\":16583:16586   */\n      dup5\n        /* \"#utility.yul\":16577:16581   */\n      dup3\n        /* \"#utility.yul\":16573:16587   */\n      sub\n        /* \"#utility.yul\":16566:16570   */\n      0x20\n        /* \"#utility.yul\":16561:16564   */\n      dup7\n        /* \"#utility.yul\":16557:16571   */\n      add\n        /* \"#utility.yul\":16550:16588   */\n      mstore\n        /* \"#utility.yul\":16609:16712   */\n      tag_377\n        /* \"#utility.yul\":16707:16711   */\n      dup3\n        /* \"#utility.yul\":16693:16705   */\n      dup3\n        /* \"#utility.yul\":16609:16712   */\n      tag_307\n      jump\t// in\n    tag_377:\n        /* \"#utility.yul\":16601:16712   */\n      swap2\n      pop\n        /* \"#utility.yul\":16458:16723   */\n      pop\n        /* \"#utility.yul\":16808:16812   */\n      0x40\n        /* \"#utility.yul\":16801:16806   */\n      dup4\n        /* \"#utility.yul\":16797:16813   */\n      add\n        /* \"#utility.yul\":16791:16814   */\n      mload\n        /* \"#utility.yul\":16861:16864   */\n      dup5\n        /* \"#utility.yul\":16855:16859   */\n      dup3\n        /* \"#utility.yul\":16851:16865   */\n      sub\n        /* \"#utility.yul\":16844:16848   */\n      0x40\n        /* \"#utility.yul\":16839:16842   */\n      dup7\n        /* \"#utility.yul\":16835:16849   */\n      add\n        /* \"#utility.yul\":16828:16866   */\n      mstore\n        /* \"#utility.yul\":16887:16958   */\n      tag_378\n        /* \"#utility.yul\":16953:16957   */\n      dup3\n        /* \"#utility.yul\":16939:16951   */\n      dup3\n        /* \"#utility.yul\":16887:16958   */\n      tag_347\n      jump\t// in\n    tag_378:\n        /* \"#utility.yul\":16879:16958   */\n      swap2\n      pop\n        /* \"#utility.yul\":16733:16969   */\n      pop\n        /* \"#utility.yul\":17061:17065   */\n      0x60\n        /* \"#utility.yul\":17054:17059   */\n      dup4\n        /* \"#utility.yul\":17050:17066   */\n      add\n        /* \"#utility.yul\":17044:17067   */\n      mload\n        /* \"#utility.yul\":17114:17117   */\n      dup5\n        /* \"#utility.yul\":17108:17112   */\n      dup3\n        /* \"#utility.yul\":17104:17118   */\n      sub\n        /* \"#utility.yul\":17097:17101   */\n      0x60\n        /* \"#utility.yul\":17092:17095   */\n      dup7\n        /* \"#utility.yul\":17088:17102   */\n      add\n        /* \"#utility.yul\":17081:17119   */\n      mstore\n        /* \"#utility.yul\":17140:17211   */\n      tag_379\n        /* \"#utility.yul\":17206:17210   */\n      dup3\n        /* \"#utility.yul\":17192:17204   */\n      dup3\n        /* \"#utility.yul\":17140:17211   */\n      tag_347\n      jump\t// in\n    tag_379:\n        /* \"#utility.yul\":17132:17211   */\n      swap2\n      pop\n        /* \"#utility.yul\":16979:17222   */\n      pop\n        /* \"#utility.yul\":17307:17311   */\n      0x80\n        /* \"#utility.yul\":17300:17305   */\n      dup4\n        /* \"#utility.yul\":17296:17312   */\n      add\n        /* \"#utility.yul\":17290:17313   */\n      mload\n        /* \"#utility.yul\":17326:17389   */\n      tag_380\n        /* \"#utility.yul\":17383:17387   */\n      0x80\n        /* \"#utility.yul\":17378:17381   */\n      dup7\n        /* \"#utility.yul\":17374:17388   */\n      add\n        /* \"#utility.yul\":17360:17372   */\n      dup3\n        /* \"#utility.yul\":17326:17389   */\n      tag_368\n      jump\t// in\n    tag_380:\n        /* \"#utility.yul\":17232:17399   */\n      pop\n        /* \"#utility.yul\":17485:17489   */\n      0xa0\n        /* \"#utility.yul\":17478:17483   */\n      dup4\n        /* \"#utility.yul\":17474:17490   */\n      add\n        /* \"#utility.yul\":17468:17491   */\n      mload\n        /* \"#utility.yul\":17504:17567   */\n      tag_381\n        /* \"#utility.yul\":17561:17565   */\n      0xa0\n        /* \"#utility.yul\":17556:17559   */\n      dup7\n        /* \"#utility.yul\":17552:17566   */\n      add\n        /* \"#utility.yul\":17538:17550   */\n      dup3\n        /* \"#utility.yul\":17504:17567   */\n      tag_368\n      jump\t// in\n    tag_381:\n        /* \"#utility.yul\":17409:17577   */\n      pop\n        /* \"#utility.yul\":17662:17666   */\n      0xc0\n        /* \"#utility.yul\":17655:17660   */\n      dup4\n        /* \"#utility.yul\":17651:17667   */\n      add\n        /* \"#utility.yul\":17645:17668   */\n      mload\n        /* \"#utility.yul\":17681:17742   */\n      tag_382\n        /* \"#utility.yul\":17736:17740   */\n      0xc0\n        /* \"#utility.yul\":17731:17734   */\n      dup7\n        /* \"#utility.yul\":17727:17741   */\n      add\n        /* \"#utility.yul\":17713:17725   */\n      dup3\n        /* \"#utility.yul\":17681:17742   */\n      tag_371\n      jump\t// in\n    tag_382:\n        /* \"#utility.yul\":17587:17752   */\n      pop\n        /* \"#utility.yul\":17843:17847   */\n      0xe0\n        /* \"#utility.yul\":17836:17841   */\n      dup4\n        /* \"#utility.yul\":17832:17848   */\n      add\n        /* \"#utility.yul\":17826:17849   */\n      mload\n        /* \"#utility.yul\":17862:17923   */\n      tag_383\n        /* \"#utility.yul\":17917:17921   */\n      0xe0\n        /* \"#utility.yul\":17912:17915   */\n      dup7\n        /* \"#utility.yul\":17908:17922   */\n      add\n        /* \"#utility.yul\":17894:17906   */\n      dup3\n        /* \"#utility.yul\":17862:17923   */\n      tag_371\n      jump\t// in\n    tag_383:\n        /* \"#utility.yul\":17762:17933   */\n      pop\n        /* \"#utility.yul\":18020:18026   */\n      0x0100\n        /* \"#utility.yul\":18013:18018   */\n      dup4\n        /* \"#utility.yul\":18009:18027   */\n      add\n        /* \"#utility.yul\":18003:18028   */\n      mload\n        /* \"#utility.yul\":18041:18100   */\n      tag_384\n        /* \"#utility.yul\":18092:18098   */\n      0x0100\n        /* \"#utility.yul\":18087:18090   */\n      dup7\n        /* \"#utility.yul\":18083:18099   */\n      add\n        /* \"#utility.yul\":18069:18081   */\n      dup3\n        /* \"#utility.yul\":18041:18100   */\n      tag_332\n      jump\t// in\n    tag_384:\n        /* \"#utility.yul\":17943:18110   */\n      pop\n        /* \"#utility.yul\":18127:18131   */\n      dup1\n        /* \"#utility.yul\":18120:18131   */\n      swap2\n      pop\n        /* \"#utility.yul\":16124:18137   */\n      pop\n        /* \"#utility.yul\":15980:18137   */\n      swap3\n      swap2\n      pop\n      pop\n      jump\t// out\n        /* \"#utility.yul\":18143:18251   */\n    tag_368:\n        /* \"#utility.yul\":18220:18244   */\n      tag_386\n        /* \"#utility.yul\":18238:18243   */\n      dup2\n        /* \"#utility.yul\":18220:18244   */\n      tag_387\n      jump\t// in\n    tag_386:\n        /* \"#utility.yul\":18215:18218   */\n      dup3\n        /* \"#utility.yul\":18208:18245   */\n      mstore\n        /* \"#utility.yul\":18143:18251   */\n      pop\n      pop\n      jump\t// out\n        /* \"#utility.yul\":18257:18375   */\n    tag_388:\n        /* \"#utility.yul\":18344:18368   */\n      tag_390\n        /* \"#utility.yul\":18362:18367   */\n      dup2\n        /* \"#utility.yul\":18344:18368   */\n      tag_387\n      jump\t// in\n    tag_390:\n        /* \"#utility.yul\":18339:18342   */\n      dup3\n        /* \"#utility.yul\":18332:18369   */\n      mstore\n        /* \"#utility.yul\":18257:18375   */\n      pop\n      pop\n      jump\t// out\n        /* \"#utility.yul\":18381:18489   */\n    tag_264:\n        /* \"#utility.yul\":18458:18482   */\n      tag_392\n        /* \"#utility.yul\":18476:18481   */\n      dup2\n        /* \"#utility.yul\":18458:18482   */\n      tag_393\n      jump\t// in\n    tag_392:\n        /* \"#utility.yul\":18453:18456   */\n      dup3\n        /* \"#utility.yul\":18446:18483   */\n      mstore\n        /* \"#utility.yul\":18381:18489   */\n      pop\n      pop\n      jump\t// out\n        /* \"#utility.yul\":18495:18613   */\n    tag_394:\n        /* \"#utility.yul\":18582:18606   */\n      tag_396\n        /* \"#utility.yul\":18600:18605   */\n      dup2\n        /* \"#utility.yul\":18582:18606   */\n      tag_393\n      jump\t// in\n    tag_396:\n        /* \"#utility.yul\":18577:18580   */\n      dup3\n        /* \"#utility.yul\":18570:18607   */\n      mstore\n        /* \"#utility.yul\":18495:18613   */\n      pop\n      pop\n      jump\t// out\n        /* \"#utility.yul\":18619:18724   */\n    tag_371:\n        /* \"#utility.yul\":18694:18717   */\n      tag_398\n        /* \"#utility.yul\":18711:18716   */\n      dup2\n        /* \"#utility.yul\":18694:18717   */\n      tag_399\n      jump\t// in\n    tag_398:\n        /* \"#utility.yul\":18689:18692   */\n      dup3\n        /* \"#utility.yul\":18682:18718   */\n      mstore\n        /* \"#utility.yul\":18619:18724   */\n      pop\n      pop\n      jump\t// out\n        /* \"#utility.yul\":18730:18845   */\n    tag_400:\n        /* \"#utility.yul\":18815:18838   */\n      tag_402\n        /* \"#utility.yul\":18832:18837   */\n      dup2\n        /* \"#utility.yul\":18815:18838   */\n      tag_399\n      jump\t// in\n    tag_402:\n        /* \"#utility.yul\":18810:18813   */\n      dup3\n        /* \"#utility.yul\":18803:18839   */\n      mstore\n        /* \"#utility.yul\":18730:18845   */\n      pop\n      pop\n      jump\t// out\n        /* \"#utility.yul\":18851:20356   */\n    tag_63:\n        /* \"#utility.yul\":19292:19296   */\n      0x00\n        /* \"#utility.yul\":19330:19333   */\n      0x0100\n        /* \"#utility.yul\":19319:19328   */\n      dup3\n        /* \"#utility.yul\":19315:19334   */\n      add\n        /* \"#utility.yul\":19307:19334   */\n      swap1\n      pop\n        /* \"#utility.yul\":19380:19389   */\n      dup2\n        /* \"#utility.yul\":19374:19378   */\n      dup2\n        /* \"#utility.yul\":19370:19390   */\n      sub\n        /* \"#utility.yul\":19366:19367   */\n      0x00\n        /* \"#utility.yul\":19355:19364   */\n      dup4\n        /* \"#utility.yul\":19351:19368   */\n      add\n        /* \"#utility.yul\":19344:19391   */\n      mstore\n        /* \"#utility.yul\":19408:19516   */\n      tag_404\n        /* \"#utility.yul\":19511:19515   */\n      dup2\n        /* \"#utility.yul\":19502:19508   */\n      dup14\n        /* \"#utility.yul\":19408:19516   */\n      tag_282\n      jump\t// in\n    tag_404:\n        /* \"#utility.yul\":19400:19516   */\n      swap1\n      pop\n        /* \"#utility.yul\":19563:19572   */\n      dup2\n        /* \"#utility.yul\":19557:19561   */\n      dup2\n        /* \"#utility.yul\":19553:19573   */\n      sub\n        /* \"#utility.yul\":19548:19550   */\n      0x20\n        /* \"#utility.yul\":19537:19546   */\n      dup4\n        /* \"#utility.yul\":19533:19551   */\n      add\n        /* \"#utility.yul\":19526:19574   */\n      mstore\n        /* \"#utility.yul\":19591:19699   */\n      tag_405\n        /* \"#utility.yul\":19694:19698   */\n      dup2\n        /* \"#utility.yul\":19685:19691   */\n      dup13\n        /* \"#utility.yul\":19591:19699   */\n      tag_321\n      jump\t// in\n    tag_405:\n        /* \"#utility.yul\":19583:19699   */\n      swap1\n      pop\n        /* \"#utility.yul\":19746:19755   */\n      dup2\n        /* \"#utility.yul\":19740:19744   */\n      dup2\n        /* \"#utility.yul\":19736:19756   */\n      sub\n        /* \"#utility.yul\":19731:19733   */\n      0x40\n        /* \"#utility.yul\":19720:19729   */\n      dup4\n        /* \"#utility.yul\":19716:19734   */\n      add\n        /* \"#utility.yul\":19709:19757   */\n      mstore\n        /* \"#utility.yul\":19774:19860   */\n      tag_406\n        /* \"#utility.yul\":19855:19859   */\n      dup2\n        /* \"#utility.yul\":19846:19852   */\n      dup11\n        /* \"#utility.yul\":19838:19844   */\n      dup13\n        /* \"#utility.yul\":19774:19860   */\n      tag_339\n      jump\t// in\n    tag_406:\n        /* \"#utility.yul\":19766:19860   */\n      swap1\n      pop\n        /* \"#utility.yul\":19907:19916   */\n      dup2\n        /* \"#utility.yul\":19901:19905   */\n      dup2\n        /* \"#utility.yul\":19897:19917   */\n      sub\n        /* \"#utility.yul\":19892:19894   */\n      0x60\n        /* \"#utility.yul\":19881:19890   */\n      dup4\n        /* \"#utility.yul\":19877:19895   */\n      add\n        /* \"#utility.yul\":19870:19918   */\n      mstore\n        /* \"#utility.yul\":19935:20021   */\n      tag_407\n        /* \"#utility.yul\":20016:20020   */\n      dup2\n        /* \"#utility.yul\":20007:20013   */\n      dup9\n        /* \"#utility.yul\":19999:20005   */\n      dup11\n        /* \"#utility.yul\":19935:20021   */\n      tag_339\n      jump\t// in\n    tag_407:\n        /* \"#utility.yul\":19927:20021   */\n      swap1\n      pop\n        /* \"#utility.yul\":20031:20104   */\n      tag_408\n        /* \"#utility.yul\":20099:20102   */\n      0x80\n        /* \"#utility.yul\":20088:20097   */\n      dup4\n        /* \"#utility.yul\":20084:20103   */\n      add\n        /* \"#utility.yul\":20075:20081   */\n      dup8\n        /* \"#utility.yul\":20031:20104   */\n      tag_388\n      jump\t// in\n    tag_408:\n        /* \"#utility.yul\":20114:20187   */\n      tag_409\n        /* \"#utility.yul\":20182:20185   */\n      0xa0\n        /* \"#utility.yul\":20171:20180   */\n      dup4\n        /* \"#utility.yul\":20167:20186   */\n      add\n        /* \"#utility.yul\":20158:20164   */\n      dup7\n        /* \"#utility.yul\":20114:20187   */\n      tag_388\n      jump\t// in\n    tag_409:\n        /* \"#utility.yul\":20197:20268   */\n      tag_410\n        /* \"#utility.yul\":20263:20266   */\n      0xc0\n        /* \"#utility.yul\":20252:20261   */\n      dup4\n        /* \"#utility.yul\":20248:20267   */\n      add\n        /* \"#utility.yul\":20239:20245   */\n      dup6\n        /* \"#utility.yul\":20197:20268   */\n      tag_400\n      jump\t// in\n    tag_410:\n        /* \"#utility.yul\":20278:20349   */\n      tag_411\n        /* \"#utility.yul\":20344:20347   */\n      0xe0\n        /* \"#utility.yul\":20333:20342   */\n      dup4\n        /* \"#utility.yul\":20329:20348   */\n      add\n        /* \"#utility.yul\":20320:20326   */\n      dup5\n        /* \"#utility.yul\":20278:20349   */\n      tag_400\n      jump\t// in\n    tag_411:\n        /* \"#utility.yul\":18851:20356   */\n      swap12\n      swap11\n      pop\n      pop\n      pop\n      pop\n      pop\n      pop\n      pop\n      pop\n      pop\n      pop\n      pop\n      jump\t// out\n        /* \"#utility.yul\":20362:20875   */\n    tag_31:\n        /* \"#utility.yul\":20575:20579   */\n      0x00\n        /* \"#utility.yul\":20613:20615   */\n      0x20\n        /* \"#utility.yul\":20602:20611   */\n      dup3\n        /* \"#utility.yul\":20598:20616   */\n      add\n        /* \"#utility.yul\":20590:20616   */\n      swap1\n      pop\n        /* \"#utility.yul\":20662:20671   */\n      dup2\n        /* \"#utility.yul\":20656:20660   */\n      dup2\n        /* \"#utility.yul\":20652:20672   */\n      sub\n        /* \"#utility.yul\":20648:20649   */\n      0x00\n        /* \"#utility.yul\":20637:20646   */\n      dup4\n        /* \"#utility.yul\":20633:20650   */\n      add\n        /* \"#utility.yul\":20626:20673   */\n      mstore\n        /* \"#utility.yul\":20690:20868   */\n      tag_413\n        /* \"#utility.yul\":20863:20867   */\n      dup2\n        /* \"#utility.yul\":20854:20860   */\n      dup5\n        /* \"#utility.yul\":20690:20868   */\n      tag_293\n      jump\t// in\n    tag_413:\n        /* \"#utility.yul\":20682:20868   */\n      swap1\n      pop\n        /* \"#utility.yul\":20362:20875   */\n      swap3\n      swap2\n      pop\n      pop\n      jump\t// out\n        /* \"#utility.yul\":20881:21254   */\n    tag_15:\n        /* \"#utility.yul\":21024:21028   */\n      0x00\n        /* \"#utility.yul\":21062:21064   */\n      0x20\n        /* \"#utility.yul\":21051:21060   */\n      dup3\n        /* \"#utility.yul\":21047:21065   */\n      add\n        /* \"#utility.yul\":21039:21065   */\n      swap1\n      pop\n        /* \"#utility.yul\":21111:21120   */\n      dup2\n        /* \"#utility.yul\":21105:21109   */\n      dup2\n        /* \"#utility.yul\":21101:21121   */\n      sub\n        /* \"#utility.yul\":21097:21098   */\n      0x00\n        /* \"#utility.yul\":21086:21095   */\n      dup4\n        /* \"#utility.yul\":21082:21099   */\n      add\n        /* \"#utility.yul\":21075:21122   */\n      mstore\n        /* \"#utility.yul\":21139:21247   */\n      tag_415\n        /* \"#utility.yul\":21242:21246   */\n      dup2\n        /* \"#utility.yul\":21233:21239   */\n      dup5\n        /* \"#utility.yul\":21139:21247   */\n      tag_321\n      jump\t// in\n    tag_415:\n        /* \"#utility.yul\":21131:21247   */\n      swap1\n      pop\n        /* \"#utility.yul\":20881:21254   */\n      swap3\n      swap2\n      pop\n      pop\n      jump\t// out\n        /* \"#utility.yul\":21260:22300   */\n    tag_37:\n        /* \"#utility.yul\":21547:21551   */\n      0x00\n        /* \"#utility.yul\":21585:21588   */\n      0xe0\n        /* \"#utility.yul\":21574:21583   */\n      dup3\n        /* \"#utility.yul\":21570:21589   */\n      add\n        /* \"#utility.yul\":21562:21589   */\n      swap1\n      pop\n        /* \"#utility.yul\":21635:21644   */\n      dup2\n        /* \"#utility.yul\":21629:21633   */\n      dup2\n        /* \"#utility.yul\":21625:21645   */\n      sub\n        /* \"#utility.yul\":21621:21622   */\n      0x00\n        /* \"#utility.yul\":21610:21619   */\n      dup4\n        /* \"#utility.yul\":21606:21623   */\n      add\n        /* \"#utility.yul\":21599:21646   */\n      mstore\n        /* \"#utility.yul\":21663:21739   */\n      tag_417\n        /* \"#utility.yul\":21734:21738   */\n      dup2\n        /* \"#utility.yul\":21725:21731   */\n      dup11\n        /* \"#utility.yul\":21663:21739   */\n      tag_356\n      jump\t// in\n    tag_417:\n        /* \"#utility.yul\":21655:21739   */\n      swap1\n      pop\n        /* \"#utility.yul\":21786:21795   */\n      dup2\n        /* \"#utility.yul\":21780:21784   */\n      dup2\n        /* \"#utility.yul\":21776:21796   */\n      sub\n        /* \"#utility.yul\":21771:21773   */\n      0x20\n        /* \"#utility.yul\":21760:21769   */\n      dup4\n        /* \"#utility.yul\":21756:21774   */\n      add\n        /* \"#utility.yul\":21749:21797   */\n      mstore\n        /* \"#utility.yul\":21814:21890   */\n      tag_418\n        /* \"#utility.yul\":21885:21889   */\n      dup2\n        /* \"#utility.yul\":21876:21882   */\n      dup10\n        /* \"#utility.yul\":21814:21890   */\n      tag_356\n      jump\t// in\n    tag_418:\n        /* \"#utility.yul\":21806:21890   */\n      swap1\n      pop\n        /* \"#utility.yul\":21900:21972   */\n      tag_419\n        /* \"#utility.yul\":21968:21970   */\n      0x40\n        /* \"#utility.yul\":21957:21966   */\n      dup4\n        /* \"#utility.yul\":21953:21971   */\n      add\n        /* \"#utility.yul\":21944:21950   */\n      dup9\n        /* \"#utility.yul\":21900:21972   */\n      tag_388\n      jump\t// in\n    tag_419:\n        /* \"#utility.yul\":21982:22054   */\n      tag_420\n        /* \"#utility.yul\":22050:22052   */\n      0x60\n        /* \"#utility.yul\":22039:22048   */\n      dup4\n        /* \"#utility.yul\":22035:22053   */\n      add\n        /* \"#utility.yul\":22026:22032   */\n      dup8\n        /* \"#utility.yul\":21982:22054   */\n      tag_388\n      jump\t// in\n    tag_420:\n        /* \"#utility.yul\":22064:22135   */\n      tag_421\n        /* \"#utility.yul\":22130:22133   */\n      0x80\n        /* \"#utility.yul\":22119:22128   */\n      dup4\n        /* \"#utility.yul\":22115:22134   */\n      add\n        /* \"#utility.yul\":22106:22112   */\n      dup7\n        /* \"#utility.yul\":22064:22135   */\n      tag_400\n      jump\t// in\n    tag_421:\n        /* \"#utility.yul\":22145:22216   */\n      tag_422\n        /* \"#utility.yul\":22211:22214   */\n      0xa0\n        /* \"#utility.yul\":22200:22209   */\n      dup4\n        /* \"#utility.yul\":22196:22215   */\n      add\n        /* \"#utility.yul\":22187:22193   */\n      dup6\n        /* \"#utility.yul\":22145:22216   */\n      tag_400\n      jump\t// in\n    tag_422:\n        /* \"#utility.yul\":22226:22293   */\n      tag_423\n        /* \"#utility.yul\":22288:22291   */\n      0xc0\n        /* \"#utility.yul\":22277:22286   */\n      dup4\n        /* \"#utility.yul\":22273:22292   */\n      add\n        /* \"#utility.yul\":22264:22270   */\n      dup5\n        /* \"#utility.yul\":22226:22293   */\n      tag_336\n      jump\t// in\n    tag_423:\n        /* \"#utility.yul\":21260:22300   */\n      swap9\n      swap8\n      pop\n      pop\n      pop\n      pop\n      pop\n      pop\n      pop\n      pop\n      jump\t// out\n        /* \"#utility.yul\":22306:22719   */\n    tag_49:\n        /* \"#utility.yul\":22469:22473   */\n      0x00\n        /* \"#utility.yul\":22507:22509   */\n      0x20\n        /* \"#utility.yul\":22496:22505   */\n      dup3\n        /* \"#utility.yul\":22492:22510   */\n      add\n        /* \"#utility.yul\":22484:22510   */\n      swap1\n      pop\n        /* \"#utility.yul\":22556:22565   */\n      dup2\n        /* \"#utility.yul\":22550:22554   */\n      dup2\n        /* \"#utility.yul\":22546:22566   */\n      sub\n        /* \"#utility.yul\":22542:22543   */\n      0x00\n        /* \"#utility.yul\":22531:22540   */\n      dup4\n        /* \"#utility.yul\":22527:22544   */\n      add\n        /* \"#utility.yul\":22520:22567   */\n      mstore\n        /* \"#utility.yul\":22584:22712   */\n      tag_425\n        /* \"#utility.yul\":22707:22711   */\n      dup2\n        /* \"#utility.yul\":22698:22704   */\n      dup5\n        /* \"#utility.yul\":22584:22712   */\n      tag_374\n      jump\t// in\n    tag_425:\n        /* \"#utility.yul\":22576:22712   */\n      swap1\n      pop\n        /* \"#utility.yul\":22306:22719   */\n      swap3\n      swap2\n      pop\n      pop\n      jump\t// out\n        /* \"#utility.yul\":22725:22947   */\n    tag_118:\n        /* \"#utility.yul\":22818:22822   */\n      0x00\n        /* \"#utility.yul\":22856:22858   */\n      0x20\n        /* \"#utility.yul\":22845:22854   */\n      dup3\n        /* \"#utility.yul\":22841:22859   */\n      add\n        /* \"#utility.yul\":22833:22859   */\n      swap1\n      pop\n        /* \"#utility.yul\":22869:22940   */\n      tag_427\n        /* \"#utility.yul\":22937:22938   */\n      0x00\n        /* \"#utility.yul\":22926:22935   */\n      dup4\n        /* \"#utility.yul\":22922:22939   */\n      add\n        /* \"#utility.yul\":22913:22919   */\n      dup5\n        /* \"#utility.yul\":22869:22940   */\n      tag_388\n      jump\t// in\n    tag_427:\n        /* \"#utility.yul\":22725:22947   */\n      swap3\n      swap2\n      pop\n      pop\n      jump\t// out\n        /* \"#utility.yul\":22953:23175   */\n    tag_25:\n        /* \"#utility.yul\":23046:23050   */\n      0x00\n        /* \"#utility.yul\":23084:23086   */\n      0x20\n        /* \"#utility.yul\":23073:23082   */\n      dup3\n        /* \"#utility.yul\":23069:23087   */\n      add\n        /* \"#utility.yul\":23061:23087   */\n      swap1\n      pop\n        /* \"#utility.yul\":23097:23168   */\n      tag_429\n        /* \"#utility.yul\":23165:23166   */\n      0x00\n        /* \"#utility.yul\":23154:23163   */\n      dup4\n        /* \"#utility.yul\":23150:23167   */\n      add\n        /* \"#utility.yul\":23141:23147   */\n      dup5\n        /* \"#utility.yul\":23097:23168   */\n      tag_394\n      jump\t// in\n    tag_429:\n        /* \"#utility.yul\":22953:23175   */\n      swap3\n      swap2\n      pop\n      pop\n      jump\t// out\n        /* \"#utility.yul\":23181:23310   */\n    tag_159:\n        /* \"#utility.yul\":23215:23221   */\n      0x00\n        /* \"#utility.yul\":23242:23262   */\n      tag_431\n      tag_432\n      jump\t// in\n    tag_431:\n        /* \"#utility.yul\":23232:23262   */\n      swap1\n      pop\n        /* \"#utility.yul\":23271:23304   */\n      tag_433\n        /* \"#utility.yul\":23299:23303   */\n      dup3\n        /* \"#utility.yul\":23291:23297   */\n      dup3\n        /* \"#utility.yul\":23271:23304   */\n      tag_434\n      jump\t// in\n    tag_433:\n        /* \"#utility.yul\":23181:23310   */\n      swap2\n      swap1\n      pop\n      jump\t// out\n        /* \"#utility.yul\":23316:23391   */\n    tag_432:\n        /* \"#utility.yul\":23349:23355   */\n      0x00\n        /* \"#utility.yul\":23382:23384   */\n      0x40\n        /* \"#utility.yul\":23376:23385   */\n      mload\n        /* \"#utility.yul\":23366:23385   */\n      swap1\n      pop\n        /* \"#utility.yul\":23316:23391   */\n      swap1\n      jump\t// out\n        /* \"#utility.yul\":23397:23708   */\n    tag_158:\n        /* \"#utility.yul\":23474:23478   */\n      0x00\n        /* \"#utility.yul\":23564:23582   */\n      0xffffffffffffffff\n        /* \"#utility.yul\":23556:23562   */\n      dup3\n        /* \"#utility.yul\":23553:23583   */\n      gt\n        /* \"#utility.yul\":23550:23606   */\n      iszero\n      tag_437\n      jumpi\n        /* \"#utility.yul\":23586:23604   */\n      tag_438\n      tag_73\n      jump\t// in\n    tag_438:\n        /* \"#utility.yul\":23550:23606   */\n    tag_437:\n        /* \"#utility.yul\":23636:23640   */\n      0x20\n        /* \"#utility.yul\":23628:23634   */\n      dup3\n        /* \"#utility.yul\":23624:23641   */\n      mul\n        /* \"#utility.yul\":23616:23641   */\n      swap1\n      pop\n        /* \"#utility.yul\":23696:23700   */\n      0x20\n        /* \"#utility.yul\":23690:23694   */\n      dup2\n        /* \"#utility.yul\":23686:23701   */\n      add\n        /* \"#utility.yul\":23678:23701   */\n      swap1\n      pop\n        /* \"#utility.yul\":23397:23708   */\n      swap2\n      swap1\n      pop\n      jump\t// out\n        /* \"#utility.yul\":23714:24025   */\n    tag_172:\n        /* \"#utility.yul\":23791:23795   */\n      0x00\n        /* \"#utility.yul\":23881:23899   */\n      0xffffffffffffffff\n        /* \"#utility.yul\":23873:23879   */\n      dup3\n        /* \"#utility.yul\":23870:23900   */\n      gt\n        /* \"#utility.yul\":23867:23923   */\n      iszero\n      tag_440\n      jumpi\n        /* \"#utility.yul\":23903:23921   */\n      tag_441\n      tag_73\n      jump\t// in\n    tag_441:\n        /* \"#utility.yul\":23867:23923   */\n    tag_440:\n        /* \"#utility.yul\":23953:23957   */\n      0x20\n        /* \"#utility.yul\":23945:23951   */\n      dup3\n        /* \"#utility.yul\":23941:23958   */\n      mul\n        /* \"#utility.yul\":23933:23958   */\n      swap1\n      pop\n        /* \"#utility.yul\":24013:24017   */\n      0x20\n        /* \"#utility.yul\":24007:24011   */\n      dup2\n        /* \"#utility.yul\":24003:24018   */\n      add\n        /* \"#utility.yul\":23995:24018   */\n      swap1\n      pop\n        /* \"#utility.yul\":23714:24025   */\n      swap2\n      swap1\n      pop\n      jump\t// out\n        /* \"#utility.yul\":24031:24163   */\n    tag_275:\n        /* \"#utility.yul\":24098:24102   */\n      0x00\n        /* \"#utility.yul\":24121:24124   */\n      dup2\n        /* \"#utility.yul\":24113:24124   */\n      swap1\n      pop\n        /* \"#utility.yul\":24151:24155   */\n      0x20\n        /* \"#utility.yul\":24146:24149   */\n      dup3\n        /* \"#utility.yul\":24142:24156   */\n      add\n        /* \"#utility.yul\":24134:24156   */\n      swap1\n      pop\n        /* \"#utility.yul\":24031:24163   */\n      swap2\n      swap1\n      pop\n      jump\t// out\n        /* \"#utility.yul\":24169:24336   */\n    tag_300:\n        /* \"#utility.yul\":24271:24275   */\n      0x00\n        /* \"#utility.yul\":24294:24297   */\n      dup2\n        /* \"#utility.yul\":24286:24297   */\n      swap1\n      pop\n        /* \"#utility.yul\":24324:24328   */\n      0x20\n        /* \"#utility.yul\":24319:24322   */\n      dup3\n        /* \"#utility.yul\":24315:24329   */\n      add\n        /* \"#utility.yul\":24307:24329   */\n      swap1\n      pop\n        /* \"#utility.yul\":24169:24336   */\n      swap2\n      swap1\n      pop\n      jump\t// out\n        /* \"#utility.yul\":24342:24474   */\n    tag_314:\n        /* \"#utility.yul\":24409:24413   */\n      0x00\n        /* \"#utility.yul\":24432:24435   */\n      dup2\n        /* \"#utility.yul\":24424:24435   */\n      swap1\n      pop\n        /* \"#utility.yul\":24462:24466   */\n      0x20\n        /* \"#utility.yul\":24457:24460   */\n      dup3\n        /* \"#utility.yul\":24453:24467   */\n      add\n        /* \"#utility.yul\":24445:24467   */\n      swap1\n      pop\n        /* \"#utility.yul\":24342:24474   */\n      swap2\n      swap1\n      pop\n      jump\t// out\n        /* \"#utility.yul\":24480:24594   */\n    tag_271:\n        /* \"#utility.yul\":24547:24553   */\n      0x00\n        /* \"#utility.yul\":24581:24586   */\n      dup2\n        /* \"#utility.yul\":24575:24587   */\n      mload\n        /* \"#utility.yul\":24565:24587   */\n      swap1\n      pop\n        /* \"#utility.yul\":24480:24594   */\n      swap2\n      swap1\n      pop\n      jump\t// out\n        /* \"#utility.yul\":24600:24749   */\n    tag_296:\n        /* \"#utility.yul\":24702:24708   */\n      0x00\n        /* \"#utility.yul\":24736:24741   */\n      dup2\n        /* \"#utility.yul\":24730:24742   */\n      mload\n        /* \"#utility.yul\":24720:24742   */\n      swap1\n      pop\n        /* \"#utility.yul\":24600:24749   */\n      swap2\n      swap1\n      pop\n      jump\t// out\n        /* \"#utility.yul\":24755:24869   */\n    tag_310:\n        /* \"#utility.yul\":24822:24828   */\n      0x00\n        /* \"#utility.yul\":24856:24861   */\n      dup2\n        /* \"#utility.yul\":24850:24862   */\n      mload\n        /* \"#utility.yul\":24840:24862   */\n      swap1\n      pop\n        /* \"#utility.yul\":24755:24869   */\n      swap2\n      swap1\n      pop\n      jump\t// out\n        /* \"#utility.yul\":24875:24973   */\n    tag_350:\n        /* \"#utility.yul\":24926:24932   */\n      0x00\n        /* \"#utility.yul\":24960:24965   */\n      dup2\n        /* \"#utility.yul\":24954:24966   */\n      mload\n        /* \"#utility.yul\":24944:24966   */\n      swap1\n      pop\n        /* \"#utility.yul\":24875:24973   */\n      swap2\n      swap1\n      pop\n      jump\t// out\n        /* \"#utility.yul\":24979:25092   */\n    tag_281:\n        /* \"#utility.yul\":25049:25053   */\n      0x00\n        /* \"#utility.yul\":25081:25085   */\n      0x20\n        /* \"#utility.yul\":25076:25079   */\n      dup3\n        /* \"#utility.yul\":25072:25086   */\n      add\n        /* \"#utility.yul\":25064:25086   */\n      swap1\n      pop\n        /* \"#utility.yul\":24979:25092   */\n      swap2\n      swap1\n      pop\n      jump\t// out\n        /* \"#utility.yul\":25098:25246   */\n    tag_306:\n        /* \"#utility.yul\":25203:25207   */\n      0x00\n        /* \"#utility.yul\":25235:25239   */\n      0x20\n        /* \"#utility.yul\":25230:25233   */\n      dup3\n        /* \"#utility.yul\":25226:25240   */\n      add\n        /* \"#utility.yul\":25218:25240   */\n      swap1\n      pop\n        /* \"#utility.yul\":25098:25246   */\n      swap2\n      swap1\n      pop\n      jump\t// out\n        /* \"#utility.yul\":25252:25365   */\n    tag_320:\n        /* \"#utility.yul\":25322:25326   */\n      0x00\n        /* \"#utility.yul\":25354:25358   */\n      0x20\n        /* \"#utility.yul\":25349:25352   */\n      dup3\n        /* \"#utility.yul\":25345:25359   */\n      add\n        /* \"#utility.yul\":25337:25359   */\n      swap1\n      pop\n        /* \"#utility.yul\":25252:25365   */\n      swap2\n      swap1\n      pop\n      jump\t// out\n        /* \"#utility.yul\":25371:25545   */\n    tag_273:\n        /* \"#utility.yul\":25460:25471   */\n      0x00\n        /* \"#utility.yul\":25494:25500   */\n      dup3\n        /* \"#utility.yul\":25489:25492   */\n      dup3\n        /* \"#utility.yul\":25482:25501   */\n      mstore\n        /* \"#utility.yul\":25534:25538   */\n      0x20\n        /* \"#utility.yul\":25529:25532   */\n      dup3\n        /* \"#utility.yul\":25525:25539   */\n      add\n        /* \"#utility.yul\":25510:25539   */\n      swap1\n      pop\n        /* \"#utility.yul\":25371:25545   */\n      swap3\n      swap2\n      pop\n      pop\n      jump\t// out\n        /* \"#utility.yul\":25551:25735   */\n    tag_286:\n        /* \"#utility.yul\":25650:25661   */\n      0x00\n        /* \"#utility.yul\":25684:25690   */\n      dup3\n        /* \"#utility.yul\":25679:25682   */\n      dup3\n        /* \"#utility.yul\":25672:25691   */\n      mstore\n        /* \"#utility.yul\":25724:25728   */\n      0x20\n        /* \"#utility.yul\":25719:25722   */\n      dup3\n        /* \"#utility.yul\":25715:25729   */\n      add\n        /* \"#utility.yul\":25700:25729   */\n      swap1\n      pop\n        /* \"#utility.yul\":25551:25735   */\n      swap3\n      swap2\n      pop\n      pop\n      jump\t// out\n        /* \"#utility.yul\":25741:25960   */\n    tag_298:\n        /* \"#utility.yul\":25875:25886   */\n      0x00\n        /* \"#utility.yul\":25909:25915   */\n      dup3\n        /* \"#utility.yul\":25904:25907   */\n      dup3\n        /* \"#utility.yul\":25897:25916   */\n      mstore\n        /* \"#utility.yul\":25949:25953   */\n      0x20\n        /* \"#utility.yul\":25944:25947   */\n      dup3\n        /* \"#utility.yul\":25940:25954   */\n      add\n        /* \"#utility.yul\":25925:25954   */\n      swap1\n      pop\n        /* \"#utility.yul\":25741:25960   */\n      swap3\n      swap2\n      pop\n      pop\n      jump\t// out\n        /* \"#utility.yul\":25966:26140   */\n    tag_312:\n        /* \"#utility.yul\":26055:26066   */\n      0x00\n        /* \"#utility.yul\":26089:26095   */\n      dup3\n        /* \"#utility.yul\":26084:26087   */\n      dup3\n        /* \"#utility.yul\":26077:26096   */\n      mstore\n        /* \"#utility.yul\":26129:26133   */\n      0x20\n        /* \"#utility.yul\":26124:26127   */\n      dup3\n        /* \"#utility.yul\":26120:26134   */\n      add\n        /* \"#utility.yul\":26105:26134   */\n      swap1\n      pop\n        /* \"#utility.yul\":25966:26140   */\n      swap3\n      swap2\n      pop\n      pop\n      jump\t// out\n        /* \"#utility.yul\":26146:26330   */\n    tag_325:\n        /* \"#utility.yul\":26245:26256   */\n      0x00\n        /* \"#utility.yul\":26279:26285   */\n      dup3\n        /* \"#utility.yul\":26274:26277   */\n      dup3\n        /* \"#utility.yul\":26267:26286   */\n      mstore\n        /* \"#utility.yul\":26319:26323   */\n      0x20\n        /* \"#utility.yul\":26314:26317   */\n      dup3\n        /* \"#utility.yul\":26310:26324   */\n      add\n        /* \"#utility.yul\":26295:26324   */\n      swap1\n      pop\n        /* \"#utility.yul\":26146:26330   */\n      swap3\n      swap2\n      pop\n      pop\n      jump\t// out\n        /* \"#utility.yul\":26336:26494   */\n    tag_352:\n        /* \"#utility.yul\":26409:26420   */\n      0x00\n        /* \"#utility.yul\":26443:26449   */\n      dup3\n        /* \"#utility.yul\":26438:26441   */\n      dup3\n        /* \"#utility.yul\":26431:26450   */\n      mstore\n        /* \"#utility.yul\":26483:26487   */\n      0x20\n        /* \"#utility.yul\":26478:26481   */\n      dup3\n        /* \"#utility.yul\":26474:26488   */\n      add\n        /* \"#utility.yul\":26459:26488   */\n      swap1\n      pop\n        /* \"#utility.yul\":26336:26494   */\n      swap3\n      swap2\n      pop\n      pop\n      jump\t// out\n        /* \"#utility.yul\":26500:26668   */\n    tag_342:\n        /* \"#utility.yul\":26583:26594   */\n      0x00\n        /* \"#utility.yul\":26617:26623   */\n      dup3\n        /* \"#utility.yul\":26612:26615   */\n      dup3\n        /* \"#utility.yul\":26605:26624   */\n      mstore\n        /* \"#utility.yul\":26657:26661   */\n      0x20\n        /* \"#utility.yul\":26652:26655   */\n      dup3\n        /* \"#utility.yul\":26648:26662   */\n      add\n        /* \"#utility.yul\":26633:26662   */\n      swap1\n      pop\n        /* \"#utility.yul\":26500:26668   */\n      swap3\n      swap2\n      pop\n      pop\n      jump\t// out\n        /* \"#utility.yul\":26674:26865   */\n    tag_116:\n        /* \"#utility.yul\":26714:26718   */\n      0x00\n        /* \"#utility.yul\":26734:26754   */\n      tag_460\n        /* \"#utility.yul\":26752:26753   */\n      dup3\n        /* \"#utility.yul\":26734:26754   */\n      tag_387\n      jump\t// in\n    tag_460:\n        /* \"#utility.yul\":26729:26754   */\n      swap2\n      pop\n        /* \"#utility.yul\":26768:26788   */\n      tag_461\n        /* \"#utility.yul\":26786:26787   */\n      dup4\n        /* \"#utility.yul\":26768:26788   */\n      tag_387\n      jump\t// in\n    tag_461:\n        /* \"#utility.yul\":26763:26788   */\n      swap3\n      pop\n        /* \"#utility.yul\":26807:26808   */\n      dup3\n        /* \"#utility.yul\":26804:26805   */\n      dup3\n        /* \"#utility.yul\":26801:26809   */\n      lt\n        /* \"#utility.yul\":26798:26832   */\n      iszero\n      tag_462\n      jumpi\n        /* \"#utility.yul\":26812:26830   */\n      tag_463\n      tag_464\n      jump\t// in\n    tag_463:\n        /* \"#utility.yul\":26798:26832   */\n    tag_462:\n        /* \"#utility.yul\":26857:26858   */\n      dup3\n        /* \"#utility.yul\":26854:26855   */\n      dup3\n        /* \"#utility.yul\":26850:26859   */\n      sub\n        /* \"#utility.yul\":26842:26859   */\n      swap1\n      pop\n        /* \"#utility.yul\":26674:26865   */\n      swap3\n      swap2\n      pop\n      pop\n      jump\t// out\n        /* \"#utility.yul\":26871:26967   */\n    tag_267:\n        /* \"#utility.yul\":26908:26915   */\n      0x00\n        /* \"#utility.yul\":26937:26961   */\n      tag_466\n        /* \"#utility.yul\":26955:26960   */\n      dup3\n        /* \"#utility.yul\":26937:26961   */\n      tag_467\n      jump\t// in\n    tag_466:\n        /* \"#utility.yul\":26926:26961   */\n      swap1\n      pop\n        /* \"#utility.yul\":26871:26967   */\n      swap2\n      swap1\n      pop\n      jump\t// out\n        /* \"#utility.yul\":26973:27063   */\n    tag_335:\n        /* \"#utility.yul\":27007:27014   */\n      0x00\n        /* \"#utility.yul\":27050:27055   */\n      dup2\n        /* \"#utility.yul\":27043:27056   */\n      iszero\n        /* \"#utility.yul\":27036:27057   */\n      iszero\n        /* \"#utility.yul\":27025:27057   */\n      swap1\n      pop\n        /* \"#utility.yul\":26973:27063   */\n      swap2\n      swap1\n      pop\n      jump\t// out\n        /* \"#utility.yul\":27069:27187   */\n    tag_387:\n        /* \"#utility.yul\":27106:27113   */\n      0x00\n        /* \"#utility.yul\":27146:27180   */\n      0xffffffffffffffffffffffffffffffff\n        /* \"#utility.yul\":27139:27144   */\n      dup3\n        /* \"#utility.yul\":27135:27181   */\n      and\n        /* \"#utility.yul\":27124:27181   */\n      swap1\n      pop\n        /* \"#utility.yul\":27069:27187   */\n      swap2\n      swap1\n      pop\n      jump\t// out\n        /* \"#utility.yul\":27193:27319   */\n    tag_467:\n        /* \"#utility.yul\":27230:27237   */\n      0x00\n        /* \"#utility.yul\":27270:27312   */\n      0xffffffffffffffffffffffffffffffffffffffff\n        /* \"#utility.yul\":27263:27268   */\n      dup3\n        /* \"#utility.yul\":27259:27313   */\n      and\n        /* \"#utility.yul\":27248:27313   */\n      swap1\n      pop\n        /* \"#utility.yul\":27193:27319   */\n      swap2\n      swap1\n      pop\n      jump\t// out\n        /* \"#utility.yul\":27325:27402   */\n    tag_393:\n        /* \"#utility.yul\":27362:27369   */\n      0x00\n        /* \"#utility.yul\":27391:27396   */\n      dup2\n        /* \"#utility.yul\":27380:27396   */\n      swap1\n      pop\n        /* \"#utility.yul\":27325:27402   */\n      swap2\n      swap1\n      pop\n      jump\t// out\n        /* \"#utility.yul\":27408:27501   */\n    tag_399:\n        /* \"#utility.yul\":27444:27451   */\n      0x00\n        /* \"#utility.yul\":27484:27494   */\n      0xffffffff\n        /* \"#utility.yul\":27477:27482   */\n      dup3\n        /* \"#utility.yul\":27473:27495   */\n      and\n        /* \"#utility.yul\":27462:27495   */\n      swap1\n      pop\n        /* \"#utility.yul\":27408:27501   */\n      swap2\n      swap1\n      pop\n      jump\t// out\n        /* \"#utility.yul\":27507:27661   */\n    tag_344:\n        /* \"#utility.yul\":27591:27597   */\n      dup3\n        /* \"#utility.yul\":27586:27589   */\n      dup2\n        /* \"#utility.yul\":27581:27584   */\n      dup4\n        /* \"#utility.yul\":27568:27598   */\n      calldatacopy\n        /* \"#utility.yul\":27653:27654   */\n      0x00\n        /* \"#utility.yul\":27644:27650   */\n      dup4\n        /* \"#utility.yul\":27639:27642   */\n      dup4\n        /* \"#utility.yul\":27635:27651   */\n      add\n        /* \"#utility.yul\":27628:27655   */\n      mstore\n        /* \"#utility.yul\":27507:27661   */\n      pop\n      pop\n      pop\n      jump\t// out\n        /* \"#utility.yul\":27667:27974   */\n    tag_354:\n        /* \"#utility.yul\":27735:27736   */\n      0x00\n        /* \"#utility.yul\":27745:27858   */\n    tag_475:\n        /* \"#utility.yul\":27759:27765   */\n      dup4\n        /* \"#utility.yul\":27756:27757   */\n      dup2\n        /* \"#utility.yul\":27753:27766   */\n      lt\n        /* \"#utility.yul\":27745:27858   */\n      iszero\n      tag_477\n      jumpi\n        /* \"#utility.yul\":27844:27845   */\n      dup1\n        /* \"#utility.yul\":27839:27842   */\n      dup3\n        /* \"#utility.yul\":27835:27846   */\n      add\n        /* \"#utility.yul\":27829:27847   */\n      mload\n        /* \"#utility.yul\":27825:27826   */\n      dup2\n        /* \"#utility.yul\":27820:27823   */\n      dup5\n        /* \"#utility.yul\":27816:27827   */\n      add\n        /* \"#utility.yul\":27809:27848   */\n      mstore\n        /* \"#utility.yul\":27781:27783   */\n      0x20\n        /* \"#utility.yul\":27778:27779   */\n      dup2\n        /* \"#utility.yul\":27774:27784   */\n      add\n        /* \"#utility.yul\":27769:27784   */\n      swap1\n      pop\n        /* \"#utility.yul\":27745:27858   */\n      jump(tag_475)\n    tag_477:\n        /* \"#utility.yul\":27876:27882   */\n      dup4\n        /* \"#utility.yul\":27873:27874   */\n      dup2\n        /* \"#utility.yul\":27870:27883   */\n      gt\n        /* \"#utility.yul\":27867:27968   */\n      iszero\n      tag_478\n      jumpi\n        /* \"#utility.yul\":27956:27957   */\n      0x00\n        /* \"#utility.yul\":27947:27953   */\n      dup5\n        /* \"#utility.yul\":27942:27945   */\n      dup5\n        /* \"#utility.yul\":27938:27954   */\n      add\n        /* \"#utility.yul\":27931:27958   */\n      mstore\n        /* \"#utility.yul\":27867:27968   */\n    tag_478:\n        /* \"#utility.yul\":27716:27974   */\n      pop\n        /* \"#utility.yul\":27667:27974   */\n      pop\n      pop\n      pop\n      jump\t// out\n        /* \"#utility.yul\":27980:28300   */\n    tag_89:\n        /* \"#utility.yul\":28024:28030   */\n      0x00\n        /* \"#utility.yul\":28061:28062   */\n      0x02\n        /* \"#utility.yul\":28055:28059   */\n      dup3\n        /* \"#utility.yul\":28051:28063   */\n      div\n        /* \"#utility.yul\":28041:28063   */\n      swap1\n      pop\n        /* \"#utility.yul\":28108:28109   */\n      0x01\n        /* \"#utility.yul\":28102:28106   */\n      dup3\n        /* \"#utility.yul\":28098:28110   */\n      and\n        /* \"#utility.yul\":28129:28147   */\n      dup1\n        /* \"#utility.yul\":28119:28200   */\n      tag_480\n      jumpi\n        /* \"#utility.yul\":28185:28189   */\n      0x7f\n        /* \"#utility.yul\":28177:28183   */\n      dup3\n        /* \"#utility.yul\":28173:28190   */\n      and\n        /* \"#utility.yul\":28163:28190   */\n      swap2\n      pop\n        /* \"#utility.yul\":28119:28200   */\n    tag_480:\n        /* \"#utility.yul\":28247:28249   */\n      0x20\n        /* \"#utility.yul\":28239:28245   */\n      dup3\n        /* \"#utility.yul\":28236:28250   */\n      lt\n        /* \"#utility.yul\":28216:28234   */\n      dup2\n        /* \"#utility.yul\":28213:28251   */\n      eq\n        /* \"#utility.yul\":28210:28294   */\n      iszero\n      tag_481\n      jumpi\n        /* \"#utility.yul\":28266:28284   */\n      tag_482\n      tag_483\n      jump\t// in\n    tag_482:\n        /* \"#utility.yul\":28210:28294   */\n    tag_481:\n        /* \"#utility.yul\":28031:28300   */\n      pop\n        /* \"#utility.yul\":27980:28300   */\n      swap2\n      swap1\n      pop\n      jump\t// out\n        /* \"#utility.yul\":28306:28587   */\n    tag_434:\n        /* \"#utility.yul\":28389:28416   */\n      tag_485\n        /* \"#utility.yul\":28411:28415   */\n      dup3\n        /* \"#utility.yul\":28389:28416   */\n      tag_346\n      jump\t// in\n    tag_485:\n        /* \"#utility.yul\":28381:28387   */\n      dup2\n        /* \"#utility.yul\":28377:28417   */\n      add\n        /* \"#utility.yul\":28519:28525   */\n      dup2\n        /* \"#utility.yul\":28507:28517   */\n      dup2\n        /* \"#utility.yul\":28504:28526   */\n      lt\n        /* \"#utility.yul\":28483:28501   */\n      0xffffffffffffffff\n        /* \"#utility.yul\":28471:28481   */\n      dup3\n        /* \"#utility.yul\":28468:28502   */\n      gt\n        /* \"#utility.yul\":28465:28527   */\n      or\n        /* \"#utility.yul\":28462:28550   */\n      iszero\n      tag_486\n      jumpi\n        /* \"#utility.yul\":28530:28548   */\n      tag_487\n      tag_73\n      jump\t// in\n    tag_487:\n        /* \"#utility.yul\":28462:28550   */\n    tag_486:\n        /* \"#utility.yul\":28570:28580   */\n      dup1\n        /* \"#utility.yul\":28566:28568   */\n      0x40\n        /* \"#utility.yul\":28559:28581   */\n      mstore\n        /* \"#utility.yul\":28349:28587   */\n      pop\n        /* \"#utility.yul\":28306:28587   */\n      pop\n      pop\n      jump\t// out\n        /* \"#utility.yul\":28593:28826   */\n    tag_65:\n        /* \"#utility.yul\":28632:28635   */\n      0x00\n        /* \"#utility.yul\":28655:28679   */\n      tag_489\n        /* \"#utility.yul\":28673:28678   */\n      dup3\n        /* \"#utility.yul\":28655:28679   */\n      tag_393\n      jump\t// in\n    tag_489:\n        /* \"#utility.yul\":28646:28679   */\n      swap2\n      pop\n        /* \"#utility.yul\":28701:28767   */\n      0xffffffffffffffffffffffffffffffffffffffffffffffffffffffffffffffff\n        /* \"#utility.yul\":28694:28699   */\n      dup3\n        /* \"#utility.yul\":28691:28768   */\n      eq\n        /* \"#utility.yul\":28688:28791   */\n      iszero\n      tag_490\n      jumpi\n        /* \"#utility.yul\":28771:28789   */\n      tag_491\n      tag_464\n      jump\t// in\n    tag_491:\n        /* \"#utility.yul\":28688:28791   */\n    tag_490:\n        /* \"#utility.yul\":28818:28819   */\n      0x01\n        /* \"#utility.yul\":28811:28816   */\n      dup3\n        /* \"#utility.yul\":28807:28820   */\n      add\n        /* \"#utility.yul\":28800:28820   */\n      swap1\n      pop\n        /* \"#utility.yul\":28593:28826   */\n      swap2\n      swap1\n      pop\n      jump\t// out\n        /* \"#utility.yul\":28832:29012   */\n    tag_464:\n        /* \"#utility.yul\":28880:28957   */\n      0x4e487b7100000000000000000000000000000000000000000000000000000000\n        /* \"#utility.yul\":28877:28878   */\n      0x00\n        /* \"#utility.yul\":28870:28958   */\n      mstore\n        /* \"#utility.yul\":28977:28981   */\n      0x11\n        /* \"#utility.yul\":28974:28975   */\n      0x04\n        /* \"#utility.yul\":28967:28982   */\n      mstore\n        /* \"#utility.yul\":29001:29005   */\n      0x24\n        /* \"#utility.yul\":28998:28999   */\n      0x00\n        /* \"#utility.yul\":28991:29006   */\n      revert\n        /* \"#utility.yul\":29018:29198   */\n    tag_483:\n        /* \"#utility.yul\":29066:29143   */\n      0x4e487b7100000000000000000000000000000000000000000000000000000000\n        /* \"#utility.yul\":29063:29064   */\n      0x00\n        /* \"#utility.yul\":29056:29144   */\n      mstore\n        /* \"#utility.yul\":29163:29167   */\n      0x22\n        /* \"#utility.yul\":29160:29161   */\n      0x04\n        /* \"#utility.yul\":29153:29168   */\n      mstore\n        /* \"#utility.yul\":29187:29191   */\n      0x24\n        /* \"#utility.yul\":29184:29185   */\n      0x00\n        /* \"#utility.yul\":29177:29192   */\n      revert\n        /* \"#utility.yul\":29204:29384   */\n    tag_83:\n        /* \"#utility.yul\":29252:29329   */\n      0x4e487b7100000000000000000000000000000000000000000000000000000000\n        /* \"#utility.yul\":29249:29250   */\n      0x00\n        /* \"#utility.yul\":29242:29330   */\n      mstore\n        /* \"#utility.yul\":29349:29353   */\n      0x32\n        /* \"#utility.yul\":29346:29347   */\n      0x04\n        /* \"#utility.yul\":29339:29354   */\n      mstore\n        /* \"#utility.yul\":29373:29377   */\n      0x24\n        /* \"#utility.yul\":29370:29371   */\n      0x00\n        /* \"#utility.yul\":29363:29378   */\n      revert\n        /* \"#utility.yul\":29390:29570   */\n    tag_73:\n        /* \"#utility.yul\":29438:29515   */\n      0x4e487b7100000000000000000000000000000000000000000000000000000000\n        /* \"#utility.yul\":29435:29436   */\n      0x00\n        /* \"#utility.yul\":29428:29516   */\n      mstore\n        /* \"#utility.yul\":29535:29539   */\n      0x41\n        /* \"#utility.yul\":29532:29533   */\n      0x04\n        /* \"#utility.yul\":29525:29540   */\n      mstore\n        /* \"#utility.yul\":29559:29563   */\n      0x24\n        /* \"#utility.yul\":29556:29557   */\n      0x00\n        /* \"#utility.yul\":29549:29564   */\n      revert\n        /* \"#utility.yul\":29576:29693   */\n    tag_200:\n        /* \"#utility.yul\":29685:29686   */\n      0x00\n        /* \"#utility.yul\":29682:29683   */\n      dup1\n        /* \"#utility.yul\":29675:29687   */\n      revert\n        /* \"#utility.yul\":29699:29816   */\n    tag_187:\n        /* \"#utility.yul\":29808:29809   */\n      0x00\n        /* \"#utility.yul\":29805:29806   */\n      dup1\n        /* \"#utility.yul\":29798:29810   */\n      revert\n        /* \"#utility.yul\":29822:29939   */\n    tag_162:\n        /* \"#utility.yul\":29931:29932   */\n      0x00\n        /* \"#utility.yul\":29928:29929   */\n      dup1\n        /* \"#utility.yul\":29921:29933   */\n      revert\n        /* \"#utility.yul\":29945:30062   */\n    tag_229:\n        /* \"#utility.yul\":30054:30055   */\n      0x00\n        /* \"#utility.yul\":30051:30052   */\n      dup1\n        /* \"#utility.yul\":30044:30056   */\n      revert\n        /* \"#utility.yul\":30068:30185   */\n    tag_217:\n        /* \"#utility.yul\":30177:30178   */\n      0x00\n        /* \"#utility.yul\":30174:30175   */\n      dup1\n        /* \"#utility.yul\":30167:30179   */\n      revert\n        /* \"#utility.yul\":30191:30293   */\n    tag_346:\n        /* \"#utility.yul\":30232:30238   */\n      0x00\n        /* \"#utility.yul\":30283:30285   */\n      0x1f\n        /* \"#utility.yul\":30279:30286   */\n      not\n        /* \"#utility.yul\":30274:30276   */\n      0x1f\n        /* \"#utility.yul\":30267:30272   */\n      dup4\n        /* \"#utility.yul\":30263:30277   */\n      add\n        /* \"#utility.yul\":30259:30287   */\n      and\n        /* \"#utility.yul\":30249:30287   */\n      swap1\n      pop\n        /* \"#utility.yul\":30191:30293   */\n      swap2\n      swap1\n      pop\n      jump\t// out\n        /* \"#utility.yul\":30299:30421   */\n    tag_182:\n        /* \"#utility.yul\":30372:30396   */\n      tag_503\n        /* \"#utility.yul\":30390:30395   */\n      dup2\n        /* \"#utility.yul\":30372:30396   */\n      tag_267\n      jump\t// in\n    tag_503:\n        /* \"#utility.yul\":30365:30370   */\n      dup2\n        /* \"#utility.yul\":30362:30397   */\n      eq\n        /* \"#utility.yul\":30352:30415   */\n      tag_504\n      jumpi\n        /* \"#utility.yul\":30411:30412   */\n      0x00\n        /* \"#utility.yul\":30408:30409   */\n      dup1\n        /* \"#utility.yul\":30401:30413   */\n      revert\n        /* \"#utility.yul\":30352:30415   */\n    tag_504:\n        /* \"#utility.yul\":30299:30421   */\n      pop\n      jump\t// out\n        /* \"#utility.yul\":30427:30549   */\n    tag_206:\n        /* \"#utility.yul\":30500:30524   */\n      tag_506\n        /* \"#utility.yul\":30518:30523   */\n      dup2\n        /* \"#utility.yul\":30500:30524   */\n      tag_387\n      jump\t// in\n    tag_506:\n        /* \"#utility.yul\":30493:30498   */\n      dup2\n        /* \"#utility.yul\":30490:30525   */\n      eq\n        /* \"#utility.yul\":30480:30543   */\n      tag_507\n      jumpi\n        /* \"#utility.yul\":30539:30540   */\n      0x00\n        /* \"#utility.yul\":30536:30537   */\n      dup1\n        /* \"#utility.yul\":30529:30541   */\n      revert\n        /* \"#utility.yul\":30480:30543   */\n    tag_507:\n        /* \"#utility.yul\":30427:30549   */\n      pop\n      jump\t// out\n        /* \"#utility.yul\":30555:30677   */\n    tag_209:\n        /* \"#utility.yul\":30628:30652   */\n      tag_509\n        /* \"#utility.yul\":30646:30651   */\n      dup2\n        /* \"#utility.yul\":30628:30652   */\n      tag_393\n      jump\t// in\n    tag_509:\n        /* \"#utility.yul\":30621:30626   */\n      dup2\n        /* \"#utility.yul\":30618:30653   */\n      eq\n        /* \"#utility.yul\":30608:30671   */\n      tag_510\n      jumpi\n        /* \"#utility.yul\":30667:30668   */\n      0x00\n        /* \"#utility.yul\":30664:30665   */\n      dup1\n        /* \"#utility.yul\":30657:30669   */\n      revert\n        /* \"#utility.yul\":30608:30671   */\n    tag_510:\n        /* \"#utility.yul\":30555:30677   */\n      pop\n      jump\t// out\n        /* \"#utility.yul\":30683:30803   */\n    tag_213:\n        /* \"#utility.yul\":30755:30778   */\n      tag_512\n        /* \"#utility.yul\":30772:30777   */\n      dup2\n        /* \"#utility.yul\":30755:30778   */\n      tag_399\n      jump\t// in\n    tag_512:\n        /* \"#utility.yul\":30748:30753   */\n      dup2\n        /* \"#utility.yul\":30745:30779   */\n      eq\n        /* \"#utility.yul\":30735:30797   */\n      tag_513\n      jumpi\n        /* \"#utility.yul\":30793:30794   */\n      0x00\n        /* \"#utility.yul\":30790:30791   */\n      dup1\n        /* \"#utility.yul\":30783:30795   */\n      revert\n        /* \"#utility.yul\":30735:30797   */\n    tag_513:\n        /* \"#utility.yul\":30683:30803   */\n      pop\n      jump\t// out\n\n    auxdata: 0xa2646970667358221220b291088cdaf6dcadc1d1420a1878ee6c42e03a4f4711f638770237e83ac749f364736f6c63430008070033\n}\n",
				"bytecode": {
					"linkReferences": {},
					"object": "6080604052600160005534801561001557600080fd5b506121ae806100256000396000f3fe608060405234801561001057600080fd5b50600436106100885760003560e01c806365603df21161005b57806365603df2146101275780639ea61c7e1461015d578063d37889c614610179578063f6a989f81461019557610088565b806324e5e6aa1461008d578063448952e1146100ab578063580f469c146100c757806360715971146100f7575b600080fd5b6100956101c5565b6040516100a29190611c32565b60405180910390f35b6100c560048036038101906100c091906114cb565b61025a565b005b6100e160048036038101906100dc919061148b565b6105a4565b6040516100ee9190611d0e565b60405180910390f35b610111600480360381019061010c919061145e565b6105d5565b60405161011e9190611c10565b60405180910390f35b610141600480360381019061013c91906115fa565b610a48565b6040516101549796959493929190611c54565b60405180910390f35b610177600480360381019061017291906115fa565b610bff565b005b610193600480360381019061018e9190611627565b610c68565b005b6101af60048036038101906101aa91906115fa565b610d4d565b6040516101bc9190611cd1565b60405180910390f35b6060600260003373ffffffffffffffffffffffffffffffffffffffff1673ffffffffffffffffffffffffffffffffffffffff16815260200190815260200160002080548060200260200160405190810160405280929190818152602001828054801561025057602002820191906000526020600020905b81548152602001906001019080831161023c575b5050505050905090565b6040518061012001604052808b81526020018a815260200189898080601f016020809104026020016040519081016040528093929190818152602001838380828437600081840152601f19601f82011690508083019250505050505050815260200187878080601f016020809104026020016040519081016040528093929190818152602001838380828437600081840152601f19601f820116905080830192505050505050508152602001856fffffffffffffffffffffffffffffffff168152602001846fffffffffffffffffffffffffffffffff1681526020018363ffffffff1681526020018263ffffffff1681526020016001151581525060016000805481526020019081526020016000206000820151816000019080519060200190610385929190611080565b5060208201518160010190805190602001906103a292919061110a565b5060408201518160020190805190602001906103bf929190611157565b5060608201518160030190805190602001906103dc929190611157565b5060808201518160040160006101000a8154816fffffffffffffffffffffffffffffffff02191690836fffffffffffffffffffffffffffffffff16021790555060a08201518160040160106101000a8154816fffffffffffffffffffffffffffffffff02191690836fffffffffffffffffffffffffffffffff16021790555060c08201518160050160006101000a81548163ffffffff021916908363ffffffff16021790555060e08201518160050160046101000a81548163ffffffff021916908363ffffffff1602179055506101008201518160050160086101000a81548160ff021916908315150217905550905050600260003373ffffffffffffffffffffffffffffffffffffffff1673ffffffffffffffffffffffffffffffffffffffff16815260200190815260200160002060005490806001815401808255809150506001900390600052602060002001600090919091909150556000547f0e20c89151faf0b5dda54ebc9d15340d8f36e022eaab7561945a997b339fc56e8b8b8b8b8b8b8b8b8b8b6040516105799a99989796959493929190611b72565b60405180910390a260008081548092919061059390611fed565b919050555050505050505050505050565b600260205281600052604060002081815481106105c057600080fd5b90600052602060002001600091509150505481565b60606000600260008473ffffffffffffffffffffffffffffffffffffffff1673ffffffffffffffffffffffffffffffffffffffff16815260200190815260200160002080548060200260200160405190810160405280929190818152602001828054801561066257602002820191906000526020600020905b81548152602001906001019080831161064e575b505050505090506000815167ffffffffffffffff811115610686576106856120c3565b5b6040519080825280602002602001820160405280156106bf57816020015b6106ac6111dd565b8152602001906001900390816106a45790505b50905060005b8251811015610a3d57600160008483815181106106e5576106e4612094565b5b60200260200101518152602001908152602001600020604051806101200160405290816000820180548060200260200160405190810160405280929190818152602001828054801561078c57602002820191906000526020600020905b8160009054906101000a900473ffffffffffffffffffffffffffffffffffffffff1673ffffffffffffffffffffffffffffffffffffffff1681526020019060010190808311610742575b50505050508152602001600182018054806020026020016040519081016040528092919081815260200182805480156107e457602002820191906000526020600020905b8154815260200190600101908083116107d0575b505050505081526020016002820180546107fd90611f8a565b80601f016020809104026020016040519081016040528092919081815260200182805461082990611f8a565b80156108765780601f1061084b57610100808354040283529160200191610876565b820191906000526020600020905b81548152906001019060200180831161085957829003601f168201915b5050505050815260200160038201805461088f90611f8a565b80601f01602080910402602001604051908101604052809291908181526020018280546108bb90611f8a565b80156109085780601f106108dd57610100808354040283529160200191610908565b820191906000526020600020905b8154815290600101906020018083116108eb57829003601f168201915b505050505081526020016004820160009054906101000a90046fffffffffffffffffffffffffffffffff166fffffffffffffffffffffffffffffffff166fffffffffffffffffffffffffffffffff1681526020016004820160109054906101000a90046fffffffffffffffffffffffffffffffff166fffffffffffffffffffffffffffffffff166fffffffffffffffffffffffffffffffff1681526020016005820160009054906101000a900463ffffffff1663ffffffff1663ffffffff1681526020016005820160049054906101000a900463ffffffff1663ffffffff1663ffffffff1681526020016005820160089054906101000a900460ff161515151581525050828281518110610a1f57610a1e612094565b5b60200260200101819052508080610a3590611fed565b9150506106c5565b508092505050919050565b6001602052806000526040600020600091509050806002018054610a6b90611f8a565b80601f0160208091040260200160405190810160405280929190818152602001828054610a9790611f8a565b8015610ae45780601f10610ab957610100808354040283529160200191610ae4565b820191906000526020600020905b815481529060010190602001808311610ac757829003601f168201915b505050505090806003018054610af990611f8a565b80601f0160208091040260200160405190810160405280929190818152602001828054610b2590611f8a565b8015610b725780601f10610b4757610100808354040283529160200191610b72565b820191906000526020600020905b815481529060010190602001808311610b5557829003601f168201915b5050505050908060040160009054906101000a90046fffffffffffffffffffffffffffffffff16908060040160109054906101000a90046fffffffffffffffffffffffffffffffff16908060050160009054906101000a900463ffffffff16908060050160049054906101000a900463ffffffff16908060050160089054906101000a900460ff16905087565b60006001600083815260200190815260200160002060050160086101000a81548160ff0219169083151502179055507fbe5aa4247333e0978e80edfd1266e28e6cba6ea134522f795973c7133bc4317481604051610c5d9190611d0e565b60405180910390a150565b806001600084815260200190815260200160002060040160008282829054906101000a90046fffffffffffffffffffffffffffffffff16610ca99190611ea0565b92506101000a8154816fffffffffffffffffffffffffffffffff02191690836fffffffffffffffffffffffffffffffff160217905550817f0cdf608777b7c369c17a854e339a0c861f903b381b92294555cd61b0c49f6cab6001600085815260200190815260200160002060040160009054906101000a90046fffffffffffffffffffffffffffffffff16604051610d419190611cf3565b60405180910390a25050565b610d556111dd565b600160008381526020019081526020016000206040518061012001604052908160008201805480602002602001604051908101604052809291908181526020018280548015610df957602002820191906000526020600020905b8160009054906101000a900473ffffffffffffffffffffffffffffffffffffffff1673ffffffffffffffffffffffffffffffffffffffff1681526020019060010190808311610daf575b5050505050815260200160018201805480602002602001604051908101604052809291908181526020018280548015610e5157602002820191906000526020600020905b815481526020019060010190808311610e3d575b50505050508152602001600282018054610e6a90611f8a565b80601f0160208091040260200160405190810160405280929190818152602001828054610e9690611f8a565b8015610ee35780601f10610eb857610100808354040283529160200191610ee3565b820191906000526020600020905b815481529060010190602001808311610ec657829003601f168201915b50505050508152602001600382018054610efc90611f8a565b80601f0160208091040260200160405190810160405280929190818152602001828054610f2890611f8a565b8015610f755780601f10610f4a57610100808354040283529160200191610f75565b820191906000526020600020905b815481529060010190602001808311610f5857829003601f168201915b505050505081526020016004820160009054906101000a90046fffffffffffffffffffffffffffffffff166fffffffffffffffffffffffffffffffff166fffffffffffffffffffffffffffffffff1681526020016004820160109054906101000a90046fffffffffffffffffffffffffffffffff166fffffffffffffffffffffffffffffffff166fffffffffffffffffffffffffffffffff1681526020016005820160009054906101000a900463ffffffff1663ffffffff1663ffffffff1681526020016005820160049054906101000a900463ffffffff1663ffffffff1663ffffffff1681526020016005820160089054906101000a900460ff1615151515815250509050919050565b8280548282559060005260206000209081019282156110f9579160200282015b828111156110f85782518260006101000a81548173ffffffffffffffffffffffffffffffffffffffff021916908373ffffffffffffffffffffffffffffffffffffffff160217905550916020019190600101906110a0565b5b509050611106919061125b565b5090565b828054828255906000526020600020908101928215611146579160200282015b8281111561114557825182559160200191906001019061112a565b5b509050611153919061125b565b5090565b82805461116390611f8a565b90600052602060002090601f01602090048101928261118557600085556111cc565b82601f1061119e57805160ff19168380011785556111cc565b828001600101855582156111cc579182015b828111156111cb5782518255916020019190600101906111b0565b5b5090506111d9919061125b565b5090565b6040518061012001604052806060815260200160608152602001606081526020016060815260200160006fffffffffffffffffffffffffffffffff16815260200160006fffffffffffffffffffffffffffffffff168152602001600063ffffffff168152602001600063ffffffff1681526020016000151581525090565b5b8082111561127457600081600090555060010161125c565b5090565b600061128b61128684611d4e565b611d29565b905080838252602082019050828560208602820111156112ae576112ad6120fc565b5b60005b858110156112de57816112c48882611358565b8452602084019350602083019250506001810190506112b1565b5050509392505050565b60006112fb6112f684611d7a565b611d29565b9050808382526020820190508285602086028201111561131e5761131d6120fc565b5b60005b8581101561134e57816113348882611434565b845260208401935060208301925050600181019050611321565b5050509392505050565b6000813590506113678161211c565b92915050565b600082601f830112611382576113816120f7565b5b8135611392848260208601611278565b91505092915050565b600082601f8301126113b0576113af6120f7565b5b81356113c08482602086016112e8565b91505092915050565b60008083601f8401126113df576113de6120f7565b5b8235905067ffffffffffffffff8111156113fc576113fb6120f2565b5b602083019150836001820283011115611418576114176120fc565b5b9250929050565b60008135905061142e81612133565b92915050565b6000813590506114438161214a565b92915050565b60008135905061145881612161565b92915050565b60006020828403121561147457611473612106565b5b600061148284828501611358565b91505092915050565b600080604083850312156114a2576114a1612106565b5b60006114b085828601611358565b92505060206114c185828601611434565b9150509250929050565b6000806000806000806000806000806101008b8d0312156114ef576114ee612106565b5b60008b013567ffffffffffffffff81111561150d5761150c612101565b5b6115198d828e0161136d565b9a505060208b013567ffffffffffffffff81111561153a57611539612101565b5b6115468d828e0161139b565b99505060408b013567ffffffffffffffff81111561156757611566612101565b5b6115738d828e016113c9565b985098505060608b013567ffffffffffffffff81111561159657611595612101565b5b6115a28d828e016113c9565b965096505060806115b58d828e0161141f565b94505060a06115c68d828e0161141f565b93505060c06115d78d828e01611449565b92505060e06115e88d828e01611449565b9150509295989b9194979a5092959850565b6000602082840312156116105761160f612106565b5b600061161e84828501611434565b91505092915050565b6000806040838503121561163e5761163d612106565b5b600061164c85828601611434565b925050602061165d8582860161141f565b9150509250929050565b600061167383836116ab565b60208301905092915050565b600061168b8383611964565b905092915050565b600061169f8383611b36565b60208301905092915050565b6116b481611ed4565b82525050565b60006116c582611dd6565b6116cf8185611e29565b93506116da83611da6565b8060005b8381101561170b5781516116f28882611667565b97506116fd83611e02565b9250506001810190506116de565b5085935050505092915050565b600061172382611dd6565b61172d8185611e3a565b935061173883611da6565b8060005b838110156117695781516117508882611667565b975061175b83611e02565b92505060018101905061173c565b5085935050505092915050565b600061178182611de1565b61178b8185611e4b565b93508360208202850161179d85611db6565b8060005b858110156117d957848403895281516117ba858261167f565b94506117c583611e0f565b925060208a019950506001810190506117a1565b50829750879550505050505092915050565b60006117f682611dec565b6118008185611e5c565b935061180b83611dc6565b8060005b8381101561183c5781516118238882611693565b975061182e83611e1c565b92505060018101905061180f565b5085935050505092915050565b600061185482611dec565b61185e8185611e6d565b935061186983611dc6565b8060005b8381101561189a5781516118818882611693565b975061188c83611e1c565b92505060018101905061186d565b5085935050505092915050565b6118b081611ee6565b82525050565b6118bf81611ee6565b82525050565b60006118d18385611e8f565b93506118de838584611f48565b6118e78361210b565b840190509392505050565b60006118fd82611df7565b6119078185611e7e565b9350611917818560208601611f57565b6119208161210b565b840191505092915050565b600061193682611df7565b6119408185611e8f565b9350611950818560208601611f57565b6119598161210b565b840191505092915050565b600061012083016000830151848203600086015261198282826116ba565b9150506020830151848203602086015261199c82826117eb565b915050604083015184820360408601526119b682826118f2565b915050606083015184820360608601526119d082826118f2565b91505060808301516119e56080860182611b18565b5060a08301516119f860a0860182611b18565b5060c0830151611a0b60c0860182611b54565b5060e0830151611a1e60e0860182611b54565b50610100830151611a336101008601826118a7565b508091505092915050565b6000610120830160008301518482036000860152611a5c82826116ba565b91505060208301518482036020860152611a7682826117eb565b91505060408301518482036040860152611a9082826118f2565b91505060608301518482036060860152611aaa82826118f2565b9150506080830151611abf6080860182611b18565b5060a0830151611ad260a0860182611b18565b5060c0830151611ae560c0860182611b54565b5060e0830151611af860e0860182611b54565b50610100830151611b0d6101008601826118a7565b508091505092915050565b611b2181611ef2565b82525050565b611b3081611ef2565b82525050565b611b3f81611f2e565b82525050565b611b4e81611f2e565b82525050565b611b5d81611f38565b82525050565b611b6c81611f38565b82525050565b6000610100820190508181036000830152611b8d818d611718565b90508181036020830152611ba1818c611849565b90508181036040830152611bb6818a8c6118c5565b90508181036060830152611bcb81888a6118c5565b9050611bda6080830187611b27565b611be760a0830186611b27565b611bf460c0830185611b63565b611c0160e0830184611b63565b9b9a5050505050505050505050565b60006020820190508181036000830152611c2a8184611776565b905092915050565b60006020820190508181036000830152611c4c8184611849565b905092915050565b600060e0820190508181036000830152611c6e818a61192b565b90508181036020830152611c82818961192b565b9050611c916040830188611b27565b611c9e6060830187611b27565b611cab6080830186611b63565b611cb860a0830185611b63565b611cc560c08301846118b6565b98975050505050505050565b60006020820190508181036000830152611ceb8184611a3e565b905092915050565b6000602082019050611d086000830184611b27565b92915050565b6000602082019050611d236000830184611b45565b92915050565b6000611d33611d44565b9050611d3f8282611fbc565b919050565b6000604051905090565b600067ffffffffffffffff821115611d6957611d686120c3565b5b602082029050602081019050919050565b600067ffffffffffffffff821115611d9557611d946120c3565b5b602082029050602081019050919050565b6000819050602082019050919050565b6000819050602082019050919050565b6000819050602082019050919050565b600081519050919050565b600081519050919050565b600081519050919050565b600081519050919050565b6000602082019050919050565b6000602082019050919050565b6000602082019050919050565b600082825260208201905092915050565b600082825260208201905092915050565b600082825260208201905092915050565b600082825260208201905092915050565b600082825260208201905092915050565b600082825260208201905092915050565b600082825260208201905092915050565b6000611eab82611ef2565b9150611eb683611ef2565b925082821015611ec957611ec8612036565b5b828203905092915050565b6000611edf82611f0e565b9050919050565b60008115159050919050565b60006fffffffffffffffffffffffffffffffff82169050919050565b600073ffffffffffffffffffffffffffffffffffffffff82169050919050565b6000819050919050565b600063ffffffff82169050919050565b82818337600083830152505050565b60005b83811015611f75578082015181840152602081019050611f5a565b83811115611f84576000848401525b50505050565b60006002820490506001821680611fa257607f821691505b60208210811415611fb657611fb5612065565b5b50919050565b611fc58261210b565b810181811067ffffffffffffffff82111715611fe457611fe36120c3565b5b80604052505050565b6000611ff882611f2e565b91507fffffffffffffffffffffffffffffffffffffffffffffffffffffffffffffffff82141561202b5761202a612036565b5b600182019050919050565b7f4e487b7100000000000000000000000000000000000000000000000000000000600052601160045260246000fd5b7f4e487b7100000000000000000000000000000000000000000000000000000000600052602260045260246000fd5b7f4e487b7100000000000000000000000000000000000000000000000000000000600052603260045260246000fd5b7f4e487b7100000000000000000000000000000000000000000000000000000000600052604160045260246000fd5b600080fd5b600080fd5b600080fd5b600080fd5b600080fd5b6000601f19601f8301169050919050565b61212581611ed4565b811461213057600080fd5b50565b61213c81611ef2565b811461214757600080fd5b50565b61215381611f2e565b811461215e57600080fd5b50565b61216a81611f38565b811461217557600080fd5b5056fea2646970667358221220b291088cdaf6dcadc1d1420a1878ee6c42e03a4f4711f638770237e83ac749f364736f6c63430008070033",
					"opcodes": "PUSH1 0x80 PUSH1 0x40 MSTORE PUSH1 0x1 PUSH1 0x0 SSTORE CALLVALUE DUP1 ISZERO PUSH2 0x15 JUMPI PUSH1 0x0 DUP1 REVERT JUMPDEST POP PUSH2 0x21AE DUP1 PUSH2 0x25 PUSH1 0x0 CODECOPY PUSH1 0x0 RETURN INVALID PUSH1 0x80 PUSH1 0x40 MSTORE CALLVALUE DUP1 ISZERO PUSH2 0x10 JUMPI PUSH1 0x0 DUP1 REVERT JUMPDEST POP PUSH1 0x4 CALLDATASIZE LT PUSH2 0x88 JUMPI PUSH1 0x0 CALLDATALOAD PUSH1 0xE0 SHR DUP1 PUSH4 0x65603DF2 GT PUSH2 0x5B JUMPI DUP1 PUSH4 0x65603DF2 EQ PUSH2 0x127 JUMPI DUP1 PUSH4 0x9EA61C7E EQ PUSH2 0x15D JUMPI DUP1 PUSH4 0xD37889C6 EQ PUSH2 0x179 JUMPI DUP1 PUSH4 0xF6A989F8 EQ PUSH2 0x195 JUMPI PUSH2 0x88 JUMP JUMPDEST DUP1 PUSH4 0x24E5E6AA EQ PUSH2 0x8D JUMPI DUP1 PUSH4 0x448952E1 EQ PUSH2 0xAB JUMPI DUP1 PUSH4 0x580F469C EQ PUSH2 0xC7 JUMPI DUP1 PUSH4 0x60715971 EQ PUSH2 0xF7 JUMPI JUMPDEST PUSH1 0x0 DUP1 REVERT JUMPDEST PUSH2 0x95 PUSH2 0x1C5 JUMP JUMPDEST PUSH1 0x40 MLOAD PUSH2 0xA2 SWAP2 SWAP1 PUSH2 0x1C32 JUMP JUMPDEST PUSH1 0x40 MLOAD DUP1 SWAP2 SUB SWAP1 RETURN JUMPDEST PUSH2 0xC5 PUSH1 0x4 DUP1 CALLDATASIZE SUB DUP2 ADD SWAP1 PUSH2 0xC0 SWAP2 SWAP1 PUSH2 0x14CB JUMP JUMPDEST PUSH2 0x25A JUMP JUMPDEST STOP JUMPDEST PUSH2 0xE1 PUSH1 0x4 DUP1 CALLDATASIZE SUB DUP2 ADD SWAP1 PUSH2 0xDC SWAP2 SWAP1 PUSH2 0x148B JUMP JUMPDEST PUSH2 0x5A4 JUMP JUMPDEST PUSH1 0x40 MLOAD PUSH2 0xEE SWAP2 SWAP1 PUSH2 0x1D0E JUMP JUMPDEST PUSH1 0x40 MLOAD DUP1 SWAP2 SUB SWAP1 RETURN JUMPDEST PUSH2 0x111 PUSH1 0x4 DUP1 CALLDATASIZE SUB DUP2 ADD SWAP1 PUSH2 0x10C SWAP2 SWAP1 PUSH2 0x145E JUMP JUMPDEST PUSH2 0x5D5 JUMP JUMPDEST PUSH1 0x40 MLOAD PUSH2 0x11E SWAP2 SWAP1 PUSH2 0x1C10 JUMP JUMPDEST PUSH1 0x40 MLOAD DUP1 SWAP2 SUB SWAP1 RETURN JUMPDEST PUSH2 0x141 PUSH1 0x4 DUP1 CALLDATASIZE SUB DUP2 ADD SWAP1 PUSH2 0x13C SWAP2 SWAP1 PUSH2 0x15FA JUMP JUMPDEST PUSH2 0xA48 JUMP JUMPDEST PUSH1 0x40 MLOAD PUSH2 0x154 SWAP8 SWAP7 SWAP6 SWAP5 SWAP4 SWAP3 SWAP2 SWAP1 PUSH2 0x1C54 JUMP JUMPDEST PUSH1 0x40 MLOAD DUP1 SWAP2 SUB SWAP1 RETURN JUMPDEST PUSH2 0x177 PUSH1 0x4 DUP1 CALLDATASIZE SUB DUP2 ADD SWAP1 PUSH2 0x172 SWAP2 SWAP1 PUSH2 0x15FA JUMP JUMPDEST PUSH2 0xBFF JUMP JUMPDEST STOP JUMPDEST PUSH2 0x193 PUSH1 0x4 DUP1 CALLDATASIZE SUB DUP2 ADD SWAP1 PUSH2 0x18E SWAP2 SWAP1 PUSH2 0x1627 JUMP JUMPDEST PUSH2 0xC68 JUMP JUMPDEST STOP JUMPDEST PUSH2 0x1AF PUSH1 0x4 DUP1 CALLDATASIZE SUB DUP2 ADD SWAP1 PUSH2 0x1AA SWAP2 SWAP1 PUSH2 0x15FA JUMP JUMPDEST PUSH2 0xD4D JUMP JUMPDEST PUSH1 0x40 MLOAD PUSH2 0x1BC SWAP2 SWAP1 PUSH2 0x1CD1 JUMP JUMPDEST PUSH1 0x40 MLOAD DUP1 SWAP2 SUB SWAP1 RETURN JUMPDEST PUSH1 0x60 PUSH1 0x2 PUSH1 0x0 CALLER PUSH20 0xFFFFFFFFFFFFFFFFFFFFFFFFFFFFFFFFFFFFFFFF AND PUSH20 0xFFFFFFFFFFFFFFFFFFFFFFFFFFFFFFFFFFFFFFFF AND DUP2 MSTORE PUSH1 0x20 ADD SWAP1 DUP2 MSTORE PUSH1 0x20 ADD PUSH1 0x0 KECCAK256 DUP1 SLOAD DUP1 PUSH1 0x20 MUL PUSH1 0x20 ADD PUSH1 0x40 MLOAD SWAP1 DUP2 ADD PUSH1 0x40 MSTORE DUP1 SWAP3 SWAP2 SWAP1 DUP2 DUP2 MSTORE PUSH1 0x20 ADD DUP3 DUP1 SLOAD DUP1 ISZERO PUSH2 0x250 JUMPI PUSH1 0x20 MUL DUP3 ADD SWAP2 SWAP1 PUSH1 0x0 MSTORE PUSH1 0x20 PUSH1 0x0 KECCAK256 SWAP1 JUMPDEST DUP2 SLOAD DUP2 MSTORE PUSH1 0x20 ADD SWAP1 PUSH1 0x1 ADD SWAP1 DUP1 DUP4 GT PUSH2 0x23C JUMPI JUMPDEST POP POP POP POP POP SWAP1 POP SWAP1 JUMP JUMPDEST PUSH1 0x40 MLOAD DUP1 PUSH2 0x120 ADD PUSH1 0x40 MSTORE DUP1 DUP12 DUP2 MSTORE PUSH1 0x20 ADD DUP11 DUP2 MSTORE PUSH1 0x20 ADD DUP10 DUP10 DUP1 DUP1 PUSH1 0x1F ADD PUSH1 0x20 DUP1 SWAP2 DIV MUL PUSH1 0x20 ADD PUSH1 0x40 MLOAD SWAP1 DUP2 ADD PUSH1 0x40 MSTORE DUP1 SWAP4 SWAP3 SWAP2 SWAP1 DUP2 DUP2 MSTORE PUSH1 0x20 ADD DUP4 DUP4 DUP1 DUP3 DUP5 CALLDATACOPY PUSH1 0x0 DUP2 DUP5 ADD MSTORE PUSH1 0x1F NOT PUSH1 0x1F DUP3 ADD AND SWAP1 POP DUP1 DUP4 ADD SWAP3 POP POP POP POP POP POP POP DUP2 MSTORE PUSH1 0x20 ADD DUP8 DUP8 DUP1 DUP1 PUSH1 0x1F ADD PUSH1 0x20 DUP1 SWAP2 DIV MUL PUSH1 0x20 ADD PUSH1 0x40 MLOAD SWAP1 DUP2 ADD PUSH1 0x40 MSTORE DUP1 SWAP4 SWAP3 SWAP2 SWAP1 DUP2 DUP2 MSTORE PUSH1 0x20 ADD DUP4 DUP4 DUP1 DUP3 DUP5 CALLDATACOPY PUSH1 0x0 DUP2 DUP5 ADD MSTORE PUSH1 0x1F NOT PUSH1 0x1F DUP3 ADD AND SWAP1 POP DUP1 DUP4 ADD SWAP3 POP POP POP POP POP POP POP DUP2 MSTORE PUSH1 0x20 ADD DUP6 PUSH16 0xFFFFFFFFFFFFFFFFFFFFFFFFFFFFFFFF AND DUP2 MSTORE PUSH1 0x20 ADD DUP5 PUSH16 0xFFFFFFFFFFFFFFFFFFFFFFFFFFFFFFFF AND DUP2 MSTORE PUSH1 0x20 ADD DUP4 PUSH4 0xFFFFFFFF AND DUP2 MSTORE PUSH1 0x20 ADD DUP3 PUSH4 0xFFFFFFFF AND DUP2 MSTORE PUSH1 0x20 ADD PUSH1 0x1 ISZERO ISZERO DUP2 MSTORE POP PUSH1 0x1 PUSH1 0x0 DUP1 SLOAD DUP2 MSTORE PUSH1 0x20 ADD SWAP1 DUP2 MSTORE PUSH1 0x20 ADD PUSH1 0x0 KECCAK256 PUSH1 0x0 DUP3 ADD MLOAD DUP2 PUSH1 0x0 ADD SWAP1 DUP1 MLOAD SWAP1 PUSH1 0x20 ADD SWAP1 PUSH2 0x385 SWAP3 SWAP2 SWAP1 PUSH2 0x1080 JUMP JUMPDEST POP PUSH1 0x20 DUP3 ADD MLOAD DUP2 PUSH1 0x1 ADD SWAP1 DUP1 MLOAD SWAP1 PUSH1 0x20 ADD SWAP1 PUSH2 0x3A2 SWAP3 SWAP2 SWAP1 PUSH2 0x110A JUMP JUMPDEST POP PUSH1 0x40 DUP3 ADD MLOAD DUP2 PUSH1 0x2 ADD SWAP1 DUP1 MLOAD SWAP1 PUSH1 0x20 ADD SWAP1 PUSH2 0x3BF SWAP3 SWAP2 SWAP1 PUSH2 0x1157 JUMP JUMPDEST POP PUSH1 0x60 DUP3 ADD MLOAD DUP2 PUSH1 0x3 ADD SWAP1 DUP1 MLOAD SWAP1 PUSH1 0x20 ADD SWAP1 PUSH2 0x3DC SWAP3 SWAP2 SWAP1 PUSH2 0x1157 JUMP JUMPDEST POP PUSH1 0x80 DUP3 ADD MLOAD DUP2 PUSH1 0x4 ADD PUSH1 0x0 PUSH2 0x100 EXP DUP2 SLOAD DUP2 PUSH16 0xFFFFFFFFFFFFFFFFFFFFFFFFFFFFFFFF MUL NOT AND SWAP1 DUP4 PUSH16 0xFFFFFFFFFFFFFFFFFFFFFFFFFFFFFFFF AND MUL OR SWAP1 SSTORE POP PUSH1 0xA0 DUP3 ADD MLOAD DUP2 PUSH1 0x4 ADD PUSH1 0x10 PUSH2 0x100 EXP DUP2 SLOAD DUP2 PUSH16 0xFFFFFFFFFFFFFFFFFFFFFFFFFFFFFFFF MUL NOT AND SWAP1 DUP4 PUSH16 0xFFFFFFFFFFFFFFFFFFFFFFFFFFFFFFFF AND MUL OR SWAP1 SSTORE POP PUSH1 0xC0 DUP3 ADD MLOAD DUP2 PUSH1 0x5 ADD PUSH1 0x0 PUSH2 0x100 EXP DUP2 SLOAD DUP2 PUSH4 0xFFFFFFFF MUL NOT AND SWAP1 DUP4 PUSH4 0xFFFFFFFF AND MUL OR SWAP1 SSTORE POP PUSH1 0xE0 DUP3 ADD MLOAD DUP2 PUSH1 0x5 ADD PUSH1 0x4 PUSH2 0x100 EXP DUP2 SLOAD DUP2 PUSH4 0xFFFFFFFF MUL NOT AND SWAP1 DUP4 PUSH4 0xFFFFFFFF AND MUL OR SWAP1 SSTORE POP PUSH2 0x100 DUP3 ADD MLOAD DUP2 PUSH1 0x5 ADD PUSH1 0x8 PUSH2 0x100 EXP DUP2 SLOAD DUP2 PUSH1 0xFF MUL NOT AND SWAP1 DUP4 ISZERO ISZERO MUL OR SWAP1 SSTORE POP SWAP1 POP POP PUSH1 0x2 PUSH1 0x0 CALLER PUSH20 0xFFFFFFFFFFFFFFFFFFFFFFFFFFFFFFFFFFFFFFFF AND PUSH20 0xFFFFFFFFFFFFFFFFFFFFFFFFFFFFFFFFFFFFFFFF AND DUP2 MSTORE PUSH1 0x20 ADD SWAP1 DUP2 MSTORE PUSH1 0x20 ADD PUSH1 0x0 KECCAK256 PUSH1 0x0 SLOAD SWAP1 DUP1 PUSH1 0x1 DUP2 SLOAD ADD DUP1 DUP3 SSTORE DUP1 SWAP2 POP POP PUSH1 0x1 SWAP1 SUB SWAP1 PUSH1 0x0 MSTORE PUSH1 0x20 PUSH1 0x0 KECCAK256 ADD PUSH1 0x0 SWAP1 SWAP2 SWAP1 SWAP2 SWAP1 SWAP2 POP SSTORE PUSH1 0x0 SLOAD PUSH32 0xE20C89151FAF0B5DDA54EBC9D15340D8F36E022EAAB7561945A997B339FC56E DUP12 DUP12 DUP12 DUP12 DUP12 DUP12 DUP12 DUP12 DUP12 DUP12 PUSH1 0x40 MLOAD PUSH2 0x579 SWAP11 SWAP10 SWAP9 SWAP8 SWAP7 SWAP6 SWAP5 SWAP4 SWAP3 SWAP2 SWAP1 PUSH2 0x1B72 JUMP JUMPDEST PUSH1 0x40 MLOAD DUP1 SWAP2 SUB SWAP1 LOG2 PUSH1 0x0 DUP1 DUP2 SLOAD DUP1 SWAP3 SWAP2 SWAP1 PUSH2 0x593 SWAP1 PUSH2 0x1FED JUMP JUMPDEST SWAP2 SWAP1 POP SSTORE POP POP POP POP POP POP POP POP POP POP POP JUMP JUMPDEST PUSH1 0x2 PUSH1 0x20 MSTORE DUP2 PUSH1 0x0 MSTORE PUSH1 0x40 PUSH1 0x0 KECCAK256 DUP2 DUP2 SLOAD DUP2 LT PUSH2 0x5C0 JUMPI PUSH1 0x0 DUP1 REVERT JUMPDEST SWAP1 PUSH1 0x0 MSTORE PUSH1 0x20 PUSH1 0x0 KECCAK256 ADD PUSH1 0x0 SWAP2 POP SWAP2 POP POP SLOAD DUP2 JUMP JUMPDEST PUSH1 0x60 PUSH1 0x0 PUSH1 0x2 PUSH1 0x0 DUP5 PUSH20 0xFFFFFFFFFFFFFFFFFFFFFFFFFFFFFFFFFFFFFFFF AND PUSH20 0xFFFFFFFFFFFFFFFFFFFFFFFFFFFFFFFFFFFFFFFF AND DUP2 MSTORE PUSH1 0x20 ADD SWAP1 DUP2 MSTORE PUSH1 0x20 ADD PUSH1 0x0 KECCAK256 DUP1 SLOAD DUP1 PUSH1 0x20 MUL PUSH1 0x20 ADD PUSH1 0x40 MLOAD SWAP1 DUP2 ADD PUSH1 0x40 MSTORE DUP1 SWAP3 SWAP2 SWAP1 DUP2 DUP2 MSTORE PUSH1 0x20 ADD DUP3 DUP1 SLOAD DUP1 ISZERO PUSH2 0x662 JUMPI PUSH1 0x20 MUL DUP3 ADD SWAP2 SWAP1 PUSH1 0x0 MSTORE PUSH1 0x20 PUSH1 0x0 KECCAK256 SWAP1 JUMPDEST DUP2 SLOAD DUP2 MSTORE PUSH1 0x20 ADD SWAP1 PUSH1 0x1 ADD SWAP1 DUP1 DUP4 GT PUSH2 0x64E JUMPI JUMPDEST POP POP POP POP POP SWAP1 POP PUSH1 0x0 DUP2 MLOAD PUSH8 0xFFFFFFFFFFFFFFFF DUP2 GT ISZERO PUSH2 0x686 JUMPI PUSH2 0x685 PUSH2 0x20C3 JUMP JUMPDEST JUMPDEST PUSH1 0x40 MLOAD SWAP1 DUP1 DUP3 MSTORE DUP1 PUSH1 0x20 MUL PUSH1 0x20 ADD DUP3 ADD PUSH1 0x40 MSTORE DUP1 ISZERO PUSH2 0x6BF JUMPI DUP2 PUSH1 0x20 ADD JUMPDEST PUSH2 0x6AC PUSH2 0x11DD JUMP JUMPDEST DUP2 MSTORE PUSH1 0x20 ADD SWAP1 PUSH1 0x1 SWAP1 SUB SWAP1 DUP2 PUSH2 0x6A4 JUMPI SWAP1 POP JUMPDEST POP SWAP1 POP PUSH1 0x0 JUMPDEST DUP3 MLOAD DUP2 LT ISZERO PUSH2 0xA3D JUMPI PUSH1 0x1 PUSH1 0x0 DUP5 DUP4 DUP2 MLOAD DUP2 LT PUSH2 0x6E5 JUMPI PUSH2 0x6E4 PUSH2 0x2094 JUMP JUMPDEST JUMPDEST PUSH1 0x20 MUL PUSH1 0x20 ADD ADD MLOAD DUP2 MSTORE PUSH1 0x20 ADD SWAP1 DUP2 MSTORE PUSH1 0x20 ADD PUSH1 0x0 KECCAK256 PUSH1 0x40 MLOAD DUP1 PUSH2 0x120 ADD PUSH1 0x40 MSTORE SWAP1 DUP2 PUSH1 0x0 DUP3 ADD DUP1 SLOAD DUP1 PUSH1 0x20 MUL PUSH1 0x20 ADD PUSH1 0x40 MLOAD SWAP1 DUP2 ADD PUSH1 0x40 MSTORE DUP1 SWAP3 SWAP2 SWAP1 DUP2 DUP2 MSTORE PUSH1 0x20 ADD DUP3 DUP1 SLOAD DUP1 ISZERO PUSH2 0x78C JUMPI PUSH1 0x20 MUL DUP3 ADD SWAP2 SWAP1 PUSH1 0x0 MSTORE PUSH1 0x20 PUSH1 0x0 KECCAK256 SWAP1 JUMPDEST DUP2 PUSH1 0x0 SWAP1 SLOAD SWAP1 PUSH2 0x100 EXP SWAP1 DIV PUSH20 0xFFFFFFFFFFFFFFFFFFFFFFFFFFFFFFFFFFFFFFFF AND PUSH20 0xFFFFFFFFFFFFFFFFFFFFFFFFFFFFFFFFFFFFFFFF AND DUP2 MSTORE PUSH1 0x20 ADD SWAP1 PUSH1 0x1 ADD SWAP1 DUP1 DUP4 GT PUSH2 0x742 JUMPI JUMPDEST POP POP POP POP POP DUP2 MSTORE PUSH1 0x20 ADD PUSH1 0x1 DUP3 ADD DUP1 SLOAD DUP1 PUSH1 0x20 MUL PUSH1 0x20 ADD PUSH1 0x40 MLOAD SWAP1 DUP2 ADD PUSH1 0x40 MSTORE DUP1 SWAP3 SWAP2 SWAP1 DUP2 DUP2 MSTORE PUSH1 0x20 ADD DUP3 DUP1 SLOAD DUP1 ISZERO PUSH2 0x7E4 JUMPI PUSH1 0x20 MUL DUP3 ADD SWAP2 SWAP1 PUSH1 0x0 MSTORE PUSH1 0x20 PUSH1 0x0 KECCAK256 SWAP1 JUMPDEST DUP2 SLOAD DUP2 MSTORE PUSH1 0x20 ADD SWAP1 PUSH1 0x1 ADD SWAP1 DUP1 DUP4 GT PUSH2 0x7D0 JUMPI JUMPDEST POP POP POP POP POP DUP2 MSTORE PUSH1 0x20 ADD PUSH1 0x2 DUP3 ADD DUP1 SLOAD PUSH2 0x7FD SWAP1 PUSH2 0x1F8A JUMP JUMPDEST DUP1 PUSH1 0x1F ADD PUSH1 0x20 DUP1 SWAP2 DIV MUL PUSH1 0x20 ADD PUSH1 0x40 MLOAD SWAP1 DUP2 ADD PUSH1 0x40 MSTORE DUP1 SWAP3 SWAP2 SWAP1 DUP2 DUP2 MSTORE PUSH1 0x20 ADD DUP3 DUP1 SLOAD PUSH2 0x829 SWAP1 PUSH2 0x1F8A JUMP JUMPDEST DUP1 ISZERO PUSH2 0x876 JUMPI DUP1 PUSH1 0x1F LT PUSH2 0x84B JUMPI PUSH2 0x100 DUP1 DUP4 SLOAD DIV MUL DUP4 MSTORE SWAP2 PUSH1 0x20 ADD SWAP2 PUSH2 0x876 JUMP JUMPDEST DUP3 ADD SWAP2 SWAP1 PUSH1 0x0 MSTORE PUSH1 0x20 PUSH1 0x0 KECCAK256 SWAP1 JUMPDEST DUP2 SLOAD DUP2 MSTORE SWAP1 PUSH1 0x1 ADD SWAP1 PUSH1 0x20 ADD DUP1 DUP4 GT PUSH2 0x859 JUMPI DUP3 SWAP1 SUB PUSH1 0x1F AND DUP3 ADD SWAP2 JUMPDEST POP POP POP POP POP DUP2 MSTORE PUSH1 0x20 ADD PUSH1 0x3 DUP3 ADD DUP1 SLOAD PUSH2 0x88F SWAP1 PUSH2 0x1F8A JUMP JUMPDEST DUP1 PUSH1 0x1F ADD PUSH1 0x20 DUP1 SWAP2 DIV MUL PUSH1 0x20 ADD PUSH1 0x40 MLOAD SWAP1 DUP2 ADD PUSH1 0x40 MSTORE DUP1 SWAP3 SWAP2 SWAP1 DUP2 DUP2 MSTORE PUSH1 0x20 ADD DUP3 DUP1 SLOAD PUSH2 0x8BB SWAP1 PUSH2 0x1F8A JUMP JUMPDEST DUP1 ISZERO PUSH2 0x908 JUMPI DUP1 PUSH1 0x1F LT PUSH2 0x8DD JUMPI PUSH2 0x100 DUP1 DUP4 SLOAD DIV MUL DUP4 MSTORE SWAP2 PUSH1 0x20 ADD SWAP2 PUSH2 0x908 JUMP JUMPDEST DUP3 ADD SWAP2 SWAP1 PUSH1 0x0 MSTORE PUSH1 0x20 PUSH1 0x0 KECCAK256 SWAP1 JUMPDEST DUP2 SLOAD DUP2 MSTORE SWAP1 PUSH1 0x1 ADD SWAP1 PUSH1 0x20 ADD DUP1 DUP4 GT PUSH2 0x8EB JUMPI DUP3 SWAP1 SUB PUSH1 0x1F AND DUP3 ADD SWAP2 JUMPDEST POP POP POP POP POP DUP2 MSTORE PUSH1 0x20 ADD PUSH1 0x4 DUP3 ADD PUSH1 0x0 SWAP1 SLOAD SWAP1 PUSH2 0x100 EXP SWAP1 DIV PUSH16 0xFFFFFFFFFFFFFFFFFFFFFFFFFFFFFFFF AND PUSH16 0xFFFFFFFFFFFFFFFFFFFFFFFFFFFFFFFF AND PUSH16 0xFFFFFFFFFFFFFFFFFFFFFFFFFFFFFFFF AND DUP2 MSTORE PUSH1 0x20 ADD PUSH1 0x4 DUP3 ADD PUSH1 0x10 SWAP1 SLOAD SWAP1 PUSH2 0x100 EXP SWAP1 DIV PUSH16 0xFFFFFFFFFFFFFFFFFFFFFFFFFFFFFFFF AND PUSH16 0xFFFFFFFFFFFFFFFFFFFFFFFFFFFFFFFF AND PUSH16 0xFFFFFFFFFFFFFFFFFFFFFFFFFFFFFFFF AND DUP2 MSTORE PUSH1 0x20 ADD PUSH1 0x5 DUP3 ADD PUSH1 0x0 SWAP1 SLOAD SWAP1 PUSH2 0x100 EXP SWAP1 DIV PUSH4 0xFFFFFFFF AND PUSH4 0xFFFFFFFF AND PUSH4 0xFFFFFFFF AND DUP2 MSTORE PUSH1 0x20 ADD PUSH1 0x5 DUP3 ADD PUSH1 0x4 SWAP1 SLOAD SWAP1 PUSH2 0x100 EXP SWAP1 DIV PUSH4 0xFFFFFFFF AND PUSH4 0xFFFFFFFF AND PUSH4 0xFFFFFFFF AND DUP2 MSTORE PUSH1 0x20 ADD PUSH1 0x5 DUP3 ADD PUSH1 0x8 SWAP1 SLOAD SWAP1 PUSH2 0x100 EXP SWAP1 DIV PUSH1 0xFF AND ISZERO ISZERO ISZERO ISZERO DUP2 MSTORE POP POP DUP3 DUP3 DUP2 MLOAD DUP2 LT PUSH2 0xA1F JUMPI PUSH2 0xA1E PUSH2 0x2094 JUMP JUMPDEST JUMPDEST PUSH1 0x20 MUL PUSH1 0x20 ADD ADD DUP2 SWAP1 MSTORE POP DUP1 DUP1 PUSH2 0xA35 SWAP1 PUSH2 0x1FED JUMP JUMPDEST SWAP2 POP POP PUSH2 0x6C5 JUMP JUMPDEST POP DUP1 SWAP3 POP POP POP SWAP2 SWAP1 POP JUMP JUMPDEST PUSH1 0x1 PUSH1 0x20 MSTORE DUP1 PUSH1 0x0 MSTORE PUSH1 0x40 PUSH1 0x0 KECCAK256 PUSH1 0x0 SWAP2 POP SWAP1 POP DUP1 PUSH1 0x2 ADD DUP1 SLOAD PUSH2 0xA6B SWAP1 PUSH2 0x1F8A JUMP JUMPDEST DUP1 PUSH1 0x1F ADD PUSH1 0x20 DUP1 SWAP2 DIV MUL PUSH1 0x20 ADD PUSH1 0x40 MLOAD SWAP1 DUP2 ADD PUSH1 0x40 MSTORE DUP1 SWAP3 SWAP2 SWAP1 DUP2 DUP2 MSTORE PUSH1 0x20 ADD DUP3 DUP1 SLOAD PUSH2 0xA97 SWAP1 PUSH2 0x1F8A JUMP JUMPDEST DUP1 ISZERO PUSH2 0xAE4 JUMPI DUP1 PUSH1 0x1F LT PUSH2 0xAB9 JUMPI PUSH2 0x100 DUP1 DUP4 SLOAD DIV MUL DUP4 MSTORE SWAP2 PUSH1 0x20 ADD SWAP2 PUSH2 0xAE4 JUMP JUMPDEST DUP3 ADD SWAP2 SWAP1 PUSH1 0x0 MSTORE PUSH1 0x20 PUSH1 0x0 KECCAK256 SWAP1 JUMPDEST DUP2 SLOAD DUP2 MSTORE SWAP1 PUSH1 0x1 ADD SWAP1 PUSH1 0x20 ADD DUP1 DUP4 GT PUSH2 0xAC7 JUMPI DUP3 SWAP1 SUB PUSH1 0x1F AND DUP3 ADD SWAP2 JUMPDEST POP POP POP POP POP SWAP1 DUP1 PUSH1 0x3 ADD DUP1 SLOAD PUSH2 0xAF9 SWAP1 PUSH2 0x1F8A JUMP JUMPDEST DUP1 PUSH1 0x1F ADD PUSH1 0x20 DUP1 SWAP2 DIV MUL PUSH1 0x20 ADD PUSH1 0x40 MLOAD SWAP1 DUP2 ADD PUSH1 0x40 MSTORE DUP1 SWAP3 SWAP2 SWAP1 DUP2 DUP2 MSTORE PUSH1 0x20 ADD DUP3 DUP1 SLOAD PUSH2 0xB25 SWAP1 PUSH2 0x1F8A JUMP JUMPDEST DUP1 ISZERO PUSH2 0xB72 JUMPI DUP1 PUSH1 0x1F LT PUSH2 0xB47 JUMPI PUSH2 0x100 DUP1 DUP4 SLOAD DIV MUL DUP4 MSTORE SWAP2 PUSH1 0x20 ADD SWAP2 PUSH2 0xB72 JUMP JUMPDEST DUP3 ADD SWAP2 SWAP1 PUSH1 0x0 MSTORE PUSH1 0x20 PUSH1 0x0 KECCAK256 SWAP1 JUMPDEST DUP2 SLOAD DUP2 MSTORE SWAP1 PUSH1 0x1 ADD SWAP1 PUSH1 0x20 ADD DUP1 DUP4 GT PUSH2 0xB55 JUMPI DUP3 SWAP1 SUB PUSH1 0x1F AND DUP3 ADD SWAP2 JUMPDEST POP POP POP POP POP SWAP1 DUP1 PUSH1 0x4 ADD PUSH1 0x0 SWAP1 SLOAD SWAP1 PUSH2 0x100 EXP SWAP1 DIV PUSH16 0xFFFFFFFFFFFFFFFFFFFFFFFFFFFFFFFF AND SWAP1 DUP1 PUSH1 0x4 ADD PUSH1 0x10 SWAP1 SLOAD SWAP1 PUSH2 0x100 EXP SWAP1 DIV PUSH16 0xFFFFFFFFFFFFFFFFFFFFFFFFFFFFFFFF AND SWAP1 DUP1 PUSH1 0x5 ADD PUSH1 0x0 SWAP1 SLOAD SWAP1 PUSH2 0x100 EXP SWAP1 DIV PUSH4 0xFFFFFFFF AND SWAP1 DUP1 PUSH1 0x5 ADD PUSH1 0x4 SWAP1 SLOAD SWAP1 PUSH2 0x100 EXP SWAP1 DIV PUSH4 0xFFFFFFFF AND SWAP1 DUP1 PUSH1 0x5 ADD PUSH1 0x8 SWAP1 SLOAD SWAP1 PUSH2 0x100 EXP SWAP1 DIV PUSH1 0xFF AND SWAP1 POP DUP8 JUMP JUMPDEST PUSH1 0x0 PUSH1 0x1 PUSH1 0x0 DUP4 DUP2 MSTORE PUSH1 0x20 ADD SWAP1 DUP2 MSTORE PUSH1 0x20 ADD PUSH1 0x0 KECCAK256 PUSH1 0x5 ADD PUSH1 0x8 PUSH2 0x100 EXP DUP2 SLOAD DUP2 PUSH1 0xFF MUL NOT AND SWAP1 DUP4 ISZERO ISZERO MUL OR SWAP1 SSTORE POP PUSH32 0xBE5AA4247333E0978E80EDFD1266E28E6CBA6EA134522F795973C7133BC43174 DUP2 PUSH1 0x40 MLOAD PUSH2 0xC5D SWAP2 SWAP1 PUSH2 0x1D0E JUMP JUMPDEST PUSH1 0x40 MLOAD DUP1 SWAP2 SUB SWAP1 LOG1 POP JUMP JUMPDEST DUP1 PUSH1 0x1 PUSH1 0x0 DUP5 DUP2 MSTORE PUSH1 0x20 ADD SWAP1 DUP2 MSTORE PUSH1 0x20 ADD PUSH1 0x0 KECCAK256 PUSH1 0x4 ADD PUSH1 0x0 DUP3 DUP3 DUP3 SWAP1 SLOAD SWAP1 PUSH2 0x100 EXP SWAP1 DIV PUSH16 0xFFFFFFFFFFFFFFFFFFFFFFFFFFFFFFFF AND PUSH2 0xCA9 SWAP2 SWAP1 PUSH2 0x1EA0 JUMP JUMPDEST SWAP3 POP PUSH2 0x100 EXP DUP2 SLOAD DUP2 PUSH16 0xFFFFFFFFFFFFFFFFFFFFFFFFFFFFFFFF MUL NOT AND SWAP1 DUP4 PUSH16 0xFFFFFFFFFFFFFFFFFFFFFFFFFFFFFFFF AND MUL OR SWAP1 SSTORE POP DUP2 PUSH32 0xCDF608777B7C369C17A854E339A0C861F903B381B92294555CD61B0C49F6CAB PUSH1 0x1 PUSH1 0x0 DUP6 DUP2 MSTORE PUSH1 0x20 ADD SWAP1 DUP2 MSTORE PUSH1 0x20 ADD PUSH1 0x0 KECCAK256 PUSH1 0x4 ADD PUSH1 0x0 SWAP1 SLOAD SWAP1 PUSH2 0x100 EXP SWAP1 DIV PUSH16 0xFFFFFFFFFFFFFFFFFFFFFFFFFFFFFFFF AND PUSH1 0x40 MLOAD PUSH2 0xD41 SWAP2 SWAP1 PUSH2 0x1CF3 JUMP JUMPDEST PUSH1 0x40 MLOAD DUP1 SWAP2 SUB SWAP1 LOG2 POP POP JUMP JUMPDEST PUSH2 0xD55 PUSH2 0x11DD JUMP JUMPDEST PUSH1 0x1 PUSH1 0x0 DUP4 DUP2 MSTORE PUSH1 0x20 ADD SWAP1 DUP2 MSTORE PUSH1 0x20 ADD PUSH1 0x0 KECCAK256 PUSH1 0x40 MLOAD DUP1 PUSH2 0x120 ADD PUSH1 0x40 MSTORE SWAP1 DUP2 PUSH1 0x0 DUP3 ADD DUP1 SLOAD DUP1 PUSH1 0x20 MUL PUSH1 0x20 ADD PUSH1 0x40 MLOAD SWAP1 DUP2 ADD PUSH1 0x40 MSTORE DUP1 SWAP3 SWAP2 SWAP1 DUP2 DUP2 MSTORE PUSH1 0x20 ADD DUP3 DUP1 SLOAD DUP1 ISZERO PUSH2 0xDF9 JUMPI PUSH1 0x20 MUL DUP3 ADD SWAP2 SWAP1 PUSH1 0x0 MSTORE PUSH1 0x20 PUSH1 0x0 KECCAK256 SWAP1 JUMPDEST DUP2 PUSH1 0x0 SWAP1 SLOAD SWAP1 PUSH2 0x100 EXP SWAP1 DIV PUSH20 0xFFFFFFFFFFFFFFFFFFFFFFFFFFFFFFFFFFFFFFFF AND PUSH20 0xFFFFFFFFFFFFFFFFFFFFFFFFFFFFFFFFFFFFFFFF AND DUP2 MSTORE PUSH1 0x20 ADD SWAP1 PUSH1 0x1 ADD SWAP1 DUP1 DUP4 GT PUSH2 0xDAF JUMPI JUMPDEST POP POP POP POP POP DUP2 MSTORE PUSH1 0x20 ADD PUSH1 0x1 DUP3 ADD DUP1 SLOAD DUP1 PUSH1 0x20 MUL PUSH1 0x20 ADD PUSH1 0x40 MLOAD SWAP1 DUP2 ADD PUSH1 0x40 MSTORE DUP1 SWAP3 SWAP2 SWAP1 DUP2 DUP2 MSTORE PUSH1 0x20 ADD DUP3 DUP1 SLOAD DUP1 ISZERO PUSH2 0xE51 JUMPI PUSH1 0x20 MUL DUP3 ADD SWAP2 SWAP1 PUSH1 0x0 MSTORE PUSH1 0x20 PUSH1 0x0 KECCAK256 SWAP1 JUMPDEST DUP2 SLOAD DUP2 MSTORE PUSH1 0x20 ADD SWAP1 PUSH1 0x1 ADD SWAP1 DUP1 DUP4 GT PUSH2 0xE3D JUMPI JUMPDEST POP POP POP POP POP DUP2 MSTORE PUSH1 0x20 ADD PUSH1 0x2 DUP3 ADD DUP1 SLOAD PUSH2 0xE6A SWAP1 PUSH2 0x1F8A JUMP JUMPDEST DUP1 PUSH1 0x1F ADD PUSH1 0x20 DUP1 SWAP2 DIV MUL PUSH1 0x20 ADD PUSH1 0x40 MLOAD SWAP1 DUP2 ADD PUSH1 0x40 MSTORE DUP1 SWAP3 SWAP2 SWAP1 DUP2 DUP2 MSTORE PUSH1 0x20 ADD DUP3 DUP1 SLOAD PUSH2 0xE96 SWAP1 PUSH2 0x1F8A JUMP JUMPDEST DUP1 ISZERO PUSH2 0xEE3 JUMPI DUP1 PUSH1 0x1F LT PUSH2 0xEB8 JUMPI PUSH2 0x100 DUP1 DUP4 SLOAD DIV MUL DUP4 MSTORE SWAP2 PUSH1 0x20 ADD SWAP2 PUSH2 0xEE3 JUMP JUMPDEST DUP3 ADD SWAP2 SWAP1 PUSH1 0x0 MSTORE PUSH1 0x20 PUSH1 0x0 KECCAK256 SWAP1 JUMPDEST DUP2 SLOAD DUP2 MSTORE SWAP1 PUSH1 0x1 ADD SWAP1 PUSH1 0x20 ADD DUP1 DUP4 GT PUSH2 0xEC6 JUMPI DUP3 SWAP1 SUB PUSH1 0x1F AND DUP3 ADD SWAP2 JUMPDEST POP POP POP POP POP DUP2 MSTORE PUSH1 0x20 ADD PUSH1 0x3 DUP3 ADD DUP1 SLOAD PUSH2 0xEFC SWAP1 PUSH2 0x1F8A JUMP JUMPDEST DUP1 PUSH1 0x1F ADD PUSH1 0x20 DUP1 SWAP2 DIV MUL PUSH1 0x20 ADD PUSH1 0x40 MLOAD SWAP1 DUP2 ADD PUSH1 0x40 MSTORE DUP1 SWAP3 SWAP2 SWAP1 DUP2 DUP2 MSTORE PUSH1 0x20 ADD DUP3 DUP1 SLOAD PUSH2 0xF28 SWAP1 PUSH2 0x1F8A JUMP JUMPDEST DUP1 ISZERO PUSH2 0xF75 JUMPI DUP1 PUSH1 0x1F LT PUSH2 0xF4A JUMPI PUSH2 0x100 DUP1 DUP4 SLOAD DIV MUL DUP4 MSTORE SWAP2 PUSH1 0x20 ADD SWAP2 PUSH2 0xF75 JUMP JUMPDEST DUP3 ADD SWAP2 SWAP1 PUSH1 0x0 MSTORE PUSH1 0x20 PUSH1 0x0 KECCAK256 SWAP1 JUMPDEST DUP2 SLOAD DUP2 MSTORE SWAP1 PUSH1 0x1 ADD SWAP1 PUSH1 0x20 ADD DUP1 DUP4 GT PUSH2 0xF58 JUMPI DUP3 SWAP1 SUB PUSH1 0x1F AND DUP3 ADD SWAP2 JUMPDEST POP POP POP POP POP DUP2 MSTORE PUSH1 0x20 ADD PUSH1 0x4 DUP3 ADD PUSH1 0x0 SWAP1 SLOAD SWAP1 PUSH2 0x100 EXP SWAP1 DIV PUSH16 0xFFFFFFFFFFFFFFFFFFFFFFFFFFFFFFFF AND PUSH16 0xFFFFFFFFFFFFFFFFFFFFFFFFFFFFFFFF AND PUSH16 0xFFFFFFFFFFFFFFFFFFFFFFFFFFFFFFFF AND DUP2 MSTORE PUSH1 0x20 ADD PUSH1 0x4 DUP3 ADD PUSH1 0x10 SWAP1 SLOAD SWAP1 PUSH2 0x100 EXP SWAP1 DIV PUSH16 0xFFFFFFFFFFFFFFFFFFFFFFFFFFFFFFFF AND PUSH16 0xFFFFFFFFFFFFFFFFFFFFFFFFFFFFFFFF AND PUSH16 0xFFFFFFFFFFFFFFFFFFFFFFFFFFFFFFFF AND DUP2 MSTORE PUSH1 0x20 ADD PUSH1 0x5 DUP3 ADD PUSH1 0x0 SWAP1 SLOAD SWAP1 PUSH2 0x100 EXP SWAP1 DIV PUSH4 0xFFFFFFFF AND PUSH4 0xFFFFFFFF AND PUSH4 0xFFFFFFFF AND DUP2 MSTORE PUSH1 0x20 ADD PUSH1 0x5 DUP3 ADD PUSH1 0x4 SWAP1 SLOAD SWAP1 PUSH2 0x100 EXP SWAP1 DIV PUSH4 0xFFFFFFFF AND PUSH4 0xFFFFFFFF AND PUSH4 0xFFFFFFFF AND DUP2 MSTORE PUSH1 0x20 ADD PUSH1 0x5 DUP3 ADD PUSH1 0x8 SWAP1 SLOAD SWAP1 PUSH2 0x100 EXP SWAP1 DIV PUSH1 0xFF AND ISZERO ISZERO ISZERO ISZERO DUP2 MSTORE POP POP SWAP1 POP SWAP2 SWAP1 POP JUMP JUMPDEST DUP3 DUP1 SLOAD DUP3 DUP3 SSTORE SWAP1 PUSH1 0x0 MSTORE PUSH1 0x20 PUSH1 0x0 KECCAK256 SWAP1 DUP2 ADD SWAP3 DUP3 ISZERO PUSH2 0x10F9 JUMPI SWAP2 PUSH1 0x20 MUL DUP3 ADD JUMPDEST DUP3 DUP2 GT ISZERO PUSH2 0x10F8 JUMPI DUP3 MLOAD DUP3 PUSH1 0x0 PUSH2 0x100 EXP DUP2 SLOAD DUP2 PUSH20 0xFFFFFFFFFFFFFFFFFFFFFFFFFFFFFFFFFFFFFFFF MUL NOT AND SWAP1 DUP4 PUSH20 0xFFFFFFFFFFFFFFFFFFFFFFFFFFFFFFFFFFFFFFFF AND MUL OR SWAP1 SSTORE POP SWAP2 PUSH1 0x20 ADD SWAP2 SWAP1 PUSH1 0x1 ADD SWAP1 PUSH2 0x10A0 JUMP JUMPDEST JUMPDEST POP SWAP1 POP PUSH2 0x1106 SWAP2 SWAP1 PUSH2 0x125B JUMP JUMPDEST POP SWAP1 JUMP JUMPDEST DUP3 DUP1 SLOAD DUP3 DUP3 SSTORE SWAP1 PUSH1 0x0 MSTORE PUSH1 0x20 PUSH1 0x0 KECCAK256 SWAP1 DUP2 ADD SWAP3 DUP3 ISZERO PUSH2 0x1146 JUMPI SWAP2 PUSH1 0x20 MUL DUP3 ADD JUMPDEST DUP3 DUP2 GT ISZERO PUSH2 0x1145 JUMPI DUP3 MLOAD DUP3 SSTORE SWAP2 PUSH1 0x20 ADD SWAP2 SWAP1 PUSH1 0x1 ADD SWAP1 PUSH2 0x112A JUMP JUMPDEST JUMPDEST POP SWAP1 POP PUSH2 0x1153 SWAP2 SWAP1 PUSH2 0x125B JUMP JUMPDEST POP SWAP1 JUMP JUMPDEST DUP3 DUP1 SLOAD PUSH2 0x1163 SWAP1 PUSH2 0x1F8A JUMP JUMPDEST SWAP1 PUSH1 0x0 MSTORE PUSH1 0x20 PUSH1 0x0 KECCAK256 SWAP1 PUSH1 0x1F ADD PUSH1 0x20 SWAP1 DIV DUP2 ADD SWAP3 DUP3 PUSH2 0x1185 JUMPI PUSH1 0x0 DUP6 SSTORE PUSH2 0x11CC JUMP JUMPDEST DUP3 PUSH1 0x1F LT PUSH2 0x119E JUMPI DUP1 MLOAD PUSH1 0xFF NOT AND DUP4 DUP1 ADD OR DUP6 SSTORE PUSH2 0x11CC JUMP JUMPDEST DUP3 DUP1 ADD PUSH1 0x1 ADD DUP6 SSTORE DUP3 ISZERO PUSH2 0x11CC JUMPI SWAP2 DUP3 ADD JUMPDEST DUP3 DUP2 GT ISZERO PUSH2 0x11CB JUMPI DUP3 MLOAD DUP3 SSTORE SWAP2 PUSH1 0x20 ADD SWAP2 SWAP1 PUSH1 0x1 ADD SWAP1 PUSH2 0x11B0 JUMP JUMPDEST JUMPDEST POP SWAP1 POP PUSH2 0x11D9 SWAP2 SWAP1 PUSH2 0x125B JUMP JUMPDEST POP SWAP1 JUMP JUMPDEST PUSH1 0x40 MLOAD DUP1 PUSH2 0x120 ADD PUSH1 0x40 MSTORE DUP1 PUSH1 0x60 DUP2 MSTORE PUSH1 0x20 ADD PUSH1 0x60 DUP2 MSTORE PUSH1 0x20 ADD PUSH1 0x60 DUP2 MSTORE PUSH1 0x20 ADD PUSH1 0x60 DUP2 MSTORE PUSH1 0x20 ADD PUSH1 0x0 PUSH16 0xFFFFFFFFFFFFFFFFFFFFFFFFFFFFFFFF AND DUP2 MSTORE PUSH1 0x20 ADD PUSH1 0x0 PUSH16 0xFFFFFFFFFFFFFFFFFFFFFFFFFFFFFFFF AND DUP2 MSTORE PUSH1 0x20 ADD PUSH1 0x0 PUSH4 0xFFFFFFFF AND DUP2 MSTORE PUSH1 0x20 ADD PUSH1 0x0 PUSH4 0xFFFFFFFF AND DUP2 MSTORE PUSH1 0x20 ADD PUSH1 0x0 ISZERO ISZERO DUP2 MSTORE POP SWAP1 JUMP JUMPDEST JUMPDEST DUP1 DUP3 GT ISZERO PUSH2 0x1274 JUMPI PUSH1 0x0 DUP2 PUSH1 0x0 SWAP1 SSTORE POP PUSH1 0x1 ADD PUSH2 0x125C JUMP JUMPDEST POP SWAP1 JUMP JUMPDEST PUSH1 0x0 PUSH2 0x128B PUSH2 0x1286 DUP5 PUSH2 0x1D4E JUMP JUMPDEST PUSH2 0x1D29 JUMP JUMPDEST SWAP1 POP DUP1 DUP4 DUP3 MSTORE PUSH1 0x20 DUP3 ADD SWAP1 POP DUP3 DUP6 PUSH1 0x20 DUP7 MUL DUP3 ADD GT ISZERO PUSH2 0x12AE JUMPI PUSH2 0x12AD PUSH2 0x20FC JUMP JUMPDEST JUMPDEST PUSH1 0x0 JUMPDEST DUP6 DUP2 LT ISZERO PUSH2 0x12DE JUMPI DUP2 PUSH2 0x12C4 DUP9 DUP3 PUSH2 0x1358 JUMP JUMPDEST DUP5 MSTORE PUSH1 0x20 DUP5 ADD SWAP4 POP PUSH1 0x20 DUP4 ADD SWAP3 POP POP PUSH1 0x1 DUP2 ADD SWAP1 POP PUSH2 0x12B1 JUMP JUMPDEST POP POP POP SWAP4 SWAP3 POP POP POP JUMP JUMPDEST PUSH1 0x0 PUSH2 0x12FB PUSH2 0x12F6 DUP5 PUSH2 0x1D7A JUMP JUMPDEST PUSH2 0x1D29 JUMP JUMPDEST SWAP1 POP DUP1 DUP4 DUP3 MSTORE PUSH1 0x20 DUP3 ADD SWAP1 POP DUP3 DUP6 PUSH1 0x20 DUP7 MUL DUP3 ADD GT ISZERO PUSH2 0x131E JUMPI PUSH2 0x131D PUSH2 0x20FC JUMP JUMPDEST JUMPDEST PUSH1 0x0 JUMPDEST DUP6 DUP2 LT ISZERO PUSH2 0x134E JUMPI DUP2 PUSH2 0x1334 DUP9 DUP3 PUSH2 0x1434 JUMP JUMPDEST DUP5 MSTORE PUSH1 0x20 DUP5 ADD SWAP4 POP PUSH1 0x20 DUP4 ADD SWAP3 POP POP PUSH1 0x1 DUP2 ADD SWAP1 POP PUSH2 0x1321 JUMP JUMPDEST POP POP POP SWAP4 SWAP3 POP POP POP JUMP JUMPDEST PUSH1 0x0 DUP2 CALLDATALOAD SWAP1 POP PUSH2 0x1367 DUP2 PUSH2 0x211C JUMP JUMPDEST SWAP3 SWAP2 POP POP JUMP JUMPDEST PUSH1 0x0 DUP3 PUSH1 0x1F DUP4 ADD SLT PUSH2 0x1382 JUMPI PUSH2 0x1381 PUSH2 0x20F7 JUMP JUMPDEST JUMPDEST DUP2 CALLDATALOAD PUSH2 0x1392 DUP5 DUP3 PUSH1 0x20 DUP7 ADD PUSH2 0x1278 JUMP JUMPDEST SWAP2 POP POP SWAP3 SWAP2 POP POP JUMP JUMPDEST PUSH1 0x0 DUP3 PUSH1 0x1F DUP4 ADD SLT PUSH2 0x13B0 JUMPI PUSH2 0x13AF PUSH2 0x20F7 JUMP JUMPDEST JUMPDEST DUP2 CALLDATALOAD PUSH2 0x13C0 DUP5 DUP3 PUSH1 0x20 DUP7 ADD PUSH2 0x12E8 JUMP JUMPDEST SWAP2 POP POP SWAP3 SWAP2 POP POP JUMP JUMPDEST PUSH1 0x0 DUP1 DUP4 PUSH1 0x1F DUP5 ADD SLT PUSH2 0x13DF JUMPI PUSH2 0x13DE PUSH2 0x20F7 JUMP JUMPDEST JUMPDEST DUP3 CALLDATALOAD SWAP1 POP PUSH8 0xFFFFFFFFFFFFFFFF DUP2 GT ISZERO PUSH2 0x13FC JUMPI PUSH2 0x13FB PUSH2 0x20F2 JUMP JUMPDEST JUMPDEST PUSH1 0x20 DUP4 ADD SWAP2 POP DUP4 PUSH1 0x1 DUP3 MUL DUP4 ADD GT ISZERO PUSH2 0x1418 JUMPI PUSH2 0x1417 PUSH2 0x20FC JUMP JUMPDEST JUMPDEST SWAP3 POP SWAP3 SWAP1 POP JUMP JUMPDEST PUSH1 0x0 DUP2 CALLDATALOAD SWAP1 POP PUSH2 0x142E DUP2 PUSH2 0x2133 JUMP JUMPDEST SWAP3 SWAP2 POP POP JUMP JUMPDEST PUSH1 0x0 DUP2 CALLDATALOAD SWAP1 POP PUSH2 0x1443 DUP2 PUSH2 0x214A JUMP JUMPDEST SWAP3 SWAP2 POP POP JUMP JUMPDEST PUSH1 0x0 DUP2 CALLDATALOAD SWAP1 POP PUSH2 0x1458 DUP2 PUSH2 0x2161 JUMP JUMPDEST SWAP3 SWAP2 POP POP JUMP JUMPDEST PUSH1 0x0 PUSH1 0x20 DUP3 DUP5 SUB SLT ISZERO PUSH2 0x1474 JUMPI PUSH2 0x1473 PUSH2 0x2106 JUMP JUMPDEST JUMPDEST PUSH1 0x0 PUSH2 0x1482 DUP5 DUP3 DUP6 ADD PUSH2 0x1358 JUMP JUMPDEST SWAP2 POP POP SWAP3 SWAP2 POP POP JUMP JUMPDEST PUSH1 0x0 DUP1 PUSH1 0x40 DUP4 DUP6 SUB SLT ISZERO PUSH2 0x14A2 JUMPI PUSH2 0x14A1 PUSH2 0x2106 JUMP JUMPDEST JUMPDEST PUSH1 0x0 PUSH2 0x14B0 DUP6 DUP3 DUP7 ADD PUSH2 0x1358 JUMP JUMPDEST SWAP3 POP POP PUSH1 0x20 PUSH2 0x14C1 DUP6 DUP3 DUP7 ADD PUSH2 0x1434 JUMP JUMPDEST SWAP2 POP POP SWAP3 POP SWAP3 SWAP1 POP JUMP JUMPDEST PUSH1 0x0 DUP1 PUSH1 0x0 DUP1 PUSH1 0x0 DUP1 PUSH1 0x0 DUP1 PUSH1 0x0 DUP1 PUSH2 0x100 DUP12 DUP14 SUB SLT ISZERO PUSH2 0x14EF JUMPI PUSH2 0x14EE PUSH2 0x2106 JUMP JUMPDEST JUMPDEST PUSH1 0x0 DUP12 ADD CALLDATALOAD PUSH8 0xFFFFFFFFFFFFFFFF DUP2 GT ISZERO PUSH2 0x150D JUMPI PUSH2 0x150C PUSH2 0x2101 JUMP JUMPDEST JUMPDEST PUSH2 0x1519 DUP14 DUP3 DUP15 ADD PUSH2 0x136D JUMP JUMPDEST SWAP11 POP POP PUSH1 0x20 DUP12 ADD CALLDATALOAD PUSH8 0xFFFFFFFFFFFFFFFF DUP2 GT ISZERO PUSH2 0x153A JUMPI PUSH2 0x1539 PUSH2 0x2101 JUMP JUMPDEST JUMPDEST PUSH2 0x1546 DUP14 DUP3 DUP15 ADD PUSH2 0x139B JUMP JUMPDEST SWAP10 POP POP PUSH1 0x40 DUP12 ADD CALLDATALOAD PUSH8 0xFFFFFFFFFFFFFFFF DUP2 GT ISZERO PUSH2 0x1567 JUMPI PUSH2 0x1566 PUSH2 0x2101 JUMP JUMPDEST JUMPDEST PUSH2 0x1573 DUP14 DUP3 DUP15 ADD PUSH2 0x13C9 JUMP JUMPDEST SWAP9 POP SWAP9 POP POP PUSH1 0x60 DUP12 ADD CALLDATALOAD PUSH8 0xFFFFFFFFFFFFFFFF DUP2 GT ISZERO PUSH2 0x1596 JUMPI PUSH2 0x1595 PUSH2 0x2101 JUMP JUMPDEST JUMPDEST PUSH2 0x15A2 DUP14 DUP3 DUP15 ADD PUSH2 0x13C9 JUMP JUMPDEST SWAP7 POP SWAP7 POP POP PUSH1 0x80 PUSH2 0x15B5 DUP14 DUP3 DUP15 ADD PUSH2 0x141F JUMP JUMPDEST SWAP5 POP POP PUSH1 0xA0 PUSH2 0x15C6 DUP14 DUP3 DUP15 ADD PUSH2 0x141F JUMP JUMPDEST SWAP4 POP POP PUSH1 0xC0 PUSH2 0x15D7 DUP14 DUP3 DUP15 ADD PUSH2 0x1449 JUMP JUMPDEST SWAP3 POP POP PUSH1 0xE0 PUSH2 0x15E8 DUP14 DUP3 DUP15 ADD PUSH2 0x1449 JUMP JUMPDEST SWAP2 POP POP SWAP3 SWAP6 SWAP9 SWAP12 SWAP2 SWAP5 SWAP8 SWAP11 POP SWAP3 SWAP6 SWAP9 POP JUMP JUMPDEST PUSH1 0x0 PUSH1 0x20 DUP3 DUP5 SUB SLT ISZERO PUSH2 0x1610 JUMPI PUSH2 0x160F PUSH2 0x2106 JUMP JUMPDEST JUMPDEST PUSH1 0x0 PUSH2 0x161E DUP5 DUP3 DUP6 ADD PUSH2 0x1434 JUMP JUMPDEST SWAP2 POP POP SWAP3 SWAP2 POP POP JUMP JUMPDEST PUSH1 0x0 DUP1 PUSH1 0x40 DUP4 DUP6 SUB SLT ISZERO PUSH2 0x163E JUMPI PUSH2 0x163D PUSH2 0x2106 JUMP JUMPDEST JUMPDEST PUSH1 0x0 PUSH2 0x164C DUP6 DUP3 DUP7 ADD PUSH2 0x1434 JUMP JUMPDEST SWAP3 POP POP PUSH1 0x20 PUSH2 0x165D DUP6 DUP3 DUP7 ADD PUSH2 0x141F JUMP JUMPDEST SWAP2 POP POP SWAP3 POP SWAP3 SWAP1 POP JUMP JUMPDEST PUSH1 0x0 PUSH2 0x1673 DUP4 DUP4 PUSH2 0x16AB JUMP JUMPDEST PUSH1 0x20 DUP4 ADD SWAP1 POP SWAP3 SWAP2 POP POP JUMP JUMPDEST PUSH1 0x0 PUSH2 0x168B DUP4 DUP4 PUSH2 0x1964 JUMP JUMPDEST SWAP1 POP SWAP3 SWAP2 POP POP JUMP JUMPDEST PUSH1 0x0 PUSH2 0x169F DUP4 DUP4 PUSH2 0x1B36 JUMP JUMPDEST PUSH1 0x20 DUP4 ADD SWAP1 POP SWAP3 SWAP2 POP POP JUMP JUMPDEST PUSH2 0x16B4 DUP2 PUSH2 0x1ED4 JUMP JUMPDEST DUP3 MSTORE POP POP JUMP JUMPDEST PUSH1 0x0 PUSH2 0x16C5 DUP3 PUSH2 0x1DD6 JUMP JUMPDEST PUSH2 0x16CF DUP2 DUP6 PUSH2 0x1E29 JUMP JUMPDEST SWAP4 POP PUSH2 0x16DA DUP4 PUSH2 0x1DA6 JUMP JUMPDEST DUP1 PUSH1 0x0 JUMPDEST DUP4 DUP2 LT ISZERO PUSH2 0x170B JUMPI DUP2 MLOAD PUSH2 0x16F2 DUP9 DUP3 PUSH2 0x1667 JUMP JUMPDEST SWAP8 POP PUSH2 0x16FD DUP4 PUSH2 0x1E02 JUMP JUMPDEST SWAP3 POP POP PUSH1 0x1 DUP2 ADD SWAP1 POP PUSH2 0x16DE JUMP JUMPDEST POP DUP6 SWAP4 POP POP POP POP SWAP3 SWAP2 POP POP JUMP JUMPDEST PUSH1 0x0 PUSH2 0x1723 DUP3 PUSH2 0x1DD6 JUMP JUMPDEST PUSH2 0x172D DUP2 DUP6 PUSH2 0x1E3A JUMP JUMPDEST SWAP4 POP PUSH2 0x1738 DUP4 PUSH2 0x1DA6 JUMP JUMPDEST DUP1 PUSH1 0x0 JUMPDEST DUP4 DUP2 LT ISZERO PUSH2 0x1769 JUMPI DUP2 MLOAD PUSH2 0x1750 DUP9 DUP3 PUSH2 0x1667 JUMP JUMPDEST SWAP8 POP PUSH2 0x175B DUP4 PUSH2 0x1E02 JUMP JUMPDEST SWAP3 POP POP PUSH1 0x1 DUP2 ADD SWAP1 POP PUSH2 0x173C JUMP JUMPDEST POP DUP6 SWAP4 POP POP POP POP SWAP3 SWAP2 POP POP JUMP JUMPDEST PUSH1 0x0 PUSH2 0x1781 DUP3 PUSH2 0x1DE1 JUMP JUMPDEST PUSH2 0x178B DUP2 DUP6 PUSH2 0x1E4B JUMP JUMPDEST SWAP4 POP DUP4 PUSH1 0x20 DUP3 MUL DUP6 ADD PUSH2 0x179D DUP6 PUSH2 0x1DB6 JUMP JUMPDEST DUP1 PUSH1 0x0 JUMPDEST DUP6 DUP2 LT ISZERO PUSH2 0x17D9 JUMPI DUP5 DUP5 SUB DUP10 MSTORE DUP2 MLOAD PUSH2 0x17BA DUP6 DUP3 PUSH2 0x167F JUMP JUMPDEST SWAP5 POP PUSH2 0x17C5 DUP4 PUSH2 0x1E0F JUMP JUMPDEST SWAP3 POP PUSH1 0x20 DUP11 ADD SWAP10 POP POP PUSH1 0x1 DUP2 ADD SWAP1 POP PUSH2 0x17A1 JUMP JUMPDEST POP DUP3 SWAP8 POP DUP8 SWAP6 POP POP POP POP POP POP SWAP3 SWAP2 POP POP JUMP JUMPDEST PUSH1 0x0 PUSH2 0x17F6 DUP3 PUSH2 0x1DEC JUMP JUMPDEST PUSH2 0x1800 DUP2 DUP6 PUSH2 0x1E5C JUMP JUMPDEST SWAP4 POP PUSH2 0x180B DUP4 PUSH2 0x1DC6 JUMP JUMPDEST DUP1 PUSH1 0x0 JUMPDEST DUP4 DUP2 LT ISZERO PUSH2 0x183C JUMPI DUP2 MLOAD PUSH2 0x1823 DUP9 DUP3 PUSH2 0x1693 JUMP JUMPDEST SWAP8 POP PUSH2 0x182E DUP4 PUSH2 0x1E1C JUMP JUMPDEST SWAP3 POP POP PUSH1 0x1 DUP2 ADD SWAP1 POP PUSH2 0x180F JUMP JUMPDEST POP DUP6 SWAP4 POP POP POP POP SWAP3 SWAP2 POP POP JUMP JUMPDEST PUSH1 0x0 PUSH2 0x1854 DUP3 PUSH2 0x1DEC JUMP JUMPDEST PUSH2 0x185E DUP2 DUP6 PUSH2 0x1E6D JUMP JUMPDEST SWAP4 POP PUSH2 0x1869 DUP4 PUSH2 0x1DC6 JUMP JUMPDEST DUP1 PUSH1 0x0 JUMPDEST DUP4 DUP2 LT ISZERO PUSH2 0x189A JUMPI DUP2 MLOAD PUSH2 0x1881 DUP9 DUP3 PUSH2 0x1693 JUMP JUMPDEST SWAP8 POP PUSH2 0x188C DUP4 PUSH2 0x1E1C JUMP JUMPDEST SWAP3 POP POP PUSH1 0x1 DUP2 ADD SWAP1 POP PUSH2 0x186D JUMP JUMPDEST POP DUP6 SWAP4 POP POP POP POP SWAP3 SWAP2 POP POP JUMP JUMPDEST PUSH2 0x18B0 DUP2 PUSH2 0x1EE6 JUMP JUMPDEST DUP3 MSTORE POP POP JUMP JUMPDEST PUSH2 0x18BF DUP2 PUSH2 0x1EE6 JUMP JUMPDEST DUP3 MSTORE POP POP JUMP JUMPDEST PUSH1 0x0 PUSH2 0x18D1 DUP4 DUP6 PUSH2 0x1E8F JUMP JUMPDEST SWAP4 POP PUSH2 0x18DE DUP4 DUP6 DUP5 PUSH2 0x1F48 JUMP JUMPDEST PUSH2 0x18E7 DUP4 PUSH2 0x210B JUMP JUMPDEST DUP5 ADD SWAP1 POP SWAP4 SWAP3 POP POP POP JUMP JUMPDEST PUSH1 0x0 PUSH2 0x18FD DUP3 PUSH2 0x1DF7 JUMP JUMPDEST PUSH2 0x1907 DUP2 DUP6 PUSH2 0x1E7E JUMP JUMPDEST SWAP4 POP PUSH2 0x1917 DUP2 DUP6 PUSH1 0x20 DUP7 ADD PUSH2 0x1F57 JUMP JUMPDEST PUSH2 0x1920 DUP2 PUSH2 0x210B JUMP JUMPDEST DUP5 ADD SWAP2 POP POP SWAP3 SWAP2 POP POP JUMP JUMPDEST PUSH1 0x0 PUSH2 0x1936 DUP3 PUSH2 0x1DF7 JUMP JUMPDEST PUSH2 0x1940 DUP2 DUP6 PUSH2 0x1E8F JUMP JUMPDEST SWAP4 POP PUSH2 0x1950 DUP2 DUP6 PUSH1 0x20 DUP7 ADD PUSH2 0x1F57 JUMP JUMPDEST PUSH2 0x1959 DUP2 PUSH2 0x210B JUMP JUMPDEST DUP5 ADD SWAP2 POP POP SWAP3 SWAP2 POP POP JUMP JUMPDEST PUSH1 0x0 PUSH2 0x120 DUP4 ADD PUSH1 0x0 DUP4 ADD MLOAD DUP5 DUP3 SUB PUSH1 0x0 DUP7 ADD MSTORE PUSH2 0x1982 DUP3 DUP3 PUSH2 0x16BA JUMP JUMPDEST SWAP2 POP POP PUSH1 0x20 DUP4 ADD MLOAD DUP5 DUP3 SUB PUSH1 0x20 DUP7 ADD MSTORE PUSH2 0x199C DUP3 DUP3 PUSH2 0x17EB JUMP JUMPDEST SWAP2 POP POP PUSH1 0x40 DUP4 ADD MLOAD DUP5 DUP3 SUB PUSH1 0x40 DUP7 ADD MSTORE PUSH2 0x19B6 DUP3 DUP3 PUSH2 0x18F2 JUMP JUMPDEST SWAP2 POP POP PUSH1 0x60 DUP4 ADD MLOAD DUP5 DUP3 SUB PUSH1 0x60 DUP7 ADD MSTORE PUSH2 0x19D0 DUP3 DUP3 PUSH2 0x18F2 JUMP JUMPDEST SWAP2 POP POP PUSH1 0x80 DUP4 ADD MLOAD PUSH2 0x19E5 PUSH1 0x80 DUP7 ADD DUP3 PUSH2 0x1B18 JUMP JUMPDEST POP PUSH1 0xA0 DUP4 ADD MLOAD PUSH2 0x19F8 PUSH1 0xA0 DUP7 ADD DUP3 PUSH2 0x1B18 JUMP JUMPDEST POP PUSH1 0xC0 DUP4 ADD MLOAD PUSH2 0x1A0B PUSH1 0xC0 DUP7 ADD DUP3 PUSH2 0x1B54 JUMP JUMPDEST POP PUSH1 0xE0 DUP4 ADD MLOAD PUSH2 0x1A1E PUSH1 0xE0 DUP7 ADD DUP3 PUSH2 0x1B54 JUMP JUMPDEST POP PUSH2 0x100 DUP4 ADD MLOAD PUSH2 0x1A33 PUSH2 0x100 DUP7 ADD DUP3 PUSH2 0x18A7 JUMP JUMPDEST POP DUP1 SWAP2 POP POP SWAP3 SWAP2 POP POP JUMP JUMPDEST PUSH1 0x0 PUSH2 0x120 DUP4 ADD PUSH1 0x0 DUP4 ADD MLOAD DUP5 DUP3 SUB PUSH1 0x0 DUP7 ADD MSTORE PUSH2 0x1A5C DUP3 DUP3 PUSH2 0x16BA JUMP JUMPDEST SWAP2 POP POP PUSH1 0x20 DUP4 ADD MLOAD DUP5 DUP3 SUB PUSH1 0x20 DUP7 ADD MSTORE PUSH2 0x1A76 DUP3 DUP3 PUSH2 0x17EB JUMP JUMPDEST SWAP2 POP POP PUSH1 0x40 DUP4 ADD MLOAD DUP5 DUP3 SUB PUSH1 0x40 DUP7 ADD MSTORE PUSH2 0x1A90 DUP3 DUP3 PUSH2 0x18F2 JUMP JUMPDEST SWAP2 POP POP PUSH1 0x60 DUP4 ADD MLOAD DUP5 DUP3 SUB PUSH1 0x60 DUP7 ADD MSTORE PUSH2 0x1AAA DUP3 DUP3 PUSH2 0x18F2 JUMP JUMPDEST SWAP2 POP POP PUSH1 0x80 DUP4 ADD MLOAD PUSH2 0x1ABF PUSH1 0x80 DUP7 ADD DUP3 PUSH2 0x1B18 JUMP JUMPDEST POP PUSH1 0xA0 DUP4 ADD MLOAD PUSH2 0x1AD2 PUSH1 0xA0 DUP7 ADD DUP3 PUSH2 0x1B18 JUMP JUMPDEST POP PUSH1 0xC0 DUP4 ADD MLOAD PUSH2 0x1AE5 PUSH1 0xC0 DUP7 ADD DUP3 PUSH2 0x1B54 JUMP JUMPDEST POP PUSH1 0xE0 DUP4 ADD MLOAD PUSH2 0x1AF8 PUSH1 0xE0 DUP7 ADD DUP3 PUSH2 0x1B54 JUMP JUMPDEST POP PUSH2 0x100 DUP4 ADD MLOAD PUSH2 0x1B0D PUSH2 0x100 DUP7 ADD DUP3 PUSH2 0x18A7 JUMP JUMPDEST POP DUP1 SWAP2 POP POP SWAP3 SWAP2 POP POP JUMP JUMPDEST PUSH2 0x1B21 DUP2 PUSH2 0x1EF2 JUMP JUMPDEST DUP3 MSTORE POP POP JUMP JUMPDEST PUSH2 0x1B30 DUP2 PUSH2 0x1EF2 JUMP JUMPDEST DUP3 MSTORE POP POP JUMP JUMPDEST PUSH2 0x1B3F DUP2 PUSH2 0x1F2E JUMP JUMPDEST DUP3 MSTORE POP POP JUMP JUMPDEST PUSH2 0x1B4E DUP2 PUSH2 0x1F2E JUMP JUMPDEST DUP3 MSTORE POP POP JUMP JUMPDEST PUSH2 0x1B5D DUP2 PUSH2 0x1F38 JUMP JUMPDEST DUP3 MSTORE POP POP JUMP JUMPDEST PUSH2 0x1B6C DUP2 PUSH2 0x1F38 JUMP JUMPDEST DUP3 MSTORE POP POP JUMP JUMPDEST PUSH1 0x0 PUSH2 0x100 DUP3 ADD SWAP1 POP DUP2 DUP2 SUB PUSH1 0x0 DUP4 ADD MSTORE PUSH2 0x1B8D DUP2 DUP14 PUSH2 0x1718 JUMP JUMPDEST SWAP1 POP DUP2 DUP2 SUB PUSH1 0x20 DUP4 ADD MSTORE PUSH2 0x1BA1 DUP2 DUP13 PUSH2 0x1849 JUMP JUMPDEST SWAP1 POP DUP2 DUP2 SUB PUSH1 0x40 DUP4 ADD MSTORE PUSH2 0x1BB6 DUP2 DUP11 DUP13 PUSH2 0x18C5 JUMP JUMPDEST SWAP1 POP DUP2 DUP2 SUB PUSH1 0x60 DUP4 ADD MSTORE PUSH2 0x1BCB DUP2 DUP9 DUP11 PUSH2 0x18C5 JUMP JUMPDEST SWAP1 POP PUSH2 0x1BDA PUSH1 0x80 DUP4 ADD DUP8 PUSH2 0x1B27 JUMP JUMPDEST PUSH2 0x1BE7 PUSH1 0xA0 DUP4 ADD DUP7 PUSH2 0x1B27 JUMP JUMPDEST PUSH2 0x1BF4 PUSH1 0xC0 DUP4 ADD DUP6 PUSH2 0x1B63 JUMP JUMPDEST PUSH2 0x1C01 PUSH1 0xE0 DUP4 ADD DUP5 PUSH2 0x1B63 JUMP JUMPDEST SWAP12 SWAP11 POP POP POP POP POP POP POP POP POP POP POP JUMP JUMPDEST PUSH1 0x0 PUSH1 0x20 DUP3 ADD SWAP1 POP DUP2 DUP2 SUB PUSH1 0x0 DUP4 ADD MSTORE PUSH2 0x1C2A DUP2 DUP5 PUSH2 0x1776 JUMP JUMPDEST SWAP1 POP SWAP3 SWAP2 POP POP JUMP JUMPDEST PUSH1 0x0 PUSH1 0x20 DUP3 ADD SWAP1 POP DUP2 DUP2 SUB PUSH1 0x0 DUP4 ADD MSTORE PUSH2 0x1C4C DUP2 DUP5 PUSH2 0x1849 JUMP JUMPDEST SWAP1 POP SWAP3 SWAP2 POP POP JUMP JUMPDEST PUSH1 0x0 PUSH1 0xE0 DUP3 ADD SWAP1 POP DUP2 DUP2 SUB PUSH1 0x0 DUP4 ADD MSTORE PUSH2 0x1C6E DUP2 DUP11 PUSH2 0x192B JUMP JUMPDEST SWAP1 POP DUP2 DUP2 SUB PUSH1 0x20 DUP4 ADD MSTORE PUSH2 0x1C82 DUP2 DUP10 PUSH2 0x192B JUMP JUMPDEST SWAP1 POP PUSH2 0x1C91 PUSH1 0x40 DUP4 ADD DUP9 PUSH2 0x1B27 JUMP JUMPDEST PUSH2 0x1C9E PUSH1 0x60 DUP4 ADD DUP8 PUSH2 0x1B27 JUMP JUMPDEST PUSH2 0x1CAB PUSH1 0x80 DUP4 ADD DUP7 PUSH2 0x1B63 JUMP JUMPDEST PUSH2 0x1CB8 PUSH1 0xA0 DUP4 ADD DUP6 PUSH2 0x1B63 JUMP JUMPDEST PUSH2 0x1CC5 PUSH1 0xC0 DUP4 ADD DUP5 PUSH2 0x18B6 JUMP JUMPDEST SWAP9 SWAP8 POP POP POP POP POP POP POP POP JUMP JUMPDEST PUSH1 0x0 PUSH1 0x20 DUP3 ADD SWAP1 POP DUP2 DUP2 SUB PUSH1 0x0 DUP4 ADD MSTORE PUSH2 0x1CEB DUP2 DUP5 PUSH2 0x1A3E JUMP JUMPDEST SWAP1 POP SWAP3 SWAP2 POP POP JUMP JUMPDEST PUSH1 0x0 PUSH1 0x20 DUP3 ADD SWAP1 POP PUSH2 0x1D08 PUSH1 0x0 DUP4 ADD DUP5 PUSH2 0x1B27 JUMP JUMPDEST SWAP3 SWAP2 POP POP JUMP JUMPDEST PUSH1 0x0 PUSH1 0x20 DUP3 ADD SWAP1 POP PUSH2 0x1D23 PUSH1 0x0 DUP4 ADD DUP5 PUSH2 0x1B45 JUMP JUMPDEST SWAP3 SWAP2 POP POP JUMP JUMPDEST PUSH1 0x0 PUSH2 0x1D33 PUSH2 0x1D44 JUMP JUMPDEST SWAP1 POP PUSH2 0x1D3F DUP3 DUP3 PUSH2 0x1FBC JUMP JUMPDEST SWAP2 SWAP1 POP JUMP JUMPDEST PUSH1 0x0 PUSH1 0x40 MLOAD SWAP1 POP SWAP1 JUMP JUMPDEST PUSH1 0x0 PUSH8 0xFFFFFFFFFFFFFFFF DUP3 GT ISZERO PUSH2 0x1D69 JUMPI PUSH2 0x1D68 PUSH2 0x20C3 JUMP JUMPDEST JUMPDEST PUSH1 0x20 DUP3 MUL SWAP1 POP PUSH1 0x20 DUP2 ADD SWAP1 POP SWAP2 SWAP1 POP JUMP JUMPDEST PUSH1 0x0 PUSH8 0xFFFFFFFFFFFFFFFF DUP3 GT ISZERO PUSH2 0x1D95 JUMPI PUSH2 0x1D94 PUSH2 0x20C3 JUMP JUMPDEST JUMPDEST PUSH1 0x20 DUP3 MUL SWAP1 POP PUSH1 0x20 DUP2 ADD SWAP1 POP SWAP2 SWAP1 POP JUMP JUMPDEST PUSH1 0x0 DUP2 SWAP1 POP PUSH1 0x20 DUP3 ADD SWAP1 POP SWAP2 SWAP1 POP JUMP JUMPDEST PUSH1 0x0 DUP2 SWAP1 POP PUSH1 0x20 DUP3 ADD SWAP1 POP SWAP2 SWAP1 POP JUMP JUMPDEST PUSH1 0x0 DUP2 SWAP1 POP PUSH1 0x20 DUP3 ADD SWAP1 POP SWAP2 SWAP1 POP JUMP JUMPDEST PUSH1 0x0 DUP2 MLOAD SWAP1 POP SWAP2 SWAP1 POP JUMP JUMPDEST PUSH1 0x0 DUP2 MLOAD SWAP1 POP SWAP2 SWAP1 POP JUMP JUMPDEST PUSH1 0x0 DUP2 MLOAD SWAP1 POP SWAP2 SWAP1 POP JUMP JUMPDEST PUSH1 0x0 DUP2 MLOAD SWAP1 POP SWAP2 SWAP1 POP JUMP JUMPDEST PUSH1 0x0 PUSH1 0x20 DUP3 ADD SWAP1 POP SWAP2 SWAP1 POP JUMP JUMPDEST PUSH1 0x0 PUSH1 0x20 DUP3 ADD SWAP1 POP SWAP2 SWAP1 POP JUMP JUMPDEST PUSH1 0x0 PUSH1 0x20 DUP3 ADD SWAP1 POP SWAP2 SWAP1 POP JUMP JUMPDEST PUSH1 0x0 DUP3 DUP3 MSTORE PUSH1 0x20 DUP3 ADD SWAP1 POP SWAP3 SWAP2 POP POP JUMP JUMPDEST PUSH1 0x0 DUP3 DUP3 MSTORE PUSH1 0x20 DUP3 ADD SWAP1 POP SWAP3 SWAP2 POP POP JUMP JUMPDEST PUSH1 0x0 DUP3 DUP3 MSTORE PUSH1 0x20 DUP3 ADD SWAP1 POP SWAP3 SWAP2 POP POP JUMP JUMPDEST PUSH1 0x0 DUP3 DUP3 MSTORE PUSH1 0x20 DUP3 ADD SWAP1 POP SWAP3 SWAP2 POP POP JUMP JUMPDEST PUSH1 0x0 DUP3 DUP3 MSTORE PUSH1 0x20 DUP3 ADD SWAP1 POP SWAP3 SWAP2 POP POP JUMP JUMPDEST PUSH1 0x0 DUP3 DUP3 MSTORE PUSH1 0x20 DUP3 ADD SWAP1 POP SWAP3 SWAP2 POP POP JUMP JUMPDEST PUSH1 0x0 DUP3 DUP3 MSTORE PUSH1 0x20 DUP3 ADD SWAP1 POP SWAP3 SWAP2 POP POP JUMP JUMPDEST PUSH1 0x0 PUSH2 0x1EAB DUP3 PUSH2 0x1EF2 JUMP JUMPDEST SWAP2 POP PUSH2 0x1EB6 DUP4 PUSH2 0x1EF2 JUMP JUMPDEST SWAP3 POP DUP3 DUP3 LT ISZERO PUSH2 0x1EC9 JUMPI PUSH2 0x1EC8 PUSH2 0x2036 JUMP JUMPDEST JUMPDEST DUP3 DUP3 SUB SWAP1 POP SWAP3 SWAP2 POP POP JUMP JUMPDEST PUSH1 0x0 PUSH2 0x1EDF DUP3 PUSH2 0x1F0E JUMP JUMPDEST SWAP1 POP SWAP2 SWAP1 POP JUMP JUMPDEST PUSH1 0x0 DUP2 ISZERO ISZERO SWAP1 POP SWAP2 SWAP1 POP JUMP JUMPDEST PUSH1 0x0 PUSH16 0xFFFFFFFFFFFFFFFFFFFFFFFFFFFFFFFF DUP3 AND SWAP1 POP SWAP2 SWAP1 POP JUMP JUMPDEST PUSH1 0x0 PUSH20 0xFFFFFFFFFFFFFFFFFFFFFFFFFFFFFFFFFFFFFFFF DUP3 AND SWAP1 POP SWAP2 SWAP1 POP JUMP JUMPDEST PUSH1 0x0 DUP2 SWAP1 POP SWAP2 SWAP1 POP JUMP JUMPDEST PUSH1 0x0 PUSH4 0xFFFFFFFF DUP3 AND SWAP1 POP SWAP2 SWAP1 POP JUMP JUMPDEST DUP3 DUP2 DUP4 CALLDATACOPY PUSH1 0x0 DUP4 DUP4 ADD MSTORE POP POP POP JUMP JUMPDEST PUSH1 0x0 JUMPDEST DUP4 DUP2 LT ISZERO PUSH2 0x1F75 JUMPI DUP1 DUP3 ADD MLOAD DUP2 DUP5 ADD MSTORE PUSH1 0x20 DUP2 ADD SWAP1 POP PUSH2 0x1F5A JUMP JUMPDEST DUP4 DUP2 GT ISZERO PUSH2 0x1F84 JUMPI PUSH1 0x0 DUP5 DUP5 ADD MSTORE JUMPDEST POP POP POP POP JUMP JUMPDEST PUSH1 0x0 PUSH1 0x2 DUP3 DIV SWAP1 POP PUSH1 0x1 DUP3 AND DUP1 PUSH2 0x1FA2 JUMPI PUSH1 0x7F DUP3 AND SWAP2 POP JUMPDEST PUSH1 0x20 DUP3 LT DUP2 EQ ISZERO PUSH2 0x1FB6 JUMPI PUSH2 0x1FB5 PUSH2 0x2065 JUMP JUMPDEST JUMPDEST POP SWAP2 SWAP1 POP JUMP JUMPDEST PUSH2 0x1FC5 DUP3 PUSH2 0x210B JUMP JUMPDEST DUP2 ADD DUP2 DUP2 LT PUSH8 0xFFFFFFFFFFFFFFFF DUP3 GT OR ISZERO PUSH2 0x1FE4 JUMPI PUSH2 0x1FE3 PUSH2 0x20C3 JUMP JUMPDEST JUMPDEST DUP1 PUSH1 0x40 MSTORE POP POP POP JUMP JUMPDEST PUSH1 0x0 PUSH2 0x1FF8 DUP3 PUSH2 0x1F2E JUMP JUMPDEST SWAP2 POP PUSH32 0xFFFFFFFFFFFFFFFFFFFFFFFFFFFFFFFFFFFFFFFFFFFFFFFFFFFFFFFFFFFFFFFF DUP3 EQ ISZERO PUSH2 0x202B JUMPI PUSH2 0x202A PUSH2 0x2036 JUMP JUMPDEST JUMPDEST PUSH1 0x1 DUP3 ADD SWAP1 POP SWAP2 SWAP1 POP JUMP JUMPDEST PUSH32 0x4E487B7100000000000000000000000000000000000000000000000000000000 PUSH1 0x0 MSTORE PUSH1 0x11 PUSH1 0x4 MSTORE PUSH1 0x24 PUSH1 0x0 REVERT JUMPDEST PUSH32 0x4E487B7100000000000000000000000000000000000000000000000000000000 PUSH1 0x0 MSTORE PUSH1 0x22 PUSH1 0x4 MSTORE PUSH1 0x24 PUSH1 0x0 REVERT JUMPDEST PUSH32 0x4E487B7100000000000000000000000000000000000000000000000000000000 PUSH1 0x0 MSTORE PUSH1 0x32 PUSH1 0x4 MSTORE PUSH1 0x24 PUSH1 0x0 REVERT JUMPDEST PUSH32 0x4E487B7100000000000000000000000000000000000000000000000000000000 PUSH1 0x0 MSTORE PUSH1 0x41 PUSH1 0x4 MSTORE PUSH1 0x24 PUSH1 0x0 REVERT JUMPDEST PUSH1 0x0 DUP1 REVERT JUMPDEST PUSH1 0x0 DUP1 REVERT JUMPDEST PUSH1 0x0 DUP1 REVERT JUMPDEST PUSH1 0x0 DUP1 REVERT JUMPDEST PUSH1 0x0 DUP1 REVERT JUMPDEST PUSH1 0x0 PUSH1 0x1F NOT PUSH1 0x1F DUP4 ADD AND SWAP1 POP SWAP2 SWAP1 POP JUMP JUMPDEST PUSH2 0x2125 DUP2 PUSH2 0x1ED4 JUMP JUMPDEST DUP2 EQ PUSH2 0x2130 JUMPI PUSH1 0x0 DUP1 REVERT JUMPDEST POP JUMP JUMPDEST PUSH2 0x213C DUP2 PUSH2 0x1EF2 JUMP JUMPDEST DUP2 EQ PUSH2 0x2147 JUMPI PUSH1 0x0 DUP1 REVERT JUMPDEST POP JUMP JUMPDEST PUSH2 0x2153 DUP2 PUSH2 0x1F2E JUMP JUMPDEST DUP2 EQ PUSH2 0x215E JUMPI PUSH1 0x0 DUP1 REVERT JUMPDEST POP JUMP JUMPDEST PUSH2 0x216A DUP2 PUSH2 0x1F38 JUMP JUMPDEST DUP2 EQ PUSH2 0x2175 JUMPI PUSH1 0x0 DUP1 REVERT JUMPDEST POP JUMP INVALID LOG2 PUSH5 0x6970667358 0x22 SLT KECCAK256 0xB2 SWAP2 ADDMOD DUP13 0xDA 0xF6 0xDC 0xAD 0xC1 0xD1 TIMESTAMP EXP XOR PUSH25 0xEE6C42E03A4F4711F638770237E83AC749F364736F6C634300 ADDMOD SMOD STOP CALLER "
				},
				"gasEstimates": {
					"creation": {
						"codeDepositCost": "1724400",
						"executionCost": "23919",
						"totalCost": "1748319"
					},
					"external": {
						"addManufacturerProduct(address[],uint256[],bytes,bytes,uint128,uint128,uint32,uint32)": "infinite",
						"deleteManufacturerProduct(uint256)": "infinite",
						"getAllProductsOfManufacturer(address)": "infinite",
						"getManufacturerProductIds()": "infinite",
						"getSingleManufacturerProduct(uint256)": "infinite",
						"manufacturerAddressToproductsIdMapping(address,uint256)": "infinite",
						"manufacturerProductsIdToStructMapping(uint256)": "infinite",
						"updateManufacturerProductUints(uint256,uint128)": "infinite"
					}
				},
				"methodIdentifiers": {
					"addManufacturerProduct(address[],uint256[],bytes,bytes,uint128,uint128,uint32,uint32)": "448952e1",
					"deleteManufacturerProduct(uint256)": "9ea61c7e",
					"getAllProductsOfManufacturer(address)": "60715971",
					"getManufacturerProductIds()": "24e5e6aa",
					"getSingleManufacturerProduct(uint256)": "f6a989f8",
					"manufacturerAddressToproductsIdMapping(address,uint256)": "580f469c",
					"manufacturerProductsIdToStructMapping(uint256)": "65603df2",
					"updateManufacturerProductUints(uint256,uint128)": "d37889c6"
				}
			},
			"storageLayout": {
				"storage": [
					{
						"astId": 98,
						"contract": "contracts/manufacturerProduct.sol:manufacturerProduct",
						"label": "mpId",
						"offset": 0,
						"slot": "0",
						"type": "t_uint256"
					},
					{
						"astId": 104,
						"contract": "contracts/manufacturerProduct.sol:manufacturerProduct",
						"label": "manufacturerProductsIdToStructMapping",
						"offset": 0,
						"slot": "1",
						"type": "t_mapping(t_uint256,t_struct(manufacturerProduct)22_storage)"
					},
					{
						"astId": 110,
						"contract": "contracts/manufacturerProduct.sol:manufacturerProduct",
						"label": "manufacturerAddressToproductsIdMapping",
						"offset": 0,
						"slot": "2",
						"type": "t_mapping(t_address,t_array(t_uint256)dyn_storage)"
					}
				],
				"types": {
					"t_address": {
						"encoding": "inplace",
						"label": "address",
						"numberOfBytes": "20"
					},
					"t_array(t_address)dyn_storage": {
						"base": "t_address",
						"encoding": "dynamic_array",
						"label": "address[]",
						"numberOfBytes": "32"
					},
					"t_array(t_uint256)dyn_storage": {
						"base": "t_uint256",
						"encoding": "dynamic_array",
						"label": "uint256[]",
						"numberOfBytes": "32"
					},
					"t_bool": {
						"encoding": "inplace",
						"label": "bool",
						"numberOfBytes": "1"
					},
					"t_bytes_storage": {
						"encoding": "bytes",
						"label": "bytes",
						"numberOfBytes": "32"
					},
					"t_mapping(t_address,t_array(t_uint256)dyn_storage)": {
						"encoding": "mapping",
						"key": "t_address",
						"label": "mapping(address => uint256[])",
						"numberOfBytes": "32",
						"value": "t_array(t_uint256)dyn_storage"
					},
					"t_mapping(t_uint256,t_struct(manufacturerProduct)22_storage)": {
						"encoding": "mapping",
						"key": "t_uint256",
						"label": "mapping(uint256 => struct IManufacturerProduct.manufacturerProduct)",
						"numberOfBytes": "32",
						"value": "t_struct(manufacturerProduct)22_storage"
					},
					"t_struct(manufacturerProduct)22_storage": {
						"encoding": "inplace",
						"label": "struct IManufacturerProduct.manufacturerProduct",
						"members": [
							{
								"astId": 4,
								"contract": "contracts/manufacturerProduct.sol:manufacturerProduct",
								"label": "supplierAddress",
								"offset": 0,
								"slot": "0",
								"type": "t_array(t_address)dyn_storage"
							},
							{
								"astId": 7,
								"contract": "contracts/manufacturerProduct.sol:manufacturerProduct",
								"label": "smId",
								"offset": 0,
								"slot": "1",
								"type": "t_array(t_uint256)dyn_storage"
							},
							{
								"astId": 9,
								"contract": "contracts/manufacturerProduct.sol:manufacturerProduct",
								"label": "mp_name",
								"offset": 0,
								"slot": "2",
								"type": "t_bytes_storage"
							},
							{
								"astId": 11,
								"contract": "contracts/manufacturerProduct.sol:manufacturerProduct",
								"label": "mp_description",
								"offset": 0,
								"slot": "3",
								"type": "t_bytes_storage"
							},
							{
								"astId": 13,
								"contract": "contracts/manufacturerProduct.sol:manufacturerProduct",
								"label": "mp_unit",
								"offset": 0,
								"slot": "4",
								"type": "t_uint128"
							},
							{
								"astId": 15,
								"contract": "contracts/manufacturerProduct.sol:manufacturerProduct",
								"label": "mp_price",
								"offset": 16,
								"slot": "4",
								"type": "t_uint128"
							},
							{
								"astId": 17,
								"contract": "contracts/manufacturerProduct.sol:manufacturerProduct",
								"label": "mp_date",
								"offset": 0,
								"slot": "5",
								"type": "t_uint32"
							},
							{
								"astId": 19,
								"contract": "contracts/manufacturerProduct.sol:manufacturerProduct",
								"label": "mp_expiryDate",
								"offset": 4,
								"slot": "5",
								"type": "t_uint32"
							},
							{
								"astId": 21,
								"contract": "contracts/manufacturerProduct.sol:manufacturerProduct",
								"label": "mp_status",
								"offset": 8,
								"slot": "5",
								"type": "t_bool"
							}
						],
						"numberOfBytes": "192"
					},
					"t_uint128": {
						"encoding": "inplace",
						"label": "uint128",
						"numberOfBytes": "16"
					},
					"t_uint256": {
						"encoding": "inplace",
						"label": "uint256",
						"numberOfBytes": "32"
					},
					"t_uint32": {
						"encoding": "inplace",
						"label": "uint32",
						"numberOfBytes": "4"
					}
				}
			},
			"userdoc": {
				"kind": "user",
				"methods": {
					"addManufacturerProduct(address[],uint256[],bytes,bytes,uint128,uint128,uint32,uint32)": {
						"notice": "function to add manufacturer product"
					},
					"deleteManufacturerProduct(uint256)": {
						"notice": "function to delete manufacturer product (making the product Inactive)"
					},
					"getAllProductsOfManufacturer(address)": {
						"notice": "function to get all manufacturer products that it created on the platform"
					},
					"getManufacturerProductIds()": {
						"notice": "function to return manufacturer product IDs"
					},
					"getSingleManufacturerProduct(uint256)": {
						"notice": "function to return manufacturer' single product"
					},
					"manufacturerAddressToproductsIdMapping(address,uint256)": {
						"notice": "mapping user' address with all the created products"
					},
					"manufacturerProductsIdToStructMapping(uint256)": {
						"notice": "mapping product index with manufacturerProduct struct"
					},
					"updateManufacturerProductUints(uint256,uint128)": {
						"notice": "function to update manufacturer product units"
					}
				},
				"notice": "Uses IManufacturerProduct interface",
				"version": 1
			}
		}
	}
}