{
	"contracts/manufacturerDistributor.sol": {
		"manufacturerDistributor": {
			"abi": [
				{
					"inputs": [
						{
							"internalType": "address",
							"name": "",
							"type": "address"
						},
						{
							"internalType": "uint256",
							"name": "",
							"type": "uint256"
						}
					],
					"name": "distributorTosmIDMapping",
					"outputs": [
						{
							"internalType": "uint256",
							"name": "",
							"type": "uint256"
						}
					],
					"stateMutability": "view",
					"type": "function"
				},
				{
					"inputs": [
						{
							"internalType": "address",
							"name": "_distributorAddress",
							"type": "address"
						}
					],
					"name": "getAllmdIdForManufacturer",
					"outputs": [
						{
							"components": [
								{
									"internalType": "bytes",
									"name": "mp_id",
									"type": "bytes"
								},
								{
									"internalType": "address",
									"name": "m_address",
									"type": "address"
								},
								{
									"internalType": "address",
									"name": "d_address",
									"type": "address"
								},
								{
									"internalType": "bytes",
									"name": "dispatchTime",
									"type": "bytes"
								},
								{
									"internalType": "bytes",
									"name": "arrivalTime",
									"type": "bytes"
								}
							],
							"internalType": "struct IManufacturerDistributor.manufacturerDistributor[]",
							"name": "",
							"type": "tuple[]"
						}
					],
					"stateMutability": "view",
					"type": "function"
				},
				{
					"inputs": [
						{
							"internalType": "uint256",
							"name": "_mdid",
							"type": "uint256"
						}
					],
					"name": "getProduct",
					"outputs": [
						{
							"components": [
								{
									"internalType": "bytes",
									"name": "mp_id",
									"type": "bytes"
								},
								{
									"internalType": "address",
									"name": "m_address",
									"type": "address"
								},
								{
									"internalType": "address",
									"name": "d_address",
									"type": "address"
								},
								{
									"internalType": "bytes",
									"name": "dispatchTime",
									"type": "bytes"
								},
								{
									"internalType": "bytes",
									"name": "arrivalTime",
									"type": "bytes"
								}
							],
							"internalType": "struct IManufacturerDistributor.manufacturerDistributor",
							"name": "",
							"type": "tuple"
						}
					],
					"stateMutability": "view",
					"type": "function"
				},
				{
					"inputs": [],
					"name": "mdId",
					"outputs": [
						{
							"internalType": "uint256",
							"name": "",
							"type": "uint256"
						}
					],
					"stateMutability": "view",
					"type": "function"
				},
				{
					"inputs": [
						{
							"internalType": "uint256",
							"name": "",
							"type": "uint256"
						}
					],
					"name": "mdidToStructMapping",
					"outputs": [
						{
							"internalType": "bytes",
							"name": "mp_id",
							"type": "bytes"
						},
						{
							"internalType": "address",
							"name": "m_address",
							"type": "address"
						},
						{
							"internalType": "address",
							"name": "d_address",
							"type": "address"
						},
						{
							"internalType": "bytes",
							"name": "dispatchTime",
							"type": "bytes"
						},
						{
							"internalType": "bytes",
							"name": "arrivalTime",
							"type": "bytes"
						}
					],
					"stateMutability": "view",
					"type": "function"
				},
				{
					"inputs": [
						{
							"internalType": "uint256",
							"name": "_mdId",
							"type": "uint256"
						},
						{
							"internalType": "bytes",
							"name": "_arrivalTime",
							"type": "bytes"
						}
					],
					"name": "receiveProduct",
					"outputs": [],
					"stateMutability": "nonpayable",
					"type": "function"
				},
				{
					"inputs": [
						{
							"internalType": "bytes",
							"name": "_mp_id",
							"type": "bytes"
						},
						{
							"internalType": "address",
							"name": "_manufacturerAddress",
							"type": "address"
						},
						{
							"internalType": "address",
							"name": "_distributorAddress",
							"type": "address"
						},
						{
							"internalType": "bytes",
							"name": "_dispatchTime",
							"type": "bytes"
						},
						{
							"internalType": "bytes",
							"name": "_arrivalTime",
							"type": "bytes"
						}
					],
					"name": "transferproduct",
					"outputs": [],
					"stateMutability": "nonpayable",
					"type": "function"
				}
			],
			"devdoc": {
				"kind": "dev",
				"methods": {},
				"version": 1
			},
			"evm": {
				"assembly": "    /* \"contracts/manufacturerDistributor.sol\":125:1760  contract manufacturerDistributor is IManufacturerDistributor{... */\n  mstore(0x40, 0x80)\n    /* \"contracts/manufacturerDistributor.sol\":211:212  1 */\n  0x01\n    /* \"contracts/manufacturerDistributor.sol\":192:212  uint public mdId = 1 */\n  0x00\n  sstore\n    /* \"contracts/manufacturerDistributor.sol\":125:1760  contract manufacturerDistributor is IManufacturerDistributor{... */\n  callvalue\n  dup1\n  iszero\n  tag_1\n  jumpi\n  0x00\n  dup1\n  revert\ntag_1:\n  pop\n  dataSize(sub_0)\n  dup1\n  dataOffset(sub_0)\n  0x00\n  codecopy\n  0x00\n  return\nstop\n\nsub_0: assembly {\n        /* \"contracts/manufacturerDistributor.sol\":125:1760  contract manufacturerDistributor is IManufacturerDistributor{... */\n      mstore(0x40, 0x80)\n      callvalue\n      dup1\n      iszero\n      tag_1\n      jumpi\n      0x00\n      dup1\n      revert\n    tag_1:\n      pop\n      jumpi(tag_2, lt(calldatasize, 0x04))\n      shr(0xe0, calldataload(0x00))\n      dup1\n      0xb0363781\n      gt\n      tag_10\n      jumpi\n      dup1\n      0xb0363781\n      eq\n      tag_6\n      jumpi\n      dup1\n      0xb9db15b4\n      eq\n      tag_7\n      jumpi\n      dup1\n      0xcb59d430\n      eq\n      tag_8\n      jumpi\n      dup1\n      0xe3eba904\n      eq\n      tag_9\n      jumpi\n      jump(tag_2)\n    tag_10:\n      dup1\n      0x77c1b897\n      eq\n      tag_3\n      jumpi\n      dup1\n      0x83f48c96\n      eq\n      tag_4\n      jumpi\n      dup1\n      0x96fccba4\n      eq\n      tag_5\n      jumpi\n    tag_2:\n      0x00\n      dup1\n      revert\n        /* \"contracts/manufacturerDistributor.sol\":964:1125  function receiveProduct(uint _mdId, bytes memory _arrivalTime)external override{... */\n    tag_3:\n      tag_11\n      0x04\n      dup1\n      calldatasize\n      sub\n      dup2\n      add\n      swap1\n      tag_12\n      swap2\n      swap1\n      tag_13\n      jump\t// in\n    tag_12:\n      tag_14\n      jump\t// in\n    tag_11:\n      stop\n        /* \"contracts/manufacturerDistributor.sol\":485:543  mapping(address => uint[]) public distributorTosmIDMapping */\n    tag_4:\n      tag_15\n      0x04\n      dup1\n      calldatasize\n      sub\n      dup2\n      add\n      swap1\n      tag_16\n      swap2\n      swap1\n      tag_17\n      jump\t// in\n    tag_16:\n      tag_18\n      jump\t// in\n    tag_15:\n      mload(0x40)\n      tag_19\n      swap2\n      swap1\n      tag_20\n      jump\t// in\n    tag_19:\n      mload(0x40)\n      dup1\n      swap2\n      sub\n      swap1\n      return\n        /* \"contracts/manufacturerDistributor.sol\":1277:1757  function getAllmdIdForManufacturer(address _distributorAddress) public view returns(manufacturerDistributor[] memory){... */\n    tag_5:\n      tag_21\n      0x04\n      dup1\n      calldatasize\n      sub\n      dup2\n      add\n      swap1\n      tag_22\n      swap2\n      swap1\n      tag_23\n      jump\t// in\n    tag_22:\n      tag_24\n      jump\t// in\n    tag_21:\n      mload(0x40)\n      tag_25\n      swap2\n      swap1\n      tag_26\n      jump\t// in\n    tag_25:\n      mload(0x40)\n      dup1\n      swap2\n      sub\n      swap1\n      return\n        /* \"contracts/manufacturerDistributor.sol\":552:955  function transferproduct(bytes memory _mp_id, address _manufacturerAddress,address _distributorAddress,bytes memory _dispatchTime,bytes memory _arrivalTime)external override{... */\n    tag_6:\n      tag_27\n      0x04\n      dup1\n      calldatasize\n      sub\n      dup2\n      add\n      swap1\n      tag_28\n      swap2\n      swap1\n      tag_29\n      jump\t// in\n    tag_28:\n      tag_30\n      jump\t// in\n    tag_27:\n      stop\n        /* \"contracts/manufacturerDistributor.sol\":1132:1267  function getProduct(uint _mdid) public view returns(manufacturerDistributor memory){... */\n    tag_7:\n      tag_31\n      0x04\n      dup1\n      calldatasize\n      sub\n      dup2\n      add\n      swap1\n      tag_32\n      swap2\n      swap1\n      tag_33\n      jump\t// in\n    tag_32:\n      tag_34\n      jump\t// in\n    tag_31:\n      mload(0x40)\n      tag_35\n      swap2\n      swap1\n      tag_36\n      jump\t// in\n    tag_35:\n      mload(0x40)\n      dup1\n      swap2\n      sub\n      swap1\n      return\n        /* \"contracts/manufacturerDistributor.sol\":411:478  mapping(uint => manufacturerDistributor) public mdidToStructMapping */\n    tag_8:\n      tag_37\n      0x04\n      dup1\n      calldatasize\n      sub\n      dup2\n      add\n      swap1\n      tag_38\n      swap2\n      swap1\n      tag_33\n      jump\t// in\n    tag_38:\n      tag_39\n      jump\t// in\n    tag_37:\n      mload(0x40)\n      tag_40\n      swap6\n      swap5\n      swap4\n      swap3\n      swap2\n      swap1\n      tag_41\n      jump\t// in\n    tag_40:\n      mload(0x40)\n      dup1\n      swap2\n      sub\n      swap1\n      return\n        /* \"contracts/manufacturerDistributor.sol\":192:212  uint public mdId = 1 */\n    tag_9:\n      tag_42\n      tag_43\n      jump\t// in\n    tag_42:\n      mload(0x40)\n      tag_44\n      swap2\n      swap1\n      tag_20\n      jump\t// in\n    tag_44:\n      mload(0x40)\n      dup1\n      swap2\n      sub\n      swap1\n      return\n        /* \"contracts/manufacturerDistributor.sol\":964:1125  function receiveProduct(uint _mdId, bytes memory _arrivalTime)external override{... */\n    tag_14:\n        /* \"contracts/manufacturerDistributor.sol\":1095:1107  _arrivalTime */\n      dup1\n        /* \"contracts/manufacturerDistributor.sol\":1054:1073  mdidToStructMapping */\n      0x02\n        /* \"contracts/manufacturerDistributor.sol\":1054:1080  mdidToStructMapping[_mdId] */\n      0x00\n        /* \"contracts/manufacturerDistributor.sol\":1074:1079  _mdId */\n      dup5\n        /* \"contracts/manufacturerDistributor.sol\":1054:1080  mdidToStructMapping[_mdId] */\n      dup2\n      mstore\n      0x20\n      add\n      swap1\n      dup2\n      mstore\n      0x20\n      add\n      0x00\n      keccak256\n        /* \"contracts/manufacturerDistributor.sol\":1054:1092  mdidToStructMapping[_mdId].arrivalTime */\n      0x04\n      add\n        /* \"contracts/manufacturerDistributor.sol\":1054:1107  mdidToStructMapping[_mdId].arrivalTime = _arrivalTime */\n      swap1\n      dup2\n      tag_46\n      swap2\n      swap1\n      tag_47\n      jump\t// in\n    tag_46:\n      pop\n        /* \"contracts/manufacturerDistributor.sol\":964:1125  function receiveProduct(uint _mdId, bytes memory _arrivalTime)external override{... */\n      pop\n      pop\n      jump\t// out\n        /* \"contracts/manufacturerDistributor.sol\":485:543  mapping(address => uint[]) public distributorTosmIDMapping */\n    tag_18:\n      mstore(0x20, 0x03)\n      dup2\n      0x00\n      mstore\n      keccak256(0x00, 0x40)\n      dup2\n      dup2\n      sload\n      dup2\n      lt\n      tag_48\n      jumpi\n      0x00\n      dup1\n      revert\n    tag_48:\n      swap1\n      0x00\n      mstore\n      keccak256(0x00, 0x20)\n      add\n      0x00\n      swap2\n      pop\n      swap2\n      pop\n      pop\n      sload\n      dup2\n      jump\t// out\n        /* \"contracts/manufacturerDistributor.sol\":1277:1757  function getAllmdIdForManufacturer(address _distributorAddress) public view returns(manufacturerDistributor[] memory){... */\n    tag_24:\n        /* \"contracts/manufacturerDistributor.sol\":1361:1393  manufacturerDistributor[] memory */\n      0x60\n        /* \"contracts/manufacturerDistributor.sol\":1415:1437  uint[] memory mdIdData */\n      0x00\n        /* \"contracts/manufacturerDistributor.sol\":1440:1464  distributorTosmIDMapping */\n      0x03\n        /* \"contracts/manufacturerDistributor.sol\":1440:1485  distributorTosmIDMapping[_distributorAddress] */\n      0x00\n        /* \"contracts/manufacturerDistributor.sol\":1465:1484  _distributorAddress */\n      dup5\n        /* \"contracts/manufacturerDistributor.sol\":1440:1485  distributorTosmIDMapping[_distributorAddress] */\n      0xffffffffffffffffffffffffffffffffffffffff\n      and\n      0xffffffffffffffffffffffffffffffffffffffff\n      and\n      dup2\n      mstore\n      0x20\n      add\n      swap1\n      dup2\n      mstore\n      0x20\n      add\n      0x00\n      keccak256\n        /* \"contracts/manufacturerDistributor.sol\":1415:1485  uint[] memory mdIdData = distributorTosmIDMapping[_distributorAddress] */\n      dup1\n      sload\n      dup1\n      0x20\n      mul\n      0x20\n      add\n      mload(0x40)\n      swap1\n      dup2\n      add\n      0x40\n      mstore\n      dup1\n      swap3\n      swap2\n      swap1\n      dup2\n      dup2\n      mstore\n      0x20\n      add\n      dup3\n      dup1\n      sload\n      dup1\n      iszero\n      tag_51\n      jumpi\n      0x20\n      mul\n      dup3\n      add\n      swap2\n      swap1\n      0x00\n      mstore\n      keccak256(0x00, 0x20)\n      swap1\n    tag_52:\n      dup2\n      sload\n      dup2\n      mstore\n      0x20\n      add\n      swap1\n      0x01\n      add\n      swap1\n      dup1\n      dup4\n      gt\n      tag_52\n      jumpi\n    tag_51:\n      pop\n      pop\n      pop\n      pop\n      pop\n      swap1\n      pop\n        /* \"contracts/manufacturerDistributor.sol\":1496:1540  manufacturerDistributor[] memory mdIdDetails */\n      0x00\n        /* \"contracts/manufacturerDistributor.sol\":1573:1581  mdIdData */\n      dup2\n        /* \"contracts/manufacturerDistributor.sol\":1573:1588  mdIdData.length */\n      mload\n        /* \"contracts/manufacturerDistributor.sol\":1543:1589  new manufacturerDistributor[](mdIdData.length) */\n      0xffffffffffffffff\n      dup2\n      gt\n      iszero\n      tag_53\n      jumpi\n      tag_54\n      tag_55\n      jump\t// in\n    tag_54:\n    tag_53:\n      mload(0x40)\n      swap1\n      dup1\n      dup3\n      mstore\n      dup1\n      0x20\n      mul\n      0x20\n      add\n      dup3\n      add\n      0x40\n      mstore\n      dup1\n      iszero\n      tag_56\n      jumpi\n      dup2\n      0x20\n      add\n    tag_57:\n      tag_58\n      tag_59\n      jump\t// in\n    tag_58:\n      dup2\n      mstore\n      0x20\n      add\n      swap1\n      0x01\n      swap1\n      sub\n      swap1\n      dup2\n      tag_57\n      jumpi\n      swap1\n      pop\n    tag_56:\n      pop\n        /* \"contracts/manufacturerDistributor.sol\":1496:1589  manufacturerDistributor[] memory mdIdDetails = new manufacturerDistributor[](mdIdData.length) */\n      swap1\n      pop\n        /* \"contracts/manufacturerDistributor.sol\":1604:1610  uint i */\n      0x00\n        /* \"contracts/manufacturerDistributor.sol\":1600:1721  for(uint i=0;i<mdIdData.length;i++)... */\n    tag_60:\n        /* \"contracts/manufacturerDistributor.sol\":1615:1623  mdIdData */\n      dup3\n        /* \"contracts/manufacturerDistributor.sol\":1615:1630  mdIdData.length */\n      mload\n        /* \"contracts/manufacturerDistributor.sol\":1613:1614  i */\n      dup2\n        /* \"contracts/manufacturerDistributor.sol\":1613:1630  i<mdIdData.length */\n      lt\n        /* \"contracts/manufacturerDistributor.sol\":1600:1721  for(uint i=0;i<mdIdData.length;i++)... */\n      iszero\n      tag_61\n      jumpi\n        /* \"contracts/manufacturerDistributor.sol\":1677:1696  mdidToStructMapping */\n      0x02\n        /* \"contracts/manufacturerDistributor.sol\":1677:1709  mdidToStructMapping[mdIdData[i]] */\n      0x00\n        /* \"contracts/manufacturerDistributor.sol\":1697:1705  mdIdData */\n      dup5\n        /* \"contracts/manufacturerDistributor.sol\":1706:1707  i */\n      dup4\n        /* \"contracts/manufacturerDistributor.sol\":1697:1708  mdIdData[i] */\n      dup2\n      mload\n      dup2\n      lt\n      tag_63\n      jumpi\n      tag_64\n      tag_65\n      jump\t// in\n    tag_64:\n    tag_63:\n      0x20\n      mul\n      0x20\n      add\n      add\n      mload\n        /* \"contracts/manufacturerDistributor.sol\":1677:1709  mdidToStructMapping[mdIdData[i]] */\n      dup2\n      mstore\n      0x20\n      add\n      swap1\n      dup2\n      mstore\n      0x20\n      add\n      0x00\n      keccak256\n        /* \"contracts/manufacturerDistributor.sol\":1660:1709  mdIdDetails[i] = mdidToStructMapping[mdIdData[i]] */\n      mload(0x40)\n      dup1\n      0xa0\n      add\n      0x40\n      mstore\n      swap1\n      dup2\n      0x00\n      dup3\n      add\n      dup1\n      sload\n      tag_66\n      swap1\n      tag_67\n      jump\t// in\n    tag_66:\n      dup1\n      0x1f\n      add\n      0x20\n      dup1\n      swap2\n      div\n      mul\n      0x20\n      add\n      mload(0x40)\n      swap1\n      dup2\n      add\n      0x40\n      mstore\n      dup1\n      swap3\n      swap2\n      swap1\n      dup2\n      dup2\n      mstore\n      0x20\n      add\n      dup3\n      dup1\n      sload\n      tag_68\n      swap1\n      tag_67\n      jump\t// in\n    tag_68:\n      dup1\n      iszero\n      tag_69\n      jumpi\n      dup1\n      0x1f\n      lt\n      tag_70\n      jumpi\n      0x0100\n      dup1\n      dup4\n      sload\n      div\n      mul\n      dup4\n      mstore\n      swap2\n      0x20\n      add\n      swap2\n      jump(tag_69)\n    tag_70:\n      dup3\n      add\n      swap2\n      swap1\n      0x00\n      mstore\n      keccak256(0x00, 0x20)\n      swap1\n    tag_71:\n      dup2\n      sload\n      dup2\n      mstore\n      swap1\n      0x01\n      add\n      swap1\n      0x20\n      add\n      dup1\n      dup4\n      gt\n      tag_71\n      jumpi\n      dup3\n      swap1\n      sub\n      0x1f\n      and\n      dup3\n      add\n      swap2\n    tag_69:\n      pop\n      pop\n      pop\n      pop\n      pop\n      dup2\n      mstore\n      0x20\n      add\n      0x01\n      dup3\n      add\n      0x00\n      swap1\n      sload\n      swap1\n      0x0100\n      exp\n      swap1\n      div\n      0xffffffffffffffffffffffffffffffffffffffff\n      and\n      0xffffffffffffffffffffffffffffffffffffffff\n      and\n      0xffffffffffffffffffffffffffffffffffffffff\n      and\n      dup2\n      mstore\n      0x20\n      add\n      0x02\n      dup3\n      add\n      0x00\n      swap1\n      sload\n      swap1\n      0x0100\n      exp\n      swap1\n      div\n      0xffffffffffffffffffffffffffffffffffffffff\n      and\n      0xffffffffffffffffffffffffffffffffffffffff\n      and\n      0xffffffffffffffffffffffffffffffffffffffff\n      and\n      dup2\n      mstore\n      0x20\n      add\n      0x03\n      dup3\n      add\n      dup1\n      sload\n      tag_72\n      swap1\n      tag_67\n      jump\t// in\n    tag_72:\n      dup1\n      0x1f\n      add\n      0x20\n      dup1\n      swap2\n      div\n      mul\n      0x20\n      add\n      mload(0x40)\n      swap1\n      dup2\n      add\n      0x40\n      mstore\n      dup1\n      swap3\n      swap2\n      swap1\n      dup2\n      dup2\n      mstore\n      0x20\n      add\n      dup3\n      dup1\n      sload\n      tag_73\n      swap1\n      tag_67\n      jump\t// in\n    tag_73:\n      dup1\n      iszero\n      tag_74\n      jumpi\n      dup1\n      0x1f\n      lt\n      tag_75\n      jumpi\n      0x0100\n      dup1\n      dup4\n      sload\n      div\n      mul\n      dup4\n      mstore\n      swap2\n      0x20\n      add\n      swap2\n      jump(tag_74)\n    tag_75:\n      dup3\n      add\n      swap2\n      swap1\n      0x00\n      mstore\n      keccak256(0x00, 0x20)\n      swap1\n    tag_76:\n      dup2\n      sload\n      dup2\n      mstore\n      swap1\n      0x01\n      add\n      swap1\n      0x20\n      add\n      dup1\n      dup4\n      gt\n      tag_76\n      jumpi\n      dup3\n      swap1\n      sub\n      0x1f\n      and\n      dup3\n      add\n      swap2\n    tag_74:\n      pop\n      pop\n      pop\n      pop\n      pop\n      dup2\n      mstore\n      0x20\n      add\n      0x04\n      dup3\n      add\n      dup1\n      sload\n      tag_77\n      swap1\n      tag_67\n      jump\t// in\n    tag_77:\n      dup1\n      0x1f\n      add\n      0x20\n      dup1\n      swap2\n      div\n      mul\n      0x20\n      add\n      mload(0x40)\n      swap1\n      dup2\n      add\n      0x40\n      mstore\n      dup1\n      swap3\n      swap2\n      swap1\n      dup2\n      dup2\n      mstore\n      0x20\n      add\n      dup3\n      dup1\n      sload\n      tag_78\n      swap1\n      tag_67\n      jump\t// in\n    tag_78:\n      dup1\n      iszero\n      tag_79\n      jumpi\n      dup1\n      0x1f\n      lt\n      tag_80\n      jumpi\n      0x0100\n      dup1\n      dup4\n      sload\n      div\n      mul\n      dup4\n      mstore\n      swap2\n      0x20\n      add\n      swap2\n      jump(tag_79)\n    tag_80:\n      dup3\n      add\n      swap2\n      swap1\n      0x00\n      mstore\n      keccak256(0x00, 0x20)\n      swap1\n    tag_81:\n      dup2\n      sload\n      dup2\n      mstore\n      swap1\n      0x01\n      add\n      swap1\n      0x20\n      add\n      dup1\n      dup4\n      gt\n      tag_81\n      jumpi\n      dup3\n      swap1\n      sub\n      0x1f\n      and\n      dup3\n      add\n      swap2\n    tag_79:\n      pop\n      pop\n      pop\n      pop\n      pop\n      dup2\n      mstore\n      pop\n      pop\n        /* \"contracts/manufacturerDistributor.sol\":1660:1671  mdIdDetails */\n      dup3\n        /* \"contracts/manufacturerDistributor.sol\":1672:1673  i */\n      dup3\n        /* \"contracts/manufacturerDistributor.sol\":1660:1674  mdIdDetails[i] */\n      dup2\n      mload\n      dup2\n      lt\n      tag_82\n      jumpi\n      tag_83\n      tag_65\n      jump\t// in\n    tag_83:\n    tag_82:\n      0x20\n      mul\n      0x20\n      add\n      add\n        /* \"contracts/manufacturerDistributor.sol\":1660:1709  mdIdDetails[i] = mdidToStructMapping[mdIdData[i]] */\n      dup2\n      swap1\n      mstore\n      pop\n        /* \"contracts/manufacturerDistributor.sol\":1631:1634  i++ */\n      dup1\n      dup1\n      tag_84\n      swap1\n      tag_85\n      jump\t// in\n    tag_84:\n      swap2\n      pop\n      pop\n        /* \"contracts/manufacturerDistributor.sol\":1600:1721  for(uint i=0;i<mdIdData.length;i++)... */\n      jump(tag_60)\n    tag_61:\n      pop\n        /* \"contracts/manufacturerDistributor.sol\":1738:1749  mdIdDetails */\n      dup1\n        /* \"contracts/manufacturerDistributor.sol\":1731:1749  return mdIdDetails */\n      swap3\n      pop\n      pop\n      pop\n        /* \"contracts/manufacturerDistributor.sol\":1277:1757  function getAllmdIdForManufacturer(address _distributorAddress) public view returns(manufacturerDistributor[] memory){... */\n      swap2\n      swap1\n      pop\n      jump\t// out\n        /* \"contracts/manufacturerDistributor.sol\":552:955  function transferproduct(bytes memory _mp_id, address _manufacturerAddress,address _distributorAddress,bytes memory _dispatchTime,bytes memory _arrivalTime)external override{... */\n    tag_30:\n        /* \"contracts/manufacturerDistributor.sol\":764:863  manufacturerDistributor(_mp_id,_manufacturerAddress,_distributorAddress,_dispatchTime,_arrivalTime) */\n      mload(0x40)\n      dup1\n      0xa0\n      add\n      0x40\n      mstore\n      dup1\n        /* \"contracts/manufacturerDistributor.sol\":788:794  _mp_id */\n      dup7\n        /* \"contracts/manufacturerDistributor.sol\":764:863  manufacturerDistributor(_mp_id,_manufacturerAddress,_distributorAddress,_dispatchTime,_arrivalTime) */\n      dup2\n      mstore\n      0x20\n      add\n        /* \"contracts/manufacturerDistributor.sol\":795:815  _manufacturerAddress */\n      dup6\n        /* \"contracts/manufacturerDistributor.sol\":764:863  manufacturerDistributor(_mp_id,_manufacturerAddress,_distributorAddress,_dispatchTime,_arrivalTime) */\n      0xffffffffffffffffffffffffffffffffffffffff\n      and\n      dup2\n      mstore\n      0x20\n      add\n        /* \"contracts/manufacturerDistributor.sol\":816:835  _distributorAddress */\n      dup5\n        /* \"contracts/manufacturerDistributor.sol\":764:863  manufacturerDistributor(_mp_id,_manufacturerAddress,_distributorAddress,_dispatchTime,_arrivalTime) */\n      0xffffffffffffffffffffffffffffffffffffffff\n      and\n      dup2\n      mstore\n      0x20\n      add\n        /* \"contracts/manufacturerDistributor.sol\":836:849  _dispatchTime */\n      dup4\n        /* \"contracts/manufacturerDistributor.sol\":764:863  manufacturerDistributor(_mp_id,_manufacturerAddress,_distributorAddress,_dispatchTime,_arrivalTime) */\n      dup2\n      mstore\n      0x20\n      add\n        /* \"contracts/manufacturerDistributor.sol\":850:862  _arrivalTime */\n      dup3\n        /* \"contracts/manufacturerDistributor.sol\":764:863  manufacturerDistributor(_mp_id,_manufacturerAddress,_distributorAddress,_dispatchTime,_arrivalTime) */\n      dup2\n      mstore\n      pop\n        /* \"contracts/manufacturerDistributor.sol\":736:755  mdidToStructMapping */\n      0x02\n        /* \"contracts/manufacturerDistributor.sol\":736:761  mdidToStructMapping[mdId] */\n      0x00\n        /* \"contracts/manufacturerDistributor.sol\":756:760  mdId */\n      dup1\n      sload\n        /* \"contracts/manufacturerDistributor.sol\":736:761  mdidToStructMapping[mdId] */\n      dup2\n      mstore\n      0x20\n      add\n      swap1\n      dup2\n      mstore\n      0x20\n      add\n      0x00\n      keccak256\n        /* \"contracts/manufacturerDistributor.sol\":736:863  mdidToStructMapping[mdId] = manufacturerDistributor(_mp_id,_manufacturerAddress,_distributorAddress,_dispatchTime,_arrivalTime) */\n      0x00\n      dup3\n      add\n      mload\n      dup2\n      0x00\n      add\n      swap1\n      dup2\n      tag_87\n      swap2\n      swap1\n      tag_47\n      jump\t// in\n    tag_87:\n      pop\n      0x20\n      dup3\n      add\n      mload\n      dup2\n      0x01\n      add\n      exp(0x0100, 0x00)\n      dup2\n      sload\n      dup2\n      0xffffffffffffffffffffffffffffffffffffffff\n      mul\n      not\n      and\n      swap1\n      dup4\n      0xffffffffffffffffffffffffffffffffffffffff\n      and\n      mul\n      or\n      swap1\n      sstore\n      pop\n      0x40\n      dup3\n      add\n      mload\n      dup2\n      0x02\n      add\n      exp(0x0100, 0x00)\n      dup2\n      sload\n      dup2\n      0xffffffffffffffffffffffffffffffffffffffff\n      mul\n      not\n      and\n      swap1\n      dup4\n      0xffffffffffffffffffffffffffffffffffffffff\n      and\n      mul\n      or\n      swap1\n      sstore\n      pop\n      0x60\n      dup3\n      add\n      mload\n      dup2\n      0x03\n      add\n      swap1\n      dup2\n      tag_88\n      swap2\n      swap1\n      tag_47\n      jump\t// in\n    tag_88:\n      pop\n      0x80\n      dup3\n      add\n      mload\n      dup2\n      0x04\n      add\n      swap1\n      dup2\n      tag_89\n      swap2\n      swap1\n      tag_47\n      jump\t// in\n    tag_89:\n      pop\n      swap1\n      pop\n      pop\n        /* \"contracts/manufacturerDistributor.sol\":874:898  distributorTosmIDMapping */\n      0x03\n        /* \"contracts/manufacturerDistributor.sol\":874:919  distributorTosmIDMapping[_distributorAddress] */\n      0x00\n        /* \"contracts/manufacturerDistributor.sol\":899:918  _distributorAddress */\n      dup5\n        /* \"contracts/manufacturerDistributor.sol\":874:919  distributorTosmIDMapping[_distributorAddress] */\n      0xffffffffffffffffffffffffffffffffffffffff\n      and\n      0xffffffffffffffffffffffffffffffffffffffff\n      and\n      dup2\n      mstore\n      0x20\n      add\n      swap1\n      dup2\n      mstore\n      0x20\n      add\n      0x00\n      keccak256\n        /* \"contracts/manufacturerDistributor.sol\":925:929  mdId */\n      sload(0x00)\n        /* \"contracts/manufacturerDistributor.sol\":874:930  distributorTosmIDMapping[_distributorAddress].push(mdId) */\n      swap1\n      dup1\n      0x01\n      dup2\n      sload\n      add\n      dup1\n      dup3\n      sstore\n      dup1\n      swap2\n      pop\n      pop\n      0x01\n      swap1\n      sub\n      swap1\n      0x00\n      mstore\n      keccak256(0x00, 0x20)\n      add\n      0x00\n      swap1\n      swap2\n      swap1\n      swap2\n      swap1\n      swap2\n      pop\n      sstore\n        /* \"contracts/manufacturerDistributor.sol\":941:945  mdId */\n      0x00\n      dup1\n        /* \"contracts/manufacturerDistributor.sol\":941:947  mdId++ */\n      dup2\n      sload\n      dup1\n      swap3\n      swap2\n      swap1\n      tag_91\n      swap1\n      tag_85\n      jump\t// in\n    tag_91:\n      swap2\n      swap1\n      pop\n      sstore\n      pop\n        /* \"contracts/manufacturerDistributor.sol\":552:955  function transferproduct(bytes memory _mp_id, address _manufacturerAddress,address _distributorAddress,bytes memory _dispatchTime,bytes memory _arrivalTime)external override{... */\n      pop\n      pop\n      pop\n      pop\n      pop\n      jump\t// out\n        /* \"contracts/manufacturerDistributor.sol\":1132:1267  function getProduct(uint _mdid) public view returns(manufacturerDistributor memory){... */\n    tag_34:\n        /* \"contracts/manufacturerDistributor.sol\":1184:1214  manufacturerDistributor memory */\n      tag_92\n      tag_59\n      jump\t// in\n    tag_92:\n        /* \"contracts/manufacturerDistributor.sol\":1233:1252  mdidToStructMapping */\n      0x02\n        /* \"contracts/manufacturerDistributor.sol\":1233:1259  mdidToStructMapping[_mdid] */\n      0x00\n        /* \"contracts/manufacturerDistributor.sol\":1253:1258  _mdid */\n      dup4\n        /* \"contracts/manufacturerDistributor.sol\":1233:1259  mdidToStructMapping[_mdid] */\n      dup2\n      mstore\n      0x20\n      add\n      swap1\n      dup2\n      mstore\n      0x20\n      add\n      0x00\n      keccak256\n        /* \"contracts/manufacturerDistributor.sol\":1226:1259  return mdidToStructMapping[_mdid] */\n      mload(0x40)\n      dup1\n      0xa0\n      add\n      0x40\n      mstore\n      swap1\n      dup2\n      0x00\n      dup3\n      add\n      dup1\n      sload\n      tag_94\n      swap1\n      tag_67\n      jump\t// in\n    tag_94:\n      dup1\n      0x1f\n      add\n      0x20\n      dup1\n      swap2\n      div\n      mul\n      0x20\n      add\n      mload(0x40)\n      swap1\n      dup2\n      add\n      0x40\n      mstore\n      dup1\n      swap3\n      swap2\n      swap1\n      dup2\n      dup2\n      mstore\n      0x20\n      add\n      dup3\n      dup1\n      sload\n      tag_95\n      swap1\n      tag_67\n      jump\t// in\n    tag_95:\n      dup1\n      iszero\n      tag_96\n      jumpi\n      dup1\n      0x1f\n      lt\n      tag_97\n      jumpi\n      0x0100\n      dup1\n      dup4\n      sload\n      div\n      mul\n      dup4\n      mstore\n      swap2\n      0x20\n      add\n      swap2\n      jump(tag_96)\n    tag_97:\n      dup3\n      add\n      swap2\n      swap1\n      0x00\n      mstore\n      keccak256(0x00, 0x20)\n      swap1\n    tag_98:\n      dup2\n      sload\n      dup2\n      mstore\n      swap1\n      0x01\n      add\n      swap1\n      0x20\n      add\n      dup1\n      dup4\n      gt\n      tag_98\n      jumpi\n      dup3\n      swap1\n      sub\n      0x1f\n      and\n      dup3\n      add\n      swap2\n    tag_96:\n      pop\n      pop\n      pop\n      pop\n      pop\n      dup2\n      mstore\n      0x20\n      add\n      0x01\n      dup3\n      add\n      0x00\n      swap1\n      sload\n      swap1\n      0x0100\n      exp\n      swap1\n      div\n      0xffffffffffffffffffffffffffffffffffffffff\n      and\n      0xffffffffffffffffffffffffffffffffffffffff\n      and\n      0xffffffffffffffffffffffffffffffffffffffff\n      and\n      dup2\n      mstore\n      0x20\n      add\n      0x02\n      dup3\n      add\n      0x00\n      swap1\n      sload\n      swap1\n      0x0100\n      exp\n      swap1\n      div\n      0xffffffffffffffffffffffffffffffffffffffff\n      and\n      0xffffffffffffffffffffffffffffffffffffffff\n      and\n      0xffffffffffffffffffffffffffffffffffffffff\n      and\n      dup2\n      mstore\n      0x20\n      add\n      0x03\n      dup3\n      add\n      dup1\n      sload\n      tag_99\n      swap1\n      tag_67\n      jump\t// in\n    tag_99:\n      dup1\n      0x1f\n      add\n      0x20\n      dup1\n      swap2\n      div\n      mul\n      0x20\n      add\n      mload(0x40)\n      swap1\n      dup2\n      add\n      0x40\n      mstore\n      dup1\n      swap3\n      swap2\n      swap1\n      dup2\n      dup2\n      mstore\n      0x20\n      add\n      dup3\n      dup1\n      sload\n      tag_100\n      swap1\n      tag_67\n      jump\t// in\n    tag_100:\n      dup1\n      iszero\n      tag_101\n      jumpi\n      dup1\n      0x1f\n      lt\n      tag_102\n      jumpi\n      0x0100\n      dup1\n      dup4\n      sload\n      div\n      mul\n      dup4\n      mstore\n      swap2\n      0x20\n      add\n      swap2\n      jump(tag_101)\n    tag_102:\n      dup3\n      add\n      swap2\n      swap1\n      0x00\n      mstore\n      keccak256(0x00, 0x20)\n      swap1\n    tag_103:\n      dup2\n      sload\n      dup2\n      mstore\n      swap1\n      0x01\n      add\n      swap1\n      0x20\n      add\n      dup1\n      dup4\n      gt\n      tag_103\n      jumpi\n      dup3\n      swap1\n      sub\n      0x1f\n      and\n      dup3\n      add\n      swap2\n    tag_101:\n      pop\n      pop\n      pop\n      pop\n      pop\n      dup2\n      mstore\n      0x20\n      add\n      0x04\n      dup3\n      add\n      dup1\n      sload\n      tag_104\n      swap1\n      tag_67\n      jump\t// in\n    tag_104:\n      dup1\n      0x1f\n      add\n      0x20\n      dup1\n      swap2\n      div\n      mul\n      0x20\n      add\n      mload(0x40)\n      swap1\n      dup2\n      add\n      0x40\n      mstore\n      dup1\n      swap3\n      swap2\n      swap1\n      dup2\n      dup2\n      mstore\n      0x20\n      add\n      dup3\n      dup1\n      sload\n      tag_105\n      swap1\n      tag_67\n      jump\t// in\n    tag_105:\n      dup1\n      iszero\n      tag_106\n      jumpi\n      dup1\n      0x1f\n      lt\n      tag_107\n      jumpi\n      0x0100\n      dup1\n      dup4\n      sload\n      div\n      mul\n      dup4\n      mstore\n      swap2\n      0x20\n      add\n      swap2\n      jump(tag_106)\n    tag_107:\n      dup3\n      add\n      swap2\n      swap1\n      0x00\n      mstore\n      keccak256(0x00, 0x20)\n      swap1\n    tag_108:\n      dup2\n      sload\n      dup2\n      mstore\n      swap1\n      0x01\n      add\n      swap1\n      0x20\n      add\n      dup1\n      dup4\n      gt\n      tag_108\n      jumpi\n      dup3\n      swap1\n      sub\n      0x1f\n      and\n      dup3\n      add\n      swap2\n    tag_106:\n      pop\n      pop\n      pop\n      pop\n      pop\n      dup2\n      mstore\n      pop\n      pop\n      swap1\n      pop\n        /* \"contracts/manufacturerDistributor.sol\":1132:1267  function getProduct(uint _mdid) public view returns(manufacturerDistributor memory){... */\n      swap2\n      swap1\n      pop\n      jump\t// out\n        /* \"contracts/manufacturerDistributor.sol\":411:478  mapping(uint => manufacturerDistributor) public mdidToStructMapping */\n    tag_39:\n      mstore(0x20, 0x02)\n      dup1\n      0x00\n      mstore\n      keccak256(0x00, 0x40)\n      0x00\n      swap2\n      pop\n      swap1\n      pop\n      dup1\n      0x00\n      add\n      dup1\n      sload\n      tag_109\n      swap1\n      tag_67\n      jump\t// in\n    tag_109:\n      dup1\n      0x1f\n      add\n      0x20\n      dup1\n      swap2\n      div\n      mul\n      0x20\n      add\n      mload(0x40)\n      swap1\n      dup2\n      add\n      0x40\n      mstore\n      dup1\n      swap3\n      swap2\n      swap1\n      dup2\n      dup2\n      mstore\n      0x20\n      add\n      dup3\n      dup1\n      sload\n      tag_110\n      swap1\n      tag_67\n      jump\t// in\n    tag_110:\n      dup1\n      iszero\n      tag_111\n      jumpi\n      dup1\n      0x1f\n      lt\n      tag_112\n      jumpi\n      0x0100\n      dup1\n      dup4\n      sload\n      div\n      mul\n      dup4\n      mstore\n      swap2\n      0x20\n      add\n      swap2\n      jump(tag_111)\n    tag_112:\n      dup3\n      add\n      swap2\n      swap1\n      0x00\n      mstore\n      keccak256(0x00, 0x20)\n      swap1\n    tag_113:\n      dup2\n      sload\n      dup2\n      mstore\n      swap1\n      0x01\n      add\n      swap1\n      0x20\n      add\n      dup1\n      dup4\n      gt\n      tag_113\n      jumpi\n      dup3\n      swap1\n      sub\n      0x1f\n      and\n      dup3\n      add\n      swap2\n    tag_111:\n      pop\n      pop\n      pop\n      pop\n      pop\n      swap1\n      dup1\n      0x01\n      add\n      0x00\n      swap1\n      sload\n      swap1\n      0x0100\n      exp\n      swap1\n      div\n      0xffffffffffffffffffffffffffffffffffffffff\n      and\n      swap1\n      dup1\n      0x02\n      add\n      0x00\n      swap1\n      sload\n      swap1\n      0x0100\n      exp\n      swap1\n      div\n      0xffffffffffffffffffffffffffffffffffffffff\n      and\n      swap1\n      dup1\n      0x03\n      add\n      dup1\n      sload\n      tag_114\n      swap1\n      tag_67\n      jump\t// in\n    tag_114:\n      dup1\n      0x1f\n      add\n      0x20\n      dup1\n      swap2\n      div\n      mul\n      0x20\n      add\n      mload(0x40)\n      swap1\n      dup2\n      add\n      0x40\n      mstore\n      dup1\n      swap3\n      swap2\n      swap1\n      dup2\n      dup2\n      mstore\n      0x20\n      add\n      dup3\n      dup1\n      sload\n      tag_115\n      swap1\n      tag_67\n      jump\t// in\n    tag_115:\n      dup1\n      iszero\n      tag_116\n      jumpi\n      dup1\n      0x1f\n      lt\n      tag_117\n      jumpi\n      0x0100\n      dup1\n      dup4\n      sload\n      div\n      mul\n      dup4\n      mstore\n      swap2\n      0x20\n      add\n      swap2\n      jump(tag_116)\n    tag_117:\n      dup3\n      add\n      swap2\n      swap1\n      0x00\n      mstore\n      keccak256(0x00, 0x20)\n      swap1\n    tag_118:\n      dup2\n      sload\n      dup2\n      mstore\n      swap1\n      0x01\n      add\n      swap1\n      0x20\n      add\n      dup1\n      dup4\n      gt\n      tag_118\n      jumpi\n      dup3\n      swap1\n      sub\n      0x1f\n      and\n      dup3\n      add\n      swap2\n    tag_116:\n      pop\n      pop\n      pop\n      pop\n      pop\n      swap1\n      dup1\n      0x04\n      add\n      dup1\n      sload\n      tag_119\n      swap1\n      tag_67\n      jump\t// in\n    tag_119:\n      dup1\n      0x1f\n      add\n      0x20\n      dup1\n      swap2\n      div\n      mul\n      0x20\n      add\n      mload(0x40)\n      swap1\n      dup2\n      add\n      0x40\n      mstore\n      dup1\n      swap3\n      swap2\n      swap1\n      dup2\n      dup2\n      mstore\n      0x20\n      add\n      dup3\n      dup1\n      sload\n      tag_120\n      swap1\n      tag_67\n      jump\t// in\n    tag_120:\n      dup1\n      iszero\n      tag_121\n      jumpi\n      dup1\n      0x1f\n      lt\n      tag_122\n      jumpi\n      0x0100\n      dup1\n      dup4\n      sload\n      div\n      mul\n      dup4\n      mstore\n      swap2\n      0x20\n      add\n      swap2\n      jump(tag_121)\n    tag_122:\n      dup3\n      add\n      swap2\n      swap1\n      0x00\n      mstore\n      keccak256(0x00, 0x20)\n      swap1\n    tag_123:\n      dup2\n      sload\n      dup2\n      mstore\n      swap1\n      0x01\n      add\n      swap1\n      0x20\n      add\n      dup1\n      dup4\n      gt\n      tag_123\n      jumpi\n      dup3\n      swap1\n      sub\n      0x1f\n      and\n      dup3\n      add\n      swap2\n    tag_121:\n      pop\n      pop\n      pop\n      pop\n      pop\n      swap1\n      pop\n      dup6\n      jump\t// out\n        /* \"contracts/manufacturerDistributor.sol\":192:212  uint public mdId = 1 */\n    tag_43:\n      sload(0x00)\n      dup2\n      jump\t// out\n    tag_59:\n      mload(0x40)\n      dup1\n      0xa0\n      add\n      0x40\n      mstore\n      dup1\n      0x60\n      dup2\n      mstore\n      0x20\n      add\n      and(0xffffffffffffffffffffffffffffffffffffffff, 0x00)\n      dup2\n      mstore\n      0x20\n      add\n      and(0xffffffffffffffffffffffffffffffffffffffff, 0x00)\n      dup2\n      mstore\n      0x20\n      add\n      0x60\n      dup2\n      mstore\n      0x20\n      add\n      0x60\n      dup2\n      mstore\n      pop\n      swap1\n      jump\t// out\n        /* \"#utility.yul\":7:82   */\n    tag_124:\n        /* \"#utility.yul\":40:46   */\n      0x00\n        /* \"#utility.yul\":73:75   */\n      0x40\n        /* \"#utility.yul\":67:76   */\n      mload\n        /* \"#utility.yul\":57:76   */\n      swap1\n      pop\n        /* \"#utility.yul\":7:82   */\n      swap1\n      jump\t// out\n        /* \"#utility.yul\":88:205   */\n    tag_125:\n        /* \"#utility.yul\":197:198   */\n      0x00\n        /* \"#utility.yul\":194:195   */\n      dup1\n        /* \"#utility.yul\":187:199   */\n      revert\n        /* \"#utility.yul\":211:328   */\n    tag_126:\n        /* \"#utility.yul\":320:321   */\n      0x00\n        /* \"#utility.yul\":317:318   */\n      dup1\n        /* \"#utility.yul\":310:322   */\n      revert\n        /* \"#utility.yul\":334:411   */\n    tag_127:\n        /* \"#utility.yul\":371:378   */\n      0x00\n        /* \"#utility.yul\":400:405   */\n      dup2\n        /* \"#utility.yul\":389:405   */\n      swap1\n      pop\n        /* \"#utility.yul\":334:411   */\n      swap2\n      swap1\n      pop\n      jump\t// out\n        /* \"#utility.yul\":417:539   */\n    tag_128:\n        /* \"#utility.yul\":490:514   */\n      tag_183\n        /* \"#utility.yul\":508:513   */\n      dup2\n        /* \"#utility.yul\":490:514   */\n      tag_127\n      jump\t// in\n    tag_183:\n        /* \"#utility.yul\":483:488   */\n      dup2\n        /* \"#utility.yul\":480:515   */\n      eq\n        /* \"#utility.yul\":470:533   */\n      tag_184\n      jumpi\n        /* \"#utility.yul\":529:530   */\n      0x00\n        /* \"#utility.yul\":526:527   */\n      dup1\n        /* \"#utility.yul\":519:531   */\n      revert\n        /* \"#utility.yul\":470:533   */\n    tag_184:\n        /* \"#utility.yul\":417:539   */\n      pop\n      jump\t// out\n        /* \"#utility.yul\":545:684   */\n    tag_129:\n        /* \"#utility.yul\":591:596   */\n      0x00\n        /* \"#utility.yul\":629:635   */\n      dup2\n        /* \"#utility.yul\":616:636   */\n      calldataload\n        /* \"#utility.yul\":607:636   */\n      swap1\n      pop\n        /* \"#utility.yul\":645:678   */\n      tag_186\n        /* \"#utility.yul\":672:677   */\n      dup2\n        /* \"#utility.yul\":645:678   */\n      tag_128\n      jump\t// in\n    tag_186:\n        /* \"#utility.yul\":545:684   */\n      swap3\n      swap2\n      pop\n      pop\n      jump\t// out\n        /* \"#utility.yul\":690:807   */\n    tag_130:\n        /* \"#utility.yul\":799:800   */\n      0x00\n        /* \"#utility.yul\":796:797   */\n      dup1\n        /* \"#utility.yul\":789:801   */\n      revert\n        /* \"#utility.yul\":813:930   */\n    tag_131:\n        /* \"#utility.yul\":922:923   */\n      0x00\n        /* \"#utility.yul\":919:920   */\n      dup1\n        /* \"#utility.yul\":912:924   */\n      revert\n        /* \"#utility.yul\":936:1038   */\n    tag_132:\n        /* \"#utility.yul\":977:983   */\n      0x00\n        /* \"#utility.yul\":1028:1030   */\n      0x1f\n        /* \"#utility.yul\":1024:1031   */\n      not\n        /* \"#utility.yul\":1019:1021   */\n      0x1f\n        /* \"#utility.yul\":1012:1017   */\n      dup4\n        /* \"#utility.yul\":1008:1022   */\n      add\n        /* \"#utility.yul\":1004:1032   */\n      and\n        /* \"#utility.yul\":994:1032   */\n      swap1\n      pop\n        /* \"#utility.yul\":936:1038   */\n      swap2\n      swap1\n      pop\n      jump\t// out\n        /* \"#utility.yul\":1044:1224   */\n    tag_55:\n        /* \"#utility.yul\":1092:1169   */\n      0x4e487b7100000000000000000000000000000000000000000000000000000000\n        /* \"#utility.yul\":1089:1090   */\n      0x00\n        /* \"#utility.yul\":1082:1170   */\n      mstore\n        /* \"#utility.yul\":1189:1193   */\n      0x41\n        /* \"#utility.yul\":1186:1187   */\n      0x04\n        /* \"#utility.yul\":1179:1194   */\n      mstore\n        /* \"#utility.yul\":1213:1217   */\n      0x24\n        /* \"#utility.yul\":1210:1211   */\n      0x00\n        /* \"#utility.yul\":1203:1218   */\n      revert\n        /* \"#utility.yul\":1230:1511   */\n    tag_133:\n        /* \"#utility.yul\":1313:1340   */\n      tag_192\n        /* \"#utility.yul\":1335:1339   */\n      dup3\n        /* \"#utility.yul\":1313:1340   */\n      tag_132\n      jump\t// in\n    tag_192:\n        /* \"#utility.yul\":1305:1311   */\n      dup2\n        /* \"#utility.yul\":1301:1341   */\n      add\n        /* \"#utility.yul\":1443:1449   */\n      dup2\n        /* \"#utility.yul\":1431:1441   */\n      dup2\n        /* \"#utility.yul\":1428:1450   */\n      lt\n        /* \"#utility.yul\":1407:1425   */\n      0xffffffffffffffff\n        /* \"#utility.yul\":1395:1405   */\n      dup3\n        /* \"#utility.yul\":1392:1426   */\n      gt\n        /* \"#utility.yul\":1389:1451   */\n      or\n        /* \"#utility.yul\":1386:1474   */\n      iszero\n      tag_193\n      jumpi\n        /* \"#utility.yul\":1454:1472   */\n      tag_194\n      tag_55\n      jump\t// in\n    tag_194:\n        /* \"#utility.yul\":1386:1474   */\n    tag_193:\n        /* \"#utility.yul\":1494:1504   */\n      dup1\n        /* \"#utility.yul\":1490:1492   */\n      0x40\n        /* \"#utility.yul\":1483:1505   */\n      mstore\n        /* \"#utility.yul\":1273:1511   */\n      pop\n        /* \"#utility.yul\":1230:1511   */\n      pop\n      pop\n      jump\t// out\n        /* \"#utility.yul\":1517:1646   */\n    tag_134:\n        /* \"#utility.yul\":1551:1557   */\n      0x00\n        /* \"#utility.yul\":1578:1598   */\n      tag_196\n      tag_124\n      jump\t// in\n    tag_196:\n        /* \"#utility.yul\":1568:1598   */\n      swap1\n      pop\n        /* \"#utility.yul\":1607:1640   */\n      tag_197\n        /* \"#utility.yul\":1635:1639   */\n      dup3\n        /* \"#utility.yul\":1627:1633   */\n      dup3\n        /* \"#utility.yul\":1607:1640   */\n      tag_133\n      jump\t// in\n    tag_197:\n        /* \"#utility.yul\":1517:1646   */\n      swap2\n      swap1\n      pop\n      jump\t// out\n        /* \"#utility.yul\":1652:1959   */\n    tag_135:\n        /* \"#utility.yul\":1713:1717   */\n      0x00\n        /* \"#utility.yul\":1803:1821   */\n      0xffffffffffffffff\n        /* \"#utility.yul\":1795:1801   */\n      dup3\n        /* \"#utility.yul\":1792:1822   */\n      gt\n        /* \"#utility.yul\":1789:1845   */\n      iszero\n      tag_199\n      jumpi\n        /* \"#utility.yul\":1825:1843   */\n      tag_200\n      tag_55\n      jump\t// in\n    tag_200:\n        /* \"#utility.yul\":1789:1845   */\n    tag_199:\n        /* \"#utility.yul\":1863:1892   */\n      tag_201\n        /* \"#utility.yul\":1885:1891   */\n      dup3\n        /* \"#utility.yul\":1863:1892   */\n      tag_132\n      jump\t// in\n    tag_201:\n        /* \"#utility.yul\":1855:1892   */\n      swap1\n      pop\n        /* \"#utility.yul\":1947:1951   */\n      0x20\n        /* \"#utility.yul\":1941:1945   */\n      dup2\n        /* \"#utility.yul\":1937:1952   */\n      add\n        /* \"#utility.yul\":1929:1952   */\n      swap1\n      pop\n        /* \"#utility.yul\":1652:1959   */\n      swap2\n      swap1\n      pop\n      jump\t// out\n        /* \"#utility.yul\":1965:2111   */\n    tag_136:\n        /* \"#utility.yul\":2062:2068   */\n      dup3\n        /* \"#utility.yul\":2057:2060   */\n      dup2\n        /* \"#utility.yul\":2052:2055   */\n      dup4\n        /* \"#utility.yul\":2039:2069   */\n      calldatacopy\n        /* \"#utility.yul\":2103:2104   */\n      0x00\n        /* \"#utility.yul\":2094:2100   */\n      dup4\n        /* \"#utility.yul\":2089:2092   */\n      dup4\n        /* \"#utility.yul\":2085:2101   */\n      add\n        /* \"#utility.yul\":2078:2105   */\n      mstore\n        /* \"#utility.yul\":1965:2111   */\n      pop\n      pop\n      pop\n      jump\t// out\n        /* \"#utility.yul\":2117:2540   */\n    tag_137:\n        /* \"#utility.yul\":2194:2199   */\n      0x00\n        /* \"#utility.yul\":2219:2284   */\n      tag_204\n        /* \"#utility.yul\":2235:2283   */\n      tag_205\n        /* \"#utility.yul\":2276:2282   */\n      dup5\n        /* \"#utility.yul\":2235:2283   */\n      tag_135\n      jump\t// in\n    tag_205:\n        /* \"#utility.yul\":2219:2284   */\n      tag_134\n      jump\t// in\n    tag_204:\n        /* \"#utility.yul\":2210:2284   */\n      swap1\n      pop\n        /* \"#utility.yul\":2307:2313   */\n      dup3\n        /* \"#utility.yul\":2300:2305   */\n      dup2\n        /* \"#utility.yul\":2293:2314   */\n      mstore\n        /* \"#utility.yul\":2345:2349   */\n      0x20\n        /* \"#utility.yul\":2338:2343   */\n      dup2\n        /* \"#utility.yul\":2334:2350   */\n      add\n        /* \"#utility.yul\":2383:2386   */\n      dup5\n        /* \"#utility.yul\":2374:2380   */\n      dup5\n        /* \"#utility.yul\":2369:2372   */\n      dup5\n        /* \"#utility.yul\":2365:2381   */\n      add\n        /* \"#utility.yul\":2362:2387   */\n      gt\n        /* \"#utility.yul\":2359:2471   */\n      iszero\n      tag_206\n      jumpi\n        /* \"#utility.yul\":2390:2469   */\n      tag_207\n      tag_131\n      jump\t// in\n    tag_207:\n        /* \"#utility.yul\":2359:2471   */\n    tag_206:\n        /* \"#utility.yul\":2480:2534   */\n      tag_208\n        /* \"#utility.yul\":2527:2533   */\n      dup5\n        /* \"#utility.yul\":2522:2525   */\n      dup3\n        /* \"#utility.yul\":2517:2520   */\n      dup6\n        /* \"#utility.yul\":2480:2534   */\n      tag_136\n      jump\t// in\n    tag_208:\n        /* \"#utility.yul\":2200:2540   */\n      pop\n        /* \"#utility.yul\":2117:2540   */\n      swap4\n      swap3\n      pop\n      pop\n      pop\n      jump\t// out\n        /* \"#utility.yul\":2559:2897   */\n    tag_138:\n        /* \"#utility.yul\":2614:2619   */\n      0x00\n        /* \"#utility.yul\":2663:2666   */\n      dup3\n        /* \"#utility.yul\":2656:2660   */\n      0x1f\n        /* \"#utility.yul\":2648:2654   */\n      dup4\n        /* \"#utility.yul\":2644:2661   */\n      add\n        /* \"#utility.yul\":2640:2667   */\n      slt\n        /* \"#utility.yul\":2630:2752   */\n      tag_210\n      jumpi\n        /* \"#utility.yul\":2671:2750   */\n      tag_211\n      tag_130\n      jump\t// in\n    tag_211:\n        /* \"#utility.yul\":2630:2752   */\n    tag_210:\n        /* \"#utility.yul\":2788:2794   */\n      dup2\n        /* \"#utility.yul\":2775:2795   */\n      calldataload\n        /* \"#utility.yul\":2813:2891   */\n      tag_212\n        /* \"#utility.yul\":2887:2890   */\n      dup5\n        /* \"#utility.yul\":2879:2885   */\n      dup3\n        /* \"#utility.yul\":2872:2876   */\n      0x20\n        /* \"#utility.yul\":2864:2870   */\n      dup7\n        /* \"#utility.yul\":2860:2877   */\n      add\n        /* \"#utility.yul\":2813:2891   */\n      tag_137\n      jump\t// in\n    tag_212:\n        /* \"#utility.yul\":2804:2891   */\n      swap2\n      pop\n        /* \"#utility.yul\":2620:2897   */\n      pop\n        /* \"#utility.yul\":2559:2897   */\n      swap3\n      swap2\n      pop\n      pop\n      jump\t// out\n        /* \"#utility.yul\":2903:3555   */\n    tag_13:\n        /* \"#utility.yul\":2980:2986   */\n      0x00\n        /* \"#utility.yul\":2988:2994   */\n      dup1\n        /* \"#utility.yul\":3037:3039   */\n      0x40\n        /* \"#utility.yul\":3025:3034   */\n      dup4\n        /* \"#utility.yul\":3016:3023   */\n      dup6\n        /* \"#utility.yul\":3012:3035   */\n      sub\n        /* \"#utility.yul\":3008:3040   */\n      slt\n        /* \"#utility.yul\":3005:3124   */\n      iszero\n      tag_214\n      jumpi\n        /* \"#utility.yul\":3043:3122   */\n      tag_215\n      tag_125\n      jump\t// in\n    tag_215:\n        /* \"#utility.yul\":3005:3124   */\n    tag_214:\n        /* \"#utility.yul\":3163:3164   */\n      0x00\n        /* \"#utility.yul\":3188:3241   */\n      tag_216\n        /* \"#utility.yul\":3233:3240   */\n      dup6\n        /* \"#utility.yul\":3224:3230   */\n      dup3\n        /* \"#utility.yul\":3213:3222   */\n      dup7\n        /* \"#utility.yul\":3209:3231   */\n      add\n        /* \"#utility.yul\":3188:3241   */\n      tag_129\n      jump\t// in\n    tag_216:\n        /* \"#utility.yul\":3178:3241   */\n      swap3\n      pop\n        /* \"#utility.yul\":3134:3251   */\n      pop\n        /* \"#utility.yul\":3318:3320   */\n      0x20\n        /* \"#utility.yul\":3307:3316   */\n      dup4\n        /* \"#utility.yul\":3303:3321   */\n      add\n        /* \"#utility.yul\":3290:3322   */\n      calldataload\n        /* \"#utility.yul\":3349:3367   */\n      0xffffffffffffffff\n        /* \"#utility.yul\":3341:3347   */\n      dup2\n        /* \"#utility.yul\":3338:3368   */\n      gt\n        /* \"#utility.yul\":3335:3452   */\n      iszero\n      tag_217\n      jumpi\n        /* \"#utility.yul\":3371:3450   */\n      tag_218\n      tag_126\n      jump\t// in\n    tag_218:\n        /* \"#utility.yul\":3335:3452   */\n    tag_217:\n        /* \"#utility.yul\":3476:3538   */\n      tag_219\n        /* \"#utility.yul\":3530:3537   */\n      dup6\n        /* \"#utility.yul\":3521:3527   */\n      dup3\n        /* \"#utility.yul\":3510:3519   */\n      dup7\n        /* \"#utility.yul\":3506:3528   */\n      add\n        /* \"#utility.yul\":3476:3538   */\n      tag_138\n      jump\t// in\n    tag_219:\n        /* \"#utility.yul\":3466:3538   */\n      swap2\n      pop\n        /* \"#utility.yul\":3261:3548   */\n      pop\n        /* \"#utility.yul\":2903:3555   */\n      swap3\n      pop\n      swap3\n      swap1\n      pop\n      jump\t// out\n        /* \"#utility.yul\":3561:3687   */\n    tag_139:\n        /* \"#utility.yul\":3598:3605   */\n      0x00\n        /* \"#utility.yul\":3638:3680   */\n      0xffffffffffffffffffffffffffffffffffffffff\n        /* \"#utility.yul\":3631:3636   */\n      dup3\n        /* \"#utility.yul\":3627:3681   */\n      and\n        /* \"#utility.yul\":3616:3681   */\n      swap1\n      pop\n        /* \"#utility.yul\":3561:3687   */\n      swap2\n      swap1\n      pop\n      jump\t// out\n        /* \"#utility.yul\":3693:3789   */\n    tag_140:\n        /* \"#utility.yul\":3730:3737   */\n      0x00\n        /* \"#utility.yul\":3759:3783   */\n      tag_222\n        /* \"#utility.yul\":3777:3782   */\n      dup3\n        /* \"#utility.yul\":3759:3783   */\n      tag_139\n      jump\t// in\n    tag_222:\n        /* \"#utility.yul\":3748:3783   */\n      swap1\n      pop\n        /* \"#utility.yul\":3693:3789   */\n      swap2\n      swap1\n      pop\n      jump\t// out\n        /* \"#utility.yul\":3795:3917   */\n    tag_141:\n        /* \"#utility.yul\":3868:3892   */\n      tag_224\n        /* \"#utility.yul\":3886:3891   */\n      dup2\n        /* \"#utility.yul\":3868:3892   */\n      tag_140\n      jump\t// in\n    tag_224:\n        /* \"#utility.yul\":3861:3866   */\n      dup2\n        /* \"#utility.yul\":3858:3893   */\n      eq\n        /* \"#utility.yul\":3848:3911   */\n      tag_225\n      jumpi\n        /* \"#utility.yul\":3907:3908   */\n      0x00\n        /* \"#utility.yul\":3904:3905   */\n      dup1\n        /* \"#utility.yul\":3897:3909   */\n      revert\n        /* \"#utility.yul\":3848:3911   */\n    tag_225:\n        /* \"#utility.yul\":3795:3917   */\n      pop\n      jump\t// out\n        /* \"#utility.yul\":3923:4062   */\n    tag_142:\n        /* \"#utility.yul\":3969:3974   */\n      0x00\n        /* \"#utility.yul\":4007:4013   */\n      dup2\n        /* \"#utility.yul\":3994:4014   */\n      calldataload\n        /* \"#utility.yul\":3985:4014   */\n      swap1\n      pop\n        /* \"#utility.yul\":4023:4056   */\n      tag_227\n        /* \"#utility.yul\":4050:4055   */\n      dup2\n        /* \"#utility.yul\":4023:4056   */\n      tag_141\n      jump\t// in\n    tag_227:\n        /* \"#utility.yul\":3923:4062   */\n      swap3\n      swap2\n      pop\n      pop\n      jump\t// out\n        /* \"#utility.yul\":4068:4542   */\n    tag_17:\n        /* \"#utility.yul\":4136:4142   */\n      0x00\n        /* \"#utility.yul\":4144:4150   */\n      dup1\n        /* \"#utility.yul\":4193:4195   */\n      0x40\n        /* \"#utility.yul\":4181:4190   */\n      dup4\n        /* \"#utility.yul\":4172:4179   */\n      dup6\n        /* \"#utility.yul\":4168:4191   */\n      sub\n        /* \"#utility.yul\":4164:4196   */\n      slt\n        /* \"#utility.yul\":4161:4280   */\n      iszero\n      tag_229\n      jumpi\n        /* \"#utility.yul\":4199:4278   */\n      tag_230\n      tag_125\n      jump\t// in\n    tag_230:\n        /* \"#utility.yul\":4161:4280   */\n    tag_229:\n        /* \"#utility.yul\":4319:4320   */\n      0x00\n        /* \"#utility.yul\":4344:4397   */\n      tag_231\n        /* \"#utility.yul\":4389:4396   */\n      dup6\n        /* \"#utility.yul\":4380:4386   */\n      dup3\n        /* \"#utility.yul\":4369:4378   */\n      dup7\n        /* \"#utility.yul\":4365:4387   */\n      add\n        /* \"#utility.yul\":4344:4397   */\n      tag_142\n      jump\t// in\n    tag_231:\n        /* \"#utility.yul\":4334:4397   */\n      swap3\n      pop\n        /* \"#utility.yul\":4290:4407   */\n      pop\n        /* \"#utility.yul\":4446:4448   */\n      0x20\n        /* \"#utility.yul\":4472:4525   */\n      tag_232\n        /* \"#utility.yul\":4517:4524   */\n      dup6\n        /* \"#utility.yul\":4508:4514   */\n      dup3\n        /* \"#utility.yul\":4497:4506   */\n      dup7\n        /* \"#utility.yul\":4493:4515   */\n      add\n        /* \"#utility.yul\":4472:4525   */\n      tag_129\n      jump\t// in\n    tag_232:\n        /* \"#utility.yul\":4462:4525   */\n      swap2\n      pop\n        /* \"#utility.yul\":4417:4535   */\n      pop\n        /* \"#utility.yul\":4068:4542   */\n      swap3\n      pop\n      swap3\n      swap1\n      pop\n      jump\t// out\n        /* \"#utility.yul\":4548:4666   */\n    tag_143:\n        /* \"#utility.yul\":4635:4659   */\n      tag_234\n        /* \"#utility.yul\":4653:4658   */\n      dup2\n        /* \"#utility.yul\":4635:4659   */\n      tag_127\n      jump\t// in\n    tag_234:\n        /* \"#utility.yul\":4630:4633   */\n      dup3\n        /* \"#utility.yul\":4623:4660   */\n      mstore\n        /* \"#utility.yul\":4548:4666   */\n      pop\n      pop\n      jump\t// out\n        /* \"#utility.yul\":4672:4894   */\n    tag_20:\n        /* \"#utility.yul\":4765:4769   */\n      0x00\n        /* \"#utility.yul\":4803:4805   */\n      0x20\n        /* \"#utility.yul\":4792:4801   */\n      dup3\n        /* \"#utility.yul\":4788:4806   */\n      add\n        /* \"#utility.yul\":4780:4806   */\n      swap1\n      pop\n        /* \"#utility.yul\":4816:4887   */\n      tag_236\n        /* \"#utility.yul\":4884:4885   */\n      0x00\n        /* \"#utility.yul\":4873:4882   */\n      dup4\n        /* \"#utility.yul\":4869:4886   */\n      add\n        /* \"#utility.yul\":4860:4866   */\n      dup5\n        /* \"#utility.yul\":4816:4887   */\n      tag_143\n      jump\t// in\n    tag_236:\n        /* \"#utility.yul\":4672:4894   */\n      swap3\n      swap2\n      pop\n      pop\n      jump\t// out\n        /* \"#utility.yul\":4900:5229   */\n    tag_23:\n        /* \"#utility.yul\":4959:4965   */\n      0x00\n        /* \"#utility.yul\":5008:5010   */\n      0x20\n        /* \"#utility.yul\":4996:5005   */\n      dup3\n        /* \"#utility.yul\":4987:4994   */\n      dup5\n        /* \"#utility.yul\":4983:5006   */\n      sub\n        /* \"#utility.yul\":4979:5011   */\n      slt\n        /* \"#utility.yul\":4976:5095   */\n      iszero\n      tag_238\n      jumpi\n        /* \"#utility.yul\":5014:5093   */\n      tag_239\n      tag_125\n      jump\t// in\n    tag_239:\n        /* \"#utility.yul\":4976:5095   */\n    tag_238:\n        /* \"#utility.yul\":5134:5135   */\n      0x00\n        /* \"#utility.yul\":5159:5212   */\n      tag_240\n        /* \"#utility.yul\":5204:5211   */\n      dup5\n        /* \"#utility.yul\":5195:5201   */\n      dup3\n        /* \"#utility.yul\":5184:5193   */\n      dup6\n        /* \"#utility.yul\":5180:5202   */\n      add\n        /* \"#utility.yul\":5159:5212   */\n      tag_142\n      jump\t// in\n    tag_240:\n        /* \"#utility.yul\":5149:5212   */\n      swap2\n      pop\n        /* \"#utility.yul\":5105:5222   */\n      pop\n        /* \"#utility.yul\":4900:5229   */\n      swap3\n      swap2\n      pop\n      pop\n      jump\t// out\n        /* \"#utility.yul\":5235:5388   */\n    tag_144:\n        /* \"#utility.yul\":5341:5347   */\n      0x00\n        /* \"#utility.yul\":5375:5380   */\n      dup2\n        /* \"#utility.yul\":5369:5381   */\n      mload\n        /* \"#utility.yul\":5359:5381   */\n      swap1\n      pop\n        /* \"#utility.yul\":5235:5388   */\n      swap2\n      swap1\n      pop\n      jump\t// out\n        /* \"#utility.yul\":5394:5617   */\n    tag_145:\n        /* \"#utility.yul\":5532:5543   */\n      0x00\n        /* \"#utility.yul\":5566:5572   */\n      dup3\n        /* \"#utility.yul\":5561:5564   */\n      dup3\n        /* \"#utility.yul\":5554:5573   */\n      mstore\n        /* \"#utility.yul\":5606:5610   */\n      0x20\n        /* \"#utility.yul\":5601:5604   */\n      dup3\n        /* \"#utility.yul\":5597:5611   */\n      add\n        /* \"#utility.yul\":5582:5611   */\n      swap1\n      pop\n        /* \"#utility.yul\":5394:5617   */\n      swap3\n      swap2\n      pop\n      pop\n      jump\t// out\n        /* \"#utility.yul\":5623:5794   */\n    tag_146:\n        /* \"#utility.yul\":5729:5733   */\n      0x00\n        /* \"#utility.yul\":5752:5755   */\n      dup2\n        /* \"#utility.yul\":5744:5755   */\n      swap1\n      pop\n        /* \"#utility.yul\":5782:5786   */\n      0x20\n        /* \"#utility.yul\":5777:5780   */\n      dup3\n        /* \"#utility.yul\":5773:5787   */\n      add\n        /* \"#utility.yul\":5765:5787   */\n      swap1\n      pop\n        /* \"#utility.yul\":5623:5794   */\n      swap2\n      swap1\n      pop\n      jump\t// out\n        /* \"#utility.yul\":5800:5898   */\n    tag_147:\n        /* \"#utility.yul\":5851:5857   */\n      0x00\n        /* \"#utility.yul\":5885:5890   */\n      dup2\n        /* \"#utility.yul\":5879:5891   */\n      mload\n        /* \"#utility.yul\":5869:5891   */\n      swap1\n      pop\n        /* \"#utility.yul\":5800:5898   */\n      swap2\n      swap1\n      pop\n      jump\t// out\n        /* \"#utility.yul\":5904:6062   */\n    tag_148:\n        /* \"#utility.yul\":5977:5988   */\n      0x00\n        /* \"#utility.yul\":6011:6017   */\n      dup3\n        /* \"#utility.yul\":6006:6009   */\n      dup3\n        /* \"#utility.yul\":5999:6018   */\n      mstore\n        /* \"#utility.yul\":6051:6055   */\n      0x20\n        /* \"#utility.yul\":6046:6049   */\n      dup3\n        /* \"#utility.yul\":6042:6056   */\n      add\n        /* \"#utility.yul\":6027:6056   */\n      swap1\n      pop\n        /* \"#utility.yul\":5904:6062   */\n      swap3\n      swap2\n      pop\n      pop\n      jump\t// out\n        /* \"#utility.yul\":6068:6314   */\n    tag_149:\n        /* \"#utility.yul\":6149:6150   */\n      0x00\n        /* \"#utility.yul\":6159:6272   */\n    tag_247:\n        /* \"#utility.yul\":6173:6179   */\n      dup4\n        /* \"#utility.yul\":6170:6171   */\n      dup2\n        /* \"#utility.yul\":6167:6180   */\n      lt\n        /* \"#utility.yul\":6159:6272   */\n      iszero\n      tag_249\n      jumpi\n        /* \"#utility.yul\":6258:6259   */\n      dup1\n        /* \"#utility.yul\":6253:6256   */\n      dup3\n        /* \"#utility.yul\":6249:6260   */\n      add\n        /* \"#utility.yul\":6243:6261   */\n      mload\n        /* \"#utility.yul\":6239:6240   */\n      dup2\n        /* \"#utility.yul\":6234:6237   */\n      dup5\n        /* \"#utility.yul\":6230:6241   */\n      add\n        /* \"#utility.yul\":6223:6262   */\n      mstore\n        /* \"#utility.yul\":6195:6197   */\n      0x20\n        /* \"#utility.yul\":6192:6193   */\n      dup2\n        /* \"#utility.yul\":6188:6198   */\n      add\n        /* \"#utility.yul\":6183:6198   */\n      swap1\n      pop\n        /* \"#utility.yul\":6159:6272   */\n      jump(tag_247)\n    tag_249:\n        /* \"#utility.yul\":6306:6307   */\n      0x00\n        /* \"#utility.yul\":6297:6303   */\n      dup5\n        /* \"#utility.yul\":6292:6295   */\n      dup5\n        /* \"#utility.yul\":6288:6304   */\n      add\n        /* \"#utility.yul\":6281:6308   */\n      mstore\n        /* \"#utility.yul\":6130:6314   */\n      pop\n        /* \"#utility.yul\":6068:6314   */\n      pop\n      pop\n      pop\n      jump\t// out\n        /* \"#utility.yul\":6320:6673   */\n    tag_150:\n        /* \"#utility.yul\":6396:6399   */\n      0x00\n        /* \"#utility.yul\":6424:6462   */\n      tag_251\n        /* \"#utility.yul\":6456:6461   */\n      dup3\n        /* \"#utility.yul\":6424:6462   */\n      tag_147\n      jump\t// in\n    tag_251:\n        /* \"#utility.yul\":6478:6538   */\n      tag_252\n        /* \"#utility.yul\":6531:6537   */\n      dup2\n        /* \"#utility.yul\":6526:6529   */\n      dup6\n        /* \"#utility.yul\":6478:6538   */\n      tag_148\n      jump\t// in\n    tag_252:\n        /* \"#utility.yul\":6471:6538   */\n      swap4\n      pop\n        /* \"#utility.yul\":6547:6612   */\n      tag_253\n        /* \"#utility.yul\":6605:6611   */\n      dup2\n        /* \"#utility.yul\":6600:6603   */\n      dup6\n        /* \"#utility.yul\":6593:6597   */\n      0x20\n        /* \"#utility.yul\":6586:6591   */\n      dup7\n        /* \"#utility.yul\":6582:6598   */\n      add\n        /* \"#utility.yul\":6547:6612   */\n      tag_149\n      jump\t// in\n    tag_253:\n        /* \"#utility.yul\":6637:6666   */\n      tag_254\n        /* \"#utility.yul\":6659:6665   */\n      dup2\n        /* \"#utility.yul\":6637:6666   */\n      tag_132\n      jump\t// in\n    tag_254:\n        /* \"#utility.yul\":6632:6635   */\n      dup5\n        /* \"#utility.yul\":6628:6667   */\n      add\n        /* \"#utility.yul\":6621:6667   */\n      swap2\n      pop\n        /* \"#utility.yul\":6400:6673   */\n      pop\n        /* \"#utility.yul\":6320:6673   */\n      swap3\n      swap2\n      pop\n      pop\n      jump\t// out\n        /* \"#utility.yul\":6679:6787   */\n    tag_151:\n        /* \"#utility.yul\":6756:6780   */\n      tag_256\n        /* \"#utility.yul\":6774:6779   */\n      dup2\n        /* \"#utility.yul\":6756:6780   */\n      tag_140\n      jump\t// in\n    tag_256:\n        /* \"#utility.yul\":6751:6754   */\n      dup3\n        /* \"#utility.yul\":6744:6781   */\n      mstore\n        /* \"#utility.yul\":6679:6787   */\n      pop\n      pop\n      jump\t// out\n        /* \"#utility.yul\":6915:8223   */\n    tag_152:\n        /* \"#utility.yul\":7052:7055   */\n      0x00\n        /* \"#utility.yul\":7088:7092   */\n      0xa0\n        /* \"#utility.yul\":7083:7086   */\n      dup4\n        /* \"#utility.yul\":7079:7093   */\n      add\n        /* \"#utility.yul\":7176:7180   */\n      0x00\n        /* \"#utility.yul\":7169:7174   */\n      dup4\n        /* \"#utility.yul\":7165:7181   */\n      add\n        /* \"#utility.yul\":7159:7182   */\n      mload\n        /* \"#utility.yul\":7229:7232   */\n      dup5\n        /* \"#utility.yul\":7223:7227   */\n      dup3\n        /* \"#utility.yul\":7219:7233   */\n      sub\n        /* \"#utility.yul\":7212:7216   */\n      0x00\n        /* \"#utility.yul\":7207:7210   */\n      dup7\n        /* \"#utility.yul\":7203:7217   */\n      add\n        /* \"#utility.yul\":7196:7234   */\n      mstore\n        /* \"#utility.yul\":7255:7326   */\n      tag_258\n        /* \"#utility.yul\":7321:7325   */\n      dup3\n        /* \"#utility.yul\":7307:7319   */\n      dup3\n        /* \"#utility.yul\":7255:7326   */\n      tag_150\n      jump\t// in\n    tag_258:\n        /* \"#utility.yul\":7247:7326   */\n      swap2\n      pop\n        /* \"#utility.yul\":7103:7337   */\n      pop\n        /* \"#utility.yul\":7424:7428   */\n      0x20\n        /* \"#utility.yul\":7417:7422   */\n      dup4\n        /* \"#utility.yul\":7413:7429   */\n      add\n        /* \"#utility.yul\":7407:7430   */\n      mload\n        /* \"#utility.yul\":7443:7506   */\n      tag_259\n        /* \"#utility.yul\":7500:7504   */\n      0x20\n        /* \"#utility.yul\":7495:7498   */\n      dup7\n        /* \"#utility.yul\":7491:7505   */\n      add\n        /* \"#utility.yul\":7477:7489   */\n      dup3\n        /* \"#utility.yul\":7443:7506   */\n      tag_151\n      jump\t// in\n    tag_259:\n        /* \"#utility.yul\":7347:7516   */\n      pop\n        /* \"#utility.yul\":7603:7607   */\n      0x40\n        /* \"#utility.yul\":7596:7601   */\n      dup4\n        /* \"#utility.yul\":7592:7608   */\n      add\n        /* \"#utility.yul\":7586:7609   */\n      mload\n        /* \"#utility.yul\":7622:7685   */\n      tag_260\n        /* \"#utility.yul\":7679:7683   */\n      0x40\n        /* \"#utility.yul\":7674:7677   */\n      dup7\n        /* \"#utility.yul\":7670:7684   */\n      add\n        /* \"#utility.yul\":7656:7668   */\n      dup3\n        /* \"#utility.yul\":7622:7685   */\n      tag_151\n      jump\t// in\n    tag_260:\n        /* \"#utility.yul\":7526:7695   */\n      pop\n        /* \"#utility.yul\":7785:7789   */\n      0x60\n        /* \"#utility.yul\":7778:7783   */\n      dup4\n        /* \"#utility.yul\":7774:7790   */\n      add\n        /* \"#utility.yul\":7768:7791   */\n      mload\n        /* \"#utility.yul\":7838:7841   */\n      dup5\n        /* \"#utility.yul\":7832:7836   */\n      dup3\n        /* \"#utility.yul\":7828:7842   */\n      sub\n        /* \"#utility.yul\":7821:7825   */\n      0x60\n        /* \"#utility.yul\":7816:7819   */\n      dup7\n        /* \"#utility.yul\":7812:7826   */\n      add\n        /* \"#utility.yul\":7805:7843   */\n      mstore\n        /* \"#utility.yul\":7864:7935   */\n      tag_261\n        /* \"#utility.yul\":7930:7934   */\n      dup3\n        /* \"#utility.yul\":7916:7928   */\n      dup3\n        /* \"#utility.yul\":7864:7935   */\n      tag_150\n      jump\t// in\n    tag_261:\n        /* \"#utility.yul\":7856:7935   */\n      swap2\n      pop\n        /* \"#utility.yul\":7705:7946   */\n      pop\n        /* \"#utility.yul\":8035:8039   */\n      0x80\n        /* \"#utility.yul\":8028:8033   */\n      dup4\n        /* \"#utility.yul\":8024:8040   */\n      add\n        /* \"#utility.yul\":8018:8041   */\n      mload\n        /* \"#utility.yul\":8088:8091   */\n      dup5\n        /* \"#utility.yul\":8082:8086   */\n      dup3\n        /* \"#utility.yul\":8078:8092   */\n      sub\n        /* \"#utility.yul\":8071:8075   */\n      0x80\n        /* \"#utility.yul\":8066:8069   */\n      dup7\n        /* \"#utility.yul\":8062:8076   */\n      add\n        /* \"#utility.yul\":8055:8093   */\n      mstore\n        /* \"#utility.yul\":8114:8185   */\n      tag_262\n        /* \"#utility.yul\":8180:8184   */\n      dup3\n        /* \"#utility.yul\":8166:8178   */\n      dup3\n        /* \"#utility.yul\":8114:8185   */\n      tag_150\n      jump\t// in\n    tag_262:\n        /* \"#utility.yul\":8106:8185   */\n      swap2\n      pop\n        /* \"#utility.yul\":7956:8196   */\n      pop\n        /* \"#utility.yul\":8213:8217   */\n      dup1\n        /* \"#utility.yul\":8206:8217   */\n      swap2\n      pop\n        /* \"#utility.yul\":7057:8223   */\n      pop\n        /* \"#utility.yul\":6915:8223   */\n      swap3\n      swap2\n      pop\n      pop\n      jump\t// out\n        /* \"#utility.yul\":8229:8541   */\n    tag_153:\n        /* \"#utility.yul\":8376:8386   */\n      0x00\n        /* \"#utility.yul\":8411:8535   */\n      tag_264\n        /* \"#utility.yul\":8531:8534   */\n      dup4\n        /* \"#utility.yul\":8523:8529   */\n      dup4\n        /* \"#utility.yul\":8411:8535   */\n      tag_152\n      jump\t// in\n    tag_264:\n        /* \"#utility.yul\":8397:8535   */\n      swap1\n      pop\n        /* \"#utility.yul\":8229:8541   */\n      swap3\n      swap2\n      pop\n      pop\n      jump\t// out\n        /* \"#utility.yul\":8547:8699   */\n    tag_154:\n        /* \"#utility.yul\":8656:8660   */\n      0x00\n        /* \"#utility.yul\":8688:8692   */\n      0x20\n        /* \"#utility.yul\":8683:8686   */\n      dup3\n        /* \"#utility.yul\":8679:8693   */\n      add\n        /* \"#utility.yul\":8671:8693   */\n      swap1\n      pop\n        /* \"#utility.yul\":8547:8699   */\n      swap2\n      swap1\n      pop\n      jump\t// out\n        /* \"#utility.yul\":8831:10054   */\n    tag_155:\n        /* \"#utility.yul\":9028:9031   */\n      0x00\n        /* \"#utility.yul\":9057:9150   */\n      tag_267\n        /* \"#utility.yul\":9144:9149   */\n      dup3\n        /* \"#utility.yul\":9057:9150   */\n      tag_144\n      jump\t// in\n    tag_267:\n        /* \"#utility.yul\":9166:9291   */\n      tag_268\n        /* \"#utility.yul\":9284:9290   */\n      dup2\n        /* \"#utility.yul\":9279:9282   */\n      dup6\n        /* \"#utility.yul\":9166:9291   */\n      tag_145\n      jump\t// in\n    tag_268:\n        /* \"#utility.yul\":9159:9291   */\n      swap4\n      pop\n        /* \"#utility.yul\":9317:9320   */\n      dup4\n        /* \"#utility.yul\":9362:9366   */\n      0x20\n        /* \"#utility.yul\":9354:9360   */\n      dup3\n        /* \"#utility.yul\":9350:9367   */\n      mul\n        /* \"#utility.yul\":9345:9348   */\n      dup6\n        /* \"#utility.yul\":9341:9368   */\n      add\n        /* \"#utility.yul\":9392:9487   */\n      tag_269\n        /* \"#utility.yul\":9481:9486   */\n      dup6\n        /* \"#utility.yul\":9392:9487   */\n      tag_146\n      jump\t// in\n    tag_269:\n        /* \"#utility.yul\":9510:9517   */\n      dup1\n        /* \"#utility.yul\":9541:9542   */\n      0x00\n        /* \"#utility.yul\":9526:10009   */\n    tag_270:\n        /* \"#utility.yul\":9551:9557   */\n      dup6\n        /* \"#utility.yul\":9548:9549   */\n      dup2\n        /* \"#utility.yul\":9545:9558   */\n      lt\n        /* \"#utility.yul\":9526:10009   */\n      iszero\n      tag_272\n      jumpi\n        /* \"#utility.yul\":9622:9631   */\n      dup5\n        /* \"#utility.yul\":9616:9620   */\n      dup5\n        /* \"#utility.yul\":9612:9632   */\n      sub\n        /* \"#utility.yul\":9607:9610   */\n      dup10\n        /* \"#utility.yul\":9600:9633   */\n      mstore\n        /* \"#utility.yul\":9673:9679   */\n      dup2\n        /* \"#utility.yul\":9667:9680   */\n      mload\n        /* \"#utility.yul\":9701:9843   */\n      tag_273\n        /* \"#utility.yul\":9838:9842   */\n      dup6\n        /* \"#utility.yul\":9823:9836   */\n      dup3\n        /* \"#utility.yul\":9701:9843   */\n      tag_153\n      jump\t// in\n    tag_273:\n        /* \"#utility.yul\":9693:9843   */\n      swap5\n      pop\n        /* \"#utility.yul\":9866:9965   */\n      tag_274\n        /* \"#utility.yul\":9958:9964   */\n      dup4\n        /* \"#utility.yul\":9866:9965   */\n      tag_154\n      jump\t// in\n    tag_274:\n        /* \"#utility.yul\":9856:9965   */\n      swap3\n      pop\n        /* \"#utility.yul\":9994:9998   */\n      0x20\n        /* \"#utility.yul\":9989:9992   */\n      dup11\n        /* \"#utility.yul\":9985:9999   */\n      add\n        /* \"#utility.yul\":9978:9999   */\n      swap10\n      pop\n        /* \"#utility.yul\":9586:10009   */\n      pop\n        /* \"#utility.yul\":9573:9574   */\n      0x01\n        /* \"#utility.yul\":9570:9571   */\n      dup2\n        /* \"#utility.yul\":9566:9575   */\n      add\n        /* \"#utility.yul\":9561:9575   */\n      swap1\n      pop\n        /* \"#utility.yul\":9526:10009   */\n      jump(tag_270)\n    tag_272:\n        /* \"#utility.yul\":9530:9544   */\n      pop\n        /* \"#utility.yul\":10025:10029   */\n      dup3\n        /* \"#utility.yul\":10018:10029   */\n      swap8\n      pop\n        /* \"#utility.yul\":10045:10048   */\n      dup8\n        /* \"#utility.yul\":10038:10048   */\n      swap6\n      pop\n        /* \"#utility.yul\":9033:10054   */\n      pop\n      pop\n      pop\n      pop\n      pop\n        /* \"#utility.yul\":8831:10054   */\n      swap3\n      swap2\n      pop\n      pop\n      jump\t// out\n        /* \"#utility.yul\":10060:10589   */\n    tag_26:\n        /* \"#utility.yul\":10281:10285   */\n      0x00\n        /* \"#utility.yul\":10319:10321   */\n      0x20\n        /* \"#utility.yul\":10308:10317   */\n      dup3\n        /* \"#utility.yul\":10304:10322   */\n      add\n        /* \"#utility.yul\":10296:10322   */\n      swap1\n      pop\n        /* \"#utility.yul\":10368:10377   */\n      dup2\n        /* \"#utility.yul\":10362:10366   */\n      dup2\n        /* \"#utility.yul\":10358:10378   */\n      sub\n        /* \"#utility.yul\":10354:10355   */\n      0x00\n        /* \"#utility.yul\":10343:10352   */\n      dup4\n        /* \"#utility.yul\":10339:10356   */\n      add\n        /* \"#utility.yul\":10332:10379   */\n      mstore\n        /* \"#utility.yul\":10396:10582   */\n      tag_276\n        /* \"#utility.yul\":10577:10581   */\n      dup2\n        /* \"#utility.yul\":10568:10574   */\n      dup5\n        /* \"#utility.yul\":10396:10582   */\n      tag_155\n      jump\t// in\n    tag_276:\n        /* \"#utility.yul\":10388:10582   */\n      swap1\n      pop\n        /* \"#utility.yul\":10060:10589   */\n      swap3\n      swap2\n      pop\n      pop\n      jump\t// out\n        /* \"#utility.yul\":10595:12040   */\n    tag_29:\n        /* \"#utility.yul\":10717:10723   */\n      0x00\n        /* \"#utility.yul\":10725:10731   */\n      dup1\n        /* \"#utility.yul\":10733:10739   */\n      0x00\n        /* \"#utility.yul\":10741:10747   */\n      dup1\n        /* \"#utility.yul\":10749:10755   */\n      0x00\n        /* \"#utility.yul\":10798:10801   */\n      0xa0\n        /* \"#utility.yul\":10786:10795   */\n      dup7\n        /* \"#utility.yul\":10777:10784   */\n      dup9\n        /* \"#utility.yul\":10773:10796   */\n      sub\n        /* \"#utility.yul\":10769:10802   */\n      slt\n        /* \"#utility.yul\":10766:10886   */\n      iszero\n      tag_278\n      jumpi\n        /* \"#utility.yul\":10805:10884   */\n      tag_279\n      tag_125\n      jump\t// in\n    tag_279:\n        /* \"#utility.yul\":10766:10886   */\n    tag_278:\n        /* \"#utility.yul\":10953:10954   */\n      0x00\n        /* \"#utility.yul\":10942:10951   */\n      dup7\n        /* \"#utility.yul\":10938:10955   */\n      add\n        /* \"#utility.yul\":10925:10956   */\n      calldataload\n        /* \"#utility.yul\":10983:11001   */\n      0xffffffffffffffff\n        /* \"#utility.yul\":10975:10981   */\n      dup2\n        /* \"#utility.yul\":10972:11002   */\n      gt\n        /* \"#utility.yul\":10969:11086   */\n      iszero\n      tag_280\n      jumpi\n        /* \"#utility.yul\":11005:11084   */\n      tag_281\n      tag_126\n      jump\t// in\n    tag_281:\n        /* \"#utility.yul\":10969:11086   */\n    tag_280:\n        /* \"#utility.yul\":11110:11172   */\n      tag_282\n        /* \"#utility.yul\":11164:11171   */\n      dup9\n        /* \"#utility.yul\":11155:11161   */\n      dup3\n        /* \"#utility.yul\":11144:11153   */\n      dup10\n        /* \"#utility.yul\":11140:11162   */\n      add\n        /* \"#utility.yul\":11110:11172   */\n      tag_138\n      jump\t// in\n    tag_282:\n        /* \"#utility.yul\":11100:11172   */\n      swap6\n      pop\n        /* \"#utility.yul\":10896:11182   */\n      pop\n        /* \"#utility.yul\":11221:11223   */\n      0x20\n        /* \"#utility.yul\":11247:11300   */\n      tag_283\n        /* \"#utility.yul\":11292:11299   */\n      dup9\n        /* \"#utility.yul\":11283:11289   */\n      dup3\n        /* \"#utility.yul\":11272:11281   */\n      dup10\n        /* \"#utility.yul\":11268:11290   */\n      add\n        /* \"#utility.yul\":11247:11300   */\n      tag_142\n      jump\t// in\n    tag_283:\n        /* \"#utility.yul\":11237:11300   */\n      swap5\n      pop\n        /* \"#utility.yul\":11192:11310   */\n      pop\n        /* \"#utility.yul\":11349:11351   */\n      0x40\n        /* \"#utility.yul\":11375:11428   */\n      tag_284\n        /* \"#utility.yul\":11420:11427   */\n      dup9\n        /* \"#utility.yul\":11411:11417   */\n      dup3\n        /* \"#utility.yul\":11400:11409   */\n      dup10\n        /* \"#utility.yul\":11396:11418   */\n      add\n        /* \"#utility.yul\":11375:11428   */\n      tag_142\n      jump\t// in\n    tag_284:\n        /* \"#utility.yul\":11365:11428   */\n      swap4\n      pop\n        /* \"#utility.yul\":11320:11438   */\n      pop\n        /* \"#utility.yul\":11505:11507   */\n      0x60\n        /* \"#utility.yul\":11494:11503   */\n      dup7\n        /* \"#utility.yul\":11490:11508   */\n      add\n        /* \"#utility.yul\":11477:11509   */\n      calldataload\n        /* \"#utility.yul\":11536:11554   */\n      0xffffffffffffffff\n        /* \"#utility.yul\":11528:11534   */\n      dup2\n        /* \"#utility.yul\":11525:11555   */\n      gt\n        /* \"#utility.yul\":11522:11639   */\n      iszero\n      tag_285\n      jumpi\n        /* \"#utility.yul\":11558:11637   */\n      tag_286\n      tag_126\n      jump\t// in\n    tag_286:\n        /* \"#utility.yul\":11522:11639   */\n    tag_285:\n        /* \"#utility.yul\":11663:11725   */\n      tag_287\n        /* \"#utility.yul\":11717:11724   */\n      dup9\n        /* \"#utility.yul\":11708:11714   */\n      dup3\n        /* \"#utility.yul\":11697:11706   */\n      dup10\n        /* \"#utility.yul\":11693:11715   */\n      add\n        /* \"#utility.yul\":11663:11725   */\n      tag_138\n      jump\t// in\n    tag_287:\n        /* \"#utility.yul\":11653:11725   */\n      swap3\n      pop\n        /* \"#utility.yul\":11448:11735   */\n      pop\n        /* \"#utility.yul\":11802:11805   */\n      0x80\n        /* \"#utility.yul\":11791:11800   */\n      dup7\n        /* \"#utility.yul\":11787:11806   */\n      add\n        /* \"#utility.yul\":11774:11807   */\n      calldataload\n        /* \"#utility.yul\":11834:11852   */\n      0xffffffffffffffff\n        /* \"#utility.yul\":11826:11832   */\n      dup2\n        /* \"#utility.yul\":11823:11853   */\n      gt\n        /* \"#utility.yul\":11820:11937   */\n      iszero\n      tag_288\n      jumpi\n        /* \"#utility.yul\":11856:11935   */\n      tag_289\n      tag_126\n      jump\t// in\n    tag_289:\n        /* \"#utility.yul\":11820:11937   */\n    tag_288:\n        /* \"#utility.yul\":11961:12023   */\n      tag_290\n        /* \"#utility.yul\":12015:12022   */\n      dup9\n        /* \"#utility.yul\":12006:12012   */\n      dup3\n        /* \"#utility.yul\":11995:12004   */\n      dup10\n        /* \"#utility.yul\":11991:12013   */\n      add\n        /* \"#utility.yul\":11961:12023   */\n      tag_138\n      jump\t// in\n    tag_290:\n        /* \"#utility.yul\":11951:12023   */\n      swap2\n      pop\n        /* \"#utility.yul\":11745:12033   */\n      pop\n        /* \"#utility.yul\":10595:12040   */\n      swap3\n      swap6\n      pop\n      swap3\n      swap6\n      swap1\n      swap4\n      pop\n      jump\t// out\n        /* \"#utility.yul\":12046:12375   */\n    tag_33:\n        /* \"#utility.yul\":12105:12111   */\n      0x00\n        /* \"#utility.yul\":12154:12156   */\n      0x20\n        /* \"#utility.yul\":12142:12151   */\n      dup3\n        /* \"#utility.yul\":12133:12140   */\n      dup5\n        /* \"#utility.yul\":12129:12152   */\n      sub\n        /* \"#utility.yul\":12125:12157   */\n      slt\n        /* \"#utility.yul\":12122:12241   */\n      iszero\n      tag_292\n      jumpi\n        /* \"#utility.yul\":12160:12239   */\n      tag_293\n      tag_125\n      jump\t// in\n    tag_293:\n        /* \"#utility.yul\":12122:12241   */\n    tag_292:\n        /* \"#utility.yul\":12280:12281   */\n      0x00\n        /* \"#utility.yul\":12305:12358   */\n      tag_294\n        /* \"#utility.yul\":12350:12357   */\n      dup5\n        /* \"#utility.yul\":12341:12347   */\n      dup3\n        /* \"#utility.yul\":12330:12339   */\n      dup6\n        /* \"#utility.yul\":12326:12348   */\n      add\n        /* \"#utility.yul\":12305:12358   */\n      tag_129\n      jump\t// in\n    tag_294:\n        /* \"#utility.yul\":12295:12358   */\n      swap2\n      pop\n        /* \"#utility.yul\":12251:12368   */\n      pop\n        /* \"#utility.yul\":12046:12375   */\n      swap3\n      swap2\n      pop\n      pop\n      jump\t// out\n        /* \"#utility.yul\":12503:13821   */\n    tag_156:\n        /* \"#utility.yul\":12650:12653   */\n      0x00\n        /* \"#utility.yul\":12686:12690   */\n      0xa0\n        /* \"#utility.yul\":12681:12684   */\n      dup4\n        /* \"#utility.yul\":12677:12691   */\n      add\n        /* \"#utility.yul\":12774:12778   */\n      0x00\n        /* \"#utility.yul\":12767:12772   */\n      dup4\n        /* \"#utility.yul\":12763:12779   */\n      add\n        /* \"#utility.yul\":12757:12780   */\n      mload\n        /* \"#utility.yul\":12827:12830   */\n      dup5\n        /* \"#utility.yul\":12821:12825   */\n      dup3\n        /* \"#utility.yul\":12817:12831   */\n      sub\n        /* \"#utility.yul\":12810:12814   */\n      0x00\n        /* \"#utility.yul\":12805:12808   */\n      dup7\n        /* \"#utility.yul\":12801:12815   */\n      add\n        /* \"#utility.yul\":12794:12832   */\n      mstore\n        /* \"#utility.yul\":12853:12924   */\n      tag_296\n        /* \"#utility.yul\":12919:12923   */\n      dup3\n        /* \"#utility.yul\":12905:12917   */\n      dup3\n        /* \"#utility.yul\":12853:12924   */\n      tag_150\n      jump\t// in\n    tag_296:\n        /* \"#utility.yul\":12845:12924   */\n      swap2\n      pop\n        /* \"#utility.yul\":12701:12935   */\n      pop\n        /* \"#utility.yul\":13022:13026   */\n      0x20\n        /* \"#utility.yul\":13015:13020   */\n      dup4\n        /* \"#utility.yul\":13011:13027   */\n      add\n        /* \"#utility.yul\":13005:13028   */\n      mload\n        /* \"#utility.yul\":13041:13104   */\n      tag_297\n        /* \"#utility.yul\":13098:13102   */\n      0x20\n        /* \"#utility.yul\":13093:13096   */\n      dup7\n        /* \"#utility.yul\":13089:13103   */\n      add\n        /* \"#utility.yul\":13075:13087   */\n      dup3\n        /* \"#utility.yul\":13041:13104   */\n      tag_151\n      jump\t// in\n    tag_297:\n        /* \"#utility.yul\":12945:13114   */\n      pop\n        /* \"#utility.yul\":13201:13205   */\n      0x40\n        /* \"#utility.yul\":13194:13199   */\n      dup4\n        /* \"#utility.yul\":13190:13206   */\n      add\n        /* \"#utility.yul\":13184:13207   */\n      mload\n        /* \"#utility.yul\":13220:13283   */\n      tag_298\n        /* \"#utility.yul\":13277:13281   */\n      0x40\n        /* \"#utility.yul\":13272:13275   */\n      dup7\n        /* \"#utility.yul\":13268:13282   */\n      add\n        /* \"#utility.yul\":13254:13266   */\n      dup3\n        /* \"#utility.yul\":13220:13283   */\n      tag_151\n      jump\t// in\n    tag_298:\n        /* \"#utility.yul\":13124:13293   */\n      pop\n        /* \"#utility.yul\":13383:13387   */\n      0x60\n        /* \"#utility.yul\":13376:13381   */\n      dup4\n        /* \"#utility.yul\":13372:13388   */\n      add\n        /* \"#utility.yul\":13366:13389   */\n      mload\n        /* \"#utility.yul\":13436:13439   */\n      dup5\n        /* \"#utility.yul\":13430:13434   */\n      dup3\n        /* \"#utility.yul\":13426:13440   */\n      sub\n        /* \"#utility.yul\":13419:13423   */\n      0x60\n        /* \"#utility.yul\":13414:13417   */\n      dup7\n        /* \"#utility.yul\":13410:13424   */\n      add\n        /* \"#utility.yul\":13403:13441   */\n      mstore\n        /* \"#utility.yul\":13462:13533   */\n      tag_299\n        /* \"#utility.yul\":13528:13532   */\n      dup3\n        /* \"#utility.yul\":13514:13526   */\n      dup3\n        /* \"#utility.yul\":13462:13533   */\n      tag_150\n      jump\t// in\n    tag_299:\n        /* \"#utility.yul\":13454:13533   */\n      swap2\n      pop\n        /* \"#utility.yul\":13303:13544   */\n      pop\n        /* \"#utility.yul\":13633:13637   */\n      0x80\n        /* \"#utility.yul\":13626:13631   */\n      dup4\n        /* \"#utility.yul\":13622:13638   */\n      add\n        /* \"#utility.yul\":13616:13639   */\n      mload\n        /* \"#utility.yul\":13686:13689   */\n      dup5\n        /* \"#utility.yul\":13680:13684   */\n      dup3\n        /* \"#utility.yul\":13676:13690   */\n      sub\n        /* \"#utility.yul\":13669:13673   */\n      0x80\n        /* \"#utility.yul\":13664:13667   */\n      dup7\n        /* \"#utility.yul\":13660:13674   */\n      add\n        /* \"#utility.yul\":13653:13691   */\n      mstore\n        /* \"#utility.yul\":13712:13783   */\n      tag_300\n        /* \"#utility.yul\":13778:13782   */\n      dup3\n        /* \"#utility.yul\":13764:13776   */\n      dup3\n        /* \"#utility.yul\":13712:13783   */\n      tag_150\n      jump\t// in\n    tag_300:\n        /* \"#utility.yul\":13704:13783   */\n      swap2\n      pop\n        /* \"#utility.yul\":13554:13794   */\n      pop\n        /* \"#utility.yul\":13811:13815   */\n      dup1\n        /* \"#utility.yul\":13804:13815   */\n      swap2\n      pop\n        /* \"#utility.yul\":12655:13821   */\n      pop\n        /* \"#utility.yul\":12503:13821   */\n      swap3\n      swap2\n      pop\n      pop\n      jump\t// out\n        /* \"#utility.yul\":13827:14256   */\n    tag_36:\n        /* \"#utility.yul\":13998:14002   */\n      0x00\n        /* \"#utility.yul\":14036:14038   */\n      0x20\n        /* \"#utility.yul\":14025:14034   */\n      dup3\n        /* \"#utility.yul\":14021:14039   */\n      add\n        /* \"#utility.yul\":14013:14039   */\n      swap1\n      pop\n        /* \"#utility.yul\":14085:14094   */\n      dup2\n        /* \"#utility.yul\":14079:14083   */\n      dup2\n        /* \"#utility.yul\":14075:14095   */\n      sub\n        /* \"#utility.yul\":14071:14072   */\n      0x00\n        /* \"#utility.yul\":14060:14069   */\n      dup4\n        /* \"#utility.yul\":14056:14073   */\n      add\n        /* \"#utility.yul\":14049:14096   */\n      mstore\n        /* \"#utility.yul\":14113:14249   */\n      tag_302\n        /* \"#utility.yul\":14244:14248   */\n      dup2\n        /* \"#utility.yul\":14235:14241   */\n      dup5\n        /* \"#utility.yul\":14113:14249   */\n      tag_156\n      jump\t// in\n    tag_302:\n        /* \"#utility.yul\":14105:14249   */\n      swap1\n      pop\n        /* \"#utility.yul\":13827:14256   */\n      swap3\n      swap2\n      pop\n      pop\n      jump\t// out\n        /* \"#utility.yul\":14262:14430   */\n    tag_157:\n        /* \"#utility.yul\":14345:14356   */\n      0x00\n        /* \"#utility.yul\":14379:14385   */\n      dup3\n        /* \"#utility.yul\":14374:14377   */\n      dup3\n        /* \"#utility.yul\":14367:14386   */\n      mstore\n        /* \"#utility.yul\":14419:14423   */\n      0x20\n        /* \"#utility.yul\":14414:14417   */\n      dup3\n        /* \"#utility.yul\":14410:14424   */\n      add\n        /* \"#utility.yul\":14395:14424   */\n      swap1\n      pop\n        /* \"#utility.yul\":14262:14430   */\n      swap3\n      swap2\n      pop\n      pop\n      jump\t// out\n        /* \"#utility.yul\":14436:14809   */\n    tag_158:\n        /* \"#utility.yul\":14522:14525   */\n      0x00\n        /* \"#utility.yul\":14550:14588   */\n      tag_305\n        /* \"#utility.yul\":14582:14587   */\n      dup3\n        /* \"#utility.yul\":14550:14588   */\n      tag_147\n      jump\t// in\n    tag_305:\n        /* \"#utility.yul\":14604:14674   */\n      tag_306\n        /* \"#utility.yul\":14667:14673   */\n      dup2\n        /* \"#utility.yul\":14662:14665   */\n      dup6\n        /* \"#utility.yul\":14604:14674   */\n      tag_157\n      jump\t// in\n    tag_306:\n        /* \"#utility.yul\":14597:14674   */\n      swap4\n      pop\n        /* \"#utility.yul\":14683:14748   */\n      tag_307\n        /* \"#utility.yul\":14741:14747   */\n      dup2\n        /* \"#utility.yul\":14736:14739   */\n      dup6\n        /* \"#utility.yul\":14729:14733   */\n      0x20\n        /* \"#utility.yul\":14722:14727   */\n      dup7\n        /* \"#utility.yul\":14718:14734   */\n      add\n        /* \"#utility.yul\":14683:14748   */\n      tag_149\n      jump\t// in\n    tag_307:\n        /* \"#utility.yul\":14773:14802   */\n      tag_308\n        /* \"#utility.yul\":14795:14801   */\n      dup2\n        /* \"#utility.yul\":14773:14802   */\n      tag_132\n      jump\t// in\n    tag_308:\n        /* \"#utility.yul\":14768:14771   */\n      dup5\n        /* \"#utility.yul\":14764:14803   */\n      add\n        /* \"#utility.yul\":14757:14803   */\n      swap2\n      pop\n        /* \"#utility.yul\":14526:14809   */\n      pop\n        /* \"#utility.yul\":14436:14809   */\n      swap3\n      swap2\n      pop\n      pop\n      jump\t// out\n        /* \"#utility.yul\":14815:14933   */\n    tag_159:\n        /* \"#utility.yul\":14902:14926   */\n      tag_310\n        /* \"#utility.yul\":14920:14925   */\n      dup2\n        /* \"#utility.yul\":14902:14926   */\n      tag_140\n      jump\t// in\n    tag_310:\n        /* \"#utility.yul\":14897:14900   */\n      dup3\n        /* \"#utility.yul\":14890:14927   */\n      mstore\n        /* \"#utility.yul\":14815:14933   */\n      pop\n      pop\n      jump\t// out\n        /* \"#utility.yul\":14939:15864   */\n    tag_41:\n        /* \"#utility.yul\":15198:15202   */\n      0x00\n        /* \"#utility.yul\":15236:15239   */\n      0xa0\n        /* \"#utility.yul\":15225:15234   */\n      dup3\n        /* \"#utility.yul\":15221:15240   */\n      add\n        /* \"#utility.yul\":15213:15240   */\n      swap1\n      pop\n        /* \"#utility.yul\":15286:15295   */\n      dup2\n        /* \"#utility.yul\":15280:15284   */\n      dup2\n        /* \"#utility.yul\":15276:15296   */\n      sub\n        /* \"#utility.yul\":15272:15273   */\n      0x00\n        /* \"#utility.yul\":15261:15270   */\n      dup4\n        /* \"#utility.yul\":15257:15274   */\n      add\n        /* \"#utility.yul\":15250:15297   */\n      mstore\n        /* \"#utility.yul\":15314:15390   */\n      tag_312\n        /* \"#utility.yul\":15385:15389   */\n      dup2\n        /* \"#utility.yul\":15376:15382   */\n      dup9\n        /* \"#utility.yul\":15314:15390   */\n      tag_158\n      jump\t// in\n    tag_312:\n        /* \"#utility.yul\":15306:15390   */\n      swap1\n      pop\n        /* \"#utility.yul\":15400:15472   */\n      tag_313\n        /* \"#utility.yul\":15468:15470   */\n      0x20\n        /* \"#utility.yul\":15457:15466   */\n      dup4\n        /* \"#utility.yul\":15453:15471   */\n      add\n        /* \"#utility.yul\":15444:15450   */\n      dup8\n        /* \"#utility.yul\":15400:15472   */\n      tag_159\n      jump\t// in\n    tag_313:\n        /* \"#utility.yul\":15482:15554   */\n      tag_314\n        /* \"#utility.yul\":15550:15552   */\n      0x40\n        /* \"#utility.yul\":15539:15548   */\n      dup4\n        /* \"#utility.yul\":15535:15553   */\n      add\n        /* \"#utility.yul\":15526:15532   */\n      dup7\n        /* \"#utility.yul\":15482:15554   */\n      tag_159\n      jump\t// in\n    tag_314:\n        /* \"#utility.yul\":15601:15610   */\n      dup2\n        /* \"#utility.yul\":15595:15599   */\n      dup2\n        /* \"#utility.yul\":15591:15611   */\n      sub\n        /* \"#utility.yul\":15586:15588   */\n      0x60\n        /* \"#utility.yul\":15575:15584   */\n      dup4\n        /* \"#utility.yul\":15571:15589   */\n      add\n        /* \"#utility.yul\":15564:15612   */\n      mstore\n        /* \"#utility.yul\":15629:15705   */\n      tag_315\n        /* \"#utility.yul\":15700:15704   */\n      dup2\n        /* \"#utility.yul\":15691:15697   */\n      dup6\n        /* \"#utility.yul\":15629:15705   */\n      tag_158\n      jump\t// in\n    tag_315:\n        /* \"#utility.yul\":15621:15705   */\n      swap1\n      pop\n        /* \"#utility.yul\":15753:15762   */\n      dup2\n        /* \"#utility.yul\":15747:15751   */\n      dup2\n        /* \"#utility.yul\":15743:15763   */\n      sub\n        /* \"#utility.yul\":15737:15740   */\n      0x80\n        /* \"#utility.yul\":15726:15735   */\n      dup4\n        /* \"#utility.yul\":15722:15741   */\n      add\n        /* \"#utility.yul\":15715:15764   */\n      mstore\n        /* \"#utility.yul\":15781:15857   */\n      tag_316\n        /* \"#utility.yul\":15852:15856   */\n      dup2\n        /* \"#utility.yul\":15843:15849   */\n      dup5\n        /* \"#utility.yul\":15781:15857   */\n      tag_158\n      jump\t// in\n    tag_316:\n        /* \"#utility.yul\":15773:15857   */\n      swap1\n      pop\n        /* \"#utility.yul\":14939:15864   */\n      swap7\n      swap6\n      pop\n      pop\n      pop\n      pop\n      pop\n      pop\n      jump\t// out\n        /* \"#utility.yul\":15870:16050   */\n    tag_160:\n        /* \"#utility.yul\":15918:15995   */\n      0x4e487b7100000000000000000000000000000000000000000000000000000000\n        /* \"#utility.yul\":15915:15916   */\n      0x00\n        /* \"#utility.yul\":15908:15996   */\n      mstore\n        /* \"#utility.yul\":16015:16019   */\n      0x22\n        /* \"#utility.yul\":16012:16013   */\n      0x04\n        /* \"#utility.yul\":16005:16020   */\n      mstore\n        /* \"#utility.yul\":16039:16043   */\n      0x24\n        /* \"#utility.yul\":16036:16037   */\n      0x00\n        /* \"#utility.yul\":16029:16044   */\n      revert\n        /* \"#utility.yul\":16056:16376   */\n    tag_67:\n        /* \"#utility.yul\":16100:16106   */\n      0x00\n        /* \"#utility.yul\":16137:16138   */\n      0x02\n        /* \"#utility.yul\":16131:16135   */\n      dup3\n        /* \"#utility.yul\":16127:16139   */\n      div\n        /* \"#utility.yul\":16117:16139   */\n      swap1\n      pop\n        /* \"#utility.yul\":16184:16185   */\n      0x01\n        /* \"#utility.yul\":16178:16182   */\n      dup3\n        /* \"#utility.yul\":16174:16186   */\n      and\n        /* \"#utility.yul\":16205:16223   */\n      dup1\n        /* \"#utility.yul\":16195:16276   */\n      tag_319\n      jumpi\n        /* \"#utility.yul\":16261:16265   */\n      0x7f\n        /* \"#utility.yul\":16253:16259   */\n      dup3\n        /* \"#utility.yul\":16249:16266   */\n      and\n        /* \"#utility.yul\":16239:16266   */\n      swap2\n      pop\n        /* \"#utility.yul\":16195:16276   */\n    tag_319:\n        /* \"#utility.yul\":16323:16325   */\n      0x20\n        /* \"#utility.yul\":16315:16321   */\n      dup3\n        /* \"#utility.yul\":16312:16326   */\n      lt\n        /* \"#utility.yul\":16292:16310   */\n      dup2\n        /* \"#utility.yul\":16289:16327   */\n      sub\n        /* \"#utility.yul\":16286:16370   */\n      tag_320\n      jumpi\n        /* \"#utility.yul\":16342:16360   */\n      tag_321\n      tag_160\n      jump\t// in\n    tag_321:\n        /* \"#utility.yul\":16286:16370   */\n    tag_320:\n        /* \"#utility.yul\":16107:16376   */\n      pop\n        /* \"#utility.yul\":16056:16376   */\n      swap2\n      swap1\n      pop\n      jump\t// out\n        /* \"#utility.yul\":16382:16522   */\n    tag_161:\n        /* \"#utility.yul\":16430:16434   */\n      0x00\n        /* \"#utility.yul\":16453:16456   */\n      dup2\n        /* \"#utility.yul\":16445:16456   */\n      swap1\n      pop\n        /* \"#utility.yul\":16476:16479   */\n      dup2\n        /* \"#utility.yul\":16473:16474   */\n      0x00\n        /* \"#utility.yul\":16466:16480   */\n      mstore\n        /* \"#utility.yul\":16510:16514   */\n      0x20\n        /* \"#utility.yul\":16507:16508   */\n      0x00\n        /* \"#utility.yul\":16497:16515   */\n      keccak256\n        /* \"#utility.yul\":16489:16515   */\n      swap1\n      pop\n        /* \"#utility.yul\":16382:16522   */\n      swap2\n      swap1\n      pop\n      jump\t// out\n        /* \"#utility.yul\":16528:16621   */\n    tag_162:\n        /* \"#utility.yul\":16565:16571   */\n      0x00\n        /* \"#utility.yul\":16612:16614   */\n      0x20\n        /* \"#utility.yul\":16607:16609   */\n      0x1f\n        /* \"#utility.yul\":16600:16605   */\n      dup4\n        /* \"#utility.yul\":16596:16610   */\n      add\n        /* \"#utility.yul\":16592:16615   */\n      div\n        /* \"#utility.yul\":16582:16615   */\n      swap1\n      pop\n        /* \"#utility.yul\":16528:16621   */\n      swap2\n      swap1\n      pop\n      jump\t// out\n        /* \"#utility.yul\":16627:16734   */\n    tag_163:\n        /* \"#utility.yul\":16671:16679   */\n      0x00\n        /* \"#utility.yul\":16721:16726   */\n      dup3\n        /* \"#utility.yul\":16715:16719   */\n      dup3\n        /* \"#utility.yul\":16711:16727   */\n      shl\n        /* \"#utility.yul\":16690:16727   */\n      swap1\n      pop\n        /* \"#utility.yul\":16627:16734   */\n      swap3\n      swap2\n      pop\n      pop\n      jump\t// out\n        /* \"#utility.yul\":16740:17133   */\n    tag_164:\n        /* \"#utility.yul\":16809:16815   */\n      0x00\n        /* \"#utility.yul\":16859:16860   */\n      0x08\n        /* \"#utility.yul\":16847:16857   */\n      dup4\n        /* \"#utility.yul\":16843:16861   */\n      mul\n        /* \"#utility.yul\":16882:16979   */\n      tag_326\n        /* \"#utility.yul\":16912:16978   */\n      0xffffffffffffffffffffffffffffffffffffffffffffffffffffffffffffffff\n        /* \"#utility.yul\":16901:16910   */\n      dup3\n        /* \"#utility.yul\":16882:16979   */\n      tag_163\n      jump\t// in\n    tag_326:\n        /* \"#utility.yul\":17000:17039   */\n      tag_327\n        /* \"#utility.yul\":17030:17038   */\n      dup7\n        /* \"#utility.yul\":17019:17028   */\n      dup4\n        /* \"#utility.yul\":17000:17039   */\n      tag_163\n      jump\t// in\n    tag_327:\n        /* \"#utility.yul\":16988:17039   */\n      swap6\n      pop\n        /* \"#utility.yul\":17072:17076   */\n      dup1\n        /* \"#utility.yul\":17068:17077   */\n      not\n        /* \"#utility.yul\":17061:17066   */\n      dup5\n        /* \"#utility.yul\":17057:17078   */\n      and\n        /* \"#utility.yul\":17048:17078   */\n      swap4\n      pop\n        /* \"#utility.yul\":17121:17125   */\n      dup1\n        /* \"#utility.yul\":17111:17119   */\n      dup7\n        /* \"#utility.yul\":17107:17126   */\n      and\n        /* \"#utility.yul\":17100:17105   */\n      dup5\n        /* \"#utility.yul\":17097:17127   */\n      or\n        /* \"#utility.yul\":17087:17127   */\n      swap3\n      pop\n        /* \"#utility.yul\":16816:17133   */\n      pop\n      pop\n        /* \"#utility.yul\":16740:17133   */\n      swap4\n      swap3\n      pop\n      pop\n      pop\n      jump\t// out\n        /* \"#utility.yul\":17139:17199   */\n    tag_165:\n        /* \"#utility.yul\":17167:17170   */\n      0x00\n        /* \"#utility.yul\":17188:17193   */\n      dup2\n        /* \"#utility.yul\":17181:17193   */\n      swap1\n      pop\n        /* \"#utility.yul\":17139:17199   */\n      swap2\n      swap1\n      pop\n      jump\t// out\n        /* \"#utility.yul\":17205:17347   */\n    tag_166:\n        /* \"#utility.yul\":17255:17264   */\n      0x00\n        /* \"#utility.yul\":17288:17341   */\n      tag_330\n        /* \"#utility.yul\":17306:17340   */\n      tag_331\n        /* \"#utility.yul\":17315:17339   */\n      tag_332\n        /* \"#utility.yul\":17333:17338   */\n      dup5\n        /* \"#utility.yul\":17315:17339   */\n      tag_127\n      jump\t// in\n    tag_332:\n        /* \"#utility.yul\":17306:17340   */\n      tag_165\n      jump\t// in\n    tag_331:\n        /* \"#utility.yul\":17288:17341   */\n      tag_127\n      jump\t// in\n    tag_330:\n        /* \"#utility.yul\":17275:17341   */\n      swap1\n      pop\n        /* \"#utility.yul\":17205:17347   */\n      swap2\n      swap1\n      pop\n      jump\t// out\n        /* \"#utility.yul\":17353:17428   */\n    tag_167:\n        /* \"#utility.yul\":17396:17399   */\n      0x00\n        /* \"#utility.yul\":17417:17422   */\n      dup2\n        /* \"#utility.yul\":17410:17422   */\n      swap1\n      pop\n        /* \"#utility.yul\":17353:17428   */\n      swap2\n      swap1\n      pop\n      jump\t// out\n        /* \"#utility.yul\":17434:17703   */\n    tag_168:\n        /* \"#utility.yul\":17544:17583   */\n      tag_335\n        /* \"#utility.yul\":17575:17582   */\n      dup4\n        /* \"#utility.yul\":17544:17583   */\n      tag_166\n      jump\t// in\n    tag_335:\n        /* \"#utility.yul\":17605:17696   */\n      tag_336\n        /* \"#utility.yul\":17654:17695   */\n      tag_337\n        /* \"#utility.yul\":17678:17694   */\n      dup3\n        /* \"#utility.yul\":17654:17695   */\n      tag_167\n      jump\t// in\n    tag_337:\n        /* \"#utility.yul\":17646:17652   */\n      dup5\n        /* \"#utility.yul\":17639:17643   */\n      dup5\n        /* \"#utility.yul\":17633:17644   */\n      sload\n        /* \"#utility.yul\":17605:17696   */\n      tag_164\n      jump\t// in\n    tag_336:\n        /* \"#utility.yul\":17599:17603   */\n      dup3\n        /* \"#utility.yul\":17592:17697   */\n      sstore\n        /* \"#utility.yul\":17510:17703   */\n      pop\n        /* \"#utility.yul\":17434:17703   */\n      pop\n      pop\n      pop\n      jump\t// out\n        /* \"#utility.yul\":17709:17782   */\n    tag_169:\n        /* \"#utility.yul\":17754:17757   */\n      0x00\n        /* \"#utility.yul\":17709:17782   */\n      swap1\n      jump\t// out\n        /* \"#utility.yul\":17788:17977   */\n    tag_170:\n        /* \"#utility.yul\":17865:17897   */\n      tag_340\n      tag_169\n      jump\t// in\n    tag_340:\n        /* \"#utility.yul\":17906:17971   */\n      tag_341\n        /* \"#utility.yul\":17964:17970   */\n      dup2\n        /* \"#utility.yul\":17956:17962   */\n      dup5\n        /* \"#utility.yul\":17950:17954   */\n      dup5\n        /* \"#utility.yul\":17906:17971   */\n      tag_168\n      jump\t// in\n    tag_341:\n        /* \"#utility.yul\":17841:17977   */\n      pop\n        /* \"#utility.yul\":17788:17977   */\n      pop\n      pop\n      jump\t// out\n        /* \"#utility.yul\":17983:18169   */\n    tag_171:\n        /* \"#utility.yul\":18043:18163   */\n    tag_343:\n        /* \"#utility.yul\":18060:18063   */\n      dup2\n        /* \"#utility.yul\":18053:18058   */\n      dup2\n        /* \"#utility.yul\":18050:18064   */\n      lt\n        /* \"#utility.yul\":18043:18163   */\n      iszero\n      tag_345\n      jumpi\n        /* \"#utility.yul\":18114:18153   */\n      tag_346\n        /* \"#utility.yul\":18151:18152   */\n      0x00\n        /* \"#utility.yul\":18144:18149   */\n      dup3\n        /* \"#utility.yul\":18114:18153   */\n      tag_170\n      jump\t// in\n    tag_346:\n        /* \"#utility.yul\":18087:18088   */\n      0x01\n        /* \"#utility.yul\":18080:18085   */\n      dup2\n        /* \"#utility.yul\":18076:18089   */\n      add\n        /* \"#utility.yul\":18067:18089   */\n      swap1\n      pop\n        /* \"#utility.yul\":18043:18163   */\n      jump(tag_343)\n    tag_345:\n        /* \"#utility.yul\":17983:18169   */\n      pop\n      pop\n      jump\t// out\n        /* \"#utility.yul\":18175:18716   */\n    tag_172:\n        /* \"#utility.yul\":18275:18277   */\n      0x1f\n        /* \"#utility.yul\":18270:18273   */\n      dup3\n        /* \"#utility.yul\":18267:18278   */\n      gt\n        /* \"#utility.yul\":18264:18709   */\n      iszero\n      tag_348\n      jumpi\n        /* \"#utility.yul\":18309:18346   */\n      tag_349\n        /* \"#utility.yul\":18340:18345   */\n      dup2\n        /* \"#utility.yul\":18309:18346   */\n      tag_161\n      jump\t// in\n    tag_349:\n        /* \"#utility.yul\":18392:18421   */\n      tag_350\n        /* \"#utility.yul\":18410:18420   */\n      dup5\n        /* \"#utility.yul\":18392:18421   */\n      tag_162\n      jump\t// in\n    tag_350:\n        /* \"#utility.yul\":18382:18390   */\n      dup2\n        /* \"#utility.yul\":18378:18422   */\n      add\n        /* \"#utility.yul\":18575:18577   */\n      0x20\n        /* \"#utility.yul\":18563:18573   */\n      dup6\n        /* \"#utility.yul\":18560:18578   */\n      lt\n        /* \"#utility.yul\":18557:18606   */\n      iszero\n      tag_351\n      jumpi\n        /* \"#utility.yul\":18596:18604   */\n      dup2\n        /* \"#utility.yul\":18581:18604   */\n      swap1\n      pop\n        /* \"#utility.yul\":18557:18606   */\n    tag_351:\n        /* \"#utility.yul\":18619:18699   */\n      tag_352\n        /* \"#utility.yul\":18675:18697   */\n      tag_353\n        /* \"#utility.yul\":18693:18696   */\n      dup6\n        /* \"#utility.yul\":18675:18697   */\n      tag_162\n      jump\t// in\n    tag_353:\n        /* \"#utility.yul\":18665:18673   */\n      dup4\n        /* \"#utility.yul\":18661:18698   */\n      add\n        /* \"#utility.yul\":18648:18659   */\n      dup3\n        /* \"#utility.yul\":18619:18699   */\n      tag_171\n      jump\t// in\n    tag_352:\n        /* \"#utility.yul\":18279:18709   */\n      pop\n      pop\n        /* \"#utility.yul\":18264:18709   */\n    tag_348:\n        /* \"#utility.yul\":18175:18716   */\n      pop\n      pop\n      pop\n      jump\t// out\n        /* \"#utility.yul\":18722:18839   */\n    tag_173:\n        /* \"#utility.yul\":18776:18784   */\n      0x00\n        /* \"#utility.yul\":18826:18831   */\n      dup3\n        /* \"#utility.yul\":18820:18824   */\n      dup3\n        /* \"#utility.yul\":18816:18832   */\n      shr\n        /* \"#utility.yul\":18795:18832   */\n      swap1\n      pop\n        /* \"#utility.yul\":18722:18839   */\n      swap3\n      swap2\n      pop\n      pop\n      jump\t// out\n        /* \"#utility.yul\":18845:19014   */\n    tag_174:\n        /* \"#utility.yul\":18889:18895   */\n      0x00\n        /* \"#utility.yul\":18922:18973   */\n      tag_356\n        /* \"#utility.yul\":18970:18971   */\n      0x00\n        /* \"#utility.yul\":18966:18972   */\n      not\n        /* \"#utility.yul\":18958:18963   */\n      dup5\n        /* \"#utility.yul\":18955:18956   */\n      0x08\n        /* \"#utility.yul\":18951:18964   */\n      mul\n        /* \"#utility.yul\":18922:18973   */\n      tag_173\n      jump\t// in\n    tag_356:\n        /* \"#utility.yul\":18918:18974   */\n      not\n        /* \"#utility.yul\":19003:19007   */\n      dup1\n        /* \"#utility.yul\":18997:19001   */\n      dup4\n        /* \"#utility.yul\":18993:19008   */\n      and\n        /* \"#utility.yul\":18983:19008   */\n      swap2\n      pop\n        /* \"#utility.yul\":18896:19014   */\n      pop\n        /* \"#utility.yul\":18845:19014   */\n      swap3\n      swap2\n      pop\n      pop\n      jump\t// out\n        /* \"#utility.yul\":19019:19314   */\n    tag_175:\n        /* \"#utility.yul\":19095:19099   */\n      0x00\n        /* \"#utility.yul\":19241:19270   */\n      tag_358\n        /* \"#utility.yul\":19266:19269   */\n      dup4\n        /* \"#utility.yul\":19260:19264   */\n      dup4\n        /* \"#utility.yul\":19241:19270   */\n      tag_174\n      jump\t// in\n    tag_358:\n        /* \"#utility.yul\":19233:19270   */\n      swap2\n      pop\n        /* \"#utility.yul\":19303:19306   */\n      dup3\n        /* \"#utility.yul\":19300:19301   */\n      0x02\n        /* \"#utility.yul\":19296:19307   */\n      mul\n        /* \"#utility.yul\":19290:19294   */\n      dup3\n        /* \"#utility.yul\":19287:19308   */\n      or\n        /* \"#utility.yul\":19279:19308   */\n      swap1\n      pop\n        /* \"#utility.yul\":19019:19314   */\n      swap3\n      swap2\n      pop\n      pop\n      jump\t// out\n        /* \"#utility.yul\":19319:20709   */\n    tag_47:\n        /* \"#utility.yul\":19434:19470   */\n      tag_360\n        /* \"#utility.yul\":19466:19469   */\n      dup3\n        /* \"#utility.yul\":19434:19470   */\n      tag_147\n      jump\t// in\n    tag_360:\n        /* \"#utility.yul\":19535:19553   */\n      0xffffffffffffffff\n        /* \"#utility.yul\":19527:19533   */\n      dup2\n        /* \"#utility.yul\":19524:19554   */\n      gt\n        /* \"#utility.yul\":19521:19577   */\n      iszero\n      tag_361\n      jumpi\n        /* \"#utility.yul\":19557:19575   */\n      tag_362\n      tag_55\n      jump\t// in\n    tag_362:\n        /* \"#utility.yul\":19521:19577   */\n    tag_361:\n        /* \"#utility.yul\":19601:19639   */\n      tag_363\n        /* \"#utility.yul\":19633:19637   */\n      dup3\n        /* \"#utility.yul\":19627:19638   */\n      sload\n        /* \"#utility.yul\":19601:19639   */\n      tag_67\n      jump\t// in\n    tag_363:\n        /* \"#utility.yul\":19686:19752   */\n      tag_364\n        /* \"#utility.yul\":19745:19751   */\n      dup3\n        /* \"#utility.yul\":19737:19743   */\n      dup3\n        /* \"#utility.yul\":19731:19735   */\n      dup6\n        /* \"#utility.yul\":19686:19752   */\n      tag_172\n      jump\t// in\n    tag_364:\n        /* \"#utility.yul\":19779:19780   */\n      0x00\n        /* \"#utility.yul\":19803:19807   */\n      0x20\n        /* \"#utility.yul\":19790:19807   */\n      swap1\n      pop\n        /* \"#utility.yul\":19835:19837   */\n      0x1f\n        /* \"#utility.yul\":19827:19833   */\n      dup4\n        /* \"#utility.yul\":19824:19838   */\n      gt\n        /* \"#utility.yul\":19852:19853   */\n      0x01\n        /* \"#utility.yul\":19847:20464   */\n      dup2\n      eq\n      tag_366\n      jumpi\n        /* \"#utility.yul\":20508:20509   */\n      0x00\n        /* \"#utility.yul\":20525:20531   */\n      dup5\n        /* \"#utility.yul\":20522:20599   */\n      iszero\n      tag_367\n      jumpi\n        /* \"#utility.yul\":20574:20583   */\n      dup3\n        /* \"#utility.yul\":20569:20572   */\n      dup8\n        /* \"#utility.yul\":20565:20584   */\n      add\n        /* \"#utility.yul\":20559:20585   */\n      mload\n        /* \"#utility.yul\":20550:20585   */\n      swap1\n      pop\n        /* \"#utility.yul\":20522:20599   */\n    tag_367:\n        /* \"#utility.yul\":20625:20692   */\n      tag_368\n        /* \"#utility.yul\":20685:20691   */\n      dup6\n        /* \"#utility.yul\":20678:20683   */\n      dup3\n        /* \"#utility.yul\":20625:20692   */\n      tag_175\n      jump\t// in\n    tag_368:\n        /* \"#utility.yul\":20619:20623   */\n      dup7\n        /* \"#utility.yul\":20612:20693   */\n      sstore\n        /* \"#utility.yul\":20481:20703   */\n      pop\n        /* \"#utility.yul\":19817:20703   */\n      jump(tag_365)\n        /* \"#utility.yul\":19847:20464   */\n    tag_366:\n        /* \"#utility.yul\":19899:19903   */\n      0x1f\n        /* \"#utility.yul\":19895:19904   */\n      not\n        /* \"#utility.yul\":19887:19893   */\n      dup5\n        /* \"#utility.yul\":19883:19905   */\n      and\n        /* \"#utility.yul\":19933:19969   */\n      tag_369\n        /* \"#utility.yul\":19964:19968   */\n      dup7\n        /* \"#utility.yul\":19933:19969   */\n      tag_161\n      jump\t// in\n    tag_369:\n        /* \"#utility.yul\":19991:19992   */\n      0x00\n        /* \"#utility.yul\":20005:20213   */\n    tag_370:\n        /* \"#utility.yul\":20019:20026   */\n      dup3\n        /* \"#utility.yul\":20016:20017   */\n      dup2\n        /* \"#utility.yul\":20013:20027   */\n      lt\n        /* \"#utility.yul\":20005:20213   */\n      iszero\n      tag_372\n      jumpi\n        /* \"#utility.yul\":20098:20107   */\n      dup5\n        /* \"#utility.yul\":20093:20096   */\n      dup10\n        /* \"#utility.yul\":20089:20108   */\n      add\n        /* \"#utility.yul\":20083:20109   */\n      mload\n        /* \"#utility.yul\":20075:20081   */\n      dup3\n        /* \"#utility.yul\":20068:20110   */\n      sstore\n        /* \"#utility.yul\":20149:20150   */\n      0x01\n        /* \"#utility.yul\":20141:20147   */\n      dup3\n        /* \"#utility.yul\":20137:20151   */\n      add\n        /* \"#utility.yul\":20127:20151   */\n      swap2\n      pop\n        /* \"#utility.yul\":20196:20198   */\n      0x20\n        /* \"#utility.yul\":20185:20194   */\n      dup6\n        /* \"#utility.yul\":20181:20199   */\n      add\n        /* \"#utility.yul\":20168:20199   */\n      swap5\n      pop\n        /* \"#utility.yul\":20042:20046   */\n      0x20\n        /* \"#utility.yul\":20039:20040   */\n      dup2\n        /* \"#utility.yul\":20035:20047   */\n      add\n        /* \"#utility.yul\":20030:20047   */\n      swap1\n      pop\n        /* \"#utility.yul\":20005:20213   */\n      jump(tag_370)\n    tag_372:\n        /* \"#utility.yul\":20241:20247   */\n      dup7\n        /* \"#utility.yul\":20232:20239   */\n      dup4\n        /* \"#utility.yul\":20229:20248   */\n      lt\n        /* \"#utility.yul\":20226:20405   */\n      iszero\n      tag_373\n      jumpi\n        /* \"#utility.yul\":20299:20308   */\n      dup5\n        /* \"#utility.yul\":20294:20297   */\n      dup10\n        /* \"#utility.yul\":20290:20309   */\n      add\n        /* \"#utility.yul\":20284:20310   */\n      mload\n        /* \"#utility.yul\":20342:20390   */\n      tag_374\n        /* \"#utility.yul\":20384:20388   */\n      0x1f\n        /* \"#utility.yul\":20376:20382   */\n      dup10\n        /* \"#utility.yul\":20372:20389   */\n      and\n        /* \"#utility.yul\":20361:20370   */\n      dup3\n        /* \"#utility.yul\":20342:20390   */\n      tag_174\n      jump\t// in\n    tag_374:\n        /* \"#utility.yul\":20334:20340   */\n      dup4\n        /* \"#utility.yul\":20327:20391   */\n      sstore\n        /* \"#utility.yul\":20249:20405   */\n      pop\n        /* \"#utility.yul\":20226:20405   */\n    tag_373:\n        /* \"#utility.yul\":20451:20452   */\n      0x01\n        /* \"#utility.yul\":20447:20448   */\n      0x02\n        /* \"#utility.yul\":20439:20445   */\n      dup9\n        /* \"#utility.yul\":20435:20449   */\n      mul\n        /* \"#utility.yul\":20431:20453   */\n      add\n        /* \"#utility.yul\":20425:20429   */\n      dup9\n        /* \"#utility.yul\":20418:20454   */\n      sstore\n        /* \"#utility.yul\":19854:20464   */\n      pop\n      pop\n      pop\n        /* \"#utility.yul\":19817:20703   */\n    tag_365:\n      pop\n        /* \"#utility.yul\":19409:20709   */\n      pop\n      pop\n      pop\n        /* \"#utility.yul\":19319:20709   */\n      pop\n      pop\n      jump\t// out\n        /* \"#utility.yul\":20715:20895   */\n    tag_65:\n        /* \"#utility.yul\":20763:20840   */\n      0x4e487b7100000000000000000000000000000000000000000000000000000000\n        /* \"#utility.yul\":20760:20761   */\n      0x00\n        /* \"#utility.yul\":20753:20841   */\n      mstore\n        /* \"#utility.yul\":20860:20864   */\n      0x32\n        /* \"#utility.yul\":20857:20858   */\n      0x04\n        /* \"#utility.yul\":20850:20865   */\n      mstore\n        /* \"#utility.yul\":20884:20888   */\n      0x24\n        /* \"#utility.yul\":20881:20882   */\n      0x00\n        /* \"#utility.yul\":20874:20889   */\n      revert\n        /* \"#utility.yul\":20901:21081   */\n    tag_176:\n        /* \"#utility.yul\":20949:21026   */\n      0x4e487b7100000000000000000000000000000000000000000000000000000000\n        /* \"#utility.yul\":20946:20947   */\n      0x00\n        /* \"#utility.yul\":20939:21027   */\n      mstore\n        /* \"#utility.yul\":21046:21050   */\n      0x11\n        /* \"#utility.yul\":21043:21044   */\n      0x04\n        /* \"#utility.yul\":21036:21051   */\n      mstore\n        /* \"#utility.yul\":21070:21074   */\n      0x24\n        /* \"#utility.yul\":21067:21068   */\n      0x00\n        /* \"#utility.yul\":21060:21075   */\n      revert\n        /* \"#utility.yul\":21087:21320   */\n    tag_85:\n        /* \"#utility.yul\":21126:21129   */\n      0x00\n        /* \"#utility.yul\":21149:21173   */\n      tag_378\n        /* \"#utility.yul\":21167:21172   */\n      dup3\n        /* \"#utility.yul\":21149:21173   */\n      tag_127\n      jump\t// in\n    tag_378:\n        /* \"#utility.yul\":21140:21173   */\n      swap2\n      pop\n        /* \"#utility.yul\":21195:21261   */\n      0xffffffffffffffffffffffffffffffffffffffffffffffffffffffffffffffff\n        /* \"#utility.yul\":21188:21193   */\n      dup3\n        /* \"#utility.yul\":21185:21262   */\n      sub\n        /* \"#utility.yul\":21182:21285   */\n      tag_379\n      jumpi\n        /* \"#utility.yul\":21265:21283   */\n      tag_380\n      tag_176\n      jump\t// in\n    tag_380:\n        /* \"#utility.yul\":21182:21285   */\n    tag_379:\n        /* \"#utility.yul\":21312:21313   */\n      0x01\n        /* \"#utility.yul\":21305:21310   */\n      dup3\n        /* \"#utility.yul\":21301:21314   */\n      add\n        /* \"#utility.yul\":21294:21314   */\n      swap1\n      pop\n        /* \"#utility.yul\":21087:21320   */\n      swap2\n      swap1\n      pop\n      jump\t// out\n\n    auxdata: 0xa26469706673582212206543484fb01e881562718fc1923ec44b8db5db3ffcaf9cdcefa4b810dfc8d37a64736f6c63430008120033\n}\n",
				"bytecode": {
					"linkReferences": {},
					"object": "6080604052600160005534801561001557600080fd5b50611776806100256000396000f3fe608060405234801561001057600080fd5b506004361061007d5760003560e01c8063b03637811161005b578063b0363781146100fe578063b9db15b41461011a578063cb59d4301461014a578063e3eba9041461017e5761007d565b806377c1b8971461008257806383f48c961461009e57806396fccba4146100ce575b600080fd5b61009c60048036038101906100979190610e12565b61019c565b005b6100b860048036038101906100b39190610ecc565b6101c4565b6040516100c59190610f1b565b60405180910390f35b6100e860048036038101906100e39190610f36565b6101f5565b6040516100f59190611137565b60405180910390f35b61011860048036038101906101139190611159565b6105c4565b005b610134600480360381019061012f9190611228565b610784565b60405161014191906112d9565b60405180910390f35b610164600480360381019061015f9190611228565b610a13565b604051610175959493929190611354565b60405180910390f35b610186610c21565b6040516101939190610f1b565b60405180910390f35b806002600084815260200190815260200160002060040190816101bf91906115c8565b505050565b600360205281600052604060002081815481106101e057600080fd5b90600052602060002001600091509150505481565b60606000600360008473ffffffffffffffffffffffffffffffffffffffff1673ffffffffffffffffffffffffffffffffffffffff16815260200190815260200160002080548060200260200160405190810160405280929190818152602001828054801561028257602002820191906000526020600020905b81548152602001906001019080831161026e575b505050505090506000815167ffffffffffffffff8111156102a6576102a5610ce7565b5b6040519080825280602002602001820160405280156102df57816020015b6102cc610c27565b8152602001906001900390816102c45790505b50905060005b82518110156105b957600260008483815181106103055761030461169a565b5b602002602001015181526020019081526020016000206040518060a0016040529081600082018054610336906113eb565b80601f0160208091040260200160405190810160405280929190818152602001828054610362906113eb565b80156103af5780601f10610384576101008083540402835291602001916103af565b820191906000526020600020905b81548152906001019060200180831161039257829003601f168201915b505050505081526020016001820160009054906101000a900473ffffffffffffffffffffffffffffffffffffffff1673ffffffffffffffffffffffffffffffffffffffff1673ffffffffffffffffffffffffffffffffffffffff1681526020016002820160009054906101000a900473ffffffffffffffffffffffffffffffffffffffff1673ffffffffffffffffffffffffffffffffffffffff1673ffffffffffffffffffffffffffffffffffffffff168152602001600382018054610474906113eb565b80601f01602080910402602001604051908101604052809291908181526020018280546104a0906113eb565b80156104ed5780601f106104c2576101008083540402835291602001916104ed565b820191906000526020600020905b8154815290600101906020018083116104d057829003601f168201915b50505050508152602001600482018054610506906113eb565b80601f0160208091040260200160405190810160405280929190818152602001828054610532906113eb565b801561057f5780601f106105545761010080835404028352916020019161057f565b820191906000526020600020905b81548152906001019060200180831161056257829003601f168201915b50505050508152505082828151811061059b5761059a61169a565b5b602002602001018190525080806105b1906116f8565b9150506102e5565b508092505050919050565b6040518060a001604052808681526020018573ffffffffffffffffffffffffffffffffffffffff1681526020018473ffffffffffffffffffffffffffffffffffffffff168152602001838152602001828152506002600080548152602001908152602001600020600082015181600001908161064091906115c8565b5060208201518160010160006101000a81548173ffffffffffffffffffffffffffffffffffffffff021916908373ffffffffffffffffffffffffffffffffffffffff16021790555060408201518160020160006101000a81548173ffffffffffffffffffffffffffffffffffffffff021916908373ffffffffffffffffffffffffffffffffffffffff16021790555060608201518160030190816106e491906115c8565b5060808201518160040190816106fa91906115c8565b50905050600360008473ffffffffffffffffffffffffffffffffffffffff1673ffffffffffffffffffffffffffffffffffffffff1681526020019081526020016000206000549080600181540180825580915050600190039060005260206000200160009091909190915055600080815480929190610778906116f8565b91905055505050505050565b61078c610c27565b600260008381526020019081526020016000206040518060a00160405290816000820180546107ba906113eb565b80601f01602080910402602001604051908101604052809291908181526020018280546107e6906113eb565b80156108335780601f1061080857610100808354040283529160200191610833565b820191906000526020600020905b81548152906001019060200180831161081657829003601f168201915b505050505081526020016001820160009054906101000a900473ffffffffffffffffffffffffffffffffffffffff1673ffffffffffffffffffffffffffffffffffffffff1673ffffffffffffffffffffffffffffffffffffffff1681526020016002820160009054906101000a900473ffffffffffffffffffffffffffffffffffffffff1673ffffffffffffffffffffffffffffffffffffffff1673ffffffffffffffffffffffffffffffffffffffff1681526020016003820180546108f8906113eb565b80601f0160208091040260200160405190810160405280929190818152602001828054610924906113eb565b80156109715780601f1061094657610100808354040283529160200191610971565b820191906000526020600020905b81548152906001019060200180831161095457829003601f168201915b5050505050815260200160048201805461098a906113eb565b80601f01602080910402602001604051908101604052809291908181526020018280546109b6906113eb565b8015610a035780601f106109d857610100808354040283529160200191610a03565b820191906000526020600020905b8154815290600101906020018083116109e657829003601f168201915b5050505050815250509050919050565b6002602052806000526040600020600091509050806000018054610a36906113eb565b80601f0160208091040260200160405190810160405280929190818152602001828054610a62906113eb565b8015610aaf5780601f10610a8457610100808354040283529160200191610aaf565b820191906000526020600020905b815481529060010190602001808311610a9257829003601f168201915b5050505050908060010160009054906101000a900473ffffffffffffffffffffffffffffffffffffffff16908060020160009054906101000a900473ffffffffffffffffffffffffffffffffffffffff1690806003018054610b10906113eb565b80601f0160208091040260200160405190810160405280929190818152602001828054610b3c906113eb565b8015610b895780601f10610b5e57610100808354040283529160200191610b89565b820191906000526020600020905b815481529060010190602001808311610b6c57829003601f168201915b505050505090806004018054610b9e906113eb565b80601f0160208091040260200160405190810160405280929190818152602001828054610bca906113eb565b8015610c175780601f10610bec57610100808354040283529160200191610c17565b820191906000526020600020905b815481529060010190602001808311610bfa57829003601f168201915b5050505050905085565b60005481565b6040518060a0016040528060608152602001600073ffffffffffffffffffffffffffffffffffffffff168152602001600073ffffffffffffffffffffffffffffffffffffffff16815260200160608152602001606081525090565b6000604051905090565b600080fd5b600080fd5b6000819050919050565b610ca981610c96565b8114610cb457600080fd5b50565b600081359050610cc681610ca0565b92915050565b600080fd5b600080fd5b6000601f19601f8301169050919050565b7f4e487b7100000000000000000000000000000000000000000000000000000000600052604160045260246000fd5b610d1f82610cd6565b810181811067ffffffffffffffff82111715610d3e57610d3d610ce7565b5b80604052505050565b6000610d51610c82565b9050610d5d8282610d16565b919050565b600067ffffffffffffffff821115610d7d57610d7c610ce7565b5b610d8682610cd6565b9050602081019050919050565b82818337600083830152505050565b6000610db5610db084610d62565b610d47565b905082815260208101848484011115610dd157610dd0610cd1565b5b610ddc848285610d93565b509392505050565b600082601f830112610df957610df8610ccc565b5b8135610e09848260208601610da2565b91505092915050565b60008060408385031215610e2957610e28610c8c565b5b6000610e3785828601610cb7565b925050602083013567ffffffffffffffff811115610e5857610e57610c91565b5b610e6485828601610de4565b9150509250929050565b600073ffffffffffffffffffffffffffffffffffffffff82169050919050565b6000610e9982610e6e565b9050919050565b610ea981610e8e565b8114610eb457600080fd5b50565b600081359050610ec681610ea0565b92915050565b60008060408385031215610ee357610ee2610c8c565b5b6000610ef185828601610eb7565b9250506020610f0285828601610cb7565b9150509250929050565b610f1581610c96565b82525050565b6000602082019050610f306000830184610f0c565b92915050565b600060208284031215610f4c57610f4b610c8c565b5b6000610f5a84828501610eb7565b91505092915050565b600081519050919050565b600082825260208201905092915050565b6000819050602082019050919050565b600081519050919050565b600082825260208201905092915050565b60005b83811015610fc9578082015181840152602081019050610fae565b60008484015250505050565b6000610fe082610f8f565b610fea8185610f9a565b9350610ffa818560208601610fab565b61100381610cd6565b840191505092915050565b61101781610e8e565b82525050565b600060a083016000830151848203600086015261103a8282610fd5565b915050602083015161104f602086018261100e565b506040830151611062604086018261100e565b506060830151848203606086015261107a8282610fd5565b915050608083015184820360808601526110948282610fd5565b9150508091505092915050565b60006110ad838361101d565b905092915050565b6000602082019050919050565b60006110cd82610f63565b6110d78185610f6e565b9350836020820285016110e985610f7f565b8060005b85811015611125578484038952815161110685826110a1565b9450611111836110b5565b925060208a019950506001810190506110ed565b50829750879550505050505092915050565b6000602082019050818103600083015261115181846110c2565b905092915050565b600080600080600060a0868803121561117557611174610c8c565b5b600086013567ffffffffffffffff81111561119357611192610c91565b5b61119f88828901610de4565b95505060206111b088828901610eb7565b94505060406111c188828901610eb7565b935050606086013567ffffffffffffffff8111156111e2576111e1610c91565b5b6111ee88828901610de4565b925050608086013567ffffffffffffffff81111561120f5761120e610c91565b5b61121b88828901610de4565b9150509295509295909350565b60006020828403121561123e5761123d610c8c565b5b600061124c84828501610cb7565b91505092915050565b600060a08301600083015184820360008601526112728282610fd5565b9150506020830151611287602086018261100e565b50604083015161129a604086018261100e565b50606083015184820360608601526112b28282610fd5565b915050608083015184820360808601526112cc8282610fd5565b9150508091505092915050565b600060208201905081810360008301526112f38184611255565b905092915050565b600082825260208201905092915050565b600061131782610f8f565b61132181856112fb565b9350611331818560208601610fab565b61133a81610cd6565b840191505092915050565b61134e81610e8e565b82525050565b600060a082019050818103600083015261136e818861130c565b905061137d6020830187611345565b61138a6040830186611345565b818103606083015261139c818561130c565b905081810360808301526113b0818461130c565b90509695505050505050565b7f4e487b7100000000000000000000000000000000000000000000000000000000600052602260045260246000fd5b6000600282049050600182168061140357607f821691505b602082108103611416576114156113bc565b5b50919050565b60008190508160005260206000209050919050565b60006020601f8301049050919050565b600082821b905092915050565b60006008830261147e7fffffffffffffffffffffffffffffffffffffffffffffffffffffffffffffffff82611441565b6114888683611441565b95508019841693508086168417925050509392505050565b6000819050919050565b60006114c56114c06114bb84610c96565b6114a0565b610c96565b9050919050565b6000819050919050565b6114df836114aa565b6114f36114eb826114cc565b84845461144e565b825550505050565b600090565b6115086114fb565b6115138184846114d6565b505050565b5b818110156115375761152c600082611500565b600181019050611519565b5050565b601f82111561157c5761154d8161141c565b61155684611431565b81016020851015611565578190505b61157961157185611431565b830182611518565b50505b505050565b600082821c905092915050565b600061159f60001984600802611581565b1980831691505092915050565b60006115b8838361158e565b9150826002028217905092915050565b6115d182610f8f565b67ffffffffffffffff8111156115ea576115e9610ce7565b5b6115f482546113eb565b6115ff82828561153b565b600060209050601f8311600181146116325760008415611620578287015190505b61162a85826115ac565b865550611692565b601f1984166116408661141c565b60005b8281101561166857848901518255600182019150602085019450602081019050611643565b868310156116855784890151611681601f89168261158e565b8355505b6001600288020188555050505b505050505050565b7f4e487b7100000000000000000000000000000000000000000000000000000000600052603260045260246000fd5b7f4e487b7100000000000000000000000000000000000000000000000000000000600052601160045260246000fd5b600061170382610c96565b91507fffffffffffffffffffffffffffffffffffffffffffffffffffffffffffffffff8203611735576117346116c9565b5b60018201905091905056fea26469706673582212206543484fb01e881562718fc1923ec44b8db5db3ffcaf9cdcefa4b810dfc8d37a64736f6c63430008120033",
					"opcodes": "PUSH1 0x80 PUSH1 0x40 MSTORE PUSH1 0x1 PUSH1 0x0 SSTORE CALLVALUE DUP1 ISZERO PUSH2 0x15 JUMPI PUSH1 0x0 DUP1 REVERT JUMPDEST POP PUSH2 0x1776 DUP1 PUSH2 0x25 PUSH1 0x0 CODECOPY PUSH1 0x0 RETURN INVALID PUSH1 0x80 PUSH1 0x40 MSTORE CALLVALUE DUP1 ISZERO PUSH2 0x10 JUMPI PUSH1 0x0 DUP1 REVERT JUMPDEST POP PUSH1 0x4 CALLDATASIZE LT PUSH2 0x7D JUMPI PUSH1 0x0 CALLDATALOAD PUSH1 0xE0 SHR DUP1 PUSH4 0xB0363781 GT PUSH2 0x5B JUMPI DUP1 PUSH4 0xB0363781 EQ PUSH2 0xFE JUMPI DUP1 PUSH4 0xB9DB15B4 EQ PUSH2 0x11A JUMPI DUP1 PUSH4 0xCB59D430 EQ PUSH2 0x14A JUMPI DUP1 PUSH4 0xE3EBA904 EQ PUSH2 0x17E JUMPI PUSH2 0x7D JUMP JUMPDEST DUP1 PUSH4 0x77C1B897 EQ PUSH2 0x82 JUMPI DUP1 PUSH4 0x83F48C96 EQ PUSH2 0x9E JUMPI DUP1 PUSH4 0x96FCCBA4 EQ PUSH2 0xCE JUMPI JUMPDEST PUSH1 0x0 DUP1 REVERT JUMPDEST PUSH2 0x9C PUSH1 0x4 DUP1 CALLDATASIZE SUB DUP2 ADD SWAP1 PUSH2 0x97 SWAP2 SWAP1 PUSH2 0xE12 JUMP JUMPDEST PUSH2 0x19C JUMP JUMPDEST STOP JUMPDEST PUSH2 0xB8 PUSH1 0x4 DUP1 CALLDATASIZE SUB DUP2 ADD SWAP1 PUSH2 0xB3 SWAP2 SWAP1 PUSH2 0xECC JUMP JUMPDEST PUSH2 0x1C4 JUMP JUMPDEST PUSH1 0x40 MLOAD PUSH2 0xC5 SWAP2 SWAP1 PUSH2 0xF1B JUMP JUMPDEST PUSH1 0x40 MLOAD DUP1 SWAP2 SUB SWAP1 RETURN JUMPDEST PUSH2 0xE8 PUSH1 0x4 DUP1 CALLDATASIZE SUB DUP2 ADD SWAP1 PUSH2 0xE3 SWAP2 SWAP1 PUSH2 0xF36 JUMP JUMPDEST PUSH2 0x1F5 JUMP JUMPDEST PUSH1 0x40 MLOAD PUSH2 0xF5 SWAP2 SWAP1 PUSH2 0x1137 JUMP JUMPDEST PUSH1 0x40 MLOAD DUP1 SWAP2 SUB SWAP1 RETURN JUMPDEST PUSH2 0x118 PUSH1 0x4 DUP1 CALLDATASIZE SUB DUP2 ADD SWAP1 PUSH2 0x113 SWAP2 SWAP1 PUSH2 0x1159 JUMP JUMPDEST PUSH2 0x5C4 JUMP JUMPDEST STOP JUMPDEST PUSH2 0x134 PUSH1 0x4 DUP1 CALLDATASIZE SUB DUP2 ADD SWAP1 PUSH2 0x12F SWAP2 SWAP1 PUSH2 0x1228 JUMP JUMPDEST PUSH2 0x784 JUMP JUMPDEST PUSH1 0x40 MLOAD PUSH2 0x141 SWAP2 SWAP1 PUSH2 0x12D9 JUMP JUMPDEST PUSH1 0x40 MLOAD DUP1 SWAP2 SUB SWAP1 RETURN JUMPDEST PUSH2 0x164 PUSH1 0x4 DUP1 CALLDATASIZE SUB DUP2 ADD SWAP1 PUSH2 0x15F SWAP2 SWAP1 PUSH2 0x1228 JUMP JUMPDEST PUSH2 0xA13 JUMP JUMPDEST PUSH1 0x40 MLOAD PUSH2 0x175 SWAP6 SWAP5 SWAP4 SWAP3 SWAP2 SWAP1 PUSH2 0x1354 JUMP JUMPDEST PUSH1 0x40 MLOAD DUP1 SWAP2 SUB SWAP1 RETURN JUMPDEST PUSH2 0x186 PUSH2 0xC21 JUMP JUMPDEST PUSH1 0x40 MLOAD PUSH2 0x193 SWAP2 SWAP1 PUSH2 0xF1B JUMP JUMPDEST PUSH1 0x40 MLOAD DUP1 SWAP2 SUB SWAP1 RETURN JUMPDEST DUP1 PUSH1 0x2 PUSH1 0x0 DUP5 DUP2 MSTORE PUSH1 0x20 ADD SWAP1 DUP2 MSTORE PUSH1 0x20 ADD PUSH1 0x0 KECCAK256 PUSH1 0x4 ADD SWAP1 DUP2 PUSH2 0x1BF SWAP2 SWAP1 PUSH2 0x15C8 JUMP JUMPDEST POP POP POP JUMP JUMPDEST PUSH1 0x3 PUSH1 0x20 MSTORE DUP2 PUSH1 0x0 MSTORE PUSH1 0x40 PUSH1 0x0 KECCAK256 DUP2 DUP2 SLOAD DUP2 LT PUSH2 0x1E0 JUMPI PUSH1 0x0 DUP1 REVERT JUMPDEST SWAP1 PUSH1 0x0 MSTORE PUSH1 0x20 PUSH1 0x0 KECCAK256 ADD PUSH1 0x0 SWAP2 POP SWAP2 POP POP SLOAD DUP2 JUMP JUMPDEST PUSH1 0x60 PUSH1 0x0 PUSH1 0x3 PUSH1 0x0 DUP5 PUSH20 0xFFFFFFFFFFFFFFFFFFFFFFFFFFFFFFFFFFFFFFFF AND PUSH20 0xFFFFFFFFFFFFFFFFFFFFFFFFFFFFFFFFFFFFFFFF AND DUP2 MSTORE PUSH1 0x20 ADD SWAP1 DUP2 MSTORE PUSH1 0x20 ADD PUSH1 0x0 KECCAK256 DUP1 SLOAD DUP1 PUSH1 0x20 MUL PUSH1 0x20 ADD PUSH1 0x40 MLOAD SWAP1 DUP2 ADD PUSH1 0x40 MSTORE DUP1 SWAP3 SWAP2 SWAP1 DUP2 DUP2 MSTORE PUSH1 0x20 ADD DUP3 DUP1 SLOAD DUP1 ISZERO PUSH2 0x282 JUMPI PUSH1 0x20 MUL DUP3 ADD SWAP2 SWAP1 PUSH1 0x0 MSTORE PUSH1 0x20 PUSH1 0x0 KECCAK256 SWAP1 JUMPDEST DUP2 SLOAD DUP2 MSTORE PUSH1 0x20 ADD SWAP1 PUSH1 0x1 ADD SWAP1 DUP1 DUP4 GT PUSH2 0x26E JUMPI JUMPDEST POP POP POP POP POP SWAP1 POP PUSH1 0x0 DUP2 MLOAD PUSH8 0xFFFFFFFFFFFFFFFF DUP2 GT ISZERO PUSH2 0x2A6 JUMPI PUSH2 0x2A5 PUSH2 0xCE7 JUMP JUMPDEST JUMPDEST PUSH1 0x40 MLOAD SWAP1 DUP1 DUP3 MSTORE DUP1 PUSH1 0x20 MUL PUSH1 0x20 ADD DUP3 ADD PUSH1 0x40 MSTORE DUP1 ISZERO PUSH2 0x2DF JUMPI DUP2 PUSH1 0x20 ADD JUMPDEST PUSH2 0x2CC PUSH2 0xC27 JUMP JUMPDEST DUP2 MSTORE PUSH1 0x20 ADD SWAP1 PUSH1 0x1 SWAP1 SUB SWAP1 DUP2 PUSH2 0x2C4 JUMPI SWAP1 POP JUMPDEST POP SWAP1 POP PUSH1 0x0 JUMPDEST DUP3 MLOAD DUP2 LT ISZERO PUSH2 0x5B9 JUMPI PUSH1 0x2 PUSH1 0x0 DUP5 DUP4 DUP2 MLOAD DUP2 LT PUSH2 0x305 JUMPI PUSH2 0x304 PUSH2 0x169A JUMP JUMPDEST JUMPDEST PUSH1 0x20 MUL PUSH1 0x20 ADD ADD MLOAD DUP2 MSTORE PUSH1 0x20 ADD SWAP1 DUP2 MSTORE PUSH1 0x20 ADD PUSH1 0x0 KECCAK256 PUSH1 0x40 MLOAD DUP1 PUSH1 0xA0 ADD PUSH1 0x40 MSTORE SWAP1 DUP2 PUSH1 0x0 DUP3 ADD DUP1 SLOAD PUSH2 0x336 SWAP1 PUSH2 0x13EB JUMP JUMPDEST DUP1 PUSH1 0x1F ADD PUSH1 0x20 DUP1 SWAP2 DIV MUL PUSH1 0x20 ADD PUSH1 0x40 MLOAD SWAP1 DUP2 ADD PUSH1 0x40 MSTORE DUP1 SWAP3 SWAP2 SWAP1 DUP2 DUP2 MSTORE PUSH1 0x20 ADD DUP3 DUP1 SLOAD PUSH2 0x362 SWAP1 PUSH2 0x13EB JUMP JUMPDEST DUP1 ISZERO PUSH2 0x3AF JUMPI DUP1 PUSH1 0x1F LT PUSH2 0x384 JUMPI PUSH2 0x100 DUP1 DUP4 SLOAD DIV MUL DUP4 MSTORE SWAP2 PUSH1 0x20 ADD SWAP2 PUSH2 0x3AF JUMP JUMPDEST DUP3 ADD SWAP2 SWAP1 PUSH1 0x0 MSTORE PUSH1 0x20 PUSH1 0x0 KECCAK256 SWAP1 JUMPDEST DUP2 SLOAD DUP2 MSTORE SWAP1 PUSH1 0x1 ADD SWAP1 PUSH1 0x20 ADD DUP1 DUP4 GT PUSH2 0x392 JUMPI DUP3 SWAP1 SUB PUSH1 0x1F AND DUP3 ADD SWAP2 JUMPDEST POP POP POP POP POP DUP2 MSTORE PUSH1 0x20 ADD PUSH1 0x1 DUP3 ADD PUSH1 0x0 SWAP1 SLOAD SWAP1 PUSH2 0x100 EXP SWAP1 DIV PUSH20 0xFFFFFFFFFFFFFFFFFFFFFFFFFFFFFFFFFFFFFFFF AND PUSH20 0xFFFFFFFFFFFFFFFFFFFFFFFFFFFFFFFFFFFFFFFF AND PUSH20 0xFFFFFFFFFFFFFFFFFFFFFFFFFFFFFFFFFFFFFFFF AND DUP2 MSTORE PUSH1 0x20 ADD PUSH1 0x2 DUP3 ADD PUSH1 0x0 SWAP1 SLOAD SWAP1 PUSH2 0x100 EXP SWAP1 DIV PUSH20 0xFFFFFFFFFFFFFFFFFFFFFFFFFFFFFFFFFFFFFFFF AND PUSH20 0xFFFFFFFFFFFFFFFFFFFFFFFFFFFFFFFFFFFFFFFF AND PUSH20 0xFFFFFFFFFFFFFFFFFFFFFFFFFFFFFFFFFFFFFFFF AND DUP2 MSTORE PUSH1 0x20 ADD PUSH1 0x3 DUP3 ADD DUP1 SLOAD PUSH2 0x474 SWAP1 PUSH2 0x13EB JUMP JUMPDEST DUP1 PUSH1 0x1F ADD PUSH1 0x20 DUP1 SWAP2 DIV MUL PUSH1 0x20 ADD PUSH1 0x40 MLOAD SWAP1 DUP2 ADD PUSH1 0x40 MSTORE DUP1 SWAP3 SWAP2 SWAP1 DUP2 DUP2 MSTORE PUSH1 0x20 ADD DUP3 DUP1 SLOAD PUSH2 0x4A0 SWAP1 PUSH2 0x13EB JUMP JUMPDEST DUP1 ISZERO PUSH2 0x4ED JUMPI DUP1 PUSH1 0x1F LT PUSH2 0x4C2 JUMPI PUSH2 0x100 DUP1 DUP4 SLOAD DIV MUL DUP4 MSTORE SWAP2 PUSH1 0x20 ADD SWAP2 PUSH2 0x4ED JUMP JUMPDEST DUP3 ADD SWAP2 SWAP1 PUSH1 0x0 MSTORE PUSH1 0x20 PUSH1 0x0 KECCAK256 SWAP1 JUMPDEST DUP2 SLOAD DUP2 MSTORE SWAP1 PUSH1 0x1 ADD SWAP1 PUSH1 0x20 ADD DUP1 DUP4 GT PUSH2 0x4D0 JUMPI DUP3 SWAP1 SUB PUSH1 0x1F AND DUP3 ADD SWAP2 JUMPDEST POP POP POP POP POP DUP2 MSTORE PUSH1 0x20 ADD PUSH1 0x4 DUP3 ADD DUP1 SLOAD PUSH2 0x506 SWAP1 PUSH2 0x13EB JUMP JUMPDEST DUP1 PUSH1 0x1F ADD PUSH1 0x20 DUP1 SWAP2 DIV MUL PUSH1 0x20 ADD PUSH1 0x40 MLOAD SWAP1 DUP2 ADD PUSH1 0x40 MSTORE DUP1 SWAP3 SWAP2 SWAP1 DUP2 DUP2 MSTORE PUSH1 0x20 ADD DUP3 DUP1 SLOAD PUSH2 0x532 SWAP1 PUSH2 0x13EB JUMP JUMPDEST DUP1 ISZERO PUSH2 0x57F JUMPI DUP1 PUSH1 0x1F LT PUSH2 0x554 JUMPI PUSH2 0x100 DUP1 DUP4 SLOAD DIV MUL DUP4 MSTORE SWAP2 PUSH1 0x20 ADD SWAP2 PUSH2 0x57F JUMP JUMPDEST DUP3 ADD SWAP2 SWAP1 PUSH1 0x0 MSTORE PUSH1 0x20 PUSH1 0x0 KECCAK256 SWAP1 JUMPDEST DUP2 SLOAD DUP2 MSTORE SWAP1 PUSH1 0x1 ADD SWAP1 PUSH1 0x20 ADD DUP1 DUP4 GT PUSH2 0x562 JUMPI DUP3 SWAP1 SUB PUSH1 0x1F AND DUP3 ADD SWAP2 JUMPDEST POP POP POP POP POP DUP2 MSTORE POP POP DUP3 DUP3 DUP2 MLOAD DUP2 LT PUSH2 0x59B JUMPI PUSH2 0x59A PUSH2 0x169A JUMP JUMPDEST JUMPDEST PUSH1 0x20 MUL PUSH1 0x20 ADD ADD DUP2 SWAP1 MSTORE POP DUP1 DUP1 PUSH2 0x5B1 SWAP1 PUSH2 0x16F8 JUMP JUMPDEST SWAP2 POP POP PUSH2 0x2E5 JUMP JUMPDEST POP DUP1 SWAP3 POP POP POP SWAP2 SWAP1 POP JUMP JUMPDEST PUSH1 0x40 MLOAD DUP1 PUSH1 0xA0 ADD PUSH1 0x40 MSTORE DUP1 DUP7 DUP2 MSTORE PUSH1 0x20 ADD DUP6 PUSH20 0xFFFFFFFFFFFFFFFFFFFFFFFFFFFFFFFFFFFFFFFF AND DUP2 MSTORE PUSH1 0x20 ADD DUP5 PUSH20 0xFFFFFFFFFFFFFFFFFFFFFFFFFFFFFFFFFFFFFFFF AND DUP2 MSTORE PUSH1 0x20 ADD DUP4 DUP2 MSTORE PUSH1 0x20 ADD DUP3 DUP2 MSTORE POP PUSH1 0x2 PUSH1 0x0 DUP1 SLOAD DUP2 MSTORE PUSH1 0x20 ADD SWAP1 DUP2 MSTORE PUSH1 0x20 ADD PUSH1 0x0 KECCAK256 PUSH1 0x0 DUP3 ADD MLOAD DUP2 PUSH1 0x0 ADD SWAP1 DUP2 PUSH2 0x640 SWAP2 SWAP1 PUSH2 0x15C8 JUMP JUMPDEST POP PUSH1 0x20 DUP3 ADD MLOAD DUP2 PUSH1 0x1 ADD PUSH1 0x0 PUSH2 0x100 EXP DUP2 SLOAD DUP2 PUSH20 0xFFFFFFFFFFFFFFFFFFFFFFFFFFFFFFFFFFFFFFFF MUL NOT AND SWAP1 DUP4 PUSH20 0xFFFFFFFFFFFFFFFFFFFFFFFFFFFFFFFFFFFFFFFF AND MUL OR SWAP1 SSTORE POP PUSH1 0x40 DUP3 ADD MLOAD DUP2 PUSH1 0x2 ADD PUSH1 0x0 PUSH2 0x100 EXP DUP2 SLOAD DUP2 PUSH20 0xFFFFFFFFFFFFFFFFFFFFFFFFFFFFFFFFFFFFFFFF MUL NOT AND SWAP1 DUP4 PUSH20 0xFFFFFFFFFFFFFFFFFFFFFFFFFFFFFFFFFFFFFFFF AND MUL OR SWAP1 SSTORE POP PUSH1 0x60 DUP3 ADD MLOAD DUP2 PUSH1 0x3 ADD SWAP1 DUP2 PUSH2 0x6E4 SWAP2 SWAP1 PUSH2 0x15C8 JUMP JUMPDEST POP PUSH1 0x80 DUP3 ADD MLOAD DUP2 PUSH1 0x4 ADD SWAP1 DUP2 PUSH2 0x6FA SWAP2 SWAP1 PUSH2 0x15C8 JUMP JUMPDEST POP SWAP1 POP POP PUSH1 0x3 PUSH1 0x0 DUP5 PUSH20 0xFFFFFFFFFFFFFFFFFFFFFFFFFFFFFFFFFFFFFFFF AND PUSH20 0xFFFFFFFFFFFFFFFFFFFFFFFFFFFFFFFFFFFFFFFF AND DUP2 MSTORE PUSH1 0x20 ADD SWAP1 DUP2 MSTORE PUSH1 0x20 ADD PUSH1 0x0 KECCAK256 PUSH1 0x0 SLOAD SWAP1 DUP1 PUSH1 0x1 DUP2 SLOAD ADD DUP1 DUP3 SSTORE DUP1 SWAP2 POP POP PUSH1 0x1 SWAP1 SUB SWAP1 PUSH1 0x0 MSTORE PUSH1 0x20 PUSH1 0x0 KECCAK256 ADD PUSH1 0x0 SWAP1 SWAP2 SWAP1 SWAP2 SWAP1 SWAP2 POP SSTORE PUSH1 0x0 DUP1 DUP2 SLOAD DUP1 SWAP3 SWAP2 SWAP1 PUSH2 0x778 SWAP1 PUSH2 0x16F8 JUMP JUMPDEST SWAP2 SWAP1 POP SSTORE POP POP POP POP POP POP JUMP JUMPDEST PUSH2 0x78C PUSH2 0xC27 JUMP JUMPDEST PUSH1 0x2 PUSH1 0x0 DUP4 DUP2 MSTORE PUSH1 0x20 ADD SWAP1 DUP2 MSTORE PUSH1 0x20 ADD PUSH1 0x0 KECCAK256 PUSH1 0x40 MLOAD DUP1 PUSH1 0xA0 ADD PUSH1 0x40 MSTORE SWAP1 DUP2 PUSH1 0x0 DUP3 ADD DUP1 SLOAD PUSH2 0x7BA SWAP1 PUSH2 0x13EB JUMP JUMPDEST DUP1 PUSH1 0x1F ADD PUSH1 0x20 DUP1 SWAP2 DIV MUL PUSH1 0x20 ADD PUSH1 0x40 MLOAD SWAP1 DUP2 ADD PUSH1 0x40 MSTORE DUP1 SWAP3 SWAP2 SWAP1 DUP2 DUP2 MSTORE PUSH1 0x20 ADD DUP3 DUP1 SLOAD PUSH2 0x7E6 SWAP1 PUSH2 0x13EB JUMP JUMPDEST DUP1 ISZERO PUSH2 0x833 JUMPI DUP1 PUSH1 0x1F LT PUSH2 0x808 JUMPI PUSH2 0x100 DUP1 DUP4 SLOAD DIV MUL DUP4 MSTORE SWAP2 PUSH1 0x20 ADD SWAP2 PUSH2 0x833 JUMP JUMPDEST DUP3 ADD SWAP2 SWAP1 PUSH1 0x0 MSTORE PUSH1 0x20 PUSH1 0x0 KECCAK256 SWAP1 JUMPDEST DUP2 SLOAD DUP2 MSTORE SWAP1 PUSH1 0x1 ADD SWAP1 PUSH1 0x20 ADD DUP1 DUP4 GT PUSH2 0x816 JUMPI DUP3 SWAP1 SUB PUSH1 0x1F AND DUP3 ADD SWAP2 JUMPDEST POP POP POP POP POP DUP2 MSTORE PUSH1 0x20 ADD PUSH1 0x1 DUP3 ADD PUSH1 0x0 SWAP1 SLOAD SWAP1 PUSH2 0x100 EXP SWAP1 DIV PUSH20 0xFFFFFFFFFFFFFFFFFFFFFFFFFFFFFFFFFFFFFFFF AND PUSH20 0xFFFFFFFFFFFFFFFFFFFFFFFFFFFFFFFFFFFFFFFF AND PUSH20 0xFFFFFFFFFFFFFFFFFFFFFFFFFFFFFFFFFFFFFFFF AND DUP2 MSTORE PUSH1 0x20 ADD PUSH1 0x2 DUP3 ADD PUSH1 0x0 SWAP1 SLOAD SWAP1 PUSH2 0x100 EXP SWAP1 DIV PUSH20 0xFFFFFFFFFFFFFFFFFFFFFFFFFFFFFFFFFFFFFFFF AND PUSH20 0xFFFFFFFFFFFFFFFFFFFFFFFFFFFFFFFFFFFFFFFF AND PUSH20 0xFFFFFFFFFFFFFFFFFFFFFFFFFFFFFFFFFFFFFFFF AND DUP2 MSTORE PUSH1 0x20 ADD PUSH1 0x3 DUP3 ADD DUP1 SLOAD PUSH2 0x8F8 SWAP1 PUSH2 0x13EB JUMP JUMPDEST DUP1 PUSH1 0x1F ADD PUSH1 0x20 DUP1 SWAP2 DIV MUL PUSH1 0x20 ADD PUSH1 0x40 MLOAD SWAP1 DUP2 ADD PUSH1 0x40 MSTORE DUP1 SWAP3 SWAP2 SWAP1 DUP2 DUP2 MSTORE PUSH1 0x20 ADD DUP3 DUP1 SLOAD PUSH2 0x924 SWAP1 PUSH2 0x13EB JUMP JUMPDEST DUP1 ISZERO PUSH2 0x971 JUMPI DUP1 PUSH1 0x1F LT PUSH2 0x946 JUMPI PUSH2 0x100 DUP1 DUP4 SLOAD DIV MUL DUP4 MSTORE SWAP2 PUSH1 0x20 ADD SWAP2 PUSH2 0x971 JUMP JUMPDEST DUP3 ADD SWAP2 SWAP1 PUSH1 0x0 MSTORE PUSH1 0x20 PUSH1 0x0 KECCAK256 SWAP1 JUMPDEST DUP2 SLOAD DUP2 MSTORE SWAP1 PUSH1 0x1 ADD SWAP1 PUSH1 0x20 ADD DUP1 DUP4 GT PUSH2 0x954 JUMPI DUP3 SWAP1 SUB PUSH1 0x1F AND DUP3 ADD SWAP2 JUMPDEST POP POP POP POP POP DUP2 MSTORE PUSH1 0x20 ADD PUSH1 0x4 DUP3 ADD DUP1 SLOAD PUSH2 0x98A SWAP1 PUSH2 0x13EB JUMP JUMPDEST DUP1 PUSH1 0x1F ADD PUSH1 0x20 DUP1 SWAP2 DIV MUL PUSH1 0x20 ADD PUSH1 0x40 MLOAD SWAP1 DUP2 ADD PUSH1 0x40 MSTORE DUP1 SWAP3 SWAP2 SWAP1 DUP2 DUP2 MSTORE PUSH1 0x20 ADD DUP3 DUP1 SLOAD PUSH2 0x9B6 SWAP1 PUSH2 0x13EB JUMP JUMPDEST DUP1 ISZERO PUSH2 0xA03 JUMPI DUP1 PUSH1 0x1F LT PUSH2 0x9D8 JUMPI PUSH2 0x100 DUP1 DUP4 SLOAD DIV MUL DUP4 MSTORE SWAP2 PUSH1 0x20 ADD SWAP2 PUSH2 0xA03 JUMP JUMPDEST DUP3 ADD SWAP2 SWAP1 PUSH1 0x0 MSTORE PUSH1 0x20 PUSH1 0x0 KECCAK256 SWAP1 JUMPDEST DUP2 SLOAD DUP2 MSTORE SWAP1 PUSH1 0x1 ADD SWAP1 PUSH1 0x20 ADD DUP1 DUP4 GT PUSH2 0x9E6 JUMPI DUP3 SWAP1 SUB PUSH1 0x1F AND DUP3 ADD SWAP2 JUMPDEST POP POP POP POP POP DUP2 MSTORE POP POP SWAP1 POP SWAP2 SWAP1 POP JUMP JUMPDEST PUSH1 0x2 PUSH1 0x20 MSTORE DUP1 PUSH1 0x0 MSTORE PUSH1 0x40 PUSH1 0x0 KECCAK256 PUSH1 0x0 SWAP2 POP SWAP1 POP DUP1 PUSH1 0x0 ADD DUP1 SLOAD PUSH2 0xA36 SWAP1 PUSH2 0x13EB JUMP JUMPDEST DUP1 PUSH1 0x1F ADD PUSH1 0x20 DUP1 SWAP2 DIV MUL PUSH1 0x20 ADD PUSH1 0x40 MLOAD SWAP1 DUP2 ADD PUSH1 0x40 MSTORE DUP1 SWAP3 SWAP2 SWAP1 DUP2 DUP2 MSTORE PUSH1 0x20 ADD DUP3 DUP1 SLOAD PUSH2 0xA62 SWAP1 PUSH2 0x13EB JUMP JUMPDEST DUP1 ISZERO PUSH2 0xAAF JUMPI DUP1 PUSH1 0x1F LT PUSH2 0xA84 JUMPI PUSH2 0x100 DUP1 DUP4 SLOAD DIV MUL DUP4 MSTORE SWAP2 PUSH1 0x20 ADD SWAP2 PUSH2 0xAAF JUMP JUMPDEST DUP3 ADD SWAP2 SWAP1 PUSH1 0x0 MSTORE PUSH1 0x20 PUSH1 0x0 KECCAK256 SWAP1 JUMPDEST DUP2 SLOAD DUP2 MSTORE SWAP1 PUSH1 0x1 ADD SWAP1 PUSH1 0x20 ADD DUP1 DUP4 GT PUSH2 0xA92 JUMPI DUP3 SWAP1 SUB PUSH1 0x1F AND DUP3 ADD SWAP2 JUMPDEST POP POP POP POP POP SWAP1 DUP1 PUSH1 0x1 ADD PUSH1 0x0 SWAP1 SLOAD SWAP1 PUSH2 0x100 EXP SWAP1 DIV PUSH20 0xFFFFFFFFFFFFFFFFFFFFFFFFFFFFFFFFFFFFFFFF AND SWAP1 DUP1 PUSH1 0x2 ADD PUSH1 0x0 SWAP1 SLOAD SWAP1 PUSH2 0x100 EXP SWAP1 DIV PUSH20 0xFFFFFFFFFFFFFFFFFFFFFFFFFFFFFFFFFFFFFFFF AND SWAP1 DUP1 PUSH1 0x3 ADD DUP1 SLOAD PUSH2 0xB10 SWAP1 PUSH2 0x13EB JUMP JUMPDEST DUP1 PUSH1 0x1F ADD PUSH1 0x20 DUP1 SWAP2 DIV MUL PUSH1 0x20 ADD PUSH1 0x40 MLOAD SWAP1 DUP2 ADD PUSH1 0x40 MSTORE DUP1 SWAP3 SWAP2 SWAP1 DUP2 DUP2 MSTORE PUSH1 0x20 ADD DUP3 DUP1 SLOAD PUSH2 0xB3C SWAP1 PUSH2 0x13EB JUMP JUMPDEST DUP1 ISZERO PUSH2 0xB89 JUMPI DUP1 PUSH1 0x1F LT PUSH2 0xB5E JUMPI PUSH2 0x100 DUP1 DUP4 SLOAD DIV MUL DUP4 MSTORE SWAP2 PUSH1 0x20 ADD SWAP2 PUSH2 0xB89 JUMP JUMPDEST DUP3 ADD SWAP2 SWAP1 PUSH1 0x0 MSTORE PUSH1 0x20 PUSH1 0x0 KECCAK256 SWAP1 JUMPDEST DUP2 SLOAD DUP2 MSTORE SWAP1 PUSH1 0x1 ADD SWAP1 PUSH1 0x20 ADD DUP1 DUP4 GT PUSH2 0xB6C JUMPI DUP3 SWAP1 SUB PUSH1 0x1F AND DUP3 ADD SWAP2 JUMPDEST POP POP POP POP POP SWAP1 DUP1 PUSH1 0x4 ADD DUP1 SLOAD PUSH2 0xB9E SWAP1 PUSH2 0x13EB JUMP JUMPDEST DUP1 PUSH1 0x1F ADD PUSH1 0x20 DUP1 SWAP2 DIV MUL PUSH1 0x20 ADD PUSH1 0x40 MLOAD SWAP1 DUP2 ADD PUSH1 0x40 MSTORE DUP1 SWAP3 SWAP2 SWAP1 DUP2 DUP2 MSTORE PUSH1 0x20 ADD DUP3 DUP1 SLOAD PUSH2 0xBCA SWAP1 PUSH2 0x13EB JUMP JUMPDEST DUP1 ISZERO PUSH2 0xC17 JUMPI DUP1 PUSH1 0x1F LT PUSH2 0xBEC JUMPI PUSH2 0x100 DUP1 DUP4 SLOAD DIV MUL DUP4 MSTORE SWAP2 PUSH1 0x20 ADD SWAP2 PUSH2 0xC17 JUMP JUMPDEST DUP3 ADD SWAP2 SWAP1 PUSH1 0x0 MSTORE PUSH1 0x20 PUSH1 0x0 KECCAK256 SWAP1 JUMPDEST DUP2 SLOAD DUP2 MSTORE SWAP1 PUSH1 0x1 ADD SWAP1 PUSH1 0x20 ADD DUP1 DUP4 GT PUSH2 0xBFA JUMPI DUP3 SWAP1 SUB PUSH1 0x1F AND DUP3 ADD SWAP2 JUMPDEST POP POP POP POP POP SWAP1 POP DUP6 JUMP JUMPDEST PUSH1 0x0 SLOAD DUP2 JUMP JUMPDEST PUSH1 0x40 MLOAD DUP1 PUSH1 0xA0 ADD PUSH1 0x40 MSTORE DUP1 PUSH1 0x60 DUP2 MSTORE PUSH1 0x20 ADD PUSH1 0x0 PUSH20 0xFFFFFFFFFFFFFFFFFFFFFFFFFFFFFFFFFFFFFFFF AND DUP2 MSTORE PUSH1 0x20 ADD PUSH1 0x0 PUSH20 0xFFFFFFFFFFFFFFFFFFFFFFFFFFFFFFFFFFFFFFFF AND DUP2 MSTORE PUSH1 0x20 ADD PUSH1 0x60 DUP2 MSTORE PUSH1 0x20 ADD PUSH1 0x60 DUP2 MSTORE POP SWAP1 JUMP JUMPDEST PUSH1 0x0 PUSH1 0x40 MLOAD SWAP1 POP SWAP1 JUMP JUMPDEST PUSH1 0x0 DUP1 REVERT JUMPDEST PUSH1 0x0 DUP1 REVERT JUMPDEST PUSH1 0x0 DUP2 SWAP1 POP SWAP2 SWAP1 POP JUMP JUMPDEST PUSH2 0xCA9 DUP2 PUSH2 0xC96 JUMP JUMPDEST DUP2 EQ PUSH2 0xCB4 JUMPI PUSH1 0x0 DUP1 REVERT JUMPDEST POP JUMP JUMPDEST PUSH1 0x0 DUP2 CALLDATALOAD SWAP1 POP PUSH2 0xCC6 DUP2 PUSH2 0xCA0 JUMP JUMPDEST SWAP3 SWAP2 POP POP JUMP JUMPDEST PUSH1 0x0 DUP1 REVERT JUMPDEST PUSH1 0x0 DUP1 REVERT JUMPDEST PUSH1 0x0 PUSH1 0x1F NOT PUSH1 0x1F DUP4 ADD AND SWAP1 POP SWAP2 SWAP1 POP JUMP JUMPDEST PUSH32 0x4E487B7100000000000000000000000000000000000000000000000000000000 PUSH1 0x0 MSTORE PUSH1 0x41 PUSH1 0x4 MSTORE PUSH1 0x24 PUSH1 0x0 REVERT JUMPDEST PUSH2 0xD1F DUP3 PUSH2 0xCD6 JUMP JUMPDEST DUP2 ADD DUP2 DUP2 LT PUSH8 0xFFFFFFFFFFFFFFFF DUP3 GT OR ISZERO PUSH2 0xD3E JUMPI PUSH2 0xD3D PUSH2 0xCE7 JUMP JUMPDEST JUMPDEST DUP1 PUSH1 0x40 MSTORE POP POP POP JUMP JUMPDEST PUSH1 0x0 PUSH2 0xD51 PUSH2 0xC82 JUMP JUMPDEST SWAP1 POP PUSH2 0xD5D DUP3 DUP3 PUSH2 0xD16 JUMP JUMPDEST SWAP2 SWAP1 POP JUMP JUMPDEST PUSH1 0x0 PUSH8 0xFFFFFFFFFFFFFFFF DUP3 GT ISZERO PUSH2 0xD7D JUMPI PUSH2 0xD7C PUSH2 0xCE7 JUMP JUMPDEST JUMPDEST PUSH2 0xD86 DUP3 PUSH2 0xCD6 JUMP JUMPDEST SWAP1 POP PUSH1 0x20 DUP2 ADD SWAP1 POP SWAP2 SWAP1 POP JUMP JUMPDEST DUP3 DUP2 DUP4 CALLDATACOPY PUSH1 0x0 DUP4 DUP4 ADD MSTORE POP POP POP JUMP JUMPDEST PUSH1 0x0 PUSH2 0xDB5 PUSH2 0xDB0 DUP5 PUSH2 0xD62 JUMP JUMPDEST PUSH2 0xD47 JUMP JUMPDEST SWAP1 POP DUP3 DUP2 MSTORE PUSH1 0x20 DUP2 ADD DUP5 DUP5 DUP5 ADD GT ISZERO PUSH2 0xDD1 JUMPI PUSH2 0xDD0 PUSH2 0xCD1 JUMP JUMPDEST JUMPDEST PUSH2 0xDDC DUP5 DUP3 DUP6 PUSH2 0xD93 JUMP JUMPDEST POP SWAP4 SWAP3 POP POP POP JUMP JUMPDEST PUSH1 0x0 DUP3 PUSH1 0x1F DUP4 ADD SLT PUSH2 0xDF9 JUMPI PUSH2 0xDF8 PUSH2 0xCCC JUMP JUMPDEST JUMPDEST DUP2 CALLDATALOAD PUSH2 0xE09 DUP5 DUP3 PUSH1 0x20 DUP7 ADD PUSH2 0xDA2 JUMP JUMPDEST SWAP2 POP POP SWAP3 SWAP2 POP POP JUMP JUMPDEST PUSH1 0x0 DUP1 PUSH1 0x40 DUP4 DUP6 SUB SLT ISZERO PUSH2 0xE29 JUMPI PUSH2 0xE28 PUSH2 0xC8C JUMP JUMPDEST JUMPDEST PUSH1 0x0 PUSH2 0xE37 DUP6 DUP3 DUP7 ADD PUSH2 0xCB7 JUMP JUMPDEST SWAP3 POP POP PUSH1 0x20 DUP4 ADD CALLDATALOAD PUSH8 0xFFFFFFFFFFFFFFFF DUP2 GT ISZERO PUSH2 0xE58 JUMPI PUSH2 0xE57 PUSH2 0xC91 JUMP JUMPDEST JUMPDEST PUSH2 0xE64 DUP6 DUP3 DUP7 ADD PUSH2 0xDE4 JUMP JUMPDEST SWAP2 POP POP SWAP3 POP SWAP3 SWAP1 POP JUMP JUMPDEST PUSH1 0x0 PUSH20 0xFFFFFFFFFFFFFFFFFFFFFFFFFFFFFFFFFFFFFFFF DUP3 AND SWAP1 POP SWAP2 SWAP1 POP JUMP JUMPDEST PUSH1 0x0 PUSH2 0xE99 DUP3 PUSH2 0xE6E JUMP JUMPDEST SWAP1 POP SWAP2 SWAP1 POP JUMP JUMPDEST PUSH2 0xEA9 DUP2 PUSH2 0xE8E JUMP JUMPDEST DUP2 EQ PUSH2 0xEB4 JUMPI PUSH1 0x0 DUP1 REVERT JUMPDEST POP JUMP JUMPDEST PUSH1 0x0 DUP2 CALLDATALOAD SWAP1 POP PUSH2 0xEC6 DUP2 PUSH2 0xEA0 JUMP JUMPDEST SWAP3 SWAP2 POP POP JUMP JUMPDEST PUSH1 0x0 DUP1 PUSH1 0x40 DUP4 DUP6 SUB SLT ISZERO PUSH2 0xEE3 JUMPI PUSH2 0xEE2 PUSH2 0xC8C JUMP JUMPDEST JUMPDEST PUSH1 0x0 PUSH2 0xEF1 DUP6 DUP3 DUP7 ADD PUSH2 0xEB7 JUMP JUMPDEST SWAP3 POP POP PUSH1 0x20 PUSH2 0xF02 DUP6 DUP3 DUP7 ADD PUSH2 0xCB7 JUMP JUMPDEST SWAP2 POP POP SWAP3 POP SWAP3 SWAP1 POP JUMP JUMPDEST PUSH2 0xF15 DUP2 PUSH2 0xC96 JUMP JUMPDEST DUP3 MSTORE POP POP JUMP JUMPDEST PUSH1 0x0 PUSH1 0x20 DUP3 ADD SWAP1 POP PUSH2 0xF30 PUSH1 0x0 DUP4 ADD DUP5 PUSH2 0xF0C JUMP JUMPDEST SWAP3 SWAP2 POP POP JUMP JUMPDEST PUSH1 0x0 PUSH1 0x20 DUP3 DUP5 SUB SLT ISZERO PUSH2 0xF4C JUMPI PUSH2 0xF4B PUSH2 0xC8C JUMP JUMPDEST JUMPDEST PUSH1 0x0 PUSH2 0xF5A DUP5 DUP3 DUP6 ADD PUSH2 0xEB7 JUMP JUMPDEST SWAP2 POP POP SWAP3 SWAP2 POP POP JUMP JUMPDEST PUSH1 0x0 DUP2 MLOAD SWAP1 POP SWAP2 SWAP1 POP JUMP JUMPDEST PUSH1 0x0 DUP3 DUP3 MSTORE PUSH1 0x20 DUP3 ADD SWAP1 POP SWAP3 SWAP2 POP POP JUMP JUMPDEST PUSH1 0x0 DUP2 SWAP1 POP PUSH1 0x20 DUP3 ADD SWAP1 POP SWAP2 SWAP1 POP JUMP JUMPDEST PUSH1 0x0 DUP2 MLOAD SWAP1 POP SWAP2 SWAP1 POP JUMP JUMPDEST PUSH1 0x0 DUP3 DUP3 MSTORE PUSH1 0x20 DUP3 ADD SWAP1 POP SWAP3 SWAP2 POP POP JUMP JUMPDEST PUSH1 0x0 JUMPDEST DUP4 DUP2 LT ISZERO PUSH2 0xFC9 JUMPI DUP1 DUP3 ADD MLOAD DUP2 DUP5 ADD MSTORE PUSH1 0x20 DUP2 ADD SWAP1 POP PUSH2 0xFAE JUMP JUMPDEST PUSH1 0x0 DUP5 DUP5 ADD MSTORE POP POP POP POP JUMP JUMPDEST PUSH1 0x0 PUSH2 0xFE0 DUP3 PUSH2 0xF8F JUMP JUMPDEST PUSH2 0xFEA DUP2 DUP6 PUSH2 0xF9A JUMP JUMPDEST SWAP4 POP PUSH2 0xFFA DUP2 DUP6 PUSH1 0x20 DUP7 ADD PUSH2 0xFAB JUMP JUMPDEST PUSH2 0x1003 DUP2 PUSH2 0xCD6 JUMP JUMPDEST DUP5 ADD SWAP2 POP POP SWAP3 SWAP2 POP POP JUMP JUMPDEST PUSH2 0x1017 DUP2 PUSH2 0xE8E JUMP JUMPDEST DUP3 MSTORE POP POP JUMP JUMPDEST PUSH1 0x0 PUSH1 0xA0 DUP4 ADD PUSH1 0x0 DUP4 ADD MLOAD DUP5 DUP3 SUB PUSH1 0x0 DUP7 ADD MSTORE PUSH2 0x103A DUP3 DUP3 PUSH2 0xFD5 JUMP JUMPDEST SWAP2 POP POP PUSH1 0x20 DUP4 ADD MLOAD PUSH2 0x104F PUSH1 0x20 DUP7 ADD DUP3 PUSH2 0x100E JUMP JUMPDEST POP PUSH1 0x40 DUP4 ADD MLOAD PUSH2 0x1062 PUSH1 0x40 DUP7 ADD DUP3 PUSH2 0x100E JUMP JUMPDEST POP PUSH1 0x60 DUP4 ADD MLOAD DUP5 DUP3 SUB PUSH1 0x60 DUP7 ADD MSTORE PUSH2 0x107A DUP3 DUP3 PUSH2 0xFD5 JUMP JUMPDEST SWAP2 POP POP PUSH1 0x80 DUP4 ADD MLOAD DUP5 DUP3 SUB PUSH1 0x80 DUP7 ADD MSTORE PUSH2 0x1094 DUP3 DUP3 PUSH2 0xFD5 JUMP JUMPDEST SWAP2 POP POP DUP1 SWAP2 POP POP SWAP3 SWAP2 POP POP JUMP JUMPDEST PUSH1 0x0 PUSH2 0x10AD DUP4 DUP4 PUSH2 0x101D JUMP JUMPDEST SWAP1 POP SWAP3 SWAP2 POP POP JUMP JUMPDEST PUSH1 0x0 PUSH1 0x20 DUP3 ADD SWAP1 POP SWAP2 SWAP1 POP JUMP JUMPDEST PUSH1 0x0 PUSH2 0x10CD DUP3 PUSH2 0xF63 JUMP JUMPDEST PUSH2 0x10D7 DUP2 DUP6 PUSH2 0xF6E JUMP JUMPDEST SWAP4 POP DUP4 PUSH1 0x20 DUP3 MUL DUP6 ADD PUSH2 0x10E9 DUP6 PUSH2 0xF7F JUMP JUMPDEST DUP1 PUSH1 0x0 JUMPDEST DUP6 DUP2 LT ISZERO PUSH2 0x1125 JUMPI DUP5 DUP5 SUB DUP10 MSTORE DUP2 MLOAD PUSH2 0x1106 DUP6 DUP3 PUSH2 0x10A1 JUMP JUMPDEST SWAP5 POP PUSH2 0x1111 DUP4 PUSH2 0x10B5 JUMP JUMPDEST SWAP3 POP PUSH1 0x20 DUP11 ADD SWAP10 POP POP PUSH1 0x1 DUP2 ADD SWAP1 POP PUSH2 0x10ED JUMP JUMPDEST POP DUP3 SWAP8 POP DUP8 SWAP6 POP POP POP POP POP POP SWAP3 SWAP2 POP POP JUMP JUMPDEST PUSH1 0x0 PUSH1 0x20 DUP3 ADD SWAP1 POP DUP2 DUP2 SUB PUSH1 0x0 DUP4 ADD MSTORE PUSH2 0x1151 DUP2 DUP5 PUSH2 0x10C2 JUMP JUMPDEST SWAP1 POP SWAP3 SWAP2 POP POP JUMP JUMPDEST PUSH1 0x0 DUP1 PUSH1 0x0 DUP1 PUSH1 0x0 PUSH1 0xA0 DUP7 DUP9 SUB SLT ISZERO PUSH2 0x1175 JUMPI PUSH2 0x1174 PUSH2 0xC8C JUMP JUMPDEST JUMPDEST PUSH1 0x0 DUP7 ADD CALLDATALOAD PUSH8 0xFFFFFFFFFFFFFFFF DUP2 GT ISZERO PUSH2 0x1193 JUMPI PUSH2 0x1192 PUSH2 0xC91 JUMP JUMPDEST JUMPDEST PUSH2 0x119F DUP9 DUP3 DUP10 ADD PUSH2 0xDE4 JUMP JUMPDEST SWAP6 POP POP PUSH1 0x20 PUSH2 0x11B0 DUP9 DUP3 DUP10 ADD PUSH2 0xEB7 JUMP JUMPDEST SWAP5 POP POP PUSH1 0x40 PUSH2 0x11C1 DUP9 DUP3 DUP10 ADD PUSH2 0xEB7 JUMP JUMPDEST SWAP4 POP POP PUSH1 0x60 DUP7 ADD CALLDATALOAD PUSH8 0xFFFFFFFFFFFFFFFF DUP2 GT ISZERO PUSH2 0x11E2 JUMPI PUSH2 0x11E1 PUSH2 0xC91 JUMP JUMPDEST JUMPDEST PUSH2 0x11EE DUP9 DUP3 DUP10 ADD PUSH2 0xDE4 JUMP JUMPDEST SWAP3 POP POP PUSH1 0x80 DUP7 ADD CALLDATALOAD PUSH8 0xFFFFFFFFFFFFFFFF DUP2 GT ISZERO PUSH2 0x120F JUMPI PUSH2 0x120E PUSH2 0xC91 JUMP JUMPDEST JUMPDEST PUSH2 0x121B DUP9 DUP3 DUP10 ADD PUSH2 0xDE4 JUMP JUMPDEST SWAP2 POP POP SWAP3 SWAP6 POP SWAP3 SWAP6 SWAP1 SWAP4 POP JUMP JUMPDEST PUSH1 0x0 PUSH1 0x20 DUP3 DUP5 SUB SLT ISZERO PUSH2 0x123E JUMPI PUSH2 0x123D PUSH2 0xC8C JUMP JUMPDEST JUMPDEST PUSH1 0x0 PUSH2 0x124C DUP5 DUP3 DUP6 ADD PUSH2 0xCB7 JUMP JUMPDEST SWAP2 POP POP SWAP3 SWAP2 POP POP JUMP JUMPDEST PUSH1 0x0 PUSH1 0xA0 DUP4 ADD PUSH1 0x0 DUP4 ADD MLOAD DUP5 DUP3 SUB PUSH1 0x0 DUP7 ADD MSTORE PUSH2 0x1272 DUP3 DUP3 PUSH2 0xFD5 JUMP JUMPDEST SWAP2 POP POP PUSH1 0x20 DUP4 ADD MLOAD PUSH2 0x1287 PUSH1 0x20 DUP7 ADD DUP3 PUSH2 0x100E JUMP JUMPDEST POP PUSH1 0x40 DUP4 ADD MLOAD PUSH2 0x129A PUSH1 0x40 DUP7 ADD DUP3 PUSH2 0x100E JUMP JUMPDEST POP PUSH1 0x60 DUP4 ADD MLOAD DUP5 DUP3 SUB PUSH1 0x60 DUP7 ADD MSTORE PUSH2 0x12B2 DUP3 DUP3 PUSH2 0xFD5 JUMP JUMPDEST SWAP2 POP POP PUSH1 0x80 DUP4 ADD MLOAD DUP5 DUP3 SUB PUSH1 0x80 DUP7 ADD MSTORE PUSH2 0x12CC DUP3 DUP3 PUSH2 0xFD5 JUMP JUMPDEST SWAP2 POP POP DUP1 SWAP2 POP POP SWAP3 SWAP2 POP POP JUMP JUMPDEST PUSH1 0x0 PUSH1 0x20 DUP3 ADD SWAP1 POP DUP2 DUP2 SUB PUSH1 0x0 DUP4 ADD MSTORE PUSH2 0x12F3 DUP2 DUP5 PUSH2 0x1255 JUMP JUMPDEST SWAP1 POP SWAP3 SWAP2 POP POP JUMP JUMPDEST PUSH1 0x0 DUP3 DUP3 MSTORE PUSH1 0x20 DUP3 ADD SWAP1 POP SWAP3 SWAP2 POP POP JUMP JUMPDEST PUSH1 0x0 PUSH2 0x1317 DUP3 PUSH2 0xF8F JUMP JUMPDEST PUSH2 0x1321 DUP2 DUP6 PUSH2 0x12FB JUMP JUMPDEST SWAP4 POP PUSH2 0x1331 DUP2 DUP6 PUSH1 0x20 DUP7 ADD PUSH2 0xFAB JUMP JUMPDEST PUSH2 0x133A DUP2 PUSH2 0xCD6 JUMP JUMPDEST DUP5 ADD SWAP2 POP POP SWAP3 SWAP2 POP POP JUMP JUMPDEST PUSH2 0x134E DUP2 PUSH2 0xE8E JUMP JUMPDEST DUP3 MSTORE POP POP JUMP JUMPDEST PUSH1 0x0 PUSH1 0xA0 DUP3 ADD SWAP1 POP DUP2 DUP2 SUB PUSH1 0x0 DUP4 ADD MSTORE PUSH2 0x136E DUP2 DUP9 PUSH2 0x130C JUMP JUMPDEST SWAP1 POP PUSH2 0x137D PUSH1 0x20 DUP4 ADD DUP8 PUSH2 0x1345 JUMP JUMPDEST PUSH2 0x138A PUSH1 0x40 DUP4 ADD DUP7 PUSH2 0x1345 JUMP JUMPDEST DUP2 DUP2 SUB PUSH1 0x60 DUP4 ADD MSTORE PUSH2 0x139C DUP2 DUP6 PUSH2 0x130C JUMP JUMPDEST SWAP1 POP DUP2 DUP2 SUB PUSH1 0x80 DUP4 ADD MSTORE PUSH2 0x13B0 DUP2 DUP5 PUSH2 0x130C JUMP JUMPDEST SWAP1 POP SWAP7 SWAP6 POP POP POP POP POP POP JUMP JUMPDEST PUSH32 0x4E487B7100000000000000000000000000000000000000000000000000000000 PUSH1 0x0 MSTORE PUSH1 0x22 PUSH1 0x4 MSTORE PUSH1 0x24 PUSH1 0x0 REVERT JUMPDEST PUSH1 0x0 PUSH1 0x2 DUP3 DIV SWAP1 POP PUSH1 0x1 DUP3 AND DUP1 PUSH2 0x1403 JUMPI PUSH1 0x7F DUP3 AND SWAP2 POP JUMPDEST PUSH1 0x20 DUP3 LT DUP2 SUB PUSH2 0x1416 JUMPI PUSH2 0x1415 PUSH2 0x13BC JUMP JUMPDEST JUMPDEST POP SWAP2 SWAP1 POP JUMP JUMPDEST PUSH1 0x0 DUP2 SWAP1 POP DUP2 PUSH1 0x0 MSTORE PUSH1 0x20 PUSH1 0x0 KECCAK256 SWAP1 POP SWAP2 SWAP1 POP JUMP JUMPDEST PUSH1 0x0 PUSH1 0x20 PUSH1 0x1F DUP4 ADD DIV SWAP1 POP SWAP2 SWAP1 POP JUMP JUMPDEST PUSH1 0x0 DUP3 DUP3 SHL SWAP1 POP SWAP3 SWAP2 POP POP JUMP JUMPDEST PUSH1 0x0 PUSH1 0x8 DUP4 MUL PUSH2 0x147E PUSH32 0xFFFFFFFFFFFFFFFFFFFFFFFFFFFFFFFFFFFFFFFFFFFFFFFFFFFFFFFFFFFFFFFF DUP3 PUSH2 0x1441 JUMP JUMPDEST PUSH2 0x1488 DUP7 DUP4 PUSH2 0x1441 JUMP JUMPDEST SWAP6 POP DUP1 NOT DUP5 AND SWAP4 POP DUP1 DUP7 AND DUP5 OR SWAP3 POP POP POP SWAP4 SWAP3 POP POP POP JUMP JUMPDEST PUSH1 0x0 DUP2 SWAP1 POP SWAP2 SWAP1 POP JUMP JUMPDEST PUSH1 0x0 PUSH2 0x14C5 PUSH2 0x14C0 PUSH2 0x14BB DUP5 PUSH2 0xC96 JUMP JUMPDEST PUSH2 0x14A0 JUMP JUMPDEST PUSH2 0xC96 JUMP JUMPDEST SWAP1 POP SWAP2 SWAP1 POP JUMP JUMPDEST PUSH1 0x0 DUP2 SWAP1 POP SWAP2 SWAP1 POP JUMP JUMPDEST PUSH2 0x14DF DUP4 PUSH2 0x14AA JUMP JUMPDEST PUSH2 0x14F3 PUSH2 0x14EB DUP3 PUSH2 0x14CC JUMP JUMPDEST DUP5 DUP5 SLOAD PUSH2 0x144E JUMP JUMPDEST DUP3 SSTORE POP POP POP POP JUMP JUMPDEST PUSH1 0x0 SWAP1 JUMP JUMPDEST PUSH2 0x1508 PUSH2 0x14FB JUMP JUMPDEST PUSH2 0x1513 DUP2 DUP5 DUP5 PUSH2 0x14D6 JUMP JUMPDEST POP POP POP JUMP JUMPDEST JUMPDEST DUP2 DUP2 LT ISZERO PUSH2 0x1537 JUMPI PUSH2 0x152C PUSH1 0x0 DUP3 PUSH2 0x1500 JUMP JUMPDEST PUSH1 0x1 DUP2 ADD SWAP1 POP PUSH2 0x1519 JUMP JUMPDEST POP POP JUMP JUMPDEST PUSH1 0x1F DUP3 GT ISZERO PUSH2 0x157C JUMPI PUSH2 0x154D DUP2 PUSH2 0x141C JUMP JUMPDEST PUSH2 0x1556 DUP5 PUSH2 0x1431 JUMP JUMPDEST DUP2 ADD PUSH1 0x20 DUP6 LT ISZERO PUSH2 0x1565 JUMPI DUP2 SWAP1 POP JUMPDEST PUSH2 0x1579 PUSH2 0x1571 DUP6 PUSH2 0x1431 JUMP JUMPDEST DUP4 ADD DUP3 PUSH2 0x1518 JUMP JUMPDEST POP POP JUMPDEST POP POP POP JUMP JUMPDEST PUSH1 0x0 DUP3 DUP3 SHR SWAP1 POP SWAP3 SWAP2 POP POP JUMP JUMPDEST PUSH1 0x0 PUSH2 0x159F PUSH1 0x0 NOT DUP5 PUSH1 0x8 MUL PUSH2 0x1581 JUMP JUMPDEST NOT DUP1 DUP4 AND SWAP2 POP POP SWAP3 SWAP2 POP POP JUMP JUMPDEST PUSH1 0x0 PUSH2 0x15B8 DUP4 DUP4 PUSH2 0x158E JUMP JUMPDEST SWAP2 POP DUP3 PUSH1 0x2 MUL DUP3 OR SWAP1 POP SWAP3 SWAP2 POP POP JUMP JUMPDEST PUSH2 0x15D1 DUP3 PUSH2 0xF8F JUMP JUMPDEST PUSH8 0xFFFFFFFFFFFFFFFF DUP2 GT ISZERO PUSH2 0x15EA JUMPI PUSH2 0x15E9 PUSH2 0xCE7 JUMP JUMPDEST JUMPDEST PUSH2 0x15F4 DUP3 SLOAD PUSH2 0x13EB JUMP JUMPDEST PUSH2 0x15FF DUP3 DUP3 DUP6 PUSH2 0x153B JUMP JUMPDEST PUSH1 0x0 PUSH1 0x20 SWAP1 POP PUSH1 0x1F DUP4 GT PUSH1 0x1 DUP2 EQ PUSH2 0x1632 JUMPI PUSH1 0x0 DUP5 ISZERO PUSH2 0x1620 JUMPI DUP3 DUP8 ADD MLOAD SWAP1 POP JUMPDEST PUSH2 0x162A DUP6 DUP3 PUSH2 0x15AC JUMP JUMPDEST DUP7 SSTORE POP PUSH2 0x1692 JUMP JUMPDEST PUSH1 0x1F NOT DUP5 AND PUSH2 0x1640 DUP7 PUSH2 0x141C JUMP JUMPDEST PUSH1 0x0 JUMPDEST DUP3 DUP2 LT ISZERO PUSH2 0x1668 JUMPI DUP5 DUP10 ADD MLOAD DUP3 SSTORE PUSH1 0x1 DUP3 ADD SWAP2 POP PUSH1 0x20 DUP6 ADD SWAP5 POP PUSH1 0x20 DUP2 ADD SWAP1 POP PUSH2 0x1643 JUMP JUMPDEST DUP7 DUP4 LT ISZERO PUSH2 0x1685 JUMPI DUP5 DUP10 ADD MLOAD PUSH2 0x1681 PUSH1 0x1F DUP10 AND DUP3 PUSH2 0x158E JUMP JUMPDEST DUP4 SSTORE POP JUMPDEST PUSH1 0x1 PUSH1 0x2 DUP9 MUL ADD DUP9 SSTORE POP POP POP JUMPDEST POP POP POP POP POP POP JUMP JUMPDEST PUSH32 0x4E487B7100000000000000000000000000000000000000000000000000000000 PUSH1 0x0 MSTORE PUSH1 0x32 PUSH1 0x4 MSTORE PUSH1 0x24 PUSH1 0x0 REVERT JUMPDEST PUSH32 0x4E487B7100000000000000000000000000000000000000000000000000000000 PUSH1 0x0 MSTORE PUSH1 0x11 PUSH1 0x4 MSTORE PUSH1 0x24 PUSH1 0x0 REVERT JUMPDEST PUSH1 0x0 PUSH2 0x1703 DUP3 PUSH2 0xC96 JUMP JUMPDEST SWAP2 POP PUSH32 0xFFFFFFFFFFFFFFFFFFFFFFFFFFFFFFFFFFFFFFFFFFFFFFFFFFFFFFFFFFFFFFFF DUP3 SUB PUSH2 0x1735 JUMPI PUSH2 0x1734 PUSH2 0x16C9 JUMP JUMPDEST JUMPDEST PUSH1 0x1 DUP3 ADD SWAP1 POP SWAP2 SWAP1 POP JUMP INVALID LOG2 PUSH5 0x6970667358 0x22 SLT KECCAK256 PUSH6 0x43484FB01E88 ISZERO PUSH3 0x718FC1 SWAP3 RETURNDATACOPY 0xC4 0x4B DUP14 0xB5 0xDB EXTCODEHASH 0xFC 0xAF SWAP13 0xDC 0xEF LOG4 0xB8 LT 0xDF 0xC8 0xD3 PUSH27 0x64736F6C6343000812003300000000000000000000000000000000 "
				},
				"gasEstimates": {
					"creation": {
						"codeDepositCost": "1201200",
						"executionCost": "23354",
						"totalCost": "1224554"
					},
					"external": {
						"distributorTosmIDMapping(address,uint256)": "infinite",
						"getAllmdIdForManufacturer(address)": "infinite",
						"getProduct(uint256)": "infinite",
						"mdId()": "2495",
						"mdidToStructMapping(uint256)": "infinite",
						"receiveProduct(uint256,bytes)": "infinite",
						"transferproduct(bytes,address,address,bytes,bytes)": "infinite"
					}
				},
				"methodIdentifiers": {
					"distributorTosmIDMapping(address,uint256)": "83f48c96",
					"getAllmdIdForManufacturer(address)": "96fccba4",
					"getProduct(uint256)": "b9db15b4",
					"mdId()": "e3eba904",
					"mdidToStructMapping(uint256)": "cb59d430",
					"receiveProduct(uint256,bytes)": "77c1b897",
					"transferproduct(bytes,address,address,bytes,bytes)": "b0363781"
				}
			},
			"storageLayout": {
				"storage": [
					{
						"astId": 41,
						"contract": "contracts/manufacturerDistributor.sol:manufacturerDistributor",
						"label": "mdId",
						"offset": 0,
						"slot": "0",
						"type": "t_uint256"
					},
					{
						"astId": 44,
						"contract": "contracts/manufacturerDistributor.sol:manufacturerDistributor",
						"label": "alltransfers",
						"offset": 0,
						"slot": "1",
						"type": "t_array(t_uint256)dyn_storage"
					},
					{
						"astId": 49,
						"contract": "contracts/manufacturerDistributor.sol:manufacturerDistributor",
						"label": "mdidToStructMapping",
						"offset": 0,
						"slot": "2",
						"type": "t_mapping(t_uint256,t_struct(manufacturerDistributor)12_storage)"
					},
					{
						"astId": 54,
						"contract": "contracts/manufacturerDistributor.sol:manufacturerDistributor",
						"label": "distributorTosmIDMapping",
						"offset": 0,
						"slot": "3",
						"type": "t_mapping(t_address,t_array(t_uint256)dyn_storage)"
					}
				],
				"types": {
					"t_address": {
						"encoding": "inplace",
						"label": "address",
						"numberOfBytes": "20"
					},
					"t_array(t_uint256)dyn_storage": {
						"base": "t_uint256",
						"encoding": "dynamic_array",
						"label": "uint256[]",
						"numberOfBytes": "32"
					},
					"t_bytes_storage": {
						"encoding": "bytes",
						"label": "bytes",
						"numberOfBytes": "32"
					},
					"t_mapping(t_address,t_array(t_uint256)dyn_storage)": {
						"encoding": "mapping",
						"key": "t_address",
						"label": "mapping(address => uint256[])",
						"numberOfBytes": "32",
						"value": "t_array(t_uint256)dyn_storage"
					},
					"t_mapping(t_uint256,t_struct(manufacturerDistributor)12_storage)": {
						"encoding": "mapping",
						"key": "t_uint256",
						"label": "mapping(uint256 => struct IManufacturerDistributor.manufacturerDistributor)",
						"numberOfBytes": "32",
						"value": "t_struct(manufacturerDistributor)12_storage"
					},
					"t_struct(manufacturerDistributor)12_storage": {
						"encoding": "inplace",
						"label": "struct IManufacturerDistributor.manufacturerDistributor",
						"members": [
							{
								"astId": 3,
								"contract": "contracts/manufacturerDistributor.sol:manufacturerDistributor",
								"label": "mp_id",
								"offset": 0,
								"slot": "0",
								"type": "t_bytes_storage"
							},
							{
								"astId": 5,
								"contract": "contracts/manufacturerDistributor.sol:manufacturerDistributor",
								"label": "m_address",
								"offset": 0,
								"slot": "1",
								"type": "t_address"
							},
							{
								"astId": 7,
								"contract": "contracts/manufacturerDistributor.sol:manufacturerDistributor",
								"label": "d_address",
								"offset": 0,
								"slot": "2",
								"type": "t_address"
							},
							{
								"astId": 9,
								"contract": "contracts/manufacturerDistributor.sol:manufacturerDistributor",
								"label": "dispatchTime",
								"offset": 0,
								"slot": "3",
								"type": "t_bytes_storage"
							},
							{
								"astId": 11,
								"contract": "contracts/manufacturerDistributor.sol:manufacturerDistributor",
								"label": "arrivalTime",
								"offset": 0,
								"slot": "4",
								"type": "t_bytes_storage"
							}
						],
						"numberOfBytes": "160"
					},
					"t_uint256": {
						"encoding": "inplace",
						"label": "uint256",
						"numberOfBytes": "32"
					}
				}
			},
			"userdoc": {
				"kind": "user",
				"methods": {},
				"version": 1
			}
		}
	}
}