{
	"contracts/supplierManufacturer.sol": {
		"supplierManufacturer": {
			"abi": [
				{
					"anonymous": false,
					"inputs": [
						{
							"indexed": true,
							"internalType": "uint256",
							"name": "_smId",
							"type": "uint256"
						},
						{
							"indexed": true,
							"internalType": "uint256",
							"name": "_spId",
							"type": "uint256"
						},
						{
							"indexed": false,
							"internalType": "address",
							"name": "_supplierAddress",
							"type": "address"
						},
						{
							"indexed": false,
							"internalType": "address",
							"name": "_manufacturerAddress",
							"type": "address"
						},
						{
							"indexed": false,
							"internalType": "uint32",
							"name": "_dispatchTime",
							"type": "uint32"
						},
						{
							"indexed": false,
							"internalType": "uint32",
							"name": "_arrivalTime",
							"type": "uint32"
						}
					],
					"name": "eventSupplierManufacturerTransfer",
					"type": "event"
				},
				{
					"inputs": [
						{
							"internalType": "address",
							"name": "_manufacturerAddress",
							"type": "address"
						}
					],
					"name": "getAllSmIdForManufacturer",
					"outputs": [
						{
							"components": [
								{
									"internalType": "uint256",
									"name": "spId",
									"type": "uint256"
								},
								{
									"internalType": "address",
									"name": "supplierAddress",
									"type": "address"
								},
								{
									"internalType": "address",
									"name": "manufacturerAddress",
									"type": "address"
								},
								{
									"internalType": "uint32",
									"name": "dispatchTime",
									"type": "uint32"
								},
								{
									"internalType": "uint32",
									"name": "arrivalTime",
									"type": "uint32"
								}
							],
							"internalType": "struct ISupplierManufacturer.supplierManufacturer[]",
							"name": "",
							"type": "tuple[]"
						}
					],
					"stateMutability": "view",
					"type": "function"
				},
				{
					"inputs": [
						{
							"internalType": "uint256",
							"name": "_smId",
							"type": "uint256"
						}
					],
					"name": "getProduct",
					"outputs": [
						{
							"components": [
								{
									"internalType": "uint256",
									"name": "spId",
									"type": "uint256"
								},
								{
									"internalType": "address",
									"name": "supplierAddress",
									"type": "address"
								},
								{
									"internalType": "address",
									"name": "manufacturerAddress",
									"type": "address"
								},
								{
									"internalType": "uint32",
									"name": "dispatchTime",
									"type": "uint32"
								},
								{
									"internalType": "uint32",
									"name": "arrivalTime",
									"type": "uint32"
								}
							],
							"internalType": "struct ISupplierManufacturer.supplierManufacturer",
							"name": "",
							"type": "tuple"
						}
					],
					"stateMutability": "view",
					"type": "function"
				},
				{
					"inputs": [
						{
							"internalType": "address",
							"name": "",
							"type": "address"
						},
						{
							"internalType": "uint256",
							"name": "",
							"type": "uint256"
						}
					],
					"name": "manufacturerTosmIDMapping",
					"outputs": [
						{
							"internalType": "uint256",
							"name": "",
							"type": "uint256"
						}
					],
					"stateMutability": "view",
					"type": "function"
				},
				{
					"inputs": [
						{
							"internalType": "uint256",
							"name": "_smId",
							"type": "uint256"
						},
						{
							"internalType": "uint32",
							"name": "_arrivalTime",
							"type": "uint32"
						}
					],
					"name": "receiveProduct",
					"outputs": [],
					"stateMutability": "nonpayable",
					"type": "function"
				},
				{
					"inputs": [],
					"name": "smId",
					"outputs": [
						{
							"internalType": "uint256",
							"name": "",
							"type": "uint256"
						}
					],
					"stateMutability": "view",
					"type": "function"
				},
				{
					"inputs": [
						{
							"internalType": "uint256",
							"name": "",
							"type": "uint256"
						}
					],
					"name": "smidToStructMapping",
					"outputs": [
						{
							"internalType": "uint256",
							"name": "spId",
							"type": "uint256"
						},
						{
							"internalType": "address",
							"name": "supplierAddress",
							"type": "address"
						},
						{
							"internalType": "address",
							"name": "manufacturerAddress",
							"type": "address"
						},
						{
							"internalType": "uint32",
							"name": "dispatchTime",
							"type": "uint32"
						},
						{
							"internalType": "uint32",
							"name": "arrivalTime",
							"type": "uint32"
						}
					],
					"stateMutability": "view",
					"type": "function"
				},
				{
					"inputs": [
						{
							"internalType": "uint256",
							"name": "_spId",
							"type": "uint256"
						},
						{
							"internalType": "address",
							"name": "_supplierAddress",
							"type": "address"
						},
						{
							"internalType": "address",
							"name": "_manufacturerAddress",
							"type": "address"
						},
						{
							"internalType": "uint32",
							"name": "_dispatchTime",
							"type": "uint32"
						},
						{
							"internalType": "uint32",
							"name": "_arrivalTime",
							"type": "uint32"
						}
					],
					"name": "transferProduct",
					"outputs": [],
					"stateMutability": "nonpayable",
					"type": "function"
				}
			],
			"devdoc": {
				"kind": "dev",
				"methods": {},
				"version": 1
			},
			"evm": {
				"assembly": "    /* \"contracts/supplierManufacturer.sol\":122:2029  contract supplierManufacturer is ISupplierManufacturer{... */\n  mstore(0x40, 0x80)\n    /* \"contracts/supplierManufacturer.sol\":202:203  1 */\n  0x01\n    /* \"contracts/supplierManufacturer.sol\":183:203  uint public smId = 1 */\n  0x00\n  sstore\n    /* \"contracts/supplierManufacturer.sol\":122:2029  contract supplierManufacturer is ISupplierManufacturer{... */\n  callvalue\n  dup1\n  iszero\n  tag_1\n  jumpi\n  0x00\n  dup1\n  revert\ntag_1:\n  pop\n  dataSize(sub_0)\n  dup1\n  dataOffset(sub_0)\n  0x00\n  codecopy\n  0x00\n  return\nstop\n\nsub_0: assembly {\n        /* \"contracts/supplierManufacturer.sol\":122:2029  contract supplierManufacturer is ISupplierManufacturer{... */\n      mstore(0x40, 0x80)\n      callvalue\n      dup1\n      iszero\n      tag_1\n      jumpi\n      0x00\n      dup1\n      revert\n    tag_1:\n      pop\n      jumpi(tag_2, lt(calldatasize, 0x04))\n      shr(0xe0, calldataload(0x00))\n      dup1\n      0x911a34fe\n      gt\n      tag_10\n      jumpi\n      dup1\n      0x911a34fe\n      eq\n      tag_6\n      jumpi\n      dup1\n      0xa4403615\n      eq\n      tag_7\n      jumpi\n      dup1\n      0xb9db15b4\n      eq\n      tag_8\n      jumpi\n      dup1\n      0xd2bf193d\n      eq\n      tag_9\n      jumpi\n      jump(tag_2)\n    tag_10:\n      dup1\n      0x029e2fe4\n      eq\n      tag_3\n      jumpi\n      dup1\n      0x3f5d2e2e\n      eq\n      tag_4\n      jumpi\n      dup1\n      0x70b775a0\n      eq\n      tag_5\n      jumpi\n    tag_2:\n      0x00\n      dup1\n      revert\n        /* \"contracts/supplierManufacturer.sol\":183:203  uint public smId = 1 */\n    tag_3:\n      tag_11\n      tag_12\n      jump\t// in\n    tag_11:\n      mload(0x40)\n      tag_13\n      swap2\n      swap1\n      tag_14\n      jump\t// in\n    tag_13:\n      mload(0x40)\n      dup1\n      swap2\n      sub\n      swap1\n      return\n        /* \"contracts/supplierManufacturer.sol\":712:1241  function transferProduct(uint _spId, address _supplierAddress,address _manufacturerAddress,uint32 _dispatchTime,uint32 _arrivalTime)external override{... */\n    tag_4:\n      tag_15\n      0x04\n      dup1\n      calldatasize\n      sub\n      dup2\n      add\n      swap1\n      tag_16\n      swap2\n      swap1\n      tag_17\n      jump\t// in\n    tag_16:\n      tag_18\n      jump\t// in\n    tag_15:\n      stop\n        /* \"contracts/supplierManufacturer.sol\":1552:2026  function getAllSmIdForManufacturer(address _manufacturerAddress) public view returns(supplierManufacturer[] memory){... */\n    tag_5:\n      tag_19\n      0x04\n      dup1\n      calldatasize\n      sub\n      dup2\n      add\n      swap1\n      tag_20\n      swap2\n      swap1\n      tag_21\n      jump\t// in\n    tag_20:\n      tag_22\n      jump\t// in\n    tag_19:\n      mload(0x40)\n      tag_23\n      swap2\n      swap1\n      tag_24\n      jump\t// in\n    tag_23:\n      mload(0x40)\n      dup1\n      swap2\n      sub\n      swap1\n      return\n        /* \"contracts/supplierManufacturer.sol\":1250:1405  function receiveProduct(uint _smId, uint32 _arrivalTime)external override{... */\n    tag_6:\n      tag_25\n      0x04\n      dup1\n      calldatasize\n      sub\n      dup2\n      add\n      swap1\n      tag_26\n      swap2\n      swap1\n      tag_27\n      jump\t// in\n    tag_26:\n      tag_28\n      jump\t// in\n    tag_25:\n      stop\n        /* \"contracts/supplierManufacturer.sol\":646:705  mapping(address => uint[]) public manufacturerTosmIDMapping */\n    tag_7:\n      tag_29\n      0x04\n      dup1\n      calldatasize\n      sub\n      dup2\n      add\n      swap1\n      tag_30\n      swap2\n      swap1\n      tag_31\n      jump\t// in\n    tag_30:\n      tag_32\n      jump\t// in\n    tag_29:\n      mload(0x40)\n      tag_33\n      swap2\n      swap1\n      tag_14\n      jump\t// in\n    tag_33:\n      mload(0x40)\n      dup1\n      swap2\n      sub\n      swap1\n      return\n        /* \"contracts/supplierManufacturer.sol\":1412:1544  function getProduct(uint _smId) public view returns(supplierManufacturer memory){... */\n    tag_8:\n      tag_34\n      0x04\n      dup1\n      calldatasize\n      sub\n      dup2\n      add\n      swap1\n      tag_35\n      swap2\n      swap1\n      tag_36\n      jump\t// in\n    tag_35:\n      tag_37\n      jump\t// in\n    tag_34:\n      mload(0x40)\n      tag_38\n      swap2\n      swap1\n      tag_39\n      jump\t// in\n    tag_38:\n      mload(0x40)\n      dup1\n      swap2\n      sub\n      swap1\n      return\n        /* \"contracts/supplierManufacturer.sol\":575:639  mapping(uint => supplierManufacturer) public smidToStructMapping */\n    tag_9:\n      tag_40\n      0x04\n      dup1\n      calldatasize\n      sub\n      dup2\n      add\n      swap1\n      tag_41\n      swap2\n      swap1\n      tag_36\n      jump\t// in\n    tag_41:\n      tag_42\n      jump\t// in\n    tag_40:\n      mload(0x40)\n      tag_43\n      swap6\n      swap5\n      swap4\n      swap3\n      swap2\n      swap1\n      tag_44\n      jump\t// in\n    tag_43:\n      mload(0x40)\n      dup1\n      swap2\n      sub\n      swap1\n      return\n        /* \"contracts/supplierManufacturer.sol\":183:203  uint public smId = 1 */\n    tag_12:\n      sload(0x00)\n      dup2\n      jump\t// out\n        /* \"contracts/supplierManufacturer.sol\":712:1241  function transferProduct(uint _spId, address _supplierAddress,address _manufacturerAddress,uint32 _dispatchTime,uint32 _arrivalTime)external override{... */\n    tag_18:\n        /* \"contracts/supplierManufacturer.sol\":900:992  supplierManufacturer(_spId,_supplierAddress,_manufacturerAddress,_dispatchTime,_arrivalTime) */\n      mload(0x40)\n      dup1\n      0xa0\n      add\n      0x40\n      mstore\n      dup1\n        /* \"contracts/supplierManufacturer.sol\":921:926  _spId */\n      dup7\n        /* \"contracts/supplierManufacturer.sol\":900:992  supplierManufacturer(_spId,_supplierAddress,_manufacturerAddress,_dispatchTime,_arrivalTime) */\n      dup2\n      mstore\n      0x20\n      add\n        /* \"contracts/supplierManufacturer.sol\":927:943  _supplierAddress */\n      dup6\n        /* \"contracts/supplierManufacturer.sol\":900:992  supplierManufacturer(_spId,_supplierAddress,_manufacturerAddress,_dispatchTime,_arrivalTime) */\n      0xffffffffffffffffffffffffffffffffffffffff\n      and\n      dup2\n      mstore\n      0x20\n      add\n        /* \"contracts/supplierManufacturer.sol\":944:964  _manufacturerAddress */\n      dup5\n        /* \"contracts/supplierManufacturer.sol\":900:992  supplierManufacturer(_spId,_supplierAddress,_manufacturerAddress,_dispatchTime,_arrivalTime) */\n      0xffffffffffffffffffffffffffffffffffffffff\n      and\n      dup2\n      mstore\n      0x20\n      add\n        /* \"contracts/supplierManufacturer.sol\":965:978  _dispatchTime */\n      dup4\n        /* \"contracts/supplierManufacturer.sol\":900:992  supplierManufacturer(_spId,_supplierAddress,_manufacturerAddress,_dispatchTime,_arrivalTime) */\n      0xffffffff\n      and\n      dup2\n      mstore\n      0x20\n      add\n        /* \"contracts/supplierManufacturer.sol\":979:991  _arrivalTime */\n      dup3\n        /* \"contracts/supplierManufacturer.sol\":900:992  supplierManufacturer(_spId,_supplierAddress,_manufacturerAddress,_dispatchTime,_arrivalTime) */\n      0xffffffff\n      and\n      dup2\n      mstore\n      pop\n        /* \"contracts/supplierManufacturer.sol\":872:891  smidToStructMapping */\n      0x02\n        /* \"contracts/supplierManufacturer.sol\":872:897  smidToStructMapping[smId] */\n      0x00\n        /* \"contracts/supplierManufacturer.sol\":892:896  smId */\n      dup1\n      sload\n        /* \"contracts/supplierManufacturer.sol\":872:897  smidToStructMapping[smId] */\n      dup2\n      mstore\n      0x20\n      add\n      swap1\n      dup2\n      mstore\n      0x20\n      add\n      0x00\n      keccak256\n        /* \"contracts/supplierManufacturer.sol\":872:992  smidToStructMapping[smId] = supplierManufacturer(_spId,_supplierAddress,_manufacturerAddress,_dispatchTime,_arrivalTime) */\n      0x00\n      dup3\n      add\n      mload\n      dup2\n      0x00\n      add\n      sstore\n      0x20\n      dup3\n      add\n      mload\n      dup2\n      0x01\n      add\n      exp(0x0100, 0x00)\n      dup2\n      sload\n      dup2\n      0xffffffffffffffffffffffffffffffffffffffff\n      mul\n      not\n      and\n      swap1\n      dup4\n      0xffffffffffffffffffffffffffffffffffffffff\n      and\n      mul\n      or\n      swap1\n      sstore\n      pop\n      0x40\n      dup3\n      add\n      mload\n      dup2\n      0x02\n      add\n      exp(0x0100, 0x00)\n      dup2\n      sload\n      dup2\n      0xffffffffffffffffffffffffffffffffffffffff\n      mul\n      not\n      and\n      swap1\n      dup4\n      0xffffffffffffffffffffffffffffffffffffffff\n      and\n      mul\n      or\n      swap1\n      sstore\n      pop\n      0x60\n      dup3\n      add\n      mload\n      dup2\n      0x02\n      add\n      exp(0x0100, 0x14)\n      dup2\n      sload\n      dup2\n      0xffffffff\n      mul\n      not\n      and\n      swap1\n      dup4\n      0xffffffff\n      and\n      mul\n      or\n      swap1\n      sstore\n      pop\n      0x80\n      dup3\n      add\n      mload\n      dup2\n      0x02\n      add\n      exp(0x0100, 0x18)\n      dup2\n      sload\n      dup2\n      0xffffffff\n      mul\n      not\n      and\n      swap1\n      dup4\n      0xffffffff\n      and\n      mul\n      or\n      swap1\n      sstore\n      pop\n      swap1\n      pop\n      pop\n        /* \"contracts/supplierManufacturer.sol\":1003:1010  allSmId */\n      0x01\n        /* \"contracts/supplierManufacturer.sol\":1016:1020  smId */\n      sload(0x00)\n        /* \"contracts/supplierManufacturer.sol\":1003:1021  allSmId.push(smId) */\n      swap1\n      dup1\n      0x01\n      dup2\n      sload\n      add\n      dup1\n      dup3\n      sstore\n      dup1\n      swap2\n      pop\n      pop\n      0x01\n      swap1\n      sub\n      swap1\n      0x00\n      mstore\n      keccak256(0x00, 0x20)\n      add\n      0x00\n      swap1\n      swap2\n      swap1\n      swap2\n      swap1\n      swap2\n      pop\n      sstore\n        /* \"contracts/supplierManufacturer.sol\":1032:1057  manufacturerTosmIDMapping */\n      0x03\n        /* \"contracts/supplierManufacturer.sol\":1032:1079  manufacturerTosmIDMapping[_manufacturerAddress] */\n      0x00\n        /* \"contracts/supplierManufacturer.sol\":1058:1078  _manufacturerAddress */\n      dup5\n        /* \"contracts/supplierManufacturer.sol\":1032:1079  manufacturerTosmIDMapping[_manufacturerAddress] */\n      0xffffffffffffffffffffffffffffffffffffffff\n      and\n      0xffffffffffffffffffffffffffffffffffffffff\n      and\n      dup2\n      mstore\n      0x20\n      add\n      swap1\n      dup2\n      mstore\n      0x20\n      add\n      0x00\n      keccak256\n        /* \"contracts/supplierManufacturer.sol\":1085:1089  smId */\n      sload(0x00)\n        /* \"contracts/supplierManufacturer.sol\":1032:1090  manufacturerTosmIDMapping[_manufacturerAddress].push(smId) */\n      swap1\n      dup1\n      0x01\n      dup2\n      sload\n      add\n      dup1\n      dup3\n      sstore\n      dup1\n      swap2\n      pop\n      pop\n      0x01\n      swap1\n      sub\n      swap1\n      0x00\n      mstore\n      keccak256(0x00, 0x20)\n      add\n      0x00\n      swap1\n      swap2\n      swap1\n      swap2\n      swap1\n      swap2\n      pop\n      sstore\n        /* \"contracts/supplierManufacturer.sol\":1145:1150  _spId */\n      dup5\n        /* \"contracts/supplierManufacturer.sol\":1140:1144  smId */\n      sload(0x00)\n        /* \"contracts/supplierManufacturer.sol\":1106:1216  eventSupplierManufacturerTransfer(smId,_spId,_supplierAddress,_manufacturerAddress,_dispatchTime,_arrivalTime) */\n      0x99dbbde039b2d7a1d4a332c4888db6a03b4ceb60e3036b5b4d421ba220e39bdc\n        /* \"contracts/supplierManufacturer.sol\":1151:1167  _supplierAddress */\n      dup7\n        /* \"contracts/supplierManufacturer.sol\":1168:1188  _manufacturerAddress */\n      dup7\n        /* \"contracts/supplierManufacturer.sol\":1189:1202  _dispatchTime */\n      dup7\n        /* \"contracts/supplierManufacturer.sol\":1203:1215  _arrivalTime */\n      dup7\n        /* \"contracts/supplierManufacturer.sol\":1106:1216  eventSupplierManufacturerTransfer(smId,_spId,_supplierAddress,_manufacturerAddress,_dispatchTime,_arrivalTime) */\n      mload(0x40)\n      tag_48\n      swap5\n      swap4\n      swap3\n      swap2\n      swap1\n      tag_49\n      jump\t// in\n    tag_48:\n      mload(0x40)\n      dup1\n      swap2\n      sub\n      swap1\n      log3\n        /* \"contracts/supplierManufacturer.sol\":1227:1231  smId */\n      0x00\n      dup1\n        /* \"contracts/supplierManufacturer.sol\":1227:1233  smId++ */\n      dup2\n      sload\n      dup1\n      swap3\n      swap2\n      swap1\n      tag_50\n      swap1\n      tag_51\n      jump\t// in\n    tag_50:\n      swap2\n      swap1\n      pop\n      sstore\n      pop\n        /* \"contracts/supplierManufacturer.sol\":712:1241  function transferProduct(uint _spId, address _supplierAddress,address _manufacturerAddress,uint32 _dispatchTime,uint32 _arrivalTime)external override{... */\n      pop\n      pop\n      pop\n      pop\n      pop\n      jump\t// out\n        /* \"contracts/supplierManufacturer.sol\":1552:2026  function getAllSmIdForManufacturer(address _manufacturerAddress) public view returns(supplierManufacturer[] memory){... */\n    tag_22:\n        /* \"contracts/supplierManufacturer.sol\":1637:1666  supplierManufacturer[] memory */\n      0x60\n        /* \"contracts/supplierManufacturer.sol\":1688:1710  uint[] memory smIdData */\n      0x00\n        /* \"contracts/supplierManufacturer.sol\":1713:1738  manufacturerTosmIDMapping */\n      0x03\n        /* \"contracts/supplierManufacturer.sol\":1713:1760  manufacturerTosmIDMapping[_manufacturerAddress] */\n      0x00\n        /* \"contracts/supplierManufacturer.sol\":1739:1759  _manufacturerAddress */\n      dup5\n        /* \"contracts/supplierManufacturer.sol\":1713:1760  manufacturerTosmIDMapping[_manufacturerAddress] */\n      0xffffffffffffffffffffffffffffffffffffffff\n      and\n      0xffffffffffffffffffffffffffffffffffffffff\n      and\n      dup2\n      mstore\n      0x20\n      add\n      swap1\n      dup2\n      mstore\n      0x20\n      add\n      0x00\n      keccak256\n        /* \"contracts/supplierManufacturer.sol\":1688:1760  uint[] memory smIdData = manufacturerTosmIDMapping[_manufacturerAddress] */\n      dup1\n      sload\n      dup1\n      0x20\n      mul\n      0x20\n      add\n      mload(0x40)\n      swap1\n      dup2\n      add\n      0x40\n      mstore\n      dup1\n      swap3\n      swap2\n      swap1\n      dup2\n      dup2\n      mstore\n      0x20\n      add\n      dup3\n      dup1\n      sload\n      dup1\n      iszero\n      tag_53\n      jumpi\n      0x20\n      mul\n      dup3\n      add\n      swap2\n      swap1\n      0x00\n      mstore\n      keccak256(0x00, 0x20)\n      swap1\n    tag_54:\n      dup2\n      sload\n      dup2\n      mstore\n      0x20\n      add\n      swap1\n      0x01\n      add\n      swap1\n      dup1\n      dup4\n      gt\n      tag_54\n      jumpi\n    tag_53:\n      pop\n      pop\n      pop\n      pop\n      pop\n      swap1\n      pop\n        /* \"contracts/supplierManufacturer.sol\":1771:1812  supplierManufacturer[] memory smIdDetails */\n      0x00\n        /* \"contracts/supplierManufacturer.sol\":1842:1850  smIdData */\n      dup2\n        /* \"contracts/supplierManufacturer.sol\":1842:1857  smIdData.length */\n      mload\n        /* \"contracts/supplierManufacturer.sol\":1815:1858  new supplierManufacturer[](smIdData.length) */\n      0xffffffffffffffff\n      dup2\n      gt\n      iszero\n      tag_55\n      jumpi\n      tag_56\n      tag_57\n      jump\t// in\n    tag_56:\n    tag_55:\n      mload(0x40)\n      swap1\n      dup1\n      dup3\n      mstore\n      dup1\n      0x20\n      mul\n      0x20\n      add\n      dup3\n      add\n      0x40\n      mstore\n      dup1\n      iszero\n      tag_58\n      jumpi\n      dup2\n      0x20\n      add\n    tag_59:\n      tag_60\n      tag_61\n      jump\t// in\n    tag_60:\n      dup2\n      mstore\n      0x20\n      add\n      swap1\n      0x01\n      swap1\n      sub\n      swap1\n      dup2\n      tag_59\n      jumpi\n      swap1\n      pop\n    tag_58:\n      pop\n        /* \"contracts/supplierManufacturer.sol\":1771:1858  supplierManufacturer[] memory smIdDetails = new supplierManufacturer[](smIdData.length) */\n      swap1\n      pop\n        /* \"contracts/supplierManufacturer.sol\":1873:1879  uint i */\n      0x00\n        /* \"contracts/supplierManufacturer.sol\":1869:1990  for(uint i=0;i<smIdData.length;i++)... */\n    tag_62:\n        /* \"contracts/supplierManufacturer.sol\":1884:1892  smIdData */\n      dup3\n        /* \"contracts/supplierManufacturer.sol\":1884:1899  smIdData.length */\n      mload\n        /* \"contracts/supplierManufacturer.sol\":1882:1883  i */\n      dup2\n        /* \"contracts/supplierManufacturer.sol\":1882:1899  i<smIdData.length */\n      lt\n        /* \"contracts/supplierManufacturer.sol\":1869:1990  for(uint i=0;i<smIdData.length;i++)... */\n      iszero\n      tag_63\n      jumpi\n        /* \"contracts/supplierManufacturer.sol\":1946:1965  smidToStructMapping */\n      0x02\n        /* \"contracts/supplierManufacturer.sol\":1946:1978  smidToStructMapping[smIdData[i]] */\n      0x00\n        /* \"contracts/supplierManufacturer.sol\":1966:1974  smIdData */\n      dup5\n        /* \"contracts/supplierManufacturer.sol\":1975:1976  i */\n      dup4\n        /* \"contracts/supplierManufacturer.sol\":1966:1977  smIdData[i] */\n      dup2\n      mload\n      dup2\n      lt\n      tag_65\n      jumpi\n      tag_66\n      tag_67\n      jump\t// in\n    tag_66:\n    tag_65:\n      0x20\n      mul\n      0x20\n      add\n      add\n      mload\n        /* \"contracts/supplierManufacturer.sol\":1946:1978  smidToStructMapping[smIdData[i]] */\n      dup2\n      mstore\n      0x20\n      add\n      swap1\n      dup2\n      mstore\n      0x20\n      add\n      0x00\n      keccak256\n        /* \"contracts/supplierManufacturer.sol\":1929:1978  smIdDetails[i] = smidToStructMapping[smIdData[i]] */\n      mload(0x40)\n      dup1\n      0xa0\n      add\n      0x40\n      mstore\n      swap1\n      dup2\n      0x00\n      dup3\n      add\n      sload\n      dup2\n      mstore\n      0x20\n      add\n      0x01\n      dup3\n      add\n      0x00\n      swap1\n      sload\n      swap1\n      0x0100\n      exp\n      swap1\n      div\n      0xffffffffffffffffffffffffffffffffffffffff\n      and\n      0xffffffffffffffffffffffffffffffffffffffff\n      and\n      0xffffffffffffffffffffffffffffffffffffffff\n      and\n      dup2\n      mstore\n      0x20\n      add\n      0x02\n      dup3\n      add\n      0x00\n      swap1\n      sload\n      swap1\n      0x0100\n      exp\n      swap1\n      div\n      0xffffffffffffffffffffffffffffffffffffffff\n      and\n      0xffffffffffffffffffffffffffffffffffffffff\n      and\n      0xffffffffffffffffffffffffffffffffffffffff\n      and\n      dup2\n      mstore\n      0x20\n      add\n      0x02\n      dup3\n      add\n      0x14\n      swap1\n      sload\n      swap1\n      0x0100\n      exp\n      swap1\n      div\n      0xffffffff\n      and\n      0xffffffff\n      and\n      0xffffffff\n      and\n      dup2\n      mstore\n      0x20\n      add\n      0x02\n      dup3\n      add\n      0x18\n      swap1\n      sload\n      swap1\n      0x0100\n      exp\n      swap1\n      div\n      0xffffffff\n      and\n      0xffffffff\n      and\n      0xffffffff\n      and\n      dup2\n      mstore\n      pop\n      pop\n        /* \"contracts/supplierManufacturer.sol\":1929:1940  smIdDetails */\n      dup3\n        /* \"contracts/supplierManufacturer.sol\":1941:1942  i */\n      dup3\n        /* \"contracts/supplierManufacturer.sol\":1929:1943  smIdDetails[i] */\n      dup2\n      mload\n      dup2\n      lt\n      tag_68\n      jumpi\n      tag_69\n      tag_67\n      jump\t// in\n    tag_69:\n    tag_68:\n      0x20\n      mul\n      0x20\n      add\n      add\n        /* \"contracts/supplierManufacturer.sol\":1929:1978  smIdDetails[i] = smidToStructMapping[smIdData[i]] */\n      dup2\n      swap1\n      mstore\n      pop\n        /* \"contracts/supplierManufacturer.sol\":1900:1903  i++ */\n      dup1\n      dup1\n      tag_70\n      swap1\n      tag_51\n      jump\t// in\n    tag_70:\n      swap2\n      pop\n      pop\n        /* \"contracts/supplierManufacturer.sol\":1869:1990  for(uint i=0;i<smIdData.length;i++)... */\n      jump(tag_62)\n    tag_63:\n      pop\n        /* \"contracts/supplierManufacturer.sol\":2007:2018  smIdDetails */\n      dup1\n        /* \"contracts/supplierManufacturer.sol\":2000:2018  return smIdDetails */\n      swap3\n      pop\n      pop\n      pop\n        /* \"contracts/supplierManufacturer.sol\":1552:2026  function getAllSmIdForManufacturer(address _manufacturerAddress) public view returns(supplierManufacturer[] memory){... */\n      swap2\n      swap1\n      pop\n      jump\t// out\n        /* \"contracts/supplierManufacturer.sol\":1250:1405  function receiveProduct(uint _smId, uint32 _arrivalTime)external override{... */\n    tag_28:\n        /* \"contracts/supplierManufacturer.sol\":1375:1387  _arrivalTime */\n      dup1\n        /* \"contracts/supplierManufacturer.sol\":1334:1353  smidToStructMapping */\n      0x02\n        /* \"contracts/supplierManufacturer.sol\":1334:1360  smidToStructMapping[_smId] */\n      0x00\n        /* \"contracts/supplierManufacturer.sol\":1354:1359  _smId */\n      dup5\n        /* \"contracts/supplierManufacturer.sol\":1334:1360  smidToStructMapping[_smId] */\n      dup2\n      mstore\n      0x20\n      add\n      swap1\n      dup2\n      mstore\n      0x20\n      add\n      0x00\n      keccak256\n        /* \"contracts/supplierManufacturer.sol\":1334:1372  smidToStructMapping[_smId].arrivalTime */\n      0x02\n      add\n      0x18\n        /* \"contracts/supplierManufacturer.sol\":1334:1387  smidToStructMapping[_smId].arrivalTime = _arrivalTime */\n      0x0100\n      exp\n      dup2\n      sload\n      dup2\n      0xffffffff\n      mul\n      not\n      and\n      swap1\n      dup4\n      0xffffffff\n      and\n      mul\n      or\n      swap1\n      sstore\n      pop\n        /* \"contracts/supplierManufacturer.sol\":1250:1405  function receiveProduct(uint _smId, uint32 _arrivalTime)external override{... */\n      pop\n      pop\n      jump\t// out\n        /* \"contracts/supplierManufacturer.sol\":646:705  mapping(address => uint[]) public manufacturerTosmIDMapping */\n    tag_32:\n      mstore(0x20, 0x03)\n      dup2\n      0x00\n      mstore\n      keccak256(0x00, 0x40)\n      dup2\n      dup2\n      sload\n      dup2\n      lt\n      tag_72\n      jumpi\n      0x00\n      dup1\n      revert\n    tag_72:\n      swap1\n      0x00\n      mstore\n      keccak256(0x00, 0x20)\n      add\n      0x00\n      swap2\n      pop\n      swap2\n      pop\n      pop\n      sload\n      dup2\n      jump\t// out\n        /* \"contracts/supplierManufacturer.sol\":1412:1544  function getProduct(uint _smId) public view returns(supplierManufacturer memory){... */\n    tag_37:\n        /* \"contracts/supplierManufacturer.sol\":1464:1491  supplierManufacturer memory */\n      tag_74\n      tag_61\n      jump\t// in\n    tag_74:\n        /* \"contracts/supplierManufacturer.sol\":1510:1529  smidToStructMapping */\n      0x02\n        /* \"contracts/supplierManufacturer.sol\":1510:1536  smidToStructMapping[_smId] */\n      0x00\n        /* \"contracts/supplierManufacturer.sol\":1530:1535  _smId */\n      dup4\n        /* \"contracts/supplierManufacturer.sol\":1510:1536  smidToStructMapping[_smId] */\n      dup2\n      mstore\n      0x20\n      add\n      swap1\n      dup2\n      mstore\n      0x20\n      add\n      0x00\n      keccak256\n        /* \"contracts/supplierManufacturer.sol\":1503:1536  return smidToStructMapping[_smId] */\n      mload(0x40)\n      dup1\n      0xa0\n      add\n      0x40\n      mstore\n      swap1\n      dup2\n      0x00\n      dup3\n      add\n      sload\n      dup2\n      mstore\n      0x20\n      add\n      0x01\n      dup3\n      add\n      0x00\n      swap1\n      sload\n      swap1\n      0x0100\n      exp\n      swap1\n      div\n      0xffffffffffffffffffffffffffffffffffffffff\n      and\n      0xffffffffffffffffffffffffffffffffffffffff\n      and\n      0xffffffffffffffffffffffffffffffffffffffff\n      and\n      dup2\n      mstore\n      0x20\n      add\n      0x02\n      dup3\n      add\n      0x00\n      swap1\n      sload\n      swap1\n      0x0100\n      exp\n      swap1\n      div\n      0xffffffffffffffffffffffffffffffffffffffff\n      and\n      0xffffffffffffffffffffffffffffffffffffffff\n      and\n      0xffffffffffffffffffffffffffffffffffffffff\n      and\n      dup2\n      mstore\n      0x20\n      add\n      0x02\n      dup3\n      add\n      0x14\n      swap1\n      sload\n      swap1\n      0x0100\n      exp\n      swap1\n      div\n      0xffffffff\n      and\n      0xffffffff\n      and\n      0xffffffff\n      and\n      dup2\n      mstore\n      0x20\n      add\n      0x02\n      dup3\n      add\n      0x18\n      swap1\n      sload\n      swap1\n      0x0100\n      exp\n      swap1\n      div\n      0xffffffff\n      and\n      0xffffffff\n      and\n      0xffffffff\n      and\n      dup2\n      mstore\n      pop\n      pop\n      swap1\n      pop\n        /* \"contracts/supplierManufacturer.sol\":1412:1544  function getProduct(uint _smId) public view returns(supplierManufacturer memory){... */\n      swap2\n      swap1\n      pop\n      jump\t// out\n        /* \"contracts/supplierManufacturer.sol\":575:639  mapping(uint => supplierManufacturer) public smidToStructMapping */\n    tag_42:\n      mstore(0x20, 0x02)\n      dup1\n      0x00\n      mstore\n      keccak256(0x00, 0x40)\n      0x00\n      swap2\n      pop\n      swap1\n      pop\n      dup1\n      0x00\n      add\n      sload\n      swap1\n      dup1\n      0x01\n      add\n      0x00\n      swap1\n      sload\n      swap1\n      0x0100\n      exp\n      swap1\n      div\n      0xffffffffffffffffffffffffffffffffffffffff\n      and\n      swap1\n      dup1\n      0x02\n      add\n      0x00\n      swap1\n      sload\n      swap1\n      0x0100\n      exp\n      swap1\n      div\n      0xffffffffffffffffffffffffffffffffffffffff\n      and\n      swap1\n      dup1\n      0x02\n      add\n      0x14\n      swap1\n      sload\n      swap1\n      0x0100\n      exp\n      swap1\n      div\n      0xffffffff\n      and\n      swap1\n      dup1\n      0x02\n      add\n      0x18\n      swap1\n      sload\n      swap1\n      0x0100\n      exp\n      swap1\n      div\n      0xffffffff\n      and\n      swap1\n      pop\n      dup6\n      jump\t// out\n    tag_61:\n      mload(0x40)\n      dup1\n      0xa0\n      add\n      0x40\n      mstore\n      dup1\n      0x00\n      dup2\n      mstore\n      0x20\n      add\n      and(0xffffffffffffffffffffffffffffffffffffffff, 0x00)\n      dup2\n      mstore\n      0x20\n      add\n      and(0xffffffffffffffffffffffffffffffffffffffff, 0x00)\n      dup2\n      mstore\n      0x20\n      add\n      and(0xffffffff, 0x00)\n      dup2\n      mstore\n      0x20\n      add\n      and(0xffffffff, 0x00)\n      dup2\n      mstore\n      pop\n      swap1\n      jump\t// out\n        /* \"#utility.yul\":7:84   */\n    tag_76:\n        /* \"#utility.yul\":44:51   */\n      0x00\n        /* \"#utility.yul\":73:78   */\n      dup2\n        /* \"#utility.yul\":62:78   */\n      swap1\n      pop\n        /* \"#utility.yul\":7:84   */\n      swap2\n      swap1\n      pop\n      jump\t// out\n        /* \"#utility.yul\":90:208   */\n    tag_77:\n        /* \"#utility.yul\":177:201   */\n      tag_107\n        /* \"#utility.yul\":195:200   */\n      dup2\n        /* \"#utility.yul\":177:201   */\n      tag_76\n      jump\t// in\n    tag_107:\n        /* \"#utility.yul\":172:175   */\n      dup3\n        /* \"#utility.yul\":165:202   */\n      mstore\n        /* \"#utility.yul\":90:208   */\n      pop\n      pop\n      jump\t// out\n        /* \"#utility.yul\":214:436   */\n    tag_14:\n        /* \"#utility.yul\":307:311   */\n      0x00\n        /* \"#utility.yul\":345:347   */\n      0x20\n        /* \"#utility.yul\":334:343   */\n      dup3\n        /* \"#utility.yul\":330:348   */\n      add\n        /* \"#utility.yul\":322:348   */\n      swap1\n      pop\n        /* \"#utility.yul\":358:429   */\n      tag_109\n        /* \"#utility.yul\":426:427   */\n      0x00\n        /* \"#utility.yul\":415:424   */\n      dup4\n        /* \"#utility.yul\":411:428   */\n      add\n        /* \"#utility.yul\":402:408   */\n      dup5\n        /* \"#utility.yul\":358:429   */\n      tag_77\n      jump\t// in\n    tag_109:\n        /* \"#utility.yul\":214:436   */\n      swap3\n      swap2\n      pop\n      pop\n      jump\t// out\n        /* \"#utility.yul\":523:640   */\n    tag_79:\n        /* \"#utility.yul\":632:633   */\n      0x00\n        /* \"#utility.yul\":629:630   */\n      dup1\n        /* \"#utility.yul\":622:634   */\n      revert\n        /* \"#utility.yul\":769:891   */\n    tag_81:\n        /* \"#utility.yul\":842:866   */\n      tag_114\n        /* \"#utility.yul\":860:865   */\n      dup2\n        /* \"#utility.yul\":842:866   */\n      tag_76\n      jump\t// in\n    tag_114:\n        /* \"#utility.yul\":835:840   */\n      dup2\n        /* \"#utility.yul\":832:867   */\n      eq\n        /* \"#utility.yul\":822:885   */\n      tag_115\n      jumpi\n        /* \"#utility.yul\":881:882   */\n      0x00\n        /* \"#utility.yul\":878:879   */\n      dup1\n        /* \"#utility.yul\":871:883   */\n      revert\n        /* \"#utility.yul\":822:885   */\n    tag_115:\n        /* \"#utility.yul\":769:891   */\n      pop\n      jump\t// out\n        /* \"#utility.yul\":897:1036   */\n    tag_82:\n        /* \"#utility.yul\":943:948   */\n      0x00\n        /* \"#utility.yul\":981:987   */\n      dup2\n        /* \"#utility.yul\":968:988   */\n      calldataload\n        /* \"#utility.yul\":959:988   */\n      swap1\n      pop\n        /* \"#utility.yul\":997:1030   */\n      tag_117\n        /* \"#utility.yul\":1024:1029   */\n      dup2\n        /* \"#utility.yul\":997:1030   */\n      tag_81\n      jump\t// in\n    tag_117:\n        /* \"#utility.yul\":897:1036   */\n      swap3\n      swap2\n      pop\n      pop\n      jump\t// out\n        /* \"#utility.yul\":1042:1168   */\n    tag_83:\n        /* \"#utility.yul\":1079:1086   */\n      0x00\n        /* \"#utility.yul\":1119:1161   */\n      0xffffffffffffffffffffffffffffffffffffffff\n        /* \"#utility.yul\":1112:1117   */\n      dup3\n        /* \"#utility.yul\":1108:1162   */\n      and\n        /* \"#utility.yul\":1097:1162   */\n      swap1\n      pop\n        /* \"#utility.yul\":1042:1168   */\n      swap2\n      swap1\n      pop\n      jump\t// out\n        /* \"#utility.yul\":1174:1270   */\n    tag_84:\n        /* \"#utility.yul\":1211:1218   */\n      0x00\n        /* \"#utility.yul\":1240:1264   */\n      tag_120\n        /* \"#utility.yul\":1258:1263   */\n      dup3\n        /* \"#utility.yul\":1240:1264   */\n      tag_83\n      jump\t// in\n    tag_120:\n        /* \"#utility.yul\":1229:1264   */\n      swap1\n      pop\n        /* \"#utility.yul\":1174:1270   */\n      swap2\n      swap1\n      pop\n      jump\t// out\n        /* \"#utility.yul\":1276:1398   */\n    tag_85:\n        /* \"#utility.yul\":1349:1373   */\n      tag_122\n        /* \"#utility.yul\":1367:1372   */\n      dup2\n        /* \"#utility.yul\":1349:1373   */\n      tag_84\n      jump\t// in\n    tag_122:\n        /* \"#utility.yul\":1342:1347   */\n      dup2\n        /* \"#utility.yul\":1339:1374   */\n      eq\n        /* \"#utility.yul\":1329:1392   */\n      tag_123\n      jumpi\n        /* \"#utility.yul\":1388:1389   */\n      0x00\n        /* \"#utility.yul\":1385:1386   */\n      dup1\n        /* \"#utility.yul\":1378:1390   */\n      revert\n        /* \"#utility.yul\":1329:1392   */\n    tag_123:\n        /* \"#utility.yul\":1276:1398   */\n      pop\n      jump\t// out\n        /* \"#utility.yul\":1404:1543   */\n    tag_86:\n        /* \"#utility.yul\":1450:1455   */\n      0x00\n        /* \"#utility.yul\":1488:1494   */\n      dup2\n        /* \"#utility.yul\":1475:1495   */\n      calldataload\n        /* \"#utility.yul\":1466:1495   */\n      swap1\n      pop\n        /* \"#utility.yul\":1504:1537   */\n      tag_125\n        /* \"#utility.yul\":1531:1536   */\n      dup2\n        /* \"#utility.yul\":1504:1537   */\n      tag_85\n      jump\t// in\n    tag_125:\n        /* \"#utility.yul\":1404:1543   */\n      swap3\n      swap2\n      pop\n      pop\n      jump\t// out\n        /* \"#utility.yul\":1549:1642   */\n    tag_87:\n        /* \"#utility.yul\":1585:1592   */\n      0x00\n        /* \"#utility.yul\":1625:1635   */\n      0xffffffff\n        /* \"#utility.yul\":1618:1623   */\n      dup3\n        /* \"#utility.yul\":1614:1636   */\n      and\n        /* \"#utility.yul\":1603:1636   */\n      swap1\n      pop\n        /* \"#utility.yul\":1549:1642   */\n      swap2\n      swap1\n      pop\n      jump\t// out\n        /* \"#utility.yul\":1648:1768   */\n    tag_88:\n        /* \"#utility.yul\":1720:1743   */\n      tag_128\n        /* \"#utility.yul\":1737:1742   */\n      dup2\n        /* \"#utility.yul\":1720:1743   */\n      tag_87\n      jump\t// in\n    tag_128:\n        /* \"#utility.yul\":1713:1718   */\n      dup2\n        /* \"#utility.yul\":1710:1744   */\n      eq\n        /* \"#utility.yul\":1700:1762   */\n      tag_129\n      jumpi\n        /* \"#utility.yul\":1758:1759   */\n      0x00\n        /* \"#utility.yul\":1755:1756   */\n      dup1\n        /* \"#utility.yul\":1748:1760   */\n      revert\n        /* \"#utility.yul\":1700:1762   */\n    tag_129:\n        /* \"#utility.yul\":1648:1768   */\n      pop\n      jump\t// out\n        /* \"#utility.yul\":1774:1911   */\n    tag_89:\n        /* \"#utility.yul\":1819:1824   */\n      0x00\n        /* \"#utility.yul\":1857:1863   */\n      dup2\n        /* \"#utility.yul\":1844:1864   */\n      calldataload\n        /* \"#utility.yul\":1835:1864   */\n      swap1\n      pop\n        /* \"#utility.yul\":1873:1905   */\n      tag_131\n        /* \"#utility.yul\":1899:1904   */\n      dup2\n        /* \"#utility.yul\":1873:1905   */\n      tag_88\n      jump\t// in\n    tag_131:\n        /* \"#utility.yul\":1774:1911   */\n      swap3\n      swap2\n      pop\n      pop\n      jump\t// out\n        /* \"#utility.yul\":1917:2824   */\n    tag_17:\n        /* \"#utility.yul\":2010:2016   */\n      0x00\n        /* \"#utility.yul\":2018:2024   */\n      dup1\n        /* \"#utility.yul\":2026:2032   */\n      0x00\n        /* \"#utility.yul\":2034:2040   */\n      dup1\n        /* \"#utility.yul\":2042:2048   */\n      0x00\n        /* \"#utility.yul\":2091:2094   */\n      0xa0\n        /* \"#utility.yul\":2079:2088   */\n      dup7\n        /* \"#utility.yul\":2070:2077   */\n      dup9\n        /* \"#utility.yul\":2066:2089   */\n      sub\n        /* \"#utility.yul\":2062:2095   */\n      slt\n        /* \"#utility.yul\":2059:2179   */\n      iszero\n      tag_133\n      jumpi\n        /* \"#utility.yul\":2098:2177   */\n      tag_134\n      tag_79\n      jump\t// in\n    tag_134:\n        /* \"#utility.yul\":2059:2179   */\n    tag_133:\n        /* \"#utility.yul\":2218:2219   */\n      0x00\n        /* \"#utility.yul\":2243:2296   */\n      tag_135\n        /* \"#utility.yul\":2288:2295   */\n      dup9\n        /* \"#utility.yul\":2279:2285   */\n      dup3\n        /* \"#utility.yul\":2268:2277   */\n      dup10\n        /* \"#utility.yul\":2264:2286   */\n      add\n        /* \"#utility.yul\":2243:2296   */\n      tag_82\n      jump\t// in\n    tag_135:\n        /* \"#utility.yul\":2233:2296   */\n      swap6\n      pop\n        /* \"#utility.yul\":2189:2306   */\n      pop\n        /* \"#utility.yul\":2345:2347   */\n      0x20\n        /* \"#utility.yul\":2371:2424   */\n      tag_136\n        /* \"#utility.yul\":2416:2423   */\n      dup9\n        /* \"#utility.yul\":2407:2413   */\n      dup3\n        /* \"#utility.yul\":2396:2405   */\n      dup10\n        /* \"#utility.yul\":2392:2414   */\n      add\n        /* \"#utility.yul\":2371:2424   */\n      tag_86\n      jump\t// in\n    tag_136:\n        /* \"#utility.yul\":2361:2424   */\n      swap5\n      pop\n        /* \"#utility.yul\":2316:2434   */\n      pop\n        /* \"#utility.yul\":2473:2475   */\n      0x40\n        /* \"#utility.yul\":2499:2552   */\n      tag_137\n        /* \"#utility.yul\":2544:2551   */\n      dup9\n        /* \"#utility.yul\":2535:2541   */\n      dup3\n        /* \"#utility.yul\":2524:2533   */\n      dup10\n        /* \"#utility.yul\":2520:2542   */\n      add\n        /* \"#utility.yul\":2499:2552   */\n      tag_86\n      jump\t// in\n    tag_137:\n        /* \"#utility.yul\":2489:2552   */\n      swap4\n      pop\n        /* \"#utility.yul\":2444:2562   */\n      pop\n        /* \"#utility.yul\":2601:2603   */\n      0x60\n        /* \"#utility.yul\":2627:2679   */\n      tag_138\n        /* \"#utility.yul\":2671:2678   */\n      dup9\n        /* \"#utility.yul\":2662:2668   */\n      dup3\n        /* \"#utility.yul\":2651:2660   */\n      dup10\n        /* \"#utility.yul\":2647:2669   */\n      add\n        /* \"#utility.yul\":2627:2679   */\n      tag_89\n      jump\t// in\n    tag_138:\n        /* \"#utility.yul\":2617:2679   */\n      swap3\n      pop\n        /* \"#utility.yul\":2572:2689   */\n      pop\n        /* \"#utility.yul\":2728:2731   */\n      0x80\n        /* \"#utility.yul\":2755:2807   */\n      tag_139\n        /* \"#utility.yul\":2799:2806   */\n      dup9\n        /* \"#utility.yul\":2790:2796   */\n      dup3\n        /* \"#utility.yul\":2779:2788   */\n      dup10\n        /* \"#utility.yul\":2775:2797   */\n      add\n        /* \"#utility.yul\":2755:2807   */\n      tag_89\n      jump\t// in\n    tag_139:\n        /* \"#utility.yul\":2745:2807   */\n      swap2\n      pop\n        /* \"#utility.yul\":2699:2817   */\n      pop\n        /* \"#utility.yul\":1917:2824   */\n      swap3\n      swap6\n      pop\n      swap3\n      swap6\n      swap1\n      swap4\n      pop\n      jump\t// out\n        /* \"#utility.yul\":2830:3159   */\n    tag_21:\n        /* \"#utility.yul\":2889:2895   */\n      0x00\n        /* \"#utility.yul\":2938:2940   */\n      0x20\n        /* \"#utility.yul\":2926:2935   */\n      dup3\n        /* \"#utility.yul\":2917:2924   */\n      dup5\n        /* \"#utility.yul\":2913:2936   */\n      sub\n        /* \"#utility.yul\":2909:2941   */\n      slt\n        /* \"#utility.yul\":2906:3025   */\n      iszero\n      tag_141\n      jumpi\n        /* \"#utility.yul\":2944:3023   */\n      tag_142\n      tag_79\n      jump\t// in\n    tag_142:\n        /* \"#utility.yul\":2906:3025   */\n    tag_141:\n        /* \"#utility.yul\":3064:3065   */\n      0x00\n        /* \"#utility.yul\":3089:3142   */\n      tag_143\n        /* \"#utility.yul\":3134:3141   */\n      dup5\n        /* \"#utility.yul\":3125:3131   */\n      dup3\n        /* \"#utility.yul\":3114:3123   */\n      dup6\n        /* \"#utility.yul\":3110:3132   */\n      add\n        /* \"#utility.yul\":3089:3142   */\n      tag_86\n      jump\t// in\n    tag_143:\n        /* \"#utility.yul\":3079:3142   */\n      swap2\n      pop\n        /* \"#utility.yul\":3035:3152   */\n      pop\n        /* \"#utility.yul\":2830:3159   */\n      swap3\n      swap2\n      pop\n      pop\n      jump\t// out\n        /* \"#utility.yul\":3165:3315   */\n    tag_90:\n        /* \"#utility.yul\":3268:3274   */\n      0x00\n        /* \"#utility.yul\":3302:3307   */\n      dup2\n        /* \"#utility.yul\":3296:3308   */\n      mload\n        /* \"#utility.yul\":3286:3308   */\n      swap1\n      pop\n        /* \"#utility.yul\":3165:3315   */\n      swap2\n      swap1\n      pop\n      jump\t// out\n        /* \"#utility.yul\":3321:3541   */\n    tag_91:\n        /* \"#utility.yul\":3456:3467   */\n      0x00\n        /* \"#utility.yul\":3490:3496   */\n      dup3\n        /* \"#utility.yul\":3485:3488   */\n      dup3\n        /* \"#utility.yul\":3478:3497   */\n      mstore\n        /* \"#utility.yul\":3530:3534   */\n      0x20\n        /* \"#utility.yul\":3525:3528   */\n      dup3\n        /* \"#utility.yul\":3521:3535   */\n      add\n        /* \"#utility.yul\":3506:3535   */\n      swap1\n      pop\n        /* \"#utility.yul\":3321:3541   */\n      swap3\n      swap2\n      pop\n      pop\n      jump\t// out\n        /* \"#utility.yul\":3547:3715   */\n    tag_92:\n        /* \"#utility.yul\":3650:3654   */\n      0x00\n        /* \"#utility.yul\":3673:3676   */\n      dup2\n        /* \"#utility.yul\":3665:3676   */\n      swap1\n      pop\n        /* \"#utility.yul\":3703:3707   */\n      0x20\n        /* \"#utility.yul\":3698:3701   */\n      dup3\n        /* \"#utility.yul\":3694:3708   */\n      add\n        /* \"#utility.yul\":3686:3708   */\n      swap1\n      pop\n        /* \"#utility.yul\":3547:3715   */\n      swap2\n      swap1\n      pop\n      jump\t// out\n        /* \"#utility.yul\":3721:3829   */\n    tag_93:\n        /* \"#utility.yul\":3798:3822   */\n      tag_148\n        /* \"#utility.yul\":3816:3821   */\n      dup2\n        /* \"#utility.yul\":3798:3822   */\n      tag_76\n      jump\t// in\n    tag_148:\n        /* \"#utility.yul\":3793:3796   */\n      dup3\n        /* \"#utility.yul\":3786:3823   */\n      mstore\n        /* \"#utility.yul\":3721:3829   */\n      pop\n      pop\n      jump\t// out\n        /* \"#utility.yul\":3835:3943   */\n    tag_94:\n        /* \"#utility.yul\":3912:3936   */\n      tag_150\n        /* \"#utility.yul\":3930:3935   */\n      dup2\n        /* \"#utility.yul\":3912:3936   */\n      tag_84\n      jump\t// in\n    tag_150:\n        /* \"#utility.yul\":3907:3910   */\n      dup3\n        /* \"#utility.yul\":3900:3937   */\n      mstore\n        /* \"#utility.yul\":3835:3943   */\n      pop\n      pop\n      jump\t// out\n        /* \"#utility.yul\":3949:4054   */\n    tag_95:\n        /* \"#utility.yul\":4024:4047   */\n      tag_152\n        /* \"#utility.yul\":4041:4046   */\n      dup2\n        /* \"#utility.yul\":4024:4047   */\n      tag_87\n      jump\t// in\n    tag_152:\n        /* \"#utility.yul\":4019:4022   */\n      dup3\n        /* \"#utility.yul\":4012:4048   */\n      mstore\n        /* \"#utility.yul\":3949:4054   */\n      pop\n      pop\n      jump\t// out\n        /* \"#utility.yul\":4170:5248   */\n    tag_96:\n        /* \"#utility.yul\":4329:4333   */\n      0xa0\n        /* \"#utility.yul\":4324:4327   */\n      dup3\n        /* \"#utility.yul\":4320:4334   */\n      add\n        /* \"#utility.yul\":4416:4420   */\n      0x00\n        /* \"#utility.yul\":4409:4414   */\n      dup3\n        /* \"#utility.yul\":4405:4421   */\n      add\n        /* \"#utility.yul\":4399:4422   */\n      mload\n        /* \"#utility.yul\":4435:4498   */\n      tag_154\n        /* \"#utility.yul\":4492:4496   */\n      0x00\n        /* \"#utility.yul\":4487:4490   */\n      dup6\n        /* \"#utility.yul\":4483:4497   */\n      add\n        /* \"#utility.yul\":4469:4481   */\n      dup3\n        /* \"#utility.yul\":4435:4498   */\n      tag_93\n      jump\t// in\n    tag_154:\n        /* \"#utility.yul\":4344:4508   */\n      pop\n        /* \"#utility.yul\":4601:4605   */\n      0x20\n        /* \"#utility.yul\":4594:4599   */\n      dup3\n        /* \"#utility.yul\":4590:4606   */\n      add\n        /* \"#utility.yul\":4584:4607   */\n      mload\n        /* \"#utility.yul\":4620:4683   */\n      tag_155\n        /* \"#utility.yul\":4677:4681   */\n      0x20\n        /* \"#utility.yul\":4672:4675   */\n      dup6\n        /* \"#utility.yul\":4668:4682   */\n      add\n        /* \"#utility.yul\":4654:4666   */\n      dup3\n        /* \"#utility.yul\":4620:4683   */\n      tag_94\n      jump\t// in\n    tag_155:\n        /* \"#utility.yul\":4518:4693   */\n      pop\n        /* \"#utility.yul\":4790:4794   */\n      0x40\n        /* \"#utility.yul\":4783:4788   */\n      dup3\n        /* \"#utility.yul\":4779:4795   */\n      add\n        /* \"#utility.yul\":4773:4796   */\n      mload\n        /* \"#utility.yul\":4809:4872   */\n      tag_156\n        /* \"#utility.yul\":4866:4870   */\n      0x40\n        /* \"#utility.yul\":4861:4864   */\n      dup6\n        /* \"#utility.yul\":4857:4871   */\n      add\n        /* \"#utility.yul\":4843:4855   */\n      dup3\n        /* \"#utility.yul\":4809:4872   */\n      tag_94\n      jump\t// in\n    tag_156:\n        /* \"#utility.yul\":4703:4882   */\n      pop\n        /* \"#utility.yul\":4972:4976   */\n      0x60\n        /* \"#utility.yul\":4965:4970   */\n      dup3\n        /* \"#utility.yul\":4961:4977   */\n      add\n        /* \"#utility.yul\":4955:4978   */\n      mload\n        /* \"#utility.yul\":4991:5052   */\n      tag_157\n        /* \"#utility.yul\":5046:5050   */\n      0x60\n        /* \"#utility.yul\":5041:5044   */\n      dup6\n        /* \"#utility.yul\":5037:5051   */\n      add\n        /* \"#utility.yul\":5023:5035   */\n      dup3\n        /* \"#utility.yul\":4991:5052   */\n      tag_95\n      jump\t// in\n    tag_157:\n        /* \"#utility.yul\":4892:5062   */\n      pop\n        /* \"#utility.yul\":5151:5155   */\n      0x80\n        /* \"#utility.yul\":5144:5149   */\n      dup3\n        /* \"#utility.yul\":5140:5156   */\n      add\n        /* \"#utility.yul\":5134:5157   */\n      mload\n        /* \"#utility.yul\":5170:5231   */\n      tag_158\n        /* \"#utility.yul\":5225:5229   */\n      0x80\n        /* \"#utility.yul\":5220:5223   */\n      dup6\n        /* \"#utility.yul\":5216:5230   */\n      add\n        /* \"#utility.yul\":5202:5214   */\n      dup3\n        /* \"#utility.yul\":5170:5231   */\n      tag_95\n      jump\t// in\n    tag_158:\n        /* \"#utility.yul\":5072:5241   */\n      pop\n        /* \"#utility.yul\":4298:5248   */\n      pop\n        /* \"#utility.yul\":4170:5248   */\n      pop\n      pop\n      jump\t// out\n        /* \"#utility.yul\":5254:5577   */\n    tag_97:\n        /* \"#utility.yul\":5395:5405   */\n      0x00\n        /* \"#utility.yul\":5416:5534   */\n      tag_160\n        /* \"#utility.yul\":5530:5533   */\n      dup4\n        /* \"#utility.yul\":5522:5528   */\n      dup4\n        /* \"#utility.yul\":5416:5534   */\n      tag_96\n      jump\t// in\n    tag_160:\n        /* \"#utility.yul\":5566:5570   */\n      0xa0\n        /* \"#utility.yul\":5561:5564   */\n      dup4\n        /* \"#utility.yul\":5557:5571   */\n      add\n        /* \"#utility.yul\":5543:5571   */\n      swap1\n      pop\n        /* \"#utility.yul\":5254:5577   */\n      swap3\n      swap2\n      pop\n      pop\n      jump\t// out\n        /* \"#utility.yul\":5583:5732   */\n    tag_98:\n        /* \"#utility.yul\":5689:5693   */\n      0x00\n        /* \"#utility.yul\":5721:5725   */\n      0x20\n        /* \"#utility.yul\":5716:5719   */\n      dup3\n        /* \"#utility.yul\":5712:5726   */\n      add\n        /* \"#utility.yul\":5704:5726   */\n      swap1\n      pop\n        /* \"#utility.yul\":5583:5732   */\n      swap2\n      swap1\n      pop\n      jump\t// out\n        /* \"#utility.yul\":5852:6872   */\n    tag_99:\n        /* \"#utility.yul\":6043:6046   */\n      0x00\n        /* \"#utility.yul\":6072:6162   */\n      tag_163\n        /* \"#utility.yul\":6156:6161   */\n      dup3\n        /* \"#utility.yul\":6072:6162   */\n      tag_90\n      jump\t// in\n    tag_163:\n        /* \"#utility.yul\":6178:6300   */\n      tag_164\n        /* \"#utility.yul\":6293:6299   */\n      dup2\n        /* \"#utility.yul\":6288:6291   */\n      dup6\n        /* \"#utility.yul\":6178:6300   */\n      tag_91\n      jump\t// in\n    tag_164:\n        /* \"#utility.yul\":6171:6300   */\n      swap4\n      pop\n        /* \"#utility.yul\":6324:6416   */\n      tag_165\n        /* \"#utility.yul\":6410:6415   */\n      dup4\n        /* \"#utility.yul\":6324:6416   */\n      tag_92\n      jump\t// in\n    tag_165:\n        /* \"#utility.yul\":6439:6446   */\n      dup1\n        /* \"#utility.yul\":6470:6471   */\n      0x00\n        /* \"#utility.yul\":6455:6847   */\n    tag_166:\n        /* \"#utility.yul\":6480:6486   */\n      dup4\n        /* \"#utility.yul\":6477:6478   */\n      dup2\n        /* \"#utility.yul\":6474:6487   */\n      lt\n        /* \"#utility.yul\":6455:6847   */\n      iszero\n      tag_168\n      jumpi\n        /* \"#utility.yul\":6556:6562   */\n      dup2\n        /* \"#utility.yul\":6550:6563   */\n      mload\n        /* \"#utility.yul\":6583:6718   */\n      tag_169\n        /* \"#utility.yul\":6714:6717   */\n      dup9\n        /* \"#utility.yul\":6699:6712   */\n      dup3\n        /* \"#utility.yul\":6583:6718   */\n      tag_97\n      jump\t// in\n    tag_169:\n        /* \"#utility.yul\":6576:6718   */\n      swap8\n      pop\n        /* \"#utility.yul\":6741:6837   */\n      tag_170\n        /* \"#utility.yul\":6830:6836   */\n      dup4\n        /* \"#utility.yul\":6741:6837   */\n      tag_98\n      jump\t// in\n    tag_170:\n        /* \"#utility.yul\":6731:6837   */\n      swap3\n      pop\n        /* \"#utility.yul\":6515:6847   */\n      pop\n        /* \"#utility.yul\":6502:6503   */\n      0x01\n        /* \"#utility.yul\":6499:6500   */\n      dup2\n        /* \"#utility.yul\":6495:6504   */\n      add\n        /* \"#utility.yul\":6490:6504   */\n      swap1\n      pop\n        /* \"#utility.yul\":6455:6847   */\n      jump(tag_166)\n    tag_168:\n        /* \"#utility.yul\":6459:6473   */\n      pop\n        /* \"#utility.yul\":6863:6866   */\n      dup6\n        /* \"#utility.yul\":6856:6866   */\n      swap4\n      pop\n        /* \"#utility.yul\":6048:6872   */\n      pop\n      pop\n      pop\n        /* \"#utility.yul\":5852:6872   */\n      swap3\n      swap2\n      pop\n      pop\n      jump\t// out\n        /* \"#utility.yul\":6878:7395   */\n    tag_24:\n        /* \"#utility.yul\":7093:7097   */\n      0x00\n        /* \"#utility.yul\":7131:7133   */\n      0x20\n        /* \"#utility.yul\":7120:7129   */\n      dup3\n        /* \"#utility.yul\":7116:7134   */\n      add\n        /* \"#utility.yul\":7108:7134   */\n      swap1\n      pop\n        /* \"#utility.yul\":7180:7189   */\n      dup2\n        /* \"#utility.yul\":7174:7178   */\n      dup2\n        /* \"#utility.yul\":7170:7190   */\n      sub\n        /* \"#utility.yul\":7166:7167   */\n      0x00\n        /* \"#utility.yul\":7155:7164   */\n      dup4\n        /* \"#utility.yul\":7151:7168   */\n      add\n        /* \"#utility.yul\":7144:7191   */\n      mstore\n        /* \"#utility.yul\":7208:7388   */\n      tag_172\n        /* \"#utility.yul\":7383:7387   */\n      dup2\n        /* \"#utility.yul\":7374:7380   */\n      dup5\n        /* \"#utility.yul\":7208:7388   */\n      tag_99\n      jump\t// in\n    tag_172:\n        /* \"#utility.yul\":7200:7388   */\n      swap1\n      pop\n        /* \"#utility.yul\":6878:7395   */\n      swap3\n      swap2\n      pop\n      pop\n      jump\t// out\n        /* \"#utility.yul\":7401:7873   */\n    tag_27:\n        /* \"#utility.yul\":7468:7474   */\n      0x00\n        /* \"#utility.yul\":7476:7482   */\n      dup1\n        /* \"#utility.yul\":7525:7527   */\n      0x40\n        /* \"#utility.yul\":7513:7522   */\n      dup4\n        /* \"#utility.yul\":7504:7511   */\n      dup6\n        /* \"#utility.yul\":7500:7523   */\n      sub\n        /* \"#utility.yul\":7496:7528   */\n      slt\n        /* \"#utility.yul\":7493:7612   */\n      iszero\n      tag_174\n      jumpi\n        /* \"#utility.yul\":7531:7610   */\n      tag_175\n      tag_79\n      jump\t// in\n    tag_175:\n        /* \"#utility.yul\":7493:7612   */\n    tag_174:\n        /* \"#utility.yul\":7651:7652   */\n      0x00\n        /* \"#utility.yul\":7676:7729   */\n      tag_176\n        /* \"#utility.yul\":7721:7728   */\n      dup6\n        /* \"#utility.yul\":7712:7718   */\n      dup3\n        /* \"#utility.yul\":7701:7710   */\n      dup7\n        /* \"#utility.yul\":7697:7719   */\n      add\n        /* \"#utility.yul\":7676:7729   */\n      tag_82\n      jump\t// in\n    tag_176:\n        /* \"#utility.yul\":7666:7729   */\n      swap3\n      pop\n        /* \"#utility.yul\":7622:7739   */\n      pop\n        /* \"#utility.yul\":7778:7780   */\n      0x20\n        /* \"#utility.yul\":7804:7856   */\n      tag_177\n        /* \"#utility.yul\":7848:7855   */\n      dup6\n        /* \"#utility.yul\":7839:7845   */\n      dup3\n        /* \"#utility.yul\":7828:7837   */\n      dup7\n        /* \"#utility.yul\":7824:7846   */\n      add\n        /* \"#utility.yul\":7804:7856   */\n      tag_89\n      jump\t// in\n    tag_177:\n        /* \"#utility.yul\":7794:7856   */\n      swap2\n      pop\n        /* \"#utility.yul\":7749:7866   */\n      pop\n        /* \"#utility.yul\":7401:7873   */\n      swap3\n      pop\n      swap3\n      swap1\n      pop\n      jump\t// out\n        /* \"#utility.yul\":7879:8353   */\n    tag_31:\n        /* \"#utility.yul\":7947:7953   */\n      0x00\n        /* \"#utility.yul\":7955:7961   */\n      dup1\n        /* \"#utility.yul\":8004:8006   */\n      0x40\n        /* \"#utility.yul\":7992:8001   */\n      dup4\n        /* \"#utility.yul\":7983:7990   */\n      dup6\n        /* \"#utility.yul\":7979:8002   */\n      sub\n        /* \"#utility.yul\":7975:8007   */\n      slt\n        /* \"#utility.yul\":7972:8091   */\n      iszero\n      tag_179\n      jumpi\n        /* \"#utility.yul\":8010:8089   */\n      tag_180\n      tag_79\n      jump\t// in\n    tag_180:\n        /* \"#utility.yul\":7972:8091   */\n    tag_179:\n        /* \"#utility.yul\":8130:8131   */\n      0x00\n        /* \"#utility.yul\":8155:8208   */\n      tag_181\n        /* \"#utility.yul\":8200:8207   */\n      dup6\n        /* \"#utility.yul\":8191:8197   */\n      dup3\n        /* \"#utility.yul\":8180:8189   */\n      dup7\n        /* \"#utility.yul\":8176:8198   */\n      add\n        /* \"#utility.yul\":8155:8208   */\n      tag_86\n      jump\t// in\n    tag_181:\n        /* \"#utility.yul\":8145:8208   */\n      swap3\n      pop\n        /* \"#utility.yul\":8101:8218   */\n      pop\n        /* \"#utility.yul\":8257:8259   */\n      0x20\n        /* \"#utility.yul\":8283:8336   */\n      tag_182\n        /* \"#utility.yul\":8328:8335   */\n      dup6\n        /* \"#utility.yul\":8319:8325   */\n      dup3\n        /* \"#utility.yul\":8308:8317   */\n      dup7\n        /* \"#utility.yul\":8304:8326   */\n      add\n        /* \"#utility.yul\":8283:8336   */\n      tag_82\n      jump\t// in\n    tag_182:\n        /* \"#utility.yul\":8273:8336   */\n      swap2\n      pop\n        /* \"#utility.yul\":8228:8346   */\n      pop\n        /* \"#utility.yul\":7879:8353   */\n      swap3\n      pop\n      swap3\n      swap1\n      pop\n      jump\t// out\n        /* \"#utility.yul\":8359:8688   */\n    tag_36:\n        /* \"#utility.yul\":8418:8424   */\n      0x00\n        /* \"#utility.yul\":8467:8469   */\n      0x20\n        /* \"#utility.yul\":8455:8464   */\n      dup3\n        /* \"#utility.yul\":8446:8453   */\n      dup5\n        /* \"#utility.yul\":8442:8465   */\n      sub\n        /* \"#utility.yul\":8438:8470   */\n      slt\n        /* \"#utility.yul\":8435:8554   */\n      iszero\n      tag_184\n      jumpi\n        /* \"#utility.yul\":8473:8552   */\n      tag_185\n      tag_79\n      jump\t// in\n    tag_185:\n        /* \"#utility.yul\":8435:8554   */\n    tag_184:\n        /* \"#utility.yul\":8593:8594   */\n      0x00\n        /* \"#utility.yul\":8618:8671   */\n      tag_186\n        /* \"#utility.yul\":8663:8670   */\n      dup5\n        /* \"#utility.yul\":8654:8660   */\n      dup3\n        /* \"#utility.yul\":8643:8652   */\n      dup6\n        /* \"#utility.yul\":8639:8661   */\n      add\n        /* \"#utility.yul\":8618:8671   */\n      tag_82\n      jump\t// in\n    tag_186:\n        /* \"#utility.yul\":8608:8671   */\n      swap2\n      pop\n        /* \"#utility.yul\":8564:8681   */\n      pop\n        /* \"#utility.yul\":8359:8688   */\n      swap3\n      swap2\n      pop\n      pop\n      jump\t// out\n        /* \"#utility.yul\":8804:9892   */\n    tag_100:\n        /* \"#utility.yul\":8973:8977   */\n      0xa0\n        /* \"#utility.yul\":8968:8971   */\n      dup3\n        /* \"#utility.yul\":8964:8978   */\n      add\n        /* \"#utility.yul\":9060:9064   */\n      0x00\n        /* \"#utility.yul\":9053:9058   */\n      dup3\n        /* \"#utility.yul\":9049:9065   */\n      add\n        /* \"#utility.yul\":9043:9066   */\n      mload\n        /* \"#utility.yul\":9079:9142   */\n      tag_188\n        /* \"#utility.yul\":9136:9140   */\n      0x00\n        /* \"#utility.yul\":9131:9134   */\n      dup6\n        /* \"#utility.yul\":9127:9141   */\n      add\n        /* \"#utility.yul\":9113:9125   */\n      dup3\n        /* \"#utility.yul\":9079:9142   */\n      tag_93\n      jump\t// in\n    tag_188:\n        /* \"#utility.yul\":8988:9152   */\n      pop\n        /* \"#utility.yul\":9245:9249   */\n      0x20\n        /* \"#utility.yul\":9238:9243   */\n      dup3\n        /* \"#utility.yul\":9234:9250   */\n      add\n        /* \"#utility.yul\":9228:9251   */\n      mload\n        /* \"#utility.yul\":9264:9327   */\n      tag_189\n        /* \"#utility.yul\":9321:9325   */\n      0x20\n        /* \"#utility.yul\":9316:9319   */\n      dup6\n        /* \"#utility.yul\":9312:9326   */\n      add\n        /* \"#utility.yul\":9298:9310   */\n      dup3\n        /* \"#utility.yul\":9264:9327   */\n      tag_94\n      jump\t// in\n    tag_189:\n        /* \"#utility.yul\":9162:9337   */\n      pop\n        /* \"#utility.yul\":9434:9438   */\n      0x40\n        /* \"#utility.yul\":9427:9432   */\n      dup3\n        /* \"#utility.yul\":9423:9439   */\n      add\n        /* \"#utility.yul\":9417:9440   */\n      mload\n        /* \"#utility.yul\":9453:9516   */\n      tag_190\n        /* \"#utility.yul\":9510:9514   */\n      0x40\n        /* \"#utility.yul\":9505:9508   */\n      dup6\n        /* \"#utility.yul\":9501:9515   */\n      add\n        /* \"#utility.yul\":9487:9499   */\n      dup3\n        /* \"#utility.yul\":9453:9516   */\n      tag_94\n      jump\t// in\n    tag_190:\n        /* \"#utility.yul\":9347:9526   */\n      pop\n        /* \"#utility.yul\":9616:9620   */\n      0x60\n        /* \"#utility.yul\":9609:9614   */\n      dup3\n        /* \"#utility.yul\":9605:9621   */\n      add\n        /* \"#utility.yul\":9599:9622   */\n      mload\n        /* \"#utility.yul\":9635:9696   */\n      tag_191\n        /* \"#utility.yul\":9690:9694   */\n      0x60\n        /* \"#utility.yul\":9685:9688   */\n      dup6\n        /* \"#utility.yul\":9681:9695   */\n      add\n        /* \"#utility.yul\":9667:9679   */\n      dup3\n        /* \"#utility.yul\":9635:9696   */\n      tag_95\n      jump\t// in\n    tag_191:\n        /* \"#utility.yul\":9536:9706   */\n      pop\n        /* \"#utility.yul\":9795:9799   */\n      0x80\n        /* \"#utility.yul\":9788:9793   */\n      dup3\n        /* \"#utility.yul\":9784:9800   */\n      add\n        /* \"#utility.yul\":9778:9801   */\n      mload\n        /* \"#utility.yul\":9814:9875   */\n      tag_192\n        /* \"#utility.yul\":9869:9873   */\n      0x80\n        /* \"#utility.yul\":9864:9867   */\n      dup6\n        /* \"#utility.yul\":9860:9874   */\n      add\n        /* \"#utility.yul\":9846:9858   */\n      dup3\n        /* \"#utility.yul\":9814:9875   */\n      tag_95\n      jump\t// in\n    tag_192:\n        /* \"#utility.yul\":9716:9885   */\n      pop\n        /* \"#utility.yul\":8942:9892   */\n      pop\n        /* \"#utility.yul\":8804:9892   */\n      pop\n      pop\n      jump\t// out\n        /* \"#utility.yul\":9898:10265   */\n    tag_39:\n        /* \"#utility.yul\":10063:10067   */\n      0x00\n        /* \"#utility.yul\":10101:10104   */\n      0xa0\n        /* \"#utility.yul\":10090:10099   */\n      dup3\n        /* \"#utility.yul\":10086:10105   */\n      add\n        /* \"#utility.yul\":10078:10105   */\n      swap1\n      pop\n        /* \"#utility.yul\":10115:10258   */\n      tag_194\n        /* \"#utility.yul\":10255:10256   */\n      0x00\n        /* \"#utility.yul\":10244:10253   */\n      dup4\n        /* \"#utility.yul\":10240:10257   */\n      add\n        /* \"#utility.yul\":10231:10237   */\n      dup5\n        /* \"#utility.yul\":10115:10258   */\n      tag_100\n      jump\t// in\n    tag_194:\n        /* \"#utility.yul\":9898:10265   */\n      swap3\n      swap2\n      pop\n      pop\n      jump\t// out\n        /* \"#utility.yul\":10271:10389   */\n    tag_101:\n        /* \"#utility.yul\":10358:10382   */\n      tag_196\n        /* \"#utility.yul\":10376:10381   */\n      dup2\n        /* \"#utility.yul\":10358:10382   */\n      tag_84\n      jump\t// in\n    tag_196:\n        /* \"#utility.yul\":10353:10356   */\n      dup3\n        /* \"#utility.yul\":10346:10383   */\n      mstore\n        /* \"#utility.yul\":10271:10389   */\n      pop\n      pop\n      jump\t// out\n        /* \"#utility.yul\":10395:10510   */\n    tag_102:\n        /* \"#utility.yul\":10480:10503   */\n      tag_198\n        /* \"#utility.yul\":10497:10502   */\n      dup2\n        /* \"#utility.yul\":10480:10503   */\n      tag_87\n      jump\t// in\n    tag_198:\n        /* \"#utility.yul\":10475:10478   */\n      dup3\n        /* \"#utility.yul\":10468:10504   */\n      mstore\n        /* \"#utility.yul\":10395:10510   */\n      pop\n      pop\n      jump\t// out\n        /* \"#utility.yul\":10516:11172   */\n    tag_44:\n        /* \"#utility.yul\":10717:10721   */\n      0x00\n        /* \"#utility.yul\":10755:10758   */\n      0xa0\n        /* \"#utility.yul\":10744:10753   */\n      dup3\n        /* \"#utility.yul\":10740:10759   */\n      add\n        /* \"#utility.yul\":10732:10759   */\n      swap1\n      pop\n        /* \"#utility.yul\":10769:10840   */\n      tag_200\n        /* \"#utility.yul\":10837:10838   */\n      0x00\n        /* \"#utility.yul\":10826:10835   */\n      dup4\n        /* \"#utility.yul\":10822:10839   */\n      add\n        /* \"#utility.yul\":10813:10819   */\n      dup9\n        /* \"#utility.yul\":10769:10840   */\n      tag_77\n      jump\t// in\n    tag_200:\n        /* \"#utility.yul\":10850:10922   */\n      tag_201\n        /* \"#utility.yul\":10918:10920   */\n      0x20\n        /* \"#utility.yul\":10907:10916   */\n      dup4\n        /* \"#utility.yul\":10903:10921   */\n      add\n        /* \"#utility.yul\":10894:10900   */\n      dup8\n        /* \"#utility.yul\":10850:10922   */\n      tag_101\n      jump\t// in\n    tag_201:\n        /* \"#utility.yul\":10932:11004   */\n      tag_202\n        /* \"#utility.yul\":11000:11002   */\n      0x40\n        /* \"#utility.yul\":10989:10998   */\n      dup4\n        /* \"#utility.yul\":10985:11003   */\n      add\n        /* \"#utility.yul\":10976:10982   */\n      dup7\n        /* \"#utility.yul\":10932:11004   */\n      tag_101\n      jump\t// in\n    tag_202:\n        /* \"#utility.yul\":11014:11084   */\n      tag_203\n        /* \"#utility.yul\":11080:11082   */\n      0x60\n        /* \"#utility.yul\":11069:11078   */\n      dup4\n        /* \"#utility.yul\":11065:11083   */\n      add\n        /* \"#utility.yul\":11056:11062   */\n      dup6\n        /* \"#utility.yul\":11014:11084   */\n      tag_102\n      jump\t// in\n    tag_203:\n        /* \"#utility.yul\":11094:11165   */\n      tag_204\n        /* \"#utility.yul\":11160:11163   */\n      0x80\n        /* \"#utility.yul\":11149:11158   */\n      dup4\n        /* \"#utility.yul\":11145:11164   */\n      add\n        /* \"#utility.yul\":11136:11142   */\n      dup5\n        /* \"#utility.yul\":11094:11165   */\n      tag_102\n      jump\t// in\n    tag_204:\n        /* \"#utility.yul\":10516:11172   */\n      swap7\n      swap6\n      pop\n      pop\n      pop\n      pop\n      pop\n      pop\n      jump\t// out\n        /* \"#utility.yul\":11178:11723   */\n    tag_49:\n        /* \"#utility.yul\":11351:11355   */\n      0x00\n        /* \"#utility.yul\":11389:11392   */\n      0x80\n        /* \"#utility.yul\":11378:11387   */\n      dup3\n        /* \"#utility.yul\":11374:11393   */\n      add\n        /* \"#utility.yul\":11366:11393   */\n      swap1\n      pop\n        /* \"#utility.yul\":11403:11474   */\n      tag_206\n        /* \"#utility.yul\":11471:11472   */\n      0x00\n        /* \"#utility.yul\":11460:11469   */\n      dup4\n        /* \"#utility.yul\":11456:11473   */\n      add\n        /* \"#utility.yul\":11447:11453   */\n      dup8\n        /* \"#utility.yul\":11403:11474   */\n      tag_101\n      jump\t// in\n    tag_206:\n        /* \"#utility.yul\":11484:11556   */\n      tag_207\n        /* \"#utility.yul\":11552:11554   */\n      0x20\n        /* \"#utility.yul\":11541:11550   */\n      dup4\n        /* \"#utility.yul\":11537:11555   */\n      add\n        /* \"#utility.yul\":11528:11534   */\n      dup7\n        /* \"#utility.yul\":11484:11556   */\n      tag_101\n      jump\t// in\n    tag_207:\n        /* \"#utility.yul\":11566:11636   */\n      tag_208\n        /* \"#utility.yul\":11632:11634   */\n      0x40\n        /* \"#utility.yul\":11621:11630   */\n      dup4\n        /* \"#utility.yul\":11617:11635   */\n      add\n        /* \"#utility.yul\":11608:11614   */\n      dup6\n        /* \"#utility.yul\":11566:11636   */\n      tag_102\n      jump\t// in\n    tag_208:\n        /* \"#utility.yul\":11646:11716   */\n      tag_209\n        /* \"#utility.yul\":11712:11714   */\n      0x60\n        /* \"#utility.yul\":11701:11710   */\n      dup4\n        /* \"#utility.yul\":11697:11715   */\n      add\n        /* \"#utility.yul\":11688:11694   */\n      dup5\n        /* \"#utility.yul\":11646:11716   */\n      tag_102\n      jump\t// in\n    tag_209:\n        /* \"#utility.yul\":11178:11723   */\n      swap6\n      swap5\n      pop\n      pop\n      pop\n      pop\n      pop\n      jump\t// out\n        /* \"#utility.yul\":11729:11909   */\n    tag_103:\n        /* \"#utility.yul\":11777:11854   */\n      0x4e487b7100000000000000000000000000000000000000000000000000000000\n        /* \"#utility.yul\":11774:11775   */\n      0x00\n        /* \"#utility.yul\":11767:11855   */\n      mstore\n        /* \"#utility.yul\":11874:11878   */\n      0x11\n        /* \"#utility.yul\":11871:11872   */\n      0x04\n        /* \"#utility.yul\":11864:11879   */\n      mstore\n        /* \"#utility.yul\":11898:11902   */\n      0x24\n        /* \"#utility.yul\":11895:11896   */\n      0x00\n        /* \"#utility.yul\":11888:11903   */\n      revert\n        /* \"#utility.yul\":11915:12148   */\n    tag_51:\n        /* \"#utility.yul\":11954:11957   */\n      0x00\n        /* \"#utility.yul\":11977:12001   */\n      tag_212\n        /* \"#utility.yul\":11995:12000   */\n      dup3\n        /* \"#utility.yul\":11977:12001   */\n      tag_76\n      jump\t// in\n    tag_212:\n        /* \"#utility.yul\":11968:12001   */\n      swap2\n      pop\n        /* \"#utility.yul\":12023:12089   */\n      0xffffffffffffffffffffffffffffffffffffffffffffffffffffffffffffffff\n        /* \"#utility.yul\":12016:12021   */\n      dup3\n        /* \"#utility.yul\":12013:12090   */\n      sub\n        /* \"#utility.yul\":12010:12113   */\n      tag_213\n      jumpi\n        /* \"#utility.yul\":12093:12111   */\n      tag_214\n      tag_103\n      jump\t// in\n    tag_214:\n        /* \"#utility.yul\":12010:12113   */\n    tag_213:\n        /* \"#utility.yul\":12140:12141   */\n      0x01\n        /* \"#utility.yul\":12133:12138   */\n      dup3\n        /* \"#utility.yul\":12129:12142   */\n      add\n        /* \"#utility.yul\":12122:12142   */\n      swap1\n      pop\n        /* \"#utility.yul\":11915:12148   */\n      swap2\n      swap1\n      pop\n      jump\t// out\n        /* \"#utility.yul\":12154:12334   */\n    tag_57:\n        /* \"#utility.yul\":12202:12279   */\n      0x4e487b7100000000000000000000000000000000000000000000000000000000\n        /* \"#utility.yul\":12199:12200   */\n      0x00\n        /* \"#utility.yul\":12192:12280   */\n      mstore\n        /* \"#utility.yul\":12299:12303   */\n      0x41\n        /* \"#utility.yul\":12296:12297   */\n      0x04\n        /* \"#utility.yul\":12289:12304   */\n      mstore\n        /* \"#utility.yul\":12323:12327   */\n      0x24\n        /* \"#utility.yul\":12320:12321   */\n      0x00\n        /* \"#utility.yul\":12313:12328   */\n      revert\n        /* \"#utility.yul\":12340:12520   */\n    tag_67:\n        /* \"#utility.yul\":12388:12465   */\n      0x4e487b7100000000000000000000000000000000000000000000000000000000\n        /* \"#utility.yul\":12385:12386   */\n      0x00\n        /* \"#utility.yul\":12378:12466   */\n      mstore\n        /* \"#utility.yul\":12485:12489   */\n      0x32\n        /* \"#utility.yul\":12482:12483   */\n      0x04\n        /* \"#utility.yul\":12475:12490   */\n      mstore\n        /* \"#utility.yul\":12509:12513   */\n      0x24\n        /* \"#utility.yul\":12506:12507   */\n      0x00\n        /* \"#utility.yul\":12499:12514   */\n      revert\n\n    auxdata: 0xa2646970667358221220c211e88f27745864a37b44d80ee6500b86412d7aadd06ec6c4147cc0dbfd0ef164736f6c63430008130033\n}\n",
				"bytecode": {
					"linkReferences": {},
					"object": "6080604052600160005534801561001557600080fd5b50610ef3806100256000396000f3fe608060405234801561001057600080fd5b506004361061007d5760003560e01c8063911a34fe1161005b578063911a34fe146100ec578063a440361514610108578063b9db15b414610138578063d2bf193d146101685761007d565b8063029e2fe4146100825780633f5d2e2e146100a057806370b775a0146100bc575b600080fd5b61008a61019c565b604051610097919061090e565b60405180910390f35b6100ba60048036038101906100b591906109f4565b6101a2565b005b6100d660048036038101906100d19190610a6f565b6103f0565b6040516100e39190610be0565b60405180910390f35b61010660048036038101906101019190610c02565b61065f565b005b610122600480360381019061011d9190610c42565b610698565b60405161012f919061090e565b60405180910390f35b610152600480360381019061014d9190610c82565b6106c9565b60405161015f9190610d17565b60405180910390f35b610182600480360381019061017d9190610c82565b6107f8565b604051610193959493929190610d50565b60405180910390f35b60005481565b6040518060a001604052808681526020018573ffffffffffffffffffffffffffffffffffffffff1681526020018473ffffffffffffffffffffffffffffffffffffffff1681526020018363ffffffff1681526020018263ffffffff1681525060026000805481526020019081526020016000206000820151816000015560208201518160010160006101000a81548173ffffffffffffffffffffffffffffffffffffffff021916908373ffffffffffffffffffffffffffffffffffffffff16021790555060408201518160020160006101000a81548173ffffffffffffffffffffffffffffffffffffffff021916908373ffffffffffffffffffffffffffffffffffffffff16021790555060608201518160020160146101000a81548163ffffffff021916908363ffffffff16021790555060808201518160020160186101000a81548163ffffffff021916908363ffffffff16021790555090505060016000549080600181540180825580915050600190039060005260206000200160009091909190915055600360008473ffffffffffffffffffffffffffffffffffffffff1673ffffffffffffffffffffffffffffffffffffffff1681526020019081526020016000206000549080600181540180825580915050600190039060005260206000200160009091909190915055846000547f99dbbde039b2d7a1d4a332c4888db6a03b4ceb60e3036b5b4d421ba220e39bdc868686866040516103ca9493929190610da3565b60405180910390a36000808154809291906103e490610e17565b91905055505050505050565b60606000600360008473ffffffffffffffffffffffffffffffffffffffff1673ffffffffffffffffffffffffffffffffffffffff16815260200190815260200160002080548060200260200160405190810160405280929190818152602001828054801561047d57602002820191906000526020600020905b815481526020019060010190808311610469575b505050505090506000815167ffffffffffffffff8111156104a1576104a0610e5f565b5b6040519080825280602002602001820160405280156104da57816020015b6104c761088e565b8152602001906001900390816104bf5790505b50905060005b82518110156106545760026000848381518110610500576104ff610e8e565b5b602002602001015181526020019081526020016000206040518060a0016040529081600082015481526020016001820160009054906101000a900473ffffffffffffffffffffffffffffffffffffffff1673ffffffffffffffffffffffffffffffffffffffff1673ffffffffffffffffffffffffffffffffffffffff1681526020016002820160009054906101000a900473ffffffffffffffffffffffffffffffffffffffff1673ffffffffffffffffffffffffffffffffffffffff1673ffffffffffffffffffffffffffffffffffffffff1681526020016002820160149054906101000a900463ffffffff1663ffffffff1663ffffffff1681526020016002820160189054906101000a900463ffffffff1663ffffffff1663ffffffff168152505082828151811061063657610635610e8e565b5b6020026020010181905250808061064c90610e17565b9150506104e0565b508092505050919050565b806002600084815260200190815260200160002060020160186101000a81548163ffffffff021916908363ffffffff1602179055505050565b600360205281600052604060002081815481106106b457600080fd5b90600052602060002001600091509150505481565b6106d161088e565b600260008381526020019081526020016000206040518060a0016040529081600082015481526020016001820160009054906101000a900473ffffffffffffffffffffffffffffffffffffffff1673ffffffffffffffffffffffffffffffffffffffff1673ffffffffffffffffffffffffffffffffffffffff1681526020016002820160009054906101000a900473ffffffffffffffffffffffffffffffffffffffff1673ffffffffffffffffffffffffffffffffffffffff1673ffffffffffffffffffffffffffffffffffffffff1681526020016002820160149054906101000a900463ffffffff1663ffffffff1663ffffffff1681526020016002820160189054906101000a900463ffffffff1663ffffffff1663ffffffff16815250509050919050565b60026020528060005260406000206000915090508060000154908060010160009054906101000a900473ffffffffffffffffffffffffffffffffffffffff16908060020160009054906101000a900473ffffffffffffffffffffffffffffffffffffffff16908060020160149054906101000a900463ffffffff16908060020160189054906101000a900463ffffffff16905085565b6040518060a0016040528060008152602001600073ffffffffffffffffffffffffffffffffffffffff168152602001600073ffffffffffffffffffffffffffffffffffffffff168152602001600063ffffffff168152602001600063ffffffff1681525090565b6000819050919050565b610908816108f5565b82525050565b600060208201905061092360008301846108ff565b92915050565b600080fd5b610937816108f5565b811461094257600080fd5b50565b6000813590506109548161092e565b92915050565b600073ffffffffffffffffffffffffffffffffffffffff82169050919050565b60006109858261095a565b9050919050565b6109958161097a565b81146109a057600080fd5b50565b6000813590506109b28161098c565b92915050565b600063ffffffff82169050919050565b6109d1816109b8565b81146109dc57600080fd5b50565b6000813590506109ee816109c8565b92915050565b600080600080600060a08688031215610a1057610a0f610929565b5b6000610a1e88828901610945565b9550506020610a2f888289016109a3565b9450506040610a40888289016109a3565b9350506060610a51888289016109df565b9250506080610a62888289016109df565b9150509295509295909350565b600060208284031215610a8557610a84610929565b5b6000610a93848285016109a3565b91505092915050565b600081519050919050565b600082825260208201905092915050565b6000819050602082019050919050565b610ad1816108f5565b82525050565b610ae08161097a565b82525050565b610aef816109b8565b82525050565b60a082016000820151610b0b6000850182610ac8565b506020820151610b1e6020850182610ad7565b506040820151610b316040850182610ad7565b506060820151610b446060850182610ae6565b506080820151610b576080850182610ae6565b50505050565b6000610b698383610af5565b60a08301905092915050565b6000602082019050919050565b6000610b8d82610a9c565b610b978185610aa7565b9350610ba283610ab8565b8060005b83811015610bd3578151610bba8882610b5d565b9750610bc583610b75565b925050600181019050610ba6565b5085935050505092915050565b60006020820190508181036000830152610bfa8184610b82565b905092915050565b60008060408385031215610c1957610c18610929565b5b6000610c2785828601610945565b9250506020610c38858286016109df565b9150509250929050565b60008060408385031215610c5957610c58610929565b5b6000610c67858286016109a3565b9250506020610c7885828601610945565b9150509250929050565b600060208284031215610c9857610c97610929565b5b6000610ca684828501610945565b91505092915050565b60a082016000820151610cc56000850182610ac8565b506020820151610cd86020850182610ad7565b506040820151610ceb6040850182610ad7565b506060820151610cfe6060850182610ae6565b506080820151610d116080850182610ae6565b50505050565b600060a082019050610d2c6000830184610caf565b92915050565b610d3b8161097a565b82525050565b610d4a816109b8565b82525050565b600060a082019050610d6560008301886108ff565b610d726020830187610d32565b610d7f6040830186610d32565b610d8c6060830185610d41565b610d996080830184610d41565b9695505050505050565b6000608082019050610db86000830187610d32565b610dc56020830186610d32565b610dd26040830185610d41565b610ddf6060830184610d41565b95945050505050565b7f4e487b7100000000000000000000000000000000000000000000000000000000600052601160045260246000fd5b6000610e22826108f5565b91507fffffffffffffffffffffffffffffffffffffffffffffffffffffffffffffffff8203610e5457610e53610de8565b5b600182019050919050565b7f4e487b7100000000000000000000000000000000000000000000000000000000600052604160045260246000fd5b7f4e487b7100000000000000000000000000000000000000000000000000000000600052603260045260246000fdfea2646970667358221220c211e88f27745864a37b44d80ee6500b86412d7aadd06ec6c4147cc0dbfd0ef164736f6c63430008130033",
					"opcodes": "PUSH1 0x80 PUSH1 0x40 MSTORE PUSH1 0x1 PUSH1 0x0 SSTORE CALLVALUE DUP1 ISZERO PUSH2 0x15 JUMPI PUSH1 0x0 DUP1 REVERT JUMPDEST POP PUSH2 0xEF3 DUP1 PUSH2 0x25 PUSH1 0x0 CODECOPY PUSH1 0x0 RETURN INVALID PUSH1 0x80 PUSH1 0x40 MSTORE CALLVALUE DUP1 ISZERO PUSH2 0x10 JUMPI PUSH1 0x0 DUP1 REVERT JUMPDEST POP PUSH1 0x4 CALLDATASIZE LT PUSH2 0x7D JUMPI PUSH1 0x0 CALLDATALOAD PUSH1 0xE0 SHR DUP1 PUSH4 0x911A34FE GT PUSH2 0x5B JUMPI DUP1 PUSH4 0x911A34FE EQ PUSH2 0xEC JUMPI DUP1 PUSH4 0xA4403615 EQ PUSH2 0x108 JUMPI DUP1 PUSH4 0xB9DB15B4 EQ PUSH2 0x138 JUMPI DUP1 PUSH4 0xD2BF193D EQ PUSH2 0x168 JUMPI PUSH2 0x7D JUMP JUMPDEST DUP1 PUSH4 0x29E2FE4 EQ PUSH2 0x82 JUMPI DUP1 PUSH4 0x3F5D2E2E EQ PUSH2 0xA0 JUMPI DUP1 PUSH4 0x70B775A0 EQ PUSH2 0xBC JUMPI JUMPDEST PUSH1 0x0 DUP1 REVERT JUMPDEST PUSH2 0x8A PUSH2 0x19C JUMP JUMPDEST PUSH1 0x40 MLOAD PUSH2 0x97 SWAP2 SWAP1 PUSH2 0x90E JUMP JUMPDEST PUSH1 0x40 MLOAD DUP1 SWAP2 SUB SWAP1 RETURN JUMPDEST PUSH2 0xBA PUSH1 0x4 DUP1 CALLDATASIZE SUB DUP2 ADD SWAP1 PUSH2 0xB5 SWAP2 SWAP1 PUSH2 0x9F4 JUMP JUMPDEST PUSH2 0x1A2 JUMP JUMPDEST STOP JUMPDEST PUSH2 0xD6 PUSH1 0x4 DUP1 CALLDATASIZE SUB DUP2 ADD SWAP1 PUSH2 0xD1 SWAP2 SWAP1 PUSH2 0xA6F JUMP JUMPDEST PUSH2 0x3F0 JUMP JUMPDEST PUSH1 0x40 MLOAD PUSH2 0xE3 SWAP2 SWAP1 PUSH2 0xBE0 JUMP JUMPDEST PUSH1 0x40 MLOAD DUP1 SWAP2 SUB SWAP1 RETURN JUMPDEST PUSH2 0x106 PUSH1 0x4 DUP1 CALLDATASIZE SUB DUP2 ADD SWAP1 PUSH2 0x101 SWAP2 SWAP1 PUSH2 0xC02 JUMP JUMPDEST PUSH2 0x65F JUMP JUMPDEST STOP JUMPDEST PUSH2 0x122 PUSH1 0x4 DUP1 CALLDATASIZE SUB DUP2 ADD SWAP1 PUSH2 0x11D SWAP2 SWAP1 PUSH2 0xC42 JUMP JUMPDEST PUSH2 0x698 JUMP JUMPDEST PUSH1 0x40 MLOAD PUSH2 0x12F SWAP2 SWAP1 PUSH2 0x90E JUMP JUMPDEST PUSH1 0x40 MLOAD DUP1 SWAP2 SUB SWAP1 RETURN JUMPDEST PUSH2 0x152 PUSH1 0x4 DUP1 CALLDATASIZE SUB DUP2 ADD SWAP1 PUSH2 0x14D SWAP2 SWAP1 PUSH2 0xC82 JUMP JUMPDEST PUSH2 0x6C9 JUMP JUMPDEST PUSH1 0x40 MLOAD PUSH2 0x15F SWAP2 SWAP1 PUSH2 0xD17 JUMP JUMPDEST PUSH1 0x40 MLOAD DUP1 SWAP2 SUB SWAP1 RETURN JUMPDEST PUSH2 0x182 PUSH1 0x4 DUP1 CALLDATASIZE SUB DUP2 ADD SWAP1 PUSH2 0x17D SWAP2 SWAP1 PUSH2 0xC82 JUMP JUMPDEST PUSH2 0x7F8 JUMP JUMPDEST PUSH1 0x40 MLOAD PUSH2 0x193 SWAP6 SWAP5 SWAP4 SWAP3 SWAP2 SWAP1 PUSH2 0xD50 JUMP JUMPDEST PUSH1 0x40 MLOAD DUP1 SWAP2 SUB SWAP1 RETURN JUMPDEST PUSH1 0x0 SLOAD DUP2 JUMP JUMPDEST PUSH1 0x40 MLOAD DUP1 PUSH1 0xA0 ADD PUSH1 0x40 MSTORE DUP1 DUP7 DUP2 MSTORE PUSH1 0x20 ADD DUP6 PUSH20 0xFFFFFFFFFFFFFFFFFFFFFFFFFFFFFFFFFFFFFFFF AND DUP2 MSTORE PUSH1 0x20 ADD DUP5 PUSH20 0xFFFFFFFFFFFFFFFFFFFFFFFFFFFFFFFFFFFFFFFF AND DUP2 MSTORE PUSH1 0x20 ADD DUP4 PUSH4 0xFFFFFFFF AND DUP2 MSTORE PUSH1 0x20 ADD DUP3 PUSH4 0xFFFFFFFF AND DUP2 MSTORE POP PUSH1 0x2 PUSH1 0x0 DUP1 SLOAD DUP2 MSTORE PUSH1 0x20 ADD SWAP1 DUP2 MSTORE PUSH1 0x20 ADD PUSH1 0x0 KECCAK256 PUSH1 0x0 DUP3 ADD MLOAD DUP2 PUSH1 0x0 ADD SSTORE PUSH1 0x20 DUP3 ADD MLOAD DUP2 PUSH1 0x1 ADD PUSH1 0x0 PUSH2 0x100 EXP DUP2 SLOAD DUP2 PUSH20 0xFFFFFFFFFFFFFFFFFFFFFFFFFFFFFFFFFFFFFFFF MUL NOT AND SWAP1 DUP4 PUSH20 0xFFFFFFFFFFFFFFFFFFFFFFFFFFFFFFFFFFFFFFFF AND MUL OR SWAP1 SSTORE POP PUSH1 0x40 DUP3 ADD MLOAD DUP2 PUSH1 0x2 ADD PUSH1 0x0 PUSH2 0x100 EXP DUP2 SLOAD DUP2 PUSH20 0xFFFFFFFFFFFFFFFFFFFFFFFFFFFFFFFFFFFFFFFF MUL NOT AND SWAP1 DUP4 PUSH20 0xFFFFFFFFFFFFFFFFFFFFFFFFFFFFFFFFFFFFFFFF AND MUL OR SWAP1 SSTORE POP PUSH1 0x60 DUP3 ADD MLOAD DUP2 PUSH1 0x2 ADD PUSH1 0x14 PUSH2 0x100 EXP DUP2 SLOAD DUP2 PUSH4 0xFFFFFFFF MUL NOT AND SWAP1 DUP4 PUSH4 0xFFFFFFFF AND MUL OR SWAP1 SSTORE POP PUSH1 0x80 DUP3 ADD MLOAD DUP2 PUSH1 0x2 ADD PUSH1 0x18 PUSH2 0x100 EXP DUP2 SLOAD DUP2 PUSH4 0xFFFFFFFF MUL NOT AND SWAP1 DUP4 PUSH4 0xFFFFFFFF AND MUL OR SWAP1 SSTORE POP SWAP1 POP POP PUSH1 0x1 PUSH1 0x0 SLOAD SWAP1 DUP1 PUSH1 0x1 DUP2 SLOAD ADD DUP1 DUP3 SSTORE DUP1 SWAP2 POP POP PUSH1 0x1 SWAP1 SUB SWAP1 PUSH1 0x0 MSTORE PUSH1 0x20 PUSH1 0x0 KECCAK256 ADD PUSH1 0x0 SWAP1 SWAP2 SWAP1 SWAP2 SWAP1 SWAP2 POP SSTORE PUSH1 0x3 PUSH1 0x0 DUP5 PUSH20 0xFFFFFFFFFFFFFFFFFFFFFFFFFFFFFFFFFFFFFFFF AND PUSH20 0xFFFFFFFFFFFFFFFFFFFFFFFFFFFFFFFFFFFFFFFF AND DUP2 MSTORE PUSH1 0x20 ADD SWAP1 DUP2 MSTORE PUSH1 0x20 ADD PUSH1 0x0 KECCAK256 PUSH1 0x0 SLOAD SWAP1 DUP1 PUSH1 0x1 DUP2 SLOAD ADD DUP1 DUP3 SSTORE DUP1 SWAP2 POP POP PUSH1 0x1 SWAP1 SUB SWAP1 PUSH1 0x0 MSTORE PUSH1 0x20 PUSH1 0x0 KECCAK256 ADD PUSH1 0x0 SWAP1 SWAP2 SWAP1 SWAP2 SWAP1 SWAP2 POP SSTORE DUP5 PUSH1 0x0 SLOAD PUSH32 0x99DBBDE039B2D7A1D4A332C4888DB6A03B4CEB60E3036B5B4D421BA220E39BDC DUP7 DUP7 DUP7 DUP7 PUSH1 0x40 MLOAD PUSH2 0x3CA SWAP5 SWAP4 SWAP3 SWAP2 SWAP1 PUSH2 0xDA3 JUMP JUMPDEST PUSH1 0x40 MLOAD DUP1 SWAP2 SUB SWAP1 LOG3 PUSH1 0x0 DUP1 DUP2 SLOAD DUP1 SWAP3 SWAP2 SWAP1 PUSH2 0x3E4 SWAP1 PUSH2 0xE17 JUMP JUMPDEST SWAP2 SWAP1 POP SSTORE POP POP POP POP POP POP JUMP JUMPDEST PUSH1 0x60 PUSH1 0x0 PUSH1 0x3 PUSH1 0x0 DUP5 PUSH20 0xFFFFFFFFFFFFFFFFFFFFFFFFFFFFFFFFFFFFFFFF AND PUSH20 0xFFFFFFFFFFFFFFFFFFFFFFFFFFFFFFFFFFFFFFFF AND DUP2 MSTORE PUSH1 0x20 ADD SWAP1 DUP2 MSTORE PUSH1 0x20 ADD PUSH1 0x0 KECCAK256 DUP1 SLOAD DUP1 PUSH1 0x20 MUL PUSH1 0x20 ADD PUSH1 0x40 MLOAD SWAP1 DUP2 ADD PUSH1 0x40 MSTORE DUP1 SWAP3 SWAP2 SWAP1 DUP2 DUP2 MSTORE PUSH1 0x20 ADD DUP3 DUP1 SLOAD DUP1 ISZERO PUSH2 0x47D JUMPI PUSH1 0x20 MUL DUP3 ADD SWAP2 SWAP1 PUSH1 0x0 MSTORE PUSH1 0x20 PUSH1 0x0 KECCAK256 SWAP1 JUMPDEST DUP2 SLOAD DUP2 MSTORE PUSH1 0x20 ADD SWAP1 PUSH1 0x1 ADD SWAP1 DUP1 DUP4 GT PUSH2 0x469 JUMPI JUMPDEST POP POP POP POP POP SWAP1 POP PUSH1 0x0 DUP2 MLOAD PUSH8 0xFFFFFFFFFFFFFFFF DUP2 GT ISZERO PUSH2 0x4A1 JUMPI PUSH2 0x4A0 PUSH2 0xE5F JUMP JUMPDEST JUMPDEST PUSH1 0x40 MLOAD SWAP1 DUP1 DUP3 MSTORE DUP1 PUSH1 0x20 MUL PUSH1 0x20 ADD DUP3 ADD PUSH1 0x40 MSTORE DUP1 ISZERO PUSH2 0x4DA JUMPI DUP2 PUSH1 0x20 ADD JUMPDEST PUSH2 0x4C7 PUSH2 0x88E JUMP JUMPDEST DUP2 MSTORE PUSH1 0x20 ADD SWAP1 PUSH1 0x1 SWAP1 SUB SWAP1 DUP2 PUSH2 0x4BF JUMPI SWAP1 POP JUMPDEST POP SWAP1 POP PUSH1 0x0 JUMPDEST DUP3 MLOAD DUP2 LT ISZERO PUSH2 0x654 JUMPI PUSH1 0x2 PUSH1 0x0 DUP5 DUP4 DUP2 MLOAD DUP2 LT PUSH2 0x500 JUMPI PUSH2 0x4FF PUSH2 0xE8E JUMP JUMPDEST JUMPDEST PUSH1 0x20 MUL PUSH1 0x20 ADD ADD MLOAD DUP2 MSTORE PUSH1 0x20 ADD SWAP1 DUP2 MSTORE PUSH1 0x20 ADD PUSH1 0x0 KECCAK256 PUSH1 0x40 MLOAD DUP1 PUSH1 0xA0 ADD PUSH1 0x40 MSTORE SWAP1 DUP2 PUSH1 0x0 DUP3 ADD SLOAD DUP2 MSTORE PUSH1 0x20 ADD PUSH1 0x1 DUP3 ADD PUSH1 0x0 SWAP1 SLOAD SWAP1 PUSH2 0x100 EXP SWAP1 DIV PUSH20 0xFFFFFFFFFFFFFFFFFFFFFFFFFFFFFFFFFFFFFFFF AND PUSH20 0xFFFFFFFFFFFFFFFFFFFFFFFFFFFFFFFFFFFFFFFF AND PUSH20 0xFFFFFFFFFFFFFFFFFFFFFFFFFFFFFFFFFFFFFFFF AND DUP2 MSTORE PUSH1 0x20 ADD PUSH1 0x2 DUP3 ADD PUSH1 0x0 SWAP1 SLOAD SWAP1 PUSH2 0x100 EXP SWAP1 DIV PUSH20 0xFFFFFFFFFFFFFFFFFFFFFFFFFFFFFFFFFFFFFFFF AND PUSH20 0xFFFFFFFFFFFFFFFFFFFFFFFFFFFFFFFFFFFFFFFF AND PUSH20 0xFFFFFFFFFFFFFFFFFFFFFFFFFFFFFFFFFFFFFFFF AND DUP2 MSTORE PUSH1 0x20 ADD PUSH1 0x2 DUP3 ADD PUSH1 0x14 SWAP1 SLOAD SWAP1 PUSH2 0x100 EXP SWAP1 DIV PUSH4 0xFFFFFFFF AND PUSH4 0xFFFFFFFF AND PUSH4 0xFFFFFFFF AND DUP2 MSTORE PUSH1 0x20 ADD PUSH1 0x2 DUP3 ADD PUSH1 0x18 SWAP1 SLOAD SWAP1 PUSH2 0x100 EXP SWAP1 DIV PUSH4 0xFFFFFFFF AND PUSH4 0xFFFFFFFF AND PUSH4 0xFFFFFFFF AND DUP2 MSTORE POP POP DUP3 DUP3 DUP2 MLOAD DUP2 LT PUSH2 0x636 JUMPI PUSH2 0x635 PUSH2 0xE8E JUMP JUMPDEST JUMPDEST PUSH1 0x20 MUL PUSH1 0x20 ADD ADD DUP2 SWAP1 MSTORE POP DUP1 DUP1 PUSH2 0x64C SWAP1 PUSH2 0xE17 JUMP JUMPDEST SWAP2 POP POP PUSH2 0x4E0 JUMP JUMPDEST POP DUP1 SWAP3 POP POP POP SWAP2 SWAP1 POP JUMP JUMPDEST DUP1 PUSH1 0x2 PUSH1 0x0 DUP5 DUP2 MSTORE PUSH1 0x20 ADD SWAP1 DUP2 MSTORE PUSH1 0x20 ADD PUSH1 0x0 KECCAK256 PUSH1 0x2 ADD PUSH1 0x18 PUSH2 0x100 EXP DUP2 SLOAD DUP2 PUSH4 0xFFFFFFFF MUL NOT AND SWAP1 DUP4 PUSH4 0xFFFFFFFF AND MUL OR SWAP1 SSTORE POP POP POP JUMP JUMPDEST PUSH1 0x3 PUSH1 0x20 MSTORE DUP2 PUSH1 0x0 MSTORE PUSH1 0x40 PUSH1 0x0 KECCAK256 DUP2 DUP2 SLOAD DUP2 LT PUSH2 0x6B4 JUMPI PUSH1 0x0 DUP1 REVERT JUMPDEST SWAP1 PUSH1 0x0 MSTORE PUSH1 0x20 PUSH1 0x0 KECCAK256 ADD PUSH1 0x0 SWAP2 POP SWAP2 POP POP SLOAD DUP2 JUMP JUMPDEST PUSH2 0x6D1 PUSH2 0x88E JUMP JUMPDEST PUSH1 0x2 PUSH1 0x0 DUP4 DUP2 MSTORE PUSH1 0x20 ADD SWAP1 DUP2 MSTORE PUSH1 0x20 ADD PUSH1 0x0 KECCAK256 PUSH1 0x40 MLOAD DUP1 PUSH1 0xA0 ADD PUSH1 0x40 MSTORE SWAP1 DUP2 PUSH1 0x0 DUP3 ADD SLOAD DUP2 MSTORE PUSH1 0x20 ADD PUSH1 0x1 DUP3 ADD PUSH1 0x0 SWAP1 SLOAD SWAP1 PUSH2 0x100 EXP SWAP1 DIV PUSH20 0xFFFFFFFFFFFFFFFFFFFFFFFFFFFFFFFFFFFFFFFF AND PUSH20 0xFFFFFFFFFFFFFFFFFFFFFFFFFFFFFFFFFFFFFFFF AND PUSH20 0xFFFFFFFFFFFFFFFFFFFFFFFFFFFFFFFFFFFFFFFF AND DUP2 MSTORE PUSH1 0x20 ADD PUSH1 0x2 DUP3 ADD PUSH1 0x0 SWAP1 SLOAD SWAP1 PUSH2 0x100 EXP SWAP1 DIV PUSH20 0xFFFFFFFFFFFFFFFFFFFFFFFFFFFFFFFFFFFFFFFF AND PUSH20 0xFFFFFFFFFFFFFFFFFFFFFFFFFFFFFFFFFFFFFFFF AND PUSH20 0xFFFFFFFFFFFFFFFFFFFFFFFFFFFFFFFFFFFFFFFF AND DUP2 MSTORE PUSH1 0x20 ADD PUSH1 0x2 DUP3 ADD PUSH1 0x14 SWAP1 SLOAD SWAP1 PUSH2 0x100 EXP SWAP1 DIV PUSH4 0xFFFFFFFF AND PUSH4 0xFFFFFFFF AND PUSH4 0xFFFFFFFF AND DUP2 MSTORE PUSH1 0x20 ADD PUSH1 0x2 DUP3 ADD PUSH1 0x18 SWAP1 SLOAD SWAP1 PUSH2 0x100 EXP SWAP1 DIV PUSH4 0xFFFFFFFF AND PUSH4 0xFFFFFFFF AND PUSH4 0xFFFFFFFF AND DUP2 MSTORE POP POP SWAP1 POP SWAP2 SWAP1 POP JUMP JUMPDEST PUSH1 0x2 PUSH1 0x20 MSTORE DUP1 PUSH1 0x0 MSTORE PUSH1 0x40 PUSH1 0x0 KECCAK256 PUSH1 0x0 SWAP2 POP SWAP1 POP DUP1 PUSH1 0x0 ADD SLOAD SWAP1 DUP1 PUSH1 0x1 ADD PUSH1 0x0 SWAP1 SLOAD SWAP1 PUSH2 0x100 EXP SWAP1 DIV PUSH20 0xFFFFFFFFFFFFFFFFFFFFFFFFFFFFFFFFFFFFFFFF AND SWAP1 DUP1 PUSH1 0x2 ADD PUSH1 0x0 SWAP1 SLOAD SWAP1 PUSH2 0x100 EXP SWAP1 DIV PUSH20 0xFFFFFFFFFFFFFFFFFFFFFFFFFFFFFFFFFFFFFFFF AND SWAP1 DUP1 PUSH1 0x2 ADD PUSH1 0x14 SWAP1 SLOAD SWAP1 PUSH2 0x100 EXP SWAP1 DIV PUSH4 0xFFFFFFFF AND SWAP1 DUP1 PUSH1 0x2 ADD PUSH1 0x18 SWAP1 SLOAD SWAP1 PUSH2 0x100 EXP SWAP1 DIV PUSH4 0xFFFFFFFF AND SWAP1 POP DUP6 JUMP JUMPDEST PUSH1 0x40 MLOAD DUP1 PUSH1 0xA0 ADD PUSH1 0x40 MSTORE DUP1 PUSH1 0x0 DUP2 MSTORE PUSH1 0x20 ADD PUSH1 0x0 PUSH20 0xFFFFFFFFFFFFFFFFFFFFFFFFFFFFFFFFFFFFFFFF AND DUP2 MSTORE PUSH1 0x20 ADD PUSH1 0x0 PUSH20 0xFFFFFFFFFFFFFFFFFFFFFFFFFFFFFFFFFFFFFFFF AND DUP2 MSTORE PUSH1 0x20 ADD PUSH1 0x0 PUSH4 0xFFFFFFFF AND DUP2 MSTORE PUSH1 0x20 ADD PUSH1 0x0 PUSH4 0xFFFFFFFF AND DUP2 MSTORE POP SWAP1 JUMP JUMPDEST PUSH1 0x0 DUP2 SWAP1 POP SWAP2 SWAP1 POP JUMP JUMPDEST PUSH2 0x908 DUP2 PUSH2 0x8F5 JUMP JUMPDEST DUP3 MSTORE POP POP JUMP JUMPDEST PUSH1 0x0 PUSH1 0x20 DUP3 ADD SWAP1 POP PUSH2 0x923 PUSH1 0x0 DUP4 ADD DUP5 PUSH2 0x8FF JUMP JUMPDEST SWAP3 SWAP2 POP POP JUMP JUMPDEST PUSH1 0x0 DUP1 REVERT JUMPDEST PUSH2 0x937 DUP2 PUSH2 0x8F5 JUMP JUMPDEST DUP2 EQ PUSH2 0x942 JUMPI PUSH1 0x0 DUP1 REVERT JUMPDEST POP JUMP JUMPDEST PUSH1 0x0 DUP2 CALLDATALOAD SWAP1 POP PUSH2 0x954 DUP2 PUSH2 0x92E JUMP JUMPDEST SWAP3 SWAP2 POP POP JUMP JUMPDEST PUSH1 0x0 PUSH20 0xFFFFFFFFFFFFFFFFFFFFFFFFFFFFFFFFFFFFFFFF DUP3 AND SWAP1 POP SWAP2 SWAP1 POP JUMP JUMPDEST PUSH1 0x0 PUSH2 0x985 DUP3 PUSH2 0x95A JUMP JUMPDEST SWAP1 POP SWAP2 SWAP1 POP JUMP JUMPDEST PUSH2 0x995 DUP2 PUSH2 0x97A JUMP JUMPDEST DUP2 EQ PUSH2 0x9A0 JUMPI PUSH1 0x0 DUP1 REVERT JUMPDEST POP JUMP JUMPDEST PUSH1 0x0 DUP2 CALLDATALOAD SWAP1 POP PUSH2 0x9B2 DUP2 PUSH2 0x98C JUMP JUMPDEST SWAP3 SWAP2 POP POP JUMP JUMPDEST PUSH1 0x0 PUSH4 0xFFFFFFFF DUP3 AND SWAP1 POP SWAP2 SWAP1 POP JUMP JUMPDEST PUSH2 0x9D1 DUP2 PUSH2 0x9B8 JUMP JUMPDEST DUP2 EQ PUSH2 0x9DC JUMPI PUSH1 0x0 DUP1 REVERT JUMPDEST POP JUMP JUMPDEST PUSH1 0x0 DUP2 CALLDATALOAD SWAP1 POP PUSH2 0x9EE DUP2 PUSH2 0x9C8 JUMP JUMPDEST SWAP3 SWAP2 POP POP JUMP JUMPDEST PUSH1 0x0 DUP1 PUSH1 0x0 DUP1 PUSH1 0x0 PUSH1 0xA0 DUP7 DUP9 SUB SLT ISZERO PUSH2 0xA10 JUMPI PUSH2 0xA0F PUSH2 0x929 JUMP JUMPDEST JUMPDEST PUSH1 0x0 PUSH2 0xA1E DUP9 DUP3 DUP10 ADD PUSH2 0x945 JUMP JUMPDEST SWAP6 POP POP PUSH1 0x20 PUSH2 0xA2F DUP9 DUP3 DUP10 ADD PUSH2 0x9A3 JUMP JUMPDEST SWAP5 POP POP PUSH1 0x40 PUSH2 0xA40 DUP9 DUP3 DUP10 ADD PUSH2 0x9A3 JUMP JUMPDEST SWAP4 POP POP PUSH1 0x60 PUSH2 0xA51 DUP9 DUP3 DUP10 ADD PUSH2 0x9DF JUMP JUMPDEST SWAP3 POP POP PUSH1 0x80 PUSH2 0xA62 DUP9 DUP3 DUP10 ADD PUSH2 0x9DF JUMP JUMPDEST SWAP2 POP POP SWAP3 SWAP6 POP SWAP3 SWAP6 SWAP1 SWAP4 POP JUMP JUMPDEST PUSH1 0x0 PUSH1 0x20 DUP3 DUP5 SUB SLT ISZERO PUSH2 0xA85 JUMPI PUSH2 0xA84 PUSH2 0x929 JUMP JUMPDEST JUMPDEST PUSH1 0x0 PUSH2 0xA93 DUP5 DUP3 DUP6 ADD PUSH2 0x9A3 JUMP JUMPDEST SWAP2 POP POP SWAP3 SWAP2 POP POP JUMP JUMPDEST PUSH1 0x0 DUP2 MLOAD SWAP1 POP SWAP2 SWAP1 POP JUMP JUMPDEST PUSH1 0x0 DUP3 DUP3 MSTORE PUSH1 0x20 DUP3 ADD SWAP1 POP SWAP3 SWAP2 POP POP JUMP JUMPDEST PUSH1 0x0 DUP2 SWAP1 POP PUSH1 0x20 DUP3 ADD SWAP1 POP SWAP2 SWAP1 POP JUMP JUMPDEST PUSH2 0xAD1 DUP2 PUSH2 0x8F5 JUMP JUMPDEST DUP3 MSTORE POP POP JUMP JUMPDEST PUSH2 0xAE0 DUP2 PUSH2 0x97A JUMP JUMPDEST DUP3 MSTORE POP POP JUMP JUMPDEST PUSH2 0xAEF DUP2 PUSH2 0x9B8 JUMP JUMPDEST DUP3 MSTORE POP POP JUMP JUMPDEST PUSH1 0xA0 DUP3 ADD PUSH1 0x0 DUP3 ADD MLOAD PUSH2 0xB0B PUSH1 0x0 DUP6 ADD DUP3 PUSH2 0xAC8 JUMP JUMPDEST POP PUSH1 0x20 DUP3 ADD MLOAD PUSH2 0xB1E PUSH1 0x20 DUP6 ADD DUP3 PUSH2 0xAD7 JUMP JUMPDEST POP PUSH1 0x40 DUP3 ADD MLOAD PUSH2 0xB31 PUSH1 0x40 DUP6 ADD DUP3 PUSH2 0xAD7 JUMP JUMPDEST POP PUSH1 0x60 DUP3 ADD MLOAD PUSH2 0xB44 PUSH1 0x60 DUP6 ADD DUP3 PUSH2 0xAE6 JUMP JUMPDEST POP PUSH1 0x80 DUP3 ADD MLOAD PUSH2 0xB57 PUSH1 0x80 DUP6 ADD DUP3 PUSH2 0xAE6 JUMP JUMPDEST POP POP POP POP JUMP JUMPDEST PUSH1 0x0 PUSH2 0xB69 DUP4 DUP4 PUSH2 0xAF5 JUMP JUMPDEST PUSH1 0xA0 DUP4 ADD SWAP1 POP SWAP3 SWAP2 POP POP JUMP JUMPDEST PUSH1 0x0 PUSH1 0x20 DUP3 ADD SWAP1 POP SWAP2 SWAP1 POP JUMP JUMPDEST PUSH1 0x0 PUSH2 0xB8D DUP3 PUSH2 0xA9C JUMP JUMPDEST PUSH2 0xB97 DUP2 DUP6 PUSH2 0xAA7 JUMP JUMPDEST SWAP4 POP PUSH2 0xBA2 DUP4 PUSH2 0xAB8 JUMP JUMPDEST DUP1 PUSH1 0x0 JUMPDEST DUP4 DUP2 LT ISZERO PUSH2 0xBD3 JUMPI DUP2 MLOAD PUSH2 0xBBA DUP9 DUP3 PUSH2 0xB5D JUMP JUMPDEST SWAP8 POP PUSH2 0xBC5 DUP4 PUSH2 0xB75 JUMP JUMPDEST SWAP3 POP POP PUSH1 0x1 DUP2 ADD SWAP1 POP PUSH2 0xBA6 JUMP JUMPDEST POP DUP6 SWAP4 POP POP POP POP SWAP3 SWAP2 POP POP JUMP JUMPDEST PUSH1 0x0 PUSH1 0x20 DUP3 ADD SWAP1 POP DUP2 DUP2 SUB PUSH1 0x0 DUP4 ADD MSTORE PUSH2 0xBFA DUP2 DUP5 PUSH2 0xB82 JUMP JUMPDEST SWAP1 POP SWAP3 SWAP2 POP POP JUMP JUMPDEST PUSH1 0x0 DUP1 PUSH1 0x40 DUP4 DUP6 SUB SLT ISZERO PUSH2 0xC19 JUMPI PUSH2 0xC18 PUSH2 0x929 JUMP JUMPDEST JUMPDEST PUSH1 0x0 PUSH2 0xC27 DUP6 DUP3 DUP7 ADD PUSH2 0x945 JUMP JUMPDEST SWAP3 POP POP PUSH1 0x20 PUSH2 0xC38 DUP6 DUP3 DUP7 ADD PUSH2 0x9DF JUMP JUMPDEST SWAP2 POP POP SWAP3 POP SWAP3 SWAP1 POP JUMP JUMPDEST PUSH1 0x0 DUP1 PUSH1 0x40 DUP4 DUP6 SUB SLT ISZERO PUSH2 0xC59 JUMPI PUSH2 0xC58 PUSH2 0x929 JUMP JUMPDEST JUMPDEST PUSH1 0x0 PUSH2 0xC67 DUP6 DUP3 DUP7 ADD PUSH2 0x9A3 JUMP JUMPDEST SWAP3 POP POP PUSH1 0x20 PUSH2 0xC78 DUP6 DUP3 DUP7 ADD PUSH2 0x945 JUMP JUMPDEST SWAP2 POP POP SWAP3 POP SWAP3 SWAP1 POP JUMP JUMPDEST PUSH1 0x0 PUSH1 0x20 DUP3 DUP5 SUB SLT ISZERO PUSH2 0xC98 JUMPI PUSH2 0xC97 PUSH2 0x929 JUMP JUMPDEST JUMPDEST PUSH1 0x0 PUSH2 0xCA6 DUP5 DUP3 DUP6 ADD PUSH2 0x945 JUMP JUMPDEST SWAP2 POP POP SWAP3 SWAP2 POP POP JUMP JUMPDEST PUSH1 0xA0 DUP3 ADD PUSH1 0x0 DUP3 ADD MLOAD PUSH2 0xCC5 PUSH1 0x0 DUP6 ADD DUP3 PUSH2 0xAC8 JUMP JUMPDEST POP PUSH1 0x20 DUP3 ADD MLOAD PUSH2 0xCD8 PUSH1 0x20 DUP6 ADD DUP3 PUSH2 0xAD7 JUMP JUMPDEST POP PUSH1 0x40 DUP3 ADD MLOAD PUSH2 0xCEB PUSH1 0x40 DUP6 ADD DUP3 PUSH2 0xAD7 JUMP JUMPDEST POP PUSH1 0x60 DUP3 ADD MLOAD PUSH2 0xCFE PUSH1 0x60 DUP6 ADD DUP3 PUSH2 0xAE6 JUMP JUMPDEST POP PUSH1 0x80 DUP3 ADD MLOAD PUSH2 0xD11 PUSH1 0x80 DUP6 ADD DUP3 PUSH2 0xAE6 JUMP JUMPDEST POP POP POP POP JUMP JUMPDEST PUSH1 0x0 PUSH1 0xA0 DUP3 ADD SWAP1 POP PUSH2 0xD2C PUSH1 0x0 DUP4 ADD DUP5 PUSH2 0xCAF JUMP JUMPDEST SWAP3 SWAP2 POP POP JUMP JUMPDEST PUSH2 0xD3B DUP2 PUSH2 0x97A JUMP JUMPDEST DUP3 MSTORE POP POP JUMP JUMPDEST PUSH2 0xD4A DUP2 PUSH2 0x9B8 JUMP JUMPDEST DUP3 MSTORE POP POP JUMP JUMPDEST PUSH1 0x0 PUSH1 0xA0 DUP3 ADD SWAP1 POP PUSH2 0xD65 PUSH1 0x0 DUP4 ADD DUP9 PUSH2 0x8FF JUMP JUMPDEST PUSH2 0xD72 PUSH1 0x20 DUP4 ADD DUP8 PUSH2 0xD32 JUMP JUMPDEST PUSH2 0xD7F PUSH1 0x40 DUP4 ADD DUP7 PUSH2 0xD32 JUMP JUMPDEST PUSH2 0xD8C PUSH1 0x60 DUP4 ADD DUP6 PUSH2 0xD41 JUMP JUMPDEST PUSH2 0xD99 PUSH1 0x80 DUP4 ADD DUP5 PUSH2 0xD41 JUMP JUMPDEST SWAP7 SWAP6 POP POP POP POP POP POP JUMP JUMPDEST PUSH1 0x0 PUSH1 0x80 DUP3 ADD SWAP1 POP PUSH2 0xDB8 PUSH1 0x0 DUP4 ADD DUP8 PUSH2 0xD32 JUMP JUMPDEST PUSH2 0xDC5 PUSH1 0x20 DUP4 ADD DUP7 PUSH2 0xD32 JUMP JUMPDEST PUSH2 0xDD2 PUSH1 0x40 DUP4 ADD DUP6 PUSH2 0xD41 JUMP JUMPDEST PUSH2 0xDDF PUSH1 0x60 DUP4 ADD DUP5 PUSH2 0xD41 JUMP JUMPDEST SWAP6 SWAP5 POP POP POP POP POP JUMP JUMPDEST PUSH32 0x4E487B7100000000000000000000000000000000000000000000000000000000 PUSH1 0x0 MSTORE PUSH1 0x11 PUSH1 0x4 MSTORE PUSH1 0x24 PUSH1 0x0 REVERT JUMPDEST PUSH1 0x0 PUSH2 0xE22 DUP3 PUSH2 0x8F5 JUMP JUMPDEST SWAP2 POP PUSH32 0xFFFFFFFFFFFFFFFFFFFFFFFFFFFFFFFFFFFFFFFFFFFFFFFFFFFFFFFFFFFFFFFF DUP3 SUB PUSH2 0xE54 JUMPI PUSH2 0xE53 PUSH2 0xDE8 JUMP JUMPDEST JUMPDEST PUSH1 0x1 DUP3 ADD SWAP1 POP SWAP2 SWAP1 POP JUMP JUMPDEST PUSH32 0x4E487B7100000000000000000000000000000000000000000000000000000000 PUSH1 0x0 MSTORE PUSH1 0x41 PUSH1 0x4 MSTORE PUSH1 0x24 PUSH1 0x0 REVERT JUMPDEST PUSH32 0x4E487B7100000000000000000000000000000000000000000000000000000000 PUSH1 0x0 MSTORE PUSH1 0x32 PUSH1 0x4 MSTORE PUSH1 0x24 PUSH1 0x0 REVERT INVALID LOG2 PUSH5 0x6970667358 0x22 SLT KECCAK256 0xC2 GT 0xE8 DUP16 0x27 PUSH21 0x5864A37B44D80EE6500B86412D7AADD06EC6C4147C 0xC0 0xDB REVERT 0xE CALL PUSH5 0x736F6C6343 STOP ADDMOD SGT STOP CALLER "
				},
				"gasEstimates": {
					"creation": {
						"codeDepositCost": "765400",
						"executionCost": "22905",
						"totalCost": "788305"
					},
					"external": {
						"getAllSmIdForManufacturer(address)": "infinite",
						"getProduct(uint256)": "infinite",
						"manufacturerTosmIDMapping(address,uint256)": "infinite",
						"receiveProduct(uint256,uint32)": "24986",
						"smId()": "2430",
						"smidToStructMapping(uint256)": "infinite",
						"transferProduct(uint256,address,address,uint32,uint32)": "infinite"
					}
				},
				"methodIdentifiers": {
					"getAllSmIdForManufacturer(address)": "70b775a0",
					"getProduct(uint256)": "b9db15b4",
					"manufacturerTosmIDMapping(address,uint256)": "a4403615",
					"receiveProduct(uint256,uint32)": "911a34fe",
					"smId()": "029e2fe4",
					"smidToStructMapping(uint256)": "d2bf193d",
					"transferProduct(uint256,address,address,uint32,uint32)": "3f5d2e2e"
				}
			},
			"storageLayout": {
				"storage": [
					{
						"astId": 41,
						"contract": "contracts/supplierManufacturer.sol:supplierManufacturer",
						"label": "smId",
						"offset": 0,
						"slot": "0",
						"type": "t_uint256"
					},
					{
						"astId": 44,
						"contract": "contracts/supplierManufacturer.sol:supplierManufacturer",
						"label": "allSmId",
						"offset": 0,
						"slot": "1",
						"type": "t_array(t_uint256)dyn_storage"
					},
					{
						"astId": 63,
						"contract": "contracts/supplierManufacturer.sol:supplierManufacturer",
						"label": "smidToStructMapping",
						"offset": 0,
						"slot": "2",
						"type": "t_mapping(t_uint256,t_struct(supplierManufacturer)12_storage)"
					},
					{
						"astId": 68,
						"contract": "contracts/supplierManufacturer.sol:supplierManufacturer",
						"label": "manufacturerTosmIDMapping",
						"offset": 0,
						"slot": "3",
						"type": "t_mapping(t_address,t_array(t_uint256)dyn_storage)"
					}
				],
				"types": {
					"t_address": {
						"encoding": "inplace",
						"label": "address",
						"numberOfBytes": "20"
					},
					"t_array(t_uint256)dyn_storage": {
						"base": "t_uint256",
						"encoding": "dynamic_array",
						"label": "uint256[]",
						"numberOfBytes": "32"
					},
					"t_mapping(t_address,t_array(t_uint256)dyn_storage)": {
						"encoding": "mapping",
						"key": "t_address",
						"label": "mapping(address => uint256[])",
						"numberOfBytes": "32",
						"value": "t_array(t_uint256)dyn_storage"
					},
					"t_mapping(t_uint256,t_struct(supplierManufacturer)12_storage)": {
						"encoding": "mapping",
						"key": "t_uint256",
						"label": "mapping(uint256 => struct ISupplierManufacturer.supplierManufacturer)",
						"numberOfBytes": "32",
						"value": "t_struct(supplierManufacturer)12_storage"
					},
					"t_struct(supplierManufacturer)12_storage": {
						"encoding": "inplace",
						"label": "struct ISupplierManufacturer.supplierManufacturer",
						"members": [
							{
								"astId": 3,
								"contract": "contracts/supplierManufacturer.sol:supplierManufacturer",
								"label": "spId",
								"offset": 0,
								"slot": "0",
								"type": "t_uint256"
							},
							{
								"astId": 5,
								"contract": "contracts/supplierManufacturer.sol:supplierManufacturer",
								"label": "supplierAddress",
								"offset": 0,
								"slot": "1",
								"type": "t_address"
							},
							{
								"astId": 7,
								"contract": "contracts/supplierManufacturer.sol:supplierManufacturer",
								"label": "manufacturerAddress",
								"offset": 0,
								"slot": "2",
								"type": "t_address"
							},
							{
								"astId": 9,
								"contract": "contracts/supplierManufacturer.sol:supplierManufacturer",
								"label": "dispatchTime",
								"offset": 20,
								"slot": "2",
								"type": "t_uint32"
							},
							{
								"astId": 11,
								"contract": "contracts/supplierManufacturer.sol:supplierManufacturer",
								"label": "arrivalTime",
								"offset": 24,
								"slot": "2",
								"type": "t_uint32"
							}
						],
						"numberOfBytes": "96"
					},
					"t_uint256": {
						"encoding": "inplace",
						"label": "uint256",
						"numberOfBytes": "32"
					},
					"t_uint32": {
						"encoding": "inplace",
						"label": "uint32",
						"numberOfBytes": "4"
					}
				}
			},
			"userdoc": {
				"kind": "user",
				"methods": {},
				"version": 1
			}
		}
	}
}