{
	"contracts/manufacturerDistributor.sol": {
		"manufacturerDistributor": {
			"abi": [
				{
					"anonymous": false,
					"inputs": [
						{
							"indexed": false,
							"internalType": "uint32",
							"name": "_arrivalTime",
							"type": "uint32"
						}
					],
					"name": "eventArrivalTime",
					"type": "event"
				},
				{
					"anonymous": false,
					"inputs": [
						{
							"indexed": true,
							"internalType": "uint256",
							"name": "_mdId",
							"type": "uint256"
						},
						{
							"indexed": true,
							"internalType": "uint256",
							"name": "_mpId",
							"type": "uint256"
						},
						{
							"indexed": false,
							"internalType": "address",
							"name": "_manufacturerAddress",
							"type": "address"
						},
						{
							"indexed": false,
							"internalType": "address",
							"name": "_distributorAddress",
							"type": "address"
						},
						{
							"indexed": false,
							"internalType": "uint32",
							"name": "_dispatchTime",
							"type": "uint32"
						}
					],
					"name": "eventManufacturerDistributorTransfer",
					"type": "event"
				},
				{
					"inputs": [
						{
							"internalType": "address",
							"name": "",
							"type": "address"
						},
						{
							"internalType": "uint256",
							"name": "",
							"type": "uint256"
						}
					],
					"name": "distributorTosmIDMapping",
					"outputs": [
						{
							"internalType": "uint256",
							"name": "",
							"type": "uint256"
						}
					],
					"stateMutability": "view",
					"type": "function"
				},
				{
					"inputs": [
						{
							"internalType": "address",
							"name": "_distributorAddress",
							"type": "address"
						}
					],
					"name": "getAllmdIdForManufacturer",
					"outputs": [
						{
							"components": [
								{
									"internalType": "uint256",
									"name": "mpId",
									"type": "uint256"
								},
								{
									"internalType": "address",
									"name": "m_address",
									"type": "address"
								},
								{
									"internalType": "address",
									"name": "d_address",
									"type": "address"
								},
								{
									"internalType": "uint32",
									"name": "dispatchTime",
									"type": "uint32"
								},
								{
									"internalType": "uint32",
									"name": "arrivalTime",
									"type": "uint32"
								}
							],
							"internalType": "struct IManufacturerDistributor.manufacturerDistributor[]",
							"name": "",
							"type": "tuple[]"
						}
					],
					"stateMutability": "view",
					"type": "function"
				},
				{
					"inputs": [
						{
							"internalType": "uint256",
							"name": "_mdid",
							"type": "uint256"
						}
					],
					"name": "getProduct",
					"outputs": [
						{
							"components": [
								{
									"internalType": "uint256",
									"name": "mpId",
									"type": "uint256"
								},
								{
									"internalType": "address",
									"name": "m_address",
									"type": "address"
								},
								{
									"internalType": "address",
									"name": "d_address",
									"type": "address"
								},
								{
									"internalType": "uint32",
									"name": "dispatchTime",
									"type": "uint32"
								},
								{
									"internalType": "uint32",
									"name": "arrivalTime",
									"type": "uint32"
								}
							],
							"internalType": "struct IManufacturerDistributor.manufacturerDistributor",
							"name": "",
							"type": "tuple"
						}
					],
					"stateMutability": "view",
					"type": "function"
				},
				{
					"inputs": [],
					"name": "mdId",
					"outputs": [
						{
							"internalType": "uint256",
							"name": "",
							"type": "uint256"
						}
					],
					"stateMutability": "view",
					"type": "function"
				},
				{
					"inputs": [
						{
							"internalType": "uint256",
							"name": "",
							"type": "uint256"
						}
					],
					"name": "mdidToStructMapping",
					"outputs": [
						{
							"internalType": "uint256",
							"name": "mpId",
							"type": "uint256"
						},
						{
							"internalType": "address",
							"name": "m_address",
							"type": "address"
						},
						{
							"internalType": "address",
							"name": "d_address",
							"type": "address"
						},
						{
							"internalType": "uint32",
							"name": "dispatchTime",
							"type": "uint32"
						},
						{
							"internalType": "uint32",
							"name": "arrivalTime",
							"type": "uint32"
						}
					],
					"stateMutability": "view",
					"type": "function"
				},
				{
					"inputs": [
						{
							"internalType": "uint256",
							"name": "_mdId",
							"type": "uint256"
						}
					],
					"name": "receiveProduct",
					"outputs": [],
					"stateMutability": "nonpayable",
					"type": "function"
				},
				{
					"inputs": [
						{
							"internalType": "uint256",
							"name": "_mpId",
							"type": "uint256"
						},
						{
							"internalType": "address",
							"name": "_manufacturerAddress",
							"type": "address"
						},
						{
							"internalType": "address",
							"name": "_distributorAddress",
							"type": "address"
						},
						{
							"internalType": "uint32",
							"name": "_dispatchTime",
							"type": "uint32"
						},
						{
							"internalType": "uint32",
							"name": "_arrivalTime",
							"type": "uint32"
						}
					],
					"name": "transferproduct",
					"outputs": [],
					"stateMutability": "nonpayable",
					"type": "function"
				}
			],
			"devdoc": {
				"kind": "dev",
				"methods": {},
				"version": 1
			},
			"evm": {
				"assembly": "    /* \"contracts/manufacturerDistributor.sol\":125:1886  contract manufacturerDistributor is IManufacturerDistributor{... */\n  mstore(0x40, 0x80)\n    /* \"contracts/manufacturerDistributor.sol\":211:212  1 */\n  0x01\n    /* \"contracts/manufacturerDistributor.sol\":192:212  uint public mdId = 1 */\n  0x00\n  sstore\n    /* \"contracts/manufacturerDistributor.sol\":125:1886  contract manufacturerDistributor is IManufacturerDistributor{... */\n  callvalue\n  dup1\n  iszero\n  tag_1\n  jumpi\n  0x00\n  dup1\n  revert\ntag_1:\n  pop\n  dataSize(sub_0)\n  dup1\n  dataOffset(sub_0)\n  0x00\n  codecopy\n  0x00\n  return\nstop\n\nsub_0: assembly {\n        /* \"contracts/manufacturerDistributor.sol\":125:1886  contract manufacturerDistributor is IManufacturerDistributor{... */\n      mstore(0x40, 0x80)\n      callvalue\n      dup1\n      iszero\n      tag_1\n      jumpi\n      0x00\n      dup1\n      revert\n    tag_1:\n      pop\n      jumpi(tag_2, lt(calldatasize, 0x04))\n      shr(0xe0, calldataload(0x00))\n      dup1\n      0xb9db15b4\n      gt\n      tag_10\n      jumpi\n      dup1\n      0xb9db15b4\n      eq\n      tag_6\n      jumpi\n      dup1\n      0xc7414bee\n      eq\n      tag_7\n      jumpi\n      dup1\n      0xcb59d430\n      eq\n      tag_8\n      jumpi\n      dup1\n      0xe3eba904\n      eq\n      tag_9\n      jumpi\n      jump(tag_2)\n    tag_10:\n      dup1\n      0x29d78328\n      eq\n      tag_3\n      jumpi\n      dup1\n      0x83f48c96\n      eq\n      tag_4\n      jumpi\n      dup1\n      0x96fccba4\n      eq\n      tag_5\n      jumpi\n    tag_2:\n      0x00\n      dup1\n      revert\n        /* \"contracts/manufacturerDistributor.sol\":1059:1261  function receiveProduct(uint _mdId)external override{... */\n    tag_3:\n      tag_11\n      0x04\n      dup1\n      calldatasize\n      sub\n      dup2\n      add\n      swap1\n      tag_12\n      swap2\n      swap1\n      tag_13\n      jump\t// in\n    tag_12:\n      tag_14\n      jump\t// in\n    tag_11:\n      stop\n        /* \"contracts/manufacturerDistributor.sol\":483:541  mapping(address => uint[]) public distributorTosmIDMapping */\n    tag_4:\n      tag_15\n      0x04\n      dup1\n      calldatasize\n      sub\n      dup2\n      add\n      swap1\n      tag_16\n      swap2\n      swap1\n      tag_17\n      jump\t// in\n    tag_16:\n      tag_18\n      jump\t// in\n    tag_15:\n      mload(0x40)\n      tag_19\n      swap2\n      swap1\n      tag_20\n      jump\t// in\n    tag_19:\n      mload(0x40)\n      dup1\n      swap2\n      sub\n      swap1\n      return\n        /* \"contracts/manufacturerDistributor.sol\":1411:1883  function getAllmdIdForManufacturer(address _distributorAddress) public view returns(manufacturerDistributor[] memory){  ... */\n    tag_5:\n      tag_21\n      0x04\n      dup1\n      calldatasize\n      sub\n      dup2\n      add\n      swap1\n      tag_22\n      swap2\n      swap1\n      tag_23\n      jump\t// in\n    tag_22:\n      tag_24\n      jump\t// in\n    tag_21:\n      mload(0x40)\n      tag_25\n      swap2\n      swap1\n      tag_26\n      jump\t// in\n    tag_25:\n      mload(0x40)\n      dup1\n      swap2\n      sub\n      swap1\n      return\n        /* \"contracts/manufacturerDistributor.sol\":1268:1403  function getProduct(uint _mdid) public view returns(manufacturerDistributor memory){... */\n    tag_6:\n      tag_27\n      0x04\n      dup1\n      calldatasize\n      sub\n      dup2\n      add\n      swap1\n      tag_28\n      swap2\n      swap1\n      tag_13\n      jump\t// in\n    tag_28:\n      tag_29\n      jump\t// in\n    tag_27:\n      mload(0x40)\n      tag_30\n      swap2\n      swap1\n      tag_31\n      jump\t// in\n    tag_30:\n      mload(0x40)\n      dup1\n      swap2\n      sub\n      swap1\n      return\n        /* \"contracts/manufacturerDistributor.sol\":550:1050  function transferproduct(uint _mpId, address _manufacturerAddress,address _distributorAddress,uint32 _dispatchTime,uint32 _arrivalTime)external override{... */\n    tag_7:\n      tag_32\n      0x04\n      dup1\n      calldatasize\n      sub\n      dup2\n      add\n      swap1\n      tag_33\n      swap2\n      swap1\n      tag_34\n      jump\t// in\n    tag_33:\n      tag_35\n      jump\t// in\n    tag_32:\n      stop\n        /* \"contracts/manufacturerDistributor.sol\":409:476  mapping(uint => manufacturerDistributor) public mdidToStructMapping */\n    tag_8:\n      tag_36\n      0x04\n      dup1\n      calldatasize\n      sub\n      dup2\n      add\n      swap1\n      tag_37\n      swap2\n      swap1\n      tag_13\n      jump\t// in\n    tag_37:\n      tag_38\n      jump\t// in\n    tag_36:\n      mload(0x40)\n      tag_39\n      swap6\n      swap5\n      swap4\n      swap3\n      swap2\n      swap1\n      tag_40\n      jump\t// in\n    tag_39:\n      mload(0x40)\n      dup1\n      swap2\n      sub\n      swap1\n      return\n        /* \"contracts/manufacturerDistributor.sol\":192:212  uint public mdId = 1 */\n    tag_9:\n      tag_41\n      tag_42\n      jump\t// in\n    tag_41:\n      mload(0x40)\n      tag_43\n      swap2\n      swap1\n      tag_20\n      jump\t// in\n    tag_43:\n      mload(0x40)\n      dup1\n      swap2\n      sub\n      swap1\n      return\n        /* \"contracts/manufacturerDistributor.sol\":1059:1261  function receiveProduct(uint _mdId)external override{... */\n    tag_14:\n        /* \"contracts/manufacturerDistributor.sol\":1170:1185  block.timestamp */\n      timestamp\n        /* \"contracts/manufacturerDistributor.sol\":1122:1141  mdidToStructMapping */\n      0x02\n        /* \"contracts/manufacturerDistributor.sol\":1122:1148  mdidToStructMapping[_mdId] */\n      0x00\n        /* \"contracts/manufacturerDistributor.sol\":1142:1147  _mdId */\n      dup4\n        /* \"contracts/manufacturerDistributor.sol\":1122:1148  mdidToStructMapping[_mdId] */\n      dup2\n      mstore\n      0x20\n      add\n      swap1\n      dup2\n      mstore\n      0x20\n      add\n      0x00\n      keccak256\n        /* \"contracts/manufacturerDistributor.sol\":1122:1160  mdidToStructMapping[_mdId].arrivalTime */\n      0x02\n      add\n      0x18\n        /* \"contracts/manufacturerDistributor.sol\":1122:1186  mdidToStructMapping[_mdId].arrivalTime = uint32(block.timestamp) */\n      0x0100\n      exp\n      dup2\n      sload\n      dup2\n      0xffffffff\n      mul\n      not\n      and\n      swap1\n      dup4\n      0xffffffff\n      and\n      mul\n      or\n      swap1\n      sstore\n      pop\n        /* \"contracts/manufacturerDistributor.sol\":1202:1243  eventArrivalTime(uint32(block.timestamp)) */\n      0x64e64e323422dcfed18a892f84596ccf7cc94b1952625f3cc82e6461b529fff1\n        /* \"contracts/manufacturerDistributor.sol\":1226:1241  block.timestamp */\n      timestamp\n        /* \"contracts/manufacturerDistributor.sol\":1202:1243  eventArrivalTime(uint32(block.timestamp)) */\n      mload(0x40)\n      tag_45\n      swap2\n      swap1\n      tag_46\n      jump\t// in\n    tag_45:\n      mload(0x40)\n      dup1\n      swap2\n      sub\n      swap1\n      log1\n        /* \"contracts/manufacturerDistributor.sol\":1059:1261  function receiveProduct(uint _mdId)external override{... */\n      pop\n      jump\t// out\n        /* \"contracts/manufacturerDistributor.sol\":483:541  mapping(address => uint[]) public distributorTosmIDMapping */\n    tag_18:\n      mstore(0x20, 0x03)\n      dup2\n      0x00\n      mstore\n      keccak256(0x00, 0x40)\n      dup2\n      dup2\n      sload\n      dup2\n      lt\n      tag_47\n      jumpi\n      0x00\n      dup1\n      revert\n    tag_47:\n      swap1\n      0x00\n      mstore\n      keccak256(0x00, 0x20)\n      add\n      0x00\n      swap2\n      pop\n      swap2\n      pop\n      pop\n      sload\n      dup2\n      jump\t// out\n        /* \"contracts/manufacturerDistributor.sol\":1411:1883  function getAllmdIdForManufacturer(address _distributorAddress) public view returns(manufacturerDistributor[] memory){  ... */\n    tag_24:\n        /* \"contracts/manufacturerDistributor.sol\":1495:1527  manufacturerDistributor[] memory */\n      0x60\n        /* \"contracts/manufacturerDistributor.sol\":1541:1563  uint[] memory mdIdData */\n      0x00\n        /* \"contracts/manufacturerDistributor.sol\":1566:1590  distributorTosmIDMapping */\n      0x03\n        /* \"contracts/manufacturerDistributor.sol\":1566:1611  distributorTosmIDMapping[_distributorAddress] */\n      0x00\n        /* \"contracts/manufacturerDistributor.sol\":1591:1610  _distributorAddress */\n      dup5\n        /* \"contracts/manufacturerDistributor.sol\":1566:1611  distributorTosmIDMapping[_distributorAddress] */\n      0xffffffffffffffffffffffffffffffffffffffff\n      and\n      0xffffffffffffffffffffffffffffffffffffffff\n      and\n      dup2\n      mstore\n      0x20\n      add\n      swap1\n      dup2\n      mstore\n      0x20\n      add\n      0x00\n      keccak256\n        /* \"contracts/manufacturerDistributor.sol\":1541:1611  uint[] memory mdIdData = distributorTosmIDMapping[_distributorAddress] */\n      dup1\n      sload\n      dup1\n      0x20\n      mul\n      0x20\n      add\n      mload(0x40)\n      swap1\n      dup2\n      add\n      0x40\n      mstore\n      dup1\n      swap3\n      swap2\n      swap1\n      dup2\n      dup2\n      mstore\n      0x20\n      add\n      dup3\n      dup1\n      sload\n      dup1\n      iszero\n      tag_50\n      jumpi\n      0x20\n      mul\n      dup3\n      add\n      swap2\n      swap1\n      0x00\n      mstore\n      keccak256(0x00, 0x20)\n      swap1\n    tag_51:\n      dup2\n      sload\n      dup2\n      mstore\n      0x20\n      add\n      swap1\n      0x01\n      add\n      swap1\n      dup1\n      dup4\n      gt\n      tag_51\n      jumpi\n    tag_50:\n      pop\n      pop\n      pop\n      pop\n      pop\n      swap1\n      pop\n        /* \"contracts/manufacturerDistributor.sol\":1622:1666  manufacturerDistributor[] memory mdIdDetails */\n      0x00\n        /* \"contracts/manufacturerDistributor.sol\":1699:1707  mdIdData */\n      dup2\n        /* \"contracts/manufacturerDistributor.sol\":1699:1714  mdIdData.length */\n      mload\n        /* \"contracts/manufacturerDistributor.sol\":1669:1715  new manufacturerDistributor[](mdIdData.length) */\n      0xffffffffffffffff\n      dup2\n      gt\n      iszero\n      tag_52\n      jumpi\n      tag_53\n      tag_54\n      jump\t// in\n    tag_53:\n    tag_52:\n      mload(0x40)\n      swap1\n      dup1\n      dup3\n      mstore\n      dup1\n      0x20\n      mul\n      0x20\n      add\n      dup3\n      add\n      0x40\n      mstore\n      dup1\n      iszero\n      tag_55\n      jumpi\n      dup2\n      0x20\n      add\n    tag_56:\n      tag_57\n      tag_58\n      jump\t// in\n    tag_57:\n      dup2\n      mstore\n      0x20\n      add\n      swap1\n      0x01\n      swap1\n      sub\n      swap1\n      dup2\n      tag_56\n      jumpi\n      swap1\n      pop\n    tag_55:\n      pop\n        /* \"contracts/manufacturerDistributor.sol\":1622:1715  manufacturerDistributor[] memory mdIdDetails = new manufacturerDistributor[](mdIdData.length) */\n      swap1\n      pop\n        /* \"contracts/manufacturerDistributor.sol\":1730:1736  uint i */\n      0x00\n        /* \"contracts/manufacturerDistributor.sol\":1726:1847  for(uint i=0;i<mdIdData.length;i++)... */\n    tag_59:\n        /* \"contracts/manufacturerDistributor.sol\":1741:1749  mdIdData */\n      dup3\n        /* \"contracts/manufacturerDistributor.sol\":1741:1756  mdIdData.length */\n      mload\n        /* \"contracts/manufacturerDistributor.sol\":1739:1740  i */\n      dup2\n        /* \"contracts/manufacturerDistributor.sol\":1739:1756  i<mdIdData.length */\n      lt\n        /* \"contracts/manufacturerDistributor.sol\":1726:1847  for(uint i=0;i<mdIdData.length;i++)... */\n      iszero\n      tag_60\n      jumpi\n        /* \"contracts/manufacturerDistributor.sol\":1803:1822  mdidToStructMapping */\n      0x02\n        /* \"contracts/manufacturerDistributor.sol\":1803:1835  mdidToStructMapping[mdIdData[i]] */\n      0x00\n        /* \"contracts/manufacturerDistributor.sol\":1823:1831  mdIdData */\n      dup5\n        /* \"contracts/manufacturerDistributor.sol\":1832:1833  i */\n      dup4\n        /* \"contracts/manufacturerDistributor.sol\":1823:1834  mdIdData[i] */\n      dup2\n      mload\n      dup2\n      lt\n      tag_62\n      jumpi\n      tag_63\n      tag_64\n      jump\t// in\n    tag_63:\n    tag_62:\n      0x20\n      mul\n      0x20\n      add\n      add\n      mload\n        /* \"contracts/manufacturerDistributor.sol\":1803:1835  mdidToStructMapping[mdIdData[i]] */\n      dup2\n      mstore\n      0x20\n      add\n      swap1\n      dup2\n      mstore\n      0x20\n      add\n      0x00\n      keccak256\n        /* \"contracts/manufacturerDistributor.sol\":1786:1835  mdIdDetails[i] = mdidToStructMapping[mdIdData[i]] */\n      mload(0x40)\n      dup1\n      0xa0\n      add\n      0x40\n      mstore\n      swap1\n      dup2\n      0x00\n      dup3\n      add\n      sload\n      dup2\n      mstore\n      0x20\n      add\n      0x01\n      dup3\n      add\n      0x00\n      swap1\n      sload\n      swap1\n      0x0100\n      exp\n      swap1\n      div\n      0xffffffffffffffffffffffffffffffffffffffff\n      and\n      0xffffffffffffffffffffffffffffffffffffffff\n      and\n      0xffffffffffffffffffffffffffffffffffffffff\n      and\n      dup2\n      mstore\n      0x20\n      add\n      0x02\n      dup3\n      add\n      0x00\n      swap1\n      sload\n      swap1\n      0x0100\n      exp\n      swap1\n      div\n      0xffffffffffffffffffffffffffffffffffffffff\n      and\n      0xffffffffffffffffffffffffffffffffffffffff\n      and\n      0xffffffffffffffffffffffffffffffffffffffff\n      and\n      dup2\n      mstore\n      0x20\n      add\n      0x02\n      dup3\n      add\n      0x14\n      swap1\n      sload\n      swap1\n      0x0100\n      exp\n      swap1\n      div\n      0xffffffff\n      and\n      0xffffffff\n      and\n      0xffffffff\n      and\n      dup2\n      mstore\n      0x20\n      add\n      0x02\n      dup3\n      add\n      0x18\n      swap1\n      sload\n      swap1\n      0x0100\n      exp\n      swap1\n      div\n      0xffffffff\n      and\n      0xffffffff\n      and\n      0xffffffff\n      and\n      dup2\n      mstore\n      pop\n      pop\n        /* \"contracts/manufacturerDistributor.sol\":1786:1797  mdIdDetails */\n      dup3\n        /* \"contracts/manufacturerDistributor.sol\":1798:1799  i */\n      dup3\n        /* \"contracts/manufacturerDistributor.sol\":1786:1800  mdIdDetails[i] */\n      dup2\n      mload\n      dup2\n      lt\n      tag_65\n      jumpi\n      tag_66\n      tag_64\n      jump\t// in\n    tag_66:\n    tag_65:\n      0x20\n      mul\n      0x20\n      add\n      add\n        /* \"contracts/manufacturerDistributor.sol\":1786:1835  mdIdDetails[i] = mdidToStructMapping[mdIdData[i]] */\n      dup2\n      swap1\n      mstore\n      pop\n        /* \"contracts/manufacturerDistributor.sol\":1757:1760  i++ */\n      dup1\n      dup1\n      tag_67\n      swap1\n      tag_68\n      jump\t// in\n    tag_67:\n      swap2\n      pop\n      pop\n        /* \"contracts/manufacturerDistributor.sol\":1726:1847  for(uint i=0;i<mdIdData.length;i++)... */\n      jump(tag_59)\n    tag_60:\n      pop\n        /* \"contracts/manufacturerDistributor.sol\":1864:1875  mdIdDetails */\n      dup1\n        /* \"contracts/manufacturerDistributor.sol\":1857:1875  return mdIdDetails */\n      swap3\n      pop\n      pop\n      pop\n        /* \"contracts/manufacturerDistributor.sol\":1411:1883  function getAllmdIdForManufacturer(address _distributorAddress) public view returns(manufacturerDistributor[] memory){  ... */\n      swap2\n      swap1\n      pop\n      jump\t// out\n        /* \"contracts/manufacturerDistributor.sol\":1268:1403  function getProduct(uint _mdid) public view returns(manufacturerDistributor memory){... */\n    tag_29:\n        /* \"contracts/manufacturerDistributor.sol\":1320:1350  manufacturerDistributor memory */\n      tag_69\n      tag_58\n      jump\t// in\n    tag_69:\n        /* \"contracts/manufacturerDistributor.sol\":1369:1388  mdidToStructMapping */\n      0x02\n        /* \"contracts/manufacturerDistributor.sol\":1369:1395  mdidToStructMapping[_mdid] */\n      0x00\n        /* \"contracts/manufacturerDistributor.sol\":1389:1394  _mdid */\n      dup4\n        /* \"contracts/manufacturerDistributor.sol\":1369:1395  mdidToStructMapping[_mdid] */\n      dup2\n      mstore\n      0x20\n      add\n      swap1\n      dup2\n      mstore\n      0x20\n      add\n      0x00\n      keccak256\n        /* \"contracts/manufacturerDistributor.sol\":1362:1395  return mdidToStructMapping[_mdid] */\n      mload(0x40)\n      dup1\n      0xa0\n      add\n      0x40\n      mstore\n      swap1\n      dup2\n      0x00\n      dup3\n      add\n      sload\n      dup2\n      mstore\n      0x20\n      add\n      0x01\n      dup3\n      add\n      0x00\n      swap1\n      sload\n      swap1\n      0x0100\n      exp\n      swap1\n      div\n      0xffffffffffffffffffffffffffffffffffffffff\n      and\n      0xffffffffffffffffffffffffffffffffffffffff\n      and\n      0xffffffffffffffffffffffffffffffffffffffff\n      and\n      dup2\n      mstore\n      0x20\n      add\n      0x02\n      dup3\n      add\n      0x00\n      swap1\n      sload\n      swap1\n      0x0100\n      exp\n      swap1\n      div\n      0xffffffffffffffffffffffffffffffffffffffff\n      and\n      0xffffffffffffffffffffffffffffffffffffffff\n      and\n      0xffffffffffffffffffffffffffffffffffffffff\n      and\n      dup2\n      mstore\n      0x20\n      add\n      0x02\n      dup3\n      add\n      0x14\n      swap1\n      sload\n      swap1\n      0x0100\n      exp\n      swap1\n      div\n      0xffffffff\n      and\n      0xffffffff\n      and\n      0xffffffff\n      and\n      dup2\n      mstore\n      0x20\n      add\n      0x02\n      dup3\n      add\n      0x18\n      swap1\n      sload\n      swap1\n      0x0100\n      exp\n      swap1\n      div\n      0xffffffff\n      and\n      0xffffffff\n      and\n      0xffffffff\n      and\n      dup2\n      mstore\n      pop\n      pop\n      swap1\n      pop\n        /* \"contracts/manufacturerDistributor.sol\":1268:1403  function getProduct(uint _mdid) public view returns(manufacturerDistributor memory){... */\n      swap2\n      swap1\n      pop\n      jump\t// out\n        /* \"contracts/manufacturerDistributor.sol\":550:1050  function transferproduct(uint _mpId, address _manufacturerAddress,address _distributorAddress,uint32 _dispatchTime,uint32 _arrivalTime)external override{... */\n    tag_35:\n        /* \"contracts/manufacturerDistributor.sol\":741:839  manufacturerDistributor(_mpId,_manufacturerAddress,_distributorAddress,_dispatchTime,_arrivalTime) */\n      mload(0x40)\n      dup1\n      0xa0\n      add\n      0x40\n      mstore\n      dup1\n        /* \"contracts/manufacturerDistributor.sol\":765:770  _mpId */\n      dup7\n        /* \"contracts/manufacturerDistributor.sol\":741:839  manufacturerDistributor(_mpId,_manufacturerAddress,_distributorAddress,_dispatchTime,_arrivalTime) */\n      dup2\n      mstore\n      0x20\n      add\n        /* \"contracts/manufacturerDistributor.sol\":771:791  _manufacturerAddress */\n      dup6\n        /* \"contracts/manufacturerDistributor.sol\":741:839  manufacturerDistributor(_mpId,_manufacturerAddress,_distributorAddress,_dispatchTime,_arrivalTime) */\n      0xffffffffffffffffffffffffffffffffffffffff\n      and\n      dup2\n      mstore\n      0x20\n      add\n        /* \"contracts/manufacturerDistributor.sol\":792:811  _distributorAddress */\n      dup5\n        /* \"contracts/manufacturerDistributor.sol\":741:839  manufacturerDistributor(_mpId,_manufacturerAddress,_distributorAddress,_dispatchTime,_arrivalTime) */\n      0xffffffffffffffffffffffffffffffffffffffff\n      and\n      dup2\n      mstore\n      0x20\n      add\n        /* \"contracts/manufacturerDistributor.sol\":812:825  _dispatchTime */\n      dup4\n        /* \"contracts/manufacturerDistributor.sol\":741:839  manufacturerDistributor(_mpId,_manufacturerAddress,_distributorAddress,_dispatchTime,_arrivalTime) */\n      0xffffffff\n      and\n      dup2\n      mstore\n      0x20\n      add\n        /* \"contracts/manufacturerDistributor.sol\":826:838  _arrivalTime */\n      dup3\n        /* \"contracts/manufacturerDistributor.sol\":741:839  manufacturerDistributor(_mpId,_manufacturerAddress,_distributorAddress,_dispatchTime,_arrivalTime) */\n      0xffffffff\n      and\n      dup2\n      mstore\n      pop\n        /* \"contracts/manufacturerDistributor.sol\":713:732  mdidToStructMapping */\n      0x02\n        /* \"contracts/manufacturerDistributor.sol\":713:738  mdidToStructMapping[mdId] */\n      0x00\n        /* \"contracts/manufacturerDistributor.sol\":733:737  mdId */\n      dup1\n      sload\n        /* \"contracts/manufacturerDistributor.sol\":713:738  mdidToStructMapping[mdId] */\n      dup2\n      mstore\n      0x20\n      add\n      swap1\n      dup2\n      mstore\n      0x20\n      add\n      0x00\n      keccak256\n        /* \"contracts/manufacturerDistributor.sol\":713:839  mdidToStructMapping[mdId] = manufacturerDistributor(_mpId,_manufacturerAddress,_distributorAddress,_dispatchTime,_arrivalTime) */\n      0x00\n      dup3\n      add\n      mload\n      dup2\n      0x00\n      add\n      sstore\n      0x20\n      dup3\n      add\n      mload\n      dup2\n      0x01\n      add\n      exp(0x0100, 0x00)\n      dup2\n      sload\n      dup2\n      0xffffffffffffffffffffffffffffffffffffffff\n      mul\n      not\n      and\n      swap1\n      dup4\n      0xffffffffffffffffffffffffffffffffffffffff\n      and\n      mul\n      or\n      swap1\n      sstore\n      pop\n      0x40\n      dup3\n      add\n      mload\n      dup2\n      0x02\n      add\n      exp(0x0100, 0x00)\n      dup2\n      sload\n      dup2\n      0xffffffffffffffffffffffffffffffffffffffff\n      mul\n      not\n      and\n      swap1\n      dup4\n      0xffffffffffffffffffffffffffffffffffffffff\n      and\n      mul\n      or\n      swap1\n      sstore\n      pop\n      0x60\n      dup3\n      add\n      mload\n      dup2\n      0x02\n      add\n      exp(0x0100, 0x14)\n      dup2\n      sload\n      dup2\n      0xffffffff\n      mul\n      not\n      and\n      swap1\n      dup4\n      0xffffffff\n      and\n      mul\n      or\n      swap1\n      sstore\n      pop\n      0x80\n      dup3\n      add\n      mload\n      dup2\n      0x02\n      add\n      exp(0x0100, 0x18)\n      dup2\n      sload\n      dup2\n      0xffffffff\n      mul\n      not\n      and\n      swap1\n      dup4\n      0xffffffff\n      and\n      mul\n      or\n      swap1\n      sstore\n      pop\n      swap1\n      pop\n      pop\n        /* \"contracts/manufacturerDistributor.sol\":850:874  distributorTosmIDMapping */\n      0x03\n        /* \"contracts/manufacturerDistributor.sol\":850:895  distributorTosmIDMapping[_distributorAddress] */\n      0x00\n        /* \"contracts/manufacturerDistributor.sol\":875:894  _distributorAddress */\n      dup5\n        /* \"contracts/manufacturerDistributor.sol\":850:895  distributorTosmIDMapping[_distributorAddress] */\n      0xffffffffffffffffffffffffffffffffffffffff\n      and\n      0xffffffffffffffffffffffffffffffffffffffff\n      and\n      dup2\n      mstore\n      0x20\n      add\n      swap1\n      dup2\n      mstore\n      0x20\n      add\n      0x00\n      keccak256\n        /* \"contracts/manufacturerDistributor.sol\":901:905  mdId */\n      sload(0x00)\n        /* \"contracts/manufacturerDistributor.sol\":850:906  distributorTosmIDMapping[_distributorAddress].push(mdId) */\n      swap1\n      dup1\n      0x01\n      dup2\n      sload\n      add\n      dup1\n      dup3\n      sstore\n      dup1\n      swap2\n      pop\n      pop\n      0x01\n      swap1\n      sub\n      swap1\n      0x00\n      mstore\n      keccak256(0x00, 0x20)\n      add\n      0x00\n      swap1\n      swap2\n      swap1\n      swap2\n      swap1\n      swap2\n      pop\n      sstore\n        /* \"contracts/manufacturerDistributor.sol\":964:969  _mpId */\n      dup5\n        /* \"contracts/manufacturerDistributor.sol\":959:963  mdId */\n      sload(0x00)\n        /* \"contracts/manufacturerDistributor.sol\":922:1025  eventManufacturerDistributorTransfer(mdId,_mpId,_manufacturerAddress,_distributorAddress,_dispatchTime) */\n      0x3d9c6d7fedf256315259fe8cb6863117af8f4a56f16c0767d72c06359e16e533\n        /* \"contracts/manufacturerDistributor.sol\":970:990  _manufacturerAddress */\n      dup7\n        /* \"contracts/manufacturerDistributor.sol\":991:1010  _distributorAddress */\n      dup7\n        /* \"contracts/manufacturerDistributor.sol\":1011:1024  _dispatchTime */\n      dup7\n        /* \"contracts/manufacturerDistributor.sol\":922:1025  eventManufacturerDistributorTransfer(mdId,_mpId,_manufacturerAddress,_distributorAddress,_dispatchTime) */\n      mload(0x40)\n      tag_73\n      swap4\n      swap3\n      swap2\n      swap1\n      tag_74\n      jump\t// in\n    tag_73:\n      mload(0x40)\n      dup1\n      swap2\n      sub\n      swap1\n      log3\n        /* \"contracts/manufacturerDistributor.sol\":1036:1040  mdId */\n      0x00\n      dup1\n        /* \"contracts/manufacturerDistributor.sol\":1036:1042  mdId++ */\n      dup2\n      sload\n      dup1\n      swap3\n      swap2\n      swap1\n      tag_75\n      swap1\n      tag_68\n      jump\t// in\n    tag_75:\n      swap2\n      swap1\n      pop\n      sstore\n      pop\n        /* \"contracts/manufacturerDistributor.sol\":550:1050  function transferproduct(uint _mpId, address _manufacturerAddress,address _distributorAddress,uint32 _dispatchTime,uint32 _arrivalTime)external override{... */\n      pop\n      pop\n      pop\n      pop\n      pop\n      jump\t// out\n        /* \"contracts/manufacturerDistributor.sol\":409:476  mapping(uint => manufacturerDistributor) public mdidToStructMapping */\n    tag_38:\n      mstore(0x20, 0x02)\n      dup1\n      0x00\n      mstore\n      keccak256(0x00, 0x40)\n      0x00\n      swap2\n      pop\n      swap1\n      pop\n      dup1\n      0x00\n      add\n      sload\n      swap1\n      dup1\n      0x01\n      add\n      0x00\n      swap1\n      sload\n      swap1\n      0x0100\n      exp\n      swap1\n      div\n      0xffffffffffffffffffffffffffffffffffffffff\n      and\n      swap1\n      dup1\n      0x02\n      add\n      0x00\n      swap1\n      sload\n      swap1\n      0x0100\n      exp\n      swap1\n      div\n      0xffffffffffffffffffffffffffffffffffffffff\n      and\n      swap1\n      dup1\n      0x02\n      add\n      0x14\n      swap1\n      sload\n      swap1\n      0x0100\n      exp\n      swap1\n      div\n      0xffffffff\n      and\n      swap1\n      dup1\n      0x02\n      add\n      0x18\n      swap1\n      sload\n      swap1\n      0x0100\n      exp\n      swap1\n      div\n      0xffffffff\n      and\n      swap1\n      pop\n      dup6\n      jump\t// out\n        /* \"contracts/manufacturerDistributor.sol\":192:212  uint public mdId = 1 */\n    tag_42:\n      sload(0x00)\n      dup2\n      jump\t// out\n    tag_58:\n      mload(0x40)\n      dup1\n      0xa0\n      add\n      0x40\n      mstore\n      dup1\n      0x00\n      dup2\n      mstore\n      0x20\n      add\n      and(0xffffffffffffffffffffffffffffffffffffffff, 0x00)\n      dup2\n      mstore\n      0x20\n      add\n      and(0xffffffffffffffffffffffffffffffffffffffff, 0x00)\n      dup2\n      mstore\n      0x20\n      add\n      and(0xffffffff, 0x00)\n      dup2\n      mstore\n      0x20\n      add\n      and(0xffffffff, 0x00)\n      dup2\n      mstore\n      pop\n      swap1\n      jump\t// out\n        /* \"#utility.yul\":88:205   */\n    tag_77:\n        /* \"#utility.yul\":197:198   */\n      0x00\n        /* \"#utility.yul\":194:195   */\n      dup1\n        /* \"#utility.yul\":187:199   */\n      revert\n        /* \"#utility.yul\":334:411   */\n    tag_79:\n        /* \"#utility.yul\":371:378   */\n      0x00\n        /* \"#utility.yul\":400:405   */\n      dup2\n        /* \"#utility.yul\":389:405   */\n      swap1\n      pop\n        /* \"#utility.yul\":334:411   */\n      swap2\n      swap1\n      pop\n      jump\t// out\n        /* \"#utility.yul\":417:539   */\n    tag_80:\n        /* \"#utility.yul\":490:514   */\n      tag_110\n        /* \"#utility.yul\":508:513   */\n      dup2\n        /* \"#utility.yul\":490:514   */\n      tag_79\n      jump\t// in\n    tag_110:\n        /* \"#utility.yul\":483:488   */\n      dup2\n        /* \"#utility.yul\":480:515   */\n      eq\n        /* \"#utility.yul\":470:533   */\n      tag_111\n      jumpi\n        /* \"#utility.yul\":529:530   */\n      0x00\n        /* \"#utility.yul\":526:527   */\n      dup1\n        /* \"#utility.yul\":519:531   */\n      revert\n        /* \"#utility.yul\":470:533   */\n    tag_111:\n        /* \"#utility.yul\":417:539   */\n      pop\n      jump\t// out\n        /* \"#utility.yul\":545:684   */\n    tag_81:\n        /* \"#utility.yul\":591:596   */\n      0x00\n        /* \"#utility.yul\":629:635   */\n      dup2\n        /* \"#utility.yul\":616:636   */\n      calldataload\n        /* \"#utility.yul\":607:636   */\n      swap1\n      pop\n        /* \"#utility.yul\":645:678   */\n      tag_113\n        /* \"#utility.yul\":672:677   */\n      dup2\n        /* \"#utility.yul\":645:678   */\n      tag_80\n      jump\t// in\n    tag_113:\n        /* \"#utility.yul\":545:684   */\n      swap3\n      swap2\n      pop\n      pop\n      jump\t// out\n        /* \"#utility.yul\":690:1019   */\n    tag_13:\n        /* \"#utility.yul\":749:755   */\n      0x00\n        /* \"#utility.yul\":798:800   */\n      0x20\n        /* \"#utility.yul\":786:795   */\n      dup3\n        /* \"#utility.yul\":777:784   */\n      dup5\n        /* \"#utility.yul\":773:796   */\n      sub\n        /* \"#utility.yul\":769:801   */\n      slt\n        /* \"#utility.yul\":766:885   */\n      iszero\n      tag_115\n      jumpi\n        /* \"#utility.yul\":804:883   */\n      tag_116\n      tag_77\n      jump\t// in\n    tag_116:\n        /* \"#utility.yul\":766:885   */\n    tag_115:\n        /* \"#utility.yul\":924:925   */\n      0x00\n        /* \"#utility.yul\":949:1002   */\n      tag_117\n        /* \"#utility.yul\":994:1001   */\n      dup5\n        /* \"#utility.yul\":985:991   */\n      dup3\n        /* \"#utility.yul\":974:983   */\n      dup6\n        /* \"#utility.yul\":970:992   */\n      add\n        /* \"#utility.yul\":949:1002   */\n      tag_81\n      jump\t// in\n    tag_117:\n        /* \"#utility.yul\":939:1002   */\n      swap2\n      pop\n        /* \"#utility.yul\":895:1012   */\n      pop\n        /* \"#utility.yul\":690:1019   */\n      swap3\n      swap2\n      pop\n      pop\n      jump\t// out\n        /* \"#utility.yul\":1025:1151   */\n    tag_82:\n        /* \"#utility.yul\":1062:1069   */\n      0x00\n        /* \"#utility.yul\":1102:1144   */\n      0xffffffffffffffffffffffffffffffffffffffff\n        /* \"#utility.yul\":1095:1100   */\n      dup3\n        /* \"#utility.yul\":1091:1145   */\n      and\n        /* \"#utility.yul\":1080:1145   */\n      swap1\n      pop\n        /* \"#utility.yul\":1025:1151   */\n      swap2\n      swap1\n      pop\n      jump\t// out\n        /* \"#utility.yul\":1157:1253   */\n    tag_83:\n        /* \"#utility.yul\":1194:1201   */\n      0x00\n        /* \"#utility.yul\":1223:1247   */\n      tag_120\n        /* \"#utility.yul\":1241:1246   */\n      dup3\n        /* \"#utility.yul\":1223:1247   */\n      tag_82\n      jump\t// in\n    tag_120:\n        /* \"#utility.yul\":1212:1247   */\n      swap1\n      pop\n        /* \"#utility.yul\":1157:1253   */\n      swap2\n      swap1\n      pop\n      jump\t// out\n        /* \"#utility.yul\":1259:1381   */\n    tag_84:\n        /* \"#utility.yul\":1332:1356   */\n      tag_122\n        /* \"#utility.yul\":1350:1355   */\n      dup2\n        /* \"#utility.yul\":1332:1356   */\n      tag_83\n      jump\t// in\n    tag_122:\n        /* \"#utility.yul\":1325:1330   */\n      dup2\n        /* \"#utility.yul\":1322:1357   */\n      eq\n        /* \"#utility.yul\":1312:1375   */\n      tag_123\n      jumpi\n        /* \"#utility.yul\":1371:1372   */\n      0x00\n        /* \"#utility.yul\":1368:1369   */\n      dup1\n        /* \"#utility.yul\":1361:1373   */\n      revert\n        /* \"#utility.yul\":1312:1375   */\n    tag_123:\n        /* \"#utility.yul\":1259:1381   */\n      pop\n      jump\t// out\n        /* \"#utility.yul\":1387:1526   */\n    tag_85:\n        /* \"#utility.yul\":1433:1438   */\n      0x00\n        /* \"#utility.yul\":1471:1477   */\n      dup2\n        /* \"#utility.yul\":1458:1478   */\n      calldataload\n        /* \"#utility.yul\":1449:1478   */\n      swap1\n      pop\n        /* \"#utility.yul\":1487:1520   */\n      tag_125\n        /* \"#utility.yul\":1514:1519   */\n      dup2\n        /* \"#utility.yul\":1487:1520   */\n      tag_84\n      jump\t// in\n    tag_125:\n        /* \"#utility.yul\":1387:1526   */\n      swap3\n      swap2\n      pop\n      pop\n      jump\t// out\n        /* \"#utility.yul\":1532:2006   */\n    tag_17:\n        /* \"#utility.yul\":1600:1606   */\n      0x00\n        /* \"#utility.yul\":1608:1614   */\n      dup1\n        /* \"#utility.yul\":1657:1659   */\n      0x40\n        /* \"#utility.yul\":1645:1654   */\n      dup4\n        /* \"#utility.yul\":1636:1643   */\n      dup6\n        /* \"#utility.yul\":1632:1655   */\n      sub\n        /* \"#utility.yul\":1628:1660   */\n      slt\n        /* \"#utility.yul\":1625:1744   */\n      iszero\n      tag_127\n      jumpi\n        /* \"#utility.yul\":1663:1742   */\n      tag_128\n      tag_77\n      jump\t// in\n    tag_128:\n        /* \"#utility.yul\":1625:1744   */\n    tag_127:\n        /* \"#utility.yul\":1783:1784   */\n      0x00\n        /* \"#utility.yul\":1808:1861   */\n      tag_129\n        /* \"#utility.yul\":1853:1860   */\n      dup6\n        /* \"#utility.yul\":1844:1850   */\n      dup3\n        /* \"#utility.yul\":1833:1842   */\n      dup7\n        /* \"#utility.yul\":1829:1851   */\n      add\n        /* \"#utility.yul\":1808:1861   */\n      tag_85\n      jump\t// in\n    tag_129:\n        /* \"#utility.yul\":1798:1861   */\n      swap3\n      pop\n        /* \"#utility.yul\":1754:1871   */\n      pop\n        /* \"#utility.yul\":1910:1912   */\n      0x20\n        /* \"#utility.yul\":1936:1989   */\n      tag_130\n        /* \"#utility.yul\":1981:1988   */\n      dup6\n        /* \"#utility.yul\":1972:1978   */\n      dup3\n        /* \"#utility.yul\":1961:1970   */\n      dup7\n        /* \"#utility.yul\":1957:1979   */\n      add\n        /* \"#utility.yul\":1936:1989   */\n      tag_81\n      jump\t// in\n    tag_130:\n        /* \"#utility.yul\":1926:1989   */\n      swap2\n      pop\n        /* \"#utility.yul\":1881:1999   */\n      pop\n        /* \"#utility.yul\":1532:2006   */\n      swap3\n      pop\n      swap3\n      swap1\n      pop\n      jump\t// out\n        /* \"#utility.yul\":2012:2130   */\n    tag_86:\n        /* \"#utility.yul\":2099:2123   */\n      tag_132\n        /* \"#utility.yul\":2117:2122   */\n      dup2\n        /* \"#utility.yul\":2099:2123   */\n      tag_79\n      jump\t// in\n    tag_132:\n        /* \"#utility.yul\":2094:2097   */\n      dup3\n        /* \"#utility.yul\":2087:2124   */\n      mstore\n        /* \"#utility.yul\":2012:2130   */\n      pop\n      pop\n      jump\t// out\n        /* \"#utility.yul\":2136:2358   */\n    tag_20:\n        /* \"#utility.yul\":2229:2233   */\n      0x00\n        /* \"#utility.yul\":2267:2269   */\n      0x20\n        /* \"#utility.yul\":2256:2265   */\n      dup3\n        /* \"#utility.yul\":2252:2270   */\n      add\n        /* \"#utility.yul\":2244:2270   */\n      swap1\n      pop\n        /* \"#utility.yul\":2280:2351   */\n      tag_134\n        /* \"#utility.yul\":2348:2349   */\n      0x00\n        /* \"#utility.yul\":2337:2346   */\n      dup4\n        /* \"#utility.yul\":2333:2350   */\n      add\n        /* \"#utility.yul\":2324:2330   */\n      dup5\n        /* \"#utility.yul\":2280:2351   */\n      tag_86\n      jump\t// in\n    tag_134:\n        /* \"#utility.yul\":2136:2358   */\n      swap3\n      swap2\n      pop\n      pop\n      jump\t// out\n        /* \"#utility.yul\":2364:2693   */\n    tag_23:\n        /* \"#utility.yul\":2423:2429   */\n      0x00\n        /* \"#utility.yul\":2472:2474   */\n      0x20\n        /* \"#utility.yul\":2460:2469   */\n      dup3\n        /* \"#utility.yul\":2451:2458   */\n      dup5\n        /* \"#utility.yul\":2447:2470   */\n      sub\n        /* \"#utility.yul\":2443:2475   */\n      slt\n        /* \"#utility.yul\":2440:2559   */\n      iszero\n      tag_136\n      jumpi\n        /* \"#utility.yul\":2478:2557   */\n      tag_137\n      tag_77\n      jump\t// in\n    tag_137:\n        /* \"#utility.yul\":2440:2559   */\n    tag_136:\n        /* \"#utility.yul\":2598:2599   */\n      0x00\n        /* \"#utility.yul\":2623:2676   */\n      tag_138\n        /* \"#utility.yul\":2668:2675   */\n      dup5\n        /* \"#utility.yul\":2659:2665   */\n      dup3\n        /* \"#utility.yul\":2648:2657   */\n      dup6\n        /* \"#utility.yul\":2644:2666   */\n      add\n        /* \"#utility.yul\":2623:2676   */\n      tag_85\n      jump\t// in\n    tag_138:\n        /* \"#utility.yul\":2613:2676   */\n      swap2\n      pop\n        /* \"#utility.yul\":2569:2686   */\n      pop\n        /* \"#utility.yul\":2364:2693   */\n      swap3\n      swap2\n      pop\n      pop\n      jump\t// out\n        /* \"#utility.yul\":2699:2852   */\n    tag_87:\n        /* \"#utility.yul\":2805:2811   */\n      0x00\n        /* \"#utility.yul\":2839:2844   */\n      dup2\n        /* \"#utility.yul\":2833:2845   */\n      mload\n        /* \"#utility.yul\":2823:2845   */\n      swap1\n      pop\n        /* \"#utility.yul\":2699:2852   */\n      swap2\n      swap1\n      pop\n      jump\t// out\n        /* \"#utility.yul\":2858:3081   */\n    tag_88:\n        /* \"#utility.yul\":2996:3007   */\n      0x00\n        /* \"#utility.yul\":3030:3036   */\n      dup3\n        /* \"#utility.yul\":3025:3028   */\n      dup3\n        /* \"#utility.yul\":3018:3037   */\n      mstore\n        /* \"#utility.yul\":3070:3074   */\n      0x20\n        /* \"#utility.yul\":3065:3068   */\n      dup3\n        /* \"#utility.yul\":3061:3075   */\n      add\n        /* \"#utility.yul\":3046:3075   */\n      swap1\n      pop\n        /* \"#utility.yul\":2858:3081   */\n      swap3\n      swap2\n      pop\n      pop\n      jump\t// out\n        /* \"#utility.yul\":3087:3258   */\n    tag_89:\n        /* \"#utility.yul\":3193:3197   */\n      0x00\n        /* \"#utility.yul\":3216:3219   */\n      dup2\n        /* \"#utility.yul\":3208:3219   */\n      swap1\n      pop\n        /* \"#utility.yul\":3246:3250   */\n      0x20\n        /* \"#utility.yul\":3241:3244   */\n      dup3\n        /* \"#utility.yul\":3237:3251   */\n      add\n        /* \"#utility.yul\":3229:3251   */\n      swap1\n      pop\n        /* \"#utility.yul\":3087:3258   */\n      swap2\n      swap1\n      pop\n      jump\t// out\n        /* \"#utility.yul\":3264:3372   */\n    tag_90:\n        /* \"#utility.yul\":3341:3365   */\n      tag_143\n        /* \"#utility.yul\":3359:3364   */\n      dup2\n        /* \"#utility.yul\":3341:3365   */\n      tag_79\n      jump\t// in\n    tag_143:\n        /* \"#utility.yul\":3336:3339   */\n      dup3\n        /* \"#utility.yul\":3329:3366   */\n      mstore\n        /* \"#utility.yul\":3264:3372   */\n      pop\n      pop\n      jump\t// out\n        /* \"#utility.yul\":3378:3486   */\n    tag_91:\n        /* \"#utility.yul\":3455:3479   */\n      tag_145\n        /* \"#utility.yul\":3473:3478   */\n      dup2\n        /* \"#utility.yul\":3455:3479   */\n      tag_83\n      jump\t// in\n    tag_145:\n        /* \"#utility.yul\":3450:3453   */\n      dup3\n        /* \"#utility.yul\":3443:3480   */\n      mstore\n        /* \"#utility.yul\":3378:3486   */\n      pop\n      pop\n      jump\t// out\n        /* \"#utility.yul\":3492:3585   */\n    tag_92:\n        /* \"#utility.yul\":3528:3535   */\n      0x00\n        /* \"#utility.yul\":3568:3578   */\n      0xffffffff\n        /* \"#utility.yul\":3561:3566   */\n      dup3\n        /* \"#utility.yul\":3557:3579   */\n      and\n        /* \"#utility.yul\":3546:3579   */\n      swap1\n      pop\n        /* \"#utility.yul\":3492:3585   */\n      swap2\n      swap1\n      pop\n      jump\t// out\n        /* \"#utility.yul\":3591:3696   */\n    tag_93:\n        /* \"#utility.yul\":3666:3689   */\n      tag_148\n        /* \"#utility.yul\":3683:3688   */\n      dup2\n        /* \"#utility.yul\":3666:3689   */\n      tag_92\n      jump\t// in\n    tag_148:\n        /* \"#utility.yul\":3661:3664   */\n      dup3\n        /* \"#utility.yul\":3654:3690   */\n      mstore\n        /* \"#utility.yul\":3591:3696   */\n      pop\n      pop\n      jump\t// out\n        /* \"#utility.yul\":3824:4892   */\n    tag_94:\n        /* \"#utility.yul\":3989:3993   */\n      0xa0\n        /* \"#utility.yul\":3984:3987   */\n      dup3\n        /* \"#utility.yul\":3980:3994   */\n      add\n        /* \"#utility.yul\":4076:4080   */\n      0x00\n        /* \"#utility.yul\":4069:4074   */\n      dup3\n        /* \"#utility.yul\":4065:4081   */\n      add\n        /* \"#utility.yul\":4059:4082   */\n      mload\n        /* \"#utility.yul\":4095:4158   */\n      tag_150\n        /* \"#utility.yul\":4152:4156   */\n      0x00\n        /* \"#utility.yul\":4147:4150   */\n      dup6\n        /* \"#utility.yul\":4143:4157   */\n      add\n        /* \"#utility.yul\":4129:4141   */\n      dup3\n        /* \"#utility.yul\":4095:4158   */\n      tag_90\n      jump\t// in\n    tag_150:\n        /* \"#utility.yul\":4004:4168   */\n      pop\n        /* \"#utility.yul\":4255:4259   */\n      0x20\n        /* \"#utility.yul\":4248:4253   */\n      dup3\n        /* \"#utility.yul\":4244:4260   */\n      add\n        /* \"#utility.yul\":4238:4261   */\n      mload\n        /* \"#utility.yul\":4274:4337   */\n      tag_151\n        /* \"#utility.yul\":4331:4335   */\n      0x20\n        /* \"#utility.yul\":4326:4329   */\n      dup6\n        /* \"#utility.yul\":4322:4336   */\n      add\n        /* \"#utility.yul\":4308:4320   */\n      dup3\n        /* \"#utility.yul\":4274:4337   */\n      tag_91\n      jump\t// in\n    tag_151:\n        /* \"#utility.yul\":4178:4347   */\n      pop\n        /* \"#utility.yul\":4434:4438   */\n      0x40\n        /* \"#utility.yul\":4427:4432   */\n      dup3\n        /* \"#utility.yul\":4423:4439   */\n      add\n        /* \"#utility.yul\":4417:4440   */\n      mload\n        /* \"#utility.yul\":4453:4516   */\n      tag_152\n        /* \"#utility.yul\":4510:4514   */\n      0x40\n        /* \"#utility.yul\":4505:4508   */\n      dup6\n        /* \"#utility.yul\":4501:4515   */\n      add\n        /* \"#utility.yul\":4487:4499   */\n      dup3\n        /* \"#utility.yul\":4453:4516   */\n      tag_91\n      jump\t// in\n    tag_152:\n        /* \"#utility.yul\":4357:4526   */\n      pop\n        /* \"#utility.yul\":4616:4620   */\n      0x60\n        /* \"#utility.yul\":4609:4614   */\n      dup3\n        /* \"#utility.yul\":4605:4621   */\n      add\n        /* \"#utility.yul\":4599:4622   */\n      mload\n        /* \"#utility.yul\":4635:4696   */\n      tag_153\n        /* \"#utility.yul\":4690:4694   */\n      0x60\n        /* \"#utility.yul\":4685:4688   */\n      dup6\n        /* \"#utility.yul\":4681:4695   */\n      add\n        /* \"#utility.yul\":4667:4679   */\n      dup3\n        /* \"#utility.yul\":4635:4696   */\n      tag_93\n      jump\t// in\n    tag_153:\n        /* \"#utility.yul\":4536:4706   */\n      pop\n        /* \"#utility.yul\":4795:4799   */\n      0x80\n        /* \"#utility.yul\":4788:4793   */\n      dup3\n        /* \"#utility.yul\":4784:4800   */\n      add\n        /* \"#utility.yul\":4778:4801   */\n      mload\n        /* \"#utility.yul\":4814:4875   */\n      tag_154\n        /* \"#utility.yul\":4869:4873   */\n      0x80\n        /* \"#utility.yul\":4864:4867   */\n      dup6\n        /* \"#utility.yul\":4860:4874   */\n      add\n        /* \"#utility.yul\":4846:4858   */\n      dup3\n        /* \"#utility.yul\":4814:4875   */\n      tag_93\n      jump\t// in\n    tag_154:\n        /* \"#utility.yul\":4716:4885   */\n      pop\n        /* \"#utility.yul\":3958:4892   */\n      pop\n        /* \"#utility.yul\":3824:4892   */\n      pop\n      pop\n      jump\t// out\n        /* \"#utility.yul\":4898:5233   */\n    tag_95:\n        /* \"#utility.yul\":5045:5055   */\n      0x00\n        /* \"#utility.yul\":5066:5190   */\n      tag_156\n        /* \"#utility.yul\":5186:5189   */\n      dup4\n        /* \"#utility.yul\":5178:5184   */\n      dup4\n        /* \"#utility.yul\":5066:5190   */\n      tag_94\n      jump\t// in\n    tag_156:\n        /* \"#utility.yul\":5222:5226   */\n      0xa0\n        /* \"#utility.yul\":5217:5220   */\n      dup4\n        /* \"#utility.yul\":5213:5227   */\n      add\n        /* \"#utility.yul\":5199:5227   */\n      swap1\n      pop\n        /* \"#utility.yul\":4898:5233   */\n      swap3\n      swap2\n      pop\n      pop\n      jump\t// out\n        /* \"#utility.yul\":5239:5391   */\n    tag_96:\n        /* \"#utility.yul\":5348:5352   */\n      0x00\n        /* \"#utility.yul\":5380:5384   */\n      0x20\n        /* \"#utility.yul\":5375:5378   */\n      dup3\n        /* \"#utility.yul\":5371:5385   */\n      add\n        /* \"#utility.yul\":5363:5385   */\n      swap1\n      pop\n        /* \"#utility.yul\":5239:5391   */\n      swap2\n      swap1\n      pop\n      jump\t// out\n        /* \"#utility.yul\":5523:6567   */\n    tag_97:\n        /* \"#utility.yul\":5720:5723   */\n      0x00\n        /* \"#utility.yul\":5749:5842   */\n      tag_159\n        /* \"#utility.yul\":5836:5841   */\n      dup3\n        /* \"#utility.yul\":5749:5842   */\n      tag_87\n      jump\t// in\n    tag_159:\n        /* \"#utility.yul\":5858:5983   */\n      tag_160\n        /* \"#utility.yul\":5976:5982   */\n      dup2\n        /* \"#utility.yul\":5971:5974   */\n      dup6\n        /* \"#utility.yul\":5858:5983   */\n      tag_88\n      jump\t// in\n    tag_160:\n        /* \"#utility.yul\":5851:5983   */\n      swap4\n      pop\n        /* \"#utility.yul\":6007:6102   */\n      tag_161\n        /* \"#utility.yul\":6096:6101   */\n      dup4\n        /* \"#utility.yul\":6007:6102   */\n      tag_89\n      jump\t// in\n    tag_161:\n        /* \"#utility.yul\":6125:6132   */\n      dup1\n        /* \"#utility.yul\":6156:6157   */\n      0x00\n        /* \"#utility.yul\":6141:6542   */\n    tag_162:\n        /* \"#utility.yul\":6166:6172   */\n      dup4\n        /* \"#utility.yul\":6163:6164   */\n      dup2\n        /* \"#utility.yul\":6160:6173   */\n      lt\n        /* \"#utility.yul\":6141:6542   */\n      iszero\n      tag_164\n      jumpi\n        /* \"#utility.yul\":6242:6248   */\n      dup2\n        /* \"#utility.yul\":6236:6249   */\n      mload\n        /* \"#utility.yul\":6269:6410   */\n      tag_165\n        /* \"#utility.yul\":6406:6409   */\n      dup9\n        /* \"#utility.yul\":6391:6404   */\n      dup3\n        /* \"#utility.yul\":6269:6410   */\n      tag_95\n      jump\t// in\n    tag_165:\n        /* \"#utility.yul\":6262:6410   */\n      swap8\n      pop\n        /* \"#utility.yul\":6433:6532   */\n      tag_166\n        /* \"#utility.yul\":6525:6531   */\n      dup4\n        /* \"#utility.yul\":6433:6532   */\n      tag_96\n      jump\t// in\n    tag_166:\n        /* \"#utility.yul\":6423:6532   */\n      swap3\n      pop\n        /* \"#utility.yul\":6201:6542   */\n      pop\n        /* \"#utility.yul\":6188:6189   */\n      0x01\n        /* \"#utility.yul\":6185:6186   */\n      dup2\n        /* \"#utility.yul\":6181:6190   */\n      add\n        /* \"#utility.yul\":6176:6190   */\n      swap1\n      pop\n        /* \"#utility.yul\":6141:6542   */\n      jump(tag_162)\n    tag_164:\n        /* \"#utility.yul\":6145:6159   */\n      pop\n        /* \"#utility.yul\":6558:6561   */\n      dup6\n        /* \"#utility.yul\":6551:6561   */\n      swap4\n      pop\n        /* \"#utility.yul\":5725:6567   */\n      pop\n      pop\n      pop\n        /* \"#utility.yul\":5523:6567   */\n      swap3\n      swap2\n      pop\n      pop\n      jump\t// out\n        /* \"#utility.yul\":6573:7102   */\n    tag_26:\n        /* \"#utility.yul\":6794:6798   */\n      0x00\n        /* \"#utility.yul\":6832:6834   */\n      0x20\n        /* \"#utility.yul\":6821:6830   */\n      dup3\n        /* \"#utility.yul\":6817:6835   */\n      add\n        /* \"#utility.yul\":6809:6835   */\n      swap1\n      pop\n        /* \"#utility.yul\":6881:6890   */\n      dup2\n        /* \"#utility.yul\":6875:6879   */\n      dup2\n        /* \"#utility.yul\":6871:6891   */\n      sub\n        /* \"#utility.yul\":6867:6868   */\n      0x00\n        /* \"#utility.yul\":6856:6865   */\n      dup4\n        /* \"#utility.yul\":6852:6869   */\n      add\n        /* \"#utility.yul\":6845:6892   */\n      mstore\n        /* \"#utility.yul\":6909:7095   */\n      tag_168\n        /* \"#utility.yul\":7090:7094   */\n      dup2\n        /* \"#utility.yul\":7081:7087   */\n      dup5\n        /* \"#utility.yul\":6909:7095   */\n      tag_97\n      jump\t// in\n    tag_168:\n        /* \"#utility.yul\":6901:7095   */\n      swap1\n      pop\n        /* \"#utility.yul\":6573:7102   */\n      swap3\n      swap2\n      pop\n      pop\n      jump\t// out\n        /* \"#utility.yul\":7230:8308   */\n    tag_98:\n        /* \"#utility.yul\":7405:7409   */\n      0xa0\n        /* \"#utility.yul\":7400:7403   */\n      dup3\n        /* \"#utility.yul\":7396:7410   */\n      add\n        /* \"#utility.yul\":7492:7496   */\n      0x00\n        /* \"#utility.yul\":7485:7490   */\n      dup3\n        /* \"#utility.yul\":7481:7497   */\n      add\n        /* \"#utility.yul\":7475:7498   */\n      mload\n        /* \"#utility.yul\":7511:7574   */\n      tag_170\n        /* \"#utility.yul\":7568:7572   */\n      0x00\n        /* \"#utility.yul\":7563:7566   */\n      dup6\n        /* \"#utility.yul\":7559:7573   */\n      add\n        /* \"#utility.yul\":7545:7557   */\n      dup3\n        /* \"#utility.yul\":7511:7574   */\n      tag_90\n      jump\t// in\n    tag_170:\n        /* \"#utility.yul\":7420:7584   */\n      pop\n        /* \"#utility.yul\":7671:7675   */\n      0x20\n        /* \"#utility.yul\":7664:7669   */\n      dup3\n        /* \"#utility.yul\":7660:7676   */\n      add\n        /* \"#utility.yul\":7654:7677   */\n      mload\n        /* \"#utility.yul\":7690:7753   */\n      tag_171\n        /* \"#utility.yul\":7747:7751   */\n      0x20\n        /* \"#utility.yul\":7742:7745   */\n      dup6\n        /* \"#utility.yul\":7738:7752   */\n      add\n        /* \"#utility.yul\":7724:7736   */\n      dup3\n        /* \"#utility.yul\":7690:7753   */\n      tag_91\n      jump\t// in\n    tag_171:\n        /* \"#utility.yul\":7594:7763   */\n      pop\n        /* \"#utility.yul\":7850:7854   */\n      0x40\n        /* \"#utility.yul\":7843:7848   */\n      dup3\n        /* \"#utility.yul\":7839:7855   */\n      add\n        /* \"#utility.yul\":7833:7856   */\n      mload\n        /* \"#utility.yul\":7869:7932   */\n      tag_172\n        /* \"#utility.yul\":7926:7930   */\n      0x40\n        /* \"#utility.yul\":7921:7924   */\n      dup6\n        /* \"#utility.yul\":7917:7931   */\n      add\n        /* \"#utility.yul\":7903:7915   */\n      dup3\n        /* \"#utility.yul\":7869:7932   */\n      tag_91\n      jump\t// in\n    tag_172:\n        /* \"#utility.yul\":7773:7942   */\n      pop\n        /* \"#utility.yul\":8032:8036   */\n      0x60\n        /* \"#utility.yul\":8025:8030   */\n      dup3\n        /* \"#utility.yul\":8021:8037   */\n      add\n        /* \"#utility.yul\":8015:8038   */\n      mload\n        /* \"#utility.yul\":8051:8112   */\n      tag_173\n        /* \"#utility.yul\":8106:8110   */\n      0x60\n        /* \"#utility.yul\":8101:8104   */\n      dup6\n        /* \"#utility.yul\":8097:8111   */\n      add\n        /* \"#utility.yul\":8083:8095   */\n      dup3\n        /* \"#utility.yul\":8051:8112   */\n      tag_93\n      jump\t// in\n    tag_173:\n        /* \"#utility.yul\":7952:8122   */\n      pop\n        /* \"#utility.yul\":8211:8215   */\n      0x80\n        /* \"#utility.yul\":8204:8209   */\n      dup3\n        /* \"#utility.yul\":8200:8216   */\n      add\n        /* \"#utility.yul\":8194:8217   */\n      mload\n        /* \"#utility.yul\":8230:8291   */\n      tag_174\n        /* \"#utility.yul\":8285:8289   */\n      0x80\n        /* \"#utility.yul\":8280:8283   */\n      dup6\n        /* \"#utility.yul\":8276:8290   */\n      add\n        /* \"#utility.yul\":8262:8274   */\n      dup3\n        /* \"#utility.yul\":8230:8291   */\n      tag_93\n      jump\t// in\n    tag_174:\n        /* \"#utility.yul\":8132:8301   */\n      pop\n        /* \"#utility.yul\":7374:8308   */\n      pop\n        /* \"#utility.yul\":7230:8308   */\n      pop\n      pop\n      jump\t// out\n        /* \"#utility.yul\":8314:8693   */\n    tag_31:\n        /* \"#utility.yul\":8485:8489   */\n      0x00\n        /* \"#utility.yul\":8523:8526   */\n      0xa0\n        /* \"#utility.yul\":8512:8521   */\n      dup3\n        /* \"#utility.yul\":8508:8527   */\n      add\n        /* \"#utility.yul\":8500:8527   */\n      swap1\n      pop\n        /* \"#utility.yul\":8537:8686   */\n      tag_176\n        /* \"#utility.yul\":8683:8684   */\n      0x00\n        /* \"#utility.yul\":8672:8681   */\n      dup4\n        /* \"#utility.yul\":8668:8685   */\n      add\n        /* \"#utility.yul\":8659:8665   */\n      dup5\n        /* \"#utility.yul\":8537:8686   */\n      tag_98\n      jump\t// in\n    tag_176:\n        /* \"#utility.yul\":8314:8693   */\n      swap3\n      swap2\n      pop\n      pop\n      jump\t// out\n        /* \"#utility.yul\":8699:8819   */\n    tag_99:\n        /* \"#utility.yul\":8771:8794   */\n      tag_178\n        /* \"#utility.yul\":8788:8793   */\n      dup2\n        /* \"#utility.yul\":8771:8794   */\n      tag_92\n      jump\t// in\n    tag_178:\n        /* \"#utility.yul\":8764:8769   */\n      dup2\n        /* \"#utility.yul\":8761:8795   */\n      eq\n        /* \"#utility.yul\":8751:8813   */\n      tag_179\n      jumpi\n        /* \"#utility.yul\":8809:8810   */\n      0x00\n        /* \"#utility.yul\":8806:8807   */\n      dup1\n        /* \"#utility.yul\":8799:8811   */\n      revert\n        /* \"#utility.yul\":8751:8813   */\n    tag_179:\n        /* \"#utility.yul\":8699:8819   */\n      pop\n      jump\t// out\n        /* \"#utility.yul\":8825:8962   */\n    tag_100:\n        /* \"#utility.yul\":8870:8875   */\n      0x00\n        /* \"#utility.yul\":8908:8914   */\n      dup2\n        /* \"#utility.yul\":8895:8915   */\n      calldataload\n        /* \"#utility.yul\":8886:8915   */\n      swap1\n      pop\n        /* \"#utility.yul\":8924:8956   */\n      tag_181\n        /* \"#utility.yul\":8950:8955   */\n      dup2\n        /* \"#utility.yul\":8924:8956   */\n      tag_99\n      jump\t// in\n    tag_181:\n        /* \"#utility.yul\":8825:8962   */\n      swap3\n      swap2\n      pop\n      pop\n      jump\t// out\n        /* \"#utility.yul\":8968:9875   */\n    tag_34:\n        /* \"#utility.yul\":9061:9067   */\n      0x00\n        /* \"#utility.yul\":9069:9075   */\n      dup1\n        /* \"#utility.yul\":9077:9083   */\n      0x00\n        /* \"#utility.yul\":9085:9091   */\n      dup1\n        /* \"#utility.yul\":9093:9099   */\n      0x00\n        /* \"#utility.yul\":9142:9145   */\n      0xa0\n        /* \"#utility.yul\":9130:9139   */\n      dup7\n        /* \"#utility.yul\":9121:9128   */\n      dup9\n        /* \"#utility.yul\":9117:9140   */\n      sub\n        /* \"#utility.yul\":9113:9146   */\n      slt\n        /* \"#utility.yul\":9110:9230   */\n      iszero\n      tag_183\n      jumpi\n        /* \"#utility.yul\":9149:9228   */\n      tag_184\n      tag_77\n      jump\t// in\n    tag_184:\n        /* \"#utility.yul\":9110:9230   */\n    tag_183:\n        /* \"#utility.yul\":9269:9270   */\n      0x00\n        /* \"#utility.yul\":9294:9347   */\n      tag_185\n        /* \"#utility.yul\":9339:9346   */\n      dup9\n        /* \"#utility.yul\":9330:9336   */\n      dup3\n        /* \"#utility.yul\":9319:9328   */\n      dup10\n        /* \"#utility.yul\":9315:9337   */\n      add\n        /* \"#utility.yul\":9294:9347   */\n      tag_81\n      jump\t// in\n    tag_185:\n        /* \"#utility.yul\":9284:9347   */\n      swap6\n      pop\n        /* \"#utility.yul\":9240:9357   */\n      pop\n        /* \"#utility.yul\":9396:9398   */\n      0x20\n        /* \"#utility.yul\":9422:9475   */\n      tag_186\n        /* \"#utility.yul\":9467:9474   */\n      dup9\n        /* \"#utility.yul\":9458:9464   */\n      dup3\n        /* \"#utility.yul\":9447:9456   */\n      dup10\n        /* \"#utility.yul\":9443:9465   */\n      add\n        /* \"#utility.yul\":9422:9475   */\n      tag_85\n      jump\t// in\n    tag_186:\n        /* \"#utility.yul\":9412:9475   */\n      swap5\n      pop\n        /* \"#utility.yul\":9367:9485   */\n      pop\n        /* \"#utility.yul\":9524:9526   */\n      0x40\n        /* \"#utility.yul\":9550:9603   */\n      tag_187\n        /* \"#utility.yul\":9595:9602   */\n      dup9\n        /* \"#utility.yul\":9586:9592   */\n      dup3\n        /* \"#utility.yul\":9575:9584   */\n      dup10\n        /* \"#utility.yul\":9571:9593   */\n      add\n        /* \"#utility.yul\":9550:9603   */\n      tag_85\n      jump\t// in\n    tag_187:\n        /* \"#utility.yul\":9540:9603   */\n      swap4\n      pop\n        /* \"#utility.yul\":9495:9613   */\n      pop\n        /* \"#utility.yul\":9652:9654   */\n      0x60\n        /* \"#utility.yul\":9678:9730   */\n      tag_188\n        /* \"#utility.yul\":9722:9729   */\n      dup9\n        /* \"#utility.yul\":9713:9719   */\n      dup3\n        /* \"#utility.yul\":9702:9711   */\n      dup10\n        /* \"#utility.yul\":9698:9720   */\n      add\n        /* \"#utility.yul\":9678:9730   */\n      tag_100\n      jump\t// in\n    tag_188:\n        /* \"#utility.yul\":9668:9730   */\n      swap3\n      pop\n        /* \"#utility.yul\":9623:9740   */\n      pop\n        /* \"#utility.yul\":9779:9782   */\n      0x80\n        /* \"#utility.yul\":9806:9858   */\n      tag_189\n        /* \"#utility.yul\":9850:9857   */\n      dup9\n        /* \"#utility.yul\":9841:9847   */\n      dup3\n        /* \"#utility.yul\":9830:9839   */\n      dup10\n        /* \"#utility.yul\":9826:9848   */\n      add\n        /* \"#utility.yul\":9806:9858   */\n      tag_100\n      jump\t// in\n    tag_189:\n        /* \"#utility.yul\":9796:9858   */\n      swap2\n      pop\n        /* \"#utility.yul\":9750:9868   */\n      pop\n        /* \"#utility.yul\":8968:9875   */\n      swap3\n      swap6\n      pop\n      swap3\n      swap6\n      swap1\n      swap4\n      pop\n      jump\t// out\n        /* \"#utility.yul\":9881:9999   */\n    tag_101:\n        /* \"#utility.yul\":9968:9992   */\n      tag_191\n        /* \"#utility.yul\":9986:9991   */\n      dup2\n        /* \"#utility.yul\":9968:9992   */\n      tag_83\n      jump\t// in\n    tag_191:\n        /* \"#utility.yul\":9963:9966   */\n      dup3\n        /* \"#utility.yul\":9956:9993   */\n      mstore\n        /* \"#utility.yul\":9881:9999   */\n      pop\n      pop\n      jump\t// out\n        /* \"#utility.yul\":10005:10120   */\n    tag_102:\n        /* \"#utility.yul\":10090:10113   */\n      tag_193\n        /* \"#utility.yul\":10107:10112   */\n      dup2\n        /* \"#utility.yul\":10090:10113   */\n      tag_92\n      jump\t// in\n    tag_193:\n        /* \"#utility.yul\":10085:10088   */\n      dup3\n        /* \"#utility.yul\":10078:10114   */\n      mstore\n        /* \"#utility.yul\":10005:10120   */\n      pop\n      pop\n      jump\t// out\n        /* \"#utility.yul\":10126:10782   */\n    tag_40:\n        /* \"#utility.yul\":10327:10331   */\n      0x00\n        /* \"#utility.yul\":10365:10368   */\n      0xa0\n        /* \"#utility.yul\":10354:10363   */\n      dup3\n        /* \"#utility.yul\":10350:10369   */\n      add\n        /* \"#utility.yul\":10342:10369   */\n      swap1\n      pop\n        /* \"#utility.yul\":10379:10450   */\n      tag_195\n        /* \"#utility.yul\":10447:10448   */\n      0x00\n        /* \"#utility.yul\":10436:10445   */\n      dup4\n        /* \"#utility.yul\":10432:10449   */\n      add\n        /* \"#utility.yul\":10423:10429   */\n      dup9\n        /* \"#utility.yul\":10379:10450   */\n      tag_86\n      jump\t// in\n    tag_195:\n        /* \"#utility.yul\":10460:10532   */\n      tag_196\n        /* \"#utility.yul\":10528:10530   */\n      0x20\n        /* \"#utility.yul\":10517:10526   */\n      dup4\n        /* \"#utility.yul\":10513:10531   */\n      add\n        /* \"#utility.yul\":10504:10510   */\n      dup8\n        /* \"#utility.yul\":10460:10532   */\n      tag_101\n      jump\t// in\n    tag_196:\n        /* \"#utility.yul\":10542:10614   */\n      tag_197\n        /* \"#utility.yul\":10610:10612   */\n      0x40\n        /* \"#utility.yul\":10599:10608   */\n      dup4\n        /* \"#utility.yul\":10595:10613   */\n      add\n        /* \"#utility.yul\":10586:10592   */\n      dup7\n        /* \"#utility.yul\":10542:10614   */\n      tag_101\n      jump\t// in\n    tag_197:\n        /* \"#utility.yul\":10624:10694   */\n      tag_198\n        /* \"#utility.yul\":10690:10692   */\n      0x60\n        /* \"#utility.yul\":10679:10688   */\n      dup4\n        /* \"#utility.yul\":10675:10693   */\n      add\n        /* \"#utility.yul\":10666:10672   */\n      dup6\n        /* \"#utility.yul\":10624:10694   */\n      tag_102\n      jump\t// in\n    tag_198:\n        /* \"#utility.yul\":10704:10775   */\n      tag_199\n        /* \"#utility.yul\":10770:10773   */\n      0x80\n        /* \"#utility.yul\":10759:10768   */\n      dup4\n        /* \"#utility.yul\":10755:10774   */\n      add\n        /* \"#utility.yul\":10746:10752   */\n      dup5\n        /* \"#utility.yul\":10704:10775   */\n      tag_102\n      jump\t// in\n    tag_199:\n        /* \"#utility.yul\":10126:10782   */\n      swap7\n      swap6\n      pop\n      pop\n      pop\n      pop\n      pop\n      pop\n      jump\t// out\n        /* \"#utility.yul\":10788:11006   */\n    tag_46:\n        /* \"#utility.yul\":10879:10883   */\n      0x00\n        /* \"#utility.yul\":10917:10919   */\n      0x20\n        /* \"#utility.yul\":10906:10915   */\n      dup3\n        /* \"#utility.yul\":10902:10920   */\n      add\n        /* \"#utility.yul\":10894:10920   */\n      swap1\n      pop\n        /* \"#utility.yul\":10930:10999   */\n      tag_201\n        /* \"#utility.yul\":10996:10997   */\n      0x00\n        /* \"#utility.yul\":10985:10994   */\n      dup4\n        /* \"#utility.yul\":10981:10998   */\n      add\n        /* \"#utility.yul\":10972:10978   */\n      dup5\n        /* \"#utility.yul\":10930:10999   */\n      tag_102\n      jump\t// in\n    tag_201:\n        /* \"#utility.yul\":10788:11006   */\n      swap3\n      swap2\n      pop\n      pop\n      jump\t// out\n        /* \"#utility.yul\":11012:11192   */\n    tag_54:\n        /* \"#utility.yul\":11060:11137   */\n      0x4e487b7100000000000000000000000000000000000000000000000000000000\n        /* \"#utility.yul\":11057:11058   */\n      0x00\n        /* \"#utility.yul\":11050:11138   */\n      mstore\n        /* \"#utility.yul\":11157:11161   */\n      0x41\n        /* \"#utility.yul\":11154:11155   */\n      0x04\n        /* \"#utility.yul\":11147:11162   */\n      mstore\n        /* \"#utility.yul\":11181:11185   */\n      0x24\n        /* \"#utility.yul\":11178:11179   */\n      0x00\n        /* \"#utility.yul\":11171:11186   */\n      revert\n        /* \"#utility.yul\":11198:11378   */\n    tag_64:\n        /* \"#utility.yul\":11246:11323   */\n      0x4e487b7100000000000000000000000000000000000000000000000000000000\n        /* \"#utility.yul\":11243:11244   */\n      0x00\n        /* \"#utility.yul\":11236:11324   */\n      mstore\n        /* \"#utility.yul\":11343:11347   */\n      0x32\n        /* \"#utility.yul\":11340:11341   */\n      0x04\n        /* \"#utility.yul\":11333:11348   */\n      mstore\n        /* \"#utility.yul\":11367:11371   */\n      0x24\n        /* \"#utility.yul\":11364:11365   */\n      0x00\n        /* \"#utility.yul\":11357:11372   */\n      revert\n        /* \"#utility.yul\":11384:11564   */\n    tag_103:\n        /* \"#utility.yul\":11432:11509   */\n      0x4e487b7100000000000000000000000000000000000000000000000000000000\n        /* \"#utility.yul\":11429:11430   */\n      0x00\n        /* \"#utility.yul\":11422:11510   */\n      mstore\n        /* \"#utility.yul\":11529:11533   */\n      0x11\n        /* \"#utility.yul\":11526:11527   */\n      0x04\n        /* \"#utility.yul\":11519:11534   */\n      mstore\n        /* \"#utility.yul\":11553:11557   */\n      0x24\n        /* \"#utility.yul\":11550:11551   */\n      0x00\n        /* \"#utility.yul\":11543:11558   */\n      revert\n        /* \"#utility.yul\":11570:11803   */\n    tag_68:\n        /* \"#utility.yul\":11609:11612   */\n      0x00\n        /* \"#utility.yul\":11632:11656   */\n      tag_206\n        /* \"#utility.yul\":11650:11655   */\n      dup3\n        /* \"#utility.yul\":11632:11656   */\n      tag_79\n      jump\t// in\n    tag_206:\n        /* \"#utility.yul\":11623:11656   */\n      swap2\n      pop\n        /* \"#utility.yul\":11678:11744   */\n      0xffffffffffffffffffffffffffffffffffffffffffffffffffffffffffffffff\n        /* \"#utility.yul\":11671:11676   */\n      dup3\n        /* \"#utility.yul\":11668:11745   */\n      sub\n        /* \"#utility.yul\":11665:11768   */\n      tag_207\n      jumpi\n        /* \"#utility.yul\":11748:11766   */\n      tag_208\n      tag_103\n      jump\t// in\n    tag_208:\n        /* \"#utility.yul\":11665:11768   */\n    tag_207:\n        /* \"#utility.yul\":11795:11796   */\n      0x01\n        /* \"#utility.yul\":11788:11793   */\n      dup3\n        /* \"#utility.yul\":11784:11797   */\n      add\n        /* \"#utility.yul\":11777:11797   */\n      swap1\n      pop\n        /* \"#utility.yul\":11570:11803   */\n      swap2\n      swap1\n      pop\n      jump\t// out\n        /* \"#utility.yul\":11809:12247   */\n    tag_74:\n        /* \"#utility.yul\":11956:11960   */\n      0x00\n        /* \"#utility.yul\":11994:11996   */\n      0x60\n        /* \"#utility.yul\":11983:11992   */\n      dup3\n        /* \"#utility.yul\":11979:11997   */\n      add\n        /* \"#utility.yul\":11971:11997   */\n      swap1\n      pop\n        /* \"#utility.yul\":12007:12078   */\n      tag_210\n        /* \"#utility.yul\":12075:12076   */\n      0x00\n        /* \"#utility.yul\":12064:12073   */\n      dup4\n        /* \"#utility.yul\":12060:12077   */\n      add\n        /* \"#utility.yul\":12051:12057   */\n      dup7\n        /* \"#utility.yul\":12007:12078   */\n      tag_101\n      jump\t// in\n    tag_210:\n        /* \"#utility.yul\":12088:12160   */\n      tag_211\n        /* \"#utility.yul\":12156:12158   */\n      0x20\n        /* \"#utility.yul\":12145:12154   */\n      dup4\n        /* \"#utility.yul\":12141:12159   */\n      add\n        /* \"#utility.yul\":12132:12138   */\n      dup6\n        /* \"#utility.yul\":12088:12160   */\n      tag_101\n      jump\t// in\n    tag_211:\n        /* \"#utility.yul\":12170:12240   */\n      tag_212\n        /* \"#utility.yul\":12236:12238   */\n      0x40\n        /* \"#utility.yul\":12225:12234   */\n      dup4\n        /* \"#utility.yul\":12221:12239   */\n      add\n        /* \"#utility.yul\":12212:12218   */\n      dup5\n        /* \"#utility.yul\":12170:12240   */\n      tag_102\n      jump\t// in\n    tag_212:\n        /* \"#utility.yul\":11809:12247   */\n      swap5\n      swap4\n      pop\n      pop\n      pop\n      pop\n      jump\t// out\n\n    auxdata: 0xa264697066735822122071a9248f94e2cf30be5cb7e11471aab01226c4bea93e8f0d81810024e9ed4a1564736f6c63430008130033\n}\n",
				"bytecode": {
					"linkReferences": {},
					"object": "6080604052600160005534801561001557600080fd5b50610ec9806100256000396000f3fe608060405234801561001057600080fd5b506004361061007d5760003560e01c8063b9db15b41161005b578063b9db15b4146100fe578063c7414bee1461012e578063cb59d4301461014a578063e3eba9041461017e5761007d565b806329d783281461008257806383f48c961461009e57806396fccba4146100ce575b600080fd5b61009c60048036038101906100979190610939565b61019c565b005b6100b860048036038101906100b391906109c4565b61020b565b6040516100c59190610a13565b60405180910390f35b6100e860048036038101906100e39190610a2e565b61023c565b6040516100f59190610baf565b60405180910390f35b61011860048036038101906101139190610939565b6104ab565b6040516101259190610c39565b60405180910390f35b61014860048036038101906101439190610c80565b6105da565b005b610164600480360381019061015f9190610939565b6107fb565b604051610175959493929190610d19565b60405180910390f35b610186610891565b6040516101939190610a13565b60405180910390f35b426002600083815260200190815260200160002060020160186101000a81548163ffffffff021916908363ffffffff1602179055507f64e64e323422dcfed18a892f84596ccf7cc94b1952625f3cc82e6461b529fff1426040516102009190610d6c565b60405180910390a150565b6003602052816000526040600020818154811061022757600080fd5b90600052602060002001600091509150505481565b60606000600360008473ffffffffffffffffffffffffffffffffffffffff1673ffffffffffffffffffffffffffffffffffffffff1681526020019081526020016000208054806020026020016040519081016040528092919081815260200182805480156102c957602002820191906000526020600020905b8154815260200190600101908083116102b5575b505050505090506000815167ffffffffffffffff8111156102ed576102ec610d87565b5b60405190808252806020026020018201604052801561032657816020015b610313610897565b81526020019060019003908161030b5790505b50905060005b82518110156104a0576002600084838151811061034c5761034b610db6565b5b602002602001015181526020019081526020016000206040518060a0016040529081600082015481526020016001820160009054906101000a900473ffffffffffffffffffffffffffffffffffffffff1673ffffffffffffffffffffffffffffffffffffffff1673ffffffffffffffffffffffffffffffffffffffff1681526020016002820160009054906101000a900473ffffffffffffffffffffffffffffffffffffffff1673ffffffffffffffffffffffffffffffffffffffff1673ffffffffffffffffffffffffffffffffffffffff1681526020016002820160149054906101000a900463ffffffff1663ffffffff1663ffffffff1681526020016002820160189054906101000a900463ffffffff1663ffffffff1663ffffffff168152505082828151811061048257610481610db6565b5b6020026020010181905250808061049890610e14565b91505061032c565b508092505050919050565b6104b3610897565b600260008381526020019081526020016000206040518060a0016040529081600082015481526020016001820160009054906101000a900473ffffffffffffffffffffffffffffffffffffffff1673ffffffffffffffffffffffffffffffffffffffff1673ffffffffffffffffffffffffffffffffffffffff1681526020016002820160009054906101000a900473ffffffffffffffffffffffffffffffffffffffff1673ffffffffffffffffffffffffffffffffffffffff1673ffffffffffffffffffffffffffffffffffffffff1681526020016002820160149054906101000a900463ffffffff1663ffffffff1663ffffffff1681526020016002820160189054906101000a900463ffffffff1663ffffffff1663ffffffff16815250509050919050565b6040518060a001604052808681526020018573ffffffffffffffffffffffffffffffffffffffff1681526020018473ffffffffffffffffffffffffffffffffffffffff1681526020018363ffffffff1681526020018263ffffffff1681525060026000805481526020019081526020016000206000820151816000015560208201518160010160006101000a81548173ffffffffffffffffffffffffffffffffffffffff021916908373ffffffffffffffffffffffffffffffffffffffff16021790555060408201518160020160006101000a81548173ffffffffffffffffffffffffffffffffffffffff021916908373ffffffffffffffffffffffffffffffffffffffff16021790555060608201518160020160146101000a81548163ffffffff021916908363ffffffff16021790555060808201518160020160186101000a81548163ffffffff021916908363ffffffff160217905550905050600360008473ffffffffffffffffffffffffffffffffffffffff1673ffffffffffffffffffffffffffffffffffffffff1681526020019081526020016000206000549080600181540180825580915050600190039060005260206000200160009091909190915055846000547f3d9c6d7fedf256315259fe8cb6863117af8f4a56f16c0767d72c06359e16e5338686866040516107d593929190610e5c565b60405180910390a36000808154809291906107ef90610e14565b91905055505050505050565b60026020528060005260406000206000915090508060000154908060010160009054906101000a900473ffffffffffffffffffffffffffffffffffffffff16908060020160009054906101000a900473ffffffffffffffffffffffffffffffffffffffff16908060020160149054906101000a900463ffffffff16908060020160189054906101000a900463ffffffff16905085565b60005481565b6040518060a0016040528060008152602001600073ffffffffffffffffffffffffffffffffffffffff168152602001600073ffffffffffffffffffffffffffffffffffffffff168152602001600063ffffffff168152602001600063ffffffff1681525090565b600080fd5b6000819050919050565b61091681610903565b811461092157600080fd5b50565b6000813590506109338161090d565b92915050565b60006020828403121561094f5761094e6108fe565b5b600061095d84828501610924565b91505092915050565b600073ffffffffffffffffffffffffffffffffffffffff82169050919050565b600061099182610966565b9050919050565b6109a181610986565b81146109ac57600080fd5b50565b6000813590506109be81610998565b92915050565b600080604083850312156109db576109da6108fe565b5b60006109e9858286016109af565b92505060206109fa85828601610924565b9150509250929050565b610a0d81610903565b82525050565b6000602082019050610a286000830184610a04565b92915050565b600060208284031215610a4457610a436108fe565b5b6000610a52848285016109af565b91505092915050565b600081519050919050565b600082825260208201905092915050565b6000819050602082019050919050565b610a9081610903565b82525050565b610a9f81610986565b82525050565b600063ffffffff82169050919050565b610abe81610aa5565b82525050565b60a082016000820151610ada6000850182610a87565b506020820151610aed6020850182610a96565b506040820151610b006040850182610a96565b506060820151610b136060850182610ab5565b506080820151610b266080850182610ab5565b50505050565b6000610b388383610ac4565b60a08301905092915050565b6000602082019050919050565b6000610b5c82610a5b565b610b668185610a66565b9350610b7183610a77565b8060005b83811015610ba2578151610b898882610b2c565b9750610b9483610b44565b925050600181019050610b75565b5085935050505092915050565b60006020820190508181036000830152610bc98184610b51565b905092915050565b60a082016000820151610be76000850182610a87565b506020820151610bfa6020850182610a96565b506040820151610c0d6040850182610a96565b506060820151610c206060850182610ab5565b506080820151610c336080850182610ab5565b50505050565b600060a082019050610c4e6000830184610bd1565b92915050565b610c5d81610aa5565b8114610c6857600080fd5b50565b600081359050610c7a81610c54565b92915050565b600080600080600060a08688031215610c9c57610c9b6108fe565b5b6000610caa88828901610924565b9550506020610cbb888289016109af565b9450506040610ccc888289016109af565b9350506060610cdd88828901610c6b565b9250506080610cee88828901610c6b565b9150509295509295909350565b610d0481610986565b82525050565b610d1381610aa5565b82525050565b600060a082019050610d2e6000830188610a04565b610d3b6020830187610cfb565b610d486040830186610cfb565b610d556060830185610d0a565b610d626080830184610d0a565b9695505050505050565b6000602082019050610d816000830184610d0a565b92915050565b7f4e487b7100000000000000000000000000000000000000000000000000000000600052604160045260246000fd5b7f4e487b7100000000000000000000000000000000000000000000000000000000600052603260045260246000fd5b7f4e487b7100000000000000000000000000000000000000000000000000000000600052601160045260246000fd5b6000610e1f82610903565b91507fffffffffffffffffffffffffffffffffffffffffffffffffffffffffffffffff8203610e5157610e50610de5565b5b600182019050919050565b6000606082019050610e716000830186610cfb565b610e7e6020830185610cfb565b610e8b6040830184610d0a565b94935050505056fea264697066735822122071a9248f94e2cf30be5cb7e11471aab01226c4bea93e8f0d81810024e9ed4a1564736f6c63430008130033",
					"opcodes": "PUSH1 0x80 PUSH1 0x40 MSTORE PUSH1 0x1 PUSH1 0x0 SSTORE CALLVALUE DUP1 ISZERO PUSH2 0x15 JUMPI PUSH1 0x0 DUP1 REVERT JUMPDEST POP PUSH2 0xEC9 DUP1 PUSH2 0x25 PUSH1 0x0 CODECOPY PUSH1 0x0 RETURN INVALID PUSH1 0x80 PUSH1 0x40 MSTORE CALLVALUE DUP1 ISZERO PUSH2 0x10 JUMPI PUSH1 0x0 DUP1 REVERT JUMPDEST POP PUSH1 0x4 CALLDATASIZE LT PUSH2 0x7D JUMPI PUSH1 0x0 CALLDATALOAD PUSH1 0xE0 SHR DUP1 PUSH4 0xB9DB15B4 GT PUSH2 0x5B JUMPI DUP1 PUSH4 0xB9DB15B4 EQ PUSH2 0xFE JUMPI DUP1 PUSH4 0xC7414BEE EQ PUSH2 0x12E JUMPI DUP1 PUSH4 0xCB59D430 EQ PUSH2 0x14A JUMPI DUP1 PUSH4 0xE3EBA904 EQ PUSH2 0x17E JUMPI PUSH2 0x7D JUMP JUMPDEST DUP1 PUSH4 0x29D78328 EQ PUSH2 0x82 JUMPI DUP1 PUSH4 0x83F48C96 EQ PUSH2 0x9E JUMPI DUP1 PUSH4 0x96FCCBA4 EQ PUSH2 0xCE JUMPI JUMPDEST PUSH1 0x0 DUP1 REVERT JUMPDEST PUSH2 0x9C PUSH1 0x4 DUP1 CALLDATASIZE SUB DUP2 ADD SWAP1 PUSH2 0x97 SWAP2 SWAP1 PUSH2 0x939 JUMP JUMPDEST PUSH2 0x19C JUMP JUMPDEST STOP JUMPDEST PUSH2 0xB8 PUSH1 0x4 DUP1 CALLDATASIZE SUB DUP2 ADD SWAP1 PUSH2 0xB3 SWAP2 SWAP1 PUSH2 0x9C4 JUMP JUMPDEST PUSH2 0x20B JUMP JUMPDEST PUSH1 0x40 MLOAD PUSH2 0xC5 SWAP2 SWAP1 PUSH2 0xA13 JUMP JUMPDEST PUSH1 0x40 MLOAD DUP1 SWAP2 SUB SWAP1 RETURN JUMPDEST PUSH2 0xE8 PUSH1 0x4 DUP1 CALLDATASIZE SUB DUP2 ADD SWAP1 PUSH2 0xE3 SWAP2 SWAP1 PUSH2 0xA2E JUMP JUMPDEST PUSH2 0x23C JUMP JUMPDEST PUSH1 0x40 MLOAD PUSH2 0xF5 SWAP2 SWAP1 PUSH2 0xBAF JUMP JUMPDEST PUSH1 0x40 MLOAD DUP1 SWAP2 SUB SWAP1 RETURN JUMPDEST PUSH2 0x118 PUSH1 0x4 DUP1 CALLDATASIZE SUB DUP2 ADD SWAP1 PUSH2 0x113 SWAP2 SWAP1 PUSH2 0x939 JUMP JUMPDEST PUSH2 0x4AB JUMP JUMPDEST PUSH1 0x40 MLOAD PUSH2 0x125 SWAP2 SWAP1 PUSH2 0xC39 JUMP JUMPDEST PUSH1 0x40 MLOAD DUP1 SWAP2 SUB SWAP1 RETURN JUMPDEST PUSH2 0x148 PUSH1 0x4 DUP1 CALLDATASIZE SUB DUP2 ADD SWAP1 PUSH2 0x143 SWAP2 SWAP1 PUSH2 0xC80 JUMP JUMPDEST PUSH2 0x5DA JUMP JUMPDEST STOP JUMPDEST PUSH2 0x164 PUSH1 0x4 DUP1 CALLDATASIZE SUB DUP2 ADD SWAP1 PUSH2 0x15F SWAP2 SWAP1 PUSH2 0x939 JUMP JUMPDEST PUSH2 0x7FB JUMP JUMPDEST PUSH1 0x40 MLOAD PUSH2 0x175 SWAP6 SWAP5 SWAP4 SWAP3 SWAP2 SWAP1 PUSH2 0xD19 JUMP JUMPDEST PUSH1 0x40 MLOAD DUP1 SWAP2 SUB SWAP1 RETURN JUMPDEST PUSH2 0x186 PUSH2 0x891 JUMP JUMPDEST PUSH1 0x40 MLOAD PUSH2 0x193 SWAP2 SWAP1 PUSH2 0xA13 JUMP JUMPDEST PUSH1 0x40 MLOAD DUP1 SWAP2 SUB SWAP1 RETURN JUMPDEST TIMESTAMP PUSH1 0x2 PUSH1 0x0 DUP4 DUP2 MSTORE PUSH1 0x20 ADD SWAP1 DUP2 MSTORE PUSH1 0x20 ADD PUSH1 0x0 KECCAK256 PUSH1 0x2 ADD PUSH1 0x18 PUSH2 0x100 EXP DUP2 SLOAD DUP2 PUSH4 0xFFFFFFFF MUL NOT AND SWAP1 DUP4 PUSH4 0xFFFFFFFF AND MUL OR SWAP1 SSTORE POP PUSH32 0x64E64E323422DCFED18A892F84596CCF7CC94B1952625F3CC82E6461B529FFF1 TIMESTAMP PUSH1 0x40 MLOAD PUSH2 0x200 SWAP2 SWAP1 PUSH2 0xD6C JUMP JUMPDEST PUSH1 0x40 MLOAD DUP1 SWAP2 SUB SWAP1 LOG1 POP JUMP JUMPDEST PUSH1 0x3 PUSH1 0x20 MSTORE DUP2 PUSH1 0x0 MSTORE PUSH1 0x40 PUSH1 0x0 KECCAK256 DUP2 DUP2 SLOAD DUP2 LT PUSH2 0x227 JUMPI PUSH1 0x0 DUP1 REVERT JUMPDEST SWAP1 PUSH1 0x0 MSTORE PUSH1 0x20 PUSH1 0x0 KECCAK256 ADD PUSH1 0x0 SWAP2 POP SWAP2 POP POP SLOAD DUP2 JUMP JUMPDEST PUSH1 0x60 PUSH1 0x0 PUSH1 0x3 PUSH1 0x0 DUP5 PUSH20 0xFFFFFFFFFFFFFFFFFFFFFFFFFFFFFFFFFFFFFFFF AND PUSH20 0xFFFFFFFFFFFFFFFFFFFFFFFFFFFFFFFFFFFFFFFF AND DUP2 MSTORE PUSH1 0x20 ADD SWAP1 DUP2 MSTORE PUSH1 0x20 ADD PUSH1 0x0 KECCAK256 DUP1 SLOAD DUP1 PUSH1 0x20 MUL PUSH1 0x20 ADD PUSH1 0x40 MLOAD SWAP1 DUP2 ADD PUSH1 0x40 MSTORE DUP1 SWAP3 SWAP2 SWAP1 DUP2 DUP2 MSTORE PUSH1 0x20 ADD DUP3 DUP1 SLOAD DUP1 ISZERO PUSH2 0x2C9 JUMPI PUSH1 0x20 MUL DUP3 ADD SWAP2 SWAP1 PUSH1 0x0 MSTORE PUSH1 0x20 PUSH1 0x0 KECCAK256 SWAP1 JUMPDEST DUP2 SLOAD DUP2 MSTORE PUSH1 0x20 ADD SWAP1 PUSH1 0x1 ADD SWAP1 DUP1 DUP4 GT PUSH2 0x2B5 JUMPI JUMPDEST POP POP POP POP POP SWAP1 POP PUSH1 0x0 DUP2 MLOAD PUSH8 0xFFFFFFFFFFFFFFFF DUP2 GT ISZERO PUSH2 0x2ED JUMPI PUSH2 0x2EC PUSH2 0xD87 JUMP JUMPDEST JUMPDEST PUSH1 0x40 MLOAD SWAP1 DUP1 DUP3 MSTORE DUP1 PUSH1 0x20 MUL PUSH1 0x20 ADD DUP3 ADD PUSH1 0x40 MSTORE DUP1 ISZERO PUSH2 0x326 JUMPI DUP2 PUSH1 0x20 ADD JUMPDEST PUSH2 0x313 PUSH2 0x897 JUMP JUMPDEST DUP2 MSTORE PUSH1 0x20 ADD SWAP1 PUSH1 0x1 SWAP1 SUB SWAP1 DUP2 PUSH2 0x30B JUMPI SWAP1 POP JUMPDEST POP SWAP1 POP PUSH1 0x0 JUMPDEST DUP3 MLOAD DUP2 LT ISZERO PUSH2 0x4A0 JUMPI PUSH1 0x2 PUSH1 0x0 DUP5 DUP4 DUP2 MLOAD DUP2 LT PUSH2 0x34C JUMPI PUSH2 0x34B PUSH2 0xDB6 JUMP JUMPDEST JUMPDEST PUSH1 0x20 MUL PUSH1 0x20 ADD ADD MLOAD DUP2 MSTORE PUSH1 0x20 ADD SWAP1 DUP2 MSTORE PUSH1 0x20 ADD PUSH1 0x0 KECCAK256 PUSH1 0x40 MLOAD DUP1 PUSH1 0xA0 ADD PUSH1 0x40 MSTORE SWAP1 DUP2 PUSH1 0x0 DUP3 ADD SLOAD DUP2 MSTORE PUSH1 0x20 ADD PUSH1 0x1 DUP3 ADD PUSH1 0x0 SWAP1 SLOAD SWAP1 PUSH2 0x100 EXP SWAP1 DIV PUSH20 0xFFFFFFFFFFFFFFFFFFFFFFFFFFFFFFFFFFFFFFFF AND PUSH20 0xFFFFFFFFFFFFFFFFFFFFFFFFFFFFFFFFFFFFFFFF AND PUSH20 0xFFFFFFFFFFFFFFFFFFFFFFFFFFFFFFFFFFFFFFFF AND DUP2 MSTORE PUSH1 0x20 ADD PUSH1 0x2 DUP3 ADD PUSH1 0x0 SWAP1 SLOAD SWAP1 PUSH2 0x100 EXP SWAP1 DIV PUSH20 0xFFFFFFFFFFFFFFFFFFFFFFFFFFFFFFFFFFFFFFFF AND PUSH20 0xFFFFFFFFFFFFFFFFFFFFFFFFFFFFFFFFFFFFFFFF AND PUSH20 0xFFFFFFFFFFFFFFFFFFFFFFFFFFFFFFFFFFFFFFFF AND DUP2 MSTORE PUSH1 0x20 ADD PUSH1 0x2 DUP3 ADD PUSH1 0x14 SWAP1 SLOAD SWAP1 PUSH2 0x100 EXP SWAP1 DIV PUSH4 0xFFFFFFFF AND PUSH4 0xFFFFFFFF AND PUSH4 0xFFFFFFFF AND DUP2 MSTORE PUSH1 0x20 ADD PUSH1 0x2 DUP3 ADD PUSH1 0x18 SWAP1 SLOAD SWAP1 PUSH2 0x100 EXP SWAP1 DIV PUSH4 0xFFFFFFFF AND PUSH4 0xFFFFFFFF AND PUSH4 0xFFFFFFFF AND DUP2 MSTORE POP POP DUP3 DUP3 DUP2 MLOAD DUP2 LT PUSH2 0x482 JUMPI PUSH2 0x481 PUSH2 0xDB6 JUMP JUMPDEST JUMPDEST PUSH1 0x20 MUL PUSH1 0x20 ADD ADD DUP2 SWAP1 MSTORE POP DUP1 DUP1 PUSH2 0x498 SWAP1 PUSH2 0xE14 JUMP JUMPDEST SWAP2 POP POP PUSH2 0x32C JUMP JUMPDEST POP DUP1 SWAP3 POP POP POP SWAP2 SWAP1 POP JUMP JUMPDEST PUSH2 0x4B3 PUSH2 0x897 JUMP JUMPDEST PUSH1 0x2 PUSH1 0x0 DUP4 DUP2 MSTORE PUSH1 0x20 ADD SWAP1 DUP2 MSTORE PUSH1 0x20 ADD PUSH1 0x0 KECCAK256 PUSH1 0x40 MLOAD DUP1 PUSH1 0xA0 ADD PUSH1 0x40 MSTORE SWAP1 DUP2 PUSH1 0x0 DUP3 ADD SLOAD DUP2 MSTORE PUSH1 0x20 ADD PUSH1 0x1 DUP3 ADD PUSH1 0x0 SWAP1 SLOAD SWAP1 PUSH2 0x100 EXP SWAP1 DIV PUSH20 0xFFFFFFFFFFFFFFFFFFFFFFFFFFFFFFFFFFFFFFFF AND PUSH20 0xFFFFFFFFFFFFFFFFFFFFFFFFFFFFFFFFFFFFFFFF AND PUSH20 0xFFFFFFFFFFFFFFFFFFFFFFFFFFFFFFFFFFFFFFFF AND DUP2 MSTORE PUSH1 0x20 ADD PUSH1 0x2 DUP3 ADD PUSH1 0x0 SWAP1 SLOAD SWAP1 PUSH2 0x100 EXP SWAP1 DIV PUSH20 0xFFFFFFFFFFFFFFFFFFFFFFFFFFFFFFFFFFFFFFFF AND PUSH20 0xFFFFFFFFFFFFFFFFFFFFFFFFFFFFFFFFFFFFFFFF AND PUSH20 0xFFFFFFFFFFFFFFFFFFFFFFFFFFFFFFFFFFFFFFFF AND DUP2 MSTORE PUSH1 0x20 ADD PUSH1 0x2 DUP3 ADD PUSH1 0x14 SWAP1 SLOAD SWAP1 PUSH2 0x100 EXP SWAP1 DIV PUSH4 0xFFFFFFFF AND PUSH4 0xFFFFFFFF AND PUSH4 0xFFFFFFFF AND DUP2 MSTORE PUSH1 0x20 ADD PUSH1 0x2 DUP3 ADD PUSH1 0x18 SWAP1 SLOAD SWAP1 PUSH2 0x100 EXP SWAP1 DIV PUSH4 0xFFFFFFFF AND PUSH4 0xFFFFFFFF AND PUSH4 0xFFFFFFFF AND DUP2 MSTORE POP POP SWAP1 POP SWAP2 SWAP1 POP JUMP JUMPDEST PUSH1 0x40 MLOAD DUP1 PUSH1 0xA0 ADD PUSH1 0x40 MSTORE DUP1 DUP7 DUP2 MSTORE PUSH1 0x20 ADD DUP6 PUSH20 0xFFFFFFFFFFFFFFFFFFFFFFFFFFFFFFFFFFFFFFFF AND DUP2 MSTORE PUSH1 0x20 ADD DUP5 PUSH20 0xFFFFFFFFFFFFFFFFFFFFFFFFFFFFFFFFFFFFFFFF AND DUP2 MSTORE PUSH1 0x20 ADD DUP4 PUSH4 0xFFFFFFFF AND DUP2 MSTORE PUSH1 0x20 ADD DUP3 PUSH4 0xFFFFFFFF AND DUP2 MSTORE POP PUSH1 0x2 PUSH1 0x0 DUP1 SLOAD DUP2 MSTORE PUSH1 0x20 ADD SWAP1 DUP2 MSTORE PUSH1 0x20 ADD PUSH1 0x0 KECCAK256 PUSH1 0x0 DUP3 ADD MLOAD DUP2 PUSH1 0x0 ADD SSTORE PUSH1 0x20 DUP3 ADD MLOAD DUP2 PUSH1 0x1 ADD PUSH1 0x0 PUSH2 0x100 EXP DUP2 SLOAD DUP2 PUSH20 0xFFFFFFFFFFFFFFFFFFFFFFFFFFFFFFFFFFFFFFFF MUL NOT AND SWAP1 DUP4 PUSH20 0xFFFFFFFFFFFFFFFFFFFFFFFFFFFFFFFFFFFFFFFF AND MUL OR SWAP1 SSTORE POP PUSH1 0x40 DUP3 ADD MLOAD DUP2 PUSH1 0x2 ADD PUSH1 0x0 PUSH2 0x100 EXP DUP2 SLOAD DUP2 PUSH20 0xFFFFFFFFFFFFFFFFFFFFFFFFFFFFFFFFFFFFFFFF MUL NOT AND SWAP1 DUP4 PUSH20 0xFFFFFFFFFFFFFFFFFFFFFFFFFFFFFFFFFFFFFFFF AND MUL OR SWAP1 SSTORE POP PUSH1 0x60 DUP3 ADD MLOAD DUP2 PUSH1 0x2 ADD PUSH1 0x14 PUSH2 0x100 EXP DUP2 SLOAD DUP2 PUSH4 0xFFFFFFFF MUL NOT AND SWAP1 DUP4 PUSH4 0xFFFFFFFF AND MUL OR SWAP1 SSTORE POP PUSH1 0x80 DUP3 ADD MLOAD DUP2 PUSH1 0x2 ADD PUSH1 0x18 PUSH2 0x100 EXP DUP2 SLOAD DUP2 PUSH4 0xFFFFFFFF MUL NOT AND SWAP1 DUP4 PUSH4 0xFFFFFFFF AND MUL OR SWAP1 SSTORE POP SWAP1 POP POP PUSH1 0x3 PUSH1 0x0 DUP5 PUSH20 0xFFFFFFFFFFFFFFFFFFFFFFFFFFFFFFFFFFFFFFFF AND PUSH20 0xFFFFFFFFFFFFFFFFFFFFFFFFFFFFFFFFFFFFFFFF AND DUP2 MSTORE PUSH1 0x20 ADD SWAP1 DUP2 MSTORE PUSH1 0x20 ADD PUSH1 0x0 KECCAK256 PUSH1 0x0 SLOAD SWAP1 DUP1 PUSH1 0x1 DUP2 SLOAD ADD DUP1 DUP3 SSTORE DUP1 SWAP2 POP POP PUSH1 0x1 SWAP1 SUB SWAP1 PUSH1 0x0 MSTORE PUSH1 0x20 PUSH1 0x0 KECCAK256 ADD PUSH1 0x0 SWAP1 SWAP2 SWAP1 SWAP2 SWAP1 SWAP2 POP SSTORE DUP5 PUSH1 0x0 SLOAD PUSH32 0x3D9C6D7FEDF256315259FE8CB6863117AF8F4A56F16C0767D72C06359E16E533 DUP7 DUP7 DUP7 PUSH1 0x40 MLOAD PUSH2 0x7D5 SWAP4 SWAP3 SWAP2 SWAP1 PUSH2 0xE5C JUMP JUMPDEST PUSH1 0x40 MLOAD DUP1 SWAP2 SUB SWAP1 LOG3 PUSH1 0x0 DUP1 DUP2 SLOAD DUP1 SWAP3 SWAP2 SWAP1 PUSH2 0x7EF SWAP1 PUSH2 0xE14 JUMP JUMPDEST SWAP2 SWAP1 POP SSTORE POP POP POP POP POP POP JUMP JUMPDEST PUSH1 0x2 PUSH1 0x20 MSTORE DUP1 PUSH1 0x0 MSTORE PUSH1 0x40 PUSH1 0x0 KECCAK256 PUSH1 0x0 SWAP2 POP SWAP1 POP DUP1 PUSH1 0x0 ADD SLOAD SWAP1 DUP1 PUSH1 0x1 ADD PUSH1 0x0 SWAP1 SLOAD SWAP1 PUSH2 0x100 EXP SWAP1 DIV PUSH20 0xFFFFFFFFFFFFFFFFFFFFFFFFFFFFFFFFFFFFFFFF AND SWAP1 DUP1 PUSH1 0x2 ADD PUSH1 0x0 SWAP1 SLOAD SWAP1 PUSH2 0x100 EXP SWAP1 DIV PUSH20 0xFFFFFFFFFFFFFFFFFFFFFFFFFFFFFFFFFFFFFFFF AND SWAP1 DUP1 PUSH1 0x2 ADD PUSH1 0x14 SWAP1 SLOAD SWAP1 PUSH2 0x100 EXP SWAP1 DIV PUSH4 0xFFFFFFFF AND SWAP1 DUP1 PUSH1 0x2 ADD PUSH1 0x18 SWAP1 SLOAD SWAP1 PUSH2 0x100 EXP SWAP1 DIV PUSH4 0xFFFFFFFF AND SWAP1 POP DUP6 JUMP JUMPDEST PUSH1 0x0 SLOAD DUP2 JUMP JUMPDEST PUSH1 0x40 MLOAD DUP1 PUSH1 0xA0 ADD PUSH1 0x40 MSTORE DUP1 PUSH1 0x0 DUP2 MSTORE PUSH1 0x20 ADD PUSH1 0x0 PUSH20 0xFFFFFFFFFFFFFFFFFFFFFFFFFFFFFFFFFFFFFFFF AND DUP2 MSTORE PUSH1 0x20 ADD PUSH1 0x0 PUSH20 0xFFFFFFFFFFFFFFFFFFFFFFFFFFFFFFFFFFFFFFFF AND DUP2 MSTORE PUSH1 0x20 ADD PUSH1 0x0 PUSH4 0xFFFFFFFF AND DUP2 MSTORE PUSH1 0x20 ADD PUSH1 0x0 PUSH4 0xFFFFFFFF AND DUP2 MSTORE POP SWAP1 JUMP JUMPDEST PUSH1 0x0 DUP1 REVERT JUMPDEST PUSH1 0x0 DUP2 SWAP1 POP SWAP2 SWAP1 POP JUMP JUMPDEST PUSH2 0x916 DUP2 PUSH2 0x903 JUMP JUMPDEST DUP2 EQ PUSH2 0x921 JUMPI PUSH1 0x0 DUP1 REVERT JUMPDEST POP JUMP JUMPDEST PUSH1 0x0 DUP2 CALLDATALOAD SWAP1 POP PUSH2 0x933 DUP2 PUSH2 0x90D JUMP JUMPDEST SWAP3 SWAP2 POP POP JUMP JUMPDEST PUSH1 0x0 PUSH1 0x20 DUP3 DUP5 SUB SLT ISZERO PUSH2 0x94F JUMPI PUSH2 0x94E PUSH2 0x8FE JUMP JUMPDEST JUMPDEST PUSH1 0x0 PUSH2 0x95D DUP5 DUP3 DUP6 ADD PUSH2 0x924 JUMP JUMPDEST SWAP2 POP POP SWAP3 SWAP2 POP POP JUMP JUMPDEST PUSH1 0x0 PUSH20 0xFFFFFFFFFFFFFFFFFFFFFFFFFFFFFFFFFFFFFFFF DUP3 AND SWAP1 POP SWAP2 SWAP1 POP JUMP JUMPDEST PUSH1 0x0 PUSH2 0x991 DUP3 PUSH2 0x966 JUMP JUMPDEST SWAP1 POP SWAP2 SWAP1 POP JUMP JUMPDEST PUSH2 0x9A1 DUP2 PUSH2 0x986 JUMP JUMPDEST DUP2 EQ PUSH2 0x9AC JUMPI PUSH1 0x0 DUP1 REVERT JUMPDEST POP JUMP JUMPDEST PUSH1 0x0 DUP2 CALLDATALOAD SWAP1 POP PUSH2 0x9BE DUP2 PUSH2 0x998 JUMP JUMPDEST SWAP3 SWAP2 POP POP JUMP JUMPDEST PUSH1 0x0 DUP1 PUSH1 0x40 DUP4 DUP6 SUB SLT ISZERO PUSH2 0x9DB JUMPI PUSH2 0x9DA PUSH2 0x8FE JUMP JUMPDEST JUMPDEST PUSH1 0x0 PUSH2 0x9E9 DUP6 DUP3 DUP7 ADD PUSH2 0x9AF JUMP JUMPDEST SWAP3 POP POP PUSH1 0x20 PUSH2 0x9FA DUP6 DUP3 DUP7 ADD PUSH2 0x924 JUMP JUMPDEST SWAP2 POP POP SWAP3 POP SWAP3 SWAP1 POP JUMP JUMPDEST PUSH2 0xA0D DUP2 PUSH2 0x903 JUMP JUMPDEST DUP3 MSTORE POP POP JUMP JUMPDEST PUSH1 0x0 PUSH1 0x20 DUP3 ADD SWAP1 POP PUSH2 0xA28 PUSH1 0x0 DUP4 ADD DUP5 PUSH2 0xA04 JUMP JUMPDEST SWAP3 SWAP2 POP POP JUMP JUMPDEST PUSH1 0x0 PUSH1 0x20 DUP3 DUP5 SUB SLT ISZERO PUSH2 0xA44 JUMPI PUSH2 0xA43 PUSH2 0x8FE JUMP JUMPDEST JUMPDEST PUSH1 0x0 PUSH2 0xA52 DUP5 DUP3 DUP6 ADD PUSH2 0x9AF JUMP JUMPDEST SWAP2 POP POP SWAP3 SWAP2 POP POP JUMP JUMPDEST PUSH1 0x0 DUP2 MLOAD SWAP1 POP SWAP2 SWAP1 POP JUMP JUMPDEST PUSH1 0x0 DUP3 DUP3 MSTORE PUSH1 0x20 DUP3 ADD SWAP1 POP SWAP3 SWAP2 POP POP JUMP JUMPDEST PUSH1 0x0 DUP2 SWAP1 POP PUSH1 0x20 DUP3 ADD SWAP1 POP SWAP2 SWAP1 POP JUMP JUMPDEST PUSH2 0xA90 DUP2 PUSH2 0x903 JUMP JUMPDEST DUP3 MSTORE POP POP JUMP JUMPDEST PUSH2 0xA9F DUP2 PUSH2 0x986 JUMP JUMPDEST DUP3 MSTORE POP POP JUMP JUMPDEST PUSH1 0x0 PUSH4 0xFFFFFFFF DUP3 AND SWAP1 POP SWAP2 SWAP1 POP JUMP JUMPDEST PUSH2 0xABE DUP2 PUSH2 0xAA5 JUMP JUMPDEST DUP3 MSTORE POP POP JUMP JUMPDEST PUSH1 0xA0 DUP3 ADD PUSH1 0x0 DUP3 ADD MLOAD PUSH2 0xADA PUSH1 0x0 DUP6 ADD DUP3 PUSH2 0xA87 JUMP JUMPDEST POP PUSH1 0x20 DUP3 ADD MLOAD PUSH2 0xAED PUSH1 0x20 DUP6 ADD DUP3 PUSH2 0xA96 JUMP JUMPDEST POP PUSH1 0x40 DUP3 ADD MLOAD PUSH2 0xB00 PUSH1 0x40 DUP6 ADD DUP3 PUSH2 0xA96 JUMP JUMPDEST POP PUSH1 0x60 DUP3 ADD MLOAD PUSH2 0xB13 PUSH1 0x60 DUP6 ADD DUP3 PUSH2 0xAB5 JUMP JUMPDEST POP PUSH1 0x80 DUP3 ADD MLOAD PUSH2 0xB26 PUSH1 0x80 DUP6 ADD DUP3 PUSH2 0xAB5 JUMP JUMPDEST POP POP POP POP JUMP JUMPDEST PUSH1 0x0 PUSH2 0xB38 DUP4 DUP4 PUSH2 0xAC4 JUMP JUMPDEST PUSH1 0xA0 DUP4 ADD SWAP1 POP SWAP3 SWAP2 POP POP JUMP JUMPDEST PUSH1 0x0 PUSH1 0x20 DUP3 ADD SWAP1 POP SWAP2 SWAP1 POP JUMP JUMPDEST PUSH1 0x0 PUSH2 0xB5C DUP3 PUSH2 0xA5B JUMP JUMPDEST PUSH2 0xB66 DUP2 DUP6 PUSH2 0xA66 JUMP JUMPDEST SWAP4 POP PUSH2 0xB71 DUP4 PUSH2 0xA77 JUMP JUMPDEST DUP1 PUSH1 0x0 JUMPDEST DUP4 DUP2 LT ISZERO PUSH2 0xBA2 JUMPI DUP2 MLOAD PUSH2 0xB89 DUP9 DUP3 PUSH2 0xB2C JUMP JUMPDEST SWAP8 POP PUSH2 0xB94 DUP4 PUSH2 0xB44 JUMP JUMPDEST SWAP3 POP POP PUSH1 0x1 DUP2 ADD SWAP1 POP PUSH2 0xB75 JUMP JUMPDEST POP DUP6 SWAP4 POP POP POP POP SWAP3 SWAP2 POP POP JUMP JUMPDEST PUSH1 0x0 PUSH1 0x20 DUP3 ADD SWAP1 POP DUP2 DUP2 SUB PUSH1 0x0 DUP4 ADD MSTORE PUSH2 0xBC9 DUP2 DUP5 PUSH2 0xB51 JUMP JUMPDEST SWAP1 POP SWAP3 SWAP2 POP POP JUMP JUMPDEST PUSH1 0xA0 DUP3 ADD PUSH1 0x0 DUP3 ADD MLOAD PUSH2 0xBE7 PUSH1 0x0 DUP6 ADD DUP3 PUSH2 0xA87 JUMP JUMPDEST POP PUSH1 0x20 DUP3 ADD MLOAD PUSH2 0xBFA PUSH1 0x20 DUP6 ADD DUP3 PUSH2 0xA96 JUMP JUMPDEST POP PUSH1 0x40 DUP3 ADD MLOAD PUSH2 0xC0D PUSH1 0x40 DUP6 ADD DUP3 PUSH2 0xA96 JUMP JUMPDEST POP PUSH1 0x60 DUP3 ADD MLOAD PUSH2 0xC20 PUSH1 0x60 DUP6 ADD DUP3 PUSH2 0xAB5 JUMP JUMPDEST POP PUSH1 0x80 DUP3 ADD MLOAD PUSH2 0xC33 PUSH1 0x80 DUP6 ADD DUP3 PUSH2 0xAB5 JUMP JUMPDEST POP POP POP POP JUMP JUMPDEST PUSH1 0x0 PUSH1 0xA0 DUP3 ADD SWAP1 POP PUSH2 0xC4E PUSH1 0x0 DUP4 ADD DUP5 PUSH2 0xBD1 JUMP JUMPDEST SWAP3 SWAP2 POP POP JUMP JUMPDEST PUSH2 0xC5D DUP2 PUSH2 0xAA5 JUMP JUMPDEST DUP2 EQ PUSH2 0xC68 JUMPI PUSH1 0x0 DUP1 REVERT JUMPDEST POP JUMP JUMPDEST PUSH1 0x0 DUP2 CALLDATALOAD SWAP1 POP PUSH2 0xC7A DUP2 PUSH2 0xC54 JUMP JUMPDEST SWAP3 SWAP2 POP POP JUMP JUMPDEST PUSH1 0x0 DUP1 PUSH1 0x0 DUP1 PUSH1 0x0 PUSH1 0xA0 DUP7 DUP9 SUB SLT ISZERO PUSH2 0xC9C JUMPI PUSH2 0xC9B PUSH2 0x8FE JUMP JUMPDEST JUMPDEST PUSH1 0x0 PUSH2 0xCAA DUP9 DUP3 DUP10 ADD PUSH2 0x924 JUMP JUMPDEST SWAP6 POP POP PUSH1 0x20 PUSH2 0xCBB DUP9 DUP3 DUP10 ADD PUSH2 0x9AF JUMP JUMPDEST SWAP5 POP POP PUSH1 0x40 PUSH2 0xCCC DUP9 DUP3 DUP10 ADD PUSH2 0x9AF JUMP JUMPDEST SWAP4 POP POP PUSH1 0x60 PUSH2 0xCDD DUP9 DUP3 DUP10 ADD PUSH2 0xC6B JUMP JUMPDEST SWAP3 POP POP PUSH1 0x80 PUSH2 0xCEE DUP9 DUP3 DUP10 ADD PUSH2 0xC6B JUMP JUMPDEST SWAP2 POP POP SWAP3 SWAP6 POP SWAP3 SWAP6 SWAP1 SWAP4 POP JUMP JUMPDEST PUSH2 0xD04 DUP2 PUSH2 0x986 JUMP JUMPDEST DUP3 MSTORE POP POP JUMP JUMPDEST PUSH2 0xD13 DUP2 PUSH2 0xAA5 JUMP JUMPDEST DUP3 MSTORE POP POP JUMP JUMPDEST PUSH1 0x0 PUSH1 0xA0 DUP3 ADD SWAP1 POP PUSH2 0xD2E PUSH1 0x0 DUP4 ADD DUP9 PUSH2 0xA04 JUMP JUMPDEST PUSH2 0xD3B PUSH1 0x20 DUP4 ADD DUP8 PUSH2 0xCFB JUMP JUMPDEST PUSH2 0xD48 PUSH1 0x40 DUP4 ADD DUP7 PUSH2 0xCFB JUMP JUMPDEST PUSH2 0xD55 PUSH1 0x60 DUP4 ADD DUP6 PUSH2 0xD0A JUMP JUMPDEST PUSH2 0xD62 PUSH1 0x80 DUP4 ADD DUP5 PUSH2 0xD0A JUMP JUMPDEST SWAP7 SWAP6 POP POP POP POP POP POP JUMP JUMPDEST PUSH1 0x0 PUSH1 0x20 DUP3 ADD SWAP1 POP PUSH2 0xD81 PUSH1 0x0 DUP4 ADD DUP5 PUSH2 0xD0A JUMP JUMPDEST SWAP3 SWAP2 POP POP JUMP JUMPDEST PUSH32 0x4E487B7100000000000000000000000000000000000000000000000000000000 PUSH1 0x0 MSTORE PUSH1 0x41 PUSH1 0x4 MSTORE PUSH1 0x24 PUSH1 0x0 REVERT JUMPDEST PUSH32 0x4E487B7100000000000000000000000000000000000000000000000000000000 PUSH1 0x0 MSTORE PUSH1 0x32 PUSH1 0x4 MSTORE PUSH1 0x24 PUSH1 0x0 REVERT JUMPDEST PUSH32 0x4E487B7100000000000000000000000000000000000000000000000000000000 PUSH1 0x0 MSTORE PUSH1 0x11 PUSH1 0x4 MSTORE PUSH1 0x24 PUSH1 0x0 REVERT JUMPDEST PUSH1 0x0 PUSH2 0xE1F DUP3 PUSH2 0x903 JUMP JUMPDEST SWAP2 POP PUSH32 0xFFFFFFFFFFFFFFFFFFFFFFFFFFFFFFFFFFFFFFFFFFFFFFFFFFFFFFFFFFFFFFFF DUP3 SUB PUSH2 0xE51 JUMPI PUSH2 0xE50 PUSH2 0xDE5 JUMP JUMPDEST JUMPDEST PUSH1 0x1 DUP3 ADD SWAP1 POP SWAP2 SWAP1 POP JUMP JUMPDEST PUSH1 0x0 PUSH1 0x60 DUP3 ADD SWAP1 POP PUSH2 0xE71 PUSH1 0x0 DUP4 ADD DUP7 PUSH2 0xCFB JUMP JUMPDEST PUSH2 0xE7E PUSH1 0x20 DUP4 ADD DUP6 PUSH2 0xCFB JUMP JUMPDEST PUSH2 0xE8B PUSH1 0x40 DUP4 ADD DUP5 PUSH2 0xD0A JUMP JUMPDEST SWAP5 SWAP4 POP POP POP POP JUMP INVALID LOG2 PUSH5 0x6970667358 0x22 SLT KECCAK256 PUSH18 0xA9248F94E2CF30BE5CB7E11471AAB01226C4 0xBE 0xA9 RETURNDATACOPY DUP16 0xD DUP2 DUP2 STOP 0x24 0xE9 0xED 0x4A ISZERO PUSH5 0x736F6C6343 STOP ADDMOD SGT STOP CALLER "
				},
				"gasEstimates": {
					"creation": {
						"codeDepositCost": "757000",
						"executionCost": "22898",
						"totalCost": "779898"
					},
					"external": {
						"distributorTosmIDMapping(address,uint256)": "infinite",
						"getAllmdIdForManufacturer(address)": "infinite",
						"getProduct(uint256)": "infinite",
						"mdId()": "2495",
						"mdidToStructMapping(uint256)": "infinite",
						"receiveProduct(uint256)": "26003",
						"transferproduct(uint256,address,address,uint32,uint32)": "infinite"
					}
				},
				"methodIdentifiers": {
					"distributorTosmIDMapping(address,uint256)": "83f48c96",
					"getAllmdIdForManufacturer(address)": "96fccba4",
					"getProduct(uint256)": "b9db15b4",
					"mdId()": "e3eba904",
					"mdidToStructMapping(uint256)": "cb59d430",
					"receiveProduct(uint256)": "29d78328",
					"transferproduct(uint256,address,address,uint32,uint32)": "c7414bee"
				}
			},
			"storageLayout": {
				"storage": [
					{
						"astId": 55,
						"contract": "contracts/manufacturerDistributor.sol:manufacturerDistributor",
						"label": "mdId",
						"offset": 0,
						"slot": "0",
						"type": "t_uint256"
					},
					{
						"astId": 58,
						"contract": "contracts/manufacturerDistributor.sol:manufacturerDistributor",
						"label": "alltransfers",
						"offset": 0,
						"slot": "1",
						"type": "t_array(t_uint256)dyn_storage"
					},
					{
						"astId": 63,
						"contract": "contracts/manufacturerDistributor.sol:manufacturerDistributor",
						"label": "mdidToStructMapping",
						"offset": 0,
						"slot": "2",
						"type": "t_mapping(t_uint256,t_struct(manufacturerDistributor)12_storage)"
					},
					{
						"astId": 68,
						"contract": "contracts/manufacturerDistributor.sol:manufacturerDistributor",
						"label": "distributorTosmIDMapping",
						"offset": 0,
						"slot": "3",
						"type": "t_mapping(t_address,t_array(t_uint256)dyn_storage)"
					}
				],
				"types": {
					"t_address": {
						"encoding": "inplace",
						"label": "address",
						"numberOfBytes": "20"
					},
					"t_array(t_uint256)dyn_storage": {
						"base": "t_uint256",
						"encoding": "dynamic_array",
						"label": "uint256[]",
						"numberOfBytes": "32"
					},
					"t_mapping(t_address,t_array(t_uint256)dyn_storage)": {
						"encoding": "mapping",
						"key": "t_address",
						"label": "mapping(address => uint256[])",
						"numberOfBytes": "32",
						"value": "t_array(t_uint256)dyn_storage"
					},
					"t_mapping(t_uint256,t_struct(manufacturerDistributor)12_storage)": {
						"encoding": "mapping",
						"key": "t_uint256",
						"label": "mapping(uint256 => struct IManufacturerDistributor.manufacturerDistributor)",
						"numberOfBytes": "32",
						"value": "t_struct(manufacturerDistributor)12_storage"
					},
					"t_struct(manufacturerDistributor)12_storage": {
						"encoding": "inplace",
						"label": "struct IManufacturerDistributor.manufacturerDistributor",
						"members": [
							{
								"astId": 3,
								"contract": "contracts/manufacturerDistributor.sol:manufacturerDistributor",
								"label": "mpId",
								"offset": 0,
								"slot": "0",
								"type": "t_uint256"
							},
							{
								"astId": 5,
								"contract": "contracts/manufacturerDistributor.sol:manufacturerDistributor",
								"label": "m_address",
								"offset": 0,
								"slot": "1",
								"type": "t_address"
							},
							{
								"astId": 7,
								"contract": "contracts/manufacturerDistributor.sol:manufacturerDistributor",
								"label": "d_address",
								"offset": 0,
								"slot": "2",
								"type": "t_address"
							},
							{
								"astId": 9,
								"contract": "contracts/manufacturerDistributor.sol:manufacturerDistributor",
								"label": "dispatchTime",
								"offset": 20,
								"slot": "2",
								"type": "t_uint32"
							},
							{
								"astId": 11,
								"contract": "contracts/manufacturerDistributor.sol:manufacturerDistributor",
								"label": "arrivalTime",
								"offset": 24,
								"slot": "2",
								"type": "t_uint32"
							}
						],
						"numberOfBytes": "96"
					},
					"t_uint256": {
						"encoding": "inplace",
						"label": "uint256",
						"numberOfBytes": "32"
					},
					"t_uint32": {
						"encoding": "inplace",
						"label": "uint32",
						"numberOfBytes": "4"
					}
				}
			},
			"userdoc": {
				"kind": "user",
				"methods": {},
				"version": 1
			}
		}
	}
}