{
	"contracts/supplierManufacturer.sol": {
		"supplierManufacturer": {
			"abi": [
				{
					"anonymous": false,
					"inputs": [
						{
							"indexed": false,
							"internalType": "uint32",
							"name": "_arrivalTime",
							"type": "uint32"
						}
					],
					"name": "eventArrivalTime",
					"type": "event"
				},
				{
					"anonymous": false,
					"inputs": [
						{
							"indexed": true,
							"internalType": "uint256",
							"name": "_smId",
							"type": "uint256"
						},
						{
							"indexed": true,
							"internalType": "uint256",
							"name": "_spId",
							"type": "uint256"
						},
						{
							"indexed": false,
							"internalType": "address",
							"name": "_supplierAddress",
							"type": "address"
						},
						{
							"indexed": false,
							"internalType": "address",
							"name": "_manufacturerAddress",
							"type": "address"
						},
						{
							"indexed": false,
							"internalType": "uint32",
							"name": "_dispatchTime",
							"type": "uint32"
						}
					],
					"name": "eventSupplierManufacturerTransfer",
					"type": "event"
				},
				{
					"inputs": [
						{
							"internalType": "address",
							"name": "_manufacturerAddress",
							"type": "address"
						}
					],
					"name": "getAllSmIdForManufacturer",
					"outputs": [
						{
							"components": [
								{
									"internalType": "uint256",
									"name": "spId",
									"type": "uint256"
								},
								{
									"internalType": "address",
									"name": "supplierAddress",
									"type": "address"
								},
								{
									"internalType": "address",
									"name": "manufacturerAddress",
									"type": "address"
								},
								{
									"internalType": "uint32",
									"name": "dispatchTime",
									"type": "uint32"
								},
								{
									"internalType": "uint32",
									"name": "arrivalTime",
									"type": "uint32"
								}
							],
							"internalType": "struct ISupplierManufacturer.supplierManufacturer[]",
							"name": "",
							"type": "tuple[]"
						}
					],
					"stateMutability": "view",
					"type": "function"
				},
				{
					"inputs": [
						{
							"internalType": "uint256",
							"name": "_smId",
							"type": "uint256"
						}
					],
					"name": "getProduct",
					"outputs": [
						{
							"components": [
								{
									"internalType": "uint256",
									"name": "spId",
									"type": "uint256"
								},
								{
									"internalType": "address",
									"name": "supplierAddress",
									"type": "address"
								},
								{
									"internalType": "address",
									"name": "manufacturerAddress",
									"type": "address"
								},
								{
									"internalType": "uint32",
									"name": "dispatchTime",
									"type": "uint32"
								},
								{
									"internalType": "uint32",
									"name": "arrivalTime",
									"type": "uint32"
								}
							],
							"internalType": "struct ISupplierManufacturer.supplierManufacturer",
							"name": "",
							"type": "tuple"
						}
					],
					"stateMutability": "view",
					"type": "function"
				},
				{
					"inputs": [
						{
							"internalType": "address",
							"name": "",
							"type": "address"
						},
						{
							"internalType": "uint256",
							"name": "",
							"type": "uint256"
						}
					],
					"name": "manufacturerTosmIDMapping",
					"outputs": [
						{
							"internalType": "uint256",
							"name": "",
							"type": "uint256"
						}
					],
					"stateMutability": "view",
					"type": "function"
				},
				{
					"inputs": [
						{
							"internalType": "uint256",
							"name": "_smId",
							"type": "uint256"
						}
					],
					"name": "receiveProduct",
					"outputs": [],
					"stateMutability": "nonpayable",
					"type": "function"
				},
				{
					"inputs": [],
					"name": "smId",
					"outputs": [
						{
							"internalType": "uint256",
							"name": "",
							"type": "uint256"
						}
					],
					"stateMutability": "view",
					"type": "function"
				},
				{
					"inputs": [
						{
							"internalType": "uint256",
							"name": "",
							"type": "uint256"
						}
					],
					"name": "smidToStructMapping",
					"outputs": [
						{
							"internalType": "uint256",
							"name": "spId",
							"type": "uint256"
						},
						{
							"internalType": "address",
							"name": "supplierAddress",
							"type": "address"
						},
						{
							"internalType": "address",
							"name": "manufacturerAddress",
							"type": "address"
						},
						{
							"internalType": "uint32",
							"name": "dispatchTime",
							"type": "uint32"
						},
						{
							"internalType": "uint32",
							"name": "arrivalTime",
							"type": "uint32"
						}
					],
					"stateMutability": "view",
					"type": "function"
				},
				{
					"inputs": [
						{
							"internalType": "uint256",
							"name": "_spId",
							"type": "uint256"
						},
						{
							"internalType": "address",
							"name": "_supplierAddress",
							"type": "address"
						},
						{
							"internalType": "address",
							"name": "_manufacturerAddress",
							"type": "address"
						},
						{
							"internalType": "uint32",
							"name": "_dispatchTime",
							"type": "uint32"
						},
						{
							"internalType": "uint32",
							"name": "_arrivalTime",
							"type": "uint32"
						}
					],
					"name": "transferProduct",
					"outputs": [],
					"stateMutability": "nonpayable",
					"type": "function"
				}
			],
			"devdoc": {
				"kind": "dev",
				"methods": {},
				"version": 1
			},
			"evm": {
				"assembly": "    /* \"contracts/supplierManufacturer.sol\":122:1870  contract supplierManufacturer is ISupplierManufacturer{... */\n  mstore(0x40, 0x80)\n    /* \"contracts/supplierManufacturer.sol\":202:203  1 */\n  0x01\n    /* \"contracts/supplierManufacturer.sol\":183:203  uint public smId = 1 */\n  0x00\n  sstore\n    /* \"contracts/supplierManufacturer.sol\":122:1870  contract supplierManufacturer is ISupplierManufacturer{... */\n  callvalue\n  dup1\n  iszero\n  tag_1\n  jumpi\n  0x00\n  dup1\n  revert\ntag_1:\n  pop\n  dataSize(sub_0)\n  dup1\n  dataOffset(sub_0)\n  0x00\n  codecopy\n  0x00\n  return\nstop\n\nsub_0: assembly {\n        /* \"contracts/supplierManufacturer.sol\":122:1870  contract supplierManufacturer is ISupplierManufacturer{... */\n      mstore(0x40, 0x80)\n      callvalue\n      dup1\n      iszero\n      tag_1\n      jumpi\n      0x00\n      dup1\n      revert\n    tag_1:\n      pop\n      jumpi(tag_2, lt(calldatasize, 0x04))\n      shr(0xe0, calldataload(0x00))\n      dup1\n      0x70b775a0\n      gt\n      tag_10\n      jumpi\n      dup1\n      0x70b775a0\n      eq\n      tag_6\n      jumpi\n      dup1\n      0xa4403615\n      eq\n      tag_7\n      jumpi\n      dup1\n      0xb9db15b4\n      eq\n      tag_8\n      jumpi\n      dup1\n      0xd2bf193d\n      eq\n      tag_9\n      jumpi\n      jump(tag_2)\n    tag_10:\n      dup1\n      0x029e2fe4\n      eq\n      tag_3\n      jumpi\n      dup1\n      0x29d78328\n      eq\n      tag_4\n      jumpi\n      dup1\n      0x3f5d2e2e\n      eq\n      tag_5\n      jumpi\n    tag_2:\n      0x00\n      dup1\n      revert\n        /* \"contracts/supplierManufacturer.sol\":183:203  uint public smId = 1 */\n    tag_3:\n      tag_11\n      tag_12\n      jump\t// in\n    tag_11:\n      mload(0x40)\n      tag_13\n      swap2\n      swap1\n      tag_14\n      jump\t// in\n    tag_13:\n      mload(0x40)\n      dup1\n      swap2\n      sub\n      swap1\n      return\n        /* \"contracts/supplierManufacturer.sol\":1054:1246  function receiveProduct(uint _smId)external override{... */\n    tag_4:\n      tag_15\n      0x04\n      dup1\n      calldatasize\n      sub\n      dup2\n      add\n      swap1\n      tag_16\n      swap2\n      swap1\n      tag_17\n      jump\t// in\n    tag_16:\n      tag_18\n      jump\t// in\n    tag_15:\n      stop\n        /* \"contracts/supplierManufacturer.sol\":529:1045  function transferProduct(uint _spId, address _supplierAddress,address _manufacturerAddress,uint32 _dispatchTime,uint32 _arrivalTime)external override{... */\n    tag_5:\n      tag_19\n      0x04\n      dup1\n      calldatasize\n      sub\n      dup2\n      add\n      swap1\n      tag_20\n      swap2\n      swap1\n      tag_21\n      jump\t// in\n    tag_20:\n      tag_22\n      jump\t// in\n    tag_19:\n      stop\n        /* \"contracts/supplierManufacturer.sol\":1393:1867  function getAllSmIdForManufacturer(address _manufacturerAddress) public view returns(supplierManufacturer[] memory){... */\n    tag_6:\n      tag_23\n      0x04\n      dup1\n      calldatasize\n      sub\n      dup2\n      add\n      swap1\n      tag_24\n      swap2\n      swap1\n      tag_25\n      jump\t// in\n    tag_24:\n      tag_26\n      jump\t// in\n    tag_23:\n      mload(0x40)\n      tag_27\n      swap2\n      swap1\n      tag_28\n      jump\t// in\n    tag_27:\n      mload(0x40)\n      dup1\n      swap2\n      sub\n      swap1\n      return\n        /* \"contracts/supplierManufacturer.sol\":463:522  mapping(address => uint[]) public manufacturerTosmIDMapping */\n    tag_7:\n      tag_29\n      0x04\n      dup1\n      calldatasize\n      sub\n      dup2\n      add\n      swap1\n      tag_30\n      swap2\n      swap1\n      tag_31\n      jump\t// in\n    tag_30:\n      tag_32\n      jump\t// in\n    tag_29:\n      mload(0x40)\n      tag_33\n      swap2\n      swap1\n      tag_14\n      jump\t// in\n    tag_33:\n      mload(0x40)\n      dup1\n      swap2\n      sub\n      swap1\n      return\n        /* \"contracts/supplierManufacturer.sol\":1253:1385  function getProduct(uint _smId) public view returns(supplierManufacturer memory){... */\n    tag_8:\n      tag_34\n      0x04\n      dup1\n      calldatasize\n      sub\n      dup2\n      add\n      swap1\n      tag_35\n      swap2\n      swap1\n      tag_17\n      jump\t// in\n    tag_35:\n      tag_36\n      jump\t// in\n    tag_34:\n      mload(0x40)\n      tag_37\n      swap2\n      swap1\n      tag_38\n      jump\t// in\n    tag_37:\n      mload(0x40)\n      dup1\n      swap2\n      sub\n      swap1\n      return\n        /* \"contracts/supplierManufacturer.sol\":392:456  mapping(uint => supplierManufacturer) public smidToStructMapping */\n    tag_9:\n      tag_39\n      0x04\n      dup1\n      calldatasize\n      sub\n      dup2\n      add\n      swap1\n      tag_40\n      swap2\n      swap1\n      tag_17\n      jump\t// in\n    tag_40:\n      tag_41\n      jump\t// in\n    tag_39:\n      mload(0x40)\n      tag_42\n      swap6\n      swap5\n      swap4\n      swap3\n      swap2\n      swap1\n      tag_43\n      jump\t// in\n    tag_42:\n      mload(0x40)\n      dup1\n      swap2\n      sub\n      swap1\n      return\n        /* \"contracts/supplierManufacturer.sol\":183:203  uint public smId = 1 */\n    tag_12:\n      sload(0x00)\n      dup2\n      jump\t// out\n        /* \"contracts/supplierManufacturer.sol\":1054:1246  function receiveProduct(uint _smId)external override{... */\n    tag_18:\n        /* \"contracts/supplierManufacturer.sol\":1165:1180  block.timestamp */\n      timestamp\n        /* \"contracts/supplierManufacturer.sol\":1117:1136  smidToStructMapping */\n      0x02\n        /* \"contracts/supplierManufacturer.sol\":1117:1143  smidToStructMapping[_smId] */\n      0x00\n        /* \"contracts/supplierManufacturer.sol\":1137:1142  _smId */\n      dup4\n        /* \"contracts/supplierManufacturer.sol\":1117:1143  smidToStructMapping[_smId] */\n      dup2\n      mstore\n      0x20\n      add\n      swap1\n      dup2\n      mstore\n      0x20\n      add\n      0x00\n      keccak256\n        /* \"contracts/supplierManufacturer.sol\":1117:1155  smidToStructMapping[_smId].arrivalTime */\n      0x02\n      add\n      0x18\n        /* \"contracts/supplierManufacturer.sol\":1117:1181  smidToStructMapping[_smId].arrivalTime = uint32(block.timestamp) */\n      0x0100\n      exp\n      dup2\n      sload\n      dup2\n      0xffffffff\n      mul\n      not\n      and\n      swap1\n      dup4\n      0xffffffff\n      and\n      mul\n      or\n      swap1\n      sstore\n      pop\n        /* \"contracts/supplierManufacturer.sol\":1197:1238  eventArrivalTime(uint32(block.timestamp)) */\n      0x64e64e323422dcfed18a892f84596ccf7cc94b1952625f3cc82e6461b529fff1\n        /* \"contracts/supplierManufacturer.sol\":1221:1236  block.timestamp */\n      timestamp\n        /* \"contracts/supplierManufacturer.sol\":1197:1238  eventArrivalTime(uint32(block.timestamp)) */\n      mload(0x40)\n      tag_45\n      swap2\n      swap1\n      tag_46\n      jump\t// in\n    tag_45:\n      mload(0x40)\n      dup1\n      swap2\n      sub\n      swap1\n      log1\n        /* \"contracts/supplierManufacturer.sol\":1054:1246  function receiveProduct(uint _smId)external override{... */\n      pop\n      jump\t// out\n        /* \"contracts/supplierManufacturer.sol\":529:1045  function transferProduct(uint _spId, address _supplierAddress,address _manufacturerAddress,uint32 _dispatchTime,uint32 _arrivalTime)external override{... */\n    tag_22:\n        /* \"contracts/supplierManufacturer.sol\":717:809  supplierManufacturer(_spId,_supplierAddress,_manufacturerAddress,_dispatchTime,_arrivalTime) */\n      mload(0x40)\n      dup1\n      0xa0\n      add\n      0x40\n      mstore\n      dup1\n        /* \"contracts/supplierManufacturer.sol\":738:743  _spId */\n      dup7\n        /* \"contracts/supplierManufacturer.sol\":717:809  supplierManufacturer(_spId,_supplierAddress,_manufacturerAddress,_dispatchTime,_arrivalTime) */\n      dup2\n      mstore\n      0x20\n      add\n        /* \"contracts/supplierManufacturer.sol\":744:760  _supplierAddress */\n      dup6\n        /* \"contracts/supplierManufacturer.sol\":717:809  supplierManufacturer(_spId,_supplierAddress,_manufacturerAddress,_dispatchTime,_arrivalTime) */\n      0xffffffffffffffffffffffffffffffffffffffff\n      and\n      dup2\n      mstore\n      0x20\n      add\n        /* \"contracts/supplierManufacturer.sol\":761:781  _manufacturerAddress */\n      dup5\n        /* \"contracts/supplierManufacturer.sol\":717:809  supplierManufacturer(_spId,_supplierAddress,_manufacturerAddress,_dispatchTime,_arrivalTime) */\n      0xffffffffffffffffffffffffffffffffffffffff\n      and\n      dup2\n      mstore\n      0x20\n      add\n        /* \"contracts/supplierManufacturer.sol\":782:795  _dispatchTime */\n      dup4\n        /* \"contracts/supplierManufacturer.sol\":717:809  supplierManufacturer(_spId,_supplierAddress,_manufacturerAddress,_dispatchTime,_arrivalTime) */\n      0xffffffff\n      and\n      dup2\n      mstore\n      0x20\n      add\n        /* \"contracts/supplierManufacturer.sol\":796:808  _arrivalTime */\n      dup3\n        /* \"contracts/supplierManufacturer.sol\":717:809  supplierManufacturer(_spId,_supplierAddress,_manufacturerAddress,_dispatchTime,_arrivalTime) */\n      0xffffffff\n      and\n      dup2\n      mstore\n      pop\n        /* \"contracts/supplierManufacturer.sol\":689:708  smidToStructMapping */\n      0x02\n        /* \"contracts/supplierManufacturer.sol\":689:714  smidToStructMapping[smId] */\n      0x00\n        /* \"contracts/supplierManufacturer.sol\":709:713  smId */\n      dup1\n      sload\n        /* \"contracts/supplierManufacturer.sol\":689:714  smidToStructMapping[smId] */\n      dup2\n      mstore\n      0x20\n      add\n      swap1\n      dup2\n      mstore\n      0x20\n      add\n      0x00\n      keccak256\n        /* \"contracts/supplierManufacturer.sol\":689:809  smidToStructMapping[smId] = supplierManufacturer(_spId,_supplierAddress,_manufacturerAddress,_dispatchTime,_arrivalTime) */\n      0x00\n      dup3\n      add\n      mload\n      dup2\n      0x00\n      add\n      sstore\n      0x20\n      dup3\n      add\n      mload\n      dup2\n      0x01\n      add\n      exp(0x0100, 0x00)\n      dup2\n      sload\n      dup2\n      0xffffffffffffffffffffffffffffffffffffffff\n      mul\n      not\n      and\n      swap1\n      dup4\n      0xffffffffffffffffffffffffffffffffffffffff\n      and\n      mul\n      or\n      swap1\n      sstore\n      pop\n      0x40\n      dup3\n      add\n      mload\n      dup2\n      0x02\n      add\n      exp(0x0100, 0x00)\n      dup2\n      sload\n      dup2\n      0xffffffffffffffffffffffffffffffffffffffff\n      mul\n      not\n      and\n      swap1\n      dup4\n      0xffffffffffffffffffffffffffffffffffffffff\n      and\n      mul\n      or\n      swap1\n      sstore\n      pop\n      0x60\n      dup3\n      add\n      mload\n      dup2\n      0x02\n      add\n      exp(0x0100, 0x14)\n      dup2\n      sload\n      dup2\n      0xffffffff\n      mul\n      not\n      and\n      swap1\n      dup4\n      0xffffffff\n      and\n      mul\n      or\n      swap1\n      sstore\n      pop\n      0x80\n      dup3\n      add\n      mload\n      dup2\n      0x02\n      add\n      exp(0x0100, 0x18)\n      dup2\n      sload\n      dup2\n      0xffffffff\n      mul\n      not\n      and\n      swap1\n      dup4\n      0xffffffff\n      and\n      mul\n      or\n      swap1\n      sstore\n      pop\n      swap1\n      pop\n      pop\n        /* \"contracts/supplierManufacturer.sol\":820:827  allSmId */\n      0x01\n        /* \"contracts/supplierManufacturer.sol\":833:837  smId */\n      sload(0x00)\n        /* \"contracts/supplierManufacturer.sol\":820:838  allSmId.push(smId) */\n      swap1\n      dup1\n      0x01\n      dup2\n      sload\n      add\n      dup1\n      dup3\n      sstore\n      dup1\n      swap2\n      pop\n      pop\n      0x01\n      swap1\n      sub\n      swap1\n      0x00\n      mstore\n      keccak256(0x00, 0x20)\n      add\n      0x00\n      swap1\n      swap2\n      swap1\n      swap2\n      swap1\n      swap2\n      pop\n      sstore\n        /* \"contracts/supplierManufacturer.sol\":849:874  manufacturerTosmIDMapping */\n      0x03\n        /* \"contracts/supplierManufacturer.sol\":849:896  manufacturerTosmIDMapping[_manufacturerAddress] */\n      0x00\n        /* \"contracts/supplierManufacturer.sol\":875:895  _manufacturerAddress */\n      dup5\n        /* \"contracts/supplierManufacturer.sol\":849:896  manufacturerTosmIDMapping[_manufacturerAddress] */\n      0xffffffffffffffffffffffffffffffffffffffff\n      and\n      0xffffffffffffffffffffffffffffffffffffffff\n      and\n      dup2\n      mstore\n      0x20\n      add\n      swap1\n      dup2\n      mstore\n      0x20\n      add\n      0x00\n      keccak256\n        /* \"contracts/supplierManufacturer.sol\":902:906  smId */\n      sload(0x00)\n        /* \"contracts/supplierManufacturer.sol\":849:907  manufacturerTosmIDMapping[_manufacturerAddress].push(smId) */\n      swap1\n      dup1\n      0x01\n      dup2\n      sload\n      add\n      dup1\n      dup3\n      sstore\n      dup1\n      swap2\n      pop\n      pop\n      0x01\n      swap1\n      sub\n      swap1\n      0x00\n      mstore\n      keccak256(0x00, 0x20)\n      add\n      0x00\n      swap1\n      swap2\n      swap1\n      swap2\n      swap1\n      swap2\n      pop\n      sstore\n        /* \"contracts/supplierManufacturer.sol\":962:967  _spId */\n      dup5\n        /* \"contracts/supplierManufacturer.sol\":957:961  smId */\n      sload(0x00)\n        /* \"contracts/supplierManufacturer.sol\":923:1020  eventSupplierManufacturerTransfer(smId,_spId,_supplierAddress,_manufacturerAddress,_dispatchTime) */\n      0x6abc5964a9f8c02bee56a206f75c7526ea67f5abd5cbbe939c60d4a489607e49\n        /* \"contracts/supplierManufacturer.sol\":968:984  _supplierAddress */\n      dup7\n        /* \"contracts/supplierManufacturer.sol\":985:1005  _manufacturerAddress */\n      dup7\n        /* \"contracts/supplierManufacturer.sol\":1006:1019  _dispatchTime */\n      dup7\n        /* \"contracts/supplierManufacturer.sol\":923:1020  eventSupplierManufacturerTransfer(smId,_spId,_supplierAddress,_manufacturerAddress,_dispatchTime) */\n      mload(0x40)\n      tag_50\n      swap4\n      swap3\n      swap2\n      swap1\n      tag_51\n      jump\t// in\n    tag_50:\n      mload(0x40)\n      dup1\n      swap2\n      sub\n      swap1\n      log3\n        /* \"contracts/supplierManufacturer.sol\":1031:1035  smId */\n      0x00\n      dup1\n        /* \"contracts/supplierManufacturer.sol\":1031:1037  smId++ */\n      dup2\n      sload\n      dup1\n      swap3\n      swap2\n      swap1\n      tag_52\n      swap1\n      tag_53\n      jump\t// in\n    tag_52:\n      swap2\n      swap1\n      pop\n      sstore\n      pop\n        /* \"contracts/supplierManufacturer.sol\":529:1045  function transferProduct(uint _spId, address _supplierAddress,address _manufacturerAddress,uint32 _dispatchTime,uint32 _arrivalTime)external override{... */\n      pop\n      pop\n      pop\n      pop\n      pop\n      jump\t// out\n        /* \"contracts/supplierManufacturer.sol\":1393:1867  function getAllSmIdForManufacturer(address _manufacturerAddress) public view returns(supplierManufacturer[] memory){... */\n    tag_26:\n        /* \"contracts/supplierManufacturer.sol\":1478:1507  supplierManufacturer[] memory */\n      0x60\n        /* \"contracts/supplierManufacturer.sol\":1529:1551  uint[] memory smIdData */\n      0x00\n        /* \"contracts/supplierManufacturer.sol\":1554:1579  manufacturerTosmIDMapping */\n      0x03\n        /* \"contracts/supplierManufacturer.sol\":1554:1601  manufacturerTosmIDMapping[_manufacturerAddress] */\n      0x00\n        /* \"contracts/supplierManufacturer.sol\":1580:1600  _manufacturerAddress */\n      dup5\n        /* \"contracts/supplierManufacturer.sol\":1554:1601  manufacturerTosmIDMapping[_manufacturerAddress] */\n      0xffffffffffffffffffffffffffffffffffffffff\n      and\n      0xffffffffffffffffffffffffffffffffffffffff\n      and\n      dup2\n      mstore\n      0x20\n      add\n      swap1\n      dup2\n      mstore\n      0x20\n      add\n      0x00\n      keccak256\n        /* \"contracts/supplierManufacturer.sol\":1529:1601  uint[] memory smIdData = manufacturerTosmIDMapping[_manufacturerAddress] */\n      dup1\n      sload\n      dup1\n      0x20\n      mul\n      0x20\n      add\n      mload(0x40)\n      swap1\n      dup2\n      add\n      0x40\n      mstore\n      dup1\n      swap3\n      swap2\n      swap1\n      dup2\n      dup2\n      mstore\n      0x20\n      add\n      dup3\n      dup1\n      sload\n      dup1\n      iszero\n      tag_55\n      jumpi\n      0x20\n      mul\n      dup3\n      add\n      swap2\n      swap1\n      0x00\n      mstore\n      keccak256(0x00, 0x20)\n      swap1\n    tag_56:\n      dup2\n      sload\n      dup2\n      mstore\n      0x20\n      add\n      swap1\n      0x01\n      add\n      swap1\n      dup1\n      dup4\n      gt\n      tag_56\n      jumpi\n    tag_55:\n      pop\n      pop\n      pop\n      pop\n      pop\n      swap1\n      pop\n        /* \"contracts/supplierManufacturer.sol\":1612:1653  supplierManufacturer[] memory smIdDetails */\n      0x00\n        /* \"contracts/supplierManufacturer.sol\":1683:1691  smIdData */\n      dup2\n        /* \"contracts/supplierManufacturer.sol\":1683:1698  smIdData.length */\n      mload\n        /* \"contracts/supplierManufacturer.sol\":1656:1699  new supplierManufacturer[](smIdData.length) */\n      0xffffffffffffffff\n      dup2\n      gt\n      iszero\n      tag_57\n      jumpi\n      tag_58\n      tag_59\n      jump\t// in\n    tag_58:\n    tag_57:\n      mload(0x40)\n      swap1\n      dup1\n      dup3\n      mstore\n      dup1\n      0x20\n      mul\n      0x20\n      add\n      dup3\n      add\n      0x40\n      mstore\n      dup1\n      iszero\n      tag_60\n      jumpi\n      dup2\n      0x20\n      add\n    tag_61:\n      tag_62\n      tag_63\n      jump\t// in\n    tag_62:\n      dup2\n      mstore\n      0x20\n      add\n      swap1\n      0x01\n      swap1\n      sub\n      swap1\n      dup2\n      tag_61\n      jumpi\n      swap1\n      pop\n    tag_60:\n      pop\n        /* \"contracts/supplierManufacturer.sol\":1612:1699  supplierManufacturer[] memory smIdDetails = new supplierManufacturer[](smIdData.length) */\n      swap1\n      pop\n        /* \"contracts/supplierManufacturer.sol\":1714:1720  uint i */\n      0x00\n        /* \"contracts/supplierManufacturer.sol\":1710:1831  for(uint i=0;i<smIdData.length;i++)... */\n    tag_64:\n        /* \"contracts/supplierManufacturer.sol\":1725:1733  smIdData */\n      dup3\n        /* \"contracts/supplierManufacturer.sol\":1725:1740  smIdData.length */\n      mload\n        /* \"contracts/supplierManufacturer.sol\":1723:1724  i */\n      dup2\n        /* \"contracts/supplierManufacturer.sol\":1723:1740  i<smIdData.length */\n      lt\n        /* \"contracts/supplierManufacturer.sol\":1710:1831  for(uint i=0;i<smIdData.length;i++)... */\n      iszero\n      tag_65\n      jumpi\n        /* \"contracts/supplierManufacturer.sol\":1787:1806  smidToStructMapping */\n      0x02\n        /* \"contracts/supplierManufacturer.sol\":1787:1819  smidToStructMapping[smIdData[i]] */\n      0x00\n        /* \"contracts/supplierManufacturer.sol\":1807:1815  smIdData */\n      dup5\n        /* \"contracts/supplierManufacturer.sol\":1816:1817  i */\n      dup4\n        /* \"contracts/supplierManufacturer.sol\":1807:1818  smIdData[i] */\n      dup2\n      mload\n      dup2\n      lt\n      tag_67\n      jumpi\n      tag_68\n      tag_69\n      jump\t// in\n    tag_68:\n    tag_67:\n      0x20\n      mul\n      0x20\n      add\n      add\n      mload\n        /* \"contracts/supplierManufacturer.sol\":1787:1819  smidToStructMapping[smIdData[i]] */\n      dup2\n      mstore\n      0x20\n      add\n      swap1\n      dup2\n      mstore\n      0x20\n      add\n      0x00\n      keccak256\n        /* \"contracts/supplierManufacturer.sol\":1770:1819  smIdDetails[i] = smidToStructMapping[smIdData[i]] */\n      mload(0x40)\n      dup1\n      0xa0\n      add\n      0x40\n      mstore\n      swap1\n      dup2\n      0x00\n      dup3\n      add\n      sload\n      dup2\n      mstore\n      0x20\n      add\n      0x01\n      dup3\n      add\n      0x00\n      swap1\n      sload\n      swap1\n      0x0100\n      exp\n      swap1\n      div\n      0xffffffffffffffffffffffffffffffffffffffff\n      and\n      0xffffffffffffffffffffffffffffffffffffffff\n      and\n      0xffffffffffffffffffffffffffffffffffffffff\n      and\n      dup2\n      mstore\n      0x20\n      add\n      0x02\n      dup3\n      add\n      0x00\n      swap1\n      sload\n      swap1\n      0x0100\n      exp\n      swap1\n      div\n      0xffffffffffffffffffffffffffffffffffffffff\n      and\n      0xffffffffffffffffffffffffffffffffffffffff\n      and\n      0xffffffffffffffffffffffffffffffffffffffff\n      and\n      dup2\n      mstore\n      0x20\n      add\n      0x02\n      dup3\n      add\n      0x14\n      swap1\n      sload\n      swap1\n      0x0100\n      exp\n      swap1\n      div\n      0xffffffff\n      and\n      0xffffffff\n      and\n      0xffffffff\n      and\n      dup2\n      mstore\n      0x20\n      add\n      0x02\n      dup3\n      add\n      0x18\n      swap1\n      sload\n      swap1\n      0x0100\n      exp\n      swap1\n      div\n      0xffffffff\n      and\n      0xffffffff\n      and\n      0xffffffff\n      and\n      dup2\n      mstore\n      pop\n      pop\n        /* \"contracts/supplierManufacturer.sol\":1770:1781  smIdDetails */\n      dup3\n        /* \"contracts/supplierManufacturer.sol\":1782:1783  i */\n      dup3\n        /* \"contracts/supplierManufacturer.sol\":1770:1784  smIdDetails[i] */\n      dup2\n      mload\n      dup2\n      lt\n      tag_70\n      jumpi\n      tag_71\n      tag_69\n      jump\t// in\n    tag_71:\n    tag_70:\n      0x20\n      mul\n      0x20\n      add\n      add\n        /* \"contracts/supplierManufacturer.sol\":1770:1819  smIdDetails[i] = smidToStructMapping[smIdData[i]] */\n      dup2\n      swap1\n      mstore\n      pop\n        /* \"contracts/supplierManufacturer.sol\":1741:1744  i++ */\n      dup1\n      dup1\n      tag_72\n      swap1\n      tag_53\n      jump\t// in\n    tag_72:\n      swap2\n      pop\n      pop\n        /* \"contracts/supplierManufacturer.sol\":1710:1831  for(uint i=0;i<smIdData.length;i++)... */\n      jump(tag_64)\n    tag_65:\n      pop\n        /* \"contracts/supplierManufacturer.sol\":1848:1859  smIdDetails */\n      dup1\n        /* \"contracts/supplierManufacturer.sol\":1841:1859  return smIdDetails */\n      swap3\n      pop\n      pop\n      pop\n        /* \"contracts/supplierManufacturer.sol\":1393:1867  function getAllSmIdForManufacturer(address _manufacturerAddress) public view returns(supplierManufacturer[] memory){... */\n      swap2\n      swap1\n      pop\n      jump\t// out\n        /* \"contracts/supplierManufacturer.sol\":463:522  mapping(address => uint[]) public manufacturerTosmIDMapping */\n    tag_32:\n      mstore(0x20, 0x03)\n      dup2\n      0x00\n      mstore\n      keccak256(0x00, 0x40)\n      dup2\n      dup2\n      sload\n      dup2\n      lt\n      tag_73\n      jumpi\n      0x00\n      dup1\n      revert\n    tag_73:\n      swap1\n      0x00\n      mstore\n      keccak256(0x00, 0x20)\n      add\n      0x00\n      swap2\n      pop\n      swap2\n      pop\n      pop\n      sload\n      dup2\n      jump\t// out\n        /* \"contracts/supplierManufacturer.sol\":1253:1385  function getProduct(uint _smId) public view returns(supplierManufacturer memory){... */\n    tag_36:\n        /* \"contracts/supplierManufacturer.sol\":1305:1332  supplierManufacturer memory */\n      tag_75\n      tag_63\n      jump\t// in\n    tag_75:\n        /* \"contracts/supplierManufacturer.sol\":1351:1370  smidToStructMapping */\n      0x02\n        /* \"contracts/supplierManufacturer.sol\":1351:1377  smidToStructMapping[_smId] */\n      0x00\n        /* \"contracts/supplierManufacturer.sol\":1371:1376  _smId */\n      dup4\n        /* \"contracts/supplierManufacturer.sol\":1351:1377  smidToStructMapping[_smId] */\n      dup2\n      mstore\n      0x20\n      add\n      swap1\n      dup2\n      mstore\n      0x20\n      add\n      0x00\n      keccak256\n        /* \"contracts/supplierManufacturer.sol\":1344:1377  return smidToStructMapping[_smId] */\n      mload(0x40)\n      dup1\n      0xa0\n      add\n      0x40\n      mstore\n      swap1\n      dup2\n      0x00\n      dup3\n      add\n      sload\n      dup2\n      mstore\n      0x20\n      add\n      0x01\n      dup3\n      add\n      0x00\n      swap1\n      sload\n      swap1\n      0x0100\n      exp\n      swap1\n      div\n      0xffffffffffffffffffffffffffffffffffffffff\n      and\n      0xffffffffffffffffffffffffffffffffffffffff\n      and\n      0xffffffffffffffffffffffffffffffffffffffff\n      and\n      dup2\n      mstore\n      0x20\n      add\n      0x02\n      dup3\n      add\n      0x00\n      swap1\n      sload\n      swap1\n      0x0100\n      exp\n      swap1\n      div\n      0xffffffffffffffffffffffffffffffffffffffff\n      and\n      0xffffffffffffffffffffffffffffffffffffffff\n      and\n      0xffffffffffffffffffffffffffffffffffffffff\n      and\n      dup2\n      mstore\n      0x20\n      add\n      0x02\n      dup3\n      add\n      0x14\n      swap1\n      sload\n      swap1\n      0x0100\n      exp\n      swap1\n      div\n      0xffffffff\n      and\n      0xffffffff\n      and\n      0xffffffff\n      and\n      dup2\n      mstore\n      0x20\n      add\n      0x02\n      dup3\n      add\n      0x18\n      swap1\n      sload\n      swap1\n      0x0100\n      exp\n      swap1\n      div\n      0xffffffff\n      and\n      0xffffffff\n      and\n      0xffffffff\n      and\n      dup2\n      mstore\n      pop\n      pop\n      swap1\n      pop\n        /* \"contracts/supplierManufacturer.sol\":1253:1385  function getProduct(uint _smId) public view returns(supplierManufacturer memory){... */\n      swap2\n      swap1\n      pop\n      jump\t// out\n        /* \"contracts/supplierManufacturer.sol\":392:456  mapping(uint => supplierManufacturer) public smidToStructMapping */\n    tag_41:\n      mstore(0x20, 0x02)\n      dup1\n      0x00\n      mstore\n      keccak256(0x00, 0x40)\n      0x00\n      swap2\n      pop\n      swap1\n      pop\n      dup1\n      0x00\n      add\n      sload\n      swap1\n      dup1\n      0x01\n      add\n      0x00\n      swap1\n      sload\n      swap1\n      0x0100\n      exp\n      swap1\n      div\n      0xffffffffffffffffffffffffffffffffffffffff\n      and\n      swap1\n      dup1\n      0x02\n      add\n      0x00\n      swap1\n      sload\n      swap1\n      0x0100\n      exp\n      swap1\n      div\n      0xffffffffffffffffffffffffffffffffffffffff\n      and\n      swap1\n      dup1\n      0x02\n      add\n      0x14\n      swap1\n      sload\n      swap1\n      0x0100\n      exp\n      swap1\n      div\n      0xffffffff\n      and\n      swap1\n      dup1\n      0x02\n      add\n      0x18\n      swap1\n      sload\n      swap1\n      0x0100\n      exp\n      swap1\n      div\n      0xffffffff\n      and\n      swap1\n      pop\n      dup6\n      jump\t// out\n    tag_63:\n      mload(0x40)\n      dup1\n      0xa0\n      add\n      0x40\n      mstore\n      dup1\n      0x00\n      dup2\n      mstore\n      0x20\n      add\n      and(0xffffffffffffffffffffffffffffffffffffffff, 0x00)\n      dup2\n      mstore\n      0x20\n      add\n      and(0xffffffffffffffffffffffffffffffffffffffff, 0x00)\n      dup2\n      mstore\n      0x20\n      add\n      and(0xffffffff, 0x00)\n      dup2\n      mstore\n      0x20\n      add\n      and(0xffffffff, 0x00)\n      dup2\n      mstore\n      pop\n      swap1\n      jump\t// out\n        /* \"#utility.yul\":7:84   */\n    tag_77:\n        /* \"#utility.yul\":44:51   */\n      0x00\n        /* \"#utility.yul\":73:78   */\n      dup2\n        /* \"#utility.yul\":62:78   */\n      swap1\n      pop\n        /* \"#utility.yul\":7:84   */\n      swap2\n      swap1\n      pop\n      jump\t// out\n        /* \"#utility.yul\":90:208   */\n    tag_78:\n        /* \"#utility.yul\":177:201   */\n      tag_108\n        /* \"#utility.yul\":195:200   */\n      dup2\n        /* \"#utility.yul\":177:201   */\n      tag_77\n      jump\t// in\n    tag_108:\n        /* \"#utility.yul\":172:175   */\n      dup3\n        /* \"#utility.yul\":165:202   */\n      mstore\n        /* \"#utility.yul\":90:208   */\n      pop\n      pop\n      jump\t// out\n        /* \"#utility.yul\":214:436   */\n    tag_14:\n        /* \"#utility.yul\":307:311   */\n      0x00\n        /* \"#utility.yul\":345:347   */\n      0x20\n        /* \"#utility.yul\":334:343   */\n      dup3\n        /* \"#utility.yul\":330:348   */\n      add\n        /* \"#utility.yul\":322:348   */\n      swap1\n      pop\n        /* \"#utility.yul\":358:429   */\n      tag_110\n        /* \"#utility.yul\":426:427   */\n      0x00\n        /* \"#utility.yul\":415:424   */\n      dup4\n        /* \"#utility.yul\":411:428   */\n      add\n        /* \"#utility.yul\":402:408   */\n      dup5\n        /* \"#utility.yul\":358:429   */\n      tag_78\n      jump\t// in\n    tag_110:\n        /* \"#utility.yul\":214:436   */\n      swap3\n      swap2\n      pop\n      pop\n      jump\t// out\n        /* \"#utility.yul\":523:640   */\n    tag_80:\n        /* \"#utility.yul\":632:633   */\n      0x00\n        /* \"#utility.yul\":629:630   */\n      dup1\n        /* \"#utility.yul\":622:634   */\n      revert\n        /* \"#utility.yul\":769:891   */\n    tag_82:\n        /* \"#utility.yul\":842:866   */\n      tag_115\n        /* \"#utility.yul\":860:865   */\n      dup2\n        /* \"#utility.yul\":842:866   */\n      tag_77\n      jump\t// in\n    tag_115:\n        /* \"#utility.yul\":835:840   */\n      dup2\n        /* \"#utility.yul\":832:867   */\n      eq\n        /* \"#utility.yul\":822:885   */\n      tag_116\n      jumpi\n        /* \"#utility.yul\":881:882   */\n      0x00\n        /* \"#utility.yul\":878:879   */\n      dup1\n        /* \"#utility.yul\":871:883   */\n      revert\n        /* \"#utility.yul\":822:885   */\n    tag_116:\n        /* \"#utility.yul\":769:891   */\n      pop\n      jump\t// out\n        /* \"#utility.yul\":897:1036   */\n    tag_83:\n        /* \"#utility.yul\":943:948   */\n      0x00\n        /* \"#utility.yul\":981:987   */\n      dup2\n        /* \"#utility.yul\":968:988   */\n      calldataload\n        /* \"#utility.yul\":959:988   */\n      swap1\n      pop\n        /* \"#utility.yul\":997:1030   */\n      tag_118\n        /* \"#utility.yul\":1024:1029   */\n      dup2\n        /* \"#utility.yul\":997:1030   */\n      tag_82\n      jump\t// in\n    tag_118:\n        /* \"#utility.yul\":897:1036   */\n      swap3\n      swap2\n      pop\n      pop\n      jump\t// out\n        /* \"#utility.yul\":1042:1371   */\n    tag_17:\n        /* \"#utility.yul\":1101:1107   */\n      0x00\n        /* \"#utility.yul\":1150:1152   */\n      0x20\n        /* \"#utility.yul\":1138:1147   */\n      dup3\n        /* \"#utility.yul\":1129:1136   */\n      dup5\n        /* \"#utility.yul\":1125:1148   */\n      sub\n        /* \"#utility.yul\":1121:1153   */\n      slt\n        /* \"#utility.yul\":1118:1237   */\n      iszero\n      tag_120\n      jumpi\n        /* \"#utility.yul\":1156:1235   */\n      tag_121\n      tag_80\n      jump\t// in\n    tag_121:\n        /* \"#utility.yul\":1118:1237   */\n    tag_120:\n        /* \"#utility.yul\":1276:1277   */\n      0x00\n        /* \"#utility.yul\":1301:1354   */\n      tag_122\n        /* \"#utility.yul\":1346:1353   */\n      dup5\n        /* \"#utility.yul\":1337:1343   */\n      dup3\n        /* \"#utility.yul\":1326:1335   */\n      dup6\n        /* \"#utility.yul\":1322:1344   */\n      add\n        /* \"#utility.yul\":1301:1354   */\n      tag_83\n      jump\t// in\n    tag_122:\n        /* \"#utility.yul\":1291:1354   */\n      swap2\n      pop\n        /* \"#utility.yul\":1247:1364   */\n      pop\n        /* \"#utility.yul\":1042:1371   */\n      swap3\n      swap2\n      pop\n      pop\n      jump\t// out\n        /* \"#utility.yul\":1377:1503   */\n    tag_84:\n        /* \"#utility.yul\":1414:1421   */\n      0x00\n        /* \"#utility.yul\":1454:1496   */\n      0xffffffffffffffffffffffffffffffffffffffff\n        /* \"#utility.yul\":1447:1452   */\n      dup3\n        /* \"#utility.yul\":1443:1497   */\n      and\n        /* \"#utility.yul\":1432:1497   */\n      swap1\n      pop\n        /* \"#utility.yul\":1377:1503   */\n      swap2\n      swap1\n      pop\n      jump\t// out\n        /* \"#utility.yul\":1509:1605   */\n    tag_85:\n        /* \"#utility.yul\":1546:1553   */\n      0x00\n        /* \"#utility.yul\":1575:1599   */\n      tag_125\n        /* \"#utility.yul\":1593:1598   */\n      dup3\n        /* \"#utility.yul\":1575:1599   */\n      tag_84\n      jump\t// in\n    tag_125:\n        /* \"#utility.yul\":1564:1599   */\n      swap1\n      pop\n        /* \"#utility.yul\":1509:1605   */\n      swap2\n      swap1\n      pop\n      jump\t// out\n        /* \"#utility.yul\":1611:1733   */\n    tag_86:\n        /* \"#utility.yul\":1684:1708   */\n      tag_127\n        /* \"#utility.yul\":1702:1707   */\n      dup2\n        /* \"#utility.yul\":1684:1708   */\n      tag_85\n      jump\t// in\n    tag_127:\n        /* \"#utility.yul\":1677:1682   */\n      dup2\n        /* \"#utility.yul\":1674:1709   */\n      eq\n        /* \"#utility.yul\":1664:1727   */\n      tag_128\n      jumpi\n        /* \"#utility.yul\":1723:1724   */\n      0x00\n        /* \"#utility.yul\":1720:1721   */\n      dup1\n        /* \"#utility.yul\":1713:1725   */\n      revert\n        /* \"#utility.yul\":1664:1727   */\n    tag_128:\n        /* \"#utility.yul\":1611:1733   */\n      pop\n      jump\t// out\n        /* \"#utility.yul\":1739:1878   */\n    tag_87:\n        /* \"#utility.yul\":1785:1790   */\n      0x00\n        /* \"#utility.yul\":1823:1829   */\n      dup2\n        /* \"#utility.yul\":1810:1830   */\n      calldataload\n        /* \"#utility.yul\":1801:1830   */\n      swap1\n      pop\n        /* \"#utility.yul\":1839:1872   */\n      tag_130\n        /* \"#utility.yul\":1866:1871   */\n      dup2\n        /* \"#utility.yul\":1839:1872   */\n      tag_86\n      jump\t// in\n    tag_130:\n        /* \"#utility.yul\":1739:1878   */\n      swap3\n      swap2\n      pop\n      pop\n      jump\t// out\n        /* \"#utility.yul\":1884:1977   */\n    tag_88:\n        /* \"#utility.yul\":1920:1927   */\n      0x00\n        /* \"#utility.yul\":1960:1970   */\n      0xffffffff\n        /* \"#utility.yul\":1953:1958   */\n      dup3\n        /* \"#utility.yul\":1949:1971   */\n      and\n        /* \"#utility.yul\":1938:1971   */\n      swap1\n      pop\n        /* \"#utility.yul\":1884:1977   */\n      swap2\n      swap1\n      pop\n      jump\t// out\n        /* \"#utility.yul\":1983:2103   */\n    tag_89:\n        /* \"#utility.yul\":2055:2078   */\n      tag_133\n        /* \"#utility.yul\":2072:2077   */\n      dup2\n        /* \"#utility.yul\":2055:2078   */\n      tag_88\n      jump\t// in\n    tag_133:\n        /* \"#utility.yul\":2048:2053   */\n      dup2\n        /* \"#utility.yul\":2045:2079   */\n      eq\n        /* \"#utility.yul\":2035:2097   */\n      tag_134\n      jumpi\n        /* \"#utility.yul\":2093:2094   */\n      0x00\n        /* \"#utility.yul\":2090:2091   */\n      dup1\n        /* \"#utility.yul\":2083:2095   */\n      revert\n        /* \"#utility.yul\":2035:2097   */\n    tag_134:\n        /* \"#utility.yul\":1983:2103   */\n      pop\n      jump\t// out\n        /* \"#utility.yul\":2109:2246   */\n    tag_90:\n        /* \"#utility.yul\":2154:2159   */\n      0x00\n        /* \"#utility.yul\":2192:2198   */\n      dup2\n        /* \"#utility.yul\":2179:2199   */\n      calldataload\n        /* \"#utility.yul\":2170:2199   */\n      swap1\n      pop\n        /* \"#utility.yul\":2208:2240   */\n      tag_136\n        /* \"#utility.yul\":2234:2239   */\n      dup2\n        /* \"#utility.yul\":2208:2240   */\n      tag_89\n      jump\t// in\n    tag_136:\n        /* \"#utility.yul\":2109:2246   */\n      swap3\n      swap2\n      pop\n      pop\n      jump\t// out\n        /* \"#utility.yul\":2252:3159   */\n    tag_21:\n        /* \"#utility.yul\":2345:2351   */\n      0x00\n        /* \"#utility.yul\":2353:2359   */\n      dup1\n        /* \"#utility.yul\":2361:2367   */\n      0x00\n        /* \"#utility.yul\":2369:2375   */\n      dup1\n        /* \"#utility.yul\":2377:2383   */\n      0x00\n        /* \"#utility.yul\":2426:2429   */\n      0xa0\n        /* \"#utility.yul\":2414:2423   */\n      dup7\n        /* \"#utility.yul\":2405:2412   */\n      dup9\n        /* \"#utility.yul\":2401:2424   */\n      sub\n        /* \"#utility.yul\":2397:2430   */\n      slt\n        /* \"#utility.yul\":2394:2514   */\n      iszero\n      tag_138\n      jumpi\n        /* \"#utility.yul\":2433:2512   */\n      tag_139\n      tag_80\n      jump\t// in\n    tag_139:\n        /* \"#utility.yul\":2394:2514   */\n    tag_138:\n        /* \"#utility.yul\":2553:2554   */\n      0x00\n        /* \"#utility.yul\":2578:2631   */\n      tag_140\n        /* \"#utility.yul\":2623:2630   */\n      dup9\n        /* \"#utility.yul\":2614:2620   */\n      dup3\n        /* \"#utility.yul\":2603:2612   */\n      dup10\n        /* \"#utility.yul\":2599:2621   */\n      add\n        /* \"#utility.yul\":2578:2631   */\n      tag_83\n      jump\t// in\n    tag_140:\n        /* \"#utility.yul\":2568:2631   */\n      swap6\n      pop\n        /* \"#utility.yul\":2524:2641   */\n      pop\n        /* \"#utility.yul\":2680:2682   */\n      0x20\n        /* \"#utility.yul\":2706:2759   */\n      tag_141\n        /* \"#utility.yul\":2751:2758   */\n      dup9\n        /* \"#utility.yul\":2742:2748   */\n      dup3\n        /* \"#utility.yul\":2731:2740   */\n      dup10\n        /* \"#utility.yul\":2727:2749   */\n      add\n        /* \"#utility.yul\":2706:2759   */\n      tag_87\n      jump\t// in\n    tag_141:\n        /* \"#utility.yul\":2696:2759   */\n      swap5\n      pop\n        /* \"#utility.yul\":2651:2769   */\n      pop\n        /* \"#utility.yul\":2808:2810   */\n      0x40\n        /* \"#utility.yul\":2834:2887   */\n      tag_142\n        /* \"#utility.yul\":2879:2886   */\n      dup9\n        /* \"#utility.yul\":2870:2876   */\n      dup3\n        /* \"#utility.yul\":2859:2868   */\n      dup10\n        /* \"#utility.yul\":2855:2877   */\n      add\n        /* \"#utility.yul\":2834:2887   */\n      tag_87\n      jump\t// in\n    tag_142:\n        /* \"#utility.yul\":2824:2887   */\n      swap4\n      pop\n        /* \"#utility.yul\":2779:2897   */\n      pop\n        /* \"#utility.yul\":2936:2938   */\n      0x60\n        /* \"#utility.yul\":2962:3014   */\n      tag_143\n        /* \"#utility.yul\":3006:3013   */\n      dup9\n        /* \"#utility.yul\":2997:3003   */\n      dup3\n        /* \"#utility.yul\":2986:2995   */\n      dup10\n        /* \"#utility.yul\":2982:3004   */\n      add\n        /* \"#utility.yul\":2962:3014   */\n      tag_90\n      jump\t// in\n    tag_143:\n        /* \"#utility.yul\":2952:3014   */\n      swap3\n      pop\n        /* \"#utility.yul\":2907:3024   */\n      pop\n        /* \"#utility.yul\":3063:3066   */\n      0x80\n        /* \"#utility.yul\":3090:3142   */\n      tag_144\n        /* \"#utility.yul\":3134:3141   */\n      dup9\n        /* \"#utility.yul\":3125:3131   */\n      dup3\n        /* \"#utility.yul\":3114:3123   */\n      dup10\n        /* \"#utility.yul\":3110:3132   */\n      add\n        /* \"#utility.yul\":3090:3142   */\n      tag_90\n      jump\t// in\n    tag_144:\n        /* \"#utility.yul\":3080:3142   */\n      swap2\n      pop\n        /* \"#utility.yul\":3034:3152   */\n      pop\n        /* \"#utility.yul\":2252:3159   */\n      swap3\n      swap6\n      pop\n      swap3\n      swap6\n      swap1\n      swap4\n      pop\n      jump\t// out\n        /* \"#utility.yul\":3165:3494   */\n    tag_25:\n        /* \"#utility.yul\":3224:3230   */\n      0x00\n        /* \"#utility.yul\":3273:3275   */\n      0x20\n        /* \"#utility.yul\":3261:3270   */\n      dup3\n        /* \"#utility.yul\":3252:3259   */\n      dup5\n        /* \"#utility.yul\":3248:3271   */\n      sub\n        /* \"#utility.yul\":3244:3276   */\n      slt\n        /* \"#utility.yul\":3241:3360   */\n      iszero\n      tag_146\n      jumpi\n        /* \"#utility.yul\":3279:3358   */\n      tag_147\n      tag_80\n      jump\t// in\n    tag_147:\n        /* \"#utility.yul\":3241:3360   */\n    tag_146:\n        /* \"#utility.yul\":3399:3400   */\n      0x00\n        /* \"#utility.yul\":3424:3477   */\n      tag_148\n        /* \"#utility.yul\":3469:3476   */\n      dup5\n        /* \"#utility.yul\":3460:3466   */\n      dup3\n        /* \"#utility.yul\":3449:3458   */\n      dup6\n        /* \"#utility.yul\":3445:3467   */\n      add\n        /* \"#utility.yul\":3424:3477   */\n      tag_87\n      jump\t// in\n    tag_148:\n        /* \"#utility.yul\":3414:3477   */\n      swap2\n      pop\n        /* \"#utility.yul\":3370:3487   */\n      pop\n        /* \"#utility.yul\":3165:3494   */\n      swap3\n      swap2\n      pop\n      pop\n      jump\t// out\n        /* \"#utility.yul\":3500:3650   */\n    tag_91:\n        /* \"#utility.yul\":3603:3609   */\n      0x00\n        /* \"#utility.yul\":3637:3642   */\n      dup2\n        /* \"#utility.yul\":3631:3643   */\n      mload\n        /* \"#utility.yul\":3621:3643   */\n      swap1\n      pop\n        /* \"#utility.yul\":3500:3650   */\n      swap2\n      swap1\n      pop\n      jump\t// out\n        /* \"#utility.yul\":3656:3876   */\n    tag_92:\n        /* \"#utility.yul\":3791:3802   */\n      0x00\n        /* \"#utility.yul\":3825:3831   */\n      dup3\n        /* \"#utility.yul\":3820:3823   */\n      dup3\n        /* \"#utility.yul\":3813:3832   */\n      mstore\n        /* \"#utility.yul\":3865:3869   */\n      0x20\n        /* \"#utility.yul\":3860:3863   */\n      dup3\n        /* \"#utility.yul\":3856:3870   */\n      add\n        /* \"#utility.yul\":3841:3870   */\n      swap1\n      pop\n        /* \"#utility.yul\":3656:3876   */\n      swap3\n      swap2\n      pop\n      pop\n      jump\t// out\n        /* \"#utility.yul\":3882:4050   */\n    tag_93:\n        /* \"#utility.yul\":3985:3989   */\n      0x00\n        /* \"#utility.yul\":4008:4011   */\n      dup2\n        /* \"#utility.yul\":4000:4011   */\n      swap1\n      pop\n        /* \"#utility.yul\":4038:4042   */\n      0x20\n        /* \"#utility.yul\":4033:4036   */\n      dup3\n        /* \"#utility.yul\":4029:4043   */\n      add\n        /* \"#utility.yul\":4021:4043   */\n      swap1\n      pop\n        /* \"#utility.yul\":3882:4050   */\n      swap2\n      swap1\n      pop\n      jump\t// out\n        /* \"#utility.yul\":4056:4164   */\n    tag_94:\n        /* \"#utility.yul\":4133:4157   */\n      tag_153\n        /* \"#utility.yul\":4151:4156   */\n      dup2\n        /* \"#utility.yul\":4133:4157   */\n      tag_77\n      jump\t// in\n    tag_153:\n        /* \"#utility.yul\":4128:4131   */\n      dup3\n        /* \"#utility.yul\":4121:4158   */\n      mstore\n        /* \"#utility.yul\":4056:4164   */\n      pop\n      pop\n      jump\t// out\n        /* \"#utility.yul\":4170:4278   */\n    tag_95:\n        /* \"#utility.yul\":4247:4271   */\n      tag_155\n        /* \"#utility.yul\":4265:4270   */\n      dup2\n        /* \"#utility.yul\":4247:4271   */\n      tag_85\n      jump\t// in\n    tag_155:\n        /* \"#utility.yul\":4242:4245   */\n      dup3\n        /* \"#utility.yul\":4235:4272   */\n      mstore\n        /* \"#utility.yul\":4170:4278   */\n      pop\n      pop\n      jump\t// out\n        /* \"#utility.yul\":4284:4389   */\n    tag_96:\n        /* \"#utility.yul\":4359:4382   */\n      tag_157\n        /* \"#utility.yul\":4376:4381   */\n      dup2\n        /* \"#utility.yul\":4359:4382   */\n      tag_88\n      jump\t// in\n    tag_157:\n        /* \"#utility.yul\":4354:4357   */\n      dup3\n        /* \"#utility.yul\":4347:4383   */\n      mstore\n        /* \"#utility.yul\":4284:4389   */\n      pop\n      pop\n      jump\t// out\n        /* \"#utility.yul\":4505:5583   */\n    tag_97:\n        /* \"#utility.yul\":4664:4668   */\n      0xa0\n        /* \"#utility.yul\":4659:4662   */\n      dup3\n        /* \"#utility.yul\":4655:4669   */\n      add\n        /* \"#utility.yul\":4751:4755   */\n      0x00\n        /* \"#utility.yul\":4744:4749   */\n      dup3\n        /* \"#utility.yul\":4740:4756   */\n      add\n        /* \"#utility.yul\":4734:4757   */\n      mload\n        /* \"#utility.yul\":4770:4833   */\n      tag_159\n        /* \"#utility.yul\":4827:4831   */\n      0x00\n        /* \"#utility.yul\":4822:4825   */\n      dup6\n        /* \"#utility.yul\":4818:4832   */\n      add\n        /* \"#utility.yul\":4804:4816   */\n      dup3\n        /* \"#utility.yul\":4770:4833   */\n      tag_94\n      jump\t// in\n    tag_159:\n        /* \"#utility.yul\":4679:4843   */\n      pop\n        /* \"#utility.yul\":4936:4940   */\n      0x20\n        /* \"#utility.yul\":4929:4934   */\n      dup3\n        /* \"#utility.yul\":4925:4941   */\n      add\n        /* \"#utility.yul\":4919:4942   */\n      mload\n        /* \"#utility.yul\":4955:5018   */\n      tag_160\n        /* \"#utility.yul\":5012:5016   */\n      0x20\n        /* \"#utility.yul\":5007:5010   */\n      dup6\n        /* \"#utility.yul\":5003:5017   */\n      add\n        /* \"#utility.yul\":4989:5001   */\n      dup3\n        /* \"#utility.yul\":4955:5018   */\n      tag_95\n      jump\t// in\n    tag_160:\n        /* \"#utility.yul\":4853:5028   */\n      pop\n        /* \"#utility.yul\":5125:5129   */\n      0x40\n        /* \"#utility.yul\":5118:5123   */\n      dup3\n        /* \"#utility.yul\":5114:5130   */\n      add\n        /* \"#utility.yul\":5108:5131   */\n      mload\n        /* \"#utility.yul\":5144:5207   */\n      tag_161\n        /* \"#utility.yul\":5201:5205   */\n      0x40\n        /* \"#utility.yul\":5196:5199   */\n      dup6\n        /* \"#utility.yul\":5192:5206   */\n      add\n        /* \"#utility.yul\":5178:5190   */\n      dup3\n        /* \"#utility.yul\":5144:5207   */\n      tag_95\n      jump\t// in\n    tag_161:\n        /* \"#utility.yul\":5038:5217   */\n      pop\n        /* \"#utility.yul\":5307:5311   */\n      0x60\n        /* \"#utility.yul\":5300:5305   */\n      dup3\n        /* \"#utility.yul\":5296:5312   */\n      add\n        /* \"#utility.yul\":5290:5313   */\n      mload\n        /* \"#utility.yul\":5326:5387   */\n      tag_162\n        /* \"#utility.yul\":5381:5385   */\n      0x60\n        /* \"#utility.yul\":5376:5379   */\n      dup6\n        /* \"#utility.yul\":5372:5386   */\n      add\n        /* \"#utility.yul\":5358:5370   */\n      dup3\n        /* \"#utility.yul\":5326:5387   */\n      tag_96\n      jump\t// in\n    tag_162:\n        /* \"#utility.yul\":5227:5397   */\n      pop\n        /* \"#utility.yul\":5486:5490   */\n      0x80\n        /* \"#utility.yul\":5479:5484   */\n      dup3\n        /* \"#utility.yul\":5475:5491   */\n      add\n        /* \"#utility.yul\":5469:5492   */\n      mload\n        /* \"#utility.yul\":5505:5566   */\n      tag_163\n        /* \"#utility.yul\":5560:5564   */\n      0x80\n        /* \"#utility.yul\":5555:5558   */\n      dup6\n        /* \"#utility.yul\":5551:5565   */\n      add\n        /* \"#utility.yul\":5537:5549   */\n      dup3\n        /* \"#utility.yul\":5505:5566   */\n      tag_96\n      jump\t// in\n    tag_163:\n        /* \"#utility.yul\":5407:5576   */\n      pop\n        /* \"#utility.yul\":4633:5583   */\n      pop\n        /* \"#utility.yul\":4505:5583   */\n      pop\n      pop\n      jump\t// out\n        /* \"#utility.yul\":5589:5912   */\n    tag_98:\n        /* \"#utility.yul\":5730:5740   */\n      0x00\n        /* \"#utility.yul\":5751:5869   */\n      tag_165\n        /* \"#utility.yul\":5865:5868   */\n      dup4\n        /* \"#utility.yul\":5857:5863   */\n      dup4\n        /* \"#utility.yul\":5751:5869   */\n      tag_97\n      jump\t// in\n    tag_165:\n        /* \"#utility.yul\":5901:5905   */\n      0xa0\n        /* \"#utility.yul\":5896:5899   */\n      dup4\n        /* \"#utility.yul\":5892:5906   */\n      add\n        /* \"#utility.yul\":5878:5906   */\n      swap1\n      pop\n        /* \"#utility.yul\":5589:5912   */\n      swap3\n      swap2\n      pop\n      pop\n      jump\t// out\n        /* \"#utility.yul\":5918:6067   */\n    tag_99:\n        /* \"#utility.yul\":6024:6028   */\n      0x00\n        /* \"#utility.yul\":6056:6060   */\n      0x20\n        /* \"#utility.yul\":6051:6054   */\n      dup3\n        /* \"#utility.yul\":6047:6061   */\n      add\n        /* \"#utility.yul\":6039:6061   */\n      swap1\n      pop\n        /* \"#utility.yul\":5918:6067   */\n      swap2\n      swap1\n      pop\n      jump\t// out\n        /* \"#utility.yul\":6187:7207   */\n    tag_100:\n        /* \"#utility.yul\":6378:6381   */\n      0x00\n        /* \"#utility.yul\":6407:6497   */\n      tag_168\n        /* \"#utility.yul\":6491:6496   */\n      dup3\n        /* \"#utility.yul\":6407:6497   */\n      tag_91\n      jump\t// in\n    tag_168:\n        /* \"#utility.yul\":6513:6635   */\n      tag_169\n        /* \"#utility.yul\":6628:6634   */\n      dup2\n        /* \"#utility.yul\":6623:6626   */\n      dup6\n        /* \"#utility.yul\":6513:6635   */\n      tag_92\n      jump\t// in\n    tag_169:\n        /* \"#utility.yul\":6506:6635   */\n      swap4\n      pop\n        /* \"#utility.yul\":6659:6751   */\n      tag_170\n        /* \"#utility.yul\":6745:6750   */\n      dup4\n        /* \"#utility.yul\":6659:6751   */\n      tag_93\n      jump\t// in\n    tag_170:\n        /* \"#utility.yul\":6774:6781   */\n      dup1\n        /* \"#utility.yul\":6805:6806   */\n      0x00\n        /* \"#utility.yul\":6790:7182   */\n    tag_171:\n        /* \"#utility.yul\":6815:6821   */\n      dup4\n        /* \"#utility.yul\":6812:6813   */\n      dup2\n        /* \"#utility.yul\":6809:6822   */\n      lt\n        /* \"#utility.yul\":6790:7182   */\n      iszero\n      tag_173\n      jumpi\n        /* \"#utility.yul\":6891:6897   */\n      dup2\n        /* \"#utility.yul\":6885:6898   */\n      mload\n        /* \"#utility.yul\":6918:7053   */\n      tag_174\n        /* \"#utility.yul\":7049:7052   */\n      dup9\n        /* \"#utility.yul\":7034:7047   */\n      dup3\n        /* \"#utility.yul\":6918:7053   */\n      tag_98\n      jump\t// in\n    tag_174:\n        /* \"#utility.yul\":6911:7053   */\n      swap8\n      pop\n        /* \"#utility.yul\":7076:7172   */\n      tag_175\n        /* \"#utility.yul\":7165:7171   */\n      dup4\n        /* \"#utility.yul\":7076:7172   */\n      tag_99\n      jump\t// in\n    tag_175:\n        /* \"#utility.yul\":7066:7172   */\n      swap3\n      pop\n        /* \"#utility.yul\":6850:7182   */\n      pop\n        /* \"#utility.yul\":6837:6838   */\n      0x01\n        /* \"#utility.yul\":6834:6835   */\n      dup2\n        /* \"#utility.yul\":6830:6839   */\n      add\n        /* \"#utility.yul\":6825:6839   */\n      swap1\n      pop\n        /* \"#utility.yul\":6790:7182   */\n      jump(tag_171)\n    tag_173:\n        /* \"#utility.yul\":6794:6808   */\n      pop\n        /* \"#utility.yul\":7198:7201   */\n      dup6\n        /* \"#utility.yul\":7191:7201   */\n      swap4\n      pop\n        /* \"#utility.yul\":6383:7207   */\n      pop\n      pop\n      pop\n        /* \"#utility.yul\":6187:7207   */\n      swap3\n      swap2\n      pop\n      pop\n      jump\t// out\n        /* \"#utility.yul\":7213:7730   */\n    tag_28:\n        /* \"#utility.yul\":7428:7432   */\n      0x00\n        /* \"#utility.yul\":7466:7468   */\n      0x20\n        /* \"#utility.yul\":7455:7464   */\n      dup3\n        /* \"#utility.yul\":7451:7469   */\n      add\n        /* \"#utility.yul\":7443:7469   */\n      swap1\n      pop\n        /* \"#utility.yul\":7515:7524   */\n      dup2\n        /* \"#utility.yul\":7509:7513   */\n      dup2\n        /* \"#utility.yul\":7505:7525   */\n      sub\n        /* \"#utility.yul\":7501:7502   */\n      0x00\n        /* \"#utility.yul\":7490:7499   */\n      dup4\n        /* \"#utility.yul\":7486:7503   */\n      add\n        /* \"#utility.yul\":7479:7526   */\n      mstore\n        /* \"#utility.yul\":7543:7723   */\n      tag_177\n        /* \"#utility.yul\":7718:7722   */\n      dup2\n        /* \"#utility.yul\":7709:7715   */\n      dup5\n        /* \"#utility.yul\":7543:7723   */\n      tag_100\n      jump\t// in\n    tag_177:\n        /* \"#utility.yul\":7535:7723   */\n      swap1\n      pop\n        /* \"#utility.yul\":7213:7730   */\n      swap3\n      swap2\n      pop\n      pop\n      jump\t// out\n        /* \"#utility.yul\":7736:8210   */\n    tag_31:\n        /* \"#utility.yul\":7804:7810   */\n      0x00\n        /* \"#utility.yul\":7812:7818   */\n      dup1\n        /* \"#utility.yul\":7861:7863   */\n      0x40\n        /* \"#utility.yul\":7849:7858   */\n      dup4\n        /* \"#utility.yul\":7840:7847   */\n      dup6\n        /* \"#utility.yul\":7836:7859   */\n      sub\n        /* \"#utility.yul\":7832:7864   */\n      slt\n        /* \"#utility.yul\":7829:7948   */\n      iszero\n      tag_179\n      jumpi\n        /* \"#utility.yul\":7867:7946   */\n      tag_180\n      tag_80\n      jump\t// in\n    tag_180:\n        /* \"#utility.yul\":7829:7948   */\n    tag_179:\n        /* \"#utility.yul\":7987:7988   */\n      0x00\n        /* \"#utility.yul\":8012:8065   */\n      tag_181\n        /* \"#utility.yul\":8057:8064   */\n      dup6\n        /* \"#utility.yul\":8048:8054   */\n      dup3\n        /* \"#utility.yul\":8037:8046   */\n      dup7\n        /* \"#utility.yul\":8033:8055   */\n      add\n        /* \"#utility.yul\":8012:8065   */\n      tag_87\n      jump\t// in\n    tag_181:\n        /* \"#utility.yul\":8002:8065   */\n      swap3\n      pop\n        /* \"#utility.yul\":7958:8075   */\n      pop\n        /* \"#utility.yul\":8114:8116   */\n      0x20\n        /* \"#utility.yul\":8140:8193   */\n      tag_182\n        /* \"#utility.yul\":8185:8192   */\n      dup6\n        /* \"#utility.yul\":8176:8182   */\n      dup3\n        /* \"#utility.yul\":8165:8174   */\n      dup7\n        /* \"#utility.yul\":8161:8183   */\n      add\n        /* \"#utility.yul\":8140:8193   */\n      tag_83\n      jump\t// in\n    tag_182:\n        /* \"#utility.yul\":8130:8193   */\n      swap2\n      pop\n        /* \"#utility.yul\":8085:8203   */\n      pop\n        /* \"#utility.yul\":7736:8210   */\n      swap3\n      pop\n      swap3\n      swap1\n      pop\n      jump\t// out\n        /* \"#utility.yul\":8326:9414   */\n    tag_101:\n        /* \"#utility.yul\":8495:8499   */\n      0xa0\n        /* \"#utility.yul\":8490:8493   */\n      dup3\n        /* \"#utility.yul\":8486:8500   */\n      add\n        /* \"#utility.yul\":8582:8586   */\n      0x00\n        /* \"#utility.yul\":8575:8580   */\n      dup3\n        /* \"#utility.yul\":8571:8587   */\n      add\n        /* \"#utility.yul\":8565:8588   */\n      mload\n        /* \"#utility.yul\":8601:8664   */\n      tag_184\n        /* \"#utility.yul\":8658:8662   */\n      0x00\n        /* \"#utility.yul\":8653:8656   */\n      dup6\n        /* \"#utility.yul\":8649:8663   */\n      add\n        /* \"#utility.yul\":8635:8647   */\n      dup3\n        /* \"#utility.yul\":8601:8664   */\n      tag_94\n      jump\t// in\n    tag_184:\n        /* \"#utility.yul\":8510:8674   */\n      pop\n        /* \"#utility.yul\":8767:8771   */\n      0x20\n        /* \"#utility.yul\":8760:8765   */\n      dup3\n        /* \"#utility.yul\":8756:8772   */\n      add\n        /* \"#utility.yul\":8750:8773   */\n      mload\n        /* \"#utility.yul\":8786:8849   */\n      tag_185\n        /* \"#utility.yul\":8843:8847   */\n      0x20\n        /* \"#utility.yul\":8838:8841   */\n      dup6\n        /* \"#utility.yul\":8834:8848   */\n      add\n        /* \"#utility.yul\":8820:8832   */\n      dup3\n        /* \"#utility.yul\":8786:8849   */\n      tag_95\n      jump\t// in\n    tag_185:\n        /* \"#utility.yul\":8684:8859   */\n      pop\n        /* \"#utility.yul\":8956:8960   */\n      0x40\n        /* \"#utility.yul\":8949:8954   */\n      dup3\n        /* \"#utility.yul\":8945:8961   */\n      add\n        /* \"#utility.yul\":8939:8962   */\n      mload\n        /* \"#utility.yul\":8975:9038   */\n      tag_186\n        /* \"#utility.yul\":9032:9036   */\n      0x40\n        /* \"#utility.yul\":9027:9030   */\n      dup6\n        /* \"#utility.yul\":9023:9037   */\n      add\n        /* \"#utility.yul\":9009:9021   */\n      dup3\n        /* \"#utility.yul\":8975:9038   */\n      tag_95\n      jump\t// in\n    tag_186:\n        /* \"#utility.yul\":8869:9048   */\n      pop\n        /* \"#utility.yul\":9138:9142   */\n      0x60\n        /* \"#utility.yul\":9131:9136   */\n      dup3\n        /* \"#utility.yul\":9127:9143   */\n      add\n        /* \"#utility.yul\":9121:9144   */\n      mload\n        /* \"#utility.yul\":9157:9218   */\n      tag_187\n        /* \"#utility.yul\":9212:9216   */\n      0x60\n        /* \"#utility.yul\":9207:9210   */\n      dup6\n        /* \"#utility.yul\":9203:9217   */\n      add\n        /* \"#utility.yul\":9189:9201   */\n      dup3\n        /* \"#utility.yul\":9157:9218   */\n      tag_96\n      jump\t// in\n    tag_187:\n        /* \"#utility.yul\":9058:9228   */\n      pop\n        /* \"#utility.yul\":9317:9321   */\n      0x80\n        /* \"#utility.yul\":9310:9315   */\n      dup3\n        /* \"#utility.yul\":9306:9322   */\n      add\n        /* \"#utility.yul\":9300:9323   */\n      mload\n        /* \"#utility.yul\":9336:9397   */\n      tag_188\n        /* \"#utility.yul\":9391:9395   */\n      0x80\n        /* \"#utility.yul\":9386:9389   */\n      dup6\n        /* \"#utility.yul\":9382:9396   */\n      add\n        /* \"#utility.yul\":9368:9380   */\n      dup3\n        /* \"#utility.yul\":9336:9397   */\n      tag_96\n      jump\t// in\n    tag_188:\n        /* \"#utility.yul\":9238:9407   */\n      pop\n        /* \"#utility.yul\":8464:9414   */\n      pop\n        /* \"#utility.yul\":8326:9414   */\n      pop\n      pop\n      jump\t// out\n        /* \"#utility.yul\":9420:9787   */\n    tag_38:\n        /* \"#utility.yul\":9585:9589   */\n      0x00\n        /* \"#utility.yul\":9623:9626   */\n      0xa0\n        /* \"#utility.yul\":9612:9621   */\n      dup3\n        /* \"#utility.yul\":9608:9627   */\n      add\n        /* \"#utility.yul\":9600:9627   */\n      swap1\n      pop\n        /* \"#utility.yul\":9637:9780   */\n      tag_190\n        /* \"#utility.yul\":9777:9778   */\n      0x00\n        /* \"#utility.yul\":9766:9775   */\n      dup4\n        /* \"#utility.yul\":9762:9779   */\n      add\n        /* \"#utility.yul\":9753:9759   */\n      dup5\n        /* \"#utility.yul\":9637:9780   */\n      tag_101\n      jump\t// in\n    tag_190:\n        /* \"#utility.yul\":9420:9787   */\n      swap3\n      swap2\n      pop\n      pop\n      jump\t// out\n        /* \"#utility.yul\":9793:9911   */\n    tag_102:\n        /* \"#utility.yul\":9880:9904   */\n      tag_192\n        /* \"#utility.yul\":9898:9903   */\n      dup2\n        /* \"#utility.yul\":9880:9904   */\n      tag_85\n      jump\t// in\n    tag_192:\n        /* \"#utility.yul\":9875:9878   */\n      dup3\n        /* \"#utility.yul\":9868:9905   */\n      mstore\n        /* \"#utility.yul\":9793:9911   */\n      pop\n      pop\n      jump\t// out\n        /* \"#utility.yul\":9917:10032   */\n    tag_103:\n        /* \"#utility.yul\":10002:10025   */\n      tag_194\n        /* \"#utility.yul\":10019:10024   */\n      dup2\n        /* \"#utility.yul\":10002:10025   */\n      tag_88\n      jump\t// in\n    tag_194:\n        /* \"#utility.yul\":9997:10000   */\n      dup3\n        /* \"#utility.yul\":9990:10026   */\n      mstore\n        /* \"#utility.yul\":9917:10032   */\n      pop\n      pop\n      jump\t// out\n        /* \"#utility.yul\":10038:10694   */\n    tag_43:\n        /* \"#utility.yul\":10239:10243   */\n      0x00\n        /* \"#utility.yul\":10277:10280   */\n      0xa0\n        /* \"#utility.yul\":10266:10275   */\n      dup3\n        /* \"#utility.yul\":10262:10281   */\n      add\n        /* \"#utility.yul\":10254:10281   */\n      swap1\n      pop\n        /* \"#utility.yul\":10291:10362   */\n      tag_196\n        /* \"#utility.yul\":10359:10360   */\n      0x00\n        /* \"#utility.yul\":10348:10357   */\n      dup4\n        /* \"#utility.yul\":10344:10361   */\n      add\n        /* \"#utility.yul\":10335:10341   */\n      dup9\n        /* \"#utility.yul\":10291:10362   */\n      tag_78\n      jump\t// in\n    tag_196:\n        /* \"#utility.yul\":10372:10444   */\n      tag_197\n        /* \"#utility.yul\":10440:10442   */\n      0x20\n        /* \"#utility.yul\":10429:10438   */\n      dup4\n        /* \"#utility.yul\":10425:10443   */\n      add\n        /* \"#utility.yul\":10416:10422   */\n      dup8\n        /* \"#utility.yul\":10372:10444   */\n      tag_102\n      jump\t// in\n    tag_197:\n        /* \"#utility.yul\":10454:10526   */\n      tag_198\n        /* \"#utility.yul\":10522:10524   */\n      0x40\n        /* \"#utility.yul\":10511:10520   */\n      dup4\n        /* \"#utility.yul\":10507:10525   */\n      add\n        /* \"#utility.yul\":10498:10504   */\n      dup7\n        /* \"#utility.yul\":10454:10526   */\n      tag_102\n      jump\t// in\n    tag_198:\n        /* \"#utility.yul\":10536:10606   */\n      tag_199\n        /* \"#utility.yul\":10602:10604   */\n      0x60\n        /* \"#utility.yul\":10591:10600   */\n      dup4\n        /* \"#utility.yul\":10587:10605   */\n      add\n        /* \"#utility.yul\":10578:10584   */\n      dup6\n        /* \"#utility.yul\":10536:10606   */\n      tag_103\n      jump\t// in\n    tag_199:\n        /* \"#utility.yul\":10616:10687   */\n      tag_200\n        /* \"#utility.yul\":10682:10685   */\n      0x80\n        /* \"#utility.yul\":10671:10680   */\n      dup4\n        /* \"#utility.yul\":10667:10686   */\n      add\n        /* \"#utility.yul\":10658:10664   */\n      dup5\n        /* \"#utility.yul\":10616:10687   */\n      tag_103\n      jump\t// in\n    tag_200:\n        /* \"#utility.yul\":10038:10694   */\n      swap7\n      swap6\n      pop\n      pop\n      pop\n      pop\n      pop\n      pop\n      jump\t// out\n        /* \"#utility.yul\":10700:10918   */\n    tag_46:\n        /* \"#utility.yul\":10791:10795   */\n      0x00\n        /* \"#utility.yul\":10829:10831   */\n      0x20\n        /* \"#utility.yul\":10818:10827   */\n      dup3\n        /* \"#utility.yul\":10814:10832   */\n      add\n        /* \"#utility.yul\":10806:10832   */\n      swap1\n      pop\n        /* \"#utility.yul\":10842:10911   */\n      tag_202\n        /* \"#utility.yul\":10908:10909   */\n      0x00\n        /* \"#utility.yul\":10897:10906   */\n      dup4\n        /* \"#utility.yul\":10893:10910   */\n      add\n        /* \"#utility.yul\":10884:10890   */\n      dup5\n        /* \"#utility.yul\":10842:10911   */\n      tag_103\n      jump\t// in\n    tag_202:\n        /* \"#utility.yul\":10700:10918   */\n      swap3\n      swap2\n      pop\n      pop\n      jump\t// out\n        /* \"#utility.yul\":10924:11362   */\n    tag_51:\n        /* \"#utility.yul\":11071:11075   */\n      0x00\n        /* \"#utility.yul\":11109:11111   */\n      0x60\n        /* \"#utility.yul\":11098:11107   */\n      dup3\n        /* \"#utility.yul\":11094:11112   */\n      add\n        /* \"#utility.yul\":11086:11112   */\n      swap1\n      pop\n        /* \"#utility.yul\":11122:11193   */\n      tag_204\n        /* \"#utility.yul\":11190:11191   */\n      0x00\n        /* \"#utility.yul\":11179:11188   */\n      dup4\n        /* \"#utility.yul\":11175:11192   */\n      add\n        /* \"#utility.yul\":11166:11172   */\n      dup7\n        /* \"#utility.yul\":11122:11193   */\n      tag_102\n      jump\t// in\n    tag_204:\n        /* \"#utility.yul\":11203:11275   */\n      tag_205\n        /* \"#utility.yul\":11271:11273   */\n      0x20\n        /* \"#utility.yul\":11260:11269   */\n      dup4\n        /* \"#utility.yul\":11256:11274   */\n      add\n        /* \"#utility.yul\":11247:11253   */\n      dup6\n        /* \"#utility.yul\":11203:11275   */\n      tag_102\n      jump\t// in\n    tag_205:\n        /* \"#utility.yul\":11285:11355   */\n      tag_206\n        /* \"#utility.yul\":11351:11353   */\n      0x40\n        /* \"#utility.yul\":11340:11349   */\n      dup4\n        /* \"#utility.yul\":11336:11354   */\n      add\n        /* \"#utility.yul\":11327:11333   */\n      dup5\n        /* \"#utility.yul\":11285:11355   */\n      tag_103\n      jump\t// in\n    tag_206:\n        /* \"#utility.yul\":10924:11362   */\n      swap5\n      swap4\n      pop\n      pop\n      pop\n      pop\n      jump\t// out\n        /* \"#utility.yul\":11368:11548   */\n    tag_104:\n        /* \"#utility.yul\":11416:11493   */\n      0x4e487b7100000000000000000000000000000000000000000000000000000000\n        /* \"#utility.yul\":11413:11414   */\n      0x00\n        /* \"#utility.yul\":11406:11494   */\n      mstore\n        /* \"#utility.yul\":11513:11517   */\n      0x11\n        /* \"#utility.yul\":11510:11511   */\n      0x04\n        /* \"#utility.yul\":11503:11518   */\n      mstore\n        /* \"#utility.yul\":11537:11541   */\n      0x24\n        /* \"#utility.yul\":11534:11535   */\n      0x00\n        /* \"#utility.yul\":11527:11542   */\n      revert\n        /* \"#utility.yul\":11554:11787   */\n    tag_53:\n        /* \"#utility.yul\":11593:11596   */\n      0x00\n        /* \"#utility.yul\":11616:11640   */\n      tag_209\n        /* \"#utility.yul\":11634:11639   */\n      dup3\n        /* \"#utility.yul\":11616:11640   */\n      tag_77\n      jump\t// in\n    tag_209:\n        /* \"#utility.yul\":11607:11640   */\n      swap2\n      pop\n        /* \"#utility.yul\":11662:11728   */\n      0xffffffffffffffffffffffffffffffffffffffffffffffffffffffffffffffff\n        /* \"#utility.yul\":11655:11660   */\n      dup3\n        /* \"#utility.yul\":11652:11729   */\n      sub\n        /* \"#utility.yul\":11649:11752   */\n      tag_210\n      jumpi\n        /* \"#utility.yul\":11732:11750   */\n      tag_211\n      tag_104\n      jump\t// in\n    tag_211:\n        /* \"#utility.yul\":11649:11752   */\n    tag_210:\n        /* \"#utility.yul\":11779:11780   */\n      0x01\n        /* \"#utility.yul\":11772:11777   */\n      dup3\n        /* \"#utility.yul\":11768:11781   */\n      add\n        /* \"#utility.yul\":11761:11781   */\n      swap1\n      pop\n        /* \"#utility.yul\":11554:11787   */\n      swap2\n      swap1\n      pop\n      jump\t// out\n        /* \"#utility.yul\":11793:11973   */\n    tag_59:\n        /* \"#utility.yul\":11841:11918   */\n      0x4e487b7100000000000000000000000000000000000000000000000000000000\n        /* \"#utility.yul\":11838:11839   */\n      0x00\n        /* \"#utility.yul\":11831:11919   */\n      mstore\n        /* \"#utility.yul\":11938:11942   */\n      0x41\n        /* \"#utility.yul\":11935:11936   */\n      0x04\n        /* \"#utility.yul\":11928:11943   */\n      mstore\n        /* \"#utility.yul\":11962:11966   */\n      0x24\n        /* \"#utility.yul\":11959:11960   */\n      0x00\n        /* \"#utility.yul\":11952:11967   */\n      revert\n        /* \"#utility.yul\":11979:12159   */\n    tag_69:\n        /* \"#utility.yul\":12027:12104   */\n      0x4e487b7100000000000000000000000000000000000000000000000000000000\n        /* \"#utility.yul\":12024:12025   */\n      0x00\n        /* \"#utility.yul\":12017:12105   */\n      mstore\n        /* \"#utility.yul\":12124:12128   */\n      0x32\n        /* \"#utility.yul\":12121:12122   */\n      0x04\n        /* \"#utility.yul\":12114:12129   */\n      mstore\n        /* \"#utility.yul\":12148:12152   */\n      0x24\n        /* \"#utility.yul\":12145:12146   */\n      0x00\n        /* \"#utility.yul\":12138:12153   */\n      revert\n\n    auxdata: 0xa264697066735822122048593324156e39c343ab55c654d8fbdbe38ba2787af09d46df4756db593c612164736f6c63430008130033\n}\n",
				"bytecode": {
					"linkReferences": {},
					"object": "6080604052600160005534801561001557600080fd5b50610ef4806100256000396000f3fe608060405234801561001057600080fd5b506004361061007d5760003560e01c806370b775a01161005b57806370b775a0146100d8578063a440361514610108578063b9db15b414610138578063d2bf193d146101685761007d565b8063029e2fe41461008257806329d78328146100a05780633f5d2e2e146100bc575b600080fd5b61008a61019c565b6040516100979190610942565b60405180910390f35b6100ba60048036038101906100b5919061098e565b6101a2565b005b6100d660048036038101906100d19190610a55565b610211565b005b6100f260048036038101906100ed9190610ad0565b61045d565b6040516100ff9190610c41565b60405180910390f35b610122600480360381019061011d9190610c63565b6106cc565b60405161012f9190610942565b60405180910390f35b610152600480360381019061014d919061098e565b6106fd565b60405161015f9190610d0b565b60405180910390f35b610182600480360381019061017d919061098e565b61082c565b604051610193959493929190610d44565b60405180910390f35b60005481565b426002600083815260200190815260200160002060020160186101000a81548163ffffffff021916908363ffffffff1602179055507f64e64e323422dcfed18a892f84596ccf7cc94b1952625f3cc82e6461b529fff1426040516102069190610d97565b60405180910390a150565b6040518060a001604052808681526020018573ffffffffffffffffffffffffffffffffffffffff1681526020018473ffffffffffffffffffffffffffffffffffffffff1681526020018363ffffffff1681526020018263ffffffff1681525060026000805481526020019081526020016000206000820151816000015560208201518160010160006101000a81548173ffffffffffffffffffffffffffffffffffffffff021916908373ffffffffffffffffffffffffffffffffffffffff16021790555060408201518160020160006101000a81548173ffffffffffffffffffffffffffffffffffffffff021916908373ffffffffffffffffffffffffffffffffffffffff16021790555060608201518160020160146101000a81548163ffffffff021916908363ffffffff16021790555060808201518160020160186101000a81548163ffffffff021916908363ffffffff16021790555090505060016000549080600181540180825580915050600190039060005260206000200160009091909190915055600360008473ffffffffffffffffffffffffffffffffffffffff1673ffffffffffffffffffffffffffffffffffffffff1681526020019081526020016000206000549080600181540180825580915050600190039060005260206000200160009091909190915055846000547f6abc5964a9f8c02bee56a206f75c7526ea67f5abd5cbbe939c60d4a489607e4986868660405161043793929190610db2565b60405180910390a360008081548092919061045190610e18565b91905055505050505050565b60606000600360008473ffffffffffffffffffffffffffffffffffffffff1673ffffffffffffffffffffffffffffffffffffffff1681526020019081526020016000208054806020026020016040519081016040528092919081815260200182805480156104ea57602002820191906000526020600020905b8154815260200190600101908083116104d6575b505050505090506000815167ffffffffffffffff81111561050e5761050d610e60565b5b60405190808252806020026020018201604052801561054757816020015b6105346108c2565b81526020019060019003908161052c5790505b50905060005b82518110156106c1576002600084838151811061056d5761056c610e8f565b5b602002602001015181526020019081526020016000206040518060a0016040529081600082015481526020016001820160009054906101000a900473ffffffffffffffffffffffffffffffffffffffff1673ffffffffffffffffffffffffffffffffffffffff1673ffffffffffffffffffffffffffffffffffffffff1681526020016002820160009054906101000a900473ffffffffffffffffffffffffffffffffffffffff1673ffffffffffffffffffffffffffffffffffffffff1673ffffffffffffffffffffffffffffffffffffffff1681526020016002820160149054906101000a900463ffffffff1663ffffffff1663ffffffff1681526020016002820160189054906101000a900463ffffffff1663ffffffff1663ffffffff16815250508282815181106106a3576106a2610e8f565b5b602002602001018190525080806106b990610e18565b91505061054d565b508092505050919050565b600360205281600052604060002081815481106106e857600080fd5b90600052602060002001600091509150505481565b6107056108c2565b600260008381526020019081526020016000206040518060a0016040529081600082015481526020016001820160009054906101000a900473ffffffffffffffffffffffffffffffffffffffff1673ffffffffffffffffffffffffffffffffffffffff1673ffffffffffffffffffffffffffffffffffffffff1681526020016002820160009054906101000a900473ffffffffffffffffffffffffffffffffffffffff1673ffffffffffffffffffffffffffffffffffffffff1673ffffffffffffffffffffffffffffffffffffffff1681526020016002820160149054906101000a900463ffffffff1663ffffffff1663ffffffff1681526020016002820160189054906101000a900463ffffffff1663ffffffff1663ffffffff16815250509050919050565b60026020528060005260406000206000915090508060000154908060010160009054906101000a900473ffffffffffffffffffffffffffffffffffffffff16908060020160009054906101000a900473ffffffffffffffffffffffffffffffffffffffff16908060020160149054906101000a900463ffffffff16908060020160189054906101000a900463ffffffff16905085565b6040518060a0016040528060008152602001600073ffffffffffffffffffffffffffffffffffffffff168152602001600073ffffffffffffffffffffffffffffffffffffffff168152602001600063ffffffff168152602001600063ffffffff1681525090565b6000819050919050565b61093c81610929565b82525050565b60006020820190506109576000830184610933565b92915050565b600080fd5b61096b81610929565b811461097657600080fd5b50565b60008135905061098881610962565b92915050565b6000602082840312156109a4576109a361095d565b5b60006109b284828501610979565b91505092915050565b600073ffffffffffffffffffffffffffffffffffffffff82169050919050565b60006109e6826109bb565b9050919050565b6109f6816109db565b8114610a0157600080fd5b50565b600081359050610a13816109ed565b92915050565b600063ffffffff82169050919050565b610a3281610a19565b8114610a3d57600080fd5b50565b600081359050610a4f81610a29565b92915050565b600080600080600060a08688031215610a7157610a7061095d565b5b6000610a7f88828901610979565b9550506020610a9088828901610a04565b9450506040610aa188828901610a04565b9350506060610ab288828901610a40565b9250506080610ac388828901610a40565b9150509295509295909350565b600060208284031215610ae657610ae561095d565b5b6000610af484828501610a04565b91505092915050565b600081519050919050565b600082825260208201905092915050565b6000819050602082019050919050565b610b3281610929565b82525050565b610b41816109db565b82525050565b610b5081610a19565b82525050565b60a082016000820151610b6c6000850182610b29565b506020820151610b7f6020850182610b38565b506040820151610b926040850182610b38565b506060820151610ba56060850182610b47565b506080820151610bb86080850182610b47565b50505050565b6000610bca8383610b56565b60a08301905092915050565b6000602082019050919050565b6000610bee82610afd565b610bf88185610b08565b9350610c0383610b19565b8060005b83811015610c34578151610c1b8882610bbe565b9750610c2683610bd6565b925050600181019050610c07565b5085935050505092915050565b60006020820190508181036000830152610c5b8184610be3565b905092915050565b60008060408385031215610c7a57610c7961095d565b5b6000610c8885828601610a04565b9250506020610c9985828601610979565b9150509250929050565b60a082016000820151610cb96000850182610b29565b506020820151610ccc6020850182610b38565b506040820151610cdf6040850182610b38565b506060820151610cf26060850182610b47565b506080820151610d056080850182610b47565b50505050565b600060a082019050610d206000830184610ca3565b92915050565b610d2f816109db565b82525050565b610d3e81610a19565b82525050565b600060a082019050610d596000830188610933565b610d666020830187610d26565b610d736040830186610d26565b610d806060830185610d35565b610d8d6080830184610d35565b9695505050505050565b6000602082019050610dac6000830184610d35565b92915050565b6000606082019050610dc76000830186610d26565b610dd46020830185610d26565b610de16040830184610d35565b949350505050565b7f4e487b7100000000000000000000000000000000000000000000000000000000600052601160045260246000fd5b6000610e2382610929565b91507fffffffffffffffffffffffffffffffffffffffffffffffffffffffffffffffff8203610e5557610e54610de9565b5b600182019050919050565b7f4e487b7100000000000000000000000000000000000000000000000000000000600052604160045260246000fd5b7f4e487b7100000000000000000000000000000000000000000000000000000000600052603260045260246000fdfea264697066735822122048593324156e39c343ab55c654d8fbdbe38ba2787af09d46df4756db593c612164736f6c63430008130033",
					"opcodes": "PUSH1 0x80 PUSH1 0x40 MSTORE PUSH1 0x1 PUSH1 0x0 SSTORE CALLVALUE DUP1 ISZERO PUSH2 0x15 JUMPI PUSH1 0x0 DUP1 REVERT JUMPDEST POP PUSH2 0xEF4 DUP1 PUSH2 0x25 PUSH1 0x0 CODECOPY PUSH1 0x0 RETURN INVALID PUSH1 0x80 PUSH1 0x40 MSTORE CALLVALUE DUP1 ISZERO PUSH2 0x10 JUMPI PUSH1 0x0 DUP1 REVERT JUMPDEST POP PUSH1 0x4 CALLDATASIZE LT PUSH2 0x7D JUMPI PUSH1 0x0 CALLDATALOAD PUSH1 0xE0 SHR DUP1 PUSH4 0x70B775A0 GT PUSH2 0x5B JUMPI DUP1 PUSH4 0x70B775A0 EQ PUSH2 0xD8 JUMPI DUP1 PUSH4 0xA4403615 EQ PUSH2 0x108 JUMPI DUP1 PUSH4 0xB9DB15B4 EQ PUSH2 0x138 JUMPI DUP1 PUSH4 0xD2BF193D EQ PUSH2 0x168 JUMPI PUSH2 0x7D JUMP JUMPDEST DUP1 PUSH4 0x29E2FE4 EQ PUSH2 0x82 JUMPI DUP1 PUSH4 0x29D78328 EQ PUSH2 0xA0 JUMPI DUP1 PUSH4 0x3F5D2E2E EQ PUSH2 0xBC JUMPI JUMPDEST PUSH1 0x0 DUP1 REVERT JUMPDEST PUSH2 0x8A PUSH2 0x19C JUMP JUMPDEST PUSH1 0x40 MLOAD PUSH2 0x97 SWAP2 SWAP1 PUSH2 0x942 JUMP JUMPDEST PUSH1 0x40 MLOAD DUP1 SWAP2 SUB SWAP1 RETURN JUMPDEST PUSH2 0xBA PUSH1 0x4 DUP1 CALLDATASIZE SUB DUP2 ADD SWAP1 PUSH2 0xB5 SWAP2 SWAP1 PUSH2 0x98E JUMP JUMPDEST PUSH2 0x1A2 JUMP JUMPDEST STOP JUMPDEST PUSH2 0xD6 PUSH1 0x4 DUP1 CALLDATASIZE SUB DUP2 ADD SWAP1 PUSH2 0xD1 SWAP2 SWAP1 PUSH2 0xA55 JUMP JUMPDEST PUSH2 0x211 JUMP JUMPDEST STOP JUMPDEST PUSH2 0xF2 PUSH1 0x4 DUP1 CALLDATASIZE SUB DUP2 ADD SWAP1 PUSH2 0xED SWAP2 SWAP1 PUSH2 0xAD0 JUMP JUMPDEST PUSH2 0x45D JUMP JUMPDEST PUSH1 0x40 MLOAD PUSH2 0xFF SWAP2 SWAP1 PUSH2 0xC41 JUMP JUMPDEST PUSH1 0x40 MLOAD DUP1 SWAP2 SUB SWAP1 RETURN JUMPDEST PUSH2 0x122 PUSH1 0x4 DUP1 CALLDATASIZE SUB DUP2 ADD SWAP1 PUSH2 0x11D SWAP2 SWAP1 PUSH2 0xC63 JUMP JUMPDEST PUSH2 0x6CC JUMP JUMPDEST PUSH1 0x40 MLOAD PUSH2 0x12F SWAP2 SWAP1 PUSH2 0x942 JUMP JUMPDEST PUSH1 0x40 MLOAD DUP1 SWAP2 SUB SWAP1 RETURN JUMPDEST PUSH2 0x152 PUSH1 0x4 DUP1 CALLDATASIZE SUB DUP2 ADD SWAP1 PUSH2 0x14D SWAP2 SWAP1 PUSH2 0x98E JUMP JUMPDEST PUSH2 0x6FD JUMP JUMPDEST PUSH1 0x40 MLOAD PUSH2 0x15F SWAP2 SWAP1 PUSH2 0xD0B JUMP JUMPDEST PUSH1 0x40 MLOAD DUP1 SWAP2 SUB SWAP1 RETURN JUMPDEST PUSH2 0x182 PUSH1 0x4 DUP1 CALLDATASIZE SUB DUP2 ADD SWAP1 PUSH2 0x17D SWAP2 SWAP1 PUSH2 0x98E JUMP JUMPDEST PUSH2 0x82C JUMP JUMPDEST PUSH1 0x40 MLOAD PUSH2 0x193 SWAP6 SWAP5 SWAP4 SWAP3 SWAP2 SWAP1 PUSH2 0xD44 JUMP JUMPDEST PUSH1 0x40 MLOAD DUP1 SWAP2 SUB SWAP1 RETURN JUMPDEST PUSH1 0x0 SLOAD DUP2 JUMP JUMPDEST TIMESTAMP PUSH1 0x2 PUSH1 0x0 DUP4 DUP2 MSTORE PUSH1 0x20 ADD SWAP1 DUP2 MSTORE PUSH1 0x20 ADD PUSH1 0x0 KECCAK256 PUSH1 0x2 ADD PUSH1 0x18 PUSH2 0x100 EXP DUP2 SLOAD DUP2 PUSH4 0xFFFFFFFF MUL NOT AND SWAP1 DUP4 PUSH4 0xFFFFFFFF AND MUL OR SWAP1 SSTORE POP PUSH32 0x64E64E323422DCFED18A892F84596CCF7CC94B1952625F3CC82E6461B529FFF1 TIMESTAMP PUSH1 0x40 MLOAD PUSH2 0x206 SWAP2 SWAP1 PUSH2 0xD97 JUMP JUMPDEST PUSH1 0x40 MLOAD DUP1 SWAP2 SUB SWAP1 LOG1 POP JUMP JUMPDEST PUSH1 0x40 MLOAD DUP1 PUSH1 0xA0 ADD PUSH1 0x40 MSTORE DUP1 DUP7 DUP2 MSTORE PUSH1 0x20 ADD DUP6 PUSH20 0xFFFFFFFFFFFFFFFFFFFFFFFFFFFFFFFFFFFFFFFF AND DUP2 MSTORE PUSH1 0x20 ADD DUP5 PUSH20 0xFFFFFFFFFFFFFFFFFFFFFFFFFFFFFFFFFFFFFFFF AND DUP2 MSTORE PUSH1 0x20 ADD DUP4 PUSH4 0xFFFFFFFF AND DUP2 MSTORE PUSH1 0x20 ADD DUP3 PUSH4 0xFFFFFFFF AND DUP2 MSTORE POP PUSH1 0x2 PUSH1 0x0 DUP1 SLOAD DUP2 MSTORE PUSH1 0x20 ADD SWAP1 DUP2 MSTORE PUSH1 0x20 ADD PUSH1 0x0 KECCAK256 PUSH1 0x0 DUP3 ADD MLOAD DUP2 PUSH1 0x0 ADD SSTORE PUSH1 0x20 DUP3 ADD MLOAD DUP2 PUSH1 0x1 ADD PUSH1 0x0 PUSH2 0x100 EXP DUP2 SLOAD DUP2 PUSH20 0xFFFFFFFFFFFFFFFFFFFFFFFFFFFFFFFFFFFFFFFF MUL NOT AND SWAP1 DUP4 PUSH20 0xFFFFFFFFFFFFFFFFFFFFFFFFFFFFFFFFFFFFFFFF AND MUL OR SWAP1 SSTORE POP PUSH1 0x40 DUP3 ADD MLOAD DUP2 PUSH1 0x2 ADD PUSH1 0x0 PUSH2 0x100 EXP DUP2 SLOAD DUP2 PUSH20 0xFFFFFFFFFFFFFFFFFFFFFFFFFFFFFFFFFFFFFFFF MUL NOT AND SWAP1 DUP4 PUSH20 0xFFFFFFFFFFFFFFFFFFFFFFFFFFFFFFFFFFFFFFFF AND MUL OR SWAP1 SSTORE POP PUSH1 0x60 DUP3 ADD MLOAD DUP2 PUSH1 0x2 ADD PUSH1 0x14 PUSH2 0x100 EXP DUP2 SLOAD DUP2 PUSH4 0xFFFFFFFF MUL NOT AND SWAP1 DUP4 PUSH4 0xFFFFFFFF AND MUL OR SWAP1 SSTORE POP PUSH1 0x80 DUP3 ADD MLOAD DUP2 PUSH1 0x2 ADD PUSH1 0x18 PUSH2 0x100 EXP DUP2 SLOAD DUP2 PUSH4 0xFFFFFFFF MUL NOT AND SWAP1 DUP4 PUSH4 0xFFFFFFFF AND MUL OR SWAP1 SSTORE POP SWAP1 POP POP PUSH1 0x1 PUSH1 0x0 SLOAD SWAP1 DUP1 PUSH1 0x1 DUP2 SLOAD ADD DUP1 DUP3 SSTORE DUP1 SWAP2 POP POP PUSH1 0x1 SWAP1 SUB SWAP1 PUSH1 0x0 MSTORE PUSH1 0x20 PUSH1 0x0 KECCAK256 ADD PUSH1 0x0 SWAP1 SWAP2 SWAP1 SWAP2 SWAP1 SWAP2 POP SSTORE PUSH1 0x3 PUSH1 0x0 DUP5 PUSH20 0xFFFFFFFFFFFFFFFFFFFFFFFFFFFFFFFFFFFFFFFF AND PUSH20 0xFFFFFFFFFFFFFFFFFFFFFFFFFFFFFFFFFFFFFFFF AND DUP2 MSTORE PUSH1 0x20 ADD SWAP1 DUP2 MSTORE PUSH1 0x20 ADD PUSH1 0x0 KECCAK256 PUSH1 0x0 SLOAD SWAP1 DUP1 PUSH1 0x1 DUP2 SLOAD ADD DUP1 DUP3 SSTORE DUP1 SWAP2 POP POP PUSH1 0x1 SWAP1 SUB SWAP1 PUSH1 0x0 MSTORE PUSH1 0x20 PUSH1 0x0 KECCAK256 ADD PUSH1 0x0 SWAP1 SWAP2 SWAP1 SWAP2 SWAP1 SWAP2 POP SSTORE DUP5 PUSH1 0x0 SLOAD PUSH32 0x6ABC5964A9F8C02BEE56A206F75C7526EA67F5ABD5CBBE939C60D4A489607E49 DUP7 DUP7 DUP7 PUSH1 0x40 MLOAD PUSH2 0x437 SWAP4 SWAP3 SWAP2 SWAP1 PUSH2 0xDB2 JUMP JUMPDEST PUSH1 0x40 MLOAD DUP1 SWAP2 SUB SWAP1 LOG3 PUSH1 0x0 DUP1 DUP2 SLOAD DUP1 SWAP3 SWAP2 SWAP1 PUSH2 0x451 SWAP1 PUSH2 0xE18 JUMP JUMPDEST SWAP2 SWAP1 POP SSTORE POP POP POP POP POP POP JUMP JUMPDEST PUSH1 0x60 PUSH1 0x0 PUSH1 0x3 PUSH1 0x0 DUP5 PUSH20 0xFFFFFFFFFFFFFFFFFFFFFFFFFFFFFFFFFFFFFFFF AND PUSH20 0xFFFFFFFFFFFFFFFFFFFFFFFFFFFFFFFFFFFFFFFF AND DUP2 MSTORE PUSH1 0x20 ADD SWAP1 DUP2 MSTORE PUSH1 0x20 ADD PUSH1 0x0 KECCAK256 DUP1 SLOAD DUP1 PUSH1 0x20 MUL PUSH1 0x20 ADD PUSH1 0x40 MLOAD SWAP1 DUP2 ADD PUSH1 0x40 MSTORE DUP1 SWAP3 SWAP2 SWAP1 DUP2 DUP2 MSTORE PUSH1 0x20 ADD DUP3 DUP1 SLOAD DUP1 ISZERO PUSH2 0x4EA JUMPI PUSH1 0x20 MUL DUP3 ADD SWAP2 SWAP1 PUSH1 0x0 MSTORE PUSH1 0x20 PUSH1 0x0 KECCAK256 SWAP1 JUMPDEST DUP2 SLOAD DUP2 MSTORE PUSH1 0x20 ADD SWAP1 PUSH1 0x1 ADD SWAP1 DUP1 DUP4 GT PUSH2 0x4D6 JUMPI JUMPDEST POP POP POP POP POP SWAP1 POP PUSH1 0x0 DUP2 MLOAD PUSH8 0xFFFFFFFFFFFFFFFF DUP2 GT ISZERO PUSH2 0x50E JUMPI PUSH2 0x50D PUSH2 0xE60 JUMP JUMPDEST JUMPDEST PUSH1 0x40 MLOAD SWAP1 DUP1 DUP3 MSTORE DUP1 PUSH1 0x20 MUL PUSH1 0x20 ADD DUP3 ADD PUSH1 0x40 MSTORE DUP1 ISZERO PUSH2 0x547 JUMPI DUP2 PUSH1 0x20 ADD JUMPDEST PUSH2 0x534 PUSH2 0x8C2 JUMP JUMPDEST DUP2 MSTORE PUSH1 0x20 ADD SWAP1 PUSH1 0x1 SWAP1 SUB SWAP1 DUP2 PUSH2 0x52C JUMPI SWAP1 POP JUMPDEST POP SWAP1 POP PUSH1 0x0 JUMPDEST DUP3 MLOAD DUP2 LT ISZERO PUSH2 0x6C1 JUMPI PUSH1 0x2 PUSH1 0x0 DUP5 DUP4 DUP2 MLOAD DUP2 LT PUSH2 0x56D JUMPI PUSH2 0x56C PUSH2 0xE8F JUMP JUMPDEST JUMPDEST PUSH1 0x20 MUL PUSH1 0x20 ADD ADD MLOAD DUP2 MSTORE PUSH1 0x20 ADD SWAP1 DUP2 MSTORE PUSH1 0x20 ADD PUSH1 0x0 KECCAK256 PUSH1 0x40 MLOAD DUP1 PUSH1 0xA0 ADD PUSH1 0x40 MSTORE SWAP1 DUP2 PUSH1 0x0 DUP3 ADD SLOAD DUP2 MSTORE PUSH1 0x20 ADD PUSH1 0x1 DUP3 ADD PUSH1 0x0 SWAP1 SLOAD SWAP1 PUSH2 0x100 EXP SWAP1 DIV PUSH20 0xFFFFFFFFFFFFFFFFFFFFFFFFFFFFFFFFFFFFFFFF AND PUSH20 0xFFFFFFFFFFFFFFFFFFFFFFFFFFFFFFFFFFFFFFFF AND PUSH20 0xFFFFFFFFFFFFFFFFFFFFFFFFFFFFFFFFFFFFFFFF AND DUP2 MSTORE PUSH1 0x20 ADD PUSH1 0x2 DUP3 ADD PUSH1 0x0 SWAP1 SLOAD SWAP1 PUSH2 0x100 EXP SWAP1 DIV PUSH20 0xFFFFFFFFFFFFFFFFFFFFFFFFFFFFFFFFFFFFFFFF AND PUSH20 0xFFFFFFFFFFFFFFFFFFFFFFFFFFFFFFFFFFFFFFFF AND PUSH20 0xFFFFFFFFFFFFFFFFFFFFFFFFFFFFFFFFFFFFFFFF AND DUP2 MSTORE PUSH1 0x20 ADD PUSH1 0x2 DUP3 ADD PUSH1 0x14 SWAP1 SLOAD SWAP1 PUSH2 0x100 EXP SWAP1 DIV PUSH4 0xFFFFFFFF AND PUSH4 0xFFFFFFFF AND PUSH4 0xFFFFFFFF AND DUP2 MSTORE PUSH1 0x20 ADD PUSH1 0x2 DUP3 ADD PUSH1 0x18 SWAP1 SLOAD SWAP1 PUSH2 0x100 EXP SWAP1 DIV PUSH4 0xFFFFFFFF AND PUSH4 0xFFFFFFFF AND PUSH4 0xFFFFFFFF AND DUP2 MSTORE POP POP DUP3 DUP3 DUP2 MLOAD DUP2 LT PUSH2 0x6A3 JUMPI PUSH2 0x6A2 PUSH2 0xE8F JUMP JUMPDEST JUMPDEST PUSH1 0x20 MUL PUSH1 0x20 ADD ADD DUP2 SWAP1 MSTORE POP DUP1 DUP1 PUSH2 0x6B9 SWAP1 PUSH2 0xE18 JUMP JUMPDEST SWAP2 POP POP PUSH2 0x54D JUMP JUMPDEST POP DUP1 SWAP3 POP POP POP SWAP2 SWAP1 POP JUMP JUMPDEST PUSH1 0x3 PUSH1 0x20 MSTORE DUP2 PUSH1 0x0 MSTORE PUSH1 0x40 PUSH1 0x0 KECCAK256 DUP2 DUP2 SLOAD DUP2 LT PUSH2 0x6E8 JUMPI PUSH1 0x0 DUP1 REVERT JUMPDEST SWAP1 PUSH1 0x0 MSTORE PUSH1 0x20 PUSH1 0x0 KECCAK256 ADD PUSH1 0x0 SWAP2 POP SWAP2 POP POP SLOAD DUP2 JUMP JUMPDEST PUSH2 0x705 PUSH2 0x8C2 JUMP JUMPDEST PUSH1 0x2 PUSH1 0x0 DUP4 DUP2 MSTORE PUSH1 0x20 ADD SWAP1 DUP2 MSTORE PUSH1 0x20 ADD PUSH1 0x0 KECCAK256 PUSH1 0x40 MLOAD DUP1 PUSH1 0xA0 ADD PUSH1 0x40 MSTORE SWAP1 DUP2 PUSH1 0x0 DUP3 ADD SLOAD DUP2 MSTORE PUSH1 0x20 ADD PUSH1 0x1 DUP3 ADD PUSH1 0x0 SWAP1 SLOAD SWAP1 PUSH2 0x100 EXP SWAP1 DIV PUSH20 0xFFFFFFFFFFFFFFFFFFFFFFFFFFFFFFFFFFFFFFFF AND PUSH20 0xFFFFFFFFFFFFFFFFFFFFFFFFFFFFFFFFFFFFFFFF AND PUSH20 0xFFFFFFFFFFFFFFFFFFFFFFFFFFFFFFFFFFFFFFFF AND DUP2 MSTORE PUSH1 0x20 ADD PUSH1 0x2 DUP3 ADD PUSH1 0x0 SWAP1 SLOAD SWAP1 PUSH2 0x100 EXP SWAP1 DIV PUSH20 0xFFFFFFFFFFFFFFFFFFFFFFFFFFFFFFFFFFFFFFFF AND PUSH20 0xFFFFFFFFFFFFFFFFFFFFFFFFFFFFFFFFFFFFFFFF AND PUSH20 0xFFFFFFFFFFFFFFFFFFFFFFFFFFFFFFFFFFFFFFFF AND DUP2 MSTORE PUSH1 0x20 ADD PUSH1 0x2 DUP3 ADD PUSH1 0x14 SWAP1 SLOAD SWAP1 PUSH2 0x100 EXP SWAP1 DIV PUSH4 0xFFFFFFFF AND PUSH4 0xFFFFFFFF AND PUSH4 0xFFFFFFFF AND DUP2 MSTORE PUSH1 0x20 ADD PUSH1 0x2 DUP3 ADD PUSH1 0x18 SWAP1 SLOAD SWAP1 PUSH2 0x100 EXP SWAP1 DIV PUSH4 0xFFFFFFFF AND PUSH4 0xFFFFFFFF AND PUSH4 0xFFFFFFFF AND DUP2 MSTORE POP POP SWAP1 POP SWAP2 SWAP1 POP JUMP JUMPDEST PUSH1 0x2 PUSH1 0x20 MSTORE DUP1 PUSH1 0x0 MSTORE PUSH1 0x40 PUSH1 0x0 KECCAK256 PUSH1 0x0 SWAP2 POP SWAP1 POP DUP1 PUSH1 0x0 ADD SLOAD SWAP1 DUP1 PUSH1 0x1 ADD PUSH1 0x0 SWAP1 SLOAD SWAP1 PUSH2 0x100 EXP SWAP1 DIV PUSH20 0xFFFFFFFFFFFFFFFFFFFFFFFFFFFFFFFFFFFFFFFF AND SWAP1 DUP1 PUSH1 0x2 ADD PUSH1 0x0 SWAP1 SLOAD SWAP1 PUSH2 0x100 EXP SWAP1 DIV PUSH20 0xFFFFFFFFFFFFFFFFFFFFFFFFFFFFFFFFFFFFFFFF AND SWAP1 DUP1 PUSH1 0x2 ADD PUSH1 0x14 SWAP1 SLOAD SWAP1 PUSH2 0x100 EXP SWAP1 DIV PUSH4 0xFFFFFFFF AND SWAP1 DUP1 PUSH1 0x2 ADD PUSH1 0x18 SWAP1 SLOAD SWAP1 PUSH2 0x100 EXP SWAP1 DIV PUSH4 0xFFFFFFFF AND SWAP1 POP DUP6 JUMP JUMPDEST PUSH1 0x40 MLOAD DUP1 PUSH1 0xA0 ADD PUSH1 0x40 MSTORE DUP1 PUSH1 0x0 DUP2 MSTORE PUSH1 0x20 ADD PUSH1 0x0 PUSH20 0xFFFFFFFFFFFFFFFFFFFFFFFFFFFFFFFFFFFFFFFF AND DUP2 MSTORE PUSH1 0x20 ADD PUSH1 0x0 PUSH20 0xFFFFFFFFFFFFFFFFFFFFFFFFFFFFFFFFFFFFFFFF AND DUP2 MSTORE PUSH1 0x20 ADD PUSH1 0x0 PUSH4 0xFFFFFFFF AND DUP2 MSTORE PUSH1 0x20 ADD PUSH1 0x0 PUSH4 0xFFFFFFFF AND DUP2 MSTORE POP SWAP1 JUMP JUMPDEST PUSH1 0x0 DUP2 SWAP1 POP SWAP2 SWAP1 POP JUMP JUMPDEST PUSH2 0x93C DUP2 PUSH2 0x929 JUMP JUMPDEST DUP3 MSTORE POP POP JUMP JUMPDEST PUSH1 0x0 PUSH1 0x20 DUP3 ADD SWAP1 POP PUSH2 0x957 PUSH1 0x0 DUP4 ADD DUP5 PUSH2 0x933 JUMP JUMPDEST SWAP3 SWAP2 POP POP JUMP JUMPDEST PUSH1 0x0 DUP1 REVERT JUMPDEST PUSH2 0x96B DUP2 PUSH2 0x929 JUMP JUMPDEST DUP2 EQ PUSH2 0x976 JUMPI PUSH1 0x0 DUP1 REVERT JUMPDEST POP JUMP JUMPDEST PUSH1 0x0 DUP2 CALLDATALOAD SWAP1 POP PUSH2 0x988 DUP2 PUSH2 0x962 JUMP JUMPDEST SWAP3 SWAP2 POP POP JUMP JUMPDEST PUSH1 0x0 PUSH1 0x20 DUP3 DUP5 SUB SLT ISZERO PUSH2 0x9A4 JUMPI PUSH2 0x9A3 PUSH2 0x95D JUMP JUMPDEST JUMPDEST PUSH1 0x0 PUSH2 0x9B2 DUP5 DUP3 DUP6 ADD PUSH2 0x979 JUMP JUMPDEST SWAP2 POP POP SWAP3 SWAP2 POP POP JUMP JUMPDEST PUSH1 0x0 PUSH20 0xFFFFFFFFFFFFFFFFFFFFFFFFFFFFFFFFFFFFFFFF DUP3 AND SWAP1 POP SWAP2 SWAP1 POP JUMP JUMPDEST PUSH1 0x0 PUSH2 0x9E6 DUP3 PUSH2 0x9BB JUMP JUMPDEST SWAP1 POP SWAP2 SWAP1 POP JUMP JUMPDEST PUSH2 0x9F6 DUP2 PUSH2 0x9DB JUMP JUMPDEST DUP2 EQ PUSH2 0xA01 JUMPI PUSH1 0x0 DUP1 REVERT JUMPDEST POP JUMP JUMPDEST PUSH1 0x0 DUP2 CALLDATALOAD SWAP1 POP PUSH2 0xA13 DUP2 PUSH2 0x9ED JUMP JUMPDEST SWAP3 SWAP2 POP POP JUMP JUMPDEST PUSH1 0x0 PUSH4 0xFFFFFFFF DUP3 AND SWAP1 POP SWAP2 SWAP1 POP JUMP JUMPDEST PUSH2 0xA32 DUP2 PUSH2 0xA19 JUMP JUMPDEST DUP2 EQ PUSH2 0xA3D JUMPI PUSH1 0x0 DUP1 REVERT JUMPDEST POP JUMP JUMPDEST PUSH1 0x0 DUP2 CALLDATALOAD SWAP1 POP PUSH2 0xA4F DUP2 PUSH2 0xA29 JUMP JUMPDEST SWAP3 SWAP2 POP POP JUMP JUMPDEST PUSH1 0x0 DUP1 PUSH1 0x0 DUP1 PUSH1 0x0 PUSH1 0xA0 DUP7 DUP9 SUB SLT ISZERO PUSH2 0xA71 JUMPI PUSH2 0xA70 PUSH2 0x95D JUMP JUMPDEST JUMPDEST PUSH1 0x0 PUSH2 0xA7F DUP9 DUP3 DUP10 ADD PUSH2 0x979 JUMP JUMPDEST SWAP6 POP POP PUSH1 0x20 PUSH2 0xA90 DUP9 DUP3 DUP10 ADD PUSH2 0xA04 JUMP JUMPDEST SWAP5 POP POP PUSH1 0x40 PUSH2 0xAA1 DUP9 DUP3 DUP10 ADD PUSH2 0xA04 JUMP JUMPDEST SWAP4 POP POP PUSH1 0x60 PUSH2 0xAB2 DUP9 DUP3 DUP10 ADD PUSH2 0xA40 JUMP JUMPDEST SWAP3 POP POP PUSH1 0x80 PUSH2 0xAC3 DUP9 DUP3 DUP10 ADD PUSH2 0xA40 JUMP JUMPDEST SWAP2 POP POP SWAP3 SWAP6 POP SWAP3 SWAP6 SWAP1 SWAP4 POP JUMP JUMPDEST PUSH1 0x0 PUSH1 0x20 DUP3 DUP5 SUB SLT ISZERO PUSH2 0xAE6 JUMPI PUSH2 0xAE5 PUSH2 0x95D JUMP JUMPDEST JUMPDEST PUSH1 0x0 PUSH2 0xAF4 DUP5 DUP3 DUP6 ADD PUSH2 0xA04 JUMP JUMPDEST SWAP2 POP POP SWAP3 SWAP2 POP POP JUMP JUMPDEST PUSH1 0x0 DUP2 MLOAD SWAP1 POP SWAP2 SWAP1 POP JUMP JUMPDEST PUSH1 0x0 DUP3 DUP3 MSTORE PUSH1 0x20 DUP3 ADD SWAP1 POP SWAP3 SWAP2 POP POP JUMP JUMPDEST PUSH1 0x0 DUP2 SWAP1 POP PUSH1 0x20 DUP3 ADD SWAP1 POP SWAP2 SWAP1 POP JUMP JUMPDEST PUSH2 0xB32 DUP2 PUSH2 0x929 JUMP JUMPDEST DUP3 MSTORE POP POP JUMP JUMPDEST PUSH2 0xB41 DUP2 PUSH2 0x9DB JUMP JUMPDEST DUP3 MSTORE POP POP JUMP JUMPDEST PUSH2 0xB50 DUP2 PUSH2 0xA19 JUMP JUMPDEST DUP3 MSTORE POP POP JUMP JUMPDEST PUSH1 0xA0 DUP3 ADD PUSH1 0x0 DUP3 ADD MLOAD PUSH2 0xB6C PUSH1 0x0 DUP6 ADD DUP3 PUSH2 0xB29 JUMP JUMPDEST POP PUSH1 0x20 DUP3 ADD MLOAD PUSH2 0xB7F PUSH1 0x20 DUP6 ADD DUP3 PUSH2 0xB38 JUMP JUMPDEST POP PUSH1 0x40 DUP3 ADD MLOAD PUSH2 0xB92 PUSH1 0x40 DUP6 ADD DUP3 PUSH2 0xB38 JUMP JUMPDEST POP PUSH1 0x60 DUP3 ADD MLOAD PUSH2 0xBA5 PUSH1 0x60 DUP6 ADD DUP3 PUSH2 0xB47 JUMP JUMPDEST POP PUSH1 0x80 DUP3 ADD MLOAD PUSH2 0xBB8 PUSH1 0x80 DUP6 ADD DUP3 PUSH2 0xB47 JUMP JUMPDEST POP POP POP POP JUMP JUMPDEST PUSH1 0x0 PUSH2 0xBCA DUP4 DUP4 PUSH2 0xB56 JUMP JUMPDEST PUSH1 0xA0 DUP4 ADD SWAP1 POP SWAP3 SWAP2 POP POP JUMP JUMPDEST PUSH1 0x0 PUSH1 0x20 DUP3 ADD SWAP1 POP SWAP2 SWAP1 POP JUMP JUMPDEST PUSH1 0x0 PUSH2 0xBEE DUP3 PUSH2 0xAFD JUMP JUMPDEST PUSH2 0xBF8 DUP2 DUP6 PUSH2 0xB08 JUMP JUMPDEST SWAP4 POP PUSH2 0xC03 DUP4 PUSH2 0xB19 JUMP JUMPDEST DUP1 PUSH1 0x0 JUMPDEST DUP4 DUP2 LT ISZERO PUSH2 0xC34 JUMPI DUP2 MLOAD PUSH2 0xC1B DUP9 DUP3 PUSH2 0xBBE JUMP JUMPDEST SWAP8 POP PUSH2 0xC26 DUP4 PUSH2 0xBD6 JUMP JUMPDEST SWAP3 POP POP PUSH1 0x1 DUP2 ADD SWAP1 POP PUSH2 0xC07 JUMP JUMPDEST POP DUP6 SWAP4 POP POP POP POP SWAP3 SWAP2 POP POP JUMP JUMPDEST PUSH1 0x0 PUSH1 0x20 DUP3 ADD SWAP1 POP DUP2 DUP2 SUB PUSH1 0x0 DUP4 ADD MSTORE PUSH2 0xC5B DUP2 DUP5 PUSH2 0xBE3 JUMP JUMPDEST SWAP1 POP SWAP3 SWAP2 POP POP JUMP JUMPDEST PUSH1 0x0 DUP1 PUSH1 0x40 DUP4 DUP6 SUB SLT ISZERO PUSH2 0xC7A JUMPI PUSH2 0xC79 PUSH2 0x95D JUMP JUMPDEST JUMPDEST PUSH1 0x0 PUSH2 0xC88 DUP6 DUP3 DUP7 ADD PUSH2 0xA04 JUMP JUMPDEST SWAP3 POP POP PUSH1 0x20 PUSH2 0xC99 DUP6 DUP3 DUP7 ADD PUSH2 0x979 JUMP JUMPDEST SWAP2 POP POP SWAP3 POP SWAP3 SWAP1 POP JUMP JUMPDEST PUSH1 0xA0 DUP3 ADD PUSH1 0x0 DUP3 ADD MLOAD PUSH2 0xCB9 PUSH1 0x0 DUP6 ADD DUP3 PUSH2 0xB29 JUMP JUMPDEST POP PUSH1 0x20 DUP3 ADD MLOAD PUSH2 0xCCC PUSH1 0x20 DUP6 ADD DUP3 PUSH2 0xB38 JUMP JUMPDEST POP PUSH1 0x40 DUP3 ADD MLOAD PUSH2 0xCDF PUSH1 0x40 DUP6 ADD DUP3 PUSH2 0xB38 JUMP JUMPDEST POP PUSH1 0x60 DUP3 ADD MLOAD PUSH2 0xCF2 PUSH1 0x60 DUP6 ADD DUP3 PUSH2 0xB47 JUMP JUMPDEST POP PUSH1 0x80 DUP3 ADD MLOAD PUSH2 0xD05 PUSH1 0x80 DUP6 ADD DUP3 PUSH2 0xB47 JUMP JUMPDEST POP POP POP POP JUMP JUMPDEST PUSH1 0x0 PUSH1 0xA0 DUP3 ADD SWAP1 POP PUSH2 0xD20 PUSH1 0x0 DUP4 ADD DUP5 PUSH2 0xCA3 JUMP JUMPDEST SWAP3 SWAP2 POP POP JUMP JUMPDEST PUSH2 0xD2F DUP2 PUSH2 0x9DB JUMP JUMPDEST DUP3 MSTORE POP POP JUMP JUMPDEST PUSH2 0xD3E DUP2 PUSH2 0xA19 JUMP JUMPDEST DUP3 MSTORE POP POP JUMP JUMPDEST PUSH1 0x0 PUSH1 0xA0 DUP3 ADD SWAP1 POP PUSH2 0xD59 PUSH1 0x0 DUP4 ADD DUP9 PUSH2 0x933 JUMP JUMPDEST PUSH2 0xD66 PUSH1 0x20 DUP4 ADD DUP8 PUSH2 0xD26 JUMP JUMPDEST PUSH2 0xD73 PUSH1 0x40 DUP4 ADD DUP7 PUSH2 0xD26 JUMP JUMPDEST PUSH2 0xD80 PUSH1 0x60 DUP4 ADD DUP6 PUSH2 0xD35 JUMP JUMPDEST PUSH2 0xD8D PUSH1 0x80 DUP4 ADD DUP5 PUSH2 0xD35 JUMP JUMPDEST SWAP7 SWAP6 POP POP POP POP POP POP JUMP JUMPDEST PUSH1 0x0 PUSH1 0x20 DUP3 ADD SWAP1 POP PUSH2 0xDAC PUSH1 0x0 DUP4 ADD DUP5 PUSH2 0xD35 JUMP JUMPDEST SWAP3 SWAP2 POP POP JUMP JUMPDEST PUSH1 0x0 PUSH1 0x60 DUP3 ADD SWAP1 POP PUSH2 0xDC7 PUSH1 0x0 DUP4 ADD DUP7 PUSH2 0xD26 JUMP JUMPDEST PUSH2 0xDD4 PUSH1 0x20 DUP4 ADD DUP6 PUSH2 0xD26 JUMP JUMPDEST PUSH2 0xDE1 PUSH1 0x40 DUP4 ADD DUP5 PUSH2 0xD35 JUMP JUMPDEST SWAP5 SWAP4 POP POP POP POP JUMP JUMPDEST PUSH32 0x4E487B7100000000000000000000000000000000000000000000000000000000 PUSH1 0x0 MSTORE PUSH1 0x11 PUSH1 0x4 MSTORE PUSH1 0x24 PUSH1 0x0 REVERT JUMPDEST PUSH1 0x0 PUSH2 0xE23 DUP3 PUSH2 0x929 JUMP JUMPDEST SWAP2 POP PUSH32 0xFFFFFFFFFFFFFFFFFFFFFFFFFFFFFFFFFFFFFFFFFFFFFFFFFFFFFFFFFFFFFFFF DUP3 SUB PUSH2 0xE55 JUMPI PUSH2 0xE54 PUSH2 0xDE9 JUMP JUMPDEST JUMPDEST PUSH1 0x1 DUP3 ADD SWAP1 POP SWAP2 SWAP1 POP JUMP JUMPDEST PUSH32 0x4E487B7100000000000000000000000000000000000000000000000000000000 PUSH1 0x0 MSTORE PUSH1 0x41 PUSH1 0x4 MSTORE PUSH1 0x24 PUSH1 0x0 REVERT JUMPDEST PUSH32 0x4E487B7100000000000000000000000000000000000000000000000000000000 PUSH1 0x0 MSTORE PUSH1 0x32 PUSH1 0x4 MSTORE PUSH1 0x24 PUSH1 0x0 REVERT INVALID LOG2 PUSH5 0x6970667358 0x22 SLT KECCAK256 BASEFEE MSIZE CALLER 0x24 ISZERO PUSH15 0x39C343AB55C654D8FBDBE38BA2787A CREATE SWAP14 CHAINID 0xDF SELFBALANCE JUMP 0xDB MSIZE EXTCODECOPY PUSH2 0x2164 PUSH20 0x6F6C634300081300330000000000000000000000 "
				},
				"gasEstimates": {
					"creation": {
						"codeDepositCost": "765600",
						"executionCost": "22905",
						"totalCost": "788505"
					},
					"external": {
						"getAllSmIdForManufacturer(address)": "infinite",
						"getProduct(uint256)": "infinite",
						"manufacturerTosmIDMapping(address,uint256)": "infinite",
						"receiveProduct(uint256)": "26025",
						"smId()": "2430",
						"smidToStructMapping(uint256)": "infinite",
						"transferProduct(uint256,address,address,uint32,uint32)": "infinite"
					}
				},
				"methodIdentifiers": {
					"getAllSmIdForManufacturer(address)": "70b775a0",
					"getProduct(uint256)": "b9db15b4",
					"manufacturerTosmIDMapping(address,uint256)": "a4403615",
					"receiveProduct(uint256)": "29d78328",
					"smId()": "029e2fe4",
					"smidToStructMapping(uint256)": "d2bf193d",
					"transferProduct(uint256,address,address,uint32,uint32)": "3f5d2e2e"
				}
			},
			"storageLayout": {
				"storage": [
					{
						"astId": 55,
						"contract": "contracts/supplierManufacturer.sol:supplierManufacturer",
						"label": "smId",
						"offset": 0,
						"slot": "0",
						"type": "t_uint256"
					},
					{
						"astId": 58,
						"contract": "contracts/supplierManufacturer.sol:supplierManufacturer",
						"label": "allSmId",
						"offset": 0,
						"slot": "1",
						"type": "t_array(t_uint256)dyn_storage"
					},
					{
						"astId": 63,
						"contract": "contracts/supplierManufacturer.sol:supplierManufacturer",
						"label": "smidToStructMapping",
						"offset": 0,
						"slot": "2",
						"type": "t_mapping(t_uint256,t_struct(supplierManufacturer)12_storage)"
					},
					{
						"astId": 68,
						"contract": "contracts/supplierManufacturer.sol:supplierManufacturer",
						"label": "manufacturerTosmIDMapping",
						"offset": 0,
						"slot": "3",
						"type": "t_mapping(t_address,t_array(t_uint256)dyn_storage)"
					}
				],
				"types": {
					"t_address": {
						"encoding": "inplace",
						"label": "address",
						"numberOfBytes": "20"
					},
					"t_array(t_uint256)dyn_storage": {
						"base": "t_uint256",
						"encoding": "dynamic_array",
						"label": "uint256[]",
						"numberOfBytes": "32"
					},
					"t_mapping(t_address,t_array(t_uint256)dyn_storage)": {
						"encoding": "mapping",
						"key": "t_address",
						"label": "mapping(address => uint256[])",
						"numberOfBytes": "32",
						"value": "t_array(t_uint256)dyn_storage"
					},
					"t_mapping(t_uint256,t_struct(supplierManufacturer)12_storage)": {
						"encoding": "mapping",
						"key": "t_uint256",
						"label": "mapping(uint256 => struct ISupplierManufacturer.supplierManufacturer)",
						"numberOfBytes": "32",
						"value": "t_struct(supplierManufacturer)12_storage"
					},
					"t_struct(supplierManufacturer)12_storage": {
						"encoding": "inplace",
						"label": "struct ISupplierManufacturer.supplierManufacturer",
						"members": [
							{
								"astId": 3,
								"contract": "contracts/supplierManufacturer.sol:supplierManufacturer",
								"label": "spId",
								"offset": 0,
								"slot": "0",
								"type": "t_uint256"
							},
							{
								"astId": 5,
								"contract": "contracts/supplierManufacturer.sol:supplierManufacturer",
								"label": "supplierAddress",
								"offset": 0,
								"slot": "1",
								"type": "t_address"
							},
							{
								"astId": 7,
								"contract": "contracts/supplierManufacturer.sol:supplierManufacturer",
								"label": "manufacturerAddress",
								"offset": 0,
								"slot": "2",
								"type": "t_address"
							},
							{
								"astId": 9,
								"contract": "contracts/supplierManufacturer.sol:supplierManufacturer",
								"label": "dispatchTime",
								"offset": 20,
								"slot": "2",
								"type": "t_uint32"
							},
							{
								"astId": 11,
								"contract": "contracts/supplierManufacturer.sol:supplierManufacturer",
								"label": "arrivalTime",
								"offset": 24,
								"slot": "2",
								"type": "t_uint32"
							}
						],
						"numberOfBytes": "96"
					},
					"t_uint256": {
						"encoding": "inplace",
						"label": "uint256",
						"numberOfBytes": "32"
					},
					"t_uint32": {
						"encoding": "inplace",
						"label": "uint32",
						"numberOfBytes": "4"
					}
				}
			},
			"userdoc": {
				"kind": "user",
				"methods": {},
				"version": 1
			}
		}
	}
}