{
	"contracts/manufacturerProduct.sol": {
		"manufacturerProduct": {
			"abi": [
				{
					"anonymous": false,
					"inputs": [
						{
							"indexed": true,
							"internalType": "uint256",
							"name": "_mpId",
							"type": "uint256"
						},
						{
							"indexed": false,
							"internalType": "address[]",
							"name": "_supplierAddress",
							"type": "address[]"
						},
						{
							"indexed": false,
							"internalType": "uint256[]",
							"name": "_smId",
							"type": "uint256[]"
						},
						{
							"indexed": false,
							"internalType": "bytes",
							"name": "_name",
							"type": "bytes"
						},
						{
							"indexed": false,
							"internalType": "bytes",
							"name": "_description",
							"type": "bytes"
						},
						{
							"indexed": false,
							"internalType": "uint128",
							"name": "_unit",
							"type": "uint128"
						},
						{
							"indexed": false,
							"internalType": "uint128",
							"name": "_price",
							"type": "uint128"
						},
						{
							"indexed": false,
							"internalType": "uint32",
							"name": "_date",
							"type": "uint32"
						},
						{
							"indexed": false,
							"internalType": "uint32",
							"name": "_expiryDate",
							"type": "uint32"
						}
					],
					"name": "eventAddManufacturerProduct",
					"type": "event"
				},
				{
					"anonymous": false,
					"inputs": [
						{
							"indexed": false,
							"internalType": "uint256",
							"name": "_mpId",
							"type": "uint256"
						}
					],
					"name": "eventDeleteManufacturerProduct",
					"type": "event"
				},
				{
					"anonymous": false,
					"inputs": [
						{
							"indexed": true,
							"internalType": "uint256",
							"name": "_dpId",
							"type": "uint256"
						},
						{
							"indexed": false,
							"internalType": "uint128",
							"name": "_quantity",
							"type": "uint128"
						}
					],
					"name": "eventUpdateManufacturerProductUints",
					"type": "event"
				},
				{
					"inputs": [
						{
							"internalType": "address[]",
							"name": "_supplierAddress",
							"type": "address[]"
						},
						{
							"internalType": "uint256[]",
							"name": "_smId",
							"type": "uint256[]"
						},
						{
							"internalType": "bytes",
							"name": "_name",
							"type": "bytes"
						},
						{
							"internalType": "bytes",
							"name": "_description",
							"type": "bytes"
						},
						{
							"internalType": "uint128",
							"name": "_unit",
							"type": "uint128"
						},
						{
							"internalType": "uint128",
							"name": "_price",
							"type": "uint128"
						},
						{
							"internalType": "uint32",
							"name": "_date",
							"type": "uint32"
						},
						{
							"internalType": "uint32",
							"name": "_expiryDate",
							"type": "uint32"
						}
					],
					"name": "addManufacturerProduct",
					"outputs": [],
					"stateMutability": "nonpayable",
					"type": "function"
				},
				{
					"inputs": [
						{
							"internalType": "uint256",
							"name": "_mpId",
							"type": "uint256"
						}
					],
					"name": "deleteManufacturerProduct",
					"outputs": [],
					"stateMutability": "nonpayable",
					"type": "function"
				},
				{
					"inputs": [
						{
							"internalType": "address",
							"name": "_manufacturerAddress",
							"type": "address"
						}
					],
					"name": "getAllProductsOfManufacturer",
					"outputs": [
						{
							"components": [
								{
									"internalType": "address[]",
									"name": "supplierAddress",
									"type": "address[]"
								},
								{
									"internalType": "uint256[]",
									"name": "smId",
									"type": "uint256[]"
								},
								{
									"internalType": "bytes",
									"name": "mp_name",
									"type": "bytes"
								},
								{
									"internalType": "bytes",
									"name": "mp_description",
									"type": "bytes"
								},
								{
									"internalType": "uint128",
									"name": "mp_unit",
									"type": "uint128"
								},
								{
									"internalType": "uint128",
									"name": "mp_price",
									"type": "uint128"
								},
								{
									"internalType": "uint32",
									"name": "mp_date",
									"type": "uint32"
								},
								{
									"internalType": "uint32",
									"name": "mp_expiryDate",
									"type": "uint32"
								},
								{
									"internalType": "bool",
									"name": "mp_status",
									"type": "bool"
								}
							],
							"internalType": "struct IManufacturerProduct.manufacturerProduct[]",
							"name": "",
							"type": "tuple[]"
						}
					],
					"stateMutability": "view",
					"type": "function"
				},
				{
					"inputs": [],
					"name": "getManufacturerProductIds",
					"outputs": [
						{
							"internalType": "uint256[]",
							"name": "",
							"type": "uint256[]"
						}
					],
					"stateMutability": "view",
					"type": "function"
				},
				{
					"inputs": [
						{
							"internalType": "uint256",
							"name": "_mpId",
							"type": "uint256"
						}
					],
					"name": "getSingleManufacturerProduct",
					"outputs": [
						{
							"components": [
								{
									"internalType": "address[]",
									"name": "supplierAddress",
									"type": "address[]"
								},
								{
									"internalType": "uint256[]",
									"name": "smId",
									"type": "uint256[]"
								},
								{
									"internalType": "bytes",
									"name": "mp_name",
									"type": "bytes"
								},
								{
									"internalType": "bytes",
									"name": "mp_description",
									"type": "bytes"
								},
								{
									"internalType": "uint128",
									"name": "mp_unit",
									"type": "uint128"
								},
								{
									"internalType": "uint128",
									"name": "mp_price",
									"type": "uint128"
								},
								{
									"internalType": "uint32",
									"name": "mp_date",
									"type": "uint32"
								},
								{
									"internalType": "uint32",
									"name": "mp_expiryDate",
									"type": "uint32"
								},
								{
									"internalType": "bool",
									"name": "mp_status",
									"type": "bool"
								}
							],
							"internalType": "struct IManufacturerProduct.manufacturerProduct",
							"name": "",
							"type": "tuple"
						}
					],
					"stateMutability": "view",
					"type": "function"
				},
				{
					"inputs": [
						{
							"internalType": "address",
							"name": "",
							"type": "address"
						},
						{
							"internalType": "uint256",
							"name": "",
							"type": "uint256"
						}
					],
					"name": "manufacturerAddressToproductsIdMapping",
					"outputs": [
						{
							"internalType": "uint256",
							"name": "",
							"type": "uint256"
						}
					],
					"stateMutability": "view",
					"type": "function"
				},
				{
					"inputs": [
						{
							"internalType": "uint256",
							"name": "",
							"type": "uint256"
						}
					],
					"name": "manufacturerProductsIdToStructMapping",
					"outputs": [
						{
							"internalType": "bytes",
							"name": "mp_name",
							"type": "bytes"
						},
						{
							"internalType": "bytes",
							"name": "mp_description",
							"type": "bytes"
						},
						{
							"internalType": "uint128",
							"name": "mp_unit",
							"type": "uint128"
						},
						{
							"internalType": "uint128",
							"name": "mp_price",
							"type": "uint128"
						},
						{
							"internalType": "uint32",
							"name": "mp_date",
							"type": "uint32"
						},
						{
							"internalType": "uint32",
							"name": "mp_expiryDate",
							"type": "uint32"
						},
						{
							"internalType": "bool",
							"name": "mp_status",
							"type": "bool"
						}
					],
					"stateMutability": "view",
					"type": "function"
				},
				{
					"inputs": [
						{
							"internalType": "uint256",
							"name": "_mpId",
							"type": "uint256"
						},
						{
							"internalType": "uint128",
							"name": "_quantity",
							"type": "uint128"
						}
					],
					"name": "updateManufacturerProductUints",
					"outputs": [],
					"stateMutability": "nonpayable",
					"type": "function"
				}
			],
			"devdoc": {
				"author": "ProvyLens team",
				"kind": "dev",
				"methods": {},
				"title": "The contract for handling manufacturer' product",
				"version": 1
			},
			"evm": {
				"assembly": "    /* \"contracts/manufacturerProduct.sol\":262:3601  contract manufacturerProduct is IManufacturerProduct{... */\n  mstore(0x40, 0x80)\n    /* \"contracts/manufacturerProduct.sol\":390:391  1 */\n  0x01\n    /* \"contracts/manufacturerProduct.sol\":378:391  uint mpId = 1 */\n  0x00\n  sstore\n    /* \"contracts/manufacturerProduct.sol\":262:3601  contract manufacturerProduct is IManufacturerProduct{... */\n  callvalue\n  dup1\n  iszero\n  tag_1\n  jumpi\n  0x00\n  dup1\n  revert\ntag_1:\n  pop\n  dataSize(sub_0)\n  dup1\n  dataOffset(sub_0)\n  0x00\n  codecopy\n  0x00\n  return\nstop\n\nsub_0: assembly {\n        /* \"contracts/manufacturerProduct.sol\":262:3601  contract manufacturerProduct is IManufacturerProduct{... */\n      mstore(0x40, 0x80)\n      callvalue\n      dup1\n      iszero\n      tag_1\n      jumpi\n      0x00\n      dup1\n      revert\n    tag_1:\n      pop\n      jumpi(tag_2, lt(calldatasize, 0x04))\n      shr(0xe0, calldataload(0x00))\n      dup1\n      0x65603df2\n      gt\n      tag_11\n      jumpi\n      dup1\n      0x65603df2\n      eq\n      tag_7\n      jumpi\n      dup1\n      0x9ea61c7e\n      eq\n      tag_8\n      jumpi\n      dup1\n      0xd37889c6\n      eq\n      tag_9\n      jumpi\n      dup1\n      0xf6a989f8\n      eq\n      tag_10\n      jumpi\n      jump(tag_2)\n    tag_11:\n      dup1\n      0x24e5e6aa\n      eq\n      tag_3\n      jumpi\n      dup1\n      0x448952e1\n      eq\n      tag_4\n      jumpi\n      dup1\n      0x580f469c\n      eq\n      tag_5\n      jumpi\n      dup1\n      0x60715971\n      eq\n      tag_6\n      jumpi\n    tag_2:\n      0x00\n      dup1\n      revert\n        /* \"contracts/manufacturerProduct.sol\":2303:2450  function getManufacturerProductIds() public view returns(uint[] memory){... */\n    tag_3:\n      tag_12\n      tag_13\n      jump\t// in\n    tag_12:\n      mload(0x40)\n      tag_14\n      swap2\n      swap1\n      tag_15\n      jump\t// in\n    tag_14:\n      mload(0x40)\n      dup1\n      swap2\n      sub\n      swap1\n      return\n        /* \"contracts/manufacturerProduct.sol\":1207:1879  function addManufacturerProduct(... */\n    tag_4:\n      tag_16\n      0x04\n      dup1\n      calldatasize\n      sub\n      dup2\n      add\n      swap1\n      tag_17\n      swap2\n      swap1\n      tag_18\n      jump\t// in\n    tag_17:\n      tag_19\n      jump\t// in\n    tag_16:\n      stop\n        /* \"contracts/manufacturerProduct.sol\":630:702  mapping(address => uint[]) public manufacturerAddressToproductsIdMapping */\n    tag_5:\n      tag_20\n      0x04\n      dup1\n      calldatasize\n      sub\n      dup2\n      add\n      swap1\n      tag_21\n      swap2\n      swap1\n      tag_22\n      jump\t// in\n    tag_21:\n      tag_23\n      jump\t// in\n    tag_20:\n      mload(0x40)\n      tag_24\n      swap2\n      swap1\n      tag_25\n      jump\t// in\n    tag_24:\n      mload(0x40)\n      dup1\n      swap2\n      sub\n      swap1\n      return\n        /* \"contracts/manufacturerProduct.sol\":2789:3302  function getAllProductsOfManufacturer(address _manufacturerAddress) public view returns(manufacturerProduct[] memory)... */\n    tag_6:\n      tag_26\n      0x04\n      dup1\n      calldatasize\n      sub\n      dup2\n      add\n      swap1\n      tag_27\n      swap2\n      swap1\n      tag_28\n      jump\t// in\n    tag_27:\n      tag_29\n      jump\t// in\n    tag_26:\n      mload(0x40)\n      tag_30\n      swap2\n      swap1\n      tag_31\n      jump\t// in\n    tag_30:\n      mload(0x40)\n      dup1\n      swap2\n      sub\n      swap1\n      return\n        /* \"contracts/manufacturerProduct.sol\":471:552  mapping(uint => manufacturerProduct) public manufacturerProductsIdToStructMapping */\n    tag_7:\n      tag_32\n      0x04\n      dup1\n      calldatasize\n      sub\n      dup2\n      add\n      swap1\n      tag_33\n      swap2\n      swap1\n      tag_34\n      jump\t// in\n    tag_33:\n      tag_35\n      jump\t// in\n    tag_32:\n      mload(0x40)\n      tag_36\n      swap8\n      swap7\n      swap6\n      swap5\n      swap4\n      swap3\n      swap2\n      swap1\n      tag_37\n      jump\t// in\n    tag_36:\n      mload(0x40)\n      dup1\n      swap2\n      sub\n      swap1\n      return\n        /* \"contracts/manufacturerProduct.sol\":3403:3598  function deleteManufacturerProduct(uint _mpId)external override{... */\n    tag_8:\n      tag_38\n      0x04\n      dup1\n      calldatasize\n      sub\n      dup2\n      add\n      swap1\n      tag_39\n      swap2\n      swap1\n      tag_34\n      jump\t// in\n    tag_39:\n      tag_40\n      jump\t// in\n    tag_38:\n      stop\n        /* \"contracts/manufacturerProduct.sol\":1950:2234  function updateManufacturerProductUints(uint _mpId, uint128 _quantity) public override{... */\n    tag_9:\n      tag_41\n      0x04\n      dup1\n      calldatasize\n      sub\n      dup2\n      add\n      swap1\n      tag_42\n      swap2\n      swap1\n      tag_43\n      jump\t// in\n    tag_42:\n      tag_44\n      jump\t// in\n    tag_41:\n      stop\n        /* \"contracts/manufacturerProduct.sol\":2523:2690  function getSingleManufacturerProduct(uint _mpId) public view returns(manufacturerProduct memory){... */\n    tag_10:\n      tag_45\n      0x04\n      dup1\n      calldatasize\n      sub\n      dup2\n      add\n      swap1\n      tag_46\n      swap2\n      swap1\n      tag_34\n      jump\t// in\n    tag_46:\n      tag_47\n      jump\t// in\n    tag_45:\n      mload(0x40)\n      tag_48\n      swap2\n      swap1\n      tag_49\n      jump\t// in\n    tag_48:\n      mload(0x40)\n      dup1\n      swap2\n      sub\n      swap1\n      return\n        /* \"contracts/manufacturerProduct.sol\":2303:2450  function getManufacturerProductIds() public view returns(uint[] memory){... */\n    tag_13:\n        /* \"contracts/manufacturerProduct.sol\":2360:2373  uint[] memory */\n      0x60\n        /* \"contracts/manufacturerProduct.sol\":2392:2430  manufacturerAddressToproductsIdMapping */\n      0x02\n        /* \"contracts/manufacturerProduct.sol\":2392:2442  manufacturerAddressToproductsIdMapping[msg.sender] */\n      0x00\n        /* \"contracts/manufacturerProduct.sol\":2431:2441  msg.sender */\n      caller\n        /* \"contracts/manufacturerProduct.sol\":2392:2442  manufacturerAddressToproductsIdMapping[msg.sender] */\n      0xffffffffffffffffffffffffffffffffffffffff\n      and\n      0xffffffffffffffffffffffffffffffffffffffff\n      and\n      dup2\n      mstore\n      0x20\n      add\n      swap1\n      dup2\n      mstore\n      0x20\n      add\n      0x00\n      keccak256\n        /* \"contracts/manufacturerProduct.sol\":2385:2442  return manufacturerAddressToproductsIdMapping[msg.sender] */\n      dup1\n      sload\n      dup1\n      0x20\n      mul\n      0x20\n      add\n      mload(0x40)\n      swap1\n      dup2\n      add\n      0x40\n      mstore\n      dup1\n      swap3\n      swap2\n      swap1\n      dup2\n      dup2\n      mstore\n      0x20\n      add\n      dup3\n      dup1\n      sload\n      dup1\n      iszero\n      tag_51\n      jumpi\n      0x20\n      mul\n      dup3\n      add\n      swap2\n      swap1\n      0x00\n      mstore\n      keccak256(0x00, 0x20)\n      swap1\n    tag_52:\n      dup2\n      sload\n      dup2\n      mstore\n      0x20\n      add\n      swap1\n      0x01\n      add\n      swap1\n      dup1\n      dup4\n      gt\n      tag_52\n      jumpi\n    tag_51:\n      pop\n      pop\n      pop\n      pop\n      pop\n      swap1\n      pop\n        /* \"contracts/manufacturerProduct.sol\":2303:2450  function getManufacturerProductIds() public view returns(uint[] memory){... */\n      swap1\n      jump\t// out\n        /* \"contracts/manufacturerProduct.sol\":1207:1879  function addManufacturerProduct(... */\n    tag_19:\n        /* \"contracts/manufacturerProduct.sol\":1562:1660  manufacturerProduct(_supplierAddress,_smId,_name,_description,_unit,_price,_date,_expiryDate,true) */\n      mload(0x40)\n      dup1\n      0x0120\n      add\n      0x40\n      mstore\n      dup1\n        /* \"contracts/manufacturerProduct.sol\":1582:1598  _supplierAddress */\n      dup12\n        /* \"contracts/manufacturerProduct.sol\":1562:1660  manufacturerProduct(_supplierAddress,_smId,_name,_description,_unit,_price,_date,_expiryDate,true) */\n      dup2\n      mstore\n      0x20\n      add\n        /* \"contracts/manufacturerProduct.sol\":1599:1604  _smId */\n      dup11\n        /* \"contracts/manufacturerProduct.sol\":1562:1660  manufacturerProduct(_supplierAddress,_smId,_name,_description,_unit,_price,_date,_expiryDate,true) */\n      dup2\n      mstore\n      0x20\n      add\n        /* \"contracts/manufacturerProduct.sol\":1605:1610  _name */\n      dup10\n      dup10\n        /* \"contracts/manufacturerProduct.sol\":1562:1660  manufacturerProduct(_supplierAddress,_smId,_name,_description,_unit,_price,_date,_expiryDate,true) */\n      dup1\n      dup1\n      0x1f\n      add\n      0x20\n      dup1\n      swap2\n      div\n      mul\n      0x20\n      add\n      mload(0x40)\n      swap1\n      dup2\n      add\n      0x40\n      mstore\n      dup1\n      swap4\n      swap3\n      swap2\n      swap1\n      dup2\n      dup2\n      mstore\n      0x20\n      add\n      dup4\n      dup4\n      dup1\n      dup3\n      dup5\n      calldatacopy\n      0x00\n      dup2\n      dup5\n      add\n      mstore\n      not(0x1f)\n      0x1f\n      dup3\n      add\n      and\n      swap1\n      pop\n      dup1\n      dup4\n      add\n      swap3\n      pop\n      pop\n      pop\n      pop\n      pop\n      pop\n      pop\n      dup2\n      mstore\n      0x20\n      add\n        /* \"contracts/manufacturerProduct.sol\":1611:1623  _description */\n      dup8\n      dup8\n        /* \"contracts/manufacturerProduct.sol\":1562:1660  manufacturerProduct(_supplierAddress,_smId,_name,_description,_unit,_price,_date,_expiryDate,true) */\n      dup1\n      dup1\n      0x1f\n      add\n      0x20\n      dup1\n      swap2\n      div\n      mul\n      0x20\n      add\n      mload(0x40)\n      swap1\n      dup2\n      add\n      0x40\n      mstore\n      dup1\n      swap4\n      swap3\n      swap2\n      swap1\n      dup2\n      dup2\n      mstore\n      0x20\n      add\n      dup4\n      dup4\n      dup1\n      dup3\n      dup5\n      calldatacopy\n      0x00\n      dup2\n      dup5\n      add\n      mstore\n      not(0x1f)\n      0x1f\n      dup3\n      add\n      and\n      swap1\n      pop\n      dup1\n      dup4\n      add\n      swap3\n      pop\n      pop\n      pop\n      pop\n      pop\n      pop\n      pop\n      dup2\n      mstore\n      0x20\n      add\n        /* \"contracts/manufacturerProduct.sol\":1624:1629  _unit */\n      dup6\n        /* \"contracts/manufacturerProduct.sol\":1562:1660  manufacturerProduct(_supplierAddress,_smId,_name,_description,_unit,_price,_date,_expiryDate,true) */\n      0xffffffffffffffffffffffffffffffff\n      and\n      dup2\n      mstore\n      0x20\n      add\n        /* \"contracts/manufacturerProduct.sol\":1630:1636  _price */\n      dup5\n        /* \"contracts/manufacturerProduct.sol\":1562:1660  manufacturerProduct(_supplierAddress,_smId,_name,_description,_unit,_price,_date,_expiryDate,true) */\n      0xffffffffffffffffffffffffffffffff\n      and\n      dup2\n      mstore\n      0x20\n      add\n        /* \"contracts/manufacturerProduct.sol\":1637:1642  _date */\n      dup4\n        /* \"contracts/manufacturerProduct.sol\":1562:1660  manufacturerProduct(_supplierAddress,_smId,_name,_description,_unit,_price,_date,_expiryDate,true) */\n      0xffffffff\n      and\n      dup2\n      mstore\n      0x20\n      add\n        /* \"contracts/manufacturerProduct.sol\":1643:1654  _expiryDate */\n      dup3\n        /* \"contracts/manufacturerProduct.sol\":1562:1660  manufacturerProduct(_supplierAddress,_smId,_name,_description,_unit,_price,_date,_expiryDate,true) */\n      0xffffffff\n      and\n      dup2\n      mstore\n      0x20\n      add\n        /* \"contracts/manufacturerProduct.sol\":1655:1659  true */\n      0x01\n        /* \"contracts/manufacturerProduct.sol\":1562:1660  manufacturerProduct(_supplierAddress,_smId,_name,_description,_unit,_price,_date,_expiryDate,true) */\n      iszero\n      iszero\n      dup2\n      mstore\n      pop\n        /* \"contracts/manufacturerProduct.sol\":1516:1553  manufacturerProductsIdToStructMapping */\n      0x01\n        /* \"contracts/manufacturerProduct.sol\":1516:1559  manufacturerProductsIdToStructMapping[mpId] */\n      0x00\n        /* \"contracts/manufacturerProduct.sol\":1554:1558  mpId */\n      dup1\n      sload\n        /* \"contracts/manufacturerProduct.sol\":1516:1559  manufacturerProductsIdToStructMapping[mpId] */\n      dup2\n      mstore\n      0x20\n      add\n      swap1\n      dup2\n      mstore\n      0x20\n      add\n      0x00\n      keccak256\n        /* \"contracts/manufacturerProduct.sol\":1516:1660  manufacturerProductsIdToStructMapping[mpId] = manufacturerProduct(_supplierAddress,_smId,_name,_description,_unit,_price,_date,_expiryDate,true) */\n      0x00\n      dup3\n      add\n      mload\n      dup2\n      0x00\n      add\n      swap1\n      dup1\n      mload\n      swap1\n      0x20\n      add\n      swap1\n      tag_54\n      swap3\n      swap2\n      swap1\n      tag_55\n      jump\t// in\n    tag_54:\n      pop\n      0x20\n      dup3\n      add\n      mload\n      dup2\n      0x01\n      add\n      swap1\n      dup1\n      mload\n      swap1\n      0x20\n      add\n      swap1\n      tag_56\n      swap3\n      swap2\n      swap1\n      tag_57\n      jump\t// in\n    tag_56:\n      pop\n      0x40\n      dup3\n      add\n      mload\n      dup2\n      0x02\n      add\n      swap1\n      dup2\n      tag_58\n      swap2\n      swap1\n      tag_59\n      jump\t// in\n    tag_58:\n      pop\n      0x60\n      dup3\n      add\n      mload\n      dup2\n      0x03\n      add\n      swap1\n      dup2\n      tag_60\n      swap2\n      swap1\n      tag_59\n      jump\t// in\n    tag_60:\n      pop\n      0x80\n      dup3\n      add\n      mload\n      dup2\n      0x04\n      add\n      exp(0x0100, 0x00)\n      dup2\n      sload\n      dup2\n      0xffffffffffffffffffffffffffffffff\n      mul\n      not\n      and\n      swap1\n      dup4\n      0xffffffffffffffffffffffffffffffff\n      and\n      mul\n      or\n      swap1\n      sstore\n      pop\n      0xa0\n      dup3\n      add\n      mload\n      dup2\n      0x04\n      add\n      exp(0x0100, 0x10)\n      dup2\n      sload\n      dup2\n      0xffffffffffffffffffffffffffffffff\n      mul\n      not\n      and\n      swap1\n      dup4\n      0xffffffffffffffffffffffffffffffff\n      and\n      mul\n      or\n      swap1\n      sstore\n      pop\n      0xc0\n      dup3\n      add\n      mload\n      dup2\n      0x05\n      add\n      exp(0x0100, 0x00)\n      dup2\n      sload\n      dup2\n      0xffffffff\n      mul\n      not\n      and\n      swap1\n      dup4\n      0xffffffff\n      and\n      mul\n      or\n      swap1\n      sstore\n      pop\n      0xe0\n      dup3\n      add\n      mload\n      dup2\n      0x05\n      add\n      exp(0x0100, 0x04)\n      dup2\n      sload\n      dup2\n      0xffffffff\n      mul\n      not\n      and\n      swap1\n      dup4\n      0xffffffff\n      and\n      mul\n      or\n      swap1\n      sstore\n      pop\n      0x0100\n      dup3\n      add\n      mload\n      dup2\n      0x05\n      add\n      exp(0x0100, 0x08)\n      dup2\n      sload\n      dup2\n      0xff\n      mul\n      not\n      and\n      swap1\n      dup4\n      iszero\n      iszero\n      mul\n      or\n      swap1\n      sstore\n      pop\n      swap1\n      pop\n      pop\n        /* \"contracts/manufacturerProduct.sol\":1671:1709  manufacturerAddressToproductsIdMapping */\n      0x02\n        /* \"contracts/manufacturerProduct.sol\":1671:1721  manufacturerAddressToproductsIdMapping[msg.sender] */\n      0x00\n        /* \"contracts/manufacturerProduct.sol\":1710:1720  msg.sender */\n      caller\n        /* \"contracts/manufacturerProduct.sol\":1671:1721  manufacturerAddressToproductsIdMapping[msg.sender] */\n      0xffffffffffffffffffffffffffffffffffffffff\n      and\n      0xffffffffffffffffffffffffffffffffffffffff\n      and\n      dup2\n      mstore\n      0x20\n      add\n      swap1\n      dup2\n      mstore\n      0x20\n      add\n      0x00\n      keccak256\n        /* \"contracts/manufacturerProduct.sol\":1727:1731  mpId */\n      sload(0x00)\n        /* \"contracts/manufacturerProduct.sol\":1671:1732  manufacturerAddressToproductsIdMapping[msg.sender].push(mpId) */\n      swap1\n      dup1\n      0x01\n      dup2\n      sload\n      add\n      dup1\n      dup3\n      sstore\n      dup1\n      swap2\n      pop\n      pop\n      0x01\n      swap1\n      sub\n      swap1\n      0x00\n      mstore\n      keccak256(0x00, 0x20)\n      add\n      0x00\n      swap1\n      swap2\n      swap1\n      swap2\n      swap1\n      swap2\n      pop\n      sstore\n        /* \"contracts/manufacturerProduct.sol\":1776:1780  mpId */\n      sload(0x00)\n        /* \"contracts/manufacturerProduct.sol\":1748:1854  eventAddManufacturerProduct(mpId,_supplierAddress,_smId,_name,_description,_unit,_price,_date,_expiryDate) */\n      0x0e20c89151faf0b5dda54ebc9d15340d8f36e022eaab7561945a997b339fc56e\n        /* \"contracts/manufacturerProduct.sol\":1781:1797  _supplierAddress */\n      dup12\n        /* \"contracts/manufacturerProduct.sol\":1798:1803  _smId */\n      dup12\n        /* \"contracts/manufacturerProduct.sol\":1804:1809  _name */\n      dup12\n      dup12\n        /* \"contracts/manufacturerProduct.sol\":1810:1822  _description */\n      dup12\n      dup12\n        /* \"contracts/manufacturerProduct.sol\":1823:1828  _unit */\n      dup12\n        /* \"contracts/manufacturerProduct.sol\":1829:1835  _price */\n      dup12\n        /* \"contracts/manufacturerProduct.sol\":1836:1841  _date */\n      dup12\n        /* \"contracts/manufacturerProduct.sol\":1842:1853  _expiryDate */\n      dup12\n        /* \"contracts/manufacturerProduct.sol\":1748:1854  eventAddManufacturerProduct(mpId,_supplierAddress,_smId,_name,_description,_unit,_price,_date,_expiryDate) */\n      mload(0x40)\n      tag_62\n      swap11\n      swap10\n      swap9\n      swap8\n      swap7\n      swap6\n      swap5\n      swap4\n      swap3\n      swap2\n      swap1\n      tag_63\n      jump\t// in\n    tag_62:\n      mload(0x40)\n      dup1\n      swap2\n      sub\n      swap1\n      log2\n        /* \"contracts/manufacturerProduct.sol\":1865:1869  mpId */\n      0x00\n      dup1\n        /* \"contracts/manufacturerProduct.sol\":1865:1871  mpId++ */\n      dup2\n      sload\n      dup1\n      swap3\n      swap2\n      swap1\n      tag_64\n      swap1\n      tag_65\n      jump\t// in\n    tag_64:\n      swap2\n      swap1\n      pop\n      sstore\n      pop\n        /* \"contracts/manufacturerProduct.sol\":1207:1879  function addManufacturerProduct(... */\n      pop\n      pop\n      pop\n      pop\n      pop\n      pop\n      pop\n      pop\n      pop\n      pop\n      jump\t// out\n        /* \"contracts/manufacturerProduct.sol\":630:702  mapping(address => uint[]) public manufacturerAddressToproductsIdMapping */\n    tag_23:\n      mstore(0x20, 0x02)\n      dup2\n      0x00\n      mstore\n      keccak256(0x00, 0x40)\n      dup2\n      dup2\n      sload\n      dup2\n      lt\n      tag_66\n      jumpi\n      0x00\n      dup1\n      revert\n    tag_66:\n      swap1\n      0x00\n      mstore\n      keccak256(0x00, 0x20)\n      add\n      0x00\n      swap2\n      pop\n      swap2\n      pop\n      pop\n      sload\n      dup2\n      jump\t// out\n        /* \"contracts/manufacturerProduct.sol\":2789:3302  function getAllProductsOfManufacturer(address _manufacturerAddress) public view returns(manufacturerProduct[] memory)... */\n    tag_29:\n        /* \"contracts/manufacturerProduct.sol\":2877:2905  manufacturerProduct[] memory */\n      0x60\n        /* \"contracts/manufacturerProduct.sol\":2923:2947  uint[] memory productIds */\n      0x00\n        /* \"contracts/manufacturerProduct.sol\":2949:2987  manufacturerAddressToproductsIdMapping */\n      0x02\n        /* \"contracts/manufacturerProduct.sol\":2949:3009  manufacturerAddressToproductsIdMapping[_manufacturerAddress] */\n      0x00\n        /* \"contracts/manufacturerProduct.sol\":2988:3008  _manufacturerAddress */\n      dup5\n        /* \"contracts/manufacturerProduct.sol\":2949:3009  manufacturerAddressToproductsIdMapping[_manufacturerAddress] */\n      0xffffffffffffffffffffffffffffffffffffffff\n      and\n      0xffffffffffffffffffffffffffffffffffffffff\n      and\n      dup2\n      mstore\n      0x20\n      add\n      swap1\n      dup2\n      mstore\n      0x20\n      add\n      0x00\n      keccak256\n        /* \"contracts/manufacturerProduct.sol\":2923:3009  uint[] memory productIds= manufacturerAddressToproductsIdMapping[_manufacturerAddress] */\n      dup1\n      sload\n      dup1\n      0x20\n      mul\n      0x20\n      add\n      mload(0x40)\n      swap1\n      dup2\n      add\n      0x40\n      mstore\n      dup1\n      swap3\n      swap2\n      swap1\n      dup2\n      dup2\n      mstore\n      0x20\n      add\n      dup3\n      dup1\n      sload\n      dup1\n      iszero\n      tag_69\n      jumpi\n      0x20\n      mul\n      dup3\n      add\n      swap2\n      swap1\n      0x00\n      mstore\n      keccak256(0x00, 0x20)\n      swap1\n    tag_70:\n      dup2\n      sload\n      dup2\n      mstore\n      0x20\n      add\n      swap1\n      0x01\n      add\n      swap1\n      dup1\n      dup4\n      gt\n      tag_70\n      jumpi\n    tag_69:\n      pop\n      pop\n      pop\n      pop\n      pop\n      swap1\n      pop\n        /* \"contracts/manufacturerProduct.sol\":3020:3062  manufacturerProduct[] memory ManufacturerP */\n      0x00\n        /* \"contracts/manufacturerProduct.sol\":3091:3101  productIds */\n      dup2\n        /* \"contracts/manufacturerProduct.sol\":3091:3108  productIds.length */\n      mload\n        /* \"contracts/manufacturerProduct.sol\":3065:3109  new manufacturerProduct[](productIds.length) */\n      0xffffffffffffffff\n      dup2\n      gt\n      iszero\n      tag_71\n      jumpi\n      tag_72\n      tag_73\n      jump\t// in\n    tag_72:\n    tag_71:\n      mload(0x40)\n      swap1\n      dup1\n      dup3\n      mstore\n      dup1\n      0x20\n      mul\n      0x20\n      add\n      dup3\n      add\n      0x40\n      mstore\n      dup1\n      iszero\n      tag_74\n      jumpi\n      dup2\n      0x20\n      add\n    tag_75:\n      tag_76\n      tag_77\n      jump\t// in\n    tag_76:\n      dup2\n      mstore\n      0x20\n      add\n      swap1\n      0x01\n      swap1\n      sub\n      swap1\n      dup2\n      tag_75\n      jumpi\n      swap1\n      pop\n    tag_74:\n      pop\n        /* \"contracts/manufacturerProduct.sol\":3020:3109  manufacturerProduct[] memory ManufacturerP = new manufacturerProduct[](productIds.length) */\n      swap1\n      pop\n        /* \"contracts/manufacturerProduct.sol\":3124:3130  uint i */\n      0x00\n        /* \"contracts/manufacturerProduct.sol\":3120:3264  for(uint i=0;i<productIds.length;i++)... */\n    tag_78:\n        /* \"contracts/manufacturerProduct.sol\":3135:3145  productIds */\n      dup3\n        /* \"contracts/manufacturerProduct.sol\":3135:3152  productIds.length */\n      mload\n        /* \"contracts/manufacturerProduct.sol\":3133:3134  i */\n      dup2\n        /* \"contracts/manufacturerProduct.sol\":3133:3152  i<productIds.length */\n      lt\n        /* \"contracts/manufacturerProduct.sol\":3120:3264  for(uint i=0;i<productIds.length;i++)... */\n      iszero\n      tag_79\n      jumpi\n        /* \"contracts/manufacturerProduct.sol\":3200:3237  manufacturerProductsIdToStructMapping */\n      0x01\n        /* \"contracts/manufacturerProduct.sol\":3200:3252  manufacturerProductsIdToStructMapping[productIds[i]] */\n      0x00\n        /* \"contracts/manufacturerProduct.sol\":3238:3248  productIds */\n      dup5\n        /* \"contracts/manufacturerProduct.sol\":3249:3250  i */\n      dup4\n        /* \"contracts/manufacturerProduct.sol\":3238:3251  productIds[i] */\n      dup2\n      mload\n      dup2\n      lt\n      tag_81\n      jumpi\n      tag_82\n      tag_83\n      jump\t// in\n    tag_82:\n    tag_81:\n      0x20\n      mul\n      0x20\n      add\n      add\n      mload\n        /* \"contracts/manufacturerProduct.sol\":3200:3252  manufacturerProductsIdToStructMapping[productIds[i]] */\n      dup2\n      mstore\n      0x20\n      add\n      swap1\n      dup2\n      mstore\n      0x20\n      add\n      0x00\n      keccak256\n        /* \"contracts/manufacturerProduct.sol\":3182:3252  ManufacturerP[i] =manufacturerProductsIdToStructMapping[productIds[i]] */\n      mload(0x40)\n      dup1\n      0x0120\n      add\n      0x40\n      mstore\n      swap1\n      dup2\n      0x00\n      dup3\n      add\n      dup1\n      sload\n      dup1\n      0x20\n      mul\n      0x20\n      add\n      mload(0x40)\n      swap1\n      dup2\n      add\n      0x40\n      mstore\n      dup1\n      swap3\n      swap2\n      swap1\n      dup2\n      dup2\n      mstore\n      0x20\n      add\n      dup3\n      dup1\n      sload\n      dup1\n      iszero\n      tag_84\n      jumpi\n      0x20\n      mul\n      dup3\n      add\n      swap2\n      swap1\n      0x00\n      mstore\n      keccak256(0x00, 0x20)\n      swap1\n    tag_85:\n      dup2\n      0x00\n      swap1\n      sload\n      swap1\n      0x0100\n      exp\n      swap1\n      div\n      0xffffffffffffffffffffffffffffffffffffffff\n      and\n      0xffffffffffffffffffffffffffffffffffffffff\n      and\n      dup2\n      mstore\n      0x20\n      add\n      swap1\n      0x01\n      add\n      swap1\n      dup1\n      dup4\n      gt\n      tag_85\n      jumpi\n    tag_84:\n      pop\n      pop\n      pop\n      pop\n      pop\n      dup2\n      mstore\n      0x20\n      add\n      0x01\n      dup3\n      add\n      dup1\n      sload\n      dup1\n      0x20\n      mul\n      0x20\n      add\n      mload(0x40)\n      swap1\n      dup2\n      add\n      0x40\n      mstore\n      dup1\n      swap3\n      swap2\n      swap1\n      dup2\n      dup2\n      mstore\n      0x20\n      add\n      dup3\n      dup1\n      sload\n      dup1\n      iszero\n      tag_86\n      jumpi\n      0x20\n      mul\n      dup3\n      add\n      swap2\n      swap1\n      0x00\n      mstore\n      keccak256(0x00, 0x20)\n      swap1\n    tag_87:\n      dup2\n      sload\n      dup2\n      mstore\n      0x20\n      add\n      swap1\n      0x01\n      add\n      swap1\n      dup1\n      dup4\n      gt\n      tag_87\n      jumpi\n    tag_86:\n      pop\n      pop\n      pop\n      pop\n      pop\n      dup2\n      mstore\n      0x20\n      add\n      0x02\n      dup3\n      add\n      dup1\n      sload\n      tag_88\n      swap1\n      tag_89\n      jump\t// in\n    tag_88:\n      dup1\n      0x1f\n      add\n      0x20\n      dup1\n      swap2\n      div\n      mul\n      0x20\n      add\n      mload(0x40)\n      swap1\n      dup2\n      add\n      0x40\n      mstore\n      dup1\n      swap3\n      swap2\n      swap1\n      dup2\n      dup2\n      mstore\n      0x20\n      add\n      dup3\n      dup1\n      sload\n      tag_90\n      swap1\n      tag_89\n      jump\t// in\n    tag_90:\n      dup1\n      iszero\n      tag_91\n      jumpi\n      dup1\n      0x1f\n      lt\n      tag_92\n      jumpi\n      0x0100\n      dup1\n      dup4\n      sload\n      div\n      mul\n      dup4\n      mstore\n      swap2\n      0x20\n      add\n      swap2\n      jump(tag_91)\n    tag_92:\n      dup3\n      add\n      swap2\n      swap1\n      0x00\n      mstore\n      keccak256(0x00, 0x20)\n      swap1\n    tag_93:\n      dup2\n      sload\n      dup2\n      mstore\n      swap1\n      0x01\n      add\n      swap1\n      0x20\n      add\n      dup1\n      dup4\n      gt\n      tag_93\n      jumpi\n      dup3\n      swap1\n      sub\n      0x1f\n      and\n      dup3\n      add\n      swap2\n    tag_91:\n      pop\n      pop\n      pop\n      pop\n      pop\n      dup2\n      mstore\n      0x20\n      add\n      0x03\n      dup3\n      add\n      dup1\n      sload\n      tag_94\n      swap1\n      tag_89\n      jump\t// in\n    tag_94:\n      dup1\n      0x1f\n      add\n      0x20\n      dup1\n      swap2\n      div\n      mul\n      0x20\n      add\n      mload(0x40)\n      swap1\n      dup2\n      add\n      0x40\n      mstore\n      dup1\n      swap3\n      swap2\n      swap1\n      dup2\n      dup2\n      mstore\n      0x20\n      add\n      dup3\n      dup1\n      sload\n      tag_95\n      swap1\n      tag_89\n      jump\t// in\n    tag_95:\n      dup1\n      iszero\n      tag_96\n      jumpi\n      dup1\n      0x1f\n      lt\n      tag_97\n      jumpi\n      0x0100\n      dup1\n      dup4\n      sload\n      div\n      mul\n      dup4\n      mstore\n      swap2\n      0x20\n      add\n      swap2\n      jump(tag_96)\n    tag_97:\n      dup3\n      add\n      swap2\n      swap1\n      0x00\n      mstore\n      keccak256(0x00, 0x20)\n      swap1\n    tag_98:\n      dup2\n      sload\n      dup2\n      mstore\n      swap1\n      0x01\n      add\n      swap1\n      0x20\n      add\n      dup1\n      dup4\n      gt\n      tag_98\n      jumpi\n      dup3\n      swap1\n      sub\n      0x1f\n      and\n      dup3\n      add\n      swap2\n    tag_96:\n      pop\n      pop\n      pop\n      pop\n      pop\n      dup2\n      mstore\n      0x20\n      add\n      0x04\n      dup3\n      add\n      0x00\n      swap1\n      sload\n      swap1\n      0x0100\n      exp\n      swap1\n      div\n      0xffffffffffffffffffffffffffffffff\n      and\n      0xffffffffffffffffffffffffffffffff\n      and\n      0xffffffffffffffffffffffffffffffff\n      and\n      dup2\n      mstore\n      0x20\n      add\n      0x04\n      dup3\n      add\n      0x10\n      swap1\n      sload\n      swap1\n      0x0100\n      exp\n      swap1\n      div\n      0xffffffffffffffffffffffffffffffff\n      and\n      0xffffffffffffffffffffffffffffffff\n      and\n      0xffffffffffffffffffffffffffffffff\n      and\n      dup2\n      mstore\n      0x20\n      add\n      0x05\n      dup3\n      add\n      0x00\n      swap1\n      sload\n      swap1\n      0x0100\n      exp\n      swap1\n      div\n      0xffffffff\n      and\n      0xffffffff\n      and\n      0xffffffff\n      and\n      dup2\n      mstore\n      0x20\n      add\n      0x05\n      dup3\n      add\n      0x04\n      swap1\n      sload\n      swap1\n      0x0100\n      exp\n      swap1\n      div\n      0xffffffff\n      and\n      0xffffffff\n      and\n      0xffffffff\n      and\n      dup2\n      mstore\n      0x20\n      add\n      0x05\n      dup3\n      add\n      0x08\n      swap1\n      sload\n      swap1\n      0x0100\n      exp\n      swap1\n      div\n      0xff\n      and\n      iszero\n      iszero\n      iszero\n      iszero\n      dup2\n      mstore\n      pop\n      pop\n        /* \"contracts/manufacturerProduct.sol\":3182:3195  ManufacturerP */\n      dup3\n        /* \"contracts/manufacturerProduct.sol\":3196:3197  i */\n      dup3\n        /* \"contracts/manufacturerProduct.sol\":3182:3198  ManufacturerP[i] */\n      dup2\n      mload\n      dup2\n      lt\n      tag_99\n      jumpi\n      tag_100\n      tag_83\n      jump\t// in\n    tag_100:\n    tag_99:\n      0x20\n      mul\n      0x20\n      add\n      add\n        /* \"contracts/manufacturerProduct.sol\":3182:3252  ManufacturerP[i] =manufacturerProductsIdToStructMapping[productIds[i]] */\n      dup2\n      swap1\n      mstore\n      pop\n        /* \"contracts/manufacturerProduct.sol\":3153:3156  i++ */\n      dup1\n      dup1\n      tag_101\n      swap1\n      tag_65\n      jump\t// in\n    tag_101:\n      swap2\n      pop\n      pop\n        /* \"contracts/manufacturerProduct.sol\":3120:3264  for(uint i=0;i<productIds.length;i++)... */\n      jump(tag_78)\n    tag_79:\n      pop\n        /* \"contracts/manufacturerProduct.sol\":3281:3294  ManufacturerP */\n      dup1\n        /* \"contracts/manufacturerProduct.sol\":3274:3294  return ManufacturerP */\n      swap3\n      pop\n      pop\n      pop\n        /* \"contracts/manufacturerProduct.sol\":2789:3302  function getAllProductsOfManufacturer(address _manufacturerAddress) public view returns(manufacturerProduct[] memory)... */\n      swap2\n      swap1\n      pop\n      jump\t// out\n        /* \"contracts/manufacturerProduct.sol\":471:552  mapping(uint => manufacturerProduct) public manufacturerProductsIdToStructMapping */\n    tag_35:\n      mstore(0x20, 0x01)\n      dup1\n      0x00\n      mstore\n      keccak256(0x00, 0x40)\n      0x00\n      swap2\n      pop\n      swap1\n      pop\n      dup1\n      0x02\n      add\n      dup1\n      sload\n      tag_102\n      swap1\n      tag_89\n      jump\t// in\n    tag_102:\n      dup1\n      0x1f\n      add\n      0x20\n      dup1\n      swap2\n      div\n      mul\n      0x20\n      add\n      mload(0x40)\n      swap1\n      dup2\n      add\n      0x40\n      mstore\n      dup1\n      swap3\n      swap2\n      swap1\n      dup2\n      dup2\n      mstore\n      0x20\n      add\n      dup3\n      dup1\n      sload\n      tag_103\n      swap1\n      tag_89\n      jump\t// in\n    tag_103:\n      dup1\n      iszero\n      tag_104\n      jumpi\n      dup1\n      0x1f\n      lt\n      tag_105\n      jumpi\n      0x0100\n      dup1\n      dup4\n      sload\n      div\n      mul\n      dup4\n      mstore\n      swap2\n      0x20\n      add\n      swap2\n      jump(tag_104)\n    tag_105:\n      dup3\n      add\n      swap2\n      swap1\n      0x00\n      mstore\n      keccak256(0x00, 0x20)\n      swap1\n    tag_106:\n      dup2\n      sload\n      dup2\n      mstore\n      swap1\n      0x01\n      add\n      swap1\n      0x20\n      add\n      dup1\n      dup4\n      gt\n      tag_106\n      jumpi\n      dup3\n      swap1\n      sub\n      0x1f\n      and\n      dup3\n      add\n      swap2\n    tag_104:\n      pop\n      pop\n      pop\n      pop\n      pop\n      swap1\n      dup1\n      0x03\n      add\n      dup1\n      sload\n      tag_107\n      swap1\n      tag_89\n      jump\t// in\n    tag_107:\n      dup1\n      0x1f\n      add\n      0x20\n      dup1\n      swap2\n      div\n      mul\n      0x20\n      add\n      mload(0x40)\n      swap1\n      dup2\n      add\n      0x40\n      mstore\n      dup1\n      swap3\n      swap2\n      swap1\n      dup2\n      dup2\n      mstore\n      0x20\n      add\n      dup3\n      dup1\n      sload\n      tag_108\n      swap1\n      tag_89\n      jump\t// in\n    tag_108:\n      dup1\n      iszero\n      tag_109\n      jumpi\n      dup1\n      0x1f\n      lt\n      tag_110\n      jumpi\n      0x0100\n      dup1\n      dup4\n      sload\n      div\n      mul\n      dup4\n      mstore\n      swap2\n      0x20\n      add\n      swap2\n      jump(tag_109)\n    tag_110:\n      dup3\n      add\n      swap2\n      swap1\n      0x00\n      mstore\n      keccak256(0x00, 0x20)\n      swap1\n    tag_111:\n      dup2\n      sload\n      dup2\n      mstore\n      swap1\n      0x01\n      add\n      swap1\n      0x20\n      add\n      dup1\n      dup4\n      gt\n      tag_111\n      jumpi\n      dup3\n      swap1\n      sub\n      0x1f\n      and\n      dup3\n      add\n      swap2\n    tag_109:\n      pop\n      pop\n      pop\n      pop\n      pop\n      swap1\n      dup1\n      0x04\n      add\n      0x00\n      swap1\n      sload\n      swap1\n      0x0100\n      exp\n      swap1\n      div\n      0xffffffffffffffffffffffffffffffff\n      and\n      swap1\n      dup1\n      0x04\n      add\n      0x10\n      swap1\n      sload\n      swap1\n      0x0100\n      exp\n      swap1\n      div\n      0xffffffffffffffffffffffffffffffff\n      and\n      swap1\n      dup1\n      0x05\n      add\n      0x00\n      swap1\n      sload\n      swap1\n      0x0100\n      exp\n      swap1\n      div\n      0xffffffff\n      and\n      swap1\n      dup1\n      0x05\n      add\n      0x04\n      swap1\n      sload\n      swap1\n      0x0100\n      exp\n      swap1\n      div\n      0xffffffff\n      and\n      swap1\n      dup1\n      0x05\n      add\n      0x08\n      swap1\n      sload\n      swap1\n      0x0100\n      exp\n      swap1\n      div\n      0xff\n      and\n      swap1\n      pop\n      dup8\n      jump\t// out\n        /* \"contracts/manufacturerProduct.sol\":3403:3598  function deleteManufacturerProduct(uint _mpId)external override{... */\n    tag_40:\n        /* \"contracts/manufacturerProduct.sol\":3532:3537  false */\n      0x00\n        /* \"contracts/manufacturerProduct.sol\":3477:3514  manufacturerProductsIdToStructMapping */\n      0x01\n        /* \"contracts/manufacturerProduct.sol\":3477:3521  manufacturerProductsIdToStructMapping[_mpId] */\n      0x00\n        /* \"contracts/manufacturerProduct.sol\":3515:3520  _mpId */\n      dup4\n        /* \"contracts/manufacturerProduct.sol\":3477:3521  manufacturerProductsIdToStructMapping[_mpId] */\n      dup2\n      mstore\n      0x20\n      add\n      swap1\n      dup2\n      mstore\n      0x20\n      add\n      0x00\n      keccak256\n        /* \"contracts/manufacturerProduct.sol\":3477:3531  manufacturerProductsIdToStructMapping[_mpId].mp_status */\n      0x05\n      add\n      0x08\n        /* \"contracts/manufacturerProduct.sol\":3477:3537  manufacturerProductsIdToStructMapping[_mpId].mp_status=false */\n      0x0100\n      exp\n      dup2\n      sload\n      dup2\n      0xff\n      mul\n      not\n      and\n      swap1\n      dup4\n      iszero\n      iszero\n      mul\n      or\n      swap1\n      sstore\n      pop\n        /* \"contracts/manufacturerProduct.sol\":3553:3590  eventDeleteManufacturerProduct(_mpId) */\n      0xbe5aa4247333e0978e80edfd1266e28e6cba6ea134522f795973c7133bc43174\n        /* \"contracts/manufacturerProduct.sol\":3584:3589  _mpId */\n      dup2\n        /* \"contracts/manufacturerProduct.sol\":3553:3590  eventDeleteManufacturerProduct(_mpId) */\n      mload(0x40)\n      tag_113\n      swap2\n      swap1\n      tag_25\n      jump\t// in\n    tag_113:\n      mload(0x40)\n      dup1\n      swap2\n      sub\n      swap1\n      log1\n        /* \"contracts/manufacturerProduct.sol\":3403:3598  function deleteManufacturerProduct(uint _mpId)external override{... */\n      pop\n      jump\t// out\n        /* \"contracts/manufacturerProduct.sol\":1950:2234  function updateManufacturerProductUints(uint _mpId, uint128 _quantity) public override{... */\n    tag_44:\n        /* \"contracts/manufacturerProduct.sol\":2103:2112  _quantity */\n      dup1\n        /* \"contracts/manufacturerProduct.sol\":2047:2084  manufacturerProductsIdToStructMapping */\n      0x01\n        /* \"contracts/manufacturerProduct.sol\":2047:2091  manufacturerProductsIdToStructMapping[_mpId] */\n      0x00\n        /* \"contracts/manufacturerProduct.sol\":2085:2090  _mpId */\n      dup5\n        /* \"contracts/manufacturerProduct.sol\":2047:2091  manufacturerProductsIdToStructMapping[_mpId] */\n      dup2\n      mstore\n      0x20\n      add\n      swap1\n      dup2\n      mstore\n      0x20\n      add\n      0x00\n      keccak256\n        /* \"contracts/manufacturerProduct.sol\":2047:2099  manufacturerProductsIdToStructMapping[_mpId].mp_unit */\n      0x04\n      add\n      0x00\n        /* \"contracts/manufacturerProduct.sol\":2047:2112  manufacturerProductsIdToStructMapping[_mpId].mp_unit -= _quantity */\n      dup3\n      dup3\n      dup3\n      swap1\n      sload\n      swap1\n      0x0100\n      exp\n      swap1\n      div\n      0xffffffffffffffffffffffffffffffff\n      and\n      tag_115\n      swap2\n      swap1\n      tag_116\n      jump\t// in\n    tag_115:\n      swap3\n      pop\n      0x0100\n      exp\n      dup2\n      sload\n      dup2\n      0xffffffffffffffffffffffffffffffff\n      mul\n      not\n      and\n      swap1\n      dup4\n      0xffffffffffffffffffffffffffffffff\n      and\n      mul\n      or\n      swap1\n      sstore\n      pop\n        /* \"contracts/manufacturerProduct.sol\":2166:2171  _mpId */\n      dup2\n        /* \"contracts/manufacturerProduct.sol\":2130:2226  eventUpdateManufacturerProductUints(_mpId, manufacturerProductsIdToStructMapping[_mpId].mp_unit) */\n      0x0cdf608777b7c369c17a854e339a0c861f903b381b92294555cd61b0c49f6cab\n        /* \"contracts/manufacturerProduct.sol\":2173:2210  manufacturerProductsIdToStructMapping */\n      0x01\n        /* \"contracts/manufacturerProduct.sol\":2173:2217  manufacturerProductsIdToStructMapping[_mpId] */\n      0x00\n        /* \"contracts/manufacturerProduct.sol\":2211:2216  _mpId */\n      dup6\n        /* \"contracts/manufacturerProduct.sol\":2173:2217  manufacturerProductsIdToStructMapping[_mpId] */\n      dup2\n      mstore\n      0x20\n      add\n      swap1\n      dup2\n      mstore\n      0x20\n      add\n      0x00\n      keccak256\n        /* \"contracts/manufacturerProduct.sol\":2173:2225  manufacturerProductsIdToStructMapping[_mpId].mp_unit */\n      0x04\n      add\n      0x00\n      swap1\n      sload\n      swap1\n      0x0100\n      exp\n      swap1\n      div\n      0xffffffffffffffffffffffffffffffff\n      and\n        /* \"contracts/manufacturerProduct.sol\":2130:2226  eventUpdateManufacturerProductUints(_mpId, manufacturerProductsIdToStructMapping[_mpId].mp_unit) */\n      mload(0x40)\n      tag_117\n      swap2\n      swap1\n      tag_118\n      jump\t// in\n    tag_117:\n      mload(0x40)\n      dup1\n      swap2\n      sub\n      swap1\n      log2\n        /* \"contracts/manufacturerProduct.sol\":1950:2234  function updateManufacturerProductUints(uint _mpId, uint128 _quantity) public override{... */\n      pop\n      pop\n      jump\t// out\n        /* \"contracts/manufacturerProduct.sol\":2523:2690  function getSingleManufacturerProduct(uint _mpId) public view returns(manufacturerProduct memory){... */\n    tag_47:\n        /* \"contracts/manufacturerProduct.sol\":2593:2619  manufacturerProduct memory */\n      tag_119\n      tag_77\n      jump\t// in\n    tag_119:\n        /* \"contracts/manufacturerProduct.sol\":2638:2675  manufacturerProductsIdToStructMapping */\n      0x01\n        /* \"contracts/manufacturerProduct.sol\":2638:2682  manufacturerProductsIdToStructMapping[_mpId] */\n      0x00\n        /* \"contracts/manufacturerProduct.sol\":2676:2681  _mpId */\n      dup4\n        /* \"contracts/manufacturerProduct.sol\":2638:2682  manufacturerProductsIdToStructMapping[_mpId] */\n      dup2\n      mstore\n      0x20\n      add\n      swap1\n      dup2\n      mstore\n      0x20\n      add\n      0x00\n      keccak256\n        /* \"contracts/manufacturerProduct.sol\":2631:2682  return manufacturerProductsIdToStructMapping[_mpId] */\n      mload(0x40)\n      dup1\n      0x0120\n      add\n      0x40\n      mstore\n      swap1\n      dup2\n      0x00\n      dup3\n      add\n      dup1\n      sload\n      dup1\n      0x20\n      mul\n      0x20\n      add\n      mload(0x40)\n      swap1\n      dup2\n      add\n      0x40\n      mstore\n      dup1\n      swap3\n      swap2\n      swap1\n      dup2\n      dup2\n      mstore\n      0x20\n      add\n      dup3\n      dup1\n      sload\n      dup1\n      iszero\n      tag_121\n      jumpi\n      0x20\n      mul\n      dup3\n      add\n      swap2\n      swap1\n      0x00\n      mstore\n      keccak256(0x00, 0x20)\n      swap1\n    tag_122:\n      dup2\n      0x00\n      swap1\n      sload\n      swap1\n      0x0100\n      exp\n      swap1\n      div\n      0xffffffffffffffffffffffffffffffffffffffff\n      and\n      0xffffffffffffffffffffffffffffffffffffffff\n      and\n      dup2\n      mstore\n      0x20\n      add\n      swap1\n      0x01\n      add\n      swap1\n      dup1\n      dup4\n      gt\n      tag_122\n      jumpi\n    tag_121:\n      pop\n      pop\n      pop\n      pop\n      pop\n      dup2\n      mstore\n      0x20\n      add\n      0x01\n      dup3\n      add\n      dup1\n      sload\n      dup1\n      0x20\n      mul\n      0x20\n      add\n      mload(0x40)\n      swap1\n      dup2\n      add\n      0x40\n      mstore\n      dup1\n      swap3\n      swap2\n      swap1\n      dup2\n      dup2\n      mstore\n      0x20\n      add\n      dup3\n      dup1\n      sload\n      dup1\n      iszero\n      tag_123\n      jumpi\n      0x20\n      mul\n      dup3\n      add\n      swap2\n      swap1\n      0x00\n      mstore\n      keccak256(0x00, 0x20)\n      swap1\n    tag_124:\n      dup2\n      sload\n      dup2\n      mstore\n      0x20\n      add\n      swap1\n      0x01\n      add\n      swap1\n      dup1\n      dup4\n      gt\n      tag_124\n      jumpi\n    tag_123:\n      pop\n      pop\n      pop\n      pop\n      pop\n      dup2\n      mstore\n      0x20\n      add\n      0x02\n      dup3\n      add\n      dup1\n      sload\n      tag_125\n      swap1\n      tag_89\n      jump\t// in\n    tag_125:\n      dup1\n      0x1f\n      add\n      0x20\n      dup1\n      swap2\n      div\n      mul\n      0x20\n      add\n      mload(0x40)\n      swap1\n      dup2\n      add\n      0x40\n      mstore\n      dup1\n      swap3\n      swap2\n      swap1\n      dup2\n      dup2\n      mstore\n      0x20\n      add\n      dup3\n      dup1\n      sload\n      tag_126\n      swap1\n      tag_89\n      jump\t// in\n    tag_126:\n      dup1\n      iszero\n      tag_127\n      jumpi\n      dup1\n      0x1f\n      lt\n      tag_128\n      jumpi\n      0x0100\n      dup1\n      dup4\n      sload\n      div\n      mul\n      dup4\n      mstore\n      swap2\n      0x20\n      add\n      swap2\n      jump(tag_127)\n    tag_128:\n      dup3\n      add\n      swap2\n      swap1\n      0x00\n      mstore\n      keccak256(0x00, 0x20)\n      swap1\n    tag_129:\n      dup2\n      sload\n      dup2\n      mstore\n      swap1\n      0x01\n      add\n      swap1\n      0x20\n      add\n      dup1\n      dup4\n      gt\n      tag_129\n      jumpi\n      dup3\n      swap1\n      sub\n      0x1f\n      and\n      dup3\n      add\n      swap2\n    tag_127:\n      pop\n      pop\n      pop\n      pop\n      pop\n      dup2\n      mstore\n      0x20\n      add\n      0x03\n      dup3\n      add\n      dup1\n      sload\n      tag_130\n      swap1\n      tag_89\n      jump\t// in\n    tag_130:\n      dup1\n      0x1f\n      add\n      0x20\n      dup1\n      swap2\n      div\n      mul\n      0x20\n      add\n      mload(0x40)\n      swap1\n      dup2\n      add\n      0x40\n      mstore\n      dup1\n      swap3\n      swap2\n      swap1\n      dup2\n      dup2\n      mstore\n      0x20\n      add\n      dup3\n      dup1\n      sload\n      tag_131\n      swap1\n      tag_89\n      jump\t// in\n    tag_131:\n      dup1\n      iszero\n      tag_132\n      jumpi\n      dup1\n      0x1f\n      lt\n      tag_133\n      jumpi\n      0x0100\n      dup1\n      dup4\n      sload\n      div\n      mul\n      dup4\n      mstore\n      swap2\n      0x20\n      add\n      swap2\n      jump(tag_132)\n    tag_133:\n      dup3\n      add\n      swap2\n      swap1\n      0x00\n      mstore\n      keccak256(0x00, 0x20)\n      swap1\n    tag_134:\n      dup2\n      sload\n      dup2\n      mstore\n      swap1\n      0x01\n      add\n      swap1\n      0x20\n      add\n      dup1\n      dup4\n      gt\n      tag_134\n      jumpi\n      dup3\n      swap1\n      sub\n      0x1f\n      and\n      dup3\n      add\n      swap2\n    tag_132:\n      pop\n      pop\n      pop\n      pop\n      pop\n      dup2\n      mstore\n      0x20\n      add\n      0x04\n      dup3\n      add\n      0x00\n      swap1\n      sload\n      swap1\n      0x0100\n      exp\n      swap1\n      div\n      0xffffffffffffffffffffffffffffffff\n      and\n      0xffffffffffffffffffffffffffffffff\n      and\n      0xffffffffffffffffffffffffffffffff\n      and\n      dup2\n      mstore\n      0x20\n      add\n      0x04\n      dup3\n      add\n      0x10\n      swap1\n      sload\n      swap1\n      0x0100\n      exp\n      swap1\n      div\n      0xffffffffffffffffffffffffffffffff\n      and\n      0xffffffffffffffffffffffffffffffff\n      and\n      0xffffffffffffffffffffffffffffffff\n      and\n      dup2\n      mstore\n      0x20\n      add\n      0x05\n      dup3\n      add\n      0x00\n      swap1\n      sload\n      swap1\n      0x0100\n      exp\n      swap1\n      div\n      0xffffffff\n      and\n      0xffffffff\n      and\n      0xffffffff\n      and\n      dup2\n      mstore\n      0x20\n      add\n      0x05\n      dup3\n      add\n      0x04\n      swap1\n      sload\n      swap1\n      0x0100\n      exp\n      swap1\n      div\n      0xffffffff\n      and\n      0xffffffff\n      and\n      0xffffffff\n      and\n      dup2\n      mstore\n      0x20\n      add\n      0x05\n      dup3\n      add\n      0x08\n      swap1\n      sload\n      swap1\n      0x0100\n      exp\n      swap1\n      div\n      0xff\n      and\n      iszero\n      iszero\n      iszero\n      iszero\n      dup2\n      mstore\n      pop\n      pop\n      swap1\n      pop\n        /* \"contracts/manufacturerProduct.sol\":2523:2690  function getSingleManufacturerProduct(uint _mpId) public view returns(manufacturerProduct memory){... */\n      swap2\n      swap1\n      pop\n      jump\t// out\n    tag_55:\n      dup3\n      dup1\n      sload\n      dup3\n      dup3\n      sstore\n      swap1\n      0x00\n      mstore\n      keccak256(0x00, 0x20)\n      swap1\n      dup2\n      add\n      swap3\n      dup3\n      iszero\n      tag_135\n      jumpi\n      swap2\n      0x20\n      mul\n      dup3\n      add\n    tag_136:\n      dup3\n      dup2\n      gt\n      iszero\n      tag_137\n      jumpi\n      dup3\n      mload\n      dup3\n      exp(0x0100, 0x00)\n      dup2\n      sload\n      dup2\n      0xffffffffffffffffffffffffffffffffffffffff\n      mul\n      not\n      and\n      swap1\n      dup4\n      0xffffffffffffffffffffffffffffffffffffffff\n      and\n      mul\n      or\n      swap1\n      sstore\n      pop\n      swap2\n      0x20\n      add\n      swap2\n      swap1\n      0x01\n      add\n      swap1\n      jump(tag_136)\n    tag_137:\n    tag_135:\n      pop\n      swap1\n      pop\n      tag_138\n      swap2\n      swap1\n      tag_139\n      jump\t// in\n    tag_138:\n      pop\n      swap1\n      jump\t// out\n    tag_57:\n      dup3\n      dup1\n      sload\n      dup3\n      dup3\n      sstore\n      swap1\n      0x00\n      mstore\n      keccak256(0x00, 0x20)\n      swap1\n      dup2\n      add\n      swap3\n      dup3\n      iszero\n      tag_140\n      jumpi\n      swap2\n      0x20\n      mul\n      dup3\n      add\n    tag_141:\n      dup3\n      dup2\n      gt\n      iszero\n      tag_142\n      jumpi\n      dup3\n      mload\n      dup3\n      sstore\n      swap2\n      0x20\n      add\n      swap2\n      swap1\n      0x01\n      add\n      swap1\n      jump(tag_141)\n    tag_142:\n    tag_140:\n      pop\n      swap1\n      pop\n      tag_143\n      swap2\n      swap1\n      tag_139\n      jump\t// in\n    tag_143:\n      pop\n      swap1\n      jump\t// out\n    tag_77:\n      mload(0x40)\n      dup1\n      0x0120\n      add\n      0x40\n      mstore\n      dup1\n      0x60\n      dup2\n      mstore\n      0x20\n      add\n      0x60\n      dup2\n      mstore\n      0x20\n      add\n      0x60\n      dup2\n      mstore\n      0x20\n      add\n      0x60\n      dup2\n      mstore\n      0x20\n      add\n      and(0xffffffffffffffffffffffffffffffff, 0x00)\n      dup2\n      mstore\n      0x20\n      add\n      and(0xffffffffffffffffffffffffffffffff, 0x00)\n      dup2\n      mstore\n      0x20\n      add\n      and(0xffffffff, 0x00)\n      dup2\n      mstore\n      0x20\n      add\n      and(0xffffffff, 0x00)\n      dup2\n      mstore\n      0x20\n      add\n      iszero(iszero(0x00))\n      dup2\n      mstore\n      pop\n      swap1\n      jump\t// out\n    tag_139:\n    tag_144:\n      dup1\n      dup3\n      gt\n      iszero\n      tag_145\n      jumpi\n      0x00\n      dup2\n      0x00\n      swap1\n      sstore\n      pop\n      0x01\n      add\n      jump(tag_144)\n    tag_145:\n      pop\n      swap1\n      jump\t// out\n        /* \"#utility.yul\":7:121   */\n    tag_146:\n        /* \"#utility.yul\":74:80   */\n      0x00\n        /* \"#utility.yul\":108:113   */\n      dup2\n        /* \"#utility.yul\":102:114   */\n      mload\n        /* \"#utility.yul\":92:114   */\n      swap1\n      pop\n        /* \"#utility.yul\":7:121   */\n      swap2\n      swap1\n      pop\n      jump\t// out\n        /* \"#utility.yul\":127:311   */\n    tag_147:\n        /* \"#utility.yul\":226:237   */\n      0x00\n        /* \"#utility.yul\":260:266   */\n      dup3\n        /* \"#utility.yul\":255:258   */\n      dup3\n        /* \"#utility.yul\":248:267   */\n      mstore\n        /* \"#utility.yul\":300:304   */\n      0x20\n        /* \"#utility.yul\":295:298   */\n      dup3\n        /* \"#utility.yul\":291:305   */\n      add\n        /* \"#utility.yul\":276:305   */\n      swap1\n      pop\n        /* \"#utility.yul\":127:311   */\n      swap3\n      swap2\n      pop\n      pop\n      jump\t// out\n        /* \"#utility.yul\":317:449   */\n    tag_148:\n        /* \"#utility.yul\":384:388   */\n      0x00\n        /* \"#utility.yul\":407:410   */\n      dup2\n        /* \"#utility.yul\":399:410   */\n      swap1\n      pop\n        /* \"#utility.yul\":437:441   */\n      0x20\n        /* \"#utility.yul\":432:435   */\n      dup3\n        /* \"#utility.yul\":428:442   */\n      add\n        /* \"#utility.yul\":420:442   */\n      swap1\n      pop\n        /* \"#utility.yul\":317:449   */\n      swap2\n      swap1\n      pop\n      jump\t// out\n        /* \"#utility.yul\":455:532   */\n    tag_149:\n        /* \"#utility.yul\":492:499   */\n      0x00\n        /* \"#utility.yul\":521:526   */\n      dup2\n        /* \"#utility.yul\":510:526   */\n      swap1\n      pop\n        /* \"#utility.yul\":455:532   */\n      swap2\n      swap1\n      pop\n      jump\t// out\n        /* \"#utility.yul\":538:646   */\n    tag_150:\n        /* \"#utility.yul\":615:639   */\n      tag_240\n        /* \"#utility.yul\":633:638   */\n      dup2\n        /* \"#utility.yul\":615:639   */\n      tag_149\n      jump\t// in\n    tag_240:\n        /* \"#utility.yul\":610:613   */\n      dup3\n        /* \"#utility.yul\":603:640   */\n      mstore\n        /* \"#utility.yul\":538:646   */\n      pop\n      pop\n      jump\t// out\n        /* \"#utility.yul\":652:831   */\n    tag_151:\n        /* \"#utility.yul\":721:731   */\n      0x00\n        /* \"#utility.yul\":742:788   */\n      tag_242\n        /* \"#utility.yul\":784:787   */\n      dup4\n        /* \"#utility.yul\":776:782   */\n      dup4\n        /* \"#utility.yul\":742:788   */\n      tag_150\n      jump\t// in\n    tag_242:\n        /* \"#utility.yul\":820:824   */\n      0x20\n        /* \"#utility.yul\":815:818   */\n      dup4\n        /* \"#utility.yul\":811:825   */\n      add\n        /* \"#utility.yul\":797:825   */\n      swap1\n      pop\n        /* \"#utility.yul\":652:831   */\n      swap3\n      swap2\n      pop\n      pop\n      jump\t// out\n        /* \"#utility.yul\":837:950   */\n    tag_152:\n        /* \"#utility.yul\":907:911   */\n      0x00\n        /* \"#utility.yul\":939:943   */\n      0x20\n        /* \"#utility.yul\":934:937   */\n      dup3\n        /* \"#utility.yul\":930:944   */\n      add\n        /* \"#utility.yul\":922:944   */\n      swap1\n      pop\n        /* \"#utility.yul\":837:950   */\n      swap2\n      swap1\n      pop\n      jump\t// out\n        /* \"#utility.yul\":986:1718   */\n    tag_153:\n        /* \"#utility.yul\":1105:1108   */\n      0x00\n        /* \"#utility.yul\":1134:1188   */\n      tag_245\n        /* \"#utility.yul\":1182:1187   */\n      dup3\n        /* \"#utility.yul\":1134:1188   */\n      tag_146\n      jump\t// in\n    tag_245:\n        /* \"#utility.yul\":1204:1290   */\n      tag_246\n        /* \"#utility.yul\":1283:1289   */\n      dup2\n        /* \"#utility.yul\":1278:1281   */\n      dup6\n        /* \"#utility.yul\":1204:1290   */\n      tag_147\n      jump\t// in\n    tag_246:\n        /* \"#utility.yul\":1197:1290   */\n      swap4\n      pop\n        /* \"#utility.yul\":1314:1370   */\n      tag_247\n        /* \"#utility.yul\":1364:1369   */\n      dup4\n        /* \"#utility.yul\":1314:1370   */\n      tag_148\n      jump\t// in\n    tag_247:\n        /* \"#utility.yul\":1393:1400   */\n      dup1\n        /* \"#utility.yul\":1424:1425   */\n      0x00\n        /* \"#utility.yul\":1409:1693   */\n    tag_248:\n        /* \"#utility.yul\":1434:1440   */\n      dup4\n        /* \"#utility.yul\":1431:1432   */\n      dup2\n        /* \"#utility.yul\":1428:1441   */\n      lt\n        /* \"#utility.yul\":1409:1693   */\n      iszero\n      tag_250\n      jumpi\n        /* \"#utility.yul\":1510:1516   */\n      dup2\n        /* \"#utility.yul\":1504:1517   */\n      mload\n        /* \"#utility.yul\":1537:1600   */\n      tag_251\n        /* \"#utility.yul\":1596:1599   */\n      dup9\n        /* \"#utility.yul\":1581:1594   */\n      dup3\n        /* \"#utility.yul\":1537:1600   */\n      tag_151\n      jump\t// in\n    tag_251:\n        /* \"#utility.yul\":1530:1600   */\n      swap8\n      pop\n        /* \"#utility.yul\":1623:1683   */\n      tag_252\n        /* \"#utility.yul\":1676:1682   */\n      dup4\n        /* \"#utility.yul\":1623:1683   */\n      tag_152\n      jump\t// in\n    tag_252:\n        /* \"#utility.yul\":1613:1683   */\n      swap3\n      pop\n        /* \"#utility.yul\":1469:1693   */\n      pop\n        /* \"#utility.yul\":1456:1457   */\n      0x01\n        /* \"#utility.yul\":1453:1454   */\n      dup2\n        /* \"#utility.yul\":1449:1458   */\n      add\n        /* \"#utility.yul\":1444:1458   */\n      swap1\n      pop\n        /* \"#utility.yul\":1409:1693   */\n      jump(tag_248)\n    tag_250:\n        /* \"#utility.yul\":1413:1427   */\n      pop\n        /* \"#utility.yul\":1709:1712   */\n      dup6\n        /* \"#utility.yul\":1702:1712   */\n      swap4\n      pop\n        /* \"#utility.yul\":1110:1718   */\n      pop\n      pop\n      pop\n        /* \"#utility.yul\":986:1718   */\n      swap3\n      swap2\n      pop\n      pop\n      jump\t// out\n        /* \"#utility.yul\":1724:2097   */\n    tag_15:\n        /* \"#utility.yul\":1867:1871   */\n      0x00\n        /* \"#utility.yul\":1905:1907   */\n      0x20\n        /* \"#utility.yul\":1894:1903   */\n      dup3\n        /* \"#utility.yul\":1890:1908   */\n      add\n        /* \"#utility.yul\":1882:1908   */\n      swap1\n      pop\n        /* \"#utility.yul\":1954:1963   */\n      dup2\n        /* \"#utility.yul\":1948:1952   */\n      dup2\n        /* \"#utility.yul\":1944:1964   */\n      sub\n        /* \"#utility.yul\":1940:1941   */\n      0x00\n        /* \"#utility.yul\":1929:1938   */\n      dup4\n        /* \"#utility.yul\":1925:1942   */\n      add\n        /* \"#utility.yul\":1918:1965   */\n      mstore\n        /* \"#utility.yul\":1982:2090   */\n      tag_254\n        /* \"#utility.yul\":2085:2089   */\n      dup2\n        /* \"#utility.yul\":2076:2082   */\n      dup5\n        /* \"#utility.yul\":1982:2090   */\n      tag_153\n      jump\t// in\n    tag_254:\n        /* \"#utility.yul\":1974:2090   */\n      swap1\n      pop\n        /* \"#utility.yul\":1724:2097   */\n      swap3\n      swap2\n      pop\n      pop\n      jump\t// out\n        /* \"#utility.yul\":2103:2178   */\n    tag_154:\n        /* \"#utility.yul\":2136:2142   */\n      0x00\n        /* \"#utility.yul\":2169:2171   */\n      0x40\n        /* \"#utility.yul\":2163:2172   */\n      mload\n        /* \"#utility.yul\":2153:2172   */\n      swap1\n      pop\n        /* \"#utility.yul\":2103:2178   */\n      swap1\n      jump\t// out\n        /* \"#utility.yul\":2184:2301   */\n    tag_155:\n        /* \"#utility.yul\":2293:2294   */\n      0x00\n        /* \"#utility.yul\":2290:2291   */\n      dup1\n        /* \"#utility.yul\":2283:2295   */\n      revert\n        /* \"#utility.yul\":2307:2424   */\n    tag_156:\n        /* \"#utility.yul\":2416:2417   */\n      0x00\n        /* \"#utility.yul\":2413:2414   */\n      dup1\n        /* \"#utility.yul\":2406:2418   */\n      revert\n        /* \"#utility.yul\":2430:2547   */\n    tag_157:\n        /* \"#utility.yul\":2539:2540   */\n      0x00\n        /* \"#utility.yul\":2536:2537   */\n      dup1\n        /* \"#utility.yul\":2529:2541   */\n      revert\n        /* \"#utility.yul\":2553:2655   */\n    tag_158:\n        /* \"#utility.yul\":2594:2600   */\n      0x00\n        /* \"#utility.yul\":2645:2647   */\n      0x1f\n        /* \"#utility.yul\":2641:2648   */\n      not\n        /* \"#utility.yul\":2636:2638   */\n      0x1f\n        /* \"#utility.yul\":2629:2634   */\n      dup4\n        /* \"#utility.yul\":2625:2639   */\n      add\n        /* \"#utility.yul\":2621:2649   */\n      and\n        /* \"#utility.yul\":2611:2649   */\n      swap1\n      pop\n        /* \"#utility.yul\":2553:2655   */\n      swap2\n      swap1\n      pop\n      jump\t// out\n        /* \"#utility.yul\":2661:2841   */\n    tag_73:\n        /* \"#utility.yul\":2709:2786   */\n      0x4e487b7100000000000000000000000000000000000000000000000000000000\n        /* \"#utility.yul\":2706:2707   */\n      0x00\n        /* \"#utility.yul\":2699:2787   */\n      mstore\n        /* \"#utility.yul\":2806:2810   */\n      0x41\n        /* \"#utility.yul\":2803:2804   */\n      0x04\n        /* \"#utility.yul\":2796:2811   */\n      mstore\n        /* \"#utility.yul\":2830:2834   */\n      0x24\n        /* \"#utility.yul\":2827:2828   */\n      0x00\n        /* \"#utility.yul\":2820:2835   */\n      revert\n        /* \"#utility.yul\":2847:3128   */\n    tag_159:\n        /* \"#utility.yul\":2930:2957   */\n      tag_262\n        /* \"#utility.yul\":2952:2956   */\n      dup3\n        /* \"#utility.yul\":2930:2957   */\n      tag_158\n      jump\t// in\n    tag_262:\n        /* \"#utility.yul\":2922:2928   */\n      dup2\n        /* \"#utility.yul\":2918:2958   */\n      add\n        /* \"#utility.yul\":3060:3066   */\n      dup2\n        /* \"#utility.yul\":3048:3058   */\n      dup2\n        /* \"#utility.yul\":3045:3067   */\n      lt\n        /* \"#utility.yul\":3024:3042   */\n      0xffffffffffffffff\n        /* \"#utility.yul\":3012:3022   */\n      dup3\n        /* \"#utility.yul\":3009:3043   */\n      gt\n        /* \"#utility.yul\":3006:3068   */\n      or\n        /* \"#utility.yul\":3003:3091   */\n      iszero\n      tag_263\n      jumpi\n        /* \"#utility.yul\":3071:3089   */\n      tag_264\n      tag_73\n      jump\t// in\n    tag_264:\n        /* \"#utility.yul\":3003:3091   */\n    tag_263:\n        /* \"#utility.yul\":3111:3121   */\n      dup1\n        /* \"#utility.yul\":3107:3109   */\n      0x40\n        /* \"#utility.yul\":3100:3122   */\n      mstore\n        /* \"#utility.yul\":2890:3128   */\n      pop\n        /* \"#utility.yul\":2847:3128   */\n      pop\n      pop\n      jump\t// out\n        /* \"#utility.yul\":3134:3263   */\n    tag_160:\n        /* \"#utility.yul\":3168:3174   */\n      0x00\n        /* \"#utility.yul\":3195:3215   */\n      tag_266\n      tag_154\n      jump\t// in\n    tag_266:\n        /* \"#utility.yul\":3185:3215   */\n      swap1\n      pop\n        /* \"#utility.yul\":3224:3257   */\n      tag_267\n        /* \"#utility.yul\":3252:3256   */\n      dup3\n        /* \"#utility.yul\":3244:3250   */\n      dup3\n        /* \"#utility.yul\":3224:3257   */\n      tag_159\n      jump\t// in\n    tag_267:\n        /* \"#utility.yul\":3134:3263   */\n      swap2\n      swap1\n      pop\n      jump\t// out\n        /* \"#utility.yul\":3269:3580   */\n    tag_161:\n        /* \"#utility.yul\":3346:3350   */\n      0x00\n        /* \"#utility.yul\":3436:3454   */\n      0xffffffffffffffff\n        /* \"#utility.yul\":3428:3434   */\n      dup3\n        /* \"#utility.yul\":3425:3455   */\n      gt\n        /* \"#utility.yul\":3422:3478   */\n      iszero\n      tag_269\n      jumpi\n        /* \"#utility.yul\":3458:3476   */\n      tag_270\n      tag_73\n      jump\t// in\n    tag_270:\n        /* \"#utility.yul\":3422:3478   */\n    tag_269:\n        /* \"#utility.yul\":3508:3512   */\n      0x20\n        /* \"#utility.yul\":3500:3506   */\n      dup3\n        /* \"#utility.yul\":3496:3513   */\n      mul\n        /* \"#utility.yul\":3488:3513   */\n      swap1\n      pop\n        /* \"#utility.yul\":3568:3572   */\n      0x20\n        /* \"#utility.yul\":3562:3566   */\n      dup2\n        /* \"#utility.yul\":3558:3573   */\n      add\n        /* \"#utility.yul\":3550:3573   */\n      swap1\n      pop\n        /* \"#utility.yul\":3269:3580   */\n      swap2\n      swap1\n      pop\n      jump\t// out\n        /* \"#utility.yul\":3586:3703   */\n    tag_162:\n        /* \"#utility.yul\":3695:3696   */\n      0x00\n        /* \"#utility.yul\":3692:3693   */\n      dup1\n        /* \"#utility.yul\":3685:3697   */\n      revert\n        /* \"#utility.yul\":3709:3835   */\n    tag_163:\n        /* \"#utility.yul\":3746:3753   */\n      0x00\n        /* \"#utility.yul\":3786:3828   */\n      0xffffffffffffffffffffffffffffffffffffffff\n        /* \"#utility.yul\":3779:3784   */\n      dup3\n        /* \"#utility.yul\":3775:3829   */\n      and\n        /* \"#utility.yul\":3764:3829   */\n      swap1\n      pop\n        /* \"#utility.yul\":3709:3835   */\n      swap2\n      swap1\n      pop\n      jump\t// out\n        /* \"#utility.yul\":3841:3937   */\n    tag_164:\n        /* \"#utility.yul\":3878:3885   */\n      0x00\n        /* \"#utility.yul\":3907:3931   */\n      tag_274\n        /* \"#utility.yul\":3925:3930   */\n      dup3\n        /* \"#utility.yul\":3907:3931   */\n      tag_163\n      jump\t// in\n    tag_274:\n        /* \"#utility.yul\":3896:3931   */\n      swap1\n      pop\n        /* \"#utility.yul\":3841:3937   */\n      swap2\n      swap1\n      pop\n      jump\t// out\n        /* \"#utility.yul\":3943:4065   */\n    tag_165:\n        /* \"#utility.yul\":4016:4040   */\n      tag_276\n        /* \"#utility.yul\":4034:4039   */\n      dup2\n        /* \"#utility.yul\":4016:4040   */\n      tag_164\n      jump\t// in\n    tag_276:\n        /* \"#utility.yul\":4009:4014   */\n      dup2\n        /* \"#utility.yul\":4006:4041   */\n      eq\n        /* \"#utility.yul\":3996:4059   */\n      tag_277\n      jumpi\n        /* \"#utility.yul\":4055:4056   */\n      0x00\n        /* \"#utility.yul\":4052:4053   */\n      dup1\n        /* \"#utility.yul\":4045:4057   */\n      revert\n        /* \"#utility.yul\":3996:4059   */\n    tag_277:\n        /* \"#utility.yul\":3943:4065   */\n      pop\n      jump\t// out\n        /* \"#utility.yul\":4071:4210   */\n    tag_166:\n        /* \"#utility.yul\":4117:4122   */\n      0x00\n        /* \"#utility.yul\":4155:4161   */\n      dup2\n        /* \"#utility.yul\":4142:4162   */\n      calldataload\n        /* \"#utility.yul\":4133:4162   */\n      swap1\n      pop\n        /* \"#utility.yul\":4171:4204   */\n      tag_279\n        /* \"#utility.yul\":4198:4203   */\n      dup2\n        /* \"#utility.yul\":4171:4204   */\n      tag_165\n      jump\t// in\n    tag_279:\n        /* \"#utility.yul\":4071:4210   */\n      swap3\n      swap2\n      pop\n      pop\n      jump\t// out\n        /* \"#utility.yul\":4233:4943   */\n    tag_167:\n        /* \"#utility.yul\":4329:4334   */\n      0x00\n        /* \"#utility.yul\":4354:4435   */\n      tag_281\n        /* \"#utility.yul\":4370:4434   */\n      tag_282\n        /* \"#utility.yul\":4427:4433   */\n      dup5\n        /* \"#utility.yul\":4370:4434   */\n      tag_161\n      jump\t// in\n    tag_282:\n        /* \"#utility.yul\":4354:4435   */\n      tag_160\n      jump\t// in\n    tag_281:\n        /* \"#utility.yul\":4345:4435   */\n      swap1\n      pop\n        /* \"#utility.yul\":4455:4460   */\n      dup1\n        /* \"#utility.yul\":4484:4490   */\n      dup4\n        /* \"#utility.yul\":4477:4482   */\n      dup3\n        /* \"#utility.yul\":4470:4491   */\n      mstore\n        /* \"#utility.yul\":4518:4522   */\n      0x20\n        /* \"#utility.yul\":4511:4516   */\n      dup3\n        /* \"#utility.yul\":4507:4523   */\n      add\n        /* \"#utility.yul\":4500:4523   */\n      swap1\n      pop\n        /* \"#utility.yul\":4571:4575   */\n      0x20\n        /* \"#utility.yul\":4563:4569   */\n      dup5\n        /* \"#utility.yul\":4559:4576   */\n      mul\n        /* \"#utility.yul\":4551:4557   */\n      dup4\n        /* \"#utility.yul\":4547:4577   */\n      add\n        /* \"#utility.yul\":4600:4603   */\n      dup6\n        /* \"#utility.yul\":4592:4598   */\n      dup2\n        /* \"#utility.yul\":4589:4604   */\n      gt\n        /* \"#utility.yul\":4586:4708   */\n      iszero\n      tag_283\n      jumpi\n        /* \"#utility.yul\":4619:4698   */\n      tag_284\n      tag_162\n      jump\t// in\n    tag_284:\n        /* \"#utility.yul\":4586:4708   */\n    tag_283:\n        /* \"#utility.yul\":4734:4740   */\n      dup4\n        /* \"#utility.yul\":4717:4937   */\n    tag_285:\n        /* \"#utility.yul\":4751:4757   */\n      dup2\n        /* \"#utility.yul\":4746:4749   */\n      dup2\n        /* \"#utility.yul\":4743:4758   */\n      lt\n        /* \"#utility.yul\":4717:4937   */\n      iszero\n      tag_287\n      jumpi\n        /* \"#utility.yul\":4826:4829   */\n      dup1\n        /* \"#utility.yul\":4855:4892   */\n      tag_288\n        /* \"#utility.yul\":4888:4891   */\n      dup9\n        /* \"#utility.yul\":4876:4886   */\n      dup3\n        /* \"#utility.yul\":4855:4892   */\n      tag_166\n      jump\t// in\n    tag_288:\n        /* \"#utility.yul\":4850:4853   */\n      dup5\n        /* \"#utility.yul\":4843:4893   */\n      mstore\n        /* \"#utility.yul\":4922:4926   */\n      0x20\n        /* \"#utility.yul\":4917:4920   */\n      dup5\n        /* \"#utility.yul\":4913:4927   */\n      add\n        /* \"#utility.yul\":4906:4927   */\n      swap4\n      pop\n        /* \"#utility.yul\":4793:4937   */\n      pop\n        /* \"#utility.yul\":4777:4781   */\n      0x20\n        /* \"#utility.yul\":4772:4775   */\n      dup2\n        /* \"#utility.yul\":4768:4782   */\n      add\n        /* \"#utility.yul\":4761:4782   */\n      swap1\n      pop\n        /* \"#utility.yul\":4717:4937   */\n      jump(tag_285)\n    tag_287:\n        /* \"#utility.yul\":4721:4742   */\n      pop\n        /* \"#utility.yul\":4335:4943   */\n      pop\n      pop\n        /* \"#utility.yul\":4233:4943   */\n      swap4\n      swap3\n      pop\n      pop\n      pop\n      jump\t// out\n        /* \"#utility.yul\":4966:5336   */\n    tag_168:\n        /* \"#utility.yul\":5037:5042   */\n      0x00\n        /* \"#utility.yul\":5086:5089   */\n      dup3\n        /* \"#utility.yul\":5079:5083   */\n      0x1f\n        /* \"#utility.yul\":5071:5077   */\n      dup4\n        /* \"#utility.yul\":5067:5084   */\n      add\n        /* \"#utility.yul\":5063:5090   */\n      slt\n        /* \"#utility.yul\":5053:5175   */\n      tag_290\n      jumpi\n        /* \"#utility.yul\":5094:5173   */\n      tag_291\n      tag_157\n      jump\t// in\n    tag_291:\n        /* \"#utility.yul\":5053:5175   */\n    tag_290:\n        /* \"#utility.yul\":5211:5217   */\n      dup2\n        /* \"#utility.yul\":5198:5218   */\n      calldataload\n        /* \"#utility.yul\":5236:5330   */\n      tag_292\n        /* \"#utility.yul\":5326:5329   */\n      dup5\n        /* \"#utility.yul\":5318:5324   */\n      dup3\n        /* \"#utility.yul\":5311:5315   */\n      0x20\n        /* \"#utility.yul\":5303:5309   */\n      dup7\n        /* \"#utility.yul\":5299:5316   */\n      add\n        /* \"#utility.yul\":5236:5330   */\n      tag_167\n      jump\t// in\n    tag_292:\n        /* \"#utility.yul\":5227:5330   */\n      swap2\n      pop\n        /* \"#utility.yul\":5043:5336   */\n      pop\n        /* \"#utility.yul\":4966:5336   */\n      swap3\n      swap2\n      pop\n      pop\n      jump\t// out\n        /* \"#utility.yul\":5342:5653   */\n    tag_169:\n        /* \"#utility.yul\":5419:5423   */\n      0x00\n        /* \"#utility.yul\":5509:5527   */\n      0xffffffffffffffff\n        /* \"#utility.yul\":5501:5507   */\n      dup3\n        /* \"#utility.yul\":5498:5528   */\n      gt\n        /* \"#utility.yul\":5495:5551   */\n      iszero\n      tag_294\n      jumpi\n        /* \"#utility.yul\":5531:5549   */\n      tag_295\n      tag_73\n      jump\t// in\n    tag_295:\n        /* \"#utility.yul\":5495:5551   */\n    tag_294:\n        /* \"#utility.yul\":5581:5585   */\n      0x20\n        /* \"#utility.yul\":5573:5579   */\n      dup3\n        /* \"#utility.yul\":5569:5586   */\n      mul\n        /* \"#utility.yul\":5561:5586   */\n      swap1\n      pop\n        /* \"#utility.yul\":5641:5645   */\n      0x20\n        /* \"#utility.yul\":5635:5639   */\n      dup2\n        /* \"#utility.yul\":5631:5646   */\n      add\n        /* \"#utility.yul\":5623:5646   */\n      swap1\n      pop\n        /* \"#utility.yul\":5342:5653   */\n      swap2\n      swap1\n      pop\n      jump\t// out\n        /* \"#utility.yul\":5659:5781   */\n    tag_170:\n        /* \"#utility.yul\":5732:5756   */\n      tag_297\n        /* \"#utility.yul\":5750:5755   */\n      dup2\n        /* \"#utility.yul\":5732:5756   */\n      tag_149\n      jump\t// in\n    tag_297:\n        /* \"#utility.yul\":5725:5730   */\n      dup2\n        /* \"#utility.yul\":5722:5757   */\n      eq\n        /* \"#utility.yul\":5712:5775   */\n      tag_298\n      jumpi\n        /* \"#utility.yul\":5771:5772   */\n      0x00\n        /* \"#utility.yul\":5768:5769   */\n      dup1\n        /* \"#utility.yul\":5761:5773   */\n      revert\n        /* \"#utility.yul\":5712:5775   */\n    tag_298:\n        /* \"#utility.yul\":5659:5781   */\n      pop\n      jump\t// out\n        /* \"#utility.yul\":5787:5926   */\n    tag_171:\n        /* \"#utility.yul\":5833:5838   */\n      0x00\n        /* \"#utility.yul\":5871:5877   */\n      dup2\n        /* \"#utility.yul\":5858:5878   */\n      calldataload\n        /* \"#utility.yul\":5849:5878   */\n      swap1\n      pop\n        /* \"#utility.yul\":5887:5920   */\n      tag_300\n        /* \"#utility.yul\":5914:5919   */\n      dup2\n        /* \"#utility.yul\":5887:5920   */\n      tag_170\n      jump\t// in\n    tag_300:\n        /* \"#utility.yul\":5787:5926   */\n      swap3\n      swap2\n      pop\n      pop\n      jump\t// out\n        /* \"#utility.yul\":5949:6659   */\n    tag_172:\n        /* \"#utility.yul\":6045:6050   */\n      0x00\n        /* \"#utility.yul\":6070:6151   */\n      tag_302\n        /* \"#utility.yul\":6086:6150   */\n      tag_303\n        /* \"#utility.yul\":6143:6149   */\n      dup5\n        /* \"#utility.yul\":6086:6150   */\n      tag_169\n      jump\t// in\n    tag_303:\n        /* \"#utility.yul\":6070:6151   */\n      tag_160\n      jump\t// in\n    tag_302:\n        /* \"#utility.yul\":6061:6151   */\n      swap1\n      pop\n        /* \"#utility.yul\":6171:6176   */\n      dup1\n        /* \"#utility.yul\":6200:6206   */\n      dup4\n        /* \"#utility.yul\":6193:6198   */\n      dup3\n        /* \"#utility.yul\":6186:6207   */\n      mstore\n        /* \"#utility.yul\":6234:6238   */\n      0x20\n        /* \"#utility.yul\":6227:6232   */\n      dup3\n        /* \"#utility.yul\":6223:6239   */\n      add\n        /* \"#utility.yul\":6216:6239   */\n      swap1\n      pop\n        /* \"#utility.yul\":6287:6291   */\n      0x20\n        /* \"#utility.yul\":6279:6285   */\n      dup5\n        /* \"#utility.yul\":6275:6292   */\n      mul\n        /* \"#utility.yul\":6267:6273   */\n      dup4\n        /* \"#utility.yul\":6263:6293   */\n      add\n        /* \"#utility.yul\":6316:6319   */\n      dup6\n        /* \"#utility.yul\":6308:6314   */\n      dup2\n        /* \"#utility.yul\":6305:6320   */\n      gt\n        /* \"#utility.yul\":6302:6424   */\n      iszero\n      tag_304\n      jumpi\n        /* \"#utility.yul\":6335:6414   */\n      tag_305\n      tag_162\n      jump\t// in\n    tag_305:\n        /* \"#utility.yul\":6302:6424   */\n    tag_304:\n        /* \"#utility.yul\":6450:6456   */\n      dup4\n        /* \"#utility.yul\":6433:6653   */\n    tag_306:\n        /* \"#utility.yul\":6467:6473   */\n      dup2\n        /* \"#utility.yul\":6462:6465   */\n      dup2\n        /* \"#utility.yul\":6459:6474   */\n      lt\n        /* \"#utility.yul\":6433:6653   */\n      iszero\n      tag_308\n      jumpi\n        /* \"#utility.yul\":6542:6545   */\n      dup1\n        /* \"#utility.yul\":6571:6608   */\n      tag_309\n        /* \"#utility.yul\":6604:6607   */\n      dup9\n        /* \"#utility.yul\":6592:6602   */\n      dup3\n        /* \"#utility.yul\":6571:6608   */\n      tag_171\n      jump\t// in\n    tag_309:\n        /* \"#utility.yul\":6566:6569   */\n      dup5\n        /* \"#utility.yul\":6559:6609   */\n      mstore\n        /* \"#utility.yul\":6638:6642   */\n      0x20\n        /* \"#utility.yul\":6633:6636   */\n      dup5\n        /* \"#utility.yul\":6629:6643   */\n      add\n        /* \"#utility.yul\":6622:6643   */\n      swap4\n      pop\n        /* \"#utility.yul\":6509:6653   */\n      pop\n        /* \"#utility.yul\":6493:6497   */\n      0x20\n        /* \"#utility.yul\":6488:6491   */\n      dup2\n        /* \"#utility.yul\":6484:6498   */\n      add\n        /* \"#utility.yul\":6477:6498   */\n      swap1\n      pop\n        /* \"#utility.yul\":6433:6653   */\n      jump(tag_306)\n    tag_308:\n        /* \"#utility.yul\":6437:6458   */\n      pop\n        /* \"#utility.yul\":6051:6659   */\n      pop\n      pop\n        /* \"#utility.yul\":5949:6659   */\n      swap4\n      swap3\n      pop\n      pop\n      pop\n      jump\t// out\n        /* \"#utility.yul\":6682:7052   */\n    tag_173:\n        /* \"#utility.yul\":6753:6758   */\n      0x00\n        /* \"#utility.yul\":6802:6805   */\n      dup3\n        /* \"#utility.yul\":6795:6799   */\n      0x1f\n        /* \"#utility.yul\":6787:6793   */\n      dup4\n        /* \"#utility.yul\":6783:6800   */\n      add\n        /* \"#utility.yul\":6779:6806   */\n      slt\n        /* \"#utility.yul\":6769:6891   */\n      tag_311\n      jumpi\n        /* \"#utility.yul\":6810:6889   */\n      tag_312\n      tag_157\n      jump\t// in\n    tag_312:\n        /* \"#utility.yul\":6769:6891   */\n    tag_311:\n        /* \"#utility.yul\":6927:6933   */\n      dup2\n        /* \"#utility.yul\":6914:6934   */\n      calldataload\n        /* \"#utility.yul\":6952:7046   */\n      tag_313\n        /* \"#utility.yul\":7042:7045   */\n      dup5\n        /* \"#utility.yul\":7034:7040   */\n      dup3\n        /* \"#utility.yul\":7027:7031   */\n      0x20\n        /* \"#utility.yul\":7019:7025   */\n      dup7\n        /* \"#utility.yul\":7015:7032   */\n      add\n        /* \"#utility.yul\":6952:7046   */\n      tag_172\n      jump\t// in\n    tag_313:\n        /* \"#utility.yul\":6943:7046   */\n      swap2\n      pop\n        /* \"#utility.yul\":6759:7052   */\n      pop\n        /* \"#utility.yul\":6682:7052   */\n      swap3\n      swap2\n      pop\n      pop\n      jump\t// out\n        /* \"#utility.yul\":7058:7175   */\n    tag_174:\n        /* \"#utility.yul\":7167:7168   */\n      0x00\n        /* \"#utility.yul\":7164:7165   */\n      dup1\n        /* \"#utility.yul\":7157:7169   */\n      revert\n        /* \"#utility.yul\":7194:7746   */\n    tag_175:\n        /* \"#utility.yul\":7251:7259   */\n      0x00\n        /* \"#utility.yul\":7261:7267   */\n      dup1\n        /* \"#utility.yul\":7311:7314   */\n      dup4\n        /* \"#utility.yul\":7304:7308   */\n      0x1f\n        /* \"#utility.yul\":7296:7302   */\n      dup5\n        /* \"#utility.yul\":7292:7309   */\n      add\n        /* \"#utility.yul\":7288:7315   */\n      slt\n        /* \"#utility.yul\":7278:7400   */\n      tag_316\n      jumpi\n        /* \"#utility.yul\":7319:7398   */\n      tag_317\n      tag_157\n      jump\t// in\n    tag_317:\n        /* \"#utility.yul\":7278:7400   */\n    tag_316:\n        /* \"#utility.yul\":7432:7438   */\n      dup3\n        /* \"#utility.yul\":7419:7439   */\n      calldataload\n        /* \"#utility.yul\":7409:7439   */\n      swap1\n      pop\n        /* \"#utility.yul\":7462:7480   */\n      0xffffffffffffffff\n        /* \"#utility.yul\":7454:7460   */\n      dup2\n        /* \"#utility.yul\":7451:7481   */\n      gt\n        /* \"#utility.yul\":7448:7565   */\n      iszero\n      tag_318\n      jumpi\n        /* \"#utility.yul\":7484:7563   */\n      tag_319\n      tag_174\n      jump\t// in\n    tag_319:\n        /* \"#utility.yul\":7448:7565   */\n    tag_318:\n        /* \"#utility.yul\":7598:7602   */\n      0x20\n        /* \"#utility.yul\":7590:7596   */\n      dup4\n        /* \"#utility.yul\":7586:7603   */\n      add\n        /* \"#utility.yul\":7574:7603   */\n      swap2\n      pop\n        /* \"#utility.yul\":7652:7655   */\n      dup4\n        /* \"#utility.yul\":7644:7648   */\n      0x01\n        /* \"#utility.yul\":7636:7642   */\n      dup3\n        /* \"#utility.yul\":7632:7649   */\n      mul\n        /* \"#utility.yul\":7622:7630   */\n      dup4\n        /* \"#utility.yul\":7618:7650   */\n      add\n        /* \"#utility.yul\":7615:7656   */\n      gt\n        /* \"#utility.yul\":7612:7740   */\n      iszero\n      tag_320\n      jumpi\n        /* \"#utility.yul\":7659:7738   */\n      tag_321\n      tag_162\n      jump\t// in\n    tag_321:\n        /* \"#utility.yul\":7612:7740   */\n    tag_320:\n        /* \"#utility.yul\":7194:7746   */\n      swap3\n      pop\n      swap3\n      swap1\n      pop\n      jump\t// out\n        /* \"#utility.yul\":7752:7870   */\n    tag_176:\n        /* \"#utility.yul\":7789:7796   */\n      0x00\n        /* \"#utility.yul\":7829:7863   */\n      0xffffffffffffffffffffffffffffffff\n        /* \"#utility.yul\":7822:7827   */\n      dup3\n        /* \"#utility.yul\":7818:7864   */\n      and\n        /* \"#utility.yul\":7807:7864   */\n      swap1\n      pop\n        /* \"#utility.yul\":7752:7870   */\n      swap2\n      swap1\n      pop\n      jump\t// out\n        /* \"#utility.yul\":7876:7998   */\n    tag_177:\n        /* \"#utility.yul\":7949:7973   */\n      tag_324\n        /* \"#utility.yul\":7967:7972   */\n      dup2\n        /* \"#utility.yul\":7949:7973   */\n      tag_176\n      jump\t// in\n    tag_324:\n        /* \"#utility.yul\":7942:7947   */\n      dup2\n        /* \"#utility.yul\":7939:7974   */\n      eq\n        /* \"#utility.yul\":7929:7992   */\n      tag_325\n      jumpi\n        /* \"#utility.yul\":7988:7989   */\n      0x00\n        /* \"#utility.yul\":7985:7986   */\n      dup1\n        /* \"#utility.yul\":7978:7990   */\n      revert\n        /* \"#utility.yul\":7929:7992   */\n    tag_325:\n        /* \"#utility.yul\":7876:7998   */\n      pop\n      jump\t// out\n        /* \"#utility.yul\":8004:8143   */\n    tag_178:\n        /* \"#utility.yul\":8050:8055   */\n      0x00\n        /* \"#utility.yul\":8088:8094   */\n      dup2\n        /* \"#utility.yul\":8075:8095   */\n      calldataload\n        /* \"#utility.yul\":8066:8095   */\n      swap1\n      pop\n        /* \"#utility.yul\":8104:8137   */\n      tag_327\n        /* \"#utility.yul\":8131:8136   */\n      dup2\n        /* \"#utility.yul\":8104:8137   */\n      tag_177\n      jump\t// in\n    tag_327:\n        /* \"#utility.yul\":8004:8143   */\n      swap3\n      swap2\n      pop\n      pop\n      jump\t// out\n        /* \"#utility.yul\":8149:8242   */\n    tag_179:\n        /* \"#utility.yul\":8185:8192   */\n      0x00\n        /* \"#utility.yul\":8225:8235   */\n      0xffffffff\n        /* \"#utility.yul\":8218:8223   */\n      dup3\n        /* \"#utility.yul\":8214:8236   */\n      and\n        /* \"#utility.yul\":8203:8236   */\n      swap1\n      pop\n        /* \"#utility.yul\":8149:8242   */\n      swap2\n      swap1\n      pop\n      jump\t// out\n        /* \"#utility.yul\":8248:8368   */\n    tag_180:\n        /* \"#utility.yul\":8320:8343   */\n      tag_330\n        /* \"#utility.yul\":8337:8342   */\n      dup2\n        /* \"#utility.yul\":8320:8343   */\n      tag_179\n      jump\t// in\n    tag_330:\n        /* \"#utility.yul\":8313:8318   */\n      dup2\n        /* \"#utility.yul\":8310:8344   */\n      eq\n        /* \"#utility.yul\":8300:8362   */\n      tag_331\n      jumpi\n        /* \"#utility.yul\":8358:8359   */\n      0x00\n        /* \"#utility.yul\":8355:8356   */\n      dup1\n        /* \"#utility.yul\":8348:8360   */\n      revert\n        /* \"#utility.yul\":8300:8362   */\n    tag_331:\n        /* \"#utility.yul\":8248:8368   */\n      pop\n      jump\t// out\n        /* \"#utility.yul\":8374:8511   */\n    tag_181:\n        /* \"#utility.yul\":8419:8424   */\n      0x00\n        /* \"#utility.yul\":8457:8463   */\n      dup2\n        /* \"#utility.yul\":8444:8464   */\n      calldataload\n        /* \"#utility.yul\":8435:8464   */\n      swap1\n      pop\n        /* \"#utility.yul\":8473:8505   */\n      tag_333\n        /* \"#utility.yul\":8499:8504   */\n      dup2\n        /* \"#utility.yul\":8473:8505   */\n      tag_180\n      jump\t// in\n    tag_333:\n        /* \"#utility.yul\":8374:8511   */\n      swap3\n      swap2\n      pop\n      pop\n      jump\t// out\n        /* \"#utility.yul\":8517:10678   */\n    tag_18:\n        /* \"#utility.yul\":8709:8715   */\n      0x00\n        /* \"#utility.yul\":8717:8723   */\n      dup1\n        /* \"#utility.yul\":8725:8731   */\n      0x00\n        /* \"#utility.yul\":8733:8739   */\n      dup1\n        /* \"#utility.yul\":8741:8747   */\n      0x00\n        /* \"#utility.yul\":8749:8755   */\n      dup1\n        /* \"#utility.yul\":8757:8763   */\n      0x00\n        /* \"#utility.yul\":8765:8771   */\n      dup1\n        /* \"#utility.yul\":8773:8779   */\n      0x00\n        /* \"#utility.yul\":8781:8787   */\n      dup1\n        /* \"#utility.yul\":8830:8833   */\n      0x0100\n        /* \"#utility.yul\":8818:8827   */\n      dup12\n        /* \"#utility.yul\":8809:8816   */\n      dup14\n        /* \"#utility.yul\":8805:8828   */\n      sub\n        /* \"#utility.yul\":8801:8834   */\n      slt\n        /* \"#utility.yul\":8798:8918   */\n      iszero\n      tag_335\n      jumpi\n        /* \"#utility.yul\":8837:8916   */\n      tag_336\n      tag_155\n      jump\t// in\n    tag_336:\n        /* \"#utility.yul\":8798:8918   */\n    tag_335:\n        /* \"#utility.yul\":8985:8986   */\n      0x00\n        /* \"#utility.yul\":8974:8983   */\n      dup12\n        /* \"#utility.yul\":8970:8987   */\n      add\n        /* \"#utility.yul\":8957:8988   */\n      calldataload\n        /* \"#utility.yul\":9015:9033   */\n      0xffffffffffffffff\n        /* \"#utility.yul\":9007:9013   */\n      dup2\n        /* \"#utility.yul\":9004:9034   */\n      gt\n        /* \"#utility.yul\":9001:9118   */\n      iszero\n      tag_337\n      jumpi\n        /* \"#utility.yul\":9037:9116   */\n      tag_338\n      tag_156\n      jump\t// in\n    tag_338:\n        /* \"#utility.yul\":9001:9118   */\n    tag_337:\n        /* \"#utility.yul\":9142:9220   */\n      tag_339\n        /* \"#utility.yul\":9212:9219   */\n      dup14\n        /* \"#utility.yul\":9203:9209   */\n      dup3\n        /* \"#utility.yul\":9192:9201   */\n      dup15\n        /* \"#utility.yul\":9188:9210   */\n      add\n        /* \"#utility.yul\":9142:9220   */\n      tag_168\n      jump\t// in\n    tag_339:\n        /* \"#utility.yul\":9132:9220   */\n      swap11\n      pop\n        /* \"#utility.yul\":8928:9230   */\n      pop\n        /* \"#utility.yul\":9297:9299   */\n      0x20\n        /* \"#utility.yul\":9286:9295   */\n      dup12\n        /* \"#utility.yul\":9282:9300   */\n      add\n        /* \"#utility.yul\":9269:9301   */\n      calldataload\n        /* \"#utility.yul\":9328:9346   */\n      0xffffffffffffffff\n        /* \"#utility.yul\":9320:9326   */\n      dup2\n        /* \"#utility.yul\":9317:9347   */\n      gt\n        /* \"#utility.yul\":9314:9431   */\n      iszero\n      tag_340\n      jumpi\n        /* \"#utility.yul\":9350:9429   */\n      tag_341\n      tag_156\n      jump\t// in\n    tag_341:\n        /* \"#utility.yul\":9314:9431   */\n    tag_340:\n        /* \"#utility.yul\":9455:9533   */\n      tag_342\n        /* \"#utility.yul\":9525:9532   */\n      dup14\n        /* \"#utility.yul\":9516:9522   */\n      dup3\n        /* \"#utility.yul\":9505:9514   */\n      dup15\n        /* \"#utility.yul\":9501:9523   */\n      add\n        /* \"#utility.yul\":9455:9533   */\n      tag_173\n      jump\t// in\n    tag_342:\n        /* \"#utility.yul\":9445:9533   */\n      swap10\n      pop\n        /* \"#utility.yul\":9240:9543   */\n      pop\n        /* \"#utility.yul\":9610:9612   */\n      0x40\n        /* \"#utility.yul\":9599:9608   */\n      dup12\n        /* \"#utility.yul\":9595:9613   */\n      add\n        /* \"#utility.yul\":9582:9614   */\n      calldataload\n        /* \"#utility.yul\":9641:9659   */\n      0xffffffffffffffff\n        /* \"#utility.yul\":9633:9639   */\n      dup2\n        /* \"#utility.yul\":9630:9660   */\n      gt\n        /* \"#utility.yul\":9627:9744   */\n      iszero\n      tag_343\n      jumpi\n        /* \"#utility.yul\":9663:9742   */\n      tag_344\n      tag_156\n      jump\t// in\n    tag_344:\n        /* \"#utility.yul\":9627:9744   */\n    tag_343:\n        /* \"#utility.yul\":9776:9840   */\n      tag_345\n        /* \"#utility.yul\":9832:9839   */\n      dup14\n        /* \"#utility.yul\":9823:9829   */\n      dup3\n        /* \"#utility.yul\":9812:9821   */\n      dup15\n        /* \"#utility.yul\":9808:9830   */\n      add\n        /* \"#utility.yul\":9776:9840   */\n      tag_175\n      jump\t// in\n    tag_345:\n        /* \"#utility.yul\":9758:9840   */\n      swap9\n      pop\n      swap9\n      pop\n        /* \"#utility.yul\":9553:9850   */\n      pop\n        /* \"#utility.yul\":9917:9919   */\n      0x60\n        /* \"#utility.yul\":9906:9915   */\n      dup12\n        /* \"#utility.yul\":9902:9920   */\n      add\n        /* \"#utility.yul\":9889:9921   */\n      calldataload\n        /* \"#utility.yul\":9948:9966   */\n      0xffffffffffffffff\n        /* \"#utility.yul\":9940:9946   */\n      dup2\n        /* \"#utility.yul\":9937:9967   */\n      gt\n        /* \"#utility.yul\":9934:10051   */\n      iszero\n      tag_346\n      jumpi\n        /* \"#utility.yul\":9970:10049   */\n      tag_347\n      tag_156\n      jump\t// in\n    tag_347:\n        /* \"#utility.yul\":9934:10051   */\n    tag_346:\n        /* \"#utility.yul\":10083:10147   */\n      tag_348\n        /* \"#utility.yul\":10139:10146   */\n      dup14\n        /* \"#utility.yul\":10130:10136   */\n      dup3\n        /* \"#utility.yul\":10119:10128   */\n      dup15\n        /* \"#utility.yul\":10115:10137   */\n      add\n        /* \"#utility.yul\":10083:10147   */\n      tag_175\n      jump\t// in\n    tag_348:\n        /* \"#utility.yul\":10065:10147   */\n      swap7\n      pop\n      swap7\n      pop\n        /* \"#utility.yul\":9860:10157   */\n      pop\n        /* \"#utility.yul\":10196:10199   */\n      0x80\n        /* \"#utility.yul\":10223:10276   */\n      tag_349\n        /* \"#utility.yul\":10268:10275   */\n      dup14\n        /* \"#utility.yul\":10259:10265   */\n      dup3\n        /* \"#utility.yul\":10248:10257   */\n      dup15\n        /* \"#utility.yul\":10244:10266   */\n      add\n        /* \"#utility.yul\":10223:10276   */\n      tag_178\n      jump\t// in\n    tag_349:\n        /* \"#utility.yul\":10213:10276   */\n      swap5\n      pop\n        /* \"#utility.yul\":10167:10286   */\n      pop\n        /* \"#utility.yul\":10325:10328   */\n      0xa0\n        /* \"#utility.yul\":10352:10405   */\n      tag_350\n        /* \"#utility.yul\":10397:10404   */\n      dup14\n        /* \"#utility.yul\":10388:10394   */\n      dup3\n        /* \"#utility.yul\":10377:10386   */\n      dup15\n        /* \"#utility.yul\":10373:10395   */\n      add\n        /* \"#utility.yul\":10352:10405   */\n      tag_178\n      jump\t// in\n    tag_350:\n        /* \"#utility.yul\":10342:10405   */\n      swap4\n      pop\n        /* \"#utility.yul\":10296:10415   */\n      pop\n        /* \"#utility.yul\":10454:10457   */\n      0xc0\n        /* \"#utility.yul\":10481:10533   */\n      tag_351\n        /* \"#utility.yul\":10525:10532   */\n      dup14\n        /* \"#utility.yul\":10516:10522   */\n      dup3\n        /* \"#utility.yul\":10505:10514   */\n      dup15\n        /* \"#utility.yul\":10501:10523   */\n      add\n        /* \"#utility.yul\":10481:10533   */\n      tag_181\n      jump\t// in\n    tag_351:\n        /* \"#utility.yul\":10471:10533   */\n      swap3\n      pop\n        /* \"#utility.yul\":10425:10543   */\n      pop\n        /* \"#utility.yul\":10582:10585   */\n      0xe0\n        /* \"#utility.yul\":10609:10661   */\n      tag_352\n        /* \"#utility.yul\":10653:10660   */\n      dup14\n        /* \"#utility.yul\":10644:10650   */\n      dup3\n        /* \"#utility.yul\":10633:10642   */\n      dup15\n        /* \"#utility.yul\":10629:10651   */\n      add\n        /* \"#utility.yul\":10609:10661   */\n      tag_181\n      jump\t// in\n    tag_352:\n        /* \"#utility.yul\":10599:10661   */\n      swap2\n      pop\n        /* \"#utility.yul\":10553:10671   */\n      pop\n        /* \"#utility.yul\":8517:10678   */\n      swap3\n      swap6\n      swap9\n      swap12\n      swap2\n      swap5\n      swap8\n      swap11\n      pop\n      swap3\n      swap6\n      swap9\n      pop\n      jump\t// out\n        /* \"#utility.yul\":10684:11158   */\n    tag_22:\n        /* \"#utility.yul\":10752:10758   */\n      0x00\n        /* \"#utility.yul\":10760:10766   */\n      dup1\n        /* \"#utility.yul\":10809:10811   */\n      0x40\n        /* \"#utility.yul\":10797:10806   */\n      dup4\n        /* \"#utility.yul\":10788:10795   */\n      dup6\n        /* \"#utility.yul\":10784:10807   */\n      sub\n        /* \"#utility.yul\":10780:10812   */\n      slt\n        /* \"#utility.yul\":10777:10896   */\n      iszero\n      tag_354\n      jumpi\n        /* \"#utility.yul\":10815:10894   */\n      tag_355\n      tag_155\n      jump\t// in\n    tag_355:\n        /* \"#utility.yul\":10777:10896   */\n    tag_354:\n        /* \"#utility.yul\":10935:10936   */\n      0x00\n        /* \"#utility.yul\":10960:11013   */\n      tag_356\n        /* \"#utility.yul\":11005:11012   */\n      dup6\n        /* \"#utility.yul\":10996:11002   */\n      dup3\n        /* \"#utility.yul\":10985:10994   */\n      dup7\n        /* \"#utility.yul\":10981:11003   */\n      add\n        /* \"#utility.yul\":10960:11013   */\n      tag_166\n      jump\t// in\n    tag_356:\n        /* \"#utility.yul\":10950:11013   */\n      swap3\n      pop\n        /* \"#utility.yul\":10906:11023   */\n      pop\n        /* \"#utility.yul\":11062:11064   */\n      0x20\n        /* \"#utility.yul\":11088:11141   */\n      tag_357\n        /* \"#utility.yul\":11133:11140   */\n      dup6\n        /* \"#utility.yul\":11124:11130   */\n      dup3\n        /* \"#utility.yul\":11113:11122   */\n      dup7\n        /* \"#utility.yul\":11109:11131   */\n      add\n        /* \"#utility.yul\":11088:11141   */\n      tag_171\n      jump\t// in\n    tag_357:\n        /* \"#utility.yul\":11078:11141   */\n      swap2\n      pop\n        /* \"#utility.yul\":11033:11151   */\n      pop\n        /* \"#utility.yul\":10684:11158   */\n      swap3\n      pop\n      swap3\n      swap1\n      pop\n      jump\t// out\n        /* \"#utility.yul\":11164:11282   */\n    tag_182:\n        /* \"#utility.yul\":11251:11275   */\n      tag_359\n        /* \"#utility.yul\":11269:11274   */\n      dup2\n        /* \"#utility.yul\":11251:11275   */\n      tag_149\n      jump\t// in\n    tag_359:\n        /* \"#utility.yul\":11246:11249   */\n      dup3\n        /* \"#utility.yul\":11239:11276   */\n      mstore\n        /* \"#utility.yul\":11164:11282   */\n      pop\n      pop\n      jump\t// out\n        /* \"#utility.yul\":11288:11510   */\n    tag_25:\n        /* \"#utility.yul\":11381:11385   */\n      0x00\n        /* \"#utility.yul\":11419:11421   */\n      0x20\n        /* \"#utility.yul\":11408:11417   */\n      dup3\n        /* \"#utility.yul\":11404:11422   */\n      add\n        /* \"#utility.yul\":11396:11422   */\n      swap1\n      pop\n        /* \"#utility.yul\":11432:11503   */\n      tag_361\n        /* \"#utility.yul\":11500:11501   */\n      0x00\n        /* \"#utility.yul\":11489:11498   */\n      dup4\n        /* \"#utility.yul\":11485:11502   */\n      add\n        /* \"#utility.yul\":11476:11482   */\n      dup5\n        /* \"#utility.yul\":11432:11503   */\n      tag_182\n      jump\t// in\n    tag_361:\n        /* \"#utility.yul\":11288:11510   */\n      swap3\n      swap2\n      pop\n      pop\n      jump\t// out\n        /* \"#utility.yul\":11516:11845   */\n    tag_28:\n        /* \"#utility.yul\":11575:11581   */\n      0x00\n        /* \"#utility.yul\":11624:11626   */\n      0x20\n        /* \"#utility.yul\":11612:11621   */\n      dup3\n        /* \"#utility.yul\":11603:11610   */\n      dup5\n        /* \"#utility.yul\":11599:11622   */\n      sub\n        /* \"#utility.yul\":11595:11627   */\n      slt\n        /* \"#utility.yul\":11592:11711   */\n      iszero\n      tag_363\n      jumpi\n        /* \"#utility.yul\":11630:11709   */\n      tag_364\n      tag_155\n      jump\t// in\n    tag_364:\n        /* \"#utility.yul\":11592:11711   */\n    tag_363:\n        /* \"#utility.yul\":11750:11751   */\n      0x00\n        /* \"#utility.yul\":11775:11828   */\n      tag_365\n        /* \"#utility.yul\":11820:11827   */\n      dup5\n        /* \"#utility.yul\":11811:11817   */\n      dup3\n        /* \"#utility.yul\":11800:11809   */\n      dup6\n        /* \"#utility.yul\":11796:11818   */\n      add\n        /* \"#utility.yul\":11775:11828   */\n      tag_166\n      jump\t// in\n    tag_365:\n        /* \"#utility.yul\":11765:11828   */\n      swap2\n      pop\n        /* \"#utility.yul\":11721:11838   */\n      pop\n        /* \"#utility.yul\":11516:11845   */\n      swap3\n      swap2\n      pop\n      pop\n      jump\t// out\n        /* \"#utility.yul\":11851:12000   */\n    tag_183:\n        /* \"#utility.yul\":11953:11959   */\n      0x00\n        /* \"#utility.yul\":11987:11992   */\n      dup2\n        /* \"#utility.yul\":11981:11993   */\n      mload\n        /* \"#utility.yul\":11971:11993   */\n      swap1\n      pop\n        /* \"#utility.yul\":11851:12000   */\n      swap2\n      swap1\n      pop\n      jump\t// out\n        /* \"#utility.yul\":12006:12225   */\n    tag_184:\n        /* \"#utility.yul\":12140:12151   */\n      0x00\n        /* \"#utility.yul\":12174:12180   */\n      dup3\n        /* \"#utility.yul\":12169:12172   */\n      dup3\n        /* \"#utility.yul\":12162:12181   */\n      mstore\n        /* \"#utility.yul\":12214:12218   */\n      0x20\n        /* \"#utility.yul\":12209:12212   */\n      dup3\n        /* \"#utility.yul\":12205:12219   */\n      add\n        /* \"#utility.yul\":12190:12219   */\n      swap1\n      pop\n        /* \"#utility.yul\":12006:12225   */\n      swap3\n      swap2\n      pop\n      pop\n      jump\t// out\n        /* \"#utility.yul\":12231:12398   */\n    tag_185:\n        /* \"#utility.yul\":12333:12337   */\n      0x00\n        /* \"#utility.yul\":12356:12359   */\n      dup2\n        /* \"#utility.yul\":12348:12359   */\n      swap1\n      pop\n        /* \"#utility.yul\":12386:12390   */\n      0x20\n        /* \"#utility.yul\":12381:12384   */\n      dup3\n        /* \"#utility.yul\":12377:12391   */\n      add\n        /* \"#utility.yul\":12369:12391   */\n      swap1\n      pop\n        /* \"#utility.yul\":12231:12398   */\n      swap2\n      swap1\n      pop\n      jump\t// out\n        /* \"#utility.yul\":12404:12518   */\n    tag_186:\n        /* \"#utility.yul\":12471:12477   */\n      0x00\n        /* \"#utility.yul\":12505:12510   */\n      dup2\n        /* \"#utility.yul\":12499:12511   */\n      mload\n        /* \"#utility.yul\":12489:12511   */\n      swap1\n      pop\n        /* \"#utility.yul\":12404:12518   */\n      swap2\n      swap1\n      pop\n      jump\t// out\n        /* \"#utility.yul\":12524:12698   */\n    tag_187:\n        /* \"#utility.yul\":12613:12624   */\n      0x00\n        /* \"#utility.yul\":12647:12653   */\n      dup3\n        /* \"#utility.yul\":12642:12645   */\n      dup3\n        /* \"#utility.yul\":12635:12654   */\n      mstore\n        /* \"#utility.yul\":12687:12691   */\n      0x20\n        /* \"#utility.yul\":12682:12685   */\n      dup3\n        /* \"#utility.yul\":12678:12692   */\n      add\n        /* \"#utility.yul\":12663:12692   */\n      swap1\n      pop\n        /* \"#utility.yul\":12524:12698   */\n      swap3\n      swap2\n      pop\n      pop\n      jump\t// out\n        /* \"#utility.yul\":12704:12836   */\n    tag_188:\n        /* \"#utility.yul\":12771:12775   */\n      0x00\n        /* \"#utility.yul\":12794:12797   */\n      dup2\n        /* \"#utility.yul\":12786:12797   */\n      swap1\n      pop\n        /* \"#utility.yul\":12824:12828   */\n      0x20\n        /* \"#utility.yul\":12819:12822   */\n      dup3\n        /* \"#utility.yul\":12815:12829   */\n      add\n        /* \"#utility.yul\":12807:12829   */\n      swap1\n      pop\n        /* \"#utility.yul\":12704:12836   */\n      swap2\n      swap1\n      pop\n      jump\t// out\n        /* \"#utility.yul\":12842:12950   */\n    tag_189:\n        /* \"#utility.yul\":12919:12943   */\n      tag_373\n        /* \"#utility.yul\":12937:12942   */\n      dup2\n        /* \"#utility.yul\":12919:12943   */\n      tag_164\n      jump\t// in\n    tag_373:\n        /* \"#utility.yul\":12914:12917   */\n      dup3\n        /* \"#utility.yul\":12907:12944   */\n      mstore\n        /* \"#utility.yul\":12842:12950   */\n      pop\n      pop\n      jump\t// out\n        /* \"#utility.yul\":12956:13135   */\n    tag_190:\n        /* \"#utility.yul\":13025:13035   */\n      0x00\n        /* \"#utility.yul\":13046:13092   */\n      tag_375\n        /* \"#utility.yul\":13088:13091   */\n      dup4\n        /* \"#utility.yul\":13080:13086   */\n      dup4\n        /* \"#utility.yul\":13046:13092   */\n      tag_189\n      jump\t// in\n    tag_375:\n        /* \"#utility.yul\":13124:13128   */\n      0x20\n        /* \"#utility.yul\":13119:13122   */\n      dup4\n        /* \"#utility.yul\":13115:13129   */\n      add\n        /* \"#utility.yul\":13101:13129   */\n      swap1\n      pop\n        /* \"#utility.yul\":12956:13135   */\n      swap3\n      swap2\n      pop\n      pop\n      jump\t// out\n        /* \"#utility.yul\":13141:13254   */\n    tag_191:\n        /* \"#utility.yul\":13211:13215   */\n      0x00\n        /* \"#utility.yul\":13243:13247   */\n      0x20\n        /* \"#utility.yul\":13238:13241   */\n      dup3\n        /* \"#utility.yul\":13234:13248   */\n      add\n        /* \"#utility.yul\":13226:13248   */\n      swap1\n      pop\n        /* \"#utility.yul\":13141:13254   */\n      swap2\n      swap1\n      pop\n      jump\t// out\n        /* \"#utility.yul\":13290:14002   */\n    tag_192:\n        /* \"#utility.yul\":13399:13402   */\n      0x00\n        /* \"#utility.yul\":13428:13482   */\n      tag_378\n        /* \"#utility.yul\":13476:13481   */\n      dup3\n        /* \"#utility.yul\":13428:13482   */\n      tag_186\n      jump\t// in\n    tag_378:\n        /* \"#utility.yul\":13498:13574   */\n      tag_379\n        /* \"#utility.yul\":13567:13573   */\n      dup2\n        /* \"#utility.yul\":13562:13565   */\n      dup6\n        /* \"#utility.yul\":13498:13574   */\n      tag_187\n      jump\t// in\n    tag_379:\n        /* \"#utility.yul\":13491:13574   */\n      swap4\n      pop\n        /* \"#utility.yul\":13598:13654   */\n      tag_380\n        /* \"#utility.yul\":13648:13653   */\n      dup4\n        /* \"#utility.yul\":13598:13654   */\n      tag_188\n      jump\t// in\n    tag_380:\n        /* \"#utility.yul\":13677:13684   */\n      dup1\n        /* \"#utility.yul\":13708:13709   */\n      0x00\n        /* \"#utility.yul\":13693:13977   */\n    tag_381:\n        /* \"#utility.yul\":13718:13724   */\n      dup4\n        /* \"#utility.yul\":13715:13716   */\n      dup2\n        /* \"#utility.yul\":13712:13725   */\n      lt\n        /* \"#utility.yul\":13693:13977   */\n      iszero\n      tag_383\n      jumpi\n        /* \"#utility.yul\":13794:13800   */\n      dup2\n        /* \"#utility.yul\":13788:13801   */\n      mload\n        /* \"#utility.yul\":13821:13884   */\n      tag_384\n        /* \"#utility.yul\":13880:13883   */\n      dup9\n        /* \"#utility.yul\":13865:13878   */\n      dup3\n        /* \"#utility.yul\":13821:13884   */\n      tag_190\n      jump\t// in\n    tag_384:\n        /* \"#utility.yul\":13814:13884   */\n      swap8\n      pop\n        /* \"#utility.yul\":13907:13967   */\n      tag_385\n        /* \"#utility.yul\":13960:13966   */\n      dup4\n        /* \"#utility.yul\":13907:13967   */\n      tag_191\n      jump\t// in\n    tag_385:\n        /* \"#utility.yul\":13897:13967   */\n      swap3\n      pop\n        /* \"#utility.yul\":13753:13977   */\n      pop\n        /* \"#utility.yul\":13740:13741   */\n      0x01\n        /* \"#utility.yul\":13737:13738   */\n      dup2\n        /* \"#utility.yul\":13733:13742   */\n      add\n        /* \"#utility.yul\":13728:13742   */\n      swap1\n      pop\n        /* \"#utility.yul\":13693:13977   */\n      jump(tag_381)\n    tag_383:\n        /* \"#utility.yul\":13697:13711   */\n      pop\n        /* \"#utility.yul\":13993:13996   */\n      dup6\n        /* \"#utility.yul\":13986:13996   */\n      swap4\n      pop\n        /* \"#utility.yul\":13404:14002   */\n      pop\n      pop\n      pop\n        /* \"#utility.yul\":13290:14002   */\n      swap3\n      swap2\n      pop\n      pop\n      jump\t// out\n        /* \"#utility.yul\":14008:14182   */\n    tag_193:\n        /* \"#utility.yul\":14097:14108   */\n      0x00\n        /* \"#utility.yul\":14131:14137   */\n      dup3\n        /* \"#utility.yul\":14126:14129   */\n      dup3\n        /* \"#utility.yul\":14119:14138   */\n      mstore\n        /* \"#utility.yul\":14171:14175   */\n      0x20\n        /* \"#utility.yul\":14166:14169   */\n      dup3\n        /* \"#utility.yul\":14162:14176   */\n      add\n        /* \"#utility.yul\":14147:14176   */\n      swap1\n      pop\n        /* \"#utility.yul\":14008:14182   */\n      swap3\n      swap2\n      pop\n      pop\n      jump\t// out\n        /* \"#utility.yul\":14218:14930   */\n    tag_194:\n        /* \"#utility.yul\":14327:14330   */\n      0x00\n        /* \"#utility.yul\":14356:14410   */\n      tag_388\n        /* \"#utility.yul\":14404:14409   */\n      dup3\n        /* \"#utility.yul\":14356:14410   */\n      tag_146\n      jump\t// in\n    tag_388:\n        /* \"#utility.yul\":14426:14502   */\n      tag_389\n        /* \"#utility.yul\":14495:14501   */\n      dup2\n        /* \"#utility.yul\":14490:14493   */\n      dup6\n        /* \"#utility.yul\":14426:14502   */\n      tag_193\n      jump\t// in\n    tag_389:\n        /* \"#utility.yul\":14419:14502   */\n      swap4\n      pop\n        /* \"#utility.yul\":14526:14582   */\n      tag_390\n        /* \"#utility.yul\":14576:14581   */\n      dup4\n        /* \"#utility.yul\":14526:14582   */\n      tag_148\n      jump\t// in\n    tag_390:\n        /* \"#utility.yul\":14605:14612   */\n      dup1\n        /* \"#utility.yul\":14636:14637   */\n      0x00\n        /* \"#utility.yul\":14621:14905   */\n    tag_391:\n        /* \"#utility.yul\":14646:14652   */\n      dup4\n        /* \"#utility.yul\":14643:14644   */\n      dup2\n        /* \"#utility.yul\":14640:14653   */\n      lt\n        /* \"#utility.yul\":14621:14905   */\n      iszero\n      tag_393\n      jumpi\n        /* \"#utility.yul\":14722:14728   */\n      dup2\n        /* \"#utility.yul\":14716:14729   */\n      mload\n        /* \"#utility.yul\":14749:14812   */\n      tag_394\n        /* \"#utility.yul\":14808:14811   */\n      dup9\n        /* \"#utility.yul\":14793:14806   */\n      dup3\n        /* \"#utility.yul\":14749:14812   */\n      tag_151\n      jump\t// in\n    tag_394:\n        /* \"#utility.yul\":14742:14812   */\n      swap8\n      pop\n        /* \"#utility.yul\":14835:14895   */\n      tag_395\n        /* \"#utility.yul\":14888:14894   */\n      dup4\n        /* \"#utility.yul\":14835:14895   */\n      tag_152\n      jump\t// in\n    tag_395:\n        /* \"#utility.yul\":14825:14895   */\n      swap3\n      pop\n        /* \"#utility.yul\":14681:14905   */\n      pop\n        /* \"#utility.yul\":14668:14669   */\n      0x01\n        /* \"#utility.yul\":14665:14666   */\n      dup2\n        /* \"#utility.yul\":14661:14670   */\n      add\n        /* \"#utility.yul\":14656:14670   */\n      swap1\n      pop\n        /* \"#utility.yul\":14621:14905   */\n      jump(tag_391)\n    tag_393:\n        /* \"#utility.yul\":14625:14639   */\n      pop\n        /* \"#utility.yul\":14921:14924   */\n      dup6\n        /* \"#utility.yul\":14914:14924   */\n      swap4\n      pop\n        /* \"#utility.yul\":14332:14930   */\n      pop\n      pop\n      pop\n        /* \"#utility.yul\":14218:14930   */\n      swap3\n      swap2\n      pop\n      pop\n      jump\t// out\n        /* \"#utility.yul\":14936:15034   */\n    tag_195:\n        /* \"#utility.yul\":14987:14993   */\n      0x00\n        /* \"#utility.yul\":15021:15026   */\n      dup2\n        /* \"#utility.yul\":15015:15027   */\n      mload\n        /* \"#utility.yul\":15005:15027   */\n      swap1\n      pop\n        /* \"#utility.yul\":14936:15034   */\n      swap2\n      swap1\n      pop\n      jump\t// out\n        /* \"#utility.yul\":15040:15198   */\n    tag_196:\n        /* \"#utility.yul\":15113:15124   */\n      0x00\n        /* \"#utility.yul\":15147:15153   */\n      dup3\n        /* \"#utility.yul\":15142:15145   */\n      dup3\n        /* \"#utility.yul\":15135:15154   */\n      mstore\n        /* \"#utility.yul\":15187:15191   */\n      0x20\n        /* \"#utility.yul\":15182:15185   */\n      dup3\n        /* \"#utility.yul\":15178:15192   */\n      add\n        /* \"#utility.yul\":15163:15192   */\n      swap1\n      pop\n        /* \"#utility.yul\":15040:15198   */\n      swap3\n      swap2\n      pop\n      pop\n      jump\t// out\n        /* \"#utility.yul\":15204:15450   */\n    tag_197:\n        /* \"#utility.yul\":15285:15286   */\n      0x00\n        /* \"#utility.yul\":15295:15408   */\n    tag_399:\n        /* \"#utility.yul\":15309:15315   */\n      dup4\n        /* \"#utility.yul\":15306:15307   */\n      dup2\n        /* \"#utility.yul\":15303:15316   */\n      lt\n        /* \"#utility.yul\":15295:15408   */\n      iszero\n      tag_401\n      jumpi\n        /* \"#utility.yul\":15394:15395   */\n      dup1\n        /* \"#utility.yul\":15389:15392   */\n      dup3\n        /* \"#utility.yul\":15385:15396   */\n      add\n        /* \"#utility.yul\":15379:15397   */\n      mload\n        /* \"#utility.yul\":15375:15376   */\n      dup2\n        /* \"#utility.yul\":15370:15373   */\n      dup5\n        /* \"#utility.yul\":15366:15377   */\n      add\n        /* \"#utility.yul\":15359:15398   */\n      mstore\n        /* \"#utility.yul\":15331:15333   */\n      0x20\n        /* \"#utility.yul\":15328:15329   */\n      dup2\n        /* \"#utility.yul\":15324:15334   */\n      add\n        /* \"#utility.yul\":15319:15334   */\n      swap1\n      pop\n        /* \"#utility.yul\":15295:15408   */\n      jump(tag_399)\n    tag_401:\n        /* \"#utility.yul\":15442:15443   */\n      0x00\n        /* \"#utility.yul\":15433:15439   */\n      dup5\n        /* \"#utility.yul\":15428:15431   */\n      dup5\n        /* \"#utility.yul\":15424:15440   */\n      add\n        /* \"#utility.yul\":15417:15444   */\n      mstore\n        /* \"#utility.yul\":15266:15450   */\n      pop\n        /* \"#utility.yul\":15204:15450   */\n      pop\n      pop\n      pop\n      jump\t// out\n        /* \"#utility.yul\":15456:15809   */\n    tag_198:\n        /* \"#utility.yul\":15532:15535   */\n      0x00\n        /* \"#utility.yul\":15560:15598   */\n      tag_403\n        /* \"#utility.yul\":15592:15597   */\n      dup3\n        /* \"#utility.yul\":15560:15598   */\n      tag_195\n      jump\t// in\n    tag_403:\n        /* \"#utility.yul\":15614:15674   */\n      tag_404\n        /* \"#utility.yul\":15667:15673   */\n      dup2\n        /* \"#utility.yul\":15662:15665   */\n      dup6\n        /* \"#utility.yul\":15614:15674   */\n      tag_196\n      jump\t// in\n    tag_404:\n        /* \"#utility.yul\":15607:15674   */\n      swap4\n      pop\n        /* \"#utility.yul\":15683:15748   */\n      tag_405\n        /* \"#utility.yul\":15741:15747   */\n      dup2\n        /* \"#utility.yul\":15736:15739   */\n      dup6\n        /* \"#utility.yul\":15729:15733   */\n      0x20\n        /* \"#utility.yul\":15722:15727   */\n      dup7\n        /* \"#utility.yul\":15718:15734   */\n      add\n        /* \"#utility.yul\":15683:15748   */\n      tag_197\n      jump\t// in\n    tag_405:\n        /* \"#utility.yul\":15773:15802   */\n      tag_406\n        /* \"#utility.yul\":15795:15801   */\n      dup2\n        /* \"#utility.yul\":15773:15802   */\n      tag_158\n      jump\t// in\n    tag_406:\n        /* \"#utility.yul\":15768:15771   */\n      dup5\n        /* \"#utility.yul\":15764:15803   */\n      add\n        /* \"#utility.yul\":15757:15803   */\n      swap2\n      pop\n        /* \"#utility.yul\":15536:15809   */\n      pop\n        /* \"#utility.yul\":15456:15809   */\n      swap3\n      swap2\n      pop\n      pop\n      jump\t// out\n        /* \"#utility.yul\":15815:15923   */\n    tag_199:\n        /* \"#utility.yul\":15892:15916   */\n      tag_408\n        /* \"#utility.yul\":15910:15915   */\n      dup2\n        /* \"#utility.yul\":15892:15916   */\n      tag_176\n      jump\t// in\n    tag_408:\n        /* \"#utility.yul\":15887:15890   */\n      dup3\n        /* \"#utility.yul\":15880:15917   */\n      mstore\n        /* \"#utility.yul\":15815:15923   */\n      pop\n      pop\n      jump\t// out\n        /* \"#utility.yul\":15929:16034   */\n    tag_200:\n        /* \"#utility.yul\":16004:16027   */\n      tag_410\n        /* \"#utility.yul\":16021:16026   */\n      dup2\n        /* \"#utility.yul\":16004:16027   */\n      tag_179\n      jump\t// in\n    tag_410:\n        /* \"#utility.yul\":15999:16002   */\n      dup3\n        /* \"#utility.yul\":15992:16028   */\n      mstore\n        /* \"#utility.yul\":15929:16034   */\n      pop\n      pop\n      jump\t// out\n        /* \"#utility.yul\":16040:16130   */\n    tag_201:\n        /* \"#utility.yul\":16074:16081   */\n      0x00\n        /* \"#utility.yul\":16117:16122   */\n      dup2\n        /* \"#utility.yul\":16110:16123   */\n      iszero\n        /* \"#utility.yul\":16103:16124   */\n      iszero\n        /* \"#utility.yul\":16092:16124   */\n      swap1\n      pop\n        /* \"#utility.yul\":16040:16130   */\n      swap2\n      swap1\n      pop\n      jump\t// out\n        /* \"#utility.yul\":16136:16235   */\n    tag_202:\n        /* \"#utility.yul\":16207:16228   */\n      tag_413\n        /* \"#utility.yul\":16222:16227   */\n      dup2\n        /* \"#utility.yul\":16207:16228   */\n      tag_201\n      jump\t// in\n    tag_413:\n        /* \"#utility.yul\":16202:16205   */\n      dup3\n        /* \"#utility.yul\":16195:16229   */\n      mstore\n        /* \"#utility.yul\":16136:16235   */\n      pop\n      pop\n      jump\t// out\n        /* \"#utility.yul\":16347:18494   */\n    tag_203:\n        /* \"#utility.yul\":16476:16479   */\n      0x00\n        /* \"#utility.yul\":16512:16518   */\n      0x0120\n        /* \"#utility.yul\":16507:16510   */\n      dup4\n        /* \"#utility.yul\":16503:16519   */\n      add\n        /* \"#utility.yul\":16612:16616   */\n      0x00\n        /* \"#utility.yul\":16605:16610   */\n      dup4\n        /* \"#utility.yul\":16601:16617   */\n      add\n        /* \"#utility.yul\":16595:16618   */\n      mload\n        /* \"#utility.yul\":16665:16668   */\n      dup5\n        /* \"#utility.yul\":16659:16663   */\n      dup3\n        /* \"#utility.yul\":16655:16669   */\n      sub\n        /* \"#utility.yul\":16648:16652   */\n      0x00\n        /* \"#utility.yul\":16643:16646   */\n      dup7\n        /* \"#utility.yul\":16639:16653   */\n      add\n        /* \"#utility.yul\":16632:16670   */\n      mstore\n        /* \"#utility.yul\":16691:16794   */\n      tag_415\n        /* \"#utility.yul\":16789:16793   */\n      dup3\n        /* \"#utility.yul\":16775:16787   */\n      dup3\n        /* \"#utility.yul\":16691:16794   */\n      tag_192\n      jump\t// in\n    tag_415:\n        /* \"#utility.yul\":16683:16794   */\n      swap2\n      pop\n        /* \"#utility.yul\":16529:16805   */\n      pop\n        /* \"#utility.yul\":16887:16891   */\n      0x20\n        /* \"#utility.yul\":16880:16885   */\n      dup4\n        /* \"#utility.yul\":16876:16892   */\n      add\n        /* \"#utility.yul\":16870:16893   */\n      mload\n        /* \"#utility.yul\":16940:16943   */\n      dup5\n        /* \"#utility.yul\":16934:16938   */\n      dup3\n        /* \"#utility.yul\":16930:16944   */\n      sub\n        /* \"#utility.yul\":16923:16927   */\n      0x20\n        /* \"#utility.yul\":16918:16921   */\n      dup7\n        /* \"#utility.yul\":16914:16928   */\n      add\n        /* \"#utility.yul\":16907:16945   */\n      mstore\n        /* \"#utility.yul\":16966:17069   */\n      tag_416\n        /* \"#utility.yul\":17064:17068   */\n      dup3\n        /* \"#utility.yul\":17050:17062   */\n      dup3\n        /* \"#utility.yul\":16966:17069   */\n      tag_194\n      jump\t// in\n    tag_416:\n        /* \"#utility.yul\":16958:17069   */\n      swap2\n      pop\n        /* \"#utility.yul\":16815:17080   */\n      pop\n        /* \"#utility.yul\":17165:17169   */\n      0x40\n        /* \"#utility.yul\":17158:17163   */\n      dup4\n        /* \"#utility.yul\":17154:17170   */\n      add\n        /* \"#utility.yul\":17148:17171   */\n      mload\n        /* \"#utility.yul\":17218:17221   */\n      dup5\n        /* \"#utility.yul\":17212:17216   */\n      dup3\n        /* \"#utility.yul\":17208:17222   */\n      sub\n        /* \"#utility.yul\":17201:17205   */\n      0x40\n        /* \"#utility.yul\":17196:17199   */\n      dup7\n        /* \"#utility.yul\":17192:17206   */\n      add\n        /* \"#utility.yul\":17185:17223   */\n      mstore\n        /* \"#utility.yul\":17244:17315   */\n      tag_417\n        /* \"#utility.yul\":17310:17314   */\n      dup3\n        /* \"#utility.yul\":17296:17308   */\n      dup3\n        /* \"#utility.yul\":17244:17315   */\n      tag_198\n      jump\t// in\n    tag_417:\n        /* \"#utility.yul\":17236:17315   */\n      swap2\n      pop\n        /* \"#utility.yul\":17090:17326   */\n      pop\n        /* \"#utility.yul\":17418:17422   */\n      0x60\n        /* \"#utility.yul\":17411:17416   */\n      dup4\n        /* \"#utility.yul\":17407:17423   */\n      add\n        /* \"#utility.yul\":17401:17424   */\n      mload\n        /* \"#utility.yul\":17471:17474   */\n      dup5\n        /* \"#utility.yul\":17465:17469   */\n      dup3\n        /* \"#utility.yul\":17461:17475   */\n      sub\n        /* \"#utility.yul\":17454:17458   */\n      0x60\n        /* \"#utility.yul\":17449:17452   */\n      dup7\n        /* \"#utility.yul\":17445:17459   */\n      add\n        /* \"#utility.yul\":17438:17476   */\n      mstore\n        /* \"#utility.yul\":17497:17568   */\n      tag_418\n        /* \"#utility.yul\":17563:17567   */\n      dup3\n        /* \"#utility.yul\":17549:17561   */\n      dup3\n        /* \"#utility.yul\":17497:17568   */\n      tag_198\n      jump\t// in\n    tag_418:\n        /* \"#utility.yul\":17489:17568   */\n      swap2\n      pop\n        /* \"#utility.yul\":17336:17579   */\n      pop\n        /* \"#utility.yul\":17664:17668   */\n      0x80\n        /* \"#utility.yul\":17657:17662   */\n      dup4\n        /* \"#utility.yul\":17653:17669   */\n      add\n        /* \"#utility.yul\":17647:17670   */\n      mload\n        /* \"#utility.yul\":17683:17746   */\n      tag_419\n        /* \"#utility.yul\":17740:17744   */\n      0x80\n        /* \"#utility.yul\":17735:17738   */\n      dup7\n        /* \"#utility.yul\":17731:17745   */\n      add\n        /* \"#utility.yul\":17717:17729   */\n      dup3\n        /* \"#utility.yul\":17683:17746   */\n      tag_199\n      jump\t// in\n    tag_419:\n        /* \"#utility.yul\":17589:17756   */\n      pop\n        /* \"#utility.yul\":17842:17846   */\n      0xa0\n        /* \"#utility.yul\":17835:17840   */\n      dup4\n        /* \"#utility.yul\":17831:17847   */\n      add\n        /* \"#utility.yul\":17825:17848   */\n      mload\n        /* \"#utility.yul\":17861:17924   */\n      tag_420\n        /* \"#utility.yul\":17918:17922   */\n      0xa0\n        /* \"#utility.yul\":17913:17916   */\n      dup7\n        /* \"#utility.yul\":17909:17923   */\n      add\n        /* \"#utility.yul\":17895:17907   */\n      dup3\n        /* \"#utility.yul\":17861:17924   */\n      tag_199\n      jump\t// in\n    tag_420:\n        /* \"#utility.yul\":17766:17934   */\n      pop\n        /* \"#utility.yul\":18019:18023   */\n      0xc0\n        /* \"#utility.yul\":18012:18017   */\n      dup4\n        /* \"#utility.yul\":18008:18024   */\n      add\n        /* \"#utility.yul\":18002:18025   */\n      mload\n        /* \"#utility.yul\":18038:18099   */\n      tag_421\n        /* \"#utility.yul\":18093:18097   */\n      0xc0\n        /* \"#utility.yul\":18088:18091   */\n      dup7\n        /* \"#utility.yul\":18084:18098   */\n      add\n        /* \"#utility.yul\":18070:18082   */\n      dup3\n        /* \"#utility.yul\":18038:18099   */\n      tag_200\n      jump\t// in\n    tag_421:\n        /* \"#utility.yul\":17944:18109   */\n      pop\n        /* \"#utility.yul\":18200:18204   */\n      0xe0\n        /* \"#utility.yul\":18193:18198   */\n      dup4\n        /* \"#utility.yul\":18189:18205   */\n      add\n        /* \"#utility.yul\":18183:18206   */\n      mload\n        /* \"#utility.yul\":18219:18280   */\n      tag_422\n        /* \"#utility.yul\":18274:18278   */\n      0xe0\n        /* \"#utility.yul\":18269:18272   */\n      dup7\n        /* \"#utility.yul\":18265:18279   */\n      add\n        /* \"#utility.yul\":18251:18263   */\n      dup3\n        /* \"#utility.yul\":18219:18280   */\n      tag_200\n      jump\t// in\n    tag_422:\n        /* \"#utility.yul\":18119:18290   */\n      pop\n        /* \"#utility.yul\":18377:18383   */\n      0x0100\n        /* \"#utility.yul\":18370:18375   */\n      dup4\n        /* \"#utility.yul\":18366:18384   */\n      add\n        /* \"#utility.yul\":18360:18385   */\n      mload\n        /* \"#utility.yul\":18398:18457   */\n      tag_423\n        /* \"#utility.yul\":18449:18455   */\n      0x0100\n        /* \"#utility.yul\":18444:18447   */\n      dup7\n        /* \"#utility.yul\":18440:18456   */\n      add\n        /* \"#utility.yul\":18426:18438   */\n      dup3\n        /* \"#utility.yul\":18398:18457   */\n      tag_202\n      jump\t// in\n    tag_423:\n        /* \"#utility.yul\":18300:18467   */\n      pop\n        /* \"#utility.yul\":18484:18488   */\n      dup1\n        /* \"#utility.yul\":18477:18488   */\n      swap2\n      pop\n        /* \"#utility.yul\":16481:18494   */\n      pop\n        /* \"#utility.yul\":16347:18494   */\n      swap3\n      swap2\n      pop\n      pop\n      jump\t// out\n        /* \"#utility.yul\":18500:18796   */\n    tag_204:\n        /* \"#utility.yul\":18639:18649   */\n      0x00\n        /* \"#utility.yul\":18674:18790   */\n      tag_425\n        /* \"#utility.yul\":18786:18789   */\n      dup4\n        /* \"#utility.yul\":18778:18784   */\n      dup4\n        /* \"#utility.yul\":18674:18790   */\n      tag_203\n      jump\t// in\n    tag_425:\n        /* \"#utility.yul\":18660:18790   */\n      swap1\n      pop\n        /* \"#utility.yul\":18500:18796   */\n      swap3\n      swap2\n      pop\n      pop\n      jump\t// out\n        /* \"#utility.yul\":18802:18950   */\n    tag_205:\n        /* \"#utility.yul\":18907:18911   */\n      0x00\n        /* \"#utility.yul\":18939:18943   */\n      0x20\n        /* \"#utility.yul\":18934:18937   */\n      dup3\n        /* \"#utility.yul\":18930:18944   */\n      add\n        /* \"#utility.yul\":18922:18944   */\n      swap1\n      pop\n        /* \"#utility.yul\":18802:18950   */\n      swap2\n      swap1\n      pop\n      jump\t// out\n        /* \"#utility.yul\":19066:20257   */\n    tag_206:\n        /* \"#utility.yul\":19255:19258   */\n      0x00\n        /* \"#utility.yul\":19284:19373   */\n      tag_428\n        /* \"#utility.yul\":19367:19372   */\n      dup3\n        /* \"#utility.yul\":19284:19373   */\n      tag_183\n      jump\t// in\n    tag_428:\n        /* \"#utility.yul\":19389:19510   */\n      tag_429\n        /* \"#utility.yul\":19503:19509   */\n      dup2\n        /* \"#utility.yul\":19498:19501   */\n      dup6\n        /* \"#utility.yul\":19389:19510   */\n      tag_184\n      jump\t// in\n    tag_429:\n        /* \"#utility.yul\":19382:19510   */\n      swap4\n      pop\n        /* \"#utility.yul\":19536:19539   */\n      dup4\n        /* \"#utility.yul\":19581:19585   */\n      0x20\n        /* \"#utility.yul\":19573:19579   */\n      dup3\n        /* \"#utility.yul\":19569:19586   */\n      mul\n        /* \"#utility.yul\":19564:19567   */\n      dup6\n        /* \"#utility.yul\":19560:19587   */\n      add\n        /* \"#utility.yul\":19611:19702   */\n      tag_430\n        /* \"#utility.yul\":19696:19701   */\n      dup6\n        /* \"#utility.yul\":19611:19702   */\n      tag_185\n      jump\t// in\n    tag_430:\n        /* \"#utility.yul\":19725:19732   */\n      dup1\n        /* \"#utility.yul\":19756:19757   */\n      0x00\n        /* \"#utility.yul\":19741:20212   */\n    tag_431:\n        /* \"#utility.yul\":19766:19772   */\n      dup6\n        /* \"#utility.yul\":19763:19764   */\n      dup2\n        /* \"#utility.yul\":19760:19773   */\n      lt\n        /* \"#utility.yul\":19741:20212   */\n      iszero\n      tag_433\n      jumpi\n        /* \"#utility.yul\":19837:19846   */\n      dup5\n        /* \"#utility.yul\":19831:19835   */\n      dup5\n        /* \"#utility.yul\":19827:19847   */\n      sub\n        /* \"#utility.yul\":19822:19825   */\n      dup10\n        /* \"#utility.yul\":19815:19848   */\n      mstore\n        /* \"#utility.yul\":19888:19894   */\n      dup2\n        /* \"#utility.yul\":19882:19895   */\n      mload\n        /* \"#utility.yul\":19916:20050   */\n      tag_434\n        /* \"#utility.yul\":20045:20049   */\n      dup6\n        /* \"#utility.yul\":20030:20043   */\n      dup3\n        /* \"#utility.yul\":19916:20050   */\n      tag_204\n      jump\t// in\n    tag_434:\n        /* \"#utility.yul\":19908:20050   */\n      swap5\n      pop\n        /* \"#utility.yul\":20073:20168   */\n      tag_435\n        /* \"#utility.yul\":20161:20167   */\n      dup4\n        /* \"#utility.yul\":20073:20168   */\n      tag_205\n      jump\t// in\n    tag_435:\n        /* \"#utility.yul\":20063:20168   */\n      swap3\n      pop\n        /* \"#utility.yul\":20197:20201   */\n      0x20\n        /* \"#utility.yul\":20192:20195   */\n      dup11\n        /* \"#utility.yul\":20188:20202   */\n      add\n        /* \"#utility.yul\":20181:20202   */\n      swap10\n      pop\n        /* \"#utility.yul\":19801:20212   */\n      pop\n        /* \"#utility.yul\":19788:19789   */\n      0x01\n        /* \"#utility.yul\":19785:19786   */\n      dup2\n        /* \"#utility.yul\":19781:19790   */\n      add\n        /* \"#utility.yul\":19776:19790   */\n      swap1\n      pop\n        /* \"#utility.yul\":19741:20212   */\n      jump(tag_431)\n    tag_433:\n        /* \"#utility.yul\":19745:19759   */\n      pop\n        /* \"#utility.yul\":20228:20232   */\n      dup3\n        /* \"#utility.yul\":20221:20232   */\n      swap8\n      pop\n        /* \"#utility.yul\":20248:20251   */\n      dup8\n        /* \"#utility.yul\":20241:20251   */\n      swap6\n      pop\n        /* \"#utility.yul\":19260:20257   */\n      pop\n      pop\n      pop\n      pop\n      pop\n        /* \"#utility.yul\":19066:20257   */\n      swap3\n      swap2\n      pop\n      pop\n      jump\t// out\n        /* \"#utility.yul\":20263:20776   */\n    tag_31:\n        /* \"#utility.yul\":20476:20480   */\n      0x00\n        /* \"#utility.yul\":20514:20516   */\n      0x20\n        /* \"#utility.yul\":20503:20512   */\n      dup3\n        /* \"#utility.yul\":20499:20517   */\n      add\n        /* \"#utility.yul\":20491:20517   */\n      swap1\n      pop\n        /* \"#utility.yul\":20563:20572   */\n      dup2\n        /* \"#utility.yul\":20557:20561   */\n      dup2\n        /* \"#utility.yul\":20553:20573   */\n      sub\n        /* \"#utility.yul\":20549:20550   */\n      0x00\n        /* \"#utility.yul\":20538:20547   */\n      dup4\n        /* \"#utility.yul\":20534:20551   */\n      add\n        /* \"#utility.yul\":20527:20574   */\n      mstore\n        /* \"#utility.yul\":20591:20769   */\n      tag_437\n        /* \"#utility.yul\":20764:20768   */\n      dup2\n        /* \"#utility.yul\":20755:20761   */\n      dup5\n        /* \"#utility.yul\":20591:20769   */\n      tag_206\n      jump\t// in\n    tag_437:\n        /* \"#utility.yul\":20583:20769   */\n      swap1\n      pop\n        /* \"#utility.yul\":20263:20776   */\n      swap3\n      swap2\n      pop\n      pop\n      jump\t// out\n        /* \"#utility.yul\":20782:21111   */\n    tag_34:\n        /* \"#utility.yul\":20841:20847   */\n      0x00\n        /* \"#utility.yul\":20890:20892   */\n      0x20\n        /* \"#utility.yul\":20878:20887   */\n      dup3\n        /* \"#utility.yul\":20869:20876   */\n      dup5\n        /* \"#utility.yul\":20865:20888   */\n      sub\n        /* \"#utility.yul\":20861:20893   */\n      slt\n        /* \"#utility.yul\":20858:20977   */\n      iszero\n      tag_439\n      jumpi\n        /* \"#utility.yul\":20896:20975   */\n      tag_440\n      tag_155\n      jump\t// in\n    tag_440:\n        /* \"#utility.yul\":20858:20977   */\n    tag_439:\n        /* \"#utility.yul\":21016:21017   */\n      0x00\n        /* \"#utility.yul\":21041:21094   */\n      tag_441\n        /* \"#utility.yul\":21086:21093   */\n      dup5\n        /* \"#utility.yul\":21077:21083   */\n      dup3\n        /* \"#utility.yul\":21066:21075   */\n      dup6\n        /* \"#utility.yul\":21062:21084   */\n      add\n        /* \"#utility.yul\":21041:21094   */\n      tag_171\n      jump\t// in\n    tag_441:\n        /* \"#utility.yul\":21031:21094   */\n      swap2\n      pop\n        /* \"#utility.yul\":20987:21104   */\n      pop\n        /* \"#utility.yul\":20782:21111   */\n      swap3\n      swap2\n      pop\n      pop\n      jump\t// out\n        /* \"#utility.yul\":21117:21285   */\n    tag_207:\n        /* \"#utility.yul\":21200:21211   */\n      0x00\n        /* \"#utility.yul\":21234:21240   */\n      dup3\n        /* \"#utility.yul\":21229:21232   */\n      dup3\n        /* \"#utility.yul\":21222:21241   */\n      mstore\n        /* \"#utility.yul\":21274:21278   */\n      0x20\n        /* \"#utility.yul\":21269:21272   */\n      dup3\n        /* \"#utility.yul\":21265:21279   */\n      add\n        /* \"#utility.yul\":21250:21279   */\n      swap1\n      pop\n        /* \"#utility.yul\":21117:21285   */\n      swap3\n      swap2\n      pop\n      pop\n      jump\t// out\n        /* \"#utility.yul\":21291:21664   */\n    tag_208:\n        /* \"#utility.yul\":21377:21380   */\n      0x00\n        /* \"#utility.yul\":21405:21443   */\n      tag_444\n        /* \"#utility.yul\":21437:21442   */\n      dup3\n        /* \"#utility.yul\":21405:21443   */\n      tag_195\n      jump\t// in\n    tag_444:\n        /* \"#utility.yul\":21459:21529   */\n      tag_445\n        /* \"#utility.yul\":21522:21528   */\n      dup2\n        /* \"#utility.yul\":21517:21520   */\n      dup6\n        /* \"#utility.yul\":21459:21529   */\n      tag_207\n      jump\t// in\n    tag_445:\n        /* \"#utility.yul\":21452:21529   */\n      swap4\n      pop\n        /* \"#utility.yul\":21538:21603   */\n      tag_446\n        /* \"#utility.yul\":21596:21602   */\n      dup2\n        /* \"#utility.yul\":21591:21594   */\n      dup6\n        /* \"#utility.yul\":21584:21588   */\n      0x20\n        /* \"#utility.yul\":21577:21582   */\n      dup7\n        /* \"#utility.yul\":21573:21589   */\n      add\n        /* \"#utility.yul\":21538:21603   */\n      tag_197\n      jump\t// in\n    tag_446:\n        /* \"#utility.yul\":21628:21657   */\n      tag_447\n        /* \"#utility.yul\":21650:21656   */\n      dup2\n        /* \"#utility.yul\":21628:21657   */\n      tag_158\n      jump\t// in\n    tag_447:\n        /* \"#utility.yul\":21623:21626   */\n      dup5\n        /* \"#utility.yul\":21619:21658   */\n      add\n        /* \"#utility.yul\":21612:21658   */\n      swap2\n      pop\n        /* \"#utility.yul\":21381:21664   */\n      pop\n        /* \"#utility.yul\":21291:21664   */\n      swap3\n      swap2\n      pop\n      pop\n      jump\t// out\n        /* \"#utility.yul\":21670:21788   */\n    tag_209:\n        /* \"#utility.yul\":21757:21781   */\n      tag_449\n        /* \"#utility.yul\":21775:21780   */\n      dup2\n        /* \"#utility.yul\":21757:21781   */\n      tag_176\n      jump\t// in\n    tag_449:\n        /* \"#utility.yul\":21752:21755   */\n      dup3\n        /* \"#utility.yul\":21745:21782   */\n      mstore\n        /* \"#utility.yul\":21670:21788   */\n      pop\n      pop\n      jump\t// out\n        /* \"#utility.yul\":21794:21909   */\n    tag_210:\n        /* \"#utility.yul\":21879:21902   */\n      tag_451\n        /* \"#utility.yul\":21896:21901   */\n      dup2\n        /* \"#utility.yul\":21879:21902   */\n      tag_179\n      jump\t// in\n    tag_451:\n        /* \"#utility.yul\":21874:21877   */\n      dup3\n        /* \"#utility.yul\":21867:21903   */\n      mstore\n        /* \"#utility.yul\":21794:21909   */\n      pop\n      pop\n      jump\t// out\n        /* \"#utility.yul\":21915:22024   */\n    tag_211:\n        /* \"#utility.yul\":21996:22017   */\n      tag_453\n        /* \"#utility.yul\":22011:22016   */\n      dup2\n        /* \"#utility.yul\":21996:22017   */\n      tag_201\n      jump\t// in\n    tag_453:\n        /* \"#utility.yul\":21991:21994   */\n      dup3\n        /* \"#utility.yul\":21984:22018   */\n      mstore\n        /* \"#utility.yul\":21915:22024   */\n      pop\n      pop\n      jump\t// out\n        /* \"#utility.yul\":22030:23070   */\n    tag_37:\n        /* \"#utility.yul\":22317:22321   */\n      0x00\n        /* \"#utility.yul\":22355:22358   */\n      0xe0\n        /* \"#utility.yul\":22344:22353   */\n      dup3\n        /* \"#utility.yul\":22340:22359   */\n      add\n        /* \"#utility.yul\":22332:22359   */\n      swap1\n      pop\n        /* \"#utility.yul\":22405:22414   */\n      dup2\n        /* \"#utility.yul\":22399:22403   */\n      dup2\n        /* \"#utility.yul\":22395:22415   */\n      sub\n        /* \"#utility.yul\":22391:22392   */\n      0x00\n        /* \"#utility.yul\":22380:22389   */\n      dup4\n        /* \"#utility.yul\":22376:22393   */\n      add\n        /* \"#utility.yul\":22369:22416   */\n      mstore\n        /* \"#utility.yul\":22433:22509   */\n      tag_455\n        /* \"#utility.yul\":22504:22508   */\n      dup2\n        /* \"#utility.yul\":22495:22501   */\n      dup11\n        /* \"#utility.yul\":22433:22509   */\n      tag_208\n      jump\t// in\n    tag_455:\n        /* \"#utility.yul\":22425:22509   */\n      swap1\n      pop\n        /* \"#utility.yul\":22556:22565   */\n      dup2\n        /* \"#utility.yul\":22550:22554   */\n      dup2\n        /* \"#utility.yul\":22546:22566   */\n      sub\n        /* \"#utility.yul\":22541:22543   */\n      0x20\n        /* \"#utility.yul\":22530:22539   */\n      dup4\n        /* \"#utility.yul\":22526:22544   */\n      add\n        /* \"#utility.yul\":22519:22567   */\n      mstore\n        /* \"#utility.yul\":22584:22660   */\n      tag_456\n        /* \"#utility.yul\":22655:22659   */\n      dup2\n        /* \"#utility.yul\":22646:22652   */\n      dup10\n        /* \"#utility.yul\":22584:22660   */\n      tag_208\n      jump\t// in\n    tag_456:\n        /* \"#utility.yul\":22576:22660   */\n      swap1\n      pop\n        /* \"#utility.yul\":22670:22742   */\n      tag_457\n        /* \"#utility.yul\":22738:22740   */\n      0x40\n        /* \"#utility.yul\":22727:22736   */\n      dup4\n        /* \"#utility.yul\":22723:22741   */\n      add\n        /* \"#utility.yul\":22714:22720   */\n      dup9\n        /* \"#utility.yul\":22670:22742   */\n      tag_209\n      jump\t// in\n    tag_457:\n        /* \"#utility.yul\":22752:22824   */\n      tag_458\n        /* \"#utility.yul\":22820:22822   */\n      0x60\n        /* \"#utility.yul\":22809:22818   */\n      dup4\n        /* \"#utility.yul\":22805:22823   */\n      add\n        /* \"#utility.yul\":22796:22802   */\n      dup8\n        /* \"#utility.yul\":22752:22824   */\n      tag_209\n      jump\t// in\n    tag_458:\n        /* \"#utility.yul\":22834:22905   */\n      tag_459\n        /* \"#utility.yul\":22900:22903   */\n      0x80\n        /* \"#utility.yul\":22889:22898   */\n      dup4\n        /* \"#utility.yul\":22885:22904   */\n      add\n        /* \"#utility.yul\":22876:22882   */\n      dup7\n        /* \"#utility.yul\":22834:22905   */\n      tag_210\n      jump\t// in\n    tag_459:\n        /* \"#utility.yul\":22915:22986   */\n      tag_460\n        /* \"#utility.yul\":22981:22984   */\n      0xa0\n        /* \"#utility.yul\":22970:22979   */\n      dup4\n        /* \"#utility.yul\":22966:22985   */\n      add\n        /* \"#utility.yul\":22957:22963   */\n      dup6\n        /* \"#utility.yul\":22915:22986   */\n      tag_210\n      jump\t// in\n    tag_460:\n        /* \"#utility.yul\":22996:23063   */\n      tag_461\n        /* \"#utility.yul\":23058:23061   */\n      0xc0\n        /* \"#utility.yul\":23047:23056   */\n      dup4\n        /* \"#utility.yul\":23043:23062   */\n      add\n        /* \"#utility.yul\":23034:23040   */\n      dup5\n        /* \"#utility.yul\":22996:23063   */\n      tag_211\n      jump\t// in\n    tag_461:\n        /* \"#utility.yul\":22030:23070   */\n      swap9\n      swap8\n      pop\n      pop\n      pop\n      pop\n      pop\n      pop\n      pop\n      pop\n      jump\t// out\n        /* \"#utility.yul\":23076:23550   */\n    tag_43:\n        /* \"#utility.yul\":23144:23150   */\n      0x00\n        /* \"#utility.yul\":23152:23158   */\n      dup1\n        /* \"#utility.yul\":23201:23203   */\n      0x40\n        /* \"#utility.yul\":23189:23198   */\n      dup4\n        /* \"#utility.yul\":23180:23187   */\n      dup6\n        /* \"#utility.yul\":23176:23199   */\n      sub\n        /* \"#utility.yul\":23172:23204   */\n      slt\n        /* \"#utility.yul\":23169:23288   */\n      iszero\n      tag_463\n      jumpi\n        /* \"#utility.yul\":23207:23286   */\n      tag_464\n      tag_155\n      jump\t// in\n    tag_464:\n        /* \"#utility.yul\":23169:23288   */\n    tag_463:\n        /* \"#utility.yul\":23327:23328   */\n      0x00\n        /* \"#utility.yul\":23352:23405   */\n      tag_465\n        /* \"#utility.yul\":23397:23404   */\n      dup6\n        /* \"#utility.yul\":23388:23394   */\n      dup3\n        /* \"#utility.yul\":23377:23386   */\n      dup7\n        /* \"#utility.yul\":23373:23395   */\n      add\n        /* \"#utility.yul\":23352:23405   */\n      tag_171\n      jump\t// in\n    tag_465:\n        /* \"#utility.yul\":23342:23405   */\n      swap3\n      pop\n        /* \"#utility.yul\":23298:23415   */\n      pop\n        /* \"#utility.yul\":23454:23456   */\n      0x20\n        /* \"#utility.yul\":23480:23533   */\n      tag_466\n        /* \"#utility.yul\":23525:23532   */\n      dup6\n        /* \"#utility.yul\":23516:23522   */\n      dup3\n        /* \"#utility.yul\":23505:23514   */\n      dup7\n        /* \"#utility.yul\":23501:23523   */\n      add\n        /* \"#utility.yul\":23480:23533   */\n      tag_178\n      jump\t// in\n    tag_466:\n        /* \"#utility.yul\":23470:23533   */\n      swap2\n      pop\n        /* \"#utility.yul\":23425:23543   */\n      pop\n        /* \"#utility.yul\":23076:23550   */\n      swap3\n      pop\n      swap3\n      swap1\n      pop\n      jump\t// out\n        /* \"#utility.yul\":23662:25819   */\n    tag_212:\n        /* \"#utility.yul\":23801:23804   */\n      0x00\n        /* \"#utility.yul\":23837:23843   */\n      0x0120\n        /* \"#utility.yul\":23832:23835   */\n      dup4\n        /* \"#utility.yul\":23828:23844   */\n      add\n        /* \"#utility.yul\":23937:23941   */\n      0x00\n        /* \"#utility.yul\":23930:23935   */\n      dup4\n        /* \"#utility.yul\":23926:23942   */\n      add\n        /* \"#utility.yul\":23920:23943   */\n      mload\n        /* \"#utility.yul\":23990:23993   */\n      dup5\n        /* \"#utility.yul\":23984:23988   */\n      dup3\n        /* \"#utility.yul\":23980:23994   */\n      sub\n        /* \"#utility.yul\":23973:23977   */\n      0x00\n        /* \"#utility.yul\":23968:23971   */\n      dup7\n        /* \"#utility.yul\":23964:23978   */\n      add\n        /* \"#utility.yul\":23957:23995   */\n      mstore\n        /* \"#utility.yul\":24016:24119   */\n      tag_468\n        /* \"#utility.yul\":24114:24118   */\n      dup3\n        /* \"#utility.yul\":24100:24112   */\n      dup3\n        /* \"#utility.yul\":24016:24119   */\n      tag_192\n      jump\t// in\n    tag_468:\n        /* \"#utility.yul\":24008:24119   */\n      swap2\n      pop\n        /* \"#utility.yul\":23854:24130   */\n      pop\n        /* \"#utility.yul\":24212:24216   */\n      0x20\n        /* \"#utility.yul\":24205:24210   */\n      dup4\n        /* \"#utility.yul\":24201:24217   */\n      add\n        /* \"#utility.yul\":24195:24218   */\n      mload\n        /* \"#utility.yul\":24265:24268   */\n      dup5\n        /* \"#utility.yul\":24259:24263   */\n      dup3\n        /* \"#utility.yul\":24255:24269   */\n      sub\n        /* \"#utility.yul\":24248:24252   */\n      0x20\n        /* \"#utility.yul\":24243:24246   */\n      dup7\n        /* \"#utility.yul\":24239:24253   */\n      add\n        /* \"#utility.yul\":24232:24270   */\n      mstore\n        /* \"#utility.yul\":24291:24394   */\n      tag_469\n        /* \"#utility.yul\":24389:24393   */\n      dup3\n        /* \"#utility.yul\":24375:24387   */\n      dup3\n        /* \"#utility.yul\":24291:24394   */\n      tag_194\n      jump\t// in\n    tag_469:\n        /* \"#utility.yul\":24283:24394   */\n      swap2\n      pop\n        /* \"#utility.yul\":24140:24405   */\n      pop\n        /* \"#utility.yul\":24490:24494   */\n      0x40\n        /* \"#utility.yul\":24483:24488   */\n      dup4\n        /* \"#utility.yul\":24479:24495   */\n      add\n        /* \"#utility.yul\":24473:24496   */\n      mload\n        /* \"#utility.yul\":24543:24546   */\n      dup5\n        /* \"#utility.yul\":24537:24541   */\n      dup3\n        /* \"#utility.yul\":24533:24547   */\n      sub\n        /* \"#utility.yul\":24526:24530   */\n      0x40\n        /* \"#utility.yul\":24521:24524   */\n      dup7\n        /* \"#utility.yul\":24517:24531   */\n      add\n        /* \"#utility.yul\":24510:24548   */\n      mstore\n        /* \"#utility.yul\":24569:24640   */\n      tag_470\n        /* \"#utility.yul\":24635:24639   */\n      dup3\n        /* \"#utility.yul\":24621:24633   */\n      dup3\n        /* \"#utility.yul\":24569:24640   */\n      tag_198\n      jump\t// in\n    tag_470:\n        /* \"#utility.yul\":24561:24640   */\n      swap2\n      pop\n        /* \"#utility.yul\":24415:24651   */\n      pop\n        /* \"#utility.yul\":24743:24747   */\n      0x60\n        /* \"#utility.yul\":24736:24741   */\n      dup4\n        /* \"#utility.yul\":24732:24748   */\n      add\n        /* \"#utility.yul\":24726:24749   */\n      mload\n        /* \"#utility.yul\":24796:24799   */\n      dup5\n        /* \"#utility.yul\":24790:24794   */\n      dup3\n        /* \"#utility.yul\":24786:24800   */\n      sub\n        /* \"#utility.yul\":24779:24783   */\n      0x60\n        /* \"#utility.yul\":24774:24777   */\n      dup7\n        /* \"#utility.yul\":24770:24784   */\n      add\n        /* \"#utility.yul\":24763:24801   */\n      mstore\n        /* \"#utility.yul\":24822:24893   */\n      tag_471\n        /* \"#utility.yul\":24888:24892   */\n      dup3\n        /* \"#utility.yul\":24874:24886   */\n      dup3\n        /* \"#utility.yul\":24822:24893   */\n      tag_198\n      jump\t// in\n    tag_471:\n        /* \"#utility.yul\":24814:24893   */\n      swap2\n      pop\n        /* \"#utility.yul\":24661:24904   */\n      pop\n        /* \"#utility.yul\":24989:24993   */\n      0x80\n        /* \"#utility.yul\":24982:24987   */\n      dup4\n        /* \"#utility.yul\":24978:24994   */\n      add\n        /* \"#utility.yul\":24972:24995   */\n      mload\n        /* \"#utility.yul\":25008:25071   */\n      tag_472\n        /* \"#utility.yul\":25065:25069   */\n      0x80\n        /* \"#utility.yul\":25060:25063   */\n      dup7\n        /* \"#utility.yul\":25056:25070   */\n      add\n        /* \"#utility.yul\":25042:25054   */\n      dup3\n        /* \"#utility.yul\":25008:25071   */\n      tag_199\n      jump\t// in\n    tag_472:\n        /* \"#utility.yul\":24914:25081   */\n      pop\n        /* \"#utility.yul\":25167:25171   */\n      0xa0\n        /* \"#utility.yul\":25160:25165   */\n      dup4\n        /* \"#utility.yul\":25156:25172   */\n      add\n        /* \"#utility.yul\":25150:25173   */\n      mload\n        /* \"#utility.yul\":25186:25249   */\n      tag_473\n        /* \"#utility.yul\":25243:25247   */\n      0xa0\n        /* \"#utility.yul\":25238:25241   */\n      dup7\n        /* \"#utility.yul\":25234:25248   */\n      add\n        /* \"#utility.yul\":25220:25232   */\n      dup3\n        /* \"#utility.yul\":25186:25249   */\n      tag_199\n      jump\t// in\n    tag_473:\n        /* \"#utility.yul\":25091:25259   */\n      pop\n        /* \"#utility.yul\":25344:25348   */\n      0xc0\n        /* \"#utility.yul\":25337:25342   */\n      dup4\n        /* \"#utility.yul\":25333:25349   */\n      add\n        /* \"#utility.yul\":25327:25350   */\n      mload\n        /* \"#utility.yul\":25363:25424   */\n      tag_474\n        /* \"#utility.yul\":25418:25422   */\n      0xc0\n        /* \"#utility.yul\":25413:25416   */\n      dup7\n        /* \"#utility.yul\":25409:25423   */\n      add\n        /* \"#utility.yul\":25395:25407   */\n      dup3\n        /* \"#utility.yul\":25363:25424   */\n      tag_200\n      jump\t// in\n    tag_474:\n        /* \"#utility.yul\":25269:25434   */\n      pop\n        /* \"#utility.yul\":25525:25529   */\n      0xe0\n        /* \"#utility.yul\":25518:25523   */\n      dup4\n        /* \"#utility.yul\":25514:25530   */\n      add\n        /* \"#utility.yul\":25508:25531   */\n      mload\n        /* \"#utility.yul\":25544:25605   */\n      tag_475\n        /* \"#utility.yul\":25599:25603   */\n      0xe0\n        /* \"#utility.yul\":25594:25597   */\n      dup7\n        /* \"#utility.yul\":25590:25604   */\n      add\n        /* \"#utility.yul\":25576:25588   */\n      dup3\n        /* \"#utility.yul\":25544:25605   */\n      tag_200\n      jump\t// in\n    tag_475:\n        /* \"#utility.yul\":25444:25615   */\n      pop\n        /* \"#utility.yul\":25702:25708   */\n      0x0100\n        /* \"#utility.yul\":25695:25700   */\n      dup4\n        /* \"#utility.yul\":25691:25709   */\n      add\n        /* \"#utility.yul\":25685:25710   */\n      mload\n        /* \"#utility.yul\":25723:25782   */\n      tag_476\n        /* \"#utility.yul\":25774:25780   */\n      0x0100\n        /* \"#utility.yul\":25769:25772   */\n      dup7\n        /* \"#utility.yul\":25765:25781   */\n      add\n        /* \"#utility.yul\":25751:25763   */\n      dup3\n        /* \"#utility.yul\":25723:25782   */\n      tag_202\n      jump\t// in\n    tag_476:\n        /* \"#utility.yul\":25625:25792   */\n      pop\n        /* \"#utility.yul\":25809:25813   */\n      dup1\n        /* \"#utility.yul\":25802:25813   */\n      swap2\n      pop\n        /* \"#utility.yul\":23806:25819   */\n      pop\n        /* \"#utility.yul\":23662:25819   */\n      swap3\n      swap2\n      pop\n      pop\n      jump\t// out\n        /* \"#utility.yul\":25825:26238   */\n    tag_49:\n        /* \"#utility.yul\":25988:25992   */\n      0x00\n        /* \"#utility.yul\":26026:26028   */\n      0x20\n        /* \"#utility.yul\":26015:26024   */\n      dup3\n        /* \"#utility.yul\":26011:26029   */\n      add\n        /* \"#utility.yul\":26003:26029   */\n      swap1\n      pop\n        /* \"#utility.yul\":26075:26084   */\n      dup2\n        /* \"#utility.yul\":26069:26073   */\n      dup2\n        /* \"#utility.yul\":26065:26085   */\n      sub\n        /* \"#utility.yul\":26061:26062   */\n      0x00\n        /* \"#utility.yul\":26050:26059   */\n      dup4\n        /* \"#utility.yul\":26046:26063   */\n      add\n        /* \"#utility.yul\":26039:26086   */\n      mstore\n        /* \"#utility.yul\":26103:26231   */\n      tag_478\n        /* \"#utility.yul\":26226:26230   */\n      dup2\n        /* \"#utility.yul\":26217:26223   */\n      dup5\n        /* \"#utility.yul\":26103:26231   */\n      tag_212\n      jump\t// in\n    tag_478:\n        /* \"#utility.yul\":26095:26231   */\n      swap1\n      pop\n        /* \"#utility.yul\":25825:26238   */\n      swap3\n      swap2\n      pop\n      pop\n      jump\t// out\n        /* \"#utility.yul\":26244:26424   */\n    tag_213:\n        /* \"#utility.yul\":26292:26369   */\n      0x4e487b7100000000000000000000000000000000000000000000000000000000\n        /* \"#utility.yul\":26289:26290   */\n      0x00\n        /* \"#utility.yul\":26282:26370   */\n      mstore\n        /* \"#utility.yul\":26389:26393   */\n      0x22\n        /* \"#utility.yul\":26386:26387   */\n      0x04\n        /* \"#utility.yul\":26379:26394   */\n      mstore\n        /* \"#utility.yul\":26413:26417   */\n      0x24\n        /* \"#utility.yul\":26410:26411   */\n      0x00\n        /* \"#utility.yul\":26403:26418   */\n      revert\n        /* \"#utility.yul\":26430:26750   */\n    tag_89:\n        /* \"#utility.yul\":26474:26480   */\n      0x00\n        /* \"#utility.yul\":26511:26512   */\n      0x02\n        /* \"#utility.yul\":26505:26509   */\n      dup3\n        /* \"#utility.yul\":26501:26513   */\n      div\n        /* \"#utility.yul\":26491:26513   */\n      swap1\n      pop\n        /* \"#utility.yul\":26558:26559   */\n      0x01\n        /* \"#utility.yul\":26552:26556   */\n      dup3\n        /* \"#utility.yul\":26548:26560   */\n      and\n        /* \"#utility.yul\":26579:26597   */\n      dup1\n        /* \"#utility.yul\":26569:26650   */\n      tag_481\n      jumpi\n        /* \"#utility.yul\":26635:26639   */\n      0x7f\n        /* \"#utility.yul\":26627:26633   */\n      dup3\n        /* \"#utility.yul\":26623:26640   */\n      and\n        /* \"#utility.yul\":26613:26640   */\n      swap2\n      pop\n        /* \"#utility.yul\":26569:26650   */\n    tag_481:\n        /* \"#utility.yul\":26697:26699   */\n      0x20\n        /* \"#utility.yul\":26689:26695   */\n      dup3\n        /* \"#utility.yul\":26686:26700   */\n      lt\n        /* \"#utility.yul\":26666:26684   */\n      dup2\n        /* \"#utility.yul\":26663:26701   */\n      sub\n        /* \"#utility.yul\":26660:26744   */\n      tag_482\n      jumpi\n        /* \"#utility.yul\":26716:26734   */\n      tag_483\n      tag_213\n      jump\t// in\n    tag_483:\n        /* \"#utility.yul\":26660:26744   */\n    tag_482:\n        /* \"#utility.yul\":26481:26750   */\n      pop\n        /* \"#utility.yul\":26430:26750   */\n      swap2\n      swap1\n      pop\n      jump\t// out\n        /* \"#utility.yul\":26756:26896   */\n    tag_214:\n        /* \"#utility.yul\":26804:26808   */\n      0x00\n        /* \"#utility.yul\":26827:26830   */\n      dup2\n        /* \"#utility.yul\":26819:26830   */\n      swap1\n      pop\n        /* \"#utility.yul\":26850:26853   */\n      dup2\n        /* \"#utility.yul\":26847:26848   */\n      0x00\n        /* \"#utility.yul\":26840:26854   */\n      mstore\n        /* \"#utility.yul\":26884:26888   */\n      0x20\n        /* \"#utility.yul\":26881:26882   */\n      0x00\n        /* \"#utility.yul\":26871:26889   */\n      keccak256\n        /* \"#utility.yul\":26863:26889   */\n      swap1\n      pop\n        /* \"#utility.yul\":26756:26896   */\n      swap2\n      swap1\n      pop\n      jump\t// out\n        /* \"#utility.yul\":26902:26995   */\n    tag_215:\n        /* \"#utility.yul\":26939:26945   */\n      0x00\n        /* \"#utility.yul\":26986:26988   */\n      0x20\n        /* \"#utility.yul\":26981:26983   */\n      0x1f\n        /* \"#utility.yul\":26974:26979   */\n      dup4\n        /* \"#utility.yul\":26970:26984   */\n      add\n        /* \"#utility.yul\":26966:26989   */\n      div\n        /* \"#utility.yul\":26956:26989   */\n      swap1\n      pop\n        /* \"#utility.yul\":26902:26995   */\n      swap2\n      swap1\n      pop\n      jump\t// out\n        /* \"#utility.yul\":27001:27108   */\n    tag_216:\n        /* \"#utility.yul\":27045:27053   */\n      0x00\n        /* \"#utility.yul\":27095:27100   */\n      dup3\n        /* \"#utility.yul\":27089:27093   */\n      dup3\n        /* \"#utility.yul\":27085:27101   */\n      shl\n        /* \"#utility.yul\":27064:27101   */\n      swap1\n      pop\n        /* \"#utility.yul\":27001:27108   */\n      swap3\n      swap2\n      pop\n      pop\n      jump\t// out\n        /* \"#utility.yul\":27114:27507   */\n    tag_217:\n        /* \"#utility.yul\":27183:27189   */\n      0x00\n        /* \"#utility.yul\":27233:27234   */\n      0x08\n        /* \"#utility.yul\":27221:27231   */\n      dup4\n        /* \"#utility.yul\":27217:27235   */\n      mul\n        /* \"#utility.yul\":27256:27353   */\n      tag_488\n        /* \"#utility.yul\":27286:27352   */\n      0xffffffffffffffffffffffffffffffffffffffffffffffffffffffffffffffff\n        /* \"#utility.yul\":27275:27284   */\n      dup3\n        /* \"#utility.yul\":27256:27353   */\n      tag_216\n      jump\t// in\n    tag_488:\n        /* \"#utility.yul\":27374:27413   */\n      tag_489\n        /* \"#utility.yul\":27404:27412   */\n      dup7\n        /* \"#utility.yul\":27393:27402   */\n      dup4\n        /* \"#utility.yul\":27374:27413   */\n      tag_216\n      jump\t// in\n    tag_489:\n        /* \"#utility.yul\":27362:27413   */\n      swap6\n      pop\n        /* \"#utility.yul\":27446:27450   */\n      dup1\n        /* \"#utility.yul\":27442:27451   */\n      not\n        /* \"#utility.yul\":27435:27440   */\n      dup5\n        /* \"#utility.yul\":27431:27452   */\n      and\n        /* \"#utility.yul\":27422:27452   */\n      swap4\n      pop\n        /* \"#utility.yul\":27495:27499   */\n      dup1\n        /* \"#utility.yul\":27485:27493   */\n      dup7\n        /* \"#utility.yul\":27481:27500   */\n      and\n        /* \"#utility.yul\":27474:27479   */\n      dup5\n        /* \"#utility.yul\":27471:27501   */\n      or\n        /* \"#utility.yul\":27461:27501   */\n      swap3\n      pop\n        /* \"#utility.yul\":27190:27507   */\n      pop\n      pop\n        /* \"#utility.yul\":27114:27507   */\n      swap4\n      swap3\n      pop\n      pop\n      pop\n      jump\t// out\n        /* \"#utility.yul\":27513:27573   */\n    tag_218:\n        /* \"#utility.yul\":27541:27544   */\n      0x00\n        /* \"#utility.yul\":27562:27567   */\n      dup2\n        /* \"#utility.yul\":27555:27567   */\n      swap1\n      pop\n        /* \"#utility.yul\":27513:27573   */\n      swap2\n      swap1\n      pop\n      jump\t// out\n        /* \"#utility.yul\":27579:27721   */\n    tag_219:\n        /* \"#utility.yul\":27629:27638   */\n      0x00\n        /* \"#utility.yul\":27662:27715   */\n      tag_492\n        /* \"#utility.yul\":27680:27714   */\n      tag_493\n        /* \"#utility.yul\":27689:27713   */\n      tag_494\n        /* \"#utility.yul\":27707:27712   */\n      dup5\n        /* \"#utility.yul\":27689:27713   */\n      tag_149\n      jump\t// in\n    tag_494:\n        /* \"#utility.yul\":27680:27714   */\n      tag_218\n      jump\t// in\n    tag_493:\n        /* \"#utility.yul\":27662:27715   */\n      tag_149\n      jump\t// in\n    tag_492:\n        /* \"#utility.yul\":27649:27715   */\n      swap1\n      pop\n        /* \"#utility.yul\":27579:27721   */\n      swap2\n      swap1\n      pop\n      jump\t// out\n        /* \"#utility.yul\":27727:27802   */\n    tag_220:\n        /* \"#utility.yul\":27770:27773   */\n      0x00\n        /* \"#utility.yul\":27791:27796   */\n      dup2\n        /* \"#utility.yul\":27784:27796   */\n      swap1\n      pop\n        /* \"#utility.yul\":27727:27802   */\n      swap2\n      swap1\n      pop\n      jump\t// out\n        /* \"#utility.yul\":27808:28077   */\n    tag_221:\n        /* \"#utility.yul\":27918:27957   */\n      tag_497\n        /* \"#utility.yul\":27949:27956   */\n      dup4\n        /* \"#utility.yul\":27918:27957   */\n      tag_219\n      jump\t// in\n    tag_497:\n        /* \"#utility.yul\":27979:28070   */\n      tag_498\n        /* \"#utility.yul\":28028:28069   */\n      tag_499\n        /* \"#utility.yul\":28052:28068   */\n      dup3\n        /* \"#utility.yul\":28028:28069   */\n      tag_220\n      jump\t// in\n    tag_499:\n        /* \"#utility.yul\":28020:28026   */\n      dup5\n        /* \"#utility.yul\":28013:28017   */\n      dup5\n        /* \"#utility.yul\":28007:28018   */\n      sload\n        /* \"#utility.yul\":27979:28070   */\n      tag_217\n      jump\t// in\n    tag_498:\n        /* \"#utility.yul\":27973:27977   */\n      dup3\n        /* \"#utility.yul\":27966:28071   */\n      sstore\n        /* \"#utility.yul\":27884:28077   */\n      pop\n        /* \"#utility.yul\":27808:28077   */\n      pop\n      pop\n      pop\n      jump\t// out\n        /* \"#utility.yul\":28083:28156   */\n    tag_222:\n        /* \"#utility.yul\":28128:28131   */\n      0x00\n        /* \"#utility.yul\":28083:28156   */\n      swap1\n      jump\t// out\n        /* \"#utility.yul\":28162:28351   */\n    tag_223:\n        /* \"#utility.yul\":28239:28271   */\n      tag_502\n      tag_222\n      jump\t// in\n    tag_502:\n        /* \"#utility.yul\":28280:28345   */\n      tag_503\n        /* \"#utility.yul\":28338:28344   */\n      dup2\n        /* \"#utility.yul\":28330:28336   */\n      dup5\n        /* \"#utility.yul\":28324:28328   */\n      dup5\n        /* \"#utility.yul\":28280:28345   */\n      tag_221\n      jump\t// in\n    tag_503:\n        /* \"#utility.yul\":28215:28351   */\n      pop\n        /* \"#utility.yul\":28162:28351   */\n      pop\n      pop\n      jump\t// out\n        /* \"#utility.yul\":28357:28543   */\n    tag_224:\n        /* \"#utility.yul\":28417:28537   */\n    tag_505:\n        /* \"#utility.yul\":28434:28437   */\n      dup2\n        /* \"#utility.yul\":28427:28432   */\n      dup2\n        /* \"#utility.yul\":28424:28438   */\n      lt\n        /* \"#utility.yul\":28417:28537   */\n      iszero\n      tag_507\n      jumpi\n        /* \"#utility.yul\":28488:28527   */\n      tag_508\n        /* \"#utility.yul\":28525:28526   */\n      0x00\n        /* \"#utility.yul\":28518:28523   */\n      dup3\n        /* \"#utility.yul\":28488:28527   */\n      tag_223\n      jump\t// in\n    tag_508:\n        /* \"#utility.yul\":28461:28462   */\n      0x01\n        /* \"#utility.yul\":28454:28459   */\n      dup2\n        /* \"#utility.yul\":28450:28463   */\n      add\n        /* \"#utility.yul\":28441:28463   */\n      swap1\n      pop\n        /* \"#utility.yul\":28417:28537   */\n      jump(tag_505)\n    tag_507:\n        /* \"#utility.yul\":28357:28543   */\n      pop\n      pop\n      jump\t// out\n        /* \"#utility.yul\":28549:29090   */\n    tag_225:\n        /* \"#utility.yul\":28649:28651   */\n      0x1f\n        /* \"#utility.yul\":28644:28647   */\n      dup3\n        /* \"#utility.yul\":28641:28652   */\n      gt\n        /* \"#utility.yul\":28638:29083   */\n      iszero\n      tag_510\n      jumpi\n        /* \"#utility.yul\":28683:28720   */\n      tag_511\n        /* \"#utility.yul\":28714:28719   */\n      dup2\n        /* \"#utility.yul\":28683:28720   */\n      tag_214\n      jump\t// in\n    tag_511:\n        /* \"#utility.yul\":28766:28795   */\n      tag_512\n        /* \"#utility.yul\":28784:28794   */\n      dup5\n        /* \"#utility.yul\":28766:28795   */\n      tag_215\n      jump\t// in\n    tag_512:\n        /* \"#utility.yul\":28756:28764   */\n      dup2\n        /* \"#utility.yul\":28752:28796   */\n      add\n        /* \"#utility.yul\":28949:28951   */\n      0x20\n        /* \"#utility.yul\":28937:28947   */\n      dup6\n        /* \"#utility.yul\":28934:28952   */\n      lt\n        /* \"#utility.yul\":28931:28980   */\n      iszero\n      tag_513\n      jumpi\n        /* \"#utility.yul\":28970:28978   */\n      dup2\n        /* \"#utility.yul\":28955:28978   */\n      swap1\n      pop\n        /* \"#utility.yul\":28931:28980   */\n    tag_513:\n        /* \"#utility.yul\":28993:29073   */\n      tag_514\n        /* \"#utility.yul\":29049:29071   */\n      tag_515\n        /* \"#utility.yul\":29067:29070   */\n      dup6\n        /* \"#utility.yul\":29049:29071   */\n      tag_215\n      jump\t// in\n    tag_515:\n        /* \"#utility.yul\":29039:29047   */\n      dup4\n        /* \"#utility.yul\":29035:29072   */\n      add\n        /* \"#utility.yul\":29022:29033   */\n      dup3\n        /* \"#utility.yul\":28993:29073   */\n      tag_224\n      jump\t// in\n    tag_514:\n        /* \"#utility.yul\":28653:29083   */\n      pop\n      pop\n        /* \"#utility.yul\":28638:29083   */\n    tag_510:\n        /* \"#utility.yul\":28549:29090   */\n      pop\n      pop\n      pop\n      jump\t// out\n        /* \"#utility.yul\":29096:29213   */\n    tag_226:\n        /* \"#utility.yul\":29150:29158   */\n      0x00\n        /* \"#utility.yul\":29200:29205   */\n      dup3\n        /* \"#utility.yul\":29194:29198   */\n      dup3\n        /* \"#utility.yul\":29190:29206   */\n      shr\n        /* \"#utility.yul\":29169:29206   */\n      swap1\n      pop\n        /* \"#utility.yul\":29096:29213   */\n      swap3\n      swap2\n      pop\n      pop\n      jump\t// out\n        /* \"#utility.yul\":29219:29388   */\n    tag_227:\n        /* \"#utility.yul\":29263:29269   */\n      0x00\n        /* \"#utility.yul\":29296:29347   */\n      tag_518\n        /* \"#utility.yul\":29344:29345   */\n      0x00\n        /* \"#utility.yul\":29340:29346   */\n      not\n        /* \"#utility.yul\":29332:29337   */\n      dup5\n        /* \"#utility.yul\":29329:29330   */\n      0x08\n        /* \"#utility.yul\":29325:29338   */\n      mul\n        /* \"#utility.yul\":29296:29347   */\n      tag_226\n      jump\t// in\n    tag_518:\n        /* \"#utility.yul\":29292:29348   */\n      not\n        /* \"#utility.yul\":29377:29381   */\n      dup1\n        /* \"#utility.yul\":29371:29375   */\n      dup4\n        /* \"#utility.yul\":29367:29382   */\n      and\n        /* \"#utility.yul\":29357:29382   */\n      swap2\n      pop\n        /* \"#utility.yul\":29270:29388   */\n      pop\n        /* \"#utility.yul\":29219:29388   */\n      swap3\n      swap2\n      pop\n      pop\n      jump\t// out\n        /* \"#utility.yul\":29393:29688   */\n    tag_228:\n        /* \"#utility.yul\":29469:29473   */\n      0x00\n        /* \"#utility.yul\":29615:29644   */\n      tag_520\n        /* \"#utility.yul\":29640:29643   */\n      dup4\n        /* \"#utility.yul\":29634:29638   */\n      dup4\n        /* \"#utility.yul\":29615:29644   */\n      tag_227\n      jump\t// in\n    tag_520:\n        /* \"#utility.yul\":29607:29644   */\n      swap2\n      pop\n        /* \"#utility.yul\":29677:29680   */\n      dup3\n        /* \"#utility.yul\":29674:29675   */\n      0x02\n        /* \"#utility.yul\":29670:29681   */\n      mul\n        /* \"#utility.yul\":29664:29668   */\n      dup3\n        /* \"#utility.yul\":29661:29682   */\n      or\n        /* \"#utility.yul\":29653:29682   */\n      swap1\n      pop\n        /* \"#utility.yul\":29393:29688   */\n      swap3\n      swap2\n      pop\n      pop\n      jump\t// out\n        /* \"#utility.yul\":29693:31083   */\n    tag_59:\n        /* \"#utility.yul\":29808:29844   */\n      tag_522\n        /* \"#utility.yul\":29840:29843   */\n      dup3\n        /* \"#utility.yul\":29808:29844   */\n      tag_195\n      jump\t// in\n    tag_522:\n        /* \"#utility.yul\":29909:29927   */\n      0xffffffffffffffff\n        /* \"#utility.yul\":29901:29907   */\n      dup2\n        /* \"#utility.yul\":29898:29928   */\n      gt\n        /* \"#utility.yul\":29895:29951   */\n      iszero\n      tag_523\n      jumpi\n        /* \"#utility.yul\":29931:29949   */\n      tag_524\n      tag_73\n      jump\t// in\n    tag_524:\n        /* \"#utility.yul\":29895:29951   */\n    tag_523:\n        /* \"#utility.yul\":29975:30013   */\n      tag_525\n        /* \"#utility.yul\":30007:30011   */\n      dup3\n        /* \"#utility.yul\":30001:30012   */\n      sload\n        /* \"#utility.yul\":29975:30013   */\n      tag_89\n      jump\t// in\n    tag_525:\n        /* \"#utility.yul\":30060:30126   */\n      tag_526\n        /* \"#utility.yul\":30119:30125   */\n      dup3\n        /* \"#utility.yul\":30111:30117   */\n      dup3\n        /* \"#utility.yul\":30105:30109   */\n      dup6\n        /* \"#utility.yul\":30060:30126   */\n      tag_225\n      jump\t// in\n    tag_526:\n        /* \"#utility.yul\":30153:30154   */\n      0x00\n        /* \"#utility.yul\":30177:30181   */\n      0x20\n        /* \"#utility.yul\":30164:30181   */\n      swap1\n      pop\n        /* \"#utility.yul\":30209:30211   */\n      0x1f\n        /* \"#utility.yul\":30201:30207   */\n      dup4\n        /* \"#utility.yul\":30198:30212   */\n      gt\n        /* \"#utility.yul\":30226:30227   */\n      0x01\n        /* \"#utility.yul\":30221:30838   */\n      dup2\n      eq\n      tag_528\n      jumpi\n        /* \"#utility.yul\":30882:30883   */\n      0x00\n        /* \"#utility.yul\":30899:30905   */\n      dup5\n        /* \"#utility.yul\":30896:30973   */\n      iszero\n      tag_529\n      jumpi\n        /* \"#utility.yul\":30948:30957   */\n      dup3\n        /* \"#utility.yul\":30943:30946   */\n      dup8\n        /* \"#utility.yul\":30939:30958   */\n      add\n        /* \"#utility.yul\":30933:30959   */\n      mload\n        /* \"#utility.yul\":30924:30959   */\n      swap1\n      pop\n        /* \"#utility.yul\":30896:30973   */\n    tag_529:\n        /* \"#utility.yul\":30999:31066   */\n      tag_530\n        /* \"#utility.yul\":31059:31065   */\n      dup6\n        /* \"#utility.yul\":31052:31057   */\n      dup3\n        /* \"#utility.yul\":30999:31066   */\n      tag_228\n      jump\t// in\n    tag_530:\n        /* \"#utility.yul\":30993:30997   */\n      dup7\n        /* \"#utility.yul\":30986:31067   */\n      sstore\n        /* \"#utility.yul\":30855:31077   */\n      pop\n        /* \"#utility.yul\":30191:31077   */\n      jump(tag_527)\n        /* \"#utility.yul\":30221:30838   */\n    tag_528:\n        /* \"#utility.yul\":30273:30277   */\n      0x1f\n        /* \"#utility.yul\":30269:30278   */\n      not\n        /* \"#utility.yul\":30261:30267   */\n      dup5\n        /* \"#utility.yul\":30257:30279   */\n      and\n        /* \"#utility.yul\":30307:30343   */\n      tag_531\n        /* \"#utility.yul\":30338:30342   */\n      dup7\n        /* \"#utility.yul\":30307:30343   */\n      tag_214\n      jump\t// in\n    tag_531:\n        /* \"#utility.yul\":30365:30366   */\n      0x00\n        /* \"#utility.yul\":30379:30587   */\n    tag_532:\n        /* \"#utility.yul\":30393:30400   */\n      dup3\n        /* \"#utility.yul\":30390:30391   */\n      dup2\n        /* \"#utility.yul\":30387:30401   */\n      lt\n        /* \"#utility.yul\":30379:30587   */\n      iszero\n      tag_534\n      jumpi\n        /* \"#utility.yul\":30472:30481   */\n      dup5\n        /* \"#utility.yul\":30467:30470   */\n      dup10\n        /* \"#utility.yul\":30463:30482   */\n      add\n        /* \"#utility.yul\":30457:30483   */\n      mload\n        /* \"#utility.yul\":30449:30455   */\n      dup3\n        /* \"#utility.yul\":30442:30484   */\n      sstore\n        /* \"#utility.yul\":30523:30524   */\n      0x01\n        /* \"#utility.yul\":30515:30521   */\n      dup3\n        /* \"#utility.yul\":30511:30525   */\n      add\n        /* \"#utility.yul\":30501:30525   */\n      swap2\n      pop\n        /* \"#utility.yul\":30570:30572   */\n      0x20\n        /* \"#utility.yul\":30559:30568   */\n      dup6\n        /* \"#utility.yul\":30555:30573   */\n      add\n        /* \"#utility.yul\":30542:30573   */\n      swap5\n      pop\n        /* \"#utility.yul\":30416:30420   */\n      0x20\n        /* \"#utility.yul\":30413:30414   */\n      dup2\n        /* \"#utility.yul\":30409:30421   */\n      add\n        /* \"#utility.yul\":30404:30421   */\n      swap1\n      pop\n        /* \"#utility.yul\":30379:30587   */\n      jump(tag_532)\n    tag_534:\n        /* \"#utility.yul\":30615:30621   */\n      dup7\n        /* \"#utility.yul\":30606:30613   */\n      dup4\n        /* \"#utility.yul\":30603:30622   */\n      lt\n        /* \"#utility.yul\":30600:30779   */\n      iszero\n      tag_535\n      jumpi\n        /* \"#utility.yul\":30673:30682   */\n      dup5\n        /* \"#utility.yul\":30668:30671   */\n      dup10\n        /* \"#utility.yul\":30664:30683   */\n      add\n        /* \"#utility.yul\":30658:30684   */\n      mload\n        /* \"#utility.yul\":30716:30764   */\n      tag_536\n        /* \"#utility.yul\":30758:30762   */\n      0x1f\n        /* \"#utility.yul\":30750:30756   */\n      dup10\n        /* \"#utility.yul\":30746:30763   */\n      and\n        /* \"#utility.yul\":30735:30744   */\n      dup3\n        /* \"#utility.yul\":30716:30764   */\n      tag_227\n      jump\t// in\n    tag_536:\n        /* \"#utility.yul\":30708:30714   */\n      dup4\n        /* \"#utility.yul\":30701:30765   */\n      sstore\n        /* \"#utility.yul\":30623:30779   */\n      pop\n        /* \"#utility.yul\":30600:30779   */\n    tag_535:\n        /* \"#utility.yul\":30825:30826   */\n      0x01\n        /* \"#utility.yul\":30821:30822   */\n      0x02\n        /* \"#utility.yul\":30813:30819   */\n      dup9\n        /* \"#utility.yul\":30809:30823   */\n      mul\n        /* \"#utility.yul\":30805:30827   */\n      add\n        /* \"#utility.yul\":30799:30803   */\n      dup9\n        /* \"#utility.yul\":30792:30828   */\n      sstore\n        /* \"#utility.yul\":30228:30838   */\n      pop\n      pop\n      pop\n        /* \"#utility.yul\":30191:31077   */\n    tag_527:\n      pop\n        /* \"#utility.yul\":29783:31083   */\n      pop\n      pop\n      pop\n        /* \"#utility.yul\":29693:31083   */\n      pop\n      pop\n      jump\t// out\n        /* \"#utility.yul\":31089:31273   */\n    tag_229:\n        /* \"#utility.yul\":31188:31199   */\n      0x00\n        /* \"#utility.yul\":31222:31228   */\n      dup3\n        /* \"#utility.yul\":31217:31220   */\n      dup3\n        /* \"#utility.yul\":31210:31229   */\n      mstore\n        /* \"#utility.yul\":31262:31266   */\n      0x20\n        /* \"#utility.yul\":31257:31260   */\n      dup3\n        /* \"#utility.yul\":31253:31267   */\n      add\n        /* \"#utility.yul\":31238:31267   */\n      swap1\n      pop\n        /* \"#utility.yul\":31089:31273   */\n      swap3\n      swap2\n      pop\n      pop\n      jump\t// out\n        /* \"#utility.yul\":31309:32041   */\n    tag_230:\n        /* \"#utility.yul\":31428:31431   */\n      0x00\n        /* \"#utility.yul\":31457:31511   */\n      tag_539\n        /* \"#utility.yul\":31505:31510   */\n      dup3\n        /* \"#utility.yul\":31457:31511   */\n      tag_186\n      jump\t// in\n    tag_539:\n        /* \"#utility.yul\":31527:31613   */\n      tag_540\n        /* \"#utility.yul\":31606:31612   */\n      dup2\n        /* \"#utility.yul\":31601:31604   */\n      dup6\n        /* \"#utility.yul\":31527:31613   */\n      tag_229\n      jump\t// in\n    tag_540:\n        /* \"#utility.yul\":31520:31613   */\n      swap4\n      pop\n        /* \"#utility.yul\":31637:31693   */\n      tag_541\n        /* \"#utility.yul\":31687:31692   */\n      dup4\n        /* \"#utility.yul\":31637:31693   */\n      tag_188\n      jump\t// in\n    tag_541:\n        /* \"#utility.yul\":31716:31723   */\n      dup1\n        /* \"#utility.yul\":31747:31748   */\n      0x00\n        /* \"#utility.yul\":31732:32016   */\n    tag_542:\n        /* \"#utility.yul\":31757:31763   */\n      dup4\n        /* \"#utility.yul\":31754:31755   */\n      dup2\n        /* \"#utility.yul\":31751:31764   */\n      lt\n        /* \"#utility.yul\":31732:32016   */\n      iszero\n      tag_544\n      jumpi\n        /* \"#utility.yul\":31833:31839   */\n      dup2\n        /* \"#utility.yul\":31827:31840   */\n      mload\n        /* \"#utility.yul\":31860:31923   */\n      tag_545\n        /* \"#utility.yul\":31919:31922   */\n      dup9\n        /* \"#utility.yul\":31904:31917   */\n      dup3\n        /* \"#utility.yul\":31860:31923   */\n      tag_190\n      jump\t// in\n    tag_545:\n        /* \"#utility.yul\":31853:31923   */\n      swap8\n      pop\n        /* \"#utility.yul\":31946:32006   */\n      tag_546\n        /* \"#utility.yul\":31999:32005   */\n      dup4\n        /* \"#utility.yul\":31946:32006   */\n      tag_191\n      jump\t// in\n    tag_546:\n        /* \"#utility.yul\":31936:32006   */\n      swap3\n      pop\n        /* \"#utility.yul\":31792:32016   */\n      pop\n        /* \"#utility.yul\":31779:31780   */\n      0x01\n        /* \"#utility.yul\":31776:31777   */\n      dup2\n        /* \"#utility.yul\":31772:31781   */\n      add\n        /* \"#utility.yul\":31767:31781   */\n      swap1\n      pop\n        /* \"#utility.yul\":31732:32016   */\n      jump(tag_542)\n    tag_544:\n        /* \"#utility.yul\":31736:31750   */\n      pop\n        /* \"#utility.yul\":32032:32035   */\n      dup6\n        /* \"#utility.yul\":32025:32035   */\n      swap4\n      pop\n        /* \"#utility.yul\":31433:32041   */\n      pop\n      pop\n      pop\n        /* \"#utility.yul\":31309:32041   */\n      swap3\n      swap2\n      pop\n      pop\n      jump\t// out\n        /* \"#utility.yul\":32047:32193   */\n    tag_231:\n        /* \"#utility.yul\":32144:32150   */\n      dup3\n        /* \"#utility.yul\":32139:32142   */\n      dup2\n        /* \"#utility.yul\":32134:32137   */\n      dup4\n        /* \"#utility.yul\":32121:32151   */\n      calldatacopy\n        /* \"#utility.yul\":32185:32186   */\n      0x00\n        /* \"#utility.yul\":32176:32182   */\n      dup4\n        /* \"#utility.yul\":32171:32174   */\n      dup4\n        /* \"#utility.yul\":32167:32183   */\n      add\n        /* \"#utility.yul\":32160:32187   */\n      mstore\n        /* \"#utility.yul\":32047:32193   */\n      pop\n      pop\n      pop\n      jump\t// out\n        /* \"#utility.yul\":32221:32535   */\n    tag_232:\n        /* \"#utility.yul\":32317:32320   */\n      0x00\n        /* \"#utility.yul\":32338:32408   */\n      tag_549\n        /* \"#utility.yul\":32401:32407   */\n      dup4\n        /* \"#utility.yul\":32396:32399   */\n      dup6\n        /* \"#utility.yul\":32338:32408   */\n      tag_207\n      jump\t// in\n    tag_549:\n        /* \"#utility.yul\":32331:32408   */\n      swap4\n      pop\n        /* \"#utility.yul\":32418:32474   */\n      tag_550\n        /* \"#utility.yul\":32467:32473   */\n      dup4\n        /* \"#utility.yul\":32462:32465   */\n      dup6\n        /* \"#utility.yul\":32455:32460   */\n      dup5\n        /* \"#utility.yul\":32418:32474   */\n      tag_231\n      jump\t// in\n    tag_550:\n        /* \"#utility.yul\":32499:32528   */\n      tag_551\n        /* \"#utility.yul\":32521:32527   */\n      dup4\n        /* \"#utility.yul\":32499:32528   */\n      tag_158\n      jump\t// in\n    tag_551:\n        /* \"#utility.yul\":32494:32497   */\n      dup5\n        /* \"#utility.yul\":32490:32529   */\n      add\n        /* \"#utility.yul\":32483:32529   */\n      swap1\n      pop\n        /* \"#utility.yul\":32221:32535   */\n      swap4\n      swap3\n      pop\n      pop\n      pop\n      jump\t// out\n        /* \"#utility.yul\":32541:34046   */\n    tag_63:\n        /* \"#utility.yul\":32982:32986   */\n      0x00\n        /* \"#utility.yul\":33020:33023   */\n      0x0100\n        /* \"#utility.yul\":33009:33018   */\n      dup3\n        /* \"#utility.yul\":33005:33024   */\n      add\n        /* \"#utility.yul\":32997:33024   */\n      swap1\n      pop\n        /* \"#utility.yul\":33070:33079   */\n      dup2\n        /* \"#utility.yul\":33064:33068   */\n      dup2\n        /* \"#utility.yul\":33060:33080   */\n      sub\n        /* \"#utility.yul\":33056:33057   */\n      0x00\n        /* \"#utility.yul\":33045:33054   */\n      dup4\n        /* \"#utility.yul\":33041:33058   */\n      add\n        /* \"#utility.yul\":33034:33081   */\n      mstore\n        /* \"#utility.yul\":33098:33206   */\n      tag_553\n        /* \"#utility.yul\":33201:33205   */\n      dup2\n        /* \"#utility.yul\":33192:33198   */\n      dup14\n        /* \"#utility.yul\":33098:33206   */\n      tag_230\n      jump\t// in\n    tag_553:\n        /* \"#utility.yul\":33090:33206   */\n      swap1\n      pop\n        /* \"#utility.yul\":33253:33262   */\n      dup2\n        /* \"#utility.yul\":33247:33251   */\n      dup2\n        /* \"#utility.yul\":33243:33263   */\n      sub\n        /* \"#utility.yul\":33238:33240   */\n      0x20\n        /* \"#utility.yul\":33227:33236   */\n      dup4\n        /* \"#utility.yul\":33223:33241   */\n      add\n        /* \"#utility.yul\":33216:33264   */\n      mstore\n        /* \"#utility.yul\":33281:33389   */\n      tag_554\n        /* \"#utility.yul\":33384:33388   */\n      dup2\n        /* \"#utility.yul\":33375:33381   */\n      dup13\n        /* \"#utility.yul\":33281:33389   */\n      tag_153\n      jump\t// in\n    tag_554:\n        /* \"#utility.yul\":33273:33389   */\n      swap1\n      pop\n        /* \"#utility.yul\":33436:33445   */\n      dup2\n        /* \"#utility.yul\":33430:33434   */\n      dup2\n        /* \"#utility.yul\":33426:33446   */\n      sub\n        /* \"#utility.yul\":33421:33423   */\n      0x40\n        /* \"#utility.yul\":33410:33419   */\n      dup4\n        /* \"#utility.yul\":33406:33424   */\n      add\n        /* \"#utility.yul\":33399:33447   */\n      mstore\n        /* \"#utility.yul\":33464:33550   */\n      tag_555\n        /* \"#utility.yul\":33545:33549   */\n      dup2\n        /* \"#utility.yul\":33536:33542   */\n      dup11\n        /* \"#utility.yul\":33528:33534   */\n      dup13\n        /* \"#utility.yul\":33464:33550   */\n      tag_232\n      jump\t// in\n    tag_555:\n        /* \"#utility.yul\":33456:33550   */\n      swap1\n      pop\n        /* \"#utility.yul\":33597:33606   */\n      dup2\n        /* \"#utility.yul\":33591:33595   */\n      dup2\n        /* \"#utility.yul\":33587:33607   */\n      sub\n        /* \"#utility.yul\":33582:33584   */\n      0x60\n        /* \"#utility.yul\":33571:33580   */\n      dup4\n        /* \"#utility.yul\":33567:33585   */\n      add\n        /* \"#utility.yul\":33560:33608   */\n      mstore\n        /* \"#utility.yul\":33625:33711   */\n      tag_556\n        /* \"#utility.yul\":33706:33710   */\n      dup2\n        /* \"#utility.yul\":33697:33703   */\n      dup9\n        /* \"#utility.yul\":33689:33695   */\n      dup11\n        /* \"#utility.yul\":33625:33711   */\n      tag_232\n      jump\t// in\n    tag_556:\n        /* \"#utility.yul\":33617:33711   */\n      swap1\n      pop\n        /* \"#utility.yul\":33721:33794   */\n      tag_557\n        /* \"#utility.yul\":33789:33792   */\n      0x80\n        /* \"#utility.yul\":33778:33787   */\n      dup4\n        /* \"#utility.yul\":33774:33793   */\n      add\n        /* \"#utility.yul\":33765:33771   */\n      dup8\n        /* \"#utility.yul\":33721:33794   */\n      tag_209\n      jump\t// in\n    tag_557:\n        /* \"#utility.yul\":33804:33877   */\n      tag_558\n        /* \"#utility.yul\":33872:33875   */\n      0xa0\n        /* \"#utility.yul\":33861:33870   */\n      dup4\n        /* \"#utility.yul\":33857:33876   */\n      add\n        /* \"#utility.yul\":33848:33854   */\n      dup7\n        /* \"#utility.yul\":33804:33877   */\n      tag_209\n      jump\t// in\n    tag_558:\n        /* \"#utility.yul\":33887:33958   */\n      tag_559\n        /* \"#utility.yul\":33953:33956   */\n      0xc0\n        /* \"#utility.yul\":33942:33951   */\n      dup4\n        /* \"#utility.yul\":33938:33957   */\n      add\n        /* \"#utility.yul\":33929:33935   */\n      dup6\n        /* \"#utility.yul\":33887:33958   */\n      tag_210\n      jump\t// in\n    tag_559:\n        /* \"#utility.yul\":33968:34039   */\n      tag_560\n        /* \"#utility.yul\":34034:34037   */\n      0xe0\n        /* \"#utility.yul\":34023:34032   */\n      dup4\n        /* \"#utility.yul\":34019:34038   */\n      add\n        /* \"#utility.yul\":34010:34016   */\n      dup5\n        /* \"#utility.yul\":33968:34039   */\n      tag_210\n      jump\t// in\n    tag_560:\n        /* \"#utility.yul\":32541:34046   */\n      swap12\n      swap11\n      pop\n      pop\n      pop\n      pop\n      pop\n      pop\n      pop\n      pop\n      pop\n      pop\n      pop\n      jump\t// out\n        /* \"#utility.yul\":34052:34232   */\n    tag_233:\n        /* \"#utility.yul\":34100:34177   */\n      0x4e487b7100000000000000000000000000000000000000000000000000000000\n        /* \"#utility.yul\":34097:34098   */\n      0x00\n        /* \"#utility.yul\":34090:34178   */\n      mstore\n        /* \"#utility.yul\":34197:34201   */\n      0x11\n        /* \"#utility.yul\":34194:34195   */\n      0x04\n        /* \"#utility.yul\":34187:34202   */\n      mstore\n        /* \"#utility.yul\":34221:34225   */\n      0x24\n        /* \"#utility.yul\":34218:34219   */\n      0x00\n        /* \"#utility.yul\":34211:34226   */\n      revert\n        /* \"#utility.yul\":34238:34471   */\n    tag_65:\n        /* \"#utility.yul\":34277:34280   */\n      0x00\n        /* \"#utility.yul\":34300:34324   */\n      tag_563\n        /* \"#utility.yul\":34318:34323   */\n      dup3\n        /* \"#utility.yul\":34300:34324   */\n      tag_149\n      jump\t// in\n    tag_563:\n        /* \"#utility.yul\":34291:34324   */\n      swap2\n      pop\n        /* \"#utility.yul\":34346:34412   */\n      0xffffffffffffffffffffffffffffffffffffffffffffffffffffffffffffffff\n        /* \"#utility.yul\":34339:34344   */\n      dup3\n        /* \"#utility.yul\":34336:34413   */\n      sub\n        /* \"#utility.yul\":34333:34436   */\n      tag_564\n      jumpi\n        /* \"#utility.yul\":34416:34434   */\n      tag_565\n      tag_233\n      jump\t// in\n    tag_565:\n        /* \"#utility.yul\":34333:34436   */\n    tag_564:\n        /* \"#utility.yul\":34463:34464   */\n      0x01\n        /* \"#utility.yul\":34456:34461   */\n      dup3\n        /* \"#utility.yul\":34452:34465   */\n      add\n        /* \"#utility.yul\":34445:34465   */\n      swap1\n      pop\n        /* \"#utility.yul\":34238:34471   */\n      swap2\n      swap1\n      pop\n      jump\t// out\n        /* \"#utility.yul\":34477:34657   */\n    tag_83:\n        /* \"#utility.yul\":34525:34602   */\n      0x4e487b7100000000000000000000000000000000000000000000000000000000\n        /* \"#utility.yul\":34522:34523   */\n      0x00\n        /* \"#utility.yul\":34515:34603   */\n      mstore\n        /* \"#utility.yul\":34622:34626   */\n      0x32\n        /* \"#utility.yul\":34619:34620   */\n      0x04\n        /* \"#utility.yul\":34612:34627   */\n      mstore\n        /* \"#utility.yul\":34646:34650   */\n      0x24\n        /* \"#utility.yul\":34643:34644   */\n      0x00\n        /* \"#utility.yul\":34636:34651   */\n      revert\n        /* \"#utility.yul\":34663:34890   */\n    tag_116:\n        /* \"#utility.yul\":34703:34707   */\n      0x00\n        /* \"#utility.yul\":34723:34743   */\n      tag_568\n        /* \"#utility.yul\":34741:34742   */\n      dup3\n        /* \"#utility.yul\":34723:34743   */\n      tag_176\n      jump\t// in\n    tag_568:\n        /* \"#utility.yul\":34718:34743   */\n      swap2\n      pop\n        /* \"#utility.yul\":34757:34777   */\n      tag_569\n        /* \"#utility.yul\":34775:34776   */\n      dup4\n        /* \"#utility.yul\":34757:34777   */\n      tag_176\n      jump\t// in\n    tag_569:\n        /* \"#utility.yul\":34752:34777   */\n      swap3\n      pop\n        /* \"#utility.yul\":34801:34802   */\n      dup3\n        /* \"#utility.yul\":34798:34799   */\n      dup3\n        /* \"#utility.yul\":34794:34803   */\n      sub\n        /* \"#utility.yul\":34786:34803   */\n      swap1\n      pop\n        /* \"#utility.yul\":34825:34859   */\n      0xffffffffffffffffffffffffffffffff\n        /* \"#utility.yul\":34819:34823   */\n      dup2\n        /* \"#utility.yul\":34816:34860   */\n      gt\n        /* \"#utility.yul\":34813:34883   */\n      iszero\n      tag_570\n      jumpi\n        /* \"#utility.yul\":34863:34881   */\n      tag_571\n      tag_233\n      jump\t// in\n    tag_571:\n        /* \"#utility.yul\":34813:34883   */\n    tag_570:\n        /* \"#utility.yul\":34663:34890   */\n      swap3\n      swap2\n      pop\n      pop\n      jump\t// out\n        /* \"#utility.yul\":34896:35118   */\n    tag_118:\n        /* \"#utility.yul\":34989:34993   */\n      0x00\n        /* \"#utility.yul\":35027:35029   */\n      0x20\n        /* \"#utility.yul\":35016:35025   */\n      dup3\n        /* \"#utility.yul\":35012:35030   */\n      add\n        /* \"#utility.yul\":35004:35030   */\n      swap1\n      pop\n        /* \"#utility.yul\":35040:35111   */\n      tag_573\n        /* \"#utility.yul\":35108:35109   */\n      0x00\n        /* \"#utility.yul\":35097:35106   */\n      dup4\n        /* \"#utility.yul\":35093:35110   */\n      add\n        /* \"#utility.yul\":35084:35090   */\n      dup5\n        /* \"#utility.yul\":35040:35111   */\n      tag_209\n      jump\t// in\n    tag_573:\n        /* \"#utility.yul\":34896:35118   */\n      swap3\n      swap2\n      pop\n      pop\n      jump\t// out\n\n    auxdata: 0xa26469706673582212209117d7a143d7ab7639dee8b142fe69124e909304480ea7c68e3439c07b697be264736f6c63430008130033\n}\n",
				"bytecode": {
					"linkReferences": {},
					"object": "6080604052600160005534801561001557600080fd5b5061238f806100256000396000f3fe608060405234801561001057600080fd5b50600436106100885760003560e01c806365603df21161005b57806365603df2146101275780639ea61c7e1461015d578063d37889c614610179578063f6a989f81461019557610088565b806324e5e6aa1461008d578063448952e1146100ab578063580f469c146100c757806360715971146100f7575b600080fd5b6100956101c5565b6040516100a291906112ac565b60405180910390f35b6100c560048036038101906100c09190611667565b61025a565b005b6100e160048036038101906100dc9190611796565b610596565b6040516100ee91906117e5565b60405180910390f35b610111600480360381019061010c9190611800565b6105c7565b60405161011e9190611bae565b60405180910390f35b610141600480360381019061013c9190611bd0565b610a3a565b6040516101549796959493929190611c74565b60405180910390f35b61017760048036038101906101729190611bd0565b610bf1565b005b610193600480360381019061018e9190611cf1565b610c5a565b005b6101af60048036038101906101aa9190611bd0565b610d3f565b6040516101bc9190611e0b565b60405180910390f35b6060600260003373ffffffffffffffffffffffffffffffffffffffff1673ffffffffffffffffffffffffffffffffffffffff16815260200190815260200160002080548060200260200160405190810160405280929190818152602001828054801561025057602002820191906000526020600020905b81548152602001906001019080831161023c575b5050505050905090565b6040518061012001604052808b81526020018a815260200189898080601f016020809104026020016040519081016040528093929190818152602001838380828437600081840152601f19601f82011690508083019250505050505050815260200187878080601f016020809104026020016040519081016040528093929190818152602001838380828437600081840152601f19601f820116905080830192505050505050508152602001856fffffffffffffffffffffffffffffffff168152602001846fffffffffffffffffffffffffffffffff1681526020018363ffffffff1681526020018263ffffffff1681526020016001151581525060016000805481526020019081526020016000206000820151816000019080519060200190610385929190611072565b5060208201518160010190805190602001906103a29291906110fc565b5060408201518160020190816103b89190612039565b5060608201518160030190816103ce9190612039565b5060808201518160040160006101000a8154816fffffffffffffffffffffffffffffffff02191690836fffffffffffffffffffffffffffffffff16021790555060a08201518160040160106101000a8154816fffffffffffffffffffffffffffffffff02191690836fffffffffffffffffffffffffffffffff16021790555060c08201518160050160006101000a81548163ffffffff021916908363ffffffff16021790555060e08201518160050160046101000a81548163ffffffff021916908363ffffffff1602179055506101008201518160050160086101000a81548160ff021916908315150217905550905050600260003373ffffffffffffffffffffffffffffffffffffffff1673ffffffffffffffffffffffffffffffffffffffff16815260200190815260200160002060005490806001815401808255809150506001900390600052602060002001600090919091909150556000547f0e20c89151faf0b5dda54ebc9d15340d8f36e022eaab7561945a997b339fc56e8b8b8b8b8b8b8b8b8b8b60405161056b9a999897969594939291906121b6565b60405180910390a260008081548092919061058590612283565b919050555050505050505050505050565b600260205281600052604060002081815481106105b257600080fd5b90600052602060002001600091509150505481565b60606000600260008473ffffffffffffffffffffffffffffffffffffffff1673ffffffffffffffffffffffffffffffffffffffff16815260200190815260200160002080548060200260200160405190810160405280929190818152602001828054801561065457602002820191906000526020600020905b815481526020019060010190808311610640575b505050505090506000815167ffffffffffffffff811115610678576106776112f8565b5b6040519080825280602002602001820160405280156106b157816020015b61069e611149565b8152602001906001900390816106965790505b50905060005b8251811015610a2f57600160008483815181106106d7576106d66122cb565b5b60200260200101518152602001908152602001600020604051806101200160405290816000820180548060200260200160405190810160405280929190818152602001828054801561077e57602002820191906000526020600020905b8160009054906101000a900473ffffffffffffffffffffffffffffffffffffffff1673ffffffffffffffffffffffffffffffffffffffff1681526020019060010190808311610734575b50505050508152602001600182018054806020026020016040519081016040528092919081815260200182805480156107d657602002820191906000526020600020905b8154815260200190600101908083116107c2575b505050505081526020016002820180546107ef90611e5c565b80601f016020809104026020016040519081016040528092919081815260200182805461081b90611e5c565b80156108685780601f1061083d57610100808354040283529160200191610868565b820191906000526020600020905b81548152906001019060200180831161084b57829003601f168201915b5050505050815260200160038201805461088190611e5c565b80601f01602080910402602001604051908101604052809291908181526020018280546108ad90611e5c565b80156108fa5780601f106108cf576101008083540402835291602001916108fa565b820191906000526020600020905b8154815290600101906020018083116108dd57829003601f168201915b505050505081526020016004820160009054906101000a90046fffffffffffffffffffffffffffffffff166fffffffffffffffffffffffffffffffff166fffffffffffffffffffffffffffffffff1681526020016004820160109054906101000a90046fffffffffffffffffffffffffffffffff166fffffffffffffffffffffffffffffffff166fffffffffffffffffffffffffffffffff1681526020016005820160009054906101000a900463ffffffff1663ffffffff1663ffffffff1681526020016005820160049054906101000a900463ffffffff1663ffffffff1663ffffffff1681526020016005820160089054906101000a900460ff161515151581525050828281518110610a1157610a106122cb565b5b60200260200101819052508080610a2790612283565b9150506106b7565b508092505050919050565b6001602052806000526040600020600091509050806002018054610a5d90611e5c565b80601f0160208091040260200160405190810160405280929190818152602001828054610a8990611e5c565b8015610ad65780601f10610aab57610100808354040283529160200191610ad6565b820191906000526020600020905b815481529060010190602001808311610ab957829003601f168201915b505050505090806003018054610aeb90611e5c565b80601f0160208091040260200160405190810160405280929190818152602001828054610b1790611e5c565b8015610b645780601f10610b3957610100808354040283529160200191610b64565b820191906000526020600020905b815481529060010190602001808311610b4757829003601f168201915b5050505050908060040160009054906101000a90046fffffffffffffffffffffffffffffffff16908060040160109054906101000a90046fffffffffffffffffffffffffffffffff16908060050160009054906101000a900463ffffffff16908060050160049054906101000a900463ffffffff16908060050160089054906101000a900460ff16905087565b60006001600083815260200190815260200160002060050160086101000a81548160ff0219169083151502179055507fbe5aa4247333e0978e80edfd1266e28e6cba6ea134522f795973c7133bc4317481604051610c4f91906117e5565b60405180910390a150565b806001600084815260200190815260200160002060040160008282829054906101000a90046fffffffffffffffffffffffffffffffff16610c9b91906122fa565b92506101000a8154816fffffffffffffffffffffffffffffffff02191690836fffffffffffffffffffffffffffffffff160217905550817f0cdf608777b7c369c17a854e339a0c861f903b381b92294555cd61b0c49f6cab6001600085815260200190815260200160002060040160009054906101000a90046fffffffffffffffffffffffffffffffff16604051610d33919061233e565b60405180910390a25050565b610d47611149565b600160008381526020019081526020016000206040518061012001604052908160008201805480602002602001604051908101604052809291908181526020018280548015610deb57602002820191906000526020600020905b8160009054906101000a900473ffffffffffffffffffffffffffffffffffffffff1673ffffffffffffffffffffffffffffffffffffffff1681526020019060010190808311610da1575b5050505050815260200160018201805480602002602001604051908101604052809291908181526020018280548015610e4357602002820191906000526020600020905b815481526020019060010190808311610e2f575b50505050508152602001600282018054610e5c90611e5c565b80601f0160208091040260200160405190810160405280929190818152602001828054610e8890611e5c565b8015610ed55780601f10610eaa57610100808354040283529160200191610ed5565b820191906000526020600020905b815481529060010190602001808311610eb857829003601f168201915b50505050508152602001600382018054610eee90611e5c565b80601f0160208091040260200160405190810160405280929190818152602001828054610f1a90611e5c565b8015610f675780601f10610f3c57610100808354040283529160200191610f67565b820191906000526020600020905b815481529060010190602001808311610f4a57829003601f168201915b505050505081526020016004820160009054906101000a90046fffffffffffffffffffffffffffffffff166fffffffffffffffffffffffffffffffff166fffffffffffffffffffffffffffffffff1681526020016004820160109054906101000a90046fffffffffffffffffffffffffffffffff166fffffffffffffffffffffffffffffffff166fffffffffffffffffffffffffffffffff1681526020016005820160009054906101000a900463ffffffff1663ffffffff1663ffffffff1681526020016005820160049054906101000a900463ffffffff1663ffffffff1663ffffffff1681526020016005820160089054906101000a900460ff1615151515815250509050919050565b8280548282559060005260206000209081019282156110eb579160200282015b828111156110ea5782518260006101000a81548173ffffffffffffffffffffffffffffffffffffffff021916908373ffffffffffffffffffffffffffffffffffffffff16021790555091602001919060010190611092565b5b5090506110f891906111c7565b5090565b828054828255906000526020600020908101928215611138579160200282015b8281111561113757825182559160200191906001019061111c565b5b50905061114591906111c7565b5090565b6040518061012001604052806060815260200160608152602001606081526020016060815260200160006fffffffffffffffffffffffffffffffff16815260200160006fffffffffffffffffffffffffffffffff168152602001600063ffffffff168152602001600063ffffffff1681526020016000151581525090565b5b808211156111e05760008160009055506001016111c8565b5090565b600081519050919050565b600082825260208201905092915050565b6000819050602082019050919050565b6000819050919050565b61122381611210565b82525050565b6000611235838361121a565b60208301905092915050565b6000602082019050919050565b6000611259826111e4565b61126381856111ef565b935061126e83611200565b8060005b8381101561129f5781516112868882611229565b975061129183611241565b925050600181019050611272565b5085935050505092915050565b600060208201905081810360008301526112c6818461124e565b905092915050565b6000604051905090565b600080fd5b600080fd5b600080fd5b6000601f19601f8301169050919050565b7f4e487b7100000000000000000000000000000000000000000000000000000000600052604160045260246000fd5b611330826112e7565b810181811067ffffffffffffffff8211171561134f5761134e6112f8565b5b80604052505050565b60006113626112ce565b905061136e8282611327565b919050565b600067ffffffffffffffff82111561138e5761138d6112f8565b5b602082029050602081019050919050565b600080fd5b600073ffffffffffffffffffffffffffffffffffffffff82169050919050565b60006113cf826113a4565b9050919050565b6113df816113c4565b81146113ea57600080fd5b50565b6000813590506113fc816113d6565b92915050565b600061141561141084611373565b611358565b905080838252602082019050602084028301858111156114385761143761139f565b5b835b81811015611461578061144d88826113ed565b84526020840193505060208101905061143a565b5050509392505050565b600082601f8301126114805761147f6112e2565b5b8135611490848260208601611402565b91505092915050565b600067ffffffffffffffff8211156114b4576114b36112f8565b5b602082029050602081019050919050565b6114ce81611210565b81146114d957600080fd5b50565b6000813590506114eb816114c5565b92915050565b60006115046114ff84611499565b611358565b905080838252602082019050602084028301858111156115275761152661139f565b5b835b81811015611550578061153c88826114dc565b845260208401935050602081019050611529565b5050509392505050565b600082601f83011261156f5761156e6112e2565b5b813561157f8482602086016114f1565b91505092915050565b600080fd5b60008083601f8401126115a3576115a26112e2565b5b8235905067ffffffffffffffff8111156115c0576115bf611588565b5b6020830191508360018202830111156115dc576115db61139f565b5b9250929050565b60006fffffffffffffffffffffffffffffffff82169050919050565b611608816115e3565b811461161357600080fd5b50565b600081359050611625816115ff565b92915050565b600063ffffffff82169050919050565b6116448161162b565b811461164f57600080fd5b50565b6000813590506116618161163b565b92915050565b6000806000806000806000806000806101008b8d03121561168b5761168a6112d8565b5b60008b013567ffffffffffffffff8111156116a9576116a86112dd565b5b6116b58d828e0161146b565b9a505060208b013567ffffffffffffffff8111156116d6576116d56112dd565b5b6116e28d828e0161155a565b99505060408b013567ffffffffffffffff811115611703576117026112dd565b5b61170f8d828e0161158d565b985098505060608b013567ffffffffffffffff811115611732576117316112dd565b5b61173e8d828e0161158d565b965096505060806117518d828e01611616565b94505060a06117628d828e01611616565b93505060c06117738d828e01611652565b92505060e06117848d828e01611652565b9150509295989b9194979a5092959850565b600080604083850312156117ad576117ac6112d8565b5b60006117bb858286016113ed565b92505060206117cc858286016114dc565b9150509250929050565b6117df81611210565b82525050565b60006020820190506117fa60008301846117d6565b92915050565b600060208284031215611816576118156112d8565b5b6000611824848285016113ed565b91505092915050565b600081519050919050565b600082825260208201905092915050565b6000819050602082019050919050565b600081519050919050565b600082825260208201905092915050565b6000819050602082019050919050565b61188e816113c4565b82525050565b60006118a08383611885565b60208301905092915050565b6000602082019050919050565b60006118c482611859565b6118ce8185611864565b93506118d983611875565b8060005b8381101561190a5781516118f18882611894565b97506118fc836118ac565b9250506001810190506118dd565b5085935050505092915050565b600082825260208201905092915050565b6000611933826111e4565b61193d8185611917565b935061194883611200565b8060005b838110156119795781516119608882611229565b975061196b83611241565b92505060018101905061194c565b5085935050505092915050565b600081519050919050565b600082825260208201905092915050565b60005b838110156119c05780820151818401526020810190506119a5565b60008484015250505050565b60006119d782611986565b6119e18185611991565b93506119f18185602086016119a2565b6119fa816112e7565b840191505092915050565b611a0e816115e3565b82525050565b611a1d8161162b565b82525050565b60008115159050919050565b611a3881611a23565b82525050565b6000610120830160008301518482036000860152611a5c82826118b9565b91505060208301518482036020860152611a768282611928565b91505060408301518482036040860152611a9082826119cc565b91505060608301518482036060860152611aaa82826119cc565b9150506080830151611abf6080860182611a05565b5060a0830151611ad260a0860182611a05565b5060c0830151611ae560c0860182611a14565b5060e0830151611af860e0860182611a14565b50610100830151611b0d610100860182611a2f565b508091505092915050565b6000611b248383611a3e565b905092915050565b6000602082019050919050565b6000611b448261182d565b611b4e8185611838565b935083602082028501611b6085611849565b8060005b85811015611b9c5784840389528151611b7d8582611b18565b9450611b8883611b2c565b925060208a01995050600181019050611b64565b50829750879550505050505092915050565b60006020820190508181036000830152611bc88184611b39565b905092915050565b600060208284031215611be657611be56112d8565b5b6000611bf4848285016114dc565b91505092915050565b600082825260208201905092915050565b6000611c1982611986565b611c238185611bfd565b9350611c338185602086016119a2565b611c3c816112e7565b840191505092915050565b611c50816115e3565b82525050565b611c5f8161162b565b82525050565b611c6e81611a23565b82525050565b600060e0820190508181036000830152611c8e818a611c0e565b90508181036020830152611ca28189611c0e565b9050611cb16040830188611c47565b611cbe6060830187611c47565b611ccb6080830186611c56565b611cd860a0830185611c56565b611ce560c0830184611c65565b98975050505050505050565b60008060408385031215611d0857611d076112d8565b5b6000611d16858286016114dc565b9250506020611d2785828601611616565b9150509250929050565b6000610120830160008301518482036000860152611d4f82826118b9565b91505060208301518482036020860152611d698282611928565b91505060408301518482036040860152611d8382826119cc565b91505060608301518482036060860152611d9d82826119cc565b9150506080830151611db26080860182611a05565b5060a0830151611dc560a0860182611a05565b5060c0830151611dd860c0860182611a14565b5060e0830151611deb60e0860182611a14565b50610100830151611e00610100860182611a2f565b508091505092915050565b60006020820190508181036000830152611e258184611d31565b905092915050565b7f4e487b7100000000000000000000000000000000000000000000000000000000600052602260045260246000fd5b60006002820490506001821680611e7457607f821691505b602082108103611e8757611e86611e2d565b5b50919050565b60008190508160005260206000209050919050565b60006020601f8301049050919050565b600082821b905092915050565b600060088302611eef7fffffffffffffffffffffffffffffffffffffffffffffffffffffffffffffffff82611eb2565b611ef98683611eb2565b95508019841693508086168417925050509392505050565b6000819050919050565b6000611f36611f31611f2c84611210565b611f11565b611210565b9050919050565b6000819050919050565b611f5083611f1b565b611f64611f5c82611f3d565b848454611ebf565b825550505050565b600090565b611f79611f6c565b611f84818484611f47565b505050565b5b81811015611fa857611f9d600082611f71565b600181019050611f8a565b5050565b601f821115611fed57611fbe81611e8d565b611fc784611ea2565b81016020851015611fd6578190505b611fea611fe285611ea2565b830182611f89565b50505b505050565b600082821c905092915050565b600061201060001984600802611ff2565b1980831691505092915050565b60006120298383611fff565b9150826002028217905092915050565b61204282611986565b67ffffffffffffffff81111561205b5761205a6112f8565b5b6120658254611e5c565b612070828285611fac565b600060209050601f8311600181146120a35760008415612091578287015190505b61209b858261201d565b865550612103565b601f1984166120b186611e8d565b60005b828110156120d9578489015182556001820191506020850194506020810190506120b4565b868310156120f657848901516120f2601f891682611fff565b8355505b6001600288020188555050505b505050505050565b600082825260208201905092915050565b600061212782611859565b612131818561210b565b935061213c83611875565b8060005b8381101561216d5781516121548882611894565b975061215f836118ac565b925050600181019050612140565b5085935050505092915050565b82818337600083830152505050565b60006121958385611bfd565b93506121a283858461217a565b6121ab836112e7565b840190509392505050565b60006101008201905081810360008301526121d1818d61211c565b905081810360208301526121e5818c61124e565b905081810360408301526121fa818a8c612189565b9050818103606083015261220f81888a612189565b905061221e6080830187611c47565b61222b60a0830186611c47565b61223860c0830185611c56565b61224560e0830184611c56565b9b9a5050505050505050505050565b7f4e487b7100000000000000000000000000000000000000000000000000000000600052601160045260246000fd5b600061228e82611210565b91507fffffffffffffffffffffffffffffffffffffffffffffffffffffffffffffffff82036122c0576122bf612254565b5b600182019050919050565b7f4e487b7100000000000000000000000000000000000000000000000000000000600052603260045260246000fd5b6000612305826115e3565b9150612310836115e3565b925082820390506fffffffffffffffffffffffffffffffff81111561233857612337612254565b5b92915050565b60006020820190506123536000830184611c47565b9291505056fea26469706673582212209117d7a143d7ab7639dee8b142fe69124e909304480ea7c68e3439c07b697be264736f6c63430008130033",
					"opcodes": "PUSH1 0x80 PUSH1 0x40 MSTORE PUSH1 0x1 PUSH1 0x0 SSTORE CALLVALUE DUP1 ISZERO PUSH2 0x15 JUMPI PUSH1 0x0 DUP1 REVERT JUMPDEST POP PUSH2 0x238F DUP1 PUSH2 0x25 PUSH1 0x0 CODECOPY PUSH1 0x0 RETURN INVALID PUSH1 0x80 PUSH1 0x40 MSTORE CALLVALUE DUP1 ISZERO PUSH2 0x10 JUMPI PUSH1 0x0 DUP1 REVERT JUMPDEST POP PUSH1 0x4 CALLDATASIZE LT PUSH2 0x88 JUMPI PUSH1 0x0 CALLDATALOAD PUSH1 0xE0 SHR DUP1 PUSH4 0x65603DF2 GT PUSH2 0x5B JUMPI DUP1 PUSH4 0x65603DF2 EQ PUSH2 0x127 JUMPI DUP1 PUSH4 0x9EA61C7E EQ PUSH2 0x15D JUMPI DUP1 PUSH4 0xD37889C6 EQ PUSH2 0x179 JUMPI DUP1 PUSH4 0xF6A989F8 EQ PUSH2 0x195 JUMPI PUSH2 0x88 JUMP JUMPDEST DUP1 PUSH4 0x24E5E6AA EQ PUSH2 0x8D JUMPI DUP1 PUSH4 0x448952E1 EQ PUSH2 0xAB JUMPI DUP1 PUSH4 0x580F469C EQ PUSH2 0xC7 JUMPI DUP1 PUSH4 0x60715971 EQ PUSH2 0xF7 JUMPI JUMPDEST PUSH1 0x0 DUP1 REVERT JUMPDEST PUSH2 0x95 PUSH2 0x1C5 JUMP JUMPDEST PUSH1 0x40 MLOAD PUSH2 0xA2 SWAP2 SWAP1 PUSH2 0x12AC JUMP JUMPDEST PUSH1 0x40 MLOAD DUP1 SWAP2 SUB SWAP1 RETURN JUMPDEST PUSH2 0xC5 PUSH1 0x4 DUP1 CALLDATASIZE SUB DUP2 ADD SWAP1 PUSH2 0xC0 SWAP2 SWAP1 PUSH2 0x1667 JUMP JUMPDEST PUSH2 0x25A JUMP JUMPDEST STOP JUMPDEST PUSH2 0xE1 PUSH1 0x4 DUP1 CALLDATASIZE SUB DUP2 ADD SWAP1 PUSH2 0xDC SWAP2 SWAP1 PUSH2 0x1796 JUMP JUMPDEST PUSH2 0x596 JUMP JUMPDEST PUSH1 0x40 MLOAD PUSH2 0xEE SWAP2 SWAP1 PUSH2 0x17E5 JUMP JUMPDEST PUSH1 0x40 MLOAD DUP1 SWAP2 SUB SWAP1 RETURN JUMPDEST PUSH2 0x111 PUSH1 0x4 DUP1 CALLDATASIZE SUB DUP2 ADD SWAP1 PUSH2 0x10C SWAP2 SWAP1 PUSH2 0x1800 JUMP JUMPDEST PUSH2 0x5C7 JUMP JUMPDEST PUSH1 0x40 MLOAD PUSH2 0x11E SWAP2 SWAP1 PUSH2 0x1BAE JUMP JUMPDEST PUSH1 0x40 MLOAD DUP1 SWAP2 SUB SWAP1 RETURN JUMPDEST PUSH2 0x141 PUSH1 0x4 DUP1 CALLDATASIZE SUB DUP2 ADD SWAP1 PUSH2 0x13C SWAP2 SWAP1 PUSH2 0x1BD0 JUMP JUMPDEST PUSH2 0xA3A JUMP JUMPDEST PUSH1 0x40 MLOAD PUSH2 0x154 SWAP8 SWAP7 SWAP6 SWAP5 SWAP4 SWAP3 SWAP2 SWAP1 PUSH2 0x1C74 JUMP JUMPDEST PUSH1 0x40 MLOAD DUP1 SWAP2 SUB SWAP1 RETURN JUMPDEST PUSH2 0x177 PUSH1 0x4 DUP1 CALLDATASIZE SUB DUP2 ADD SWAP1 PUSH2 0x172 SWAP2 SWAP1 PUSH2 0x1BD0 JUMP JUMPDEST PUSH2 0xBF1 JUMP JUMPDEST STOP JUMPDEST PUSH2 0x193 PUSH1 0x4 DUP1 CALLDATASIZE SUB DUP2 ADD SWAP1 PUSH2 0x18E SWAP2 SWAP1 PUSH2 0x1CF1 JUMP JUMPDEST PUSH2 0xC5A JUMP JUMPDEST STOP JUMPDEST PUSH2 0x1AF PUSH1 0x4 DUP1 CALLDATASIZE SUB DUP2 ADD SWAP1 PUSH2 0x1AA SWAP2 SWAP1 PUSH2 0x1BD0 JUMP JUMPDEST PUSH2 0xD3F JUMP JUMPDEST PUSH1 0x40 MLOAD PUSH2 0x1BC SWAP2 SWAP1 PUSH2 0x1E0B JUMP JUMPDEST PUSH1 0x40 MLOAD DUP1 SWAP2 SUB SWAP1 RETURN JUMPDEST PUSH1 0x60 PUSH1 0x2 PUSH1 0x0 CALLER PUSH20 0xFFFFFFFFFFFFFFFFFFFFFFFFFFFFFFFFFFFFFFFF AND PUSH20 0xFFFFFFFFFFFFFFFFFFFFFFFFFFFFFFFFFFFFFFFF AND DUP2 MSTORE PUSH1 0x20 ADD SWAP1 DUP2 MSTORE PUSH1 0x20 ADD PUSH1 0x0 KECCAK256 DUP1 SLOAD DUP1 PUSH1 0x20 MUL PUSH1 0x20 ADD PUSH1 0x40 MLOAD SWAP1 DUP2 ADD PUSH1 0x40 MSTORE DUP1 SWAP3 SWAP2 SWAP1 DUP2 DUP2 MSTORE PUSH1 0x20 ADD DUP3 DUP1 SLOAD DUP1 ISZERO PUSH2 0x250 JUMPI PUSH1 0x20 MUL DUP3 ADD SWAP2 SWAP1 PUSH1 0x0 MSTORE PUSH1 0x20 PUSH1 0x0 KECCAK256 SWAP1 JUMPDEST DUP2 SLOAD DUP2 MSTORE PUSH1 0x20 ADD SWAP1 PUSH1 0x1 ADD SWAP1 DUP1 DUP4 GT PUSH2 0x23C JUMPI JUMPDEST POP POP POP POP POP SWAP1 POP SWAP1 JUMP JUMPDEST PUSH1 0x40 MLOAD DUP1 PUSH2 0x120 ADD PUSH1 0x40 MSTORE DUP1 DUP12 DUP2 MSTORE PUSH1 0x20 ADD DUP11 DUP2 MSTORE PUSH1 0x20 ADD DUP10 DUP10 DUP1 DUP1 PUSH1 0x1F ADD PUSH1 0x20 DUP1 SWAP2 DIV MUL PUSH1 0x20 ADD PUSH1 0x40 MLOAD SWAP1 DUP2 ADD PUSH1 0x40 MSTORE DUP1 SWAP4 SWAP3 SWAP2 SWAP1 DUP2 DUP2 MSTORE PUSH1 0x20 ADD DUP4 DUP4 DUP1 DUP3 DUP5 CALLDATACOPY PUSH1 0x0 DUP2 DUP5 ADD MSTORE PUSH1 0x1F NOT PUSH1 0x1F DUP3 ADD AND SWAP1 POP DUP1 DUP4 ADD SWAP3 POP POP POP POP POP POP POP DUP2 MSTORE PUSH1 0x20 ADD DUP8 DUP8 DUP1 DUP1 PUSH1 0x1F ADD PUSH1 0x20 DUP1 SWAP2 DIV MUL PUSH1 0x20 ADD PUSH1 0x40 MLOAD SWAP1 DUP2 ADD PUSH1 0x40 MSTORE DUP1 SWAP4 SWAP3 SWAP2 SWAP1 DUP2 DUP2 MSTORE PUSH1 0x20 ADD DUP4 DUP4 DUP1 DUP3 DUP5 CALLDATACOPY PUSH1 0x0 DUP2 DUP5 ADD MSTORE PUSH1 0x1F NOT PUSH1 0x1F DUP3 ADD AND SWAP1 POP DUP1 DUP4 ADD SWAP3 POP POP POP POP POP POP POP DUP2 MSTORE PUSH1 0x20 ADD DUP6 PUSH16 0xFFFFFFFFFFFFFFFFFFFFFFFFFFFFFFFF AND DUP2 MSTORE PUSH1 0x20 ADD DUP5 PUSH16 0xFFFFFFFFFFFFFFFFFFFFFFFFFFFFFFFF AND DUP2 MSTORE PUSH1 0x20 ADD DUP4 PUSH4 0xFFFFFFFF AND DUP2 MSTORE PUSH1 0x20 ADD DUP3 PUSH4 0xFFFFFFFF AND DUP2 MSTORE PUSH1 0x20 ADD PUSH1 0x1 ISZERO ISZERO DUP2 MSTORE POP PUSH1 0x1 PUSH1 0x0 DUP1 SLOAD DUP2 MSTORE PUSH1 0x20 ADD SWAP1 DUP2 MSTORE PUSH1 0x20 ADD PUSH1 0x0 KECCAK256 PUSH1 0x0 DUP3 ADD MLOAD DUP2 PUSH1 0x0 ADD SWAP1 DUP1 MLOAD SWAP1 PUSH1 0x20 ADD SWAP1 PUSH2 0x385 SWAP3 SWAP2 SWAP1 PUSH2 0x1072 JUMP JUMPDEST POP PUSH1 0x20 DUP3 ADD MLOAD DUP2 PUSH1 0x1 ADD SWAP1 DUP1 MLOAD SWAP1 PUSH1 0x20 ADD SWAP1 PUSH2 0x3A2 SWAP3 SWAP2 SWAP1 PUSH2 0x10FC JUMP JUMPDEST POP PUSH1 0x40 DUP3 ADD MLOAD DUP2 PUSH1 0x2 ADD SWAP1 DUP2 PUSH2 0x3B8 SWAP2 SWAP1 PUSH2 0x2039 JUMP JUMPDEST POP PUSH1 0x60 DUP3 ADD MLOAD DUP2 PUSH1 0x3 ADD SWAP1 DUP2 PUSH2 0x3CE SWAP2 SWAP1 PUSH2 0x2039 JUMP JUMPDEST POP PUSH1 0x80 DUP3 ADD MLOAD DUP2 PUSH1 0x4 ADD PUSH1 0x0 PUSH2 0x100 EXP DUP2 SLOAD DUP2 PUSH16 0xFFFFFFFFFFFFFFFFFFFFFFFFFFFFFFFF MUL NOT AND SWAP1 DUP4 PUSH16 0xFFFFFFFFFFFFFFFFFFFFFFFFFFFFFFFF AND MUL OR SWAP1 SSTORE POP PUSH1 0xA0 DUP3 ADD MLOAD DUP2 PUSH1 0x4 ADD PUSH1 0x10 PUSH2 0x100 EXP DUP2 SLOAD DUP2 PUSH16 0xFFFFFFFFFFFFFFFFFFFFFFFFFFFFFFFF MUL NOT AND SWAP1 DUP4 PUSH16 0xFFFFFFFFFFFFFFFFFFFFFFFFFFFFFFFF AND MUL OR SWAP1 SSTORE POP PUSH1 0xC0 DUP3 ADD MLOAD DUP2 PUSH1 0x5 ADD PUSH1 0x0 PUSH2 0x100 EXP DUP2 SLOAD DUP2 PUSH4 0xFFFFFFFF MUL NOT AND SWAP1 DUP4 PUSH4 0xFFFFFFFF AND MUL OR SWAP1 SSTORE POP PUSH1 0xE0 DUP3 ADD MLOAD DUP2 PUSH1 0x5 ADD PUSH1 0x4 PUSH2 0x100 EXP DUP2 SLOAD DUP2 PUSH4 0xFFFFFFFF MUL NOT AND SWAP1 DUP4 PUSH4 0xFFFFFFFF AND MUL OR SWAP1 SSTORE POP PUSH2 0x100 DUP3 ADD MLOAD DUP2 PUSH1 0x5 ADD PUSH1 0x8 PUSH2 0x100 EXP DUP2 SLOAD DUP2 PUSH1 0xFF MUL NOT AND SWAP1 DUP4 ISZERO ISZERO MUL OR SWAP1 SSTORE POP SWAP1 POP POP PUSH1 0x2 PUSH1 0x0 CALLER PUSH20 0xFFFFFFFFFFFFFFFFFFFFFFFFFFFFFFFFFFFFFFFF AND PUSH20 0xFFFFFFFFFFFFFFFFFFFFFFFFFFFFFFFFFFFFFFFF AND DUP2 MSTORE PUSH1 0x20 ADD SWAP1 DUP2 MSTORE PUSH1 0x20 ADD PUSH1 0x0 KECCAK256 PUSH1 0x0 SLOAD SWAP1 DUP1 PUSH1 0x1 DUP2 SLOAD ADD DUP1 DUP3 SSTORE DUP1 SWAP2 POP POP PUSH1 0x1 SWAP1 SUB SWAP1 PUSH1 0x0 MSTORE PUSH1 0x20 PUSH1 0x0 KECCAK256 ADD PUSH1 0x0 SWAP1 SWAP2 SWAP1 SWAP2 SWAP1 SWAP2 POP SSTORE PUSH1 0x0 SLOAD PUSH32 0xE20C89151FAF0B5DDA54EBC9D15340D8F36E022EAAB7561945A997B339FC56E DUP12 DUP12 DUP12 DUP12 DUP12 DUP12 DUP12 DUP12 DUP12 DUP12 PUSH1 0x40 MLOAD PUSH2 0x56B SWAP11 SWAP10 SWAP9 SWAP8 SWAP7 SWAP6 SWAP5 SWAP4 SWAP3 SWAP2 SWAP1 PUSH2 0x21B6 JUMP JUMPDEST PUSH1 0x40 MLOAD DUP1 SWAP2 SUB SWAP1 LOG2 PUSH1 0x0 DUP1 DUP2 SLOAD DUP1 SWAP3 SWAP2 SWAP1 PUSH2 0x585 SWAP1 PUSH2 0x2283 JUMP JUMPDEST SWAP2 SWAP1 POP SSTORE POP POP POP POP POP POP POP POP POP POP POP JUMP JUMPDEST PUSH1 0x2 PUSH1 0x20 MSTORE DUP2 PUSH1 0x0 MSTORE PUSH1 0x40 PUSH1 0x0 KECCAK256 DUP2 DUP2 SLOAD DUP2 LT PUSH2 0x5B2 JUMPI PUSH1 0x0 DUP1 REVERT JUMPDEST SWAP1 PUSH1 0x0 MSTORE PUSH1 0x20 PUSH1 0x0 KECCAK256 ADD PUSH1 0x0 SWAP2 POP SWAP2 POP POP SLOAD DUP2 JUMP JUMPDEST PUSH1 0x60 PUSH1 0x0 PUSH1 0x2 PUSH1 0x0 DUP5 PUSH20 0xFFFFFFFFFFFFFFFFFFFFFFFFFFFFFFFFFFFFFFFF AND PUSH20 0xFFFFFFFFFFFFFFFFFFFFFFFFFFFFFFFFFFFFFFFF AND DUP2 MSTORE PUSH1 0x20 ADD SWAP1 DUP2 MSTORE PUSH1 0x20 ADD PUSH1 0x0 KECCAK256 DUP1 SLOAD DUP1 PUSH1 0x20 MUL PUSH1 0x20 ADD PUSH1 0x40 MLOAD SWAP1 DUP2 ADD PUSH1 0x40 MSTORE DUP1 SWAP3 SWAP2 SWAP1 DUP2 DUP2 MSTORE PUSH1 0x20 ADD DUP3 DUP1 SLOAD DUP1 ISZERO PUSH2 0x654 JUMPI PUSH1 0x20 MUL DUP3 ADD SWAP2 SWAP1 PUSH1 0x0 MSTORE PUSH1 0x20 PUSH1 0x0 KECCAK256 SWAP1 JUMPDEST DUP2 SLOAD DUP2 MSTORE PUSH1 0x20 ADD SWAP1 PUSH1 0x1 ADD SWAP1 DUP1 DUP4 GT PUSH2 0x640 JUMPI JUMPDEST POP POP POP POP POP SWAP1 POP PUSH1 0x0 DUP2 MLOAD PUSH8 0xFFFFFFFFFFFFFFFF DUP2 GT ISZERO PUSH2 0x678 JUMPI PUSH2 0x677 PUSH2 0x12F8 JUMP JUMPDEST JUMPDEST PUSH1 0x40 MLOAD SWAP1 DUP1 DUP3 MSTORE DUP1 PUSH1 0x20 MUL PUSH1 0x20 ADD DUP3 ADD PUSH1 0x40 MSTORE DUP1 ISZERO PUSH2 0x6B1 JUMPI DUP2 PUSH1 0x20 ADD JUMPDEST PUSH2 0x69E PUSH2 0x1149 JUMP JUMPDEST DUP2 MSTORE PUSH1 0x20 ADD SWAP1 PUSH1 0x1 SWAP1 SUB SWAP1 DUP2 PUSH2 0x696 JUMPI SWAP1 POP JUMPDEST POP SWAP1 POP PUSH1 0x0 JUMPDEST DUP3 MLOAD DUP2 LT ISZERO PUSH2 0xA2F JUMPI PUSH1 0x1 PUSH1 0x0 DUP5 DUP4 DUP2 MLOAD DUP2 LT PUSH2 0x6D7 JUMPI PUSH2 0x6D6 PUSH2 0x22CB JUMP JUMPDEST JUMPDEST PUSH1 0x20 MUL PUSH1 0x20 ADD ADD MLOAD DUP2 MSTORE PUSH1 0x20 ADD SWAP1 DUP2 MSTORE PUSH1 0x20 ADD PUSH1 0x0 KECCAK256 PUSH1 0x40 MLOAD DUP1 PUSH2 0x120 ADD PUSH1 0x40 MSTORE SWAP1 DUP2 PUSH1 0x0 DUP3 ADD DUP1 SLOAD DUP1 PUSH1 0x20 MUL PUSH1 0x20 ADD PUSH1 0x40 MLOAD SWAP1 DUP2 ADD PUSH1 0x40 MSTORE DUP1 SWAP3 SWAP2 SWAP1 DUP2 DUP2 MSTORE PUSH1 0x20 ADD DUP3 DUP1 SLOAD DUP1 ISZERO PUSH2 0x77E JUMPI PUSH1 0x20 MUL DUP3 ADD SWAP2 SWAP1 PUSH1 0x0 MSTORE PUSH1 0x20 PUSH1 0x0 KECCAK256 SWAP1 JUMPDEST DUP2 PUSH1 0x0 SWAP1 SLOAD SWAP1 PUSH2 0x100 EXP SWAP1 DIV PUSH20 0xFFFFFFFFFFFFFFFFFFFFFFFFFFFFFFFFFFFFFFFF AND PUSH20 0xFFFFFFFFFFFFFFFFFFFFFFFFFFFFFFFFFFFFFFFF AND DUP2 MSTORE PUSH1 0x20 ADD SWAP1 PUSH1 0x1 ADD SWAP1 DUP1 DUP4 GT PUSH2 0x734 JUMPI JUMPDEST POP POP POP POP POP DUP2 MSTORE PUSH1 0x20 ADD PUSH1 0x1 DUP3 ADD DUP1 SLOAD DUP1 PUSH1 0x20 MUL PUSH1 0x20 ADD PUSH1 0x40 MLOAD SWAP1 DUP2 ADD PUSH1 0x40 MSTORE DUP1 SWAP3 SWAP2 SWAP1 DUP2 DUP2 MSTORE PUSH1 0x20 ADD DUP3 DUP1 SLOAD DUP1 ISZERO PUSH2 0x7D6 JUMPI PUSH1 0x20 MUL DUP3 ADD SWAP2 SWAP1 PUSH1 0x0 MSTORE PUSH1 0x20 PUSH1 0x0 KECCAK256 SWAP1 JUMPDEST DUP2 SLOAD DUP2 MSTORE PUSH1 0x20 ADD SWAP1 PUSH1 0x1 ADD SWAP1 DUP1 DUP4 GT PUSH2 0x7C2 JUMPI JUMPDEST POP POP POP POP POP DUP2 MSTORE PUSH1 0x20 ADD PUSH1 0x2 DUP3 ADD DUP1 SLOAD PUSH2 0x7EF SWAP1 PUSH2 0x1E5C JUMP JUMPDEST DUP1 PUSH1 0x1F ADD PUSH1 0x20 DUP1 SWAP2 DIV MUL PUSH1 0x20 ADD PUSH1 0x40 MLOAD SWAP1 DUP2 ADD PUSH1 0x40 MSTORE DUP1 SWAP3 SWAP2 SWAP1 DUP2 DUP2 MSTORE PUSH1 0x20 ADD DUP3 DUP1 SLOAD PUSH2 0x81B SWAP1 PUSH2 0x1E5C JUMP JUMPDEST DUP1 ISZERO PUSH2 0x868 JUMPI DUP1 PUSH1 0x1F LT PUSH2 0x83D JUMPI PUSH2 0x100 DUP1 DUP4 SLOAD DIV MUL DUP4 MSTORE SWAP2 PUSH1 0x20 ADD SWAP2 PUSH2 0x868 JUMP JUMPDEST DUP3 ADD SWAP2 SWAP1 PUSH1 0x0 MSTORE PUSH1 0x20 PUSH1 0x0 KECCAK256 SWAP1 JUMPDEST DUP2 SLOAD DUP2 MSTORE SWAP1 PUSH1 0x1 ADD SWAP1 PUSH1 0x20 ADD DUP1 DUP4 GT PUSH2 0x84B JUMPI DUP3 SWAP1 SUB PUSH1 0x1F AND DUP3 ADD SWAP2 JUMPDEST POP POP POP POP POP DUP2 MSTORE PUSH1 0x20 ADD PUSH1 0x3 DUP3 ADD DUP1 SLOAD PUSH2 0x881 SWAP1 PUSH2 0x1E5C JUMP JUMPDEST DUP1 PUSH1 0x1F ADD PUSH1 0x20 DUP1 SWAP2 DIV MUL PUSH1 0x20 ADD PUSH1 0x40 MLOAD SWAP1 DUP2 ADD PUSH1 0x40 MSTORE DUP1 SWAP3 SWAP2 SWAP1 DUP2 DUP2 MSTORE PUSH1 0x20 ADD DUP3 DUP1 SLOAD PUSH2 0x8AD SWAP1 PUSH2 0x1E5C JUMP JUMPDEST DUP1 ISZERO PUSH2 0x8FA JUMPI DUP1 PUSH1 0x1F LT PUSH2 0x8CF JUMPI PUSH2 0x100 DUP1 DUP4 SLOAD DIV MUL DUP4 MSTORE SWAP2 PUSH1 0x20 ADD SWAP2 PUSH2 0x8FA JUMP JUMPDEST DUP3 ADD SWAP2 SWAP1 PUSH1 0x0 MSTORE PUSH1 0x20 PUSH1 0x0 KECCAK256 SWAP1 JUMPDEST DUP2 SLOAD DUP2 MSTORE SWAP1 PUSH1 0x1 ADD SWAP1 PUSH1 0x20 ADD DUP1 DUP4 GT PUSH2 0x8DD JUMPI DUP3 SWAP1 SUB PUSH1 0x1F AND DUP3 ADD SWAP2 JUMPDEST POP POP POP POP POP DUP2 MSTORE PUSH1 0x20 ADD PUSH1 0x4 DUP3 ADD PUSH1 0x0 SWAP1 SLOAD SWAP1 PUSH2 0x100 EXP SWAP1 DIV PUSH16 0xFFFFFFFFFFFFFFFFFFFFFFFFFFFFFFFF AND PUSH16 0xFFFFFFFFFFFFFFFFFFFFFFFFFFFFFFFF AND PUSH16 0xFFFFFFFFFFFFFFFFFFFFFFFFFFFFFFFF AND DUP2 MSTORE PUSH1 0x20 ADD PUSH1 0x4 DUP3 ADD PUSH1 0x10 SWAP1 SLOAD SWAP1 PUSH2 0x100 EXP SWAP1 DIV PUSH16 0xFFFFFFFFFFFFFFFFFFFFFFFFFFFFFFFF AND PUSH16 0xFFFFFFFFFFFFFFFFFFFFFFFFFFFFFFFF AND PUSH16 0xFFFFFFFFFFFFFFFFFFFFFFFFFFFFFFFF AND DUP2 MSTORE PUSH1 0x20 ADD PUSH1 0x5 DUP3 ADD PUSH1 0x0 SWAP1 SLOAD SWAP1 PUSH2 0x100 EXP SWAP1 DIV PUSH4 0xFFFFFFFF AND PUSH4 0xFFFFFFFF AND PUSH4 0xFFFFFFFF AND DUP2 MSTORE PUSH1 0x20 ADD PUSH1 0x5 DUP3 ADD PUSH1 0x4 SWAP1 SLOAD SWAP1 PUSH2 0x100 EXP SWAP1 DIV PUSH4 0xFFFFFFFF AND PUSH4 0xFFFFFFFF AND PUSH4 0xFFFFFFFF AND DUP2 MSTORE PUSH1 0x20 ADD PUSH1 0x5 DUP3 ADD PUSH1 0x8 SWAP1 SLOAD SWAP1 PUSH2 0x100 EXP SWAP1 DIV PUSH1 0xFF AND ISZERO ISZERO ISZERO ISZERO DUP2 MSTORE POP POP DUP3 DUP3 DUP2 MLOAD DUP2 LT PUSH2 0xA11 JUMPI PUSH2 0xA10 PUSH2 0x22CB JUMP JUMPDEST JUMPDEST PUSH1 0x20 MUL PUSH1 0x20 ADD ADD DUP2 SWAP1 MSTORE POP DUP1 DUP1 PUSH2 0xA27 SWAP1 PUSH2 0x2283 JUMP JUMPDEST SWAP2 POP POP PUSH2 0x6B7 JUMP JUMPDEST POP DUP1 SWAP3 POP POP POP SWAP2 SWAP1 POP JUMP JUMPDEST PUSH1 0x1 PUSH1 0x20 MSTORE DUP1 PUSH1 0x0 MSTORE PUSH1 0x40 PUSH1 0x0 KECCAK256 PUSH1 0x0 SWAP2 POP SWAP1 POP DUP1 PUSH1 0x2 ADD DUP1 SLOAD PUSH2 0xA5D SWAP1 PUSH2 0x1E5C JUMP JUMPDEST DUP1 PUSH1 0x1F ADD PUSH1 0x20 DUP1 SWAP2 DIV MUL PUSH1 0x20 ADD PUSH1 0x40 MLOAD SWAP1 DUP2 ADD PUSH1 0x40 MSTORE DUP1 SWAP3 SWAP2 SWAP1 DUP2 DUP2 MSTORE PUSH1 0x20 ADD DUP3 DUP1 SLOAD PUSH2 0xA89 SWAP1 PUSH2 0x1E5C JUMP JUMPDEST DUP1 ISZERO PUSH2 0xAD6 JUMPI DUP1 PUSH1 0x1F LT PUSH2 0xAAB JUMPI PUSH2 0x100 DUP1 DUP4 SLOAD DIV MUL DUP4 MSTORE SWAP2 PUSH1 0x20 ADD SWAP2 PUSH2 0xAD6 JUMP JUMPDEST DUP3 ADD SWAP2 SWAP1 PUSH1 0x0 MSTORE PUSH1 0x20 PUSH1 0x0 KECCAK256 SWAP1 JUMPDEST DUP2 SLOAD DUP2 MSTORE SWAP1 PUSH1 0x1 ADD SWAP1 PUSH1 0x20 ADD DUP1 DUP4 GT PUSH2 0xAB9 JUMPI DUP3 SWAP1 SUB PUSH1 0x1F AND DUP3 ADD SWAP2 JUMPDEST POP POP POP POP POP SWAP1 DUP1 PUSH1 0x3 ADD DUP1 SLOAD PUSH2 0xAEB SWAP1 PUSH2 0x1E5C JUMP JUMPDEST DUP1 PUSH1 0x1F ADD PUSH1 0x20 DUP1 SWAP2 DIV MUL PUSH1 0x20 ADD PUSH1 0x40 MLOAD SWAP1 DUP2 ADD PUSH1 0x40 MSTORE DUP1 SWAP3 SWAP2 SWAP1 DUP2 DUP2 MSTORE PUSH1 0x20 ADD DUP3 DUP1 SLOAD PUSH2 0xB17 SWAP1 PUSH2 0x1E5C JUMP JUMPDEST DUP1 ISZERO PUSH2 0xB64 JUMPI DUP1 PUSH1 0x1F LT PUSH2 0xB39 JUMPI PUSH2 0x100 DUP1 DUP4 SLOAD DIV MUL DUP4 MSTORE SWAP2 PUSH1 0x20 ADD SWAP2 PUSH2 0xB64 JUMP JUMPDEST DUP3 ADD SWAP2 SWAP1 PUSH1 0x0 MSTORE PUSH1 0x20 PUSH1 0x0 KECCAK256 SWAP1 JUMPDEST DUP2 SLOAD DUP2 MSTORE SWAP1 PUSH1 0x1 ADD SWAP1 PUSH1 0x20 ADD DUP1 DUP4 GT PUSH2 0xB47 JUMPI DUP3 SWAP1 SUB PUSH1 0x1F AND DUP3 ADD SWAP2 JUMPDEST POP POP POP POP POP SWAP1 DUP1 PUSH1 0x4 ADD PUSH1 0x0 SWAP1 SLOAD SWAP1 PUSH2 0x100 EXP SWAP1 DIV PUSH16 0xFFFFFFFFFFFFFFFFFFFFFFFFFFFFFFFF AND SWAP1 DUP1 PUSH1 0x4 ADD PUSH1 0x10 SWAP1 SLOAD SWAP1 PUSH2 0x100 EXP SWAP1 DIV PUSH16 0xFFFFFFFFFFFFFFFFFFFFFFFFFFFFFFFF AND SWAP1 DUP1 PUSH1 0x5 ADD PUSH1 0x0 SWAP1 SLOAD SWAP1 PUSH2 0x100 EXP SWAP1 DIV PUSH4 0xFFFFFFFF AND SWAP1 DUP1 PUSH1 0x5 ADD PUSH1 0x4 SWAP1 SLOAD SWAP1 PUSH2 0x100 EXP SWAP1 DIV PUSH4 0xFFFFFFFF AND SWAP1 DUP1 PUSH1 0x5 ADD PUSH1 0x8 SWAP1 SLOAD SWAP1 PUSH2 0x100 EXP SWAP1 DIV PUSH1 0xFF AND SWAP1 POP DUP8 JUMP JUMPDEST PUSH1 0x0 PUSH1 0x1 PUSH1 0x0 DUP4 DUP2 MSTORE PUSH1 0x20 ADD SWAP1 DUP2 MSTORE PUSH1 0x20 ADD PUSH1 0x0 KECCAK256 PUSH1 0x5 ADD PUSH1 0x8 PUSH2 0x100 EXP DUP2 SLOAD DUP2 PUSH1 0xFF MUL NOT AND SWAP1 DUP4 ISZERO ISZERO MUL OR SWAP1 SSTORE POP PUSH32 0xBE5AA4247333E0978E80EDFD1266E28E6CBA6EA134522F795973C7133BC43174 DUP2 PUSH1 0x40 MLOAD PUSH2 0xC4F SWAP2 SWAP1 PUSH2 0x17E5 JUMP JUMPDEST PUSH1 0x40 MLOAD DUP1 SWAP2 SUB SWAP1 LOG1 POP JUMP JUMPDEST DUP1 PUSH1 0x1 PUSH1 0x0 DUP5 DUP2 MSTORE PUSH1 0x20 ADD SWAP1 DUP2 MSTORE PUSH1 0x20 ADD PUSH1 0x0 KECCAK256 PUSH1 0x4 ADD PUSH1 0x0 DUP3 DUP3 DUP3 SWAP1 SLOAD SWAP1 PUSH2 0x100 EXP SWAP1 DIV PUSH16 0xFFFFFFFFFFFFFFFFFFFFFFFFFFFFFFFF AND PUSH2 0xC9B SWAP2 SWAP1 PUSH2 0x22FA JUMP JUMPDEST SWAP3 POP PUSH2 0x100 EXP DUP2 SLOAD DUP2 PUSH16 0xFFFFFFFFFFFFFFFFFFFFFFFFFFFFFFFF MUL NOT AND SWAP1 DUP4 PUSH16 0xFFFFFFFFFFFFFFFFFFFFFFFFFFFFFFFF AND MUL OR SWAP1 SSTORE POP DUP2 PUSH32 0xCDF608777B7C369C17A854E339A0C861F903B381B92294555CD61B0C49F6CAB PUSH1 0x1 PUSH1 0x0 DUP6 DUP2 MSTORE PUSH1 0x20 ADD SWAP1 DUP2 MSTORE PUSH1 0x20 ADD PUSH1 0x0 KECCAK256 PUSH1 0x4 ADD PUSH1 0x0 SWAP1 SLOAD SWAP1 PUSH2 0x100 EXP SWAP1 DIV PUSH16 0xFFFFFFFFFFFFFFFFFFFFFFFFFFFFFFFF AND PUSH1 0x40 MLOAD PUSH2 0xD33 SWAP2 SWAP1 PUSH2 0x233E JUMP JUMPDEST PUSH1 0x40 MLOAD DUP1 SWAP2 SUB SWAP1 LOG2 POP POP JUMP JUMPDEST PUSH2 0xD47 PUSH2 0x1149 JUMP JUMPDEST PUSH1 0x1 PUSH1 0x0 DUP4 DUP2 MSTORE PUSH1 0x20 ADD SWAP1 DUP2 MSTORE PUSH1 0x20 ADD PUSH1 0x0 KECCAK256 PUSH1 0x40 MLOAD DUP1 PUSH2 0x120 ADD PUSH1 0x40 MSTORE SWAP1 DUP2 PUSH1 0x0 DUP3 ADD DUP1 SLOAD DUP1 PUSH1 0x20 MUL PUSH1 0x20 ADD PUSH1 0x40 MLOAD SWAP1 DUP2 ADD PUSH1 0x40 MSTORE DUP1 SWAP3 SWAP2 SWAP1 DUP2 DUP2 MSTORE PUSH1 0x20 ADD DUP3 DUP1 SLOAD DUP1 ISZERO PUSH2 0xDEB JUMPI PUSH1 0x20 MUL DUP3 ADD SWAP2 SWAP1 PUSH1 0x0 MSTORE PUSH1 0x20 PUSH1 0x0 KECCAK256 SWAP1 JUMPDEST DUP2 PUSH1 0x0 SWAP1 SLOAD SWAP1 PUSH2 0x100 EXP SWAP1 DIV PUSH20 0xFFFFFFFFFFFFFFFFFFFFFFFFFFFFFFFFFFFFFFFF AND PUSH20 0xFFFFFFFFFFFFFFFFFFFFFFFFFFFFFFFFFFFFFFFF AND DUP2 MSTORE PUSH1 0x20 ADD SWAP1 PUSH1 0x1 ADD SWAP1 DUP1 DUP4 GT PUSH2 0xDA1 JUMPI JUMPDEST POP POP POP POP POP DUP2 MSTORE PUSH1 0x20 ADD PUSH1 0x1 DUP3 ADD DUP1 SLOAD DUP1 PUSH1 0x20 MUL PUSH1 0x20 ADD PUSH1 0x40 MLOAD SWAP1 DUP2 ADD PUSH1 0x40 MSTORE DUP1 SWAP3 SWAP2 SWAP1 DUP2 DUP2 MSTORE PUSH1 0x20 ADD DUP3 DUP1 SLOAD DUP1 ISZERO PUSH2 0xE43 JUMPI PUSH1 0x20 MUL DUP3 ADD SWAP2 SWAP1 PUSH1 0x0 MSTORE PUSH1 0x20 PUSH1 0x0 KECCAK256 SWAP1 JUMPDEST DUP2 SLOAD DUP2 MSTORE PUSH1 0x20 ADD SWAP1 PUSH1 0x1 ADD SWAP1 DUP1 DUP4 GT PUSH2 0xE2F JUMPI JUMPDEST POP POP POP POP POP DUP2 MSTORE PUSH1 0x20 ADD PUSH1 0x2 DUP3 ADD DUP1 SLOAD PUSH2 0xE5C SWAP1 PUSH2 0x1E5C JUMP JUMPDEST DUP1 PUSH1 0x1F ADD PUSH1 0x20 DUP1 SWAP2 DIV MUL PUSH1 0x20 ADD PUSH1 0x40 MLOAD SWAP1 DUP2 ADD PUSH1 0x40 MSTORE DUP1 SWAP3 SWAP2 SWAP1 DUP2 DUP2 MSTORE PUSH1 0x20 ADD DUP3 DUP1 SLOAD PUSH2 0xE88 SWAP1 PUSH2 0x1E5C JUMP JUMPDEST DUP1 ISZERO PUSH2 0xED5 JUMPI DUP1 PUSH1 0x1F LT PUSH2 0xEAA JUMPI PUSH2 0x100 DUP1 DUP4 SLOAD DIV MUL DUP4 MSTORE SWAP2 PUSH1 0x20 ADD SWAP2 PUSH2 0xED5 JUMP JUMPDEST DUP3 ADD SWAP2 SWAP1 PUSH1 0x0 MSTORE PUSH1 0x20 PUSH1 0x0 KECCAK256 SWAP1 JUMPDEST DUP2 SLOAD DUP2 MSTORE SWAP1 PUSH1 0x1 ADD SWAP1 PUSH1 0x20 ADD DUP1 DUP4 GT PUSH2 0xEB8 JUMPI DUP3 SWAP1 SUB PUSH1 0x1F AND DUP3 ADD SWAP2 JUMPDEST POP POP POP POP POP DUP2 MSTORE PUSH1 0x20 ADD PUSH1 0x3 DUP3 ADD DUP1 SLOAD PUSH2 0xEEE SWAP1 PUSH2 0x1E5C JUMP JUMPDEST DUP1 PUSH1 0x1F ADD PUSH1 0x20 DUP1 SWAP2 DIV MUL PUSH1 0x20 ADD PUSH1 0x40 MLOAD SWAP1 DUP2 ADD PUSH1 0x40 MSTORE DUP1 SWAP3 SWAP2 SWAP1 DUP2 DUP2 MSTORE PUSH1 0x20 ADD DUP3 DUP1 SLOAD PUSH2 0xF1A SWAP1 PUSH2 0x1E5C JUMP JUMPDEST DUP1 ISZERO PUSH2 0xF67 JUMPI DUP1 PUSH1 0x1F LT PUSH2 0xF3C JUMPI PUSH2 0x100 DUP1 DUP4 SLOAD DIV MUL DUP4 MSTORE SWAP2 PUSH1 0x20 ADD SWAP2 PUSH2 0xF67 JUMP JUMPDEST DUP3 ADD SWAP2 SWAP1 PUSH1 0x0 MSTORE PUSH1 0x20 PUSH1 0x0 KECCAK256 SWAP1 JUMPDEST DUP2 SLOAD DUP2 MSTORE SWAP1 PUSH1 0x1 ADD SWAP1 PUSH1 0x20 ADD DUP1 DUP4 GT PUSH2 0xF4A JUMPI DUP3 SWAP1 SUB PUSH1 0x1F AND DUP3 ADD SWAP2 JUMPDEST POP POP POP POP POP DUP2 MSTORE PUSH1 0x20 ADD PUSH1 0x4 DUP3 ADD PUSH1 0x0 SWAP1 SLOAD SWAP1 PUSH2 0x100 EXP SWAP1 DIV PUSH16 0xFFFFFFFFFFFFFFFFFFFFFFFFFFFFFFFF AND PUSH16 0xFFFFFFFFFFFFFFFFFFFFFFFFFFFFFFFF AND PUSH16 0xFFFFFFFFFFFFFFFFFFFFFFFFFFFFFFFF AND DUP2 MSTORE PUSH1 0x20 ADD PUSH1 0x4 DUP3 ADD PUSH1 0x10 SWAP1 SLOAD SWAP1 PUSH2 0x100 EXP SWAP1 DIV PUSH16 0xFFFFFFFFFFFFFFFFFFFFFFFFFFFFFFFF AND PUSH16 0xFFFFFFFFFFFFFFFFFFFFFFFFFFFFFFFF AND PUSH16 0xFFFFFFFFFFFFFFFFFFFFFFFFFFFFFFFF AND DUP2 MSTORE PUSH1 0x20 ADD PUSH1 0x5 DUP3 ADD PUSH1 0x0 SWAP1 SLOAD SWAP1 PUSH2 0x100 EXP SWAP1 DIV PUSH4 0xFFFFFFFF AND PUSH4 0xFFFFFFFF AND PUSH4 0xFFFFFFFF AND DUP2 MSTORE PUSH1 0x20 ADD PUSH1 0x5 DUP3 ADD PUSH1 0x4 SWAP1 SLOAD SWAP1 PUSH2 0x100 EXP SWAP1 DIV PUSH4 0xFFFFFFFF AND PUSH4 0xFFFFFFFF AND PUSH4 0xFFFFFFFF AND DUP2 MSTORE PUSH1 0x20 ADD PUSH1 0x5 DUP3 ADD PUSH1 0x8 SWAP1 SLOAD SWAP1 PUSH2 0x100 EXP SWAP1 DIV PUSH1 0xFF AND ISZERO ISZERO ISZERO ISZERO DUP2 MSTORE POP POP SWAP1 POP SWAP2 SWAP1 POP JUMP JUMPDEST DUP3 DUP1 SLOAD DUP3 DUP3 SSTORE SWAP1 PUSH1 0x0 MSTORE PUSH1 0x20 PUSH1 0x0 KECCAK256 SWAP1 DUP2 ADD SWAP3 DUP3 ISZERO PUSH2 0x10EB JUMPI SWAP2 PUSH1 0x20 MUL DUP3 ADD JUMPDEST DUP3 DUP2 GT ISZERO PUSH2 0x10EA JUMPI DUP3 MLOAD DUP3 PUSH1 0x0 PUSH2 0x100 EXP DUP2 SLOAD DUP2 PUSH20 0xFFFFFFFFFFFFFFFFFFFFFFFFFFFFFFFFFFFFFFFF MUL NOT AND SWAP1 DUP4 PUSH20 0xFFFFFFFFFFFFFFFFFFFFFFFFFFFFFFFFFFFFFFFF AND MUL OR SWAP1 SSTORE POP SWAP2 PUSH1 0x20 ADD SWAP2 SWAP1 PUSH1 0x1 ADD SWAP1 PUSH2 0x1092 JUMP JUMPDEST JUMPDEST POP SWAP1 POP PUSH2 0x10F8 SWAP2 SWAP1 PUSH2 0x11C7 JUMP JUMPDEST POP SWAP1 JUMP JUMPDEST DUP3 DUP1 SLOAD DUP3 DUP3 SSTORE SWAP1 PUSH1 0x0 MSTORE PUSH1 0x20 PUSH1 0x0 KECCAK256 SWAP1 DUP2 ADD SWAP3 DUP3 ISZERO PUSH2 0x1138 JUMPI SWAP2 PUSH1 0x20 MUL DUP3 ADD JUMPDEST DUP3 DUP2 GT ISZERO PUSH2 0x1137 JUMPI DUP3 MLOAD DUP3 SSTORE SWAP2 PUSH1 0x20 ADD SWAP2 SWAP1 PUSH1 0x1 ADD SWAP1 PUSH2 0x111C JUMP JUMPDEST JUMPDEST POP SWAP1 POP PUSH2 0x1145 SWAP2 SWAP1 PUSH2 0x11C7 JUMP JUMPDEST POP SWAP1 JUMP JUMPDEST PUSH1 0x40 MLOAD DUP1 PUSH2 0x120 ADD PUSH1 0x40 MSTORE DUP1 PUSH1 0x60 DUP2 MSTORE PUSH1 0x20 ADD PUSH1 0x60 DUP2 MSTORE PUSH1 0x20 ADD PUSH1 0x60 DUP2 MSTORE PUSH1 0x20 ADD PUSH1 0x60 DUP2 MSTORE PUSH1 0x20 ADD PUSH1 0x0 PUSH16 0xFFFFFFFFFFFFFFFFFFFFFFFFFFFFFFFF AND DUP2 MSTORE PUSH1 0x20 ADD PUSH1 0x0 PUSH16 0xFFFFFFFFFFFFFFFFFFFFFFFFFFFFFFFF AND DUP2 MSTORE PUSH1 0x20 ADD PUSH1 0x0 PUSH4 0xFFFFFFFF AND DUP2 MSTORE PUSH1 0x20 ADD PUSH1 0x0 PUSH4 0xFFFFFFFF AND DUP2 MSTORE PUSH1 0x20 ADD PUSH1 0x0 ISZERO ISZERO DUP2 MSTORE POP SWAP1 JUMP JUMPDEST JUMPDEST DUP1 DUP3 GT ISZERO PUSH2 0x11E0 JUMPI PUSH1 0x0 DUP2 PUSH1 0x0 SWAP1 SSTORE POP PUSH1 0x1 ADD PUSH2 0x11C8 JUMP JUMPDEST POP SWAP1 JUMP JUMPDEST PUSH1 0x0 DUP2 MLOAD SWAP1 POP SWAP2 SWAP1 POP JUMP JUMPDEST PUSH1 0x0 DUP3 DUP3 MSTORE PUSH1 0x20 DUP3 ADD SWAP1 POP SWAP3 SWAP2 POP POP JUMP JUMPDEST PUSH1 0x0 DUP2 SWAP1 POP PUSH1 0x20 DUP3 ADD SWAP1 POP SWAP2 SWAP1 POP JUMP JUMPDEST PUSH1 0x0 DUP2 SWAP1 POP SWAP2 SWAP1 POP JUMP JUMPDEST PUSH2 0x1223 DUP2 PUSH2 0x1210 JUMP JUMPDEST DUP3 MSTORE POP POP JUMP JUMPDEST PUSH1 0x0 PUSH2 0x1235 DUP4 DUP4 PUSH2 0x121A JUMP JUMPDEST PUSH1 0x20 DUP4 ADD SWAP1 POP SWAP3 SWAP2 POP POP JUMP JUMPDEST PUSH1 0x0 PUSH1 0x20 DUP3 ADD SWAP1 POP SWAP2 SWAP1 POP JUMP JUMPDEST PUSH1 0x0 PUSH2 0x1259 DUP3 PUSH2 0x11E4 JUMP JUMPDEST PUSH2 0x1263 DUP2 DUP6 PUSH2 0x11EF JUMP JUMPDEST SWAP4 POP PUSH2 0x126E DUP4 PUSH2 0x1200 JUMP JUMPDEST DUP1 PUSH1 0x0 JUMPDEST DUP4 DUP2 LT ISZERO PUSH2 0x129F JUMPI DUP2 MLOAD PUSH2 0x1286 DUP9 DUP3 PUSH2 0x1229 JUMP JUMPDEST SWAP8 POP PUSH2 0x1291 DUP4 PUSH2 0x1241 JUMP JUMPDEST SWAP3 POP POP PUSH1 0x1 DUP2 ADD SWAP1 POP PUSH2 0x1272 JUMP JUMPDEST POP DUP6 SWAP4 POP POP POP POP SWAP3 SWAP2 POP POP JUMP JUMPDEST PUSH1 0x0 PUSH1 0x20 DUP3 ADD SWAP1 POP DUP2 DUP2 SUB PUSH1 0x0 DUP4 ADD MSTORE PUSH2 0x12C6 DUP2 DUP5 PUSH2 0x124E JUMP JUMPDEST SWAP1 POP SWAP3 SWAP2 POP POP JUMP JUMPDEST PUSH1 0x0 PUSH1 0x40 MLOAD SWAP1 POP SWAP1 JUMP JUMPDEST PUSH1 0x0 DUP1 REVERT JUMPDEST PUSH1 0x0 DUP1 REVERT JUMPDEST PUSH1 0x0 DUP1 REVERT JUMPDEST PUSH1 0x0 PUSH1 0x1F NOT PUSH1 0x1F DUP4 ADD AND SWAP1 POP SWAP2 SWAP1 POP JUMP JUMPDEST PUSH32 0x4E487B7100000000000000000000000000000000000000000000000000000000 PUSH1 0x0 MSTORE PUSH1 0x41 PUSH1 0x4 MSTORE PUSH1 0x24 PUSH1 0x0 REVERT JUMPDEST PUSH2 0x1330 DUP3 PUSH2 0x12E7 JUMP JUMPDEST DUP2 ADD DUP2 DUP2 LT PUSH8 0xFFFFFFFFFFFFFFFF DUP3 GT OR ISZERO PUSH2 0x134F JUMPI PUSH2 0x134E PUSH2 0x12F8 JUMP JUMPDEST JUMPDEST DUP1 PUSH1 0x40 MSTORE POP POP POP JUMP JUMPDEST PUSH1 0x0 PUSH2 0x1362 PUSH2 0x12CE JUMP JUMPDEST SWAP1 POP PUSH2 0x136E DUP3 DUP3 PUSH2 0x1327 JUMP JUMPDEST SWAP2 SWAP1 POP JUMP JUMPDEST PUSH1 0x0 PUSH8 0xFFFFFFFFFFFFFFFF DUP3 GT ISZERO PUSH2 0x138E JUMPI PUSH2 0x138D PUSH2 0x12F8 JUMP JUMPDEST JUMPDEST PUSH1 0x20 DUP3 MUL SWAP1 POP PUSH1 0x20 DUP2 ADD SWAP1 POP SWAP2 SWAP1 POP JUMP JUMPDEST PUSH1 0x0 DUP1 REVERT JUMPDEST PUSH1 0x0 PUSH20 0xFFFFFFFFFFFFFFFFFFFFFFFFFFFFFFFFFFFFFFFF DUP3 AND SWAP1 POP SWAP2 SWAP1 POP JUMP JUMPDEST PUSH1 0x0 PUSH2 0x13CF DUP3 PUSH2 0x13A4 JUMP JUMPDEST SWAP1 POP SWAP2 SWAP1 POP JUMP JUMPDEST PUSH2 0x13DF DUP2 PUSH2 0x13C4 JUMP JUMPDEST DUP2 EQ PUSH2 0x13EA JUMPI PUSH1 0x0 DUP1 REVERT JUMPDEST POP JUMP JUMPDEST PUSH1 0x0 DUP2 CALLDATALOAD SWAP1 POP PUSH2 0x13FC DUP2 PUSH2 0x13D6 JUMP JUMPDEST SWAP3 SWAP2 POP POP JUMP JUMPDEST PUSH1 0x0 PUSH2 0x1415 PUSH2 0x1410 DUP5 PUSH2 0x1373 JUMP JUMPDEST PUSH2 0x1358 JUMP JUMPDEST SWAP1 POP DUP1 DUP4 DUP3 MSTORE PUSH1 0x20 DUP3 ADD SWAP1 POP PUSH1 0x20 DUP5 MUL DUP4 ADD DUP6 DUP2 GT ISZERO PUSH2 0x1438 JUMPI PUSH2 0x1437 PUSH2 0x139F JUMP JUMPDEST JUMPDEST DUP4 JUMPDEST DUP2 DUP2 LT ISZERO PUSH2 0x1461 JUMPI DUP1 PUSH2 0x144D DUP9 DUP3 PUSH2 0x13ED JUMP JUMPDEST DUP5 MSTORE PUSH1 0x20 DUP5 ADD SWAP4 POP POP PUSH1 0x20 DUP2 ADD SWAP1 POP PUSH2 0x143A JUMP JUMPDEST POP POP POP SWAP4 SWAP3 POP POP POP JUMP JUMPDEST PUSH1 0x0 DUP3 PUSH1 0x1F DUP4 ADD SLT PUSH2 0x1480 JUMPI PUSH2 0x147F PUSH2 0x12E2 JUMP JUMPDEST JUMPDEST DUP2 CALLDATALOAD PUSH2 0x1490 DUP5 DUP3 PUSH1 0x20 DUP7 ADD PUSH2 0x1402 JUMP JUMPDEST SWAP2 POP POP SWAP3 SWAP2 POP POP JUMP JUMPDEST PUSH1 0x0 PUSH8 0xFFFFFFFFFFFFFFFF DUP3 GT ISZERO PUSH2 0x14B4 JUMPI PUSH2 0x14B3 PUSH2 0x12F8 JUMP JUMPDEST JUMPDEST PUSH1 0x20 DUP3 MUL SWAP1 POP PUSH1 0x20 DUP2 ADD SWAP1 POP SWAP2 SWAP1 POP JUMP JUMPDEST PUSH2 0x14CE DUP2 PUSH2 0x1210 JUMP JUMPDEST DUP2 EQ PUSH2 0x14D9 JUMPI PUSH1 0x0 DUP1 REVERT JUMPDEST POP JUMP JUMPDEST PUSH1 0x0 DUP2 CALLDATALOAD SWAP1 POP PUSH2 0x14EB DUP2 PUSH2 0x14C5 JUMP JUMPDEST SWAP3 SWAP2 POP POP JUMP JUMPDEST PUSH1 0x0 PUSH2 0x1504 PUSH2 0x14FF DUP5 PUSH2 0x1499 JUMP JUMPDEST PUSH2 0x1358 JUMP JUMPDEST SWAP1 POP DUP1 DUP4 DUP3 MSTORE PUSH1 0x20 DUP3 ADD SWAP1 POP PUSH1 0x20 DUP5 MUL DUP4 ADD DUP6 DUP2 GT ISZERO PUSH2 0x1527 JUMPI PUSH2 0x1526 PUSH2 0x139F JUMP JUMPDEST JUMPDEST DUP4 JUMPDEST DUP2 DUP2 LT ISZERO PUSH2 0x1550 JUMPI DUP1 PUSH2 0x153C DUP9 DUP3 PUSH2 0x14DC JUMP JUMPDEST DUP5 MSTORE PUSH1 0x20 DUP5 ADD SWAP4 POP POP PUSH1 0x20 DUP2 ADD SWAP1 POP PUSH2 0x1529 JUMP JUMPDEST POP POP POP SWAP4 SWAP3 POP POP POP JUMP JUMPDEST PUSH1 0x0 DUP3 PUSH1 0x1F DUP4 ADD SLT PUSH2 0x156F JUMPI PUSH2 0x156E PUSH2 0x12E2 JUMP JUMPDEST JUMPDEST DUP2 CALLDATALOAD PUSH2 0x157F DUP5 DUP3 PUSH1 0x20 DUP7 ADD PUSH2 0x14F1 JUMP JUMPDEST SWAP2 POP POP SWAP3 SWAP2 POP POP JUMP JUMPDEST PUSH1 0x0 DUP1 REVERT JUMPDEST PUSH1 0x0 DUP1 DUP4 PUSH1 0x1F DUP5 ADD SLT PUSH2 0x15A3 JUMPI PUSH2 0x15A2 PUSH2 0x12E2 JUMP JUMPDEST JUMPDEST DUP3 CALLDATALOAD SWAP1 POP PUSH8 0xFFFFFFFFFFFFFFFF DUP2 GT ISZERO PUSH2 0x15C0 JUMPI PUSH2 0x15BF PUSH2 0x1588 JUMP JUMPDEST JUMPDEST PUSH1 0x20 DUP4 ADD SWAP2 POP DUP4 PUSH1 0x1 DUP3 MUL DUP4 ADD GT ISZERO PUSH2 0x15DC JUMPI PUSH2 0x15DB PUSH2 0x139F JUMP JUMPDEST JUMPDEST SWAP3 POP SWAP3 SWAP1 POP JUMP JUMPDEST PUSH1 0x0 PUSH16 0xFFFFFFFFFFFFFFFFFFFFFFFFFFFFFFFF DUP3 AND SWAP1 POP SWAP2 SWAP1 POP JUMP JUMPDEST PUSH2 0x1608 DUP2 PUSH2 0x15E3 JUMP JUMPDEST DUP2 EQ PUSH2 0x1613 JUMPI PUSH1 0x0 DUP1 REVERT JUMPDEST POP JUMP JUMPDEST PUSH1 0x0 DUP2 CALLDATALOAD SWAP1 POP PUSH2 0x1625 DUP2 PUSH2 0x15FF JUMP JUMPDEST SWAP3 SWAP2 POP POP JUMP JUMPDEST PUSH1 0x0 PUSH4 0xFFFFFFFF DUP3 AND SWAP1 POP SWAP2 SWAP1 POP JUMP JUMPDEST PUSH2 0x1644 DUP2 PUSH2 0x162B JUMP JUMPDEST DUP2 EQ PUSH2 0x164F JUMPI PUSH1 0x0 DUP1 REVERT JUMPDEST POP JUMP JUMPDEST PUSH1 0x0 DUP2 CALLDATALOAD SWAP1 POP PUSH2 0x1661 DUP2 PUSH2 0x163B JUMP JUMPDEST SWAP3 SWAP2 POP POP JUMP JUMPDEST PUSH1 0x0 DUP1 PUSH1 0x0 DUP1 PUSH1 0x0 DUP1 PUSH1 0x0 DUP1 PUSH1 0x0 DUP1 PUSH2 0x100 DUP12 DUP14 SUB SLT ISZERO PUSH2 0x168B JUMPI PUSH2 0x168A PUSH2 0x12D8 JUMP JUMPDEST JUMPDEST PUSH1 0x0 DUP12 ADD CALLDATALOAD PUSH8 0xFFFFFFFFFFFFFFFF DUP2 GT ISZERO PUSH2 0x16A9 JUMPI PUSH2 0x16A8 PUSH2 0x12DD JUMP JUMPDEST JUMPDEST PUSH2 0x16B5 DUP14 DUP3 DUP15 ADD PUSH2 0x146B JUMP JUMPDEST SWAP11 POP POP PUSH1 0x20 DUP12 ADD CALLDATALOAD PUSH8 0xFFFFFFFFFFFFFFFF DUP2 GT ISZERO PUSH2 0x16D6 JUMPI PUSH2 0x16D5 PUSH2 0x12DD JUMP JUMPDEST JUMPDEST PUSH2 0x16E2 DUP14 DUP3 DUP15 ADD PUSH2 0x155A JUMP JUMPDEST SWAP10 POP POP PUSH1 0x40 DUP12 ADD CALLDATALOAD PUSH8 0xFFFFFFFFFFFFFFFF DUP2 GT ISZERO PUSH2 0x1703 JUMPI PUSH2 0x1702 PUSH2 0x12DD JUMP JUMPDEST JUMPDEST PUSH2 0x170F DUP14 DUP3 DUP15 ADD PUSH2 0x158D JUMP JUMPDEST SWAP9 POP SWAP9 POP POP PUSH1 0x60 DUP12 ADD CALLDATALOAD PUSH8 0xFFFFFFFFFFFFFFFF DUP2 GT ISZERO PUSH2 0x1732 JUMPI PUSH2 0x1731 PUSH2 0x12DD JUMP JUMPDEST JUMPDEST PUSH2 0x173E DUP14 DUP3 DUP15 ADD PUSH2 0x158D JUMP JUMPDEST SWAP7 POP SWAP7 POP POP PUSH1 0x80 PUSH2 0x1751 DUP14 DUP3 DUP15 ADD PUSH2 0x1616 JUMP JUMPDEST SWAP5 POP POP PUSH1 0xA0 PUSH2 0x1762 DUP14 DUP3 DUP15 ADD PUSH2 0x1616 JUMP JUMPDEST SWAP4 POP POP PUSH1 0xC0 PUSH2 0x1773 DUP14 DUP3 DUP15 ADD PUSH2 0x1652 JUMP JUMPDEST SWAP3 POP POP PUSH1 0xE0 PUSH2 0x1784 DUP14 DUP3 DUP15 ADD PUSH2 0x1652 JUMP JUMPDEST SWAP2 POP POP SWAP3 SWAP6 SWAP9 SWAP12 SWAP2 SWAP5 SWAP8 SWAP11 POP SWAP3 SWAP6 SWAP9 POP JUMP JUMPDEST PUSH1 0x0 DUP1 PUSH1 0x40 DUP4 DUP6 SUB SLT ISZERO PUSH2 0x17AD JUMPI PUSH2 0x17AC PUSH2 0x12D8 JUMP JUMPDEST JUMPDEST PUSH1 0x0 PUSH2 0x17BB DUP6 DUP3 DUP7 ADD PUSH2 0x13ED JUMP JUMPDEST SWAP3 POP POP PUSH1 0x20 PUSH2 0x17CC DUP6 DUP3 DUP7 ADD PUSH2 0x14DC JUMP JUMPDEST SWAP2 POP POP SWAP3 POP SWAP3 SWAP1 POP JUMP JUMPDEST PUSH2 0x17DF DUP2 PUSH2 0x1210 JUMP JUMPDEST DUP3 MSTORE POP POP JUMP JUMPDEST PUSH1 0x0 PUSH1 0x20 DUP3 ADD SWAP1 POP PUSH2 0x17FA PUSH1 0x0 DUP4 ADD DUP5 PUSH2 0x17D6 JUMP JUMPDEST SWAP3 SWAP2 POP POP JUMP JUMPDEST PUSH1 0x0 PUSH1 0x20 DUP3 DUP5 SUB SLT ISZERO PUSH2 0x1816 JUMPI PUSH2 0x1815 PUSH2 0x12D8 JUMP JUMPDEST JUMPDEST PUSH1 0x0 PUSH2 0x1824 DUP5 DUP3 DUP6 ADD PUSH2 0x13ED JUMP JUMPDEST SWAP2 POP POP SWAP3 SWAP2 POP POP JUMP JUMPDEST PUSH1 0x0 DUP2 MLOAD SWAP1 POP SWAP2 SWAP1 POP JUMP JUMPDEST PUSH1 0x0 DUP3 DUP3 MSTORE PUSH1 0x20 DUP3 ADD SWAP1 POP SWAP3 SWAP2 POP POP JUMP JUMPDEST PUSH1 0x0 DUP2 SWAP1 POP PUSH1 0x20 DUP3 ADD SWAP1 POP SWAP2 SWAP1 POP JUMP JUMPDEST PUSH1 0x0 DUP2 MLOAD SWAP1 POP SWAP2 SWAP1 POP JUMP JUMPDEST PUSH1 0x0 DUP3 DUP3 MSTORE PUSH1 0x20 DUP3 ADD SWAP1 POP SWAP3 SWAP2 POP POP JUMP JUMPDEST PUSH1 0x0 DUP2 SWAP1 POP PUSH1 0x20 DUP3 ADD SWAP1 POP SWAP2 SWAP1 POP JUMP JUMPDEST PUSH2 0x188E DUP2 PUSH2 0x13C4 JUMP JUMPDEST DUP3 MSTORE POP POP JUMP JUMPDEST PUSH1 0x0 PUSH2 0x18A0 DUP4 DUP4 PUSH2 0x1885 JUMP JUMPDEST PUSH1 0x20 DUP4 ADD SWAP1 POP SWAP3 SWAP2 POP POP JUMP JUMPDEST PUSH1 0x0 PUSH1 0x20 DUP3 ADD SWAP1 POP SWAP2 SWAP1 POP JUMP JUMPDEST PUSH1 0x0 PUSH2 0x18C4 DUP3 PUSH2 0x1859 JUMP JUMPDEST PUSH2 0x18CE DUP2 DUP6 PUSH2 0x1864 JUMP JUMPDEST SWAP4 POP PUSH2 0x18D9 DUP4 PUSH2 0x1875 JUMP JUMPDEST DUP1 PUSH1 0x0 JUMPDEST DUP4 DUP2 LT ISZERO PUSH2 0x190A JUMPI DUP2 MLOAD PUSH2 0x18F1 DUP9 DUP3 PUSH2 0x1894 JUMP JUMPDEST SWAP8 POP PUSH2 0x18FC DUP4 PUSH2 0x18AC JUMP JUMPDEST SWAP3 POP POP PUSH1 0x1 DUP2 ADD SWAP1 POP PUSH2 0x18DD JUMP JUMPDEST POP DUP6 SWAP4 POP POP POP POP SWAP3 SWAP2 POP POP JUMP JUMPDEST PUSH1 0x0 DUP3 DUP3 MSTORE PUSH1 0x20 DUP3 ADD SWAP1 POP SWAP3 SWAP2 POP POP JUMP JUMPDEST PUSH1 0x0 PUSH2 0x1933 DUP3 PUSH2 0x11E4 JUMP JUMPDEST PUSH2 0x193D DUP2 DUP6 PUSH2 0x1917 JUMP JUMPDEST SWAP4 POP PUSH2 0x1948 DUP4 PUSH2 0x1200 JUMP JUMPDEST DUP1 PUSH1 0x0 JUMPDEST DUP4 DUP2 LT ISZERO PUSH2 0x1979 JUMPI DUP2 MLOAD PUSH2 0x1960 DUP9 DUP3 PUSH2 0x1229 JUMP JUMPDEST SWAP8 POP PUSH2 0x196B DUP4 PUSH2 0x1241 JUMP JUMPDEST SWAP3 POP POP PUSH1 0x1 DUP2 ADD SWAP1 POP PUSH2 0x194C JUMP JUMPDEST POP DUP6 SWAP4 POP POP POP POP SWAP3 SWAP2 POP POP JUMP JUMPDEST PUSH1 0x0 DUP2 MLOAD SWAP1 POP SWAP2 SWAP1 POP JUMP JUMPDEST PUSH1 0x0 DUP3 DUP3 MSTORE PUSH1 0x20 DUP3 ADD SWAP1 POP SWAP3 SWAP2 POP POP JUMP JUMPDEST PUSH1 0x0 JUMPDEST DUP4 DUP2 LT ISZERO PUSH2 0x19C0 JUMPI DUP1 DUP3 ADD MLOAD DUP2 DUP5 ADD MSTORE PUSH1 0x20 DUP2 ADD SWAP1 POP PUSH2 0x19A5 JUMP JUMPDEST PUSH1 0x0 DUP5 DUP5 ADD MSTORE POP POP POP POP JUMP JUMPDEST PUSH1 0x0 PUSH2 0x19D7 DUP3 PUSH2 0x1986 JUMP JUMPDEST PUSH2 0x19E1 DUP2 DUP6 PUSH2 0x1991 JUMP JUMPDEST SWAP4 POP PUSH2 0x19F1 DUP2 DUP6 PUSH1 0x20 DUP7 ADD PUSH2 0x19A2 JUMP JUMPDEST PUSH2 0x19FA DUP2 PUSH2 0x12E7 JUMP JUMPDEST DUP5 ADD SWAP2 POP POP SWAP3 SWAP2 POP POP JUMP JUMPDEST PUSH2 0x1A0E DUP2 PUSH2 0x15E3 JUMP JUMPDEST DUP3 MSTORE POP POP JUMP JUMPDEST PUSH2 0x1A1D DUP2 PUSH2 0x162B JUMP JUMPDEST DUP3 MSTORE POP POP JUMP JUMPDEST PUSH1 0x0 DUP2 ISZERO ISZERO SWAP1 POP SWAP2 SWAP1 POP JUMP JUMPDEST PUSH2 0x1A38 DUP2 PUSH2 0x1A23 JUMP JUMPDEST DUP3 MSTORE POP POP JUMP JUMPDEST PUSH1 0x0 PUSH2 0x120 DUP4 ADD PUSH1 0x0 DUP4 ADD MLOAD DUP5 DUP3 SUB PUSH1 0x0 DUP7 ADD MSTORE PUSH2 0x1A5C DUP3 DUP3 PUSH2 0x18B9 JUMP JUMPDEST SWAP2 POP POP PUSH1 0x20 DUP4 ADD MLOAD DUP5 DUP3 SUB PUSH1 0x20 DUP7 ADD MSTORE PUSH2 0x1A76 DUP3 DUP3 PUSH2 0x1928 JUMP JUMPDEST SWAP2 POP POP PUSH1 0x40 DUP4 ADD MLOAD DUP5 DUP3 SUB PUSH1 0x40 DUP7 ADD MSTORE PUSH2 0x1A90 DUP3 DUP3 PUSH2 0x19CC JUMP JUMPDEST SWAP2 POP POP PUSH1 0x60 DUP4 ADD MLOAD DUP5 DUP3 SUB PUSH1 0x60 DUP7 ADD MSTORE PUSH2 0x1AAA DUP3 DUP3 PUSH2 0x19CC JUMP JUMPDEST SWAP2 POP POP PUSH1 0x80 DUP4 ADD MLOAD PUSH2 0x1ABF PUSH1 0x80 DUP7 ADD DUP3 PUSH2 0x1A05 JUMP JUMPDEST POP PUSH1 0xA0 DUP4 ADD MLOAD PUSH2 0x1AD2 PUSH1 0xA0 DUP7 ADD DUP3 PUSH2 0x1A05 JUMP JUMPDEST POP PUSH1 0xC0 DUP4 ADD MLOAD PUSH2 0x1AE5 PUSH1 0xC0 DUP7 ADD DUP3 PUSH2 0x1A14 JUMP JUMPDEST POP PUSH1 0xE0 DUP4 ADD MLOAD PUSH2 0x1AF8 PUSH1 0xE0 DUP7 ADD DUP3 PUSH2 0x1A14 JUMP JUMPDEST POP PUSH2 0x100 DUP4 ADD MLOAD PUSH2 0x1B0D PUSH2 0x100 DUP7 ADD DUP3 PUSH2 0x1A2F JUMP JUMPDEST POP DUP1 SWAP2 POP POP SWAP3 SWAP2 POP POP JUMP JUMPDEST PUSH1 0x0 PUSH2 0x1B24 DUP4 DUP4 PUSH2 0x1A3E JUMP JUMPDEST SWAP1 POP SWAP3 SWAP2 POP POP JUMP JUMPDEST PUSH1 0x0 PUSH1 0x20 DUP3 ADD SWAP1 POP SWAP2 SWAP1 POP JUMP JUMPDEST PUSH1 0x0 PUSH2 0x1B44 DUP3 PUSH2 0x182D JUMP JUMPDEST PUSH2 0x1B4E DUP2 DUP6 PUSH2 0x1838 JUMP JUMPDEST SWAP4 POP DUP4 PUSH1 0x20 DUP3 MUL DUP6 ADD PUSH2 0x1B60 DUP6 PUSH2 0x1849 JUMP JUMPDEST DUP1 PUSH1 0x0 JUMPDEST DUP6 DUP2 LT ISZERO PUSH2 0x1B9C JUMPI DUP5 DUP5 SUB DUP10 MSTORE DUP2 MLOAD PUSH2 0x1B7D DUP6 DUP3 PUSH2 0x1B18 JUMP JUMPDEST SWAP5 POP PUSH2 0x1B88 DUP4 PUSH2 0x1B2C JUMP JUMPDEST SWAP3 POP PUSH1 0x20 DUP11 ADD SWAP10 POP POP PUSH1 0x1 DUP2 ADD SWAP1 POP PUSH2 0x1B64 JUMP JUMPDEST POP DUP3 SWAP8 POP DUP8 SWAP6 POP POP POP POP POP POP SWAP3 SWAP2 POP POP JUMP JUMPDEST PUSH1 0x0 PUSH1 0x20 DUP3 ADD SWAP1 POP DUP2 DUP2 SUB PUSH1 0x0 DUP4 ADD MSTORE PUSH2 0x1BC8 DUP2 DUP5 PUSH2 0x1B39 JUMP JUMPDEST SWAP1 POP SWAP3 SWAP2 POP POP JUMP JUMPDEST PUSH1 0x0 PUSH1 0x20 DUP3 DUP5 SUB SLT ISZERO PUSH2 0x1BE6 JUMPI PUSH2 0x1BE5 PUSH2 0x12D8 JUMP JUMPDEST JUMPDEST PUSH1 0x0 PUSH2 0x1BF4 DUP5 DUP3 DUP6 ADD PUSH2 0x14DC JUMP JUMPDEST SWAP2 POP POP SWAP3 SWAP2 POP POP JUMP JUMPDEST PUSH1 0x0 DUP3 DUP3 MSTORE PUSH1 0x20 DUP3 ADD SWAP1 POP SWAP3 SWAP2 POP POP JUMP JUMPDEST PUSH1 0x0 PUSH2 0x1C19 DUP3 PUSH2 0x1986 JUMP JUMPDEST PUSH2 0x1C23 DUP2 DUP6 PUSH2 0x1BFD JUMP JUMPDEST SWAP4 POP PUSH2 0x1C33 DUP2 DUP6 PUSH1 0x20 DUP7 ADD PUSH2 0x19A2 JUMP JUMPDEST PUSH2 0x1C3C DUP2 PUSH2 0x12E7 JUMP JUMPDEST DUP5 ADD SWAP2 POP POP SWAP3 SWAP2 POP POP JUMP JUMPDEST PUSH2 0x1C50 DUP2 PUSH2 0x15E3 JUMP JUMPDEST DUP3 MSTORE POP POP JUMP JUMPDEST PUSH2 0x1C5F DUP2 PUSH2 0x162B JUMP JUMPDEST DUP3 MSTORE POP POP JUMP JUMPDEST PUSH2 0x1C6E DUP2 PUSH2 0x1A23 JUMP JUMPDEST DUP3 MSTORE POP POP JUMP JUMPDEST PUSH1 0x0 PUSH1 0xE0 DUP3 ADD SWAP1 POP DUP2 DUP2 SUB PUSH1 0x0 DUP4 ADD MSTORE PUSH2 0x1C8E DUP2 DUP11 PUSH2 0x1C0E JUMP JUMPDEST SWAP1 POP DUP2 DUP2 SUB PUSH1 0x20 DUP4 ADD MSTORE PUSH2 0x1CA2 DUP2 DUP10 PUSH2 0x1C0E JUMP JUMPDEST SWAP1 POP PUSH2 0x1CB1 PUSH1 0x40 DUP4 ADD DUP9 PUSH2 0x1C47 JUMP JUMPDEST PUSH2 0x1CBE PUSH1 0x60 DUP4 ADD DUP8 PUSH2 0x1C47 JUMP JUMPDEST PUSH2 0x1CCB PUSH1 0x80 DUP4 ADD DUP7 PUSH2 0x1C56 JUMP JUMPDEST PUSH2 0x1CD8 PUSH1 0xA0 DUP4 ADD DUP6 PUSH2 0x1C56 JUMP JUMPDEST PUSH2 0x1CE5 PUSH1 0xC0 DUP4 ADD DUP5 PUSH2 0x1C65 JUMP JUMPDEST SWAP9 SWAP8 POP POP POP POP POP POP POP POP JUMP JUMPDEST PUSH1 0x0 DUP1 PUSH1 0x40 DUP4 DUP6 SUB SLT ISZERO PUSH2 0x1D08 JUMPI PUSH2 0x1D07 PUSH2 0x12D8 JUMP JUMPDEST JUMPDEST PUSH1 0x0 PUSH2 0x1D16 DUP6 DUP3 DUP7 ADD PUSH2 0x14DC JUMP JUMPDEST SWAP3 POP POP PUSH1 0x20 PUSH2 0x1D27 DUP6 DUP3 DUP7 ADD PUSH2 0x1616 JUMP JUMPDEST SWAP2 POP POP SWAP3 POP SWAP3 SWAP1 POP JUMP JUMPDEST PUSH1 0x0 PUSH2 0x120 DUP4 ADD PUSH1 0x0 DUP4 ADD MLOAD DUP5 DUP3 SUB PUSH1 0x0 DUP7 ADD MSTORE PUSH2 0x1D4F DUP3 DUP3 PUSH2 0x18B9 JUMP JUMPDEST SWAP2 POP POP PUSH1 0x20 DUP4 ADD MLOAD DUP5 DUP3 SUB PUSH1 0x20 DUP7 ADD MSTORE PUSH2 0x1D69 DUP3 DUP3 PUSH2 0x1928 JUMP JUMPDEST SWAP2 POP POP PUSH1 0x40 DUP4 ADD MLOAD DUP5 DUP3 SUB PUSH1 0x40 DUP7 ADD MSTORE PUSH2 0x1D83 DUP3 DUP3 PUSH2 0x19CC JUMP JUMPDEST SWAP2 POP POP PUSH1 0x60 DUP4 ADD MLOAD DUP5 DUP3 SUB PUSH1 0x60 DUP7 ADD MSTORE PUSH2 0x1D9D DUP3 DUP3 PUSH2 0x19CC JUMP JUMPDEST SWAP2 POP POP PUSH1 0x80 DUP4 ADD MLOAD PUSH2 0x1DB2 PUSH1 0x80 DUP7 ADD DUP3 PUSH2 0x1A05 JUMP JUMPDEST POP PUSH1 0xA0 DUP4 ADD MLOAD PUSH2 0x1DC5 PUSH1 0xA0 DUP7 ADD DUP3 PUSH2 0x1A05 JUMP JUMPDEST POP PUSH1 0xC0 DUP4 ADD MLOAD PUSH2 0x1DD8 PUSH1 0xC0 DUP7 ADD DUP3 PUSH2 0x1A14 JUMP JUMPDEST POP PUSH1 0xE0 DUP4 ADD MLOAD PUSH2 0x1DEB PUSH1 0xE0 DUP7 ADD DUP3 PUSH2 0x1A14 JUMP JUMPDEST POP PUSH2 0x100 DUP4 ADD MLOAD PUSH2 0x1E00 PUSH2 0x100 DUP7 ADD DUP3 PUSH2 0x1A2F JUMP JUMPDEST POP DUP1 SWAP2 POP POP SWAP3 SWAP2 POP POP JUMP JUMPDEST PUSH1 0x0 PUSH1 0x20 DUP3 ADD SWAP1 POP DUP2 DUP2 SUB PUSH1 0x0 DUP4 ADD MSTORE PUSH2 0x1E25 DUP2 DUP5 PUSH2 0x1D31 JUMP JUMPDEST SWAP1 POP SWAP3 SWAP2 POP POP JUMP JUMPDEST PUSH32 0x4E487B7100000000000000000000000000000000000000000000000000000000 PUSH1 0x0 MSTORE PUSH1 0x22 PUSH1 0x4 MSTORE PUSH1 0x24 PUSH1 0x0 REVERT JUMPDEST PUSH1 0x0 PUSH1 0x2 DUP3 DIV SWAP1 POP PUSH1 0x1 DUP3 AND DUP1 PUSH2 0x1E74 JUMPI PUSH1 0x7F DUP3 AND SWAP2 POP JUMPDEST PUSH1 0x20 DUP3 LT DUP2 SUB PUSH2 0x1E87 JUMPI PUSH2 0x1E86 PUSH2 0x1E2D JUMP JUMPDEST JUMPDEST POP SWAP2 SWAP1 POP JUMP JUMPDEST PUSH1 0x0 DUP2 SWAP1 POP DUP2 PUSH1 0x0 MSTORE PUSH1 0x20 PUSH1 0x0 KECCAK256 SWAP1 POP SWAP2 SWAP1 POP JUMP JUMPDEST PUSH1 0x0 PUSH1 0x20 PUSH1 0x1F DUP4 ADD DIV SWAP1 POP SWAP2 SWAP1 POP JUMP JUMPDEST PUSH1 0x0 DUP3 DUP3 SHL SWAP1 POP SWAP3 SWAP2 POP POP JUMP JUMPDEST PUSH1 0x0 PUSH1 0x8 DUP4 MUL PUSH2 0x1EEF PUSH32 0xFFFFFFFFFFFFFFFFFFFFFFFFFFFFFFFFFFFFFFFFFFFFFFFFFFFFFFFFFFFFFFFF DUP3 PUSH2 0x1EB2 JUMP JUMPDEST PUSH2 0x1EF9 DUP7 DUP4 PUSH2 0x1EB2 JUMP JUMPDEST SWAP6 POP DUP1 NOT DUP5 AND SWAP4 POP DUP1 DUP7 AND DUP5 OR SWAP3 POP POP POP SWAP4 SWAP3 POP POP POP JUMP JUMPDEST PUSH1 0x0 DUP2 SWAP1 POP SWAP2 SWAP1 POP JUMP JUMPDEST PUSH1 0x0 PUSH2 0x1F36 PUSH2 0x1F31 PUSH2 0x1F2C DUP5 PUSH2 0x1210 JUMP JUMPDEST PUSH2 0x1F11 JUMP JUMPDEST PUSH2 0x1210 JUMP JUMPDEST SWAP1 POP SWAP2 SWAP1 POP JUMP JUMPDEST PUSH1 0x0 DUP2 SWAP1 POP SWAP2 SWAP1 POP JUMP JUMPDEST PUSH2 0x1F50 DUP4 PUSH2 0x1F1B JUMP JUMPDEST PUSH2 0x1F64 PUSH2 0x1F5C DUP3 PUSH2 0x1F3D JUMP JUMPDEST DUP5 DUP5 SLOAD PUSH2 0x1EBF JUMP JUMPDEST DUP3 SSTORE POP POP POP POP JUMP JUMPDEST PUSH1 0x0 SWAP1 JUMP JUMPDEST PUSH2 0x1F79 PUSH2 0x1F6C JUMP JUMPDEST PUSH2 0x1F84 DUP2 DUP5 DUP5 PUSH2 0x1F47 JUMP JUMPDEST POP POP POP JUMP JUMPDEST JUMPDEST DUP2 DUP2 LT ISZERO PUSH2 0x1FA8 JUMPI PUSH2 0x1F9D PUSH1 0x0 DUP3 PUSH2 0x1F71 JUMP JUMPDEST PUSH1 0x1 DUP2 ADD SWAP1 POP PUSH2 0x1F8A JUMP JUMPDEST POP POP JUMP JUMPDEST PUSH1 0x1F DUP3 GT ISZERO PUSH2 0x1FED JUMPI PUSH2 0x1FBE DUP2 PUSH2 0x1E8D JUMP JUMPDEST PUSH2 0x1FC7 DUP5 PUSH2 0x1EA2 JUMP JUMPDEST DUP2 ADD PUSH1 0x20 DUP6 LT ISZERO PUSH2 0x1FD6 JUMPI DUP2 SWAP1 POP JUMPDEST PUSH2 0x1FEA PUSH2 0x1FE2 DUP6 PUSH2 0x1EA2 JUMP JUMPDEST DUP4 ADD DUP3 PUSH2 0x1F89 JUMP JUMPDEST POP POP JUMPDEST POP POP POP JUMP JUMPDEST PUSH1 0x0 DUP3 DUP3 SHR SWAP1 POP SWAP3 SWAP2 POP POP JUMP JUMPDEST PUSH1 0x0 PUSH2 0x2010 PUSH1 0x0 NOT DUP5 PUSH1 0x8 MUL PUSH2 0x1FF2 JUMP JUMPDEST NOT DUP1 DUP4 AND SWAP2 POP POP SWAP3 SWAP2 POP POP JUMP JUMPDEST PUSH1 0x0 PUSH2 0x2029 DUP4 DUP4 PUSH2 0x1FFF JUMP JUMPDEST SWAP2 POP DUP3 PUSH1 0x2 MUL DUP3 OR SWAP1 POP SWAP3 SWAP2 POP POP JUMP JUMPDEST PUSH2 0x2042 DUP3 PUSH2 0x1986 JUMP JUMPDEST PUSH8 0xFFFFFFFFFFFFFFFF DUP2 GT ISZERO PUSH2 0x205B JUMPI PUSH2 0x205A PUSH2 0x12F8 JUMP JUMPDEST JUMPDEST PUSH2 0x2065 DUP3 SLOAD PUSH2 0x1E5C JUMP JUMPDEST PUSH2 0x2070 DUP3 DUP3 DUP6 PUSH2 0x1FAC JUMP JUMPDEST PUSH1 0x0 PUSH1 0x20 SWAP1 POP PUSH1 0x1F DUP4 GT PUSH1 0x1 DUP2 EQ PUSH2 0x20A3 JUMPI PUSH1 0x0 DUP5 ISZERO PUSH2 0x2091 JUMPI DUP3 DUP8 ADD MLOAD SWAP1 POP JUMPDEST PUSH2 0x209B DUP6 DUP3 PUSH2 0x201D JUMP JUMPDEST DUP7 SSTORE POP PUSH2 0x2103 JUMP JUMPDEST PUSH1 0x1F NOT DUP5 AND PUSH2 0x20B1 DUP7 PUSH2 0x1E8D JUMP JUMPDEST PUSH1 0x0 JUMPDEST DUP3 DUP2 LT ISZERO PUSH2 0x20D9 JUMPI DUP5 DUP10 ADD MLOAD DUP3 SSTORE PUSH1 0x1 DUP3 ADD SWAP2 POP PUSH1 0x20 DUP6 ADD SWAP5 POP PUSH1 0x20 DUP2 ADD SWAP1 POP PUSH2 0x20B4 JUMP JUMPDEST DUP7 DUP4 LT ISZERO PUSH2 0x20F6 JUMPI DUP5 DUP10 ADD MLOAD PUSH2 0x20F2 PUSH1 0x1F DUP10 AND DUP3 PUSH2 0x1FFF JUMP JUMPDEST DUP4 SSTORE POP JUMPDEST PUSH1 0x1 PUSH1 0x2 DUP9 MUL ADD DUP9 SSTORE POP POP POP JUMPDEST POP POP POP POP POP POP JUMP JUMPDEST PUSH1 0x0 DUP3 DUP3 MSTORE PUSH1 0x20 DUP3 ADD SWAP1 POP SWAP3 SWAP2 POP POP JUMP JUMPDEST PUSH1 0x0 PUSH2 0x2127 DUP3 PUSH2 0x1859 JUMP JUMPDEST PUSH2 0x2131 DUP2 DUP6 PUSH2 0x210B JUMP JUMPDEST SWAP4 POP PUSH2 0x213C DUP4 PUSH2 0x1875 JUMP JUMPDEST DUP1 PUSH1 0x0 JUMPDEST DUP4 DUP2 LT ISZERO PUSH2 0x216D JUMPI DUP2 MLOAD PUSH2 0x2154 DUP9 DUP3 PUSH2 0x1894 JUMP JUMPDEST SWAP8 POP PUSH2 0x215F DUP4 PUSH2 0x18AC JUMP JUMPDEST SWAP3 POP POP PUSH1 0x1 DUP2 ADD SWAP1 POP PUSH2 0x2140 JUMP JUMPDEST POP DUP6 SWAP4 POP POP POP POP SWAP3 SWAP2 POP POP JUMP JUMPDEST DUP3 DUP2 DUP4 CALLDATACOPY PUSH1 0x0 DUP4 DUP4 ADD MSTORE POP POP POP JUMP JUMPDEST PUSH1 0x0 PUSH2 0x2195 DUP4 DUP6 PUSH2 0x1BFD JUMP JUMPDEST SWAP4 POP PUSH2 0x21A2 DUP4 DUP6 DUP5 PUSH2 0x217A JUMP JUMPDEST PUSH2 0x21AB DUP4 PUSH2 0x12E7 JUMP JUMPDEST DUP5 ADD SWAP1 POP SWAP4 SWAP3 POP POP POP JUMP JUMPDEST PUSH1 0x0 PUSH2 0x100 DUP3 ADD SWAP1 POP DUP2 DUP2 SUB PUSH1 0x0 DUP4 ADD MSTORE PUSH2 0x21D1 DUP2 DUP14 PUSH2 0x211C JUMP JUMPDEST SWAP1 POP DUP2 DUP2 SUB PUSH1 0x20 DUP4 ADD MSTORE PUSH2 0x21E5 DUP2 DUP13 PUSH2 0x124E JUMP JUMPDEST SWAP1 POP DUP2 DUP2 SUB PUSH1 0x40 DUP4 ADD MSTORE PUSH2 0x21FA DUP2 DUP11 DUP13 PUSH2 0x2189 JUMP JUMPDEST SWAP1 POP DUP2 DUP2 SUB PUSH1 0x60 DUP4 ADD MSTORE PUSH2 0x220F DUP2 DUP9 DUP11 PUSH2 0x2189 JUMP JUMPDEST SWAP1 POP PUSH2 0x221E PUSH1 0x80 DUP4 ADD DUP8 PUSH2 0x1C47 JUMP JUMPDEST PUSH2 0x222B PUSH1 0xA0 DUP4 ADD DUP7 PUSH2 0x1C47 JUMP JUMPDEST PUSH2 0x2238 PUSH1 0xC0 DUP4 ADD DUP6 PUSH2 0x1C56 JUMP JUMPDEST PUSH2 0x2245 PUSH1 0xE0 DUP4 ADD DUP5 PUSH2 0x1C56 JUMP JUMPDEST SWAP12 SWAP11 POP POP POP POP POP POP POP POP POP POP POP JUMP JUMPDEST PUSH32 0x4E487B7100000000000000000000000000000000000000000000000000000000 PUSH1 0x0 MSTORE PUSH1 0x11 PUSH1 0x4 MSTORE PUSH1 0x24 PUSH1 0x0 REVERT JUMPDEST PUSH1 0x0 PUSH2 0x228E DUP3 PUSH2 0x1210 JUMP JUMPDEST SWAP2 POP PUSH32 0xFFFFFFFFFFFFFFFFFFFFFFFFFFFFFFFFFFFFFFFFFFFFFFFFFFFFFFFFFFFFFFFF DUP3 SUB PUSH2 0x22C0 JUMPI PUSH2 0x22BF PUSH2 0x2254 JUMP JUMPDEST JUMPDEST PUSH1 0x1 DUP3 ADD SWAP1 POP SWAP2 SWAP1 POP JUMP JUMPDEST PUSH32 0x4E487B7100000000000000000000000000000000000000000000000000000000 PUSH1 0x0 MSTORE PUSH1 0x32 PUSH1 0x4 MSTORE PUSH1 0x24 PUSH1 0x0 REVERT JUMPDEST PUSH1 0x0 PUSH2 0x2305 DUP3 PUSH2 0x15E3 JUMP JUMPDEST SWAP2 POP PUSH2 0x2310 DUP4 PUSH2 0x15E3 JUMP JUMPDEST SWAP3 POP DUP3 DUP3 SUB SWAP1 POP PUSH16 0xFFFFFFFFFFFFFFFFFFFFFFFFFFFFFFFF DUP2 GT ISZERO PUSH2 0x2338 JUMPI PUSH2 0x2337 PUSH2 0x2254 JUMP JUMPDEST JUMPDEST SWAP3 SWAP2 POP POP JUMP JUMPDEST PUSH1 0x0 PUSH1 0x20 DUP3 ADD SWAP1 POP PUSH2 0x2353 PUSH1 0x0 DUP4 ADD DUP5 PUSH2 0x1C47 JUMP JUMPDEST SWAP3 SWAP2 POP POP JUMP INVALID LOG2 PUSH5 0x6970667358 0x22 SLT KECCAK256 SWAP2 OR 0xD7 LOG1 NUMBER 0xD7 0xAB PUSH23 0x39DEE8B142FE69124E909304480EA7C68E3439C07B697B 0xE2 PUSH5 0x736F6C6343 STOP ADDMOD SGT STOP CALLER "
				},
				"gasEstimates": {
					"creation": {
						"codeDepositCost": "1820600",
						"executionCost": "24025",
						"totalCost": "1844625"
					},
					"external": {
						"addManufacturerProduct(address[],uint256[],bytes,bytes,uint128,uint128,uint32,uint32)": "infinite",
						"deleteManufacturerProduct(uint256)": "infinite",
						"getAllProductsOfManufacturer(address)": "infinite",
						"getManufacturerProductIds()": "infinite",
						"getSingleManufacturerProduct(uint256)": "infinite",
						"manufacturerAddressToproductsIdMapping(address,uint256)": "infinite",
						"manufacturerProductsIdToStructMapping(uint256)": "infinite",
						"updateManufacturerProductUints(uint256,uint128)": "infinite"
					}
				},
				"methodIdentifiers": {
					"addManufacturerProduct(address[],uint256[],bytes,bytes,uint128,uint128,uint32,uint32)": "448952e1",
					"deleteManufacturerProduct(uint256)": "9ea61c7e",
					"getAllProductsOfManufacturer(address)": "60715971",
					"getManufacturerProductIds()": "24e5e6aa",
					"getSingleManufacturerProduct(uint256)": "f6a989f8",
					"manufacturerAddressToproductsIdMapping(address,uint256)": "580f469c",
					"manufacturerProductsIdToStructMapping(uint256)": "65603df2",
					"updateManufacturerProductUints(uint256,uint128)": "d37889c6"
				}
			},
			"storageLayout": {
				"storage": [
					{
						"astId": 98,
						"contract": "contracts/manufacturerProduct.sol:manufacturerProduct",
						"label": "mpId",
						"offset": 0,
						"slot": "0",
						"type": "t_uint256"
					},
					{
						"astId": 104,
						"contract": "contracts/manufacturerProduct.sol:manufacturerProduct",
						"label": "manufacturerProductsIdToStructMapping",
						"offset": 0,
						"slot": "1",
						"type": "t_mapping(t_uint256,t_struct(manufacturerProduct)22_storage)"
					},
					{
						"astId": 110,
						"contract": "contracts/manufacturerProduct.sol:manufacturerProduct",
						"label": "manufacturerAddressToproductsIdMapping",
						"offset": 0,
						"slot": "2",
						"type": "t_mapping(t_address,t_array(t_uint256)dyn_storage)"
					}
				],
				"types": {
					"t_address": {
						"encoding": "inplace",
						"label": "address",
						"numberOfBytes": "20"
					},
					"t_array(t_address)dyn_storage": {
						"base": "t_address",
						"encoding": "dynamic_array",
						"label": "address[]",
						"numberOfBytes": "32"
					},
					"t_array(t_uint256)dyn_storage": {
						"base": "t_uint256",
						"encoding": "dynamic_array",
						"label": "uint256[]",
						"numberOfBytes": "32"
					},
					"t_bool": {
						"encoding": "inplace",
						"label": "bool",
						"numberOfBytes": "1"
					},
					"t_bytes_storage": {
						"encoding": "bytes",
						"label": "bytes",
						"numberOfBytes": "32"
					},
					"t_mapping(t_address,t_array(t_uint256)dyn_storage)": {
						"encoding": "mapping",
						"key": "t_address",
						"label": "mapping(address => uint256[])",
						"numberOfBytes": "32",
						"value": "t_array(t_uint256)dyn_storage"
					},
					"t_mapping(t_uint256,t_struct(manufacturerProduct)22_storage)": {
						"encoding": "mapping",
						"key": "t_uint256",
						"label": "mapping(uint256 => struct IManufacturerProduct.manufacturerProduct)",
						"numberOfBytes": "32",
						"value": "t_struct(manufacturerProduct)22_storage"
					},
					"t_struct(manufacturerProduct)22_storage": {
						"encoding": "inplace",
						"label": "struct IManufacturerProduct.manufacturerProduct",
						"members": [
							{
								"astId": 4,
								"contract": "contracts/manufacturerProduct.sol:manufacturerProduct",
								"label": "supplierAddress",
								"offset": 0,
								"slot": "0",
								"type": "t_array(t_address)dyn_storage"
							},
							{
								"astId": 7,
								"contract": "contracts/manufacturerProduct.sol:manufacturerProduct",
								"label": "smId",
								"offset": 0,
								"slot": "1",
								"type": "t_array(t_uint256)dyn_storage"
							},
							{
								"astId": 9,
								"contract": "contracts/manufacturerProduct.sol:manufacturerProduct",
								"label": "mp_name",
								"offset": 0,
								"slot": "2",
								"type": "t_bytes_storage"
							},
							{
								"astId": 11,
								"contract": "contracts/manufacturerProduct.sol:manufacturerProduct",
								"label": "mp_description",
								"offset": 0,
								"slot": "3",
								"type": "t_bytes_storage"
							},
							{
								"astId": 13,
								"contract": "contracts/manufacturerProduct.sol:manufacturerProduct",
								"label": "mp_unit",
								"offset": 0,
								"slot": "4",
								"type": "t_uint128"
							},
							{
								"astId": 15,
								"contract": "contracts/manufacturerProduct.sol:manufacturerProduct",
								"label": "mp_price",
								"offset": 16,
								"slot": "4",
								"type": "t_uint128"
							},
							{
								"astId": 17,
								"contract": "contracts/manufacturerProduct.sol:manufacturerProduct",
								"label": "mp_date",
								"offset": 0,
								"slot": "5",
								"type": "t_uint32"
							},
							{
								"astId": 19,
								"contract": "contracts/manufacturerProduct.sol:manufacturerProduct",
								"label": "mp_expiryDate",
								"offset": 4,
								"slot": "5",
								"type": "t_uint32"
							},
							{
								"astId": 21,
								"contract": "contracts/manufacturerProduct.sol:manufacturerProduct",
								"label": "mp_status",
								"offset": 8,
								"slot": "5",
								"type": "t_bool"
							}
						],
						"numberOfBytes": "192"
					},
					"t_uint128": {
						"encoding": "inplace",
						"label": "uint128",
						"numberOfBytes": "16"
					},
					"t_uint256": {
						"encoding": "inplace",
						"label": "uint256",
						"numberOfBytes": "32"
					},
					"t_uint32": {
						"encoding": "inplace",
						"label": "uint32",
						"numberOfBytes": "4"
					}
				}
			},
			"userdoc": {
				"kind": "user",
				"methods": {
					"addManufacturerProduct(address[],uint256[],bytes,bytes,uint128,uint128,uint32,uint32)": {
						"notice": "function to add manufacturer product"
					},
					"deleteManufacturerProduct(uint256)": {
						"notice": "function to delete manufacturer product (making the product Inactive)"
					},
					"getAllProductsOfManufacturer(address)": {
						"notice": "function to get all manufacturer products that it created on the platform"
					},
					"getManufacturerProductIds()": {
						"notice": "function to return manufacturer product IDs"
					},
					"getSingleManufacturerProduct(uint256)": {
						"notice": "function to return manufacturer' single product"
					},
					"manufacturerAddressToproductsIdMapping(address,uint256)": {
						"notice": "mapping user' address with all the created products"
					},
					"manufacturerProductsIdToStructMapping(uint256)": {
						"notice": "mapping product index with manufacturerProduct struct"
					},
					"updateManufacturerProductUints(uint256,uint128)": {
						"notice": "function to update manufacturer product units"
					}
				},
				"notice": "Uses IManufacturerProduct interface",
				"version": 1
			}
		}
	}
}