{
	"contracts/testing.sol": {
		"test": {
			"abi": [
				{
					"inputs": [
						{
							"internalType": "string[]",
							"name": "_names",
							"type": "string[]"
						},
						{
							"internalType": "string[]",
							"name": "_surnames",
							"type": "string[]"
						}
					],
					"name": "add",
					"outputs": [],
					"stateMutability": "nonpayable",
					"type": "function"
				},
				{
					"inputs": [
						{
							"internalType": "string",
							"name": "str",
							"type": "string"
						}
					],
					"name": "stringToBytes",
					"outputs": [
						{
							"internalType": "bytes",
							"name": "",
							"type": "bytes"
						}
					],
					"stateMutability": "pure",
					"type": "function"
				}
			],
			"devdoc": {
				"kind": "dev",
				"methods": {},
				"version": 1
			},
			"evm": {
				"assembly": "    /* \"contracts/testing.sol\":35:536  contract test{... */\n  mstore(0x40, 0x80)\n  callvalue\n  dup1\n  iszero\n  tag_1\n  jumpi\n  0x00\n  dup1\n  revert\ntag_1:\n  pop\n  dataSize(sub_0)\n  dup1\n  dataOffset(sub_0)\n  0x00\n  codecopy\n  0x00\n  return\nstop\n\nsub_0: assembly {\n        /* \"contracts/testing.sol\":35:536  contract test{... */\n      mstore(0x40, 0x80)\n      callvalue\n      dup1\n      iszero\n      tag_1\n      jumpi\n      0x00\n      dup1\n      revert\n    tag_1:\n      pop\n      jumpi(tag_2, lt(calldatasize, 0x04))\n      shr(0xe0, calldataload(0x00))\n      dup1\n      0xcb79b532\n      eq\n      tag_3\n      jumpi\n      dup1\n      0xe106fb4b\n      eq\n      tag_4\n      jumpi\n    tag_2:\n      0x00\n      dup1\n      revert\n        /* \"contracts/testing.sol\":166:385  function add(string[] memory _names,string[] memory _surnames) public{... */\n    tag_3:\n      tag_5\n      0x04\n      dup1\n      calldatasize\n      sub\n      dup2\n      add\n      swap1\n      tag_6\n      swap2\n      swap1\n      tag_7\n      jump\t// in\n    tag_6:\n      tag_8\n      jump\t// in\n    tag_5:\n      stop\n        /* \"contracts/testing.sol\":387:535  function stringToBytes(string memory str) external pure returns (bytes memory) {... */\n    tag_4:\n      tag_9\n      0x04\n      dup1\n      calldatasize\n      sub\n      dup2\n      add\n      swap1\n      tag_10\n      swap2\n      swap1\n      tag_11\n      jump\t// in\n    tag_10:\n      tag_12\n      jump\t// in\n    tag_9:\n      mload(0x40)\n      tag_13\n      swap2\n      swap1\n      tag_14\n      jump\t// in\n    tag_13:\n      mload(0x40)\n      dup1\n      swap2\n      sub\n      swap1\n      return\n        /* \"contracts/testing.sol\":166:385  function add(string[] memory _names,string[] memory _surnames) public{... */\n    tag_8:\n        /* \"contracts/testing.sol\":246:266  string[] memory name */\n      0x00\n        /* \"contracts/testing.sol\":269:275  _names */\n      dup3\n        /* \"contracts/testing.sol\":246:275  string[] memory name = _names */\n      swap1\n      pop\n        /* \"contracts/testing.sol\":348:377  userDetails(_names,_surnames) */\n      mload(0x40)\n      dup1\n      0x40\n      add\n      0x40\n      mstore\n      dup1\n        /* \"contracts/testing.sol\":360:366  _names */\n      dup5\n        /* \"contracts/testing.sol\":348:377  userDetails(_names,_surnames) */\n      dup2\n      mstore\n      0x20\n      add\n        /* \"contracts/testing.sol\":367:376  _surnames */\n      dup4\n        /* \"contracts/testing.sol\":348:377  userDetails(_names,_surnames) */\n      dup2\n      mstore\n      pop\n        /* \"contracts/testing.sol\":344:345  u */\n      0x00\n        /* \"contracts/testing.sol\":344:377  u = userDetails(_names,_surnames) */\n      dup1\n      dup3\n      add\n      mload\n      dup2\n      0x00\n      add\n      swap1\n      dup1\n      mload\n      swap1\n      0x20\n      add\n      swap1\n      tag_16\n      swap3\n      swap2\n      swap1\n      tag_17\n      jump\t// in\n    tag_16:\n      pop\n      0x20\n      dup3\n      add\n      mload\n      dup2\n      0x01\n      add\n      swap1\n      dup1\n      mload\n      swap1\n      0x20\n      add\n      swap1\n      tag_18\n      swap3\n      swap2\n      swap1\n      tag_17\n      jump\t// in\n    tag_18:\n      pop\n      swap1\n      pop\n      pop\n        /* \"contracts/testing.sol\":235:385  {... */\n      pop\n        /* \"contracts/testing.sol\":166:385  function add(string[] memory _names,string[] memory _surnames) public{... */\n      pop\n      pop\n      jump\t// out\n        /* \"contracts/testing.sol\":387:535  function stringToBytes(string memory str) external pure returns (bytes memory) {... */\n    tag_12:\n        /* \"contracts/testing.sol\":452:464  bytes memory */\n      0x60\n        /* \"contracts/testing.sol\":473:495  bytes memory byteArray */\n      0x00\n        /* \"contracts/testing.sol\":504:507  str */\n      dup3\n        /* \"contracts/testing.sol\":473:508  bytes memory byteArray = bytes(str) */\n      swap1\n      pop\n        /* \"contracts/testing.sol\":522:531  byteArray */\n      dup1\n        /* \"contracts/testing.sol\":515:531  return byteArray */\n      swap2\n      pop\n      pop\n        /* \"contracts/testing.sol\":387:535  function stringToBytes(string memory str) external pure returns (bytes memory) {... */\n      swap2\n      swap1\n      pop\n      jump\t// out\n    tag_17:\n      dup3\n      dup1\n      sload\n      dup3\n      dup3\n      sstore\n      swap1\n      0x00\n      mstore\n      keccak256(0x00, 0x20)\n      swap1\n      dup2\n      add\n      swap3\n      dup3\n      iszero\n      tag_20\n      jumpi\n      swap2\n      0x20\n      mul\n      dup3\n      add\n    tag_21:\n      dup3\n      dup2\n      gt\n      iszero\n      tag_22\n      jumpi\n      dup3\n      mload\n      dup3\n      swap1\n      dup2\n      tag_23\n      swap2\n      swap1\n      tag_24\n      jump\t// in\n    tag_23:\n      pop\n      swap2\n      0x20\n      add\n      swap2\n      swap1\n      0x01\n      add\n      swap1\n      jump(tag_21)\n    tag_22:\n    tag_20:\n      pop\n      swap1\n      pop\n      tag_25\n      swap2\n      swap1\n      tag_26\n      jump\t// in\n    tag_25:\n      pop\n      swap1\n      jump\t// out\n    tag_26:\n    tag_27:\n      dup1\n      dup3\n      gt\n      iszero\n      tag_28\n      jumpi\n      0x00\n      dup2\n      dup2\n      tag_29\n      swap2\n      swap1\n      tag_30\n      jump\t// in\n    tag_29:\n      pop\n      0x01\n      add\n      jump(tag_27)\n    tag_28:\n      pop\n      swap1\n      jump\t// out\n    tag_30:\n      pop\n      dup1\n      sload\n      tag_31\n      swap1\n      tag_32\n      jump\t// in\n    tag_31:\n      0x00\n      dup3\n      sstore\n      dup1\n      0x1f\n      lt\n      tag_34\n      jumpi\n      pop\n      jump(tag_33)\n    tag_34:\n      0x1f\n      add\n      0x20\n      swap1\n      div\n      swap1\n      0x00\n      mstore\n      keccak256(0x00, 0x20)\n      swap1\n      dup2\n      add\n      swap1\n      tag_35\n      swap2\n      swap1\n      tag_36\n      jump\t// in\n    tag_35:\n    tag_33:\n      pop\n      jump\t// out\n    tag_36:\n    tag_37:\n      dup1\n      dup3\n      gt\n      iszero\n      tag_38\n      jumpi\n      0x00\n      dup2\n      0x00\n      swap1\n      sstore\n      pop\n      0x01\n      add\n      jump(tag_37)\n    tag_38:\n      pop\n      swap1\n      jump\t// out\n        /* \"#utility.yul\":7:82   */\n    tag_39:\n        /* \"#utility.yul\":40:46   */\n      0x00\n        /* \"#utility.yul\":73:75   */\n      0x40\n        /* \"#utility.yul\":67:76   */\n      mload\n        /* \"#utility.yul\":57:76   */\n      swap1\n      pop\n        /* \"#utility.yul\":7:82   */\n      swap1\n      jump\t// out\n        /* \"#utility.yul\":88:205   */\n    tag_40:\n        /* \"#utility.yul\":197:198   */\n      0x00\n        /* \"#utility.yul\":194:195   */\n      dup1\n        /* \"#utility.yul\":187:199   */\n      revert\n        /* \"#utility.yul\":211:328   */\n    tag_41:\n        /* \"#utility.yul\":320:321   */\n      0x00\n        /* \"#utility.yul\":317:318   */\n      dup1\n        /* \"#utility.yul\":310:322   */\n      revert\n        /* \"#utility.yul\":334:451   */\n    tag_42:\n        /* \"#utility.yul\":443:444   */\n      0x00\n        /* \"#utility.yul\":440:441   */\n      dup1\n        /* \"#utility.yul\":433:445   */\n      revert\n        /* \"#utility.yul\":457:559   */\n    tag_43:\n        /* \"#utility.yul\":498:504   */\n      0x00\n        /* \"#utility.yul\":549:551   */\n      0x1f\n        /* \"#utility.yul\":545:552   */\n      not\n        /* \"#utility.yul\":540:542   */\n      0x1f\n        /* \"#utility.yul\":533:538   */\n      dup4\n        /* \"#utility.yul\":529:543   */\n      add\n        /* \"#utility.yul\":525:553   */\n      and\n        /* \"#utility.yul\":515:553   */\n      swap1\n      pop\n        /* \"#utility.yul\":457:559   */\n      swap2\n      swap1\n      pop\n      jump\t// out\n        /* \"#utility.yul\":565:745   */\n    tag_44:\n        /* \"#utility.yul\":613:690   */\n      0x4e487b7100000000000000000000000000000000000000000000000000000000\n        /* \"#utility.yul\":610:611   */\n      0x00\n        /* \"#utility.yul\":603:691   */\n      mstore\n        /* \"#utility.yul\":710:714   */\n      0x41\n        /* \"#utility.yul\":707:708   */\n      0x04\n        /* \"#utility.yul\":700:715   */\n      mstore\n        /* \"#utility.yul\":734:738   */\n      0x24\n        /* \"#utility.yul\":731:732   */\n      0x00\n        /* \"#utility.yul\":724:739   */\n      revert\n        /* \"#utility.yul\":751:1032   */\n    tag_45:\n        /* \"#utility.yul\":834:861   */\n      tag_86\n        /* \"#utility.yul\":856:860   */\n      dup3\n        /* \"#utility.yul\":834:861   */\n      tag_43\n      jump\t// in\n    tag_86:\n        /* \"#utility.yul\":826:832   */\n      dup2\n        /* \"#utility.yul\":822:862   */\n      add\n        /* \"#utility.yul\":964:970   */\n      dup2\n        /* \"#utility.yul\":952:962   */\n      dup2\n        /* \"#utility.yul\":949:971   */\n      lt\n        /* \"#utility.yul\":928:946   */\n      0xffffffffffffffff\n        /* \"#utility.yul\":916:926   */\n      dup3\n        /* \"#utility.yul\":913:947   */\n      gt\n        /* \"#utility.yul\":910:972   */\n      or\n        /* \"#utility.yul\":907:995   */\n      iszero\n      tag_87\n      jumpi\n        /* \"#utility.yul\":975:993   */\n      tag_88\n      tag_44\n      jump\t// in\n    tag_88:\n        /* \"#utility.yul\":907:995   */\n    tag_87:\n        /* \"#utility.yul\":1015:1025   */\n      dup1\n        /* \"#utility.yul\":1011:1013   */\n      0x40\n        /* \"#utility.yul\":1004:1026   */\n      mstore\n        /* \"#utility.yul\":794:1032   */\n      pop\n        /* \"#utility.yul\":751:1032   */\n      pop\n      pop\n      jump\t// out\n        /* \"#utility.yul\":1038:1167   */\n    tag_46:\n        /* \"#utility.yul\":1072:1078   */\n      0x00\n        /* \"#utility.yul\":1099:1119   */\n      tag_90\n      tag_39\n      jump\t// in\n    tag_90:\n        /* \"#utility.yul\":1089:1119   */\n      swap1\n      pop\n        /* \"#utility.yul\":1128:1161   */\n      tag_91\n        /* \"#utility.yul\":1156:1160   */\n      dup3\n        /* \"#utility.yul\":1148:1154   */\n      dup3\n        /* \"#utility.yul\":1128:1161   */\n      tag_45\n      jump\t// in\n    tag_91:\n        /* \"#utility.yul\":1038:1167   */\n      swap2\n      swap1\n      pop\n      jump\t// out\n        /* \"#utility.yul\":1173:1494   */\n    tag_47:\n        /* \"#utility.yul\":1260:1264   */\n      0x00\n        /* \"#utility.yul\":1350:1368   */\n      0xffffffffffffffff\n        /* \"#utility.yul\":1342:1348   */\n      dup3\n        /* \"#utility.yul\":1339:1369   */\n      gt\n        /* \"#utility.yul\":1336:1392   */\n      iszero\n      tag_93\n      jumpi\n        /* \"#utility.yul\":1372:1390   */\n      tag_94\n      tag_44\n      jump\t// in\n    tag_94:\n        /* \"#utility.yul\":1336:1392   */\n    tag_93:\n        /* \"#utility.yul\":1422:1426   */\n      0x20\n        /* \"#utility.yul\":1414:1420   */\n      dup3\n        /* \"#utility.yul\":1410:1427   */\n      mul\n        /* \"#utility.yul\":1402:1427   */\n      swap1\n      pop\n        /* \"#utility.yul\":1482:1486   */\n      0x20\n        /* \"#utility.yul\":1476:1480   */\n      dup2\n        /* \"#utility.yul\":1472:1487   */\n      add\n        /* \"#utility.yul\":1464:1487   */\n      swap1\n      pop\n        /* \"#utility.yul\":1173:1494   */\n      swap2\n      swap1\n      pop\n      jump\t// out\n        /* \"#utility.yul\":1500:1617   */\n    tag_48:\n        /* \"#utility.yul\":1609:1610   */\n      0x00\n        /* \"#utility.yul\":1606:1607   */\n      dup1\n        /* \"#utility.yul\":1599:1611   */\n      revert\n        /* \"#utility.yul\":1623:1740   */\n    tag_49:\n        /* \"#utility.yul\":1732:1733   */\n      0x00\n        /* \"#utility.yul\":1729:1730   */\n      dup1\n        /* \"#utility.yul\":1722:1734   */\n      revert\n        /* \"#utility.yul\":1746:2054   */\n    tag_50:\n        /* \"#utility.yul\":1808:1812   */\n      0x00\n        /* \"#utility.yul\":1898:1916   */\n      0xffffffffffffffff\n        /* \"#utility.yul\":1890:1896   */\n      dup3\n        /* \"#utility.yul\":1887:1917   */\n      gt\n        /* \"#utility.yul\":1884:1940   */\n      iszero\n      tag_98\n      jumpi\n        /* \"#utility.yul\":1920:1938   */\n      tag_99\n      tag_44\n      jump\t// in\n    tag_99:\n        /* \"#utility.yul\":1884:1940   */\n    tag_98:\n        /* \"#utility.yul\":1958:1987   */\n      tag_100\n        /* \"#utility.yul\":1980:1986   */\n      dup3\n        /* \"#utility.yul\":1958:1987   */\n      tag_43\n      jump\t// in\n    tag_100:\n        /* \"#utility.yul\":1950:1987   */\n      swap1\n      pop\n        /* \"#utility.yul\":2042:2046   */\n      0x20\n        /* \"#utility.yul\":2036:2040   */\n      dup2\n        /* \"#utility.yul\":2032:2047   */\n      add\n        /* \"#utility.yul\":2024:2047   */\n      swap1\n      pop\n        /* \"#utility.yul\":1746:2054   */\n      swap2\n      swap1\n      pop\n      jump\t// out\n        /* \"#utility.yul\":2060:2206   */\n    tag_51:\n        /* \"#utility.yul\":2157:2163   */\n      dup3\n        /* \"#utility.yul\":2152:2155   */\n      dup2\n        /* \"#utility.yul\":2147:2150   */\n      dup4\n        /* \"#utility.yul\":2134:2164   */\n      calldatacopy\n        /* \"#utility.yul\":2198:2199   */\n      0x00\n        /* \"#utility.yul\":2189:2195   */\n      dup4\n        /* \"#utility.yul\":2184:2187   */\n      dup4\n        /* \"#utility.yul\":2180:2196   */\n      add\n        /* \"#utility.yul\":2173:2200   */\n      mstore\n        /* \"#utility.yul\":2060:2206   */\n      pop\n      pop\n      pop\n      jump\t// out\n        /* \"#utility.yul\":2212:2637   */\n    tag_52:\n        /* \"#utility.yul\":2290:2295   */\n      0x00\n        /* \"#utility.yul\":2315:2381   */\n      tag_103\n        /* \"#utility.yul\":2331:2380   */\n      tag_104\n        /* \"#utility.yul\":2373:2379   */\n      dup5\n        /* \"#utility.yul\":2331:2380   */\n      tag_50\n      jump\t// in\n    tag_104:\n        /* \"#utility.yul\":2315:2381   */\n      tag_46\n      jump\t// in\n    tag_103:\n        /* \"#utility.yul\":2306:2381   */\n      swap1\n      pop\n        /* \"#utility.yul\":2404:2410   */\n      dup3\n        /* \"#utility.yul\":2397:2402   */\n      dup2\n        /* \"#utility.yul\":2390:2411   */\n      mstore\n        /* \"#utility.yul\":2442:2446   */\n      0x20\n        /* \"#utility.yul\":2435:2440   */\n      dup2\n        /* \"#utility.yul\":2431:2447   */\n      add\n        /* \"#utility.yul\":2480:2483   */\n      dup5\n        /* \"#utility.yul\":2471:2477   */\n      dup5\n        /* \"#utility.yul\":2466:2469   */\n      dup5\n        /* \"#utility.yul\":2462:2478   */\n      add\n        /* \"#utility.yul\":2459:2484   */\n      gt\n        /* \"#utility.yul\":2456:2568   */\n      iszero\n      tag_105\n      jumpi\n        /* \"#utility.yul\":2487:2566   */\n      tag_106\n      tag_49\n      jump\t// in\n    tag_106:\n        /* \"#utility.yul\":2456:2568   */\n    tag_105:\n        /* \"#utility.yul\":2577:2631   */\n      tag_107\n        /* \"#utility.yul\":2624:2630   */\n      dup5\n        /* \"#utility.yul\":2619:2622   */\n      dup3\n        /* \"#utility.yul\":2614:2617   */\n      dup6\n        /* \"#utility.yul\":2577:2631   */\n      tag_51\n      jump\t// in\n    tag_107:\n        /* \"#utility.yul\":2296:2637   */\n      pop\n        /* \"#utility.yul\":2212:2637   */\n      swap4\n      swap3\n      pop\n      pop\n      pop\n      jump\t// out\n        /* \"#utility.yul\":2657:2997   */\n    tag_53:\n        /* \"#utility.yul\":2713:2718   */\n      0x00\n        /* \"#utility.yul\":2762:2765   */\n      dup3\n        /* \"#utility.yul\":2755:2759   */\n      0x1f\n        /* \"#utility.yul\":2747:2753   */\n      dup4\n        /* \"#utility.yul\":2743:2760   */\n      add\n        /* \"#utility.yul\":2739:2766   */\n      slt\n        /* \"#utility.yul\":2729:2851   */\n      tag_109\n      jumpi\n        /* \"#utility.yul\":2770:2849   */\n      tag_110\n      tag_42\n      jump\t// in\n    tag_110:\n        /* \"#utility.yul\":2729:2851   */\n    tag_109:\n        /* \"#utility.yul\":2887:2893   */\n      dup2\n        /* \"#utility.yul\":2874:2894   */\n      calldataload\n        /* \"#utility.yul\":2912:2991   */\n      tag_111\n        /* \"#utility.yul\":2987:2990   */\n      dup5\n        /* \"#utility.yul\":2979:2985   */\n      dup3\n        /* \"#utility.yul\":2972:2976   */\n      0x20\n        /* \"#utility.yul\":2964:2970   */\n      dup7\n        /* \"#utility.yul\":2960:2977   */\n      add\n        /* \"#utility.yul\":2912:2991   */\n      tag_52\n      jump\t// in\n    tag_111:\n        /* \"#utility.yul\":2903:2991   */\n      swap2\n      pop\n        /* \"#utility.yul\":2719:2997   */\n      pop\n        /* \"#utility.yul\":2657:2997   */\n      swap3\n      swap2\n      pop\n      pop\n      jump\t// out\n        /* \"#utility.yul\":3019:3964   */\n    tag_54:\n        /* \"#utility.yul\":3125:3130   */\n      0x00\n        /* \"#utility.yul\":3150:3241   */\n      tag_113\n        /* \"#utility.yul\":3166:3240   */\n      tag_114\n        /* \"#utility.yul\":3233:3239   */\n      dup5\n        /* \"#utility.yul\":3166:3240   */\n      tag_47\n      jump\t// in\n    tag_114:\n        /* \"#utility.yul\":3150:3241   */\n      tag_46\n      jump\t// in\n    tag_113:\n        /* \"#utility.yul\":3141:3241   */\n      swap1\n      pop\n        /* \"#utility.yul\":3261:3266   */\n      dup1\n        /* \"#utility.yul\":3290:3296   */\n      dup4\n        /* \"#utility.yul\":3283:3288   */\n      dup3\n        /* \"#utility.yul\":3276:3297   */\n      mstore\n        /* \"#utility.yul\":3324:3328   */\n      0x20\n        /* \"#utility.yul\":3317:3322   */\n      dup3\n        /* \"#utility.yul\":3313:3329   */\n      add\n        /* \"#utility.yul\":3306:3329   */\n      swap1\n      pop\n        /* \"#utility.yul\":3377:3381   */\n      0x20\n        /* \"#utility.yul\":3369:3375   */\n      dup5\n        /* \"#utility.yul\":3365:3382   */\n      mul\n        /* \"#utility.yul\":3357:3363   */\n      dup4\n        /* \"#utility.yul\":3353:3383   */\n      add\n        /* \"#utility.yul\":3406:3409   */\n      dup6\n        /* \"#utility.yul\":3398:3404   */\n      dup2\n        /* \"#utility.yul\":3395:3410   */\n      gt\n        /* \"#utility.yul\":3392:3514   */\n      iszero\n      tag_115\n      jumpi\n        /* \"#utility.yul\":3425:3504   */\n      tag_116\n      tag_48\n      jump\t// in\n    tag_116:\n        /* \"#utility.yul\":3392:3514   */\n    tag_115:\n        /* \"#utility.yul\":3540:3546   */\n      dup4\n        /* \"#utility.yul\":3523:3958   */\n    tag_117:\n        /* \"#utility.yul\":3557:3563   */\n      dup2\n        /* \"#utility.yul\":3552:3555   */\n      dup2\n        /* \"#utility.yul\":3549:3564   */\n      lt\n        /* \"#utility.yul\":3523:3958   */\n      iszero\n      tag_119\n      jumpi\n        /* \"#utility.yul\":3646:3649   */\n      dup1\n        /* \"#utility.yul\":3633:3650   */\n      calldataload\n        /* \"#utility.yul\":3682:3700   */\n      0xffffffffffffffff\n        /* \"#utility.yul\":3669:3680   */\n      dup2\n        /* \"#utility.yul\":3666:3701   */\n      gt\n        /* \"#utility.yul\":3663:3785   */\n      iszero\n      tag_120\n      jumpi\n        /* \"#utility.yul\":3704:3783   */\n      tag_121\n      tag_42\n      jump\t// in\n    tag_121:\n        /* \"#utility.yul\":3663:3785   */\n    tag_120:\n        /* \"#utility.yul\":3828:3839   */\n      dup1\n        /* \"#utility.yul\":3820:3826   */\n      dup7\n        /* \"#utility.yul\":3816:3840   */\n      add\n        /* \"#utility.yul\":3866:3913   */\n      tag_122\n        /* \"#utility.yul\":3909:3912   */\n      dup10\n        /* \"#utility.yul\":3897:3907   */\n      dup3\n        /* \"#utility.yul\":3866:3913   */\n      tag_53\n      jump\t// in\n    tag_122:\n        /* \"#utility.yul\":3861:3864   */\n      dup6\n        /* \"#utility.yul\":3854:3914   */\n      mstore\n        /* \"#utility.yul\":3943:3947   */\n      0x20\n        /* \"#utility.yul\":3938:3941   */\n      dup6\n        /* \"#utility.yul\":3934:3948   */\n      add\n        /* \"#utility.yul\":3927:3948   */\n      swap5\n      pop\n        /* \"#utility.yul\":3599:3958   */\n      pop\n      pop\n        /* \"#utility.yul\":3583:3587   */\n      0x20\n        /* \"#utility.yul\":3578:3581   */\n      dup2\n        /* \"#utility.yul\":3574:3588   */\n      add\n        /* \"#utility.yul\":3567:3588   */\n      swap1\n      pop\n        /* \"#utility.yul\":3523:3958   */\n      jump(tag_117)\n    tag_119:\n        /* \"#utility.yul\":3527:3548   */\n      pop\n        /* \"#utility.yul\":3131:3964   */\n      pop\n      pop\n        /* \"#utility.yul\":3019:3964   */\n      swap4\n      swap3\n      pop\n      pop\n      pop\n      jump\t// out\n        /* \"#utility.yul\":3986:4376   */\n    tag_55:\n        /* \"#utility.yul\":4067:4072   */\n      0x00\n        /* \"#utility.yul\":4116:4119   */\n      dup3\n        /* \"#utility.yul\":4109:4113   */\n      0x1f\n        /* \"#utility.yul\":4101:4107   */\n      dup4\n        /* \"#utility.yul\":4097:4114   */\n      add\n        /* \"#utility.yul\":4093:4120   */\n      slt\n        /* \"#utility.yul\":4083:4205   */\n      tag_124\n      jumpi\n        /* \"#utility.yul\":4124:4203   */\n      tag_125\n      tag_42\n      jump\t// in\n    tag_125:\n        /* \"#utility.yul\":4083:4205   */\n    tag_124:\n        /* \"#utility.yul\":4241:4247   */\n      dup2\n        /* \"#utility.yul\":4228:4248   */\n      calldataload\n        /* \"#utility.yul\":4266:4370   */\n      tag_126\n        /* \"#utility.yul\":4366:4369   */\n      dup5\n        /* \"#utility.yul\":4358:4364   */\n      dup3\n        /* \"#utility.yul\":4351:4355   */\n      0x20\n        /* \"#utility.yul\":4343:4349   */\n      dup7\n        /* \"#utility.yul\":4339:4356   */\n      add\n        /* \"#utility.yul\":4266:4370   */\n      tag_54\n      jump\t// in\n    tag_126:\n        /* \"#utility.yul\":4257:4370   */\n      swap2\n      pop\n        /* \"#utility.yul\":4073:4376   */\n      pop\n        /* \"#utility.yul\":3986:4376   */\n      swap3\n      swap2\n      pop\n      pop\n      jump\t// out\n        /* \"#utility.yul\":4382:5316   */\n    tag_7:\n        /* \"#utility.yul\":4520:4526   */\n      0x00\n        /* \"#utility.yul\":4528:4534   */\n      dup1\n        /* \"#utility.yul\":4577:4579   */\n      0x40\n        /* \"#utility.yul\":4565:4574   */\n      dup4\n        /* \"#utility.yul\":4556:4563   */\n      dup6\n        /* \"#utility.yul\":4552:4575   */\n      sub\n        /* \"#utility.yul\":4548:4580   */\n      slt\n        /* \"#utility.yul\":4545:4664   */\n      iszero\n      tag_128\n      jumpi\n        /* \"#utility.yul\":4583:4662   */\n      tag_129\n      tag_40\n      jump\t// in\n    tag_129:\n        /* \"#utility.yul\":4545:4664   */\n    tag_128:\n        /* \"#utility.yul\":4731:4732   */\n      0x00\n        /* \"#utility.yul\":4720:4729   */\n      dup4\n        /* \"#utility.yul\":4716:4733   */\n      add\n        /* \"#utility.yul\":4703:4734   */\n      calldataload\n        /* \"#utility.yul\":4761:4779   */\n      0xffffffffffffffff\n        /* \"#utility.yul\":4753:4759   */\n      dup2\n        /* \"#utility.yul\":4750:4780   */\n      gt\n        /* \"#utility.yul\":4747:4864   */\n      iszero\n      tag_130\n      jumpi\n        /* \"#utility.yul\":4783:4862   */\n      tag_131\n      tag_41\n      jump\t// in\n    tag_131:\n        /* \"#utility.yul\":4747:4864   */\n    tag_130:\n        /* \"#utility.yul\":4888:4976   */\n      tag_132\n        /* \"#utility.yul\":4968:4975   */\n      dup6\n        /* \"#utility.yul\":4959:4965   */\n      dup3\n        /* \"#utility.yul\":4948:4957   */\n      dup7\n        /* \"#utility.yul\":4944:4966   */\n      add\n        /* \"#utility.yul\":4888:4976   */\n      tag_55\n      jump\t// in\n    tag_132:\n        /* \"#utility.yul\":4878:4976   */\n      swap3\n      pop\n        /* \"#utility.yul\":4674:4986   */\n      pop\n        /* \"#utility.yul\":5053:5055   */\n      0x20\n        /* \"#utility.yul\":5042:5051   */\n      dup4\n        /* \"#utility.yul\":5038:5056   */\n      add\n        /* \"#utility.yul\":5025:5057   */\n      calldataload\n        /* \"#utility.yul\":5084:5102   */\n      0xffffffffffffffff\n        /* \"#utility.yul\":5076:5082   */\n      dup2\n        /* \"#utility.yul\":5073:5103   */\n      gt\n        /* \"#utility.yul\":5070:5187   */\n      iszero\n      tag_133\n      jumpi\n        /* \"#utility.yul\":5106:5185   */\n      tag_134\n      tag_41\n      jump\t// in\n    tag_134:\n        /* \"#utility.yul\":5070:5187   */\n    tag_133:\n        /* \"#utility.yul\":5211:5299   */\n      tag_135\n        /* \"#utility.yul\":5291:5298   */\n      dup6\n        /* \"#utility.yul\":5282:5288   */\n      dup3\n        /* \"#utility.yul\":5271:5280   */\n      dup7\n        /* \"#utility.yul\":5267:5289   */\n      add\n        /* \"#utility.yul\":5211:5299   */\n      tag_55\n      jump\t// in\n    tag_135:\n        /* \"#utility.yul\":5201:5299   */\n      swap2\n      pop\n        /* \"#utility.yul\":4996:5309   */\n      pop\n        /* \"#utility.yul\":4382:5316   */\n      swap3\n      pop\n      swap3\n      swap1\n      pop\n      jump\t// out\n        /* \"#utility.yul\":5322:5831   */\n    tag_11:\n        /* \"#utility.yul\":5391:5397   */\n      0x00\n        /* \"#utility.yul\":5440:5442   */\n      0x20\n        /* \"#utility.yul\":5428:5437   */\n      dup3\n        /* \"#utility.yul\":5419:5426   */\n      dup5\n        /* \"#utility.yul\":5415:5438   */\n      sub\n        /* \"#utility.yul\":5411:5443   */\n      slt\n        /* \"#utility.yul\":5408:5527   */\n      iszero\n      tag_137\n      jumpi\n        /* \"#utility.yul\":5446:5525   */\n      tag_138\n      tag_40\n      jump\t// in\n    tag_138:\n        /* \"#utility.yul\":5408:5527   */\n    tag_137:\n        /* \"#utility.yul\":5594:5595   */\n      0x00\n        /* \"#utility.yul\":5583:5592   */\n      dup3\n        /* \"#utility.yul\":5579:5596   */\n      add\n        /* \"#utility.yul\":5566:5597   */\n      calldataload\n        /* \"#utility.yul\":5624:5642   */\n      0xffffffffffffffff\n        /* \"#utility.yul\":5616:5622   */\n      dup2\n        /* \"#utility.yul\":5613:5643   */\n      gt\n        /* \"#utility.yul\":5610:5727   */\n      iszero\n      tag_139\n      jumpi\n        /* \"#utility.yul\":5646:5725   */\n      tag_140\n      tag_41\n      jump\t// in\n    tag_140:\n        /* \"#utility.yul\":5610:5727   */\n    tag_139:\n        /* \"#utility.yul\":5751:5814   */\n      tag_141\n        /* \"#utility.yul\":5806:5813   */\n      dup5\n        /* \"#utility.yul\":5797:5803   */\n      dup3\n        /* \"#utility.yul\":5786:5795   */\n      dup6\n        /* \"#utility.yul\":5782:5804   */\n      add\n        /* \"#utility.yul\":5751:5814   */\n      tag_53\n      jump\t// in\n    tag_141:\n        /* \"#utility.yul\":5741:5814   */\n      swap2\n      pop\n        /* \"#utility.yul\":5537:5824   */\n      pop\n        /* \"#utility.yul\":5322:5831   */\n      swap3\n      swap2\n      pop\n      pop\n      jump\t// out\n        /* \"#utility.yul\":5837:5935   */\n    tag_56:\n        /* \"#utility.yul\":5888:5894   */\n      0x00\n        /* \"#utility.yul\":5922:5927   */\n      dup2\n        /* \"#utility.yul\":5916:5928   */\n      mload\n        /* \"#utility.yul\":5906:5928   */\n      swap1\n      pop\n        /* \"#utility.yul\":5837:5935   */\n      swap2\n      swap1\n      pop\n      jump\t// out\n        /* \"#utility.yul\":5941:6109   */\n    tag_57:\n        /* \"#utility.yul\":6024:6035   */\n      0x00\n        /* \"#utility.yul\":6058:6064   */\n      dup3\n        /* \"#utility.yul\":6053:6056   */\n      dup3\n        /* \"#utility.yul\":6046:6065   */\n      mstore\n        /* \"#utility.yul\":6098:6102   */\n      0x20\n        /* \"#utility.yul\":6093:6096   */\n      dup3\n        /* \"#utility.yul\":6089:6103   */\n      add\n        /* \"#utility.yul\":6074:6103   */\n      swap1\n      pop\n        /* \"#utility.yul\":5941:6109   */\n      swap3\n      swap2\n      pop\n      pop\n      jump\t// out\n        /* \"#utility.yul\":6115:6361   */\n    tag_58:\n        /* \"#utility.yul\":6196:6197   */\n      0x00\n        /* \"#utility.yul\":6206:6319   */\n    tag_145:\n        /* \"#utility.yul\":6220:6226   */\n      dup4\n        /* \"#utility.yul\":6217:6218   */\n      dup2\n        /* \"#utility.yul\":6214:6227   */\n      lt\n        /* \"#utility.yul\":6206:6319   */\n      iszero\n      tag_147\n      jumpi\n        /* \"#utility.yul\":6305:6306   */\n      dup1\n        /* \"#utility.yul\":6300:6303   */\n      dup3\n        /* \"#utility.yul\":6296:6307   */\n      add\n        /* \"#utility.yul\":6290:6308   */\n      mload\n        /* \"#utility.yul\":6286:6287   */\n      dup2\n        /* \"#utility.yul\":6281:6284   */\n      dup5\n        /* \"#utility.yul\":6277:6288   */\n      add\n        /* \"#utility.yul\":6270:6309   */\n      mstore\n        /* \"#utility.yul\":6242:6244   */\n      0x20\n        /* \"#utility.yul\":6239:6240   */\n      dup2\n        /* \"#utility.yul\":6235:6245   */\n      add\n        /* \"#utility.yul\":6230:6245   */\n      swap1\n      pop\n        /* \"#utility.yul\":6206:6319   */\n      jump(tag_145)\n    tag_147:\n        /* \"#utility.yul\":6353:6354   */\n      0x00\n        /* \"#utility.yul\":6344:6350   */\n      dup5\n        /* \"#utility.yul\":6339:6342   */\n      dup5\n        /* \"#utility.yul\":6335:6351   */\n      add\n        /* \"#utility.yul\":6328:6355   */\n      mstore\n        /* \"#utility.yul\":6177:6361   */\n      pop\n        /* \"#utility.yul\":6115:6361   */\n      pop\n      pop\n      pop\n      jump\t// out\n        /* \"#utility.yul\":6367:6740   */\n    tag_59:\n        /* \"#utility.yul\":6453:6456   */\n      0x00\n        /* \"#utility.yul\":6481:6519   */\n      tag_149\n        /* \"#utility.yul\":6513:6518   */\n      dup3\n        /* \"#utility.yul\":6481:6519   */\n      tag_56\n      jump\t// in\n    tag_149:\n        /* \"#utility.yul\":6535:6605   */\n      tag_150\n        /* \"#utility.yul\":6598:6604   */\n      dup2\n        /* \"#utility.yul\":6593:6596   */\n      dup6\n        /* \"#utility.yul\":6535:6605   */\n      tag_57\n      jump\t// in\n    tag_150:\n        /* \"#utility.yul\":6528:6605   */\n      swap4\n      pop\n        /* \"#utility.yul\":6614:6679   */\n      tag_151\n        /* \"#utility.yul\":6672:6678   */\n      dup2\n        /* \"#utility.yul\":6667:6670   */\n      dup6\n        /* \"#utility.yul\":6660:6664   */\n      0x20\n        /* \"#utility.yul\":6653:6658   */\n      dup7\n        /* \"#utility.yul\":6649:6665   */\n      add\n        /* \"#utility.yul\":6614:6679   */\n      tag_58\n      jump\t// in\n    tag_151:\n        /* \"#utility.yul\":6704:6733   */\n      tag_152\n        /* \"#utility.yul\":6726:6732   */\n      dup2\n        /* \"#utility.yul\":6704:6733   */\n      tag_43\n      jump\t// in\n    tag_152:\n        /* \"#utility.yul\":6699:6702   */\n      dup5\n        /* \"#utility.yul\":6695:6734   */\n      add\n        /* \"#utility.yul\":6688:6734   */\n      swap2\n      pop\n        /* \"#utility.yul\":6457:6740   */\n      pop\n        /* \"#utility.yul\":6367:6740   */\n      swap3\n      swap2\n      pop\n      pop\n      jump\t// out\n        /* \"#utility.yul\":6746:7055   */\n    tag_14:\n        /* \"#utility.yul\":6857:6861   */\n      0x00\n        /* \"#utility.yul\":6895:6897   */\n      0x20\n        /* \"#utility.yul\":6884:6893   */\n      dup3\n        /* \"#utility.yul\":6880:6898   */\n      add\n        /* \"#utility.yul\":6872:6898   */\n      swap1\n      pop\n        /* \"#utility.yul\":6944:6953   */\n      dup2\n        /* \"#utility.yul\":6938:6942   */\n      dup2\n        /* \"#utility.yul\":6934:6954   */\n      sub\n        /* \"#utility.yul\":6930:6931   */\n      0x00\n        /* \"#utility.yul\":6919:6928   */\n      dup4\n        /* \"#utility.yul\":6915:6932   */\n      add\n        /* \"#utility.yul\":6908:6955   */\n      mstore\n        /* \"#utility.yul\":6972:7048   */\n      tag_154\n        /* \"#utility.yul\":7043:7047   */\n      dup2\n        /* \"#utility.yul\":7034:7040   */\n      dup5\n        /* \"#utility.yul\":6972:7048   */\n      tag_59\n      jump\t// in\n    tag_154:\n        /* \"#utility.yul\":6964:7048   */\n      swap1\n      pop\n        /* \"#utility.yul\":6746:7055   */\n      swap3\n      swap2\n      pop\n      pop\n      jump\t// out\n        /* \"#utility.yul\":7061:7160   */\n    tag_60:\n        /* \"#utility.yul\":7113:7119   */\n      0x00\n        /* \"#utility.yul\":7147:7152   */\n      dup2\n        /* \"#utility.yul\":7141:7153   */\n      mload\n        /* \"#utility.yul\":7131:7153   */\n      swap1\n      pop\n        /* \"#utility.yul\":7061:7160   */\n      swap2\n      swap1\n      pop\n      jump\t// out\n        /* \"#utility.yul\":7166:7346   */\n    tag_61:\n        /* \"#utility.yul\":7214:7291   */\n      0x4e487b7100000000000000000000000000000000000000000000000000000000\n        /* \"#utility.yul\":7211:7212   */\n      0x00\n        /* \"#utility.yul\":7204:7292   */\n      mstore\n        /* \"#utility.yul\":7311:7315   */\n      0x22\n        /* \"#utility.yul\":7308:7309   */\n      0x04\n        /* \"#utility.yul\":7301:7316   */\n      mstore\n        /* \"#utility.yul\":7335:7339   */\n      0x24\n        /* \"#utility.yul\":7332:7333   */\n      0x00\n        /* \"#utility.yul\":7325:7340   */\n      revert\n        /* \"#utility.yul\":7352:7672   */\n    tag_32:\n        /* \"#utility.yul\":7396:7402   */\n      0x00\n        /* \"#utility.yul\":7433:7434   */\n      0x02\n        /* \"#utility.yul\":7427:7431   */\n      dup3\n        /* \"#utility.yul\":7423:7435   */\n      div\n        /* \"#utility.yul\":7413:7435   */\n      swap1\n      pop\n        /* \"#utility.yul\":7480:7481   */\n      0x01\n        /* \"#utility.yul\":7474:7478   */\n      dup3\n        /* \"#utility.yul\":7470:7482   */\n      and\n        /* \"#utility.yul\":7501:7519   */\n      dup1\n        /* \"#utility.yul\":7491:7572   */\n      tag_158\n      jumpi\n        /* \"#utility.yul\":7557:7561   */\n      0x7f\n        /* \"#utility.yul\":7549:7555   */\n      dup3\n        /* \"#utility.yul\":7545:7562   */\n      and\n        /* \"#utility.yul\":7535:7562   */\n      swap2\n      pop\n        /* \"#utility.yul\":7491:7572   */\n    tag_158:\n        /* \"#utility.yul\":7619:7621   */\n      0x20\n        /* \"#utility.yul\":7611:7617   */\n      dup3\n        /* \"#utility.yul\":7608:7622   */\n      lt\n        /* \"#utility.yul\":7588:7606   */\n      dup2\n        /* \"#utility.yul\":7585:7623   */\n      sub\n        /* \"#utility.yul\":7582:7666   */\n      tag_159\n      jumpi\n        /* \"#utility.yul\":7638:7656   */\n      tag_160\n      tag_61\n      jump\t// in\n    tag_160:\n        /* \"#utility.yul\":7582:7666   */\n    tag_159:\n        /* \"#utility.yul\":7403:7672   */\n      pop\n        /* \"#utility.yul\":7352:7672   */\n      swap2\n      swap1\n      pop\n      jump\t// out\n        /* \"#utility.yul\":7678:7819   */\n    tag_62:\n        /* \"#utility.yul\":7727:7731   */\n      0x00\n        /* \"#utility.yul\":7750:7753   */\n      dup2\n        /* \"#utility.yul\":7742:7753   */\n      swap1\n      pop\n        /* \"#utility.yul\":7773:7776   */\n      dup2\n        /* \"#utility.yul\":7770:7771   */\n      0x00\n        /* \"#utility.yul\":7763:7777   */\n      mstore\n        /* \"#utility.yul\":7807:7811   */\n      0x20\n        /* \"#utility.yul\":7804:7805   */\n      0x00\n        /* \"#utility.yul\":7794:7812   */\n      keccak256\n        /* \"#utility.yul\":7786:7812   */\n      swap1\n      pop\n        /* \"#utility.yul\":7678:7819   */\n      swap2\n      swap1\n      pop\n      jump\t// out\n        /* \"#utility.yul\":7825:7918   */\n    tag_63:\n        /* \"#utility.yul\":7862:7868   */\n      0x00\n        /* \"#utility.yul\":7909:7911   */\n      0x20\n        /* \"#utility.yul\":7904:7906   */\n      0x1f\n        /* \"#utility.yul\":7897:7902   */\n      dup4\n        /* \"#utility.yul\":7893:7907   */\n      add\n        /* \"#utility.yul\":7889:7912   */\n      div\n        /* \"#utility.yul\":7879:7912   */\n      swap1\n      pop\n        /* \"#utility.yul\":7825:7918   */\n      swap2\n      swap1\n      pop\n      jump\t// out\n        /* \"#utility.yul\":7924:8031   */\n    tag_64:\n        /* \"#utility.yul\":7968:7976   */\n      0x00\n        /* \"#utility.yul\":8018:8023   */\n      dup3\n        /* \"#utility.yul\":8012:8016   */\n      dup3\n        /* \"#utility.yul\":8008:8024   */\n      shl\n        /* \"#utility.yul\":7987:8024   */\n      swap1\n      pop\n        /* \"#utility.yul\":7924:8031   */\n      swap3\n      swap2\n      pop\n      pop\n      jump\t// out\n        /* \"#utility.yul\":8037:8430   */\n    tag_65:\n        /* \"#utility.yul\":8106:8112   */\n      0x00\n        /* \"#utility.yul\":8156:8157   */\n      0x08\n        /* \"#utility.yul\":8144:8154   */\n      dup4\n        /* \"#utility.yul\":8140:8158   */\n      mul\n        /* \"#utility.yul\":8179:8276   */\n      tag_165\n        /* \"#utility.yul\":8209:8275   */\n      0xffffffffffffffffffffffffffffffffffffffffffffffffffffffffffffffff\n        /* \"#utility.yul\":8198:8207   */\n      dup3\n        /* \"#utility.yul\":8179:8276   */\n      tag_64\n      jump\t// in\n    tag_165:\n        /* \"#utility.yul\":8297:8336   */\n      tag_166\n        /* \"#utility.yul\":8327:8335   */\n      dup7\n        /* \"#utility.yul\":8316:8325   */\n      dup4\n        /* \"#utility.yul\":8297:8336   */\n      tag_64\n      jump\t// in\n    tag_166:\n        /* \"#utility.yul\":8285:8336   */\n      swap6\n      pop\n        /* \"#utility.yul\":8369:8373   */\n      dup1\n        /* \"#utility.yul\":8365:8374   */\n      not\n        /* \"#utility.yul\":8358:8363   */\n      dup5\n        /* \"#utility.yul\":8354:8375   */\n      and\n        /* \"#utility.yul\":8345:8375   */\n      swap4\n      pop\n        /* \"#utility.yul\":8418:8422   */\n      dup1\n        /* \"#utility.yul\":8408:8416   */\n      dup7\n        /* \"#utility.yul\":8404:8423   */\n      and\n        /* \"#utility.yul\":8397:8402   */\n      dup5\n        /* \"#utility.yul\":8394:8424   */\n      or\n        /* \"#utility.yul\":8384:8424   */\n      swap3\n      pop\n        /* \"#utility.yul\":8113:8430   */\n      pop\n      pop\n        /* \"#utility.yul\":8037:8430   */\n      swap4\n      swap3\n      pop\n      pop\n      pop\n      jump\t// out\n        /* \"#utility.yul\":8436:8513   */\n    tag_66:\n        /* \"#utility.yul\":8473:8480   */\n      0x00\n        /* \"#utility.yul\":8502:8507   */\n      dup2\n        /* \"#utility.yul\":8491:8507   */\n      swap1\n      pop\n        /* \"#utility.yul\":8436:8513   */\n      swap2\n      swap1\n      pop\n      jump\t// out\n        /* \"#utility.yul\":8519:8579   */\n    tag_67:\n        /* \"#utility.yul\":8547:8550   */\n      0x00\n        /* \"#utility.yul\":8568:8573   */\n      dup2\n        /* \"#utility.yul\":8561:8573   */\n      swap1\n      pop\n        /* \"#utility.yul\":8519:8579   */\n      swap2\n      swap1\n      pop\n      jump\t// out\n        /* \"#utility.yul\":8585:8727   */\n    tag_68:\n        /* \"#utility.yul\":8635:8644   */\n      0x00\n        /* \"#utility.yul\":8668:8721   */\n      tag_170\n        /* \"#utility.yul\":8686:8720   */\n      tag_171\n        /* \"#utility.yul\":8695:8719   */\n      tag_172\n        /* \"#utility.yul\":8713:8718   */\n      dup5\n        /* \"#utility.yul\":8695:8719   */\n      tag_66\n      jump\t// in\n    tag_172:\n        /* \"#utility.yul\":8686:8720   */\n      tag_67\n      jump\t// in\n    tag_171:\n        /* \"#utility.yul\":8668:8721   */\n      tag_66\n      jump\t// in\n    tag_170:\n        /* \"#utility.yul\":8655:8721   */\n      swap1\n      pop\n        /* \"#utility.yul\":8585:8727   */\n      swap2\n      swap1\n      pop\n      jump\t// out\n        /* \"#utility.yul\":8733:8808   */\n    tag_69:\n        /* \"#utility.yul\":8776:8779   */\n      0x00\n        /* \"#utility.yul\":8797:8802   */\n      dup2\n        /* \"#utility.yul\":8790:8802   */\n      swap1\n      pop\n        /* \"#utility.yul\":8733:8808   */\n      swap2\n      swap1\n      pop\n      jump\t// out\n        /* \"#utility.yul\":8814:9083   */\n    tag_70:\n        /* \"#utility.yul\":8924:8963   */\n      tag_175\n        /* \"#utility.yul\":8955:8962   */\n      dup4\n        /* \"#utility.yul\":8924:8963   */\n      tag_68\n      jump\t// in\n    tag_175:\n        /* \"#utility.yul\":8985:9076   */\n      tag_176\n        /* \"#utility.yul\":9034:9075   */\n      tag_177\n        /* \"#utility.yul\":9058:9074   */\n      dup3\n        /* \"#utility.yul\":9034:9075   */\n      tag_69\n      jump\t// in\n    tag_177:\n        /* \"#utility.yul\":9026:9032   */\n      dup5\n        /* \"#utility.yul\":9019:9023   */\n      dup5\n        /* \"#utility.yul\":9013:9024   */\n      sload\n        /* \"#utility.yul\":8985:9076   */\n      tag_65\n      jump\t// in\n    tag_176:\n        /* \"#utility.yul\":8979:8983   */\n      dup3\n        /* \"#utility.yul\":8972:9077   */\n      sstore\n        /* \"#utility.yul\":8890:9083   */\n      pop\n        /* \"#utility.yul\":8814:9083   */\n      pop\n      pop\n      pop\n      jump\t// out\n        /* \"#utility.yul\":9089:9162   */\n    tag_71:\n        /* \"#utility.yul\":9134:9137   */\n      0x00\n        /* \"#utility.yul\":9089:9162   */\n      swap1\n      jump\t// out\n        /* \"#utility.yul\":9168:9357   */\n    tag_72:\n        /* \"#utility.yul\":9245:9277   */\n      tag_180\n      tag_71\n      jump\t// in\n    tag_180:\n        /* \"#utility.yul\":9286:9351   */\n      tag_181\n        /* \"#utility.yul\":9344:9350   */\n      dup2\n        /* \"#utility.yul\":9336:9342   */\n      dup5\n        /* \"#utility.yul\":9330:9334   */\n      dup5\n        /* \"#utility.yul\":9286:9351   */\n      tag_70\n      jump\t// in\n    tag_181:\n        /* \"#utility.yul\":9221:9357   */\n      pop\n        /* \"#utility.yul\":9168:9357   */\n      pop\n      pop\n      jump\t// out\n        /* \"#utility.yul\":9363:9549   */\n    tag_73:\n        /* \"#utility.yul\":9423:9543   */\n    tag_183:\n        /* \"#utility.yul\":9440:9443   */\n      dup2\n        /* \"#utility.yul\":9433:9438   */\n      dup2\n        /* \"#utility.yul\":9430:9444   */\n      lt\n        /* \"#utility.yul\":9423:9543   */\n      iszero\n      tag_185\n      jumpi\n        /* \"#utility.yul\":9494:9533   */\n      tag_186\n        /* \"#utility.yul\":9531:9532   */\n      0x00\n        /* \"#utility.yul\":9524:9529   */\n      dup3\n        /* \"#utility.yul\":9494:9533   */\n      tag_72\n      jump\t// in\n    tag_186:\n        /* \"#utility.yul\":9467:9468   */\n      0x01\n        /* \"#utility.yul\":9460:9465   */\n      dup2\n        /* \"#utility.yul\":9456:9469   */\n      add\n        /* \"#utility.yul\":9447:9469   */\n      swap1\n      pop\n        /* \"#utility.yul\":9423:9543   */\n      jump(tag_183)\n    tag_185:\n        /* \"#utility.yul\":9363:9549   */\n      pop\n      pop\n      jump\t// out\n        /* \"#utility.yul\":9555:10098   */\n    tag_74:\n        /* \"#utility.yul\":9656:9658   */\n      0x1f\n        /* \"#utility.yul\":9651:9654   */\n      dup3\n        /* \"#utility.yul\":9648:9659   */\n      gt\n        /* \"#utility.yul\":9645:10091   */\n      iszero\n      tag_188\n      jumpi\n        /* \"#utility.yul\":9690:9728   */\n      tag_189\n        /* \"#utility.yul\":9722:9727   */\n      dup2\n        /* \"#utility.yul\":9690:9728   */\n      tag_62\n      jump\t// in\n    tag_189:\n        /* \"#utility.yul\":9774:9803   */\n      tag_190\n        /* \"#utility.yul\":9792:9802   */\n      dup5\n        /* \"#utility.yul\":9774:9803   */\n      tag_63\n      jump\t// in\n    tag_190:\n        /* \"#utility.yul\":9764:9772   */\n      dup2\n        /* \"#utility.yul\":9760:9804   */\n      add\n        /* \"#utility.yul\":9957:9959   */\n      0x20\n        /* \"#utility.yul\":9945:9955   */\n      dup6\n        /* \"#utility.yul\":9942:9960   */\n      lt\n        /* \"#utility.yul\":9939:9988   */\n      iszero\n      tag_191\n      jumpi\n        /* \"#utility.yul\":9978:9986   */\n      dup2\n        /* \"#utility.yul\":9963:9986   */\n      swap1\n      pop\n        /* \"#utility.yul\":9939:9988   */\n    tag_191:\n        /* \"#utility.yul\":10001:10081   */\n      tag_192\n        /* \"#utility.yul\":10057:10079   */\n      tag_193\n        /* \"#utility.yul\":10075:10078   */\n      dup6\n        /* \"#utility.yul\":10057:10079   */\n      tag_63\n      jump\t// in\n    tag_193:\n        /* \"#utility.yul\":10047:10055   */\n      dup4\n        /* \"#utility.yul\":10043:10080   */\n      add\n        /* \"#utility.yul\":10030:10041   */\n      dup3\n        /* \"#utility.yul\":10001:10081   */\n      tag_73\n      jump\t// in\n    tag_192:\n        /* \"#utility.yul\":9660:10091   */\n      pop\n      pop\n        /* \"#utility.yul\":9645:10091   */\n    tag_188:\n        /* \"#utility.yul\":9555:10098   */\n      pop\n      pop\n      pop\n      jump\t// out\n        /* \"#utility.yul\":10104:10221   */\n    tag_75:\n        /* \"#utility.yul\":10158:10166   */\n      0x00\n        /* \"#utility.yul\":10208:10213   */\n      dup3\n        /* \"#utility.yul\":10202:10206   */\n      dup3\n        /* \"#utility.yul\":10198:10214   */\n      shr\n        /* \"#utility.yul\":10177:10214   */\n      swap1\n      pop\n        /* \"#utility.yul\":10104:10221   */\n      swap3\n      swap2\n      pop\n      pop\n      jump\t// out\n        /* \"#utility.yul\":10227:10396   */\n    tag_76:\n        /* \"#utility.yul\":10271:10277   */\n      0x00\n        /* \"#utility.yul\":10304:10355   */\n      tag_196\n        /* \"#utility.yul\":10352:10353   */\n      0x00\n        /* \"#utility.yul\":10348:10354   */\n      not\n        /* \"#utility.yul\":10340:10345   */\n      dup5\n        /* \"#utility.yul\":10337:10338   */\n      0x08\n        /* \"#utility.yul\":10333:10346   */\n      mul\n        /* \"#utility.yul\":10304:10355   */\n      tag_75\n      jump\t// in\n    tag_196:\n        /* \"#utility.yul\":10300:10356   */\n      not\n        /* \"#utility.yul\":10385:10389   */\n      dup1\n        /* \"#utility.yul\":10379:10383   */\n      dup4\n        /* \"#utility.yul\":10375:10390   */\n      and\n        /* \"#utility.yul\":10365:10390   */\n      swap2\n      pop\n        /* \"#utility.yul\":10278:10396   */\n      pop\n        /* \"#utility.yul\":10227:10396   */\n      swap3\n      swap2\n      pop\n      pop\n      jump\t// out\n        /* \"#utility.yul\":10401:10696   */\n    tag_77:\n        /* \"#utility.yul\":10477:10481   */\n      0x00\n        /* \"#utility.yul\":10623:10652   */\n      tag_198\n        /* \"#utility.yul\":10648:10651   */\n      dup4\n        /* \"#utility.yul\":10642:10646   */\n      dup4\n        /* \"#utility.yul\":10623:10652   */\n      tag_76\n      jump\t// in\n    tag_198:\n        /* \"#utility.yul\":10615:10652   */\n      swap2\n      pop\n        /* \"#utility.yul\":10685:10688   */\n      dup3\n        /* \"#utility.yul\":10682:10683   */\n      0x02\n        /* \"#utility.yul\":10678:10689   */\n      mul\n        /* \"#utility.yul\":10672:10676   */\n      dup3\n        /* \"#utility.yul\":10669:10690   */\n      or\n        /* \"#utility.yul\":10661:10690   */\n      swap1\n      pop\n        /* \"#utility.yul\":10401:10696   */\n      swap3\n      swap2\n      pop\n      pop\n      jump\t// out\n        /* \"#utility.yul\":10701:12096   */\n    tag_24:\n        /* \"#utility.yul\":10818:10855   */\n      tag_200\n        /* \"#utility.yul\":10851:10854   */\n      dup3\n        /* \"#utility.yul\":10818:10855   */\n      tag_60\n      jump\t// in\n    tag_200:\n        /* \"#utility.yul\":10920:10938   */\n      0xffffffffffffffff\n        /* \"#utility.yul\":10912:10918   */\n      dup2\n        /* \"#utility.yul\":10909:10939   */\n      gt\n        /* \"#utility.yul\":10906:10962   */\n      iszero\n      tag_201\n      jumpi\n        /* \"#utility.yul\":10942:10960   */\n      tag_202\n      tag_44\n      jump\t// in\n    tag_202:\n        /* \"#utility.yul\":10906:10962   */\n    tag_201:\n        /* \"#utility.yul\":10986:11024   */\n      tag_203\n        /* \"#utility.yul\":11018:11022   */\n      dup3\n        /* \"#utility.yul\":11012:11023   */\n      sload\n        /* \"#utility.yul\":10986:11024   */\n      tag_32\n      jump\t// in\n    tag_203:\n        /* \"#utility.yul\":11071:11138   */\n      tag_204\n        /* \"#utility.yul\":11131:11137   */\n      dup3\n        /* \"#utility.yul\":11123:11129   */\n      dup3\n        /* \"#utility.yul\":11117:11121   */\n      dup6\n        /* \"#utility.yul\":11071:11138   */\n      tag_74\n      jump\t// in\n    tag_204:\n        /* \"#utility.yul\":11165:11166   */\n      0x00\n        /* \"#utility.yul\":11189:11193   */\n      0x20\n        /* \"#utility.yul\":11176:11193   */\n      swap1\n      pop\n        /* \"#utility.yul\":11221:11223   */\n      0x1f\n        /* \"#utility.yul\":11213:11219   */\n      dup4\n        /* \"#utility.yul\":11210:11224   */\n      gt\n        /* \"#utility.yul\":11238:11239   */\n      0x01\n        /* \"#utility.yul\":11233:11851   */\n      dup2\n      eq\n      tag_206\n      jumpi\n        /* \"#utility.yul\":11895:11896   */\n      0x00\n        /* \"#utility.yul\":11912:11918   */\n      dup5\n        /* \"#utility.yul\":11909:11986   */\n      iszero\n      tag_207\n      jumpi\n        /* \"#utility.yul\":11961:11970   */\n      dup3\n        /* \"#utility.yul\":11956:11959   */\n      dup8\n        /* \"#utility.yul\":11952:11971   */\n      add\n        /* \"#utility.yul\":11946:11972   */\n      mload\n        /* \"#utility.yul\":11937:11972   */\n      swap1\n      pop\n        /* \"#utility.yul\":11909:11986   */\n    tag_207:\n        /* \"#utility.yul\":12012:12079   */\n      tag_208\n        /* \"#utility.yul\":12072:12078   */\n      dup6\n        /* \"#utility.yul\":12065:12070   */\n      dup3\n        /* \"#utility.yul\":12012:12079   */\n      tag_77\n      jump\t// in\n    tag_208:\n        /* \"#utility.yul\":12006:12010   */\n      dup7\n        /* \"#utility.yul\":11999:12080   */\n      sstore\n        /* \"#utility.yul\":11868:12090   */\n      pop\n        /* \"#utility.yul\":11203:12090   */\n      jump(tag_205)\n        /* \"#utility.yul\":11233:11851   */\n    tag_206:\n        /* \"#utility.yul\":11285:11289   */\n      0x1f\n        /* \"#utility.yul\":11281:11290   */\n      not\n        /* \"#utility.yul\":11273:11279   */\n      dup5\n        /* \"#utility.yul\":11269:11291   */\n      and\n        /* \"#utility.yul\":11319:11356   */\n      tag_209\n        /* \"#utility.yul\":11351:11355   */\n      dup7\n        /* \"#utility.yul\":11319:11356   */\n      tag_62\n      jump\t// in\n    tag_209:\n        /* \"#utility.yul\":11378:11379   */\n      0x00\n        /* \"#utility.yul\":11392:11600   */\n    tag_210:\n        /* \"#utility.yul\":11406:11413   */\n      dup3\n        /* \"#utility.yul\":11403:11404   */\n      dup2\n        /* \"#utility.yul\":11400:11414   */\n      lt\n        /* \"#utility.yul\":11392:11600   */\n      iszero\n      tag_212\n      jumpi\n        /* \"#utility.yul\":11485:11494   */\n      dup5\n        /* \"#utility.yul\":11480:11483   */\n      dup10\n        /* \"#utility.yul\":11476:11495   */\n      add\n        /* \"#utility.yul\":11470:11496   */\n      mload\n        /* \"#utility.yul\":11462:11468   */\n      dup3\n        /* \"#utility.yul\":11455:11497   */\n      sstore\n        /* \"#utility.yul\":11536:11537   */\n      0x01\n        /* \"#utility.yul\":11528:11534   */\n      dup3\n        /* \"#utility.yul\":11524:11538   */\n      add\n        /* \"#utility.yul\":11514:11538   */\n      swap2\n      pop\n        /* \"#utility.yul\":11583:11585   */\n      0x20\n        /* \"#utility.yul\":11572:11581   */\n      dup6\n        /* \"#utility.yul\":11568:11586   */\n      add\n        /* \"#utility.yul\":11555:11586   */\n      swap5\n      pop\n        /* \"#utility.yul\":11429:11433   */\n      0x20\n        /* \"#utility.yul\":11426:11427   */\n      dup2\n        /* \"#utility.yul\":11422:11434   */\n      add\n        /* \"#utility.yul\":11417:11434   */\n      swap1\n      pop\n        /* \"#utility.yul\":11392:11600   */\n      jump(tag_210)\n    tag_212:\n        /* \"#utility.yul\":11628:11634   */\n      dup7\n        /* \"#utility.yul\":11619:11626   */\n      dup4\n        /* \"#utility.yul\":11616:11635   */\n      lt\n        /* \"#utility.yul\":11613:11792   */\n      iszero\n      tag_213\n      jumpi\n        /* \"#utility.yul\":11686:11695   */\n      dup5\n        /* \"#utility.yul\":11681:11684   */\n      dup10\n        /* \"#utility.yul\":11677:11696   */\n      add\n        /* \"#utility.yul\":11671:11697   */\n      mload\n        /* \"#utility.yul\":11729:11777   */\n      tag_214\n        /* \"#utility.yul\":11771:11775   */\n      0x1f\n        /* \"#utility.yul\":11763:11769   */\n      dup10\n        /* \"#utility.yul\":11759:11776   */\n      and\n        /* \"#utility.yul\":11748:11757   */\n      dup3\n        /* \"#utility.yul\":11729:11777   */\n      tag_76\n      jump\t// in\n    tag_214:\n        /* \"#utility.yul\":11721:11727   */\n      dup4\n        /* \"#utility.yul\":11714:11778   */\n      sstore\n        /* \"#utility.yul\":11636:11792   */\n      pop\n        /* \"#utility.yul\":11613:11792   */\n    tag_213:\n        /* \"#utility.yul\":11838:11839   */\n      0x01\n        /* \"#utility.yul\":11834:11835   */\n      0x02\n        /* \"#utility.yul\":11826:11832   */\n      dup9\n        /* \"#utility.yul\":11822:11836   */\n      mul\n        /* \"#utility.yul\":11818:11840   */\n      add\n        /* \"#utility.yul\":11812:11816   */\n      dup9\n        /* \"#utility.yul\":11805:11841   */\n      sstore\n        /* \"#utility.yul\":11240:11851   */\n      pop\n      pop\n      pop\n        /* \"#utility.yul\":11203:12090   */\n    tag_205:\n      pop\n        /* \"#utility.yul\":10793:12096   */\n      pop\n      pop\n      pop\n        /* \"#utility.yul\":10701:12096   */\n      pop\n      pop\n      jump\t// out\n\n    auxdata: 0xa2646970667358221220c851428764ea75ac88f216868de7183035d81c98bb5132960c0db63a45975afa64736f6c63430008130033\n}\n",
				"bytecode": {
					"linkReferences": {},
					"object": "608060405234801561001057600080fd5b50610899806100206000396000f3fe608060405234801561001057600080fd5b50600436106100365760003560e01c8063cb79b5321461003b578063e106fb4b14610057575b600080fd5b6100556004803603810190610050919061040e565b610087565b005b610071600480360381019061006c9190610486565b6100e4565b60405161007e919061054e565b60405180910390f35b60008290506040518060400160405280848152602001838152506000808201518160000190805190602001906100be9291906100f4565b5060208201518160010190805190602001906100db9291906100f4565b50905050505050565b6060600082905080915050919050565b82805482825590600052602060002090810192821561013c579160200282015b8281111561013b57825182908161012b9190610791565b5091602001919060010190610114565b5b509050610149919061014d565b5090565b5b8082111561016d57600081816101649190610171565b5060010161014e565b5090565b50805461017d906105aa565b6000825580601f1061018f57506101ae565b601f0160209004906000526020600020908101906101ad91906101b1565b5b50565b5b808211156101ca5760008160009055506001016101b2565b5090565b6000604051905090565b600080fd5b600080fd5b600080fd5b6000601f19601f8301169050919050565b7f4e487b7100000000000000000000000000000000000000000000000000000000600052604160045260246000fd5b610230826101e7565b810181811067ffffffffffffffff8211171561024f5761024e6101f8565b5b80604052505050565b60006102626101ce565b905061026e8282610227565b919050565b600067ffffffffffffffff82111561028e5761028d6101f8565b5b602082029050602081019050919050565b600080fd5b600080fd5b600067ffffffffffffffff8211156102c4576102c36101f8565b5b6102cd826101e7565b9050602081019050919050565b82818337600083830152505050565b60006102fc6102f7846102a9565b610258565b905082815260208101848484011115610318576103176102a4565b5b6103238482856102da565b509392505050565b600082601f8301126103405761033f6101e2565b5b81356103508482602086016102e9565b91505092915050565b600061036c61036784610273565b610258565b9050808382526020820190506020840283018581111561038f5761038e61029f565b5b835b818110156103d657803567ffffffffffffffff8111156103b4576103b36101e2565b5b8086016103c1898261032b565b85526020850194505050602081019050610391565b5050509392505050565b600082601f8301126103f5576103f46101e2565b5b8135610405848260208601610359565b91505092915050565b60008060408385031215610425576104246101d8565b5b600083013567ffffffffffffffff811115610443576104426101dd565b5b61044f858286016103e0565b925050602083013567ffffffffffffffff8111156104705761046f6101dd565b5b61047c858286016103e0565b9150509250929050565b60006020828403121561049c5761049b6101d8565b5b600082013567ffffffffffffffff8111156104ba576104b96101dd565b5b6104c68482850161032b565b91505092915050565b600081519050919050565b600082825260208201905092915050565b60005b838110156105095780820151818401526020810190506104ee565b60008484015250505050565b6000610520826104cf565b61052a81856104da565b935061053a8185602086016104eb565b610543816101e7565b840191505092915050565b600060208201905081810360008301526105688184610515565b905092915050565b600081519050919050565b7f4e487b7100000000000000000000000000000000000000000000000000000000600052602260045260246000fd5b600060028204905060018216806105c257607f821691505b6020821081036105d5576105d461057b565b5b50919050565b60008190508160005260206000209050919050565b60006020601f8301049050919050565b600082821b905092915050565b60006008830261063d7fffffffffffffffffffffffffffffffffffffffffffffffffffffffffffffffff82610600565b6106478683610600565b95508019841693508086168417925050509392505050565b6000819050919050565b6000819050919050565b600061068e6106896106848461065f565b610669565b61065f565b9050919050565b6000819050919050565b6106a883610673565b6106bc6106b482610695565b84845461060d565b825550505050565b600090565b6106d16106c4565b6106dc81848461069f565b505050565b5b81811015610700576106f56000826106c9565b6001810190506106e2565b5050565b601f82111561074557610716816105db565b61071f846105f0565b8101602085101561072e578190505b61074261073a856105f0565b8301826106e1565b50505b505050565b600082821c905092915050565b60006107686000198460080261074a565b1980831691505092915050565b60006107818383610757565b9150826002028217905092915050565b61079a82610570565b67ffffffffffffffff8111156107b3576107b26101f8565b5b6107bd82546105aa565b6107c8828285610704565b600060209050601f8311600181146107fb57600084156107e9578287015190505b6107f38582610775565b86555061085b565b601f198416610809866105db565b60005b828110156108315784890151825560018201915060208501945060208101905061080c565b8683101561084e578489015161084a601f891682610757565b8355505b6001600288020188555050505b50505050505056fea2646970667358221220c851428764ea75ac88f216868de7183035d81c98bb5132960c0db63a45975afa64736f6c63430008130033",
					"opcodes": "PUSH1 0x80 PUSH1 0x40 MSTORE CALLVALUE DUP1 ISZERO PUSH2 0x10 JUMPI PUSH1 0x0 DUP1 REVERT JUMPDEST POP PUSH2 0x899 DUP1 PUSH2 0x20 PUSH1 0x0 CODECOPY PUSH1 0x0 RETURN INVALID PUSH1 0x80 PUSH1 0x40 MSTORE CALLVALUE DUP1 ISZERO PUSH2 0x10 JUMPI PUSH1 0x0 DUP1 REVERT JUMPDEST POP PUSH1 0x4 CALLDATASIZE LT PUSH2 0x36 JUMPI PUSH1 0x0 CALLDATALOAD PUSH1 0xE0 SHR DUP1 PUSH4 0xCB79B532 EQ PUSH2 0x3B JUMPI DUP1 PUSH4 0xE106FB4B EQ PUSH2 0x57 JUMPI JUMPDEST PUSH1 0x0 DUP1 REVERT JUMPDEST PUSH2 0x55 PUSH1 0x4 DUP1 CALLDATASIZE SUB DUP2 ADD SWAP1 PUSH2 0x50 SWAP2 SWAP1 PUSH2 0x40E JUMP JUMPDEST PUSH2 0x87 JUMP JUMPDEST STOP JUMPDEST PUSH2 0x71 PUSH1 0x4 DUP1 CALLDATASIZE SUB DUP2 ADD SWAP1 PUSH2 0x6C SWAP2 SWAP1 PUSH2 0x486 JUMP JUMPDEST PUSH2 0xE4 JUMP JUMPDEST PUSH1 0x40 MLOAD PUSH2 0x7E SWAP2 SWAP1 PUSH2 0x54E JUMP JUMPDEST PUSH1 0x40 MLOAD DUP1 SWAP2 SUB SWAP1 RETURN JUMPDEST PUSH1 0x0 DUP3 SWAP1 POP PUSH1 0x40 MLOAD DUP1 PUSH1 0x40 ADD PUSH1 0x40 MSTORE DUP1 DUP5 DUP2 MSTORE PUSH1 0x20 ADD DUP4 DUP2 MSTORE POP PUSH1 0x0 DUP1 DUP3 ADD MLOAD DUP2 PUSH1 0x0 ADD SWAP1 DUP1 MLOAD SWAP1 PUSH1 0x20 ADD SWAP1 PUSH2 0xBE SWAP3 SWAP2 SWAP1 PUSH2 0xF4 JUMP JUMPDEST POP PUSH1 0x20 DUP3 ADD MLOAD DUP2 PUSH1 0x1 ADD SWAP1 DUP1 MLOAD SWAP1 PUSH1 0x20 ADD SWAP1 PUSH2 0xDB SWAP3 SWAP2 SWAP1 PUSH2 0xF4 JUMP JUMPDEST POP SWAP1 POP POP POP POP POP JUMP JUMPDEST PUSH1 0x60 PUSH1 0x0 DUP3 SWAP1 POP DUP1 SWAP2 POP POP SWAP2 SWAP1 POP JUMP JUMPDEST DUP3 DUP1 SLOAD DUP3 DUP3 SSTORE SWAP1 PUSH1 0x0 MSTORE PUSH1 0x20 PUSH1 0x0 KECCAK256 SWAP1 DUP2 ADD SWAP3 DUP3 ISZERO PUSH2 0x13C JUMPI SWAP2 PUSH1 0x20 MUL DUP3 ADD JUMPDEST DUP3 DUP2 GT ISZERO PUSH2 0x13B JUMPI DUP3 MLOAD DUP3 SWAP1 DUP2 PUSH2 0x12B SWAP2 SWAP1 PUSH2 0x791 JUMP JUMPDEST POP SWAP2 PUSH1 0x20 ADD SWAP2 SWAP1 PUSH1 0x1 ADD SWAP1 PUSH2 0x114 JUMP JUMPDEST JUMPDEST POP SWAP1 POP PUSH2 0x149 SWAP2 SWAP1 PUSH2 0x14D JUMP JUMPDEST POP SWAP1 JUMP JUMPDEST JUMPDEST DUP1 DUP3 GT ISZERO PUSH2 0x16D JUMPI PUSH1 0x0 DUP2 DUP2 PUSH2 0x164 SWAP2 SWAP1 PUSH2 0x171 JUMP JUMPDEST POP PUSH1 0x1 ADD PUSH2 0x14E JUMP JUMPDEST POP SWAP1 JUMP JUMPDEST POP DUP1 SLOAD PUSH2 0x17D SWAP1 PUSH2 0x5AA JUMP JUMPDEST PUSH1 0x0 DUP3 SSTORE DUP1 PUSH1 0x1F LT PUSH2 0x18F JUMPI POP PUSH2 0x1AE JUMP JUMPDEST PUSH1 0x1F ADD PUSH1 0x20 SWAP1 DIV SWAP1 PUSH1 0x0 MSTORE PUSH1 0x20 PUSH1 0x0 KECCAK256 SWAP1 DUP2 ADD SWAP1 PUSH2 0x1AD SWAP2 SWAP1 PUSH2 0x1B1 JUMP JUMPDEST JUMPDEST POP JUMP JUMPDEST JUMPDEST DUP1 DUP3 GT ISZERO PUSH2 0x1CA JUMPI PUSH1 0x0 DUP2 PUSH1 0x0 SWAP1 SSTORE POP PUSH1 0x1 ADD PUSH2 0x1B2 JUMP JUMPDEST POP SWAP1 JUMP JUMPDEST PUSH1 0x0 PUSH1 0x40 MLOAD SWAP1 POP SWAP1 JUMP JUMPDEST PUSH1 0x0 DUP1 REVERT JUMPDEST PUSH1 0x0 DUP1 REVERT JUMPDEST PUSH1 0x0 DUP1 REVERT JUMPDEST PUSH1 0x0 PUSH1 0x1F NOT PUSH1 0x1F DUP4 ADD AND SWAP1 POP SWAP2 SWAP1 POP JUMP JUMPDEST PUSH32 0x4E487B7100000000000000000000000000000000000000000000000000000000 PUSH1 0x0 MSTORE PUSH1 0x41 PUSH1 0x4 MSTORE PUSH1 0x24 PUSH1 0x0 REVERT JUMPDEST PUSH2 0x230 DUP3 PUSH2 0x1E7 JUMP JUMPDEST DUP2 ADD DUP2 DUP2 LT PUSH8 0xFFFFFFFFFFFFFFFF DUP3 GT OR ISZERO PUSH2 0x24F JUMPI PUSH2 0x24E PUSH2 0x1F8 JUMP JUMPDEST JUMPDEST DUP1 PUSH1 0x40 MSTORE POP POP POP JUMP JUMPDEST PUSH1 0x0 PUSH2 0x262 PUSH2 0x1CE JUMP JUMPDEST SWAP1 POP PUSH2 0x26E DUP3 DUP3 PUSH2 0x227 JUMP JUMPDEST SWAP2 SWAP1 POP JUMP JUMPDEST PUSH1 0x0 PUSH8 0xFFFFFFFFFFFFFFFF DUP3 GT ISZERO PUSH2 0x28E JUMPI PUSH2 0x28D PUSH2 0x1F8 JUMP JUMPDEST JUMPDEST PUSH1 0x20 DUP3 MUL SWAP1 POP PUSH1 0x20 DUP2 ADD SWAP1 POP SWAP2 SWAP1 POP JUMP JUMPDEST PUSH1 0x0 DUP1 REVERT JUMPDEST PUSH1 0x0 DUP1 REVERT JUMPDEST PUSH1 0x0 PUSH8 0xFFFFFFFFFFFFFFFF DUP3 GT ISZERO PUSH2 0x2C4 JUMPI PUSH2 0x2C3 PUSH2 0x1F8 JUMP JUMPDEST JUMPDEST PUSH2 0x2CD DUP3 PUSH2 0x1E7 JUMP JUMPDEST SWAP1 POP PUSH1 0x20 DUP2 ADD SWAP1 POP SWAP2 SWAP1 POP JUMP JUMPDEST DUP3 DUP2 DUP4 CALLDATACOPY PUSH1 0x0 DUP4 DUP4 ADD MSTORE POP POP POP JUMP JUMPDEST PUSH1 0x0 PUSH2 0x2FC PUSH2 0x2F7 DUP5 PUSH2 0x2A9 JUMP JUMPDEST PUSH2 0x258 JUMP JUMPDEST SWAP1 POP DUP3 DUP2 MSTORE PUSH1 0x20 DUP2 ADD DUP5 DUP5 DUP5 ADD GT ISZERO PUSH2 0x318 JUMPI PUSH2 0x317 PUSH2 0x2A4 JUMP JUMPDEST JUMPDEST PUSH2 0x323 DUP5 DUP3 DUP6 PUSH2 0x2DA JUMP JUMPDEST POP SWAP4 SWAP3 POP POP POP JUMP JUMPDEST PUSH1 0x0 DUP3 PUSH1 0x1F DUP4 ADD SLT PUSH2 0x340 JUMPI PUSH2 0x33F PUSH2 0x1E2 JUMP JUMPDEST JUMPDEST DUP2 CALLDATALOAD PUSH2 0x350 DUP5 DUP3 PUSH1 0x20 DUP7 ADD PUSH2 0x2E9 JUMP JUMPDEST SWAP2 POP POP SWAP3 SWAP2 POP POP JUMP JUMPDEST PUSH1 0x0 PUSH2 0x36C PUSH2 0x367 DUP5 PUSH2 0x273 JUMP JUMPDEST PUSH2 0x258 JUMP JUMPDEST SWAP1 POP DUP1 DUP4 DUP3 MSTORE PUSH1 0x20 DUP3 ADD SWAP1 POP PUSH1 0x20 DUP5 MUL DUP4 ADD DUP6 DUP2 GT ISZERO PUSH2 0x38F JUMPI PUSH2 0x38E PUSH2 0x29F JUMP JUMPDEST JUMPDEST DUP4 JUMPDEST DUP2 DUP2 LT ISZERO PUSH2 0x3D6 JUMPI DUP1 CALLDATALOAD PUSH8 0xFFFFFFFFFFFFFFFF DUP2 GT ISZERO PUSH2 0x3B4 JUMPI PUSH2 0x3B3 PUSH2 0x1E2 JUMP JUMPDEST JUMPDEST DUP1 DUP7 ADD PUSH2 0x3C1 DUP10 DUP3 PUSH2 0x32B JUMP JUMPDEST DUP6 MSTORE PUSH1 0x20 DUP6 ADD SWAP5 POP POP POP PUSH1 0x20 DUP2 ADD SWAP1 POP PUSH2 0x391 JUMP JUMPDEST POP POP POP SWAP4 SWAP3 POP POP POP JUMP JUMPDEST PUSH1 0x0 DUP3 PUSH1 0x1F DUP4 ADD SLT PUSH2 0x3F5 JUMPI PUSH2 0x3F4 PUSH2 0x1E2 JUMP JUMPDEST JUMPDEST DUP2 CALLDATALOAD PUSH2 0x405 DUP5 DUP3 PUSH1 0x20 DUP7 ADD PUSH2 0x359 JUMP JUMPDEST SWAP2 POP POP SWAP3 SWAP2 POP POP JUMP JUMPDEST PUSH1 0x0 DUP1 PUSH1 0x40 DUP4 DUP6 SUB SLT ISZERO PUSH2 0x425 JUMPI PUSH2 0x424 PUSH2 0x1D8 JUMP JUMPDEST JUMPDEST PUSH1 0x0 DUP4 ADD CALLDATALOAD PUSH8 0xFFFFFFFFFFFFFFFF DUP2 GT ISZERO PUSH2 0x443 JUMPI PUSH2 0x442 PUSH2 0x1DD JUMP JUMPDEST JUMPDEST PUSH2 0x44F DUP6 DUP3 DUP7 ADD PUSH2 0x3E0 JUMP JUMPDEST SWAP3 POP POP PUSH1 0x20 DUP4 ADD CALLDATALOAD PUSH8 0xFFFFFFFFFFFFFFFF DUP2 GT ISZERO PUSH2 0x470 JUMPI PUSH2 0x46F PUSH2 0x1DD JUMP JUMPDEST JUMPDEST PUSH2 0x47C DUP6 DUP3 DUP7 ADD PUSH2 0x3E0 JUMP JUMPDEST SWAP2 POP POP SWAP3 POP SWAP3 SWAP1 POP JUMP JUMPDEST PUSH1 0x0 PUSH1 0x20 DUP3 DUP5 SUB SLT ISZERO PUSH2 0x49C JUMPI PUSH2 0x49B PUSH2 0x1D8 JUMP JUMPDEST JUMPDEST PUSH1 0x0 DUP3 ADD CALLDATALOAD PUSH8 0xFFFFFFFFFFFFFFFF DUP2 GT ISZERO PUSH2 0x4BA JUMPI PUSH2 0x4B9 PUSH2 0x1DD JUMP JUMPDEST JUMPDEST PUSH2 0x4C6 DUP5 DUP3 DUP6 ADD PUSH2 0x32B JUMP JUMPDEST SWAP2 POP POP SWAP3 SWAP2 POP POP JUMP JUMPDEST PUSH1 0x0 DUP2 MLOAD SWAP1 POP SWAP2 SWAP1 POP JUMP JUMPDEST PUSH1 0x0 DUP3 DUP3 MSTORE PUSH1 0x20 DUP3 ADD SWAP1 POP SWAP3 SWAP2 POP POP JUMP JUMPDEST PUSH1 0x0 JUMPDEST DUP4 DUP2 LT ISZERO PUSH2 0x509 JUMPI DUP1 DUP3 ADD MLOAD DUP2 DUP5 ADD MSTORE PUSH1 0x20 DUP2 ADD SWAP1 POP PUSH2 0x4EE JUMP JUMPDEST PUSH1 0x0 DUP5 DUP5 ADD MSTORE POP POP POP POP JUMP JUMPDEST PUSH1 0x0 PUSH2 0x520 DUP3 PUSH2 0x4CF JUMP JUMPDEST PUSH2 0x52A DUP2 DUP6 PUSH2 0x4DA JUMP JUMPDEST SWAP4 POP PUSH2 0x53A DUP2 DUP6 PUSH1 0x20 DUP7 ADD PUSH2 0x4EB JUMP JUMPDEST PUSH2 0x543 DUP2 PUSH2 0x1E7 JUMP JUMPDEST DUP5 ADD SWAP2 POP POP SWAP3 SWAP2 POP POP JUMP JUMPDEST PUSH1 0x0 PUSH1 0x20 DUP3 ADD SWAP1 POP DUP2 DUP2 SUB PUSH1 0x0 DUP4 ADD MSTORE PUSH2 0x568 DUP2 DUP5 PUSH2 0x515 JUMP JUMPDEST SWAP1 POP SWAP3 SWAP2 POP POP JUMP JUMPDEST PUSH1 0x0 DUP2 MLOAD SWAP1 POP SWAP2 SWAP1 POP JUMP JUMPDEST PUSH32 0x4E487B7100000000000000000000000000000000000000000000000000000000 PUSH1 0x0 MSTORE PUSH1 0x22 PUSH1 0x4 MSTORE PUSH1 0x24 PUSH1 0x0 REVERT JUMPDEST PUSH1 0x0 PUSH1 0x2 DUP3 DIV SWAP1 POP PUSH1 0x1 DUP3 AND DUP1 PUSH2 0x5C2 JUMPI PUSH1 0x7F DUP3 AND SWAP2 POP JUMPDEST PUSH1 0x20 DUP3 LT DUP2 SUB PUSH2 0x5D5 JUMPI PUSH2 0x5D4 PUSH2 0x57B JUMP JUMPDEST JUMPDEST POP SWAP2 SWAP1 POP JUMP JUMPDEST PUSH1 0x0 DUP2 SWAP1 POP DUP2 PUSH1 0x0 MSTORE PUSH1 0x20 PUSH1 0x0 KECCAK256 SWAP1 POP SWAP2 SWAP1 POP JUMP JUMPDEST PUSH1 0x0 PUSH1 0x20 PUSH1 0x1F DUP4 ADD DIV SWAP1 POP SWAP2 SWAP1 POP JUMP JUMPDEST PUSH1 0x0 DUP3 DUP3 SHL SWAP1 POP SWAP3 SWAP2 POP POP JUMP JUMPDEST PUSH1 0x0 PUSH1 0x8 DUP4 MUL PUSH2 0x63D PUSH32 0xFFFFFFFFFFFFFFFFFFFFFFFFFFFFFFFFFFFFFFFFFFFFFFFFFFFFFFFFFFFFFFFF DUP3 PUSH2 0x600 JUMP JUMPDEST PUSH2 0x647 DUP7 DUP4 PUSH2 0x600 JUMP JUMPDEST SWAP6 POP DUP1 NOT DUP5 AND SWAP4 POP DUP1 DUP7 AND DUP5 OR SWAP3 POP POP POP SWAP4 SWAP3 POP POP POP JUMP JUMPDEST PUSH1 0x0 DUP2 SWAP1 POP SWAP2 SWAP1 POP JUMP JUMPDEST PUSH1 0x0 DUP2 SWAP1 POP SWAP2 SWAP1 POP JUMP JUMPDEST PUSH1 0x0 PUSH2 0x68E PUSH2 0x689 PUSH2 0x684 DUP5 PUSH2 0x65F JUMP JUMPDEST PUSH2 0x669 JUMP JUMPDEST PUSH2 0x65F JUMP JUMPDEST SWAP1 POP SWAP2 SWAP1 POP JUMP JUMPDEST PUSH1 0x0 DUP2 SWAP1 POP SWAP2 SWAP1 POP JUMP JUMPDEST PUSH2 0x6A8 DUP4 PUSH2 0x673 JUMP JUMPDEST PUSH2 0x6BC PUSH2 0x6B4 DUP3 PUSH2 0x695 JUMP JUMPDEST DUP5 DUP5 SLOAD PUSH2 0x60D JUMP JUMPDEST DUP3 SSTORE POP POP POP POP JUMP JUMPDEST PUSH1 0x0 SWAP1 JUMP JUMPDEST PUSH2 0x6D1 PUSH2 0x6C4 JUMP JUMPDEST PUSH2 0x6DC DUP2 DUP5 DUP5 PUSH2 0x69F JUMP JUMPDEST POP POP POP JUMP JUMPDEST JUMPDEST DUP2 DUP2 LT ISZERO PUSH2 0x700 JUMPI PUSH2 0x6F5 PUSH1 0x0 DUP3 PUSH2 0x6C9 JUMP JUMPDEST PUSH1 0x1 DUP2 ADD SWAP1 POP PUSH2 0x6E2 JUMP JUMPDEST POP POP JUMP JUMPDEST PUSH1 0x1F DUP3 GT ISZERO PUSH2 0x745 JUMPI PUSH2 0x716 DUP2 PUSH2 0x5DB JUMP JUMPDEST PUSH2 0x71F DUP5 PUSH2 0x5F0 JUMP JUMPDEST DUP2 ADD PUSH1 0x20 DUP6 LT ISZERO PUSH2 0x72E JUMPI DUP2 SWAP1 POP JUMPDEST PUSH2 0x742 PUSH2 0x73A DUP6 PUSH2 0x5F0 JUMP JUMPDEST DUP4 ADD DUP3 PUSH2 0x6E1 JUMP JUMPDEST POP POP JUMPDEST POP POP POP JUMP JUMPDEST PUSH1 0x0 DUP3 DUP3 SHR SWAP1 POP SWAP3 SWAP2 POP POP JUMP JUMPDEST PUSH1 0x0 PUSH2 0x768 PUSH1 0x0 NOT DUP5 PUSH1 0x8 MUL PUSH2 0x74A JUMP JUMPDEST NOT DUP1 DUP4 AND SWAP2 POP POP SWAP3 SWAP2 POP POP JUMP JUMPDEST PUSH1 0x0 PUSH2 0x781 DUP4 DUP4 PUSH2 0x757 JUMP JUMPDEST SWAP2 POP DUP3 PUSH1 0x2 MUL DUP3 OR SWAP1 POP SWAP3 SWAP2 POP POP JUMP JUMPDEST PUSH2 0x79A DUP3 PUSH2 0x570 JUMP JUMPDEST PUSH8 0xFFFFFFFFFFFFFFFF DUP2 GT ISZERO PUSH2 0x7B3 JUMPI PUSH2 0x7B2 PUSH2 0x1F8 JUMP JUMPDEST JUMPDEST PUSH2 0x7BD DUP3 SLOAD PUSH2 0x5AA JUMP JUMPDEST PUSH2 0x7C8 DUP3 DUP3 DUP6 PUSH2 0x704 JUMP JUMPDEST PUSH1 0x0 PUSH1 0x20 SWAP1 POP PUSH1 0x1F DUP4 GT PUSH1 0x1 DUP2 EQ PUSH2 0x7FB JUMPI PUSH1 0x0 DUP5 ISZERO PUSH2 0x7E9 JUMPI DUP3 DUP8 ADD MLOAD SWAP1 POP JUMPDEST PUSH2 0x7F3 DUP6 DUP3 PUSH2 0x775 JUMP JUMPDEST DUP7 SSTORE POP PUSH2 0x85B JUMP JUMPDEST PUSH1 0x1F NOT DUP5 AND PUSH2 0x809 DUP7 PUSH2 0x5DB JUMP JUMPDEST PUSH1 0x0 JUMPDEST DUP3 DUP2 LT ISZERO PUSH2 0x831 JUMPI DUP5 DUP10 ADD MLOAD DUP3 SSTORE PUSH1 0x1 DUP3 ADD SWAP2 POP PUSH1 0x20 DUP6 ADD SWAP5 POP PUSH1 0x20 DUP2 ADD SWAP1 POP PUSH2 0x80C JUMP JUMPDEST DUP7 DUP4 LT ISZERO PUSH2 0x84E JUMPI DUP5 DUP10 ADD MLOAD PUSH2 0x84A PUSH1 0x1F DUP10 AND DUP3 PUSH2 0x757 JUMP JUMPDEST DUP4 SSTORE POP JUMPDEST PUSH1 0x1 PUSH1 0x2 DUP9 MUL ADD DUP9 SSTORE POP POP POP JUMPDEST POP POP POP POP POP POP JUMP INVALID LOG2 PUSH5 0x6970667358 0x22 SLT KECCAK256 0xC8 MLOAD TIMESTAMP DUP8 PUSH5 0xEA75AC88F2 AND DUP7 DUP14 0xE7 XOR ADDRESS CALLDATALOAD 0xD8 SHR SWAP9 0xBB MLOAD ORIGIN SWAP7 0xC 0xD 0xB6 GASPRICE GASLIMIT SWAP8 GAS STATICCALL PUSH5 0x736F6C6343 STOP ADDMOD SGT STOP CALLER "
				},
				"gasEstimates": {
					"creation": {
						"codeDepositCost": "440200",
						"executionCost": "474",
						"totalCost": "440674"
					},
					"external": {
						"add(string[],string[])": "infinite",
						"stringToBytes(string)": "infinite"
					}
				},
				"methodIdentifiers": {
					"add(string[],string[])": "cb79b532",
					"stringToBytes(string)": "e106fb4b"
				}
			},
			"storageLayout": {
				"storage": [
					{
						"astId": 11,
						"contract": "contracts/testing.sol:test",
						"label": "u",
						"offset": 0,
						"slot": "0",
						"type": "t_struct(userDetails)8_storage"
					}
				],
				"types": {
					"t_array(t_string_storage)dyn_storage": {
						"base": "t_string_storage",
						"encoding": "dynamic_array",
						"label": "string[]",
						"numberOfBytes": "32"
					},
					"t_string_storage": {
						"encoding": "bytes",
						"label": "string",
						"numberOfBytes": "32"
					},
					"t_struct(userDetails)8_storage": {
						"encoding": "inplace",
						"label": "struct test.userDetails",
						"members": [
							{
								"astId": 4,
								"contract": "contracts/testing.sol:test",
								"label": "names",
								"offset": 0,
								"slot": "0",
								"type": "t_array(t_string_storage)dyn_storage"
							},
							{
								"astId": 7,
								"contract": "contracts/testing.sol:test",
								"label": "surnames",
								"offset": 0,
								"slot": "1",
								"type": "t_array(t_string_storage)dyn_storage"
							}
						],
						"numberOfBytes": "64"
					}
				}
			},
			"userdoc": {
				"kind": "user",
				"methods": {},
				"version": 1
			}
		}
	}
}