{
	"contracts/supplierManufacturer.sol": {
		"supplierManufacturer": {
			"abi": [
				{
					"inputs": [
						{
							"internalType": "bytes",
							"name": "_sp_id",
							"type": "bytes"
						},
						{
							"internalType": "address",
							"name": "_supplierAddress",
							"type": "address"
						},
						{
							"internalType": "address",
							"name": "_manufacturerAddress",
							"type": "address"
						},
						{
							"internalType": "bytes",
							"name": "_dispatchTime",
							"type": "bytes"
						},
						{
							"internalType": "bytes",
							"name": "_arrivalTime",
							"type": "bytes"
						}
					],
					"name": "addData",
					"outputs": [],
					"stateMutability": "nonpayable",
					"type": "function"
				},
				{
					"inputs": [
						{
							"internalType": "uint256",
							"name": "_smid",
							"type": "uint256"
						}
					],
					"name": "getData",
					"outputs": [
						{
							"components": [
								{
									"internalType": "bytes",
									"name": "sp_id",
									"type": "bytes"
								},
								{
									"internalType": "address",
									"name": "supplierAddress",
									"type": "address"
								},
								{
									"internalType": "address",
									"name": "manufacturerAddress",
									"type": "address"
								},
								{
									"internalType": "bytes",
									"name": "dispatchTime",
									"type": "bytes"
								},
								{
									"internalType": "bytes",
									"name": "arrivalTime",
									"type": "bytes"
								}
							],
							"internalType": "struct ISupplierManufacturer.supplierManufacturer",
							"name": "",
							"type": "tuple"
						}
					],
					"stateMutability": "view",
					"type": "function"
				},
				{
					"inputs": [
						{
							"internalType": "uint256",
							"name": "",
							"type": "uint256"
						}
					],
					"name": "smidToStructMapping",
					"outputs": [
						{
							"internalType": "bytes",
							"name": "sp_id",
							"type": "bytes"
						},
						{
							"internalType": "address",
							"name": "supplierAddress",
							"type": "address"
						},
						{
							"internalType": "address",
							"name": "manufacturerAddress",
							"type": "address"
						},
						{
							"internalType": "bytes",
							"name": "dispatchTime",
							"type": "bytes"
						},
						{
							"internalType": "bytes",
							"name": "arrivalTime",
							"type": "bytes"
						}
					],
					"stateMutability": "view",
					"type": "function"
				},
				{
					"inputs": [],
					"name": "transferCounter",
					"outputs": [
						{
							"internalType": "uint256",
							"name": "",
							"type": "uint256"
						}
					],
					"stateMutability": "view",
					"type": "function"
				}
			],
			"devdoc": {
				"kind": "dev",
				"methods": {},
				"version": 1
			},
			"evm": {
				"assembly": "    /* \"contracts/supplierManufacturer.sol\":122:958  contract supplierManufacturer is ISupplierManufacturer{... */\n  mstore(0x40, 0x80)\n    /* \"contracts/supplierManufacturer.sol\":213:214  1 */\n  0x01\n    /* \"contracts/supplierManufacturer.sol\":183:214  uint public transferCounter = 1 */\n  0x00\n  sstore\n    /* \"contracts/supplierManufacturer.sol\":122:958  contract supplierManufacturer is ISupplierManufacturer{... */\n  callvalue\n  dup1\n  iszero\n  tag_1\n  jumpi\n  0x00\n  dup1\n  revert\ntag_1:\n  pop\n  dataSize(sub_0)\n  dup1\n  dataOffset(sub_0)\n  0x00\n  codecopy\n  0x00\n  return\nstop\n\nsub_0: assembly {\n        /* \"contracts/supplierManufacturer.sol\":122:958  contract supplierManufacturer is ISupplierManufacturer{... */\n      mstore(0x40, 0x80)\n      callvalue\n      dup1\n      iszero\n      tag_1\n      jumpi\n      0x00\n      dup1\n      revert\n    tag_1:\n      pop\n      jumpi(tag_2, lt(calldatasize, 0x04))\n      shr(0xe0, calldataload(0x00))\n      dup1\n      0x0178fe3f\n      eq\n      tag_3\n      jumpi\n      dup1\n      0x21c4e07f\n      eq\n      tag_4\n      jumpi\n      dup1\n      0x3cf8ddf2\n      eq\n      tag_5\n      jumpi\n      dup1\n      0xd2bf193d\n      eq\n      tag_6\n      jumpi\n    tag_2:\n      0x00\n      dup1\n      revert\n        /* \"contracts/supplierManufacturer.sol\":826:955  function getData(uint _smid) public view returns(supplierManufacturer memory){... */\n    tag_3:\n      tag_7\n      0x04\n      dup1\n      calldatasize\n      sub\n      dup2\n      add\n      swap1\n      tag_8\n      swap2\n      swap1\n      tag_9\n      jump\t// in\n    tag_8:\n      tag_10\n      jump\t// in\n    tag_7:\n      mload(0x40)\n      tag_11\n      swap2\n      swap1\n      tag_12\n      jump\t// in\n    tag_11:\n      mload(0x40)\n      dup1\n      swap2\n      sub\n      swap1\n      return\n        /* \"contracts/supplierManufacturer.sol\":478:819  function addData(bytes memory _sp_id, address _supplierAddress,address _manufacturerAddress,bytes memory _dispatchTime,bytes memory _arrivalTime)external override{... */\n    tag_4:\n      tag_13\n      0x04\n      dup1\n      calldatasize\n      sub\n      dup2\n      add\n      swap1\n      tag_14\n      swap2\n      swap1\n      tag_15\n      jump\t// in\n    tag_14:\n      tag_16\n      jump\t// in\n    tag_13:\n      stop\n        /* \"contracts/supplierManufacturer.sol\":183:214  uint public transferCounter = 1 */\n    tag_5:\n      tag_17\n      tag_18\n      jump\t// in\n    tag_17:\n      mload(0x40)\n      tag_19\n      swap2\n      swap1\n      tag_20\n      jump\t// in\n    tag_19:\n      mload(0x40)\n      dup1\n      swap2\n      sub\n      swap1\n      return\n        /* \"contracts/supplierManufacturer.sol\":407:471  mapping(uint => supplierManufacturer) public smidToStructMapping */\n    tag_6:\n      tag_21\n      0x04\n      dup1\n      calldatasize\n      sub\n      dup2\n      add\n      swap1\n      tag_22\n      swap2\n      swap1\n      tag_9\n      jump\t// in\n    tag_22:\n      tag_23\n      jump\t// in\n    tag_21:\n      mload(0x40)\n      tag_24\n      swap6\n      swap5\n      swap4\n      swap3\n      swap2\n      swap1\n      tag_25\n      jump\t// in\n    tag_24:\n      mload(0x40)\n      dup1\n      swap2\n      sub\n      swap1\n      return\n        /* \"contracts/supplierManufacturer.sol\":826:955  function getData(uint _smid) public view returns(supplierManufacturer memory){... */\n    tag_10:\n        /* \"contracts/supplierManufacturer.sol\":875:902  supplierManufacturer memory */\n      tag_26\n      tag_27\n      jump\t// in\n    tag_26:\n        /* \"contracts/supplierManufacturer.sol\":921:940  smidToStructMapping */\n      0x02\n        /* \"contracts/supplierManufacturer.sol\":921:947  smidToStructMapping[_smid] */\n      0x00\n        /* \"contracts/supplierManufacturer.sol\":941:946  _smid */\n      dup4\n        /* \"contracts/supplierManufacturer.sol\":921:947  smidToStructMapping[_smid] */\n      dup2\n      mstore\n      0x20\n      add\n      swap1\n      dup2\n      mstore\n      0x20\n      add\n      0x00\n      keccak256\n        /* \"contracts/supplierManufacturer.sol\":914:947  return smidToStructMapping[_smid] */\n      mload(0x40)\n      dup1\n      0xa0\n      add\n      0x40\n      mstore\n      swap1\n      dup2\n      0x00\n      dup3\n      add\n      dup1\n      sload\n      tag_29\n      swap1\n      tag_30\n      jump\t// in\n    tag_29:\n      dup1\n      0x1f\n      add\n      0x20\n      dup1\n      swap2\n      div\n      mul\n      0x20\n      add\n      mload(0x40)\n      swap1\n      dup2\n      add\n      0x40\n      mstore\n      dup1\n      swap3\n      swap2\n      swap1\n      dup2\n      dup2\n      mstore\n      0x20\n      add\n      dup3\n      dup1\n      sload\n      tag_31\n      swap1\n      tag_30\n      jump\t// in\n    tag_31:\n      dup1\n      iszero\n      tag_32\n      jumpi\n      dup1\n      0x1f\n      lt\n      tag_33\n      jumpi\n      0x0100\n      dup1\n      dup4\n      sload\n      div\n      mul\n      dup4\n      mstore\n      swap2\n      0x20\n      add\n      swap2\n      jump(tag_32)\n    tag_33:\n      dup3\n      add\n      swap2\n      swap1\n      0x00\n      mstore\n      keccak256(0x00, 0x20)\n      swap1\n    tag_34:\n      dup2\n      sload\n      dup2\n      mstore\n      swap1\n      0x01\n      add\n      swap1\n      0x20\n      add\n      dup1\n      dup4\n      gt\n      tag_34\n      jumpi\n      dup3\n      swap1\n      sub\n      0x1f\n      and\n      dup3\n      add\n      swap2\n    tag_32:\n      pop\n      pop\n      pop\n      pop\n      pop\n      dup2\n      mstore\n      0x20\n      add\n      0x01\n      dup3\n      add\n      0x00\n      swap1\n      sload\n      swap1\n      0x0100\n      exp\n      swap1\n      div\n      0xffffffffffffffffffffffffffffffffffffffff\n      and\n      0xffffffffffffffffffffffffffffffffffffffff\n      and\n      0xffffffffffffffffffffffffffffffffffffffff\n      and\n      dup2\n      mstore\n      0x20\n      add\n      0x02\n      dup3\n      add\n      0x00\n      swap1\n      sload\n      swap1\n      0x0100\n      exp\n      swap1\n      div\n      0xffffffffffffffffffffffffffffffffffffffff\n      and\n      0xffffffffffffffffffffffffffffffffffffffff\n      and\n      0xffffffffffffffffffffffffffffffffffffffff\n      and\n      dup2\n      mstore\n      0x20\n      add\n      0x03\n      dup3\n      add\n      dup1\n      sload\n      tag_35\n      swap1\n      tag_30\n      jump\t// in\n    tag_35:\n      dup1\n      0x1f\n      add\n      0x20\n      dup1\n      swap2\n      div\n      mul\n      0x20\n      add\n      mload(0x40)\n      swap1\n      dup2\n      add\n      0x40\n      mstore\n      dup1\n      swap3\n      swap2\n      swap1\n      dup2\n      dup2\n      mstore\n      0x20\n      add\n      dup3\n      dup1\n      sload\n      tag_36\n      swap1\n      tag_30\n      jump\t// in\n    tag_36:\n      dup1\n      iszero\n      tag_37\n      jumpi\n      dup1\n      0x1f\n      lt\n      tag_38\n      jumpi\n      0x0100\n      dup1\n      dup4\n      sload\n      div\n      mul\n      dup4\n      mstore\n      swap2\n      0x20\n      add\n      swap2\n      jump(tag_37)\n    tag_38:\n      dup3\n      add\n      swap2\n      swap1\n      0x00\n      mstore\n      keccak256(0x00, 0x20)\n      swap1\n    tag_39:\n      dup2\n      sload\n      dup2\n      mstore\n      swap1\n      0x01\n      add\n      swap1\n      0x20\n      add\n      dup1\n      dup4\n      gt\n      tag_39\n      jumpi\n      dup3\n      swap1\n      sub\n      0x1f\n      and\n      dup3\n      add\n      swap2\n    tag_37:\n      pop\n      pop\n      pop\n      pop\n      pop\n      dup2\n      mstore\n      0x20\n      add\n      0x04\n      dup3\n      add\n      dup1\n      sload\n      tag_40\n      swap1\n      tag_30\n      jump\t// in\n    tag_40:\n      dup1\n      0x1f\n      add\n      0x20\n      dup1\n      swap2\n      div\n      mul\n      0x20\n      add\n      mload(0x40)\n      swap1\n      dup2\n      add\n      0x40\n      mstore\n      dup1\n      swap3\n      swap2\n      swap1\n      dup2\n      dup2\n      mstore\n      0x20\n      add\n      dup3\n      dup1\n      sload\n      tag_41\n      swap1\n      tag_30\n      jump\t// in\n    tag_41:\n      dup1\n      iszero\n      tag_42\n      jumpi\n      dup1\n      0x1f\n      lt\n      tag_43\n      jumpi\n      0x0100\n      dup1\n      dup4\n      sload\n      div\n      mul\n      dup4\n      mstore\n      swap2\n      0x20\n      add\n      swap2\n      jump(tag_42)\n    tag_43:\n      dup3\n      add\n      swap2\n      swap1\n      0x00\n      mstore\n      keccak256(0x00, 0x20)\n      swap1\n    tag_44:\n      dup2\n      sload\n      dup2\n      mstore\n      swap1\n      0x01\n      add\n      swap1\n      0x20\n      add\n      dup1\n      dup4\n      gt\n      tag_44\n      jumpi\n      dup3\n      swap1\n      sub\n      0x1f\n      and\n      dup3\n      add\n      swap2\n    tag_42:\n      pop\n      pop\n      pop\n      pop\n      pop\n      dup2\n      mstore\n      pop\n      pop\n      swap1\n      pop\n        /* \"contracts/supplierManufacturer.sol\":826:955  function getData(uint _smid) public view returns(supplierManufacturer memory){... */\n      swap2\n      swap1\n      pop\n      jump\t// out\n        /* \"contracts/supplierManufacturer.sol\":478:819  function addData(bytes memory _sp_id, address _supplierAddress,address _manufacturerAddress,bytes memory _dispatchTime,bytes memory _arrivalTime)external override{... */\n    tag_16:\n        /* \"contracts/supplierManufacturer.sol\":690:783  supplierManufacturer(_sp_id,_supplierAddress,_manufacturerAddress,_dispatchTime,_arrivalTime) */\n      mload(0x40)\n      dup1\n      0xa0\n      add\n      0x40\n      mstore\n      dup1\n        /* \"contracts/supplierManufacturer.sol\":711:717  _sp_id */\n      dup7\n        /* \"contracts/supplierManufacturer.sol\":690:783  supplierManufacturer(_sp_id,_supplierAddress,_manufacturerAddress,_dispatchTime,_arrivalTime) */\n      dup2\n      mstore\n      0x20\n      add\n        /* \"contracts/supplierManufacturer.sol\":718:734  _supplierAddress */\n      dup6\n        /* \"contracts/supplierManufacturer.sol\":690:783  supplierManufacturer(_sp_id,_supplierAddress,_manufacturerAddress,_dispatchTime,_arrivalTime) */\n      0xffffffffffffffffffffffffffffffffffffffff\n      and\n      dup2\n      mstore\n      0x20\n      add\n        /* \"contracts/supplierManufacturer.sol\":735:755  _manufacturerAddress */\n      dup5\n        /* \"contracts/supplierManufacturer.sol\":690:783  supplierManufacturer(_sp_id,_supplierAddress,_manufacturerAddress,_dispatchTime,_arrivalTime) */\n      0xffffffffffffffffffffffffffffffffffffffff\n      and\n      dup2\n      mstore\n      0x20\n      add\n        /* \"contracts/supplierManufacturer.sol\":756:769  _dispatchTime */\n      dup4\n        /* \"contracts/supplierManufacturer.sol\":690:783  supplierManufacturer(_sp_id,_supplierAddress,_manufacturerAddress,_dispatchTime,_arrivalTime) */\n      dup2\n      mstore\n      0x20\n      add\n        /* \"contracts/supplierManufacturer.sol\":770:782  _arrivalTime */\n      dup3\n        /* \"contracts/supplierManufacturer.sol\":690:783  supplierManufacturer(_sp_id,_supplierAddress,_manufacturerAddress,_dispatchTime,_arrivalTime) */\n      dup2\n      mstore\n      pop\n        /* \"contracts/supplierManufacturer.sol\":651:670  smidToStructMapping */\n      0x02\n        /* \"contracts/supplierManufacturer.sol\":651:687  smidToStructMapping[transferCounter] */\n      0x00\n        /* \"contracts/supplierManufacturer.sol\":671:686  transferCounter */\n      dup1\n      sload\n        /* \"contracts/supplierManufacturer.sol\":651:687  smidToStructMapping[transferCounter] */\n      dup2\n      mstore\n      0x20\n      add\n      swap1\n      dup2\n      mstore\n      0x20\n      add\n      0x00\n      keccak256\n        /* \"contracts/supplierManufacturer.sol\":651:783  smidToStructMapping[transferCounter] = supplierManufacturer(_sp_id,_supplierAddress,_manufacturerAddress,_dispatchTime,_arrivalTime) */\n      0x00\n      dup3\n      add\n      mload\n      dup2\n      0x00\n      add\n      swap1\n      dup2\n      tag_46\n      swap2\n      swap1\n      tag_47\n      jump\t// in\n    tag_46:\n      pop\n      0x20\n      dup3\n      add\n      mload\n      dup2\n      0x01\n      add\n      exp(0x0100, 0x00)\n      dup2\n      sload\n      dup2\n      0xffffffffffffffffffffffffffffffffffffffff\n      mul\n      not\n      and\n      swap1\n      dup4\n      0xffffffffffffffffffffffffffffffffffffffff\n      and\n      mul\n      or\n      swap1\n      sstore\n      pop\n      0x40\n      dup3\n      add\n      mload\n      dup2\n      0x02\n      add\n      exp(0x0100, 0x00)\n      dup2\n      sload\n      dup2\n      0xffffffffffffffffffffffffffffffffffffffff\n      mul\n      not\n      and\n      swap1\n      dup4\n      0xffffffffffffffffffffffffffffffffffffffff\n      and\n      mul\n      or\n      swap1\n      sstore\n      pop\n      0x60\n      dup3\n      add\n      mload\n      dup2\n      0x03\n      add\n      swap1\n      dup2\n      tag_48\n      swap2\n      swap1\n      tag_47\n      jump\t// in\n    tag_48:\n      pop\n      0x80\n      dup3\n      add\n      mload\n      dup2\n      0x04\n      add\n      swap1\n      dup2\n      tag_49\n      swap2\n      swap1\n      tag_47\n      jump\t// in\n    tag_49:\n      pop\n      swap1\n      pop\n      pop\n        /* \"contracts/supplierManufacturer.sol\":794:809  transferCounter */\n      0x00\n      dup1\n        /* \"contracts/supplierManufacturer.sol\":794:811  transferCounter++ */\n      dup2\n      sload\n      dup1\n      swap3\n      swap2\n      swap1\n      tag_50\n      swap1\n      tag_51\n      jump\t// in\n    tag_50:\n      swap2\n      swap1\n      pop\n      sstore\n      pop\n        /* \"contracts/supplierManufacturer.sol\":478:819  function addData(bytes memory _sp_id, address _supplierAddress,address _manufacturerAddress,bytes memory _dispatchTime,bytes memory _arrivalTime)external override{... */\n      pop\n      pop\n      pop\n      pop\n      pop\n      jump\t// out\n        /* \"contracts/supplierManufacturer.sol\":183:214  uint public transferCounter = 1 */\n    tag_18:\n      sload(0x00)\n      dup2\n      jump\t// out\n        /* \"contracts/supplierManufacturer.sol\":407:471  mapping(uint => supplierManufacturer) public smidToStructMapping */\n    tag_23:\n      mstore(0x20, 0x02)\n      dup1\n      0x00\n      mstore\n      keccak256(0x00, 0x40)\n      0x00\n      swap2\n      pop\n      swap1\n      pop\n      dup1\n      0x00\n      add\n      dup1\n      sload\n      tag_52\n      swap1\n      tag_30\n      jump\t// in\n    tag_52:\n      dup1\n      0x1f\n      add\n      0x20\n      dup1\n      swap2\n      div\n      mul\n      0x20\n      add\n      mload(0x40)\n      swap1\n      dup2\n      add\n      0x40\n      mstore\n      dup1\n      swap3\n      swap2\n      swap1\n      dup2\n      dup2\n      mstore\n      0x20\n      add\n      dup3\n      dup1\n      sload\n      tag_53\n      swap1\n      tag_30\n      jump\t// in\n    tag_53:\n      dup1\n      iszero\n      tag_54\n      jumpi\n      dup1\n      0x1f\n      lt\n      tag_55\n      jumpi\n      0x0100\n      dup1\n      dup4\n      sload\n      div\n      mul\n      dup4\n      mstore\n      swap2\n      0x20\n      add\n      swap2\n      jump(tag_54)\n    tag_55:\n      dup3\n      add\n      swap2\n      swap1\n      0x00\n      mstore\n      keccak256(0x00, 0x20)\n      swap1\n    tag_56:\n      dup2\n      sload\n      dup2\n      mstore\n      swap1\n      0x01\n      add\n      swap1\n      0x20\n      add\n      dup1\n      dup4\n      gt\n      tag_56\n      jumpi\n      dup3\n      swap1\n      sub\n      0x1f\n      and\n      dup3\n      add\n      swap2\n    tag_54:\n      pop\n      pop\n      pop\n      pop\n      pop\n      swap1\n      dup1\n      0x01\n      add\n      0x00\n      swap1\n      sload\n      swap1\n      0x0100\n      exp\n      swap1\n      div\n      0xffffffffffffffffffffffffffffffffffffffff\n      and\n      swap1\n      dup1\n      0x02\n      add\n      0x00\n      swap1\n      sload\n      swap1\n      0x0100\n      exp\n      swap1\n      div\n      0xffffffffffffffffffffffffffffffffffffffff\n      and\n      swap1\n      dup1\n      0x03\n      add\n      dup1\n      sload\n      tag_57\n      swap1\n      tag_30\n      jump\t// in\n    tag_57:\n      dup1\n      0x1f\n      add\n      0x20\n      dup1\n      swap2\n      div\n      mul\n      0x20\n      add\n      mload(0x40)\n      swap1\n      dup2\n      add\n      0x40\n      mstore\n      dup1\n      swap3\n      swap2\n      swap1\n      dup2\n      dup2\n      mstore\n      0x20\n      add\n      dup3\n      dup1\n      sload\n      tag_58\n      swap1\n      tag_30\n      jump\t// in\n    tag_58:\n      dup1\n      iszero\n      tag_59\n      jumpi\n      dup1\n      0x1f\n      lt\n      tag_60\n      jumpi\n      0x0100\n      dup1\n      dup4\n      sload\n      div\n      mul\n      dup4\n      mstore\n      swap2\n      0x20\n      add\n      swap2\n      jump(tag_59)\n    tag_60:\n      dup3\n      add\n      swap2\n      swap1\n      0x00\n      mstore\n      keccak256(0x00, 0x20)\n      swap1\n    tag_61:\n      dup2\n      sload\n      dup2\n      mstore\n      swap1\n      0x01\n      add\n      swap1\n      0x20\n      add\n      dup1\n      dup4\n      gt\n      tag_61\n      jumpi\n      dup3\n      swap1\n      sub\n      0x1f\n      and\n      dup3\n      add\n      swap2\n    tag_59:\n      pop\n      pop\n      pop\n      pop\n      pop\n      swap1\n      dup1\n      0x04\n      add\n      dup1\n      sload\n      tag_62\n      swap1\n      tag_30\n      jump\t// in\n    tag_62:\n      dup1\n      0x1f\n      add\n      0x20\n      dup1\n      swap2\n      div\n      mul\n      0x20\n      add\n      mload(0x40)\n      swap1\n      dup2\n      add\n      0x40\n      mstore\n      dup1\n      swap3\n      swap2\n      swap1\n      dup2\n      dup2\n      mstore\n      0x20\n      add\n      dup3\n      dup1\n      sload\n      tag_63\n      swap1\n      tag_30\n      jump\t// in\n    tag_63:\n      dup1\n      iszero\n      tag_64\n      jumpi\n      dup1\n      0x1f\n      lt\n      tag_65\n      jumpi\n      0x0100\n      dup1\n      dup4\n      sload\n      div\n      mul\n      dup4\n      mstore\n      swap2\n      0x20\n      add\n      swap2\n      jump(tag_64)\n    tag_65:\n      dup3\n      add\n      swap2\n      swap1\n      0x00\n      mstore\n      keccak256(0x00, 0x20)\n      swap1\n    tag_66:\n      dup2\n      sload\n      dup2\n      mstore\n      swap1\n      0x01\n      add\n      swap1\n      0x20\n      add\n      dup1\n      dup4\n      gt\n      tag_66\n      jumpi\n      dup3\n      swap1\n      sub\n      0x1f\n      and\n      dup3\n      add\n      swap2\n    tag_64:\n      pop\n      pop\n      pop\n      pop\n      pop\n      swap1\n      pop\n      dup6\n      jump\t// out\n    tag_27:\n      mload(0x40)\n      dup1\n      0xa0\n      add\n      0x40\n      mstore\n      dup1\n      0x60\n      dup2\n      mstore\n      0x20\n      add\n      and(0xffffffffffffffffffffffffffffffffffffffff, 0x00)\n      dup2\n      mstore\n      0x20\n      add\n      and(0xffffffffffffffffffffffffffffffffffffffff, 0x00)\n      dup2\n      mstore\n      0x20\n      add\n      0x60\n      dup2\n      mstore\n      0x20\n      add\n      0x60\n      dup2\n      mstore\n      pop\n      swap1\n      jump\t// out\n        /* \"#utility.yul\":7:82   */\n    tag_67:\n        /* \"#utility.yul\":40:46   */\n      0x00\n        /* \"#utility.yul\":73:75   */\n      0x40\n        /* \"#utility.yul\":67:76   */\n      mload\n        /* \"#utility.yul\":57:76   */\n      swap1\n      pop\n        /* \"#utility.yul\":7:82   */\n      swap1\n      jump\t// out\n        /* \"#utility.yul\":88:205   */\n    tag_68:\n        /* \"#utility.yul\":197:198   */\n      0x00\n        /* \"#utility.yul\":194:195   */\n      dup1\n        /* \"#utility.yul\":187:199   */\n      revert\n        /* \"#utility.yul\":211:328   */\n    tag_69:\n        /* \"#utility.yul\":320:321   */\n      0x00\n        /* \"#utility.yul\":317:318   */\n      dup1\n        /* \"#utility.yul\":310:322   */\n      revert\n        /* \"#utility.yul\":334:411   */\n    tag_70:\n        /* \"#utility.yul\":371:378   */\n      0x00\n        /* \"#utility.yul\":400:405   */\n      dup2\n        /* \"#utility.yul\":389:405   */\n      swap1\n      pop\n        /* \"#utility.yul\":334:411   */\n      swap2\n      swap1\n      pop\n      jump\t// out\n        /* \"#utility.yul\":417:539   */\n    tag_71:\n        /* \"#utility.yul\":490:514   */\n      tag_120\n        /* \"#utility.yul\":508:513   */\n      dup2\n        /* \"#utility.yul\":490:514   */\n      tag_70\n      jump\t// in\n    tag_120:\n        /* \"#utility.yul\":483:488   */\n      dup2\n        /* \"#utility.yul\":480:515   */\n      eq\n        /* \"#utility.yul\":470:533   */\n      tag_121\n      jumpi\n        /* \"#utility.yul\":529:530   */\n      0x00\n        /* \"#utility.yul\":526:527   */\n      dup1\n        /* \"#utility.yul\":519:531   */\n      revert\n        /* \"#utility.yul\":470:533   */\n    tag_121:\n        /* \"#utility.yul\":417:539   */\n      pop\n      jump\t// out\n        /* \"#utility.yul\":545:684   */\n    tag_72:\n        /* \"#utility.yul\":591:596   */\n      0x00\n        /* \"#utility.yul\":629:635   */\n      dup2\n        /* \"#utility.yul\":616:636   */\n      calldataload\n        /* \"#utility.yul\":607:636   */\n      swap1\n      pop\n        /* \"#utility.yul\":645:678   */\n      tag_123\n        /* \"#utility.yul\":672:677   */\n      dup2\n        /* \"#utility.yul\":645:678   */\n      tag_71\n      jump\t// in\n    tag_123:\n        /* \"#utility.yul\":545:684   */\n      swap3\n      swap2\n      pop\n      pop\n      jump\t// out\n        /* \"#utility.yul\":690:1019   */\n    tag_9:\n        /* \"#utility.yul\":749:755   */\n      0x00\n        /* \"#utility.yul\":798:800   */\n      0x20\n        /* \"#utility.yul\":786:795   */\n      dup3\n        /* \"#utility.yul\":777:784   */\n      dup5\n        /* \"#utility.yul\":773:796   */\n      sub\n        /* \"#utility.yul\":769:801   */\n      slt\n        /* \"#utility.yul\":766:885   */\n      iszero\n      tag_125\n      jumpi\n        /* \"#utility.yul\":804:883   */\n      tag_126\n      tag_68\n      jump\t// in\n    tag_126:\n        /* \"#utility.yul\":766:885   */\n    tag_125:\n        /* \"#utility.yul\":924:925   */\n      0x00\n        /* \"#utility.yul\":949:1002   */\n      tag_127\n        /* \"#utility.yul\":994:1001   */\n      dup5\n        /* \"#utility.yul\":985:991   */\n      dup3\n        /* \"#utility.yul\":974:983   */\n      dup6\n        /* \"#utility.yul\":970:992   */\n      add\n        /* \"#utility.yul\":949:1002   */\n      tag_72\n      jump\t// in\n    tag_127:\n        /* \"#utility.yul\":939:1002   */\n      swap2\n      pop\n        /* \"#utility.yul\":895:1012   */\n      pop\n        /* \"#utility.yul\":690:1019   */\n      swap3\n      swap2\n      pop\n      pop\n      jump\t// out\n        /* \"#utility.yul\":1025:1123   */\n    tag_73:\n        /* \"#utility.yul\":1076:1082   */\n      0x00\n        /* \"#utility.yul\":1110:1115   */\n      dup2\n        /* \"#utility.yul\":1104:1116   */\n      mload\n        /* \"#utility.yul\":1094:1116   */\n      swap1\n      pop\n        /* \"#utility.yul\":1025:1123   */\n      swap2\n      swap1\n      pop\n      jump\t// out\n        /* \"#utility.yul\":1129:1287   */\n    tag_74:\n        /* \"#utility.yul\":1202:1213   */\n      0x00\n        /* \"#utility.yul\":1236:1242   */\n      dup3\n        /* \"#utility.yul\":1231:1234   */\n      dup3\n        /* \"#utility.yul\":1224:1243   */\n      mstore\n        /* \"#utility.yul\":1276:1280   */\n      0x20\n        /* \"#utility.yul\":1271:1274   */\n      dup3\n        /* \"#utility.yul\":1267:1281   */\n      add\n        /* \"#utility.yul\":1252:1281   */\n      swap1\n      pop\n        /* \"#utility.yul\":1129:1287   */\n      swap3\n      swap2\n      pop\n      pop\n      jump\t// out\n        /* \"#utility.yul\":1293:1539   */\n    tag_75:\n        /* \"#utility.yul\":1374:1375   */\n      0x00\n        /* \"#utility.yul\":1384:1497   */\n    tag_131:\n        /* \"#utility.yul\":1398:1404   */\n      dup4\n        /* \"#utility.yul\":1395:1396   */\n      dup2\n        /* \"#utility.yul\":1392:1405   */\n      lt\n        /* \"#utility.yul\":1384:1497   */\n      iszero\n      tag_133\n      jumpi\n        /* \"#utility.yul\":1483:1484   */\n      dup1\n        /* \"#utility.yul\":1478:1481   */\n      dup3\n        /* \"#utility.yul\":1474:1485   */\n      add\n        /* \"#utility.yul\":1468:1486   */\n      mload\n        /* \"#utility.yul\":1464:1465   */\n      dup2\n        /* \"#utility.yul\":1459:1462   */\n      dup5\n        /* \"#utility.yul\":1455:1466   */\n      add\n        /* \"#utility.yul\":1448:1487   */\n      mstore\n        /* \"#utility.yul\":1420:1422   */\n      0x20\n        /* \"#utility.yul\":1417:1418   */\n      dup2\n        /* \"#utility.yul\":1413:1423   */\n      add\n        /* \"#utility.yul\":1408:1423   */\n      swap1\n      pop\n        /* \"#utility.yul\":1384:1497   */\n      jump(tag_131)\n    tag_133:\n        /* \"#utility.yul\":1531:1532   */\n      0x00\n        /* \"#utility.yul\":1522:1528   */\n      dup5\n        /* \"#utility.yul\":1517:1520   */\n      dup5\n        /* \"#utility.yul\":1513:1529   */\n      add\n        /* \"#utility.yul\":1506:1533   */\n      mstore\n        /* \"#utility.yul\":1355:1539   */\n      pop\n        /* \"#utility.yul\":1293:1539   */\n      pop\n      pop\n      pop\n      jump\t// out\n        /* \"#utility.yul\":1545:1647   */\n    tag_76:\n        /* \"#utility.yul\":1586:1592   */\n      0x00\n        /* \"#utility.yul\":1637:1639   */\n      0x1f\n        /* \"#utility.yul\":1633:1640   */\n      not\n        /* \"#utility.yul\":1628:1630   */\n      0x1f\n        /* \"#utility.yul\":1621:1626   */\n      dup4\n        /* \"#utility.yul\":1617:1631   */\n      add\n        /* \"#utility.yul\":1613:1641   */\n      and\n        /* \"#utility.yul\":1603:1641   */\n      swap1\n      pop\n        /* \"#utility.yul\":1545:1647   */\n      swap2\n      swap1\n      pop\n      jump\t// out\n        /* \"#utility.yul\":1653:2006   */\n    tag_77:\n        /* \"#utility.yul\":1729:1732   */\n      0x00\n        /* \"#utility.yul\":1757:1795   */\n      tag_136\n        /* \"#utility.yul\":1789:1794   */\n      dup3\n        /* \"#utility.yul\":1757:1795   */\n      tag_73\n      jump\t// in\n    tag_136:\n        /* \"#utility.yul\":1811:1871   */\n      tag_137\n        /* \"#utility.yul\":1864:1870   */\n      dup2\n        /* \"#utility.yul\":1859:1862   */\n      dup6\n        /* \"#utility.yul\":1811:1871   */\n      tag_74\n      jump\t// in\n    tag_137:\n        /* \"#utility.yul\":1804:1871   */\n      swap4\n      pop\n        /* \"#utility.yul\":1880:1945   */\n      tag_138\n        /* \"#utility.yul\":1938:1944   */\n      dup2\n        /* \"#utility.yul\":1933:1936   */\n      dup6\n        /* \"#utility.yul\":1926:1930   */\n      0x20\n        /* \"#utility.yul\":1919:1924   */\n      dup7\n        /* \"#utility.yul\":1915:1931   */\n      add\n        /* \"#utility.yul\":1880:1945   */\n      tag_75\n      jump\t// in\n    tag_138:\n        /* \"#utility.yul\":1970:1999   */\n      tag_139\n        /* \"#utility.yul\":1992:1998   */\n      dup2\n        /* \"#utility.yul\":1970:1999   */\n      tag_76\n      jump\t// in\n    tag_139:\n        /* \"#utility.yul\":1965:1968   */\n      dup5\n        /* \"#utility.yul\":1961:2000   */\n      add\n        /* \"#utility.yul\":1954:2000   */\n      swap2\n      pop\n        /* \"#utility.yul\":1733:2006   */\n      pop\n        /* \"#utility.yul\":1653:2006   */\n      swap3\n      swap2\n      pop\n      pop\n      jump\t// out\n        /* \"#utility.yul\":2012:2138   */\n    tag_78:\n        /* \"#utility.yul\":2049:2056   */\n      0x00\n        /* \"#utility.yul\":2089:2131   */\n      0xffffffffffffffffffffffffffffffffffffffff\n        /* \"#utility.yul\":2082:2087   */\n      dup3\n        /* \"#utility.yul\":2078:2132   */\n      and\n        /* \"#utility.yul\":2067:2132   */\n      swap1\n      pop\n        /* \"#utility.yul\":2012:2138   */\n      swap2\n      swap1\n      pop\n      jump\t// out\n        /* \"#utility.yul\":2144:2240   */\n    tag_79:\n        /* \"#utility.yul\":2181:2188   */\n      0x00\n        /* \"#utility.yul\":2210:2234   */\n      tag_142\n        /* \"#utility.yul\":2228:2233   */\n      dup3\n        /* \"#utility.yul\":2210:2234   */\n      tag_78\n      jump\t// in\n    tag_142:\n        /* \"#utility.yul\":2199:2234   */\n      swap1\n      pop\n        /* \"#utility.yul\":2144:2240   */\n      swap2\n      swap1\n      pop\n      jump\t// out\n        /* \"#utility.yul\":2246:2354   */\n    tag_80:\n        /* \"#utility.yul\":2323:2347   */\n      tag_144\n        /* \"#utility.yul\":2341:2346   */\n      dup2\n        /* \"#utility.yul\":2323:2347   */\n      tag_79\n      jump\t// in\n    tag_144:\n        /* \"#utility.yul\":2318:2321   */\n      dup3\n        /* \"#utility.yul\":2311:2348   */\n      mstore\n        /* \"#utility.yul\":2246:2354   */\n      pop\n      pop\n      jump\t// out\n        /* \"#utility.yul\":2470:3798   */\n    tag_81:\n        /* \"#utility.yul\":2611:2614   */\n      0x00\n        /* \"#utility.yul\":2647:2651   */\n      0xa0\n        /* \"#utility.yul\":2642:2645   */\n      dup4\n        /* \"#utility.yul\":2638:2652   */\n      add\n        /* \"#utility.yul\":2735:2739   */\n      0x00\n        /* \"#utility.yul\":2728:2733   */\n      dup4\n        /* \"#utility.yul\":2724:2740   */\n      add\n        /* \"#utility.yul\":2718:2741   */\n      mload\n        /* \"#utility.yul\":2788:2791   */\n      dup5\n        /* \"#utility.yul\":2782:2786   */\n      dup3\n        /* \"#utility.yul\":2778:2792   */\n      sub\n        /* \"#utility.yul\":2771:2775   */\n      0x00\n        /* \"#utility.yul\":2766:2769   */\n      dup7\n        /* \"#utility.yul\":2762:2776   */\n      add\n        /* \"#utility.yul\":2755:2793   */\n      mstore\n        /* \"#utility.yul\":2814:2885   */\n      tag_146\n        /* \"#utility.yul\":2880:2884   */\n      dup3\n        /* \"#utility.yul\":2866:2878   */\n      dup3\n        /* \"#utility.yul\":2814:2885   */\n      tag_77\n      jump\t// in\n    tag_146:\n        /* \"#utility.yul\":2806:2885   */\n      swap2\n      pop\n        /* \"#utility.yul\":2662:2896   */\n      pop\n        /* \"#utility.yul\":2989:2993   */\n      0x20\n        /* \"#utility.yul\":2982:2987   */\n      dup4\n        /* \"#utility.yul\":2978:2994   */\n      add\n        /* \"#utility.yul\":2972:2995   */\n      mload\n        /* \"#utility.yul\":3008:3071   */\n      tag_147\n        /* \"#utility.yul\":3065:3069   */\n      0x20\n        /* \"#utility.yul\":3060:3063   */\n      dup7\n        /* \"#utility.yul\":3056:3070   */\n      add\n        /* \"#utility.yul\":3042:3054   */\n      dup3\n        /* \"#utility.yul\":3008:3071   */\n      tag_80\n      jump\t// in\n    tag_147:\n        /* \"#utility.yul\":2906:3081   */\n      pop\n        /* \"#utility.yul\":3178:3182   */\n      0x40\n        /* \"#utility.yul\":3171:3176   */\n      dup4\n        /* \"#utility.yul\":3167:3183   */\n      add\n        /* \"#utility.yul\":3161:3184   */\n      mload\n        /* \"#utility.yul\":3197:3260   */\n      tag_148\n        /* \"#utility.yul\":3254:3258   */\n      0x40\n        /* \"#utility.yul\":3249:3252   */\n      dup7\n        /* \"#utility.yul\":3245:3259   */\n      add\n        /* \"#utility.yul\":3231:3243   */\n      dup3\n        /* \"#utility.yul\":3197:3260   */\n      tag_80\n      jump\t// in\n    tag_148:\n        /* \"#utility.yul\":3091:3270   */\n      pop\n        /* \"#utility.yul\":3360:3364   */\n      0x60\n        /* \"#utility.yul\":3353:3358   */\n      dup4\n        /* \"#utility.yul\":3349:3365   */\n      add\n        /* \"#utility.yul\":3343:3366   */\n      mload\n        /* \"#utility.yul\":3413:3416   */\n      dup5\n        /* \"#utility.yul\":3407:3411   */\n      dup3\n        /* \"#utility.yul\":3403:3417   */\n      sub\n        /* \"#utility.yul\":3396:3400   */\n      0x60\n        /* \"#utility.yul\":3391:3394   */\n      dup7\n        /* \"#utility.yul\":3387:3401   */\n      add\n        /* \"#utility.yul\":3380:3418   */\n      mstore\n        /* \"#utility.yul\":3439:3510   */\n      tag_149\n        /* \"#utility.yul\":3505:3509   */\n      dup3\n        /* \"#utility.yul\":3491:3503   */\n      dup3\n        /* \"#utility.yul\":3439:3510   */\n      tag_77\n      jump\t// in\n    tag_149:\n        /* \"#utility.yul\":3431:3510   */\n      swap2\n      pop\n        /* \"#utility.yul\":3280:3521   */\n      pop\n        /* \"#utility.yul\":3610:3614   */\n      0x80\n        /* \"#utility.yul\":3603:3608   */\n      dup4\n        /* \"#utility.yul\":3599:3615   */\n      add\n        /* \"#utility.yul\":3593:3616   */\n      mload\n        /* \"#utility.yul\":3663:3666   */\n      dup5\n        /* \"#utility.yul\":3657:3661   */\n      dup3\n        /* \"#utility.yul\":3653:3667   */\n      sub\n        /* \"#utility.yul\":3646:3650   */\n      0x80\n        /* \"#utility.yul\":3641:3644   */\n      dup7\n        /* \"#utility.yul\":3637:3651   */\n      add\n        /* \"#utility.yul\":3630:3668   */\n      mstore\n        /* \"#utility.yul\":3689:3760   */\n      tag_150\n        /* \"#utility.yul\":3755:3759   */\n      dup3\n        /* \"#utility.yul\":3741:3753   */\n      dup3\n        /* \"#utility.yul\":3689:3760   */\n      tag_77\n      jump\t// in\n    tag_150:\n        /* \"#utility.yul\":3681:3760   */\n      swap2\n      pop\n        /* \"#utility.yul\":3531:3771   */\n      pop\n        /* \"#utility.yul\":3788:3792   */\n      dup1\n        /* \"#utility.yul\":3781:3792   */\n      swap2\n      pop\n        /* \"#utility.yul\":2616:3798   */\n      pop\n        /* \"#utility.yul\":2470:3798   */\n      swap3\n      swap2\n      pop\n      pop\n      jump\t// out\n        /* \"#utility.yul\":3804:4221   */\n    tag_12:\n        /* \"#utility.yul\":3969:3973   */\n      0x00\n        /* \"#utility.yul\":4007:4009   */\n      0x20\n        /* \"#utility.yul\":3996:4005   */\n      dup3\n        /* \"#utility.yul\":3992:4010   */\n      add\n        /* \"#utility.yul\":3984:4010   */\n      swap1\n      pop\n        /* \"#utility.yul\":4056:4065   */\n      dup2\n        /* \"#utility.yul\":4050:4054   */\n      dup2\n        /* \"#utility.yul\":4046:4066   */\n      sub\n        /* \"#utility.yul\":4042:4043   */\n      0x00\n        /* \"#utility.yul\":4031:4040   */\n      dup4\n        /* \"#utility.yul\":4027:4044   */\n      add\n        /* \"#utility.yul\":4020:4067   */\n      mstore\n        /* \"#utility.yul\":4084:4214   */\n      tag_152\n        /* \"#utility.yul\":4209:4213   */\n      dup2\n        /* \"#utility.yul\":4200:4206   */\n      dup5\n        /* \"#utility.yul\":4084:4214   */\n      tag_81\n      jump\t// in\n    tag_152:\n        /* \"#utility.yul\":4076:4214   */\n      swap1\n      pop\n        /* \"#utility.yul\":3804:4221   */\n      swap3\n      swap2\n      pop\n      pop\n      jump\t// out\n        /* \"#utility.yul\":4227:4344   */\n    tag_82:\n        /* \"#utility.yul\":4336:4337   */\n      0x00\n        /* \"#utility.yul\":4333:4334   */\n      dup1\n        /* \"#utility.yul\":4326:4338   */\n      revert\n        /* \"#utility.yul\":4350:4467   */\n    tag_83:\n        /* \"#utility.yul\":4459:4460   */\n      0x00\n        /* \"#utility.yul\":4456:4457   */\n      dup1\n        /* \"#utility.yul\":4449:4461   */\n      revert\n        /* \"#utility.yul\":4473:4653   */\n    tag_84:\n        /* \"#utility.yul\":4521:4598   */\n      0x4e487b7100000000000000000000000000000000000000000000000000000000\n        /* \"#utility.yul\":4518:4519   */\n      0x00\n        /* \"#utility.yul\":4511:4599   */\n      mstore\n        /* \"#utility.yul\":4618:4622   */\n      0x41\n        /* \"#utility.yul\":4615:4616   */\n      0x04\n        /* \"#utility.yul\":4608:4623   */\n      mstore\n        /* \"#utility.yul\":4642:4646   */\n      0x24\n        /* \"#utility.yul\":4639:4640   */\n      0x00\n        /* \"#utility.yul\":4632:4647   */\n      revert\n        /* \"#utility.yul\":4659:4940   */\n    tag_85:\n        /* \"#utility.yul\":4742:4769   */\n      tag_157\n        /* \"#utility.yul\":4764:4768   */\n      dup3\n        /* \"#utility.yul\":4742:4769   */\n      tag_76\n      jump\t// in\n    tag_157:\n        /* \"#utility.yul\":4734:4740   */\n      dup2\n        /* \"#utility.yul\":4730:4770   */\n      add\n        /* \"#utility.yul\":4872:4878   */\n      dup2\n        /* \"#utility.yul\":4860:4870   */\n      dup2\n        /* \"#utility.yul\":4857:4879   */\n      lt\n        /* \"#utility.yul\":4836:4854   */\n      0xffffffffffffffff\n        /* \"#utility.yul\":4824:4834   */\n      dup3\n        /* \"#utility.yul\":4821:4855   */\n      gt\n        /* \"#utility.yul\":4818:4880   */\n      or\n        /* \"#utility.yul\":4815:4903   */\n      iszero\n      tag_158\n      jumpi\n        /* \"#utility.yul\":4883:4901   */\n      tag_159\n      tag_84\n      jump\t// in\n    tag_159:\n        /* \"#utility.yul\":4815:4903   */\n    tag_158:\n        /* \"#utility.yul\":4923:4933   */\n      dup1\n        /* \"#utility.yul\":4919:4921   */\n      0x40\n        /* \"#utility.yul\":4912:4934   */\n      mstore\n        /* \"#utility.yul\":4702:4940   */\n      pop\n        /* \"#utility.yul\":4659:4940   */\n      pop\n      pop\n      jump\t// out\n        /* \"#utility.yul\":4946:5075   */\n    tag_86:\n        /* \"#utility.yul\":4980:4986   */\n      0x00\n        /* \"#utility.yul\":5007:5027   */\n      tag_161\n      tag_67\n      jump\t// in\n    tag_161:\n        /* \"#utility.yul\":4997:5027   */\n      swap1\n      pop\n        /* \"#utility.yul\":5036:5069   */\n      tag_162\n        /* \"#utility.yul\":5064:5068   */\n      dup3\n        /* \"#utility.yul\":5056:5062   */\n      dup3\n        /* \"#utility.yul\":5036:5069   */\n      tag_85\n      jump\t// in\n    tag_162:\n        /* \"#utility.yul\":4946:5075   */\n      swap2\n      swap1\n      pop\n      jump\t// out\n        /* \"#utility.yul\":5081:5388   */\n    tag_87:\n        /* \"#utility.yul\":5142:5146   */\n      0x00\n        /* \"#utility.yul\":5232:5250   */\n      0xffffffffffffffff\n        /* \"#utility.yul\":5224:5230   */\n      dup3\n        /* \"#utility.yul\":5221:5251   */\n      gt\n        /* \"#utility.yul\":5218:5274   */\n      iszero\n      tag_164\n      jumpi\n        /* \"#utility.yul\":5254:5272   */\n      tag_165\n      tag_84\n      jump\t// in\n    tag_165:\n        /* \"#utility.yul\":5218:5274   */\n    tag_164:\n        /* \"#utility.yul\":5292:5321   */\n      tag_166\n        /* \"#utility.yul\":5314:5320   */\n      dup3\n        /* \"#utility.yul\":5292:5321   */\n      tag_76\n      jump\t// in\n    tag_166:\n        /* \"#utility.yul\":5284:5321   */\n      swap1\n      pop\n        /* \"#utility.yul\":5376:5380   */\n      0x20\n        /* \"#utility.yul\":5370:5374   */\n      dup2\n        /* \"#utility.yul\":5366:5381   */\n      add\n        /* \"#utility.yul\":5358:5381   */\n      swap1\n      pop\n        /* \"#utility.yul\":5081:5388   */\n      swap2\n      swap1\n      pop\n      jump\t// out\n        /* \"#utility.yul\":5394:5540   */\n    tag_88:\n        /* \"#utility.yul\":5491:5497   */\n      dup3\n        /* \"#utility.yul\":5486:5489   */\n      dup2\n        /* \"#utility.yul\":5481:5484   */\n      dup4\n        /* \"#utility.yul\":5468:5498   */\n      calldatacopy\n        /* \"#utility.yul\":5532:5533   */\n      0x00\n        /* \"#utility.yul\":5523:5529   */\n      dup4\n        /* \"#utility.yul\":5518:5521   */\n      dup4\n        /* \"#utility.yul\":5514:5530   */\n      add\n        /* \"#utility.yul\":5507:5534   */\n      mstore\n        /* \"#utility.yul\":5394:5540   */\n      pop\n      pop\n      pop\n      jump\t// out\n        /* \"#utility.yul\":5546:5969   */\n    tag_89:\n        /* \"#utility.yul\":5623:5628   */\n      0x00\n        /* \"#utility.yul\":5648:5713   */\n      tag_169\n        /* \"#utility.yul\":5664:5712   */\n      tag_170\n        /* \"#utility.yul\":5705:5711   */\n      dup5\n        /* \"#utility.yul\":5664:5712   */\n      tag_87\n      jump\t// in\n    tag_170:\n        /* \"#utility.yul\":5648:5713   */\n      tag_86\n      jump\t// in\n    tag_169:\n        /* \"#utility.yul\":5639:5713   */\n      swap1\n      pop\n        /* \"#utility.yul\":5736:5742   */\n      dup3\n        /* \"#utility.yul\":5729:5734   */\n      dup2\n        /* \"#utility.yul\":5722:5743   */\n      mstore\n        /* \"#utility.yul\":5774:5778   */\n      0x20\n        /* \"#utility.yul\":5767:5772   */\n      dup2\n        /* \"#utility.yul\":5763:5779   */\n      add\n        /* \"#utility.yul\":5812:5815   */\n      dup5\n        /* \"#utility.yul\":5803:5809   */\n      dup5\n        /* \"#utility.yul\":5798:5801   */\n      dup5\n        /* \"#utility.yul\":5794:5810   */\n      add\n        /* \"#utility.yul\":5791:5816   */\n      gt\n        /* \"#utility.yul\":5788:5900   */\n      iszero\n      tag_171\n      jumpi\n        /* \"#utility.yul\":5819:5898   */\n      tag_172\n      tag_83\n      jump\t// in\n    tag_172:\n        /* \"#utility.yul\":5788:5900   */\n    tag_171:\n        /* \"#utility.yul\":5909:5963   */\n      tag_173\n        /* \"#utility.yul\":5956:5962   */\n      dup5\n        /* \"#utility.yul\":5951:5954   */\n      dup3\n        /* \"#utility.yul\":5946:5949   */\n      dup6\n        /* \"#utility.yul\":5909:5963   */\n      tag_88\n      jump\t// in\n    tag_173:\n        /* \"#utility.yul\":5629:5969   */\n      pop\n        /* \"#utility.yul\":5546:5969   */\n      swap4\n      swap3\n      pop\n      pop\n      pop\n      jump\t// out\n        /* \"#utility.yul\":5988:6326   */\n    tag_90:\n        /* \"#utility.yul\":6043:6048   */\n      0x00\n        /* \"#utility.yul\":6092:6095   */\n      dup3\n        /* \"#utility.yul\":6085:6089   */\n      0x1f\n        /* \"#utility.yul\":6077:6083   */\n      dup4\n        /* \"#utility.yul\":6073:6090   */\n      add\n        /* \"#utility.yul\":6069:6096   */\n      slt\n        /* \"#utility.yul\":6059:6181   */\n      tag_175\n      jumpi\n        /* \"#utility.yul\":6100:6179   */\n      tag_176\n      tag_82\n      jump\t// in\n    tag_176:\n        /* \"#utility.yul\":6059:6181   */\n    tag_175:\n        /* \"#utility.yul\":6217:6223   */\n      dup2\n        /* \"#utility.yul\":6204:6224   */\n      calldataload\n        /* \"#utility.yul\":6242:6320   */\n      tag_177\n        /* \"#utility.yul\":6316:6319   */\n      dup5\n        /* \"#utility.yul\":6308:6314   */\n      dup3\n        /* \"#utility.yul\":6301:6305   */\n      0x20\n        /* \"#utility.yul\":6293:6299   */\n      dup7\n        /* \"#utility.yul\":6289:6306   */\n      add\n        /* \"#utility.yul\":6242:6320   */\n      tag_89\n      jump\t// in\n    tag_177:\n        /* \"#utility.yul\":6233:6320   */\n      swap2\n      pop\n        /* \"#utility.yul\":6049:6326   */\n      pop\n        /* \"#utility.yul\":5988:6326   */\n      swap3\n      swap2\n      pop\n      pop\n      jump\t// out\n        /* \"#utility.yul\":6332:6454   */\n    tag_91:\n        /* \"#utility.yul\":6405:6429   */\n      tag_179\n        /* \"#utility.yul\":6423:6428   */\n      dup2\n        /* \"#utility.yul\":6405:6429   */\n      tag_79\n      jump\t// in\n    tag_179:\n        /* \"#utility.yul\":6398:6403   */\n      dup2\n        /* \"#utility.yul\":6395:6430   */\n      eq\n        /* \"#utility.yul\":6385:6448   */\n      tag_180\n      jumpi\n        /* \"#utility.yul\":6444:6445   */\n      0x00\n        /* \"#utility.yul\":6441:6442   */\n      dup1\n        /* \"#utility.yul\":6434:6446   */\n      revert\n        /* \"#utility.yul\":6385:6448   */\n    tag_180:\n        /* \"#utility.yul\":6332:6454   */\n      pop\n      jump\t// out\n        /* \"#utility.yul\":6460:6599   */\n    tag_92:\n        /* \"#utility.yul\":6506:6511   */\n      0x00\n        /* \"#utility.yul\":6544:6550   */\n      dup2\n        /* \"#utility.yul\":6531:6551   */\n      calldataload\n        /* \"#utility.yul\":6522:6551   */\n      swap1\n      pop\n        /* \"#utility.yul\":6560:6593   */\n      tag_182\n        /* \"#utility.yul\":6587:6592   */\n      dup2\n        /* \"#utility.yul\":6560:6593   */\n      tag_91\n      jump\t// in\n    tag_182:\n        /* \"#utility.yul\":6460:6599   */\n      swap3\n      swap2\n      pop\n      pop\n      jump\t// out\n        /* \"#utility.yul\":6605:8050   */\n    tag_15:\n        /* \"#utility.yul\":6727:6733   */\n      0x00\n        /* \"#utility.yul\":6735:6741   */\n      dup1\n        /* \"#utility.yul\":6743:6749   */\n      0x00\n        /* \"#utility.yul\":6751:6757   */\n      dup1\n        /* \"#utility.yul\":6759:6765   */\n      0x00\n        /* \"#utility.yul\":6808:6811   */\n      0xa0\n        /* \"#utility.yul\":6796:6805   */\n      dup7\n        /* \"#utility.yul\":6787:6794   */\n      dup9\n        /* \"#utility.yul\":6783:6806   */\n      sub\n        /* \"#utility.yul\":6779:6812   */\n      slt\n        /* \"#utility.yul\":6776:6896   */\n      iszero\n      tag_184\n      jumpi\n        /* \"#utility.yul\":6815:6894   */\n      tag_185\n      tag_68\n      jump\t// in\n    tag_185:\n        /* \"#utility.yul\":6776:6896   */\n    tag_184:\n        /* \"#utility.yul\":6963:6964   */\n      0x00\n        /* \"#utility.yul\":6952:6961   */\n      dup7\n        /* \"#utility.yul\":6948:6965   */\n      add\n        /* \"#utility.yul\":6935:6966   */\n      calldataload\n        /* \"#utility.yul\":6993:7011   */\n      0xffffffffffffffff\n        /* \"#utility.yul\":6985:6991   */\n      dup2\n        /* \"#utility.yul\":6982:7012   */\n      gt\n        /* \"#utility.yul\":6979:7096   */\n      iszero\n      tag_186\n      jumpi\n        /* \"#utility.yul\":7015:7094   */\n      tag_187\n      tag_69\n      jump\t// in\n    tag_187:\n        /* \"#utility.yul\":6979:7096   */\n    tag_186:\n        /* \"#utility.yul\":7120:7182   */\n      tag_188\n        /* \"#utility.yul\":7174:7181   */\n      dup9\n        /* \"#utility.yul\":7165:7171   */\n      dup3\n        /* \"#utility.yul\":7154:7163   */\n      dup10\n        /* \"#utility.yul\":7150:7172   */\n      add\n        /* \"#utility.yul\":7120:7182   */\n      tag_90\n      jump\t// in\n    tag_188:\n        /* \"#utility.yul\":7110:7182   */\n      swap6\n      pop\n        /* \"#utility.yul\":6906:7192   */\n      pop\n        /* \"#utility.yul\":7231:7233   */\n      0x20\n        /* \"#utility.yul\":7257:7310   */\n      tag_189\n        /* \"#utility.yul\":7302:7309   */\n      dup9\n        /* \"#utility.yul\":7293:7299   */\n      dup3\n        /* \"#utility.yul\":7282:7291   */\n      dup10\n        /* \"#utility.yul\":7278:7300   */\n      add\n        /* \"#utility.yul\":7257:7310   */\n      tag_92\n      jump\t// in\n    tag_189:\n        /* \"#utility.yul\":7247:7310   */\n      swap5\n      pop\n        /* \"#utility.yul\":7202:7320   */\n      pop\n        /* \"#utility.yul\":7359:7361   */\n      0x40\n        /* \"#utility.yul\":7385:7438   */\n      tag_190\n        /* \"#utility.yul\":7430:7437   */\n      dup9\n        /* \"#utility.yul\":7421:7427   */\n      dup3\n        /* \"#utility.yul\":7410:7419   */\n      dup10\n        /* \"#utility.yul\":7406:7428   */\n      add\n        /* \"#utility.yul\":7385:7438   */\n      tag_92\n      jump\t// in\n    tag_190:\n        /* \"#utility.yul\":7375:7438   */\n      swap4\n      pop\n        /* \"#utility.yul\":7330:7448   */\n      pop\n        /* \"#utility.yul\":7515:7517   */\n      0x60\n        /* \"#utility.yul\":7504:7513   */\n      dup7\n        /* \"#utility.yul\":7500:7518   */\n      add\n        /* \"#utility.yul\":7487:7519   */\n      calldataload\n        /* \"#utility.yul\":7546:7564   */\n      0xffffffffffffffff\n        /* \"#utility.yul\":7538:7544   */\n      dup2\n        /* \"#utility.yul\":7535:7565   */\n      gt\n        /* \"#utility.yul\":7532:7649   */\n      iszero\n      tag_191\n      jumpi\n        /* \"#utility.yul\":7568:7647   */\n      tag_192\n      tag_69\n      jump\t// in\n    tag_192:\n        /* \"#utility.yul\":7532:7649   */\n    tag_191:\n        /* \"#utility.yul\":7673:7735   */\n      tag_193\n        /* \"#utility.yul\":7727:7734   */\n      dup9\n        /* \"#utility.yul\":7718:7724   */\n      dup3\n        /* \"#utility.yul\":7707:7716   */\n      dup10\n        /* \"#utility.yul\":7703:7725   */\n      add\n        /* \"#utility.yul\":7673:7735   */\n      tag_90\n      jump\t// in\n    tag_193:\n        /* \"#utility.yul\":7663:7735   */\n      swap3\n      pop\n        /* \"#utility.yul\":7458:7745   */\n      pop\n        /* \"#utility.yul\":7812:7815   */\n      0x80\n        /* \"#utility.yul\":7801:7810   */\n      dup7\n        /* \"#utility.yul\":7797:7816   */\n      add\n        /* \"#utility.yul\":7784:7817   */\n      calldataload\n        /* \"#utility.yul\":7844:7862   */\n      0xffffffffffffffff\n        /* \"#utility.yul\":7836:7842   */\n      dup2\n        /* \"#utility.yul\":7833:7863   */\n      gt\n        /* \"#utility.yul\":7830:7947   */\n      iszero\n      tag_194\n      jumpi\n        /* \"#utility.yul\":7866:7945   */\n      tag_195\n      tag_69\n      jump\t// in\n    tag_195:\n        /* \"#utility.yul\":7830:7947   */\n    tag_194:\n        /* \"#utility.yul\":7971:8033   */\n      tag_196\n        /* \"#utility.yul\":8025:8032   */\n      dup9\n        /* \"#utility.yul\":8016:8022   */\n      dup3\n        /* \"#utility.yul\":8005:8014   */\n      dup10\n        /* \"#utility.yul\":8001:8023   */\n      add\n        /* \"#utility.yul\":7971:8033   */\n      tag_90\n      jump\t// in\n    tag_196:\n        /* \"#utility.yul\":7961:8033   */\n      swap2\n      pop\n        /* \"#utility.yul\":7755:8043   */\n      pop\n        /* \"#utility.yul\":6605:8050   */\n      swap3\n      swap6\n      pop\n      swap3\n      swap6\n      swap1\n      swap4\n      pop\n      jump\t// out\n        /* \"#utility.yul\":8056:8174   */\n    tag_93:\n        /* \"#utility.yul\":8143:8167   */\n      tag_198\n        /* \"#utility.yul\":8161:8166   */\n      dup2\n        /* \"#utility.yul\":8143:8167   */\n      tag_70\n      jump\t// in\n    tag_198:\n        /* \"#utility.yul\":8138:8141   */\n      dup3\n        /* \"#utility.yul\":8131:8168   */\n      mstore\n        /* \"#utility.yul\":8056:8174   */\n      pop\n      pop\n      jump\t// out\n        /* \"#utility.yul\":8180:8402   */\n    tag_20:\n        /* \"#utility.yul\":8273:8277   */\n      0x00\n        /* \"#utility.yul\":8311:8313   */\n      0x20\n        /* \"#utility.yul\":8300:8309   */\n      dup3\n        /* \"#utility.yul\":8296:8314   */\n      add\n        /* \"#utility.yul\":8288:8314   */\n      swap1\n      pop\n        /* \"#utility.yul\":8324:8395   */\n      tag_200\n        /* \"#utility.yul\":8392:8393   */\n      0x00\n        /* \"#utility.yul\":8381:8390   */\n      dup4\n        /* \"#utility.yul\":8377:8394   */\n      add\n        /* \"#utility.yul\":8368:8374   */\n      dup5\n        /* \"#utility.yul\":8324:8395   */\n      tag_93\n      jump\t// in\n    tag_200:\n        /* \"#utility.yul\":8180:8402   */\n      swap3\n      swap2\n      pop\n      pop\n      jump\t// out\n        /* \"#utility.yul\":8408:8576   */\n    tag_94:\n        /* \"#utility.yul\":8491:8502   */\n      0x00\n        /* \"#utility.yul\":8525:8531   */\n      dup3\n        /* \"#utility.yul\":8520:8523   */\n      dup3\n        /* \"#utility.yul\":8513:8532   */\n      mstore\n        /* \"#utility.yul\":8565:8569   */\n      0x20\n        /* \"#utility.yul\":8560:8563   */\n      dup3\n        /* \"#utility.yul\":8556:8570   */\n      add\n        /* \"#utility.yul\":8541:8570   */\n      swap1\n      pop\n        /* \"#utility.yul\":8408:8576   */\n      swap3\n      swap2\n      pop\n      pop\n      jump\t// out\n        /* \"#utility.yul\":8582:8955   */\n    tag_95:\n        /* \"#utility.yul\":8668:8671   */\n      0x00\n        /* \"#utility.yul\":8696:8734   */\n      tag_203\n        /* \"#utility.yul\":8728:8733   */\n      dup3\n        /* \"#utility.yul\":8696:8734   */\n      tag_73\n      jump\t// in\n    tag_203:\n        /* \"#utility.yul\":8750:8820   */\n      tag_204\n        /* \"#utility.yul\":8813:8819   */\n      dup2\n        /* \"#utility.yul\":8808:8811   */\n      dup6\n        /* \"#utility.yul\":8750:8820   */\n      tag_94\n      jump\t// in\n    tag_204:\n        /* \"#utility.yul\":8743:8820   */\n      swap4\n      pop\n        /* \"#utility.yul\":8829:8894   */\n      tag_205\n        /* \"#utility.yul\":8887:8893   */\n      dup2\n        /* \"#utility.yul\":8882:8885   */\n      dup6\n        /* \"#utility.yul\":8875:8879   */\n      0x20\n        /* \"#utility.yul\":8868:8873   */\n      dup7\n        /* \"#utility.yul\":8864:8880   */\n      add\n        /* \"#utility.yul\":8829:8894   */\n      tag_75\n      jump\t// in\n    tag_205:\n        /* \"#utility.yul\":8919:8948   */\n      tag_206\n        /* \"#utility.yul\":8941:8947   */\n      dup2\n        /* \"#utility.yul\":8919:8948   */\n      tag_76\n      jump\t// in\n    tag_206:\n        /* \"#utility.yul\":8914:8917   */\n      dup5\n        /* \"#utility.yul\":8910:8949   */\n      add\n        /* \"#utility.yul\":8903:8949   */\n      swap2\n      pop\n        /* \"#utility.yul\":8672:8955   */\n      pop\n        /* \"#utility.yul\":8582:8955   */\n      swap3\n      swap2\n      pop\n      pop\n      jump\t// out\n        /* \"#utility.yul\":8961:9079   */\n    tag_96:\n        /* \"#utility.yul\":9048:9072   */\n      tag_208\n        /* \"#utility.yul\":9066:9071   */\n      dup2\n        /* \"#utility.yul\":9048:9072   */\n      tag_79\n      jump\t// in\n    tag_208:\n        /* \"#utility.yul\":9043:9046   */\n      dup3\n        /* \"#utility.yul\":9036:9073   */\n      mstore\n        /* \"#utility.yul\":8961:9079   */\n      pop\n      pop\n      jump\t// out\n        /* \"#utility.yul\":9085:10010   */\n    tag_25:\n        /* \"#utility.yul\":9344:9348   */\n      0x00\n        /* \"#utility.yul\":9382:9385   */\n      0xa0\n        /* \"#utility.yul\":9371:9380   */\n      dup3\n        /* \"#utility.yul\":9367:9386   */\n      add\n        /* \"#utility.yul\":9359:9386   */\n      swap1\n      pop\n        /* \"#utility.yul\":9432:9441   */\n      dup2\n        /* \"#utility.yul\":9426:9430   */\n      dup2\n        /* \"#utility.yul\":9422:9442   */\n      sub\n        /* \"#utility.yul\":9418:9419   */\n      0x00\n        /* \"#utility.yul\":9407:9416   */\n      dup4\n        /* \"#utility.yul\":9403:9420   */\n      add\n        /* \"#utility.yul\":9396:9443   */\n      mstore\n        /* \"#utility.yul\":9460:9536   */\n      tag_210\n        /* \"#utility.yul\":9531:9535   */\n      dup2\n        /* \"#utility.yul\":9522:9528   */\n      dup9\n        /* \"#utility.yul\":9460:9536   */\n      tag_95\n      jump\t// in\n    tag_210:\n        /* \"#utility.yul\":9452:9536   */\n      swap1\n      pop\n        /* \"#utility.yul\":9546:9618   */\n      tag_211\n        /* \"#utility.yul\":9614:9616   */\n      0x20\n        /* \"#utility.yul\":9603:9612   */\n      dup4\n        /* \"#utility.yul\":9599:9617   */\n      add\n        /* \"#utility.yul\":9590:9596   */\n      dup8\n        /* \"#utility.yul\":9546:9618   */\n      tag_96\n      jump\t// in\n    tag_211:\n        /* \"#utility.yul\":9628:9700   */\n      tag_212\n        /* \"#utility.yul\":9696:9698   */\n      0x40\n        /* \"#utility.yul\":9685:9694   */\n      dup4\n        /* \"#utility.yul\":9681:9699   */\n      add\n        /* \"#utility.yul\":9672:9678   */\n      dup7\n        /* \"#utility.yul\":9628:9700   */\n      tag_96\n      jump\t// in\n    tag_212:\n        /* \"#utility.yul\":9747:9756   */\n      dup2\n        /* \"#utility.yul\":9741:9745   */\n      dup2\n        /* \"#utility.yul\":9737:9757   */\n      sub\n        /* \"#utility.yul\":9732:9734   */\n      0x60\n        /* \"#utility.yul\":9721:9730   */\n      dup4\n        /* \"#utility.yul\":9717:9735   */\n      add\n        /* \"#utility.yul\":9710:9758   */\n      mstore\n        /* \"#utility.yul\":9775:9851   */\n      tag_213\n        /* \"#utility.yul\":9846:9850   */\n      dup2\n        /* \"#utility.yul\":9837:9843   */\n      dup6\n        /* \"#utility.yul\":9775:9851   */\n      tag_95\n      jump\t// in\n    tag_213:\n        /* \"#utility.yul\":9767:9851   */\n      swap1\n      pop\n        /* \"#utility.yul\":9899:9908   */\n      dup2\n        /* \"#utility.yul\":9893:9897   */\n      dup2\n        /* \"#utility.yul\":9889:9909   */\n      sub\n        /* \"#utility.yul\":9883:9886   */\n      0x80\n        /* \"#utility.yul\":9872:9881   */\n      dup4\n        /* \"#utility.yul\":9868:9887   */\n      add\n        /* \"#utility.yul\":9861:9910   */\n      mstore\n        /* \"#utility.yul\":9927:10003   */\n      tag_214\n        /* \"#utility.yul\":9998:10002   */\n      dup2\n        /* \"#utility.yul\":9989:9995   */\n      dup5\n        /* \"#utility.yul\":9927:10003   */\n      tag_95\n      jump\t// in\n    tag_214:\n        /* \"#utility.yul\":9919:10003   */\n      swap1\n      pop\n        /* \"#utility.yul\":9085:10010   */\n      swap7\n      swap6\n      pop\n      pop\n      pop\n      pop\n      pop\n      pop\n      jump\t// out\n        /* \"#utility.yul\":10016:10196   */\n    tag_97:\n        /* \"#utility.yul\":10064:10141   */\n      0x4e487b7100000000000000000000000000000000000000000000000000000000\n        /* \"#utility.yul\":10061:10062   */\n      0x00\n        /* \"#utility.yul\":10054:10142   */\n      mstore\n        /* \"#utility.yul\":10161:10165   */\n      0x22\n        /* \"#utility.yul\":10158:10159   */\n      0x04\n        /* \"#utility.yul\":10151:10166   */\n      mstore\n        /* \"#utility.yul\":10185:10189   */\n      0x24\n        /* \"#utility.yul\":10182:10183   */\n      0x00\n        /* \"#utility.yul\":10175:10190   */\n      revert\n        /* \"#utility.yul\":10202:10522   */\n    tag_30:\n        /* \"#utility.yul\":10246:10252   */\n      0x00\n        /* \"#utility.yul\":10283:10284   */\n      0x02\n        /* \"#utility.yul\":10277:10281   */\n      dup3\n        /* \"#utility.yul\":10273:10285   */\n      div\n        /* \"#utility.yul\":10263:10285   */\n      swap1\n      pop\n        /* \"#utility.yul\":10330:10331   */\n      0x01\n        /* \"#utility.yul\":10324:10328   */\n      dup3\n        /* \"#utility.yul\":10320:10332   */\n      and\n        /* \"#utility.yul\":10351:10369   */\n      dup1\n        /* \"#utility.yul\":10341:10422   */\n      tag_217\n      jumpi\n        /* \"#utility.yul\":10407:10411   */\n      0x7f\n        /* \"#utility.yul\":10399:10405   */\n      dup3\n        /* \"#utility.yul\":10395:10412   */\n      and\n        /* \"#utility.yul\":10385:10412   */\n      swap2\n      pop\n        /* \"#utility.yul\":10341:10422   */\n    tag_217:\n        /* \"#utility.yul\":10469:10471   */\n      0x20\n        /* \"#utility.yul\":10461:10467   */\n      dup3\n        /* \"#utility.yul\":10458:10472   */\n      lt\n        /* \"#utility.yul\":10438:10456   */\n      dup2\n        /* \"#utility.yul\":10435:10473   */\n      sub\n        /* \"#utility.yul\":10432:10516   */\n      tag_218\n      jumpi\n        /* \"#utility.yul\":10488:10506   */\n      tag_219\n      tag_97\n      jump\t// in\n    tag_219:\n        /* \"#utility.yul\":10432:10516   */\n    tag_218:\n        /* \"#utility.yul\":10253:10522   */\n      pop\n        /* \"#utility.yul\":10202:10522   */\n      swap2\n      swap1\n      pop\n      jump\t// out\n        /* \"#utility.yul\":10528:10668   */\n    tag_98:\n        /* \"#utility.yul\":10576:10580   */\n      0x00\n        /* \"#utility.yul\":10599:10602   */\n      dup2\n        /* \"#utility.yul\":10591:10602   */\n      swap1\n      pop\n        /* \"#utility.yul\":10622:10625   */\n      dup2\n        /* \"#utility.yul\":10619:10620   */\n      0x00\n        /* \"#utility.yul\":10612:10626   */\n      mstore\n        /* \"#utility.yul\":10656:10660   */\n      0x20\n        /* \"#utility.yul\":10653:10654   */\n      0x00\n        /* \"#utility.yul\":10643:10661   */\n      keccak256\n        /* \"#utility.yul\":10635:10661   */\n      swap1\n      pop\n        /* \"#utility.yul\":10528:10668   */\n      swap2\n      swap1\n      pop\n      jump\t// out\n        /* \"#utility.yul\":10674:10767   */\n    tag_99:\n        /* \"#utility.yul\":10711:10717   */\n      0x00\n        /* \"#utility.yul\":10758:10760   */\n      0x20\n        /* \"#utility.yul\":10753:10755   */\n      0x1f\n        /* \"#utility.yul\":10746:10751   */\n      dup4\n        /* \"#utility.yul\":10742:10756   */\n      add\n        /* \"#utility.yul\":10738:10761   */\n      div\n        /* \"#utility.yul\":10728:10761   */\n      swap1\n      pop\n        /* \"#utility.yul\":10674:10767   */\n      swap2\n      swap1\n      pop\n      jump\t// out\n        /* \"#utility.yul\":10773:10880   */\n    tag_100:\n        /* \"#utility.yul\":10817:10825   */\n      0x00\n        /* \"#utility.yul\":10867:10872   */\n      dup3\n        /* \"#utility.yul\":10861:10865   */\n      dup3\n        /* \"#utility.yul\":10857:10873   */\n      shl\n        /* \"#utility.yul\":10836:10873   */\n      swap1\n      pop\n        /* \"#utility.yul\":10773:10880   */\n      swap3\n      swap2\n      pop\n      pop\n      jump\t// out\n        /* \"#utility.yul\":10886:11279   */\n    tag_101:\n        /* \"#utility.yul\":10955:10961   */\n      0x00\n        /* \"#utility.yul\":11005:11006   */\n      0x08\n        /* \"#utility.yul\":10993:11003   */\n      dup4\n        /* \"#utility.yul\":10989:11007   */\n      mul\n        /* \"#utility.yul\":11028:11125   */\n      tag_224\n        /* \"#utility.yul\":11058:11124   */\n      0xffffffffffffffffffffffffffffffffffffffffffffffffffffffffffffffff\n        /* \"#utility.yul\":11047:11056   */\n      dup3\n        /* \"#utility.yul\":11028:11125   */\n      tag_100\n      jump\t// in\n    tag_224:\n        /* \"#utility.yul\":11146:11185   */\n      tag_225\n        /* \"#utility.yul\":11176:11184   */\n      dup7\n        /* \"#utility.yul\":11165:11174   */\n      dup4\n        /* \"#utility.yul\":11146:11185   */\n      tag_100\n      jump\t// in\n    tag_225:\n        /* \"#utility.yul\":11134:11185   */\n      swap6\n      pop\n        /* \"#utility.yul\":11218:11222   */\n      dup1\n        /* \"#utility.yul\":11214:11223   */\n      not\n        /* \"#utility.yul\":11207:11212   */\n      dup5\n        /* \"#utility.yul\":11203:11224   */\n      and\n        /* \"#utility.yul\":11194:11224   */\n      swap4\n      pop\n        /* \"#utility.yul\":11267:11271   */\n      dup1\n        /* \"#utility.yul\":11257:11265   */\n      dup7\n        /* \"#utility.yul\":11253:11272   */\n      and\n        /* \"#utility.yul\":11246:11251   */\n      dup5\n        /* \"#utility.yul\":11243:11273   */\n      or\n        /* \"#utility.yul\":11233:11273   */\n      swap3\n      pop\n        /* \"#utility.yul\":10962:11279   */\n      pop\n      pop\n        /* \"#utility.yul\":10886:11279   */\n      swap4\n      swap3\n      pop\n      pop\n      pop\n      jump\t// out\n        /* \"#utility.yul\":11285:11345   */\n    tag_102:\n        /* \"#utility.yul\":11313:11316   */\n      0x00\n        /* \"#utility.yul\":11334:11339   */\n      dup2\n        /* \"#utility.yul\":11327:11339   */\n      swap1\n      pop\n        /* \"#utility.yul\":11285:11345   */\n      swap2\n      swap1\n      pop\n      jump\t// out\n        /* \"#utility.yul\":11351:11493   */\n    tag_103:\n        /* \"#utility.yul\":11401:11410   */\n      0x00\n        /* \"#utility.yul\":11434:11487   */\n      tag_228\n        /* \"#utility.yul\":11452:11486   */\n      tag_229\n        /* \"#utility.yul\":11461:11485   */\n      tag_230\n        /* \"#utility.yul\":11479:11484   */\n      dup5\n        /* \"#utility.yul\":11461:11485   */\n      tag_70\n      jump\t// in\n    tag_230:\n        /* \"#utility.yul\":11452:11486   */\n      tag_102\n      jump\t// in\n    tag_229:\n        /* \"#utility.yul\":11434:11487   */\n      tag_70\n      jump\t// in\n    tag_228:\n        /* \"#utility.yul\":11421:11487   */\n      swap1\n      pop\n        /* \"#utility.yul\":11351:11493   */\n      swap2\n      swap1\n      pop\n      jump\t// out\n        /* \"#utility.yul\":11499:11574   */\n    tag_104:\n        /* \"#utility.yul\":11542:11545   */\n      0x00\n        /* \"#utility.yul\":11563:11568   */\n      dup2\n        /* \"#utility.yul\":11556:11568   */\n      swap1\n      pop\n        /* \"#utility.yul\":11499:11574   */\n      swap2\n      swap1\n      pop\n      jump\t// out\n        /* \"#utility.yul\":11580:11849   */\n    tag_105:\n        /* \"#utility.yul\":11690:11729   */\n      tag_233\n        /* \"#utility.yul\":11721:11728   */\n      dup4\n        /* \"#utility.yul\":11690:11729   */\n      tag_103\n      jump\t// in\n    tag_233:\n        /* \"#utility.yul\":11751:11842   */\n      tag_234\n        /* \"#utility.yul\":11800:11841   */\n      tag_235\n        /* \"#utility.yul\":11824:11840   */\n      dup3\n        /* \"#utility.yul\":11800:11841   */\n      tag_104\n      jump\t// in\n    tag_235:\n        /* \"#utility.yul\":11792:11798   */\n      dup5\n        /* \"#utility.yul\":11785:11789   */\n      dup5\n        /* \"#utility.yul\":11779:11790   */\n      sload\n        /* \"#utility.yul\":11751:11842   */\n      tag_101\n      jump\t// in\n    tag_234:\n        /* \"#utility.yul\":11745:11749   */\n      dup3\n        /* \"#utility.yul\":11738:11843   */\n      sstore\n        /* \"#utility.yul\":11656:11849   */\n      pop\n        /* \"#utility.yul\":11580:11849   */\n      pop\n      pop\n      pop\n      jump\t// out\n        /* \"#utility.yul\":11855:11928   */\n    tag_106:\n        /* \"#utility.yul\":11900:11903   */\n      0x00\n        /* \"#utility.yul\":11855:11928   */\n      swap1\n      jump\t// out\n        /* \"#utility.yul\":11934:12123   */\n    tag_107:\n        /* \"#utility.yul\":12011:12043   */\n      tag_238\n      tag_106\n      jump\t// in\n    tag_238:\n        /* \"#utility.yul\":12052:12117   */\n      tag_239\n        /* \"#utility.yul\":12110:12116   */\n      dup2\n        /* \"#utility.yul\":12102:12108   */\n      dup5\n        /* \"#utility.yul\":12096:12100   */\n      dup5\n        /* \"#utility.yul\":12052:12117   */\n      tag_105\n      jump\t// in\n    tag_239:\n        /* \"#utility.yul\":11987:12123   */\n      pop\n        /* \"#utility.yul\":11934:12123   */\n      pop\n      pop\n      jump\t// out\n        /* \"#utility.yul\":12129:12315   */\n    tag_108:\n        /* \"#utility.yul\":12189:12309   */\n    tag_241:\n        /* \"#utility.yul\":12206:12209   */\n      dup2\n        /* \"#utility.yul\":12199:12204   */\n      dup2\n        /* \"#utility.yul\":12196:12210   */\n      lt\n        /* \"#utility.yul\":12189:12309   */\n      iszero\n      tag_243\n      jumpi\n        /* \"#utility.yul\":12260:12299   */\n      tag_244\n        /* \"#utility.yul\":12297:12298   */\n      0x00\n        /* \"#utility.yul\":12290:12295   */\n      dup3\n        /* \"#utility.yul\":12260:12299   */\n      tag_107\n      jump\t// in\n    tag_244:\n        /* \"#utility.yul\":12233:12234   */\n      0x01\n        /* \"#utility.yul\":12226:12231   */\n      dup2\n        /* \"#utility.yul\":12222:12235   */\n      add\n        /* \"#utility.yul\":12213:12235   */\n      swap1\n      pop\n        /* \"#utility.yul\":12189:12309   */\n      jump(tag_241)\n    tag_243:\n        /* \"#utility.yul\":12129:12315   */\n      pop\n      pop\n      jump\t// out\n        /* \"#utility.yul\":12321:12862   */\n    tag_109:\n        /* \"#utility.yul\":12421:12423   */\n      0x1f\n        /* \"#utility.yul\":12416:12419   */\n      dup3\n        /* \"#utility.yul\":12413:12424   */\n      gt\n        /* \"#utility.yul\":12410:12855   */\n      iszero\n      tag_246\n      jumpi\n        /* \"#utility.yul\":12455:12492   */\n      tag_247\n        /* \"#utility.yul\":12486:12491   */\n      dup2\n        /* \"#utility.yul\":12455:12492   */\n      tag_98\n      jump\t// in\n    tag_247:\n        /* \"#utility.yul\":12538:12567   */\n      tag_248\n        /* \"#utility.yul\":12556:12566   */\n      dup5\n        /* \"#utility.yul\":12538:12567   */\n      tag_99\n      jump\t// in\n    tag_248:\n        /* \"#utility.yul\":12528:12536   */\n      dup2\n        /* \"#utility.yul\":12524:12568   */\n      add\n        /* \"#utility.yul\":12721:12723   */\n      0x20\n        /* \"#utility.yul\":12709:12719   */\n      dup6\n        /* \"#utility.yul\":12706:12724   */\n      lt\n        /* \"#utility.yul\":12703:12752   */\n      iszero\n      tag_249\n      jumpi\n        /* \"#utility.yul\":12742:12750   */\n      dup2\n        /* \"#utility.yul\":12727:12750   */\n      swap1\n      pop\n        /* \"#utility.yul\":12703:12752   */\n    tag_249:\n        /* \"#utility.yul\":12765:12845   */\n      tag_250\n        /* \"#utility.yul\":12821:12843   */\n      tag_251\n        /* \"#utility.yul\":12839:12842   */\n      dup6\n        /* \"#utility.yul\":12821:12843   */\n      tag_99\n      jump\t// in\n    tag_251:\n        /* \"#utility.yul\":12811:12819   */\n      dup4\n        /* \"#utility.yul\":12807:12844   */\n      add\n        /* \"#utility.yul\":12794:12805   */\n      dup3\n        /* \"#utility.yul\":12765:12845   */\n      tag_108\n      jump\t// in\n    tag_250:\n        /* \"#utility.yul\":12425:12855   */\n      pop\n      pop\n        /* \"#utility.yul\":12410:12855   */\n    tag_246:\n        /* \"#utility.yul\":12321:12862   */\n      pop\n      pop\n      pop\n      jump\t// out\n        /* \"#utility.yul\":12868:12985   */\n    tag_110:\n        /* \"#utility.yul\":12922:12930   */\n      0x00\n        /* \"#utility.yul\":12972:12977   */\n      dup3\n        /* \"#utility.yul\":12966:12970   */\n      dup3\n        /* \"#utility.yul\":12962:12978   */\n      shr\n        /* \"#utility.yul\":12941:12978   */\n      swap1\n      pop\n        /* \"#utility.yul\":12868:12985   */\n      swap3\n      swap2\n      pop\n      pop\n      jump\t// out\n        /* \"#utility.yul\":12991:13160   */\n    tag_111:\n        /* \"#utility.yul\":13035:13041   */\n      0x00\n        /* \"#utility.yul\":13068:13119   */\n      tag_254\n        /* \"#utility.yul\":13116:13117   */\n      0x00\n        /* \"#utility.yul\":13112:13118   */\n      not\n        /* \"#utility.yul\":13104:13109   */\n      dup5\n        /* \"#utility.yul\":13101:13102   */\n      0x08\n        /* \"#utility.yul\":13097:13110   */\n      mul\n        /* \"#utility.yul\":13068:13119   */\n      tag_110\n      jump\t// in\n    tag_254:\n        /* \"#utility.yul\":13064:13120   */\n      not\n        /* \"#utility.yul\":13149:13153   */\n      dup1\n        /* \"#utility.yul\":13143:13147   */\n      dup4\n        /* \"#utility.yul\":13139:13154   */\n      and\n        /* \"#utility.yul\":13129:13154   */\n      swap2\n      pop\n        /* \"#utility.yul\":13042:13160   */\n      pop\n        /* \"#utility.yul\":12991:13160   */\n      swap3\n      swap2\n      pop\n      pop\n      jump\t// out\n        /* \"#utility.yul\":13165:13460   */\n    tag_112:\n        /* \"#utility.yul\":13241:13245   */\n      0x00\n        /* \"#utility.yul\":13387:13416   */\n      tag_256\n        /* \"#utility.yul\":13412:13415   */\n      dup4\n        /* \"#utility.yul\":13406:13410   */\n      dup4\n        /* \"#utility.yul\":13387:13416   */\n      tag_111\n      jump\t// in\n    tag_256:\n        /* \"#utility.yul\":13379:13416   */\n      swap2\n      pop\n        /* \"#utility.yul\":13449:13452   */\n      dup3\n        /* \"#utility.yul\":13446:13447   */\n      0x02\n        /* \"#utility.yul\":13442:13453   */\n      mul\n        /* \"#utility.yul\":13436:13440   */\n      dup3\n        /* \"#utility.yul\":13433:13454   */\n      or\n        /* \"#utility.yul\":13425:13454   */\n      swap1\n      pop\n        /* \"#utility.yul\":13165:13460   */\n      swap3\n      swap2\n      pop\n      pop\n      jump\t// out\n        /* \"#utility.yul\":13465:14855   */\n    tag_47:\n        /* \"#utility.yul\":13580:13616   */\n      tag_258\n        /* \"#utility.yul\":13612:13615   */\n      dup3\n        /* \"#utility.yul\":13580:13616   */\n      tag_73\n      jump\t// in\n    tag_258:\n        /* \"#utility.yul\":13681:13699   */\n      0xffffffffffffffff\n        /* \"#utility.yul\":13673:13679   */\n      dup2\n        /* \"#utility.yul\":13670:13700   */\n      gt\n        /* \"#utility.yul\":13667:13723   */\n      iszero\n      tag_259\n      jumpi\n        /* \"#utility.yul\":13703:13721   */\n      tag_260\n      tag_84\n      jump\t// in\n    tag_260:\n        /* \"#utility.yul\":13667:13723   */\n    tag_259:\n        /* \"#utility.yul\":13747:13785   */\n      tag_261\n        /* \"#utility.yul\":13779:13783   */\n      dup3\n        /* \"#utility.yul\":13773:13784   */\n      sload\n        /* \"#utility.yul\":13747:13785   */\n      tag_30\n      jump\t// in\n    tag_261:\n        /* \"#utility.yul\":13832:13898   */\n      tag_262\n        /* \"#utility.yul\":13891:13897   */\n      dup3\n        /* \"#utility.yul\":13883:13889   */\n      dup3\n        /* \"#utility.yul\":13877:13881   */\n      dup6\n        /* \"#utility.yul\":13832:13898   */\n      tag_109\n      jump\t// in\n    tag_262:\n        /* \"#utility.yul\":13925:13926   */\n      0x00\n        /* \"#utility.yul\":13949:13953   */\n      0x20\n        /* \"#utility.yul\":13936:13953   */\n      swap1\n      pop\n        /* \"#utility.yul\":13981:13983   */\n      0x1f\n        /* \"#utility.yul\":13973:13979   */\n      dup4\n        /* \"#utility.yul\":13970:13984   */\n      gt\n        /* \"#utility.yul\":13998:13999   */\n      0x01\n        /* \"#utility.yul\":13993:14610   */\n      dup2\n      eq\n      tag_264\n      jumpi\n        /* \"#utility.yul\":14654:14655   */\n      0x00\n        /* \"#utility.yul\":14671:14677   */\n      dup5\n        /* \"#utility.yul\":14668:14745   */\n      iszero\n      tag_265\n      jumpi\n        /* \"#utility.yul\":14720:14729   */\n      dup3\n        /* \"#utility.yul\":14715:14718   */\n      dup8\n        /* \"#utility.yul\":14711:14730   */\n      add\n        /* \"#utility.yul\":14705:14731   */\n      mload\n        /* \"#utility.yul\":14696:14731   */\n      swap1\n      pop\n        /* \"#utility.yul\":14668:14745   */\n    tag_265:\n        /* \"#utility.yul\":14771:14838   */\n      tag_266\n        /* \"#utility.yul\":14831:14837   */\n      dup6\n        /* \"#utility.yul\":14824:14829   */\n      dup3\n        /* \"#utility.yul\":14771:14838   */\n      tag_112\n      jump\t// in\n    tag_266:\n        /* \"#utility.yul\":14765:14769   */\n      dup7\n        /* \"#utility.yul\":14758:14839   */\n      sstore\n        /* \"#utility.yul\":14627:14849   */\n      pop\n        /* \"#utility.yul\":13963:14849   */\n      jump(tag_263)\n        /* \"#utility.yul\":13993:14610   */\n    tag_264:\n        /* \"#utility.yul\":14045:14049   */\n      0x1f\n        /* \"#utility.yul\":14041:14050   */\n      not\n        /* \"#utility.yul\":14033:14039   */\n      dup5\n        /* \"#utility.yul\":14029:14051   */\n      and\n        /* \"#utility.yul\":14079:14115   */\n      tag_267\n        /* \"#utility.yul\":14110:14114   */\n      dup7\n        /* \"#utility.yul\":14079:14115   */\n      tag_98\n      jump\t// in\n    tag_267:\n        /* \"#utility.yul\":14137:14138   */\n      0x00\n        /* \"#utility.yul\":14151:14359   */\n    tag_268:\n        /* \"#utility.yul\":14165:14172   */\n      dup3\n        /* \"#utility.yul\":14162:14163   */\n      dup2\n        /* \"#utility.yul\":14159:14173   */\n      lt\n        /* \"#utility.yul\":14151:14359   */\n      iszero\n      tag_270\n      jumpi\n        /* \"#utility.yul\":14244:14253   */\n      dup5\n        /* \"#utility.yul\":14239:14242   */\n      dup10\n        /* \"#utility.yul\":14235:14254   */\n      add\n        /* \"#utility.yul\":14229:14255   */\n      mload\n        /* \"#utility.yul\":14221:14227   */\n      dup3\n        /* \"#utility.yul\":14214:14256   */\n      sstore\n        /* \"#utility.yul\":14295:14296   */\n      0x01\n        /* \"#utility.yul\":14287:14293   */\n      dup3\n        /* \"#utility.yul\":14283:14297   */\n      add\n        /* \"#utility.yul\":14273:14297   */\n      swap2\n      pop\n        /* \"#utility.yul\":14342:14344   */\n      0x20\n        /* \"#utility.yul\":14331:14340   */\n      dup6\n        /* \"#utility.yul\":14327:14345   */\n      add\n        /* \"#utility.yul\":14314:14345   */\n      swap5\n      pop\n        /* \"#utility.yul\":14188:14192   */\n      0x20\n        /* \"#utility.yul\":14185:14186   */\n      dup2\n        /* \"#utility.yul\":14181:14193   */\n      add\n        /* \"#utility.yul\":14176:14193   */\n      swap1\n      pop\n        /* \"#utility.yul\":14151:14359   */\n      jump(tag_268)\n    tag_270:\n        /* \"#utility.yul\":14387:14393   */\n      dup7\n        /* \"#utility.yul\":14378:14385   */\n      dup4\n        /* \"#utility.yul\":14375:14394   */\n      lt\n        /* \"#utility.yul\":14372:14551   */\n      iszero\n      tag_271\n      jumpi\n        /* \"#utility.yul\":14445:14454   */\n      dup5\n        /* \"#utility.yul\":14440:14443   */\n      dup10\n        /* \"#utility.yul\":14436:14455   */\n      add\n        /* \"#utility.yul\":14430:14456   */\n      mload\n        /* \"#utility.yul\":14488:14536   */\n      tag_272\n        /* \"#utility.yul\":14530:14534   */\n      0x1f\n        /* \"#utility.yul\":14522:14528   */\n      dup10\n        /* \"#utility.yul\":14518:14535   */\n      and\n        /* \"#utility.yul\":14507:14516   */\n      dup3\n        /* \"#utility.yul\":14488:14536   */\n      tag_111\n      jump\t// in\n    tag_272:\n        /* \"#utility.yul\":14480:14486   */\n      dup4\n        /* \"#utility.yul\":14473:14537   */\n      sstore\n        /* \"#utility.yul\":14395:14551   */\n      pop\n        /* \"#utility.yul\":14372:14551   */\n    tag_271:\n        /* \"#utility.yul\":14597:14598   */\n      0x01\n        /* \"#utility.yul\":14593:14594   */\n      0x02\n        /* \"#utility.yul\":14585:14591   */\n      dup9\n        /* \"#utility.yul\":14581:14595   */\n      mul\n        /* \"#utility.yul\":14577:14599   */\n      add\n        /* \"#utility.yul\":14571:14575   */\n      dup9\n        /* \"#utility.yul\":14564:14600   */\n      sstore\n        /* \"#utility.yul\":14000:14610   */\n      pop\n      pop\n      pop\n        /* \"#utility.yul\":13963:14849   */\n    tag_263:\n      pop\n        /* \"#utility.yul\":13555:14855   */\n      pop\n      pop\n      pop\n        /* \"#utility.yul\":13465:14855   */\n      pop\n      pop\n      jump\t// out\n        /* \"#utility.yul\":14861:15041   */\n    tag_113:\n        /* \"#utility.yul\":14909:14986   */\n      0x4e487b7100000000000000000000000000000000000000000000000000000000\n        /* \"#utility.yul\":14906:14907   */\n      0x00\n        /* \"#utility.yul\":14899:14987   */\n      mstore\n        /* \"#utility.yul\":15006:15010   */\n      0x11\n        /* \"#utility.yul\":15003:15004   */\n      0x04\n        /* \"#utility.yul\":14996:15011   */\n      mstore\n        /* \"#utility.yul\":15030:15034   */\n      0x24\n        /* \"#utility.yul\":15027:15028   */\n      0x00\n        /* \"#utility.yul\":15020:15035   */\n      revert\n        /* \"#utility.yul\":15047:15280   */\n    tag_51:\n        /* \"#utility.yul\":15086:15089   */\n      0x00\n        /* \"#utility.yul\":15109:15133   */\n      tag_275\n        /* \"#utility.yul\":15127:15132   */\n      dup3\n        /* \"#utility.yul\":15109:15133   */\n      tag_70\n      jump\t// in\n    tag_275:\n        /* \"#utility.yul\":15100:15133   */\n      swap2\n      pop\n        /* \"#utility.yul\":15155:15221   */\n      0xffffffffffffffffffffffffffffffffffffffffffffffffffffffffffffffff\n        /* \"#utility.yul\":15148:15153   */\n      dup3\n        /* \"#utility.yul\":15145:15222   */\n      sub\n        /* \"#utility.yul\":15142:15245   */\n      tag_276\n      jumpi\n        /* \"#utility.yul\":15225:15243   */\n      tag_277\n      tag_113\n      jump\t// in\n    tag_277:\n        /* \"#utility.yul\":15142:15245   */\n    tag_276:\n        /* \"#utility.yul\":15272:15273   */\n      0x01\n        /* \"#utility.yul\":15265:15270   */\n      dup3\n        /* \"#utility.yul\":15261:15274   */\n      add\n        /* \"#utility.yul\":15254:15274   */\n      swap1\n      pop\n        /* \"#utility.yul\":15047:15280   */\n      swap2\n      swap1\n      pop\n      jump\t// out\n\n    auxdata: 0xa2646970667358221220acecba4fce21ec3ce46a2db0f24fe5107545e6640913f0b8de91d2c5d652c82464736f6c63430008120033\n}\n",
				"bytecode": {
					"linkReferences": {},
					"object": "6080604052600160005534801561001557600080fd5b50610fd9806100256000396000f3fe608060405234801561001057600080fd5b506004361061004c5760003560e01c80630178fe3f1461005157806321c4e07f146100815780633cf8ddf21461009d578063d2bf193d146100bb575b600080fd5b61006b6004803603810190610066919061078f565b6100ef565b6040516100789190610911565b60405180910390f35b61009b60048036038101906100969190610a94565b61037e565b005b6100a56104d6565b6040516100b29190610b72565b60405180910390f35b6100d560048036038101906100d0919061078f565b6104dc565b6040516100e6959493929190610be6565b60405180910390f35b6100f76106ea565b600260008381526020019081526020016000206040518060a001604052908160008201805461012590610c7d565b80601f016020809104026020016040519081016040528092919081815260200182805461015190610c7d565b801561019e5780601f106101735761010080835404028352916020019161019e565b820191906000526020600020905b81548152906001019060200180831161018157829003601f168201915b505050505081526020016001820160009054906101000a900473ffffffffffffffffffffffffffffffffffffffff1673ffffffffffffffffffffffffffffffffffffffff1673ffffffffffffffffffffffffffffffffffffffff1681526020016002820160009054906101000a900473ffffffffffffffffffffffffffffffffffffffff1673ffffffffffffffffffffffffffffffffffffffff1673ffffffffffffffffffffffffffffffffffffffff16815260200160038201805461026390610c7d565b80601f016020809104026020016040519081016040528092919081815260200182805461028f90610c7d565b80156102dc5780601f106102b1576101008083540402835291602001916102dc565b820191906000526020600020905b8154815290600101906020018083116102bf57829003601f168201915b505050505081526020016004820180546102f590610c7d565b80601f016020809104026020016040519081016040528092919081815260200182805461032190610c7d565b801561036e5780601f106103435761010080835404028352916020019161036e565b820191906000526020600020905b81548152906001019060200180831161035157829003601f168201915b5050505050815250509050919050565b6040518060a001604052808681526020018573ffffffffffffffffffffffffffffffffffffffff1681526020018473ffffffffffffffffffffffffffffffffffffffff16815260200183815260200182815250600260008054815260200190815260200160002060008201518160000190816103fa9190610e5a565b5060208201518160010160006101000a81548173ffffffffffffffffffffffffffffffffffffffff021916908373ffffffffffffffffffffffffffffffffffffffff16021790555060408201518160020160006101000a81548173ffffffffffffffffffffffffffffffffffffffff021916908373ffffffffffffffffffffffffffffffffffffffff160217905550606082015181600301908161049e9190610e5a565b5060808201518160040190816104b49190610e5a565b509050506000808154809291906104ca90610f5b565b91905055505050505050565b60005481565b60026020528060005260406000206000915090508060000180546104ff90610c7d565b80601f016020809104026020016040519081016040528092919081815260200182805461052b90610c7d565b80156105785780601f1061054d57610100808354040283529160200191610578565b820191906000526020600020905b81548152906001019060200180831161055b57829003601f168201915b5050505050908060010160009054906101000a900473ffffffffffffffffffffffffffffffffffffffff16908060020160009054906101000a900473ffffffffffffffffffffffffffffffffffffffff16908060030180546105d990610c7d565b80601f016020809104026020016040519081016040528092919081815260200182805461060590610c7d565b80156106525780601f1061062757610100808354040283529160200191610652565b820191906000526020600020905b81548152906001019060200180831161063557829003601f168201915b50505050509080600401805461066790610c7d565b80601f016020809104026020016040519081016040528092919081815260200182805461069390610c7d565b80156106e05780601f106106b5576101008083540402835291602001916106e0565b820191906000526020600020905b8154815290600101906020018083116106c357829003601f168201915b5050505050905085565b6040518060a0016040528060608152602001600073ffffffffffffffffffffffffffffffffffffffff168152602001600073ffffffffffffffffffffffffffffffffffffffff16815260200160608152602001606081525090565b6000604051905090565b600080fd5b600080fd5b6000819050919050565b61076c81610759565b811461077757600080fd5b50565b60008135905061078981610763565b92915050565b6000602082840312156107a5576107a461074f565b5b60006107b38482850161077a565b91505092915050565b600081519050919050565b600082825260208201905092915050565b60005b838110156107f65780820151818401526020810190506107db565b60008484015250505050565b6000601f19601f8301169050919050565b600061081e826107bc565b61082881856107c7565b93506108388185602086016107d8565b61084181610802565b840191505092915050565b600073ffffffffffffffffffffffffffffffffffffffff82169050919050565b60006108778261084c565b9050919050565b6108878161086c565b82525050565b600060a08301600083015184820360008601526108aa8282610813565b91505060208301516108bf602086018261087e565b5060408301516108d2604086018261087e565b50606083015184820360608601526108ea8282610813565b915050608083015184820360808601526109048282610813565b9150508091505092915050565b6000602082019050818103600083015261092b818461088d565b905092915050565b600080fd5b600080fd5b7f4e487b7100000000000000000000000000000000000000000000000000000000600052604160045260246000fd5b61097582610802565b810181811067ffffffffffffffff821117156109945761099361093d565b5b80604052505050565b60006109a7610745565b90506109b3828261096c565b919050565b600067ffffffffffffffff8211156109d3576109d261093d565b5b6109dc82610802565b9050602081019050919050565b82818337600083830152505050565b6000610a0b610a06846109b8565b61099d565b905082815260208101848484011115610a2757610a26610938565b5b610a328482856109e9565b509392505050565b600082601f830112610a4f57610a4e610933565b5b8135610a5f8482602086016109f8565b91505092915050565b610a718161086c565b8114610a7c57600080fd5b50565b600081359050610a8e81610a68565b92915050565b600080600080600060a08688031215610ab057610aaf61074f565b5b600086013567ffffffffffffffff811115610ace57610acd610754565b5b610ada88828901610a3a565b9550506020610aeb88828901610a7f565b9450506040610afc88828901610a7f565b935050606086013567ffffffffffffffff811115610b1d57610b1c610754565b5b610b2988828901610a3a565b925050608086013567ffffffffffffffff811115610b4a57610b49610754565b5b610b5688828901610a3a565b9150509295509295909350565b610b6c81610759565b82525050565b6000602082019050610b876000830184610b63565b92915050565b600082825260208201905092915050565b6000610ba9826107bc565b610bb38185610b8d565b9350610bc38185602086016107d8565b610bcc81610802565b840191505092915050565b610be08161086c565b82525050565b600060a0820190508181036000830152610c008188610b9e565b9050610c0f6020830187610bd7565b610c1c6040830186610bd7565b8181036060830152610c2e8185610b9e565b90508181036080830152610c428184610b9e565b90509695505050505050565b7f4e487b7100000000000000000000000000000000000000000000000000000000600052602260045260246000fd5b60006002820490506001821680610c9557607f821691505b602082108103610ca857610ca7610c4e565b5b50919050565b60008190508160005260206000209050919050565b60006020601f8301049050919050565b600082821b905092915050565b600060088302610d107fffffffffffffffffffffffffffffffffffffffffffffffffffffffffffffffff82610cd3565b610d1a8683610cd3565b95508019841693508086168417925050509392505050565b6000819050919050565b6000610d57610d52610d4d84610759565b610d32565b610759565b9050919050565b6000819050919050565b610d7183610d3c565b610d85610d7d82610d5e565b848454610ce0565b825550505050565b600090565b610d9a610d8d565b610da5818484610d68565b505050565b5b81811015610dc957610dbe600082610d92565b600181019050610dab565b5050565b601f821115610e0e57610ddf81610cae565b610de884610cc3565b81016020851015610df7578190505b610e0b610e0385610cc3565b830182610daa565b50505b505050565b600082821c905092915050565b6000610e3160001984600802610e13565b1980831691505092915050565b6000610e4a8383610e20565b9150826002028217905092915050565b610e63826107bc565b67ffffffffffffffff811115610e7c57610e7b61093d565b5b610e868254610c7d565b610e91828285610dcd565b600060209050601f831160018114610ec45760008415610eb2578287015190505b610ebc8582610e3e565b865550610f24565b601f198416610ed286610cae565b60005b82811015610efa57848901518255600182019150602085019450602081019050610ed5565b86831015610f175784890151610f13601f891682610e20565b8355505b6001600288020188555050505b505050505050565b7f4e487b7100000000000000000000000000000000000000000000000000000000600052601160045260246000fd5b6000610f6682610759565b91507fffffffffffffffffffffffffffffffffffffffffffffffffffffffffffffffff8203610f9857610f97610f2c565b5b60018201905091905056fea2646970667358221220acecba4fce21ec3ce46a2db0f24fe5107545e6640913f0b8de91d2c5d652c82464736f6c63430008120033",
					"opcodes": "PUSH1 0x80 PUSH1 0x40 MSTORE PUSH1 0x1 PUSH1 0x0 SSTORE CALLVALUE DUP1 ISZERO PUSH2 0x15 JUMPI PUSH1 0x0 DUP1 REVERT JUMPDEST POP PUSH2 0xFD9 DUP1 PUSH2 0x25 PUSH1 0x0 CODECOPY PUSH1 0x0 RETURN INVALID PUSH1 0x80 PUSH1 0x40 MSTORE CALLVALUE DUP1 ISZERO PUSH2 0x10 JUMPI PUSH1 0x0 DUP1 REVERT JUMPDEST POP PUSH1 0x4 CALLDATASIZE LT PUSH2 0x4C JUMPI PUSH1 0x0 CALLDATALOAD PUSH1 0xE0 SHR DUP1 PUSH4 0x178FE3F EQ PUSH2 0x51 JUMPI DUP1 PUSH4 0x21C4E07F EQ PUSH2 0x81 JUMPI DUP1 PUSH4 0x3CF8DDF2 EQ PUSH2 0x9D JUMPI DUP1 PUSH4 0xD2BF193D EQ PUSH2 0xBB JUMPI JUMPDEST PUSH1 0x0 DUP1 REVERT JUMPDEST PUSH2 0x6B PUSH1 0x4 DUP1 CALLDATASIZE SUB DUP2 ADD SWAP1 PUSH2 0x66 SWAP2 SWAP1 PUSH2 0x78F JUMP JUMPDEST PUSH2 0xEF JUMP JUMPDEST PUSH1 0x40 MLOAD PUSH2 0x78 SWAP2 SWAP1 PUSH2 0x911 JUMP JUMPDEST PUSH1 0x40 MLOAD DUP1 SWAP2 SUB SWAP1 RETURN JUMPDEST PUSH2 0x9B PUSH1 0x4 DUP1 CALLDATASIZE SUB DUP2 ADD SWAP1 PUSH2 0x96 SWAP2 SWAP1 PUSH2 0xA94 JUMP JUMPDEST PUSH2 0x37E JUMP JUMPDEST STOP JUMPDEST PUSH2 0xA5 PUSH2 0x4D6 JUMP JUMPDEST PUSH1 0x40 MLOAD PUSH2 0xB2 SWAP2 SWAP1 PUSH2 0xB72 JUMP JUMPDEST PUSH1 0x40 MLOAD DUP1 SWAP2 SUB SWAP1 RETURN JUMPDEST PUSH2 0xD5 PUSH1 0x4 DUP1 CALLDATASIZE SUB DUP2 ADD SWAP1 PUSH2 0xD0 SWAP2 SWAP1 PUSH2 0x78F JUMP JUMPDEST PUSH2 0x4DC JUMP JUMPDEST PUSH1 0x40 MLOAD PUSH2 0xE6 SWAP6 SWAP5 SWAP4 SWAP3 SWAP2 SWAP1 PUSH2 0xBE6 JUMP JUMPDEST PUSH1 0x40 MLOAD DUP1 SWAP2 SUB SWAP1 RETURN JUMPDEST PUSH2 0xF7 PUSH2 0x6EA JUMP JUMPDEST PUSH1 0x2 PUSH1 0x0 DUP4 DUP2 MSTORE PUSH1 0x20 ADD SWAP1 DUP2 MSTORE PUSH1 0x20 ADD PUSH1 0x0 KECCAK256 PUSH1 0x40 MLOAD DUP1 PUSH1 0xA0 ADD PUSH1 0x40 MSTORE SWAP1 DUP2 PUSH1 0x0 DUP3 ADD DUP1 SLOAD PUSH2 0x125 SWAP1 PUSH2 0xC7D JUMP JUMPDEST DUP1 PUSH1 0x1F ADD PUSH1 0x20 DUP1 SWAP2 DIV MUL PUSH1 0x20 ADD PUSH1 0x40 MLOAD SWAP1 DUP2 ADD PUSH1 0x40 MSTORE DUP1 SWAP3 SWAP2 SWAP1 DUP2 DUP2 MSTORE PUSH1 0x20 ADD DUP3 DUP1 SLOAD PUSH2 0x151 SWAP1 PUSH2 0xC7D JUMP JUMPDEST DUP1 ISZERO PUSH2 0x19E JUMPI DUP1 PUSH1 0x1F LT PUSH2 0x173 JUMPI PUSH2 0x100 DUP1 DUP4 SLOAD DIV MUL DUP4 MSTORE SWAP2 PUSH1 0x20 ADD SWAP2 PUSH2 0x19E JUMP JUMPDEST DUP3 ADD SWAP2 SWAP1 PUSH1 0x0 MSTORE PUSH1 0x20 PUSH1 0x0 KECCAK256 SWAP1 JUMPDEST DUP2 SLOAD DUP2 MSTORE SWAP1 PUSH1 0x1 ADD SWAP1 PUSH1 0x20 ADD DUP1 DUP4 GT PUSH2 0x181 JUMPI DUP3 SWAP1 SUB PUSH1 0x1F AND DUP3 ADD SWAP2 JUMPDEST POP POP POP POP POP DUP2 MSTORE PUSH1 0x20 ADD PUSH1 0x1 DUP3 ADD PUSH1 0x0 SWAP1 SLOAD SWAP1 PUSH2 0x100 EXP SWAP1 DIV PUSH20 0xFFFFFFFFFFFFFFFFFFFFFFFFFFFFFFFFFFFFFFFF AND PUSH20 0xFFFFFFFFFFFFFFFFFFFFFFFFFFFFFFFFFFFFFFFF AND PUSH20 0xFFFFFFFFFFFFFFFFFFFFFFFFFFFFFFFFFFFFFFFF AND DUP2 MSTORE PUSH1 0x20 ADD PUSH1 0x2 DUP3 ADD PUSH1 0x0 SWAP1 SLOAD SWAP1 PUSH2 0x100 EXP SWAP1 DIV PUSH20 0xFFFFFFFFFFFFFFFFFFFFFFFFFFFFFFFFFFFFFFFF AND PUSH20 0xFFFFFFFFFFFFFFFFFFFFFFFFFFFFFFFFFFFFFFFF AND PUSH20 0xFFFFFFFFFFFFFFFFFFFFFFFFFFFFFFFFFFFFFFFF AND DUP2 MSTORE PUSH1 0x20 ADD PUSH1 0x3 DUP3 ADD DUP1 SLOAD PUSH2 0x263 SWAP1 PUSH2 0xC7D JUMP JUMPDEST DUP1 PUSH1 0x1F ADD PUSH1 0x20 DUP1 SWAP2 DIV MUL PUSH1 0x20 ADD PUSH1 0x40 MLOAD SWAP1 DUP2 ADD PUSH1 0x40 MSTORE DUP1 SWAP3 SWAP2 SWAP1 DUP2 DUP2 MSTORE PUSH1 0x20 ADD DUP3 DUP1 SLOAD PUSH2 0x28F SWAP1 PUSH2 0xC7D JUMP JUMPDEST DUP1 ISZERO PUSH2 0x2DC JUMPI DUP1 PUSH1 0x1F LT PUSH2 0x2B1 JUMPI PUSH2 0x100 DUP1 DUP4 SLOAD DIV MUL DUP4 MSTORE SWAP2 PUSH1 0x20 ADD SWAP2 PUSH2 0x2DC JUMP JUMPDEST DUP3 ADD SWAP2 SWAP1 PUSH1 0x0 MSTORE PUSH1 0x20 PUSH1 0x0 KECCAK256 SWAP1 JUMPDEST DUP2 SLOAD DUP2 MSTORE SWAP1 PUSH1 0x1 ADD SWAP1 PUSH1 0x20 ADD DUP1 DUP4 GT PUSH2 0x2BF JUMPI DUP3 SWAP1 SUB PUSH1 0x1F AND DUP3 ADD SWAP2 JUMPDEST POP POP POP POP POP DUP2 MSTORE PUSH1 0x20 ADD PUSH1 0x4 DUP3 ADD DUP1 SLOAD PUSH2 0x2F5 SWAP1 PUSH2 0xC7D JUMP JUMPDEST DUP1 PUSH1 0x1F ADD PUSH1 0x20 DUP1 SWAP2 DIV MUL PUSH1 0x20 ADD PUSH1 0x40 MLOAD SWAP1 DUP2 ADD PUSH1 0x40 MSTORE DUP1 SWAP3 SWAP2 SWAP1 DUP2 DUP2 MSTORE PUSH1 0x20 ADD DUP3 DUP1 SLOAD PUSH2 0x321 SWAP1 PUSH2 0xC7D JUMP JUMPDEST DUP1 ISZERO PUSH2 0x36E JUMPI DUP1 PUSH1 0x1F LT PUSH2 0x343 JUMPI PUSH2 0x100 DUP1 DUP4 SLOAD DIV MUL DUP4 MSTORE SWAP2 PUSH1 0x20 ADD SWAP2 PUSH2 0x36E JUMP JUMPDEST DUP3 ADD SWAP2 SWAP1 PUSH1 0x0 MSTORE PUSH1 0x20 PUSH1 0x0 KECCAK256 SWAP1 JUMPDEST DUP2 SLOAD DUP2 MSTORE SWAP1 PUSH1 0x1 ADD SWAP1 PUSH1 0x20 ADD DUP1 DUP4 GT PUSH2 0x351 JUMPI DUP3 SWAP1 SUB PUSH1 0x1F AND DUP3 ADD SWAP2 JUMPDEST POP POP POP POP POP DUP2 MSTORE POP POP SWAP1 POP SWAP2 SWAP1 POP JUMP JUMPDEST PUSH1 0x40 MLOAD DUP1 PUSH1 0xA0 ADD PUSH1 0x40 MSTORE DUP1 DUP7 DUP2 MSTORE PUSH1 0x20 ADD DUP6 PUSH20 0xFFFFFFFFFFFFFFFFFFFFFFFFFFFFFFFFFFFFFFFF AND DUP2 MSTORE PUSH1 0x20 ADD DUP5 PUSH20 0xFFFFFFFFFFFFFFFFFFFFFFFFFFFFFFFFFFFFFFFF AND DUP2 MSTORE PUSH1 0x20 ADD DUP4 DUP2 MSTORE PUSH1 0x20 ADD DUP3 DUP2 MSTORE POP PUSH1 0x2 PUSH1 0x0 DUP1 SLOAD DUP2 MSTORE PUSH1 0x20 ADD SWAP1 DUP2 MSTORE PUSH1 0x20 ADD PUSH1 0x0 KECCAK256 PUSH1 0x0 DUP3 ADD MLOAD DUP2 PUSH1 0x0 ADD SWAP1 DUP2 PUSH2 0x3FA SWAP2 SWAP1 PUSH2 0xE5A JUMP JUMPDEST POP PUSH1 0x20 DUP3 ADD MLOAD DUP2 PUSH1 0x1 ADD PUSH1 0x0 PUSH2 0x100 EXP DUP2 SLOAD DUP2 PUSH20 0xFFFFFFFFFFFFFFFFFFFFFFFFFFFFFFFFFFFFFFFF MUL NOT AND SWAP1 DUP4 PUSH20 0xFFFFFFFFFFFFFFFFFFFFFFFFFFFFFFFFFFFFFFFF AND MUL OR SWAP1 SSTORE POP PUSH1 0x40 DUP3 ADD MLOAD DUP2 PUSH1 0x2 ADD PUSH1 0x0 PUSH2 0x100 EXP DUP2 SLOAD DUP2 PUSH20 0xFFFFFFFFFFFFFFFFFFFFFFFFFFFFFFFFFFFFFFFF MUL NOT AND SWAP1 DUP4 PUSH20 0xFFFFFFFFFFFFFFFFFFFFFFFFFFFFFFFFFFFFFFFF AND MUL OR SWAP1 SSTORE POP PUSH1 0x60 DUP3 ADD MLOAD DUP2 PUSH1 0x3 ADD SWAP1 DUP2 PUSH2 0x49E SWAP2 SWAP1 PUSH2 0xE5A JUMP JUMPDEST POP PUSH1 0x80 DUP3 ADD MLOAD DUP2 PUSH1 0x4 ADD SWAP1 DUP2 PUSH2 0x4B4 SWAP2 SWAP1 PUSH2 0xE5A JUMP JUMPDEST POP SWAP1 POP POP PUSH1 0x0 DUP1 DUP2 SLOAD DUP1 SWAP3 SWAP2 SWAP1 PUSH2 0x4CA SWAP1 PUSH2 0xF5B JUMP JUMPDEST SWAP2 SWAP1 POP SSTORE POP POP POP POP POP POP JUMP JUMPDEST PUSH1 0x0 SLOAD DUP2 JUMP JUMPDEST PUSH1 0x2 PUSH1 0x20 MSTORE DUP1 PUSH1 0x0 MSTORE PUSH1 0x40 PUSH1 0x0 KECCAK256 PUSH1 0x0 SWAP2 POP SWAP1 POP DUP1 PUSH1 0x0 ADD DUP1 SLOAD PUSH2 0x4FF SWAP1 PUSH2 0xC7D JUMP JUMPDEST DUP1 PUSH1 0x1F ADD PUSH1 0x20 DUP1 SWAP2 DIV MUL PUSH1 0x20 ADD PUSH1 0x40 MLOAD SWAP1 DUP2 ADD PUSH1 0x40 MSTORE DUP1 SWAP3 SWAP2 SWAP1 DUP2 DUP2 MSTORE PUSH1 0x20 ADD DUP3 DUP1 SLOAD PUSH2 0x52B SWAP1 PUSH2 0xC7D JUMP JUMPDEST DUP1 ISZERO PUSH2 0x578 JUMPI DUP1 PUSH1 0x1F LT PUSH2 0x54D JUMPI PUSH2 0x100 DUP1 DUP4 SLOAD DIV MUL DUP4 MSTORE SWAP2 PUSH1 0x20 ADD SWAP2 PUSH2 0x578 JUMP JUMPDEST DUP3 ADD SWAP2 SWAP1 PUSH1 0x0 MSTORE PUSH1 0x20 PUSH1 0x0 KECCAK256 SWAP1 JUMPDEST DUP2 SLOAD DUP2 MSTORE SWAP1 PUSH1 0x1 ADD SWAP1 PUSH1 0x20 ADD DUP1 DUP4 GT PUSH2 0x55B JUMPI DUP3 SWAP1 SUB PUSH1 0x1F AND DUP3 ADD SWAP2 JUMPDEST POP POP POP POP POP SWAP1 DUP1 PUSH1 0x1 ADD PUSH1 0x0 SWAP1 SLOAD SWAP1 PUSH2 0x100 EXP SWAP1 DIV PUSH20 0xFFFFFFFFFFFFFFFFFFFFFFFFFFFFFFFFFFFFFFFF AND SWAP1 DUP1 PUSH1 0x2 ADD PUSH1 0x0 SWAP1 SLOAD SWAP1 PUSH2 0x100 EXP SWAP1 DIV PUSH20 0xFFFFFFFFFFFFFFFFFFFFFFFFFFFFFFFFFFFFFFFF AND SWAP1 DUP1 PUSH1 0x3 ADD DUP1 SLOAD PUSH2 0x5D9 SWAP1 PUSH2 0xC7D JUMP JUMPDEST DUP1 PUSH1 0x1F ADD PUSH1 0x20 DUP1 SWAP2 DIV MUL PUSH1 0x20 ADD PUSH1 0x40 MLOAD SWAP1 DUP2 ADD PUSH1 0x40 MSTORE DUP1 SWAP3 SWAP2 SWAP1 DUP2 DUP2 MSTORE PUSH1 0x20 ADD DUP3 DUP1 SLOAD PUSH2 0x605 SWAP1 PUSH2 0xC7D JUMP JUMPDEST DUP1 ISZERO PUSH2 0x652 JUMPI DUP1 PUSH1 0x1F LT PUSH2 0x627 JUMPI PUSH2 0x100 DUP1 DUP4 SLOAD DIV MUL DUP4 MSTORE SWAP2 PUSH1 0x20 ADD SWAP2 PUSH2 0x652 JUMP JUMPDEST DUP3 ADD SWAP2 SWAP1 PUSH1 0x0 MSTORE PUSH1 0x20 PUSH1 0x0 KECCAK256 SWAP1 JUMPDEST DUP2 SLOAD DUP2 MSTORE SWAP1 PUSH1 0x1 ADD SWAP1 PUSH1 0x20 ADD DUP1 DUP4 GT PUSH2 0x635 JUMPI DUP3 SWAP1 SUB PUSH1 0x1F AND DUP3 ADD SWAP2 JUMPDEST POP POP POP POP POP SWAP1 DUP1 PUSH1 0x4 ADD DUP1 SLOAD PUSH2 0x667 SWAP1 PUSH2 0xC7D JUMP JUMPDEST DUP1 PUSH1 0x1F ADD PUSH1 0x20 DUP1 SWAP2 DIV MUL PUSH1 0x20 ADD PUSH1 0x40 MLOAD SWAP1 DUP2 ADD PUSH1 0x40 MSTORE DUP1 SWAP3 SWAP2 SWAP1 DUP2 DUP2 MSTORE PUSH1 0x20 ADD DUP3 DUP1 SLOAD PUSH2 0x693 SWAP1 PUSH2 0xC7D JUMP JUMPDEST DUP1 ISZERO PUSH2 0x6E0 JUMPI DUP1 PUSH1 0x1F LT PUSH2 0x6B5 JUMPI PUSH2 0x100 DUP1 DUP4 SLOAD DIV MUL DUP4 MSTORE SWAP2 PUSH1 0x20 ADD SWAP2 PUSH2 0x6E0 JUMP JUMPDEST DUP3 ADD SWAP2 SWAP1 PUSH1 0x0 MSTORE PUSH1 0x20 PUSH1 0x0 KECCAK256 SWAP1 JUMPDEST DUP2 SLOAD DUP2 MSTORE SWAP1 PUSH1 0x1 ADD SWAP1 PUSH1 0x20 ADD DUP1 DUP4 GT PUSH2 0x6C3 JUMPI DUP3 SWAP1 SUB PUSH1 0x1F AND DUP3 ADD SWAP2 JUMPDEST POP POP POP POP POP SWAP1 POP DUP6 JUMP JUMPDEST PUSH1 0x40 MLOAD DUP1 PUSH1 0xA0 ADD PUSH1 0x40 MSTORE DUP1 PUSH1 0x60 DUP2 MSTORE PUSH1 0x20 ADD PUSH1 0x0 PUSH20 0xFFFFFFFFFFFFFFFFFFFFFFFFFFFFFFFFFFFFFFFF AND DUP2 MSTORE PUSH1 0x20 ADD PUSH1 0x0 PUSH20 0xFFFFFFFFFFFFFFFFFFFFFFFFFFFFFFFFFFFFFFFF AND DUP2 MSTORE PUSH1 0x20 ADD PUSH1 0x60 DUP2 MSTORE PUSH1 0x20 ADD PUSH1 0x60 DUP2 MSTORE POP SWAP1 JUMP JUMPDEST PUSH1 0x0 PUSH1 0x40 MLOAD SWAP1 POP SWAP1 JUMP JUMPDEST PUSH1 0x0 DUP1 REVERT JUMPDEST PUSH1 0x0 DUP1 REVERT JUMPDEST PUSH1 0x0 DUP2 SWAP1 POP SWAP2 SWAP1 POP JUMP JUMPDEST PUSH2 0x76C DUP2 PUSH2 0x759 JUMP JUMPDEST DUP2 EQ PUSH2 0x777 JUMPI PUSH1 0x0 DUP1 REVERT JUMPDEST POP JUMP JUMPDEST PUSH1 0x0 DUP2 CALLDATALOAD SWAP1 POP PUSH2 0x789 DUP2 PUSH2 0x763 JUMP JUMPDEST SWAP3 SWAP2 POP POP JUMP JUMPDEST PUSH1 0x0 PUSH1 0x20 DUP3 DUP5 SUB SLT ISZERO PUSH2 0x7A5 JUMPI PUSH2 0x7A4 PUSH2 0x74F JUMP JUMPDEST JUMPDEST PUSH1 0x0 PUSH2 0x7B3 DUP5 DUP3 DUP6 ADD PUSH2 0x77A JUMP JUMPDEST SWAP2 POP POP SWAP3 SWAP2 POP POP JUMP JUMPDEST PUSH1 0x0 DUP2 MLOAD SWAP1 POP SWAP2 SWAP1 POP JUMP JUMPDEST PUSH1 0x0 DUP3 DUP3 MSTORE PUSH1 0x20 DUP3 ADD SWAP1 POP SWAP3 SWAP2 POP POP JUMP JUMPDEST PUSH1 0x0 JUMPDEST DUP4 DUP2 LT ISZERO PUSH2 0x7F6 JUMPI DUP1 DUP3 ADD MLOAD DUP2 DUP5 ADD MSTORE PUSH1 0x20 DUP2 ADD SWAP1 POP PUSH2 0x7DB JUMP JUMPDEST PUSH1 0x0 DUP5 DUP5 ADD MSTORE POP POP POP POP JUMP JUMPDEST PUSH1 0x0 PUSH1 0x1F NOT PUSH1 0x1F DUP4 ADD AND SWAP1 POP SWAP2 SWAP1 POP JUMP JUMPDEST PUSH1 0x0 PUSH2 0x81E DUP3 PUSH2 0x7BC JUMP JUMPDEST PUSH2 0x828 DUP2 DUP6 PUSH2 0x7C7 JUMP JUMPDEST SWAP4 POP PUSH2 0x838 DUP2 DUP6 PUSH1 0x20 DUP7 ADD PUSH2 0x7D8 JUMP JUMPDEST PUSH2 0x841 DUP2 PUSH2 0x802 JUMP JUMPDEST DUP5 ADD SWAP2 POP POP SWAP3 SWAP2 POP POP JUMP JUMPDEST PUSH1 0x0 PUSH20 0xFFFFFFFFFFFFFFFFFFFFFFFFFFFFFFFFFFFFFFFF DUP3 AND SWAP1 POP SWAP2 SWAP1 POP JUMP JUMPDEST PUSH1 0x0 PUSH2 0x877 DUP3 PUSH2 0x84C JUMP JUMPDEST SWAP1 POP SWAP2 SWAP1 POP JUMP JUMPDEST PUSH2 0x887 DUP2 PUSH2 0x86C JUMP JUMPDEST DUP3 MSTORE POP POP JUMP JUMPDEST PUSH1 0x0 PUSH1 0xA0 DUP4 ADD PUSH1 0x0 DUP4 ADD MLOAD DUP5 DUP3 SUB PUSH1 0x0 DUP7 ADD MSTORE PUSH2 0x8AA DUP3 DUP3 PUSH2 0x813 JUMP JUMPDEST SWAP2 POP POP PUSH1 0x20 DUP4 ADD MLOAD PUSH2 0x8BF PUSH1 0x20 DUP7 ADD DUP3 PUSH2 0x87E JUMP JUMPDEST POP PUSH1 0x40 DUP4 ADD MLOAD PUSH2 0x8D2 PUSH1 0x40 DUP7 ADD DUP3 PUSH2 0x87E JUMP JUMPDEST POP PUSH1 0x60 DUP4 ADD MLOAD DUP5 DUP3 SUB PUSH1 0x60 DUP7 ADD MSTORE PUSH2 0x8EA DUP3 DUP3 PUSH2 0x813 JUMP JUMPDEST SWAP2 POP POP PUSH1 0x80 DUP4 ADD MLOAD DUP5 DUP3 SUB PUSH1 0x80 DUP7 ADD MSTORE PUSH2 0x904 DUP3 DUP3 PUSH2 0x813 JUMP JUMPDEST SWAP2 POP POP DUP1 SWAP2 POP POP SWAP3 SWAP2 POP POP JUMP JUMPDEST PUSH1 0x0 PUSH1 0x20 DUP3 ADD SWAP1 POP DUP2 DUP2 SUB PUSH1 0x0 DUP4 ADD MSTORE PUSH2 0x92B DUP2 DUP5 PUSH2 0x88D JUMP JUMPDEST SWAP1 POP SWAP3 SWAP2 POP POP JUMP JUMPDEST PUSH1 0x0 DUP1 REVERT JUMPDEST PUSH1 0x0 DUP1 REVERT JUMPDEST PUSH32 0x4E487B7100000000000000000000000000000000000000000000000000000000 PUSH1 0x0 MSTORE PUSH1 0x41 PUSH1 0x4 MSTORE PUSH1 0x24 PUSH1 0x0 REVERT JUMPDEST PUSH2 0x975 DUP3 PUSH2 0x802 JUMP JUMPDEST DUP2 ADD DUP2 DUP2 LT PUSH8 0xFFFFFFFFFFFFFFFF DUP3 GT OR ISZERO PUSH2 0x994 JUMPI PUSH2 0x993 PUSH2 0x93D JUMP JUMPDEST JUMPDEST DUP1 PUSH1 0x40 MSTORE POP POP POP JUMP JUMPDEST PUSH1 0x0 PUSH2 0x9A7 PUSH2 0x745 JUMP JUMPDEST SWAP1 POP PUSH2 0x9B3 DUP3 DUP3 PUSH2 0x96C JUMP JUMPDEST SWAP2 SWAP1 POP JUMP JUMPDEST PUSH1 0x0 PUSH8 0xFFFFFFFFFFFFFFFF DUP3 GT ISZERO PUSH2 0x9D3 JUMPI PUSH2 0x9D2 PUSH2 0x93D JUMP JUMPDEST JUMPDEST PUSH2 0x9DC DUP3 PUSH2 0x802 JUMP JUMPDEST SWAP1 POP PUSH1 0x20 DUP2 ADD SWAP1 POP SWAP2 SWAP1 POP JUMP JUMPDEST DUP3 DUP2 DUP4 CALLDATACOPY PUSH1 0x0 DUP4 DUP4 ADD MSTORE POP POP POP JUMP JUMPDEST PUSH1 0x0 PUSH2 0xA0B PUSH2 0xA06 DUP5 PUSH2 0x9B8 JUMP JUMPDEST PUSH2 0x99D JUMP JUMPDEST SWAP1 POP DUP3 DUP2 MSTORE PUSH1 0x20 DUP2 ADD DUP5 DUP5 DUP5 ADD GT ISZERO PUSH2 0xA27 JUMPI PUSH2 0xA26 PUSH2 0x938 JUMP JUMPDEST JUMPDEST PUSH2 0xA32 DUP5 DUP3 DUP6 PUSH2 0x9E9 JUMP JUMPDEST POP SWAP4 SWAP3 POP POP POP JUMP JUMPDEST PUSH1 0x0 DUP3 PUSH1 0x1F DUP4 ADD SLT PUSH2 0xA4F JUMPI PUSH2 0xA4E PUSH2 0x933 JUMP JUMPDEST JUMPDEST DUP2 CALLDATALOAD PUSH2 0xA5F DUP5 DUP3 PUSH1 0x20 DUP7 ADD PUSH2 0x9F8 JUMP JUMPDEST SWAP2 POP POP SWAP3 SWAP2 POP POP JUMP JUMPDEST PUSH2 0xA71 DUP2 PUSH2 0x86C JUMP JUMPDEST DUP2 EQ PUSH2 0xA7C JUMPI PUSH1 0x0 DUP1 REVERT JUMPDEST POP JUMP JUMPDEST PUSH1 0x0 DUP2 CALLDATALOAD SWAP1 POP PUSH2 0xA8E DUP2 PUSH2 0xA68 JUMP JUMPDEST SWAP3 SWAP2 POP POP JUMP JUMPDEST PUSH1 0x0 DUP1 PUSH1 0x0 DUP1 PUSH1 0x0 PUSH1 0xA0 DUP7 DUP9 SUB SLT ISZERO PUSH2 0xAB0 JUMPI PUSH2 0xAAF PUSH2 0x74F JUMP JUMPDEST JUMPDEST PUSH1 0x0 DUP7 ADD CALLDATALOAD PUSH8 0xFFFFFFFFFFFFFFFF DUP2 GT ISZERO PUSH2 0xACE JUMPI PUSH2 0xACD PUSH2 0x754 JUMP JUMPDEST JUMPDEST PUSH2 0xADA DUP9 DUP3 DUP10 ADD PUSH2 0xA3A JUMP JUMPDEST SWAP6 POP POP PUSH1 0x20 PUSH2 0xAEB DUP9 DUP3 DUP10 ADD PUSH2 0xA7F JUMP JUMPDEST SWAP5 POP POP PUSH1 0x40 PUSH2 0xAFC DUP9 DUP3 DUP10 ADD PUSH2 0xA7F JUMP JUMPDEST SWAP4 POP POP PUSH1 0x60 DUP7 ADD CALLDATALOAD PUSH8 0xFFFFFFFFFFFFFFFF DUP2 GT ISZERO PUSH2 0xB1D JUMPI PUSH2 0xB1C PUSH2 0x754 JUMP JUMPDEST JUMPDEST PUSH2 0xB29 DUP9 DUP3 DUP10 ADD PUSH2 0xA3A JUMP JUMPDEST SWAP3 POP POP PUSH1 0x80 DUP7 ADD CALLDATALOAD PUSH8 0xFFFFFFFFFFFFFFFF DUP2 GT ISZERO PUSH2 0xB4A JUMPI PUSH2 0xB49 PUSH2 0x754 JUMP JUMPDEST JUMPDEST PUSH2 0xB56 DUP9 DUP3 DUP10 ADD PUSH2 0xA3A JUMP JUMPDEST SWAP2 POP POP SWAP3 SWAP6 POP SWAP3 SWAP6 SWAP1 SWAP4 POP JUMP JUMPDEST PUSH2 0xB6C DUP2 PUSH2 0x759 JUMP JUMPDEST DUP3 MSTORE POP POP JUMP JUMPDEST PUSH1 0x0 PUSH1 0x20 DUP3 ADD SWAP1 POP PUSH2 0xB87 PUSH1 0x0 DUP4 ADD DUP5 PUSH2 0xB63 JUMP JUMPDEST SWAP3 SWAP2 POP POP JUMP JUMPDEST PUSH1 0x0 DUP3 DUP3 MSTORE PUSH1 0x20 DUP3 ADD SWAP1 POP SWAP3 SWAP2 POP POP JUMP JUMPDEST PUSH1 0x0 PUSH2 0xBA9 DUP3 PUSH2 0x7BC JUMP JUMPDEST PUSH2 0xBB3 DUP2 DUP6 PUSH2 0xB8D JUMP JUMPDEST SWAP4 POP PUSH2 0xBC3 DUP2 DUP6 PUSH1 0x20 DUP7 ADD PUSH2 0x7D8 JUMP JUMPDEST PUSH2 0xBCC DUP2 PUSH2 0x802 JUMP JUMPDEST DUP5 ADD SWAP2 POP POP SWAP3 SWAP2 POP POP JUMP JUMPDEST PUSH2 0xBE0 DUP2 PUSH2 0x86C JUMP JUMPDEST DUP3 MSTORE POP POP JUMP JUMPDEST PUSH1 0x0 PUSH1 0xA0 DUP3 ADD SWAP1 POP DUP2 DUP2 SUB PUSH1 0x0 DUP4 ADD MSTORE PUSH2 0xC00 DUP2 DUP9 PUSH2 0xB9E JUMP JUMPDEST SWAP1 POP PUSH2 0xC0F PUSH1 0x20 DUP4 ADD DUP8 PUSH2 0xBD7 JUMP JUMPDEST PUSH2 0xC1C PUSH1 0x40 DUP4 ADD DUP7 PUSH2 0xBD7 JUMP JUMPDEST DUP2 DUP2 SUB PUSH1 0x60 DUP4 ADD MSTORE PUSH2 0xC2E DUP2 DUP6 PUSH2 0xB9E JUMP JUMPDEST SWAP1 POP DUP2 DUP2 SUB PUSH1 0x80 DUP4 ADD MSTORE PUSH2 0xC42 DUP2 DUP5 PUSH2 0xB9E JUMP JUMPDEST SWAP1 POP SWAP7 SWAP6 POP POP POP POP POP POP JUMP JUMPDEST PUSH32 0x4E487B7100000000000000000000000000000000000000000000000000000000 PUSH1 0x0 MSTORE PUSH1 0x22 PUSH1 0x4 MSTORE PUSH1 0x24 PUSH1 0x0 REVERT JUMPDEST PUSH1 0x0 PUSH1 0x2 DUP3 DIV SWAP1 POP PUSH1 0x1 DUP3 AND DUP1 PUSH2 0xC95 JUMPI PUSH1 0x7F DUP3 AND SWAP2 POP JUMPDEST PUSH1 0x20 DUP3 LT DUP2 SUB PUSH2 0xCA8 JUMPI PUSH2 0xCA7 PUSH2 0xC4E JUMP JUMPDEST JUMPDEST POP SWAP2 SWAP1 POP JUMP JUMPDEST PUSH1 0x0 DUP2 SWAP1 POP DUP2 PUSH1 0x0 MSTORE PUSH1 0x20 PUSH1 0x0 KECCAK256 SWAP1 POP SWAP2 SWAP1 POP JUMP JUMPDEST PUSH1 0x0 PUSH1 0x20 PUSH1 0x1F DUP4 ADD DIV SWAP1 POP SWAP2 SWAP1 POP JUMP JUMPDEST PUSH1 0x0 DUP3 DUP3 SHL SWAP1 POP SWAP3 SWAP2 POP POP JUMP JUMPDEST PUSH1 0x0 PUSH1 0x8 DUP4 MUL PUSH2 0xD10 PUSH32 0xFFFFFFFFFFFFFFFFFFFFFFFFFFFFFFFFFFFFFFFFFFFFFFFFFFFFFFFFFFFFFFFF DUP3 PUSH2 0xCD3 JUMP JUMPDEST PUSH2 0xD1A DUP7 DUP4 PUSH2 0xCD3 JUMP JUMPDEST SWAP6 POP DUP1 NOT DUP5 AND SWAP4 POP DUP1 DUP7 AND DUP5 OR SWAP3 POP POP POP SWAP4 SWAP3 POP POP POP JUMP JUMPDEST PUSH1 0x0 DUP2 SWAP1 POP SWAP2 SWAP1 POP JUMP JUMPDEST PUSH1 0x0 PUSH2 0xD57 PUSH2 0xD52 PUSH2 0xD4D DUP5 PUSH2 0x759 JUMP JUMPDEST PUSH2 0xD32 JUMP JUMPDEST PUSH2 0x759 JUMP JUMPDEST SWAP1 POP SWAP2 SWAP1 POP JUMP JUMPDEST PUSH1 0x0 DUP2 SWAP1 POP SWAP2 SWAP1 POP JUMP JUMPDEST PUSH2 0xD71 DUP4 PUSH2 0xD3C JUMP JUMPDEST PUSH2 0xD85 PUSH2 0xD7D DUP3 PUSH2 0xD5E JUMP JUMPDEST DUP5 DUP5 SLOAD PUSH2 0xCE0 JUMP JUMPDEST DUP3 SSTORE POP POP POP POP JUMP JUMPDEST PUSH1 0x0 SWAP1 JUMP JUMPDEST PUSH2 0xD9A PUSH2 0xD8D JUMP JUMPDEST PUSH2 0xDA5 DUP2 DUP5 DUP5 PUSH2 0xD68 JUMP JUMPDEST POP POP POP JUMP JUMPDEST JUMPDEST DUP2 DUP2 LT ISZERO PUSH2 0xDC9 JUMPI PUSH2 0xDBE PUSH1 0x0 DUP3 PUSH2 0xD92 JUMP JUMPDEST PUSH1 0x1 DUP2 ADD SWAP1 POP PUSH2 0xDAB JUMP JUMPDEST POP POP JUMP JUMPDEST PUSH1 0x1F DUP3 GT ISZERO PUSH2 0xE0E JUMPI PUSH2 0xDDF DUP2 PUSH2 0xCAE JUMP JUMPDEST PUSH2 0xDE8 DUP5 PUSH2 0xCC3 JUMP JUMPDEST DUP2 ADD PUSH1 0x20 DUP6 LT ISZERO PUSH2 0xDF7 JUMPI DUP2 SWAP1 POP JUMPDEST PUSH2 0xE0B PUSH2 0xE03 DUP6 PUSH2 0xCC3 JUMP JUMPDEST DUP4 ADD DUP3 PUSH2 0xDAA JUMP JUMPDEST POP POP JUMPDEST POP POP POP JUMP JUMPDEST PUSH1 0x0 DUP3 DUP3 SHR SWAP1 POP SWAP3 SWAP2 POP POP JUMP JUMPDEST PUSH1 0x0 PUSH2 0xE31 PUSH1 0x0 NOT DUP5 PUSH1 0x8 MUL PUSH2 0xE13 JUMP JUMPDEST NOT DUP1 DUP4 AND SWAP2 POP POP SWAP3 SWAP2 POP POP JUMP JUMPDEST PUSH1 0x0 PUSH2 0xE4A DUP4 DUP4 PUSH2 0xE20 JUMP JUMPDEST SWAP2 POP DUP3 PUSH1 0x2 MUL DUP3 OR SWAP1 POP SWAP3 SWAP2 POP POP JUMP JUMPDEST PUSH2 0xE63 DUP3 PUSH2 0x7BC JUMP JUMPDEST PUSH8 0xFFFFFFFFFFFFFFFF DUP2 GT ISZERO PUSH2 0xE7C JUMPI PUSH2 0xE7B PUSH2 0x93D JUMP JUMPDEST JUMPDEST PUSH2 0xE86 DUP3 SLOAD PUSH2 0xC7D JUMP JUMPDEST PUSH2 0xE91 DUP3 DUP3 DUP6 PUSH2 0xDCD JUMP JUMPDEST PUSH1 0x0 PUSH1 0x20 SWAP1 POP PUSH1 0x1F DUP4 GT PUSH1 0x1 DUP2 EQ PUSH2 0xEC4 JUMPI PUSH1 0x0 DUP5 ISZERO PUSH2 0xEB2 JUMPI DUP3 DUP8 ADD MLOAD SWAP1 POP JUMPDEST PUSH2 0xEBC DUP6 DUP3 PUSH2 0xE3E JUMP JUMPDEST DUP7 SSTORE POP PUSH2 0xF24 JUMP JUMPDEST PUSH1 0x1F NOT DUP5 AND PUSH2 0xED2 DUP7 PUSH2 0xCAE JUMP JUMPDEST PUSH1 0x0 JUMPDEST DUP3 DUP2 LT ISZERO PUSH2 0xEFA JUMPI DUP5 DUP10 ADD MLOAD DUP3 SSTORE PUSH1 0x1 DUP3 ADD SWAP2 POP PUSH1 0x20 DUP6 ADD SWAP5 POP PUSH1 0x20 DUP2 ADD SWAP1 POP PUSH2 0xED5 JUMP JUMPDEST DUP7 DUP4 LT ISZERO PUSH2 0xF17 JUMPI DUP5 DUP10 ADD MLOAD PUSH2 0xF13 PUSH1 0x1F DUP10 AND DUP3 PUSH2 0xE20 JUMP JUMPDEST DUP4 SSTORE POP JUMPDEST PUSH1 0x1 PUSH1 0x2 DUP9 MUL ADD DUP9 SSTORE POP POP POP JUMPDEST POP POP POP POP POP POP JUMP JUMPDEST PUSH32 0x4E487B7100000000000000000000000000000000000000000000000000000000 PUSH1 0x0 MSTORE PUSH1 0x11 PUSH1 0x4 MSTORE PUSH1 0x24 PUSH1 0x0 REVERT JUMPDEST PUSH1 0x0 PUSH2 0xF66 DUP3 PUSH2 0x759 JUMP JUMPDEST SWAP2 POP PUSH32 0xFFFFFFFFFFFFFFFFFFFFFFFFFFFFFFFFFFFFFFFFFFFFFFFFFFFFFFFFFFFFFFFF DUP3 SUB PUSH2 0xF98 JUMPI PUSH2 0xF97 PUSH2 0xF2C JUMP JUMPDEST JUMPDEST PUSH1 0x1 DUP3 ADD SWAP1 POP SWAP2 SWAP1 POP JUMP INVALID LOG2 PUSH5 0x6970667358 0x22 SLT KECCAK256 0xAC 0xEC 0xBA 0x4F 0xCE 0x21 0xEC EXTCODECOPY 0xE4 PUSH11 0x2DB0F24FE5107545E66409 SGT CREATE 0xB8 0xDE SWAP2 0xD2 0xC5 0xD6 MSTORE 0xC8 0x24 PUSH5 0x736F6C6343 STOP ADDMOD SLT STOP CALLER "
				},
				"gasEstimates": {
					"creation": {
						"codeDepositCost": "811400",
						"executionCost": "22950",
						"totalCost": "834350"
					},
					"external": {
						"addData(bytes,address,address,bytes,bytes)": "infinite",
						"getData(uint256)": "infinite",
						"smidToStructMapping(uint256)": "infinite",
						"transferCounter()": "2451"
					}
				},
				"methodIdentifiers": {
					"addData(bytes,address,address,bytes,bytes)": "21c4e07f",
					"getData(uint256)": "0178fe3f",
					"smidToStructMapping(uint256)": "d2bf193d",
					"transferCounter()": "3cf8ddf2"
				}
			},
			"storageLayout": {
				"storage": [
					{
						"astId": 34,
						"contract": "contracts/supplierManufacturer.sol:supplierManufacturer",
						"label": "transferCounter",
						"offset": 0,
						"slot": "0",
						"type": "t_uint256"
					},
					{
						"astId": 37,
						"contract": "contracts/supplierManufacturer.sol:supplierManufacturer",
						"label": "alltransfers",
						"offset": 0,
						"slot": "1",
						"type": "t_array(t_uint256)dyn_storage"
					},
					{
						"astId": 42,
						"contract": "contracts/supplierManufacturer.sol:supplierManufacturer",
						"label": "smidToStructMapping",
						"offset": 0,
						"slot": "2",
						"type": "t_mapping(t_uint256,t_struct(supplierManufacturer)12_storage)"
					}
				],
				"types": {
					"t_address": {
						"encoding": "inplace",
						"label": "address",
						"numberOfBytes": "20"
					},
					"t_array(t_uint256)dyn_storage": {
						"base": "t_uint256",
						"encoding": "dynamic_array",
						"label": "uint256[]",
						"numberOfBytes": "32"
					},
					"t_bytes_storage": {
						"encoding": "bytes",
						"label": "bytes",
						"numberOfBytes": "32"
					},
					"t_mapping(t_uint256,t_struct(supplierManufacturer)12_storage)": {
						"encoding": "mapping",
						"key": "t_uint256",
						"label": "mapping(uint256 => struct ISupplierManufacturer.supplierManufacturer)",
						"numberOfBytes": "32",
						"value": "t_struct(supplierManufacturer)12_storage"
					},
					"t_struct(supplierManufacturer)12_storage": {
						"encoding": "inplace",
						"label": "struct ISupplierManufacturer.supplierManufacturer",
						"members": [
							{
								"astId": 3,
								"contract": "contracts/supplierManufacturer.sol:supplierManufacturer",
								"label": "sp_id",
								"offset": 0,
								"slot": "0",
								"type": "t_bytes_storage"
							},
							{
								"astId": 5,
								"contract": "contracts/supplierManufacturer.sol:supplierManufacturer",
								"label": "supplierAddress",
								"offset": 0,
								"slot": "1",
								"type": "t_address"
							},
							{
								"astId": 7,
								"contract": "contracts/supplierManufacturer.sol:supplierManufacturer",
								"label": "manufacturerAddress",
								"offset": 0,
								"slot": "2",
								"type": "t_address"
							},
							{
								"astId": 9,
								"contract": "contracts/supplierManufacturer.sol:supplierManufacturer",
								"label": "dispatchTime",
								"offset": 0,
								"slot": "3",
								"type": "t_bytes_storage"
							},
							{
								"astId": 11,
								"contract": "contracts/supplierManufacturer.sol:supplierManufacturer",
								"label": "arrivalTime",
								"offset": 0,
								"slot": "4",
								"type": "t_bytes_storage"
							}
						],
						"numberOfBytes": "160"
					},
					"t_uint256": {
						"encoding": "inplace",
						"label": "uint256",
						"numberOfBytes": "32"
					}
				}
			},
			"userdoc": {
				"kind": "user",
				"methods": {},
				"version": 1
			}
		}
	}
}