{
	"contracts/supplierProduct.sol": {
		"supplierProduct": {
			"abi": [
				{
					"anonymous": false,
					"inputs": [
						{
							"indexed": true,
							"internalType": "uint256",
							"name": "_spid",
							"type": "uint256"
						},
						{
							"indexed": true,
							"internalType": "address",
							"name": "_address",
							"type": "address"
						},
						{
							"indexed": false,
							"internalType": "bytes",
							"name": "_name",
							"type": "bytes"
						},
						{
							"indexed": false,
							"internalType": "bytes",
							"name": "_description",
							"type": "bytes"
						},
						{
							"indexed": false,
							"internalType": "uint128",
							"name": "_unit",
							"type": "uint128"
						},
						{
							"indexed": false,
							"internalType": "uint128",
							"name": "_price",
							"type": "uint128"
						},
						{
							"indexed": false,
							"internalType": "uint32",
							"name": "_date",
							"type": "uint32"
						},
						{
							"indexed": false,
							"internalType": "uint32",
							"name": "_expiryDate",
							"type": "uint32"
						},
						{
							"indexed": false,
							"internalType": "uint256",
							"name": "_timeAdded",
							"type": "uint256"
						}
					],
					"name": "eventAddSupplierProduct",
					"type": "event"
				},
				{
					"anonymous": false,
					"inputs": [
						{
							"indexed": true,
							"internalType": "uint256",
							"name": "_id",
							"type": "uint256"
						}
					],
					"name": "eventDeleteSupplierProduct",
					"type": "event"
				},
				{
					"anonymous": false,
					"inputs": [
						{
							"indexed": true,
							"internalType": "uint256",
							"name": "_spId",
							"type": "uint256"
						},
						{
							"indexed": false,
							"internalType": "uint128",
							"name": "_quantity",
							"type": "uint128"
						}
					],
					"name": "eventUpdateSupplierProductUints",
					"type": "event"
				},
				{
					"inputs": [
						{
							"internalType": "bytes",
							"name": "_name",
							"type": "bytes"
						},
						{
							"internalType": "bytes",
							"name": "_description",
							"type": "bytes"
						},
						{
							"internalType": "uint128",
							"name": "_unit",
							"type": "uint128"
						},
						{
							"internalType": "uint128",
							"name": "_price",
							"type": "uint128"
						},
						{
							"internalType": "uint32",
							"name": "_date",
							"type": "uint32"
						},
						{
							"internalType": "uint32",
							"name": "_expiryDate",
							"type": "uint32"
						}
					],
					"name": "addSupplierProduct",
					"outputs": [],
					"stateMutability": "nonpayable",
					"type": "function"
				},
				{
					"inputs": [
						{
							"internalType": "uint256",
							"name": "_id",
							"type": "uint256"
						}
					],
					"name": "deleteSupplierProduct",
					"outputs": [],
					"stateMutability": "nonpayable",
					"type": "function"
				},
				{
					"inputs": [
						{
							"internalType": "address",
							"name": "_supplierAddress",
							"type": "address"
						}
					],
					"name": "getAllProductsOfSupplier",
					"outputs": [
						{
							"components": [
								{
									"internalType": "address",
									"name": "supplierAddress",
									"type": "address"
								},
								{
									"internalType": "bytes",
									"name": "sp_name",
									"type": "bytes"
								},
								{
									"internalType": "bytes",
									"name": "sp_description",
									"type": "bytes"
								},
								{
									"internalType": "uint128",
									"name": "sp_unit",
									"type": "uint128"
								},
								{
									"internalType": "uint128",
									"name": "sp_price",
									"type": "uint128"
								},
								{
									"internalType": "uint32",
									"name": "sp_date",
									"type": "uint32"
								},
								{
									"internalType": "uint32",
									"name": "sp_expiryDate",
									"type": "uint32"
								}
							],
							"internalType": "struct ISupplierProduct.supplierProduct[]",
							"name": "",
							"type": "tuple[]"
						}
					],
					"stateMutability": "view",
					"type": "function"
				},
				{
					"inputs": [
						{
							"internalType": "uint256",
							"name": "_id",
							"type": "uint256"
						}
					],
					"name": "getSingleProduct",
					"outputs": [
						{
							"components": [
								{
									"internalType": "address",
									"name": "supplierAddress",
									"type": "address"
								},
								{
									"internalType": "bytes",
									"name": "sp_name",
									"type": "bytes"
								},
								{
									"internalType": "bytes",
									"name": "sp_description",
									"type": "bytes"
								},
								{
									"internalType": "uint128",
									"name": "sp_unit",
									"type": "uint128"
								},
								{
									"internalType": "uint128",
									"name": "sp_price",
									"type": "uint128"
								},
								{
									"internalType": "uint32",
									"name": "sp_date",
									"type": "uint32"
								},
								{
									"internalType": "uint32",
									"name": "sp_expiryDate",
									"type": "uint32"
								}
							],
							"internalType": "struct ISupplierProduct.supplierProduct",
							"name": "",
							"type": "tuple"
						}
					],
					"stateMutability": "view",
					"type": "function"
				},
				{
					"inputs": [],
					"name": "getSupplierProductIds",
					"outputs": [
						{
							"internalType": "uint256[]",
							"name": "",
							"type": "uint256[]"
						}
					],
					"stateMutability": "view",
					"type": "function"
				},
				{
					"inputs": [
						{
							"internalType": "address",
							"name": "",
							"type": "address"
						},
						{
							"internalType": "uint256",
							"name": "",
							"type": "uint256"
						}
					],
					"name": "supplierAddressToproductsIdMapping",
					"outputs": [
						{
							"internalType": "uint256",
							"name": "",
							"type": "uint256"
						}
					],
					"stateMutability": "view",
					"type": "function"
				},
				{
					"inputs": [
						{
							"internalType": "uint256",
							"name": "",
							"type": "uint256"
						}
					],
					"name": "supplierProductsIdToStructMapping",
					"outputs": [
						{
							"internalType": "address",
							"name": "supplierAddress",
							"type": "address"
						},
						{
							"internalType": "bytes",
							"name": "sp_name",
							"type": "bytes"
						},
						{
							"internalType": "bytes",
							"name": "sp_description",
							"type": "bytes"
						},
						{
							"internalType": "uint128",
							"name": "sp_unit",
							"type": "uint128"
						},
						{
							"internalType": "uint128",
							"name": "sp_price",
							"type": "uint128"
						},
						{
							"internalType": "uint32",
							"name": "sp_date",
							"type": "uint32"
						},
						{
							"internalType": "uint32",
							"name": "sp_expiryDate",
							"type": "uint32"
						}
					],
					"stateMutability": "view",
					"type": "function"
				},
				{
					"inputs": [
						{
							"internalType": "uint256",
							"name": "_spId",
							"type": "uint256"
						},
						{
							"internalType": "uint128",
							"name": "_quantity",
							"type": "uint128"
						}
					],
					"name": "updateSupplierProductUints",
					"outputs": [],
					"stateMutability": "nonpayable",
					"type": "function"
				}
			],
			"devdoc": {
				"kind": "dev",
				"methods": {},
				"version": 1
			},
			"evm": {
				"assembly": "    /* \"contracts/supplierProduct.sol\":117:2298  contract supplierProduct is ISupplierProduct{... */\n  mstore(0x40, 0x80)\n    /* \"contracts/supplierProduct.sol\":180:181  1 */\n  0x01\n    /* \"contracts/supplierProduct.sol\":168:181  uint spId = 1 */\n  0x00\n  sstore\n    /* \"contracts/supplierProduct.sol\":117:2298  contract supplierProduct is ISupplierProduct{... */\n  callvalue\n  dup1\n  iszero\n  tag_1\n  jumpi\n  0x00\n  dup1\n  revert\ntag_1:\n  pop\n  dataSize(sub_0)\n  dup1\n  dataOffset(sub_0)\n  0x00\n  codecopy\n  0x00\n  return\nstop\n\nsub_0: assembly {\n        /* \"contracts/supplierProduct.sol\":117:2298  contract supplierProduct is ISupplierProduct{... */\n      mstore(0x40, 0x80)\n      callvalue\n      dup1\n      iszero\n      tag_1\n      jumpi\n      0x00\n      dup1\n      revert\n    tag_1:\n      pop\n      jumpi(tag_2, lt(calldatasize, 0x04))\n      shr(0xe0, calldataload(0x00))\n      dup1\n      0x83f95853\n      gt\n      tag_11\n      jumpi\n      dup1\n      0x83f95853\n      eq\n      tag_7\n      jumpi\n      dup1\n      0xe10f28c7\n      eq\n      tag_8\n      jumpi\n      dup1\n      0xee7e7c99\n      eq\n      tag_9\n      jumpi\n      dup1\n      0xf8bafa70\n      eq\n      tag_10\n      jumpi\n      jump(tag_2)\n    tag_11:\n      dup1\n      0x2e1f9763\n      eq\n      tag_3\n      jumpi\n      dup1\n      0x42af31d7\n      eq\n      tag_4\n      jumpi\n      dup1\n      0x6c87b826\n      eq\n      tag_5\n      jumpi\n      dup1\n      0x79ae0257\n      eq\n      tag_6\n      jumpi\n    tag_2:\n      0x00\n      dup1\n      revert\n        /* \"contracts/supplierProduct.sol\":1496:1639  function getSingleProduct(uint _id) public view returns(supplierProduct memory){... */\n    tag_3:\n      tag_12\n      0x04\n      dup1\n      calldatasize\n      sub\n      dup2\n      add\n      swap1\n      tag_13\n      swap2\n      swap1\n      tag_14\n      jump\t// in\n    tag_13:\n      tag_15\n      jump\t// in\n    tag_12:\n      mload(0x40)\n      tag_16\n      swap2\n      swap1\n      tag_17\n      jump\t// in\n    tag_16:\n      mload(0x40)\n      dup1\n      swap2\n      sub\n      swap1\n      return\n        /* \"contracts/supplierProduct.sol\":268:336  mapping(address => uint[]) public supplierAddressToproductsIdMapping */\n    tag_4:\n      tag_18\n      0x04\n      dup1\n      calldatasize\n      sub\n      dup2\n      add\n      swap1\n      tag_19\n      swap2\n      swap1\n      tag_20\n      jump\t// in\n    tag_19:\n      tag_21\n      jump\t// in\n    tag_18:\n      mload(0x40)\n      tag_22\n      swap2\n      swap1\n      tag_23\n      jump\t// in\n    tag_22:\n      mload(0x40)\n      dup1\n      swap2\n      sub\n      swap1\n      return\n        /* \"contracts/supplierProduct.sol\":188:261  mapping(uint => supplierProduct) public supplierProductsIdToStructMapping */\n    tag_5:\n      tag_24\n      0x04\n      dup1\n      calldatasize\n      sub\n      dup2\n      add\n      swap1\n      tag_25\n      swap2\n      swap1\n      tag_14\n      jump\t// in\n    tag_25:\n      tag_26\n      jump\t// in\n    tag_24:\n      mload(0x40)\n      tag_27\n      swap8\n      swap7\n      swap6\n      swap5\n      swap4\n      swap3\n      swap2\n      swap1\n      tag_28\n      jump\t// in\n    tag_27:\n      mload(0x40)\n      dup1\n      swap2\n      sub\n      swap1\n      return\n        /* \"contracts/supplierProduct.sol\":2128:2295  function deleteSupplierProduct(uint _id)public override {... */\n    tag_6:\n      tag_29\n      0x04\n      dup1\n      calldatasize\n      sub\n      dup2\n      add\n      swap1\n      tag_30\n      swap2\n      swap1\n      tag_14\n      jump\t// in\n    tag_30:\n      tag_31\n      jump\t// in\n    tag_29:\n      stop\n        /* \"contracts/supplierProduct.sol\":1647:2120  function getAllProductsOfSupplier(address _supplierAddress) public view returns(supplierProduct[] memory)... */\n    tag_7:\n      tag_32\n      0x04\n      dup1\n      calldatasize\n      sub\n      dup2\n      add\n      swap1\n      tag_33\n      swap2\n      swap1\n      tag_34\n      jump\t// in\n    tag_33:\n      tag_35\n      jump\t// in\n    tag_32:\n      mload(0x40)\n      tag_36\n      swap2\n      swap1\n      tag_37\n      jump\t// in\n    tag_36:\n      mload(0x40)\n      dup1\n      swap2\n      sub\n      swap1\n      return\n        /* \"contracts/supplierProduct.sol\":1349:1488  function getSupplierProductIds() public view returns(uint[] memory){... */\n    tag_8:\n      tag_38\n      tag_39\n      jump\t// in\n    tag_38:\n      mload(0x40)\n      tag_40\n      swap2\n      swap1\n      tag_41\n      jump\t// in\n    tag_40:\n      mload(0x40)\n      dup1\n      swap2\n      sub\n      swap1\n      return\n        /* \"contracts/supplierProduct.sol\":565:1065  function addSupplierProduct(bytes calldata _name,bytes calldata _description,uint128 _unit,uint128 _price,uint32 _date,uint32 _expiryDate)public override  {... */\n    tag_9:\n      tag_42\n      0x04\n      dup1\n      calldatasize\n      sub\n      dup2\n      add\n      swap1\n      tag_43\n      swap2\n      swap1\n      tag_44\n      jump\t// in\n    tag_43:\n      tag_45\n      jump\t// in\n    tag_42:\n      stop\n        /* \"contracts/supplierProduct.sol\":1073:1341  function updateSupplierProductUints(uint _spId, uint128 _quantity) public override{... */\n    tag_10:\n      tag_46\n      0x04\n      dup1\n      calldatasize\n      sub\n      dup2\n      add\n      swap1\n      tag_47\n      swap2\n      swap1\n      tag_48\n      jump\t// in\n    tag_47:\n      tag_49\n      jump\t// in\n    tag_46:\n      stop\n        /* \"contracts/supplierProduct.sol\":1496:1639  function getSingleProduct(uint _id) public view returns(supplierProduct memory){... */\n    tag_15:\n        /* \"contracts/supplierProduct.sol\":1552:1574  supplierProduct memory */\n      tag_50\n      tag_51\n      jump\t// in\n    tag_50:\n        /* \"contracts/supplierProduct.sol\":1593:1626  supplierProductsIdToStructMapping */\n      0x01\n        /* \"contracts/supplierProduct.sol\":1593:1631  supplierProductsIdToStructMapping[_id] */\n      0x00\n        /* \"contracts/supplierProduct.sol\":1627:1630  _id */\n      dup4\n        /* \"contracts/supplierProduct.sol\":1593:1631  supplierProductsIdToStructMapping[_id] */\n      dup2\n      mstore\n      0x20\n      add\n      swap1\n      dup2\n      mstore\n      0x20\n      add\n      0x00\n      keccak256\n        /* \"contracts/supplierProduct.sol\":1586:1631  return supplierProductsIdToStructMapping[_id] */\n      mload(0x40)\n      dup1\n      0xe0\n      add\n      0x40\n      mstore\n      swap1\n      dup2\n      0x00\n      dup3\n      add\n      0x00\n      swap1\n      sload\n      swap1\n      0x0100\n      exp\n      swap1\n      div\n      0xffffffffffffffffffffffffffffffffffffffff\n      and\n      0xffffffffffffffffffffffffffffffffffffffff\n      and\n      0xffffffffffffffffffffffffffffffffffffffff\n      and\n      dup2\n      mstore\n      0x20\n      add\n      0x01\n      dup3\n      add\n      dup1\n      sload\n      tag_53\n      swap1\n      tag_54\n      jump\t// in\n    tag_53:\n      dup1\n      0x1f\n      add\n      0x20\n      dup1\n      swap2\n      div\n      mul\n      0x20\n      add\n      mload(0x40)\n      swap1\n      dup2\n      add\n      0x40\n      mstore\n      dup1\n      swap3\n      swap2\n      swap1\n      dup2\n      dup2\n      mstore\n      0x20\n      add\n      dup3\n      dup1\n      sload\n      tag_55\n      swap1\n      tag_54\n      jump\t// in\n    tag_55:\n      dup1\n      iszero\n      tag_56\n      jumpi\n      dup1\n      0x1f\n      lt\n      tag_57\n      jumpi\n      0x0100\n      dup1\n      dup4\n      sload\n      div\n      mul\n      dup4\n      mstore\n      swap2\n      0x20\n      add\n      swap2\n      jump(tag_56)\n    tag_57:\n      dup3\n      add\n      swap2\n      swap1\n      0x00\n      mstore\n      keccak256(0x00, 0x20)\n      swap1\n    tag_58:\n      dup2\n      sload\n      dup2\n      mstore\n      swap1\n      0x01\n      add\n      swap1\n      0x20\n      add\n      dup1\n      dup4\n      gt\n      tag_58\n      jumpi\n      dup3\n      swap1\n      sub\n      0x1f\n      and\n      dup3\n      add\n      swap2\n    tag_56:\n      pop\n      pop\n      pop\n      pop\n      pop\n      dup2\n      mstore\n      0x20\n      add\n      0x02\n      dup3\n      add\n      dup1\n      sload\n      tag_59\n      swap1\n      tag_54\n      jump\t// in\n    tag_59:\n      dup1\n      0x1f\n      add\n      0x20\n      dup1\n      swap2\n      div\n      mul\n      0x20\n      add\n      mload(0x40)\n      swap1\n      dup2\n      add\n      0x40\n      mstore\n      dup1\n      swap3\n      swap2\n      swap1\n      dup2\n      dup2\n      mstore\n      0x20\n      add\n      dup3\n      dup1\n      sload\n      tag_60\n      swap1\n      tag_54\n      jump\t// in\n    tag_60:\n      dup1\n      iszero\n      tag_61\n      jumpi\n      dup1\n      0x1f\n      lt\n      tag_62\n      jumpi\n      0x0100\n      dup1\n      dup4\n      sload\n      div\n      mul\n      dup4\n      mstore\n      swap2\n      0x20\n      add\n      swap2\n      jump(tag_61)\n    tag_62:\n      dup3\n      add\n      swap2\n      swap1\n      0x00\n      mstore\n      keccak256(0x00, 0x20)\n      swap1\n    tag_63:\n      dup2\n      sload\n      dup2\n      mstore\n      swap1\n      0x01\n      add\n      swap1\n      0x20\n      add\n      dup1\n      dup4\n      gt\n      tag_63\n      jumpi\n      dup3\n      swap1\n      sub\n      0x1f\n      and\n      dup3\n      add\n      swap2\n    tag_61:\n      pop\n      pop\n      pop\n      pop\n      pop\n      dup2\n      mstore\n      0x20\n      add\n      0x03\n      dup3\n      add\n      0x00\n      swap1\n      sload\n      swap1\n      0x0100\n      exp\n      swap1\n      div\n      0xffffffffffffffffffffffffffffffff\n      and\n      0xffffffffffffffffffffffffffffffff\n      and\n      0xffffffffffffffffffffffffffffffff\n      and\n      dup2\n      mstore\n      0x20\n      add\n      0x03\n      dup3\n      add\n      0x10\n      swap1\n      sload\n      swap1\n      0x0100\n      exp\n      swap1\n      div\n      0xffffffffffffffffffffffffffffffff\n      and\n      0xffffffffffffffffffffffffffffffff\n      and\n      0xffffffffffffffffffffffffffffffff\n      and\n      dup2\n      mstore\n      0x20\n      add\n      0x04\n      dup3\n      add\n      0x00\n      swap1\n      sload\n      swap1\n      0x0100\n      exp\n      swap1\n      div\n      0xffffffff\n      and\n      0xffffffff\n      and\n      0xffffffff\n      and\n      dup2\n      mstore\n      0x20\n      add\n      0x04\n      dup3\n      add\n      0x04\n      swap1\n      sload\n      swap1\n      0x0100\n      exp\n      swap1\n      div\n      0xffffffff\n      and\n      0xffffffff\n      and\n      0xffffffff\n      and\n      dup2\n      mstore\n      pop\n      pop\n      swap1\n      pop\n        /* \"contracts/supplierProduct.sol\":1496:1639  function getSingleProduct(uint _id) public view returns(supplierProduct memory){... */\n      swap2\n      swap1\n      pop\n      jump\t// out\n        /* \"contracts/supplierProduct.sol\":268:336  mapping(address => uint[]) public supplierAddressToproductsIdMapping */\n    tag_21:\n      mstore(0x20, 0x02)\n      dup2\n      0x00\n      mstore\n      keccak256(0x00, 0x40)\n      dup2\n      dup2\n      sload\n      dup2\n      lt\n      tag_64\n      jumpi\n      0x00\n      dup1\n      revert\n    tag_64:\n      swap1\n      0x00\n      mstore\n      keccak256(0x00, 0x20)\n      add\n      0x00\n      swap2\n      pop\n      swap2\n      pop\n      pop\n      sload\n      dup2\n      jump\t// out\n        /* \"contracts/supplierProduct.sol\":188:261  mapping(uint => supplierProduct) public supplierProductsIdToStructMapping */\n    tag_26:\n      mstore(0x20, 0x01)\n      dup1\n      0x00\n      mstore\n      keccak256(0x00, 0x40)\n      0x00\n      swap2\n      pop\n      swap1\n      pop\n      dup1\n      0x00\n      add\n      0x00\n      swap1\n      sload\n      swap1\n      0x0100\n      exp\n      swap1\n      div\n      0xffffffffffffffffffffffffffffffffffffffff\n      and\n      swap1\n      dup1\n      0x01\n      add\n      dup1\n      sload\n      tag_66\n      swap1\n      tag_54\n      jump\t// in\n    tag_66:\n      dup1\n      0x1f\n      add\n      0x20\n      dup1\n      swap2\n      div\n      mul\n      0x20\n      add\n      mload(0x40)\n      swap1\n      dup2\n      add\n      0x40\n      mstore\n      dup1\n      swap3\n      swap2\n      swap1\n      dup2\n      dup2\n      mstore\n      0x20\n      add\n      dup3\n      dup1\n      sload\n      tag_67\n      swap1\n      tag_54\n      jump\t// in\n    tag_67:\n      dup1\n      iszero\n      tag_68\n      jumpi\n      dup1\n      0x1f\n      lt\n      tag_69\n      jumpi\n      0x0100\n      dup1\n      dup4\n      sload\n      div\n      mul\n      dup4\n      mstore\n      swap2\n      0x20\n      add\n      swap2\n      jump(tag_68)\n    tag_69:\n      dup3\n      add\n      swap2\n      swap1\n      0x00\n      mstore\n      keccak256(0x00, 0x20)\n      swap1\n    tag_70:\n      dup2\n      sload\n      dup2\n      mstore\n      swap1\n      0x01\n      add\n      swap1\n      0x20\n      add\n      dup1\n      dup4\n      gt\n      tag_70\n      jumpi\n      dup3\n      swap1\n      sub\n      0x1f\n      and\n      dup3\n      add\n      swap2\n    tag_68:\n      pop\n      pop\n      pop\n      pop\n      pop\n      swap1\n      dup1\n      0x02\n      add\n      dup1\n      sload\n      tag_71\n      swap1\n      tag_54\n      jump\t// in\n    tag_71:\n      dup1\n      0x1f\n      add\n      0x20\n      dup1\n      swap2\n      div\n      mul\n      0x20\n      add\n      mload(0x40)\n      swap1\n      dup2\n      add\n      0x40\n      mstore\n      dup1\n      swap3\n      swap2\n      swap1\n      dup2\n      dup2\n      mstore\n      0x20\n      add\n      dup3\n      dup1\n      sload\n      tag_72\n      swap1\n      tag_54\n      jump\t// in\n    tag_72:\n      dup1\n      iszero\n      tag_73\n      jumpi\n      dup1\n      0x1f\n      lt\n      tag_74\n      jumpi\n      0x0100\n      dup1\n      dup4\n      sload\n      div\n      mul\n      dup4\n      mstore\n      swap2\n      0x20\n      add\n      swap2\n      jump(tag_73)\n    tag_74:\n      dup3\n      add\n      swap2\n      swap1\n      0x00\n      mstore\n      keccak256(0x00, 0x20)\n      swap1\n    tag_75:\n      dup2\n      sload\n      dup2\n      mstore\n      swap1\n      0x01\n      add\n      swap1\n      0x20\n      add\n      dup1\n      dup4\n      gt\n      tag_75\n      jumpi\n      dup3\n      swap1\n      sub\n      0x1f\n      and\n      dup3\n      add\n      swap2\n    tag_73:\n      pop\n      pop\n      pop\n      pop\n      pop\n      swap1\n      dup1\n      0x03\n      add\n      0x00\n      swap1\n      sload\n      swap1\n      0x0100\n      exp\n      swap1\n      div\n      0xffffffffffffffffffffffffffffffff\n      and\n      swap1\n      dup1\n      0x03\n      add\n      0x10\n      swap1\n      sload\n      swap1\n      0x0100\n      exp\n      swap1\n      div\n      0xffffffffffffffffffffffffffffffff\n      and\n      swap1\n      dup1\n      0x04\n      add\n      0x00\n      swap1\n      sload\n      swap1\n      0x0100\n      exp\n      swap1\n      div\n      0xffffffff\n      and\n      swap1\n      dup1\n      0x04\n      add\n      0x04\n      swap1\n      sload\n      swap1\n      0x0100\n      exp\n      swap1\n      div\n      0xffffffff\n      and\n      swap1\n      pop\n      dup8\n      jump\t// out\n        /* \"contracts/supplierProduct.sol\":2128:2295  function deleteSupplierProduct(uint _id)public override {... */\n    tag_31:\n        /* \"contracts/supplierProduct.sol\":2202:2235  supplierProductsIdToStructMapping */\n      0x01\n        /* \"contracts/supplierProduct.sol\":2202:2240  supplierProductsIdToStructMapping[_id] */\n      0x00\n        /* \"contracts/supplierProduct.sol\":2236:2239  _id */\n      dup3\n        /* \"contracts/supplierProduct.sol\":2202:2240  supplierProductsIdToStructMapping[_id] */\n      dup2\n      mstore\n      0x20\n      add\n      swap1\n      dup2\n      mstore\n      0x20\n      add\n      0x00\n      keccak256\n      0x00\n        /* \"contracts/supplierProduct.sol\":2195:2240  delete supplierProductsIdToStructMapping[_id] */\n      dup1\n      dup3\n      add\n      exp(0x0100, 0x00)\n      dup2\n      sload\n      swap1\n      0xffffffffffffffffffffffffffffffffffffffff\n      mul\n      not\n      and\n      swap1\n      sstore\n      0x01\n      dup3\n      add\n      0x00\n      tag_77\n      swap2\n      swap1\n      tag_78\n      jump\t// in\n    tag_77:\n      0x02\n      dup3\n      add\n      0x00\n      tag_79\n      swap2\n      swap1\n      tag_78\n      jump\t// in\n    tag_79:\n      0x03\n      dup3\n      add\n      exp(0x0100, 0x00)\n      dup2\n      sload\n      swap1\n      0xffffffffffffffffffffffffffffffff\n      mul\n      not\n      and\n      swap1\n      sstore\n      0x03\n      dup3\n      add\n      exp(0x0100, 0x10)\n      dup2\n      sload\n      swap1\n      0xffffffffffffffffffffffffffffffff\n      mul\n      not\n      and\n      swap1\n      sstore\n      0x04\n      dup3\n      add\n      exp(0x0100, 0x00)\n      dup2\n      sload\n      swap1\n      0xffffffff\n      mul\n      not\n      and\n      swap1\n      sstore\n      0x04\n      dup3\n      add\n      exp(0x0100, 0x04)\n      dup2\n      sload\n      swap1\n      0xffffffff\n      mul\n      not\n      and\n      swap1\n      sstore\n      pop\n      pop\n        /* \"contracts/supplierProduct.sol\":2283:2286  _id */\n      dup1\n        /* \"contracts/supplierProduct.sol\":2256:2287  eventDeleteSupplierProduct(_id) */\n      0x6c1a4e746947a5049a6693a4875a10617826c8361c631cac61717e141185fdd2\n      mload(0x40)\n      mload(0x40)\n      dup1\n      swap2\n      sub\n      swap1\n      log2\n        /* \"contracts/supplierProduct.sol\":2128:2295  function deleteSupplierProduct(uint _id)public override {... */\n      pop\n      jump\t// out\n        /* \"contracts/supplierProduct.sol\":1647:2120  function getAllProductsOfSupplier(address _supplierAddress) public view returns(supplierProduct[] memory)... */\n    tag_35:\n        /* \"contracts/supplierProduct.sol\":1727:1751  supplierProduct[] memory */\n      0x60\n        /* \"contracts/supplierProduct.sol\":1769:1793  uint[] memory productIds */\n      0x00\n        /* \"contracts/supplierProduct.sol\":1795:1829  supplierAddressToproductsIdMapping */\n      0x02\n        /* \"contracts/supplierProduct.sol\":1795:1847  supplierAddressToproductsIdMapping[_supplierAddress] */\n      0x00\n        /* \"contracts/supplierProduct.sol\":1830:1846  _supplierAddress */\n      dup5\n        /* \"contracts/supplierProduct.sol\":1795:1847  supplierAddressToproductsIdMapping[_supplierAddress] */\n      0xffffffffffffffffffffffffffffffffffffffff\n      and\n      0xffffffffffffffffffffffffffffffffffffffff\n      and\n      dup2\n      mstore\n      0x20\n      add\n      swap1\n      dup2\n      mstore\n      0x20\n      add\n      0x00\n      keccak256\n        /* \"contracts/supplierProduct.sol\":1769:1847  uint[] memory productIds= supplierAddressToproductsIdMapping[_supplierAddress] */\n      dup1\n      sload\n      dup1\n      0x20\n      mul\n      0x20\n      add\n      mload(0x40)\n      swap1\n      dup2\n      add\n      0x40\n      mstore\n      dup1\n      swap3\n      swap2\n      swap1\n      dup2\n      dup2\n      mstore\n      0x20\n      add\n      dup3\n      dup1\n      sload\n      dup1\n      iszero\n      tag_81\n      jumpi\n      0x20\n      mul\n      dup3\n      add\n      swap2\n      swap1\n      0x00\n      mstore\n      keccak256(0x00, 0x20)\n      swap1\n    tag_82:\n      dup2\n      sload\n      dup2\n      mstore\n      0x20\n      add\n      swap1\n      0x01\n      add\n      swap1\n      dup1\n      dup4\n      gt\n      tag_82\n      jumpi\n    tag_81:\n      pop\n      pop\n      pop\n      pop\n      pop\n      swap1\n      pop\n        /* \"contracts/supplierProduct.sol\":1858:1892  supplierProduct[] memory supplierP */\n      0x00\n        /* \"contracts/supplierProduct.sol\":1917:1927  productIds */\n      dup2\n        /* \"contracts/supplierProduct.sol\":1917:1934  productIds.length */\n      mload\n        /* \"contracts/supplierProduct.sol\":1895:1935  new supplierProduct[](productIds.length) */\n      0xffffffffffffffff\n      dup2\n      gt\n      iszero\n      tag_83\n      jumpi\n      tag_84\n      tag_85\n      jump\t// in\n    tag_84:\n    tag_83:\n      mload(0x40)\n      swap1\n      dup1\n      dup3\n      mstore\n      dup1\n      0x20\n      mul\n      0x20\n      add\n      dup3\n      add\n      0x40\n      mstore\n      dup1\n      iszero\n      tag_86\n      jumpi\n      dup2\n      0x20\n      add\n    tag_87:\n      tag_88\n      tag_51\n      jump\t// in\n    tag_88:\n      dup2\n      mstore\n      0x20\n      add\n      swap1\n      0x01\n      swap1\n      sub\n      swap1\n      dup2\n      tag_87\n      jumpi\n      swap1\n      pop\n    tag_86:\n      pop\n        /* \"contracts/supplierProduct.sol\":1858:1935  supplierProduct[] memory supplierP = new supplierProduct[](productIds.length) */\n      swap1\n      pop\n        /* \"contracts/supplierProduct.sol\":1950:1956  uint i */\n      0x00\n        /* \"contracts/supplierProduct.sol\":1946:2086  for(uint i=0;i<productIds.length;i++)... */\n    tag_89:\n        /* \"contracts/supplierProduct.sol\":1961:1971  productIds */\n      dup3\n        /* \"contracts/supplierProduct.sol\":1961:1978  productIds.length */\n      mload\n        /* \"contracts/supplierProduct.sol\":1959:1960  i */\n      dup2\n        /* \"contracts/supplierProduct.sol\":1959:1978  i<productIds.length */\n      lt\n        /* \"contracts/supplierProduct.sol\":1946:2086  for(uint i=0;i<productIds.length;i++)... */\n      iszero\n      tag_90\n      jumpi\n        /* \"contracts/supplierProduct.sol\":2026:2059  supplierProductsIdToStructMapping */\n      0x01\n        /* \"contracts/supplierProduct.sol\":2026:2074  supplierProductsIdToStructMapping[productIds[i]] */\n      0x00\n        /* \"contracts/supplierProduct.sol\":2060:2070  productIds */\n      dup5\n        /* \"contracts/supplierProduct.sol\":2071:2072  i */\n      dup4\n        /* \"contracts/supplierProduct.sol\":2060:2073  productIds[i] */\n      dup2\n      mload\n      dup2\n      lt\n      tag_92\n      jumpi\n      tag_93\n      tag_94\n      jump\t// in\n    tag_93:\n    tag_92:\n      0x20\n      mul\n      0x20\n      add\n      add\n      mload\n        /* \"contracts/supplierProduct.sol\":2026:2074  supplierProductsIdToStructMapping[productIds[i]] */\n      dup2\n      mstore\n      0x20\n      add\n      swap1\n      dup2\n      mstore\n      0x20\n      add\n      0x00\n      keccak256\n        /* \"contracts/supplierProduct.sol\":2012:2074  supplierP[i] =supplierProductsIdToStructMapping[productIds[i]] */\n      mload(0x40)\n      dup1\n      0xe0\n      add\n      0x40\n      mstore\n      swap1\n      dup2\n      0x00\n      dup3\n      add\n      0x00\n      swap1\n      sload\n      swap1\n      0x0100\n      exp\n      swap1\n      div\n      0xffffffffffffffffffffffffffffffffffffffff\n      and\n      0xffffffffffffffffffffffffffffffffffffffff\n      and\n      0xffffffffffffffffffffffffffffffffffffffff\n      and\n      dup2\n      mstore\n      0x20\n      add\n      0x01\n      dup3\n      add\n      dup1\n      sload\n      tag_95\n      swap1\n      tag_54\n      jump\t// in\n    tag_95:\n      dup1\n      0x1f\n      add\n      0x20\n      dup1\n      swap2\n      div\n      mul\n      0x20\n      add\n      mload(0x40)\n      swap1\n      dup2\n      add\n      0x40\n      mstore\n      dup1\n      swap3\n      swap2\n      swap1\n      dup2\n      dup2\n      mstore\n      0x20\n      add\n      dup3\n      dup1\n      sload\n      tag_96\n      swap1\n      tag_54\n      jump\t// in\n    tag_96:\n      dup1\n      iszero\n      tag_97\n      jumpi\n      dup1\n      0x1f\n      lt\n      tag_98\n      jumpi\n      0x0100\n      dup1\n      dup4\n      sload\n      div\n      mul\n      dup4\n      mstore\n      swap2\n      0x20\n      add\n      swap2\n      jump(tag_97)\n    tag_98:\n      dup3\n      add\n      swap2\n      swap1\n      0x00\n      mstore\n      keccak256(0x00, 0x20)\n      swap1\n    tag_99:\n      dup2\n      sload\n      dup2\n      mstore\n      swap1\n      0x01\n      add\n      swap1\n      0x20\n      add\n      dup1\n      dup4\n      gt\n      tag_99\n      jumpi\n      dup3\n      swap1\n      sub\n      0x1f\n      and\n      dup3\n      add\n      swap2\n    tag_97:\n      pop\n      pop\n      pop\n      pop\n      pop\n      dup2\n      mstore\n      0x20\n      add\n      0x02\n      dup3\n      add\n      dup1\n      sload\n      tag_100\n      swap1\n      tag_54\n      jump\t// in\n    tag_100:\n      dup1\n      0x1f\n      add\n      0x20\n      dup1\n      swap2\n      div\n      mul\n      0x20\n      add\n      mload(0x40)\n      swap1\n      dup2\n      add\n      0x40\n      mstore\n      dup1\n      swap3\n      swap2\n      swap1\n      dup2\n      dup2\n      mstore\n      0x20\n      add\n      dup3\n      dup1\n      sload\n      tag_101\n      swap1\n      tag_54\n      jump\t// in\n    tag_101:\n      dup1\n      iszero\n      tag_102\n      jumpi\n      dup1\n      0x1f\n      lt\n      tag_103\n      jumpi\n      0x0100\n      dup1\n      dup4\n      sload\n      div\n      mul\n      dup4\n      mstore\n      swap2\n      0x20\n      add\n      swap2\n      jump(tag_102)\n    tag_103:\n      dup3\n      add\n      swap2\n      swap1\n      0x00\n      mstore\n      keccak256(0x00, 0x20)\n      swap1\n    tag_104:\n      dup2\n      sload\n      dup2\n      mstore\n      swap1\n      0x01\n      add\n      swap1\n      0x20\n      add\n      dup1\n      dup4\n      gt\n      tag_104\n      jumpi\n      dup3\n      swap1\n      sub\n      0x1f\n      and\n      dup3\n      add\n      swap2\n    tag_102:\n      pop\n      pop\n      pop\n      pop\n      pop\n      dup2\n      mstore\n      0x20\n      add\n      0x03\n      dup3\n      add\n      0x00\n      swap1\n      sload\n      swap1\n      0x0100\n      exp\n      swap1\n      div\n      0xffffffffffffffffffffffffffffffff\n      and\n      0xffffffffffffffffffffffffffffffff\n      and\n      0xffffffffffffffffffffffffffffffff\n      and\n      dup2\n      mstore\n      0x20\n      add\n      0x03\n      dup3\n      add\n      0x10\n      swap1\n      sload\n      swap1\n      0x0100\n      exp\n      swap1\n      div\n      0xffffffffffffffffffffffffffffffff\n      and\n      0xffffffffffffffffffffffffffffffff\n      and\n      0xffffffffffffffffffffffffffffffff\n      and\n      dup2\n      mstore\n      0x20\n      add\n      0x04\n      dup3\n      add\n      0x00\n      swap1\n      sload\n      swap1\n      0x0100\n      exp\n      swap1\n      div\n      0xffffffff\n      and\n      0xffffffff\n      and\n      0xffffffff\n      and\n      dup2\n      mstore\n      0x20\n      add\n      0x04\n      dup3\n      add\n      0x04\n      swap1\n      sload\n      swap1\n      0x0100\n      exp\n      swap1\n      div\n      0xffffffff\n      and\n      0xffffffff\n      and\n      0xffffffff\n      and\n      dup2\n      mstore\n      pop\n      pop\n        /* \"contracts/supplierProduct.sol\":2012:2021  supplierP */\n      dup3\n        /* \"contracts/supplierProduct.sol\":2022:2023  i */\n      dup3\n        /* \"contracts/supplierProduct.sol\":2012:2024  supplierP[i] */\n      dup2\n      mload\n      dup2\n      lt\n      tag_105\n      jumpi\n      tag_106\n      tag_94\n      jump\t// in\n    tag_106:\n    tag_105:\n      0x20\n      mul\n      0x20\n      add\n      add\n        /* \"contracts/supplierProduct.sol\":2012:2074  supplierP[i] =supplierProductsIdToStructMapping[productIds[i]] */\n      dup2\n      swap1\n      mstore\n      pop\n        /* \"contracts/supplierProduct.sol\":1979:1982  i++ */\n      dup1\n      dup1\n      tag_107\n      swap1\n      tag_108\n      jump\t// in\n    tag_107:\n      swap2\n      pop\n      pop\n        /* \"contracts/supplierProduct.sol\":1946:2086  for(uint i=0;i<productIds.length;i++)... */\n      jump(tag_89)\n    tag_90:\n      pop\n        /* \"contracts/supplierProduct.sol\":2103:2112  supplierP */\n      dup1\n        /* \"contracts/supplierProduct.sol\":2096:2112  return supplierP */\n      swap3\n      pop\n      pop\n      pop\n        /* \"contracts/supplierProduct.sol\":1647:2120  function getAllProductsOfSupplier(address _supplierAddress) public view returns(supplierProduct[] memory)... */\n      swap2\n      swap1\n      pop\n      jump\t// out\n        /* \"contracts/supplierProduct.sol\":1349:1488  function getSupplierProductIds() public view returns(uint[] memory){... */\n    tag_39:\n        /* \"contracts/supplierProduct.sol\":1402:1415  uint[] memory */\n      0x60\n        /* \"contracts/supplierProduct.sol\":1434:1468  supplierAddressToproductsIdMapping */\n      0x02\n        /* \"contracts/supplierProduct.sol\":1434:1480  supplierAddressToproductsIdMapping[msg.sender] */\n      0x00\n        /* \"contracts/supplierProduct.sol\":1469:1479  msg.sender */\n      caller\n        /* \"contracts/supplierProduct.sol\":1434:1480  supplierAddressToproductsIdMapping[msg.sender] */\n      0xffffffffffffffffffffffffffffffffffffffff\n      and\n      0xffffffffffffffffffffffffffffffffffffffff\n      and\n      dup2\n      mstore\n      0x20\n      add\n      swap1\n      dup2\n      mstore\n      0x20\n      add\n      0x00\n      keccak256\n        /* \"contracts/supplierProduct.sol\":1427:1480  return supplierAddressToproductsIdMapping[msg.sender] */\n      dup1\n      sload\n      dup1\n      0x20\n      mul\n      0x20\n      add\n      mload(0x40)\n      swap1\n      dup2\n      add\n      0x40\n      mstore\n      dup1\n      swap3\n      swap2\n      swap1\n      dup2\n      dup2\n      mstore\n      0x20\n      add\n      dup3\n      dup1\n      sload\n      dup1\n      iszero\n      tag_110\n      jumpi\n      0x20\n      mul\n      dup3\n      add\n      swap2\n      swap1\n      0x00\n      mstore\n      keccak256(0x00, 0x20)\n      swap1\n    tag_111:\n      dup2\n      sload\n      dup2\n      mstore\n      0x20\n      add\n      swap1\n      0x01\n      add\n      swap1\n      dup1\n      dup4\n      gt\n      tag_111\n      jumpi\n    tag_110:\n      pop\n      pop\n      pop\n      pop\n      pop\n      swap1\n      pop\n        /* \"contracts/supplierProduct.sol\":1349:1488  function getSupplierProductIds() public view returns(uint[] memory){... */\n      swap1\n      jump\t// out\n        /* \"contracts/supplierProduct.sol\":565:1065  function addSupplierProduct(bytes calldata _name,bytes calldata _description,uint128 _unit,uint128 _price,uint32 _date,uint32 _expiryDate)public override  {... */\n    tag_45:\n        /* \"contracts/supplierProduct.sol\":773:850  supplierProduct(msg.sender,_name,_description,_unit,_price,_date,_expiryDate) */\n      mload(0x40)\n      dup1\n      0xe0\n      add\n      0x40\n      mstore\n      dup1\n        /* \"contracts/supplierProduct.sol\":789:799  msg.sender */\n      caller\n        /* \"contracts/supplierProduct.sol\":773:850  supplierProduct(msg.sender,_name,_description,_unit,_price,_date,_expiryDate) */\n      0xffffffffffffffffffffffffffffffffffffffff\n      and\n      dup2\n      mstore\n      0x20\n      add\n        /* \"contracts/supplierProduct.sol\":800:805  _name */\n      dup10\n      dup10\n        /* \"contracts/supplierProduct.sol\":773:850  supplierProduct(msg.sender,_name,_description,_unit,_price,_date,_expiryDate) */\n      dup1\n      dup1\n      0x1f\n      add\n      0x20\n      dup1\n      swap2\n      div\n      mul\n      0x20\n      add\n      mload(0x40)\n      swap1\n      dup2\n      add\n      0x40\n      mstore\n      dup1\n      swap4\n      swap3\n      swap2\n      swap1\n      dup2\n      dup2\n      mstore\n      0x20\n      add\n      dup4\n      dup4\n      dup1\n      dup3\n      dup5\n      calldatacopy\n      0x00\n      dup2\n      dup5\n      add\n      mstore\n      not(0x1f)\n      0x1f\n      dup3\n      add\n      and\n      swap1\n      pop\n      dup1\n      dup4\n      add\n      swap3\n      pop\n      pop\n      pop\n      pop\n      pop\n      pop\n      pop\n      dup2\n      mstore\n      0x20\n      add\n        /* \"contracts/supplierProduct.sol\":806:818  _description */\n      dup8\n      dup8\n        /* \"contracts/supplierProduct.sol\":773:850  supplierProduct(msg.sender,_name,_description,_unit,_price,_date,_expiryDate) */\n      dup1\n      dup1\n      0x1f\n      add\n      0x20\n      dup1\n      swap2\n      div\n      mul\n      0x20\n      add\n      mload(0x40)\n      swap1\n      dup2\n      add\n      0x40\n      mstore\n      dup1\n      swap4\n      swap3\n      swap2\n      swap1\n      dup2\n      dup2\n      mstore\n      0x20\n      add\n      dup4\n      dup4\n      dup1\n      dup3\n      dup5\n      calldatacopy\n      0x00\n      dup2\n      dup5\n      add\n      mstore\n      not(0x1f)\n      0x1f\n      dup3\n      add\n      and\n      swap1\n      pop\n      dup1\n      dup4\n      add\n      swap3\n      pop\n      pop\n      pop\n      pop\n      pop\n      pop\n      pop\n      dup2\n      mstore\n      0x20\n      add\n        /* \"contracts/supplierProduct.sol\":819:824  _unit */\n      dup6\n        /* \"contracts/supplierProduct.sol\":773:850  supplierProduct(msg.sender,_name,_description,_unit,_price,_date,_expiryDate) */\n      0xffffffffffffffffffffffffffffffff\n      and\n      dup2\n      mstore\n      0x20\n      add\n        /* \"contracts/supplierProduct.sol\":825:831  _price */\n      dup5\n        /* \"contracts/supplierProduct.sol\":773:850  supplierProduct(msg.sender,_name,_description,_unit,_price,_date,_expiryDate) */\n      0xffffffffffffffffffffffffffffffff\n      and\n      dup2\n      mstore\n      0x20\n      add\n        /* \"contracts/supplierProduct.sol\":832:837  _date */\n      dup4\n        /* \"contracts/supplierProduct.sol\":773:850  supplierProduct(msg.sender,_name,_description,_unit,_price,_date,_expiryDate) */\n      0xffffffff\n      and\n      dup2\n      mstore\n      0x20\n      add\n        /* \"contracts/supplierProduct.sol\":838:849  _expiryDate */\n      dup3\n        /* \"contracts/supplierProduct.sol\":773:850  supplierProduct(msg.sender,_name,_description,_unit,_price,_date,_expiryDate) */\n      0xffffffff\n      and\n      dup2\n      mstore\n      pop\n        /* \"contracts/supplierProduct.sol\":731:764  supplierProductsIdToStructMapping */\n      0x01\n        /* \"contracts/supplierProduct.sol\":731:770  supplierProductsIdToStructMapping[spId] */\n      0x00\n        /* \"contracts/supplierProduct.sol\":765:769  spId */\n      dup1\n      sload\n        /* \"contracts/supplierProduct.sol\":731:770  supplierProductsIdToStructMapping[spId] */\n      dup2\n      mstore\n      0x20\n      add\n      swap1\n      dup2\n      mstore\n      0x20\n      add\n      0x00\n      keccak256\n        /* \"contracts/supplierProduct.sol\":731:850  supplierProductsIdToStructMapping[spId] = supplierProduct(msg.sender,_name,_description,_unit,_price,_date,_expiryDate) */\n      0x00\n      dup3\n      add\n      mload\n      dup2\n      0x00\n      add\n      exp(0x0100, 0x00)\n      dup2\n      sload\n      dup2\n      0xffffffffffffffffffffffffffffffffffffffff\n      mul\n      not\n      and\n      swap1\n      dup4\n      0xffffffffffffffffffffffffffffffffffffffff\n      and\n      mul\n      or\n      swap1\n      sstore\n      pop\n      0x20\n      dup3\n      add\n      mload\n      dup2\n      0x01\n      add\n      swap1\n      dup2\n      tag_113\n      swap2\n      swap1\n      tag_114\n      jump\t// in\n    tag_113:\n      pop\n      0x40\n      dup3\n      add\n      mload\n      dup2\n      0x02\n      add\n      swap1\n      dup2\n      tag_115\n      swap2\n      swap1\n      tag_114\n      jump\t// in\n    tag_115:\n      pop\n      0x60\n      dup3\n      add\n      mload\n      dup2\n      0x03\n      add\n      exp(0x0100, 0x00)\n      dup2\n      sload\n      dup2\n      0xffffffffffffffffffffffffffffffff\n      mul\n      not\n      and\n      swap1\n      dup4\n      0xffffffffffffffffffffffffffffffff\n      and\n      mul\n      or\n      swap1\n      sstore\n      pop\n      0x80\n      dup3\n      add\n      mload\n      dup2\n      0x03\n      add\n      exp(0x0100, 0x10)\n      dup2\n      sload\n      dup2\n      0xffffffffffffffffffffffffffffffff\n      mul\n      not\n      and\n      swap1\n      dup4\n      0xffffffffffffffffffffffffffffffff\n      and\n      mul\n      or\n      swap1\n      sstore\n      pop\n      0xa0\n      dup3\n      add\n      mload\n      dup2\n      0x04\n      add\n      exp(0x0100, 0x00)\n      dup2\n      sload\n      dup2\n      0xffffffff\n      mul\n      not\n      and\n      swap1\n      dup4\n      0xffffffff\n      and\n      mul\n      or\n      swap1\n      sstore\n      pop\n      0xc0\n      dup3\n      add\n      mload\n      dup2\n      0x04\n      add\n      exp(0x0100, 0x04)\n      dup2\n      sload\n      dup2\n      0xffffffff\n      mul\n      not\n      and\n      swap1\n      dup4\n      0xffffffff\n      and\n      mul\n      or\n      swap1\n      sstore\n      pop\n      swap1\n      pop\n      pop\n        /* \"contracts/supplierProduct.sol\":861:895  supplierAddressToproductsIdMapping */\n      0x02\n        /* \"contracts/supplierProduct.sol\":861:907  supplierAddressToproductsIdMapping[msg.sender] */\n      0x00\n        /* \"contracts/supplierProduct.sol\":896:906  msg.sender */\n      caller\n        /* \"contracts/supplierProduct.sol\":861:907  supplierAddressToproductsIdMapping[msg.sender] */\n      0xffffffffffffffffffffffffffffffffffffffff\n      and\n      0xffffffffffffffffffffffffffffffffffffffff\n      and\n      dup2\n      mstore\n      0x20\n      add\n      swap1\n      dup2\n      mstore\n      0x20\n      add\n      0x00\n      keccak256\n        /* \"contracts/supplierProduct.sol\":913:917  spId */\n      sload(0x00)\n        /* \"contracts/supplierProduct.sol\":861:918  supplierAddressToproductsIdMapping[msg.sender].push(spId) */\n      swap1\n      dup1\n      0x01\n      dup2\n      sload\n      add\n      dup1\n      dup3\n      sstore\n      dup1\n      swap2\n      pop\n      pop\n      0x01\n      swap1\n      sub\n      swap1\n      0x00\n      mstore\n      keccak256(0x00, 0x20)\n      add\n      0x00\n      swap1\n      swap2\n      swap1\n      swap2\n      swap1\n      swap2\n      pop\n      sstore\n        /* \"contracts/supplierProduct.sol\":963:973  msg.sender */\n      caller\n        /* \"contracts/supplierProduct.sol\":934:1040  eventAddSupplierProduct(spId,msg.sender,_name,_description,_unit,_price,_date,_expiryDate,block.timestamp) */\n      0xffffffffffffffffffffffffffffffffffffffff\n      and\n        /* \"contracts/supplierProduct.sol\":958:962  spId */\n      sload(0x00)\n        /* \"contracts/supplierProduct.sol\":934:1040  eventAddSupplierProduct(spId,msg.sender,_name,_description,_unit,_price,_date,_expiryDate,block.timestamp) */\n      0xb544b666bf20d30fc9acbc75aee55e5847e8f95a49aa5d36b6dab734f0cbb303\n        /* \"contracts/supplierProduct.sol\":974:979  _name */\n      dup11\n      dup11\n        /* \"contracts/supplierProduct.sol\":980:992  _description */\n      dup11\n      dup11\n        /* \"contracts/supplierProduct.sol\":993:998  _unit */\n      dup11\n        /* \"contracts/supplierProduct.sol\":999:1005  _price */\n      dup11\n        /* \"contracts/supplierProduct.sol\":1006:1011  _date */\n      dup11\n        /* \"contracts/supplierProduct.sol\":1012:1023  _expiryDate */\n      dup11\n        /* \"contracts/supplierProduct.sol\":1024:1039  block.timestamp */\n      timestamp\n        /* \"contracts/supplierProduct.sol\":934:1040  eventAddSupplierProduct(spId,msg.sender,_name,_description,_unit,_price,_date,_expiryDate,block.timestamp) */\n      mload(0x40)\n      tag_117\n      swap10\n      swap9\n      swap8\n      swap7\n      swap6\n      swap5\n      swap4\n      swap3\n      swap2\n      swap1\n      tag_118\n      jump\t// in\n    tag_117:\n      mload(0x40)\n      dup1\n      swap2\n      sub\n      swap1\n      log3\n        /* \"contracts/supplierProduct.sol\":1051:1055  spId */\n      0x00\n      dup1\n        /* \"contracts/supplierProduct.sol\":1051:1057  spId++ */\n      dup2\n      sload\n      dup1\n      swap3\n      swap2\n      swap1\n      tag_119\n      swap1\n      tag_108\n      jump\t// in\n    tag_119:\n      swap2\n      swap1\n      pop\n      sstore\n      pop\n        /* \"contracts/supplierProduct.sol\":565:1065  function addSupplierProduct(bytes calldata _name,bytes calldata _description,uint128 _unit,uint128 _price,uint32 _date,uint32 _expiryDate)public override  {... */\n      pop\n      pop\n      pop\n      pop\n      pop\n      pop\n      pop\n      pop\n      jump\t// out\n        /* \"contracts/supplierProduct.sol\":1073:1341  function updateSupplierProductUints(uint _spId, uint128 _quantity) public override{... */\n    tag_49:\n        /* \"contracts/supplierProduct.sol\":1218:1227  _quantity */\n      dup1\n        /* \"contracts/supplierProduct.sol\":1166:1199  supplierProductsIdToStructMapping */\n      0x01\n        /* \"contracts/supplierProduct.sol\":1166:1206  supplierProductsIdToStructMapping[_spId] */\n      0x00\n        /* \"contracts/supplierProduct.sol\":1200:1205  _spId */\n      dup5\n        /* \"contracts/supplierProduct.sol\":1166:1206  supplierProductsIdToStructMapping[_spId] */\n      dup2\n      mstore\n      0x20\n      add\n      swap1\n      dup2\n      mstore\n      0x20\n      add\n      0x00\n      keccak256\n        /* \"contracts/supplierProduct.sol\":1166:1214  supplierProductsIdToStructMapping[_spId].sp_unit */\n      0x03\n      add\n      0x00\n        /* \"contracts/supplierProduct.sol\":1166:1227  supplierProductsIdToStructMapping[_spId].sp_unit -= _quantity */\n      dup3\n      dup3\n      dup3\n      swap1\n      sload\n      swap1\n      0x0100\n      exp\n      swap1\n      div\n      0xffffffffffffffffffffffffffffffff\n      and\n      tag_121\n      swap2\n      swap1\n      tag_122\n      jump\t// in\n    tag_121:\n      swap3\n      pop\n      0x0100\n      exp\n      dup2\n      sload\n      dup2\n      0xffffffffffffffffffffffffffffffff\n      mul\n      not\n      and\n      swap1\n      dup4\n      0xffffffffffffffffffffffffffffffff\n      and\n      mul\n      or\n      swap1\n      sstore\n      pop\n        /* \"contracts/supplierProduct.sol\":1277:1282  _spId */\n      dup2\n        /* \"contracts/supplierProduct.sol\":1245:1333  eventUpdateSupplierProductUints(_spId, supplierProductsIdToStructMapping[_spId].sp_unit) */\n      0x1f3d301eca9b893fb3ae34f526f7b346cfe3086be67884ce1e652593c91668d6\n        /* \"contracts/supplierProduct.sol\":1284:1317  supplierProductsIdToStructMapping */\n      0x01\n        /* \"contracts/supplierProduct.sol\":1284:1324  supplierProductsIdToStructMapping[_spId] */\n      0x00\n        /* \"contracts/supplierProduct.sol\":1318:1323  _spId */\n      dup6\n        /* \"contracts/supplierProduct.sol\":1284:1324  supplierProductsIdToStructMapping[_spId] */\n      dup2\n      mstore\n      0x20\n      add\n      swap1\n      dup2\n      mstore\n      0x20\n      add\n      0x00\n      keccak256\n        /* \"contracts/supplierProduct.sol\":1284:1332  supplierProductsIdToStructMapping[_spId].sp_unit */\n      0x03\n      add\n      0x00\n      swap1\n      sload\n      swap1\n      0x0100\n      exp\n      swap1\n      div\n      0xffffffffffffffffffffffffffffffff\n      and\n        /* \"contracts/supplierProduct.sol\":1245:1333  eventUpdateSupplierProductUints(_spId, supplierProductsIdToStructMapping[_spId].sp_unit) */\n      mload(0x40)\n      tag_123\n      swap2\n      swap1\n      tag_124\n      jump\t// in\n    tag_123:\n      mload(0x40)\n      dup1\n      swap2\n      sub\n      swap1\n      log2\n        /* \"contracts/supplierProduct.sol\":1073:1341  function updateSupplierProductUints(uint _spId, uint128 _quantity) public override{... */\n      pop\n      pop\n      jump\t// out\n    tag_51:\n      mload(0x40)\n      dup1\n      0xe0\n      add\n      0x40\n      mstore\n      dup1\n      and(0xffffffffffffffffffffffffffffffffffffffff, 0x00)\n      dup2\n      mstore\n      0x20\n      add\n      0x60\n      dup2\n      mstore\n      0x20\n      add\n      0x60\n      dup2\n      mstore\n      0x20\n      add\n      and(0xffffffffffffffffffffffffffffffff, 0x00)\n      dup2\n      mstore\n      0x20\n      add\n      and(0xffffffffffffffffffffffffffffffff, 0x00)\n      dup2\n      mstore\n      0x20\n      add\n      and(0xffffffff, 0x00)\n      dup2\n      mstore\n      0x20\n      add\n      and(0xffffffff, 0x00)\n      dup2\n      mstore\n      pop\n      swap1\n      jump\t// out\n    tag_78:\n      pop\n      dup1\n      sload\n      tag_125\n      swap1\n      tag_54\n      jump\t// in\n    tag_125:\n      0x00\n      dup3\n      sstore\n      dup1\n      0x1f\n      lt\n      tag_127\n      jumpi\n      pop\n      jump(tag_126)\n    tag_127:\n      0x1f\n      add\n      0x20\n      swap1\n      div\n      swap1\n      0x00\n      mstore\n      keccak256(0x00, 0x20)\n      swap1\n      dup2\n      add\n      swap1\n      tag_128\n      swap2\n      swap1\n      tag_129\n      jump\t// in\n    tag_128:\n    tag_126:\n      pop\n      jump\t// out\n    tag_129:\n    tag_130:\n      dup1\n      dup3\n      gt\n      iszero\n      tag_131\n      jumpi\n      0x00\n      dup2\n      0x00\n      swap1\n      sstore\n      pop\n      0x01\n      add\n      jump(tag_130)\n    tag_131:\n      pop\n      swap1\n      jump\t// out\n        /* \"#utility.yul\":88:205   */\n    tag_133:\n        /* \"#utility.yul\":197:198   */\n      0x00\n        /* \"#utility.yul\":194:195   */\n      dup1\n        /* \"#utility.yul\":187:199   */\n      revert\n        /* \"#utility.yul\":211:328   */\n    tag_134:\n        /* \"#utility.yul\":320:321   */\n      0x00\n        /* \"#utility.yul\":317:318   */\n      dup1\n        /* \"#utility.yul\":310:322   */\n      revert\n        /* \"#utility.yul\":334:411   */\n    tag_135:\n        /* \"#utility.yul\":371:378   */\n      0x00\n        /* \"#utility.yul\":400:405   */\n      dup2\n        /* \"#utility.yul\":389:405   */\n      swap1\n      pop\n        /* \"#utility.yul\":334:411   */\n      swap2\n      swap1\n      pop\n      jump\t// out\n        /* \"#utility.yul\":417:539   */\n    tag_136:\n        /* \"#utility.yul\":490:514   */\n      tag_206\n        /* \"#utility.yul\":508:513   */\n      dup2\n        /* \"#utility.yul\":490:514   */\n      tag_135\n      jump\t// in\n    tag_206:\n        /* \"#utility.yul\":483:488   */\n      dup2\n        /* \"#utility.yul\":480:515   */\n      eq\n        /* \"#utility.yul\":470:533   */\n      tag_207\n      jumpi\n        /* \"#utility.yul\":529:530   */\n      0x00\n        /* \"#utility.yul\":526:527   */\n      dup1\n        /* \"#utility.yul\":519:531   */\n      revert\n        /* \"#utility.yul\":470:533   */\n    tag_207:\n        /* \"#utility.yul\":417:539   */\n      pop\n      jump\t// out\n        /* \"#utility.yul\":545:684   */\n    tag_137:\n        /* \"#utility.yul\":591:596   */\n      0x00\n        /* \"#utility.yul\":629:635   */\n      dup2\n        /* \"#utility.yul\":616:636   */\n      calldataload\n        /* \"#utility.yul\":607:636   */\n      swap1\n      pop\n        /* \"#utility.yul\":645:678   */\n      tag_209\n        /* \"#utility.yul\":672:677   */\n      dup2\n        /* \"#utility.yul\":645:678   */\n      tag_136\n      jump\t// in\n    tag_209:\n        /* \"#utility.yul\":545:684   */\n      swap3\n      swap2\n      pop\n      pop\n      jump\t// out\n        /* \"#utility.yul\":690:1019   */\n    tag_14:\n        /* \"#utility.yul\":749:755   */\n      0x00\n        /* \"#utility.yul\":798:800   */\n      0x20\n        /* \"#utility.yul\":786:795   */\n      dup3\n        /* \"#utility.yul\":777:784   */\n      dup5\n        /* \"#utility.yul\":773:796   */\n      sub\n        /* \"#utility.yul\":769:801   */\n      slt\n        /* \"#utility.yul\":766:885   */\n      iszero\n      tag_211\n      jumpi\n        /* \"#utility.yul\":804:883   */\n      tag_212\n      tag_133\n      jump\t// in\n    tag_212:\n        /* \"#utility.yul\":766:885   */\n    tag_211:\n        /* \"#utility.yul\":924:925   */\n      0x00\n        /* \"#utility.yul\":949:1002   */\n      tag_213\n        /* \"#utility.yul\":994:1001   */\n      dup5\n        /* \"#utility.yul\":985:991   */\n      dup3\n        /* \"#utility.yul\":974:983   */\n      dup6\n        /* \"#utility.yul\":970:992   */\n      add\n        /* \"#utility.yul\":949:1002   */\n      tag_137\n      jump\t// in\n    tag_213:\n        /* \"#utility.yul\":939:1002   */\n      swap2\n      pop\n        /* \"#utility.yul\":895:1012   */\n      pop\n        /* \"#utility.yul\":690:1019   */\n      swap3\n      swap2\n      pop\n      pop\n      jump\t// out\n        /* \"#utility.yul\":1025:1151   */\n    tag_138:\n        /* \"#utility.yul\":1062:1069   */\n      0x00\n        /* \"#utility.yul\":1102:1144   */\n      0xffffffffffffffffffffffffffffffffffffffff\n        /* \"#utility.yul\":1095:1100   */\n      dup3\n        /* \"#utility.yul\":1091:1145   */\n      and\n        /* \"#utility.yul\":1080:1145   */\n      swap1\n      pop\n        /* \"#utility.yul\":1025:1151   */\n      swap2\n      swap1\n      pop\n      jump\t// out\n        /* \"#utility.yul\":1157:1253   */\n    tag_139:\n        /* \"#utility.yul\":1194:1201   */\n      0x00\n        /* \"#utility.yul\":1223:1247   */\n      tag_216\n        /* \"#utility.yul\":1241:1246   */\n      dup3\n        /* \"#utility.yul\":1223:1247   */\n      tag_138\n      jump\t// in\n    tag_216:\n        /* \"#utility.yul\":1212:1247   */\n      swap1\n      pop\n        /* \"#utility.yul\":1157:1253   */\n      swap2\n      swap1\n      pop\n      jump\t// out\n        /* \"#utility.yul\":1259:1367   */\n    tag_140:\n        /* \"#utility.yul\":1336:1360   */\n      tag_218\n        /* \"#utility.yul\":1354:1359   */\n      dup2\n        /* \"#utility.yul\":1336:1360   */\n      tag_139\n      jump\t// in\n    tag_218:\n        /* \"#utility.yul\":1331:1334   */\n      dup3\n        /* \"#utility.yul\":1324:1361   */\n      mstore\n        /* \"#utility.yul\":1259:1367   */\n      pop\n      pop\n      jump\t// out\n        /* \"#utility.yul\":1373:1471   */\n    tag_141:\n        /* \"#utility.yul\":1424:1430   */\n      0x00\n        /* \"#utility.yul\":1458:1463   */\n      dup2\n        /* \"#utility.yul\":1452:1464   */\n      mload\n        /* \"#utility.yul\":1442:1464   */\n      swap1\n      pop\n        /* \"#utility.yul\":1373:1471   */\n      swap2\n      swap1\n      pop\n      jump\t// out\n        /* \"#utility.yul\":1477:1635   */\n    tag_142:\n        /* \"#utility.yul\":1550:1561   */\n      0x00\n        /* \"#utility.yul\":1584:1590   */\n      dup3\n        /* \"#utility.yul\":1579:1582   */\n      dup3\n        /* \"#utility.yul\":1572:1591   */\n      mstore\n        /* \"#utility.yul\":1624:1628   */\n      0x20\n        /* \"#utility.yul\":1619:1622   */\n      dup3\n        /* \"#utility.yul\":1615:1629   */\n      add\n        /* \"#utility.yul\":1600:1629   */\n      swap1\n      pop\n        /* \"#utility.yul\":1477:1635   */\n      swap3\n      swap2\n      pop\n      pop\n      jump\t// out\n        /* \"#utility.yul\":1641:1887   */\n    tag_143:\n        /* \"#utility.yul\":1722:1723   */\n      0x00\n        /* \"#utility.yul\":1732:1845   */\n    tag_222:\n        /* \"#utility.yul\":1746:1752   */\n      dup4\n        /* \"#utility.yul\":1743:1744   */\n      dup2\n        /* \"#utility.yul\":1740:1753   */\n      lt\n        /* \"#utility.yul\":1732:1845   */\n      iszero\n      tag_224\n      jumpi\n        /* \"#utility.yul\":1831:1832   */\n      dup1\n        /* \"#utility.yul\":1826:1829   */\n      dup3\n        /* \"#utility.yul\":1822:1833   */\n      add\n        /* \"#utility.yul\":1816:1834   */\n      mload\n        /* \"#utility.yul\":1812:1813   */\n      dup2\n        /* \"#utility.yul\":1807:1810   */\n      dup5\n        /* \"#utility.yul\":1803:1814   */\n      add\n        /* \"#utility.yul\":1796:1835   */\n      mstore\n        /* \"#utility.yul\":1768:1770   */\n      0x20\n        /* \"#utility.yul\":1765:1766   */\n      dup2\n        /* \"#utility.yul\":1761:1771   */\n      add\n        /* \"#utility.yul\":1756:1771   */\n      swap1\n      pop\n        /* \"#utility.yul\":1732:1845   */\n      jump(tag_222)\n    tag_224:\n        /* \"#utility.yul\":1879:1880   */\n      0x00\n        /* \"#utility.yul\":1870:1876   */\n      dup5\n        /* \"#utility.yul\":1865:1868   */\n      dup5\n        /* \"#utility.yul\":1861:1877   */\n      add\n        /* \"#utility.yul\":1854:1881   */\n      mstore\n        /* \"#utility.yul\":1703:1887   */\n      pop\n        /* \"#utility.yul\":1641:1887   */\n      pop\n      pop\n      pop\n      jump\t// out\n        /* \"#utility.yul\":1893:1995   */\n    tag_144:\n        /* \"#utility.yul\":1934:1940   */\n      0x00\n        /* \"#utility.yul\":1985:1987   */\n      0x1f\n        /* \"#utility.yul\":1981:1988   */\n      not\n        /* \"#utility.yul\":1976:1978   */\n      0x1f\n        /* \"#utility.yul\":1969:1974   */\n      dup4\n        /* \"#utility.yul\":1965:1979   */\n      add\n        /* \"#utility.yul\":1961:1989   */\n      and\n        /* \"#utility.yul\":1951:1989   */\n      swap1\n      pop\n        /* \"#utility.yul\":1893:1995   */\n      swap2\n      swap1\n      pop\n      jump\t// out\n        /* \"#utility.yul\":2001:2354   */\n    tag_145:\n        /* \"#utility.yul\":2077:2080   */\n      0x00\n        /* \"#utility.yul\":2105:2143   */\n      tag_227\n        /* \"#utility.yul\":2137:2142   */\n      dup3\n        /* \"#utility.yul\":2105:2143   */\n      tag_141\n      jump\t// in\n    tag_227:\n        /* \"#utility.yul\":2159:2219   */\n      tag_228\n        /* \"#utility.yul\":2212:2218   */\n      dup2\n        /* \"#utility.yul\":2207:2210   */\n      dup6\n        /* \"#utility.yul\":2159:2219   */\n      tag_142\n      jump\t// in\n    tag_228:\n        /* \"#utility.yul\":2152:2219   */\n      swap4\n      pop\n        /* \"#utility.yul\":2228:2293   */\n      tag_229\n        /* \"#utility.yul\":2286:2292   */\n      dup2\n        /* \"#utility.yul\":2281:2284   */\n      dup6\n        /* \"#utility.yul\":2274:2278   */\n      0x20\n        /* \"#utility.yul\":2267:2272   */\n      dup7\n        /* \"#utility.yul\":2263:2279   */\n      add\n        /* \"#utility.yul\":2228:2293   */\n      tag_143\n      jump\t// in\n    tag_229:\n        /* \"#utility.yul\":2318:2347   */\n      tag_230\n        /* \"#utility.yul\":2340:2346   */\n      dup2\n        /* \"#utility.yul\":2318:2347   */\n      tag_144\n      jump\t// in\n    tag_230:\n        /* \"#utility.yul\":2313:2316   */\n      dup5\n        /* \"#utility.yul\":2309:2348   */\n      add\n        /* \"#utility.yul\":2302:2348   */\n      swap2\n      pop\n        /* \"#utility.yul\":2081:2354   */\n      pop\n        /* \"#utility.yul\":2001:2354   */\n      swap3\n      swap2\n      pop\n      pop\n      jump\t// out\n        /* \"#utility.yul\":2360:2478   */\n    tag_146:\n        /* \"#utility.yul\":2397:2404   */\n      0x00\n        /* \"#utility.yul\":2437:2471   */\n      0xffffffffffffffffffffffffffffffff\n        /* \"#utility.yul\":2430:2435   */\n      dup3\n        /* \"#utility.yul\":2426:2472   */\n      and\n        /* \"#utility.yul\":2415:2472   */\n      swap1\n      pop\n        /* \"#utility.yul\":2360:2478   */\n      swap2\n      swap1\n      pop\n      jump\t// out\n        /* \"#utility.yul\":2484:2592   */\n    tag_147:\n        /* \"#utility.yul\":2561:2585   */\n      tag_233\n        /* \"#utility.yul\":2579:2584   */\n      dup2\n        /* \"#utility.yul\":2561:2585   */\n      tag_146\n      jump\t// in\n    tag_233:\n        /* \"#utility.yul\":2556:2559   */\n      dup3\n        /* \"#utility.yul\":2549:2586   */\n      mstore\n        /* \"#utility.yul\":2484:2592   */\n      pop\n      pop\n      jump\t// out\n        /* \"#utility.yul\":2598:2691   */\n    tag_148:\n        /* \"#utility.yul\":2634:2641   */\n      0x00\n        /* \"#utility.yul\":2674:2684   */\n      0xffffffff\n        /* \"#utility.yul\":2667:2672   */\n      dup3\n        /* \"#utility.yul\":2663:2685   */\n      and\n        /* \"#utility.yul\":2652:2685   */\n      swap1\n      pop\n        /* \"#utility.yul\":2598:2691   */\n      swap2\n      swap1\n      pop\n      jump\t// out\n        /* \"#utility.yul\":2697:2802   */\n    tag_149:\n        /* \"#utility.yul\":2772:2795   */\n      tag_236\n        /* \"#utility.yul\":2789:2794   */\n      dup2\n        /* \"#utility.yul\":2772:2795   */\n      tag_148\n      jump\t// in\n    tag_236:\n        /* \"#utility.yul\":2767:2770   */\n      dup3\n        /* \"#utility.yul\":2760:2796   */\n      mstore\n        /* \"#utility.yul\":2697:2802   */\n      pop\n      pop\n      jump\t// out\n        /* \"#utility.yul\":2898:4492   */\n    tag_150:\n        /* \"#utility.yul\":3029:3032   */\n      0x00\n        /* \"#utility.yul\":3065:3069   */\n      0xe0\n        /* \"#utility.yul\":3060:3063   */\n      dup4\n        /* \"#utility.yul\":3056:3070   */\n      add\n        /* \"#utility.yul\":3163:3167   */\n      0x00\n        /* \"#utility.yul\":3156:3161   */\n      dup4\n        /* \"#utility.yul\":3152:3168   */\n      add\n        /* \"#utility.yul\":3146:3169   */\n      mload\n        /* \"#utility.yul\":3182:3245   */\n      tag_238\n        /* \"#utility.yul\":3239:3243   */\n      0x00\n        /* \"#utility.yul\":3234:3237   */\n      dup7\n        /* \"#utility.yul\":3230:3244   */\n      add\n        /* \"#utility.yul\":3216:3228   */\n      dup3\n        /* \"#utility.yul\":3182:3245   */\n      tag_140\n      jump\t// in\n    tag_238:\n        /* \"#utility.yul\":3080:3255   */\n      pop\n        /* \"#utility.yul\":3340:3344   */\n      0x20\n        /* \"#utility.yul\":3333:3338   */\n      dup4\n        /* \"#utility.yul\":3329:3345   */\n      add\n        /* \"#utility.yul\":3323:3346   */\n      mload\n        /* \"#utility.yul\":3393:3396   */\n      dup5\n        /* \"#utility.yul\":3387:3391   */\n      dup3\n        /* \"#utility.yul\":3383:3397   */\n      sub\n        /* \"#utility.yul\":3376:3380   */\n      0x20\n        /* \"#utility.yul\":3371:3374   */\n      dup7\n        /* \"#utility.yul\":3367:3381   */\n      add\n        /* \"#utility.yul\":3360:3398   */\n      mstore\n        /* \"#utility.yul\":3419:3490   */\n      tag_239\n        /* \"#utility.yul\":3485:3489   */\n      dup3\n        /* \"#utility.yul\":3471:3483   */\n      dup3\n        /* \"#utility.yul\":3419:3490   */\n      tag_145\n      jump\t// in\n    tag_239:\n        /* \"#utility.yul\":3411:3490   */\n      swap2\n      pop\n        /* \"#utility.yul\":3265:3501   */\n      pop\n        /* \"#utility.yul\":3593:3597   */\n      0x40\n        /* \"#utility.yul\":3586:3591   */\n      dup4\n        /* \"#utility.yul\":3582:3598   */\n      add\n        /* \"#utility.yul\":3576:3599   */\n      mload\n        /* \"#utility.yul\":3646:3649   */\n      dup5\n        /* \"#utility.yul\":3640:3644   */\n      dup3\n        /* \"#utility.yul\":3636:3650   */\n      sub\n        /* \"#utility.yul\":3629:3633   */\n      0x40\n        /* \"#utility.yul\":3624:3627   */\n      dup7\n        /* \"#utility.yul\":3620:3634   */\n      add\n        /* \"#utility.yul\":3613:3651   */\n      mstore\n        /* \"#utility.yul\":3672:3743   */\n      tag_240\n        /* \"#utility.yul\":3738:3742   */\n      dup3\n        /* \"#utility.yul\":3724:3736   */\n      dup3\n        /* \"#utility.yul\":3672:3743   */\n      tag_145\n      jump\t// in\n    tag_240:\n        /* \"#utility.yul\":3664:3743   */\n      swap2\n      pop\n        /* \"#utility.yul\":3511:3754   */\n      pop\n        /* \"#utility.yul\":3839:3843   */\n      0x60\n        /* \"#utility.yul\":3832:3837   */\n      dup4\n        /* \"#utility.yul\":3828:3844   */\n      add\n        /* \"#utility.yul\":3822:3845   */\n      mload\n        /* \"#utility.yul\":3858:3921   */\n      tag_241\n        /* \"#utility.yul\":3915:3919   */\n      0x60\n        /* \"#utility.yul\":3910:3913   */\n      dup7\n        /* \"#utility.yul\":3906:3920   */\n      add\n        /* \"#utility.yul\":3892:3904   */\n      dup3\n        /* \"#utility.yul\":3858:3921   */\n      tag_147\n      jump\t// in\n    tag_241:\n        /* \"#utility.yul\":3764:3931   */\n      pop\n        /* \"#utility.yul\":4017:4021   */\n      0x80\n        /* \"#utility.yul\":4010:4015   */\n      dup4\n        /* \"#utility.yul\":4006:4022   */\n      add\n        /* \"#utility.yul\":4000:4023   */\n      mload\n        /* \"#utility.yul\":4036:4099   */\n      tag_242\n        /* \"#utility.yul\":4093:4097   */\n      0x80\n        /* \"#utility.yul\":4088:4091   */\n      dup7\n        /* \"#utility.yul\":4084:4098   */\n      add\n        /* \"#utility.yul\":4070:4082   */\n      dup3\n        /* \"#utility.yul\":4036:4099   */\n      tag_147\n      jump\t// in\n    tag_242:\n        /* \"#utility.yul\":3941:4109   */\n      pop\n        /* \"#utility.yul\":4194:4198   */\n      0xa0\n        /* \"#utility.yul\":4187:4192   */\n      dup4\n        /* \"#utility.yul\":4183:4199   */\n      add\n        /* \"#utility.yul\":4177:4200   */\n      mload\n        /* \"#utility.yul\":4213:4274   */\n      tag_243\n        /* \"#utility.yul\":4268:4272   */\n      0xa0\n        /* \"#utility.yul\":4263:4266   */\n      dup7\n        /* \"#utility.yul\":4259:4273   */\n      add\n        /* \"#utility.yul\":4245:4257   */\n      dup3\n        /* \"#utility.yul\":4213:4274   */\n      tag_149\n      jump\t// in\n    tag_243:\n        /* \"#utility.yul\":4119:4284   */\n      pop\n        /* \"#utility.yul\":4375:4379   */\n      0xc0\n        /* \"#utility.yul\":4368:4373   */\n      dup4\n        /* \"#utility.yul\":4364:4380   */\n      add\n        /* \"#utility.yul\":4358:4381   */\n      mload\n        /* \"#utility.yul\":4394:4455   */\n      tag_244\n        /* \"#utility.yul\":4449:4453   */\n      0xc0\n        /* \"#utility.yul\":4444:4447   */\n      dup7\n        /* \"#utility.yul\":4440:4454   */\n      add\n        /* \"#utility.yul\":4426:4438   */\n      dup3\n        /* \"#utility.yul\":4394:4455   */\n      tag_149\n      jump\t// in\n    tag_244:\n        /* \"#utility.yul\":4294:4465   */\n      pop\n        /* \"#utility.yul\":4482:4486   */\n      dup1\n        /* \"#utility.yul\":4475:4486   */\n      swap2\n      pop\n        /* \"#utility.yul\":3034:4492   */\n      pop\n        /* \"#utility.yul\":2898:4492   */\n      swap3\n      swap2\n      pop\n      pop\n      jump\t// out\n        /* \"#utility.yul\":4498:4895   */\n    tag_17:\n        /* \"#utility.yul\":4653:4657   */\n      0x00\n        /* \"#utility.yul\":4691:4693   */\n      0x20\n        /* \"#utility.yul\":4680:4689   */\n      dup3\n        /* \"#utility.yul\":4676:4694   */\n      add\n        /* \"#utility.yul\":4668:4694   */\n      swap1\n      pop\n        /* \"#utility.yul\":4740:4749   */\n      dup2\n        /* \"#utility.yul\":4734:4738   */\n      dup2\n        /* \"#utility.yul\":4730:4750   */\n      sub\n        /* \"#utility.yul\":4726:4727   */\n      0x00\n        /* \"#utility.yul\":4715:4724   */\n      dup4\n        /* \"#utility.yul\":4711:4728   */\n      add\n        /* \"#utility.yul\":4704:4751   */\n      mstore\n        /* \"#utility.yul\":4768:4888   */\n      tag_246\n        /* \"#utility.yul\":4883:4887   */\n      dup2\n        /* \"#utility.yul\":4874:4880   */\n      dup5\n        /* \"#utility.yul\":4768:4888   */\n      tag_150\n      jump\t// in\n    tag_246:\n        /* \"#utility.yul\":4760:4888   */\n      swap1\n      pop\n        /* \"#utility.yul\":4498:4895   */\n      swap3\n      swap2\n      pop\n      pop\n      jump\t// out\n        /* \"#utility.yul\":4901:5023   */\n    tag_151:\n        /* \"#utility.yul\":4974:4998   */\n      tag_248\n        /* \"#utility.yul\":4992:4997   */\n      dup2\n        /* \"#utility.yul\":4974:4998   */\n      tag_139\n      jump\t// in\n    tag_248:\n        /* \"#utility.yul\":4967:4972   */\n      dup2\n        /* \"#utility.yul\":4964:4999   */\n      eq\n        /* \"#utility.yul\":4954:5017   */\n      tag_249\n      jumpi\n        /* \"#utility.yul\":5013:5014   */\n      0x00\n        /* \"#utility.yul\":5010:5011   */\n      dup1\n        /* \"#utility.yul\":5003:5015   */\n      revert\n        /* \"#utility.yul\":4954:5017   */\n    tag_249:\n        /* \"#utility.yul\":4901:5023   */\n      pop\n      jump\t// out\n        /* \"#utility.yul\":5029:5168   */\n    tag_152:\n        /* \"#utility.yul\":5075:5080   */\n      0x00\n        /* \"#utility.yul\":5113:5119   */\n      dup2\n        /* \"#utility.yul\":5100:5120   */\n      calldataload\n        /* \"#utility.yul\":5091:5120   */\n      swap1\n      pop\n        /* \"#utility.yul\":5129:5162   */\n      tag_251\n        /* \"#utility.yul\":5156:5161   */\n      dup2\n        /* \"#utility.yul\":5129:5162   */\n      tag_151\n      jump\t// in\n    tag_251:\n        /* \"#utility.yul\":5029:5168   */\n      swap3\n      swap2\n      pop\n      pop\n      jump\t// out\n        /* \"#utility.yul\":5174:5648   */\n    tag_20:\n        /* \"#utility.yul\":5242:5248   */\n      0x00\n        /* \"#utility.yul\":5250:5256   */\n      dup1\n        /* \"#utility.yul\":5299:5301   */\n      0x40\n        /* \"#utility.yul\":5287:5296   */\n      dup4\n        /* \"#utility.yul\":5278:5285   */\n      dup6\n        /* \"#utility.yul\":5274:5297   */\n      sub\n        /* \"#utility.yul\":5270:5302   */\n      slt\n        /* \"#utility.yul\":5267:5386   */\n      iszero\n      tag_253\n      jumpi\n        /* \"#utility.yul\":5305:5384   */\n      tag_254\n      tag_133\n      jump\t// in\n    tag_254:\n        /* \"#utility.yul\":5267:5386   */\n    tag_253:\n        /* \"#utility.yul\":5425:5426   */\n      0x00\n        /* \"#utility.yul\":5450:5503   */\n      tag_255\n        /* \"#utility.yul\":5495:5502   */\n      dup6\n        /* \"#utility.yul\":5486:5492   */\n      dup3\n        /* \"#utility.yul\":5475:5484   */\n      dup7\n        /* \"#utility.yul\":5471:5493   */\n      add\n        /* \"#utility.yul\":5450:5503   */\n      tag_152\n      jump\t// in\n    tag_255:\n        /* \"#utility.yul\":5440:5503   */\n      swap3\n      pop\n        /* \"#utility.yul\":5396:5513   */\n      pop\n        /* \"#utility.yul\":5552:5554   */\n      0x20\n        /* \"#utility.yul\":5578:5631   */\n      tag_256\n        /* \"#utility.yul\":5623:5630   */\n      dup6\n        /* \"#utility.yul\":5614:5620   */\n      dup3\n        /* \"#utility.yul\":5603:5612   */\n      dup7\n        /* \"#utility.yul\":5599:5621   */\n      add\n        /* \"#utility.yul\":5578:5631   */\n      tag_137\n      jump\t// in\n    tag_256:\n        /* \"#utility.yul\":5568:5631   */\n      swap2\n      pop\n        /* \"#utility.yul\":5523:5641   */\n      pop\n        /* \"#utility.yul\":5174:5648   */\n      swap3\n      pop\n      swap3\n      swap1\n      pop\n      jump\t// out\n        /* \"#utility.yul\":5654:5772   */\n    tag_153:\n        /* \"#utility.yul\":5741:5765   */\n      tag_258\n        /* \"#utility.yul\":5759:5764   */\n      dup2\n        /* \"#utility.yul\":5741:5765   */\n      tag_135\n      jump\t// in\n    tag_258:\n        /* \"#utility.yul\":5736:5739   */\n      dup3\n        /* \"#utility.yul\":5729:5766   */\n      mstore\n        /* \"#utility.yul\":5654:5772   */\n      pop\n      pop\n      jump\t// out\n        /* \"#utility.yul\":5778:6000   */\n    tag_23:\n        /* \"#utility.yul\":5871:5875   */\n      0x00\n        /* \"#utility.yul\":5909:5911   */\n      0x20\n        /* \"#utility.yul\":5898:5907   */\n      dup3\n        /* \"#utility.yul\":5894:5912   */\n      add\n        /* \"#utility.yul\":5886:5912   */\n      swap1\n      pop\n        /* \"#utility.yul\":5922:5993   */\n      tag_260\n        /* \"#utility.yul\":5990:5991   */\n      0x00\n        /* \"#utility.yul\":5979:5988   */\n      dup4\n        /* \"#utility.yul\":5975:5992   */\n      add\n        /* \"#utility.yul\":5966:5972   */\n      dup5\n        /* \"#utility.yul\":5922:5993   */\n      tag_153\n      jump\t// in\n    tag_260:\n        /* \"#utility.yul\":5778:6000   */\n      swap3\n      swap2\n      pop\n      pop\n      jump\t// out\n        /* \"#utility.yul\":6006:6124   */\n    tag_154:\n        /* \"#utility.yul\":6093:6117   */\n      tag_262\n        /* \"#utility.yul\":6111:6116   */\n      dup2\n        /* \"#utility.yul\":6093:6117   */\n      tag_139\n      jump\t// in\n    tag_262:\n        /* \"#utility.yul\":6088:6091   */\n      dup3\n        /* \"#utility.yul\":6081:6118   */\n      mstore\n        /* \"#utility.yul\":6006:6124   */\n      pop\n      pop\n      jump\t// out\n        /* \"#utility.yul\":6130:6298   */\n    tag_155:\n        /* \"#utility.yul\":6213:6224   */\n      0x00\n        /* \"#utility.yul\":6247:6253   */\n      dup3\n        /* \"#utility.yul\":6242:6245   */\n      dup3\n        /* \"#utility.yul\":6235:6254   */\n      mstore\n        /* \"#utility.yul\":6287:6291   */\n      0x20\n        /* \"#utility.yul\":6282:6285   */\n      dup3\n        /* \"#utility.yul\":6278:6292   */\n      add\n        /* \"#utility.yul\":6263:6292   */\n      swap1\n      pop\n        /* \"#utility.yul\":6130:6298   */\n      swap3\n      swap2\n      pop\n      pop\n      jump\t// out\n        /* \"#utility.yul\":6304:6677   */\n    tag_156:\n        /* \"#utility.yul\":6390:6393   */\n      0x00\n        /* \"#utility.yul\":6418:6456   */\n      tag_265\n        /* \"#utility.yul\":6450:6455   */\n      dup3\n        /* \"#utility.yul\":6418:6456   */\n      tag_141\n      jump\t// in\n    tag_265:\n        /* \"#utility.yul\":6472:6542   */\n      tag_266\n        /* \"#utility.yul\":6535:6541   */\n      dup2\n        /* \"#utility.yul\":6530:6533   */\n      dup6\n        /* \"#utility.yul\":6472:6542   */\n      tag_155\n      jump\t// in\n    tag_266:\n        /* \"#utility.yul\":6465:6542   */\n      swap4\n      pop\n        /* \"#utility.yul\":6551:6616   */\n      tag_267\n        /* \"#utility.yul\":6609:6615   */\n      dup2\n        /* \"#utility.yul\":6604:6607   */\n      dup6\n        /* \"#utility.yul\":6597:6601   */\n      0x20\n        /* \"#utility.yul\":6590:6595   */\n      dup7\n        /* \"#utility.yul\":6586:6602   */\n      add\n        /* \"#utility.yul\":6551:6616   */\n      tag_143\n      jump\t// in\n    tag_267:\n        /* \"#utility.yul\":6641:6670   */\n      tag_268\n        /* \"#utility.yul\":6663:6669   */\n      dup2\n        /* \"#utility.yul\":6641:6670   */\n      tag_144\n      jump\t// in\n    tag_268:\n        /* \"#utility.yul\":6636:6639   */\n      dup5\n        /* \"#utility.yul\":6632:6671   */\n      add\n        /* \"#utility.yul\":6625:6671   */\n      swap2\n      pop\n        /* \"#utility.yul\":6394:6677   */\n      pop\n        /* \"#utility.yul\":6304:6677   */\n      swap3\n      swap2\n      pop\n      pop\n      jump\t// out\n        /* \"#utility.yul\":6683:6801   */\n    tag_157:\n        /* \"#utility.yul\":6770:6794   */\n      tag_270\n        /* \"#utility.yul\":6788:6793   */\n      dup2\n        /* \"#utility.yul\":6770:6794   */\n      tag_146\n      jump\t// in\n    tag_270:\n        /* \"#utility.yul\":6765:6768   */\n      dup3\n        /* \"#utility.yul\":6758:6795   */\n      mstore\n        /* \"#utility.yul\":6683:6801   */\n      pop\n      pop\n      jump\t// out\n        /* \"#utility.yul\":6807:6922   */\n    tag_158:\n        /* \"#utility.yul\":6892:6915   */\n      tag_272\n        /* \"#utility.yul\":6909:6914   */\n      dup2\n        /* \"#utility.yul\":6892:6915   */\n      tag_148\n      jump\t// in\n    tag_272:\n        /* \"#utility.yul\":6887:6890   */\n      dup3\n        /* \"#utility.yul\":6880:6916   */\n      mstore\n        /* \"#utility.yul\":6807:6922   */\n      pop\n      pop\n      jump\t// out\n        /* \"#utility.yul\":6928:7980   */\n    tag_28:\n        /* \"#utility.yul\":7221:7225   */\n      0x00\n        /* \"#utility.yul\":7259:7262   */\n      0xe0\n        /* \"#utility.yul\":7248:7257   */\n      dup3\n        /* \"#utility.yul\":7244:7263   */\n      add\n        /* \"#utility.yul\":7236:7263   */\n      swap1\n      pop\n        /* \"#utility.yul\":7273:7344   */\n      tag_274\n        /* \"#utility.yul\":7341:7342   */\n      0x00\n        /* \"#utility.yul\":7330:7339   */\n      dup4\n        /* \"#utility.yul\":7326:7343   */\n      add\n        /* \"#utility.yul\":7317:7323   */\n      dup11\n        /* \"#utility.yul\":7273:7344   */\n      tag_154\n      jump\t// in\n    tag_274:\n        /* \"#utility.yul\":7391:7400   */\n      dup2\n        /* \"#utility.yul\":7385:7389   */\n      dup2\n        /* \"#utility.yul\":7381:7401   */\n      sub\n        /* \"#utility.yul\":7376:7378   */\n      0x20\n        /* \"#utility.yul\":7365:7374   */\n      dup4\n        /* \"#utility.yul\":7361:7379   */\n      add\n        /* \"#utility.yul\":7354:7402   */\n      mstore\n        /* \"#utility.yul\":7419:7495   */\n      tag_275\n        /* \"#utility.yul\":7490:7494   */\n      dup2\n        /* \"#utility.yul\":7481:7487   */\n      dup10\n        /* \"#utility.yul\":7419:7495   */\n      tag_156\n      jump\t// in\n    tag_275:\n        /* \"#utility.yul\":7411:7495   */\n      swap1\n      pop\n        /* \"#utility.yul\":7542:7551   */\n      dup2\n        /* \"#utility.yul\":7536:7540   */\n      dup2\n        /* \"#utility.yul\":7532:7552   */\n      sub\n        /* \"#utility.yul\":7527:7529   */\n      0x40\n        /* \"#utility.yul\":7516:7525   */\n      dup4\n        /* \"#utility.yul\":7512:7530   */\n      add\n        /* \"#utility.yul\":7505:7553   */\n      mstore\n        /* \"#utility.yul\":7570:7646   */\n      tag_276\n        /* \"#utility.yul\":7641:7645   */\n      dup2\n        /* \"#utility.yul\":7632:7638   */\n      dup9\n        /* \"#utility.yul\":7570:7646   */\n      tag_156\n      jump\t// in\n    tag_276:\n        /* \"#utility.yul\":7562:7646   */\n      swap1\n      pop\n        /* \"#utility.yul\":7656:7728   */\n      tag_277\n        /* \"#utility.yul\":7724:7726   */\n      0x60\n        /* \"#utility.yul\":7713:7722   */\n      dup4\n        /* \"#utility.yul\":7709:7727   */\n      add\n        /* \"#utility.yul\":7700:7706   */\n      dup8\n        /* \"#utility.yul\":7656:7728   */\n      tag_157\n      jump\t// in\n    tag_277:\n        /* \"#utility.yul\":7738:7811   */\n      tag_278\n        /* \"#utility.yul\":7806:7809   */\n      0x80\n        /* \"#utility.yul\":7795:7804   */\n      dup4\n        /* \"#utility.yul\":7791:7810   */\n      add\n        /* \"#utility.yul\":7782:7788   */\n      dup7\n        /* \"#utility.yul\":7738:7811   */\n      tag_157\n      jump\t// in\n    tag_278:\n        /* \"#utility.yul\":7821:7892   */\n      tag_279\n        /* \"#utility.yul\":7887:7890   */\n      0xa0\n        /* \"#utility.yul\":7876:7885   */\n      dup4\n        /* \"#utility.yul\":7872:7891   */\n      add\n        /* \"#utility.yul\":7863:7869   */\n      dup6\n        /* \"#utility.yul\":7821:7892   */\n      tag_158\n      jump\t// in\n    tag_279:\n        /* \"#utility.yul\":7902:7973   */\n      tag_280\n        /* \"#utility.yul\":7968:7971   */\n      0xc0\n        /* \"#utility.yul\":7957:7966   */\n      dup4\n        /* \"#utility.yul\":7953:7972   */\n      add\n        /* \"#utility.yul\":7944:7950   */\n      dup5\n        /* \"#utility.yul\":7902:7973   */\n      tag_158\n      jump\t// in\n    tag_280:\n        /* \"#utility.yul\":6928:7980   */\n      swap9\n      swap8\n      pop\n      pop\n      pop\n      pop\n      pop\n      pop\n      pop\n      pop\n      jump\t// out\n        /* \"#utility.yul\":7986:8315   */\n    tag_34:\n        /* \"#utility.yul\":8045:8051   */\n      0x00\n        /* \"#utility.yul\":8094:8096   */\n      0x20\n        /* \"#utility.yul\":8082:8091   */\n      dup3\n        /* \"#utility.yul\":8073:8080   */\n      dup5\n        /* \"#utility.yul\":8069:8092   */\n      sub\n        /* \"#utility.yul\":8065:8097   */\n      slt\n        /* \"#utility.yul\":8062:8181   */\n      iszero\n      tag_282\n      jumpi\n        /* \"#utility.yul\":8100:8179   */\n      tag_283\n      tag_133\n      jump\t// in\n    tag_283:\n        /* \"#utility.yul\":8062:8181   */\n    tag_282:\n        /* \"#utility.yul\":8220:8221   */\n      0x00\n        /* \"#utility.yul\":8245:8298   */\n      tag_284\n        /* \"#utility.yul\":8290:8297   */\n      dup5\n        /* \"#utility.yul\":8281:8287   */\n      dup3\n        /* \"#utility.yul\":8270:8279   */\n      dup6\n        /* \"#utility.yul\":8266:8288   */\n      add\n        /* \"#utility.yul\":8245:8298   */\n      tag_152\n      jump\t// in\n    tag_284:\n        /* \"#utility.yul\":8235:8298   */\n      swap2\n      pop\n        /* \"#utility.yul\":8191:8308   */\n      pop\n        /* \"#utility.yul\":7986:8315   */\n      swap3\n      swap2\n      pop\n      pop\n      jump\t// out\n        /* \"#utility.yul\":8321:8466   */\n    tag_159:\n        /* \"#utility.yul\":8419:8425   */\n      0x00\n        /* \"#utility.yul\":8453:8458   */\n      dup2\n        /* \"#utility.yul\":8447:8459   */\n      mload\n        /* \"#utility.yul\":8437:8459   */\n      swap1\n      pop\n        /* \"#utility.yul\":8321:8466   */\n      swap2\n      swap1\n      pop\n      jump\t// out\n        /* \"#utility.yul\":8472:8687   */\n    tag_160:\n        /* \"#utility.yul\":8602:8613   */\n      0x00\n        /* \"#utility.yul\":8636:8642   */\n      dup3\n        /* \"#utility.yul\":8631:8634   */\n      dup3\n        /* \"#utility.yul\":8624:8643   */\n      mstore\n        /* \"#utility.yul\":8676:8680   */\n      0x20\n        /* \"#utility.yul\":8671:8674   */\n      dup3\n        /* \"#utility.yul\":8667:8681   */\n      add\n        /* \"#utility.yul\":8652:8681   */\n      swap1\n      pop\n        /* \"#utility.yul\":8472:8687   */\n      swap3\n      swap2\n      pop\n      pop\n      jump\t// out\n        /* \"#utility.yul\":8693:8856   */\n    tag_161:\n        /* \"#utility.yul\":8791:8795   */\n      0x00\n        /* \"#utility.yul\":8814:8817   */\n      dup2\n        /* \"#utility.yul\":8806:8817   */\n      swap1\n      pop\n        /* \"#utility.yul\":8844:8848   */\n      0x20\n        /* \"#utility.yul\":8839:8842   */\n      dup3\n        /* \"#utility.yul\":8835:8849   */\n      add\n        /* \"#utility.yul\":8827:8849   */\n      swap1\n      pop\n        /* \"#utility.yul\":8693:8856   */\n      swap2\n      swap1\n      pop\n      jump\t// out\n        /* \"#utility.yul\":8952:10536   */\n    tag_162:\n        /* \"#utility.yul\":9073:9076   */\n      0x00\n        /* \"#utility.yul\":9109:9113   */\n      0xe0\n        /* \"#utility.yul\":9104:9107   */\n      dup4\n        /* \"#utility.yul\":9100:9114   */\n      add\n        /* \"#utility.yul\":9207:9211   */\n      0x00\n        /* \"#utility.yul\":9200:9205   */\n      dup4\n        /* \"#utility.yul\":9196:9212   */\n      add\n        /* \"#utility.yul\":9190:9213   */\n      mload\n        /* \"#utility.yul\":9226:9289   */\n      tag_289\n        /* \"#utility.yul\":9283:9287   */\n      0x00\n        /* \"#utility.yul\":9278:9281   */\n      dup7\n        /* \"#utility.yul\":9274:9288   */\n      add\n        /* \"#utility.yul\":9260:9272   */\n      dup3\n        /* \"#utility.yul\":9226:9289   */\n      tag_140\n      jump\t// in\n    tag_289:\n        /* \"#utility.yul\":9124:9299   */\n      pop\n        /* \"#utility.yul\":9384:9388   */\n      0x20\n        /* \"#utility.yul\":9377:9382   */\n      dup4\n        /* \"#utility.yul\":9373:9389   */\n      add\n        /* \"#utility.yul\":9367:9390   */\n      mload\n        /* \"#utility.yul\":9437:9440   */\n      dup5\n        /* \"#utility.yul\":9431:9435   */\n      dup3\n        /* \"#utility.yul\":9427:9441   */\n      sub\n        /* \"#utility.yul\":9420:9424   */\n      0x20\n        /* \"#utility.yul\":9415:9418   */\n      dup7\n        /* \"#utility.yul\":9411:9425   */\n      add\n        /* \"#utility.yul\":9404:9442   */\n      mstore\n        /* \"#utility.yul\":9463:9534   */\n      tag_290\n        /* \"#utility.yul\":9529:9533   */\n      dup3\n        /* \"#utility.yul\":9515:9527   */\n      dup3\n        /* \"#utility.yul\":9463:9534   */\n      tag_145\n      jump\t// in\n    tag_290:\n        /* \"#utility.yul\":9455:9534   */\n      swap2\n      pop\n        /* \"#utility.yul\":9309:9545   */\n      pop\n        /* \"#utility.yul\":9637:9641   */\n      0x40\n        /* \"#utility.yul\":9630:9635   */\n      dup4\n        /* \"#utility.yul\":9626:9642   */\n      add\n        /* \"#utility.yul\":9620:9643   */\n      mload\n        /* \"#utility.yul\":9690:9693   */\n      dup5\n        /* \"#utility.yul\":9684:9688   */\n      dup3\n        /* \"#utility.yul\":9680:9694   */\n      sub\n        /* \"#utility.yul\":9673:9677   */\n      0x40\n        /* \"#utility.yul\":9668:9671   */\n      dup7\n        /* \"#utility.yul\":9664:9678   */\n      add\n        /* \"#utility.yul\":9657:9695   */\n      mstore\n        /* \"#utility.yul\":9716:9787   */\n      tag_291\n        /* \"#utility.yul\":9782:9786   */\n      dup3\n        /* \"#utility.yul\":9768:9780   */\n      dup3\n        /* \"#utility.yul\":9716:9787   */\n      tag_145\n      jump\t// in\n    tag_291:\n        /* \"#utility.yul\":9708:9787   */\n      swap2\n      pop\n        /* \"#utility.yul\":9555:9798   */\n      pop\n        /* \"#utility.yul\":9883:9887   */\n      0x60\n        /* \"#utility.yul\":9876:9881   */\n      dup4\n        /* \"#utility.yul\":9872:9888   */\n      add\n        /* \"#utility.yul\":9866:9889   */\n      mload\n        /* \"#utility.yul\":9902:9965   */\n      tag_292\n        /* \"#utility.yul\":9959:9963   */\n      0x60\n        /* \"#utility.yul\":9954:9957   */\n      dup7\n        /* \"#utility.yul\":9950:9964   */\n      add\n        /* \"#utility.yul\":9936:9948   */\n      dup3\n        /* \"#utility.yul\":9902:9965   */\n      tag_147\n      jump\t// in\n    tag_292:\n        /* \"#utility.yul\":9808:9975   */\n      pop\n        /* \"#utility.yul\":10061:10065   */\n      0x80\n        /* \"#utility.yul\":10054:10059   */\n      dup4\n        /* \"#utility.yul\":10050:10066   */\n      add\n        /* \"#utility.yul\":10044:10067   */\n      mload\n        /* \"#utility.yul\":10080:10143   */\n      tag_293\n        /* \"#utility.yul\":10137:10141   */\n      0x80\n        /* \"#utility.yul\":10132:10135   */\n      dup7\n        /* \"#utility.yul\":10128:10142   */\n      add\n        /* \"#utility.yul\":10114:10126   */\n      dup3\n        /* \"#utility.yul\":10080:10143   */\n      tag_147\n      jump\t// in\n    tag_293:\n        /* \"#utility.yul\":9985:10153   */\n      pop\n        /* \"#utility.yul\":10238:10242   */\n      0xa0\n        /* \"#utility.yul\":10231:10236   */\n      dup4\n        /* \"#utility.yul\":10227:10243   */\n      add\n        /* \"#utility.yul\":10221:10244   */\n      mload\n        /* \"#utility.yul\":10257:10318   */\n      tag_294\n        /* \"#utility.yul\":10312:10316   */\n      0xa0\n        /* \"#utility.yul\":10307:10310   */\n      dup7\n        /* \"#utility.yul\":10303:10317   */\n      add\n        /* \"#utility.yul\":10289:10301   */\n      dup3\n        /* \"#utility.yul\":10257:10318   */\n      tag_149\n      jump\t// in\n    tag_294:\n        /* \"#utility.yul\":10163:10328   */\n      pop\n        /* \"#utility.yul\":10419:10423   */\n      0xc0\n        /* \"#utility.yul\":10412:10417   */\n      dup4\n        /* \"#utility.yul\":10408:10424   */\n      add\n        /* \"#utility.yul\":10402:10425   */\n      mload\n        /* \"#utility.yul\":10438:10499   */\n      tag_295\n        /* \"#utility.yul\":10493:10497   */\n      0xc0\n        /* \"#utility.yul\":10488:10491   */\n      dup7\n        /* \"#utility.yul\":10484:10498   */\n      add\n        /* \"#utility.yul\":10470:10482   */\n      dup3\n        /* \"#utility.yul\":10438:10499   */\n      tag_149\n      jump\t// in\n    tag_295:\n        /* \"#utility.yul\":10338:10509   */\n      pop\n        /* \"#utility.yul\":10526:10530   */\n      dup1\n        /* \"#utility.yul\":10519:10530   */\n      swap2\n      pop\n        /* \"#utility.yul\":9078:10536   */\n      pop\n        /* \"#utility.yul\":8952:10536   */\n      swap3\n      swap2\n      pop\n      pop\n      jump\t// out\n        /* \"#utility.yul\":10542:10822   */\n    tag_163:\n        /* \"#utility.yul\":10673:10683   */\n      0x00\n        /* \"#utility.yul\":10708:10816   */\n      tag_297\n        /* \"#utility.yul\":10812:10815   */\n      dup4\n        /* \"#utility.yul\":10804:10810   */\n      dup4\n        /* \"#utility.yul\":10708:10816   */\n      tag_162\n      jump\t// in\n    tag_297:\n        /* \"#utility.yul\":10694:10816   */\n      swap1\n      pop\n        /* \"#utility.yul\":10542:10822   */\n      swap3\n      swap2\n      pop\n      pop\n      jump\t// out\n        /* \"#utility.yul\":10828:10972   */\n    tag_164:\n        /* \"#utility.yul\":10929:10933   */\n      0x00\n        /* \"#utility.yul\":10961:10965   */\n      0x20\n        /* \"#utility.yul\":10956:10959   */\n      dup3\n        /* \"#utility.yul\":10952:10966   */\n      add\n        /* \"#utility.yul\":10944:10966   */\n      swap1\n      pop\n        /* \"#utility.yul\":10828:10972   */\n      swap2\n      swap1\n      pop\n      jump\t// out\n        /* \"#utility.yul\":11072:12231   */\n    tag_165:\n        /* \"#utility.yul\":11253:11256   */\n      0x00\n        /* \"#utility.yul\":11282:11367   */\n      tag_300\n        /* \"#utility.yul\":11361:11366   */\n      dup3\n        /* \"#utility.yul\":11282:11367   */\n      tag_159\n      jump\t// in\n    tag_300:\n        /* \"#utility.yul\":11383:11500   */\n      tag_301\n        /* \"#utility.yul\":11493:11499   */\n      dup2\n        /* \"#utility.yul\":11488:11491   */\n      dup6\n        /* \"#utility.yul\":11383:11500   */\n      tag_160\n      jump\t// in\n    tag_301:\n        /* \"#utility.yul\":11376:11500   */\n      swap4\n      pop\n        /* \"#utility.yul\":11526:11529   */\n      dup4\n        /* \"#utility.yul\":11571:11575   */\n      0x20\n        /* \"#utility.yul\":11563:11569   */\n      dup3\n        /* \"#utility.yul\":11559:11576   */\n      mul\n        /* \"#utility.yul\":11554:11557   */\n      dup6\n        /* \"#utility.yul\":11550:11577   */\n      add\n        /* \"#utility.yul\":11601:11688   */\n      tag_302\n        /* \"#utility.yul\":11682:11687   */\n      dup6\n        /* \"#utility.yul\":11601:11688   */\n      tag_161\n      jump\t// in\n    tag_302:\n        /* \"#utility.yul\":11711:11718   */\n      dup1\n        /* \"#utility.yul\":11742:11743   */\n      0x00\n        /* \"#utility.yul\":11727:12186   */\n    tag_303:\n        /* \"#utility.yul\":11752:11758   */\n      dup6\n        /* \"#utility.yul\":11749:11750   */\n      dup2\n        /* \"#utility.yul\":11746:11759   */\n      lt\n        /* \"#utility.yul\":11727:12186   */\n      iszero\n      tag_305\n      jumpi\n        /* \"#utility.yul\":11823:11832   */\n      dup5\n        /* \"#utility.yul\":11817:11821   */\n      dup5\n        /* \"#utility.yul\":11813:11833   */\n      sub\n        /* \"#utility.yul\":11808:11811   */\n      dup10\n        /* \"#utility.yul\":11801:11834   */\n      mstore\n        /* \"#utility.yul\":11874:11880   */\n      dup2\n        /* \"#utility.yul\":11868:11881   */\n      mload\n        /* \"#utility.yul\":11902:12028   */\n      tag_306\n        /* \"#utility.yul\":12023:12027   */\n      dup6\n        /* \"#utility.yul\":12008:12021   */\n      dup3\n        /* \"#utility.yul\":11902:12028   */\n      tag_163\n      jump\t// in\n    tag_306:\n        /* \"#utility.yul\":11894:12028   */\n      swap5\n      pop\n        /* \"#utility.yul\":12051:12142   */\n      tag_307\n        /* \"#utility.yul\":12135:12141   */\n      dup4\n        /* \"#utility.yul\":12051:12142   */\n      tag_164\n      jump\t// in\n    tag_307:\n        /* \"#utility.yul\":12041:12142   */\n      swap3\n      pop\n        /* \"#utility.yul\":12171:12175   */\n      0x20\n        /* \"#utility.yul\":12166:12169   */\n      dup11\n        /* \"#utility.yul\":12162:12176   */\n      add\n        /* \"#utility.yul\":12155:12176   */\n      swap10\n      pop\n        /* \"#utility.yul\":11787:12186   */\n      pop\n        /* \"#utility.yul\":11774:11775   */\n      0x01\n        /* \"#utility.yul\":11771:11772   */\n      dup2\n        /* \"#utility.yul\":11767:11776   */\n      add\n        /* \"#utility.yul\":11762:11776   */\n      swap1\n      pop\n        /* \"#utility.yul\":11727:12186   */\n      jump(tag_303)\n    tag_305:\n        /* \"#utility.yul\":11731:11745   */\n      pop\n        /* \"#utility.yul\":12202:12206   */\n      dup3\n        /* \"#utility.yul\":12195:12206   */\n      swap8\n      pop\n        /* \"#utility.yul\":12222:12225   */\n      dup8\n        /* \"#utility.yul\":12215:12225   */\n      swap6\n      pop\n        /* \"#utility.yul\":11258:12231   */\n      pop\n      pop\n      pop\n      pop\n      pop\n        /* \"#utility.yul\":11072:12231   */\n      swap3\n      swap2\n      pop\n      pop\n      jump\t// out\n        /* \"#utility.yul\":12237:12734   */\n    tag_37:\n        /* \"#utility.yul\":12442:12446   */\n      0x00\n        /* \"#utility.yul\":12480:12482   */\n      0x20\n        /* \"#utility.yul\":12469:12478   */\n      dup3\n        /* \"#utility.yul\":12465:12483   */\n      add\n        /* \"#utility.yul\":12457:12483   */\n      swap1\n      pop\n        /* \"#utility.yul\":12529:12538   */\n      dup2\n        /* \"#utility.yul\":12523:12527   */\n      dup2\n        /* \"#utility.yul\":12519:12539   */\n      sub\n        /* \"#utility.yul\":12515:12516   */\n      0x00\n        /* \"#utility.yul\":12504:12513   */\n      dup4\n        /* \"#utility.yul\":12500:12517   */\n      add\n        /* \"#utility.yul\":12493:12540   */\n      mstore\n        /* \"#utility.yul\":12557:12727   */\n      tag_309\n        /* \"#utility.yul\":12722:12726   */\n      dup2\n        /* \"#utility.yul\":12713:12719   */\n      dup5\n        /* \"#utility.yul\":12557:12727   */\n      tag_165\n      jump\t// in\n    tag_309:\n        /* \"#utility.yul\":12549:12727   */\n      swap1\n      pop\n        /* \"#utility.yul\":12237:12734   */\n      swap3\n      swap2\n      pop\n      pop\n      jump\t// out\n        /* \"#utility.yul\":12740:12854   */\n    tag_166:\n        /* \"#utility.yul\":12807:12813   */\n      0x00\n        /* \"#utility.yul\":12841:12846   */\n      dup2\n        /* \"#utility.yul\":12835:12847   */\n      mload\n        /* \"#utility.yul\":12825:12847   */\n      swap1\n      pop\n        /* \"#utility.yul\":12740:12854   */\n      swap2\n      swap1\n      pop\n      jump\t// out\n        /* \"#utility.yul\":12860:13044   */\n    tag_167:\n        /* \"#utility.yul\":12959:12970   */\n      0x00\n        /* \"#utility.yul\":12993:12999   */\n      dup3\n        /* \"#utility.yul\":12988:12991   */\n      dup3\n        /* \"#utility.yul\":12981:13000   */\n      mstore\n        /* \"#utility.yul\":13033:13037   */\n      0x20\n        /* \"#utility.yul\":13028:13031   */\n      dup3\n        /* \"#utility.yul\":13024:13038   */\n      add\n        /* \"#utility.yul\":13009:13038   */\n      swap1\n      pop\n        /* \"#utility.yul\":12860:13044   */\n      swap3\n      swap2\n      pop\n      pop\n      jump\t// out\n        /* \"#utility.yul\":13050:13182   */\n    tag_168:\n        /* \"#utility.yul\":13117:13121   */\n      0x00\n        /* \"#utility.yul\":13140:13143   */\n      dup2\n        /* \"#utility.yul\":13132:13143   */\n      swap1\n      pop\n        /* \"#utility.yul\":13170:13174   */\n      0x20\n        /* \"#utility.yul\":13165:13168   */\n      dup3\n        /* \"#utility.yul\":13161:13175   */\n      add\n        /* \"#utility.yul\":13153:13175   */\n      swap1\n      pop\n        /* \"#utility.yul\":13050:13182   */\n      swap2\n      swap1\n      pop\n      jump\t// out\n        /* \"#utility.yul\":13188:13296   */\n    tag_169:\n        /* \"#utility.yul\":13265:13289   */\n      tag_314\n        /* \"#utility.yul\":13283:13288   */\n      dup2\n        /* \"#utility.yul\":13265:13289   */\n      tag_135\n      jump\t// in\n    tag_314:\n        /* \"#utility.yul\":13260:13263   */\n      dup3\n        /* \"#utility.yul\":13253:13290   */\n      mstore\n        /* \"#utility.yul\":13188:13296   */\n      pop\n      pop\n      jump\t// out\n        /* \"#utility.yul\":13302:13481   */\n    tag_170:\n        /* \"#utility.yul\":13371:13381   */\n      0x00\n        /* \"#utility.yul\":13392:13438   */\n      tag_316\n        /* \"#utility.yul\":13434:13437   */\n      dup4\n        /* \"#utility.yul\":13426:13432   */\n      dup4\n        /* \"#utility.yul\":13392:13438   */\n      tag_169\n      jump\t// in\n    tag_316:\n        /* \"#utility.yul\":13470:13474   */\n      0x20\n        /* \"#utility.yul\":13465:13468   */\n      dup4\n        /* \"#utility.yul\":13461:13475   */\n      add\n        /* \"#utility.yul\":13447:13475   */\n      swap1\n      pop\n        /* \"#utility.yul\":13302:13481   */\n      swap3\n      swap2\n      pop\n      pop\n      jump\t// out\n        /* \"#utility.yul\":13487:13600   */\n    tag_171:\n        /* \"#utility.yul\":13557:13561   */\n      0x00\n        /* \"#utility.yul\":13589:13593   */\n      0x20\n        /* \"#utility.yul\":13584:13587   */\n      dup3\n        /* \"#utility.yul\":13580:13594   */\n      add\n        /* \"#utility.yul\":13572:13594   */\n      swap1\n      pop\n        /* \"#utility.yul\":13487:13600   */\n      swap2\n      swap1\n      pop\n      jump\t// out\n        /* \"#utility.yul\":13636:14368   */\n    tag_172:\n        /* \"#utility.yul\":13755:13758   */\n      0x00\n        /* \"#utility.yul\":13784:13838   */\n      tag_319\n        /* \"#utility.yul\":13832:13837   */\n      dup3\n        /* \"#utility.yul\":13784:13838   */\n      tag_166\n      jump\t// in\n    tag_319:\n        /* \"#utility.yul\":13854:13940   */\n      tag_320\n        /* \"#utility.yul\":13933:13939   */\n      dup2\n        /* \"#utility.yul\":13928:13931   */\n      dup6\n        /* \"#utility.yul\":13854:13940   */\n      tag_167\n      jump\t// in\n    tag_320:\n        /* \"#utility.yul\":13847:13940   */\n      swap4\n      pop\n        /* \"#utility.yul\":13964:14020   */\n      tag_321\n        /* \"#utility.yul\":14014:14019   */\n      dup4\n        /* \"#utility.yul\":13964:14020   */\n      tag_168\n      jump\t// in\n    tag_321:\n        /* \"#utility.yul\":14043:14050   */\n      dup1\n        /* \"#utility.yul\":14074:14075   */\n      0x00\n        /* \"#utility.yul\":14059:14343   */\n    tag_322:\n        /* \"#utility.yul\":14084:14090   */\n      dup4\n        /* \"#utility.yul\":14081:14082   */\n      dup2\n        /* \"#utility.yul\":14078:14091   */\n      lt\n        /* \"#utility.yul\":14059:14343   */\n      iszero\n      tag_324\n      jumpi\n        /* \"#utility.yul\":14160:14166   */\n      dup2\n        /* \"#utility.yul\":14154:14167   */\n      mload\n        /* \"#utility.yul\":14187:14250   */\n      tag_325\n        /* \"#utility.yul\":14246:14249   */\n      dup9\n        /* \"#utility.yul\":14231:14244   */\n      dup3\n        /* \"#utility.yul\":14187:14250   */\n      tag_170\n      jump\t// in\n    tag_325:\n        /* \"#utility.yul\":14180:14250   */\n      swap8\n      pop\n        /* \"#utility.yul\":14273:14333   */\n      tag_326\n        /* \"#utility.yul\":14326:14332   */\n      dup4\n        /* \"#utility.yul\":14273:14333   */\n      tag_171\n      jump\t// in\n    tag_326:\n        /* \"#utility.yul\":14263:14333   */\n      swap3\n      pop\n        /* \"#utility.yul\":14119:14343   */\n      pop\n        /* \"#utility.yul\":14106:14107   */\n      0x01\n        /* \"#utility.yul\":14103:14104   */\n      dup2\n        /* \"#utility.yul\":14099:14108   */\n      add\n        /* \"#utility.yul\":14094:14108   */\n      swap1\n      pop\n        /* \"#utility.yul\":14059:14343   */\n      jump(tag_322)\n    tag_324:\n        /* \"#utility.yul\":14063:14077   */\n      pop\n        /* \"#utility.yul\":14359:14362   */\n      dup6\n        /* \"#utility.yul\":14352:14362   */\n      swap4\n      pop\n        /* \"#utility.yul\":13760:14368   */\n      pop\n      pop\n      pop\n        /* \"#utility.yul\":13636:14368   */\n      swap3\n      swap2\n      pop\n      pop\n      jump\t// out\n        /* \"#utility.yul\":14374:14747   */\n    tag_41:\n        /* \"#utility.yul\":14517:14521   */\n      0x00\n        /* \"#utility.yul\":14555:14557   */\n      0x20\n        /* \"#utility.yul\":14544:14553   */\n      dup3\n        /* \"#utility.yul\":14540:14558   */\n      add\n        /* \"#utility.yul\":14532:14558   */\n      swap1\n      pop\n        /* \"#utility.yul\":14604:14613   */\n      dup2\n        /* \"#utility.yul\":14598:14602   */\n      dup2\n        /* \"#utility.yul\":14594:14614   */\n      sub\n        /* \"#utility.yul\":14590:14591   */\n      0x00\n        /* \"#utility.yul\":14579:14588   */\n      dup4\n        /* \"#utility.yul\":14575:14592   */\n      add\n        /* \"#utility.yul\":14568:14615   */\n      mstore\n        /* \"#utility.yul\":14632:14740   */\n      tag_328\n        /* \"#utility.yul\":14735:14739   */\n      dup2\n        /* \"#utility.yul\":14726:14732   */\n      dup5\n        /* \"#utility.yul\":14632:14740   */\n      tag_172\n      jump\t// in\n    tag_328:\n        /* \"#utility.yul\":14624:14740   */\n      swap1\n      pop\n        /* \"#utility.yul\":14374:14747   */\n      swap3\n      swap2\n      pop\n      pop\n      jump\t// out\n        /* \"#utility.yul\":14753:14870   */\n    tag_173:\n        /* \"#utility.yul\":14862:14863   */\n      0x00\n        /* \"#utility.yul\":14859:14860   */\n      dup1\n        /* \"#utility.yul\":14852:14864   */\n      revert\n        /* \"#utility.yul\":14876:14993   */\n    tag_174:\n        /* \"#utility.yul\":14985:14986   */\n      0x00\n        /* \"#utility.yul\":14982:14983   */\n      dup1\n        /* \"#utility.yul\":14975:14987   */\n      revert\n        /* \"#utility.yul\":14999:15116   */\n    tag_175:\n        /* \"#utility.yul\":15108:15109   */\n      0x00\n        /* \"#utility.yul\":15105:15106   */\n      dup1\n        /* \"#utility.yul\":15098:15110   */\n      revert\n        /* \"#utility.yul\":15135:15687   */\n    tag_176:\n        /* \"#utility.yul\":15192:15200   */\n      0x00\n        /* \"#utility.yul\":15202:15208   */\n      dup1\n        /* \"#utility.yul\":15252:15255   */\n      dup4\n        /* \"#utility.yul\":15245:15249   */\n      0x1f\n        /* \"#utility.yul\":15237:15243   */\n      dup5\n        /* \"#utility.yul\":15233:15250   */\n      add\n        /* \"#utility.yul\":15229:15256   */\n      slt\n        /* \"#utility.yul\":15219:15341   */\n      tag_333\n      jumpi\n        /* \"#utility.yul\":15260:15339   */\n      tag_334\n      tag_173\n      jump\t// in\n    tag_334:\n        /* \"#utility.yul\":15219:15341   */\n    tag_333:\n        /* \"#utility.yul\":15373:15379   */\n      dup3\n        /* \"#utility.yul\":15360:15380   */\n      calldataload\n        /* \"#utility.yul\":15350:15380   */\n      swap1\n      pop\n        /* \"#utility.yul\":15403:15421   */\n      0xffffffffffffffff\n        /* \"#utility.yul\":15395:15401   */\n      dup2\n        /* \"#utility.yul\":15392:15422   */\n      gt\n        /* \"#utility.yul\":15389:15506   */\n      iszero\n      tag_335\n      jumpi\n        /* \"#utility.yul\":15425:15504   */\n      tag_336\n      tag_174\n      jump\t// in\n    tag_336:\n        /* \"#utility.yul\":15389:15506   */\n    tag_335:\n        /* \"#utility.yul\":15539:15543   */\n      0x20\n        /* \"#utility.yul\":15531:15537   */\n      dup4\n        /* \"#utility.yul\":15527:15544   */\n      add\n        /* \"#utility.yul\":15515:15544   */\n      swap2\n      pop\n        /* \"#utility.yul\":15593:15596   */\n      dup4\n        /* \"#utility.yul\":15585:15589   */\n      0x01\n        /* \"#utility.yul\":15577:15583   */\n      dup3\n        /* \"#utility.yul\":15573:15590   */\n      mul\n        /* \"#utility.yul\":15563:15571   */\n      dup4\n        /* \"#utility.yul\":15559:15591   */\n      add\n        /* \"#utility.yul\":15556:15597   */\n      gt\n        /* \"#utility.yul\":15553:15681   */\n      iszero\n      tag_337\n      jumpi\n        /* \"#utility.yul\":15600:15679   */\n      tag_338\n      tag_175\n      jump\t// in\n    tag_338:\n        /* \"#utility.yul\":15553:15681   */\n    tag_337:\n        /* \"#utility.yul\":15135:15687   */\n      swap3\n      pop\n      swap3\n      swap1\n      pop\n      jump\t// out\n        /* \"#utility.yul\":15693:15815   */\n    tag_177:\n        /* \"#utility.yul\":15766:15790   */\n      tag_340\n        /* \"#utility.yul\":15784:15789   */\n      dup2\n        /* \"#utility.yul\":15766:15790   */\n      tag_146\n      jump\t// in\n    tag_340:\n        /* \"#utility.yul\":15759:15764   */\n      dup2\n        /* \"#utility.yul\":15756:15791   */\n      eq\n        /* \"#utility.yul\":15746:15809   */\n      tag_341\n      jumpi\n        /* \"#utility.yul\":15805:15806   */\n      0x00\n        /* \"#utility.yul\":15802:15803   */\n      dup1\n        /* \"#utility.yul\":15795:15807   */\n      revert\n        /* \"#utility.yul\":15746:15809   */\n    tag_341:\n        /* \"#utility.yul\":15693:15815   */\n      pop\n      jump\t// out\n        /* \"#utility.yul\":15821:15960   */\n    tag_178:\n        /* \"#utility.yul\":15867:15872   */\n      0x00\n        /* \"#utility.yul\":15905:15911   */\n      dup2\n        /* \"#utility.yul\":15892:15912   */\n      calldataload\n        /* \"#utility.yul\":15883:15912   */\n      swap1\n      pop\n        /* \"#utility.yul\":15921:15954   */\n      tag_343\n        /* \"#utility.yul\":15948:15953   */\n      dup2\n        /* \"#utility.yul\":15921:15954   */\n      tag_177\n      jump\t// in\n    tag_343:\n        /* \"#utility.yul\":15821:15960   */\n      swap3\n      swap2\n      pop\n      pop\n      jump\t// out\n        /* \"#utility.yul\":15966:16086   */\n    tag_179:\n        /* \"#utility.yul\":16038:16061   */\n      tag_345\n        /* \"#utility.yul\":16055:16060   */\n      dup2\n        /* \"#utility.yul\":16038:16061   */\n      tag_148\n      jump\t// in\n    tag_345:\n        /* \"#utility.yul\":16031:16036   */\n      dup2\n        /* \"#utility.yul\":16028:16062   */\n      eq\n        /* \"#utility.yul\":16018:16080   */\n      tag_346\n      jumpi\n        /* \"#utility.yul\":16076:16077   */\n      0x00\n        /* \"#utility.yul\":16073:16074   */\n      dup1\n        /* \"#utility.yul\":16066:16078   */\n      revert\n        /* \"#utility.yul\":16018:16080   */\n    tag_346:\n        /* \"#utility.yul\":15966:16086   */\n      pop\n      jump\t// out\n        /* \"#utility.yul\":16092:16229   */\n    tag_180:\n        /* \"#utility.yul\":16137:16142   */\n      0x00\n        /* \"#utility.yul\":16175:16181   */\n      dup2\n        /* \"#utility.yul\":16162:16182   */\n      calldataload\n        /* \"#utility.yul\":16153:16182   */\n      swap1\n      pop\n        /* \"#utility.yul\":16191:16223   */\n      tag_348\n        /* \"#utility.yul\":16217:16222   */\n      dup2\n        /* \"#utility.yul\":16191:16223   */\n      tag_179\n      jump\t// in\n    tag_348:\n        /* \"#utility.yul\":16092:16229   */\n      swap3\n      swap2\n      pop\n      pop\n      jump\t// out\n        /* \"#utility.yul\":16235:17684   */\n    tag_44:\n        /* \"#utility.yul\":16359:16365   */\n      0x00\n        /* \"#utility.yul\":16367:16373   */\n      dup1\n        /* \"#utility.yul\":16375:16381   */\n      0x00\n        /* \"#utility.yul\":16383:16389   */\n      dup1\n        /* \"#utility.yul\":16391:16397   */\n      0x00\n        /* \"#utility.yul\":16399:16405   */\n      dup1\n        /* \"#utility.yul\":16407:16413   */\n      0x00\n        /* \"#utility.yul\":16415:16421   */\n      dup1\n        /* \"#utility.yul\":16464:16467   */\n      0xc0\n        /* \"#utility.yul\":16452:16461   */\n      dup10\n        /* \"#utility.yul\":16443:16450   */\n      dup12\n        /* \"#utility.yul\":16439:16462   */\n      sub\n        /* \"#utility.yul\":16435:16468   */\n      slt\n        /* \"#utility.yul\":16432:16552   */\n      iszero\n      tag_350\n      jumpi\n        /* \"#utility.yul\":16471:16550   */\n      tag_351\n      tag_133\n      jump\t// in\n    tag_351:\n        /* \"#utility.yul\":16432:16552   */\n    tag_350:\n        /* \"#utility.yul\":16619:16620   */\n      0x00\n        /* \"#utility.yul\":16608:16617   */\n      dup10\n        /* \"#utility.yul\":16604:16621   */\n      add\n        /* \"#utility.yul\":16591:16622   */\n      calldataload\n        /* \"#utility.yul\":16649:16667   */\n      0xffffffffffffffff\n        /* \"#utility.yul\":16641:16647   */\n      dup2\n        /* \"#utility.yul\":16638:16668   */\n      gt\n        /* \"#utility.yul\":16635:16752   */\n      iszero\n      tag_352\n      jumpi\n        /* \"#utility.yul\":16671:16750   */\n      tag_353\n      tag_134\n      jump\t// in\n    tag_353:\n        /* \"#utility.yul\":16635:16752   */\n    tag_352:\n        /* \"#utility.yul\":16784:16848   */\n      tag_354\n        /* \"#utility.yul\":16840:16847   */\n      dup12\n        /* \"#utility.yul\":16831:16837   */\n      dup3\n        /* \"#utility.yul\":16820:16829   */\n      dup13\n        /* \"#utility.yul\":16816:16838   */\n      add\n        /* \"#utility.yul\":16784:16848   */\n      tag_176\n      jump\t// in\n    tag_354:\n        /* \"#utility.yul\":16766:16848   */\n      swap9\n      pop\n      swap9\n      pop\n        /* \"#utility.yul\":16562:16858   */\n      pop\n        /* \"#utility.yul\":16925:16927   */\n      0x20\n        /* \"#utility.yul\":16914:16923   */\n      dup10\n        /* \"#utility.yul\":16910:16928   */\n      add\n        /* \"#utility.yul\":16897:16929   */\n      calldataload\n        /* \"#utility.yul\":16956:16974   */\n      0xffffffffffffffff\n        /* \"#utility.yul\":16948:16954   */\n      dup2\n        /* \"#utility.yul\":16945:16975   */\n      gt\n        /* \"#utility.yul\":16942:17059   */\n      iszero\n      tag_355\n      jumpi\n        /* \"#utility.yul\":16978:17057   */\n      tag_356\n      tag_134\n      jump\t// in\n    tag_356:\n        /* \"#utility.yul\":16942:17059   */\n    tag_355:\n        /* \"#utility.yul\":17091:17155   */\n      tag_357\n        /* \"#utility.yul\":17147:17154   */\n      dup12\n        /* \"#utility.yul\":17138:17144   */\n      dup3\n        /* \"#utility.yul\":17127:17136   */\n      dup13\n        /* \"#utility.yul\":17123:17145   */\n      add\n        /* \"#utility.yul\":17091:17155   */\n      tag_176\n      jump\t// in\n    tag_357:\n        /* \"#utility.yul\":17073:17155   */\n      swap7\n      pop\n      swap7\n      pop\n        /* \"#utility.yul\":16868:17165   */\n      pop\n        /* \"#utility.yul\":17204:17206   */\n      0x40\n        /* \"#utility.yul\":17230:17283   */\n      tag_358\n        /* \"#utility.yul\":17275:17282   */\n      dup12\n        /* \"#utility.yul\":17266:17272   */\n      dup3\n        /* \"#utility.yul\":17255:17264   */\n      dup13\n        /* \"#utility.yul\":17251:17273   */\n      add\n        /* \"#utility.yul\":17230:17283   */\n      tag_178\n      jump\t// in\n    tag_358:\n        /* \"#utility.yul\":17220:17283   */\n      swap5\n      pop\n        /* \"#utility.yul\":17175:17293   */\n      pop\n        /* \"#utility.yul\":17332:17334   */\n      0x60\n        /* \"#utility.yul\":17358:17411   */\n      tag_359\n        /* \"#utility.yul\":17403:17410   */\n      dup12\n        /* \"#utility.yul\":17394:17400   */\n      dup3\n        /* \"#utility.yul\":17383:17392   */\n      dup13\n        /* \"#utility.yul\":17379:17401   */\n      add\n        /* \"#utility.yul\":17358:17411   */\n      tag_178\n      jump\t// in\n    tag_359:\n        /* \"#utility.yul\":17348:17411   */\n      swap4\n      pop\n        /* \"#utility.yul\":17303:17421   */\n      pop\n        /* \"#utility.yul\":17460:17463   */\n      0x80\n        /* \"#utility.yul\":17487:17539   */\n      tag_360\n        /* \"#utility.yul\":17531:17538   */\n      dup12\n        /* \"#utility.yul\":17522:17528   */\n      dup3\n        /* \"#utility.yul\":17511:17520   */\n      dup13\n        /* \"#utility.yul\":17507:17529   */\n      add\n        /* \"#utility.yul\":17487:17539   */\n      tag_180\n      jump\t// in\n    tag_360:\n        /* \"#utility.yul\":17477:17539   */\n      swap3\n      pop\n        /* \"#utility.yul\":17431:17549   */\n      pop\n        /* \"#utility.yul\":17588:17591   */\n      0xa0\n        /* \"#utility.yul\":17615:17667   */\n      tag_361\n        /* \"#utility.yul\":17659:17666   */\n      dup12\n        /* \"#utility.yul\":17650:17656   */\n      dup3\n        /* \"#utility.yul\":17639:17648   */\n      dup13\n        /* \"#utility.yul\":17635:17657   */\n      add\n        /* \"#utility.yul\":17615:17667   */\n      tag_180\n      jump\t// in\n    tag_361:\n        /* \"#utility.yul\":17605:17667   */\n      swap2\n      pop\n        /* \"#utility.yul\":17559:17677   */\n      pop\n        /* \"#utility.yul\":16235:17684   */\n      swap3\n      swap6\n      swap9\n      pop\n      swap3\n      swap6\n      swap9\n      swap1\n      swap4\n      swap7\n      pop\n      jump\t// out\n        /* \"#utility.yul\":17690:18164   */\n    tag_48:\n        /* \"#utility.yul\":17758:17764   */\n      0x00\n        /* \"#utility.yul\":17766:17772   */\n      dup1\n        /* \"#utility.yul\":17815:17817   */\n      0x40\n        /* \"#utility.yul\":17803:17812   */\n      dup4\n        /* \"#utility.yul\":17794:17801   */\n      dup6\n        /* \"#utility.yul\":17790:17813   */\n      sub\n        /* \"#utility.yul\":17786:17818   */\n      slt\n        /* \"#utility.yul\":17783:17902   */\n      iszero\n      tag_363\n      jumpi\n        /* \"#utility.yul\":17821:17900   */\n      tag_364\n      tag_133\n      jump\t// in\n    tag_364:\n        /* \"#utility.yul\":17783:17902   */\n    tag_363:\n        /* \"#utility.yul\":17941:17942   */\n      0x00\n        /* \"#utility.yul\":17966:18019   */\n      tag_365\n        /* \"#utility.yul\":18011:18018   */\n      dup6\n        /* \"#utility.yul\":18002:18008   */\n      dup3\n        /* \"#utility.yul\":17991:18000   */\n      dup7\n        /* \"#utility.yul\":17987:18009   */\n      add\n        /* \"#utility.yul\":17966:18019   */\n      tag_137\n      jump\t// in\n    tag_365:\n        /* \"#utility.yul\":17956:18019   */\n      swap3\n      pop\n        /* \"#utility.yul\":17912:18029   */\n      pop\n        /* \"#utility.yul\":18068:18070   */\n      0x20\n        /* \"#utility.yul\":18094:18147   */\n      tag_366\n        /* \"#utility.yul\":18139:18146   */\n      dup6\n        /* \"#utility.yul\":18130:18136   */\n      dup3\n        /* \"#utility.yul\":18119:18128   */\n      dup7\n        /* \"#utility.yul\":18115:18137   */\n      add\n        /* \"#utility.yul\":18094:18147   */\n      tag_178\n      jump\t// in\n    tag_366:\n        /* \"#utility.yul\":18084:18147   */\n      swap2\n      pop\n        /* \"#utility.yul\":18039:18157   */\n      pop\n        /* \"#utility.yul\":17690:18164   */\n      swap3\n      pop\n      swap3\n      swap1\n      pop\n      jump\t// out\n        /* \"#utility.yul\":18170:18350   */\n    tag_181:\n        /* \"#utility.yul\":18218:18295   */\n      0x4e487b7100000000000000000000000000000000000000000000000000000000\n        /* \"#utility.yul\":18215:18216   */\n      0x00\n        /* \"#utility.yul\":18208:18296   */\n      mstore\n        /* \"#utility.yul\":18315:18319   */\n      0x22\n        /* \"#utility.yul\":18312:18313   */\n      0x04\n        /* \"#utility.yul\":18305:18320   */\n      mstore\n        /* \"#utility.yul\":18339:18343   */\n      0x24\n        /* \"#utility.yul\":18336:18337   */\n      0x00\n        /* \"#utility.yul\":18329:18344   */\n      revert\n        /* \"#utility.yul\":18356:18676   */\n    tag_54:\n        /* \"#utility.yul\":18400:18406   */\n      0x00\n        /* \"#utility.yul\":18437:18438   */\n      0x02\n        /* \"#utility.yul\":18431:18435   */\n      dup3\n        /* \"#utility.yul\":18427:18439   */\n      div\n        /* \"#utility.yul\":18417:18439   */\n      swap1\n      pop\n        /* \"#utility.yul\":18484:18485   */\n      0x01\n        /* \"#utility.yul\":18478:18482   */\n      dup3\n        /* \"#utility.yul\":18474:18486   */\n      and\n        /* \"#utility.yul\":18505:18523   */\n      dup1\n        /* \"#utility.yul\":18495:18576   */\n      tag_369\n      jumpi\n        /* \"#utility.yul\":18561:18565   */\n      0x7f\n        /* \"#utility.yul\":18553:18559   */\n      dup3\n        /* \"#utility.yul\":18549:18566   */\n      and\n        /* \"#utility.yul\":18539:18566   */\n      swap2\n      pop\n        /* \"#utility.yul\":18495:18576   */\n    tag_369:\n        /* \"#utility.yul\":18623:18625   */\n      0x20\n        /* \"#utility.yul\":18615:18621   */\n      dup3\n        /* \"#utility.yul\":18612:18626   */\n      lt\n        /* \"#utility.yul\":18592:18610   */\n      dup2\n        /* \"#utility.yul\":18589:18627   */\n      sub\n        /* \"#utility.yul\":18586:18670   */\n      tag_370\n      jumpi\n        /* \"#utility.yul\":18642:18660   */\n      tag_371\n      tag_181\n      jump\t// in\n    tag_371:\n        /* \"#utility.yul\":18586:18670   */\n    tag_370:\n        /* \"#utility.yul\":18407:18676   */\n      pop\n        /* \"#utility.yul\":18356:18676   */\n      swap2\n      swap1\n      pop\n      jump\t// out\n        /* \"#utility.yul\":18682:18862   */\n    tag_85:\n        /* \"#utility.yul\":18730:18807   */\n      0x4e487b7100000000000000000000000000000000000000000000000000000000\n        /* \"#utility.yul\":18727:18728   */\n      0x00\n        /* \"#utility.yul\":18720:18808   */\n      mstore\n        /* \"#utility.yul\":18827:18831   */\n      0x41\n        /* \"#utility.yul\":18824:18825   */\n      0x04\n        /* \"#utility.yul\":18817:18832   */\n      mstore\n        /* \"#utility.yul\":18851:18855   */\n      0x24\n        /* \"#utility.yul\":18848:18849   */\n      0x00\n        /* \"#utility.yul\":18841:18856   */\n      revert\n        /* \"#utility.yul\":18868:19048   */\n    tag_94:\n        /* \"#utility.yul\":18916:18993   */\n      0x4e487b7100000000000000000000000000000000000000000000000000000000\n        /* \"#utility.yul\":18913:18914   */\n      0x00\n        /* \"#utility.yul\":18906:18994   */\n      mstore\n        /* \"#utility.yul\":19013:19017   */\n      0x32\n        /* \"#utility.yul\":19010:19011   */\n      0x04\n        /* \"#utility.yul\":19003:19018   */\n      mstore\n        /* \"#utility.yul\":19037:19041   */\n      0x24\n        /* \"#utility.yul\":19034:19035   */\n      0x00\n        /* \"#utility.yul\":19027:19042   */\n      revert\n        /* \"#utility.yul\":19054:19234   */\n    tag_182:\n        /* \"#utility.yul\":19102:19179   */\n      0x4e487b7100000000000000000000000000000000000000000000000000000000\n        /* \"#utility.yul\":19099:19100   */\n      0x00\n        /* \"#utility.yul\":19092:19180   */\n      mstore\n        /* \"#utility.yul\":19199:19203   */\n      0x11\n        /* \"#utility.yul\":19196:19197   */\n      0x04\n        /* \"#utility.yul\":19189:19204   */\n      mstore\n        /* \"#utility.yul\":19223:19227   */\n      0x24\n        /* \"#utility.yul\":19220:19221   */\n      0x00\n        /* \"#utility.yul\":19213:19228   */\n      revert\n        /* \"#utility.yul\":19240:19473   */\n    tag_108:\n        /* \"#utility.yul\":19279:19282   */\n      0x00\n        /* \"#utility.yul\":19302:19326   */\n      tag_376\n        /* \"#utility.yul\":19320:19325   */\n      dup3\n        /* \"#utility.yul\":19302:19326   */\n      tag_135\n      jump\t// in\n    tag_376:\n        /* \"#utility.yul\":19293:19326   */\n      swap2\n      pop\n        /* \"#utility.yul\":19348:19414   */\n      0xffffffffffffffffffffffffffffffffffffffffffffffffffffffffffffffff\n        /* \"#utility.yul\":19341:19346   */\n      dup3\n        /* \"#utility.yul\":19338:19415   */\n      sub\n        /* \"#utility.yul\":19335:19438   */\n      tag_377\n      jumpi\n        /* \"#utility.yul\":19418:19436   */\n      tag_378\n      tag_182\n      jump\t// in\n    tag_378:\n        /* \"#utility.yul\":19335:19438   */\n    tag_377:\n        /* \"#utility.yul\":19465:19466   */\n      0x01\n        /* \"#utility.yul\":19458:19463   */\n      dup3\n        /* \"#utility.yul\":19454:19467   */\n      add\n        /* \"#utility.yul\":19447:19467   */\n      swap1\n      pop\n        /* \"#utility.yul\":19240:19473   */\n      swap2\n      swap1\n      pop\n      jump\t// out\n        /* \"#utility.yul\":19479:19619   */\n    tag_183:\n        /* \"#utility.yul\":19527:19531   */\n      0x00\n        /* \"#utility.yul\":19550:19553   */\n      dup2\n        /* \"#utility.yul\":19542:19553   */\n      swap1\n      pop\n        /* \"#utility.yul\":19573:19576   */\n      dup2\n        /* \"#utility.yul\":19570:19571   */\n      0x00\n        /* \"#utility.yul\":19563:19577   */\n      mstore\n        /* \"#utility.yul\":19607:19611   */\n      0x20\n        /* \"#utility.yul\":19604:19605   */\n      0x00\n        /* \"#utility.yul\":19594:19612   */\n      keccak256\n        /* \"#utility.yul\":19586:19612   */\n      swap1\n      pop\n        /* \"#utility.yul\":19479:19619   */\n      swap2\n      swap1\n      pop\n      jump\t// out\n        /* \"#utility.yul\":19625:19718   */\n    tag_184:\n        /* \"#utility.yul\":19662:19668   */\n      0x00\n        /* \"#utility.yul\":19709:19711   */\n      0x20\n        /* \"#utility.yul\":19704:19706   */\n      0x1f\n        /* \"#utility.yul\":19697:19702   */\n      dup4\n        /* \"#utility.yul\":19693:19707   */\n      add\n        /* \"#utility.yul\":19689:19712   */\n      div\n        /* \"#utility.yul\":19679:19712   */\n      swap1\n      pop\n        /* \"#utility.yul\":19625:19718   */\n      swap2\n      swap1\n      pop\n      jump\t// out\n        /* \"#utility.yul\":19724:19831   */\n    tag_185:\n        /* \"#utility.yul\":19768:19776   */\n      0x00\n        /* \"#utility.yul\":19818:19823   */\n      dup3\n        /* \"#utility.yul\":19812:19816   */\n      dup3\n        /* \"#utility.yul\":19808:19824   */\n      shl\n        /* \"#utility.yul\":19787:19824   */\n      swap1\n      pop\n        /* \"#utility.yul\":19724:19831   */\n      swap3\n      swap2\n      pop\n      pop\n      jump\t// out\n        /* \"#utility.yul\":19837:20230   */\n    tag_186:\n        /* \"#utility.yul\":19906:19912   */\n      0x00\n        /* \"#utility.yul\":19956:19957   */\n      0x08\n        /* \"#utility.yul\":19944:19954   */\n      dup4\n        /* \"#utility.yul\":19940:19958   */\n      mul\n        /* \"#utility.yul\":19979:20076   */\n      tag_383\n        /* \"#utility.yul\":20009:20075   */\n      0xffffffffffffffffffffffffffffffffffffffffffffffffffffffffffffffff\n        /* \"#utility.yul\":19998:20007   */\n      dup3\n        /* \"#utility.yul\":19979:20076   */\n      tag_185\n      jump\t// in\n    tag_383:\n        /* \"#utility.yul\":20097:20136   */\n      tag_384\n        /* \"#utility.yul\":20127:20135   */\n      dup7\n        /* \"#utility.yul\":20116:20125   */\n      dup4\n        /* \"#utility.yul\":20097:20136   */\n      tag_185\n      jump\t// in\n    tag_384:\n        /* \"#utility.yul\":20085:20136   */\n      swap6\n      pop\n        /* \"#utility.yul\":20169:20173   */\n      dup1\n        /* \"#utility.yul\":20165:20174   */\n      not\n        /* \"#utility.yul\":20158:20163   */\n      dup5\n        /* \"#utility.yul\":20154:20175   */\n      and\n        /* \"#utility.yul\":20145:20175   */\n      swap4\n      pop\n        /* \"#utility.yul\":20218:20222   */\n      dup1\n        /* \"#utility.yul\":20208:20216   */\n      dup7\n        /* \"#utility.yul\":20204:20223   */\n      and\n        /* \"#utility.yul\":20197:20202   */\n      dup5\n        /* \"#utility.yul\":20194:20224   */\n      or\n        /* \"#utility.yul\":20184:20224   */\n      swap3\n      pop\n        /* \"#utility.yul\":19913:20230   */\n      pop\n      pop\n        /* \"#utility.yul\":19837:20230   */\n      swap4\n      swap3\n      pop\n      pop\n      pop\n      jump\t// out\n        /* \"#utility.yul\":20236:20296   */\n    tag_187:\n        /* \"#utility.yul\":20264:20267   */\n      0x00\n        /* \"#utility.yul\":20285:20290   */\n      dup2\n        /* \"#utility.yul\":20278:20290   */\n      swap1\n      pop\n        /* \"#utility.yul\":20236:20296   */\n      swap2\n      swap1\n      pop\n      jump\t// out\n        /* \"#utility.yul\":20302:20444   */\n    tag_188:\n        /* \"#utility.yul\":20352:20361   */\n      0x00\n        /* \"#utility.yul\":20385:20438   */\n      tag_387\n        /* \"#utility.yul\":20403:20437   */\n      tag_388\n        /* \"#utility.yul\":20412:20436   */\n      tag_389\n        /* \"#utility.yul\":20430:20435   */\n      dup5\n        /* \"#utility.yul\":20412:20436   */\n      tag_135\n      jump\t// in\n    tag_389:\n        /* \"#utility.yul\":20403:20437   */\n      tag_187\n      jump\t// in\n    tag_388:\n        /* \"#utility.yul\":20385:20438   */\n      tag_135\n      jump\t// in\n    tag_387:\n        /* \"#utility.yul\":20372:20438   */\n      swap1\n      pop\n        /* \"#utility.yul\":20302:20444   */\n      swap2\n      swap1\n      pop\n      jump\t// out\n        /* \"#utility.yul\":20450:20525   */\n    tag_189:\n        /* \"#utility.yul\":20493:20496   */\n      0x00\n        /* \"#utility.yul\":20514:20519   */\n      dup2\n        /* \"#utility.yul\":20507:20519   */\n      swap1\n      pop\n        /* \"#utility.yul\":20450:20525   */\n      swap2\n      swap1\n      pop\n      jump\t// out\n        /* \"#utility.yul\":20531:20800   */\n    tag_190:\n        /* \"#utility.yul\":20641:20680   */\n      tag_392\n        /* \"#utility.yul\":20672:20679   */\n      dup4\n        /* \"#utility.yul\":20641:20680   */\n      tag_188\n      jump\t// in\n    tag_392:\n        /* \"#utility.yul\":20702:20793   */\n      tag_393\n        /* \"#utility.yul\":20751:20792   */\n      tag_394\n        /* \"#utility.yul\":20775:20791   */\n      dup3\n        /* \"#utility.yul\":20751:20792   */\n      tag_189\n      jump\t// in\n    tag_394:\n        /* \"#utility.yul\":20743:20749   */\n      dup5\n        /* \"#utility.yul\":20736:20740   */\n      dup5\n        /* \"#utility.yul\":20730:20741   */\n      sload\n        /* \"#utility.yul\":20702:20793   */\n      tag_186\n      jump\t// in\n    tag_393:\n        /* \"#utility.yul\":20696:20700   */\n      dup3\n        /* \"#utility.yul\":20689:20794   */\n      sstore\n        /* \"#utility.yul\":20607:20800   */\n      pop\n        /* \"#utility.yul\":20531:20800   */\n      pop\n      pop\n      pop\n      jump\t// out\n        /* \"#utility.yul\":20806:20879   */\n    tag_191:\n        /* \"#utility.yul\":20851:20854   */\n      0x00\n        /* \"#utility.yul\":20806:20879   */\n      swap1\n      jump\t// out\n        /* \"#utility.yul\":20885:21074   */\n    tag_192:\n        /* \"#utility.yul\":20962:20994   */\n      tag_397\n      tag_191\n      jump\t// in\n    tag_397:\n        /* \"#utility.yul\":21003:21068   */\n      tag_398\n        /* \"#utility.yul\":21061:21067   */\n      dup2\n        /* \"#utility.yul\":21053:21059   */\n      dup5\n        /* \"#utility.yul\":21047:21051   */\n      dup5\n        /* \"#utility.yul\":21003:21068   */\n      tag_190\n      jump\t// in\n    tag_398:\n        /* \"#utility.yul\":20938:21074   */\n      pop\n        /* \"#utility.yul\":20885:21074   */\n      pop\n      pop\n      jump\t// out\n        /* \"#utility.yul\":21080:21266   */\n    tag_193:\n        /* \"#utility.yul\":21140:21260   */\n    tag_400:\n        /* \"#utility.yul\":21157:21160   */\n      dup2\n        /* \"#utility.yul\":21150:21155   */\n      dup2\n        /* \"#utility.yul\":21147:21161   */\n      lt\n        /* \"#utility.yul\":21140:21260   */\n      iszero\n      tag_402\n      jumpi\n        /* \"#utility.yul\":21211:21250   */\n      tag_403\n        /* \"#utility.yul\":21248:21249   */\n      0x00\n        /* \"#utility.yul\":21241:21246   */\n      dup3\n        /* \"#utility.yul\":21211:21250   */\n      tag_192\n      jump\t// in\n    tag_403:\n        /* \"#utility.yul\":21184:21185   */\n      0x01\n        /* \"#utility.yul\":21177:21182   */\n      dup2\n        /* \"#utility.yul\":21173:21186   */\n      add\n        /* \"#utility.yul\":21164:21186   */\n      swap1\n      pop\n        /* \"#utility.yul\":21140:21260   */\n      jump(tag_400)\n    tag_402:\n        /* \"#utility.yul\":21080:21266   */\n      pop\n      pop\n      jump\t// out\n        /* \"#utility.yul\":21272:21813   */\n    tag_194:\n        /* \"#utility.yul\":21372:21374   */\n      0x1f\n        /* \"#utility.yul\":21367:21370   */\n      dup3\n        /* \"#utility.yul\":21364:21375   */\n      gt\n        /* \"#utility.yul\":21361:21806   */\n      iszero\n      tag_405\n      jumpi\n        /* \"#utility.yul\":21406:21443   */\n      tag_406\n        /* \"#utility.yul\":21437:21442   */\n      dup2\n        /* \"#utility.yul\":21406:21443   */\n      tag_183\n      jump\t// in\n    tag_406:\n        /* \"#utility.yul\":21489:21518   */\n      tag_407\n        /* \"#utility.yul\":21507:21517   */\n      dup5\n        /* \"#utility.yul\":21489:21518   */\n      tag_184\n      jump\t// in\n    tag_407:\n        /* \"#utility.yul\":21479:21487   */\n      dup2\n        /* \"#utility.yul\":21475:21519   */\n      add\n        /* \"#utility.yul\":21672:21674   */\n      0x20\n        /* \"#utility.yul\":21660:21670   */\n      dup6\n        /* \"#utility.yul\":21657:21675   */\n      lt\n        /* \"#utility.yul\":21654:21703   */\n      iszero\n      tag_408\n      jumpi\n        /* \"#utility.yul\":21693:21701   */\n      dup2\n        /* \"#utility.yul\":21678:21701   */\n      swap1\n      pop\n        /* \"#utility.yul\":21654:21703   */\n    tag_408:\n        /* \"#utility.yul\":21716:21796   */\n      tag_409\n        /* \"#utility.yul\":21772:21794   */\n      tag_410\n        /* \"#utility.yul\":21790:21793   */\n      dup6\n        /* \"#utility.yul\":21772:21794   */\n      tag_184\n      jump\t// in\n    tag_410:\n        /* \"#utility.yul\":21762:21770   */\n      dup4\n        /* \"#utility.yul\":21758:21795   */\n      add\n        /* \"#utility.yul\":21745:21756   */\n      dup3\n        /* \"#utility.yul\":21716:21796   */\n      tag_193\n      jump\t// in\n    tag_409:\n        /* \"#utility.yul\":21376:21806   */\n      pop\n      pop\n        /* \"#utility.yul\":21361:21806   */\n    tag_405:\n        /* \"#utility.yul\":21272:21813   */\n      pop\n      pop\n      pop\n      jump\t// out\n        /* \"#utility.yul\":21819:21936   */\n    tag_195:\n        /* \"#utility.yul\":21873:21881   */\n      0x00\n        /* \"#utility.yul\":21923:21928   */\n      dup3\n        /* \"#utility.yul\":21917:21921   */\n      dup3\n        /* \"#utility.yul\":21913:21929   */\n      shr\n        /* \"#utility.yul\":21892:21929   */\n      swap1\n      pop\n        /* \"#utility.yul\":21819:21936   */\n      swap3\n      swap2\n      pop\n      pop\n      jump\t// out\n        /* \"#utility.yul\":21942:22111   */\n    tag_196:\n        /* \"#utility.yul\":21986:21992   */\n      0x00\n        /* \"#utility.yul\":22019:22070   */\n      tag_413\n        /* \"#utility.yul\":22067:22068   */\n      0x00\n        /* \"#utility.yul\":22063:22069   */\n      not\n        /* \"#utility.yul\":22055:22060   */\n      dup5\n        /* \"#utility.yul\":22052:22053   */\n      0x08\n        /* \"#utility.yul\":22048:22061   */\n      mul\n        /* \"#utility.yul\":22019:22070   */\n      tag_195\n      jump\t// in\n    tag_413:\n        /* \"#utility.yul\":22015:22071   */\n      not\n        /* \"#utility.yul\":22100:22104   */\n      dup1\n        /* \"#utility.yul\":22094:22098   */\n      dup4\n        /* \"#utility.yul\":22090:22105   */\n      and\n        /* \"#utility.yul\":22080:22105   */\n      swap2\n      pop\n        /* \"#utility.yul\":21993:22111   */\n      pop\n        /* \"#utility.yul\":21942:22111   */\n      swap3\n      swap2\n      pop\n      pop\n      jump\t// out\n        /* \"#utility.yul\":22116:22411   */\n    tag_197:\n        /* \"#utility.yul\":22192:22196   */\n      0x00\n        /* \"#utility.yul\":22338:22367   */\n      tag_415\n        /* \"#utility.yul\":22363:22366   */\n      dup4\n        /* \"#utility.yul\":22357:22361   */\n      dup4\n        /* \"#utility.yul\":22338:22367   */\n      tag_196\n      jump\t// in\n    tag_415:\n        /* \"#utility.yul\":22330:22367   */\n      swap2\n      pop\n        /* \"#utility.yul\":22400:22403   */\n      dup3\n        /* \"#utility.yul\":22397:22398   */\n      0x02\n        /* \"#utility.yul\":22393:22404   */\n      mul\n        /* \"#utility.yul\":22387:22391   */\n      dup3\n        /* \"#utility.yul\":22384:22405   */\n      or\n        /* \"#utility.yul\":22376:22405   */\n      swap1\n      pop\n        /* \"#utility.yul\":22116:22411   */\n      swap3\n      swap2\n      pop\n      pop\n      jump\t// out\n        /* \"#utility.yul\":22416:23806   */\n    tag_114:\n        /* \"#utility.yul\":22531:22567   */\n      tag_417\n        /* \"#utility.yul\":22563:22566   */\n      dup3\n        /* \"#utility.yul\":22531:22567   */\n      tag_141\n      jump\t// in\n    tag_417:\n        /* \"#utility.yul\":22632:22650   */\n      0xffffffffffffffff\n        /* \"#utility.yul\":22624:22630   */\n      dup2\n        /* \"#utility.yul\":22621:22651   */\n      gt\n        /* \"#utility.yul\":22618:22674   */\n      iszero\n      tag_418\n      jumpi\n        /* \"#utility.yul\":22654:22672   */\n      tag_419\n      tag_85\n      jump\t// in\n    tag_419:\n        /* \"#utility.yul\":22618:22674   */\n    tag_418:\n        /* \"#utility.yul\":22698:22736   */\n      tag_420\n        /* \"#utility.yul\":22730:22734   */\n      dup3\n        /* \"#utility.yul\":22724:22735   */\n      sload\n        /* \"#utility.yul\":22698:22736   */\n      tag_54\n      jump\t// in\n    tag_420:\n        /* \"#utility.yul\":22783:22849   */\n      tag_421\n        /* \"#utility.yul\":22842:22848   */\n      dup3\n        /* \"#utility.yul\":22834:22840   */\n      dup3\n        /* \"#utility.yul\":22828:22832   */\n      dup6\n        /* \"#utility.yul\":22783:22849   */\n      tag_194\n      jump\t// in\n    tag_421:\n        /* \"#utility.yul\":22876:22877   */\n      0x00\n        /* \"#utility.yul\":22900:22904   */\n      0x20\n        /* \"#utility.yul\":22887:22904   */\n      swap1\n      pop\n        /* \"#utility.yul\":22932:22934   */\n      0x1f\n        /* \"#utility.yul\":22924:22930   */\n      dup4\n        /* \"#utility.yul\":22921:22935   */\n      gt\n        /* \"#utility.yul\":22949:22950   */\n      0x01\n        /* \"#utility.yul\":22944:23561   */\n      dup2\n      eq\n      tag_423\n      jumpi\n        /* \"#utility.yul\":23605:23606   */\n      0x00\n        /* \"#utility.yul\":23622:23628   */\n      dup5\n        /* \"#utility.yul\":23619:23696   */\n      iszero\n      tag_424\n      jumpi\n        /* \"#utility.yul\":23671:23680   */\n      dup3\n        /* \"#utility.yul\":23666:23669   */\n      dup8\n        /* \"#utility.yul\":23662:23681   */\n      add\n        /* \"#utility.yul\":23656:23682   */\n      mload\n        /* \"#utility.yul\":23647:23682   */\n      swap1\n      pop\n        /* \"#utility.yul\":23619:23696   */\n    tag_424:\n        /* \"#utility.yul\":23722:23789   */\n      tag_425\n        /* \"#utility.yul\":23782:23788   */\n      dup6\n        /* \"#utility.yul\":23775:23780   */\n      dup3\n        /* \"#utility.yul\":23722:23789   */\n      tag_197\n      jump\t// in\n    tag_425:\n        /* \"#utility.yul\":23716:23720   */\n      dup7\n        /* \"#utility.yul\":23709:23790   */\n      sstore\n        /* \"#utility.yul\":23578:23800   */\n      pop\n        /* \"#utility.yul\":22914:23800   */\n      jump(tag_422)\n        /* \"#utility.yul\":22944:23561   */\n    tag_423:\n        /* \"#utility.yul\":22996:23000   */\n      0x1f\n        /* \"#utility.yul\":22992:23001   */\n      not\n        /* \"#utility.yul\":22984:22990   */\n      dup5\n        /* \"#utility.yul\":22980:23002   */\n      and\n        /* \"#utility.yul\":23030:23066   */\n      tag_426\n        /* \"#utility.yul\":23061:23065   */\n      dup7\n        /* \"#utility.yul\":23030:23066   */\n      tag_183\n      jump\t// in\n    tag_426:\n        /* \"#utility.yul\":23088:23089   */\n      0x00\n        /* \"#utility.yul\":23102:23310   */\n    tag_427:\n        /* \"#utility.yul\":23116:23123   */\n      dup3\n        /* \"#utility.yul\":23113:23114   */\n      dup2\n        /* \"#utility.yul\":23110:23124   */\n      lt\n        /* \"#utility.yul\":23102:23310   */\n      iszero\n      tag_429\n      jumpi\n        /* \"#utility.yul\":23195:23204   */\n      dup5\n        /* \"#utility.yul\":23190:23193   */\n      dup10\n        /* \"#utility.yul\":23186:23205   */\n      add\n        /* \"#utility.yul\":23180:23206   */\n      mload\n        /* \"#utility.yul\":23172:23178   */\n      dup3\n        /* \"#utility.yul\":23165:23207   */\n      sstore\n        /* \"#utility.yul\":23246:23247   */\n      0x01\n        /* \"#utility.yul\":23238:23244   */\n      dup3\n        /* \"#utility.yul\":23234:23248   */\n      add\n        /* \"#utility.yul\":23224:23248   */\n      swap2\n      pop\n        /* \"#utility.yul\":23293:23295   */\n      0x20\n        /* \"#utility.yul\":23282:23291   */\n      dup6\n        /* \"#utility.yul\":23278:23296   */\n      add\n        /* \"#utility.yul\":23265:23296   */\n      swap5\n      pop\n        /* \"#utility.yul\":23139:23143   */\n      0x20\n        /* \"#utility.yul\":23136:23137   */\n      dup2\n        /* \"#utility.yul\":23132:23144   */\n      add\n        /* \"#utility.yul\":23127:23144   */\n      swap1\n      pop\n        /* \"#utility.yul\":23102:23310   */\n      jump(tag_427)\n    tag_429:\n        /* \"#utility.yul\":23338:23344   */\n      dup7\n        /* \"#utility.yul\":23329:23336   */\n      dup4\n        /* \"#utility.yul\":23326:23345   */\n      lt\n        /* \"#utility.yul\":23323:23502   */\n      iszero\n      tag_430\n      jumpi\n        /* \"#utility.yul\":23396:23405   */\n      dup5\n        /* \"#utility.yul\":23391:23394   */\n      dup10\n        /* \"#utility.yul\":23387:23406   */\n      add\n        /* \"#utility.yul\":23381:23407   */\n      mload\n        /* \"#utility.yul\":23439:23487   */\n      tag_431\n        /* \"#utility.yul\":23481:23485   */\n      0x1f\n        /* \"#utility.yul\":23473:23479   */\n      dup10\n        /* \"#utility.yul\":23469:23486   */\n      and\n        /* \"#utility.yul\":23458:23467   */\n      dup3\n        /* \"#utility.yul\":23439:23487   */\n      tag_196\n      jump\t// in\n    tag_431:\n        /* \"#utility.yul\":23431:23437   */\n      dup4\n        /* \"#utility.yul\":23424:23488   */\n      sstore\n        /* \"#utility.yul\":23346:23502   */\n      pop\n        /* \"#utility.yul\":23323:23502   */\n    tag_430:\n        /* \"#utility.yul\":23548:23549   */\n      0x01\n        /* \"#utility.yul\":23544:23545   */\n      0x02\n        /* \"#utility.yul\":23536:23542   */\n      dup9\n        /* \"#utility.yul\":23532:23546   */\n      mul\n        /* \"#utility.yul\":23528:23550   */\n      add\n        /* \"#utility.yul\":23522:23526   */\n      dup9\n        /* \"#utility.yul\":23515:23551   */\n      sstore\n        /* \"#utility.yul\":22951:23561   */\n      pop\n      pop\n      pop\n        /* \"#utility.yul\":22914:23800   */\n    tag_422:\n      pop\n        /* \"#utility.yul\":22506:23806   */\n      pop\n      pop\n      pop\n        /* \"#utility.yul\":22416:23806   */\n      pop\n      pop\n      jump\t// out\n        /* \"#utility.yul\":23812:23958   */\n    tag_198:\n        /* \"#utility.yul\":23909:23915   */\n      dup3\n        /* \"#utility.yul\":23904:23907   */\n      dup2\n        /* \"#utility.yul\":23899:23902   */\n      dup4\n        /* \"#utility.yul\":23886:23916   */\n      calldatacopy\n        /* \"#utility.yul\":23950:23951   */\n      0x00\n        /* \"#utility.yul\":23941:23947   */\n      dup4\n        /* \"#utility.yul\":23936:23939   */\n      dup4\n        /* \"#utility.yul\":23932:23948   */\n      add\n        /* \"#utility.yul\":23925:23952   */\n      mstore\n        /* \"#utility.yul\":23812:23958   */\n      pop\n      pop\n      pop\n      jump\t// out\n        /* \"#utility.yul\":23986:24300   */\n    tag_199:\n        /* \"#utility.yul\":24082:24085   */\n      0x00\n        /* \"#utility.yul\":24103:24173   */\n      tag_434\n        /* \"#utility.yul\":24166:24172   */\n      dup4\n        /* \"#utility.yul\":24161:24164   */\n      dup6\n        /* \"#utility.yul\":24103:24173   */\n      tag_155\n      jump\t// in\n    tag_434:\n        /* \"#utility.yul\":24096:24173   */\n      swap4\n      pop\n        /* \"#utility.yul\":24183:24239   */\n      tag_435\n        /* \"#utility.yul\":24232:24238   */\n      dup4\n        /* \"#utility.yul\":24227:24230   */\n      dup6\n        /* \"#utility.yul\":24220:24225   */\n      dup5\n        /* \"#utility.yul\":24183:24239   */\n      tag_198\n      jump\t// in\n    tag_435:\n        /* \"#utility.yul\":24264:24293   */\n      tag_436\n        /* \"#utility.yul\":24286:24292   */\n      dup4\n        /* \"#utility.yul\":24264:24293   */\n      tag_144\n      jump\t// in\n    tag_436:\n        /* \"#utility.yul\":24259:24262   */\n      dup5\n        /* \"#utility.yul\":24255:24294   */\n      add\n        /* \"#utility.yul\":24248:24294   */\n      swap1\n      pop\n        /* \"#utility.yul\":23986:24300   */\n      swap4\n      swap3\n      pop\n      pop\n      pop\n      jump\t// out\n        /* \"#utility.yul\":24306:25398   */\n    tag_118:\n        /* \"#utility.yul\":24619:24623   */\n      0x00\n        /* \"#utility.yul\":24657:24660   */\n      0xe0\n        /* \"#utility.yul\":24646:24655   */\n      dup3\n        /* \"#utility.yul\":24642:24661   */\n      add\n        /* \"#utility.yul\":24634:24661   */\n      swap1\n      pop\n        /* \"#utility.yul\":24707:24716   */\n      dup2\n        /* \"#utility.yul\":24701:24705   */\n      dup2\n        /* \"#utility.yul\":24697:24717   */\n      sub\n        /* \"#utility.yul\":24693:24694   */\n      0x00\n        /* \"#utility.yul\":24682:24691   */\n      dup4\n        /* \"#utility.yul\":24678:24695   */\n      add\n        /* \"#utility.yul\":24671:24718   */\n      mstore\n        /* \"#utility.yul\":24735:24821   */\n      tag_438\n        /* \"#utility.yul\":24816:24820   */\n      dup2\n        /* \"#utility.yul\":24807:24813   */\n      dup12\n        /* \"#utility.yul\":24799:24805   */\n      dup14\n        /* \"#utility.yul\":24735:24821   */\n      tag_199\n      jump\t// in\n    tag_438:\n        /* \"#utility.yul\":24727:24821   */\n      swap1\n      pop\n        /* \"#utility.yul\":24868:24877   */\n      dup2\n        /* \"#utility.yul\":24862:24866   */\n      dup2\n        /* \"#utility.yul\":24858:24878   */\n      sub\n        /* \"#utility.yul\":24853:24855   */\n      0x20\n        /* \"#utility.yul\":24842:24851   */\n      dup4\n        /* \"#utility.yul\":24838:24856   */\n      add\n        /* \"#utility.yul\":24831:24879   */\n      mstore\n        /* \"#utility.yul\":24896:24982   */\n      tag_439\n        /* \"#utility.yul\":24977:24981   */\n      dup2\n        /* \"#utility.yul\":24968:24974   */\n      dup10\n        /* \"#utility.yul\":24960:24966   */\n      dup12\n        /* \"#utility.yul\":24896:24982   */\n      tag_199\n      jump\t// in\n    tag_439:\n        /* \"#utility.yul\":24888:24982   */\n      swap1\n      pop\n        /* \"#utility.yul\":24992:25064   */\n      tag_440\n        /* \"#utility.yul\":25060:25062   */\n      0x40\n        /* \"#utility.yul\":25049:25058   */\n      dup4\n        /* \"#utility.yul\":25045:25063   */\n      add\n        /* \"#utility.yul\":25036:25042   */\n      dup9\n        /* \"#utility.yul\":24992:25064   */\n      tag_157\n      jump\t// in\n    tag_440:\n        /* \"#utility.yul\":25074:25146   */\n      tag_441\n        /* \"#utility.yul\":25142:25144   */\n      0x60\n        /* \"#utility.yul\":25131:25140   */\n      dup4\n        /* \"#utility.yul\":25127:25145   */\n      add\n        /* \"#utility.yul\":25118:25124   */\n      dup8\n        /* \"#utility.yul\":25074:25146   */\n      tag_157\n      jump\t// in\n    tag_441:\n        /* \"#utility.yul\":25156:25227   */\n      tag_442\n        /* \"#utility.yul\":25222:25225   */\n      0x80\n        /* \"#utility.yul\":25211:25220   */\n      dup4\n        /* \"#utility.yul\":25207:25226   */\n      add\n        /* \"#utility.yul\":25198:25204   */\n      dup7\n        /* \"#utility.yul\":25156:25227   */\n      tag_158\n      jump\t// in\n    tag_442:\n        /* \"#utility.yul\":25237:25308   */\n      tag_443\n        /* \"#utility.yul\":25303:25306   */\n      0xa0\n        /* \"#utility.yul\":25292:25301   */\n      dup4\n        /* \"#utility.yul\":25288:25307   */\n      add\n        /* \"#utility.yul\":25279:25285   */\n      dup6\n        /* \"#utility.yul\":25237:25308   */\n      tag_158\n      jump\t// in\n    tag_443:\n        /* \"#utility.yul\":25318:25391   */\n      tag_444\n        /* \"#utility.yul\":25386:25389   */\n      0xc0\n        /* \"#utility.yul\":25375:25384   */\n      dup4\n        /* \"#utility.yul\":25371:25390   */\n      add\n        /* \"#utility.yul\":25362:25368   */\n      dup5\n        /* \"#utility.yul\":25318:25391   */\n      tag_153\n      jump\t// in\n    tag_444:\n        /* \"#utility.yul\":24306:25398   */\n      swap11\n      swap10\n      pop\n      pop\n      pop\n      pop\n      pop\n      pop\n      pop\n      pop\n      pop\n      pop\n      jump\t// out\n        /* \"#utility.yul\":25404:25631   */\n    tag_122:\n        /* \"#utility.yul\":25444:25448   */\n      0x00\n        /* \"#utility.yul\":25464:25484   */\n      tag_446\n        /* \"#utility.yul\":25482:25483   */\n      dup3\n        /* \"#utility.yul\":25464:25484   */\n      tag_146\n      jump\t// in\n    tag_446:\n        /* \"#utility.yul\":25459:25484   */\n      swap2\n      pop\n        /* \"#utility.yul\":25498:25518   */\n      tag_447\n        /* \"#utility.yul\":25516:25517   */\n      dup4\n        /* \"#utility.yul\":25498:25518   */\n      tag_146\n      jump\t// in\n    tag_447:\n        /* \"#utility.yul\":25493:25518   */\n      swap3\n      pop\n        /* \"#utility.yul\":25542:25543   */\n      dup3\n        /* \"#utility.yul\":25539:25540   */\n      dup3\n        /* \"#utility.yul\":25535:25544   */\n      sub\n        /* \"#utility.yul\":25527:25544   */\n      swap1\n      pop\n        /* \"#utility.yul\":25566:25600   */\n      0xffffffffffffffffffffffffffffffff\n        /* \"#utility.yul\":25560:25564   */\n      dup2\n        /* \"#utility.yul\":25557:25601   */\n      gt\n        /* \"#utility.yul\":25554:25624   */\n      iszero\n      tag_448\n      jumpi\n        /* \"#utility.yul\":25604:25622   */\n      tag_449\n      tag_182\n      jump\t// in\n    tag_449:\n        /* \"#utility.yul\":25554:25624   */\n    tag_448:\n        /* \"#utility.yul\":25404:25631   */\n      swap3\n      swap2\n      pop\n      pop\n      jump\t// out\n        /* \"#utility.yul\":25637:25859   */\n    tag_124:\n        /* \"#utility.yul\":25730:25734   */\n      0x00\n        /* \"#utility.yul\":25768:25770   */\n      0x20\n        /* \"#utility.yul\":25757:25766   */\n      dup3\n        /* \"#utility.yul\":25753:25771   */\n      add\n        /* \"#utility.yul\":25745:25771   */\n      swap1\n      pop\n        /* \"#utility.yul\":25781:25852   */\n      tag_451\n        /* \"#utility.yul\":25849:25850   */\n      0x00\n        /* \"#utility.yul\":25838:25847   */\n      dup4\n        /* \"#utility.yul\":25834:25851   */\n      add\n        /* \"#utility.yul\":25825:25831   */\n      dup5\n        /* \"#utility.yul\":25781:25852   */\n      tag_157\n      jump\t// in\n    tag_451:\n        /* \"#utility.yul\":25637:25859   */\n      swap3\n      swap2\n      pop\n      pop\n      jump\t// out\n\n    auxdata: 0xa2646970667358221220abf0780d0d399beabde783ed8f85c02c0f2c4f65124e3a599dc73192bd13101c64736f6c63430008130033\n}\n",
				"bytecode": {
					"linkReferences": {},
					"object": "6080604052600160005534801561001557600080fd5b50611de6806100256000396000f3fe608060405234801561001057600080fd5b50600436106100885760003560e01c806383f958531161005b57806383f958531461013f578063e10f28c71461016f578063ee7e7c991461018d578063f8bafa70146101a957610088565b80632e1f97631461008d57806342af31d7146100bd5780636c87b826146100ed57806379ae025714610123575b600080fd5b6100a760048036038101906100a291906110ea565b6101c5565b6040516100b491906112d5565b60405180910390f35b6100d760048036038101906100d29190611323565b61044c565b6040516100e49190611372565b60405180910390f35b610107600480360381019061010291906110ea565b61047d565b60405161011a9796959493929190611404565b60405180910390f35b61013d600480360381019061013891906110ea565b610647565b005b61015960048036038101906101549190611481565b610748565b6040516101669190611613565b60405180910390f35b610177610b0f565b60405161018491906116f3565b60405180910390f35b6101a760048036038101906101a291906117d2565b610ba4565b005b6101c360048036038101906101be91906118a1565b610ee5565b005b6101cd610fca565b600160008381526020019081526020016000206040518060e00160405290816000820160009054906101000a900473ffffffffffffffffffffffffffffffffffffffff1673ffffffffffffffffffffffffffffffffffffffff1673ffffffffffffffffffffffffffffffffffffffff16815260200160018201805461025190611910565b80601f016020809104026020016040519081016040528092919081815260200182805461027d90611910565b80156102ca5780601f1061029f576101008083540402835291602001916102ca565b820191906000526020600020905b8154815290600101906020018083116102ad57829003601f168201915b505050505081526020016002820180546102e390611910565b80601f016020809104026020016040519081016040528092919081815260200182805461030f90611910565b801561035c5780601f106103315761010080835404028352916020019161035c565b820191906000526020600020905b81548152906001019060200180831161033f57829003601f168201915b505050505081526020016003820160009054906101000a90046fffffffffffffffffffffffffffffffff166fffffffffffffffffffffffffffffffff166fffffffffffffffffffffffffffffffff1681526020016003820160109054906101000a90046fffffffffffffffffffffffffffffffff166fffffffffffffffffffffffffffffffff166fffffffffffffffffffffffffffffffff1681526020016004820160009054906101000a900463ffffffff1663ffffffff1663ffffffff1681526020016004820160049054906101000a900463ffffffff1663ffffffff1663ffffffff16815250509050919050565b6002602052816000526040600020818154811061046857600080fd5b90600052602060002001600091509150505481565b60016020528060005260406000206000915090508060000160009054906101000a900473ffffffffffffffffffffffffffffffffffffffff16908060010180546104c690611910565b80601f01602080910402602001604051908101604052809291908181526020018280546104f290611910565b801561053f5780601f106105145761010080835404028352916020019161053f565b820191906000526020600020905b81548152906001019060200180831161052257829003601f168201915b50505050509080600201805461055490611910565b80601f016020809104026020016040519081016040528092919081815260200182805461058090611910565b80156105cd5780601f106105a2576101008083540402835291602001916105cd565b820191906000526020600020905b8154815290600101906020018083116105b057829003601f168201915b5050505050908060030160009054906101000a90046fffffffffffffffffffffffffffffffff16908060030160109054906101000a90046fffffffffffffffffffffffffffffffff16908060040160009054906101000a900463ffffffff16908060040160049054906101000a900463ffffffff16905087565b60016000828152602001908152602001600020600080820160006101000a81549073ffffffffffffffffffffffffffffffffffffffff0219169055600182016000610692919061104d565b6002820160006106a2919061104d565b6003820160006101000a8154906fffffffffffffffffffffffffffffffff02191690556003820160106101000a8154906fffffffffffffffffffffffffffffffff02191690556004820160006101000a81549063ffffffff02191690556004820160046101000a81549063ffffffff02191690555050807f6c1a4e746947a5049a6693a4875a10617826c8361c631cac61717e141185fdd260405160405180910390a250565b60606000600260008473ffffffffffffffffffffffffffffffffffffffff1673ffffffffffffffffffffffffffffffffffffffff1681526020019081526020016000208054806020026020016040519081016040528092919081815260200182805480156107d557602002820191906000526020600020905b8154815260200190600101908083116107c1575b505050505090506000815167ffffffffffffffff8111156107f9576107f8611941565b5b60405190808252806020026020018201604052801561083257816020015b61081f610fca565b8152602001906001900390816108175790505b50905060005b8251811015610b04576001600084838151811061085857610857611970565b5b602002602001015181526020019081526020016000206040518060e00160405290816000820160009054906101000a900473ffffffffffffffffffffffffffffffffffffffff1673ffffffffffffffffffffffffffffffffffffffff1673ffffffffffffffffffffffffffffffffffffffff1681526020016001820180546108df90611910565b80601f016020809104026020016040519081016040528092919081815260200182805461090b90611910565b80156109585780601f1061092d57610100808354040283529160200191610958565b820191906000526020600020905b81548152906001019060200180831161093b57829003601f168201915b5050505050815260200160028201805461097190611910565b80601f016020809104026020016040519081016040528092919081815260200182805461099d90611910565b80156109ea5780601f106109bf576101008083540402835291602001916109ea565b820191906000526020600020905b8154815290600101906020018083116109cd57829003601f168201915b505050505081526020016003820160009054906101000a90046fffffffffffffffffffffffffffffffff166fffffffffffffffffffffffffffffffff166fffffffffffffffffffffffffffffffff1681526020016003820160109054906101000a90046fffffffffffffffffffffffffffffffff166fffffffffffffffffffffffffffffffff166fffffffffffffffffffffffffffffffff1681526020016004820160009054906101000a900463ffffffff1663ffffffff1663ffffffff1681526020016004820160049054906101000a900463ffffffff1663ffffffff1663ffffffff1681525050828281518110610ae657610ae5611970565b5b60200260200101819052508080610afc906119ce565b915050610838565b508092505050919050565b6060600260003373ffffffffffffffffffffffffffffffffffffffff1673ffffffffffffffffffffffffffffffffffffffff168152602001908152602001600020805480602002602001604051908101604052809291908181526020018280548015610b9a57602002820191906000526020600020905b815481526020019060010190808311610b86575b5050505050905090565b6040518060e001604052803373ffffffffffffffffffffffffffffffffffffffff16815260200189898080601f016020809104026020016040519081016040528093929190818152602001838380828437600081840152601f19601f82011690508083019250505050505050815260200187878080601f016020809104026020016040519081016040528093929190818152602001838380828437600081840152601f19601f820116905080830192505050505050508152602001856fffffffffffffffffffffffffffffffff168152602001846fffffffffffffffffffffffffffffffff1681526020018363ffffffff1681526020018263ffffffff16815250600160008054815260200190815260200160002060008201518160000160006101000a81548173ffffffffffffffffffffffffffffffffffffffff021916908373ffffffffffffffffffffffffffffffffffffffff1602179055506020820151816001019081610d159190611bc2565b506040820151816002019081610d2b9190611bc2565b5060608201518160030160006101000a8154816fffffffffffffffffffffffffffffffff02191690836fffffffffffffffffffffffffffffffff16021790555060808201518160030160106101000a8154816fffffffffffffffffffffffffffffffff02191690836fffffffffffffffffffffffffffffffff16021790555060a08201518160040160006101000a81548163ffffffff021916908363ffffffff16021790555060c08201518160040160046101000a81548163ffffffff021916908363ffffffff160217905550905050600260003373ffffffffffffffffffffffffffffffffffffffff1673ffffffffffffffffffffffffffffffffffffffff16815260200190815260200160002060005490806001815401808255809150506001900390600052602060002001600090919091909150553373ffffffffffffffffffffffffffffffffffffffff166000547fb544b666bf20d30fc9acbc75aee55e5847e8f95a49aa5d36b6dab734f0cbb3038a8a8a8a8a8a8a8a42604051610ebc99989796959493929190611cd0565b60405180910390a3600080815480929190610ed6906119ce565b91905055505050505050505050565b806001600084815260200190815260200160002060030160008282829054906101000a90046fffffffffffffffffffffffffffffffff16610f269190611d51565b92506101000a8154816fffffffffffffffffffffffffffffffff02191690836fffffffffffffffffffffffffffffffff160217905550817f1f3d301eca9b893fb3ae34f526f7b346cfe3086be67884ce1e652593c91668d66001600085815260200190815260200160002060030160009054906101000a90046fffffffffffffffffffffffffffffffff16604051610fbe9190611d95565b60405180910390a25050565b6040518060e00160405280600073ffffffffffffffffffffffffffffffffffffffff168152602001606081526020016060815260200160006fffffffffffffffffffffffffffffffff16815260200160006fffffffffffffffffffffffffffffffff168152602001600063ffffffff168152602001600063ffffffff1681525090565b50805461105990611910565b6000825580601f1061106b575061108a565b601f016020900490600052602060002090810190611089919061108d565b5b50565b5b808211156110a657600081600090555060010161108e565b5090565b600080fd5b600080fd5b6000819050919050565b6110c7816110b4565b81146110d257600080fd5b50565b6000813590506110e4816110be565b92915050565b600060208284031215611100576110ff6110aa565b5b600061110e848285016110d5565b91505092915050565b600073ffffffffffffffffffffffffffffffffffffffff82169050919050565b600061114282611117565b9050919050565b61115281611137565b82525050565b600081519050919050565b600082825260208201905092915050565b60005b83811015611192578082015181840152602081019050611177565b60008484015250505050565b6000601f19601f8301169050919050565b60006111ba82611158565b6111c48185611163565b93506111d4818560208601611174565b6111dd8161119e565b840191505092915050565b60006fffffffffffffffffffffffffffffffff82169050919050565b61120d816111e8565b82525050565b600063ffffffff82169050919050565b61122c81611213565b82525050565b600060e08301600083015161124a6000860182611149565b506020830151848203602086015261126282826111af565b9150506040830151848203604086015261127c82826111af565b91505060608301516112916060860182611204565b5060808301516112a46080860182611204565b5060a08301516112b760a0860182611223565b5060c08301516112ca60c0860182611223565b508091505092915050565b600060208201905081810360008301526112ef8184611232565b905092915050565b61130081611137565b811461130b57600080fd5b50565b60008135905061131d816112f7565b92915050565b6000806040838503121561133a576113396110aa565b5b60006113488582860161130e565b9250506020611359858286016110d5565b9150509250929050565b61136c816110b4565b82525050565b60006020820190506113876000830184611363565b92915050565b61139681611137565b82525050565b600082825260208201905092915050565b60006113b882611158565b6113c2818561139c565b93506113d2818560208601611174565b6113db8161119e565b840191505092915050565b6113ef816111e8565b82525050565b6113fe81611213565b82525050565b600060e082019050611419600083018a61138d565b818103602083015261142b81896113ad565b9050818103604083015261143f81886113ad565b905061144e60608301876113e6565b61145b60808301866113e6565b61146860a08301856113f5565b61147560c08301846113f5565b98975050505050505050565b600060208284031215611497576114966110aa565b5b60006114a58482850161130e565b91505092915050565b600081519050919050565b600082825260208201905092915050565b6000819050602082019050919050565b600060e0830160008301516114f26000860182611149565b506020830151848203602086015261150a82826111af565b9150506040830151848203604086015261152482826111af565b91505060608301516115396060860182611204565b50608083015161154c6080860182611204565b5060a083015161155f60a0860182611223565b5060c083015161157260c0860182611223565b508091505092915050565b600061158983836114da565b905092915050565b6000602082019050919050565b60006115a9826114ae565b6115b381856114b9565b9350836020820285016115c5856114ca565b8060005b8581101561160157848403895281516115e2858261157d565b94506115ed83611591565b925060208a019950506001810190506115c9565b50829750879550505050505092915050565b6000602082019050818103600083015261162d818461159e565b905092915050565b600081519050919050565b600082825260208201905092915050565b6000819050602082019050919050565b61166a816110b4565b82525050565b600061167c8383611661565b60208301905092915050565b6000602082019050919050565b60006116a082611635565b6116aa8185611640565b93506116b583611651565b8060005b838110156116e65781516116cd8882611670565b97506116d883611688565b9250506001810190506116b9565b5085935050505092915050565b6000602082019050818103600083015261170d8184611695565b905092915050565b600080fd5b600080fd5b600080fd5b60008083601f84011261173a57611739611715565b5b8235905067ffffffffffffffff8111156117575761175661171a565b5b6020830191508360018202830111156117735761177261171f565b5b9250929050565b611783816111e8565b811461178e57600080fd5b50565b6000813590506117a08161177a565b92915050565b6117af81611213565b81146117ba57600080fd5b50565b6000813590506117cc816117a6565b92915050565b60008060008060008060008060c0898b0312156117f2576117f16110aa565b5b600089013567ffffffffffffffff8111156118105761180f6110af565b5b61181c8b828c01611724565b9850985050602089013567ffffffffffffffff81111561183f5761183e6110af565b5b61184b8b828c01611724565b9650965050604061185e8b828c01611791565b945050606061186f8b828c01611791565b93505060806118808b828c016117bd565b92505060a06118918b828c016117bd565b9150509295985092959890939650565b600080604083850312156118b8576118b76110aa565b5b60006118c6858286016110d5565b92505060206118d785828601611791565b9150509250929050565b7f4e487b7100000000000000000000000000000000000000000000000000000000600052602260045260246000fd5b6000600282049050600182168061192857607f821691505b60208210810361193b5761193a6118e1565b5b50919050565b7f4e487b7100000000000000000000000000000000000000000000000000000000600052604160045260246000fd5b7f4e487b7100000000000000000000000000000000000000000000000000000000600052603260045260246000fd5b7f4e487b7100000000000000000000000000000000000000000000000000000000600052601160045260246000fd5b60006119d9826110b4565b91507fffffffffffffffffffffffffffffffffffffffffffffffffffffffffffffffff8203611a0b57611a0a61199f565b5b600182019050919050565b60008190508160005260206000209050919050565b60006020601f8301049050919050565b600082821b905092915050565b600060088302611a787fffffffffffffffffffffffffffffffffffffffffffffffffffffffffffffffff82611a3b565b611a828683611a3b565b95508019841693508086168417925050509392505050565b6000819050919050565b6000611abf611aba611ab5846110b4565b611a9a565b6110b4565b9050919050565b6000819050919050565b611ad983611aa4565b611aed611ae582611ac6565b848454611a48565b825550505050565b600090565b611b02611af5565b611b0d818484611ad0565b505050565b5b81811015611b3157611b26600082611afa565b600181019050611b13565b5050565b601f821115611b7657611b4781611a16565b611b5084611a2b565b81016020851015611b5f578190505b611b73611b6b85611a2b565b830182611b12565b50505b505050565b600082821c905092915050565b6000611b9960001984600802611b7b565b1980831691505092915050565b6000611bb28383611b88565b9150826002028217905092915050565b611bcb82611158565b67ffffffffffffffff811115611be457611be3611941565b5b611bee8254611910565b611bf9828285611b35565b600060209050601f831160018114611c2c5760008415611c1a578287015190505b611c248582611ba6565b865550611c8c565b601f198416611c3a86611a16565b60005b82811015611c6257848901518255600182019150602085019450602081019050611c3d565b86831015611c7f5784890151611c7b601f891682611b88565b8355505b6001600288020188555050505b505050505050565b82818337600083830152505050565b6000611caf838561139c565b9350611cbc838584611c94565b611cc58361119e565b840190509392505050565b600060e0820190508181036000830152611ceb818b8d611ca3565b90508181036020830152611d0081898b611ca3565b9050611d0f60408301886113e6565b611d1c60608301876113e6565b611d2960808301866113f5565b611d3660a08301856113f5565b611d4360c0830184611363565b9a9950505050505050505050565b6000611d5c826111e8565b9150611d67836111e8565b925082820390506fffffffffffffffffffffffffffffffff811115611d8f57611d8e61199f565b5b92915050565b6000602082019050611daa60008301846113e6565b9291505056fea2646970667358221220abf0780d0d399beabde783ed8f85c02c0f2c4f65124e3a599dc73192bd13101c64736f6c63430008130033",
					"opcodes": "PUSH1 0x80 PUSH1 0x40 MSTORE PUSH1 0x1 PUSH1 0x0 SSTORE CALLVALUE DUP1 ISZERO PUSH2 0x15 JUMPI PUSH1 0x0 DUP1 REVERT JUMPDEST POP PUSH2 0x1DE6 DUP1 PUSH2 0x25 PUSH1 0x0 CODECOPY PUSH1 0x0 RETURN INVALID PUSH1 0x80 PUSH1 0x40 MSTORE CALLVALUE DUP1 ISZERO PUSH2 0x10 JUMPI PUSH1 0x0 DUP1 REVERT JUMPDEST POP PUSH1 0x4 CALLDATASIZE LT PUSH2 0x88 JUMPI PUSH1 0x0 CALLDATALOAD PUSH1 0xE0 SHR DUP1 PUSH4 0x83F95853 GT PUSH2 0x5B JUMPI DUP1 PUSH4 0x83F95853 EQ PUSH2 0x13F JUMPI DUP1 PUSH4 0xE10F28C7 EQ PUSH2 0x16F JUMPI DUP1 PUSH4 0xEE7E7C99 EQ PUSH2 0x18D JUMPI DUP1 PUSH4 0xF8BAFA70 EQ PUSH2 0x1A9 JUMPI PUSH2 0x88 JUMP JUMPDEST DUP1 PUSH4 0x2E1F9763 EQ PUSH2 0x8D JUMPI DUP1 PUSH4 0x42AF31D7 EQ PUSH2 0xBD JUMPI DUP1 PUSH4 0x6C87B826 EQ PUSH2 0xED JUMPI DUP1 PUSH4 0x79AE0257 EQ PUSH2 0x123 JUMPI JUMPDEST PUSH1 0x0 DUP1 REVERT JUMPDEST PUSH2 0xA7 PUSH1 0x4 DUP1 CALLDATASIZE SUB DUP2 ADD SWAP1 PUSH2 0xA2 SWAP2 SWAP1 PUSH2 0x10EA JUMP JUMPDEST PUSH2 0x1C5 JUMP JUMPDEST PUSH1 0x40 MLOAD PUSH2 0xB4 SWAP2 SWAP1 PUSH2 0x12D5 JUMP JUMPDEST PUSH1 0x40 MLOAD DUP1 SWAP2 SUB SWAP1 RETURN JUMPDEST PUSH2 0xD7 PUSH1 0x4 DUP1 CALLDATASIZE SUB DUP2 ADD SWAP1 PUSH2 0xD2 SWAP2 SWAP1 PUSH2 0x1323 JUMP JUMPDEST PUSH2 0x44C JUMP JUMPDEST PUSH1 0x40 MLOAD PUSH2 0xE4 SWAP2 SWAP1 PUSH2 0x1372 JUMP JUMPDEST PUSH1 0x40 MLOAD DUP1 SWAP2 SUB SWAP1 RETURN JUMPDEST PUSH2 0x107 PUSH1 0x4 DUP1 CALLDATASIZE SUB DUP2 ADD SWAP1 PUSH2 0x102 SWAP2 SWAP1 PUSH2 0x10EA JUMP JUMPDEST PUSH2 0x47D JUMP JUMPDEST PUSH1 0x40 MLOAD PUSH2 0x11A SWAP8 SWAP7 SWAP6 SWAP5 SWAP4 SWAP3 SWAP2 SWAP1 PUSH2 0x1404 JUMP JUMPDEST PUSH1 0x40 MLOAD DUP1 SWAP2 SUB SWAP1 RETURN JUMPDEST PUSH2 0x13D PUSH1 0x4 DUP1 CALLDATASIZE SUB DUP2 ADD SWAP1 PUSH2 0x138 SWAP2 SWAP1 PUSH2 0x10EA JUMP JUMPDEST PUSH2 0x647 JUMP JUMPDEST STOP JUMPDEST PUSH2 0x159 PUSH1 0x4 DUP1 CALLDATASIZE SUB DUP2 ADD SWAP1 PUSH2 0x154 SWAP2 SWAP1 PUSH2 0x1481 JUMP JUMPDEST PUSH2 0x748 JUMP JUMPDEST PUSH1 0x40 MLOAD PUSH2 0x166 SWAP2 SWAP1 PUSH2 0x1613 JUMP JUMPDEST PUSH1 0x40 MLOAD DUP1 SWAP2 SUB SWAP1 RETURN JUMPDEST PUSH2 0x177 PUSH2 0xB0F JUMP JUMPDEST PUSH1 0x40 MLOAD PUSH2 0x184 SWAP2 SWAP1 PUSH2 0x16F3 JUMP JUMPDEST PUSH1 0x40 MLOAD DUP1 SWAP2 SUB SWAP1 RETURN JUMPDEST PUSH2 0x1A7 PUSH1 0x4 DUP1 CALLDATASIZE SUB DUP2 ADD SWAP1 PUSH2 0x1A2 SWAP2 SWAP1 PUSH2 0x17D2 JUMP JUMPDEST PUSH2 0xBA4 JUMP JUMPDEST STOP JUMPDEST PUSH2 0x1C3 PUSH1 0x4 DUP1 CALLDATASIZE SUB DUP2 ADD SWAP1 PUSH2 0x1BE SWAP2 SWAP1 PUSH2 0x18A1 JUMP JUMPDEST PUSH2 0xEE5 JUMP JUMPDEST STOP JUMPDEST PUSH2 0x1CD PUSH2 0xFCA JUMP JUMPDEST PUSH1 0x1 PUSH1 0x0 DUP4 DUP2 MSTORE PUSH1 0x20 ADD SWAP1 DUP2 MSTORE PUSH1 0x20 ADD PUSH1 0x0 KECCAK256 PUSH1 0x40 MLOAD DUP1 PUSH1 0xE0 ADD PUSH1 0x40 MSTORE SWAP1 DUP2 PUSH1 0x0 DUP3 ADD PUSH1 0x0 SWAP1 SLOAD SWAP1 PUSH2 0x100 EXP SWAP1 DIV PUSH20 0xFFFFFFFFFFFFFFFFFFFFFFFFFFFFFFFFFFFFFFFF AND PUSH20 0xFFFFFFFFFFFFFFFFFFFFFFFFFFFFFFFFFFFFFFFF AND PUSH20 0xFFFFFFFFFFFFFFFFFFFFFFFFFFFFFFFFFFFFFFFF AND DUP2 MSTORE PUSH1 0x20 ADD PUSH1 0x1 DUP3 ADD DUP1 SLOAD PUSH2 0x251 SWAP1 PUSH2 0x1910 JUMP JUMPDEST DUP1 PUSH1 0x1F ADD PUSH1 0x20 DUP1 SWAP2 DIV MUL PUSH1 0x20 ADD PUSH1 0x40 MLOAD SWAP1 DUP2 ADD PUSH1 0x40 MSTORE DUP1 SWAP3 SWAP2 SWAP1 DUP2 DUP2 MSTORE PUSH1 0x20 ADD DUP3 DUP1 SLOAD PUSH2 0x27D SWAP1 PUSH2 0x1910 JUMP JUMPDEST DUP1 ISZERO PUSH2 0x2CA JUMPI DUP1 PUSH1 0x1F LT PUSH2 0x29F JUMPI PUSH2 0x100 DUP1 DUP4 SLOAD DIV MUL DUP4 MSTORE SWAP2 PUSH1 0x20 ADD SWAP2 PUSH2 0x2CA JUMP JUMPDEST DUP3 ADD SWAP2 SWAP1 PUSH1 0x0 MSTORE PUSH1 0x20 PUSH1 0x0 KECCAK256 SWAP1 JUMPDEST DUP2 SLOAD DUP2 MSTORE SWAP1 PUSH1 0x1 ADD SWAP1 PUSH1 0x20 ADD DUP1 DUP4 GT PUSH2 0x2AD JUMPI DUP3 SWAP1 SUB PUSH1 0x1F AND DUP3 ADD SWAP2 JUMPDEST POP POP POP POP POP DUP2 MSTORE PUSH1 0x20 ADD PUSH1 0x2 DUP3 ADD DUP1 SLOAD PUSH2 0x2E3 SWAP1 PUSH2 0x1910 JUMP JUMPDEST DUP1 PUSH1 0x1F ADD PUSH1 0x20 DUP1 SWAP2 DIV MUL PUSH1 0x20 ADD PUSH1 0x40 MLOAD SWAP1 DUP2 ADD PUSH1 0x40 MSTORE DUP1 SWAP3 SWAP2 SWAP1 DUP2 DUP2 MSTORE PUSH1 0x20 ADD DUP3 DUP1 SLOAD PUSH2 0x30F SWAP1 PUSH2 0x1910 JUMP JUMPDEST DUP1 ISZERO PUSH2 0x35C JUMPI DUP1 PUSH1 0x1F LT PUSH2 0x331 JUMPI PUSH2 0x100 DUP1 DUP4 SLOAD DIV MUL DUP4 MSTORE SWAP2 PUSH1 0x20 ADD SWAP2 PUSH2 0x35C JUMP JUMPDEST DUP3 ADD SWAP2 SWAP1 PUSH1 0x0 MSTORE PUSH1 0x20 PUSH1 0x0 KECCAK256 SWAP1 JUMPDEST DUP2 SLOAD DUP2 MSTORE SWAP1 PUSH1 0x1 ADD SWAP1 PUSH1 0x20 ADD DUP1 DUP4 GT PUSH2 0x33F JUMPI DUP3 SWAP1 SUB PUSH1 0x1F AND DUP3 ADD SWAP2 JUMPDEST POP POP POP POP POP DUP2 MSTORE PUSH1 0x20 ADD PUSH1 0x3 DUP3 ADD PUSH1 0x0 SWAP1 SLOAD SWAP1 PUSH2 0x100 EXP SWAP1 DIV PUSH16 0xFFFFFFFFFFFFFFFFFFFFFFFFFFFFFFFF AND PUSH16 0xFFFFFFFFFFFFFFFFFFFFFFFFFFFFFFFF AND PUSH16 0xFFFFFFFFFFFFFFFFFFFFFFFFFFFFFFFF AND DUP2 MSTORE PUSH1 0x20 ADD PUSH1 0x3 DUP3 ADD PUSH1 0x10 SWAP1 SLOAD SWAP1 PUSH2 0x100 EXP SWAP1 DIV PUSH16 0xFFFFFFFFFFFFFFFFFFFFFFFFFFFFFFFF AND PUSH16 0xFFFFFFFFFFFFFFFFFFFFFFFFFFFFFFFF AND PUSH16 0xFFFFFFFFFFFFFFFFFFFFFFFFFFFFFFFF AND DUP2 MSTORE PUSH1 0x20 ADD PUSH1 0x4 DUP3 ADD PUSH1 0x0 SWAP1 SLOAD SWAP1 PUSH2 0x100 EXP SWAP1 DIV PUSH4 0xFFFFFFFF AND PUSH4 0xFFFFFFFF AND PUSH4 0xFFFFFFFF AND DUP2 MSTORE PUSH1 0x20 ADD PUSH1 0x4 DUP3 ADD PUSH1 0x4 SWAP1 SLOAD SWAP1 PUSH2 0x100 EXP SWAP1 DIV PUSH4 0xFFFFFFFF AND PUSH4 0xFFFFFFFF AND PUSH4 0xFFFFFFFF AND DUP2 MSTORE POP POP SWAP1 POP SWAP2 SWAP1 POP JUMP JUMPDEST PUSH1 0x2 PUSH1 0x20 MSTORE DUP2 PUSH1 0x0 MSTORE PUSH1 0x40 PUSH1 0x0 KECCAK256 DUP2 DUP2 SLOAD DUP2 LT PUSH2 0x468 JUMPI PUSH1 0x0 DUP1 REVERT JUMPDEST SWAP1 PUSH1 0x0 MSTORE PUSH1 0x20 PUSH1 0x0 KECCAK256 ADD PUSH1 0x0 SWAP2 POP SWAP2 POP POP SLOAD DUP2 JUMP JUMPDEST PUSH1 0x1 PUSH1 0x20 MSTORE DUP1 PUSH1 0x0 MSTORE PUSH1 0x40 PUSH1 0x0 KECCAK256 PUSH1 0x0 SWAP2 POP SWAP1 POP DUP1 PUSH1 0x0 ADD PUSH1 0x0 SWAP1 SLOAD SWAP1 PUSH2 0x100 EXP SWAP1 DIV PUSH20 0xFFFFFFFFFFFFFFFFFFFFFFFFFFFFFFFFFFFFFFFF AND SWAP1 DUP1 PUSH1 0x1 ADD DUP1 SLOAD PUSH2 0x4C6 SWAP1 PUSH2 0x1910 JUMP JUMPDEST DUP1 PUSH1 0x1F ADD PUSH1 0x20 DUP1 SWAP2 DIV MUL PUSH1 0x20 ADD PUSH1 0x40 MLOAD SWAP1 DUP2 ADD PUSH1 0x40 MSTORE DUP1 SWAP3 SWAP2 SWAP1 DUP2 DUP2 MSTORE PUSH1 0x20 ADD DUP3 DUP1 SLOAD PUSH2 0x4F2 SWAP1 PUSH2 0x1910 JUMP JUMPDEST DUP1 ISZERO PUSH2 0x53F JUMPI DUP1 PUSH1 0x1F LT PUSH2 0x514 JUMPI PUSH2 0x100 DUP1 DUP4 SLOAD DIV MUL DUP4 MSTORE SWAP2 PUSH1 0x20 ADD SWAP2 PUSH2 0x53F JUMP JUMPDEST DUP3 ADD SWAP2 SWAP1 PUSH1 0x0 MSTORE PUSH1 0x20 PUSH1 0x0 KECCAK256 SWAP1 JUMPDEST DUP2 SLOAD DUP2 MSTORE SWAP1 PUSH1 0x1 ADD SWAP1 PUSH1 0x20 ADD DUP1 DUP4 GT PUSH2 0x522 JUMPI DUP3 SWAP1 SUB PUSH1 0x1F AND DUP3 ADD SWAP2 JUMPDEST POP POP POP POP POP SWAP1 DUP1 PUSH1 0x2 ADD DUP1 SLOAD PUSH2 0x554 SWAP1 PUSH2 0x1910 JUMP JUMPDEST DUP1 PUSH1 0x1F ADD PUSH1 0x20 DUP1 SWAP2 DIV MUL PUSH1 0x20 ADD PUSH1 0x40 MLOAD SWAP1 DUP2 ADD PUSH1 0x40 MSTORE DUP1 SWAP3 SWAP2 SWAP1 DUP2 DUP2 MSTORE PUSH1 0x20 ADD DUP3 DUP1 SLOAD PUSH2 0x580 SWAP1 PUSH2 0x1910 JUMP JUMPDEST DUP1 ISZERO PUSH2 0x5CD JUMPI DUP1 PUSH1 0x1F LT PUSH2 0x5A2 JUMPI PUSH2 0x100 DUP1 DUP4 SLOAD DIV MUL DUP4 MSTORE SWAP2 PUSH1 0x20 ADD SWAP2 PUSH2 0x5CD JUMP JUMPDEST DUP3 ADD SWAP2 SWAP1 PUSH1 0x0 MSTORE PUSH1 0x20 PUSH1 0x0 KECCAK256 SWAP1 JUMPDEST DUP2 SLOAD DUP2 MSTORE SWAP1 PUSH1 0x1 ADD SWAP1 PUSH1 0x20 ADD DUP1 DUP4 GT PUSH2 0x5B0 JUMPI DUP3 SWAP1 SUB PUSH1 0x1F AND DUP3 ADD SWAP2 JUMPDEST POP POP POP POP POP SWAP1 DUP1 PUSH1 0x3 ADD PUSH1 0x0 SWAP1 SLOAD SWAP1 PUSH2 0x100 EXP SWAP1 DIV PUSH16 0xFFFFFFFFFFFFFFFFFFFFFFFFFFFFFFFF AND SWAP1 DUP1 PUSH1 0x3 ADD PUSH1 0x10 SWAP1 SLOAD SWAP1 PUSH2 0x100 EXP SWAP1 DIV PUSH16 0xFFFFFFFFFFFFFFFFFFFFFFFFFFFFFFFF AND SWAP1 DUP1 PUSH1 0x4 ADD PUSH1 0x0 SWAP1 SLOAD SWAP1 PUSH2 0x100 EXP SWAP1 DIV PUSH4 0xFFFFFFFF AND SWAP1 DUP1 PUSH1 0x4 ADD PUSH1 0x4 SWAP1 SLOAD SWAP1 PUSH2 0x100 EXP SWAP1 DIV PUSH4 0xFFFFFFFF AND SWAP1 POP DUP8 JUMP JUMPDEST PUSH1 0x1 PUSH1 0x0 DUP3 DUP2 MSTORE PUSH1 0x20 ADD SWAP1 DUP2 MSTORE PUSH1 0x20 ADD PUSH1 0x0 KECCAK256 PUSH1 0x0 DUP1 DUP3 ADD PUSH1 0x0 PUSH2 0x100 EXP DUP2 SLOAD SWAP1 PUSH20 0xFFFFFFFFFFFFFFFFFFFFFFFFFFFFFFFFFFFFFFFF MUL NOT AND SWAP1 SSTORE PUSH1 0x1 DUP3 ADD PUSH1 0x0 PUSH2 0x692 SWAP2 SWAP1 PUSH2 0x104D JUMP JUMPDEST PUSH1 0x2 DUP3 ADD PUSH1 0x0 PUSH2 0x6A2 SWAP2 SWAP1 PUSH2 0x104D JUMP JUMPDEST PUSH1 0x3 DUP3 ADD PUSH1 0x0 PUSH2 0x100 EXP DUP2 SLOAD SWAP1 PUSH16 0xFFFFFFFFFFFFFFFFFFFFFFFFFFFFFFFF MUL NOT AND SWAP1 SSTORE PUSH1 0x3 DUP3 ADD PUSH1 0x10 PUSH2 0x100 EXP DUP2 SLOAD SWAP1 PUSH16 0xFFFFFFFFFFFFFFFFFFFFFFFFFFFFFFFF MUL NOT AND SWAP1 SSTORE PUSH1 0x4 DUP3 ADD PUSH1 0x0 PUSH2 0x100 EXP DUP2 SLOAD SWAP1 PUSH4 0xFFFFFFFF MUL NOT AND SWAP1 SSTORE PUSH1 0x4 DUP3 ADD PUSH1 0x4 PUSH2 0x100 EXP DUP2 SLOAD SWAP1 PUSH4 0xFFFFFFFF MUL NOT AND SWAP1 SSTORE POP POP DUP1 PUSH32 0x6C1A4E746947A5049A6693A4875A10617826C8361C631CAC61717E141185FDD2 PUSH1 0x40 MLOAD PUSH1 0x40 MLOAD DUP1 SWAP2 SUB SWAP1 LOG2 POP JUMP JUMPDEST PUSH1 0x60 PUSH1 0x0 PUSH1 0x2 PUSH1 0x0 DUP5 PUSH20 0xFFFFFFFFFFFFFFFFFFFFFFFFFFFFFFFFFFFFFFFF AND PUSH20 0xFFFFFFFFFFFFFFFFFFFFFFFFFFFFFFFFFFFFFFFF AND DUP2 MSTORE PUSH1 0x20 ADD SWAP1 DUP2 MSTORE PUSH1 0x20 ADD PUSH1 0x0 KECCAK256 DUP1 SLOAD DUP1 PUSH1 0x20 MUL PUSH1 0x20 ADD PUSH1 0x40 MLOAD SWAP1 DUP2 ADD PUSH1 0x40 MSTORE DUP1 SWAP3 SWAP2 SWAP1 DUP2 DUP2 MSTORE PUSH1 0x20 ADD DUP3 DUP1 SLOAD DUP1 ISZERO PUSH2 0x7D5 JUMPI PUSH1 0x20 MUL DUP3 ADD SWAP2 SWAP1 PUSH1 0x0 MSTORE PUSH1 0x20 PUSH1 0x0 KECCAK256 SWAP1 JUMPDEST DUP2 SLOAD DUP2 MSTORE PUSH1 0x20 ADD SWAP1 PUSH1 0x1 ADD SWAP1 DUP1 DUP4 GT PUSH2 0x7C1 JUMPI JUMPDEST POP POP POP POP POP SWAP1 POP PUSH1 0x0 DUP2 MLOAD PUSH8 0xFFFFFFFFFFFFFFFF DUP2 GT ISZERO PUSH2 0x7F9 JUMPI PUSH2 0x7F8 PUSH2 0x1941 JUMP JUMPDEST JUMPDEST PUSH1 0x40 MLOAD SWAP1 DUP1 DUP3 MSTORE DUP1 PUSH1 0x20 MUL PUSH1 0x20 ADD DUP3 ADD PUSH1 0x40 MSTORE DUP1 ISZERO PUSH2 0x832 JUMPI DUP2 PUSH1 0x20 ADD JUMPDEST PUSH2 0x81F PUSH2 0xFCA JUMP JUMPDEST DUP2 MSTORE PUSH1 0x20 ADD SWAP1 PUSH1 0x1 SWAP1 SUB SWAP1 DUP2 PUSH2 0x817 JUMPI SWAP1 POP JUMPDEST POP SWAP1 POP PUSH1 0x0 JUMPDEST DUP3 MLOAD DUP2 LT ISZERO PUSH2 0xB04 JUMPI PUSH1 0x1 PUSH1 0x0 DUP5 DUP4 DUP2 MLOAD DUP2 LT PUSH2 0x858 JUMPI PUSH2 0x857 PUSH2 0x1970 JUMP JUMPDEST JUMPDEST PUSH1 0x20 MUL PUSH1 0x20 ADD ADD MLOAD DUP2 MSTORE PUSH1 0x20 ADD SWAP1 DUP2 MSTORE PUSH1 0x20 ADD PUSH1 0x0 KECCAK256 PUSH1 0x40 MLOAD DUP1 PUSH1 0xE0 ADD PUSH1 0x40 MSTORE SWAP1 DUP2 PUSH1 0x0 DUP3 ADD PUSH1 0x0 SWAP1 SLOAD SWAP1 PUSH2 0x100 EXP SWAP1 DIV PUSH20 0xFFFFFFFFFFFFFFFFFFFFFFFFFFFFFFFFFFFFFFFF AND PUSH20 0xFFFFFFFFFFFFFFFFFFFFFFFFFFFFFFFFFFFFFFFF AND PUSH20 0xFFFFFFFFFFFFFFFFFFFFFFFFFFFFFFFFFFFFFFFF AND DUP2 MSTORE PUSH1 0x20 ADD PUSH1 0x1 DUP3 ADD DUP1 SLOAD PUSH2 0x8DF SWAP1 PUSH2 0x1910 JUMP JUMPDEST DUP1 PUSH1 0x1F ADD PUSH1 0x20 DUP1 SWAP2 DIV MUL PUSH1 0x20 ADD PUSH1 0x40 MLOAD SWAP1 DUP2 ADD PUSH1 0x40 MSTORE DUP1 SWAP3 SWAP2 SWAP1 DUP2 DUP2 MSTORE PUSH1 0x20 ADD DUP3 DUP1 SLOAD PUSH2 0x90B SWAP1 PUSH2 0x1910 JUMP JUMPDEST DUP1 ISZERO PUSH2 0x958 JUMPI DUP1 PUSH1 0x1F LT PUSH2 0x92D JUMPI PUSH2 0x100 DUP1 DUP4 SLOAD DIV MUL DUP4 MSTORE SWAP2 PUSH1 0x20 ADD SWAP2 PUSH2 0x958 JUMP JUMPDEST DUP3 ADD SWAP2 SWAP1 PUSH1 0x0 MSTORE PUSH1 0x20 PUSH1 0x0 KECCAK256 SWAP1 JUMPDEST DUP2 SLOAD DUP2 MSTORE SWAP1 PUSH1 0x1 ADD SWAP1 PUSH1 0x20 ADD DUP1 DUP4 GT PUSH2 0x93B JUMPI DUP3 SWAP1 SUB PUSH1 0x1F AND DUP3 ADD SWAP2 JUMPDEST POP POP POP POP POP DUP2 MSTORE PUSH1 0x20 ADD PUSH1 0x2 DUP3 ADD DUP1 SLOAD PUSH2 0x971 SWAP1 PUSH2 0x1910 JUMP JUMPDEST DUP1 PUSH1 0x1F ADD PUSH1 0x20 DUP1 SWAP2 DIV MUL PUSH1 0x20 ADD PUSH1 0x40 MLOAD SWAP1 DUP2 ADD PUSH1 0x40 MSTORE DUP1 SWAP3 SWAP2 SWAP1 DUP2 DUP2 MSTORE PUSH1 0x20 ADD DUP3 DUP1 SLOAD PUSH2 0x99D SWAP1 PUSH2 0x1910 JUMP JUMPDEST DUP1 ISZERO PUSH2 0x9EA JUMPI DUP1 PUSH1 0x1F LT PUSH2 0x9BF JUMPI PUSH2 0x100 DUP1 DUP4 SLOAD DIV MUL DUP4 MSTORE SWAP2 PUSH1 0x20 ADD SWAP2 PUSH2 0x9EA JUMP JUMPDEST DUP3 ADD SWAP2 SWAP1 PUSH1 0x0 MSTORE PUSH1 0x20 PUSH1 0x0 KECCAK256 SWAP1 JUMPDEST DUP2 SLOAD DUP2 MSTORE SWAP1 PUSH1 0x1 ADD SWAP1 PUSH1 0x20 ADD DUP1 DUP4 GT PUSH2 0x9CD JUMPI DUP3 SWAP1 SUB PUSH1 0x1F AND DUP3 ADD SWAP2 JUMPDEST POP POP POP POP POP DUP2 MSTORE PUSH1 0x20 ADD PUSH1 0x3 DUP3 ADD PUSH1 0x0 SWAP1 SLOAD SWAP1 PUSH2 0x100 EXP SWAP1 DIV PUSH16 0xFFFFFFFFFFFFFFFFFFFFFFFFFFFFFFFF AND PUSH16 0xFFFFFFFFFFFFFFFFFFFFFFFFFFFFFFFF AND PUSH16 0xFFFFFFFFFFFFFFFFFFFFFFFFFFFFFFFF AND DUP2 MSTORE PUSH1 0x20 ADD PUSH1 0x3 DUP3 ADD PUSH1 0x10 SWAP1 SLOAD SWAP1 PUSH2 0x100 EXP SWAP1 DIV PUSH16 0xFFFFFFFFFFFFFFFFFFFFFFFFFFFFFFFF AND PUSH16 0xFFFFFFFFFFFFFFFFFFFFFFFFFFFFFFFF AND PUSH16 0xFFFFFFFFFFFFFFFFFFFFFFFFFFFFFFFF AND DUP2 MSTORE PUSH1 0x20 ADD PUSH1 0x4 DUP3 ADD PUSH1 0x0 SWAP1 SLOAD SWAP1 PUSH2 0x100 EXP SWAP1 DIV PUSH4 0xFFFFFFFF AND PUSH4 0xFFFFFFFF AND PUSH4 0xFFFFFFFF AND DUP2 MSTORE PUSH1 0x20 ADD PUSH1 0x4 DUP3 ADD PUSH1 0x4 SWAP1 SLOAD SWAP1 PUSH2 0x100 EXP SWAP1 DIV PUSH4 0xFFFFFFFF AND PUSH4 0xFFFFFFFF AND PUSH4 0xFFFFFFFF AND DUP2 MSTORE POP POP DUP3 DUP3 DUP2 MLOAD DUP2 LT PUSH2 0xAE6 JUMPI PUSH2 0xAE5 PUSH2 0x1970 JUMP JUMPDEST JUMPDEST PUSH1 0x20 MUL PUSH1 0x20 ADD ADD DUP2 SWAP1 MSTORE POP DUP1 DUP1 PUSH2 0xAFC SWAP1 PUSH2 0x19CE JUMP JUMPDEST SWAP2 POP POP PUSH2 0x838 JUMP JUMPDEST POP DUP1 SWAP3 POP POP POP SWAP2 SWAP1 POP JUMP JUMPDEST PUSH1 0x60 PUSH1 0x2 PUSH1 0x0 CALLER PUSH20 0xFFFFFFFFFFFFFFFFFFFFFFFFFFFFFFFFFFFFFFFF AND PUSH20 0xFFFFFFFFFFFFFFFFFFFFFFFFFFFFFFFFFFFFFFFF AND DUP2 MSTORE PUSH1 0x20 ADD SWAP1 DUP2 MSTORE PUSH1 0x20 ADD PUSH1 0x0 KECCAK256 DUP1 SLOAD DUP1 PUSH1 0x20 MUL PUSH1 0x20 ADD PUSH1 0x40 MLOAD SWAP1 DUP2 ADD PUSH1 0x40 MSTORE DUP1 SWAP3 SWAP2 SWAP1 DUP2 DUP2 MSTORE PUSH1 0x20 ADD DUP3 DUP1 SLOAD DUP1 ISZERO PUSH2 0xB9A JUMPI PUSH1 0x20 MUL DUP3 ADD SWAP2 SWAP1 PUSH1 0x0 MSTORE PUSH1 0x20 PUSH1 0x0 KECCAK256 SWAP1 JUMPDEST DUP2 SLOAD DUP2 MSTORE PUSH1 0x20 ADD SWAP1 PUSH1 0x1 ADD SWAP1 DUP1 DUP4 GT PUSH2 0xB86 JUMPI JUMPDEST POP POP POP POP POP SWAP1 POP SWAP1 JUMP JUMPDEST PUSH1 0x40 MLOAD DUP1 PUSH1 0xE0 ADD PUSH1 0x40 MSTORE DUP1 CALLER PUSH20 0xFFFFFFFFFFFFFFFFFFFFFFFFFFFFFFFFFFFFFFFF AND DUP2 MSTORE PUSH1 0x20 ADD DUP10 DUP10 DUP1 DUP1 PUSH1 0x1F ADD PUSH1 0x20 DUP1 SWAP2 DIV MUL PUSH1 0x20 ADD PUSH1 0x40 MLOAD SWAP1 DUP2 ADD PUSH1 0x40 MSTORE DUP1 SWAP4 SWAP3 SWAP2 SWAP1 DUP2 DUP2 MSTORE PUSH1 0x20 ADD DUP4 DUP4 DUP1 DUP3 DUP5 CALLDATACOPY PUSH1 0x0 DUP2 DUP5 ADD MSTORE PUSH1 0x1F NOT PUSH1 0x1F DUP3 ADD AND SWAP1 POP DUP1 DUP4 ADD SWAP3 POP POP POP POP POP POP POP DUP2 MSTORE PUSH1 0x20 ADD DUP8 DUP8 DUP1 DUP1 PUSH1 0x1F ADD PUSH1 0x20 DUP1 SWAP2 DIV MUL PUSH1 0x20 ADD PUSH1 0x40 MLOAD SWAP1 DUP2 ADD PUSH1 0x40 MSTORE DUP1 SWAP4 SWAP3 SWAP2 SWAP1 DUP2 DUP2 MSTORE PUSH1 0x20 ADD DUP4 DUP4 DUP1 DUP3 DUP5 CALLDATACOPY PUSH1 0x0 DUP2 DUP5 ADD MSTORE PUSH1 0x1F NOT PUSH1 0x1F DUP3 ADD AND SWAP1 POP DUP1 DUP4 ADD SWAP3 POP POP POP POP POP POP POP DUP2 MSTORE PUSH1 0x20 ADD DUP6 PUSH16 0xFFFFFFFFFFFFFFFFFFFFFFFFFFFFFFFF AND DUP2 MSTORE PUSH1 0x20 ADD DUP5 PUSH16 0xFFFFFFFFFFFFFFFFFFFFFFFFFFFFFFFF AND DUP2 MSTORE PUSH1 0x20 ADD DUP4 PUSH4 0xFFFFFFFF AND DUP2 MSTORE PUSH1 0x20 ADD DUP3 PUSH4 0xFFFFFFFF AND DUP2 MSTORE POP PUSH1 0x1 PUSH1 0x0 DUP1 SLOAD DUP2 MSTORE PUSH1 0x20 ADD SWAP1 DUP2 MSTORE PUSH1 0x20 ADD PUSH1 0x0 KECCAK256 PUSH1 0x0 DUP3 ADD MLOAD DUP2 PUSH1 0x0 ADD PUSH1 0x0 PUSH2 0x100 EXP DUP2 SLOAD DUP2 PUSH20 0xFFFFFFFFFFFFFFFFFFFFFFFFFFFFFFFFFFFFFFFF MUL NOT AND SWAP1 DUP4 PUSH20 0xFFFFFFFFFFFFFFFFFFFFFFFFFFFFFFFFFFFFFFFF AND MUL OR SWAP1 SSTORE POP PUSH1 0x20 DUP3 ADD MLOAD DUP2 PUSH1 0x1 ADD SWAP1 DUP2 PUSH2 0xD15 SWAP2 SWAP1 PUSH2 0x1BC2 JUMP JUMPDEST POP PUSH1 0x40 DUP3 ADD MLOAD DUP2 PUSH1 0x2 ADD SWAP1 DUP2 PUSH2 0xD2B SWAP2 SWAP1 PUSH2 0x1BC2 JUMP JUMPDEST POP PUSH1 0x60 DUP3 ADD MLOAD DUP2 PUSH1 0x3 ADD PUSH1 0x0 PUSH2 0x100 EXP DUP2 SLOAD DUP2 PUSH16 0xFFFFFFFFFFFFFFFFFFFFFFFFFFFFFFFF MUL NOT AND SWAP1 DUP4 PUSH16 0xFFFFFFFFFFFFFFFFFFFFFFFFFFFFFFFF AND MUL OR SWAP1 SSTORE POP PUSH1 0x80 DUP3 ADD MLOAD DUP2 PUSH1 0x3 ADD PUSH1 0x10 PUSH2 0x100 EXP DUP2 SLOAD DUP2 PUSH16 0xFFFFFFFFFFFFFFFFFFFFFFFFFFFFFFFF MUL NOT AND SWAP1 DUP4 PUSH16 0xFFFFFFFFFFFFFFFFFFFFFFFFFFFFFFFF AND MUL OR SWAP1 SSTORE POP PUSH1 0xA0 DUP3 ADD MLOAD DUP2 PUSH1 0x4 ADD PUSH1 0x0 PUSH2 0x100 EXP DUP2 SLOAD DUP2 PUSH4 0xFFFFFFFF MUL NOT AND SWAP1 DUP4 PUSH4 0xFFFFFFFF AND MUL OR SWAP1 SSTORE POP PUSH1 0xC0 DUP3 ADD MLOAD DUP2 PUSH1 0x4 ADD PUSH1 0x4 PUSH2 0x100 EXP DUP2 SLOAD DUP2 PUSH4 0xFFFFFFFF MUL NOT AND SWAP1 DUP4 PUSH4 0xFFFFFFFF AND MUL OR SWAP1 SSTORE POP SWAP1 POP POP PUSH1 0x2 PUSH1 0x0 CALLER PUSH20 0xFFFFFFFFFFFFFFFFFFFFFFFFFFFFFFFFFFFFFFFF AND PUSH20 0xFFFFFFFFFFFFFFFFFFFFFFFFFFFFFFFFFFFFFFFF AND DUP2 MSTORE PUSH1 0x20 ADD SWAP1 DUP2 MSTORE PUSH1 0x20 ADD PUSH1 0x0 KECCAK256 PUSH1 0x0 SLOAD SWAP1 DUP1 PUSH1 0x1 DUP2 SLOAD ADD DUP1 DUP3 SSTORE DUP1 SWAP2 POP POP PUSH1 0x1 SWAP1 SUB SWAP1 PUSH1 0x0 MSTORE PUSH1 0x20 PUSH1 0x0 KECCAK256 ADD PUSH1 0x0 SWAP1 SWAP2 SWAP1 SWAP2 SWAP1 SWAP2 POP SSTORE CALLER PUSH20 0xFFFFFFFFFFFFFFFFFFFFFFFFFFFFFFFFFFFFFFFF AND PUSH1 0x0 SLOAD PUSH32 0xB544B666BF20D30FC9ACBC75AEE55E5847E8F95A49AA5D36B6DAB734F0CBB303 DUP11 DUP11 DUP11 DUP11 DUP11 DUP11 DUP11 DUP11 TIMESTAMP PUSH1 0x40 MLOAD PUSH2 0xEBC SWAP10 SWAP9 SWAP8 SWAP7 SWAP6 SWAP5 SWAP4 SWAP3 SWAP2 SWAP1 PUSH2 0x1CD0 JUMP JUMPDEST PUSH1 0x40 MLOAD DUP1 SWAP2 SUB SWAP1 LOG3 PUSH1 0x0 DUP1 DUP2 SLOAD DUP1 SWAP3 SWAP2 SWAP1 PUSH2 0xED6 SWAP1 PUSH2 0x19CE JUMP JUMPDEST SWAP2 SWAP1 POP SSTORE POP POP POP POP POP POP POP POP POP JUMP JUMPDEST DUP1 PUSH1 0x1 PUSH1 0x0 DUP5 DUP2 MSTORE PUSH1 0x20 ADD SWAP1 DUP2 MSTORE PUSH1 0x20 ADD PUSH1 0x0 KECCAK256 PUSH1 0x3 ADD PUSH1 0x0 DUP3 DUP3 DUP3 SWAP1 SLOAD SWAP1 PUSH2 0x100 EXP SWAP1 DIV PUSH16 0xFFFFFFFFFFFFFFFFFFFFFFFFFFFFFFFF AND PUSH2 0xF26 SWAP2 SWAP1 PUSH2 0x1D51 JUMP JUMPDEST SWAP3 POP PUSH2 0x100 EXP DUP2 SLOAD DUP2 PUSH16 0xFFFFFFFFFFFFFFFFFFFFFFFFFFFFFFFF MUL NOT AND SWAP1 DUP4 PUSH16 0xFFFFFFFFFFFFFFFFFFFFFFFFFFFFFFFF AND MUL OR SWAP1 SSTORE POP DUP2 PUSH32 0x1F3D301ECA9B893FB3AE34F526F7B346CFE3086BE67884CE1E652593C91668D6 PUSH1 0x1 PUSH1 0x0 DUP6 DUP2 MSTORE PUSH1 0x20 ADD SWAP1 DUP2 MSTORE PUSH1 0x20 ADD PUSH1 0x0 KECCAK256 PUSH1 0x3 ADD PUSH1 0x0 SWAP1 SLOAD SWAP1 PUSH2 0x100 EXP SWAP1 DIV PUSH16 0xFFFFFFFFFFFFFFFFFFFFFFFFFFFFFFFF AND PUSH1 0x40 MLOAD PUSH2 0xFBE SWAP2 SWAP1 PUSH2 0x1D95 JUMP JUMPDEST PUSH1 0x40 MLOAD DUP1 SWAP2 SUB SWAP1 LOG2 POP POP JUMP JUMPDEST PUSH1 0x40 MLOAD DUP1 PUSH1 0xE0 ADD PUSH1 0x40 MSTORE DUP1 PUSH1 0x0 PUSH20 0xFFFFFFFFFFFFFFFFFFFFFFFFFFFFFFFFFFFFFFFF AND DUP2 MSTORE PUSH1 0x20 ADD PUSH1 0x60 DUP2 MSTORE PUSH1 0x20 ADD PUSH1 0x60 DUP2 MSTORE PUSH1 0x20 ADD PUSH1 0x0 PUSH16 0xFFFFFFFFFFFFFFFFFFFFFFFFFFFFFFFF AND DUP2 MSTORE PUSH1 0x20 ADD PUSH1 0x0 PUSH16 0xFFFFFFFFFFFFFFFFFFFFFFFFFFFFFFFF AND DUP2 MSTORE PUSH1 0x20 ADD PUSH1 0x0 PUSH4 0xFFFFFFFF AND DUP2 MSTORE PUSH1 0x20 ADD PUSH1 0x0 PUSH4 0xFFFFFFFF AND DUP2 MSTORE POP SWAP1 JUMP JUMPDEST POP DUP1 SLOAD PUSH2 0x1059 SWAP1 PUSH2 0x1910 JUMP JUMPDEST PUSH1 0x0 DUP3 SSTORE DUP1 PUSH1 0x1F LT PUSH2 0x106B JUMPI POP PUSH2 0x108A JUMP JUMPDEST PUSH1 0x1F ADD PUSH1 0x20 SWAP1 DIV SWAP1 PUSH1 0x0 MSTORE PUSH1 0x20 PUSH1 0x0 KECCAK256 SWAP1 DUP2 ADD SWAP1 PUSH2 0x1089 SWAP2 SWAP1 PUSH2 0x108D JUMP JUMPDEST JUMPDEST POP JUMP JUMPDEST JUMPDEST DUP1 DUP3 GT ISZERO PUSH2 0x10A6 JUMPI PUSH1 0x0 DUP2 PUSH1 0x0 SWAP1 SSTORE POP PUSH1 0x1 ADD PUSH2 0x108E JUMP JUMPDEST POP SWAP1 JUMP JUMPDEST PUSH1 0x0 DUP1 REVERT JUMPDEST PUSH1 0x0 DUP1 REVERT JUMPDEST PUSH1 0x0 DUP2 SWAP1 POP SWAP2 SWAP1 POP JUMP JUMPDEST PUSH2 0x10C7 DUP2 PUSH2 0x10B4 JUMP JUMPDEST DUP2 EQ PUSH2 0x10D2 JUMPI PUSH1 0x0 DUP1 REVERT JUMPDEST POP JUMP JUMPDEST PUSH1 0x0 DUP2 CALLDATALOAD SWAP1 POP PUSH2 0x10E4 DUP2 PUSH2 0x10BE JUMP JUMPDEST SWAP3 SWAP2 POP POP JUMP JUMPDEST PUSH1 0x0 PUSH1 0x20 DUP3 DUP5 SUB SLT ISZERO PUSH2 0x1100 JUMPI PUSH2 0x10FF PUSH2 0x10AA JUMP JUMPDEST JUMPDEST PUSH1 0x0 PUSH2 0x110E DUP5 DUP3 DUP6 ADD PUSH2 0x10D5 JUMP JUMPDEST SWAP2 POP POP SWAP3 SWAP2 POP POP JUMP JUMPDEST PUSH1 0x0 PUSH20 0xFFFFFFFFFFFFFFFFFFFFFFFFFFFFFFFFFFFFFFFF DUP3 AND SWAP1 POP SWAP2 SWAP1 POP JUMP JUMPDEST PUSH1 0x0 PUSH2 0x1142 DUP3 PUSH2 0x1117 JUMP JUMPDEST SWAP1 POP SWAP2 SWAP1 POP JUMP JUMPDEST PUSH2 0x1152 DUP2 PUSH2 0x1137 JUMP JUMPDEST DUP3 MSTORE POP POP JUMP JUMPDEST PUSH1 0x0 DUP2 MLOAD SWAP1 POP SWAP2 SWAP1 POP JUMP JUMPDEST PUSH1 0x0 DUP3 DUP3 MSTORE PUSH1 0x20 DUP3 ADD SWAP1 POP SWAP3 SWAP2 POP POP JUMP JUMPDEST PUSH1 0x0 JUMPDEST DUP4 DUP2 LT ISZERO PUSH2 0x1192 JUMPI DUP1 DUP3 ADD MLOAD DUP2 DUP5 ADD MSTORE PUSH1 0x20 DUP2 ADD SWAP1 POP PUSH2 0x1177 JUMP JUMPDEST PUSH1 0x0 DUP5 DUP5 ADD MSTORE POP POP POP POP JUMP JUMPDEST PUSH1 0x0 PUSH1 0x1F NOT PUSH1 0x1F DUP4 ADD AND SWAP1 POP SWAP2 SWAP1 POP JUMP JUMPDEST PUSH1 0x0 PUSH2 0x11BA DUP3 PUSH2 0x1158 JUMP JUMPDEST PUSH2 0x11C4 DUP2 DUP6 PUSH2 0x1163 JUMP JUMPDEST SWAP4 POP PUSH2 0x11D4 DUP2 DUP6 PUSH1 0x20 DUP7 ADD PUSH2 0x1174 JUMP JUMPDEST PUSH2 0x11DD DUP2 PUSH2 0x119E JUMP JUMPDEST DUP5 ADD SWAP2 POP POP SWAP3 SWAP2 POP POP JUMP JUMPDEST PUSH1 0x0 PUSH16 0xFFFFFFFFFFFFFFFFFFFFFFFFFFFFFFFF DUP3 AND SWAP1 POP SWAP2 SWAP1 POP JUMP JUMPDEST PUSH2 0x120D DUP2 PUSH2 0x11E8 JUMP JUMPDEST DUP3 MSTORE POP POP JUMP JUMPDEST PUSH1 0x0 PUSH4 0xFFFFFFFF DUP3 AND SWAP1 POP SWAP2 SWAP1 POP JUMP JUMPDEST PUSH2 0x122C DUP2 PUSH2 0x1213 JUMP JUMPDEST DUP3 MSTORE POP POP JUMP JUMPDEST PUSH1 0x0 PUSH1 0xE0 DUP4 ADD PUSH1 0x0 DUP4 ADD MLOAD PUSH2 0x124A PUSH1 0x0 DUP7 ADD DUP3 PUSH2 0x1149 JUMP JUMPDEST POP PUSH1 0x20 DUP4 ADD MLOAD DUP5 DUP3 SUB PUSH1 0x20 DUP7 ADD MSTORE PUSH2 0x1262 DUP3 DUP3 PUSH2 0x11AF JUMP JUMPDEST SWAP2 POP POP PUSH1 0x40 DUP4 ADD MLOAD DUP5 DUP3 SUB PUSH1 0x40 DUP7 ADD MSTORE PUSH2 0x127C DUP3 DUP3 PUSH2 0x11AF JUMP JUMPDEST SWAP2 POP POP PUSH1 0x60 DUP4 ADD MLOAD PUSH2 0x1291 PUSH1 0x60 DUP7 ADD DUP3 PUSH2 0x1204 JUMP JUMPDEST POP PUSH1 0x80 DUP4 ADD MLOAD PUSH2 0x12A4 PUSH1 0x80 DUP7 ADD DUP3 PUSH2 0x1204 JUMP JUMPDEST POP PUSH1 0xA0 DUP4 ADD MLOAD PUSH2 0x12B7 PUSH1 0xA0 DUP7 ADD DUP3 PUSH2 0x1223 JUMP JUMPDEST POP PUSH1 0xC0 DUP4 ADD MLOAD PUSH2 0x12CA PUSH1 0xC0 DUP7 ADD DUP3 PUSH2 0x1223 JUMP JUMPDEST POP DUP1 SWAP2 POP POP SWAP3 SWAP2 POP POP JUMP JUMPDEST PUSH1 0x0 PUSH1 0x20 DUP3 ADD SWAP1 POP DUP2 DUP2 SUB PUSH1 0x0 DUP4 ADD MSTORE PUSH2 0x12EF DUP2 DUP5 PUSH2 0x1232 JUMP JUMPDEST SWAP1 POP SWAP3 SWAP2 POP POP JUMP JUMPDEST PUSH2 0x1300 DUP2 PUSH2 0x1137 JUMP JUMPDEST DUP2 EQ PUSH2 0x130B JUMPI PUSH1 0x0 DUP1 REVERT JUMPDEST POP JUMP JUMPDEST PUSH1 0x0 DUP2 CALLDATALOAD SWAP1 POP PUSH2 0x131D DUP2 PUSH2 0x12F7 JUMP JUMPDEST SWAP3 SWAP2 POP POP JUMP JUMPDEST PUSH1 0x0 DUP1 PUSH1 0x40 DUP4 DUP6 SUB SLT ISZERO PUSH2 0x133A JUMPI PUSH2 0x1339 PUSH2 0x10AA JUMP JUMPDEST JUMPDEST PUSH1 0x0 PUSH2 0x1348 DUP6 DUP3 DUP7 ADD PUSH2 0x130E JUMP JUMPDEST SWAP3 POP POP PUSH1 0x20 PUSH2 0x1359 DUP6 DUP3 DUP7 ADD PUSH2 0x10D5 JUMP JUMPDEST SWAP2 POP POP SWAP3 POP SWAP3 SWAP1 POP JUMP JUMPDEST PUSH2 0x136C DUP2 PUSH2 0x10B4 JUMP JUMPDEST DUP3 MSTORE POP POP JUMP JUMPDEST PUSH1 0x0 PUSH1 0x20 DUP3 ADD SWAP1 POP PUSH2 0x1387 PUSH1 0x0 DUP4 ADD DUP5 PUSH2 0x1363 JUMP JUMPDEST SWAP3 SWAP2 POP POP JUMP JUMPDEST PUSH2 0x1396 DUP2 PUSH2 0x1137 JUMP JUMPDEST DUP3 MSTORE POP POP JUMP JUMPDEST PUSH1 0x0 DUP3 DUP3 MSTORE PUSH1 0x20 DUP3 ADD SWAP1 POP SWAP3 SWAP2 POP POP JUMP JUMPDEST PUSH1 0x0 PUSH2 0x13B8 DUP3 PUSH2 0x1158 JUMP JUMPDEST PUSH2 0x13C2 DUP2 DUP6 PUSH2 0x139C JUMP JUMPDEST SWAP4 POP PUSH2 0x13D2 DUP2 DUP6 PUSH1 0x20 DUP7 ADD PUSH2 0x1174 JUMP JUMPDEST PUSH2 0x13DB DUP2 PUSH2 0x119E JUMP JUMPDEST DUP5 ADD SWAP2 POP POP SWAP3 SWAP2 POP POP JUMP JUMPDEST PUSH2 0x13EF DUP2 PUSH2 0x11E8 JUMP JUMPDEST DUP3 MSTORE POP POP JUMP JUMPDEST PUSH2 0x13FE DUP2 PUSH2 0x1213 JUMP JUMPDEST DUP3 MSTORE POP POP JUMP JUMPDEST PUSH1 0x0 PUSH1 0xE0 DUP3 ADD SWAP1 POP PUSH2 0x1419 PUSH1 0x0 DUP4 ADD DUP11 PUSH2 0x138D JUMP JUMPDEST DUP2 DUP2 SUB PUSH1 0x20 DUP4 ADD MSTORE PUSH2 0x142B DUP2 DUP10 PUSH2 0x13AD JUMP JUMPDEST SWAP1 POP DUP2 DUP2 SUB PUSH1 0x40 DUP4 ADD MSTORE PUSH2 0x143F DUP2 DUP9 PUSH2 0x13AD JUMP JUMPDEST SWAP1 POP PUSH2 0x144E PUSH1 0x60 DUP4 ADD DUP8 PUSH2 0x13E6 JUMP JUMPDEST PUSH2 0x145B PUSH1 0x80 DUP4 ADD DUP7 PUSH2 0x13E6 JUMP JUMPDEST PUSH2 0x1468 PUSH1 0xA0 DUP4 ADD DUP6 PUSH2 0x13F5 JUMP JUMPDEST PUSH2 0x1475 PUSH1 0xC0 DUP4 ADD DUP5 PUSH2 0x13F5 JUMP JUMPDEST SWAP9 SWAP8 POP POP POP POP POP POP POP POP JUMP JUMPDEST PUSH1 0x0 PUSH1 0x20 DUP3 DUP5 SUB SLT ISZERO PUSH2 0x1497 JUMPI PUSH2 0x1496 PUSH2 0x10AA JUMP JUMPDEST JUMPDEST PUSH1 0x0 PUSH2 0x14A5 DUP5 DUP3 DUP6 ADD PUSH2 0x130E JUMP JUMPDEST SWAP2 POP POP SWAP3 SWAP2 POP POP JUMP JUMPDEST PUSH1 0x0 DUP2 MLOAD SWAP1 POP SWAP2 SWAP1 POP JUMP JUMPDEST PUSH1 0x0 DUP3 DUP3 MSTORE PUSH1 0x20 DUP3 ADD SWAP1 POP SWAP3 SWAP2 POP POP JUMP JUMPDEST PUSH1 0x0 DUP2 SWAP1 POP PUSH1 0x20 DUP3 ADD SWAP1 POP SWAP2 SWAP1 POP JUMP JUMPDEST PUSH1 0x0 PUSH1 0xE0 DUP4 ADD PUSH1 0x0 DUP4 ADD MLOAD PUSH2 0x14F2 PUSH1 0x0 DUP7 ADD DUP3 PUSH2 0x1149 JUMP JUMPDEST POP PUSH1 0x20 DUP4 ADD MLOAD DUP5 DUP3 SUB PUSH1 0x20 DUP7 ADD MSTORE PUSH2 0x150A DUP3 DUP3 PUSH2 0x11AF JUMP JUMPDEST SWAP2 POP POP PUSH1 0x40 DUP4 ADD MLOAD DUP5 DUP3 SUB PUSH1 0x40 DUP7 ADD MSTORE PUSH2 0x1524 DUP3 DUP3 PUSH2 0x11AF JUMP JUMPDEST SWAP2 POP POP PUSH1 0x60 DUP4 ADD MLOAD PUSH2 0x1539 PUSH1 0x60 DUP7 ADD DUP3 PUSH2 0x1204 JUMP JUMPDEST POP PUSH1 0x80 DUP4 ADD MLOAD PUSH2 0x154C PUSH1 0x80 DUP7 ADD DUP3 PUSH2 0x1204 JUMP JUMPDEST POP PUSH1 0xA0 DUP4 ADD MLOAD PUSH2 0x155F PUSH1 0xA0 DUP7 ADD DUP3 PUSH2 0x1223 JUMP JUMPDEST POP PUSH1 0xC0 DUP4 ADD MLOAD PUSH2 0x1572 PUSH1 0xC0 DUP7 ADD DUP3 PUSH2 0x1223 JUMP JUMPDEST POP DUP1 SWAP2 POP POP SWAP3 SWAP2 POP POP JUMP JUMPDEST PUSH1 0x0 PUSH2 0x1589 DUP4 DUP4 PUSH2 0x14DA JUMP JUMPDEST SWAP1 POP SWAP3 SWAP2 POP POP JUMP JUMPDEST PUSH1 0x0 PUSH1 0x20 DUP3 ADD SWAP1 POP SWAP2 SWAP1 POP JUMP JUMPDEST PUSH1 0x0 PUSH2 0x15A9 DUP3 PUSH2 0x14AE JUMP JUMPDEST PUSH2 0x15B3 DUP2 DUP6 PUSH2 0x14B9 JUMP JUMPDEST SWAP4 POP DUP4 PUSH1 0x20 DUP3 MUL DUP6 ADD PUSH2 0x15C5 DUP6 PUSH2 0x14CA JUMP JUMPDEST DUP1 PUSH1 0x0 JUMPDEST DUP6 DUP2 LT ISZERO PUSH2 0x1601 JUMPI DUP5 DUP5 SUB DUP10 MSTORE DUP2 MLOAD PUSH2 0x15E2 DUP6 DUP3 PUSH2 0x157D JUMP JUMPDEST SWAP5 POP PUSH2 0x15ED DUP4 PUSH2 0x1591 JUMP JUMPDEST SWAP3 POP PUSH1 0x20 DUP11 ADD SWAP10 POP POP PUSH1 0x1 DUP2 ADD SWAP1 POP PUSH2 0x15C9 JUMP JUMPDEST POP DUP3 SWAP8 POP DUP8 SWAP6 POP POP POP POP POP POP SWAP3 SWAP2 POP POP JUMP JUMPDEST PUSH1 0x0 PUSH1 0x20 DUP3 ADD SWAP1 POP DUP2 DUP2 SUB PUSH1 0x0 DUP4 ADD MSTORE PUSH2 0x162D DUP2 DUP5 PUSH2 0x159E JUMP JUMPDEST SWAP1 POP SWAP3 SWAP2 POP POP JUMP JUMPDEST PUSH1 0x0 DUP2 MLOAD SWAP1 POP SWAP2 SWAP1 POP JUMP JUMPDEST PUSH1 0x0 DUP3 DUP3 MSTORE PUSH1 0x20 DUP3 ADD SWAP1 POP SWAP3 SWAP2 POP POP JUMP JUMPDEST PUSH1 0x0 DUP2 SWAP1 POP PUSH1 0x20 DUP3 ADD SWAP1 POP SWAP2 SWAP1 POP JUMP JUMPDEST PUSH2 0x166A DUP2 PUSH2 0x10B4 JUMP JUMPDEST DUP3 MSTORE POP POP JUMP JUMPDEST PUSH1 0x0 PUSH2 0x167C DUP4 DUP4 PUSH2 0x1661 JUMP JUMPDEST PUSH1 0x20 DUP4 ADD SWAP1 POP SWAP3 SWAP2 POP POP JUMP JUMPDEST PUSH1 0x0 PUSH1 0x20 DUP3 ADD SWAP1 POP SWAP2 SWAP1 POP JUMP JUMPDEST PUSH1 0x0 PUSH2 0x16A0 DUP3 PUSH2 0x1635 JUMP JUMPDEST PUSH2 0x16AA DUP2 DUP6 PUSH2 0x1640 JUMP JUMPDEST SWAP4 POP PUSH2 0x16B5 DUP4 PUSH2 0x1651 JUMP JUMPDEST DUP1 PUSH1 0x0 JUMPDEST DUP4 DUP2 LT ISZERO PUSH2 0x16E6 JUMPI DUP2 MLOAD PUSH2 0x16CD DUP9 DUP3 PUSH2 0x1670 JUMP JUMPDEST SWAP8 POP PUSH2 0x16D8 DUP4 PUSH2 0x1688 JUMP JUMPDEST SWAP3 POP POP PUSH1 0x1 DUP2 ADD SWAP1 POP PUSH2 0x16B9 JUMP JUMPDEST POP DUP6 SWAP4 POP POP POP POP SWAP3 SWAP2 POP POP JUMP JUMPDEST PUSH1 0x0 PUSH1 0x20 DUP3 ADD SWAP1 POP DUP2 DUP2 SUB PUSH1 0x0 DUP4 ADD MSTORE PUSH2 0x170D DUP2 DUP5 PUSH2 0x1695 JUMP JUMPDEST SWAP1 POP SWAP3 SWAP2 POP POP JUMP JUMPDEST PUSH1 0x0 DUP1 REVERT JUMPDEST PUSH1 0x0 DUP1 REVERT JUMPDEST PUSH1 0x0 DUP1 REVERT JUMPDEST PUSH1 0x0 DUP1 DUP4 PUSH1 0x1F DUP5 ADD SLT PUSH2 0x173A JUMPI PUSH2 0x1739 PUSH2 0x1715 JUMP JUMPDEST JUMPDEST DUP3 CALLDATALOAD SWAP1 POP PUSH8 0xFFFFFFFFFFFFFFFF DUP2 GT ISZERO PUSH2 0x1757 JUMPI PUSH2 0x1756 PUSH2 0x171A JUMP JUMPDEST JUMPDEST PUSH1 0x20 DUP4 ADD SWAP2 POP DUP4 PUSH1 0x1 DUP3 MUL DUP4 ADD GT ISZERO PUSH2 0x1773 JUMPI PUSH2 0x1772 PUSH2 0x171F JUMP JUMPDEST JUMPDEST SWAP3 POP SWAP3 SWAP1 POP JUMP JUMPDEST PUSH2 0x1783 DUP2 PUSH2 0x11E8 JUMP JUMPDEST DUP2 EQ PUSH2 0x178E JUMPI PUSH1 0x0 DUP1 REVERT JUMPDEST POP JUMP JUMPDEST PUSH1 0x0 DUP2 CALLDATALOAD SWAP1 POP PUSH2 0x17A0 DUP2 PUSH2 0x177A JUMP JUMPDEST SWAP3 SWAP2 POP POP JUMP JUMPDEST PUSH2 0x17AF DUP2 PUSH2 0x1213 JUMP JUMPDEST DUP2 EQ PUSH2 0x17BA JUMPI PUSH1 0x0 DUP1 REVERT JUMPDEST POP JUMP JUMPDEST PUSH1 0x0 DUP2 CALLDATALOAD SWAP1 POP PUSH2 0x17CC DUP2 PUSH2 0x17A6 JUMP JUMPDEST SWAP3 SWAP2 POP POP JUMP JUMPDEST PUSH1 0x0 DUP1 PUSH1 0x0 DUP1 PUSH1 0x0 DUP1 PUSH1 0x0 DUP1 PUSH1 0xC0 DUP10 DUP12 SUB SLT ISZERO PUSH2 0x17F2 JUMPI PUSH2 0x17F1 PUSH2 0x10AA JUMP JUMPDEST JUMPDEST PUSH1 0x0 DUP10 ADD CALLDATALOAD PUSH8 0xFFFFFFFFFFFFFFFF DUP2 GT ISZERO PUSH2 0x1810 JUMPI PUSH2 0x180F PUSH2 0x10AF JUMP JUMPDEST JUMPDEST PUSH2 0x181C DUP12 DUP3 DUP13 ADD PUSH2 0x1724 JUMP JUMPDEST SWAP9 POP SWAP9 POP POP PUSH1 0x20 DUP10 ADD CALLDATALOAD PUSH8 0xFFFFFFFFFFFFFFFF DUP2 GT ISZERO PUSH2 0x183F JUMPI PUSH2 0x183E PUSH2 0x10AF JUMP JUMPDEST JUMPDEST PUSH2 0x184B DUP12 DUP3 DUP13 ADD PUSH2 0x1724 JUMP JUMPDEST SWAP7 POP SWAP7 POP POP PUSH1 0x40 PUSH2 0x185E DUP12 DUP3 DUP13 ADD PUSH2 0x1791 JUMP JUMPDEST SWAP5 POP POP PUSH1 0x60 PUSH2 0x186F DUP12 DUP3 DUP13 ADD PUSH2 0x1791 JUMP JUMPDEST SWAP4 POP POP PUSH1 0x80 PUSH2 0x1880 DUP12 DUP3 DUP13 ADD PUSH2 0x17BD JUMP JUMPDEST SWAP3 POP POP PUSH1 0xA0 PUSH2 0x1891 DUP12 DUP3 DUP13 ADD PUSH2 0x17BD JUMP JUMPDEST SWAP2 POP POP SWAP3 SWAP6 SWAP9 POP SWAP3 SWAP6 SWAP9 SWAP1 SWAP4 SWAP7 POP JUMP JUMPDEST PUSH1 0x0 DUP1 PUSH1 0x40 DUP4 DUP6 SUB SLT ISZERO PUSH2 0x18B8 JUMPI PUSH2 0x18B7 PUSH2 0x10AA JUMP JUMPDEST JUMPDEST PUSH1 0x0 PUSH2 0x18C6 DUP6 DUP3 DUP7 ADD PUSH2 0x10D5 JUMP JUMPDEST SWAP3 POP POP PUSH1 0x20 PUSH2 0x18D7 DUP6 DUP3 DUP7 ADD PUSH2 0x1791 JUMP JUMPDEST SWAP2 POP POP SWAP3 POP SWAP3 SWAP1 POP JUMP JUMPDEST PUSH32 0x4E487B7100000000000000000000000000000000000000000000000000000000 PUSH1 0x0 MSTORE PUSH1 0x22 PUSH1 0x4 MSTORE PUSH1 0x24 PUSH1 0x0 REVERT JUMPDEST PUSH1 0x0 PUSH1 0x2 DUP3 DIV SWAP1 POP PUSH1 0x1 DUP3 AND DUP1 PUSH2 0x1928 JUMPI PUSH1 0x7F DUP3 AND SWAP2 POP JUMPDEST PUSH1 0x20 DUP3 LT DUP2 SUB PUSH2 0x193B JUMPI PUSH2 0x193A PUSH2 0x18E1 JUMP JUMPDEST JUMPDEST POP SWAP2 SWAP1 POP JUMP JUMPDEST PUSH32 0x4E487B7100000000000000000000000000000000000000000000000000000000 PUSH1 0x0 MSTORE PUSH1 0x41 PUSH1 0x4 MSTORE PUSH1 0x24 PUSH1 0x0 REVERT JUMPDEST PUSH32 0x4E487B7100000000000000000000000000000000000000000000000000000000 PUSH1 0x0 MSTORE PUSH1 0x32 PUSH1 0x4 MSTORE PUSH1 0x24 PUSH1 0x0 REVERT JUMPDEST PUSH32 0x4E487B7100000000000000000000000000000000000000000000000000000000 PUSH1 0x0 MSTORE PUSH1 0x11 PUSH1 0x4 MSTORE PUSH1 0x24 PUSH1 0x0 REVERT JUMPDEST PUSH1 0x0 PUSH2 0x19D9 DUP3 PUSH2 0x10B4 JUMP JUMPDEST SWAP2 POP PUSH32 0xFFFFFFFFFFFFFFFFFFFFFFFFFFFFFFFFFFFFFFFFFFFFFFFFFFFFFFFFFFFFFFFF DUP3 SUB PUSH2 0x1A0B JUMPI PUSH2 0x1A0A PUSH2 0x199F JUMP JUMPDEST JUMPDEST PUSH1 0x1 DUP3 ADD SWAP1 POP SWAP2 SWAP1 POP JUMP JUMPDEST PUSH1 0x0 DUP2 SWAP1 POP DUP2 PUSH1 0x0 MSTORE PUSH1 0x20 PUSH1 0x0 KECCAK256 SWAP1 POP SWAP2 SWAP1 POP JUMP JUMPDEST PUSH1 0x0 PUSH1 0x20 PUSH1 0x1F DUP4 ADD DIV SWAP1 POP SWAP2 SWAP1 POP JUMP JUMPDEST PUSH1 0x0 DUP3 DUP3 SHL SWAP1 POP SWAP3 SWAP2 POP POP JUMP JUMPDEST PUSH1 0x0 PUSH1 0x8 DUP4 MUL PUSH2 0x1A78 PUSH32 0xFFFFFFFFFFFFFFFFFFFFFFFFFFFFFFFFFFFFFFFFFFFFFFFFFFFFFFFFFFFFFFFF DUP3 PUSH2 0x1A3B JUMP JUMPDEST PUSH2 0x1A82 DUP7 DUP4 PUSH2 0x1A3B JUMP JUMPDEST SWAP6 POP DUP1 NOT DUP5 AND SWAP4 POP DUP1 DUP7 AND DUP5 OR SWAP3 POP POP POP SWAP4 SWAP3 POP POP POP JUMP JUMPDEST PUSH1 0x0 DUP2 SWAP1 POP SWAP2 SWAP1 POP JUMP JUMPDEST PUSH1 0x0 PUSH2 0x1ABF PUSH2 0x1ABA PUSH2 0x1AB5 DUP5 PUSH2 0x10B4 JUMP JUMPDEST PUSH2 0x1A9A JUMP JUMPDEST PUSH2 0x10B4 JUMP JUMPDEST SWAP1 POP SWAP2 SWAP1 POP JUMP JUMPDEST PUSH1 0x0 DUP2 SWAP1 POP SWAP2 SWAP1 POP JUMP JUMPDEST PUSH2 0x1AD9 DUP4 PUSH2 0x1AA4 JUMP JUMPDEST PUSH2 0x1AED PUSH2 0x1AE5 DUP3 PUSH2 0x1AC6 JUMP JUMPDEST DUP5 DUP5 SLOAD PUSH2 0x1A48 JUMP JUMPDEST DUP3 SSTORE POP POP POP POP JUMP JUMPDEST PUSH1 0x0 SWAP1 JUMP JUMPDEST PUSH2 0x1B02 PUSH2 0x1AF5 JUMP JUMPDEST PUSH2 0x1B0D DUP2 DUP5 DUP5 PUSH2 0x1AD0 JUMP JUMPDEST POP POP POP JUMP JUMPDEST JUMPDEST DUP2 DUP2 LT ISZERO PUSH2 0x1B31 JUMPI PUSH2 0x1B26 PUSH1 0x0 DUP3 PUSH2 0x1AFA JUMP JUMPDEST PUSH1 0x1 DUP2 ADD SWAP1 POP PUSH2 0x1B13 JUMP JUMPDEST POP POP JUMP JUMPDEST PUSH1 0x1F DUP3 GT ISZERO PUSH2 0x1B76 JUMPI PUSH2 0x1B47 DUP2 PUSH2 0x1A16 JUMP JUMPDEST PUSH2 0x1B50 DUP5 PUSH2 0x1A2B JUMP JUMPDEST DUP2 ADD PUSH1 0x20 DUP6 LT ISZERO PUSH2 0x1B5F JUMPI DUP2 SWAP1 POP JUMPDEST PUSH2 0x1B73 PUSH2 0x1B6B DUP6 PUSH2 0x1A2B JUMP JUMPDEST DUP4 ADD DUP3 PUSH2 0x1B12 JUMP JUMPDEST POP POP JUMPDEST POP POP POP JUMP JUMPDEST PUSH1 0x0 DUP3 DUP3 SHR SWAP1 POP SWAP3 SWAP2 POP POP JUMP JUMPDEST PUSH1 0x0 PUSH2 0x1B99 PUSH1 0x0 NOT DUP5 PUSH1 0x8 MUL PUSH2 0x1B7B JUMP JUMPDEST NOT DUP1 DUP4 AND SWAP2 POP POP SWAP3 SWAP2 POP POP JUMP JUMPDEST PUSH1 0x0 PUSH2 0x1BB2 DUP4 DUP4 PUSH2 0x1B88 JUMP JUMPDEST SWAP2 POP DUP3 PUSH1 0x2 MUL DUP3 OR SWAP1 POP SWAP3 SWAP2 POP POP JUMP JUMPDEST PUSH2 0x1BCB DUP3 PUSH2 0x1158 JUMP JUMPDEST PUSH8 0xFFFFFFFFFFFFFFFF DUP2 GT ISZERO PUSH2 0x1BE4 JUMPI PUSH2 0x1BE3 PUSH2 0x1941 JUMP JUMPDEST JUMPDEST PUSH2 0x1BEE DUP3 SLOAD PUSH2 0x1910 JUMP JUMPDEST PUSH2 0x1BF9 DUP3 DUP3 DUP6 PUSH2 0x1B35 JUMP JUMPDEST PUSH1 0x0 PUSH1 0x20 SWAP1 POP PUSH1 0x1F DUP4 GT PUSH1 0x1 DUP2 EQ PUSH2 0x1C2C JUMPI PUSH1 0x0 DUP5 ISZERO PUSH2 0x1C1A JUMPI DUP3 DUP8 ADD MLOAD SWAP1 POP JUMPDEST PUSH2 0x1C24 DUP6 DUP3 PUSH2 0x1BA6 JUMP JUMPDEST DUP7 SSTORE POP PUSH2 0x1C8C JUMP JUMPDEST PUSH1 0x1F NOT DUP5 AND PUSH2 0x1C3A DUP7 PUSH2 0x1A16 JUMP JUMPDEST PUSH1 0x0 JUMPDEST DUP3 DUP2 LT ISZERO PUSH2 0x1C62 JUMPI DUP5 DUP10 ADD MLOAD DUP3 SSTORE PUSH1 0x1 DUP3 ADD SWAP2 POP PUSH1 0x20 DUP6 ADD SWAP5 POP PUSH1 0x20 DUP2 ADD SWAP1 POP PUSH2 0x1C3D JUMP JUMPDEST DUP7 DUP4 LT ISZERO PUSH2 0x1C7F JUMPI DUP5 DUP10 ADD MLOAD PUSH2 0x1C7B PUSH1 0x1F DUP10 AND DUP3 PUSH2 0x1B88 JUMP JUMPDEST DUP4 SSTORE POP JUMPDEST PUSH1 0x1 PUSH1 0x2 DUP9 MUL ADD DUP9 SSTORE POP POP POP JUMPDEST POP POP POP POP POP POP JUMP JUMPDEST DUP3 DUP2 DUP4 CALLDATACOPY PUSH1 0x0 DUP4 DUP4 ADD MSTORE POP POP POP JUMP JUMPDEST PUSH1 0x0 PUSH2 0x1CAF DUP4 DUP6 PUSH2 0x139C JUMP JUMPDEST SWAP4 POP PUSH2 0x1CBC DUP4 DUP6 DUP5 PUSH2 0x1C94 JUMP JUMPDEST PUSH2 0x1CC5 DUP4 PUSH2 0x119E JUMP JUMPDEST DUP5 ADD SWAP1 POP SWAP4 SWAP3 POP POP POP JUMP JUMPDEST PUSH1 0x0 PUSH1 0xE0 DUP3 ADD SWAP1 POP DUP2 DUP2 SUB PUSH1 0x0 DUP4 ADD MSTORE PUSH2 0x1CEB DUP2 DUP12 DUP14 PUSH2 0x1CA3 JUMP JUMPDEST SWAP1 POP DUP2 DUP2 SUB PUSH1 0x20 DUP4 ADD MSTORE PUSH2 0x1D00 DUP2 DUP10 DUP12 PUSH2 0x1CA3 JUMP JUMPDEST SWAP1 POP PUSH2 0x1D0F PUSH1 0x40 DUP4 ADD DUP9 PUSH2 0x13E6 JUMP JUMPDEST PUSH2 0x1D1C PUSH1 0x60 DUP4 ADD DUP8 PUSH2 0x13E6 JUMP JUMPDEST PUSH2 0x1D29 PUSH1 0x80 DUP4 ADD DUP7 PUSH2 0x13F5 JUMP JUMPDEST PUSH2 0x1D36 PUSH1 0xA0 DUP4 ADD DUP6 PUSH2 0x13F5 JUMP JUMPDEST PUSH2 0x1D43 PUSH1 0xC0 DUP4 ADD DUP5 PUSH2 0x1363 JUMP JUMPDEST SWAP11 SWAP10 POP POP POP POP POP POP POP POP POP POP JUMP JUMPDEST PUSH1 0x0 PUSH2 0x1D5C DUP3 PUSH2 0x11E8 JUMP JUMPDEST SWAP2 POP PUSH2 0x1D67 DUP4 PUSH2 0x11E8 JUMP JUMPDEST SWAP3 POP DUP3 DUP3 SUB SWAP1 POP PUSH16 0xFFFFFFFFFFFFFFFFFFFFFFFFFFFFFFFF DUP2 GT ISZERO PUSH2 0x1D8F JUMPI PUSH2 0x1D8E PUSH2 0x199F JUMP JUMPDEST JUMPDEST SWAP3 SWAP2 POP POP JUMP JUMPDEST PUSH1 0x0 PUSH1 0x20 DUP3 ADD SWAP1 POP PUSH2 0x1DAA PUSH1 0x0 DUP4 ADD DUP5 PUSH2 0x13E6 JUMP JUMPDEST SWAP3 SWAP2 POP POP JUMP INVALID LOG2 PUSH5 0x6970667358 0x22 SLT KECCAK256 0xAB CREATE PUSH25 0xD0D399BEABDE783ED8F85C02C0F2C4F65124E3A599DC73192 0xBD SGT LT SHR PUSH5 0x736F6C6343 STOP ADDMOD SGT STOP CALLER "
				},
				"gasEstimates": {
					"creation": {
						"codeDepositCost": "1530800",
						"executionCost": "23709",
						"totalCost": "1554509"
					},
					"external": {
						"addSupplierProduct(bytes,bytes,uint128,uint128,uint32,uint32)": "infinite",
						"deleteSupplierProduct(uint256)": "infinite",
						"getAllProductsOfSupplier(address)": "infinite",
						"getSingleProduct(uint256)": "infinite",
						"getSupplierProductIds()": "infinite",
						"supplierAddressToproductsIdMapping(address,uint256)": "infinite",
						"supplierProductsIdToStructMapping(uint256)": "infinite",
						"updateSupplierProductUints(uint256,uint128)": "infinite"
					}
				},
				"methodIdentifiers": {
					"addSupplierProduct(bytes,bytes,uint128,uint128,uint32,uint32)": "ee7e7c99",
					"deleteSupplierProduct(uint256)": "79ae0257",
					"getAllProductsOfSupplier(address)": "83f95853",
					"getSingleProduct(uint256)": "2e1f9763",
					"getSupplierProductIds()": "e10f28c7",
					"supplierAddressToproductsIdMapping(address,uint256)": "42af31d7",
					"supplierProductsIdToStructMapping(uint256)": "6c87b826",
					"updateSupplierProductUints(uint256,uint128)": "f8bafa70"
				}
			},
			"storageLayout": {
				"storage": [
					{
						"astId": 82,
						"contract": "contracts/supplierProduct.sol:supplierProduct",
						"label": "spId",
						"offset": 0,
						"slot": "0",
						"type": "t_uint256"
					},
					{
						"astId": 87,
						"contract": "contracts/supplierProduct.sol:supplierProduct",
						"label": "supplierProductsIdToStructMapping",
						"offset": 0,
						"slot": "1",
						"type": "t_mapping(t_uint256,t_struct(supplierProduct)16_storage)"
					},
					{
						"astId": 92,
						"contract": "contracts/supplierProduct.sol:supplierProduct",
						"label": "supplierAddressToproductsIdMapping",
						"offset": 0,
						"slot": "2",
						"type": "t_mapping(t_address,t_array(t_uint256)dyn_storage)"
					}
				],
				"types": {
					"t_address": {
						"encoding": "inplace",
						"label": "address",
						"numberOfBytes": "20"
					},
					"t_array(t_uint256)dyn_storage": {
						"base": "t_uint256",
						"encoding": "dynamic_array",
						"label": "uint256[]",
						"numberOfBytes": "32"
					},
					"t_bytes_storage": {
						"encoding": "bytes",
						"label": "bytes",
						"numberOfBytes": "32"
					},
					"t_mapping(t_address,t_array(t_uint256)dyn_storage)": {
						"encoding": "mapping",
						"key": "t_address",
						"label": "mapping(address => uint256[])",
						"numberOfBytes": "32",
						"value": "t_array(t_uint256)dyn_storage"
					},
					"t_mapping(t_uint256,t_struct(supplierProduct)16_storage)": {
						"encoding": "mapping",
						"key": "t_uint256",
						"label": "mapping(uint256 => struct ISupplierProduct.supplierProduct)",
						"numberOfBytes": "32",
						"value": "t_struct(supplierProduct)16_storage"
					},
					"t_struct(supplierProduct)16_storage": {
						"encoding": "inplace",
						"label": "struct ISupplierProduct.supplierProduct",
						"members": [
							{
								"astId": 3,
								"contract": "contracts/supplierProduct.sol:supplierProduct",
								"label": "supplierAddress",
								"offset": 0,
								"slot": "0",
								"type": "t_address"
							},
							{
								"astId": 5,
								"contract": "contracts/supplierProduct.sol:supplierProduct",
								"label": "sp_name",
								"offset": 0,
								"slot": "1",
								"type": "t_bytes_storage"
							},
							{
								"astId": 7,
								"contract": "contracts/supplierProduct.sol:supplierProduct",
								"label": "sp_description",
								"offset": 0,
								"slot": "2",
								"type": "t_bytes_storage"
							},
							{
								"astId": 9,
								"contract": "contracts/supplierProduct.sol:supplierProduct",
								"label": "sp_unit",
								"offset": 0,
								"slot": "3",
								"type": "t_uint128"
							},
							{
								"astId": 11,
								"contract": "contracts/supplierProduct.sol:supplierProduct",
								"label": "sp_price",
								"offset": 16,
								"slot": "3",
								"type": "t_uint128"
							},
							{
								"astId": 13,
								"contract": "contracts/supplierProduct.sol:supplierProduct",
								"label": "sp_date",
								"offset": 0,
								"slot": "4",
								"type": "t_uint32"
							},
							{
								"astId": 15,
								"contract": "contracts/supplierProduct.sol:supplierProduct",
								"label": "sp_expiryDate",
								"offset": 4,
								"slot": "4",
								"type": "t_uint32"
							}
						],
						"numberOfBytes": "160"
					},
					"t_uint128": {
						"encoding": "inplace",
						"label": "uint128",
						"numberOfBytes": "16"
					},
					"t_uint256": {
						"encoding": "inplace",
						"label": "uint256",
						"numberOfBytes": "32"
					},
					"t_uint32": {
						"encoding": "inplace",
						"label": "uint32",
						"numberOfBytes": "4"
					}
				}
			},
			"userdoc": {
				"kind": "user",
				"methods": {},
				"version": 1
			}
		}
	}
}