{
	"contracts/supplierProduct.sol": {
		"supplierProduct": {
			"abi": [
				{
					"anonymous": false,
					"inputs": [
						{
							"indexed": true,
							"internalType": "uint256",
							"name": "_spid",
							"type": "uint256"
						},
						{
							"indexed": true,
							"internalType": "address",
							"name": "_address",
							"type": "address"
						},
						{
							"indexed": false,
							"internalType": "bytes",
							"name": "_name",
							"type": "bytes"
						},
						{
							"indexed": false,
							"internalType": "bytes",
							"name": "_description",
							"type": "bytes"
						},
						{
							"indexed": false,
							"internalType": "uint128",
							"name": "_unit",
							"type": "uint128"
						},
						{
							"indexed": false,
							"internalType": "uint128",
							"name": "_price",
							"type": "uint128"
						},
						{
							"indexed": false,
							"internalType": "uint32",
							"name": "_date",
							"type": "uint32"
						},
						{
							"indexed": false,
							"internalType": "uint32",
							"name": "_expiryDate",
							"type": "uint32"
						},
						{
							"indexed": false,
							"internalType": "uint256",
							"name": "_timeAdded",
							"type": "uint256"
						}
					],
					"name": "eventAddSupplierProduct",
					"type": "event"
				},
				{
					"anonymous": false,
					"inputs": [
						{
							"indexed": true,
							"internalType": "uint256",
							"name": "_spId",
							"type": "uint256"
						}
					],
					"name": "eventDeleteSupplierProduct",
					"type": "event"
				},
				{
					"anonymous": false,
					"inputs": [
						{
							"indexed": true,
							"internalType": "uint256",
							"name": "_spId",
							"type": "uint256"
						},
						{
							"indexed": false,
							"internalType": "uint128",
							"name": "_quantity",
							"type": "uint128"
						}
					],
					"name": "eventUpdateSupplierProductUints",
					"type": "event"
				},
				{
					"inputs": [
						{
							"internalType": "bytes",
							"name": "_name",
							"type": "bytes"
						},
						{
							"internalType": "bytes",
							"name": "_description",
							"type": "bytes"
						},
						{
							"internalType": "uint128",
							"name": "_unit",
							"type": "uint128"
						},
						{
							"internalType": "uint128",
							"name": "_price",
							"type": "uint128"
						},
						{
							"internalType": "uint32",
							"name": "_date",
							"type": "uint32"
						},
						{
							"internalType": "uint32",
							"name": "_expiryDate",
							"type": "uint32"
						}
					],
					"name": "addSupplierProduct",
					"outputs": [],
					"stateMutability": "nonpayable",
					"type": "function"
				},
				{
					"inputs": [
						{
							"internalType": "uint256",
							"name": "_spId",
							"type": "uint256"
						}
					],
					"name": "deleteSupplierProduct",
					"outputs": [],
					"stateMutability": "nonpayable",
					"type": "function"
				},
				{
					"inputs": [
						{
							"internalType": "address",
							"name": "_supplierAddress",
							"type": "address"
						}
					],
					"name": "getAllActiveProductsOfSupplier",
					"outputs": [
						{
							"components": [
								{
									"internalType": "address",
									"name": "supplierAddress",
									"type": "address"
								},
								{
									"internalType": "bytes",
									"name": "sp_name",
									"type": "bytes"
								},
								{
									"internalType": "bytes",
									"name": "sp_description",
									"type": "bytes"
								},
								{
									"internalType": "uint128",
									"name": "sp_unit",
									"type": "uint128"
								},
								{
									"internalType": "uint128",
									"name": "sp_price",
									"type": "uint128"
								},
								{
									"internalType": "uint32",
									"name": "sp_date",
									"type": "uint32"
								},
								{
									"internalType": "uint32",
									"name": "sp_expiryDate",
									"type": "uint32"
								},
								{
									"internalType": "bool",
									"name": "sp_status",
									"type": "bool"
								}
							],
							"internalType": "struct ISupplierProduct.supplierProduct[]",
							"name": "",
							"type": "tuple[]"
						},
						{
							"internalType": "uint256[]",
							"name": "",
							"type": "uint256[]"
						}
					],
					"stateMutability": "view",
					"type": "function"
				},
				{
					"inputs": [
						{
							"internalType": "address",
							"name": "_supplierAddress",
							"type": "address"
						}
					],
					"name": "getAllProductsOfSupplier",
					"outputs": [
						{
							"components": [
								{
									"internalType": "address",
									"name": "supplierAddress",
									"type": "address"
								},
								{
									"internalType": "bytes",
									"name": "sp_name",
									"type": "bytes"
								},
								{
									"internalType": "bytes",
									"name": "sp_description",
									"type": "bytes"
								},
								{
									"internalType": "uint128",
									"name": "sp_unit",
									"type": "uint128"
								},
								{
									"internalType": "uint128",
									"name": "sp_price",
									"type": "uint128"
								},
								{
									"internalType": "uint32",
									"name": "sp_date",
									"type": "uint32"
								},
								{
									"internalType": "uint32",
									"name": "sp_expiryDate",
									"type": "uint32"
								},
								{
									"internalType": "bool",
									"name": "sp_status",
									"type": "bool"
								}
							],
							"internalType": "struct ISupplierProduct.supplierProduct[]",
							"name": "",
							"type": "tuple[]"
						},
						{
							"internalType": "uint256[]",
							"name": "_productIds",
							"type": "uint256[]"
						}
					],
					"stateMutability": "view",
					"type": "function"
				},
				{
					"inputs": [
						{
							"internalType": "uint256",
							"name": "_spId",
							"type": "uint256"
						}
					],
					"name": "getSingleSupplierProduct",
					"outputs": [
						{
							"components": [
								{
									"internalType": "address",
									"name": "supplierAddress",
									"type": "address"
								},
								{
									"internalType": "bytes",
									"name": "sp_name",
									"type": "bytes"
								},
								{
									"internalType": "bytes",
									"name": "sp_description",
									"type": "bytes"
								},
								{
									"internalType": "uint128",
									"name": "sp_unit",
									"type": "uint128"
								},
								{
									"internalType": "uint128",
									"name": "sp_price",
									"type": "uint128"
								},
								{
									"internalType": "uint32",
									"name": "sp_date",
									"type": "uint32"
								},
								{
									"internalType": "uint32",
									"name": "sp_expiryDate",
									"type": "uint32"
								},
								{
									"internalType": "bool",
									"name": "sp_status",
									"type": "bool"
								}
							],
							"internalType": "struct ISupplierProduct.supplierProduct",
							"name": "",
							"type": "tuple"
						}
					],
					"stateMutability": "view",
					"type": "function"
				},
				{
					"inputs": [],
					"name": "getSupplierProductIds",
					"outputs": [
						{
							"internalType": "uint256[]",
							"name": "",
							"type": "uint256[]"
						}
					],
					"stateMutability": "view",
					"type": "function"
				},
				{
					"inputs": [
						{
							"internalType": "address",
							"name": "",
							"type": "address"
						},
						{
							"internalType": "uint256",
							"name": "",
							"type": "uint256"
						}
					],
					"name": "supplierAddressToproductsIdMapping",
					"outputs": [
						{
							"internalType": "uint256",
							"name": "",
							"type": "uint256"
						}
					],
					"stateMutability": "view",
					"type": "function"
				},
				{
					"inputs": [
						{
							"internalType": "uint256",
							"name": "",
							"type": "uint256"
						}
					],
					"name": "supplierProductsIdToStructMapping",
					"outputs": [
						{
							"internalType": "address",
							"name": "supplierAddress",
							"type": "address"
						},
						{
							"internalType": "bytes",
							"name": "sp_name",
							"type": "bytes"
						},
						{
							"internalType": "bytes",
							"name": "sp_description",
							"type": "bytes"
						},
						{
							"internalType": "uint128",
							"name": "sp_unit",
							"type": "uint128"
						},
						{
							"internalType": "uint128",
							"name": "sp_price",
							"type": "uint128"
						},
						{
							"internalType": "uint32",
							"name": "sp_date",
							"type": "uint32"
						},
						{
							"internalType": "uint32",
							"name": "sp_expiryDate",
							"type": "uint32"
						},
						{
							"internalType": "bool",
							"name": "sp_status",
							"type": "bool"
						}
					],
					"stateMutability": "view",
					"type": "function"
				},
				{
					"inputs": [
						{
							"internalType": "uint256",
							"name": "_spId",
							"type": "uint256"
						},
						{
							"internalType": "uint128",
							"name": "_quantity",
							"type": "uint128"
						}
					],
					"name": "updateSupplierProductUints",
					"outputs": [],
					"stateMutability": "nonpayable",
					"type": "function"
				}
			],
			"devdoc": {
				"author": "ProvyLens team",
				"kind": "dev",
				"methods": {},
				"title": "The contract for handling supplier' product",
				"version": 1
			},
			"evm": {
				"assembly": "    /* \"contracts/supplierProduct.sol\":250:4457  contract supplierProduct is ISupplierProduct{\r... */\n  mstore(0x40, 0x80)\n    /* \"contracts/supplierProduct.sol\":370:371  1 */\n  0x01\n    /* \"contracts/supplierProduct.sol\":358:371  uint spId = 1 */\n  0x00\n  sstore\n    /* \"contracts/supplierProduct.sol\":250:4457  contract supplierProduct is ISupplierProduct{\r... */\n  callvalue\n  dup1\n  iszero\n  tag_1\n  jumpi\n  0x00\n  dup1\n  revert\ntag_1:\n  pop\n  dataSize(sub_0)\n  dup1\n  dataOffset(sub_0)\n  0x00\n  codecopy\n  0x00\n  return\nstop\n\nsub_0: assembly {\n        /* \"contracts/supplierProduct.sol\":250:4457  contract supplierProduct is ISupplierProduct{\r... */\n      mstore(0x40, 0x80)\n      callvalue\n      dup1\n      iszero\n      tag_1\n      jumpi\n      0x00\n      dup1\n      revert\n    tag_1:\n      pop\n      jumpi(tag_2, lt(calldatasize, 0x04))\n      shr(0xe0, calldataload(0x00))\n      dup1\n      0x83f95853\n      gt\n      tag_12\n      jumpi\n      dup1\n      0x83f95853\n      eq\n      tag_7\n      jumpi\n      dup1\n      0xc22ef68e\n      eq\n      tag_8\n      jumpi\n      dup1\n      0xe10f28c7\n      eq\n      tag_9\n      jumpi\n      dup1\n      0xee7e7c99\n      eq\n      tag_10\n      jumpi\n      dup1\n      0xf8bafa70\n      eq\n      tag_11\n      jumpi\n      jump(tag_2)\n    tag_12:\n      dup1\n      0x2777259b\n      eq\n      tag_3\n      jumpi\n      dup1\n      0x42af31d7\n      eq\n      tag_4\n      jumpi\n      dup1\n      0x6c87b826\n      eq\n      tag_5\n      jumpi\n      dup1\n      0x79ae0257\n      eq\n      tag_6\n      jumpi\n    tag_2:\n      0x00\n      dup1\n      revert\n        /* \"contracts/supplierProduct.sol\":3138:4177  function getAllActiveProductsOfSupplier(address _supplierAddress) public view returns (supplierProduct[] memory, uint[] memory)\r... */\n    tag_3:\n      tag_13\n      0x04\n      dup1\n      calldatasize\n      sub\n      dup2\n      add\n      swap1\n      tag_14\n      swap2\n      swap1\n      tag_15\n      jump\t// in\n    tag_14:\n      tag_16\n      jump\t// in\n    tag_13:\n      mload(0x40)\n      tag_17\n      swap3\n      swap2\n      swap1\n      tag_18\n      jump\t// in\n    tag_17:\n      mload(0x40)\n      dup1\n      swap2\n      sub\n      swap1\n      return\n        /* \"contracts/supplierProduct.sol\":598:666  mapping(address => uint[]) public supplierAddressToproductsIdMapping */\n    tag_4:\n      tag_19\n      0x04\n      dup1\n      calldatasize\n      sub\n      dup2\n      add\n      swap1\n      tag_20\n      swap2\n      swap1\n      tag_21\n      jump\t// in\n    tag_20:\n      tag_22\n      jump\t// in\n    tag_19:\n      mload(0x40)\n      tag_23\n      swap2\n      swap1\n      tag_24\n      jump\t// in\n    tag_23:\n      mload(0x40)\n      dup1\n      swap2\n      sub\n      swap1\n      return\n        /* \"contracts/supplierProduct.sol\":447:520  mapping(uint => supplierProduct) public supplierProductsIdToStructMapping */\n    tag_5:\n      tag_25\n      0x04\n      dup1\n      calldatasize\n      sub\n      dup2\n      add\n      swap1\n      tag_26\n      swap2\n      swap1\n      tag_27\n      jump\t// in\n    tag_26:\n      tag_28\n      jump\t// in\n    tag_25:\n      mload(0x40)\n      tag_29\n      swap9\n      swap8\n      swap7\n      swap6\n      swap5\n      swap4\n      swap3\n      swap2\n      swap1\n      tag_30\n      jump\t// in\n    tag_29:\n      mload(0x40)\n      dup1\n      swap2\n      sub\n      swap1\n      return\n        /* \"contracts/supplierProduct.sol\":4272:4454  function deleteSupplierProduct(uint _spId)public override {\r... */\n    tag_6:\n      tag_31\n      0x04\n      dup1\n      calldatasize\n      sub\n      dup2\n      add\n      swap1\n      tag_32\n      swap2\n      swap1\n      tag_27\n      jump\t// in\n    tag_32:\n      tag_33\n      jump\t// in\n    tag_31:\n      stop\n        /* \"contracts/supplierProduct.sol\":2506:3015  function getAllProductsOfSupplier(address _supplierAddress) public view returns(supplierProduct[] memory, uint[] memory _productIds)\r... */\n    tag_7:\n      tag_34\n      0x04\n      dup1\n      calldatasize\n      sub\n      dup2\n      add\n      swap1\n      tag_35\n      swap2\n      swap1\n      tag_15\n      jump\t// in\n    tag_35:\n      tag_36\n      jump\t// in\n    tag_34:\n      mload(0x40)\n      tag_37\n      swap3\n      swap2\n      swap1\n      tag_18\n      jump\t// in\n    tag_37:\n      mload(0x40)\n      dup1\n      swap2\n      sub\n      swap1\n      return\n        /* \"contracts/supplierProduct.sol\":2256:2411  function getSingleSupplierProduct(uint _spId) public view returns(supplierProduct memory){\r... */\n    tag_8:\n      tag_38\n      0x04\n      dup1\n      calldatasize\n      sub\n      dup2\n      add\n      swap1\n      tag_39\n      swap2\n      swap1\n      tag_27\n      jump\t// in\n    tag_39:\n      tag_40\n      jump\t// in\n    tag_38:\n      mload(0x40)\n      tag_41\n      swap2\n      swap1\n      tag_42\n      jump\t// in\n    tag_41:\n      mload(0x40)\n      dup1\n      swap2\n      sub\n      swap1\n      return\n        /* \"contracts/supplierProduct.sol\":2048:2187  function getSupplierProductIds() public view returns(uint[] memory){\r... */\n    tag_9:\n      tag_43\n      tag_44\n      jump\t// in\n    tag_43:\n      mload(0x40)\n      tag_45\n      swap2\n      swap1\n      tag_46\n      jump\t// in\n    tag_45:\n      mload(0x40)\n      dup1\n      swap2\n      sub\n      swap1\n      return\n        /* \"contracts/supplierProduct.sol\":1143:1648  function addSupplierProduct(bytes calldata _name,bytes calldata _description,uint128 _unit,uint128 _price,uint32 _date,uint32 _expiryDate)public override  {\r... */\n    tag_10:\n      tag_47\n      0x04\n      dup1\n      calldatasize\n      sub\n      dup2\n      add\n      swap1\n      tag_48\n      swap2\n      swap1\n      tag_49\n      jump\t// in\n    tag_48:\n      tag_50\n      jump\t// in\n    tag_47:\n      stop\n        /* \"contracts/supplierProduct.sol\":1715:1983  function updateSupplierProductUints(uint _spId, uint128 _quantity) public override{\r... */\n    tag_11:\n      tag_51\n      0x04\n      dup1\n      calldatasize\n      sub\n      dup2\n      add\n      swap1\n      tag_52\n      swap2\n      swap1\n      tag_53\n      jump\t// in\n    tag_52:\n      tag_54\n      jump\t// in\n    tag_51:\n      stop\n        /* \"contracts/supplierProduct.sol\":3138:4177  function getAllActiveProductsOfSupplier(address _supplierAddress) public view returns (supplierProduct[] memory, uint[] memory)\r... */\n    tag_16:\n        /* \"contracts/supplierProduct.sol\":3225:3249  supplierProduct[] memory */\n      0x60\n        /* \"contracts/supplierProduct.sol\":3251:3264  uint[] memory */\n      dup1\n        /* \"contracts/supplierProduct.sol\":3282:3306  uint[] memory productIds */\n      0x00\n        /* \"contracts/supplierProduct.sol\":3309:3343  supplierAddressToproductsIdMapping */\n      0x02\n        /* \"contracts/supplierProduct.sol\":3309:3361  supplierAddressToproductsIdMapping[_supplierAddress] */\n      0x00\n        /* \"contracts/supplierProduct.sol\":3344:3360  _supplierAddress */\n      dup6\n        /* \"contracts/supplierProduct.sol\":3309:3361  supplierAddressToproductsIdMapping[_supplierAddress] */\n      0xffffffffffffffffffffffffffffffffffffffff\n      and\n      0xffffffffffffffffffffffffffffffffffffffff\n      and\n      dup2\n      mstore\n      0x20\n      add\n      swap1\n      dup2\n      mstore\n      0x20\n      add\n      0x00\n      keccak256\n        /* \"contracts/supplierProduct.sol\":3282:3361  uint[] memory productIds = supplierAddressToproductsIdMapping[_supplierAddress] */\n      dup1\n      sload\n      dup1\n      0x20\n      mul\n      0x20\n      add\n      mload(0x40)\n      swap1\n      dup2\n      add\n      0x40\n      mstore\n      dup1\n      swap3\n      swap2\n      swap1\n      dup2\n      dup2\n      mstore\n      0x20\n      add\n      dup3\n      dup1\n      sload\n      dup1\n      iszero\n      tag_56\n      jumpi\n      0x20\n      mul\n      dup3\n      add\n      swap2\n      swap1\n      0x00\n      mstore\n      keccak256(0x00, 0x20)\n      swap1\n    tag_57:\n      dup2\n      sload\n      dup2\n      mstore\n      0x20\n      add\n      swap1\n      0x01\n      add\n      swap1\n      dup1\n      dup4\n      gt\n      tag_57\n      jumpi\n    tag_56:\n      pop\n      pop\n      pop\n      pop\n      pop\n      swap1\n      pop\n        /* \"contracts/supplierProduct.sol\":3372:3403  uint[] memory activeProductsIds */\n      0x00\n        /* \"contracts/supplierProduct.sol\":3417:3427  productIds */\n      dup2\n        /* \"contracts/supplierProduct.sol\":3417:3434  productIds.length */\n      mload\n        /* \"contracts/supplierProduct.sol\":3406:3435  new uint[](productIds.length) */\n      0xffffffffffffffff\n      dup2\n      gt\n      iszero\n      tag_58\n      jumpi\n      tag_59\n      tag_60\n      jump\t// in\n    tag_59:\n    tag_58:\n      mload(0x40)\n      swap1\n      dup1\n      dup3\n      mstore\n      dup1\n      0x20\n      mul\n      0x20\n      add\n      dup3\n      add\n      0x40\n      mstore\n      dup1\n      iszero\n      tag_61\n      jumpi\n      dup2\n      0x20\n      add\n      0x20\n      dup3\n      mul\n      dup1\n      calldatasize\n      dup4\n      calldatacopy\n      dup1\n      dup3\n      add\n      swap2\n      pop\n      pop\n      swap1\n      pop\n    tag_61:\n      pop\n        /* \"contracts/supplierProduct.sol\":3372:3435  uint[] memory activeProductsIds = new uint[](productIds.length) */\n      swap1\n      pop\n        /* \"contracts/supplierProduct.sol\":3446:3487  supplierProduct[] memory supplierProducts */\n      0x00\n        /* \"contracts/supplierProduct.sol\":3512:3522  productIds */\n      dup3\n        /* \"contracts/supplierProduct.sol\":3512:3529  productIds.length */\n      mload\n        /* \"contracts/supplierProduct.sol\":3490:3530  new supplierProduct[](productIds.length) */\n      0xffffffffffffffff\n      dup2\n      gt\n      iszero\n      tag_62\n      jumpi\n      tag_63\n      tag_60\n      jump\t// in\n    tag_63:\n    tag_62:\n      mload(0x40)\n      swap1\n      dup1\n      dup3\n      mstore\n      dup1\n      0x20\n      mul\n      0x20\n      add\n      dup3\n      add\n      0x40\n      mstore\n      dup1\n      iszero\n      tag_64\n      jumpi\n      dup2\n      0x20\n      add\n    tag_65:\n      tag_66\n      tag_67\n      jump\t// in\n    tag_66:\n      dup2\n      mstore\n      0x20\n      add\n      swap1\n      0x01\n      swap1\n      sub\n      swap1\n      dup2\n      tag_65\n      jumpi\n      swap1\n      pop\n    tag_64:\n      pop\n        /* \"contracts/supplierProduct.sol\":3446:3530  supplierProduct[] memory supplierProducts = new supplierProduct[](productIds.length) */\n      swap1\n      pop\n        /* \"contracts/supplierProduct.sol\":3541:3557  uint activeCount */\n      0x00\n        /* \"contracts/supplierProduct.sol\":3577:3583  uint i */\n      dup1\n        /* \"contracts/supplierProduct.sol\":3572:3952  for (uint i = 0; i < productIds.length; i++) {\r... */\n    tag_68:\n        /* \"contracts/supplierProduct.sol\":3593:3603  productIds */\n      dup5\n        /* \"contracts/supplierProduct.sol\":3593:3610  productIds.length */\n      mload\n        /* \"contracts/supplierProduct.sol\":3589:3590  i */\n      dup2\n        /* \"contracts/supplierProduct.sol\":3589:3610  i < productIds.length */\n      lt\n        /* \"contracts/supplierProduct.sol\":3572:3952  for (uint i = 0; i < productIds.length; i++) {\r... */\n      iszero\n      tag_69\n      jumpi\n        /* \"contracts/supplierProduct.sol\":3632:3646  uint productId */\n      0x00\n        /* \"contracts/supplierProduct.sol\":3649:3659  productIds */\n      dup6\n        /* \"contracts/supplierProduct.sol\":3660:3661  i */\n      dup3\n        /* \"contracts/supplierProduct.sol\":3649:3662  productIds[i] */\n      dup2\n      mload\n      dup2\n      lt\n      tag_71\n      jumpi\n      tag_72\n      tag_73\n      jump\t// in\n    tag_72:\n    tag_71:\n      0x20\n      mul\n      0x20\n      add\n      add\n      mload\n        /* \"contracts/supplierProduct.sol\":3632:3662  uint productId = productIds[i] */\n      swap1\n      pop\n        /* \"contracts/supplierProduct.sol\":3681:3714  supplierProductsIdToStructMapping */\n      0x01\n        /* \"contracts/supplierProduct.sol\":3681:3725  supplierProductsIdToStructMapping[productId] */\n      0x00\n        /* \"contracts/supplierProduct.sol\":3715:3724  productId */\n      dup3\n        /* \"contracts/supplierProduct.sol\":3681:3725  supplierProductsIdToStructMapping[productId] */\n      dup2\n      mstore\n      0x20\n      add\n      swap1\n      dup2\n      mstore\n      0x20\n      add\n      0x00\n      keccak256\n        /* \"contracts/supplierProduct.sol\":3681:3735  supplierProductsIdToStructMapping[productId].sp_status */\n      0x04\n      add\n      0x08\n      swap1\n      sload\n      swap1\n      0x0100\n      exp\n      swap1\n      div\n      0xff\n      and\n        /* \"contracts/supplierProduct.sol\":3677:3941  if (supplierProductsIdToStructMapping[productId].sp_status) {\r... */\n      iszero\n      tag_74\n      jumpi\n        /* \"contracts/supplierProduct.sol\":3788:3821  supplierProductsIdToStructMapping */\n      0x01\n        /* \"contracts/supplierProduct.sol\":3788:3832  supplierProductsIdToStructMapping[productId] */\n      0x00\n        /* \"contracts/supplierProduct.sol\":3822:3831  productId */\n      dup3\n        /* \"contracts/supplierProduct.sol\":3788:3832  supplierProductsIdToStructMapping[productId] */\n      dup2\n      mstore\n      0x20\n      add\n      swap1\n      dup2\n      mstore\n      0x20\n      add\n      0x00\n      keccak256\n        /* \"contracts/supplierProduct.sol\":3756:3832  supplierProducts[activeCount] = supplierProductsIdToStructMapping[productId] */\n      mload(0x40)\n      dup1\n      0x0100\n      add\n      0x40\n      mstore\n      swap1\n      dup2\n      0x00\n      dup3\n      add\n      0x00\n      swap1\n      sload\n      swap1\n      0x0100\n      exp\n      swap1\n      div\n      0xffffffffffffffffffffffffffffffffffffffff\n      and\n      0xffffffffffffffffffffffffffffffffffffffff\n      and\n      0xffffffffffffffffffffffffffffffffffffffff\n      and\n      dup2\n      mstore\n      0x20\n      add\n      0x01\n      dup3\n      add\n      dup1\n      sload\n      tag_75\n      swap1\n      tag_76\n      jump\t// in\n    tag_75:\n      dup1\n      0x1f\n      add\n      0x20\n      dup1\n      swap2\n      div\n      mul\n      0x20\n      add\n      mload(0x40)\n      swap1\n      dup2\n      add\n      0x40\n      mstore\n      dup1\n      swap3\n      swap2\n      swap1\n      dup2\n      dup2\n      mstore\n      0x20\n      add\n      dup3\n      dup1\n      sload\n      tag_77\n      swap1\n      tag_76\n      jump\t// in\n    tag_77:\n      dup1\n      iszero\n      tag_78\n      jumpi\n      dup1\n      0x1f\n      lt\n      tag_79\n      jumpi\n      0x0100\n      dup1\n      dup4\n      sload\n      div\n      mul\n      dup4\n      mstore\n      swap2\n      0x20\n      add\n      swap2\n      jump(tag_78)\n    tag_79:\n      dup3\n      add\n      swap2\n      swap1\n      0x00\n      mstore\n      keccak256(0x00, 0x20)\n      swap1\n    tag_80:\n      dup2\n      sload\n      dup2\n      mstore\n      swap1\n      0x01\n      add\n      swap1\n      0x20\n      add\n      dup1\n      dup4\n      gt\n      tag_80\n      jumpi\n      dup3\n      swap1\n      sub\n      0x1f\n      and\n      dup3\n      add\n      swap2\n    tag_78:\n      pop\n      pop\n      pop\n      pop\n      pop\n      dup2\n      mstore\n      0x20\n      add\n      0x02\n      dup3\n      add\n      dup1\n      sload\n      tag_81\n      swap1\n      tag_76\n      jump\t// in\n    tag_81:\n      dup1\n      0x1f\n      add\n      0x20\n      dup1\n      swap2\n      div\n      mul\n      0x20\n      add\n      mload(0x40)\n      swap1\n      dup2\n      add\n      0x40\n      mstore\n      dup1\n      swap3\n      swap2\n      swap1\n      dup2\n      dup2\n      mstore\n      0x20\n      add\n      dup3\n      dup1\n      sload\n      tag_82\n      swap1\n      tag_76\n      jump\t// in\n    tag_82:\n      dup1\n      iszero\n      tag_83\n      jumpi\n      dup1\n      0x1f\n      lt\n      tag_84\n      jumpi\n      0x0100\n      dup1\n      dup4\n      sload\n      div\n      mul\n      dup4\n      mstore\n      swap2\n      0x20\n      add\n      swap2\n      jump(tag_83)\n    tag_84:\n      dup3\n      add\n      swap2\n      swap1\n      0x00\n      mstore\n      keccak256(0x00, 0x20)\n      swap1\n    tag_85:\n      dup2\n      sload\n      dup2\n      mstore\n      swap1\n      0x01\n      add\n      swap1\n      0x20\n      add\n      dup1\n      dup4\n      gt\n      tag_85\n      jumpi\n      dup3\n      swap1\n      sub\n      0x1f\n      and\n      dup3\n      add\n      swap2\n    tag_83:\n      pop\n      pop\n      pop\n      pop\n      pop\n      dup2\n      mstore\n      0x20\n      add\n      0x03\n      dup3\n      add\n      0x00\n      swap1\n      sload\n      swap1\n      0x0100\n      exp\n      swap1\n      div\n      0xffffffffffffffffffffffffffffffff\n      and\n      0xffffffffffffffffffffffffffffffff\n      and\n      0xffffffffffffffffffffffffffffffff\n      and\n      dup2\n      mstore\n      0x20\n      add\n      0x03\n      dup3\n      add\n      0x10\n      swap1\n      sload\n      swap1\n      0x0100\n      exp\n      swap1\n      div\n      0xffffffffffffffffffffffffffffffff\n      and\n      0xffffffffffffffffffffffffffffffff\n      and\n      0xffffffffffffffffffffffffffffffff\n      and\n      dup2\n      mstore\n      0x20\n      add\n      0x04\n      dup3\n      add\n      0x00\n      swap1\n      sload\n      swap1\n      0x0100\n      exp\n      swap1\n      div\n      0xffffffff\n      and\n      0xffffffff\n      and\n      0xffffffff\n      and\n      dup2\n      mstore\n      0x20\n      add\n      0x04\n      dup3\n      add\n      0x04\n      swap1\n      sload\n      swap1\n      0x0100\n      exp\n      swap1\n      div\n      0xffffffff\n      and\n      0xffffffff\n      and\n      0xffffffff\n      and\n      dup2\n      mstore\n      0x20\n      add\n      0x04\n      dup3\n      add\n      0x08\n      swap1\n      sload\n      swap1\n      0x0100\n      exp\n      swap1\n      div\n      0xff\n      and\n      iszero\n      iszero\n      iszero\n      iszero\n      dup2\n      mstore\n      pop\n      pop\n        /* \"contracts/supplierProduct.sol\":3756:3772  supplierProducts */\n      dup5\n        /* \"contracts/supplierProduct.sol\":3773:3784  activeCount */\n      dup5\n        /* \"contracts/supplierProduct.sol\":3756:3785  supplierProducts[activeCount] */\n      dup2\n      mload\n      dup2\n      lt\n      tag_86\n      jumpi\n      tag_87\n      tag_73\n      jump\t// in\n    tag_87:\n    tag_86:\n      0x20\n      mul\n      0x20\n      add\n      add\n        /* \"contracts/supplierProduct.sol\":3756:3832  supplierProducts[activeCount] = supplierProductsIdToStructMapping[productId] */\n      dup2\n      swap1\n      mstore\n      pop\n        /* \"contracts/supplierProduct.sol\":3884:3893  productId */\n      dup1\n        /* \"contracts/supplierProduct.sol\":3851:3868  activeProductsIds */\n      dup6\n        /* \"contracts/supplierProduct.sol\":3869:3880  activeCount */\n      dup5\n        /* \"contracts/supplierProduct.sol\":3851:3881  activeProductsIds[activeCount] */\n      dup2\n      mload\n      dup2\n      lt\n      tag_88\n      jumpi\n      tag_89\n      tag_73\n      jump\t// in\n    tag_89:\n    tag_88:\n      0x20\n      mul\n      0x20\n      add\n      add\n        /* \"contracts/supplierProduct.sol\":3851:3893  activeProductsIds[activeCount] = productId */\n      dup2\n      dup2\n      mstore\n      pop\n      pop\n        /* \"contracts/supplierProduct.sol\":3912:3925  activeCount++ */\n      dup3\n      dup1\n      tag_90\n      swap1\n      tag_91\n      jump\t// in\n    tag_90:\n      swap4\n      pop\n      pop\n        /* \"contracts/supplierProduct.sol\":3677:3941  if (supplierProductsIdToStructMapping[productId].sp_status) {\r... */\n    tag_74:\n        /* \"contracts/supplierProduct.sol\":3617:3952  {\r... */\n      pop\n        /* \"contracts/supplierProduct.sol\":3612:3615  i++ */\n      dup1\n      dup1\n      tag_92\n      swap1\n      tag_91\n      jump\t// in\n    tag_92:\n      swap2\n      pop\n      pop\n        /* \"contracts/supplierProduct.sol\":3572:3952  for (uint i = 0; i < productIds.length; i++) {\r... */\n      jump(tag_68)\n    tag_69:\n      pop\n        /* \"contracts/supplierProduct.sol\":3962:3985  uint[] memory activeIds */\n      0x00\n        /* \"contracts/supplierProduct.sol\":3999:4010  activeCount */\n      dup2\n        /* \"contracts/supplierProduct.sol\":3988:4011  new uint[](activeCount) */\n      0xffffffffffffffff\n      dup2\n      gt\n      iszero\n      tag_93\n      jumpi\n      tag_94\n      tag_60\n      jump\t// in\n    tag_94:\n    tag_93:\n      mload(0x40)\n      swap1\n      dup1\n      dup3\n      mstore\n      dup1\n      0x20\n      mul\n      0x20\n      add\n      dup3\n      add\n      0x40\n      mstore\n      dup1\n      iszero\n      tag_95\n      jumpi\n      dup2\n      0x20\n      add\n      0x20\n      dup3\n      mul\n      dup1\n      calldatasize\n      dup4\n      calldatacopy\n      dup1\n      dup3\n      add\n      swap2\n      pop\n      pop\n      swap1\n      pop\n    tag_95:\n      pop\n        /* \"contracts/supplierProduct.sol\":3962:4011  uint[] memory activeIds = new uint[](activeCount) */\n      swap1\n      pop\n        /* \"contracts/supplierProduct.sol\":4027:4033  uint i */\n      0x00\n        /* \"contracts/supplierProduct.sol\":4022:4123  for (uint i = 0; i < activeCount; i++) {\r... */\n    tag_96:\n        /* \"contracts/supplierProduct.sol\":4043:4054  activeCount */\n      dup3\n        /* \"contracts/supplierProduct.sol\":4039:4040  i */\n      dup2\n        /* \"contracts/supplierProduct.sol\":4039:4054  i < activeCount */\n      lt\n        /* \"contracts/supplierProduct.sol\":4022:4123  for (uint i = 0; i < activeCount; i++) {\r... */\n      iszero\n      tag_97\n      jumpi\n        /* \"contracts/supplierProduct.sol\":4091:4108  activeProductsIds */\n      dup5\n        /* \"contracts/supplierProduct.sol\":4109:4110  i */\n      dup2\n        /* \"contracts/supplierProduct.sol\":4091:4111  activeProductsIds[i] */\n      dup2\n      mload\n      dup2\n      lt\n      tag_99\n      jumpi\n      tag_100\n      tag_73\n      jump\t// in\n    tag_100:\n    tag_99:\n      0x20\n      mul\n      0x20\n      add\n      add\n      mload\n        /* \"contracts/supplierProduct.sol\":4076:4085  activeIds */\n      dup3\n        /* \"contracts/supplierProduct.sol\":4086:4087  i */\n      dup3\n        /* \"contracts/supplierProduct.sol\":4076:4088  activeIds[i] */\n      dup2\n      mload\n      dup2\n      lt\n      tag_101\n      jumpi\n      tag_102\n      tag_73\n      jump\t// in\n    tag_102:\n    tag_101:\n      0x20\n      mul\n      0x20\n      add\n      add\n        /* \"contracts/supplierProduct.sol\":4076:4111  activeIds[i] = activeProductsIds[i] */\n      dup2\n      dup2\n      mstore\n      pop\n      pop\n        /* \"contracts/supplierProduct.sol\":4056:4059  i++ */\n      dup1\n      dup1\n      tag_103\n      swap1\n      tag_91\n      jump\t// in\n    tag_103:\n      swap2\n      pop\n      pop\n        /* \"contracts/supplierProduct.sol\":4022:4123  for (uint i = 0; i < activeCount; i++) {\r... */\n      jump(tag_96)\n    tag_97:\n      pop\n        /* \"contracts/supplierProduct.sol\":4141:4157  supplierProducts */\n      dup3\n        /* \"contracts/supplierProduct.sol\":4159:4168  activeIds */\n      dup2\n        /* \"contracts/supplierProduct.sol\":4133:4169  return (supplierProducts, activeIds) */\n      swap7\n      pop\n      swap7\n      pop\n      pop\n      pop\n      pop\n      pop\n      pop\n        /* \"contracts/supplierProduct.sol\":3138:4177  function getAllActiveProductsOfSupplier(address _supplierAddress) public view returns (supplierProduct[] memory, uint[] memory)\r... */\n      swap2\n      pop\n      swap2\n      jump\t// out\n        /* \"contracts/supplierProduct.sol\":598:666  mapping(address => uint[]) public supplierAddressToproductsIdMapping */\n    tag_22:\n      mstore(0x20, 0x02)\n      dup2\n      0x00\n      mstore\n      keccak256(0x00, 0x40)\n      dup2\n      dup2\n      sload\n      dup2\n      lt\n      tag_104\n      jumpi\n      0x00\n      dup1\n      revert\n    tag_104:\n      swap1\n      0x00\n      mstore\n      keccak256(0x00, 0x20)\n      add\n      0x00\n      swap2\n      pop\n      swap2\n      pop\n      pop\n      sload\n      dup2\n      jump\t// out\n        /* \"contracts/supplierProduct.sol\":447:520  mapping(uint => supplierProduct) public supplierProductsIdToStructMapping */\n    tag_28:\n      mstore(0x20, 0x01)\n      dup1\n      0x00\n      mstore\n      keccak256(0x00, 0x40)\n      0x00\n      swap2\n      pop\n      swap1\n      pop\n      dup1\n      0x00\n      add\n      0x00\n      swap1\n      sload\n      swap1\n      0x0100\n      exp\n      swap1\n      div\n      0xffffffffffffffffffffffffffffffffffffffff\n      and\n      swap1\n      dup1\n      0x01\n      add\n      dup1\n      sload\n      tag_106\n      swap1\n      tag_76\n      jump\t// in\n    tag_106:\n      dup1\n      0x1f\n      add\n      0x20\n      dup1\n      swap2\n      div\n      mul\n      0x20\n      add\n      mload(0x40)\n      swap1\n      dup2\n      add\n      0x40\n      mstore\n      dup1\n      swap3\n      swap2\n      swap1\n      dup2\n      dup2\n      mstore\n      0x20\n      add\n      dup3\n      dup1\n      sload\n      tag_107\n      swap1\n      tag_76\n      jump\t// in\n    tag_107:\n      dup1\n      iszero\n      tag_108\n      jumpi\n      dup1\n      0x1f\n      lt\n      tag_109\n      jumpi\n      0x0100\n      dup1\n      dup4\n      sload\n      div\n      mul\n      dup4\n      mstore\n      swap2\n      0x20\n      add\n      swap2\n      jump(tag_108)\n    tag_109:\n      dup3\n      add\n      swap2\n      swap1\n      0x00\n      mstore\n      keccak256(0x00, 0x20)\n      swap1\n    tag_110:\n      dup2\n      sload\n      dup2\n      mstore\n      swap1\n      0x01\n      add\n      swap1\n      0x20\n      add\n      dup1\n      dup4\n      gt\n      tag_110\n      jumpi\n      dup3\n      swap1\n      sub\n      0x1f\n      and\n      dup3\n      add\n      swap2\n    tag_108:\n      pop\n      pop\n      pop\n      pop\n      pop\n      swap1\n      dup1\n      0x02\n      add\n      dup1\n      sload\n      tag_111\n      swap1\n      tag_76\n      jump\t// in\n    tag_111:\n      dup1\n      0x1f\n      add\n      0x20\n      dup1\n      swap2\n      div\n      mul\n      0x20\n      add\n      mload(0x40)\n      swap1\n      dup2\n      add\n      0x40\n      mstore\n      dup1\n      swap3\n      swap2\n      swap1\n      dup2\n      dup2\n      mstore\n      0x20\n      add\n      dup3\n      dup1\n      sload\n      tag_112\n      swap1\n      tag_76\n      jump\t// in\n    tag_112:\n      dup1\n      iszero\n      tag_113\n      jumpi\n      dup1\n      0x1f\n      lt\n      tag_114\n      jumpi\n      0x0100\n      dup1\n      dup4\n      sload\n      div\n      mul\n      dup4\n      mstore\n      swap2\n      0x20\n      add\n      swap2\n      jump(tag_113)\n    tag_114:\n      dup3\n      add\n      swap2\n      swap1\n      0x00\n      mstore\n      keccak256(0x00, 0x20)\n      swap1\n    tag_115:\n      dup2\n      sload\n      dup2\n      mstore\n      swap1\n      0x01\n      add\n      swap1\n      0x20\n      add\n      dup1\n      dup4\n      gt\n      tag_115\n      jumpi\n      dup3\n      swap1\n      sub\n      0x1f\n      and\n      dup3\n      add\n      swap2\n    tag_113:\n      pop\n      pop\n      pop\n      pop\n      pop\n      swap1\n      dup1\n      0x03\n      add\n      0x00\n      swap1\n      sload\n      swap1\n      0x0100\n      exp\n      swap1\n      div\n      0xffffffffffffffffffffffffffffffff\n      and\n      swap1\n      dup1\n      0x03\n      add\n      0x10\n      swap1\n      sload\n      swap1\n      0x0100\n      exp\n      swap1\n      div\n      0xffffffffffffffffffffffffffffffff\n      and\n      swap1\n      dup1\n      0x04\n      add\n      0x00\n      swap1\n      sload\n      swap1\n      0x0100\n      exp\n      swap1\n      div\n      0xffffffff\n      and\n      swap1\n      dup1\n      0x04\n      add\n      0x04\n      swap1\n      sload\n      swap1\n      0x0100\n      exp\n      swap1\n      div\n      0xffffffff\n      and\n      swap1\n      dup1\n      0x04\n      add\n      0x08\n      swap1\n      sload\n      swap1\n      0x0100\n      exp\n      swap1\n      div\n      0xff\n      and\n      swap1\n      pop\n      dup9\n      jump\t// out\n        /* \"contracts/supplierProduct.sol\":4272:4454  function deleteSupplierProduct(uint _spId)public override {\r... */\n    tag_33:\n        /* \"contracts/supplierProduct.sol\":4392:4397  false */\n      0x00\n        /* \"contracts/supplierProduct.sol\":4341:4374  supplierProductsIdToStructMapping */\n      0x01\n        /* \"contracts/supplierProduct.sol\":4341:4381  supplierProductsIdToStructMapping[_spId] */\n      0x00\n        /* \"contracts/supplierProduct.sol\":4375:4380  _spId */\n      dup4\n        /* \"contracts/supplierProduct.sol\":4341:4381  supplierProductsIdToStructMapping[_spId] */\n      dup2\n      mstore\n      0x20\n      add\n      swap1\n      dup2\n      mstore\n      0x20\n      add\n      0x00\n      keccak256\n        /* \"contracts/supplierProduct.sol\":4341:4391  supplierProductsIdToStructMapping[_spId].sp_status */\n      0x04\n      add\n      0x08\n        /* \"contracts/supplierProduct.sol\":4341:4397  supplierProductsIdToStructMapping[_spId].sp_status=false */\n      0x0100\n      exp\n      dup2\n      sload\n      dup2\n      0xff\n      mul\n      not\n      and\n      swap1\n      dup4\n      iszero\n      iszero\n      mul\n      or\n      swap1\n      sstore\n      pop\n        /* \"contracts/supplierProduct.sol\":4440:4445  _spId */\n      dup1\n        /* \"contracts/supplierProduct.sol\":4413:4446  eventDeleteSupplierProduct(_spId) */\n      0x6c1a4e746947a5049a6693a4875a10617826c8361c631cac61717e141185fdd2\n      mload(0x40)\n      mload(0x40)\n      dup1\n      swap2\n      sub\n      swap1\n      log2\n        /* \"contracts/supplierProduct.sol\":4272:4454  function deleteSupplierProduct(uint _spId)public override {\r... */\n      pop\n      jump\t// out\n        /* \"contracts/supplierProduct.sol\":2506:3015  function getAllProductsOfSupplier(address _supplierAddress) public view returns(supplierProduct[] memory, uint[] memory _productIds)\r... */\n    tag_36:\n        /* \"contracts/supplierProduct.sol\":2586:2610  supplierProduct[] memory */\n      0x60\n        /* \"contracts/supplierProduct.sol\":2612:2637  uint[] memory _productIds */\n      dup1\n        /* \"contracts/supplierProduct.sol\":2655:2679  uint[] memory productIds */\n      0x00\n        /* \"contracts/supplierProduct.sol\":2681:2715  supplierAddressToproductsIdMapping */\n      0x02\n        /* \"contracts/supplierProduct.sol\":2681:2733  supplierAddressToproductsIdMapping[_supplierAddress] */\n      0x00\n        /* \"contracts/supplierProduct.sol\":2716:2732  _supplierAddress */\n      dup6\n        /* \"contracts/supplierProduct.sol\":2681:2733  supplierAddressToproductsIdMapping[_supplierAddress] */\n      0xffffffffffffffffffffffffffffffffffffffff\n      and\n      0xffffffffffffffffffffffffffffffffffffffff\n      and\n      dup2\n      mstore\n      0x20\n      add\n      swap1\n      dup2\n      mstore\n      0x20\n      add\n      0x00\n      keccak256\n        /* \"contracts/supplierProduct.sol\":2655:2733  uint[] memory productIds= supplierAddressToproductsIdMapping[_supplierAddress] */\n      dup1\n      sload\n      dup1\n      0x20\n      mul\n      0x20\n      add\n      mload(0x40)\n      swap1\n      dup2\n      add\n      0x40\n      mstore\n      dup1\n      swap3\n      swap2\n      swap1\n      dup2\n      dup2\n      mstore\n      0x20\n      add\n      dup3\n      dup1\n      sload\n      dup1\n      iszero\n      tag_118\n      jumpi\n      0x20\n      mul\n      dup3\n      add\n      swap2\n      swap1\n      0x00\n      mstore\n      keccak256(0x00, 0x20)\n      swap1\n    tag_119:\n      dup2\n      sload\n      dup2\n      mstore\n      0x20\n      add\n      swap1\n      0x01\n      add\n      swap1\n      dup1\n      dup4\n      gt\n      tag_119\n      jumpi\n    tag_118:\n      pop\n      pop\n      pop\n      pop\n      pop\n      swap1\n      pop\n        /* \"contracts/supplierProduct.sol\":2744:2778  supplierProduct[] memory supplierP */\n      0x00\n        /* \"contracts/supplierProduct.sol\":2803:2813  productIds */\n      dup2\n        /* \"contracts/supplierProduct.sol\":2803:2820  productIds.length */\n      mload\n        /* \"contracts/supplierProduct.sol\":2781:2821  new supplierProduct[](productIds.length) */\n      0xffffffffffffffff\n      dup2\n      gt\n      iszero\n      tag_120\n      jumpi\n      tag_121\n      tag_60\n      jump\t// in\n    tag_121:\n    tag_120:\n      mload(0x40)\n      swap1\n      dup1\n      dup3\n      mstore\n      dup1\n      0x20\n      mul\n      0x20\n      add\n      dup3\n      add\n      0x40\n      mstore\n      dup1\n      iszero\n      tag_122\n      jumpi\n      dup2\n      0x20\n      add\n    tag_123:\n      tag_124\n      tag_67\n      jump\t// in\n    tag_124:\n      dup2\n      mstore\n      0x20\n      add\n      swap1\n      0x01\n      swap1\n      sub\n      swap1\n      dup2\n      tag_123\n      jumpi\n      swap1\n      pop\n    tag_122:\n      pop\n        /* \"contracts/supplierProduct.sol\":2744:2821  supplierProduct[] memory supplierP = new supplierProduct[](productIds.length) */\n      swap1\n      pop\n        /* \"contracts/supplierProduct.sol\":2836:2842  uint i */\n      0x00\n        /* \"contracts/supplierProduct.sol\":2832:2968  for(uint i=0;i<productIds.length;i++)\r... */\n    tag_125:\n        /* \"contracts/supplierProduct.sol\":2847:2857  productIds */\n      dup3\n        /* \"contracts/supplierProduct.sol\":2847:2864  productIds.length */\n      mload\n        /* \"contracts/supplierProduct.sol\":2845:2846  i */\n      dup2\n        /* \"contracts/supplierProduct.sol\":2845:2864  i<productIds.length */\n      lt\n        /* \"contracts/supplierProduct.sol\":2832:2968  for(uint i=0;i<productIds.length;i++)\r... */\n      iszero\n      tag_126\n      jumpi\n        /* \"contracts/supplierProduct.sol\":2908:2941  supplierProductsIdToStructMapping */\n      0x01\n        /* \"contracts/supplierProduct.sol\":2908:2956  supplierProductsIdToStructMapping[productIds[i]] */\n      0x00\n        /* \"contracts/supplierProduct.sol\":2942:2952  productIds */\n      dup5\n        /* \"contracts/supplierProduct.sol\":2953:2954  i */\n      dup4\n        /* \"contracts/supplierProduct.sol\":2942:2955  productIds[i] */\n      dup2\n      mload\n      dup2\n      lt\n      tag_128\n      jumpi\n      tag_129\n      tag_73\n      jump\t// in\n    tag_129:\n    tag_128:\n      0x20\n      mul\n      0x20\n      add\n      add\n      mload\n        /* \"contracts/supplierProduct.sol\":2908:2956  supplierProductsIdToStructMapping[productIds[i]] */\n      dup2\n      mstore\n      0x20\n      add\n      swap1\n      dup2\n      mstore\n      0x20\n      add\n      0x00\n      keccak256\n        /* \"contracts/supplierProduct.sol\":2894:2956  supplierP[i] =supplierProductsIdToStructMapping[productIds[i]] */\n      mload(0x40)\n      dup1\n      0x0100\n      add\n      0x40\n      mstore\n      swap1\n      dup2\n      0x00\n      dup3\n      add\n      0x00\n      swap1\n      sload\n      swap1\n      0x0100\n      exp\n      swap1\n      div\n      0xffffffffffffffffffffffffffffffffffffffff\n      and\n      0xffffffffffffffffffffffffffffffffffffffff\n      and\n      0xffffffffffffffffffffffffffffffffffffffff\n      and\n      dup2\n      mstore\n      0x20\n      add\n      0x01\n      dup3\n      add\n      dup1\n      sload\n      tag_130\n      swap1\n      tag_76\n      jump\t// in\n    tag_130:\n      dup1\n      0x1f\n      add\n      0x20\n      dup1\n      swap2\n      div\n      mul\n      0x20\n      add\n      mload(0x40)\n      swap1\n      dup2\n      add\n      0x40\n      mstore\n      dup1\n      swap3\n      swap2\n      swap1\n      dup2\n      dup2\n      mstore\n      0x20\n      add\n      dup3\n      dup1\n      sload\n      tag_131\n      swap1\n      tag_76\n      jump\t// in\n    tag_131:\n      dup1\n      iszero\n      tag_132\n      jumpi\n      dup1\n      0x1f\n      lt\n      tag_133\n      jumpi\n      0x0100\n      dup1\n      dup4\n      sload\n      div\n      mul\n      dup4\n      mstore\n      swap2\n      0x20\n      add\n      swap2\n      jump(tag_132)\n    tag_133:\n      dup3\n      add\n      swap2\n      swap1\n      0x00\n      mstore\n      keccak256(0x00, 0x20)\n      swap1\n    tag_134:\n      dup2\n      sload\n      dup2\n      mstore\n      swap1\n      0x01\n      add\n      swap1\n      0x20\n      add\n      dup1\n      dup4\n      gt\n      tag_134\n      jumpi\n      dup3\n      swap1\n      sub\n      0x1f\n      and\n      dup3\n      add\n      swap2\n    tag_132:\n      pop\n      pop\n      pop\n      pop\n      pop\n      dup2\n      mstore\n      0x20\n      add\n      0x02\n      dup3\n      add\n      dup1\n      sload\n      tag_135\n      swap1\n      tag_76\n      jump\t// in\n    tag_135:\n      dup1\n      0x1f\n      add\n      0x20\n      dup1\n      swap2\n      div\n      mul\n      0x20\n      add\n      mload(0x40)\n      swap1\n      dup2\n      add\n      0x40\n      mstore\n      dup1\n      swap3\n      swap2\n      swap1\n      dup2\n      dup2\n      mstore\n      0x20\n      add\n      dup3\n      dup1\n      sload\n      tag_136\n      swap1\n      tag_76\n      jump\t// in\n    tag_136:\n      dup1\n      iszero\n      tag_137\n      jumpi\n      dup1\n      0x1f\n      lt\n      tag_138\n      jumpi\n      0x0100\n      dup1\n      dup4\n      sload\n      div\n      mul\n      dup4\n      mstore\n      swap2\n      0x20\n      add\n      swap2\n      jump(tag_137)\n    tag_138:\n      dup3\n      add\n      swap2\n      swap1\n      0x00\n      mstore\n      keccak256(0x00, 0x20)\n      swap1\n    tag_139:\n      dup2\n      sload\n      dup2\n      mstore\n      swap1\n      0x01\n      add\n      swap1\n      0x20\n      add\n      dup1\n      dup4\n      gt\n      tag_139\n      jumpi\n      dup3\n      swap1\n      sub\n      0x1f\n      and\n      dup3\n      add\n      swap2\n    tag_137:\n      pop\n      pop\n      pop\n      pop\n      pop\n      dup2\n      mstore\n      0x20\n      add\n      0x03\n      dup3\n      add\n      0x00\n      swap1\n      sload\n      swap1\n      0x0100\n      exp\n      swap1\n      div\n      0xffffffffffffffffffffffffffffffff\n      and\n      0xffffffffffffffffffffffffffffffff\n      and\n      0xffffffffffffffffffffffffffffffff\n      and\n      dup2\n      mstore\n      0x20\n      add\n      0x03\n      dup3\n      add\n      0x10\n      swap1\n      sload\n      swap1\n      0x0100\n      exp\n      swap1\n      div\n      0xffffffffffffffffffffffffffffffff\n      and\n      0xffffffffffffffffffffffffffffffff\n      and\n      0xffffffffffffffffffffffffffffffff\n      and\n      dup2\n      mstore\n      0x20\n      add\n      0x04\n      dup3\n      add\n      0x00\n      swap1\n      sload\n      swap1\n      0x0100\n      exp\n      swap1\n      div\n      0xffffffff\n      and\n      0xffffffff\n      and\n      0xffffffff\n      and\n      dup2\n      mstore\n      0x20\n      add\n      0x04\n      dup3\n      add\n      0x04\n      swap1\n      sload\n      swap1\n      0x0100\n      exp\n      swap1\n      div\n      0xffffffff\n      and\n      0xffffffff\n      and\n      0xffffffff\n      and\n      dup2\n      mstore\n      0x20\n      add\n      0x04\n      dup3\n      add\n      0x08\n      swap1\n      sload\n      swap1\n      0x0100\n      exp\n      swap1\n      div\n      0xff\n      and\n      iszero\n      iszero\n      iszero\n      iszero\n      dup2\n      mstore\n      pop\n      pop\n        /* \"contracts/supplierProduct.sol\":2894:2903  supplierP */\n      dup3\n        /* \"contracts/supplierProduct.sol\":2904:2905  i */\n      dup3\n        /* \"contracts/supplierProduct.sol\":2894:2906  supplierP[i] */\n      dup2\n      mload\n      dup2\n      lt\n      tag_140\n      jumpi\n      tag_141\n      tag_73\n      jump\t// in\n    tag_141:\n    tag_140:\n      0x20\n      mul\n      0x20\n      add\n      add\n        /* \"contracts/supplierProduct.sol\":2894:2956  supplierP[i] =supplierProductsIdToStructMapping[productIds[i]] */\n      dup2\n      swap1\n      mstore\n      pop\n        /* \"contracts/supplierProduct.sol\":2865:2868  i++ */\n      dup1\n      dup1\n      tag_142\n      swap1\n      tag_91\n      jump\t// in\n    tag_142:\n      swap2\n      pop\n      pop\n        /* \"contracts/supplierProduct.sol\":2832:2968  for(uint i=0;i<productIds.length;i++)\r... */\n      jump(tag_125)\n    tag_126:\n      pop\n        /* \"contracts/supplierProduct.sol\":2986:2995  supplierP */\n      dup1\n        /* \"contracts/supplierProduct.sol\":2996:3006  productIds */\n      dup3\n        /* \"contracts/supplierProduct.sol\":2978:3007  return (supplierP,productIds) */\n      swap4\n      pop\n      swap4\n      pop\n      pop\n      pop\n        /* \"contracts/supplierProduct.sol\":2506:3015  function getAllProductsOfSupplier(address _supplierAddress) public view returns(supplierProduct[] memory, uint[] memory _productIds)\r... */\n      swap2\n      pop\n      swap2\n      jump\t// out\n        /* \"contracts/supplierProduct.sol\":2256:2411  function getSingleSupplierProduct(uint _spId) public view returns(supplierProduct memory){\r... */\n    tag_40:\n        /* \"contracts/supplierProduct.sol\":2322:2344  supplierProduct memory */\n      tag_143\n      tag_67\n      jump\t// in\n    tag_143:\n        /* \"contracts/supplierProduct.sol\":2363:2396  supplierProductsIdToStructMapping */\n      0x01\n        /* \"contracts/supplierProduct.sol\":2363:2403  supplierProductsIdToStructMapping[_spId] */\n      0x00\n        /* \"contracts/supplierProduct.sol\":2397:2402  _spId */\n      dup4\n        /* \"contracts/supplierProduct.sol\":2363:2403  supplierProductsIdToStructMapping[_spId] */\n      dup2\n      mstore\n      0x20\n      add\n      swap1\n      dup2\n      mstore\n      0x20\n      add\n      0x00\n      keccak256\n        /* \"contracts/supplierProduct.sol\":2356:2403  return supplierProductsIdToStructMapping[_spId] */\n      mload(0x40)\n      dup1\n      0x0100\n      add\n      0x40\n      mstore\n      swap1\n      dup2\n      0x00\n      dup3\n      add\n      0x00\n      swap1\n      sload\n      swap1\n      0x0100\n      exp\n      swap1\n      div\n      0xffffffffffffffffffffffffffffffffffffffff\n      and\n      0xffffffffffffffffffffffffffffffffffffffff\n      and\n      0xffffffffffffffffffffffffffffffffffffffff\n      and\n      dup2\n      mstore\n      0x20\n      add\n      0x01\n      dup3\n      add\n      dup1\n      sload\n      tag_145\n      swap1\n      tag_76\n      jump\t// in\n    tag_145:\n      dup1\n      0x1f\n      add\n      0x20\n      dup1\n      swap2\n      div\n      mul\n      0x20\n      add\n      mload(0x40)\n      swap1\n      dup2\n      add\n      0x40\n      mstore\n      dup1\n      swap3\n      swap2\n      swap1\n      dup2\n      dup2\n      mstore\n      0x20\n      add\n      dup3\n      dup1\n      sload\n      tag_146\n      swap1\n      tag_76\n      jump\t// in\n    tag_146:\n      dup1\n      iszero\n      tag_147\n      jumpi\n      dup1\n      0x1f\n      lt\n      tag_148\n      jumpi\n      0x0100\n      dup1\n      dup4\n      sload\n      div\n      mul\n      dup4\n      mstore\n      swap2\n      0x20\n      add\n      swap2\n      jump(tag_147)\n    tag_148:\n      dup3\n      add\n      swap2\n      swap1\n      0x00\n      mstore\n      keccak256(0x00, 0x20)\n      swap1\n    tag_149:\n      dup2\n      sload\n      dup2\n      mstore\n      swap1\n      0x01\n      add\n      swap1\n      0x20\n      add\n      dup1\n      dup4\n      gt\n      tag_149\n      jumpi\n      dup3\n      swap1\n      sub\n      0x1f\n      and\n      dup3\n      add\n      swap2\n    tag_147:\n      pop\n      pop\n      pop\n      pop\n      pop\n      dup2\n      mstore\n      0x20\n      add\n      0x02\n      dup3\n      add\n      dup1\n      sload\n      tag_150\n      swap1\n      tag_76\n      jump\t// in\n    tag_150:\n      dup1\n      0x1f\n      add\n      0x20\n      dup1\n      swap2\n      div\n      mul\n      0x20\n      add\n      mload(0x40)\n      swap1\n      dup2\n      add\n      0x40\n      mstore\n      dup1\n      swap3\n      swap2\n      swap1\n      dup2\n      dup2\n      mstore\n      0x20\n      add\n      dup3\n      dup1\n      sload\n      tag_151\n      swap1\n      tag_76\n      jump\t// in\n    tag_151:\n      dup1\n      iszero\n      tag_152\n      jumpi\n      dup1\n      0x1f\n      lt\n      tag_153\n      jumpi\n      0x0100\n      dup1\n      dup4\n      sload\n      div\n      mul\n      dup4\n      mstore\n      swap2\n      0x20\n      add\n      swap2\n      jump(tag_152)\n    tag_153:\n      dup3\n      add\n      swap2\n      swap1\n      0x00\n      mstore\n      keccak256(0x00, 0x20)\n      swap1\n    tag_154:\n      dup2\n      sload\n      dup2\n      mstore\n      swap1\n      0x01\n      add\n      swap1\n      0x20\n      add\n      dup1\n      dup4\n      gt\n      tag_154\n      jumpi\n      dup3\n      swap1\n      sub\n      0x1f\n      and\n      dup3\n      add\n      swap2\n    tag_152:\n      pop\n      pop\n      pop\n      pop\n      pop\n      dup2\n      mstore\n      0x20\n      add\n      0x03\n      dup3\n      add\n      0x00\n      swap1\n      sload\n      swap1\n      0x0100\n      exp\n      swap1\n      div\n      0xffffffffffffffffffffffffffffffff\n      and\n      0xffffffffffffffffffffffffffffffff\n      and\n      0xffffffffffffffffffffffffffffffff\n      and\n      dup2\n      mstore\n      0x20\n      add\n      0x03\n      dup3\n      add\n      0x10\n      swap1\n      sload\n      swap1\n      0x0100\n      exp\n      swap1\n      div\n      0xffffffffffffffffffffffffffffffff\n      and\n      0xffffffffffffffffffffffffffffffff\n      and\n      0xffffffffffffffffffffffffffffffff\n      and\n      dup2\n      mstore\n      0x20\n      add\n      0x04\n      dup3\n      add\n      0x00\n      swap1\n      sload\n      swap1\n      0x0100\n      exp\n      swap1\n      div\n      0xffffffff\n      and\n      0xffffffff\n      and\n      0xffffffff\n      and\n      dup2\n      mstore\n      0x20\n      add\n      0x04\n      dup3\n      add\n      0x04\n      swap1\n      sload\n      swap1\n      0x0100\n      exp\n      swap1\n      div\n      0xffffffff\n      and\n      0xffffffff\n      and\n      0xffffffff\n      and\n      dup2\n      mstore\n      0x20\n      add\n      0x04\n      dup3\n      add\n      0x08\n      swap1\n      sload\n      swap1\n      0x0100\n      exp\n      swap1\n      div\n      0xff\n      and\n      iszero\n      iszero\n      iszero\n      iszero\n      dup2\n      mstore\n      pop\n      pop\n      swap1\n      pop\n        /* \"contracts/supplierProduct.sol\":2256:2411  function getSingleSupplierProduct(uint _spId) public view returns(supplierProduct memory){\r... */\n      swap2\n      swap1\n      pop\n      jump\t// out\n        /* \"contracts/supplierProduct.sol\":2048:2187  function getSupplierProductIds() public view returns(uint[] memory){\r... */\n    tag_44:\n        /* \"contracts/supplierProduct.sol\":2101:2114  uint[] memory */\n      0x60\n        /* \"contracts/supplierProduct.sol\":2133:2167  supplierAddressToproductsIdMapping */\n      0x02\n        /* \"contracts/supplierProduct.sol\":2133:2179  supplierAddressToproductsIdMapping[msg.sender] */\n      0x00\n        /* \"contracts/supplierProduct.sol\":2168:2178  msg.sender */\n      caller\n        /* \"contracts/supplierProduct.sol\":2133:2179  supplierAddressToproductsIdMapping[msg.sender] */\n      0xffffffffffffffffffffffffffffffffffffffff\n      and\n      0xffffffffffffffffffffffffffffffffffffffff\n      and\n      dup2\n      mstore\n      0x20\n      add\n      swap1\n      dup2\n      mstore\n      0x20\n      add\n      0x00\n      keccak256\n        /* \"contracts/supplierProduct.sol\":2126:2179  return supplierAddressToproductsIdMapping[msg.sender] */\n      dup1\n      sload\n      dup1\n      0x20\n      mul\n      0x20\n      add\n      mload(0x40)\n      swap1\n      dup2\n      add\n      0x40\n      mstore\n      dup1\n      swap3\n      swap2\n      swap1\n      dup2\n      dup2\n      mstore\n      0x20\n      add\n      dup3\n      dup1\n      sload\n      dup1\n      iszero\n      tag_156\n      jumpi\n      0x20\n      mul\n      dup3\n      add\n      swap2\n      swap1\n      0x00\n      mstore\n      keccak256(0x00, 0x20)\n      swap1\n    tag_157:\n      dup2\n      sload\n      dup2\n      mstore\n      0x20\n      add\n      swap1\n      0x01\n      add\n      swap1\n      dup1\n      dup4\n      gt\n      tag_157\n      jumpi\n    tag_156:\n      pop\n      pop\n      pop\n      pop\n      pop\n      swap1\n      pop\n        /* \"contracts/supplierProduct.sol\":2048:2187  function getSupplierProductIds() public view returns(uint[] memory){\r... */\n      swap1\n      jump\t// out\n        /* \"contracts/supplierProduct.sol\":1143:1648  function addSupplierProduct(bytes calldata _name,bytes calldata _description,uint128 _unit,uint128 _price,uint32 _date,uint32 _expiryDate)public override  {\r... */\n    tag_50:\n        /* \"contracts/supplierProduct.sol\":1351:1433  supplierProduct(msg.sender,_name,_description,_unit,_price,_date,_expiryDate,true) */\n      mload(0x40)\n      dup1\n      0x0100\n      add\n      0x40\n      mstore\n      dup1\n        /* \"contracts/supplierProduct.sol\":1367:1377  msg.sender */\n      caller\n        /* \"contracts/supplierProduct.sol\":1351:1433  supplierProduct(msg.sender,_name,_description,_unit,_price,_date,_expiryDate,true) */\n      0xffffffffffffffffffffffffffffffffffffffff\n      and\n      dup2\n      mstore\n      0x20\n      add\n        /* \"contracts/supplierProduct.sol\":1378:1383  _name */\n      dup10\n      dup10\n        /* \"contracts/supplierProduct.sol\":1351:1433  supplierProduct(msg.sender,_name,_description,_unit,_price,_date,_expiryDate,true) */\n      dup1\n      dup1\n      0x1f\n      add\n      0x20\n      dup1\n      swap2\n      div\n      mul\n      0x20\n      add\n      mload(0x40)\n      swap1\n      dup2\n      add\n      0x40\n      mstore\n      dup1\n      swap4\n      swap3\n      swap2\n      swap1\n      dup2\n      dup2\n      mstore\n      0x20\n      add\n      dup4\n      dup4\n      dup1\n      dup3\n      dup5\n      calldatacopy\n      0x00\n      dup2\n      dup5\n      add\n      mstore\n      not(0x1f)\n      0x1f\n      dup3\n      add\n      and\n      swap1\n      pop\n      dup1\n      dup4\n      add\n      swap3\n      pop\n      pop\n      pop\n      pop\n      pop\n      pop\n      pop\n      dup2\n      mstore\n      0x20\n      add\n        /* \"contracts/supplierProduct.sol\":1384:1396  _description */\n      dup8\n      dup8\n        /* \"contracts/supplierProduct.sol\":1351:1433  supplierProduct(msg.sender,_name,_description,_unit,_price,_date,_expiryDate,true) */\n      dup1\n      dup1\n      0x1f\n      add\n      0x20\n      dup1\n      swap2\n      div\n      mul\n      0x20\n      add\n      mload(0x40)\n      swap1\n      dup2\n      add\n      0x40\n      mstore\n      dup1\n      swap4\n      swap3\n      swap2\n      swap1\n      dup2\n      dup2\n      mstore\n      0x20\n      add\n      dup4\n      dup4\n      dup1\n      dup3\n      dup5\n      calldatacopy\n      0x00\n      dup2\n      dup5\n      add\n      mstore\n      not(0x1f)\n      0x1f\n      dup3\n      add\n      and\n      swap1\n      pop\n      dup1\n      dup4\n      add\n      swap3\n      pop\n      pop\n      pop\n      pop\n      pop\n      pop\n      pop\n      dup2\n      mstore\n      0x20\n      add\n        /* \"contracts/supplierProduct.sol\":1397:1402  _unit */\n      dup6\n        /* \"contracts/supplierProduct.sol\":1351:1433  supplierProduct(msg.sender,_name,_description,_unit,_price,_date,_expiryDate,true) */\n      0xffffffffffffffffffffffffffffffff\n      and\n      dup2\n      mstore\n      0x20\n      add\n        /* \"contracts/supplierProduct.sol\":1403:1409  _price */\n      dup5\n        /* \"contracts/supplierProduct.sol\":1351:1433  supplierProduct(msg.sender,_name,_description,_unit,_price,_date,_expiryDate,true) */\n      0xffffffffffffffffffffffffffffffff\n      and\n      dup2\n      mstore\n      0x20\n      add\n        /* \"contracts/supplierProduct.sol\":1410:1415  _date */\n      dup4\n        /* \"contracts/supplierProduct.sol\":1351:1433  supplierProduct(msg.sender,_name,_description,_unit,_price,_date,_expiryDate,true) */\n      0xffffffff\n      and\n      dup2\n      mstore\n      0x20\n      add\n        /* \"contracts/supplierProduct.sol\":1416:1427  _expiryDate */\n      dup3\n        /* \"contracts/supplierProduct.sol\":1351:1433  supplierProduct(msg.sender,_name,_description,_unit,_price,_date,_expiryDate,true) */\n      0xffffffff\n      and\n      dup2\n      mstore\n      0x20\n      add\n        /* \"contracts/supplierProduct.sol\":1428:1432  true */\n      0x01\n        /* \"contracts/supplierProduct.sol\":1351:1433  supplierProduct(msg.sender,_name,_description,_unit,_price,_date,_expiryDate,true) */\n      iszero\n      iszero\n      dup2\n      mstore\n      pop\n        /* \"contracts/supplierProduct.sol\":1309:1342  supplierProductsIdToStructMapping */\n      0x01\n        /* \"contracts/supplierProduct.sol\":1309:1348  supplierProductsIdToStructMapping[spId] */\n      0x00\n        /* \"contracts/supplierProduct.sol\":1343:1347  spId */\n      dup1\n      sload\n        /* \"contracts/supplierProduct.sol\":1309:1348  supplierProductsIdToStructMapping[spId] */\n      dup2\n      mstore\n      0x20\n      add\n      swap1\n      dup2\n      mstore\n      0x20\n      add\n      0x00\n      keccak256\n        /* \"contracts/supplierProduct.sol\":1309:1433  supplierProductsIdToStructMapping[spId] = supplierProduct(msg.sender,_name,_description,_unit,_price,_date,_expiryDate,true) */\n      0x00\n      dup3\n      add\n      mload\n      dup2\n      0x00\n      add\n      exp(0x0100, 0x00)\n      dup2\n      sload\n      dup2\n      0xffffffffffffffffffffffffffffffffffffffff\n      mul\n      not\n      and\n      swap1\n      dup4\n      0xffffffffffffffffffffffffffffffffffffffff\n      and\n      mul\n      or\n      swap1\n      sstore\n      pop\n      0x20\n      dup3\n      add\n      mload\n      dup2\n      0x01\n      add\n      swap1\n      dup1\n      mload\n      swap1\n      0x20\n      add\n      swap1\n      tag_159\n      swap3\n      swap2\n      swap1\n      tag_160\n      jump\t// in\n    tag_159:\n      pop\n      0x40\n      dup3\n      add\n      mload\n      dup2\n      0x02\n      add\n      swap1\n      dup1\n      mload\n      swap1\n      0x20\n      add\n      swap1\n      tag_161\n      swap3\n      swap2\n      swap1\n      tag_160\n      jump\t// in\n    tag_161:\n      pop\n      0x60\n      dup3\n      add\n      mload\n      dup2\n      0x03\n      add\n      exp(0x0100, 0x00)\n      dup2\n      sload\n      dup2\n      0xffffffffffffffffffffffffffffffff\n      mul\n      not\n      and\n      swap1\n      dup4\n      0xffffffffffffffffffffffffffffffff\n      and\n      mul\n      or\n      swap1\n      sstore\n      pop\n      0x80\n      dup3\n      add\n      mload\n      dup2\n      0x03\n      add\n      exp(0x0100, 0x10)\n      dup2\n      sload\n      dup2\n      0xffffffffffffffffffffffffffffffff\n      mul\n      not\n      and\n      swap1\n      dup4\n      0xffffffffffffffffffffffffffffffff\n      and\n      mul\n      or\n      swap1\n      sstore\n      pop\n      0xa0\n      dup3\n      add\n      mload\n      dup2\n      0x04\n      add\n      exp(0x0100, 0x00)\n      dup2\n      sload\n      dup2\n      0xffffffff\n      mul\n      not\n      and\n      swap1\n      dup4\n      0xffffffff\n      and\n      mul\n      or\n      swap1\n      sstore\n      pop\n      0xc0\n      dup3\n      add\n      mload\n      dup2\n      0x04\n      add\n      exp(0x0100, 0x04)\n      dup2\n      sload\n      dup2\n      0xffffffff\n      mul\n      not\n      and\n      swap1\n      dup4\n      0xffffffff\n      and\n      mul\n      or\n      swap1\n      sstore\n      pop\n      0xe0\n      dup3\n      add\n      mload\n      dup2\n      0x04\n      add\n      exp(0x0100, 0x08)\n      dup2\n      sload\n      dup2\n      0xff\n      mul\n      not\n      and\n      swap1\n      dup4\n      iszero\n      iszero\n      mul\n      or\n      swap1\n      sstore\n      pop\n      swap1\n      pop\n      pop\n        /* \"contracts/supplierProduct.sol\":1444:1478  supplierAddressToproductsIdMapping */\n      0x02\n        /* \"contracts/supplierProduct.sol\":1444:1490  supplierAddressToproductsIdMapping[msg.sender] */\n      0x00\n        /* \"contracts/supplierProduct.sol\":1479:1489  msg.sender */\n      caller\n        /* \"contracts/supplierProduct.sol\":1444:1490  supplierAddressToproductsIdMapping[msg.sender] */\n      0xffffffffffffffffffffffffffffffffffffffff\n      and\n      0xffffffffffffffffffffffffffffffffffffffff\n      and\n      dup2\n      mstore\n      0x20\n      add\n      swap1\n      dup2\n      mstore\n      0x20\n      add\n      0x00\n      keccak256\n        /* \"contracts/supplierProduct.sol\":1496:1500  spId */\n      sload(0x00)\n        /* \"contracts/supplierProduct.sol\":1444:1501  supplierAddressToproductsIdMapping[msg.sender].push(spId) */\n      swap1\n      dup1\n      0x01\n      dup2\n      sload\n      add\n      dup1\n      dup3\n      sstore\n      dup1\n      swap2\n      pop\n      pop\n      0x01\n      swap1\n      sub\n      swap1\n      0x00\n      mstore\n      keccak256(0x00, 0x20)\n      add\n      0x00\n      swap1\n      swap2\n      swap1\n      swap2\n      swap1\n      swap2\n      pop\n      sstore\n        /* \"contracts/supplierProduct.sol\":1546:1556  msg.sender */\n      caller\n        /* \"contracts/supplierProduct.sol\":1517:1623  eventAddSupplierProduct(spId,msg.sender,_name,_description,_unit,_price,_date,_expiryDate,block.timestamp) */\n      0xffffffffffffffffffffffffffffffffffffffff\n      and\n        /* \"contracts/supplierProduct.sol\":1541:1545  spId */\n      sload(0x00)\n        /* \"contracts/supplierProduct.sol\":1517:1623  eventAddSupplierProduct(spId,msg.sender,_name,_description,_unit,_price,_date,_expiryDate,block.timestamp) */\n      0xb544b666bf20d30fc9acbc75aee55e5847e8f95a49aa5d36b6dab734f0cbb303\n        /* \"contracts/supplierProduct.sol\":1557:1562  _name */\n      dup11\n      dup11\n        /* \"contracts/supplierProduct.sol\":1563:1575  _description */\n      dup11\n      dup11\n        /* \"contracts/supplierProduct.sol\":1576:1581  _unit */\n      dup11\n        /* \"contracts/supplierProduct.sol\":1582:1588  _price */\n      dup11\n        /* \"contracts/supplierProduct.sol\":1589:1594  _date */\n      dup11\n        /* \"contracts/supplierProduct.sol\":1595:1606  _expiryDate */\n      dup11\n        /* \"contracts/supplierProduct.sol\":1607:1622  block.timestamp */\n      timestamp\n        /* \"contracts/supplierProduct.sol\":1517:1623  eventAddSupplierProduct(spId,msg.sender,_name,_description,_unit,_price,_date,_expiryDate,block.timestamp) */\n      mload(0x40)\n      tag_163\n      swap10\n      swap9\n      swap8\n      swap7\n      swap6\n      swap5\n      swap4\n      swap3\n      swap2\n      swap1\n      tag_164\n      jump\t// in\n    tag_163:\n      mload(0x40)\n      dup1\n      swap2\n      sub\n      swap1\n      log3\n        /* \"contracts/supplierProduct.sol\":1634:1638  spId */\n      0x00\n      dup1\n        /* \"contracts/supplierProduct.sol\":1634:1640  spId++ */\n      dup2\n      sload\n      dup1\n      swap3\n      swap2\n      swap1\n      tag_165\n      swap1\n      tag_91\n      jump\t// in\n    tag_165:\n      swap2\n      swap1\n      pop\n      sstore\n      pop\n        /* \"contracts/supplierProduct.sol\":1143:1648  function addSupplierProduct(bytes calldata _name,bytes calldata _description,uint128 _unit,uint128 _price,uint32 _date,uint32 _expiryDate)public override  {\r... */\n      pop\n      pop\n      pop\n      pop\n      pop\n      pop\n      pop\n      pop\n      jump\t// out\n        /* \"contracts/supplierProduct.sol\":1715:1983  function updateSupplierProductUints(uint _spId, uint128 _quantity) public override{\r... */\n    tag_54:\n        /* \"contracts/supplierProduct.sol\":1860:1869  _quantity */\n      dup1\n        /* \"contracts/supplierProduct.sol\":1808:1841  supplierProductsIdToStructMapping */\n      0x01\n        /* \"contracts/supplierProduct.sol\":1808:1848  supplierProductsIdToStructMapping[_spId] */\n      0x00\n        /* \"contracts/supplierProduct.sol\":1842:1847  _spId */\n      dup5\n        /* \"contracts/supplierProduct.sol\":1808:1848  supplierProductsIdToStructMapping[_spId] */\n      dup2\n      mstore\n      0x20\n      add\n      swap1\n      dup2\n      mstore\n      0x20\n      add\n      0x00\n      keccak256\n        /* \"contracts/supplierProduct.sol\":1808:1856  supplierProductsIdToStructMapping[_spId].sp_unit */\n      0x03\n      add\n      0x00\n        /* \"contracts/supplierProduct.sol\":1808:1869  supplierProductsIdToStructMapping[_spId].sp_unit -= _quantity */\n      dup3\n      dup3\n      dup3\n      swap1\n      sload\n      swap1\n      0x0100\n      exp\n      swap1\n      div\n      0xffffffffffffffffffffffffffffffff\n      and\n      tag_167\n      swap2\n      swap1\n      tag_168\n      jump\t// in\n    tag_167:\n      swap3\n      pop\n      0x0100\n      exp\n      dup2\n      sload\n      dup2\n      0xffffffffffffffffffffffffffffffff\n      mul\n      not\n      and\n      swap1\n      dup4\n      0xffffffffffffffffffffffffffffffff\n      and\n      mul\n      or\n      swap1\n      sstore\n      pop\n        /* \"contracts/supplierProduct.sol\":1919:1924  _spId */\n      dup2\n        /* \"contracts/supplierProduct.sol\":1887:1975  eventUpdateSupplierProductUints(_spId, supplierProductsIdToStructMapping[_spId].sp_unit) */\n      0x1f3d301eca9b893fb3ae34f526f7b346cfe3086be67884ce1e652593c91668d6\n        /* \"contracts/supplierProduct.sol\":1926:1959  supplierProductsIdToStructMapping */\n      0x01\n        /* \"contracts/supplierProduct.sol\":1926:1966  supplierProductsIdToStructMapping[_spId] */\n      0x00\n        /* \"contracts/supplierProduct.sol\":1960:1965  _spId */\n      dup6\n        /* \"contracts/supplierProduct.sol\":1926:1966  supplierProductsIdToStructMapping[_spId] */\n      dup2\n      mstore\n      0x20\n      add\n      swap1\n      dup2\n      mstore\n      0x20\n      add\n      0x00\n      keccak256\n        /* \"contracts/supplierProduct.sol\":1926:1974  supplierProductsIdToStructMapping[_spId].sp_unit */\n      0x03\n      add\n      0x00\n      swap1\n      sload\n      swap1\n      0x0100\n      exp\n      swap1\n      div\n      0xffffffffffffffffffffffffffffffff\n      and\n        /* \"contracts/supplierProduct.sol\":1887:1975  eventUpdateSupplierProductUints(_spId, supplierProductsIdToStructMapping[_spId].sp_unit) */\n      mload(0x40)\n      tag_169\n      swap2\n      swap1\n      tag_170\n      jump\t// in\n    tag_169:\n      mload(0x40)\n      dup1\n      swap2\n      sub\n      swap1\n      log2\n        /* \"contracts/supplierProduct.sol\":1715:1983  function updateSupplierProductUints(uint _spId, uint128 _quantity) public override{\r... */\n      pop\n      pop\n      jump\t// out\n    tag_67:\n      mload(0x40)\n      dup1\n      0x0100\n      add\n      0x40\n      mstore\n      dup1\n      and(0xffffffffffffffffffffffffffffffffffffffff, 0x00)\n      dup2\n      mstore\n      0x20\n      add\n      0x60\n      dup2\n      mstore\n      0x20\n      add\n      0x60\n      dup2\n      mstore\n      0x20\n      add\n      and(0xffffffffffffffffffffffffffffffff, 0x00)\n      dup2\n      mstore\n      0x20\n      add\n      and(0xffffffffffffffffffffffffffffffff, 0x00)\n      dup2\n      mstore\n      0x20\n      add\n      and(0xffffffff, 0x00)\n      dup2\n      mstore\n      0x20\n      add\n      and(0xffffffff, 0x00)\n      dup2\n      mstore\n      0x20\n      add\n      iszero(iszero(0x00))\n      dup2\n      mstore\n      pop\n      swap1\n      jump\t// out\n    tag_160:\n      dup3\n      dup1\n      sload\n      tag_171\n      swap1\n      tag_76\n      jump\t// in\n    tag_171:\n      swap1\n      0x00\n      mstore\n      keccak256(0x00, 0x20)\n      swap1\n      0x1f\n      add\n      0x20\n      swap1\n      div\n      dup2\n      add\n      swap3\n      dup3\n      tag_173\n      jumpi\n      0x00\n      dup6\n      sstore\n      jump(tag_172)\n    tag_173:\n      dup3\n      0x1f\n      lt\n      tag_174\n      jumpi\n      dup1\n      mload\n      not(0xff)\n      and\n      dup4\n      dup1\n      add\n      or\n      dup6\n      sstore\n      jump(tag_172)\n    tag_174:\n      dup3\n      dup1\n      add\n      0x01\n      add\n      dup6\n      sstore\n      dup3\n      iszero\n      tag_172\n      jumpi\n      swap2\n      dup3\n      add\n    tag_175:\n      dup3\n      dup2\n      gt\n      iszero\n      tag_176\n      jumpi\n      dup3\n      mload\n      dup3\n      sstore\n      swap2\n      0x20\n      add\n      swap2\n      swap1\n      0x01\n      add\n      swap1\n      jump(tag_175)\n    tag_176:\n    tag_172:\n      pop\n      swap1\n      pop\n      tag_177\n      swap2\n      swap1\n      tag_178\n      jump\t// in\n    tag_177:\n      pop\n      swap1\n      jump\t// out\n    tag_178:\n    tag_179:\n      dup1\n      dup3\n      gt\n      iszero\n      tag_180\n      jumpi\n      0x00\n      dup2\n      0x00\n      swap1\n      sstore\n      pop\n      0x01\n      add\n      jump(tag_179)\n    tag_180:\n      pop\n      swap1\n      jump\t// out\n        /* \"#utility.yul\":7:146   */\n    tag_182:\n        /* \"#utility.yul\":53:58   */\n      0x00\n        /* \"#utility.yul\":91:97   */\n      dup2\n        /* \"#utility.yul\":78:98   */\n      calldataload\n        /* \"#utility.yul\":69:98   */\n      swap1\n      pop\n        /* \"#utility.yul\":107:140   */\n      tag_184\n        /* \"#utility.yul\":134:139   */\n      dup2\n        /* \"#utility.yul\":107:140   */\n      tag_185\n      jump\t// in\n    tag_184:\n        /* \"#utility.yul\":7:146   */\n      swap3\n      swap2\n      pop\n      pop\n      jump\t// out\n        /* \"#utility.yul\":165:717   */\n    tag_186:\n        /* \"#utility.yul\":222:230   */\n      0x00\n        /* \"#utility.yul\":232:238   */\n      dup1\n        /* \"#utility.yul\":282:285   */\n      dup4\n        /* \"#utility.yul\":275:279   */\n      0x1f\n        /* \"#utility.yul\":267:273   */\n      dup5\n        /* \"#utility.yul\":263:280   */\n      add\n        /* \"#utility.yul\":259:286   */\n      slt\n        /* \"#utility.yul\":249:371   */\n      tag_188\n      jumpi\n        /* \"#utility.yul\":290:369   */\n      tag_189\n      tag_190\n      jump\t// in\n    tag_189:\n        /* \"#utility.yul\":249:371   */\n    tag_188:\n        /* \"#utility.yul\":403:409   */\n      dup3\n        /* \"#utility.yul\":390:410   */\n      calldataload\n        /* \"#utility.yul\":380:410   */\n      swap1\n      pop\n        /* \"#utility.yul\":433:451   */\n      0xffffffffffffffff\n        /* \"#utility.yul\":425:431   */\n      dup2\n        /* \"#utility.yul\":422:452   */\n      gt\n        /* \"#utility.yul\":419:536   */\n      iszero\n      tag_191\n      jumpi\n        /* \"#utility.yul\":455:534   */\n      tag_192\n      tag_193\n      jump\t// in\n    tag_192:\n        /* \"#utility.yul\":419:536   */\n    tag_191:\n        /* \"#utility.yul\":569:573   */\n      0x20\n        /* \"#utility.yul\":561:567   */\n      dup4\n        /* \"#utility.yul\":557:574   */\n      add\n        /* \"#utility.yul\":545:574   */\n      swap2\n      pop\n        /* \"#utility.yul\":623:626   */\n      dup4\n        /* \"#utility.yul\":615:619   */\n      0x01\n        /* \"#utility.yul\":607:613   */\n      dup3\n        /* \"#utility.yul\":603:620   */\n      mul\n        /* \"#utility.yul\":593:601   */\n      dup4\n        /* \"#utility.yul\":589:621   */\n      add\n        /* \"#utility.yul\":586:627   */\n      gt\n        /* \"#utility.yul\":583:711   */\n      iszero\n      tag_194\n      jumpi\n        /* \"#utility.yul\":630:709   */\n      tag_195\n      tag_196\n      jump\t// in\n    tag_195:\n        /* \"#utility.yul\":583:711   */\n    tag_194:\n        /* \"#utility.yul\":165:717   */\n      swap3\n      pop\n      swap3\n      swap1\n      pop\n      jump\t// out\n        /* \"#utility.yul\":723:862   */\n    tag_197:\n        /* \"#utility.yul\":769:774   */\n      0x00\n        /* \"#utility.yul\":807:813   */\n      dup2\n        /* \"#utility.yul\":794:814   */\n      calldataload\n        /* \"#utility.yul\":785:814   */\n      swap1\n      pop\n        /* \"#utility.yul\":823:856   */\n      tag_199\n        /* \"#utility.yul\":850:855   */\n      dup2\n        /* \"#utility.yul\":823:856   */\n      tag_200\n      jump\t// in\n    tag_199:\n        /* \"#utility.yul\":723:862   */\n      swap3\n      swap2\n      pop\n      pop\n      jump\t// out\n        /* \"#utility.yul\":868:1007   */\n    tag_201:\n        /* \"#utility.yul\":914:919   */\n      0x00\n        /* \"#utility.yul\":952:958   */\n      dup2\n        /* \"#utility.yul\":939:959   */\n      calldataload\n        /* \"#utility.yul\":930:959   */\n      swap1\n      pop\n        /* \"#utility.yul\":968:1001   */\n      tag_203\n        /* \"#utility.yul\":995:1000   */\n      dup2\n        /* \"#utility.yul\":968:1001   */\n      tag_204\n      jump\t// in\n    tag_203:\n        /* \"#utility.yul\":868:1007   */\n      swap3\n      swap2\n      pop\n      pop\n      jump\t// out\n        /* \"#utility.yul\":1013:1150   */\n    tag_205:\n        /* \"#utility.yul\":1058:1063   */\n      0x00\n        /* \"#utility.yul\":1096:1102   */\n      dup2\n        /* \"#utility.yul\":1083:1103   */\n      calldataload\n        /* \"#utility.yul\":1074:1103   */\n      swap1\n      pop\n        /* \"#utility.yul\":1112:1144   */\n      tag_207\n        /* \"#utility.yul\":1138:1143   */\n      dup2\n        /* \"#utility.yul\":1112:1144   */\n      tag_208\n      jump\t// in\n    tag_207:\n        /* \"#utility.yul\":1013:1150   */\n      swap3\n      swap2\n      pop\n      pop\n      jump\t// out\n        /* \"#utility.yul\":1156:1485   */\n    tag_15:\n        /* \"#utility.yul\":1215:1221   */\n      0x00\n        /* \"#utility.yul\":1264:1266   */\n      0x20\n        /* \"#utility.yul\":1252:1261   */\n      dup3\n        /* \"#utility.yul\":1243:1250   */\n      dup5\n        /* \"#utility.yul\":1239:1262   */\n      sub\n        /* \"#utility.yul\":1235:1267   */\n      slt\n        /* \"#utility.yul\":1232:1351   */\n      iszero\n      tag_210\n      jumpi\n        /* \"#utility.yul\":1270:1349   */\n      tag_211\n      tag_212\n      jump\t// in\n    tag_211:\n        /* \"#utility.yul\":1232:1351   */\n    tag_210:\n        /* \"#utility.yul\":1390:1391   */\n      0x00\n        /* \"#utility.yul\":1415:1468   */\n      tag_213\n        /* \"#utility.yul\":1460:1467   */\n      dup5\n        /* \"#utility.yul\":1451:1457   */\n      dup3\n        /* \"#utility.yul\":1440:1449   */\n      dup6\n        /* \"#utility.yul\":1436:1458   */\n      add\n        /* \"#utility.yul\":1415:1468   */\n      tag_182\n      jump\t// in\n    tag_213:\n        /* \"#utility.yul\":1405:1468   */\n      swap2\n      pop\n        /* \"#utility.yul\":1361:1478   */\n      pop\n        /* \"#utility.yul\":1156:1485   */\n      swap3\n      swap2\n      pop\n      pop\n      jump\t// out\n        /* \"#utility.yul\":1491:1965   */\n    tag_21:\n        /* \"#utility.yul\":1559:1565   */\n      0x00\n        /* \"#utility.yul\":1567:1573   */\n      dup1\n        /* \"#utility.yul\":1616:1618   */\n      0x40\n        /* \"#utility.yul\":1604:1613   */\n      dup4\n        /* \"#utility.yul\":1595:1602   */\n      dup6\n        /* \"#utility.yul\":1591:1614   */\n      sub\n        /* \"#utility.yul\":1587:1619   */\n      slt\n        /* \"#utility.yul\":1584:1703   */\n      iszero\n      tag_215\n      jumpi\n        /* \"#utility.yul\":1622:1701   */\n      tag_216\n      tag_212\n      jump\t// in\n    tag_216:\n        /* \"#utility.yul\":1584:1703   */\n    tag_215:\n        /* \"#utility.yul\":1742:1743   */\n      0x00\n        /* \"#utility.yul\":1767:1820   */\n      tag_217\n        /* \"#utility.yul\":1812:1819   */\n      dup6\n        /* \"#utility.yul\":1803:1809   */\n      dup3\n        /* \"#utility.yul\":1792:1801   */\n      dup7\n        /* \"#utility.yul\":1788:1810   */\n      add\n        /* \"#utility.yul\":1767:1820   */\n      tag_182\n      jump\t// in\n    tag_217:\n        /* \"#utility.yul\":1757:1820   */\n      swap3\n      pop\n        /* \"#utility.yul\":1713:1830   */\n      pop\n        /* \"#utility.yul\":1869:1871   */\n      0x20\n        /* \"#utility.yul\":1895:1948   */\n      tag_218\n        /* \"#utility.yul\":1940:1947   */\n      dup6\n        /* \"#utility.yul\":1931:1937   */\n      dup3\n        /* \"#utility.yul\":1920:1929   */\n      dup7\n        /* \"#utility.yul\":1916:1938   */\n      add\n        /* \"#utility.yul\":1895:1948   */\n      tag_201\n      jump\t// in\n    tag_218:\n        /* \"#utility.yul\":1885:1948   */\n      swap2\n      pop\n        /* \"#utility.yul\":1840:1958   */\n      pop\n        /* \"#utility.yul\":1491:1965   */\n      swap3\n      pop\n      swap3\n      swap1\n      pop\n      jump\t// out\n        /* \"#utility.yul\":1971:3420   */\n    tag_49:\n        /* \"#utility.yul\":2095:2101   */\n      0x00\n        /* \"#utility.yul\":2103:2109   */\n      dup1\n        /* \"#utility.yul\":2111:2117   */\n      0x00\n        /* \"#utility.yul\":2119:2125   */\n      dup1\n        /* \"#utility.yul\":2127:2133   */\n      0x00\n        /* \"#utility.yul\":2135:2141   */\n      dup1\n        /* \"#utility.yul\":2143:2149   */\n      0x00\n        /* \"#utility.yul\":2151:2157   */\n      dup1\n        /* \"#utility.yul\":2200:2203   */\n      0xc0\n        /* \"#utility.yul\":2188:2197   */\n      dup10\n        /* \"#utility.yul\":2179:2186   */\n      dup12\n        /* \"#utility.yul\":2175:2198   */\n      sub\n        /* \"#utility.yul\":2171:2204   */\n      slt\n        /* \"#utility.yul\":2168:2288   */\n      iszero\n      tag_220\n      jumpi\n        /* \"#utility.yul\":2207:2286   */\n      tag_221\n      tag_212\n      jump\t// in\n    tag_221:\n        /* \"#utility.yul\":2168:2288   */\n    tag_220:\n        /* \"#utility.yul\":2355:2356   */\n      0x00\n        /* \"#utility.yul\":2344:2353   */\n      dup10\n        /* \"#utility.yul\":2340:2357   */\n      add\n        /* \"#utility.yul\":2327:2358   */\n      calldataload\n        /* \"#utility.yul\":2385:2403   */\n      0xffffffffffffffff\n        /* \"#utility.yul\":2377:2383   */\n      dup2\n        /* \"#utility.yul\":2374:2404   */\n      gt\n        /* \"#utility.yul\":2371:2488   */\n      iszero\n      tag_222\n      jumpi\n        /* \"#utility.yul\":2407:2486   */\n      tag_223\n      tag_224\n      jump\t// in\n    tag_223:\n        /* \"#utility.yul\":2371:2488   */\n    tag_222:\n        /* \"#utility.yul\":2520:2584   */\n      tag_225\n        /* \"#utility.yul\":2576:2583   */\n      dup12\n        /* \"#utility.yul\":2567:2573   */\n      dup3\n        /* \"#utility.yul\":2556:2565   */\n      dup13\n        /* \"#utility.yul\":2552:2574   */\n      add\n        /* \"#utility.yul\":2520:2584   */\n      tag_186\n      jump\t// in\n    tag_225:\n        /* \"#utility.yul\":2502:2584   */\n      swap9\n      pop\n      swap9\n      pop\n        /* \"#utility.yul\":2298:2594   */\n      pop\n        /* \"#utility.yul\":2661:2663   */\n      0x20\n        /* \"#utility.yul\":2650:2659   */\n      dup10\n        /* \"#utility.yul\":2646:2664   */\n      add\n        /* \"#utility.yul\":2633:2665   */\n      calldataload\n        /* \"#utility.yul\":2692:2710   */\n      0xffffffffffffffff\n        /* \"#utility.yul\":2684:2690   */\n      dup2\n        /* \"#utility.yul\":2681:2711   */\n      gt\n        /* \"#utility.yul\":2678:2795   */\n      iszero\n      tag_226\n      jumpi\n        /* \"#utility.yul\":2714:2793   */\n      tag_227\n      tag_224\n      jump\t// in\n    tag_227:\n        /* \"#utility.yul\":2678:2795   */\n    tag_226:\n        /* \"#utility.yul\":2827:2891   */\n      tag_228\n        /* \"#utility.yul\":2883:2890   */\n      dup12\n        /* \"#utility.yul\":2874:2880   */\n      dup3\n        /* \"#utility.yul\":2863:2872   */\n      dup13\n        /* \"#utility.yul\":2859:2881   */\n      add\n        /* \"#utility.yul\":2827:2891   */\n      tag_186\n      jump\t// in\n    tag_228:\n        /* \"#utility.yul\":2809:2891   */\n      swap7\n      pop\n      swap7\n      pop\n        /* \"#utility.yul\":2604:2901   */\n      pop\n        /* \"#utility.yul\":2940:2942   */\n      0x40\n        /* \"#utility.yul\":2966:3019   */\n      tag_229\n        /* \"#utility.yul\":3011:3018   */\n      dup12\n        /* \"#utility.yul\":3002:3008   */\n      dup3\n        /* \"#utility.yul\":2991:3000   */\n      dup13\n        /* \"#utility.yul\":2987:3009   */\n      add\n        /* \"#utility.yul\":2966:3019   */\n      tag_197\n      jump\t// in\n    tag_229:\n        /* \"#utility.yul\":2956:3019   */\n      swap5\n      pop\n        /* \"#utility.yul\":2911:3029   */\n      pop\n        /* \"#utility.yul\":3068:3070   */\n      0x60\n        /* \"#utility.yul\":3094:3147   */\n      tag_230\n        /* \"#utility.yul\":3139:3146   */\n      dup12\n        /* \"#utility.yul\":3130:3136   */\n      dup3\n        /* \"#utility.yul\":3119:3128   */\n      dup13\n        /* \"#utility.yul\":3115:3137   */\n      add\n        /* \"#utility.yul\":3094:3147   */\n      tag_197\n      jump\t// in\n    tag_230:\n        /* \"#utility.yul\":3084:3147   */\n      swap4\n      pop\n        /* \"#utility.yul\":3039:3157   */\n      pop\n        /* \"#utility.yul\":3196:3199   */\n      0x80\n        /* \"#utility.yul\":3223:3275   */\n      tag_231\n        /* \"#utility.yul\":3267:3274   */\n      dup12\n        /* \"#utility.yul\":3258:3264   */\n      dup3\n        /* \"#utility.yul\":3247:3256   */\n      dup13\n        /* \"#utility.yul\":3243:3265   */\n      add\n        /* \"#utility.yul\":3223:3275   */\n      tag_205\n      jump\t// in\n    tag_231:\n        /* \"#utility.yul\":3213:3275   */\n      swap3\n      pop\n        /* \"#utility.yul\":3167:3285   */\n      pop\n        /* \"#utility.yul\":3324:3327   */\n      0xa0\n        /* \"#utility.yul\":3351:3403   */\n      tag_232\n        /* \"#utility.yul\":3395:3402   */\n      dup12\n        /* \"#utility.yul\":3386:3392   */\n      dup3\n        /* \"#utility.yul\":3375:3384   */\n      dup13\n        /* \"#utility.yul\":3371:3393   */\n      add\n        /* \"#utility.yul\":3351:3403   */\n      tag_205\n      jump\t// in\n    tag_232:\n        /* \"#utility.yul\":3341:3403   */\n      swap2\n      pop\n        /* \"#utility.yul\":3295:3413   */\n      pop\n        /* \"#utility.yul\":1971:3420   */\n      swap3\n      swap6\n      swap9\n      pop\n      swap3\n      swap6\n      swap9\n      swap1\n      swap4\n      swap7\n      pop\n      jump\t// out\n        /* \"#utility.yul\":3426:3755   */\n    tag_27:\n        /* \"#utility.yul\":3485:3491   */\n      0x00\n        /* \"#utility.yul\":3534:3536   */\n      0x20\n        /* \"#utility.yul\":3522:3531   */\n      dup3\n        /* \"#utility.yul\":3513:3520   */\n      dup5\n        /* \"#utility.yul\":3509:3532   */\n      sub\n        /* \"#utility.yul\":3505:3537   */\n      slt\n        /* \"#utility.yul\":3502:3621   */\n      iszero\n      tag_234\n      jumpi\n        /* \"#utility.yul\":3540:3619   */\n      tag_235\n      tag_212\n      jump\t// in\n    tag_235:\n        /* \"#utility.yul\":3502:3621   */\n    tag_234:\n        /* \"#utility.yul\":3660:3661   */\n      0x00\n        /* \"#utility.yul\":3685:3738   */\n      tag_236\n        /* \"#utility.yul\":3730:3737   */\n      dup5\n        /* \"#utility.yul\":3721:3727   */\n      dup3\n        /* \"#utility.yul\":3710:3719   */\n      dup6\n        /* \"#utility.yul\":3706:3728   */\n      add\n        /* \"#utility.yul\":3685:3738   */\n      tag_201\n      jump\t// in\n    tag_236:\n        /* \"#utility.yul\":3675:3738   */\n      swap2\n      pop\n        /* \"#utility.yul\":3631:3748   */\n      pop\n        /* \"#utility.yul\":3426:3755   */\n      swap3\n      swap2\n      pop\n      pop\n      jump\t// out\n        /* \"#utility.yul\":3761:4235   */\n    tag_53:\n        /* \"#utility.yul\":3829:3835   */\n      0x00\n        /* \"#utility.yul\":3837:3843   */\n      dup1\n        /* \"#utility.yul\":3886:3888   */\n      0x40\n        /* \"#utility.yul\":3874:3883   */\n      dup4\n        /* \"#utility.yul\":3865:3872   */\n      dup6\n        /* \"#utility.yul\":3861:3884   */\n      sub\n        /* \"#utility.yul\":3857:3889   */\n      slt\n        /* \"#utility.yul\":3854:3973   */\n      iszero\n      tag_238\n      jumpi\n        /* \"#utility.yul\":3892:3971   */\n      tag_239\n      tag_212\n      jump\t// in\n    tag_239:\n        /* \"#utility.yul\":3854:3973   */\n    tag_238:\n        /* \"#utility.yul\":4012:4013   */\n      0x00\n        /* \"#utility.yul\":4037:4090   */\n      tag_240\n        /* \"#utility.yul\":4082:4089   */\n      dup6\n        /* \"#utility.yul\":4073:4079   */\n      dup3\n        /* \"#utility.yul\":4062:4071   */\n      dup7\n        /* \"#utility.yul\":4058:4080   */\n      add\n        /* \"#utility.yul\":4037:4090   */\n      tag_201\n      jump\t// in\n    tag_240:\n        /* \"#utility.yul\":4027:4090   */\n      swap3\n      pop\n        /* \"#utility.yul\":3983:4100   */\n      pop\n        /* \"#utility.yul\":4139:4141   */\n      0x20\n        /* \"#utility.yul\":4165:4218   */\n      tag_241\n        /* \"#utility.yul\":4210:4217   */\n      dup6\n        /* \"#utility.yul\":4201:4207   */\n      dup3\n        /* \"#utility.yul\":4190:4199   */\n      dup7\n        /* \"#utility.yul\":4186:4208   */\n      add\n        /* \"#utility.yul\":4165:4218   */\n      tag_197\n      jump\t// in\n    tag_241:\n        /* \"#utility.yul\":4155:4218   */\n      swap2\n      pop\n        /* \"#utility.yul\":4110:4228   */\n      pop\n        /* \"#utility.yul\":3761:4235   */\n      swap3\n      pop\n      swap3\n      swap1\n      pop\n      jump\t// out\n        /* \"#utility.yul\":4241:4521   */\n    tag_242:\n        /* \"#utility.yul\":4372:4382   */\n      0x00\n        /* \"#utility.yul\":4407:4515   */\n      tag_244\n        /* \"#utility.yul\":4511:4514   */\n      dup4\n        /* \"#utility.yul\":4503:4509   */\n      dup4\n        /* \"#utility.yul\":4407:4515   */\n      tag_245\n      jump\t// in\n    tag_244:\n        /* \"#utility.yul\":4393:4515   */\n      swap1\n      pop\n        /* \"#utility.yul\":4241:4521   */\n      swap3\n      swap2\n      pop\n      pop\n      jump\t// out\n        /* \"#utility.yul\":4527:4706   */\n    tag_246:\n        /* \"#utility.yul\":4596:4606   */\n      0x00\n        /* \"#utility.yul\":4617:4663   */\n      tag_248\n        /* \"#utility.yul\":4659:4662   */\n      dup4\n        /* \"#utility.yul\":4651:4657   */\n      dup4\n        /* \"#utility.yul\":4617:4663   */\n      tag_249\n      jump\t// in\n    tag_248:\n        /* \"#utility.yul\":4695:4699   */\n      0x20\n        /* \"#utility.yul\":4690:4693   */\n      dup4\n        /* \"#utility.yul\":4686:4700   */\n      add\n        /* \"#utility.yul\":4672:4700   */\n      swap1\n      pop\n        /* \"#utility.yul\":4527:4706   */\n      swap3\n      swap2\n      pop\n      pop\n      jump\t// out\n        /* \"#utility.yul\":4712:4820   */\n    tag_250:\n        /* \"#utility.yul\":4789:4813   */\n      tag_252\n        /* \"#utility.yul\":4807:4812   */\n      dup2\n        /* \"#utility.yul\":4789:4813   */\n      tag_253\n      jump\t// in\n    tag_252:\n        /* \"#utility.yul\":4784:4787   */\n      dup3\n        /* \"#utility.yul\":4777:4814   */\n      mstore\n        /* \"#utility.yul\":4712:4820   */\n      pop\n      pop\n      jump\t// out\n        /* \"#utility.yul\":4826:4944   */\n    tag_254:\n        /* \"#utility.yul\":4913:4937   */\n      tag_256\n        /* \"#utility.yul\":4931:4936   */\n      dup2\n        /* \"#utility.yul\":4913:4937   */\n      tag_253\n      jump\t// in\n    tag_256:\n        /* \"#utility.yul\":4908:4911   */\n      dup3\n        /* \"#utility.yul\":4901:4938   */\n      mstore\n        /* \"#utility.yul\":4826:4944   */\n      pop\n      pop\n      jump\t// out\n        /* \"#utility.yul\":5044:6203   */\n    tag_257:\n        /* \"#utility.yul\":5225:5228   */\n      0x00\n        /* \"#utility.yul\":5254:5339   */\n      tag_259\n        /* \"#utility.yul\":5333:5338   */\n      dup3\n        /* \"#utility.yul\":5254:5339   */\n      tag_260\n      jump\t// in\n    tag_259:\n        /* \"#utility.yul\":5355:5472   */\n      tag_261\n        /* \"#utility.yul\":5465:5471   */\n      dup2\n        /* \"#utility.yul\":5460:5463   */\n      dup6\n        /* \"#utility.yul\":5355:5472   */\n      tag_262\n      jump\t// in\n    tag_261:\n        /* \"#utility.yul\":5348:5472   */\n      swap4\n      pop\n        /* \"#utility.yul\":5498:5501   */\n      dup4\n        /* \"#utility.yul\":5543:5547   */\n      0x20\n        /* \"#utility.yul\":5535:5541   */\n      dup3\n        /* \"#utility.yul\":5531:5548   */\n      mul\n        /* \"#utility.yul\":5526:5529   */\n      dup6\n        /* \"#utility.yul\":5522:5549   */\n      add\n        /* \"#utility.yul\":5573:5660   */\n      tag_263\n        /* \"#utility.yul\":5654:5659   */\n      dup6\n        /* \"#utility.yul\":5573:5660   */\n      tag_264\n      jump\t// in\n    tag_263:\n        /* \"#utility.yul\":5683:5690   */\n      dup1\n        /* \"#utility.yul\":5714:5715   */\n      0x00\n        /* \"#utility.yul\":5699:6158   */\n    tag_265:\n        /* \"#utility.yul\":5724:5730   */\n      dup6\n        /* \"#utility.yul\":5721:5722   */\n      dup2\n        /* \"#utility.yul\":5718:5731   */\n      lt\n        /* \"#utility.yul\":5699:6158   */\n      iszero\n      tag_267\n      jumpi\n        /* \"#utility.yul\":5795:5804   */\n      dup5\n        /* \"#utility.yul\":5789:5793   */\n      dup5\n        /* \"#utility.yul\":5785:5805   */\n      sub\n        /* \"#utility.yul\":5780:5783   */\n      dup10\n        /* \"#utility.yul\":5773:5806   */\n      mstore\n        /* \"#utility.yul\":5846:5852   */\n      dup2\n        /* \"#utility.yul\":5840:5853   */\n      mload\n        /* \"#utility.yul\":5874:6000   */\n      tag_268\n        /* \"#utility.yul\":5995:5999   */\n      dup6\n        /* \"#utility.yul\":5980:5993   */\n      dup3\n        /* \"#utility.yul\":5874:6000   */\n      tag_242\n      jump\t// in\n    tag_268:\n        /* \"#utility.yul\":5866:6000   */\n      swap5\n      pop\n        /* \"#utility.yul\":6023:6114   */\n      tag_269\n        /* \"#utility.yul\":6107:6113   */\n      dup4\n        /* \"#utility.yul\":6023:6114   */\n      tag_270\n      jump\t// in\n    tag_269:\n        /* \"#utility.yul\":6013:6114   */\n      swap3\n      pop\n        /* \"#utility.yul\":6143:6147   */\n      0x20\n        /* \"#utility.yul\":6138:6141   */\n      dup11\n        /* \"#utility.yul\":6134:6148   */\n      add\n        /* \"#utility.yul\":6127:6148   */\n      swap10\n      pop\n        /* \"#utility.yul\":5759:6158   */\n      pop\n        /* \"#utility.yul\":5746:5747   */\n      0x01\n        /* \"#utility.yul\":5743:5744   */\n      dup2\n        /* \"#utility.yul\":5739:5748   */\n      add\n        /* \"#utility.yul\":5734:5748   */\n      swap1\n      pop\n        /* \"#utility.yul\":5699:6158   */\n      jump(tag_265)\n    tag_267:\n        /* \"#utility.yul\":5703:5717   */\n      pop\n        /* \"#utility.yul\":6174:6178   */\n      dup3\n        /* \"#utility.yul\":6167:6178   */\n      swap8\n      pop\n        /* \"#utility.yul\":6194:6197   */\n      dup8\n        /* \"#utility.yul\":6187:6197   */\n      swap6\n      pop\n        /* \"#utility.yul\":5230:6203   */\n      pop\n      pop\n      pop\n      pop\n      pop\n        /* \"#utility.yul\":5044:6203   */\n      swap3\n      swap2\n      pop\n      pop\n      jump\t// out\n        /* \"#utility.yul\":6239:6971   */\n    tag_271:\n        /* \"#utility.yul\":6358:6361   */\n      0x00\n        /* \"#utility.yul\":6387:6441   */\n      tag_273\n        /* \"#utility.yul\":6435:6440   */\n      dup3\n        /* \"#utility.yul\":6387:6441   */\n      tag_274\n      jump\t// in\n    tag_273:\n        /* \"#utility.yul\":6457:6543   */\n      tag_275\n        /* \"#utility.yul\":6536:6542   */\n      dup2\n        /* \"#utility.yul\":6531:6534   */\n      dup6\n        /* \"#utility.yul\":6457:6543   */\n      tag_276\n      jump\t// in\n    tag_275:\n        /* \"#utility.yul\":6450:6543   */\n      swap4\n      pop\n        /* \"#utility.yul\":6567:6623   */\n      tag_277\n        /* \"#utility.yul\":6617:6622   */\n      dup4\n        /* \"#utility.yul\":6567:6623   */\n      tag_278\n      jump\t// in\n    tag_277:\n        /* \"#utility.yul\":6646:6653   */\n      dup1\n        /* \"#utility.yul\":6677:6678   */\n      0x00\n        /* \"#utility.yul\":6662:6946   */\n    tag_279:\n        /* \"#utility.yul\":6687:6693   */\n      dup4\n        /* \"#utility.yul\":6684:6685   */\n      dup2\n        /* \"#utility.yul\":6681:6694   */\n      lt\n        /* \"#utility.yul\":6662:6946   */\n      iszero\n      tag_281\n      jumpi\n        /* \"#utility.yul\":6763:6769   */\n      dup2\n        /* \"#utility.yul\":6757:6770   */\n      mload\n        /* \"#utility.yul\":6790:6853   */\n      tag_282\n        /* \"#utility.yul\":6849:6852   */\n      dup9\n        /* \"#utility.yul\":6834:6847   */\n      dup3\n        /* \"#utility.yul\":6790:6853   */\n      tag_246\n      jump\t// in\n    tag_282:\n        /* \"#utility.yul\":6783:6853   */\n      swap8\n      pop\n        /* \"#utility.yul\":6876:6936   */\n      tag_283\n        /* \"#utility.yul\":6929:6935   */\n      dup4\n        /* \"#utility.yul\":6876:6936   */\n      tag_284\n      jump\t// in\n    tag_283:\n        /* \"#utility.yul\":6866:6936   */\n      swap3\n      pop\n        /* \"#utility.yul\":6722:6946   */\n      pop\n        /* \"#utility.yul\":6709:6710   */\n      0x01\n        /* \"#utility.yul\":6706:6707   */\n      dup2\n        /* \"#utility.yul\":6702:6711   */\n      add\n        /* \"#utility.yul\":6697:6711   */\n      swap1\n      pop\n        /* \"#utility.yul\":6662:6946   */\n      jump(tag_279)\n    tag_281:\n        /* \"#utility.yul\":6666:6680   */\n      pop\n        /* \"#utility.yul\":6962:6965   */\n      dup6\n        /* \"#utility.yul\":6955:6965   */\n      swap4\n      pop\n        /* \"#utility.yul\":6363:6971   */\n      pop\n      pop\n      pop\n        /* \"#utility.yul\":6239:6971   */\n      swap3\n      swap2\n      pop\n      pop\n      jump\t// out\n        /* \"#utility.yul\":6977:7076   */\n    tag_285:\n        /* \"#utility.yul\":7048:7069   */\n      tag_287\n        /* \"#utility.yul\":7063:7068   */\n      dup2\n        /* \"#utility.yul\":7048:7069   */\n      tag_288\n      jump\t// in\n    tag_287:\n        /* \"#utility.yul\":7043:7046   */\n      dup3\n        /* \"#utility.yul\":7036:7070   */\n      mstore\n        /* \"#utility.yul\":6977:7076   */\n      pop\n      pop\n      jump\t// out\n        /* \"#utility.yul\":7082:7191   */\n    tag_289:\n        /* \"#utility.yul\":7163:7184   */\n      tag_291\n        /* \"#utility.yul\":7178:7183   */\n      dup2\n        /* \"#utility.yul\":7163:7184   */\n      tag_288\n      jump\t// in\n    tag_291:\n        /* \"#utility.yul\":7158:7161   */\n      dup3\n        /* \"#utility.yul\":7151:7185   */\n      mstore\n        /* \"#utility.yul\":7082:7191   */\n      pop\n      pop\n      jump\t// out\n        /* \"#utility.yul\":7219:7520   */\n    tag_292:\n        /* \"#utility.yul\":7315:7318   */\n      0x00\n        /* \"#utility.yul\":7336:7406   */\n      tag_294\n        /* \"#utility.yul\":7399:7405   */\n      dup4\n        /* \"#utility.yul\":7394:7397   */\n      dup6\n        /* \"#utility.yul\":7336:7406   */\n      tag_295\n      jump\t// in\n    tag_294:\n        /* \"#utility.yul\":7329:7406   */\n      swap4\n      pop\n        /* \"#utility.yul\":7416:7459   */\n      tag_296\n        /* \"#utility.yul\":7452:7458   */\n      dup4\n        /* \"#utility.yul\":7447:7450   */\n      dup6\n        /* \"#utility.yul\":7440:7445   */\n      dup5\n        /* \"#utility.yul\":7416:7459   */\n      tag_297\n      jump\t// in\n    tag_296:\n        /* \"#utility.yul\":7484:7513   */\n      tag_298\n        /* \"#utility.yul\":7506:7512   */\n      dup4\n        /* \"#utility.yul\":7484:7513   */\n      tag_299\n      jump\t// in\n    tag_298:\n        /* \"#utility.yul\":7479:7482   */\n      dup5\n        /* \"#utility.yul\":7475:7514   */\n      add\n        /* \"#utility.yul\":7468:7514   */\n      swap1\n      pop\n        /* \"#utility.yul\":7219:7520   */\n      swap4\n      swap3\n      pop\n      pop\n      pop\n      jump\t// out\n        /* \"#utility.yul\":7526:7866   */\n    tag_300:\n        /* \"#utility.yul\":7602:7605   */\n      0x00\n        /* \"#utility.yul\":7630:7668   */\n      tag_302\n        /* \"#utility.yul\":7662:7667   */\n      dup3\n        /* \"#utility.yul\":7630:7668   */\n      tag_303\n      jump\t// in\n    tag_302:\n        /* \"#utility.yul\":7684:7744   */\n      tag_304\n        /* \"#utility.yul\":7737:7743   */\n      dup2\n        /* \"#utility.yul\":7732:7735   */\n      dup6\n        /* \"#utility.yul\":7684:7744   */\n      tag_305\n      jump\t// in\n    tag_304:\n        /* \"#utility.yul\":7677:7744   */\n      swap4\n      pop\n        /* \"#utility.yul\":7753:7805   */\n      tag_306\n        /* \"#utility.yul\":7798:7804   */\n      dup2\n        /* \"#utility.yul\":7793:7796   */\n      dup6\n        /* \"#utility.yul\":7786:7790   */\n      0x20\n        /* \"#utility.yul\":7779:7784   */\n      dup7\n        /* \"#utility.yul\":7775:7791   */\n      add\n        /* \"#utility.yul\":7753:7805   */\n      tag_307\n      jump\t// in\n    tag_306:\n        /* \"#utility.yul\":7830:7859   */\n      tag_308\n        /* \"#utility.yul\":7852:7858   */\n      dup2\n        /* \"#utility.yul\":7830:7859   */\n      tag_299\n      jump\t// in\n    tag_308:\n        /* \"#utility.yul\":7825:7828   */\n      dup5\n        /* \"#utility.yul\":7821:7860   */\n      add\n        /* \"#utility.yul\":7814:7860   */\n      swap2\n      pop\n        /* \"#utility.yul\":7606:7866   */\n      pop\n        /* \"#utility.yul\":7526:7866   */\n      swap3\n      swap2\n      pop\n      pop\n      jump\t// out\n        /* \"#utility.yul\":7872:8232   */\n    tag_309:\n        /* \"#utility.yul\":7958:7961   */\n      0x00\n        /* \"#utility.yul\":7986:8024   */\n      tag_311\n        /* \"#utility.yul\":8018:8023   */\n      dup3\n        /* \"#utility.yul\":7986:8024   */\n      tag_303\n      jump\t// in\n    tag_311:\n        /* \"#utility.yul\":8040:8110   */\n      tag_312\n        /* \"#utility.yul\":8103:8109   */\n      dup2\n        /* \"#utility.yul\":8098:8101   */\n      dup6\n        /* \"#utility.yul\":8040:8110   */\n      tag_295\n      jump\t// in\n    tag_312:\n        /* \"#utility.yul\":8033:8110   */\n      swap4\n      pop\n        /* \"#utility.yul\":8119:8171   */\n      tag_313\n        /* \"#utility.yul\":8164:8170   */\n      dup2\n        /* \"#utility.yul\":8159:8162   */\n      dup6\n        /* \"#utility.yul\":8152:8156   */\n      0x20\n        /* \"#utility.yul\":8145:8150   */\n      dup7\n        /* \"#utility.yul\":8141:8157   */\n      add\n        /* \"#utility.yul\":8119:8171   */\n      tag_307\n      jump\t// in\n    tag_313:\n        /* \"#utility.yul\":8196:8225   */\n      tag_314\n        /* \"#utility.yul\":8218:8224   */\n      dup2\n        /* \"#utility.yul\":8196:8225   */\n      tag_299\n      jump\t// in\n    tag_314:\n        /* \"#utility.yul\":8191:8194   */\n      dup5\n        /* \"#utility.yul\":8187:8226   */\n      add\n        /* \"#utility.yul\":8180:8226   */\n      swap2\n      pop\n        /* \"#utility.yul\":7962:8232   */\n      pop\n        /* \"#utility.yul\":7872:8232   */\n      swap3\n      swap2\n      pop\n      pop\n      jump\t// out\n        /* \"#utility.yul\":8328:10087   */\n    tag_245:\n        /* \"#utility.yul\":8449:8452   */\n      0x00\n        /* \"#utility.yul\":8485:8491   */\n      0x0100\n        /* \"#utility.yul\":8480:8483   */\n      dup4\n        /* \"#utility.yul\":8476:8492   */\n      add\n        /* \"#utility.yul\":8585:8589   */\n      0x00\n        /* \"#utility.yul\":8578:8583   */\n      dup4\n        /* \"#utility.yul\":8574:8590   */\n      add\n        /* \"#utility.yul\":8568:8591   */\n      mload\n        /* \"#utility.yul\":8604:8667   */\n      tag_316\n        /* \"#utility.yul\":8661:8665   */\n      0x00\n        /* \"#utility.yul\":8656:8659   */\n      dup7\n        /* \"#utility.yul\":8652:8666   */\n      add\n        /* \"#utility.yul\":8638:8650   */\n      dup3\n        /* \"#utility.yul\":8604:8667   */\n      tag_250\n      jump\t// in\n    tag_316:\n        /* \"#utility.yul\":8502:8677   */\n      pop\n        /* \"#utility.yul\":8762:8766   */\n      0x20\n        /* \"#utility.yul\":8755:8760   */\n      dup4\n        /* \"#utility.yul\":8751:8767   */\n      add\n        /* \"#utility.yul\":8745:8768   */\n      mload\n        /* \"#utility.yul\":8815:8818   */\n      dup5\n        /* \"#utility.yul\":8809:8813   */\n      dup3\n        /* \"#utility.yul\":8805:8819   */\n      sub\n        /* \"#utility.yul\":8798:8802   */\n      0x20\n        /* \"#utility.yul\":8793:8796   */\n      dup7\n        /* \"#utility.yul\":8789:8803   */\n      add\n        /* \"#utility.yul\":8782:8820   */\n      mstore\n        /* \"#utility.yul\":8841:8912   */\n      tag_317\n        /* \"#utility.yul\":8907:8911   */\n      dup3\n        /* \"#utility.yul\":8893:8905   */\n      dup3\n        /* \"#utility.yul\":8841:8912   */\n      tag_300\n      jump\t// in\n    tag_317:\n        /* \"#utility.yul\":8833:8912   */\n      swap2\n      pop\n        /* \"#utility.yul\":8687:8923   */\n      pop\n        /* \"#utility.yul\":9015:9019   */\n      0x40\n        /* \"#utility.yul\":9008:9013   */\n      dup4\n        /* \"#utility.yul\":9004:9020   */\n      add\n        /* \"#utility.yul\":8998:9021   */\n      mload\n        /* \"#utility.yul\":9068:9071   */\n      dup5\n        /* \"#utility.yul\":9062:9066   */\n      dup3\n        /* \"#utility.yul\":9058:9072   */\n      sub\n        /* \"#utility.yul\":9051:9055   */\n      0x40\n        /* \"#utility.yul\":9046:9049   */\n      dup7\n        /* \"#utility.yul\":9042:9056   */\n      add\n        /* \"#utility.yul\":9035:9073   */\n      mstore\n        /* \"#utility.yul\":9094:9165   */\n      tag_318\n        /* \"#utility.yul\":9160:9164   */\n      dup3\n        /* \"#utility.yul\":9146:9158   */\n      dup3\n        /* \"#utility.yul\":9094:9165   */\n      tag_300\n      jump\t// in\n    tag_318:\n        /* \"#utility.yul\":9086:9165   */\n      swap2\n      pop\n        /* \"#utility.yul\":8933:9176   */\n      pop\n        /* \"#utility.yul\":9261:9265   */\n      0x60\n        /* \"#utility.yul\":9254:9259   */\n      dup4\n        /* \"#utility.yul\":9250:9266   */\n      add\n        /* \"#utility.yul\":9244:9267   */\n      mload\n        /* \"#utility.yul\":9280:9343   */\n      tag_319\n        /* \"#utility.yul\":9337:9341   */\n      0x60\n        /* \"#utility.yul\":9332:9335   */\n      dup7\n        /* \"#utility.yul\":9328:9342   */\n      add\n        /* \"#utility.yul\":9314:9326   */\n      dup3\n        /* \"#utility.yul\":9280:9343   */\n      tag_320\n      jump\t// in\n    tag_319:\n        /* \"#utility.yul\":9186:9353   */\n      pop\n        /* \"#utility.yul\":9439:9443   */\n      0x80\n        /* \"#utility.yul\":9432:9437   */\n      dup4\n        /* \"#utility.yul\":9428:9444   */\n      add\n        /* \"#utility.yul\":9422:9445   */\n      mload\n        /* \"#utility.yul\":9458:9521   */\n      tag_321\n        /* \"#utility.yul\":9515:9519   */\n      0x80\n        /* \"#utility.yul\":9510:9513   */\n      dup7\n        /* \"#utility.yul\":9506:9520   */\n      add\n        /* \"#utility.yul\":9492:9504   */\n      dup3\n        /* \"#utility.yul\":9458:9521   */\n      tag_320\n      jump\t// in\n    tag_321:\n        /* \"#utility.yul\":9363:9531   */\n      pop\n        /* \"#utility.yul\":9616:9620   */\n      0xa0\n        /* \"#utility.yul\":9609:9614   */\n      dup4\n        /* \"#utility.yul\":9605:9621   */\n      add\n        /* \"#utility.yul\":9599:9622   */\n      mload\n        /* \"#utility.yul\":9635:9696   */\n      tag_322\n        /* \"#utility.yul\":9690:9694   */\n      0xa0\n        /* \"#utility.yul\":9685:9688   */\n      dup7\n        /* \"#utility.yul\":9681:9695   */\n      add\n        /* \"#utility.yul\":9667:9679   */\n      dup3\n        /* \"#utility.yul\":9635:9696   */\n      tag_323\n      jump\t// in\n    tag_322:\n        /* \"#utility.yul\":9541:9706   */\n      pop\n        /* \"#utility.yul\":9797:9801   */\n      0xc0\n        /* \"#utility.yul\":9790:9795   */\n      dup4\n        /* \"#utility.yul\":9786:9802   */\n      add\n        /* \"#utility.yul\":9780:9803   */\n      mload\n        /* \"#utility.yul\":9816:9877   */\n      tag_324\n        /* \"#utility.yul\":9871:9875   */\n      0xc0\n        /* \"#utility.yul\":9866:9869   */\n      dup7\n        /* \"#utility.yul\":9862:9876   */\n      add\n        /* \"#utility.yul\":9848:9860   */\n      dup3\n        /* \"#utility.yul\":9816:9877   */\n      tag_323\n      jump\t// in\n    tag_324:\n        /* \"#utility.yul\":9716:9887   */\n      pop\n        /* \"#utility.yul\":9974:9978   */\n      0xe0\n        /* \"#utility.yul\":9967:9972   */\n      dup4\n        /* \"#utility.yul\":9963:9979   */\n      add\n        /* \"#utility.yul\":9957:9980   */\n      mload\n        /* \"#utility.yul\":9993:10050   */\n      tag_325\n        /* \"#utility.yul\":10044:10048   */\n      0xe0\n        /* \"#utility.yul\":10039:10042   */\n      dup7\n        /* \"#utility.yul\":10035:10049   */\n      add\n        /* \"#utility.yul\":10021:10033   */\n      dup3\n        /* \"#utility.yul\":9993:10050   */\n      tag_285\n      jump\t// in\n    tag_325:\n        /* \"#utility.yul\":9897:10060   */\n      pop\n        /* \"#utility.yul\":10077:10081   */\n      dup1\n        /* \"#utility.yul\":10070:10081   */\n      swap2\n      pop\n        /* \"#utility.yul\":8454:10087   */\n      pop\n        /* \"#utility.yul\":8328:10087   */\n      swap3\n      swap2\n      pop\n      pop\n      jump\t// out\n        /* \"#utility.yul\":10183:11952   */\n    tag_326:\n        /* \"#utility.yul\":10314:10317   */\n      0x00\n        /* \"#utility.yul\":10350:10356   */\n      0x0100\n        /* \"#utility.yul\":10345:10348   */\n      dup4\n        /* \"#utility.yul\":10341:10357   */\n      add\n        /* \"#utility.yul\":10450:10454   */\n      0x00\n        /* \"#utility.yul\":10443:10448   */\n      dup4\n        /* \"#utility.yul\":10439:10455   */\n      add\n        /* \"#utility.yul\":10433:10456   */\n      mload\n        /* \"#utility.yul\":10469:10532   */\n      tag_328\n        /* \"#utility.yul\":10526:10530   */\n      0x00\n        /* \"#utility.yul\":10521:10524   */\n      dup7\n        /* \"#utility.yul\":10517:10531   */\n      add\n        /* \"#utility.yul\":10503:10515   */\n      dup3\n        /* \"#utility.yul\":10469:10532   */\n      tag_250\n      jump\t// in\n    tag_328:\n        /* \"#utility.yul\":10367:10542   */\n      pop\n        /* \"#utility.yul\":10627:10631   */\n      0x20\n        /* \"#utility.yul\":10620:10625   */\n      dup4\n        /* \"#utility.yul\":10616:10632   */\n      add\n        /* \"#utility.yul\":10610:10633   */\n      mload\n        /* \"#utility.yul\":10680:10683   */\n      dup5\n        /* \"#utility.yul\":10674:10678   */\n      dup3\n        /* \"#utility.yul\":10670:10684   */\n      sub\n        /* \"#utility.yul\":10663:10667   */\n      0x20\n        /* \"#utility.yul\":10658:10661   */\n      dup7\n        /* \"#utility.yul\":10654:10668   */\n      add\n        /* \"#utility.yul\":10647:10685   */\n      mstore\n        /* \"#utility.yul\":10706:10777   */\n      tag_329\n        /* \"#utility.yul\":10772:10776   */\n      dup3\n        /* \"#utility.yul\":10758:10770   */\n      dup3\n        /* \"#utility.yul\":10706:10777   */\n      tag_300\n      jump\t// in\n    tag_329:\n        /* \"#utility.yul\":10698:10777   */\n      swap2\n      pop\n        /* \"#utility.yul\":10552:10788   */\n      pop\n        /* \"#utility.yul\":10880:10884   */\n      0x40\n        /* \"#utility.yul\":10873:10878   */\n      dup4\n        /* \"#utility.yul\":10869:10885   */\n      add\n        /* \"#utility.yul\":10863:10886   */\n      mload\n        /* \"#utility.yul\":10933:10936   */\n      dup5\n        /* \"#utility.yul\":10927:10931   */\n      dup3\n        /* \"#utility.yul\":10923:10937   */\n      sub\n        /* \"#utility.yul\":10916:10920   */\n      0x40\n        /* \"#utility.yul\":10911:10914   */\n      dup7\n        /* \"#utility.yul\":10907:10921   */\n      add\n        /* \"#utility.yul\":10900:10938   */\n      mstore\n        /* \"#utility.yul\":10959:11030   */\n      tag_330\n        /* \"#utility.yul\":11025:11029   */\n      dup3\n        /* \"#utility.yul\":11011:11023   */\n      dup3\n        /* \"#utility.yul\":10959:11030   */\n      tag_300\n      jump\t// in\n    tag_330:\n        /* \"#utility.yul\":10951:11030   */\n      swap2\n      pop\n        /* \"#utility.yul\":10798:11041   */\n      pop\n        /* \"#utility.yul\":11126:11130   */\n      0x60\n        /* \"#utility.yul\":11119:11124   */\n      dup4\n        /* \"#utility.yul\":11115:11131   */\n      add\n        /* \"#utility.yul\":11109:11132   */\n      mload\n        /* \"#utility.yul\":11145:11208   */\n      tag_331\n        /* \"#utility.yul\":11202:11206   */\n      0x60\n        /* \"#utility.yul\":11197:11200   */\n      dup7\n        /* \"#utility.yul\":11193:11207   */\n      add\n        /* \"#utility.yul\":11179:11191   */\n      dup3\n        /* \"#utility.yul\":11145:11208   */\n      tag_320\n      jump\t// in\n    tag_331:\n        /* \"#utility.yul\":11051:11218   */\n      pop\n        /* \"#utility.yul\":11304:11308   */\n      0x80\n        /* \"#utility.yul\":11297:11302   */\n      dup4\n        /* \"#utility.yul\":11293:11309   */\n      add\n        /* \"#utility.yul\":11287:11310   */\n      mload\n        /* \"#utility.yul\":11323:11386   */\n      tag_332\n        /* \"#utility.yul\":11380:11384   */\n      0x80\n        /* \"#utility.yul\":11375:11378   */\n      dup7\n        /* \"#utility.yul\":11371:11385   */\n      add\n        /* \"#utility.yul\":11357:11369   */\n      dup3\n        /* \"#utility.yul\":11323:11386   */\n      tag_320\n      jump\t// in\n    tag_332:\n        /* \"#utility.yul\":11228:11396   */\n      pop\n        /* \"#utility.yul\":11481:11485   */\n      0xa0\n        /* \"#utility.yul\":11474:11479   */\n      dup4\n        /* \"#utility.yul\":11470:11486   */\n      add\n        /* \"#utility.yul\":11464:11487   */\n      mload\n        /* \"#utility.yul\":11500:11561   */\n      tag_333\n        /* \"#utility.yul\":11555:11559   */\n      0xa0\n        /* \"#utility.yul\":11550:11553   */\n      dup7\n        /* \"#utility.yul\":11546:11560   */\n      add\n        /* \"#utility.yul\":11532:11544   */\n      dup3\n        /* \"#utility.yul\":11500:11561   */\n      tag_323\n      jump\t// in\n    tag_333:\n        /* \"#utility.yul\":11406:11571   */\n      pop\n        /* \"#utility.yul\":11662:11666   */\n      0xc0\n        /* \"#utility.yul\":11655:11660   */\n      dup4\n        /* \"#utility.yul\":11651:11667   */\n      add\n        /* \"#utility.yul\":11645:11668   */\n      mload\n        /* \"#utility.yul\":11681:11742   */\n      tag_334\n        /* \"#utility.yul\":11736:11740   */\n      0xc0\n        /* \"#utility.yul\":11731:11734   */\n      dup7\n        /* \"#utility.yul\":11727:11741   */\n      add\n        /* \"#utility.yul\":11713:11725   */\n      dup3\n        /* \"#utility.yul\":11681:11742   */\n      tag_323\n      jump\t// in\n    tag_334:\n        /* \"#utility.yul\":11581:11752   */\n      pop\n        /* \"#utility.yul\":11839:11843   */\n      0xe0\n        /* \"#utility.yul\":11832:11837   */\n      dup4\n        /* \"#utility.yul\":11828:11844   */\n      add\n        /* \"#utility.yul\":11822:11845   */\n      mload\n        /* \"#utility.yul\":11858:11915   */\n      tag_335\n        /* \"#utility.yul\":11909:11913   */\n      0xe0\n        /* \"#utility.yul\":11904:11907   */\n      dup7\n        /* \"#utility.yul\":11900:11914   */\n      add\n        /* \"#utility.yul\":11886:11898   */\n      dup3\n        /* \"#utility.yul\":11858:11915   */\n      tag_285\n      jump\t// in\n    tag_335:\n        /* \"#utility.yul\":11762:11925   */\n      pop\n        /* \"#utility.yul\":11942:11946   */\n      dup1\n        /* \"#utility.yul\":11935:11946   */\n      swap2\n      pop\n        /* \"#utility.yul\":10319:11952   */\n      pop\n        /* \"#utility.yul\":10183:11952   */\n      swap3\n      swap2\n      pop\n      pop\n      jump\t// out\n        /* \"#utility.yul\":11958:12066   */\n    tag_320:\n        /* \"#utility.yul\":12035:12059   */\n      tag_337\n        /* \"#utility.yul\":12053:12058   */\n      dup2\n        /* \"#utility.yul\":12035:12059   */\n      tag_338\n      jump\t// in\n    tag_337:\n        /* \"#utility.yul\":12030:12033   */\n      dup3\n        /* \"#utility.yul\":12023:12060   */\n      mstore\n        /* \"#utility.yul\":11958:12066   */\n      pop\n      pop\n      jump\t// out\n        /* \"#utility.yul\":12072:12190   */\n    tag_339:\n        /* \"#utility.yul\":12159:12183   */\n      tag_341\n        /* \"#utility.yul\":12177:12182   */\n      dup2\n        /* \"#utility.yul\":12159:12183   */\n      tag_338\n      jump\t// in\n    tag_341:\n        /* \"#utility.yul\":12154:12157   */\n      dup3\n        /* \"#utility.yul\":12147:12184   */\n      mstore\n        /* \"#utility.yul\":12072:12190   */\n      pop\n      pop\n      jump\t// out\n        /* \"#utility.yul\":12196:12304   */\n    tag_249:\n        /* \"#utility.yul\":12273:12297   */\n      tag_343\n        /* \"#utility.yul\":12291:12296   */\n      dup2\n        /* \"#utility.yul\":12273:12297   */\n      tag_344\n      jump\t// in\n    tag_343:\n        /* \"#utility.yul\":12268:12271   */\n      dup3\n        /* \"#utility.yul\":12261:12298   */\n      mstore\n        /* \"#utility.yul\":12196:12304   */\n      pop\n      pop\n      jump\t// out\n        /* \"#utility.yul\":12310:12428   */\n    tag_345:\n        /* \"#utility.yul\":12397:12421   */\n      tag_347\n        /* \"#utility.yul\":12415:12420   */\n      dup2\n        /* \"#utility.yul\":12397:12421   */\n      tag_344\n      jump\t// in\n    tag_347:\n        /* \"#utility.yul\":12392:12395   */\n      dup3\n        /* \"#utility.yul\":12385:12422   */\n      mstore\n        /* \"#utility.yul\":12310:12428   */\n      pop\n      pop\n      jump\t// out\n        /* \"#utility.yul\":12434:12539   */\n    tag_323:\n        /* \"#utility.yul\":12509:12532   */\n      tag_349\n        /* \"#utility.yul\":12526:12531   */\n      dup2\n        /* \"#utility.yul\":12509:12532   */\n      tag_350\n      jump\t// in\n    tag_349:\n        /* \"#utility.yul\":12504:12507   */\n      dup3\n        /* \"#utility.yul\":12497:12533   */\n      mstore\n        /* \"#utility.yul\":12434:12539   */\n      pop\n      pop\n      jump\t// out\n        /* \"#utility.yul\":12545:12660   */\n    tag_351:\n        /* \"#utility.yul\":12630:12653   */\n      tag_353\n        /* \"#utility.yul\":12647:12652   */\n      dup2\n        /* \"#utility.yul\":12630:12653   */\n      tag_350\n      jump\t// in\n    tag_353:\n        /* \"#utility.yul\":12625:12628   */\n      dup3\n        /* \"#utility.yul\":12618:12654   */\n      mstore\n        /* \"#utility.yul\":12545:12660   */\n      pop\n      pop\n      jump\t// out\n        /* \"#utility.yul\":12666:13817   */\n    tag_30:\n        /* \"#utility.yul\":12981:12985   */\n      0x00\n        /* \"#utility.yul\":13019:13022   */\n      0x0100\n        /* \"#utility.yul\":13008:13017   */\n      dup3\n        /* \"#utility.yul\":13004:13023   */\n      add\n        /* \"#utility.yul\":12996:13023   */\n      swap1\n      pop\n        /* \"#utility.yul\":13033:13104   */\n      tag_355\n        /* \"#utility.yul\":13101:13102   */\n      0x00\n        /* \"#utility.yul\":13090:13099   */\n      dup4\n        /* \"#utility.yul\":13086:13103   */\n      add\n        /* \"#utility.yul\":13077:13083   */\n      dup12\n        /* \"#utility.yul\":13033:13104   */\n      tag_254\n      jump\t// in\n    tag_355:\n        /* \"#utility.yul\":13151:13160   */\n      dup2\n        /* \"#utility.yul\":13145:13149   */\n      dup2\n        /* \"#utility.yul\":13141:13161   */\n      sub\n        /* \"#utility.yul\":13136:13138   */\n      0x20\n        /* \"#utility.yul\":13125:13134   */\n      dup4\n        /* \"#utility.yul\":13121:13139   */\n      add\n        /* \"#utility.yul\":13114:13162   */\n      mstore\n        /* \"#utility.yul\":13179:13255   */\n      tag_356\n        /* \"#utility.yul\":13250:13254   */\n      dup2\n        /* \"#utility.yul\":13241:13247   */\n      dup11\n        /* \"#utility.yul\":13179:13255   */\n      tag_309\n      jump\t// in\n    tag_356:\n        /* \"#utility.yul\":13171:13255   */\n      swap1\n      pop\n        /* \"#utility.yul\":13302:13311   */\n      dup2\n        /* \"#utility.yul\":13296:13300   */\n      dup2\n        /* \"#utility.yul\":13292:13312   */\n      sub\n        /* \"#utility.yul\":13287:13289   */\n      0x40\n        /* \"#utility.yul\":13276:13285   */\n      dup4\n        /* \"#utility.yul\":13272:13290   */\n      add\n        /* \"#utility.yul\":13265:13313   */\n      mstore\n        /* \"#utility.yul\":13330:13406   */\n      tag_357\n        /* \"#utility.yul\":13401:13405   */\n      dup2\n        /* \"#utility.yul\":13392:13398   */\n      dup10\n        /* \"#utility.yul\":13330:13406   */\n      tag_309\n      jump\t// in\n    tag_357:\n        /* \"#utility.yul\":13322:13406   */\n      swap1\n      pop\n        /* \"#utility.yul\":13416:13488   */\n      tag_358\n        /* \"#utility.yul\":13484:13486   */\n      0x60\n        /* \"#utility.yul\":13473:13482   */\n      dup4\n        /* \"#utility.yul\":13469:13487   */\n      add\n        /* \"#utility.yul\":13460:13466   */\n      dup9\n        /* \"#utility.yul\":13416:13488   */\n      tag_339\n      jump\t// in\n    tag_358:\n        /* \"#utility.yul\":13498:13571   */\n      tag_359\n        /* \"#utility.yul\":13566:13569   */\n      0x80\n        /* \"#utility.yul\":13555:13564   */\n      dup4\n        /* \"#utility.yul\":13551:13570   */\n      add\n        /* \"#utility.yul\":13542:13548   */\n      dup8\n        /* \"#utility.yul\":13498:13571   */\n      tag_339\n      jump\t// in\n    tag_359:\n        /* \"#utility.yul\":13581:13652   */\n      tag_360\n        /* \"#utility.yul\":13647:13650   */\n      0xa0\n        /* \"#utility.yul\":13636:13645   */\n      dup4\n        /* \"#utility.yul\":13632:13651   */\n      add\n        /* \"#utility.yul\":13623:13629   */\n      dup7\n        /* \"#utility.yul\":13581:13652   */\n      tag_351\n      jump\t// in\n    tag_360:\n        /* \"#utility.yul\":13662:13733   */\n      tag_361\n        /* \"#utility.yul\":13728:13731   */\n      0xc0\n        /* \"#utility.yul\":13717:13726   */\n      dup4\n        /* \"#utility.yul\":13713:13732   */\n      add\n        /* \"#utility.yul\":13704:13710   */\n      dup6\n        /* \"#utility.yul\":13662:13733   */\n      tag_351\n      jump\t// in\n    tag_361:\n        /* \"#utility.yul\":13743:13810   */\n      tag_362\n        /* \"#utility.yul\":13805:13808   */\n      0xe0\n        /* \"#utility.yul\":13794:13803   */\n      dup4\n        /* \"#utility.yul\":13790:13809   */\n      add\n        /* \"#utility.yul\":13781:13787   */\n      dup5\n        /* \"#utility.yul\":13743:13810   */\n      tag_289\n      jump\t// in\n    tag_362:\n        /* \"#utility.yul\":12666:13817   */\n      swap10\n      swap9\n      pop\n      pop\n      pop\n      pop\n      pop\n      pop\n      pop\n      pop\n      pop\n      jump\t// out\n        /* \"#utility.yul\":13823:14581   */\n    tag_18:\n        /* \"#utility.yul\":14106:14110   */\n      0x00\n        /* \"#utility.yul\":14144:14146   */\n      0x40\n        /* \"#utility.yul\":14133:14142   */\n      dup3\n        /* \"#utility.yul\":14129:14147   */\n      add\n        /* \"#utility.yul\":14121:14147   */\n      swap1\n      pop\n        /* \"#utility.yul\":14193:14202   */\n      dup2\n        /* \"#utility.yul\":14187:14191   */\n      dup2\n        /* \"#utility.yul\":14183:14203   */\n      sub\n        /* \"#utility.yul\":14179:14180   */\n      0x00\n        /* \"#utility.yul\":14168:14177   */\n      dup4\n        /* \"#utility.yul\":14164:14181   */\n      add\n        /* \"#utility.yul\":14157:14204   */\n      mstore\n        /* \"#utility.yul\":14221:14391   */\n      tag_364\n        /* \"#utility.yul\":14386:14390   */\n      dup2\n        /* \"#utility.yul\":14377:14383   */\n      dup6\n        /* \"#utility.yul\":14221:14391   */\n      tag_257\n      jump\t// in\n    tag_364:\n        /* \"#utility.yul\":14213:14391   */\n      swap1\n      pop\n        /* \"#utility.yul\":14438:14447   */\n      dup2\n        /* \"#utility.yul\":14432:14436   */\n      dup2\n        /* \"#utility.yul\":14428:14448   */\n      sub\n        /* \"#utility.yul\":14423:14425   */\n      0x20\n        /* \"#utility.yul\":14412:14421   */\n      dup4\n        /* \"#utility.yul\":14408:14426   */\n      add\n        /* \"#utility.yul\":14401:14449   */\n      mstore\n        /* \"#utility.yul\":14466:14574   */\n      tag_365\n        /* \"#utility.yul\":14569:14573   */\n      dup2\n        /* \"#utility.yul\":14560:14566   */\n      dup5\n        /* \"#utility.yul\":14466:14574   */\n      tag_271\n      jump\t// in\n    tag_365:\n        /* \"#utility.yul\":14458:14574   */\n      swap1\n      pop\n        /* \"#utility.yul\":13823:14581   */\n      swap4\n      swap3\n      pop\n      pop\n      pop\n      jump\t// out\n        /* \"#utility.yul\":14587:14960   */\n    tag_46:\n        /* \"#utility.yul\":14730:14734   */\n      0x00\n        /* \"#utility.yul\":14768:14770   */\n      0x20\n        /* \"#utility.yul\":14757:14766   */\n      dup3\n        /* \"#utility.yul\":14753:14771   */\n      add\n        /* \"#utility.yul\":14745:14771   */\n      swap1\n      pop\n        /* \"#utility.yul\":14817:14826   */\n      dup2\n        /* \"#utility.yul\":14811:14815   */\n      dup2\n        /* \"#utility.yul\":14807:14827   */\n      sub\n        /* \"#utility.yul\":14803:14804   */\n      0x00\n        /* \"#utility.yul\":14792:14801   */\n      dup4\n        /* \"#utility.yul\":14788:14805   */\n      add\n        /* \"#utility.yul\":14781:14828   */\n      mstore\n        /* \"#utility.yul\":14845:14953   */\n      tag_367\n        /* \"#utility.yul\":14948:14952   */\n      dup2\n        /* \"#utility.yul\":14939:14945   */\n      dup5\n        /* \"#utility.yul\":14845:14953   */\n      tag_271\n      jump\t// in\n    tag_367:\n        /* \"#utility.yul\":14837:14953   */\n      swap1\n      pop\n        /* \"#utility.yul\":14587:14960   */\n      swap3\n      swap2\n      pop\n      pop\n      jump\t// out\n        /* \"#utility.yul\":14966:16058   */\n    tag_164:\n        /* \"#utility.yul\":15279:15283   */\n      0x00\n        /* \"#utility.yul\":15317:15320   */\n      0xe0\n        /* \"#utility.yul\":15306:15315   */\n      dup3\n        /* \"#utility.yul\":15302:15321   */\n      add\n        /* \"#utility.yul\":15294:15321   */\n      swap1\n      pop\n        /* \"#utility.yul\":15367:15376   */\n      dup2\n        /* \"#utility.yul\":15361:15365   */\n      dup2\n        /* \"#utility.yul\":15357:15377   */\n      sub\n        /* \"#utility.yul\":15353:15354   */\n      0x00\n        /* \"#utility.yul\":15342:15351   */\n      dup4\n        /* \"#utility.yul\":15338:15355   */\n      add\n        /* \"#utility.yul\":15331:15378   */\n      mstore\n        /* \"#utility.yul\":15395:15481   */\n      tag_369\n        /* \"#utility.yul\":15476:15480   */\n      dup2\n        /* \"#utility.yul\":15467:15473   */\n      dup12\n        /* \"#utility.yul\":15459:15465   */\n      dup14\n        /* \"#utility.yul\":15395:15481   */\n      tag_292\n      jump\t// in\n    tag_369:\n        /* \"#utility.yul\":15387:15481   */\n      swap1\n      pop\n        /* \"#utility.yul\":15528:15537   */\n      dup2\n        /* \"#utility.yul\":15522:15526   */\n      dup2\n        /* \"#utility.yul\":15518:15538   */\n      sub\n        /* \"#utility.yul\":15513:15515   */\n      0x20\n        /* \"#utility.yul\":15502:15511   */\n      dup4\n        /* \"#utility.yul\":15498:15516   */\n      add\n        /* \"#utility.yul\":15491:15539   */\n      mstore\n        /* \"#utility.yul\":15556:15642   */\n      tag_370\n        /* \"#utility.yul\":15637:15641   */\n      dup2\n        /* \"#utility.yul\":15628:15634   */\n      dup10\n        /* \"#utility.yul\":15620:15626   */\n      dup12\n        /* \"#utility.yul\":15556:15642   */\n      tag_292\n      jump\t// in\n    tag_370:\n        /* \"#utility.yul\":15548:15642   */\n      swap1\n      pop\n        /* \"#utility.yul\":15652:15724   */\n      tag_371\n        /* \"#utility.yul\":15720:15722   */\n      0x40\n        /* \"#utility.yul\":15709:15718   */\n      dup4\n        /* \"#utility.yul\":15705:15723   */\n      add\n        /* \"#utility.yul\":15696:15702   */\n      dup9\n        /* \"#utility.yul\":15652:15724   */\n      tag_339\n      jump\t// in\n    tag_371:\n        /* \"#utility.yul\":15734:15806   */\n      tag_372\n        /* \"#utility.yul\":15802:15804   */\n      0x60\n        /* \"#utility.yul\":15791:15800   */\n      dup4\n        /* \"#utility.yul\":15787:15805   */\n      add\n        /* \"#utility.yul\":15778:15784   */\n      dup8\n        /* \"#utility.yul\":15734:15806   */\n      tag_339\n      jump\t// in\n    tag_372:\n        /* \"#utility.yul\":15816:15887   */\n      tag_373\n        /* \"#utility.yul\":15882:15885   */\n      0x80\n        /* \"#utility.yul\":15871:15880   */\n      dup4\n        /* \"#utility.yul\":15867:15886   */\n      add\n        /* \"#utility.yul\":15858:15864   */\n      dup7\n        /* \"#utility.yul\":15816:15887   */\n      tag_351\n      jump\t// in\n    tag_373:\n        /* \"#utility.yul\":15897:15968   */\n      tag_374\n        /* \"#utility.yul\":15963:15966   */\n      0xa0\n        /* \"#utility.yul\":15952:15961   */\n      dup4\n        /* \"#utility.yul\":15948:15967   */\n      add\n        /* \"#utility.yul\":15939:15945   */\n      dup6\n        /* \"#utility.yul\":15897:15968   */\n      tag_351\n      jump\t// in\n    tag_374:\n        /* \"#utility.yul\":15978:16051   */\n      tag_375\n        /* \"#utility.yul\":16046:16049   */\n      0xc0\n        /* \"#utility.yul\":16035:16044   */\n      dup4\n        /* \"#utility.yul\":16031:16050   */\n      add\n        /* \"#utility.yul\":16022:16028   */\n      dup5\n        /* \"#utility.yul\":15978:16051   */\n      tag_345\n      jump\t// in\n    tag_375:\n        /* \"#utility.yul\":14966:16058   */\n      swap11\n      swap10\n      pop\n      pop\n      pop\n      pop\n      pop\n      pop\n      pop\n      pop\n      pop\n      pop\n      jump\t// out\n        /* \"#utility.yul\":16064:16461   */\n    tag_42:\n        /* \"#utility.yul\":16219:16223   */\n      0x00\n        /* \"#utility.yul\":16257:16259   */\n      0x20\n        /* \"#utility.yul\":16246:16255   */\n      dup3\n        /* \"#utility.yul\":16242:16260   */\n      add\n        /* \"#utility.yul\":16234:16260   */\n      swap1\n      pop\n        /* \"#utility.yul\":16306:16315   */\n      dup2\n        /* \"#utility.yul\":16300:16304   */\n      dup2\n        /* \"#utility.yul\":16296:16316   */\n      sub\n        /* \"#utility.yul\":16292:16293   */\n      0x00\n        /* \"#utility.yul\":16281:16290   */\n      dup4\n        /* \"#utility.yul\":16277:16294   */\n      add\n        /* \"#utility.yul\":16270:16317   */\n      mstore\n        /* \"#utility.yul\":16334:16454   */\n      tag_377\n        /* \"#utility.yul\":16449:16453   */\n      dup2\n        /* \"#utility.yul\":16440:16446   */\n      dup5\n        /* \"#utility.yul\":16334:16454   */\n      tag_326\n      jump\t// in\n    tag_377:\n        /* \"#utility.yul\":16326:16454   */\n      swap1\n      pop\n        /* \"#utility.yul\":16064:16461   */\n      swap3\n      swap2\n      pop\n      pop\n      jump\t// out\n        /* \"#utility.yul\":16467:16689   */\n    tag_170:\n        /* \"#utility.yul\":16560:16564   */\n      0x00\n        /* \"#utility.yul\":16598:16600   */\n      0x20\n        /* \"#utility.yul\":16587:16596   */\n      dup3\n        /* \"#utility.yul\":16583:16601   */\n      add\n        /* \"#utility.yul\":16575:16601   */\n      swap1\n      pop\n        /* \"#utility.yul\":16611:16682   */\n      tag_379\n        /* \"#utility.yul\":16679:16680   */\n      0x00\n        /* \"#utility.yul\":16668:16677   */\n      dup4\n        /* \"#utility.yul\":16664:16681   */\n      add\n        /* \"#utility.yul\":16655:16661   */\n      dup5\n        /* \"#utility.yul\":16611:16682   */\n      tag_339\n      jump\t// in\n    tag_379:\n        /* \"#utility.yul\":16467:16689   */\n      swap3\n      swap2\n      pop\n      pop\n      jump\t// out\n        /* \"#utility.yul\":16695:16917   */\n    tag_24:\n        /* \"#utility.yul\":16788:16792   */\n      0x00\n        /* \"#utility.yul\":16826:16828   */\n      0x20\n        /* \"#utility.yul\":16815:16824   */\n      dup3\n        /* \"#utility.yul\":16811:16829   */\n      add\n        /* \"#utility.yul\":16803:16829   */\n      swap1\n      pop\n        /* \"#utility.yul\":16839:16910   */\n      tag_381\n        /* \"#utility.yul\":16907:16908   */\n      0x00\n        /* \"#utility.yul\":16896:16905   */\n      dup4\n        /* \"#utility.yul\":16892:16909   */\n      add\n        /* \"#utility.yul\":16883:16889   */\n      dup5\n        /* \"#utility.yul\":16839:16910   */\n      tag_345\n      jump\t// in\n    tag_381:\n        /* \"#utility.yul\":16695:16917   */\n      swap3\n      swap2\n      pop\n      pop\n      jump\t// out\n        /* \"#utility.yul\":17004:17167   */\n    tag_264:\n        /* \"#utility.yul\":17102:17106   */\n      0x00\n        /* \"#utility.yul\":17125:17128   */\n      dup2\n        /* \"#utility.yul\":17117:17128   */\n      swap1\n      pop\n        /* \"#utility.yul\":17155:17159   */\n      0x20\n        /* \"#utility.yul\":17150:17153   */\n      dup3\n        /* \"#utility.yul\":17146:17160   */\n      add\n        /* \"#utility.yul\":17138:17160   */\n      swap1\n      pop\n        /* \"#utility.yul\":17004:17167   */\n      swap2\n      swap1\n      pop\n      jump\t// out\n        /* \"#utility.yul\":17173:17305   */\n    tag_278:\n        /* \"#utility.yul\":17240:17244   */\n      0x00\n        /* \"#utility.yul\":17263:17266   */\n      dup2\n        /* \"#utility.yul\":17255:17266   */\n      swap1\n      pop\n        /* \"#utility.yul\":17293:17297   */\n      0x20\n        /* \"#utility.yul\":17288:17291   */\n      dup3\n        /* \"#utility.yul\":17284:17298   */\n      add\n        /* \"#utility.yul\":17276:17298   */\n      swap1\n      pop\n        /* \"#utility.yul\":17173:17305   */\n      swap2\n      swap1\n      pop\n      jump\t// out\n        /* \"#utility.yul\":17311:17456   */\n    tag_260:\n        /* \"#utility.yul\":17409:17415   */\n      0x00\n        /* \"#utility.yul\":17443:17448   */\n      dup2\n        /* \"#utility.yul\":17437:17449   */\n      mload\n        /* \"#utility.yul\":17427:17449   */\n      swap1\n      pop\n        /* \"#utility.yul\":17311:17456   */\n      swap2\n      swap1\n      pop\n      jump\t// out\n        /* \"#utility.yul\":17462:17576   */\n    tag_274:\n        /* \"#utility.yul\":17529:17535   */\n      0x00\n        /* \"#utility.yul\":17563:17568   */\n      dup2\n        /* \"#utility.yul\":17557:17569   */\n      mload\n        /* \"#utility.yul\":17547:17569   */\n      swap1\n      pop\n        /* \"#utility.yul\":17462:17576   */\n      swap2\n      swap1\n      pop\n      jump\t// out\n        /* \"#utility.yul\":17582:17680   */\n    tag_303:\n        /* \"#utility.yul\":17633:17639   */\n      0x00\n        /* \"#utility.yul\":17667:17672   */\n      dup2\n        /* \"#utility.yul\":17661:17673   */\n      mload\n        /* \"#utility.yul\":17651:17673   */\n      swap1\n      pop\n        /* \"#utility.yul\":17582:17680   */\n      swap2\n      swap1\n      pop\n      jump\t// out\n        /* \"#utility.yul\":17686:17830   */\n    tag_270:\n        /* \"#utility.yul\":17787:17791   */\n      0x00\n        /* \"#utility.yul\":17819:17823   */\n      0x20\n        /* \"#utility.yul\":17814:17817   */\n      dup3\n        /* \"#utility.yul\":17810:17824   */\n      add\n        /* \"#utility.yul\":17802:17824   */\n      swap1\n      pop\n        /* \"#utility.yul\":17686:17830   */\n      swap2\n      swap1\n      pop\n      jump\t// out\n        /* \"#utility.yul\":17836:17949   */\n    tag_284:\n        /* \"#utility.yul\":17906:17910   */\n      0x00\n        /* \"#utility.yul\":17938:17942   */\n      0x20\n        /* \"#utility.yul\":17933:17936   */\n      dup3\n        /* \"#utility.yul\":17929:17943   */\n      add\n        /* \"#utility.yul\":17921:17943   */\n      swap1\n      pop\n        /* \"#utility.yul\":17836:17949   */\n      swap2\n      swap1\n      pop\n      jump\t// out\n        /* \"#utility.yul\":17955:18170   */\n    tag_262:\n        /* \"#utility.yul\":18085:18096   */\n      0x00\n        /* \"#utility.yul\":18119:18125   */\n      dup3\n        /* \"#utility.yul\":18114:18117   */\n      dup3\n        /* \"#utility.yul\":18107:18126   */\n      mstore\n        /* \"#utility.yul\":18159:18163   */\n      0x20\n        /* \"#utility.yul\":18154:18157   */\n      dup3\n        /* \"#utility.yul\":18150:18164   */\n      add\n        /* \"#utility.yul\":18135:18164   */\n      swap1\n      pop\n        /* \"#utility.yul\":17955:18170   */\n      swap3\n      swap2\n      pop\n      pop\n      jump\t// out\n        /* \"#utility.yul\":18176:18360   */\n    tag_276:\n        /* \"#utility.yul\":18275:18286   */\n      0x00\n        /* \"#utility.yul\":18309:18315   */\n      dup3\n        /* \"#utility.yul\":18304:18307   */\n      dup3\n        /* \"#utility.yul\":18297:18316   */\n      mstore\n        /* \"#utility.yul\":18349:18353   */\n      0x20\n        /* \"#utility.yul\":18344:18347   */\n      dup3\n        /* \"#utility.yul\":18340:18354   */\n      add\n        /* \"#utility.yul\":18325:18354   */\n      swap1\n      pop\n        /* \"#utility.yul\":18176:18360   */\n      swap3\n      swap2\n      pop\n      pop\n      jump\t// out\n        /* \"#utility.yul\":18366:18524   */\n    tag_305:\n        /* \"#utility.yul\":18439:18450   */\n      0x00\n        /* \"#utility.yul\":18473:18479   */\n      dup3\n        /* \"#utility.yul\":18468:18471   */\n      dup3\n        /* \"#utility.yul\":18461:18480   */\n      mstore\n        /* \"#utility.yul\":18513:18517   */\n      0x20\n        /* \"#utility.yul\":18508:18511   */\n      dup3\n        /* \"#utility.yul\":18504:18518   */\n      add\n        /* \"#utility.yul\":18489:18518   */\n      swap1\n      pop\n        /* \"#utility.yul\":18366:18524   */\n      swap3\n      swap2\n      pop\n      pop\n      jump\t// out\n        /* \"#utility.yul\":18530:18698   */\n    tag_295:\n        /* \"#utility.yul\":18613:18624   */\n      0x00\n        /* \"#utility.yul\":18647:18653   */\n      dup3\n        /* \"#utility.yul\":18642:18645   */\n      dup3\n        /* \"#utility.yul\":18635:18654   */\n      mstore\n        /* \"#utility.yul\":18687:18691   */\n      0x20\n        /* \"#utility.yul\":18682:18685   */\n      dup3\n        /* \"#utility.yul\":18678:18692   */\n      add\n        /* \"#utility.yul\":18663:18692   */\n      swap1\n      pop\n        /* \"#utility.yul\":18530:18698   */\n      swap3\n      swap2\n      pop\n      pop\n      jump\t// out\n        /* \"#utility.yul\":18704:18895   */\n    tag_168:\n        /* \"#utility.yul\":18744:18748   */\n      0x00\n        /* \"#utility.yul\":18764:18784   */\n      tag_396\n        /* \"#utility.yul\":18782:18783   */\n      dup3\n        /* \"#utility.yul\":18764:18784   */\n      tag_338\n      jump\t// in\n    tag_396:\n        /* \"#utility.yul\":18759:18784   */\n      swap2\n      pop\n        /* \"#utility.yul\":18798:18818   */\n      tag_397\n        /* \"#utility.yul\":18816:18817   */\n      dup4\n        /* \"#utility.yul\":18798:18818   */\n      tag_338\n      jump\t// in\n    tag_397:\n        /* \"#utility.yul\":18793:18818   */\n      swap3\n      pop\n        /* \"#utility.yul\":18837:18838   */\n      dup3\n        /* \"#utility.yul\":18834:18835   */\n      dup3\n        /* \"#utility.yul\":18831:18839   */\n      lt\n        /* \"#utility.yul\":18828:18862   */\n      iszero\n      tag_398\n      jumpi\n        /* \"#utility.yul\":18842:18860   */\n      tag_399\n      tag_400\n      jump\t// in\n    tag_399:\n        /* \"#utility.yul\":18828:18862   */\n    tag_398:\n        /* \"#utility.yul\":18887:18888   */\n      dup3\n        /* \"#utility.yul\":18884:18885   */\n      dup3\n        /* \"#utility.yul\":18880:18889   */\n      sub\n        /* \"#utility.yul\":18872:18889   */\n      swap1\n      pop\n        /* \"#utility.yul\":18704:18895   */\n      swap3\n      swap2\n      pop\n      pop\n      jump\t// out\n        /* \"#utility.yul\":18901:18997   */\n    tag_253:\n        /* \"#utility.yul\":18938:18945   */\n      0x00\n        /* \"#utility.yul\":18967:18991   */\n      tag_402\n        /* \"#utility.yul\":18985:18990   */\n      dup3\n        /* \"#utility.yul\":18967:18991   */\n      tag_403\n      jump\t// in\n    tag_402:\n        /* \"#utility.yul\":18956:18991   */\n      swap1\n      pop\n        /* \"#utility.yul\":18901:18997   */\n      swap2\n      swap1\n      pop\n      jump\t// out\n        /* \"#utility.yul\":19003:19093   */\n    tag_288:\n        /* \"#utility.yul\":19037:19044   */\n      0x00\n        /* \"#utility.yul\":19080:19085   */\n      dup2\n        /* \"#utility.yul\":19073:19086   */\n      iszero\n        /* \"#utility.yul\":19066:19087   */\n      iszero\n        /* \"#utility.yul\":19055:19087   */\n      swap1\n      pop\n        /* \"#utility.yul\":19003:19093   */\n      swap2\n      swap1\n      pop\n      jump\t// out\n        /* \"#utility.yul\":19099:19217   */\n    tag_338:\n        /* \"#utility.yul\":19136:19143   */\n      0x00\n        /* \"#utility.yul\":19176:19210   */\n      0xffffffffffffffffffffffffffffffff\n        /* \"#utility.yul\":19169:19174   */\n      dup3\n        /* \"#utility.yul\":19165:19211   */\n      and\n        /* \"#utility.yul\":19154:19211   */\n      swap1\n      pop\n        /* \"#utility.yul\":19099:19217   */\n      swap2\n      swap1\n      pop\n      jump\t// out\n        /* \"#utility.yul\":19223:19349   */\n    tag_403:\n        /* \"#utility.yul\":19260:19267   */\n      0x00\n        /* \"#utility.yul\":19300:19342   */\n      0xffffffffffffffffffffffffffffffffffffffff\n        /* \"#utility.yul\":19293:19298   */\n      dup3\n        /* \"#utility.yul\":19289:19343   */\n      and\n        /* \"#utility.yul\":19278:19343   */\n      swap1\n      pop\n        /* \"#utility.yul\":19223:19349   */\n      swap2\n      swap1\n      pop\n      jump\t// out\n        /* \"#utility.yul\":19355:19432   */\n    tag_344:\n        /* \"#utility.yul\":19392:19399   */\n      0x00\n        /* \"#utility.yul\":19421:19426   */\n      dup2\n        /* \"#utility.yul\":19410:19426   */\n      swap1\n      pop\n        /* \"#utility.yul\":19355:19432   */\n      swap2\n      swap1\n      pop\n      jump\t// out\n        /* \"#utility.yul\":19438:19531   */\n    tag_350:\n        /* \"#utility.yul\":19474:19481   */\n      0x00\n        /* \"#utility.yul\":19514:19524   */\n      0xffffffff\n        /* \"#utility.yul\":19507:19512   */\n      dup3\n        /* \"#utility.yul\":19503:19525   */\n      and\n        /* \"#utility.yul\":19492:19525   */\n      swap1\n      pop\n        /* \"#utility.yul\":19438:19531   */\n      swap2\n      swap1\n      pop\n      jump\t// out\n        /* \"#utility.yul\":19537:19691   */\n    tag_297:\n        /* \"#utility.yul\":19621:19627   */\n      dup3\n        /* \"#utility.yul\":19616:19619   */\n      dup2\n        /* \"#utility.yul\":19611:19614   */\n      dup4\n        /* \"#utility.yul\":19598:19628   */\n      calldatacopy\n        /* \"#utility.yul\":19683:19684   */\n      0x00\n        /* \"#utility.yul\":19674:19680   */\n      dup4\n        /* \"#utility.yul\":19669:19672   */\n      dup4\n        /* \"#utility.yul\":19665:19681   */\n      add\n        /* \"#utility.yul\":19658:19685   */\n      mstore\n        /* \"#utility.yul\":19537:19691   */\n      pop\n      pop\n      pop\n      jump\t// out\n        /* \"#utility.yul\":19697:20004   */\n    tag_307:\n        /* \"#utility.yul\":19765:19766   */\n      0x00\n        /* \"#utility.yul\":19775:19888   */\n    tag_411:\n        /* \"#utility.yul\":19789:19795   */\n      dup4\n        /* \"#utility.yul\":19786:19787   */\n      dup2\n        /* \"#utility.yul\":19783:19796   */\n      lt\n        /* \"#utility.yul\":19775:19888   */\n      iszero\n      tag_413\n      jumpi\n        /* \"#utility.yul\":19874:19875   */\n      dup1\n        /* \"#utility.yul\":19869:19872   */\n      dup3\n        /* \"#utility.yul\":19865:19876   */\n      add\n        /* \"#utility.yul\":19859:19877   */\n      mload\n        /* \"#utility.yul\":19855:19856   */\n      dup2\n        /* \"#utility.yul\":19850:19853   */\n      dup5\n        /* \"#utility.yul\":19846:19857   */\n      add\n        /* \"#utility.yul\":19839:19878   */\n      mstore\n        /* \"#utility.yul\":19811:19813   */\n      0x20\n        /* \"#utility.yul\":19808:19809   */\n      dup2\n        /* \"#utility.yul\":19804:19814   */\n      add\n        /* \"#utility.yul\":19799:19814   */\n      swap1\n      pop\n        /* \"#utility.yul\":19775:19888   */\n      jump(tag_411)\n    tag_413:\n        /* \"#utility.yul\":19906:19912   */\n      dup4\n        /* \"#utility.yul\":19903:19904   */\n      dup2\n        /* \"#utility.yul\":19900:19913   */\n      gt\n        /* \"#utility.yul\":19897:19998   */\n      iszero\n      tag_414\n      jumpi\n        /* \"#utility.yul\":19986:19987   */\n      0x00\n        /* \"#utility.yul\":19977:19983   */\n      dup5\n        /* \"#utility.yul\":19972:19975   */\n      dup5\n        /* \"#utility.yul\":19968:19984   */\n      add\n        /* \"#utility.yul\":19961:19988   */\n      mstore\n        /* \"#utility.yul\":19897:19998   */\n    tag_414:\n        /* \"#utility.yul\":19746:20004   */\n      pop\n        /* \"#utility.yul\":19697:20004   */\n      pop\n      pop\n      pop\n      jump\t// out\n        /* \"#utility.yul\":20010:20330   */\n    tag_76:\n        /* \"#utility.yul\":20054:20060   */\n      0x00\n        /* \"#utility.yul\":20091:20092   */\n      0x02\n        /* \"#utility.yul\":20085:20089   */\n      dup3\n        /* \"#utility.yul\":20081:20093   */\n      div\n        /* \"#utility.yul\":20071:20093   */\n      swap1\n      pop\n        /* \"#utility.yul\":20138:20139   */\n      0x01\n        /* \"#utility.yul\":20132:20136   */\n      dup3\n        /* \"#utility.yul\":20128:20140   */\n      and\n        /* \"#utility.yul\":20159:20177   */\n      dup1\n        /* \"#utility.yul\":20149:20230   */\n      tag_416\n      jumpi\n        /* \"#utility.yul\":20215:20219   */\n      0x7f\n        /* \"#utility.yul\":20207:20213   */\n      dup3\n        /* \"#utility.yul\":20203:20220   */\n      and\n        /* \"#utility.yul\":20193:20220   */\n      swap2\n      pop\n        /* \"#utility.yul\":20149:20230   */\n    tag_416:\n        /* \"#utility.yul\":20277:20279   */\n      0x20\n        /* \"#utility.yul\":20269:20275   */\n      dup3\n        /* \"#utility.yul\":20266:20280   */\n      lt\n        /* \"#utility.yul\":20246:20264   */\n      dup2\n        /* \"#utility.yul\":20243:20281   */\n      eq\n        /* \"#utility.yul\":20240:20324   */\n      iszero\n      tag_417\n      jumpi\n        /* \"#utility.yul\":20296:20314   */\n      tag_418\n      tag_419\n      jump\t// in\n    tag_418:\n        /* \"#utility.yul\":20240:20324   */\n    tag_417:\n        /* \"#utility.yul\":20061:20330   */\n      pop\n        /* \"#utility.yul\":20010:20330   */\n      swap2\n      swap1\n      pop\n      jump\t// out\n        /* \"#utility.yul\":20336:20569   */\n    tag_91:\n        /* \"#utility.yul\":20375:20378   */\n      0x00\n        /* \"#utility.yul\":20398:20422   */\n      tag_421\n        /* \"#utility.yul\":20416:20421   */\n      dup3\n        /* \"#utility.yul\":20398:20422   */\n      tag_344\n      jump\t// in\n    tag_421:\n        /* \"#utility.yul\":20389:20422   */\n      swap2\n      pop\n        /* \"#utility.yul\":20444:20510   */\n      0xffffffffffffffffffffffffffffffffffffffffffffffffffffffffffffffff\n        /* \"#utility.yul\":20437:20442   */\n      dup3\n        /* \"#utility.yul\":20434:20511   */\n      eq\n        /* \"#utility.yul\":20431:20534   */\n      iszero\n      tag_422\n      jumpi\n        /* \"#utility.yul\":20514:20532   */\n      tag_423\n      tag_400\n      jump\t// in\n    tag_423:\n        /* \"#utility.yul\":20431:20534   */\n    tag_422:\n        /* \"#utility.yul\":20561:20562   */\n      0x01\n        /* \"#utility.yul\":20554:20559   */\n      dup3\n        /* \"#utility.yul\":20550:20563   */\n      add\n        /* \"#utility.yul\":20543:20563   */\n      swap1\n      pop\n        /* \"#utility.yul\":20336:20569   */\n      swap2\n      swap1\n      pop\n      jump\t// out\n        /* \"#utility.yul\":20575:20755   */\n    tag_400:\n        /* \"#utility.yul\":20623:20700   */\n      0x4e487b7100000000000000000000000000000000000000000000000000000000\n        /* \"#utility.yul\":20620:20621   */\n      0x00\n        /* \"#utility.yul\":20613:20701   */\n      mstore\n        /* \"#utility.yul\":20720:20724   */\n      0x11\n        /* \"#utility.yul\":20717:20718   */\n      0x04\n        /* \"#utility.yul\":20710:20725   */\n      mstore\n        /* \"#utility.yul\":20744:20748   */\n      0x24\n        /* \"#utility.yul\":20741:20742   */\n      0x00\n        /* \"#utility.yul\":20734:20749   */\n      revert\n        /* \"#utility.yul\":20761:20941   */\n    tag_419:\n        /* \"#utility.yul\":20809:20886   */\n      0x4e487b7100000000000000000000000000000000000000000000000000000000\n        /* \"#utility.yul\":20806:20807   */\n      0x00\n        /* \"#utility.yul\":20799:20887   */\n      mstore\n        /* \"#utility.yul\":20906:20910   */\n      0x22\n        /* \"#utility.yul\":20903:20904   */\n      0x04\n        /* \"#utility.yul\":20896:20911   */\n      mstore\n        /* \"#utility.yul\":20930:20934   */\n      0x24\n        /* \"#utility.yul\":20927:20928   */\n      0x00\n        /* \"#utility.yul\":20920:20935   */\n      revert\n        /* \"#utility.yul\":20947:21127   */\n    tag_73:\n        /* \"#utility.yul\":20995:21072   */\n      0x4e487b7100000000000000000000000000000000000000000000000000000000\n        /* \"#utility.yul\":20992:20993   */\n      0x00\n        /* \"#utility.yul\":20985:21073   */\n      mstore\n        /* \"#utility.yul\":21092:21096   */\n      0x32\n        /* \"#utility.yul\":21089:21090   */\n      0x04\n        /* \"#utility.yul\":21082:21097   */\n      mstore\n        /* \"#utility.yul\":21116:21120   */\n      0x24\n        /* \"#utility.yul\":21113:21114   */\n      0x00\n        /* \"#utility.yul\":21106:21121   */\n      revert\n        /* \"#utility.yul\":21133:21313   */\n    tag_60:\n        /* \"#utility.yul\":21181:21258   */\n      0x4e487b7100000000000000000000000000000000000000000000000000000000\n        /* \"#utility.yul\":21178:21179   */\n      0x00\n        /* \"#utility.yul\":21171:21259   */\n      mstore\n        /* \"#utility.yul\":21278:21282   */\n      0x41\n        /* \"#utility.yul\":21275:21276   */\n      0x04\n        /* \"#utility.yul\":21268:21283   */\n      mstore\n        /* \"#utility.yul\":21302:21306   */\n      0x24\n        /* \"#utility.yul\":21299:21300   */\n      0x00\n        /* \"#utility.yul\":21292:21307   */\n      revert\n        /* \"#utility.yul\":21319:21436   */\n    tag_193:\n        /* \"#utility.yul\":21428:21429   */\n      0x00\n        /* \"#utility.yul\":21425:21426   */\n      dup1\n        /* \"#utility.yul\":21418:21430   */\n      revert\n        /* \"#utility.yul\":21442:21559   */\n    tag_190:\n        /* \"#utility.yul\":21551:21552   */\n      0x00\n        /* \"#utility.yul\":21548:21549   */\n      dup1\n        /* \"#utility.yul\":21541:21553   */\n      revert\n        /* \"#utility.yul\":21565:21682   */\n    tag_196:\n        /* \"#utility.yul\":21674:21675   */\n      0x00\n        /* \"#utility.yul\":21671:21672   */\n      dup1\n        /* \"#utility.yul\":21664:21676   */\n      revert\n        /* \"#utility.yul\":21688:21805   */\n    tag_224:\n        /* \"#utility.yul\":21797:21798   */\n      0x00\n        /* \"#utility.yul\":21794:21795   */\n      dup1\n        /* \"#utility.yul\":21787:21799   */\n      revert\n        /* \"#utility.yul\":21811:21928   */\n    tag_212:\n        /* \"#utility.yul\":21920:21921   */\n      0x00\n        /* \"#utility.yul\":21917:21918   */\n      dup1\n        /* \"#utility.yul\":21910:21922   */\n      revert\n        /* \"#utility.yul\":21934:22036   */\n    tag_299:\n        /* \"#utility.yul\":21975:21981   */\n      0x00\n        /* \"#utility.yul\":22026:22028   */\n      0x1f\n        /* \"#utility.yul\":22022:22029   */\n      not\n        /* \"#utility.yul\":22017:22019   */\n      0x1f\n        /* \"#utility.yul\":22010:22015   */\n      dup4\n        /* \"#utility.yul\":22006:22020   */\n      add\n        /* \"#utility.yul\":22002:22030   */\n      and\n        /* \"#utility.yul\":21992:22030   */\n      swap1\n      pop\n        /* \"#utility.yul\":21934:22036   */\n      swap2\n      swap1\n      pop\n      jump\t// out\n        /* \"#utility.yul\":22042:22164   */\n    tag_185:\n        /* \"#utility.yul\":22115:22139   */\n      tag_435\n        /* \"#utility.yul\":22133:22138   */\n      dup2\n        /* \"#utility.yul\":22115:22139   */\n      tag_253\n      jump\t// in\n    tag_435:\n        /* \"#utility.yul\":22108:22113   */\n      dup2\n        /* \"#utility.yul\":22105:22140   */\n      eq\n        /* \"#utility.yul\":22095:22158   */\n      tag_436\n      jumpi\n        /* \"#utility.yul\":22154:22155   */\n      0x00\n        /* \"#utility.yul\":22151:22152   */\n      dup1\n        /* \"#utility.yul\":22144:22156   */\n      revert\n        /* \"#utility.yul\":22095:22158   */\n    tag_436:\n        /* \"#utility.yul\":22042:22164   */\n      pop\n      jump\t// out\n        /* \"#utility.yul\":22170:22292   */\n    tag_200:\n        /* \"#utility.yul\":22243:22267   */\n      tag_438\n        /* \"#utility.yul\":22261:22266   */\n      dup2\n        /* \"#utility.yul\":22243:22267   */\n      tag_338\n      jump\t// in\n    tag_438:\n        /* \"#utility.yul\":22236:22241   */\n      dup2\n        /* \"#utility.yul\":22233:22268   */\n      eq\n        /* \"#utility.yul\":22223:22286   */\n      tag_439\n      jumpi\n        /* \"#utility.yul\":22282:22283   */\n      0x00\n        /* \"#utility.yul\":22279:22280   */\n      dup1\n        /* \"#utility.yul\":22272:22284   */\n      revert\n        /* \"#utility.yul\":22223:22286   */\n    tag_439:\n        /* \"#utility.yul\":22170:22292   */\n      pop\n      jump\t// out\n        /* \"#utility.yul\":22298:22420   */\n    tag_204:\n        /* \"#utility.yul\":22371:22395   */\n      tag_441\n        /* \"#utility.yul\":22389:22394   */\n      dup2\n        /* \"#utility.yul\":22371:22395   */\n      tag_344\n      jump\t// in\n    tag_441:\n        /* \"#utility.yul\":22364:22369   */\n      dup2\n        /* \"#utility.yul\":22361:22396   */\n      eq\n        /* \"#utility.yul\":22351:22414   */\n      tag_442\n      jumpi\n        /* \"#utility.yul\":22410:22411   */\n      0x00\n        /* \"#utility.yul\":22407:22408   */\n      dup1\n        /* \"#utility.yul\":22400:22412   */\n      revert\n        /* \"#utility.yul\":22351:22414   */\n    tag_442:\n        /* \"#utility.yul\":22298:22420   */\n      pop\n      jump\t// out\n        /* \"#utility.yul\":22426:22546   */\n    tag_208:\n        /* \"#utility.yul\":22498:22521   */\n      tag_444\n        /* \"#utility.yul\":22515:22520   */\n      dup2\n        /* \"#utility.yul\":22498:22521   */\n      tag_350\n      jump\t// in\n    tag_444:\n        /* \"#utility.yul\":22491:22496   */\n      dup2\n        /* \"#utility.yul\":22488:22522   */\n      eq\n        /* \"#utility.yul\":22478:22540   */\n      tag_445\n      jumpi\n        /* \"#utility.yul\":22536:22537   */\n      0x00\n        /* \"#utility.yul\":22533:22534   */\n      dup1\n        /* \"#utility.yul\":22526:22538   */\n      revert\n        /* \"#utility.yul\":22478:22540   */\n    tag_445:\n        /* \"#utility.yul\":22426:22546   */\n      pop\n      jump\t// out\n\n    auxdata: 0xa26469706673582212203afaf789b821d8a78f29147e78f2fbb98c0913b70bec5aa94a300abc5c94278c64736f6c63430008070033\n}\n",
				"bytecode": {
					"linkReferences": {},
					"object": "6080604052600160005534801561001557600080fd5b50612189806100256000396000f3fe608060405234801561001057600080fd5b50600436106100935760003560e01c806383f958531161006657806383f958531461014c578063c22ef68e1461017d578063e10f28c7146101ad578063ee7e7c99146101cb578063f8bafa70146101e757610093565b80632777259b1461009857806342af31d7146100c95780636c87b826146100f957806379ae025714610130575b600080fd5b6100b260048036038101906100ad9190611704565b610203565b6040516100c0929190611cdb565b60405180910390f35b6100e360048036038101906100de9190611731565b610740565b6040516100f09190611df2565b60405180910390f35b610113600480360381019061010e9190611840565b610771565b604051610127989796959493929190611c4f565b60405180910390f35b61014a60048036038101906101459190611840565b61094e565b005b61016660048036038101906101619190611704565b6109ad565b604051610174929190611cdb565b60405180910390f35b61019760048036038101906101929190611840565b610d94565b6040516101a49190611db5565b60405180910390f35b6101b5611037565b6040516101c29190611d12565b60405180910390f35b6101e560048036038101906101e09190611771565b6110cc565b005b61020160048036038101906101fc919061186d565b611445565b005b6060806000600260008573ffffffffffffffffffffffffffffffffffffffff1673ffffffffffffffffffffffffffffffffffffffff16815260200190815260200160002080548060200260200160405190810160405280929190818152602001828054801561029157602002820191906000526020600020905b81548152602001906001019080831161027d575b505050505090506000815167ffffffffffffffff8111156102b5576102b461209e565b5b6040519080825280602002602001820160405280156102e35781602001602082028036833780820191505090505b5090506000825167ffffffffffffffff8111156103035761030261209e565b5b60405190808252806020026020018201604052801561033c57816020015b61032961152a565b8152602001906001900390816103215790505b5090506000805b84518110156106895760008582815181106103615761036061206f565b5b602002602001015190506001600082815260200190815260200160002060040160089054906101000a900460ff16156106755760016000828152602001908152602001600020604051806101000160405290816000820160009054906101000a900473ffffffffffffffffffffffffffffffffffffffff1673ffffffffffffffffffffffffffffffffffffffff1673ffffffffffffffffffffffffffffffffffffffff16815260200160018201805461041990611f96565b80601f016020809104026020016040519081016040528092919081815260200182805461044590611f96565b80156104925780601f1061046757610100808354040283529160200191610492565b820191906000526020600020905b81548152906001019060200180831161047557829003601f168201915b505050505081526020016002820180546104ab90611f96565b80601f01602080910402602001604051908101604052809291908181526020018280546104d790611f96565b80156105245780601f106104f957610100808354040283529160200191610524565b820191906000526020600020905b81548152906001019060200180831161050757829003601f168201915b505050505081526020016003820160009054906101000a90046fffffffffffffffffffffffffffffffff166fffffffffffffffffffffffffffffffff166fffffffffffffffffffffffffffffffff1681526020016003820160109054906101000a90046fffffffffffffffffffffffffffffffff166fffffffffffffffffffffffffffffffff166fffffffffffffffffffffffffffffffff1681526020016004820160009054906101000a900463ffffffff1663ffffffff1663ffffffff1681526020016004820160049054906101000a900463ffffffff1663ffffffff1663ffffffff1681526020016004820160089054906101000a900460ff16151515158152505084848151811061063b5761063a61206f565b5b60200260200101819052508085848151811061065a5761065961206f565b5b602002602001018181525050828061067190611fc8565b9350505b50808061068190611fc8565b915050610343565b5060008167ffffffffffffffff8111156106a6576106a561209e565b5b6040519080825280602002602001820160405280156106d45781602001602082028036833780820191505090505b50905060005b8281101561072f578481815181106106f5576106f461206f565b5b60200260200101518282815181106107105761070f61206f565b5b602002602001018181525050808061072790611fc8565b9150506106da565b508281965096505050505050915091565b6002602052816000526040600020818154811061075c57600080fd5b90600052602060002001600091509150505481565b60016020528060005260406000206000915090508060000160009054906101000a900473ffffffffffffffffffffffffffffffffffffffff16908060010180546107ba90611f96565b80601f01602080910402602001604051908101604052809291908181526020018280546107e690611f96565b80156108335780601f1061080857610100808354040283529160200191610833565b820191906000526020600020905b81548152906001019060200180831161081657829003601f168201915b50505050509080600201805461084890611f96565b80601f016020809104026020016040519081016040528092919081815260200182805461087490611f96565b80156108c15780601f10610896576101008083540402835291602001916108c1565b820191906000526020600020905b8154815290600101906020018083116108a457829003601f168201915b5050505050908060030160009054906101000a90046fffffffffffffffffffffffffffffffff16908060030160109054906101000a90046fffffffffffffffffffffffffffffffff16908060040160009054906101000a900463ffffffff16908060040160049054906101000a900463ffffffff16908060040160089054906101000a900460ff16905088565b60006001600083815260200190815260200160002060040160086101000a81548160ff021916908315150217905550807f6c1a4e746947a5049a6693a4875a10617826c8361c631cac61717e141185fdd260405160405180910390a250565b6060806000600260008573ffffffffffffffffffffffffffffffffffffffff1673ffffffffffffffffffffffffffffffffffffffff168152602001908152602001600020805480602002602001604051908101604052809291908181526020018280548015610a3b57602002820191906000526020600020905b815481526020019060010190808311610a27575b505050505090506000815167ffffffffffffffff811115610a5f57610a5e61209e565b5b604051908082528060200260200182016040528015610a9857816020015b610a8561152a565b815260200190600190039081610a7d5790505b50905060005b8251811015610d865760016000848381518110610abe57610abd61206f565b5b60200260200101518152602001908152602001600020604051806101000160405290816000820160009054906101000a900473ffffffffffffffffffffffffffffffffffffffff1673ffffffffffffffffffffffffffffffffffffffff1673ffffffffffffffffffffffffffffffffffffffff168152602001600182018054610b4690611f96565b80601f0160208091040260200160405190810160405280929190818152602001828054610b7290611f96565b8015610bbf5780601f10610b9457610100808354040283529160200191610bbf565b820191906000526020600020905b815481529060010190602001808311610ba257829003601f168201915b50505050508152602001600282018054610bd890611f96565b80601f0160208091040260200160405190810160405280929190818152602001828054610c0490611f96565b8015610c515780601f10610c2657610100808354040283529160200191610c51565b820191906000526020600020905b815481529060010190602001808311610c3457829003601f168201915b505050505081526020016003820160009054906101000a90046fffffffffffffffffffffffffffffffff166fffffffffffffffffffffffffffffffff166fffffffffffffffffffffffffffffffff1681526020016003820160109054906101000a90046fffffffffffffffffffffffffffffffff166fffffffffffffffffffffffffffffffff166fffffffffffffffffffffffffffffffff1681526020016004820160009054906101000a900463ffffffff1663ffffffff1663ffffffff1681526020016004820160049054906101000a900463ffffffff1663ffffffff1663ffffffff1681526020016004820160089054906101000a900460ff161515151581525050828281518110610d6857610d6761206f565b5b60200260200101819052508080610d7e90611fc8565b915050610a9e565b508082935093505050915091565b610d9c61152a565b60016000838152602001908152602001600020604051806101000160405290816000820160009054906101000a900473ffffffffffffffffffffffffffffffffffffffff1673ffffffffffffffffffffffffffffffffffffffff1673ffffffffffffffffffffffffffffffffffffffff168152602001600182018054610e2190611f96565b80601f0160208091040260200160405190810160405280929190818152602001828054610e4d90611f96565b8015610e9a5780601f10610e6f57610100808354040283529160200191610e9a565b820191906000526020600020905b815481529060010190602001808311610e7d57829003601f168201915b50505050508152602001600282018054610eb390611f96565b80601f0160208091040260200160405190810160405280929190818152602001828054610edf90611f96565b8015610f2c5780601f10610f0157610100808354040283529160200191610f2c565b820191906000526020600020905b815481529060010190602001808311610f0f57829003601f168201915b505050505081526020016003820160009054906101000a90046fffffffffffffffffffffffffffffffff166fffffffffffffffffffffffffffffffff166fffffffffffffffffffffffffffffffff1681526020016003820160109054906101000a90046fffffffffffffffffffffffffffffffff166fffffffffffffffffffffffffffffffff166fffffffffffffffffffffffffffffffff1681526020016004820160009054906101000a900463ffffffff1663ffffffff1663ffffffff1681526020016004820160049054906101000a900463ffffffff1663ffffffff1663ffffffff1681526020016004820160089054906101000a900460ff1615151515815250509050919050565b6060600260003373ffffffffffffffffffffffffffffffffffffffff1673ffffffffffffffffffffffffffffffffffffffff1681526020019081526020016000208054806020026020016040519081016040528092919081815260200182805480156110c257602002820191906000526020600020905b8154815260200190600101908083116110ae575b5050505050905090565b6040518061010001604052803373ffffffffffffffffffffffffffffffffffffffff16815260200189898080601f016020809104026020016040519081016040528093929190818152602001838380828437600081840152601f19601f82011690508083019250505050505050815260200187878080601f016020809104026020016040519081016040528093929190818152602001838380828437600081840152601f19601f820116905080830192505050505050508152602001856fffffffffffffffffffffffffffffffff168152602001846fffffffffffffffffffffffffffffffff1681526020018363ffffffff1681526020018263ffffffff16815260200160011515815250600160008054815260200190815260200160002060008201518160000160006101000a81548173ffffffffffffffffffffffffffffffffffffffff021916908373ffffffffffffffffffffffffffffffffffffffff160217905550602082015181600101908051906020019061124e9291906115b7565b50604082015181600201908051906020019061126b9291906115b7565b5060608201518160030160006101000a8154816fffffffffffffffffffffffffffffffff02191690836fffffffffffffffffffffffffffffffff16021790555060808201518160030160106101000a8154816fffffffffffffffffffffffffffffffff02191690836fffffffffffffffffffffffffffffffff16021790555060a08201518160040160006101000a81548163ffffffff021916908363ffffffff16021790555060c08201518160040160046101000a81548163ffffffff021916908363ffffffff16021790555060e08201518160040160086101000a81548160ff021916908315150217905550905050600260003373ffffffffffffffffffffffffffffffffffffffff1673ffffffffffffffffffffffffffffffffffffffff16815260200190815260200160002060005490806001815401808255809150506001900390600052602060002001600090919091909150553373ffffffffffffffffffffffffffffffffffffffff166000547fb544b666bf20d30fc9acbc75aee55e5847e8f95a49aa5d36b6dab734f0cbb3038a8a8a8a8a8a8a8a4260405161141c99989796959493929190611d34565b60405180910390a360008081548092919061143690611fc8565b91905055505050505050505050565b806001600084815260200190815260200160002060030160008282829054906101000a90046fffffffffffffffffffffffffffffffff166114869190611eac565b92506101000a8154816fffffffffffffffffffffffffffffffff02191690836fffffffffffffffffffffffffffffffff160217905550817f1f3d301eca9b893fb3ae34f526f7b346cfe3086be67884ce1e652593c91668d66001600085815260200190815260200160002060030160009054906101000a90046fffffffffffffffffffffffffffffffff1660405161151e9190611dd7565b60405180910390a25050565b604051806101000160405280600073ffffffffffffffffffffffffffffffffffffffff168152602001606081526020016060815260200160006fffffffffffffffffffffffffffffffff16815260200160006fffffffffffffffffffffffffffffffff168152602001600063ffffffff168152602001600063ffffffff1681526020016000151581525090565b8280546115c390611f96565b90600052602060002090601f0160209004810192826115e5576000855561162c565b82601f106115fe57805160ff191683800117855561162c565b8280016001018555821561162c579182015b8281111561162b578251825591602001919060010190611610565b5b509050611639919061163d565b5090565b5b8082111561165657600081600090555060010161163e565b5090565b600081359050611669816120f7565b92915050565b60008083601f840112611685576116846120d2565b5b8235905067ffffffffffffffff8111156116a2576116a16120cd565b5b6020830191508360018202830111156116be576116bd6120d7565b5b9250929050565b6000813590506116d48161210e565b92915050565b6000813590506116e981612125565b92915050565b6000813590506116fe8161213c565b92915050565b60006020828403121561171a576117196120e1565b5b60006117288482850161165a565b91505092915050565b60008060408385031215611748576117476120e1565b5b60006117568582860161165a565b9250506020611767858286016116da565b9150509250929050565b60008060008060008060008060c0898b031215611791576117906120e1565b5b600089013567ffffffffffffffff8111156117af576117ae6120dc565b5b6117bb8b828c0161166f565b9850985050602089013567ffffffffffffffff8111156117de576117dd6120dc565b5b6117ea8b828c0161166f565b965096505060406117fd8b828c016116c5565b945050606061180e8b828c016116c5565b935050608061181f8b828c016116ef565b92505060a06118308b828c016116ef565b9150509295985092959890939650565b600060208284031215611856576118556120e1565b5b6000611864848285016116da565b91505092915050565b60008060408385031215611884576118836120e1565b5b6000611892858286016116da565b92505060206118a3858286016116c5565b9150509250929050565b60006118b98383611a87565b905092915050565b60006118cd8383611c13565b60208301905092915050565b6118e281611ee0565b82525050565b6118f181611ee0565b82525050565b600061190282611e2d565b61190c8185611e68565b93508360208202850161191e85611e0d565b8060005b8581101561195a578484038952815161193b85826118ad565b945061194683611e4e565b925060208a01995050600181019050611922565b50829750879550505050505092915050565b600061197782611e38565b6119818185611e79565b935061198c83611e1d565b8060005b838110156119bd5781516119a488826118c1565b97506119af83611e5b565b925050600181019050611990565b5085935050505092915050565b6119d381611ef2565b82525050565b6119e281611ef2565b82525050565b60006119f48385611e9b565b9350611a01838584611f54565b611a0a836120e6565b840190509392505050565b6000611a2082611e43565b611a2a8185611e8a565b9350611a3a818560208601611f63565b611a43816120e6565b840191505092915050565b6000611a5982611e43565b611a638185611e9b565b9350611a73818560208601611f63565b611a7c816120e6565b840191505092915050565b600061010083016000830151611aa060008601826118d9565b5060208301518482036020860152611ab88282611a15565b91505060408301518482036040860152611ad28282611a15565b9150506060830151611ae76060860182611bf5565b506080830151611afa6080860182611bf5565b5060a0830151611b0d60a0860182611c31565b5060c0830151611b2060c0860182611c31565b5060e0830151611b3360e08601826119ca565b508091505092915050565b600061010083016000830151611b5760008601826118d9565b5060208301518482036020860152611b6f8282611a15565b91505060408301518482036040860152611b898282611a15565b9150506060830151611b9e6060860182611bf5565b506080830151611bb16080860182611bf5565b5060a0830151611bc460a0860182611c31565b5060c0830151611bd760c0860182611c31565b5060e0830151611bea60e08601826119ca565b508091505092915050565b611bfe81611efe565b82525050565b611c0d81611efe565b82525050565b611c1c81611f3a565b82525050565b611c2b81611f3a565b82525050565b611c3a81611f44565b82525050565b611c4981611f44565b82525050565b600061010082019050611c65600083018b6118e8565b8181036020830152611c77818a611a4e565b90508181036040830152611c8b8189611a4e565b9050611c9a6060830188611c04565b611ca76080830187611c04565b611cb460a0830186611c40565b611cc160c0830185611c40565b611cce60e08301846119d9565b9998505050505050505050565b60006040820190508181036000830152611cf581856118f7565b90508181036020830152611d09818461196c565b90509392505050565b60006020820190508181036000830152611d2c818461196c565b905092915050565b600060e0820190508181036000830152611d4f818b8d6119e8565b90508181036020830152611d6481898b6119e8565b9050611d736040830188611c04565b611d806060830187611c04565b611d8d6080830186611c40565b611d9a60a0830185611c40565b611da760c0830184611c22565b9a9950505050505050505050565b60006020820190508181036000830152611dcf8184611b3e565b905092915050565b6000602082019050611dec6000830184611c04565b92915050565b6000602082019050611e076000830184611c22565b92915050565b6000819050602082019050919050565b6000819050602082019050919050565b600081519050919050565b600081519050919050565b600081519050919050565b6000602082019050919050565b6000602082019050919050565b600082825260208201905092915050565b600082825260208201905092915050565b600082825260208201905092915050565b600082825260208201905092915050565b6000611eb782611efe565b9150611ec283611efe565b925082821015611ed557611ed4612011565b5b828203905092915050565b6000611eeb82611f1a565b9050919050565b60008115159050919050565b60006fffffffffffffffffffffffffffffffff82169050919050565b600073ffffffffffffffffffffffffffffffffffffffff82169050919050565b6000819050919050565b600063ffffffff82169050919050565b82818337600083830152505050565b60005b83811015611f81578082015181840152602081019050611f66565b83811115611f90576000848401525b50505050565b60006002820490506001821680611fae57607f821691505b60208210811415611fc257611fc1612040565b5b50919050565b6000611fd382611f3a565b91507fffffffffffffffffffffffffffffffffffffffffffffffffffffffffffffffff82141561200657612005612011565b5b600182019050919050565b7f4e487b7100000000000000000000000000000000000000000000000000000000600052601160045260246000fd5b7f4e487b7100000000000000000000000000000000000000000000000000000000600052602260045260246000fd5b7f4e487b7100000000000000000000000000000000000000000000000000000000600052603260045260246000fd5b7f4e487b7100000000000000000000000000000000000000000000000000000000600052604160045260246000fd5b600080fd5b600080fd5b600080fd5b600080fd5b600080fd5b6000601f19601f8301169050919050565b61210081611ee0565b811461210b57600080fd5b50565b61211781611efe565b811461212257600080fd5b50565b61212e81611f3a565b811461213957600080fd5b50565b61214581611f44565b811461215057600080fd5b5056fea26469706673582212203afaf789b821d8a78f29147e78f2fbb98c0913b70bec5aa94a300abc5c94278c64736f6c63430008070033",
					"opcodes": "PUSH1 0x80 PUSH1 0x40 MSTORE PUSH1 0x1 PUSH1 0x0 SSTORE CALLVALUE DUP1 ISZERO PUSH2 0x15 JUMPI PUSH1 0x0 DUP1 REVERT JUMPDEST POP PUSH2 0x2189 DUP1 PUSH2 0x25 PUSH1 0x0 CODECOPY PUSH1 0x0 RETURN INVALID PUSH1 0x80 PUSH1 0x40 MSTORE CALLVALUE DUP1 ISZERO PUSH2 0x10 JUMPI PUSH1 0x0 DUP1 REVERT JUMPDEST POP PUSH1 0x4 CALLDATASIZE LT PUSH2 0x93 JUMPI PUSH1 0x0 CALLDATALOAD PUSH1 0xE0 SHR DUP1 PUSH4 0x83F95853 GT PUSH2 0x66 JUMPI DUP1 PUSH4 0x83F95853 EQ PUSH2 0x14C JUMPI DUP1 PUSH4 0xC22EF68E EQ PUSH2 0x17D JUMPI DUP1 PUSH4 0xE10F28C7 EQ PUSH2 0x1AD JUMPI DUP1 PUSH4 0xEE7E7C99 EQ PUSH2 0x1CB JUMPI DUP1 PUSH4 0xF8BAFA70 EQ PUSH2 0x1E7 JUMPI PUSH2 0x93 JUMP JUMPDEST DUP1 PUSH4 0x2777259B EQ PUSH2 0x98 JUMPI DUP1 PUSH4 0x42AF31D7 EQ PUSH2 0xC9 JUMPI DUP1 PUSH4 0x6C87B826 EQ PUSH2 0xF9 JUMPI DUP1 PUSH4 0x79AE0257 EQ PUSH2 0x130 JUMPI JUMPDEST PUSH1 0x0 DUP1 REVERT JUMPDEST PUSH2 0xB2 PUSH1 0x4 DUP1 CALLDATASIZE SUB DUP2 ADD SWAP1 PUSH2 0xAD SWAP2 SWAP1 PUSH2 0x1704 JUMP JUMPDEST PUSH2 0x203 JUMP JUMPDEST PUSH1 0x40 MLOAD PUSH2 0xC0 SWAP3 SWAP2 SWAP1 PUSH2 0x1CDB JUMP JUMPDEST PUSH1 0x40 MLOAD DUP1 SWAP2 SUB SWAP1 RETURN JUMPDEST PUSH2 0xE3 PUSH1 0x4 DUP1 CALLDATASIZE SUB DUP2 ADD SWAP1 PUSH2 0xDE SWAP2 SWAP1 PUSH2 0x1731 JUMP JUMPDEST PUSH2 0x740 JUMP JUMPDEST PUSH1 0x40 MLOAD PUSH2 0xF0 SWAP2 SWAP1 PUSH2 0x1DF2 JUMP JUMPDEST PUSH1 0x40 MLOAD DUP1 SWAP2 SUB SWAP1 RETURN JUMPDEST PUSH2 0x113 PUSH1 0x4 DUP1 CALLDATASIZE SUB DUP2 ADD SWAP1 PUSH2 0x10E SWAP2 SWAP1 PUSH2 0x1840 JUMP JUMPDEST PUSH2 0x771 JUMP JUMPDEST PUSH1 0x40 MLOAD PUSH2 0x127 SWAP9 SWAP8 SWAP7 SWAP6 SWAP5 SWAP4 SWAP3 SWAP2 SWAP1 PUSH2 0x1C4F JUMP JUMPDEST PUSH1 0x40 MLOAD DUP1 SWAP2 SUB SWAP1 RETURN JUMPDEST PUSH2 0x14A PUSH1 0x4 DUP1 CALLDATASIZE SUB DUP2 ADD SWAP1 PUSH2 0x145 SWAP2 SWAP1 PUSH2 0x1840 JUMP JUMPDEST PUSH2 0x94E JUMP JUMPDEST STOP JUMPDEST PUSH2 0x166 PUSH1 0x4 DUP1 CALLDATASIZE SUB DUP2 ADD SWAP1 PUSH2 0x161 SWAP2 SWAP1 PUSH2 0x1704 JUMP JUMPDEST PUSH2 0x9AD JUMP JUMPDEST PUSH1 0x40 MLOAD PUSH2 0x174 SWAP3 SWAP2 SWAP1 PUSH2 0x1CDB JUMP JUMPDEST PUSH1 0x40 MLOAD DUP1 SWAP2 SUB SWAP1 RETURN JUMPDEST PUSH2 0x197 PUSH1 0x4 DUP1 CALLDATASIZE SUB DUP2 ADD SWAP1 PUSH2 0x192 SWAP2 SWAP1 PUSH2 0x1840 JUMP JUMPDEST PUSH2 0xD94 JUMP JUMPDEST PUSH1 0x40 MLOAD PUSH2 0x1A4 SWAP2 SWAP1 PUSH2 0x1DB5 JUMP JUMPDEST PUSH1 0x40 MLOAD DUP1 SWAP2 SUB SWAP1 RETURN JUMPDEST PUSH2 0x1B5 PUSH2 0x1037 JUMP JUMPDEST PUSH1 0x40 MLOAD PUSH2 0x1C2 SWAP2 SWAP1 PUSH2 0x1D12 JUMP JUMPDEST PUSH1 0x40 MLOAD DUP1 SWAP2 SUB SWAP1 RETURN JUMPDEST PUSH2 0x1E5 PUSH1 0x4 DUP1 CALLDATASIZE SUB DUP2 ADD SWAP1 PUSH2 0x1E0 SWAP2 SWAP1 PUSH2 0x1771 JUMP JUMPDEST PUSH2 0x10CC JUMP JUMPDEST STOP JUMPDEST PUSH2 0x201 PUSH1 0x4 DUP1 CALLDATASIZE SUB DUP2 ADD SWAP1 PUSH2 0x1FC SWAP2 SWAP1 PUSH2 0x186D JUMP JUMPDEST PUSH2 0x1445 JUMP JUMPDEST STOP JUMPDEST PUSH1 0x60 DUP1 PUSH1 0x0 PUSH1 0x2 PUSH1 0x0 DUP6 PUSH20 0xFFFFFFFFFFFFFFFFFFFFFFFFFFFFFFFFFFFFFFFF AND PUSH20 0xFFFFFFFFFFFFFFFFFFFFFFFFFFFFFFFFFFFFFFFF AND DUP2 MSTORE PUSH1 0x20 ADD SWAP1 DUP2 MSTORE PUSH1 0x20 ADD PUSH1 0x0 KECCAK256 DUP1 SLOAD DUP1 PUSH1 0x20 MUL PUSH1 0x20 ADD PUSH1 0x40 MLOAD SWAP1 DUP2 ADD PUSH1 0x40 MSTORE DUP1 SWAP3 SWAP2 SWAP1 DUP2 DUP2 MSTORE PUSH1 0x20 ADD DUP3 DUP1 SLOAD DUP1 ISZERO PUSH2 0x291 JUMPI PUSH1 0x20 MUL DUP3 ADD SWAP2 SWAP1 PUSH1 0x0 MSTORE PUSH1 0x20 PUSH1 0x0 KECCAK256 SWAP1 JUMPDEST DUP2 SLOAD DUP2 MSTORE PUSH1 0x20 ADD SWAP1 PUSH1 0x1 ADD SWAP1 DUP1 DUP4 GT PUSH2 0x27D JUMPI JUMPDEST POP POP POP POP POP SWAP1 POP PUSH1 0x0 DUP2 MLOAD PUSH8 0xFFFFFFFFFFFFFFFF DUP2 GT ISZERO PUSH2 0x2B5 JUMPI PUSH2 0x2B4 PUSH2 0x209E JUMP JUMPDEST JUMPDEST PUSH1 0x40 MLOAD SWAP1 DUP1 DUP3 MSTORE DUP1 PUSH1 0x20 MUL PUSH1 0x20 ADD DUP3 ADD PUSH1 0x40 MSTORE DUP1 ISZERO PUSH2 0x2E3 JUMPI DUP2 PUSH1 0x20 ADD PUSH1 0x20 DUP3 MUL DUP1 CALLDATASIZE DUP4 CALLDATACOPY DUP1 DUP3 ADD SWAP2 POP POP SWAP1 POP JUMPDEST POP SWAP1 POP PUSH1 0x0 DUP3 MLOAD PUSH8 0xFFFFFFFFFFFFFFFF DUP2 GT ISZERO PUSH2 0x303 JUMPI PUSH2 0x302 PUSH2 0x209E JUMP JUMPDEST JUMPDEST PUSH1 0x40 MLOAD SWAP1 DUP1 DUP3 MSTORE DUP1 PUSH1 0x20 MUL PUSH1 0x20 ADD DUP3 ADD PUSH1 0x40 MSTORE DUP1 ISZERO PUSH2 0x33C JUMPI DUP2 PUSH1 0x20 ADD JUMPDEST PUSH2 0x329 PUSH2 0x152A JUMP JUMPDEST DUP2 MSTORE PUSH1 0x20 ADD SWAP1 PUSH1 0x1 SWAP1 SUB SWAP1 DUP2 PUSH2 0x321 JUMPI SWAP1 POP JUMPDEST POP SWAP1 POP PUSH1 0x0 DUP1 JUMPDEST DUP5 MLOAD DUP2 LT ISZERO PUSH2 0x689 JUMPI PUSH1 0x0 DUP6 DUP3 DUP2 MLOAD DUP2 LT PUSH2 0x361 JUMPI PUSH2 0x360 PUSH2 0x206F JUMP JUMPDEST JUMPDEST PUSH1 0x20 MUL PUSH1 0x20 ADD ADD MLOAD SWAP1 POP PUSH1 0x1 PUSH1 0x0 DUP3 DUP2 MSTORE PUSH1 0x20 ADD SWAP1 DUP2 MSTORE PUSH1 0x20 ADD PUSH1 0x0 KECCAK256 PUSH1 0x4 ADD PUSH1 0x8 SWAP1 SLOAD SWAP1 PUSH2 0x100 EXP SWAP1 DIV PUSH1 0xFF AND ISZERO PUSH2 0x675 JUMPI PUSH1 0x1 PUSH1 0x0 DUP3 DUP2 MSTORE PUSH1 0x20 ADD SWAP1 DUP2 MSTORE PUSH1 0x20 ADD PUSH1 0x0 KECCAK256 PUSH1 0x40 MLOAD DUP1 PUSH2 0x100 ADD PUSH1 0x40 MSTORE SWAP1 DUP2 PUSH1 0x0 DUP3 ADD PUSH1 0x0 SWAP1 SLOAD SWAP1 PUSH2 0x100 EXP SWAP1 DIV PUSH20 0xFFFFFFFFFFFFFFFFFFFFFFFFFFFFFFFFFFFFFFFF AND PUSH20 0xFFFFFFFFFFFFFFFFFFFFFFFFFFFFFFFFFFFFFFFF AND PUSH20 0xFFFFFFFFFFFFFFFFFFFFFFFFFFFFFFFFFFFFFFFF AND DUP2 MSTORE PUSH1 0x20 ADD PUSH1 0x1 DUP3 ADD DUP1 SLOAD PUSH2 0x419 SWAP1 PUSH2 0x1F96 JUMP JUMPDEST DUP1 PUSH1 0x1F ADD PUSH1 0x20 DUP1 SWAP2 DIV MUL PUSH1 0x20 ADD PUSH1 0x40 MLOAD SWAP1 DUP2 ADD PUSH1 0x40 MSTORE DUP1 SWAP3 SWAP2 SWAP1 DUP2 DUP2 MSTORE PUSH1 0x20 ADD DUP3 DUP1 SLOAD PUSH2 0x445 SWAP1 PUSH2 0x1F96 JUMP JUMPDEST DUP1 ISZERO PUSH2 0x492 JUMPI DUP1 PUSH1 0x1F LT PUSH2 0x467 JUMPI PUSH2 0x100 DUP1 DUP4 SLOAD DIV MUL DUP4 MSTORE SWAP2 PUSH1 0x20 ADD SWAP2 PUSH2 0x492 JUMP JUMPDEST DUP3 ADD SWAP2 SWAP1 PUSH1 0x0 MSTORE PUSH1 0x20 PUSH1 0x0 KECCAK256 SWAP1 JUMPDEST DUP2 SLOAD DUP2 MSTORE SWAP1 PUSH1 0x1 ADD SWAP1 PUSH1 0x20 ADD DUP1 DUP4 GT PUSH2 0x475 JUMPI DUP3 SWAP1 SUB PUSH1 0x1F AND DUP3 ADD SWAP2 JUMPDEST POP POP POP POP POP DUP2 MSTORE PUSH1 0x20 ADD PUSH1 0x2 DUP3 ADD DUP1 SLOAD PUSH2 0x4AB SWAP1 PUSH2 0x1F96 JUMP JUMPDEST DUP1 PUSH1 0x1F ADD PUSH1 0x20 DUP1 SWAP2 DIV MUL PUSH1 0x20 ADD PUSH1 0x40 MLOAD SWAP1 DUP2 ADD PUSH1 0x40 MSTORE DUP1 SWAP3 SWAP2 SWAP1 DUP2 DUP2 MSTORE PUSH1 0x20 ADD DUP3 DUP1 SLOAD PUSH2 0x4D7 SWAP1 PUSH2 0x1F96 JUMP JUMPDEST DUP1 ISZERO PUSH2 0x524 JUMPI DUP1 PUSH1 0x1F LT PUSH2 0x4F9 JUMPI PUSH2 0x100 DUP1 DUP4 SLOAD DIV MUL DUP4 MSTORE SWAP2 PUSH1 0x20 ADD SWAP2 PUSH2 0x524 JUMP JUMPDEST DUP3 ADD SWAP2 SWAP1 PUSH1 0x0 MSTORE PUSH1 0x20 PUSH1 0x0 KECCAK256 SWAP1 JUMPDEST DUP2 SLOAD DUP2 MSTORE SWAP1 PUSH1 0x1 ADD SWAP1 PUSH1 0x20 ADD DUP1 DUP4 GT PUSH2 0x507 JUMPI DUP3 SWAP1 SUB PUSH1 0x1F AND DUP3 ADD SWAP2 JUMPDEST POP POP POP POP POP DUP2 MSTORE PUSH1 0x20 ADD PUSH1 0x3 DUP3 ADD PUSH1 0x0 SWAP1 SLOAD SWAP1 PUSH2 0x100 EXP SWAP1 DIV PUSH16 0xFFFFFFFFFFFFFFFFFFFFFFFFFFFFFFFF AND PUSH16 0xFFFFFFFFFFFFFFFFFFFFFFFFFFFFFFFF AND PUSH16 0xFFFFFFFFFFFFFFFFFFFFFFFFFFFFFFFF AND DUP2 MSTORE PUSH1 0x20 ADD PUSH1 0x3 DUP3 ADD PUSH1 0x10 SWAP1 SLOAD SWAP1 PUSH2 0x100 EXP SWAP1 DIV PUSH16 0xFFFFFFFFFFFFFFFFFFFFFFFFFFFFFFFF AND PUSH16 0xFFFFFFFFFFFFFFFFFFFFFFFFFFFFFFFF AND PUSH16 0xFFFFFFFFFFFFFFFFFFFFFFFFFFFFFFFF AND DUP2 MSTORE PUSH1 0x20 ADD PUSH1 0x4 DUP3 ADD PUSH1 0x0 SWAP1 SLOAD SWAP1 PUSH2 0x100 EXP SWAP1 DIV PUSH4 0xFFFFFFFF AND PUSH4 0xFFFFFFFF AND PUSH4 0xFFFFFFFF AND DUP2 MSTORE PUSH1 0x20 ADD PUSH1 0x4 DUP3 ADD PUSH1 0x4 SWAP1 SLOAD SWAP1 PUSH2 0x100 EXP SWAP1 DIV PUSH4 0xFFFFFFFF AND PUSH4 0xFFFFFFFF AND PUSH4 0xFFFFFFFF AND DUP2 MSTORE PUSH1 0x20 ADD PUSH1 0x4 DUP3 ADD PUSH1 0x8 SWAP1 SLOAD SWAP1 PUSH2 0x100 EXP SWAP1 DIV PUSH1 0xFF AND ISZERO ISZERO ISZERO ISZERO DUP2 MSTORE POP POP DUP5 DUP5 DUP2 MLOAD DUP2 LT PUSH2 0x63B JUMPI PUSH2 0x63A PUSH2 0x206F JUMP JUMPDEST JUMPDEST PUSH1 0x20 MUL PUSH1 0x20 ADD ADD DUP2 SWAP1 MSTORE POP DUP1 DUP6 DUP5 DUP2 MLOAD DUP2 LT PUSH2 0x65A JUMPI PUSH2 0x659 PUSH2 0x206F JUMP JUMPDEST JUMPDEST PUSH1 0x20 MUL PUSH1 0x20 ADD ADD DUP2 DUP2 MSTORE POP POP DUP3 DUP1 PUSH2 0x671 SWAP1 PUSH2 0x1FC8 JUMP JUMPDEST SWAP4 POP POP JUMPDEST POP DUP1 DUP1 PUSH2 0x681 SWAP1 PUSH2 0x1FC8 JUMP JUMPDEST SWAP2 POP POP PUSH2 0x343 JUMP JUMPDEST POP PUSH1 0x0 DUP2 PUSH8 0xFFFFFFFFFFFFFFFF DUP2 GT ISZERO PUSH2 0x6A6 JUMPI PUSH2 0x6A5 PUSH2 0x209E JUMP JUMPDEST JUMPDEST PUSH1 0x40 MLOAD SWAP1 DUP1 DUP3 MSTORE DUP1 PUSH1 0x20 MUL PUSH1 0x20 ADD DUP3 ADD PUSH1 0x40 MSTORE DUP1 ISZERO PUSH2 0x6D4 JUMPI DUP2 PUSH1 0x20 ADD PUSH1 0x20 DUP3 MUL DUP1 CALLDATASIZE DUP4 CALLDATACOPY DUP1 DUP3 ADD SWAP2 POP POP SWAP1 POP JUMPDEST POP SWAP1 POP PUSH1 0x0 JUMPDEST DUP3 DUP2 LT ISZERO PUSH2 0x72F JUMPI DUP5 DUP2 DUP2 MLOAD DUP2 LT PUSH2 0x6F5 JUMPI PUSH2 0x6F4 PUSH2 0x206F JUMP JUMPDEST JUMPDEST PUSH1 0x20 MUL PUSH1 0x20 ADD ADD MLOAD DUP3 DUP3 DUP2 MLOAD DUP2 LT PUSH2 0x710 JUMPI PUSH2 0x70F PUSH2 0x206F JUMP JUMPDEST JUMPDEST PUSH1 0x20 MUL PUSH1 0x20 ADD ADD DUP2 DUP2 MSTORE POP POP DUP1 DUP1 PUSH2 0x727 SWAP1 PUSH2 0x1FC8 JUMP JUMPDEST SWAP2 POP POP PUSH2 0x6DA JUMP JUMPDEST POP DUP3 DUP2 SWAP7 POP SWAP7 POP POP POP POP POP POP SWAP2 POP SWAP2 JUMP JUMPDEST PUSH1 0x2 PUSH1 0x20 MSTORE DUP2 PUSH1 0x0 MSTORE PUSH1 0x40 PUSH1 0x0 KECCAK256 DUP2 DUP2 SLOAD DUP2 LT PUSH2 0x75C JUMPI PUSH1 0x0 DUP1 REVERT JUMPDEST SWAP1 PUSH1 0x0 MSTORE PUSH1 0x20 PUSH1 0x0 KECCAK256 ADD PUSH1 0x0 SWAP2 POP SWAP2 POP POP SLOAD DUP2 JUMP JUMPDEST PUSH1 0x1 PUSH1 0x20 MSTORE DUP1 PUSH1 0x0 MSTORE PUSH1 0x40 PUSH1 0x0 KECCAK256 PUSH1 0x0 SWAP2 POP SWAP1 POP DUP1 PUSH1 0x0 ADD PUSH1 0x0 SWAP1 SLOAD SWAP1 PUSH2 0x100 EXP SWAP1 DIV PUSH20 0xFFFFFFFFFFFFFFFFFFFFFFFFFFFFFFFFFFFFFFFF AND SWAP1 DUP1 PUSH1 0x1 ADD DUP1 SLOAD PUSH2 0x7BA SWAP1 PUSH2 0x1F96 JUMP JUMPDEST DUP1 PUSH1 0x1F ADD PUSH1 0x20 DUP1 SWAP2 DIV MUL PUSH1 0x20 ADD PUSH1 0x40 MLOAD SWAP1 DUP2 ADD PUSH1 0x40 MSTORE DUP1 SWAP3 SWAP2 SWAP1 DUP2 DUP2 MSTORE PUSH1 0x20 ADD DUP3 DUP1 SLOAD PUSH2 0x7E6 SWAP1 PUSH2 0x1F96 JUMP JUMPDEST DUP1 ISZERO PUSH2 0x833 JUMPI DUP1 PUSH1 0x1F LT PUSH2 0x808 JUMPI PUSH2 0x100 DUP1 DUP4 SLOAD DIV MUL DUP4 MSTORE SWAP2 PUSH1 0x20 ADD SWAP2 PUSH2 0x833 JUMP JUMPDEST DUP3 ADD SWAP2 SWAP1 PUSH1 0x0 MSTORE PUSH1 0x20 PUSH1 0x0 KECCAK256 SWAP1 JUMPDEST DUP2 SLOAD DUP2 MSTORE SWAP1 PUSH1 0x1 ADD SWAP1 PUSH1 0x20 ADD DUP1 DUP4 GT PUSH2 0x816 JUMPI DUP3 SWAP1 SUB PUSH1 0x1F AND DUP3 ADD SWAP2 JUMPDEST POP POP POP POP POP SWAP1 DUP1 PUSH1 0x2 ADD DUP1 SLOAD PUSH2 0x848 SWAP1 PUSH2 0x1F96 JUMP JUMPDEST DUP1 PUSH1 0x1F ADD PUSH1 0x20 DUP1 SWAP2 DIV MUL PUSH1 0x20 ADD PUSH1 0x40 MLOAD SWAP1 DUP2 ADD PUSH1 0x40 MSTORE DUP1 SWAP3 SWAP2 SWAP1 DUP2 DUP2 MSTORE PUSH1 0x20 ADD DUP3 DUP1 SLOAD PUSH2 0x874 SWAP1 PUSH2 0x1F96 JUMP JUMPDEST DUP1 ISZERO PUSH2 0x8C1 JUMPI DUP1 PUSH1 0x1F LT PUSH2 0x896 JUMPI PUSH2 0x100 DUP1 DUP4 SLOAD DIV MUL DUP4 MSTORE SWAP2 PUSH1 0x20 ADD SWAP2 PUSH2 0x8C1 JUMP JUMPDEST DUP3 ADD SWAP2 SWAP1 PUSH1 0x0 MSTORE PUSH1 0x20 PUSH1 0x0 KECCAK256 SWAP1 JUMPDEST DUP2 SLOAD DUP2 MSTORE SWAP1 PUSH1 0x1 ADD SWAP1 PUSH1 0x20 ADD DUP1 DUP4 GT PUSH2 0x8A4 JUMPI DUP3 SWAP1 SUB PUSH1 0x1F AND DUP3 ADD SWAP2 JUMPDEST POP POP POP POP POP SWAP1 DUP1 PUSH1 0x3 ADD PUSH1 0x0 SWAP1 SLOAD SWAP1 PUSH2 0x100 EXP SWAP1 DIV PUSH16 0xFFFFFFFFFFFFFFFFFFFFFFFFFFFFFFFF AND SWAP1 DUP1 PUSH1 0x3 ADD PUSH1 0x10 SWAP1 SLOAD SWAP1 PUSH2 0x100 EXP SWAP1 DIV PUSH16 0xFFFFFFFFFFFFFFFFFFFFFFFFFFFFFFFF AND SWAP1 DUP1 PUSH1 0x4 ADD PUSH1 0x0 SWAP1 SLOAD SWAP1 PUSH2 0x100 EXP SWAP1 DIV PUSH4 0xFFFFFFFF AND SWAP1 DUP1 PUSH1 0x4 ADD PUSH1 0x4 SWAP1 SLOAD SWAP1 PUSH2 0x100 EXP SWAP1 DIV PUSH4 0xFFFFFFFF AND SWAP1 DUP1 PUSH1 0x4 ADD PUSH1 0x8 SWAP1 SLOAD SWAP1 PUSH2 0x100 EXP SWAP1 DIV PUSH1 0xFF AND SWAP1 POP DUP9 JUMP JUMPDEST PUSH1 0x0 PUSH1 0x1 PUSH1 0x0 DUP4 DUP2 MSTORE PUSH1 0x20 ADD SWAP1 DUP2 MSTORE PUSH1 0x20 ADD PUSH1 0x0 KECCAK256 PUSH1 0x4 ADD PUSH1 0x8 PUSH2 0x100 EXP DUP2 SLOAD DUP2 PUSH1 0xFF MUL NOT AND SWAP1 DUP4 ISZERO ISZERO MUL OR SWAP1 SSTORE POP DUP1 PUSH32 0x6C1A4E746947A5049A6693A4875A10617826C8361C631CAC61717E141185FDD2 PUSH1 0x40 MLOAD PUSH1 0x40 MLOAD DUP1 SWAP2 SUB SWAP1 LOG2 POP JUMP JUMPDEST PUSH1 0x60 DUP1 PUSH1 0x0 PUSH1 0x2 PUSH1 0x0 DUP6 PUSH20 0xFFFFFFFFFFFFFFFFFFFFFFFFFFFFFFFFFFFFFFFF AND PUSH20 0xFFFFFFFFFFFFFFFFFFFFFFFFFFFFFFFFFFFFFFFF AND DUP2 MSTORE PUSH1 0x20 ADD SWAP1 DUP2 MSTORE PUSH1 0x20 ADD PUSH1 0x0 KECCAK256 DUP1 SLOAD DUP1 PUSH1 0x20 MUL PUSH1 0x20 ADD PUSH1 0x40 MLOAD SWAP1 DUP2 ADD PUSH1 0x40 MSTORE DUP1 SWAP3 SWAP2 SWAP1 DUP2 DUP2 MSTORE PUSH1 0x20 ADD DUP3 DUP1 SLOAD DUP1 ISZERO PUSH2 0xA3B JUMPI PUSH1 0x20 MUL DUP3 ADD SWAP2 SWAP1 PUSH1 0x0 MSTORE PUSH1 0x20 PUSH1 0x0 KECCAK256 SWAP1 JUMPDEST DUP2 SLOAD DUP2 MSTORE PUSH1 0x20 ADD SWAP1 PUSH1 0x1 ADD SWAP1 DUP1 DUP4 GT PUSH2 0xA27 JUMPI JUMPDEST POP POP POP POP POP SWAP1 POP PUSH1 0x0 DUP2 MLOAD PUSH8 0xFFFFFFFFFFFFFFFF DUP2 GT ISZERO PUSH2 0xA5F JUMPI PUSH2 0xA5E PUSH2 0x209E JUMP JUMPDEST JUMPDEST PUSH1 0x40 MLOAD SWAP1 DUP1 DUP3 MSTORE DUP1 PUSH1 0x20 MUL PUSH1 0x20 ADD DUP3 ADD PUSH1 0x40 MSTORE DUP1 ISZERO PUSH2 0xA98 JUMPI DUP2 PUSH1 0x20 ADD JUMPDEST PUSH2 0xA85 PUSH2 0x152A JUMP JUMPDEST DUP2 MSTORE PUSH1 0x20 ADD SWAP1 PUSH1 0x1 SWAP1 SUB SWAP1 DUP2 PUSH2 0xA7D JUMPI SWAP1 POP JUMPDEST POP SWAP1 POP PUSH1 0x0 JUMPDEST DUP3 MLOAD DUP2 LT ISZERO PUSH2 0xD86 JUMPI PUSH1 0x1 PUSH1 0x0 DUP5 DUP4 DUP2 MLOAD DUP2 LT PUSH2 0xABE JUMPI PUSH2 0xABD PUSH2 0x206F JUMP JUMPDEST JUMPDEST PUSH1 0x20 MUL PUSH1 0x20 ADD ADD MLOAD DUP2 MSTORE PUSH1 0x20 ADD SWAP1 DUP2 MSTORE PUSH1 0x20 ADD PUSH1 0x0 KECCAK256 PUSH1 0x40 MLOAD DUP1 PUSH2 0x100 ADD PUSH1 0x40 MSTORE SWAP1 DUP2 PUSH1 0x0 DUP3 ADD PUSH1 0x0 SWAP1 SLOAD SWAP1 PUSH2 0x100 EXP SWAP1 DIV PUSH20 0xFFFFFFFFFFFFFFFFFFFFFFFFFFFFFFFFFFFFFFFF AND PUSH20 0xFFFFFFFFFFFFFFFFFFFFFFFFFFFFFFFFFFFFFFFF AND PUSH20 0xFFFFFFFFFFFFFFFFFFFFFFFFFFFFFFFFFFFFFFFF AND DUP2 MSTORE PUSH1 0x20 ADD PUSH1 0x1 DUP3 ADD DUP1 SLOAD PUSH2 0xB46 SWAP1 PUSH2 0x1F96 JUMP JUMPDEST DUP1 PUSH1 0x1F ADD PUSH1 0x20 DUP1 SWAP2 DIV MUL PUSH1 0x20 ADD PUSH1 0x40 MLOAD SWAP1 DUP2 ADD PUSH1 0x40 MSTORE DUP1 SWAP3 SWAP2 SWAP1 DUP2 DUP2 MSTORE PUSH1 0x20 ADD DUP3 DUP1 SLOAD PUSH2 0xB72 SWAP1 PUSH2 0x1F96 JUMP JUMPDEST DUP1 ISZERO PUSH2 0xBBF JUMPI DUP1 PUSH1 0x1F LT PUSH2 0xB94 JUMPI PUSH2 0x100 DUP1 DUP4 SLOAD DIV MUL DUP4 MSTORE SWAP2 PUSH1 0x20 ADD SWAP2 PUSH2 0xBBF JUMP JUMPDEST DUP3 ADD SWAP2 SWAP1 PUSH1 0x0 MSTORE PUSH1 0x20 PUSH1 0x0 KECCAK256 SWAP1 JUMPDEST DUP2 SLOAD DUP2 MSTORE SWAP1 PUSH1 0x1 ADD SWAP1 PUSH1 0x20 ADD DUP1 DUP4 GT PUSH2 0xBA2 JUMPI DUP3 SWAP1 SUB PUSH1 0x1F AND DUP3 ADD SWAP2 JUMPDEST POP POP POP POP POP DUP2 MSTORE PUSH1 0x20 ADD PUSH1 0x2 DUP3 ADD DUP1 SLOAD PUSH2 0xBD8 SWAP1 PUSH2 0x1F96 JUMP JUMPDEST DUP1 PUSH1 0x1F ADD PUSH1 0x20 DUP1 SWAP2 DIV MUL PUSH1 0x20 ADD PUSH1 0x40 MLOAD SWAP1 DUP2 ADD PUSH1 0x40 MSTORE DUP1 SWAP3 SWAP2 SWAP1 DUP2 DUP2 MSTORE PUSH1 0x20 ADD DUP3 DUP1 SLOAD PUSH2 0xC04 SWAP1 PUSH2 0x1F96 JUMP JUMPDEST DUP1 ISZERO PUSH2 0xC51 JUMPI DUP1 PUSH1 0x1F LT PUSH2 0xC26 JUMPI PUSH2 0x100 DUP1 DUP4 SLOAD DIV MUL DUP4 MSTORE SWAP2 PUSH1 0x20 ADD SWAP2 PUSH2 0xC51 JUMP JUMPDEST DUP3 ADD SWAP2 SWAP1 PUSH1 0x0 MSTORE PUSH1 0x20 PUSH1 0x0 KECCAK256 SWAP1 JUMPDEST DUP2 SLOAD DUP2 MSTORE SWAP1 PUSH1 0x1 ADD SWAP1 PUSH1 0x20 ADD DUP1 DUP4 GT PUSH2 0xC34 JUMPI DUP3 SWAP1 SUB PUSH1 0x1F AND DUP3 ADD SWAP2 JUMPDEST POP POP POP POP POP DUP2 MSTORE PUSH1 0x20 ADD PUSH1 0x3 DUP3 ADD PUSH1 0x0 SWAP1 SLOAD SWAP1 PUSH2 0x100 EXP SWAP1 DIV PUSH16 0xFFFFFFFFFFFFFFFFFFFFFFFFFFFFFFFF AND PUSH16 0xFFFFFFFFFFFFFFFFFFFFFFFFFFFFFFFF AND PUSH16 0xFFFFFFFFFFFFFFFFFFFFFFFFFFFFFFFF AND DUP2 MSTORE PUSH1 0x20 ADD PUSH1 0x3 DUP3 ADD PUSH1 0x10 SWAP1 SLOAD SWAP1 PUSH2 0x100 EXP SWAP1 DIV PUSH16 0xFFFFFFFFFFFFFFFFFFFFFFFFFFFFFFFF AND PUSH16 0xFFFFFFFFFFFFFFFFFFFFFFFFFFFFFFFF AND PUSH16 0xFFFFFFFFFFFFFFFFFFFFFFFFFFFFFFFF AND DUP2 MSTORE PUSH1 0x20 ADD PUSH1 0x4 DUP3 ADD PUSH1 0x0 SWAP1 SLOAD SWAP1 PUSH2 0x100 EXP SWAP1 DIV PUSH4 0xFFFFFFFF AND PUSH4 0xFFFFFFFF AND PUSH4 0xFFFFFFFF AND DUP2 MSTORE PUSH1 0x20 ADD PUSH1 0x4 DUP3 ADD PUSH1 0x4 SWAP1 SLOAD SWAP1 PUSH2 0x100 EXP SWAP1 DIV PUSH4 0xFFFFFFFF AND PUSH4 0xFFFFFFFF AND PUSH4 0xFFFFFFFF AND DUP2 MSTORE PUSH1 0x20 ADD PUSH1 0x4 DUP3 ADD PUSH1 0x8 SWAP1 SLOAD SWAP1 PUSH2 0x100 EXP SWAP1 DIV PUSH1 0xFF AND ISZERO ISZERO ISZERO ISZERO DUP2 MSTORE POP POP DUP3 DUP3 DUP2 MLOAD DUP2 LT PUSH2 0xD68 JUMPI PUSH2 0xD67 PUSH2 0x206F JUMP JUMPDEST JUMPDEST PUSH1 0x20 MUL PUSH1 0x20 ADD ADD DUP2 SWAP1 MSTORE POP DUP1 DUP1 PUSH2 0xD7E SWAP1 PUSH2 0x1FC8 JUMP JUMPDEST SWAP2 POP POP PUSH2 0xA9E JUMP JUMPDEST POP DUP1 DUP3 SWAP4 POP SWAP4 POP POP POP SWAP2 POP SWAP2 JUMP JUMPDEST PUSH2 0xD9C PUSH2 0x152A JUMP JUMPDEST PUSH1 0x1 PUSH1 0x0 DUP4 DUP2 MSTORE PUSH1 0x20 ADD SWAP1 DUP2 MSTORE PUSH1 0x20 ADD PUSH1 0x0 KECCAK256 PUSH1 0x40 MLOAD DUP1 PUSH2 0x100 ADD PUSH1 0x40 MSTORE SWAP1 DUP2 PUSH1 0x0 DUP3 ADD PUSH1 0x0 SWAP1 SLOAD SWAP1 PUSH2 0x100 EXP SWAP1 DIV PUSH20 0xFFFFFFFFFFFFFFFFFFFFFFFFFFFFFFFFFFFFFFFF AND PUSH20 0xFFFFFFFFFFFFFFFFFFFFFFFFFFFFFFFFFFFFFFFF AND PUSH20 0xFFFFFFFFFFFFFFFFFFFFFFFFFFFFFFFFFFFFFFFF AND DUP2 MSTORE PUSH1 0x20 ADD PUSH1 0x1 DUP3 ADD DUP1 SLOAD PUSH2 0xE21 SWAP1 PUSH2 0x1F96 JUMP JUMPDEST DUP1 PUSH1 0x1F ADD PUSH1 0x20 DUP1 SWAP2 DIV MUL PUSH1 0x20 ADD PUSH1 0x40 MLOAD SWAP1 DUP2 ADD PUSH1 0x40 MSTORE DUP1 SWAP3 SWAP2 SWAP1 DUP2 DUP2 MSTORE PUSH1 0x20 ADD DUP3 DUP1 SLOAD PUSH2 0xE4D SWAP1 PUSH2 0x1F96 JUMP JUMPDEST DUP1 ISZERO PUSH2 0xE9A JUMPI DUP1 PUSH1 0x1F LT PUSH2 0xE6F JUMPI PUSH2 0x100 DUP1 DUP4 SLOAD DIV MUL DUP4 MSTORE SWAP2 PUSH1 0x20 ADD SWAP2 PUSH2 0xE9A JUMP JUMPDEST DUP3 ADD SWAP2 SWAP1 PUSH1 0x0 MSTORE PUSH1 0x20 PUSH1 0x0 KECCAK256 SWAP1 JUMPDEST DUP2 SLOAD DUP2 MSTORE SWAP1 PUSH1 0x1 ADD SWAP1 PUSH1 0x20 ADD DUP1 DUP4 GT PUSH2 0xE7D JUMPI DUP3 SWAP1 SUB PUSH1 0x1F AND DUP3 ADD SWAP2 JUMPDEST POP POP POP POP POP DUP2 MSTORE PUSH1 0x20 ADD PUSH1 0x2 DUP3 ADD DUP1 SLOAD PUSH2 0xEB3 SWAP1 PUSH2 0x1F96 JUMP JUMPDEST DUP1 PUSH1 0x1F ADD PUSH1 0x20 DUP1 SWAP2 DIV MUL PUSH1 0x20 ADD PUSH1 0x40 MLOAD SWAP1 DUP2 ADD PUSH1 0x40 MSTORE DUP1 SWAP3 SWAP2 SWAP1 DUP2 DUP2 MSTORE PUSH1 0x20 ADD DUP3 DUP1 SLOAD PUSH2 0xEDF SWAP1 PUSH2 0x1F96 JUMP JUMPDEST DUP1 ISZERO PUSH2 0xF2C JUMPI DUP1 PUSH1 0x1F LT PUSH2 0xF01 JUMPI PUSH2 0x100 DUP1 DUP4 SLOAD DIV MUL DUP4 MSTORE SWAP2 PUSH1 0x20 ADD SWAP2 PUSH2 0xF2C JUMP JUMPDEST DUP3 ADD SWAP2 SWAP1 PUSH1 0x0 MSTORE PUSH1 0x20 PUSH1 0x0 KECCAK256 SWAP1 JUMPDEST DUP2 SLOAD DUP2 MSTORE SWAP1 PUSH1 0x1 ADD SWAP1 PUSH1 0x20 ADD DUP1 DUP4 GT PUSH2 0xF0F JUMPI DUP3 SWAP1 SUB PUSH1 0x1F AND DUP3 ADD SWAP2 JUMPDEST POP POP POP POP POP DUP2 MSTORE PUSH1 0x20 ADD PUSH1 0x3 DUP3 ADD PUSH1 0x0 SWAP1 SLOAD SWAP1 PUSH2 0x100 EXP SWAP1 DIV PUSH16 0xFFFFFFFFFFFFFFFFFFFFFFFFFFFFFFFF AND PUSH16 0xFFFFFFFFFFFFFFFFFFFFFFFFFFFFFFFF AND PUSH16 0xFFFFFFFFFFFFFFFFFFFFFFFFFFFFFFFF AND DUP2 MSTORE PUSH1 0x20 ADD PUSH1 0x3 DUP3 ADD PUSH1 0x10 SWAP1 SLOAD SWAP1 PUSH2 0x100 EXP SWAP1 DIV PUSH16 0xFFFFFFFFFFFFFFFFFFFFFFFFFFFFFFFF AND PUSH16 0xFFFFFFFFFFFFFFFFFFFFFFFFFFFFFFFF AND PUSH16 0xFFFFFFFFFFFFFFFFFFFFFFFFFFFFFFFF AND DUP2 MSTORE PUSH1 0x20 ADD PUSH1 0x4 DUP3 ADD PUSH1 0x0 SWAP1 SLOAD SWAP1 PUSH2 0x100 EXP SWAP1 DIV PUSH4 0xFFFFFFFF AND PUSH4 0xFFFFFFFF AND PUSH4 0xFFFFFFFF AND DUP2 MSTORE PUSH1 0x20 ADD PUSH1 0x4 DUP3 ADD PUSH1 0x4 SWAP1 SLOAD SWAP1 PUSH2 0x100 EXP SWAP1 DIV PUSH4 0xFFFFFFFF AND PUSH4 0xFFFFFFFF AND PUSH4 0xFFFFFFFF AND DUP2 MSTORE PUSH1 0x20 ADD PUSH1 0x4 DUP3 ADD PUSH1 0x8 SWAP1 SLOAD SWAP1 PUSH2 0x100 EXP SWAP1 DIV PUSH1 0xFF AND ISZERO ISZERO ISZERO ISZERO DUP2 MSTORE POP POP SWAP1 POP SWAP2 SWAP1 POP JUMP JUMPDEST PUSH1 0x60 PUSH1 0x2 PUSH1 0x0 CALLER PUSH20 0xFFFFFFFFFFFFFFFFFFFFFFFFFFFFFFFFFFFFFFFF AND PUSH20 0xFFFFFFFFFFFFFFFFFFFFFFFFFFFFFFFFFFFFFFFF AND DUP2 MSTORE PUSH1 0x20 ADD SWAP1 DUP2 MSTORE PUSH1 0x20 ADD PUSH1 0x0 KECCAK256 DUP1 SLOAD DUP1 PUSH1 0x20 MUL PUSH1 0x20 ADD PUSH1 0x40 MLOAD SWAP1 DUP2 ADD PUSH1 0x40 MSTORE DUP1 SWAP3 SWAP2 SWAP1 DUP2 DUP2 MSTORE PUSH1 0x20 ADD DUP3 DUP1 SLOAD DUP1 ISZERO PUSH2 0x10C2 JUMPI PUSH1 0x20 MUL DUP3 ADD SWAP2 SWAP1 PUSH1 0x0 MSTORE PUSH1 0x20 PUSH1 0x0 KECCAK256 SWAP1 JUMPDEST DUP2 SLOAD DUP2 MSTORE PUSH1 0x20 ADD SWAP1 PUSH1 0x1 ADD SWAP1 DUP1 DUP4 GT PUSH2 0x10AE JUMPI JUMPDEST POP POP POP POP POP SWAP1 POP SWAP1 JUMP JUMPDEST PUSH1 0x40 MLOAD DUP1 PUSH2 0x100 ADD PUSH1 0x40 MSTORE DUP1 CALLER PUSH20 0xFFFFFFFFFFFFFFFFFFFFFFFFFFFFFFFFFFFFFFFF AND DUP2 MSTORE PUSH1 0x20 ADD DUP10 DUP10 DUP1 DUP1 PUSH1 0x1F ADD PUSH1 0x20 DUP1 SWAP2 DIV MUL PUSH1 0x20 ADD PUSH1 0x40 MLOAD SWAP1 DUP2 ADD PUSH1 0x40 MSTORE DUP1 SWAP4 SWAP3 SWAP2 SWAP1 DUP2 DUP2 MSTORE PUSH1 0x20 ADD DUP4 DUP4 DUP1 DUP3 DUP5 CALLDATACOPY PUSH1 0x0 DUP2 DUP5 ADD MSTORE PUSH1 0x1F NOT PUSH1 0x1F DUP3 ADD AND SWAP1 POP DUP1 DUP4 ADD SWAP3 POP POP POP POP POP POP POP DUP2 MSTORE PUSH1 0x20 ADD DUP8 DUP8 DUP1 DUP1 PUSH1 0x1F ADD PUSH1 0x20 DUP1 SWAP2 DIV MUL PUSH1 0x20 ADD PUSH1 0x40 MLOAD SWAP1 DUP2 ADD PUSH1 0x40 MSTORE DUP1 SWAP4 SWAP3 SWAP2 SWAP1 DUP2 DUP2 MSTORE PUSH1 0x20 ADD DUP4 DUP4 DUP1 DUP3 DUP5 CALLDATACOPY PUSH1 0x0 DUP2 DUP5 ADD MSTORE PUSH1 0x1F NOT PUSH1 0x1F DUP3 ADD AND SWAP1 POP DUP1 DUP4 ADD SWAP3 POP POP POP POP POP POP POP DUP2 MSTORE PUSH1 0x20 ADD DUP6 PUSH16 0xFFFFFFFFFFFFFFFFFFFFFFFFFFFFFFFF AND DUP2 MSTORE PUSH1 0x20 ADD DUP5 PUSH16 0xFFFFFFFFFFFFFFFFFFFFFFFFFFFFFFFF AND DUP2 MSTORE PUSH1 0x20 ADD DUP4 PUSH4 0xFFFFFFFF AND DUP2 MSTORE PUSH1 0x20 ADD DUP3 PUSH4 0xFFFFFFFF AND DUP2 MSTORE PUSH1 0x20 ADD PUSH1 0x1 ISZERO ISZERO DUP2 MSTORE POP PUSH1 0x1 PUSH1 0x0 DUP1 SLOAD DUP2 MSTORE PUSH1 0x20 ADD SWAP1 DUP2 MSTORE PUSH1 0x20 ADD PUSH1 0x0 KECCAK256 PUSH1 0x0 DUP3 ADD MLOAD DUP2 PUSH1 0x0 ADD PUSH1 0x0 PUSH2 0x100 EXP DUP2 SLOAD DUP2 PUSH20 0xFFFFFFFFFFFFFFFFFFFFFFFFFFFFFFFFFFFFFFFF MUL NOT AND SWAP1 DUP4 PUSH20 0xFFFFFFFFFFFFFFFFFFFFFFFFFFFFFFFFFFFFFFFF AND MUL OR SWAP1 SSTORE POP PUSH1 0x20 DUP3 ADD MLOAD DUP2 PUSH1 0x1 ADD SWAP1 DUP1 MLOAD SWAP1 PUSH1 0x20 ADD SWAP1 PUSH2 0x124E SWAP3 SWAP2 SWAP1 PUSH2 0x15B7 JUMP JUMPDEST POP PUSH1 0x40 DUP3 ADD MLOAD DUP2 PUSH1 0x2 ADD SWAP1 DUP1 MLOAD SWAP1 PUSH1 0x20 ADD SWAP1 PUSH2 0x126B SWAP3 SWAP2 SWAP1 PUSH2 0x15B7 JUMP JUMPDEST POP PUSH1 0x60 DUP3 ADD MLOAD DUP2 PUSH1 0x3 ADD PUSH1 0x0 PUSH2 0x100 EXP DUP2 SLOAD DUP2 PUSH16 0xFFFFFFFFFFFFFFFFFFFFFFFFFFFFFFFF MUL NOT AND SWAP1 DUP4 PUSH16 0xFFFFFFFFFFFFFFFFFFFFFFFFFFFFFFFF AND MUL OR SWAP1 SSTORE POP PUSH1 0x80 DUP3 ADD MLOAD DUP2 PUSH1 0x3 ADD PUSH1 0x10 PUSH2 0x100 EXP DUP2 SLOAD DUP2 PUSH16 0xFFFFFFFFFFFFFFFFFFFFFFFFFFFFFFFF MUL NOT AND SWAP1 DUP4 PUSH16 0xFFFFFFFFFFFFFFFFFFFFFFFFFFFFFFFF AND MUL OR SWAP1 SSTORE POP PUSH1 0xA0 DUP3 ADD MLOAD DUP2 PUSH1 0x4 ADD PUSH1 0x0 PUSH2 0x100 EXP DUP2 SLOAD DUP2 PUSH4 0xFFFFFFFF MUL NOT AND SWAP1 DUP4 PUSH4 0xFFFFFFFF AND MUL OR SWAP1 SSTORE POP PUSH1 0xC0 DUP3 ADD MLOAD DUP2 PUSH1 0x4 ADD PUSH1 0x4 PUSH2 0x100 EXP DUP2 SLOAD DUP2 PUSH4 0xFFFFFFFF MUL NOT AND SWAP1 DUP4 PUSH4 0xFFFFFFFF AND MUL OR SWAP1 SSTORE POP PUSH1 0xE0 DUP3 ADD MLOAD DUP2 PUSH1 0x4 ADD PUSH1 0x8 PUSH2 0x100 EXP DUP2 SLOAD DUP2 PUSH1 0xFF MUL NOT AND SWAP1 DUP4 ISZERO ISZERO MUL OR SWAP1 SSTORE POP SWAP1 POP POP PUSH1 0x2 PUSH1 0x0 CALLER PUSH20 0xFFFFFFFFFFFFFFFFFFFFFFFFFFFFFFFFFFFFFFFF AND PUSH20 0xFFFFFFFFFFFFFFFFFFFFFFFFFFFFFFFFFFFFFFFF AND DUP2 MSTORE PUSH1 0x20 ADD SWAP1 DUP2 MSTORE PUSH1 0x20 ADD PUSH1 0x0 KECCAK256 PUSH1 0x0 SLOAD SWAP1 DUP1 PUSH1 0x1 DUP2 SLOAD ADD DUP1 DUP3 SSTORE DUP1 SWAP2 POP POP PUSH1 0x1 SWAP1 SUB SWAP1 PUSH1 0x0 MSTORE PUSH1 0x20 PUSH1 0x0 KECCAK256 ADD PUSH1 0x0 SWAP1 SWAP2 SWAP1 SWAP2 SWAP1 SWAP2 POP SSTORE CALLER PUSH20 0xFFFFFFFFFFFFFFFFFFFFFFFFFFFFFFFFFFFFFFFF AND PUSH1 0x0 SLOAD PUSH32 0xB544B666BF20D30FC9ACBC75AEE55E5847E8F95A49AA5D36B6DAB734F0CBB303 DUP11 DUP11 DUP11 DUP11 DUP11 DUP11 DUP11 DUP11 TIMESTAMP PUSH1 0x40 MLOAD PUSH2 0x141C SWAP10 SWAP9 SWAP8 SWAP7 SWAP6 SWAP5 SWAP4 SWAP3 SWAP2 SWAP1 PUSH2 0x1D34 JUMP JUMPDEST PUSH1 0x40 MLOAD DUP1 SWAP2 SUB SWAP1 LOG3 PUSH1 0x0 DUP1 DUP2 SLOAD DUP1 SWAP3 SWAP2 SWAP1 PUSH2 0x1436 SWAP1 PUSH2 0x1FC8 JUMP JUMPDEST SWAP2 SWAP1 POP SSTORE POP POP POP POP POP POP POP POP POP JUMP JUMPDEST DUP1 PUSH1 0x1 PUSH1 0x0 DUP5 DUP2 MSTORE PUSH1 0x20 ADD SWAP1 DUP2 MSTORE PUSH1 0x20 ADD PUSH1 0x0 KECCAK256 PUSH1 0x3 ADD PUSH1 0x0 DUP3 DUP3 DUP3 SWAP1 SLOAD SWAP1 PUSH2 0x100 EXP SWAP1 DIV PUSH16 0xFFFFFFFFFFFFFFFFFFFFFFFFFFFFFFFF AND PUSH2 0x1486 SWAP2 SWAP1 PUSH2 0x1EAC JUMP JUMPDEST SWAP3 POP PUSH2 0x100 EXP DUP2 SLOAD DUP2 PUSH16 0xFFFFFFFFFFFFFFFFFFFFFFFFFFFFFFFF MUL NOT AND SWAP1 DUP4 PUSH16 0xFFFFFFFFFFFFFFFFFFFFFFFFFFFFFFFF AND MUL OR SWAP1 SSTORE POP DUP2 PUSH32 0x1F3D301ECA9B893FB3AE34F526F7B346CFE3086BE67884CE1E652593C91668D6 PUSH1 0x1 PUSH1 0x0 DUP6 DUP2 MSTORE PUSH1 0x20 ADD SWAP1 DUP2 MSTORE PUSH1 0x20 ADD PUSH1 0x0 KECCAK256 PUSH1 0x3 ADD PUSH1 0x0 SWAP1 SLOAD SWAP1 PUSH2 0x100 EXP SWAP1 DIV PUSH16 0xFFFFFFFFFFFFFFFFFFFFFFFFFFFFFFFF AND PUSH1 0x40 MLOAD PUSH2 0x151E SWAP2 SWAP1 PUSH2 0x1DD7 JUMP JUMPDEST PUSH1 0x40 MLOAD DUP1 SWAP2 SUB SWAP1 LOG2 POP POP JUMP JUMPDEST PUSH1 0x40 MLOAD DUP1 PUSH2 0x100 ADD PUSH1 0x40 MSTORE DUP1 PUSH1 0x0 PUSH20 0xFFFFFFFFFFFFFFFFFFFFFFFFFFFFFFFFFFFFFFFF AND DUP2 MSTORE PUSH1 0x20 ADD PUSH1 0x60 DUP2 MSTORE PUSH1 0x20 ADD PUSH1 0x60 DUP2 MSTORE PUSH1 0x20 ADD PUSH1 0x0 PUSH16 0xFFFFFFFFFFFFFFFFFFFFFFFFFFFFFFFF AND DUP2 MSTORE PUSH1 0x20 ADD PUSH1 0x0 PUSH16 0xFFFFFFFFFFFFFFFFFFFFFFFFFFFFFFFF AND DUP2 MSTORE PUSH1 0x20 ADD PUSH1 0x0 PUSH4 0xFFFFFFFF AND DUP2 MSTORE PUSH1 0x20 ADD PUSH1 0x0 PUSH4 0xFFFFFFFF AND DUP2 MSTORE PUSH1 0x20 ADD PUSH1 0x0 ISZERO ISZERO DUP2 MSTORE POP SWAP1 JUMP JUMPDEST DUP3 DUP1 SLOAD PUSH2 0x15C3 SWAP1 PUSH2 0x1F96 JUMP JUMPDEST SWAP1 PUSH1 0x0 MSTORE PUSH1 0x20 PUSH1 0x0 KECCAK256 SWAP1 PUSH1 0x1F ADD PUSH1 0x20 SWAP1 DIV DUP2 ADD SWAP3 DUP3 PUSH2 0x15E5 JUMPI PUSH1 0x0 DUP6 SSTORE PUSH2 0x162C JUMP JUMPDEST DUP3 PUSH1 0x1F LT PUSH2 0x15FE JUMPI DUP1 MLOAD PUSH1 0xFF NOT AND DUP4 DUP1 ADD OR DUP6 SSTORE PUSH2 0x162C JUMP JUMPDEST DUP3 DUP1 ADD PUSH1 0x1 ADD DUP6 SSTORE DUP3 ISZERO PUSH2 0x162C JUMPI SWAP2 DUP3 ADD JUMPDEST DUP3 DUP2 GT ISZERO PUSH2 0x162B JUMPI DUP3 MLOAD DUP3 SSTORE SWAP2 PUSH1 0x20 ADD SWAP2 SWAP1 PUSH1 0x1 ADD SWAP1 PUSH2 0x1610 JUMP JUMPDEST JUMPDEST POP SWAP1 POP PUSH2 0x1639 SWAP2 SWAP1 PUSH2 0x163D JUMP JUMPDEST POP SWAP1 JUMP JUMPDEST JUMPDEST DUP1 DUP3 GT ISZERO PUSH2 0x1656 JUMPI PUSH1 0x0 DUP2 PUSH1 0x0 SWAP1 SSTORE POP PUSH1 0x1 ADD PUSH2 0x163E JUMP JUMPDEST POP SWAP1 JUMP JUMPDEST PUSH1 0x0 DUP2 CALLDATALOAD SWAP1 POP PUSH2 0x1669 DUP2 PUSH2 0x20F7 JUMP JUMPDEST SWAP3 SWAP2 POP POP JUMP JUMPDEST PUSH1 0x0 DUP1 DUP4 PUSH1 0x1F DUP5 ADD SLT PUSH2 0x1685 JUMPI PUSH2 0x1684 PUSH2 0x20D2 JUMP JUMPDEST JUMPDEST DUP3 CALLDATALOAD SWAP1 POP PUSH8 0xFFFFFFFFFFFFFFFF DUP2 GT ISZERO PUSH2 0x16A2 JUMPI PUSH2 0x16A1 PUSH2 0x20CD JUMP JUMPDEST JUMPDEST PUSH1 0x20 DUP4 ADD SWAP2 POP DUP4 PUSH1 0x1 DUP3 MUL DUP4 ADD GT ISZERO PUSH2 0x16BE JUMPI PUSH2 0x16BD PUSH2 0x20D7 JUMP JUMPDEST JUMPDEST SWAP3 POP SWAP3 SWAP1 POP JUMP JUMPDEST PUSH1 0x0 DUP2 CALLDATALOAD SWAP1 POP PUSH2 0x16D4 DUP2 PUSH2 0x210E JUMP JUMPDEST SWAP3 SWAP2 POP POP JUMP JUMPDEST PUSH1 0x0 DUP2 CALLDATALOAD SWAP1 POP PUSH2 0x16E9 DUP2 PUSH2 0x2125 JUMP JUMPDEST SWAP3 SWAP2 POP POP JUMP JUMPDEST PUSH1 0x0 DUP2 CALLDATALOAD SWAP1 POP PUSH2 0x16FE DUP2 PUSH2 0x213C JUMP JUMPDEST SWAP3 SWAP2 POP POP JUMP JUMPDEST PUSH1 0x0 PUSH1 0x20 DUP3 DUP5 SUB SLT ISZERO PUSH2 0x171A JUMPI PUSH2 0x1719 PUSH2 0x20E1 JUMP JUMPDEST JUMPDEST PUSH1 0x0 PUSH2 0x1728 DUP5 DUP3 DUP6 ADD PUSH2 0x165A JUMP JUMPDEST SWAP2 POP POP SWAP3 SWAP2 POP POP JUMP JUMPDEST PUSH1 0x0 DUP1 PUSH1 0x40 DUP4 DUP6 SUB SLT ISZERO PUSH2 0x1748 JUMPI PUSH2 0x1747 PUSH2 0x20E1 JUMP JUMPDEST JUMPDEST PUSH1 0x0 PUSH2 0x1756 DUP6 DUP3 DUP7 ADD PUSH2 0x165A JUMP JUMPDEST SWAP3 POP POP PUSH1 0x20 PUSH2 0x1767 DUP6 DUP3 DUP7 ADD PUSH2 0x16DA JUMP JUMPDEST SWAP2 POP POP SWAP3 POP SWAP3 SWAP1 POP JUMP JUMPDEST PUSH1 0x0 DUP1 PUSH1 0x0 DUP1 PUSH1 0x0 DUP1 PUSH1 0x0 DUP1 PUSH1 0xC0 DUP10 DUP12 SUB SLT ISZERO PUSH2 0x1791 JUMPI PUSH2 0x1790 PUSH2 0x20E1 JUMP JUMPDEST JUMPDEST PUSH1 0x0 DUP10 ADD CALLDATALOAD PUSH8 0xFFFFFFFFFFFFFFFF DUP2 GT ISZERO PUSH2 0x17AF JUMPI PUSH2 0x17AE PUSH2 0x20DC JUMP JUMPDEST JUMPDEST PUSH2 0x17BB DUP12 DUP3 DUP13 ADD PUSH2 0x166F JUMP JUMPDEST SWAP9 POP SWAP9 POP POP PUSH1 0x20 DUP10 ADD CALLDATALOAD PUSH8 0xFFFFFFFFFFFFFFFF DUP2 GT ISZERO PUSH2 0x17DE JUMPI PUSH2 0x17DD PUSH2 0x20DC JUMP JUMPDEST JUMPDEST PUSH2 0x17EA DUP12 DUP3 DUP13 ADD PUSH2 0x166F JUMP JUMPDEST SWAP7 POP SWAP7 POP POP PUSH1 0x40 PUSH2 0x17FD DUP12 DUP3 DUP13 ADD PUSH2 0x16C5 JUMP JUMPDEST SWAP5 POP POP PUSH1 0x60 PUSH2 0x180E DUP12 DUP3 DUP13 ADD PUSH2 0x16C5 JUMP JUMPDEST SWAP4 POP POP PUSH1 0x80 PUSH2 0x181F DUP12 DUP3 DUP13 ADD PUSH2 0x16EF JUMP JUMPDEST SWAP3 POP POP PUSH1 0xA0 PUSH2 0x1830 DUP12 DUP3 DUP13 ADD PUSH2 0x16EF JUMP JUMPDEST SWAP2 POP POP SWAP3 SWAP6 SWAP9 POP SWAP3 SWAP6 SWAP9 SWAP1 SWAP4 SWAP7 POP JUMP JUMPDEST PUSH1 0x0 PUSH1 0x20 DUP3 DUP5 SUB SLT ISZERO PUSH2 0x1856 JUMPI PUSH2 0x1855 PUSH2 0x20E1 JUMP JUMPDEST JUMPDEST PUSH1 0x0 PUSH2 0x1864 DUP5 DUP3 DUP6 ADD PUSH2 0x16DA JUMP JUMPDEST SWAP2 POP POP SWAP3 SWAP2 POP POP JUMP JUMPDEST PUSH1 0x0 DUP1 PUSH1 0x40 DUP4 DUP6 SUB SLT ISZERO PUSH2 0x1884 JUMPI PUSH2 0x1883 PUSH2 0x20E1 JUMP JUMPDEST JUMPDEST PUSH1 0x0 PUSH2 0x1892 DUP6 DUP3 DUP7 ADD PUSH2 0x16DA JUMP JUMPDEST SWAP3 POP POP PUSH1 0x20 PUSH2 0x18A3 DUP6 DUP3 DUP7 ADD PUSH2 0x16C5 JUMP JUMPDEST SWAP2 POP POP SWAP3 POP SWAP3 SWAP1 POP JUMP JUMPDEST PUSH1 0x0 PUSH2 0x18B9 DUP4 DUP4 PUSH2 0x1A87 JUMP JUMPDEST SWAP1 POP SWAP3 SWAP2 POP POP JUMP JUMPDEST PUSH1 0x0 PUSH2 0x18CD DUP4 DUP4 PUSH2 0x1C13 JUMP JUMPDEST PUSH1 0x20 DUP4 ADD SWAP1 POP SWAP3 SWAP2 POP POP JUMP JUMPDEST PUSH2 0x18E2 DUP2 PUSH2 0x1EE0 JUMP JUMPDEST DUP3 MSTORE POP POP JUMP JUMPDEST PUSH2 0x18F1 DUP2 PUSH2 0x1EE0 JUMP JUMPDEST DUP3 MSTORE POP POP JUMP JUMPDEST PUSH1 0x0 PUSH2 0x1902 DUP3 PUSH2 0x1E2D JUMP JUMPDEST PUSH2 0x190C DUP2 DUP6 PUSH2 0x1E68 JUMP JUMPDEST SWAP4 POP DUP4 PUSH1 0x20 DUP3 MUL DUP6 ADD PUSH2 0x191E DUP6 PUSH2 0x1E0D JUMP JUMPDEST DUP1 PUSH1 0x0 JUMPDEST DUP6 DUP2 LT ISZERO PUSH2 0x195A JUMPI DUP5 DUP5 SUB DUP10 MSTORE DUP2 MLOAD PUSH2 0x193B DUP6 DUP3 PUSH2 0x18AD JUMP JUMPDEST SWAP5 POP PUSH2 0x1946 DUP4 PUSH2 0x1E4E JUMP JUMPDEST SWAP3 POP PUSH1 0x20 DUP11 ADD SWAP10 POP POP PUSH1 0x1 DUP2 ADD SWAP1 POP PUSH2 0x1922 JUMP JUMPDEST POP DUP3 SWAP8 POP DUP8 SWAP6 POP POP POP POP POP POP SWAP3 SWAP2 POP POP JUMP JUMPDEST PUSH1 0x0 PUSH2 0x1977 DUP3 PUSH2 0x1E38 JUMP JUMPDEST PUSH2 0x1981 DUP2 DUP6 PUSH2 0x1E79 JUMP JUMPDEST SWAP4 POP PUSH2 0x198C DUP4 PUSH2 0x1E1D JUMP JUMPDEST DUP1 PUSH1 0x0 JUMPDEST DUP4 DUP2 LT ISZERO PUSH2 0x19BD JUMPI DUP2 MLOAD PUSH2 0x19A4 DUP9 DUP3 PUSH2 0x18C1 JUMP JUMPDEST SWAP8 POP PUSH2 0x19AF DUP4 PUSH2 0x1E5B JUMP JUMPDEST SWAP3 POP POP PUSH1 0x1 DUP2 ADD SWAP1 POP PUSH2 0x1990 JUMP JUMPDEST POP DUP6 SWAP4 POP POP POP POP SWAP3 SWAP2 POP POP JUMP JUMPDEST PUSH2 0x19D3 DUP2 PUSH2 0x1EF2 JUMP JUMPDEST DUP3 MSTORE POP POP JUMP JUMPDEST PUSH2 0x19E2 DUP2 PUSH2 0x1EF2 JUMP JUMPDEST DUP3 MSTORE POP POP JUMP JUMPDEST PUSH1 0x0 PUSH2 0x19F4 DUP4 DUP6 PUSH2 0x1E9B JUMP JUMPDEST SWAP4 POP PUSH2 0x1A01 DUP4 DUP6 DUP5 PUSH2 0x1F54 JUMP JUMPDEST PUSH2 0x1A0A DUP4 PUSH2 0x20E6 JUMP JUMPDEST DUP5 ADD SWAP1 POP SWAP4 SWAP3 POP POP POP JUMP JUMPDEST PUSH1 0x0 PUSH2 0x1A20 DUP3 PUSH2 0x1E43 JUMP JUMPDEST PUSH2 0x1A2A DUP2 DUP6 PUSH2 0x1E8A JUMP JUMPDEST SWAP4 POP PUSH2 0x1A3A DUP2 DUP6 PUSH1 0x20 DUP7 ADD PUSH2 0x1F63 JUMP JUMPDEST PUSH2 0x1A43 DUP2 PUSH2 0x20E6 JUMP JUMPDEST DUP5 ADD SWAP2 POP POP SWAP3 SWAP2 POP POP JUMP JUMPDEST PUSH1 0x0 PUSH2 0x1A59 DUP3 PUSH2 0x1E43 JUMP JUMPDEST PUSH2 0x1A63 DUP2 DUP6 PUSH2 0x1E9B JUMP JUMPDEST SWAP4 POP PUSH2 0x1A73 DUP2 DUP6 PUSH1 0x20 DUP7 ADD PUSH2 0x1F63 JUMP JUMPDEST PUSH2 0x1A7C DUP2 PUSH2 0x20E6 JUMP JUMPDEST DUP5 ADD SWAP2 POP POP SWAP3 SWAP2 POP POP JUMP JUMPDEST PUSH1 0x0 PUSH2 0x100 DUP4 ADD PUSH1 0x0 DUP4 ADD MLOAD PUSH2 0x1AA0 PUSH1 0x0 DUP7 ADD DUP3 PUSH2 0x18D9 JUMP JUMPDEST POP PUSH1 0x20 DUP4 ADD MLOAD DUP5 DUP3 SUB PUSH1 0x20 DUP7 ADD MSTORE PUSH2 0x1AB8 DUP3 DUP3 PUSH2 0x1A15 JUMP JUMPDEST SWAP2 POP POP PUSH1 0x40 DUP4 ADD MLOAD DUP5 DUP3 SUB PUSH1 0x40 DUP7 ADD MSTORE PUSH2 0x1AD2 DUP3 DUP3 PUSH2 0x1A15 JUMP JUMPDEST SWAP2 POP POP PUSH1 0x60 DUP4 ADD MLOAD PUSH2 0x1AE7 PUSH1 0x60 DUP7 ADD DUP3 PUSH2 0x1BF5 JUMP JUMPDEST POP PUSH1 0x80 DUP4 ADD MLOAD PUSH2 0x1AFA PUSH1 0x80 DUP7 ADD DUP3 PUSH2 0x1BF5 JUMP JUMPDEST POP PUSH1 0xA0 DUP4 ADD MLOAD PUSH2 0x1B0D PUSH1 0xA0 DUP7 ADD DUP3 PUSH2 0x1C31 JUMP JUMPDEST POP PUSH1 0xC0 DUP4 ADD MLOAD PUSH2 0x1B20 PUSH1 0xC0 DUP7 ADD DUP3 PUSH2 0x1C31 JUMP JUMPDEST POP PUSH1 0xE0 DUP4 ADD MLOAD PUSH2 0x1B33 PUSH1 0xE0 DUP7 ADD DUP3 PUSH2 0x19CA JUMP JUMPDEST POP DUP1 SWAP2 POP POP SWAP3 SWAP2 POP POP JUMP JUMPDEST PUSH1 0x0 PUSH2 0x100 DUP4 ADD PUSH1 0x0 DUP4 ADD MLOAD PUSH2 0x1B57 PUSH1 0x0 DUP7 ADD DUP3 PUSH2 0x18D9 JUMP JUMPDEST POP PUSH1 0x20 DUP4 ADD MLOAD DUP5 DUP3 SUB PUSH1 0x20 DUP7 ADD MSTORE PUSH2 0x1B6F DUP3 DUP3 PUSH2 0x1A15 JUMP JUMPDEST SWAP2 POP POP PUSH1 0x40 DUP4 ADD MLOAD DUP5 DUP3 SUB PUSH1 0x40 DUP7 ADD MSTORE PUSH2 0x1B89 DUP3 DUP3 PUSH2 0x1A15 JUMP JUMPDEST SWAP2 POP POP PUSH1 0x60 DUP4 ADD MLOAD PUSH2 0x1B9E PUSH1 0x60 DUP7 ADD DUP3 PUSH2 0x1BF5 JUMP JUMPDEST POP PUSH1 0x80 DUP4 ADD MLOAD PUSH2 0x1BB1 PUSH1 0x80 DUP7 ADD DUP3 PUSH2 0x1BF5 JUMP JUMPDEST POP PUSH1 0xA0 DUP4 ADD MLOAD PUSH2 0x1BC4 PUSH1 0xA0 DUP7 ADD DUP3 PUSH2 0x1C31 JUMP JUMPDEST POP PUSH1 0xC0 DUP4 ADD MLOAD PUSH2 0x1BD7 PUSH1 0xC0 DUP7 ADD DUP3 PUSH2 0x1C31 JUMP JUMPDEST POP PUSH1 0xE0 DUP4 ADD MLOAD PUSH2 0x1BEA PUSH1 0xE0 DUP7 ADD DUP3 PUSH2 0x19CA JUMP JUMPDEST POP DUP1 SWAP2 POP POP SWAP3 SWAP2 POP POP JUMP JUMPDEST PUSH2 0x1BFE DUP2 PUSH2 0x1EFE JUMP JUMPDEST DUP3 MSTORE POP POP JUMP JUMPDEST PUSH2 0x1C0D DUP2 PUSH2 0x1EFE JUMP JUMPDEST DUP3 MSTORE POP POP JUMP JUMPDEST PUSH2 0x1C1C DUP2 PUSH2 0x1F3A JUMP JUMPDEST DUP3 MSTORE POP POP JUMP JUMPDEST PUSH2 0x1C2B DUP2 PUSH2 0x1F3A JUMP JUMPDEST DUP3 MSTORE POP POP JUMP JUMPDEST PUSH2 0x1C3A DUP2 PUSH2 0x1F44 JUMP JUMPDEST DUP3 MSTORE POP POP JUMP JUMPDEST PUSH2 0x1C49 DUP2 PUSH2 0x1F44 JUMP JUMPDEST DUP3 MSTORE POP POP JUMP JUMPDEST PUSH1 0x0 PUSH2 0x100 DUP3 ADD SWAP1 POP PUSH2 0x1C65 PUSH1 0x0 DUP4 ADD DUP12 PUSH2 0x18E8 JUMP JUMPDEST DUP2 DUP2 SUB PUSH1 0x20 DUP4 ADD MSTORE PUSH2 0x1C77 DUP2 DUP11 PUSH2 0x1A4E JUMP JUMPDEST SWAP1 POP DUP2 DUP2 SUB PUSH1 0x40 DUP4 ADD MSTORE PUSH2 0x1C8B DUP2 DUP10 PUSH2 0x1A4E JUMP JUMPDEST SWAP1 POP PUSH2 0x1C9A PUSH1 0x60 DUP4 ADD DUP9 PUSH2 0x1C04 JUMP JUMPDEST PUSH2 0x1CA7 PUSH1 0x80 DUP4 ADD DUP8 PUSH2 0x1C04 JUMP JUMPDEST PUSH2 0x1CB4 PUSH1 0xA0 DUP4 ADD DUP7 PUSH2 0x1C40 JUMP JUMPDEST PUSH2 0x1CC1 PUSH1 0xC0 DUP4 ADD DUP6 PUSH2 0x1C40 JUMP JUMPDEST PUSH2 0x1CCE PUSH1 0xE0 DUP4 ADD DUP5 PUSH2 0x19D9 JUMP JUMPDEST SWAP10 SWAP9 POP POP POP POP POP POP POP POP POP JUMP JUMPDEST PUSH1 0x0 PUSH1 0x40 DUP3 ADD SWAP1 POP DUP2 DUP2 SUB PUSH1 0x0 DUP4 ADD MSTORE PUSH2 0x1CF5 DUP2 DUP6 PUSH2 0x18F7 JUMP JUMPDEST SWAP1 POP DUP2 DUP2 SUB PUSH1 0x20 DUP4 ADD MSTORE PUSH2 0x1D09 DUP2 DUP5 PUSH2 0x196C JUMP JUMPDEST SWAP1 POP SWAP4 SWAP3 POP POP POP JUMP JUMPDEST PUSH1 0x0 PUSH1 0x20 DUP3 ADD SWAP1 POP DUP2 DUP2 SUB PUSH1 0x0 DUP4 ADD MSTORE PUSH2 0x1D2C DUP2 DUP5 PUSH2 0x196C JUMP JUMPDEST SWAP1 POP SWAP3 SWAP2 POP POP JUMP JUMPDEST PUSH1 0x0 PUSH1 0xE0 DUP3 ADD SWAP1 POP DUP2 DUP2 SUB PUSH1 0x0 DUP4 ADD MSTORE PUSH2 0x1D4F DUP2 DUP12 DUP14 PUSH2 0x19E8 JUMP JUMPDEST SWAP1 POP DUP2 DUP2 SUB PUSH1 0x20 DUP4 ADD MSTORE PUSH2 0x1D64 DUP2 DUP10 DUP12 PUSH2 0x19E8 JUMP JUMPDEST SWAP1 POP PUSH2 0x1D73 PUSH1 0x40 DUP4 ADD DUP9 PUSH2 0x1C04 JUMP JUMPDEST PUSH2 0x1D80 PUSH1 0x60 DUP4 ADD DUP8 PUSH2 0x1C04 JUMP JUMPDEST PUSH2 0x1D8D PUSH1 0x80 DUP4 ADD DUP7 PUSH2 0x1C40 JUMP JUMPDEST PUSH2 0x1D9A PUSH1 0xA0 DUP4 ADD DUP6 PUSH2 0x1C40 JUMP JUMPDEST PUSH2 0x1DA7 PUSH1 0xC0 DUP4 ADD DUP5 PUSH2 0x1C22 JUMP JUMPDEST SWAP11 SWAP10 POP POP POP POP POP POP POP POP POP POP JUMP JUMPDEST PUSH1 0x0 PUSH1 0x20 DUP3 ADD SWAP1 POP DUP2 DUP2 SUB PUSH1 0x0 DUP4 ADD MSTORE PUSH2 0x1DCF DUP2 DUP5 PUSH2 0x1B3E JUMP JUMPDEST SWAP1 POP SWAP3 SWAP2 POP POP JUMP JUMPDEST PUSH1 0x0 PUSH1 0x20 DUP3 ADD SWAP1 POP PUSH2 0x1DEC PUSH1 0x0 DUP4 ADD DUP5 PUSH2 0x1C04 JUMP JUMPDEST SWAP3 SWAP2 POP POP JUMP JUMPDEST PUSH1 0x0 PUSH1 0x20 DUP3 ADD SWAP1 POP PUSH2 0x1E07 PUSH1 0x0 DUP4 ADD DUP5 PUSH2 0x1C22 JUMP JUMPDEST SWAP3 SWAP2 POP POP JUMP JUMPDEST PUSH1 0x0 DUP2 SWAP1 POP PUSH1 0x20 DUP3 ADD SWAP1 POP SWAP2 SWAP1 POP JUMP JUMPDEST PUSH1 0x0 DUP2 SWAP1 POP PUSH1 0x20 DUP3 ADD SWAP1 POP SWAP2 SWAP1 POP JUMP JUMPDEST PUSH1 0x0 DUP2 MLOAD SWAP1 POP SWAP2 SWAP1 POP JUMP JUMPDEST PUSH1 0x0 DUP2 MLOAD SWAP1 POP SWAP2 SWAP1 POP JUMP JUMPDEST PUSH1 0x0 DUP2 MLOAD SWAP1 POP SWAP2 SWAP1 POP JUMP JUMPDEST PUSH1 0x0 PUSH1 0x20 DUP3 ADD SWAP1 POP SWAP2 SWAP1 POP JUMP JUMPDEST PUSH1 0x0 PUSH1 0x20 DUP3 ADD SWAP1 POP SWAP2 SWAP1 POP JUMP JUMPDEST PUSH1 0x0 DUP3 DUP3 MSTORE PUSH1 0x20 DUP3 ADD SWAP1 POP SWAP3 SWAP2 POP POP JUMP JUMPDEST PUSH1 0x0 DUP3 DUP3 MSTORE PUSH1 0x20 DUP3 ADD SWAP1 POP SWAP3 SWAP2 POP POP JUMP JUMPDEST PUSH1 0x0 DUP3 DUP3 MSTORE PUSH1 0x20 DUP3 ADD SWAP1 POP SWAP3 SWAP2 POP POP JUMP JUMPDEST PUSH1 0x0 DUP3 DUP3 MSTORE PUSH1 0x20 DUP3 ADD SWAP1 POP SWAP3 SWAP2 POP POP JUMP JUMPDEST PUSH1 0x0 PUSH2 0x1EB7 DUP3 PUSH2 0x1EFE JUMP JUMPDEST SWAP2 POP PUSH2 0x1EC2 DUP4 PUSH2 0x1EFE JUMP JUMPDEST SWAP3 POP DUP3 DUP3 LT ISZERO PUSH2 0x1ED5 JUMPI PUSH2 0x1ED4 PUSH2 0x2011 JUMP JUMPDEST JUMPDEST DUP3 DUP3 SUB SWAP1 POP SWAP3 SWAP2 POP POP JUMP JUMPDEST PUSH1 0x0 PUSH2 0x1EEB DUP3 PUSH2 0x1F1A JUMP JUMPDEST SWAP1 POP SWAP2 SWAP1 POP JUMP JUMPDEST PUSH1 0x0 DUP2 ISZERO ISZERO SWAP1 POP SWAP2 SWAP1 POP JUMP JUMPDEST PUSH1 0x0 PUSH16 0xFFFFFFFFFFFFFFFFFFFFFFFFFFFFFFFF DUP3 AND SWAP1 POP SWAP2 SWAP1 POP JUMP JUMPDEST PUSH1 0x0 PUSH20 0xFFFFFFFFFFFFFFFFFFFFFFFFFFFFFFFFFFFFFFFF DUP3 AND SWAP1 POP SWAP2 SWAP1 POP JUMP JUMPDEST PUSH1 0x0 DUP2 SWAP1 POP SWAP2 SWAP1 POP JUMP JUMPDEST PUSH1 0x0 PUSH4 0xFFFFFFFF DUP3 AND SWAP1 POP SWAP2 SWAP1 POP JUMP JUMPDEST DUP3 DUP2 DUP4 CALLDATACOPY PUSH1 0x0 DUP4 DUP4 ADD MSTORE POP POP POP JUMP JUMPDEST PUSH1 0x0 JUMPDEST DUP4 DUP2 LT ISZERO PUSH2 0x1F81 JUMPI DUP1 DUP3 ADD MLOAD DUP2 DUP5 ADD MSTORE PUSH1 0x20 DUP2 ADD SWAP1 POP PUSH2 0x1F66 JUMP JUMPDEST DUP4 DUP2 GT ISZERO PUSH2 0x1F90 JUMPI PUSH1 0x0 DUP5 DUP5 ADD MSTORE JUMPDEST POP POP POP POP JUMP JUMPDEST PUSH1 0x0 PUSH1 0x2 DUP3 DIV SWAP1 POP PUSH1 0x1 DUP3 AND DUP1 PUSH2 0x1FAE JUMPI PUSH1 0x7F DUP3 AND SWAP2 POP JUMPDEST PUSH1 0x20 DUP3 LT DUP2 EQ ISZERO PUSH2 0x1FC2 JUMPI PUSH2 0x1FC1 PUSH2 0x2040 JUMP JUMPDEST JUMPDEST POP SWAP2 SWAP1 POP JUMP JUMPDEST PUSH1 0x0 PUSH2 0x1FD3 DUP3 PUSH2 0x1F3A JUMP JUMPDEST SWAP2 POP PUSH32 0xFFFFFFFFFFFFFFFFFFFFFFFFFFFFFFFFFFFFFFFFFFFFFFFFFFFFFFFFFFFFFFFF DUP3 EQ ISZERO PUSH2 0x2006 JUMPI PUSH2 0x2005 PUSH2 0x2011 JUMP JUMPDEST JUMPDEST PUSH1 0x1 DUP3 ADD SWAP1 POP SWAP2 SWAP1 POP JUMP JUMPDEST PUSH32 0x4E487B7100000000000000000000000000000000000000000000000000000000 PUSH1 0x0 MSTORE PUSH1 0x11 PUSH1 0x4 MSTORE PUSH1 0x24 PUSH1 0x0 REVERT JUMPDEST PUSH32 0x4E487B7100000000000000000000000000000000000000000000000000000000 PUSH1 0x0 MSTORE PUSH1 0x22 PUSH1 0x4 MSTORE PUSH1 0x24 PUSH1 0x0 REVERT JUMPDEST PUSH32 0x4E487B7100000000000000000000000000000000000000000000000000000000 PUSH1 0x0 MSTORE PUSH1 0x32 PUSH1 0x4 MSTORE PUSH1 0x24 PUSH1 0x0 REVERT JUMPDEST PUSH32 0x4E487B7100000000000000000000000000000000000000000000000000000000 PUSH1 0x0 MSTORE PUSH1 0x41 PUSH1 0x4 MSTORE PUSH1 0x24 PUSH1 0x0 REVERT JUMPDEST PUSH1 0x0 DUP1 REVERT JUMPDEST PUSH1 0x0 DUP1 REVERT JUMPDEST PUSH1 0x0 DUP1 REVERT JUMPDEST PUSH1 0x0 DUP1 REVERT JUMPDEST PUSH1 0x0 DUP1 REVERT JUMPDEST PUSH1 0x0 PUSH1 0x1F NOT PUSH1 0x1F DUP4 ADD AND SWAP1 POP SWAP2 SWAP1 POP JUMP JUMPDEST PUSH2 0x2100 DUP2 PUSH2 0x1EE0 JUMP JUMPDEST DUP2 EQ PUSH2 0x210B JUMPI PUSH1 0x0 DUP1 REVERT JUMPDEST POP JUMP JUMPDEST PUSH2 0x2117 DUP2 PUSH2 0x1EFE JUMP JUMPDEST DUP2 EQ PUSH2 0x2122 JUMPI PUSH1 0x0 DUP1 REVERT JUMPDEST POP JUMP JUMPDEST PUSH2 0x212E DUP2 PUSH2 0x1F3A JUMP JUMPDEST DUP2 EQ PUSH2 0x2139 JUMPI PUSH1 0x0 DUP1 REVERT JUMPDEST POP JUMP JUMPDEST PUSH2 0x2145 DUP2 PUSH2 0x1F44 JUMP JUMPDEST DUP2 EQ PUSH2 0x2150 JUMPI PUSH1 0x0 DUP1 REVERT JUMPDEST POP JUMP INVALID LOG2 PUSH5 0x6970667358 0x22 SLT KECCAK256 GASPRICE STATICCALL 0xF7 DUP10 0xB8 0x21 0xD8 0xA7 DUP16 0x29 EQ PUSH31 0x78F2FBB98C0913B70BEC5AA94A300ABC5C94278C64736F6C63430008070033 "
				},
				"gasEstimates": {
					"creation": {
						"codeDepositCost": "1717000",
						"executionCost": "23912",
						"totalCost": "1740912"
					},
					"external": {
						"addSupplierProduct(bytes,bytes,uint128,uint128,uint32,uint32)": "infinite",
						"deleteSupplierProduct(uint256)": "26029",
						"getAllActiveProductsOfSupplier(address)": "infinite",
						"getAllProductsOfSupplier(address)": "infinite",
						"getSingleSupplierProduct(uint256)": "infinite",
						"getSupplierProductIds()": "infinite",
						"supplierAddressToproductsIdMapping(address,uint256)": "infinite",
						"supplierProductsIdToStructMapping(uint256)": "infinite",
						"updateSupplierProductUints(uint256,uint128)": "infinite"
					}
				},
				"methodIdentifiers": {
					"addSupplierProduct(bytes,bytes,uint128,uint128,uint32,uint32)": "ee7e7c99",
					"deleteSupplierProduct(uint256)": "79ae0257",
					"getAllActiveProductsOfSupplier(address)": "2777259b",
					"getAllProductsOfSupplier(address)": "83f95853",
					"getSingleSupplierProduct(uint256)": "c22ef68e",
					"getSupplierProductIds()": "e10f28c7",
					"supplierAddressToproductsIdMapping(address,uint256)": "42af31d7",
					"supplierProductsIdToStructMapping(uint256)": "6c87b826",
					"updateSupplierProductUints(uint256,uint128)": "f8bafa70"
				}
			},
			"storageLayout": {
				"storage": [
					{
						"astId": 86,
						"contract": "contracts/supplierProduct.sol:supplierProduct",
						"label": "spId",
						"offset": 0,
						"slot": "0",
						"type": "t_uint256"
					},
					{
						"astId": 92,
						"contract": "contracts/supplierProduct.sol:supplierProduct",
						"label": "supplierProductsIdToStructMapping",
						"offset": 0,
						"slot": "1",
						"type": "t_mapping(t_uint256,t_struct(supplierProduct)18_storage)"
					},
					{
						"astId": 98,
						"contract": "contracts/supplierProduct.sol:supplierProduct",
						"label": "supplierAddressToproductsIdMapping",
						"offset": 0,
						"slot": "2",
						"type": "t_mapping(t_address,t_array(t_uint256)dyn_storage)"
					}
				],
				"types": {
					"t_address": {
						"encoding": "inplace",
						"label": "address",
						"numberOfBytes": "20"
					},
					"t_array(t_uint256)dyn_storage": {
						"base": "t_uint256",
						"encoding": "dynamic_array",
						"label": "uint256[]",
						"numberOfBytes": "32"
					},
					"t_bool": {
						"encoding": "inplace",
						"label": "bool",
						"numberOfBytes": "1"
					},
					"t_bytes_storage": {
						"encoding": "bytes",
						"label": "bytes",
						"numberOfBytes": "32"
					},
					"t_mapping(t_address,t_array(t_uint256)dyn_storage)": {
						"encoding": "mapping",
						"key": "t_address",
						"label": "mapping(address => uint256[])",
						"numberOfBytes": "32",
						"value": "t_array(t_uint256)dyn_storage"
					},
					"t_mapping(t_uint256,t_struct(supplierProduct)18_storage)": {
						"encoding": "mapping",
						"key": "t_uint256",
						"label": "mapping(uint256 => struct ISupplierProduct.supplierProduct)",
						"numberOfBytes": "32",
						"value": "t_struct(supplierProduct)18_storage"
					},
					"t_struct(supplierProduct)18_storage": {
						"encoding": "inplace",
						"label": "struct ISupplierProduct.supplierProduct",
						"members": [
							{
								"astId": 3,
								"contract": "contracts/supplierProduct.sol:supplierProduct",
								"label": "supplierAddress",
								"offset": 0,
								"slot": "0",
								"type": "t_address"
							},
							{
								"astId": 5,
								"contract": "contracts/supplierProduct.sol:supplierProduct",
								"label": "sp_name",
								"offset": 0,
								"slot": "1",
								"type": "t_bytes_storage"
							},
							{
								"astId": 7,
								"contract": "contracts/supplierProduct.sol:supplierProduct",
								"label": "sp_description",
								"offset": 0,
								"slot": "2",
								"type": "t_bytes_storage"
							},
							{
								"astId": 9,
								"contract": "contracts/supplierProduct.sol:supplierProduct",
								"label": "sp_unit",
								"offset": 0,
								"slot": "3",
								"type": "t_uint128"
							},
							{
								"astId": 11,
								"contract": "contracts/supplierProduct.sol:supplierProduct",
								"label": "sp_price",
								"offset": 16,
								"slot": "3",
								"type": "t_uint128"
							},
							{
								"astId": 13,
								"contract": "contracts/supplierProduct.sol:supplierProduct",
								"label": "sp_date",
								"offset": 0,
								"slot": "4",
								"type": "t_uint32"
							},
							{
								"astId": 15,
								"contract": "contracts/supplierProduct.sol:supplierProduct",
								"label": "sp_expiryDate",
								"offset": 4,
								"slot": "4",
								"type": "t_uint32"
							},
							{
								"astId": 17,
								"contract": "contracts/supplierProduct.sol:supplierProduct",
								"label": "sp_status",
								"offset": 8,
								"slot": "4",
								"type": "t_bool"
							}
						],
						"numberOfBytes": "160"
					},
					"t_uint128": {
						"encoding": "inplace",
						"label": "uint128",
						"numberOfBytes": "16"
					},
					"t_uint256": {
						"encoding": "inplace",
						"label": "uint256",
						"numberOfBytes": "32"
					},
					"t_uint32": {
						"encoding": "inplace",
						"label": "uint32",
						"numberOfBytes": "4"
					}
				}
			},
			"userdoc": {
				"kind": "user",
				"methods": {
					"addSupplierProduct(bytes,bytes,uint128,uint128,uint32,uint32)": {
						"notice": "function to add supplier product"
					},
					"deleteSupplierProduct(uint256)": {
						"notice": "function to delete supplier product (making the product Inactive)"
					},
					"getAllActiveProductsOfSupplier(address)": {
						"notice": "function to get all supplier products that it created on the platform(which are currently active)"
					},
					"getAllProductsOfSupplier(address)": {
						"notice": "function to get all supplier products that it created on the platform"
					},
					"getSingleSupplierProduct(uint256)": {
						"notice": "function to return supplier' single product"
					},
					"getSupplierProductIds()": {
						"notice": "function to return supplier product IDs"
					},
					"supplierAddressToproductsIdMapping(address,uint256)": {
						"notice": "mapping user' address with all the created products"
					},
					"supplierProductsIdToStructMapping(uint256)": {
						"notice": "mapping product index with supplierProduct struct"
					},
					"updateSupplierProductUints(uint256,uint128)": {
						"notice": "function to update supplier product units"
					}
				},
				"notice": "Uses ISupplierProduct interface",
				"version": 1
			}
		}
	}
}