{
	"contracts/supplierProduct.sol": {
		"supplierProduct": {
			"abi": [
				{
					"anonymous": false,
					"inputs": [
						{
							"indexed": true,
							"internalType": "uint256",
							"name": "_spid",
							"type": "uint256"
						},
						{
							"indexed": true,
							"internalType": "address",
							"name": "_address",
							"type": "address"
						},
						{
							"indexed": false,
							"internalType": "bytes",
							"name": "_name",
							"type": "bytes"
						},
						{
							"indexed": false,
							"internalType": "bytes",
							"name": "_description",
							"type": "bytes"
						},
						{
							"indexed": false,
							"internalType": "uint128",
							"name": "_unit",
							"type": "uint128"
						},
						{
							"indexed": false,
							"internalType": "uint128",
							"name": "_price",
							"type": "uint128"
						},
						{
							"indexed": false,
							"internalType": "uint32",
							"name": "_date",
							"type": "uint32"
						},
						{
							"indexed": false,
							"internalType": "uint32",
							"name": "_expiryDate",
							"type": "uint32"
						},
						{
							"indexed": false,
							"internalType": "uint256",
							"name": "_timeAdded",
							"type": "uint256"
						}
					],
					"name": "eventAddSupplierProduct",
					"type": "event"
				},
				{
					"anonymous": false,
					"inputs": [
						{
							"indexed": true,
							"internalType": "uint256",
							"name": "_id",
							"type": "uint256"
						}
					],
					"name": "eventDeleteSupplierProduct",
					"type": "event"
				},
				{
					"inputs": [
						{
							"internalType": "bytes",
							"name": "_name",
							"type": "bytes"
						},
						{
							"internalType": "bytes",
							"name": "_description",
							"type": "bytes"
						},
						{
							"internalType": "uint128",
							"name": "_unit",
							"type": "uint128"
						},
						{
							"internalType": "uint128",
							"name": "_price",
							"type": "uint128"
						},
						{
							"internalType": "uint32",
							"name": "_date",
							"type": "uint32"
						},
						{
							"internalType": "uint32",
							"name": "_expiryDate",
							"type": "uint32"
						}
					],
					"name": "addSupplierProduct",
					"outputs": [],
					"stateMutability": "nonpayable",
					"type": "function"
				},
				{
					"inputs": [
						{
							"internalType": "address",
							"name": "",
							"type": "address"
						},
						{
							"internalType": "uint256",
							"name": "",
							"type": "uint256"
						}
					],
					"name": "addressToproductsIdMapping",
					"outputs": [
						{
							"internalType": "uint256",
							"name": "",
							"type": "uint256"
						}
					],
					"stateMutability": "view",
					"type": "function"
				},
				{
					"inputs": [
						{
							"internalType": "uint256",
							"name": "_id",
							"type": "uint256"
						}
					],
					"name": "deleteProduct",
					"outputs": [],
					"stateMutability": "nonpayable",
					"type": "function"
				},
				{
					"inputs": [
						{
							"internalType": "address",
							"name": "_supplierAddress",
							"type": "address"
						}
					],
					"name": "getAllProductsOfSupplier",
					"outputs": [
						{
							"components": [
								{
									"internalType": "address",
									"name": "supplierAddress",
									"type": "address"
								},
								{
									"internalType": "bytes",
									"name": "sp_name",
									"type": "bytes"
								},
								{
									"internalType": "bytes",
									"name": "sp_description",
									"type": "bytes"
								},
								{
									"internalType": "uint128",
									"name": "sp_unit",
									"type": "uint128"
								},
								{
									"internalType": "uint128",
									"name": "sp_price",
									"type": "uint128"
								},
								{
									"internalType": "uint32",
									"name": "sp_date",
									"type": "uint32"
								},
								{
									"internalType": "uint32",
									"name": "sp_expiryDate",
									"type": "uint32"
								}
							],
							"internalType": "struct ISupplierProduct.supplierProduct[]",
							"name": "",
							"type": "tuple[]"
						}
					],
					"stateMutability": "view",
					"type": "function"
				},
				{
					"inputs": [
						{
							"internalType": "uint256",
							"name": "_id",
							"type": "uint256"
						}
					],
					"name": "getSingleProduct",
					"outputs": [
						{
							"components": [
								{
									"internalType": "address",
									"name": "supplierAddress",
									"type": "address"
								},
								{
									"internalType": "bytes",
									"name": "sp_name",
									"type": "bytes"
								},
								{
									"internalType": "bytes",
									"name": "sp_description",
									"type": "bytes"
								},
								{
									"internalType": "uint128",
									"name": "sp_unit",
									"type": "uint128"
								},
								{
									"internalType": "uint128",
									"name": "sp_price",
									"type": "uint128"
								},
								{
									"internalType": "uint32",
									"name": "sp_date",
									"type": "uint32"
								},
								{
									"internalType": "uint32",
									"name": "sp_expiryDate",
									"type": "uint32"
								}
							],
							"internalType": "struct ISupplierProduct.supplierProduct",
							"name": "",
							"type": "tuple"
						}
					],
					"stateMutability": "view",
					"type": "function"
				},
				{
					"inputs": [],
					"name": "getSupplierProductIds",
					"outputs": [
						{
							"internalType": "uint256[]",
							"name": "",
							"type": "uint256[]"
						}
					],
					"stateMutability": "view",
					"type": "function"
				},
				{
					"inputs": [
						{
							"internalType": "uint256",
							"name": "",
							"type": "uint256"
						}
					],
					"name": "productsIdMappingToStructMapping",
					"outputs": [
						{
							"internalType": "address",
							"name": "supplierAddress",
							"type": "address"
						},
						{
							"internalType": "bytes",
							"name": "sp_name",
							"type": "bytes"
						},
						{
							"internalType": "bytes",
							"name": "sp_description",
							"type": "bytes"
						},
						{
							"internalType": "uint128",
							"name": "sp_unit",
							"type": "uint128"
						},
						{
							"internalType": "uint128",
							"name": "sp_price",
							"type": "uint128"
						},
						{
							"internalType": "uint32",
							"name": "sp_date",
							"type": "uint32"
						},
						{
							"internalType": "uint32",
							"name": "sp_expiryDate",
							"type": "uint32"
						}
					],
					"stateMutability": "view",
					"type": "function"
				}
			],
			"devdoc": {
				"kind": "dev",
				"methods": {},
				"version": 1
			},
			"evm": {
				"assembly": "    /* \"contracts/supplierProduct.sol\":117:2004  contract supplierProduct is ISupplierProduct{... */\n  mstore(0x40, 0x80)\n    /* \"contracts/supplierProduct.sol\":180:181  1 */\n  0x01\n    /* \"contracts/supplierProduct.sol\":168:181  uint spId = 1 */\n  0x00\n  sstore\n    /* \"contracts/supplierProduct.sol\":117:2004  contract supplierProduct is ISupplierProduct{... */\n  callvalue\n  dup1\n  iszero\n  tag_1\n  jumpi\n  0x00\n  dup1\n  revert\ntag_1:\n  pop\n  dataSize(sub_0)\n  dup1\n  dataOffset(sub_0)\n  0x00\n  codecopy\n  0x00\n  return\nstop\n\nsub_0: assembly {\n        /* \"contracts/supplierProduct.sol\":117:2004  contract supplierProduct is ISupplierProduct{... */\n      mstore(0x40, 0x80)\n      callvalue\n      dup1\n      iszero\n      tag_1\n      jumpi\n      0x00\n      dup1\n      revert\n    tag_1:\n      pop\n      jumpi(tag_2, lt(calldatasize, 0x04))\n      shr(0xe0, calldataload(0x00))\n      dup1\n      0x9e9c191d\n      gt\n      tag_10\n      jumpi\n      dup1\n      0x9e9c191d\n      eq\n      tag_6\n      jumpi\n      dup1\n      0xe10f28c7\n      eq\n      tag_7\n      jumpi\n      dup1\n      0xed90c7b7\n      eq\n      tag_8\n      jumpi\n      dup1\n      0xee7e7c99\n      eq\n      tag_9\n      jumpi\n      jump(tag_2)\n    tag_10:\n      dup1\n      0x21c6f9e5\n      eq\n      tag_3\n      jumpi\n      dup1\n      0x2e1f9763\n      eq\n      tag_4\n      jumpi\n      dup1\n      0x83f95853\n      eq\n      tag_5\n      jumpi\n    tag_2:\n      0x00\n      dup1\n      revert\n        /* \"contracts/supplierProduct.sol\":292:352  mapping(address => uint[]) public addressToproductsIdMapping */\n    tag_3:\n      tag_11\n      0x04\n      dup1\n      calldatasize\n      sub\n      dup2\n      add\n      swap1\n      tag_12\n      swap2\n      swap1\n      tag_13\n      jump\t// in\n    tag_12:\n      tag_14\n      jump\t// in\n    tag_11:\n      mload(0x40)\n      tag_15\n      swap2\n      swap1\n      tag_16\n      jump\t// in\n    tag_15:\n      mload(0x40)\n      dup1\n      swap2\n      sub\n      swap1\n      return\n        /* \"contracts/supplierProduct.sol\":1221:1363  function getSingleProduct(uint _id) public view returns(supplierProduct memory){... */\n    tag_4:\n      tag_17\n      0x04\n      dup1\n      calldatasize\n      sub\n      dup2\n      add\n      swap1\n      tag_18\n      swap2\n      swap1\n      tag_19\n      jump\t// in\n    tag_18:\n      tag_20\n      jump\t// in\n    tag_17:\n      mload(0x40)\n      tag_21\n      swap2\n      swap1\n      tag_22\n      jump\t// in\n    tag_21:\n      mload(0x40)\n      dup1\n      swap2\n      sub\n      swap1\n      return\n        /* \"contracts/supplierProduct.sol\":1371:1835  function getAllProductsOfSupplier(address _supplierAddress) public view returns(supplierProduct[] memory)... */\n    tag_5:\n      tag_23\n      0x04\n      dup1\n      calldatasize\n      sub\n      dup2\n      add\n      swap1\n      tag_24\n      swap2\n      swap1\n      tag_25\n      jump\t// in\n    tag_24:\n      tag_26\n      jump\t// in\n    tag_23:\n      mload(0x40)\n      tag_27\n      swap2\n      swap1\n      tag_28\n      jump\t// in\n    tag_27:\n      mload(0x40)\n      dup1\n      swap2\n      sub\n      swap1\n      return\n        /* \"contracts/supplierProduct.sol\":213:285  mapping(uint => supplierProduct) public productsIdMappingToStructMapping */\n    tag_6:\n      tag_29\n      0x04\n      dup1\n      calldatasize\n      sub\n      dup2\n      add\n      swap1\n      tag_30\n      swap2\n      swap1\n      tag_19\n      jump\t// in\n    tag_30:\n      tag_31\n      jump\t// in\n    tag_29:\n      mload(0x40)\n      tag_32\n      swap8\n      swap7\n      swap6\n      swap5\n      swap4\n      swap3\n      swap2\n      swap1\n      tag_33\n      jump\t// in\n    tag_32:\n      mload(0x40)\n      dup1\n      swap2\n      sub\n      swap1\n      return\n        /* \"contracts/supplierProduct.sol\":1082:1213  function getSupplierProductIds() public view returns(uint[] memory){... */\n    tag_7:\n      tag_34\n      tag_35\n      jump\t// in\n    tag_34:\n      mload(0x40)\n      tag_36\n      swap2\n      swap1\n      tag_37\n      jump\t// in\n    tag_36:\n      mload(0x40)\n      dup1\n      swap2\n      sub\n      swap1\n      return\n        /* \"contracts/supplierProduct.sol\":1843:2001  function deleteProduct(uint _id)public override {... */\n    tag_8:\n      tag_38\n      0x04\n      dup1\n      calldatasize\n      sub\n      dup2\n      add\n      swap1\n      tag_39\n      swap2\n      swap1\n      tag_19\n      jump\t// in\n    tag_39:\n      tag_40\n      jump\t// in\n    tag_38:\n      stop\n        /* \"contracts/supplierProduct.sol\":583:1074  function addSupplierProduct(bytes calldata _name,bytes calldata _description,uint128 _unit,uint128 _price,uint32 _date,uint32 _expiryDate)public override  {... */\n    tag_9:\n      tag_41\n      0x04\n      dup1\n      calldatasize\n      sub\n      dup2\n      add\n      swap1\n      tag_42\n      swap2\n      swap1\n      tag_43\n      jump\t// in\n    tag_42:\n      tag_44\n      jump\t// in\n    tag_41:\n      stop\n        /* \"contracts/supplierProduct.sol\":292:352  mapping(address => uint[]) public addressToproductsIdMapping */\n    tag_14:\n      mstore(0x20, 0x03)\n      dup2\n      0x00\n      mstore\n      keccak256(0x00, 0x40)\n      dup2\n      dup2\n      sload\n      dup2\n      lt\n      tag_45\n      jumpi\n      0x00\n      dup1\n      revert\n    tag_45:\n      swap1\n      0x00\n      mstore\n      keccak256(0x00, 0x20)\n      add\n      0x00\n      swap2\n      pop\n      swap2\n      pop\n      pop\n      sload\n      dup2\n      jump\t// out\n        /* \"contracts/supplierProduct.sol\":1221:1363  function getSingleProduct(uint _id) public view returns(supplierProduct memory){... */\n    tag_20:\n        /* \"contracts/supplierProduct.sol\":1277:1299  supplierProduct memory */\n      tag_47\n      tag_48\n      jump\t// in\n    tag_47:\n        /* \"contracts/supplierProduct.sol\":1318:1350  productsIdMappingToStructMapping */\n      0x02\n        /* \"contracts/supplierProduct.sol\":1318:1355  productsIdMappingToStructMapping[_id] */\n      0x00\n        /* \"contracts/supplierProduct.sol\":1351:1354  _id */\n      dup4\n        /* \"contracts/supplierProduct.sol\":1318:1355  productsIdMappingToStructMapping[_id] */\n      dup2\n      mstore\n      0x20\n      add\n      swap1\n      dup2\n      mstore\n      0x20\n      add\n      0x00\n      keccak256\n        /* \"contracts/supplierProduct.sol\":1311:1355  return productsIdMappingToStructMapping[_id] */\n      mload(0x40)\n      dup1\n      0xe0\n      add\n      0x40\n      mstore\n      swap1\n      dup2\n      0x00\n      dup3\n      add\n      0x00\n      swap1\n      sload\n      swap1\n      0x0100\n      exp\n      swap1\n      div\n      0xffffffffffffffffffffffffffffffffffffffff\n      and\n      0xffffffffffffffffffffffffffffffffffffffff\n      and\n      0xffffffffffffffffffffffffffffffffffffffff\n      and\n      dup2\n      mstore\n      0x20\n      add\n      0x01\n      dup3\n      add\n      dup1\n      sload\n      tag_50\n      swap1\n      tag_51\n      jump\t// in\n    tag_50:\n      dup1\n      0x1f\n      add\n      0x20\n      dup1\n      swap2\n      div\n      mul\n      0x20\n      add\n      mload(0x40)\n      swap1\n      dup2\n      add\n      0x40\n      mstore\n      dup1\n      swap3\n      swap2\n      swap1\n      dup2\n      dup2\n      mstore\n      0x20\n      add\n      dup3\n      dup1\n      sload\n      tag_52\n      swap1\n      tag_51\n      jump\t// in\n    tag_52:\n      dup1\n      iszero\n      tag_53\n      jumpi\n      dup1\n      0x1f\n      lt\n      tag_54\n      jumpi\n      0x0100\n      dup1\n      dup4\n      sload\n      div\n      mul\n      dup4\n      mstore\n      swap2\n      0x20\n      add\n      swap2\n      jump(tag_53)\n    tag_54:\n      dup3\n      add\n      swap2\n      swap1\n      0x00\n      mstore\n      keccak256(0x00, 0x20)\n      swap1\n    tag_55:\n      dup2\n      sload\n      dup2\n      mstore\n      swap1\n      0x01\n      add\n      swap1\n      0x20\n      add\n      dup1\n      dup4\n      gt\n      tag_55\n      jumpi\n      dup3\n      swap1\n      sub\n      0x1f\n      and\n      dup3\n      add\n      swap2\n    tag_53:\n      pop\n      pop\n      pop\n      pop\n      pop\n      dup2\n      mstore\n      0x20\n      add\n      0x02\n      dup3\n      add\n      dup1\n      sload\n      tag_56\n      swap1\n      tag_51\n      jump\t// in\n    tag_56:\n      dup1\n      0x1f\n      add\n      0x20\n      dup1\n      swap2\n      div\n      mul\n      0x20\n      add\n      mload(0x40)\n      swap1\n      dup2\n      add\n      0x40\n      mstore\n      dup1\n      swap3\n      swap2\n      swap1\n      dup2\n      dup2\n      mstore\n      0x20\n      add\n      dup3\n      dup1\n      sload\n      tag_57\n      swap1\n      tag_51\n      jump\t// in\n    tag_57:\n      dup1\n      iszero\n      tag_58\n      jumpi\n      dup1\n      0x1f\n      lt\n      tag_59\n      jumpi\n      0x0100\n      dup1\n      dup4\n      sload\n      div\n      mul\n      dup4\n      mstore\n      swap2\n      0x20\n      add\n      swap2\n      jump(tag_58)\n    tag_59:\n      dup3\n      add\n      swap2\n      swap1\n      0x00\n      mstore\n      keccak256(0x00, 0x20)\n      swap1\n    tag_60:\n      dup2\n      sload\n      dup2\n      mstore\n      swap1\n      0x01\n      add\n      swap1\n      0x20\n      add\n      dup1\n      dup4\n      gt\n      tag_60\n      jumpi\n      dup3\n      swap1\n      sub\n      0x1f\n      and\n      dup3\n      add\n      swap2\n    tag_58:\n      pop\n      pop\n      pop\n      pop\n      pop\n      dup2\n      mstore\n      0x20\n      add\n      0x03\n      dup3\n      add\n      0x00\n      swap1\n      sload\n      swap1\n      0x0100\n      exp\n      swap1\n      div\n      0xffffffffffffffffffffffffffffffff\n      and\n      0xffffffffffffffffffffffffffffffff\n      and\n      0xffffffffffffffffffffffffffffffff\n      and\n      dup2\n      mstore\n      0x20\n      add\n      0x03\n      dup3\n      add\n      0x10\n      swap1\n      sload\n      swap1\n      0x0100\n      exp\n      swap1\n      div\n      0xffffffffffffffffffffffffffffffff\n      and\n      0xffffffffffffffffffffffffffffffff\n      and\n      0xffffffffffffffffffffffffffffffff\n      and\n      dup2\n      mstore\n      0x20\n      add\n      0x04\n      dup3\n      add\n      0x00\n      swap1\n      sload\n      swap1\n      0x0100\n      exp\n      swap1\n      div\n      0xffffffff\n      and\n      0xffffffff\n      and\n      0xffffffff\n      and\n      dup2\n      mstore\n      0x20\n      add\n      0x04\n      dup3\n      add\n      0x04\n      swap1\n      sload\n      swap1\n      0x0100\n      exp\n      swap1\n      div\n      0xffffffff\n      and\n      0xffffffff\n      and\n      0xffffffff\n      and\n      dup2\n      mstore\n      pop\n      pop\n      swap1\n      pop\n        /* \"contracts/supplierProduct.sol\":1221:1363  function getSingleProduct(uint _id) public view returns(supplierProduct memory){... */\n      swap2\n      swap1\n      pop\n      jump\t// out\n        /* \"contracts/supplierProduct.sol\":1371:1835  function getAllProductsOfSupplier(address _supplierAddress) public view returns(supplierProduct[] memory)... */\n    tag_26:\n        /* \"contracts/supplierProduct.sol\":1451:1475  supplierProduct[] memory */\n      0x60\n        /* \"contracts/supplierProduct.sol\":1493:1517  uint[] memory productIds */\n      0x00\n        /* \"contracts/supplierProduct.sol\":1519:1545  addressToproductsIdMapping */\n      0x03\n        /* \"contracts/supplierProduct.sol\":1519:1563  addressToproductsIdMapping[_supplierAddress] */\n      0x00\n        /* \"contracts/supplierProduct.sol\":1546:1562  _supplierAddress */\n      dup5\n        /* \"contracts/supplierProduct.sol\":1519:1563  addressToproductsIdMapping[_supplierAddress] */\n      0xffffffffffffffffffffffffffffffffffffffff\n      and\n      0xffffffffffffffffffffffffffffffffffffffff\n      and\n      dup2\n      mstore\n      0x20\n      add\n      swap1\n      dup2\n      mstore\n      0x20\n      add\n      0x00\n      keccak256\n        /* \"contracts/supplierProduct.sol\":1493:1563  uint[] memory productIds= addressToproductsIdMapping[_supplierAddress] */\n      dup1\n      sload\n      dup1\n      0x20\n      mul\n      0x20\n      add\n      mload(0x40)\n      swap1\n      dup2\n      add\n      0x40\n      mstore\n      dup1\n      swap3\n      swap2\n      swap1\n      dup2\n      dup2\n      mstore\n      0x20\n      add\n      dup3\n      dup1\n      sload\n      dup1\n      iszero\n      tag_62\n      jumpi\n      0x20\n      mul\n      dup3\n      add\n      swap2\n      swap1\n      0x00\n      mstore\n      keccak256(0x00, 0x20)\n      swap1\n    tag_63:\n      dup2\n      sload\n      dup2\n      mstore\n      0x20\n      add\n      swap1\n      0x01\n      add\n      swap1\n      dup1\n      dup4\n      gt\n      tag_63\n      jumpi\n    tag_62:\n      pop\n      pop\n      pop\n      pop\n      pop\n      swap1\n      pop\n        /* \"contracts/supplierProduct.sol\":1574:1608  supplierProduct[] memory supplierP */\n      0x00\n        /* \"contracts/supplierProduct.sol\":1633:1643  productIds */\n      dup2\n        /* \"contracts/supplierProduct.sol\":1633:1650  productIds.length */\n      mload\n        /* \"contracts/supplierProduct.sol\":1611:1651  new supplierProduct[](productIds.length) */\n      0xffffffffffffffff\n      dup2\n      gt\n      iszero\n      tag_64\n      jumpi\n      tag_65\n      tag_66\n      jump\t// in\n    tag_65:\n    tag_64:\n      mload(0x40)\n      swap1\n      dup1\n      dup3\n      mstore\n      dup1\n      0x20\n      mul\n      0x20\n      add\n      dup3\n      add\n      0x40\n      mstore\n      dup1\n      iszero\n      tag_67\n      jumpi\n      dup2\n      0x20\n      add\n    tag_68:\n      tag_69\n      tag_48\n      jump\t// in\n    tag_69:\n      dup2\n      mstore\n      0x20\n      add\n      swap1\n      0x01\n      swap1\n      sub\n      swap1\n      dup2\n      tag_68\n      jumpi\n      swap1\n      pop\n    tag_67:\n      pop\n        /* \"contracts/supplierProduct.sol\":1574:1651  supplierProduct[] memory supplierP = new supplierProduct[](productIds.length) */\n      swap1\n      pop\n        /* \"contracts/supplierProduct.sol\":1666:1672  uint i */\n      0x00\n        /* \"contracts/supplierProduct.sol\":1662:1801  for(uint i=0;i<productIds.length;i++)... */\n    tag_70:\n        /* \"contracts/supplierProduct.sol\":1677:1687  productIds */\n      dup3\n        /* \"contracts/supplierProduct.sol\":1677:1694  productIds.length */\n      mload\n        /* \"contracts/supplierProduct.sol\":1675:1676  i */\n      dup2\n        /* \"contracts/supplierProduct.sol\":1675:1694  i<productIds.length */\n      lt\n        /* \"contracts/supplierProduct.sol\":1662:1801  for(uint i=0;i<productIds.length;i++)... */\n      iszero\n      tag_71\n      jumpi\n        /* \"contracts/supplierProduct.sol\":1742:1774  productsIdMappingToStructMapping */\n      0x02\n        /* \"contracts/supplierProduct.sol\":1742:1789  productsIdMappingToStructMapping[productIds[i]] */\n      0x00\n        /* \"contracts/supplierProduct.sol\":1775:1785  productIds */\n      dup5\n        /* \"contracts/supplierProduct.sol\":1786:1787  i */\n      dup4\n        /* \"contracts/supplierProduct.sol\":1775:1788  productIds[i] */\n      dup2\n      mload\n      dup2\n      lt\n      tag_73\n      jumpi\n      tag_74\n      tag_75\n      jump\t// in\n    tag_74:\n    tag_73:\n      0x20\n      mul\n      0x20\n      add\n      add\n      mload\n        /* \"contracts/supplierProduct.sol\":1742:1789  productsIdMappingToStructMapping[productIds[i]] */\n      dup2\n      mstore\n      0x20\n      add\n      swap1\n      dup2\n      mstore\n      0x20\n      add\n      0x00\n      keccak256\n        /* \"contracts/supplierProduct.sol\":1728:1789  supplierP[i] =productsIdMappingToStructMapping[productIds[i]] */\n      mload(0x40)\n      dup1\n      0xe0\n      add\n      0x40\n      mstore\n      swap1\n      dup2\n      0x00\n      dup3\n      add\n      0x00\n      swap1\n      sload\n      swap1\n      0x0100\n      exp\n      swap1\n      div\n      0xffffffffffffffffffffffffffffffffffffffff\n      and\n      0xffffffffffffffffffffffffffffffffffffffff\n      and\n      0xffffffffffffffffffffffffffffffffffffffff\n      and\n      dup2\n      mstore\n      0x20\n      add\n      0x01\n      dup3\n      add\n      dup1\n      sload\n      tag_76\n      swap1\n      tag_51\n      jump\t// in\n    tag_76:\n      dup1\n      0x1f\n      add\n      0x20\n      dup1\n      swap2\n      div\n      mul\n      0x20\n      add\n      mload(0x40)\n      swap1\n      dup2\n      add\n      0x40\n      mstore\n      dup1\n      swap3\n      swap2\n      swap1\n      dup2\n      dup2\n      mstore\n      0x20\n      add\n      dup3\n      dup1\n      sload\n      tag_77\n      swap1\n      tag_51\n      jump\t// in\n    tag_77:\n      dup1\n      iszero\n      tag_78\n      jumpi\n      dup1\n      0x1f\n      lt\n      tag_79\n      jumpi\n      0x0100\n      dup1\n      dup4\n      sload\n      div\n      mul\n      dup4\n      mstore\n      swap2\n      0x20\n      add\n      swap2\n      jump(tag_78)\n    tag_79:\n      dup3\n      add\n      swap2\n      swap1\n      0x00\n      mstore\n      keccak256(0x00, 0x20)\n      swap1\n    tag_80:\n      dup2\n      sload\n      dup2\n      mstore\n      swap1\n      0x01\n      add\n      swap1\n      0x20\n      add\n      dup1\n      dup4\n      gt\n      tag_80\n      jumpi\n      dup3\n      swap1\n      sub\n      0x1f\n      and\n      dup3\n      add\n      swap2\n    tag_78:\n      pop\n      pop\n      pop\n      pop\n      pop\n      dup2\n      mstore\n      0x20\n      add\n      0x02\n      dup3\n      add\n      dup1\n      sload\n      tag_81\n      swap1\n      tag_51\n      jump\t// in\n    tag_81:\n      dup1\n      0x1f\n      add\n      0x20\n      dup1\n      swap2\n      div\n      mul\n      0x20\n      add\n      mload(0x40)\n      swap1\n      dup2\n      add\n      0x40\n      mstore\n      dup1\n      swap3\n      swap2\n      swap1\n      dup2\n      dup2\n      mstore\n      0x20\n      add\n      dup3\n      dup1\n      sload\n      tag_82\n      swap1\n      tag_51\n      jump\t// in\n    tag_82:\n      dup1\n      iszero\n      tag_83\n      jumpi\n      dup1\n      0x1f\n      lt\n      tag_84\n      jumpi\n      0x0100\n      dup1\n      dup4\n      sload\n      div\n      mul\n      dup4\n      mstore\n      swap2\n      0x20\n      add\n      swap2\n      jump(tag_83)\n    tag_84:\n      dup3\n      add\n      swap2\n      swap1\n      0x00\n      mstore\n      keccak256(0x00, 0x20)\n      swap1\n    tag_85:\n      dup2\n      sload\n      dup2\n      mstore\n      swap1\n      0x01\n      add\n      swap1\n      0x20\n      add\n      dup1\n      dup4\n      gt\n      tag_85\n      jumpi\n      dup3\n      swap1\n      sub\n      0x1f\n      and\n      dup3\n      add\n      swap2\n    tag_83:\n      pop\n      pop\n      pop\n      pop\n      pop\n      dup2\n      mstore\n      0x20\n      add\n      0x03\n      dup3\n      add\n      0x00\n      swap1\n      sload\n      swap1\n      0x0100\n      exp\n      swap1\n      div\n      0xffffffffffffffffffffffffffffffff\n      and\n      0xffffffffffffffffffffffffffffffff\n      and\n      0xffffffffffffffffffffffffffffffff\n      and\n      dup2\n      mstore\n      0x20\n      add\n      0x03\n      dup3\n      add\n      0x10\n      swap1\n      sload\n      swap1\n      0x0100\n      exp\n      swap1\n      div\n      0xffffffffffffffffffffffffffffffff\n      and\n      0xffffffffffffffffffffffffffffffff\n      and\n      0xffffffffffffffffffffffffffffffff\n      and\n      dup2\n      mstore\n      0x20\n      add\n      0x04\n      dup3\n      add\n      0x00\n      swap1\n      sload\n      swap1\n      0x0100\n      exp\n      swap1\n      div\n      0xffffffff\n      and\n      0xffffffff\n      and\n      0xffffffff\n      and\n      dup2\n      mstore\n      0x20\n      add\n      0x04\n      dup3\n      add\n      0x04\n      swap1\n      sload\n      swap1\n      0x0100\n      exp\n      swap1\n      div\n      0xffffffff\n      and\n      0xffffffff\n      and\n      0xffffffff\n      and\n      dup2\n      mstore\n      pop\n      pop\n        /* \"contracts/supplierProduct.sol\":1728:1737  supplierP */\n      dup3\n        /* \"contracts/supplierProduct.sol\":1738:1739  i */\n      dup3\n        /* \"contracts/supplierProduct.sol\":1728:1740  supplierP[i] */\n      dup2\n      mload\n      dup2\n      lt\n      tag_86\n      jumpi\n      tag_87\n      tag_75\n      jump\t// in\n    tag_87:\n    tag_86:\n      0x20\n      mul\n      0x20\n      add\n      add\n        /* \"contracts/supplierProduct.sol\":1728:1789  supplierP[i] =productsIdMappingToStructMapping[productIds[i]] */\n      dup2\n      swap1\n      mstore\n      pop\n        /* \"contracts/supplierProduct.sol\":1695:1698  i++ */\n      dup1\n      dup1\n      tag_88\n      swap1\n      tag_89\n      jump\t// in\n    tag_88:\n      swap2\n      pop\n      pop\n        /* \"contracts/supplierProduct.sol\":1662:1801  for(uint i=0;i<productIds.length;i++)... */\n      jump(tag_70)\n    tag_71:\n      pop\n        /* \"contracts/supplierProduct.sol\":1818:1827  supplierP */\n      dup1\n        /* \"contracts/supplierProduct.sol\":1811:1827  return supplierP */\n      swap3\n      pop\n      pop\n      pop\n        /* \"contracts/supplierProduct.sol\":1371:1835  function getAllProductsOfSupplier(address _supplierAddress) public view returns(supplierProduct[] memory)... */\n      swap2\n      swap1\n      pop\n      jump\t// out\n        /* \"contracts/supplierProduct.sol\":213:285  mapping(uint => supplierProduct) public productsIdMappingToStructMapping */\n    tag_31:\n      mstore(0x20, 0x02)\n      dup1\n      0x00\n      mstore\n      keccak256(0x00, 0x40)\n      0x00\n      swap2\n      pop\n      swap1\n      pop\n      dup1\n      0x00\n      add\n      0x00\n      swap1\n      sload\n      swap1\n      0x0100\n      exp\n      swap1\n      div\n      0xffffffffffffffffffffffffffffffffffffffff\n      and\n      swap1\n      dup1\n      0x01\n      add\n      dup1\n      sload\n      tag_90\n      swap1\n      tag_51\n      jump\t// in\n    tag_90:\n      dup1\n      0x1f\n      add\n      0x20\n      dup1\n      swap2\n      div\n      mul\n      0x20\n      add\n      mload(0x40)\n      swap1\n      dup2\n      add\n      0x40\n      mstore\n      dup1\n      swap3\n      swap2\n      swap1\n      dup2\n      dup2\n      mstore\n      0x20\n      add\n      dup3\n      dup1\n      sload\n      tag_91\n      swap1\n      tag_51\n      jump\t// in\n    tag_91:\n      dup1\n      iszero\n      tag_92\n      jumpi\n      dup1\n      0x1f\n      lt\n      tag_93\n      jumpi\n      0x0100\n      dup1\n      dup4\n      sload\n      div\n      mul\n      dup4\n      mstore\n      swap2\n      0x20\n      add\n      swap2\n      jump(tag_92)\n    tag_93:\n      dup3\n      add\n      swap2\n      swap1\n      0x00\n      mstore\n      keccak256(0x00, 0x20)\n      swap1\n    tag_94:\n      dup2\n      sload\n      dup2\n      mstore\n      swap1\n      0x01\n      add\n      swap1\n      0x20\n      add\n      dup1\n      dup4\n      gt\n      tag_94\n      jumpi\n      dup3\n      swap1\n      sub\n      0x1f\n      and\n      dup3\n      add\n      swap2\n    tag_92:\n      pop\n      pop\n      pop\n      pop\n      pop\n      swap1\n      dup1\n      0x02\n      add\n      dup1\n      sload\n      tag_95\n      swap1\n      tag_51\n      jump\t// in\n    tag_95:\n      dup1\n      0x1f\n      add\n      0x20\n      dup1\n      swap2\n      div\n      mul\n      0x20\n      add\n      mload(0x40)\n      swap1\n      dup2\n      add\n      0x40\n      mstore\n      dup1\n      swap3\n      swap2\n      swap1\n      dup2\n      dup2\n      mstore\n      0x20\n      add\n      dup3\n      dup1\n      sload\n      tag_96\n      swap1\n      tag_51\n      jump\t// in\n    tag_96:\n      dup1\n      iszero\n      tag_97\n      jumpi\n      dup1\n      0x1f\n      lt\n      tag_98\n      jumpi\n      0x0100\n      dup1\n      dup4\n      sload\n      div\n      mul\n      dup4\n      mstore\n      swap2\n      0x20\n      add\n      swap2\n      jump(tag_97)\n    tag_98:\n      dup3\n      add\n      swap2\n      swap1\n      0x00\n      mstore\n      keccak256(0x00, 0x20)\n      swap1\n    tag_99:\n      dup2\n      sload\n      dup2\n      mstore\n      swap1\n      0x01\n      add\n      swap1\n      0x20\n      add\n      dup1\n      dup4\n      gt\n      tag_99\n      jumpi\n      dup3\n      swap1\n      sub\n      0x1f\n      and\n      dup3\n      add\n      swap2\n    tag_97:\n      pop\n      pop\n      pop\n      pop\n      pop\n      swap1\n      dup1\n      0x03\n      add\n      0x00\n      swap1\n      sload\n      swap1\n      0x0100\n      exp\n      swap1\n      div\n      0xffffffffffffffffffffffffffffffff\n      and\n      swap1\n      dup1\n      0x03\n      add\n      0x10\n      swap1\n      sload\n      swap1\n      0x0100\n      exp\n      swap1\n      div\n      0xffffffffffffffffffffffffffffffff\n      and\n      swap1\n      dup1\n      0x04\n      add\n      0x00\n      swap1\n      sload\n      swap1\n      0x0100\n      exp\n      swap1\n      div\n      0xffffffff\n      and\n      swap1\n      dup1\n      0x04\n      add\n      0x04\n      swap1\n      sload\n      swap1\n      0x0100\n      exp\n      swap1\n      div\n      0xffffffff\n      and\n      swap1\n      pop\n      dup8\n      jump\t// out\n        /* \"contracts/supplierProduct.sol\":1082:1213  function getSupplierProductIds() public view returns(uint[] memory){... */\n    tag_35:\n        /* \"contracts/supplierProduct.sol\":1135:1148  uint[] memory */\n      0x60\n        /* \"contracts/supplierProduct.sol\":1167:1193  addressToproductsIdMapping */\n      0x03\n        /* \"contracts/supplierProduct.sol\":1167:1205  addressToproductsIdMapping[msg.sender] */\n      0x00\n        /* \"contracts/supplierProduct.sol\":1194:1204  msg.sender */\n      caller\n        /* \"contracts/supplierProduct.sol\":1167:1205  addressToproductsIdMapping[msg.sender] */\n      0xffffffffffffffffffffffffffffffffffffffff\n      and\n      0xffffffffffffffffffffffffffffffffffffffff\n      and\n      dup2\n      mstore\n      0x20\n      add\n      swap1\n      dup2\n      mstore\n      0x20\n      add\n      0x00\n      keccak256\n        /* \"contracts/supplierProduct.sol\":1160:1205  return addressToproductsIdMapping[msg.sender] */\n      dup1\n      sload\n      dup1\n      0x20\n      mul\n      0x20\n      add\n      mload(0x40)\n      swap1\n      dup2\n      add\n      0x40\n      mstore\n      dup1\n      swap3\n      swap2\n      swap1\n      dup2\n      dup2\n      mstore\n      0x20\n      add\n      dup3\n      dup1\n      sload\n      dup1\n      iszero\n      tag_101\n      jumpi\n      0x20\n      mul\n      dup3\n      add\n      swap2\n      swap1\n      0x00\n      mstore\n      keccak256(0x00, 0x20)\n      swap1\n    tag_102:\n      dup2\n      sload\n      dup2\n      mstore\n      0x20\n      add\n      swap1\n      0x01\n      add\n      swap1\n      dup1\n      dup4\n      gt\n      tag_102\n      jumpi\n    tag_101:\n      pop\n      pop\n      pop\n      pop\n      pop\n      swap1\n      pop\n        /* \"contracts/supplierProduct.sol\":1082:1213  function getSupplierProductIds() public view returns(uint[] memory){... */\n      swap1\n      jump\t// out\n        /* \"contracts/supplierProduct.sol\":1843:2001  function deleteProduct(uint _id)public override {... */\n    tag_40:\n        /* \"contracts/supplierProduct.sol\":1909:1941  productsIdMappingToStructMapping */\n      0x02\n        /* \"contracts/supplierProduct.sol\":1909:1946  productsIdMappingToStructMapping[_id] */\n      0x00\n        /* \"contracts/supplierProduct.sol\":1942:1945  _id */\n      dup3\n        /* \"contracts/supplierProduct.sol\":1909:1946  productsIdMappingToStructMapping[_id] */\n      dup2\n      mstore\n      0x20\n      add\n      swap1\n      dup2\n      mstore\n      0x20\n      add\n      0x00\n      keccak256\n      0x00\n        /* \"contracts/supplierProduct.sol\":1902:1946  delete productsIdMappingToStructMapping[_id] */\n      dup1\n      dup3\n      add\n      exp(0x0100, 0x00)\n      dup2\n      sload\n      swap1\n      0xffffffffffffffffffffffffffffffffffffffff\n      mul\n      not\n      and\n      swap1\n      sstore\n      0x01\n      dup3\n      add\n      0x00\n      tag_104\n      swap2\n      swap1\n      tag_105\n      jump\t// in\n    tag_104:\n      0x02\n      dup3\n      add\n      0x00\n      tag_106\n      swap2\n      swap1\n      tag_105\n      jump\t// in\n    tag_106:\n      0x03\n      dup3\n      add\n      exp(0x0100, 0x00)\n      dup2\n      sload\n      swap1\n      0xffffffffffffffffffffffffffffffff\n      mul\n      not\n      and\n      swap1\n      sstore\n      0x03\n      dup3\n      add\n      exp(0x0100, 0x10)\n      dup2\n      sload\n      swap1\n      0xffffffffffffffffffffffffffffffff\n      mul\n      not\n      and\n      swap1\n      sstore\n      0x04\n      dup3\n      add\n      exp(0x0100, 0x00)\n      dup2\n      sload\n      swap1\n      0xffffffff\n      mul\n      not\n      and\n      swap1\n      sstore\n      0x04\n      dup3\n      add\n      exp(0x0100, 0x04)\n      dup2\n      sload\n      swap1\n      0xffffffff\n      mul\n      not\n      and\n      swap1\n      sstore\n      pop\n      pop\n        /* \"contracts/supplierProduct.sol\":1989:1992  _id */\n      dup1\n        /* \"contracts/supplierProduct.sol\":1962:1993  eventDeleteSupplierProduct(_id) */\n      0x6c1a4e746947a5049a6693a4875a10617826c8361c631cac61717e141185fdd2\n      mload(0x40)\n      mload(0x40)\n      dup1\n      swap2\n      sub\n      swap1\n      log2\n        /* \"contracts/supplierProduct.sol\":1843:2001  function deleteProduct(uint _id)public override {... */\n      pop\n      jump\t// out\n        /* \"contracts/supplierProduct.sol\":583:1074  function addSupplierProduct(bytes calldata _name,bytes calldata _description,uint128 _unit,uint128 _price,uint32 _date,uint32 _expiryDate)public override  {... */\n    tag_44:\n        /* \"contracts/supplierProduct.sol\":790:867  supplierProduct(msg.sender,_name,_description,_unit,_price,_date,_expiryDate) */\n      mload(0x40)\n      dup1\n      0xe0\n      add\n      0x40\n      mstore\n      dup1\n        /* \"contracts/supplierProduct.sol\":806:816  msg.sender */\n      caller\n        /* \"contracts/supplierProduct.sol\":790:867  supplierProduct(msg.sender,_name,_description,_unit,_price,_date,_expiryDate) */\n      0xffffffffffffffffffffffffffffffffffffffff\n      and\n      dup2\n      mstore\n      0x20\n      add\n        /* \"contracts/supplierProduct.sol\":817:822  _name */\n      dup10\n      dup10\n        /* \"contracts/supplierProduct.sol\":790:867  supplierProduct(msg.sender,_name,_description,_unit,_price,_date,_expiryDate) */\n      dup1\n      dup1\n      0x1f\n      add\n      0x20\n      dup1\n      swap2\n      div\n      mul\n      0x20\n      add\n      mload(0x40)\n      swap1\n      dup2\n      add\n      0x40\n      mstore\n      dup1\n      swap4\n      swap3\n      swap2\n      swap1\n      dup2\n      dup2\n      mstore\n      0x20\n      add\n      dup4\n      dup4\n      dup1\n      dup3\n      dup5\n      calldatacopy\n      0x00\n      dup2\n      dup5\n      add\n      mstore\n      not(0x1f)\n      0x1f\n      dup3\n      add\n      and\n      swap1\n      pop\n      dup1\n      dup4\n      add\n      swap3\n      pop\n      pop\n      pop\n      pop\n      pop\n      pop\n      pop\n      dup2\n      mstore\n      0x20\n      add\n        /* \"contracts/supplierProduct.sol\":823:835  _description */\n      dup8\n      dup8\n        /* \"contracts/supplierProduct.sol\":790:867  supplierProduct(msg.sender,_name,_description,_unit,_price,_date,_expiryDate) */\n      dup1\n      dup1\n      0x1f\n      add\n      0x20\n      dup1\n      swap2\n      div\n      mul\n      0x20\n      add\n      mload(0x40)\n      swap1\n      dup2\n      add\n      0x40\n      mstore\n      dup1\n      swap4\n      swap3\n      swap2\n      swap1\n      dup2\n      dup2\n      mstore\n      0x20\n      add\n      dup4\n      dup4\n      dup1\n      dup3\n      dup5\n      calldatacopy\n      0x00\n      dup2\n      dup5\n      add\n      mstore\n      not(0x1f)\n      0x1f\n      dup3\n      add\n      and\n      swap1\n      pop\n      dup1\n      dup4\n      add\n      swap3\n      pop\n      pop\n      pop\n      pop\n      pop\n      pop\n      pop\n      dup2\n      mstore\n      0x20\n      add\n        /* \"contracts/supplierProduct.sol\":836:841  _unit */\n      dup6\n        /* \"contracts/supplierProduct.sol\":790:867  supplierProduct(msg.sender,_name,_description,_unit,_price,_date,_expiryDate) */\n      0xffffffffffffffffffffffffffffffff\n      and\n      dup2\n      mstore\n      0x20\n      add\n        /* \"contracts/supplierProduct.sol\":842:848  _price */\n      dup5\n        /* \"contracts/supplierProduct.sol\":790:867  supplierProduct(msg.sender,_name,_description,_unit,_price,_date,_expiryDate) */\n      0xffffffffffffffffffffffffffffffff\n      and\n      dup2\n      mstore\n      0x20\n      add\n        /* \"contracts/supplierProduct.sol\":849:854  _date */\n      dup4\n        /* \"contracts/supplierProduct.sol\":790:867  supplierProduct(msg.sender,_name,_description,_unit,_price,_date,_expiryDate) */\n      0xffffffff\n      and\n      dup2\n      mstore\n      0x20\n      add\n        /* \"contracts/supplierProduct.sol\":855:866  _expiryDate */\n      dup3\n        /* \"contracts/supplierProduct.sol\":790:867  supplierProduct(msg.sender,_name,_description,_unit,_price,_date,_expiryDate) */\n      0xffffffff\n      and\n      dup2\n      mstore\n      pop\n        /* \"contracts/supplierProduct.sol\":749:781  productsIdMappingToStructMapping */\n      0x02\n        /* \"contracts/supplierProduct.sol\":749:787  productsIdMappingToStructMapping[spId] */\n      0x00\n        /* \"contracts/supplierProduct.sol\":782:786  spId */\n      dup1\n      sload\n        /* \"contracts/supplierProduct.sol\":749:787  productsIdMappingToStructMapping[spId] */\n      dup2\n      mstore\n      0x20\n      add\n      swap1\n      dup2\n      mstore\n      0x20\n      add\n      0x00\n      keccak256\n        /* \"contracts/supplierProduct.sol\":749:867  productsIdMappingToStructMapping[spId] = supplierProduct(msg.sender,_name,_description,_unit,_price,_date,_expiryDate) */\n      0x00\n      dup3\n      add\n      mload\n      dup2\n      0x00\n      add\n      exp(0x0100, 0x00)\n      dup2\n      sload\n      dup2\n      0xffffffffffffffffffffffffffffffffffffffff\n      mul\n      not\n      and\n      swap1\n      dup4\n      0xffffffffffffffffffffffffffffffffffffffff\n      and\n      mul\n      or\n      swap1\n      sstore\n      pop\n      0x20\n      dup3\n      add\n      mload\n      dup2\n      0x01\n      add\n      swap1\n      dup2\n      tag_108\n      swap2\n      swap1\n      tag_109\n      jump\t// in\n    tag_108:\n      pop\n      0x40\n      dup3\n      add\n      mload\n      dup2\n      0x02\n      add\n      swap1\n      dup2\n      tag_110\n      swap2\n      swap1\n      tag_109\n      jump\t// in\n    tag_110:\n      pop\n      0x60\n      dup3\n      add\n      mload\n      dup2\n      0x03\n      add\n      exp(0x0100, 0x00)\n      dup2\n      sload\n      dup2\n      0xffffffffffffffffffffffffffffffff\n      mul\n      not\n      and\n      swap1\n      dup4\n      0xffffffffffffffffffffffffffffffff\n      and\n      mul\n      or\n      swap1\n      sstore\n      pop\n      0x80\n      dup3\n      add\n      mload\n      dup2\n      0x03\n      add\n      exp(0x0100, 0x10)\n      dup2\n      sload\n      dup2\n      0xffffffffffffffffffffffffffffffff\n      mul\n      not\n      and\n      swap1\n      dup4\n      0xffffffffffffffffffffffffffffffff\n      and\n      mul\n      or\n      swap1\n      sstore\n      pop\n      0xa0\n      dup3\n      add\n      mload\n      dup2\n      0x04\n      add\n      exp(0x0100, 0x00)\n      dup2\n      sload\n      dup2\n      0xffffffff\n      mul\n      not\n      and\n      swap1\n      dup4\n      0xffffffff\n      and\n      mul\n      or\n      swap1\n      sstore\n      pop\n      0xc0\n      dup3\n      add\n      mload\n      dup2\n      0x04\n      add\n      exp(0x0100, 0x04)\n      dup2\n      sload\n      dup2\n      0xffffffff\n      mul\n      not\n      and\n      swap1\n      dup4\n      0xffffffff\n      and\n      mul\n      or\n      swap1\n      sstore\n      pop\n      swap1\n      pop\n      pop\n        /* \"contracts/supplierProduct.sol\":878:904  addressToproductsIdMapping */\n      0x03\n        /* \"contracts/supplierProduct.sol\":878:916  addressToproductsIdMapping[msg.sender] */\n      0x00\n        /* \"contracts/supplierProduct.sol\":905:915  msg.sender */\n      caller\n        /* \"contracts/supplierProduct.sol\":878:916  addressToproductsIdMapping[msg.sender] */\n      0xffffffffffffffffffffffffffffffffffffffff\n      and\n      0xffffffffffffffffffffffffffffffffffffffff\n      and\n      dup2\n      mstore\n      0x20\n      add\n      swap1\n      dup2\n      mstore\n      0x20\n      add\n      0x00\n      keccak256\n        /* \"contracts/supplierProduct.sol\":922:926  spId */\n      sload(0x00)\n        /* \"contracts/supplierProduct.sol\":878:927  addressToproductsIdMapping[msg.sender].push(spId) */\n      swap1\n      dup1\n      0x01\n      dup2\n      sload\n      add\n      dup1\n      dup3\n      sstore\n      dup1\n      swap2\n      pop\n      pop\n      0x01\n      swap1\n      sub\n      swap1\n      0x00\n      mstore\n      keccak256(0x00, 0x20)\n      add\n      0x00\n      swap1\n      swap2\n      swap1\n      swap2\n      swap1\n      swap2\n      pop\n      sstore\n        /* \"contracts/supplierProduct.sol\":972:982  msg.sender */\n      caller\n        /* \"contracts/supplierProduct.sol\":943:1049  eventAddSupplierProduct(spId,msg.sender,_name,_description,_unit,_price,_date,_expiryDate,block.timestamp) */\n      0xffffffffffffffffffffffffffffffffffffffff\n      and\n        /* \"contracts/supplierProduct.sol\":967:971  spId */\n      sload(0x00)\n        /* \"contracts/supplierProduct.sol\":943:1049  eventAddSupplierProduct(spId,msg.sender,_name,_description,_unit,_price,_date,_expiryDate,block.timestamp) */\n      0xb544b666bf20d30fc9acbc75aee55e5847e8f95a49aa5d36b6dab734f0cbb303\n        /* \"contracts/supplierProduct.sol\":983:988  _name */\n      dup11\n      dup11\n        /* \"contracts/supplierProduct.sol\":989:1001  _description */\n      dup11\n      dup11\n        /* \"contracts/supplierProduct.sol\":1002:1007  _unit */\n      dup11\n        /* \"contracts/supplierProduct.sol\":1008:1014  _price */\n      dup11\n        /* \"contracts/supplierProduct.sol\":1015:1020  _date */\n      dup11\n        /* \"contracts/supplierProduct.sol\":1021:1032  _expiryDate */\n      dup11\n        /* \"contracts/supplierProduct.sol\":1033:1048  block.timestamp */\n      timestamp\n        /* \"contracts/supplierProduct.sol\":943:1049  eventAddSupplierProduct(spId,msg.sender,_name,_description,_unit,_price,_date,_expiryDate,block.timestamp) */\n      mload(0x40)\n      tag_112\n      swap10\n      swap9\n      swap8\n      swap7\n      swap6\n      swap5\n      swap4\n      swap3\n      swap2\n      swap1\n      tag_113\n      jump\t// in\n    tag_112:\n      mload(0x40)\n      dup1\n      swap2\n      sub\n      swap1\n      log3\n        /* \"contracts/supplierProduct.sol\":1060:1064  spId */\n      0x00\n      dup1\n        /* \"contracts/supplierProduct.sol\":1060:1066  spId++ */\n      dup2\n      sload\n      dup1\n      swap3\n      swap2\n      swap1\n      tag_114\n      swap1\n      tag_89\n      jump\t// in\n    tag_114:\n      swap2\n      swap1\n      pop\n      sstore\n      pop\n        /* \"contracts/supplierProduct.sol\":583:1074  function addSupplierProduct(bytes calldata _name,bytes calldata _description,uint128 _unit,uint128 _price,uint32 _date,uint32 _expiryDate)public override  {... */\n      pop\n      pop\n      pop\n      pop\n      pop\n      pop\n      pop\n      pop\n      jump\t// out\n    tag_48:\n      mload(0x40)\n      dup1\n      0xe0\n      add\n      0x40\n      mstore\n      dup1\n      and(0xffffffffffffffffffffffffffffffffffffffff, 0x00)\n      dup2\n      mstore\n      0x20\n      add\n      0x60\n      dup2\n      mstore\n      0x20\n      add\n      0x60\n      dup2\n      mstore\n      0x20\n      add\n      and(0xffffffffffffffffffffffffffffffff, 0x00)\n      dup2\n      mstore\n      0x20\n      add\n      and(0xffffffffffffffffffffffffffffffff, 0x00)\n      dup2\n      mstore\n      0x20\n      add\n      and(0xffffffff, 0x00)\n      dup2\n      mstore\n      0x20\n      add\n      and(0xffffffff, 0x00)\n      dup2\n      mstore\n      pop\n      swap1\n      jump\t// out\n    tag_105:\n      pop\n      dup1\n      sload\n      tag_115\n      swap1\n      tag_51\n      jump\t// in\n    tag_115:\n      0x00\n      dup3\n      sstore\n      dup1\n      0x1f\n      lt\n      tag_117\n      jumpi\n      pop\n      jump(tag_116)\n    tag_117:\n      0x1f\n      add\n      0x20\n      swap1\n      div\n      swap1\n      0x00\n      mstore\n      keccak256(0x00, 0x20)\n      swap1\n      dup2\n      add\n      swap1\n      tag_118\n      swap2\n      swap1\n      tag_119\n      jump\t// in\n    tag_118:\n    tag_116:\n      pop\n      jump\t// out\n    tag_119:\n    tag_120:\n      dup1\n      dup3\n      gt\n      iszero\n      tag_121\n      jumpi\n      0x00\n      dup2\n      0x00\n      swap1\n      sstore\n      pop\n      0x01\n      add\n      jump(tag_120)\n    tag_121:\n      pop\n      swap1\n      jump\t// out\n        /* \"#utility.yul\":88:205   */\n    tag_123:\n        /* \"#utility.yul\":197:198   */\n      0x00\n        /* \"#utility.yul\":194:195   */\n      dup1\n        /* \"#utility.yul\":187:199   */\n      revert\n        /* \"#utility.yul\":211:328   */\n    tag_124:\n        /* \"#utility.yul\":320:321   */\n      0x00\n        /* \"#utility.yul\":317:318   */\n      dup1\n        /* \"#utility.yul\":310:322   */\n      revert\n        /* \"#utility.yul\":334:460   */\n    tag_125:\n        /* \"#utility.yul\":371:378   */\n      0x00\n        /* \"#utility.yul\":411:453   */\n      0xffffffffffffffffffffffffffffffffffffffff\n        /* \"#utility.yul\":404:409   */\n      dup3\n        /* \"#utility.yul\":400:454   */\n      and\n        /* \"#utility.yul\":389:454   */\n      swap1\n      pop\n        /* \"#utility.yul\":334:460   */\n      swap2\n      swap1\n      pop\n      jump\t// out\n        /* \"#utility.yul\":466:562   */\n    tag_126:\n        /* \"#utility.yul\":503:510   */\n      0x00\n        /* \"#utility.yul\":532:556   */\n      tag_196\n        /* \"#utility.yul\":550:555   */\n      dup3\n        /* \"#utility.yul\":532:556   */\n      tag_125\n      jump\t// in\n    tag_196:\n        /* \"#utility.yul\":521:556   */\n      swap1\n      pop\n        /* \"#utility.yul\":466:562   */\n      swap2\n      swap1\n      pop\n      jump\t// out\n        /* \"#utility.yul\":568:690   */\n    tag_127:\n        /* \"#utility.yul\":641:665   */\n      tag_198\n        /* \"#utility.yul\":659:664   */\n      dup2\n        /* \"#utility.yul\":641:665   */\n      tag_126\n      jump\t// in\n    tag_198:\n        /* \"#utility.yul\":634:639   */\n      dup2\n        /* \"#utility.yul\":631:666   */\n      eq\n        /* \"#utility.yul\":621:684   */\n      tag_199\n      jumpi\n        /* \"#utility.yul\":680:681   */\n      0x00\n        /* \"#utility.yul\":677:678   */\n      dup1\n        /* \"#utility.yul\":670:682   */\n      revert\n        /* \"#utility.yul\":621:684   */\n    tag_199:\n        /* \"#utility.yul\":568:690   */\n      pop\n      jump\t// out\n        /* \"#utility.yul\":696:835   */\n    tag_128:\n        /* \"#utility.yul\":742:747   */\n      0x00\n        /* \"#utility.yul\":780:786   */\n      dup2\n        /* \"#utility.yul\":767:787   */\n      calldataload\n        /* \"#utility.yul\":758:787   */\n      swap1\n      pop\n        /* \"#utility.yul\":796:829   */\n      tag_201\n        /* \"#utility.yul\":823:828   */\n      dup2\n        /* \"#utility.yul\":796:829   */\n      tag_127\n      jump\t// in\n    tag_201:\n        /* \"#utility.yul\":696:835   */\n      swap3\n      swap2\n      pop\n      pop\n      jump\t// out\n        /* \"#utility.yul\":841:918   */\n    tag_129:\n        /* \"#utility.yul\":878:885   */\n      0x00\n        /* \"#utility.yul\":907:912   */\n      dup2\n        /* \"#utility.yul\":896:912   */\n      swap1\n      pop\n        /* \"#utility.yul\":841:918   */\n      swap2\n      swap1\n      pop\n      jump\t// out\n        /* \"#utility.yul\":924:1046   */\n    tag_130:\n        /* \"#utility.yul\":997:1021   */\n      tag_204\n        /* \"#utility.yul\":1015:1020   */\n      dup2\n        /* \"#utility.yul\":997:1021   */\n      tag_129\n      jump\t// in\n    tag_204:\n        /* \"#utility.yul\":990:995   */\n      dup2\n        /* \"#utility.yul\":987:1022   */\n      eq\n        /* \"#utility.yul\":977:1040   */\n      tag_205\n      jumpi\n        /* \"#utility.yul\":1036:1037   */\n      0x00\n        /* \"#utility.yul\":1033:1034   */\n      dup1\n        /* \"#utility.yul\":1026:1038   */\n      revert\n        /* \"#utility.yul\":977:1040   */\n    tag_205:\n        /* \"#utility.yul\":924:1046   */\n      pop\n      jump\t// out\n        /* \"#utility.yul\":1052:1191   */\n    tag_131:\n        /* \"#utility.yul\":1098:1103   */\n      0x00\n        /* \"#utility.yul\":1136:1142   */\n      dup2\n        /* \"#utility.yul\":1123:1143   */\n      calldataload\n        /* \"#utility.yul\":1114:1143   */\n      swap1\n      pop\n        /* \"#utility.yul\":1152:1185   */\n      tag_207\n        /* \"#utility.yul\":1179:1184   */\n      dup2\n        /* \"#utility.yul\":1152:1185   */\n      tag_130\n      jump\t// in\n    tag_207:\n        /* \"#utility.yul\":1052:1191   */\n      swap3\n      swap2\n      pop\n      pop\n      jump\t// out\n        /* \"#utility.yul\":1197:1671   */\n    tag_13:\n        /* \"#utility.yul\":1265:1271   */\n      0x00\n        /* \"#utility.yul\":1273:1279   */\n      dup1\n        /* \"#utility.yul\":1322:1324   */\n      0x40\n        /* \"#utility.yul\":1310:1319   */\n      dup4\n        /* \"#utility.yul\":1301:1308   */\n      dup6\n        /* \"#utility.yul\":1297:1320   */\n      sub\n        /* \"#utility.yul\":1293:1325   */\n      slt\n        /* \"#utility.yul\":1290:1409   */\n      iszero\n      tag_209\n      jumpi\n        /* \"#utility.yul\":1328:1407   */\n      tag_210\n      tag_123\n      jump\t// in\n    tag_210:\n        /* \"#utility.yul\":1290:1409   */\n    tag_209:\n        /* \"#utility.yul\":1448:1449   */\n      0x00\n        /* \"#utility.yul\":1473:1526   */\n      tag_211\n        /* \"#utility.yul\":1518:1525   */\n      dup6\n        /* \"#utility.yul\":1509:1515   */\n      dup3\n        /* \"#utility.yul\":1498:1507   */\n      dup7\n        /* \"#utility.yul\":1494:1516   */\n      add\n        /* \"#utility.yul\":1473:1526   */\n      tag_128\n      jump\t// in\n    tag_211:\n        /* \"#utility.yul\":1463:1526   */\n      swap3\n      pop\n        /* \"#utility.yul\":1419:1536   */\n      pop\n        /* \"#utility.yul\":1575:1577   */\n      0x20\n        /* \"#utility.yul\":1601:1654   */\n      tag_212\n        /* \"#utility.yul\":1646:1653   */\n      dup6\n        /* \"#utility.yul\":1637:1643   */\n      dup3\n        /* \"#utility.yul\":1626:1635   */\n      dup7\n        /* \"#utility.yul\":1622:1644   */\n      add\n        /* \"#utility.yul\":1601:1654   */\n      tag_131\n      jump\t// in\n    tag_212:\n        /* \"#utility.yul\":1591:1654   */\n      swap2\n      pop\n        /* \"#utility.yul\":1546:1664   */\n      pop\n        /* \"#utility.yul\":1197:1671   */\n      swap3\n      pop\n      swap3\n      swap1\n      pop\n      jump\t// out\n        /* \"#utility.yul\":1677:1795   */\n    tag_132:\n        /* \"#utility.yul\":1764:1788   */\n      tag_214\n        /* \"#utility.yul\":1782:1787   */\n      dup2\n        /* \"#utility.yul\":1764:1788   */\n      tag_129\n      jump\t// in\n    tag_214:\n        /* \"#utility.yul\":1759:1762   */\n      dup3\n        /* \"#utility.yul\":1752:1789   */\n      mstore\n        /* \"#utility.yul\":1677:1795   */\n      pop\n      pop\n      jump\t// out\n        /* \"#utility.yul\":1801:2023   */\n    tag_16:\n        /* \"#utility.yul\":1894:1898   */\n      0x00\n        /* \"#utility.yul\":1932:1934   */\n      0x20\n        /* \"#utility.yul\":1921:1930   */\n      dup3\n        /* \"#utility.yul\":1917:1935   */\n      add\n        /* \"#utility.yul\":1909:1935   */\n      swap1\n      pop\n        /* \"#utility.yul\":1945:2016   */\n      tag_216\n        /* \"#utility.yul\":2013:2014   */\n      0x00\n        /* \"#utility.yul\":2002:2011   */\n      dup4\n        /* \"#utility.yul\":1998:2015   */\n      add\n        /* \"#utility.yul\":1989:1995   */\n      dup5\n        /* \"#utility.yul\":1945:2016   */\n      tag_132\n      jump\t// in\n    tag_216:\n        /* \"#utility.yul\":1801:2023   */\n      swap3\n      swap2\n      pop\n      pop\n      jump\t// out\n        /* \"#utility.yul\":2029:2358   */\n    tag_19:\n        /* \"#utility.yul\":2088:2094   */\n      0x00\n        /* \"#utility.yul\":2137:2139   */\n      0x20\n        /* \"#utility.yul\":2125:2134   */\n      dup3\n        /* \"#utility.yul\":2116:2123   */\n      dup5\n        /* \"#utility.yul\":2112:2135   */\n      sub\n        /* \"#utility.yul\":2108:2140   */\n      slt\n        /* \"#utility.yul\":2105:2224   */\n      iszero\n      tag_218\n      jumpi\n        /* \"#utility.yul\":2143:2222   */\n      tag_219\n      tag_123\n      jump\t// in\n    tag_219:\n        /* \"#utility.yul\":2105:2224   */\n    tag_218:\n        /* \"#utility.yul\":2263:2264   */\n      0x00\n        /* \"#utility.yul\":2288:2341   */\n      tag_220\n        /* \"#utility.yul\":2333:2340   */\n      dup5\n        /* \"#utility.yul\":2324:2330   */\n      dup3\n        /* \"#utility.yul\":2313:2322   */\n      dup6\n        /* \"#utility.yul\":2309:2331   */\n      add\n        /* \"#utility.yul\":2288:2341   */\n      tag_131\n      jump\t// in\n    tag_220:\n        /* \"#utility.yul\":2278:2341   */\n      swap2\n      pop\n        /* \"#utility.yul\":2234:2351   */\n      pop\n        /* \"#utility.yul\":2029:2358   */\n      swap3\n      swap2\n      pop\n      pop\n      jump\t// out\n        /* \"#utility.yul\":2364:2472   */\n    tag_133:\n        /* \"#utility.yul\":2441:2465   */\n      tag_222\n        /* \"#utility.yul\":2459:2464   */\n      dup2\n        /* \"#utility.yul\":2441:2465   */\n      tag_126\n      jump\t// in\n    tag_222:\n        /* \"#utility.yul\":2436:2439   */\n      dup3\n        /* \"#utility.yul\":2429:2466   */\n      mstore\n        /* \"#utility.yul\":2364:2472   */\n      pop\n      pop\n      jump\t// out\n        /* \"#utility.yul\":2478:2576   */\n    tag_134:\n        /* \"#utility.yul\":2529:2535   */\n      0x00\n        /* \"#utility.yul\":2563:2568   */\n      dup2\n        /* \"#utility.yul\":2557:2569   */\n      mload\n        /* \"#utility.yul\":2547:2569   */\n      swap1\n      pop\n        /* \"#utility.yul\":2478:2576   */\n      swap2\n      swap1\n      pop\n      jump\t// out\n        /* \"#utility.yul\":2582:2740   */\n    tag_135:\n        /* \"#utility.yul\":2655:2666   */\n      0x00\n        /* \"#utility.yul\":2689:2695   */\n      dup3\n        /* \"#utility.yul\":2684:2687   */\n      dup3\n        /* \"#utility.yul\":2677:2696   */\n      mstore\n        /* \"#utility.yul\":2729:2733   */\n      0x20\n        /* \"#utility.yul\":2724:2727   */\n      dup3\n        /* \"#utility.yul\":2720:2734   */\n      add\n        /* \"#utility.yul\":2705:2734   */\n      swap1\n      pop\n        /* \"#utility.yul\":2582:2740   */\n      swap3\n      swap2\n      pop\n      pop\n      jump\t// out\n        /* \"#utility.yul\":2746:2992   */\n    tag_136:\n        /* \"#utility.yul\":2827:2828   */\n      0x00\n        /* \"#utility.yul\":2837:2950   */\n    tag_226:\n        /* \"#utility.yul\":2851:2857   */\n      dup4\n        /* \"#utility.yul\":2848:2849   */\n      dup2\n        /* \"#utility.yul\":2845:2858   */\n      lt\n        /* \"#utility.yul\":2837:2950   */\n      iszero\n      tag_228\n      jumpi\n        /* \"#utility.yul\":2936:2937   */\n      dup1\n        /* \"#utility.yul\":2931:2934   */\n      dup3\n        /* \"#utility.yul\":2927:2938   */\n      add\n        /* \"#utility.yul\":2921:2939   */\n      mload\n        /* \"#utility.yul\":2917:2918   */\n      dup2\n        /* \"#utility.yul\":2912:2915   */\n      dup5\n        /* \"#utility.yul\":2908:2919   */\n      add\n        /* \"#utility.yul\":2901:2940   */\n      mstore\n        /* \"#utility.yul\":2873:2875   */\n      0x20\n        /* \"#utility.yul\":2870:2871   */\n      dup2\n        /* \"#utility.yul\":2866:2876   */\n      add\n        /* \"#utility.yul\":2861:2876   */\n      swap1\n      pop\n        /* \"#utility.yul\":2837:2950   */\n      jump(tag_226)\n    tag_228:\n        /* \"#utility.yul\":2984:2985   */\n      0x00\n        /* \"#utility.yul\":2975:2981   */\n      dup5\n        /* \"#utility.yul\":2970:2973   */\n      dup5\n        /* \"#utility.yul\":2966:2982   */\n      add\n        /* \"#utility.yul\":2959:2986   */\n      mstore\n        /* \"#utility.yul\":2808:2992   */\n      pop\n        /* \"#utility.yul\":2746:2992   */\n      pop\n      pop\n      pop\n      jump\t// out\n        /* \"#utility.yul\":2998:3100   */\n    tag_137:\n        /* \"#utility.yul\":3039:3045   */\n      0x00\n        /* \"#utility.yul\":3090:3092   */\n      0x1f\n        /* \"#utility.yul\":3086:3093   */\n      not\n        /* \"#utility.yul\":3081:3083   */\n      0x1f\n        /* \"#utility.yul\":3074:3079   */\n      dup4\n        /* \"#utility.yul\":3070:3084   */\n      add\n        /* \"#utility.yul\":3066:3094   */\n      and\n        /* \"#utility.yul\":3056:3094   */\n      swap1\n      pop\n        /* \"#utility.yul\":2998:3100   */\n      swap2\n      swap1\n      pop\n      jump\t// out\n        /* \"#utility.yul\":3106:3459   */\n    tag_138:\n        /* \"#utility.yul\":3182:3185   */\n      0x00\n        /* \"#utility.yul\":3210:3248   */\n      tag_231\n        /* \"#utility.yul\":3242:3247   */\n      dup3\n        /* \"#utility.yul\":3210:3248   */\n      tag_134\n      jump\t// in\n    tag_231:\n        /* \"#utility.yul\":3264:3324   */\n      tag_232\n        /* \"#utility.yul\":3317:3323   */\n      dup2\n        /* \"#utility.yul\":3312:3315   */\n      dup6\n        /* \"#utility.yul\":3264:3324   */\n      tag_135\n      jump\t// in\n    tag_232:\n        /* \"#utility.yul\":3257:3324   */\n      swap4\n      pop\n        /* \"#utility.yul\":3333:3398   */\n      tag_233\n        /* \"#utility.yul\":3391:3397   */\n      dup2\n        /* \"#utility.yul\":3386:3389   */\n      dup6\n        /* \"#utility.yul\":3379:3383   */\n      0x20\n        /* \"#utility.yul\":3372:3377   */\n      dup7\n        /* \"#utility.yul\":3368:3384   */\n      add\n        /* \"#utility.yul\":3333:3398   */\n      tag_136\n      jump\t// in\n    tag_233:\n        /* \"#utility.yul\":3423:3452   */\n      tag_234\n        /* \"#utility.yul\":3445:3451   */\n      dup2\n        /* \"#utility.yul\":3423:3452   */\n      tag_137\n      jump\t// in\n    tag_234:\n        /* \"#utility.yul\":3418:3421   */\n      dup5\n        /* \"#utility.yul\":3414:3453   */\n      add\n        /* \"#utility.yul\":3407:3453   */\n      swap2\n      pop\n        /* \"#utility.yul\":3186:3459   */\n      pop\n        /* \"#utility.yul\":3106:3459   */\n      swap3\n      swap2\n      pop\n      pop\n      jump\t// out\n        /* \"#utility.yul\":3465:3583   */\n    tag_139:\n        /* \"#utility.yul\":3502:3509   */\n      0x00\n        /* \"#utility.yul\":3542:3576   */\n      0xffffffffffffffffffffffffffffffff\n        /* \"#utility.yul\":3535:3540   */\n      dup3\n        /* \"#utility.yul\":3531:3577   */\n      and\n        /* \"#utility.yul\":3520:3577   */\n      swap1\n      pop\n        /* \"#utility.yul\":3465:3583   */\n      swap2\n      swap1\n      pop\n      jump\t// out\n        /* \"#utility.yul\":3589:3697   */\n    tag_140:\n        /* \"#utility.yul\":3666:3690   */\n      tag_237\n        /* \"#utility.yul\":3684:3689   */\n      dup2\n        /* \"#utility.yul\":3666:3690   */\n      tag_139\n      jump\t// in\n    tag_237:\n        /* \"#utility.yul\":3661:3664   */\n      dup3\n        /* \"#utility.yul\":3654:3691   */\n      mstore\n        /* \"#utility.yul\":3589:3697   */\n      pop\n      pop\n      jump\t// out\n        /* \"#utility.yul\":3703:3796   */\n    tag_141:\n        /* \"#utility.yul\":3739:3746   */\n      0x00\n        /* \"#utility.yul\":3779:3789   */\n      0xffffffff\n        /* \"#utility.yul\":3772:3777   */\n      dup3\n        /* \"#utility.yul\":3768:3790   */\n      and\n        /* \"#utility.yul\":3757:3790   */\n      swap1\n      pop\n        /* \"#utility.yul\":3703:3796   */\n      swap2\n      swap1\n      pop\n      jump\t// out\n        /* \"#utility.yul\":3802:3907   */\n    tag_142:\n        /* \"#utility.yul\":3877:3900   */\n      tag_240\n        /* \"#utility.yul\":3894:3899   */\n      dup2\n        /* \"#utility.yul\":3877:3900   */\n      tag_141\n      jump\t// in\n    tag_240:\n        /* \"#utility.yul\":3872:3875   */\n      dup3\n        /* \"#utility.yul\":3865:3901   */\n      mstore\n        /* \"#utility.yul\":3802:3907   */\n      pop\n      pop\n      jump\t// out\n        /* \"#utility.yul\":4003:5597   */\n    tag_143:\n        /* \"#utility.yul\":4134:4137   */\n      0x00\n        /* \"#utility.yul\":4170:4174   */\n      0xe0\n        /* \"#utility.yul\":4165:4168   */\n      dup4\n        /* \"#utility.yul\":4161:4175   */\n      add\n        /* \"#utility.yul\":4268:4272   */\n      0x00\n        /* \"#utility.yul\":4261:4266   */\n      dup4\n        /* \"#utility.yul\":4257:4273   */\n      add\n        /* \"#utility.yul\":4251:4274   */\n      mload\n        /* \"#utility.yul\":4287:4350   */\n      tag_242\n        /* \"#utility.yul\":4344:4348   */\n      0x00\n        /* \"#utility.yul\":4339:4342   */\n      dup7\n        /* \"#utility.yul\":4335:4349   */\n      add\n        /* \"#utility.yul\":4321:4333   */\n      dup3\n        /* \"#utility.yul\":4287:4350   */\n      tag_133\n      jump\t// in\n    tag_242:\n        /* \"#utility.yul\":4185:4360   */\n      pop\n        /* \"#utility.yul\":4445:4449   */\n      0x20\n        /* \"#utility.yul\":4438:4443   */\n      dup4\n        /* \"#utility.yul\":4434:4450   */\n      add\n        /* \"#utility.yul\":4428:4451   */\n      mload\n        /* \"#utility.yul\":4498:4501   */\n      dup5\n        /* \"#utility.yul\":4492:4496   */\n      dup3\n        /* \"#utility.yul\":4488:4502   */\n      sub\n        /* \"#utility.yul\":4481:4485   */\n      0x20\n        /* \"#utility.yul\":4476:4479   */\n      dup7\n        /* \"#utility.yul\":4472:4486   */\n      add\n        /* \"#utility.yul\":4465:4503   */\n      mstore\n        /* \"#utility.yul\":4524:4595   */\n      tag_243\n        /* \"#utility.yul\":4590:4594   */\n      dup3\n        /* \"#utility.yul\":4576:4588   */\n      dup3\n        /* \"#utility.yul\":4524:4595   */\n      tag_138\n      jump\t// in\n    tag_243:\n        /* \"#utility.yul\":4516:4595   */\n      swap2\n      pop\n        /* \"#utility.yul\":4370:4606   */\n      pop\n        /* \"#utility.yul\":4698:4702   */\n      0x40\n        /* \"#utility.yul\":4691:4696   */\n      dup4\n        /* \"#utility.yul\":4687:4703   */\n      add\n        /* \"#utility.yul\":4681:4704   */\n      mload\n        /* \"#utility.yul\":4751:4754   */\n      dup5\n        /* \"#utility.yul\":4745:4749   */\n      dup3\n        /* \"#utility.yul\":4741:4755   */\n      sub\n        /* \"#utility.yul\":4734:4738   */\n      0x40\n        /* \"#utility.yul\":4729:4732   */\n      dup7\n        /* \"#utility.yul\":4725:4739   */\n      add\n        /* \"#utility.yul\":4718:4756   */\n      mstore\n        /* \"#utility.yul\":4777:4848   */\n      tag_244\n        /* \"#utility.yul\":4843:4847   */\n      dup3\n        /* \"#utility.yul\":4829:4841   */\n      dup3\n        /* \"#utility.yul\":4777:4848   */\n      tag_138\n      jump\t// in\n    tag_244:\n        /* \"#utility.yul\":4769:4848   */\n      swap2\n      pop\n        /* \"#utility.yul\":4616:4859   */\n      pop\n        /* \"#utility.yul\":4944:4948   */\n      0x60\n        /* \"#utility.yul\":4937:4942   */\n      dup4\n        /* \"#utility.yul\":4933:4949   */\n      add\n        /* \"#utility.yul\":4927:4950   */\n      mload\n        /* \"#utility.yul\":4963:5026   */\n      tag_245\n        /* \"#utility.yul\":5020:5024   */\n      0x60\n        /* \"#utility.yul\":5015:5018   */\n      dup7\n        /* \"#utility.yul\":5011:5025   */\n      add\n        /* \"#utility.yul\":4997:5009   */\n      dup3\n        /* \"#utility.yul\":4963:5026   */\n      tag_140\n      jump\t// in\n    tag_245:\n        /* \"#utility.yul\":4869:5036   */\n      pop\n        /* \"#utility.yul\":5122:5126   */\n      0x80\n        /* \"#utility.yul\":5115:5120   */\n      dup4\n        /* \"#utility.yul\":5111:5127   */\n      add\n        /* \"#utility.yul\":5105:5128   */\n      mload\n        /* \"#utility.yul\":5141:5204   */\n      tag_246\n        /* \"#utility.yul\":5198:5202   */\n      0x80\n        /* \"#utility.yul\":5193:5196   */\n      dup7\n        /* \"#utility.yul\":5189:5203   */\n      add\n        /* \"#utility.yul\":5175:5187   */\n      dup3\n        /* \"#utility.yul\":5141:5204   */\n      tag_140\n      jump\t// in\n    tag_246:\n        /* \"#utility.yul\":5046:5214   */\n      pop\n        /* \"#utility.yul\":5299:5303   */\n      0xa0\n        /* \"#utility.yul\":5292:5297   */\n      dup4\n        /* \"#utility.yul\":5288:5304   */\n      add\n        /* \"#utility.yul\":5282:5305   */\n      mload\n        /* \"#utility.yul\":5318:5379   */\n      tag_247\n        /* \"#utility.yul\":5373:5377   */\n      0xa0\n        /* \"#utility.yul\":5368:5371   */\n      dup7\n        /* \"#utility.yul\":5364:5378   */\n      add\n        /* \"#utility.yul\":5350:5362   */\n      dup3\n        /* \"#utility.yul\":5318:5379   */\n      tag_142\n      jump\t// in\n    tag_247:\n        /* \"#utility.yul\":5224:5389   */\n      pop\n        /* \"#utility.yul\":5480:5484   */\n      0xc0\n        /* \"#utility.yul\":5473:5478   */\n      dup4\n        /* \"#utility.yul\":5469:5485   */\n      add\n        /* \"#utility.yul\":5463:5486   */\n      mload\n        /* \"#utility.yul\":5499:5560   */\n      tag_248\n        /* \"#utility.yul\":5554:5558   */\n      0xc0\n        /* \"#utility.yul\":5549:5552   */\n      dup7\n        /* \"#utility.yul\":5545:5559   */\n      add\n        /* \"#utility.yul\":5531:5543   */\n      dup3\n        /* \"#utility.yul\":5499:5560   */\n      tag_142\n      jump\t// in\n    tag_248:\n        /* \"#utility.yul\":5399:5570   */\n      pop\n        /* \"#utility.yul\":5587:5591   */\n      dup1\n        /* \"#utility.yul\":5580:5591   */\n      swap2\n      pop\n        /* \"#utility.yul\":4139:5597   */\n      pop\n        /* \"#utility.yul\":4003:5597   */\n      swap3\n      swap2\n      pop\n      pop\n      jump\t// out\n        /* \"#utility.yul\":5603:6000   */\n    tag_22:\n        /* \"#utility.yul\":5758:5762   */\n      0x00\n        /* \"#utility.yul\":5796:5798   */\n      0x20\n        /* \"#utility.yul\":5785:5794   */\n      dup3\n        /* \"#utility.yul\":5781:5799   */\n      add\n        /* \"#utility.yul\":5773:5799   */\n      swap1\n      pop\n        /* \"#utility.yul\":5845:5854   */\n      dup2\n        /* \"#utility.yul\":5839:5843   */\n      dup2\n        /* \"#utility.yul\":5835:5855   */\n      sub\n        /* \"#utility.yul\":5831:5832   */\n      0x00\n        /* \"#utility.yul\":5820:5829   */\n      dup4\n        /* \"#utility.yul\":5816:5833   */\n      add\n        /* \"#utility.yul\":5809:5856   */\n      mstore\n        /* \"#utility.yul\":5873:5993   */\n      tag_250\n        /* \"#utility.yul\":5988:5992   */\n      dup2\n        /* \"#utility.yul\":5979:5985   */\n      dup5\n        /* \"#utility.yul\":5873:5993   */\n      tag_143\n      jump\t// in\n    tag_250:\n        /* \"#utility.yul\":5865:5993   */\n      swap1\n      pop\n        /* \"#utility.yul\":5603:6000   */\n      swap3\n      swap2\n      pop\n      pop\n      jump\t// out\n        /* \"#utility.yul\":6006:6335   */\n    tag_25:\n        /* \"#utility.yul\":6065:6071   */\n      0x00\n        /* \"#utility.yul\":6114:6116   */\n      0x20\n        /* \"#utility.yul\":6102:6111   */\n      dup3\n        /* \"#utility.yul\":6093:6100   */\n      dup5\n        /* \"#utility.yul\":6089:6112   */\n      sub\n        /* \"#utility.yul\":6085:6117   */\n      slt\n        /* \"#utility.yul\":6082:6201   */\n      iszero\n      tag_252\n      jumpi\n        /* \"#utility.yul\":6120:6199   */\n      tag_253\n      tag_123\n      jump\t// in\n    tag_253:\n        /* \"#utility.yul\":6082:6201   */\n    tag_252:\n        /* \"#utility.yul\":6240:6241   */\n      0x00\n        /* \"#utility.yul\":6265:6318   */\n      tag_254\n        /* \"#utility.yul\":6310:6317   */\n      dup5\n        /* \"#utility.yul\":6301:6307   */\n      dup3\n        /* \"#utility.yul\":6290:6299   */\n      dup6\n        /* \"#utility.yul\":6286:6308   */\n      add\n        /* \"#utility.yul\":6265:6318   */\n      tag_128\n      jump\t// in\n    tag_254:\n        /* \"#utility.yul\":6255:6318   */\n      swap2\n      pop\n        /* \"#utility.yul\":6211:6328   */\n      pop\n        /* \"#utility.yul\":6006:6335   */\n      swap3\n      swap2\n      pop\n      pop\n      jump\t// out\n        /* \"#utility.yul\":6341:6486   */\n    tag_144:\n        /* \"#utility.yul\":6439:6445   */\n      0x00\n        /* \"#utility.yul\":6473:6478   */\n      dup2\n        /* \"#utility.yul\":6467:6479   */\n      mload\n        /* \"#utility.yul\":6457:6479   */\n      swap1\n      pop\n        /* \"#utility.yul\":6341:6486   */\n      swap2\n      swap1\n      pop\n      jump\t// out\n        /* \"#utility.yul\":6492:6707   */\n    tag_145:\n        /* \"#utility.yul\":6622:6633   */\n      0x00\n        /* \"#utility.yul\":6656:6662   */\n      dup3\n        /* \"#utility.yul\":6651:6654   */\n      dup3\n        /* \"#utility.yul\":6644:6663   */\n      mstore\n        /* \"#utility.yul\":6696:6700   */\n      0x20\n        /* \"#utility.yul\":6691:6694   */\n      dup3\n        /* \"#utility.yul\":6687:6701   */\n      add\n        /* \"#utility.yul\":6672:6701   */\n      swap1\n      pop\n        /* \"#utility.yul\":6492:6707   */\n      swap3\n      swap2\n      pop\n      pop\n      jump\t// out\n        /* \"#utility.yul\":6713:6876   */\n    tag_146:\n        /* \"#utility.yul\":6811:6815   */\n      0x00\n        /* \"#utility.yul\":6834:6837   */\n      dup2\n        /* \"#utility.yul\":6826:6837   */\n      swap1\n      pop\n        /* \"#utility.yul\":6864:6868   */\n      0x20\n        /* \"#utility.yul\":6859:6862   */\n      dup3\n        /* \"#utility.yul\":6855:6869   */\n      add\n        /* \"#utility.yul\":6847:6869   */\n      swap1\n      pop\n        /* \"#utility.yul\":6713:6876   */\n      swap2\n      swap1\n      pop\n      jump\t// out\n        /* \"#utility.yul\":6972:8556   */\n    tag_147:\n        /* \"#utility.yul\":7093:7096   */\n      0x00\n        /* \"#utility.yul\":7129:7133   */\n      0xe0\n        /* \"#utility.yul\":7124:7127   */\n      dup4\n        /* \"#utility.yul\":7120:7134   */\n      add\n        /* \"#utility.yul\":7227:7231   */\n      0x00\n        /* \"#utility.yul\":7220:7225   */\n      dup4\n        /* \"#utility.yul\":7216:7232   */\n      add\n        /* \"#utility.yul\":7210:7233   */\n      mload\n        /* \"#utility.yul\":7246:7309   */\n      tag_259\n        /* \"#utility.yul\":7303:7307   */\n      0x00\n        /* \"#utility.yul\":7298:7301   */\n      dup7\n        /* \"#utility.yul\":7294:7308   */\n      add\n        /* \"#utility.yul\":7280:7292   */\n      dup3\n        /* \"#utility.yul\":7246:7309   */\n      tag_133\n      jump\t// in\n    tag_259:\n        /* \"#utility.yul\":7144:7319   */\n      pop\n        /* \"#utility.yul\":7404:7408   */\n      0x20\n        /* \"#utility.yul\":7397:7402   */\n      dup4\n        /* \"#utility.yul\":7393:7409   */\n      add\n        /* \"#utility.yul\":7387:7410   */\n      mload\n        /* \"#utility.yul\":7457:7460   */\n      dup5\n        /* \"#utility.yul\":7451:7455   */\n      dup3\n        /* \"#utility.yul\":7447:7461   */\n      sub\n        /* \"#utility.yul\":7440:7444   */\n      0x20\n        /* \"#utility.yul\":7435:7438   */\n      dup7\n        /* \"#utility.yul\":7431:7445   */\n      add\n        /* \"#utility.yul\":7424:7462   */\n      mstore\n        /* \"#utility.yul\":7483:7554   */\n      tag_260\n        /* \"#utility.yul\":7549:7553   */\n      dup3\n        /* \"#utility.yul\":7535:7547   */\n      dup3\n        /* \"#utility.yul\":7483:7554   */\n      tag_138\n      jump\t// in\n    tag_260:\n        /* \"#utility.yul\":7475:7554   */\n      swap2\n      pop\n        /* \"#utility.yul\":7329:7565   */\n      pop\n        /* \"#utility.yul\":7657:7661   */\n      0x40\n        /* \"#utility.yul\":7650:7655   */\n      dup4\n        /* \"#utility.yul\":7646:7662   */\n      add\n        /* \"#utility.yul\":7640:7663   */\n      mload\n        /* \"#utility.yul\":7710:7713   */\n      dup5\n        /* \"#utility.yul\":7704:7708   */\n      dup3\n        /* \"#utility.yul\":7700:7714   */\n      sub\n        /* \"#utility.yul\":7693:7697   */\n      0x40\n        /* \"#utility.yul\":7688:7691   */\n      dup7\n        /* \"#utility.yul\":7684:7698   */\n      add\n        /* \"#utility.yul\":7677:7715   */\n      mstore\n        /* \"#utility.yul\":7736:7807   */\n      tag_261\n        /* \"#utility.yul\":7802:7806   */\n      dup3\n        /* \"#utility.yul\":7788:7800   */\n      dup3\n        /* \"#utility.yul\":7736:7807   */\n      tag_138\n      jump\t// in\n    tag_261:\n        /* \"#utility.yul\":7728:7807   */\n      swap2\n      pop\n        /* \"#utility.yul\":7575:7818   */\n      pop\n        /* \"#utility.yul\":7903:7907   */\n      0x60\n        /* \"#utility.yul\":7896:7901   */\n      dup4\n        /* \"#utility.yul\":7892:7908   */\n      add\n        /* \"#utility.yul\":7886:7909   */\n      mload\n        /* \"#utility.yul\":7922:7985   */\n      tag_262\n        /* \"#utility.yul\":7979:7983   */\n      0x60\n        /* \"#utility.yul\":7974:7977   */\n      dup7\n        /* \"#utility.yul\":7970:7984   */\n      add\n        /* \"#utility.yul\":7956:7968   */\n      dup3\n        /* \"#utility.yul\":7922:7985   */\n      tag_140\n      jump\t// in\n    tag_262:\n        /* \"#utility.yul\":7828:7995   */\n      pop\n        /* \"#utility.yul\":8081:8085   */\n      0x80\n        /* \"#utility.yul\":8074:8079   */\n      dup4\n        /* \"#utility.yul\":8070:8086   */\n      add\n        /* \"#utility.yul\":8064:8087   */\n      mload\n        /* \"#utility.yul\":8100:8163   */\n      tag_263\n        /* \"#utility.yul\":8157:8161   */\n      0x80\n        /* \"#utility.yul\":8152:8155   */\n      dup7\n        /* \"#utility.yul\":8148:8162   */\n      add\n        /* \"#utility.yul\":8134:8146   */\n      dup3\n        /* \"#utility.yul\":8100:8163   */\n      tag_140\n      jump\t// in\n    tag_263:\n        /* \"#utility.yul\":8005:8173   */\n      pop\n        /* \"#utility.yul\":8258:8262   */\n      0xa0\n        /* \"#utility.yul\":8251:8256   */\n      dup4\n        /* \"#utility.yul\":8247:8263   */\n      add\n        /* \"#utility.yul\":8241:8264   */\n      mload\n        /* \"#utility.yul\":8277:8338   */\n      tag_264\n        /* \"#utility.yul\":8332:8336   */\n      0xa0\n        /* \"#utility.yul\":8327:8330   */\n      dup7\n        /* \"#utility.yul\":8323:8337   */\n      add\n        /* \"#utility.yul\":8309:8321   */\n      dup3\n        /* \"#utility.yul\":8277:8338   */\n      tag_142\n      jump\t// in\n    tag_264:\n        /* \"#utility.yul\":8183:8348   */\n      pop\n        /* \"#utility.yul\":8439:8443   */\n      0xc0\n        /* \"#utility.yul\":8432:8437   */\n      dup4\n        /* \"#utility.yul\":8428:8444   */\n      add\n        /* \"#utility.yul\":8422:8445   */\n      mload\n        /* \"#utility.yul\":8458:8519   */\n      tag_265\n        /* \"#utility.yul\":8513:8517   */\n      0xc0\n        /* \"#utility.yul\":8508:8511   */\n      dup7\n        /* \"#utility.yul\":8504:8518   */\n      add\n        /* \"#utility.yul\":8490:8502   */\n      dup3\n        /* \"#utility.yul\":8458:8519   */\n      tag_142\n      jump\t// in\n    tag_265:\n        /* \"#utility.yul\":8358:8529   */\n      pop\n        /* \"#utility.yul\":8546:8550   */\n      dup1\n        /* \"#utility.yul\":8539:8550   */\n      swap2\n      pop\n        /* \"#utility.yul\":7098:8556   */\n      pop\n        /* \"#utility.yul\":6972:8556   */\n      swap3\n      swap2\n      pop\n      pop\n      jump\t// out\n        /* \"#utility.yul\":8562:8842   */\n    tag_148:\n        /* \"#utility.yul\":8693:8703   */\n      0x00\n        /* \"#utility.yul\":8728:8836   */\n      tag_267\n        /* \"#utility.yul\":8832:8835   */\n      dup4\n        /* \"#utility.yul\":8824:8830   */\n      dup4\n        /* \"#utility.yul\":8728:8836   */\n      tag_147\n      jump\t// in\n    tag_267:\n        /* \"#utility.yul\":8714:8836   */\n      swap1\n      pop\n        /* \"#utility.yul\":8562:8842   */\n      swap3\n      swap2\n      pop\n      pop\n      jump\t// out\n        /* \"#utility.yul\":8848:8992   */\n    tag_149:\n        /* \"#utility.yul\":8949:8953   */\n      0x00\n        /* \"#utility.yul\":8981:8985   */\n      0x20\n        /* \"#utility.yul\":8976:8979   */\n      dup3\n        /* \"#utility.yul\":8972:8986   */\n      add\n        /* \"#utility.yul\":8964:8986   */\n      swap1\n      pop\n        /* \"#utility.yul\":8848:8992   */\n      swap2\n      swap1\n      pop\n      jump\t// out\n        /* \"#utility.yul\":9092:10251   */\n    tag_150:\n        /* \"#utility.yul\":9273:9276   */\n      0x00\n        /* \"#utility.yul\":9302:9387   */\n      tag_270\n        /* \"#utility.yul\":9381:9386   */\n      dup3\n        /* \"#utility.yul\":9302:9387   */\n      tag_144\n      jump\t// in\n    tag_270:\n        /* \"#utility.yul\":9403:9520   */\n      tag_271\n        /* \"#utility.yul\":9513:9519   */\n      dup2\n        /* \"#utility.yul\":9508:9511   */\n      dup6\n        /* \"#utility.yul\":9403:9520   */\n      tag_145\n      jump\t// in\n    tag_271:\n        /* \"#utility.yul\":9396:9520   */\n      swap4\n      pop\n        /* \"#utility.yul\":9546:9549   */\n      dup4\n        /* \"#utility.yul\":9591:9595   */\n      0x20\n        /* \"#utility.yul\":9583:9589   */\n      dup3\n        /* \"#utility.yul\":9579:9596   */\n      mul\n        /* \"#utility.yul\":9574:9577   */\n      dup6\n        /* \"#utility.yul\":9570:9597   */\n      add\n        /* \"#utility.yul\":9621:9708   */\n      tag_272\n        /* \"#utility.yul\":9702:9707   */\n      dup6\n        /* \"#utility.yul\":9621:9708   */\n      tag_146\n      jump\t// in\n    tag_272:\n        /* \"#utility.yul\":9731:9738   */\n      dup1\n        /* \"#utility.yul\":9762:9763   */\n      0x00\n        /* \"#utility.yul\":9747:10206   */\n    tag_273:\n        /* \"#utility.yul\":9772:9778   */\n      dup6\n        /* \"#utility.yul\":9769:9770   */\n      dup2\n        /* \"#utility.yul\":9766:9779   */\n      lt\n        /* \"#utility.yul\":9747:10206   */\n      iszero\n      tag_275\n      jumpi\n        /* \"#utility.yul\":9843:9852   */\n      dup5\n        /* \"#utility.yul\":9837:9841   */\n      dup5\n        /* \"#utility.yul\":9833:9853   */\n      sub\n        /* \"#utility.yul\":9828:9831   */\n      dup10\n        /* \"#utility.yul\":9821:9854   */\n      mstore\n        /* \"#utility.yul\":9894:9900   */\n      dup2\n        /* \"#utility.yul\":9888:9901   */\n      mload\n        /* \"#utility.yul\":9922:10048   */\n      tag_276\n        /* \"#utility.yul\":10043:10047   */\n      dup6\n        /* \"#utility.yul\":10028:10041   */\n      dup3\n        /* \"#utility.yul\":9922:10048   */\n      tag_148\n      jump\t// in\n    tag_276:\n        /* \"#utility.yul\":9914:10048   */\n      swap5\n      pop\n        /* \"#utility.yul\":10071:10162   */\n      tag_277\n        /* \"#utility.yul\":10155:10161   */\n      dup4\n        /* \"#utility.yul\":10071:10162   */\n      tag_149\n      jump\t// in\n    tag_277:\n        /* \"#utility.yul\":10061:10162   */\n      swap3\n      pop\n        /* \"#utility.yul\":10191:10195   */\n      0x20\n        /* \"#utility.yul\":10186:10189   */\n      dup11\n        /* \"#utility.yul\":10182:10196   */\n      add\n        /* \"#utility.yul\":10175:10196   */\n      swap10\n      pop\n        /* \"#utility.yul\":9807:10206   */\n      pop\n        /* \"#utility.yul\":9794:9795   */\n      0x01\n        /* \"#utility.yul\":9791:9792   */\n      dup2\n        /* \"#utility.yul\":9787:9796   */\n      add\n        /* \"#utility.yul\":9782:9796   */\n      swap1\n      pop\n        /* \"#utility.yul\":9747:10206   */\n      jump(tag_273)\n    tag_275:\n        /* \"#utility.yul\":9751:9765   */\n      pop\n        /* \"#utility.yul\":10222:10226   */\n      dup3\n        /* \"#utility.yul\":10215:10226   */\n      swap8\n      pop\n        /* \"#utility.yul\":10242:10245   */\n      dup8\n        /* \"#utility.yul\":10235:10245   */\n      swap6\n      pop\n        /* \"#utility.yul\":9278:10251   */\n      pop\n      pop\n      pop\n      pop\n      pop\n        /* \"#utility.yul\":9092:10251   */\n      swap3\n      swap2\n      pop\n      pop\n      jump\t// out\n        /* \"#utility.yul\":10257:10754   */\n    tag_28:\n        /* \"#utility.yul\":10462:10466   */\n      0x00\n        /* \"#utility.yul\":10500:10502   */\n      0x20\n        /* \"#utility.yul\":10489:10498   */\n      dup3\n        /* \"#utility.yul\":10485:10503   */\n      add\n        /* \"#utility.yul\":10477:10503   */\n      swap1\n      pop\n        /* \"#utility.yul\":10549:10558   */\n      dup2\n        /* \"#utility.yul\":10543:10547   */\n      dup2\n        /* \"#utility.yul\":10539:10559   */\n      sub\n        /* \"#utility.yul\":10535:10536   */\n      0x00\n        /* \"#utility.yul\":10524:10533   */\n      dup4\n        /* \"#utility.yul\":10520:10537   */\n      add\n        /* \"#utility.yul\":10513:10560   */\n      mstore\n        /* \"#utility.yul\":10577:10747   */\n      tag_279\n        /* \"#utility.yul\":10742:10746   */\n      dup2\n        /* \"#utility.yul\":10733:10739   */\n      dup5\n        /* \"#utility.yul\":10577:10747   */\n      tag_150\n      jump\t// in\n    tag_279:\n        /* \"#utility.yul\":10569:10747   */\n      swap1\n      pop\n        /* \"#utility.yul\":10257:10754   */\n      swap3\n      swap2\n      pop\n      pop\n      jump\t// out\n        /* \"#utility.yul\":10760:10878   */\n    tag_151:\n        /* \"#utility.yul\":10847:10871   */\n      tag_281\n        /* \"#utility.yul\":10865:10870   */\n      dup2\n        /* \"#utility.yul\":10847:10871   */\n      tag_126\n      jump\t// in\n    tag_281:\n        /* \"#utility.yul\":10842:10845   */\n      dup3\n        /* \"#utility.yul\":10835:10872   */\n      mstore\n        /* \"#utility.yul\":10760:10878   */\n      pop\n      pop\n      jump\t// out\n        /* \"#utility.yul\":10884:11052   */\n    tag_152:\n        /* \"#utility.yul\":10967:10978   */\n      0x00\n        /* \"#utility.yul\":11001:11007   */\n      dup3\n        /* \"#utility.yul\":10996:10999   */\n      dup3\n        /* \"#utility.yul\":10989:11008   */\n      mstore\n        /* \"#utility.yul\":11041:11045   */\n      0x20\n        /* \"#utility.yul\":11036:11039   */\n      dup3\n        /* \"#utility.yul\":11032:11046   */\n      add\n        /* \"#utility.yul\":11017:11046   */\n      swap1\n      pop\n        /* \"#utility.yul\":10884:11052   */\n      swap3\n      swap2\n      pop\n      pop\n      jump\t// out\n        /* \"#utility.yul\":11058:11431   */\n    tag_153:\n        /* \"#utility.yul\":11144:11147   */\n      0x00\n        /* \"#utility.yul\":11172:11210   */\n      tag_284\n        /* \"#utility.yul\":11204:11209   */\n      dup3\n        /* \"#utility.yul\":11172:11210   */\n      tag_134\n      jump\t// in\n    tag_284:\n        /* \"#utility.yul\":11226:11296   */\n      tag_285\n        /* \"#utility.yul\":11289:11295   */\n      dup2\n        /* \"#utility.yul\":11284:11287   */\n      dup6\n        /* \"#utility.yul\":11226:11296   */\n      tag_152\n      jump\t// in\n    tag_285:\n        /* \"#utility.yul\":11219:11296   */\n      swap4\n      pop\n        /* \"#utility.yul\":11305:11370   */\n      tag_286\n        /* \"#utility.yul\":11363:11369   */\n      dup2\n        /* \"#utility.yul\":11358:11361   */\n      dup6\n        /* \"#utility.yul\":11351:11355   */\n      0x20\n        /* \"#utility.yul\":11344:11349   */\n      dup7\n        /* \"#utility.yul\":11340:11356   */\n      add\n        /* \"#utility.yul\":11305:11370   */\n      tag_136\n      jump\t// in\n    tag_286:\n        /* \"#utility.yul\":11395:11424   */\n      tag_287\n        /* \"#utility.yul\":11417:11423   */\n      dup2\n        /* \"#utility.yul\":11395:11424   */\n      tag_137\n      jump\t// in\n    tag_287:\n        /* \"#utility.yul\":11390:11393   */\n      dup5\n        /* \"#utility.yul\":11386:11425   */\n      add\n        /* \"#utility.yul\":11379:11425   */\n      swap2\n      pop\n        /* \"#utility.yul\":11148:11431   */\n      pop\n        /* \"#utility.yul\":11058:11431   */\n      swap3\n      swap2\n      pop\n      pop\n      jump\t// out\n        /* \"#utility.yul\":11437:11555   */\n    tag_154:\n        /* \"#utility.yul\":11524:11548   */\n      tag_289\n        /* \"#utility.yul\":11542:11547   */\n      dup2\n        /* \"#utility.yul\":11524:11548   */\n      tag_139\n      jump\t// in\n    tag_289:\n        /* \"#utility.yul\":11519:11522   */\n      dup3\n        /* \"#utility.yul\":11512:11549   */\n      mstore\n        /* \"#utility.yul\":11437:11555   */\n      pop\n      pop\n      jump\t// out\n        /* \"#utility.yul\":11561:11676   */\n    tag_155:\n        /* \"#utility.yul\":11646:11669   */\n      tag_291\n        /* \"#utility.yul\":11663:11668   */\n      dup2\n        /* \"#utility.yul\":11646:11669   */\n      tag_141\n      jump\t// in\n    tag_291:\n        /* \"#utility.yul\":11641:11644   */\n      dup3\n        /* \"#utility.yul\":11634:11670   */\n      mstore\n        /* \"#utility.yul\":11561:11676   */\n      pop\n      pop\n      jump\t// out\n        /* \"#utility.yul\":11682:12734   */\n    tag_33:\n        /* \"#utility.yul\":11975:11979   */\n      0x00\n        /* \"#utility.yul\":12013:12016   */\n      0xe0\n        /* \"#utility.yul\":12002:12011   */\n      dup3\n        /* \"#utility.yul\":11998:12017   */\n      add\n        /* \"#utility.yul\":11990:12017   */\n      swap1\n      pop\n        /* \"#utility.yul\":12027:12098   */\n      tag_293\n        /* \"#utility.yul\":12095:12096   */\n      0x00\n        /* \"#utility.yul\":12084:12093   */\n      dup4\n        /* \"#utility.yul\":12080:12097   */\n      add\n        /* \"#utility.yul\":12071:12077   */\n      dup11\n        /* \"#utility.yul\":12027:12098   */\n      tag_151\n      jump\t// in\n    tag_293:\n        /* \"#utility.yul\":12145:12154   */\n      dup2\n        /* \"#utility.yul\":12139:12143   */\n      dup2\n        /* \"#utility.yul\":12135:12155   */\n      sub\n        /* \"#utility.yul\":12130:12132   */\n      0x20\n        /* \"#utility.yul\":12119:12128   */\n      dup4\n        /* \"#utility.yul\":12115:12133   */\n      add\n        /* \"#utility.yul\":12108:12156   */\n      mstore\n        /* \"#utility.yul\":12173:12249   */\n      tag_294\n        /* \"#utility.yul\":12244:12248   */\n      dup2\n        /* \"#utility.yul\":12235:12241   */\n      dup10\n        /* \"#utility.yul\":12173:12249   */\n      tag_153\n      jump\t// in\n    tag_294:\n        /* \"#utility.yul\":12165:12249   */\n      swap1\n      pop\n        /* \"#utility.yul\":12296:12305   */\n      dup2\n        /* \"#utility.yul\":12290:12294   */\n      dup2\n        /* \"#utility.yul\":12286:12306   */\n      sub\n        /* \"#utility.yul\":12281:12283   */\n      0x40\n        /* \"#utility.yul\":12270:12279   */\n      dup4\n        /* \"#utility.yul\":12266:12284   */\n      add\n        /* \"#utility.yul\":12259:12307   */\n      mstore\n        /* \"#utility.yul\":12324:12400   */\n      tag_295\n        /* \"#utility.yul\":12395:12399   */\n      dup2\n        /* \"#utility.yul\":12386:12392   */\n      dup9\n        /* \"#utility.yul\":12324:12400   */\n      tag_153\n      jump\t// in\n    tag_295:\n        /* \"#utility.yul\":12316:12400   */\n      swap1\n      pop\n        /* \"#utility.yul\":12410:12482   */\n      tag_296\n        /* \"#utility.yul\":12478:12480   */\n      0x60\n        /* \"#utility.yul\":12467:12476   */\n      dup4\n        /* \"#utility.yul\":12463:12481   */\n      add\n        /* \"#utility.yul\":12454:12460   */\n      dup8\n        /* \"#utility.yul\":12410:12482   */\n      tag_154\n      jump\t// in\n    tag_296:\n        /* \"#utility.yul\":12492:12565   */\n      tag_297\n        /* \"#utility.yul\":12560:12563   */\n      0x80\n        /* \"#utility.yul\":12549:12558   */\n      dup4\n        /* \"#utility.yul\":12545:12564   */\n      add\n        /* \"#utility.yul\":12536:12542   */\n      dup7\n        /* \"#utility.yul\":12492:12565   */\n      tag_154\n      jump\t// in\n    tag_297:\n        /* \"#utility.yul\":12575:12646   */\n      tag_298\n        /* \"#utility.yul\":12641:12644   */\n      0xa0\n        /* \"#utility.yul\":12630:12639   */\n      dup4\n        /* \"#utility.yul\":12626:12645   */\n      add\n        /* \"#utility.yul\":12617:12623   */\n      dup6\n        /* \"#utility.yul\":12575:12646   */\n      tag_155\n      jump\t// in\n    tag_298:\n        /* \"#utility.yul\":12656:12727   */\n      tag_299\n        /* \"#utility.yul\":12722:12725   */\n      0xc0\n        /* \"#utility.yul\":12711:12720   */\n      dup4\n        /* \"#utility.yul\":12707:12726   */\n      add\n        /* \"#utility.yul\":12698:12704   */\n      dup5\n        /* \"#utility.yul\":12656:12727   */\n      tag_155\n      jump\t// in\n    tag_299:\n        /* \"#utility.yul\":11682:12734   */\n      swap9\n      swap8\n      pop\n      pop\n      pop\n      pop\n      pop\n      pop\n      pop\n      pop\n      jump\t// out\n        /* \"#utility.yul\":12740:12854   */\n    tag_156:\n        /* \"#utility.yul\":12807:12813   */\n      0x00\n        /* \"#utility.yul\":12841:12846   */\n      dup2\n        /* \"#utility.yul\":12835:12847   */\n      mload\n        /* \"#utility.yul\":12825:12847   */\n      swap1\n      pop\n        /* \"#utility.yul\":12740:12854   */\n      swap2\n      swap1\n      pop\n      jump\t// out\n        /* \"#utility.yul\":12860:13044   */\n    tag_157:\n        /* \"#utility.yul\":12959:12970   */\n      0x00\n        /* \"#utility.yul\":12993:12999   */\n      dup3\n        /* \"#utility.yul\":12988:12991   */\n      dup3\n        /* \"#utility.yul\":12981:13000   */\n      mstore\n        /* \"#utility.yul\":13033:13037   */\n      0x20\n        /* \"#utility.yul\":13028:13031   */\n      dup3\n        /* \"#utility.yul\":13024:13038   */\n      add\n        /* \"#utility.yul\":13009:13038   */\n      swap1\n      pop\n        /* \"#utility.yul\":12860:13044   */\n      swap3\n      swap2\n      pop\n      pop\n      jump\t// out\n        /* \"#utility.yul\":13050:13182   */\n    tag_158:\n        /* \"#utility.yul\":13117:13121   */\n      0x00\n        /* \"#utility.yul\":13140:13143   */\n      dup2\n        /* \"#utility.yul\":13132:13143   */\n      swap1\n      pop\n        /* \"#utility.yul\":13170:13174   */\n      0x20\n        /* \"#utility.yul\":13165:13168   */\n      dup3\n        /* \"#utility.yul\":13161:13175   */\n      add\n        /* \"#utility.yul\":13153:13175   */\n      swap1\n      pop\n        /* \"#utility.yul\":13050:13182   */\n      swap2\n      swap1\n      pop\n      jump\t// out\n        /* \"#utility.yul\":13188:13296   */\n    tag_159:\n        /* \"#utility.yul\":13265:13289   */\n      tag_304\n        /* \"#utility.yul\":13283:13288   */\n      dup2\n        /* \"#utility.yul\":13265:13289   */\n      tag_129\n      jump\t// in\n    tag_304:\n        /* \"#utility.yul\":13260:13263   */\n      dup3\n        /* \"#utility.yul\":13253:13290   */\n      mstore\n        /* \"#utility.yul\":13188:13296   */\n      pop\n      pop\n      jump\t// out\n        /* \"#utility.yul\":13302:13481   */\n    tag_160:\n        /* \"#utility.yul\":13371:13381   */\n      0x00\n        /* \"#utility.yul\":13392:13438   */\n      tag_306\n        /* \"#utility.yul\":13434:13437   */\n      dup4\n        /* \"#utility.yul\":13426:13432   */\n      dup4\n        /* \"#utility.yul\":13392:13438   */\n      tag_159\n      jump\t// in\n    tag_306:\n        /* \"#utility.yul\":13470:13474   */\n      0x20\n        /* \"#utility.yul\":13465:13468   */\n      dup4\n        /* \"#utility.yul\":13461:13475   */\n      add\n        /* \"#utility.yul\":13447:13475   */\n      swap1\n      pop\n        /* \"#utility.yul\":13302:13481   */\n      swap3\n      swap2\n      pop\n      pop\n      jump\t// out\n        /* \"#utility.yul\":13487:13600   */\n    tag_161:\n        /* \"#utility.yul\":13557:13561   */\n      0x00\n        /* \"#utility.yul\":13589:13593   */\n      0x20\n        /* \"#utility.yul\":13584:13587   */\n      dup3\n        /* \"#utility.yul\":13580:13594   */\n      add\n        /* \"#utility.yul\":13572:13594   */\n      swap1\n      pop\n        /* \"#utility.yul\":13487:13600   */\n      swap2\n      swap1\n      pop\n      jump\t// out\n        /* \"#utility.yul\":13636:14368   */\n    tag_162:\n        /* \"#utility.yul\":13755:13758   */\n      0x00\n        /* \"#utility.yul\":13784:13838   */\n      tag_309\n        /* \"#utility.yul\":13832:13837   */\n      dup3\n        /* \"#utility.yul\":13784:13838   */\n      tag_156\n      jump\t// in\n    tag_309:\n        /* \"#utility.yul\":13854:13940   */\n      tag_310\n        /* \"#utility.yul\":13933:13939   */\n      dup2\n        /* \"#utility.yul\":13928:13931   */\n      dup6\n        /* \"#utility.yul\":13854:13940   */\n      tag_157\n      jump\t// in\n    tag_310:\n        /* \"#utility.yul\":13847:13940   */\n      swap4\n      pop\n        /* \"#utility.yul\":13964:14020   */\n      tag_311\n        /* \"#utility.yul\":14014:14019   */\n      dup4\n        /* \"#utility.yul\":13964:14020   */\n      tag_158\n      jump\t// in\n    tag_311:\n        /* \"#utility.yul\":14043:14050   */\n      dup1\n        /* \"#utility.yul\":14074:14075   */\n      0x00\n        /* \"#utility.yul\":14059:14343   */\n    tag_312:\n        /* \"#utility.yul\":14084:14090   */\n      dup4\n        /* \"#utility.yul\":14081:14082   */\n      dup2\n        /* \"#utility.yul\":14078:14091   */\n      lt\n        /* \"#utility.yul\":14059:14343   */\n      iszero\n      tag_314\n      jumpi\n        /* \"#utility.yul\":14160:14166   */\n      dup2\n        /* \"#utility.yul\":14154:14167   */\n      mload\n        /* \"#utility.yul\":14187:14250   */\n      tag_315\n        /* \"#utility.yul\":14246:14249   */\n      dup9\n        /* \"#utility.yul\":14231:14244   */\n      dup3\n        /* \"#utility.yul\":14187:14250   */\n      tag_160\n      jump\t// in\n    tag_315:\n        /* \"#utility.yul\":14180:14250   */\n      swap8\n      pop\n        /* \"#utility.yul\":14273:14333   */\n      tag_316\n        /* \"#utility.yul\":14326:14332   */\n      dup4\n        /* \"#utility.yul\":14273:14333   */\n      tag_161\n      jump\t// in\n    tag_316:\n        /* \"#utility.yul\":14263:14333   */\n      swap3\n      pop\n        /* \"#utility.yul\":14119:14343   */\n      pop\n        /* \"#utility.yul\":14106:14107   */\n      0x01\n        /* \"#utility.yul\":14103:14104   */\n      dup2\n        /* \"#utility.yul\":14099:14108   */\n      add\n        /* \"#utility.yul\":14094:14108   */\n      swap1\n      pop\n        /* \"#utility.yul\":14059:14343   */\n      jump(tag_312)\n    tag_314:\n        /* \"#utility.yul\":14063:14077   */\n      pop\n        /* \"#utility.yul\":14359:14362   */\n      dup6\n        /* \"#utility.yul\":14352:14362   */\n      swap4\n      pop\n        /* \"#utility.yul\":13760:14368   */\n      pop\n      pop\n      pop\n        /* \"#utility.yul\":13636:14368   */\n      swap3\n      swap2\n      pop\n      pop\n      jump\t// out\n        /* \"#utility.yul\":14374:14747   */\n    tag_37:\n        /* \"#utility.yul\":14517:14521   */\n      0x00\n        /* \"#utility.yul\":14555:14557   */\n      0x20\n        /* \"#utility.yul\":14544:14553   */\n      dup3\n        /* \"#utility.yul\":14540:14558   */\n      add\n        /* \"#utility.yul\":14532:14558   */\n      swap1\n      pop\n        /* \"#utility.yul\":14604:14613   */\n      dup2\n        /* \"#utility.yul\":14598:14602   */\n      dup2\n        /* \"#utility.yul\":14594:14614   */\n      sub\n        /* \"#utility.yul\":14590:14591   */\n      0x00\n        /* \"#utility.yul\":14579:14588   */\n      dup4\n        /* \"#utility.yul\":14575:14592   */\n      add\n        /* \"#utility.yul\":14568:14615   */\n      mstore\n        /* \"#utility.yul\":14632:14740   */\n      tag_318\n        /* \"#utility.yul\":14735:14739   */\n      dup2\n        /* \"#utility.yul\":14726:14732   */\n      dup5\n        /* \"#utility.yul\":14632:14740   */\n      tag_162\n      jump\t// in\n    tag_318:\n        /* \"#utility.yul\":14624:14740   */\n      swap1\n      pop\n        /* \"#utility.yul\":14374:14747   */\n      swap3\n      swap2\n      pop\n      pop\n      jump\t// out\n        /* \"#utility.yul\":14753:14870   */\n    tag_163:\n        /* \"#utility.yul\":14862:14863   */\n      0x00\n        /* \"#utility.yul\":14859:14860   */\n      dup1\n        /* \"#utility.yul\":14852:14864   */\n      revert\n        /* \"#utility.yul\":14876:14993   */\n    tag_164:\n        /* \"#utility.yul\":14985:14986   */\n      0x00\n        /* \"#utility.yul\":14982:14983   */\n      dup1\n        /* \"#utility.yul\":14975:14987   */\n      revert\n        /* \"#utility.yul\":14999:15116   */\n    tag_165:\n        /* \"#utility.yul\":15108:15109   */\n      0x00\n        /* \"#utility.yul\":15105:15106   */\n      dup1\n        /* \"#utility.yul\":15098:15110   */\n      revert\n        /* \"#utility.yul\":15135:15687   */\n    tag_166:\n        /* \"#utility.yul\":15192:15200   */\n      0x00\n        /* \"#utility.yul\":15202:15208   */\n      dup1\n        /* \"#utility.yul\":15252:15255   */\n      dup4\n        /* \"#utility.yul\":15245:15249   */\n      0x1f\n        /* \"#utility.yul\":15237:15243   */\n      dup5\n        /* \"#utility.yul\":15233:15250   */\n      add\n        /* \"#utility.yul\":15229:15256   */\n      slt\n        /* \"#utility.yul\":15219:15341   */\n      tag_323\n      jumpi\n        /* \"#utility.yul\":15260:15339   */\n      tag_324\n      tag_163\n      jump\t// in\n    tag_324:\n        /* \"#utility.yul\":15219:15341   */\n    tag_323:\n        /* \"#utility.yul\":15373:15379   */\n      dup3\n        /* \"#utility.yul\":15360:15380   */\n      calldataload\n        /* \"#utility.yul\":15350:15380   */\n      swap1\n      pop\n        /* \"#utility.yul\":15403:15421   */\n      0xffffffffffffffff\n        /* \"#utility.yul\":15395:15401   */\n      dup2\n        /* \"#utility.yul\":15392:15422   */\n      gt\n        /* \"#utility.yul\":15389:15506   */\n      iszero\n      tag_325\n      jumpi\n        /* \"#utility.yul\":15425:15504   */\n      tag_326\n      tag_164\n      jump\t// in\n    tag_326:\n        /* \"#utility.yul\":15389:15506   */\n    tag_325:\n        /* \"#utility.yul\":15539:15543   */\n      0x20\n        /* \"#utility.yul\":15531:15537   */\n      dup4\n        /* \"#utility.yul\":15527:15544   */\n      add\n        /* \"#utility.yul\":15515:15544   */\n      swap2\n      pop\n        /* \"#utility.yul\":15593:15596   */\n      dup4\n        /* \"#utility.yul\":15585:15589   */\n      0x01\n        /* \"#utility.yul\":15577:15583   */\n      dup3\n        /* \"#utility.yul\":15573:15590   */\n      mul\n        /* \"#utility.yul\":15563:15571   */\n      dup4\n        /* \"#utility.yul\":15559:15591   */\n      add\n        /* \"#utility.yul\":15556:15597   */\n      gt\n        /* \"#utility.yul\":15553:15681   */\n      iszero\n      tag_327\n      jumpi\n        /* \"#utility.yul\":15600:15679   */\n      tag_328\n      tag_165\n      jump\t// in\n    tag_328:\n        /* \"#utility.yul\":15553:15681   */\n    tag_327:\n        /* \"#utility.yul\":15135:15687   */\n      swap3\n      pop\n      swap3\n      swap1\n      pop\n      jump\t// out\n        /* \"#utility.yul\":15693:15815   */\n    tag_167:\n        /* \"#utility.yul\":15766:15790   */\n      tag_330\n        /* \"#utility.yul\":15784:15789   */\n      dup2\n        /* \"#utility.yul\":15766:15790   */\n      tag_139\n      jump\t// in\n    tag_330:\n        /* \"#utility.yul\":15759:15764   */\n      dup2\n        /* \"#utility.yul\":15756:15791   */\n      eq\n        /* \"#utility.yul\":15746:15809   */\n      tag_331\n      jumpi\n        /* \"#utility.yul\":15805:15806   */\n      0x00\n        /* \"#utility.yul\":15802:15803   */\n      dup1\n        /* \"#utility.yul\":15795:15807   */\n      revert\n        /* \"#utility.yul\":15746:15809   */\n    tag_331:\n        /* \"#utility.yul\":15693:15815   */\n      pop\n      jump\t// out\n        /* \"#utility.yul\":15821:15960   */\n    tag_168:\n        /* \"#utility.yul\":15867:15872   */\n      0x00\n        /* \"#utility.yul\":15905:15911   */\n      dup2\n        /* \"#utility.yul\":15892:15912   */\n      calldataload\n        /* \"#utility.yul\":15883:15912   */\n      swap1\n      pop\n        /* \"#utility.yul\":15921:15954   */\n      tag_333\n        /* \"#utility.yul\":15948:15953   */\n      dup2\n        /* \"#utility.yul\":15921:15954   */\n      tag_167\n      jump\t// in\n    tag_333:\n        /* \"#utility.yul\":15821:15960   */\n      swap3\n      swap2\n      pop\n      pop\n      jump\t// out\n        /* \"#utility.yul\":15966:16086   */\n    tag_169:\n        /* \"#utility.yul\":16038:16061   */\n      tag_335\n        /* \"#utility.yul\":16055:16060   */\n      dup2\n        /* \"#utility.yul\":16038:16061   */\n      tag_141\n      jump\t// in\n    tag_335:\n        /* \"#utility.yul\":16031:16036   */\n      dup2\n        /* \"#utility.yul\":16028:16062   */\n      eq\n        /* \"#utility.yul\":16018:16080   */\n      tag_336\n      jumpi\n        /* \"#utility.yul\":16076:16077   */\n      0x00\n        /* \"#utility.yul\":16073:16074   */\n      dup1\n        /* \"#utility.yul\":16066:16078   */\n      revert\n        /* \"#utility.yul\":16018:16080   */\n    tag_336:\n        /* \"#utility.yul\":15966:16086   */\n      pop\n      jump\t// out\n        /* \"#utility.yul\":16092:16229   */\n    tag_170:\n        /* \"#utility.yul\":16137:16142   */\n      0x00\n        /* \"#utility.yul\":16175:16181   */\n      dup2\n        /* \"#utility.yul\":16162:16182   */\n      calldataload\n        /* \"#utility.yul\":16153:16182   */\n      swap1\n      pop\n        /* \"#utility.yul\":16191:16223   */\n      tag_338\n        /* \"#utility.yul\":16217:16222   */\n      dup2\n        /* \"#utility.yul\":16191:16223   */\n      tag_169\n      jump\t// in\n    tag_338:\n        /* \"#utility.yul\":16092:16229   */\n      swap3\n      swap2\n      pop\n      pop\n      jump\t// out\n        /* \"#utility.yul\":16235:17684   */\n    tag_43:\n        /* \"#utility.yul\":16359:16365   */\n      0x00\n        /* \"#utility.yul\":16367:16373   */\n      dup1\n        /* \"#utility.yul\":16375:16381   */\n      0x00\n        /* \"#utility.yul\":16383:16389   */\n      dup1\n        /* \"#utility.yul\":16391:16397   */\n      0x00\n        /* \"#utility.yul\":16399:16405   */\n      dup1\n        /* \"#utility.yul\":16407:16413   */\n      0x00\n        /* \"#utility.yul\":16415:16421   */\n      dup1\n        /* \"#utility.yul\":16464:16467   */\n      0xc0\n        /* \"#utility.yul\":16452:16461   */\n      dup10\n        /* \"#utility.yul\":16443:16450   */\n      dup12\n        /* \"#utility.yul\":16439:16462   */\n      sub\n        /* \"#utility.yul\":16435:16468   */\n      slt\n        /* \"#utility.yul\":16432:16552   */\n      iszero\n      tag_340\n      jumpi\n        /* \"#utility.yul\":16471:16550   */\n      tag_341\n      tag_123\n      jump\t// in\n    tag_341:\n        /* \"#utility.yul\":16432:16552   */\n    tag_340:\n        /* \"#utility.yul\":16619:16620   */\n      0x00\n        /* \"#utility.yul\":16608:16617   */\n      dup10\n        /* \"#utility.yul\":16604:16621   */\n      add\n        /* \"#utility.yul\":16591:16622   */\n      calldataload\n        /* \"#utility.yul\":16649:16667   */\n      0xffffffffffffffff\n        /* \"#utility.yul\":16641:16647   */\n      dup2\n        /* \"#utility.yul\":16638:16668   */\n      gt\n        /* \"#utility.yul\":16635:16752   */\n      iszero\n      tag_342\n      jumpi\n        /* \"#utility.yul\":16671:16750   */\n      tag_343\n      tag_124\n      jump\t// in\n    tag_343:\n        /* \"#utility.yul\":16635:16752   */\n    tag_342:\n        /* \"#utility.yul\":16784:16848   */\n      tag_344\n        /* \"#utility.yul\":16840:16847   */\n      dup12\n        /* \"#utility.yul\":16831:16837   */\n      dup3\n        /* \"#utility.yul\":16820:16829   */\n      dup13\n        /* \"#utility.yul\":16816:16838   */\n      add\n        /* \"#utility.yul\":16784:16848   */\n      tag_166\n      jump\t// in\n    tag_344:\n        /* \"#utility.yul\":16766:16848   */\n      swap9\n      pop\n      swap9\n      pop\n        /* \"#utility.yul\":16562:16858   */\n      pop\n        /* \"#utility.yul\":16925:16927   */\n      0x20\n        /* \"#utility.yul\":16914:16923   */\n      dup10\n        /* \"#utility.yul\":16910:16928   */\n      add\n        /* \"#utility.yul\":16897:16929   */\n      calldataload\n        /* \"#utility.yul\":16956:16974   */\n      0xffffffffffffffff\n        /* \"#utility.yul\":16948:16954   */\n      dup2\n        /* \"#utility.yul\":16945:16975   */\n      gt\n        /* \"#utility.yul\":16942:17059   */\n      iszero\n      tag_345\n      jumpi\n        /* \"#utility.yul\":16978:17057   */\n      tag_346\n      tag_124\n      jump\t// in\n    tag_346:\n        /* \"#utility.yul\":16942:17059   */\n    tag_345:\n        /* \"#utility.yul\":17091:17155   */\n      tag_347\n        /* \"#utility.yul\":17147:17154   */\n      dup12\n        /* \"#utility.yul\":17138:17144   */\n      dup3\n        /* \"#utility.yul\":17127:17136   */\n      dup13\n        /* \"#utility.yul\":17123:17145   */\n      add\n        /* \"#utility.yul\":17091:17155   */\n      tag_166\n      jump\t// in\n    tag_347:\n        /* \"#utility.yul\":17073:17155   */\n      swap7\n      pop\n      swap7\n      pop\n        /* \"#utility.yul\":16868:17165   */\n      pop\n        /* \"#utility.yul\":17204:17206   */\n      0x40\n        /* \"#utility.yul\":17230:17283   */\n      tag_348\n        /* \"#utility.yul\":17275:17282   */\n      dup12\n        /* \"#utility.yul\":17266:17272   */\n      dup3\n        /* \"#utility.yul\":17255:17264   */\n      dup13\n        /* \"#utility.yul\":17251:17273   */\n      add\n        /* \"#utility.yul\":17230:17283   */\n      tag_168\n      jump\t// in\n    tag_348:\n        /* \"#utility.yul\":17220:17283   */\n      swap5\n      pop\n        /* \"#utility.yul\":17175:17293   */\n      pop\n        /* \"#utility.yul\":17332:17334   */\n      0x60\n        /* \"#utility.yul\":17358:17411   */\n      tag_349\n        /* \"#utility.yul\":17403:17410   */\n      dup12\n        /* \"#utility.yul\":17394:17400   */\n      dup3\n        /* \"#utility.yul\":17383:17392   */\n      dup13\n        /* \"#utility.yul\":17379:17401   */\n      add\n        /* \"#utility.yul\":17358:17411   */\n      tag_168\n      jump\t// in\n    tag_349:\n        /* \"#utility.yul\":17348:17411   */\n      swap4\n      pop\n        /* \"#utility.yul\":17303:17421   */\n      pop\n        /* \"#utility.yul\":17460:17463   */\n      0x80\n        /* \"#utility.yul\":17487:17539   */\n      tag_350\n        /* \"#utility.yul\":17531:17538   */\n      dup12\n        /* \"#utility.yul\":17522:17528   */\n      dup3\n        /* \"#utility.yul\":17511:17520   */\n      dup13\n        /* \"#utility.yul\":17507:17529   */\n      add\n        /* \"#utility.yul\":17487:17539   */\n      tag_170\n      jump\t// in\n    tag_350:\n        /* \"#utility.yul\":17477:17539   */\n      swap3\n      pop\n        /* \"#utility.yul\":17431:17549   */\n      pop\n        /* \"#utility.yul\":17588:17591   */\n      0xa0\n        /* \"#utility.yul\":17615:17667   */\n      tag_351\n        /* \"#utility.yul\":17659:17666   */\n      dup12\n        /* \"#utility.yul\":17650:17656   */\n      dup3\n        /* \"#utility.yul\":17639:17648   */\n      dup13\n        /* \"#utility.yul\":17635:17657   */\n      add\n        /* \"#utility.yul\":17615:17667   */\n      tag_170\n      jump\t// in\n    tag_351:\n        /* \"#utility.yul\":17605:17667   */\n      swap2\n      pop\n        /* \"#utility.yul\":17559:17677   */\n      pop\n        /* \"#utility.yul\":16235:17684   */\n      swap3\n      swap6\n      swap9\n      pop\n      swap3\n      swap6\n      swap9\n      swap1\n      swap4\n      swap7\n      pop\n      jump\t// out\n        /* \"#utility.yul\":17690:17870   */\n    tag_171:\n        /* \"#utility.yul\":17738:17815   */\n      0x4e487b7100000000000000000000000000000000000000000000000000000000\n        /* \"#utility.yul\":17735:17736   */\n      0x00\n        /* \"#utility.yul\":17728:17816   */\n      mstore\n        /* \"#utility.yul\":17835:17839   */\n      0x22\n        /* \"#utility.yul\":17832:17833   */\n      0x04\n        /* \"#utility.yul\":17825:17840   */\n      mstore\n        /* \"#utility.yul\":17859:17863   */\n      0x24\n        /* \"#utility.yul\":17856:17857   */\n      0x00\n        /* \"#utility.yul\":17849:17864   */\n      revert\n        /* \"#utility.yul\":17876:18196   */\n    tag_51:\n        /* \"#utility.yul\":17920:17926   */\n      0x00\n        /* \"#utility.yul\":17957:17958   */\n      0x02\n        /* \"#utility.yul\":17951:17955   */\n      dup3\n        /* \"#utility.yul\":17947:17959   */\n      div\n        /* \"#utility.yul\":17937:17959   */\n      swap1\n      pop\n        /* \"#utility.yul\":18004:18005   */\n      0x01\n        /* \"#utility.yul\":17998:18002   */\n      dup3\n        /* \"#utility.yul\":17994:18006   */\n      and\n        /* \"#utility.yul\":18025:18043   */\n      dup1\n        /* \"#utility.yul\":18015:18096   */\n      tag_354\n      jumpi\n        /* \"#utility.yul\":18081:18085   */\n      0x7f\n        /* \"#utility.yul\":18073:18079   */\n      dup3\n        /* \"#utility.yul\":18069:18086   */\n      and\n        /* \"#utility.yul\":18059:18086   */\n      swap2\n      pop\n        /* \"#utility.yul\":18015:18096   */\n    tag_354:\n        /* \"#utility.yul\":18143:18145   */\n      0x20\n        /* \"#utility.yul\":18135:18141   */\n      dup3\n        /* \"#utility.yul\":18132:18146   */\n      lt\n        /* \"#utility.yul\":18112:18130   */\n      dup2\n        /* \"#utility.yul\":18109:18147   */\n      sub\n        /* \"#utility.yul\":18106:18190   */\n      tag_355\n      jumpi\n        /* \"#utility.yul\":18162:18180   */\n      tag_356\n      tag_171\n      jump\t// in\n    tag_356:\n        /* \"#utility.yul\":18106:18190   */\n    tag_355:\n        /* \"#utility.yul\":17927:18196   */\n      pop\n        /* \"#utility.yul\":17876:18196   */\n      swap2\n      swap1\n      pop\n      jump\t// out\n        /* \"#utility.yul\":18202:18382   */\n    tag_66:\n        /* \"#utility.yul\":18250:18327   */\n      0x4e487b7100000000000000000000000000000000000000000000000000000000\n        /* \"#utility.yul\":18247:18248   */\n      0x00\n        /* \"#utility.yul\":18240:18328   */\n      mstore\n        /* \"#utility.yul\":18347:18351   */\n      0x41\n        /* \"#utility.yul\":18344:18345   */\n      0x04\n        /* \"#utility.yul\":18337:18352   */\n      mstore\n        /* \"#utility.yul\":18371:18375   */\n      0x24\n        /* \"#utility.yul\":18368:18369   */\n      0x00\n        /* \"#utility.yul\":18361:18376   */\n      revert\n        /* \"#utility.yul\":18388:18568   */\n    tag_75:\n        /* \"#utility.yul\":18436:18513   */\n      0x4e487b7100000000000000000000000000000000000000000000000000000000\n        /* \"#utility.yul\":18433:18434   */\n      0x00\n        /* \"#utility.yul\":18426:18514   */\n      mstore\n        /* \"#utility.yul\":18533:18537   */\n      0x32\n        /* \"#utility.yul\":18530:18531   */\n      0x04\n        /* \"#utility.yul\":18523:18538   */\n      mstore\n        /* \"#utility.yul\":18557:18561   */\n      0x24\n        /* \"#utility.yul\":18554:18555   */\n      0x00\n        /* \"#utility.yul\":18547:18562   */\n      revert\n        /* \"#utility.yul\":18574:18754   */\n    tag_172:\n        /* \"#utility.yul\":18622:18699   */\n      0x4e487b7100000000000000000000000000000000000000000000000000000000\n        /* \"#utility.yul\":18619:18620   */\n      0x00\n        /* \"#utility.yul\":18612:18700   */\n      mstore\n        /* \"#utility.yul\":18719:18723   */\n      0x11\n        /* \"#utility.yul\":18716:18717   */\n      0x04\n        /* \"#utility.yul\":18709:18724   */\n      mstore\n        /* \"#utility.yul\":18743:18747   */\n      0x24\n        /* \"#utility.yul\":18740:18741   */\n      0x00\n        /* \"#utility.yul\":18733:18748   */\n      revert\n        /* \"#utility.yul\":18760:18993   */\n    tag_89:\n        /* \"#utility.yul\":18799:18802   */\n      0x00\n        /* \"#utility.yul\":18822:18846   */\n      tag_361\n        /* \"#utility.yul\":18840:18845   */\n      dup3\n        /* \"#utility.yul\":18822:18846   */\n      tag_129\n      jump\t// in\n    tag_361:\n        /* \"#utility.yul\":18813:18846   */\n      swap2\n      pop\n        /* \"#utility.yul\":18868:18934   */\n      0xffffffffffffffffffffffffffffffffffffffffffffffffffffffffffffffff\n        /* \"#utility.yul\":18861:18866   */\n      dup3\n        /* \"#utility.yul\":18858:18935   */\n      sub\n        /* \"#utility.yul\":18855:18958   */\n      tag_362\n      jumpi\n        /* \"#utility.yul\":18938:18956   */\n      tag_363\n      tag_172\n      jump\t// in\n    tag_363:\n        /* \"#utility.yul\":18855:18958   */\n    tag_362:\n        /* \"#utility.yul\":18985:18986   */\n      0x01\n        /* \"#utility.yul\":18978:18983   */\n      dup3\n        /* \"#utility.yul\":18974:18987   */\n      add\n        /* \"#utility.yul\":18967:18987   */\n      swap1\n      pop\n        /* \"#utility.yul\":18760:18993   */\n      swap2\n      swap1\n      pop\n      jump\t// out\n        /* \"#utility.yul\":18999:19139   */\n    tag_173:\n        /* \"#utility.yul\":19047:19051   */\n      0x00\n        /* \"#utility.yul\":19070:19073   */\n      dup2\n        /* \"#utility.yul\":19062:19073   */\n      swap1\n      pop\n        /* \"#utility.yul\":19093:19096   */\n      dup2\n        /* \"#utility.yul\":19090:19091   */\n      0x00\n        /* \"#utility.yul\":19083:19097   */\n      mstore\n        /* \"#utility.yul\":19127:19131   */\n      0x20\n        /* \"#utility.yul\":19124:19125   */\n      0x00\n        /* \"#utility.yul\":19114:19132   */\n      keccak256\n        /* \"#utility.yul\":19106:19132   */\n      swap1\n      pop\n        /* \"#utility.yul\":18999:19139   */\n      swap2\n      swap1\n      pop\n      jump\t// out\n        /* \"#utility.yul\":19145:19238   */\n    tag_174:\n        /* \"#utility.yul\":19182:19188   */\n      0x00\n        /* \"#utility.yul\":19229:19231   */\n      0x20\n        /* \"#utility.yul\":19224:19226   */\n      0x1f\n        /* \"#utility.yul\":19217:19222   */\n      dup4\n        /* \"#utility.yul\":19213:19227   */\n      add\n        /* \"#utility.yul\":19209:19232   */\n      div\n        /* \"#utility.yul\":19199:19232   */\n      swap1\n      pop\n        /* \"#utility.yul\":19145:19238   */\n      swap2\n      swap1\n      pop\n      jump\t// out\n        /* \"#utility.yul\":19244:19351   */\n    tag_175:\n        /* \"#utility.yul\":19288:19296   */\n      0x00\n        /* \"#utility.yul\":19338:19343   */\n      dup3\n        /* \"#utility.yul\":19332:19336   */\n      dup3\n        /* \"#utility.yul\":19328:19344   */\n      shl\n        /* \"#utility.yul\":19307:19344   */\n      swap1\n      pop\n        /* \"#utility.yul\":19244:19351   */\n      swap3\n      swap2\n      pop\n      pop\n      jump\t// out\n        /* \"#utility.yul\":19357:19750   */\n    tag_176:\n        /* \"#utility.yul\":19426:19432   */\n      0x00\n        /* \"#utility.yul\":19476:19477   */\n      0x08\n        /* \"#utility.yul\":19464:19474   */\n      dup4\n        /* \"#utility.yul\":19460:19478   */\n      mul\n        /* \"#utility.yul\":19499:19596   */\n      tag_368\n        /* \"#utility.yul\":19529:19595   */\n      0xffffffffffffffffffffffffffffffffffffffffffffffffffffffffffffffff\n        /* \"#utility.yul\":19518:19527   */\n      dup3\n        /* \"#utility.yul\":19499:19596   */\n      tag_175\n      jump\t// in\n    tag_368:\n        /* \"#utility.yul\":19617:19656   */\n      tag_369\n        /* \"#utility.yul\":19647:19655   */\n      dup7\n        /* \"#utility.yul\":19636:19645   */\n      dup4\n        /* \"#utility.yul\":19617:19656   */\n      tag_175\n      jump\t// in\n    tag_369:\n        /* \"#utility.yul\":19605:19656   */\n      swap6\n      pop\n        /* \"#utility.yul\":19689:19693   */\n      dup1\n        /* \"#utility.yul\":19685:19694   */\n      not\n        /* \"#utility.yul\":19678:19683   */\n      dup5\n        /* \"#utility.yul\":19674:19695   */\n      and\n        /* \"#utility.yul\":19665:19695   */\n      swap4\n      pop\n        /* \"#utility.yul\":19738:19742   */\n      dup1\n        /* \"#utility.yul\":19728:19736   */\n      dup7\n        /* \"#utility.yul\":19724:19743   */\n      and\n        /* \"#utility.yul\":19717:19722   */\n      dup5\n        /* \"#utility.yul\":19714:19744   */\n      or\n        /* \"#utility.yul\":19704:19744   */\n      swap3\n      pop\n        /* \"#utility.yul\":19433:19750   */\n      pop\n      pop\n        /* \"#utility.yul\":19357:19750   */\n      swap4\n      swap3\n      pop\n      pop\n      pop\n      jump\t// out\n        /* \"#utility.yul\":19756:19816   */\n    tag_177:\n        /* \"#utility.yul\":19784:19787   */\n      0x00\n        /* \"#utility.yul\":19805:19810   */\n      dup2\n        /* \"#utility.yul\":19798:19810   */\n      swap1\n      pop\n        /* \"#utility.yul\":19756:19816   */\n      swap2\n      swap1\n      pop\n      jump\t// out\n        /* \"#utility.yul\":19822:19964   */\n    tag_178:\n        /* \"#utility.yul\":19872:19881   */\n      0x00\n        /* \"#utility.yul\":19905:19958   */\n      tag_372\n        /* \"#utility.yul\":19923:19957   */\n      tag_373\n        /* \"#utility.yul\":19932:19956   */\n      tag_374\n        /* \"#utility.yul\":19950:19955   */\n      dup5\n        /* \"#utility.yul\":19932:19956   */\n      tag_129\n      jump\t// in\n    tag_374:\n        /* \"#utility.yul\":19923:19957   */\n      tag_177\n      jump\t// in\n    tag_373:\n        /* \"#utility.yul\":19905:19958   */\n      tag_129\n      jump\t// in\n    tag_372:\n        /* \"#utility.yul\":19892:19958   */\n      swap1\n      pop\n        /* \"#utility.yul\":19822:19964   */\n      swap2\n      swap1\n      pop\n      jump\t// out\n        /* \"#utility.yul\":19970:20045   */\n    tag_179:\n        /* \"#utility.yul\":20013:20016   */\n      0x00\n        /* \"#utility.yul\":20034:20039   */\n      dup2\n        /* \"#utility.yul\":20027:20039   */\n      swap1\n      pop\n        /* \"#utility.yul\":19970:20045   */\n      swap2\n      swap1\n      pop\n      jump\t// out\n        /* \"#utility.yul\":20051:20320   */\n    tag_180:\n        /* \"#utility.yul\":20161:20200   */\n      tag_377\n        /* \"#utility.yul\":20192:20199   */\n      dup4\n        /* \"#utility.yul\":20161:20200   */\n      tag_178\n      jump\t// in\n    tag_377:\n        /* \"#utility.yul\":20222:20313   */\n      tag_378\n        /* \"#utility.yul\":20271:20312   */\n      tag_379\n        /* \"#utility.yul\":20295:20311   */\n      dup3\n        /* \"#utility.yul\":20271:20312   */\n      tag_179\n      jump\t// in\n    tag_379:\n        /* \"#utility.yul\":20263:20269   */\n      dup5\n        /* \"#utility.yul\":20256:20260   */\n      dup5\n        /* \"#utility.yul\":20250:20261   */\n      sload\n        /* \"#utility.yul\":20222:20313   */\n      tag_176\n      jump\t// in\n    tag_378:\n        /* \"#utility.yul\":20216:20220   */\n      dup3\n        /* \"#utility.yul\":20209:20314   */\n      sstore\n        /* \"#utility.yul\":20127:20320   */\n      pop\n        /* \"#utility.yul\":20051:20320   */\n      pop\n      pop\n      pop\n      jump\t// out\n        /* \"#utility.yul\":20326:20399   */\n    tag_181:\n        /* \"#utility.yul\":20371:20374   */\n      0x00\n        /* \"#utility.yul\":20326:20399   */\n      swap1\n      jump\t// out\n        /* \"#utility.yul\":20405:20594   */\n    tag_182:\n        /* \"#utility.yul\":20482:20514   */\n      tag_382\n      tag_181\n      jump\t// in\n    tag_382:\n        /* \"#utility.yul\":20523:20588   */\n      tag_383\n        /* \"#utility.yul\":20581:20587   */\n      dup2\n        /* \"#utility.yul\":20573:20579   */\n      dup5\n        /* \"#utility.yul\":20567:20571   */\n      dup5\n        /* \"#utility.yul\":20523:20588   */\n      tag_180\n      jump\t// in\n    tag_383:\n        /* \"#utility.yul\":20458:20594   */\n      pop\n        /* \"#utility.yul\":20405:20594   */\n      pop\n      pop\n      jump\t// out\n        /* \"#utility.yul\":20600:20786   */\n    tag_183:\n        /* \"#utility.yul\":20660:20780   */\n    tag_385:\n        /* \"#utility.yul\":20677:20680   */\n      dup2\n        /* \"#utility.yul\":20670:20675   */\n      dup2\n        /* \"#utility.yul\":20667:20681   */\n      lt\n        /* \"#utility.yul\":20660:20780   */\n      iszero\n      tag_387\n      jumpi\n        /* \"#utility.yul\":20731:20770   */\n      tag_388\n        /* \"#utility.yul\":20768:20769   */\n      0x00\n        /* \"#utility.yul\":20761:20766   */\n      dup3\n        /* \"#utility.yul\":20731:20770   */\n      tag_182\n      jump\t// in\n    tag_388:\n        /* \"#utility.yul\":20704:20705   */\n      0x01\n        /* \"#utility.yul\":20697:20702   */\n      dup2\n        /* \"#utility.yul\":20693:20706   */\n      add\n        /* \"#utility.yul\":20684:20706   */\n      swap1\n      pop\n        /* \"#utility.yul\":20660:20780   */\n      jump(tag_385)\n    tag_387:\n        /* \"#utility.yul\":20600:20786   */\n      pop\n      pop\n      jump\t// out\n        /* \"#utility.yul\":20792:21333   */\n    tag_184:\n        /* \"#utility.yul\":20892:20894   */\n      0x1f\n        /* \"#utility.yul\":20887:20890   */\n      dup3\n        /* \"#utility.yul\":20884:20895   */\n      gt\n        /* \"#utility.yul\":20881:21326   */\n      iszero\n      tag_390\n      jumpi\n        /* \"#utility.yul\":20926:20963   */\n      tag_391\n        /* \"#utility.yul\":20957:20962   */\n      dup2\n        /* \"#utility.yul\":20926:20963   */\n      tag_173\n      jump\t// in\n    tag_391:\n        /* \"#utility.yul\":21009:21038   */\n      tag_392\n        /* \"#utility.yul\":21027:21037   */\n      dup5\n        /* \"#utility.yul\":21009:21038   */\n      tag_174\n      jump\t// in\n    tag_392:\n        /* \"#utility.yul\":20999:21007   */\n      dup2\n        /* \"#utility.yul\":20995:21039   */\n      add\n        /* \"#utility.yul\":21192:21194   */\n      0x20\n        /* \"#utility.yul\":21180:21190   */\n      dup6\n        /* \"#utility.yul\":21177:21195   */\n      lt\n        /* \"#utility.yul\":21174:21223   */\n      iszero\n      tag_393\n      jumpi\n        /* \"#utility.yul\":21213:21221   */\n      dup2\n        /* \"#utility.yul\":21198:21221   */\n      swap1\n      pop\n        /* \"#utility.yul\":21174:21223   */\n    tag_393:\n        /* \"#utility.yul\":21236:21316   */\n      tag_394\n        /* \"#utility.yul\":21292:21314   */\n      tag_395\n        /* \"#utility.yul\":21310:21313   */\n      dup6\n        /* \"#utility.yul\":21292:21314   */\n      tag_174\n      jump\t// in\n    tag_395:\n        /* \"#utility.yul\":21282:21290   */\n      dup4\n        /* \"#utility.yul\":21278:21315   */\n      add\n        /* \"#utility.yul\":21265:21276   */\n      dup3\n        /* \"#utility.yul\":21236:21316   */\n      tag_183\n      jump\t// in\n    tag_394:\n        /* \"#utility.yul\":20896:21326   */\n      pop\n      pop\n        /* \"#utility.yul\":20881:21326   */\n    tag_390:\n        /* \"#utility.yul\":20792:21333   */\n      pop\n      pop\n      pop\n      jump\t// out\n        /* \"#utility.yul\":21339:21456   */\n    tag_185:\n        /* \"#utility.yul\":21393:21401   */\n      0x00\n        /* \"#utility.yul\":21443:21448   */\n      dup3\n        /* \"#utility.yul\":21437:21441   */\n      dup3\n        /* \"#utility.yul\":21433:21449   */\n      shr\n        /* \"#utility.yul\":21412:21449   */\n      swap1\n      pop\n        /* \"#utility.yul\":21339:21456   */\n      swap3\n      swap2\n      pop\n      pop\n      jump\t// out\n        /* \"#utility.yul\":21462:21631   */\n    tag_186:\n        /* \"#utility.yul\":21506:21512   */\n      0x00\n        /* \"#utility.yul\":21539:21590   */\n      tag_398\n        /* \"#utility.yul\":21587:21588   */\n      0x00\n        /* \"#utility.yul\":21583:21589   */\n      not\n        /* \"#utility.yul\":21575:21580   */\n      dup5\n        /* \"#utility.yul\":21572:21573   */\n      0x08\n        /* \"#utility.yul\":21568:21581   */\n      mul\n        /* \"#utility.yul\":21539:21590   */\n      tag_185\n      jump\t// in\n    tag_398:\n        /* \"#utility.yul\":21535:21591   */\n      not\n        /* \"#utility.yul\":21620:21624   */\n      dup1\n        /* \"#utility.yul\":21614:21618   */\n      dup4\n        /* \"#utility.yul\":21610:21625   */\n      and\n        /* \"#utility.yul\":21600:21625   */\n      swap2\n      pop\n        /* \"#utility.yul\":21513:21631   */\n      pop\n        /* \"#utility.yul\":21462:21631   */\n      swap3\n      swap2\n      pop\n      pop\n      jump\t// out\n        /* \"#utility.yul\":21636:21931   */\n    tag_187:\n        /* \"#utility.yul\":21712:21716   */\n      0x00\n        /* \"#utility.yul\":21858:21887   */\n      tag_400\n        /* \"#utility.yul\":21883:21886   */\n      dup4\n        /* \"#utility.yul\":21877:21881   */\n      dup4\n        /* \"#utility.yul\":21858:21887   */\n      tag_186\n      jump\t// in\n    tag_400:\n        /* \"#utility.yul\":21850:21887   */\n      swap2\n      pop\n        /* \"#utility.yul\":21920:21923   */\n      dup3\n        /* \"#utility.yul\":21917:21918   */\n      0x02\n        /* \"#utility.yul\":21913:21924   */\n      mul\n        /* \"#utility.yul\":21907:21911   */\n      dup3\n        /* \"#utility.yul\":21904:21925   */\n      or\n        /* \"#utility.yul\":21896:21925   */\n      swap1\n      pop\n        /* \"#utility.yul\":21636:21931   */\n      swap3\n      swap2\n      pop\n      pop\n      jump\t// out\n        /* \"#utility.yul\":21936:23326   */\n    tag_109:\n        /* \"#utility.yul\":22051:22087   */\n      tag_402\n        /* \"#utility.yul\":22083:22086   */\n      dup3\n        /* \"#utility.yul\":22051:22087   */\n      tag_134\n      jump\t// in\n    tag_402:\n        /* \"#utility.yul\":22152:22170   */\n      0xffffffffffffffff\n        /* \"#utility.yul\":22144:22150   */\n      dup2\n        /* \"#utility.yul\":22141:22171   */\n      gt\n        /* \"#utility.yul\":22138:22194   */\n      iszero\n      tag_403\n      jumpi\n        /* \"#utility.yul\":22174:22192   */\n      tag_404\n      tag_66\n      jump\t// in\n    tag_404:\n        /* \"#utility.yul\":22138:22194   */\n    tag_403:\n        /* \"#utility.yul\":22218:22256   */\n      tag_405\n        /* \"#utility.yul\":22250:22254   */\n      dup3\n        /* \"#utility.yul\":22244:22255   */\n      sload\n        /* \"#utility.yul\":22218:22256   */\n      tag_51\n      jump\t// in\n    tag_405:\n        /* \"#utility.yul\":22303:22369   */\n      tag_406\n        /* \"#utility.yul\":22362:22368   */\n      dup3\n        /* \"#utility.yul\":22354:22360   */\n      dup3\n        /* \"#utility.yul\":22348:22352   */\n      dup6\n        /* \"#utility.yul\":22303:22369   */\n      tag_184\n      jump\t// in\n    tag_406:\n        /* \"#utility.yul\":22396:22397   */\n      0x00\n        /* \"#utility.yul\":22420:22424   */\n      0x20\n        /* \"#utility.yul\":22407:22424   */\n      swap1\n      pop\n        /* \"#utility.yul\":22452:22454   */\n      0x1f\n        /* \"#utility.yul\":22444:22450   */\n      dup4\n        /* \"#utility.yul\":22441:22455   */\n      gt\n        /* \"#utility.yul\":22469:22470   */\n      0x01\n        /* \"#utility.yul\":22464:23081   */\n      dup2\n      eq\n      tag_408\n      jumpi\n        /* \"#utility.yul\":23125:23126   */\n      0x00\n        /* \"#utility.yul\":23142:23148   */\n      dup5\n        /* \"#utility.yul\":23139:23216   */\n      iszero\n      tag_409\n      jumpi\n        /* \"#utility.yul\":23191:23200   */\n      dup3\n        /* \"#utility.yul\":23186:23189   */\n      dup8\n        /* \"#utility.yul\":23182:23201   */\n      add\n        /* \"#utility.yul\":23176:23202   */\n      mload\n        /* \"#utility.yul\":23167:23202   */\n      swap1\n      pop\n        /* \"#utility.yul\":23139:23216   */\n    tag_409:\n        /* \"#utility.yul\":23242:23309   */\n      tag_410\n        /* \"#utility.yul\":23302:23308   */\n      dup6\n        /* \"#utility.yul\":23295:23300   */\n      dup3\n        /* \"#utility.yul\":23242:23309   */\n      tag_187\n      jump\t// in\n    tag_410:\n        /* \"#utility.yul\":23236:23240   */\n      dup7\n        /* \"#utility.yul\":23229:23310   */\n      sstore\n        /* \"#utility.yul\":23098:23320   */\n      pop\n        /* \"#utility.yul\":22434:23320   */\n      jump(tag_407)\n        /* \"#utility.yul\":22464:23081   */\n    tag_408:\n        /* \"#utility.yul\":22516:22520   */\n      0x1f\n        /* \"#utility.yul\":22512:22521   */\n      not\n        /* \"#utility.yul\":22504:22510   */\n      dup5\n        /* \"#utility.yul\":22500:22522   */\n      and\n        /* \"#utility.yul\":22550:22586   */\n      tag_411\n        /* \"#utility.yul\":22581:22585   */\n      dup7\n        /* \"#utility.yul\":22550:22586   */\n      tag_173\n      jump\t// in\n    tag_411:\n        /* \"#utility.yul\":22608:22609   */\n      0x00\n        /* \"#utility.yul\":22622:22830   */\n    tag_412:\n        /* \"#utility.yul\":22636:22643   */\n      dup3\n        /* \"#utility.yul\":22633:22634   */\n      dup2\n        /* \"#utility.yul\":22630:22644   */\n      lt\n        /* \"#utility.yul\":22622:22830   */\n      iszero\n      tag_414\n      jumpi\n        /* \"#utility.yul\":22715:22724   */\n      dup5\n        /* \"#utility.yul\":22710:22713   */\n      dup10\n        /* \"#utility.yul\":22706:22725   */\n      add\n        /* \"#utility.yul\":22700:22726   */\n      mload\n        /* \"#utility.yul\":22692:22698   */\n      dup3\n        /* \"#utility.yul\":22685:22727   */\n      sstore\n        /* \"#utility.yul\":22766:22767   */\n      0x01\n        /* \"#utility.yul\":22758:22764   */\n      dup3\n        /* \"#utility.yul\":22754:22768   */\n      add\n        /* \"#utility.yul\":22744:22768   */\n      swap2\n      pop\n        /* \"#utility.yul\":22813:22815   */\n      0x20\n        /* \"#utility.yul\":22802:22811   */\n      dup6\n        /* \"#utility.yul\":22798:22816   */\n      add\n        /* \"#utility.yul\":22785:22816   */\n      swap5\n      pop\n        /* \"#utility.yul\":22659:22663   */\n      0x20\n        /* \"#utility.yul\":22656:22657   */\n      dup2\n        /* \"#utility.yul\":22652:22664   */\n      add\n        /* \"#utility.yul\":22647:22664   */\n      swap1\n      pop\n        /* \"#utility.yul\":22622:22830   */\n      jump(tag_412)\n    tag_414:\n        /* \"#utility.yul\":22858:22864   */\n      dup7\n        /* \"#utility.yul\":22849:22856   */\n      dup4\n        /* \"#utility.yul\":22846:22865   */\n      lt\n        /* \"#utility.yul\":22843:23022   */\n      iszero\n      tag_415\n      jumpi\n        /* \"#utility.yul\":22916:22925   */\n      dup5\n        /* \"#utility.yul\":22911:22914   */\n      dup10\n        /* \"#utility.yul\":22907:22926   */\n      add\n        /* \"#utility.yul\":22901:22927   */\n      mload\n        /* \"#utility.yul\":22959:23007   */\n      tag_416\n        /* \"#utility.yul\":23001:23005   */\n      0x1f\n        /* \"#utility.yul\":22993:22999   */\n      dup10\n        /* \"#utility.yul\":22989:23006   */\n      and\n        /* \"#utility.yul\":22978:22987   */\n      dup3\n        /* \"#utility.yul\":22959:23007   */\n      tag_186\n      jump\t// in\n    tag_416:\n        /* \"#utility.yul\":22951:22957   */\n      dup4\n        /* \"#utility.yul\":22944:23008   */\n      sstore\n        /* \"#utility.yul\":22866:23022   */\n      pop\n        /* \"#utility.yul\":22843:23022   */\n    tag_415:\n        /* \"#utility.yul\":23068:23069   */\n      0x01\n        /* \"#utility.yul\":23064:23065   */\n      0x02\n        /* \"#utility.yul\":23056:23062   */\n      dup9\n        /* \"#utility.yul\":23052:23066   */\n      mul\n        /* \"#utility.yul\":23048:23070   */\n      add\n        /* \"#utility.yul\":23042:23046   */\n      dup9\n        /* \"#utility.yul\":23035:23071   */\n      sstore\n        /* \"#utility.yul\":22471:23081   */\n      pop\n      pop\n      pop\n        /* \"#utility.yul\":22434:23320   */\n    tag_407:\n      pop\n        /* \"#utility.yul\":22026:23326   */\n      pop\n      pop\n      pop\n        /* \"#utility.yul\":21936:23326   */\n      pop\n      pop\n      jump\t// out\n        /* \"#utility.yul\":23332:23478   */\n    tag_188:\n        /* \"#utility.yul\":23429:23435   */\n      dup3\n        /* \"#utility.yul\":23424:23427   */\n      dup2\n        /* \"#utility.yul\":23419:23422   */\n      dup4\n        /* \"#utility.yul\":23406:23436   */\n      calldatacopy\n        /* \"#utility.yul\":23470:23471   */\n      0x00\n        /* \"#utility.yul\":23461:23467   */\n      dup4\n        /* \"#utility.yul\":23456:23459   */\n      dup4\n        /* \"#utility.yul\":23452:23468   */\n      add\n        /* \"#utility.yul\":23445:23472   */\n      mstore\n        /* \"#utility.yul\":23332:23478   */\n      pop\n      pop\n      pop\n      jump\t// out\n        /* \"#utility.yul\":23506:23820   */\n    tag_189:\n        /* \"#utility.yul\":23602:23605   */\n      0x00\n        /* \"#utility.yul\":23623:23693   */\n      tag_419\n        /* \"#utility.yul\":23686:23692   */\n      dup4\n        /* \"#utility.yul\":23681:23684   */\n      dup6\n        /* \"#utility.yul\":23623:23693   */\n      tag_152\n      jump\t// in\n    tag_419:\n        /* \"#utility.yul\":23616:23693   */\n      swap4\n      pop\n        /* \"#utility.yul\":23703:23759   */\n      tag_420\n        /* \"#utility.yul\":23752:23758   */\n      dup4\n        /* \"#utility.yul\":23747:23750   */\n      dup6\n        /* \"#utility.yul\":23740:23745   */\n      dup5\n        /* \"#utility.yul\":23703:23759   */\n      tag_188\n      jump\t// in\n    tag_420:\n        /* \"#utility.yul\":23784:23813   */\n      tag_421\n        /* \"#utility.yul\":23806:23812   */\n      dup4\n        /* \"#utility.yul\":23784:23813   */\n      tag_137\n      jump\t// in\n    tag_421:\n        /* \"#utility.yul\":23779:23782   */\n      dup5\n        /* \"#utility.yul\":23775:23814   */\n      add\n        /* \"#utility.yul\":23768:23814   */\n      swap1\n      pop\n        /* \"#utility.yul\":23506:23820   */\n      swap4\n      swap3\n      pop\n      pop\n      pop\n      jump\t// out\n        /* \"#utility.yul\":23826:24918   */\n    tag_113:\n        /* \"#utility.yul\":24139:24143   */\n      0x00\n        /* \"#utility.yul\":24177:24180   */\n      0xe0\n        /* \"#utility.yul\":24166:24175   */\n      dup3\n        /* \"#utility.yul\":24162:24181   */\n      add\n        /* \"#utility.yul\":24154:24181   */\n      swap1\n      pop\n        /* \"#utility.yul\":24227:24236   */\n      dup2\n        /* \"#utility.yul\":24221:24225   */\n      dup2\n        /* \"#utility.yul\":24217:24237   */\n      sub\n        /* \"#utility.yul\":24213:24214   */\n      0x00\n        /* \"#utility.yul\":24202:24211   */\n      dup4\n        /* \"#utility.yul\":24198:24215   */\n      add\n        /* \"#utility.yul\":24191:24238   */\n      mstore\n        /* \"#utility.yul\":24255:24341   */\n      tag_423\n        /* \"#utility.yul\":24336:24340   */\n      dup2\n        /* \"#utility.yul\":24327:24333   */\n      dup12\n        /* \"#utility.yul\":24319:24325   */\n      dup14\n        /* \"#utility.yul\":24255:24341   */\n      tag_189\n      jump\t// in\n    tag_423:\n        /* \"#utility.yul\":24247:24341   */\n      swap1\n      pop\n        /* \"#utility.yul\":24388:24397   */\n      dup2\n        /* \"#utility.yul\":24382:24386   */\n      dup2\n        /* \"#utility.yul\":24378:24398   */\n      sub\n        /* \"#utility.yul\":24373:24375   */\n      0x20\n        /* \"#utility.yul\":24362:24371   */\n      dup4\n        /* \"#utility.yul\":24358:24376   */\n      add\n        /* \"#utility.yul\":24351:24399   */\n      mstore\n        /* \"#utility.yul\":24416:24502   */\n      tag_424\n        /* \"#utility.yul\":24497:24501   */\n      dup2\n        /* \"#utility.yul\":24488:24494   */\n      dup10\n        /* \"#utility.yul\":24480:24486   */\n      dup12\n        /* \"#utility.yul\":24416:24502   */\n      tag_189\n      jump\t// in\n    tag_424:\n        /* \"#utility.yul\":24408:24502   */\n      swap1\n      pop\n        /* \"#utility.yul\":24512:24584   */\n      tag_425\n        /* \"#utility.yul\":24580:24582   */\n      0x40\n        /* \"#utility.yul\":24569:24578   */\n      dup4\n        /* \"#utility.yul\":24565:24583   */\n      add\n        /* \"#utility.yul\":24556:24562   */\n      dup9\n        /* \"#utility.yul\":24512:24584   */\n      tag_154\n      jump\t// in\n    tag_425:\n        /* \"#utility.yul\":24594:24666   */\n      tag_426\n        /* \"#utility.yul\":24662:24664   */\n      0x60\n        /* \"#utility.yul\":24651:24660   */\n      dup4\n        /* \"#utility.yul\":24647:24665   */\n      add\n        /* \"#utility.yul\":24638:24644   */\n      dup8\n        /* \"#utility.yul\":24594:24666   */\n      tag_154\n      jump\t// in\n    tag_426:\n        /* \"#utility.yul\":24676:24747   */\n      tag_427\n        /* \"#utility.yul\":24742:24745   */\n      0x80\n        /* \"#utility.yul\":24731:24740   */\n      dup4\n        /* \"#utility.yul\":24727:24746   */\n      add\n        /* \"#utility.yul\":24718:24724   */\n      dup7\n        /* \"#utility.yul\":24676:24747   */\n      tag_155\n      jump\t// in\n    tag_427:\n        /* \"#utility.yul\":24757:24828   */\n      tag_428\n        /* \"#utility.yul\":24823:24826   */\n      0xa0\n        /* \"#utility.yul\":24812:24821   */\n      dup4\n        /* \"#utility.yul\":24808:24827   */\n      add\n        /* \"#utility.yul\":24799:24805   */\n      dup6\n        /* \"#utility.yul\":24757:24828   */\n      tag_155\n      jump\t// in\n    tag_428:\n        /* \"#utility.yul\":24838:24911   */\n      tag_429\n        /* \"#utility.yul\":24906:24909   */\n      0xc0\n        /* \"#utility.yul\":24895:24904   */\n      dup4\n        /* \"#utility.yul\":24891:24910   */\n      add\n        /* \"#utility.yul\":24882:24888   */\n      dup5\n        /* \"#utility.yul\":24838:24911   */\n      tag_132\n      jump\t// in\n    tag_429:\n        /* \"#utility.yul\":23826:24918   */\n      swap11\n      swap10\n      pop\n      pop\n      pop\n      pop\n      pop\n      pop\n      pop\n      pop\n      pop\n      pop\n      jump\t// out\n\n    auxdata: 0xa2646970667358221220472494490faa019341092ba82eacb1488cfcc36eaf09abb910034451f2db524464736f6c63430008130033\n}\n",
				"bytecode": {
					"linkReferences": {},
					"object": "6080604052600160005534801561001557600080fd5b50611c3b806100256000396000f3fe608060405234801561001057600080fd5b506004361061007d5760003560e01c80639e9c191d1161005b5780639e9c191d14610112578063e10f28c714610148578063ed90c7b714610166578063ee7e7c99146101825761007d565b806321c6f9e5146100825780632e1f9763146100b257806383f95853146100e2575b600080fd5b61009c6004803603810190610097919061103c565b61019e565b6040516100a9919061108b565b60405180910390f35b6100cc60048036038101906100c791906110a6565b6101cf565b6040516100d9919061125f565b60405180910390f35b6100fc60048036038101906100f79190611281565b610456565b6040516101099190611413565b60405180910390f35b61012c600480360381019061012791906110a6565b61081d565b60405161013f97969594939291906114ac565b60405180910390f35b6101506109e7565b60405161015d91906115e7565b60405180910390f35b610180600480360381019061017b91906110a6565b610a7c565b005b61019c600480360381019061019791906116c6565b610b7d565b005b600360205281600052604060002081815481106101ba57600080fd5b90600052602060002001600091509150505481565b6101d7610ebe565b600260008381526020019081526020016000206040518060e00160405290816000820160009054906101000a900473ffffffffffffffffffffffffffffffffffffffff1673ffffffffffffffffffffffffffffffffffffffff1673ffffffffffffffffffffffffffffffffffffffff16815260200160018201805461025b906117c4565b80601f0160208091040260200160405190810160405280929190818152602001828054610287906117c4565b80156102d45780601f106102a9576101008083540402835291602001916102d4565b820191906000526020600020905b8154815290600101906020018083116102b757829003601f168201915b505050505081526020016002820180546102ed906117c4565b80601f0160208091040260200160405190810160405280929190818152602001828054610319906117c4565b80156103665780601f1061033b57610100808354040283529160200191610366565b820191906000526020600020905b81548152906001019060200180831161034957829003601f168201915b505050505081526020016003820160009054906101000a90046fffffffffffffffffffffffffffffffff166fffffffffffffffffffffffffffffffff166fffffffffffffffffffffffffffffffff1681526020016003820160109054906101000a90046fffffffffffffffffffffffffffffffff166fffffffffffffffffffffffffffffffff166fffffffffffffffffffffffffffffffff1681526020016004820160009054906101000a900463ffffffff1663ffffffff1663ffffffff1681526020016004820160049054906101000a900463ffffffff1663ffffffff1663ffffffff16815250509050919050565b60606000600360008473ffffffffffffffffffffffffffffffffffffffff1673ffffffffffffffffffffffffffffffffffffffff1681526020019081526020016000208054806020026020016040519081016040528092919081815260200182805480156104e357602002820191906000526020600020905b8154815260200190600101908083116104cf575b505050505090506000815167ffffffffffffffff811115610507576105066117f5565b5b60405190808252806020026020018201604052801561054057816020015b61052d610ebe565b8152602001906001900390816105255790505b50905060005b8251811015610812576002600084838151811061056657610565611824565b5b602002602001015181526020019081526020016000206040518060e00160405290816000820160009054906101000a900473ffffffffffffffffffffffffffffffffffffffff1673ffffffffffffffffffffffffffffffffffffffff1673ffffffffffffffffffffffffffffffffffffffff1681526020016001820180546105ed906117c4565b80601f0160208091040260200160405190810160405280929190818152602001828054610619906117c4565b80156106665780601f1061063b57610100808354040283529160200191610666565b820191906000526020600020905b81548152906001019060200180831161064957829003601f168201915b5050505050815260200160028201805461067f906117c4565b80601f01602080910402602001604051908101604052809291908181526020018280546106ab906117c4565b80156106f85780601f106106cd576101008083540402835291602001916106f8565b820191906000526020600020905b8154815290600101906020018083116106db57829003601f168201915b505050505081526020016003820160009054906101000a90046fffffffffffffffffffffffffffffffff166fffffffffffffffffffffffffffffffff166fffffffffffffffffffffffffffffffff1681526020016003820160109054906101000a90046fffffffffffffffffffffffffffffffff166fffffffffffffffffffffffffffffffff166fffffffffffffffffffffffffffffffff1681526020016004820160009054906101000a900463ffffffff1663ffffffff1663ffffffff1681526020016004820160049054906101000a900463ffffffff1663ffffffff1663ffffffff16815250508282815181106107f4576107f3611824565b5b6020026020010181905250808061080a90611882565b915050610546565b508092505050919050565b60026020528060005260406000206000915090508060000160009054906101000a900473ffffffffffffffffffffffffffffffffffffffff1690806001018054610866906117c4565b80601f0160208091040260200160405190810160405280929190818152602001828054610892906117c4565b80156108df5780601f106108b4576101008083540402835291602001916108df565b820191906000526020600020905b8154815290600101906020018083116108c257829003601f168201915b5050505050908060020180546108f4906117c4565b80601f0160208091040260200160405190810160405280929190818152602001828054610920906117c4565b801561096d5780601f106109425761010080835404028352916020019161096d565b820191906000526020600020905b81548152906001019060200180831161095057829003601f168201915b5050505050908060030160009054906101000a90046fffffffffffffffffffffffffffffffff16908060030160109054906101000a90046fffffffffffffffffffffffffffffffff16908060040160009054906101000a900463ffffffff16908060040160049054906101000a900463ffffffff16905087565b6060600360003373ffffffffffffffffffffffffffffffffffffffff1673ffffffffffffffffffffffffffffffffffffffff168152602001908152602001600020805480602002602001604051908101604052809291908181526020018280548015610a7257602002820191906000526020600020905b815481526020019060010190808311610a5e575b5050505050905090565b60026000828152602001908152602001600020600080820160006101000a81549073ffffffffffffffffffffffffffffffffffffffff0219169055600182016000610ac79190610f41565b600282016000610ad79190610f41565b6003820160006101000a8154906fffffffffffffffffffffffffffffffff02191690556003820160106101000a8154906fffffffffffffffffffffffffffffffff02191690556004820160006101000a81549063ffffffff02191690556004820160046101000a81549063ffffffff02191690555050807f6c1a4e746947a5049a6693a4875a10617826c8361c631cac61717e141185fdd260405160405180910390a250565b6040518060e001604052803373ffffffffffffffffffffffffffffffffffffffff16815260200189898080601f016020809104026020016040519081016040528093929190818152602001838380828437600081840152601f19601f82011690508083019250505050505050815260200187878080601f016020809104026020016040519081016040528093929190818152602001838380828437600081840152601f19601f820116905080830192505050505050508152602001856fffffffffffffffffffffffffffffffff168152602001846fffffffffffffffffffffffffffffffff1681526020018363ffffffff1681526020018263ffffffff16815250600260008054815260200190815260200160002060008201518160000160006101000a81548173ffffffffffffffffffffffffffffffffffffffff021916908373ffffffffffffffffffffffffffffffffffffffff1602179055506020820151816001019081610cee9190611a76565b506040820151816002019081610d049190611a76565b5060608201518160030160006101000a8154816fffffffffffffffffffffffffffffffff02191690836fffffffffffffffffffffffffffffffff16021790555060808201518160030160106101000a8154816fffffffffffffffffffffffffffffffff02191690836fffffffffffffffffffffffffffffffff16021790555060a08201518160040160006101000a81548163ffffffff021916908363ffffffff16021790555060c08201518160040160046101000a81548163ffffffff021916908363ffffffff160217905550905050600360003373ffffffffffffffffffffffffffffffffffffffff1673ffffffffffffffffffffffffffffffffffffffff16815260200190815260200160002060005490806001815401808255809150506001900390600052602060002001600090919091909150553373ffffffffffffffffffffffffffffffffffffffff166000547fb544b666bf20d30fc9acbc75aee55e5847e8f95a49aa5d36b6dab734f0cbb3038a8a8a8a8a8a8a8a42604051610e9599989796959493929190611b84565b60405180910390a3600080815480929190610eaf90611882565b91905055505050505050505050565b6040518060e00160405280600073ffffffffffffffffffffffffffffffffffffffff168152602001606081526020016060815260200160006fffffffffffffffffffffffffffffffff16815260200160006fffffffffffffffffffffffffffffffff168152602001600063ffffffff168152602001600063ffffffff1681525090565b508054610f4d906117c4565b6000825580601f10610f5f5750610f7e565b601f016020900490600052602060002090810190610f7d9190610f81565b5b50565b5b80821115610f9a576000816000905550600101610f82565b5090565b600080fd5b600080fd5b600073ffffffffffffffffffffffffffffffffffffffff82169050919050565b6000610fd382610fa8565b9050919050565b610fe381610fc8565b8114610fee57600080fd5b50565b60008135905061100081610fda565b92915050565b6000819050919050565b61101981611006565b811461102457600080fd5b50565b60008135905061103681611010565b92915050565b6000806040838503121561105357611052610f9e565b5b600061106185828601610ff1565b925050602061107285828601611027565b9150509250929050565b61108581611006565b82525050565b60006020820190506110a0600083018461107c565b92915050565b6000602082840312156110bc576110bb610f9e565b5b60006110ca84828501611027565b91505092915050565b6110dc81610fc8565b82525050565b600081519050919050565b600082825260208201905092915050565b60005b8381101561111c578082015181840152602081019050611101565b60008484015250505050565b6000601f19601f8301169050919050565b6000611144826110e2565b61114e81856110ed565b935061115e8185602086016110fe565b61116781611128565b840191505092915050565b60006fffffffffffffffffffffffffffffffff82169050919050565b61119781611172565b82525050565b600063ffffffff82169050919050565b6111b68161119d565b82525050565b600060e0830160008301516111d460008601826110d3565b50602083015184820360208601526111ec8282611139565b915050604083015184820360408601526112068282611139565b915050606083015161121b606086018261118e565b50608083015161122e608086018261118e565b5060a083015161124160a08601826111ad565b5060c083015161125460c08601826111ad565b508091505092915050565b6000602082019050818103600083015261127981846111bc565b905092915050565b60006020828403121561129757611296610f9e565b5b60006112a584828501610ff1565b91505092915050565b600081519050919050565b600082825260208201905092915050565b6000819050602082019050919050565b600060e0830160008301516112f260008601826110d3565b506020830151848203602086015261130a8282611139565b915050604083015184820360408601526113248282611139565b9150506060830151611339606086018261118e565b50608083015161134c608086018261118e565b5060a083015161135f60a08601826111ad565b5060c083015161137260c08601826111ad565b508091505092915050565b600061138983836112da565b905092915050565b6000602082019050919050565b60006113a9826112ae565b6113b381856112b9565b9350836020820285016113c5856112ca565b8060005b8581101561140157848403895281516113e2858261137d565b94506113ed83611391565b925060208a019950506001810190506113c9565b50829750879550505050505092915050565b6000602082019050818103600083015261142d818461139e565b905092915050565b61143e81610fc8565b82525050565b600082825260208201905092915050565b6000611460826110e2565b61146a8185611444565b935061147a8185602086016110fe565b61148381611128565b840191505092915050565b61149781611172565b82525050565b6114a68161119d565b82525050565b600060e0820190506114c1600083018a611435565b81810360208301526114d38189611455565b905081810360408301526114e78188611455565b90506114f6606083018761148e565b611503608083018661148e565b61151060a083018561149d565b61151d60c083018461149d565b98975050505050505050565b600081519050919050565b600082825260208201905092915050565b6000819050602082019050919050565b61155e81611006565b82525050565b60006115708383611555565b60208301905092915050565b6000602082019050919050565b600061159482611529565b61159e8185611534565b93506115a983611545565b8060005b838110156115da5781516115c18882611564565b97506115cc8361157c565b9250506001810190506115ad565b5085935050505092915050565b600060208201905081810360008301526116018184611589565b905092915050565b600080fd5b600080fd5b600080fd5b60008083601f84011261162e5761162d611609565b5b8235905067ffffffffffffffff81111561164b5761164a61160e565b5b60208301915083600182028301111561166757611666611613565b5b9250929050565b61167781611172565b811461168257600080fd5b50565b6000813590506116948161166e565b92915050565b6116a38161119d565b81146116ae57600080fd5b50565b6000813590506116c08161169a565b92915050565b60008060008060008060008060c0898b0312156116e6576116e5610f9e565b5b600089013567ffffffffffffffff81111561170457611703610fa3565b5b6117108b828c01611618565b9850985050602089013567ffffffffffffffff81111561173357611732610fa3565b5b61173f8b828c01611618565b965096505060406117528b828c01611685565b94505060606117638b828c01611685565b93505060806117748b828c016116b1565b92505060a06117858b828c016116b1565b9150509295985092959890939650565b7f4e487b7100000000000000000000000000000000000000000000000000000000600052602260045260246000fd5b600060028204905060018216806117dc57607f821691505b6020821081036117ef576117ee611795565b5b50919050565b7f4e487b7100000000000000000000000000000000000000000000000000000000600052604160045260246000fd5b7f4e487b7100000000000000000000000000000000000000000000000000000000600052603260045260246000fd5b7f4e487b7100000000000000000000000000000000000000000000000000000000600052601160045260246000fd5b600061188d82611006565b91507fffffffffffffffffffffffffffffffffffffffffffffffffffffffffffffffff82036118bf576118be611853565b5b600182019050919050565b60008190508160005260206000209050919050565b60006020601f8301049050919050565b600082821b905092915050565b60006008830261192c7fffffffffffffffffffffffffffffffffffffffffffffffffffffffffffffffff826118ef565b61193686836118ef565b95508019841693508086168417925050509392505050565b6000819050919050565b600061197361196e61196984611006565b61194e565b611006565b9050919050565b6000819050919050565b61198d83611958565b6119a16119998261197a565b8484546118fc565b825550505050565b600090565b6119b66119a9565b6119c1818484611984565b505050565b5b818110156119e5576119da6000826119ae565b6001810190506119c7565b5050565b601f821115611a2a576119fb816118ca565b611a04846118df565b81016020851015611a13578190505b611a27611a1f856118df565b8301826119c6565b50505b505050565b600082821c905092915050565b6000611a4d60001984600802611a2f565b1980831691505092915050565b6000611a668383611a3c565b9150826002028217905092915050565b611a7f826110e2565b67ffffffffffffffff811115611a9857611a976117f5565b5b611aa282546117c4565b611aad8282856119e9565b600060209050601f831160018114611ae05760008415611ace578287015190505b611ad88582611a5a565b865550611b40565b601f198416611aee866118ca565b60005b82811015611b1657848901518255600182019150602085019450602081019050611af1565b86831015611b335784890151611b2f601f891682611a3c565b8355505b6001600288020188555050505b505050505050565b82818337600083830152505050565b6000611b638385611444565b9350611b70838584611b48565b611b7983611128565b840190509392505050565b600060e0820190508181036000830152611b9f818b8d611b57565b90508181036020830152611bb481898b611b57565b9050611bc3604083018861148e565b611bd0606083018761148e565b611bdd608083018661149d565b611bea60a083018561149d565b611bf760c083018461107c565b9a995050505050505050505056fea2646970667358221220472494490faa019341092ba82eacb1488cfcc36eaf09abb910034451f2db524464736f6c63430008130033",
					"opcodes": "PUSH1 0x80 PUSH1 0x40 MSTORE PUSH1 0x1 PUSH1 0x0 SSTORE CALLVALUE DUP1 ISZERO PUSH2 0x15 JUMPI PUSH1 0x0 DUP1 REVERT JUMPDEST POP PUSH2 0x1C3B DUP1 PUSH2 0x25 PUSH1 0x0 CODECOPY PUSH1 0x0 RETURN INVALID PUSH1 0x80 PUSH1 0x40 MSTORE CALLVALUE DUP1 ISZERO PUSH2 0x10 JUMPI PUSH1 0x0 DUP1 REVERT JUMPDEST POP PUSH1 0x4 CALLDATASIZE LT PUSH2 0x7D JUMPI PUSH1 0x0 CALLDATALOAD PUSH1 0xE0 SHR DUP1 PUSH4 0x9E9C191D GT PUSH2 0x5B JUMPI DUP1 PUSH4 0x9E9C191D EQ PUSH2 0x112 JUMPI DUP1 PUSH4 0xE10F28C7 EQ PUSH2 0x148 JUMPI DUP1 PUSH4 0xED90C7B7 EQ PUSH2 0x166 JUMPI DUP1 PUSH4 0xEE7E7C99 EQ PUSH2 0x182 JUMPI PUSH2 0x7D JUMP JUMPDEST DUP1 PUSH4 0x21C6F9E5 EQ PUSH2 0x82 JUMPI DUP1 PUSH4 0x2E1F9763 EQ PUSH2 0xB2 JUMPI DUP1 PUSH4 0x83F95853 EQ PUSH2 0xE2 JUMPI JUMPDEST PUSH1 0x0 DUP1 REVERT JUMPDEST PUSH2 0x9C PUSH1 0x4 DUP1 CALLDATASIZE SUB DUP2 ADD SWAP1 PUSH2 0x97 SWAP2 SWAP1 PUSH2 0x103C JUMP JUMPDEST PUSH2 0x19E JUMP JUMPDEST PUSH1 0x40 MLOAD PUSH2 0xA9 SWAP2 SWAP1 PUSH2 0x108B JUMP JUMPDEST PUSH1 0x40 MLOAD DUP1 SWAP2 SUB SWAP1 RETURN JUMPDEST PUSH2 0xCC PUSH1 0x4 DUP1 CALLDATASIZE SUB DUP2 ADD SWAP1 PUSH2 0xC7 SWAP2 SWAP1 PUSH2 0x10A6 JUMP JUMPDEST PUSH2 0x1CF JUMP JUMPDEST PUSH1 0x40 MLOAD PUSH2 0xD9 SWAP2 SWAP1 PUSH2 0x125F JUMP JUMPDEST PUSH1 0x40 MLOAD DUP1 SWAP2 SUB SWAP1 RETURN JUMPDEST PUSH2 0xFC PUSH1 0x4 DUP1 CALLDATASIZE SUB DUP2 ADD SWAP1 PUSH2 0xF7 SWAP2 SWAP1 PUSH2 0x1281 JUMP JUMPDEST PUSH2 0x456 JUMP JUMPDEST PUSH1 0x40 MLOAD PUSH2 0x109 SWAP2 SWAP1 PUSH2 0x1413 JUMP JUMPDEST PUSH1 0x40 MLOAD DUP1 SWAP2 SUB SWAP1 RETURN JUMPDEST PUSH2 0x12C PUSH1 0x4 DUP1 CALLDATASIZE SUB DUP2 ADD SWAP1 PUSH2 0x127 SWAP2 SWAP1 PUSH2 0x10A6 JUMP JUMPDEST PUSH2 0x81D JUMP JUMPDEST PUSH1 0x40 MLOAD PUSH2 0x13F SWAP8 SWAP7 SWAP6 SWAP5 SWAP4 SWAP3 SWAP2 SWAP1 PUSH2 0x14AC JUMP JUMPDEST PUSH1 0x40 MLOAD DUP1 SWAP2 SUB SWAP1 RETURN JUMPDEST PUSH2 0x150 PUSH2 0x9E7 JUMP JUMPDEST PUSH1 0x40 MLOAD PUSH2 0x15D SWAP2 SWAP1 PUSH2 0x15E7 JUMP JUMPDEST PUSH1 0x40 MLOAD DUP1 SWAP2 SUB SWAP1 RETURN JUMPDEST PUSH2 0x180 PUSH1 0x4 DUP1 CALLDATASIZE SUB DUP2 ADD SWAP1 PUSH2 0x17B SWAP2 SWAP1 PUSH2 0x10A6 JUMP JUMPDEST PUSH2 0xA7C JUMP JUMPDEST STOP JUMPDEST PUSH2 0x19C PUSH1 0x4 DUP1 CALLDATASIZE SUB DUP2 ADD SWAP1 PUSH2 0x197 SWAP2 SWAP1 PUSH2 0x16C6 JUMP JUMPDEST PUSH2 0xB7D JUMP JUMPDEST STOP JUMPDEST PUSH1 0x3 PUSH1 0x20 MSTORE DUP2 PUSH1 0x0 MSTORE PUSH1 0x40 PUSH1 0x0 KECCAK256 DUP2 DUP2 SLOAD DUP2 LT PUSH2 0x1BA JUMPI PUSH1 0x0 DUP1 REVERT JUMPDEST SWAP1 PUSH1 0x0 MSTORE PUSH1 0x20 PUSH1 0x0 KECCAK256 ADD PUSH1 0x0 SWAP2 POP SWAP2 POP POP SLOAD DUP2 JUMP JUMPDEST PUSH2 0x1D7 PUSH2 0xEBE JUMP JUMPDEST PUSH1 0x2 PUSH1 0x0 DUP4 DUP2 MSTORE PUSH1 0x20 ADD SWAP1 DUP2 MSTORE PUSH1 0x20 ADD PUSH1 0x0 KECCAK256 PUSH1 0x40 MLOAD DUP1 PUSH1 0xE0 ADD PUSH1 0x40 MSTORE SWAP1 DUP2 PUSH1 0x0 DUP3 ADD PUSH1 0x0 SWAP1 SLOAD SWAP1 PUSH2 0x100 EXP SWAP1 DIV PUSH20 0xFFFFFFFFFFFFFFFFFFFFFFFFFFFFFFFFFFFFFFFF AND PUSH20 0xFFFFFFFFFFFFFFFFFFFFFFFFFFFFFFFFFFFFFFFF AND PUSH20 0xFFFFFFFFFFFFFFFFFFFFFFFFFFFFFFFFFFFFFFFF AND DUP2 MSTORE PUSH1 0x20 ADD PUSH1 0x1 DUP3 ADD DUP1 SLOAD PUSH2 0x25B SWAP1 PUSH2 0x17C4 JUMP JUMPDEST DUP1 PUSH1 0x1F ADD PUSH1 0x20 DUP1 SWAP2 DIV MUL PUSH1 0x20 ADD PUSH1 0x40 MLOAD SWAP1 DUP2 ADD PUSH1 0x40 MSTORE DUP1 SWAP3 SWAP2 SWAP1 DUP2 DUP2 MSTORE PUSH1 0x20 ADD DUP3 DUP1 SLOAD PUSH2 0x287 SWAP1 PUSH2 0x17C4 JUMP JUMPDEST DUP1 ISZERO PUSH2 0x2D4 JUMPI DUP1 PUSH1 0x1F LT PUSH2 0x2A9 JUMPI PUSH2 0x100 DUP1 DUP4 SLOAD DIV MUL DUP4 MSTORE SWAP2 PUSH1 0x20 ADD SWAP2 PUSH2 0x2D4 JUMP JUMPDEST DUP3 ADD SWAP2 SWAP1 PUSH1 0x0 MSTORE PUSH1 0x20 PUSH1 0x0 KECCAK256 SWAP1 JUMPDEST DUP2 SLOAD DUP2 MSTORE SWAP1 PUSH1 0x1 ADD SWAP1 PUSH1 0x20 ADD DUP1 DUP4 GT PUSH2 0x2B7 JUMPI DUP3 SWAP1 SUB PUSH1 0x1F AND DUP3 ADD SWAP2 JUMPDEST POP POP POP POP POP DUP2 MSTORE PUSH1 0x20 ADD PUSH1 0x2 DUP3 ADD DUP1 SLOAD PUSH2 0x2ED SWAP1 PUSH2 0x17C4 JUMP JUMPDEST DUP1 PUSH1 0x1F ADD PUSH1 0x20 DUP1 SWAP2 DIV MUL PUSH1 0x20 ADD PUSH1 0x40 MLOAD SWAP1 DUP2 ADD PUSH1 0x40 MSTORE DUP1 SWAP3 SWAP2 SWAP1 DUP2 DUP2 MSTORE PUSH1 0x20 ADD DUP3 DUP1 SLOAD PUSH2 0x319 SWAP1 PUSH2 0x17C4 JUMP JUMPDEST DUP1 ISZERO PUSH2 0x366 JUMPI DUP1 PUSH1 0x1F LT PUSH2 0x33B JUMPI PUSH2 0x100 DUP1 DUP4 SLOAD DIV MUL DUP4 MSTORE SWAP2 PUSH1 0x20 ADD SWAP2 PUSH2 0x366 JUMP JUMPDEST DUP3 ADD SWAP2 SWAP1 PUSH1 0x0 MSTORE PUSH1 0x20 PUSH1 0x0 KECCAK256 SWAP1 JUMPDEST DUP2 SLOAD DUP2 MSTORE SWAP1 PUSH1 0x1 ADD SWAP1 PUSH1 0x20 ADD DUP1 DUP4 GT PUSH2 0x349 JUMPI DUP3 SWAP1 SUB PUSH1 0x1F AND DUP3 ADD SWAP2 JUMPDEST POP POP POP POP POP DUP2 MSTORE PUSH1 0x20 ADD PUSH1 0x3 DUP3 ADD PUSH1 0x0 SWAP1 SLOAD SWAP1 PUSH2 0x100 EXP SWAP1 DIV PUSH16 0xFFFFFFFFFFFFFFFFFFFFFFFFFFFFFFFF AND PUSH16 0xFFFFFFFFFFFFFFFFFFFFFFFFFFFFFFFF AND PUSH16 0xFFFFFFFFFFFFFFFFFFFFFFFFFFFFFFFF AND DUP2 MSTORE PUSH1 0x20 ADD PUSH1 0x3 DUP3 ADD PUSH1 0x10 SWAP1 SLOAD SWAP1 PUSH2 0x100 EXP SWAP1 DIV PUSH16 0xFFFFFFFFFFFFFFFFFFFFFFFFFFFFFFFF AND PUSH16 0xFFFFFFFFFFFFFFFFFFFFFFFFFFFFFFFF AND PUSH16 0xFFFFFFFFFFFFFFFFFFFFFFFFFFFFFFFF AND DUP2 MSTORE PUSH1 0x20 ADD PUSH1 0x4 DUP3 ADD PUSH1 0x0 SWAP1 SLOAD SWAP1 PUSH2 0x100 EXP SWAP1 DIV PUSH4 0xFFFFFFFF AND PUSH4 0xFFFFFFFF AND PUSH4 0xFFFFFFFF AND DUP2 MSTORE PUSH1 0x20 ADD PUSH1 0x4 DUP3 ADD PUSH1 0x4 SWAP1 SLOAD SWAP1 PUSH2 0x100 EXP SWAP1 DIV PUSH4 0xFFFFFFFF AND PUSH4 0xFFFFFFFF AND PUSH4 0xFFFFFFFF AND DUP2 MSTORE POP POP SWAP1 POP SWAP2 SWAP1 POP JUMP JUMPDEST PUSH1 0x60 PUSH1 0x0 PUSH1 0x3 PUSH1 0x0 DUP5 PUSH20 0xFFFFFFFFFFFFFFFFFFFFFFFFFFFFFFFFFFFFFFFF AND PUSH20 0xFFFFFFFFFFFFFFFFFFFFFFFFFFFFFFFFFFFFFFFF AND DUP2 MSTORE PUSH1 0x20 ADD SWAP1 DUP2 MSTORE PUSH1 0x20 ADD PUSH1 0x0 KECCAK256 DUP1 SLOAD DUP1 PUSH1 0x20 MUL PUSH1 0x20 ADD PUSH1 0x40 MLOAD SWAP1 DUP2 ADD PUSH1 0x40 MSTORE DUP1 SWAP3 SWAP2 SWAP1 DUP2 DUP2 MSTORE PUSH1 0x20 ADD DUP3 DUP1 SLOAD DUP1 ISZERO PUSH2 0x4E3 JUMPI PUSH1 0x20 MUL DUP3 ADD SWAP2 SWAP1 PUSH1 0x0 MSTORE PUSH1 0x20 PUSH1 0x0 KECCAK256 SWAP1 JUMPDEST DUP2 SLOAD DUP2 MSTORE PUSH1 0x20 ADD SWAP1 PUSH1 0x1 ADD SWAP1 DUP1 DUP4 GT PUSH2 0x4CF JUMPI JUMPDEST POP POP POP POP POP SWAP1 POP PUSH1 0x0 DUP2 MLOAD PUSH8 0xFFFFFFFFFFFFFFFF DUP2 GT ISZERO PUSH2 0x507 JUMPI PUSH2 0x506 PUSH2 0x17F5 JUMP JUMPDEST JUMPDEST PUSH1 0x40 MLOAD SWAP1 DUP1 DUP3 MSTORE DUP1 PUSH1 0x20 MUL PUSH1 0x20 ADD DUP3 ADD PUSH1 0x40 MSTORE DUP1 ISZERO PUSH2 0x540 JUMPI DUP2 PUSH1 0x20 ADD JUMPDEST PUSH2 0x52D PUSH2 0xEBE JUMP JUMPDEST DUP2 MSTORE PUSH1 0x20 ADD SWAP1 PUSH1 0x1 SWAP1 SUB SWAP1 DUP2 PUSH2 0x525 JUMPI SWAP1 POP JUMPDEST POP SWAP1 POP PUSH1 0x0 JUMPDEST DUP3 MLOAD DUP2 LT ISZERO PUSH2 0x812 JUMPI PUSH1 0x2 PUSH1 0x0 DUP5 DUP4 DUP2 MLOAD DUP2 LT PUSH2 0x566 JUMPI PUSH2 0x565 PUSH2 0x1824 JUMP JUMPDEST JUMPDEST PUSH1 0x20 MUL PUSH1 0x20 ADD ADD MLOAD DUP2 MSTORE PUSH1 0x20 ADD SWAP1 DUP2 MSTORE PUSH1 0x20 ADD PUSH1 0x0 KECCAK256 PUSH1 0x40 MLOAD DUP1 PUSH1 0xE0 ADD PUSH1 0x40 MSTORE SWAP1 DUP2 PUSH1 0x0 DUP3 ADD PUSH1 0x0 SWAP1 SLOAD SWAP1 PUSH2 0x100 EXP SWAP1 DIV PUSH20 0xFFFFFFFFFFFFFFFFFFFFFFFFFFFFFFFFFFFFFFFF AND PUSH20 0xFFFFFFFFFFFFFFFFFFFFFFFFFFFFFFFFFFFFFFFF AND PUSH20 0xFFFFFFFFFFFFFFFFFFFFFFFFFFFFFFFFFFFFFFFF AND DUP2 MSTORE PUSH1 0x20 ADD PUSH1 0x1 DUP3 ADD DUP1 SLOAD PUSH2 0x5ED SWAP1 PUSH2 0x17C4 JUMP JUMPDEST DUP1 PUSH1 0x1F ADD PUSH1 0x20 DUP1 SWAP2 DIV MUL PUSH1 0x20 ADD PUSH1 0x40 MLOAD SWAP1 DUP2 ADD PUSH1 0x40 MSTORE DUP1 SWAP3 SWAP2 SWAP1 DUP2 DUP2 MSTORE PUSH1 0x20 ADD DUP3 DUP1 SLOAD PUSH2 0x619 SWAP1 PUSH2 0x17C4 JUMP JUMPDEST DUP1 ISZERO PUSH2 0x666 JUMPI DUP1 PUSH1 0x1F LT PUSH2 0x63B JUMPI PUSH2 0x100 DUP1 DUP4 SLOAD DIV MUL DUP4 MSTORE SWAP2 PUSH1 0x20 ADD SWAP2 PUSH2 0x666 JUMP JUMPDEST DUP3 ADD SWAP2 SWAP1 PUSH1 0x0 MSTORE PUSH1 0x20 PUSH1 0x0 KECCAK256 SWAP1 JUMPDEST DUP2 SLOAD DUP2 MSTORE SWAP1 PUSH1 0x1 ADD SWAP1 PUSH1 0x20 ADD DUP1 DUP4 GT PUSH2 0x649 JUMPI DUP3 SWAP1 SUB PUSH1 0x1F AND DUP3 ADD SWAP2 JUMPDEST POP POP POP POP POP DUP2 MSTORE PUSH1 0x20 ADD PUSH1 0x2 DUP3 ADD DUP1 SLOAD PUSH2 0x67F SWAP1 PUSH2 0x17C4 JUMP JUMPDEST DUP1 PUSH1 0x1F ADD PUSH1 0x20 DUP1 SWAP2 DIV MUL PUSH1 0x20 ADD PUSH1 0x40 MLOAD SWAP1 DUP2 ADD PUSH1 0x40 MSTORE DUP1 SWAP3 SWAP2 SWAP1 DUP2 DUP2 MSTORE PUSH1 0x20 ADD DUP3 DUP1 SLOAD PUSH2 0x6AB SWAP1 PUSH2 0x17C4 JUMP JUMPDEST DUP1 ISZERO PUSH2 0x6F8 JUMPI DUP1 PUSH1 0x1F LT PUSH2 0x6CD JUMPI PUSH2 0x100 DUP1 DUP4 SLOAD DIV MUL DUP4 MSTORE SWAP2 PUSH1 0x20 ADD SWAP2 PUSH2 0x6F8 JUMP JUMPDEST DUP3 ADD SWAP2 SWAP1 PUSH1 0x0 MSTORE PUSH1 0x20 PUSH1 0x0 KECCAK256 SWAP1 JUMPDEST DUP2 SLOAD DUP2 MSTORE SWAP1 PUSH1 0x1 ADD SWAP1 PUSH1 0x20 ADD DUP1 DUP4 GT PUSH2 0x6DB JUMPI DUP3 SWAP1 SUB PUSH1 0x1F AND DUP3 ADD SWAP2 JUMPDEST POP POP POP POP POP DUP2 MSTORE PUSH1 0x20 ADD PUSH1 0x3 DUP3 ADD PUSH1 0x0 SWAP1 SLOAD SWAP1 PUSH2 0x100 EXP SWAP1 DIV PUSH16 0xFFFFFFFFFFFFFFFFFFFFFFFFFFFFFFFF AND PUSH16 0xFFFFFFFFFFFFFFFFFFFFFFFFFFFFFFFF AND PUSH16 0xFFFFFFFFFFFFFFFFFFFFFFFFFFFFFFFF AND DUP2 MSTORE PUSH1 0x20 ADD PUSH1 0x3 DUP3 ADD PUSH1 0x10 SWAP1 SLOAD SWAP1 PUSH2 0x100 EXP SWAP1 DIV PUSH16 0xFFFFFFFFFFFFFFFFFFFFFFFFFFFFFFFF AND PUSH16 0xFFFFFFFFFFFFFFFFFFFFFFFFFFFFFFFF AND PUSH16 0xFFFFFFFFFFFFFFFFFFFFFFFFFFFFFFFF AND DUP2 MSTORE PUSH1 0x20 ADD PUSH1 0x4 DUP3 ADD PUSH1 0x0 SWAP1 SLOAD SWAP1 PUSH2 0x100 EXP SWAP1 DIV PUSH4 0xFFFFFFFF AND PUSH4 0xFFFFFFFF AND PUSH4 0xFFFFFFFF AND DUP2 MSTORE PUSH1 0x20 ADD PUSH1 0x4 DUP3 ADD PUSH1 0x4 SWAP1 SLOAD SWAP1 PUSH2 0x100 EXP SWAP1 DIV PUSH4 0xFFFFFFFF AND PUSH4 0xFFFFFFFF AND PUSH4 0xFFFFFFFF AND DUP2 MSTORE POP POP DUP3 DUP3 DUP2 MLOAD DUP2 LT PUSH2 0x7F4 JUMPI PUSH2 0x7F3 PUSH2 0x1824 JUMP JUMPDEST JUMPDEST PUSH1 0x20 MUL PUSH1 0x20 ADD ADD DUP2 SWAP1 MSTORE POP DUP1 DUP1 PUSH2 0x80A SWAP1 PUSH2 0x1882 JUMP JUMPDEST SWAP2 POP POP PUSH2 0x546 JUMP JUMPDEST POP DUP1 SWAP3 POP POP POP SWAP2 SWAP1 POP JUMP JUMPDEST PUSH1 0x2 PUSH1 0x20 MSTORE DUP1 PUSH1 0x0 MSTORE PUSH1 0x40 PUSH1 0x0 KECCAK256 PUSH1 0x0 SWAP2 POP SWAP1 POP DUP1 PUSH1 0x0 ADD PUSH1 0x0 SWAP1 SLOAD SWAP1 PUSH2 0x100 EXP SWAP1 DIV PUSH20 0xFFFFFFFFFFFFFFFFFFFFFFFFFFFFFFFFFFFFFFFF AND SWAP1 DUP1 PUSH1 0x1 ADD DUP1 SLOAD PUSH2 0x866 SWAP1 PUSH2 0x17C4 JUMP JUMPDEST DUP1 PUSH1 0x1F ADD PUSH1 0x20 DUP1 SWAP2 DIV MUL PUSH1 0x20 ADD PUSH1 0x40 MLOAD SWAP1 DUP2 ADD PUSH1 0x40 MSTORE DUP1 SWAP3 SWAP2 SWAP1 DUP2 DUP2 MSTORE PUSH1 0x20 ADD DUP3 DUP1 SLOAD PUSH2 0x892 SWAP1 PUSH2 0x17C4 JUMP JUMPDEST DUP1 ISZERO PUSH2 0x8DF JUMPI DUP1 PUSH1 0x1F LT PUSH2 0x8B4 JUMPI PUSH2 0x100 DUP1 DUP4 SLOAD DIV MUL DUP4 MSTORE SWAP2 PUSH1 0x20 ADD SWAP2 PUSH2 0x8DF JUMP JUMPDEST DUP3 ADD SWAP2 SWAP1 PUSH1 0x0 MSTORE PUSH1 0x20 PUSH1 0x0 KECCAK256 SWAP1 JUMPDEST DUP2 SLOAD DUP2 MSTORE SWAP1 PUSH1 0x1 ADD SWAP1 PUSH1 0x20 ADD DUP1 DUP4 GT PUSH2 0x8C2 JUMPI DUP3 SWAP1 SUB PUSH1 0x1F AND DUP3 ADD SWAP2 JUMPDEST POP POP POP POP POP SWAP1 DUP1 PUSH1 0x2 ADD DUP1 SLOAD PUSH2 0x8F4 SWAP1 PUSH2 0x17C4 JUMP JUMPDEST DUP1 PUSH1 0x1F ADD PUSH1 0x20 DUP1 SWAP2 DIV MUL PUSH1 0x20 ADD PUSH1 0x40 MLOAD SWAP1 DUP2 ADD PUSH1 0x40 MSTORE DUP1 SWAP3 SWAP2 SWAP1 DUP2 DUP2 MSTORE PUSH1 0x20 ADD DUP3 DUP1 SLOAD PUSH2 0x920 SWAP1 PUSH2 0x17C4 JUMP JUMPDEST DUP1 ISZERO PUSH2 0x96D JUMPI DUP1 PUSH1 0x1F LT PUSH2 0x942 JUMPI PUSH2 0x100 DUP1 DUP4 SLOAD DIV MUL DUP4 MSTORE SWAP2 PUSH1 0x20 ADD SWAP2 PUSH2 0x96D JUMP JUMPDEST DUP3 ADD SWAP2 SWAP1 PUSH1 0x0 MSTORE PUSH1 0x20 PUSH1 0x0 KECCAK256 SWAP1 JUMPDEST DUP2 SLOAD DUP2 MSTORE SWAP1 PUSH1 0x1 ADD SWAP1 PUSH1 0x20 ADD DUP1 DUP4 GT PUSH2 0x950 JUMPI DUP3 SWAP1 SUB PUSH1 0x1F AND DUP3 ADD SWAP2 JUMPDEST POP POP POP POP POP SWAP1 DUP1 PUSH1 0x3 ADD PUSH1 0x0 SWAP1 SLOAD SWAP1 PUSH2 0x100 EXP SWAP1 DIV PUSH16 0xFFFFFFFFFFFFFFFFFFFFFFFFFFFFFFFF AND SWAP1 DUP1 PUSH1 0x3 ADD PUSH1 0x10 SWAP1 SLOAD SWAP1 PUSH2 0x100 EXP SWAP1 DIV PUSH16 0xFFFFFFFFFFFFFFFFFFFFFFFFFFFFFFFF AND SWAP1 DUP1 PUSH1 0x4 ADD PUSH1 0x0 SWAP1 SLOAD SWAP1 PUSH2 0x100 EXP SWAP1 DIV PUSH4 0xFFFFFFFF AND SWAP1 DUP1 PUSH1 0x4 ADD PUSH1 0x4 SWAP1 SLOAD SWAP1 PUSH2 0x100 EXP SWAP1 DIV PUSH4 0xFFFFFFFF AND SWAP1 POP DUP8 JUMP JUMPDEST PUSH1 0x60 PUSH1 0x3 PUSH1 0x0 CALLER PUSH20 0xFFFFFFFFFFFFFFFFFFFFFFFFFFFFFFFFFFFFFFFF AND PUSH20 0xFFFFFFFFFFFFFFFFFFFFFFFFFFFFFFFFFFFFFFFF AND DUP2 MSTORE PUSH1 0x20 ADD SWAP1 DUP2 MSTORE PUSH1 0x20 ADD PUSH1 0x0 KECCAK256 DUP1 SLOAD DUP1 PUSH1 0x20 MUL PUSH1 0x20 ADD PUSH1 0x40 MLOAD SWAP1 DUP2 ADD PUSH1 0x40 MSTORE DUP1 SWAP3 SWAP2 SWAP1 DUP2 DUP2 MSTORE PUSH1 0x20 ADD DUP3 DUP1 SLOAD DUP1 ISZERO PUSH2 0xA72 JUMPI PUSH1 0x20 MUL DUP3 ADD SWAP2 SWAP1 PUSH1 0x0 MSTORE PUSH1 0x20 PUSH1 0x0 KECCAK256 SWAP1 JUMPDEST DUP2 SLOAD DUP2 MSTORE PUSH1 0x20 ADD SWAP1 PUSH1 0x1 ADD SWAP1 DUP1 DUP4 GT PUSH2 0xA5E JUMPI JUMPDEST POP POP POP POP POP SWAP1 POP SWAP1 JUMP JUMPDEST PUSH1 0x2 PUSH1 0x0 DUP3 DUP2 MSTORE PUSH1 0x20 ADD SWAP1 DUP2 MSTORE PUSH1 0x20 ADD PUSH1 0x0 KECCAK256 PUSH1 0x0 DUP1 DUP3 ADD PUSH1 0x0 PUSH2 0x100 EXP DUP2 SLOAD SWAP1 PUSH20 0xFFFFFFFFFFFFFFFFFFFFFFFFFFFFFFFFFFFFFFFF MUL NOT AND SWAP1 SSTORE PUSH1 0x1 DUP3 ADD PUSH1 0x0 PUSH2 0xAC7 SWAP2 SWAP1 PUSH2 0xF41 JUMP JUMPDEST PUSH1 0x2 DUP3 ADD PUSH1 0x0 PUSH2 0xAD7 SWAP2 SWAP1 PUSH2 0xF41 JUMP JUMPDEST PUSH1 0x3 DUP3 ADD PUSH1 0x0 PUSH2 0x100 EXP DUP2 SLOAD SWAP1 PUSH16 0xFFFFFFFFFFFFFFFFFFFFFFFFFFFFFFFF MUL NOT AND SWAP1 SSTORE PUSH1 0x3 DUP3 ADD PUSH1 0x10 PUSH2 0x100 EXP DUP2 SLOAD SWAP1 PUSH16 0xFFFFFFFFFFFFFFFFFFFFFFFFFFFFFFFF MUL NOT AND SWAP1 SSTORE PUSH1 0x4 DUP3 ADD PUSH1 0x0 PUSH2 0x100 EXP DUP2 SLOAD SWAP1 PUSH4 0xFFFFFFFF MUL NOT AND SWAP1 SSTORE PUSH1 0x4 DUP3 ADD PUSH1 0x4 PUSH2 0x100 EXP DUP2 SLOAD SWAP1 PUSH4 0xFFFFFFFF MUL NOT AND SWAP1 SSTORE POP POP DUP1 PUSH32 0x6C1A4E746947A5049A6693A4875A10617826C8361C631CAC61717E141185FDD2 PUSH1 0x40 MLOAD PUSH1 0x40 MLOAD DUP1 SWAP2 SUB SWAP1 LOG2 POP JUMP JUMPDEST PUSH1 0x40 MLOAD DUP1 PUSH1 0xE0 ADD PUSH1 0x40 MSTORE DUP1 CALLER PUSH20 0xFFFFFFFFFFFFFFFFFFFFFFFFFFFFFFFFFFFFFFFF AND DUP2 MSTORE PUSH1 0x20 ADD DUP10 DUP10 DUP1 DUP1 PUSH1 0x1F ADD PUSH1 0x20 DUP1 SWAP2 DIV MUL PUSH1 0x20 ADD PUSH1 0x40 MLOAD SWAP1 DUP2 ADD PUSH1 0x40 MSTORE DUP1 SWAP4 SWAP3 SWAP2 SWAP1 DUP2 DUP2 MSTORE PUSH1 0x20 ADD DUP4 DUP4 DUP1 DUP3 DUP5 CALLDATACOPY PUSH1 0x0 DUP2 DUP5 ADD MSTORE PUSH1 0x1F NOT PUSH1 0x1F DUP3 ADD AND SWAP1 POP DUP1 DUP4 ADD SWAP3 POP POP POP POP POP POP POP DUP2 MSTORE PUSH1 0x20 ADD DUP8 DUP8 DUP1 DUP1 PUSH1 0x1F ADD PUSH1 0x20 DUP1 SWAP2 DIV MUL PUSH1 0x20 ADD PUSH1 0x40 MLOAD SWAP1 DUP2 ADD PUSH1 0x40 MSTORE DUP1 SWAP4 SWAP3 SWAP2 SWAP1 DUP2 DUP2 MSTORE PUSH1 0x20 ADD DUP4 DUP4 DUP1 DUP3 DUP5 CALLDATACOPY PUSH1 0x0 DUP2 DUP5 ADD MSTORE PUSH1 0x1F NOT PUSH1 0x1F DUP3 ADD AND SWAP1 POP DUP1 DUP4 ADD SWAP3 POP POP POP POP POP POP POP DUP2 MSTORE PUSH1 0x20 ADD DUP6 PUSH16 0xFFFFFFFFFFFFFFFFFFFFFFFFFFFFFFFF AND DUP2 MSTORE PUSH1 0x20 ADD DUP5 PUSH16 0xFFFFFFFFFFFFFFFFFFFFFFFFFFFFFFFF AND DUP2 MSTORE PUSH1 0x20 ADD DUP4 PUSH4 0xFFFFFFFF AND DUP2 MSTORE PUSH1 0x20 ADD DUP3 PUSH4 0xFFFFFFFF AND DUP2 MSTORE POP PUSH1 0x2 PUSH1 0x0 DUP1 SLOAD DUP2 MSTORE PUSH1 0x20 ADD SWAP1 DUP2 MSTORE PUSH1 0x20 ADD PUSH1 0x0 KECCAK256 PUSH1 0x0 DUP3 ADD MLOAD DUP2 PUSH1 0x0 ADD PUSH1 0x0 PUSH2 0x100 EXP DUP2 SLOAD DUP2 PUSH20 0xFFFFFFFFFFFFFFFFFFFFFFFFFFFFFFFFFFFFFFFF MUL NOT AND SWAP1 DUP4 PUSH20 0xFFFFFFFFFFFFFFFFFFFFFFFFFFFFFFFFFFFFFFFF AND MUL OR SWAP1 SSTORE POP PUSH1 0x20 DUP3 ADD MLOAD DUP2 PUSH1 0x1 ADD SWAP1 DUP2 PUSH2 0xCEE SWAP2 SWAP1 PUSH2 0x1A76 JUMP JUMPDEST POP PUSH1 0x40 DUP3 ADD MLOAD DUP2 PUSH1 0x2 ADD SWAP1 DUP2 PUSH2 0xD04 SWAP2 SWAP1 PUSH2 0x1A76 JUMP JUMPDEST POP PUSH1 0x60 DUP3 ADD MLOAD DUP2 PUSH1 0x3 ADD PUSH1 0x0 PUSH2 0x100 EXP DUP2 SLOAD DUP2 PUSH16 0xFFFFFFFFFFFFFFFFFFFFFFFFFFFFFFFF MUL NOT AND SWAP1 DUP4 PUSH16 0xFFFFFFFFFFFFFFFFFFFFFFFFFFFFFFFF AND MUL OR SWAP1 SSTORE POP PUSH1 0x80 DUP3 ADD MLOAD DUP2 PUSH1 0x3 ADD PUSH1 0x10 PUSH2 0x100 EXP DUP2 SLOAD DUP2 PUSH16 0xFFFFFFFFFFFFFFFFFFFFFFFFFFFFFFFF MUL NOT AND SWAP1 DUP4 PUSH16 0xFFFFFFFFFFFFFFFFFFFFFFFFFFFFFFFF AND MUL OR SWAP1 SSTORE POP PUSH1 0xA0 DUP3 ADD MLOAD DUP2 PUSH1 0x4 ADD PUSH1 0x0 PUSH2 0x100 EXP DUP2 SLOAD DUP2 PUSH4 0xFFFFFFFF MUL NOT AND SWAP1 DUP4 PUSH4 0xFFFFFFFF AND MUL OR SWAP1 SSTORE POP PUSH1 0xC0 DUP3 ADD MLOAD DUP2 PUSH1 0x4 ADD PUSH1 0x4 PUSH2 0x100 EXP DUP2 SLOAD DUP2 PUSH4 0xFFFFFFFF MUL NOT AND SWAP1 DUP4 PUSH4 0xFFFFFFFF AND MUL OR SWAP1 SSTORE POP SWAP1 POP POP PUSH1 0x3 PUSH1 0x0 CALLER PUSH20 0xFFFFFFFFFFFFFFFFFFFFFFFFFFFFFFFFFFFFFFFF AND PUSH20 0xFFFFFFFFFFFFFFFFFFFFFFFFFFFFFFFFFFFFFFFF AND DUP2 MSTORE PUSH1 0x20 ADD SWAP1 DUP2 MSTORE PUSH1 0x20 ADD PUSH1 0x0 KECCAK256 PUSH1 0x0 SLOAD SWAP1 DUP1 PUSH1 0x1 DUP2 SLOAD ADD DUP1 DUP3 SSTORE DUP1 SWAP2 POP POP PUSH1 0x1 SWAP1 SUB SWAP1 PUSH1 0x0 MSTORE PUSH1 0x20 PUSH1 0x0 KECCAK256 ADD PUSH1 0x0 SWAP1 SWAP2 SWAP1 SWAP2 SWAP1 SWAP2 POP SSTORE CALLER PUSH20 0xFFFFFFFFFFFFFFFFFFFFFFFFFFFFFFFFFFFFFFFF AND PUSH1 0x0 SLOAD PUSH32 0xB544B666BF20D30FC9ACBC75AEE55E5847E8F95A49AA5D36B6DAB734F0CBB303 DUP11 DUP11 DUP11 DUP11 DUP11 DUP11 DUP11 DUP11 TIMESTAMP PUSH1 0x40 MLOAD PUSH2 0xE95 SWAP10 SWAP9 SWAP8 SWAP7 SWAP6 SWAP5 SWAP4 SWAP3 SWAP2 SWAP1 PUSH2 0x1B84 JUMP JUMPDEST PUSH1 0x40 MLOAD DUP1 SWAP2 SUB SWAP1 LOG3 PUSH1 0x0 DUP1 DUP2 SLOAD DUP1 SWAP3 SWAP2 SWAP1 PUSH2 0xEAF SWAP1 PUSH2 0x1882 JUMP JUMPDEST SWAP2 SWAP1 POP SSTORE POP POP POP POP POP POP POP POP POP JUMP JUMPDEST PUSH1 0x40 MLOAD DUP1 PUSH1 0xE0 ADD PUSH1 0x40 MSTORE DUP1 PUSH1 0x0 PUSH20 0xFFFFFFFFFFFFFFFFFFFFFFFFFFFFFFFFFFFFFFFF AND DUP2 MSTORE PUSH1 0x20 ADD PUSH1 0x60 DUP2 MSTORE PUSH1 0x20 ADD PUSH1 0x60 DUP2 MSTORE PUSH1 0x20 ADD PUSH1 0x0 PUSH16 0xFFFFFFFFFFFFFFFFFFFFFFFFFFFFFFFF AND DUP2 MSTORE PUSH1 0x20 ADD PUSH1 0x0 PUSH16 0xFFFFFFFFFFFFFFFFFFFFFFFFFFFFFFFF AND DUP2 MSTORE PUSH1 0x20 ADD PUSH1 0x0 PUSH4 0xFFFFFFFF AND DUP2 MSTORE PUSH1 0x20 ADD PUSH1 0x0 PUSH4 0xFFFFFFFF AND DUP2 MSTORE POP SWAP1 JUMP JUMPDEST POP DUP1 SLOAD PUSH2 0xF4D SWAP1 PUSH2 0x17C4 JUMP JUMPDEST PUSH1 0x0 DUP3 SSTORE DUP1 PUSH1 0x1F LT PUSH2 0xF5F JUMPI POP PUSH2 0xF7E JUMP JUMPDEST PUSH1 0x1F ADD PUSH1 0x20 SWAP1 DIV SWAP1 PUSH1 0x0 MSTORE PUSH1 0x20 PUSH1 0x0 KECCAK256 SWAP1 DUP2 ADD SWAP1 PUSH2 0xF7D SWAP2 SWAP1 PUSH2 0xF81 JUMP JUMPDEST JUMPDEST POP JUMP JUMPDEST JUMPDEST DUP1 DUP3 GT ISZERO PUSH2 0xF9A JUMPI PUSH1 0x0 DUP2 PUSH1 0x0 SWAP1 SSTORE POP PUSH1 0x1 ADD PUSH2 0xF82 JUMP JUMPDEST POP SWAP1 JUMP JUMPDEST PUSH1 0x0 DUP1 REVERT JUMPDEST PUSH1 0x0 DUP1 REVERT JUMPDEST PUSH1 0x0 PUSH20 0xFFFFFFFFFFFFFFFFFFFFFFFFFFFFFFFFFFFFFFFF DUP3 AND SWAP1 POP SWAP2 SWAP1 POP JUMP JUMPDEST PUSH1 0x0 PUSH2 0xFD3 DUP3 PUSH2 0xFA8 JUMP JUMPDEST SWAP1 POP SWAP2 SWAP1 POP JUMP JUMPDEST PUSH2 0xFE3 DUP2 PUSH2 0xFC8 JUMP JUMPDEST DUP2 EQ PUSH2 0xFEE JUMPI PUSH1 0x0 DUP1 REVERT JUMPDEST POP JUMP JUMPDEST PUSH1 0x0 DUP2 CALLDATALOAD SWAP1 POP PUSH2 0x1000 DUP2 PUSH2 0xFDA JUMP JUMPDEST SWAP3 SWAP2 POP POP JUMP JUMPDEST PUSH1 0x0 DUP2 SWAP1 POP SWAP2 SWAP1 POP JUMP JUMPDEST PUSH2 0x1019 DUP2 PUSH2 0x1006 JUMP JUMPDEST DUP2 EQ PUSH2 0x1024 JUMPI PUSH1 0x0 DUP1 REVERT JUMPDEST POP JUMP JUMPDEST PUSH1 0x0 DUP2 CALLDATALOAD SWAP1 POP PUSH2 0x1036 DUP2 PUSH2 0x1010 JUMP JUMPDEST SWAP3 SWAP2 POP POP JUMP JUMPDEST PUSH1 0x0 DUP1 PUSH1 0x40 DUP4 DUP6 SUB SLT ISZERO PUSH2 0x1053 JUMPI PUSH2 0x1052 PUSH2 0xF9E JUMP JUMPDEST JUMPDEST PUSH1 0x0 PUSH2 0x1061 DUP6 DUP3 DUP7 ADD PUSH2 0xFF1 JUMP JUMPDEST SWAP3 POP POP PUSH1 0x20 PUSH2 0x1072 DUP6 DUP3 DUP7 ADD PUSH2 0x1027 JUMP JUMPDEST SWAP2 POP POP SWAP3 POP SWAP3 SWAP1 POP JUMP JUMPDEST PUSH2 0x1085 DUP2 PUSH2 0x1006 JUMP JUMPDEST DUP3 MSTORE POP POP JUMP JUMPDEST PUSH1 0x0 PUSH1 0x20 DUP3 ADD SWAP1 POP PUSH2 0x10A0 PUSH1 0x0 DUP4 ADD DUP5 PUSH2 0x107C JUMP JUMPDEST SWAP3 SWAP2 POP POP JUMP JUMPDEST PUSH1 0x0 PUSH1 0x20 DUP3 DUP5 SUB SLT ISZERO PUSH2 0x10BC JUMPI PUSH2 0x10BB PUSH2 0xF9E JUMP JUMPDEST JUMPDEST PUSH1 0x0 PUSH2 0x10CA DUP5 DUP3 DUP6 ADD PUSH2 0x1027 JUMP JUMPDEST SWAP2 POP POP SWAP3 SWAP2 POP POP JUMP JUMPDEST PUSH2 0x10DC DUP2 PUSH2 0xFC8 JUMP JUMPDEST DUP3 MSTORE POP POP JUMP JUMPDEST PUSH1 0x0 DUP2 MLOAD SWAP1 POP SWAP2 SWAP1 POP JUMP JUMPDEST PUSH1 0x0 DUP3 DUP3 MSTORE PUSH1 0x20 DUP3 ADD SWAP1 POP SWAP3 SWAP2 POP POP JUMP JUMPDEST PUSH1 0x0 JUMPDEST DUP4 DUP2 LT ISZERO PUSH2 0x111C JUMPI DUP1 DUP3 ADD MLOAD DUP2 DUP5 ADD MSTORE PUSH1 0x20 DUP2 ADD SWAP1 POP PUSH2 0x1101 JUMP JUMPDEST PUSH1 0x0 DUP5 DUP5 ADD MSTORE POP POP POP POP JUMP JUMPDEST PUSH1 0x0 PUSH1 0x1F NOT PUSH1 0x1F DUP4 ADD AND SWAP1 POP SWAP2 SWAP1 POP JUMP JUMPDEST PUSH1 0x0 PUSH2 0x1144 DUP3 PUSH2 0x10E2 JUMP JUMPDEST PUSH2 0x114E DUP2 DUP6 PUSH2 0x10ED JUMP JUMPDEST SWAP4 POP PUSH2 0x115E DUP2 DUP6 PUSH1 0x20 DUP7 ADD PUSH2 0x10FE JUMP JUMPDEST PUSH2 0x1167 DUP2 PUSH2 0x1128 JUMP JUMPDEST DUP5 ADD SWAP2 POP POP SWAP3 SWAP2 POP POP JUMP JUMPDEST PUSH1 0x0 PUSH16 0xFFFFFFFFFFFFFFFFFFFFFFFFFFFFFFFF DUP3 AND SWAP1 POP SWAP2 SWAP1 POP JUMP JUMPDEST PUSH2 0x1197 DUP2 PUSH2 0x1172 JUMP JUMPDEST DUP3 MSTORE POP POP JUMP JUMPDEST PUSH1 0x0 PUSH4 0xFFFFFFFF DUP3 AND SWAP1 POP SWAP2 SWAP1 POP JUMP JUMPDEST PUSH2 0x11B6 DUP2 PUSH2 0x119D JUMP JUMPDEST DUP3 MSTORE POP POP JUMP JUMPDEST PUSH1 0x0 PUSH1 0xE0 DUP4 ADD PUSH1 0x0 DUP4 ADD MLOAD PUSH2 0x11D4 PUSH1 0x0 DUP7 ADD DUP3 PUSH2 0x10D3 JUMP JUMPDEST POP PUSH1 0x20 DUP4 ADD MLOAD DUP5 DUP3 SUB PUSH1 0x20 DUP7 ADD MSTORE PUSH2 0x11EC DUP3 DUP3 PUSH2 0x1139 JUMP JUMPDEST SWAP2 POP POP PUSH1 0x40 DUP4 ADD MLOAD DUP5 DUP3 SUB PUSH1 0x40 DUP7 ADD MSTORE PUSH2 0x1206 DUP3 DUP3 PUSH2 0x1139 JUMP JUMPDEST SWAP2 POP POP PUSH1 0x60 DUP4 ADD MLOAD PUSH2 0x121B PUSH1 0x60 DUP7 ADD DUP3 PUSH2 0x118E JUMP JUMPDEST POP PUSH1 0x80 DUP4 ADD MLOAD PUSH2 0x122E PUSH1 0x80 DUP7 ADD DUP3 PUSH2 0x118E JUMP JUMPDEST POP PUSH1 0xA0 DUP4 ADD MLOAD PUSH2 0x1241 PUSH1 0xA0 DUP7 ADD DUP3 PUSH2 0x11AD JUMP JUMPDEST POP PUSH1 0xC0 DUP4 ADD MLOAD PUSH2 0x1254 PUSH1 0xC0 DUP7 ADD DUP3 PUSH2 0x11AD JUMP JUMPDEST POP DUP1 SWAP2 POP POP SWAP3 SWAP2 POP POP JUMP JUMPDEST PUSH1 0x0 PUSH1 0x20 DUP3 ADD SWAP1 POP DUP2 DUP2 SUB PUSH1 0x0 DUP4 ADD MSTORE PUSH2 0x1279 DUP2 DUP5 PUSH2 0x11BC JUMP JUMPDEST SWAP1 POP SWAP3 SWAP2 POP POP JUMP JUMPDEST PUSH1 0x0 PUSH1 0x20 DUP3 DUP5 SUB SLT ISZERO PUSH2 0x1297 JUMPI PUSH2 0x1296 PUSH2 0xF9E JUMP JUMPDEST JUMPDEST PUSH1 0x0 PUSH2 0x12A5 DUP5 DUP3 DUP6 ADD PUSH2 0xFF1 JUMP JUMPDEST SWAP2 POP POP SWAP3 SWAP2 POP POP JUMP JUMPDEST PUSH1 0x0 DUP2 MLOAD SWAP1 POP SWAP2 SWAP1 POP JUMP JUMPDEST PUSH1 0x0 DUP3 DUP3 MSTORE PUSH1 0x20 DUP3 ADD SWAP1 POP SWAP3 SWAP2 POP POP JUMP JUMPDEST PUSH1 0x0 DUP2 SWAP1 POP PUSH1 0x20 DUP3 ADD SWAP1 POP SWAP2 SWAP1 POP JUMP JUMPDEST PUSH1 0x0 PUSH1 0xE0 DUP4 ADD PUSH1 0x0 DUP4 ADD MLOAD PUSH2 0x12F2 PUSH1 0x0 DUP7 ADD DUP3 PUSH2 0x10D3 JUMP JUMPDEST POP PUSH1 0x20 DUP4 ADD MLOAD DUP5 DUP3 SUB PUSH1 0x20 DUP7 ADD MSTORE PUSH2 0x130A DUP3 DUP3 PUSH2 0x1139 JUMP JUMPDEST SWAP2 POP POP PUSH1 0x40 DUP4 ADD MLOAD DUP5 DUP3 SUB PUSH1 0x40 DUP7 ADD MSTORE PUSH2 0x1324 DUP3 DUP3 PUSH2 0x1139 JUMP JUMPDEST SWAP2 POP POP PUSH1 0x60 DUP4 ADD MLOAD PUSH2 0x1339 PUSH1 0x60 DUP7 ADD DUP3 PUSH2 0x118E JUMP JUMPDEST POP PUSH1 0x80 DUP4 ADD MLOAD PUSH2 0x134C PUSH1 0x80 DUP7 ADD DUP3 PUSH2 0x118E JUMP JUMPDEST POP PUSH1 0xA0 DUP4 ADD MLOAD PUSH2 0x135F PUSH1 0xA0 DUP7 ADD DUP3 PUSH2 0x11AD JUMP JUMPDEST POP PUSH1 0xC0 DUP4 ADD MLOAD PUSH2 0x1372 PUSH1 0xC0 DUP7 ADD DUP3 PUSH2 0x11AD JUMP JUMPDEST POP DUP1 SWAP2 POP POP SWAP3 SWAP2 POP POP JUMP JUMPDEST PUSH1 0x0 PUSH2 0x1389 DUP4 DUP4 PUSH2 0x12DA JUMP JUMPDEST SWAP1 POP SWAP3 SWAP2 POP POP JUMP JUMPDEST PUSH1 0x0 PUSH1 0x20 DUP3 ADD SWAP1 POP SWAP2 SWAP1 POP JUMP JUMPDEST PUSH1 0x0 PUSH2 0x13A9 DUP3 PUSH2 0x12AE JUMP JUMPDEST PUSH2 0x13B3 DUP2 DUP6 PUSH2 0x12B9 JUMP JUMPDEST SWAP4 POP DUP4 PUSH1 0x20 DUP3 MUL DUP6 ADD PUSH2 0x13C5 DUP6 PUSH2 0x12CA JUMP JUMPDEST DUP1 PUSH1 0x0 JUMPDEST DUP6 DUP2 LT ISZERO PUSH2 0x1401 JUMPI DUP5 DUP5 SUB DUP10 MSTORE DUP2 MLOAD PUSH2 0x13E2 DUP6 DUP3 PUSH2 0x137D JUMP JUMPDEST SWAP5 POP PUSH2 0x13ED DUP4 PUSH2 0x1391 JUMP JUMPDEST SWAP3 POP PUSH1 0x20 DUP11 ADD SWAP10 POP POP PUSH1 0x1 DUP2 ADD SWAP1 POP PUSH2 0x13C9 JUMP JUMPDEST POP DUP3 SWAP8 POP DUP8 SWAP6 POP POP POP POP POP POP SWAP3 SWAP2 POP POP JUMP JUMPDEST PUSH1 0x0 PUSH1 0x20 DUP3 ADD SWAP1 POP DUP2 DUP2 SUB PUSH1 0x0 DUP4 ADD MSTORE PUSH2 0x142D DUP2 DUP5 PUSH2 0x139E JUMP JUMPDEST SWAP1 POP SWAP3 SWAP2 POP POP JUMP JUMPDEST PUSH2 0x143E DUP2 PUSH2 0xFC8 JUMP JUMPDEST DUP3 MSTORE POP POP JUMP JUMPDEST PUSH1 0x0 DUP3 DUP3 MSTORE PUSH1 0x20 DUP3 ADD SWAP1 POP SWAP3 SWAP2 POP POP JUMP JUMPDEST PUSH1 0x0 PUSH2 0x1460 DUP3 PUSH2 0x10E2 JUMP JUMPDEST PUSH2 0x146A DUP2 DUP6 PUSH2 0x1444 JUMP JUMPDEST SWAP4 POP PUSH2 0x147A DUP2 DUP6 PUSH1 0x20 DUP7 ADD PUSH2 0x10FE JUMP JUMPDEST PUSH2 0x1483 DUP2 PUSH2 0x1128 JUMP JUMPDEST DUP5 ADD SWAP2 POP POP SWAP3 SWAP2 POP POP JUMP JUMPDEST PUSH2 0x1497 DUP2 PUSH2 0x1172 JUMP JUMPDEST DUP3 MSTORE POP POP JUMP JUMPDEST PUSH2 0x14A6 DUP2 PUSH2 0x119D JUMP JUMPDEST DUP3 MSTORE POP POP JUMP JUMPDEST PUSH1 0x0 PUSH1 0xE0 DUP3 ADD SWAP1 POP PUSH2 0x14C1 PUSH1 0x0 DUP4 ADD DUP11 PUSH2 0x1435 JUMP JUMPDEST DUP2 DUP2 SUB PUSH1 0x20 DUP4 ADD MSTORE PUSH2 0x14D3 DUP2 DUP10 PUSH2 0x1455 JUMP JUMPDEST SWAP1 POP DUP2 DUP2 SUB PUSH1 0x40 DUP4 ADD MSTORE PUSH2 0x14E7 DUP2 DUP9 PUSH2 0x1455 JUMP JUMPDEST SWAP1 POP PUSH2 0x14F6 PUSH1 0x60 DUP4 ADD DUP8 PUSH2 0x148E JUMP JUMPDEST PUSH2 0x1503 PUSH1 0x80 DUP4 ADD DUP7 PUSH2 0x148E JUMP JUMPDEST PUSH2 0x1510 PUSH1 0xA0 DUP4 ADD DUP6 PUSH2 0x149D JUMP JUMPDEST PUSH2 0x151D PUSH1 0xC0 DUP4 ADD DUP5 PUSH2 0x149D JUMP JUMPDEST SWAP9 SWAP8 POP POP POP POP POP POP POP POP JUMP JUMPDEST PUSH1 0x0 DUP2 MLOAD SWAP1 POP SWAP2 SWAP1 POP JUMP JUMPDEST PUSH1 0x0 DUP3 DUP3 MSTORE PUSH1 0x20 DUP3 ADD SWAP1 POP SWAP3 SWAP2 POP POP JUMP JUMPDEST PUSH1 0x0 DUP2 SWAP1 POP PUSH1 0x20 DUP3 ADD SWAP1 POP SWAP2 SWAP1 POP JUMP JUMPDEST PUSH2 0x155E DUP2 PUSH2 0x1006 JUMP JUMPDEST DUP3 MSTORE POP POP JUMP JUMPDEST PUSH1 0x0 PUSH2 0x1570 DUP4 DUP4 PUSH2 0x1555 JUMP JUMPDEST PUSH1 0x20 DUP4 ADD SWAP1 POP SWAP3 SWAP2 POP POP JUMP JUMPDEST PUSH1 0x0 PUSH1 0x20 DUP3 ADD SWAP1 POP SWAP2 SWAP1 POP JUMP JUMPDEST PUSH1 0x0 PUSH2 0x1594 DUP3 PUSH2 0x1529 JUMP JUMPDEST PUSH2 0x159E DUP2 DUP6 PUSH2 0x1534 JUMP JUMPDEST SWAP4 POP PUSH2 0x15A9 DUP4 PUSH2 0x1545 JUMP JUMPDEST DUP1 PUSH1 0x0 JUMPDEST DUP4 DUP2 LT ISZERO PUSH2 0x15DA JUMPI DUP2 MLOAD PUSH2 0x15C1 DUP9 DUP3 PUSH2 0x1564 JUMP JUMPDEST SWAP8 POP PUSH2 0x15CC DUP4 PUSH2 0x157C JUMP JUMPDEST SWAP3 POP POP PUSH1 0x1 DUP2 ADD SWAP1 POP PUSH2 0x15AD JUMP JUMPDEST POP DUP6 SWAP4 POP POP POP POP SWAP3 SWAP2 POP POP JUMP JUMPDEST PUSH1 0x0 PUSH1 0x20 DUP3 ADD SWAP1 POP DUP2 DUP2 SUB PUSH1 0x0 DUP4 ADD MSTORE PUSH2 0x1601 DUP2 DUP5 PUSH2 0x1589 JUMP JUMPDEST SWAP1 POP SWAP3 SWAP2 POP POP JUMP JUMPDEST PUSH1 0x0 DUP1 REVERT JUMPDEST PUSH1 0x0 DUP1 REVERT JUMPDEST PUSH1 0x0 DUP1 REVERT JUMPDEST PUSH1 0x0 DUP1 DUP4 PUSH1 0x1F DUP5 ADD SLT PUSH2 0x162E JUMPI PUSH2 0x162D PUSH2 0x1609 JUMP JUMPDEST JUMPDEST DUP3 CALLDATALOAD SWAP1 POP PUSH8 0xFFFFFFFFFFFFFFFF DUP2 GT ISZERO PUSH2 0x164B JUMPI PUSH2 0x164A PUSH2 0x160E JUMP JUMPDEST JUMPDEST PUSH1 0x20 DUP4 ADD SWAP2 POP DUP4 PUSH1 0x1 DUP3 MUL DUP4 ADD GT ISZERO PUSH2 0x1667 JUMPI PUSH2 0x1666 PUSH2 0x1613 JUMP JUMPDEST JUMPDEST SWAP3 POP SWAP3 SWAP1 POP JUMP JUMPDEST PUSH2 0x1677 DUP2 PUSH2 0x1172 JUMP JUMPDEST DUP2 EQ PUSH2 0x1682 JUMPI PUSH1 0x0 DUP1 REVERT JUMPDEST POP JUMP JUMPDEST PUSH1 0x0 DUP2 CALLDATALOAD SWAP1 POP PUSH2 0x1694 DUP2 PUSH2 0x166E JUMP JUMPDEST SWAP3 SWAP2 POP POP JUMP JUMPDEST PUSH2 0x16A3 DUP2 PUSH2 0x119D JUMP JUMPDEST DUP2 EQ PUSH2 0x16AE JUMPI PUSH1 0x0 DUP1 REVERT JUMPDEST POP JUMP JUMPDEST PUSH1 0x0 DUP2 CALLDATALOAD SWAP1 POP PUSH2 0x16C0 DUP2 PUSH2 0x169A JUMP JUMPDEST SWAP3 SWAP2 POP POP JUMP JUMPDEST PUSH1 0x0 DUP1 PUSH1 0x0 DUP1 PUSH1 0x0 DUP1 PUSH1 0x0 DUP1 PUSH1 0xC0 DUP10 DUP12 SUB SLT ISZERO PUSH2 0x16E6 JUMPI PUSH2 0x16E5 PUSH2 0xF9E JUMP JUMPDEST JUMPDEST PUSH1 0x0 DUP10 ADD CALLDATALOAD PUSH8 0xFFFFFFFFFFFFFFFF DUP2 GT ISZERO PUSH2 0x1704 JUMPI PUSH2 0x1703 PUSH2 0xFA3 JUMP JUMPDEST JUMPDEST PUSH2 0x1710 DUP12 DUP3 DUP13 ADD PUSH2 0x1618 JUMP JUMPDEST SWAP9 POP SWAP9 POP POP PUSH1 0x20 DUP10 ADD CALLDATALOAD PUSH8 0xFFFFFFFFFFFFFFFF DUP2 GT ISZERO PUSH2 0x1733 JUMPI PUSH2 0x1732 PUSH2 0xFA3 JUMP JUMPDEST JUMPDEST PUSH2 0x173F DUP12 DUP3 DUP13 ADD PUSH2 0x1618 JUMP JUMPDEST SWAP7 POP SWAP7 POP POP PUSH1 0x40 PUSH2 0x1752 DUP12 DUP3 DUP13 ADD PUSH2 0x1685 JUMP JUMPDEST SWAP5 POP POP PUSH1 0x60 PUSH2 0x1763 DUP12 DUP3 DUP13 ADD PUSH2 0x1685 JUMP JUMPDEST SWAP4 POP POP PUSH1 0x80 PUSH2 0x1774 DUP12 DUP3 DUP13 ADD PUSH2 0x16B1 JUMP JUMPDEST SWAP3 POP POP PUSH1 0xA0 PUSH2 0x1785 DUP12 DUP3 DUP13 ADD PUSH2 0x16B1 JUMP JUMPDEST SWAP2 POP POP SWAP3 SWAP6 SWAP9 POP SWAP3 SWAP6 SWAP9 SWAP1 SWAP4 SWAP7 POP JUMP JUMPDEST PUSH32 0x4E487B7100000000000000000000000000000000000000000000000000000000 PUSH1 0x0 MSTORE PUSH1 0x22 PUSH1 0x4 MSTORE PUSH1 0x24 PUSH1 0x0 REVERT JUMPDEST PUSH1 0x0 PUSH1 0x2 DUP3 DIV SWAP1 POP PUSH1 0x1 DUP3 AND DUP1 PUSH2 0x17DC JUMPI PUSH1 0x7F DUP3 AND SWAP2 POP JUMPDEST PUSH1 0x20 DUP3 LT DUP2 SUB PUSH2 0x17EF JUMPI PUSH2 0x17EE PUSH2 0x1795 JUMP JUMPDEST JUMPDEST POP SWAP2 SWAP1 POP JUMP JUMPDEST PUSH32 0x4E487B7100000000000000000000000000000000000000000000000000000000 PUSH1 0x0 MSTORE PUSH1 0x41 PUSH1 0x4 MSTORE PUSH1 0x24 PUSH1 0x0 REVERT JUMPDEST PUSH32 0x4E487B7100000000000000000000000000000000000000000000000000000000 PUSH1 0x0 MSTORE PUSH1 0x32 PUSH1 0x4 MSTORE PUSH1 0x24 PUSH1 0x0 REVERT JUMPDEST PUSH32 0x4E487B7100000000000000000000000000000000000000000000000000000000 PUSH1 0x0 MSTORE PUSH1 0x11 PUSH1 0x4 MSTORE PUSH1 0x24 PUSH1 0x0 REVERT JUMPDEST PUSH1 0x0 PUSH2 0x188D DUP3 PUSH2 0x1006 JUMP JUMPDEST SWAP2 POP PUSH32 0xFFFFFFFFFFFFFFFFFFFFFFFFFFFFFFFFFFFFFFFFFFFFFFFFFFFFFFFFFFFFFFFF DUP3 SUB PUSH2 0x18BF JUMPI PUSH2 0x18BE PUSH2 0x1853 JUMP JUMPDEST JUMPDEST PUSH1 0x1 DUP3 ADD SWAP1 POP SWAP2 SWAP1 POP JUMP JUMPDEST PUSH1 0x0 DUP2 SWAP1 POP DUP2 PUSH1 0x0 MSTORE PUSH1 0x20 PUSH1 0x0 KECCAK256 SWAP1 POP SWAP2 SWAP1 POP JUMP JUMPDEST PUSH1 0x0 PUSH1 0x20 PUSH1 0x1F DUP4 ADD DIV SWAP1 POP SWAP2 SWAP1 POP JUMP JUMPDEST PUSH1 0x0 DUP3 DUP3 SHL SWAP1 POP SWAP3 SWAP2 POP POP JUMP JUMPDEST PUSH1 0x0 PUSH1 0x8 DUP4 MUL PUSH2 0x192C PUSH32 0xFFFFFFFFFFFFFFFFFFFFFFFFFFFFFFFFFFFFFFFFFFFFFFFFFFFFFFFFFFFFFFFF DUP3 PUSH2 0x18EF JUMP JUMPDEST PUSH2 0x1936 DUP7 DUP4 PUSH2 0x18EF JUMP JUMPDEST SWAP6 POP DUP1 NOT DUP5 AND SWAP4 POP DUP1 DUP7 AND DUP5 OR SWAP3 POP POP POP SWAP4 SWAP3 POP POP POP JUMP JUMPDEST PUSH1 0x0 DUP2 SWAP1 POP SWAP2 SWAP1 POP JUMP JUMPDEST PUSH1 0x0 PUSH2 0x1973 PUSH2 0x196E PUSH2 0x1969 DUP5 PUSH2 0x1006 JUMP JUMPDEST PUSH2 0x194E JUMP JUMPDEST PUSH2 0x1006 JUMP JUMPDEST SWAP1 POP SWAP2 SWAP1 POP JUMP JUMPDEST PUSH1 0x0 DUP2 SWAP1 POP SWAP2 SWAP1 POP JUMP JUMPDEST PUSH2 0x198D DUP4 PUSH2 0x1958 JUMP JUMPDEST PUSH2 0x19A1 PUSH2 0x1999 DUP3 PUSH2 0x197A JUMP JUMPDEST DUP5 DUP5 SLOAD PUSH2 0x18FC JUMP JUMPDEST DUP3 SSTORE POP POP POP POP JUMP JUMPDEST PUSH1 0x0 SWAP1 JUMP JUMPDEST PUSH2 0x19B6 PUSH2 0x19A9 JUMP JUMPDEST PUSH2 0x19C1 DUP2 DUP5 DUP5 PUSH2 0x1984 JUMP JUMPDEST POP POP POP JUMP JUMPDEST JUMPDEST DUP2 DUP2 LT ISZERO PUSH2 0x19E5 JUMPI PUSH2 0x19DA PUSH1 0x0 DUP3 PUSH2 0x19AE JUMP JUMPDEST PUSH1 0x1 DUP2 ADD SWAP1 POP PUSH2 0x19C7 JUMP JUMPDEST POP POP JUMP JUMPDEST PUSH1 0x1F DUP3 GT ISZERO PUSH2 0x1A2A JUMPI PUSH2 0x19FB DUP2 PUSH2 0x18CA JUMP JUMPDEST PUSH2 0x1A04 DUP5 PUSH2 0x18DF JUMP JUMPDEST DUP2 ADD PUSH1 0x20 DUP6 LT ISZERO PUSH2 0x1A13 JUMPI DUP2 SWAP1 POP JUMPDEST PUSH2 0x1A27 PUSH2 0x1A1F DUP6 PUSH2 0x18DF JUMP JUMPDEST DUP4 ADD DUP3 PUSH2 0x19C6 JUMP JUMPDEST POP POP JUMPDEST POP POP POP JUMP JUMPDEST PUSH1 0x0 DUP3 DUP3 SHR SWAP1 POP SWAP3 SWAP2 POP POP JUMP JUMPDEST PUSH1 0x0 PUSH2 0x1A4D PUSH1 0x0 NOT DUP5 PUSH1 0x8 MUL PUSH2 0x1A2F JUMP JUMPDEST NOT DUP1 DUP4 AND SWAP2 POP POP SWAP3 SWAP2 POP POP JUMP JUMPDEST PUSH1 0x0 PUSH2 0x1A66 DUP4 DUP4 PUSH2 0x1A3C JUMP JUMPDEST SWAP2 POP DUP3 PUSH1 0x2 MUL DUP3 OR SWAP1 POP SWAP3 SWAP2 POP POP JUMP JUMPDEST PUSH2 0x1A7F DUP3 PUSH2 0x10E2 JUMP JUMPDEST PUSH8 0xFFFFFFFFFFFFFFFF DUP2 GT ISZERO PUSH2 0x1A98 JUMPI PUSH2 0x1A97 PUSH2 0x17F5 JUMP JUMPDEST JUMPDEST PUSH2 0x1AA2 DUP3 SLOAD PUSH2 0x17C4 JUMP JUMPDEST PUSH2 0x1AAD DUP3 DUP3 DUP6 PUSH2 0x19E9 JUMP JUMPDEST PUSH1 0x0 PUSH1 0x20 SWAP1 POP PUSH1 0x1F DUP4 GT PUSH1 0x1 DUP2 EQ PUSH2 0x1AE0 JUMPI PUSH1 0x0 DUP5 ISZERO PUSH2 0x1ACE JUMPI DUP3 DUP8 ADD MLOAD SWAP1 POP JUMPDEST PUSH2 0x1AD8 DUP6 DUP3 PUSH2 0x1A5A JUMP JUMPDEST DUP7 SSTORE POP PUSH2 0x1B40 JUMP JUMPDEST PUSH1 0x1F NOT DUP5 AND PUSH2 0x1AEE DUP7 PUSH2 0x18CA JUMP JUMPDEST PUSH1 0x0 JUMPDEST DUP3 DUP2 LT ISZERO PUSH2 0x1B16 JUMPI DUP5 DUP10 ADD MLOAD DUP3 SSTORE PUSH1 0x1 DUP3 ADD SWAP2 POP PUSH1 0x20 DUP6 ADD SWAP5 POP PUSH1 0x20 DUP2 ADD SWAP1 POP PUSH2 0x1AF1 JUMP JUMPDEST DUP7 DUP4 LT ISZERO PUSH2 0x1B33 JUMPI DUP5 DUP10 ADD MLOAD PUSH2 0x1B2F PUSH1 0x1F DUP10 AND DUP3 PUSH2 0x1A3C JUMP JUMPDEST DUP4 SSTORE POP JUMPDEST PUSH1 0x1 PUSH1 0x2 DUP9 MUL ADD DUP9 SSTORE POP POP POP JUMPDEST POP POP POP POP POP POP JUMP JUMPDEST DUP3 DUP2 DUP4 CALLDATACOPY PUSH1 0x0 DUP4 DUP4 ADD MSTORE POP POP POP JUMP JUMPDEST PUSH1 0x0 PUSH2 0x1B63 DUP4 DUP6 PUSH2 0x1444 JUMP JUMPDEST SWAP4 POP PUSH2 0x1B70 DUP4 DUP6 DUP5 PUSH2 0x1B48 JUMP JUMPDEST PUSH2 0x1B79 DUP4 PUSH2 0x1128 JUMP JUMPDEST DUP5 ADD SWAP1 POP SWAP4 SWAP3 POP POP POP JUMP JUMPDEST PUSH1 0x0 PUSH1 0xE0 DUP3 ADD SWAP1 POP DUP2 DUP2 SUB PUSH1 0x0 DUP4 ADD MSTORE PUSH2 0x1B9F DUP2 DUP12 DUP14 PUSH2 0x1B57 JUMP JUMPDEST SWAP1 POP DUP2 DUP2 SUB PUSH1 0x20 DUP4 ADD MSTORE PUSH2 0x1BB4 DUP2 DUP10 DUP12 PUSH2 0x1B57 JUMP JUMPDEST SWAP1 POP PUSH2 0x1BC3 PUSH1 0x40 DUP4 ADD DUP9 PUSH2 0x148E JUMP JUMPDEST PUSH2 0x1BD0 PUSH1 0x60 DUP4 ADD DUP8 PUSH2 0x148E JUMP JUMPDEST PUSH2 0x1BDD PUSH1 0x80 DUP4 ADD DUP7 PUSH2 0x149D JUMP JUMPDEST PUSH2 0x1BEA PUSH1 0xA0 DUP4 ADD DUP6 PUSH2 0x149D JUMP JUMPDEST PUSH2 0x1BF7 PUSH1 0xC0 DUP4 ADD DUP5 PUSH2 0x107C JUMP JUMPDEST SWAP11 SWAP10 POP POP POP POP POP POP POP POP POP POP JUMP INVALID LOG2 PUSH5 0x6970667358 0x22 SLT KECCAK256 SELFBALANCE 0x24 SWAP5 0x49 0xF 0xAA ADD SWAP4 COINBASE MULMOD 0x2B 0xA8 0x2E 0xAC 0xB1 BASEFEE DUP13 0xFC 0xC3 PUSH15 0xAF09ABB910034451F2DB524464736F PUSH13 0x63430008130033000000000000 "
				},
				"gasEstimates": {
					"creation": {
						"codeDepositCost": "1445400",
						"executionCost": "23612",
						"totalCost": "1469012"
					},
					"external": {
						"addSupplierProduct(bytes,bytes,uint128,uint128,uint32,uint32)": "infinite",
						"addressToproductsIdMapping(address,uint256)": "infinite",
						"deleteProduct(uint256)": "infinite",
						"getAllProductsOfSupplier(address)": "infinite",
						"getSingleProduct(uint256)": "infinite",
						"getSupplierProductIds()": "infinite",
						"productsIdMappingToStructMapping(uint256)": "infinite"
					}
				},
				"methodIdentifiers": {
					"addSupplierProduct(bytes,bytes,uint128,uint128,uint32,uint32)": "ee7e7c99",
					"addressToproductsIdMapping(address,uint256)": "21c6f9e5",
					"deleteProduct(uint256)": "ed90c7b7",
					"getAllProductsOfSupplier(address)": "83f95853",
					"getSingleProduct(uint256)": "2e1f9763",
					"getSupplierProductIds()": "e10f28c7",
					"productsIdMappingToStructMapping(uint256)": "9e9c191d"
				}
			},
			"storageLayout": {
				"storage": [
					{
						"astId": 69,
						"contract": "contracts/supplierProduct.sol:supplierProduct",
						"label": "spId",
						"offset": 0,
						"slot": "0",
						"type": "t_uint256"
					},
					{
						"astId": 72,
						"contract": "contracts/supplierProduct.sol:supplierProduct",
						"label": "allProducts",
						"offset": 0,
						"slot": "1",
						"type": "t_array(t_uint256)dyn_storage"
					},
					{
						"astId": 77,
						"contract": "contracts/supplierProduct.sol:supplierProduct",
						"label": "productsIdMappingToStructMapping",
						"offset": 0,
						"slot": "2",
						"type": "t_mapping(t_uint256,t_struct(supplierProduct)16_storage)"
					},
					{
						"astId": 82,
						"contract": "contracts/supplierProduct.sol:supplierProduct",
						"label": "addressToproductsIdMapping",
						"offset": 0,
						"slot": "3",
						"type": "t_mapping(t_address,t_array(t_uint256)dyn_storage)"
					}
				],
				"types": {
					"t_address": {
						"encoding": "inplace",
						"label": "address",
						"numberOfBytes": "20"
					},
					"t_array(t_uint256)dyn_storage": {
						"base": "t_uint256",
						"encoding": "dynamic_array",
						"label": "uint256[]",
						"numberOfBytes": "32"
					},
					"t_bytes_storage": {
						"encoding": "bytes",
						"label": "bytes",
						"numberOfBytes": "32"
					},
					"t_mapping(t_address,t_array(t_uint256)dyn_storage)": {
						"encoding": "mapping",
						"key": "t_address",
						"label": "mapping(address => uint256[])",
						"numberOfBytes": "32",
						"value": "t_array(t_uint256)dyn_storage"
					},
					"t_mapping(t_uint256,t_struct(supplierProduct)16_storage)": {
						"encoding": "mapping",
						"key": "t_uint256",
						"label": "mapping(uint256 => struct ISupplierProduct.supplierProduct)",
						"numberOfBytes": "32",
						"value": "t_struct(supplierProduct)16_storage"
					},
					"t_struct(supplierProduct)16_storage": {
						"encoding": "inplace",
						"label": "struct ISupplierProduct.supplierProduct",
						"members": [
							{
								"astId": 3,
								"contract": "contracts/supplierProduct.sol:supplierProduct",
								"label": "supplierAddress",
								"offset": 0,
								"slot": "0",
								"type": "t_address"
							},
							{
								"astId": 5,
								"contract": "contracts/supplierProduct.sol:supplierProduct",
								"label": "sp_name",
								"offset": 0,
								"slot": "1",
								"type": "t_bytes_storage"
							},
							{
								"astId": 7,
								"contract": "contracts/supplierProduct.sol:supplierProduct",
								"label": "sp_description",
								"offset": 0,
								"slot": "2",
								"type": "t_bytes_storage"
							},
							{
								"astId": 9,
								"contract": "contracts/supplierProduct.sol:supplierProduct",
								"label": "sp_unit",
								"offset": 0,
								"slot": "3",
								"type": "t_uint128"
							},
							{
								"astId": 11,
								"contract": "contracts/supplierProduct.sol:supplierProduct",
								"label": "sp_price",
								"offset": 16,
								"slot": "3",
								"type": "t_uint128"
							},
							{
								"astId": 13,
								"contract": "contracts/supplierProduct.sol:supplierProduct",
								"label": "sp_date",
								"offset": 0,
								"slot": "4",
								"type": "t_uint32"
							},
							{
								"astId": 15,
								"contract": "contracts/supplierProduct.sol:supplierProduct",
								"label": "sp_expiryDate",
								"offset": 4,
								"slot": "4",
								"type": "t_uint32"
							}
						],
						"numberOfBytes": "160"
					},
					"t_uint128": {
						"encoding": "inplace",
						"label": "uint128",
						"numberOfBytes": "16"
					},
					"t_uint256": {
						"encoding": "inplace",
						"label": "uint256",
						"numberOfBytes": "32"
					},
					"t_uint32": {
						"encoding": "inplace",
						"label": "uint32",
						"numberOfBytes": "4"
					}
				}
			},
			"userdoc": {
				"kind": "user",
				"methods": {},
				"version": 1
			}
		}
	}
}