{
	"contracts/userDetails.sol": {
		"userDetails": {
			"abi": [
				{
					"inputs": [
						{
							"internalType": "enum IUserDetails.userType",
							"name": "_type",
							"type": "uint8"
						},
						{
							"internalType": "bytes",
							"name": "_name",
							"type": "bytes"
						},
						{
							"internalType": "bytes",
							"name": "_physicalAddress",
							"type": "bytes"
						},
						{
							"internalType": "bytes",
							"name": "_image",
							"type": "bytes"
						}
					],
					"name": "addUser",
					"outputs": [],
					"stateMutability": "nonpayable",
					"type": "function"
				},
				{
					"inputs": [
						{
							"internalType": "address",
							"name": "_address",
							"type": "address"
						}
					],
					"name": "deleteUser",
					"outputs": [],
					"stateMutability": "nonpayable",
					"type": "function"
				},
				{
					"inputs": [
						{
							"internalType": "uint256",
							"name": "",
							"type": "uint256"
						}
					],
					"name": "distributors",
					"outputs": [
						{
							"internalType": "address",
							"name": "",
							"type": "address"
						}
					],
					"stateMutability": "view",
					"type": "function"
				},
				{
					"inputs": [
						{
							"internalType": "bytes",
							"name": "_image",
							"type": "bytes"
						}
					],
					"name": "editImage",
					"outputs": [],
					"stateMutability": "nonpayable",
					"type": "function"
				},
				{
					"inputs": [
						{
							"internalType": "bytes",
							"name": "_name",
							"type": "bytes"
						}
					],
					"name": "editName",
					"outputs": [],
					"stateMutability": "nonpayable",
					"type": "function"
				},
				{
					"inputs": [
						{
							"internalType": "bytes",
							"name": "_physicalAddress",
							"type": "bytes"
						}
					],
					"name": "editPhysicalAddress",
					"outputs": [],
					"stateMutability": "nonpayable",
					"type": "function"
				},
				{
					"inputs": [],
					"name": "getAllDistributors",
					"outputs": [
						{
							"components": [
								{
									"internalType": "enum IUserDetails.userType",
									"name": "userType",
									"type": "uint8"
								},
								{
									"internalType": "bytes",
									"name": "userName",
									"type": "bytes"
								},
								{
									"internalType": "bytes",
									"name": "userPhysicalAddress",
									"type": "bytes"
								},
								{
									"internalType": "bytes",
									"name": "userImage",
									"type": "bytes"
								}
							],
							"internalType": "struct IUserDetails.userDetails[]",
							"name": "",
							"type": "tuple[]"
						}
					],
					"stateMutability": "view",
					"type": "function"
				},
				{
					"inputs": [],
					"name": "getAllManufacturers",
					"outputs": [
						{
							"components": [
								{
									"internalType": "enum IUserDetails.userType",
									"name": "userType",
									"type": "uint8"
								},
								{
									"internalType": "bytes",
									"name": "userName",
									"type": "bytes"
								},
								{
									"internalType": "bytes",
									"name": "userPhysicalAddress",
									"type": "bytes"
								},
								{
									"internalType": "bytes",
									"name": "userImage",
									"type": "bytes"
								}
							],
							"internalType": "struct IUserDetails.userDetails[]",
							"name": "",
							"type": "tuple[]"
						}
					],
					"stateMutability": "view",
					"type": "function"
				},
				{
					"inputs": [],
					"name": "getAllSuppliers",
					"outputs": [
						{
							"components": [
								{
									"internalType": "enum IUserDetails.userType",
									"name": "userType",
									"type": "uint8"
								},
								{
									"internalType": "bytes",
									"name": "userName",
									"type": "bytes"
								},
								{
									"internalType": "bytes",
									"name": "userPhysicalAddress",
									"type": "bytes"
								},
								{
									"internalType": "bytes",
									"name": "userImage",
									"type": "bytes"
								}
							],
							"internalType": "struct IUserDetails.userDetails[]",
							"name": "",
							"type": "tuple[]"
						}
					],
					"stateMutability": "view",
					"type": "function"
				},
				{
					"inputs": [],
					"name": "getAllUsers",
					"outputs": [
						{
							"components": [
								{
									"internalType": "enum IUserDetails.userType",
									"name": "userType",
									"type": "uint8"
								},
								{
									"internalType": "bytes",
									"name": "userName",
									"type": "bytes"
								},
								{
									"internalType": "bytes",
									"name": "userPhysicalAddress",
									"type": "bytes"
								},
								{
									"internalType": "bytes",
									"name": "userImage",
									"type": "bytes"
								}
							],
							"internalType": "struct IUserDetails.userDetails[]",
							"name": "",
							"type": "tuple[]"
						}
					],
					"stateMutability": "view",
					"type": "function"
				},
				{
					"inputs": [
						{
							"internalType": "uint256",
							"name": "",
							"type": "uint256"
						}
					],
					"name": "manufacturers",
					"outputs": [
						{
							"internalType": "address",
							"name": "",
							"type": "address"
						}
					],
					"stateMutability": "view",
					"type": "function"
				},
				{
					"inputs": [
						{
							"internalType": "uint256",
							"name": "",
							"type": "uint256"
						}
					],
					"name": "suppliers",
					"outputs": [
						{
							"internalType": "address",
							"name": "",
							"type": "address"
						}
					],
					"stateMutability": "view",
					"type": "function"
				},
				{
					"inputs": [
						{
							"internalType": "address",
							"name": "",
							"type": "address"
						}
					],
					"name": "userDetailsMapping",
					"outputs": [
						{
							"internalType": "enum IUserDetails.userType",
							"name": "userType",
							"type": "uint8"
						},
						{
							"internalType": "bytes",
							"name": "userName",
							"type": "bytes"
						},
						{
							"internalType": "bytes",
							"name": "userPhysicalAddress",
							"type": "bytes"
						},
						{
							"internalType": "bytes",
							"name": "userImage",
							"type": "bytes"
						}
					],
					"stateMutability": "view",
					"type": "function"
				},
				{
					"inputs": [
						{
							"internalType": "uint256",
							"name": "",
							"type": "uint256"
						}
					],
					"name": "users",
					"outputs": [
						{
							"internalType": "address",
							"name": "",
							"type": "address"
						}
					],
					"stateMutability": "view",
					"type": "function"
				}
			],
			"devdoc": {
				"kind": "dev",
				"methods": {},
				"version": 1
			},
			"evm": {
				"assembly": "    /* \"contracts/userDetails.sol\":118:2699  contract userDetails is IUserDetails{... */\n  mstore(0x40, 0x80)\n  callvalue\n  dup1\n  iszero\n  tag_1\n  jumpi\n  0x00\n  dup1\n  revert\ntag_1:\n  pop\n  dataSize(sub_0)\n  dup1\n  dataOffset(sub_0)\n  0x00\n  codecopy\n  0x00\n  return\nstop\n\nsub_0: assembly {\n        /* \"contracts/userDetails.sol\":118:2699  contract userDetails is IUserDetails{... */\n      mstore(0x40, 0x80)\n      callvalue\n      dup1\n      iszero\n      tag_1\n      jumpi\n      0x00\n      dup1\n      revert\n    tag_1:\n      pop\n      jumpi(tag_2, lt(calldatasize, 0x04))\n      shr(0xe0, calldataload(0x00))\n      dup1\n      0x90175af1\n      gt\n      tag_17\n      jumpi\n      dup1\n      0xcea23121\n      gt\n      tag_18\n      jumpi\n      dup1\n      0xcea23121\n      eq\n      tag_13\n      jumpi\n      dup1\n      0xd1bab143\n      eq\n      tag_14\n      jumpi\n      dup1\n      0xddba07a4\n      eq\n      tag_15\n      jumpi\n      dup1\n      0xe2842d79\n      eq\n      tag_16\n      jumpi\n      jump(tag_2)\n    tag_18:\n      dup1\n      0x90175af1\n      eq\n      tag_10\n      jumpi\n      dup1\n      0x9ae7d008\n      eq\n      tag_11\n      jumpi\n      dup1\n      0xb53305dc\n      eq\n      tag_12\n      jumpi\n      jump(tag_2)\n    tag_17:\n      dup1\n      0x5166608f\n      gt\n      tag_19\n      jumpi\n      dup1\n      0x5166608f\n      eq\n      tag_6\n      jumpi\n      dup1\n      0x5c60f226\n      eq\n      tag_7\n      jumpi\n      dup1\n      0x6a26d064\n      eq\n      tag_8\n      jumpi\n      dup1\n      0x8e24c34b\n      eq\n      tag_9\n      jumpi\n      jump(tag_2)\n    tag_19:\n      dup1\n      0x0c6c92ba\n      eq\n      tag_3\n      jumpi\n      dup1\n      0x365b98b2\n      eq\n      tag_4\n      jumpi\n      dup1\n      0x50b492ba\n      eq\n      tag_5\n      jumpi\n    tag_2:\n      0x00\n      dup1\n      revert\n        /* \"contracts/userDetails.sol\":1068:1179  function editName(bytes memory _name)public{... */\n    tag_3:\n      tag_20\n      0x04\n      dup1\n      calldatasize\n      sub\n      dup2\n      add\n      swap1\n      tag_21\n      swap2\n      swap1\n      tag_22\n      jump\t// in\n    tag_21:\n      tag_23\n      jump\t// in\n    tag_20:\n      stop\n        /* \"contracts/userDetails.sol\":225:247  address[] public users */\n    tag_4:\n      tag_24\n      0x04\n      dup1\n      calldatasize\n      sub\n      dup2\n      add\n      swap1\n      tag_25\n      swap2\n      swap1\n      tag_26\n      jump\t// in\n    tag_25:\n      tag_27\n      jump\t// in\n    tag_24:\n      mload(0x40)\n      tag_28\n      swap2\n      swap1\n      tag_29\n      jump\t// in\n    tag_28:\n      mload(0x40)\n      dup1\n      swap2\n      sub\n      swap1\n      return\n        /* \"contracts/userDetails.sol\":324:353  address[] public distributors */\n    tag_5:\n      tag_30\n      0x04\n      dup1\n      calldatasize\n      sub\n      dup2\n      add\n      swap1\n      tag_31\n      swap2\n      swap1\n      tag_26\n      jump\t// in\n    tag_31:\n      tag_32\n      jump\t// in\n    tag_30:\n      mload(0x40)\n      tag_33\n      swap2\n      swap1\n      tag_29\n      jump\t// in\n    tag_33:\n      mload(0x40)\n      dup1\n      swap2\n      sub\n      swap1\n      return\n        /* \"contracts/userDetails.sol\":163:218  mapping(address=>userDetails) public userDetailsMapping */\n    tag_6:\n      tag_34\n      0x04\n      dup1\n      calldatasize\n      sub\n      dup2\n      add\n      swap1\n      tag_35\n      swap2\n      swap1\n      tag_36\n      jump\t// in\n    tag_35:\n      tag_37\n      jump\t// in\n    tag_34:\n      mload(0x40)\n      tag_38\n      swap5\n      swap4\n      swap3\n      swap2\n      swap1\n      tag_39\n      jump\t// in\n    tag_38:\n      mload(0x40)\n      dup1\n      swap2\n      sub\n      swap1\n      return\n        /* \"contracts/userDetails.sol\":961:1060  function deleteUser(address _address)public{... */\n    tag_7:\n      tag_40\n      0x04\n      dup1\n      calldatasize\n      sub\n      dup2\n      add\n      swap1\n      tag_41\n      swap2\n      swap1\n      tag_36\n      jump\t// in\n    tag_41:\n      tag_42\n      jump\t// in\n    tag_40:\n      stop\n        /* \"contracts/userDetails.sol\":1185:1340  function editPhysicalAddress(bytes memory _physicalAddress)public{... */\n    tag_8:\n      tag_43\n      0x04\n      dup1\n      calldatasize\n      sub\n      dup2\n      add\n      swap1\n      tag_44\n      swap2\n      swap1\n      tag_22\n      jump\t// in\n    tag_44:\n      tag_45\n      jump\t// in\n    tag_43:\n      stop\n        /* \"contracts/userDetails.sol\":2387:2694  function getAllDistributors() public view returns(userDetails[] memory){... */\n    tag_9:\n      tag_46\n      tag_47\n      jump\t// in\n    tag_46:\n      mload(0x40)\n      tag_48\n      swap2\n      swap1\n      tag_49\n      jump\t// in\n    tag_48:\n      mload(0x40)\n      dup1\n      swap2\n      sub\n      swap1\n      return\n        /* \"contracts/userDetails.sol\":287:317  address[] public manufacturers */\n    tag_10:\n      tag_50\n      0x04\n      dup1\n      calldatasize\n      sub\n      dup2\n      add\n      swap1\n      tag_51\n      swap2\n      swap1\n      tag_26\n      jump\t// in\n    tag_51:\n      tag_52\n      jump\t// in\n    tag_50:\n      mload(0x40)\n      tag_53\n      swap2\n      swap1\n      tag_29\n      jump\t// in\n    tag_53:\n      mload(0x40)\n      dup1\n      swap2\n      sub\n      swap1\n      return\n        /* \"contracts/userDetails.sol\":370:955  function addUser(userType _type, bytes calldata _name, bytes calldata _physicalAddress,bytes memory _image)public{... */\n    tag_11:\n      tag_54\n      0x04\n      dup1\n      calldatasize\n      sub\n      dup2\n      add\n      swap1\n      tag_55\n      swap2\n      swap1\n      tag_56\n      jump\t// in\n    tag_55:\n      tag_57\n      jump\t// in\n    tag_54:\n      stop\n        /* \"contracts/userDetails.sol\":1759:2057  function getAllSuppliers() public view returns(userDetails[] memory){... */\n    tag_12:\n      tag_58\n      tag_59\n      jump\t// in\n    tag_58:\n      mload(0x40)\n      tag_60\n      swap2\n      swap1\n      tag_49\n      jump\t// in\n    tag_60:\n      mload(0x40)\n      dup1\n      swap2\n      sub\n      swap1\n      return\n        /* \"contracts/userDetails.sol\":254:280  address[] public suppliers */\n    tag_13:\n      tag_61\n      0x04\n      dup1\n      calldatasize\n      sub\n      dup2\n      add\n      swap1\n      tag_62\n      swap2\n      swap1\n      tag_26\n      jump\t// in\n    tag_62:\n      tag_63\n      jump\t// in\n    tag_61:\n      mload(0x40)\n      tag_64\n      swap2\n      swap1\n      tag_29\n      jump\t// in\n    tag_64:\n      mload(0x40)\n      dup1\n      swap2\n      sub\n      swap1\n      return\n        /* \"contracts/userDetails.sol\":1346:1459  function editImage(bytes memory _image)public{... */\n    tag_14:\n      tag_65\n      0x04\n      dup1\n      calldatasize\n      sub\n      dup2\n      add\n      swap1\n      tag_66\n      swap2\n      swap1\n      tag_22\n      jump\t// in\n    tag_66:\n      tag_67\n      jump\t// in\n    tag_65:\n      stop\n        /* \"contracts/userDetails.sol\":2067:2377  function getAllManufacturers() public view returns(userDetails[] memory){... */\n    tag_15:\n      tag_68\n      tag_69\n      jump\t// in\n    tag_68:\n      mload(0x40)\n      tag_70\n      swap2\n      swap1\n      tag_49\n      jump\t// in\n    tag_70:\n      mload(0x40)\n      dup1\n      swap2\n      sub\n      swap1\n      return\n        /* \"contracts/userDetails.sol\":1467:1751  function getAllUsers() public view returns(userDetails[] memory){... */\n    tag_16:\n      tag_71\n      tag_72\n      jump\t// in\n    tag_71:\n      mload(0x40)\n      tag_73\n      swap2\n      swap1\n      tag_49\n      jump\t// in\n    tag_73:\n      mload(0x40)\n      dup1\n      swap2\n      sub\n      swap1\n      return\n        /* \"contracts/userDetails.sol\":1068:1179  function editName(bytes memory _name)public{... */\n    tag_23:\n        /* \"contracts/userDetails.sol\":1164:1169  _name */\n      dup1\n        /* \"contracts/userDetails.sol\":1122:1140  userDetailsMapping */\n      0x00\n        /* \"contracts/userDetails.sol\":1122:1152  userDetailsMapping[msg.sender] */\n      dup1\n        /* \"contracts/userDetails.sol\":1141:1151  msg.sender */\n      caller\n        /* \"contracts/userDetails.sol\":1122:1152  userDetailsMapping[msg.sender] */\n      0xffffffffffffffffffffffffffffffffffffffff\n      and\n      0xffffffffffffffffffffffffffffffffffffffff\n      and\n      dup2\n      mstore\n      0x20\n      add\n      swap1\n      dup2\n      mstore\n      0x20\n      add\n      0x00\n      keccak256\n        /* \"contracts/userDetails.sol\":1122:1161  userDetailsMapping[msg.sender].userName */\n      0x01\n      add\n        /* \"contracts/userDetails.sol\":1122:1169  userDetailsMapping[msg.sender].userName = _name */\n      swap1\n      dup2\n      tag_75\n      swap2\n      swap1\n      tag_76\n      jump\t// in\n    tag_75:\n      pop\n        /* \"contracts/userDetails.sol\":1068:1179  function editName(bytes memory _name)public{... */\n      pop\n      jump\t// out\n        /* \"contracts/userDetails.sol\":225:247  address[] public users */\n    tag_27:\n      0x01\n      dup2\n      dup2\n      sload\n      dup2\n      lt\n      tag_77\n      jumpi\n      0x00\n      dup1\n      revert\n    tag_77:\n      swap1\n      0x00\n      mstore\n      keccak256(0x00, 0x20)\n      add\n      0x00\n      swap2\n      pop\n      sload\n      swap1\n      0x0100\n      exp\n      swap1\n      div\n      0xffffffffffffffffffffffffffffffffffffffff\n      and\n      dup2\n      jump\t// out\n        /* \"contracts/userDetails.sol\":324:353  address[] public distributors */\n    tag_32:\n      0x04\n      dup2\n      dup2\n      sload\n      dup2\n      lt\n      tag_79\n      jumpi\n      0x00\n      dup1\n      revert\n    tag_79:\n      swap1\n      0x00\n      mstore\n      keccak256(0x00, 0x20)\n      add\n      0x00\n      swap2\n      pop\n      sload\n      swap1\n      0x0100\n      exp\n      swap1\n      div\n      0xffffffffffffffffffffffffffffffffffffffff\n      and\n      dup2\n      jump\t// out\n        /* \"contracts/userDetails.sol\":163:218  mapping(address=>userDetails) public userDetailsMapping */\n    tag_37:\n      mstore(0x20, 0x00)\n      dup1\n      0x00\n      mstore\n      keccak256(0x00, 0x40)\n      0x00\n      swap2\n      pop\n      swap1\n      pop\n      dup1\n      0x00\n      add\n      0x00\n      swap1\n      sload\n      swap1\n      0x0100\n      exp\n      swap1\n      div\n      0xff\n      and\n      swap1\n      dup1\n      0x01\n      add\n      dup1\n      sload\n      tag_81\n      swap1\n      tag_82\n      jump\t// in\n    tag_81:\n      dup1\n      0x1f\n      add\n      0x20\n      dup1\n      swap2\n      div\n      mul\n      0x20\n      add\n      mload(0x40)\n      swap1\n      dup2\n      add\n      0x40\n      mstore\n      dup1\n      swap3\n      swap2\n      swap1\n      dup2\n      dup2\n      mstore\n      0x20\n      add\n      dup3\n      dup1\n      sload\n      tag_83\n      swap1\n      tag_82\n      jump\t// in\n    tag_83:\n      dup1\n      iszero\n      tag_84\n      jumpi\n      dup1\n      0x1f\n      lt\n      tag_85\n      jumpi\n      0x0100\n      dup1\n      dup4\n      sload\n      div\n      mul\n      dup4\n      mstore\n      swap2\n      0x20\n      add\n      swap2\n      jump(tag_84)\n    tag_85:\n      dup3\n      add\n      swap2\n      swap1\n      0x00\n      mstore\n      keccak256(0x00, 0x20)\n      swap1\n    tag_86:\n      dup2\n      sload\n      dup2\n      mstore\n      swap1\n      0x01\n      add\n      swap1\n      0x20\n      add\n      dup1\n      dup4\n      gt\n      tag_86\n      jumpi\n      dup3\n      swap1\n      sub\n      0x1f\n      and\n      dup3\n      add\n      swap2\n    tag_84:\n      pop\n      pop\n      pop\n      pop\n      pop\n      swap1\n      dup1\n      0x02\n      add\n      dup1\n      sload\n      tag_87\n      swap1\n      tag_82\n      jump\t// in\n    tag_87:\n      dup1\n      0x1f\n      add\n      0x20\n      dup1\n      swap2\n      div\n      mul\n      0x20\n      add\n      mload(0x40)\n      swap1\n      dup2\n      add\n      0x40\n      mstore\n      dup1\n      swap3\n      swap2\n      swap1\n      dup2\n      dup2\n      mstore\n      0x20\n      add\n      dup3\n      dup1\n      sload\n      tag_88\n      swap1\n      tag_82\n      jump\t// in\n    tag_88:\n      dup1\n      iszero\n      tag_89\n      jumpi\n      dup1\n      0x1f\n      lt\n      tag_90\n      jumpi\n      0x0100\n      dup1\n      dup4\n      sload\n      div\n      mul\n      dup4\n      mstore\n      swap2\n      0x20\n      add\n      swap2\n      jump(tag_89)\n    tag_90:\n      dup3\n      add\n      swap2\n      swap1\n      0x00\n      mstore\n      keccak256(0x00, 0x20)\n      swap1\n    tag_91:\n      dup2\n      sload\n      dup2\n      mstore\n      swap1\n      0x01\n      add\n      swap1\n      0x20\n      add\n      dup1\n      dup4\n      gt\n      tag_91\n      jumpi\n      dup3\n      swap1\n      sub\n      0x1f\n      and\n      dup3\n      add\n      swap2\n    tag_89:\n      pop\n      pop\n      pop\n      pop\n      pop\n      swap1\n      dup1\n      0x03\n      add\n      dup1\n      sload\n      tag_92\n      swap1\n      tag_82\n      jump\t// in\n    tag_92:\n      dup1\n      0x1f\n      add\n      0x20\n      dup1\n      swap2\n      div\n      mul\n      0x20\n      add\n      mload(0x40)\n      swap1\n      dup2\n      add\n      0x40\n      mstore\n      dup1\n      swap3\n      swap2\n      swap1\n      dup2\n      dup2\n      mstore\n      0x20\n      add\n      dup3\n      dup1\n      sload\n      tag_93\n      swap1\n      tag_82\n      jump\t// in\n    tag_93:\n      dup1\n      iszero\n      tag_94\n      jumpi\n      dup1\n      0x1f\n      lt\n      tag_95\n      jumpi\n      0x0100\n      dup1\n      dup4\n      sload\n      div\n      mul\n      dup4\n      mstore\n      swap2\n      0x20\n      add\n      swap2\n      jump(tag_94)\n    tag_95:\n      dup3\n      add\n      swap2\n      swap1\n      0x00\n      mstore\n      keccak256(0x00, 0x20)\n      swap1\n    tag_96:\n      dup2\n      sload\n      dup2\n      mstore\n      swap1\n      0x01\n      add\n      swap1\n      0x20\n      add\n      dup1\n      dup4\n      gt\n      tag_96\n      jumpi\n      dup3\n      swap1\n      sub\n      0x1f\n      and\n      dup3\n      add\n      swap2\n    tag_94:\n      pop\n      pop\n      pop\n      pop\n      pop\n      swap1\n      pop\n      dup5\n      jump\t// out\n        /* \"contracts/userDetails.sol\":961:1060  function deleteUser(address _address)public{... */\n    tag_42:\n        /* \"contracts/userDetails.sol\":1022:1040  userDetailsMapping */\n      0x00\n        /* \"contracts/userDetails.sol\":1022:1050  userDetailsMapping[_address] */\n      dup1\n        /* \"contracts/userDetails.sol\":1041:1049  _address */\n      dup3\n        /* \"contracts/userDetails.sol\":1022:1050  userDetailsMapping[_address] */\n      0xffffffffffffffffffffffffffffffffffffffff\n      and\n      0xffffffffffffffffffffffffffffffffffffffff\n      and\n      dup2\n      mstore\n      0x20\n      add\n      swap1\n      dup2\n      mstore\n      0x20\n      add\n      0x00\n      keccak256\n      0x00\n        /* \"contracts/userDetails.sol\":1015:1050  delete userDetailsMapping[_address] */\n      dup1\n      dup3\n      add\n      exp(0x0100, 0x00)\n      dup2\n      sload\n      swap1\n      0xff\n      mul\n      not\n      and\n      swap1\n      sstore\n      0x01\n      dup3\n      add\n      0x00\n      tag_98\n      swap2\n      swap1\n      tag_99\n      jump\t// in\n    tag_98:\n      0x02\n      dup3\n      add\n      0x00\n      tag_100\n      swap2\n      swap1\n      tag_99\n      jump\t// in\n    tag_100:\n      0x03\n      dup3\n      add\n      0x00\n      tag_101\n      swap2\n      swap1\n      tag_99\n      jump\t// in\n    tag_101:\n      pop\n      pop\n        /* \"contracts/userDetails.sol\":961:1060  function deleteUser(address _address)public{... */\n      pop\n      jump\t// out\n        /* \"contracts/userDetails.sol\":1185:1340  function editPhysicalAddress(bytes memory _physicalAddress)public{... */\n    tag_45:\n        /* \"contracts/userDetails.sol\":1314:1330  _physicalAddress */\n      dup1\n        /* \"contracts/userDetails.sol\":1261:1279  userDetailsMapping */\n      0x00\n        /* \"contracts/userDetails.sol\":1261:1291  userDetailsMapping[msg.sender] */\n      dup1\n        /* \"contracts/userDetails.sol\":1280:1290  msg.sender */\n      caller\n        /* \"contracts/userDetails.sol\":1261:1291  userDetailsMapping[msg.sender] */\n      0xffffffffffffffffffffffffffffffffffffffff\n      and\n      0xffffffffffffffffffffffffffffffffffffffff\n      and\n      dup2\n      mstore\n      0x20\n      add\n      swap1\n      dup2\n      mstore\n      0x20\n      add\n      0x00\n      keccak256\n        /* \"contracts/userDetails.sol\":1261:1311  userDetailsMapping[msg.sender].userPhysicalAddress */\n      0x02\n      add\n        /* \"contracts/userDetails.sol\":1261:1330  userDetailsMapping[msg.sender].userPhysicalAddress = _physicalAddress */\n      swap1\n      dup2\n      tag_103\n      swap2\n      swap1\n      tag_76\n      jump\t// in\n    tag_103:\n      pop\n        /* \"contracts/userDetails.sol\":1185:1340  function editPhysicalAddress(bytes memory _physicalAddress)public{... */\n      pop\n      jump\t// out\n        /* \"contracts/userDetails.sol\":2387:2694  function getAllDistributors() public view returns(userDetails[] memory){... */\n    tag_47:\n        /* \"contracts/userDetails.sol\":2437:2457  userDetails[] memory */\n      0x60\n        /* \"contracts/userDetails.sol\":2469:2495  userDetails[] memory distD */\n      0x00\n        /* \"contracts/userDetails.sol\":2516:2528  distributors */\n      0x04\n        /* \"contracts/userDetails.sol\":2516:2535  distributors.length */\n      dup1\n      sload\n      swap1\n      pop\n        /* \"contracts/userDetails.sol\":2498:2536  new userDetails[](distributors.length) */\n      0xffffffffffffffff\n      dup2\n      gt\n      iszero\n      tag_105\n      jumpi\n      tag_106\n      tag_107\n      jump\t// in\n    tag_106:\n    tag_105:\n      mload(0x40)\n      swap1\n      dup1\n      dup3\n      mstore\n      dup1\n      0x20\n      mul\n      0x20\n      add\n      dup3\n      add\n      0x40\n      mstore\n      dup1\n      iszero\n      tag_108\n      jumpi\n      dup2\n      0x20\n      add\n    tag_109:\n      tag_110\n      tag_111\n      jump\t// in\n    tag_110:\n      dup2\n      mstore\n      0x20\n      add\n      swap1\n      0x01\n      swap1\n      sub\n      swap1\n      dup2\n      tag_109\n      jumpi\n      swap1\n      pop\n    tag_108:\n      pop\n        /* \"contracts/userDetails.sol\":2469:2536  userDetails[] memory distD = new userDetails[](distributors.length) */\n      swap1\n      pop\n        /* \"contracts/userDetails.sol\":2551:2557  uint i */\n      0x00\n        /* \"contracts/userDetails.sol\":2547:2662  for(uint i=0;i<users.length;i++)... */\n    tag_112:\n        /* \"contracts/userDetails.sol\":2562:2567  users */\n      0x01\n        /* \"contracts/userDetails.sol\":2562:2574  users.length */\n      dup1\n      sload\n      swap1\n      pop\n        /* \"contracts/userDetails.sol\":2560:2561  i */\n      dup2\n        /* \"contracts/userDetails.sol\":2560:2574  i<users.length */\n      lt\n        /* \"contracts/userDetails.sol\":2547:2662  for(uint i=0;i<users.length;i++)... */\n      iszero\n      tag_113\n      jumpi\n        /* \"contracts/userDetails.sol\":2615:2633  userDetailsMapping */\n      0x00\n        /* \"contracts/userDetails.sol\":2615:2650  userDetailsMapping[distributors[i]] */\n      dup1\n        /* \"contracts/userDetails.sol\":2634:2646  distributors */\n      0x04\n        /* \"contracts/userDetails.sol\":2647:2648  i */\n      dup4\n        /* \"contracts/userDetails.sol\":2634:2649  distributors[i] */\n      dup2\n      sload\n      dup2\n      lt\n      tag_115\n      jumpi\n      tag_116\n      tag_117\n      jump\t// in\n    tag_116:\n    tag_115:\n      swap1\n      0x00\n      mstore\n      keccak256(0x00, 0x20)\n      add\n      0x00\n      swap1\n      sload\n      swap1\n      0x0100\n      exp\n      swap1\n      div\n      0xffffffffffffffffffffffffffffffffffffffff\n      and\n        /* \"contracts/userDetails.sol\":2615:2650  userDetailsMapping[distributors[i]] */\n      0xffffffffffffffffffffffffffffffffffffffff\n      and\n      0xffffffffffffffffffffffffffffffffffffffff\n      and\n      dup2\n      mstore\n      0x20\n      add\n      swap1\n      dup2\n      mstore\n      0x20\n      add\n      0x00\n      keccak256\n        /* \"contracts/userDetails.sol\":2604:2650  distD[i] = userDetailsMapping[distributors[i]] */\n      mload(0x40)\n      dup1\n      0x80\n      add\n      0x40\n      mstore\n      swap1\n      dup2\n      0x00\n      dup3\n      add\n      0x00\n      swap1\n      sload\n      swap1\n      0x0100\n      exp\n      swap1\n      div\n      0xff\n      and\n      0x02\n      dup2\n      gt\n      iszero\n      tag_119\n      jumpi\n      tag_120\n      tag_121\n      jump\t// in\n    tag_120:\n    tag_119:\n      0x02\n      dup2\n      gt\n      iszero\n      tag_122\n      jumpi\n      tag_123\n      tag_121\n      jump\t// in\n    tag_123:\n    tag_122:\n      dup2\n      mstore\n      0x20\n      add\n      0x01\n      dup3\n      add\n      dup1\n      sload\n      tag_124\n      swap1\n      tag_82\n      jump\t// in\n    tag_124:\n      dup1\n      0x1f\n      add\n      0x20\n      dup1\n      swap2\n      div\n      mul\n      0x20\n      add\n      mload(0x40)\n      swap1\n      dup2\n      add\n      0x40\n      mstore\n      dup1\n      swap3\n      swap2\n      swap1\n      dup2\n      dup2\n      mstore\n      0x20\n      add\n      dup3\n      dup1\n      sload\n      tag_125\n      swap1\n      tag_82\n      jump\t// in\n    tag_125:\n      dup1\n      iszero\n      tag_126\n      jumpi\n      dup1\n      0x1f\n      lt\n      tag_127\n      jumpi\n      0x0100\n      dup1\n      dup4\n      sload\n      div\n      mul\n      dup4\n      mstore\n      swap2\n      0x20\n      add\n      swap2\n      jump(tag_126)\n    tag_127:\n      dup3\n      add\n      swap2\n      swap1\n      0x00\n      mstore\n      keccak256(0x00, 0x20)\n      swap1\n    tag_128:\n      dup2\n      sload\n      dup2\n      mstore\n      swap1\n      0x01\n      add\n      swap1\n      0x20\n      add\n      dup1\n      dup4\n      gt\n      tag_128\n      jumpi\n      dup3\n      swap1\n      sub\n      0x1f\n      and\n      dup3\n      add\n      swap2\n    tag_126:\n      pop\n      pop\n      pop\n      pop\n      pop\n      dup2\n      mstore\n      0x20\n      add\n      0x02\n      dup3\n      add\n      dup1\n      sload\n      tag_129\n      swap1\n      tag_82\n      jump\t// in\n    tag_129:\n      dup1\n      0x1f\n      add\n      0x20\n      dup1\n      swap2\n      div\n      mul\n      0x20\n      add\n      mload(0x40)\n      swap1\n      dup2\n      add\n      0x40\n      mstore\n      dup1\n      swap3\n      swap2\n      swap1\n      dup2\n      dup2\n      mstore\n      0x20\n      add\n      dup3\n      dup1\n      sload\n      tag_130\n      swap1\n      tag_82\n      jump\t// in\n    tag_130:\n      dup1\n      iszero\n      tag_131\n      jumpi\n      dup1\n      0x1f\n      lt\n      tag_132\n      jumpi\n      0x0100\n      dup1\n      dup4\n      sload\n      div\n      mul\n      dup4\n      mstore\n      swap2\n      0x20\n      add\n      swap2\n      jump(tag_131)\n    tag_132:\n      dup3\n      add\n      swap2\n      swap1\n      0x00\n      mstore\n      keccak256(0x00, 0x20)\n      swap1\n    tag_133:\n      dup2\n      sload\n      dup2\n      mstore\n      swap1\n      0x01\n      add\n      swap1\n      0x20\n      add\n      dup1\n      dup4\n      gt\n      tag_133\n      jumpi\n      dup3\n      swap1\n      sub\n      0x1f\n      and\n      dup3\n      add\n      swap2\n    tag_131:\n      pop\n      pop\n      pop\n      pop\n      pop\n      dup2\n      mstore\n      0x20\n      add\n      0x03\n      dup3\n      add\n      dup1\n      sload\n      tag_134\n      swap1\n      tag_82\n      jump\t// in\n    tag_134:\n      dup1\n      0x1f\n      add\n      0x20\n      dup1\n      swap2\n      div\n      mul\n      0x20\n      add\n      mload(0x40)\n      swap1\n      dup2\n      add\n      0x40\n      mstore\n      dup1\n      swap3\n      swap2\n      swap1\n      dup2\n      dup2\n      mstore\n      0x20\n      add\n      dup3\n      dup1\n      sload\n      tag_135\n      swap1\n      tag_82\n      jump\t// in\n    tag_135:\n      dup1\n      iszero\n      tag_136\n      jumpi\n      dup1\n      0x1f\n      lt\n      tag_137\n      jumpi\n      0x0100\n      dup1\n      dup4\n      sload\n      div\n      mul\n      dup4\n      mstore\n      swap2\n      0x20\n      add\n      swap2\n      jump(tag_136)\n    tag_137:\n      dup3\n      add\n      swap2\n      swap1\n      0x00\n      mstore\n      keccak256(0x00, 0x20)\n      swap1\n    tag_138:\n      dup2\n      sload\n      dup2\n      mstore\n      swap1\n      0x01\n      add\n      swap1\n      0x20\n      add\n      dup1\n      dup4\n      gt\n      tag_138\n      jumpi\n      dup3\n      swap1\n      sub\n      0x1f\n      and\n      dup3\n      add\n      swap2\n    tag_136:\n      pop\n      pop\n      pop\n      pop\n      pop\n      dup2\n      mstore\n      pop\n      pop\n        /* \"contracts/userDetails.sol\":2604:2609  distD */\n      dup3\n        /* \"contracts/userDetails.sol\":2610:2611  i */\n      dup3\n        /* \"contracts/userDetails.sol\":2604:2612  distD[i] */\n      dup2\n      mload\n      dup2\n      lt\n      tag_139\n      jumpi\n      tag_140\n      tag_117\n      jump\t// in\n    tag_140:\n    tag_139:\n      0x20\n      mul\n      0x20\n      add\n      add\n        /* \"contracts/userDetails.sol\":2604:2650  distD[i] = userDetailsMapping[distributors[i]] */\n      dup2\n      swap1\n      mstore\n      pop\n        /* \"contracts/userDetails.sol\":2575:2578  i++ */\n      dup1\n      dup1\n      tag_141\n      swap1\n      tag_142\n      jump\t// in\n    tag_141:\n      swap2\n      pop\n      pop\n        /* \"contracts/userDetails.sol\":2547:2662  for(uint i=0;i<users.length;i++)... */\n      jump(tag_112)\n    tag_113:\n      pop\n        /* \"contracts/userDetails.sol\":2679:2684  distD */\n      dup1\n        /* \"contracts/userDetails.sol\":2672:2684  return distD */\n      swap2\n      pop\n      pop\n        /* \"contracts/userDetails.sol\":2387:2694  function getAllDistributors() public view returns(userDetails[] memory){... */\n      swap1\n      jump\t// out\n        /* \"contracts/userDetails.sol\":287:317  address[] public manufacturers */\n    tag_52:\n      0x03\n      dup2\n      dup2\n      sload\n      dup2\n      lt\n      tag_143\n      jumpi\n      0x00\n      dup1\n      revert\n    tag_143:\n      swap1\n      0x00\n      mstore\n      keccak256(0x00, 0x20)\n      add\n      0x00\n      swap2\n      pop\n      sload\n      swap1\n      0x0100\n      exp\n      swap1\n      div\n      0xffffffffffffffffffffffffffffffffffffffff\n      and\n      dup2\n      jump\t// out\n        /* \"contracts/userDetails.sol\":370:955  function addUser(userType _type, bytes calldata _name, bytes calldata _physicalAddress,bytes memory _image)public{... */\n    tag_57:\n        /* \"contracts/userDetails.sol\":557:558  0 */\n      0x00\n        /* \"contracts/userDetails.sol\":506:524  userDetailsMapping */\n      dup1\n        /* \"contracts/userDetails.sol\":506:536  userDetailsMapping[msg.sender] */\n      0x00\n        /* \"contracts/userDetails.sol\":525:535  msg.sender */\n      caller\n        /* \"contracts/userDetails.sol\":506:536  userDetailsMapping[msg.sender] */\n      0xffffffffffffffffffffffffffffffffffffffff\n      and\n      0xffffffffffffffffffffffffffffffffffffffff\n      and\n      dup2\n      mstore\n      0x20\n      add\n      swap1\n      dup2\n      mstore\n      0x20\n      add\n      0x00\n      keccak256\n        /* \"contracts/userDetails.sol\":506:545  userDetailsMapping[msg.sender].userName */\n      0x01\n      add\n        /* \"contracts/userDetails.sol\":505:553  (userDetailsMapping[msg.sender].userName).length */\n      dup1\n      sload\n      tag_146\n      swap1\n      tag_82\n      jump\t// in\n    tag_146:\n      swap1\n      pop\n        /* \"contracts/userDetails.sol\":505:558  (userDetailsMapping[msg.sender].userName).length == 0 */\n      eq\n        /* \"contracts/userDetails.sol\":497:586  require((userDetailsMapping[msg.sender].userName).length == 0, \"User already registered\") */\n      tag_147\n      jumpi\n      mload(0x40)\n      0x08c379a000000000000000000000000000000000000000000000000000000000\n      dup2\n      mstore\n      0x04\n      add\n      tag_148\n      swap1\n      tag_149\n      jump\t// in\n    tag_148:\n      mload(0x40)\n      dup1\n      swap2\n      sub\n      swap1\n      revert\n    tag_147:\n        /* \"contracts/userDetails.sol\":631:679  userDetails(_type,_name,_physicalAddress,_image) */\n      mload(0x40)\n      dup1\n      0x80\n      add\n      0x40\n      mstore\n      dup1\n        /* \"contracts/userDetails.sol\":643:648  _type */\n      dup8\n        /* \"contracts/userDetails.sol\":631:679  userDetails(_type,_name,_physicalAddress,_image) */\n      0x02\n      dup2\n      gt\n      iszero\n      tag_150\n      jumpi\n      tag_151\n      tag_121\n      jump\t// in\n    tag_151:\n    tag_150:\n      dup2\n      mstore\n      0x20\n      add\n        /* \"contracts/userDetails.sol\":649:654  _name */\n      dup7\n      dup7\n        /* \"contracts/userDetails.sol\":631:679  userDetails(_type,_name,_physicalAddress,_image) */\n      dup1\n      dup1\n      0x1f\n      add\n      0x20\n      dup1\n      swap2\n      div\n      mul\n      0x20\n      add\n      mload(0x40)\n      swap1\n      dup2\n      add\n      0x40\n      mstore\n      dup1\n      swap4\n      swap3\n      swap2\n      swap1\n      dup2\n      dup2\n      mstore\n      0x20\n      add\n      dup4\n      dup4\n      dup1\n      dup3\n      dup5\n      calldatacopy\n      0x00\n      dup2\n      dup5\n      add\n      mstore\n      not(0x1f)\n      0x1f\n      dup3\n      add\n      and\n      swap1\n      pop\n      dup1\n      dup4\n      add\n      swap3\n      pop\n      pop\n      pop\n      pop\n      pop\n      pop\n      pop\n      dup2\n      mstore\n      0x20\n      add\n        /* \"contracts/userDetails.sol\":655:671  _physicalAddress */\n      dup5\n      dup5\n        /* \"contracts/userDetails.sol\":631:679  userDetails(_type,_name,_physicalAddress,_image) */\n      dup1\n      dup1\n      0x1f\n      add\n      0x20\n      dup1\n      swap2\n      div\n      mul\n      0x20\n      add\n      mload(0x40)\n      swap1\n      dup2\n      add\n      0x40\n      mstore\n      dup1\n      swap4\n      swap3\n      swap2\n      swap1\n      dup2\n      dup2\n      mstore\n      0x20\n      add\n      dup4\n      dup4\n      dup1\n      dup3\n      dup5\n      calldatacopy\n      0x00\n      dup2\n      dup5\n      add\n      mstore\n      not(0x1f)\n      0x1f\n      dup3\n      add\n      and\n      swap1\n      pop\n      dup1\n      dup4\n      add\n      swap3\n      pop\n      pop\n      pop\n      pop\n      pop\n      pop\n      pop\n      dup2\n      mstore\n      0x20\n      add\n        /* \"contracts/userDetails.sol\":672:678  _image */\n      dup3\n        /* \"contracts/userDetails.sol\":631:679  userDetails(_type,_name,_physicalAddress,_image) */\n      dup2\n      mstore\n      pop\n        /* \"contracts/userDetails.sol\":598:616  userDetailsMapping */\n      0x00\n        /* \"contracts/userDetails.sol\":598:628  userDetailsMapping[msg.sender] */\n      dup1\n        /* \"contracts/userDetails.sol\":617:627  msg.sender */\n      caller\n        /* \"contracts/userDetails.sol\":598:628  userDetailsMapping[msg.sender] */\n      0xffffffffffffffffffffffffffffffffffffffff\n      and\n      0xffffffffffffffffffffffffffffffffffffffff\n      and\n      dup2\n      mstore\n      0x20\n      add\n      swap1\n      dup2\n      mstore\n      0x20\n      add\n      0x00\n      keccak256\n        /* \"contracts/userDetails.sol\":598:679  userDetailsMapping[msg.sender] = userDetails(_type,_name,_physicalAddress,_image) */\n      0x00\n      dup3\n      add\n      mload\n      dup2\n      0x00\n      add\n      exp(0x0100, 0x00)\n      dup2\n      sload\n      dup2\n      0xff\n      mul\n      not\n      and\n      swap1\n      dup4\n      0x02\n      dup2\n      gt\n      iszero\n      tag_152\n      jumpi\n      tag_153\n      tag_121\n      jump\t// in\n    tag_153:\n    tag_152:\n      mul\n      or\n      swap1\n      sstore\n      pop\n      0x20\n      dup3\n      add\n      mload\n      dup2\n      0x01\n      add\n      swap1\n      dup2\n      tag_154\n      swap2\n      swap1\n      tag_76\n      jump\t// in\n    tag_154:\n      pop\n      0x40\n      dup3\n      add\n      mload\n      dup2\n      0x02\n      add\n      swap1\n      dup2\n      tag_155\n      swap2\n      swap1\n      tag_76\n      jump\t// in\n    tag_155:\n      pop\n      0x60\n      dup3\n      add\n      mload\n      dup2\n      0x03\n      add\n      swap1\n      dup2\n      tag_156\n      swap2\n      swap1\n      tag_76\n      jump\t// in\n    tag_156:\n      pop\n      swap1\n      pop\n      pop\n        /* \"contracts/userDetails.sol\":691:696  users */\n      0x01\n        /* \"contracts/userDetails.sol\":702:712  msg.sender */\n      caller\n        /* \"contracts/userDetails.sol\":691:713  users.push(msg.sender) */\n      swap1\n      dup1\n      0x01\n      dup2\n      sload\n      add\n      dup1\n      dup3\n      sstore\n      dup1\n      swap2\n      pop\n      pop\n      0x01\n      swap1\n      sub\n      swap1\n      0x00\n      mstore\n      keccak256(0x00, 0x20)\n      add\n      0x00\n      swap1\n      swap2\n      swap1\n      swap2\n      swap1\n      swap2\n      0x0100\n      exp\n      dup2\n      sload\n      dup2\n      0xffffffffffffffffffffffffffffffffffffffff\n      mul\n      not\n      and\n      swap1\n      dup4\n      0xffffffffffffffffffffffffffffffffffffffff\n      and\n      mul\n      or\n      swap1\n      sstore\n      pop\n        /* \"contracts/userDetails.sol\":737:754  userType.Supplier */\n      0x00\n        /* \"contracts/userDetails.sol\":728:754  _type == userType.Supplier */\n      0x02\n      dup2\n      gt\n      iszero\n      tag_158\n      jumpi\n      tag_159\n      tag_121\n      jump\t// in\n    tag_159:\n    tag_158:\n        /* \"contracts/userDetails.sol\":728:733  _type */\n      dup7\n        /* \"contracts/userDetails.sol\":728:754  _type == userType.Supplier */\n      0x02\n      dup2\n      gt\n      iszero\n      tag_160\n      jumpi\n      tag_161\n      tag_121\n      jump\t// in\n    tag_161:\n    tag_160:\n      sub\n        /* \"contracts/userDetails.sol\":725:782  if(_type == userType.Supplier) suppliers.push(msg.sender) */\n      tag_162\n      jumpi\n        /* \"contracts/userDetails.sol\":756:765  suppliers */\n      0x02\n        /* \"contracts/userDetails.sol\":771:781  msg.sender */\n      caller\n        /* \"contracts/userDetails.sol\":756:782  suppliers.push(msg.sender) */\n      swap1\n      dup1\n      0x01\n      dup2\n      sload\n      add\n      dup1\n      dup3\n      sstore\n      dup1\n      swap2\n      pop\n      pop\n      0x01\n      swap1\n      sub\n      swap1\n      0x00\n      mstore\n      keccak256(0x00, 0x20)\n      add\n      0x00\n      swap1\n      swap2\n      swap1\n      swap2\n      swap1\n      swap2\n      0x0100\n      exp\n      dup2\n      sload\n      dup2\n      0xffffffffffffffffffffffffffffffffffffffff\n      mul\n      not\n      and\n      swap1\n      dup4\n      0xffffffffffffffffffffffffffffffffffffffff\n      and\n      mul\n      or\n      swap1\n      sstore\n      pop\n        /* \"contracts/userDetails.sol\":725:782  if(_type == userType.Supplier) suppliers.push(msg.sender) */\n    tag_162:\n        /* \"contracts/userDetails.sol\":806:827  userType.Manufacturer */\n      0x01\n        /* \"contracts/userDetails.sol\":797:827  _type == userType.Manufacturer */\n      0x02\n      dup2\n      gt\n      iszero\n      tag_164\n      jumpi\n      tag_165\n      tag_121\n      jump\t// in\n    tag_165:\n    tag_164:\n        /* \"contracts/userDetails.sol\":797:802  _type */\n      dup7\n        /* \"contracts/userDetails.sol\":797:827  _type == userType.Manufacturer */\n      0x02\n      dup2\n      gt\n      iszero\n      tag_166\n      jumpi\n      tag_167\n      tag_121\n      jump\t// in\n    tag_167:\n    tag_166:\n      sub\n        /* \"contracts/userDetails.sol\":794:859  if(_type == userType.Manufacturer) manufacturers.push(msg.sender) */\n      tag_168\n      jumpi\n        /* \"contracts/userDetails.sol\":829:842  manufacturers */\n      0x03\n        /* \"contracts/userDetails.sol\":848:858  msg.sender */\n      caller\n        /* \"contracts/userDetails.sol\":829:859  manufacturers.push(msg.sender) */\n      swap1\n      dup1\n      0x01\n      dup2\n      sload\n      add\n      dup1\n      dup3\n      sstore\n      dup1\n      swap2\n      pop\n      pop\n      0x01\n      swap1\n      sub\n      swap1\n      0x00\n      mstore\n      keccak256(0x00, 0x20)\n      add\n      0x00\n      swap1\n      swap2\n      swap1\n      swap2\n      swap1\n      swap2\n      0x0100\n      exp\n      dup2\n      sload\n      dup2\n      0xffffffffffffffffffffffffffffffffffffffff\n      mul\n      not\n      and\n      swap1\n      dup4\n      0xffffffffffffffffffffffffffffffffffffffff\n      and\n      mul\n      or\n      swap1\n      sstore\n      pop\n        /* \"contracts/userDetails.sol\":794:859  if(_type == userType.Manufacturer) manufacturers.push(msg.sender) */\n    tag_168:\n        /* \"contracts/userDetails.sol\":883:903  userType.Distributor */\n      0x02\n        /* \"contracts/userDetails.sol\":874:903  _type == userType.Distributor */\n      dup1\n      dup2\n      gt\n      iszero\n      tag_170\n      jumpi\n      tag_171\n      tag_121\n      jump\t// in\n    tag_171:\n    tag_170:\n        /* \"contracts/userDetails.sol\":874:879  _type */\n      dup7\n        /* \"contracts/userDetails.sol\":874:903  _type == userType.Distributor */\n      0x02\n      dup2\n      gt\n      iszero\n      tag_172\n      jumpi\n      tag_173\n      tag_121\n      jump\t// in\n    tag_173:\n    tag_172:\n      sub\n        /* \"contracts/userDetails.sol\":871:934  if(_type == userType.Distributor) distributors.push(msg.sender) */\n      tag_174\n      jumpi\n        /* \"contracts/userDetails.sol\":905:917  distributors */\n      0x04\n        /* \"contracts/userDetails.sol\":923:933  msg.sender */\n      caller\n        /* \"contracts/userDetails.sol\":905:934  distributors.push(msg.sender) */\n      swap1\n      dup1\n      0x01\n      dup2\n      sload\n      add\n      dup1\n      dup3\n      sstore\n      dup1\n      swap2\n      pop\n      pop\n      0x01\n      swap1\n      sub\n      swap1\n      0x00\n      mstore\n      keccak256(0x00, 0x20)\n      add\n      0x00\n      swap1\n      swap2\n      swap1\n      swap2\n      swap1\n      swap2\n      0x0100\n      exp\n      dup2\n      sload\n      dup2\n      0xffffffffffffffffffffffffffffffffffffffff\n      mul\n      not\n      and\n      swap1\n      dup4\n      0xffffffffffffffffffffffffffffffffffffffff\n      and\n      mul\n      or\n      swap1\n      sstore\n      pop\n        /* \"contracts/userDetails.sol\":871:934  if(_type == userType.Distributor) distributors.push(msg.sender) */\n    tag_174:\n        /* \"contracts/userDetails.sol\":370:955  function addUser(userType _type, bytes calldata _name, bytes calldata _physicalAddress,bytes memory _image)public{... */\n      pop\n      pop\n      pop\n      pop\n      pop\n      pop\n      jump\t// out\n        /* \"contracts/userDetails.sol\":1759:2057  function getAllSuppliers() public view returns(userDetails[] memory){... */\n    tag_59:\n        /* \"contracts/userDetails.sol\":1806:1826  userDetails[] memory */\n      0x60\n        /* \"contracts/userDetails.sol\":1838:1864  userDetails[] memory suppD */\n      0x00\n        /* \"contracts/userDetails.sol\":1885:1894  suppliers */\n      0x02\n        /* \"contracts/userDetails.sol\":1885:1901  suppliers.length */\n      dup1\n      sload\n      swap1\n      pop\n        /* \"contracts/userDetails.sol\":1867:1902  new userDetails[](suppliers.length) */\n      0xffffffffffffffff\n      dup2\n      gt\n      iszero\n      tag_177\n      jumpi\n      tag_178\n      tag_107\n      jump\t// in\n    tag_178:\n    tag_177:\n      mload(0x40)\n      swap1\n      dup1\n      dup3\n      mstore\n      dup1\n      0x20\n      mul\n      0x20\n      add\n      dup3\n      add\n      0x40\n      mstore\n      dup1\n      iszero\n      tag_179\n      jumpi\n      dup2\n      0x20\n      add\n    tag_180:\n      tag_181\n      tag_111\n      jump\t// in\n    tag_181:\n      dup2\n      mstore\n      0x20\n      add\n      swap1\n      0x01\n      swap1\n      sub\n      swap1\n      dup2\n      tag_180\n      jumpi\n      swap1\n      pop\n    tag_179:\n      pop\n        /* \"contracts/userDetails.sol\":1838:1902  userDetails[] memory suppD = new userDetails[](suppliers.length) */\n      swap1\n      pop\n        /* \"contracts/userDetails.sol\":1917:1923  uint i */\n      0x00\n        /* \"contracts/userDetails.sol\":1913:2025  for(uint i=0;i<users.length;i++)... */\n    tag_182:\n        /* \"contracts/userDetails.sol\":1928:1933  users */\n      0x01\n        /* \"contracts/userDetails.sol\":1928:1940  users.length */\n      dup1\n      sload\n      swap1\n      pop\n        /* \"contracts/userDetails.sol\":1926:1927  i */\n      dup2\n        /* \"contracts/userDetails.sol\":1926:1940  i<users.length */\n      lt\n        /* \"contracts/userDetails.sol\":1913:2025  for(uint i=0;i<users.length;i++)... */\n      iszero\n      tag_183\n      jumpi\n        /* \"contracts/userDetails.sol\":1981:1999  userDetailsMapping */\n      0x00\n        /* \"contracts/userDetails.sol\":1981:2013  userDetailsMapping[suppliers[i]] */\n      dup1\n        /* \"contracts/userDetails.sol\":2000:2009  suppliers */\n      0x02\n        /* \"contracts/userDetails.sol\":2010:2011  i */\n      dup4\n        /* \"contracts/userDetails.sol\":2000:2012  suppliers[i] */\n      dup2\n      sload\n      dup2\n      lt\n      tag_185\n      jumpi\n      tag_186\n      tag_117\n      jump\t// in\n    tag_186:\n    tag_185:\n      swap1\n      0x00\n      mstore\n      keccak256(0x00, 0x20)\n      add\n      0x00\n      swap1\n      sload\n      swap1\n      0x0100\n      exp\n      swap1\n      div\n      0xffffffffffffffffffffffffffffffffffffffff\n      and\n        /* \"contracts/userDetails.sol\":1981:2013  userDetailsMapping[suppliers[i]] */\n      0xffffffffffffffffffffffffffffffffffffffff\n      and\n      0xffffffffffffffffffffffffffffffffffffffff\n      and\n      dup2\n      mstore\n      0x20\n      add\n      swap1\n      dup2\n      mstore\n      0x20\n      add\n      0x00\n      keccak256\n        /* \"contracts/userDetails.sol\":1970:2013  suppD[i] = userDetailsMapping[suppliers[i]] */\n      mload(0x40)\n      dup1\n      0x80\n      add\n      0x40\n      mstore\n      swap1\n      dup2\n      0x00\n      dup3\n      add\n      0x00\n      swap1\n      sload\n      swap1\n      0x0100\n      exp\n      swap1\n      div\n      0xff\n      and\n      0x02\n      dup2\n      gt\n      iszero\n      tag_188\n      jumpi\n      tag_189\n      tag_121\n      jump\t// in\n    tag_189:\n    tag_188:\n      0x02\n      dup2\n      gt\n      iszero\n      tag_190\n      jumpi\n      tag_191\n      tag_121\n      jump\t// in\n    tag_191:\n    tag_190:\n      dup2\n      mstore\n      0x20\n      add\n      0x01\n      dup3\n      add\n      dup1\n      sload\n      tag_192\n      swap1\n      tag_82\n      jump\t// in\n    tag_192:\n      dup1\n      0x1f\n      add\n      0x20\n      dup1\n      swap2\n      div\n      mul\n      0x20\n      add\n      mload(0x40)\n      swap1\n      dup2\n      add\n      0x40\n      mstore\n      dup1\n      swap3\n      swap2\n      swap1\n      dup2\n      dup2\n      mstore\n      0x20\n      add\n      dup3\n      dup1\n      sload\n      tag_193\n      swap1\n      tag_82\n      jump\t// in\n    tag_193:\n      dup1\n      iszero\n      tag_194\n      jumpi\n      dup1\n      0x1f\n      lt\n      tag_195\n      jumpi\n      0x0100\n      dup1\n      dup4\n      sload\n      div\n      mul\n      dup4\n      mstore\n      swap2\n      0x20\n      add\n      swap2\n      jump(tag_194)\n    tag_195:\n      dup3\n      add\n      swap2\n      swap1\n      0x00\n      mstore\n      keccak256(0x00, 0x20)\n      swap1\n    tag_196:\n      dup2\n      sload\n      dup2\n      mstore\n      swap1\n      0x01\n      add\n      swap1\n      0x20\n      add\n      dup1\n      dup4\n      gt\n      tag_196\n      jumpi\n      dup3\n      swap1\n      sub\n      0x1f\n      and\n      dup3\n      add\n      swap2\n    tag_194:\n      pop\n      pop\n      pop\n      pop\n      pop\n      dup2\n      mstore\n      0x20\n      add\n      0x02\n      dup3\n      add\n      dup1\n      sload\n      tag_197\n      swap1\n      tag_82\n      jump\t// in\n    tag_197:\n      dup1\n      0x1f\n      add\n      0x20\n      dup1\n      swap2\n      div\n      mul\n      0x20\n      add\n      mload(0x40)\n      swap1\n      dup2\n      add\n      0x40\n      mstore\n      dup1\n      swap3\n      swap2\n      swap1\n      dup2\n      dup2\n      mstore\n      0x20\n      add\n      dup3\n      dup1\n      sload\n      tag_198\n      swap1\n      tag_82\n      jump\t// in\n    tag_198:\n      dup1\n      iszero\n      tag_199\n      jumpi\n      dup1\n      0x1f\n      lt\n      tag_200\n      jumpi\n      0x0100\n      dup1\n      dup4\n      sload\n      div\n      mul\n      dup4\n      mstore\n      swap2\n      0x20\n      add\n      swap2\n      jump(tag_199)\n    tag_200:\n      dup3\n      add\n      swap2\n      swap1\n      0x00\n      mstore\n      keccak256(0x00, 0x20)\n      swap1\n    tag_201:\n      dup2\n      sload\n      dup2\n      mstore\n      swap1\n      0x01\n      add\n      swap1\n      0x20\n      add\n      dup1\n      dup4\n      gt\n      tag_201\n      jumpi\n      dup3\n      swap1\n      sub\n      0x1f\n      and\n      dup3\n      add\n      swap2\n    tag_199:\n      pop\n      pop\n      pop\n      pop\n      pop\n      dup2\n      mstore\n      0x20\n      add\n      0x03\n      dup3\n      add\n      dup1\n      sload\n      tag_202\n      swap1\n      tag_82\n      jump\t// in\n    tag_202:\n      dup1\n      0x1f\n      add\n      0x20\n      dup1\n      swap2\n      div\n      mul\n      0x20\n      add\n      mload(0x40)\n      swap1\n      dup2\n      add\n      0x40\n      mstore\n      dup1\n      swap3\n      swap2\n      swap1\n      dup2\n      dup2\n      mstore\n      0x20\n      add\n      dup3\n      dup1\n      sload\n      tag_203\n      swap1\n      tag_82\n      jump\t// in\n    tag_203:\n      dup1\n      iszero\n      tag_204\n      jumpi\n      dup1\n      0x1f\n      lt\n      tag_205\n      jumpi\n      0x0100\n      dup1\n      dup4\n      sload\n      div\n      mul\n      dup4\n      mstore\n      swap2\n      0x20\n      add\n      swap2\n      jump(tag_204)\n    tag_205:\n      dup3\n      add\n      swap2\n      swap1\n      0x00\n      mstore\n      keccak256(0x00, 0x20)\n      swap1\n    tag_206:\n      dup2\n      sload\n      dup2\n      mstore\n      swap1\n      0x01\n      add\n      swap1\n      0x20\n      add\n      dup1\n      dup4\n      gt\n      tag_206\n      jumpi\n      dup3\n      swap1\n      sub\n      0x1f\n      and\n      dup3\n      add\n      swap2\n    tag_204:\n      pop\n      pop\n      pop\n      pop\n      pop\n      dup2\n      mstore\n      pop\n      pop\n        /* \"contracts/userDetails.sol\":1970:1975  suppD */\n      dup3\n        /* \"contracts/userDetails.sol\":1976:1977  i */\n      dup3\n        /* \"contracts/userDetails.sol\":1970:1978  suppD[i] */\n      dup2\n      mload\n      dup2\n      lt\n      tag_207\n      jumpi\n      tag_208\n      tag_117\n      jump\t// in\n    tag_208:\n    tag_207:\n      0x20\n      mul\n      0x20\n      add\n      add\n        /* \"contracts/userDetails.sol\":1970:2013  suppD[i] = userDetailsMapping[suppliers[i]] */\n      dup2\n      swap1\n      mstore\n      pop\n        /* \"contracts/userDetails.sol\":1941:1944  i++ */\n      dup1\n      dup1\n      tag_209\n      swap1\n      tag_142\n      jump\t// in\n    tag_209:\n      swap2\n      pop\n      pop\n        /* \"contracts/userDetails.sol\":1913:2025  for(uint i=0;i<users.length;i++)... */\n      jump(tag_182)\n    tag_183:\n      pop\n        /* \"contracts/userDetails.sol\":2042:2047  suppD */\n      dup1\n        /* \"contracts/userDetails.sol\":2035:2047  return suppD */\n      swap2\n      pop\n      pop\n        /* \"contracts/userDetails.sol\":1759:2057  function getAllSuppliers() public view returns(userDetails[] memory){... */\n      swap1\n      jump\t// out\n        /* \"contracts/userDetails.sol\":254:280  address[] public suppliers */\n    tag_63:\n      0x02\n      dup2\n      dup2\n      sload\n      dup2\n      lt\n      tag_210\n      jumpi\n      0x00\n      dup1\n      revert\n    tag_210:\n      swap1\n      0x00\n      mstore\n      keccak256(0x00, 0x20)\n      add\n      0x00\n      swap2\n      pop\n      sload\n      swap1\n      0x0100\n      exp\n      swap1\n      div\n      0xffffffffffffffffffffffffffffffffffffffff\n      and\n      dup2\n      jump\t// out\n        /* \"contracts/userDetails.sol\":1346:1459  function editImage(bytes memory _image)public{... */\n    tag_67:\n        /* \"contracts/userDetails.sol\":1445:1451  _image */\n      dup1\n        /* \"contracts/userDetails.sol\":1402:1420  userDetailsMapping */\n      0x00\n        /* \"contracts/userDetails.sol\":1402:1432  userDetailsMapping[msg.sender] */\n      dup1\n        /* \"contracts/userDetails.sol\":1421:1431  msg.sender */\n      caller\n        /* \"contracts/userDetails.sol\":1402:1432  userDetailsMapping[msg.sender] */\n      0xffffffffffffffffffffffffffffffffffffffff\n      and\n      0xffffffffffffffffffffffffffffffffffffffff\n      and\n      dup2\n      mstore\n      0x20\n      add\n      swap1\n      dup2\n      mstore\n      0x20\n      add\n      0x00\n      keccak256\n        /* \"contracts/userDetails.sol\":1402:1442  userDetailsMapping[msg.sender].userImage */\n      0x03\n      add\n        /* \"contracts/userDetails.sol\":1402:1451  userDetailsMapping[msg.sender].userImage = _image */\n      swap1\n      dup2\n      tag_213\n      swap2\n      swap1\n      tag_76\n      jump\t// in\n    tag_213:\n      pop\n        /* \"contracts/userDetails.sol\":1346:1459  function editImage(bytes memory _image)public{... */\n      pop\n      jump\t// out\n        /* \"contracts/userDetails.sol\":2067:2377  function getAllManufacturers() public view returns(userDetails[] memory){... */\n    tag_69:\n        /* \"contracts/userDetails.sol\":2118:2138  userDetails[] memory */\n      0x60\n        /* \"contracts/userDetails.sol\":2150:2176  userDetails[] memory manuD */\n      0x00\n        /* \"contracts/userDetails.sol\":2197:2210  manufacturers */\n      0x03\n        /* \"contracts/userDetails.sol\":2197:2217  manufacturers.length */\n      dup1\n      sload\n      swap1\n      pop\n        /* \"contracts/userDetails.sol\":2179:2218  new userDetails[](manufacturers.length) */\n      0xffffffffffffffff\n      dup2\n      gt\n      iszero\n      tag_215\n      jumpi\n      tag_216\n      tag_107\n      jump\t// in\n    tag_216:\n    tag_215:\n      mload(0x40)\n      swap1\n      dup1\n      dup3\n      mstore\n      dup1\n      0x20\n      mul\n      0x20\n      add\n      dup3\n      add\n      0x40\n      mstore\n      dup1\n      iszero\n      tag_217\n      jumpi\n      dup2\n      0x20\n      add\n    tag_218:\n      tag_219\n      tag_111\n      jump\t// in\n    tag_219:\n      dup2\n      mstore\n      0x20\n      add\n      swap1\n      0x01\n      swap1\n      sub\n      swap1\n      dup2\n      tag_218\n      jumpi\n      swap1\n      pop\n    tag_217:\n      pop\n        /* \"contracts/userDetails.sol\":2150:2218  userDetails[] memory manuD = new userDetails[](manufacturers.length) */\n      swap1\n      pop\n        /* \"contracts/userDetails.sol\":2233:2239  uint i */\n      0x00\n        /* \"contracts/userDetails.sol\":2229:2345  for(uint i=0;i<users.length;i++)... */\n    tag_220:\n        /* \"contracts/userDetails.sol\":2244:2249  users */\n      0x01\n        /* \"contracts/userDetails.sol\":2244:2256  users.length */\n      dup1\n      sload\n      swap1\n      pop\n        /* \"contracts/userDetails.sol\":2242:2243  i */\n      dup2\n        /* \"contracts/userDetails.sol\":2242:2256  i<users.length */\n      lt\n        /* \"contracts/userDetails.sol\":2229:2345  for(uint i=0;i<users.length;i++)... */\n      iszero\n      tag_221\n      jumpi\n        /* \"contracts/userDetails.sol\":2297:2315  userDetailsMapping */\n      0x00\n        /* \"contracts/userDetails.sol\":2297:2333  userDetailsMapping[manufacturers[i]] */\n      dup1\n        /* \"contracts/userDetails.sol\":2316:2329  manufacturers */\n      0x03\n        /* \"contracts/userDetails.sol\":2330:2331  i */\n      dup4\n        /* \"contracts/userDetails.sol\":2316:2332  manufacturers[i] */\n      dup2\n      sload\n      dup2\n      lt\n      tag_223\n      jumpi\n      tag_224\n      tag_117\n      jump\t// in\n    tag_224:\n    tag_223:\n      swap1\n      0x00\n      mstore\n      keccak256(0x00, 0x20)\n      add\n      0x00\n      swap1\n      sload\n      swap1\n      0x0100\n      exp\n      swap1\n      div\n      0xffffffffffffffffffffffffffffffffffffffff\n      and\n        /* \"contracts/userDetails.sol\":2297:2333  userDetailsMapping[manufacturers[i]] */\n      0xffffffffffffffffffffffffffffffffffffffff\n      and\n      0xffffffffffffffffffffffffffffffffffffffff\n      and\n      dup2\n      mstore\n      0x20\n      add\n      swap1\n      dup2\n      mstore\n      0x20\n      add\n      0x00\n      keccak256\n        /* \"contracts/userDetails.sol\":2286:2333  manuD[i] = userDetailsMapping[manufacturers[i]] */\n      mload(0x40)\n      dup1\n      0x80\n      add\n      0x40\n      mstore\n      swap1\n      dup2\n      0x00\n      dup3\n      add\n      0x00\n      swap1\n      sload\n      swap1\n      0x0100\n      exp\n      swap1\n      div\n      0xff\n      and\n      0x02\n      dup2\n      gt\n      iszero\n      tag_226\n      jumpi\n      tag_227\n      tag_121\n      jump\t// in\n    tag_227:\n    tag_226:\n      0x02\n      dup2\n      gt\n      iszero\n      tag_228\n      jumpi\n      tag_229\n      tag_121\n      jump\t// in\n    tag_229:\n    tag_228:\n      dup2\n      mstore\n      0x20\n      add\n      0x01\n      dup3\n      add\n      dup1\n      sload\n      tag_230\n      swap1\n      tag_82\n      jump\t// in\n    tag_230:\n      dup1\n      0x1f\n      add\n      0x20\n      dup1\n      swap2\n      div\n      mul\n      0x20\n      add\n      mload(0x40)\n      swap1\n      dup2\n      add\n      0x40\n      mstore\n      dup1\n      swap3\n      swap2\n      swap1\n      dup2\n      dup2\n      mstore\n      0x20\n      add\n      dup3\n      dup1\n      sload\n      tag_231\n      swap1\n      tag_82\n      jump\t// in\n    tag_231:\n      dup1\n      iszero\n      tag_232\n      jumpi\n      dup1\n      0x1f\n      lt\n      tag_233\n      jumpi\n      0x0100\n      dup1\n      dup4\n      sload\n      div\n      mul\n      dup4\n      mstore\n      swap2\n      0x20\n      add\n      swap2\n      jump(tag_232)\n    tag_233:\n      dup3\n      add\n      swap2\n      swap1\n      0x00\n      mstore\n      keccak256(0x00, 0x20)\n      swap1\n    tag_234:\n      dup2\n      sload\n      dup2\n      mstore\n      swap1\n      0x01\n      add\n      swap1\n      0x20\n      add\n      dup1\n      dup4\n      gt\n      tag_234\n      jumpi\n      dup3\n      swap1\n      sub\n      0x1f\n      and\n      dup3\n      add\n      swap2\n    tag_232:\n      pop\n      pop\n      pop\n      pop\n      pop\n      dup2\n      mstore\n      0x20\n      add\n      0x02\n      dup3\n      add\n      dup1\n      sload\n      tag_235\n      swap1\n      tag_82\n      jump\t// in\n    tag_235:\n      dup1\n      0x1f\n      add\n      0x20\n      dup1\n      swap2\n      div\n      mul\n      0x20\n      add\n      mload(0x40)\n      swap1\n      dup2\n      add\n      0x40\n      mstore\n      dup1\n      swap3\n      swap2\n      swap1\n      dup2\n      dup2\n      mstore\n      0x20\n      add\n      dup3\n      dup1\n      sload\n      tag_236\n      swap1\n      tag_82\n      jump\t// in\n    tag_236:\n      dup1\n      iszero\n      tag_237\n      jumpi\n      dup1\n      0x1f\n      lt\n      tag_238\n      jumpi\n      0x0100\n      dup1\n      dup4\n      sload\n      div\n      mul\n      dup4\n      mstore\n      swap2\n      0x20\n      add\n      swap2\n      jump(tag_237)\n    tag_238:\n      dup3\n      add\n      swap2\n      swap1\n      0x00\n      mstore\n      keccak256(0x00, 0x20)\n      swap1\n    tag_239:\n      dup2\n      sload\n      dup2\n      mstore\n      swap1\n      0x01\n      add\n      swap1\n      0x20\n      add\n      dup1\n      dup4\n      gt\n      tag_239\n      jumpi\n      dup3\n      swap1\n      sub\n      0x1f\n      and\n      dup3\n      add\n      swap2\n    tag_237:\n      pop\n      pop\n      pop\n      pop\n      pop\n      dup2\n      mstore\n      0x20\n      add\n      0x03\n      dup3\n      add\n      dup1\n      sload\n      tag_240\n      swap1\n      tag_82\n      jump\t// in\n    tag_240:\n      dup1\n      0x1f\n      add\n      0x20\n      dup1\n      swap2\n      div\n      mul\n      0x20\n      add\n      mload(0x40)\n      swap1\n      dup2\n      add\n      0x40\n      mstore\n      dup1\n      swap3\n      swap2\n      swap1\n      dup2\n      dup2\n      mstore\n      0x20\n      add\n      dup3\n      dup1\n      sload\n      tag_241\n      swap1\n      tag_82\n      jump\t// in\n    tag_241:\n      dup1\n      iszero\n      tag_242\n      jumpi\n      dup1\n      0x1f\n      lt\n      tag_243\n      jumpi\n      0x0100\n      dup1\n      dup4\n      sload\n      div\n      mul\n      dup4\n      mstore\n      swap2\n      0x20\n      add\n      swap2\n      jump(tag_242)\n    tag_243:\n      dup3\n      add\n      swap2\n      swap1\n      0x00\n      mstore\n      keccak256(0x00, 0x20)\n      swap1\n    tag_244:\n      dup2\n      sload\n      dup2\n      mstore\n      swap1\n      0x01\n      add\n      swap1\n      0x20\n      add\n      dup1\n      dup4\n      gt\n      tag_244\n      jumpi\n      dup3\n      swap1\n      sub\n      0x1f\n      and\n      dup3\n      add\n      swap2\n    tag_242:\n      pop\n      pop\n      pop\n      pop\n      pop\n      dup2\n      mstore\n      pop\n      pop\n        /* \"contracts/userDetails.sol\":2286:2291  manuD */\n      dup3\n        /* \"contracts/userDetails.sol\":2292:2293  i */\n      dup3\n        /* \"contracts/userDetails.sol\":2286:2294  manuD[i] */\n      dup2\n      mload\n      dup2\n      lt\n      tag_245\n      jumpi\n      tag_246\n      tag_117\n      jump\t// in\n    tag_246:\n    tag_245:\n      0x20\n      mul\n      0x20\n      add\n      add\n        /* \"contracts/userDetails.sol\":2286:2333  manuD[i] = userDetailsMapping[manufacturers[i]] */\n      dup2\n      swap1\n      mstore\n      pop\n        /* \"contracts/userDetails.sol\":2257:2260  i++ */\n      dup1\n      dup1\n      tag_247\n      swap1\n      tag_142\n      jump\t// in\n    tag_247:\n      swap2\n      pop\n      pop\n        /* \"contracts/userDetails.sol\":2229:2345  for(uint i=0;i<users.length;i++)... */\n      jump(tag_220)\n    tag_221:\n      pop\n        /* \"contracts/userDetails.sol\":2362:2367  manuD */\n      dup1\n        /* \"contracts/userDetails.sol\":2355:2367  return manuD */\n      swap2\n      pop\n      pop\n        /* \"contracts/userDetails.sol\":2067:2377  function getAllManufacturers() public view returns(userDetails[] memory){... */\n      swap1\n      jump\t// out\n        /* \"contracts/userDetails.sol\":1467:1751  function getAllUsers() public view returns(userDetails[] memory){... */\n    tag_72:\n        /* \"contracts/userDetails.sol\":1510:1530  userDetails[] memory */\n      0x60\n        /* \"contracts/userDetails.sol\":1542:1568  userDetails[] memory userD */\n      0x00\n        /* \"contracts/userDetails.sol\":1589:1594  users */\n      0x01\n        /* \"contracts/userDetails.sol\":1589:1601  users.length */\n      dup1\n      sload\n      swap1\n      pop\n        /* \"contracts/userDetails.sol\":1571:1602  new userDetails[](users.length) */\n      0xffffffffffffffff\n      dup2\n      gt\n      iszero\n      tag_249\n      jumpi\n      tag_250\n      tag_107\n      jump\t// in\n    tag_250:\n    tag_249:\n      mload(0x40)\n      swap1\n      dup1\n      dup3\n      mstore\n      dup1\n      0x20\n      mul\n      0x20\n      add\n      dup3\n      add\n      0x40\n      mstore\n      dup1\n      iszero\n      tag_251\n      jumpi\n      dup2\n      0x20\n      add\n    tag_252:\n      tag_253\n      tag_111\n      jump\t// in\n    tag_253:\n      dup2\n      mstore\n      0x20\n      add\n      swap1\n      0x01\n      swap1\n      sub\n      swap1\n      dup2\n      tag_252\n      jumpi\n      swap1\n      pop\n    tag_251:\n      pop\n        /* \"contracts/userDetails.sol\":1542:1602  userDetails[] memory userD = new userDetails[](users.length) */\n      swap1\n      pop\n        /* \"contracts/userDetails.sol\":1617:1623  uint i */\n      0x00\n        /* \"contracts/userDetails.sol\":1613:1721  for(uint i=0;i<users.length;i++)... */\n    tag_254:\n        /* \"contracts/userDetails.sol\":1628:1633  users */\n      0x01\n        /* \"contracts/userDetails.sol\":1628:1640  users.length */\n      dup1\n      sload\n      swap1\n      pop\n        /* \"contracts/userDetails.sol\":1626:1627  i */\n      dup2\n        /* \"contracts/userDetails.sol\":1626:1640  i<users.length */\n      lt\n        /* \"contracts/userDetails.sol\":1613:1721  for(uint i=0;i<users.length;i++)... */\n      iszero\n      tag_255\n      jumpi\n        /* \"contracts/userDetails.sol\":1681:1699  userDetailsMapping */\n      0x00\n        /* \"contracts/userDetails.sol\":1681:1709  userDetailsMapping[users[i]] */\n      dup1\n        /* \"contracts/userDetails.sol\":1700:1705  users */\n      0x01\n        /* \"contracts/userDetails.sol\":1706:1707  i */\n      dup4\n        /* \"contracts/userDetails.sol\":1700:1708  users[i] */\n      dup2\n      sload\n      dup2\n      lt\n      tag_257\n      jumpi\n      tag_258\n      tag_117\n      jump\t// in\n    tag_258:\n    tag_257:\n      swap1\n      0x00\n      mstore\n      keccak256(0x00, 0x20)\n      add\n      0x00\n      swap1\n      sload\n      swap1\n      0x0100\n      exp\n      swap1\n      div\n      0xffffffffffffffffffffffffffffffffffffffff\n      and\n        /* \"contracts/userDetails.sol\":1681:1709  userDetailsMapping[users[i]] */\n      0xffffffffffffffffffffffffffffffffffffffff\n      and\n      0xffffffffffffffffffffffffffffffffffffffff\n      and\n      dup2\n      mstore\n      0x20\n      add\n      swap1\n      dup2\n      mstore\n      0x20\n      add\n      0x00\n      keccak256\n        /* \"contracts/userDetails.sol\":1670:1709  userD[i] = userDetailsMapping[users[i]] */\n      mload(0x40)\n      dup1\n      0x80\n      add\n      0x40\n      mstore\n      swap1\n      dup2\n      0x00\n      dup3\n      add\n      0x00\n      swap1\n      sload\n      swap1\n      0x0100\n      exp\n      swap1\n      div\n      0xff\n      and\n      0x02\n      dup2\n      gt\n      iszero\n      tag_260\n      jumpi\n      tag_261\n      tag_121\n      jump\t// in\n    tag_261:\n    tag_260:\n      0x02\n      dup2\n      gt\n      iszero\n      tag_262\n      jumpi\n      tag_263\n      tag_121\n      jump\t// in\n    tag_263:\n    tag_262:\n      dup2\n      mstore\n      0x20\n      add\n      0x01\n      dup3\n      add\n      dup1\n      sload\n      tag_264\n      swap1\n      tag_82\n      jump\t// in\n    tag_264:\n      dup1\n      0x1f\n      add\n      0x20\n      dup1\n      swap2\n      div\n      mul\n      0x20\n      add\n      mload(0x40)\n      swap1\n      dup2\n      add\n      0x40\n      mstore\n      dup1\n      swap3\n      swap2\n      swap1\n      dup2\n      dup2\n      mstore\n      0x20\n      add\n      dup3\n      dup1\n      sload\n      tag_265\n      swap1\n      tag_82\n      jump\t// in\n    tag_265:\n      dup1\n      iszero\n      tag_266\n      jumpi\n      dup1\n      0x1f\n      lt\n      tag_267\n      jumpi\n      0x0100\n      dup1\n      dup4\n      sload\n      div\n      mul\n      dup4\n      mstore\n      swap2\n      0x20\n      add\n      swap2\n      jump(tag_266)\n    tag_267:\n      dup3\n      add\n      swap2\n      swap1\n      0x00\n      mstore\n      keccak256(0x00, 0x20)\n      swap1\n    tag_268:\n      dup2\n      sload\n      dup2\n      mstore\n      swap1\n      0x01\n      add\n      swap1\n      0x20\n      add\n      dup1\n      dup4\n      gt\n      tag_268\n      jumpi\n      dup3\n      swap1\n      sub\n      0x1f\n      and\n      dup3\n      add\n      swap2\n    tag_266:\n      pop\n      pop\n      pop\n      pop\n      pop\n      dup2\n      mstore\n      0x20\n      add\n      0x02\n      dup3\n      add\n      dup1\n      sload\n      tag_269\n      swap1\n      tag_82\n      jump\t// in\n    tag_269:\n      dup1\n      0x1f\n      add\n      0x20\n      dup1\n      swap2\n      div\n      mul\n      0x20\n      add\n      mload(0x40)\n      swap1\n      dup2\n      add\n      0x40\n      mstore\n      dup1\n      swap3\n      swap2\n      swap1\n      dup2\n      dup2\n      mstore\n      0x20\n      add\n      dup3\n      dup1\n      sload\n      tag_270\n      swap1\n      tag_82\n      jump\t// in\n    tag_270:\n      dup1\n      iszero\n      tag_271\n      jumpi\n      dup1\n      0x1f\n      lt\n      tag_272\n      jumpi\n      0x0100\n      dup1\n      dup4\n      sload\n      div\n      mul\n      dup4\n      mstore\n      swap2\n      0x20\n      add\n      swap2\n      jump(tag_271)\n    tag_272:\n      dup3\n      add\n      swap2\n      swap1\n      0x00\n      mstore\n      keccak256(0x00, 0x20)\n      swap1\n    tag_273:\n      dup2\n      sload\n      dup2\n      mstore\n      swap1\n      0x01\n      add\n      swap1\n      0x20\n      add\n      dup1\n      dup4\n      gt\n      tag_273\n      jumpi\n      dup3\n      swap1\n      sub\n      0x1f\n      and\n      dup3\n      add\n      swap2\n    tag_271:\n      pop\n      pop\n      pop\n      pop\n      pop\n      dup2\n      mstore\n      0x20\n      add\n      0x03\n      dup3\n      add\n      dup1\n      sload\n      tag_274\n      swap1\n      tag_82\n      jump\t// in\n    tag_274:\n      dup1\n      0x1f\n      add\n      0x20\n      dup1\n      swap2\n      div\n      mul\n      0x20\n      add\n      mload(0x40)\n      swap1\n      dup2\n      add\n      0x40\n      mstore\n      dup1\n      swap3\n      swap2\n      swap1\n      dup2\n      dup2\n      mstore\n      0x20\n      add\n      dup3\n      dup1\n      sload\n      tag_275\n      swap1\n      tag_82\n      jump\t// in\n    tag_275:\n      dup1\n      iszero\n      tag_276\n      jumpi\n      dup1\n      0x1f\n      lt\n      tag_277\n      jumpi\n      0x0100\n      dup1\n      dup4\n      sload\n      div\n      mul\n      dup4\n      mstore\n      swap2\n      0x20\n      add\n      swap2\n      jump(tag_276)\n    tag_277:\n      dup3\n      add\n      swap2\n      swap1\n      0x00\n      mstore\n      keccak256(0x00, 0x20)\n      swap1\n    tag_278:\n      dup2\n      sload\n      dup2\n      mstore\n      swap1\n      0x01\n      add\n      swap1\n      0x20\n      add\n      dup1\n      dup4\n      gt\n      tag_278\n      jumpi\n      dup3\n      swap1\n      sub\n      0x1f\n      and\n      dup3\n      add\n      swap2\n    tag_276:\n      pop\n      pop\n      pop\n      pop\n      pop\n      dup2\n      mstore\n      pop\n      pop\n        /* \"contracts/userDetails.sol\":1670:1675  userD */\n      dup3\n        /* \"contracts/userDetails.sol\":1676:1677  i */\n      dup3\n        /* \"contracts/userDetails.sol\":1670:1678  userD[i] */\n      dup2\n      mload\n      dup2\n      lt\n      tag_279\n      jumpi\n      tag_280\n      tag_117\n      jump\t// in\n    tag_280:\n    tag_279:\n      0x20\n      mul\n      0x20\n      add\n      add\n        /* \"contracts/userDetails.sol\":1670:1709  userD[i] = userDetailsMapping[users[i]] */\n      dup2\n      swap1\n      mstore\n      pop\n        /* \"contracts/userDetails.sol\":1641:1644  i++ */\n      dup1\n      dup1\n      tag_281\n      swap1\n      tag_142\n      jump\t// in\n    tag_281:\n      swap2\n      pop\n      pop\n        /* \"contracts/userDetails.sol\":1613:1721  for(uint i=0;i<users.length;i++)... */\n      jump(tag_254)\n    tag_255:\n      pop\n        /* \"contracts/userDetails.sol\":1738:1743  userD */\n      dup1\n        /* \"contracts/userDetails.sol\":1731:1743  return userD */\n      swap2\n      pop\n      pop\n        /* \"contracts/userDetails.sol\":1467:1751  function getAllUsers() public view returns(userDetails[] memory){... */\n      swap1\n      jump\t// out\n    tag_99:\n      pop\n      dup1\n      sload\n      tag_282\n      swap1\n      tag_82\n      jump\t// in\n    tag_282:\n      0x00\n      dup3\n      sstore\n      dup1\n      0x1f\n      lt\n      tag_284\n      jumpi\n      pop\n      jump(tag_283)\n    tag_284:\n      0x1f\n      add\n      0x20\n      swap1\n      div\n      swap1\n      0x00\n      mstore\n      keccak256(0x00, 0x20)\n      swap1\n      dup2\n      add\n      swap1\n      tag_285\n      swap2\n      swap1\n      tag_286\n      jump\t// in\n    tag_285:\n    tag_283:\n      pop\n      jump\t// out\n    tag_111:\n      mload(0x40)\n      dup1\n      0x80\n      add\n      0x40\n      mstore\n      dup1\n      0x00\n      0x02\n      dup2\n      gt\n      iszero\n      tag_287\n      jumpi\n      tag_288\n      tag_121\n      jump\t// in\n    tag_288:\n    tag_287:\n      dup2\n      mstore\n      0x20\n      add\n      0x60\n      dup2\n      mstore\n      0x20\n      add\n      0x60\n      dup2\n      mstore\n      0x20\n      add\n      0x60\n      dup2\n      mstore\n      pop\n      swap1\n      jump\t// out\n    tag_286:\n    tag_289:\n      dup1\n      dup3\n      gt\n      iszero\n      tag_290\n      jumpi\n      0x00\n      dup2\n      0x00\n      swap1\n      sstore\n      pop\n      0x01\n      add\n      jump(tag_289)\n    tag_290:\n      pop\n      swap1\n      jump\t// out\n        /* \"#utility.yul\":7:82   */\n    tag_291:\n        /* \"#utility.yul\":40:46   */\n      0x00\n        /* \"#utility.yul\":73:75   */\n      0x40\n        /* \"#utility.yul\":67:76   */\n      mload\n        /* \"#utility.yul\":57:76   */\n      swap1\n      pop\n        /* \"#utility.yul\":7:82   */\n      swap1\n      jump\t// out\n        /* \"#utility.yul\":88:205   */\n    tag_292:\n        /* \"#utility.yul\":197:198   */\n      0x00\n        /* \"#utility.yul\":194:195   */\n      dup1\n        /* \"#utility.yul\":187:199   */\n      revert\n        /* \"#utility.yul\":211:328   */\n    tag_293:\n        /* \"#utility.yul\":320:321   */\n      0x00\n        /* \"#utility.yul\":317:318   */\n      dup1\n        /* \"#utility.yul\":310:322   */\n      revert\n        /* \"#utility.yul\":334:451   */\n    tag_294:\n        /* \"#utility.yul\":443:444   */\n      0x00\n        /* \"#utility.yul\":440:441   */\n      dup1\n        /* \"#utility.yul\":433:445   */\n      revert\n        /* \"#utility.yul\":457:574   */\n    tag_295:\n        /* \"#utility.yul\":566:567   */\n      0x00\n        /* \"#utility.yul\":563:564   */\n      dup1\n        /* \"#utility.yul\":556:568   */\n      revert\n        /* \"#utility.yul\":580:682   */\n    tag_296:\n        /* \"#utility.yul\":621:627   */\n      0x00\n        /* \"#utility.yul\":672:674   */\n      0x1f\n        /* \"#utility.yul\":668:675   */\n      not\n        /* \"#utility.yul\":663:665   */\n      0x1f\n        /* \"#utility.yul\":656:661   */\n      dup4\n        /* \"#utility.yul\":652:666   */\n      add\n        /* \"#utility.yul\":648:676   */\n      and\n        /* \"#utility.yul\":638:676   */\n      swap1\n      pop\n        /* \"#utility.yul\":580:682   */\n      swap2\n      swap1\n      pop\n      jump\t// out\n        /* \"#utility.yul\":688:868   */\n    tag_107:\n        /* \"#utility.yul\":736:813   */\n      0x4e487b7100000000000000000000000000000000000000000000000000000000\n        /* \"#utility.yul\":733:734   */\n      0x00\n        /* \"#utility.yul\":726:814   */\n      mstore\n        /* \"#utility.yul\":833:837   */\n      0x41\n        /* \"#utility.yul\":830:831   */\n      0x04\n        /* \"#utility.yul\":823:838   */\n      mstore\n        /* \"#utility.yul\":857:861   */\n      0x24\n        /* \"#utility.yul\":854:855   */\n      0x00\n        /* \"#utility.yul\":847:862   */\n      revert\n        /* \"#utility.yul\":874:1155   */\n    tag_297:\n        /* \"#utility.yul\":957:984   */\n      tag_363\n        /* \"#utility.yul\":979:983   */\n      dup3\n        /* \"#utility.yul\":957:984   */\n      tag_296\n      jump\t// in\n    tag_363:\n        /* \"#utility.yul\":949:955   */\n      dup2\n        /* \"#utility.yul\":945:985   */\n      add\n        /* \"#utility.yul\":1087:1093   */\n      dup2\n        /* \"#utility.yul\":1075:1085   */\n      dup2\n        /* \"#utility.yul\":1072:1094   */\n      lt\n        /* \"#utility.yul\":1051:1069   */\n      0xffffffffffffffff\n        /* \"#utility.yul\":1039:1049   */\n      dup3\n        /* \"#utility.yul\":1036:1070   */\n      gt\n        /* \"#utility.yul\":1033:1095   */\n      or\n        /* \"#utility.yul\":1030:1118   */\n      iszero\n      tag_364\n      jumpi\n        /* \"#utility.yul\":1098:1116   */\n      tag_365\n      tag_107\n      jump\t// in\n    tag_365:\n        /* \"#utility.yul\":1030:1118   */\n    tag_364:\n        /* \"#utility.yul\":1138:1148   */\n      dup1\n        /* \"#utility.yul\":1134:1136   */\n      0x40\n        /* \"#utility.yul\":1127:1149   */\n      mstore\n        /* \"#utility.yul\":917:1155   */\n      pop\n        /* \"#utility.yul\":874:1155   */\n      pop\n      pop\n      jump\t// out\n        /* \"#utility.yul\":1161:1290   */\n    tag_298:\n        /* \"#utility.yul\":1195:1201   */\n      0x00\n        /* \"#utility.yul\":1222:1242   */\n      tag_367\n      tag_291\n      jump\t// in\n    tag_367:\n        /* \"#utility.yul\":1212:1242   */\n      swap1\n      pop\n        /* \"#utility.yul\":1251:1284   */\n      tag_368\n        /* \"#utility.yul\":1279:1283   */\n      dup3\n        /* \"#utility.yul\":1271:1277   */\n      dup3\n        /* \"#utility.yul\":1251:1284   */\n      tag_297\n      jump\t// in\n    tag_368:\n        /* \"#utility.yul\":1161:1290   */\n      swap2\n      swap1\n      pop\n      jump\t// out\n        /* \"#utility.yul\":1296:1603   */\n    tag_299:\n        /* \"#utility.yul\":1357:1361   */\n      0x00\n        /* \"#utility.yul\":1447:1465   */\n      0xffffffffffffffff\n        /* \"#utility.yul\":1439:1445   */\n      dup3\n        /* \"#utility.yul\":1436:1466   */\n      gt\n        /* \"#utility.yul\":1433:1489   */\n      iszero\n      tag_370\n      jumpi\n        /* \"#utility.yul\":1469:1487   */\n      tag_371\n      tag_107\n      jump\t// in\n    tag_371:\n        /* \"#utility.yul\":1433:1489   */\n    tag_370:\n        /* \"#utility.yul\":1507:1536   */\n      tag_372\n        /* \"#utility.yul\":1529:1535   */\n      dup3\n        /* \"#utility.yul\":1507:1536   */\n      tag_296\n      jump\t// in\n    tag_372:\n        /* \"#utility.yul\":1499:1536   */\n      swap1\n      pop\n        /* \"#utility.yul\":1591:1595   */\n      0x20\n        /* \"#utility.yul\":1585:1589   */\n      dup2\n        /* \"#utility.yul\":1581:1596   */\n      add\n        /* \"#utility.yul\":1573:1596   */\n      swap1\n      pop\n        /* \"#utility.yul\":1296:1603   */\n      swap2\n      swap1\n      pop\n      jump\t// out\n        /* \"#utility.yul\":1609:1755   */\n    tag_300:\n        /* \"#utility.yul\":1706:1712   */\n      dup3\n        /* \"#utility.yul\":1701:1704   */\n      dup2\n        /* \"#utility.yul\":1696:1699   */\n      dup4\n        /* \"#utility.yul\":1683:1713   */\n      calldatacopy\n        /* \"#utility.yul\":1747:1748   */\n      0x00\n        /* \"#utility.yul\":1738:1744   */\n      dup4\n        /* \"#utility.yul\":1733:1736   */\n      dup4\n        /* \"#utility.yul\":1729:1745   */\n      add\n        /* \"#utility.yul\":1722:1749   */\n      mstore\n        /* \"#utility.yul\":1609:1755   */\n      pop\n      pop\n      pop\n      jump\t// out\n        /* \"#utility.yul\":1761:2184   */\n    tag_301:\n        /* \"#utility.yul\":1838:1843   */\n      0x00\n        /* \"#utility.yul\":1863:1928   */\n      tag_375\n        /* \"#utility.yul\":1879:1927   */\n      tag_376\n        /* \"#utility.yul\":1920:1926   */\n      dup5\n        /* \"#utility.yul\":1879:1927   */\n      tag_299\n      jump\t// in\n    tag_376:\n        /* \"#utility.yul\":1863:1928   */\n      tag_298\n      jump\t// in\n    tag_375:\n        /* \"#utility.yul\":1854:1928   */\n      swap1\n      pop\n        /* \"#utility.yul\":1951:1957   */\n      dup3\n        /* \"#utility.yul\":1944:1949   */\n      dup2\n        /* \"#utility.yul\":1937:1958   */\n      mstore\n        /* \"#utility.yul\":1989:1993   */\n      0x20\n        /* \"#utility.yul\":1982:1987   */\n      dup2\n        /* \"#utility.yul\":1978:1994   */\n      add\n        /* \"#utility.yul\":2027:2030   */\n      dup5\n        /* \"#utility.yul\":2018:2024   */\n      dup5\n        /* \"#utility.yul\":2013:2016   */\n      dup5\n        /* \"#utility.yul\":2009:2025   */\n      add\n        /* \"#utility.yul\":2006:2031   */\n      gt\n        /* \"#utility.yul\":2003:2115   */\n      iszero\n      tag_377\n      jumpi\n        /* \"#utility.yul\":2034:2113   */\n      tag_378\n      tag_295\n      jump\t// in\n    tag_378:\n        /* \"#utility.yul\":2003:2115   */\n    tag_377:\n        /* \"#utility.yul\":2124:2178   */\n      tag_379\n        /* \"#utility.yul\":2171:2177   */\n      dup5\n        /* \"#utility.yul\":2166:2169   */\n      dup3\n        /* \"#utility.yul\":2161:2164   */\n      dup6\n        /* \"#utility.yul\":2124:2178   */\n      tag_300\n      jump\t// in\n    tag_379:\n        /* \"#utility.yul\":1844:2184   */\n      pop\n        /* \"#utility.yul\":1761:2184   */\n      swap4\n      swap3\n      pop\n      pop\n      pop\n      jump\t// out\n        /* \"#utility.yul\":2203:2541   */\n    tag_302:\n        /* \"#utility.yul\":2258:2263   */\n      0x00\n        /* \"#utility.yul\":2307:2310   */\n      dup3\n        /* \"#utility.yul\":2300:2304   */\n      0x1f\n        /* \"#utility.yul\":2292:2298   */\n      dup4\n        /* \"#utility.yul\":2288:2305   */\n      add\n        /* \"#utility.yul\":2284:2311   */\n      slt\n        /* \"#utility.yul\":2274:2396   */\n      tag_381\n      jumpi\n        /* \"#utility.yul\":2315:2394   */\n      tag_382\n      tag_294\n      jump\t// in\n    tag_382:\n        /* \"#utility.yul\":2274:2396   */\n    tag_381:\n        /* \"#utility.yul\":2432:2438   */\n      dup2\n        /* \"#utility.yul\":2419:2439   */\n      calldataload\n        /* \"#utility.yul\":2457:2535   */\n      tag_383\n        /* \"#utility.yul\":2531:2534   */\n      dup5\n        /* \"#utility.yul\":2523:2529   */\n      dup3\n        /* \"#utility.yul\":2516:2520   */\n      0x20\n        /* \"#utility.yul\":2508:2514   */\n      dup7\n        /* \"#utility.yul\":2504:2521   */\n      add\n        /* \"#utility.yul\":2457:2535   */\n      tag_301\n      jump\t// in\n    tag_383:\n        /* \"#utility.yul\":2448:2535   */\n      swap2\n      pop\n        /* \"#utility.yul\":2264:2541   */\n      pop\n        /* \"#utility.yul\":2203:2541   */\n      swap3\n      swap2\n      pop\n      pop\n      jump\t// out\n        /* \"#utility.yul\":2547:3054   */\n    tag_22:\n        /* \"#utility.yul\":2615:2621   */\n      0x00\n        /* \"#utility.yul\":2664:2666   */\n      0x20\n        /* \"#utility.yul\":2652:2661   */\n      dup3\n        /* \"#utility.yul\":2643:2650   */\n      dup5\n        /* \"#utility.yul\":2639:2662   */\n      sub\n        /* \"#utility.yul\":2635:2667   */\n      slt\n        /* \"#utility.yul\":2632:2751   */\n      iszero\n      tag_385\n      jumpi\n        /* \"#utility.yul\":2670:2749   */\n      tag_386\n      tag_292\n      jump\t// in\n    tag_386:\n        /* \"#utility.yul\":2632:2751   */\n    tag_385:\n        /* \"#utility.yul\":2818:2819   */\n      0x00\n        /* \"#utility.yul\":2807:2816   */\n      dup3\n        /* \"#utility.yul\":2803:2820   */\n      add\n        /* \"#utility.yul\":2790:2821   */\n      calldataload\n        /* \"#utility.yul\":2848:2866   */\n      0xffffffffffffffff\n        /* \"#utility.yul\":2840:2846   */\n      dup2\n        /* \"#utility.yul\":2837:2867   */\n      gt\n        /* \"#utility.yul\":2834:2951   */\n      iszero\n      tag_387\n      jumpi\n        /* \"#utility.yul\":2870:2949   */\n      tag_388\n      tag_293\n      jump\t// in\n    tag_388:\n        /* \"#utility.yul\":2834:2951   */\n    tag_387:\n        /* \"#utility.yul\":2975:3037   */\n      tag_389\n        /* \"#utility.yul\":3029:3036   */\n      dup5\n        /* \"#utility.yul\":3020:3026   */\n      dup3\n        /* \"#utility.yul\":3009:3018   */\n      dup6\n        /* \"#utility.yul\":3005:3027   */\n      add\n        /* \"#utility.yul\":2975:3037   */\n      tag_302\n      jump\t// in\n    tag_389:\n        /* \"#utility.yul\":2965:3037   */\n      swap2\n      pop\n        /* \"#utility.yul\":2761:3047   */\n      pop\n        /* \"#utility.yul\":2547:3054   */\n      swap3\n      swap2\n      pop\n      pop\n      jump\t// out\n        /* \"#utility.yul\":3060:3137   */\n    tag_303:\n        /* \"#utility.yul\":3097:3104   */\n      0x00\n        /* \"#utility.yul\":3126:3131   */\n      dup2\n        /* \"#utility.yul\":3115:3131   */\n      swap1\n      pop\n        /* \"#utility.yul\":3060:3137   */\n      swap2\n      swap1\n      pop\n      jump\t// out\n        /* \"#utility.yul\":3143:3265   */\n    tag_304:\n        /* \"#utility.yul\":3216:3240   */\n      tag_392\n        /* \"#utility.yul\":3234:3239   */\n      dup2\n        /* \"#utility.yul\":3216:3240   */\n      tag_303\n      jump\t// in\n    tag_392:\n        /* \"#utility.yul\":3209:3214   */\n      dup2\n        /* \"#utility.yul\":3206:3241   */\n      eq\n        /* \"#utility.yul\":3196:3259   */\n      tag_393\n      jumpi\n        /* \"#utility.yul\":3255:3256   */\n      0x00\n        /* \"#utility.yul\":3252:3253   */\n      dup1\n        /* \"#utility.yul\":3245:3257   */\n      revert\n        /* \"#utility.yul\":3196:3259   */\n    tag_393:\n        /* \"#utility.yul\":3143:3265   */\n      pop\n      jump\t// out\n        /* \"#utility.yul\":3271:3410   */\n    tag_305:\n        /* \"#utility.yul\":3317:3322   */\n      0x00\n        /* \"#utility.yul\":3355:3361   */\n      dup2\n        /* \"#utility.yul\":3342:3362   */\n      calldataload\n        /* \"#utility.yul\":3333:3362   */\n      swap1\n      pop\n        /* \"#utility.yul\":3371:3404   */\n      tag_395\n        /* \"#utility.yul\":3398:3403   */\n      dup2\n        /* \"#utility.yul\":3371:3404   */\n      tag_304\n      jump\t// in\n    tag_395:\n        /* \"#utility.yul\":3271:3410   */\n      swap3\n      swap2\n      pop\n      pop\n      jump\t// out\n        /* \"#utility.yul\":3416:3745   */\n    tag_26:\n        /* \"#utility.yul\":3475:3481   */\n      0x00\n        /* \"#utility.yul\":3524:3526   */\n      0x20\n        /* \"#utility.yul\":3512:3521   */\n      dup3\n        /* \"#utility.yul\":3503:3510   */\n      dup5\n        /* \"#utility.yul\":3499:3522   */\n      sub\n        /* \"#utility.yul\":3495:3527   */\n      slt\n        /* \"#utility.yul\":3492:3611   */\n      iszero\n      tag_397\n      jumpi\n        /* \"#utility.yul\":3530:3609   */\n      tag_398\n      tag_292\n      jump\t// in\n    tag_398:\n        /* \"#utility.yul\":3492:3611   */\n    tag_397:\n        /* \"#utility.yul\":3650:3651   */\n      0x00\n        /* \"#utility.yul\":3675:3728   */\n      tag_399\n        /* \"#utility.yul\":3720:3727   */\n      dup5\n        /* \"#utility.yul\":3711:3717   */\n      dup3\n        /* \"#utility.yul\":3700:3709   */\n      dup6\n        /* \"#utility.yul\":3696:3718   */\n      add\n        /* \"#utility.yul\":3675:3728   */\n      tag_305\n      jump\t// in\n    tag_399:\n        /* \"#utility.yul\":3665:3728   */\n      swap2\n      pop\n        /* \"#utility.yul\":3621:3738   */\n      pop\n        /* \"#utility.yul\":3416:3745   */\n      swap3\n      swap2\n      pop\n      pop\n      jump\t// out\n        /* \"#utility.yul\":3751:3877   */\n    tag_306:\n        /* \"#utility.yul\":3788:3795   */\n      0x00\n        /* \"#utility.yul\":3828:3870   */\n      0xffffffffffffffffffffffffffffffffffffffff\n        /* \"#utility.yul\":3821:3826   */\n      dup3\n        /* \"#utility.yul\":3817:3871   */\n      and\n        /* \"#utility.yul\":3806:3871   */\n      swap1\n      pop\n        /* \"#utility.yul\":3751:3877   */\n      swap2\n      swap1\n      pop\n      jump\t// out\n        /* \"#utility.yul\":3883:3979   */\n    tag_307:\n        /* \"#utility.yul\":3920:3927   */\n      0x00\n        /* \"#utility.yul\":3949:3973   */\n      tag_402\n        /* \"#utility.yul\":3967:3972   */\n      dup3\n        /* \"#utility.yul\":3949:3973   */\n      tag_306\n      jump\t// in\n    tag_402:\n        /* \"#utility.yul\":3938:3973   */\n      swap1\n      pop\n        /* \"#utility.yul\":3883:3979   */\n      swap2\n      swap1\n      pop\n      jump\t// out\n        /* \"#utility.yul\":3985:4103   */\n    tag_308:\n        /* \"#utility.yul\":4072:4096   */\n      tag_404\n        /* \"#utility.yul\":4090:4095   */\n      dup2\n        /* \"#utility.yul\":4072:4096   */\n      tag_307\n      jump\t// in\n    tag_404:\n        /* \"#utility.yul\":4067:4070   */\n      dup3\n        /* \"#utility.yul\":4060:4097   */\n      mstore\n        /* \"#utility.yul\":3985:4103   */\n      pop\n      pop\n      jump\t// out\n        /* \"#utility.yul\":4109:4331   */\n    tag_29:\n        /* \"#utility.yul\":4202:4206   */\n      0x00\n        /* \"#utility.yul\":4240:4242   */\n      0x20\n        /* \"#utility.yul\":4229:4238   */\n      dup3\n        /* \"#utility.yul\":4225:4243   */\n      add\n        /* \"#utility.yul\":4217:4243   */\n      swap1\n      pop\n        /* \"#utility.yul\":4253:4324   */\n      tag_406\n        /* \"#utility.yul\":4321:4322   */\n      0x00\n        /* \"#utility.yul\":4310:4319   */\n      dup4\n        /* \"#utility.yul\":4306:4323   */\n      add\n        /* \"#utility.yul\":4297:4303   */\n      dup5\n        /* \"#utility.yul\":4253:4324   */\n      tag_308\n      jump\t// in\n    tag_406:\n        /* \"#utility.yul\":4109:4331   */\n      swap3\n      swap2\n      pop\n      pop\n      jump\t// out\n        /* \"#utility.yul\":4337:4459   */\n    tag_309:\n        /* \"#utility.yul\":4410:4434   */\n      tag_408\n        /* \"#utility.yul\":4428:4433   */\n      dup2\n        /* \"#utility.yul\":4410:4434   */\n      tag_307\n      jump\t// in\n    tag_408:\n        /* \"#utility.yul\":4403:4408   */\n      dup2\n        /* \"#utility.yul\":4400:4435   */\n      eq\n        /* \"#utility.yul\":4390:4453   */\n      tag_409\n      jumpi\n        /* \"#utility.yul\":4449:4450   */\n      0x00\n        /* \"#utility.yul\":4446:4447   */\n      dup1\n        /* \"#utility.yul\":4439:4451   */\n      revert\n        /* \"#utility.yul\":4390:4453   */\n    tag_409:\n        /* \"#utility.yul\":4337:4459   */\n      pop\n      jump\t// out\n        /* \"#utility.yul\":4465:4604   */\n    tag_310:\n        /* \"#utility.yul\":4511:4516   */\n      0x00\n        /* \"#utility.yul\":4549:4555   */\n      dup2\n        /* \"#utility.yul\":4536:4556   */\n      calldataload\n        /* \"#utility.yul\":4527:4556   */\n      swap1\n      pop\n        /* \"#utility.yul\":4565:4598   */\n      tag_411\n        /* \"#utility.yul\":4592:4597   */\n      dup2\n        /* \"#utility.yul\":4565:4598   */\n      tag_309\n      jump\t// in\n    tag_411:\n        /* \"#utility.yul\":4465:4604   */\n      swap3\n      swap2\n      pop\n      pop\n      jump\t// out\n        /* \"#utility.yul\":4610:4939   */\n    tag_36:\n        /* \"#utility.yul\":4669:4675   */\n      0x00\n        /* \"#utility.yul\":4718:4720   */\n      0x20\n        /* \"#utility.yul\":4706:4715   */\n      dup3\n        /* \"#utility.yul\":4697:4704   */\n      dup5\n        /* \"#utility.yul\":4693:4716   */\n      sub\n        /* \"#utility.yul\":4689:4721   */\n      slt\n        /* \"#utility.yul\":4686:4805   */\n      iszero\n      tag_413\n      jumpi\n        /* \"#utility.yul\":4724:4803   */\n      tag_414\n      tag_292\n      jump\t// in\n    tag_414:\n        /* \"#utility.yul\":4686:4805   */\n    tag_413:\n        /* \"#utility.yul\":4844:4845   */\n      0x00\n        /* \"#utility.yul\":4869:4922   */\n      tag_415\n        /* \"#utility.yul\":4914:4921   */\n      dup5\n        /* \"#utility.yul\":4905:4911   */\n      dup3\n        /* \"#utility.yul\":4894:4903   */\n      dup6\n        /* \"#utility.yul\":4890:4912   */\n      add\n        /* \"#utility.yul\":4869:4922   */\n      tag_310\n      jump\t// in\n    tag_415:\n        /* \"#utility.yul\":4859:4922   */\n      swap2\n      pop\n        /* \"#utility.yul\":4815:4932   */\n      pop\n        /* \"#utility.yul\":4610:4939   */\n      swap3\n      swap2\n      pop\n      pop\n      jump\t// out\n        /* \"#utility.yul\":4945:5125   */\n    tag_121:\n        /* \"#utility.yul\":4993:5070   */\n      0x4e487b7100000000000000000000000000000000000000000000000000000000\n        /* \"#utility.yul\":4990:4991   */\n      0x00\n        /* \"#utility.yul\":4983:5071   */\n      mstore\n        /* \"#utility.yul\":5090:5094   */\n      0x21\n        /* \"#utility.yul\":5087:5088   */\n      0x04\n        /* \"#utility.yul\":5080:5095   */\n      mstore\n        /* \"#utility.yul\":5114:5118   */\n      0x24\n        /* \"#utility.yul\":5111:5112   */\n      0x00\n        /* \"#utility.yul\":5104:5119   */\n      revert\n        /* \"#utility.yul\":5131:5246   */\n    tag_311:\n        /* \"#utility.yul\":5214:5215   */\n      0x03\n        /* \"#utility.yul\":5207:5212   */\n      dup2\n        /* \"#utility.yul\":5204:5216   */\n      lt\n        /* \"#utility.yul\":5194:5240   */\n      tag_418\n      jumpi\n        /* \"#utility.yul\":5220:5238   */\n      tag_419\n      tag_121\n      jump\t// in\n    tag_419:\n        /* \"#utility.yul\":5194:5240   */\n    tag_418:\n        /* \"#utility.yul\":5131:5246   */\n      pop\n      jump\t// out\n        /* \"#utility.yul\":5252:5383   */\n    tag_312:\n        /* \"#utility.yul\":5299:5306   */\n      0x00\n        /* \"#utility.yul\":5328:5333   */\n      dup2\n        /* \"#utility.yul\":5317:5333   */\n      swap1\n      pop\n        /* \"#utility.yul\":5334:5377   */\n      tag_421\n        /* \"#utility.yul\":5371:5376   */\n      dup3\n        /* \"#utility.yul\":5334:5377   */\n      tag_311\n      jump\t// in\n    tag_421:\n        /* \"#utility.yul\":5252:5383   */\n      swap2\n      swap1\n      pop\n      jump\t// out\n        /* \"#utility.yul\":5389:5520   */\n    tag_313:\n        /* \"#utility.yul\":5447:5456   */\n      0x00\n        /* \"#utility.yul\":5480:5514   */\n      tag_423\n        /* \"#utility.yul\":5508:5513   */\n      dup3\n        /* \"#utility.yul\":5480:5514   */\n      tag_312\n      jump\t// in\n    tag_423:\n        /* \"#utility.yul\":5467:5514   */\n      swap1\n      pop\n        /* \"#utility.yul\":5389:5520   */\n      swap2\n      swap1\n      pop\n      jump\t// out\n        /* \"#utility.yul\":5526:5673   */\n    tag_314:\n        /* \"#utility.yul\":5621:5666   */\n      tag_425\n        /* \"#utility.yul\":5660:5665   */\n      dup2\n        /* \"#utility.yul\":5621:5666   */\n      tag_313\n      jump\t// in\n    tag_425:\n        /* \"#utility.yul\":5616:5619   */\n      dup3\n        /* \"#utility.yul\":5609:5667   */\n      mstore\n        /* \"#utility.yul\":5526:5673   */\n      pop\n      pop\n      jump\t// out\n        /* \"#utility.yul\":5679:5777   */\n    tag_315:\n        /* \"#utility.yul\":5730:5736   */\n      0x00\n        /* \"#utility.yul\":5764:5769   */\n      dup2\n        /* \"#utility.yul\":5758:5770   */\n      mload\n        /* \"#utility.yul\":5748:5770   */\n      swap1\n      pop\n        /* \"#utility.yul\":5679:5777   */\n      swap2\n      swap1\n      pop\n      jump\t// out\n        /* \"#utility.yul\":5783:5951   */\n    tag_316:\n        /* \"#utility.yul\":5866:5877   */\n      0x00\n        /* \"#utility.yul\":5900:5906   */\n      dup3\n        /* \"#utility.yul\":5895:5898   */\n      dup3\n        /* \"#utility.yul\":5888:5907   */\n      mstore\n        /* \"#utility.yul\":5940:5944   */\n      0x20\n        /* \"#utility.yul\":5935:5938   */\n      dup3\n        /* \"#utility.yul\":5931:5945   */\n      add\n        /* \"#utility.yul\":5916:5945   */\n      swap1\n      pop\n        /* \"#utility.yul\":5783:5951   */\n      swap3\n      swap2\n      pop\n      pop\n      jump\t// out\n        /* \"#utility.yul\":5957:6203   */\n    tag_317:\n        /* \"#utility.yul\":6038:6039   */\n      0x00\n        /* \"#utility.yul\":6048:6161   */\n    tag_429:\n        /* \"#utility.yul\":6062:6068   */\n      dup4\n        /* \"#utility.yul\":6059:6060   */\n      dup2\n        /* \"#utility.yul\":6056:6069   */\n      lt\n        /* \"#utility.yul\":6048:6161   */\n      iszero\n      tag_431\n      jumpi\n        /* \"#utility.yul\":6147:6148   */\n      dup1\n        /* \"#utility.yul\":6142:6145   */\n      dup3\n        /* \"#utility.yul\":6138:6149   */\n      add\n        /* \"#utility.yul\":6132:6150   */\n      mload\n        /* \"#utility.yul\":6128:6129   */\n      dup2\n        /* \"#utility.yul\":6123:6126   */\n      dup5\n        /* \"#utility.yul\":6119:6130   */\n      add\n        /* \"#utility.yul\":6112:6151   */\n      mstore\n        /* \"#utility.yul\":6084:6086   */\n      0x20\n        /* \"#utility.yul\":6081:6082   */\n      dup2\n        /* \"#utility.yul\":6077:6087   */\n      add\n        /* \"#utility.yul\":6072:6087   */\n      swap1\n      pop\n        /* \"#utility.yul\":6048:6161   */\n      jump(tag_429)\n    tag_431:\n        /* \"#utility.yul\":6195:6196   */\n      0x00\n        /* \"#utility.yul\":6186:6192   */\n      dup5\n        /* \"#utility.yul\":6181:6184   */\n      dup5\n        /* \"#utility.yul\":6177:6193   */\n      add\n        /* \"#utility.yul\":6170:6197   */\n      mstore\n        /* \"#utility.yul\":6019:6203   */\n      pop\n        /* \"#utility.yul\":5957:6203   */\n      pop\n      pop\n      pop\n      jump\t// out\n        /* \"#utility.yul\":6209:6582   */\n    tag_318:\n        /* \"#utility.yul\":6295:6298   */\n      0x00\n        /* \"#utility.yul\":6323:6361   */\n      tag_433\n        /* \"#utility.yul\":6355:6360   */\n      dup3\n        /* \"#utility.yul\":6323:6361   */\n      tag_315\n      jump\t// in\n    tag_433:\n        /* \"#utility.yul\":6377:6447   */\n      tag_434\n        /* \"#utility.yul\":6440:6446   */\n      dup2\n        /* \"#utility.yul\":6435:6438   */\n      dup6\n        /* \"#utility.yul\":6377:6447   */\n      tag_316\n      jump\t// in\n    tag_434:\n        /* \"#utility.yul\":6370:6447   */\n      swap4\n      pop\n        /* \"#utility.yul\":6456:6521   */\n      tag_435\n        /* \"#utility.yul\":6514:6520   */\n      dup2\n        /* \"#utility.yul\":6509:6512   */\n      dup6\n        /* \"#utility.yul\":6502:6506   */\n      0x20\n        /* \"#utility.yul\":6495:6500   */\n      dup7\n        /* \"#utility.yul\":6491:6507   */\n      add\n        /* \"#utility.yul\":6456:6521   */\n      tag_317\n      jump\t// in\n    tag_435:\n        /* \"#utility.yul\":6546:6575   */\n      tag_436\n        /* \"#utility.yul\":6568:6574   */\n      dup2\n        /* \"#utility.yul\":6546:6575   */\n      tag_296\n      jump\t// in\n    tag_436:\n        /* \"#utility.yul\":6541:6544   */\n      dup5\n        /* \"#utility.yul\":6537:6576   */\n      add\n        /* \"#utility.yul\":6530:6576   */\n      swap2\n      pop\n        /* \"#utility.yul\":6299:6582   */\n      pop\n        /* \"#utility.yul\":6209:6582   */\n      swap3\n      swap2\n      pop\n      pop\n      jump\t// out\n        /* \"#utility.yul\":6588:7418   */\n    tag_39:\n        /* \"#utility.yul\":6827:6831   */\n      0x00\n        /* \"#utility.yul\":6865:6868   */\n      0x80\n        /* \"#utility.yul\":6854:6863   */\n      dup3\n        /* \"#utility.yul\":6850:6869   */\n      add\n        /* \"#utility.yul\":6842:6869   */\n      swap1\n      pop\n        /* \"#utility.yul\":6879:6958   */\n      tag_438\n        /* \"#utility.yul\":6955:6956   */\n      0x00\n        /* \"#utility.yul\":6944:6953   */\n      dup4\n        /* \"#utility.yul\":6940:6957   */\n      add\n        /* \"#utility.yul\":6931:6937   */\n      dup8\n        /* \"#utility.yul\":6879:6958   */\n      tag_314\n      jump\t// in\n    tag_438:\n        /* \"#utility.yul\":7005:7014   */\n      dup2\n        /* \"#utility.yul\":6999:7003   */\n      dup2\n        /* \"#utility.yul\":6995:7015   */\n      sub\n        /* \"#utility.yul\":6990:6992   */\n      0x20\n        /* \"#utility.yul\":6979:6988   */\n      dup4\n        /* \"#utility.yul\":6975:6993   */\n      add\n        /* \"#utility.yul\":6968:7016   */\n      mstore\n        /* \"#utility.yul\":7033:7109   */\n      tag_439\n        /* \"#utility.yul\":7104:7108   */\n      dup2\n        /* \"#utility.yul\":7095:7101   */\n      dup7\n        /* \"#utility.yul\":7033:7109   */\n      tag_318\n      jump\t// in\n    tag_439:\n        /* \"#utility.yul\":7025:7109   */\n      swap1\n      pop\n        /* \"#utility.yul\":7156:7165   */\n      dup2\n        /* \"#utility.yul\":7150:7154   */\n      dup2\n        /* \"#utility.yul\":7146:7166   */\n      sub\n        /* \"#utility.yul\":7141:7143   */\n      0x40\n        /* \"#utility.yul\":7130:7139   */\n      dup4\n        /* \"#utility.yul\":7126:7144   */\n      add\n        /* \"#utility.yul\":7119:7167   */\n      mstore\n        /* \"#utility.yul\":7184:7260   */\n      tag_440\n        /* \"#utility.yul\":7255:7259   */\n      dup2\n        /* \"#utility.yul\":7246:7252   */\n      dup6\n        /* \"#utility.yul\":7184:7260   */\n      tag_318\n      jump\t// in\n    tag_440:\n        /* \"#utility.yul\":7176:7260   */\n      swap1\n      pop\n        /* \"#utility.yul\":7307:7316   */\n      dup2\n        /* \"#utility.yul\":7301:7305   */\n      dup2\n        /* \"#utility.yul\":7297:7317   */\n      sub\n        /* \"#utility.yul\":7292:7294   */\n      0x60\n        /* \"#utility.yul\":7281:7290   */\n      dup4\n        /* \"#utility.yul\":7277:7295   */\n      add\n        /* \"#utility.yul\":7270:7318   */\n      mstore\n        /* \"#utility.yul\":7335:7411   */\n      tag_441\n        /* \"#utility.yul\":7406:7410   */\n      dup2\n        /* \"#utility.yul\":7397:7403   */\n      dup5\n        /* \"#utility.yul\":7335:7411   */\n      tag_318\n      jump\t// in\n    tag_441:\n        /* \"#utility.yul\":7327:7411   */\n      swap1\n      pop\n        /* \"#utility.yul\":6588:7418   */\n      swap6\n      swap5\n      pop\n      pop\n      pop\n      pop\n      pop\n      jump\t// out\n        /* \"#utility.yul\":7424:7565   */\n    tag_319:\n        /* \"#utility.yul\":7518:7524   */\n      0x00\n        /* \"#utility.yul\":7552:7557   */\n      dup2\n        /* \"#utility.yul\":7546:7558   */\n      mload\n        /* \"#utility.yul\":7536:7558   */\n      swap1\n      pop\n        /* \"#utility.yul\":7424:7565   */\n      swap2\n      swap1\n      pop\n      jump\t// out\n        /* \"#utility.yul\":7571:7782   */\n    tag_320:\n        /* \"#utility.yul\":7697:7708   */\n      0x00\n        /* \"#utility.yul\":7731:7737   */\n      dup3\n        /* \"#utility.yul\":7726:7729   */\n      dup3\n        /* \"#utility.yul\":7719:7738   */\n      mstore\n        /* \"#utility.yul\":7771:7775   */\n      0x20\n        /* \"#utility.yul\":7766:7769   */\n      dup3\n        /* \"#utility.yul\":7762:7776   */\n      add\n        /* \"#utility.yul\":7747:7776   */\n      swap1\n      pop\n        /* \"#utility.yul\":7571:7782   */\n      swap3\n      swap2\n      pop\n      pop\n      jump\t// out\n        /* \"#utility.yul\":7788:7947   */\n    tag_321:\n        /* \"#utility.yul\":7882:7886   */\n      0x00\n        /* \"#utility.yul\":7905:7908   */\n      dup2\n        /* \"#utility.yul\":7897:7908   */\n      swap1\n      pop\n        /* \"#utility.yul\":7935:7939   */\n      0x20\n        /* \"#utility.yul\":7930:7933   */\n      dup3\n        /* \"#utility.yul\":7926:7940   */\n      add\n        /* \"#utility.yul\":7918:7940   */\n      swap1\n      pop\n        /* \"#utility.yul\":7788:7947   */\n      swap2\n      swap1\n      pop\n      jump\t// out\n        /* \"#utility.yul\":7953:8090   */\n    tag_322:\n        /* \"#utility.yul\":8038:8083   */\n      tag_446\n        /* \"#utility.yul\":8077:8082   */\n      dup2\n        /* \"#utility.yul\":8038:8083   */\n      tag_313\n      jump\t// in\n    tag_446:\n        /* \"#utility.yul\":8033:8036   */\n      dup3\n        /* \"#utility.yul\":8026:8084   */\n      mstore\n        /* \"#utility.yul\":7953:8090   */\n      pop\n      pop\n      jump\t// out\n        /* \"#utility.yul\":8096:8254   */\n    tag_323:\n        /* \"#utility.yul\":8169:8180   */\n      0x00\n        /* \"#utility.yul\":8203:8209   */\n      dup3\n        /* \"#utility.yul\":8198:8201   */\n      dup3\n        /* \"#utility.yul\":8191:8210   */\n      mstore\n        /* \"#utility.yul\":8243:8247   */\n      0x20\n        /* \"#utility.yul\":8238:8241   */\n      dup3\n        /* \"#utility.yul\":8234:8248   */\n      add\n        /* \"#utility.yul\":8219:8248   */\n      swap1\n      pop\n        /* \"#utility.yul\":8096:8254   */\n      swap3\n      swap2\n      pop\n      pop\n      jump\t// out\n        /* \"#utility.yul\":8260:8613   */\n    tag_324:\n        /* \"#utility.yul\":8336:8339   */\n      0x00\n        /* \"#utility.yul\":8364:8402   */\n      tag_449\n        /* \"#utility.yul\":8396:8401   */\n      dup3\n        /* \"#utility.yul\":8364:8402   */\n      tag_315\n      jump\t// in\n    tag_449:\n        /* \"#utility.yul\":8418:8478   */\n      tag_450\n        /* \"#utility.yul\":8471:8477   */\n      dup2\n        /* \"#utility.yul\":8466:8469   */\n      dup6\n        /* \"#utility.yul\":8418:8478   */\n      tag_323\n      jump\t// in\n    tag_450:\n        /* \"#utility.yul\":8411:8478   */\n      swap4\n      pop\n        /* \"#utility.yul\":8487:8552   */\n      tag_451\n        /* \"#utility.yul\":8545:8551   */\n      dup2\n        /* \"#utility.yul\":8540:8543   */\n      dup6\n        /* \"#utility.yul\":8533:8537   */\n      0x20\n        /* \"#utility.yul\":8526:8531   */\n      dup7\n        /* \"#utility.yul\":8522:8538   */\n      add\n        /* \"#utility.yul\":8487:8552   */\n      tag_317\n      jump\t// in\n    tag_451:\n        /* \"#utility.yul\":8577:8606   */\n      tag_452\n        /* \"#utility.yul\":8599:8605   */\n      dup2\n        /* \"#utility.yul\":8577:8606   */\n      tag_296\n      jump\t// in\n    tag_452:\n        /* \"#utility.yul\":8572:8575   */\n      dup5\n        /* \"#utility.yul\":8568:8607   */\n      add\n        /* \"#utility.yul\":8561:8607   */\n      swap2\n      pop\n        /* \"#utility.yul\":8340:8613   */\n      pop\n        /* \"#utility.yul\":8260:8613   */\n      swap3\n      swap2\n      pop\n      pop\n      jump\t// out\n        /* \"#utility.yul\":8693:9813   */\n    tag_325:\n        /* \"#utility.yul\":8806:8809   */\n      0x00\n        /* \"#utility.yul\":8842:8846   */\n      0x80\n        /* \"#utility.yul\":8837:8840   */\n      dup4\n        /* \"#utility.yul\":8833:8847   */\n      add\n        /* \"#utility.yul\":8933:8937   */\n      0x00\n        /* \"#utility.yul\":8926:8931   */\n      dup4\n        /* \"#utility.yul\":8922:8938   */\n      add\n        /* \"#utility.yul\":8916:8939   */\n      mload\n        /* \"#utility.yul\":8952:9023   */\n      tag_454\n        /* \"#utility.yul\":9017:9021   */\n      0x00\n        /* \"#utility.yul\":9012:9015   */\n      dup7\n        /* \"#utility.yul\":9008:9022   */\n      add\n        /* \"#utility.yul\":8994:9006   */\n      dup3\n        /* \"#utility.yul\":8952:9023   */\n      tag_322\n      jump\t// in\n    tag_454:\n        /* \"#utility.yul\":8857:9033   */\n      pop\n        /* \"#utility.yul\":9119:9123   */\n      0x20\n        /* \"#utility.yul\":9112:9117   */\n      dup4\n        /* \"#utility.yul\":9108:9124   */\n      add\n        /* \"#utility.yul\":9102:9125   */\n      mload\n        /* \"#utility.yul\":9172:9175   */\n      dup5\n        /* \"#utility.yul\":9166:9170   */\n      dup3\n        /* \"#utility.yul\":9162:9176   */\n      sub\n        /* \"#utility.yul\":9155:9159   */\n      0x20\n        /* \"#utility.yul\":9150:9153   */\n      dup7\n        /* \"#utility.yul\":9146:9160   */\n      add\n        /* \"#utility.yul\":9139:9177   */\n      mstore\n        /* \"#utility.yul\":9198:9269   */\n      tag_455\n        /* \"#utility.yul\":9264:9268   */\n      dup3\n        /* \"#utility.yul\":9250:9262   */\n      dup3\n        /* \"#utility.yul\":9198:9269   */\n      tag_324\n      jump\t// in\n    tag_455:\n        /* \"#utility.yul\":9190:9269   */\n      swap2\n      pop\n        /* \"#utility.yul\":9043:9280   */\n      pop\n        /* \"#utility.yul\":9377:9381   */\n      0x40\n        /* \"#utility.yul\":9370:9375   */\n      dup4\n        /* \"#utility.yul\":9366:9382   */\n      add\n        /* \"#utility.yul\":9360:9383   */\n      mload\n        /* \"#utility.yul\":9430:9433   */\n      dup5\n        /* \"#utility.yul\":9424:9428   */\n      dup3\n        /* \"#utility.yul\":9420:9434   */\n      sub\n        /* \"#utility.yul\":9413:9417   */\n      0x40\n        /* \"#utility.yul\":9408:9411   */\n      dup7\n        /* \"#utility.yul\":9404:9418   */\n      add\n        /* \"#utility.yul\":9397:9435   */\n      mstore\n        /* \"#utility.yul\":9456:9527   */\n      tag_456\n        /* \"#utility.yul\":9522:9526   */\n      dup3\n        /* \"#utility.yul\":9508:9520   */\n      dup3\n        /* \"#utility.yul\":9456:9527   */\n      tag_324\n      jump\t// in\n    tag_456:\n        /* \"#utility.yul\":9448:9527   */\n      swap2\n      pop\n        /* \"#utility.yul\":9290:9538   */\n      pop\n        /* \"#utility.yul\":9625:9629   */\n      0x60\n        /* \"#utility.yul\":9618:9623   */\n      dup4\n        /* \"#utility.yul\":9614:9630   */\n      add\n        /* \"#utility.yul\":9608:9631   */\n      mload\n        /* \"#utility.yul\":9678:9681   */\n      dup5\n        /* \"#utility.yul\":9672:9676   */\n      dup3\n        /* \"#utility.yul\":9668:9682   */\n      sub\n        /* \"#utility.yul\":9661:9665   */\n      0x60\n        /* \"#utility.yul\":9656:9659   */\n      dup7\n        /* \"#utility.yul\":9652:9666   */\n      add\n        /* \"#utility.yul\":9645:9683   */\n      mstore\n        /* \"#utility.yul\":9704:9775   */\n      tag_457\n        /* \"#utility.yul\":9770:9774   */\n      dup3\n        /* \"#utility.yul\":9756:9768   */\n      dup3\n        /* \"#utility.yul\":9704:9775   */\n      tag_324\n      jump\t// in\n    tag_457:\n        /* \"#utility.yul\":9696:9775   */\n      swap2\n      pop\n        /* \"#utility.yul\":9548:9786   */\n      pop\n        /* \"#utility.yul\":9803:9807   */\n      dup1\n        /* \"#utility.yul\":9796:9807   */\n      swap2\n      pop\n        /* \"#utility.yul\":8811:9813   */\n      pop\n        /* \"#utility.yul\":8693:9813   */\n      swap3\n      swap2\n      pop\n      pop\n      jump\t// out\n        /* \"#utility.yul\":9819:10083   */\n    tag_326:\n        /* \"#utility.yul\":9942:9952   */\n      0x00\n        /* \"#utility.yul\":9977:10077   */\n      tag_459\n        /* \"#utility.yul\":10073:10076   */\n      dup4\n        /* \"#utility.yul\":10065:10071   */\n      dup4\n        /* \"#utility.yul\":9977:10077   */\n      tag_325\n      jump\t// in\n    tag_459:\n        /* \"#utility.yul\":9963:10077   */\n      swap1\n      pop\n        /* \"#utility.yul\":9819:10083   */\n      swap3\n      swap2\n      pop\n      pop\n      jump\t// out\n        /* \"#utility.yul\":10089:10229   */\n    tag_327:\n        /* \"#utility.yul\":10186:10190   */\n      0x00\n        /* \"#utility.yul\":10218:10222   */\n      0x20\n        /* \"#utility.yul\":10213:10216   */\n      dup3\n        /* \"#utility.yul\":10209:10223   */\n      add\n        /* \"#utility.yul\":10201:10223   */\n      swap1\n      pop\n        /* \"#utility.yul\":10089:10229   */\n      swap2\n      swap1\n      pop\n      jump\t// out\n        /* \"#utility.yul\":10313:11440   */\n    tag_328:\n        /* \"#utility.yul\":10486:10489   */\n      0x00\n        /* \"#utility.yul\":10515:10596   */\n      tag_462\n        /* \"#utility.yul\":10590:10595   */\n      dup3\n        /* \"#utility.yul\":10515:10596   */\n      tag_319\n      jump\t// in\n    tag_462:\n        /* \"#utility.yul\":10612:10725   */\n      tag_463\n        /* \"#utility.yul\":10718:10724   */\n      dup2\n        /* \"#utility.yul\":10713:10716   */\n      dup6\n        /* \"#utility.yul\":10612:10725   */\n      tag_320\n      jump\t// in\n    tag_463:\n        /* \"#utility.yul\":10605:10725   */\n      swap4\n      pop\n        /* \"#utility.yul\":10751:10754   */\n      dup4\n        /* \"#utility.yul\":10796:10800   */\n      0x20\n        /* \"#utility.yul\":10788:10794   */\n      dup3\n        /* \"#utility.yul\":10784:10801   */\n      mul\n        /* \"#utility.yul\":10779:10782   */\n      dup6\n        /* \"#utility.yul\":10775:10802   */\n      add\n        /* \"#utility.yul\":10826:10909   */\n      tag_464\n        /* \"#utility.yul\":10903:10908   */\n      dup6\n        /* \"#utility.yul\":10826:10909   */\n      tag_321\n      jump\t// in\n    tag_464:\n        /* \"#utility.yul\":10932:10939   */\n      dup1\n        /* \"#utility.yul\":10963:10964   */\n      0x00\n        /* \"#utility.yul\":10948:11395   */\n    tag_465:\n        /* \"#utility.yul\":10973:10979   */\n      dup6\n        /* \"#utility.yul\":10970:10971   */\n      dup2\n        /* \"#utility.yul\":10967:10980   */\n      lt\n        /* \"#utility.yul\":10948:11395   */\n      iszero\n      tag_467\n      jumpi\n        /* \"#utility.yul\":11044:11053   */\n      dup5\n        /* \"#utility.yul\":11038:11042   */\n      dup5\n        /* \"#utility.yul\":11034:11054   */\n      sub\n        /* \"#utility.yul\":11029:11032   */\n      dup10\n        /* \"#utility.yul\":11022:11055   */\n      mstore\n        /* \"#utility.yul\":11095:11101   */\n      dup2\n        /* \"#utility.yul\":11089:11102   */\n      mload\n        /* \"#utility.yul\":11123:11241   */\n      tag_468\n        /* \"#utility.yul\":11236:11240   */\n      dup6\n        /* \"#utility.yul\":11221:11234   */\n      dup3\n        /* \"#utility.yul\":11123:11241   */\n      tag_326\n      jump\t// in\n    tag_468:\n        /* \"#utility.yul\":11115:11241   */\n      swap5\n      pop\n        /* \"#utility.yul\":11264:11351   */\n      tag_469\n        /* \"#utility.yul\":11344:11350   */\n      dup4\n        /* \"#utility.yul\":11264:11351   */\n      tag_327\n      jump\t// in\n    tag_469:\n        /* \"#utility.yul\":11254:11351   */\n      swap3\n      pop\n        /* \"#utility.yul\":11380:11384   */\n      0x20\n        /* \"#utility.yul\":11375:11378   */\n      dup11\n        /* \"#utility.yul\":11371:11385   */\n      add\n        /* \"#utility.yul\":11364:11385   */\n      swap10\n      pop\n        /* \"#utility.yul\":11008:11395   */\n      pop\n        /* \"#utility.yul\":10995:10996   */\n      0x01\n        /* \"#utility.yul\":10992:10993   */\n      dup2\n        /* \"#utility.yul\":10988:10997   */\n      add\n        /* \"#utility.yul\":10983:10997   */\n      swap1\n      pop\n        /* \"#utility.yul\":10948:11395   */\n      jump(tag_465)\n    tag_467:\n        /* \"#utility.yul\":10952:10966   */\n      pop\n        /* \"#utility.yul\":11411:11415   */\n      dup3\n        /* \"#utility.yul\":11404:11415   */\n      swap8\n      pop\n        /* \"#utility.yul\":11431:11434   */\n      dup8\n        /* \"#utility.yul\":11424:11434   */\n      swap6\n      pop\n        /* \"#utility.yul\":10491:11440   */\n      pop\n      pop\n      pop\n      pop\n      pop\n        /* \"#utility.yul\":10313:11440   */\n      swap3\n      swap2\n      pop\n      pop\n      jump\t// out\n        /* \"#utility.yul\":11446:11927   */\n    tag_49:\n        /* \"#utility.yul\":11643:11647   */\n      0x00\n        /* \"#utility.yul\":11681:11683   */\n      0x20\n        /* \"#utility.yul\":11670:11679   */\n      dup3\n        /* \"#utility.yul\":11666:11684   */\n      add\n        /* \"#utility.yul\":11658:11684   */\n      swap1\n      pop\n        /* \"#utility.yul\":11730:11739   */\n      dup2\n        /* \"#utility.yul\":11724:11728   */\n      dup2\n        /* \"#utility.yul\":11720:11740   */\n      sub\n        /* \"#utility.yul\":11716:11717   */\n      0x00\n        /* \"#utility.yul\":11705:11714   */\n      dup4\n        /* \"#utility.yul\":11701:11718   */\n      add\n        /* \"#utility.yul\":11694:11741   */\n      mstore\n        /* \"#utility.yul\":11758:11920   */\n      tag_471\n        /* \"#utility.yul\":11915:11919   */\n      dup2\n        /* \"#utility.yul\":11906:11912   */\n      dup5\n        /* \"#utility.yul\":11758:11920   */\n      tag_328\n      jump\t// in\n    tag_471:\n        /* \"#utility.yul\":11750:11920   */\n      swap1\n      pop\n        /* \"#utility.yul\":11446:11927   */\n      swap3\n      swap2\n      pop\n      pop\n      jump\t// out\n        /* \"#utility.yul\":11933:12042   */\n    tag_329:\n        /* \"#utility.yul\":12016:12017   */\n      0x03\n        /* \"#utility.yul\":12009:12014   */\n      dup2\n        /* \"#utility.yul\":12006:12018   */\n      lt\n        /* \"#utility.yul\":11996:12036   */\n      tag_473\n      jumpi\n        /* \"#utility.yul\":12032:12033   */\n      0x00\n        /* \"#utility.yul\":12029:12030   */\n      dup1\n        /* \"#utility.yul\":12022:12034   */\n      revert\n        /* \"#utility.yul\":11996:12036   */\n    tag_473:\n        /* \"#utility.yul\":11933:12042   */\n      pop\n      jump\t// out\n        /* \"#utility.yul\":12048:12207   */\n    tag_330:\n        /* \"#utility.yul\":12104:12109   */\n      0x00\n        /* \"#utility.yul\":12142:12148   */\n      dup2\n        /* \"#utility.yul\":12129:12149   */\n      calldataload\n        /* \"#utility.yul\":12120:12149   */\n      swap1\n      pop\n        /* \"#utility.yul\":12158:12201   */\n      tag_475\n        /* \"#utility.yul\":12195:12200   */\n      dup2\n        /* \"#utility.yul\":12158:12201   */\n      tag_329\n      jump\t// in\n    tag_475:\n        /* \"#utility.yul\":12048:12207   */\n      swap3\n      swap2\n      pop\n      pop\n      jump\t// out\n        /* \"#utility.yul\":12213:12330   */\n    tag_331:\n        /* \"#utility.yul\":12322:12323   */\n      0x00\n        /* \"#utility.yul\":12319:12320   */\n      dup1\n        /* \"#utility.yul\":12312:12324   */\n      revert\n        /* \"#utility.yul\":12336:12453   */\n    tag_332:\n        /* \"#utility.yul\":12445:12446   */\n      0x00\n        /* \"#utility.yul\":12442:12443   */\n      dup1\n        /* \"#utility.yul\":12435:12447   */\n      revert\n        /* \"#utility.yul\":12472:13024   */\n    tag_333:\n        /* \"#utility.yul\":12529:12537   */\n      0x00\n        /* \"#utility.yul\":12539:12545   */\n      dup1\n        /* \"#utility.yul\":12589:12592   */\n      dup4\n        /* \"#utility.yul\":12582:12586   */\n      0x1f\n        /* \"#utility.yul\":12574:12580   */\n      dup5\n        /* \"#utility.yul\":12570:12587   */\n      add\n        /* \"#utility.yul\":12566:12593   */\n      slt\n        /* \"#utility.yul\":12556:12678   */\n      tag_479\n      jumpi\n        /* \"#utility.yul\":12597:12676   */\n      tag_480\n      tag_294\n      jump\t// in\n    tag_480:\n        /* \"#utility.yul\":12556:12678   */\n    tag_479:\n        /* \"#utility.yul\":12710:12716   */\n      dup3\n        /* \"#utility.yul\":12697:12717   */\n      calldataload\n        /* \"#utility.yul\":12687:12717   */\n      swap1\n      pop\n        /* \"#utility.yul\":12740:12758   */\n      0xffffffffffffffff\n        /* \"#utility.yul\":12732:12738   */\n      dup2\n        /* \"#utility.yul\":12729:12759   */\n      gt\n        /* \"#utility.yul\":12726:12843   */\n      iszero\n      tag_481\n      jumpi\n        /* \"#utility.yul\":12762:12841   */\n      tag_482\n      tag_331\n      jump\t// in\n    tag_482:\n        /* \"#utility.yul\":12726:12843   */\n    tag_481:\n        /* \"#utility.yul\":12876:12880   */\n      0x20\n        /* \"#utility.yul\":12868:12874   */\n      dup4\n        /* \"#utility.yul\":12864:12881   */\n      add\n        /* \"#utility.yul\":12852:12881   */\n      swap2\n      pop\n        /* \"#utility.yul\":12930:12933   */\n      dup4\n        /* \"#utility.yul\":12922:12926   */\n      0x01\n        /* \"#utility.yul\":12914:12920   */\n      dup3\n        /* \"#utility.yul\":12910:12927   */\n      mul\n        /* \"#utility.yul\":12900:12908   */\n      dup4\n        /* \"#utility.yul\":12896:12928   */\n      add\n        /* \"#utility.yul\":12893:12934   */\n      gt\n        /* \"#utility.yul\":12890:13018   */\n      iszero\n      tag_483\n      jumpi\n        /* \"#utility.yul\":12937:13016   */\n      tag_484\n      tag_332\n      jump\t// in\n    tag_484:\n        /* \"#utility.yul\":12890:13018   */\n    tag_483:\n        /* \"#utility.yul\":12472:13024   */\n      swap3\n      pop\n      swap3\n      swap1\n      pop\n      jump\t// out\n        /* \"#utility.yul\":13030:14389   */\n    tag_56:\n        /* \"#utility.yul\":13157:13163   */\n      0x00\n        /* \"#utility.yul\":13165:13171   */\n      dup1\n        /* \"#utility.yul\":13173:13179   */\n      0x00\n        /* \"#utility.yul\":13181:13187   */\n      dup1\n        /* \"#utility.yul\":13189:13195   */\n      0x00\n        /* \"#utility.yul\":13197:13203   */\n      dup1\n        /* \"#utility.yul\":13246:13249   */\n      0x80\n        /* \"#utility.yul\":13234:13243   */\n      dup8\n        /* \"#utility.yul\":13225:13232   */\n      dup10\n        /* \"#utility.yul\":13221:13244   */\n      sub\n        /* \"#utility.yul\":13217:13250   */\n      slt\n        /* \"#utility.yul\":13214:13334   */\n      iszero\n      tag_486\n      jumpi\n        /* \"#utility.yul\":13253:13332   */\n      tag_487\n      tag_292\n      jump\t// in\n    tag_487:\n        /* \"#utility.yul\":13214:13334   */\n    tag_486:\n        /* \"#utility.yul\":13373:13374   */\n      0x00\n        /* \"#utility.yul\":13398:13461   */\n      tag_488\n        /* \"#utility.yul\":13453:13460   */\n      dup10\n        /* \"#utility.yul\":13444:13450   */\n      dup3\n        /* \"#utility.yul\":13433:13442   */\n      dup11\n        /* \"#utility.yul\":13429:13451   */\n      add\n        /* \"#utility.yul\":13398:13461   */\n      tag_330\n      jump\t// in\n    tag_488:\n        /* \"#utility.yul\":13388:13461   */\n      swap7\n      pop\n        /* \"#utility.yul\":13344:13471   */\n      pop\n        /* \"#utility.yul\":13538:13540   */\n      0x20\n        /* \"#utility.yul\":13527:13536   */\n      dup8\n        /* \"#utility.yul\":13523:13541   */\n      add\n        /* \"#utility.yul\":13510:13542   */\n      calldataload\n        /* \"#utility.yul\":13569:13587   */\n      0xffffffffffffffff\n        /* \"#utility.yul\":13561:13567   */\n      dup2\n        /* \"#utility.yul\":13558:13588   */\n      gt\n        /* \"#utility.yul\":13555:13672   */\n      iszero\n      tag_489\n      jumpi\n        /* \"#utility.yul\":13591:13670   */\n      tag_490\n      tag_293\n      jump\t// in\n    tag_490:\n        /* \"#utility.yul\":13555:13672   */\n    tag_489:\n        /* \"#utility.yul\":13704:13768   */\n      tag_491\n        /* \"#utility.yul\":13760:13767   */\n      dup10\n        /* \"#utility.yul\":13751:13757   */\n      dup3\n        /* \"#utility.yul\":13740:13749   */\n      dup11\n        /* \"#utility.yul\":13736:13758   */\n      add\n        /* \"#utility.yul\":13704:13768   */\n      tag_333\n      jump\t// in\n    tag_491:\n        /* \"#utility.yul\":13686:13768   */\n      swap6\n      pop\n      swap6\n      pop\n        /* \"#utility.yul\":13481:13778   */\n      pop\n        /* \"#utility.yul\":13845:13847   */\n      0x40\n        /* \"#utility.yul\":13834:13843   */\n      dup8\n        /* \"#utility.yul\":13830:13848   */\n      add\n        /* \"#utility.yul\":13817:13849   */\n      calldataload\n        /* \"#utility.yul\":13876:13894   */\n      0xffffffffffffffff\n        /* \"#utility.yul\":13868:13874   */\n      dup2\n        /* \"#utility.yul\":13865:13895   */\n      gt\n        /* \"#utility.yul\":13862:13979   */\n      iszero\n      tag_492\n      jumpi\n        /* \"#utility.yul\":13898:13977   */\n      tag_493\n      tag_293\n      jump\t// in\n    tag_493:\n        /* \"#utility.yul\":13862:13979   */\n    tag_492:\n        /* \"#utility.yul\":14011:14075   */\n      tag_494\n        /* \"#utility.yul\":14067:14074   */\n      dup10\n        /* \"#utility.yul\":14058:14064   */\n      dup3\n        /* \"#utility.yul\":14047:14056   */\n      dup11\n        /* \"#utility.yul\":14043:14065   */\n      add\n        /* \"#utility.yul\":14011:14075   */\n      tag_333\n      jump\t// in\n    tag_494:\n        /* \"#utility.yul\":13993:14075   */\n      swap4\n      pop\n      swap4\n      pop\n        /* \"#utility.yul\":13788:14085   */\n      pop\n        /* \"#utility.yul\":14152:14154   */\n      0x60\n        /* \"#utility.yul\":14141:14150   */\n      dup8\n        /* \"#utility.yul\":14137:14155   */\n      add\n        /* \"#utility.yul\":14124:14156   */\n      calldataload\n        /* \"#utility.yul\":14183:14201   */\n      0xffffffffffffffff\n        /* \"#utility.yul\":14175:14181   */\n      dup2\n        /* \"#utility.yul\":14172:14202   */\n      gt\n        /* \"#utility.yul\":14169:14286   */\n      iszero\n      tag_495\n      jumpi\n        /* \"#utility.yul\":14205:14284   */\n      tag_496\n      tag_293\n      jump\t// in\n    tag_496:\n        /* \"#utility.yul\":14169:14286   */\n    tag_495:\n        /* \"#utility.yul\":14310:14372   */\n      tag_497\n        /* \"#utility.yul\":14364:14371   */\n      dup10\n        /* \"#utility.yul\":14355:14361   */\n      dup3\n        /* \"#utility.yul\":14344:14353   */\n      dup11\n        /* \"#utility.yul\":14340:14362   */\n      add\n        /* \"#utility.yul\":14310:14372   */\n      tag_302\n      jump\t// in\n    tag_497:\n        /* \"#utility.yul\":14300:14372   */\n      swap2\n      pop\n        /* \"#utility.yul\":14095:14382   */\n      pop\n        /* \"#utility.yul\":13030:14389   */\n      swap3\n      swap6\n      pop\n      swap3\n      swap6\n      pop\n      swap3\n      swap6\n      jump\t// out\n        /* \"#utility.yul\":14395:14575   */\n    tag_334:\n        /* \"#utility.yul\":14443:14520   */\n      0x4e487b7100000000000000000000000000000000000000000000000000000000\n        /* \"#utility.yul\":14440:14441   */\n      0x00\n        /* \"#utility.yul\":14433:14521   */\n      mstore\n        /* \"#utility.yul\":14540:14544   */\n      0x22\n        /* \"#utility.yul\":14537:14538   */\n      0x04\n        /* \"#utility.yul\":14530:14545   */\n      mstore\n        /* \"#utility.yul\":14564:14568   */\n      0x24\n        /* \"#utility.yul\":14561:14562   */\n      0x00\n        /* \"#utility.yul\":14554:14569   */\n      revert\n        /* \"#utility.yul\":14581:14901   */\n    tag_82:\n        /* \"#utility.yul\":14625:14631   */\n      0x00\n        /* \"#utility.yul\":14662:14663   */\n      0x02\n        /* \"#utility.yul\":14656:14660   */\n      dup3\n        /* \"#utility.yul\":14652:14664   */\n      div\n        /* \"#utility.yul\":14642:14664   */\n      swap1\n      pop\n        /* \"#utility.yul\":14709:14710   */\n      0x01\n        /* \"#utility.yul\":14703:14707   */\n      dup3\n        /* \"#utility.yul\":14699:14711   */\n      and\n        /* \"#utility.yul\":14730:14748   */\n      dup1\n        /* \"#utility.yul\":14720:14801   */\n      tag_500\n      jumpi\n        /* \"#utility.yul\":14786:14790   */\n      0x7f\n        /* \"#utility.yul\":14778:14784   */\n      dup3\n        /* \"#utility.yul\":14774:14791   */\n      and\n        /* \"#utility.yul\":14764:14791   */\n      swap2\n      pop\n        /* \"#utility.yul\":14720:14801   */\n    tag_500:\n        /* \"#utility.yul\":14848:14850   */\n      0x20\n        /* \"#utility.yul\":14840:14846   */\n      dup3\n        /* \"#utility.yul\":14837:14851   */\n      lt\n        /* \"#utility.yul\":14817:14835   */\n      dup2\n        /* \"#utility.yul\":14814:14852   */\n      sub\n        /* \"#utility.yul\":14811:14895   */\n      tag_501\n      jumpi\n        /* \"#utility.yul\":14867:14885   */\n      tag_502\n      tag_334\n      jump\t// in\n    tag_502:\n        /* \"#utility.yul\":14811:14895   */\n    tag_501:\n        /* \"#utility.yul\":14632:14901   */\n      pop\n        /* \"#utility.yul\":14581:14901   */\n      swap2\n      swap1\n      pop\n      jump\t// out\n        /* \"#utility.yul\":14907:15047   */\n    tag_335:\n        /* \"#utility.yul\":14955:14959   */\n      0x00\n        /* \"#utility.yul\":14978:14981   */\n      dup2\n        /* \"#utility.yul\":14970:14981   */\n      swap1\n      pop\n        /* \"#utility.yul\":15001:15004   */\n      dup2\n        /* \"#utility.yul\":14998:14999   */\n      0x00\n        /* \"#utility.yul\":14991:15005   */\n      mstore\n        /* \"#utility.yul\":15035:15039   */\n      0x20\n        /* \"#utility.yul\":15032:15033   */\n      0x00\n        /* \"#utility.yul\":15022:15040   */\n      keccak256\n        /* \"#utility.yul\":15014:15040   */\n      swap1\n      pop\n        /* \"#utility.yul\":14907:15047   */\n      swap2\n      swap1\n      pop\n      jump\t// out\n        /* \"#utility.yul\":15053:15146   */\n    tag_336:\n        /* \"#utility.yul\":15090:15096   */\n      0x00\n        /* \"#utility.yul\":15137:15139   */\n      0x20\n        /* \"#utility.yul\":15132:15134   */\n      0x1f\n        /* \"#utility.yul\":15125:15130   */\n      dup4\n        /* \"#utility.yul\":15121:15135   */\n      add\n        /* \"#utility.yul\":15117:15140   */\n      div\n        /* \"#utility.yul\":15107:15140   */\n      swap1\n      pop\n        /* \"#utility.yul\":15053:15146   */\n      swap2\n      swap1\n      pop\n      jump\t// out\n        /* \"#utility.yul\":15152:15259   */\n    tag_337:\n        /* \"#utility.yul\":15196:15204   */\n      0x00\n        /* \"#utility.yul\":15246:15251   */\n      dup3\n        /* \"#utility.yul\":15240:15244   */\n      dup3\n        /* \"#utility.yul\":15236:15252   */\n      shl\n        /* \"#utility.yul\":15215:15252   */\n      swap1\n      pop\n        /* \"#utility.yul\":15152:15259   */\n      swap3\n      swap2\n      pop\n      pop\n      jump\t// out\n        /* \"#utility.yul\":15265:15658   */\n    tag_338:\n        /* \"#utility.yul\":15334:15340   */\n      0x00\n        /* \"#utility.yul\":15384:15385   */\n      0x08\n        /* \"#utility.yul\":15372:15382   */\n      dup4\n        /* \"#utility.yul\":15368:15386   */\n      mul\n        /* \"#utility.yul\":15407:15504   */\n      tag_507\n        /* \"#utility.yul\":15437:15503   */\n      0xffffffffffffffffffffffffffffffffffffffffffffffffffffffffffffffff\n        /* \"#utility.yul\":15426:15435   */\n      dup3\n        /* \"#utility.yul\":15407:15504   */\n      tag_337\n      jump\t// in\n    tag_507:\n        /* \"#utility.yul\":15525:15564   */\n      tag_508\n        /* \"#utility.yul\":15555:15563   */\n      dup7\n        /* \"#utility.yul\":15544:15553   */\n      dup4\n        /* \"#utility.yul\":15525:15564   */\n      tag_337\n      jump\t// in\n    tag_508:\n        /* \"#utility.yul\":15513:15564   */\n      swap6\n      pop\n        /* \"#utility.yul\":15597:15601   */\n      dup1\n        /* \"#utility.yul\":15593:15602   */\n      not\n        /* \"#utility.yul\":15586:15591   */\n      dup5\n        /* \"#utility.yul\":15582:15603   */\n      and\n        /* \"#utility.yul\":15573:15603   */\n      swap4\n      pop\n        /* \"#utility.yul\":15646:15650   */\n      dup1\n        /* \"#utility.yul\":15636:15644   */\n      dup7\n        /* \"#utility.yul\":15632:15651   */\n      and\n        /* \"#utility.yul\":15625:15630   */\n      dup5\n        /* \"#utility.yul\":15622:15652   */\n      or\n        /* \"#utility.yul\":15612:15652   */\n      swap3\n      pop\n        /* \"#utility.yul\":15341:15658   */\n      pop\n      pop\n        /* \"#utility.yul\":15265:15658   */\n      swap4\n      swap3\n      pop\n      pop\n      pop\n      jump\t// out\n        /* \"#utility.yul\":15664:15724   */\n    tag_339:\n        /* \"#utility.yul\":15692:15695   */\n      0x00\n        /* \"#utility.yul\":15713:15718   */\n      dup2\n        /* \"#utility.yul\":15706:15718   */\n      swap1\n      pop\n        /* \"#utility.yul\":15664:15724   */\n      swap2\n      swap1\n      pop\n      jump\t// out\n        /* \"#utility.yul\":15730:15872   */\n    tag_340:\n        /* \"#utility.yul\":15780:15789   */\n      0x00\n        /* \"#utility.yul\":15813:15866   */\n      tag_511\n        /* \"#utility.yul\":15831:15865   */\n      tag_512\n        /* \"#utility.yul\":15840:15864   */\n      tag_513\n        /* \"#utility.yul\":15858:15863   */\n      dup5\n        /* \"#utility.yul\":15840:15864   */\n      tag_303\n      jump\t// in\n    tag_513:\n        /* \"#utility.yul\":15831:15865   */\n      tag_339\n      jump\t// in\n    tag_512:\n        /* \"#utility.yul\":15813:15866   */\n      tag_303\n      jump\t// in\n    tag_511:\n        /* \"#utility.yul\":15800:15866   */\n      swap1\n      pop\n        /* \"#utility.yul\":15730:15872   */\n      swap2\n      swap1\n      pop\n      jump\t// out\n        /* \"#utility.yul\":15878:15953   */\n    tag_341:\n        /* \"#utility.yul\":15921:15924   */\n      0x00\n        /* \"#utility.yul\":15942:15947   */\n      dup2\n        /* \"#utility.yul\":15935:15947   */\n      swap1\n      pop\n        /* \"#utility.yul\":15878:15953   */\n      swap2\n      swap1\n      pop\n      jump\t// out\n        /* \"#utility.yul\":15959:16228   */\n    tag_342:\n        /* \"#utility.yul\":16069:16108   */\n      tag_516\n        /* \"#utility.yul\":16100:16107   */\n      dup4\n        /* \"#utility.yul\":16069:16108   */\n      tag_340\n      jump\t// in\n    tag_516:\n        /* \"#utility.yul\":16130:16221   */\n      tag_517\n        /* \"#utility.yul\":16179:16220   */\n      tag_518\n        /* \"#utility.yul\":16203:16219   */\n      dup3\n        /* \"#utility.yul\":16179:16220   */\n      tag_341\n      jump\t// in\n    tag_518:\n        /* \"#utility.yul\":16171:16177   */\n      dup5\n        /* \"#utility.yul\":16164:16168   */\n      dup5\n        /* \"#utility.yul\":16158:16169   */\n      sload\n        /* \"#utility.yul\":16130:16221   */\n      tag_338\n      jump\t// in\n    tag_517:\n        /* \"#utility.yul\":16124:16128   */\n      dup3\n        /* \"#utility.yul\":16117:16222   */\n      sstore\n        /* \"#utility.yul\":16035:16228   */\n      pop\n        /* \"#utility.yul\":15959:16228   */\n      pop\n      pop\n      pop\n      jump\t// out\n        /* \"#utility.yul\":16234:16307   */\n    tag_343:\n        /* \"#utility.yul\":16279:16282   */\n      0x00\n        /* \"#utility.yul\":16234:16307   */\n      swap1\n      jump\t// out\n        /* \"#utility.yul\":16313:16502   */\n    tag_344:\n        /* \"#utility.yul\":16390:16422   */\n      tag_521\n      tag_343\n      jump\t// in\n    tag_521:\n        /* \"#utility.yul\":16431:16496   */\n      tag_522\n        /* \"#utility.yul\":16489:16495   */\n      dup2\n        /* \"#utility.yul\":16481:16487   */\n      dup5\n        /* \"#utility.yul\":16475:16479   */\n      dup5\n        /* \"#utility.yul\":16431:16496   */\n      tag_342\n      jump\t// in\n    tag_522:\n        /* \"#utility.yul\":16366:16502   */\n      pop\n        /* \"#utility.yul\":16313:16502   */\n      pop\n      pop\n      jump\t// out\n        /* \"#utility.yul\":16508:16694   */\n    tag_345:\n        /* \"#utility.yul\":16568:16688   */\n    tag_524:\n        /* \"#utility.yul\":16585:16588   */\n      dup2\n        /* \"#utility.yul\":16578:16583   */\n      dup2\n        /* \"#utility.yul\":16575:16589   */\n      lt\n        /* \"#utility.yul\":16568:16688   */\n      iszero\n      tag_526\n      jumpi\n        /* \"#utility.yul\":16639:16678   */\n      tag_527\n        /* \"#utility.yul\":16676:16677   */\n      0x00\n        /* \"#utility.yul\":16669:16674   */\n      dup3\n        /* \"#utility.yul\":16639:16678   */\n      tag_344\n      jump\t// in\n    tag_527:\n        /* \"#utility.yul\":16612:16613   */\n      0x01\n        /* \"#utility.yul\":16605:16610   */\n      dup2\n        /* \"#utility.yul\":16601:16614   */\n      add\n        /* \"#utility.yul\":16592:16614   */\n      swap1\n      pop\n        /* \"#utility.yul\":16568:16688   */\n      jump(tag_524)\n    tag_526:\n        /* \"#utility.yul\":16508:16694   */\n      pop\n      pop\n      jump\t// out\n        /* \"#utility.yul\":16700:17241   */\n    tag_346:\n        /* \"#utility.yul\":16800:16802   */\n      0x1f\n        /* \"#utility.yul\":16795:16798   */\n      dup3\n        /* \"#utility.yul\":16792:16803   */\n      gt\n        /* \"#utility.yul\":16789:17234   */\n      iszero\n      tag_529\n      jumpi\n        /* \"#utility.yul\":16834:16871   */\n      tag_530\n        /* \"#utility.yul\":16865:16870   */\n      dup2\n        /* \"#utility.yul\":16834:16871   */\n      tag_335\n      jump\t// in\n    tag_530:\n        /* \"#utility.yul\":16917:16946   */\n      tag_531\n        /* \"#utility.yul\":16935:16945   */\n      dup5\n        /* \"#utility.yul\":16917:16946   */\n      tag_336\n      jump\t// in\n    tag_531:\n        /* \"#utility.yul\":16907:16915   */\n      dup2\n        /* \"#utility.yul\":16903:16947   */\n      add\n        /* \"#utility.yul\":17100:17102   */\n      0x20\n        /* \"#utility.yul\":17088:17098   */\n      dup6\n        /* \"#utility.yul\":17085:17103   */\n      lt\n        /* \"#utility.yul\":17082:17131   */\n      iszero\n      tag_532\n      jumpi\n        /* \"#utility.yul\":17121:17129   */\n      dup2\n        /* \"#utility.yul\":17106:17129   */\n      swap1\n      pop\n        /* \"#utility.yul\":17082:17131   */\n    tag_532:\n        /* \"#utility.yul\":17144:17224   */\n      tag_533\n        /* \"#utility.yul\":17200:17222   */\n      tag_534\n        /* \"#utility.yul\":17218:17221   */\n      dup6\n        /* \"#utility.yul\":17200:17222   */\n      tag_336\n      jump\t// in\n    tag_534:\n        /* \"#utility.yul\":17190:17198   */\n      dup4\n        /* \"#utility.yul\":17186:17223   */\n      add\n        /* \"#utility.yul\":17173:17184   */\n      dup3\n        /* \"#utility.yul\":17144:17224   */\n      tag_345\n      jump\t// in\n    tag_533:\n        /* \"#utility.yul\":16804:17234   */\n      pop\n      pop\n        /* \"#utility.yul\":16789:17234   */\n    tag_529:\n        /* \"#utility.yul\":16700:17241   */\n      pop\n      pop\n      pop\n      jump\t// out\n        /* \"#utility.yul\":17247:17364   */\n    tag_347:\n        /* \"#utility.yul\":17301:17309   */\n      0x00\n        /* \"#utility.yul\":17351:17356   */\n      dup3\n        /* \"#utility.yul\":17345:17349   */\n      dup3\n        /* \"#utility.yul\":17341:17357   */\n      shr\n        /* \"#utility.yul\":17320:17357   */\n      swap1\n      pop\n        /* \"#utility.yul\":17247:17364   */\n      swap3\n      swap2\n      pop\n      pop\n      jump\t// out\n        /* \"#utility.yul\":17370:17539   */\n    tag_348:\n        /* \"#utility.yul\":17414:17420   */\n      0x00\n        /* \"#utility.yul\":17447:17498   */\n      tag_537\n        /* \"#utility.yul\":17495:17496   */\n      0x00\n        /* \"#utility.yul\":17491:17497   */\n      not\n        /* \"#utility.yul\":17483:17488   */\n      dup5\n        /* \"#utility.yul\":17480:17481   */\n      0x08\n        /* \"#utility.yul\":17476:17489   */\n      mul\n        /* \"#utility.yul\":17447:17498   */\n      tag_347\n      jump\t// in\n    tag_537:\n        /* \"#utility.yul\":17443:17499   */\n      not\n        /* \"#utility.yul\":17528:17532   */\n      dup1\n        /* \"#utility.yul\":17522:17526   */\n      dup4\n        /* \"#utility.yul\":17518:17533   */\n      and\n        /* \"#utility.yul\":17508:17533   */\n      swap2\n      pop\n        /* \"#utility.yul\":17421:17539   */\n      pop\n        /* \"#utility.yul\":17370:17539   */\n      swap3\n      swap2\n      pop\n      pop\n      jump\t// out\n        /* \"#utility.yul\":17544:17839   */\n    tag_349:\n        /* \"#utility.yul\":17620:17624   */\n      0x00\n        /* \"#utility.yul\":17766:17795   */\n      tag_539\n        /* \"#utility.yul\":17791:17794   */\n      dup4\n        /* \"#utility.yul\":17785:17789   */\n      dup4\n        /* \"#utility.yul\":17766:17795   */\n      tag_348\n      jump\t// in\n    tag_539:\n        /* \"#utility.yul\":17758:17795   */\n      swap2\n      pop\n        /* \"#utility.yul\":17828:17831   */\n      dup3\n        /* \"#utility.yul\":17825:17826   */\n      0x02\n        /* \"#utility.yul\":17821:17832   */\n      mul\n        /* \"#utility.yul\":17815:17819   */\n      dup3\n        /* \"#utility.yul\":17812:17833   */\n      or\n        /* \"#utility.yul\":17804:17833   */\n      swap1\n      pop\n        /* \"#utility.yul\":17544:17839   */\n      swap3\n      swap2\n      pop\n      pop\n      jump\t// out\n        /* \"#utility.yul\":17844:19234   */\n    tag_76:\n        /* \"#utility.yul\":17959:17995   */\n      tag_541\n        /* \"#utility.yul\":17991:17994   */\n      dup3\n        /* \"#utility.yul\":17959:17995   */\n      tag_315\n      jump\t// in\n    tag_541:\n        /* \"#utility.yul\":18060:18078   */\n      0xffffffffffffffff\n        /* \"#utility.yul\":18052:18058   */\n      dup2\n        /* \"#utility.yul\":18049:18079   */\n      gt\n        /* \"#utility.yul\":18046:18102   */\n      iszero\n      tag_542\n      jumpi\n        /* \"#utility.yul\":18082:18100   */\n      tag_543\n      tag_107\n      jump\t// in\n    tag_543:\n        /* \"#utility.yul\":18046:18102   */\n    tag_542:\n        /* \"#utility.yul\":18126:18164   */\n      tag_544\n        /* \"#utility.yul\":18158:18162   */\n      dup3\n        /* \"#utility.yul\":18152:18163   */\n      sload\n        /* \"#utility.yul\":18126:18164   */\n      tag_82\n      jump\t// in\n    tag_544:\n        /* \"#utility.yul\":18211:18277   */\n      tag_545\n        /* \"#utility.yul\":18270:18276   */\n      dup3\n        /* \"#utility.yul\":18262:18268   */\n      dup3\n        /* \"#utility.yul\":18256:18260   */\n      dup6\n        /* \"#utility.yul\":18211:18277   */\n      tag_346\n      jump\t// in\n    tag_545:\n        /* \"#utility.yul\":18304:18305   */\n      0x00\n        /* \"#utility.yul\":18328:18332   */\n      0x20\n        /* \"#utility.yul\":18315:18332   */\n      swap1\n      pop\n        /* \"#utility.yul\":18360:18362   */\n      0x1f\n        /* \"#utility.yul\":18352:18358   */\n      dup4\n        /* \"#utility.yul\":18349:18363   */\n      gt\n        /* \"#utility.yul\":18377:18378   */\n      0x01\n        /* \"#utility.yul\":18372:18989   */\n      dup2\n      eq\n      tag_547\n      jumpi\n        /* \"#utility.yul\":19033:19034   */\n      0x00\n        /* \"#utility.yul\":19050:19056   */\n      dup5\n        /* \"#utility.yul\":19047:19124   */\n      iszero\n      tag_548\n      jumpi\n        /* \"#utility.yul\":19099:19108   */\n      dup3\n        /* \"#utility.yul\":19094:19097   */\n      dup8\n        /* \"#utility.yul\":19090:19109   */\n      add\n        /* \"#utility.yul\":19084:19110   */\n      mload\n        /* \"#utility.yul\":19075:19110   */\n      swap1\n      pop\n        /* \"#utility.yul\":19047:19124   */\n    tag_548:\n        /* \"#utility.yul\":19150:19217   */\n      tag_549\n        /* \"#utility.yul\":19210:19216   */\n      dup6\n        /* \"#utility.yul\":19203:19208   */\n      dup3\n        /* \"#utility.yul\":19150:19217   */\n      tag_349\n      jump\t// in\n    tag_549:\n        /* \"#utility.yul\":19144:19148   */\n      dup7\n        /* \"#utility.yul\":19137:19218   */\n      sstore\n        /* \"#utility.yul\":19006:19228   */\n      pop\n        /* \"#utility.yul\":18342:19228   */\n      jump(tag_546)\n        /* \"#utility.yul\":18372:18989   */\n    tag_547:\n        /* \"#utility.yul\":18424:18428   */\n      0x1f\n        /* \"#utility.yul\":18420:18429   */\n      not\n        /* \"#utility.yul\":18412:18418   */\n      dup5\n        /* \"#utility.yul\":18408:18430   */\n      and\n        /* \"#utility.yul\":18458:18494   */\n      tag_550\n        /* \"#utility.yul\":18489:18493   */\n      dup7\n        /* \"#utility.yul\":18458:18494   */\n      tag_335\n      jump\t// in\n    tag_550:\n        /* \"#utility.yul\":18516:18517   */\n      0x00\n        /* \"#utility.yul\":18530:18738   */\n    tag_551:\n        /* \"#utility.yul\":18544:18551   */\n      dup3\n        /* \"#utility.yul\":18541:18542   */\n      dup2\n        /* \"#utility.yul\":18538:18552   */\n      lt\n        /* \"#utility.yul\":18530:18738   */\n      iszero\n      tag_553\n      jumpi\n        /* \"#utility.yul\":18623:18632   */\n      dup5\n        /* \"#utility.yul\":18618:18621   */\n      dup10\n        /* \"#utility.yul\":18614:18633   */\n      add\n        /* \"#utility.yul\":18608:18634   */\n      mload\n        /* \"#utility.yul\":18600:18606   */\n      dup3\n        /* \"#utility.yul\":18593:18635   */\n      sstore\n        /* \"#utility.yul\":18674:18675   */\n      0x01\n        /* \"#utility.yul\":18666:18672   */\n      dup3\n        /* \"#utility.yul\":18662:18676   */\n      add\n        /* \"#utility.yul\":18652:18676   */\n      swap2\n      pop\n        /* \"#utility.yul\":18721:18723   */\n      0x20\n        /* \"#utility.yul\":18710:18719   */\n      dup6\n        /* \"#utility.yul\":18706:18724   */\n      add\n        /* \"#utility.yul\":18693:18724   */\n      swap5\n      pop\n        /* \"#utility.yul\":18567:18571   */\n      0x20\n        /* \"#utility.yul\":18564:18565   */\n      dup2\n        /* \"#utility.yul\":18560:18572   */\n      add\n        /* \"#utility.yul\":18555:18572   */\n      swap1\n      pop\n        /* \"#utility.yul\":18530:18738   */\n      jump(tag_551)\n    tag_553:\n        /* \"#utility.yul\":18766:18772   */\n      dup7\n        /* \"#utility.yul\":18757:18764   */\n      dup4\n        /* \"#utility.yul\":18754:18773   */\n      lt\n        /* \"#utility.yul\":18751:18930   */\n      iszero\n      tag_554\n      jumpi\n        /* \"#utility.yul\":18824:18833   */\n      dup5\n        /* \"#utility.yul\":18819:18822   */\n      dup10\n        /* \"#utility.yul\":18815:18834   */\n      add\n        /* \"#utility.yul\":18809:18835   */\n      mload\n        /* \"#utility.yul\":18867:18915   */\n      tag_555\n        /* \"#utility.yul\":18909:18913   */\n      0x1f\n        /* \"#utility.yul\":18901:18907   */\n      dup10\n        /* \"#utility.yul\":18897:18914   */\n      and\n        /* \"#utility.yul\":18886:18895   */\n      dup3\n        /* \"#utility.yul\":18867:18915   */\n      tag_348\n      jump\t// in\n    tag_555:\n        /* \"#utility.yul\":18859:18865   */\n      dup4\n        /* \"#utility.yul\":18852:18916   */\n      sstore\n        /* \"#utility.yul\":18774:18930   */\n      pop\n        /* \"#utility.yul\":18751:18930   */\n    tag_554:\n        /* \"#utility.yul\":18976:18977   */\n      0x01\n        /* \"#utility.yul\":18972:18973   */\n      0x02\n        /* \"#utility.yul\":18964:18970   */\n      dup9\n        /* \"#utility.yul\":18960:18974   */\n      mul\n        /* \"#utility.yul\":18956:18978   */\n      add\n        /* \"#utility.yul\":18950:18954   */\n      dup9\n        /* \"#utility.yul\":18943:18979   */\n      sstore\n        /* \"#utility.yul\":18379:18989   */\n      pop\n      pop\n      pop\n        /* \"#utility.yul\":18342:19228   */\n    tag_546:\n      pop\n        /* \"#utility.yul\":17934:19234   */\n      pop\n      pop\n      pop\n        /* \"#utility.yul\":17844:19234   */\n      pop\n      pop\n      jump\t// out\n        /* \"#utility.yul\":19240:19420   */\n    tag_117:\n        /* \"#utility.yul\":19288:19365   */\n      0x4e487b7100000000000000000000000000000000000000000000000000000000\n        /* \"#utility.yul\":19285:19286   */\n      0x00\n        /* \"#utility.yul\":19278:19366   */\n      mstore\n        /* \"#utility.yul\":19385:19389   */\n      0x32\n        /* \"#utility.yul\":19382:19383   */\n      0x04\n        /* \"#utility.yul\":19375:19390   */\n      mstore\n        /* \"#utility.yul\":19409:19413   */\n      0x24\n        /* \"#utility.yul\":19406:19407   */\n      0x00\n        /* \"#utility.yul\":19399:19414   */\n      revert\n        /* \"#utility.yul\":19426:19606   */\n    tag_350:\n        /* \"#utility.yul\":19474:19551   */\n      0x4e487b7100000000000000000000000000000000000000000000000000000000\n        /* \"#utility.yul\":19471:19472   */\n      0x00\n        /* \"#utility.yul\":19464:19552   */\n      mstore\n        /* \"#utility.yul\":19571:19575   */\n      0x11\n        /* \"#utility.yul\":19568:19569   */\n      0x04\n        /* \"#utility.yul\":19561:19576   */\n      mstore\n        /* \"#utility.yul\":19595:19599   */\n      0x24\n        /* \"#utility.yul\":19592:19593   */\n      0x00\n        /* \"#utility.yul\":19585:19600   */\n      revert\n        /* \"#utility.yul\":19612:19845   */\n    tag_142:\n        /* \"#utility.yul\":19651:19654   */\n      0x00\n        /* \"#utility.yul\":19674:19698   */\n      tag_559\n        /* \"#utility.yul\":19692:19697   */\n      dup3\n        /* \"#utility.yul\":19674:19698   */\n      tag_303\n      jump\t// in\n    tag_559:\n        /* \"#utility.yul\":19665:19698   */\n      swap2\n      pop\n        /* \"#utility.yul\":19720:19786   */\n      0xffffffffffffffffffffffffffffffffffffffffffffffffffffffffffffffff\n        /* \"#utility.yul\":19713:19718   */\n      dup3\n        /* \"#utility.yul\":19710:19787   */\n      sub\n        /* \"#utility.yul\":19707:19810   */\n      tag_560\n      jumpi\n        /* \"#utility.yul\":19790:19808   */\n      tag_561\n      tag_350\n      jump\t// in\n    tag_561:\n        /* \"#utility.yul\":19707:19810   */\n    tag_560:\n        /* \"#utility.yul\":19837:19838   */\n      0x01\n        /* \"#utility.yul\":19830:19835   */\n      dup3\n        /* \"#utility.yul\":19826:19839   */\n      add\n        /* \"#utility.yul\":19819:19839   */\n      swap1\n      pop\n        /* \"#utility.yul\":19612:19845   */\n      swap2\n      swap1\n      pop\n      jump\t// out\n        /* \"#utility.yul\":19851:20020   */\n    tag_351:\n        /* \"#utility.yul\":19935:19946   */\n      0x00\n        /* \"#utility.yul\":19969:19975   */\n      dup3\n        /* \"#utility.yul\":19964:19967   */\n      dup3\n        /* \"#utility.yul\":19957:19976   */\n      mstore\n        /* \"#utility.yul\":20009:20013   */\n      0x20\n        /* \"#utility.yul\":20004:20007   */\n      dup3\n        /* \"#utility.yul\":20000:20014   */\n      add\n        /* \"#utility.yul\":19985:20014   */\n      swap1\n      pop\n        /* \"#utility.yul\":19851:20020   */\n      swap3\n      swap2\n      pop\n      pop\n      jump\t// out\n        /* \"#utility.yul\":20026:20199   */\n    tag_352:\n        /* \"#utility.yul\":20166:20191   */\n      0x5573657220616c72656164792072656769737465726564000000000000000000\n        /* \"#utility.yul\":20162:20163   */\n      0x00\n        /* \"#utility.yul\":20154:20160   */\n      dup3\n        /* \"#utility.yul\":20150:20164   */\n      add\n        /* \"#utility.yul\":20143:20192   */\n      mstore\n        /* \"#utility.yul\":20026:20199   */\n      pop\n      jump\t// out\n        /* \"#utility.yul\":20205:20571   */\n    tag_353:\n        /* \"#utility.yul\":20347:20350   */\n      0x00\n        /* \"#utility.yul\":20368:20435   */\n      tag_565\n        /* \"#utility.yul\":20432:20434   */\n      0x17\n        /* \"#utility.yul\":20427:20430   */\n      dup4\n        /* \"#utility.yul\":20368:20435   */\n      tag_351\n      jump\t// in\n    tag_565:\n        /* \"#utility.yul\":20361:20435   */\n      swap2\n      pop\n        /* \"#utility.yul\":20444:20537   */\n      tag_566\n        /* \"#utility.yul\":20533:20536   */\n      dup3\n        /* \"#utility.yul\":20444:20537   */\n      tag_352\n      jump\t// in\n    tag_566:\n        /* \"#utility.yul\":20562:20564   */\n      0x20\n        /* \"#utility.yul\":20557:20560   */\n      dup3\n        /* \"#utility.yul\":20553:20565   */\n      add\n        /* \"#utility.yul\":20546:20565   */\n      swap1\n      pop\n        /* \"#utility.yul\":20205:20571   */\n      swap2\n      swap1\n      pop\n      jump\t// out\n        /* \"#utility.yul\":20577:20996   */\n    tag_149:\n        /* \"#utility.yul\":20743:20747   */\n      0x00\n        /* \"#utility.yul\":20781:20783   */\n      0x20\n        /* \"#utility.yul\":20770:20779   */\n      dup3\n        /* \"#utility.yul\":20766:20784   */\n      add\n        /* \"#utility.yul\":20758:20784   */\n      swap1\n      pop\n        /* \"#utility.yul\":20830:20839   */\n      dup2\n        /* \"#utility.yul\":20824:20828   */\n      dup2\n        /* \"#utility.yul\":20820:20840   */\n      sub\n        /* \"#utility.yul\":20816:20817   */\n      0x00\n        /* \"#utility.yul\":20805:20814   */\n      dup4\n        /* \"#utility.yul\":20801:20818   */\n      add\n        /* \"#utility.yul\":20794:20841   */\n      mstore\n        /* \"#utility.yul\":20858:20989   */\n      tag_568\n        /* \"#utility.yul\":20984:20988   */\n      dup2\n        /* \"#utility.yul\":20858:20989   */\n      tag_353\n      jump\t// in\n    tag_568:\n        /* \"#utility.yul\":20850:20989   */\n      swap1\n      pop\n        /* \"#utility.yul\":20577:20996   */\n      swap2\n      swap1\n      pop\n      jump\t// out\n\n    auxdata: 0xa264697066735822122004c5e865a8160c6880d466d09fabcdce123f7be4786595af6e553b6783aef8f664736f6c63430008120033\n}\n",
				"bytecode": {
					"linkReferences": {},
					"object": "608060405234801561001057600080fd5b5061239c806100206000396000f3fe608060405234801561001057600080fd5b50600436106100ea5760003560e01c806390175af11161008c578063cea2312111610066578063cea231211461025e578063d1bab1431461028e578063ddba07a4146102aa578063e2842d79146102c8576100ea565b806390175af1146101f45780639ae7d00814610224578063b53305dc14610240576100ea565b80635166608f116100c85780635166608f1461016b5780635c60f2261461019e5780636a26d064146101ba5780638e24c34b146101d6576100ea565b80630c6c92ba146100ef578063365b98b21461010b57806350b492ba1461013b575b600080fd5b610109600480360381019061010491906119be565b6102e6565b005b61012560048036038101906101209190611a3d565b610338565b6040516101329190611aab565b60405180910390f35b61015560048036038101906101509190611a3d565b610377565b6040516101629190611aab565b60405180910390f35b61018560048036038101906101809190611af2565b6103b6565b6040516101959493929190611c15565b60405180910390f35b6101b860048036038101906101b39190611af2565b61058b565b005b6101d460048036038101906101cf91906119be565b610613565b005b6101de610665565b6040516101eb9190611dfb565b60405180910390f35b61020e60048036038101906102099190611a3d565b610985565b60405161021b9190611aab565b60405180910390f35b61023e60048036038101906102399190611ea2565b6109c4565b005b610248610ddc565b6040516102559190611dfb565b60405180910390f35b61027860048036038101906102739190611a3d565b6110fc565b6040516102859190611aab565b60405180910390f35b6102a860048036038101906102a391906119be565b61113b565b005b6102b261118d565b6040516102bf9190611dfb565b60405180910390f35b6102d06114ad565b6040516102dd9190611dfb565b60405180910390f35b806000803373ffffffffffffffffffffffffffffffffffffffff1673ffffffffffffffffffffffffffffffffffffffff16815260200190815260200160002060010190816103349190612171565b5050565b6001818154811061034857600080fd5b906000526020600020016000915054906101000a900473ffffffffffffffffffffffffffffffffffffffff1681565b6004818154811061038757600080fd5b906000526020600020016000915054906101000a900473ffffffffffffffffffffffffffffffffffffffff1681565b60006020528060005260406000206000915090508060000160009054906101000a900460ff16908060010180546103ec90611f94565b80601f016020809104026020016040519081016040528092919081815260200182805461041890611f94565b80156104655780601f1061043a57610100808354040283529160200191610465565b820191906000526020600020905b81548152906001019060200180831161044857829003601f168201915b50505050509080600201805461047a90611f94565b80601f01602080910402602001604051908101604052809291908181526020018280546104a690611f94565b80156104f35780601f106104c8576101008083540402835291602001916104f3565b820191906000526020600020905b8154815290600101906020018083116104d657829003601f168201915b50505050509080600301805461050890611f94565b80601f016020809104026020016040519081016040528092919081815260200182805461053490611f94565b80156105815780601f1061055657610100808354040283529160200191610581565b820191906000526020600020905b81548152906001019060200180831161056457829003601f168201915b5050505050905084565b6000808273ffffffffffffffffffffffffffffffffffffffff1673ffffffffffffffffffffffffffffffffffffffff168152602001908152602001600020600080820160006101000a81549060ff02191690556001820160006105ee91906117cd565b6002820160006105fe91906117cd565b60038201600061060e91906117cd565b505050565b806000803373ffffffffffffffffffffffffffffffffffffffff1673ffffffffffffffffffffffffffffffffffffffff16815260200190815260200160002060020190816106619190612171565b5050565b6060600060048054905067ffffffffffffffff81111561068857610687611893565b5b6040519080825280602002602001820160405280156106c157816020015b6106ae61180d565b8152602001906001900390816106a65790505b50905060005b60018054905081101561097d57600080600483815481106106eb576106ea612243565b5b9060005260206000200160009054906101000a900473ffffffffffffffffffffffffffffffffffffffff1673ffffffffffffffffffffffffffffffffffffffff1673ffffffffffffffffffffffffffffffffffffffff1681526020019081526020016000206040518060800160405290816000820160009054906101000a900460ff1660028111156107805761077f611b1f565b5b600281111561079257610791611b1f565b5b81526020016001820180546107a690611f94565b80601f01602080910402602001604051908101604052809291908181526020018280546107d290611f94565b801561081f5780601f106107f45761010080835404028352916020019161081f565b820191906000526020600020905b81548152906001019060200180831161080257829003601f168201915b5050505050815260200160028201805461083890611f94565b80601f016020809104026020016040519081016040528092919081815260200182805461086490611f94565b80156108b15780601f10610886576101008083540402835291602001916108b1565b820191906000526020600020905b81548152906001019060200180831161089457829003601f168201915b505050505081526020016003820180546108ca90611f94565b80601f01602080910402602001604051908101604052809291908181526020018280546108f690611f94565b80156109435780601f1061091857610100808354040283529160200191610943565b820191906000526020600020905b81548152906001019060200180831161092657829003601f168201915b50505050508152505082828151811061095f5761095e612243565b5b60200260200101819052508080610975906122a1565b9150506106c7565b508091505090565b6003818154811061099557600080fd5b906000526020600020016000915054906101000a900473ffffffffffffffffffffffffffffffffffffffff1681565b60008060003373ffffffffffffffffffffffffffffffffffffffff1673ffffffffffffffffffffffffffffffffffffffff1681526020019081526020016000206001018054610a1290611f94565b905014610a54576040517f08c379a0000000000000000000000000000000000000000000000000000000008152600401610a4b90612346565b60405180910390fd5b6040518060800160405280876002811115610a7257610a71611b1f565b5b815260200186868080601f016020809104026020016040519081016040528093929190818152602001838380828437600081840152601f19601f82011690508083019250505050505050815260200184848080601f016020809104026020016040519081016040528093929190818152602001838380828437600081840152601f19601f820116905080830192505050505050508152602001828152506000803373ffffffffffffffffffffffffffffffffffffffff1673ffffffffffffffffffffffffffffffffffffffff16815260200190815260200160002060008201518160000160006101000a81548160ff02191690836002811115610b7857610b77611b1f565b5b02179055506020820151816001019081610b929190612171565b506040820151816002019081610ba89190612171565b506060820151816003019081610bbe9190612171565b509050506001339080600181540180825580915050600190039060005260206000200160009091909190916101000a81548173ffffffffffffffffffffffffffffffffffffffff021916908373ffffffffffffffffffffffffffffffffffffffff16021790555060006002811115610c3957610c38611b1f565b5b866002811115610c4c57610c4b611b1f565b5b03610cb5576002339080600181540180825580915050600190039060005260206000200160009091909190916101000a81548173ffffffffffffffffffffffffffffffffffffffff021916908373ffffffffffffffffffffffffffffffffffffffff1602179055505b60016002811115610cc957610cc8611b1f565b5b866002811115610cdc57610cdb611b1f565b5b03610d45576003339080600181540180825580915050600190039060005260206000200160009091909190916101000a81548173ffffffffffffffffffffffffffffffffffffffff021916908373ffffffffffffffffffffffffffffffffffffffff1602179055505b600280811115610d5857610d57611b1f565b5b866002811115610d6b57610d6a611b1f565b5b03610dd4576004339080600181540180825580915050600190039060005260206000200160009091909190916101000a81548173ffffffffffffffffffffffffffffffffffffffff021916908373ffffffffffffffffffffffffffffffffffffffff1602179055505b505050505050565b6060600060028054905067ffffffffffffffff811115610dff57610dfe611893565b5b604051908082528060200260200182016040528015610e3857816020015b610e2561180d565b815260200190600190039081610e1d5790505b50905060005b6001805490508110156110f45760008060028381548110610e6257610e61612243565b5b9060005260206000200160009054906101000a900473ffffffffffffffffffffffffffffffffffffffff1673ffffffffffffffffffffffffffffffffffffffff1673ffffffffffffffffffffffffffffffffffffffff1681526020019081526020016000206040518060800160405290816000820160009054906101000a900460ff166002811115610ef757610ef6611b1f565b5b6002811115610f0957610f08611b1f565b5b8152602001600182018054610f1d90611f94565b80601f0160208091040260200160405190810160405280929190818152602001828054610f4990611f94565b8015610f965780601f10610f6b57610100808354040283529160200191610f96565b820191906000526020600020905b815481529060010190602001808311610f7957829003601f168201915b50505050508152602001600282018054610faf90611f94565b80601f0160208091040260200160405190810160405280929190818152602001828054610fdb90611f94565b80156110285780601f10610ffd57610100808354040283529160200191611028565b820191906000526020600020905b81548152906001019060200180831161100b57829003601f168201915b5050505050815260200160038201805461104190611f94565b80601f016020809104026020016040519081016040528092919081815260200182805461106d90611f94565b80156110ba5780601f1061108f576101008083540402835291602001916110ba565b820191906000526020600020905b81548152906001019060200180831161109d57829003601f168201915b5050505050815250508282815181106110d6576110d5612243565b5b602002602001018190525080806110ec906122a1565b915050610e3e565b508091505090565b6002818154811061110c57600080fd5b906000526020600020016000915054906101000a900473ffffffffffffffffffffffffffffffffffffffff1681565b806000803373ffffffffffffffffffffffffffffffffffffffff1673ffffffffffffffffffffffffffffffffffffffff16815260200190815260200160002060030190816111899190612171565b5050565b6060600060038054905067ffffffffffffffff8111156111b0576111af611893565b5b6040519080825280602002602001820160405280156111e957816020015b6111d661180d565b8152602001906001900390816111ce5790505b50905060005b6001805490508110156114a5576000806003838154811061121357611212612243565b5b9060005260206000200160009054906101000a900473ffffffffffffffffffffffffffffffffffffffff1673ffffffffffffffffffffffffffffffffffffffff1673ffffffffffffffffffffffffffffffffffffffff1681526020019081526020016000206040518060800160405290816000820160009054906101000a900460ff1660028111156112a8576112a7611b1f565b5b60028111156112ba576112b9611b1f565b5b81526020016001820180546112ce90611f94565b80601f01602080910402602001604051908101604052809291908181526020018280546112fa90611f94565b80156113475780601f1061131c57610100808354040283529160200191611347565b820191906000526020600020905b81548152906001019060200180831161132a57829003601f168201915b5050505050815260200160028201805461136090611f94565b80601f016020809104026020016040519081016040528092919081815260200182805461138c90611f94565b80156113d95780601f106113ae576101008083540402835291602001916113d9565b820191906000526020600020905b8154815290600101906020018083116113bc57829003601f168201915b505050505081526020016003820180546113f290611f94565b80601f016020809104026020016040519081016040528092919081815260200182805461141e90611f94565b801561146b5780601f106114405761010080835404028352916020019161146b565b820191906000526020600020905b81548152906001019060200180831161144e57829003601f168201915b50505050508152505082828151811061148757611486612243565b5b6020026020010181905250808061149d906122a1565b9150506111ef565b508091505090565b6060600060018054905067ffffffffffffffff8111156114d0576114cf611893565b5b60405190808252806020026020018201604052801561150957816020015b6114f661180d565b8152602001906001900390816114ee5790505b50905060005b6001805490508110156117c5576000806001838154811061153357611532612243565b5b9060005260206000200160009054906101000a900473ffffffffffffffffffffffffffffffffffffffff1673ffffffffffffffffffffffffffffffffffffffff1673ffffffffffffffffffffffffffffffffffffffff1681526020019081526020016000206040518060800160405290816000820160009054906101000a900460ff1660028111156115c8576115c7611b1f565b5b60028111156115da576115d9611b1f565b5b81526020016001820180546115ee90611f94565b80601f016020809104026020016040519081016040528092919081815260200182805461161a90611f94565b80156116675780601f1061163c57610100808354040283529160200191611667565b820191906000526020600020905b81548152906001019060200180831161164a57829003601f168201915b5050505050815260200160028201805461168090611f94565b80601f01602080910402602001604051908101604052809291908181526020018280546116ac90611f94565b80156116f95780601f106116ce576101008083540402835291602001916116f9565b820191906000526020600020905b8154815290600101906020018083116116dc57829003601f168201915b5050505050815260200160038201805461171290611f94565b80601f016020809104026020016040519081016040528092919081815260200182805461173e90611f94565b801561178b5780601f106117605761010080835404028352916020019161178b565b820191906000526020600020905b81548152906001019060200180831161176e57829003601f168201915b5050505050815250508282815181106117a7576117a6612243565b5b602002602001018190525080806117bd906122a1565b91505061150f565b508091505090565b5080546117d990611f94565b6000825580601f106117eb575061180a565b601f0160209004906000526020600020908101906118099190611847565b5b50565b60405180608001604052806000600281111561182c5761182b611b1f565b5b81526020016060815260200160608152602001606081525090565b5b80821115611860576000816000905550600101611848565b5090565b6000604051905090565b600080fd5b600080fd5b600080fd5b600080fd5b6000601f19601f8301169050919050565b7f4e487b7100000000000000000000000000000000000000000000000000000000600052604160045260246000fd5b6118cb82611882565b810181811067ffffffffffffffff821117156118ea576118e9611893565b5b80604052505050565b60006118fd611864565b905061190982826118c2565b919050565b600067ffffffffffffffff82111561192957611928611893565b5b61193282611882565b9050602081019050919050565b82818337600083830152505050565b600061196161195c8461190e565b6118f3565b90508281526020810184848401111561197d5761197c61187d565b5b61198884828561193f565b509392505050565b600082601f8301126119a5576119a4611878565b5b81356119b584826020860161194e565b91505092915050565b6000602082840312156119d4576119d361186e565b5b600082013567ffffffffffffffff8111156119f2576119f1611873565b5b6119fe84828501611990565b91505092915050565b6000819050919050565b611a1a81611a07565b8114611a2557600080fd5b50565b600081359050611a3781611a11565b92915050565b600060208284031215611a5357611a5261186e565b5b6000611a6184828501611a28565b91505092915050565b600073ffffffffffffffffffffffffffffffffffffffff82169050919050565b6000611a9582611a6a565b9050919050565b611aa581611a8a565b82525050565b6000602082019050611ac06000830184611a9c565b92915050565b611acf81611a8a565b8114611ada57600080fd5b50565b600081359050611aec81611ac6565b92915050565b600060208284031215611b0857611b0761186e565b5b6000611b1684828501611add565b91505092915050565b7f4e487b7100000000000000000000000000000000000000000000000000000000600052602160045260246000fd5b60038110611b5f57611b5e611b1f565b5b50565b6000819050611b7082611b4e565b919050565b6000611b8082611b62565b9050919050565b611b9081611b75565b82525050565b600081519050919050565b600082825260208201905092915050565b60005b83811015611bd0578082015181840152602081019050611bb5565b60008484015250505050565b6000611be782611b96565b611bf18185611ba1565b9350611c01818560208601611bb2565b611c0a81611882565b840191505092915050565b6000608082019050611c2a6000830187611b87565b8181036020830152611c3c8186611bdc565b90508181036040830152611c508185611bdc565b90508181036060830152611c648184611bdc565b905095945050505050565b600081519050919050565b600082825260208201905092915050565b6000819050602082019050919050565b611ca481611b75565b82525050565b600082825260208201905092915050565b6000611cc682611b96565b611cd08185611caa565b9350611ce0818560208601611bb2565b611ce981611882565b840191505092915050565b6000608083016000830151611d0c6000860182611c9b565b5060208301518482036020860152611d248282611cbb565b91505060408301518482036040860152611d3e8282611cbb565b91505060608301518482036060860152611d588282611cbb565b9150508091505092915050565b6000611d718383611cf4565b905092915050565b6000602082019050919050565b6000611d9182611c6f565b611d9b8185611c7a565b935083602082028501611dad85611c8b565b8060005b85811015611de95784840389528151611dca8582611d65565b9450611dd583611d79565b925060208a01995050600181019050611db1565b50829750879550505050505092915050565b60006020820190508181036000830152611e158184611d86565b905092915050565b60038110611e2a57600080fd5b50565b600081359050611e3c81611e1d565b92915050565b600080fd5b600080fd5b60008083601f840112611e6257611e61611878565b5b8235905067ffffffffffffffff811115611e7f57611e7e611e42565b5b602083019150836001820283011115611e9b57611e9a611e47565b5b9250929050565b60008060008060008060808789031215611ebf57611ebe61186e565b5b6000611ecd89828a01611e2d565b965050602087013567ffffffffffffffff811115611eee57611eed611873565b5b611efa89828a01611e4c565b9550955050604087013567ffffffffffffffff811115611f1d57611f1c611873565b5b611f2989828a01611e4c565b9350935050606087013567ffffffffffffffff811115611f4c57611f4b611873565b5b611f5889828a01611990565b9150509295509295509295565b7f4e487b7100000000000000000000000000000000000000000000000000000000600052602260045260246000fd5b60006002820490506001821680611fac57607f821691505b602082108103611fbf57611fbe611f65565b5b50919050565b60008190508160005260206000209050919050565b60006020601f8301049050919050565b600082821b905092915050565b6000600883026120277fffffffffffffffffffffffffffffffffffffffffffffffffffffffffffffffff82611fea565b6120318683611fea565b95508019841693508086168417925050509392505050565b6000819050919050565b600061206e61206961206484611a07565b612049565b611a07565b9050919050565b6000819050919050565b61208883612053565b61209c61209482612075565b848454611ff7565b825550505050565b600090565b6120b16120a4565b6120bc81848461207f565b505050565b5b818110156120e0576120d56000826120a9565b6001810190506120c2565b5050565b601f821115612125576120f681611fc5565b6120ff84611fda565b8101602085101561210e578190505b61212261211a85611fda565b8301826120c1565b50505b505050565b600082821c905092915050565b60006121486000198460080261212a565b1980831691505092915050565b60006121618383612137565b9150826002028217905092915050565b61217a82611b96565b67ffffffffffffffff81111561219357612192611893565b5b61219d8254611f94565b6121a88282856120e4565b600060209050601f8311600181146121db57600084156121c9578287015190505b6121d38582612155565b86555061223b565b601f1984166121e986611fc5565b60005b82811015612211578489015182556001820191506020850194506020810190506121ec565b8683101561222e578489015161222a601f891682612137565b8355505b6001600288020188555050505b505050505050565b7f4e487b7100000000000000000000000000000000000000000000000000000000600052603260045260246000fd5b7f4e487b7100000000000000000000000000000000000000000000000000000000600052601160045260246000fd5b60006122ac82611a07565b91507fffffffffffffffffffffffffffffffffffffffffffffffffffffffffffffffff82036122de576122dd612272565b5b600182019050919050565b600082825260208201905092915050565b7f5573657220616c72656164792072656769737465726564000000000000000000600082015250565b60006123306017836122e9565b915061233b826122fa565b602082019050919050565b6000602082019050818103600083015261235f81612323565b905091905056fea264697066735822122004c5e865a8160c6880d466d09fabcdce123f7be4786595af6e553b6783aef8f664736f6c63430008120033",
					"opcodes": "PUSH1 0x80 PUSH1 0x40 MSTORE CALLVALUE DUP1 ISZERO PUSH2 0x10 JUMPI PUSH1 0x0 DUP1 REVERT JUMPDEST POP PUSH2 0x239C DUP1 PUSH2 0x20 PUSH1 0x0 CODECOPY PUSH1 0x0 RETURN INVALID PUSH1 0x80 PUSH1 0x40 MSTORE CALLVALUE DUP1 ISZERO PUSH2 0x10 JUMPI PUSH1 0x0 DUP1 REVERT JUMPDEST POP PUSH1 0x4 CALLDATASIZE LT PUSH2 0xEA JUMPI PUSH1 0x0 CALLDATALOAD PUSH1 0xE0 SHR DUP1 PUSH4 0x90175AF1 GT PUSH2 0x8C JUMPI DUP1 PUSH4 0xCEA23121 GT PUSH2 0x66 JUMPI DUP1 PUSH4 0xCEA23121 EQ PUSH2 0x25E JUMPI DUP1 PUSH4 0xD1BAB143 EQ PUSH2 0x28E JUMPI DUP1 PUSH4 0xDDBA07A4 EQ PUSH2 0x2AA JUMPI DUP1 PUSH4 0xE2842D79 EQ PUSH2 0x2C8 JUMPI PUSH2 0xEA JUMP JUMPDEST DUP1 PUSH4 0x90175AF1 EQ PUSH2 0x1F4 JUMPI DUP1 PUSH4 0x9AE7D008 EQ PUSH2 0x224 JUMPI DUP1 PUSH4 0xB53305DC EQ PUSH2 0x240 JUMPI PUSH2 0xEA JUMP JUMPDEST DUP1 PUSH4 0x5166608F GT PUSH2 0xC8 JUMPI DUP1 PUSH4 0x5166608F EQ PUSH2 0x16B JUMPI DUP1 PUSH4 0x5C60F226 EQ PUSH2 0x19E JUMPI DUP1 PUSH4 0x6A26D064 EQ PUSH2 0x1BA JUMPI DUP1 PUSH4 0x8E24C34B EQ PUSH2 0x1D6 JUMPI PUSH2 0xEA JUMP JUMPDEST DUP1 PUSH4 0xC6C92BA EQ PUSH2 0xEF JUMPI DUP1 PUSH4 0x365B98B2 EQ PUSH2 0x10B JUMPI DUP1 PUSH4 0x50B492BA EQ PUSH2 0x13B JUMPI JUMPDEST PUSH1 0x0 DUP1 REVERT JUMPDEST PUSH2 0x109 PUSH1 0x4 DUP1 CALLDATASIZE SUB DUP2 ADD SWAP1 PUSH2 0x104 SWAP2 SWAP1 PUSH2 0x19BE JUMP JUMPDEST PUSH2 0x2E6 JUMP JUMPDEST STOP JUMPDEST PUSH2 0x125 PUSH1 0x4 DUP1 CALLDATASIZE SUB DUP2 ADD SWAP1 PUSH2 0x120 SWAP2 SWAP1 PUSH2 0x1A3D JUMP JUMPDEST PUSH2 0x338 JUMP JUMPDEST PUSH1 0x40 MLOAD PUSH2 0x132 SWAP2 SWAP1 PUSH2 0x1AAB JUMP JUMPDEST PUSH1 0x40 MLOAD DUP1 SWAP2 SUB SWAP1 RETURN JUMPDEST PUSH2 0x155 PUSH1 0x4 DUP1 CALLDATASIZE SUB DUP2 ADD SWAP1 PUSH2 0x150 SWAP2 SWAP1 PUSH2 0x1A3D JUMP JUMPDEST PUSH2 0x377 JUMP JUMPDEST PUSH1 0x40 MLOAD PUSH2 0x162 SWAP2 SWAP1 PUSH2 0x1AAB JUMP JUMPDEST PUSH1 0x40 MLOAD DUP1 SWAP2 SUB SWAP1 RETURN JUMPDEST PUSH2 0x185 PUSH1 0x4 DUP1 CALLDATASIZE SUB DUP2 ADD SWAP1 PUSH2 0x180 SWAP2 SWAP1 PUSH2 0x1AF2 JUMP JUMPDEST PUSH2 0x3B6 JUMP JUMPDEST PUSH1 0x40 MLOAD PUSH2 0x195 SWAP5 SWAP4 SWAP3 SWAP2 SWAP1 PUSH2 0x1C15 JUMP JUMPDEST PUSH1 0x40 MLOAD DUP1 SWAP2 SUB SWAP1 RETURN JUMPDEST PUSH2 0x1B8 PUSH1 0x4 DUP1 CALLDATASIZE SUB DUP2 ADD SWAP1 PUSH2 0x1B3 SWAP2 SWAP1 PUSH2 0x1AF2 JUMP JUMPDEST PUSH2 0x58B JUMP JUMPDEST STOP JUMPDEST PUSH2 0x1D4 PUSH1 0x4 DUP1 CALLDATASIZE SUB DUP2 ADD SWAP1 PUSH2 0x1CF SWAP2 SWAP1 PUSH2 0x19BE JUMP JUMPDEST PUSH2 0x613 JUMP JUMPDEST STOP JUMPDEST PUSH2 0x1DE PUSH2 0x665 JUMP JUMPDEST PUSH1 0x40 MLOAD PUSH2 0x1EB SWAP2 SWAP1 PUSH2 0x1DFB JUMP JUMPDEST PUSH1 0x40 MLOAD DUP1 SWAP2 SUB SWAP1 RETURN JUMPDEST PUSH2 0x20E PUSH1 0x4 DUP1 CALLDATASIZE SUB DUP2 ADD SWAP1 PUSH2 0x209 SWAP2 SWAP1 PUSH2 0x1A3D JUMP JUMPDEST PUSH2 0x985 JUMP JUMPDEST PUSH1 0x40 MLOAD PUSH2 0x21B SWAP2 SWAP1 PUSH2 0x1AAB JUMP JUMPDEST PUSH1 0x40 MLOAD DUP1 SWAP2 SUB SWAP1 RETURN JUMPDEST PUSH2 0x23E PUSH1 0x4 DUP1 CALLDATASIZE SUB DUP2 ADD SWAP1 PUSH2 0x239 SWAP2 SWAP1 PUSH2 0x1EA2 JUMP JUMPDEST PUSH2 0x9C4 JUMP JUMPDEST STOP JUMPDEST PUSH2 0x248 PUSH2 0xDDC JUMP JUMPDEST PUSH1 0x40 MLOAD PUSH2 0x255 SWAP2 SWAP1 PUSH2 0x1DFB JUMP JUMPDEST PUSH1 0x40 MLOAD DUP1 SWAP2 SUB SWAP1 RETURN JUMPDEST PUSH2 0x278 PUSH1 0x4 DUP1 CALLDATASIZE SUB DUP2 ADD SWAP1 PUSH2 0x273 SWAP2 SWAP1 PUSH2 0x1A3D JUMP JUMPDEST PUSH2 0x10FC JUMP JUMPDEST PUSH1 0x40 MLOAD PUSH2 0x285 SWAP2 SWAP1 PUSH2 0x1AAB JUMP JUMPDEST PUSH1 0x40 MLOAD DUP1 SWAP2 SUB SWAP1 RETURN JUMPDEST PUSH2 0x2A8 PUSH1 0x4 DUP1 CALLDATASIZE SUB DUP2 ADD SWAP1 PUSH2 0x2A3 SWAP2 SWAP1 PUSH2 0x19BE JUMP JUMPDEST PUSH2 0x113B JUMP JUMPDEST STOP JUMPDEST PUSH2 0x2B2 PUSH2 0x118D JUMP JUMPDEST PUSH1 0x40 MLOAD PUSH2 0x2BF SWAP2 SWAP1 PUSH2 0x1DFB JUMP JUMPDEST PUSH1 0x40 MLOAD DUP1 SWAP2 SUB SWAP1 RETURN JUMPDEST PUSH2 0x2D0 PUSH2 0x14AD JUMP JUMPDEST PUSH1 0x40 MLOAD PUSH2 0x2DD SWAP2 SWAP1 PUSH2 0x1DFB JUMP JUMPDEST PUSH1 0x40 MLOAD DUP1 SWAP2 SUB SWAP1 RETURN JUMPDEST DUP1 PUSH1 0x0 DUP1 CALLER PUSH20 0xFFFFFFFFFFFFFFFFFFFFFFFFFFFFFFFFFFFFFFFF AND PUSH20 0xFFFFFFFFFFFFFFFFFFFFFFFFFFFFFFFFFFFFFFFF AND DUP2 MSTORE PUSH1 0x20 ADD SWAP1 DUP2 MSTORE PUSH1 0x20 ADD PUSH1 0x0 KECCAK256 PUSH1 0x1 ADD SWAP1 DUP2 PUSH2 0x334 SWAP2 SWAP1 PUSH2 0x2171 JUMP JUMPDEST POP POP JUMP JUMPDEST PUSH1 0x1 DUP2 DUP2 SLOAD DUP2 LT PUSH2 0x348 JUMPI PUSH1 0x0 DUP1 REVERT JUMPDEST SWAP1 PUSH1 0x0 MSTORE PUSH1 0x20 PUSH1 0x0 KECCAK256 ADD PUSH1 0x0 SWAP2 POP SLOAD SWAP1 PUSH2 0x100 EXP SWAP1 DIV PUSH20 0xFFFFFFFFFFFFFFFFFFFFFFFFFFFFFFFFFFFFFFFF AND DUP2 JUMP JUMPDEST PUSH1 0x4 DUP2 DUP2 SLOAD DUP2 LT PUSH2 0x387 JUMPI PUSH1 0x0 DUP1 REVERT JUMPDEST SWAP1 PUSH1 0x0 MSTORE PUSH1 0x20 PUSH1 0x0 KECCAK256 ADD PUSH1 0x0 SWAP2 POP SLOAD SWAP1 PUSH2 0x100 EXP SWAP1 DIV PUSH20 0xFFFFFFFFFFFFFFFFFFFFFFFFFFFFFFFFFFFFFFFF AND DUP2 JUMP JUMPDEST PUSH1 0x0 PUSH1 0x20 MSTORE DUP1 PUSH1 0x0 MSTORE PUSH1 0x40 PUSH1 0x0 KECCAK256 PUSH1 0x0 SWAP2 POP SWAP1 POP DUP1 PUSH1 0x0 ADD PUSH1 0x0 SWAP1 SLOAD SWAP1 PUSH2 0x100 EXP SWAP1 DIV PUSH1 0xFF AND SWAP1 DUP1 PUSH1 0x1 ADD DUP1 SLOAD PUSH2 0x3EC SWAP1 PUSH2 0x1F94 JUMP JUMPDEST DUP1 PUSH1 0x1F ADD PUSH1 0x20 DUP1 SWAP2 DIV MUL PUSH1 0x20 ADD PUSH1 0x40 MLOAD SWAP1 DUP2 ADD PUSH1 0x40 MSTORE DUP1 SWAP3 SWAP2 SWAP1 DUP2 DUP2 MSTORE PUSH1 0x20 ADD DUP3 DUP1 SLOAD PUSH2 0x418 SWAP1 PUSH2 0x1F94 JUMP JUMPDEST DUP1 ISZERO PUSH2 0x465 JUMPI DUP1 PUSH1 0x1F LT PUSH2 0x43A JUMPI PUSH2 0x100 DUP1 DUP4 SLOAD DIV MUL DUP4 MSTORE SWAP2 PUSH1 0x20 ADD SWAP2 PUSH2 0x465 JUMP JUMPDEST DUP3 ADD SWAP2 SWAP1 PUSH1 0x0 MSTORE PUSH1 0x20 PUSH1 0x0 KECCAK256 SWAP1 JUMPDEST DUP2 SLOAD DUP2 MSTORE SWAP1 PUSH1 0x1 ADD SWAP1 PUSH1 0x20 ADD DUP1 DUP4 GT PUSH2 0x448 JUMPI DUP3 SWAP1 SUB PUSH1 0x1F AND DUP3 ADD SWAP2 JUMPDEST POP POP POP POP POP SWAP1 DUP1 PUSH1 0x2 ADD DUP1 SLOAD PUSH2 0x47A SWAP1 PUSH2 0x1F94 JUMP JUMPDEST DUP1 PUSH1 0x1F ADD PUSH1 0x20 DUP1 SWAP2 DIV MUL PUSH1 0x20 ADD PUSH1 0x40 MLOAD SWAP1 DUP2 ADD PUSH1 0x40 MSTORE DUP1 SWAP3 SWAP2 SWAP1 DUP2 DUP2 MSTORE PUSH1 0x20 ADD DUP3 DUP1 SLOAD PUSH2 0x4A6 SWAP1 PUSH2 0x1F94 JUMP JUMPDEST DUP1 ISZERO PUSH2 0x4F3 JUMPI DUP1 PUSH1 0x1F LT PUSH2 0x4C8 JUMPI PUSH2 0x100 DUP1 DUP4 SLOAD DIV MUL DUP4 MSTORE SWAP2 PUSH1 0x20 ADD SWAP2 PUSH2 0x4F3 JUMP JUMPDEST DUP3 ADD SWAP2 SWAP1 PUSH1 0x0 MSTORE PUSH1 0x20 PUSH1 0x0 KECCAK256 SWAP1 JUMPDEST DUP2 SLOAD DUP2 MSTORE SWAP1 PUSH1 0x1 ADD SWAP1 PUSH1 0x20 ADD DUP1 DUP4 GT PUSH2 0x4D6 JUMPI DUP3 SWAP1 SUB PUSH1 0x1F AND DUP3 ADD SWAP2 JUMPDEST POP POP POP POP POP SWAP1 DUP1 PUSH1 0x3 ADD DUP1 SLOAD PUSH2 0x508 SWAP1 PUSH2 0x1F94 JUMP JUMPDEST DUP1 PUSH1 0x1F ADD PUSH1 0x20 DUP1 SWAP2 DIV MUL PUSH1 0x20 ADD PUSH1 0x40 MLOAD SWAP1 DUP2 ADD PUSH1 0x40 MSTORE DUP1 SWAP3 SWAP2 SWAP1 DUP2 DUP2 MSTORE PUSH1 0x20 ADD DUP3 DUP1 SLOAD PUSH2 0x534 SWAP1 PUSH2 0x1F94 JUMP JUMPDEST DUP1 ISZERO PUSH2 0x581 JUMPI DUP1 PUSH1 0x1F LT PUSH2 0x556 JUMPI PUSH2 0x100 DUP1 DUP4 SLOAD DIV MUL DUP4 MSTORE SWAP2 PUSH1 0x20 ADD SWAP2 PUSH2 0x581 JUMP JUMPDEST DUP3 ADD SWAP2 SWAP1 PUSH1 0x0 MSTORE PUSH1 0x20 PUSH1 0x0 KECCAK256 SWAP1 JUMPDEST DUP2 SLOAD DUP2 MSTORE SWAP1 PUSH1 0x1 ADD SWAP1 PUSH1 0x20 ADD DUP1 DUP4 GT PUSH2 0x564 JUMPI DUP3 SWAP1 SUB PUSH1 0x1F AND DUP3 ADD SWAP2 JUMPDEST POP POP POP POP POP SWAP1 POP DUP5 JUMP JUMPDEST PUSH1 0x0 DUP1 DUP3 PUSH20 0xFFFFFFFFFFFFFFFFFFFFFFFFFFFFFFFFFFFFFFFF AND PUSH20 0xFFFFFFFFFFFFFFFFFFFFFFFFFFFFFFFFFFFFFFFF AND DUP2 MSTORE PUSH1 0x20 ADD SWAP1 DUP2 MSTORE PUSH1 0x20 ADD PUSH1 0x0 KECCAK256 PUSH1 0x0 DUP1 DUP3 ADD PUSH1 0x0 PUSH2 0x100 EXP DUP2 SLOAD SWAP1 PUSH1 0xFF MUL NOT AND SWAP1 SSTORE PUSH1 0x1 DUP3 ADD PUSH1 0x0 PUSH2 0x5EE SWAP2 SWAP1 PUSH2 0x17CD JUMP JUMPDEST PUSH1 0x2 DUP3 ADD PUSH1 0x0 PUSH2 0x5FE SWAP2 SWAP1 PUSH2 0x17CD JUMP JUMPDEST PUSH1 0x3 DUP3 ADD PUSH1 0x0 PUSH2 0x60E SWAP2 SWAP1 PUSH2 0x17CD JUMP JUMPDEST POP POP POP JUMP JUMPDEST DUP1 PUSH1 0x0 DUP1 CALLER PUSH20 0xFFFFFFFFFFFFFFFFFFFFFFFFFFFFFFFFFFFFFFFF AND PUSH20 0xFFFFFFFFFFFFFFFFFFFFFFFFFFFFFFFFFFFFFFFF AND DUP2 MSTORE PUSH1 0x20 ADD SWAP1 DUP2 MSTORE PUSH1 0x20 ADD PUSH1 0x0 KECCAK256 PUSH1 0x2 ADD SWAP1 DUP2 PUSH2 0x661 SWAP2 SWAP1 PUSH2 0x2171 JUMP JUMPDEST POP POP JUMP JUMPDEST PUSH1 0x60 PUSH1 0x0 PUSH1 0x4 DUP1 SLOAD SWAP1 POP PUSH8 0xFFFFFFFFFFFFFFFF DUP2 GT ISZERO PUSH2 0x688 JUMPI PUSH2 0x687 PUSH2 0x1893 JUMP JUMPDEST JUMPDEST PUSH1 0x40 MLOAD SWAP1 DUP1 DUP3 MSTORE DUP1 PUSH1 0x20 MUL PUSH1 0x20 ADD DUP3 ADD PUSH1 0x40 MSTORE DUP1 ISZERO PUSH2 0x6C1 JUMPI DUP2 PUSH1 0x20 ADD JUMPDEST PUSH2 0x6AE PUSH2 0x180D JUMP JUMPDEST DUP2 MSTORE PUSH1 0x20 ADD SWAP1 PUSH1 0x1 SWAP1 SUB SWAP1 DUP2 PUSH2 0x6A6 JUMPI SWAP1 POP JUMPDEST POP SWAP1 POP PUSH1 0x0 JUMPDEST PUSH1 0x1 DUP1 SLOAD SWAP1 POP DUP2 LT ISZERO PUSH2 0x97D JUMPI PUSH1 0x0 DUP1 PUSH1 0x4 DUP4 DUP2 SLOAD DUP2 LT PUSH2 0x6EB JUMPI PUSH2 0x6EA PUSH2 0x2243 JUMP JUMPDEST JUMPDEST SWAP1 PUSH1 0x0 MSTORE PUSH1 0x20 PUSH1 0x0 KECCAK256 ADD PUSH1 0x0 SWAP1 SLOAD SWAP1 PUSH2 0x100 EXP SWAP1 DIV PUSH20 0xFFFFFFFFFFFFFFFFFFFFFFFFFFFFFFFFFFFFFFFF AND PUSH20 0xFFFFFFFFFFFFFFFFFFFFFFFFFFFFFFFFFFFFFFFF AND PUSH20 0xFFFFFFFFFFFFFFFFFFFFFFFFFFFFFFFFFFFFFFFF AND DUP2 MSTORE PUSH1 0x20 ADD SWAP1 DUP2 MSTORE PUSH1 0x20 ADD PUSH1 0x0 KECCAK256 PUSH1 0x40 MLOAD DUP1 PUSH1 0x80 ADD PUSH1 0x40 MSTORE SWAP1 DUP2 PUSH1 0x0 DUP3 ADD PUSH1 0x0 SWAP1 SLOAD SWAP1 PUSH2 0x100 EXP SWAP1 DIV PUSH1 0xFF AND PUSH1 0x2 DUP2 GT ISZERO PUSH2 0x780 JUMPI PUSH2 0x77F PUSH2 0x1B1F JUMP JUMPDEST JUMPDEST PUSH1 0x2 DUP2 GT ISZERO PUSH2 0x792 JUMPI PUSH2 0x791 PUSH2 0x1B1F JUMP JUMPDEST JUMPDEST DUP2 MSTORE PUSH1 0x20 ADD PUSH1 0x1 DUP3 ADD DUP1 SLOAD PUSH2 0x7A6 SWAP1 PUSH2 0x1F94 JUMP JUMPDEST DUP1 PUSH1 0x1F ADD PUSH1 0x20 DUP1 SWAP2 DIV MUL PUSH1 0x20 ADD PUSH1 0x40 MLOAD SWAP1 DUP2 ADD PUSH1 0x40 MSTORE DUP1 SWAP3 SWAP2 SWAP1 DUP2 DUP2 MSTORE PUSH1 0x20 ADD DUP3 DUP1 SLOAD PUSH2 0x7D2 SWAP1 PUSH2 0x1F94 JUMP JUMPDEST DUP1 ISZERO PUSH2 0x81F JUMPI DUP1 PUSH1 0x1F LT PUSH2 0x7F4 JUMPI PUSH2 0x100 DUP1 DUP4 SLOAD DIV MUL DUP4 MSTORE SWAP2 PUSH1 0x20 ADD SWAP2 PUSH2 0x81F JUMP JUMPDEST DUP3 ADD SWAP2 SWAP1 PUSH1 0x0 MSTORE PUSH1 0x20 PUSH1 0x0 KECCAK256 SWAP1 JUMPDEST DUP2 SLOAD DUP2 MSTORE SWAP1 PUSH1 0x1 ADD SWAP1 PUSH1 0x20 ADD DUP1 DUP4 GT PUSH2 0x802 JUMPI DUP3 SWAP1 SUB PUSH1 0x1F AND DUP3 ADD SWAP2 JUMPDEST POP POP POP POP POP DUP2 MSTORE PUSH1 0x20 ADD PUSH1 0x2 DUP3 ADD DUP1 SLOAD PUSH2 0x838 SWAP1 PUSH2 0x1F94 JUMP JUMPDEST DUP1 PUSH1 0x1F ADD PUSH1 0x20 DUP1 SWAP2 DIV MUL PUSH1 0x20 ADD PUSH1 0x40 MLOAD SWAP1 DUP2 ADD PUSH1 0x40 MSTORE DUP1 SWAP3 SWAP2 SWAP1 DUP2 DUP2 MSTORE PUSH1 0x20 ADD DUP3 DUP1 SLOAD PUSH2 0x864 SWAP1 PUSH2 0x1F94 JUMP JUMPDEST DUP1 ISZERO PUSH2 0x8B1 JUMPI DUP1 PUSH1 0x1F LT PUSH2 0x886 JUMPI PUSH2 0x100 DUP1 DUP4 SLOAD DIV MUL DUP4 MSTORE SWAP2 PUSH1 0x20 ADD SWAP2 PUSH2 0x8B1 JUMP JUMPDEST DUP3 ADD SWAP2 SWAP1 PUSH1 0x0 MSTORE PUSH1 0x20 PUSH1 0x0 KECCAK256 SWAP1 JUMPDEST DUP2 SLOAD DUP2 MSTORE SWAP1 PUSH1 0x1 ADD SWAP1 PUSH1 0x20 ADD DUP1 DUP4 GT PUSH2 0x894 JUMPI DUP3 SWAP1 SUB PUSH1 0x1F AND DUP3 ADD SWAP2 JUMPDEST POP POP POP POP POP DUP2 MSTORE PUSH1 0x20 ADD PUSH1 0x3 DUP3 ADD DUP1 SLOAD PUSH2 0x8CA SWAP1 PUSH2 0x1F94 JUMP JUMPDEST DUP1 PUSH1 0x1F ADD PUSH1 0x20 DUP1 SWAP2 DIV MUL PUSH1 0x20 ADD PUSH1 0x40 MLOAD SWAP1 DUP2 ADD PUSH1 0x40 MSTORE DUP1 SWAP3 SWAP2 SWAP1 DUP2 DUP2 MSTORE PUSH1 0x20 ADD DUP3 DUP1 SLOAD PUSH2 0x8F6 SWAP1 PUSH2 0x1F94 JUMP JUMPDEST DUP1 ISZERO PUSH2 0x943 JUMPI DUP1 PUSH1 0x1F LT PUSH2 0x918 JUMPI PUSH2 0x100 DUP1 DUP4 SLOAD DIV MUL DUP4 MSTORE SWAP2 PUSH1 0x20 ADD SWAP2 PUSH2 0x943 JUMP JUMPDEST DUP3 ADD SWAP2 SWAP1 PUSH1 0x0 MSTORE PUSH1 0x20 PUSH1 0x0 KECCAK256 SWAP1 JUMPDEST DUP2 SLOAD DUP2 MSTORE SWAP1 PUSH1 0x1 ADD SWAP1 PUSH1 0x20 ADD DUP1 DUP4 GT PUSH2 0x926 JUMPI DUP3 SWAP1 SUB PUSH1 0x1F AND DUP3 ADD SWAP2 JUMPDEST POP POP POP POP POP DUP2 MSTORE POP POP DUP3 DUP3 DUP2 MLOAD DUP2 LT PUSH2 0x95F JUMPI PUSH2 0x95E PUSH2 0x2243 JUMP JUMPDEST JUMPDEST PUSH1 0x20 MUL PUSH1 0x20 ADD ADD DUP2 SWAP1 MSTORE POP DUP1 DUP1 PUSH2 0x975 SWAP1 PUSH2 0x22A1 JUMP JUMPDEST SWAP2 POP POP PUSH2 0x6C7 JUMP JUMPDEST POP DUP1 SWAP2 POP POP SWAP1 JUMP JUMPDEST PUSH1 0x3 DUP2 DUP2 SLOAD DUP2 LT PUSH2 0x995 JUMPI PUSH1 0x0 DUP1 REVERT JUMPDEST SWAP1 PUSH1 0x0 MSTORE PUSH1 0x20 PUSH1 0x0 KECCAK256 ADD PUSH1 0x0 SWAP2 POP SLOAD SWAP1 PUSH2 0x100 EXP SWAP1 DIV PUSH20 0xFFFFFFFFFFFFFFFFFFFFFFFFFFFFFFFFFFFFFFFF AND DUP2 JUMP JUMPDEST PUSH1 0x0 DUP1 PUSH1 0x0 CALLER PUSH20 0xFFFFFFFFFFFFFFFFFFFFFFFFFFFFFFFFFFFFFFFF AND PUSH20 0xFFFFFFFFFFFFFFFFFFFFFFFFFFFFFFFFFFFFFFFF AND DUP2 MSTORE PUSH1 0x20 ADD SWAP1 DUP2 MSTORE PUSH1 0x20 ADD PUSH1 0x0 KECCAK256 PUSH1 0x1 ADD DUP1 SLOAD PUSH2 0xA12 SWAP1 PUSH2 0x1F94 JUMP JUMPDEST SWAP1 POP EQ PUSH2 0xA54 JUMPI PUSH1 0x40 MLOAD PUSH32 0x8C379A000000000000000000000000000000000000000000000000000000000 DUP2 MSTORE PUSH1 0x4 ADD PUSH2 0xA4B SWAP1 PUSH2 0x2346 JUMP JUMPDEST PUSH1 0x40 MLOAD DUP1 SWAP2 SUB SWAP1 REVERT JUMPDEST PUSH1 0x40 MLOAD DUP1 PUSH1 0x80 ADD PUSH1 0x40 MSTORE DUP1 DUP8 PUSH1 0x2 DUP2 GT ISZERO PUSH2 0xA72 JUMPI PUSH2 0xA71 PUSH2 0x1B1F JUMP JUMPDEST JUMPDEST DUP2 MSTORE PUSH1 0x20 ADD DUP7 DUP7 DUP1 DUP1 PUSH1 0x1F ADD PUSH1 0x20 DUP1 SWAP2 DIV MUL PUSH1 0x20 ADD PUSH1 0x40 MLOAD SWAP1 DUP2 ADD PUSH1 0x40 MSTORE DUP1 SWAP4 SWAP3 SWAP2 SWAP1 DUP2 DUP2 MSTORE PUSH1 0x20 ADD DUP4 DUP4 DUP1 DUP3 DUP5 CALLDATACOPY PUSH1 0x0 DUP2 DUP5 ADD MSTORE PUSH1 0x1F NOT PUSH1 0x1F DUP3 ADD AND SWAP1 POP DUP1 DUP4 ADD SWAP3 POP POP POP POP POP POP POP DUP2 MSTORE PUSH1 0x20 ADD DUP5 DUP5 DUP1 DUP1 PUSH1 0x1F ADD PUSH1 0x20 DUP1 SWAP2 DIV MUL PUSH1 0x20 ADD PUSH1 0x40 MLOAD SWAP1 DUP2 ADD PUSH1 0x40 MSTORE DUP1 SWAP4 SWAP3 SWAP2 SWAP1 DUP2 DUP2 MSTORE PUSH1 0x20 ADD DUP4 DUP4 DUP1 DUP3 DUP5 CALLDATACOPY PUSH1 0x0 DUP2 DUP5 ADD MSTORE PUSH1 0x1F NOT PUSH1 0x1F DUP3 ADD AND SWAP1 POP DUP1 DUP4 ADD SWAP3 POP POP POP POP POP POP POP DUP2 MSTORE PUSH1 0x20 ADD DUP3 DUP2 MSTORE POP PUSH1 0x0 DUP1 CALLER PUSH20 0xFFFFFFFFFFFFFFFFFFFFFFFFFFFFFFFFFFFFFFFF AND PUSH20 0xFFFFFFFFFFFFFFFFFFFFFFFFFFFFFFFFFFFFFFFF AND DUP2 MSTORE PUSH1 0x20 ADD SWAP1 DUP2 MSTORE PUSH1 0x20 ADD PUSH1 0x0 KECCAK256 PUSH1 0x0 DUP3 ADD MLOAD DUP2 PUSH1 0x0 ADD PUSH1 0x0 PUSH2 0x100 EXP DUP2 SLOAD DUP2 PUSH1 0xFF MUL NOT AND SWAP1 DUP4 PUSH1 0x2 DUP2 GT ISZERO PUSH2 0xB78 JUMPI PUSH2 0xB77 PUSH2 0x1B1F JUMP JUMPDEST JUMPDEST MUL OR SWAP1 SSTORE POP PUSH1 0x20 DUP3 ADD MLOAD DUP2 PUSH1 0x1 ADD SWAP1 DUP2 PUSH2 0xB92 SWAP2 SWAP1 PUSH2 0x2171 JUMP JUMPDEST POP PUSH1 0x40 DUP3 ADD MLOAD DUP2 PUSH1 0x2 ADD SWAP1 DUP2 PUSH2 0xBA8 SWAP2 SWAP1 PUSH2 0x2171 JUMP JUMPDEST POP PUSH1 0x60 DUP3 ADD MLOAD DUP2 PUSH1 0x3 ADD SWAP1 DUP2 PUSH2 0xBBE SWAP2 SWAP1 PUSH2 0x2171 JUMP JUMPDEST POP SWAP1 POP POP PUSH1 0x1 CALLER SWAP1 DUP1 PUSH1 0x1 DUP2 SLOAD ADD DUP1 DUP3 SSTORE DUP1 SWAP2 POP POP PUSH1 0x1 SWAP1 SUB SWAP1 PUSH1 0x0 MSTORE PUSH1 0x20 PUSH1 0x0 KECCAK256 ADD PUSH1 0x0 SWAP1 SWAP2 SWAP1 SWAP2 SWAP1 SWAP2 PUSH2 0x100 EXP DUP2 SLOAD DUP2 PUSH20 0xFFFFFFFFFFFFFFFFFFFFFFFFFFFFFFFFFFFFFFFF MUL NOT AND SWAP1 DUP4 PUSH20 0xFFFFFFFFFFFFFFFFFFFFFFFFFFFFFFFFFFFFFFFF AND MUL OR SWAP1 SSTORE POP PUSH1 0x0 PUSH1 0x2 DUP2 GT ISZERO PUSH2 0xC39 JUMPI PUSH2 0xC38 PUSH2 0x1B1F JUMP JUMPDEST JUMPDEST DUP7 PUSH1 0x2 DUP2 GT ISZERO PUSH2 0xC4C JUMPI PUSH2 0xC4B PUSH2 0x1B1F JUMP JUMPDEST JUMPDEST SUB PUSH2 0xCB5 JUMPI PUSH1 0x2 CALLER SWAP1 DUP1 PUSH1 0x1 DUP2 SLOAD ADD DUP1 DUP3 SSTORE DUP1 SWAP2 POP POP PUSH1 0x1 SWAP1 SUB SWAP1 PUSH1 0x0 MSTORE PUSH1 0x20 PUSH1 0x0 KECCAK256 ADD PUSH1 0x0 SWAP1 SWAP2 SWAP1 SWAP2 SWAP1 SWAP2 PUSH2 0x100 EXP DUP2 SLOAD DUP2 PUSH20 0xFFFFFFFFFFFFFFFFFFFFFFFFFFFFFFFFFFFFFFFF MUL NOT AND SWAP1 DUP4 PUSH20 0xFFFFFFFFFFFFFFFFFFFFFFFFFFFFFFFFFFFFFFFF AND MUL OR SWAP1 SSTORE POP JUMPDEST PUSH1 0x1 PUSH1 0x2 DUP2 GT ISZERO PUSH2 0xCC9 JUMPI PUSH2 0xCC8 PUSH2 0x1B1F JUMP JUMPDEST JUMPDEST DUP7 PUSH1 0x2 DUP2 GT ISZERO PUSH2 0xCDC JUMPI PUSH2 0xCDB PUSH2 0x1B1F JUMP JUMPDEST JUMPDEST SUB PUSH2 0xD45 JUMPI PUSH1 0x3 CALLER SWAP1 DUP1 PUSH1 0x1 DUP2 SLOAD ADD DUP1 DUP3 SSTORE DUP1 SWAP2 POP POP PUSH1 0x1 SWAP1 SUB SWAP1 PUSH1 0x0 MSTORE PUSH1 0x20 PUSH1 0x0 KECCAK256 ADD PUSH1 0x0 SWAP1 SWAP2 SWAP1 SWAP2 SWAP1 SWAP2 PUSH2 0x100 EXP DUP2 SLOAD DUP2 PUSH20 0xFFFFFFFFFFFFFFFFFFFFFFFFFFFFFFFFFFFFFFFF MUL NOT AND SWAP1 DUP4 PUSH20 0xFFFFFFFFFFFFFFFFFFFFFFFFFFFFFFFFFFFFFFFF AND MUL OR SWAP1 SSTORE POP JUMPDEST PUSH1 0x2 DUP1 DUP2 GT ISZERO PUSH2 0xD58 JUMPI PUSH2 0xD57 PUSH2 0x1B1F JUMP JUMPDEST JUMPDEST DUP7 PUSH1 0x2 DUP2 GT ISZERO PUSH2 0xD6B JUMPI PUSH2 0xD6A PUSH2 0x1B1F JUMP JUMPDEST JUMPDEST SUB PUSH2 0xDD4 JUMPI PUSH1 0x4 CALLER SWAP1 DUP1 PUSH1 0x1 DUP2 SLOAD ADD DUP1 DUP3 SSTORE DUP1 SWAP2 POP POP PUSH1 0x1 SWAP1 SUB SWAP1 PUSH1 0x0 MSTORE PUSH1 0x20 PUSH1 0x0 KECCAK256 ADD PUSH1 0x0 SWAP1 SWAP2 SWAP1 SWAP2 SWAP1 SWAP2 PUSH2 0x100 EXP DUP2 SLOAD DUP2 PUSH20 0xFFFFFFFFFFFFFFFFFFFFFFFFFFFFFFFFFFFFFFFF MUL NOT AND SWAP1 DUP4 PUSH20 0xFFFFFFFFFFFFFFFFFFFFFFFFFFFFFFFFFFFFFFFF AND MUL OR SWAP1 SSTORE POP JUMPDEST POP POP POP POP POP POP JUMP JUMPDEST PUSH1 0x60 PUSH1 0x0 PUSH1 0x2 DUP1 SLOAD SWAP1 POP PUSH8 0xFFFFFFFFFFFFFFFF DUP2 GT ISZERO PUSH2 0xDFF JUMPI PUSH2 0xDFE PUSH2 0x1893 JUMP JUMPDEST JUMPDEST PUSH1 0x40 MLOAD SWAP1 DUP1 DUP3 MSTORE DUP1 PUSH1 0x20 MUL PUSH1 0x20 ADD DUP3 ADD PUSH1 0x40 MSTORE DUP1 ISZERO PUSH2 0xE38 JUMPI DUP2 PUSH1 0x20 ADD JUMPDEST PUSH2 0xE25 PUSH2 0x180D JUMP JUMPDEST DUP2 MSTORE PUSH1 0x20 ADD SWAP1 PUSH1 0x1 SWAP1 SUB SWAP1 DUP2 PUSH2 0xE1D JUMPI SWAP1 POP JUMPDEST POP SWAP1 POP PUSH1 0x0 JUMPDEST PUSH1 0x1 DUP1 SLOAD SWAP1 POP DUP2 LT ISZERO PUSH2 0x10F4 JUMPI PUSH1 0x0 DUP1 PUSH1 0x2 DUP4 DUP2 SLOAD DUP2 LT PUSH2 0xE62 JUMPI PUSH2 0xE61 PUSH2 0x2243 JUMP JUMPDEST JUMPDEST SWAP1 PUSH1 0x0 MSTORE PUSH1 0x20 PUSH1 0x0 KECCAK256 ADD PUSH1 0x0 SWAP1 SLOAD SWAP1 PUSH2 0x100 EXP SWAP1 DIV PUSH20 0xFFFFFFFFFFFFFFFFFFFFFFFFFFFFFFFFFFFFFFFF AND PUSH20 0xFFFFFFFFFFFFFFFFFFFFFFFFFFFFFFFFFFFFFFFF AND PUSH20 0xFFFFFFFFFFFFFFFFFFFFFFFFFFFFFFFFFFFFFFFF AND DUP2 MSTORE PUSH1 0x20 ADD SWAP1 DUP2 MSTORE PUSH1 0x20 ADD PUSH1 0x0 KECCAK256 PUSH1 0x40 MLOAD DUP1 PUSH1 0x80 ADD PUSH1 0x40 MSTORE SWAP1 DUP2 PUSH1 0x0 DUP3 ADD PUSH1 0x0 SWAP1 SLOAD SWAP1 PUSH2 0x100 EXP SWAP1 DIV PUSH1 0xFF AND PUSH1 0x2 DUP2 GT ISZERO PUSH2 0xEF7 JUMPI PUSH2 0xEF6 PUSH2 0x1B1F JUMP JUMPDEST JUMPDEST PUSH1 0x2 DUP2 GT ISZERO PUSH2 0xF09 JUMPI PUSH2 0xF08 PUSH2 0x1B1F JUMP JUMPDEST JUMPDEST DUP2 MSTORE PUSH1 0x20 ADD PUSH1 0x1 DUP3 ADD DUP1 SLOAD PUSH2 0xF1D SWAP1 PUSH2 0x1F94 JUMP JUMPDEST DUP1 PUSH1 0x1F ADD PUSH1 0x20 DUP1 SWAP2 DIV MUL PUSH1 0x20 ADD PUSH1 0x40 MLOAD SWAP1 DUP2 ADD PUSH1 0x40 MSTORE DUP1 SWAP3 SWAP2 SWAP1 DUP2 DUP2 MSTORE PUSH1 0x20 ADD DUP3 DUP1 SLOAD PUSH2 0xF49 SWAP1 PUSH2 0x1F94 JUMP JUMPDEST DUP1 ISZERO PUSH2 0xF96 JUMPI DUP1 PUSH1 0x1F LT PUSH2 0xF6B JUMPI PUSH2 0x100 DUP1 DUP4 SLOAD DIV MUL DUP4 MSTORE SWAP2 PUSH1 0x20 ADD SWAP2 PUSH2 0xF96 JUMP JUMPDEST DUP3 ADD SWAP2 SWAP1 PUSH1 0x0 MSTORE PUSH1 0x20 PUSH1 0x0 KECCAK256 SWAP1 JUMPDEST DUP2 SLOAD DUP2 MSTORE SWAP1 PUSH1 0x1 ADD SWAP1 PUSH1 0x20 ADD DUP1 DUP4 GT PUSH2 0xF79 JUMPI DUP3 SWAP1 SUB PUSH1 0x1F AND DUP3 ADD SWAP2 JUMPDEST POP POP POP POP POP DUP2 MSTORE PUSH1 0x20 ADD PUSH1 0x2 DUP3 ADD DUP1 SLOAD PUSH2 0xFAF SWAP1 PUSH2 0x1F94 JUMP JUMPDEST DUP1 PUSH1 0x1F ADD PUSH1 0x20 DUP1 SWAP2 DIV MUL PUSH1 0x20 ADD PUSH1 0x40 MLOAD SWAP1 DUP2 ADD PUSH1 0x40 MSTORE DUP1 SWAP3 SWAP2 SWAP1 DUP2 DUP2 MSTORE PUSH1 0x20 ADD DUP3 DUP1 SLOAD PUSH2 0xFDB SWAP1 PUSH2 0x1F94 JUMP JUMPDEST DUP1 ISZERO PUSH2 0x1028 JUMPI DUP1 PUSH1 0x1F LT PUSH2 0xFFD JUMPI PUSH2 0x100 DUP1 DUP4 SLOAD DIV MUL DUP4 MSTORE SWAP2 PUSH1 0x20 ADD SWAP2 PUSH2 0x1028 JUMP JUMPDEST DUP3 ADD SWAP2 SWAP1 PUSH1 0x0 MSTORE PUSH1 0x20 PUSH1 0x0 KECCAK256 SWAP1 JUMPDEST DUP2 SLOAD DUP2 MSTORE SWAP1 PUSH1 0x1 ADD SWAP1 PUSH1 0x20 ADD DUP1 DUP4 GT PUSH2 0x100B JUMPI DUP3 SWAP1 SUB PUSH1 0x1F AND DUP3 ADD SWAP2 JUMPDEST POP POP POP POP POP DUP2 MSTORE PUSH1 0x20 ADD PUSH1 0x3 DUP3 ADD DUP1 SLOAD PUSH2 0x1041 SWAP1 PUSH2 0x1F94 JUMP JUMPDEST DUP1 PUSH1 0x1F ADD PUSH1 0x20 DUP1 SWAP2 DIV MUL PUSH1 0x20 ADD PUSH1 0x40 MLOAD SWAP1 DUP2 ADD PUSH1 0x40 MSTORE DUP1 SWAP3 SWAP2 SWAP1 DUP2 DUP2 MSTORE PUSH1 0x20 ADD DUP3 DUP1 SLOAD PUSH2 0x106D SWAP1 PUSH2 0x1F94 JUMP JUMPDEST DUP1 ISZERO PUSH2 0x10BA JUMPI DUP1 PUSH1 0x1F LT PUSH2 0x108F JUMPI PUSH2 0x100 DUP1 DUP4 SLOAD DIV MUL DUP4 MSTORE SWAP2 PUSH1 0x20 ADD SWAP2 PUSH2 0x10BA JUMP JUMPDEST DUP3 ADD SWAP2 SWAP1 PUSH1 0x0 MSTORE PUSH1 0x20 PUSH1 0x0 KECCAK256 SWAP1 JUMPDEST DUP2 SLOAD DUP2 MSTORE SWAP1 PUSH1 0x1 ADD SWAP1 PUSH1 0x20 ADD DUP1 DUP4 GT PUSH2 0x109D JUMPI DUP3 SWAP1 SUB PUSH1 0x1F AND DUP3 ADD SWAP2 JUMPDEST POP POP POP POP POP DUP2 MSTORE POP POP DUP3 DUP3 DUP2 MLOAD DUP2 LT PUSH2 0x10D6 JUMPI PUSH2 0x10D5 PUSH2 0x2243 JUMP JUMPDEST JUMPDEST PUSH1 0x20 MUL PUSH1 0x20 ADD ADD DUP2 SWAP1 MSTORE POP DUP1 DUP1 PUSH2 0x10EC SWAP1 PUSH2 0x22A1 JUMP JUMPDEST SWAP2 POP POP PUSH2 0xE3E JUMP JUMPDEST POP DUP1 SWAP2 POP POP SWAP1 JUMP JUMPDEST PUSH1 0x2 DUP2 DUP2 SLOAD DUP2 LT PUSH2 0x110C JUMPI PUSH1 0x0 DUP1 REVERT JUMPDEST SWAP1 PUSH1 0x0 MSTORE PUSH1 0x20 PUSH1 0x0 KECCAK256 ADD PUSH1 0x0 SWAP2 POP SLOAD SWAP1 PUSH2 0x100 EXP SWAP1 DIV PUSH20 0xFFFFFFFFFFFFFFFFFFFFFFFFFFFFFFFFFFFFFFFF AND DUP2 JUMP JUMPDEST DUP1 PUSH1 0x0 DUP1 CALLER PUSH20 0xFFFFFFFFFFFFFFFFFFFFFFFFFFFFFFFFFFFFFFFF AND PUSH20 0xFFFFFFFFFFFFFFFFFFFFFFFFFFFFFFFFFFFFFFFF AND DUP2 MSTORE PUSH1 0x20 ADD SWAP1 DUP2 MSTORE PUSH1 0x20 ADD PUSH1 0x0 KECCAK256 PUSH1 0x3 ADD SWAP1 DUP2 PUSH2 0x1189 SWAP2 SWAP1 PUSH2 0x2171 JUMP JUMPDEST POP POP JUMP JUMPDEST PUSH1 0x60 PUSH1 0x0 PUSH1 0x3 DUP1 SLOAD SWAP1 POP PUSH8 0xFFFFFFFFFFFFFFFF DUP2 GT ISZERO PUSH2 0x11B0 JUMPI PUSH2 0x11AF PUSH2 0x1893 JUMP JUMPDEST JUMPDEST PUSH1 0x40 MLOAD SWAP1 DUP1 DUP3 MSTORE DUP1 PUSH1 0x20 MUL PUSH1 0x20 ADD DUP3 ADD PUSH1 0x40 MSTORE DUP1 ISZERO PUSH2 0x11E9 JUMPI DUP2 PUSH1 0x20 ADD JUMPDEST PUSH2 0x11D6 PUSH2 0x180D JUMP JUMPDEST DUP2 MSTORE PUSH1 0x20 ADD SWAP1 PUSH1 0x1 SWAP1 SUB SWAP1 DUP2 PUSH2 0x11CE JUMPI SWAP1 POP JUMPDEST POP SWAP1 POP PUSH1 0x0 JUMPDEST PUSH1 0x1 DUP1 SLOAD SWAP1 POP DUP2 LT ISZERO PUSH2 0x14A5 JUMPI PUSH1 0x0 DUP1 PUSH1 0x3 DUP4 DUP2 SLOAD DUP2 LT PUSH2 0x1213 JUMPI PUSH2 0x1212 PUSH2 0x2243 JUMP JUMPDEST JUMPDEST SWAP1 PUSH1 0x0 MSTORE PUSH1 0x20 PUSH1 0x0 KECCAK256 ADD PUSH1 0x0 SWAP1 SLOAD SWAP1 PUSH2 0x100 EXP SWAP1 DIV PUSH20 0xFFFFFFFFFFFFFFFFFFFFFFFFFFFFFFFFFFFFFFFF AND PUSH20 0xFFFFFFFFFFFFFFFFFFFFFFFFFFFFFFFFFFFFFFFF AND PUSH20 0xFFFFFFFFFFFFFFFFFFFFFFFFFFFFFFFFFFFFFFFF AND DUP2 MSTORE PUSH1 0x20 ADD SWAP1 DUP2 MSTORE PUSH1 0x20 ADD PUSH1 0x0 KECCAK256 PUSH1 0x40 MLOAD DUP1 PUSH1 0x80 ADD PUSH1 0x40 MSTORE SWAP1 DUP2 PUSH1 0x0 DUP3 ADD PUSH1 0x0 SWAP1 SLOAD SWAP1 PUSH2 0x100 EXP SWAP1 DIV PUSH1 0xFF AND PUSH1 0x2 DUP2 GT ISZERO PUSH2 0x12A8 JUMPI PUSH2 0x12A7 PUSH2 0x1B1F JUMP JUMPDEST JUMPDEST PUSH1 0x2 DUP2 GT ISZERO PUSH2 0x12BA JUMPI PUSH2 0x12B9 PUSH2 0x1B1F JUMP JUMPDEST JUMPDEST DUP2 MSTORE PUSH1 0x20 ADD PUSH1 0x1 DUP3 ADD DUP1 SLOAD PUSH2 0x12CE SWAP1 PUSH2 0x1F94 JUMP JUMPDEST DUP1 PUSH1 0x1F ADD PUSH1 0x20 DUP1 SWAP2 DIV MUL PUSH1 0x20 ADD PUSH1 0x40 MLOAD SWAP1 DUP2 ADD PUSH1 0x40 MSTORE DUP1 SWAP3 SWAP2 SWAP1 DUP2 DUP2 MSTORE PUSH1 0x20 ADD DUP3 DUP1 SLOAD PUSH2 0x12FA SWAP1 PUSH2 0x1F94 JUMP JUMPDEST DUP1 ISZERO PUSH2 0x1347 JUMPI DUP1 PUSH1 0x1F LT PUSH2 0x131C JUMPI PUSH2 0x100 DUP1 DUP4 SLOAD DIV MUL DUP4 MSTORE SWAP2 PUSH1 0x20 ADD SWAP2 PUSH2 0x1347 JUMP JUMPDEST DUP3 ADD SWAP2 SWAP1 PUSH1 0x0 MSTORE PUSH1 0x20 PUSH1 0x0 KECCAK256 SWAP1 JUMPDEST DUP2 SLOAD DUP2 MSTORE SWAP1 PUSH1 0x1 ADD SWAP1 PUSH1 0x20 ADD DUP1 DUP4 GT PUSH2 0x132A JUMPI DUP3 SWAP1 SUB PUSH1 0x1F AND DUP3 ADD SWAP2 JUMPDEST POP POP POP POP POP DUP2 MSTORE PUSH1 0x20 ADD PUSH1 0x2 DUP3 ADD DUP1 SLOAD PUSH2 0x1360 SWAP1 PUSH2 0x1F94 JUMP JUMPDEST DUP1 PUSH1 0x1F ADD PUSH1 0x20 DUP1 SWAP2 DIV MUL PUSH1 0x20 ADD PUSH1 0x40 MLOAD SWAP1 DUP2 ADD PUSH1 0x40 MSTORE DUP1 SWAP3 SWAP2 SWAP1 DUP2 DUP2 MSTORE PUSH1 0x20 ADD DUP3 DUP1 SLOAD PUSH2 0x138C SWAP1 PUSH2 0x1F94 JUMP JUMPDEST DUP1 ISZERO PUSH2 0x13D9 JUMPI DUP1 PUSH1 0x1F LT PUSH2 0x13AE JUMPI PUSH2 0x100 DUP1 DUP4 SLOAD DIV MUL DUP4 MSTORE SWAP2 PUSH1 0x20 ADD SWAP2 PUSH2 0x13D9 JUMP JUMPDEST DUP3 ADD SWAP2 SWAP1 PUSH1 0x0 MSTORE PUSH1 0x20 PUSH1 0x0 KECCAK256 SWAP1 JUMPDEST DUP2 SLOAD DUP2 MSTORE SWAP1 PUSH1 0x1 ADD SWAP1 PUSH1 0x20 ADD DUP1 DUP4 GT PUSH2 0x13BC JUMPI DUP3 SWAP1 SUB PUSH1 0x1F AND DUP3 ADD SWAP2 JUMPDEST POP POP POP POP POP DUP2 MSTORE PUSH1 0x20 ADD PUSH1 0x3 DUP3 ADD DUP1 SLOAD PUSH2 0x13F2 SWAP1 PUSH2 0x1F94 JUMP JUMPDEST DUP1 PUSH1 0x1F ADD PUSH1 0x20 DUP1 SWAP2 DIV MUL PUSH1 0x20 ADD PUSH1 0x40 MLOAD SWAP1 DUP2 ADD PUSH1 0x40 MSTORE DUP1 SWAP3 SWAP2 SWAP1 DUP2 DUP2 MSTORE PUSH1 0x20 ADD DUP3 DUP1 SLOAD PUSH2 0x141E SWAP1 PUSH2 0x1F94 JUMP JUMPDEST DUP1 ISZERO PUSH2 0x146B JUMPI DUP1 PUSH1 0x1F LT PUSH2 0x1440 JUMPI PUSH2 0x100 DUP1 DUP4 SLOAD DIV MUL DUP4 MSTORE SWAP2 PUSH1 0x20 ADD SWAP2 PUSH2 0x146B JUMP JUMPDEST DUP3 ADD SWAP2 SWAP1 PUSH1 0x0 MSTORE PUSH1 0x20 PUSH1 0x0 KECCAK256 SWAP1 JUMPDEST DUP2 SLOAD DUP2 MSTORE SWAP1 PUSH1 0x1 ADD SWAP1 PUSH1 0x20 ADD DUP1 DUP4 GT PUSH2 0x144E JUMPI DUP3 SWAP1 SUB PUSH1 0x1F AND DUP3 ADD SWAP2 JUMPDEST POP POP POP POP POP DUP2 MSTORE POP POP DUP3 DUP3 DUP2 MLOAD DUP2 LT PUSH2 0x1487 JUMPI PUSH2 0x1486 PUSH2 0x2243 JUMP JUMPDEST JUMPDEST PUSH1 0x20 MUL PUSH1 0x20 ADD ADD DUP2 SWAP1 MSTORE POP DUP1 DUP1 PUSH2 0x149D SWAP1 PUSH2 0x22A1 JUMP JUMPDEST SWAP2 POP POP PUSH2 0x11EF JUMP JUMPDEST POP DUP1 SWAP2 POP POP SWAP1 JUMP JUMPDEST PUSH1 0x60 PUSH1 0x0 PUSH1 0x1 DUP1 SLOAD SWAP1 POP PUSH8 0xFFFFFFFFFFFFFFFF DUP2 GT ISZERO PUSH2 0x14D0 JUMPI PUSH2 0x14CF PUSH2 0x1893 JUMP JUMPDEST JUMPDEST PUSH1 0x40 MLOAD SWAP1 DUP1 DUP3 MSTORE DUP1 PUSH1 0x20 MUL PUSH1 0x20 ADD DUP3 ADD PUSH1 0x40 MSTORE DUP1 ISZERO PUSH2 0x1509 JUMPI DUP2 PUSH1 0x20 ADD JUMPDEST PUSH2 0x14F6 PUSH2 0x180D JUMP JUMPDEST DUP2 MSTORE PUSH1 0x20 ADD SWAP1 PUSH1 0x1 SWAP1 SUB SWAP1 DUP2 PUSH2 0x14EE JUMPI SWAP1 POP JUMPDEST POP SWAP1 POP PUSH1 0x0 JUMPDEST PUSH1 0x1 DUP1 SLOAD SWAP1 POP DUP2 LT ISZERO PUSH2 0x17C5 JUMPI PUSH1 0x0 DUP1 PUSH1 0x1 DUP4 DUP2 SLOAD DUP2 LT PUSH2 0x1533 JUMPI PUSH2 0x1532 PUSH2 0x2243 JUMP JUMPDEST JUMPDEST SWAP1 PUSH1 0x0 MSTORE PUSH1 0x20 PUSH1 0x0 KECCAK256 ADD PUSH1 0x0 SWAP1 SLOAD SWAP1 PUSH2 0x100 EXP SWAP1 DIV PUSH20 0xFFFFFFFFFFFFFFFFFFFFFFFFFFFFFFFFFFFFFFFF AND PUSH20 0xFFFFFFFFFFFFFFFFFFFFFFFFFFFFFFFFFFFFFFFF AND PUSH20 0xFFFFFFFFFFFFFFFFFFFFFFFFFFFFFFFFFFFFFFFF AND DUP2 MSTORE PUSH1 0x20 ADD SWAP1 DUP2 MSTORE PUSH1 0x20 ADD PUSH1 0x0 KECCAK256 PUSH1 0x40 MLOAD DUP1 PUSH1 0x80 ADD PUSH1 0x40 MSTORE SWAP1 DUP2 PUSH1 0x0 DUP3 ADD PUSH1 0x0 SWAP1 SLOAD SWAP1 PUSH2 0x100 EXP SWAP1 DIV PUSH1 0xFF AND PUSH1 0x2 DUP2 GT ISZERO PUSH2 0x15C8 JUMPI PUSH2 0x15C7 PUSH2 0x1B1F JUMP JUMPDEST JUMPDEST PUSH1 0x2 DUP2 GT ISZERO PUSH2 0x15DA JUMPI PUSH2 0x15D9 PUSH2 0x1B1F JUMP JUMPDEST JUMPDEST DUP2 MSTORE PUSH1 0x20 ADD PUSH1 0x1 DUP3 ADD DUP1 SLOAD PUSH2 0x15EE SWAP1 PUSH2 0x1F94 JUMP JUMPDEST DUP1 PUSH1 0x1F ADD PUSH1 0x20 DUP1 SWAP2 DIV MUL PUSH1 0x20 ADD PUSH1 0x40 MLOAD SWAP1 DUP2 ADD PUSH1 0x40 MSTORE DUP1 SWAP3 SWAP2 SWAP1 DUP2 DUP2 MSTORE PUSH1 0x20 ADD DUP3 DUP1 SLOAD PUSH2 0x161A SWAP1 PUSH2 0x1F94 JUMP JUMPDEST DUP1 ISZERO PUSH2 0x1667 JUMPI DUP1 PUSH1 0x1F LT PUSH2 0x163C JUMPI PUSH2 0x100 DUP1 DUP4 SLOAD DIV MUL DUP4 MSTORE SWAP2 PUSH1 0x20 ADD SWAP2 PUSH2 0x1667 JUMP JUMPDEST DUP3 ADD SWAP2 SWAP1 PUSH1 0x0 MSTORE PUSH1 0x20 PUSH1 0x0 KECCAK256 SWAP1 JUMPDEST DUP2 SLOAD DUP2 MSTORE SWAP1 PUSH1 0x1 ADD SWAP1 PUSH1 0x20 ADD DUP1 DUP4 GT PUSH2 0x164A JUMPI DUP3 SWAP1 SUB PUSH1 0x1F AND DUP3 ADD SWAP2 JUMPDEST POP POP POP POP POP DUP2 MSTORE PUSH1 0x20 ADD PUSH1 0x2 DUP3 ADD DUP1 SLOAD PUSH2 0x1680 SWAP1 PUSH2 0x1F94 JUMP JUMPDEST DUP1 PUSH1 0x1F ADD PUSH1 0x20 DUP1 SWAP2 DIV MUL PUSH1 0x20 ADD PUSH1 0x40 MLOAD SWAP1 DUP2 ADD PUSH1 0x40 MSTORE DUP1 SWAP3 SWAP2 SWAP1 DUP2 DUP2 MSTORE PUSH1 0x20 ADD DUP3 DUP1 SLOAD PUSH2 0x16AC SWAP1 PUSH2 0x1F94 JUMP JUMPDEST DUP1 ISZERO PUSH2 0x16F9 JUMPI DUP1 PUSH1 0x1F LT PUSH2 0x16CE JUMPI PUSH2 0x100 DUP1 DUP4 SLOAD DIV MUL DUP4 MSTORE SWAP2 PUSH1 0x20 ADD SWAP2 PUSH2 0x16F9 JUMP JUMPDEST DUP3 ADD SWAP2 SWAP1 PUSH1 0x0 MSTORE PUSH1 0x20 PUSH1 0x0 KECCAK256 SWAP1 JUMPDEST DUP2 SLOAD DUP2 MSTORE SWAP1 PUSH1 0x1 ADD SWAP1 PUSH1 0x20 ADD DUP1 DUP4 GT PUSH2 0x16DC JUMPI DUP3 SWAP1 SUB PUSH1 0x1F AND DUP3 ADD SWAP2 JUMPDEST POP POP POP POP POP DUP2 MSTORE PUSH1 0x20 ADD PUSH1 0x3 DUP3 ADD DUP1 SLOAD PUSH2 0x1712 SWAP1 PUSH2 0x1F94 JUMP JUMPDEST DUP1 PUSH1 0x1F ADD PUSH1 0x20 DUP1 SWAP2 DIV MUL PUSH1 0x20 ADD PUSH1 0x40 MLOAD SWAP1 DUP2 ADD PUSH1 0x40 MSTORE DUP1 SWAP3 SWAP2 SWAP1 DUP2 DUP2 MSTORE PUSH1 0x20 ADD DUP3 DUP1 SLOAD PUSH2 0x173E SWAP1 PUSH2 0x1F94 JUMP JUMPDEST DUP1 ISZERO PUSH2 0x178B JUMPI DUP1 PUSH1 0x1F LT PUSH2 0x1760 JUMPI PUSH2 0x100 DUP1 DUP4 SLOAD DIV MUL DUP4 MSTORE SWAP2 PUSH1 0x20 ADD SWAP2 PUSH2 0x178B JUMP JUMPDEST DUP3 ADD SWAP2 SWAP1 PUSH1 0x0 MSTORE PUSH1 0x20 PUSH1 0x0 KECCAK256 SWAP1 JUMPDEST DUP2 SLOAD DUP2 MSTORE SWAP1 PUSH1 0x1 ADD SWAP1 PUSH1 0x20 ADD DUP1 DUP4 GT PUSH2 0x176E JUMPI DUP3 SWAP1 SUB PUSH1 0x1F AND DUP3 ADD SWAP2 JUMPDEST POP POP POP POP POP DUP2 MSTORE POP POP DUP3 DUP3 DUP2 MLOAD DUP2 LT PUSH2 0x17A7 JUMPI PUSH2 0x17A6 PUSH2 0x2243 JUMP JUMPDEST JUMPDEST PUSH1 0x20 MUL PUSH1 0x20 ADD ADD DUP2 SWAP1 MSTORE POP DUP1 DUP1 PUSH2 0x17BD SWAP1 PUSH2 0x22A1 JUMP JUMPDEST SWAP2 POP POP PUSH2 0x150F JUMP JUMPDEST POP DUP1 SWAP2 POP POP SWAP1 JUMP JUMPDEST POP DUP1 SLOAD PUSH2 0x17D9 SWAP1 PUSH2 0x1F94 JUMP JUMPDEST PUSH1 0x0 DUP3 SSTORE DUP1 PUSH1 0x1F LT PUSH2 0x17EB JUMPI POP PUSH2 0x180A JUMP JUMPDEST PUSH1 0x1F ADD PUSH1 0x20 SWAP1 DIV SWAP1 PUSH1 0x0 MSTORE PUSH1 0x20 PUSH1 0x0 KECCAK256 SWAP1 DUP2 ADD SWAP1 PUSH2 0x1809 SWAP2 SWAP1 PUSH2 0x1847 JUMP JUMPDEST JUMPDEST POP JUMP JUMPDEST PUSH1 0x40 MLOAD DUP1 PUSH1 0x80 ADD PUSH1 0x40 MSTORE DUP1 PUSH1 0x0 PUSH1 0x2 DUP2 GT ISZERO PUSH2 0x182C JUMPI PUSH2 0x182B PUSH2 0x1B1F JUMP JUMPDEST JUMPDEST DUP2 MSTORE PUSH1 0x20 ADD PUSH1 0x60 DUP2 MSTORE PUSH1 0x20 ADD PUSH1 0x60 DUP2 MSTORE PUSH1 0x20 ADD PUSH1 0x60 DUP2 MSTORE POP SWAP1 JUMP JUMPDEST JUMPDEST DUP1 DUP3 GT ISZERO PUSH2 0x1860 JUMPI PUSH1 0x0 DUP2 PUSH1 0x0 SWAP1 SSTORE POP PUSH1 0x1 ADD PUSH2 0x1848 JUMP JUMPDEST POP SWAP1 JUMP JUMPDEST PUSH1 0x0 PUSH1 0x40 MLOAD SWAP1 POP SWAP1 JUMP JUMPDEST PUSH1 0x0 DUP1 REVERT JUMPDEST PUSH1 0x0 DUP1 REVERT JUMPDEST PUSH1 0x0 DUP1 REVERT JUMPDEST PUSH1 0x0 DUP1 REVERT JUMPDEST PUSH1 0x0 PUSH1 0x1F NOT PUSH1 0x1F DUP4 ADD AND SWAP1 POP SWAP2 SWAP1 POP JUMP JUMPDEST PUSH32 0x4E487B7100000000000000000000000000000000000000000000000000000000 PUSH1 0x0 MSTORE PUSH1 0x41 PUSH1 0x4 MSTORE PUSH1 0x24 PUSH1 0x0 REVERT JUMPDEST PUSH2 0x18CB DUP3 PUSH2 0x1882 JUMP JUMPDEST DUP2 ADD DUP2 DUP2 LT PUSH8 0xFFFFFFFFFFFFFFFF DUP3 GT OR ISZERO PUSH2 0x18EA JUMPI PUSH2 0x18E9 PUSH2 0x1893 JUMP JUMPDEST JUMPDEST DUP1 PUSH1 0x40 MSTORE POP POP POP JUMP JUMPDEST PUSH1 0x0 PUSH2 0x18FD PUSH2 0x1864 JUMP JUMPDEST SWAP1 POP PUSH2 0x1909 DUP3 DUP3 PUSH2 0x18C2 JUMP JUMPDEST SWAP2 SWAP1 POP JUMP JUMPDEST PUSH1 0x0 PUSH8 0xFFFFFFFFFFFFFFFF DUP3 GT ISZERO PUSH2 0x1929 JUMPI PUSH2 0x1928 PUSH2 0x1893 JUMP JUMPDEST JUMPDEST PUSH2 0x1932 DUP3 PUSH2 0x1882 JUMP JUMPDEST SWAP1 POP PUSH1 0x20 DUP2 ADD SWAP1 POP SWAP2 SWAP1 POP JUMP JUMPDEST DUP3 DUP2 DUP4 CALLDATACOPY PUSH1 0x0 DUP4 DUP4 ADD MSTORE POP POP POP JUMP JUMPDEST PUSH1 0x0 PUSH2 0x1961 PUSH2 0x195C DUP5 PUSH2 0x190E JUMP JUMPDEST PUSH2 0x18F3 JUMP JUMPDEST SWAP1 POP DUP3 DUP2 MSTORE PUSH1 0x20 DUP2 ADD DUP5 DUP5 DUP5 ADD GT ISZERO PUSH2 0x197D JUMPI PUSH2 0x197C PUSH2 0x187D JUMP JUMPDEST JUMPDEST PUSH2 0x1988 DUP5 DUP3 DUP6 PUSH2 0x193F JUMP JUMPDEST POP SWAP4 SWAP3 POP POP POP JUMP JUMPDEST PUSH1 0x0 DUP3 PUSH1 0x1F DUP4 ADD SLT PUSH2 0x19A5 JUMPI PUSH2 0x19A4 PUSH2 0x1878 JUMP JUMPDEST JUMPDEST DUP2 CALLDATALOAD PUSH2 0x19B5 DUP5 DUP3 PUSH1 0x20 DUP7 ADD PUSH2 0x194E JUMP JUMPDEST SWAP2 POP POP SWAP3 SWAP2 POP POP JUMP JUMPDEST PUSH1 0x0 PUSH1 0x20 DUP3 DUP5 SUB SLT ISZERO PUSH2 0x19D4 JUMPI PUSH2 0x19D3 PUSH2 0x186E JUMP JUMPDEST JUMPDEST PUSH1 0x0 DUP3 ADD CALLDATALOAD PUSH8 0xFFFFFFFFFFFFFFFF DUP2 GT ISZERO PUSH2 0x19F2 JUMPI PUSH2 0x19F1 PUSH2 0x1873 JUMP JUMPDEST JUMPDEST PUSH2 0x19FE DUP5 DUP3 DUP6 ADD PUSH2 0x1990 JUMP JUMPDEST SWAP2 POP POP SWAP3 SWAP2 POP POP JUMP JUMPDEST PUSH1 0x0 DUP2 SWAP1 POP SWAP2 SWAP1 POP JUMP JUMPDEST PUSH2 0x1A1A DUP2 PUSH2 0x1A07 JUMP JUMPDEST DUP2 EQ PUSH2 0x1A25 JUMPI PUSH1 0x0 DUP1 REVERT JUMPDEST POP JUMP JUMPDEST PUSH1 0x0 DUP2 CALLDATALOAD SWAP1 POP PUSH2 0x1A37 DUP2 PUSH2 0x1A11 JUMP JUMPDEST SWAP3 SWAP2 POP POP JUMP JUMPDEST PUSH1 0x0 PUSH1 0x20 DUP3 DUP5 SUB SLT ISZERO PUSH2 0x1A53 JUMPI PUSH2 0x1A52 PUSH2 0x186E JUMP JUMPDEST JUMPDEST PUSH1 0x0 PUSH2 0x1A61 DUP5 DUP3 DUP6 ADD PUSH2 0x1A28 JUMP JUMPDEST SWAP2 POP POP SWAP3 SWAP2 POP POP JUMP JUMPDEST PUSH1 0x0 PUSH20 0xFFFFFFFFFFFFFFFFFFFFFFFFFFFFFFFFFFFFFFFF DUP3 AND SWAP1 POP SWAP2 SWAP1 POP JUMP JUMPDEST PUSH1 0x0 PUSH2 0x1A95 DUP3 PUSH2 0x1A6A JUMP JUMPDEST SWAP1 POP SWAP2 SWAP1 POP JUMP JUMPDEST PUSH2 0x1AA5 DUP2 PUSH2 0x1A8A JUMP JUMPDEST DUP3 MSTORE POP POP JUMP JUMPDEST PUSH1 0x0 PUSH1 0x20 DUP3 ADD SWAP1 POP PUSH2 0x1AC0 PUSH1 0x0 DUP4 ADD DUP5 PUSH2 0x1A9C JUMP JUMPDEST SWAP3 SWAP2 POP POP JUMP JUMPDEST PUSH2 0x1ACF DUP2 PUSH2 0x1A8A JUMP JUMPDEST DUP2 EQ PUSH2 0x1ADA JUMPI PUSH1 0x0 DUP1 REVERT JUMPDEST POP JUMP JUMPDEST PUSH1 0x0 DUP2 CALLDATALOAD SWAP1 POP PUSH2 0x1AEC DUP2 PUSH2 0x1AC6 JUMP JUMPDEST SWAP3 SWAP2 POP POP JUMP JUMPDEST PUSH1 0x0 PUSH1 0x20 DUP3 DUP5 SUB SLT ISZERO PUSH2 0x1B08 JUMPI PUSH2 0x1B07 PUSH2 0x186E JUMP JUMPDEST JUMPDEST PUSH1 0x0 PUSH2 0x1B16 DUP5 DUP3 DUP6 ADD PUSH2 0x1ADD JUMP JUMPDEST SWAP2 POP POP SWAP3 SWAP2 POP POP JUMP JUMPDEST PUSH32 0x4E487B7100000000000000000000000000000000000000000000000000000000 PUSH1 0x0 MSTORE PUSH1 0x21 PUSH1 0x4 MSTORE PUSH1 0x24 PUSH1 0x0 REVERT JUMPDEST PUSH1 0x3 DUP2 LT PUSH2 0x1B5F JUMPI PUSH2 0x1B5E PUSH2 0x1B1F JUMP JUMPDEST JUMPDEST POP JUMP JUMPDEST PUSH1 0x0 DUP2 SWAP1 POP PUSH2 0x1B70 DUP3 PUSH2 0x1B4E JUMP JUMPDEST SWAP2 SWAP1 POP JUMP JUMPDEST PUSH1 0x0 PUSH2 0x1B80 DUP3 PUSH2 0x1B62 JUMP JUMPDEST SWAP1 POP SWAP2 SWAP1 POP JUMP JUMPDEST PUSH2 0x1B90 DUP2 PUSH2 0x1B75 JUMP JUMPDEST DUP3 MSTORE POP POP JUMP JUMPDEST PUSH1 0x0 DUP2 MLOAD SWAP1 POP SWAP2 SWAP1 POP JUMP JUMPDEST PUSH1 0x0 DUP3 DUP3 MSTORE PUSH1 0x20 DUP3 ADD SWAP1 POP SWAP3 SWAP2 POP POP JUMP JUMPDEST PUSH1 0x0 JUMPDEST DUP4 DUP2 LT ISZERO PUSH2 0x1BD0 JUMPI DUP1 DUP3 ADD MLOAD DUP2 DUP5 ADD MSTORE PUSH1 0x20 DUP2 ADD SWAP1 POP PUSH2 0x1BB5 JUMP JUMPDEST PUSH1 0x0 DUP5 DUP5 ADD MSTORE POP POP POP POP JUMP JUMPDEST PUSH1 0x0 PUSH2 0x1BE7 DUP3 PUSH2 0x1B96 JUMP JUMPDEST PUSH2 0x1BF1 DUP2 DUP6 PUSH2 0x1BA1 JUMP JUMPDEST SWAP4 POP PUSH2 0x1C01 DUP2 DUP6 PUSH1 0x20 DUP7 ADD PUSH2 0x1BB2 JUMP JUMPDEST PUSH2 0x1C0A DUP2 PUSH2 0x1882 JUMP JUMPDEST DUP5 ADD SWAP2 POP POP SWAP3 SWAP2 POP POP JUMP JUMPDEST PUSH1 0x0 PUSH1 0x80 DUP3 ADD SWAP1 POP PUSH2 0x1C2A PUSH1 0x0 DUP4 ADD DUP8 PUSH2 0x1B87 JUMP JUMPDEST DUP2 DUP2 SUB PUSH1 0x20 DUP4 ADD MSTORE PUSH2 0x1C3C DUP2 DUP7 PUSH2 0x1BDC JUMP JUMPDEST SWAP1 POP DUP2 DUP2 SUB PUSH1 0x40 DUP4 ADD MSTORE PUSH2 0x1C50 DUP2 DUP6 PUSH2 0x1BDC JUMP JUMPDEST SWAP1 POP DUP2 DUP2 SUB PUSH1 0x60 DUP4 ADD MSTORE PUSH2 0x1C64 DUP2 DUP5 PUSH2 0x1BDC JUMP JUMPDEST SWAP1 POP SWAP6 SWAP5 POP POP POP POP POP JUMP JUMPDEST PUSH1 0x0 DUP2 MLOAD SWAP1 POP SWAP2 SWAP1 POP JUMP JUMPDEST PUSH1 0x0 DUP3 DUP3 MSTORE PUSH1 0x20 DUP3 ADD SWAP1 POP SWAP3 SWAP2 POP POP JUMP JUMPDEST PUSH1 0x0 DUP2 SWAP1 POP PUSH1 0x20 DUP3 ADD SWAP1 POP SWAP2 SWAP1 POP JUMP JUMPDEST PUSH2 0x1CA4 DUP2 PUSH2 0x1B75 JUMP JUMPDEST DUP3 MSTORE POP POP JUMP JUMPDEST PUSH1 0x0 DUP3 DUP3 MSTORE PUSH1 0x20 DUP3 ADD SWAP1 POP SWAP3 SWAP2 POP POP JUMP JUMPDEST PUSH1 0x0 PUSH2 0x1CC6 DUP3 PUSH2 0x1B96 JUMP JUMPDEST PUSH2 0x1CD0 DUP2 DUP6 PUSH2 0x1CAA JUMP JUMPDEST SWAP4 POP PUSH2 0x1CE0 DUP2 DUP6 PUSH1 0x20 DUP7 ADD PUSH2 0x1BB2 JUMP JUMPDEST PUSH2 0x1CE9 DUP2 PUSH2 0x1882 JUMP JUMPDEST DUP5 ADD SWAP2 POP POP SWAP3 SWAP2 POP POP JUMP JUMPDEST PUSH1 0x0 PUSH1 0x80 DUP4 ADD PUSH1 0x0 DUP4 ADD MLOAD PUSH2 0x1D0C PUSH1 0x0 DUP7 ADD DUP3 PUSH2 0x1C9B JUMP JUMPDEST POP PUSH1 0x20 DUP4 ADD MLOAD DUP5 DUP3 SUB PUSH1 0x20 DUP7 ADD MSTORE PUSH2 0x1D24 DUP3 DUP3 PUSH2 0x1CBB JUMP JUMPDEST SWAP2 POP POP PUSH1 0x40 DUP4 ADD MLOAD DUP5 DUP3 SUB PUSH1 0x40 DUP7 ADD MSTORE PUSH2 0x1D3E DUP3 DUP3 PUSH2 0x1CBB JUMP JUMPDEST SWAP2 POP POP PUSH1 0x60 DUP4 ADD MLOAD DUP5 DUP3 SUB PUSH1 0x60 DUP7 ADD MSTORE PUSH2 0x1D58 DUP3 DUP3 PUSH2 0x1CBB JUMP JUMPDEST SWAP2 POP POP DUP1 SWAP2 POP POP SWAP3 SWAP2 POP POP JUMP JUMPDEST PUSH1 0x0 PUSH2 0x1D71 DUP4 DUP4 PUSH2 0x1CF4 JUMP JUMPDEST SWAP1 POP SWAP3 SWAP2 POP POP JUMP JUMPDEST PUSH1 0x0 PUSH1 0x20 DUP3 ADD SWAP1 POP SWAP2 SWAP1 POP JUMP JUMPDEST PUSH1 0x0 PUSH2 0x1D91 DUP3 PUSH2 0x1C6F JUMP JUMPDEST PUSH2 0x1D9B DUP2 DUP6 PUSH2 0x1C7A JUMP JUMPDEST SWAP4 POP DUP4 PUSH1 0x20 DUP3 MUL DUP6 ADD PUSH2 0x1DAD DUP6 PUSH2 0x1C8B JUMP JUMPDEST DUP1 PUSH1 0x0 JUMPDEST DUP6 DUP2 LT ISZERO PUSH2 0x1DE9 JUMPI DUP5 DUP5 SUB DUP10 MSTORE DUP2 MLOAD PUSH2 0x1DCA DUP6 DUP3 PUSH2 0x1D65 JUMP JUMPDEST SWAP5 POP PUSH2 0x1DD5 DUP4 PUSH2 0x1D79 JUMP JUMPDEST SWAP3 POP PUSH1 0x20 DUP11 ADD SWAP10 POP POP PUSH1 0x1 DUP2 ADD SWAP1 POP PUSH2 0x1DB1 JUMP JUMPDEST POP DUP3 SWAP8 POP DUP8 SWAP6 POP POP POP POP POP POP SWAP3 SWAP2 POP POP JUMP JUMPDEST PUSH1 0x0 PUSH1 0x20 DUP3 ADD SWAP1 POP DUP2 DUP2 SUB PUSH1 0x0 DUP4 ADD MSTORE PUSH2 0x1E15 DUP2 DUP5 PUSH2 0x1D86 JUMP JUMPDEST SWAP1 POP SWAP3 SWAP2 POP POP JUMP JUMPDEST PUSH1 0x3 DUP2 LT PUSH2 0x1E2A JUMPI PUSH1 0x0 DUP1 REVERT JUMPDEST POP JUMP JUMPDEST PUSH1 0x0 DUP2 CALLDATALOAD SWAP1 POP PUSH2 0x1E3C DUP2 PUSH2 0x1E1D JUMP JUMPDEST SWAP3 SWAP2 POP POP JUMP JUMPDEST PUSH1 0x0 DUP1 REVERT JUMPDEST PUSH1 0x0 DUP1 REVERT JUMPDEST PUSH1 0x0 DUP1 DUP4 PUSH1 0x1F DUP5 ADD SLT PUSH2 0x1E62 JUMPI PUSH2 0x1E61 PUSH2 0x1878 JUMP JUMPDEST JUMPDEST DUP3 CALLDATALOAD SWAP1 POP PUSH8 0xFFFFFFFFFFFFFFFF DUP2 GT ISZERO PUSH2 0x1E7F JUMPI PUSH2 0x1E7E PUSH2 0x1E42 JUMP JUMPDEST JUMPDEST PUSH1 0x20 DUP4 ADD SWAP2 POP DUP4 PUSH1 0x1 DUP3 MUL DUP4 ADD GT ISZERO PUSH2 0x1E9B JUMPI PUSH2 0x1E9A PUSH2 0x1E47 JUMP JUMPDEST JUMPDEST SWAP3 POP SWAP3 SWAP1 POP JUMP JUMPDEST PUSH1 0x0 DUP1 PUSH1 0x0 DUP1 PUSH1 0x0 DUP1 PUSH1 0x80 DUP8 DUP10 SUB SLT ISZERO PUSH2 0x1EBF JUMPI PUSH2 0x1EBE PUSH2 0x186E JUMP JUMPDEST JUMPDEST PUSH1 0x0 PUSH2 0x1ECD DUP10 DUP3 DUP11 ADD PUSH2 0x1E2D JUMP JUMPDEST SWAP7 POP POP PUSH1 0x20 DUP8 ADD CALLDATALOAD PUSH8 0xFFFFFFFFFFFFFFFF DUP2 GT ISZERO PUSH2 0x1EEE JUMPI PUSH2 0x1EED PUSH2 0x1873 JUMP JUMPDEST JUMPDEST PUSH2 0x1EFA DUP10 DUP3 DUP11 ADD PUSH2 0x1E4C JUMP JUMPDEST SWAP6 POP SWAP6 POP POP PUSH1 0x40 DUP8 ADD CALLDATALOAD PUSH8 0xFFFFFFFFFFFFFFFF DUP2 GT ISZERO PUSH2 0x1F1D JUMPI PUSH2 0x1F1C PUSH2 0x1873 JUMP JUMPDEST JUMPDEST PUSH2 0x1F29 DUP10 DUP3 DUP11 ADD PUSH2 0x1E4C JUMP JUMPDEST SWAP4 POP SWAP4 POP POP PUSH1 0x60 DUP8 ADD CALLDATALOAD PUSH8 0xFFFFFFFFFFFFFFFF DUP2 GT ISZERO PUSH2 0x1F4C JUMPI PUSH2 0x1F4B PUSH2 0x1873 JUMP JUMPDEST JUMPDEST PUSH2 0x1F58 DUP10 DUP3 DUP11 ADD PUSH2 0x1990 JUMP JUMPDEST SWAP2 POP POP SWAP3 SWAP6 POP SWAP3 SWAP6 POP SWAP3 SWAP6 JUMP JUMPDEST PUSH32 0x4E487B7100000000000000000000000000000000000000000000000000000000 PUSH1 0x0 MSTORE PUSH1 0x22 PUSH1 0x4 MSTORE PUSH1 0x24 PUSH1 0x0 REVERT JUMPDEST PUSH1 0x0 PUSH1 0x2 DUP3 DIV SWAP1 POP PUSH1 0x1 DUP3 AND DUP1 PUSH2 0x1FAC JUMPI PUSH1 0x7F DUP3 AND SWAP2 POP JUMPDEST PUSH1 0x20 DUP3 LT DUP2 SUB PUSH2 0x1FBF JUMPI PUSH2 0x1FBE PUSH2 0x1F65 JUMP JUMPDEST JUMPDEST POP SWAP2 SWAP1 POP JUMP JUMPDEST PUSH1 0x0 DUP2 SWAP1 POP DUP2 PUSH1 0x0 MSTORE PUSH1 0x20 PUSH1 0x0 KECCAK256 SWAP1 POP SWAP2 SWAP1 POP JUMP JUMPDEST PUSH1 0x0 PUSH1 0x20 PUSH1 0x1F DUP4 ADD DIV SWAP1 POP SWAP2 SWAP1 POP JUMP JUMPDEST PUSH1 0x0 DUP3 DUP3 SHL SWAP1 POP SWAP3 SWAP2 POP POP JUMP JUMPDEST PUSH1 0x0 PUSH1 0x8 DUP4 MUL PUSH2 0x2027 PUSH32 0xFFFFFFFFFFFFFFFFFFFFFFFFFFFFFFFFFFFFFFFFFFFFFFFFFFFFFFFFFFFFFFFF DUP3 PUSH2 0x1FEA JUMP JUMPDEST PUSH2 0x2031 DUP7 DUP4 PUSH2 0x1FEA JUMP JUMPDEST SWAP6 POP DUP1 NOT DUP5 AND SWAP4 POP DUP1 DUP7 AND DUP5 OR SWAP3 POP POP POP SWAP4 SWAP3 POP POP POP JUMP JUMPDEST PUSH1 0x0 DUP2 SWAP1 POP SWAP2 SWAP1 POP JUMP JUMPDEST PUSH1 0x0 PUSH2 0x206E PUSH2 0x2069 PUSH2 0x2064 DUP5 PUSH2 0x1A07 JUMP JUMPDEST PUSH2 0x2049 JUMP JUMPDEST PUSH2 0x1A07 JUMP JUMPDEST SWAP1 POP SWAP2 SWAP1 POP JUMP JUMPDEST PUSH1 0x0 DUP2 SWAP1 POP SWAP2 SWAP1 POP JUMP JUMPDEST PUSH2 0x2088 DUP4 PUSH2 0x2053 JUMP JUMPDEST PUSH2 0x209C PUSH2 0x2094 DUP3 PUSH2 0x2075 JUMP JUMPDEST DUP5 DUP5 SLOAD PUSH2 0x1FF7 JUMP JUMPDEST DUP3 SSTORE POP POP POP POP JUMP JUMPDEST PUSH1 0x0 SWAP1 JUMP JUMPDEST PUSH2 0x20B1 PUSH2 0x20A4 JUMP JUMPDEST PUSH2 0x20BC DUP2 DUP5 DUP5 PUSH2 0x207F JUMP JUMPDEST POP POP POP JUMP JUMPDEST JUMPDEST DUP2 DUP2 LT ISZERO PUSH2 0x20E0 JUMPI PUSH2 0x20D5 PUSH1 0x0 DUP3 PUSH2 0x20A9 JUMP JUMPDEST PUSH1 0x1 DUP2 ADD SWAP1 POP PUSH2 0x20C2 JUMP JUMPDEST POP POP JUMP JUMPDEST PUSH1 0x1F DUP3 GT ISZERO PUSH2 0x2125 JUMPI PUSH2 0x20F6 DUP2 PUSH2 0x1FC5 JUMP JUMPDEST PUSH2 0x20FF DUP5 PUSH2 0x1FDA JUMP JUMPDEST DUP2 ADD PUSH1 0x20 DUP6 LT ISZERO PUSH2 0x210E JUMPI DUP2 SWAP1 POP JUMPDEST PUSH2 0x2122 PUSH2 0x211A DUP6 PUSH2 0x1FDA JUMP JUMPDEST DUP4 ADD DUP3 PUSH2 0x20C1 JUMP JUMPDEST POP POP JUMPDEST POP POP POP JUMP JUMPDEST PUSH1 0x0 DUP3 DUP3 SHR SWAP1 POP SWAP3 SWAP2 POP POP JUMP JUMPDEST PUSH1 0x0 PUSH2 0x2148 PUSH1 0x0 NOT DUP5 PUSH1 0x8 MUL PUSH2 0x212A JUMP JUMPDEST NOT DUP1 DUP4 AND SWAP2 POP POP SWAP3 SWAP2 POP POP JUMP JUMPDEST PUSH1 0x0 PUSH2 0x2161 DUP4 DUP4 PUSH2 0x2137 JUMP JUMPDEST SWAP2 POP DUP3 PUSH1 0x2 MUL DUP3 OR SWAP1 POP SWAP3 SWAP2 POP POP JUMP JUMPDEST PUSH2 0x217A DUP3 PUSH2 0x1B96 JUMP JUMPDEST PUSH8 0xFFFFFFFFFFFFFFFF DUP2 GT ISZERO PUSH2 0x2193 JUMPI PUSH2 0x2192 PUSH2 0x1893 JUMP JUMPDEST JUMPDEST PUSH2 0x219D DUP3 SLOAD PUSH2 0x1F94 JUMP JUMPDEST PUSH2 0x21A8 DUP3 DUP3 DUP6 PUSH2 0x20E4 JUMP JUMPDEST PUSH1 0x0 PUSH1 0x20 SWAP1 POP PUSH1 0x1F DUP4 GT PUSH1 0x1 DUP2 EQ PUSH2 0x21DB JUMPI PUSH1 0x0 DUP5 ISZERO PUSH2 0x21C9 JUMPI DUP3 DUP8 ADD MLOAD SWAP1 POP JUMPDEST PUSH2 0x21D3 DUP6 DUP3 PUSH2 0x2155 JUMP JUMPDEST DUP7 SSTORE POP PUSH2 0x223B JUMP JUMPDEST PUSH1 0x1F NOT DUP5 AND PUSH2 0x21E9 DUP7 PUSH2 0x1FC5 JUMP JUMPDEST PUSH1 0x0 JUMPDEST DUP3 DUP2 LT ISZERO PUSH2 0x2211 JUMPI DUP5 DUP10 ADD MLOAD DUP3 SSTORE PUSH1 0x1 DUP3 ADD SWAP2 POP PUSH1 0x20 DUP6 ADD SWAP5 POP PUSH1 0x20 DUP2 ADD SWAP1 POP PUSH2 0x21EC JUMP JUMPDEST DUP7 DUP4 LT ISZERO PUSH2 0x222E JUMPI DUP5 DUP10 ADD MLOAD PUSH2 0x222A PUSH1 0x1F DUP10 AND DUP3 PUSH2 0x2137 JUMP JUMPDEST DUP4 SSTORE POP JUMPDEST PUSH1 0x1 PUSH1 0x2 DUP9 MUL ADD DUP9 SSTORE POP POP POP JUMPDEST POP POP POP POP POP POP JUMP JUMPDEST PUSH32 0x4E487B7100000000000000000000000000000000000000000000000000000000 PUSH1 0x0 MSTORE PUSH1 0x32 PUSH1 0x4 MSTORE PUSH1 0x24 PUSH1 0x0 REVERT JUMPDEST PUSH32 0x4E487B7100000000000000000000000000000000000000000000000000000000 PUSH1 0x0 MSTORE PUSH1 0x11 PUSH1 0x4 MSTORE PUSH1 0x24 PUSH1 0x0 REVERT JUMPDEST PUSH1 0x0 PUSH2 0x22AC DUP3 PUSH2 0x1A07 JUMP JUMPDEST SWAP2 POP PUSH32 0xFFFFFFFFFFFFFFFFFFFFFFFFFFFFFFFFFFFFFFFFFFFFFFFFFFFFFFFFFFFFFFFF DUP3 SUB PUSH2 0x22DE JUMPI PUSH2 0x22DD PUSH2 0x2272 JUMP JUMPDEST JUMPDEST PUSH1 0x1 DUP3 ADD SWAP1 POP SWAP2 SWAP1 POP JUMP JUMPDEST PUSH1 0x0 DUP3 DUP3 MSTORE PUSH1 0x20 DUP3 ADD SWAP1 POP SWAP3 SWAP2 POP POP JUMP JUMPDEST PUSH32 0x5573657220616C72656164792072656769737465726564000000000000000000 PUSH1 0x0 DUP3 ADD MSTORE POP JUMP JUMPDEST PUSH1 0x0 PUSH2 0x2330 PUSH1 0x17 DUP4 PUSH2 0x22E9 JUMP JUMPDEST SWAP2 POP PUSH2 0x233B DUP3 PUSH2 0x22FA JUMP JUMPDEST PUSH1 0x20 DUP3 ADD SWAP1 POP SWAP2 SWAP1 POP JUMP JUMPDEST PUSH1 0x0 PUSH1 0x20 DUP3 ADD SWAP1 POP DUP2 DUP2 SUB PUSH1 0x0 DUP4 ADD MSTORE PUSH2 0x235F DUP2 PUSH2 0x2323 JUMP JUMPDEST SWAP1 POP SWAP2 SWAP1 POP JUMP INVALID LOG2 PUSH5 0x6970667358 0x22 SLT KECCAK256 DIV 0xC5 0xE8 PUSH6 0xA8160C6880D4 PUSH7 0xD09FABCDCE123F PUSH28 0xE4786595AF6E553B6783AEF8F664736F6C6343000812003300000000 "
				},
				"gasEstimates": {
					"creation": {
						"codeDepositCost": "1823200",
						"executionCost": "1919",
						"totalCost": "1825119"
					},
					"external": {
						"addUser(uint8,bytes,bytes,bytes)": "infinite",
						"deleteUser(address)": "infinite",
						"distributors(uint256)": "5024",
						"editImage(bytes)": "infinite",
						"editName(bytes)": "infinite",
						"editPhysicalAddress(bytes)": "infinite",
						"getAllDistributors()": "infinite",
						"getAllManufacturers()": "infinite",
						"getAllSuppliers()": "infinite",
						"getAllUsers()": "infinite",
						"manufacturers(uint256)": "4979",
						"suppliers(uint256)": "4978",
						"userDetailsMapping(address)": "infinite",
						"users(uint256)": "5002"
					}
				},
				"methodIdentifiers": {
					"addUser(uint8,bytes,bytes,bytes)": "9ae7d008",
					"deleteUser(address)": "5c60f226",
					"distributors(uint256)": "50b492ba",
					"editImage(bytes)": "d1bab143",
					"editName(bytes)": "0c6c92ba",
					"editPhysicalAddress(bytes)": "6a26d064",
					"getAllDistributors()": "8e24c34b",
					"getAllManufacturers()": "ddba07a4",
					"getAllSuppliers()": "b53305dc",
					"getAllUsers()": "e2842d79",
					"manufacturers(uint256)": "90175af1",
					"suppliers(uint256)": "cea23121",
					"userDetailsMapping(address)": "5166608f",
					"users(uint256)": "365b98b2"
				}
			},
			"storageLayout": {
				"storage": [
					{
						"astId": 58,
						"contract": "contracts/userDetails.sol:userDetails",
						"label": "userDetailsMapping",
						"offset": 0,
						"slot": "0",
						"type": "t_mapping(t_address,t_struct(userDetails)15_storage)"
					},
					{
						"astId": 61,
						"contract": "contracts/userDetails.sol:userDetails",
						"label": "users",
						"offset": 0,
						"slot": "1",
						"type": "t_array(t_address)dyn_storage"
					},
					{
						"astId": 64,
						"contract": "contracts/userDetails.sol:userDetails",
						"label": "suppliers",
						"offset": 0,
						"slot": "2",
						"type": "t_array(t_address)dyn_storage"
					},
					{
						"astId": 67,
						"contract": "contracts/userDetails.sol:userDetails",
						"label": "manufacturers",
						"offset": 0,
						"slot": "3",
						"type": "t_array(t_address)dyn_storage"
					},
					{
						"astId": 70,
						"contract": "contracts/userDetails.sol:userDetails",
						"label": "distributors",
						"offset": 0,
						"slot": "4",
						"type": "t_array(t_address)dyn_storage"
					}
				],
				"types": {
					"t_address": {
						"encoding": "inplace",
						"label": "address",
						"numberOfBytes": "20"
					},
					"t_array(t_address)dyn_storage": {
						"base": "t_address",
						"encoding": "dynamic_array",
						"label": "address[]",
						"numberOfBytes": "32"
					},
					"t_bytes_storage": {
						"encoding": "bytes",
						"label": "bytes",
						"numberOfBytes": "32"
					},
					"t_enum(userType)5": {
						"encoding": "inplace",
						"label": "enum IUserDetails.userType",
						"numberOfBytes": "1"
					},
					"t_mapping(t_address,t_struct(userDetails)15_storage)": {
						"encoding": "mapping",
						"key": "t_address",
						"label": "mapping(address => struct IUserDetails.userDetails)",
						"numberOfBytes": "32",
						"value": "t_struct(userDetails)15_storage"
					},
					"t_struct(userDetails)15_storage": {
						"encoding": "inplace",
						"label": "struct IUserDetails.userDetails",
						"members": [
							{
								"astId": 8,
								"contract": "contracts/userDetails.sol:userDetails",
								"label": "userType",
								"offset": 0,
								"slot": "0",
								"type": "t_enum(userType)5"
							},
							{
								"astId": 10,
								"contract": "contracts/userDetails.sol:userDetails",
								"label": "userName",
								"offset": 0,
								"slot": "1",
								"type": "t_bytes_storage"
							},
							{
								"astId": 12,
								"contract": "contracts/userDetails.sol:userDetails",
								"label": "userPhysicalAddress",
								"offset": 0,
								"slot": "2",
								"type": "t_bytes_storage"
							},
							{
								"astId": 14,
								"contract": "contracts/userDetails.sol:userDetails",
								"label": "userImage",
								"offset": 0,
								"slot": "3",
								"type": "t_bytes_storage"
							}
						],
						"numberOfBytes": "128"
					}
				}
			},
			"userdoc": {
				"kind": "user",
				"methods": {},
				"version": 1
			}
		}
	}
}