{
	"contracts/manufacturerDistributor.sol": {
		"manufacturerDistributor": {
			"abi": [
				{
					"anonymous": false,
					"inputs": [
						{
							"indexed": false,
							"internalType": "uint32",
							"name": "_arrivalTime",
							"type": "uint32"
						}
					],
					"name": "eventArrivalTime",
					"type": "event"
				},
				{
					"anonymous": false,
					"inputs": [
						{
							"indexed": true,
							"internalType": "uint256",
							"name": "_mdId",
							"type": "uint256"
						},
						{
							"indexed": true,
							"internalType": "uint256",
							"name": "_mpId",
							"type": "uint256"
						},
						{
							"indexed": false,
							"internalType": "address",
							"name": "_manufacturerAddress",
							"type": "address"
						},
						{
							"indexed": false,
							"internalType": "address",
							"name": "_distributorAddress",
							"type": "address"
						},
						{
							"indexed": false,
							"internalType": "uint32",
							"name": "_dispatchTime",
							"type": "uint32"
						}
					],
					"name": "eventManufacturerDistributorTransfer",
					"type": "event"
				},
				{
					"inputs": [
						{
							"internalType": "address",
							"name": "",
							"type": "address"
						},
						{
							"internalType": "uint256",
							"name": "",
							"type": "uint256"
						}
					],
					"name": "distributorTosmIdMapping",
					"outputs": [
						{
							"internalType": "uint256",
							"name": "",
							"type": "uint256"
						}
					],
					"stateMutability": "view",
					"type": "function"
				},
				{
					"inputs": [
						{
							"internalType": "address",
							"name": "_distributorAddress",
							"type": "address"
						}
					],
					"name": "getAllmdIdForDistributor",
					"outputs": [
						{
							"components": [
								{
									"internalType": "uint256",
									"name": "mpId",
									"type": "uint256"
								},
								{
									"internalType": "address",
									"name": "m_address",
									"type": "address"
								},
								{
									"internalType": "address",
									"name": "d_address",
									"type": "address"
								},
								{
									"internalType": "uint32",
									"name": "dispatchTime",
									"type": "uint32"
								},
								{
									"internalType": "uint32",
									"name": "arrivalTime",
									"type": "uint32"
								}
							],
							"internalType": "struct IManufacturerDistributor.manufacturerDistributor[]",
							"name": "",
							"type": "tuple[]"
						}
					],
					"stateMutability": "view",
					"type": "function"
				},
				{
					"inputs": [
						{
							"internalType": "uint256",
							"name": "_mdid",
							"type": "uint256"
						}
					],
					"name": "getProduct",
					"outputs": [
						{
							"components": [
								{
									"internalType": "uint256",
									"name": "mpId",
									"type": "uint256"
								},
								{
									"internalType": "address",
									"name": "m_address",
									"type": "address"
								},
								{
									"internalType": "address",
									"name": "d_address",
									"type": "address"
								},
								{
									"internalType": "uint32",
									"name": "dispatchTime",
									"type": "uint32"
								},
								{
									"internalType": "uint32",
									"name": "arrivalTime",
									"type": "uint32"
								}
							],
							"internalType": "struct IManufacturerDistributor.manufacturerDistributor",
							"name": "",
							"type": "tuple"
						}
					],
					"stateMutability": "view",
					"type": "function"
				},
				{
					"inputs": [],
					"name": "mdId",
					"outputs": [
						{
							"internalType": "uint256",
							"name": "",
							"type": "uint256"
						}
					],
					"stateMutability": "view",
					"type": "function"
				},
				{
					"inputs": [
						{
							"internalType": "uint256",
							"name": "",
							"type": "uint256"
						}
					],
					"name": "mdIdToStructMapping",
					"outputs": [
						{
							"internalType": "uint256",
							"name": "mpId",
							"type": "uint256"
						},
						{
							"internalType": "address",
							"name": "m_address",
							"type": "address"
						},
						{
							"internalType": "address",
							"name": "d_address",
							"type": "address"
						},
						{
							"internalType": "uint32",
							"name": "dispatchTime",
							"type": "uint32"
						},
						{
							"internalType": "uint32",
							"name": "arrivalTime",
							"type": "uint32"
						}
					],
					"stateMutability": "view",
					"type": "function"
				},
				{
					"inputs": [
						{
							"internalType": "uint256",
							"name": "_mdId",
							"type": "uint256"
						}
					],
					"name": "receiveProduct",
					"outputs": [],
					"stateMutability": "nonpayable",
					"type": "function"
				},
				{
					"inputs": [
						{
							"internalType": "uint256",
							"name": "_mpId",
							"type": "uint256"
						},
						{
							"internalType": "address",
							"name": "_manufacturerAddress",
							"type": "address"
						},
						{
							"internalType": "address",
							"name": "_distributorAddress",
							"type": "address"
						},
						{
							"internalType": "uint32",
							"name": "_dispatchTime",
							"type": "uint32"
						}
					],
					"name": "transferproduct",
					"outputs": [],
					"stateMutability": "nonpayable",
					"type": "function"
				}
			],
			"devdoc": {
				"author": "ProvyLens team",
				"kind": "dev",
				"methods": {},
				"title": "The contract for handling transfer between manufacturer and distributor product",
				"version": 1
			},
			"evm": {
				"assembly": "    /* \"contracts/manufacturerDistributor.sol\":299:2547  contract manufacturerDistributor is IManufacturerDistributor{\r... */\n  mstore(0x40, 0x80)\n    /* \"contracts/manufacturerDistributor.sol\":385:386  1 */\n  0x01\n    /* \"contracts/manufacturerDistributor.sol\":366:386  uint public mdId = 1 */\n  0x00\n  sstore\n    /* \"contracts/manufacturerDistributor.sol\":299:2547  contract manufacturerDistributor is IManufacturerDistributor{\r... */\n  callvalue\n  dup1\n  iszero\n  tag_1\n  jumpi\n  0x00\n  dup1\n  revert\ntag_1:\n  pop\n  dataSize(sub_0)\n  dup1\n  dataOffset(sub_0)\n  0x00\n  codecopy\n  0x00\n  return\nstop\n\nsub_0: assembly {\n        /* \"contracts/manufacturerDistributor.sol\":299:2547  contract manufacturerDistributor is IManufacturerDistributor{\r... */\n      mstore(0x40, 0x80)\n      callvalue\n      dup1\n      iszero\n      tag_1\n      jumpi\n      0x00\n      dup1\n      revert\n    tag_1:\n      pop\n      jumpi(tag_2, lt(calldatasize, 0x04))\n      shr(0xe0, calldataload(0x00))\n      dup1\n      0x46dadf38\n      gt\n      tag_10\n      jumpi\n      dup1\n      0x46dadf38\n      eq\n      tag_6\n      jumpi\n      dup1\n      0x6e394ff5\n      eq\n      tag_7\n      jumpi\n      dup1\n      0xb9db15b4\n      eq\n      tag_8\n      jumpi\n      dup1\n      0xe3eba904\n      eq\n      tag_9\n      jumpi\n      jump(tag_2)\n    tag_10:\n      dup1\n      0x22bde917\n      eq\n      tag_3\n      jumpi\n      dup1\n      0x29d78328\n      eq\n      tag_4\n      jumpi\n      dup1\n      0x4387254d\n      eq\n      tag_5\n      jumpi\n    tag_2:\n      0x00\n      dup1\n      revert\n        /* \"contracts/manufacturerDistributor.sol\":894:952  mapping(address => uint[]) public distributorTosmIdMapping */\n    tag_3:\n      tag_11\n      0x04\n      dup1\n      calldatasize\n      sub\n      dup2\n      add\n      swap1\n      tag_12\n      swap2\n      swap1\n      tag_13\n      jump\t// in\n    tag_12:\n      tag_14\n      jump\t// in\n    tag_11:\n      mload(0x40)\n      tag_15\n      swap2\n      swap1\n      tag_16\n      jump\t// in\n    tag_15:\n      mload(0x40)\n      dup1\n      swap2\n      sub\n      swap1\n      return\n        /* \"contracts/manufacturerDistributor.sol\":1589:1791  function receiveProduct(uint _mdId)external override{\r... */\n    tag_4:\n      tag_17\n      0x04\n      dup1\n      calldatasize\n      sub\n      dup2\n      add\n      swap1\n      tag_18\n      swap2\n      swap1\n      tag_19\n      jump\t// in\n    tag_18:\n      tag_20\n      jump\t// in\n    tag_17:\n      stop\n        /* \"contracts/manufacturerDistributor.sol\":2073:2544  function getAllmdIdForDistributor(address _distributorAddress) public view returns(manufacturerDistributor[] memory){  \r... */\n    tag_5:\n      tag_21\n      0x04\n      dup1\n      calldatasize\n      sub\n      dup2\n      add\n      swap1\n      tag_22\n      swap2\n      swap1\n      tag_23\n      jump\t// in\n    tag_22:\n      tag_24\n      jump\t// in\n    tag_21:\n      mload(0x40)\n      tag_25\n      swap2\n      swap1\n      tag_26\n      jump\t// in\n    tag_25:\n      mload(0x40)\n      dup1\n      swap2\n      sub\n      swap1\n      return\n        /* \"contracts/manufacturerDistributor.sol\":1040:1509  function transferproduct(uint _mpId, address _manufacturerAddress,address _distributorAddress,uint32 _dispatchTime)external override{\r... */\n    tag_6:\n      tag_27\n      0x04\n      dup1\n      calldatasize\n      sub\n      dup2\n      add\n      swap1\n      tag_28\n      swap2\n      swap1\n      tag_29\n      jump\t// in\n    tag_28:\n      tag_30\n      jump\t// in\n    tag_27:\n      stop\n        /* \"contracts/manufacturerDistributor.sol\":758:825  mapping(uint => manufacturerDistributor) public mdIdToStructMapping */\n    tag_7:\n      tag_31\n      0x04\n      dup1\n      calldatasize\n      sub\n      dup2\n      add\n      swap1\n      tag_32\n      swap2\n      swap1\n      tag_19\n      jump\t// in\n    tag_32:\n      tag_33\n      jump\t// in\n    tag_31:\n      mload(0x40)\n      tag_34\n      swap6\n      swap5\n      swap4\n      swap3\n      swap2\n      swap1\n      tag_35\n      jump\t// in\n    tag_34:\n      mload(0x40)\n      dup1\n      swap2\n      sub\n      swap1\n      return\n        /* \"contracts/manufacturerDistributor.sol\":1858:1993  function getProduct(uint _mdid) public view returns(manufacturerDistributor memory){\r... */\n    tag_8:\n      tag_36\n      0x04\n      dup1\n      calldatasize\n      sub\n      dup2\n      add\n      swap1\n      tag_37\n      swap2\n      swap1\n      tag_19\n      jump\t// in\n    tag_37:\n      tag_38\n      jump\t// in\n    tag_36:\n      mload(0x40)\n      tag_39\n      swap2\n      swap1\n      tag_40\n      jump\t// in\n    tag_39:\n      mload(0x40)\n      dup1\n      swap2\n      sub\n      swap1\n      return\n        /* \"contracts/manufacturerDistributor.sol\":366:386  uint public mdId = 1 */\n    tag_9:\n      tag_41\n      tag_42\n      jump\t// in\n    tag_41:\n      mload(0x40)\n      tag_43\n      swap2\n      swap1\n      tag_16\n      jump\t// in\n    tag_43:\n      mload(0x40)\n      dup1\n      swap2\n      sub\n      swap1\n      return\n        /* \"contracts/manufacturerDistributor.sol\":894:952  mapping(address => uint[]) public distributorTosmIdMapping */\n    tag_14:\n      mstore(0x20, 0x02)\n      dup2\n      0x00\n      mstore\n      keccak256(0x00, 0x40)\n      dup2\n      dup2\n      sload\n      dup2\n      lt\n      tag_44\n      jumpi\n      0x00\n      dup1\n      revert\n    tag_44:\n      swap1\n      0x00\n      mstore\n      keccak256(0x00, 0x20)\n      add\n      0x00\n      swap2\n      pop\n      swap2\n      pop\n      pop\n      sload\n      dup2\n      jump\t// out\n        /* \"contracts/manufacturerDistributor.sol\":1589:1791  function receiveProduct(uint _mdId)external override{\r... */\n    tag_20:\n        /* \"contracts/manufacturerDistributor.sol\":1700:1715  block.timestamp */\n      timestamp\n        /* \"contracts/manufacturerDistributor.sol\":1652:1671  mdIdToStructMapping */\n      0x01\n        /* \"contracts/manufacturerDistributor.sol\":1652:1678  mdIdToStructMapping[_mdId] */\n      0x00\n        /* \"contracts/manufacturerDistributor.sol\":1672:1677  _mdId */\n      dup4\n        /* \"contracts/manufacturerDistributor.sol\":1652:1678  mdIdToStructMapping[_mdId] */\n      dup2\n      mstore\n      0x20\n      add\n      swap1\n      dup2\n      mstore\n      0x20\n      add\n      0x00\n      keccak256\n        /* \"contracts/manufacturerDistributor.sol\":1652:1690  mdIdToStructMapping[_mdId].arrivalTime */\n      0x02\n      add\n      0x18\n        /* \"contracts/manufacturerDistributor.sol\":1652:1716  mdIdToStructMapping[_mdId].arrivalTime = uint32(block.timestamp) */\n      0x0100\n      exp\n      dup2\n      sload\n      dup2\n      0xffffffff\n      mul\n      not\n      and\n      swap1\n      dup4\n      0xffffffff\n      and\n      mul\n      or\n      swap1\n      sstore\n      pop\n        /* \"contracts/manufacturerDistributor.sol\":1732:1773  eventArrivalTime(uint32(block.timestamp)) */\n      0x64e64e323422dcfed18a892f84596ccf7cc94b1952625f3cc82e6461b529fff1\n        /* \"contracts/manufacturerDistributor.sol\":1756:1771  block.timestamp */\n      timestamp\n        /* \"contracts/manufacturerDistributor.sol\":1732:1773  eventArrivalTime(uint32(block.timestamp)) */\n      mload(0x40)\n      tag_47\n      swap2\n      swap1\n      tag_48\n      jump\t// in\n    tag_47:\n      mload(0x40)\n      dup1\n      swap2\n      sub\n      swap1\n      log1\n        /* \"contracts/manufacturerDistributor.sol\":1589:1791  function receiveProduct(uint _mdId)external override{\r... */\n      pop\n      jump\t// out\n        /* \"contracts/manufacturerDistributor.sol\":2073:2544  function getAllmdIdForDistributor(address _distributorAddress) public view returns(manufacturerDistributor[] memory){  \r... */\n    tag_24:\n        /* \"contracts/manufacturerDistributor.sol\":2156:2188  manufacturerDistributor[] memory */\n      0x60\n        /* \"contracts/manufacturerDistributor.sol\":2202:2224  uint[] memory mdIdData */\n      0x00\n        /* \"contracts/manufacturerDistributor.sol\":2227:2251  distributorTosmIdMapping */\n      0x02\n        /* \"contracts/manufacturerDistributor.sol\":2227:2272  distributorTosmIdMapping[_distributorAddress] */\n      0x00\n        /* \"contracts/manufacturerDistributor.sol\":2252:2271  _distributorAddress */\n      dup5\n        /* \"contracts/manufacturerDistributor.sol\":2227:2272  distributorTosmIdMapping[_distributorAddress] */\n      0xffffffffffffffffffffffffffffffffffffffff\n      and\n      0xffffffffffffffffffffffffffffffffffffffff\n      and\n      dup2\n      mstore\n      0x20\n      add\n      swap1\n      dup2\n      mstore\n      0x20\n      add\n      0x00\n      keccak256\n        /* \"contracts/manufacturerDistributor.sol\":2202:2272  uint[] memory mdIdData = distributorTosmIdMapping[_distributorAddress] */\n      dup1\n      sload\n      dup1\n      0x20\n      mul\n      0x20\n      add\n      mload(0x40)\n      swap1\n      dup2\n      add\n      0x40\n      mstore\n      dup1\n      swap3\n      swap2\n      swap1\n      dup2\n      dup2\n      mstore\n      0x20\n      add\n      dup3\n      dup1\n      sload\n      dup1\n      iszero\n      tag_50\n      jumpi\n      0x20\n      mul\n      dup3\n      add\n      swap2\n      swap1\n      0x00\n      mstore\n      keccak256(0x00, 0x20)\n      swap1\n    tag_51:\n      dup2\n      sload\n      dup2\n      mstore\n      0x20\n      add\n      swap1\n      0x01\n      add\n      swap1\n      dup1\n      dup4\n      gt\n      tag_51\n      jumpi\n    tag_50:\n      pop\n      pop\n      pop\n      pop\n      pop\n      swap1\n      pop\n        /* \"contracts/manufacturerDistributor.sol\":2283:2327  manufacturerDistributor[] memory mdIdDetails */\n      0x00\n        /* \"contracts/manufacturerDistributor.sol\":2360:2368  mdIdData */\n      dup2\n        /* \"contracts/manufacturerDistributor.sol\":2360:2375  mdIdData.length */\n      mload\n        /* \"contracts/manufacturerDistributor.sol\":2330:2376  new manufacturerDistributor[](mdIdData.length) */\n      0xffffffffffffffff\n      dup2\n      gt\n      iszero\n      tag_52\n      jumpi\n      tag_53\n      tag_54\n      jump\t// in\n    tag_53:\n    tag_52:\n      mload(0x40)\n      swap1\n      dup1\n      dup3\n      mstore\n      dup1\n      0x20\n      mul\n      0x20\n      add\n      dup3\n      add\n      0x40\n      mstore\n      dup1\n      iszero\n      tag_55\n      jumpi\n      dup2\n      0x20\n      add\n    tag_56:\n      tag_57\n      tag_58\n      jump\t// in\n    tag_57:\n      dup2\n      mstore\n      0x20\n      add\n      swap1\n      0x01\n      swap1\n      sub\n      swap1\n      dup2\n      tag_56\n      jumpi\n      swap1\n      pop\n    tag_55:\n      pop\n        /* \"contracts/manufacturerDistributor.sol\":2283:2376  manufacturerDistributor[] memory mdIdDetails = new manufacturerDistributor[](mdIdData.length) */\n      swap1\n      pop\n        /* \"contracts/manufacturerDistributor.sol\":2391:2397  uint i */\n      0x00\n        /* \"contracts/manufacturerDistributor.sol\":2387:2508  for(uint i=0;i<mdIdData.length;i++)\r... */\n    tag_59:\n        /* \"contracts/manufacturerDistributor.sol\":2402:2410  mdIdData */\n      dup3\n        /* \"contracts/manufacturerDistributor.sol\":2402:2417  mdIdData.length */\n      mload\n        /* \"contracts/manufacturerDistributor.sol\":2400:2401  i */\n      dup2\n        /* \"contracts/manufacturerDistributor.sol\":2400:2417  i<mdIdData.length */\n      lt\n        /* \"contracts/manufacturerDistributor.sol\":2387:2508  for(uint i=0;i<mdIdData.length;i++)\r... */\n      iszero\n      tag_60\n      jumpi\n        /* \"contracts/manufacturerDistributor.sol\":2464:2483  mdIdToStructMapping */\n      0x01\n        /* \"contracts/manufacturerDistributor.sol\":2464:2496  mdIdToStructMapping[mdIdData[i]] */\n      0x00\n        /* \"contracts/manufacturerDistributor.sol\":2484:2492  mdIdData */\n      dup5\n        /* \"contracts/manufacturerDistributor.sol\":2493:2494  i */\n      dup4\n        /* \"contracts/manufacturerDistributor.sol\":2484:2495  mdIdData[i] */\n      dup2\n      mload\n      dup2\n      lt\n      tag_62\n      jumpi\n      tag_63\n      tag_64\n      jump\t// in\n    tag_63:\n    tag_62:\n      0x20\n      mul\n      0x20\n      add\n      add\n      mload\n        /* \"contracts/manufacturerDistributor.sol\":2464:2496  mdIdToStructMapping[mdIdData[i]] */\n      dup2\n      mstore\n      0x20\n      add\n      swap1\n      dup2\n      mstore\n      0x20\n      add\n      0x00\n      keccak256\n        /* \"contracts/manufacturerDistributor.sol\":2447:2496  mdIdDetails[i] = mdIdToStructMapping[mdIdData[i]] */\n      mload(0x40)\n      dup1\n      0xa0\n      add\n      0x40\n      mstore\n      swap1\n      dup2\n      0x00\n      dup3\n      add\n      sload\n      dup2\n      mstore\n      0x20\n      add\n      0x01\n      dup3\n      add\n      0x00\n      swap1\n      sload\n      swap1\n      0x0100\n      exp\n      swap1\n      div\n      0xffffffffffffffffffffffffffffffffffffffff\n      and\n      0xffffffffffffffffffffffffffffffffffffffff\n      and\n      0xffffffffffffffffffffffffffffffffffffffff\n      and\n      dup2\n      mstore\n      0x20\n      add\n      0x02\n      dup3\n      add\n      0x00\n      swap1\n      sload\n      swap1\n      0x0100\n      exp\n      swap1\n      div\n      0xffffffffffffffffffffffffffffffffffffffff\n      and\n      0xffffffffffffffffffffffffffffffffffffffff\n      and\n      0xffffffffffffffffffffffffffffffffffffffff\n      and\n      dup2\n      mstore\n      0x20\n      add\n      0x02\n      dup3\n      add\n      0x14\n      swap1\n      sload\n      swap1\n      0x0100\n      exp\n      swap1\n      div\n      0xffffffff\n      and\n      0xffffffff\n      and\n      0xffffffff\n      and\n      dup2\n      mstore\n      0x20\n      add\n      0x02\n      dup3\n      add\n      0x18\n      swap1\n      sload\n      swap1\n      0x0100\n      exp\n      swap1\n      div\n      0xffffffff\n      and\n      0xffffffff\n      and\n      0xffffffff\n      and\n      dup2\n      mstore\n      pop\n      pop\n        /* \"contracts/manufacturerDistributor.sol\":2447:2458  mdIdDetails */\n      dup3\n        /* \"contracts/manufacturerDistributor.sol\":2459:2460  i */\n      dup3\n        /* \"contracts/manufacturerDistributor.sol\":2447:2461  mdIdDetails[i] */\n      dup2\n      mload\n      dup2\n      lt\n      tag_65\n      jumpi\n      tag_66\n      tag_64\n      jump\t// in\n    tag_66:\n    tag_65:\n      0x20\n      mul\n      0x20\n      add\n      add\n        /* \"contracts/manufacturerDistributor.sol\":2447:2496  mdIdDetails[i] = mdIdToStructMapping[mdIdData[i]] */\n      dup2\n      swap1\n      mstore\n      pop\n        /* \"contracts/manufacturerDistributor.sol\":2418:2421  i++ */\n      dup1\n      dup1\n      tag_67\n      swap1\n      tag_68\n      jump\t// in\n    tag_67:\n      swap2\n      pop\n      pop\n        /* \"contracts/manufacturerDistributor.sol\":2387:2508  for(uint i=0;i<mdIdData.length;i++)\r... */\n      jump(tag_59)\n    tag_60:\n      pop\n        /* \"contracts/manufacturerDistributor.sol\":2525:2536  mdIdDetails */\n      dup1\n        /* \"contracts/manufacturerDistributor.sol\":2518:2536  return mdIdDetails */\n      swap3\n      pop\n      pop\n      pop\n        /* \"contracts/manufacturerDistributor.sol\":2073:2544  function getAllmdIdForDistributor(address _distributorAddress) public view returns(manufacturerDistributor[] memory){  \r... */\n      swap2\n      swap1\n      pop\n      jump\t// out\n        /* \"contracts/manufacturerDistributor.sol\":1040:1509  function transferproduct(uint _mpId, address _manufacturerAddress,address _distributorAddress,uint32 _dispatchTime)external override{\r... */\n    tag_30:\n        /* \"contracts/manufacturerDistributor.sol\":1211:1298  manufacturerDistributor(_mpId,_manufacturerAddress,_distributorAddress,_dispatchTime,0) */\n      mload(0x40)\n      dup1\n      0xa0\n      add\n      0x40\n      mstore\n      dup1\n        /* \"contracts/manufacturerDistributor.sol\":1235:1240  _mpId */\n      dup6\n        /* \"contracts/manufacturerDistributor.sol\":1211:1298  manufacturerDistributor(_mpId,_manufacturerAddress,_distributorAddress,_dispatchTime,0) */\n      dup2\n      mstore\n      0x20\n      add\n        /* \"contracts/manufacturerDistributor.sol\":1241:1261  _manufacturerAddress */\n      dup5\n        /* \"contracts/manufacturerDistributor.sol\":1211:1298  manufacturerDistributor(_mpId,_manufacturerAddress,_distributorAddress,_dispatchTime,0) */\n      0xffffffffffffffffffffffffffffffffffffffff\n      and\n      dup2\n      mstore\n      0x20\n      add\n        /* \"contracts/manufacturerDistributor.sol\":1262:1281  _distributorAddress */\n      dup4\n        /* \"contracts/manufacturerDistributor.sol\":1211:1298  manufacturerDistributor(_mpId,_manufacturerAddress,_distributorAddress,_dispatchTime,0) */\n      0xffffffffffffffffffffffffffffffffffffffff\n      and\n      dup2\n      mstore\n      0x20\n      add\n        /* \"contracts/manufacturerDistributor.sol\":1282:1295  _dispatchTime */\n      dup3\n        /* \"contracts/manufacturerDistributor.sol\":1211:1298  manufacturerDistributor(_mpId,_manufacturerAddress,_distributorAddress,_dispatchTime,0) */\n      0xffffffff\n      and\n      dup2\n      mstore\n      0x20\n      add\n        /* \"contracts/manufacturerDistributor.sol\":1296:1297  0 */\n      0x00\n        /* \"contracts/manufacturerDistributor.sol\":1211:1298  manufacturerDistributor(_mpId,_manufacturerAddress,_distributorAddress,_dispatchTime,0) */\n      0xffffffff\n      and\n      dup2\n      mstore\n      pop\n        /* \"contracts/manufacturerDistributor.sol\":1183:1202  mdIdToStructMapping */\n      0x01\n        /* \"contracts/manufacturerDistributor.sol\":1183:1208  mdIdToStructMapping[mdId] */\n      0x00\n        /* \"contracts/manufacturerDistributor.sol\":1203:1207  mdId */\n      dup1\n      sload\n        /* \"contracts/manufacturerDistributor.sol\":1183:1208  mdIdToStructMapping[mdId] */\n      dup2\n      mstore\n      0x20\n      add\n      swap1\n      dup2\n      mstore\n      0x20\n      add\n      0x00\n      keccak256\n        /* \"contracts/manufacturerDistributor.sol\":1183:1298  mdIdToStructMapping[mdId] = manufacturerDistributor(_mpId,_manufacturerAddress,_distributorAddress,_dispatchTime,0) */\n      0x00\n      dup3\n      add\n      mload\n      dup2\n      0x00\n      add\n      sstore\n      0x20\n      dup3\n      add\n      mload\n      dup2\n      0x01\n      add\n      exp(0x0100, 0x00)\n      dup2\n      sload\n      dup2\n      0xffffffffffffffffffffffffffffffffffffffff\n      mul\n      not\n      and\n      swap1\n      dup4\n      0xffffffffffffffffffffffffffffffffffffffff\n      and\n      mul\n      or\n      swap1\n      sstore\n      pop\n      0x40\n      dup3\n      add\n      mload\n      dup2\n      0x02\n      add\n      exp(0x0100, 0x00)\n      dup2\n      sload\n      dup2\n      0xffffffffffffffffffffffffffffffffffffffff\n      mul\n      not\n      and\n      swap1\n      dup4\n      0xffffffffffffffffffffffffffffffffffffffff\n      and\n      mul\n      or\n      swap1\n      sstore\n      pop\n      0x60\n      dup3\n      add\n      mload\n      dup2\n      0x02\n      add\n      exp(0x0100, 0x14)\n      dup2\n      sload\n      dup2\n      0xffffffff\n      mul\n      not\n      and\n      swap1\n      dup4\n      0xffffffff\n      and\n      mul\n      or\n      swap1\n      sstore\n      pop\n      0x80\n      dup3\n      add\n      mload\n      dup2\n      0x02\n      add\n      exp(0x0100, 0x18)\n      dup2\n      sload\n      dup2\n      0xffffffff\n      mul\n      not\n      and\n      swap1\n      dup4\n      0xffffffff\n      and\n      mul\n      or\n      swap1\n      sstore\n      pop\n      swap1\n      pop\n      pop\n        /* \"contracts/manufacturerDistributor.sol\":1309:1333  distributorTosmIdMapping */\n      0x02\n        /* \"contracts/manufacturerDistributor.sol\":1309:1354  distributorTosmIdMapping[_distributorAddress] */\n      0x00\n        /* \"contracts/manufacturerDistributor.sol\":1334:1353  _distributorAddress */\n      dup4\n        /* \"contracts/manufacturerDistributor.sol\":1309:1354  distributorTosmIdMapping[_distributorAddress] */\n      0xffffffffffffffffffffffffffffffffffffffff\n      and\n      0xffffffffffffffffffffffffffffffffffffffff\n      and\n      dup2\n      mstore\n      0x20\n      add\n      swap1\n      dup2\n      mstore\n      0x20\n      add\n      0x00\n      keccak256\n        /* \"contracts/manufacturerDistributor.sol\":1360:1364  mdId */\n      sload(0x00)\n        /* \"contracts/manufacturerDistributor.sol\":1309:1365  distributorTosmIdMapping[_distributorAddress].push(mdId) */\n      swap1\n      dup1\n      0x01\n      dup2\n      sload\n      add\n      dup1\n      dup3\n      sstore\n      dup1\n      swap2\n      pop\n      pop\n      0x01\n      swap1\n      sub\n      swap1\n      0x00\n      mstore\n      keccak256(0x00, 0x20)\n      add\n      0x00\n      swap1\n      swap2\n      swap1\n      swap2\n      swap1\n      swap2\n      pop\n      sstore\n        /* \"contracts/manufacturerDistributor.sol\":1423:1428  _mpId */\n      dup4\n        /* \"contracts/manufacturerDistributor.sol\":1418:1422  mdId */\n      sload(0x00)\n        /* \"contracts/manufacturerDistributor.sol\":1381:1484  eventManufacturerDistributorTransfer(mdId,_mpId,_manufacturerAddress,_distributorAddress,_dispatchTime) */\n      0x3d9c6d7fedf256315259fe8cb6863117af8f4a56f16c0767d72c06359e16e533\n        /* \"contracts/manufacturerDistributor.sol\":1429:1449  _manufacturerAddress */\n      dup6\n        /* \"contracts/manufacturerDistributor.sol\":1450:1469  _distributorAddress */\n      dup6\n        /* \"contracts/manufacturerDistributor.sol\":1470:1483  _dispatchTime */\n      dup6\n        /* \"contracts/manufacturerDistributor.sol\":1381:1484  eventManufacturerDistributorTransfer(mdId,_mpId,_manufacturerAddress,_distributorAddress,_dispatchTime) */\n      mload(0x40)\n      tag_71\n      swap4\n      swap3\n      swap2\n      swap1\n      tag_72\n      jump\t// in\n    tag_71:\n      mload(0x40)\n      dup1\n      swap2\n      sub\n      swap1\n      log3\n        /* \"contracts/manufacturerDistributor.sol\":1495:1499  mdId */\n      0x00\n      dup1\n        /* \"contracts/manufacturerDistributor.sol\":1495:1501  mdId++ */\n      dup2\n      sload\n      dup1\n      swap3\n      swap2\n      swap1\n      tag_73\n      swap1\n      tag_68\n      jump\t// in\n    tag_73:\n      swap2\n      swap1\n      pop\n      sstore\n      pop\n        /* \"contracts/manufacturerDistributor.sol\":1040:1509  function transferproduct(uint _mpId, address _manufacturerAddress,address _distributorAddress,uint32 _dispatchTime)external override{\r... */\n      pop\n      pop\n      pop\n      pop\n      jump\t// out\n        /* \"contracts/manufacturerDistributor.sol\":758:825  mapping(uint => manufacturerDistributor) public mdIdToStructMapping */\n    tag_33:\n      mstore(0x20, 0x01)\n      dup1\n      0x00\n      mstore\n      keccak256(0x00, 0x40)\n      0x00\n      swap2\n      pop\n      swap1\n      pop\n      dup1\n      0x00\n      add\n      sload\n      swap1\n      dup1\n      0x01\n      add\n      0x00\n      swap1\n      sload\n      swap1\n      0x0100\n      exp\n      swap1\n      div\n      0xffffffffffffffffffffffffffffffffffffffff\n      and\n      swap1\n      dup1\n      0x02\n      add\n      0x00\n      swap1\n      sload\n      swap1\n      0x0100\n      exp\n      swap1\n      div\n      0xffffffffffffffffffffffffffffffffffffffff\n      and\n      swap1\n      dup1\n      0x02\n      add\n      0x14\n      swap1\n      sload\n      swap1\n      0x0100\n      exp\n      swap1\n      div\n      0xffffffff\n      and\n      swap1\n      dup1\n      0x02\n      add\n      0x18\n      swap1\n      sload\n      swap1\n      0x0100\n      exp\n      swap1\n      div\n      0xffffffff\n      and\n      swap1\n      pop\n      dup6\n      jump\t// out\n        /* \"contracts/manufacturerDistributor.sol\":1858:1993  function getProduct(uint _mdid) public view returns(manufacturerDistributor memory){\r... */\n    tag_38:\n        /* \"contracts/manufacturerDistributor.sol\":1910:1940  manufacturerDistributor memory */\n      tag_74\n      tag_58\n      jump\t// in\n    tag_74:\n        /* \"contracts/manufacturerDistributor.sol\":1959:1978  mdIdToStructMapping */\n      0x01\n        /* \"contracts/manufacturerDistributor.sol\":1959:1985  mdIdToStructMapping[_mdid] */\n      0x00\n        /* \"contracts/manufacturerDistributor.sol\":1979:1984  _mdid */\n      dup4\n        /* \"contracts/manufacturerDistributor.sol\":1959:1985  mdIdToStructMapping[_mdid] */\n      dup2\n      mstore\n      0x20\n      add\n      swap1\n      dup2\n      mstore\n      0x20\n      add\n      0x00\n      keccak256\n        /* \"contracts/manufacturerDistributor.sol\":1952:1985  return mdIdToStructMapping[_mdid] */\n      mload(0x40)\n      dup1\n      0xa0\n      add\n      0x40\n      mstore\n      swap1\n      dup2\n      0x00\n      dup3\n      add\n      sload\n      dup2\n      mstore\n      0x20\n      add\n      0x01\n      dup3\n      add\n      0x00\n      swap1\n      sload\n      swap1\n      0x0100\n      exp\n      swap1\n      div\n      0xffffffffffffffffffffffffffffffffffffffff\n      and\n      0xffffffffffffffffffffffffffffffffffffffff\n      and\n      0xffffffffffffffffffffffffffffffffffffffff\n      and\n      dup2\n      mstore\n      0x20\n      add\n      0x02\n      dup3\n      add\n      0x00\n      swap1\n      sload\n      swap1\n      0x0100\n      exp\n      swap1\n      div\n      0xffffffffffffffffffffffffffffffffffffffff\n      and\n      0xffffffffffffffffffffffffffffffffffffffff\n      and\n      0xffffffffffffffffffffffffffffffffffffffff\n      and\n      dup2\n      mstore\n      0x20\n      add\n      0x02\n      dup3\n      add\n      0x14\n      swap1\n      sload\n      swap1\n      0x0100\n      exp\n      swap1\n      div\n      0xffffffff\n      and\n      0xffffffff\n      and\n      0xffffffff\n      and\n      dup2\n      mstore\n      0x20\n      add\n      0x02\n      dup3\n      add\n      0x18\n      swap1\n      sload\n      swap1\n      0x0100\n      exp\n      swap1\n      div\n      0xffffffff\n      and\n      0xffffffff\n      and\n      0xffffffff\n      and\n      dup2\n      mstore\n      pop\n      pop\n      swap1\n      pop\n        /* \"contracts/manufacturerDistributor.sol\":1858:1993  function getProduct(uint _mdid) public view returns(manufacturerDistributor memory){\r... */\n      swap2\n      swap1\n      pop\n      jump\t// out\n        /* \"contracts/manufacturerDistributor.sol\":366:386  uint public mdId = 1 */\n    tag_42:\n      sload(0x00)\n      dup2\n      jump\t// out\n    tag_58:\n      mload(0x40)\n      dup1\n      0xa0\n      add\n      0x40\n      mstore\n      dup1\n      0x00\n      dup2\n      mstore\n      0x20\n      add\n      and(0xffffffffffffffffffffffffffffffffffffffff, 0x00)\n      dup2\n      mstore\n      0x20\n      add\n      and(0xffffffffffffffffffffffffffffffffffffffff, 0x00)\n      dup2\n      mstore\n      0x20\n      add\n      and(0xffffffff, 0x00)\n      dup2\n      mstore\n      0x20\n      add\n      and(0xffffffff, 0x00)\n      dup2\n      mstore\n      pop\n      swap1\n      jump\t// out\n        /* \"#utility.yul\":7:146   */\n    tag_77:\n        /* \"#utility.yul\":53:58   */\n      0x00\n        /* \"#utility.yul\":91:97   */\n      dup2\n        /* \"#utility.yul\":78:98   */\n      calldataload\n        /* \"#utility.yul\":69:98   */\n      swap1\n      pop\n        /* \"#utility.yul\":107:140   */\n      tag_79\n        /* \"#utility.yul\":134:139   */\n      dup2\n        /* \"#utility.yul\":107:140   */\n      tag_80\n      jump\t// in\n    tag_79:\n        /* \"#utility.yul\":7:146   */\n      swap3\n      swap2\n      pop\n      pop\n      jump\t// out\n        /* \"#utility.yul\":152:291   */\n    tag_81:\n        /* \"#utility.yul\":198:203   */\n      0x00\n        /* \"#utility.yul\":236:242   */\n      dup2\n        /* \"#utility.yul\":223:243   */\n      calldataload\n        /* \"#utility.yul\":214:243   */\n      swap1\n      pop\n        /* \"#utility.yul\":252:285   */\n      tag_83\n        /* \"#utility.yul\":279:284   */\n      dup2\n        /* \"#utility.yul\":252:285   */\n      tag_84\n      jump\t// in\n    tag_83:\n        /* \"#utility.yul\":152:291   */\n      swap3\n      swap2\n      pop\n      pop\n      jump\t// out\n        /* \"#utility.yul\":297:434   */\n    tag_85:\n        /* \"#utility.yul\":342:347   */\n      0x00\n        /* \"#utility.yul\":380:386   */\n      dup2\n        /* \"#utility.yul\":367:387   */\n      calldataload\n        /* \"#utility.yul\":358:387   */\n      swap1\n      pop\n        /* \"#utility.yul\":396:428   */\n      tag_87\n        /* \"#utility.yul\":422:427   */\n      dup2\n        /* \"#utility.yul\":396:428   */\n      tag_88\n      jump\t// in\n    tag_87:\n        /* \"#utility.yul\":297:434   */\n      swap3\n      swap2\n      pop\n      pop\n      jump\t// out\n        /* \"#utility.yul\":440:769   */\n    tag_23:\n        /* \"#utility.yul\":499:505   */\n      0x00\n        /* \"#utility.yul\":548:550   */\n      0x20\n        /* \"#utility.yul\":536:545   */\n      dup3\n        /* \"#utility.yul\":527:534   */\n      dup5\n        /* \"#utility.yul\":523:546   */\n      sub\n        /* \"#utility.yul\":519:551   */\n      slt\n        /* \"#utility.yul\":516:635   */\n      iszero\n      tag_90\n      jumpi\n        /* \"#utility.yul\":554:633   */\n      tag_91\n      tag_92\n      jump\t// in\n    tag_91:\n        /* \"#utility.yul\":516:635   */\n    tag_90:\n        /* \"#utility.yul\":674:675   */\n      0x00\n        /* \"#utility.yul\":699:752   */\n      tag_93\n        /* \"#utility.yul\":744:751   */\n      dup5\n        /* \"#utility.yul\":735:741   */\n      dup3\n        /* \"#utility.yul\":724:733   */\n      dup6\n        /* \"#utility.yul\":720:742   */\n      add\n        /* \"#utility.yul\":699:752   */\n      tag_77\n      jump\t// in\n    tag_93:\n        /* \"#utility.yul\":689:752   */\n      swap2\n      pop\n        /* \"#utility.yul\":645:762   */\n      pop\n        /* \"#utility.yul\":440:769   */\n      swap3\n      swap2\n      pop\n      pop\n      jump\t// out\n        /* \"#utility.yul\":775:1249   */\n    tag_13:\n        /* \"#utility.yul\":843:849   */\n      0x00\n        /* \"#utility.yul\":851:857   */\n      dup1\n        /* \"#utility.yul\":900:902   */\n      0x40\n        /* \"#utility.yul\":888:897   */\n      dup4\n        /* \"#utility.yul\":879:886   */\n      dup6\n        /* \"#utility.yul\":875:898   */\n      sub\n        /* \"#utility.yul\":871:903   */\n      slt\n        /* \"#utility.yul\":868:987   */\n      iszero\n      tag_95\n      jumpi\n        /* \"#utility.yul\":906:985   */\n      tag_96\n      tag_92\n      jump\t// in\n    tag_96:\n        /* \"#utility.yul\":868:987   */\n    tag_95:\n        /* \"#utility.yul\":1026:1027   */\n      0x00\n        /* \"#utility.yul\":1051:1104   */\n      tag_97\n        /* \"#utility.yul\":1096:1103   */\n      dup6\n        /* \"#utility.yul\":1087:1093   */\n      dup3\n        /* \"#utility.yul\":1076:1085   */\n      dup7\n        /* \"#utility.yul\":1072:1094   */\n      add\n        /* \"#utility.yul\":1051:1104   */\n      tag_77\n      jump\t// in\n    tag_97:\n        /* \"#utility.yul\":1041:1104   */\n      swap3\n      pop\n        /* \"#utility.yul\":997:1114   */\n      pop\n        /* \"#utility.yul\":1153:1155   */\n      0x20\n        /* \"#utility.yul\":1179:1232   */\n      tag_98\n        /* \"#utility.yul\":1224:1231   */\n      dup6\n        /* \"#utility.yul\":1215:1221   */\n      dup3\n        /* \"#utility.yul\":1204:1213   */\n      dup7\n        /* \"#utility.yul\":1200:1222   */\n      add\n        /* \"#utility.yul\":1179:1232   */\n      tag_81\n      jump\t// in\n    tag_98:\n        /* \"#utility.yul\":1169:1232   */\n      swap2\n      pop\n        /* \"#utility.yul\":1124:1242   */\n      pop\n        /* \"#utility.yul\":775:1249   */\n      swap3\n      pop\n      swap3\n      swap1\n      pop\n      jump\t// out\n        /* \"#utility.yul\":1255:1584   */\n    tag_19:\n        /* \"#utility.yul\":1314:1320   */\n      0x00\n        /* \"#utility.yul\":1363:1365   */\n      0x20\n        /* \"#utility.yul\":1351:1360   */\n      dup3\n        /* \"#utility.yul\":1342:1349   */\n      dup5\n        /* \"#utility.yul\":1338:1361   */\n      sub\n        /* \"#utility.yul\":1334:1366   */\n      slt\n        /* \"#utility.yul\":1331:1450   */\n      iszero\n      tag_100\n      jumpi\n        /* \"#utility.yul\":1369:1448   */\n      tag_101\n      tag_92\n      jump\t// in\n    tag_101:\n        /* \"#utility.yul\":1331:1450   */\n    tag_100:\n        /* \"#utility.yul\":1489:1490   */\n      0x00\n        /* \"#utility.yul\":1514:1567   */\n      tag_102\n        /* \"#utility.yul\":1559:1566   */\n      dup5\n        /* \"#utility.yul\":1550:1556   */\n      dup3\n        /* \"#utility.yul\":1539:1548   */\n      dup6\n        /* \"#utility.yul\":1535:1557   */\n      add\n        /* \"#utility.yul\":1514:1567   */\n      tag_81\n      jump\t// in\n    tag_102:\n        /* \"#utility.yul\":1504:1567   */\n      swap2\n      pop\n        /* \"#utility.yul\":1460:1577   */\n      pop\n        /* \"#utility.yul\":1255:1584   */\n      swap3\n      swap2\n      pop\n      pop\n      jump\t// out\n        /* \"#utility.yul\":1590:2353   */\n    tag_29:\n        /* \"#utility.yul\":1675:1681   */\n      0x00\n        /* \"#utility.yul\":1683:1689   */\n      dup1\n        /* \"#utility.yul\":1691:1697   */\n      0x00\n        /* \"#utility.yul\":1699:1705   */\n      dup1\n        /* \"#utility.yul\":1748:1751   */\n      0x80\n        /* \"#utility.yul\":1736:1745   */\n      dup6\n        /* \"#utility.yul\":1727:1734   */\n      dup8\n        /* \"#utility.yul\":1723:1746   */\n      sub\n        /* \"#utility.yul\":1719:1752   */\n      slt\n        /* \"#utility.yul\":1716:1836   */\n      iszero\n      tag_104\n      jumpi\n        /* \"#utility.yul\":1755:1834   */\n      tag_105\n      tag_92\n      jump\t// in\n    tag_105:\n        /* \"#utility.yul\":1716:1836   */\n    tag_104:\n        /* \"#utility.yul\":1875:1876   */\n      0x00\n        /* \"#utility.yul\":1900:1953   */\n      tag_106\n        /* \"#utility.yul\":1945:1952   */\n      dup8\n        /* \"#utility.yul\":1936:1942   */\n      dup3\n        /* \"#utility.yul\":1925:1934   */\n      dup9\n        /* \"#utility.yul\":1921:1943   */\n      add\n        /* \"#utility.yul\":1900:1953   */\n      tag_81\n      jump\t// in\n    tag_106:\n        /* \"#utility.yul\":1890:1953   */\n      swap5\n      pop\n        /* \"#utility.yul\":1846:1963   */\n      pop\n        /* \"#utility.yul\":2002:2004   */\n      0x20\n        /* \"#utility.yul\":2028:2081   */\n      tag_107\n        /* \"#utility.yul\":2073:2080   */\n      dup8\n        /* \"#utility.yul\":2064:2070   */\n      dup3\n        /* \"#utility.yul\":2053:2062   */\n      dup9\n        /* \"#utility.yul\":2049:2071   */\n      add\n        /* \"#utility.yul\":2028:2081   */\n      tag_77\n      jump\t// in\n    tag_107:\n        /* \"#utility.yul\":2018:2081   */\n      swap4\n      pop\n        /* \"#utility.yul\":1973:2091   */\n      pop\n        /* \"#utility.yul\":2130:2132   */\n      0x40\n        /* \"#utility.yul\":2156:2209   */\n      tag_108\n        /* \"#utility.yul\":2201:2208   */\n      dup8\n        /* \"#utility.yul\":2192:2198   */\n      dup3\n        /* \"#utility.yul\":2181:2190   */\n      dup9\n        /* \"#utility.yul\":2177:2199   */\n      add\n        /* \"#utility.yul\":2156:2209   */\n      tag_77\n      jump\t// in\n    tag_108:\n        /* \"#utility.yul\":2146:2209   */\n      swap3\n      pop\n        /* \"#utility.yul\":2101:2219   */\n      pop\n        /* \"#utility.yul\":2258:2260   */\n      0x60\n        /* \"#utility.yul\":2284:2336   */\n      tag_109\n        /* \"#utility.yul\":2328:2335   */\n      dup8\n        /* \"#utility.yul\":2319:2325   */\n      dup3\n        /* \"#utility.yul\":2308:2317   */\n      dup9\n        /* \"#utility.yul\":2304:2326   */\n      add\n        /* \"#utility.yul\":2284:2336   */\n      tag_85\n      jump\t// in\n    tag_109:\n        /* \"#utility.yul\":2274:2336   */\n      swap2\n      pop\n        /* \"#utility.yul\":2229:2346   */\n      pop\n        /* \"#utility.yul\":1590:2353   */\n      swap3\n      swap6\n      swap2\n      swap5\n      pop\n      swap3\n      pop\n      jump\t// out\n        /* \"#utility.yul\":2359:2694   */\n    tag_110:\n        /* \"#utility.yul\":2506:2516   */\n      0x00\n        /* \"#utility.yul\":2527:2651   */\n      tag_112\n        /* \"#utility.yul\":2647:2650   */\n      dup4\n        /* \"#utility.yul\":2639:2645   */\n      dup4\n        /* \"#utility.yul\":2527:2651   */\n      tag_113\n      jump\t// in\n    tag_112:\n        /* \"#utility.yul\":2683:2687   */\n      0xa0\n        /* \"#utility.yul\":2678:2681   */\n      dup4\n        /* \"#utility.yul\":2674:2688   */\n      add\n        /* \"#utility.yul\":2660:2688   */\n      swap1\n      pop\n        /* \"#utility.yul\":2359:2694   */\n      swap3\n      swap2\n      pop\n      pop\n      jump\t// out\n        /* \"#utility.yul\":2700:2808   */\n    tag_114:\n        /* \"#utility.yul\":2777:2801   */\n      tag_116\n        /* \"#utility.yul\":2795:2800   */\n      dup2\n        /* \"#utility.yul\":2777:2801   */\n      tag_117\n      jump\t// in\n    tag_116:\n        /* \"#utility.yul\":2772:2775   */\n      dup3\n        /* \"#utility.yul\":2765:2802   */\n      mstore\n        /* \"#utility.yul\":2700:2808   */\n      pop\n      pop\n      jump\t// out\n        /* \"#utility.yul\":2814:2932   */\n    tag_118:\n        /* \"#utility.yul\":2901:2925   */\n      tag_120\n        /* \"#utility.yul\":2919:2924   */\n      dup2\n        /* \"#utility.yul\":2901:2925   */\n      tag_117\n      jump\t// in\n    tag_120:\n        /* \"#utility.yul\":2896:2899   */\n      dup3\n        /* \"#utility.yul\":2889:2926   */\n      mstore\n        /* \"#utility.yul\":2814:2932   */\n      pop\n      pop\n      jump\t// out\n        /* \"#utility.yul\":3064:4108   */\n    tag_121:\n        /* \"#utility.yul\":3261:3264   */\n      0x00\n        /* \"#utility.yul\":3290:3383   */\n      tag_123\n        /* \"#utility.yul\":3377:3382   */\n      dup3\n        /* \"#utility.yul\":3290:3383   */\n      tag_124\n      jump\t// in\n    tag_123:\n        /* \"#utility.yul\":3399:3524   */\n      tag_125\n        /* \"#utility.yul\":3517:3523   */\n      dup2\n        /* \"#utility.yul\":3512:3515   */\n      dup6\n        /* \"#utility.yul\":3399:3524   */\n      tag_126\n      jump\t// in\n    tag_125:\n        /* \"#utility.yul\":3392:3524   */\n      swap4\n      pop\n        /* \"#utility.yul\":3548:3643   */\n      tag_127\n        /* \"#utility.yul\":3637:3642   */\n      dup4\n        /* \"#utility.yul\":3548:3643   */\n      tag_128\n      jump\t// in\n    tag_127:\n        /* \"#utility.yul\":3666:3673   */\n      dup1\n        /* \"#utility.yul\":3697:3698   */\n      0x00\n        /* \"#utility.yul\":3682:4083   */\n    tag_129:\n        /* \"#utility.yul\":3707:3713   */\n      dup4\n        /* \"#utility.yul\":3704:3705   */\n      dup2\n        /* \"#utility.yul\":3701:3714   */\n      lt\n        /* \"#utility.yul\":3682:4083   */\n      iszero\n      tag_131\n      jumpi\n        /* \"#utility.yul\":3783:3789   */\n      dup2\n        /* \"#utility.yul\":3777:3790   */\n      mload\n        /* \"#utility.yul\":3810:3951   */\n      tag_132\n        /* \"#utility.yul\":3947:3950   */\n      dup9\n        /* \"#utility.yul\":3932:3945   */\n      dup3\n        /* \"#utility.yul\":3810:3951   */\n      tag_110\n      jump\t// in\n    tag_132:\n        /* \"#utility.yul\":3803:3951   */\n      swap8\n      pop\n        /* \"#utility.yul\":3974:4073   */\n      tag_133\n        /* \"#utility.yul\":4066:4072   */\n      dup4\n        /* \"#utility.yul\":3974:4073   */\n      tag_134\n      jump\t// in\n    tag_133:\n        /* \"#utility.yul\":3964:4073   */\n      swap3\n      pop\n        /* \"#utility.yul\":3742:4083   */\n      pop\n        /* \"#utility.yul\":3729:3730   */\n      0x01\n        /* \"#utility.yul\":3726:3727   */\n      dup2\n        /* \"#utility.yul\":3722:3731   */\n      add\n        /* \"#utility.yul\":3717:3731   */\n      swap1\n      pop\n        /* \"#utility.yul\":3682:4083   */\n      jump(tag_129)\n    tag_131:\n        /* \"#utility.yul\":3686:3700   */\n      pop\n        /* \"#utility.yul\":4099:4102   */\n      dup6\n        /* \"#utility.yul\":4092:4102   */\n      swap4\n      pop\n        /* \"#utility.yul\":3266:4108   */\n      pop\n      pop\n      pop\n        /* \"#utility.yul\":3064:4108   */\n      swap3\n      swap2\n      pop\n      pop\n      jump\t// out\n        /* \"#utility.yul\":4236:5304   */\n    tag_113:\n        /* \"#utility.yul\":4401:4405   */\n      0xa0\n        /* \"#utility.yul\":4396:4399   */\n      dup3\n        /* \"#utility.yul\":4392:4406   */\n      add\n        /* \"#utility.yul\":4488:4492   */\n      0x00\n        /* \"#utility.yul\":4481:4486   */\n      dup3\n        /* \"#utility.yul\":4477:4493   */\n      add\n        /* \"#utility.yul\":4471:4494   */\n      mload\n        /* \"#utility.yul\":4507:4570   */\n      tag_136\n        /* \"#utility.yul\":4564:4568   */\n      0x00\n        /* \"#utility.yul\":4559:4562   */\n      dup6\n        /* \"#utility.yul\":4555:4569   */\n      add\n        /* \"#utility.yul\":4541:4553   */\n      dup3\n        /* \"#utility.yul\":4507:4570   */\n      tag_137\n      jump\t// in\n    tag_136:\n        /* \"#utility.yul\":4416:4580   */\n      pop\n        /* \"#utility.yul\":4667:4671   */\n      0x20\n        /* \"#utility.yul\":4660:4665   */\n      dup3\n        /* \"#utility.yul\":4656:4672   */\n      add\n        /* \"#utility.yul\":4650:4673   */\n      mload\n        /* \"#utility.yul\":4686:4749   */\n      tag_138\n        /* \"#utility.yul\":4743:4747   */\n      0x20\n        /* \"#utility.yul\":4738:4741   */\n      dup6\n        /* \"#utility.yul\":4734:4748   */\n      add\n        /* \"#utility.yul\":4720:4732   */\n      dup3\n        /* \"#utility.yul\":4686:4749   */\n      tag_114\n      jump\t// in\n    tag_138:\n        /* \"#utility.yul\":4590:4759   */\n      pop\n        /* \"#utility.yul\":4846:4850   */\n      0x40\n        /* \"#utility.yul\":4839:4844   */\n      dup3\n        /* \"#utility.yul\":4835:4851   */\n      add\n        /* \"#utility.yul\":4829:4852   */\n      mload\n        /* \"#utility.yul\":4865:4928   */\n      tag_139\n        /* \"#utility.yul\":4922:4926   */\n      0x40\n        /* \"#utility.yul\":4917:4920   */\n      dup6\n        /* \"#utility.yul\":4913:4927   */\n      add\n        /* \"#utility.yul\":4899:4911   */\n      dup3\n        /* \"#utility.yul\":4865:4928   */\n      tag_114\n      jump\t// in\n    tag_139:\n        /* \"#utility.yul\":4769:4938   */\n      pop\n        /* \"#utility.yul\":5028:5032   */\n      0x60\n        /* \"#utility.yul\":5021:5026   */\n      dup3\n        /* \"#utility.yul\":5017:5033   */\n      add\n        /* \"#utility.yul\":5011:5034   */\n      mload\n        /* \"#utility.yul\":5047:5108   */\n      tag_140\n        /* \"#utility.yul\":5102:5106   */\n      0x60\n        /* \"#utility.yul\":5097:5100   */\n      dup6\n        /* \"#utility.yul\":5093:5107   */\n      add\n        /* \"#utility.yul\":5079:5091   */\n      dup3\n        /* \"#utility.yul\":5047:5108   */\n      tag_141\n      jump\t// in\n    tag_140:\n        /* \"#utility.yul\":4948:5118   */\n      pop\n        /* \"#utility.yul\":5207:5211   */\n      0x80\n        /* \"#utility.yul\":5200:5205   */\n      dup3\n        /* \"#utility.yul\":5196:5212   */\n      add\n        /* \"#utility.yul\":5190:5213   */\n      mload\n        /* \"#utility.yul\":5226:5287   */\n      tag_142\n        /* \"#utility.yul\":5281:5285   */\n      0x80\n        /* \"#utility.yul\":5276:5279   */\n      dup6\n        /* \"#utility.yul\":5272:5286   */\n      add\n        /* \"#utility.yul\":5258:5270   */\n      dup3\n        /* \"#utility.yul\":5226:5287   */\n      tag_141\n      jump\t// in\n    tag_142:\n        /* \"#utility.yul\":5128:5297   */\n      pop\n        /* \"#utility.yul\":4370:5304   */\n      pop\n        /* \"#utility.yul\":4236:5304   */\n      pop\n      pop\n      jump\t// out\n        /* \"#utility.yul\":5432:6510   */\n    tag_143:\n        /* \"#utility.yul\":5607:5611   */\n      0xa0\n        /* \"#utility.yul\":5602:5605   */\n      dup3\n        /* \"#utility.yul\":5598:5612   */\n      add\n        /* \"#utility.yul\":5694:5698   */\n      0x00\n        /* \"#utility.yul\":5687:5692   */\n      dup3\n        /* \"#utility.yul\":5683:5699   */\n      add\n        /* \"#utility.yul\":5677:5700   */\n      mload\n        /* \"#utility.yul\":5713:5776   */\n      tag_145\n        /* \"#utility.yul\":5770:5774   */\n      0x00\n        /* \"#utility.yul\":5765:5768   */\n      dup6\n        /* \"#utility.yul\":5761:5775   */\n      add\n        /* \"#utility.yul\":5747:5759   */\n      dup3\n        /* \"#utility.yul\":5713:5776   */\n      tag_137\n      jump\t// in\n    tag_145:\n        /* \"#utility.yul\":5622:5786   */\n      pop\n        /* \"#utility.yul\":5873:5877   */\n      0x20\n        /* \"#utility.yul\":5866:5871   */\n      dup3\n        /* \"#utility.yul\":5862:5878   */\n      add\n        /* \"#utility.yul\":5856:5879   */\n      mload\n        /* \"#utility.yul\":5892:5955   */\n      tag_146\n        /* \"#utility.yul\":5949:5953   */\n      0x20\n        /* \"#utility.yul\":5944:5947   */\n      dup6\n        /* \"#utility.yul\":5940:5954   */\n      add\n        /* \"#utility.yul\":5926:5938   */\n      dup3\n        /* \"#utility.yul\":5892:5955   */\n      tag_114\n      jump\t// in\n    tag_146:\n        /* \"#utility.yul\":5796:5965   */\n      pop\n        /* \"#utility.yul\":6052:6056   */\n      0x40\n        /* \"#utility.yul\":6045:6050   */\n      dup3\n        /* \"#utility.yul\":6041:6057   */\n      add\n        /* \"#utility.yul\":6035:6058   */\n      mload\n        /* \"#utility.yul\":6071:6134   */\n      tag_147\n        /* \"#utility.yul\":6128:6132   */\n      0x40\n        /* \"#utility.yul\":6123:6126   */\n      dup6\n        /* \"#utility.yul\":6119:6133   */\n      add\n        /* \"#utility.yul\":6105:6117   */\n      dup3\n        /* \"#utility.yul\":6071:6134   */\n      tag_114\n      jump\t// in\n    tag_147:\n        /* \"#utility.yul\":5975:6144   */\n      pop\n        /* \"#utility.yul\":6234:6238   */\n      0x60\n        /* \"#utility.yul\":6227:6232   */\n      dup3\n        /* \"#utility.yul\":6223:6239   */\n      add\n        /* \"#utility.yul\":6217:6240   */\n      mload\n        /* \"#utility.yul\":6253:6314   */\n      tag_148\n        /* \"#utility.yul\":6308:6312   */\n      0x60\n        /* \"#utility.yul\":6303:6306   */\n      dup6\n        /* \"#utility.yul\":6299:6313   */\n      add\n        /* \"#utility.yul\":6285:6297   */\n      dup3\n        /* \"#utility.yul\":6253:6314   */\n      tag_141\n      jump\t// in\n    tag_148:\n        /* \"#utility.yul\":6154:6324   */\n      pop\n        /* \"#utility.yul\":6413:6417   */\n      0x80\n        /* \"#utility.yul\":6406:6411   */\n      dup3\n        /* \"#utility.yul\":6402:6418   */\n      add\n        /* \"#utility.yul\":6396:6419   */\n      mload\n        /* \"#utility.yul\":6432:6493   */\n      tag_149\n        /* \"#utility.yul\":6487:6491   */\n      0x80\n        /* \"#utility.yul\":6482:6485   */\n      dup6\n        /* \"#utility.yul\":6478:6492   */\n      add\n        /* \"#utility.yul\":6464:6476   */\n      dup3\n        /* \"#utility.yul\":6432:6493   */\n      tag_141\n      jump\t// in\n    tag_149:\n        /* \"#utility.yul\":6334:6503   */\n      pop\n        /* \"#utility.yul\":5576:6510   */\n      pop\n        /* \"#utility.yul\":5432:6510   */\n      pop\n      pop\n      jump\t// out\n        /* \"#utility.yul\":6516:6624   */\n    tag_137:\n        /* \"#utility.yul\":6593:6617   */\n      tag_151\n        /* \"#utility.yul\":6611:6616   */\n      dup2\n        /* \"#utility.yul\":6593:6617   */\n      tag_152\n      jump\t// in\n    tag_151:\n        /* \"#utility.yul\":6588:6591   */\n      dup3\n        /* \"#utility.yul\":6581:6618   */\n      mstore\n        /* \"#utility.yul\":6516:6624   */\n      pop\n      pop\n      jump\t// out\n        /* \"#utility.yul\":6630:6748   */\n    tag_153:\n        /* \"#utility.yul\":6717:6741   */\n      tag_155\n        /* \"#utility.yul\":6735:6740   */\n      dup2\n        /* \"#utility.yul\":6717:6741   */\n      tag_152\n      jump\t// in\n    tag_155:\n        /* \"#utility.yul\":6712:6715   */\n      dup3\n        /* \"#utility.yul\":6705:6742   */\n      mstore\n        /* \"#utility.yul\":6630:6748   */\n      pop\n      pop\n      jump\t// out\n        /* \"#utility.yul\":6754:6859   */\n    tag_141:\n        /* \"#utility.yul\":6829:6852   */\n      tag_157\n        /* \"#utility.yul\":6846:6851   */\n      dup2\n        /* \"#utility.yul\":6829:6852   */\n      tag_158\n      jump\t// in\n    tag_157:\n        /* \"#utility.yul\":6824:6827   */\n      dup3\n        /* \"#utility.yul\":6817:6853   */\n      mstore\n        /* \"#utility.yul\":6754:6859   */\n      pop\n      pop\n      jump\t// out\n        /* \"#utility.yul\":6865:6980   */\n    tag_159:\n        /* \"#utility.yul\":6950:6973   */\n      tag_161\n        /* \"#utility.yul\":6967:6972   */\n      dup2\n        /* \"#utility.yul\":6950:6973   */\n      tag_158\n      jump\t// in\n    tag_161:\n        /* \"#utility.yul\":6945:6948   */\n      dup3\n        /* \"#utility.yul\":6938:6974   */\n      mstore\n        /* \"#utility.yul\":6865:6980   */\n      pop\n      pop\n      jump\t// out\n        /* \"#utility.yul\":6986:7424   */\n    tag_72:\n        /* \"#utility.yul\":7133:7137   */\n      0x00\n        /* \"#utility.yul\":7171:7173   */\n      0x60\n        /* \"#utility.yul\":7160:7169   */\n      dup3\n        /* \"#utility.yul\":7156:7174   */\n      add\n        /* \"#utility.yul\":7148:7174   */\n      swap1\n      pop\n        /* \"#utility.yul\":7184:7255   */\n      tag_163\n        /* \"#utility.yul\":7252:7253   */\n      0x00\n        /* \"#utility.yul\":7241:7250   */\n      dup4\n        /* \"#utility.yul\":7237:7254   */\n      add\n        /* \"#utility.yul\":7228:7234   */\n      dup7\n        /* \"#utility.yul\":7184:7255   */\n      tag_118\n      jump\t// in\n    tag_163:\n        /* \"#utility.yul\":7265:7337   */\n      tag_164\n        /* \"#utility.yul\":7333:7335   */\n      0x20\n        /* \"#utility.yul\":7322:7331   */\n      dup4\n        /* \"#utility.yul\":7318:7336   */\n      add\n        /* \"#utility.yul\":7309:7315   */\n      dup6\n        /* \"#utility.yul\":7265:7337   */\n      tag_118\n      jump\t// in\n    tag_164:\n        /* \"#utility.yul\":7347:7417   */\n      tag_165\n        /* \"#utility.yul\":7413:7415   */\n      0x40\n        /* \"#utility.yul\":7402:7411   */\n      dup4\n        /* \"#utility.yul\":7398:7416   */\n      add\n        /* \"#utility.yul\":7389:7395   */\n      dup5\n        /* \"#utility.yul\":7347:7417   */\n      tag_159\n      jump\t// in\n    tag_165:\n        /* \"#utility.yul\":6986:7424   */\n      swap5\n      swap4\n      pop\n      pop\n      pop\n      pop\n      jump\t// out\n        /* \"#utility.yul\":7430:7959   */\n    tag_26:\n        /* \"#utility.yul\":7651:7655   */\n      0x00\n        /* \"#utility.yul\":7689:7691   */\n      0x20\n        /* \"#utility.yul\":7678:7687   */\n      dup3\n        /* \"#utility.yul\":7674:7692   */\n      add\n        /* \"#utility.yul\":7666:7692   */\n      swap1\n      pop\n        /* \"#utility.yul\":7738:7747   */\n      dup2\n        /* \"#utility.yul\":7732:7736   */\n      dup2\n        /* \"#utility.yul\":7728:7748   */\n      sub\n        /* \"#utility.yul\":7724:7725   */\n      0x00\n        /* \"#utility.yul\":7713:7722   */\n      dup4\n        /* \"#utility.yul\":7709:7726   */\n      add\n        /* \"#utility.yul\":7702:7749   */\n      mstore\n        /* \"#utility.yul\":7766:7952   */\n      tag_167\n        /* \"#utility.yul\":7947:7951   */\n      dup2\n        /* \"#utility.yul\":7938:7944   */\n      dup5\n        /* \"#utility.yul\":7766:7952   */\n      tag_121\n      jump\t// in\n    tag_167:\n        /* \"#utility.yul\":7758:7952   */\n      swap1\n      pop\n        /* \"#utility.yul\":7430:7959   */\n      swap3\n      swap2\n      pop\n      pop\n      jump\t// out\n        /* \"#utility.yul\":7965:8344   */\n    tag_40:\n        /* \"#utility.yul\":8136:8140   */\n      0x00\n        /* \"#utility.yul\":8174:8177   */\n      0xa0\n        /* \"#utility.yul\":8163:8172   */\n      dup3\n        /* \"#utility.yul\":8159:8178   */\n      add\n        /* \"#utility.yul\":8151:8178   */\n      swap1\n      pop\n        /* \"#utility.yul\":8188:8337   */\n      tag_169\n        /* \"#utility.yul\":8334:8335   */\n      0x00\n        /* \"#utility.yul\":8323:8332   */\n      dup4\n        /* \"#utility.yul\":8319:8336   */\n      add\n        /* \"#utility.yul\":8310:8316   */\n      dup5\n        /* \"#utility.yul\":8188:8337   */\n      tag_143\n      jump\t// in\n    tag_169:\n        /* \"#utility.yul\":7965:8344   */\n      swap3\n      swap2\n      pop\n      pop\n      jump\t// out\n        /* \"#utility.yul\":8350:8572   */\n    tag_16:\n        /* \"#utility.yul\":8443:8447   */\n      0x00\n        /* \"#utility.yul\":8481:8483   */\n      0x20\n        /* \"#utility.yul\":8470:8479   */\n      dup3\n        /* \"#utility.yul\":8466:8484   */\n      add\n        /* \"#utility.yul\":8458:8484   */\n      swap1\n      pop\n        /* \"#utility.yul\":8494:8565   */\n      tag_171\n        /* \"#utility.yul\":8562:8563   */\n      0x00\n        /* \"#utility.yul\":8551:8560   */\n      dup4\n        /* \"#utility.yul\":8547:8564   */\n      add\n        /* \"#utility.yul\":8538:8544   */\n      dup5\n        /* \"#utility.yul\":8494:8565   */\n      tag_153\n      jump\t// in\n    tag_171:\n        /* \"#utility.yul\":8350:8572   */\n      swap3\n      swap2\n      pop\n      pop\n      jump\t// out\n        /* \"#utility.yul\":8578:9234   */\n    tag_35:\n        /* \"#utility.yul\":8779:8783   */\n      0x00\n        /* \"#utility.yul\":8817:8820   */\n      0xa0\n        /* \"#utility.yul\":8806:8815   */\n      dup3\n        /* \"#utility.yul\":8802:8821   */\n      add\n        /* \"#utility.yul\":8794:8821   */\n      swap1\n      pop\n        /* \"#utility.yul\":8831:8902   */\n      tag_173\n        /* \"#utility.yul\":8899:8900   */\n      0x00\n        /* \"#utility.yul\":8888:8897   */\n      dup4\n        /* \"#utility.yul\":8884:8901   */\n      add\n        /* \"#utility.yul\":8875:8881   */\n      dup9\n        /* \"#utility.yul\":8831:8902   */\n      tag_153\n      jump\t// in\n    tag_173:\n        /* \"#utility.yul\":8912:8984   */\n      tag_174\n        /* \"#utility.yul\":8980:8982   */\n      0x20\n        /* \"#utility.yul\":8969:8978   */\n      dup4\n        /* \"#utility.yul\":8965:8983   */\n      add\n        /* \"#utility.yul\":8956:8962   */\n      dup8\n        /* \"#utility.yul\":8912:8984   */\n      tag_118\n      jump\t// in\n    tag_174:\n        /* \"#utility.yul\":8994:9066   */\n      tag_175\n        /* \"#utility.yul\":9062:9064   */\n      0x40\n        /* \"#utility.yul\":9051:9060   */\n      dup4\n        /* \"#utility.yul\":9047:9065   */\n      add\n        /* \"#utility.yul\":9038:9044   */\n      dup7\n        /* \"#utility.yul\":8994:9066   */\n      tag_118\n      jump\t// in\n    tag_175:\n        /* \"#utility.yul\":9076:9146   */\n      tag_176\n        /* \"#utility.yul\":9142:9144   */\n      0x60\n        /* \"#utility.yul\":9131:9140   */\n      dup4\n        /* \"#utility.yul\":9127:9145   */\n      add\n        /* \"#utility.yul\":9118:9124   */\n      dup6\n        /* \"#utility.yul\":9076:9146   */\n      tag_159\n      jump\t// in\n    tag_176:\n        /* \"#utility.yul\":9156:9227   */\n      tag_177\n        /* \"#utility.yul\":9222:9225   */\n      0x80\n        /* \"#utility.yul\":9211:9220   */\n      dup4\n        /* \"#utility.yul\":9207:9226   */\n      add\n        /* \"#utility.yul\":9198:9204   */\n      dup5\n        /* \"#utility.yul\":9156:9227   */\n      tag_159\n      jump\t// in\n    tag_177:\n        /* \"#utility.yul\":8578:9234   */\n      swap7\n      swap6\n      pop\n      pop\n      pop\n      pop\n      pop\n      pop\n      jump\t// out\n        /* \"#utility.yul\":9240:9458   */\n    tag_48:\n        /* \"#utility.yul\":9331:9335   */\n      0x00\n        /* \"#utility.yul\":9369:9371   */\n      0x20\n        /* \"#utility.yul\":9358:9367   */\n      dup3\n        /* \"#utility.yul\":9354:9372   */\n      add\n        /* \"#utility.yul\":9346:9372   */\n      swap1\n      pop\n        /* \"#utility.yul\":9382:9451   */\n      tag_179\n        /* \"#utility.yul\":9448:9449   */\n      0x00\n        /* \"#utility.yul\":9437:9446   */\n      dup4\n        /* \"#utility.yul\":9433:9450   */\n      add\n        /* \"#utility.yul\":9424:9430   */\n      dup5\n        /* \"#utility.yul\":9382:9451   */\n      tag_159\n      jump\t// in\n    tag_179:\n        /* \"#utility.yul\":9240:9458   */\n      swap3\n      swap2\n      pop\n      pop\n      jump\t// out\n        /* \"#utility.yul\":9545:9716   */\n    tag_128:\n        /* \"#utility.yul\":9651:9655   */\n      0x00\n        /* \"#utility.yul\":9674:9677   */\n      dup2\n        /* \"#utility.yul\":9666:9677   */\n      swap1\n      pop\n        /* \"#utility.yul\":9704:9708   */\n      0x20\n        /* \"#utility.yul\":9699:9702   */\n      dup3\n        /* \"#utility.yul\":9695:9709   */\n      add\n        /* \"#utility.yul\":9687:9709   */\n      swap1\n      pop\n        /* \"#utility.yul\":9545:9716   */\n      swap2\n      swap1\n      pop\n      jump\t// out\n        /* \"#utility.yul\":9722:9875   */\n    tag_124:\n        /* \"#utility.yul\":9828:9834   */\n      0x00\n        /* \"#utility.yul\":9862:9867   */\n      dup2\n        /* \"#utility.yul\":9856:9868   */\n      mload\n        /* \"#utility.yul\":9846:9868   */\n      swap1\n      pop\n        /* \"#utility.yul\":9722:9875   */\n      swap2\n      swap1\n      pop\n      jump\t// out\n        /* \"#utility.yul\":9881:10033   */\n    tag_134:\n        /* \"#utility.yul\":9990:9994   */\n      0x00\n        /* \"#utility.yul\":10022:10026   */\n      0x20\n        /* \"#utility.yul\":10017:10020   */\n      dup3\n        /* \"#utility.yul\":10013:10027   */\n      add\n        /* \"#utility.yul\":10005:10027   */\n      swap1\n      pop\n        /* \"#utility.yul\":9881:10033   */\n      swap2\n      swap1\n      pop\n      jump\t// out\n        /* \"#utility.yul\":10039:10262   */\n    tag_126:\n        /* \"#utility.yul\":10177:10188   */\n      0x00\n        /* \"#utility.yul\":10211:10217   */\n      dup3\n        /* \"#utility.yul\":10206:10209   */\n      dup3\n        /* \"#utility.yul\":10199:10218   */\n      mstore\n        /* \"#utility.yul\":10251:10255   */\n      0x20\n        /* \"#utility.yul\":10246:10249   */\n      dup3\n        /* \"#utility.yul\":10242:10256   */\n      add\n        /* \"#utility.yul\":10227:10256   */\n      swap1\n      pop\n        /* \"#utility.yul\":10039:10262   */\n      swap3\n      swap2\n      pop\n      pop\n      jump\t// out\n        /* \"#utility.yul\":10268:10364   */\n    tag_117:\n        /* \"#utility.yul\":10305:10312   */\n      0x00\n        /* \"#utility.yul\":10334:10358   */\n      tag_187\n        /* \"#utility.yul\":10352:10357   */\n      dup3\n        /* \"#utility.yul\":10334:10358   */\n      tag_188\n      jump\t// in\n    tag_187:\n        /* \"#utility.yul\":10323:10358   */\n      swap1\n      pop\n        /* \"#utility.yul\":10268:10364   */\n      swap2\n      swap1\n      pop\n      jump\t// out\n        /* \"#utility.yul\":10370:10496   */\n    tag_188:\n        /* \"#utility.yul\":10407:10414   */\n      0x00\n        /* \"#utility.yul\":10447:10489   */\n      0xffffffffffffffffffffffffffffffffffffffff\n        /* \"#utility.yul\":10440:10445   */\n      dup3\n        /* \"#utility.yul\":10436:10490   */\n      and\n        /* \"#utility.yul\":10425:10490   */\n      swap1\n      pop\n        /* \"#utility.yul\":10370:10496   */\n      swap2\n      swap1\n      pop\n      jump\t// out\n        /* \"#utility.yul\":10502:10579   */\n    tag_152:\n        /* \"#utility.yul\":10539:10546   */\n      0x00\n        /* \"#utility.yul\":10568:10573   */\n      dup2\n        /* \"#utility.yul\":10557:10573   */\n      swap1\n      pop\n        /* \"#utility.yul\":10502:10579   */\n      swap2\n      swap1\n      pop\n      jump\t// out\n        /* \"#utility.yul\":10585:10678   */\n    tag_158:\n        /* \"#utility.yul\":10621:10628   */\n      0x00\n        /* \"#utility.yul\":10661:10671   */\n      0xffffffff\n        /* \"#utility.yul\":10654:10659   */\n      dup3\n        /* \"#utility.yul\":10650:10672   */\n      and\n        /* \"#utility.yul\":10639:10672   */\n      swap1\n      pop\n        /* \"#utility.yul\":10585:10678   */\n      swap2\n      swap1\n      pop\n      jump\t// out\n        /* \"#utility.yul\":10684:10917   */\n    tag_68:\n        /* \"#utility.yul\":10723:10726   */\n      0x00\n        /* \"#utility.yul\":10746:10770   */\n      tag_193\n        /* \"#utility.yul\":10764:10769   */\n      dup3\n        /* \"#utility.yul\":10746:10770   */\n      tag_152\n      jump\t// in\n    tag_193:\n        /* \"#utility.yul\":10737:10770   */\n      swap2\n      pop\n        /* \"#utility.yul\":10792:10858   */\n      0xffffffffffffffffffffffffffffffffffffffffffffffffffffffffffffffff\n        /* \"#utility.yul\":10785:10790   */\n      dup3\n        /* \"#utility.yul\":10782:10859   */\n      eq\n        /* \"#utility.yul\":10779:10882   */\n      iszero\n      tag_194\n      jumpi\n        /* \"#utility.yul\":10862:10880   */\n      tag_195\n      tag_196\n      jump\t// in\n    tag_195:\n        /* \"#utility.yul\":10779:10882   */\n    tag_194:\n        /* \"#utility.yul\":10909:10910   */\n      0x01\n        /* \"#utility.yul\":10902:10907   */\n      dup3\n        /* \"#utility.yul\":10898:10911   */\n      add\n        /* \"#utility.yul\":10891:10911   */\n      swap1\n      pop\n        /* \"#utility.yul\":10684:10917   */\n      swap2\n      swap1\n      pop\n      jump\t// out\n        /* \"#utility.yul\":10923:11103   */\n    tag_196:\n        /* \"#utility.yul\":10971:11048   */\n      0x4e487b7100000000000000000000000000000000000000000000000000000000\n        /* \"#utility.yul\":10968:10969   */\n      0x00\n        /* \"#utility.yul\":10961:11049   */\n      mstore\n        /* \"#utility.yul\":11068:11072   */\n      0x11\n        /* \"#utility.yul\":11065:11066   */\n      0x04\n        /* \"#utility.yul\":11058:11073   */\n      mstore\n        /* \"#utility.yul\":11092:11096   */\n      0x24\n        /* \"#utility.yul\":11089:11090   */\n      0x00\n        /* \"#utility.yul\":11082:11097   */\n      revert\n        /* \"#utility.yul\":11109:11289   */\n    tag_64:\n        /* \"#utility.yul\":11157:11234   */\n      0x4e487b7100000000000000000000000000000000000000000000000000000000\n        /* \"#utility.yul\":11154:11155   */\n      0x00\n        /* \"#utility.yul\":11147:11235   */\n      mstore\n        /* \"#utility.yul\":11254:11258   */\n      0x32\n        /* \"#utility.yul\":11251:11252   */\n      0x04\n        /* \"#utility.yul\":11244:11259   */\n      mstore\n        /* \"#utility.yul\":11278:11282   */\n      0x24\n        /* \"#utility.yul\":11275:11276   */\n      0x00\n        /* \"#utility.yul\":11268:11283   */\n      revert\n        /* \"#utility.yul\":11295:11475   */\n    tag_54:\n        /* \"#utility.yul\":11343:11420   */\n      0x4e487b7100000000000000000000000000000000000000000000000000000000\n        /* \"#utility.yul\":11340:11341   */\n      0x00\n        /* \"#utility.yul\":11333:11421   */\n      mstore\n        /* \"#utility.yul\":11440:11444   */\n      0x41\n        /* \"#utility.yul\":11437:11438   */\n      0x04\n        /* \"#utility.yul\":11430:11445   */\n      mstore\n        /* \"#utility.yul\":11464:11468   */\n      0x24\n        /* \"#utility.yul\":11461:11462   */\n      0x00\n        /* \"#utility.yul\":11454:11469   */\n      revert\n        /* \"#utility.yul\":11604:11721   */\n    tag_92:\n        /* \"#utility.yul\":11713:11714   */\n      0x00\n        /* \"#utility.yul\":11710:11711   */\n      dup1\n        /* \"#utility.yul\":11703:11715   */\n      revert\n        /* \"#utility.yul\":11727:11849   */\n    tag_80:\n        /* \"#utility.yul\":11800:11824   */\n      tag_204\n        /* \"#utility.yul\":11818:11823   */\n      dup2\n        /* \"#utility.yul\":11800:11824   */\n      tag_117\n      jump\t// in\n    tag_204:\n        /* \"#utility.yul\":11793:11798   */\n      dup2\n        /* \"#utility.yul\":11790:11825   */\n      eq\n        /* \"#utility.yul\":11780:11843   */\n      tag_205\n      jumpi\n        /* \"#utility.yul\":11839:11840   */\n      0x00\n        /* \"#utility.yul\":11836:11837   */\n      dup1\n        /* \"#utility.yul\":11829:11841   */\n      revert\n        /* \"#utility.yul\":11780:11843   */\n    tag_205:\n        /* \"#utility.yul\":11727:11849   */\n      pop\n      jump\t// out\n        /* \"#utility.yul\":11855:11977   */\n    tag_84:\n        /* \"#utility.yul\":11928:11952   */\n      tag_207\n        /* \"#utility.yul\":11946:11951   */\n      dup2\n        /* \"#utility.yul\":11928:11952   */\n      tag_152\n      jump\t// in\n    tag_207:\n        /* \"#utility.yul\":11921:11926   */\n      dup2\n        /* \"#utility.yul\":11918:11953   */\n      eq\n        /* \"#utility.yul\":11908:11971   */\n      tag_208\n      jumpi\n        /* \"#utility.yul\":11967:11968   */\n      0x00\n        /* \"#utility.yul\":11964:11965   */\n      dup1\n        /* \"#utility.yul\":11957:11969   */\n      revert\n        /* \"#utility.yul\":11908:11971   */\n    tag_208:\n        /* \"#utility.yul\":11855:11977   */\n      pop\n      jump\t// out\n        /* \"#utility.yul\":11983:12103   */\n    tag_88:\n        /* \"#utility.yul\":12055:12078   */\n      tag_210\n        /* \"#utility.yul\":12072:12077   */\n      dup2\n        /* \"#utility.yul\":12055:12078   */\n      tag_158\n      jump\t// in\n    tag_210:\n        /* \"#utility.yul\":12048:12053   */\n      dup2\n        /* \"#utility.yul\":12045:12079   */\n      eq\n        /* \"#utility.yul\":12035:12097   */\n      tag_211\n      jumpi\n        /* \"#utility.yul\":12093:12094   */\n      0x00\n        /* \"#utility.yul\":12090:12091   */\n      dup1\n        /* \"#utility.yul\":12083:12095   */\n      revert\n        /* \"#utility.yul\":12035:12097   */\n    tag_211:\n        /* \"#utility.yul\":11983:12103   */\n      pop\n      jump\t// out\n\n    auxdata: 0xa2646970667358221220e499ac36e21fc5a90b15a9da439df439ae22ec916ebef14a6eb20bc31d446e8264736f6c63430008070033\n}\n",
				"bytecode": {
					"linkReferences": {},
					"object": "6080604052600160005534801561001557600080fd5b50610eb6806100256000396000f3fe608060405234801561001057600080fd5b506004361061007d5760003560e01c806346dadf381161005b57806346dadf38146100fe5780636e394ff51461011a578063b9db15b41461014e578063e3eba9041461017e5761007d565b806322bde9171461008257806329d78328146100b25780634387254d146100ce575b600080fd5b61009c6004803603810190610097919061096a565b61019c565b6040516100a99190610c52565b60405180910390f35b6100cc60048036038101906100c791906109aa565b6101cd565b005b6100e860048036038101906100e3919061093d565b61023c565b6040516100f59190610c15565b60405180910390f35b610118600480360381019061011391906109d7565b6104ab565b005b610134600480360381019061012f91906109aa565b6106cc565b604051610145959493929190610c6d565b60405180910390f35b610168600480360381019061016391906109aa565b610762565b6040516101759190610c37565b60405180910390f35b610186610891565b6040516101939190610c52565b60405180910390f35b600260205281600052604060002081815481106101b857600080fd5b90600052602060002001600091509150505481565b426001600083815260200190815260200160002060020160186101000a81548163ffffffff021916908363ffffffff1602179055507f64e64e323422dcfed18a892f84596ccf7cc94b1952625f3cc82e6461b529fff1426040516102319190610cc0565b60405180910390a150565b60606000600260008473ffffffffffffffffffffffffffffffffffffffff1673ffffffffffffffffffffffffffffffffffffffff1681526020019081526020016000208054806020026020016040519081016040528092919081815260200182805480156102c957602002820191906000526020600020905b8154815260200190600101908083116102b5575b505050505090506000815167ffffffffffffffff8111156102ed576102ec610e07565b5b60405190808252806020026020018201604052801561032657816020015b610313610897565b81526020019060019003908161030b5790505b50905060005b82518110156104a0576001600084838151811061034c5761034b610dd8565b5b602002602001015181526020019081526020016000206040518060a0016040529081600082015481526020016001820160009054906101000a900473ffffffffffffffffffffffffffffffffffffffff1673ffffffffffffffffffffffffffffffffffffffff1673ffffffffffffffffffffffffffffffffffffffff1681526020016002820160009054906101000a900473ffffffffffffffffffffffffffffffffffffffff1673ffffffffffffffffffffffffffffffffffffffff1673ffffffffffffffffffffffffffffffffffffffff1681526020016002820160149054906101000a900463ffffffff1663ffffffff1663ffffffff1681526020016002820160189054906101000a900463ffffffff1663ffffffff1663ffffffff168152505082828151811061048257610481610dd8565b5b6020026020010181905250808061049890610d60565b91505061032c565b508092505050919050565b6040518060a001604052808581526020018473ffffffffffffffffffffffffffffffffffffffff1681526020018373ffffffffffffffffffffffffffffffffffffffff1681526020018263ffffffff168152602001600063ffffffff1681525060016000805481526020019081526020016000206000820151816000015560208201518160010160006101000a81548173ffffffffffffffffffffffffffffffffffffffff021916908373ffffffffffffffffffffffffffffffffffffffff16021790555060408201518160020160006101000a81548173ffffffffffffffffffffffffffffffffffffffff021916908373ffffffffffffffffffffffffffffffffffffffff16021790555060608201518160020160146101000a81548163ffffffff021916908363ffffffff16021790555060808201518160020160186101000a81548163ffffffff021916908363ffffffff160217905550905050600260008373ffffffffffffffffffffffffffffffffffffffff1673ffffffffffffffffffffffffffffffffffffffff1681526020019081526020016000206000549080600181540180825580915050600190039060005260206000200160009091909190915055836000547f3d9c6d7fedf256315259fe8cb6863117af8f4a56f16c0767d72c06359e16e5338585856040516106a793929190610bde565b60405180910390a36000808154809291906106c190610d60565b919050555050505050565b60016020528060005260406000206000915090508060000154908060010160009054906101000a900473ffffffffffffffffffffffffffffffffffffffff16908060020160009054906101000a900473ffffffffffffffffffffffffffffffffffffffff16908060020160149054906101000a900463ffffffff16908060020160189054906101000a900463ffffffff16905085565b61076a610897565b600160008381526020019081526020016000206040518060a0016040529081600082015481526020016001820160009054906101000a900473ffffffffffffffffffffffffffffffffffffffff1673ffffffffffffffffffffffffffffffffffffffff1673ffffffffffffffffffffffffffffffffffffffff1681526020016002820160009054906101000a900473ffffffffffffffffffffffffffffffffffffffff1673ffffffffffffffffffffffffffffffffffffffff1673ffffffffffffffffffffffffffffffffffffffff1681526020016002820160149054906101000a900463ffffffff1663ffffffff1663ffffffff1681526020016002820160189054906101000a900463ffffffff1663ffffffff1663ffffffff16815250509050919050565b60005481565b6040518060a0016040528060008152602001600073ffffffffffffffffffffffffffffffffffffffff168152602001600073ffffffffffffffffffffffffffffffffffffffff168152602001600063ffffffff168152602001600063ffffffff1681525090565b60008135905061090d81610e3b565b92915050565b60008135905061092281610e52565b92915050565b60008135905061093781610e69565b92915050565b60006020828403121561095357610952610e36565b5b6000610961848285016108fe565b91505092915050565b6000806040838503121561098157610980610e36565b5b600061098f858286016108fe565b92505060206109a085828601610913565b9150509250929050565b6000602082840312156109c0576109bf610e36565b5b60006109ce84828501610913565b91505092915050565b600080600080608085870312156109f1576109f0610e36565b5b60006109ff87828801610913565b9450506020610a10878288016108fe565b9350506040610a21878288016108fe565b9250506060610a3287828801610928565b91505092959194509250565b6000610a4a8383610ad2565b60a08301905092915050565b610a5f81610d14565b82525050565b610a6e81610d14565b82525050565b6000610a7f82610ceb565b610a898185610d03565b9350610a9483610cdb565b8060005b83811015610ac5578151610aac8882610a3e565b9750610ab783610cf6565b925050600181019050610a98565b5085935050505092915050565b60a082016000820151610ae86000850182610ba2565b506020820151610afb6020850182610a56565b506040820151610b0e6040850182610a56565b506060820151610b216060850182610bc0565b506080820151610b346080850182610bc0565b50505050565b60a082016000820151610b506000850182610ba2565b506020820151610b636020850182610a56565b506040820151610b766040850182610a56565b506060820151610b896060850182610bc0565b506080820151610b9c6080850182610bc0565b50505050565b610bab81610d46565b82525050565b610bba81610d46565b82525050565b610bc981610d50565b82525050565b610bd881610d50565b82525050565b6000606082019050610bf36000830186610a65565b610c006020830185610a65565b610c0d6040830184610bcf565b949350505050565b60006020820190508181036000830152610c2f8184610a74565b905092915050565b600060a082019050610c4c6000830184610b3a565b92915050565b6000602082019050610c676000830184610bb1565b92915050565b600060a082019050610c826000830188610bb1565b610c8f6020830187610a65565b610c9c6040830186610a65565b610ca96060830185610bcf565b610cb66080830184610bcf565b9695505050505050565b6000602082019050610cd56000830184610bcf565b92915050565b6000819050602082019050919050565b600081519050919050565b6000602082019050919050565b600082825260208201905092915050565b6000610d1f82610d26565b9050919050565b600073ffffffffffffffffffffffffffffffffffffffff82169050919050565b6000819050919050565b600063ffffffff82169050919050565b6000610d6b82610d46565b91507fffffffffffffffffffffffffffffffffffffffffffffffffffffffffffffffff821415610d9e57610d9d610da9565b5b600182019050919050565b7f4e487b7100000000000000000000000000000000000000000000000000000000600052601160045260246000fd5b7f4e487b7100000000000000000000000000000000000000000000000000000000600052603260045260246000fd5b7f4e487b7100000000000000000000000000000000000000000000000000000000600052604160045260246000fd5b600080fd5b610e4481610d14565b8114610e4f57600080fd5b50565b610e5b81610d46565b8114610e6657600080fd5b50565b610e7281610d50565b8114610e7d57600080fd5b5056fea2646970667358221220e499ac36e21fc5a90b15a9da439df439ae22ec916ebef14a6eb20bc31d446e8264736f6c63430008070033",
					"opcodes": "PUSH1 0x80 PUSH1 0x40 MSTORE PUSH1 0x1 PUSH1 0x0 SSTORE CALLVALUE DUP1 ISZERO PUSH2 0x15 JUMPI PUSH1 0x0 DUP1 REVERT JUMPDEST POP PUSH2 0xEB6 DUP1 PUSH2 0x25 PUSH1 0x0 CODECOPY PUSH1 0x0 RETURN INVALID PUSH1 0x80 PUSH1 0x40 MSTORE CALLVALUE DUP1 ISZERO PUSH2 0x10 JUMPI PUSH1 0x0 DUP1 REVERT JUMPDEST POP PUSH1 0x4 CALLDATASIZE LT PUSH2 0x7D JUMPI PUSH1 0x0 CALLDATALOAD PUSH1 0xE0 SHR DUP1 PUSH4 0x46DADF38 GT PUSH2 0x5B JUMPI DUP1 PUSH4 0x46DADF38 EQ PUSH2 0xFE JUMPI DUP1 PUSH4 0x6E394FF5 EQ PUSH2 0x11A JUMPI DUP1 PUSH4 0xB9DB15B4 EQ PUSH2 0x14E JUMPI DUP1 PUSH4 0xE3EBA904 EQ PUSH2 0x17E JUMPI PUSH2 0x7D JUMP JUMPDEST DUP1 PUSH4 0x22BDE917 EQ PUSH2 0x82 JUMPI DUP1 PUSH4 0x29D78328 EQ PUSH2 0xB2 JUMPI DUP1 PUSH4 0x4387254D EQ PUSH2 0xCE JUMPI JUMPDEST PUSH1 0x0 DUP1 REVERT JUMPDEST PUSH2 0x9C PUSH1 0x4 DUP1 CALLDATASIZE SUB DUP2 ADD SWAP1 PUSH2 0x97 SWAP2 SWAP1 PUSH2 0x96A JUMP JUMPDEST PUSH2 0x19C JUMP JUMPDEST PUSH1 0x40 MLOAD PUSH2 0xA9 SWAP2 SWAP1 PUSH2 0xC52 JUMP JUMPDEST PUSH1 0x40 MLOAD DUP1 SWAP2 SUB SWAP1 RETURN JUMPDEST PUSH2 0xCC PUSH1 0x4 DUP1 CALLDATASIZE SUB DUP2 ADD SWAP1 PUSH2 0xC7 SWAP2 SWAP1 PUSH2 0x9AA JUMP JUMPDEST PUSH2 0x1CD JUMP JUMPDEST STOP JUMPDEST PUSH2 0xE8 PUSH1 0x4 DUP1 CALLDATASIZE SUB DUP2 ADD SWAP1 PUSH2 0xE3 SWAP2 SWAP1 PUSH2 0x93D JUMP JUMPDEST PUSH2 0x23C JUMP JUMPDEST PUSH1 0x40 MLOAD PUSH2 0xF5 SWAP2 SWAP1 PUSH2 0xC15 JUMP JUMPDEST PUSH1 0x40 MLOAD DUP1 SWAP2 SUB SWAP1 RETURN JUMPDEST PUSH2 0x118 PUSH1 0x4 DUP1 CALLDATASIZE SUB DUP2 ADD SWAP1 PUSH2 0x113 SWAP2 SWAP1 PUSH2 0x9D7 JUMP JUMPDEST PUSH2 0x4AB JUMP JUMPDEST STOP JUMPDEST PUSH2 0x134 PUSH1 0x4 DUP1 CALLDATASIZE SUB DUP2 ADD SWAP1 PUSH2 0x12F SWAP2 SWAP1 PUSH2 0x9AA JUMP JUMPDEST PUSH2 0x6CC JUMP JUMPDEST PUSH1 0x40 MLOAD PUSH2 0x145 SWAP6 SWAP5 SWAP4 SWAP3 SWAP2 SWAP1 PUSH2 0xC6D JUMP JUMPDEST PUSH1 0x40 MLOAD DUP1 SWAP2 SUB SWAP1 RETURN JUMPDEST PUSH2 0x168 PUSH1 0x4 DUP1 CALLDATASIZE SUB DUP2 ADD SWAP1 PUSH2 0x163 SWAP2 SWAP1 PUSH2 0x9AA JUMP JUMPDEST PUSH2 0x762 JUMP JUMPDEST PUSH1 0x40 MLOAD PUSH2 0x175 SWAP2 SWAP1 PUSH2 0xC37 JUMP JUMPDEST PUSH1 0x40 MLOAD DUP1 SWAP2 SUB SWAP1 RETURN JUMPDEST PUSH2 0x186 PUSH2 0x891 JUMP JUMPDEST PUSH1 0x40 MLOAD PUSH2 0x193 SWAP2 SWAP1 PUSH2 0xC52 JUMP JUMPDEST PUSH1 0x40 MLOAD DUP1 SWAP2 SUB SWAP1 RETURN JUMPDEST PUSH1 0x2 PUSH1 0x20 MSTORE DUP2 PUSH1 0x0 MSTORE PUSH1 0x40 PUSH1 0x0 KECCAK256 DUP2 DUP2 SLOAD DUP2 LT PUSH2 0x1B8 JUMPI PUSH1 0x0 DUP1 REVERT JUMPDEST SWAP1 PUSH1 0x0 MSTORE PUSH1 0x20 PUSH1 0x0 KECCAK256 ADD PUSH1 0x0 SWAP2 POP SWAP2 POP POP SLOAD DUP2 JUMP JUMPDEST TIMESTAMP PUSH1 0x1 PUSH1 0x0 DUP4 DUP2 MSTORE PUSH1 0x20 ADD SWAP1 DUP2 MSTORE PUSH1 0x20 ADD PUSH1 0x0 KECCAK256 PUSH1 0x2 ADD PUSH1 0x18 PUSH2 0x100 EXP DUP2 SLOAD DUP2 PUSH4 0xFFFFFFFF MUL NOT AND SWAP1 DUP4 PUSH4 0xFFFFFFFF AND MUL OR SWAP1 SSTORE POP PUSH32 0x64E64E323422DCFED18A892F84596CCF7CC94B1952625F3CC82E6461B529FFF1 TIMESTAMP PUSH1 0x40 MLOAD PUSH2 0x231 SWAP2 SWAP1 PUSH2 0xCC0 JUMP JUMPDEST PUSH1 0x40 MLOAD DUP1 SWAP2 SUB SWAP1 LOG1 POP JUMP JUMPDEST PUSH1 0x60 PUSH1 0x0 PUSH1 0x2 PUSH1 0x0 DUP5 PUSH20 0xFFFFFFFFFFFFFFFFFFFFFFFFFFFFFFFFFFFFFFFF AND PUSH20 0xFFFFFFFFFFFFFFFFFFFFFFFFFFFFFFFFFFFFFFFF AND DUP2 MSTORE PUSH1 0x20 ADD SWAP1 DUP2 MSTORE PUSH1 0x20 ADD PUSH1 0x0 KECCAK256 DUP1 SLOAD DUP1 PUSH1 0x20 MUL PUSH1 0x20 ADD PUSH1 0x40 MLOAD SWAP1 DUP2 ADD PUSH1 0x40 MSTORE DUP1 SWAP3 SWAP2 SWAP1 DUP2 DUP2 MSTORE PUSH1 0x20 ADD DUP3 DUP1 SLOAD DUP1 ISZERO PUSH2 0x2C9 JUMPI PUSH1 0x20 MUL DUP3 ADD SWAP2 SWAP1 PUSH1 0x0 MSTORE PUSH1 0x20 PUSH1 0x0 KECCAK256 SWAP1 JUMPDEST DUP2 SLOAD DUP2 MSTORE PUSH1 0x20 ADD SWAP1 PUSH1 0x1 ADD SWAP1 DUP1 DUP4 GT PUSH2 0x2B5 JUMPI JUMPDEST POP POP POP POP POP SWAP1 POP PUSH1 0x0 DUP2 MLOAD PUSH8 0xFFFFFFFFFFFFFFFF DUP2 GT ISZERO PUSH2 0x2ED JUMPI PUSH2 0x2EC PUSH2 0xE07 JUMP JUMPDEST JUMPDEST PUSH1 0x40 MLOAD SWAP1 DUP1 DUP3 MSTORE DUP1 PUSH1 0x20 MUL PUSH1 0x20 ADD DUP3 ADD PUSH1 0x40 MSTORE DUP1 ISZERO PUSH2 0x326 JUMPI DUP2 PUSH1 0x20 ADD JUMPDEST PUSH2 0x313 PUSH2 0x897 JUMP JUMPDEST DUP2 MSTORE PUSH1 0x20 ADD SWAP1 PUSH1 0x1 SWAP1 SUB SWAP1 DUP2 PUSH2 0x30B JUMPI SWAP1 POP JUMPDEST POP SWAP1 POP PUSH1 0x0 JUMPDEST DUP3 MLOAD DUP2 LT ISZERO PUSH2 0x4A0 JUMPI PUSH1 0x1 PUSH1 0x0 DUP5 DUP4 DUP2 MLOAD DUP2 LT PUSH2 0x34C JUMPI PUSH2 0x34B PUSH2 0xDD8 JUMP JUMPDEST JUMPDEST PUSH1 0x20 MUL PUSH1 0x20 ADD ADD MLOAD DUP2 MSTORE PUSH1 0x20 ADD SWAP1 DUP2 MSTORE PUSH1 0x20 ADD PUSH1 0x0 KECCAK256 PUSH1 0x40 MLOAD DUP1 PUSH1 0xA0 ADD PUSH1 0x40 MSTORE SWAP1 DUP2 PUSH1 0x0 DUP3 ADD SLOAD DUP2 MSTORE PUSH1 0x20 ADD PUSH1 0x1 DUP3 ADD PUSH1 0x0 SWAP1 SLOAD SWAP1 PUSH2 0x100 EXP SWAP1 DIV PUSH20 0xFFFFFFFFFFFFFFFFFFFFFFFFFFFFFFFFFFFFFFFF AND PUSH20 0xFFFFFFFFFFFFFFFFFFFFFFFFFFFFFFFFFFFFFFFF AND PUSH20 0xFFFFFFFFFFFFFFFFFFFFFFFFFFFFFFFFFFFFFFFF AND DUP2 MSTORE PUSH1 0x20 ADD PUSH1 0x2 DUP3 ADD PUSH1 0x0 SWAP1 SLOAD SWAP1 PUSH2 0x100 EXP SWAP1 DIV PUSH20 0xFFFFFFFFFFFFFFFFFFFFFFFFFFFFFFFFFFFFFFFF AND PUSH20 0xFFFFFFFFFFFFFFFFFFFFFFFFFFFFFFFFFFFFFFFF AND PUSH20 0xFFFFFFFFFFFFFFFFFFFFFFFFFFFFFFFFFFFFFFFF AND DUP2 MSTORE PUSH1 0x20 ADD PUSH1 0x2 DUP3 ADD PUSH1 0x14 SWAP1 SLOAD SWAP1 PUSH2 0x100 EXP SWAP1 DIV PUSH4 0xFFFFFFFF AND PUSH4 0xFFFFFFFF AND PUSH4 0xFFFFFFFF AND DUP2 MSTORE PUSH1 0x20 ADD PUSH1 0x2 DUP3 ADD PUSH1 0x18 SWAP1 SLOAD SWAP1 PUSH2 0x100 EXP SWAP1 DIV PUSH4 0xFFFFFFFF AND PUSH4 0xFFFFFFFF AND PUSH4 0xFFFFFFFF AND DUP2 MSTORE POP POP DUP3 DUP3 DUP2 MLOAD DUP2 LT PUSH2 0x482 JUMPI PUSH2 0x481 PUSH2 0xDD8 JUMP JUMPDEST JUMPDEST PUSH1 0x20 MUL PUSH1 0x20 ADD ADD DUP2 SWAP1 MSTORE POP DUP1 DUP1 PUSH2 0x498 SWAP1 PUSH2 0xD60 JUMP JUMPDEST SWAP2 POP POP PUSH2 0x32C JUMP JUMPDEST POP DUP1 SWAP3 POP POP POP SWAP2 SWAP1 POP JUMP JUMPDEST PUSH1 0x40 MLOAD DUP1 PUSH1 0xA0 ADD PUSH1 0x40 MSTORE DUP1 DUP6 DUP2 MSTORE PUSH1 0x20 ADD DUP5 PUSH20 0xFFFFFFFFFFFFFFFFFFFFFFFFFFFFFFFFFFFFFFFF AND DUP2 MSTORE PUSH1 0x20 ADD DUP4 PUSH20 0xFFFFFFFFFFFFFFFFFFFFFFFFFFFFFFFFFFFFFFFF AND DUP2 MSTORE PUSH1 0x20 ADD DUP3 PUSH4 0xFFFFFFFF AND DUP2 MSTORE PUSH1 0x20 ADD PUSH1 0x0 PUSH4 0xFFFFFFFF AND DUP2 MSTORE POP PUSH1 0x1 PUSH1 0x0 DUP1 SLOAD DUP2 MSTORE PUSH1 0x20 ADD SWAP1 DUP2 MSTORE PUSH1 0x20 ADD PUSH1 0x0 KECCAK256 PUSH1 0x0 DUP3 ADD MLOAD DUP2 PUSH1 0x0 ADD SSTORE PUSH1 0x20 DUP3 ADD MLOAD DUP2 PUSH1 0x1 ADD PUSH1 0x0 PUSH2 0x100 EXP DUP2 SLOAD DUP2 PUSH20 0xFFFFFFFFFFFFFFFFFFFFFFFFFFFFFFFFFFFFFFFF MUL NOT AND SWAP1 DUP4 PUSH20 0xFFFFFFFFFFFFFFFFFFFFFFFFFFFFFFFFFFFFFFFF AND MUL OR SWAP1 SSTORE POP PUSH1 0x40 DUP3 ADD MLOAD DUP2 PUSH1 0x2 ADD PUSH1 0x0 PUSH2 0x100 EXP DUP2 SLOAD DUP2 PUSH20 0xFFFFFFFFFFFFFFFFFFFFFFFFFFFFFFFFFFFFFFFF MUL NOT AND SWAP1 DUP4 PUSH20 0xFFFFFFFFFFFFFFFFFFFFFFFFFFFFFFFFFFFFFFFF AND MUL OR SWAP1 SSTORE POP PUSH1 0x60 DUP3 ADD MLOAD DUP2 PUSH1 0x2 ADD PUSH1 0x14 PUSH2 0x100 EXP DUP2 SLOAD DUP2 PUSH4 0xFFFFFFFF MUL NOT AND SWAP1 DUP4 PUSH4 0xFFFFFFFF AND MUL OR SWAP1 SSTORE POP PUSH1 0x80 DUP3 ADD MLOAD DUP2 PUSH1 0x2 ADD PUSH1 0x18 PUSH2 0x100 EXP DUP2 SLOAD DUP2 PUSH4 0xFFFFFFFF MUL NOT AND SWAP1 DUP4 PUSH4 0xFFFFFFFF AND MUL OR SWAP1 SSTORE POP SWAP1 POP POP PUSH1 0x2 PUSH1 0x0 DUP4 PUSH20 0xFFFFFFFFFFFFFFFFFFFFFFFFFFFFFFFFFFFFFFFF AND PUSH20 0xFFFFFFFFFFFFFFFFFFFFFFFFFFFFFFFFFFFFFFFF AND DUP2 MSTORE PUSH1 0x20 ADD SWAP1 DUP2 MSTORE PUSH1 0x20 ADD PUSH1 0x0 KECCAK256 PUSH1 0x0 SLOAD SWAP1 DUP1 PUSH1 0x1 DUP2 SLOAD ADD DUP1 DUP3 SSTORE DUP1 SWAP2 POP POP PUSH1 0x1 SWAP1 SUB SWAP1 PUSH1 0x0 MSTORE PUSH1 0x20 PUSH1 0x0 KECCAK256 ADD PUSH1 0x0 SWAP1 SWAP2 SWAP1 SWAP2 SWAP1 SWAP2 POP SSTORE DUP4 PUSH1 0x0 SLOAD PUSH32 0x3D9C6D7FEDF256315259FE8CB6863117AF8F4A56F16C0767D72C06359E16E533 DUP6 DUP6 DUP6 PUSH1 0x40 MLOAD PUSH2 0x6A7 SWAP4 SWAP3 SWAP2 SWAP1 PUSH2 0xBDE JUMP JUMPDEST PUSH1 0x40 MLOAD DUP1 SWAP2 SUB SWAP1 LOG3 PUSH1 0x0 DUP1 DUP2 SLOAD DUP1 SWAP3 SWAP2 SWAP1 PUSH2 0x6C1 SWAP1 PUSH2 0xD60 JUMP JUMPDEST SWAP2 SWAP1 POP SSTORE POP POP POP POP POP JUMP JUMPDEST PUSH1 0x1 PUSH1 0x20 MSTORE DUP1 PUSH1 0x0 MSTORE PUSH1 0x40 PUSH1 0x0 KECCAK256 PUSH1 0x0 SWAP2 POP SWAP1 POP DUP1 PUSH1 0x0 ADD SLOAD SWAP1 DUP1 PUSH1 0x1 ADD PUSH1 0x0 SWAP1 SLOAD SWAP1 PUSH2 0x100 EXP SWAP1 DIV PUSH20 0xFFFFFFFFFFFFFFFFFFFFFFFFFFFFFFFFFFFFFFFF AND SWAP1 DUP1 PUSH1 0x2 ADD PUSH1 0x0 SWAP1 SLOAD SWAP1 PUSH2 0x100 EXP SWAP1 DIV PUSH20 0xFFFFFFFFFFFFFFFFFFFFFFFFFFFFFFFFFFFFFFFF AND SWAP1 DUP1 PUSH1 0x2 ADD PUSH1 0x14 SWAP1 SLOAD SWAP1 PUSH2 0x100 EXP SWAP1 DIV PUSH4 0xFFFFFFFF AND SWAP1 DUP1 PUSH1 0x2 ADD PUSH1 0x18 SWAP1 SLOAD SWAP1 PUSH2 0x100 EXP SWAP1 DIV PUSH4 0xFFFFFFFF AND SWAP1 POP DUP6 JUMP JUMPDEST PUSH2 0x76A PUSH2 0x897 JUMP JUMPDEST PUSH1 0x1 PUSH1 0x0 DUP4 DUP2 MSTORE PUSH1 0x20 ADD SWAP1 DUP2 MSTORE PUSH1 0x20 ADD PUSH1 0x0 KECCAK256 PUSH1 0x40 MLOAD DUP1 PUSH1 0xA0 ADD PUSH1 0x40 MSTORE SWAP1 DUP2 PUSH1 0x0 DUP3 ADD SLOAD DUP2 MSTORE PUSH1 0x20 ADD PUSH1 0x1 DUP3 ADD PUSH1 0x0 SWAP1 SLOAD SWAP1 PUSH2 0x100 EXP SWAP1 DIV PUSH20 0xFFFFFFFFFFFFFFFFFFFFFFFFFFFFFFFFFFFFFFFF AND PUSH20 0xFFFFFFFFFFFFFFFFFFFFFFFFFFFFFFFFFFFFFFFF AND PUSH20 0xFFFFFFFFFFFFFFFFFFFFFFFFFFFFFFFFFFFFFFFF AND DUP2 MSTORE PUSH1 0x20 ADD PUSH1 0x2 DUP3 ADD PUSH1 0x0 SWAP1 SLOAD SWAP1 PUSH2 0x100 EXP SWAP1 DIV PUSH20 0xFFFFFFFFFFFFFFFFFFFFFFFFFFFFFFFFFFFFFFFF AND PUSH20 0xFFFFFFFFFFFFFFFFFFFFFFFFFFFFFFFFFFFFFFFF AND PUSH20 0xFFFFFFFFFFFFFFFFFFFFFFFFFFFFFFFFFFFFFFFF AND DUP2 MSTORE PUSH1 0x20 ADD PUSH1 0x2 DUP3 ADD PUSH1 0x14 SWAP1 SLOAD SWAP1 PUSH2 0x100 EXP SWAP1 DIV PUSH4 0xFFFFFFFF AND PUSH4 0xFFFFFFFF AND PUSH4 0xFFFFFFFF AND DUP2 MSTORE PUSH1 0x20 ADD PUSH1 0x2 DUP3 ADD PUSH1 0x18 SWAP1 SLOAD SWAP1 PUSH2 0x100 EXP SWAP1 DIV PUSH4 0xFFFFFFFF AND PUSH4 0xFFFFFFFF AND PUSH4 0xFFFFFFFF AND DUP2 MSTORE POP POP SWAP1 POP SWAP2 SWAP1 POP JUMP JUMPDEST PUSH1 0x0 SLOAD DUP2 JUMP JUMPDEST PUSH1 0x40 MLOAD DUP1 PUSH1 0xA0 ADD PUSH1 0x40 MSTORE DUP1 PUSH1 0x0 DUP2 MSTORE PUSH1 0x20 ADD PUSH1 0x0 PUSH20 0xFFFFFFFFFFFFFFFFFFFFFFFFFFFFFFFFFFFFFFFF AND DUP2 MSTORE PUSH1 0x20 ADD PUSH1 0x0 PUSH20 0xFFFFFFFFFFFFFFFFFFFFFFFFFFFFFFFFFFFFFFFF AND DUP2 MSTORE PUSH1 0x20 ADD PUSH1 0x0 PUSH4 0xFFFFFFFF AND DUP2 MSTORE PUSH1 0x20 ADD PUSH1 0x0 PUSH4 0xFFFFFFFF AND DUP2 MSTORE POP SWAP1 JUMP JUMPDEST PUSH1 0x0 DUP2 CALLDATALOAD SWAP1 POP PUSH2 0x90D DUP2 PUSH2 0xE3B JUMP JUMPDEST SWAP3 SWAP2 POP POP JUMP JUMPDEST PUSH1 0x0 DUP2 CALLDATALOAD SWAP1 POP PUSH2 0x922 DUP2 PUSH2 0xE52 JUMP JUMPDEST SWAP3 SWAP2 POP POP JUMP JUMPDEST PUSH1 0x0 DUP2 CALLDATALOAD SWAP1 POP PUSH2 0x937 DUP2 PUSH2 0xE69 JUMP JUMPDEST SWAP3 SWAP2 POP POP JUMP JUMPDEST PUSH1 0x0 PUSH1 0x20 DUP3 DUP5 SUB SLT ISZERO PUSH2 0x953 JUMPI PUSH2 0x952 PUSH2 0xE36 JUMP JUMPDEST JUMPDEST PUSH1 0x0 PUSH2 0x961 DUP5 DUP3 DUP6 ADD PUSH2 0x8FE JUMP JUMPDEST SWAP2 POP POP SWAP3 SWAP2 POP POP JUMP JUMPDEST PUSH1 0x0 DUP1 PUSH1 0x40 DUP4 DUP6 SUB SLT ISZERO PUSH2 0x981 JUMPI PUSH2 0x980 PUSH2 0xE36 JUMP JUMPDEST JUMPDEST PUSH1 0x0 PUSH2 0x98F DUP6 DUP3 DUP7 ADD PUSH2 0x8FE JUMP JUMPDEST SWAP3 POP POP PUSH1 0x20 PUSH2 0x9A0 DUP6 DUP3 DUP7 ADD PUSH2 0x913 JUMP JUMPDEST SWAP2 POP POP SWAP3 POP SWAP3 SWAP1 POP JUMP JUMPDEST PUSH1 0x0 PUSH1 0x20 DUP3 DUP5 SUB SLT ISZERO PUSH2 0x9C0 JUMPI PUSH2 0x9BF PUSH2 0xE36 JUMP JUMPDEST JUMPDEST PUSH1 0x0 PUSH2 0x9CE DUP5 DUP3 DUP6 ADD PUSH2 0x913 JUMP JUMPDEST SWAP2 POP POP SWAP3 SWAP2 POP POP JUMP JUMPDEST PUSH1 0x0 DUP1 PUSH1 0x0 DUP1 PUSH1 0x80 DUP6 DUP8 SUB SLT ISZERO PUSH2 0x9F1 JUMPI PUSH2 0x9F0 PUSH2 0xE36 JUMP JUMPDEST JUMPDEST PUSH1 0x0 PUSH2 0x9FF DUP8 DUP3 DUP9 ADD PUSH2 0x913 JUMP JUMPDEST SWAP5 POP POP PUSH1 0x20 PUSH2 0xA10 DUP8 DUP3 DUP9 ADD PUSH2 0x8FE JUMP JUMPDEST SWAP4 POP POP PUSH1 0x40 PUSH2 0xA21 DUP8 DUP3 DUP9 ADD PUSH2 0x8FE JUMP JUMPDEST SWAP3 POP POP PUSH1 0x60 PUSH2 0xA32 DUP8 DUP3 DUP9 ADD PUSH2 0x928 JUMP JUMPDEST SWAP2 POP POP SWAP3 SWAP6 SWAP2 SWAP5 POP SWAP3 POP JUMP JUMPDEST PUSH1 0x0 PUSH2 0xA4A DUP4 DUP4 PUSH2 0xAD2 JUMP JUMPDEST PUSH1 0xA0 DUP4 ADD SWAP1 POP SWAP3 SWAP2 POP POP JUMP JUMPDEST PUSH2 0xA5F DUP2 PUSH2 0xD14 JUMP JUMPDEST DUP3 MSTORE POP POP JUMP JUMPDEST PUSH2 0xA6E DUP2 PUSH2 0xD14 JUMP JUMPDEST DUP3 MSTORE POP POP JUMP JUMPDEST PUSH1 0x0 PUSH2 0xA7F DUP3 PUSH2 0xCEB JUMP JUMPDEST PUSH2 0xA89 DUP2 DUP6 PUSH2 0xD03 JUMP JUMPDEST SWAP4 POP PUSH2 0xA94 DUP4 PUSH2 0xCDB JUMP JUMPDEST DUP1 PUSH1 0x0 JUMPDEST DUP4 DUP2 LT ISZERO PUSH2 0xAC5 JUMPI DUP2 MLOAD PUSH2 0xAAC DUP9 DUP3 PUSH2 0xA3E JUMP JUMPDEST SWAP8 POP PUSH2 0xAB7 DUP4 PUSH2 0xCF6 JUMP JUMPDEST SWAP3 POP POP PUSH1 0x1 DUP2 ADD SWAP1 POP PUSH2 0xA98 JUMP JUMPDEST POP DUP6 SWAP4 POP POP POP POP SWAP3 SWAP2 POP POP JUMP JUMPDEST PUSH1 0xA0 DUP3 ADD PUSH1 0x0 DUP3 ADD MLOAD PUSH2 0xAE8 PUSH1 0x0 DUP6 ADD DUP3 PUSH2 0xBA2 JUMP JUMPDEST POP PUSH1 0x20 DUP3 ADD MLOAD PUSH2 0xAFB PUSH1 0x20 DUP6 ADD DUP3 PUSH2 0xA56 JUMP JUMPDEST POP PUSH1 0x40 DUP3 ADD MLOAD PUSH2 0xB0E PUSH1 0x40 DUP6 ADD DUP3 PUSH2 0xA56 JUMP JUMPDEST POP PUSH1 0x60 DUP3 ADD MLOAD PUSH2 0xB21 PUSH1 0x60 DUP6 ADD DUP3 PUSH2 0xBC0 JUMP JUMPDEST POP PUSH1 0x80 DUP3 ADD MLOAD PUSH2 0xB34 PUSH1 0x80 DUP6 ADD DUP3 PUSH2 0xBC0 JUMP JUMPDEST POP POP POP POP JUMP JUMPDEST PUSH1 0xA0 DUP3 ADD PUSH1 0x0 DUP3 ADD MLOAD PUSH2 0xB50 PUSH1 0x0 DUP6 ADD DUP3 PUSH2 0xBA2 JUMP JUMPDEST POP PUSH1 0x20 DUP3 ADD MLOAD PUSH2 0xB63 PUSH1 0x20 DUP6 ADD DUP3 PUSH2 0xA56 JUMP JUMPDEST POP PUSH1 0x40 DUP3 ADD MLOAD PUSH2 0xB76 PUSH1 0x40 DUP6 ADD DUP3 PUSH2 0xA56 JUMP JUMPDEST POP PUSH1 0x60 DUP3 ADD MLOAD PUSH2 0xB89 PUSH1 0x60 DUP6 ADD DUP3 PUSH2 0xBC0 JUMP JUMPDEST POP PUSH1 0x80 DUP3 ADD MLOAD PUSH2 0xB9C PUSH1 0x80 DUP6 ADD DUP3 PUSH2 0xBC0 JUMP JUMPDEST POP POP POP POP JUMP JUMPDEST PUSH2 0xBAB DUP2 PUSH2 0xD46 JUMP JUMPDEST DUP3 MSTORE POP POP JUMP JUMPDEST PUSH2 0xBBA DUP2 PUSH2 0xD46 JUMP JUMPDEST DUP3 MSTORE POP POP JUMP JUMPDEST PUSH2 0xBC9 DUP2 PUSH2 0xD50 JUMP JUMPDEST DUP3 MSTORE POP POP JUMP JUMPDEST PUSH2 0xBD8 DUP2 PUSH2 0xD50 JUMP JUMPDEST DUP3 MSTORE POP POP JUMP JUMPDEST PUSH1 0x0 PUSH1 0x60 DUP3 ADD SWAP1 POP PUSH2 0xBF3 PUSH1 0x0 DUP4 ADD DUP7 PUSH2 0xA65 JUMP JUMPDEST PUSH2 0xC00 PUSH1 0x20 DUP4 ADD DUP6 PUSH2 0xA65 JUMP JUMPDEST PUSH2 0xC0D PUSH1 0x40 DUP4 ADD DUP5 PUSH2 0xBCF JUMP JUMPDEST SWAP5 SWAP4 POP POP POP POP JUMP JUMPDEST PUSH1 0x0 PUSH1 0x20 DUP3 ADD SWAP1 POP DUP2 DUP2 SUB PUSH1 0x0 DUP4 ADD MSTORE PUSH2 0xC2F DUP2 DUP5 PUSH2 0xA74 JUMP JUMPDEST SWAP1 POP SWAP3 SWAP2 POP POP JUMP JUMPDEST PUSH1 0x0 PUSH1 0xA0 DUP3 ADD SWAP1 POP PUSH2 0xC4C PUSH1 0x0 DUP4 ADD DUP5 PUSH2 0xB3A JUMP JUMPDEST SWAP3 SWAP2 POP POP JUMP JUMPDEST PUSH1 0x0 PUSH1 0x20 DUP3 ADD SWAP1 POP PUSH2 0xC67 PUSH1 0x0 DUP4 ADD DUP5 PUSH2 0xBB1 JUMP JUMPDEST SWAP3 SWAP2 POP POP JUMP JUMPDEST PUSH1 0x0 PUSH1 0xA0 DUP3 ADD SWAP1 POP PUSH2 0xC82 PUSH1 0x0 DUP4 ADD DUP9 PUSH2 0xBB1 JUMP JUMPDEST PUSH2 0xC8F PUSH1 0x20 DUP4 ADD DUP8 PUSH2 0xA65 JUMP JUMPDEST PUSH2 0xC9C PUSH1 0x40 DUP4 ADD DUP7 PUSH2 0xA65 JUMP JUMPDEST PUSH2 0xCA9 PUSH1 0x60 DUP4 ADD DUP6 PUSH2 0xBCF JUMP JUMPDEST PUSH2 0xCB6 PUSH1 0x80 DUP4 ADD DUP5 PUSH2 0xBCF JUMP JUMPDEST SWAP7 SWAP6 POP POP POP POP POP POP JUMP JUMPDEST PUSH1 0x0 PUSH1 0x20 DUP3 ADD SWAP1 POP PUSH2 0xCD5 PUSH1 0x0 DUP4 ADD DUP5 PUSH2 0xBCF JUMP JUMPDEST SWAP3 SWAP2 POP POP JUMP JUMPDEST PUSH1 0x0 DUP2 SWAP1 POP PUSH1 0x20 DUP3 ADD SWAP1 POP SWAP2 SWAP1 POP JUMP JUMPDEST PUSH1 0x0 DUP2 MLOAD SWAP1 POP SWAP2 SWAP1 POP JUMP JUMPDEST PUSH1 0x0 PUSH1 0x20 DUP3 ADD SWAP1 POP SWAP2 SWAP1 POP JUMP JUMPDEST PUSH1 0x0 DUP3 DUP3 MSTORE PUSH1 0x20 DUP3 ADD SWAP1 POP SWAP3 SWAP2 POP POP JUMP JUMPDEST PUSH1 0x0 PUSH2 0xD1F DUP3 PUSH2 0xD26 JUMP JUMPDEST SWAP1 POP SWAP2 SWAP1 POP JUMP JUMPDEST PUSH1 0x0 PUSH20 0xFFFFFFFFFFFFFFFFFFFFFFFFFFFFFFFFFFFFFFFF DUP3 AND SWAP1 POP SWAP2 SWAP1 POP JUMP JUMPDEST PUSH1 0x0 DUP2 SWAP1 POP SWAP2 SWAP1 POP JUMP JUMPDEST PUSH1 0x0 PUSH4 0xFFFFFFFF DUP3 AND SWAP1 POP SWAP2 SWAP1 POP JUMP JUMPDEST PUSH1 0x0 PUSH2 0xD6B DUP3 PUSH2 0xD46 JUMP JUMPDEST SWAP2 POP PUSH32 0xFFFFFFFFFFFFFFFFFFFFFFFFFFFFFFFFFFFFFFFFFFFFFFFFFFFFFFFFFFFFFFFF DUP3 EQ ISZERO PUSH2 0xD9E JUMPI PUSH2 0xD9D PUSH2 0xDA9 JUMP JUMPDEST JUMPDEST PUSH1 0x1 DUP3 ADD SWAP1 POP SWAP2 SWAP1 POP JUMP JUMPDEST PUSH32 0x4E487B7100000000000000000000000000000000000000000000000000000000 PUSH1 0x0 MSTORE PUSH1 0x11 PUSH1 0x4 MSTORE PUSH1 0x24 PUSH1 0x0 REVERT JUMPDEST PUSH32 0x4E487B7100000000000000000000000000000000000000000000000000000000 PUSH1 0x0 MSTORE PUSH1 0x32 PUSH1 0x4 MSTORE PUSH1 0x24 PUSH1 0x0 REVERT JUMPDEST PUSH32 0x4E487B7100000000000000000000000000000000000000000000000000000000 PUSH1 0x0 MSTORE PUSH1 0x41 PUSH1 0x4 MSTORE PUSH1 0x24 PUSH1 0x0 REVERT JUMPDEST PUSH1 0x0 DUP1 REVERT JUMPDEST PUSH2 0xE44 DUP2 PUSH2 0xD14 JUMP JUMPDEST DUP2 EQ PUSH2 0xE4F JUMPI PUSH1 0x0 DUP1 REVERT JUMPDEST POP JUMP JUMPDEST PUSH2 0xE5B DUP2 PUSH2 0xD46 JUMP JUMPDEST DUP2 EQ PUSH2 0xE66 JUMPI PUSH1 0x0 DUP1 REVERT JUMPDEST POP JUMP JUMPDEST PUSH2 0xE72 DUP2 PUSH2 0xD50 JUMP JUMPDEST DUP2 EQ PUSH2 0xE7D JUMPI PUSH1 0x0 DUP1 REVERT JUMPDEST POP JUMP INVALID LOG2 PUSH5 0x6970667358 0x22 SLT KECCAK256 0xE4 SWAP10 0xAC CALLDATASIZE 0xE2 0x1F 0xC5 0xA9 SIGNEXTEND ISZERO 0xA9 0xDA NUMBER SWAP14 DELEGATECALL CODECOPY 0xAE 0x22 0xEC SWAP2 PUSH15 0xBEF14A6EB20BC31D446E8264736F6C PUSH4 0x43000807 STOP CALLER "
				},
				"gasEstimates": {
					"creation": {
						"codeDepositCost": "753200",
						"executionCost": "22892",
						"totalCost": "776092"
					},
					"external": {
						"distributorTosmIdMapping(address,uint256)": "infinite",
						"getAllmdIdForDistributor(address)": "infinite",
						"getProduct(uint256)": "infinite",
						"mdId()": "2495",
						"mdIdToStructMapping(uint256)": "infinite",
						"receiveProduct(uint256)": "26025",
						"transferproduct(uint256,address,address,uint32)": "infinite"
					}
				},
				"methodIdentifiers": {
					"distributorTosmIdMapping(address,uint256)": "22bde917",
					"getAllmdIdForDistributor(address)": "4387254d",
					"getProduct(uint256)": "b9db15b4",
					"mdId()": "e3eba904",
					"mdIdToStructMapping(uint256)": "6e394ff5",
					"receiveProduct(uint256)": "29d78328",
					"transferproduct(uint256,address,address,uint32)": "46dadf38"
				}
			},
			"storageLayout": {
				"storage": [
					{
						"astId": 54,
						"contract": "contracts/manufacturerDistributor.sol:manufacturerDistributor",
						"label": "mdId",
						"offset": 0,
						"slot": "0",
						"type": "t_uint256"
					},
					{
						"astId": 60,
						"contract": "contracts/manufacturerDistributor.sol:manufacturerDistributor",
						"label": "mdIdToStructMapping",
						"offset": 0,
						"slot": "1",
						"type": "t_mapping(t_uint256,t_struct(manufacturerDistributor)12_storage)"
					},
					{
						"astId": 66,
						"contract": "contracts/manufacturerDistributor.sol:manufacturerDistributor",
						"label": "distributorTosmIdMapping",
						"offset": 0,
						"slot": "2",
						"type": "t_mapping(t_address,t_array(t_uint256)dyn_storage)"
					}
				],
				"types": {
					"t_address": {
						"encoding": "inplace",
						"label": "address",
						"numberOfBytes": "20"
					},
					"t_array(t_uint256)dyn_storage": {
						"base": "t_uint256",
						"encoding": "dynamic_array",
						"label": "uint256[]",
						"numberOfBytes": "32"
					},
					"t_mapping(t_address,t_array(t_uint256)dyn_storage)": {
						"encoding": "mapping",
						"key": "t_address",
						"label": "mapping(address => uint256[])",
						"numberOfBytes": "32",
						"value": "t_array(t_uint256)dyn_storage"
					},
					"t_mapping(t_uint256,t_struct(manufacturerDistributor)12_storage)": {
						"encoding": "mapping",
						"key": "t_uint256",
						"label": "mapping(uint256 => struct IManufacturerDistributor.manufacturerDistributor)",
						"numberOfBytes": "32",
						"value": "t_struct(manufacturerDistributor)12_storage"
					},
					"t_struct(manufacturerDistributor)12_storage": {
						"encoding": "inplace",
						"label": "struct IManufacturerDistributor.manufacturerDistributor",
						"members": [
							{
								"astId": 3,
								"contract": "contracts/manufacturerDistributor.sol:manufacturerDistributor",
								"label": "mpId",
								"offset": 0,
								"slot": "0",
								"type": "t_uint256"
							},
							{
								"astId": 5,
								"contract": "contracts/manufacturerDistributor.sol:manufacturerDistributor",
								"label": "m_address",
								"offset": 0,
								"slot": "1",
								"type": "t_address"
							},
							{
								"astId": 7,
								"contract": "contracts/manufacturerDistributor.sol:manufacturerDistributor",
								"label": "d_address",
								"offset": 0,
								"slot": "2",
								"type": "t_address"
							},
							{
								"astId": 9,
								"contract": "contracts/manufacturerDistributor.sol:manufacturerDistributor",
								"label": "dispatchTime",
								"offset": 20,
								"slot": "2",
								"type": "t_uint32"
							},
							{
								"astId": 11,
								"contract": "contracts/manufacturerDistributor.sol:manufacturerDistributor",
								"label": "arrivalTime",
								"offset": 24,
								"slot": "2",
								"type": "t_uint32"
							}
						],
						"numberOfBytes": "96"
					},
					"t_uint256": {
						"encoding": "inplace",
						"label": "uint256",
						"numberOfBytes": "32"
					},
					"t_uint32": {
						"encoding": "inplace",
						"label": "uint32",
						"numberOfBytes": "4"
					}
				}
			},
			"userdoc": {
				"kind": "user",
				"methods": {
					"distributorTosmIdMapping(address,uint256)": {
						"notice": "mapping address with all the created mdIds"
					},
					"getAllmdIdForDistributor(address)": {
						"notice": "function to get all trasnfers distributor has received"
					},
					"getProduct(uint256)": {
						"notice": "function to get all transfer information"
					},
					"mdIdToStructMapping(uint256)": {
						"notice": "mapping mdId index with manufacturerDistributor"
					},
					"receiveProduct(uint256)": {
						"notice": "function to update that the product has been received"
					},
					"transferproduct(uint256,address,address,uint32)": {
						"notice": "function to transfer product from manufacturer to distributor"
					}
				},
				"notice": "Uses ISupplierManufacturer interface",
				"version": 1
			}
		}
	}
}