{
	"contracts/userDetails.sol": {
		"userDetails": {
			"abi": [
				{
					"anonymous": false,
					"inputs": [
						{
							"indexed": true,
							"internalType": "address",
							"name": "_address",
							"type": "address"
						}
					],
					"name": "eventDeleteUser",
					"type": "event"
				},
				{
					"anonymous": false,
					"inputs": [
						{
							"indexed": true,
							"internalType": "address",
							"name": "_address",
							"type": "address"
						},
						{
							"indexed": false,
							"internalType": "enum IUserDetails.userType",
							"name": "_type",
							"type": "uint8"
						},
						{
							"indexed": false,
							"internalType": "bytes",
							"name": "_name",
							"type": "bytes"
						},
						{
							"indexed": false,
							"internalType": "bytes",
							"name": "_physicalAddress",
							"type": "bytes"
						},
						{
							"indexed": false,
							"internalType": "bytes",
							"name": "_image",
							"type": "bytes"
						},
						{
							"indexed": false,
							"internalType": "uint256",
							"name": "_timeUpdated",
							"type": "uint256"
						}
					],
					"name": "eventUserData",
					"type": "event"
				},
				{
					"inputs": [
						{
							"internalType": "enum IUserDetails.userType",
							"name": "_type",
							"type": "uint8"
						},
						{
							"internalType": "bytes",
							"name": "_name",
							"type": "bytes"
						},
						{
							"internalType": "bytes",
							"name": "_physicalAddress",
							"type": "bytes"
						},
						{
							"internalType": "bytes",
							"name": "_image",
							"type": "bytes"
						}
					],
					"name": "addUser",
					"outputs": [],
					"stateMutability": "nonpayable",
					"type": "function"
				},
				{
					"inputs": [],
					"name": "deleteUser",
					"outputs": [],
					"stateMutability": "nonpayable",
					"type": "function"
				},
				{
					"inputs": [
						{
							"internalType": "uint256",
							"name": "",
							"type": "uint256"
						}
					],
					"name": "distributors",
					"outputs": [
						{
							"internalType": "address",
							"name": "",
							"type": "address"
						}
					],
					"stateMutability": "view",
					"type": "function"
				},
				{
					"inputs": [
						{
							"internalType": "bytes",
							"name": "_image",
							"type": "bytes"
						}
					],
					"name": "editImage",
					"outputs": [],
					"stateMutability": "nonpayable",
					"type": "function"
				},
				{
					"inputs": [
						{
							"internalType": "bytes",
							"name": "_name",
							"type": "bytes"
						}
					],
					"name": "editName",
					"outputs": [],
					"stateMutability": "nonpayable",
					"type": "function"
				},
				{
					"inputs": [
						{
							"internalType": "bytes",
							"name": "_physicalAddress",
							"type": "bytes"
						}
					],
					"name": "editPhysicalAddress",
					"outputs": [],
					"stateMutability": "nonpayable",
					"type": "function"
				},
				{
					"inputs": [],
					"name": "getAllDistributors",
					"outputs": [
						{
							"components": [
								{
									"internalType": "enum IUserDetails.userType",
									"name": "userType",
									"type": "uint8"
								},
								{
									"internalType": "bytes",
									"name": "userName",
									"type": "bytes"
								},
								{
									"internalType": "bytes",
									"name": "userPhysicalAddress",
									"type": "bytes"
								},
								{
									"internalType": "bytes",
									"name": "userImage",
									"type": "bytes"
								},
								{
									"internalType": "bool",
									"name": "userStatus",
									"type": "bool"
								}
							],
							"internalType": "struct IUserDetails.userDetails[]",
							"name": "",
							"type": "tuple[]"
						}
					],
					"stateMutability": "view",
					"type": "function"
				},
				{
					"inputs": [],
					"name": "getAllManufacturers",
					"outputs": [
						{
							"components": [
								{
									"internalType": "enum IUserDetails.userType",
									"name": "userType",
									"type": "uint8"
								},
								{
									"internalType": "bytes",
									"name": "userName",
									"type": "bytes"
								},
								{
									"internalType": "bytes",
									"name": "userPhysicalAddress",
									"type": "bytes"
								},
								{
									"internalType": "bytes",
									"name": "userImage",
									"type": "bytes"
								},
								{
									"internalType": "bool",
									"name": "userStatus",
									"type": "bool"
								}
							],
							"internalType": "struct IUserDetails.userDetails[]",
							"name": "",
							"type": "tuple[]"
						}
					],
					"stateMutability": "view",
					"type": "function"
				},
				{
					"inputs": [],
					"name": "getAllSupplierAddresses",
					"outputs": [
						{
							"internalType": "address[]",
							"name": "",
							"type": "address[]"
						}
					],
					"stateMutability": "view",
					"type": "function"
				},
				{
					"inputs": [],
					"name": "getAllSuppliers",
					"outputs": [
						{
							"internalType": "address[]",
							"name": "",
							"type": "address[]"
						},
						{
							"components": [
								{
									"internalType": "enum IUserDetails.userType",
									"name": "userType",
									"type": "uint8"
								},
								{
									"internalType": "bytes",
									"name": "userName",
									"type": "bytes"
								},
								{
									"internalType": "bytes",
									"name": "userPhysicalAddress",
									"type": "bytes"
								},
								{
									"internalType": "bytes",
									"name": "userImage",
									"type": "bytes"
								},
								{
									"internalType": "bool",
									"name": "userStatus",
									"type": "bool"
								}
							],
							"internalType": "struct IUserDetails.userDetails[]",
							"name": "",
							"type": "tuple[]"
						}
					],
					"stateMutability": "view",
					"type": "function"
				},
				{
					"inputs": [],
					"name": "getAllUsers",
					"outputs": [
						{
							"components": [
								{
									"internalType": "enum IUserDetails.userType",
									"name": "userType",
									"type": "uint8"
								},
								{
									"internalType": "bytes",
									"name": "userName",
									"type": "bytes"
								},
								{
									"internalType": "bytes",
									"name": "userPhysicalAddress",
									"type": "bytes"
								},
								{
									"internalType": "bytes",
									"name": "userImage",
									"type": "bytes"
								},
								{
									"internalType": "bool",
									"name": "userStatus",
									"type": "bool"
								}
							],
							"internalType": "struct IUserDetails.userDetails[]",
							"name": "",
							"type": "tuple[]"
						}
					],
					"stateMutability": "view",
					"type": "function"
				},
				{
					"inputs": [
						{
							"internalType": "address",
							"name": "_address",
							"type": "address"
						}
					],
					"name": "getSingleUser",
					"outputs": [
						{
							"components": [
								{
									"internalType": "enum IUserDetails.userType",
									"name": "userType",
									"type": "uint8"
								},
								{
									"internalType": "bytes",
									"name": "userName",
									"type": "bytes"
								},
								{
									"internalType": "bytes",
									"name": "userPhysicalAddress",
									"type": "bytes"
								},
								{
									"internalType": "bytes",
									"name": "userImage",
									"type": "bytes"
								},
								{
									"internalType": "bool",
									"name": "userStatus",
									"type": "bool"
								}
							],
							"internalType": "struct IUserDetails.userDetails",
							"name": "",
							"type": "tuple"
						}
					],
					"stateMutability": "view",
					"type": "function"
				},
				{
					"inputs": [
						{
							"internalType": "uint256",
							"name": "",
							"type": "uint256"
						}
					],
					"name": "manufacturers",
					"outputs": [
						{
							"internalType": "address",
							"name": "",
							"type": "address"
						}
					],
					"stateMutability": "view",
					"type": "function"
				},
				{
					"inputs": [
						{
							"internalType": "uint256",
							"name": "",
							"type": "uint256"
						}
					],
					"name": "suppliers",
					"outputs": [
						{
							"internalType": "address",
							"name": "",
							"type": "address"
						}
					],
					"stateMutability": "view",
					"type": "function"
				},
				{
					"inputs": [
						{
							"internalType": "address",
							"name": "",
							"type": "address"
						}
					],
					"name": "userDetailsMapping",
					"outputs": [
						{
							"internalType": "enum IUserDetails.userType",
							"name": "userType",
							"type": "uint8"
						},
						{
							"internalType": "bytes",
							"name": "userName",
							"type": "bytes"
						},
						{
							"internalType": "bytes",
							"name": "userPhysicalAddress",
							"type": "bytes"
						},
						{
							"internalType": "bytes",
							"name": "userImage",
							"type": "bytes"
						},
						{
							"internalType": "bool",
							"name": "userStatus",
							"type": "bool"
						}
					],
					"stateMutability": "view",
					"type": "function"
				},
				{
					"inputs": [
						{
							"internalType": "uint256",
							"name": "",
							"type": "uint256"
						}
					],
					"name": "users",
					"outputs": [
						{
							"internalType": "address",
							"name": "",
							"type": "address"
						}
					],
					"stateMutability": "view",
					"type": "function"
				}
			],
			"devdoc": {
				"kind": "dev",
				"methods": {},
				"version": 1
			},
			"evm": {
				"assembly": "    /* \"contracts/userDetails.sol\":236:4863  contract userDetails is IUserDetails{... */\n  mstore(0x40, 0x80)\n  callvalue\n  dup1\n  iszero\n  tag_1\n  jumpi\n  0x00\n  dup1\n  revert\ntag_1:\n  pop\n  dataSize(sub_0)\n  dup1\n  dataOffset(sub_0)\n  0x00\n  codecopy\n  0x00\n  return\nstop\n\nsub_0: assembly {\n        /* \"contracts/userDetails.sol\":236:4863  contract userDetails is IUserDetails{... */\n      mstore(0x40, 0x80)\n      callvalue\n      dup1\n      iszero\n      tag_1\n      jumpi\n      0x00\n      dup1\n      revert\n    tag_1:\n      pop\n      jumpi(tag_2, lt(calldatasize, 0x04))\n      shr(0xe0, calldataload(0x00))\n      dup1\n      0x90175af1\n      gt\n      tag_19\n      jumpi\n      dup1\n      0xcea23121\n      gt\n      tag_20\n      jumpi\n      dup1\n      0xcea23121\n      eq\n      tag_15\n      jumpi\n      dup1\n      0xd1bab143\n      eq\n      tag_16\n      jumpi\n      dup1\n      0xddba07a4\n      eq\n      tag_17\n      jumpi\n      dup1\n      0xe2842d79\n      eq\n      tag_18\n      jumpi\n      jump(tag_2)\n    tag_20:\n      dup1\n      0x90175af1\n      eq\n      tag_11\n      jumpi\n      dup1\n      0x9ae7d008\n      eq\n      tag_12\n      jumpi\n      dup1\n      0xb53305dc\n      eq\n      tag_13\n      jumpi\n      dup1\n      0xc7bbd67e\n      eq\n      tag_14\n      jumpi\n      jump(tag_2)\n    tag_19:\n      dup1\n      0x50b492ba\n      gt\n      tag_21\n      jumpi\n      dup1\n      0x50b492ba\n      eq\n      tag_7\n      jumpi\n      dup1\n      0x5166608f\n      eq\n      tag_8\n      jumpi\n      dup1\n      0x6a26d064\n      eq\n      tag_9\n      jumpi\n      dup1\n      0x8e24c34b\n      eq\n      tag_10\n      jumpi\n      jump(tag_2)\n    tag_21:\n      dup1\n      0x026ff05e\n      eq\n      tag_3\n      jumpi\n      dup1\n      0x0c6c92ba\n      eq\n      tag_4\n      jumpi\n      dup1\n      0x35852541\n      eq\n      tag_5\n      jumpi\n      dup1\n      0x365b98b2\n      eq\n      tag_6\n      jumpi\n    tag_2:\n      0x00\n      dup1\n      revert\n        /* \"contracts/userDetails.sol\":1439:1587  function deleteUser()public override {... */\n    tag_3:\n      tag_22\n      tag_23\n      jump\t// in\n    tag_22:\n      stop\n        /* \"contracts/userDetails.sol\":1650:1941  function editName(bytes memory _name)public override {... */\n    tag_4:\n      tag_24\n      0x04\n      dup1\n      calldatasize\n      sub\n      dup2\n      add\n      swap1\n      tag_25\n      swap2\n      swap1\n      tag_26\n      jump\t// in\n    tag_25:\n      tag_27\n      jump\t// in\n    tag_24:\n      stop\n        /* \"contracts/userDetails.sol\":2781:2915  function getSingleUser(address _address) public view returns(userDetails memory){... */\n    tag_5:\n      tag_28\n      0x04\n      dup1\n      calldatasize\n      sub\n      dup2\n      add\n      swap1\n      tag_29\n      swap2\n      swap1\n      tag_30\n      jump\t// in\n    tag_29:\n      tag_31\n      jump\t// in\n    tag_28:\n      mload(0x40)\n      tag_32\n      swap2\n      swap1\n      tag_33\n      jump\t// in\n    tag_32:\n      mload(0x40)\n      dup1\n      swap2\n      sub\n      swap1\n      return\n        /* \"contracts/userDetails.sol\":455:477  address[] public users */\n    tag_6:\n      tag_34\n      0x04\n      dup1\n      calldatasize\n      sub\n      dup2\n      add\n      swap1\n      tag_35\n      swap2\n      swap1\n      tag_36\n      jump\t// in\n    tag_35:\n      tag_37\n      jump\t// in\n    tag_34:\n      mload(0x40)\n      tag_38\n      swap2\n      swap1\n      tag_39\n      jump\t// in\n    tag_38:\n      mload(0x40)\n      dup1\n      swap2\n      sub\n      swap1\n      return\n        /* \"contracts/userDetails.sol\":554:583  address[] public distributors */\n    tag_7:\n      tag_40\n      0x04\n      dup1\n      calldatasize\n      sub\n      dup2\n      add\n      swap1\n      tag_41\n      swap2\n      swap1\n      tag_36\n      jump\t// in\n    tag_41:\n      tag_42\n      jump\t// in\n    tag_40:\n      mload(0x40)\n      tag_43\n      swap2\n      swap1\n      tag_39\n      jump\t// in\n    tag_43:\n      mload(0x40)\n      dup1\n      swap2\n      sub\n      swap1\n      return\n        /* \"contracts/userDetails.sol\":336:391  mapping(address=>userDetails) public userDetailsMapping */\n    tag_8:\n      tag_44\n      0x04\n      dup1\n      calldatasize\n      sub\n      dup2\n      add\n      swap1\n      tag_45\n      swap2\n      swap1\n      tag_30\n      jump\t// in\n    tag_45:\n      tag_46\n      jump\t// in\n    tag_44:\n      mload(0x40)\n      tag_47\n      swap6\n      swap5\n      swap4\n      swap3\n      swap2\n      swap1\n      tag_48\n      jump\t// in\n    tag_47:\n      mload(0x40)\n      dup1\n      swap2\n      sub\n      swap1\n      return\n        /* \"contracts/userDetails.sol\":2016:2352  function editPhysicalAddress(bytes memory _physicalAddress)public override{... */\n    tag_9:\n      tag_49\n      0x04\n      dup1\n      calldatasize\n      sub\n      dup2\n      add\n      swap1\n      tag_50\n      swap2\n      swap1\n      tag_26\n      jump\t// in\n    tag_50:\n      tag_51\n      jump\t// in\n    tag_49:\n      stop\n        /* \"contracts/userDetails.sol\":4544:4858  function getAllDistributors() public view returns(userDetails[] memory){... */\n    tag_10:\n      tag_52\n      tag_53\n      jump\t// in\n    tag_52:\n      mload(0x40)\n      tag_54\n      swap2\n      swap1\n      tag_55\n      jump\t// in\n    tag_54:\n      mload(0x40)\n      dup1\n      swap2\n      sub\n      swap1\n      return\n        /* \"contracts/userDetails.sol\":517:547  address[] public manufacturers */\n    tag_11:\n      tag_56\n      0x04\n      dup1\n      calldatasize\n      sub\n      dup2\n      add\n      swap1\n      tag_57\n      swap2\n      swap1\n      tag_36\n      jump\t// in\n    tag_57:\n      tag_58\n      jump\t// in\n    tag_56:\n      mload(0x40)\n      tag_59\n      swap2\n      swap1\n      tag_39\n      jump\t// in\n    tag_59:\n      mload(0x40)\n      dup1\n      swap2\n      sub\n      swap1\n      return\n        /* \"contracts/userDetails.sol\":713:1386  function addUser(userType _type, bytes calldata _name, bytes calldata _physicalAddress,bytes memory _image)public override {... */\n    tag_12:\n      tag_60\n      0x04\n      dup1\n      calldatasize\n      sub\n      dup2\n      add\n      swap1\n      tag_61\n      swap2\n      swap1\n      tag_62\n      jump\t// in\n    tag_61:\n      tag_63\n      jump\t// in\n    tag_60:\n      stop\n        /* \"contracts/userDetails.sol\":3363:3933  function getAllSuppliers() public view returns(address[] memory, userDetails[] memory) {... */\n    tag_13:\n      tag_64\n      tag_65\n      jump\t// in\n    tag_64:\n      mload(0x40)\n      tag_66\n      swap3\n      swap2\n      swap1\n      tag_67\n      jump\t// in\n    tag_66:\n      mload(0x40)\n      dup1\n      swap2\n      sub\n      swap1\n      return\n        /* \"contracts/userDetails.sol\":3947:4055  function getAllSupplierAddresses() public view returns(address[] memory) {... */\n    tag_14:\n      tag_68\n      tag_69\n      jump\t// in\n    tag_68:\n      mload(0x40)\n      tag_70\n      swap2\n      swap1\n      tag_71\n      jump\t// in\n    tag_70:\n      mload(0x40)\n      dup1\n      swap2\n      sub\n      swap1\n      return\n        /* \"contracts/userDetails.sol\":484:510  address[] public suppliers */\n    tag_15:\n      tag_72\n      0x04\n      dup1\n      calldatasize\n      sub\n      dup2\n      add\n      swap1\n      tag_73\n      swap2\n      swap1\n      tag_36\n      jump\t// in\n    tag_73:\n      tag_74\n      jump\t// in\n    tag_72:\n      mload(0x40)\n      tag_75\n      swap2\n      swap1\n      tag_39\n      jump\t// in\n    tag_75:\n      mload(0x40)\n      dup1\n      swap2\n      sub\n      swap1\n      return\n        /* \"contracts/userDetails.sol\":2416:2701  function editImage(bytes memory _image)public override {... */\n    tag_16:\n      tag_76\n      0x04\n      dup1\n      calldatasize\n      sub\n      dup2\n      add\n      swap1\n      tag_77\n      swap2\n      swap1\n      tag_26\n      jump\t// in\n    tag_77:\n      tag_78\n      jump\t// in\n    tag_76:\n      stop\n        /* \"contracts/userDetails.sol\":4141:4459  function getAllManufacturers() public view returns(userDetails[] memory){... */\n    tag_17:\n      tag_79\n      tag_80\n      jump\t// in\n    tag_79:\n      mload(0x40)\n      tag_81\n      swap2\n      swap1\n      tag_55\n      jump\t// in\n    tag_81:\n      mload(0x40)\n      dup1\n      swap2\n      sub\n      swap1\n      return\n        /* \"contracts/userDetails.sol\":2997:3281  function getAllUsers() public view returns(userDetails[] memory){... */\n    tag_18:\n      tag_82\n      tag_83\n      jump\t// in\n    tag_82:\n      mload(0x40)\n      tag_84\n      swap2\n      swap1\n      tag_55\n      jump\t// in\n    tag_84:\n      mload(0x40)\n      dup1\n      swap2\n      sub\n      swap1\n      return\n        /* \"contracts/userDetails.sol\":1439:1587  function deleteUser()public override {... */\n    tag_23:\n        /* \"contracts/userDetails.sol\":1531:1536  false */\n      0x00\n        /* \"contracts/userDetails.sol\":1487:1505  userDetailsMapping */\n      dup1\n        /* \"contracts/userDetails.sol\":1487:1517  userDetailsMapping[msg.sender] */\n      0x00\n        /* \"contracts/userDetails.sol\":1506:1516  msg.sender */\n      caller\n        /* \"contracts/userDetails.sol\":1487:1517  userDetailsMapping[msg.sender] */\n      0xffffffffffffffffffffffffffffffffffffffff\n      and\n      0xffffffffffffffffffffffffffffffffffffffff\n      and\n      dup2\n      mstore\n      0x20\n      add\n      swap1\n      dup2\n      mstore\n      0x20\n      add\n      0x00\n      keccak256\n        /* \"contracts/userDetails.sol\":1487:1528  userDetailsMapping[msg.sender].userStatus */\n      0x04\n      add\n      0x00\n        /* \"contracts/userDetails.sol\":1487:1536  userDetailsMapping[msg.sender].userStatus = false */\n      0x0100\n      exp\n      dup2\n      sload\n      dup2\n      0xff\n      mul\n      not\n      and\n      swap1\n      dup4\n      iszero\n      iszero\n      mul\n      or\n      swap1\n      sstore\n      pop\n        /* \"contracts/userDetails.sol\":1568:1578  msg.sender */\n      caller\n        /* \"contracts/userDetails.sol\":1552:1579  eventDeleteUser(msg.sender) */\n      0xffffffffffffffffffffffffffffffffffffffff\n      and\n      0x5db32fb34ad07587763cb39a6a4e3e11627af9bb8b3754c2734c1e7c107c0b5b\n      mload(0x40)\n      mload(0x40)\n      dup1\n      swap2\n      sub\n      swap1\n      log2\n        /* \"contracts/userDetails.sol\":1439:1587  function deleteUser()public override {... */\n      jump\t// out\n        /* \"contracts/userDetails.sol\":1650:1941  function editName(bytes memory _name)public override {... */\n    tag_27:\n        /* \"contracts/userDetails.sol\":1756:1761  _name */\n      dup1\n        /* \"contracts/userDetails.sol\":1714:1732  userDetailsMapping */\n      0x00\n        /* \"contracts/userDetails.sol\":1714:1744  userDetailsMapping[msg.sender] */\n      dup1\n        /* \"contracts/userDetails.sol\":1733:1743  msg.sender */\n      caller\n        /* \"contracts/userDetails.sol\":1714:1744  userDetailsMapping[msg.sender] */\n      0xffffffffffffffffffffffffffffffffffffffff\n      and\n      0xffffffffffffffffffffffffffffffffffffffff\n      and\n      dup2\n      mstore\n      0x20\n      add\n      swap1\n      dup2\n      mstore\n      0x20\n      add\n      0x00\n      keccak256\n        /* \"contracts/userDetails.sol\":1714:1753  userDetailsMapping[msg.sender].userName */\n      0x01\n      add\n        /* \"contracts/userDetails.sol\":1714:1761  userDetailsMapping[msg.sender].userName = _name */\n      swap1\n      dup2\n      tag_87\n      swap2\n      swap1\n      tag_88\n      jump\t// in\n    tag_87:\n      pop\n        /* \"contracts/userDetails.sol\":1772:1792  userDetails memory u */\n      0x00\n        /* \"contracts/userDetails.sol\":1795:1813  userDetailsMapping */\n      dup1\n        /* \"contracts/userDetails.sol\":1795:1825  userDetailsMapping[msg.sender] */\n      0x00\n        /* \"contracts/userDetails.sol\":1814:1824  msg.sender */\n      caller\n        /* \"contracts/userDetails.sol\":1795:1825  userDetailsMapping[msg.sender] */\n      0xffffffffffffffffffffffffffffffffffffffff\n      and\n      0xffffffffffffffffffffffffffffffffffffffff\n      and\n      dup2\n      mstore\n      0x20\n      add\n      swap1\n      dup2\n      mstore\n      0x20\n      add\n      0x00\n      keccak256\n        /* \"contracts/userDetails.sol\":1772:1825  userDetails memory u = userDetailsMapping[msg.sender] */\n      mload(0x40)\n      dup1\n      0xa0\n      add\n      0x40\n      mstore\n      swap1\n      dup2\n      0x00\n      dup3\n      add\n      0x00\n      swap1\n      sload\n      swap1\n      0x0100\n      exp\n      swap1\n      div\n      0xff\n      and\n      0x02\n      dup2\n      gt\n      iszero\n      tag_89\n      jumpi\n      tag_90\n      tag_91\n      jump\t// in\n    tag_90:\n    tag_89:\n      0x02\n      dup2\n      gt\n      iszero\n      tag_92\n      jumpi\n      tag_93\n      tag_91\n      jump\t// in\n    tag_93:\n    tag_92:\n      dup2\n      mstore\n      0x20\n      add\n      0x01\n      dup3\n      add\n      dup1\n      sload\n      tag_94\n      swap1\n      tag_95\n      jump\t// in\n    tag_94:\n      dup1\n      0x1f\n      add\n      0x20\n      dup1\n      swap2\n      div\n      mul\n      0x20\n      add\n      mload(0x40)\n      swap1\n      dup2\n      add\n      0x40\n      mstore\n      dup1\n      swap3\n      swap2\n      swap1\n      dup2\n      dup2\n      mstore\n      0x20\n      add\n      dup3\n      dup1\n      sload\n      tag_96\n      swap1\n      tag_95\n      jump\t// in\n    tag_96:\n      dup1\n      iszero\n      tag_97\n      jumpi\n      dup1\n      0x1f\n      lt\n      tag_98\n      jumpi\n      0x0100\n      dup1\n      dup4\n      sload\n      div\n      mul\n      dup4\n      mstore\n      swap2\n      0x20\n      add\n      swap2\n      jump(tag_97)\n    tag_98:\n      dup3\n      add\n      swap2\n      swap1\n      0x00\n      mstore\n      keccak256(0x00, 0x20)\n      swap1\n    tag_99:\n      dup2\n      sload\n      dup2\n      mstore\n      swap1\n      0x01\n      add\n      swap1\n      0x20\n      add\n      dup1\n      dup4\n      gt\n      tag_99\n      jumpi\n      dup3\n      swap1\n      sub\n      0x1f\n      and\n      dup3\n      add\n      swap2\n    tag_97:\n      pop\n      pop\n      pop\n      pop\n      pop\n      dup2\n      mstore\n      0x20\n      add\n      0x02\n      dup3\n      add\n      dup1\n      sload\n      tag_100\n      swap1\n      tag_95\n      jump\t// in\n    tag_100:\n      dup1\n      0x1f\n      add\n      0x20\n      dup1\n      swap2\n      div\n      mul\n      0x20\n      add\n      mload(0x40)\n      swap1\n      dup2\n      add\n      0x40\n      mstore\n      dup1\n      swap3\n      swap2\n      swap1\n      dup2\n      dup2\n      mstore\n      0x20\n      add\n      dup3\n      dup1\n      sload\n      tag_101\n      swap1\n      tag_95\n      jump\t// in\n    tag_101:\n      dup1\n      iszero\n      tag_102\n      jumpi\n      dup1\n      0x1f\n      lt\n      tag_103\n      jumpi\n      0x0100\n      dup1\n      dup4\n      sload\n      div\n      mul\n      dup4\n      mstore\n      swap2\n      0x20\n      add\n      swap2\n      jump(tag_102)\n    tag_103:\n      dup3\n      add\n      swap2\n      swap1\n      0x00\n      mstore\n      keccak256(0x00, 0x20)\n      swap1\n    tag_104:\n      dup2\n      sload\n      dup2\n      mstore\n      swap1\n      0x01\n      add\n      swap1\n      0x20\n      add\n      dup1\n      dup4\n      gt\n      tag_104\n      jumpi\n      dup3\n      swap1\n      sub\n      0x1f\n      and\n      dup3\n      add\n      swap2\n    tag_102:\n      pop\n      pop\n      pop\n      pop\n      pop\n      dup2\n      mstore\n      0x20\n      add\n      0x03\n      dup3\n      add\n      dup1\n      sload\n      tag_105\n      swap1\n      tag_95\n      jump\t// in\n    tag_105:\n      dup1\n      0x1f\n      add\n      0x20\n      dup1\n      swap2\n      div\n      mul\n      0x20\n      add\n      mload(0x40)\n      swap1\n      dup2\n      add\n      0x40\n      mstore\n      dup1\n      swap3\n      swap2\n      swap1\n      dup2\n      dup2\n      mstore\n      0x20\n      add\n      dup3\n      dup1\n      sload\n      tag_106\n      swap1\n      tag_95\n      jump\t// in\n    tag_106:\n      dup1\n      iszero\n      tag_107\n      jumpi\n      dup1\n      0x1f\n      lt\n      tag_108\n      jumpi\n      0x0100\n      dup1\n      dup4\n      sload\n      div\n      mul\n      dup4\n      mstore\n      swap2\n      0x20\n      add\n      swap2\n      jump(tag_107)\n    tag_108:\n      dup3\n      add\n      swap2\n      swap1\n      0x00\n      mstore\n      keccak256(0x00, 0x20)\n      swap1\n    tag_109:\n      dup2\n      sload\n      dup2\n      mstore\n      swap1\n      0x01\n      add\n      swap1\n      0x20\n      add\n      dup1\n      dup4\n      gt\n      tag_109\n      jumpi\n      dup3\n      swap1\n      sub\n      0x1f\n      and\n      dup3\n      add\n      swap2\n    tag_107:\n      pop\n      pop\n      pop\n      pop\n      pop\n      dup2\n      mstore\n      0x20\n      add\n      0x04\n      dup3\n      add\n      0x00\n      swap1\n      sload\n      swap1\n      0x0100\n      exp\n      swap1\n      div\n      0xff\n      and\n      iszero\n      iszero\n      iszero\n      iszero\n      dup2\n      mstore\n      pop\n      pop\n      swap1\n      pop\n        /* \"contracts/userDetails.sol\":1855:1865  msg.sender */\n      caller\n        /* \"contracts/userDetails.sol\":1841:1933  eventUserData(msg.sender,u.userType,_name,u.userPhysicalAddress,u.userImage,block.timestamp) */\n      0xffffffffffffffffffffffffffffffffffffffff\n      and\n      0xe49f40f57c43bcc0ea51de08718dcc45efb3325fb9d155e76c2a5ab33be2de16\n        /* \"contracts/userDetails.sol\":1866:1867  u */\n      dup3\n        /* \"contracts/userDetails.sol\":1866:1876  u.userType */\n      0x00\n      add\n      mload\n        /* \"contracts/userDetails.sol\":1877:1882  _name */\n      dup5\n        /* \"contracts/userDetails.sol\":1883:1884  u */\n      dup5\n        /* \"contracts/userDetails.sol\":1883:1904  u.userPhysicalAddress */\n      0x40\n      add\n      mload\n        /* \"contracts/userDetails.sol\":1905:1906  u */\n      dup6\n        /* \"contracts/userDetails.sol\":1905:1916  u.userImage */\n      0x60\n      add\n      mload\n        /* \"contracts/userDetails.sol\":1917:1932  block.timestamp */\n      timestamp\n        /* \"contracts/userDetails.sol\":1841:1933  eventUserData(msg.sender,u.userType,_name,u.userPhysicalAddress,u.userImage,block.timestamp) */\n      mload(0x40)\n      tag_110\n      swap6\n      swap5\n      swap4\n      swap3\n      swap2\n      swap1\n      tag_111\n      jump\t// in\n    tag_110:\n      mload(0x40)\n      dup1\n      swap2\n      sub\n      swap1\n      log2\n        /* \"contracts/userDetails.sol\":1703:1941  {... */\n      pop\n        /* \"contracts/userDetails.sol\":1650:1941  function editName(bytes memory _name)public override {... */\n      pop\n      jump\t// out\n        /* \"contracts/userDetails.sol\":2781:2915  function getSingleUser(address _address) public view returns(userDetails memory){... */\n    tag_31:\n        /* \"contracts/userDetails.sol\":2842:2860  userDetails memory */\n      tag_112\n      tag_113\n      jump\t// in\n    tag_112:\n        /* \"contracts/userDetails.sol\":2879:2897  userDetailsMapping */\n      0x00\n        /* \"contracts/userDetails.sol\":2879:2907  userDetailsMapping[_address] */\n      dup1\n        /* \"contracts/userDetails.sol\":2898:2906  _address */\n      dup4\n        /* \"contracts/userDetails.sol\":2879:2907  userDetailsMapping[_address] */\n      0xffffffffffffffffffffffffffffffffffffffff\n      and\n      0xffffffffffffffffffffffffffffffffffffffff\n      and\n      dup2\n      mstore\n      0x20\n      add\n      swap1\n      dup2\n      mstore\n      0x20\n      add\n      0x00\n      keccak256\n        /* \"contracts/userDetails.sol\":2872:2907  return userDetailsMapping[_address] */\n      mload(0x40)\n      dup1\n      0xa0\n      add\n      0x40\n      mstore\n      swap1\n      dup2\n      0x00\n      dup3\n      add\n      0x00\n      swap1\n      sload\n      swap1\n      0x0100\n      exp\n      swap1\n      div\n      0xff\n      and\n      0x02\n      dup2\n      gt\n      iszero\n      tag_115\n      jumpi\n      tag_116\n      tag_91\n      jump\t// in\n    tag_116:\n    tag_115:\n      0x02\n      dup2\n      gt\n      iszero\n      tag_117\n      jumpi\n      tag_118\n      tag_91\n      jump\t// in\n    tag_118:\n    tag_117:\n      dup2\n      mstore\n      0x20\n      add\n      0x01\n      dup3\n      add\n      dup1\n      sload\n      tag_119\n      swap1\n      tag_95\n      jump\t// in\n    tag_119:\n      dup1\n      0x1f\n      add\n      0x20\n      dup1\n      swap2\n      div\n      mul\n      0x20\n      add\n      mload(0x40)\n      swap1\n      dup2\n      add\n      0x40\n      mstore\n      dup1\n      swap3\n      swap2\n      swap1\n      dup2\n      dup2\n      mstore\n      0x20\n      add\n      dup3\n      dup1\n      sload\n      tag_120\n      swap1\n      tag_95\n      jump\t// in\n    tag_120:\n      dup1\n      iszero\n      tag_121\n      jumpi\n      dup1\n      0x1f\n      lt\n      tag_122\n      jumpi\n      0x0100\n      dup1\n      dup4\n      sload\n      div\n      mul\n      dup4\n      mstore\n      swap2\n      0x20\n      add\n      swap2\n      jump(tag_121)\n    tag_122:\n      dup3\n      add\n      swap2\n      swap1\n      0x00\n      mstore\n      keccak256(0x00, 0x20)\n      swap1\n    tag_123:\n      dup2\n      sload\n      dup2\n      mstore\n      swap1\n      0x01\n      add\n      swap1\n      0x20\n      add\n      dup1\n      dup4\n      gt\n      tag_123\n      jumpi\n      dup3\n      swap1\n      sub\n      0x1f\n      and\n      dup3\n      add\n      swap2\n    tag_121:\n      pop\n      pop\n      pop\n      pop\n      pop\n      dup2\n      mstore\n      0x20\n      add\n      0x02\n      dup3\n      add\n      dup1\n      sload\n      tag_124\n      swap1\n      tag_95\n      jump\t// in\n    tag_124:\n      dup1\n      0x1f\n      add\n      0x20\n      dup1\n      swap2\n      div\n      mul\n      0x20\n      add\n      mload(0x40)\n      swap1\n      dup2\n      add\n      0x40\n      mstore\n      dup1\n      swap3\n      swap2\n      swap1\n      dup2\n      dup2\n      mstore\n      0x20\n      add\n      dup3\n      dup1\n      sload\n      tag_125\n      swap1\n      tag_95\n      jump\t// in\n    tag_125:\n      dup1\n      iszero\n      tag_126\n      jumpi\n      dup1\n      0x1f\n      lt\n      tag_127\n      jumpi\n      0x0100\n      dup1\n      dup4\n      sload\n      div\n      mul\n      dup4\n      mstore\n      swap2\n      0x20\n      add\n      swap2\n      jump(tag_126)\n    tag_127:\n      dup3\n      add\n      swap2\n      swap1\n      0x00\n      mstore\n      keccak256(0x00, 0x20)\n      swap1\n    tag_128:\n      dup2\n      sload\n      dup2\n      mstore\n      swap1\n      0x01\n      add\n      swap1\n      0x20\n      add\n      dup1\n      dup4\n      gt\n      tag_128\n      jumpi\n      dup3\n      swap1\n      sub\n      0x1f\n      and\n      dup3\n      add\n      swap2\n    tag_126:\n      pop\n      pop\n      pop\n      pop\n      pop\n      dup2\n      mstore\n      0x20\n      add\n      0x03\n      dup3\n      add\n      dup1\n      sload\n      tag_129\n      swap1\n      tag_95\n      jump\t// in\n    tag_129:\n      dup1\n      0x1f\n      add\n      0x20\n      dup1\n      swap2\n      div\n      mul\n      0x20\n      add\n      mload(0x40)\n      swap1\n      dup2\n      add\n      0x40\n      mstore\n      dup1\n      swap3\n      swap2\n      swap1\n      dup2\n      dup2\n      mstore\n      0x20\n      add\n      dup3\n      dup1\n      sload\n      tag_130\n      swap1\n      tag_95\n      jump\t// in\n    tag_130:\n      dup1\n      iszero\n      tag_131\n      jumpi\n      dup1\n      0x1f\n      lt\n      tag_132\n      jumpi\n      0x0100\n      dup1\n      dup4\n      sload\n      div\n      mul\n      dup4\n      mstore\n      swap2\n      0x20\n      add\n      swap2\n      jump(tag_131)\n    tag_132:\n      dup3\n      add\n      swap2\n      swap1\n      0x00\n      mstore\n      keccak256(0x00, 0x20)\n      swap1\n    tag_133:\n      dup2\n      sload\n      dup2\n      mstore\n      swap1\n      0x01\n      add\n      swap1\n      0x20\n      add\n      dup1\n      dup4\n      gt\n      tag_133\n      jumpi\n      dup3\n      swap1\n      sub\n      0x1f\n      and\n      dup3\n      add\n      swap2\n    tag_131:\n      pop\n      pop\n      pop\n      pop\n      pop\n      dup2\n      mstore\n      0x20\n      add\n      0x04\n      dup3\n      add\n      0x00\n      swap1\n      sload\n      swap1\n      0x0100\n      exp\n      swap1\n      div\n      0xff\n      and\n      iszero\n      iszero\n      iszero\n      iszero\n      dup2\n      mstore\n      pop\n      pop\n      swap1\n      pop\n        /* \"contracts/userDetails.sol\":2781:2915  function getSingleUser(address _address) public view returns(userDetails memory){... */\n      swap2\n      swap1\n      pop\n      jump\t// out\n        /* \"contracts/userDetails.sol\":455:477  address[] public users */\n    tag_37:\n      0x01\n      dup2\n      dup2\n      sload\n      dup2\n      lt\n      tag_134\n      jumpi\n      0x00\n      dup1\n      revert\n    tag_134:\n      swap1\n      0x00\n      mstore\n      keccak256(0x00, 0x20)\n      add\n      0x00\n      swap2\n      pop\n      sload\n      swap1\n      0x0100\n      exp\n      swap1\n      div\n      0xffffffffffffffffffffffffffffffffffffffff\n      and\n      dup2\n      jump\t// out\n        /* \"contracts/userDetails.sol\":554:583  address[] public distributors */\n    tag_42:\n      0x04\n      dup2\n      dup2\n      sload\n      dup2\n      lt\n      tag_136\n      jumpi\n      0x00\n      dup1\n      revert\n    tag_136:\n      swap1\n      0x00\n      mstore\n      keccak256(0x00, 0x20)\n      add\n      0x00\n      swap2\n      pop\n      sload\n      swap1\n      0x0100\n      exp\n      swap1\n      div\n      0xffffffffffffffffffffffffffffffffffffffff\n      and\n      dup2\n      jump\t// out\n        /* \"contracts/userDetails.sol\":336:391  mapping(address=>userDetails) public userDetailsMapping */\n    tag_46:\n      mstore(0x20, 0x00)\n      dup1\n      0x00\n      mstore\n      keccak256(0x00, 0x40)\n      0x00\n      swap2\n      pop\n      swap1\n      pop\n      dup1\n      0x00\n      add\n      0x00\n      swap1\n      sload\n      swap1\n      0x0100\n      exp\n      swap1\n      div\n      0xff\n      and\n      swap1\n      dup1\n      0x01\n      add\n      dup1\n      sload\n      tag_138\n      swap1\n      tag_95\n      jump\t// in\n    tag_138:\n      dup1\n      0x1f\n      add\n      0x20\n      dup1\n      swap2\n      div\n      mul\n      0x20\n      add\n      mload(0x40)\n      swap1\n      dup2\n      add\n      0x40\n      mstore\n      dup1\n      swap3\n      swap2\n      swap1\n      dup2\n      dup2\n      mstore\n      0x20\n      add\n      dup3\n      dup1\n      sload\n      tag_139\n      swap1\n      tag_95\n      jump\t// in\n    tag_139:\n      dup1\n      iszero\n      tag_140\n      jumpi\n      dup1\n      0x1f\n      lt\n      tag_141\n      jumpi\n      0x0100\n      dup1\n      dup4\n      sload\n      div\n      mul\n      dup4\n      mstore\n      swap2\n      0x20\n      add\n      swap2\n      jump(tag_140)\n    tag_141:\n      dup3\n      add\n      swap2\n      swap1\n      0x00\n      mstore\n      keccak256(0x00, 0x20)\n      swap1\n    tag_142:\n      dup2\n      sload\n      dup2\n      mstore\n      swap1\n      0x01\n      add\n      swap1\n      0x20\n      add\n      dup1\n      dup4\n      gt\n      tag_142\n      jumpi\n      dup3\n      swap1\n      sub\n      0x1f\n      and\n      dup3\n      add\n      swap2\n    tag_140:\n      pop\n      pop\n      pop\n      pop\n      pop\n      swap1\n      dup1\n      0x02\n      add\n      dup1\n      sload\n      tag_143\n      swap1\n      tag_95\n      jump\t// in\n    tag_143:\n      dup1\n      0x1f\n      add\n      0x20\n      dup1\n      swap2\n      div\n      mul\n      0x20\n      add\n      mload(0x40)\n      swap1\n      dup2\n      add\n      0x40\n      mstore\n      dup1\n      swap3\n      swap2\n      swap1\n      dup2\n      dup2\n      mstore\n      0x20\n      add\n      dup3\n      dup1\n      sload\n      tag_144\n      swap1\n      tag_95\n      jump\t// in\n    tag_144:\n      dup1\n      iszero\n      tag_145\n      jumpi\n      dup1\n      0x1f\n      lt\n      tag_146\n      jumpi\n      0x0100\n      dup1\n      dup4\n      sload\n      div\n      mul\n      dup4\n      mstore\n      swap2\n      0x20\n      add\n      swap2\n      jump(tag_145)\n    tag_146:\n      dup3\n      add\n      swap2\n      swap1\n      0x00\n      mstore\n      keccak256(0x00, 0x20)\n      swap1\n    tag_147:\n      dup2\n      sload\n      dup2\n      mstore\n      swap1\n      0x01\n      add\n      swap1\n      0x20\n      add\n      dup1\n      dup4\n      gt\n      tag_147\n      jumpi\n      dup3\n      swap1\n      sub\n      0x1f\n      and\n      dup3\n      add\n      swap2\n    tag_145:\n      pop\n      pop\n      pop\n      pop\n      pop\n      swap1\n      dup1\n      0x03\n      add\n      dup1\n      sload\n      tag_148\n      swap1\n      tag_95\n      jump\t// in\n    tag_148:\n      dup1\n      0x1f\n      add\n      0x20\n      dup1\n      swap2\n      div\n      mul\n      0x20\n      add\n      mload(0x40)\n      swap1\n      dup2\n      add\n      0x40\n      mstore\n      dup1\n      swap3\n      swap2\n      swap1\n      dup2\n      dup2\n      mstore\n      0x20\n      add\n      dup3\n      dup1\n      sload\n      tag_149\n      swap1\n      tag_95\n      jump\t// in\n    tag_149:\n      dup1\n      iszero\n      tag_150\n      jumpi\n      dup1\n      0x1f\n      lt\n      tag_151\n      jumpi\n      0x0100\n      dup1\n      dup4\n      sload\n      div\n      mul\n      dup4\n      mstore\n      swap2\n      0x20\n      add\n      swap2\n      jump(tag_150)\n    tag_151:\n      dup3\n      add\n      swap2\n      swap1\n      0x00\n      mstore\n      keccak256(0x00, 0x20)\n      swap1\n    tag_152:\n      dup2\n      sload\n      dup2\n      mstore\n      swap1\n      0x01\n      add\n      swap1\n      0x20\n      add\n      dup1\n      dup4\n      gt\n      tag_152\n      jumpi\n      dup3\n      swap1\n      sub\n      0x1f\n      and\n      dup3\n      add\n      swap2\n    tag_150:\n      pop\n      pop\n      pop\n      pop\n      pop\n      swap1\n      dup1\n      0x04\n      add\n      0x00\n      swap1\n      sload\n      swap1\n      0x0100\n      exp\n      swap1\n      div\n      0xff\n      and\n      swap1\n      pop\n      dup6\n      jump\t// out\n        /* \"contracts/userDetails.sol\":2016:2352  function editPhysicalAddress(bytes memory _physicalAddress)public override{... */\n    tag_51:\n        /* \"contracts/userDetails.sol\":2154:2170  _physicalAddress */\n      dup1\n        /* \"contracts/userDetails.sol\":2101:2119  userDetailsMapping */\n      0x00\n        /* \"contracts/userDetails.sol\":2101:2131  userDetailsMapping[msg.sender] */\n      dup1\n        /* \"contracts/userDetails.sol\":2120:2130  msg.sender */\n      caller\n        /* \"contracts/userDetails.sol\":2101:2131  userDetailsMapping[msg.sender] */\n      0xffffffffffffffffffffffffffffffffffffffff\n      and\n      0xffffffffffffffffffffffffffffffffffffffff\n      and\n      dup2\n      mstore\n      0x20\n      add\n      swap1\n      dup2\n      mstore\n      0x20\n      add\n      0x00\n      keccak256\n        /* \"contracts/userDetails.sol\":2101:2151  userDetailsMapping[msg.sender].userPhysicalAddress */\n      0x02\n      add\n        /* \"contracts/userDetails.sol\":2101:2170  userDetailsMapping[msg.sender].userPhysicalAddress = _physicalAddress */\n      swap1\n      dup2\n      tag_154\n      swap2\n      swap1\n      tag_88\n      jump\t// in\n    tag_154:\n      pop\n        /* \"contracts/userDetails.sol\":2181:2201  userDetails memory u */\n      0x00\n        /* \"contracts/userDetails.sol\":2204:2222  userDetailsMapping */\n      dup1\n        /* \"contracts/userDetails.sol\":2204:2234  userDetailsMapping[msg.sender] */\n      0x00\n        /* \"contracts/userDetails.sol\":2223:2233  msg.sender */\n      caller\n        /* \"contracts/userDetails.sol\":2204:2234  userDetailsMapping[msg.sender] */\n      0xffffffffffffffffffffffffffffffffffffffff\n      and\n      0xffffffffffffffffffffffffffffffffffffffff\n      and\n      dup2\n      mstore\n      0x20\n      add\n      swap1\n      dup2\n      mstore\n      0x20\n      add\n      0x00\n      keccak256\n        /* \"contracts/userDetails.sol\":2181:2234  userDetails memory u = userDetailsMapping[msg.sender] */\n      mload(0x40)\n      dup1\n      0xa0\n      add\n      0x40\n      mstore\n      swap1\n      dup2\n      0x00\n      dup3\n      add\n      0x00\n      swap1\n      sload\n      swap1\n      0x0100\n      exp\n      swap1\n      div\n      0xff\n      and\n      0x02\n      dup2\n      gt\n      iszero\n      tag_155\n      jumpi\n      tag_156\n      tag_91\n      jump\t// in\n    tag_156:\n    tag_155:\n      0x02\n      dup2\n      gt\n      iszero\n      tag_157\n      jumpi\n      tag_158\n      tag_91\n      jump\t// in\n    tag_158:\n    tag_157:\n      dup2\n      mstore\n      0x20\n      add\n      0x01\n      dup3\n      add\n      dup1\n      sload\n      tag_159\n      swap1\n      tag_95\n      jump\t// in\n    tag_159:\n      dup1\n      0x1f\n      add\n      0x20\n      dup1\n      swap2\n      div\n      mul\n      0x20\n      add\n      mload(0x40)\n      swap1\n      dup2\n      add\n      0x40\n      mstore\n      dup1\n      swap3\n      swap2\n      swap1\n      dup2\n      dup2\n      mstore\n      0x20\n      add\n      dup3\n      dup1\n      sload\n      tag_160\n      swap1\n      tag_95\n      jump\t// in\n    tag_160:\n      dup1\n      iszero\n      tag_161\n      jumpi\n      dup1\n      0x1f\n      lt\n      tag_162\n      jumpi\n      0x0100\n      dup1\n      dup4\n      sload\n      div\n      mul\n      dup4\n      mstore\n      swap2\n      0x20\n      add\n      swap2\n      jump(tag_161)\n    tag_162:\n      dup3\n      add\n      swap2\n      swap1\n      0x00\n      mstore\n      keccak256(0x00, 0x20)\n      swap1\n    tag_163:\n      dup2\n      sload\n      dup2\n      mstore\n      swap1\n      0x01\n      add\n      swap1\n      0x20\n      add\n      dup1\n      dup4\n      gt\n      tag_163\n      jumpi\n      dup3\n      swap1\n      sub\n      0x1f\n      and\n      dup3\n      add\n      swap2\n    tag_161:\n      pop\n      pop\n      pop\n      pop\n      pop\n      dup2\n      mstore\n      0x20\n      add\n      0x02\n      dup3\n      add\n      dup1\n      sload\n      tag_164\n      swap1\n      tag_95\n      jump\t// in\n    tag_164:\n      dup1\n      0x1f\n      add\n      0x20\n      dup1\n      swap2\n      div\n      mul\n      0x20\n      add\n      mload(0x40)\n      swap1\n      dup2\n      add\n      0x40\n      mstore\n      dup1\n      swap3\n      swap2\n      swap1\n      dup2\n      dup2\n      mstore\n      0x20\n      add\n      dup3\n      dup1\n      sload\n      tag_165\n      swap1\n      tag_95\n      jump\t// in\n    tag_165:\n      dup1\n      iszero\n      tag_166\n      jumpi\n      dup1\n      0x1f\n      lt\n      tag_167\n      jumpi\n      0x0100\n      dup1\n      dup4\n      sload\n      div\n      mul\n      dup4\n      mstore\n      swap2\n      0x20\n      add\n      swap2\n      jump(tag_166)\n    tag_167:\n      dup3\n      add\n      swap2\n      swap1\n      0x00\n      mstore\n      keccak256(0x00, 0x20)\n      swap1\n    tag_168:\n      dup2\n      sload\n      dup2\n      mstore\n      swap1\n      0x01\n      add\n      swap1\n      0x20\n      add\n      dup1\n      dup4\n      gt\n      tag_168\n      jumpi\n      dup3\n      swap1\n      sub\n      0x1f\n      and\n      dup3\n      add\n      swap2\n    tag_166:\n      pop\n      pop\n      pop\n      pop\n      pop\n      dup2\n      mstore\n      0x20\n      add\n      0x03\n      dup3\n      add\n      dup1\n      sload\n      tag_169\n      swap1\n      tag_95\n      jump\t// in\n    tag_169:\n      dup1\n      0x1f\n      add\n      0x20\n      dup1\n      swap2\n      div\n      mul\n      0x20\n      add\n      mload(0x40)\n      swap1\n      dup2\n      add\n      0x40\n      mstore\n      dup1\n      swap3\n      swap2\n      swap1\n      dup2\n      dup2\n      mstore\n      0x20\n      add\n      dup3\n      dup1\n      sload\n      tag_170\n      swap1\n      tag_95\n      jump\t// in\n    tag_170:\n      dup1\n      iszero\n      tag_171\n      jumpi\n      dup1\n      0x1f\n      lt\n      tag_172\n      jumpi\n      0x0100\n      dup1\n      dup4\n      sload\n      div\n      mul\n      dup4\n      mstore\n      swap2\n      0x20\n      add\n      swap2\n      jump(tag_171)\n    tag_172:\n      dup3\n      add\n      swap2\n      swap1\n      0x00\n      mstore\n      keccak256(0x00, 0x20)\n      swap1\n    tag_173:\n      dup2\n      sload\n      dup2\n      mstore\n      swap1\n      0x01\n      add\n      swap1\n      0x20\n      add\n      dup1\n      dup4\n      gt\n      tag_173\n      jumpi\n      dup3\n      swap1\n      sub\n      0x1f\n      and\n      dup3\n      add\n      swap2\n    tag_171:\n      pop\n      pop\n      pop\n      pop\n      pop\n      dup2\n      mstore\n      0x20\n      add\n      0x04\n      dup3\n      add\n      0x00\n      swap1\n      sload\n      swap1\n      0x0100\n      exp\n      swap1\n      div\n      0xff\n      and\n      iszero\n      iszero\n      iszero\n      iszero\n      dup2\n      mstore\n      pop\n      pop\n      swap1\n      pop\n        /* \"contracts/userDetails.sol\":2264:2274  msg.sender */\n      caller\n        /* \"contracts/userDetails.sol\":2250:2342  eventUserData(msg.sender,u.userType,u.userName,_physicalAddress,u.userImage,block.timestamp) */\n      0xffffffffffffffffffffffffffffffffffffffff\n      and\n      0xe49f40f57c43bcc0ea51de08718dcc45efb3325fb9d155e76c2a5ab33be2de16\n        /* \"contracts/userDetails.sol\":2275:2276  u */\n      dup3\n        /* \"contracts/userDetails.sol\":2275:2285  u.userType */\n      0x00\n      add\n      mload\n        /* \"contracts/userDetails.sol\":2286:2287  u */\n      dup4\n        /* \"contracts/userDetails.sol\":2286:2296  u.userName */\n      0x20\n      add\n      mload\n        /* \"contracts/userDetails.sol\":2297:2313  _physicalAddress */\n      dup6\n        /* \"contracts/userDetails.sol\":2314:2315  u */\n      dup6\n        /* \"contracts/userDetails.sol\":2314:2325  u.userImage */\n      0x60\n      add\n      mload\n        /* \"contracts/userDetails.sol\":2326:2341  block.timestamp */\n      timestamp\n        /* \"contracts/userDetails.sol\":2250:2342  eventUserData(msg.sender,u.userType,u.userName,_physicalAddress,u.userImage,block.timestamp) */\n      mload(0x40)\n      tag_174\n      swap6\n      swap5\n      swap4\n      swap3\n      swap2\n      swap1\n      tag_111\n      jump\t// in\n    tag_174:\n      mload(0x40)\n      dup1\n      swap2\n      sub\n      swap1\n      log2\n        /* \"contracts/userDetails.sol\":2090:2352  {... */\n      pop\n        /* \"contracts/userDetails.sol\":2016:2352  function editPhysicalAddress(bytes memory _physicalAddress)public override{... */\n      pop\n      jump\t// out\n        /* \"contracts/userDetails.sol\":4544:4858  function getAllDistributors() public view returns(userDetails[] memory){... */\n    tag_53:\n        /* \"contracts/userDetails.sol\":4594:4614  userDetails[] memory */\n      0x60\n        /* \"contracts/userDetails.sol\":4626:4652  userDetails[] memory distD */\n      0x00\n        /* \"contracts/userDetails.sol\":4673:4685  distributors */\n      0x04\n        /* \"contracts/userDetails.sol\":4673:4692  distributors.length */\n      dup1\n      sload\n      swap1\n      pop\n        /* \"contracts/userDetails.sol\":4655:4693  new userDetails[](distributors.length) */\n      0xffffffffffffffff\n      dup2\n      gt\n      iszero\n      tag_176\n      jumpi\n      tag_177\n      tag_178\n      jump\t// in\n    tag_177:\n    tag_176:\n      mload(0x40)\n      swap1\n      dup1\n      dup3\n      mstore\n      dup1\n      0x20\n      mul\n      0x20\n      add\n      dup3\n      add\n      0x40\n      mstore\n      dup1\n      iszero\n      tag_179\n      jumpi\n      dup2\n      0x20\n      add\n    tag_180:\n      tag_181\n      tag_113\n      jump\t// in\n    tag_181:\n      dup2\n      mstore\n      0x20\n      add\n      swap1\n      0x01\n      swap1\n      sub\n      swap1\n      dup2\n      tag_180\n      jumpi\n      swap1\n      pop\n    tag_179:\n      pop\n        /* \"contracts/userDetails.sol\":4626:4693  userDetails[] memory distD = new userDetails[](distributors.length) */\n      swap1\n      pop\n        /* \"contracts/userDetails.sol\":4708:4714  uint i */\n      0x00\n        /* \"contracts/userDetails.sol\":4704:4826  for(uint i=0;i<distributors.length;i++)... */\n    tag_182:\n        /* \"contracts/userDetails.sol\":4719:4731  distributors */\n      0x04\n        /* \"contracts/userDetails.sol\":4719:4738  distributors.length */\n      dup1\n      sload\n      swap1\n      pop\n        /* \"contracts/userDetails.sol\":4717:4718  i */\n      dup2\n        /* \"contracts/userDetails.sol\":4717:4738  i<distributors.length */\n      lt\n        /* \"contracts/userDetails.sol\":4704:4826  for(uint i=0;i<distributors.length;i++)... */\n      iszero\n      tag_183\n      jumpi\n        /* \"contracts/userDetails.sol\":4779:4797  userDetailsMapping */\n      0x00\n        /* \"contracts/userDetails.sol\":4779:4814  userDetailsMapping[distributors[i]] */\n      dup1\n        /* \"contracts/userDetails.sol\":4798:4810  distributors */\n      0x04\n        /* \"contracts/userDetails.sol\":4811:4812  i */\n      dup4\n        /* \"contracts/userDetails.sol\":4798:4813  distributors[i] */\n      dup2\n      sload\n      dup2\n      lt\n      tag_185\n      jumpi\n      tag_186\n      tag_187\n      jump\t// in\n    tag_186:\n    tag_185:\n      swap1\n      0x00\n      mstore\n      keccak256(0x00, 0x20)\n      add\n      0x00\n      swap1\n      sload\n      swap1\n      0x0100\n      exp\n      swap1\n      div\n      0xffffffffffffffffffffffffffffffffffffffff\n      and\n        /* \"contracts/userDetails.sol\":4779:4814  userDetailsMapping[distributors[i]] */\n      0xffffffffffffffffffffffffffffffffffffffff\n      and\n      0xffffffffffffffffffffffffffffffffffffffff\n      and\n      dup2\n      mstore\n      0x20\n      add\n      swap1\n      dup2\n      mstore\n      0x20\n      add\n      0x00\n      keccak256\n        /* \"contracts/userDetails.sol\":4768:4814  distD[i] = userDetailsMapping[distributors[i]] */\n      mload(0x40)\n      dup1\n      0xa0\n      add\n      0x40\n      mstore\n      swap1\n      dup2\n      0x00\n      dup3\n      add\n      0x00\n      swap1\n      sload\n      swap1\n      0x0100\n      exp\n      swap1\n      div\n      0xff\n      and\n      0x02\n      dup2\n      gt\n      iszero\n      tag_189\n      jumpi\n      tag_190\n      tag_91\n      jump\t// in\n    tag_190:\n    tag_189:\n      0x02\n      dup2\n      gt\n      iszero\n      tag_191\n      jumpi\n      tag_192\n      tag_91\n      jump\t// in\n    tag_192:\n    tag_191:\n      dup2\n      mstore\n      0x20\n      add\n      0x01\n      dup3\n      add\n      dup1\n      sload\n      tag_193\n      swap1\n      tag_95\n      jump\t// in\n    tag_193:\n      dup1\n      0x1f\n      add\n      0x20\n      dup1\n      swap2\n      div\n      mul\n      0x20\n      add\n      mload(0x40)\n      swap1\n      dup2\n      add\n      0x40\n      mstore\n      dup1\n      swap3\n      swap2\n      swap1\n      dup2\n      dup2\n      mstore\n      0x20\n      add\n      dup3\n      dup1\n      sload\n      tag_194\n      swap1\n      tag_95\n      jump\t// in\n    tag_194:\n      dup1\n      iszero\n      tag_195\n      jumpi\n      dup1\n      0x1f\n      lt\n      tag_196\n      jumpi\n      0x0100\n      dup1\n      dup4\n      sload\n      div\n      mul\n      dup4\n      mstore\n      swap2\n      0x20\n      add\n      swap2\n      jump(tag_195)\n    tag_196:\n      dup3\n      add\n      swap2\n      swap1\n      0x00\n      mstore\n      keccak256(0x00, 0x20)\n      swap1\n    tag_197:\n      dup2\n      sload\n      dup2\n      mstore\n      swap1\n      0x01\n      add\n      swap1\n      0x20\n      add\n      dup1\n      dup4\n      gt\n      tag_197\n      jumpi\n      dup3\n      swap1\n      sub\n      0x1f\n      and\n      dup3\n      add\n      swap2\n    tag_195:\n      pop\n      pop\n      pop\n      pop\n      pop\n      dup2\n      mstore\n      0x20\n      add\n      0x02\n      dup3\n      add\n      dup1\n      sload\n      tag_198\n      swap1\n      tag_95\n      jump\t// in\n    tag_198:\n      dup1\n      0x1f\n      add\n      0x20\n      dup1\n      swap2\n      div\n      mul\n      0x20\n      add\n      mload(0x40)\n      swap1\n      dup2\n      add\n      0x40\n      mstore\n      dup1\n      swap3\n      swap2\n      swap1\n      dup2\n      dup2\n      mstore\n      0x20\n      add\n      dup3\n      dup1\n      sload\n      tag_199\n      swap1\n      tag_95\n      jump\t// in\n    tag_199:\n      dup1\n      iszero\n      tag_200\n      jumpi\n      dup1\n      0x1f\n      lt\n      tag_201\n      jumpi\n      0x0100\n      dup1\n      dup4\n      sload\n      div\n      mul\n      dup4\n      mstore\n      swap2\n      0x20\n      add\n      swap2\n      jump(tag_200)\n    tag_201:\n      dup3\n      add\n      swap2\n      swap1\n      0x00\n      mstore\n      keccak256(0x00, 0x20)\n      swap1\n    tag_202:\n      dup2\n      sload\n      dup2\n      mstore\n      swap1\n      0x01\n      add\n      swap1\n      0x20\n      add\n      dup1\n      dup4\n      gt\n      tag_202\n      jumpi\n      dup3\n      swap1\n      sub\n      0x1f\n      and\n      dup3\n      add\n      swap2\n    tag_200:\n      pop\n      pop\n      pop\n      pop\n      pop\n      dup2\n      mstore\n      0x20\n      add\n      0x03\n      dup3\n      add\n      dup1\n      sload\n      tag_203\n      swap1\n      tag_95\n      jump\t// in\n    tag_203:\n      dup1\n      0x1f\n      add\n      0x20\n      dup1\n      swap2\n      div\n      mul\n      0x20\n      add\n      mload(0x40)\n      swap1\n      dup2\n      add\n      0x40\n      mstore\n      dup1\n      swap3\n      swap2\n      swap1\n      dup2\n      dup2\n      mstore\n      0x20\n      add\n      dup3\n      dup1\n      sload\n      tag_204\n      swap1\n      tag_95\n      jump\t// in\n    tag_204:\n      dup1\n      iszero\n      tag_205\n      jumpi\n      dup1\n      0x1f\n      lt\n      tag_206\n      jumpi\n      0x0100\n      dup1\n      dup4\n      sload\n      div\n      mul\n      dup4\n      mstore\n      swap2\n      0x20\n      add\n      swap2\n      jump(tag_205)\n    tag_206:\n      dup3\n      add\n      swap2\n      swap1\n      0x00\n      mstore\n      keccak256(0x00, 0x20)\n      swap1\n    tag_207:\n      dup2\n      sload\n      dup2\n      mstore\n      swap1\n      0x01\n      add\n      swap1\n      0x20\n      add\n      dup1\n      dup4\n      gt\n      tag_207\n      jumpi\n      dup3\n      swap1\n      sub\n      0x1f\n      and\n      dup3\n      add\n      swap2\n    tag_205:\n      pop\n      pop\n      pop\n      pop\n      pop\n      dup2\n      mstore\n      0x20\n      add\n      0x04\n      dup3\n      add\n      0x00\n      swap1\n      sload\n      swap1\n      0x0100\n      exp\n      swap1\n      div\n      0xff\n      and\n      iszero\n      iszero\n      iszero\n      iszero\n      dup2\n      mstore\n      pop\n      pop\n        /* \"contracts/userDetails.sol\":4768:4773  distD */\n      dup3\n        /* \"contracts/userDetails.sol\":4774:4775  i */\n      dup3\n        /* \"contracts/userDetails.sol\":4768:4776  distD[i] */\n      dup2\n      mload\n      dup2\n      lt\n      tag_208\n      jumpi\n      tag_209\n      tag_187\n      jump\t// in\n    tag_209:\n    tag_208:\n      0x20\n      mul\n      0x20\n      add\n      add\n        /* \"contracts/userDetails.sol\":4768:4814  distD[i] = userDetailsMapping[distributors[i]] */\n      dup2\n      swap1\n      mstore\n      pop\n        /* \"contracts/userDetails.sol\":4739:4742  i++ */\n      dup1\n      dup1\n      tag_210\n      swap1\n      tag_211\n      jump\t// in\n    tag_210:\n      swap2\n      pop\n      pop\n        /* \"contracts/userDetails.sol\":4704:4826  for(uint i=0;i<distributors.length;i++)... */\n      jump(tag_182)\n    tag_183:\n      pop\n        /* \"contracts/userDetails.sol\":4843:4848  distD */\n      dup1\n        /* \"contracts/userDetails.sol\":4836:4848  return distD */\n      swap2\n      pop\n      pop\n        /* \"contracts/userDetails.sol\":4544:4858  function getAllDistributors() public view returns(userDetails[] memory){... */\n      swap1\n      jump\t// out\n        /* \"contracts/userDetails.sol\":517:547  address[] public manufacturers */\n    tag_58:\n      0x03\n      dup2\n      dup2\n      sload\n      dup2\n      lt\n      tag_212\n      jumpi\n      0x00\n      dup1\n      revert\n    tag_212:\n      swap1\n      0x00\n      mstore\n      keccak256(0x00, 0x20)\n      add\n      0x00\n      swap2\n      pop\n      sload\n      swap1\n      0x0100\n      exp\n      swap1\n      div\n      0xffffffffffffffffffffffffffffffffffffffff\n      and\n      dup2\n      jump\t// out\n        /* \"contracts/userDetails.sol\":713:1386  function addUser(userType _type, bytes calldata _name, bytes calldata _physicalAddress,bytes memory _image)public override {... */\n    tag_63:\n        /* \"contracts/userDetails.sol\":907:908  0 */\n      0x00\n        /* \"contracts/userDetails.sol\":856:874  userDetailsMapping */\n      dup1\n        /* \"contracts/userDetails.sol\":856:886  userDetailsMapping[msg.sender] */\n      0x00\n        /* \"contracts/userDetails.sol\":875:885  msg.sender */\n      caller\n        /* \"contracts/userDetails.sol\":856:886  userDetailsMapping[msg.sender] */\n      0xffffffffffffffffffffffffffffffffffffffff\n      and\n      0xffffffffffffffffffffffffffffffffffffffff\n      and\n      dup2\n      mstore\n      0x20\n      add\n      swap1\n      dup2\n      mstore\n      0x20\n      add\n      0x00\n      keccak256\n        /* \"contracts/userDetails.sol\":856:895  userDetailsMapping[msg.sender].userName */\n      0x01\n      add\n        /* \"contracts/userDetails.sol\":855:903  (userDetailsMapping[msg.sender].userName).length */\n      dup1\n      sload\n      tag_215\n      swap1\n      tag_95\n      jump\t// in\n    tag_215:\n      swap1\n      pop\n        /* \"contracts/userDetails.sol\":855:908  (userDetailsMapping[msg.sender].userName).length == 0 */\n      eq\n        /* \"contracts/userDetails.sol\":847:936  require((userDetailsMapping[msg.sender].userName).length == 0, \"User already registered\") */\n      tag_216\n      jumpi\n      mload(0x40)\n      0x08c379a000000000000000000000000000000000000000000000000000000000\n      dup2\n      mstore\n      0x04\n      add\n      tag_217\n      swap1\n      tag_218\n      jump\t// in\n    tag_217:\n      mload(0x40)\n      dup1\n      swap2\n      sub\n      swap1\n      revert\n    tag_216:\n        /* \"contracts/userDetails.sol\":980:1034  userDetails(_type,_name,_physicalAddress,_image, true) */\n      mload(0x40)\n      dup1\n      0xa0\n      add\n      0x40\n      mstore\n      dup1\n        /* \"contracts/userDetails.sol\":992:997  _type */\n      dup8\n        /* \"contracts/userDetails.sol\":980:1034  userDetails(_type,_name,_physicalAddress,_image, true) */\n      0x02\n      dup2\n      gt\n      iszero\n      tag_219\n      jumpi\n      tag_220\n      tag_91\n      jump\t// in\n    tag_220:\n    tag_219:\n      dup2\n      mstore\n      0x20\n      add\n        /* \"contracts/userDetails.sol\":998:1003  _name */\n      dup7\n      dup7\n        /* \"contracts/userDetails.sol\":980:1034  userDetails(_type,_name,_physicalAddress,_image, true) */\n      dup1\n      dup1\n      0x1f\n      add\n      0x20\n      dup1\n      swap2\n      div\n      mul\n      0x20\n      add\n      mload(0x40)\n      swap1\n      dup2\n      add\n      0x40\n      mstore\n      dup1\n      swap4\n      swap3\n      swap2\n      swap1\n      dup2\n      dup2\n      mstore\n      0x20\n      add\n      dup4\n      dup4\n      dup1\n      dup3\n      dup5\n      calldatacopy\n      0x00\n      dup2\n      dup5\n      add\n      mstore\n      not(0x1f)\n      0x1f\n      dup3\n      add\n      and\n      swap1\n      pop\n      dup1\n      dup4\n      add\n      swap3\n      pop\n      pop\n      pop\n      pop\n      pop\n      pop\n      pop\n      dup2\n      mstore\n      0x20\n      add\n        /* \"contracts/userDetails.sol\":1004:1020  _physicalAddress */\n      dup5\n      dup5\n        /* \"contracts/userDetails.sol\":980:1034  userDetails(_type,_name,_physicalAddress,_image, true) */\n      dup1\n      dup1\n      0x1f\n      add\n      0x20\n      dup1\n      swap2\n      div\n      mul\n      0x20\n      add\n      mload(0x40)\n      swap1\n      dup2\n      add\n      0x40\n      mstore\n      dup1\n      swap4\n      swap3\n      swap2\n      swap1\n      dup2\n      dup2\n      mstore\n      0x20\n      add\n      dup4\n      dup4\n      dup1\n      dup3\n      dup5\n      calldatacopy\n      0x00\n      dup2\n      dup5\n      add\n      mstore\n      not(0x1f)\n      0x1f\n      dup3\n      add\n      and\n      swap1\n      pop\n      dup1\n      dup4\n      add\n      swap3\n      pop\n      pop\n      pop\n      pop\n      pop\n      pop\n      pop\n      dup2\n      mstore\n      0x20\n      add\n        /* \"contracts/userDetails.sol\":1021:1027  _image */\n      dup3\n        /* \"contracts/userDetails.sol\":980:1034  userDetails(_type,_name,_physicalAddress,_image, true) */\n      dup2\n      mstore\n      0x20\n      add\n        /* \"contracts/userDetails.sol\":1029:1033  true */\n      0x01\n        /* \"contracts/userDetails.sol\":980:1034  userDetails(_type,_name,_physicalAddress,_image, true) */\n      iszero\n      iszero\n      dup2\n      mstore\n      pop\n        /* \"contracts/userDetails.sol\":947:965  userDetailsMapping */\n      0x00\n        /* \"contracts/userDetails.sol\":947:977  userDetailsMapping[msg.sender] */\n      dup1\n        /* \"contracts/userDetails.sol\":966:976  msg.sender */\n      caller\n        /* \"contracts/userDetails.sol\":947:977  userDetailsMapping[msg.sender] */\n      0xffffffffffffffffffffffffffffffffffffffff\n      and\n      0xffffffffffffffffffffffffffffffffffffffff\n      and\n      dup2\n      mstore\n      0x20\n      add\n      swap1\n      dup2\n      mstore\n      0x20\n      add\n      0x00\n      keccak256\n        /* \"contracts/userDetails.sol\":947:1034  userDetailsMapping[msg.sender] = userDetails(_type,_name,_physicalAddress,_image, true) */\n      0x00\n      dup3\n      add\n      mload\n      dup2\n      0x00\n      add\n      exp(0x0100, 0x00)\n      dup2\n      sload\n      dup2\n      0xff\n      mul\n      not\n      and\n      swap1\n      dup4\n      0x02\n      dup2\n      gt\n      iszero\n      tag_221\n      jumpi\n      tag_222\n      tag_91\n      jump\t// in\n    tag_222:\n    tag_221:\n      mul\n      or\n      swap1\n      sstore\n      pop\n      0x20\n      dup3\n      add\n      mload\n      dup2\n      0x01\n      add\n      swap1\n      dup2\n      tag_223\n      swap2\n      swap1\n      tag_88\n      jump\t// in\n    tag_223:\n      pop\n      0x40\n      dup3\n      add\n      mload\n      dup2\n      0x02\n      add\n      swap1\n      dup2\n      tag_224\n      swap2\n      swap1\n      tag_88\n      jump\t// in\n    tag_224:\n      pop\n      0x60\n      dup3\n      add\n      mload\n      dup2\n      0x03\n      add\n      swap1\n      dup2\n      tag_225\n      swap2\n      swap1\n      tag_88\n      jump\t// in\n    tag_225:\n      pop\n      0x80\n      dup3\n      add\n      mload\n      dup2\n      0x04\n      add\n      exp(0x0100, 0x00)\n      dup2\n      sload\n      dup2\n      0xff\n      mul\n      not\n      and\n      swap1\n      dup4\n      iszero\n      iszero\n      mul\n      or\n      swap1\n      sstore\n      pop\n      swap1\n      pop\n      pop\n        /* \"contracts/userDetails.sol\":1045:1050  users */\n      0x01\n        /* \"contracts/userDetails.sol\":1056:1066  msg.sender */\n      caller\n        /* \"contracts/userDetails.sol\":1045:1067  users.push(msg.sender) */\n      swap1\n      dup1\n      0x01\n      dup2\n      sload\n      add\n      dup1\n      dup3\n      sstore\n      dup1\n      swap2\n      pop\n      pop\n      0x01\n      swap1\n      sub\n      swap1\n      0x00\n      mstore\n      keccak256(0x00, 0x20)\n      add\n      0x00\n      swap1\n      swap2\n      swap1\n      swap2\n      swap1\n      swap2\n      0x0100\n      exp\n      dup2\n      sload\n      dup2\n      0xffffffffffffffffffffffffffffffffffffffff\n      mul\n      not\n      and\n      swap1\n      dup4\n      0xffffffffffffffffffffffffffffffffffffffff\n      and\n      mul\n      or\n      swap1\n      sstore\n      pop\n        /* \"contracts/userDetails.sol\":1090:1107  userType.Supplier */\n      0x00\n        /* \"contracts/userDetails.sol\":1081:1107  _type == userType.Supplier */\n      0x02\n      dup2\n      gt\n      iszero\n      tag_227\n      jumpi\n      tag_228\n      tag_91\n      jump\t// in\n    tag_228:\n    tag_227:\n        /* \"contracts/userDetails.sol\":1081:1086  _type */\n      dup7\n        /* \"contracts/userDetails.sol\":1081:1107  _type == userType.Supplier */\n      0x02\n      dup2\n      gt\n      iszero\n      tag_229\n      jumpi\n      tag_230\n      tag_91\n      jump\t// in\n    tag_230:\n    tag_229:\n      sub\n        /* \"contracts/userDetails.sol\":1078:1135  if(_type == userType.Supplier) suppliers.push(msg.sender) */\n      tag_231\n      jumpi\n        /* \"contracts/userDetails.sol\":1109:1118  suppliers */\n      0x02\n        /* \"contracts/userDetails.sol\":1124:1134  msg.sender */\n      caller\n        /* \"contracts/userDetails.sol\":1109:1135  suppliers.push(msg.sender) */\n      swap1\n      dup1\n      0x01\n      dup2\n      sload\n      add\n      dup1\n      dup3\n      sstore\n      dup1\n      swap2\n      pop\n      pop\n      0x01\n      swap1\n      sub\n      swap1\n      0x00\n      mstore\n      keccak256(0x00, 0x20)\n      add\n      0x00\n      swap1\n      swap2\n      swap1\n      swap2\n      swap1\n      swap2\n      0x0100\n      exp\n      dup2\n      sload\n      dup2\n      0xffffffffffffffffffffffffffffffffffffffff\n      mul\n      not\n      and\n      swap1\n      dup4\n      0xffffffffffffffffffffffffffffffffffffffff\n      and\n      mul\n      or\n      swap1\n      sstore\n      pop\n        /* \"contracts/userDetails.sol\":1078:1135  if(_type == userType.Supplier) suppliers.push(msg.sender) */\n    tag_231:\n        /* \"contracts/userDetails.sol\":1158:1179  userType.Manufacturer */\n      0x01\n        /* \"contracts/userDetails.sol\":1149:1179  _type == userType.Manufacturer */\n      0x02\n      dup2\n      gt\n      iszero\n      tag_233\n      jumpi\n      tag_234\n      tag_91\n      jump\t// in\n    tag_234:\n    tag_233:\n        /* \"contracts/userDetails.sol\":1149:1154  _type */\n      dup7\n        /* \"contracts/userDetails.sol\":1149:1179  _type == userType.Manufacturer */\n      0x02\n      dup2\n      gt\n      iszero\n      tag_235\n      jumpi\n      tag_236\n      tag_91\n      jump\t// in\n    tag_236:\n    tag_235:\n      sub\n        /* \"contracts/userDetails.sol\":1146:1211  if(_type == userType.Manufacturer) manufacturers.push(msg.sender) */\n      tag_237\n      jumpi\n        /* \"contracts/userDetails.sol\":1181:1194  manufacturers */\n      0x03\n        /* \"contracts/userDetails.sol\":1200:1210  msg.sender */\n      caller\n        /* \"contracts/userDetails.sol\":1181:1211  manufacturers.push(msg.sender) */\n      swap1\n      dup1\n      0x01\n      dup2\n      sload\n      add\n      dup1\n      dup3\n      sstore\n      dup1\n      swap2\n      pop\n      pop\n      0x01\n      swap1\n      sub\n      swap1\n      0x00\n      mstore\n      keccak256(0x00, 0x20)\n      add\n      0x00\n      swap1\n      swap2\n      swap1\n      swap2\n      swap1\n      swap2\n      0x0100\n      exp\n      dup2\n      sload\n      dup2\n      0xffffffffffffffffffffffffffffffffffffffff\n      mul\n      not\n      and\n      swap1\n      dup4\n      0xffffffffffffffffffffffffffffffffffffffff\n      and\n      mul\n      or\n      swap1\n      sstore\n      pop\n        /* \"contracts/userDetails.sol\":1146:1211  if(_type == userType.Manufacturer) manufacturers.push(msg.sender) */\n    tag_237:\n        /* \"contracts/userDetails.sol\":1234:1254  userType.Distributor */\n      0x02\n        /* \"contracts/userDetails.sol\":1225:1254  _type == userType.Distributor */\n      dup1\n      dup2\n      gt\n      iszero\n      tag_239\n      jumpi\n      tag_240\n      tag_91\n      jump\t// in\n    tag_240:\n    tag_239:\n        /* \"contracts/userDetails.sol\":1225:1230  _type */\n      dup7\n        /* \"contracts/userDetails.sol\":1225:1254  _type == userType.Distributor */\n      0x02\n      dup2\n      gt\n      iszero\n      tag_241\n      jumpi\n      tag_242\n      tag_91\n      jump\t// in\n    tag_242:\n    tag_241:\n      sub\n        /* \"contracts/userDetails.sol\":1222:1285  if(_type == userType.Distributor) distributors.push(msg.sender) */\n      tag_243\n      jumpi\n        /* \"contracts/userDetails.sol\":1256:1268  distributors */\n      0x04\n        /* \"contracts/userDetails.sol\":1274:1284  msg.sender */\n      caller\n        /* \"contracts/userDetails.sol\":1256:1285  distributors.push(msg.sender) */\n      swap1\n      dup1\n      0x01\n      dup2\n      sload\n      add\n      dup1\n      dup3\n      sstore\n      dup1\n      swap2\n      pop\n      pop\n      0x01\n      swap1\n      sub\n      swap1\n      0x00\n      mstore\n      keccak256(0x00, 0x20)\n      add\n      0x00\n      swap1\n      swap2\n      swap1\n      swap2\n      swap1\n      swap2\n      0x0100\n      exp\n      dup2\n      sload\n      dup2\n      0xffffffffffffffffffffffffffffffffffffffff\n      mul\n      not\n      and\n      swap1\n      dup4\n      0xffffffffffffffffffffffffffffffffffffffff\n      and\n      mul\n      or\n      swap1\n      sstore\n      pop\n        /* \"contracts/userDetails.sol\":1222:1285  if(_type == userType.Distributor) distributors.push(msg.sender) */\n    tag_243:\n        /* \"contracts/userDetails.sol\":1315:1325  msg.sender */\n      caller\n        /* \"contracts/userDetails.sol\":1301:1378  eventUserData(msg.sender,_type,_name,_physicalAddress,_image,block.timestamp) */\n      0xffffffffffffffffffffffffffffffffffffffff\n      and\n      0xe49f40f57c43bcc0ea51de08718dcc45efb3325fb9d155e76c2a5ab33be2de16\n        /* \"contracts/userDetails.sol\":1326:1331  _type */\n      dup8\n        /* \"contracts/userDetails.sol\":1332:1337  _name */\n      dup8\n      dup8\n        /* \"contracts/userDetails.sol\":1338:1354  _physicalAddress */\n      dup8\n      dup8\n        /* \"contracts/userDetails.sol\":1355:1361  _image */\n      dup8\n        /* \"contracts/userDetails.sol\":1362:1377  block.timestamp */\n      timestamp\n        /* \"contracts/userDetails.sol\":1301:1378  eventUserData(msg.sender,_type,_name,_physicalAddress,_image,block.timestamp) */\n      mload(0x40)\n      tag_245\n      swap8\n      swap7\n      swap6\n      swap5\n      swap4\n      swap3\n      swap2\n      swap1\n      tag_246\n      jump\t// in\n    tag_245:\n      mload(0x40)\n      dup1\n      swap2\n      sub\n      swap1\n      log2\n        /* \"contracts/userDetails.sol\":713:1386  function addUser(userType _type, bytes calldata _name, bytes calldata _physicalAddress,bytes memory _image)public override {... */\n      pop\n      pop\n      pop\n      pop\n      pop\n      pop\n      jump\t// out\n        /* \"contracts/userDetails.sol\":3363:3933  function getAllSuppliers() public view returns(address[] memory, userDetails[] memory) {... */\n    tag_65:\n        /* \"contracts/userDetails.sol\":3410:3426  address[] memory */\n      0x60\n        /* \"contracts/userDetails.sol\":3428:3448  userDetails[] memory */\n      dup1\n        /* \"contracts/userDetails.sol\":3461:3491  address[] memory suppAddresses */\n      0x00\n        /* \"contracts/userDetails.sol\":3508:3517  suppliers */\n      0x02\n        /* \"contracts/userDetails.sol\":3508:3524  suppliers.length */\n      dup1\n      sload\n      swap1\n      pop\n        /* \"contracts/userDetails.sol\":3494:3525  new address[](suppliers.length) */\n      0xffffffffffffffff\n      dup2\n      gt\n      iszero\n      tag_248\n      jumpi\n      tag_249\n      tag_178\n      jump\t// in\n    tag_249:\n    tag_248:\n      mload(0x40)\n      swap1\n      dup1\n      dup3\n      mstore\n      dup1\n      0x20\n      mul\n      0x20\n      add\n      dup3\n      add\n      0x40\n      mstore\n      dup1\n      iszero\n      tag_250\n      jumpi\n      dup2\n      0x20\n      add\n      0x20\n      dup3\n      mul\n      dup1\n      calldatasize\n      dup4\n      calldatacopy\n      dup1\n      dup3\n      add\n      swap2\n      pop\n      pop\n      swap1\n      pop\n    tag_250:\n      pop\n        /* \"contracts/userDetails.sol\":3461:3525  address[] memory suppAddresses = new address[](suppliers.length) */\n      swap1\n      pop\n        /* \"contracts/userDetails.sol\":3536:3568  userDetails[] memory suppDetails */\n      0x00\n        /* \"contracts/userDetails.sol\":3589:3598  suppliers */\n      0x02\n        /* \"contracts/userDetails.sol\":3589:3605  suppliers.length */\n      dup1\n      sload\n      swap1\n      pop\n        /* \"contracts/userDetails.sol\":3571:3606  new userDetails[](suppliers.length) */\n      0xffffffffffffffff\n      dup2\n      gt\n      iszero\n      tag_251\n      jumpi\n      tag_252\n      tag_178\n      jump\t// in\n    tag_252:\n    tag_251:\n      mload(0x40)\n      swap1\n      dup1\n      dup3\n      mstore\n      dup1\n      0x20\n      mul\n      0x20\n      add\n      dup3\n      add\n      0x40\n      mstore\n      dup1\n      iszero\n      tag_253\n      jumpi\n      dup2\n      0x20\n      add\n    tag_254:\n      tag_255\n      tag_113\n      jump\t// in\n    tag_255:\n      dup2\n      mstore\n      0x20\n      add\n      swap1\n      0x01\n      swap1\n      sub\n      swap1\n      dup2\n      tag_254\n      jumpi\n      swap1\n      pop\n    tag_253:\n      pop\n        /* \"contracts/userDetails.sol\":3536:3606  userDetails[] memory suppDetails = new userDetails[](suppliers.length) */\n      swap1\n      pop\n        /* \"contracts/userDetails.sol\":3623:3629  uint i */\n      0x00\n        /* \"contracts/userDetails.sol\":3619:3878  for(uint i=0; i<suppliers.length; i++) {... */\n    tag_256:\n        /* \"contracts/userDetails.sol\":3635:3644  suppliers */\n      0x02\n        /* \"contracts/userDetails.sol\":3635:3651  suppliers.length */\n      dup1\n      sload\n      swap1\n      pop\n        /* \"contracts/userDetails.sol\":3633:3634  i */\n      dup2\n        /* \"contracts/userDetails.sol\":3633:3651  i<suppliers.length */\n      lt\n        /* \"contracts/userDetails.sol\":3619:3878  for(uint i=0; i<suppliers.length; i++) {... */\n      iszero\n      tag_257\n      jumpi\n        /* \"contracts/userDetails.sol\":3673:3692  address suppAddress */\n      0x00\n        /* \"contracts/userDetails.sol\":3695:3704  suppliers */\n      0x02\n        /* \"contracts/userDetails.sol\":3705:3706  i */\n      dup3\n        /* \"contracts/userDetails.sol\":3695:3707  suppliers[i] */\n      dup2\n      sload\n      dup2\n      lt\n      tag_259\n      jumpi\n      tag_260\n      tag_187\n      jump\t// in\n    tag_260:\n    tag_259:\n      swap1\n      0x00\n      mstore\n      keccak256(0x00, 0x20)\n      add\n      0x00\n      swap1\n      sload\n      swap1\n      0x0100\n      exp\n      swap1\n      div\n      0xffffffffffffffffffffffffffffffffffffffff\n      and\n        /* \"contracts/userDetails.sol\":3673:3707  address suppAddress = suppliers[i] */\n      swap1\n      pop\n        /* \"contracts/userDetails.sol\":3722:3748  userDetails memory details */\n      0x00\n        /* \"contracts/userDetails.sol\":3751:3769  userDetailsMapping */\n      dup1\n        /* \"contracts/userDetails.sol\":3751:3782  userDetailsMapping[suppAddress] */\n      0x00\n        /* \"contracts/userDetails.sol\":3770:3781  suppAddress */\n      dup4\n        /* \"contracts/userDetails.sol\":3751:3782  userDetailsMapping[suppAddress] */\n      0xffffffffffffffffffffffffffffffffffffffff\n      and\n      0xffffffffffffffffffffffffffffffffffffffff\n      and\n      dup2\n      mstore\n      0x20\n      add\n      swap1\n      dup2\n      mstore\n      0x20\n      add\n      0x00\n      keccak256\n        /* \"contracts/userDetails.sol\":3722:3782  userDetails memory details = userDetailsMapping[suppAddress] */\n      mload(0x40)\n      dup1\n      0xa0\n      add\n      0x40\n      mstore\n      swap1\n      dup2\n      0x00\n      dup3\n      add\n      0x00\n      swap1\n      sload\n      swap1\n      0x0100\n      exp\n      swap1\n      div\n      0xff\n      and\n      0x02\n      dup2\n      gt\n      iszero\n      tag_262\n      jumpi\n      tag_263\n      tag_91\n      jump\t// in\n    tag_263:\n    tag_262:\n      0x02\n      dup2\n      gt\n      iszero\n      tag_264\n      jumpi\n      tag_265\n      tag_91\n      jump\t// in\n    tag_265:\n    tag_264:\n      dup2\n      mstore\n      0x20\n      add\n      0x01\n      dup3\n      add\n      dup1\n      sload\n      tag_266\n      swap1\n      tag_95\n      jump\t// in\n    tag_266:\n      dup1\n      0x1f\n      add\n      0x20\n      dup1\n      swap2\n      div\n      mul\n      0x20\n      add\n      mload(0x40)\n      swap1\n      dup2\n      add\n      0x40\n      mstore\n      dup1\n      swap3\n      swap2\n      swap1\n      dup2\n      dup2\n      mstore\n      0x20\n      add\n      dup3\n      dup1\n      sload\n      tag_267\n      swap1\n      tag_95\n      jump\t// in\n    tag_267:\n      dup1\n      iszero\n      tag_268\n      jumpi\n      dup1\n      0x1f\n      lt\n      tag_269\n      jumpi\n      0x0100\n      dup1\n      dup4\n      sload\n      div\n      mul\n      dup4\n      mstore\n      swap2\n      0x20\n      add\n      swap2\n      jump(tag_268)\n    tag_269:\n      dup3\n      add\n      swap2\n      swap1\n      0x00\n      mstore\n      keccak256(0x00, 0x20)\n      swap1\n    tag_270:\n      dup2\n      sload\n      dup2\n      mstore\n      swap1\n      0x01\n      add\n      swap1\n      0x20\n      add\n      dup1\n      dup4\n      gt\n      tag_270\n      jumpi\n      dup3\n      swap1\n      sub\n      0x1f\n      and\n      dup3\n      add\n      swap2\n    tag_268:\n      pop\n      pop\n      pop\n      pop\n      pop\n      dup2\n      mstore\n      0x20\n      add\n      0x02\n      dup3\n      add\n      dup1\n      sload\n      tag_271\n      swap1\n      tag_95\n      jump\t// in\n    tag_271:\n      dup1\n      0x1f\n      add\n      0x20\n      dup1\n      swap2\n      div\n      mul\n      0x20\n      add\n      mload(0x40)\n      swap1\n      dup2\n      add\n      0x40\n      mstore\n      dup1\n      swap3\n      swap2\n      swap1\n      dup2\n      dup2\n      mstore\n      0x20\n      add\n      dup3\n      dup1\n      sload\n      tag_272\n      swap1\n      tag_95\n      jump\t// in\n    tag_272:\n      dup1\n      iszero\n      tag_273\n      jumpi\n      dup1\n      0x1f\n      lt\n      tag_274\n      jumpi\n      0x0100\n      dup1\n      dup4\n      sload\n      div\n      mul\n      dup4\n      mstore\n      swap2\n      0x20\n      add\n      swap2\n      jump(tag_273)\n    tag_274:\n      dup3\n      add\n      swap2\n      swap1\n      0x00\n      mstore\n      keccak256(0x00, 0x20)\n      swap1\n    tag_275:\n      dup2\n      sload\n      dup2\n      mstore\n      swap1\n      0x01\n      add\n      swap1\n      0x20\n      add\n      dup1\n      dup4\n      gt\n      tag_275\n      jumpi\n      dup3\n      swap1\n      sub\n      0x1f\n      and\n      dup3\n      add\n      swap2\n    tag_273:\n      pop\n      pop\n      pop\n      pop\n      pop\n      dup2\n      mstore\n      0x20\n      add\n      0x03\n      dup3\n      add\n      dup1\n      sload\n      tag_276\n      swap1\n      tag_95\n      jump\t// in\n    tag_276:\n      dup1\n      0x1f\n      add\n      0x20\n      dup1\n      swap2\n      div\n      mul\n      0x20\n      add\n      mload(0x40)\n      swap1\n      dup2\n      add\n      0x40\n      mstore\n      dup1\n      swap3\n      swap2\n      swap1\n      dup2\n      dup2\n      mstore\n      0x20\n      add\n      dup3\n      dup1\n      sload\n      tag_277\n      swap1\n      tag_95\n      jump\t// in\n    tag_277:\n      dup1\n      iszero\n      tag_278\n      jumpi\n      dup1\n      0x1f\n      lt\n      tag_279\n      jumpi\n      0x0100\n      dup1\n      dup4\n      sload\n      div\n      mul\n      dup4\n      mstore\n      swap2\n      0x20\n      add\n      swap2\n      jump(tag_278)\n    tag_279:\n      dup3\n      add\n      swap2\n      swap1\n      0x00\n      mstore\n      keccak256(0x00, 0x20)\n      swap1\n    tag_280:\n      dup2\n      sload\n      dup2\n      mstore\n      swap1\n      0x01\n      add\n      swap1\n      0x20\n      add\n      dup1\n      dup4\n      gt\n      tag_280\n      jumpi\n      dup3\n      swap1\n      sub\n      0x1f\n      and\n      dup3\n      add\n      swap2\n    tag_278:\n      pop\n      pop\n      pop\n      pop\n      pop\n      dup2\n      mstore\n      0x20\n      add\n      0x04\n      dup3\n      add\n      0x00\n      swap1\n      sload\n      swap1\n      0x0100\n      exp\n      swap1\n      div\n      0xff\n      and\n      iszero\n      iszero\n      iszero\n      iszero\n      dup2\n      mstore\n      pop\n      pop\n      swap1\n      pop\n        /* \"contracts/userDetails.sol\":3816:3827  suppAddress */\n      dup2\n        /* \"contracts/userDetails.sol\":3797:3810  suppAddresses */\n      dup6\n        /* \"contracts/userDetails.sol\":3811:3812  i */\n      dup5\n        /* \"contracts/userDetails.sol\":3797:3813  suppAddresses[i] */\n      dup2\n      mload\n      dup2\n      lt\n      tag_281\n      jumpi\n      tag_282\n      tag_187\n      jump\t// in\n    tag_282:\n    tag_281:\n      0x20\n      mul\n      0x20\n      add\n      add\n        /* \"contracts/userDetails.sol\":3797:3827  suppAddresses[i] = suppAddress */\n      swap1\n      0xffffffffffffffffffffffffffffffffffffffff\n      and\n      swap1\n      dup2\n      0xffffffffffffffffffffffffffffffffffffffff\n      and\n      dup2\n      mstore\n      pop\n      pop\n        /* \"contracts/userDetails.sol\":3859:3866  details */\n      dup1\n        /* \"contracts/userDetails.sol\":3842:3853  suppDetails */\n      dup5\n        /* \"contracts/userDetails.sol\":3854:3855  i */\n      dup5\n        /* \"contracts/userDetails.sol\":3842:3856  suppDetails[i] */\n      dup2\n      mload\n      dup2\n      lt\n      tag_283\n      jumpi\n      tag_284\n      tag_187\n      jump\t// in\n    tag_284:\n    tag_283:\n      0x20\n      mul\n      0x20\n      add\n      add\n        /* \"contracts/userDetails.sol\":3842:3866  suppDetails[i] = details */\n      dup2\n      swap1\n      mstore\n      pop\n        /* \"contracts/userDetails.sol\":3658:3878  {... */\n      pop\n      pop\n        /* \"contracts/userDetails.sol\":3653:3656  i++ */\n      dup1\n      dup1\n      tag_285\n      swap1\n      tag_211\n      jump\t// in\n    tag_285:\n      swap2\n      pop\n      pop\n        /* \"contracts/userDetails.sol\":3619:3878  for(uint i=0; i<suppliers.length; i++) {... */\n      jump(tag_256)\n    tag_257:\n      pop\n        /* \"contracts/userDetails.sol\":3898:3911  suppAddresses */\n      dup2\n        /* \"contracts/userDetails.sol\":3913:3924  suppDetails */\n      dup2\n        /* \"contracts/userDetails.sol\":3890:3925  return (suppAddresses, suppDetails) */\n      swap4\n      pop\n      swap4\n      pop\n      pop\n      pop\n        /* \"contracts/userDetails.sol\":3363:3933  function getAllSuppliers() public view returns(address[] memory, userDetails[] memory) {... */\n      swap1\n      swap2\n      jump\t// out\n        /* \"contracts/userDetails.sol\":3947:4055  function getAllSupplierAddresses() public view returns(address[] memory) {... */\n    tag_69:\n        /* \"contracts/userDetails.sol\":4002:4018  address[] memory */\n      0x60\n        /* \"contracts/userDetails.sol\":4038:4047  suppliers */\n      0x02\n        /* \"contracts/userDetails.sol\":4031:4047  return suppliers */\n      dup1\n      sload\n      dup1\n      0x20\n      mul\n      0x20\n      add\n      mload(0x40)\n      swap1\n      dup2\n      add\n      0x40\n      mstore\n      dup1\n      swap3\n      swap2\n      swap1\n      dup2\n      dup2\n      mstore\n      0x20\n      add\n      dup3\n      dup1\n      sload\n      dup1\n      iszero\n      tag_287\n      jumpi\n      0x20\n      mul\n      dup3\n      add\n      swap2\n      swap1\n      0x00\n      mstore\n      keccak256(0x00, 0x20)\n      swap1\n    tag_288:\n      dup2\n      0x00\n      swap1\n      sload\n      swap1\n      0x0100\n      exp\n      swap1\n      div\n      0xffffffffffffffffffffffffffffffffffffffff\n      and\n      0xffffffffffffffffffffffffffffffffffffffff\n      and\n      dup2\n      mstore\n      0x20\n      add\n      swap1\n      0x01\n      add\n      swap1\n      dup1\n      dup4\n      gt\n      tag_288\n      jumpi\n    tag_287:\n      pop\n      pop\n      pop\n      pop\n      pop\n      swap1\n      pop\n        /* \"contracts/userDetails.sol\":3947:4055  function getAllSupplierAddresses() public view returns(address[] memory) {... */\n      swap1\n      jump\t// out\n        /* \"contracts/userDetails.sol\":484:510  address[] public suppliers */\n    tag_74:\n      0x02\n      dup2\n      dup2\n      sload\n      dup2\n      lt\n      tag_289\n      jumpi\n      0x00\n      dup1\n      revert\n    tag_289:\n      swap1\n      0x00\n      mstore\n      keccak256(0x00, 0x20)\n      add\n      0x00\n      swap2\n      pop\n      sload\n      swap1\n      0x0100\n      exp\n      swap1\n      div\n      0xffffffffffffffffffffffffffffffffffffffff\n      and\n      dup2\n      jump\t// out\n        /* \"contracts/userDetails.sol\":2416:2701  function editImage(bytes memory _image)public override {... */\n    tag_78:\n        /* \"contracts/userDetails.sol\":2525:2531  _image */\n      dup1\n        /* \"contracts/userDetails.sol\":2482:2500  userDetailsMapping */\n      0x00\n        /* \"contracts/userDetails.sol\":2482:2512  userDetailsMapping[msg.sender] */\n      dup1\n        /* \"contracts/userDetails.sol\":2501:2511  msg.sender */\n      caller\n        /* \"contracts/userDetails.sol\":2482:2512  userDetailsMapping[msg.sender] */\n      0xffffffffffffffffffffffffffffffffffffffff\n      and\n      0xffffffffffffffffffffffffffffffffffffffff\n      and\n      dup2\n      mstore\n      0x20\n      add\n      swap1\n      dup2\n      mstore\n      0x20\n      add\n      0x00\n      keccak256\n        /* \"contracts/userDetails.sol\":2482:2522  userDetailsMapping[msg.sender].userImage */\n      0x03\n      add\n        /* \"contracts/userDetails.sol\":2482:2531  userDetailsMapping[msg.sender].userImage = _image */\n      swap1\n      dup2\n      tag_292\n      swap2\n      swap1\n      tag_88\n      jump\t// in\n    tag_292:\n      pop\n        /* \"contracts/userDetails.sol\":2542:2562  userDetails memory u */\n      0x00\n        /* \"contracts/userDetails.sol\":2565:2583  userDetailsMapping */\n      dup1\n        /* \"contracts/userDetails.sol\":2565:2595  userDetailsMapping[msg.sender] */\n      0x00\n        /* \"contracts/userDetails.sol\":2584:2594  msg.sender */\n      caller\n        /* \"contracts/userDetails.sol\":2565:2595  userDetailsMapping[msg.sender] */\n      0xffffffffffffffffffffffffffffffffffffffff\n      and\n      0xffffffffffffffffffffffffffffffffffffffff\n      and\n      dup2\n      mstore\n      0x20\n      add\n      swap1\n      dup2\n      mstore\n      0x20\n      add\n      0x00\n      keccak256\n        /* \"contracts/userDetails.sol\":2542:2595  userDetails memory u = userDetailsMapping[msg.sender] */\n      mload(0x40)\n      dup1\n      0xa0\n      add\n      0x40\n      mstore\n      swap1\n      dup2\n      0x00\n      dup3\n      add\n      0x00\n      swap1\n      sload\n      swap1\n      0x0100\n      exp\n      swap1\n      div\n      0xff\n      and\n      0x02\n      dup2\n      gt\n      iszero\n      tag_293\n      jumpi\n      tag_294\n      tag_91\n      jump\t// in\n    tag_294:\n    tag_293:\n      0x02\n      dup2\n      gt\n      iszero\n      tag_295\n      jumpi\n      tag_296\n      tag_91\n      jump\t// in\n    tag_296:\n    tag_295:\n      dup2\n      mstore\n      0x20\n      add\n      0x01\n      dup3\n      add\n      dup1\n      sload\n      tag_297\n      swap1\n      tag_95\n      jump\t// in\n    tag_297:\n      dup1\n      0x1f\n      add\n      0x20\n      dup1\n      swap2\n      div\n      mul\n      0x20\n      add\n      mload(0x40)\n      swap1\n      dup2\n      add\n      0x40\n      mstore\n      dup1\n      swap3\n      swap2\n      swap1\n      dup2\n      dup2\n      mstore\n      0x20\n      add\n      dup3\n      dup1\n      sload\n      tag_298\n      swap1\n      tag_95\n      jump\t// in\n    tag_298:\n      dup1\n      iszero\n      tag_299\n      jumpi\n      dup1\n      0x1f\n      lt\n      tag_300\n      jumpi\n      0x0100\n      dup1\n      dup4\n      sload\n      div\n      mul\n      dup4\n      mstore\n      swap2\n      0x20\n      add\n      swap2\n      jump(tag_299)\n    tag_300:\n      dup3\n      add\n      swap2\n      swap1\n      0x00\n      mstore\n      keccak256(0x00, 0x20)\n      swap1\n    tag_301:\n      dup2\n      sload\n      dup2\n      mstore\n      swap1\n      0x01\n      add\n      swap1\n      0x20\n      add\n      dup1\n      dup4\n      gt\n      tag_301\n      jumpi\n      dup3\n      swap1\n      sub\n      0x1f\n      and\n      dup3\n      add\n      swap2\n    tag_299:\n      pop\n      pop\n      pop\n      pop\n      pop\n      dup2\n      mstore\n      0x20\n      add\n      0x02\n      dup3\n      add\n      dup1\n      sload\n      tag_302\n      swap1\n      tag_95\n      jump\t// in\n    tag_302:\n      dup1\n      0x1f\n      add\n      0x20\n      dup1\n      swap2\n      div\n      mul\n      0x20\n      add\n      mload(0x40)\n      swap1\n      dup2\n      add\n      0x40\n      mstore\n      dup1\n      swap3\n      swap2\n      swap1\n      dup2\n      dup2\n      mstore\n      0x20\n      add\n      dup3\n      dup1\n      sload\n      tag_303\n      swap1\n      tag_95\n      jump\t// in\n    tag_303:\n      dup1\n      iszero\n      tag_304\n      jumpi\n      dup1\n      0x1f\n      lt\n      tag_305\n      jumpi\n      0x0100\n      dup1\n      dup4\n      sload\n      div\n      mul\n      dup4\n      mstore\n      swap2\n      0x20\n      add\n      swap2\n      jump(tag_304)\n    tag_305:\n      dup3\n      add\n      swap2\n      swap1\n      0x00\n      mstore\n      keccak256(0x00, 0x20)\n      swap1\n    tag_306:\n      dup2\n      sload\n      dup2\n      mstore\n      swap1\n      0x01\n      add\n      swap1\n      0x20\n      add\n      dup1\n      dup4\n      gt\n      tag_306\n      jumpi\n      dup3\n      swap1\n      sub\n      0x1f\n      and\n      dup3\n      add\n      swap2\n    tag_304:\n      pop\n      pop\n      pop\n      pop\n      pop\n      dup2\n      mstore\n      0x20\n      add\n      0x03\n      dup3\n      add\n      dup1\n      sload\n      tag_307\n      swap1\n      tag_95\n      jump\t// in\n    tag_307:\n      dup1\n      0x1f\n      add\n      0x20\n      dup1\n      swap2\n      div\n      mul\n      0x20\n      add\n      mload(0x40)\n      swap1\n      dup2\n      add\n      0x40\n      mstore\n      dup1\n      swap3\n      swap2\n      swap1\n      dup2\n      dup2\n      mstore\n      0x20\n      add\n      dup3\n      dup1\n      sload\n      tag_308\n      swap1\n      tag_95\n      jump\t// in\n    tag_308:\n      dup1\n      iszero\n      tag_309\n      jumpi\n      dup1\n      0x1f\n      lt\n      tag_310\n      jumpi\n      0x0100\n      dup1\n      dup4\n      sload\n      div\n      mul\n      dup4\n      mstore\n      swap2\n      0x20\n      add\n      swap2\n      jump(tag_309)\n    tag_310:\n      dup3\n      add\n      swap2\n      swap1\n      0x00\n      mstore\n      keccak256(0x00, 0x20)\n      swap1\n    tag_311:\n      dup2\n      sload\n      dup2\n      mstore\n      swap1\n      0x01\n      add\n      swap1\n      0x20\n      add\n      dup1\n      dup4\n      gt\n      tag_311\n      jumpi\n      dup3\n      swap1\n      sub\n      0x1f\n      and\n      dup3\n      add\n      swap2\n    tag_309:\n      pop\n      pop\n      pop\n      pop\n      pop\n      dup2\n      mstore\n      0x20\n      add\n      0x04\n      dup3\n      add\n      0x00\n      swap1\n      sload\n      swap1\n      0x0100\n      exp\n      swap1\n      div\n      0xff\n      and\n      iszero\n      iszero\n      iszero\n      iszero\n      dup2\n      mstore\n      pop\n      pop\n      swap1\n      pop\n        /* \"contracts/userDetails.sol\":2625:2635  msg.sender */\n      caller\n        /* \"contracts/userDetails.sol\":2611:2693  eventUserData(msg.sender,u.userType,u.userName,u.userImage,_image,block.timestamp) */\n      0xffffffffffffffffffffffffffffffffffffffff\n      and\n      0xe49f40f57c43bcc0ea51de08718dcc45efb3325fb9d155e76c2a5ab33be2de16\n        /* \"contracts/userDetails.sol\":2636:2637  u */\n      dup3\n        /* \"contracts/userDetails.sol\":2636:2646  u.userType */\n      0x00\n      add\n      mload\n        /* \"contracts/userDetails.sol\":2647:2648  u */\n      dup4\n        /* \"contracts/userDetails.sol\":2647:2657  u.userName */\n      0x20\n      add\n      mload\n        /* \"contracts/userDetails.sol\":2658:2659  u */\n      dup5\n        /* \"contracts/userDetails.sol\":2658:2669  u.userImage */\n      0x60\n      add\n      mload\n        /* \"contracts/userDetails.sol\":2670:2676  _image */\n      dup7\n        /* \"contracts/userDetails.sol\":2677:2692  block.timestamp */\n      timestamp\n        /* \"contracts/userDetails.sol\":2611:2693  eventUserData(msg.sender,u.userType,u.userName,u.userImage,_image,block.timestamp) */\n      mload(0x40)\n      tag_312\n      swap6\n      swap5\n      swap4\n      swap3\n      swap2\n      swap1\n      tag_111\n      jump\t// in\n    tag_312:\n      mload(0x40)\n      dup1\n      swap2\n      sub\n      swap1\n      log2\n        /* \"contracts/userDetails.sol\":2471:2701  {... */\n      pop\n        /* \"contracts/userDetails.sol\":2416:2701  function editImage(bytes memory _image)public override {... */\n      pop\n      jump\t// out\n        /* \"contracts/userDetails.sol\":4141:4459  function getAllManufacturers() public view returns(userDetails[] memory){... */\n    tag_80:\n        /* \"contracts/userDetails.sol\":4192:4212  userDetails[] memory */\n      0x60\n        /* \"contracts/userDetails.sol\":4224:4250  userDetails[] memory manuD */\n      0x00\n        /* \"contracts/userDetails.sol\":4271:4284  manufacturers */\n      0x03\n        /* \"contracts/userDetails.sol\":4271:4291  manufacturers.length */\n      dup1\n      sload\n      swap1\n      pop\n        /* \"contracts/userDetails.sol\":4253:4292  new userDetails[](manufacturers.length) */\n      0xffffffffffffffff\n      dup2\n      gt\n      iszero\n      tag_314\n      jumpi\n      tag_315\n      tag_178\n      jump\t// in\n    tag_315:\n    tag_314:\n      mload(0x40)\n      swap1\n      dup1\n      dup3\n      mstore\n      dup1\n      0x20\n      mul\n      0x20\n      add\n      dup3\n      add\n      0x40\n      mstore\n      dup1\n      iszero\n      tag_316\n      jumpi\n      dup2\n      0x20\n      add\n    tag_317:\n      tag_318\n      tag_113\n      jump\t// in\n    tag_318:\n      dup2\n      mstore\n      0x20\n      add\n      swap1\n      0x01\n      swap1\n      sub\n      swap1\n      dup2\n      tag_317\n      jumpi\n      swap1\n      pop\n    tag_316:\n      pop\n        /* \"contracts/userDetails.sol\":4224:4292  userDetails[] memory manuD = new userDetails[](manufacturers.length) */\n      swap1\n      pop\n        /* \"contracts/userDetails.sol\":4307:4313  uint i */\n      0x00\n        /* \"contracts/userDetails.sol\":4303:4427  for(uint i=0;i<manufacturers.length;i++)... */\n    tag_319:\n        /* \"contracts/userDetails.sol\":4318:4331  manufacturers */\n      0x03\n        /* \"contracts/userDetails.sol\":4318:4338  manufacturers.length */\n      dup1\n      sload\n      swap1\n      pop\n        /* \"contracts/userDetails.sol\":4316:4317  i */\n      dup2\n        /* \"contracts/userDetails.sol\":4316:4338  i<manufacturers.length */\n      lt\n        /* \"contracts/userDetails.sol\":4303:4427  for(uint i=0;i<manufacturers.length;i++)... */\n      iszero\n      tag_320\n      jumpi\n        /* \"contracts/userDetails.sol\":4379:4397  userDetailsMapping */\n      0x00\n        /* \"contracts/userDetails.sol\":4379:4415  userDetailsMapping[manufacturers[i]] */\n      dup1\n        /* \"contracts/userDetails.sol\":4398:4411  manufacturers */\n      0x03\n        /* \"contracts/userDetails.sol\":4412:4413  i */\n      dup4\n        /* \"contracts/userDetails.sol\":4398:4414  manufacturers[i] */\n      dup2\n      sload\n      dup2\n      lt\n      tag_322\n      jumpi\n      tag_323\n      tag_187\n      jump\t// in\n    tag_323:\n    tag_322:\n      swap1\n      0x00\n      mstore\n      keccak256(0x00, 0x20)\n      add\n      0x00\n      swap1\n      sload\n      swap1\n      0x0100\n      exp\n      swap1\n      div\n      0xffffffffffffffffffffffffffffffffffffffff\n      and\n        /* \"contracts/userDetails.sol\":4379:4415  userDetailsMapping[manufacturers[i]] */\n      0xffffffffffffffffffffffffffffffffffffffff\n      and\n      0xffffffffffffffffffffffffffffffffffffffff\n      and\n      dup2\n      mstore\n      0x20\n      add\n      swap1\n      dup2\n      mstore\n      0x20\n      add\n      0x00\n      keccak256\n        /* \"contracts/userDetails.sol\":4368:4415  manuD[i] = userDetailsMapping[manufacturers[i]] */\n      mload(0x40)\n      dup1\n      0xa0\n      add\n      0x40\n      mstore\n      swap1\n      dup2\n      0x00\n      dup3\n      add\n      0x00\n      swap1\n      sload\n      swap1\n      0x0100\n      exp\n      swap1\n      div\n      0xff\n      and\n      0x02\n      dup2\n      gt\n      iszero\n      tag_325\n      jumpi\n      tag_326\n      tag_91\n      jump\t// in\n    tag_326:\n    tag_325:\n      0x02\n      dup2\n      gt\n      iszero\n      tag_327\n      jumpi\n      tag_328\n      tag_91\n      jump\t// in\n    tag_328:\n    tag_327:\n      dup2\n      mstore\n      0x20\n      add\n      0x01\n      dup3\n      add\n      dup1\n      sload\n      tag_329\n      swap1\n      tag_95\n      jump\t// in\n    tag_329:\n      dup1\n      0x1f\n      add\n      0x20\n      dup1\n      swap2\n      div\n      mul\n      0x20\n      add\n      mload(0x40)\n      swap1\n      dup2\n      add\n      0x40\n      mstore\n      dup1\n      swap3\n      swap2\n      swap1\n      dup2\n      dup2\n      mstore\n      0x20\n      add\n      dup3\n      dup1\n      sload\n      tag_330\n      swap1\n      tag_95\n      jump\t// in\n    tag_330:\n      dup1\n      iszero\n      tag_331\n      jumpi\n      dup1\n      0x1f\n      lt\n      tag_332\n      jumpi\n      0x0100\n      dup1\n      dup4\n      sload\n      div\n      mul\n      dup4\n      mstore\n      swap2\n      0x20\n      add\n      swap2\n      jump(tag_331)\n    tag_332:\n      dup3\n      add\n      swap2\n      swap1\n      0x00\n      mstore\n      keccak256(0x00, 0x20)\n      swap1\n    tag_333:\n      dup2\n      sload\n      dup2\n      mstore\n      swap1\n      0x01\n      add\n      swap1\n      0x20\n      add\n      dup1\n      dup4\n      gt\n      tag_333\n      jumpi\n      dup3\n      swap1\n      sub\n      0x1f\n      and\n      dup3\n      add\n      swap2\n    tag_331:\n      pop\n      pop\n      pop\n      pop\n      pop\n      dup2\n      mstore\n      0x20\n      add\n      0x02\n      dup3\n      add\n      dup1\n      sload\n      tag_334\n      swap1\n      tag_95\n      jump\t// in\n    tag_334:\n      dup1\n      0x1f\n      add\n      0x20\n      dup1\n      swap2\n      div\n      mul\n      0x20\n      add\n      mload(0x40)\n      swap1\n      dup2\n      add\n      0x40\n      mstore\n      dup1\n      swap3\n      swap2\n      swap1\n      dup2\n      dup2\n      mstore\n      0x20\n      add\n      dup3\n      dup1\n      sload\n      tag_335\n      swap1\n      tag_95\n      jump\t// in\n    tag_335:\n      dup1\n      iszero\n      tag_336\n      jumpi\n      dup1\n      0x1f\n      lt\n      tag_337\n      jumpi\n      0x0100\n      dup1\n      dup4\n      sload\n      div\n      mul\n      dup4\n      mstore\n      swap2\n      0x20\n      add\n      swap2\n      jump(tag_336)\n    tag_337:\n      dup3\n      add\n      swap2\n      swap1\n      0x00\n      mstore\n      keccak256(0x00, 0x20)\n      swap1\n    tag_338:\n      dup2\n      sload\n      dup2\n      mstore\n      swap1\n      0x01\n      add\n      swap1\n      0x20\n      add\n      dup1\n      dup4\n      gt\n      tag_338\n      jumpi\n      dup3\n      swap1\n      sub\n      0x1f\n      and\n      dup3\n      add\n      swap2\n    tag_336:\n      pop\n      pop\n      pop\n      pop\n      pop\n      dup2\n      mstore\n      0x20\n      add\n      0x03\n      dup3\n      add\n      dup1\n      sload\n      tag_339\n      swap1\n      tag_95\n      jump\t// in\n    tag_339:\n      dup1\n      0x1f\n      add\n      0x20\n      dup1\n      swap2\n      div\n      mul\n      0x20\n      add\n      mload(0x40)\n      swap1\n      dup2\n      add\n      0x40\n      mstore\n      dup1\n      swap3\n      swap2\n      swap1\n      dup2\n      dup2\n      mstore\n      0x20\n      add\n      dup3\n      dup1\n      sload\n      tag_340\n      swap1\n      tag_95\n      jump\t// in\n    tag_340:\n      dup1\n      iszero\n      tag_341\n      jumpi\n      dup1\n      0x1f\n      lt\n      tag_342\n      jumpi\n      0x0100\n      dup1\n      dup4\n      sload\n      div\n      mul\n      dup4\n      mstore\n      swap2\n      0x20\n      add\n      swap2\n      jump(tag_341)\n    tag_342:\n      dup3\n      add\n      swap2\n      swap1\n      0x00\n      mstore\n      keccak256(0x00, 0x20)\n      swap1\n    tag_343:\n      dup2\n      sload\n      dup2\n      mstore\n      swap1\n      0x01\n      add\n      swap1\n      0x20\n      add\n      dup1\n      dup4\n      gt\n      tag_343\n      jumpi\n      dup3\n      swap1\n      sub\n      0x1f\n      and\n      dup3\n      add\n      swap2\n    tag_341:\n      pop\n      pop\n      pop\n      pop\n      pop\n      dup2\n      mstore\n      0x20\n      add\n      0x04\n      dup3\n      add\n      0x00\n      swap1\n      sload\n      swap1\n      0x0100\n      exp\n      swap1\n      div\n      0xff\n      and\n      iszero\n      iszero\n      iszero\n      iszero\n      dup2\n      mstore\n      pop\n      pop\n        /* \"contracts/userDetails.sol\":4368:4373  manuD */\n      dup3\n        /* \"contracts/userDetails.sol\":4374:4375  i */\n      dup3\n        /* \"contracts/userDetails.sol\":4368:4376  manuD[i] */\n      dup2\n      mload\n      dup2\n      lt\n      tag_344\n      jumpi\n      tag_345\n      tag_187\n      jump\t// in\n    tag_345:\n    tag_344:\n      0x20\n      mul\n      0x20\n      add\n      add\n        /* \"contracts/userDetails.sol\":4368:4415  manuD[i] = userDetailsMapping[manufacturers[i]] */\n      dup2\n      swap1\n      mstore\n      pop\n        /* \"contracts/userDetails.sol\":4339:4342  i++ */\n      dup1\n      dup1\n      tag_346\n      swap1\n      tag_211\n      jump\t// in\n    tag_346:\n      swap2\n      pop\n      pop\n        /* \"contracts/userDetails.sol\":4303:4427  for(uint i=0;i<manufacturers.length;i++)... */\n      jump(tag_319)\n    tag_320:\n      pop\n        /* \"contracts/userDetails.sol\":4444:4449  manuD */\n      dup1\n        /* \"contracts/userDetails.sol\":4437:4449  return manuD */\n      swap2\n      pop\n      pop\n        /* \"contracts/userDetails.sol\":4141:4459  function getAllManufacturers() public view returns(userDetails[] memory){... */\n      swap1\n      jump\t// out\n        /* \"contracts/userDetails.sol\":2997:3281  function getAllUsers() public view returns(userDetails[] memory){... */\n    tag_83:\n        /* \"contracts/userDetails.sol\":3040:3060  userDetails[] memory */\n      0x60\n        /* \"contracts/userDetails.sol\":3072:3098  userDetails[] memory userD */\n      0x00\n        /* \"contracts/userDetails.sol\":3119:3124  users */\n      0x01\n        /* \"contracts/userDetails.sol\":3119:3131  users.length */\n      dup1\n      sload\n      swap1\n      pop\n        /* \"contracts/userDetails.sol\":3101:3132  new userDetails[](users.length) */\n      0xffffffffffffffff\n      dup2\n      gt\n      iszero\n      tag_348\n      jumpi\n      tag_349\n      tag_178\n      jump\t// in\n    tag_349:\n    tag_348:\n      mload(0x40)\n      swap1\n      dup1\n      dup3\n      mstore\n      dup1\n      0x20\n      mul\n      0x20\n      add\n      dup3\n      add\n      0x40\n      mstore\n      dup1\n      iszero\n      tag_350\n      jumpi\n      dup2\n      0x20\n      add\n    tag_351:\n      tag_352\n      tag_113\n      jump\t// in\n    tag_352:\n      dup2\n      mstore\n      0x20\n      add\n      swap1\n      0x01\n      swap1\n      sub\n      swap1\n      dup2\n      tag_351\n      jumpi\n      swap1\n      pop\n    tag_350:\n      pop\n        /* \"contracts/userDetails.sol\":3072:3132  userDetails[] memory userD = new userDetails[](users.length) */\n      swap1\n      pop\n        /* \"contracts/userDetails.sol\":3147:3153  uint i */\n      0x00\n        /* \"contracts/userDetails.sol\":3143:3251  for(uint i=0;i<users.length;i++)... */\n    tag_353:\n        /* \"contracts/userDetails.sol\":3158:3163  users */\n      0x01\n        /* \"contracts/userDetails.sol\":3158:3170  users.length */\n      dup1\n      sload\n      swap1\n      pop\n        /* \"contracts/userDetails.sol\":3156:3157  i */\n      dup2\n        /* \"contracts/userDetails.sol\":3156:3170  i<users.length */\n      lt\n        /* \"contracts/userDetails.sol\":3143:3251  for(uint i=0;i<users.length;i++)... */\n      iszero\n      tag_354\n      jumpi\n        /* \"contracts/userDetails.sol\":3211:3229  userDetailsMapping */\n      0x00\n        /* \"contracts/userDetails.sol\":3211:3239  userDetailsMapping[users[i]] */\n      dup1\n        /* \"contracts/userDetails.sol\":3230:3235  users */\n      0x01\n        /* \"contracts/userDetails.sol\":3236:3237  i */\n      dup4\n        /* \"contracts/userDetails.sol\":3230:3238  users[i] */\n      dup2\n      sload\n      dup2\n      lt\n      tag_356\n      jumpi\n      tag_357\n      tag_187\n      jump\t// in\n    tag_357:\n    tag_356:\n      swap1\n      0x00\n      mstore\n      keccak256(0x00, 0x20)\n      add\n      0x00\n      swap1\n      sload\n      swap1\n      0x0100\n      exp\n      swap1\n      div\n      0xffffffffffffffffffffffffffffffffffffffff\n      and\n        /* \"contracts/userDetails.sol\":3211:3239  userDetailsMapping[users[i]] */\n      0xffffffffffffffffffffffffffffffffffffffff\n      and\n      0xffffffffffffffffffffffffffffffffffffffff\n      and\n      dup2\n      mstore\n      0x20\n      add\n      swap1\n      dup2\n      mstore\n      0x20\n      add\n      0x00\n      keccak256\n        /* \"contracts/userDetails.sol\":3200:3239  userD[i] = userDetailsMapping[users[i]] */\n      mload(0x40)\n      dup1\n      0xa0\n      add\n      0x40\n      mstore\n      swap1\n      dup2\n      0x00\n      dup3\n      add\n      0x00\n      swap1\n      sload\n      swap1\n      0x0100\n      exp\n      swap1\n      div\n      0xff\n      and\n      0x02\n      dup2\n      gt\n      iszero\n      tag_359\n      jumpi\n      tag_360\n      tag_91\n      jump\t// in\n    tag_360:\n    tag_359:\n      0x02\n      dup2\n      gt\n      iszero\n      tag_361\n      jumpi\n      tag_362\n      tag_91\n      jump\t// in\n    tag_362:\n    tag_361:\n      dup2\n      mstore\n      0x20\n      add\n      0x01\n      dup3\n      add\n      dup1\n      sload\n      tag_363\n      swap1\n      tag_95\n      jump\t// in\n    tag_363:\n      dup1\n      0x1f\n      add\n      0x20\n      dup1\n      swap2\n      div\n      mul\n      0x20\n      add\n      mload(0x40)\n      swap1\n      dup2\n      add\n      0x40\n      mstore\n      dup1\n      swap3\n      swap2\n      swap1\n      dup2\n      dup2\n      mstore\n      0x20\n      add\n      dup3\n      dup1\n      sload\n      tag_364\n      swap1\n      tag_95\n      jump\t// in\n    tag_364:\n      dup1\n      iszero\n      tag_365\n      jumpi\n      dup1\n      0x1f\n      lt\n      tag_366\n      jumpi\n      0x0100\n      dup1\n      dup4\n      sload\n      div\n      mul\n      dup4\n      mstore\n      swap2\n      0x20\n      add\n      swap2\n      jump(tag_365)\n    tag_366:\n      dup3\n      add\n      swap2\n      swap1\n      0x00\n      mstore\n      keccak256(0x00, 0x20)\n      swap1\n    tag_367:\n      dup2\n      sload\n      dup2\n      mstore\n      swap1\n      0x01\n      add\n      swap1\n      0x20\n      add\n      dup1\n      dup4\n      gt\n      tag_367\n      jumpi\n      dup3\n      swap1\n      sub\n      0x1f\n      and\n      dup3\n      add\n      swap2\n    tag_365:\n      pop\n      pop\n      pop\n      pop\n      pop\n      dup2\n      mstore\n      0x20\n      add\n      0x02\n      dup3\n      add\n      dup1\n      sload\n      tag_368\n      swap1\n      tag_95\n      jump\t// in\n    tag_368:\n      dup1\n      0x1f\n      add\n      0x20\n      dup1\n      swap2\n      div\n      mul\n      0x20\n      add\n      mload(0x40)\n      swap1\n      dup2\n      add\n      0x40\n      mstore\n      dup1\n      swap3\n      swap2\n      swap1\n      dup2\n      dup2\n      mstore\n      0x20\n      add\n      dup3\n      dup1\n      sload\n      tag_369\n      swap1\n      tag_95\n      jump\t// in\n    tag_369:\n      dup1\n      iszero\n      tag_370\n      jumpi\n      dup1\n      0x1f\n      lt\n      tag_371\n      jumpi\n      0x0100\n      dup1\n      dup4\n      sload\n      div\n      mul\n      dup4\n      mstore\n      swap2\n      0x20\n      add\n      swap2\n      jump(tag_370)\n    tag_371:\n      dup3\n      add\n      swap2\n      swap1\n      0x00\n      mstore\n      keccak256(0x00, 0x20)\n      swap1\n    tag_372:\n      dup2\n      sload\n      dup2\n      mstore\n      swap1\n      0x01\n      add\n      swap1\n      0x20\n      add\n      dup1\n      dup4\n      gt\n      tag_372\n      jumpi\n      dup3\n      swap1\n      sub\n      0x1f\n      and\n      dup3\n      add\n      swap2\n    tag_370:\n      pop\n      pop\n      pop\n      pop\n      pop\n      dup2\n      mstore\n      0x20\n      add\n      0x03\n      dup3\n      add\n      dup1\n      sload\n      tag_373\n      swap1\n      tag_95\n      jump\t// in\n    tag_373:\n      dup1\n      0x1f\n      add\n      0x20\n      dup1\n      swap2\n      div\n      mul\n      0x20\n      add\n      mload(0x40)\n      swap1\n      dup2\n      add\n      0x40\n      mstore\n      dup1\n      swap3\n      swap2\n      swap1\n      dup2\n      dup2\n      mstore\n      0x20\n      add\n      dup3\n      dup1\n      sload\n      tag_374\n      swap1\n      tag_95\n      jump\t// in\n    tag_374:\n      dup1\n      iszero\n      tag_375\n      jumpi\n      dup1\n      0x1f\n      lt\n      tag_376\n      jumpi\n      0x0100\n      dup1\n      dup4\n      sload\n      div\n      mul\n      dup4\n      mstore\n      swap2\n      0x20\n      add\n      swap2\n      jump(tag_375)\n    tag_376:\n      dup3\n      add\n      swap2\n      swap1\n      0x00\n      mstore\n      keccak256(0x00, 0x20)\n      swap1\n    tag_377:\n      dup2\n      sload\n      dup2\n      mstore\n      swap1\n      0x01\n      add\n      swap1\n      0x20\n      add\n      dup1\n      dup4\n      gt\n      tag_377\n      jumpi\n      dup3\n      swap1\n      sub\n      0x1f\n      and\n      dup3\n      add\n      swap2\n    tag_375:\n      pop\n      pop\n      pop\n      pop\n      pop\n      dup2\n      mstore\n      0x20\n      add\n      0x04\n      dup3\n      add\n      0x00\n      swap1\n      sload\n      swap1\n      0x0100\n      exp\n      swap1\n      div\n      0xff\n      and\n      iszero\n      iszero\n      iszero\n      iszero\n      dup2\n      mstore\n      pop\n      pop\n        /* \"contracts/userDetails.sol\":3200:3205  userD */\n      dup3\n        /* \"contracts/userDetails.sol\":3206:3207  i */\n      dup3\n        /* \"contracts/userDetails.sol\":3200:3208  userD[i] */\n      dup2\n      mload\n      dup2\n      lt\n      tag_378\n      jumpi\n      tag_379\n      tag_187\n      jump\t// in\n    tag_379:\n    tag_378:\n      0x20\n      mul\n      0x20\n      add\n      add\n        /* \"contracts/userDetails.sol\":3200:3239  userD[i] = userDetailsMapping[users[i]] */\n      dup2\n      swap1\n      mstore\n      pop\n        /* \"contracts/userDetails.sol\":3171:3174  i++ */\n      dup1\n      dup1\n      tag_380\n      swap1\n      tag_211\n      jump\t// in\n    tag_380:\n      swap2\n      pop\n      pop\n        /* \"contracts/userDetails.sol\":3143:3251  for(uint i=0;i<users.length;i++)... */\n      jump(tag_353)\n    tag_354:\n      pop\n        /* \"contracts/userDetails.sol\":3268:3273  userD */\n      dup1\n        /* \"contracts/userDetails.sol\":3261:3273  return userD */\n      swap2\n      pop\n      pop\n        /* \"contracts/userDetails.sol\":2997:3281  function getAllUsers() public view returns(userDetails[] memory){... */\n      swap1\n      jump\t// out\n    tag_113:\n      mload(0x40)\n      dup1\n      0xa0\n      add\n      0x40\n      mstore\n      dup1\n      0x00\n      0x02\n      dup2\n      gt\n      iszero\n      tag_381\n      jumpi\n      tag_382\n      tag_91\n      jump\t// in\n    tag_382:\n    tag_381:\n      dup2\n      mstore\n      0x20\n      add\n      0x60\n      dup2\n      mstore\n      0x20\n      add\n      0x60\n      dup2\n      mstore\n      0x20\n      add\n      0x60\n      dup2\n      mstore\n      0x20\n      add\n      iszero(iszero(0x00))\n      dup2\n      mstore\n      pop\n      swap1\n      jump\t// out\n        /* \"#utility.yul\":7:82   */\n    tag_383:\n        /* \"#utility.yul\":40:46   */\n      0x00\n        /* \"#utility.yul\":73:75   */\n      0x40\n        /* \"#utility.yul\":67:76   */\n      mload\n        /* \"#utility.yul\":57:76   */\n      swap1\n      pop\n        /* \"#utility.yul\":7:82   */\n      swap1\n      jump\t// out\n        /* \"#utility.yul\":88:205   */\n    tag_384:\n        /* \"#utility.yul\":197:198   */\n      0x00\n        /* \"#utility.yul\":194:195   */\n      dup1\n        /* \"#utility.yul\":187:199   */\n      revert\n        /* \"#utility.yul\":211:328   */\n    tag_385:\n        /* \"#utility.yul\":320:321   */\n      0x00\n        /* \"#utility.yul\":317:318   */\n      dup1\n        /* \"#utility.yul\":310:322   */\n      revert\n        /* \"#utility.yul\":334:451   */\n    tag_386:\n        /* \"#utility.yul\":443:444   */\n      0x00\n        /* \"#utility.yul\":440:441   */\n      dup1\n        /* \"#utility.yul\":433:445   */\n      revert\n        /* \"#utility.yul\":457:574   */\n    tag_387:\n        /* \"#utility.yul\":566:567   */\n      0x00\n        /* \"#utility.yul\":563:564   */\n      dup1\n        /* \"#utility.yul\":556:568   */\n      revert\n        /* \"#utility.yul\":580:682   */\n    tag_388:\n        /* \"#utility.yul\":621:627   */\n      0x00\n        /* \"#utility.yul\":672:674   */\n      0x1f\n        /* \"#utility.yul\":668:675   */\n      not\n        /* \"#utility.yul\":663:665   */\n      0x1f\n        /* \"#utility.yul\":656:661   */\n      dup4\n        /* \"#utility.yul\":652:666   */\n      add\n        /* \"#utility.yul\":648:676   */\n      and\n        /* \"#utility.yul\":638:676   */\n      swap1\n      pop\n        /* \"#utility.yul\":580:682   */\n      swap2\n      swap1\n      pop\n      jump\t// out\n        /* \"#utility.yul\":688:868   */\n    tag_178:\n        /* \"#utility.yul\":736:813   */\n      0x4e487b7100000000000000000000000000000000000000000000000000000000\n        /* \"#utility.yul\":733:734   */\n      0x00\n        /* \"#utility.yul\":726:814   */\n      mstore\n        /* \"#utility.yul\":833:837   */\n      0x41\n        /* \"#utility.yul\":830:831   */\n      0x04\n        /* \"#utility.yul\":823:838   */\n      mstore\n        /* \"#utility.yul\":857:861   */\n      0x24\n        /* \"#utility.yul\":854:855   */\n      0x00\n        /* \"#utility.yul\":847:862   */\n      revert\n        /* \"#utility.yul\":874:1155   */\n    tag_389:\n        /* \"#utility.yul\":957:984   */\n      tag_468\n        /* \"#utility.yul\":979:983   */\n      dup3\n        /* \"#utility.yul\":957:984   */\n      tag_388\n      jump\t// in\n    tag_468:\n        /* \"#utility.yul\":949:955   */\n      dup2\n        /* \"#utility.yul\":945:985   */\n      add\n        /* \"#utility.yul\":1087:1093   */\n      dup2\n        /* \"#utility.yul\":1075:1085   */\n      dup2\n        /* \"#utility.yul\":1072:1094   */\n      lt\n        /* \"#utility.yul\":1051:1069   */\n      0xffffffffffffffff\n        /* \"#utility.yul\":1039:1049   */\n      dup3\n        /* \"#utility.yul\":1036:1070   */\n      gt\n        /* \"#utility.yul\":1033:1095   */\n      or\n        /* \"#utility.yul\":1030:1118   */\n      iszero\n      tag_469\n      jumpi\n        /* \"#utility.yul\":1098:1116   */\n      tag_470\n      tag_178\n      jump\t// in\n    tag_470:\n        /* \"#utility.yul\":1030:1118   */\n    tag_469:\n        /* \"#utility.yul\":1138:1148   */\n      dup1\n        /* \"#utility.yul\":1134:1136   */\n      0x40\n        /* \"#utility.yul\":1127:1149   */\n      mstore\n        /* \"#utility.yul\":917:1155   */\n      pop\n        /* \"#utility.yul\":874:1155   */\n      pop\n      pop\n      jump\t// out\n        /* \"#utility.yul\":1161:1290   */\n    tag_390:\n        /* \"#utility.yul\":1195:1201   */\n      0x00\n        /* \"#utility.yul\":1222:1242   */\n      tag_472\n      tag_383\n      jump\t// in\n    tag_472:\n        /* \"#utility.yul\":1212:1242   */\n      swap1\n      pop\n        /* \"#utility.yul\":1251:1284   */\n      tag_473\n        /* \"#utility.yul\":1279:1283   */\n      dup3\n        /* \"#utility.yul\":1271:1277   */\n      dup3\n        /* \"#utility.yul\":1251:1284   */\n      tag_389\n      jump\t// in\n    tag_473:\n        /* \"#utility.yul\":1161:1290   */\n      swap2\n      swap1\n      pop\n      jump\t// out\n        /* \"#utility.yul\":1296:1603   */\n    tag_391:\n        /* \"#utility.yul\":1357:1361   */\n      0x00\n        /* \"#utility.yul\":1447:1465   */\n      0xffffffffffffffff\n        /* \"#utility.yul\":1439:1445   */\n      dup3\n        /* \"#utility.yul\":1436:1466   */\n      gt\n        /* \"#utility.yul\":1433:1489   */\n      iszero\n      tag_475\n      jumpi\n        /* \"#utility.yul\":1469:1487   */\n      tag_476\n      tag_178\n      jump\t// in\n    tag_476:\n        /* \"#utility.yul\":1433:1489   */\n    tag_475:\n        /* \"#utility.yul\":1507:1536   */\n      tag_477\n        /* \"#utility.yul\":1529:1535   */\n      dup3\n        /* \"#utility.yul\":1507:1536   */\n      tag_388\n      jump\t// in\n    tag_477:\n        /* \"#utility.yul\":1499:1536   */\n      swap1\n      pop\n        /* \"#utility.yul\":1591:1595   */\n      0x20\n        /* \"#utility.yul\":1585:1589   */\n      dup2\n        /* \"#utility.yul\":1581:1596   */\n      add\n        /* \"#utility.yul\":1573:1596   */\n      swap1\n      pop\n        /* \"#utility.yul\":1296:1603   */\n      swap2\n      swap1\n      pop\n      jump\t// out\n        /* \"#utility.yul\":1609:1755   */\n    tag_392:\n        /* \"#utility.yul\":1706:1712   */\n      dup3\n        /* \"#utility.yul\":1701:1704   */\n      dup2\n        /* \"#utility.yul\":1696:1699   */\n      dup4\n        /* \"#utility.yul\":1683:1713   */\n      calldatacopy\n        /* \"#utility.yul\":1747:1748   */\n      0x00\n        /* \"#utility.yul\":1738:1744   */\n      dup4\n        /* \"#utility.yul\":1733:1736   */\n      dup4\n        /* \"#utility.yul\":1729:1745   */\n      add\n        /* \"#utility.yul\":1722:1749   */\n      mstore\n        /* \"#utility.yul\":1609:1755   */\n      pop\n      pop\n      pop\n      jump\t// out\n        /* \"#utility.yul\":1761:2184   */\n    tag_393:\n        /* \"#utility.yul\":1838:1843   */\n      0x00\n        /* \"#utility.yul\":1863:1928   */\n      tag_480\n        /* \"#utility.yul\":1879:1927   */\n      tag_481\n        /* \"#utility.yul\":1920:1926   */\n      dup5\n        /* \"#utility.yul\":1879:1927   */\n      tag_391\n      jump\t// in\n    tag_481:\n        /* \"#utility.yul\":1863:1928   */\n      tag_390\n      jump\t// in\n    tag_480:\n        /* \"#utility.yul\":1854:1928   */\n      swap1\n      pop\n        /* \"#utility.yul\":1951:1957   */\n      dup3\n        /* \"#utility.yul\":1944:1949   */\n      dup2\n        /* \"#utility.yul\":1937:1958   */\n      mstore\n        /* \"#utility.yul\":1989:1993   */\n      0x20\n        /* \"#utility.yul\":1982:1987   */\n      dup2\n        /* \"#utility.yul\":1978:1994   */\n      add\n        /* \"#utility.yul\":2027:2030   */\n      dup5\n        /* \"#utility.yul\":2018:2024   */\n      dup5\n        /* \"#utility.yul\":2013:2016   */\n      dup5\n        /* \"#utility.yul\":2009:2025   */\n      add\n        /* \"#utility.yul\":2006:2031   */\n      gt\n        /* \"#utility.yul\":2003:2115   */\n      iszero\n      tag_482\n      jumpi\n        /* \"#utility.yul\":2034:2113   */\n      tag_483\n      tag_387\n      jump\t// in\n    tag_483:\n        /* \"#utility.yul\":2003:2115   */\n    tag_482:\n        /* \"#utility.yul\":2124:2178   */\n      tag_484\n        /* \"#utility.yul\":2171:2177   */\n      dup5\n        /* \"#utility.yul\":2166:2169   */\n      dup3\n        /* \"#utility.yul\":2161:2164   */\n      dup6\n        /* \"#utility.yul\":2124:2178   */\n      tag_392\n      jump\t// in\n    tag_484:\n        /* \"#utility.yul\":1844:2184   */\n      pop\n        /* \"#utility.yul\":1761:2184   */\n      swap4\n      swap3\n      pop\n      pop\n      pop\n      jump\t// out\n        /* \"#utility.yul\":2203:2541   */\n    tag_394:\n        /* \"#utility.yul\":2258:2263   */\n      0x00\n        /* \"#utility.yul\":2307:2310   */\n      dup3\n        /* \"#utility.yul\":2300:2304   */\n      0x1f\n        /* \"#utility.yul\":2292:2298   */\n      dup4\n        /* \"#utility.yul\":2288:2305   */\n      add\n        /* \"#utility.yul\":2284:2311   */\n      slt\n        /* \"#utility.yul\":2274:2396   */\n      tag_486\n      jumpi\n        /* \"#utility.yul\":2315:2394   */\n      tag_487\n      tag_386\n      jump\t// in\n    tag_487:\n        /* \"#utility.yul\":2274:2396   */\n    tag_486:\n        /* \"#utility.yul\":2432:2438   */\n      dup2\n        /* \"#utility.yul\":2419:2439   */\n      calldataload\n        /* \"#utility.yul\":2457:2535   */\n      tag_488\n        /* \"#utility.yul\":2531:2534   */\n      dup5\n        /* \"#utility.yul\":2523:2529   */\n      dup3\n        /* \"#utility.yul\":2516:2520   */\n      0x20\n        /* \"#utility.yul\":2508:2514   */\n      dup7\n        /* \"#utility.yul\":2504:2521   */\n      add\n        /* \"#utility.yul\":2457:2535   */\n      tag_393\n      jump\t// in\n    tag_488:\n        /* \"#utility.yul\":2448:2535   */\n      swap2\n      pop\n        /* \"#utility.yul\":2264:2541   */\n      pop\n        /* \"#utility.yul\":2203:2541   */\n      swap3\n      swap2\n      pop\n      pop\n      jump\t// out\n        /* \"#utility.yul\":2547:3054   */\n    tag_26:\n        /* \"#utility.yul\":2615:2621   */\n      0x00\n        /* \"#utility.yul\":2664:2666   */\n      0x20\n        /* \"#utility.yul\":2652:2661   */\n      dup3\n        /* \"#utility.yul\":2643:2650   */\n      dup5\n        /* \"#utility.yul\":2639:2662   */\n      sub\n        /* \"#utility.yul\":2635:2667   */\n      slt\n        /* \"#utility.yul\":2632:2751   */\n      iszero\n      tag_490\n      jumpi\n        /* \"#utility.yul\":2670:2749   */\n      tag_491\n      tag_384\n      jump\t// in\n    tag_491:\n        /* \"#utility.yul\":2632:2751   */\n    tag_490:\n        /* \"#utility.yul\":2818:2819   */\n      0x00\n        /* \"#utility.yul\":2807:2816   */\n      dup3\n        /* \"#utility.yul\":2803:2820   */\n      add\n        /* \"#utility.yul\":2790:2821   */\n      calldataload\n        /* \"#utility.yul\":2848:2866   */\n      0xffffffffffffffff\n        /* \"#utility.yul\":2840:2846   */\n      dup2\n        /* \"#utility.yul\":2837:2867   */\n      gt\n        /* \"#utility.yul\":2834:2951   */\n      iszero\n      tag_492\n      jumpi\n        /* \"#utility.yul\":2870:2949   */\n      tag_493\n      tag_385\n      jump\t// in\n    tag_493:\n        /* \"#utility.yul\":2834:2951   */\n    tag_492:\n        /* \"#utility.yul\":2975:3037   */\n      tag_494\n        /* \"#utility.yul\":3029:3036   */\n      dup5\n        /* \"#utility.yul\":3020:3026   */\n      dup3\n        /* \"#utility.yul\":3009:3018   */\n      dup6\n        /* \"#utility.yul\":3005:3027   */\n      add\n        /* \"#utility.yul\":2975:3037   */\n      tag_394\n      jump\t// in\n    tag_494:\n        /* \"#utility.yul\":2965:3037   */\n      swap2\n      pop\n        /* \"#utility.yul\":2761:3047   */\n      pop\n        /* \"#utility.yul\":2547:3054   */\n      swap3\n      swap2\n      pop\n      pop\n      jump\t// out\n        /* \"#utility.yul\":3060:3186   */\n    tag_395:\n        /* \"#utility.yul\":3097:3104   */\n      0x00\n        /* \"#utility.yul\":3137:3179   */\n      0xffffffffffffffffffffffffffffffffffffffff\n        /* \"#utility.yul\":3130:3135   */\n      dup3\n        /* \"#utility.yul\":3126:3180   */\n      and\n        /* \"#utility.yul\":3115:3180   */\n      swap1\n      pop\n        /* \"#utility.yul\":3060:3186   */\n      swap2\n      swap1\n      pop\n      jump\t// out\n        /* \"#utility.yul\":3192:3288   */\n    tag_396:\n        /* \"#utility.yul\":3229:3236   */\n      0x00\n        /* \"#utility.yul\":3258:3282   */\n      tag_497\n        /* \"#utility.yul\":3276:3281   */\n      dup3\n        /* \"#utility.yul\":3258:3282   */\n      tag_395\n      jump\t// in\n    tag_497:\n        /* \"#utility.yul\":3247:3282   */\n      swap1\n      pop\n        /* \"#utility.yul\":3192:3288   */\n      swap2\n      swap1\n      pop\n      jump\t// out\n        /* \"#utility.yul\":3294:3416   */\n    tag_397:\n        /* \"#utility.yul\":3367:3391   */\n      tag_499\n        /* \"#utility.yul\":3385:3390   */\n      dup2\n        /* \"#utility.yul\":3367:3391   */\n      tag_396\n      jump\t// in\n    tag_499:\n        /* \"#utility.yul\":3360:3365   */\n      dup2\n        /* \"#utility.yul\":3357:3392   */\n      eq\n        /* \"#utility.yul\":3347:3410   */\n      tag_500\n      jumpi\n        /* \"#utility.yul\":3406:3407   */\n      0x00\n        /* \"#utility.yul\":3403:3404   */\n      dup1\n        /* \"#utility.yul\":3396:3408   */\n      revert\n        /* \"#utility.yul\":3347:3410   */\n    tag_500:\n        /* \"#utility.yul\":3294:3416   */\n      pop\n      jump\t// out\n        /* \"#utility.yul\":3422:3561   */\n    tag_398:\n        /* \"#utility.yul\":3468:3473   */\n      0x00\n        /* \"#utility.yul\":3506:3512   */\n      dup2\n        /* \"#utility.yul\":3493:3513   */\n      calldataload\n        /* \"#utility.yul\":3484:3513   */\n      swap1\n      pop\n        /* \"#utility.yul\":3522:3555   */\n      tag_502\n        /* \"#utility.yul\":3549:3554   */\n      dup2\n        /* \"#utility.yul\":3522:3555   */\n      tag_397\n      jump\t// in\n    tag_502:\n        /* \"#utility.yul\":3422:3561   */\n      swap3\n      swap2\n      pop\n      pop\n      jump\t// out\n        /* \"#utility.yul\":3567:3896   */\n    tag_30:\n        /* \"#utility.yul\":3626:3632   */\n      0x00\n        /* \"#utility.yul\":3675:3677   */\n      0x20\n        /* \"#utility.yul\":3663:3672   */\n      dup3\n        /* \"#utility.yul\":3654:3661   */\n      dup5\n        /* \"#utility.yul\":3650:3673   */\n      sub\n        /* \"#utility.yul\":3646:3678   */\n      slt\n        /* \"#utility.yul\":3643:3762   */\n      iszero\n      tag_504\n      jumpi\n        /* \"#utility.yul\":3681:3760   */\n      tag_505\n      tag_384\n      jump\t// in\n    tag_505:\n        /* \"#utility.yul\":3643:3762   */\n    tag_504:\n        /* \"#utility.yul\":3801:3802   */\n      0x00\n        /* \"#utility.yul\":3826:3879   */\n      tag_506\n        /* \"#utility.yul\":3871:3878   */\n      dup5\n        /* \"#utility.yul\":3862:3868   */\n      dup3\n        /* \"#utility.yul\":3851:3860   */\n      dup6\n        /* \"#utility.yul\":3847:3869   */\n      add\n        /* \"#utility.yul\":3826:3879   */\n      tag_398\n      jump\t// in\n    tag_506:\n        /* \"#utility.yul\":3816:3879   */\n      swap2\n      pop\n        /* \"#utility.yul\":3772:3889   */\n      pop\n        /* \"#utility.yul\":3567:3896   */\n      swap3\n      swap2\n      pop\n      pop\n      jump\t// out\n        /* \"#utility.yul\":3902:4082   */\n    tag_91:\n        /* \"#utility.yul\":3950:4027   */\n      0x4e487b7100000000000000000000000000000000000000000000000000000000\n        /* \"#utility.yul\":3947:3948   */\n      0x00\n        /* \"#utility.yul\":3940:4028   */\n      mstore\n        /* \"#utility.yul\":4047:4051   */\n      0x21\n        /* \"#utility.yul\":4044:4045   */\n      0x04\n        /* \"#utility.yul\":4037:4052   */\n      mstore\n        /* \"#utility.yul\":4071:4075   */\n      0x24\n        /* \"#utility.yul\":4068:4069   */\n      0x00\n        /* \"#utility.yul\":4061:4076   */\n      revert\n        /* \"#utility.yul\":4088:4203   */\n    tag_399:\n        /* \"#utility.yul\":4171:4172   */\n      0x03\n        /* \"#utility.yul\":4164:4169   */\n      dup2\n        /* \"#utility.yul\":4161:4173   */\n      lt\n        /* \"#utility.yul\":4151:4197   */\n      tag_509\n      jumpi\n        /* \"#utility.yul\":4177:4195   */\n      tag_510\n      tag_91\n      jump\t// in\n    tag_510:\n        /* \"#utility.yul\":4151:4197   */\n    tag_509:\n        /* \"#utility.yul\":4088:4203   */\n      pop\n      jump\t// out\n        /* \"#utility.yul\":4209:4340   */\n    tag_400:\n        /* \"#utility.yul\":4256:4263   */\n      0x00\n        /* \"#utility.yul\":4285:4290   */\n      dup2\n        /* \"#utility.yul\":4274:4290   */\n      swap1\n      pop\n        /* \"#utility.yul\":4291:4334   */\n      tag_512\n        /* \"#utility.yul\":4328:4333   */\n      dup3\n        /* \"#utility.yul\":4291:4334   */\n      tag_399\n      jump\t// in\n    tag_512:\n        /* \"#utility.yul\":4209:4340   */\n      swap2\n      swap1\n      pop\n      jump\t// out\n        /* \"#utility.yul\":4346:4477   */\n    tag_401:\n        /* \"#utility.yul\":4404:4413   */\n      0x00\n        /* \"#utility.yul\":4437:4471   */\n      tag_514\n        /* \"#utility.yul\":4465:4470   */\n      dup3\n        /* \"#utility.yul\":4437:4471   */\n      tag_400\n      jump\t// in\n    tag_514:\n        /* \"#utility.yul\":4424:4471   */\n      swap1\n      pop\n        /* \"#utility.yul\":4346:4477   */\n      swap2\n      swap1\n      pop\n      jump\t// out\n        /* \"#utility.yul\":4483:4620   */\n    tag_402:\n        /* \"#utility.yul\":4568:4613   */\n      tag_516\n        /* \"#utility.yul\":4607:4612   */\n      dup2\n        /* \"#utility.yul\":4568:4613   */\n      tag_401\n      jump\t// in\n    tag_516:\n        /* \"#utility.yul\":4563:4566   */\n      dup3\n        /* \"#utility.yul\":4556:4614   */\n      mstore\n        /* \"#utility.yul\":4483:4620   */\n      pop\n      pop\n      jump\t// out\n        /* \"#utility.yul\":4626:4724   */\n    tag_403:\n        /* \"#utility.yul\":4677:4683   */\n      0x00\n        /* \"#utility.yul\":4711:4716   */\n      dup2\n        /* \"#utility.yul\":4705:4717   */\n      mload\n        /* \"#utility.yul\":4695:4717   */\n      swap1\n      pop\n        /* \"#utility.yul\":4626:4724   */\n      swap2\n      swap1\n      pop\n      jump\t// out\n        /* \"#utility.yul\":4730:4888   */\n    tag_404:\n        /* \"#utility.yul\":4803:4814   */\n      0x00\n        /* \"#utility.yul\":4837:4843   */\n      dup3\n        /* \"#utility.yul\":4832:4835   */\n      dup3\n        /* \"#utility.yul\":4825:4844   */\n      mstore\n        /* \"#utility.yul\":4877:4881   */\n      0x20\n        /* \"#utility.yul\":4872:4875   */\n      dup3\n        /* \"#utility.yul\":4868:4882   */\n      add\n        /* \"#utility.yul\":4853:4882   */\n      swap1\n      pop\n        /* \"#utility.yul\":4730:4888   */\n      swap3\n      swap2\n      pop\n      pop\n      jump\t// out\n        /* \"#utility.yul\":4894:5140   */\n    tag_405:\n        /* \"#utility.yul\":4975:4976   */\n      0x00\n        /* \"#utility.yul\":4985:5098   */\n    tag_520:\n        /* \"#utility.yul\":4999:5005   */\n      dup4\n        /* \"#utility.yul\":4996:4997   */\n      dup2\n        /* \"#utility.yul\":4993:5006   */\n      lt\n        /* \"#utility.yul\":4985:5098   */\n      iszero\n      tag_522\n      jumpi\n        /* \"#utility.yul\":5084:5085   */\n      dup1\n        /* \"#utility.yul\":5079:5082   */\n      dup3\n        /* \"#utility.yul\":5075:5086   */\n      add\n        /* \"#utility.yul\":5069:5087   */\n      mload\n        /* \"#utility.yul\":5065:5066   */\n      dup2\n        /* \"#utility.yul\":5060:5063   */\n      dup5\n        /* \"#utility.yul\":5056:5067   */\n      add\n        /* \"#utility.yul\":5049:5088   */\n      mstore\n        /* \"#utility.yul\":5021:5023   */\n      0x20\n        /* \"#utility.yul\":5018:5019   */\n      dup2\n        /* \"#utility.yul\":5014:5024   */\n      add\n        /* \"#utility.yul\":5009:5024   */\n      swap1\n      pop\n        /* \"#utility.yul\":4985:5098   */\n      jump(tag_520)\n    tag_522:\n        /* \"#utility.yul\":5132:5133   */\n      0x00\n        /* \"#utility.yul\":5123:5129   */\n      dup5\n        /* \"#utility.yul\":5118:5121   */\n      dup5\n        /* \"#utility.yul\":5114:5130   */\n      add\n        /* \"#utility.yul\":5107:5134   */\n      mstore\n        /* \"#utility.yul\":4956:5140   */\n      pop\n        /* \"#utility.yul\":4894:5140   */\n      pop\n      pop\n      pop\n      jump\t// out\n        /* \"#utility.yul\":5146:5499   */\n    tag_406:\n        /* \"#utility.yul\":5222:5225   */\n      0x00\n        /* \"#utility.yul\":5250:5288   */\n      tag_524\n        /* \"#utility.yul\":5282:5287   */\n      dup3\n        /* \"#utility.yul\":5250:5288   */\n      tag_403\n      jump\t// in\n    tag_524:\n        /* \"#utility.yul\":5304:5364   */\n      tag_525\n        /* \"#utility.yul\":5357:5363   */\n      dup2\n        /* \"#utility.yul\":5352:5355   */\n      dup6\n        /* \"#utility.yul\":5304:5364   */\n      tag_404\n      jump\t// in\n    tag_525:\n        /* \"#utility.yul\":5297:5364   */\n      swap4\n      pop\n        /* \"#utility.yul\":5373:5438   */\n      tag_526\n        /* \"#utility.yul\":5431:5437   */\n      dup2\n        /* \"#utility.yul\":5426:5429   */\n      dup6\n        /* \"#utility.yul\":5419:5423   */\n      0x20\n        /* \"#utility.yul\":5412:5417   */\n      dup7\n        /* \"#utility.yul\":5408:5424   */\n      add\n        /* \"#utility.yul\":5373:5438   */\n      tag_405\n      jump\t// in\n    tag_526:\n        /* \"#utility.yul\":5463:5492   */\n      tag_527\n        /* \"#utility.yul\":5485:5491   */\n      dup2\n        /* \"#utility.yul\":5463:5492   */\n      tag_388\n      jump\t// in\n    tag_527:\n        /* \"#utility.yul\":5458:5461   */\n      dup5\n        /* \"#utility.yul\":5454:5493   */\n      add\n        /* \"#utility.yul\":5447:5493   */\n      swap2\n      pop\n        /* \"#utility.yul\":5226:5499   */\n      pop\n        /* \"#utility.yul\":5146:5499   */\n      swap3\n      swap2\n      pop\n      pop\n      jump\t// out\n        /* \"#utility.yul\":5505:5595   */\n    tag_407:\n        /* \"#utility.yul\":5539:5546   */\n      0x00\n        /* \"#utility.yul\":5582:5587   */\n      dup2\n        /* \"#utility.yul\":5575:5588   */\n      iszero\n        /* \"#utility.yul\":5568:5589   */\n      iszero\n        /* \"#utility.yul\":5557:5589   */\n      swap1\n      pop\n        /* \"#utility.yul\":5505:5595   */\n      swap2\n      swap1\n      pop\n      jump\t// out\n        /* \"#utility.yul\":5601:5700   */\n    tag_408:\n        /* \"#utility.yul\":5672:5693   */\n      tag_530\n        /* \"#utility.yul\":5687:5692   */\n      dup2\n        /* \"#utility.yul\":5672:5693   */\n      tag_407\n      jump\t// in\n    tag_530:\n        /* \"#utility.yul\":5667:5670   */\n      dup3\n        /* \"#utility.yul\":5660:5694   */\n      mstore\n        /* \"#utility.yul\":5601:5700   */\n      pop\n      pop\n      jump\t// out\n        /* \"#utility.yul\":5780:7084   */\n    tag_409:\n        /* \"#utility.yul\":5903:5906   */\n      0x00\n        /* \"#utility.yul\":5939:5943   */\n      0xa0\n        /* \"#utility.yul\":5934:5937   */\n      dup4\n        /* \"#utility.yul\":5930:5944   */\n      add\n        /* \"#utility.yul\":6030:6034   */\n      0x00\n        /* \"#utility.yul\":6023:6028   */\n      dup4\n        /* \"#utility.yul\":6019:6035   */\n      add\n        /* \"#utility.yul\":6013:6036   */\n      mload\n        /* \"#utility.yul\":6049:6120   */\n      tag_532\n        /* \"#utility.yul\":6114:6118   */\n      0x00\n        /* \"#utility.yul\":6109:6112   */\n      dup7\n        /* \"#utility.yul\":6105:6119   */\n      add\n        /* \"#utility.yul\":6091:6103   */\n      dup3\n        /* \"#utility.yul\":6049:6120   */\n      tag_402\n      jump\t// in\n    tag_532:\n        /* \"#utility.yul\":5954:6130   */\n      pop\n        /* \"#utility.yul\":6216:6220   */\n      0x20\n        /* \"#utility.yul\":6209:6214   */\n      dup4\n        /* \"#utility.yul\":6205:6221   */\n      add\n        /* \"#utility.yul\":6199:6222   */\n      mload\n        /* \"#utility.yul\":6269:6272   */\n      dup5\n        /* \"#utility.yul\":6263:6267   */\n      dup3\n        /* \"#utility.yul\":6259:6273   */\n      sub\n        /* \"#utility.yul\":6252:6256   */\n      0x20\n        /* \"#utility.yul\":6247:6250   */\n      dup7\n        /* \"#utility.yul\":6243:6257   */\n      add\n        /* \"#utility.yul\":6236:6274   */\n      mstore\n        /* \"#utility.yul\":6295:6366   */\n      tag_533\n        /* \"#utility.yul\":6361:6365   */\n      dup3\n        /* \"#utility.yul\":6347:6359   */\n      dup3\n        /* \"#utility.yul\":6295:6366   */\n      tag_406\n      jump\t// in\n    tag_533:\n        /* \"#utility.yul\":6287:6366   */\n      swap2\n      pop\n        /* \"#utility.yul\":6140:6377   */\n      pop\n        /* \"#utility.yul\":6474:6478   */\n      0x40\n        /* \"#utility.yul\":6467:6472   */\n      dup4\n        /* \"#utility.yul\":6463:6479   */\n      add\n        /* \"#utility.yul\":6457:6480   */\n      mload\n        /* \"#utility.yul\":6527:6530   */\n      dup5\n        /* \"#utility.yul\":6521:6525   */\n      dup3\n        /* \"#utility.yul\":6517:6531   */\n      sub\n        /* \"#utility.yul\":6510:6514   */\n      0x40\n        /* \"#utility.yul\":6505:6508   */\n      dup7\n        /* \"#utility.yul\":6501:6515   */\n      add\n        /* \"#utility.yul\":6494:6532   */\n      mstore\n        /* \"#utility.yul\":6553:6624   */\n      tag_534\n        /* \"#utility.yul\":6619:6623   */\n      dup3\n        /* \"#utility.yul\":6605:6617   */\n      dup3\n        /* \"#utility.yul\":6553:6624   */\n      tag_406\n      jump\t// in\n    tag_534:\n        /* \"#utility.yul\":6545:6624   */\n      swap2\n      pop\n        /* \"#utility.yul\":6387:6635   */\n      pop\n        /* \"#utility.yul\":6722:6726   */\n      0x60\n        /* \"#utility.yul\":6715:6720   */\n      dup4\n        /* \"#utility.yul\":6711:6727   */\n      add\n        /* \"#utility.yul\":6705:6728   */\n      mload\n        /* \"#utility.yul\":6775:6778   */\n      dup5\n        /* \"#utility.yul\":6769:6773   */\n      dup3\n        /* \"#utility.yul\":6765:6779   */\n      sub\n        /* \"#utility.yul\":6758:6762   */\n      0x60\n        /* \"#utility.yul\":6753:6756   */\n      dup7\n        /* \"#utility.yul\":6749:6763   */\n      add\n        /* \"#utility.yul\":6742:6780   */\n      mstore\n        /* \"#utility.yul\":6801:6872   */\n      tag_535\n        /* \"#utility.yul\":6867:6871   */\n      dup3\n        /* \"#utility.yul\":6853:6865   */\n      dup3\n        /* \"#utility.yul\":6801:6872   */\n      tag_406\n      jump\t// in\n    tag_535:\n        /* \"#utility.yul\":6793:6872   */\n      swap2\n      pop\n        /* \"#utility.yul\":6645:6883   */\n      pop\n        /* \"#utility.yul\":6971:6975   */\n      0x80\n        /* \"#utility.yul\":6964:6969   */\n      dup4\n        /* \"#utility.yul\":6960:6976   */\n      add\n        /* \"#utility.yul\":6954:6977   */\n      mload\n        /* \"#utility.yul\":6990:7047   */\n      tag_536\n        /* \"#utility.yul\":7041:7045   */\n      0x80\n        /* \"#utility.yul\":7036:7039   */\n      dup7\n        /* \"#utility.yul\":7032:7046   */\n      add\n        /* \"#utility.yul\":7018:7030   */\n      dup3\n        /* \"#utility.yul\":6990:7047   */\n      tag_408\n      jump\t// in\n    tag_536:\n        /* \"#utility.yul\":6893:7057   */\n      pop\n        /* \"#utility.yul\":7074:7078   */\n      dup1\n        /* \"#utility.yul\":7067:7078   */\n      swap2\n      pop\n        /* \"#utility.yul\":5908:7084   */\n      pop\n        /* \"#utility.yul\":5780:7084   */\n      swap3\n      swap2\n      pop\n      pop\n      jump\t// out\n        /* \"#utility.yul\":7090:7471   */\n    tag_33:\n        /* \"#utility.yul\":7237:7241   */\n      0x00\n        /* \"#utility.yul\":7275:7277   */\n      0x20\n        /* \"#utility.yul\":7264:7273   */\n      dup3\n        /* \"#utility.yul\":7260:7278   */\n      add\n        /* \"#utility.yul\":7252:7278   */\n      swap1\n      pop\n        /* \"#utility.yul\":7324:7333   */\n      dup2\n        /* \"#utility.yul\":7318:7322   */\n      dup2\n        /* \"#utility.yul\":7314:7334   */\n      sub\n        /* \"#utility.yul\":7310:7311   */\n      0x00\n        /* \"#utility.yul\":7299:7308   */\n      dup4\n        /* \"#utility.yul\":7295:7312   */\n      add\n        /* \"#utility.yul\":7288:7335   */\n      mstore\n        /* \"#utility.yul\":7352:7464   */\n      tag_538\n        /* \"#utility.yul\":7459:7463   */\n      dup2\n        /* \"#utility.yul\":7450:7456   */\n      dup5\n        /* \"#utility.yul\":7352:7464   */\n      tag_409\n      jump\t// in\n    tag_538:\n        /* \"#utility.yul\":7344:7464   */\n      swap1\n      pop\n        /* \"#utility.yul\":7090:7471   */\n      swap3\n      swap2\n      pop\n      pop\n      jump\t// out\n        /* \"#utility.yul\":7477:7554   */\n    tag_410:\n        /* \"#utility.yul\":7514:7521   */\n      0x00\n        /* \"#utility.yul\":7543:7548   */\n      dup2\n        /* \"#utility.yul\":7532:7548   */\n      swap1\n      pop\n        /* \"#utility.yul\":7477:7554   */\n      swap2\n      swap1\n      pop\n      jump\t// out\n        /* \"#utility.yul\":7560:7682   */\n    tag_411:\n        /* \"#utility.yul\":7633:7657   */\n      tag_541\n        /* \"#utility.yul\":7651:7656   */\n      dup2\n        /* \"#utility.yul\":7633:7657   */\n      tag_410\n      jump\t// in\n    tag_541:\n        /* \"#utility.yul\":7626:7631   */\n      dup2\n        /* \"#utility.yul\":7623:7658   */\n      eq\n        /* \"#utility.yul\":7613:7676   */\n      tag_542\n      jumpi\n        /* \"#utility.yul\":7672:7673   */\n      0x00\n        /* \"#utility.yul\":7669:7670   */\n      dup1\n        /* \"#utility.yul\":7662:7674   */\n      revert\n        /* \"#utility.yul\":7613:7676   */\n    tag_542:\n        /* \"#utility.yul\":7560:7682   */\n      pop\n      jump\t// out\n        /* \"#utility.yul\":7688:7827   */\n    tag_412:\n        /* \"#utility.yul\":7734:7739   */\n      0x00\n        /* \"#utility.yul\":7772:7778   */\n      dup2\n        /* \"#utility.yul\":7759:7779   */\n      calldataload\n        /* \"#utility.yul\":7750:7779   */\n      swap1\n      pop\n        /* \"#utility.yul\":7788:7821   */\n      tag_544\n        /* \"#utility.yul\":7815:7820   */\n      dup2\n        /* \"#utility.yul\":7788:7821   */\n      tag_411\n      jump\t// in\n    tag_544:\n        /* \"#utility.yul\":7688:7827   */\n      swap3\n      swap2\n      pop\n      pop\n      jump\t// out\n        /* \"#utility.yul\":7833:8162   */\n    tag_36:\n        /* \"#utility.yul\":7892:7898   */\n      0x00\n        /* \"#utility.yul\":7941:7943   */\n      0x20\n        /* \"#utility.yul\":7929:7938   */\n      dup3\n        /* \"#utility.yul\":7920:7927   */\n      dup5\n        /* \"#utility.yul\":7916:7939   */\n      sub\n        /* \"#utility.yul\":7912:7944   */\n      slt\n        /* \"#utility.yul\":7909:8028   */\n      iszero\n      tag_546\n      jumpi\n        /* \"#utility.yul\":7947:8026   */\n      tag_547\n      tag_384\n      jump\t// in\n    tag_547:\n        /* \"#utility.yul\":7909:8028   */\n    tag_546:\n        /* \"#utility.yul\":8067:8068   */\n      0x00\n        /* \"#utility.yul\":8092:8145   */\n      tag_548\n        /* \"#utility.yul\":8137:8144   */\n      dup5\n        /* \"#utility.yul\":8128:8134   */\n      dup3\n        /* \"#utility.yul\":8117:8126   */\n      dup6\n        /* \"#utility.yul\":8113:8135   */\n      add\n        /* \"#utility.yul\":8092:8145   */\n      tag_412\n      jump\t// in\n    tag_548:\n        /* \"#utility.yul\":8082:8145   */\n      swap2\n      pop\n        /* \"#utility.yul\":8038:8155   */\n      pop\n        /* \"#utility.yul\":7833:8162   */\n      swap3\n      swap2\n      pop\n      pop\n      jump\t// out\n        /* \"#utility.yul\":8168:8286   */\n    tag_413:\n        /* \"#utility.yul\":8255:8279   */\n      tag_550\n        /* \"#utility.yul\":8273:8278   */\n      dup2\n        /* \"#utility.yul\":8255:8279   */\n      tag_396\n      jump\t// in\n    tag_550:\n        /* \"#utility.yul\":8250:8253   */\n      dup3\n        /* \"#utility.yul\":8243:8280   */\n      mstore\n        /* \"#utility.yul\":8168:8286   */\n      pop\n      pop\n      jump\t// out\n        /* \"#utility.yul\":8292:8514   */\n    tag_39:\n        /* \"#utility.yul\":8385:8389   */\n      0x00\n        /* \"#utility.yul\":8423:8425   */\n      0x20\n        /* \"#utility.yul\":8412:8421   */\n      dup3\n        /* \"#utility.yul\":8408:8426   */\n      add\n        /* \"#utility.yul\":8400:8426   */\n      swap1\n      pop\n        /* \"#utility.yul\":8436:8507   */\n      tag_552\n        /* \"#utility.yul\":8504:8505   */\n      0x00\n        /* \"#utility.yul\":8493:8502   */\n      dup4\n        /* \"#utility.yul\":8489:8506   */\n      add\n        /* \"#utility.yul\":8480:8486   */\n      dup5\n        /* \"#utility.yul\":8436:8507   */\n      tag_413\n      jump\t// in\n    tag_552:\n        /* \"#utility.yul\":8292:8514   */\n      swap3\n      swap2\n      pop\n      pop\n      jump\t// out\n        /* \"#utility.yul\":8520:8667   */\n    tag_414:\n        /* \"#utility.yul\":8615:8660   */\n      tag_554\n        /* \"#utility.yul\":8654:8659   */\n      dup2\n        /* \"#utility.yul\":8615:8660   */\n      tag_401\n      jump\t// in\n    tag_554:\n        /* \"#utility.yul\":8610:8613   */\n      dup3\n        /* \"#utility.yul\":8603:8661   */\n      mstore\n        /* \"#utility.yul\":8520:8667   */\n      pop\n      pop\n      jump\t// out\n        /* \"#utility.yul\":8673:8841   */\n    tag_415:\n        /* \"#utility.yul\":8756:8767   */\n      0x00\n        /* \"#utility.yul\":8790:8796   */\n      dup3\n        /* \"#utility.yul\":8785:8788   */\n      dup3\n        /* \"#utility.yul\":8778:8797   */\n      mstore\n        /* \"#utility.yul\":8830:8834   */\n      0x20\n        /* \"#utility.yul\":8825:8828   */\n      dup3\n        /* \"#utility.yul\":8821:8835   */\n      add\n        /* \"#utility.yul\":8806:8835   */\n      swap1\n      pop\n        /* \"#utility.yul\":8673:8841   */\n      swap3\n      swap2\n      pop\n      pop\n      jump\t// out\n        /* \"#utility.yul\":8847:9220   */\n    tag_416:\n        /* \"#utility.yul\":8933:8936   */\n      0x00\n        /* \"#utility.yul\":8961:8999   */\n      tag_557\n        /* \"#utility.yul\":8993:8998   */\n      dup3\n        /* \"#utility.yul\":8961:8999   */\n      tag_403\n      jump\t// in\n    tag_557:\n        /* \"#utility.yul\":9015:9085   */\n      tag_558\n        /* \"#utility.yul\":9078:9084   */\n      dup2\n        /* \"#utility.yul\":9073:9076   */\n      dup6\n        /* \"#utility.yul\":9015:9085   */\n      tag_415\n      jump\t// in\n    tag_558:\n        /* \"#utility.yul\":9008:9085   */\n      swap4\n      pop\n        /* \"#utility.yul\":9094:9159   */\n      tag_559\n        /* \"#utility.yul\":9152:9158   */\n      dup2\n        /* \"#utility.yul\":9147:9150   */\n      dup6\n        /* \"#utility.yul\":9140:9144   */\n      0x20\n        /* \"#utility.yul\":9133:9138   */\n      dup7\n        /* \"#utility.yul\":9129:9145   */\n      add\n        /* \"#utility.yul\":9094:9159   */\n      tag_405\n      jump\t// in\n    tag_559:\n        /* \"#utility.yul\":9184:9213   */\n      tag_560\n        /* \"#utility.yul\":9206:9212   */\n      dup2\n        /* \"#utility.yul\":9184:9213   */\n      tag_388\n      jump\t// in\n    tag_560:\n        /* \"#utility.yul\":9179:9182   */\n      dup5\n        /* \"#utility.yul\":9175:9214   */\n      add\n        /* \"#utility.yul\":9168:9214   */\n      swap2\n      pop\n        /* \"#utility.yul\":8937:9220   */\n      pop\n        /* \"#utility.yul\":8847:9220   */\n      swap3\n      swap2\n      pop\n      pop\n      jump\t// out\n        /* \"#utility.yul\":9226:9335   */\n    tag_417:\n        /* \"#utility.yul\":9307:9328   */\n      tag_562\n        /* \"#utility.yul\":9322:9327   */\n      dup2\n        /* \"#utility.yul\":9307:9328   */\n      tag_407\n      jump\t// in\n    tag_562:\n        /* \"#utility.yul\":9302:9305   */\n      dup3\n        /* \"#utility.yul\":9295:9329   */\n      mstore\n        /* \"#utility.yul\":9226:9335   */\n      pop\n      pop\n      jump\t// out\n        /* \"#utility.yul\":9341:10270   */\n    tag_48:\n        /* \"#utility.yul\":9602:9606   */\n      0x00\n        /* \"#utility.yul\":9640:9643   */\n      0xa0\n        /* \"#utility.yul\":9629:9638   */\n      dup3\n        /* \"#utility.yul\":9625:9644   */\n      add\n        /* \"#utility.yul\":9617:9644   */\n      swap1\n      pop\n        /* \"#utility.yul\":9654:9733   */\n      tag_564\n        /* \"#utility.yul\":9730:9731   */\n      0x00\n        /* \"#utility.yul\":9719:9728   */\n      dup4\n        /* \"#utility.yul\":9715:9732   */\n      add\n        /* \"#utility.yul\":9706:9712   */\n      dup9\n        /* \"#utility.yul\":9654:9733   */\n      tag_414\n      jump\t// in\n    tag_564:\n        /* \"#utility.yul\":9780:9789   */\n      dup2\n        /* \"#utility.yul\":9774:9778   */\n      dup2\n        /* \"#utility.yul\":9770:9790   */\n      sub\n        /* \"#utility.yul\":9765:9767   */\n      0x20\n        /* \"#utility.yul\":9754:9763   */\n      dup4\n        /* \"#utility.yul\":9750:9768   */\n      add\n        /* \"#utility.yul\":9743:9791   */\n      mstore\n        /* \"#utility.yul\":9808:9884   */\n      tag_565\n        /* \"#utility.yul\":9879:9883   */\n      dup2\n        /* \"#utility.yul\":9870:9876   */\n      dup8\n        /* \"#utility.yul\":9808:9884   */\n      tag_416\n      jump\t// in\n    tag_565:\n        /* \"#utility.yul\":9800:9884   */\n      swap1\n      pop\n        /* \"#utility.yul\":9931:9940   */\n      dup2\n        /* \"#utility.yul\":9925:9929   */\n      dup2\n        /* \"#utility.yul\":9921:9941   */\n      sub\n        /* \"#utility.yul\":9916:9918   */\n      0x40\n        /* \"#utility.yul\":9905:9914   */\n      dup4\n        /* \"#utility.yul\":9901:9919   */\n      add\n        /* \"#utility.yul\":9894:9942   */\n      mstore\n        /* \"#utility.yul\":9959:10035   */\n      tag_566\n        /* \"#utility.yul\":10030:10034   */\n      dup2\n        /* \"#utility.yul\":10021:10027   */\n      dup7\n        /* \"#utility.yul\":9959:10035   */\n      tag_416\n      jump\t// in\n    tag_566:\n        /* \"#utility.yul\":9951:10035   */\n      swap1\n      pop\n        /* \"#utility.yul\":10082:10091   */\n      dup2\n        /* \"#utility.yul\":10076:10080   */\n      dup2\n        /* \"#utility.yul\":10072:10092   */\n      sub\n        /* \"#utility.yul\":10067:10069   */\n      0x60\n        /* \"#utility.yul\":10056:10065   */\n      dup4\n        /* \"#utility.yul\":10052:10070   */\n      add\n        /* \"#utility.yul\":10045:10093   */\n      mstore\n        /* \"#utility.yul\":10110:10186   */\n      tag_567\n        /* \"#utility.yul\":10181:10185   */\n      dup2\n        /* \"#utility.yul\":10172:10178   */\n      dup6\n        /* \"#utility.yul\":10110:10186   */\n      tag_416\n      jump\t// in\n    tag_567:\n        /* \"#utility.yul\":10102:10186   */\n      swap1\n      pop\n        /* \"#utility.yul\":10196:10263   */\n      tag_568\n        /* \"#utility.yul\":10258:10261   */\n      0x80\n        /* \"#utility.yul\":10247:10256   */\n      dup4\n        /* \"#utility.yul\":10243:10262   */\n      add\n        /* \"#utility.yul\":10234:10240   */\n      dup5\n        /* \"#utility.yul\":10196:10263   */\n      tag_417\n      jump\t// in\n    tag_568:\n        /* \"#utility.yul\":9341:10270   */\n      swap7\n      swap6\n      pop\n      pop\n      pop\n      pop\n      pop\n      pop\n      jump\t// out\n        /* \"#utility.yul\":10276:10417   */\n    tag_418:\n        /* \"#utility.yul\":10370:10376   */\n      0x00\n        /* \"#utility.yul\":10404:10409   */\n      dup2\n        /* \"#utility.yul\":10398:10410   */\n      mload\n        /* \"#utility.yul\":10388:10410   */\n      swap1\n      pop\n        /* \"#utility.yul\":10276:10417   */\n      swap2\n      swap1\n      pop\n      jump\t// out\n        /* \"#utility.yul\":10423:10634   */\n    tag_419:\n        /* \"#utility.yul\":10549:10560   */\n      0x00\n        /* \"#utility.yul\":10583:10589   */\n      dup3\n        /* \"#utility.yul\":10578:10581   */\n      dup3\n        /* \"#utility.yul\":10571:10590   */\n      mstore\n        /* \"#utility.yul\":10623:10627   */\n      0x20\n        /* \"#utility.yul\":10618:10621   */\n      dup3\n        /* \"#utility.yul\":10614:10628   */\n      add\n        /* \"#utility.yul\":10599:10628   */\n      swap1\n      pop\n        /* \"#utility.yul\":10423:10634   */\n      swap3\n      swap2\n      pop\n      pop\n      jump\t// out\n        /* \"#utility.yul\":10640:10799   */\n    tag_420:\n        /* \"#utility.yul\":10734:10738   */\n      0x00\n        /* \"#utility.yul\":10757:10760   */\n      dup2\n        /* \"#utility.yul\":10749:10760   */\n      swap1\n      pop\n        /* \"#utility.yul\":10787:10791   */\n      0x20\n        /* \"#utility.yul\":10782:10785   */\n      dup3\n        /* \"#utility.yul\":10778:10792   */\n      add\n        /* \"#utility.yul\":10770:10792   */\n      swap1\n      pop\n        /* \"#utility.yul\":10640:10799   */\n      swap2\n      swap1\n      pop\n      jump\t// out\n        /* \"#utility.yul\":10879:12173   */\n    tag_421:\n        /* \"#utility.yul\":10992:10995   */\n      0x00\n        /* \"#utility.yul\":11028:11032   */\n      0xa0\n        /* \"#utility.yul\":11023:11026   */\n      dup4\n        /* \"#utility.yul\":11019:11033   */\n      add\n        /* \"#utility.yul\":11119:11123   */\n      0x00\n        /* \"#utility.yul\":11112:11117   */\n      dup4\n        /* \"#utility.yul\":11108:11124   */\n      add\n        /* \"#utility.yul\":11102:11125   */\n      mload\n        /* \"#utility.yul\":11138:11209   */\n      tag_573\n        /* \"#utility.yul\":11203:11207   */\n      0x00\n        /* \"#utility.yul\":11198:11201   */\n      dup7\n        /* \"#utility.yul\":11194:11208   */\n      add\n        /* \"#utility.yul\":11180:11192   */\n      dup3\n        /* \"#utility.yul\":11138:11209   */\n      tag_402\n      jump\t// in\n    tag_573:\n        /* \"#utility.yul\":11043:11219   */\n      pop\n        /* \"#utility.yul\":11305:11309   */\n      0x20\n        /* \"#utility.yul\":11298:11303   */\n      dup4\n        /* \"#utility.yul\":11294:11310   */\n      add\n        /* \"#utility.yul\":11288:11311   */\n      mload\n        /* \"#utility.yul\":11358:11361   */\n      dup5\n        /* \"#utility.yul\":11352:11356   */\n      dup3\n        /* \"#utility.yul\":11348:11362   */\n      sub\n        /* \"#utility.yul\":11341:11345   */\n      0x20\n        /* \"#utility.yul\":11336:11339   */\n      dup7\n        /* \"#utility.yul\":11332:11346   */\n      add\n        /* \"#utility.yul\":11325:11363   */\n      mstore\n        /* \"#utility.yul\":11384:11455   */\n      tag_574\n        /* \"#utility.yul\":11450:11454   */\n      dup3\n        /* \"#utility.yul\":11436:11448   */\n      dup3\n        /* \"#utility.yul\":11384:11455   */\n      tag_406\n      jump\t// in\n    tag_574:\n        /* \"#utility.yul\":11376:11455   */\n      swap2\n      pop\n        /* \"#utility.yul\":11229:11466   */\n      pop\n        /* \"#utility.yul\":11563:11567   */\n      0x40\n        /* \"#utility.yul\":11556:11561   */\n      dup4\n        /* \"#utility.yul\":11552:11568   */\n      add\n        /* \"#utility.yul\":11546:11569   */\n      mload\n        /* \"#utility.yul\":11616:11619   */\n      dup5\n        /* \"#utility.yul\":11610:11614   */\n      dup3\n        /* \"#utility.yul\":11606:11620   */\n      sub\n        /* \"#utility.yul\":11599:11603   */\n      0x40\n        /* \"#utility.yul\":11594:11597   */\n      dup7\n        /* \"#utility.yul\":11590:11604   */\n      add\n        /* \"#utility.yul\":11583:11621   */\n      mstore\n        /* \"#utility.yul\":11642:11713   */\n      tag_575\n        /* \"#utility.yul\":11708:11712   */\n      dup3\n        /* \"#utility.yul\":11694:11706   */\n      dup3\n        /* \"#utility.yul\":11642:11713   */\n      tag_406\n      jump\t// in\n    tag_575:\n        /* \"#utility.yul\":11634:11713   */\n      swap2\n      pop\n        /* \"#utility.yul\":11476:11724   */\n      pop\n        /* \"#utility.yul\":11811:11815   */\n      0x60\n        /* \"#utility.yul\":11804:11809   */\n      dup4\n        /* \"#utility.yul\":11800:11816   */\n      add\n        /* \"#utility.yul\":11794:11817   */\n      mload\n        /* \"#utility.yul\":11864:11867   */\n      dup5\n        /* \"#utility.yul\":11858:11862   */\n      dup3\n        /* \"#utility.yul\":11854:11868   */\n      sub\n        /* \"#utility.yul\":11847:11851   */\n      0x60\n        /* \"#utility.yul\":11842:11845   */\n      dup7\n        /* \"#utility.yul\":11838:11852   */\n      add\n        /* \"#utility.yul\":11831:11869   */\n      mstore\n        /* \"#utility.yul\":11890:11961   */\n      tag_576\n        /* \"#utility.yul\":11956:11960   */\n      dup3\n        /* \"#utility.yul\":11942:11954   */\n      dup3\n        /* \"#utility.yul\":11890:11961   */\n      tag_406\n      jump\t// in\n    tag_576:\n        /* \"#utility.yul\":11882:11961   */\n      swap2\n      pop\n        /* \"#utility.yul\":11734:11972   */\n      pop\n        /* \"#utility.yul\":12060:12064   */\n      0x80\n        /* \"#utility.yul\":12053:12058   */\n      dup4\n        /* \"#utility.yul\":12049:12065   */\n      add\n        /* \"#utility.yul\":12043:12066   */\n      mload\n        /* \"#utility.yul\":12079:12136   */\n      tag_577\n        /* \"#utility.yul\":12130:12134   */\n      0x80\n        /* \"#utility.yul\":12125:12128   */\n      dup7\n        /* \"#utility.yul\":12121:12135   */\n      add\n        /* \"#utility.yul\":12107:12119   */\n      dup3\n        /* \"#utility.yul\":12079:12136   */\n      tag_408\n      jump\t// in\n    tag_577:\n        /* \"#utility.yul\":11982:12146   */\n      pop\n        /* \"#utility.yul\":12163:12167   */\n      dup1\n        /* \"#utility.yul\":12156:12167   */\n      swap2\n      pop\n        /* \"#utility.yul\":10997:12173   */\n      pop\n        /* \"#utility.yul\":10879:12173   */\n      swap3\n      swap2\n      pop\n      pop\n      jump\t// out\n        /* \"#utility.yul\":12179:12443   */\n    tag_422:\n        /* \"#utility.yul\":12302:12312   */\n      0x00\n        /* \"#utility.yul\":12337:12437   */\n      tag_579\n        /* \"#utility.yul\":12433:12436   */\n      dup4\n        /* \"#utility.yul\":12425:12431   */\n      dup4\n        /* \"#utility.yul\":12337:12437   */\n      tag_421\n      jump\t// in\n    tag_579:\n        /* \"#utility.yul\":12323:12437   */\n      swap1\n      pop\n        /* \"#utility.yul\":12179:12443   */\n      swap3\n      swap2\n      pop\n      pop\n      jump\t// out\n        /* \"#utility.yul\":12449:12589   */\n    tag_423:\n        /* \"#utility.yul\":12546:12550   */\n      0x00\n        /* \"#utility.yul\":12578:12582   */\n      0x20\n        /* \"#utility.yul\":12573:12576   */\n      dup3\n        /* \"#utility.yul\":12569:12583   */\n      add\n        /* \"#utility.yul\":12561:12583   */\n      swap1\n      pop\n        /* \"#utility.yul\":12449:12589   */\n      swap2\n      swap1\n      pop\n      jump\t// out\n        /* \"#utility.yul\":12673:13800   */\n    tag_424:\n        /* \"#utility.yul\":12846:12849   */\n      0x00\n        /* \"#utility.yul\":12875:12956   */\n      tag_582\n        /* \"#utility.yul\":12950:12955   */\n      dup3\n        /* \"#utility.yul\":12875:12956   */\n      tag_418\n      jump\t// in\n    tag_582:\n        /* \"#utility.yul\":12972:13085   */\n      tag_583\n        /* \"#utility.yul\":13078:13084   */\n      dup2\n        /* \"#utility.yul\":13073:13076   */\n      dup6\n        /* \"#utility.yul\":12972:13085   */\n      tag_419\n      jump\t// in\n    tag_583:\n        /* \"#utility.yul\":12965:13085   */\n      swap4\n      pop\n        /* \"#utility.yul\":13111:13114   */\n      dup4\n        /* \"#utility.yul\":13156:13160   */\n      0x20\n        /* \"#utility.yul\":13148:13154   */\n      dup3\n        /* \"#utility.yul\":13144:13161   */\n      mul\n        /* \"#utility.yul\":13139:13142   */\n      dup6\n        /* \"#utility.yul\":13135:13162   */\n      add\n        /* \"#utility.yul\":13186:13269   */\n      tag_584\n        /* \"#utility.yul\":13263:13268   */\n      dup6\n        /* \"#utility.yul\":13186:13269   */\n      tag_420\n      jump\t// in\n    tag_584:\n        /* \"#utility.yul\":13292:13299   */\n      dup1\n        /* \"#utility.yul\":13323:13324   */\n      0x00\n        /* \"#utility.yul\":13308:13755   */\n    tag_585:\n        /* \"#utility.yul\":13333:13339   */\n      dup6\n        /* \"#utility.yul\":13330:13331   */\n      dup2\n        /* \"#utility.yul\":13327:13340   */\n      lt\n        /* \"#utility.yul\":13308:13755   */\n      iszero\n      tag_587\n      jumpi\n        /* \"#utility.yul\":13404:13413   */\n      dup5\n        /* \"#utility.yul\":13398:13402   */\n      dup5\n        /* \"#utility.yul\":13394:13414   */\n      sub\n        /* \"#utility.yul\":13389:13392   */\n      dup10\n        /* \"#utility.yul\":13382:13415   */\n      mstore\n        /* \"#utility.yul\":13455:13461   */\n      dup2\n        /* \"#utility.yul\":13449:13462   */\n      mload\n        /* \"#utility.yul\":13483:13601   */\n      tag_588\n        /* \"#utility.yul\":13596:13600   */\n      dup6\n        /* \"#utility.yul\":13581:13594   */\n      dup3\n        /* \"#utility.yul\":13483:13601   */\n      tag_422\n      jump\t// in\n    tag_588:\n        /* \"#utility.yul\":13475:13601   */\n      swap5\n      pop\n        /* \"#utility.yul\":13624:13711   */\n      tag_589\n        /* \"#utility.yul\":13704:13710   */\n      dup4\n        /* \"#utility.yul\":13624:13711   */\n      tag_423\n      jump\t// in\n    tag_589:\n        /* \"#utility.yul\":13614:13711   */\n      swap3\n      pop\n        /* \"#utility.yul\":13740:13744   */\n      0x20\n        /* \"#utility.yul\":13735:13738   */\n      dup11\n        /* \"#utility.yul\":13731:13745   */\n      add\n        /* \"#utility.yul\":13724:13745   */\n      swap10\n      pop\n        /* \"#utility.yul\":13368:13755   */\n      pop\n        /* \"#utility.yul\":13355:13356   */\n      0x01\n        /* \"#utility.yul\":13352:13353   */\n      dup2\n        /* \"#utility.yul\":13348:13357   */\n      add\n        /* \"#utility.yul\":13343:13357   */\n      swap1\n      pop\n        /* \"#utility.yul\":13308:13755   */\n      jump(tag_585)\n    tag_587:\n        /* \"#utility.yul\":13312:13326   */\n      pop\n        /* \"#utility.yul\":13771:13775   */\n      dup3\n        /* \"#utility.yul\":13764:13775   */\n      swap8\n      pop\n        /* \"#utility.yul\":13791:13794   */\n      dup8\n        /* \"#utility.yul\":13784:13794   */\n      swap6\n      pop\n        /* \"#utility.yul\":12851:13800   */\n      pop\n      pop\n      pop\n      pop\n      pop\n        /* \"#utility.yul\":12673:13800   */\n      swap3\n      swap2\n      pop\n      pop\n      jump\t// out\n        /* \"#utility.yul\":13806:14287   */\n    tag_55:\n        /* \"#utility.yul\":14003:14007   */\n      0x00\n        /* \"#utility.yul\":14041:14043   */\n      0x20\n        /* \"#utility.yul\":14030:14039   */\n      dup3\n        /* \"#utility.yul\":14026:14044   */\n      add\n        /* \"#utility.yul\":14018:14044   */\n      swap1\n      pop\n        /* \"#utility.yul\":14090:14099   */\n      dup2\n        /* \"#utility.yul\":14084:14088   */\n      dup2\n        /* \"#utility.yul\":14080:14100   */\n      sub\n        /* \"#utility.yul\":14076:14077   */\n      0x00\n        /* \"#utility.yul\":14065:14074   */\n      dup4\n        /* \"#utility.yul\":14061:14078   */\n      add\n        /* \"#utility.yul\":14054:14101   */\n      mstore\n        /* \"#utility.yul\":14118:14280   */\n      tag_591\n        /* \"#utility.yul\":14275:14279   */\n      dup2\n        /* \"#utility.yul\":14266:14272   */\n      dup5\n        /* \"#utility.yul\":14118:14280   */\n      tag_424\n      jump\t// in\n    tag_591:\n        /* \"#utility.yul\":14110:14280   */\n      swap1\n      pop\n        /* \"#utility.yul\":13806:14287   */\n      swap3\n      swap2\n      pop\n      pop\n      jump\t// out\n        /* \"#utility.yul\":14293:14402   */\n    tag_425:\n        /* \"#utility.yul\":14376:14377   */\n      0x03\n        /* \"#utility.yul\":14369:14374   */\n      dup2\n        /* \"#utility.yul\":14366:14378   */\n      lt\n        /* \"#utility.yul\":14356:14396   */\n      tag_593\n      jumpi\n        /* \"#utility.yul\":14392:14393   */\n      0x00\n        /* \"#utility.yul\":14389:14390   */\n      dup1\n        /* \"#utility.yul\":14382:14394   */\n      revert\n        /* \"#utility.yul\":14356:14396   */\n    tag_593:\n        /* \"#utility.yul\":14293:14402   */\n      pop\n      jump\t// out\n        /* \"#utility.yul\":14408:14567   */\n    tag_426:\n        /* \"#utility.yul\":14464:14469   */\n      0x00\n        /* \"#utility.yul\":14502:14508   */\n      dup2\n        /* \"#utility.yul\":14489:14509   */\n      calldataload\n        /* \"#utility.yul\":14480:14509   */\n      swap1\n      pop\n        /* \"#utility.yul\":14518:14561   */\n      tag_595\n        /* \"#utility.yul\":14555:14560   */\n      dup2\n        /* \"#utility.yul\":14518:14561   */\n      tag_425\n      jump\t// in\n    tag_595:\n        /* \"#utility.yul\":14408:14567   */\n      swap3\n      swap2\n      pop\n      pop\n      jump\t// out\n        /* \"#utility.yul\":14573:14690   */\n    tag_427:\n        /* \"#utility.yul\":14682:14683   */\n      0x00\n        /* \"#utility.yul\":14679:14680   */\n      dup1\n        /* \"#utility.yul\":14672:14684   */\n      revert\n        /* \"#utility.yul\":14696:14813   */\n    tag_428:\n        /* \"#utility.yul\":14805:14806   */\n      0x00\n        /* \"#utility.yul\":14802:14803   */\n      dup1\n        /* \"#utility.yul\":14795:14807   */\n      revert\n        /* \"#utility.yul\":14832:15384   */\n    tag_429:\n        /* \"#utility.yul\":14889:14897   */\n      0x00\n        /* \"#utility.yul\":14899:14905   */\n      dup1\n        /* \"#utility.yul\":14949:14952   */\n      dup4\n        /* \"#utility.yul\":14942:14946   */\n      0x1f\n        /* \"#utility.yul\":14934:14940   */\n      dup5\n        /* \"#utility.yul\":14930:14947   */\n      add\n        /* \"#utility.yul\":14926:14953   */\n      slt\n        /* \"#utility.yul\":14916:15038   */\n      tag_599\n      jumpi\n        /* \"#utility.yul\":14957:15036   */\n      tag_600\n      tag_386\n      jump\t// in\n    tag_600:\n        /* \"#utility.yul\":14916:15038   */\n    tag_599:\n        /* \"#utility.yul\":15070:15076   */\n      dup3\n        /* \"#utility.yul\":15057:15077   */\n      calldataload\n        /* \"#utility.yul\":15047:15077   */\n      swap1\n      pop\n        /* \"#utility.yul\":15100:15118   */\n      0xffffffffffffffff\n        /* \"#utility.yul\":15092:15098   */\n      dup2\n        /* \"#utility.yul\":15089:15119   */\n      gt\n        /* \"#utility.yul\":15086:15203   */\n      iszero\n      tag_601\n      jumpi\n        /* \"#utility.yul\":15122:15201   */\n      tag_602\n      tag_427\n      jump\t// in\n    tag_602:\n        /* \"#utility.yul\":15086:15203   */\n    tag_601:\n        /* \"#utility.yul\":15236:15240   */\n      0x20\n        /* \"#utility.yul\":15228:15234   */\n      dup4\n        /* \"#utility.yul\":15224:15241   */\n      add\n        /* \"#utility.yul\":15212:15241   */\n      swap2\n      pop\n        /* \"#utility.yul\":15290:15293   */\n      dup4\n        /* \"#utility.yul\":15282:15286   */\n      0x01\n        /* \"#utility.yul\":15274:15280   */\n      dup3\n        /* \"#utility.yul\":15270:15287   */\n      mul\n        /* \"#utility.yul\":15260:15268   */\n      dup4\n        /* \"#utility.yul\":15256:15288   */\n      add\n        /* \"#utility.yul\":15253:15294   */\n      gt\n        /* \"#utility.yul\":15250:15378   */\n      iszero\n      tag_603\n      jumpi\n        /* \"#utility.yul\":15297:15376   */\n      tag_604\n      tag_428\n      jump\t// in\n    tag_604:\n        /* \"#utility.yul\":15250:15378   */\n    tag_603:\n        /* \"#utility.yul\":14832:15384   */\n      swap3\n      pop\n      swap3\n      swap1\n      pop\n      jump\t// out\n        /* \"#utility.yul\":15390:16749   */\n    tag_62:\n        /* \"#utility.yul\":15517:15523   */\n      0x00\n        /* \"#utility.yul\":15525:15531   */\n      dup1\n        /* \"#utility.yul\":15533:15539   */\n      0x00\n        /* \"#utility.yul\":15541:15547   */\n      dup1\n        /* \"#utility.yul\":15549:15555   */\n      0x00\n        /* \"#utility.yul\":15557:15563   */\n      dup1\n        /* \"#utility.yul\":15606:15609   */\n      0x80\n        /* \"#utility.yul\":15594:15603   */\n      dup8\n        /* \"#utility.yul\":15585:15592   */\n      dup10\n        /* \"#utility.yul\":15581:15604   */\n      sub\n        /* \"#utility.yul\":15577:15610   */\n      slt\n        /* \"#utility.yul\":15574:15694   */\n      iszero\n      tag_606\n      jumpi\n        /* \"#utility.yul\":15613:15692   */\n      tag_607\n      tag_384\n      jump\t// in\n    tag_607:\n        /* \"#utility.yul\":15574:15694   */\n    tag_606:\n        /* \"#utility.yul\":15733:15734   */\n      0x00\n        /* \"#utility.yul\":15758:15821   */\n      tag_608\n        /* \"#utility.yul\":15813:15820   */\n      dup10\n        /* \"#utility.yul\":15804:15810   */\n      dup3\n        /* \"#utility.yul\":15793:15802   */\n      dup11\n        /* \"#utility.yul\":15789:15811   */\n      add\n        /* \"#utility.yul\":15758:15821   */\n      tag_426\n      jump\t// in\n    tag_608:\n        /* \"#utility.yul\":15748:15821   */\n      swap7\n      pop\n        /* \"#utility.yul\":15704:15831   */\n      pop\n        /* \"#utility.yul\":15898:15900   */\n      0x20\n        /* \"#utility.yul\":15887:15896   */\n      dup8\n        /* \"#utility.yul\":15883:15901   */\n      add\n        /* \"#utility.yul\":15870:15902   */\n      calldataload\n        /* \"#utility.yul\":15929:15947   */\n      0xffffffffffffffff\n        /* \"#utility.yul\":15921:15927   */\n      dup2\n        /* \"#utility.yul\":15918:15948   */\n      gt\n        /* \"#utility.yul\":15915:16032   */\n      iszero\n      tag_609\n      jumpi\n        /* \"#utility.yul\":15951:16030   */\n      tag_610\n      tag_385\n      jump\t// in\n    tag_610:\n        /* \"#utility.yul\":15915:16032   */\n    tag_609:\n        /* \"#utility.yul\":16064:16128   */\n      tag_611\n        /* \"#utility.yul\":16120:16127   */\n      dup10\n        /* \"#utility.yul\":16111:16117   */\n      dup3\n        /* \"#utility.yul\":16100:16109   */\n      dup11\n        /* \"#utility.yul\":16096:16118   */\n      add\n        /* \"#utility.yul\":16064:16128   */\n      tag_429\n      jump\t// in\n    tag_611:\n        /* \"#utility.yul\":16046:16128   */\n      swap6\n      pop\n      swap6\n      pop\n        /* \"#utility.yul\":15841:16138   */\n      pop\n        /* \"#utility.yul\":16205:16207   */\n      0x40\n        /* \"#utility.yul\":16194:16203   */\n      dup8\n        /* \"#utility.yul\":16190:16208   */\n      add\n        /* \"#utility.yul\":16177:16209   */\n      calldataload\n        /* \"#utility.yul\":16236:16254   */\n      0xffffffffffffffff\n        /* \"#utility.yul\":16228:16234   */\n      dup2\n        /* \"#utility.yul\":16225:16255   */\n      gt\n        /* \"#utility.yul\":16222:16339   */\n      iszero\n      tag_612\n      jumpi\n        /* \"#utility.yul\":16258:16337   */\n      tag_613\n      tag_385\n      jump\t// in\n    tag_613:\n        /* \"#utility.yul\":16222:16339   */\n    tag_612:\n        /* \"#utility.yul\":16371:16435   */\n      tag_614\n        /* \"#utility.yul\":16427:16434   */\n      dup10\n        /* \"#utility.yul\":16418:16424   */\n      dup3\n        /* \"#utility.yul\":16407:16416   */\n      dup11\n        /* \"#utility.yul\":16403:16425   */\n      add\n        /* \"#utility.yul\":16371:16435   */\n      tag_429\n      jump\t// in\n    tag_614:\n        /* \"#utility.yul\":16353:16435   */\n      swap4\n      pop\n      swap4\n      pop\n        /* \"#utility.yul\":16148:16445   */\n      pop\n        /* \"#utility.yul\":16512:16514   */\n      0x60\n        /* \"#utility.yul\":16501:16510   */\n      dup8\n        /* \"#utility.yul\":16497:16515   */\n      add\n        /* \"#utility.yul\":16484:16516   */\n      calldataload\n        /* \"#utility.yul\":16543:16561   */\n      0xffffffffffffffff\n        /* \"#utility.yul\":16535:16541   */\n      dup2\n        /* \"#utility.yul\":16532:16562   */\n      gt\n        /* \"#utility.yul\":16529:16646   */\n      iszero\n      tag_615\n      jumpi\n        /* \"#utility.yul\":16565:16644   */\n      tag_616\n      tag_385\n      jump\t// in\n    tag_616:\n        /* \"#utility.yul\":16529:16646   */\n    tag_615:\n        /* \"#utility.yul\":16670:16732   */\n      tag_617\n        /* \"#utility.yul\":16724:16731   */\n      dup10\n        /* \"#utility.yul\":16715:16721   */\n      dup3\n        /* \"#utility.yul\":16704:16713   */\n      dup11\n        /* \"#utility.yul\":16700:16722   */\n      add\n        /* \"#utility.yul\":16670:16732   */\n      tag_394\n      jump\t// in\n    tag_617:\n        /* \"#utility.yul\":16660:16732   */\n      swap2\n      pop\n        /* \"#utility.yul\":16455:16742   */\n      pop\n        /* \"#utility.yul\":15390:16749   */\n      swap3\n      swap6\n      pop\n      swap3\n      swap6\n      pop\n      swap3\n      swap6\n      jump\t// out\n        /* \"#utility.yul\":16755:16869   */\n    tag_430:\n        /* \"#utility.yul\":16822:16828   */\n      0x00\n        /* \"#utility.yul\":16856:16861   */\n      dup2\n        /* \"#utility.yul\":16850:16862   */\n      mload\n        /* \"#utility.yul\":16840:16862   */\n      swap1\n      pop\n        /* \"#utility.yul\":16755:16869   */\n      swap2\n      swap1\n      pop\n      jump\t// out\n        /* \"#utility.yul\":16875:17059   */\n    tag_431:\n        /* \"#utility.yul\":16974:16985   */\n      0x00\n        /* \"#utility.yul\":17008:17014   */\n      dup3\n        /* \"#utility.yul\":17003:17006   */\n      dup3\n        /* \"#utility.yul\":16996:17015   */\n      mstore\n        /* \"#utility.yul\":17048:17052   */\n      0x20\n        /* \"#utility.yul\":17043:17046   */\n      dup3\n        /* \"#utility.yul\":17039:17053   */\n      add\n        /* \"#utility.yul\":17024:17053   */\n      swap1\n      pop\n        /* \"#utility.yul\":16875:17059   */\n      swap3\n      swap2\n      pop\n      pop\n      jump\t// out\n        /* \"#utility.yul\":17065:17197   */\n    tag_432:\n        /* \"#utility.yul\":17132:17136   */\n      0x00\n        /* \"#utility.yul\":17155:17158   */\n      dup2\n        /* \"#utility.yul\":17147:17158   */\n      swap1\n      pop\n        /* \"#utility.yul\":17185:17189   */\n      0x20\n        /* \"#utility.yul\":17180:17183   */\n      dup3\n        /* \"#utility.yul\":17176:17190   */\n      add\n        /* \"#utility.yul\":17168:17190   */\n      swap1\n      pop\n        /* \"#utility.yul\":17065:17197   */\n      swap2\n      swap1\n      pop\n      jump\t// out\n        /* \"#utility.yul\":17203:17311   */\n    tag_433:\n        /* \"#utility.yul\":17280:17304   */\n      tag_622\n        /* \"#utility.yul\":17298:17303   */\n      dup2\n        /* \"#utility.yul\":17280:17304   */\n      tag_396\n      jump\t// in\n    tag_622:\n        /* \"#utility.yul\":17275:17278   */\n      dup3\n        /* \"#utility.yul\":17268:17305   */\n      mstore\n        /* \"#utility.yul\":17203:17311   */\n      pop\n      pop\n      jump\t// out\n        /* \"#utility.yul\":17317:17496   */\n    tag_434:\n        /* \"#utility.yul\":17386:17396   */\n      0x00\n        /* \"#utility.yul\":17407:17453   */\n      tag_624\n        /* \"#utility.yul\":17449:17452   */\n      dup4\n        /* \"#utility.yul\":17441:17447   */\n      dup4\n        /* \"#utility.yul\":17407:17453   */\n      tag_433\n      jump\t// in\n    tag_624:\n        /* \"#utility.yul\":17485:17489   */\n      0x20\n        /* \"#utility.yul\":17480:17483   */\n      dup4\n        /* \"#utility.yul\":17476:17490   */\n      add\n        /* \"#utility.yul\":17462:17490   */\n      swap1\n      pop\n        /* \"#utility.yul\":17317:17496   */\n      swap3\n      swap2\n      pop\n      pop\n      jump\t// out\n        /* \"#utility.yul\":17502:17615   */\n    tag_435:\n        /* \"#utility.yul\":17572:17576   */\n      0x00\n        /* \"#utility.yul\":17604:17608   */\n      0x20\n        /* \"#utility.yul\":17599:17602   */\n      dup3\n        /* \"#utility.yul\":17595:17609   */\n      add\n        /* \"#utility.yul\":17587:17609   */\n      swap1\n      pop\n        /* \"#utility.yul\":17502:17615   */\n      swap2\n      swap1\n      pop\n      jump\t// out\n        /* \"#utility.yul\":17651:18383   */\n    tag_436:\n        /* \"#utility.yul\":17770:17773   */\n      0x00\n        /* \"#utility.yul\":17799:17853   */\n      tag_627\n        /* \"#utility.yul\":17847:17852   */\n      dup3\n        /* \"#utility.yul\":17799:17853   */\n      tag_430\n      jump\t// in\n    tag_627:\n        /* \"#utility.yul\":17869:17955   */\n      tag_628\n        /* \"#utility.yul\":17948:17954   */\n      dup2\n        /* \"#utility.yul\":17943:17946   */\n      dup6\n        /* \"#utility.yul\":17869:17955   */\n      tag_431\n      jump\t// in\n    tag_628:\n        /* \"#utility.yul\":17862:17955   */\n      swap4\n      pop\n        /* \"#utility.yul\":17979:18035   */\n      tag_629\n        /* \"#utility.yul\":18029:18034   */\n      dup4\n        /* \"#utility.yul\":17979:18035   */\n      tag_432\n      jump\t// in\n    tag_629:\n        /* \"#utility.yul\":18058:18065   */\n      dup1\n        /* \"#utility.yul\":18089:18090   */\n      0x00\n        /* \"#utility.yul\":18074:18358   */\n    tag_630:\n        /* \"#utility.yul\":18099:18105   */\n      dup4\n        /* \"#utility.yul\":18096:18097   */\n      dup2\n        /* \"#utility.yul\":18093:18106   */\n      lt\n        /* \"#utility.yul\":18074:18358   */\n      iszero\n      tag_632\n      jumpi\n        /* \"#utility.yul\":18175:18181   */\n      dup2\n        /* \"#utility.yul\":18169:18182   */\n      mload\n        /* \"#utility.yul\":18202:18265   */\n      tag_633\n        /* \"#utility.yul\":18261:18264   */\n      dup9\n        /* \"#utility.yul\":18246:18259   */\n      dup3\n        /* \"#utility.yul\":18202:18265   */\n      tag_434\n      jump\t// in\n    tag_633:\n        /* \"#utility.yul\":18195:18265   */\n      swap8\n      pop\n        /* \"#utility.yul\":18288:18348   */\n      tag_634\n        /* \"#utility.yul\":18341:18347   */\n      dup4\n        /* \"#utility.yul\":18288:18348   */\n      tag_435\n      jump\t// in\n    tag_634:\n        /* \"#utility.yul\":18278:18348   */\n      swap3\n      pop\n        /* \"#utility.yul\":18134:18358   */\n      pop\n        /* \"#utility.yul\":18121:18122   */\n      0x01\n        /* \"#utility.yul\":18118:18119   */\n      dup2\n        /* \"#utility.yul\":18114:18123   */\n      add\n        /* \"#utility.yul\":18109:18123   */\n      swap1\n      pop\n        /* \"#utility.yul\":18074:18358   */\n      jump(tag_630)\n    tag_632:\n        /* \"#utility.yul\":18078:18092   */\n      pop\n        /* \"#utility.yul\":18374:18377   */\n      dup6\n        /* \"#utility.yul\":18367:18377   */\n      swap4\n      pop\n        /* \"#utility.yul\":17775:18383   */\n      pop\n      pop\n      pop\n        /* \"#utility.yul\":17651:18383   */\n      swap3\n      swap2\n      pop\n      pop\n      jump\t// out\n        /* \"#utility.yul\":18389:19131   */\n    tag_67:\n        /* \"#utility.yul\":18664:18668   */\n      0x00\n        /* \"#utility.yul\":18702:18704   */\n      0x40\n        /* \"#utility.yul\":18691:18700   */\n      dup3\n        /* \"#utility.yul\":18687:18705   */\n      add\n        /* \"#utility.yul\":18679:18705   */\n      swap1\n      pop\n        /* \"#utility.yul\":18751:18760   */\n      dup2\n        /* \"#utility.yul\":18745:18749   */\n      dup2\n        /* \"#utility.yul\":18741:18761   */\n      sub\n        /* \"#utility.yul\":18737:18738   */\n      0x00\n        /* \"#utility.yul\":18726:18735   */\n      dup4\n        /* \"#utility.yul\":18722:18739   */\n      add\n        /* \"#utility.yul\":18715:18762   */\n      mstore\n        /* \"#utility.yul\":18779:18887   */\n      tag_636\n        /* \"#utility.yul\":18882:18886   */\n      dup2\n        /* \"#utility.yul\":18873:18879   */\n      dup6\n        /* \"#utility.yul\":18779:18887   */\n      tag_436\n      jump\t// in\n    tag_636:\n        /* \"#utility.yul\":18771:18887   */\n      swap1\n      pop\n        /* \"#utility.yul\":18934:18943   */\n      dup2\n        /* \"#utility.yul\":18928:18932   */\n      dup2\n        /* \"#utility.yul\":18924:18944   */\n      sub\n        /* \"#utility.yul\":18919:18921   */\n      0x20\n        /* \"#utility.yul\":18908:18917   */\n      dup4\n        /* \"#utility.yul\":18904:18922   */\n      add\n        /* \"#utility.yul\":18897:18945   */\n      mstore\n        /* \"#utility.yul\":18962:19124   */\n      tag_637\n        /* \"#utility.yul\":19119:19123   */\n      dup2\n        /* \"#utility.yul\":19110:19116   */\n      dup5\n        /* \"#utility.yul\":18962:19124   */\n      tag_424\n      jump\t// in\n    tag_637:\n        /* \"#utility.yul\":18954:19124   */\n      swap1\n      pop\n        /* \"#utility.yul\":18389:19131   */\n      swap4\n      swap3\n      pop\n      pop\n      pop\n      jump\t// out\n        /* \"#utility.yul\":19137:19510   */\n    tag_71:\n        /* \"#utility.yul\":19280:19284   */\n      0x00\n        /* \"#utility.yul\":19318:19320   */\n      0x20\n        /* \"#utility.yul\":19307:19316   */\n      dup3\n        /* \"#utility.yul\":19303:19321   */\n      add\n        /* \"#utility.yul\":19295:19321   */\n      swap1\n      pop\n        /* \"#utility.yul\":19367:19376   */\n      dup2\n        /* \"#utility.yul\":19361:19365   */\n      dup2\n        /* \"#utility.yul\":19357:19377   */\n      sub\n        /* \"#utility.yul\":19353:19354   */\n      0x00\n        /* \"#utility.yul\":19342:19351   */\n      dup4\n        /* \"#utility.yul\":19338:19355   */\n      add\n        /* \"#utility.yul\":19331:19378   */\n      mstore\n        /* \"#utility.yul\":19395:19503   */\n      tag_639\n        /* \"#utility.yul\":19498:19502   */\n      dup2\n        /* \"#utility.yul\":19489:19495   */\n      dup5\n        /* \"#utility.yul\":19395:19503   */\n      tag_436\n      jump\t// in\n    tag_639:\n        /* \"#utility.yul\":19387:19503   */\n      swap1\n      pop\n        /* \"#utility.yul\":19137:19510   */\n      swap3\n      swap2\n      pop\n      pop\n      jump\t// out\n        /* \"#utility.yul\":19516:19696   */\n    tag_437:\n        /* \"#utility.yul\":19564:19641   */\n      0x4e487b7100000000000000000000000000000000000000000000000000000000\n        /* \"#utility.yul\":19561:19562   */\n      0x00\n        /* \"#utility.yul\":19554:19642   */\n      mstore\n        /* \"#utility.yul\":19661:19665   */\n      0x22\n        /* \"#utility.yul\":19658:19659   */\n      0x04\n        /* \"#utility.yul\":19651:19666   */\n      mstore\n        /* \"#utility.yul\":19685:19689   */\n      0x24\n        /* \"#utility.yul\":19682:19683   */\n      0x00\n        /* \"#utility.yul\":19675:19690   */\n      revert\n        /* \"#utility.yul\":19702:20022   */\n    tag_95:\n        /* \"#utility.yul\":19746:19752   */\n      0x00\n        /* \"#utility.yul\":19783:19784   */\n      0x02\n        /* \"#utility.yul\":19777:19781   */\n      dup3\n        /* \"#utility.yul\":19773:19785   */\n      div\n        /* \"#utility.yul\":19763:19785   */\n      swap1\n      pop\n        /* \"#utility.yul\":19830:19831   */\n      0x01\n        /* \"#utility.yul\":19824:19828   */\n      dup3\n        /* \"#utility.yul\":19820:19832   */\n      and\n        /* \"#utility.yul\":19851:19869   */\n      dup1\n        /* \"#utility.yul\":19841:19922   */\n      tag_642\n      jumpi\n        /* \"#utility.yul\":19907:19911   */\n      0x7f\n        /* \"#utility.yul\":19899:19905   */\n      dup3\n        /* \"#utility.yul\":19895:19912   */\n      and\n        /* \"#utility.yul\":19885:19912   */\n      swap2\n      pop\n        /* \"#utility.yul\":19841:19922   */\n    tag_642:\n        /* \"#utility.yul\":19969:19971   */\n      0x20\n        /* \"#utility.yul\":19961:19967   */\n      dup3\n        /* \"#utility.yul\":19958:19972   */\n      lt\n        /* \"#utility.yul\":19938:19956   */\n      dup2\n        /* \"#utility.yul\":19935:19973   */\n      sub\n        /* \"#utility.yul\":19932:20016   */\n      tag_643\n      jumpi\n        /* \"#utility.yul\":19988:20006   */\n      tag_644\n      tag_437\n      jump\t// in\n    tag_644:\n        /* \"#utility.yul\":19932:20016   */\n    tag_643:\n        /* \"#utility.yul\":19753:20022   */\n      pop\n        /* \"#utility.yul\":19702:20022   */\n      swap2\n      swap1\n      pop\n      jump\t// out\n        /* \"#utility.yul\":20028:20168   */\n    tag_438:\n        /* \"#utility.yul\":20076:20080   */\n      0x00\n        /* \"#utility.yul\":20099:20102   */\n      dup2\n        /* \"#utility.yul\":20091:20102   */\n      swap1\n      pop\n        /* \"#utility.yul\":20122:20125   */\n      dup2\n        /* \"#utility.yul\":20119:20120   */\n      0x00\n        /* \"#utility.yul\":20112:20126   */\n      mstore\n        /* \"#utility.yul\":20156:20160   */\n      0x20\n        /* \"#utility.yul\":20153:20154   */\n      0x00\n        /* \"#utility.yul\":20143:20161   */\n      keccak256\n        /* \"#utility.yul\":20135:20161   */\n      swap1\n      pop\n        /* \"#utility.yul\":20028:20168   */\n      swap2\n      swap1\n      pop\n      jump\t// out\n        /* \"#utility.yul\":20174:20267   */\n    tag_439:\n        /* \"#utility.yul\":20211:20217   */\n      0x00\n        /* \"#utility.yul\":20258:20260   */\n      0x20\n        /* \"#utility.yul\":20253:20255   */\n      0x1f\n        /* \"#utility.yul\":20246:20251   */\n      dup4\n        /* \"#utility.yul\":20242:20256   */\n      add\n        /* \"#utility.yul\":20238:20261   */\n      div\n        /* \"#utility.yul\":20228:20261   */\n      swap1\n      pop\n        /* \"#utility.yul\":20174:20267   */\n      swap2\n      swap1\n      pop\n      jump\t// out\n        /* \"#utility.yul\":20273:20380   */\n    tag_440:\n        /* \"#utility.yul\":20317:20325   */\n      0x00\n        /* \"#utility.yul\":20367:20372   */\n      dup3\n        /* \"#utility.yul\":20361:20365   */\n      dup3\n        /* \"#utility.yul\":20357:20373   */\n      shl\n        /* \"#utility.yul\":20336:20373   */\n      swap1\n      pop\n        /* \"#utility.yul\":20273:20380   */\n      swap3\n      swap2\n      pop\n      pop\n      jump\t// out\n        /* \"#utility.yul\":20386:20779   */\n    tag_441:\n        /* \"#utility.yul\":20455:20461   */\n      0x00\n        /* \"#utility.yul\":20505:20506   */\n      0x08\n        /* \"#utility.yul\":20493:20503   */\n      dup4\n        /* \"#utility.yul\":20489:20507   */\n      mul\n        /* \"#utility.yul\":20528:20625   */\n      tag_649\n        /* \"#utility.yul\":20558:20624   */\n      0xffffffffffffffffffffffffffffffffffffffffffffffffffffffffffffffff\n        /* \"#utility.yul\":20547:20556   */\n      dup3\n        /* \"#utility.yul\":20528:20625   */\n      tag_440\n      jump\t// in\n    tag_649:\n        /* \"#utility.yul\":20646:20685   */\n      tag_650\n        /* \"#utility.yul\":20676:20684   */\n      dup7\n        /* \"#utility.yul\":20665:20674   */\n      dup4\n        /* \"#utility.yul\":20646:20685   */\n      tag_440\n      jump\t// in\n    tag_650:\n        /* \"#utility.yul\":20634:20685   */\n      swap6\n      pop\n        /* \"#utility.yul\":20718:20722   */\n      dup1\n        /* \"#utility.yul\":20714:20723   */\n      not\n        /* \"#utility.yul\":20707:20712   */\n      dup5\n        /* \"#utility.yul\":20703:20724   */\n      and\n        /* \"#utility.yul\":20694:20724   */\n      swap4\n      pop\n        /* \"#utility.yul\":20767:20771   */\n      dup1\n        /* \"#utility.yul\":20757:20765   */\n      dup7\n        /* \"#utility.yul\":20753:20772   */\n      and\n        /* \"#utility.yul\":20746:20751   */\n      dup5\n        /* \"#utility.yul\":20743:20773   */\n      or\n        /* \"#utility.yul\":20733:20773   */\n      swap3\n      pop\n        /* \"#utility.yul\":20462:20779   */\n      pop\n      pop\n        /* \"#utility.yul\":20386:20779   */\n      swap4\n      swap3\n      pop\n      pop\n      pop\n      jump\t// out\n        /* \"#utility.yul\":20785:20845   */\n    tag_442:\n        /* \"#utility.yul\":20813:20816   */\n      0x00\n        /* \"#utility.yul\":20834:20839   */\n      dup2\n        /* \"#utility.yul\":20827:20839   */\n      swap1\n      pop\n        /* \"#utility.yul\":20785:20845   */\n      swap2\n      swap1\n      pop\n      jump\t// out\n        /* \"#utility.yul\":20851:20993   */\n    tag_443:\n        /* \"#utility.yul\":20901:20910   */\n      0x00\n        /* \"#utility.yul\":20934:20987   */\n      tag_653\n        /* \"#utility.yul\":20952:20986   */\n      tag_654\n        /* \"#utility.yul\":20961:20985   */\n      tag_655\n        /* \"#utility.yul\":20979:20984   */\n      dup5\n        /* \"#utility.yul\":20961:20985   */\n      tag_410\n      jump\t// in\n    tag_655:\n        /* \"#utility.yul\":20952:20986   */\n      tag_442\n      jump\t// in\n    tag_654:\n        /* \"#utility.yul\":20934:20987   */\n      tag_410\n      jump\t// in\n    tag_653:\n        /* \"#utility.yul\":20921:20987   */\n      swap1\n      pop\n        /* \"#utility.yul\":20851:20993   */\n      swap2\n      swap1\n      pop\n      jump\t// out\n        /* \"#utility.yul\":20999:21074   */\n    tag_444:\n        /* \"#utility.yul\":21042:21045   */\n      0x00\n        /* \"#utility.yul\":21063:21068   */\n      dup2\n        /* \"#utility.yul\":21056:21068   */\n      swap1\n      pop\n        /* \"#utility.yul\":20999:21074   */\n      swap2\n      swap1\n      pop\n      jump\t// out\n        /* \"#utility.yul\":21080:21349   */\n    tag_445:\n        /* \"#utility.yul\":21190:21229   */\n      tag_658\n        /* \"#utility.yul\":21221:21228   */\n      dup4\n        /* \"#utility.yul\":21190:21229   */\n      tag_443\n      jump\t// in\n    tag_658:\n        /* \"#utility.yul\":21251:21342   */\n      tag_659\n        /* \"#utility.yul\":21300:21341   */\n      tag_660\n        /* \"#utility.yul\":21324:21340   */\n      dup3\n        /* \"#utility.yul\":21300:21341   */\n      tag_444\n      jump\t// in\n    tag_660:\n        /* \"#utility.yul\":21292:21298   */\n      dup5\n        /* \"#utility.yul\":21285:21289   */\n      dup5\n        /* \"#utility.yul\":21279:21290   */\n      sload\n        /* \"#utility.yul\":21251:21342   */\n      tag_441\n      jump\t// in\n    tag_659:\n        /* \"#utility.yul\":21245:21249   */\n      dup3\n        /* \"#utility.yul\":21238:21343   */\n      sstore\n        /* \"#utility.yul\":21156:21349   */\n      pop\n        /* \"#utility.yul\":21080:21349   */\n      pop\n      pop\n      pop\n      jump\t// out\n        /* \"#utility.yul\":21355:21428   */\n    tag_446:\n        /* \"#utility.yul\":21400:21403   */\n      0x00\n        /* \"#utility.yul\":21355:21428   */\n      swap1\n      jump\t// out\n        /* \"#utility.yul\":21434:21623   */\n    tag_447:\n        /* \"#utility.yul\":21511:21543   */\n      tag_663\n      tag_446\n      jump\t// in\n    tag_663:\n        /* \"#utility.yul\":21552:21617   */\n      tag_664\n        /* \"#utility.yul\":21610:21616   */\n      dup2\n        /* \"#utility.yul\":21602:21608   */\n      dup5\n        /* \"#utility.yul\":21596:21600   */\n      dup5\n        /* \"#utility.yul\":21552:21617   */\n      tag_445\n      jump\t// in\n    tag_664:\n        /* \"#utility.yul\":21487:21623   */\n      pop\n        /* \"#utility.yul\":21434:21623   */\n      pop\n      pop\n      jump\t// out\n        /* \"#utility.yul\":21629:21815   */\n    tag_448:\n        /* \"#utility.yul\":21689:21809   */\n    tag_666:\n        /* \"#utility.yul\":21706:21709   */\n      dup2\n        /* \"#utility.yul\":21699:21704   */\n      dup2\n        /* \"#utility.yul\":21696:21710   */\n      lt\n        /* \"#utility.yul\":21689:21809   */\n      iszero\n      tag_668\n      jumpi\n        /* \"#utility.yul\":21760:21799   */\n      tag_669\n        /* \"#utility.yul\":21797:21798   */\n      0x00\n        /* \"#utility.yul\":21790:21795   */\n      dup3\n        /* \"#utility.yul\":21760:21799   */\n      tag_447\n      jump\t// in\n    tag_669:\n        /* \"#utility.yul\":21733:21734   */\n      0x01\n        /* \"#utility.yul\":21726:21731   */\n      dup2\n        /* \"#utility.yul\":21722:21735   */\n      add\n        /* \"#utility.yul\":21713:21735   */\n      swap1\n      pop\n        /* \"#utility.yul\":21689:21809   */\n      jump(tag_666)\n    tag_668:\n        /* \"#utility.yul\":21629:21815   */\n      pop\n      pop\n      jump\t// out\n        /* \"#utility.yul\":21821:22362   */\n    tag_449:\n        /* \"#utility.yul\":21921:21923   */\n      0x1f\n        /* \"#utility.yul\":21916:21919   */\n      dup3\n        /* \"#utility.yul\":21913:21924   */\n      gt\n        /* \"#utility.yul\":21910:22355   */\n      iszero\n      tag_671\n      jumpi\n        /* \"#utility.yul\":21955:21992   */\n      tag_672\n        /* \"#utility.yul\":21986:21991   */\n      dup2\n        /* \"#utility.yul\":21955:21992   */\n      tag_438\n      jump\t// in\n    tag_672:\n        /* \"#utility.yul\":22038:22067   */\n      tag_673\n        /* \"#utility.yul\":22056:22066   */\n      dup5\n        /* \"#utility.yul\":22038:22067   */\n      tag_439\n      jump\t// in\n    tag_673:\n        /* \"#utility.yul\":22028:22036   */\n      dup2\n        /* \"#utility.yul\":22024:22068   */\n      add\n        /* \"#utility.yul\":22221:22223   */\n      0x20\n        /* \"#utility.yul\":22209:22219   */\n      dup6\n        /* \"#utility.yul\":22206:22224   */\n      lt\n        /* \"#utility.yul\":22203:22252   */\n      iszero\n      tag_674\n      jumpi\n        /* \"#utility.yul\":22242:22250   */\n      dup2\n        /* \"#utility.yul\":22227:22250   */\n      swap1\n      pop\n        /* \"#utility.yul\":22203:22252   */\n    tag_674:\n        /* \"#utility.yul\":22265:22345   */\n      tag_675\n        /* \"#utility.yul\":22321:22343   */\n      tag_676\n        /* \"#utility.yul\":22339:22342   */\n      dup6\n        /* \"#utility.yul\":22321:22343   */\n      tag_439\n      jump\t// in\n    tag_676:\n        /* \"#utility.yul\":22311:22319   */\n      dup4\n        /* \"#utility.yul\":22307:22344   */\n      add\n        /* \"#utility.yul\":22294:22305   */\n      dup3\n        /* \"#utility.yul\":22265:22345   */\n      tag_448\n      jump\t// in\n    tag_675:\n        /* \"#utility.yul\":21925:22355   */\n      pop\n      pop\n        /* \"#utility.yul\":21910:22355   */\n    tag_671:\n        /* \"#utility.yul\":21821:22362   */\n      pop\n      pop\n      pop\n      jump\t// out\n        /* \"#utility.yul\":22368:22485   */\n    tag_450:\n        /* \"#utility.yul\":22422:22430   */\n      0x00\n        /* \"#utility.yul\":22472:22477   */\n      dup3\n        /* \"#utility.yul\":22466:22470   */\n      dup3\n        /* \"#utility.yul\":22462:22478   */\n      shr\n        /* \"#utility.yul\":22441:22478   */\n      swap1\n      pop\n        /* \"#utility.yul\":22368:22485   */\n      swap3\n      swap2\n      pop\n      pop\n      jump\t// out\n        /* \"#utility.yul\":22491:22660   */\n    tag_451:\n        /* \"#utility.yul\":22535:22541   */\n      0x00\n        /* \"#utility.yul\":22568:22619   */\n      tag_679\n        /* \"#utility.yul\":22616:22617   */\n      0x00\n        /* \"#utility.yul\":22612:22618   */\n      not\n        /* \"#utility.yul\":22604:22609   */\n      dup5\n        /* \"#utility.yul\":22601:22602   */\n      0x08\n        /* \"#utility.yul\":22597:22610   */\n      mul\n        /* \"#utility.yul\":22568:22619   */\n      tag_450\n      jump\t// in\n    tag_679:\n        /* \"#utility.yul\":22564:22620   */\n      not\n        /* \"#utility.yul\":22649:22653   */\n      dup1\n        /* \"#utility.yul\":22643:22647   */\n      dup4\n        /* \"#utility.yul\":22639:22654   */\n      and\n        /* \"#utility.yul\":22629:22654   */\n      swap2\n      pop\n        /* \"#utility.yul\":22542:22660   */\n      pop\n        /* \"#utility.yul\":22491:22660   */\n      swap3\n      swap2\n      pop\n      pop\n      jump\t// out\n        /* \"#utility.yul\":22665:22960   */\n    tag_452:\n        /* \"#utility.yul\":22741:22745   */\n      0x00\n        /* \"#utility.yul\":22887:22916   */\n      tag_681\n        /* \"#utility.yul\":22912:22915   */\n      dup4\n        /* \"#utility.yul\":22906:22910   */\n      dup4\n        /* \"#utility.yul\":22887:22916   */\n      tag_451\n      jump\t// in\n    tag_681:\n        /* \"#utility.yul\":22879:22916   */\n      swap2\n      pop\n        /* \"#utility.yul\":22949:22952   */\n      dup3\n        /* \"#utility.yul\":22946:22947   */\n      0x02\n        /* \"#utility.yul\":22942:22953   */\n      mul\n        /* \"#utility.yul\":22936:22940   */\n      dup3\n        /* \"#utility.yul\":22933:22954   */\n      or\n        /* \"#utility.yul\":22925:22954   */\n      swap1\n      pop\n        /* \"#utility.yul\":22665:22960   */\n      swap3\n      swap2\n      pop\n      pop\n      jump\t// out\n        /* \"#utility.yul\":22965:24355   */\n    tag_88:\n        /* \"#utility.yul\":23080:23116   */\n      tag_683\n        /* \"#utility.yul\":23112:23115   */\n      dup3\n        /* \"#utility.yul\":23080:23116   */\n      tag_403\n      jump\t// in\n    tag_683:\n        /* \"#utility.yul\":23181:23199   */\n      0xffffffffffffffff\n        /* \"#utility.yul\":23173:23179   */\n      dup2\n        /* \"#utility.yul\":23170:23200   */\n      gt\n        /* \"#utility.yul\":23167:23223   */\n      iszero\n      tag_684\n      jumpi\n        /* \"#utility.yul\":23203:23221   */\n      tag_685\n      tag_178\n      jump\t// in\n    tag_685:\n        /* \"#utility.yul\":23167:23223   */\n    tag_684:\n        /* \"#utility.yul\":23247:23285   */\n      tag_686\n        /* \"#utility.yul\":23279:23283   */\n      dup3\n        /* \"#utility.yul\":23273:23284   */\n      sload\n        /* \"#utility.yul\":23247:23285   */\n      tag_95\n      jump\t// in\n    tag_686:\n        /* \"#utility.yul\":23332:23398   */\n      tag_687\n        /* \"#utility.yul\":23391:23397   */\n      dup3\n        /* \"#utility.yul\":23383:23389   */\n      dup3\n        /* \"#utility.yul\":23377:23381   */\n      dup6\n        /* \"#utility.yul\":23332:23398   */\n      tag_449\n      jump\t// in\n    tag_687:\n        /* \"#utility.yul\":23425:23426   */\n      0x00\n        /* \"#utility.yul\":23449:23453   */\n      0x20\n        /* \"#utility.yul\":23436:23453   */\n      swap1\n      pop\n        /* \"#utility.yul\":23481:23483   */\n      0x1f\n        /* \"#utility.yul\":23473:23479   */\n      dup4\n        /* \"#utility.yul\":23470:23484   */\n      gt\n        /* \"#utility.yul\":23498:23499   */\n      0x01\n        /* \"#utility.yul\":23493:24110   */\n      dup2\n      eq\n      tag_689\n      jumpi\n        /* \"#utility.yul\":24154:24155   */\n      0x00\n        /* \"#utility.yul\":24171:24177   */\n      dup5\n        /* \"#utility.yul\":24168:24245   */\n      iszero\n      tag_690\n      jumpi\n        /* \"#utility.yul\":24220:24229   */\n      dup3\n        /* \"#utility.yul\":24215:24218   */\n      dup8\n        /* \"#utility.yul\":24211:24230   */\n      add\n        /* \"#utility.yul\":24205:24231   */\n      mload\n        /* \"#utility.yul\":24196:24231   */\n      swap1\n      pop\n        /* \"#utility.yul\":24168:24245   */\n    tag_690:\n        /* \"#utility.yul\":24271:24338   */\n      tag_691\n        /* \"#utility.yul\":24331:24337   */\n      dup6\n        /* \"#utility.yul\":24324:24329   */\n      dup3\n        /* \"#utility.yul\":24271:24338   */\n      tag_452\n      jump\t// in\n    tag_691:\n        /* \"#utility.yul\":24265:24269   */\n      dup7\n        /* \"#utility.yul\":24258:24339   */\n      sstore\n        /* \"#utility.yul\":24127:24349   */\n      pop\n        /* \"#utility.yul\":23463:24349   */\n      jump(tag_688)\n        /* \"#utility.yul\":23493:24110   */\n    tag_689:\n        /* \"#utility.yul\":23545:23549   */\n      0x1f\n        /* \"#utility.yul\":23541:23550   */\n      not\n        /* \"#utility.yul\":23533:23539   */\n      dup5\n        /* \"#utility.yul\":23529:23551   */\n      and\n        /* \"#utility.yul\":23579:23615   */\n      tag_692\n        /* \"#utility.yul\":23610:23614   */\n      dup7\n        /* \"#utility.yul\":23579:23615   */\n      tag_438\n      jump\t// in\n    tag_692:\n        /* \"#utility.yul\":23637:23638   */\n      0x00\n        /* \"#utility.yul\":23651:23859   */\n    tag_693:\n        /* \"#utility.yul\":23665:23672   */\n      dup3\n        /* \"#utility.yul\":23662:23663   */\n      dup2\n        /* \"#utility.yul\":23659:23673   */\n      lt\n        /* \"#utility.yul\":23651:23859   */\n      iszero\n      tag_695\n      jumpi\n        /* \"#utility.yul\":23744:23753   */\n      dup5\n        /* \"#utility.yul\":23739:23742   */\n      dup10\n        /* \"#utility.yul\":23735:23754   */\n      add\n        /* \"#utility.yul\":23729:23755   */\n      mload\n        /* \"#utility.yul\":23721:23727   */\n      dup3\n        /* \"#utility.yul\":23714:23756   */\n      sstore\n        /* \"#utility.yul\":23795:23796   */\n      0x01\n        /* \"#utility.yul\":23787:23793   */\n      dup3\n        /* \"#utility.yul\":23783:23797   */\n      add\n        /* \"#utility.yul\":23773:23797   */\n      swap2\n      pop\n        /* \"#utility.yul\":23842:23844   */\n      0x20\n        /* \"#utility.yul\":23831:23840   */\n      dup6\n        /* \"#utility.yul\":23827:23845   */\n      add\n        /* \"#utility.yul\":23814:23845   */\n      swap5\n      pop\n        /* \"#utility.yul\":23688:23692   */\n      0x20\n        /* \"#utility.yul\":23685:23686   */\n      dup2\n        /* \"#utility.yul\":23681:23693   */\n      add\n        /* \"#utility.yul\":23676:23693   */\n      swap1\n      pop\n        /* \"#utility.yul\":23651:23859   */\n      jump(tag_693)\n    tag_695:\n        /* \"#utility.yul\":23887:23893   */\n      dup7\n        /* \"#utility.yul\":23878:23885   */\n      dup4\n        /* \"#utility.yul\":23875:23894   */\n      lt\n        /* \"#utility.yul\":23872:24051   */\n      iszero\n      tag_696\n      jumpi\n        /* \"#utility.yul\":23945:23954   */\n      dup5\n        /* \"#utility.yul\":23940:23943   */\n      dup10\n        /* \"#utility.yul\":23936:23955   */\n      add\n        /* \"#utility.yul\":23930:23956   */\n      mload\n        /* \"#utility.yul\":23988:24036   */\n      tag_697\n        /* \"#utility.yul\":24030:24034   */\n      0x1f\n        /* \"#utility.yul\":24022:24028   */\n      dup10\n        /* \"#utility.yul\":24018:24035   */\n      and\n        /* \"#utility.yul\":24007:24016   */\n      dup3\n        /* \"#utility.yul\":23988:24036   */\n      tag_451\n      jump\t// in\n    tag_697:\n        /* \"#utility.yul\":23980:23986   */\n      dup4\n        /* \"#utility.yul\":23973:24037   */\n      sstore\n        /* \"#utility.yul\":23895:24051   */\n      pop\n        /* \"#utility.yul\":23872:24051   */\n    tag_696:\n        /* \"#utility.yul\":24097:24098   */\n      0x01\n        /* \"#utility.yul\":24093:24094   */\n      0x02\n        /* \"#utility.yul\":24085:24091   */\n      dup9\n        /* \"#utility.yul\":24081:24095   */\n      mul\n        /* \"#utility.yul\":24077:24099   */\n      add\n        /* \"#utility.yul\":24071:24075   */\n      dup9\n        /* \"#utility.yul\":24064:24100   */\n      sstore\n        /* \"#utility.yul\":23500:24110   */\n      pop\n      pop\n      pop\n        /* \"#utility.yul\":23463:24349   */\n    tag_688:\n      pop\n        /* \"#utility.yul\":23055:24355   */\n      pop\n      pop\n      pop\n        /* \"#utility.yul\":22965:24355   */\n      pop\n      pop\n      jump\t// out\n        /* \"#utility.yul\":24361:24479   */\n    tag_453:\n        /* \"#utility.yul\":24448:24472   */\n      tag_699\n        /* \"#utility.yul\":24466:24471   */\n      dup2\n        /* \"#utility.yul\":24448:24472   */\n      tag_410\n      jump\t// in\n    tag_699:\n        /* \"#utility.yul\":24443:24446   */\n      dup3\n        /* \"#utility.yul\":24436:24473   */\n      mstore\n        /* \"#utility.yul\":24361:24479   */\n      pop\n      pop\n      jump\t// out\n        /* \"#utility.yul\":24485:25426   */\n    tag_111:\n        /* \"#utility.yul\":24752:24756   */\n      0x00\n        /* \"#utility.yul\":24790:24793   */\n      0xa0\n        /* \"#utility.yul\":24779:24788   */\n      dup3\n        /* \"#utility.yul\":24775:24794   */\n      add\n        /* \"#utility.yul\":24767:24794   */\n      swap1\n      pop\n        /* \"#utility.yul\":24804:24883   */\n      tag_701\n        /* \"#utility.yul\":24880:24881   */\n      0x00\n        /* \"#utility.yul\":24869:24878   */\n      dup4\n        /* \"#utility.yul\":24865:24882   */\n      add\n        /* \"#utility.yul\":24856:24862   */\n      dup9\n        /* \"#utility.yul\":24804:24883   */\n      tag_414\n      jump\t// in\n    tag_701:\n        /* \"#utility.yul\":24930:24939   */\n      dup2\n        /* \"#utility.yul\":24924:24928   */\n      dup2\n        /* \"#utility.yul\":24920:24940   */\n      sub\n        /* \"#utility.yul\":24915:24917   */\n      0x20\n        /* \"#utility.yul\":24904:24913   */\n      dup4\n        /* \"#utility.yul\":24900:24918   */\n      add\n        /* \"#utility.yul\":24893:24941   */\n      mstore\n        /* \"#utility.yul\":24958:25034   */\n      tag_702\n        /* \"#utility.yul\":25029:25033   */\n      dup2\n        /* \"#utility.yul\":25020:25026   */\n      dup8\n        /* \"#utility.yul\":24958:25034   */\n      tag_416\n      jump\t// in\n    tag_702:\n        /* \"#utility.yul\":24950:25034   */\n      swap1\n      pop\n        /* \"#utility.yul\":25081:25090   */\n      dup2\n        /* \"#utility.yul\":25075:25079   */\n      dup2\n        /* \"#utility.yul\":25071:25091   */\n      sub\n        /* \"#utility.yul\":25066:25068   */\n      0x40\n        /* \"#utility.yul\":25055:25064   */\n      dup4\n        /* \"#utility.yul\":25051:25069   */\n      add\n        /* \"#utility.yul\":25044:25092   */\n      mstore\n        /* \"#utility.yul\":25109:25185   */\n      tag_703\n        /* \"#utility.yul\":25180:25184   */\n      dup2\n        /* \"#utility.yul\":25171:25177   */\n      dup7\n        /* \"#utility.yul\":25109:25185   */\n      tag_416\n      jump\t// in\n    tag_703:\n        /* \"#utility.yul\":25101:25185   */\n      swap1\n      pop\n        /* \"#utility.yul\":25232:25241   */\n      dup2\n        /* \"#utility.yul\":25226:25230   */\n      dup2\n        /* \"#utility.yul\":25222:25242   */\n      sub\n        /* \"#utility.yul\":25217:25219   */\n      0x60\n        /* \"#utility.yul\":25206:25215   */\n      dup4\n        /* \"#utility.yul\":25202:25220   */\n      add\n        /* \"#utility.yul\":25195:25243   */\n      mstore\n        /* \"#utility.yul\":25260:25336   */\n      tag_704\n        /* \"#utility.yul\":25331:25335   */\n      dup2\n        /* \"#utility.yul\":25322:25328   */\n      dup6\n        /* \"#utility.yul\":25260:25336   */\n      tag_416\n      jump\t// in\n    tag_704:\n        /* \"#utility.yul\":25252:25336   */\n      swap1\n      pop\n        /* \"#utility.yul\":25346:25419   */\n      tag_705\n        /* \"#utility.yul\":25414:25417   */\n      0x80\n        /* \"#utility.yul\":25403:25412   */\n      dup4\n        /* \"#utility.yul\":25399:25418   */\n      add\n        /* \"#utility.yul\":25390:25396   */\n      dup5\n        /* \"#utility.yul\":25346:25419   */\n      tag_453\n      jump\t// in\n    tag_705:\n        /* \"#utility.yul\":24485:25426   */\n      swap7\n      swap6\n      pop\n      pop\n      pop\n      pop\n      pop\n      pop\n      jump\t// out\n        /* \"#utility.yul\":25432:25612   */\n    tag_187:\n        /* \"#utility.yul\":25480:25557   */\n      0x4e487b7100000000000000000000000000000000000000000000000000000000\n        /* \"#utility.yul\":25477:25478   */\n      0x00\n        /* \"#utility.yul\":25470:25558   */\n      mstore\n        /* \"#utility.yul\":25577:25581   */\n      0x32\n        /* \"#utility.yul\":25574:25575   */\n      0x04\n        /* \"#utility.yul\":25567:25582   */\n      mstore\n        /* \"#utility.yul\":25601:25605   */\n      0x24\n        /* \"#utility.yul\":25598:25599   */\n      0x00\n        /* \"#utility.yul\":25591:25606   */\n      revert\n        /* \"#utility.yul\":25618:25798   */\n    tag_454:\n        /* \"#utility.yul\":25666:25743   */\n      0x4e487b7100000000000000000000000000000000000000000000000000000000\n        /* \"#utility.yul\":25663:25664   */\n      0x00\n        /* \"#utility.yul\":25656:25744   */\n      mstore\n        /* \"#utility.yul\":25763:25767   */\n      0x11\n        /* \"#utility.yul\":25760:25761   */\n      0x04\n        /* \"#utility.yul\":25753:25768   */\n      mstore\n        /* \"#utility.yul\":25787:25791   */\n      0x24\n        /* \"#utility.yul\":25784:25785   */\n      0x00\n        /* \"#utility.yul\":25777:25792   */\n      revert\n        /* \"#utility.yul\":25804:26037   */\n    tag_211:\n        /* \"#utility.yul\":25843:25846   */\n      0x00\n        /* \"#utility.yul\":25866:25890   */\n      tag_709\n        /* \"#utility.yul\":25884:25889   */\n      dup3\n        /* \"#utility.yul\":25866:25890   */\n      tag_410\n      jump\t// in\n    tag_709:\n        /* \"#utility.yul\":25857:25890   */\n      swap2\n      pop\n        /* \"#utility.yul\":25912:25978   */\n      0xffffffffffffffffffffffffffffffffffffffffffffffffffffffffffffffff\n        /* \"#utility.yul\":25905:25910   */\n      dup3\n        /* \"#utility.yul\":25902:25979   */\n      sub\n        /* \"#utility.yul\":25899:26002   */\n      tag_710\n      jumpi\n        /* \"#utility.yul\":25982:26000   */\n      tag_711\n      tag_454\n      jump\t// in\n    tag_711:\n        /* \"#utility.yul\":25899:26002   */\n    tag_710:\n        /* \"#utility.yul\":26029:26030   */\n      0x01\n        /* \"#utility.yul\":26022:26027   */\n      dup3\n        /* \"#utility.yul\":26018:26031   */\n      add\n        /* \"#utility.yul\":26011:26031   */\n      swap1\n      pop\n        /* \"#utility.yul\":25804:26037   */\n      swap2\n      swap1\n      pop\n      jump\t// out\n        /* \"#utility.yul\":26043:26212   */\n    tag_455:\n        /* \"#utility.yul\":26127:26138   */\n      0x00\n        /* \"#utility.yul\":26161:26167   */\n      dup3\n        /* \"#utility.yul\":26156:26159   */\n      dup3\n        /* \"#utility.yul\":26149:26168   */\n      mstore\n        /* \"#utility.yul\":26201:26205   */\n      0x20\n        /* \"#utility.yul\":26196:26199   */\n      dup3\n        /* \"#utility.yul\":26192:26206   */\n      add\n        /* \"#utility.yul\":26177:26206   */\n      swap1\n      pop\n        /* \"#utility.yul\":26043:26212   */\n      swap3\n      swap2\n      pop\n      pop\n      jump\t// out\n        /* \"#utility.yul\":26218:26391   */\n    tag_456:\n        /* \"#utility.yul\":26358:26383   */\n      0x5573657220616c72656164792072656769737465726564000000000000000000\n        /* \"#utility.yul\":26354:26355   */\n      0x00\n        /* \"#utility.yul\":26346:26352   */\n      dup3\n        /* \"#utility.yul\":26342:26356   */\n      add\n        /* \"#utility.yul\":26335:26384   */\n      mstore\n        /* \"#utility.yul\":26218:26391   */\n      pop\n      jump\t// out\n        /* \"#utility.yul\":26397:26763   */\n    tag_457:\n        /* \"#utility.yul\":26539:26542   */\n      0x00\n        /* \"#utility.yul\":26560:26627   */\n      tag_715\n        /* \"#utility.yul\":26624:26626   */\n      0x17\n        /* \"#utility.yul\":26619:26622   */\n      dup4\n        /* \"#utility.yul\":26560:26627   */\n      tag_455\n      jump\t// in\n    tag_715:\n        /* \"#utility.yul\":26553:26627   */\n      swap2\n      pop\n        /* \"#utility.yul\":26636:26729   */\n      tag_716\n        /* \"#utility.yul\":26725:26728   */\n      dup3\n        /* \"#utility.yul\":26636:26729   */\n      tag_456\n      jump\t// in\n    tag_716:\n        /* \"#utility.yul\":26754:26756   */\n      0x20\n        /* \"#utility.yul\":26749:26752   */\n      dup3\n        /* \"#utility.yul\":26745:26757   */\n      add\n        /* \"#utility.yul\":26738:26757   */\n      swap1\n      pop\n        /* \"#utility.yul\":26397:26763   */\n      swap2\n      swap1\n      pop\n      jump\t// out\n        /* \"#utility.yul\":26769:27188   */\n    tag_218:\n        /* \"#utility.yul\":26935:26939   */\n      0x00\n        /* \"#utility.yul\":26973:26975   */\n      0x20\n        /* \"#utility.yul\":26962:26971   */\n      dup3\n        /* \"#utility.yul\":26958:26976   */\n      add\n        /* \"#utility.yul\":26950:26976   */\n      swap1\n      pop\n        /* \"#utility.yul\":27022:27031   */\n      dup2\n        /* \"#utility.yul\":27016:27020   */\n      dup2\n        /* \"#utility.yul\":27012:27032   */\n      sub\n        /* \"#utility.yul\":27008:27009   */\n      0x00\n        /* \"#utility.yul\":26997:27006   */\n      dup4\n        /* \"#utility.yul\":26993:27010   */\n      add\n        /* \"#utility.yul\":26986:27033   */\n      mstore\n        /* \"#utility.yul\":27050:27181   */\n      tag_718\n        /* \"#utility.yul\":27176:27180   */\n      dup2\n        /* \"#utility.yul\":27050:27181   */\n      tag_457\n      jump\t// in\n    tag_718:\n        /* \"#utility.yul\":27042:27181   */\n      swap1\n      pop\n        /* \"#utility.yul\":26769:27188   */\n      swap2\n      swap1\n      pop\n      jump\t// out\n        /* \"#utility.yul\":27216:27530   */\n    tag_458:\n        /* \"#utility.yul\":27312:27315   */\n      0x00\n        /* \"#utility.yul\":27333:27403   */\n      tag_720\n        /* \"#utility.yul\":27396:27402   */\n      dup4\n        /* \"#utility.yul\":27391:27394   */\n      dup6\n        /* \"#utility.yul\":27333:27403   */\n      tag_415\n      jump\t// in\n    tag_720:\n        /* \"#utility.yul\":27326:27403   */\n      swap4\n      pop\n        /* \"#utility.yul\":27413:27469   */\n      tag_721\n        /* \"#utility.yul\":27462:27468   */\n      dup4\n        /* \"#utility.yul\":27457:27460   */\n      dup6\n        /* \"#utility.yul\":27450:27455   */\n      dup5\n        /* \"#utility.yul\":27413:27469   */\n      tag_392\n      jump\t// in\n    tag_721:\n        /* \"#utility.yul\":27494:27523   */\n      tag_722\n        /* \"#utility.yul\":27516:27522   */\n      dup4\n        /* \"#utility.yul\":27494:27523   */\n      tag_388\n      jump\t// in\n    tag_722:\n        /* \"#utility.yul\":27489:27492   */\n      dup5\n        /* \"#utility.yul\":27485:27524   */\n      add\n        /* \"#utility.yul\":27478:27524   */\n      swap1\n      pop\n        /* \"#utility.yul\":27216:27530   */\n      swap4\n      swap3\n      pop\n      pop\n      pop\n      jump\t// out\n        /* \"#utility.yul\":27536:28517   */\n    tag_246:\n        /* \"#utility.yul\":27823:27827   */\n      0x00\n        /* \"#utility.yul\":27861:27864   */\n      0xa0\n        /* \"#utility.yul\":27850:27859   */\n      dup3\n        /* \"#utility.yul\":27846:27865   */\n      add\n        /* \"#utility.yul\":27838:27865   */\n      swap1\n      pop\n        /* \"#utility.yul\":27875:27954   */\n      tag_724\n        /* \"#utility.yul\":27951:27952   */\n      0x00\n        /* \"#utility.yul\":27940:27949   */\n      dup4\n        /* \"#utility.yul\":27936:27953   */\n      add\n        /* \"#utility.yul\":27927:27933   */\n      dup11\n        /* \"#utility.yul\":27875:27954   */\n      tag_414\n      jump\t// in\n    tag_724:\n        /* \"#utility.yul\":28001:28010   */\n      dup2\n        /* \"#utility.yul\":27995:27999   */\n      dup2\n        /* \"#utility.yul\":27991:28011   */\n      sub\n        /* \"#utility.yul\":27986:27988   */\n      0x20\n        /* \"#utility.yul\":27975:27984   */\n      dup4\n        /* \"#utility.yul\":27971:27989   */\n      add\n        /* \"#utility.yul\":27964:28012   */\n      mstore\n        /* \"#utility.yul\":28029:28115   */\n      tag_725\n        /* \"#utility.yul\":28110:28114   */\n      dup2\n        /* \"#utility.yul\":28101:28107   */\n      dup9\n        /* \"#utility.yul\":28093:28099   */\n      dup11\n        /* \"#utility.yul\":28029:28115   */\n      tag_458\n      jump\t// in\n    tag_725:\n        /* \"#utility.yul\":28021:28115   */\n      swap1\n      pop\n        /* \"#utility.yul\":28162:28171   */\n      dup2\n        /* \"#utility.yul\":28156:28160   */\n      dup2\n        /* \"#utility.yul\":28152:28172   */\n      sub\n        /* \"#utility.yul\":28147:28149   */\n      0x40\n        /* \"#utility.yul\":28136:28145   */\n      dup4\n        /* \"#utility.yul\":28132:28150   */\n      add\n        /* \"#utility.yul\":28125:28173   */\n      mstore\n        /* \"#utility.yul\":28190:28276   */\n      tag_726\n        /* \"#utility.yul\":28271:28275   */\n      dup2\n        /* \"#utility.yul\":28262:28268   */\n      dup7\n        /* \"#utility.yul\":28254:28260   */\n      dup9\n        /* \"#utility.yul\":28190:28276   */\n      tag_458\n      jump\t// in\n    tag_726:\n        /* \"#utility.yul\":28182:28276   */\n      swap1\n      pop\n        /* \"#utility.yul\":28323:28332   */\n      dup2\n        /* \"#utility.yul\":28317:28321   */\n      dup2\n        /* \"#utility.yul\":28313:28333   */\n      sub\n        /* \"#utility.yul\":28308:28310   */\n      0x60\n        /* \"#utility.yul\":28297:28306   */\n      dup4\n        /* \"#utility.yul\":28293:28311   */\n      add\n        /* \"#utility.yul\":28286:28334   */\n      mstore\n        /* \"#utility.yul\":28351:28427   */\n      tag_727\n        /* \"#utility.yul\":28422:28426   */\n      dup2\n        /* \"#utility.yul\":28413:28419   */\n      dup6\n        /* \"#utility.yul\":28351:28427   */\n      tag_416\n      jump\t// in\n    tag_727:\n        /* \"#utility.yul\":28343:28427   */\n      swap1\n      pop\n        /* \"#utility.yul\":28437:28510   */\n      tag_728\n        /* \"#utility.yul\":28505:28508   */\n      0x80\n        /* \"#utility.yul\":28494:28503   */\n      dup4\n        /* \"#utility.yul\":28490:28509   */\n      add\n        /* \"#utility.yul\":28481:28487   */\n      dup5\n        /* \"#utility.yul\":28437:28510   */\n      tag_453\n      jump\t// in\n    tag_728:\n        /* \"#utility.yul\":27536:28517   */\n      swap9\n      swap8\n      pop\n      pop\n      pop\n      pop\n      pop\n      pop\n      pop\n      pop\n      jump\t// out\n\n    auxdata: 0xa2646970667358221220d14cc7746935b6303c11be63d9c840f396562be94bf610e4ceaa31aede884ea564736f6c63430008130033\n}\n",
				"bytecode": {
					"linkReferences": {},
					"object": "608060405234801561001057600080fd5b506133a5806100206000396000f3fe608060405234801561001057600080fd5b50600436106101005760003560e01c806390175af111610097578063cea2312111610066578063cea23121146102b2578063d1bab143146102e2578063ddba07a4146102fe578063e2842d791461031c57610100565b806390175af1146102295780639ae7d00814610259578063b53305dc14610275578063c7bbd67e1461029457610100565b806350b492ba116100d357806350b492ba1461018b5780635166608f146101bb5780636a26d064146101ef5780638e24c34b1461020b57610100565b8063026ff05e146101055780630c6c92ba1461010f578063358525411461012b578063365b98b21461015b575b600080fd5b61010d61033a565b005b610129600480360381019061012491906126af565b6103d9565b005b61014560048036038101906101409190612756565b6106e7565b6040516101529190612918565b60405180910390f35b61017560048036038101906101709190612970565b61094b565b60405161018291906129ac565b60405180910390f35b6101a560048036038101906101a09190612970565b61098a565b6040516101b291906129ac565b60405180910390f35b6101d560048036038101906101d09190612756565b6109c9565b6040516101e6959493929190612a2f565b60405180910390f35b610209600480360381019061020491906126af565b610bb1565b005b610213610ebf565b6040516102209190612bdd565b60405180910390f35b610243600480360381019061023e9190612970565b6111fa565b60405161025091906129ac565b60405180910390f35b610273600480360381019061026e9190612c84565b611239565b005b61027d6116d4565b60405161028b929190612e05565b60405180910390f35b61029c611ac1565b6040516102a99190612e3c565b60405180910390f35b6102cc60048036038101906102c79190612970565b611b4f565b6040516102d991906129ac565b60405180910390f35b6102fc60048036038101906102f791906126af565b611b8e565b005b610306611e9c565b6040516103139190612bdd565b60405180910390f35b6103246121d7565b6040516103319190612bdd565b60405180910390f35b60008060003373ffffffffffffffffffffffffffffffffffffffff1673ffffffffffffffffffffffffffffffffffffffff16815260200190815260200160002060040160006101000a81548160ff0219169083151502179055503373ffffffffffffffffffffffffffffffffffffffff167f5db32fb34ad07587763cb39a6a4e3e11627af9bb8b3754c2734c1e7c107c0b5b60405160405180910390a2565b806000803373ffffffffffffffffffffffffffffffffffffffff1673ffffffffffffffffffffffffffffffffffffffff1681526020019081526020016000206001019081610427919061306a565b5060008060003373ffffffffffffffffffffffffffffffffffffffff1673ffffffffffffffffffffffffffffffffffffffff1681526020019081526020016000206040518060a00160405290816000820160009054906101000a900460ff16600281111561049857610497612783565b5b60028111156104aa576104a9612783565b5b81526020016001820180546104be90612e8d565b80601f01602080910402602001604051908101604052809291908181526020018280546104ea90612e8d565b80156105375780601f1061050c57610100808354040283529160200191610537565b820191906000526020600020905b81548152906001019060200180831161051a57829003601f168201915b5050505050815260200160028201805461055090612e8d565b80601f016020809104026020016040519081016040528092919081815260200182805461057c90612e8d565b80156105c95780601f1061059e576101008083540402835291602001916105c9565b820191906000526020600020905b8154815290600101906020018083116105ac57829003601f168201915b505050505081526020016003820180546105e290612e8d565b80601f016020809104026020016040519081016040528092919081815260200182805461060e90612e8d565b801561065b5780601f106106305761010080835404028352916020019161065b565b820191906000526020600020905b81548152906001019060200180831161063e57829003601f168201915b505050505081526020016004820160009054906101000a900460ff16151515158152505090503373ffffffffffffffffffffffffffffffffffffffff167fe49f40f57c43bcc0ea51de08718dcc45efb3325fb9d155e76c2a5ab33be2de1682600001518484604001518560600151426040516106db95949392919061314b565b60405180910390a25050565b6106ef612512565b6000808373ffffffffffffffffffffffffffffffffffffffff1673ffffffffffffffffffffffffffffffffffffffff1681526020019081526020016000206040518060a00160405290816000820160009054906101000a900460ff16600281111561075d5761075c612783565b5b600281111561076f5761076e612783565b5b815260200160018201805461078390612e8d565b80601f01602080910402602001604051908101604052809291908181526020018280546107af90612e8d565b80156107fc5780601f106107d1576101008083540402835291602001916107fc565b820191906000526020600020905b8154815290600101906020018083116107df57829003601f168201915b5050505050815260200160028201805461081590612e8d565b80601f016020809104026020016040519081016040528092919081815260200182805461084190612e8d565b801561088e5780601f106108635761010080835404028352916020019161088e565b820191906000526020600020905b81548152906001019060200180831161087157829003601f168201915b505050505081526020016003820180546108a790612e8d565b80601f01602080910402602001604051908101604052809291908181526020018280546108d390612e8d565b80156109205780601f106108f557610100808354040283529160200191610920565b820191906000526020600020905b81548152906001019060200180831161090357829003601f168201915b505050505081526020016004820160009054906101000a900460ff1615151515815250509050919050565b6001818154811061095b57600080fd5b906000526020600020016000915054906101000a900473ffffffffffffffffffffffffffffffffffffffff1681565b6004818154811061099a57600080fd5b906000526020600020016000915054906101000a900473ffffffffffffffffffffffffffffffffffffffff1681565b60006020528060005260406000206000915090508060000160009054906101000a900460ff16908060010180546109ff90612e8d565b80601f0160208091040260200160405190810160405280929190818152602001828054610a2b90612e8d565b8015610a785780601f10610a4d57610100808354040283529160200191610a78565b820191906000526020600020905b815481529060010190602001808311610a5b57829003601f168201915b505050505090806002018054610a8d90612e8d565b80601f0160208091040260200160405190810160405280929190818152602001828054610ab990612e8d565b8015610b065780601f10610adb57610100808354040283529160200191610b06565b820191906000526020600020905b815481529060010190602001808311610ae957829003601f168201915b505050505090806003018054610b1b90612e8d565b80601f0160208091040260200160405190810160405280929190818152602001828054610b4790612e8d565b8015610b945780601f10610b6957610100808354040283529160200191610b94565b820191906000526020600020905b815481529060010190602001808311610b7757829003601f168201915b5050505050908060040160009054906101000a900460ff16905085565b806000803373ffffffffffffffffffffffffffffffffffffffff1673ffffffffffffffffffffffffffffffffffffffff1681526020019081526020016000206002019081610bff919061306a565b5060008060003373ffffffffffffffffffffffffffffffffffffffff1673ffffffffffffffffffffffffffffffffffffffff1681526020019081526020016000206040518060a00160405290816000820160009054906101000a900460ff166002811115610c7057610c6f612783565b5b6002811115610c8257610c81612783565b5b8152602001600182018054610c9690612e8d565b80601f0160208091040260200160405190810160405280929190818152602001828054610cc290612e8d565b8015610d0f5780601f10610ce457610100808354040283529160200191610d0f565b820191906000526020600020905b815481529060010190602001808311610cf257829003601f168201915b50505050508152602001600282018054610d2890612e8d565b80601f0160208091040260200160405190810160405280929190818152602001828054610d5490612e8d565b8015610da15780601f10610d7657610100808354040283529160200191610da1565b820191906000526020600020905b815481529060010190602001808311610d8457829003601f168201915b50505050508152602001600382018054610dba90612e8d565b80601f0160208091040260200160405190810160405280929190818152602001828054610de690612e8d565b8015610e335780601f10610e0857610100808354040283529160200191610e33565b820191906000526020600020905b815481529060010190602001808311610e1657829003601f168201915b505050505081526020016004820160009054906101000a900460ff16151515158152505090503373ffffffffffffffffffffffffffffffffffffffff167fe49f40f57c43bcc0ea51de08718dcc45efb3325fb9d155e76c2a5ab33be2de168260000151836020015185856060015142604051610eb395949392919061314b565b60405180910390a25050565b6060600060048054905067ffffffffffffffff811115610ee257610ee1612584565b5b604051908082528060200260200182016040528015610f1b57816020015b610f08612512565b815260200190600190039081610f005790505b50905060005b6004805490508110156111f25760008060048381548110610f4557610f446131b3565b5b9060005260206000200160009054906101000a900473ffffffffffffffffffffffffffffffffffffffff1673ffffffffffffffffffffffffffffffffffffffff1673ffffffffffffffffffffffffffffffffffffffff1681526020019081526020016000206040518060a00160405290816000820160009054906101000a900460ff166002811115610fda57610fd9612783565b5b6002811115610fec57610feb612783565b5b815260200160018201805461100090612e8d565b80601f016020809104026020016040519081016040528092919081815260200182805461102c90612e8d565b80156110795780601f1061104e57610100808354040283529160200191611079565b820191906000526020600020905b81548152906001019060200180831161105c57829003601f168201915b5050505050815260200160028201805461109290612e8d565b80601f01602080910402602001604051908101604052809291908181526020018280546110be90612e8d565b801561110b5780601f106110e05761010080835404028352916020019161110b565b820191906000526020600020905b8154815290600101906020018083116110ee57829003601f168201915b5050505050815260200160038201805461112490612e8d565b80601f016020809104026020016040519081016040528092919081815260200182805461115090612e8d565b801561119d5780601f106111725761010080835404028352916020019161119d565b820191906000526020600020905b81548152906001019060200180831161118057829003601f168201915b505050505081526020016004820160009054906101000a900460ff1615151515815250508282815181106111d4576111d36131b3565b5b602002602001018190525080806111ea90613211565b915050610f21565b508091505090565b6003818154811061120a57600080fd5b906000526020600020016000915054906101000a900473ffffffffffffffffffffffffffffffffffffffff1681565b60008060003373ffffffffffffffffffffffffffffffffffffffff1673ffffffffffffffffffffffffffffffffffffffff168152602001908152602001600020600101805461128790612e8d565b9050146112c9576040517f08c379a00000000000000000000000000000000000000000000000000000000081526004016112c0906132b6565b60405180910390fd5b6040518060a001604052808760028111156112e7576112e6612783565b5b815260200186868080601f016020809104026020016040519081016040528093929190818152602001838380828437600081840152601f19601f82011690508083019250505050505050815260200184848080601f016020809104026020016040519081016040528093929190818152602001838380828437600081840152601f19601f820116905080830192505050505050508152602001828152602001600115158152506000803373ffffffffffffffffffffffffffffffffffffffff1673ffffffffffffffffffffffffffffffffffffffff16815260200190815260200160002060008201518160000160006101000a81548160ff021916908360028111156113f6576113f5612783565b5b02179055506020820151816001019081611410919061306a565b506040820151816002019081611426919061306a565b50606082015181600301908161143c919061306a565b5060808201518160040160006101000a81548160ff0219169083151502179055509050506001339080600181540180825580915050600190039060005260206000200160009091909190916101000a81548173ffffffffffffffffffffffffffffffffffffffff021916908373ffffffffffffffffffffffffffffffffffffffff160217905550600060028111156114d7576114d6612783565b5b8660028111156114ea576114e9612783565b5b03611553576002339080600181540180825580915050600190039060005260206000200160009091909190916101000a81548173ffffffffffffffffffffffffffffffffffffffff021916908373ffffffffffffffffffffffffffffffffffffffff1602179055505b6001600281111561156757611566612783565b5b86600281111561157a57611579612783565b5b036115e3576003339080600181540180825580915050600190039060005260206000200160009091909190916101000a81548173ffffffffffffffffffffffffffffffffffffffff021916908373ffffffffffffffffffffffffffffffffffffffff1602179055505b6002808111156115f6576115f5612783565b5b86600281111561160957611608612783565b5b03611672576004339080600181540180825580915050600190039060005260206000200160009091909190916101000a81548173ffffffffffffffffffffffffffffffffffffffff021916908373ffffffffffffffffffffffffffffffffffffffff1602179055505b3373ffffffffffffffffffffffffffffffffffffffff167fe49f40f57c43bcc0ea51de08718dcc45efb3325fb9d155e76c2a5ab33be2de16878787878787426040516116c49796959493929190613303565b60405180910390a2505050505050565b606080600060028054905067ffffffffffffffff8111156116f8576116f7612584565b5b6040519080825280602002602001820160405280156117265781602001602082028036833780820191505090505b509050600060028054905067ffffffffffffffff81111561174a57611749612584565b5b60405190808252806020026020018201604052801561178357816020015b611770612512565b8152602001906001900390816117685790505b50905060005b600280549050811015611ab4576000600282815481106117ac576117ab6131b3565b5b9060005260206000200160009054906101000a900473ffffffffffffffffffffffffffffffffffffffff16905060008060008373ffffffffffffffffffffffffffffffffffffffff1673ffffffffffffffffffffffffffffffffffffffff1681526020019081526020016000206040518060a00160405290816000820160009054906101000a900460ff16600281111561184957611848612783565b5b600281111561185b5761185a612783565b5b815260200160018201805461186f90612e8d565b80601f016020809104026020016040519081016040528092919081815260200182805461189b90612e8d565b80156118e85780601f106118bd576101008083540402835291602001916118e8565b820191906000526020600020905b8154815290600101906020018083116118cb57829003601f168201915b5050505050815260200160028201805461190190612e8d565b80601f016020809104026020016040519081016040528092919081815260200182805461192d90612e8d565b801561197a5780601f1061194f5761010080835404028352916020019161197a565b820191906000526020600020905b81548152906001019060200180831161195d57829003601f168201915b5050505050815260200160038201805461199390612e8d565b80601f01602080910402602001604051908101604052809291908181526020018280546119bf90612e8d565b8015611a0c5780601f106119e157610100808354040283529160200191611a0c565b820191906000526020600020905b8154815290600101906020018083116119ef57829003601f168201915b505050505081526020016004820160009054906101000a900460ff161515151581525050905081858481518110611a4657611a456131b3565b5b602002602001019073ffffffffffffffffffffffffffffffffffffffff16908173ffffffffffffffffffffffffffffffffffffffff168152505080848481518110611a9457611a936131b3565b5b602002602001018190525050508080611aac90613211565b915050611789565b5081819350935050509091565b60606002805480602002602001604051908101604052809291908181526020018280548015611b4557602002820191906000526020600020905b8160009054906101000a900473ffffffffffffffffffffffffffffffffffffffff1673ffffffffffffffffffffffffffffffffffffffff1681526020019060010190808311611afb575b5050505050905090565b60028181548110611b5f57600080fd5b906000526020600020016000915054906101000a900473ffffffffffffffffffffffffffffffffffffffff1681565b806000803373ffffffffffffffffffffffffffffffffffffffff1673ffffffffffffffffffffffffffffffffffffffff1681526020019081526020016000206003019081611bdc919061306a565b5060008060003373ffffffffffffffffffffffffffffffffffffffff1673ffffffffffffffffffffffffffffffffffffffff1681526020019081526020016000206040518060a00160405290816000820160009054906101000a900460ff166002811115611c4d57611c4c612783565b5b6002811115611c5f57611c5e612783565b5b8152602001600182018054611c7390612e8d565b80601f0160208091040260200160405190810160405280929190818152602001828054611c9f90612e8d565b8015611cec5780601f10611cc157610100808354040283529160200191611cec565b820191906000526020600020905b815481529060010190602001808311611ccf57829003601f168201915b50505050508152602001600282018054611d0590612e8d565b80601f0160208091040260200160405190810160405280929190818152602001828054611d3190612e8d565b8015611d7e5780601f10611d5357610100808354040283529160200191611d7e565b820191906000526020600020905b815481529060010190602001808311611d6157829003601f168201915b50505050508152602001600382018054611d9790612e8d565b80601f0160208091040260200160405190810160405280929190818152602001828054611dc390612e8d565b8015611e105780601f10611de557610100808354040283529160200191611e10565b820191906000526020600020905b815481529060010190602001808311611df357829003601f168201915b505050505081526020016004820160009054906101000a900460ff16151515158152505090503373ffffffffffffffffffffffffffffffffffffffff167fe49f40f57c43bcc0ea51de08718dcc45efb3325fb9d155e76c2a5ab33be2de168260000151836020015184606001518642604051611e9095949392919061314b565b60405180910390a25050565b6060600060038054905067ffffffffffffffff811115611ebf57611ebe612584565b5b604051908082528060200260200182016040528015611ef857816020015b611ee5612512565b815260200190600190039081611edd5790505b50905060005b6003805490508110156121cf5760008060038381548110611f2257611f216131b3565b5b9060005260206000200160009054906101000a900473ffffffffffffffffffffffffffffffffffffffff1673ffffffffffffffffffffffffffffffffffffffff1673ffffffffffffffffffffffffffffffffffffffff1681526020019081526020016000206040518060a00160405290816000820160009054906101000a900460ff166002811115611fb757611fb6612783565b5b6002811115611fc957611fc8612783565b5b8152602001600182018054611fdd90612e8d565b80601f016020809104026020016040519081016040528092919081815260200182805461200990612e8d565b80156120565780601f1061202b57610100808354040283529160200191612056565b820191906000526020600020905b81548152906001019060200180831161203957829003601f168201915b5050505050815260200160028201805461206f90612e8d565b80601f016020809104026020016040519081016040528092919081815260200182805461209b90612e8d565b80156120e85780601f106120bd576101008083540402835291602001916120e8565b820191906000526020600020905b8154815290600101906020018083116120cb57829003601f168201915b5050505050815260200160038201805461210190612e8d565b80601f016020809104026020016040519081016040528092919081815260200182805461212d90612e8d565b801561217a5780601f1061214f5761010080835404028352916020019161217a565b820191906000526020600020905b81548152906001019060200180831161215d57829003601f168201915b505050505081526020016004820160009054906101000a900460ff1615151515815250508282815181106121b1576121b06131b3565b5b602002602001018190525080806121c790613211565b915050611efe565b508091505090565b6060600060018054905067ffffffffffffffff8111156121fa576121f9612584565b5b60405190808252806020026020018201604052801561223357816020015b612220612512565b8152602001906001900390816122185790505b50905060005b60018054905081101561250a576000806001838154811061225d5761225c6131b3565b5b9060005260206000200160009054906101000a900473ffffffffffffffffffffffffffffffffffffffff1673ffffffffffffffffffffffffffffffffffffffff1673ffffffffffffffffffffffffffffffffffffffff1681526020019081526020016000206040518060a00160405290816000820160009054906101000a900460ff1660028111156122f2576122f1612783565b5b600281111561230457612303612783565b5b815260200160018201805461231890612e8d565b80601f016020809104026020016040519081016040528092919081815260200182805461234490612e8d565b80156123915780601f1061236657610100808354040283529160200191612391565b820191906000526020600020905b81548152906001019060200180831161237457829003601f168201915b505050505081526020016002820180546123aa90612e8d565b80601f01602080910402602001604051908101604052809291908181526020018280546123d690612e8d565b80156124235780601f106123f857610100808354040283529160200191612423565b820191906000526020600020905b81548152906001019060200180831161240657829003601f168201915b5050505050815260200160038201805461243c90612e8d565b80601f016020809104026020016040519081016040528092919081815260200182805461246890612e8d565b80156124b55780601f1061248a576101008083540402835291602001916124b5565b820191906000526020600020905b81548152906001019060200180831161249857829003601f168201915b505050505081526020016004820160009054906101000a900460ff1615151515815250508282815181106124ec576124eb6131b3565b5b6020026020010181905250808061250290613211565b915050612239565b508091505090565b6040518060a001604052806000600281111561253157612530612783565b5b81526020016060815260200160608152602001606081526020016000151581525090565b6000604051905090565b600080fd5b600080fd5b600080fd5b600080fd5b6000601f19601f8301169050919050565b7f4e487b7100000000000000000000000000000000000000000000000000000000600052604160045260246000fd5b6125bc82612573565b810181811067ffffffffffffffff821117156125db576125da612584565b5b80604052505050565b60006125ee612555565b90506125fa82826125b3565b919050565b600067ffffffffffffffff82111561261a57612619612584565b5b61262382612573565b9050602081019050919050565b82818337600083830152505050565b600061265261264d846125ff565b6125e4565b90508281526020810184848401111561266e5761266d61256e565b5b612679848285612630565b509392505050565b600082601f83011261269657612695612569565b5b81356126a684826020860161263f565b91505092915050565b6000602082840312156126c5576126c461255f565b5b600082013567ffffffffffffffff8111156126e3576126e2612564565b5b6126ef84828501612681565b91505092915050565b600073ffffffffffffffffffffffffffffffffffffffff82169050919050565b6000612723826126f8565b9050919050565b61273381612718565b811461273e57600080fd5b50565b6000813590506127508161272a565b92915050565b60006020828403121561276c5761276b61255f565b5b600061277a84828501612741565b91505092915050565b7f4e487b7100000000000000000000000000000000000000000000000000000000600052602160045260246000fd5b600381106127c3576127c2612783565b5b50565b60008190506127d4826127b2565b919050565b60006127e4826127c6565b9050919050565b6127f4816127d9565b82525050565b600081519050919050565b600082825260208201905092915050565b60005b83811015612834578082015181840152602081019050612819565b60008484015250505050565b600061284b826127fa565b6128558185612805565b9350612865818560208601612816565b61286e81612573565b840191505092915050565b60008115159050919050565b61288e81612879565b82525050565b600060a0830160008301516128ac60008601826127eb565b50602083015184820360208601526128c48282612840565b915050604083015184820360408601526128de8282612840565b915050606083015184820360608601526128f88282612840565b915050608083015161290d6080860182612885565b508091505092915050565b600060208201905081810360008301526129328184612894565b905092915050565b6000819050919050565b61294d8161293a565b811461295857600080fd5b50565b60008135905061296a81612944565b92915050565b6000602082840312156129865761298561255f565b5b60006129948482850161295b565b91505092915050565b6129a681612718565b82525050565b60006020820190506129c1600083018461299d565b92915050565b6129d0816127d9565b82525050565b600082825260208201905092915050565b60006129f2826127fa565b6129fc81856129d6565b9350612a0c818560208601612816565b612a1581612573565b840191505092915050565b612a2981612879565b82525050565b600060a082019050612a4460008301886129c7565b8181036020830152612a5681876129e7565b90508181036040830152612a6a81866129e7565b90508181036060830152612a7e81856129e7565b9050612a8d6080830184612a20565b9695505050505050565b600081519050919050565b600082825260208201905092915050565b6000819050602082019050919050565b600060a083016000830151612adb60008601826127eb565b5060208301518482036020860152612af38282612840565b91505060408301518482036040860152612b0d8282612840565b91505060608301518482036060860152612b278282612840565b9150506080830151612b3c6080860182612885565b508091505092915050565b6000612b538383612ac3565b905092915050565b6000602082019050919050565b6000612b7382612a97565b612b7d8185612aa2565b935083602082028501612b8f85612ab3565b8060005b85811015612bcb5784840389528151612bac8582612b47565b9450612bb783612b5b565b925060208a01995050600181019050612b93565b50829750879550505050505092915050565b60006020820190508181036000830152612bf78184612b68565b905092915050565b60038110612c0c57600080fd5b50565b600081359050612c1e81612bff565b92915050565b600080fd5b600080fd5b60008083601f840112612c4457612c43612569565b5b8235905067ffffffffffffffff811115612c6157612c60612c24565b5b602083019150836001820283011115612c7d57612c7c612c29565b5b9250929050565b60008060008060008060808789031215612ca157612ca061255f565b5b6000612caf89828a01612c0f565b965050602087013567ffffffffffffffff811115612cd057612ccf612564565b5b612cdc89828a01612c2e565b9550955050604087013567ffffffffffffffff811115612cff57612cfe612564565b5b612d0b89828a01612c2e565b9350935050606087013567ffffffffffffffff811115612d2e57612d2d612564565b5b612d3a89828a01612681565b9150509295509295509295565b600081519050919050565b600082825260208201905092915050565b6000819050602082019050919050565b612d7c81612718565b82525050565b6000612d8e8383612d73565b60208301905092915050565b6000602082019050919050565b6000612db282612d47565b612dbc8185612d52565b9350612dc783612d63565b8060005b83811015612df8578151612ddf8882612d82565b9750612dea83612d9a565b925050600181019050612dcb565b5085935050505092915050565b60006040820190508181036000830152612e1f8185612da7565b90508181036020830152612e338184612b68565b90509392505050565b60006020820190508181036000830152612e568184612da7565b905092915050565b7f4e487b7100000000000000000000000000000000000000000000000000000000600052602260045260246000fd5b60006002820490506001821680612ea557607f821691505b602082108103612eb857612eb7612e5e565b5b50919050565b60008190508160005260206000209050919050565b60006020601f8301049050919050565b600082821b905092915050565b600060088302612f207fffffffffffffffffffffffffffffffffffffffffffffffffffffffffffffffff82612ee3565b612f2a8683612ee3565b95508019841693508086168417925050509392505050565b6000819050919050565b6000612f67612f62612f5d8461293a565b612f42565b61293a565b9050919050565b6000819050919050565b612f8183612f4c565b612f95612f8d82612f6e565b848454612ef0565b825550505050565b600090565b612faa612f9d565b612fb5818484612f78565b505050565b5b81811015612fd957612fce600082612fa2565b600181019050612fbb565b5050565b601f82111561301e57612fef81612ebe565b612ff884612ed3565b81016020851015613007578190505b61301b61301385612ed3565b830182612fba565b50505b505050565b600082821c905092915050565b600061304160001984600802613023565b1980831691505092915050565b600061305a8383613030565b9150826002028217905092915050565b613073826127fa565b67ffffffffffffffff81111561308c5761308b612584565b5b6130968254612e8d565b6130a1828285612fdd565b600060209050601f8311600181146130d457600084156130c2578287015190505b6130cc858261304e565b865550613134565b601f1984166130e286612ebe565b60005b8281101561310a578489015182556001820191506020850194506020810190506130e5565b868310156131275784890151613123601f891682613030565b8355505b6001600288020188555050505b505050505050565b6131458161293a565b82525050565b600060a08201905061316060008301886129c7565b818103602083015261317281876129e7565b9050818103604083015261318681866129e7565b9050818103606083015261319a81856129e7565b90506131a9608083018461313c565b9695505050505050565b7f4e487b7100000000000000000000000000000000000000000000000000000000600052603260045260246000fd5b7f4e487b7100000000000000000000000000000000000000000000000000000000600052601160045260246000fd5b600061321c8261293a565b91507fffffffffffffffffffffffffffffffffffffffffffffffffffffffffffffffff820361324e5761324d6131e2565b5b600182019050919050565b600082825260208201905092915050565b7f5573657220616c72656164792072656769737465726564000000000000000000600082015250565b60006132a0601783613259565b91506132ab8261326a565b602082019050919050565b600060208201905081810360008301526132cf81613293565b9050919050565b60006132e283856129d6565b93506132ef838584612630565b6132f883612573565b840190509392505050565b600060a082019050613318600083018a6129c7565b818103602083015261332b81888a6132d6565b905081810360408301526133408186886132d6565b9050818103606083015261335481856129e7565b9050613363608083018461313c565b9897505050505050505056fea2646970667358221220d14cc7746935b6303c11be63d9c840f396562be94bf610e4ceaa31aede884ea564736f6c63430008130033",
					"opcodes": "PUSH1 0x80 PUSH1 0x40 MSTORE CALLVALUE DUP1 ISZERO PUSH2 0x10 JUMPI PUSH1 0x0 DUP1 REVERT JUMPDEST POP PUSH2 0x33A5 DUP1 PUSH2 0x20 PUSH1 0x0 CODECOPY PUSH1 0x0 RETURN INVALID PUSH1 0x80 PUSH1 0x40 MSTORE CALLVALUE DUP1 ISZERO PUSH2 0x10 JUMPI PUSH1 0x0 DUP1 REVERT JUMPDEST POP PUSH1 0x4 CALLDATASIZE LT PUSH2 0x100 JUMPI PUSH1 0x0 CALLDATALOAD PUSH1 0xE0 SHR DUP1 PUSH4 0x90175AF1 GT PUSH2 0x97 JUMPI DUP1 PUSH4 0xCEA23121 GT PUSH2 0x66 JUMPI DUP1 PUSH4 0xCEA23121 EQ PUSH2 0x2B2 JUMPI DUP1 PUSH4 0xD1BAB143 EQ PUSH2 0x2E2 JUMPI DUP1 PUSH4 0xDDBA07A4 EQ PUSH2 0x2FE JUMPI DUP1 PUSH4 0xE2842D79 EQ PUSH2 0x31C JUMPI PUSH2 0x100 JUMP JUMPDEST DUP1 PUSH4 0x90175AF1 EQ PUSH2 0x229 JUMPI DUP1 PUSH4 0x9AE7D008 EQ PUSH2 0x259 JUMPI DUP1 PUSH4 0xB53305DC EQ PUSH2 0x275 JUMPI DUP1 PUSH4 0xC7BBD67E EQ PUSH2 0x294 JUMPI PUSH2 0x100 JUMP JUMPDEST DUP1 PUSH4 0x50B492BA GT PUSH2 0xD3 JUMPI DUP1 PUSH4 0x50B492BA EQ PUSH2 0x18B JUMPI DUP1 PUSH4 0x5166608F EQ PUSH2 0x1BB JUMPI DUP1 PUSH4 0x6A26D064 EQ PUSH2 0x1EF JUMPI DUP1 PUSH4 0x8E24C34B EQ PUSH2 0x20B JUMPI PUSH2 0x100 JUMP JUMPDEST DUP1 PUSH4 0x26FF05E EQ PUSH2 0x105 JUMPI DUP1 PUSH4 0xC6C92BA EQ PUSH2 0x10F JUMPI DUP1 PUSH4 0x35852541 EQ PUSH2 0x12B JUMPI DUP1 PUSH4 0x365B98B2 EQ PUSH2 0x15B JUMPI JUMPDEST PUSH1 0x0 DUP1 REVERT JUMPDEST PUSH2 0x10D PUSH2 0x33A JUMP JUMPDEST STOP JUMPDEST PUSH2 0x129 PUSH1 0x4 DUP1 CALLDATASIZE SUB DUP2 ADD SWAP1 PUSH2 0x124 SWAP2 SWAP1 PUSH2 0x26AF JUMP JUMPDEST PUSH2 0x3D9 JUMP JUMPDEST STOP JUMPDEST PUSH2 0x145 PUSH1 0x4 DUP1 CALLDATASIZE SUB DUP2 ADD SWAP1 PUSH2 0x140 SWAP2 SWAP1 PUSH2 0x2756 JUMP JUMPDEST PUSH2 0x6E7 JUMP JUMPDEST PUSH1 0x40 MLOAD PUSH2 0x152 SWAP2 SWAP1 PUSH2 0x2918 JUMP JUMPDEST PUSH1 0x40 MLOAD DUP1 SWAP2 SUB SWAP1 RETURN JUMPDEST PUSH2 0x175 PUSH1 0x4 DUP1 CALLDATASIZE SUB DUP2 ADD SWAP1 PUSH2 0x170 SWAP2 SWAP1 PUSH2 0x2970 JUMP JUMPDEST PUSH2 0x94B JUMP JUMPDEST PUSH1 0x40 MLOAD PUSH2 0x182 SWAP2 SWAP1 PUSH2 0x29AC JUMP JUMPDEST PUSH1 0x40 MLOAD DUP1 SWAP2 SUB SWAP1 RETURN JUMPDEST PUSH2 0x1A5 PUSH1 0x4 DUP1 CALLDATASIZE SUB DUP2 ADD SWAP1 PUSH2 0x1A0 SWAP2 SWAP1 PUSH2 0x2970 JUMP JUMPDEST PUSH2 0x98A JUMP JUMPDEST PUSH1 0x40 MLOAD PUSH2 0x1B2 SWAP2 SWAP1 PUSH2 0x29AC JUMP JUMPDEST PUSH1 0x40 MLOAD DUP1 SWAP2 SUB SWAP1 RETURN JUMPDEST PUSH2 0x1D5 PUSH1 0x4 DUP1 CALLDATASIZE SUB DUP2 ADD SWAP1 PUSH2 0x1D0 SWAP2 SWAP1 PUSH2 0x2756 JUMP JUMPDEST PUSH2 0x9C9 JUMP JUMPDEST PUSH1 0x40 MLOAD PUSH2 0x1E6 SWAP6 SWAP5 SWAP4 SWAP3 SWAP2 SWAP1 PUSH2 0x2A2F JUMP JUMPDEST PUSH1 0x40 MLOAD DUP1 SWAP2 SUB SWAP1 RETURN JUMPDEST PUSH2 0x209 PUSH1 0x4 DUP1 CALLDATASIZE SUB DUP2 ADD SWAP1 PUSH2 0x204 SWAP2 SWAP1 PUSH2 0x26AF JUMP JUMPDEST PUSH2 0xBB1 JUMP JUMPDEST STOP JUMPDEST PUSH2 0x213 PUSH2 0xEBF JUMP JUMPDEST PUSH1 0x40 MLOAD PUSH2 0x220 SWAP2 SWAP1 PUSH2 0x2BDD JUMP JUMPDEST PUSH1 0x40 MLOAD DUP1 SWAP2 SUB SWAP1 RETURN JUMPDEST PUSH2 0x243 PUSH1 0x4 DUP1 CALLDATASIZE SUB DUP2 ADD SWAP1 PUSH2 0x23E SWAP2 SWAP1 PUSH2 0x2970 JUMP JUMPDEST PUSH2 0x11FA JUMP JUMPDEST PUSH1 0x40 MLOAD PUSH2 0x250 SWAP2 SWAP1 PUSH2 0x29AC JUMP JUMPDEST PUSH1 0x40 MLOAD DUP1 SWAP2 SUB SWAP1 RETURN JUMPDEST PUSH2 0x273 PUSH1 0x4 DUP1 CALLDATASIZE SUB DUP2 ADD SWAP1 PUSH2 0x26E SWAP2 SWAP1 PUSH2 0x2C84 JUMP JUMPDEST PUSH2 0x1239 JUMP JUMPDEST STOP JUMPDEST PUSH2 0x27D PUSH2 0x16D4 JUMP JUMPDEST PUSH1 0x40 MLOAD PUSH2 0x28B SWAP3 SWAP2 SWAP1 PUSH2 0x2E05 JUMP JUMPDEST PUSH1 0x40 MLOAD DUP1 SWAP2 SUB SWAP1 RETURN JUMPDEST PUSH2 0x29C PUSH2 0x1AC1 JUMP JUMPDEST PUSH1 0x40 MLOAD PUSH2 0x2A9 SWAP2 SWAP1 PUSH2 0x2E3C JUMP JUMPDEST PUSH1 0x40 MLOAD DUP1 SWAP2 SUB SWAP1 RETURN JUMPDEST PUSH2 0x2CC PUSH1 0x4 DUP1 CALLDATASIZE SUB DUP2 ADD SWAP1 PUSH2 0x2C7 SWAP2 SWAP1 PUSH2 0x2970 JUMP JUMPDEST PUSH2 0x1B4F JUMP JUMPDEST PUSH1 0x40 MLOAD PUSH2 0x2D9 SWAP2 SWAP1 PUSH2 0x29AC JUMP JUMPDEST PUSH1 0x40 MLOAD DUP1 SWAP2 SUB SWAP1 RETURN JUMPDEST PUSH2 0x2FC PUSH1 0x4 DUP1 CALLDATASIZE SUB DUP2 ADD SWAP1 PUSH2 0x2F7 SWAP2 SWAP1 PUSH2 0x26AF JUMP JUMPDEST PUSH2 0x1B8E JUMP JUMPDEST STOP JUMPDEST PUSH2 0x306 PUSH2 0x1E9C JUMP JUMPDEST PUSH1 0x40 MLOAD PUSH2 0x313 SWAP2 SWAP1 PUSH2 0x2BDD JUMP JUMPDEST PUSH1 0x40 MLOAD DUP1 SWAP2 SUB SWAP1 RETURN JUMPDEST PUSH2 0x324 PUSH2 0x21D7 JUMP JUMPDEST PUSH1 0x40 MLOAD PUSH2 0x331 SWAP2 SWAP1 PUSH2 0x2BDD JUMP JUMPDEST PUSH1 0x40 MLOAD DUP1 SWAP2 SUB SWAP1 RETURN JUMPDEST PUSH1 0x0 DUP1 PUSH1 0x0 CALLER PUSH20 0xFFFFFFFFFFFFFFFFFFFFFFFFFFFFFFFFFFFFFFFF AND PUSH20 0xFFFFFFFFFFFFFFFFFFFFFFFFFFFFFFFFFFFFFFFF AND DUP2 MSTORE PUSH1 0x20 ADD SWAP1 DUP2 MSTORE PUSH1 0x20 ADD PUSH1 0x0 KECCAK256 PUSH1 0x4 ADD PUSH1 0x0 PUSH2 0x100 EXP DUP2 SLOAD DUP2 PUSH1 0xFF MUL NOT AND SWAP1 DUP4 ISZERO ISZERO MUL OR SWAP1 SSTORE POP CALLER PUSH20 0xFFFFFFFFFFFFFFFFFFFFFFFFFFFFFFFFFFFFFFFF AND PUSH32 0x5DB32FB34AD07587763CB39A6A4E3E11627AF9BB8B3754C2734C1E7C107C0B5B PUSH1 0x40 MLOAD PUSH1 0x40 MLOAD DUP1 SWAP2 SUB SWAP1 LOG2 JUMP JUMPDEST DUP1 PUSH1 0x0 DUP1 CALLER PUSH20 0xFFFFFFFFFFFFFFFFFFFFFFFFFFFFFFFFFFFFFFFF AND PUSH20 0xFFFFFFFFFFFFFFFFFFFFFFFFFFFFFFFFFFFFFFFF AND DUP2 MSTORE PUSH1 0x20 ADD SWAP1 DUP2 MSTORE PUSH1 0x20 ADD PUSH1 0x0 KECCAK256 PUSH1 0x1 ADD SWAP1 DUP2 PUSH2 0x427 SWAP2 SWAP1 PUSH2 0x306A JUMP JUMPDEST POP PUSH1 0x0 DUP1 PUSH1 0x0 CALLER PUSH20 0xFFFFFFFFFFFFFFFFFFFFFFFFFFFFFFFFFFFFFFFF AND PUSH20 0xFFFFFFFFFFFFFFFFFFFFFFFFFFFFFFFFFFFFFFFF AND DUP2 MSTORE PUSH1 0x20 ADD SWAP1 DUP2 MSTORE PUSH1 0x20 ADD PUSH1 0x0 KECCAK256 PUSH1 0x40 MLOAD DUP1 PUSH1 0xA0 ADD PUSH1 0x40 MSTORE SWAP1 DUP2 PUSH1 0x0 DUP3 ADD PUSH1 0x0 SWAP1 SLOAD SWAP1 PUSH2 0x100 EXP SWAP1 DIV PUSH1 0xFF AND PUSH1 0x2 DUP2 GT ISZERO PUSH2 0x498 JUMPI PUSH2 0x497 PUSH2 0x2783 JUMP JUMPDEST JUMPDEST PUSH1 0x2 DUP2 GT ISZERO PUSH2 0x4AA JUMPI PUSH2 0x4A9 PUSH2 0x2783 JUMP JUMPDEST JUMPDEST DUP2 MSTORE PUSH1 0x20 ADD PUSH1 0x1 DUP3 ADD DUP1 SLOAD PUSH2 0x4BE SWAP1 PUSH2 0x2E8D JUMP JUMPDEST DUP1 PUSH1 0x1F ADD PUSH1 0x20 DUP1 SWAP2 DIV MUL PUSH1 0x20 ADD PUSH1 0x40 MLOAD SWAP1 DUP2 ADD PUSH1 0x40 MSTORE DUP1 SWAP3 SWAP2 SWAP1 DUP2 DUP2 MSTORE PUSH1 0x20 ADD DUP3 DUP1 SLOAD PUSH2 0x4EA SWAP1 PUSH2 0x2E8D JUMP JUMPDEST DUP1 ISZERO PUSH2 0x537 JUMPI DUP1 PUSH1 0x1F LT PUSH2 0x50C JUMPI PUSH2 0x100 DUP1 DUP4 SLOAD DIV MUL DUP4 MSTORE SWAP2 PUSH1 0x20 ADD SWAP2 PUSH2 0x537 JUMP JUMPDEST DUP3 ADD SWAP2 SWAP1 PUSH1 0x0 MSTORE PUSH1 0x20 PUSH1 0x0 KECCAK256 SWAP1 JUMPDEST DUP2 SLOAD DUP2 MSTORE SWAP1 PUSH1 0x1 ADD SWAP1 PUSH1 0x20 ADD DUP1 DUP4 GT PUSH2 0x51A JUMPI DUP3 SWAP1 SUB PUSH1 0x1F AND DUP3 ADD SWAP2 JUMPDEST POP POP POP POP POP DUP2 MSTORE PUSH1 0x20 ADD PUSH1 0x2 DUP3 ADD DUP1 SLOAD PUSH2 0x550 SWAP1 PUSH2 0x2E8D JUMP JUMPDEST DUP1 PUSH1 0x1F ADD PUSH1 0x20 DUP1 SWAP2 DIV MUL PUSH1 0x20 ADD PUSH1 0x40 MLOAD SWAP1 DUP2 ADD PUSH1 0x40 MSTORE DUP1 SWAP3 SWAP2 SWAP1 DUP2 DUP2 MSTORE PUSH1 0x20 ADD DUP3 DUP1 SLOAD PUSH2 0x57C SWAP1 PUSH2 0x2E8D JUMP JUMPDEST DUP1 ISZERO PUSH2 0x5C9 JUMPI DUP1 PUSH1 0x1F LT PUSH2 0x59E JUMPI PUSH2 0x100 DUP1 DUP4 SLOAD DIV MUL DUP4 MSTORE SWAP2 PUSH1 0x20 ADD SWAP2 PUSH2 0x5C9 JUMP JUMPDEST DUP3 ADD SWAP2 SWAP1 PUSH1 0x0 MSTORE PUSH1 0x20 PUSH1 0x0 KECCAK256 SWAP1 JUMPDEST DUP2 SLOAD DUP2 MSTORE SWAP1 PUSH1 0x1 ADD SWAP1 PUSH1 0x20 ADD DUP1 DUP4 GT PUSH2 0x5AC JUMPI DUP3 SWAP1 SUB PUSH1 0x1F AND DUP3 ADD SWAP2 JUMPDEST POP POP POP POP POP DUP2 MSTORE PUSH1 0x20 ADD PUSH1 0x3 DUP3 ADD DUP1 SLOAD PUSH2 0x5E2 SWAP1 PUSH2 0x2E8D JUMP JUMPDEST DUP1 PUSH1 0x1F ADD PUSH1 0x20 DUP1 SWAP2 DIV MUL PUSH1 0x20 ADD PUSH1 0x40 MLOAD SWAP1 DUP2 ADD PUSH1 0x40 MSTORE DUP1 SWAP3 SWAP2 SWAP1 DUP2 DUP2 MSTORE PUSH1 0x20 ADD DUP3 DUP1 SLOAD PUSH2 0x60E SWAP1 PUSH2 0x2E8D JUMP JUMPDEST DUP1 ISZERO PUSH2 0x65B JUMPI DUP1 PUSH1 0x1F LT PUSH2 0x630 JUMPI PUSH2 0x100 DUP1 DUP4 SLOAD DIV MUL DUP4 MSTORE SWAP2 PUSH1 0x20 ADD SWAP2 PUSH2 0x65B JUMP JUMPDEST DUP3 ADD SWAP2 SWAP1 PUSH1 0x0 MSTORE PUSH1 0x20 PUSH1 0x0 KECCAK256 SWAP1 JUMPDEST DUP2 SLOAD DUP2 MSTORE SWAP1 PUSH1 0x1 ADD SWAP1 PUSH1 0x20 ADD DUP1 DUP4 GT PUSH2 0x63E JUMPI DUP3 SWAP1 SUB PUSH1 0x1F AND DUP3 ADD SWAP2 JUMPDEST POP POP POP POP POP DUP2 MSTORE PUSH1 0x20 ADD PUSH1 0x4 DUP3 ADD PUSH1 0x0 SWAP1 SLOAD SWAP1 PUSH2 0x100 EXP SWAP1 DIV PUSH1 0xFF AND ISZERO ISZERO ISZERO ISZERO DUP2 MSTORE POP POP SWAP1 POP CALLER PUSH20 0xFFFFFFFFFFFFFFFFFFFFFFFFFFFFFFFFFFFFFFFF AND PUSH32 0xE49F40F57C43BCC0EA51DE08718DCC45EFB3325FB9D155E76C2A5AB33BE2DE16 DUP3 PUSH1 0x0 ADD MLOAD DUP5 DUP5 PUSH1 0x40 ADD MLOAD DUP6 PUSH1 0x60 ADD MLOAD TIMESTAMP PUSH1 0x40 MLOAD PUSH2 0x6DB SWAP6 SWAP5 SWAP4 SWAP3 SWAP2 SWAP1 PUSH2 0x314B JUMP JUMPDEST PUSH1 0x40 MLOAD DUP1 SWAP2 SUB SWAP1 LOG2 POP POP JUMP JUMPDEST PUSH2 0x6EF PUSH2 0x2512 JUMP JUMPDEST PUSH1 0x0 DUP1 DUP4 PUSH20 0xFFFFFFFFFFFFFFFFFFFFFFFFFFFFFFFFFFFFFFFF AND PUSH20 0xFFFFFFFFFFFFFFFFFFFFFFFFFFFFFFFFFFFFFFFF AND DUP2 MSTORE PUSH1 0x20 ADD SWAP1 DUP2 MSTORE PUSH1 0x20 ADD PUSH1 0x0 KECCAK256 PUSH1 0x40 MLOAD DUP1 PUSH1 0xA0 ADD PUSH1 0x40 MSTORE SWAP1 DUP2 PUSH1 0x0 DUP3 ADD PUSH1 0x0 SWAP1 SLOAD SWAP1 PUSH2 0x100 EXP SWAP1 DIV PUSH1 0xFF AND PUSH1 0x2 DUP2 GT ISZERO PUSH2 0x75D JUMPI PUSH2 0x75C PUSH2 0x2783 JUMP JUMPDEST JUMPDEST PUSH1 0x2 DUP2 GT ISZERO PUSH2 0x76F JUMPI PUSH2 0x76E PUSH2 0x2783 JUMP JUMPDEST JUMPDEST DUP2 MSTORE PUSH1 0x20 ADD PUSH1 0x1 DUP3 ADD DUP1 SLOAD PUSH2 0x783 SWAP1 PUSH2 0x2E8D JUMP JUMPDEST DUP1 PUSH1 0x1F ADD PUSH1 0x20 DUP1 SWAP2 DIV MUL PUSH1 0x20 ADD PUSH1 0x40 MLOAD SWAP1 DUP2 ADD PUSH1 0x40 MSTORE DUP1 SWAP3 SWAP2 SWAP1 DUP2 DUP2 MSTORE PUSH1 0x20 ADD DUP3 DUP1 SLOAD PUSH2 0x7AF SWAP1 PUSH2 0x2E8D JUMP JUMPDEST DUP1 ISZERO PUSH2 0x7FC JUMPI DUP1 PUSH1 0x1F LT PUSH2 0x7D1 JUMPI PUSH2 0x100 DUP1 DUP4 SLOAD DIV MUL DUP4 MSTORE SWAP2 PUSH1 0x20 ADD SWAP2 PUSH2 0x7FC JUMP JUMPDEST DUP3 ADD SWAP2 SWAP1 PUSH1 0x0 MSTORE PUSH1 0x20 PUSH1 0x0 KECCAK256 SWAP1 JUMPDEST DUP2 SLOAD DUP2 MSTORE SWAP1 PUSH1 0x1 ADD SWAP1 PUSH1 0x20 ADD DUP1 DUP4 GT PUSH2 0x7DF JUMPI DUP3 SWAP1 SUB PUSH1 0x1F AND DUP3 ADD SWAP2 JUMPDEST POP POP POP POP POP DUP2 MSTORE PUSH1 0x20 ADD PUSH1 0x2 DUP3 ADD DUP1 SLOAD PUSH2 0x815 SWAP1 PUSH2 0x2E8D JUMP JUMPDEST DUP1 PUSH1 0x1F ADD PUSH1 0x20 DUP1 SWAP2 DIV MUL PUSH1 0x20 ADD PUSH1 0x40 MLOAD SWAP1 DUP2 ADD PUSH1 0x40 MSTORE DUP1 SWAP3 SWAP2 SWAP1 DUP2 DUP2 MSTORE PUSH1 0x20 ADD DUP3 DUP1 SLOAD PUSH2 0x841 SWAP1 PUSH2 0x2E8D JUMP JUMPDEST DUP1 ISZERO PUSH2 0x88E JUMPI DUP1 PUSH1 0x1F LT PUSH2 0x863 JUMPI PUSH2 0x100 DUP1 DUP4 SLOAD DIV MUL DUP4 MSTORE SWAP2 PUSH1 0x20 ADD SWAP2 PUSH2 0x88E JUMP JUMPDEST DUP3 ADD SWAP2 SWAP1 PUSH1 0x0 MSTORE PUSH1 0x20 PUSH1 0x0 KECCAK256 SWAP1 JUMPDEST DUP2 SLOAD DUP2 MSTORE SWAP1 PUSH1 0x1 ADD SWAP1 PUSH1 0x20 ADD DUP1 DUP4 GT PUSH2 0x871 JUMPI DUP3 SWAP1 SUB PUSH1 0x1F AND DUP3 ADD SWAP2 JUMPDEST POP POP POP POP POP DUP2 MSTORE PUSH1 0x20 ADD PUSH1 0x3 DUP3 ADD DUP1 SLOAD PUSH2 0x8A7 SWAP1 PUSH2 0x2E8D JUMP JUMPDEST DUP1 PUSH1 0x1F ADD PUSH1 0x20 DUP1 SWAP2 DIV MUL PUSH1 0x20 ADD PUSH1 0x40 MLOAD SWAP1 DUP2 ADD PUSH1 0x40 MSTORE DUP1 SWAP3 SWAP2 SWAP1 DUP2 DUP2 MSTORE PUSH1 0x20 ADD DUP3 DUP1 SLOAD PUSH2 0x8D3 SWAP1 PUSH2 0x2E8D JUMP JUMPDEST DUP1 ISZERO PUSH2 0x920 JUMPI DUP1 PUSH1 0x1F LT PUSH2 0x8F5 JUMPI PUSH2 0x100 DUP1 DUP4 SLOAD DIV MUL DUP4 MSTORE SWAP2 PUSH1 0x20 ADD SWAP2 PUSH2 0x920 JUMP JUMPDEST DUP3 ADD SWAP2 SWAP1 PUSH1 0x0 MSTORE PUSH1 0x20 PUSH1 0x0 KECCAK256 SWAP1 JUMPDEST DUP2 SLOAD DUP2 MSTORE SWAP1 PUSH1 0x1 ADD SWAP1 PUSH1 0x20 ADD DUP1 DUP4 GT PUSH2 0x903 JUMPI DUP3 SWAP1 SUB PUSH1 0x1F AND DUP3 ADD SWAP2 JUMPDEST POP POP POP POP POP DUP2 MSTORE PUSH1 0x20 ADD PUSH1 0x4 DUP3 ADD PUSH1 0x0 SWAP1 SLOAD SWAP1 PUSH2 0x100 EXP SWAP1 DIV PUSH1 0xFF AND ISZERO ISZERO ISZERO ISZERO DUP2 MSTORE POP POP SWAP1 POP SWAP2 SWAP1 POP JUMP JUMPDEST PUSH1 0x1 DUP2 DUP2 SLOAD DUP2 LT PUSH2 0x95B JUMPI PUSH1 0x0 DUP1 REVERT JUMPDEST SWAP1 PUSH1 0x0 MSTORE PUSH1 0x20 PUSH1 0x0 KECCAK256 ADD PUSH1 0x0 SWAP2 POP SLOAD SWAP1 PUSH2 0x100 EXP SWAP1 DIV PUSH20 0xFFFFFFFFFFFFFFFFFFFFFFFFFFFFFFFFFFFFFFFF AND DUP2 JUMP JUMPDEST PUSH1 0x4 DUP2 DUP2 SLOAD DUP2 LT PUSH2 0x99A JUMPI PUSH1 0x0 DUP1 REVERT JUMPDEST SWAP1 PUSH1 0x0 MSTORE PUSH1 0x20 PUSH1 0x0 KECCAK256 ADD PUSH1 0x0 SWAP2 POP SLOAD SWAP1 PUSH2 0x100 EXP SWAP1 DIV PUSH20 0xFFFFFFFFFFFFFFFFFFFFFFFFFFFFFFFFFFFFFFFF AND DUP2 JUMP JUMPDEST PUSH1 0x0 PUSH1 0x20 MSTORE DUP1 PUSH1 0x0 MSTORE PUSH1 0x40 PUSH1 0x0 KECCAK256 PUSH1 0x0 SWAP2 POP SWAP1 POP DUP1 PUSH1 0x0 ADD PUSH1 0x0 SWAP1 SLOAD SWAP1 PUSH2 0x100 EXP SWAP1 DIV PUSH1 0xFF AND SWAP1 DUP1 PUSH1 0x1 ADD DUP1 SLOAD PUSH2 0x9FF SWAP1 PUSH2 0x2E8D JUMP JUMPDEST DUP1 PUSH1 0x1F ADD PUSH1 0x20 DUP1 SWAP2 DIV MUL PUSH1 0x20 ADD PUSH1 0x40 MLOAD SWAP1 DUP2 ADD PUSH1 0x40 MSTORE DUP1 SWAP3 SWAP2 SWAP1 DUP2 DUP2 MSTORE PUSH1 0x20 ADD DUP3 DUP1 SLOAD PUSH2 0xA2B SWAP1 PUSH2 0x2E8D JUMP JUMPDEST DUP1 ISZERO PUSH2 0xA78 JUMPI DUP1 PUSH1 0x1F LT PUSH2 0xA4D JUMPI PUSH2 0x100 DUP1 DUP4 SLOAD DIV MUL DUP4 MSTORE SWAP2 PUSH1 0x20 ADD SWAP2 PUSH2 0xA78 JUMP JUMPDEST DUP3 ADD SWAP2 SWAP1 PUSH1 0x0 MSTORE PUSH1 0x20 PUSH1 0x0 KECCAK256 SWAP1 JUMPDEST DUP2 SLOAD DUP2 MSTORE SWAP1 PUSH1 0x1 ADD SWAP1 PUSH1 0x20 ADD DUP1 DUP4 GT PUSH2 0xA5B JUMPI DUP3 SWAP1 SUB PUSH1 0x1F AND DUP3 ADD SWAP2 JUMPDEST POP POP POP POP POP SWAP1 DUP1 PUSH1 0x2 ADD DUP1 SLOAD PUSH2 0xA8D SWAP1 PUSH2 0x2E8D JUMP JUMPDEST DUP1 PUSH1 0x1F ADD PUSH1 0x20 DUP1 SWAP2 DIV MUL PUSH1 0x20 ADD PUSH1 0x40 MLOAD SWAP1 DUP2 ADD PUSH1 0x40 MSTORE DUP1 SWAP3 SWAP2 SWAP1 DUP2 DUP2 MSTORE PUSH1 0x20 ADD DUP3 DUP1 SLOAD PUSH2 0xAB9 SWAP1 PUSH2 0x2E8D JUMP JUMPDEST DUP1 ISZERO PUSH2 0xB06 JUMPI DUP1 PUSH1 0x1F LT PUSH2 0xADB JUMPI PUSH2 0x100 DUP1 DUP4 SLOAD DIV MUL DUP4 MSTORE SWAP2 PUSH1 0x20 ADD SWAP2 PUSH2 0xB06 JUMP JUMPDEST DUP3 ADD SWAP2 SWAP1 PUSH1 0x0 MSTORE PUSH1 0x20 PUSH1 0x0 KECCAK256 SWAP1 JUMPDEST DUP2 SLOAD DUP2 MSTORE SWAP1 PUSH1 0x1 ADD SWAP1 PUSH1 0x20 ADD DUP1 DUP4 GT PUSH2 0xAE9 JUMPI DUP3 SWAP1 SUB PUSH1 0x1F AND DUP3 ADD SWAP2 JUMPDEST POP POP POP POP POP SWAP1 DUP1 PUSH1 0x3 ADD DUP1 SLOAD PUSH2 0xB1B SWAP1 PUSH2 0x2E8D JUMP JUMPDEST DUP1 PUSH1 0x1F ADD PUSH1 0x20 DUP1 SWAP2 DIV MUL PUSH1 0x20 ADD PUSH1 0x40 MLOAD SWAP1 DUP2 ADD PUSH1 0x40 MSTORE DUP1 SWAP3 SWAP2 SWAP1 DUP2 DUP2 MSTORE PUSH1 0x20 ADD DUP3 DUP1 SLOAD PUSH2 0xB47 SWAP1 PUSH2 0x2E8D JUMP JUMPDEST DUP1 ISZERO PUSH2 0xB94 JUMPI DUP1 PUSH1 0x1F LT PUSH2 0xB69 JUMPI PUSH2 0x100 DUP1 DUP4 SLOAD DIV MUL DUP4 MSTORE SWAP2 PUSH1 0x20 ADD SWAP2 PUSH2 0xB94 JUMP JUMPDEST DUP3 ADD SWAP2 SWAP1 PUSH1 0x0 MSTORE PUSH1 0x20 PUSH1 0x0 KECCAK256 SWAP1 JUMPDEST DUP2 SLOAD DUP2 MSTORE SWAP1 PUSH1 0x1 ADD SWAP1 PUSH1 0x20 ADD DUP1 DUP4 GT PUSH2 0xB77 JUMPI DUP3 SWAP1 SUB PUSH1 0x1F AND DUP3 ADD SWAP2 JUMPDEST POP POP POP POP POP SWAP1 DUP1 PUSH1 0x4 ADD PUSH1 0x0 SWAP1 SLOAD SWAP1 PUSH2 0x100 EXP SWAP1 DIV PUSH1 0xFF AND SWAP1 POP DUP6 JUMP JUMPDEST DUP1 PUSH1 0x0 DUP1 CALLER PUSH20 0xFFFFFFFFFFFFFFFFFFFFFFFFFFFFFFFFFFFFFFFF AND PUSH20 0xFFFFFFFFFFFFFFFFFFFFFFFFFFFFFFFFFFFFFFFF AND DUP2 MSTORE PUSH1 0x20 ADD SWAP1 DUP2 MSTORE PUSH1 0x20 ADD PUSH1 0x0 KECCAK256 PUSH1 0x2 ADD SWAP1 DUP2 PUSH2 0xBFF SWAP2 SWAP1 PUSH2 0x306A JUMP JUMPDEST POP PUSH1 0x0 DUP1 PUSH1 0x0 CALLER PUSH20 0xFFFFFFFFFFFFFFFFFFFFFFFFFFFFFFFFFFFFFFFF AND PUSH20 0xFFFFFFFFFFFFFFFFFFFFFFFFFFFFFFFFFFFFFFFF AND DUP2 MSTORE PUSH1 0x20 ADD SWAP1 DUP2 MSTORE PUSH1 0x20 ADD PUSH1 0x0 KECCAK256 PUSH1 0x40 MLOAD DUP1 PUSH1 0xA0 ADD PUSH1 0x40 MSTORE SWAP1 DUP2 PUSH1 0x0 DUP3 ADD PUSH1 0x0 SWAP1 SLOAD SWAP1 PUSH2 0x100 EXP SWAP1 DIV PUSH1 0xFF AND PUSH1 0x2 DUP2 GT ISZERO PUSH2 0xC70 JUMPI PUSH2 0xC6F PUSH2 0x2783 JUMP JUMPDEST JUMPDEST PUSH1 0x2 DUP2 GT ISZERO PUSH2 0xC82 JUMPI PUSH2 0xC81 PUSH2 0x2783 JUMP JUMPDEST JUMPDEST DUP2 MSTORE PUSH1 0x20 ADD PUSH1 0x1 DUP3 ADD DUP1 SLOAD PUSH2 0xC96 SWAP1 PUSH2 0x2E8D JUMP JUMPDEST DUP1 PUSH1 0x1F ADD PUSH1 0x20 DUP1 SWAP2 DIV MUL PUSH1 0x20 ADD PUSH1 0x40 MLOAD SWAP1 DUP2 ADD PUSH1 0x40 MSTORE DUP1 SWAP3 SWAP2 SWAP1 DUP2 DUP2 MSTORE PUSH1 0x20 ADD DUP3 DUP1 SLOAD PUSH2 0xCC2 SWAP1 PUSH2 0x2E8D JUMP JUMPDEST DUP1 ISZERO PUSH2 0xD0F JUMPI DUP1 PUSH1 0x1F LT PUSH2 0xCE4 JUMPI PUSH2 0x100 DUP1 DUP4 SLOAD DIV MUL DUP4 MSTORE SWAP2 PUSH1 0x20 ADD SWAP2 PUSH2 0xD0F JUMP JUMPDEST DUP3 ADD SWAP2 SWAP1 PUSH1 0x0 MSTORE PUSH1 0x20 PUSH1 0x0 KECCAK256 SWAP1 JUMPDEST DUP2 SLOAD DUP2 MSTORE SWAP1 PUSH1 0x1 ADD SWAP1 PUSH1 0x20 ADD DUP1 DUP4 GT PUSH2 0xCF2 JUMPI DUP3 SWAP1 SUB PUSH1 0x1F AND DUP3 ADD SWAP2 JUMPDEST POP POP POP POP POP DUP2 MSTORE PUSH1 0x20 ADD PUSH1 0x2 DUP3 ADD DUP1 SLOAD PUSH2 0xD28 SWAP1 PUSH2 0x2E8D JUMP JUMPDEST DUP1 PUSH1 0x1F ADD PUSH1 0x20 DUP1 SWAP2 DIV MUL PUSH1 0x20 ADD PUSH1 0x40 MLOAD SWAP1 DUP2 ADD PUSH1 0x40 MSTORE DUP1 SWAP3 SWAP2 SWAP1 DUP2 DUP2 MSTORE PUSH1 0x20 ADD DUP3 DUP1 SLOAD PUSH2 0xD54 SWAP1 PUSH2 0x2E8D JUMP JUMPDEST DUP1 ISZERO PUSH2 0xDA1 JUMPI DUP1 PUSH1 0x1F LT PUSH2 0xD76 JUMPI PUSH2 0x100 DUP1 DUP4 SLOAD DIV MUL DUP4 MSTORE SWAP2 PUSH1 0x20 ADD SWAP2 PUSH2 0xDA1 JUMP JUMPDEST DUP3 ADD SWAP2 SWAP1 PUSH1 0x0 MSTORE PUSH1 0x20 PUSH1 0x0 KECCAK256 SWAP1 JUMPDEST DUP2 SLOAD DUP2 MSTORE SWAP1 PUSH1 0x1 ADD SWAP1 PUSH1 0x20 ADD DUP1 DUP4 GT PUSH2 0xD84 JUMPI DUP3 SWAP1 SUB PUSH1 0x1F AND DUP3 ADD SWAP2 JUMPDEST POP POP POP POP POP DUP2 MSTORE PUSH1 0x20 ADD PUSH1 0x3 DUP3 ADD DUP1 SLOAD PUSH2 0xDBA SWAP1 PUSH2 0x2E8D JUMP JUMPDEST DUP1 PUSH1 0x1F ADD PUSH1 0x20 DUP1 SWAP2 DIV MUL PUSH1 0x20 ADD PUSH1 0x40 MLOAD SWAP1 DUP2 ADD PUSH1 0x40 MSTORE DUP1 SWAP3 SWAP2 SWAP1 DUP2 DUP2 MSTORE PUSH1 0x20 ADD DUP3 DUP1 SLOAD PUSH2 0xDE6 SWAP1 PUSH2 0x2E8D JUMP JUMPDEST DUP1 ISZERO PUSH2 0xE33 JUMPI DUP1 PUSH1 0x1F LT PUSH2 0xE08 JUMPI PUSH2 0x100 DUP1 DUP4 SLOAD DIV MUL DUP4 MSTORE SWAP2 PUSH1 0x20 ADD SWAP2 PUSH2 0xE33 JUMP JUMPDEST DUP3 ADD SWAP2 SWAP1 PUSH1 0x0 MSTORE PUSH1 0x20 PUSH1 0x0 KECCAK256 SWAP1 JUMPDEST DUP2 SLOAD DUP2 MSTORE SWAP1 PUSH1 0x1 ADD SWAP1 PUSH1 0x20 ADD DUP1 DUP4 GT PUSH2 0xE16 JUMPI DUP3 SWAP1 SUB PUSH1 0x1F AND DUP3 ADD SWAP2 JUMPDEST POP POP POP POP POP DUP2 MSTORE PUSH1 0x20 ADD PUSH1 0x4 DUP3 ADD PUSH1 0x0 SWAP1 SLOAD SWAP1 PUSH2 0x100 EXP SWAP1 DIV PUSH1 0xFF AND ISZERO ISZERO ISZERO ISZERO DUP2 MSTORE POP POP SWAP1 POP CALLER PUSH20 0xFFFFFFFFFFFFFFFFFFFFFFFFFFFFFFFFFFFFFFFF AND PUSH32 0xE49F40F57C43BCC0EA51DE08718DCC45EFB3325FB9D155E76C2A5AB33BE2DE16 DUP3 PUSH1 0x0 ADD MLOAD DUP4 PUSH1 0x20 ADD MLOAD DUP6 DUP6 PUSH1 0x60 ADD MLOAD TIMESTAMP PUSH1 0x40 MLOAD PUSH2 0xEB3 SWAP6 SWAP5 SWAP4 SWAP3 SWAP2 SWAP1 PUSH2 0x314B JUMP JUMPDEST PUSH1 0x40 MLOAD DUP1 SWAP2 SUB SWAP1 LOG2 POP POP JUMP JUMPDEST PUSH1 0x60 PUSH1 0x0 PUSH1 0x4 DUP1 SLOAD SWAP1 POP PUSH8 0xFFFFFFFFFFFFFFFF DUP2 GT ISZERO PUSH2 0xEE2 JUMPI PUSH2 0xEE1 PUSH2 0x2584 JUMP JUMPDEST JUMPDEST PUSH1 0x40 MLOAD SWAP1 DUP1 DUP3 MSTORE DUP1 PUSH1 0x20 MUL PUSH1 0x20 ADD DUP3 ADD PUSH1 0x40 MSTORE DUP1 ISZERO PUSH2 0xF1B JUMPI DUP2 PUSH1 0x20 ADD JUMPDEST PUSH2 0xF08 PUSH2 0x2512 JUMP JUMPDEST DUP2 MSTORE PUSH1 0x20 ADD SWAP1 PUSH1 0x1 SWAP1 SUB SWAP1 DUP2 PUSH2 0xF00 JUMPI SWAP1 POP JUMPDEST POP SWAP1 POP PUSH1 0x0 JUMPDEST PUSH1 0x4 DUP1 SLOAD SWAP1 POP DUP2 LT ISZERO PUSH2 0x11F2 JUMPI PUSH1 0x0 DUP1 PUSH1 0x4 DUP4 DUP2 SLOAD DUP2 LT PUSH2 0xF45 JUMPI PUSH2 0xF44 PUSH2 0x31B3 JUMP JUMPDEST JUMPDEST SWAP1 PUSH1 0x0 MSTORE PUSH1 0x20 PUSH1 0x0 KECCAK256 ADD PUSH1 0x0 SWAP1 SLOAD SWAP1 PUSH2 0x100 EXP SWAP1 DIV PUSH20 0xFFFFFFFFFFFFFFFFFFFFFFFFFFFFFFFFFFFFFFFF AND PUSH20 0xFFFFFFFFFFFFFFFFFFFFFFFFFFFFFFFFFFFFFFFF AND PUSH20 0xFFFFFFFFFFFFFFFFFFFFFFFFFFFFFFFFFFFFFFFF AND DUP2 MSTORE PUSH1 0x20 ADD SWAP1 DUP2 MSTORE PUSH1 0x20 ADD PUSH1 0x0 KECCAK256 PUSH1 0x40 MLOAD DUP1 PUSH1 0xA0 ADD PUSH1 0x40 MSTORE SWAP1 DUP2 PUSH1 0x0 DUP3 ADD PUSH1 0x0 SWAP1 SLOAD SWAP1 PUSH2 0x100 EXP SWAP1 DIV PUSH1 0xFF AND PUSH1 0x2 DUP2 GT ISZERO PUSH2 0xFDA JUMPI PUSH2 0xFD9 PUSH2 0x2783 JUMP JUMPDEST JUMPDEST PUSH1 0x2 DUP2 GT ISZERO PUSH2 0xFEC JUMPI PUSH2 0xFEB PUSH2 0x2783 JUMP JUMPDEST JUMPDEST DUP2 MSTORE PUSH1 0x20 ADD PUSH1 0x1 DUP3 ADD DUP1 SLOAD PUSH2 0x1000 SWAP1 PUSH2 0x2E8D JUMP JUMPDEST DUP1 PUSH1 0x1F ADD PUSH1 0x20 DUP1 SWAP2 DIV MUL PUSH1 0x20 ADD PUSH1 0x40 MLOAD SWAP1 DUP2 ADD PUSH1 0x40 MSTORE DUP1 SWAP3 SWAP2 SWAP1 DUP2 DUP2 MSTORE PUSH1 0x20 ADD DUP3 DUP1 SLOAD PUSH2 0x102C SWAP1 PUSH2 0x2E8D JUMP JUMPDEST DUP1 ISZERO PUSH2 0x1079 JUMPI DUP1 PUSH1 0x1F LT PUSH2 0x104E JUMPI PUSH2 0x100 DUP1 DUP4 SLOAD DIV MUL DUP4 MSTORE SWAP2 PUSH1 0x20 ADD SWAP2 PUSH2 0x1079 JUMP JUMPDEST DUP3 ADD SWAP2 SWAP1 PUSH1 0x0 MSTORE PUSH1 0x20 PUSH1 0x0 KECCAK256 SWAP1 JUMPDEST DUP2 SLOAD DUP2 MSTORE SWAP1 PUSH1 0x1 ADD SWAP1 PUSH1 0x20 ADD DUP1 DUP4 GT PUSH2 0x105C JUMPI DUP3 SWAP1 SUB PUSH1 0x1F AND DUP3 ADD SWAP2 JUMPDEST POP POP POP POP POP DUP2 MSTORE PUSH1 0x20 ADD PUSH1 0x2 DUP3 ADD DUP1 SLOAD PUSH2 0x1092 SWAP1 PUSH2 0x2E8D JUMP JUMPDEST DUP1 PUSH1 0x1F ADD PUSH1 0x20 DUP1 SWAP2 DIV MUL PUSH1 0x20 ADD PUSH1 0x40 MLOAD SWAP1 DUP2 ADD PUSH1 0x40 MSTORE DUP1 SWAP3 SWAP2 SWAP1 DUP2 DUP2 MSTORE PUSH1 0x20 ADD DUP3 DUP1 SLOAD PUSH2 0x10BE SWAP1 PUSH2 0x2E8D JUMP JUMPDEST DUP1 ISZERO PUSH2 0x110B JUMPI DUP1 PUSH1 0x1F LT PUSH2 0x10E0 JUMPI PUSH2 0x100 DUP1 DUP4 SLOAD DIV MUL DUP4 MSTORE SWAP2 PUSH1 0x20 ADD SWAP2 PUSH2 0x110B JUMP JUMPDEST DUP3 ADD SWAP2 SWAP1 PUSH1 0x0 MSTORE PUSH1 0x20 PUSH1 0x0 KECCAK256 SWAP1 JUMPDEST DUP2 SLOAD DUP2 MSTORE SWAP1 PUSH1 0x1 ADD SWAP1 PUSH1 0x20 ADD DUP1 DUP4 GT PUSH2 0x10EE JUMPI DUP3 SWAP1 SUB PUSH1 0x1F AND DUP3 ADD SWAP2 JUMPDEST POP POP POP POP POP DUP2 MSTORE PUSH1 0x20 ADD PUSH1 0x3 DUP3 ADD DUP1 SLOAD PUSH2 0x1124 SWAP1 PUSH2 0x2E8D JUMP JUMPDEST DUP1 PUSH1 0x1F ADD PUSH1 0x20 DUP1 SWAP2 DIV MUL PUSH1 0x20 ADD PUSH1 0x40 MLOAD SWAP1 DUP2 ADD PUSH1 0x40 MSTORE DUP1 SWAP3 SWAP2 SWAP1 DUP2 DUP2 MSTORE PUSH1 0x20 ADD DUP3 DUP1 SLOAD PUSH2 0x1150 SWAP1 PUSH2 0x2E8D JUMP JUMPDEST DUP1 ISZERO PUSH2 0x119D JUMPI DUP1 PUSH1 0x1F LT PUSH2 0x1172 JUMPI PUSH2 0x100 DUP1 DUP4 SLOAD DIV MUL DUP4 MSTORE SWAP2 PUSH1 0x20 ADD SWAP2 PUSH2 0x119D JUMP JUMPDEST DUP3 ADD SWAP2 SWAP1 PUSH1 0x0 MSTORE PUSH1 0x20 PUSH1 0x0 KECCAK256 SWAP1 JUMPDEST DUP2 SLOAD DUP2 MSTORE SWAP1 PUSH1 0x1 ADD SWAP1 PUSH1 0x20 ADD DUP1 DUP4 GT PUSH2 0x1180 JUMPI DUP3 SWAP1 SUB PUSH1 0x1F AND DUP3 ADD SWAP2 JUMPDEST POP POP POP POP POP DUP2 MSTORE PUSH1 0x20 ADD PUSH1 0x4 DUP3 ADD PUSH1 0x0 SWAP1 SLOAD SWAP1 PUSH2 0x100 EXP SWAP1 DIV PUSH1 0xFF AND ISZERO ISZERO ISZERO ISZERO DUP2 MSTORE POP POP DUP3 DUP3 DUP2 MLOAD DUP2 LT PUSH2 0x11D4 JUMPI PUSH2 0x11D3 PUSH2 0x31B3 JUMP JUMPDEST JUMPDEST PUSH1 0x20 MUL PUSH1 0x20 ADD ADD DUP2 SWAP1 MSTORE POP DUP1 DUP1 PUSH2 0x11EA SWAP1 PUSH2 0x3211 JUMP JUMPDEST SWAP2 POP POP PUSH2 0xF21 JUMP JUMPDEST POP DUP1 SWAP2 POP POP SWAP1 JUMP JUMPDEST PUSH1 0x3 DUP2 DUP2 SLOAD DUP2 LT PUSH2 0x120A JUMPI PUSH1 0x0 DUP1 REVERT JUMPDEST SWAP1 PUSH1 0x0 MSTORE PUSH1 0x20 PUSH1 0x0 KECCAK256 ADD PUSH1 0x0 SWAP2 POP SLOAD SWAP1 PUSH2 0x100 EXP SWAP1 DIV PUSH20 0xFFFFFFFFFFFFFFFFFFFFFFFFFFFFFFFFFFFFFFFF AND DUP2 JUMP JUMPDEST PUSH1 0x0 DUP1 PUSH1 0x0 CALLER PUSH20 0xFFFFFFFFFFFFFFFFFFFFFFFFFFFFFFFFFFFFFFFF AND PUSH20 0xFFFFFFFFFFFFFFFFFFFFFFFFFFFFFFFFFFFFFFFF AND DUP2 MSTORE PUSH1 0x20 ADD SWAP1 DUP2 MSTORE PUSH1 0x20 ADD PUSH1 0x0 KECCAK256 PUSH1 0x1 ADD DUP1 SLOAD PUSH2 0x1287 SWAP1 PUSH2 0x2E8D JUMP JUMPDEST SWAP1 POP EQ PUSH2 0x12C9 JUMPI PUSH1 0x40 MLOAD PUSH32 0x8C379A000000000000000000000000000000000000000000000000000000000 DUP2 MSTORE PUSH1 0x4 ADD PUSH2 0x12C0 SWAP1 PUSH2 0x32B6 JUMP JUMPDEST PUSH1 0x40 MLOAD DUP1 SWAP2 SUB SWAP1 REVERT JUMPDEST PUSH1 0x40 MLOAD DUP1 PUSH1 0xA0 ADD PUSH1 0x40 MSTORE DUP1 DUP8 PUSH1 0x2 DUP2 GT ISZERO PUSH2 0x12E7 JUMPI PUSH2 0x12E6 PUSH2 0x2783 JUMP JUMPDEST JUMPDEST DUP2 MSTORE PUSH1 0x20 ADD DUP7 DUP7 DUP1 DUP1 PUSH1 0x1F ADD PUSH1 0x20 DUP1 SWAP2 DIV MUL PUSH1 0x20 ADD PUSH1 0x40 MLOAD SWAP1 DUP2 ADD PUSH1 0x40 MSTORE DUP1 SWAP4 SWAP3 SWAP2 SWAP1 DUP2 DUP2 MSTORE PUSH1 0x20 ADD DUP4 DUP4 DUP1 DUP3 DUP5 CALLDATACOPY PUSH1 0x0 DUP2 DUP5 ADD MSTORE PUSH1 0x1F NOT PUSH1 0x1F DUP3 ADD AND SWAP1 POP DUP1 DUP4 ADD SWAP3 POP POP POP POP POP POP POP DUP2 MSTORE PUSH1 0x20 ADD DUP5 DUP5 DUP1 DUP1 PUSH1 0x1F ADD PUSH1 0x20 DUP1 SWAP2 DIV MUL PUSH1 0x20 ADD PUSH1 0x40 MLOAD SWAP1 DUP2 ADD PUSH1 0x40 MSTORE DUP1 SWAP4 SWAP3 SWAP2 SWAP1 DUP2 DUP2 MSTORE PUSH1 0x20 ADD DUP4 DUP4 DUP1 DUP3 DUP5 CALLDATACOPY PUSH1 0x0 DUP2 DUP5 ADD MSTORE PUSH1 0x1F NOT PUSH1 0x1F DUP3 ADD AND SWAP1 POP DUP1 DUP4 ADD SWAP3 POP POP POP POP POP POP POP DUP2 MSTORE PUSH1 0x20 ADD DUP3 DUP2 MSTORE PUSH1 0x20 ADD PUSH1 0x1 ISZERO ISZERO DUP2 MSTORE POP PUSH1 0x0 DUP1 CALLER PUSH20 0xFFFFFFFFFFFFFFFFFFFFFFFFFFFFFFFFFFFFFFFF AND PUSH20 0xFFFFFFFFFFFFFFFFFFFFFFFFFFFFFFFFFFFFFFFF AND DUP2 MSTORE PUSH1 0x20 ADD SWAP1 DUP2 MSTORE PUSH1 0x20 ADD PUSH1 0x0 KECCAK256 PUSH1 0x0 DUP3 ADD MLOAD DUP2 PUSH1 0x0 ADD PUSH1 0x0 PUSH2 0x100 EXP DUP2 SLOAD DUP2 PUSH1 0xFF MUL NOT AND SWAP1 DUP4 PUSH1 0x2 DUP2 GT ISZERO PUSH2 0x13F6 JUMPI PUSH2 0x13F5 PUSH2 0x2783 JUMP JUMPDEST JUMPDEST MUL OR SWAP1 SSTORE POP PUSH1 0x20 DUP3 ADD MLOAD DUP2 PUSH1 0x1 ADD SWAP1 DUP2 PUSH2 0x1410 SWAP2 SWAP1 PUSH2 0x306A JUMP JUMPDEST POP PUSH1 0x40 DUP3 ADD MLOAD DUP2 PUSH1 0x2 ADD SWAP1 DUP2 PUSH2 0x1426 SWAP2 SWAP1 PUSH2 0x306A JUMP JUMPDEST POP PUSH1 0x60 DUP3 ADD MLOAD DUP2 PUSH1 0x3 ADD SWAP1 DUP2 PUSH2 0x143C SWAP2 SWAP1 PUSH2 0x306A JUMP JUMPDEST POP PUSH1 0x80 DUP3 ADD MLOAD DUP2 PUSH1 0x4 ADD PUSH1 0x0 PUSH2 0x100 EXP DUP2 SLOAD DUP2 PUSH1 0xFF MUL NOT AND SWAP1 DUP4 ISZERO ISZERO MUL OR SWAP1 SSTORE POP SWAP1 POP POP PUSH1 0x1 CALLER SWAP1 DUP1 PUSH1 0x1 DUP2 SLOAD ADD DUP1 DUP3 SSTORE DUP1 SWAP2 POP POP PUSH1 0x1 SWAP1 SUB SWAP1 PUSH1 0x0 MSTORE PUSH1 0x20 PUSH1 0x0 KECCAK256 ADD PUSH1 0x0 SWAP1 SWAP2 SWAP1 SWAP2 SWAP1 SWAP2 PUSH2 0x100 EXP DUP2 SLOAD DUP2 PUSH20 0xFFFFFFFFFFFFFFFFFFFFFFFFFFFFFFFFFFFFFFFF MUL NOT AND SWAP1 DUP4 PUSH20 0xFFFFFFFFFFFFFFFFFFFFFFFFFFFFFFFFFFFFFFFF AND MUL OR SWAP1 SSTORE POP PUSH1 0x0 PUSH1 0x2 DUP2 GT ISZERO PUSH2 0x14D7 JUMPI PUSH2 0x14D6 PUSH2 0x2783 JUMP JUMPDEST JUMPDEST DUP7 PUSH1 0x2 DUP2 GT ISZERO PUSH2 0x14EA JUMPI PUSH2 0x14E9 PUSH2 0x2783 JUMP JUMPDEST JUMPDEST SUB PUSH2 0x1553 JUMPI PUSH1 0x2 CALLER SWAP1 DUP1 PUSH1 0x1 DUP2 SLOAD ADD DUP1 DUP3 SSTORE DUP1 SWAP2 POP POP PUSH1 0x1 SWAP1 SUB SWAP1 PUSH1 0x0 MSTORE PUSH1 0x20 PUSH1 0x0 KECCAK256 ADD PUSH1 0x0 SWAP1 SWAP2 SWAP1 SWAP2 SWAP1 SWAP2 PUSH2 0x100 EXP DUP2 SLOAD DUP2 PUSH20 0xFFFFFFFFFFFFFFFFFFFFFFFFFFFFFFFFFFFFFFFF MUL NOT AND SWAP1 DUP4 PUSH20 0xFFFFFFFFFFFFFFFFFFFFFFFFFFFFFFFFFFFFFFFF AND MUL OR SWAP1 SSTORE POP JUMPDEST PUSH1 0x1 PUSH1 0x2 DUP2 GT ISZERO PUSH2 0x1567 JUMPI PUSH2 0x1566 PUSH2 0x2783 JUMP JUMPDEST JUMPDEST DUP7 PUSH1 0x2 DUP2 GT ISZERO PUSH2 0x157A JUMPI PUSH2 0x1579 PUSH2 0x2783 JUMP JUMPDEST JUMPDEST SUB PUSH2 0x15E3 JUMPI PUSH1 0x3 CALLER SWAP1 DUP1 PUSH1 0x1 DUP2 SLOAD ADD DUP1 DUP3 SSTORE DUP1 SWAP2 POP POP PUSH1 0x1 SWAP1 SUB SWAP1 PUSH1 0x0 MSTORE PUSH1 0x20 PUSH1 0x0 KECCAK256 ADD PUSH1 0x0 SWAP1 SWAP2 SWAP1 SWAP2 SWAP1 SWAP2 PUSH2 0x100 EXP DUP2 SLOAD DUP2 PUSH20 0xFFFFFFFFFFFFFFFFFFFFFFFFFFFFFFFFFFFFFFFF MUL NOT AND SWAP1 DUP4 PUSH20 0xFFFFFFFFFFFFFFFFFFFFFFFFFFFFFFFFFFFFFFFF AND MUL OR SWAP1 SSTORE POP JUMPDEST PUSH1 0x2 DUP1 DUP2 GT ISZERO PUSH2 0x15F6 JUMPI PUSH2 0x15F5 PUSH2 0x2783 JUMP JUMPDEST JUMPDEST DUP7 PUSH1 0x2 DUP2 GT ISZERO PUSH2 0x1609 JUMPI PUSH2 0x1608 PUSH2 0x2783 JUMP JUMPDEST JUMPDEST SUB PUSH2 0x1672 JUMPI PUSH1 0x4 CALLER SWAP1 DUP1 PUSH1 0x1 DUP2 SLOAD ADD DUP1 DUP3 SSTORE DUP1 SWAP2 POP POP PUSH1 0x1 SWAP1 SUB SWAP1 PUSH1 0x0 MSTORE PUSH1 0x20 PUSH1 0x0 KECCAK256 ADD PUSH1 0x0 SWAP1 SWAP2 SWAP1 SWAP2 SWAP1 SWAP2 PUSH2 0x100 EXP DUP2 SLOAD DUP2 PUSH20 0xFFFFFFFFFFFFFFFFFFFFFFFFFFFFFFFFFFFFFFFF MUL NOT AND SWAP1 DUP4 PUSH20 0xFFFFFFFFFFFFFFFFFFFFFFFFFFFFFFFFFFFFFFFF AND MUL OR SWAP1 SSTORE POP JUMPDEST CALLER PUSH20 0xFFFFFFFFFFFFFFFFFFFFFFFFFFFFFFFFFFFFFFFF AND PUSH32 0xE49F40F57C43BCC0EA51DE08718DCC45EFB3325FB9D155E76C2A5AB33BE2DE16 DUP8 DUP8 DUP8 DUP8 DUP8 DUP8 TIMESTAMP PUSH1 0x40 MLOAD PUSH2 0x16C4 SWAP8 SWAP7 SWAP6 SWAP5 SWAP4 SWAP3 SWAP2 SWAP1 PUSH2 0x3303 JUMP JUMPDEST PUSH1 0x40 MLOAD DUP1 SWAP2 SUB SWAP1 LOG2 POP POP POP POP POP POP JUMP JUMPDEST PUSH1 0x60 DUP1 PUSH1 0x0 PUSH1 0x2 DUP1 SLOAD SWAP1 POP PUSH8 0xFFFFFFFFFFFFFFFF DUP2 GT ISZERO PUSH2 0x16F8 JUMPI PUSH2 0x16F7 PUSH2 0x2584 JUMP JUMPDEST JUMPDEST PUSH1 0x40 MLOAD SWAP1 DUP1 DUP3 MSTORE DUP1 PUSH1 0x20 MUL PUSH1 0x20 ADD DUP3 ADD PUSH1 0x40 MSTORE DUP1 ISZERO PUSH2 0x1726 JUMPI DUP2 PUSH1 0x20 ADD PUSH1 0x20 DUP3 MUL DUP1 CALLDATASIZE DUP4 CALLDATACOPY DUP1 DUP3 ADD SWAP2 POP POP SWAP1 POP JUMPDEST POP SWAP1 POP PUSH1 0x0 PUSH1 0x2 DUP1 SLOAD SWAP1 POP PUSH8 0xFFFFFFFFFFFFFFFF DUP2 GT ISZERO PUSH2 0x174A JUMPI PUSH2 0x1749 PUSH2 0x2584 JUMP JUMPDEST JUMPDEST PUSH1 0x40 MLOAD SWAP1 DUP1 DUP3 MSTORE DUP1 PUSH1 0x20 MUL PUSH1 0x20 ADD DUP3 ADD PUSH1 0x40 MSTORE DUP1 ISZERO PUSH2 0x1783 JUMPI DUP2 PUSH1 0x20 ADD JUMPDEST PUSH2 0x1770 PUSH2 0x2512 JUMP JUMPDEST DUP2 MSTORE PUSH1 0x20 ADD SWAP1 PUSH1 0x1 SWAP1 SUB SWAP1 DUP2 PUSH2 0x1768 JUMPI SWAP1 POP JUMPDEST POP SWAP1 POP PUSH1 0x0 JUMPDEST PUSH1 0x2 DUP1 SLOAD SWAP1 POP DUP2 LT ISZERO PUSH2 0x1AB4 JUMPI PUSH1 0x0 PUSH1 0x2 DUP3 DUP2 SLOAD DUP2 LT PUSH2 0x17AC JUMPI PUSH2 0x17AB PUSH2 0x31B3 JUMP JUMPDEST JUMPDEST SWAP1 PUSH1 0x0 MSTORE PUSH1 0x20 PUSH1 0x0 KECCAK256 ADD PUSH1 0x0 SWAP1 SLOAD SWAP1 PUSH2 0x100 EXP SWAP1 DIV PUSH20 0xFFFFFFFFFFFFFFFFFFFFFFFFFFFFFFFFFFFFFFFF AND SWAP1 POP PUSH1 0x0 DUP1 PUSH1 0x0 DUP4 PUSH20 0xFFFFFFFFFFFFFFFFFFFFFFFFFFFFFFFFFFFFFFFF AND PUSH20 0xFFFFFFFFFFFFFFFFFFFFFFFFFFFFFFFFFFFFFFFF AND DUP2 MSTORE PUSH1 0x20 ADD SWAP1 DUP2 MSTORE PUSH1 0x20 ADD PUSH1 0x0 KECCAK256 PUSH1 0x40 MLOAD DUP1 PUSH1 0xA0 ADD PUSH1 0x40 MSTORE SWAP1 DUP2 PUSH1 0x0 DUP3 ADD PUSH1 0x0 SWAP1 SLOAD SWAP1 PUSH2 0x100 EXP SWAP1 DIV PUSH1 0xFF AND PUSH1 0x2 DUP2 GT ISZERO PUSH2 0x1849 JUMPI PUSH2 0x1848 PUSH2 0x2783 JUMP JUMPDEST JUMPDEST PUSH1 0x2 DUP2 GT ISZERO PUSH2 0x185B JUMPI PUSH2 0x185A PUSH2 0x2783 JUMP JUMPDEST JUMPDEST DUP2 MSTORE PUSH1 0x20 ADD PUSH1 0x1 DUP3 ADD DUP1 SLOAD PUSH2 0x186F SWAP1 PUSH2 0x2E8D JUMP JUMPDEST DUP1 PUSH1 0x1F ADD PUSH1 0x20 DUP1 SWAP2 DIV MUL PUSH1 0x20 ADD PUSH1 0x40 MLOAD SWAP1 DUP2 ADD PUSH1 0x40 MSTORE DUP1 SWAP3 SWAP2 SWAP1 DUP2 DUP2 MSTORE PUSH1 0x20 ADD DUP3 DUP1 SLOAD PUSH2 0x189B SWAP1 PUSH2 0x2E8D JUMP JUMPDEST DUP1 ISZERO PUSH2 0x18E8 JUMPI DUP1 PUSH1 0x1F LT PUSH2 0x18BD JUMPI PUSH2 0x100 DUP1 DUP4 SLOAD DIV MUL DUP4 MSTORE SWAP2 PUSH1 0x20 ADD SWAP2 PUSH2 0x18E8 JUMP JUMPDEST DUP3 ADD SWAP2 SWAP1 PUSH1 0x0 MSTORE PUSH1 0x20 PUSH1 0x0 KECCAK256 SWAP1 JUMPDEST DUP2 SLOAD DUP2 MSTORE SWAP1 PUSH1 0x1 ADD SWAP1 PUSH1 0x20 ADD DUP1 DUP4 GT PUSH2 0x18CB JUMPI DUP3 SWAP1 SUB PUSH1 0x1F AND DUP3 ADD SWAP2 JUMPDEST POP POP POP POP POP DUP2 MSTORE PUSH1 0x20 ADD PUSH1 0x2 DUP3 ADD DUP1 SLOAD PUSH2 0x1901 SWAP1 PUSH2 0x2E8D JUMP JUMPDEST DUP1 PUSH1 0x1F ADD PUSH1 0x20 DUP1 SWAP2 DIV MUL PUSH1 0x20 ADD PUSH1 0x40 MLOAD SWAP1 DUP2 ADD PUSH1 0x40 MSTORE DUP1 SWAP3 SWAP2 SWAP1 DUP2 DUP2 MSTORE PUSH1 0x20 ADD DUP3 DUP1 SLOAD PUSH2 0x192D SWAP1 PUSH2 0x2E8D JUMP JUMPDEST DUP1 ISZERO PUSH2 0x197A JUMPI DUP1 PUSH1 0x1F LT PUSH2 0x194F JUMPI PUSH2 0x100 DUP1 DUP4 SLOAD DIV MUL DUP4 MSTORE SWAP2 PUSH1 0x20 ADD SWAP2 PUSH2 0x197A JUMP JUMPDEST DUP3 ADD SWAP2 SWAP1 PUSH1 0x0 MSTORE PUSH1 0x20 PUSH1 0x0 KECCAK256 SWAP1 JUMPDEST DUP2 SLOAD DUP2 MSTORE SWAP1 PUSH1 0x1 ADD SWAP1 PUSH1 0x20 ADD DUP1 DUP4 GT PUSH2 0x195D JUMPI DUP3 SWAP1 SUB PUSH1 0x1F AND DUP3 ADD SWAP2 JUMPDEST POP POP POP POP POP DUP2 MSTORE PUSH1 0x20 ADD PUSH1 0x3 DUP3 ADD DUP1 SLOAD PUSH2 0x1993 SWAP1 PUSH2 0x2E8D JUMP JUMPDEST DUP1 PUSH1 0x1F ADD PUSH1 0x20 DUP1 SWAP2 DIV MUL PUSH1 0x20 ADD PUSH1 0x40 MLOAD SWAP1 DUP2 ADD PUSH1 0x40 MSTORE DUP1 SWAP3 SWAP2 SWAP1 DUP2 DUP2 MSTORE PUSH1 0x20 ADD DUP3 DUP1 SLOAD PUSH2 0x19BF SWAP1 PUSH2 0x2E8D JUMP JUMPDEST DUP1 ISZERO PUSH2 0x1A0C JUMPI DUP1 PUSH1 0x1F LT PUSH2 0x19E1 JUMPI PUSH2 0x100 DUP1 DUP4 SLOAD DIV MUL DUP4 MSTORE SWAP2 PUSH1 0x20 ADD SWAP2 PUSH2 0x1A0C JUMP JUMPDEST DUP3 ADD SWAP2 SWAP1 PUSH1 0x0 MSTORE PUSH1 0x20 PUSH1 0x0 KECCAK256 SWAP1 JUMPDEST DUP2 SLOAD DUP2 MSTORE SWAP1 PUSH1 0x1 ADD SWAP1 PUSH1 0x20 ADD DUP1 DUP4 GT PUSH2 0x19EF JUMPI DUP3 SWAP1 SUB PUSH1 0x1F AND DUP3 ADD SWAP2 JUMPDEST POP POP POP POP POP DUP2 MSTORE PUSH1 0x20 ADD PUSH1 0x4 DUP3 ADD PUSH1 0x0 SWAP1 SLOAD SWAP1 PUSH2 0x100 EXP SWAP1 DIV PUSH1 0xFF AND ISZERO ISZERO ISZERO ISZERO DUP2 MSTORE POP POP SWAP1 POP DUP2 DUP6 DUP5 DUP2 MLOAD DUP2 LT PUSH2 0x1A46 JUMPI PUSH2 0x1A45 PUSH2 0x31B3 JUMP JUMPDEST JUMPDEST PUSH1 0x20 MUL PUSH1 0x20 ADD ADD SWAP1 PUSH20 0xFFFFFFFFFFFFFFFFFFFFFFFFFFFFFFFFFFFFFFFF AND SWAP1 DUP2 PUSH20 0xFFFFFFFFFFFFFFFFFFFFFFFFFFFFFFFFFFFFFFFF AND DUP2 MSTORE POP POP DUP1 DUP5 DUP5 DUP2 MLOAD DUP2 LT PUSH2 0x1A94 JUMPI PUSH2 0x1A93 PUSH2 0x31B3 JUMP JUMPDEST JUMPDEST PUSH1 0x20 MUL PUSH1 0x20 ADD ADD DUP2 SWAP1 MSTORE POP POP POP DUP1 DUP1 PUSH2 0x1AAC SWAP1 PUSH2 0x3211 JUMP JUMPDEST SWAP2 POP POP PUSH2 0x1789 JUMP JUMPDEST POP DUP2 DUP2 SWAP4 POP SWAP4 POP POP POP SWAP1 SWAP2 JUMP JUMPDEST PUSH1 0x60 PUSH1 0x2 DUP1 SLOAD DUP1 PUSH1 0x20 MUL PUSH1 0x20 ADD PUSH1 0x40 MLOAD SWAP1 DUP2 ADD PUSH1 0x40 MSTORE DUP1 SWAP3 SWAP2 SWAP1 DUP2 DUP2 MSTORE PUSH1 0x20 ADD DUP3 DUP1 SLOAD DUP1 ISZERO PUSH2 0x1B45 JUMPI PUSH1 0x20 MUL DUP3 ADD SWAP2 SWAP1 PUSH1 0x0 MSTORE PUSH1 0x20 PUSH1 0x0 KECCAK256 SWAP1 JUMPDEST DUP2 PUSH1 0x0 SWAP1 SLOAD SWAP1 PUSH2 0x100 EXP SWAP1 DIV PUSH20 0xFFFFFFFFFFFFFFFFFFFFFFFFFFFFFFFFFFFFFFFF AND PUSH20 0xFFFFFFFFFFFFFFFFFFFFFFFFFFFFFFFFFFFFFFFF AND DUP2 MSTORE PUSH1 0x20 ADD SWAP1 PUSH1 0x1 ADD SWAP1 DUP1 DUP4 GT PUSH2 0x1AFB JUMPI JUMPDEST POP POP POP POP POP SWAP1 POP SWAP1 JUMP JUMPDEST PUSH1 0x2 DUP2 DUP2 SLOAD DUP2 LT PUSH2 0x1B5F JUMPI PUSH1 0x0 DUP1 REVERT JUMPDEST SWAP1 PUSH1 0x0 MSTORE PUSH1 0x20 PUSH1 0x0 KECCAK256 ADD PUSH1 0x0 SWAP2 POP SLOAD SWAP1 PUSH2 0x100 EXP SWAP1 DIV PUSH20 0xFFFFFFFFFFFFFFFFFFFFFFFFFFFFFFFFFFFFFFFF AND DUP2 JUMP JUMPDEST DUP1 PUSH1 0x0 DUP1 CALLER PUSH20 0xFFFFFFFFFFFFFFFFFFFFFFFFFFFFFFFFFFFFFFFF AND PUSH20 0xFFFFFFFFFFFFFFFFFFFFFFFFFFFFFFFFFFFFFFFF AND DUP2 MSTORE PUSH1 0x20 ADD SWAP1 DUP2 MSTORE PUSH1 0x20 ADD PUSH1 0x0 KECCAK256 PUSH1 0x3 ADD SWAP1 DUP2 PUSH2 0x1BDC SWAP2 SWAP1 PUSH2 0x306A JUMP JUMPDEST POP PUSH1 0x0 DUP1 PUSH1 0x0 CALLER PUSH20 0xFFFFFFFFFFFFFFFFFFFFFFFFFFFFFFFFFFFFFFFF AND PUSH20 0xFFFFFFFFFFFFFFFFFFFFFFFFFFFFFFFFFFFFFFFF AND DUP2 MSTORE PUSH1 0x20 ADD SWAP1 DUP2 MSTORE PUSH1 0x20 ADD PUSH1 0x0 KECCAK256 PUSH1 0x40 MLOAD DUP1 PUSH1 0xA0 ADD PUSH1 0x40 MSTORE SWAP1 DUP2 PUSH1 0x0 DUP3 ADD PUSH1 0x0 SWAP1 SLOAD SWAP1 PUSH2 0x100 EXP SWAP1 DIV PUSH1 0xFF AND PUSH1 0x2 DUP2 GT ISZERO PUSH2 0x1C4D JUMPI PUSH2 0x1C4C PUSH2 0x2783 JUMP JUMPDEST JUMPDEST PUSH1 0x2 DUP2 GT ISZERO PUSH2 0x1C5F JUMPI PUSH2 0x1C5E PUSH2 0x2783 JUMP JUMPDEST JUMPDEST DUP2 MSTORE PUSH1 0x20 ADD PUSH1 0x1 DUP3 ADD DUP1 SLOAD PUSH2 0x1C73 SWAP1 PUSH2 0x2E8D JUMP JUMPDEST DUP1 PUSH1 0x1F ADD PUSH1 0x20 DUP1 SWAP2 DIV MUL PUSH1 0x20 ADD PUSH1 0x40 MLOAD SWAP1 DUP2 ADD PUSH1 0x40 MSTORE DUP1 SWAP3 SWAP2 SWAP1 DUP2 DUP2 MSTORE PUSH1 0x20 ADD DUP3 DUP1 SLOAD PUSH2 0x1C9F SWAP1 PUSH2 0x2E8D JUMP JUMPDEST DUP1 ISZERO PUSH2 0x1CEC JUMPI DUP1 PUSH1 0x1F LT PUSH2 0x1CC1 JUMPI PUSH2 0x100 DUP1 DUP4 SLOAD DIV MUL DUP4 MSTORE SWAP2 PUSH1 0x20 ADD SWAP2 PUSH2 0x1CEC JUMP JUMPDEST DUP3 ADD SWAP2 SWAP1 PUSH1 0x0 MSTORE PUSH1 0x20 PUSH1 0x0 KECCAK256 SWAP1 JUMPDEST DUP2 SLOAD DUP2 MSTORE SWAP1 PUSH1 0x1 ADD SWAP1 PUSH1 0x20 ADD DUP1 DUP4 GT PUSH2 0x1CCF JUMPI DUP3 SWAP1 SUB PUSH1 0x1F AND DUP3 ADD SWAP2 JUMPDEST POP POP POP POP POP DUP2 MSTORE PUSH1 0x20 ADD PUSH1 0x2 DUP3 ADD DUP1 SLOAD PUSH2 0x1D05 SWAP1 PUSH2 0x2E8D JUMP JUMPDEST DUP1 PUSH1 0x1F ADD PUSH1 0x20 DUP1 SWAP2 DIV MUL PUSH1 0x20 ADD PUSH1 0x40 MLOAD SWAP1 DUP2 ADD PUSH1 0x40 MSTORE DUP1 SWAP3 SWAP2 SWAP1 DUP2 DUP2 MSTORE PUSH1 0x20 ADD DUP3 DUP1 SLOAD PUSH2 0x1D31 SWAP1 PUSH2 0x2E8D JUMP JUMPDEST DUP1 ISZERO PUSH2 0x1D7E JUMPI DUP1 PUSH1 0x1F LT PUSH2 0x1D53 JUMPI PUSH2 0x100 DUP1 DUP4 SLOAD DIV MUL DUP4 MSTORE SWAP2 PUSH1 0x20 ADD SWAP2 PUSH2 0x1D7E JUMP JUMPDEST DUP3 ADD SWAP2 SWAP1 PUSH1 0x0 MSTORE PUSH1 0x20 PUSH1 0x0 KECCAK256 SWAP1 JUMPDEST DUP2 SLOAD DUP2 MSTORE SWAP1 PUSH1 0x1 ADD SWAP1 PUSH1 0x20 ADD DUP1 DUP4 GT PUSH2 0x1D61 JUMPI DUP3 SWAP1 SUB PUSH1 0x1F AND DUP3 ADD SWAP2 JUMPDEST POP POP POP POP POP DUP2 MSTORE PUSH1 0x20 ADD PUSH1 0x3 DUP3 ADD DUP1 SLOAD PUSH2 0x1D97 SWAP1 PUSH2 0x2E8D JUMP JUMPDEST DUP1 PUSH1 0x1F ADD PUSH1 0x20 DUP1 SWAP2 DIV MUL PUSH1 0x20 ADD PUSH1 0x40 MLOAD SWAP1 DUP2 ADD PUSH1 0x40 MSTORE DUP1 SWAP3 SWAP2 SWAP1 DUP2 DUP2 MSTORE PUSH1 0x20 ADD DUP3 DUP1 SLOAD PUSH2 0x1DC3 SWAP1 PUSH2 0x2E8D JUMP JUMPDEST DUP1 ISZERO PUSH2 0x1E10 JUMPI DUP1 PUSH1 0x1F LT PUSH2 0x1DE5 JUMPI PUSH2 0x100 DUP1 DUP4 SLOAD DIV MUL DUP4 MSTORE SWAP2 PUSH1 0x20 ADD SWAP2 PUSH2 0x1E10 JUMP JUMPDEST DUP3 ADD SWAP2 SWAP1 PUSH1 0x0 MSTORE PUSH1 0x20 PUSH1 0x0 KECCAK256 SWAP1 JUMPDEST DUP2 SLOAD DUP2 MSTORE SWAP1 PUSH1 0x1 ADD SWAP1 PUSH1 0x20 ADD DUP1 DUP4 GT PUSH2 0x1DF3 JUMPI DUP3 SWAP1 SUB PUSH1 0x1F AND DUP3 ADD SWAP2 JUMPDEST POP POP POP POP POP DUP2 MSTORE PUSH1 0x20 ADD PUSH1 0x4 DUP3 ADD PUSH1 0x0 SWAP1 SLOAD SWAP1 PUSH2 0x100 EXP SWAP1 DIV PUSH1 0xFF AND ISZERO ISZERO ISZERO ISZERO DUP2 MSTORE POP POP SWAP1 POP CALLER PUSH20 0xFFFFFFFFFFFFFFFFFFFFFFFFFFFFFFFFFFFFFFFF AND PUSH32 0xE49F40F57C43BCC0EA51DE08718DCC45EFB3325FB9D155E76C2A5AB33BE2DE16 DUP3 PUSH1 0x0 ADD MLOAD DUP4 PUSH1 0x20 ADD MLOAD DUP5 PUSH1 0x60 ADD MLOAD DUP7 TIMESTAMP PUSH1 0x40 MLOAD PUSH2 0x1E90 SWAP6 SWAP5 SWAP4 SWAP3 SWAP2 SWAP1 PUSH2 0x314B JUMP JUMPDEST PUSH1 0x40 MLOAD DUP1 SWAP2 SUB SWAP1 LOG2 POP POP JUMP JUMPDEST PUSH1 0x60 PUSH1 0x0 PUSH1 0x3 DUP1 SLOAD SWAP1 POP PUSH8 0xFFFFFFFFFFFFFFFF DUP2 GT ISZERO PUSH2 0x1EBF JUMPI PUSH2 0x1EBE PUSH2 0x2584 JUMP JUMPDEST JUMPDEST PUSH1 0x40 MLOAD SWAP1 DUP1 DUP3 MSTORE DUP1 PUSH1 0x20 MUL PUSH1 0x20 ADD DUP3 ADD PUSH1 0x40 MSTORE DUP1 ISZERO PUSH2 0x1EF8 JUMPI DUP2 PUSH1 0x20 ADD JUMPDEST PUSH2 0x1EE5 PUSH2 0x2512 JUMP JUMPDEST DUP2 MSTORE PUSH1 0x20 ADD SWAP1 PUSH1 0x1 SWAP1 SUB SWAP1 DUP2 PUSH2 0x1EDD JUMPI SWAP1 POP JUMPDEST POP SWAP1 POP PUSH1 0x0 JUMPDEST PUSH1 0x3 DUP1 SLOAD SWAP1 POP DUP2 LT ISZERO PUSH2 0x21CF JUMPI PUSH1 0x0 DUP1 PUSH1 0x3 DUP4 DUP2 SLOAD DUP2 LT PUSH2 0x1F22 JUMPI PUSH2 0x1F21 PUSH2 0x31B3 JUMP JUMPDEST JUMPDEST SWAP1 PUSH1 0x0 MSTORE PUSH1 0x20 PUSH1 0x0 KECCAK256 ADD PUSH1 0x0 SWAP1 SLOAD SWAP1 PUSH2 0x100 EXP SWAP1 DIV PUSH20 0xFFFFFFFFFFFFFFFFFFFFFFFFFFFFFFFFFFFFFFFF AND PUSH20 0xFFFFFFFFFFFFFFFFFFFFFFFFFFFFFFFFFFFFFFFF AND PUSH20 0xFFFFFFFFFFFFFFFFFFFFFFFFFFFFFFFFFFFFFFFF AND DUP2 MSTORE PUSH1 0x20 ADD SWAP1 DUP2 MSTORE PUSH1 0x20 ADD PUSH1 0x0 KECCAK256 PUSH1 0x40 MLOAD DUP1 PUSH1 0xA0 ADD PUSH1 0x40 MSTORE SWAP1 DUP2 PUSH1 0x0 DUP3 ADD PUSH1 0x0 SWAP1 SLOAD SWAP1 PUSH2 0x100 EXP SWAP1 DIV PUSH1 0xFF AND PUSH1 0x2 DUP2 GT ISZERO PUSH2 0x1FB7 JUMPI PUSH2 0x1FB6 PUSH2 0x2783 JUMP JUMPDEST JUMPDEST PUSH1 0x2 DUP2 GT ISZERO PUSH2 0x1FC9 JUMPI PUSH2 0x1FC8 PUSH2 0x2783 JUMP JUMPDEST JUMPDEST DUP2 MSTORE PUSH1 0x20 ADD PUSH1 0x1 DUP3 ADD DUP1 SLOAD PUSH2 0x1FDD SWAP1 PUSH2 0x2E8D JUMP JUMPDEST DUP1 PUSH1 0x1F ADD PUSH1 0x20 DUP1 SWAP2 DIV MUL PUSH1 0x20 ADD PUSH1 0x40 MLOAD SWAP1 DUP2 ADD PUSH1 0x40 MSTORE DUP1 SWAP3 SWAP2 SWAP1 DUP2 DUP2 MSTORE PUSH1 0x20 ADD DUP3 DUP1 SLOAD PUSH2 0x2009 SWAP1 PUSH2 0x2E8D JUMP JUMPDEST DUP1 ISZERO PUSH2 0x2056 JUMPI DUP1 PUSH1 0x1F LT PUSH2 0x202B JUMPI PUSH2 0x100 DUP1 DUP4 SLOAD DIV MUL DUP4 MSTORE SWAP2 PUSH1 0x20 ADD SWAP2 PUSH2 0x2056 JUMP JUMPDEST DUP3 ADD SWAP2 SWAP1 PUSH1 0x0 MSTORE PUSH1 0x20 PUSH1 0x0 KECCAK256 SWAP1 JUMPDEST DUP2 SLOAD DUP2 MSTORE SWAP1 PUSH1 0x1 ADD SWAP1 PUSH1 0x20 ADD DUP1 DUP4 GT PUSH2 0x2039 JUMPI DUP3 SWAP1 SUB PUSH1 0x1F AND DUP3 ADD SWAP2 JUMPDEST POP POP POP POP POP DUP2 MSTORE PUSH1 0x20 ADD PUSH1 0x2 DUP3 ADD DUP1 SLOAD PUSH2 0x206F SWAP1 PUSH2 0x2E8D JUMP JUMPDEST DUP1 PUSH1 0x1F ADD PUSH1 0x20 DUP1 SWAP2 DIV MUL PUSH1 0x20 ADD PUSH1 0x40 MLOAD SWAP1 DUP2 ADD PUSH1 0x40 MSTORE DUP1 SWAP3 SWAP2 SWAP1 DUP2 DUP2 MSTORE PUSH1 0x20 ADD DUP3 DUP1 SLOAD PUSH2 0x209B SWAP1 PUSH2 0x2E8D JUMP JUMPDEST DUP1 ISZERO PUSH2 0x20E8 JUMPI DUP1 PUSH1 0x1F LT PUSH2 0x20BD JUMPI PUSH2 0x100 DUP1 DUP4 SLOAD DIV MUL DUP4 MSTORE SWAP2 PUSH1 0x20 ADD SWAP2 PUSH2 0x20E8 JUMP JUMPDEST DUP3 ADD SWAP2 SWAP1 PUSH1 0x0 MSTORE PUSH1 0x20 PUSH1 0x0 KECCAK256 SWAP1 JUMPDEST DUP2 SLOAD DUP2 MSTORE SWAP1 PUSH1 0x1 ADD SWAP1 PUSH1 0x20 ADD DUP1 DUP4 GT PUSH2 0x20CB JUMPI DUP3 SWAP1 SUB PUSH1 0x1F AND DUP3 ADD SWAP2 JUMPDEST POP POP POP POP POP DUP2 MSTORE PUSH1 0x20 ADD PUSH1 0x3 DUP3 ADD DUP1 SLOAD PUSH2 0x2101 SWAP1 PUSH2 0x2E8D JUMP JUMPDEST DUP1 PUSH1 0x1F ADD PUSH1 0x20 DUP1 SWAP2 DIV MUL PUSH1 0x20 ADD PUSH1 0x40 MLOAD SWAP1 DUP2 ADD PUSH1 0x40 MSTORE DUP1 SWAP3 SWAP2 SWAP1 DUP2 DUP2 MSTORE PUSH1 0x20 ADD DUP3 DUP1 SLOAD PUSH2 0x212D SWAP1 PUSH2 0x2E8D JUMP JUMPDEST DUP1 ISZERO PUSH2 0x217A JUMPI DUP1 PUSH1 0x1F LT PUSH2 0x214F JUMPI PUSH2 0x100 DUP1 DUP4 SLOAD DIV MUL DUP4 MSTORE SWAP2 PUSH1 0x20 ADD SWAP2 PUSH2 0x217A JUMP JUMPDEST DUP3 ADD SWAP2 SWAP1 PUSH1 0x0 MSTORE PUSH1 0x20 PUSH1 0x0 KECCAK256 SWAP1 JUMPDEST DUP2 SLOAD DUP2 MSTORE SWAP1 PUSH1 0x1 ADD SWAP1 PUSH1 0x20 ADD DUP1 DUP4 GT PUSH2 0x215D JUMPI DUP3 SWAP1 SUB PUSH1 0x1F AND DUP3 ADD SWAP2 JUMPDEST POP POP POP POP POP DUP2 MSTORE PUSH1 0x20 ADD PUSH1 0x4 DUP3 ADD PUSH1 0x0 SWAP1 SLOAD SWAP1 PUSH2 0x100 EXP SWAP1 DIV PUSH1 0xFF AND ISZERO ISZERO ISZERO ISZERO DUP2 MSTORE POP POP DUP3 DUP3 DUP2 MLOAD DUP2 LT PUSH2 0x21B1 JUMPI PUSH2 0x21B0 PUSH2 0x31B3 JUMP JUMPDEST JUMPDEST PUSH1 0x20 MUL PUSH1 0x20 ADD ADD DUP2 SWAP1 MSTORE POP DUP1 DUP1 PUSH2 0x21C7 SWAP1 PUSH2 0x3211 JUMP JUMPDEST SWAP2 POP POP PUSH2 0x1EFE JUMP JUMPDEST POP DUP1 SWAP2 POP POP SWAP1 JUMP JUMPDEST PUSH1 0x60 PUSH1 0x0 PUSH1 0x1 DUP1 SLOAD SWAP1 POP PUSH8 0xFFFFFFFFFFFFFFFF DUP2 GT ISZERO PUSH2 0x21FA JUMPI PUSH2 0x21F9 PUSH2 0x2584 JUMP JUMPDEST JUMPDEST PUSH1 0x40 MLOAD SWAP1 DUP1 DUP3 MSTORE DUP1 PUSH1 0x20 MUL PUSH1 0x20 ADD DUP3 ADD PUSH1 0x40 MSTORE DUP1 ISZERO PUSH2 0x2233 JUMPI DUP2 PUSH1 0x20 ADD JUMPDEST PUSH2 0x2220 PUSH2 0x2512 JUMP JUMPDEST DUP2 MSTORE PUSH1 0x20 ADD SWAP1 PUSH1 0x1 SWAP1 SUB SWAP1 DUP2 PUSH2 0x2218 JUMPI SWAP1 POP JUMPDEST POP SWAP1 POP PUSH1 0x0 JUMPDEST PUSH1 0x1 DUP1 SLOAD SWAP1 POP DUP2 LT ISZERO PUSH2 0x250A JUMPI PUSH1 0x0 DUP1 PUSH1 0x1 DUP4 DUP2 SLOAD DUP2 LT PUSH2 0x225D JUMPI PUSH2 0x225C PUSH2 0x31B3 JUMP JUMPDEST JUMPDEST SWAP1 PUSH1 0x0 MSTORE PUSH1 0x20 PUSH1 0x0 KECCAK256 ADD PUSH1 0x0 SWAP1 SLOAD SWAP1 PUSH2 0x100 EXP SWAP1 DIV PUSH20 0xFFFFFFFFFFFFFFFFFFFFFFFFFFFFFFFFFFFFFFFF AND PUSH20 0xFFFFFFFFFFFFFFFFFFFFFFFFFFFFFFFFFFFFFFFF AND PUSH20 0xFFFFFFFFFFFFFFFFFFFFFFFFFFFFFFFFFFFFFFFF AND DUP2 MSTORE PUSH1 0x20 ADD SWAP1 DUP2 MSTORE PUSH1 0x20 ADD PUSH1 0x0 KECCAK256 PUSH1 0x40 MLOAD DUP1 PUSH1 0xA0 ADD PUSH1 0x40 MSTORE SWAP1 DUP2 PUSH1 0x0 DUP3 ADD PUSH1 0x0 SWAP1 SLOAD SWAP1 PUSH2 0x100 EXP SWAP1 DIV PUSH1 0xFF AND PUSH1 0x2 DUP2 GT ISZERO PUSH2 0x22F2 JUMPI PUSH2 0x22F1 PUSH2 0x2783 JUMP JUMPDEST JUMPDEST PUSH1 0x2 DUP2 GT ISZERO PUSH2 0x2304 JUMPI PUSH2 0x2303 PUSH2 0x2783 JUMP JUMPDEST JUMPDEST DUP2 MSTORE PUSH1 0x20 ADD PUSH1 0x1 DUP3 ADD DUP1 SLOAD PUSH2 0x2318 SWAP1 PUSH2 0x2E8D JUMP JUMPDEST DUP1 PUSH1 0x1F ADD PUSH1 0x20 DUP1 SWAP2 DIV MUL PUSH1 0x20 ADD PUSH1 0x40 MLOAD SWAP1 DUP2 ADD PUSH1 0x40 MSTORE DUP1 SWAP3 SWAP2 SWAP1 DUP2 DUP2 MSTORE PUSH1 0x20 ADD DUP3 DUP1 SLOAD PUSH2 0x2344 SWAP1 PUSH2 0x2E8D JUMP JUMPDEST DUP1 ISZERO PUSH2 0x2391 JUMPI DUP1 PUSH1 0x1F LT PUSH2 0x2366 JUMPI PUSH2 0x100 DUP1 DUP4 SLOAD DIV MUL DUP4 MSTORE SWAP2 PUSH1 0x20 ADD SWAP2 PUSH2 0x2391 JUMP JUMPDEST DUP3 ADD SWAP2 SWAP1 PUSH1 0x0 MSTORE PUSH1 0x20 PUSH1 0x0 KECCAK256 SWAP1 JUMPDEST DUP2 SLOAD DUP2 MSTORE SWAP1 PUSH1 0x1 ADD SWAP1 PUSH1 0x20 ADD DUP1 DUP4 GT PUSH2 0x2374 JUMPI DUP3 SWAP1 SUB PUSH1 0x1F AND DUP3 ADD SWAP2 JUMPDEST POP POP POP POP POP DUP2 MSTORE PUSH1 0x20 ADD PUSH1 0x2 DUP3 ADD DUP1 SLOAD PUSH2 0x23AA SWAP1 PUSH2 0x2E8D JUMP JUMPDEST DUP1 PUSH1 0x1F ADD PUSH1 0x20 DUP1 SWAP2 DIV MUL PUSH1 0x20 ADD PUSH1 0x40 MLOAD SWAP1 DUP2 ADD PUSH1 0x40 MSTORE DUP1 SWAP3 SWAP2 SWAP1 DUP2 DUP2 MSTORE PUSH1 0x20 ADD DUP3 DUP1 SLOAD PUSH2 0x23D6 SWAP1 PUSH2 0x2E8D JUMP JUMPDEST DUP1 ISZERO PUSH2 0x2423 JUMPI DUP1 PUSH1 0x1F LT PUSH2 0x23F8 JUMPI PUSH2 0x100 DUP1 DUP4 SLOAD DIV MUL DUP4 MSTORE SWAP2 PUSH1 0x20 ADD SWAP2 PUSH2 0x2423 JUMP JUMPDEST DUP3 ADD SWAP2 SWAP1 PUSH1 0x0 MSTORE PUSH1 0x20 PUSH1 0x0 KECCAK256 SWAP1 JUMPDEST DUP2 SLOAD DUP2 MSTORE SWAP1 PUSH1 0x1 ADD SWAP1 PUSH1 0x20 ADD DUP1 DUP4 GT PUSH2 0x2406 JUMPI DUP3 SWAP1 SUB PUSH1 0x1F AND DUP3 ADD SWAP2 JUMPDEST POP POP POP POP POP DUP2 MSTORE PUSH1 0x20 ADD PUSH1 0x3 DUP3 ADD DUP1 SLOAD PUSH2 0x243C SWAP1 PUSH2 0x2E8D JUMP JUMPDEST DUP1 PUSH1 0x1F ADD PUSH1 0x20 DUP1 SWAP2 DIV MUL PUSH1 0x20 ADD PUSH1 0x40 MLOAD SWAP1 DUP2 ADD PUSH1 0x40 MSTORE DUP1 SWAP3 SWAP2 SWAP1 DUP2 DUP2 MSTORE PUSH1 0x20 ADD DUP3 DUP1 SLOAD PUSH2 0x2468 SWAP1 PUSH2 0x2E8D JUMP JUMPDEST DUP1 ISZERO PUSH2 0x24B5 JUMPI DUP1 PUSH1 0x1F LT PUSH2 0x248A JUMPI PUSH2 0x100 DUP1 DUP4 SLOAD DIV MUL DUP4 MSTORE SWAP2 PUSH1 0x20 ADD SWAP2 PUSH2 0x24B5 JUMP JUMPDEST DUP3 ADD SWAP2 SWAP1 PUSH1 0x0 MSTORE PUSH1 0x20 PUSH1 0x0 KECCAK256 SWAP1 JUMPDEST DUP2 SLOAD DUP2 MSTORE SWAP1 PUSH1 0x1 ADD SWAP1 PUSH1 0x20 ADD DUP1 DUP4 GT PUSH2 0x2498 JUMPI DUP3 SWAP1 SUB PUSH1 0x1F AND DUP3 ADD SWAP2 JUMPDEST POP POP POP POP POP DUP2 MSTORE PUSH1 0x20 ADD PUSH1 0x4 DUP3 ADD PUSH1 0x0 SWAP1 SLOAD SWAP1 PUSH2 0x100 EXP SWAP1 DIV PUSH1 0xFF AND ISZERO ISZERO ISZERO ISZERO DUP2 MSTORE POP POP DUP3 DUP3 DUP2 MLOAD DUP2 LT PUSH2 0x24EC JUMPI PUSH2 0x24EB PUSH2 0x31B3 JUMP JUMPDEST JUMPDEST PUSH1 0x20 MUL PUSH1 0x20 ADD ADD DUP2 SWAP1 MSTORE POP DUP1 DUP1 PUSH2 0x2502 SWAP1 PUSH2 0x3211 JUMP JUMPDEST SWAP2 POP POP PUSH2 0x2239 JUMP JUMPDEST POP DUP1 SWAP2 POP POP SWAP1 JUMP JUMPDEST PUSH1 0x40 MLOAD DUP1 PUSH1 0xA0 ADD PUSH1 0x40 MSTORE DUP1 PUSH1 0x0 PUSH1 0x2 DUP2 GT ISZERO PUSH2 0x2531 JUMPI PUSH2 0x2530 PUSH2 0x2783 JUMP JUMPDEST JUMPDEST DUP2 MSTORE PUSH1 0x20 ADD PUSH1 0x60 DUP2 MSTORE PUSH1 0x20 ADD PUSH1 0x60 DUP2 MSTORE PUSH1 0x20 ADD PUSH1 0x60 DUP2 MSTORE PUSH1 0x20 ADD PUSH1 0x0 ISZERO ISZERO DUP2 MSTORE POP SWAP1 JUMP JUMPDEST PUSH1 0x0 PUSH1 0x40 MLOAD SWAP1 POP SWAP1 JUMP JUMPDEST PUSH1 0x0 DUP1 REVERT JUMPDEST PUSH1 0x0 DUP1 REVERT JUMPDEST PUSH1 0x0 DUP1 REVERT JUMPDEST PUSH1 0x0 DUP1 REVERT JUMPDEST PUSH1 0x0 PUSH1 0x1F NOT PUSH1 0x1F DUP4 ADD AND SWAP1 POP SWAP2 SWAP1 POP JUMP JUMPDEST PUSH32 0x4E487B7100000000000000000000000000000000000000000000000000000000 PUSH1 0x0 MSTORE PUSH1 0x41 PUSH1 0x4 MSTORE PUSH1 0x24 PUSH1 0x0 REVERT JUMPDEST PUSH2 0x25BC DUP3 PUSH2 0x2573 JUMP JUMPDEST DUP2 ADD DUP2 DUP2 LT PUSH8 0xFFFFFFFFFFFFFFFF DUP3 GT OR ISZERO PUSH2 0x25DB JUMPI PUSH2 0x25DA PUSH2 0x2584 JUMP JUMPDEST JUMPDEST DUP1 PUSH1 0x40 MSTORE POP POP POP JUMP JUMPDEST PUSH1 0x0 PUSH2 0x25EE PUSH2 0x2555 JUMP JUMPDEST SWAP1 POP PUSH2 0x25FA DUP3 DUP3 PUSH2 0x25B3 JUMP JUMPDEST SWAP2 SWAP1 POP JUMP JUMPDEST PUSH1 0x0 PUSH8 0xFFFFFFFFFFFFFFFF DUP3 GT ISZERO PUSH2 0x261A JUMPI PUSH2 0x2619 PUSH2 0x2584 JUMP JUMPDEST JUMPDEST PUSH2 0x2623 DUP3 PUSH2 0x2573 JUMP JUMPDEST SWAP1 POP PUSH1 0x20 DUP2 ADD SWAP1 POP SWAP2 SWAP1 POP JUMP JUMPDEST DUP3 DUP2 DUP4 CALLDATACOPY PUSH1 0x0 DUP4 DUP4 ADD MSTORE POP POP POP JUMP JUMPDEST PUSH1 0x0 PUSH2 0x2652 PUSH2 0x264D DUP5 PUSH2 0x25FF JUMP JUMPDEST PUSH2 0x25E4 JUMP JUMPDEST SWAP1 POP DUP3 DUP2 MSTORE PUSH1 0x20 DUP2 ADD DUP5 DUP5 DUP5 ADD GT ISZERO PUSH2 0x266E JUMPI PUSH2 0x266D PUSH2 0x256E JUMP JUMPDEST JUMPDEST PUSH2 0x2679 DUP5 DUP3 DUP6 PUSH2 0x2630 JUMP JUMPDEST POP SWAP4 SWAP3 POP POP POP JUMP JUMPDEST PUSH1 0x0 DUP3 PUSH1 0x1F DUP4 ADD SLT PUSH2 0x2696 JUMPI PUSH2 0x2695 PUSH2 0x2569 JUMP JUMPDEST JUMPDEST DUP2 CALLDATALOAD PUSH2 0x26A6 DUP5 DUP3 PUSH1 0x20 DUP7 ADD PUSH2 0x263F JUMP JUMPDEST SWAP2 POP POP SWAP3 SWAP2 POP POP JUMP JUMPDEST PUSH1 0x0 PUSH1 0x20 DUP3 DUP5 SUB SLT ISZERO PUSH2 0x26C5 JUMPI PUSH2 0x26C4 PUSH2 0x255F JUMP JUMPDEST JUMPDEST PUSH1 0x0 DUP3 ADD CALLDATALOAD PUSH8 0xFFFFFFFFFFFFFFFF DUP2 GT ISZERO PUSH2 0x26E3 JUMPI PUSH2 0x26E2 PUSH2 0x2564 JUMP JUMPDEST JUMPDEST PUSH2 0x26EF DUP5 DUP3 DUP6 ADD PUSH2 0x2681 JUMP JUMPDEST SWAP2 POP POP SWAP3 SWAP2 POP POP JUMP JUMPDEST PUSH1 0x0 PUSH20 0xFFFFFFFFFFFFFFFFFFFFFFFFFFFFFFFFFFFFFFFF DUP3 AND SWAP1 POP SWAP2 SWAP1 POP JUMP JUMPDEST PUSH1 0x0 PUSH2 0x2723 DUP3 PUSH2 0x26F8 JUMP JUMPDEST SWAP1 POP SWAP2 SWAP1 POP JUMP JUMPDEST PUSH2 0x2733 DUP2 PUSH2 0x2718 JUMP JUMPDEST DUP2 EQ PUSH2 0x273E JUMPI PUSH1 0x0 DUP1 REVERT JUMPDEST POP JUMP JUMPDEST PUSH1 0x0 DUP2 CALLDATALOAD SWAP1 POP PUSH2 0x2750 DUP2 PUSH2 0x272A JUMP JUMPDEST SWAP3 SWAP2 POP POP JUMP JUMPDEST PUSH1 0x0 PUSH1 0x20 DUP3 DUP5 SUB SLT ISZERO PUSH2 0x276C JUMPI PUSH2 0x276B PUSH2 0x255F JUMP JUMPDEST JUMPDEST PUSH1 0x0 PUSH2 0x277A DUP5 DUP3 DUP6 ADD PUSH2 0x2741 JUMP JUMPDEST SWAP2 POP POP SWAP3 SWAP2 POP POP JUMP JUMPDEST PUSH32 0x4E487B7100000000000000000000000000000000000000000000000000000000 PUSH1 0x0 MSTORE PUSH1 0x21 PUSH1 0x4 MSTORE PUSH1 0x24 PUSH1 0x0 REVERT JUMPDEST PUSH1 0x3 DUP2 LT PUSH2 0x27C3 JUMPI PUSH2 0x27C2 PUSH2 0x2783 JUMP JUMPDEST JUMPDEST POP JUMP JUMPDEST PUSH1 0x0 DUP2 SWAP1 POP PUSH2 0x27D4 DUP3 PUSH2 0x27B2 JUMP JUMPDEST SWAP2 SWAP1 POP JUMP JUMPDEST PUSH1 0x0 PUSH2 0x27E4 DUP3 PUSH2 0x27C6 JUMP JUMPDEST SWAP1 POP SWAP2 SWAP1 POP JUMP JUMPDEST PUSH2 0x27F4 DUP2 PUSH2 0x27D9 JUMP JUMPDEST DUP3 MSTORE POP POP JUMP JUMPDEST PUSH1 0x0 DUP2 MLOAD SWAP1 POP SWAP2 SWAP1 POP JUMP JUMPDEST PUSH1 0x0 DUP3 DUP3 MSTORE PUSH1 0x20 DUP3 ADD SWAP1 POP SWAP3 SWAP2 POP POP JUMP JUMPDEST PUSH1 0x0 JUMPDEST DUP4 DUP2 LT ISZERO PUSH2 0x2834 JUMPI DUP1 DUP3 ADD MLOAD DUP2 DUP5 ADD MSTORE PUSH1 0x20 DUP2 ADD SWAP1 POP PUSH2 0x2819 JUMP JUMPDEST PUSH1 0x0 DUP5 DUP5 ADD MSTORE POP POP POP POP JUMP JUMPDEST PUSH1 0x0 PUSH2 0x284B DUP3 PUSH2 0x27FA JUMP JUMPDEST PUSH2 0x2855 DUP2 DUP6 PUSH2 0x2805 JUMP JUMPDEST SWAP4 POP PUSH2 0x2865 DUP2 DUP6 PUSH1 0x20 DUP7 ADD PUSH2 0x2816 JUMP JUMPDEST PUSH2 0x286E DUP2 PUSH2 0x2573 JUMP JUMPDEST DUP5 ADD SWAP2 POP POP SWAP3 SWAP2 POP POP JUMP JUMPDEST PUSH1 0x0 DUP2 ISZERO ISZERO SWAP1 POP SWAP2 SWAP1 POP JUMP JUMPDEST PUSH2 0x288E DUP2 PUSH2 0x2879 JUMP JUMPDEST DUP3 MSTORE POP POP JUMP JUMPDEST PUSH1 0x0 PUSH1 0xA0 DUP4 ADD PUSH1 0x0 DUP4 ADD MLOAD PUSH2 0x28AC PUSH1 0x0 DUP7 ADD DUP3 PUSH2 0x27EB JUMP JUMPDEST POP PUSH1 0x20 DUP4 ADD MLOAD DUP5 DUP3 SUB PUSH1 0x20 DUP7 ADD MSTORE PUSH2 0x28C4 DUP3 DUP3 PUSH2 0x2840 JUMP JUMPDEST SWAP2 POP POP PUSH1 0x40 DUP4 ADD MLOAD DUP5 DUP3 SUB PUSH1 0x40 DUP7 ADD MSTORE PUSH2 0x28DE DUP3 DUP3 PUSH2 0x2840 JUMP JUMPDEST SWAP2 POP POP PUSH1 0x60 DUP4 ADD MLOAD DUP5 DUP3 SUB PUSH1 0x60 DUP7 ADD MSTORE PUSH2 0x28F8 DUP3 DUP3 PUSH2 0x2840 JUMP JUMPDEST SWAP2 POP POP PUSH1 0x80 DUP4 ADD MLOAD PUSH2 0x290D PUSH1 0x80 DUP7 ADD DUP3 PUSH2 0x2885 JUMP JUMPDEST POP DUP1 SWAP2 POP POP SWAP3 SWAP2 POP POP JUMP JUMPDEST PUSH1 0x0 PUSH1 0x20 DUP3 ADD SWAP1 POP DUP2 DUP2 SUB PUSH1 0x0 DUP4 ADD MSTORE PUSH2 0x2932 DUP2 DUP5 PUSH2 0x2894 JUMP JUMPDEST SWAP1 POP SWAP3 SWAP2 POP POP JUMP JUMPDEST PUSH1 0x0 DUP2 SWAP1 POP SWAP2 SWAP1 POP JUMP JUMPDEST PUSH2 0x294D DUP2 PUSH2 0x293A JUMP JUMPDEST DUP2 EQ PUSH2 0x2958 JUMPI PUSH1 0x0 DUP1 REVERT JUMPDEST POP JUMP JUMPDEST PUSH1 0x0 DUP2 CALLDATALOAD SWAP1 POP PUSH2 0x296A DUP2 PUSH2 0x2944 JUMP JUMPDEST SWAP3 SWAP2 POP POP JUMP JUMPDEST PUSH1 0x0 PUSH1 0x20 DUP3 DUP5 SUB SLT ISZERO PUSH2 0x2986 JUMPI PUSH2 0x2985 PUSH2 0x255F JUMP JUMPDEST JUMPDEST PUSH1 0x0 PUSH2 0x2994 DUP5 DUP3 DUP6 ADD PUSH2 0x295B JUMP JUMPDEST SWAP2 POP POP SWAP3 SWAP2 POP POP JUMP JUMPDEST PUSH2 0x29A6 DUP2 PUSH2 0x2718 JUMP JUMPDEST DUP3 MSTORE POP POP JUMP JUMPDEST PUSH1 0x0 PUSH1 0x20 DUP3 ADD SWAP1 POP PUSH2 0x29C1 PUSH1 0x0 DUP4 ADD DUP5 PUSH2 0x299D JUMP JUMPDEST SWAP3 SWAP2 POP POP JUMP JUMPDEST PUSH2 0x29D0 DUP2 PUSH2 0x27D9 JUMP JUMPDEST DUP3 MSTORE POP POP JUMP JUMPDEST PUSH1 0x0 DUP3 DUP3 MSTORE PUSH1 0x20 DUP3 ADD SWAP1 POP SWAP3 SWAP2 POP POP JUMP JUMPDEST PUSH1 0x0 PUSH2 0x29F2 DUP3 PUSH2 0x27FA JUMP JUMPDEST PUSH2 0x29FC DUP2 DUP6 PUSH2 0x29D6 JUMP JUMPDEST SWAP4 POP PUSH2 0x2A0C DUP2 DUP6 PUSH1 0x20 DUP7 ADD PUSH2 0x2816 JUMP JUMPDEST PUSH2 0x2A15 DUP2 PUSH2 0x2573 JUMP JUMPDEST DUP5 ADD SWAP2 POP POP SWAP3 SWAP2 POP POP JUMP JUMPDEST PUSH2 0x2A29 DUP2 PUSH2 0x2879 JUMP JUMPDEST DUP3 MSTORE POP POP JUMP JUMPDEST PUSH1 0x0 PUSH1 0xA0 DUP3 ADD SWAP1 POP PUSH2 0x2A44 PUSH1 0x0 DUP4 ADD DUP9 PUSH2 0x29C7 JUMP JUMPDEST DUP2 DUP2 SUB PUSH1 0x20 DUP4 ADD MSTORE PUSH2 0x2A56 DUP2 DUP8 PUSH2 0x29E7 JUMP JUMPDEST SWAP1 POP DUP2 DUP2 SUB PUSH1 0x40 DUP4 ADD MSTORE PUSH2 0x2A6A DUP2 DUP7 PUSH2 0x29E7 JUMP JUMPDEST SWAP1 POP DUP2 DUP2 SUB PUSH1 0x60 DUP4 ADD MSTORE PUSH2 0x2A7E DUP2 DUP6 PUSH2 0x29E7 JUMP JUMPDEST SWAP1 POP PUSH2 0x2A8D PUSH1 0x80 DUP4 ADD DUP5 PUSH2 0x2A20 JUMP JUMPDEST SWAP7 SWAP6 POP POP POP POP POP POP JUMP JUMPDEST PUSH1 0x0 DUP2 MLOAD SWAP1 POP SWAP2 SWAP1 POP JUMP JUMPDEST PUSH1 0x0 DUP3 DUP3 MSTORE PUSH1 0x20 DUP3 ADD SWAP1 POP SWAP3 SWAP2 POP POP JUMP JUMPDEST PUSH1 0x0 DUP2 SWAP1 POP PUSH1 0x20 DUP3 ADD SWAP1 POP SWAP2 SWAP1 POP JUMP JUMPDEST PUSH1 0x0 PUSH1 0xA0 DUP4 ADD PUSH1 0x0 DUP4 ADD MLOAD PUSH2 0x2ADB PUSH1 0x0 DUP7 ADD DUP3 PUSH2 0x27EB JUMP JUMPDEST POP PUSH1 0x20 DUP4 ADD MLOAD DUP5 DUP3 SUB PUSH1 0x20 DUP7 ADD MSTORE PUSH2 0x2AF3 DUP3 DUP3 PUSH2 0x2840 JUMP JUMPDEST SWAP2 POP POP PUSH1 0x40 DUP4 ADD MLOAD DUP5 DUP3 SUB PUSH1 0x40 DUP7 ADD MSTORE PUSH2 0x2B0D DUP3 DUP3 PUSH2 0x2840 JUMP JUMPDEST SWAP2 POP POP PUSH1 0x60 DUP4 ADD MLOAD DUP5 DUP3 SUB PUSH1 0x60 DUP7 ADD MSTORE PUSH2 0x2B27 DUP3 DUP3 PUSH2 0x2840 JUMP JUMPDEST SWAP2 POP POP PUSH1 0x80 DUP4 ADD MLOAD PUSH2 0x2B3C PUSH1 0x80 DUP7 ADD DUP3 PUSH2 0x2885 JUMP JUMPDEST POP DUP1 SWAP2 POP POP SWAP3 SWAP2 POP POP JUMP JUMPDEST PUSH1 0x0 PUSH2 0x2B53 DUP4 DUP4 PUSH2 0x2AC3 JUMP JUMPDEST SWAP1 POP SWAP3 SWAP2 POP POP JUMP JUMPDEST PUSH1 0x0 PUSH1 0x20 DUP3 ADD SWAP1 POP SWAP2 SWAP1 POP JUMP JUMPDEST PUSH1 0x0 PUSH2 0x2B73 DUP3 PUSH2 0x2A97 JUMP JUMPDEST PUSH2 0x2B7D DUP2 DUP6 PUSH2 0x2AA2 JUMP JUMPDEST SWAP4 POP DUP4 PUSH1 0x20 DUP3 MUL DUP6 ADD PUSH2 0x2B8F DUP6 PUSH2 0x2AB3 JUMP JUMPDEST DUP1 PUSH1 0x0 JUMPDEST DUP6 DUP2 LT ISZERO PUSH2 0x2BCB JUMPI DUP5 DUP5 SUB DUP10 MSTORE DUP2 MLOAD PUSH2 0x2BAC DUP6 DUP3 PUSH2 0x2B47 JUMP JUMPDEST SWAP5 POP PUSH2 0x2BB7 DUP4 PUSH2 0x2B5B JUMP JUMPDEST SWAP3 POP PUSH1 0x20 DUP11 ADD SWAP10 POP POP PUSH1 0x1 DUP2 ADD SWAP1 POP PUSH2 0x2B93 JUMP JUMPDEST POP DUP3 SWAP8 POP DUP8 SWAP6 POP POP POP POP POP POP SWAP3 SWAP2 POP POP JUMP JUMPDEST PUSH1 0x0 PUSH1 0x20 DUP3 ADD SWAP1 POP DUP2 DUP2 SUB PUSH1 0x0 DUP4 ADD MSTORE PUSH2 0x2BF7 DUP2 DUP5 PUSH2 0x2B68 JUMP JUMPDEST SWAP1 POP SWAP3 SWAP2 POP POP JUMP JUMPDEST PUSH1 0x3 DUP2 LT PUSH2 0x2C0C JUMPI PUSH1 0x0 DUP1 REVERT JUMPDEST POP JUMP JUMPDEST PUSH1 0x0 DUP2 CALLDATALOAD SWAP1 POP PUSH2 0x2C1E DUP2 PUSH2 0x2BFF JUMP JUMPDEST SWAP3 SWAP2 POP POP JUMP JUMPDEST PUSH1 0x0 DUP1 REVERT JUMPDEST PUSH1 0x0 DUP1 REVERT JUMPDEST PUSH1 0x0 DUP1 DUP4 PUSH1 0x1F DUP5 ADD SLT PUSH2 0x2C44 JUMPI PUSH2 0x2C43 PUSH2 0x2569 JUMP JUMPDEST JUMPDEST DUP3 CALLDATALOAD SWAP1 POP PUSH8 0xFFFFFFFFFFFFFFFF DUP2 GT ISZERO PUSH2 0x2C61 JUMPI PUSH2 0x2C60 PUSH2 0x2C24 JUMP JUMPDEST JUMPDEST PUSH1 0x20 DUP4 ADD SWAP2 POP DUP4 PUSH1 0x1 DUP3 MUL DUP4 ADD GT ISZERO PUSH2 0x2C7D JUMPI PUSH2 0x2C7C PUSH2 0x2C29 JUMP JUMPDEST JUMPDEST SWAP3 POP SWAP3 SWAP1 POP JUMP JUMPDEST PUSH1 0x0 DUP1 PUSH1 0x0 DUP1 PUSH1 0x0 DUP1 PUSH1 0x80 DUP8 DUP10 SUB SLT ISZERO PUSH2 0x2CA1 JUMPI PUSH2 0x2CA0 PUSH2 0x255F JUMP JUMPDEST JUMPDEST PUSH1 0x0 PUSH2 0x2CAF DUP10 DUP3 DUP11 ADD PUSH2 0x2C0F JUMP JUMPDEST SWAP7 POP POP PUSH1 0x20 DUP8 ADD CALLDATALOAD PUSH8 0xFFFFFFFFFFFFFFFF DUP2 GT ISZERO PUSH2 0x2CD0 JUMPI PUSH2 0x2CCF PUSH2 0x2564 JUMP JUMPDEST JUMPDEST PUSH2 0x2CDC DUP10 DUP3 DUP11 ADD PUSH2 0x2C2E JUMP JUMPDEST SWAP6 POP SWAP6 POP POP PUSH1 0x40 DUP8 ADD CALLDATALOAD PUSH8 0xFFFFFFFFFFFFFFFF DUP2 GT ISZERO PUSH2 0x2CFF JUMPI PUSH2 0x2CFE PUSH2 0x2564 JUMP JUMPDEST JUMPDEST PUSH2 0x2D0B DUP10 DUP3 DUP11 ADD PUSH2 0x2C2E JUMP JUMPDEST SWAP4 POP SWAP4 POP POP PUSH1 0x60 DUP8 ADD CALLDATALOAD PUSH8 0xFFFFFFFFFFFFFFFF DUP2 GT ISZERO PUSH2 0x2D2E JUMPI PUSH2 0x2D2D PUSH2 0x2564 JUMP JUMPDEST JUMPDEST PUSH2 0x2D3A DUP10 DUP3 DUP11 ADD PUSH2 0x2681 JUMP JUMPDEST SWAP2 POP POP SWAP3 SWAP6 POP SWAP3 SWAP6 POP SWAP3 SWAP6 JUMP JUMPDEST PUSH1 0x0 DUP2 MLOAD SWAP1 POP SWAP2 SWAP1 POP JUMP JUMPDEST PUSH1 0x0 DUP3 DUP3 MSTORE PUSH1 0x20 DUP3 ADD SWAP1 POP SWAP3 SWAP2 POP POP JUMP JUMPDEST PUSH1 0x0 DUP2 SWAP1 POP PUSH1 0x20 DUP3 ADD SWAP1 POP SWAP2 SWAP1 POP JUMP JUMPDEST PUSH2 0x2D7C DUP2 PUSH2 0x2718 JUMP JUMPDEST DUP3 MSTORE POP POP JUMP JUMPDEST PUSH1 0x0 PUSH2 0x2D8E DUP4 DUP4 PUSH2 0x2D73 JUMP JUMPDEST PUSH1 0x20 DUP4 ADD SWAP1 POP SWAP3 SWAP2 POP POP JUMP JUMPDEST PUSH1 0x0 PUSH1 0x20 DUP3 ADD SWAP1 POP SWAP2 SWAP1 POP JUMP JUMPDEST PUSH1 0x0 PUSH2 0x2DB2 DUP3 PUSH2 0x2D47 JUMP JUMPDEST PUSH2 0x2DBC DUP2 DUP6 PUSH2 0x2D52 JUMP JUMPDEST SWAP4 POP PUSH2 0x2DC7 DUP4 PUSH2 0x2D63 JUMP JUMPDEST DUP1 PUSH1 0x0 JUMPDEST DUP4 DUP2 LT ISZERO PUSH2 0x2DF8 JUMPI DUP2 MLOAD PUSH2 0x2DDF DUP9 DUP3 PUSH2 0x2D82 JUMP JUMPDEST SWAP8 POP PUSH2 0x2DEA DUP4 PUSH2 0x2D9A JUMP JUMPDEST SWAP3 POP POP PUSH1 0x1 DUP2 ADD SWAP1 POP PUSH2 0x2DCB JUMP JUMPDEST POP DUP6 SWAP4 POP POP POP POP SWAP3 SWAP2 POP POP JUMP JUMPDEST PUSH1 0x0 PUSH1 0x40 DUP3 ADD SWAP1 POP DUP2 DUP2 SUB PUSH1 0x0 DUP4 ADD MSTORE PUSH2 0x2E1F DUP2 DUP6 PUSH2 0x2DA7 JUMP JUMPDEST SWAP1 POP DUP2 DUP2 SUB PUSH1 0x20 DUP4 ADD MSTORE PUSH2 0x2E33 DUP2 DUP5 PUSH2 0x2B68 JUMP JUMPDEST SWAP1 POP SWAP4 SWAP3 POP POP POP JUMP JUMPDEST PUSH1 0x0 PUSH1 0x20 DUP3 ADD SWAP1 POP DUP2 DUP2 SUB PUSH1 0x0 DUP4 ADD MSTORE PUSH2 0x2E56 DUP2 DUP5 PUSH2 0x2DA7 JUMP JUMPDEST SWAP1 POP SWAP3 SWAP2 POP POP JUMP JUMPDEST PUSH32 0x4E487B7100000000000000000000000000000000000000000000000000000000 PUSH1 0x0 MSTORE PUSH1 0x22 PUSH1 0x4 MSTORE PUSH1 0x24 PUSH1 0x0 REVERT JUMPDEST PUSH1 0x0 PUSH1 0x2 DUP3 DIV SWAP1 POP PUSH1 0x1 DUP3 AND DUP1 PUSH2 0x2EA5 JUMPI PUSH1 0x7F DUP3 AND SWAP2 POP JUMPDEST PUSH1 0x20 DUP3 LT DUP2 SUB PUSH2 0x2EB8 JUMPI PUSH2 0x2EB7 PUSH2 0x2E5E JUMP JUMPDEST JUMPDEST POP SWAP2 SWAP1 POP JUMP JUMPDEST PUSH1 0x0 DUP2 SWAP1 POP DUP2 PUSH1 0x0 MSTORE PUSH1 0x20 PUSH1 0x0 KECCAK256 SWAP1 POP SWAP2 SWAP1 POP JUMP JUMPDEST PUSH1 0x0 PUSH1 0x20 PUSH1 0x1F DUP4 ADD DIV SWAP1 POP SWAP2 SWAP1 POP JUMP JUMPDEST PUSH1 0x0 DUP3 DUP3 SHL SWAP1 POP SWAP3 SWAP2 POP POP JUMP JUMPDEST PUSH1 0x0 PUSH1 0x8 DUP4 MUL PUSH2 0x2F20 PUSH32 0xFFFFFFFFFFFFFFFFFFFFFFFFFFFFFFFFFFFFFFFFFFFFFFFFFFFFFFFFFFFFFFFF DUP3 PUSH2 0x2EE3 JUMP JUMPDEST PUSH2 0x2F2A DUP7 DUP4 PUSH2 0x2EE3 JUMP JUMPDEST SWAP6 POP DUP1 NOT DUP5 AND SWAP4 POP DUP1 DUP7 AND DUP5 OR SWAP3 POP POP POP SWAP4 SWAP3 POP POP POP JUMP JUMPDEST PUSH1 0x0 DUP2 SWAP1 POP SWAP2 SWAP1 POP JUMP JUMPDEST PUSH1 0x0 PUSH2 0x2F67 PUSH2 0x2F62 PUSH2 0x2F5D DUP5 PUSH2 0x293A JUMP JUMPDEST PUSH2 0x2F42 JUMP JUMPDEST PUSH2 0x293A JUMP JUMPDEST SWAP1 POP SWAP2 SWAP1 POP JUMP JUMPDEST PUSH1 0x0 DUP2 SWAP1 POP SWAP2 SWAP1 POP JUMP JUMPDEST PUSH2 0x2F81 DUP4 PUSH2 0x2F4C JUMP JUMPDEST PUSH2 0x2F95 PUSH2 0x2F8D DUP3 PUSH2 0x2F6E JUMP JUMPDEST DUP5 DUP5 SLOAD PUSH2 0x2EF0 JUMP JUMPDEST DUP3 SSTORE POP POP POP POP JUMP JUMPDEST PUSH1 0x0 SWAP1 JUMP JUMPDEST PUSH2 0x2FAA PUSH2 0x2F9D JUMP JUMPDEST PUSH2 0x2FB5 DUP2 DUP5 DUP5 PUSH2 0x2F78 JUMP JUMPDEST POP POP POP JUMP JUMPDEST JUMPDEST DUP2 DUP2 LT ISZERO PUSH2 0x2FD9 JUMPI PUSH2 0x2FCE PUSH1 0x0 DUP3 PUSH2 0x2FA2 JUMP JUMPDEST PUSH1 0x1 DUP2 ADD SWAP1 POP PUSH2 0x2FBB JUMP JUMPDEST POP POP JUMP JUMPDEST PUSH1 0x1F DUP3 GT ISZERO PUSH2 0x301E JUMPI PUSH2 0x2FEF DUP2 PUSH2 0x2EBE JUMP JUMPDEST PUSH2 0x2FF8 DUP5 PUSH2 0x2ED3 JUMP JUMPDEST DUP2 ADD PUSH1 0x20 DUP6 LT ISZERO PUSH2 0x3007 JUMPI DUP2 SWAP1 POP JUMPDEST PUSH2 0x301B PUSH2 0x3013 DUP6 PUSH2 0x2ED3 JUMP JUMPDEST DUP4 ADD DUP3 PUSH2 0x2FBA JUMP JUMPDEST POP POP JUMPDEST POP POP POP JUMP JUMPDEST PUSH1 0x0 DUP3 DUP3 SHR SWAP1 POP SWAP3 SWAP2 POP POP JUMP JUMPDEST PUSH1 0x0 PUSH2 0x3041 PUSH1 0x0 NOT DUP5 PUSH1 0x8 MUL PUSH2 0x3023 JUMP JUMPDEST NOT DUP1 DUP4 AND SWAP2 POP POP SWAP3 SWAP2 POP POP JUMP JUMPDEST PUSH1 0x0 PUSH2 0x305A DUP4 DUP4 PUSH2 0x3030 JUMP JUMPDEST SWAP2 POP DUP3 PUSH1 0x2 MUL DUP3 OR SWAP1 POP SWAP3 SWAP2 POP POP JUMP JUMPDEST PUSH2 0x3073 DUP3 PUSH2 0x27FA JUMP JUMPDEST PUSH8 0xFFFFFFFFFFFFFFFF DUP2 GT ISZERO PUSH2 0x308C JUMPI PUSH2 0x308B PUSH2 0x2584 JUMP JUMPDEST JUMPDEST PUSH2 0x3096 DUP3 SLOAD PUSH2 0x2E8D JUMP JUMPDEST PUSH2 0x30A1 DUP3 DUP3 DUP6 PUSH2 0x2FDD JUMP JUMPDEST PUSH1 0x0 PUSH1 0x20 SWAP1 POP PUSH1 0x1F DUP4 GT PUSH1 0x1 DUP2 EQ PUSH2 0x30D4 JUMPI PUSH1 0x0 DUP5 ISZERO PUSH2 0x30C2 JUMPI DUP3 DUP8 ADD MLOAD SWAP1 POP JUMPDEST PUSH2 0x30CC DUP6 DUP3 PUSH2 0x304E JUMP JUMPDEST DUP7 SSTORE POP PUSH2 0x3134 JUMP JUMPDEST PUSH1 0x1F NOT DUP5 AND PUSH2 0x30E2 DUP7 PUSH2 0x2EBE JUMP JUMPDEST PUSH1 0x0 JUMPDEST DUP3 DUP2 LT ISZERO PUSH2 0x310A JUMPI DUP5 DUP10 ADD MLOAD DUP3 SSTORE PUSH1 0x1 DUP3 ADD SWAP2 POP PUSH1 0x20 DUP6 ADD SWAP5 POP PUSH1 0x20 DUP2 ADD SWAP1 POP PUSH2 0x30E5 JUMP JUMPDEST DUP7 DUP4 LT ISZERO PUSH2 0x3127 JUMPI DUP5 DUP10 ADD MLOAD PUSH2 0x3123 PUSH1 0x1F DUP10 AND DUP3 PUSH2 0x3030 JUMP JUMPDEST DUP4 SSTORE POP JUMPDEST PUSH1 0x1 PUSH1 0x2 DUP9 MUL ADD DUP9 SSTORE POP POP POP JUMPDEST POP POP POP POP POP POP JUMP JUMPDEST PUSH2 0x3145 DUP2 PUSH2 0x293A JUMP JUMPDEST DUP3 MSTORE POP POP JUMP JUMPDEST PUSH1 0x0 PUSH1 0xA0 DUP3 ADD SWAP1 POP PUSH2 0x3160 PUSH1 0x0 DUP4 ADD DUP9 PUSH2 0x29C7 JUMP JUMPDEST DUP2 DUP2 SUB PUSH1 0x20 DUP4 ADD MSTORE PUSH2 0x3172 DUP2 DUP8 PUSH2 0x29E7 JUMP JUMPDEST SWAP1 POP DUP2 DUP2 SUB PUSH1 0x40 DUP4 ADD MSTORE PUSH2 0x3186 DUP2 DUP7 PUSH2 0x29E7 JUMP JUMPDEST SWAP1 POP DUP2 DUP2 SUB PUSH1 0x60 DUP4 ADD MSTORE PUSH2 0x319A DUP2 DUP6 PUSH2 0x29E7 JUMP JUMPDEST SWAP1 POP PUSH2 0x31A9 PUSH1 0x80 DUP4 ADD DUP5 PUSH2 0x313C JUMP JUMPDEST SWAP7 SWAP6 POP POP POP POP POP POP JUMP JUMPDEST PUSH32 0x4E487B7100000000000000000000000000000000000000000000000000000000 PUSH1 0x0 MSTORE PUSH1 0x32 PUSH1 0x4 MSTORE PUSH1 0x24 PUSH1 0x0 REVERT JUMPDEST PUSH32 0x4E487B7100000000000000000000000000000000000000000000000000000000 PUSH1 0x0 MSTORE PUSH1 0x11 PUSH1 0x4 MSTORE PUSH1 0x24 PUSH1 0x0 REVERT JUMPDEST PUSH1 0x0 PUSH2 0x321C DUP3 PUSH2 0x293A JUMP JUMPDEST SWAP2 POP PUSH32 0xFFFFFFFFFFFFFFFFFFFFFFFFFFFFFFFFFFFFFFFFFFFFFFFFFFFFFFFFFFFFFFFF DUP3 SUB PUSH2 0x324E JUMPI PUSH2 0x324D PUSH2 0x31E2 JUMP JUMPDEST JUMPDEST PUSH1 0x1 DUP3 ADD SWAP1 POP SWAP2 SWAP1 POP JUMP JUMPDEST PUSH1 0x0 DUP3 DUP3 MSTORE PUSH1 0x20 DUP3 ADD SWAP1 POP SWAP3 SWAP2 POP POP JUMP JUMPDEST PUSH32 0x5573657220616C72656164792072656769737465726564000000000000000000 PUSH1 0x0 DUP3 ADD MSTORE POP JUMP JUMPDEST PUSH1 0x0 PUSH2 0x32A0 PUSH1 0x17 DUP4 PUSH2 0x3259 JUMP JUMPDEST SWAP2 POP PUSH2 0x32AB DUP3 PUSH2 0x326A JUMP JUMPDEST PUSH1 0x20 DUP3 ADD SWAP1 POP SWAP2 SWAP1 POP JUMP JUMPDEST PUSH1 0x0 PUSH1 0x20 DUP3 ADD SWAP1 POP DUP2 DUP2 SUB PUSH1 0x0 DUP4 ADD MSTORE PUSH2 0x32CF DUP2 PUSH2 0x3293 JUMP JUMPDEST SWAP1 POP SWAP2 SWAP1 POP JUMP JUMPDEST PUSH1 0x0 PUSH2 0x32E2 DUP4 DUP6 PUSH2 0x29D6 JUMP JUMPDEST SWAP4 POP PUSH2 0x32EF DUP4 DUP6 DUP5 PUSH2 0x2630 JUMP JUMPDEST PUSH2 0x32F8 DUP4 PUSH2 0x2573 JUMP JUMPDEST DUP5 ADD SWAP1 POP SWAP4 SWAP3 POP POP POP JUMP JUMPDEST PUSH1 0x0 PUSH1 0xA0 DUP3 ADD SWAP1 POP PUSH2 0x3318 PUSH1 0x0 DUP4 ADD DUP11 PUSH2 0x29C7 JUMP JUMPDEST DUP2 DUP2 SUB PUSH1 0x20 DUP4 ADD MSTORE PUSH2 0x332B DUP2 DUP9 DUP11 PUSH2 0x32D6 JUMP JUMPDEST SWAP1 POP DUP2 DUP2 SUB PUSH1 0x40 DUP4 ADD MSTORE PUSH2 0x3340 DUP2 DUP7 DUP9 PUSH2 0x32D6 JUMP JUMPDEST SWAP1 POP DUP2 DUP2 SUB PUSH1 0x60 DUP4 ADD MSTORE PUSH2 0x3354 DUP2 DUP6 PUSH2 0x29E7 JUMP JUMPDEST SWAP1 POP PUSH2 0x3363 PUSH1 0x80 DUP4 ADD DUP5 PUSH2 0x313C JUMP JUMPDEST SWAP9 SWAP8 POP POP POP POP POP POP POP POP JUMP INVALID LOG2 PUSH5 0x6970667358 0x22 SLT KECCAK256 0xD1 0x4C 0xC7 PUSH21 0x6935B6303C11BE63D9C840F396562BE94BF610E4CE 0xAA BALANCE 0xAE 0xDE DUP9 0x4E 0xA5 PUSH5 0x736F6C6343 STOP ADDMOD SGT STOP CALLER "
				},
				"gasEstimates": {
					"creation": {
						"codeDepositCost": "2644200",
						"executionCost": "2869",
						"totalCost": "2647069"
					},
					"external": {
						"addUser(uint8,bytes,bytes,bytes)": "infinite",
						"deleteUser()": "25690",
						"distributors(uint256)": "4979",
						"editImage(bytes)": "infinite",
						"editName(bytes)": "infinite",
						"editPhysicalAddress(bytes)": "infinite",
						"getAllDistributors()": "infinite",
						"getAllManufacturers()": "infinite",
						"getAllSupplierAddresses()": "infinite",
						"getAllSuppliers()": "infinite",
						"getAllUsers()": "infinite",
						"getSingleUser(address)": "infinite",
						"manufacturers(uint256)": "4979",
						"suppliers(uint256)": "4978",
						"userDetailsMapping(address)": "infinite",
						"users(uint256)": "5046"
					}
				},
				"methodIdentifiers": {
					"addUser(uint8,bytes,bytes,bytes)": "9ae7d008",
					"deleteUser()": "026ff05e",
					"distributors(uint256)": "50b492ba",
					"editImage(bytes)": "d1bab143",
					"editName(bytes)": "0c6c92ba",
					"editPhysicalAddress(bytes)": "6a26d064",
					"getAllDistributors()": "8e24c34b",
					"getAllManufacturers()": "ddba07a4",
					"getAllSupplierAddresses()": "c7bbd67e",
					"getAllSuppliers()": "b53305dc",
					"getAllUsers()": "e2842d79",
					"getSingleUser(address)": "35852541",
					"manufacturers(uint256)": "90175af1",
					"suppliers(uint256)": "cea23121",
					"userDetailsMapping(address)": "5166608f",
					"users(uint256)": "365b98b2"
				}
			},
			"storageLayout": {
				"storage": [
					{
						"astId": 78,
						"contract": "contracts/userDetails.sol:userDetails",
						"label": "userDetailsMapping",
						"offset": 0,
						"slot": "0",
						"type": "t_mapping(t_address,t_struct(userDetails)17_storage)"
					},
					{
						"astId": 82,
						"contract": "contracts/userDetails.sol:userDetails",
						"label": "users",
						"offset": 0,
						"slot": "1",
						"type": "t_array(t_address)dyn_storage"
					},
					{
						"astId": 85,
						"contract": "contracts/userDetails.sol:userDetails",
						"label": "suppliers",
						"offset": 0,
						"slot": "2",
						"type": "t_array(t_address)dyn_storage"
					},
					{
						"astId": 88,
						"contract": "contracts/userDetails.sol:userDetails",
						"label": "manufacturers",
						"offset": 0,
						"slot": "3",
						"type": "t_array(t_address)dyn_storage"
					},
					{
						"astId": 91,
						"contract": "contracts/userDetails.sol:userDetails",
						"label": "distributors",
						"offset": 0,
						"slot": "4",
						"type": "t_array(t_address)dyn_storage"
					}
				],
				"types": {
					"t_address": {
						"encoding": "inplace",
						"label": "address",
						"numberOfBytes": "20"
					},
					"t_array(t_address)dyn_storage": {
						"base": "t_address",
						"encoding": "dynamic_array",
						"label": "address[]",
						"numberOfBytes": "32"
					},
					"t_bool": {
						"encoding": "inplace",
						"label": "bool",
						"numberOfBytes": "1"
					},
					"t_bytes_storage": {
						"encoding": "bytes",
						"label": "bytes",
						"numberOfBytes": "32"
					},
					"t_enum(userType)5": {
						"encoding": "inplace",
						"label": "enum IUserDetails.userType",
						"numberOfBytes": "1"
					},
					"t_mapping(t_address,t_struct(userDetails)17_storage)": {
						"encoding": "mapping",
						"key": "t_address",
						"label": "mapping(address => struct IUserDetails.userDetails)",
						"numberOfBytes": "32",
						"value": "t_struct(userDetails)17_storage"
					},
					"t_struct(userDetails)17_storage": {
						"encoding": "inplace",
						"label": "struct IUserDetails.userDetails",
						"members": [
							{
								"astId": 8,
								"contract": "contracts/userDetails.sol:userDetails",
								"label": "userType",
								"offset": 0,
								"slot": "0",
								"type": "t_enum(userType)5"
							},
							{
								"astId": 10,
								"contract": "contracts/userDetails.sol:userDetails",
								"label": "userName",
								"offset": 0,
								"slot": "1",
								"type": "t_bytes_storage"
							},
							{
								"astId": 12,
								"contract": "contracts/userDetails.sol:userDetails",
								"label": "userPhysicalAddress",
								"offset": 0,
								"slot": "2",
								"type": "t_bytes_storage"
							},
							{
								"astId": 14,
								"contract": "contracts/userDetails.sol:userDetails",
								"label": "userImage",
								"offset": 0,
								"slot": "3",
								"type": "t_bytes_storage"
							},
							{
								"astId": 16,
								"contract": "contracts/userDetails.sol:userDetails",
								"label": "userStatus",
								"offset": 0,
								"slot": "4",
								"type": "t_bool"
							}
						],
						"numberOfBytes": "160"
					}
				}
			},
			"userdoc": {
				"kind": "user",
				"methods": {
					"addUser(uint8,bytes,bytes,bytes)": {
						"notice": "function to add the user"
					},
					"deleteUser()": {
						"notice": "Function to delete the user"
					},
					"editImage(bytes)": {
						"notice": "function to edit the Image of the user"
					},
					"editName(bytes)": {
						"notice": "function to edit the name of the user"
					},
					"editPhysicalAddress(bytes)": {
						"notice": "function to edit the physical address of the user"
					},
					"getAllDistributors()": {
						"notice": "function to return all the users registered as distributors"
					},
					"getAllManufacturers()": {
						"notice": "function to return all the users registered as manufacturers"
					},
					"getAllSuppliers()": {
						"notice": "function to return all the users registered as suppliers"
					},
					"getAllUsers()": {
						"notice": "function to return all the users registered on provyLens"
					},
					"getSingleUser(address)": {
						"notice": "function to return user details of any perticular user"
					},
					"userDetailsMapping(address)": {
						"notice": "mapping address with userDetails struct"
					},
					"users(uint256)": {
						"notice": "array to keep track of user' catogery"
					}
				},
				"version": 1
			}
		}
	}
}