{
	"contracts/manufacturerProduct.sol": {
		"manufacturerProduct": {
			"abi": [
				{
					"inputs": [
						{
							"internalType": "address[]",
							"name": "_supplierAddress",
							"type": "address[]"
						},
						{
							"internalType": "bytes[]",
							"name": "_sm_id",
							"type": "bytes[]"
						},
						{
							"internalType": "bytes",
							"name": "_name",
							"type": "bytes"
						},
						{
							"internalType": "bytes",
							"name": "_description",
							"type": "bytes"
						},
						{
							"internalType": "bytes",
							"name": "_unit",
							"type": "bytes"
						},
						{
							"internalType": "bytes",
							"name": "_price",
							"type": "bytes"
						},
						{
							"internalType": "bytes",
							"name": "_date",
							"type": "bytes"
						},
						{
							"internalType": "bytes",
							"name": "_expiryDate",
							"type": "bytes"
						}
					],
					"name": "addManufacturerProduct",
					"outputs": [],
					"stateMutability": "nonpayable",
					"type": "function"
				},
				{
					"inputs": [
						{
							"internalType": "address",
							"name": "",
							"type": "address"
						},
						{
							"internalType": "uint256",
							"name": "",
							"type": "uint256"
						}
					],
					"name": "addressToproductsIdMapping",
					"outputs": [
						{
							"internalType": "uint256",
							"name": "",
							"type": "uint256"
						}
					],
					"stateMutability": "view",
					"type": "function"
				},
				{
					"inputs": [
						{
							"internalType": "uint256",
							"name": "_id",
							"type": "uint256"
						}
					],
					"name": "deleteProduct",
					"outputs": [],
					"stateMutability": "nonpayable",
					"type": "function"
				},
				{
					"inputs": [],
					"name": "getManufacturerProducts",
					"outputs": [
						{
							"internalType": "uint256[]",
							"name": "",
							"type": "uint256[]"
						}
					],
					"stateMutability": "view",
					"type": "function"
				},
				{
					"inputs": [
						{
							"internalType": "uint256",
							"name": "_id",
							"type": "uint256"
						}
					],
					"name": "getProduct",
					"outputs": [
						{
							"components": [
								{
									"internalType": "address[]",
									"name": "supplierAddress",
									"type": "address[]"
								},
								{
									"internalType": "bytes[]",
									"name": "sm_id",
									"type": "bytes[]"
								},
								{
									"internalType": "bytes",
									"name": "mp_name",
									"type": "bytes"
								},
								{
									"internalType": "bytes",
									"name": "mp_description",
									"type": "bytes"
								},
								{
									"internalType": "bytes",
									"name": "mp_unit",
									"type": "bytes"
								},
								{
									"internalType": "bytes",
									"name": "mp_price",
									"type": "bytes"
								},
								{
									"internalType": "bytes",
									"name": "mp_date",
									"type": "bytes"
								},
								{
									"internalType": "bytes",
									"name": "mp_expiryDate",
									"type": "bytes"
								}
							],
							"internalType": "struct IManufacturerProduct.manufacturerProduct",
							"name": "",
							"type": "tuple"
						}
					],
					"stateMutability": "view",
					"type": "function"
				},
				{
					"inputs": [
						{
							"internalType": "uint256",
							"name": "",
							"type": "uint256"
						}
					],
					"name": "productsIdMappingToStructMapping",
					"outputs": [
						{
							"internalType": "bytes",
							"name": "mp_name",
							"type": "bytes"
						},
						{
							"internalType": "bytes",
							"name": "mp_description",
							"type": "bytes"
						},
						{
							"internalType": "bytes",
							"name": "mp_unit",
							"type": "bytes"
						},
						{
							"internalType": "bytes",
							"name": "mp_price",
							"type": "bytes"
						},
						{
							"internalType": "bytes",
							"name": "mp_date",
							"type": "bytes"
						},
						{
							"internalType": "bytes",
							"name": "mp_expiryDate",
							"type": "bytes"
						}
					],
					"stateMutability": "view",
					"type": "function"
				}
			],
			"devdoc": {
				"kind": "dev",
				"methods": {},
				"version": 1
			},
			"evm": {
				"assembly": "    /* \"contracts/manufacturerProduct.sol\":121:1526  contract manufacturerProduct is IManufacturerProduct{\r... */\n  mstore(0x40, 0x80)\n    /* \"contracts/manufacturerProduct.sol\":202:203  1 */\n  0x01\n    /* \"contracts/manufacturerProduct.sol\":180:203  uint productCounter = 1 */\n  0x00\n  sstore\n    /* \"contracts/manufacturerProduct.sol\":121:1526  contract manufacturerProduct is IManufacturerProduct{\r... */\n  callvalue\n  dup1\n  iszero\n  tag_1\n  jumpi\n  0x00\n  dup1\n  revert\ntag_1:\n  pop\n  dataSize(sub_0)\n  dup1\n  dataOffset(sub_0)\n  0x00\n  codecopy\n  0x00\n  return\nstop\n\nsub_0: assembly {\n        /* \"contracts/manufacturerProduct.sol\":121:1526  contract manufacturerProduct is IManufacturerProduct{\r... */\n      mstore(0x40, 0x80)\n      callvalue\n      dup1\n      iszero\n      tag_1\n      jumpi\n      0x00\n      dup1\n      revert\n    tag_1:\n      pop\n      jumpi(tag_2, lt(calldatasize, 0x04))\n      shr(0xe0, calldataload(0x00))\n      dup1\n      0x12c972c6\n      eq\n      tag_3\n      jumpi\n      dup1\n      0x21c6f9e5\n      eq\n      tag_4\n      jumpi\n      dup1\n      0x9b14a135\n      eq\n      tag_5\n      jumpi\n      dup1\n      0x9e9c191d\n      eq\n      tag_6\n      jumpi\n      dup1\n      0xb9db15b4\n      eq\n      tag_7\n      jumpi\n      dup1\n      0xed90c7b7\n      eq\n      tag_8\n      jumpi\n    tag_2:\n      0x00\n      dup1\n      revert\n        /* \"contracts/manufacturerProduct.sol\":1122:1255  function getManufacturerProducts() public view returns(uint[] memory){\r... */\n    tag_3:\n      tag_9\n      tag_10\n      jump\t// in\n    tag_9:\n      mload(0x40)\n      tag_11\n      swap2\n      swap1\n      tag_12\n      jump\t// in\n    tag_11:\n      mload(0x40)\n      dup1\n      swap2\n      sub\n      swap1\n      return\n        /* \"contracts/manufacturerProduct.sol\":318:378  mapping(address => uint[]) public addressToproductsIdMapping */\n    tag_4:\n      tag_13\n      0x04\n      dup1\n      calldatasize\n      sub\n      dup2\n      add\n      swap1\n      tag_14\n      swap2\n      swap1\n      tag_15\n      jump\t// in\n    tag_14:\n      tag_16\n      jump\t// in\n    tag_13:\n      mload(0x40)\n      tag_17\n      swap2\n      swap1\n      tag_18\n      jump\t// in\n    tag_17:\n      mload(0x40)\n      dup1\n      swap2\n      sub\n      swap1\n      return\n        /* \"contracts/manufacturerProduct.sol\":617:1114  function addManufacturerProduct(address[] memory _supplierAddress,bytes[] memory _sm_id,bytes calldata _name,bytes calldata _description,bytes memory _unit,bytes memory _price,bytes memory _date,bytes memory _expiryDate)public override {\r... */\n    tag_5:\n      tag_19\n      0x04\n      dup1\n      calldatasize\n      sub\n      dup2\n      add\n      swap1\n      tag_20\n      swap2\n      swap1\n      tag_21\n      jump\t// in\n    tag_20:\n      tag_22\n      jump\t// in\n    tag_19:\n      stop\n        /* \"contracts/manufacturerProduct.sol\":235:311  mapping(uint => manufacturerProduct) public productsIdMappingToStructMapping */\n    tag_6:\n      tag_23\n      0x04\n      dup1\n      calldatasize\n      sub\n      dup2\n      add\n      swap1\n      tag_24\n      swap2\n      swap1\n      tag_25\n      jump\t// in\n    tag_24:\n      tag_26\n      jump\t// in\n    tag_23:\n      mload(0x40)\n      tag_27\n      swap7\n      swap6\n      swap5\n      swap4\n      swap3\n      swap2\n      swap1\n      tag_28\n      jump\t// in\n    tag_27:\n      mload(0x40)\n      dup1\n      swap2\n      sub\n      swap1\n      return\n        /* \"contracts/manufacturerProduct.sol\":1263:1403  function getProduct(uint _id) public view returns(manufacturerProduct memory){\r... */\n    tag_7:\n      tag_29\n      0x04\n      dup1\n      calldatasize\n      sub\n      dup2\n      add\n      swap1\n      tag_30\n      swap2\n      swap1\n      tag_25\n      jump\t// in\n    tag_30:\n      tag_31\n      jump\t// in\n    tag_29:\n      mload(0x40)\n      tag_32\n      swap2\n      swap1\n      tag_33\n      jump\t// in\n    tag_32:\n      mload(0x40)\n      dup1\n      swap2\n      sub\n      swap1\n      return\n        /* \"contracts/manufacturerProduct.sol\":1411:1523  function deleteProduct(uint _id)external override{\r... */\n    tag_8:\n      tag_34\n      0x04\n      dup1\n      calldatasize\n      sub\n      dup2\n      add\n      swap1\n      tag_35\n      swap2\n      swap1\n      tag_25\n      jump\t// in\n    tag_35:\n      tag_36\n      jump\t// in\n    tag_34:\n      stop\n        /* \"contracts/manufacturerProduct.sol\":1122:1255  function getManufacturerProducts() public view returns(uint[] memory){\r... */\n    tag_10:\n        /* \"contracts/manufacturerProduct.sol\":1177:1190  uint[] memory */\n      0x60\n        /* \"contracts/manufacturerProduct.sol\":1209:1235  addressToproductsIdMapping */\n      0x03\n        /* \"contracts/manufacturerProduct.sol\":1209:1247  addressToproductsIdMapping[msg.sender] */\n      0x00\n        /* \"contracts/manufacturerProduct.sol\":1236:1246  msg.sender */\n      caller\n        /* \"contracts/manufacturerProduct.sol\":1209:1247  addressToproductsIdMapping[msg.sender] */\n      0xffffffffffffffffffffffffffffffffffffffff\n      and\n      0xffffffffffffffffffffffffffffffffffffffff\n      and\n      dup2\n      mstore\n      0x20\n      add\n      swap1\n      dup2\n      mstore\n      0x20\n      add\n      0x00\n      keccak256\n        /* \"contracts/manufacturerProduct.sol\":1202:1247  return addressToproductsIdMapping[msg.sender] */\n      dup1\n      sload\n      dup1\n      0x20\n      mul\n      0x20\n      add\n      mload(0x40)\n      swap1\n      dup2\n      add\n      0x40\n      mstore\n      dup1\n      swap3\n      swap2\n      swap1\n      dup2\n      dup2\n      mstore\n      0x20\n      add\n      dup3\n      dup1\n      sload\n      dup1\n      iszero\n      tag_38\n      jumpi\n      0x20\n      mul\n      dup3\n      add\n      swap2\n      swap1\n      0x00\n      mstore\n      keccak256(0x00, 0x20)\n      swap1\n    tag_39:\n      dup2\n      sload\n      dup2\n      mstore\n      0x20\n      add\n      swap1\n      0x01\n      add\n      swap1\n      dup1\n      dup4\n      gt\n      tag_39\n      jumpi\n    tag_38:\n      pop\n      pop\n      pop\n      pop\n      pop\n      swap1\n      pop\n        /* \"contracts/manufacturerProduct.sol\":1122:1255  function getManufacturerProducts() public view returns(uint[] memory){\r... */\n      swap1\n      jump\t// out\n        /* \"contracts/manufacturerProduct.sol\":318:378  mapping(address => uint[]) public addressToproductsIdMapping */\n    tag_16:\n      mstore(0x20, 0x03)\n      dup2\n      0x00\n      mstore\n      keccak256(0x00, 0x40)\n      dup2\n      dup2\n      sload\n      dup2\n      lt\n      tag_40\n      jumpi\n      0x00\n      dup1\n      revert\n    tag_40:\n      swap1\n      0x00\n      mstore\n      keccak256(0x00, 0x20)\n      add\n      0x00\n      swap2\n      pop\n      swap2\n      pop\n      pop\n      sload\n      dup2\n      jump\t// out\n        /* \"contracts/manufacturerProduct.sol\":617:1114  function addManufacturerProduct(address[] memory _supplierAddress,bytes[] memory _sm_id,bytes calldata _name,bytes calldata _description,bytes memory _unit,bytes memory _price,bytes memory _date,bytes memory _expiryDate)public override {\r... */\n    tag_22:\n        /* \"contracts/manufacturerProduct.sol\":915:1009  manufacturerProduct(_supplierAddress,_sm_id,_name,_description,_unit,_price,_date,_expiryDate) */\n      mload(0x40)\n      dup1\n      0x0100\n      add\n      0x40\n      mstore\n      dup1\n        /* \"contracts/manufacturerProduct.sol\":935:951  _supplierAddress */\n      dup12\n        /* \"contracts/manufacturerProduct.sol\":915:1009  manufacturerProduct(_supplierAddress,_sm_id,_name,_description,_unit,_price,_date,_expiryDate) */\n      dup2\n      mstore\n      0x20\n      add\n        /* \"contracts/manufacturerProduct.sol\":952:958  _sm_id */\n      dup11\n        /* \"contracts/manufacturerProduct.sol\":915:1009  manufacturerProduct(_supplierAddress,_sm_id,_name,_description,_unit,_price,_date,_expiryDate) */\n      dup2\n      mstore\n      0x20\n      add\n        /* \"contracts/manufacturerProduct.sol\":959:964  _name */\n      dup10\n      dup10\n        /* \"contracts/manufacturerProduct.sol\":915:1009  manufacturerProduct(_supplierAddress,_sm_id,_name,_description,_unit,_price,_date,_expiryDate) */\n      dup1\n      dup1\n      0x1f\n      add\n      0x20\n      dup1\n      swap2\n      div\n      mul\n      0x20\n      add\n      mload(0x40)\n      swap1\n      dup2\n      add\n      0x40\n      mstore\n      dup1\n      swap4\n      swap3\n      swap2\n      swap1\n      dup2\n      dup2\n      mstore\n      0x20\n      add\n      dup4\n      dup4\n      dup1\n      dup3\n      dup5\n      calldatacopy\n      0x00\n      dup2\n      dup5\n      add\n      mstore\n      not(0x1f)\n      0x1f\n      dup3\n      add\n      and\n      swap1\n      pop\n      dup1\n      dup4\n      add\n      swap3\n      pop\n      pop\n      pop\n      pop\n      pop\n      pop\n      pop\n      dup2\n      mstore\n      0x20\n      add\n        /* \"contracts/manufacturerProduct.sol\":965:977  _description */\n      dup8\n      dup8\n        /* \"contracts/manufacturerProduct.sol\":915:1009  manufacturerProduct(_supplierAddress,_sm_id,_name,_description,_unit,_price,_date,_expiryDate) */\n      dup1\n      dup1\n      0x1f\n      add\n      0x20\n      dup1\n      swap2\n      div\n      mul\n      0x20\n      add\n      mload(0x40)\n      swap1\n      dup2\n      add\n      0x40\n      mstore\n      dup1\n      swap4\n      swap3\n      swap2\n      swap1\n      dup2\n      dup2\n      mstore\n      0x20\n      add\n      dup4\n      dup4\n      dup1\n      dup3\n      dup5\n      calldatacopy\n      0x00\n      dup2\n      dup5\n      add\n      mstore\n      not(0x1f)\n      0x1f\n      dup3\n      add\n      and\n      swap1\n      pop\n      dup1\n      dup4\n      add\n      swap3\n      pop\n      pop\n      pop\n      pop\n      pop\n      pop\n      pop\n      dup2\n      mstore\n      0x20\n      add\n        /* \"contracts/manufacturerProduct.sol\":978:983  _unit */\n      dup6\n        /* \"contracts/manufacturerProduct.sol\":915:1009  manufacturerProduct(_supplierAddress,_sm_id,_name,_description,_unit,_price,_date,_expiryDate) */\n      dup2\n      mstore\n      0x20\n      add\n        /* \"contracts/manufacturerProduct.sol\":984:990  _price */\n      dup5\n        /* \"contracts/manufacturerProduct.sol\":915:1009  manufacturerProduct(_supplierAddress,_sm_id,_name,_description,_unit,_price,_date,_expiryDate) */\n      dup2\n      mstore\n      0x20\n      add\n        /* \"contracts/manufacturerProduct.sol\":991:996  _date */\n      dup4\n        /* \"contracts/manufacturerProduct.sol\":915:1009  manufacturerProduct(_supplierAddress,_sm_id,_name,_description,_unit,_price,_date,_expiryDate) */\n      dup2\n      mstore\n      0x20\n      add\n        /* \"contracts/manufacturerProduct.sol\":997:1008  _expiryDate */\n      dup3\n        /* \"contracts/manufacturerProduct.sol\":915:1009  manufacturerProduct(_supplierAddress,_sm_id,_name,_description,_unit,_price,_date,_expiryDate) */\n      dup2\n      mstore\n      pop\n        /* \"contracts/manufacturerProduct.sol\":864:896  productsIdMappingToStructMapping */\n      0x02\n        /* \"contracts/manufacturerProduct.sol\":864:912  productsIdMappingToStructMapping[productCounter] */\n      0x00\n        /* \"contracts/manufacturerProduct.sol\":897:911  productCounter */\n      dup1\n      sload\n        /* \"contracts/manufacturerProduct.sol\":864:912  productsIdMappingToStructMapping[productCounter] */\n      dup2\n      mstore\n      0x20\n      add\n      swap1\n      dup2\n      mstore\n      0x20\n      add\n      0x00\n      keccak256\n        /* \"contracts/manufacturerProduct.sol\":864:1009  productsIdMappingToStructMapping[productCounter] = manufacturerProduct(_supplierAddress,_sm_id,_name,_description,_unit,_price,_date,_expiryDate) */\n      0x00\n      dup3\n      add\n      mload\n      dup2\n      0x00\n      add\n      swap1\n      dup1\n      mload\n      swap1\n      0x20\n      add\n      swap1\n      tag_43\n      swap3\n      swap2\n      swap1\n      tag_44\n      jump\t// in\n    tag_43:\n      pop\n      0x20\n      dup3\n      add\n      mload\n      dup2\n      0x01\n      add\n      swap1\n      dup1\n      mload\n      swap1\n      0x20\n      add\n      swap1\n      tag_45\n      swap3\n      swap2\n      swap1\n      tag_46\n      jump\t// in\n    tag_45:\n      pop\n      0x40\n      dup3\n      add\n      mload\n      dup2\n      0x02\n      add\n      swap1\n      dup1\n      mload\n      swap1\n      0x20\n      add\n      swap1\n      tag_47\n      swap3\n      swap2\n      swap1\n      tag_48\n      jump\t// in\n    tag_47:\n      pop\n      0x60\n      dup3\n      add\n      mload\n      dup2\n      0x03\n      add\n      swap1\n      dup1\n      mload\n      swap1\n      0x20\n      add\n      swap1\n      tag_49\n      swap3\n      swap2\n      swap1\n      tag_48\n      jump\t// in\n    tag_49:\n      pop\n      0x80\n      dup3\n      add\n      mload\n      dup2\n      0x04\n      add\n      swap1\n      dup1\n      mload\n      swap1\n      0x20\n      add\n      swap1\n      tag_50\n      swap3\n      swap2\n      swap1\n      tag_48\n      jump\t// in\n    tag_50:\n      pop\n      0xa0\n      dup3\n      add\n      mload\n      dup2\n      0x05\n      add\n      swap1\n      dup1\n      mload\n      swap1\n      0x20\n      add\n      swap1\n      tag_51\n      swap3\n      swap2\n      swap1\n      tag_48\n      jump\t// in\n    tag_51:\n      pop\n      0xc0\n      dup3\n      add\n      mload\n      dup2\n      0x06\n      add\n      swap1\n      dup1\n      mload\n      swap1\n      0x20\n      add\n      swap1\n      tag_52\n      swap3\n      swap2\n      swap1\n      tag_48\n      jump\t// in\n    tag_52:\n      pop\n      0xe0\n      dup3\n      add\n      mload\n      dup2\n      0x07\n      add\n      swap1\n      dup1\n      mload\n      swap1\n      0x20\n      add\n      swap1\n      tag_53\n      swap3\n      swap2\n      swap1\n      tag_48\n      jump\t// in\n    tag_53:\n      pop\n      swap1\n      pop\n      pop\n        /* \"contracts/manufacturerProduct.sol\":1020:1046  addressToproductsIdMapping */\n      0x03\n        /* \"contracts/manufacturerProduct.sol\":1020:1058  addressToproductsIdMapping[msg.sender] */\n      0x00\n        /* \"contracts/manufacturerProduct.sol\":1047:1057  msg.sender */\n      caller\n        /* \"contracts/manufacturerProduct.sol\":1020:1058  addressToproductsIdMapping[msg.sender] */\n      0xffffffffffffffffffffffffffffffffffffffff\n      and\n      0xffffffffffffffffffffffffffffffffffffffff\n      and\n      dup2\n      mstore\n      0x20\n      add\n      swap1\n      dup2\n      mstore\n      0x20\n      add\n      0x00\n      keccak256\n        /* \"contracts/manufacturerProduct.sol\":1064:1078  productCounter */\n      sload(0x00)\n        /* \"contracts/manufacturerProduct.sol\":1020:1079  addressToproductsIdMapping[msg.sender].push(productCounter) */\n      swap1\n      dup1\n      0x01\n      dup2\n      sload\n      add\n      dup1\n      dup3\n      sstore\n      dup1\n      swap2\n      pop\n      pop\n      0x01\n      swap1\n      sub\n      swap1\n      0x00\n      mstore\n      keccak256(0x00, 0x20)\n      add\n      0x00\n      swap1\n      swap2\n      swap1\n      swap2\n      swap1\n      swap2\n      pop\n      sstore\n        /* \"contracts/manufacturerProduct.sol\":1090:1104  productCounter */\n      0x00\n      dup1\n        /* \"contracts/manufacturerProduct.sol\":1090:1106  productCounter++ */\n      dup2\n      sload\n      dup1\n      swap3\n      swap2\n      swap1\n      tag_55\n      swap1\n      tag_56\n      jump\t// in\n    tag_55:\n      swap2\n      swap1\n      pop\n      sstore\n      pop\n        /* \"contracts/manufacturerProduct.sol\":617:1114  function addManufacturerProduct(address[] memory _supplierAddress,bytes[] memory _sm_id,bytes calldata _name,bytes calldata _description,bytes memory _unit,bytes memory _price,bytes memory _date,bytes memory _expiryDate)public override {\r... */\n      pop\n      pop\n      pop\n      pop\n      pop\n      pop\n      pop\n      pop\n      pop\n      pop\n      jump\t// out\n        /* \"contracts/manufacturerProduct.sol\":235:311  mapping(uint => manufacturerProduct) public productsIdMappingToStructMapping */\n    tag_26:\n      mstore(0x20, 0x02)\n      dup1\n      0x00\n      mstore\n      keccak256(0x00, 0x40)\n      0x00\n      swap2\n      pop\n      swap1\n      pop\n      dup1\n      0x02\n      add\n      dup1\n      sload\n      tag_57\n      swap1\n      tag_58\n      jump\t// in\n    tag_57:\n      dup1\n      0x1f\n      add\n      0x20\n      dup1\n      swap2\n      div\n      mul\n      0x20\n      add\n      mload(0x40)\n      swap1\n      dup2\n      add\n      0x40\n      mstore\n      dup1\n      swap3\n      swap2\n      swap1\n      dup2\n      dup2\n      mstore\n      0x20\n      add\n      dup3\n      dup1\n      sload\n      tag_59\n      swap1\n      tag_58\n      jump\t// in\n    tag_59:\n      dup1\n      iszero\n      tag_60\n      jumpi\n      dup1\n      0x1f\n      lt\n      tag_61\n      jumpi\n      0x0100\n      dup1\n      dup4\n      sload\n      div\n      mul\n      dup4\n      mstore\n      swap2\n      0x20\n      add\n      swap2\n      jump(tag_60)\n    tag_61:\n      dup3\n      add\n      swap2\n      swap1\n      0x00\n      mstore\n      keccak256(0x00, 0x20)\n      swap1\n    tag_62:\n      dup2\n      sload\n      dup2\n      mstore\n      swap1\n      0x01\n      add\n      swap1\n      0x20\n      add\n      dup1\n      dup4\n      gt\n      tag_62\n      jumpi\n      dup3\n      swap1\n      sub\n      0x1f\n      and\n      dup3\n      add\n      swap2\n    tag_60:\n      pop\n      pop\n      pop\n      pop\n      pop\n      swap1\n      dup1\n      0x03\n      add\n      dup1\n      sload\n      tag_63\n      swap1\n      tag_58\n      jump\t// in\n    tag_63:\n      dup1\n      0x1f\n      add\n      0x20\n      dup1\n      swap2\n      div\n      mul\n      0x20\n      add\n      mload(0x40)\n      swap1\n      dup2\n      add\n      0x40\n      mstore\n      dup1\n      swap3\n      swap2\n      swap1\n      dup2\n      dup2\n      mstore\n      0x20\n      add\n      dup3\n      dup1\n      sload\n      tag_64\n      swap1\n      tag_58\n      jump\t// in\n    tag_64:\n      dup1\n      iszero\n      tag_65\n      jumpi\n      dup1\n      0x1f\n      lt\n      tag_66\n      jumpi\n      0x0100\n      dup1\n      dup4\n      sload\n      div\n      mul\n      dup4\n      mstore\n      swap2\n      0x20\n      add\n      swap2\n      jump(tag_65)\n    tag_66:\n      dup3\n      add\n      swap2\n      swap1\n      0x00\n      mstore\n      keccak256(0x00, 0x20)\n      swap1\n    tag_67:\n      dup2\n      sload\n      dup2\n      mstore\n      swap1\n      0x01\n      add\n      swap1\n      0x20\n      add\n      dup1\n      dup4\n      gt\n      tag_67\n      jumpi\n      dup3\n      swap1\n      sub\n      0x1f\n      and\n      dup3\n      add\n      swap2\n    tag_65:\n      pop\n      pop\n      pop\n      pop\n      pop\n      swap1\n      dup1\n      0x04\n      add\n      dup1\n      sload\n      tag_68\n      swap1\n      tag_58\n      jump\t// in\n    tag_68:\n      dup1\n      0x1f\n      add\n      0x20\n      dup1\n      swap2\n      div\n      mul\n      0x20\n      add\n      mload(0x40)\n      swap1\n      dup2\n      add\n      0x40\n      mstore\n      dup1\n      swap3\n      swap2\n      swap1\n      dup2\n      dup2\n      mstore\n      0x20\n      add\n      dup3\n      dup1\n      sload\n      tag_69\n      swap1\n      tag_58\n      jump\t// in\n    tag_69:\n      dup1\n      iszero\n      tag_70\n      jumpi\n      dup1\n      0x1f\n      lt\n      tag_71\n      jumpi\n      0x0100\n      dup1\n      dup4\n      sload\n      div\n      mul\n      dup4\n      mstore\n      swap2\n      0x20\n      add\n      swap2\n      jump(tag_70)\n    tag_71:\n      dup3\n      add\n      swap2\n      swap1\n      0x00\n      mstore\n      keccak256(0x00, 0x20)\n      swap1\n    tag_72:\n      dup2\n      sload\n      dup2\n      mstore\n      swap1\n      0x01\n      add\n      swap1\n      0x20\n      add\n      dup1\n      dup4\n      gt\n      tag_72\n      jumpi\n      dup3\n      swap1\n      sub\n      0x1f\n      and\n      dup3\n      add\n      swap2\n    tag_70:\n      pop\n      pop\n      pop\n      pop\n      pop\n      swap1\n      dup1\n      0x05\n      add\n      dup1\n      sload\n      tag_73\n      swap1\n      tag_58\n      jump\t// in\n    tag_73:\n      dup1\n      0x1f\n      add\n      0x20\n      dup1\n      swap2\n      div\n      mul\n      0x20\n      add\n      mload(0x40)\n      swap1\n      dup2\n      add\n      0x40\n      mstore\n      dup1\n      swap3\n      swap2\n      swap1\n      dup2\n      dup2\n      mstore\n      0x20\n      add\n      dup3\n      dup1\n      sload\n      tag_74\n      swap1\n      tag_58\n      jump\t// in\n    tag_74:\n      dup1\n      iszero\n      tag_75\n      jumpi\n      dup1\n      0x1f\n      lt\n      tag_76\n      jumpi\n      0x0100\n      dup1\n      dup4\n      sload\n      div\n      mul\n      dup4\n      mstore\n      swap2\n      0x20\n      add\n      swap2\n      jump(tag_75)\n    tag_76:\n      dup3\n      add\n      swap2\n      swap1\n      0x00\n      mstore\n      keccak256(0x00, 0x20)\n      swap1\n    tag_77:\n      dup2\n      sload\n      dup2\n      mstore\n      swap1\n      0x01\n      add\n      swap1\n      0x20\n      add\n      dup1\n      dup4\n      gt\n      tag_77\n      jumpi\n      dup3\n      swap1\n      sub\n      0x1f\n      and\n      dup3\n      add\n      swap2\n    tag_75:\n      pop\n      pop\n      pop\n      pop\n      pop\n      swap1\n      dup1\n      0x06\n      add\n      dup1\n      sload\n      tag_78\n      swap1\n      tag_58\n      jump\t// in\n    tag_78:\n      dup1\n      0x1f\n      add\n      0x20\n      dup1\n      swap2\n      div\n      mul\n      0x20\n      add\n      mload(0x40)\n      swap1\n      dup2\n      add\n      0x40\n      mstore\n      dup1\n      swap3\n      swap2\n      swap1\n      dup2\n      dup2\n      mstore\n      0x20\n      add\n      dup3\n      dup1\n      sload\n      tag_79\n      swap1\n      tag_58\n      jump\t// in\n    tag_79:\n      dup1\n      iszero\n      tag_80\n      jumpi\n      dup1\n      0x1f\n      lt\n      tag_81\n      jumpi\n      0x0100\n      dup1\n      dup4\n      sload\n      div\n      mul\n      dup4\n      mstore\n      swap2\n      0x20\n      add\n      swap2\n      jump(tag_80)\n    tag_81:\n      dup3\n      add\n      swap2\n      swap1\n      0x00\n      mstore\n      keccak256(0x00, 0x20)\n      swap1\n    tag_82:\n      dup2\n      sload\n      dup2\n      mstore\n      swap1\n      0x01\n      add\n      swap1\n      0x20\n      add\n      dup1\n      dup4\n      gt\n      tag_82\n      jumpi\n      dup3\n      swap1\n      sub\n      0x1f\n      and\n      dup3\n      add\n      swap2\n    tag_80:\n      pop\n      pop\n      pop\n      pop\n      pop\n      swap1\n      dup1\n      0x07\n      add\n      dup1\n      sload\n      tag_83\n      swap1\n      tag_58\n      jump\t// in\n    tag_83:\n      dup1\n      0x1f\n      add\n      0x20\n      dup1\n      swap2\n      div\n      mul\n      0x20\n      add\n      mload(0x40)\n      swap1\n      dup2\n      add\n      0x40\n      mstore\n      dup1\n      swap3\n      swap2\n      swap1\n      dup2\n      dup2\n      mstore\n      0x20\n      add\n      dup3\n      dup1\n      sload\n      tag_84\n      swap1\n      tag_58\n      jump\t// in\n    tag_84:\n      dup1\n      iszero\n      tag_85\n      jumpi\n      dup1\n      0x1f\n      lt\n      tag_86\n      jumpi\n      0x0100\n      dup1\n      dup4\n      sload\n      div\n      mul\n      dup4\n      mstore\n      swap2\n      0x20\n      add\n      swap2\n      jump(tag_85)\n    tag_86:\n      dup3\n      add\n      swap2\n      swap1\n      0x00\n      mstore\n      keccak256(0x00, 0x20)\n      swap1\n    tag_87:\n      dup2\n      sload\n      dup2\n      mstore\n      swap1\n      0x01\n      add\n      swap1\n      0x20\n      add\n      dup1\n      dup4\n      gt\n      tag_87\n      jumpi\n      dup3\n      swap1\n      sub\n      0x1f\n      and\n      dup3\n      add\n      swap2\n    tag_85:\n      pop\n      pop\n      pop\n      pop\n      pop\n      swap1\n      pop\n      dup7\n      jump\t// out\n        /* \"contracts/manufacturerProduct.sol\":1263:1403  function getProduct(uint _id) public view returns(manufacturerProduct memory){\r... */\n    tag_31:\n        /* \"contracts/manufacturerProduct.sol\":1313:1339  manufacturerProduct memory */\n      tag_88\n      tag_89\n      jump\t// in\n    tag_88:\n        /* \"contracts/manufacturerProduct.sol\":1358:1390  productsIdMappingToStructMapping */\n      0x02\n        /* \"contracts/manufacturerProduct.sol\":1358:1395  productsIdMappingToStructMapping[_id] */\n      0x00\n        /* \"contracts/manufacturerProduct.sol\":1391:1394  _id */\n      dup4\n        /* \"contracts/manufacturerProduct.sol\":1358:1395  productsIdMappingToStructMapping[_id] */\n      dup2\n      mstore\n      0x20\n      add\n      swap1\n      dup2\n      mstore\n      0x20\n      add\n      0x00\n      keccak256\n        /* \"contracts/manufacturerProduct.sol\":1351:1395  return productsIdMappingToStructMapping[_id] */\n      mload(0x40)\n      dup1\n      0x0100\n      add\n      0x40\n      mstore\n      swap1\n      dup2\n      0x00\n      dup3\n      add\n      dup1\n      sload\n      dup1\n      0x20\n      mul\n      0x20\n      add\n      mload(0x40)\n      swap1\n      dup2\n      add\n      0x40\n      mstore\n      dup1\n      swap3\n      swap2\n      swap1\n      dup2\n      dup2\n      mstore\n      0x20\n      add\n      dup3\n      dup1\n      sload\n      dup1\n      iszero\n      tag_91\n      jumpi\n      0x20\n      mul\n      dup3\n      add\n      swap2\n      swap1\n      0x00\n      mstore\n      keccak256(0x00, 0x20)\n      swap1\n    tag_92:\n      dup2\n      0x00\n      swap1\n      sload\n      swap1\n      0x0100\n      exp\n      swap1\n      div\n      0xffffffffffffffffffffffffffffffffffffffff\n      and\n      0xffffffffffffffffffffffffffffffffffffffff\n      and\n      dup2\n      mstore\n      0x20\n      add\n      swap1\n      0x01\n      add\n      swap1\n      dup1\n      dup4\n      gt\n      tag_92\n      jumpi\n    tag_91:\n      pop\n      pop\n      pop\n      pop\n      pop\n      dup2\n      mstore\n      0x20\n      add\n      0x01\n      dup3\n      add\n      dup1\n      sload\n      dup1\n      0x20\n      mul\n      0x20\n      add\n      mload(0x40)\n      swap1\n      dup2\n      add\n      0x40\n      mstore\n      dup1\n      swap3\n      swap2\n      swap1\n      dup2\n      dup2\n      mstore\n      0x20\n      add\n      0x00\n      swap1\n    tag_93:\n      dup3\n      dup3\n      lt\n      iszero\n      tag_94\n      jumpi\n      dup4\n      dup3\n      swap1\n      0x00\n      mstore\n      keccak256(0x00, 0x20)\n      add\n      dup1\n      sload\n      tag_96\n      swap1\n      tag_58\n      jump\t// in\n    tag_96:\n      dup1\n      0x1f\n      add\n      0x20\n      dup1\n      swap2\n      div\n      mul\n      0x20\n      add\n      mload(0x40)\n      swap1\n      dup2\n      add\n      0x40\n      mstore\n      dup1\n      swap3\n      swap2\n      swap1\n      dup2\n      dup2\n      mstore\n      0x20\n      add\n      dup3\n      dup1\n      sload\n      tag_97\n      swap1\n      tag_58\n      jump\t// in\n    tag_97:\n      dup1\n      iszero\n      tag_98\n      jumpi\n      dup1\n      0x1f\n      lt\n      tag_99\n      jumpi\n      0x0100\n      dup1\n      dup4\n      sload\n      div\n      mul\n      dup4\n      mstore\n      swap2\n      0x20\n      add\n      swap2\n      jump(tag_98)\n    tag_99:\n      dup3\n      add\n      swap2\n      swap1\n      0x00\n      mstore\n      keccak256(0x00, 0x20)\n      swap1\n    tag_100:\n      dup2\n      sload\n      dup2\n      mstore\n      swap1\n      0x01\n      add\n      swap1\n      0x20\n      add\n      dup1\n      dup4\n      gt\n      tag_100\n      jumpi\n      dup3\n      swap1\n      sub\n      0x1f\n      and\n      dup3\n      add\n      swap2\n    tag_98:\n      pop\n      pop\n      pop\n      pop\n      pop\n      dup2\n      mstore\n      0x20\n      add\n      swap1\n      0x01\n      add\n      swap1\n      jump(tag_93)\n    tag_94:\n      pop\n      pop\n      pop\n      pop\n      dup2\n      mstore\n      0x20\n      add\n      0x02\n      dup3\n      add\n      dup1\n      sload\n      tag_101\n      swap1\n      tag_58\n      jump\t// in\n    tag_101:\n      dup1\n      0x1f\n      add\n      0x20\n      dup1\n      swap2\n      div\n      mul\n      0x20\n      add\n      mload(0x40)\n      swap1\n      dup2\n      add\n      0x40\n      mstore\n      dup1\n      swap3\n      swap2\n      swap1\n      dup2\n      dup2\n      mstore\n      0x20\n      add\n      dup3\n      dup1\n      sload\n      tag_102\n      swap1\n      tag_58\n      jump\t// in\n    tag_102:\n      dup1\n      iszero\n      tag_103\n      jumpi\n      dup1\n      0x1f\n      lt\n      tag_104\n      jumpi\n      0x0100\n      dup1\n      dup4\n      sload\n      div\n      mul\n      dup4\n      mstore\n      swap2\n      0x20\n      add\n      swap2\n      jump(tag_103)\n    tag_104:\n      dup3\n      add\n      swap2\n      swap1\n      0x00\n      mstore\n      keccak256(0x00, 0x20)\n      swap1\n    tag_105:\n      dup2\n      sload\n      dup2\n      mstore\n      swap1\n      0x01\n      add\n      swap1\n      0x20\n      add\n      dup1\n      dup4\n      gt\n      tag_105\n      jumpi\n      dup3\n      swap1\n      sub\n      0x1f\n      and\n      dup3\n      add\n      swap2\n    tag_103:\n      pop\n      pop\n      pop\n      pop\n      pop\n      dup2\n      mstore\n      0x20\n      add\n      0x03\n      dup3\n      add\n      dup1\n      sload\n      tag_106\n      swap1\n      tag_58\n      jump\t// in\n    tag_106:\n      dup1\n      0x1f\n      add\n      0x20\n      dup1\n      swap2\n      div\n      mul\n      0x20\n      add\n      mload(0x40)\n      swap1\n      dup2\n      add\n      0x40\n      mstore\n      dup1\n      swap3\n      swap2\n      swap1\n      dup2\n      dup2\n      mstore\n      0x20\n      add\n      dup3\n      dup1\n      sload\n      tag_107\n      swap1\n      tag_58\n      jump\t// in\n    tag_107:\n      dup1\n      iszero\n      tag_108\n      jumpi\n      dup1\n      0x1f\n      lt\n      tag_109\n      jumpi\n      0x0100\n      dup1\n      dup4\n      sload\n      div\n      mul\n      dup4\n      mstore\n      swap2\n      0x20\n      add\n      swap2\n      jump(tag_108)\n    tag_109:\n      dup3\n      add\n      swap2\n      swap1\n      0x00\n      mstore\n      keccak256(0x00, 0x20)\n      swap1\n    tag_110:\n      dup2\n      sload\n      dup2\n      mstore\n      swap1\n      0x01\n      add\n      swap1\n      0x20\n      add\n      dup1\n      dup4\n      gt\n      tag_110\n      jumpi\n      dup3\n      swap1\n      sub\n      0x1f\n      and\n      dup3\n      add\n      swap2\n    tag_108:\n      pop\n      pop\n      pop\n      pop\n      pop\n      dup2\n      mstore\n      0x20\n      add\n      0x04\n      dup3\n      add\n      dup1\n      sload\n      tag_111\n      swap1\n      tag_58\n      jump\t// in\n    tag_111:\n      dup1\n      0x1f\n      add\n      0x20\n      dup1\n      swap2\n      div\n      mul\n      0x20\n      add\n      mload(0x40)\n      swap1\n      dup2\n      add\n      0x40\n      mstore\n      dup1\n      swap3\n      swap2\n      swap1\n      dup2\n      dup2\n      mstore\n      0x20\n      add\n      dup3\n      dup1\n      sload\n      tag_112\n      swap1\n      tag_58\n      jump\t// in\n    tag_112:\n      dup1\n      iszero\n      tag_113\n      jumpi\n      dup1\n      0x1f\n      lt\n      tag_114\n      jumpi\n      0x0100\n      dup1\n      dup4\n      sload\n      div\n      mul\n      dup4\n      mstore\n      swap2\n      0x20\n      add\n      swap2\n      jump(tag_113)\n    tag_114:\n      dup3\n      add\n      swap2\n      swap1\n      0x00\n      mstore\n      keccak256(0x00, 0x20)\n      swap1\n    tag_115:\n      dup2\n      sload\n      dup2\n      mstore\n      swap1\n      0x01\n      add\n      swap1\n      0x20\n      add\n      dup1\n      dup4\n      gt\n      tag_115\n      jumpi\n      dup3\n      swap1\n      sub\n      0x1f\n      and\n      dup3\n      add\n      swap2\n    tag_113:\n      pop\n      pop\n      pop\n      pop\n      pop\n      dup2\n      mstore\n      0x20\n      add\n      0x05\n      dup3\n      add\n      dup1\n      sload\n      tag_116\n      swap1\n      tag_58\n      jump\t// in\n    tag_116:\n      dup1\n      0x1f\n      add\n      0x20\n      dup1\n      swap2\n      div\n      mul\n      0x20\n      add\n      mload(0x40)\n      swap1\n      dup2\n      add\n      0x40\n      mstore\n      dup1\n      swap3\n      swap2\n      swap1\n      dup2\n      dup2\n      mstore\n      0x20\n      add\n      dup3\n      dup1\n      sload\n      tag_117\n      swap1\n      tag_58\n      jump\t// in\n    tag_117:\n      dup1\n      iszero\n      tag_118\n      jumpi\n      dup1\n      0x1f\n      lt\n      tag_119\n      jumpi\n      0x0100\n      dup1\n      dup4\n      sload\n      div\n      mul\n      dup4\n      mstore\n      swap2\n      0x20\n      add\n      swap2\n      jump(tag_118)\n    tag_119:\n      dup3\n      add\n      swap2\n      swap1\n      0x00\n      mstore\n      keccak256(0x00, 0x20)\n      swap1\n    tag_120:\n      dup2\n      sload\n      dup2\n      mstore\n      swap1\n      0x01\n      add\n      swap1\n      0x20\n      add\n      dup1\n      dup4\n      gt\n      tag_120\n      jumpi\n      dup3\n      swap1\n      sub\n      0x1f\n      and\n      dup3\n      add\n      swap2\n    tag_118:\n      pop\n      pop\n      pop\n      pop\n      pop\n      dup2\n      mstore\n      0x20\n      add\n      0x06\n      dup3\n      add\n      dup1\n      sload\n      tag_121\n      swap1\n      tag_58\n      jump\t// in\n    tag_121:\n      dup1\n      0x1f\n      add\n      0x20\n      dup1\n      swap2\n      div\n      mul\n      0x20\n      add\n      mload(0x40)\n      swap1\n      dup2\n      add\n      0x40\n      mstore\n      dup1\n      swap3\n      swap2\n      swap1\n      dup2\n      dup2\n      mstore\n      0x20\n      add\n      dup3\n      dup1\n      sload\n      tag_122\n      swap1\n      tag_58\n      jump\t// in\n    tag_122:\n      dup1\n      iszero\n      tag_123\n      jumpi\n      dup1\n      0x1f\n      lt\n      tag_124\n      jumpi\n      0x0100\n      dup1\n      dup4\n      sload\n      div\n      mul\n      dup4\n      mstore\n      swap2\n      0x20\n      add\n      swap2\n      jump(tag_123)\n    tag_124:\n      dup3\n      add\n      swap2\n      swap1\n      0x00\n      mstore\n      keccak256(0x00, 0x20)\n      swap1\n    tag_125:\n      dup2\n      sload\n      dup2\n      mstore\n      swap1\n      0x01\n      add\n      swap1\n      0x20\n      add\n      dup1\n      dup4\n      gt\n      tag_125\n      jumpi\n      dup3\n      swap1\n      sub\n      0x1f\n      and\n      dup3\n      add\n      swap2\n    tag_123:\n      pop\n      pop\n      pop\n      pop\n      pop\n      dup2\n      mstore\n      0x20\n      add\n      0x07\n      dup3\n      add\n      dup1\n      sload\n      tag_126\n      swap1\n      tag_58\n      jump\t// in\n    tag_126:\n      dup1\n      0x1f\n      add\n      0x20\n      dup1\n      swap2\n      div\n      mul\n      0x20\n      add\n      mload(0x40)\n      swap1\n      dup2\n      add\n      0x40\n      mstore\n      dup1\n      swap3\n      swap2\n      swap1\n      dup2\n      dup2\n      mstore\n      0x20\n      add\n      dup3\n      dup1\n      sload\n      tag_127\n      swap1\n      tag_58\n      jump\t// in\n    tag_127:\n      dup1\n      iszero\n      tag_128\n      jumpi\n      dup1\n      0x1f\n      lt\n      tag_129\n      jumpi\n      0x0100\n      dup1\n      dup4\n      sload\n      div\n      mul\n      dup4\n      mstore\n      swap2\n      0x20\n      add\n      swap2\n      jump(tag_128)\n    tag_129:\n      dup3\n      add\n      swap2\n      swap1\n      0x00\n      mstore\n      keccak256(0x00, 0x20)\n      swap1\n    tag_130:\n      dup2\n      sload\n      dup2\n      mstore\n      swap1\n      0x01\n      add\n      swap1\n      0x20\n      add\n      dup1\n      dup4\n      gt\n      tag_130\n      jumpi\n      dup3\n      swap1\n      sub\n      0x1f\n      and\n      dup3\n      add\n      swap2\n    tag_128:\n      pop\n      pop\n      pop\n      pop\n      pop\n      dup2\n      mstore\n      pop\n      pop\n      swap1\n      pop\n        /* \"contracts/manufacturerProduct.sol\":1263:1403  function getProduct(uint _id) public view returns(manufacturerProduct memory){\r... */\n      swap2\n      swap1\n      pop\n      jump\t// out\n        /* \"contracts/manufacturerProduct.sol\":1411:1523  function deleteProduct(uint _id)external override{\r... */\n    tag_36:\n        /* \"contracts/manufacturerProduct.sol\":1478:1510  productsIdMappingToStructMapping */\n      0x02\n        /* \"contracts/manufacturerProduct.sol\":1478:1515  productsIdMappingToStructMapping[_id] */\n      0x00\n        /* \"contracts/manufacturerProduct.sol\":1511:1514  _id */\n      dup3\n        /* \"contracts/manufacturerProduct.sol\":1478:1515  productsIdMappingToStructMapping[_id] */\n      dup2\n      mstore\n      0x20\n      add\n      swap1\n      dup2\n      mstore\n      0x20\n      add\n      0x00\n      keccak256\n      0x00\n        /* \"contracts/manufacturerProduct.sol\":1471:1515  delete productsIdMappingToStructMapping[_id] */\n      dup1\n      dup3\n      add\n      0x00\n      tag_132\n      swap2\n      swap1\n      tag_133\n      jump\t// in\n    tag_132:\n      0x01\n      dup3\n      add\n      0x00\n      tag_134\n      swap2\n      swap1\n      tag_135\n      jump\t// in\n    tag_134:\n      0x02\n      dup3\n      add\n      0x00\n      tag_136\n      swap2\n      swap1\n      tag_137\n      jump\t// in\n    tag_136:\n      0x03\n      dup3\n      add\n      0x00\n      tag_138\n      swap2\n      swap1\n      tag_137\n      jump\t// in\n    tag_138:\n      0x04\n      dup3\n      add\n      0x00\n      tag_139\n      swap2\n      swap1\n      tag_137\n      jump\t// in\n    tag_139:\n      0x05\n      dup3\n      add\n      0x00\n      tag_140\n      swap2\n      swap1\n      tag_137\n      jump\t// in\n    tag_140:\n      0x06\n      dup3\n      add\n      0x00\n      tag_141\n      swap2\n      swap1\n      tag_137\n      jump\t// in\n    tag_141:\n      0x07\n      dup3\n      add\n      0x00\n      tag_142\n      swap2\n      swap1\n      tag_137\n      jump\t// in\n    tag_142:\n      pop\n      pop\n        /* \"contracts/manufacturerProduct.sol\":1411:1523  function deleteProduct(uint _id)external override{\r... */\n      pop\n      jump\t// out\n    tag_44:\n      dup3\n      dup1\n      sload\n      dup3\n      dup3\n      sstore\n      swap1\n      0x00\n      mstore\n      keccak256(0x00, 0x20)\n      swap1\n      dup2\n      add\n      swap3\n      dup3\n      iszero\n      tag_143\n      jumpi\n      swap2\n      0x20\n      mul\n      dup3\n      add\n    tag_144:\n      dup3\n      dup2\n      gt\n      iszero\n      tag_145\n      jumpi\n      dup3\n      mload\n      dup3\n      exp(0x0100, 0x00)\n      dup2\n      sload\n      dup2\n      0xffffffffffffffffffffffffffffffffffffffff\n      mul\n      not\n      and\n      swap1\n      dup4\n      0xffffffffffffffffffffffffffffffffffffffff\n      and\n      mul\n      or\n      swap1\n      sstore\n      pop\n      swap2\n      0x20\n      add\n      swap2\n      swap1\n      0x01\n      add\n      swap1\n      jump(tag_144)\n    tag_145:\n    tag_143:\n      pop\n      swap1\n      pop\n      tag_146\n      swap2\n      swap1\n      tag_147\n      jump\t// in\n    tag_146:\n      pop\n      swap1\n      jump\t// out\n    tag_46:\n      dup3\n      dup1\n      sload\n      dup3\n      dup3\n      sstore\n      swap1\n      0x00\n      mstore\n      keccak256(0x00, 0x20)\n      swap1\n      dup2\n      add\n      swap3\n      dup3\n      iszero\n      tag_148\n      jumpi\n      swap2\n      0x20\n      mul\n      dup3\n      add\n    tag_149:\n      dup3\n      dup2\n      gt\n      iszero\n      tag_150\n      jumpi\n      dup3\n      mload\n      dup3\n      swap1\n      dup1\n      mload\n      swap1\n      0x20\n      add\n      swap1\n      tag_151\n      swap3\n      swap2\n      swap1\n      tag_48\n      jump\t// in\n    tag_151:\n      pop\n      swap2\n      0x20\n      add\n      swap2\n      swap1\n      0x01\n      add\n      swap1\n      jump(tag_149)\n    tag_150:\n    tag_148:\n      pop\n      swap1\n      pop\n      tag_152\n      swap2\n      swap1\n      tag_153\n      jump\t// in\n    tag_152:\n      pop\n      swap1\n      jump\t// out\n    tag_48:\n      dup3\n      dup1\n      sload\n      tag_154\n      swap1\n      tag_58\n      jump\t// in\n    tag_154:\n      swap1\n      0x00\n      mstore\n      keccak256(0x00, 0x20)\n      swap1\n      0x1f\n      add\n      0x20\n      swap1\n      div\n      dup2\n      add\n      swap3\n      dup3\n      tag_156\n      jumpi\n      0x00\n      dup6\n      sstore\n      jump(tag_155)\n    tag_156:\n      dup3\n      0x1f\n      lt\n      tag_157\n      jumpi\n      dup1\n      mload\n      not(0xff)\n      and\n      dup4\n      dup1\n      add\n      or\n      dup6\n      sstore\n      jump(tag_155)\n    tag_157:\n      dup3\n      dup1\n      add\n      0x01\n      add\n      dup6\n      sstore\n      dup3\n      iszero\n      tag_155\n      jumpi\n      swap2\n      dup3\n      add\n    tag_158:\n      dup3\n      dup2\n      gt\n      iszero\n      tag_159\n      jumpi\n      dup3\n      mload\n      dup3\n      sstore\n      swap2\n      0x20\n      add\n      swap2\n      swap1\n      0x01\n      add\n      swap1\n      jump(tag_158)\n    tag_159:\n    tag_155:\n      pop\n      swap1\n      pop\n      tag_160\n      swap2\n      swap1\n      tag_147\n      jump\t// in\n    tag_160:\n      pop\n      swap1\n      jump\t// out\n    tag_89:\n      mload(0x40)\n      dup1\n      0x0100\n      add\n      0x40\n      mstore\n      dup1\n      0x60\n      dup2\n      mstore\n      0x20\n      add\n      0x60\n      dup2\n      mstore\n      0x20\n      add\n      0x60\n      dup2\n      mstore\n      0x20\n      add\n      0x60\n      dup2\n      mstore\n      0x20\n      add\n      0x60\n      dup2\n      mstore\n      0x20\n      add\n      0x60\n      dup2\n      mstore\n      0x20\n      add\n      0x60\n      dup2\n      mstore\n      0x20\n      add\n      0x60\n      dup2\n      mstore\n      pop\n      swap1\n      jump\t// out\n    tag_133:\n      pop\n      dup1\n      sload\n      0x00\n      dup3\n      sstore\n      swap1\n      0x00\n      mstore\n      keccak256(0x00, 0x20)\n      swap1\n      dup2\n      add\n      swap1\n      tag_162\n      swap2\n      swap1\n      tag_147\n      jump\t// in\n    tag_162:\n      pop\n      jump\t// out\n    tag_135:\n      pop\n      dup1\n      sload\n      0x00\n      dup3\n      sstore\n      swap1\n      0x00\n      mstore\n      keccak256(0x00, 0x20)\n      swap1\n      dup2\n      add\n      swap1\n      tag_164\n      swap2\n      swap1\n      tag_153\n      jump\t// in\n    tag_164:\n      pop\n      jump\t// out\n    tag_137:\n      pop\n      dup1\n      sload\n      tag_165\n      swap1\n      tag_58\n      jump\t// in\n    tag_165:\n      0x00\n      dup3\n      sstore\n      dup1\n      0x1f\n      lt\n      tag_167\n      jumpi\n      pop\n      jump(tag_166)\n    tag_167:\n      0x1f\n      add\n      0x20\n      swap1\n      div\n      swap1\n      0x00\n      mstore\n      keccak256(0x00, 0x20)\n      swap1\n      dup2\n      add\n      swap1\n      tag_168\n      swap2\n      swap1\n      tag_147\n      jump\t// in\n    tag_168:\n    tag_166:\n      pop\n      jump\t// out\n    tag_147:\n    tag_169:\n      dup1\n      dup3\n      gt\n      iszero\n      tag_170\n      jumpi\n      0x00\n      dup2\n      0x00\n      swap1\n      sstore\n      pop\n      0x01\n      add\n      jump(tag_169)\n    tag_170:\n      pop\n      swap1\n      jump\t// out\n    tag_153:\n    tag_171:\n      dup1\n      dup3\n      gt\n      iszero\n      tag_172\n      jumpi\n      0x00\n      dup2\n      dup2\n      tag_173\n      swap2\n      swap1\n      tag_137\n      jump\t// in\n    tag_173:\n      pop\n      0x01\n      add\n      jump(tag_171)\n    tag_172:\n      pop\n      swap1\n      jump\t// out\n        /* \"#utility.yul\":24:746   */\n    tag_175:\n        /* \"#utility.yul\":120:125   */\n      0x00\n        /* \"#utility.yul\":145:226   */\n      tag_177\n        /* \"#utility.yul\":161:225   */\n      tag_178\n        /* \"#utility.yul\":218:224   */\n      dup5\n        /* \"#utility.yul\":161:225   */\n      tag_179\n      jump\t// in\n    tag_178:\n        /* \"#utility.yul\":145:226   */\n      tag_180\n      jump\t// in\n    tag_177:\n        /* \"#utility.yul\":136:226   */\n      swap1\n      pop\n        /* \"#utility.yul\":246:251   */\n      dup1\n        /* \"#utility.yul\":275:281   */\n      dup4\n        /* \"#utility.yul\":268:273   */\n      dup3\n        /* \"#utility.yul\":261:282   */\n      mstore\n        /* \"#utility.yul\":309:313   */\n      0x20\n        /* \"#utility.yul\":302:307   */\n      dup3\n        /* \"#utility.yul\":298:314   */\n      add\n        /* \"#utility.yul\":291:314   */\n      swap1\n      pop\n        /* \"#utility.yul\":335:341   */\n      dup3\n        /* \"#utility.yul\":385:388   */\n      dup6\n        /* \"#utility.yul\":377:381   */\n      0x20\n        /* \"#utility.yul\":369:375   */\n      dup7\n        /* \"#utility.yul\":365:382   */\n      mul\n        /* \"#utility.yul\":360:363   */\n      dup3\n        /* \"#utility.yul\":356:383   */\n      add\n        /* \"#utility.yul\":353:389   */\n      gt\n        /* \"#utility.yul\":350:493   */\n      iszero\n      tag_181\n      jumpi\n        /* \"#utility.yul\":404:483   */\n      tag_182\n      tag_183\n      jump\t// in\n    tag_182:\n        /* \"#utility.yul\":350:493   */\n    tag_181:\n        /* \"#utility.yul\":517:518   */\n      0x00\n        /* \"#utility.yul\":502:740   */\n    tag_184:\n        /* \"#utility.yul\":527:533   */\n      dup6\n        /* \"#utility.yul\":524:525   */\n      dup2\n        /* \"#utility.yul\":521:534   */\n      lt\n        /* \"#utility.yul\":502:740   */\n      iszero\n      tag_186\n      jumpi\n        /* \"#utility.yul\":595:598   */\n      dup2\n        /* \"#utility.yul\":624:661   */\n      tag_187\n        /* \"#utility.yul\":657:660   */\n      dup9\n        /* \"#utility.yul\":645:655   */\n      dup3\n        /* \"#utility.yul\":624:661   */\n      tag_188\n      jump\t// in\n    tag_187:\n        /* \"#utility.yul\":619:622   */\n      dup5\n        /* \"#utility.yul\":612:662   */\n      mstore\n        /* \"#utility.yul\":691:695   */\n      0x20\n        /* \"#utility.yul\":686:689   */\n      dup5\n        /* \"#utility.yul\":682:696   */\n      add\n        /* \"#utility.yul\":675:696   */\n      swap4\n      pop\n        /* \"#utility.yul\":725:729   */\n      0x20\n        /* \"#utility.yul\":720:723   */\n      dup4\n        /* \"#utility.yul\":716:730   */\n      add\n        /* \"#utility.yul\":709:730   */\n      swap3\n      pop\n        /* \"#utility.yul\":562:740   */\n      pop\n        /* \"#utility.yul\":549:550   */\n      0x01\n        /* \"#utility.yul\":546:547   */\n      dup2\n        /* \"#utility.yul\":542:551   */\n      add\n        /* \"#utility.yul\":537:551   */\n      swap1\n      pop\n        /* \"#utility.yul\":502:740   */\n      jump(tag_184)\n    tag_186:\n        /* \"#utility.yul\":506:520   */\n      pop\n        /* \"#utility.yul\":126:746   */\n      pop\n      pop\n        /* \"#utility.yul\":24:746   */\n      swap4\n      swap3\n      pop\n      pop\n      pop\n      jump\t// out\n        /* \"#utility.yul\":767:1721   */\n    tag_189:\n        /* \"#utility.yul\":872:877   */\n      0x00\n        /* \"#utility.yul\":897:987   */\n      tag_191\n        /* \"#utility.yul\":913:986   */\n      tag_192\n        /* \"#utility.yul\":979:985   */\n      dup5\n        /* \"#utility.yul\":913:986   */\n      tag_193\n      jump\t// in\n    tag_192:\n        /* \"#utility.yul\":897:987   */\n      tag_180\n      jump\t// in\n    tag_191:\n        /* \"#utility.yul\":888:987   */\n      swap1\n      pop\n        /* \"#utility.yul\":1007:1012   */\n      dup1\n        /* \"#utility.yul\":1036:1042   */\n      dup4\n        /* \"#utility.yul\":1029:1034   */\n      dup3\n        /* \"#utility.yul\":1022:1043   */\n      mstore\n        /* \"#utility.yul\":1070:1074   */\n      0x20\n        /* \"#utility.yul\":1063:1068   */\n      dup3\n        /* \"#utility.yul\":1059:1075   */\n      add\n        /* \"#utility.yul\":1052:1075   */\n      swap1\n      pop\n        /* \"#utility.yul\":1096:1102   */\n      dup3\n        /* \"#utility.yul\":1146:1149   */\n      dup6\n        /* \"#utility.yul\":1138:1142   */\n      0x20\n        /* \"#utility.yul\":1130:1136   */\n      dup7\n        /* \"#utility.yul\":1126:1143   */\n      mul\n        /* \"#utility.yul\":1121:1124   */\n      dup3\n        /* \"#utility.yul\":1117:1144   */\n      add\n        /* \"#utility.yul\":1114:1150   */\n      gt\n        /* \"#utility.yul\":1111:1254   */\n      iszero\n      tag_194\n      jumpi\n        /* \"#utility.yul\":1165:1244   */\n      tag_195\n      tag_183\n      jump\t// in\n    tag_195:\n        /* \"#utility.yul\":1111:1254   */\n    tag_194:\n        /* \"#utility.yul\":1278:1279   */\n      0x00\n        /* \"#utility.yul\":1263:1715   */\n    tag_196:\n        /* \"#utility.yul\":1288:1294   */\n      dup6\n        /* \"#utility.yul\":1285:1286   */\n      dup2\n        /* \"#utility.yul\":1282:1295   */\n      lt\n        /* \"#utility.yul\":1263:1715   */\n      iszero\n      tag_198\n      jumpi\n        /* \"#utility.yul\":1370:1373   */\n      dup2\n        /* \"#utility.yul\":1357:1374   */\n      calldataload\n        /* \"#utility.yul\":1406:1424   */\n      0xffffffffffffffff\n        /* \"#utility.yul\":1393:1404   */\n      dup2\n        /* \"#utility.yul\":1390:1425   */\n      gt\n        /* \"#utility.yul\":1387:1509   */\n      iszero\n      tag_199\n      jumpi\n        /* \"#utility.yul\":1428:1507   */\n      tag_200\n      tag_201\n      jump\t// in\n    tag_200:\n        /* \"#utility.yul\":1387:1509   */\n    tag_199:\n        /* \"#utility.yul\":1552:1563   */\n      dup1\n        /* \"#utility.yul\":1544:1550   */\n      dup7\n        /* \"#utility.yul\":1540:1564   */\n      add\n        /* \"#utility.yul\":1590:1636   */\n      tag_202\n        /* \"#utility.yul\":1632:1635   */\n      dup10\n        /* \"#utility.yul\":1620:1630   */\n      dup3\n        /* \"#utility.yul\":1590:1636   */\n      tag_203\n      jump\t// in\n    tag_202:\n        /* \"#utility.yul\":1585:1588   */\n      dup6\n        /* \"#utility.yul\":1578:1637   */\n      mstore\n        /* \"#utility.yul\":1666:1670   */\n      0x20\n        /* \"#utility.yul\":1661:1664   */\n      dup6\n        /* \"#utility.yul\":1657:1671   */\n      add\n        /* \"#utility.yul\":1650:1671   */\n      swap5\n      pop\n        /* \"#utility.yul\":1700:1704   */\n      0x20\n        /* \"#utility.yul\":1695:1698   */\n      dup5\n        /* \"#utility.yul\":1691:1705   */\n      add\n        /* \"#utility.yul\":1684:1705   */\n      swap4\n      pop\n        /* \"#utility.yul\":1323:1715   */\n      pop\n      pop\n        /* \"#utility.yul\":1310:1311   */\n      0x01\n        /* \"#utility.yul\":1307:1308   */\n      dup2\n        /* \"#utility.yul\":1303:1312   */\n      add\n        /* \"#utility.yul\":1298:1312   */\n      swap1\n      pop\n        /* \"#utility.yul\":1263:1715   */\n      jump(tag_196)\n    tag_198:\n        /* \"#utility.yul\":1267:1281   */\n      pop\n        /* \"#utility.yul\":878:1721   */\n      pop\n      pop\n        /* \"#utility.yul\":767:1721   */\n      swap4\n      swap3\n      pop\n      pop\n      pop\n      jump\t// out\n        /* \"#utility.yul\":1727:2137   */\n    tag_204:\n        /* \"#utility.yul\":1804:1809   */\n      0x00\n        /* \"#utility.yul\":1829:1894   */\n      tag_206\n        /* \"#utility.yul\":1845:1893   */\n      tag_207\n        /* \"#utility.yul\":1886:1892   */\n      dup5\n        /* \"#utility.yul\":1845:1893   */\n      tag_208\n      jump\t// in\n    tag_207:\n        /* \"#utility.yul\":1829:1894   */\n      tag_180\n      jump\t// in\n    tag_206:\n        /* \"#utility.yul\":1820:1894   */\n      swap1\n      pop\n        /* \"#utility.yul\":1917:1923   */\n      dup3\n        /* \"#utility.yul\":1910:1915   */\n      dup2\n        /* \"#utility.yul\":1903:1924   */\n      mstore\n        /* \"#utility.yul\":1955:1959   */\n      0x20\n        /* \"#utility.yul\":1948:1953   */\n      dup2\n        /* \"#utility.yul\":1944:1960   */\n      add\n        /* \"#utility.yul\":1993:1996   */\n      dup5\n        /* \"#utility.yul\":1984:1990   */\n      dup5\n        /* \"#utility.yul\":1979:1982   */\n      dup5\n        /* \"#utility.yul\":1975:1991   */\n      add\n        /* \"#utility.yul\":1972:1997   */\n      gt\n        /* \"#utility.yul\":1969:2081   */\n      iszero\n      tag_209\n      jumpi\n        /* \"#utility.yul\":2000:2079   */\n      tag_210\n      tag_211\n      jump\t// in\n    tag_210:\n        /* \"#utility.yul\":1969:2081   */\n    tag_209:\n        /* \"#utility.yul\":2090:2131   */\n      tag_212\n        /* \"#utility.yul\":2124:2130   */\n      dup5\n        /* \"#utility.yul\":2119:2122   */\n      dup3\n        /* \"#utility.yul\":2114:2117   */\n      dup6\n        /* \"#utility.yul\":2090:2131   */\n      tag_213\n      jump\t// in\n    tag_212:\n        /* \"#utility.yul\":1810:2137   */\n      pop\n        /* \"#utility.yul\":1727:2137   */\n      swap4\n      swap3\n      pop\n      pop\n      pop\n      jump\t// out\n        /* \"#utility.yul\":2143:2282   */\n    tag_188:\n        /* \"#utility.yul\":2189:2194   */\n      0x00\n        /* \"#utility.yul\":2227:2233   */\n      dup2\n        /* \"#utility.yul\":2214:2234   */\n      calldataload\n        /* \"#utility.yul\":2205:2234   */\n      swap1\n      pop\n        /* \"#utility.yul\":2243:2276   */\n      tag_215\n        /* \"#utility.yul\":2270:2275   */\n      dup2\n        /* \"#utility.yul\":2243:2276   */\n      tag_216\n      jump\t// in\n    tag_215:\n        /* \"#utility.yul\":2143:2282   */\n      swap3\n      swap2\n      pop\n      pop\n      jump\t// out\n        /* \"#utility.yul\":2305:2675   */\n    tag_217:\n        /* \"#utility.yul\":2376:2381   */\n      0x00\n        /* \"#utility.yul\":2425:2428   */\n      dup3\n        /* \"#utility.yul\":2418:2422   */\n      0x1f\n        /* \"#utility.yul\":2410:2416   */\n      dup4\n        /* \"#utility.yul\":2406:2423   */\n      add\n        /* \"#utility.yul\":2402:2429   */\n      slt\n        /* \"#utility.yul\":2392:2514   */\n      tag_219\n      jumpi\n        /* \"#utility.yul\":2433:2512   */\n      tag_220\n      tag_201\n      jump\t// in\n    tag_220:\n        /* \"#utility.yul\":2392:2514   */\n    tag_219:\n        /* \"#utility.yul\":2550:2556   */\n      dup2\n        /* \"#utility.yul\":2537:2557   */\n      calldataload\n        /* \"#utility.yul\":2575:2669   */\n      tag_221\n        /* \"#utility.yul\":2665:2668   */\n      dup5\n        /* \"#utility.yul\":2657:2663   */\n      dup3\n        /* \"#utility.yul\":2650:2654   */\n      0x20\n        /* \"#utility.yul\":2642:2648   */\n      dup7\n        /* \"#utility.yul\":2638:2655   */\n      add\n        /* \"#utility.yul\":2575:2669   */\n      tag_175\n      jump\t// in\n    tag_221:\n        /* \"#utility.yul\":2566:2669   */\n      swap2\n      pop\n        /* \"#utility.yul\":2382:2675   */\n      pop\n        /* \"#utility.yul\":2305:2675   */\n      swap3\n      swap2\n      pop\n      pop\n      jump\t// out\n        /* \"#utility.yul\":2696:3084   */\n    tag_222:\n        /* \"#utility.yul\":2776:2781   */\n      0x00\n        /* \"#utility.yul\":2825:2828   */\n      dup3\n        /* \"#utility.yul\":2818:2822   */\n      0x1f\n        /* \"#utility.yul\":2810:2816   */\n      dup4\n        /* \"#utility.yul\":2806:2823   */\n      add\n        /* \"#utility.yul\":2802:2829   */\n      slt\n        /* \"#utility.yul\":2792:2914   */\n      tag_224\n      jumpi\n        /* \"#utility.yul\":2833:2912   */\n      tag_225\n      tag_201\n      jump\t// in\n    tag_225:\n        /* \"#utility.yul\":2792:2914   */\n    tag_224:\n        /* \"#utility.yul\":2950:2956   */\n      dup2\n        /* \"#utility.yul\":2937:2957   */\n      calldataload\n        /* \"#utility.yul\":2975:3078   */\n      tag_226\n        /* \"#utility.yul\":3074:3077   */\n      dup5\n        /* \"#utility.yul\":3066:3072   */\n      dup3\n        /* \"#utility.yul\":3059:3063   */\n      0x20\n        /* \"#utility.yul\":3051:3057   */\n      dup7\n        /* \"#utility.yul\":3047:3064   */\n      add\n        /* \"#utility.yul\":2975:3078   */\n      tag_189\n      jump\t// in\n    tag_226:\n        /* \"#utility.yul\":2966:3078   */\n      swap2\n      pop\n        /* \"#utility.yul\":2782:3084   */\n      pop\n        /* \"#utility.yul\":2696:3084   */\n      swap3\n      swap2\n      pop\n      pop\n      jump\t// out\n        /* \"#utility.yul\":3103:3655   */\n    tag_227:\n        /* \"#utility.yul\":3160:3168   */\n      0x00\n        /* \"#utility.yul\":3170:3176   */\n      dup1\n        /* \"#utility.yul\":3220:3223   */\n      dup4\n        /* \"#utility.yul\":3213:3217   */\n      0x1f\n        /* \"#utility.yul\":3205:3211   */\n      dup5\n        /* \"#utility.yul\":3201:3218   */\n      add\n        /* \"#utility.yul\":3197:3224   */\n      slt\n        /* \"#utility.yul\":3187:3309   */\n      tag_229\n      jumpi\n        /* \"#utility.yul\":3228:3307   */\n      tag_230\n      tag_201\n      jump\t// in\n    tag_230:\n        /* \"#utility.yul\":3187:3309   */\n    tag_229:\n        /* \"#utility.yul\":3341:3347   */\n      dup3\n        /* \"#utility.yul\":3328:3348   */\n      calldataload\n        /* \"#utility.yul\":3318:3348   */\n      swap1\n      pop\n        /* \"#utility.yul\":3371:3389   */\n      0xffffffffffffffff\n        /* \"#utility.yul\":3363:3369   */\n      dup2\n        /* \"#utility.yul\":3360:3390   */\n      gt\n        /* \"#utility.yul\":3357:3474   */\n      iszero\n      tag_231\n      jumpi\n        /* \"#utility.yul\":3393:3472   */\n      tag_232\n      tag_233\n      jump\t// in\n    tag_232:\n        /* \"#utility.yul\":3357:3474   */\n    tag_231:\n        /* \"#utility.yul\":3507:3511   */\n      0x20\n        /* \"#utility.yul\":3499:3505   */\n      dup4\n        /* \"#utility.yul\":3495:3512   */\n      add\n        /* \"#utility.yul\":3483:3512   */\n      swap2\n      pop\n        /* \"#utility.yul\":3561:3564   */\n      dup4\n        /* \"#utility.yul\":3553:3557   */\n      0x01\n        /* \"#utility.yul\":3545:3551   */\n      dup3\n        /* \"#utility.yul\":3541:3558   */\n      mul\n        /* \"#utility.yul\":3531:3539   */\n      dup4\n        /* \"#utility.yul\":3527:3559   */\n      add\n        /* \"#utility.yul\":3524:3565   */\n      gt\n        /* \"#utility.yul\":3521:3649   */\n      iszero\n      tag_234\n      jumpi\n        /* \"#utility.yul\":3568:3647   */\n      tag_235\n      tag_183\n      jump\t// in\n    tag_235:\n        /* \"#utility.yul\":3521:3649   */\n    tag_234:\n        /* \"#utility.yul\":3103:3655   */\n      swap3\n      pop\n      swap3\n      swap1\n      pop\n      jump\t// out\n        /* \"#utility.yul\":3674:4012   */\n    tag_203:\n        /* \"#utility.yul\":3729:3734   */\n      0x00\n        /* \"#utility.yul\":3778:3781   */\n      dup3\n        /* \"#utility.yul\":3771:3775   */\n      0x1f\n        /* \"#utility.yul\":3763:3769   */\n      dup4\n        /* \"#utility.yul\":3759:3776   */\n      add\n        /* \"#utility.yul\":3755:3782   */\n      slt\n        /* \"#utility.yul\":3745:3867   */\n      tag_237\n      jumpi\n        /* \"#utility.yul\":3786:3865   */\n      tag_238\n      tag_201\n      jump\t// in\n    tag_238:\n        /* \"#utility.yul\":3745:3867   */\n    tag_237:\n        /* \"#utility.yul\":3903:3909   */\n      dup2\n        /* \"#utility.yul\":3890:3910   */\n      calldataload\n        /* \"#utility.yul\":3928:4006   */\n      tag_239\n        /* \"#utility.yul\":4002:4005   */\n      dup5\n        /* \"#utility.yul\":3994:4000   */\n      dup3\n        /* \"#utility.yul\":3987:3991   */\n      0x20\n        /* \"#utility.yul\":3979:3985   */\n      dup7\n        /* \"#utility.yul\":3975:3992   */\n      add\n        /* \"#utility.yul\":3928:4006   */\n      tag_204\n      jump\t// in\n    tag_239:\n        /* \"#utility.yul\":3919:4006   */\n      swap2\n      pop\n        /* \"#utility.yul\":3735:4012   */\n      pop\n        /* \"#utility.yul\":3674:4012   */\n      swap3\n      swap2\n      pop\n      pop\n      jump\t// out\n        /* \"#utility.yul\":4018:4157   */\n    tag_240:\n        /* \"#utility.yul\":4064:4069   */\n      0x00\n        /* \"#utility.yul\":4102:4108   */\n      dup2\n        /* \"#utility.yul\":4089:4109   */\n      calldataload\n        /* \"#utility.yul\":4080:4109   */\n      swap1\n      pop\n        /* \"#utility.yul\":4118:4151   */\n      tag_242\n        /* \"#utility.yul\":4145:4150   */\n      dup2\n        /* \"#utility.yul\":4118:4151   */\n      tag_243\n      jump\t// in\n    tag_242:\n        /* \"#utility.yul\":4018:4157   */\n      swap3\n      swap2\n      pop\n      pop\n      jump\t// out\n        /* \"#utility.yul\":4163:4637   */\n    tag_15:\n        /* \"#utility.yul\":4231:4237   */\n      0x00\n        /* \"#utility.yul\":4239:4245   */\n      dup1\n        /* \"#utility.yul\":4288:4290   */\n      0x40\n        /* \"#utility.yul\":4276:4285   */\n      dup4\n        /* \"#utility.yul\":4267:4274   */\n      dup6\n        /* \"#utility.yul\":4263:4286   */\n      sub\n        /* \"#utility.yul\":4259:4291   */\n      slt\n        /* \"#utility.yul\":4256:4375   */\n      iszero\n      tag_245\n      jumpi\n        /* \"#utility.yul\":4294:4373   */\n      tag_246\n      tag_247\n      jump\t// in\n    tag_246:\n        /* \"#utility.yul\":4256:4375   */\n    tag_245:\n        /* \"#utility.yul\":4414:4415   */\n      0x00\n        /* \"#utility.yul\":4439:4492   */\n      tag_248\n        /* \"#utility.yul\":4484:4491   */\n      dup6\n        /* \"#utility.yul\":4475:4481   */\n      dup3\n        /* \"#utility.yul\":4464:4473   */\n      dup7\n        /* \"#utility.yul\":4460:4482   */\n      add\n        /* \"#utility.yul\":4439:4492   */\n      tag_188\n      jump\t// in\n    tag_248:\n        /* \"#utility.yul\":4429:4492   */\n      swap3\n      pop\n        /* \"#utility.yul\":4385:4502   */\n      pop\n        /* \"#utility.yul\":4541:4543   */\n      0x20\n        /* \"#utility.yul\":4567:4620   */\n      tag_249\n        /* \"#utility.yul\":4612:4619   */\n      dup6\n        /* \"#utility.yul\":4603:4609   */\n      dup3\n        /* \"#utility.yul\":4592:4601   */\n      dup7\n        /* \"#utility.yul\":4588:4610   */\n      add\n        /* \"#utility.yul\":4567:4620   */\n      tag_240\n      jump\t// in\n    tag_249:\n        /* \"#utility.yul\":4557:4620   */\n      swap2\n      pop\n        /* \"#utility.yul\":4512:4630   */\n      pop\n        /* \"#utility.yul\":4163:4637   */\n      swap3\n      pop\n      swap3\n      swap1\n      pop\n      jump\t// out\n        /* \"#utility.yul\":4643:7538   */\n    tag_21:\n        /* \"#utility.yul\":4882:4888   */\n      0x00\n        /* \"#utility.yul\":4890:4896   */\n      dup1\n        /* \"#utility.yul\":4898:4904   */\n      0x00\n        /* \"#utility.yul\":4906:4912   */\n      dup1\n        /* \"#utility.yul\":4914:4920   */\n      0x00\n        /* \"#utility.yul\":4922:4928   */\n      dup1\n        /* \"#utility.yul\":4930:4936   */\n      0x00\n        /* \"#utility.yul\":4938:4944   */\n      dup1\n        /* \"#utility.yul\":4946:4952   */\n      0x00\n        /* \"#utility.yul\":4954:4960   */\n      dup1\n        /* \"#utility.yul\":5003:5006   */\n      0x0100\n        /* \"#utility.yul\":4991:5000   */\n      dup12\n        /* \"#utility.yul\":4982:4989   */\n      dup14\n        /* \"#utility.yul\":4978:5001   */\n      sub\n        /* \"#utility.yul\":4974:5007   */\n      slt\n        /* \"#utility.yul\":4971:5091   */\n      iszero\n      tag_251\n      jumpi\n        /* \"#utility.yul\":5010:5089   */\n      tag_252\n      tag_247\n      jump\t// in\n    tag_252:\n        /* \"#utility.yul\":4971:5091   */\n    tag_251:\n        /* \"#utility.yul\":5158:5159   */\n      0x00\n        /* \"#utility.yul\":5147:5156   */\n      dup12\n        /* \"#utility.yul\":5143:5160   */\n      add\n        /* \"#utility.yul\":5130:5161   */\n      calldataload\n        /* \"#utility.yul\":5188:5206   */\n      0xffffffffffffffff\n        /* \"#utility.yul\":5180:5186   */\n      dup2\n        /* \"#utility.yul\":5177:5207   */\n      gt\n        /* \"#utility.yul\":5174:5291   */\n      iszero\n      tag_253\n      jumpi\n        /* \"#utility.yul\":5210:5289   */\n      tag_254\n      tag_255\n      jump\t// in\n    tag_254:\n        /* \"#utility.yul\":5174:5291   */\n    tag_253:\n        /* \"#utility.yul\":5315:5393   */\n      tag_256\n        /* \"#utility.yul\":5385:5392   */\n      dup14\n        /* \"#utility.yul\":5376:5382   */\n      dup3\n        /* \"#utility.yul\":5365:5374   */\n      dup15\n        /* \"#utility.yul\":5361:5383   */\n      add\n        /* \"#utility.yul\":5315:5393   */\n      tag_217\n      jump\t// in\n    tag_256:\n        /* \"#utility.yul\":5305:5393   */\n      swap11\n      pop\n        /* \"#utility.yul\":5101:5403   */\n      pop\n        /* \"#utility.yul\":5470:5472   */\n      0x20\n        /* \"#utility.yul\":5459:5468   */\n      dup12\n        /* \"#utility.yul\":5455:5473   */\n      add\n        /* \"#utility.yul\":5442:5474   */\n      calldataload\n        /* \"#utility.yul\":5501:5519   */\n      0xffffffffffffffff\n        /* \"#utility.yul\":5493:5499   */\n      dup2\n        /* \"#utility.yul\":5490:5520   */\n      gt\n        /* \"#utility.yul\":5487:5604   */\n      iszero\n      tag_257\n      jumpi\n        /* \"#utility.yul\":5523:5602   */\n      tag_258\n      tag_255\n      jump\t// in\n    tag_258:\n        /* \"#utility.yul\":5487:5604   */\n    tag_257:\n        /* \"#utility.yul\":5628:5715   */\n      tag_259\n        /* \"#utility.yul\":5707:5714   */\n      dup14\n        /* \"#utility.yul\":5698:5704   */\n      dup3\n        /* \"#utility.yul\":5687:5696   */\n      dup15\n        /* \"#utility.yul\":5683:5705   */\n      add\n        /* \"#utility.yul\":5628:5715   */\n      tag_222\n      jump\t// in\n    tag_259:\n        /* \"#utility.yul\":5618:5715   */\n      swap10\n      pop\n        /* \"#utility.yul\":5413:5725   */\n      pop\n        /* \"#utility.yul\":5792:5794   */\n      0x40\n        /* \"#utility.yul\":5781:5790   */\n      dup12\n        /* \"#utility.yul\":5777:5795   */\n      add\n        /* \"#utility.yul\":5764:5796   */\n      calldataload\n        /* \"#utility.yul\":5823:5841   */\n      0xffffffffffffffff\n        /* \"#utility.yul\":5815:5821   */\n      dup2\n        /* \"#utility.yul\":5812:5842   */\n      gt\n        /* \"#utility.yul\":5809:5926   */\n      iszero\n      tag_260\n      jumpi\n        /* \"#utility.yul\":5845:5924   */\n      tag_261\n      tag_255\n      jump\t// in\n    tag_261:\n        /* \"#utility.yul\":5809:5926   */\n    tag_260:\n        /* \"#utility.yul\":5958:6022   */\n      tag_262\n        /* \"#utility.yul\":6014:6021   */\n      dup14\n        /* \"#utility.yul\":6005:6011   */\n      dup3\n        /* \"#utility.yul\":5994:6003   */\n      dup15\n        /* \"#utility.yul\":5990:6012   */\n      add\n        /* \"#utility.yul\":5958:6022   */\n      tag_227\n      jump\t// in\n    tag_262:\n        /* \"#utility.yul\":5940:6022   */\n      swap9\n      pop\n      swap9\n      pop\n        /* \"#utility.yul\":5735:6032   */\n      pop\n        /* \"#utility.yul\":6099:6101   */\n      0x60\n        /* \"#utility.yul\":6088:6097   */\n      dup12\n        /* \"#utility.yul\":6084:6102   */\n      add\n        /* \"#utility.yul\":6071:6103   */\n      calldataload\n        /* \"#utility.yul\":6130:6148   */\n      0xffffffffffffffff\n        /* \"#utility.yul\":6122:6128   */\n      dup2\n        /* \"#utility.yul\":6119:6149   */\n      gt\n        /* \"#utility.yul\":6116:6233   */\n      iszero\n      tag_263\n      jumpi\n        /* \"#utility.yul\":6152:6231   */\n      tag_264\n      tag_255\n      jump\t// in\n    tag_264:\n        /* \"#utility.yul\":6116:6233   */\n    tag_263:\n        /* \"#utility.yul\":6265:6329   */\n      tag_265\n        /* \"#utility.yul\":6321:6328   */\n      dup14\n        /* \"#utility.yul\":6312:6318   */\n      dup3\n        /* \"#utility.yul\":6301:6310   */\n      dup15\n        /* \"#utility.yul\":6297:6319   */\n      add\n        /* \"#utility.yul\":6265:6329   */\n      tag_227\n      jump\t// in\n    tag_265:\n        /* \"#utility.yul\":6247:6329   */\n      swap7\n      pop\n      swap7\n      pop\n        /* \"#utility.yul\":6042:6339   */\n      pop\n        /* \"#utility.yul\":6406:6409   */\n      0x80\n        /* \"#utility.yul\":6395:6404   */\n      dup12\n        /* \"#utility.yul\":6391:6410   */\n      add\n        /* \"#utility.yul\":6378:6411   */\n      calldataload\n        /* \"#utility.yul\":6438:6456   */\n      0xffffffffffffffff\n        /* \"#utility.yul\":6430:6436   */\n      dup2\n        /* \"#utility.yul\":6427:6457   */\n      gt\n        /* \"#utility.yul\":6424:6541   */\n      iszero\n      tag_266\n      jumpi\n        /* \"#utility.yul\":6460:6539   */\n      tag_267\n      tag_255\n      jump\t// in\n    tag_267:\n        /* \"#utility.yul\":6424:6541   */\n    tag_266:\n        /* \"#utility.yul\":6565:6627   */\n      tag_268\n        /* \"#utility.yul\":6619:6626   */\n      dup14\n        /* \"#utility.yul\":6610:6616   */\n      dup3\n        /* \"#utility.yul\":6599:6608   */\n      dup15\n        /* \"#utility.yul\":6595:6617   */\n      add\n        /* \"#utility.yul\":6565:6627   */\n      tag_203\n      jump\t// in\n    tag_268:\n        /* \"#utility.yul\":6555:6627   */\n      swap5\n      pop\n        /* \"#utility.yul\":6349:6637   */\n      pop\n        /* \"#utility.yul\":6704:6707   */\n      0xa0\n        /* \"#utility.yul\":6693:6702   */\n      dup12\n        /* \"#utility.yul\":6689:6708   */\n      add\n        /* \"#utility.yul\":6676:6709   */\n      calldataload\n        /* \"#utility.yul\":6736:6754   */\n      0xffffffffffffffff\n        /* \"#utility.yul\":6728:6734   */\n      dup2\n        /* \"#utility.yul\":6725:6755   */\n      gt\n        /* \"#utility.yul\":6722:6839   */\n      iszero\n      tag_269\n      jumpi\n        /* \"#utility.yul\":6758:6837   */\n      tag_270\n      tag_255\n      jump\t// in\n    tag_270:\n        /* \"#utility.yul\":6722:6839   */\n    tag_269:\n        /* \"#utility.yul\":6863:6925   */\n      tag_271\n        /* \"#utility.yul\":6917:6924   */\n      dup14\n        /* \"#utility.yul\":6908:6914   */\n      dup3\n        /* \"#utility.yul\":6897:6906   */\n      dup15\n        /* \"#utility.yul\":6893:6915   */\n      add\n        /* \"#utility.yul\":6863:6925   */\n      tag_203\n      jump\t// in\n    tag_271:\n        /* \"#utility.yul\":6853:6925   */\n      swap4\n      pop\n        /* \"#utility.yul\":6647:6935   */\n      pop\n        /* \"#utility.yul\":7002:7005   */\n      0xc0\n        /* \"#utility.yul\":6991:7000   */\n      dup12\n        /* \"#utility.yul\":6987:7006   */\n      add\n        /* \"#utility.yul\":6974:7007   */\n      calldataload\n        /* \"#utility.yul\":7034:7052   */\n      0xffffffffffffffff\n        /* \"#utility.yul\":7026:7032   */\n      dup2\n        /* \"#utility.yul\":7023:7053   */\n      gt\n        /* \"#utility.yul\":7020:7137   */\n      iszero\n      tag_272\n      jumpi\n        /* \"#utility.yul\":7056:7135   */\n      tag_273\n      tag_255\n      jump\t// in\n    tag_273:\n        /* \"#utility.yul\":7020:7137   */\n    tag_272:\n        /* \"#utility.yul\":7161:7223   */\n      tag_274\n        /* \"#utility.yul\":7215:7222   */\n      dup14\n        /* \"#utility.yul\":7206:7212   */\n      dup3\n        /* \"#utility.yul\":7195:7204   */\n      dup15\n        /* \"#utility.yul\":7191:7213   */\n      add\n        /* \"#utility.yul\":7161:7223   */\n      tag_203\n      jump\t// in\n    tag_274:\n        /* \"#utility.yul\":7151:7223   */\n      swap3\n      pop\n        /* \"#utility.yul\":6945:7233   */\n      pop\n        /* \"#utility.yul\":7300:7303   */\n      0xe0\n        /* \"#utility.yul\":7289:7298   */\n      dup12\n        /* \"#utility.yul\":7285:7304   */\n      add\n        /* \"#utility.yul\":7272:7305   */\n      calldataload\n        /* \"#utility.yul\":7332:7350   */\n      0xffffffffffffffff\n        /* \"#utility.yul\":7324:7330   */\n      dup2\n        /* \"#utility.yul\":7321:7351   */\n      gt\n        /* \"#utility.yul\":7318:7435   */\n      iszero\n      tag_275\n      jumpi\n        /* \"#utility.yul\":7354:7433   */\n      tag_276\n      tag_255\n      jump\t// in\n    tag_276:\n        /* \"#utility.yul\":7318:7435   */\n    tag_275:\n        /* \"#utility.yul\":7459:7521   */\n      tag_277\n        /* \"#utility.yul\":7513:7520   */\n      dup14\n        /* \"#utility.yul\":7504:7510   */\n      dup3\n        /* \"#utility.yul\":7493:7502   */\n      dup15\n        /* \"#utility.yul\":7489:7511   */\n      add\n        /* \"#utility.yul\":7459:7521   */\n      tag_203\n      jump\t// in\n    tag_277:\n        /* \"#utility.yul\":7449:7521   */\n      swap2\n      pop\n        /* \"#utility.yul\":7243:7531   */\n      pop\n        /* \"#utility.yul\":4643:7538   */\n      swap3\n      swap6\n      swap9\n      swap12\n      swap2\n      swap5\n      swap8\n      swap11\n      pop\n      swap3\n      swap6\n      swap9\n      pop\n      jump\t// out\n        /* \"#utility.yul\":7544:7873   */\n    tag_25:\n        /* \"#utility.yul\":7603:7609   */\n      0x00\n        /* \"#utility.yul\":7652:7654   */\n      0x20\n        /* \"#utility.yul\":7640:7649   */\n      dup3\n        /* \"#utility.yul\":7631:7638   */\n      dup5\n        /* \"#utility.yul\":7627:7650   */\n      sub\n        /* \"#utility.yul\":7623:7655   */\n      slt\n        /* \"#utility.yul\":7620:7739   */\n      iszero\n      tag_279\n      jumpi\n        /* \"#utility.yul\":7658:7737   */\n      tag_280\n      tag_247\n      jump\t// in\n    tag_280:\n        /* \"#utility.yul\":7620:7739   */\n    tag_279:\n        /* \"#utility.yul\":7778:7779   */\n      0x00\n        /* \"#utility.yul\":7803:7856   */\n      tag_281\n        /* \"#utility.yul\":7848:7855   */\n      dup5\n        /* \"#utility.yul\":7839:7845   */\n      dup3\n        /* \"#utility.yul\":7828:7837   */\n      dup6\n        /* \"#utility.yul\":7824:7846   */\n      add\n        /* \"#utility.yul\":7803:7856   */\n      tag_240\n      jump\t// in\n    tag_281:\n        /* \"#utility.yul\":7793:7856   */\n      swap2\n      pop\n        /* \"#utility.yul\":7749:7866   */\n      pop\n        /* \"#utility.yul\":7544:7873   */\n      swap3\n      swap2\n      pop\n      pop\n      jump\t// out\n        /* \"#utility.yul\":7879:8058   */\n    tag_282:\n        /* \"#utility.yul\":7948:7958   */\n      0x00\n        /* \"#utility.yul\":7969:8015   */\n      tag_284\n        /* \"#utility.yul\":8011:8014   */\n      dup4\n        /* \"#utility.yul\":8003:8009   */\n      dup4\n        /* \"#utility.yul\":7969:8015   */\n      tag_285\n      jump\t// in\n    tag_284:\n        /* \"#utility.yul\":8047:8051   */\n      0x20\n        /* \"#utility.yul\":8042:8045   */\n      dup4\n        /* \"#utility.yul\":8038:8052   */\n      add\n        /* \"#utility.yul\":8024:8052   */\n      swap1\n      pop\n        /* \"#utility.yul\":7879:8058   */\n      swap3\n      swap2\n      pop\n      pop\n      jump\t// out\n        /* \"#utility.yul\":8064:8256   */\n    tag_286:\n        /* \"#utility.yul\":8151:8161   */\n      0x00\n        /* \"#utility.yul\":8186:8250   */\n      tag_288\n        /* \"#utility.yul\":8246:8249   */\n      dup4\n        /* \"#utility.yul\":8238:8244   */\n      dup4\n        /* \"#utility.yul\":8186:8250   */\n      tag_289\n      jump\t// in\n    tag_288:\n        /* \"#utility.yul\":8172:8250   */\n      swap1\n      pop\n        /* \"#utility.yul\":8064:8256   */\n      swap3\n      swap2\n      pop\n      pop\n      jump\t// out\n        /* \"#utility.yul\":8262:8441   */\n    tag_290:\n        /* \"#utility.yul\":8331:8341   */\n      0x00\n        /* \"#utility.yul\":8352:8398   */\n      tag_292\n        /* \"#utility.yul\":8394:8397   */\n      dup4\n        /* \"#utility.yul\":8386:8392   */\n      dup4\n        /* \"#utility.yul\":8352:8398   */\n      tag_293\n      jump\t// in\n    tag_292:\n        /* \"#utility.yul\":8430:8434   */\n      0x20\n        /* \"#utility.yul\":8425:8428   */\n      dup4\n        /* \"#utility.yul\":8421:8435   */\n      add\n        /* \"#utility.yul\":8407:8435   */\n      swap1\n      pop\n        /* \"#utility.yul\":8262:8441   */\n      swap3\n      swap2\n      pop\n      pop\n      jump\t// out\n        /* \"#utility.yul\":8447:8555   */\n    tag_285:\n        /* \"#utility.yul\":8524:8548   */\n      tag_295\n        /* \"#utility.yul\":8542:8547   */\n      dup2\n        /* \"#utility.yul\":8524:8548   */\n      tag_296\n      jump\t// in\n    tag_295:\n        /* \"#utility.yul\":8519:8522   */\n      dup3\n        /* \"#utility.yul\":8512:8549   */\n      mstore\n        /* \"#utility.yul\":8447:8555   */\n      pop\n      pop\n      jump\t// out\n        /* \"#utility.yul\":8591:9303   */\n    tag_297:\n        /* \"#utility.yul\":8700:8703   */\n      0x00\n        /* \"#utility.yul\":8729:8783   */\n      tag_299\n        /* \"#utility.yul\":8777:8782   */\n      dup3\n        /* \"#utility.yul\":8729:8783   */\n      tag_300\n      jump\t// in\n    tag_299:\n        /* \"#utility.yul\":8799:8875   */\n      tag_301\n        /* \"#utility.yul\":8868:8874   */\n      dup2\n        /* \"#utility.yul\":8863:8866   */\n      dup6\n        /* \"#utility.yul\":8799:8875   */\n      tag_302\n      jump\t// in\n    tag_301:\n        /* \"#utility.yul\":8792:8875   */\n      swap4\n      pop\n        /* \"#utility.yul\":8899:8955   */\n      tag_303\n        /* \"#utility.yul\":8949:8954   */\n      dup4\n        /* \"#utility.yul\":8899:8955   */\n      tag_304\n      jump\t// in\n    tag_303:\n        /* \"#utility.yul\":8978:8985   */\n      dup1\n        /* \"#utility.yul\":9009:9010   */\n      0x00\n        /* \"#utility.yul\":8994:9278   */\n    tag_305:\n        /* \"#utility.yul\":9019:9025   */\n      dup4\n        /* \"#utility.yul\":9016:9017   */\n      dup2\n        /* \"#utility.yul\":9013:9026   */\n      lt\n        /* \"#utility.yul\":8994:9278   */\n      iszero\n      tag_307\n      jumpi\n        /* \"#utility.yul\":9095:9101   */\n      dup2\n        /* \"#utility.yul\":9089:9102   */\n      mload\n        /* \"#utility.yul\":9122:9185   */\n      tag_308\n        /* \"#utility.yul\":9181:9184   */\n      dup9\n        /* \"#utility.yul\":9166:9179   */\n      dup3\n        /* \"#utility.yul\":9122:9185   */\n      tag_282\n      jump\t// in\n    tag_308:\n        /* \"#utility.yul\":9115:9185   */\n      swap8\n      pop\n        /* \"#utility.yul\":9208:9268   */\n      tag_309\n        /* \"#utility.yul\":9261:9267   */\n      dup4\n        /* \"#utility.yul\":9208:9268   */\n      tag_310\n      jump\t// in\n    tag_309:\n        /* \"#utility.yul\":9198:9268   */\n      swap3\n      pop\n        /* \"#utility.yul\":9054:9278   */\n      pop\n        /* \"#utility.yul\":9041:9042   */\n      0x01\n        /* \"#utility.yul\":9038:9039   */\n      dup2\n        /* \"#utility.yul\":9034:9043   */\n      add\n        /* \"#utility.yul\":9029:9043   */\n      swap1\n      pop\n        /* \"#utility.yul\":8994:9278   */\n      jump(tag_305)\n    tag_307:\n        /* \"#utility.yul\":8998:9012   */\n      pop\n        /* \"#utility.yul\":9294:9297   */\n      dup6\n        /* \"#utility.yul\":9287:9297   */\n      swap4\n      pop\n        /* \"#utility.yul\":8705:9303   */\n      pop\n      pop\n      pop\n        /* \"#utility.yul\":8591:9303   */\n      swap3\n      swap2\n      pop\n      pop\n      jump\t// out\n        /* \"#utility.yul\":9335:10298   */\n    tag_311:\n        /* \"#utility.yul\":9462:9465   */\n      0x00\n        /* \"#utility.yul\":9491:9554   */\n      tag_313\n        /* \"#utility.yul\":9548:9553   */\n      dup3\n        /* \"#utility.yul\":9491:9554   */\n      tag_314\n      jump\t// in\n    tag_313:\n        /* \"#utility.yul\":9570:9655   */\n      tag_315\n        /* \"#utility.yul\":9648:9654   */\n      dup2\n        /* \"#utility.yul\":9643:9646   */\n      dup6\n        /* \"#utility.yul\":9570:9655   */\n      tag_316\n      jump\t// in\n    tag_315:\n        /* \"#utility.yul\":9563:9655   */\n      swap4\n      pop\n        /* \"#utility.yul\":9681:9684   */\n      dup4\n        /* \"#utility.yul\":9726:9730   */\n      0x20\n        /* \"#utility.yul\":9718:9724   */\n      dup3\n        /* \"#utility.yul\":9714:9731   */\n      mul\n        /* \"#utility.yul\":9709:9712   */\n      dup6\n        /* \"#utility.yul\":9705:9732   */\n      add\n        /* \"#utility.yul\":9756:9821   */\n      tag_317\n        /* \"#utility.yul\":9815:9820   */\n      dup6\n        /* \"#utility.yul\":9756:9821   */\n      tag_318\n      jump\t// in\n    tag_317:\n        /* \"#utility.yul\":9844:9851   */\n      dup1\n        /* \"#utility.yul\":9875:9876   */\n      0x00\n        /* \"#utility.yul\":9860:10253   */\n    tag_319:\n        /* \"#utility.yul\":9885:9891   */\n      dup6\n        /* \"#utility.yul\":9882:9883   */\n      dup2\n        /* \"#utility.yul\":9879:9892   */\n      lt\n        /* \"#utility.yul\":9860:10253   */\n      iszero\n      tag_321\n      jumpi\n        /* \"#utility.yul\":9956:9965   */\n      dup5\n        /* \"#utility.yul\":9950:9954   */\n      dup5\n        /* \"#utility.yul\":9946:9966   */\n      sub\n        /* \"#utility.yul\":9941:9944   */\n      dup10\n        /* \"#utility.yul\":9934:9967   */\n      mstore\n        /* \"#utility.yul\":10007:10013   */\n      dup2\n        /* \"#utility.yul\":10001:10014   */\n      mload\n        /* \"#utility.yul\":10035:10117   */\n      tag_322\n        /* \"#utility.yul\":10112:10116   */\n      dup6\n        /* \"#utility.yul\":10097:10110   */\n      dup3\n        /* \"#utility.yul\":10035:10117   */\n      tag_286\n      jump\t// in\n    tag_322:\n        /* \"#utility.yul\":10027:10117   */\n      swap5\n      pop\n        /* \"#utility.yul\":10140:10209   */\n      tag_323\n        /* \"#utility.yul\":10202:10208   */\n      dup4\n        /* \"#utility.yul\":10140:10209   */\n      tag_324\n      jump\t// in\n    tag_323:\n        /* \"#utility.yul\":10130:10209   */\n      swap3\n      pop\n        /* \"#utility.yul\":10238:10242   */\n      0x20\n        /* \"#utility.yul\":10233:10236   */\n      dup11\n        /* \"#utility.yul\":10229:10243   */\n      add\n        /* \"#utility.yul\":10222:10243   */\n      swap10\n      pop\n        /* \"#utility.yul\":9920:10253   */\n      pop\n        /* \"#utility.yul\":9907:9908   */\n      0x01\n        /* \"#utility.yul\":9904:9905   */\n      dup2\n        /* \"#utility.yul\":9900:9909   */\n      add\n        /* \"#utility.yul\":9895:9909   */\n      swap1\n      pop\n        /* \"#utility.yul\":9860:10253   */\n      jump(tag_319)\n    tag_321:\n        /* \"#utility.yul\":9864:9878   */\n      pop\n        /* \"#utility.yul\":10269:10273   */\n      dup3\n        /* \"#utility.yul\":10262:10273   */\n      swap8\n      pop\n        /* \"#utility.yul\":10289:10292   */\n      dup8\n        /* \"#utility.yul\":10282:10292   */\n      swap6\n      pop\n        /* \"#utility.yul\":9467:10298   */\n      pop\n      pop\n      pop\n      pop\n      pop\n        /* \"#utility.yul\":9335:10298   */\n      swap3\n      swap2\n      pop\n      pop\n      jump\t// out\n        /* \"#utility.yul\":10334:11066   */\n    tag_325:\n        /* \"#utility.yul\":10453:10456   */\n      0x00\n        /* \"#utility.yul\":10482:10536   */\n      tag_327\n        /* \"#utility.yul\":10530:10535   */\n      dup3\n        /* \"#utility.yul\":10482:10536   */\n      tag_328\n      jump\t// in\n    tag_327:\n        /* \"#utility.yul\":10552:10638   */\n      tag_329\n        /* \"#utility.yul\":10631:10637   */\n      dup2\n        /* \"#utility.yul\":10626:10629   */\n      dup6\n        /* \"#utility.yul\":10552:10638   */\n      tag_330\n      jump\t// in\n    tag_329:\n        /* \"#utility.yul\":10545:10638   */\n      swap4\n      pop\n        /* \"#utility.yul\":10662:10718   */\n      tag_331\n        /* \"#utility.yul\":10712:10717   */\n      dup4\n        /* \"#utility.yul\":10662:10718   */\n      tag_332\n      jump\t// in\n    tag_331:\n        /* \"#utility.yul\":10741:10748   */\n      dup1\n        /* \"#utility.yul\":10772:10773   */\n      0x00\n        /* \"#utility.yul\":10757:11041   */\n    tag_333:\n        /* \"#utility.yul\":10782:10788   */\n      dup4\n        /* \"#utility.yul\":10779:10780   */\n      dup2\n        /* \"#utility.yul\":10776:10789   */\n      lt\n        /* \"#utility.yul\":10757:11041   */\n      iszero\n      tag_335\n      jumpi\n        /* \"#utility.yul\":10858:10864   */\n      dup2\n        /* \"#utility.yul\":10852:10865   */\n      mload\n        /* \"#utility.yul\":10885:10948   */\n      tag_336\n        /* \"#utility.yul\":10944:10947   */\n      dup9\n        /* \"#utility.yul\":10929:10942   */\n      dup3\n        /* \"#utility.yul\":10885:10948   */\n      tag_290\n      jump\t// in\n    tag_336:\n        /* \"#utility.yul\":10878:10948   */\n      swap8\n      pop\n        /* \"#utility.yul\":10971:11031   */\n      tag_337\n        /* \"#utility.yul\":11024:11030   */\n      dup4\n        /* \"#utility.yul\":10971:11031   */\n      tag_338\n      jump\t// in\n    tag_337:\n        /* \"#utility.yul\":10961:11031   */\n      swap3\n      pop\n        /* \"#utility.yul\":10817:11041   */\n      pop\n        /* \"#utility.yul\":10804:10805   */\n      0x01\n        /* \"#utility.yul\":10801:10802   */\n      dup2\n        /* \"#utility.yul\":10797:10806   */\n      add\n        /* \"#utility.yul\":10792:10806   */\n      swap1\n      pop\n        /* \"#utility.yul\":10757:11041   */\n      jump(tag_333)\n    tag_335:\n        /* \"#utility.yul\":10761:10775   */\n      pop\n        /* \"#utility.yul\":11057:11060   */\n      dup6\n        /* \"#utility.yul\":11050:11060   */\n      swap4\n      pop\n        /* \"#utility.yul\":10458:11066   */\n      pop\n      pop\n      pop\n        /* \"#utility.yul\":10334:11066   */\n      swap3\n      swap2\n      pop\n      pop\n      jump\t// out\n        /* \"#utility.yul\":11072:11412   */\n    tag_289:\n        /* \"#utility.yul\":11148:11151   */\n      0x00\n        /* \"#utility.yul\":11176:11214   */\n      tag_340\n        /* \"#utility.yul\":11208:11213   */\n      dup3\n        /* \"#utility.yul\":11176:11214   */\n      tag_341\n      jump\t// in\n    tag_340:\n        /* \"#utility.yul\":11230:11290   */\n      tag_342\n        /* \"#utility.yul\":11283:11289   */\n      dup2\n        /* \"#utility.yul\":11278:11281   */\n      dup6\n        /* \"#utility.yul\":11230:11290   */\n      tag_343\n      jump\t// in\n    tag_342:\n        /* \"#utility.yul\":11223:11290   */\n      swap4\n      pop\n        /* \"#utility.yul\":11299:11351   */\n      tag_344\n        /* \"#utility.yul\":11344:11350   */\n      dup2\n        /* \"#utility.yul\":11339:11342   */\n      dup6\n        /* \"#utility.yul\":11332:11336   */\n      0x20\n        /* \"#utility.yul\":11325:11330   */\n      dup7\n        /* \"#utility.yul\":11321:11337   */\n      add\n        /* \"#utility.yul\":11299:11351   */\n      tag_345\n      jump\t// in\n    tag_344:\n        /* \"#utility.yul\":11376:11405   */\n      tag_346\n        /* \"#utility.yul\":11398:11404   */\n      dup2\n        /* \"#utility.yul\":11376:11405   */\n      tag_347\n      jump\t// in\n    tag_346:\n        /* \"#utility.yul\":11371:11374   */\n      dup5\n        /* \"#utility.yul\":11367:11406   */\n      add\n        /* \"#utility.yul\":11360:11406   */\n      swap2\n      pop\n        /* \"#utility.yul\":11152:11412   */\n      pop\n        /* \"#utility.yul\":11072:11412   */\n      swap3\n      swap2\n      pop\n      pop\n      jump\t// out\n        /* \"#utility.yul\":11418:11778   */\n    tag_348:\n        /* \"#utility.yul\":11504:11507   */\n      0x00\n        /* \"#utility.yul\":11532:11570   */\n      tag_350\n        /* \"#utility.yul\":11564:11569   */\n      dup3\n        /* \"#utility.yul\":11532:11570   */\n      tag_341\n      jump\t// in\n    tag_350:\n        /* \"#utility.yul\":11586:11656   */\n      tag_351\n        /* \"#utility.yul\":11649:11655   */\n      dup2\n        /* \"#utility.yul\":11644:11647   */\n      dup6\n        /* \"#utility.yul\":11586:11656   */\n      tag_352\n      jump\t// in\n    tag_351:\n        /* \"#utility.yul\":11579:11656   */\n      swap4\n      pop\n        /* \"#utility.yul\":11665:11717   */\n      tag_353\n        /* \"#utility.yul\":11710:11716   */\n      dup2\n        /* \"#utility.yul\":11705:11708   */\n      dup6\n        /* \"#utility.yul\":11698:11702   */\n      0x20\n        /* \"#utility.yul\":11691:11696   */\n      dup7\n        /* \"#utility.yul\":11687:11703   */\n      add\n        /* \"#utility.yul\":11665:11717   */\n      tag_345\n      jump\t// in\n    tag_353:\n        /* \"#utility.yul\":11742:11771   */\n      tag_354\n        /* \"#utility.yul\":11764:11770   */\n      dup2\n        /* \"#utility.yul\":11742:11771   */\n      tag_347\n      jump\t// in\n    tag_354:\n        /* \"#utility.yul\":11737:11740   */\n      dup5\n        /* \"#utility.yul\":11733:11772   */\n      add\n        /* \"#utility.yul\":11726:11772   */\n      swap2\n      pop\n        /* \"#utility.yul\":11508:11778   */\n      pop\n        /* \"#utility.yul\":11418:11778   */\n      swap3\n      swap2\n      pop\n      pop\n      jump\t// out\n        /* \"#utility.yul\":11890:14169   */\n    tag_355:\n        /* \"#utility.yul\":12029:12032   */\n      0x00\n        /* \"#utility.yul\":12065:12071   */\n      0x0100\n        /* \"#utility.yul\":12060:12063   */\n      dup4\n        /* \"#utility.yul\":12056:12072   */\n      add\n        /* \"#utility.yul\":12165:12169   */\n      0x00\n        /* \"#utility.yul\":12158:12163   */\n      dup4\n        /* \"#utility.yul\":12154:12170   */\n      add\n        /* \"#utility.yul\":12148:12171   */\n      mload\n        /* \"#utility.yul\":12218:12221   */\n      dup5\n        /* \"#utility.yul\":12212:12216   */\n      dup3\n        /* \"#utility.yul\":12208:12222   */\n      sub\n        /* \"#utility.yul\":12201:12205   */\n      0x00\n        /* \"#utility.yul\":12196:12199   */\n      dup7\n        /* \"#utility.yul\":12192:12206   */\n      add\n        /* \"#utility.yul\":12185:12223   */\n      mstore\n        /* \"#utility.yul\":12244:12347   */\n      tag_357\n        /* \"#utility.yul\":12342:12346   */\n      dup3\n        /* \"#utility.yul\":12328:12340   */\n      dup3\n        /* \"#utility.yul\":12244:12347   */\n      tag_297\n      jump\t// in\n    tag_357:\n        /* \"#utility.yul\":12236:12347   */\n      swap2\n      pop\n        /* \"#utility.yul\":12082:12358   */\n      pop\n        /* \"#utility.yul\":12441:12445   */\n      0x20\n        /* \"#utility.yul\":12434:12439   */\n      dup4\n        /* \"#utility.yul\":12430:12446   */\n      add\n        /* \"#utility.yul\":12424:12447   */\n      mload\n        /* \"#utility.yul\":12494:12497   */\n      dup5\n        /* \"#utility.yul\":12488:12492   */\n      dup3\n        /* \"#utility.yul\":12484:12498   */\n      sub\n        /* \"#utility.yul\":12477:12481   */\n      0x20\n        /* \"#utility.yul\":12472:12475   */\n      dup7\n        /* \"#utility.yul\":12468:12482   */\n      add\n        /* \"#utility.yul\":12461:12499   */\n      mstore\n        /* \"#utility.yul\":12520:12641   */\n      tag_358\n        /* \"#utility.yul\":12636:12640   */\n      dup3\n        /* \"#utility.yul\":12622:12634   */\n      dup3\n        /* \"#utility.yul\":12520:12641   */\n      tag_311\n      jump\t// in\n    tag_358:\n        /* \"#utility.yul\":12512:12641   */\n      swap2\n      pop\n        /* \"#utility.yul\":12368:12652   */\n      pop\n        /* \"#utility.yul\":12737:12741   */\n      0x40\n        /* \"#utility.yul\":12730:12735   */\n      dup4\n        /* \"#utility.yul\":12726:12742   */\n      add\n        /* \"#utility.yul\":12720:12743   */\n      mload\n        /* \"#utility.yul\":12790:12793   */\n      dup5\n        /* \"#utility.yul\":12784:12788   */\n      dup3\n        /* \"#utility.yul\":12780:12794   */\n      sub\n        /* \"#utility.yul\":12773:12777   */\n      0x40\n        /* \"#utility.yul\":12768:12771   */\n      dup7\n        /* \"#utility.yul\":12764:12778   */\n      add\n        /* \"#utility.yul\":12757:12795   */\n      mstore\n        /* \"#utility.yul\":12816:12887   */\n      tag_359\n        /* \"#utility.yul\":12882:12886   */\n      dup3\n        /* \"#utility.yul\":12868:12880   */\n      dup3\n        /* \"#utility.yul\":12816:12887   */\n      tag_289\n      jump\t// in\n    tag_359:\n        /* \"#utility.yul\":12808:12887   */\n      swap2\n      pop\n        /* \"#utility.yul\":12662:12898   */\n      pop\n        /* \"#utility.yul\":12990:12994   */\n      0x60\n        /* \"#utility.yul\":12983:12988   */\n      dup4\n        /* \"#utility.yul\":12979:12995   */\n      add\n        /* \"#utility.yul\":12973:12996   */\n      mload\n        /* \"#utility.yul\":13043:13046   */\n      dup5\n        /* \"#utility.yul\":13037:13041   */\n      dup3\n        /* \"#utility.yul\":13033:13047   */\n      sub\n        /* \"#utility.yul\":13026:13030   */\n      0x60\n        /* \"#utility.yul\":13021:13024   */\n      dup7\n        /* \"#utility.yul\":13017:13031   */\n      add\n        /* \"#utility.yul\":13010:13048   */\n      mstore\n        /* \"#utility.yul\":13069:13140   */\n      tag_360\n        /* \"#utility.yul\":13135:13139   */\n      dup3\n        /* \"#utility.yul\":13121:13133   */\n      dup3\n        /* \"#utility.yul\":13069:13140   */\n      tag_289\n      jump\t// in\n    tag_360:\n        /* \"#utility.yul\":13061:13140   */\n      swap2\n      pop\n        /* \"#utility.yul\":12908:13151   */\n      pop\n        /* \"#utility.yul\":13236:13240   */\n      0x80\n        /* \"#utility.yul\":13229:13234   */\n      dup4\n        /* \"#utility.yul\":13225:13241   */\n      add\n        /* \"#utility.yul\":13219:13242   */\n      mload\n        /* \"#utility.yul\":13289:13292   */\n      dup5\n        /* \"#utility.yul\":13283:13287   */\n      dup3\n        /* \"#utility.yul\":13279:13293   */\n      sub\n        /* \"#utility.yul\":13272:13276   */\n      0x80\n        /* \"#utility.yul\":13267:13270   */\n      dup7\n        /* \"#utility.yul\":13263:13277   */\n      add\n        /* \"#utility.yul\":13256:13294   */\n      mstore\n        /* \"#utility.yul\":13315:13386   */\n      tag_361\n        /* \"#utility.yul\":13381:13385   */\n      dup3\n        /* \"#utility.yul\":13367:13379   */\n      dup3\n        /* \"#utility.yul\":13315:13386   */\n      tag_289\n      jump\t// in\n    tag_361:\n        /* \"#utility.yul\":13307:13386   */\n      swap2\n      pop\n        /* \"#utility.yul\":13161:13397   */\n      pop\n        /* \"#utility.yul\":13483:13487   */\n      0xa0\n        /* \"#utility.yul\":13476:13481   */\n      dup4\n        /* \"#utility.yul\":13472:13488   */\n      add\n        /* \"#utility.yul\":13466:13489   */\n      mload\n        /* \"#utility.yul\":13536:13539   */\n      dup5\n        /* \"#utility.yul\":13530:13534   */\n      dup3\n        /* \"#utility.yul\":13526:13540   */\n      sub\n        /* \"#utility.yul\":13519:13523   */\n      0xa0\n        /* \"#utility.yul\":13514:13517   */\n      dup7\n        /* \"#utility.yul\":13510:13524   */\n      add\n        /* \"#utility.yul\":13503:13541   */\n      mstore\n        /* \"#utility.yul\":13562:13633   */\n      tag_362\n        /* \"#utility.yul\":13628:13632   */\n      dup3\n        /* \"#utility.yul\":13614:13626   */\n      dup3\n        /* \"#utility.yul\":13562:13633   */\n      tag_289\n      jump\t// in\n    tag_362:\n        /* \"#utility.yul\":13554:13633   */\n      swap2\n      pop\n        /* \"#utility.yul\":13407:13644   */\n      pop\n        /* \"#utility.yul\":13729:13733   */\n      0xc0\n        /* \"#utility.yul\":13722:13727   */\n      dup4\n        /* \"#utility.yul\":13718:13734   */\n      add\n        /* \"#utility.yul\":13712:13735   */\n      mload\n        /* \"#utility.yul\":13782:13785   */\n      dup5\n        /* \"#utility.yul\":13776:13780   */\n      dup3\n        /* \"#utility.yul\":13772:13786   */\n      sub\n        /* \"#utility.yul\":13765:13769   */\n      0xc0\n        /* \"#utility.yul\":13760:13763   */\n      dup7\n        /* \"#utility.yul\":13756:13770   */\n      add\n        /* \"#utility.yul\":13749:13787   */\n      mstore\n        /* \"#utility.yul\":13808:13879   */\n      tag_363\n        /* \"#utility.yul\":13874:13878   */\n      dup3\n        /* \"#utility.yul\":13860:13872   */\n      dup3\n        /* \"#utility.yul\":13808:13879   */\n      tag_289\n      jump\t// in\n    tag_363:\n        /* \"#utility.yul\":13800:13879   */\n      swap2\n      pop\n        /* \"#utility.yul\":13654:13890   */\n      pop\n        /* \"#utility.yul\":13981:13985   */\n      0xe0\n        /* \"#utility.yul\":13974:13979   */\n      dup4\n        /* \"#utility.yul\":13970:13986   */\n      add\n        /* \"#utility.yul\":13964:13987   */\n      mload\n        /* \"#utility.yul\":14034:14037   */\n      dup5\n        /* \"#utility.yul\":14028:14032   */\n      dup3\n        /* \"#utility.yul\":14024:14038   */\n      sub\n        /* \"#utility.yul\":14017:14021   */\n      0xe0\n        /* \"#utility.yul\":14012:14015   */\n      dup7\n        /* \"#utility.yul\":14008:14022   */\n      add\n        /* \"#utility.yul\":14001:14039   */\n      mstore\n        /* \"#utility.yul\":14060:14131   */\n      tag_364\n        /* \"#utility.yul\":14126:14130   */\n      dup3\n        /* \"#utility.yul\":14112:14124   */\n      dup3\n        /* \"#utility.yul\":14060:14131   */\n      tag_289\n      jump\t// in\n    tag_364:\n        /* \"#utility.yul\":14052:14131   */\n      swap2\n      pop\n        /* \"#utility.yul\":13900:14142   */\n      pop\n        /* \"#utility.yul\":14159:14163   */\n      dup1\n        /* \"#utility.yul\":14152:14163   */\n      swap2\n      pop\n        /* \"#utility.yul\":12034:14169   */\n      pop\n        /* \"#utility.yul\":11890:14169   */\n      swap3\n      swap2\n      pop\n      pop\n      jump\t// out\n        /* \"#utility.yul\":14175:14283   */\n    tag_293:\n        /* \"#utility.yul\":14252:14276   */\n      tag_366\n        /* \"#utility.yul\":14270:14275   */\n      dup2\n        /* \"#utility.yul\":14252:14276   */\n      tag_367\n      jump\t// in\n    tag_366:\n        /* \"#utility.yul\":14247:14250   */\n      dup3\n        /* \"#utility.yul\":14240:14277   */\n      mstore\n        /* \"#utility.yul\":14175:14283   */\n      pop\n      pop\n      jump\t// out\n        /* \"#utility.yul\":14289:14407   */\n    tag_368:\n        /* \"#utility.yul\":14376:14400   */\n      tag_370\n        /* \"#utility.yul\":14394:14399   */\n      dup2\n        /* \"#utility.yul\":14376:14400   */\n      tag_367\n      jump\t// in\n    tag_370:\n        /* \"#utility.yul\":14371:14374   */\n      dup3\n        /* \"#utility.yul\":14364:14401   */\n      mstore\n        /* \"#utility.yul\":14289:14407   */\n      pop\n      pop\n      jump\t// out\n        /* \"#utility.yul\":14413:14786   */\n    tag_12:\n        /* \"#utility.yul\":14556:14560   */\n      0x00\n        /* \"#utility.yul\":14594:14596   */\n      0x20\n        /* \"#utility.yul\":14583:14592   */\n      dup3\n        /* \"#utility.yul\":14579:14597   */\n      add\n        /* \"#utility.yul\":14571:14597   */\n      swap1\n      pop\n        /* \"#utility.yul\":14643:14652   */\n      dup2\n        /* \"#utility.yul\":14637:14641   */\n      dup2\n        /* \"#utility.yul\":14633:14653   */\n      sub\n        /* \"#utility.yul\":14629:14630   */\n      0x00\n        /* \"#utility.yul\":14618:14627   */\n      dup4\n        /* \"#utility.yul\":14614:14631   */\n      add\n        /* \"#utility.yul\":14607:14654   */\n      mstore\n        /* \"#utility.yul\":14671:14779   */\n      tag_372\n        /* \"#utility.yul\":14774:14778   */\n      dup2\n        /* \"#utility.yul\":14765:14771   */\n      dup5\n        /* \"#utility.yul\":14671:14779   */\n      tag_325\n      jump\t// in\n    tag_372:\n        /* \"#utility.yul\":14663:14779   */\n      swap1\n      pop\n        /* \"#utility.yul\":14413:14786   */\n      swap3\n      swap2\n      pop\n      pop\n      jump\t// out\n        /* \"#utility.yul\":14792:16089   */\n    tag_28:\n        /* \"#utility.yul\":15133:15137   */\n      0x00\n        /* \"#utility.yul\":15171:15174   */\n      0xc0\n        /* \"#utility.yul\":15160:15169   */\n      dup3\n        /* \"#utility.yul\":15156:15175   */\n      add\n        /* \"#utility.yul\":15148:15175   */\n      swap1\n      pop\n        /* \"#utility.yul\":15221:15230   */\n      dup2\n        /* \"#utility.yul\":15215:15219   */\n      dup2\n        /* \"#utility.yul\":15211:15231   */\n      sub\n        /* \"#utility.yul\":15207:15208   */\n      0x00\n        /* \"#utility.yul\":15196:15205   */\n      dup4\n        /* \"#utility.yul\":15192:15209   */\n      add\n        /* \"#utility.yul\":15185:15232   */\n      mstore\n        /* \"#utility.yul\":15249:15325   */\n      tag_374\n        /* \"#utility.yul\":15320:15324   */\n      dup2\n        /* \"#utility.yul\":15311:15317   */\n      dup10\n        /* \"#utility.yul\":15249:15325   */\n      tag_348\n      jump\t// in\n    tag_374:\n        /* \"#utility.yul\":15241:15325   */\n      swap1\n      pop\n        /* \"#utility.yul\":15372:15381   */\n      dup2\n        /* \"#utility.yul\":15366:15370   */\n      dup2\n        /* \"#utility.yul\":15362:15382   */\n      sub\n        /* \"#utility.yul\":15357:15359   */\n      0x20\n        /* \"#utility.yul\":15346:15355   */\n      dup4\n        /* \"#utility.yul\":15342:15360   */\n      add\n        /* \"#utility.yul\":15335:15383   */\n      mstore\n        /* \"#utility.yul\":15400:15476   */\n      tag_375\n        /* \"#utility.yul\":15471:15475   */\n      dup2\n        /* \"#utility.yul\":15462:15468   */\n      dup9\n        /* \"#utility.yul\":15400:15476   */\n      tag_348\n      jump\t// in\n    tag_375:\n        /* \"#utility.yul\":15392:15476   */\n      swap1\n      pop\n        /* \"#utility.yul\":15523:15532   */\n      dup2\n        /* \"#utility.yul\":15517:15521   */\n      dup2\n        /* \"#utility.yul\":15513:15533   */\n      sub\n        /* \"#utility.yul\":15508:15510   */\n      0x40\n        /* \"#utility.yul\":15497:15506   */\n      dup4\n        /* \"#utility.yul\":15493:15511   */\n      add\n        /* \"#utility.yul\":15486:15534   */\n      mstore\n        /* \"#utility.yul\":15551:15627   */\n      tag_376\n        /* \"#utility.yul\":15622:15626   */\n      dup2\n        /* \"#utility.yul\":15613:15619   */\n      dup8\n        /* \"#utility.yul\":15551:15627   */\n      tag_348\n      jump\t// in\n    tag_376:\n        /* \"#utility.yul\":15543:15627   */\n      swap1\n      pop\n        /* \"#utility.yul\":15674:15683   */\n      dup2\n        /* \"#utility.yul\":15668:15672   */\n      dup2\n        /* \"#utility.yul\":15664:15684   */\n      sub\n        /* \"#utility.yul\":15659:15661   */\n      0x60\n        /* \"#utility.yul\":15648:15657   */\n      dup4\n        /* \"#utility.yul\":15644:15662   */\n      add\n        /* \"#utility.yul\":15637:15685   */\n      mstore\n        /* \"#utility.yul\":15702:15778   */\n      tag_377\n        /* \"#utility.yul\":15773:15777   */\n      dup2\n        /* \"#utility.yul\":15764:15770   */\n      dup7\n        /* \"#utility.yul\":15702:15778   */\n      tag_348\n      jump\t// in\n    tag_377:\n        /* \"#utility.yul\":15694:15778   */\n      swap1\n      pop\n        /* \"#utility.yul\":15826:15835   */\n      dup2\n        /* \"#utility.yul\":15820:15824   */\n      dup2\n        /* \"#utility.yul\":15816:15836   */\n      sub\n        /* \"#utility.yul\":15810:15813   */\n      0x80\n        /* \"#utility.yul\":15799:15808   */\n      dup4\n        /* \"#utility.yul\":15795:15814   */\n      add\n        /* \"#utility.yul\":15788:15837   */\n      mstore\n        /* \"#utility.yul\":15854:15930   */\n      tag_378\n        /* \"#utility.yul\":15925:15929   */\n      dup2\n        /* \"#utility.yul\":15916:15922   */\n      dup6\n        /* \"#utility.yul\":15854:15930   */\n      tag_348\n      jump\t// in\n    tag_378:\n        /* \"#utility.yul\":15846:15930   */\n      swap1\n      pop\n        /* \"#utility.yul\":15978:15987   */\n      dup2\n        /* \"#utility.yul\":15972:15976   */\n      dup2\n        /* \"#utility.yul\":15968:15988   */\n      sub\n        /* \"#utility.yul\":15962:15965   */\n      0xa0\n        /* \"#utility.yul\":15951:15960   */\n      dup4\n        /* \"#utility.yul\":15947:15966   */\n      add\n        /* \"#utility.yul\":15940:15989   */\n      mstore\n        /* \"#utility.yul\":16006:16082   */\n      tag_379\n        /* \"#utility.yul\":16077:16081   */\n      dup2\n        /* \"#utility.yul\":16068:16074   */\n      dup5\n        /* \"#utility.yul\":16006:16082   */\n      tag_348\n      jump\t// in\n    tag_379:\n        /* \"#utility.yul\":15998:16082   */\n      swap1\n      pop\n        /* \"#utility.yul\":14792:16089   */\n      swap8\n      swap7\n      pop\n      pop\n      pop\n      pop\n      pop\n      pop\n      pop\n      jump\t// out\n        /* \"#utility.yul\":16095:16508   */\n    tag_33:\n        /* \"#utility.yul\":16258:16262   */\n      0x00\n        /* \"#utility.yul\":16296:16298   */\n      0x20\n        /* \"#utility.yul\":16285:16294   */\n      dup3\n        /* \"#utility.yul\":16281:16299   */\n      add\n        /* \"#utility.yul\":16273:16299   */\n      swap1\n      pop\n        /* \"#utility.yul\":16345:16354   */\n      dup2\n        /* \"#utility.yul\":16339:16343   */\n      dup2\n        /* \"#utility.yul\":16335:16355   */\n      sub\n        /* \"#utility.yul\":16331:16332   */\n      0x00\n        /* \"#utility.yul\":16320:16329   */\n      dup4\n        /* \"#utility.yul\":16316:16333   */\n      add\n        /* \"#utility.yul\":16309:16356   */\n      mstore\n        /* \"#utility.yul\":16373:16501   */\n      tag_381\n        /* \"#utility.yul\":16496:16500   */\n      dup2\n        /* \"#utility.yul\":16487:16493   */\n      dup5\n        /* \"#utility.yul\":16373:16501   */\n      tag_355\n      jump\t// in\n    tag_381:\n        /* \"#utility.yul\":16365:16501   */\n      swap1\n      pop\n        /* \"#utility.yul\":16095:16508   */\n      swap3\n      swap2\n      pop\n      pop\n      jump\t// out\n        /* \"#utility.yul\":16514:16736   */\n    tag_18:\n        /* \"#utility.yul\":16607:16611   */\n      0x00\n        /* \"#utility.yul\":16645:16647   */\n      0x20\n        /* \"#utility.yul\":16634:16643   */\n      dup3\n        /* \"#utility.yul\":16630:16648   */\n      add\n        /* \"#utility.yul\":16622:16648   */\n      swap1\n      pop\n        /* \"#utility.yul\":16658:16729   */\n      tag_383\n        /* \"#utility.yul\":16726:16727   */\n      0x00\n        /* \"#utility.yul\":16715:16724   */\n      dup4\n        /* \"#utility.yul\":16711:16728   */\n      add\n        /* \"#utility.yul\":16702:16708   */\n      dup5\n        /* \"#utility.yul\":16658:16729   */\n      tag_368\n      jump\t// in\n    tag_383:\n        /* \"#utility.yul\":16514:16736   */\n      swap3\n      swap2\n      pop\n      pop\n      jump\t// out\n        /* \"#utility.yul\":16742:16871   */\n    tag_180:\n        /* \"#utility.yul\":16776:16782   */\n      0x00\n        /* \"#utility.yul\":16803:16823   */\n      tag_385\n      tag_386\n      jump\t// in\n    tag_385:\n        /* \"#utility.yul\":16793:16823   */\n      swap1\n      pop\n        /* \"#utility.yul\":16832:16865   */\n      tag_387\n        /* \"#utility.yul\":16860:16864   */\n      dup3\n        /* \"#utility.yul\":16852:16858   */\n      dup3\n        /* \"#utility.yul\":16832:16865   */\n      tag_388\n      jump\t// in\n    tag_387:\n        /* \"#utility.yul\":16742:16871   */\n      swap2\n      swap1\n      pop\n      jump\t// out\n        /* \"#utility.yul\":16877:16952   */\n    tag_386:\n        /* \"#utility.yul\":16910:16916   */\n      0x00\n        /* \"#utility.yul\":16943:16945   */\n      0x40\n        /* \"#utility.yul\":16937:16946   */\n      mload\n        /* \"#utility.yul\":16927:16946   */\n      swap1\n      pop\n        /* \"#utility.yul\":16877:16952   */\n      swap1\n      jump\t// out\n        /* \"#utility.yul\":16958:17269   */\n    tag_179:\n        /* \"#utility.yul\":17035:17039   */\n      0x00\n        /* \"#utility.yul\":17125:17143   */\n      0xffffffffffffffff\n        /* \"#utility.yul\":17117:17123   */\n      dup3\n        /* \"#utility.yul\":17114:17144   */\n      gt\n        /* \"#utility.yul\":17111:17167   */\n      iszero\n      tag_391\n      jumpi\n        /* \"#utility.yul\":17147:17165   */\n      tag_392\n      tag_393\n      jump\t// in\n    tag_392:\n        /* \"#utility.yul\":17111:17167   */\n    tag_391:\n        /* \"#utility.yul\":17197:17201   */\n      0x20\n        /* \"#utility.yul\":17189:17195   */\n      dup3\n        /* \"#utility.yul\":17185:17202   */\n      mul\n        /* \"#utility.yul\":17177:17202   */\n      swap1\n      pop\n        /* \"#utility.yul\":17257:17261   */\n      0x20\n        /* \"#utility.yul\":17251:17255   */\n      dup2\n        /* \"#utility.yul\":17247:17262   */\n      add\n        /* \"#utility.yul\":17239:17262   */\n      swap1\n      pop\n        /* \"#utility.yul\":16958:17269   */\n      swap2\n      swap1\n      pop\n      jump\t// out\n        /* \"#utility.yul\":17275:17595   */\n    tag_193:\n        /* \"#utility.yul\":17361:17365   */\n      0x00\n        /* \"#utility.yul\":17451:17469   */\n      0xffffffffffffffff\n        /* \"#utility.yul\":17443:17449   */\n      dup3\n        /* \"#utility.yul\":17440:17470   */\n      gt\n        /* \"#utility.yul\":17437:17493   */\n      iszero\n      tag_395\n      jumpi\n        /* \"#utility.yul\":17473:17491   */\n      tag_396\n      tag_393\n      jump\t// in\n    tag_396:\n        /* \"#utility.yul\":17437:17493   */\n    tag_395:\n        /* \"#utility.yul\":17523:17527   */\n      0x20\n        /* \"#utility.yul\":17515:17521   */\n      dup3\n        /* \"#utility.yul\":17511:17528   */\n      mul\n        /* \"#utility.yul\":17503:17528   */\n      swap1\n      pop\n        /* \"#utility.yul\":17583:17587   */\n      0x20\n        /* \"#utility.yul\":17577:17581   */\n      dup2\n        /* \"#utility.yul\":17573:17588   */\n      add\n        /* \"#utility.yul\":17565:17588   */\n      swap1\n      pop\n        /* \"#utility.yul\":17275:17595   */\n      swap2\n      swap1\n      pop\n      jump\t// out\n        /* \"#utility.yul\":17601:17908   */\n    tag_208:\n        /* \"#utility.yul\":17662:17666   */\n      0x00\n        /* \"#utility.yul\":17752:17770   */\n      0xffffffffffffffff\n        /* \"#utility.yul\":17744:17750   */\n      dup3\n        /* \"#utility.yul\":17741:17771   */\n      gt\n        /* \"#utility.yul\":17738:17794   */\n      iszero\n      tag_398\n      jumpi\n        /* \"#utility.yul\":17774:17792   */\n      tag_399\n      tag_393\n      jump\t// in\n    tag_399:\n        /* \"#utility.yul\":17738:17794   */\n    tag_398:\n        /* \"#utility.yul\":17812:17841   */\n      tag_400\n        /* \"#utility.yul\":17834:17840   */\n      dup3\n        /* \"#utility.yul\":17812:17841   */\n      tag_347\n      jump\t// in\n    tag_400:\n        /* \"#utility.yul\":17804:17841   */\n      swap1\n      pop\n        /* \"#utility.yul\":17896:17900   */\n      0x20\n        /* \"#utility.yul\":17890:17894   */\n      dup2\n        /* \"#utility.yul\":17886:17901   */\n      add\n        /* \"#utility.yul\":17878:17901   */\n      swap1\n      pop\n        /* \"#utility.yul\":17601:17908   */\n      swap2\n      swap1\n      pop\n      jump\t// out\n        /* \"#utility.yul\":17914:18046   */\n    tag_304:\n        /* \"#utility.yul\":17981:17985   */\n      0x00\n        /* \"#utility.yul\":18004:18007   */\n      dup2\n        /* \"#utility.yul\":17996:18007   */\n      swap1\n      pop\n        /* \"#utility.yul\":18034:18038   */\n      0x20\n        /* \"#utility.yul\":18029:18032   */\n      dup3\n        /* \"#utility.yul\":18025:18039   */\n      add\n        /* \"#utility.yul\":18017:18039   */\n      swap1\n      pop\n        /* \"#utility.yul\":17914:18046   */\n      swap2\n      swap1\n      pop\n      jump\t// out\n        /* \"#utility.yul\":18052:18193   */\n    tag_318:\n        /* \"#utility.yul\":18128:18132   */\n      0x00\n        /* \"#utility.yul\":18151:18154   */\n      dup2\n        /* \"#utility.yul\":18143:18154   */\n      swap1\n      pop\n        /* \"#utility.yul\":18181:18185   */\n      0x20\n        /* \"#utility.yul\":18176:18179   */\n      dup3\n        /* \"#utility.yul\":18172:18186   */\n      add\n        /* \"#utility.yul\":18164:18186   */\n      swap1\n      pop\n        /* \"#utility.yul\":18052:18193   */\n      swap2\n      swap1\n      pop\n      jump\t// out\n        /* \"#utility.yul\":18199:18331   */\n    tag_332:\n        /* \"#utility.yul\":18266:18270   */\n      0x00\n        /* \"#utility.yul\":18289:18292   */\n      dup2\n        /* \"#utility.yul\":18281:18292   */\n      swap1\n      pop\n        /* \"#utility.yul\":18319:18323   */\n      0x20\n        /* \"#utility.yul\":18314:18317   */\n      dup3\n        /* \"#utility.yul\":18310:18324   */\n      add\n        /* \"#utility.yul\":18302:18324   */\n      swap1\n      pop\n        /* \"#utility.yul\":18199:18331   */\n      swap2\n      swap1\n      pop\n      jump\t// out\n        /* \"#utility.yul\":18337:18451   */\n    tag_300:\n        /* \"#utility.yul\":18404:18410   */\n      0x00\n        /* \"#utility.yul\":18438:18443   */\n      dup2\n        /* \"#utility.yul\":18432:18444   */\n      mload\n        /* \"#utility.yul\":18422:18444   */\n      swap1\n      pop\n        /* \"#utility.yul\":18337:18451   */\n      swap2\n      swap1\n      pop\n      jump\t// out\n        /* \"#utility.yul\":18457:18580   */\n    tag_314:\n        /* \"#utility.yul\":18533:18539   */\n      0x00\n        /* \"#utility.yul\":18567:18572   */\n      dup2\n        /* \"#utility.yul\":18561:18573   */\n      mload\n        /* \"#utility.yul\":18551:18573   */\n      swap1\n      pop\n        /* \"#utility.yul\":18457:18580   */\n      swap2\n      swap1\n      pop\n      jump\t// out\n        /* \"#utility.yul\":18586:18700   */\n    tag_328:\n        /* \"#utility.yul\":18653:18659   */\n      0x00\n        /* \"#utility.yul\":18687:18692   */\n      dup2\n        /* \"#utility.yul\":18681:18693   */\n      mload\n        /* \"#utility.yul\":18671:18693   */\n      swap1\n      pop\n        /* \"#utility.yul\":18586:18700   */\n      swap2\n      swap1\n      pop\n      jump\t// out\n        /* \"#utility.yul\":18706:18804   */\n    tag_341:\n        /* \"#utility.yul\":18757:18763   */\n      0x00\n        /* \"#utility.yul\":18791:18796   */\n      dup2\n        /* \"#utility.yul\":18785:18797   */\n      mload\n        /* \"#utility.yul\":18775:18797   */\n      swap1\n      pop\n        /* \"#utility.yul\":18706:18804   */\n      swap2\n      swap1\n      pop\n      jump\t// out\n        /* \"#utility.yul\":18810:18923   */\n    tag_310:\n        /* \"#utility.yul\":18880:18884   */\n      0x00\n        /* \"#utility.yul\":18912:18916   */\n      0x20\n        /* \"#utility.yul\":18907:18910   */\n      dup3\n        /* \"#utility.yul\":18903:18917   */\n      add\n        /* \"#utility.yul\":18895:18917   */\n      swap1\n      pop\n        /* \"#utility.yul\":18810:18923   */\n      swap2\n      swap1\n      pop\n      jump\t// out\n        /* \"#utility.yul\":18929:19051   */\n    tag_324:\n        /* \"#utility.yul\":19008:19012   */\n      0x00\n        /* \"#utility.yul\":19040:19044   */\n      0x20\n        /* \"#utility.yul\":19035:19038   */\n      dup3\n        /* \"#utility.yul\":19031:19045   */\n      add\n        /* \"#utility.yul\":19023:19045   */\n      swap1\n      pop\n        /* \"#utility.yul\":18929:19051   */\n      swap2\n      swap1\n      pop\n      jump\t// out\n        /* \"#utility.yul\":19057:19170   */\n    tag_338:\n        /* \"#utility.yul\":19127:19131   */\n      0x00\n        /* \"#utility.yul\":19159:19163   */\n      0x20\n        /* \"#utility.yul\":19154:19157   */\n      dup3\n        /* \"#utility.yul\":19150:19164   */\n      add\n        /* \"#utility.yul\":19142:19164   */\n      swap1\n      pop\n        /* \"#utility.yul\":19057:19170   */\n      swap2\n      swap1\n      pop\n      jump\t// out\n        /* \"#utility.yul\":19176:19350   */\n    tag_302:\n        /* \"#utility.yul\":19265:19276   */\n      0x00\n        /* \"#utility.yul\":19299:19305   */\n      dup3\n        /* \"#utility.yul\":19294:19297   */\n      dup3\n        /* \"#utility.yul\":19287:19306   */\n      mstore\n        /* \"#utility.yul\":19339:19343   */\n      0x20\n        /* \"#utility.yul\":19334:19337   */\n      dup3\n        /* \"#utility.yul\":19330:19344   */\n      add\n        /* \"#utility.yul\":19315:19344   */\n      swap1\n      pop\n        /* \"#utility.yul\":19176:19350   */\n      swap3\n      swap2\n      pop\n      pop\n      jump\t// out\n        /* \"#utility.yul\":19356:19539   */\n    tag_316:\n        /* \"#utility.yul\":19454:19465   */\n      0x00\n        /* \"#utility.yul\":19488:19494   */\n      dup3\n        /* \"#utility.yul\":19483:19486   */\n      dup3\n        /* \"#utility.yul\":19476:19495   */\n      mstore\n        /* \"#utility.yul\":19528:19532   */\n      0x20\n        /* \"#utility.yul\":19523:19526   */\n      dup3\n        /* \"#utility.yul\":19519:19533   */\n      add\n        /* \"#utility.yul\":19504:19533   */\n      swap1\n      pop\n        /* \"#utility.yul\":19356:19539   */\n      swap3\n      swap2\n      pop\n      pop\n      jump\t// out\n        /* \"#utility.yul\":19545:19729   */\n    tag_330:\n        /* \"#utility.yul\":19644:19655   */\n      0x00\n        /* \"#utility.yul\":19678:19684   */\n      dup3\n        /* \"#utility.yul\":19673:19676   */\n      dup3\n        /* \"#utility.yul\":19666:19685   */\n      mstore\n        /* \"#utility.yul\":19718:19722   */\n      0x20\n        /* \"#utility.yul\":19713:19716   */\n      dup3\n        /* \"#utility.yul\":19709:19723   */\n      add\n        /* \"#utility.yul\":19694:19723   */\n      swap1\n      pop\n        /* \"#utility.yul\":19545:19729   */\n      swap3\n      swap2\n      pop\n      pop\n      jump\t// out\n        /* \"#utility.yul\":19735:19893   */\n    tag_343:\n        /* \"#utility.yul\":19808:19819   */\n      0x00\n        /* \"#utility.yul\":19842:19848   */\n      dup3\n        /* \"#utility.yul\":19837:19840   */\n      dup3\n        /* \"#utility.yul\":19830:19849   */\n      mstore\n        /* \"#utility.yul\":19882:19886   */\n      0x20\n        /* \"#utility.yul\":19877:19880   */\n      dup3\n        /* \"#utility.yul\":19873:19887   */\n      add\n        /* \"#utility.yul\":19858:19887   */\n      swap1\n      pop\n        /* \"#utility.yul\":19735:19893   */\n      swap3\n      swap2\n      pop\n      pop\n      jump\t// out\n        /* \"#utility.yul\":19899:20067   */\n    tag_352:\n        /* \"#utility.yul\":19982:19993   */\n      0x00\n        /* \"#utility.yul\":20016:20022   */\n      dup3\n        /* \"#utility.yul\":20011:20014   */\n      dup3\n        /* \"#utility.yul\":20004:20023   */\n      mstore\n        /* \"#utility.yul\":20056:20060   */\n      0x20\n        /* \"#utility.yul\":20051:20054   */\n      dup3\n        /* \"#utility.yul\":20047:20061   */\n      add\n        /* \"#utility.yul\":20032:20061   */\n      swap1\n      pop\n        /* \"#utility.yul\":19899:20067   */\n      swap3\n      swap2\n      pop\n      pop\n      jump\t// out\n        /* \"#utility.yul\":20073:20169   */\n    tag_296:\n        /* \"#utility.yul\":20110:20117   */\n      0x00\n        /* \"#utility.yul\":20139:20163   */\n      tag_417\n        /* \"#utility.yul\":20157:20162   */\n      dup3\n        /* \"#utility.yul\":20139:20163   */\n      tag_418\n      jump\t// in\n    tag_417:\n        /* \"#utility.yul\":20128:20163   */\n      swap1\n      pop\n        /* \"#utility.yul\":20073:20169   */\n      swap2\n      swap1\n      pop\n      jump\t// out\n        /* \"#utility.yul\":20175:20301   */\n    tag_418:\n        /* \"#utility.yul\":20212:20219   */\n      0x00\n        /* \"#utility.yul\":20252:20294   */\n      0xffffffffffffffffffffffffffffffffffffffff\n        /* \"#utility.yul\":20245:20250   */\n      dup3\n        /* \"#utility.yul\":20241:20295   */\n      and\n        /* \"#utility.yul\":20230:20295   */\n      swap1\n      pop\n        /* \"#utility.yul\":20175:20301   */\n      swap2\n      swap1\n      pop\n      jump\t// out\n        /* \"#utility.yul\":20307:20384   */\n    tag_367:\n        /* \"#utility.yul\":20344:20351   */\n      0x00\n        /* \"#utility.yul\":20373:20378   */\n      dup2\n        /* \"#utility.yul\":20362:20378   */\n      swap1\n      pop\n        /* \"#utility.yul\":20307:20384   */\n      swap2\n      swap1\n      pop\n      jump\t// out\n        /* \"#utility.yul\":20390:20544   */\n    tag_213:\n        /* \"#utility.yul\":20474:20480   */\n      dup3\n        /* \"#utility.yul\":20469:20472   */\n      dup2\n        /* \"#utility.yul\":20464:20467   */\n      dup4\n        /* \"#utility.yul\":20451:20481   */\n      calldatacopy\n        /* \"#utility.yul\":20536:20537   */\n      0x00\n        /* \"#utility.yul\":20527:20533   */\n      dup4\n        /* \"#utility.yul\":20522:20525   */\n      dup4\n        /* \"#utility.yul\":20518:20534   */\n      add\n        /* \"#utility.yul\":20511:20538   */\n      mstore\n        /* \"#utility.yul\":20390:20544   */\n      pop\n      pop\n      pop\n      jump\t// out\n        /* \"#utility.yul\":20550:20857   */\n    tag_345:\n        /* \"#utility.yul\":20618:20619   */\n      0x00\n        /* \"#utility.yul\":20628:20741   */\n    tag_423:\n        /* \"#utility.yul\":20642:20648   */\n      dup4\n        /* \"#utility.yul\":20639:20640   */\n      dup2\n        /* \"#utility.yul\":20636:20649   */\n      lt\n        /* \"#utility.yul\":20628:20741   */\n      iszero\n      tag_425\n      jumpi\n        /* \"#utility.yul\":20727:20728   */\n      dup1\n        /* \"#utility.yul\":20722:20725   */\n      dup3\n        /* \"#utility.yul\":20718:20729   */\n      add\n        /* \"#utility.yul\":20712:20730   */\n      mload\n        /* \"#utility.yul\":20708:20709   */\n      dup2\n        /* \"#utility.yul\":20703:20706   */\n      dup5\n        /* \"#utility.yul\":20699:20710   */\n      add\n        /* \"#utility.yul\":20692:20731   */\n      mstore\n        /* \"#utility.yul\":20664:20666   */\n      0x20\n        /* \"#utility.yul\":20661:20662   */\n      dup2\n        /* \"#utility.yul\":20657:20667   */\n      add\n        /* \"#utility.yul\":20652:20667   */\n      swap1\n      pop\n        /* \"#utility.yul\":20628:20741   */\n      jump(tag_423)\n    tag_425:\n        /* \"#utility.yul\":20759:20765   */\n      dup4\n        /* \"#utility.yul\":20756:20757   */\n      dup2\n        /* \"#utility.yul\":20753:20766   */\n      gt\n        /* \"#utility.yul\":20750:20851   */\n      iszero\n      tag_426\n      jumpi\n        /* \"#utility.yul\":20839:20840   */\n      0x00\n        /* \"#utility.yul\":20830:20836   */\n      dup5\n        /* \"#utility.yul\":20825:20828   */\n      dup5\n        /* \"#utility.yul\":20821:20837   */\n      add\n        /* \"#utility.yul\":20814:20841   */\n      mstore\n        /* \"#utility.yul\":20750:20851   */\n    tag_426:\n        /* \"#utility.yul\":20599:20857   */\n      pop\n        /* \"#utility.yul\":20550:20857   */\n      pop\n      pop\n      pop\n      jump\t// out\n        /* \"#utility.yul\":20863:21183   */\n    tag_58:\n        /* \"#utility.yul\":20907:20913   */\n      0x00\n        /* \"#utility.yul\":20944:20945   */\n      0x02\n        /* \"#utility.yul\":20938:20942   */\n      dup3\n        /* \"#utility.yul\":20934:20946   */\n      div\n        /* \"#utility.yul\":20924:20946   */\n      swap1\n      pop\n        /* \"#utility.yul\":20991:20992   */\n      0x01\n        /* \"#utility.yul\":20985:20989   */\n      dup3\n        /* \"#utility.yul\":20981:20993   */\n      and\n        /* \"#utility.yul\":21012:21030   */\n      dup1\n        /* \"#utility.yul\":21002:21083   */\n      tag_428\n      jumpi\n        /* \"#utility.yul\":21068:21072   */\n      0x7f\n        /* \"#utility.yul\":21060:21066   */\n      dup3\n        /* \"#utility.yul\":21056:21073   */\n      and\n        /* \"#utility.yul\":21046:21073   */\n      swap2\n      pop\n        /* \"#utility.yul\":21002:21083   */\n    tag_428:\n        /* \"#utility.yul\":21130:21132   */\n      0x20\n        /* \"#utility.yul\":21122:21128   */\n      dup3\n        /* \"#utility.yul\":21119:21133   */\n      lt\n        /* \"#utility.yul\":21099:21117   */\n      dup2\n        /* \"#utility.yul\":21096:21134   */\n      eq\n        /* \"#utility.yul\":21093:21177   */\n      iszero\n      tag_429\n      jumpi\n        /* \"#utility.yul\":21149:21167   */\n      tag_430\n      tag_431\n      jump\t// in\n    tag_430:\n        /* \"#utility.yul\":21093:21177   */\n    tag_429:\n        /* \"#utility.yul\":20914:21183   */\n      pop\n        /* \"#utility.yul\":20863:21183   */\n      swap2\n      swap1\n      pop\n      jump\t// out\n        /* \"#utility.yul\":21189:21470   */\n    tag_388:\n        /* \"#utility.yul\":21272:21299   */\n      tag_433\n        /* \"#utility.yul\":21294:21298   */\n      dup3\n        /* \"#utility.yul\":21272:21299   */\n      tag_347\n      jump\t// in\n    tag_433:\n        /* \"#utility.yul\":21264:21270   */\n      dup2\n        /* \"#utility.yul\":21260:21300   */\n      add\n        /* \"#utility.yul\":21402:21408   */\n      dup2\n        /* \"#utility.yul\":21390:21400   */\n      dup2\n        /* \"#utility.yul\":21387:21409   */\n      lt\n        /* \"#utility.yul\":21366:21384   */\n      0xffffffffffffffff\n        /* \"#utility.yul\":21354:21364   */\n      dup3\n        /* \"#utility.yul\":21351:21385   */\n      gt\n        /* \"#utility.yul\":21348:21410   */\n      or\n        /* \"#utility.yul\":21345:21433   */\n      iszero\n      tag_434\n      jumpi\n        /* \"#utility.yul\":21413:21431   */\n      tag_435\n      tag_393\n      jump\t// in\n    tag_435:\n        /* \"#utility.yul\":21345:21433   */\n    tag_434:\n        /* \"#utility.yul\":21453:21463   */\n      dup1\n        /* \"#utility.yul\":21449:21451   */\n      0x40\n        /* \"#utility.yul\":21442:21464   */\n      mstore\n        /* \"#utility.yul\":21232:21470   */\n      pop\n        /* \"#utility.yul\":21189:21470   */\n      pop\n      pop\n      jump\t// out\n        /* \"#utility.yul\":21476:21709   */\n    tag_56:\n        /* \"#utility.yul\":21515:21518   */\n      0x00\n        /* \"#utility.yul\":21538:21562   */\n      tag_437\n        /* \"#utility.yul\":21556:21561   */\n      dup3\n        /* \"#utility.yul\":21538:21562   */\n      tag_367\n      jump\t// in\n    tag_437:\n        /* \"#utility.yul\":21529:21562   */\n      swap2\n      pop\n        /* \"#utility.yul\":21584:21650   */\n      0xffffffffffffffffffffffffffffffffffffffffffffffffffffffffffffffff\n        /* \"#utility.yul\":21577:21582   */\n      dup3\n        /* \"#utility.yul\":21574:21651   */\n      eq\n        /* \"#utility.yul\":21571:21674   */\n      iszero\n      tag_438\n      jumpi\n        /* \"#utility.yul\":21654:21672   */\n      tag_439\n      tag_440\n      jump\t// in\n    tag_439:\n        /* \"#utility.yul\":21571:21674   */\n    tag_438:\n        /* \"#utility.yul\":21701:21702   */\n      0x01\n        /* \"#utility.yul\":21694:21699   */\n      dup3\n        /* \"#utility.yul\":21690:21703   */\n      add\n        /* \"#utility.yul\":21683:21703   */\n      swap1\n      pop\n        /* \"#utility.yul\":21476:21709   */\n      swap2\n      swap1\n      pop\n      jump\t// out\n        /* \"#utility.yul\":21715:21895   */\n    tag_440:\n        /* \"#utility.yul\":21763:21840   */\n      0x4e487b7100000000000000000000000000000000000000000000000000000000\n        /* \"#utility.yul\":21760:21761   */\n      0x00\n        /* \"#utility.yul\":21753:21841   */\n      mstore\n        /* \"#utility.yul\":21860:21864   */\n      0x11\n        /* \"#utility.yul\":21857:21858   */\n      0x04\n        /* \"#utility.yul\":21850:21865   */\n      mstore\n        /* \"#utility.yul\":21884:21888   */\n      0x24\n        /* \"#utility.yul\":21881:21882   */\n      0x00\n        /* \"#utility.yul\":21874:21889   */\n      revert\n        /* \"#utility.yul\":21901:22081   */\n    tag_431:\n        /* \"#utility.yul\":21949:22026   */\n      0x4e487b7100000000000000000000000000000000000000000000000000000000\n        /* \"#utility.yul\":21946:21947   */\n      0x00\n        /* \"#utility.yul\":21939:22027   */\n      mstore\n        /* \"#utility.yul\":22046:22050   */\n      0x22\n        /* \"#utility.yul\":22043:22044   */\n      0x04\n        /* \"#utility.yul\":22036:22051   */\n      mstore\n        /* \"#utility.yul\":22070:22074   */\n      0x24\n        /* \"#utility.yul\":22067:22068   */\n      0x00\n        /* \"#utility.yul\":22060:22075   */\n      revert\n        /* \"#utility.yul\":22087:22267   */\n    tag_393:\n        /* \"#utility.yul\":22135:22212   */\n      0x4e487b7100000000000000000000000000000000000000000000000000000000\n        /* \"#utility.yul\":22132:22133   */\n      0x00\n        /* \"#utility.yul\":22125:22213   */\n      mstore\n        /* \"#utility.yul\":22232:22236   */\n      0x41\n        /* \"#utility.yul\":22229:22230   */\n      0x04\n        /* \"#utility.yul\":22222:22237   */\n      mstore\n        /* \"#utility.yul\":22256:22260   */\n      0x24\n        /* \"#utility.yul\":22253:22254   */\n      0x00\n        /* \"#utility.yul\":22246:22261   */\n      revert\n        /* \"#utility.yul\":22273:22390   */\n    tag_233:\n        /* \"#utility.yul\":22382:22383   */\n      0x00\n        /* \"#utility.yul\":22379:22380   */\n      dup1\n        /* \"#utility.yul\":22372:22384   */\n      revert\n        /* \"#utility.yul\":22396:22513   */\n    tag_201:\n        /* \"#utility.yul\":22505:22506   */\n      0x00\n        /* \"#utility.yul\":22502:22503   */\n      dup1\n        /* \"#utility.yul\":22495:22507   */\n      revert\n        /* \"#utility.yul\":22519:22636   */\n    tag_183:\n        /* \"#utility.yul\":22628:22629   */\n      0x00\n        /* \"#utility.yul\":22625:22626   */\n      dup1\n        /* \"#utility.yul\":22618:22630   */\n      revert\n        /* \"#utility.yul\":22642:22759   */\n    tag_211:\n        /* \"#utility.yul\":22751:22752   */\n      0x00\n        /* \"#utility.yul\":22748:22749   */\n      dup1\n        /* \"#utility.yul\":22741:22753   */\n      revert\n        /* \"#utility.yul\":22765:22882   */\n    tag_255:\n        /* \"#utility.yul\":22874:22875   */\n      0x00\n        /* \"#utility.yul\":22871:22872   */\n      dup1\n        /* \"#utility.yul\":22864:22876   */\n      revert\n        /* \"#utility.yul\":22888:23005   */\n    tag_247:\n        /* \"#utility.yul\":22997:22998   */\n      0x00\n        /* \"#utility.yul\":22994:22995   */\n      dup1\n        /* \"#utility.yul\":22987:22999   */\n      revert\n        /* \"#utility.yul\":23011:23113   */\n    tag_347:\n        /* \"#utility.yul\":23052:23058   */\n      0x00\n        /* \"#utility.yul\":23103:23105   */\n      0x1f\n        /* \"#utility.yul\":23099:23106   */\n      not\n        /* \"#utility.yul\":23094:23096   */\n      0x1f\n        /* \"#utility.yul\":23087:23092   */\n      dup4\n        /* \"#utility.yul\":23083:23097   */\n      add\n        /* \"#utility.yul\":23079:23107   */\n      and\n        /* \"#utility.yul\":23069:23107   */\n      swap1\n      pop\n        /* \"#utility.yul\":23011:23113   */\n      swap2\n      swap1\n      pop\n      jump\t// out\n        /* \"#utility.yul\":23119:23241   */\n    tag_216:\n        /* \"#utility.yul\":23192:23216   */\n      tag_452\n        /* \"#utility.yul\":23210:23215   */\n      dup2\n        /* \"#utility.yul\":23192:23216   */\n      tag_296\n      jump\t// in\n    tag_452:\n        /* \"#utility.yul\":23185:23190   */\n      dup2\n        /* \"#utility.yul\":23182:23217   */\n      eq\n        /* \"#utility.yul\":23172:23235   */\n      tag_453\n      jumpi\n        /* \"#utility.yul\":23231:23232   */\n      0x00\n        /* \"#utility.yul\":23228:23229   */\n      dup1\n        /* \"#utility.yul\":23221:23233   */\n      revert\n        /* \"#utility.yul\":23172:23235   */\n    tag_453:\n        /* \"#utility.yul\":23119:23241   */\n      pop\n      jump\t// out\n        /* \"#utility.yul\":23247:23369   */\n    tag_243:\n        /* \"#utility.yul\":23320:23344   */\n      tag_455\n        /* \"#utility.yul\":23338:23343   */\n      dup2\n        /* \"#utility.yul\":23320:23344   */\n      tag_367\n      jump\t// in\n    tag_455:\n        /* \"#utility.yul\":23313:23318   */\n      dup2\n        /* \"#utility.yul\":23310:23345   */\n      eq\n        /* \"#utility.yul\":23300:23363   */\n      tag_456\n      jumpi\n        /* \"#utility.yul\":23359:23360   */\n      0x00\n        /* \"#utility.yul\":23356:23357   */\n      dup1\n        /* \"#utility.yul\":23349:23361   */\n      revert\n        /* \"#utility.yul\":23300:23363   */\n    tag_456:\n        /* \"#utility.yul\":23247:23369   */\n      pop\n      jump\t// out\n\n    auxdata: 0xa2646970667358221220295e4e97c130a3ee41eea7b22199200ce9b320098acfdb8a14d1daa481b988fd64736f6c63430008070033\n}\n",
				"bytecode": {
					"linkReferences": {},
					"object": "6080604052600160005534801561001557600080fd5b50611be7806100256000396000f3fe608060405234801561001057600080fd5b50600436106100625760003560e01c806312c972c61461006757806321c6f9e5146100855780639b14a135146100b55780639e9c191d146100d1578063b9db15b414610106578063ed90c7b714610136575b600080fd5b61006f610152565b60405161007c919061172d565b60405180910390f35b61009f600480360381019061009a919061122c565b6101e7565b6040516100ac91906117fc565b60405180910390f35b6100cf60048036038101906100ca919061126c565b610218565b005b6100eb60048036038101906100e6919061140b565b610464565b6040516100fd9695949392919061174f565b60405180910390f35b610120600480360381019061011b919061140b565b6107d0565b60405161012d91906117da565b60405180910390f35b610150600480360381019061014b919061140b565b610cd1565b005b6060600360003373ffffffffffffffffffffffffffffffffffffffff1673ffffffffffffffffffffffffffffffffffffffff1681526020019081526020016000208054806020026020016040519081016040528092919081815260200182805480156101dd57602002820191906000526020600020905b8154815260200190600101908083116101c9575b5050505050905090565b6003602052816000526040600020818154811061020357600080fd5b90600052602060002001600091509150505481565b6040518061010001604052808b81526020018a815260200189898080601f016020809104026020016040519081016040528093929190818152602001838380828437600081840152601f19601f82011690508083019250505050505050815260200187878080601f016020809104026020016040519081016040528093929190818152602001838380828437600081840152601f19601f820116905080830192505050505050508152602001858152602001848152602001838152602001828152506002600080548152602001908152602001600020600082015181600001908051906020019061030a929190610d6a565b506020820151816001019080519060200190610327929190610df4565b506040820151816002019080519060200190610344929190610e54565b506060820151816003019080519060200190610361929190610e54565b50608082015181600401908051906020019061037e929190610e54565b5060a082015181600501908051906020019061039b929190610e54565b5060c08201518160060190805190602001906103b8929190610e54565b5060e08201518160070190805190602001906103d5929190610e54565b50905050600360003373ffffffffffffffffffffffffffffffffffffffff1673ffffffffffffffffffffffffffffffffffffffff168152602001908152602001600020600054908060018154018082558091505060019003906000526020600020016000909190919091505560008081548092919061045390611a7e565b919050555050505050505050505050565b600260205280600052604060002060009150905080600201805461048790611a1b565b80601f01602080910402602001604051908101604052809291908181526020018280546104b390611a1b565b80156105005780601f106104d557610100808354040283529160200191610500565b820191906000526020600020905b8154815290600101906020018083116104e357829003601f168201915b50505050509080600301805461051590611a1b565b80601f016020809104026020016040519081016040528092919081815260200182805461054190611a1b565b801561058e5780601f106105635761010080835404028352916020019161058e565b820191906000526020600020905b81548152906001019060200180831161057157829003601f168201915b5050505050908060040180546105a390611a1b565b80601f01602080910402602001604051908101604052809291908181526020018280546105cf90611a1b565b801561061c5780601f106105f15761010080835404028352916020019161061c565b820191906000526020600020905b8154815290600101906020018083116105ff57829003601f168201915b50505050509080600501805461063190611a1b565b80601f016020809104026020016040519081016040528092919081815260200182805461065d90611a1b565b80156106aa5780601f1061067f576101008083540402835291602001916106aa565b820191906000526020600020905b81548152906001019060200180831161068d57829003601f168201915b5050505050908060060180546106bf90611a1b565b80601f01602080910402602001604051908101604052809291908181526020018280546106eb90611a1b565b80156107385780601f1061070d57610100808354040283529160200191610738565b820191906000526020600020905b81548152906001019060200180831161071b57829003601f168201915b50505050509080600701805461074d90611a1b565b80601f016020809104026020016040519081016040528092919081815260200182805461077990611a1b565b80156107c65780601f1061079b576101008083540402835291602001916107c6565b820191906000526020600020905b8154815290600101906020018083116107a957829003601f168201915b5050505050905086565b6107d8610eda565b60026000838152602001908152602001600020604051806101000160405290816000820180548060200260200160405190810160405280929190818152602001828054801561087c57602002820191906000526020600020905b8160009054906101000a900473ffffffffffffffffffffffffffffffffffffffff1673ffffffffffffffffffffffffffffffffffffffff1681526020019060010190808311610832575b5050505050815260200160018201805480602002602001604051908101604052809291908181526020016000905b828210156109565783829060005260206000200180546108c990611a1b565b80601f01602080910402602001604051908101604052809291908181526020018280546108f590611a1b565b80156109425780601f1061091757610100808354040283529160200191610942565b820191906000526020600020905b81548152906001019060200180831161092557829003601f168201915b5050505050815260200190600101906108aa565b50505050815260200160028201805461096e90611a1b565b80601f016020809104026020016040519081016040528092919081815260200182805461099a90611a1b565b80156109e75780601f106109bc576101008083540402835291602001916109e7565b820191906000526020600020905b8154815290600101906020018083116109ca57829003601f168201915b50505050508152602001600382018054610a0090611a1b565b80601f0160208091040260200160405190810160405280929190818152602001828054610a2c90611a1b565b8015610a795780601f10610a4e57610100808354040283529160200191610a79565b820191906000526020600020905b815481529060010190602001808311610a5c57829003601f168201915b50505050508152602001600482018054610a9290611a1b565b80601f0160208091040260200160405190810160405280929190818152602001828054610abe90611a1b565b8015610b0b5780601f10610ae057610100808354040283529160200191610b0b565b820191906000526020600020905b815481529060010190602001808311610aee57829003601f168201915b50505050508152602001600582018054610b2490611a1b565b80601f0160208091040260200160405190810160405280929190818152602001828054610b5090611a1b565b8015610b9d5780601f10610b7257610100808354040283529160200191610b9d565b820191906000526020600020905b815481529060010190602001808311610b8057829003601f168201915b50505050508152602001600682018054610bb690611a1b565b80601f0160208091040260200160405190810160405280929190818152602001828054610be290611a1b565b8015610c2f5780601f10610c0457610100808354040283529160200191610c2f565b820191906000526020600020905b815481529060010190602001808311610c1257829003601f168201915b50505050508152602001600782018054610c4890611a1b565b80601f0160208091040260200160405190810160405280929190818152602001828054610c7490611a1b565b8015610cc15780601f10610c9657610100808354040283529160200191610cc1565b820191906000526020600020905b815481529060010190602001808311610ca457829003601f168201915b5050505050815250509050919050565b6002600082815260200190815260200160002060008082016000610cf59190610f1f565b600182016000610d059190610f40565b600282016000610d159190610f61565b600382016000610d259190610f61565b600482016000610d359190610f61565b600582016000610d459190610f61565b600682016000610d559190610f61565b600782016000610d659190610f61565b505050565b828054828255906000526020600020908101928215610de3579160200282015b82811115610de25782518260006101000a81548173ffffffffffffffffffffffffffffffffffffffff021916908373ffffffffffffffffffffffffffffffffffffffff16021790555091602001919060010190610d8a565b5b509050610df09190610fa1565b5090565b828054828255906000526020600020908101928215610e43579160200282015b82811115610e42578251829080519060200190610e32929190610e54565b5091602001919060010190610e14565b5b509050610e509190610fbe565b5090565b828054610e6090611a1b565b90600052602060002090601f016020900481019282610e825760008555610ec9565b82601f10610e9b57805160ff1916838001178555610ec9565b82800160010185558215610ec9579182015b82811115610ec8578251825591602001919060010190610ead565b5b509050610ed69190610fa1565b5090565b60405180610100016040528060608152602001606081526020016060815260200160608152602001606081526020016060815260200160608152602001606081525090565b5080546000825590600052602060002090810190610f3d9190610fa1565b50565b5080546000825590600052602060002090810190610f5e9190610fbe565b50565b508054610f6d90611a1b565b6000825580601f10610f7f5750610f9e565b601f016020900490600052602060002090810190610f9d9190610fa1565b5b50565b5b80821115610fba576000816000905550600101610fa2565b5090565b5b80821115610fde5760008181610fd59190610f61565b50600101610fbf565b5090565b6000610ff5610ff08461183c565b611817565b9050808382526020820190508285602086028201111561101857611017611b5e565b5b60005b85811015611048578161102e8882611122565b84526020840193506020830192505060018101905061101b565b5050509392505050565b600061106561106084611868565b611817565b9050808382526020820190508285602086028201111561108857611087611b5e565b5b60005b858110156110d657813567ffffffffffffffff8111156110ae576110ad611b59565b5b8086016110bb89826111e9565b8552602085019450602084019350505060018101905061108b565b5050509392505050565b60006110f36110ee84611894565b611817565b90508281526020810184848401111561110f5761110e611b63565b5b61111a8482856119d9565b509392505050565b60008135905061113181611b83565b92915050565b600082601f83011261114c5761114b611b59565b5b813561115c848260208601610fe2565b91505092915050565b600082601f83011261117a57611179611b59565b5b813561118a848260208601611052565b91505092915050565b60008083601f8401126111a9576111a8611b59565b5b8235905067ffffffffffffffff8111156111c6576111c5611b54565b5b6020830191508360018202830111156111e2576111e1611b5e565b5b9250929050565b600082601f8301126111fe576111fd611b59565b5b813561120e8482602086016110e0565b91505092915050565b60008135905061122681611b9a565b92915050565b6000806040838503121561124357611242611b6d565b5b600061125185828601611122565b925050602061126285828601611217565b9150509250929050565b6000806000806000806000806000806101008b8d0312156112905761128f611b6d565b5b60008b013567ffffffffffffffff8111156112ae576112ad611b68565b5b6112ba8d828e01611137565b9a505060208b013567ffffffffffffffff8111156112db576112da611b68565b5b6112e78d828e01611165565b99505060408b013567ffffffffffffffff81111561130857611307611b68565b5b6113148d828e01611193565b985098505060608b013567ffffffffffffffff81111561133757611336611b68565b5b6113438d828e01611193565b965096505060808b013567ffffffffffffffff81111561136657611365611b68565b5b6113728d828e016111e9565b94505060a08b013567ffffffffffffffff81111561139357611392611b68565b5b61139f8d828e016111e9565b93505060c08b013567ffffffffffffffff8111156113c0576113bf611b68565b5b6113cc8d828e016111e9565b92505060e08b013567ffffffffffffffff8111156113ed576113ec611b68565b5b6113f98d828e016111e9565b9150509295989b9194979a5092959850565b60006020828403121561142157611420611b6d565b5b600061142f84828501611217565b91505092915050565b6000611444838361147c565b60208301905092915050565b600061145c83836115bc565b905092915050565b6000611470838361170f565b60208301905092915050565b6114858161199d565b82525050565b6000611496826118f5565b6114a08185611948565b93506114ab836118c5565b8060005b838110156114dc5781516114c38882611438565b97506114ce83611921565b9250506001810190506114af565b5085935050505092915050565b60006114f482611900565b6114fe8185611959565b935083602082028501611510856118d5565b8060005b8581101561154c578484038952815161152d8582611450565b94506115388361192e565b925060208a01995050600181019050611514565b50829750879550505050505092915050565b60006115698261190b565b611573818561196a565b935061157e836118e5565b8060005b838110156115af5781516115968882611464565b97506115a18361193b565b925050600181019050611582565b5085935050505092915050565b60006115c782611916565b6115d1818561197b565b93506115e18185602086016119e8565b6115ea81611b72565b840191505092915050565b600061160082611916565b61160a818561198c565b935061161a8185602086016119e8565b61162381611b72565b840191505092915050565b600061010083016000830151848203600086015261164c828261148b565b9150506020830151848203602086015261166682826114e9565b9150506040830151848203604086015261168082826115bc565b9150506060830151848203606086015261169a82826115bc565b915050608083015184820360808601526116b482826115bc565b91505060a083015184820360a08601526116ce82826115bc565b91505060c083015184820360c08601526116e882826115bc565b91505060e083015184820360e086015261170282826115bc565b9150508091505092915050565b611718816119cf565b82525050565b611727816119cf565b82525050565b60006020820190508181036000830152611747818461155e565b905092915050565b600060c082019050818103600083015261176981896115f5565b9050818103602083015261177d81886115f5565b9050818103604083015261179181876115f5565b905081810360608301526117a581866115f5565b905081810360808301526117b981856115f5565b905081810360a08301526117cd81846115f5565b9050979650505050505050565b600060208201905081810360008301526117f4818461162e565b905092915050565b6000602082019050611811600083018461171e565b92915050565b6000611821611832565b905061182d8282611a4d565b919050565b6000604051905090565b600067ffffffffffffffff82111561185757611856611b25565b5b602082029050602081019050919050565b600067ffffffffffffffff82111561188357611882611b25565b5b602082029050602081019050919050565b600067ffffffffffffffff8211156118af576118ae611b25565b5b6118b882611b72565b9050602081019050919050565b6000819050602082019050919050565b6000819050602082019050919050565b6000819050602082019050919050565b600081519050919050565b600081519050919050565b600081519050919050565b600081519050919050565b6000602082019050919050565b6000602082019050919050565b6000602082019050919050565b600082825260208201905092915050565b600082825260208201905092915050565b600082825260208201905092915050565b600082825260208201905092915050565b600082825260208201905092915050565b60006119a8826119af565b9050919050565b600073ffffffffffffffffffffffffffffffffffffffff82169050919050565b6000819050919050565b82818337600083830152505050565b60005b83811015611a065780820151818401526020810190506119eb565b83811115611a15576000848401525b50505050565b60006002820490506001821680611a3357607f821691505b60208210811415611a4757611a46611af6565b5b50919050565b611a5682611b72565b810181811067ffffffffffffffff82111715611a7557611a74611b25565b5b80604052505050565b6000611a89826119cf565b91507fffffffffffffffffffffffffffffffffffffffffffffffffffffffffffffffff821415611abc57611abb611ac7565b5b600182019050919050565b7f4e487b7100000000000000000000000000000000000000000000000000000000600052601160045260246000fd5b7f4e487b7100000000000000000000000000000000000000000000000000000000600052602260045260246000fd5b7f4e487b7100000000000000000000000000000000000000000000000000000000600052604160045260246000fd5b600080fd5b600080fd5b600080fd5b600080fd5b600080fd5b600080fd5b6000601f19601f8301169050919050565b611b8c8161199d565b8114611b9757600080fd5b50565b611ba3816119cf565b8114611bae57600080fd5b5056fea2646970667358221220295e4e97c130a3ee41eea7b22199200ce9b320098acfdb8a14d1daa481b988fd64736f6c63430008070033",
					"opcodes": "PUSH1 0x80 PUSH1 0x40 MSTORE PUSH1 0x1 PUSH1 0x0 SSTORE CALLVALUE DUP1 ISZERO PUSH2 0x15 JUMPI PUSH1 0x0 DUP1 REVERT JUMPDEST POP PUSH2 0x1BE7 DUP1 PUSH2 0x25 PUSH1 0x0 CODECOPY PUSH1 0x0 RETURN INVALID PUSH1 0x80 PUSH1 0x40 MSTORE CALLVALUE DUP1 ISZERO PUSH2 0x10 JUMPI PUSH1 0x0 DUP1 REVERT JUMPDEST POP PUSH1 0x4 CALLDATASIZE LT PUSH2 0x62 JUMPI PUSH1 0x0 CALLDATALOAD PUSH1 0xE0 SHR DUP1 PUSH4 0x12C972C6 EQ PUSH2 0x67 JUMPI DUP1 PUSH4 0x21C6F9E5 EQ PUSH2 0x85 JUMPI DUP1 PUSH4 0x9B14A135 EQ PUSH2 0xB5 JUMPI DUP1 PUSH4 0x9E9C191D EQ PUSH2 0xD1 JUMPI DUP1 PUSH4 0xB9DB15B4 EQ PUSH2 0x106 JUMPI DUP1 PUSH4 0xED90C7B7 EQ PUSH2 0x136 JUMPI JUMPDEST PUSH1 0x0 DUP1 REVERT JUMPDEST PUSH2 0x6F PUSH2 0x152 JUMP JUMPDEST PUSH1 0x40 MLOAD PUSH2 0x7C SWAP2 SWAP1 PUSH2 0x172D JUMP JUMPDEST PUSH1 0x40 MLOAD DUP1 SWAP2 SUB SWAP1 RETURN JUMPDEST PUSH2 0x9F PUSH1 0x4 DUP1 CALLDATASIZE SUB DUP2 ADD SWAP1 PUSH2 0x9A SWAP2 SWAP1 PUSH2 0x122C JUMP JUMPDEST PUSH2 0x1E7 JUMP JUMPDEST PUSH1 0x40 MLOAD PUSH2 0xAC SWAP2 SWAP1 PUSH2 0x17FC JUMP JUMPDEST PUSH1 0x40 MLOAD DUP1 SWAP2 SUB SWAP1 RETURN JUMPDEST PUSH2 0xCF PUSH1 0x4 DUP1 CALLDATASIZE SUB DUP2 ADD SWAP1 PUSH2 0xCA SWAP2 SWAP1 PUSH2 0x126C JUMP JUMPDEST PUSH2 0x218 JUMP JUMPDEST STOP JUMPDEST PUSH2 0xEB PUSH1 0x4 DUP1 CALLDATASIZE SUB DUP2 ADD SWAP1 PUSH2 0xE6 SWAP2 SWAP1 PUSH2 0x140B JUMP JUMPDEST PUSH2 0x464 JUMP JUMPDEST PUSH1 0x40 MLOAD PUSH2 0xFD SWAP7 SWAP6 SWAP5 SWAP4 SWAP3 SWAP2 SWAP1 PUSH2 0x174F JUMP JUMPDEST PUSH1 0x40 MLOAD DUP1 SWAP2 SUB SWAP1 RETURN JUMPDEST PUSH2 0x120 PUSH1 0x4 DUP1 CALLDATASIZE SUB DUP2 ADD SWAP1 PUSH2 0x11B SWAP2 SWAP1 PUSH2 0x140B JUMP JUMPDEST PUSH2 0x7D0 JUMP JUMPDEST PUSH1 0x40 MLOAD PUSH2 0x12D SWAP2 SWAP1 PUSH2 0x17DA JUMP JUMPDEST PUSH1 0x40 MLOAD DUP1 SWAP2 SUB SWAP1 RETURN JUMPDEST PUSH2 0x150 PUSH1 0x4 DUP1 CALLDATASIZE SUB DUP2 ADD SWAP1 PUSH2 0x14B SWAP2 SWAP1 PUSH2 0x140B JUMP JUMPDEST PUSH2 0xCD1 JUMP JUMPDEST STOP JUMPDEST PUSH1 0x60 PUSH1 0x3 PUSH1 0x0 CALLER PUSH20 0xFFFFFFFFFFFFFFFFFFFFFFFFFFFFFFFFFFFFFFFF AND PUSH20 0xFFFFFFFFFFFFFFFFFFFFFFFFFFFFFFFFFFFFFFFF AND DUP2 MSTORE PUSH1 0x20 ADD SWAP1 DUP2 MSTORE PUSH1 0x20 ADD PUSH1 0x0 KECCAK256 DUP1 SLOAD DUP1 PUSH1 0x20 MUL PUSH1 0x20 ADD PUSH1 0x40 MLOAD SWAP1 DUP2 ADD PUSH1 0x40 MSTORE DUP1 SWAP3 SWAP2 SWAP1 DUP2 DUP2 MSTORE PUSH1 0x20 ADD DUP3 DUP1 SLOAD DUP1 ISZERO PUSH2 0x1DD JUMPI PUSH1 0x20 MUL DUP3 ADD SWAP2 SWAP1 PUSH1 0x0 MSTORE PUSH1 0x20 PUSH1 0x0 KECCAK256 SWAP1 JUMPDEST DUP2 SLOAD DUP2 MSTORE PUSH1 0x20 ADD SWAP1 PUSH1 0x1 ADD SWAP1 DUP1 DUP4 GT PUSH2 0x1C9 JUMPI JUMPDEST POP POP POP POP POP SWAP1 POP SWAP1 JUMP JUMPDEST PUSH1 0x3 PUSH1 0x20 MSTORE DUP2 PUSH1 0x0 MSTORE PUSH1 0x40 PUSH1 0x0 KECCAK256 DUP2 DUP2 SLOAD DUP2 LT PUSH2 0x203 JUMPI PUSH1 0x0 DUP1 REVERT JUMPDEST SWAP1 PUSH1 0x0 MSTORE PUSH1 0x20 PUSH1 0x0 KECCAK256 ADD PUSH1 0x0 SWAP2 POP SWAP2 POP POP SLOAD DUP2 JUMP JUMPDEST PUSH1 0x40 MLOAD DUP1 PUSH2 0x100 ADD PUSH1 0x40 MSTORE DUP1 DUP12 DUP2 MSTORE PUSH1 0x20 ADD DUP11 DUP2 MSTORE PUSH1 0x20 ADD DUP10 DUP10 DUP1 DUP1 PUSH1 0x1F ADD PUSH1 0x20 DUP1 SWAP2 DIV MUL PUSH1 0x20 ADD PUSH1 0x40 MLOAD SWAP1 DUP2 ADD PUSH1 0x40 MSTORE DUP1 SWAP4 SWAP3 SWAP2 SWAP1 DUP2 DUP2 MSTORE PUSH1 0x20 ADD DUP4 DUP4 DUP1 DUP3 DUP5 CALLDATACOPY PUSH1 0x0 DUP2 DUP5 ADD MSTORE PUSH1 0x1F NOT PUSH1 0x1F DUP3 ADD AND SWAP1 POP DUP1 DUP4 ADD SWAP3 POP POP POP POP POP POP POP DUP2 MSTORE PUSH1 0x20 ADD DUP8 DUP8 DUP1 DUP1 PUSH1 0x1F ADD PUSH1 0x20 DUP1 SWAP2 DIV MUL PUSH1 0x20 ADD PUSH1 0x40 MLOAD SWAP1 DUP2 ADD PUSH1 0x40 MSTORE DUP1 SWAP4 SWAP3 SWAP2 SWAP1 DUP2 DUP2 MSTORE PUSH1 0x20 ADD DUP4 DUP4 DUP1 DUP3 DUP5 CALLDATACOPY PUSH1 0x0 DUP2 DUP5 ADD MSTORE PUSH1 0x1F NOT PUSH1 0x1F DUP3 ADD AND SWAP1 POP DUP1 DUP4 ADD SWAP3 POP POP POP POP POP POP POP DUP2 MSTORE PUSH1 0x20 ADD DUP6 DUP2 MSTORE PUSH1 0x20 ADD DUP5 DUP2 MSTORE PUSH1 0x20 ADD DUP4 DUP2 MSTORE PUSH1 0x20 ADD DUP3 DUP2 MSTORE POP PUSH1 0x2 PUSH1 0x0 DUP1 SLOAD DUP2 MSTORE PUSH1 0x20 ADD SWAP1 DUP2 MSTORE PUSH1 0x20 ADD PUSH1 0x0 KECCAK256 PUSH1 0x0 DUP3 ADD MLOAD DUP2 PUSH1 0x0 ADD SWAP1 DUP1 MLOAD SWAP1 PUSH1 0x20 ADD SWAP1 PUSH2 0x30A SWAP3 SWAP2 SWAP1 PUSH2 0xD6A JUMP JUMPDEST POP PUSH1 0x20 DUP3 ADD MLOAD DUP2 PUSH1 0x1 ADD SWAP1 DUP1 MLOAD SWAP1 PUSH1 0x20 ADD SWAP1 PUSH2 0x327 SWAP3 SWAP2 SWAP1 PUSH2 0xDF4 JUMP JUMPDEST POP PUSH1 0x40 DUP3 ADD MLOAD DUP2 PUSH1 0x2 ADD SWAP1 DUP1 MLOAD SWAP1 PUSH1 0x20 ADD SWAP1 PUSH2 0x344 SWAP3 SWAP2 SWAP1 PUSH2 0xE54 JUMP JUMPDEST POP PUSH1 0x60 DUP3 ADD MLOAD DUP2 PUSH1 0x3 ADD SWAP1 DUP1 MLOAD SWAP1 PUSH1 0x20 ADD SWAP1 PUSH2 0x361 SWAP3 SWAP2 SWAP1 PUSH2 0xE54 JUMP JUMPDEST POP PUSH1 0x80 DUP3 ADD MLOAD DUP2 PUSH1 0x4 ADD SWAP1 DUP1 MLOAD SWAP1 PUSH1 0x20 ADD SWAP1 PUSH2 0x37E SWAP3 SWAP2 SWAP1 PUSH2 0xE54 JUMP JUMPDEST POP PUSH1 0xA0 DUP3 ADD MLOAD DUP2 PUSH1 0x5 ADD SWAP1 DUP1 MLOAD SWAP1 PUSH1 0x20 ADD SWAP1 PUSH2 0x39B SWAP3 SWAP2 SWAP1 PUSH2 0xE54 JUMP JUMPDEST POP PUSH1 0xC0 DUP3 ADD MLOAD DUP2 PUSH1 0x6 ADD SWAP1 DUP1 MLOAD SWAP1 PUSH1 0x20 ADD SWAP1 PUSH2 0x3B8 SWAP3 SWAP2 SWAP1 PUSH2 0xE54 JUMP JUMPDEST POP PUSH1 0xE0 DUP3 ADD MLOAD DUP2 PUSH1 0x7 ADD SWAP1 DUP1 MLOAD SWAP1 PUSH1 0x20 ADD SWAP1 PUSH2 0x3D5 SWAP3 SWAP2 SWAP1 PUSH2 0xE54 JUMP JUMPDEST POP SWAP1 POP POP PUSH1 0x3 PUSH1 0x0 CALLER PUSH20 0xFFFFFFFFFFFFFFFFFFFFFFFFFFFFFFFFFFFFFFFF AND PUSH20 0xFFFFFFFFFFFFFFFFFFFFFFFFFFFFFFFFFFFFFFFF AND DUP2 MSTORE PUSH1 0x20 ADD SWAP1 DUP2 MSTORE PUSH1 0x20 ADD PUSH1 0x0 KECCAK256 PUSH1 0x0 SLOAD SWAP1 DUP1 PUSH1 0x1 DUP2 SLOAD ADD DUP1 DUP3 SSTORE DUP1 SWAP2 POP POP PUSH1 0x1 SWAP1 SUB SWAP1 PUSH1 0x0 MSTORE PUSH1 0x20 PUSH1 0x0 KECCAK256 ADD PUSH1 0x0 SWAP1 SWAP2 SWAP1 SWAP2 SWAP1 SWAP2 POP SSTORE PUSH1 0x0 DUP1 DUP2 SLOAD DUP1 SWAP3 SWAP2 SWAP1 PUSH2 0x453 SWAP1 PUSH2 0x1A7E JUMP JUMPDEST SWAP2 SWAP1 POP SSTORE POP POP POP POP POP POP POP POP POP POP POP JUMP JUMPDEST PUSH1 0x2 PUSH1 0x20 MSTORE DUP1 PUSH1 0x0 MSTORE PUSH1 0x40 PUSH1 0x0 KECCAK256 PUSH1 0x0 SWAP2 POP SWAP1 POP DUP1 PUSH1 0x2 ADD DUP1 SLOAD PUSH2 0x487 SWAP1 PUSH2 0x1A1B JUMP JUMPDEST DUP1 PUSH1 0x1F ADD PUSH1 0x20 DUP1 SWAP2 DIV MUL PUSH1 0x20 ADD PUSH1 0x40 MLOAD SWAP1 DUP2 ADD PUSH1 0x40 MSTORE DUP1 SWAP3 SWAP2 SWAP1 DUP2 DUP2 MSTORE PUSH1 0x20 ADD DUP3 DUP1 SLOAD PUSH2 0x4B3 SWAP1 PUSH2 0x1A1B JUMP JUMPDEST DUP1 ISZERO PUSH2 0x500 JUMPI DUP1 PUSH1 0x1F LT PUSH2 0x4D5 JUMPI PUSH2 0x100 DUP1 DUP4 SLOAD DIV MUL DUP4 MSTORE SWAP2 PUSH1 0x20 ADD SWAP2 PUSH2 0x500 JUMP JUMPDEST DUP3 ADD SWAP2 SWAP1 PUSH1 0x0 MSTORE PUSH1 0x20 PUSH1 0x0 KECCAK256 SWAP1 JUMPDEST DUP2 SLOAD DUP2 MSTORE SWAP1 PUSH1 0x1 ADD SWAP1 PUSH1 0x20 ADD DUP1 DUP4 GT PUSH2 0x4E3 JUMPI DUP3 SWAP1 SUB PUSH1 0x1F AND DUP3 ADD SWAP2 JUMPDEST POP POP POP POP POP SWAP1 DUP1 PUSH1 0x3 ADD DUP1 SLOAD PUSH2 0x515 SWAP1 PUSH2 0x1A1B JUMP JUMPDEST DUP1 PUSH1 0x1F ADD PUSH1 0x20 DUP1 SWAP2 DIV MUL PUSH1 0x20 ADD PUSH1 0x40 MLOAD SWAP1 DUP2 ADD PUSH1 0x40 MSTORE DUP1 SWAP3 SWAP2 SWAP1 DUP2 DUP2 MSTORE PUSH1 0x20 ADD DUP3 DUP1 SLOAD PUSH2 0x541 SWAP1 PUSH2 0x1A1B JUMP JUMPDEST DUP1 ISZERO PUSH2 0x58E JUMPI DUP1 PUSH1 0x1F LT PUSH2 0x563 JUMPI PUSH2 0x100 DUP1 DUP4 SLOAD DIV MUL DUP4 MSTORE SWAP2 PUSH1 0x20 ADD SWAP2 PUSH2 0x58E JUMP JUMPDEST DUP3 ADD SWAP2 SWAP1 PUSH1 0x0 MSTORE PUSH1 0x20 PUSH1 0x0 KECCAK256 SWAP1 JUMPDEST DUP2 SLOAD DUP2 MSTORE SWAP1 PUSH1 0x1 ADD SWAP1 PUSH1 0x20 ADD DUP1 DUP4 GT PUSH2 0x571 JUMPI DUP3 SWAP1 SUB PUSH1 0x1F AND DUP3 ADD SWAP2 JUMPDEST POP POP POP POP POP SWAP1 DUP1 PUSH1 0x4 ADD DUP1 SLOAD PUSH2 0x5A3 SWAP1 PUSH2 0x1A1B JUMP JUMPDEST DUP1 PUSH1 0x1F ADD PUSH1 0x20 DUP1 SWAP2 DIV MUL PUSH1 0x20 ADD PUSH1 0x40 MLOAD SWAP1 DUP2 ADD PUSH1 0x40 MSTORE DUP1 SWAP3 SWAP2 SWAP1 DUP2 DUP2 MSTORE PUSH1 0x20 ADD DUP3 DUP1 SLOAD PUSH2 0x5CF SWAP1 PUSH2 0x1A1B JUMP JUMPDEST DUP1 ISZERO PUSH2 0x61C JUMPI DUP1 PUSH1 0x1F LT PUSH2 0x5F1 JUMPI PUSH2 0x100 DUP1 DUP4 SLOAD DIV MUL DUP4 MSTORE SWAP2 PUSH1 0x20 ADD SWAP2 PUSH2 0x61C JUMP JUMPDEST DUP3 ADD SWAP2 SWAP1 PUSH1 0x0 MSTORE PUSH1 0x20 PUSH1 0x0 KECCAK256 SWAP1 JUMPDEST DUP2 SLOAD DUP2 MSTORE SWAP1 PUSH1 0x1 ADD SWAP1 PUSH1 0x20 ADD DUP1 DUP4 GT PUSH2 0x5FF JUMPI DUP3 SWAP1 SUB PUSH1 0x1F AND DUP3 ADD SWAP2 JUMPDEST POP POP POP POP POP SWAP1 DUP1 PUSH1 0x5 ADD DUP1 SLOAD PUSH2 0x631 SWAP1 PUSH2 0x1A1B JUMP JUMPDEST DUP1 PUSH1 0x1F ADD PUSH1 0x20 DUP1 SWAP2 DIV MUL PUSH1 0x20 ADD PUSH1 0x40 MLOAD SWAP1 DUP2 ADD PUSH1 0x40 MSTORE DUP1 SWAP3 SWAP2 SWAP1 DUP2 DUP2 MSTORE PUSH1 0x20 ADD DUP3 DUP1 SLOAD PUSH2 0x65D SWAP1 PUSH2 0x1A1B JUMP JUMPDEST DUP1 ISZERO PUSH2 0x6AA JUMPI DUP1 PUSH1 0x1F LT PUSH2 0x67F JUMPI PUSH2 0x100 DUP1 DUP4 SLOAD DIV MUL DUP4 MSTORE SWAP2 PUSH1 0x20 ADD SWAP2 PUSH2 0x6AA JUMP JUMPDEST DUP3 ADD SWAP2 SWAP1 PUSH1 0x0 MSTORE PUSH1 0x20 PUSH1 0x0 KECCAK256 SWAP1 JUMPDEST DUP2 SLOAD DUP2 MSTORE SWAP1 PUSH1 0x1 ADD SWAP1 PUSH1 0x20 ADD DUP1 DUP4 GT PUSH2 0x68D JUMPI DUP3 SWAP1 SUB PUSH1 0x1F AND DUP3 ADD SWAP2 JUMPDEST POP POP POP POP POP SWAP1 DUP1 PUSH1 0x6 ADD DUP1 SLOAD PUSH2 0x6BF SWAP1 PUSH2 0x1A1B JUMP JUMPDEST DUP1 PUSH1 0x1F ADD PUSH1 0x20 DUP1 SWAP2 DIV MUL PUSH1 0x20 ADD PUSH1 0x40 MLOAD SWAP1 DUP2 ADD PUSH1 0x40 MSTORE DUP1 SWAP3 SWAP2 SWAP1 DUP2 DUP2 MSTORE PUSH1 0x20 ADD DUP3 DUP1 SLOAD PUSH2 0x6EB SWAP1 PUSH2 0x1A1B JUMP JUMPDEST DUP1 ISZERO PUSH2 0x738 JUMPI DUP1 PUSH1 0x1F LT PUSH2 0x70D JUMPI PUSH2 0x100 DUP1 DUP4 SLOAD DIV MUL DUP4 MSTORE SWAP2 PUSH1 0x20 ADD SWAP2 PUSH2 0x738 JUMP JUMPDEST DUP3 ADD SWAP2 SWAP1 PUSH1 0x0 MSTORE PUSH1 0x20 PUSH1 0x0 KECCAK256 SWAP1 JUMPDEST DUP2 SLOAD DUP2 MSTORE SWAP1 PUSH1 0x1 ADD SWAP1 PUSH1 0x20 ADD DUP1 DUP4 GT PUSH2 0x71B JUMPI DUP3 SWAP1 SUB PUSH1 0x1F AND DUP3 ADD SWAP2 JUMPDEST POP POP POP POP POP SWAP1 DUP1 PUSH1 0x7 ADD DUP1 SLOAD PUSH2 0x74D SWAP1 PUSH2 0x1A1B JUMP JUMPDEST DUP1 PUSH1 0x1F ADD PUSH1 0x20 DUP1 SWAP2 DIV MUL PUSH1 0x20 ADD PUSH1 0x40 MLOAD SWAP1 DUP2 ADD PUSH1 0x40 MSTORE DUP1 SWAP3 SWAP2 SWAP1 DUP2 DUP2 MSTORE PUSH1 0x20 ADD DUP3 DUP1 SLOAD PUSH2 0x779 SWAP1 PUSH2 0x1A1B JUMP JUMPDEST DUP1 ISZERO PUSH2 0x7C6 JUMPI DUP1 PUSH1 0x1F LT PUSH2 0x79B JUMPI PUSH2 0x100 DUP1 DUP4 SLOAD DIV MUL DUP4 MSTORE SWAP2 PUSH1 0x20 ADD SWAP2 PUSH2 0x7C6 JUMP JUMPDEST DUP3 ADD SWAP2 SWAP1 PUSH1 0x0 MSTORE PUSH1 0x20 PUSH1 0x0 KECCAK256 SWAP1 JUMPDEST DUP2 SLOAD DUP2 MSTORE SWAP1 PUSH1 0x1 ADD SWAP1 PUSH1 0x20 ADD DUP1 DUP4 GT PUSH2 0x7A9 JUMPI DUP3 SWAP1 SUB PUSH1 0x1F AND DUP3 ADD SWAP2 JUMPDEST POP POP POP POP POP SWAP1 POP DUP7 JUMP JUMPDEST PUSH2 0x7D8 PUSH2 0xEDA JUMP JUMPDEST PUSH1 0x2 PUSH1 0x0 DUP4 DUP2 MSTORE PUSH1 0x20 ADD SWAP1 DUP2 MSTORE PUSH1 0x20 ADD PUSH1 0x0 KECCAK256 PUSH1 0x40 MLOAD DUP1 PUSH2 0x100 ADD PUSH1 0x40 MSTORE SWAP1 DUP2 PUSH1 0x0 DUP3 ADD DUP1 SLOAD DUP1 PUSH1 0x20 MUL PUSH1 0x20 ADD PUSH1 0x40 MLOAD SWAP1 DUP2 ADD PUSH1 0x40 MSTORE DUP1 SWAP3 SWAP2 SWAP1 DUP2 DUP2 MSTORE PUSH1 0x20 ADD DUP3 DUP1 SLOAD DUP1 ISZERO PUSH2 0x87C JUMPI PUSH1 0x20 MUL DUP3 ADD SWAP2 SWAP1 PUSH1 0x0 MSTORE PUSH1 0x20 PUSH1 0x0 KECCAK256 SWAP1 JUMPDEST DUP2 PUSH1 0x0 SWAP1 SLOAD SWAP1 PUSH2 0x100 EXP SWAP1 DIV PUSH20 0xFFFFFFFFFFFFFFFFFFFFFFFFFFFFFFFFFFFFFFFF AND PUSH20 0xFFFFFFFFFFFFFFFFFFFFFFFFFFFFFFFFFFFFFFFF AND DUP2 MSTORE PUSH1 0x20 ADD SWAP1 PUSH1 0x1 ADD SWAP1 DUP1 DUP4 GT PUSH2 0x832 JUMPI JUMPDEST POP POP POP POP POP DUP2 MSTORE PUSH1 0x20 ADD PUSH1 0x1 DUP3 ADD DUP1 SLOAD DUP1 PUSH1 0x20 MUL PUSH1 0x20 ADD PUSH1 0x40 MLOAD SWAP1 DUP2 ADD PUSH1 0x40 MSTORE DUP1 SWAP3 SWAP2 SWAP1 DUP2 DUP2 MSTORE PUSH1 0x20 ADD PUSH1 0x0 SWAP1 JUMPDEST DUP3 DUP3 LT ISZERO PUSH2 0x956 JUMPI DUP4 DUP3 SWAP1 PUSH1 0x0 MSTORE PUSH1 0x20 PUSH1 0x0 KECCAK256 ADD DUP1 SLOAD PUSH2 0x8C9 SWAP1 PUSH2 0x1A1B JUMP JUMPDEST DUP1 PUSH1 0x1F ADD PUSH1 0x20 DUP1 SWAP2 DIV MUL PUSH1 0x20 ADD PUSH1 0x40 MLOAD SWAP1 DUP2 ADD PUSH1 0x40 MSTORE DUP1 SWAP3 SWAP2 SWAP1 DUP2 DUP2 MSTORE PUSH1 0x20 ADD DUP3 DUP1 SLOAD PUSH2 0x8F5 SWAP1 PUSH2 0x1A1B JUMP JUMPDEST DUP1 ISZERO PUSH2 0x942 JUMPI DUP1 PUSH1 0x1F LT PUSH2 0x917 JUMPI PUSH2 0x100 DUP1 DUP4 SLOAD DIV MUL DUP4 MSTORE SWAP2 PUSH1 0x20 ADD SWAP2 PUSH2 0x942 JUMP JUMPDEST DUP3 ADD SWAP2 SWAP1 PUSH1 0x0 MSTORE PUSH1 0x20 PUSH1 0x0 KECCAK256 SWAP1 JUMPDEST DUP2 SLOAD DUP2 MSTORE SWAP1 PUSH1 0x1 ADD SWAP1 PUSH1 0x20 ADD DUP1 DUP4 GT PUSH2 0x925 JUMPI DUP3 SWAP1 SUB PUSH1 0x1F AND DUP3 ADD SWAP2 JUMPDEST POP POP POP POP POP DUP2 MSTORE PUSH1 0x20 ADD SWAP1 PUSH1 0x1 ADD SWAP1 PUSH2 0x8AA JUMP JUMPDEST POP POP POP POP DUP2 MSTORE PUSH1 0x20 ADD PUSH1 0x2 DUP3 ADD DUP1 SLOAD PUSH2 0x96E SWAP1 PUSH2 0x1A1B JUMP JUMPDEST DUP1 PUSH1 0x1F ADD PUSH1 0x20 DUP1 SWAP2 DIV MUL PUSH1 0x20 ADD PUSH1 0x40 MLOAD SWAP1 DUP2 ADD PUSH1 0x40 MSTORE DUP1 SWAP3 SWAP2 SWAP1 DUP2 DUP2 MSTORE PUSH1 0x20 ADD DUP3 DUP1 SLOAD PUSH2 0x99A SWAP1 PUSH2 0x1A1B JUMP JUMPDEST DUP1 ISZERO PUSH2 0x9E7 JUMPI DUP1 PUSH1 0x1F LT PUSH2 0x9BC JUMPI PUSH2 0x100 DUP1 DUP4 SLOAD DIV MUL DUP4 MSTORE SWAP2 PUSH1 0x20 ADD SWAP2 PUSH2 0x9E7 JUMP JUMPDEST DUP3 ADD SWAP2 SWAP1 PUSH1 0x0 MSTORE PUSH1 0x20 PUSH1 0x0 KECCAK256 SWAP1 JUMPDEST DUP2 SLOAD DUP2 MSTORE SWAP1 PUSH1 0x1 ADD SWAP1 PUSH1 0x20 ADD DUP1 DUP4 GT PUSH2 0x9CA JUMPI DUP3 SWAP1 SUB PUSH1 0x1F AND DUP3 ADD SWAP2 JUMPDEST POP POP POP POP POP DUP2 MSTORE PUSH1 0x20 ADD PUSH1 0x3 DUP3 ADD DUP1 SLOAD PUSH2 0xA00 SWAP1 PUSH2 0x1A1B JUMP JUMPDEST DUP1 PUSH1 0x1F ADD PUSH1 0x20 DUP1 SWAP2 DIV MUL PUSH1 0x20 ADD PUSH1 0x40 MLOAD SWAP1 DUP2 ADD PUSH1 0x40 MSTORE DUP1 SWAP3 SWAP2 SWAP1 DUP2 DUP2 MSTORE PUSH1 0x20 ADD DUP3 DUP1 SLOAD PUSH2 0xA2C SWAP1 PUSH2 0x1A1B JUMP JUMPDEST DUP1 ISZERO PUSH2 0xA79 JUMPI DUP1 PUSH1 0x1F LT PUSH2 0xA4E JUMPI PUSH2 0x100 DUP1 DUP4 SLOAD DIV MUL DUP4 MSTORE SWAP2 PUSH1 0x20 ADD SWAP2 PUSH2 0xA79 JUMP JUMPDEST DUP3 ADD SWAP2 SWAP1 PUSH1 0x0 MSTORE PUSH1 0x20 PUSH1 0x0 KECCAK256 SWAP1 JUMPDEST DUP2 SLOAD DUP2 MSTORE SWAP1 PUSH1 0x1 ADD SWAP1 PUSH1 0x20 ADD DUP1 DUP4 GT PUSH2 0xA5C JUMPI DUP3 SWAP1 SUB PUSH1 0x1F AND DUP3 ADD SWAP2 JUMPDEST POP POP POP POP POP DUP2 MSTORE PUSH1 0x20 ADD PUSH1 0x4 DUP3 ADD DUP1 SLOAD PUSH2 0xA92 SWAP1 PUSH2 0x1A1B JUMP JUMPDEST DUP1 PUSH1 0x1F ADD PUSH1 0x20 DUP1 SWAP2 DIV MUL PUSH1 0x20 ADD PUSH1 0x40 MLOAD SWAP1 DUP2 ADD PUSH1 0x40 MSTORE DUP1 SWAP3 SWAP2 SWAP1 DUP2 DUP2 MSTORE PUSH1 0x20 ADD DUP3 DUP1 SLOAD PUSH2 0xABE SWAP1 PUSH2 0x1A1B JUMP JUMPDEST DUP1 ISZERO PUSH2 0xB0B JUMPI DUP1 PUSH1 0x1F LT PUSH2 0xAE0 JUMPI PUSH2 0x100 DUP1 DUP4 SLOAD DIV MUL DUP4 MSTORE SWAP2 PUSH1 0x20 ADD SWAP2 PUSH2 0xB0B JUMP JUMPDEST DUP3 ADD SWAP2 SWAP1 PUSH1 0x0 MSTORE PUSH1 0x20 PUSH1 0x0 KECCAK256 SWAP1 JUMPDEST DUP2 SLOAD DUP2 MSTORE SWAP1 PUSH1 0x1 ADD SWAP1 PUSH1 0x20 ADD DUP1 DUP4 GT PUSH2 0xAEE JUMPI DUP3 SWAP1 SUB PUSH1 0x1F AND DUP3 ADD SWAP2 JUMPDEST POP POP POP POP POP DUP2 MSTORE PUSH1 0x20 ADD PUSH1 0x5 DUP3 ADD DUP1 SLOAD PUSH2 0xB24 SWAP1 PUSH2 0x1A1B JUMP JUMPDEST DUP1 PUSH1 0x1F ADD PUSH1 0x20 DUP1 SWAP2 DIV MUL PUSH1 0x20 ADD PUSH1 0x40 MLOAD SWAP1 DUP2 ADD PUSH1 0x40 MSTORE DUP1 SWAP3 SWAP2 SWAP1 DUP2 DUP2 MSTORE PUSH1 0x20 ADD DUP3 DUP1 SLOAD PUSH2 0xB50 SWAP1 PUSH2 0x1A1B JUMP JUMPDEST DUP1 ISZERO PUSH2 0xB9D JUMPI DUP1 PUSH1 0x1F LT PUSH2 0xB72 JUMPI PUSH2 0x100 DUP1 DUP4 SLOAD DIV MUL DUP4 MSTORE SWAP2 PUSH1 0x20 ADD SWAP2 PUSH2 0xB9D JUMP JUMPDEST DUP3 ADD SWAP2 SWAP1 PUSH1 0x0 MSTORE PUSH1 0x20 PUSH1 0x0 KECCAK256 SWAP1 JUMPDEST DUP2 SLOAD DUP2 MSTORE SWAP1 PUSH1 0x1 ADD SWAP1 PUSH1 0x20 ADD DUP1 DUP4 GT PUSH2 0xB80 JUMPI DUP3 SWAP1 SUB PUSH1 0x1F AND DUP3 ADD SWAP2 JUMPDEST POP POP POP POP POP DUP2 MSTORE PUSH1 0x20 ADD PUSH1 0x6 DUP3 ADD DUP1 SLOAD PUSH2 0xBB6 SWAP1 PUSH2 0x1A1B JUMP JUMPDEST DUP1 PUSH1 0x1F ADD PUSH1 0x20 DUP1 SWAP2 DIV MUL PUSH1 0x20 ADD PUSH1 0x40 MLOAD SWAP1 DUP2 ADD PUSH1 0x40 MSTORE DUP1 SWAP3 SWAP2 SWAP1 DUP2 DUP2 MSTORE PUSH1 0x20 ADD DUP3 DUP1 SLOAD PUSH2 0xBE2 SWAP1 PUSH2 0x1A1B JUMP JUMPDEST DUP1 ISZERO PUSH2 0xC2F JUMPI DUP1 PUSH1 0x1F LT PUSH2 0xC04 JUMPI PUSH2 0x100 DUP1 DUP4 SLOAD DIV MUL DUP4 MSTORE SWAP2 PUSH1 0x20 ADD SWAP2 PUSH2 0xC2F JUMP JUMPDEST DUP3 ADD SWAP2 SWAP1 PUSH1 0x0 MSTORE PUSH1 0x20 PUSH1 0x0 KECCAK256 SWAP1 JUMPDEST DUP2 SLOAD DUP2 MSTORE SWAP1 PUSH1 0x1 ADD SWAP1 PUSH1 0x20 ADD DUP1 DUP4 GT PUSH2 0xC12 JUMPI DUP3 SWAP1 SUB PUSH1 0x1F AND DUP3 ADD SWAP2 JUMPDEST POP POP POP POP POP DUP2 MSTORE PUSH1 0x20 ADD PUSH1 0x7 DUP3 ADD DUP1 SLOAD PUSH2 0xC48 SWAP1 PUSH2 0x1A1B JUMP JUMPDEST DUP1 PUSH1 0x1F ADD PUSH1 0x20 DUP1 SWAP2 DIV MUL PUSH1 0x20 ADD PUSH1 0x40 MLOAD SWAP1 DUP2 ADD PUSH1 0x40 MSTORE DUP1 SWAP3 SWAP2 SWAP1 DUP2 DUP2 MSTORE PUSH1 0x20 ADD DUP3 DUP1 SLOAD PUSH2 0xC74 SWAP1 PUSH2 0x1A1B JUMP JUMPDEST DUP1 ISZERO PUSH2 0xCC1 JUMPI DUP1 PUSH1 0x1F LT PUSH2 0xC96 JUMPI PUSH2 0x100 DUP1 DUP4 SLOAD DIV MUL DUP4 MSTORE SWAP2 PUSH1 0x20 ADD SWAP2 PUSH2 0xCC1 JUMP JUMPDEST DUP3 ADD SWAP2 SWAP1 PUSH1 0x0 MSTORE PUSH1 0x20 PUSH1 0x0 KECCAK256 SWAP1 JUMPDEST DUP2 SLOAD DUP2 MSTORE SWAP1 PUSH1 0x1 ADD SWAP1 PUSH1 0x20 ADD DUP1 DUP4 GT PUSH2 0xCA4 JUMPI DUP3 SWAP1 SUB PUSH1 0x1F AND DUP3 ADD SWAP2 JUMPDEST POP POP POP POP POP DUP2 MSTORE POP POP SWAP1 POP SWAP2 SWAP1 POP JUMP JUMPDEST PUSH1 0x2 PUSH1 0x0 DUP3 DUP2 MSTORE PUSH1 0x20 ADD SWAP1 DUP2 MSTORE PUSH1 0x20 ADD PUSH1 0x0 KECCAK256 PUSH1 0x0 DUP1 DUP3 ADD PUSH1 0x0 PUSH2 0xCF5 SWAP2 SWAP1 PUSH2 0xF1F JUMP JUMPDEST PUSH1 0x1 DUP3 ADD PUSH1 0x0 PUSH2 0xD05 SWAP2 SWAP1 PUSH2 0xF40 JUMP JUMPDEST PUSH1 0x2 DUP3 ADD PUSH1 0x0 PUSH2 0xD15 SWAP2 SWAP1 PUSH2 0xF61 JUMP JUMPDEST PUSH1 0x3 DUP3 ADD PUSH1 0x0 PUSH2 0xD25 SWAP2 SWAP1 PUSH2 0xF61 JUMP JUMPDEST PUSH1 0x4 DUP3 ADD PUSH1 0x0 PUSH2 0xD35 SWAP2 SWAP1 PUSH2 0xF61 JUMP JUMPDEST PUSH1 0x5 DUP3 ADD PUSH1 0x0 PUSH2 0xD45 SWAP2 SWAP1 PUSH2 0xF61 JUMP JUMPDEST PUSH1 0x6 DUP3 ADD PUSH1 0x0 PUSH2 0xD55 SWAP2 SWAP1 PUSH2 0xF61 JUMP JUMPDEST PUSH1 0x7 DUP3 ADD PUSH1 0x0 PUSH2 0xD65 SWAP2 SWAP1 PUSH2 0xF61 JUMP JUMPDEST POP POP POP JUMP JUMPDEST DUP3 DUP1 SLOAD DUP3 DUP3 SSTORE SWAP1 PUSH1 0x0 MSTORE PUSH1 0x20 PUSH1 0x0 KECCAK256 SWAP1 DUP2 ADD SWAP3 DUP3 ISZERO PUSH2 0xDE3 JUMPI SWAP2 PUSH1 0x20 MUL DUP3 ADD JUMPDEST DUP3 DUP2 GT ISZERO PUSH2 0xDE2 JUMPI DUP3 MLOAD DUP3 PUSH1 0x0 PUSH2 0x100 EXP DUP2 SLOAD DUP2 PUSH20 0xFFFFFFFFFFFFFFFFFFFFFFFFFFFFFFFFFFFFFFFF MUL NOT AND SWAP1 DUP4 PUSH20 0xFFFFFFFFFFFFFFFFFFFFFFFFFFFFFFFFFFFFFFFF AND MUL OR SWAP1 SSTORE POP SWAP2 PUSH1 0x20 ADD SWAP2 SWAP1 PUSH1 0x1 ADD SWAP1 PUSH2 0xD8A JUMP JUMPDEST JUMPDEST POP SWAP1 POP PUSH2 0xDF0 SWAP2 SWAP1 PUSH2 0xFA1 JUMP JUMPDEST POP SWAP1 JUMP JUMPDEST DUP3 DUP1 SLOAD DUP3 DUP3 SSTORE SWAP1 PUSH1 0x0 MSTORE PUSH1 0x20 PUSH1 0x0 KECCAK256 SWAP1 DUP2 ADD SWAP3 DUP3 ISZERO PUSH2 0xE43 JUMPI SWAP2 PUSH1 0x20 MUL DUP3 ADD JUMPDEST DUP3 DUP2 GT ISZERO PUSH2 0xE42 JUMPI DUP3 MLOAD DUP3 SWAP1 DUP1 MLOAD SWAP1 PUSH1 0x20 ADD SWAP1 PUSH2 0xE32 SWAP3 SWAP2 SWAP1 PUSH2 0xE54 JUMP JUMPDEST POP SWAP2 PUSH1 0x20 ADD SWAP2 SWAP1 PUSH1 0x1 ADD SWAP1 PUSH2 0xE14 JUMP JUMPDEST JUMPDEST POP SWAP1 POP PUSH2 0xE50 SWAP2 SWAP1 PUSH2 0xFBE JUMP JUMPDEST POP SWAP1 JUMP JUMPDEST DUP3 DUP1 SLOAD PUSH2 0xE60 SWAP1 PUSH2 0x1A1B JUMP JUMPDEST SWAP1 PUSH1 0x0 MSTORE PUSH1 0x20 PUSH1 0x0 KECCAK256 SWAP1 PUSH1 0x1F ADD PUSH1 0x20 SWAP1 DIV DUP2 ADD SWAP3 DUP3 PUSH2 0xE82 JUMPI PUSH1 0x0 DUP6 SSTORE PUSH2 0xEC9 JUMP JUMPDEST DUP3 PUSH1 0x1F LT PUSH2 0xE9B JUMPI DUP1 MLOAD PUSH1 0xFF NOT AND DUP4 DUP1 ADD OR DUP6 SSTORE PUSH2 0xEC9 JUMP JUMPDEST DUP3 DUP1 ADD PUSH1 0x1 ADD DUP6 SSTORE DUP3 ISZERO PUSH2 0xEC9 JUMPI SWAP2 DUP3 ADD JUMPDEST DUP3 DUP2 GT ISZERO PUSH2 0xEC8 JUMPI DUP3 MLOAD DUP3 SSTORE SWAP2 PUSH1 0x20 ADD SWAP2 SWAP1 PUSH1 0x1 ADD SWAP1 PUSH2 0xEAD JUMP JUMPDEST JUMPDEST POP SWAP1 POP PUSH2 0xED6 SWAP2 SWAP1 PUSH2 0xFA1 JUMP JUMPDEST POP SWAP1 JUMP JUMPDEST PUSH1 0x40 MLOAD DUP1 PUSH2 0x100 ADD PUSH1 0x40 MSTORE DUP1 PUSH1 0x60 DUP2 MSTORE PUSH1 0x20 ADD PUSH1 0x60 DUP2 MSTORE PUSH1 0x20 ADD PUSH1 0x60 DUP2 MSTORE PUSH1 0x20 ADD PUSH1 0x60 DUP2 MSTORE PUSH1 0x20 ADD PUSH1 0x60 DUP2 MSTORE PUSH1 0x20 ADD PUSH1 0x60 DUP2 MSTORE PUSH1 0x20 ADD PUSH1 0x60 DUP2 MSTORE PUSH1 0x20 ADD PUSH1 0x60 DUP2 MSTORE POP SWAP1 JUMP JUMPDEST POP DUP1 SLOAD PUSH1 0x0 DUP3 SSTORE SWAP1 PUSH1 0x0 MSTORE PUSH1 0x20 PUSH1 0x0 KECCAK256 SWAP1 DUP2 ADD SWAP1 PUSH2 0xF3D SWAP2 SWAP1 PUSH2 0xFA1 JUMP JUMPDEST POP JUMP JUMPDEST POP DUP1 SLOAD PUSH1 0x0 DUP3 SSTORE SWAP1 PUSH1 0x0 MSTORE PUSH1 0x20 PUSH1 0x0 KECCAK256 SWAP1 DUP2 ADD SWAP1 PUSH2 0xF5E SWAP2 SWAP1 PUSH2 0xFBE JUMP JUMPDEST POP JUMP JUMPDEST POP DUP1 SLOAD PUSH2 0xF6D SWAP1 PUSH2 0x1A1B JUMP JUMPDEST PUSH1 0x0 DUP3 SSTORE DUP1 PUSH1 0x1F LT PUSH2 0xF7F JUMPI POP PUSH2 0xF9E JUMP JUMPDEST PUSH1 0x1F ADD PUSH1 0x20 SWAP1 DIV SWAP1 PUSH1 0x0 MSTORE PUSH1 0x20 PUSH1 0x0 KECCAK256 SWAP1 DUP2 ADD SWAP1 PUSH2 0xF9D SWAP2 SWAP1 PUSH2 0xFA1 JUMP JUMPDEST JUMPDEST POP JUMP JUMPDEST JUMPDEST DUP1 DUP3 GT ISZERO PUSH2 0xFBA JUMPI PUSH1 0x0 DUP2 PUSH1 0x0 SWAP1 SSTORE POP PUSH1 0x1 ADD PUSH2 0xFA2 JUMP JUMPDEST POP SWAP1 JUMP JUMPDEST JUMPDEST DUP1 DUP3 GT ISZERO PUSH2 0xFDE JUMPI PUSH1 0x0 DUP2 DUP2 PUSH2 0xFD5 SWAP2 SWAP1 PUSH2 0xF61 JUMP JUMPDEST POP PUSH1 0x1 ADD PUSH2 0xFBF JUMP JUMPDEST POP SWAP1 JUMP JUMPDEST PUSH1 0x0 PUSH2 0xFF5 PUSH2 0xFF0 DUP5 PUSH2 0x183C JUMP JUMPDEST PUSH2 0x1817 JUMP JUMPDEST SWAP1 POP DUP1 DUP4 DUP3 MSTORE PUSH1 0x20 DUP3 ADD SWAP1 POP DUP3 DUP6 PUSH1 0x20 DUP7 MUL DUP3 ADD GT ISZERO PUSH2 0x1018 JUMPI PUSH2 0x1017 PUSH2 0x1B5E JUMP JUMPDEST JUMPDEST PUSH1 0x0 JUMPDEST DUP6 DUP2 LT ISZERO PUSH2 0x1048 JUMPI DUP2 PUSH2 0x102E DUP9 DUP3 PUSH2 0x1122 JUMP JUMPDEST DUP5 MSTORE PUSH1 0x20 DUP5 ADD SWAP4 POP PUSH1 0x20 DUP4 ADD SWAP3 POP POP PUSH1 0x1 DUP2 ADD SWAP1 POP PUSH2 0x101B JUMP JUMPDEST POP POP POP SWAP4 SWAP3 POP POP POP JUMP JUMPDEST PUSH1 0x0 PUSH2 0x1065 PUSH2 0x1060 DUP5 PUSH2 0x1868 JUMP JUMPDEST PUSH2 0x1817 JUMP JUMPDEST SWAP1 POP DUP1 DUP4 DUP3 MSTORE PUSH1 0x20 DUP3 ADD SWAP1 POP DUP3 DUP6 PUSH1 0x20 DUP7 MUL DUP3 ADD GT ISZERO PUSH2 0x1088 JUMPI PUSH2 0x1087 PUSH2 0x1B5E JUMP JUMPDEST JUMPDEST PUSH1 0x0 JUMPDEST DUP6 DUP2 LT ISZERO PUSH2 0x10D6 JUMPI DUP2 CALLDATALOAD PUSH8 0xFFFFFFFFFFFFFFFF DUP2 GT ISZERO PUSH2 0x10AE JUMPI PUSH2 0x10AD PUSH2 0x1B59 JUMP JUMPDEST JUMPDEST DUP1 DUP7 ADD PUSH2 0x10BB DUP10 DUP3 PUSH2 0x11E9 JUMP JUMPDEST DUP6 MSTORE PUSH1 0x20 DUP6 ADD SWAP5 POP PUSH1 0x20 DUP5 ADD SWAP4 POP POP POP PUSH1 0x1 DUP2 ADD SWAP1 POP PUSH2 0x108B JUMP JUMPDEST POP POP POP SWAP4 SWAP3 POP POP POP JUMP JUMPDEST PUSH1 0x0 PUSH2 0x10F3 PUSH2 0x10EE DUP5 PUSH2 0x1894 JUMP JUMPDEST PUSH2 0x1817 JUMP JUMPDEST SWAP1 POP DUP3 DUP2 MSTORE PUSH1 0x20 DUP2 ADD DUP5 DUP5 DUP5 ADD GT ISZERO PUSH2 0x110F JUMPI PUSH2 0x110E PUSH2 0x1B63 JUMP JUMPDEST JUMPDEST PUSH2 0x111A DUP5 DUP3 DUP6 PUSH2 0x19D9 JUMP JUMPDEST POP SWAP4 SWAP3 POP POP POP JUMP JUMPDEST PUSH1 0x0 DUP2 CALLDATALOAD SWAP1 POP PUSH2 0x1131 DUP2 PUSH2 0x1B83 JUMP JUMPDEST SWAP3 SWAP2 POP POP JUMP JUMPDEST PUSH1 0x0 DUP3 PUSH1 0x1F DUP4 ADD SLT PUSH2 0x114C JUMPI PUSH2 0x114B PUSH2 0x1B59 JUMP JUMPDEST JUMPDEST DUP2 CALLDATALOAD PUSH2 0x115C DUP5 DUP3 PUSH1 0x20 DUP7 ADD PUSH2 0xFE2 JUMP JUMPDEST SWAP2 POP POP SWAP3 SWAP2 POP POP JUMP JUMPDEST PUSH1 0x0 DUP3 PUSH1 0x1F DUP4 ADD SLT PUSH2 0x117A JUMPI PUSH2 0x1179 PUSH2 0x1B59 JUMP JUMPDEST JUMPDEST DUP2 CALLDATALOAD PUSH2 0x118A DUP5 DUP3 PUSH1 0x20 DUP7 ADD PUSH2 0x1052 JUMP JUMPDEST SWAP2 POP POP SWAP3 SWAP2 POP POP JUMP JUMPDEST PUSH1 0x0 DUP1 DUP4 PUSH1 0x1F DUP5 ADD SLT PUSH2 0x11A9 JUMPI PUSH2 0x11A8 PUSH2 0x1B59 JUMP JUMPDEST JUMPDEST DUP3 CALLDATALOAD SWAP1 POP PUSH8 0xFFFFFFFFFFFFFFFF DUP2 GT ISZERO PUSH2 0x11C6 JUMPI PUSH2 0x11C5 PUSH2 0x1B54 JUMP JUMPDEST JUMPDEST PUSH1 0x20 DUP4 ADD SWAP2 POP DUP4 PUSH1 0x1 DUP3 MUL DUP4 ADD GT ISZERO PUSH2 0x11E2 JUMPI PUSH2 0x11E1 PUSH2 0x1B5E JUMP JUMPDEST JUMPDEST SWAP3 POP SWAP3 SWAP1 POP JUMP JUMPDEST PUSH1 0x0 DUP3 PUSH1 0x1F DUP4 ADD SLT PUSH2 0x11FE JUMPI PUSH2 0x11FD PUSH2 0x1B59 JUMP JUMPDEST JUMPDEST DUP2 CALLDATALOAD PUSH2 0x120E DUP5 DUP3 PUSH1 0x20 DUP7 ADD PUSH2 0x10E0 JUMP JUMPDEST SWAP2 POP POP SWAP3 SWAP2 POP POP JUMP JUMPDEST PUSH1 0x0 DUP2 CALLDATALOAD SWAP1 POP PUSH2 0x1226 DUP2 PUSH2 0x1B9A JUMP JUMPDEST SWAP3 SWAP2 POP POP JUMP JUMPDEST PUSH1 0x0 DUP1 PUSH1 0x40 DUP4 DUP6 SUB SLT ISZERO PUSH2 0x1243 JUMPI PUSH2 0x1242 PUSH2 0x1B6D JUMP JUMPDEST JUMPDEST PUSH1 0x0 PUSH2 0x1251 DUP6 DUP3 DUP7 ADD PUSH2 0x1122 JUMP JUMPDEST SWAP3 POP POP PUSH1 0x20 PUSH2 0x1262 DUP6 DUP3 DUP7 ADD PUSH2 0x1217 JUMP JUMPDEST SWAP2 POP POP SWAP3 POP SWAP3 SWAP1 POP JUMP JUMPDEST PUSH1 0x0 DUP1 PUSH1 0x0 DUP1 PUSH1 0x0 DUP1 PUSH1 0x0 DUP1 PUSH1 0x0 DUP1 PUSH2 0x100 DUP12 DUP14 SUB SLT ISZERO PUSH2 0x1290 JUMPI PUSH2 0x128F PUSH2 0x1B6D JUMP JUMPDEST JUMPDEST PUSH1 0x0 DUP12 ADD CALLDATALOAD PUSH8 0xFFFFFFFFFFFFFFFF DUP2 GT ISZERO PUSH2 0x12AE JUMPI PUSH2 0x12AD PUSH2 0x1B68 JUMP JUMPDEST JUMPDEST PUSH2 0x12BA DUP14 DUP3 DUP15 ADD PUSH2 0x1137 JUMP JUMPDEST SWAP11 POP POP PUSH1 0x20 DUP12 ADD CALLDATALOAD PUSH8 0xFFFFFFFFFFFFFFFF DUP2 GT ISZERO PUSH2 0x12DB JUMPI PUSH2 0x12DA PUSH2 0x1B68 JUMP JUMPDEST JUMPDEST PUSH2 0x12E7 DUP14 DUP3 DUP15 ADD PUSH2 0x1165 JUMP JUMPDEST SWAP10 POP POP PUSH1 0x40 DUP12 ADD CALLDATALOAD PUSH8 0xFFFFFFFFFFFFFFFF DUP2 GT ISZERO PUSH2 0x1308 JUMPI PUSH2 0x1307 PUSH2 0x1B68 JUMP JUMPDEST JUMPDEST PUSH2 0x1314 DUP14 DUP3 DUP15 ADD PUSH2 0x1193 JUMP JUMPDEST SWAP9 POP SWAP9 POP POP PUSH1 0x60 DUP12 ADD CALLDATALOAD PUSH8 0xFFFFFFFFFFFFFFFF DUP2 GT ISZERO PUSH2 0x1337 JUMPI PUSH2 0x1336 PUSH2 0x1B68 JUMP JUMPDEST JUMPDEST PUSH2 0x1343 DUP14 DUP3 DUP15 ADD PUSH2 0x1193 JUMP JUMPDEST SWAP7 POP SWAP7 POP POP PUSH1 0x80 DUP12 ADD CALLDATALOAD PUSH8 0xFFFFFFFFFFFFFFFF DUP2 GT ISZERO PUSH2 0x1366 JUMPI PUSH2 0x1365 PUSH2 0x1B68 JUMP JUMPDEST JUMPDEST PUSH2 0x1372 DUP14 DUP3 DUP15 ADD PUSH2 0x11E9 JUMP JUMPDEST SWAP5 POP POP PUSH1 0xA0 DUP12 ADD CALLDATALOAD PUSH8 0xFFFFFFFFFFFFFFFF DUP2 GT ISZERO PUSH2 0x1393 JUMPI PUSH2 0x1392 PUSH2 0x1B68 JUMP JUMPDEST JUMPDEST PUSH2 0x139F DUP14 DUP3 DUP15 ADD PUSH2 0x11E9 JUMP JUMPDEST SWAP4 POP POP PUSH1 0xC0 DUP12 ADD CALLDATALOAD PUSH8 0xFFFFFFFFFFFFFFFF DUP2 GT ISZERO PUSH2 0x13C0 JUMPI PUSH2 0x13BF PUSH2 0x1B68 JUMP JUMPDEST JUMPDEST PUSH2 0x13CC DUP14 DUP3 DUP15 ADD PUSH2 0x11E9 JUMP JUMPDEST SWAP3 POP POP PUSH1 0xE0 DUP12 ADD CALLDATALOAD PUSH8 0xFFFFFFFFFFFFFFFF DUP2 GT ISZERO PUSH2 0x13ED JUMPI PUSH2 0x13EC PUSH2 0x1B68 JUMP JUMPDEST JUMPDEST PUSH2 0x13F9 DUP14 DUP3 DUP15 ADD PUSH2 0x11E9 JUMP JUMPDEST SWAP2 POP POP SWAP3 SWAP6 SWAP9 SWAP12 SWAP2 SWAP5 SWAP8 SWAP11 POP SWAP3 SWAP6 SWAP9 POP JUMP JUMPDEST PUSH1 0x0 PUSH1 0x20 DUP3 DUP5 SUB SLT ISZERO PUSH2 0x1421 JUMPI PUSH2 0x1420 PUSH2 0x1B6D JUMP JUMPDEST JUMPDEST PUSH1 0x0 PUSH2 0x142F DUP5 DUP3 DUP6 ADD PUSH2 0x1217 JUMP JUMPDEST SWAP2 POP POP SWAP3 SWAP2 POP POP JUMP JUMPDEST PUSH1 0x0 PUSH2 0x1444 DUP4 DUP4 PUSH2 0x147C JUMP JUMPDEST PUSH1 0x20 DUP4 ADD SWAP1 POP SWAP3 SWAP2 POP POP JUMP JUMPDEST PUSH1 0x0 PUSH2 0x145C DUP4 DUP4 PUSH2 0x15BC JUMP JUMPDEST SWAP1 POP SWAP3 SWAP2 POP POP JUMP JUMPDEST PUSH1 0x0 PUSH2 0x1470 DUP4 DUP4 PUSH2 0x170F JUMP JUMPDEST PUSH1 0x20 DUP4 ADD SWAP1 POP SWAP3 SWAP2 POP POP JUMP JUMPDEST PUSH2 0x1485 DUP2 PUSH2 0x199D JUMP JUMPDEST DUP3 MSTORE POP POP JUMP JUMPDEST PUSH1 0x0 PUSH2 0x1496 DUP3 PUSH2 0x18F5 JUMP JUMPDEST PUSH2 0x14A0 DUP2 DUP6 PUSH2 0x1948 JUMP JUMPDEST SWAP4 POP PUSH2 0x14AB DUP4 PUSH2 0x18C5 JUMP JUMPDEST DUP1 PUSH1 0x0 JUMPDEST DUP4 DUP2 LT ISZERO PUSH2 0x14DC JUMPI DUP2 MLOAD PUSH2 0x14C3 DUP9 DUP3 PUSH2 0x1438 JUMP JUMPDEST SWAP8 POP PUSH2 0x14CE DUP4 PUSH2 0x1921 JUMP JUMPDEST SWAP3 POP POP PUSH1 0x1 DUP2 ADD SWAP1 POP PUSH2 0x14AF JUMP JUMPDEST POP DUP6 SWAP4 POP POP POP POP SWAP3 SWAP2 POP POP JUMP JUMPDEST PUSH1 0x0 PUSH2 0x14F4 DUP3 PUSH2 0x1900 JUMP JUMPDEST PUSH2 0x14FE DUP2 DUP6 PUSH2 0x1959 JUMP JUMPDEST SWAP4 POP DUP4 PUSH1 0x20 DUP3 MUL DUP6 ADD PUSH2 0x1510 DUP6 PUSH2 0x18D5 JUMP JUMPDEST DUP1 PUSH1 0x0 JUMPDEST DUP6 DUP2 LT ISZERO PUSH2 0x154C JUMPI DUP5 DUP5 SUB DUP10 MSTORE DUP2 MLOAD PUSH2 0x152D DUP6 DUP3 PUSH2 0x1450 JUMP JUMPDEST SWAP5 POP PUSH2 0x1538 DUP4 PUSH2 0x192E JUMP JUMPDEST SWAP3 POP PUSH1 0x20 DUP11 ADD SWAP10 POP POP PUSH1 0x1 DUP2 ADD SWAP1 POP PUSH2 0x1514 JUMP JUMPDEST POP DUP3 SWAP8 POP DUP8 SWAP6 POP POP POP POP POP POP SWAP3 SWAP2 POP POP JUMP JUMPDEST PUSH1 0x0 PUSH2 0x1569 DUP3 PUSH2 0x190B JUMP JUMPDEST PUSH2 0x1573 DUP2 DUP6 PUSH2 0x196A JUMP JUMPDEST SWAP4 POP PUSH2 0x157E DUP4 PUSH2 0x18E5 JUMP JUMPDEST DUP1 PUSH1 0x0 JUMPDEST DUP4 DUP2 LT ISZERO PUSH2 0x15AF JUMPI DUP2 MLOAD PUSH2 0x1596 DUP9 DUP3 PUSH2 0x1464 JUMP JUMPDEST SWAP8 POP PUSH2 0x15A1 DUP4 PUSH2 0x193B JUMP JUMPDEST SWAP3 POP POP PUSH1 0x1 DUP2 ADD SWAP1 POP PUSH2 0x1582 JUMP JUMPDEST POP DUP6 SWAP4 POP POP POP POP SWAP3 SWAP2 POP POP JUMP JUMPDEST PUSH1 0x0 PUSH2 0x15C7 DUP3 PUSH2 0x1916 JUMP JUMPDEST PUSH2 0x15D1 DUP2 DUP6 PUSH2 0x197B JUMP JUMPDEST SWAP4 POP PUSH2 0x15E1 DUP2 DUP6 PUSH1 0x20 DUP7 ADD PUSH2 0x19E8 JUMP JUMPDEST PUSH2 0x15EA DUP2 PUSH2 0x1B72 JUMP JUMPDEST DUP5 ADD SWAP2 POP POP SWAP3 SWAP2 POP POP JUMP JUMPDEST PUSH1 0x0 PUSH2 0x1600 DUP3 PUSH2 0x1916 JUMP JUMPDEST PUSH2 0x160A DUP2 DUP6 PUSH2 0x198C JUMP JUMPDEST SWAP4 POP PUSH2 0x161A DUP2 DUP6 PUSH1 0x20 DUP7 ADD PUSH2 0x19E8 JUMP JUMPDEST PUSH2 0x1623 DUP2 PUSH2 0x1B72 JUMP JUMPDEST DUP5 ADD SWAP2 POP POP SWAP3 SWAP2 POP POP JUMP JUMPDEST PUSH1 0x0 PUSH2 0x100 DUP4 ADD PUSH1 0x0 DUP4 ADD MLOAD DUP5 DUP3 SUB PUSH1 0x0 DUP7 ADD MSTORE PUSH2 0x164C DUP3 DUP3 PUSH2 0x148B JUMP JUMPDEST SWAP2 POP POP PUSH1 0x20 DUP4 ADD MLOAD DUP5 DUP3 SUB PUSH1 0x20 DUP7 ADD MSTORE PUSH2 0x1666 DUP3 DUP3 PUSH2 0x14E9 JUMP JUMPDEST SWAP2 POP POP PUSH1 0x40 DUP4 ADD MLOAD DUP5 DUP3 SUB PUSH1 0x40 DUP7 ADD MSTORE PUSH2 0x1680 DUP3 DUP3 PUSH2 0x15BC JUMP JUMPDEST SWAP2 POP POP PUSH1 0x60 DUP4 ADD MLOAD DUP5 DUP3 SUB PUSH1 0x60 DUP7 ADD MSTORE PUSH2 0x169A DUP3 DUP3 PUSH2 0x15BC JUMP JUMPDEST SWAP2 POP POP PUSH1 0x80 DUP4 ADD MLOAD DUP5 DUP3 SUB PUSH1 0x80 DUP7 ADD MSTORE PUSH2 0x16B4 DUP3 DUP3 PUSH2 0x15BC JUMP JUMPDEST SWAP2 POP POP PUSH1 0xA0 DUP4 ADD MLOAD DUP5 DUP3 SUB PUSH1 0xA0 DUP7 ADD MSTORE PUSH2 0x16CE DUP3 DUP3 PUSH2 0x15BC JUMP JUMPDEST SWAP2 POP POP PUSH1 0xC0 DUP4 ADD MLOAD DUP5 DUP3 SUB PUSH1 0xC0 DUP7 ADD MSTORE PUSH2 0x16E8 DUP3 DUP3 PUSH2 0x15BC JUMP JUMPDEST SWAP2 POP POP PUSH1 0xE0 DUP4 ADD MLOAD DUP5 DUP3 SUB PUSH1 0xE0 DUP7 ADD MSTORE PUSH2 0x1702 DUP3 DUP3 PUSH2 0x15BC JUMP JUMPDEST SWAP2 POP POP DUP1 SWAP2 POP POP SWAP3 SWAP2 POP POP JUMP JUMPDEST PUSH2 0x1718 DUP2 PUSH2 0x19CF JUMP JUMPDEST DUP3 MSTORE POP POP JUMP JUMPDEST PUSH2 0x1727 DUP2 PUSH2 0x19CF JUMP JUMPDEST DUP3 MSTORE POP POP JUMP JUMPDEST PUSH1 0x0 PUSH1 0x20 DUP3 ADD SWAP1 POP DUP2 DUP2 SUB PUSH1 0x0 DUP4 ADD MSTORE PUSH2 0x1747 DUP2 DUP5 PUSH2 0x155E JUMP JUMPDEST SWAP1 POP SWAP3 SWAP2 POP POP JUMP JUMPDEST PUSH1 0x0 PUSH1 0xC0 DUP3 ADD SWAP1 POP DUP2 DUP2 SUB PUSH1 0x0 DUP4 ADD MSTORE PUSH2 0x1769 DUP2 DUP10 PUSH2 0x15F5 JUMP JUMPDEST SWAP1 POP DUP2 DUP2 SUB PUSH1 0x20 DUP4 ADD MSTORE PUSH2 0x177D DUP2 DUP9 PUSH2 0x15F5 JUMP JUMPDEST SWAP1 POP DUP2 DUP2 SUB PUSH1 0x40 DUP4 ADD MSTORE PUSH2 0x1791 DUP2 DUP8 PUSH2 0x15F5 JUMP JUMPDEST SWAP1 POP DUP2 DUP2 SUB PUSH1 0x60 DUP4 ADD MSTORE PUSH2 0x17A5 DUP2 DUP7 PUSH2 0x15F5 JUMP JUMPDEST SWAP1 POP DUP2 DUP2 SUB PUSH1 0x80 DUP4 ADD MSTORE PUSH2 0x17B9 DUP2 DUP6 PUSH2 0x15F5 JUMP JUMPDEST SWAP1 POP DUP2 DUP2 SUB PUSH1 0xA0 DUP4 ADD MSTORE PUSH2 0x17CD DUP2 DUP5 PUSH2 0x15F5 JUMP JUMPDEST SWAP1 POP SWAP8 SWAP7 POP POP POP POP POP POP POP JUMP JUMPDEST PUSH1 0x0 PUSH1 0x20 DUP3 ADD SWAP1 POP DUP2 DUP2 SUB PUSH1 0x0 DUP4 ADD MSTORE PUSH2 0x17F4 DUP2 DUP5 PUSH2 0x162E JUMP JUMPDEST SWAP1 POP SWAP3 SWAP2 POP POP JUMP JUMPDEST PUSH1 0x0 PUSH1 0x20 DUP3 ADD SWAP1 POP PUSH2 0x1811 PUSH1 0x0 DUP4 ADD DUP5 PUSH2 0x171E JUMP JUMPDEST SWAP3 SWAP2 POP POP JUMP JUMPDEST PUSH1 0x0 PUSH2 0x1821 PUSH2 0x1832 JUMP JUMPDEST SWAP1 POP PUSH2 0x182D DUP3 DUP3 PUSH2 0x1A4D JUMP JUMPDEST SWAP2 SWAP1 POP JUMP JUMPDEST PUSH1 0x0 PUSH1 0x40 MLOAD SWAP1 POP SWAP1 JUMP JUMPDEST PUSH1 0x0 PUSH8 0xFFFFFFFFFFFFFFFF DUP3 GT ISZERO PUSH2 0x1857 JUMPI PUSH2 0x1856 PUSH2 0x1B25 JUMP JUMPDEST JUMPDEST PUSH1 0x20 DUP3 MUL SWAP1 POP PUSH1 0x20 DUP2 ADD SWAP1 POP SWAP2 SWAP1 POP JUMP JUMPDEST PUSH1 0x0 PUSH8 0xFFFFFFFFFFFFFFFF DUP3 GT ISZERO PUSH2 0x1883 JUMPI PUSH2 0x1882 PUSH2 0x1B25 JUMP JUMPDEST JUMPDEST PUSH1 0x20 DUP3 MUL SWAP1 POP PUSH1 0x20 DUP2 ADD SWAP1 POP SWAP2 SWAP1 POP JUMP JUMPDEST PUSH1 0x0 PUSH8 0xFFFFFFFFFFFFFFFF DUP3 GT ISZERO PUSH2 0x18AF JUMPI PUSH2 0x18AE PUSH2 0x1B25 JUMP JUMPDEST JUMPDEST PUSH2 0x18B8 DUP3 PUSH2 0x1B72 JUMP JUMPDEST SWAP1 POP PUSH1 0x20 DUP2 ADD SWAP1 POP SWAP2 SWAP1 POP JUMP JUMPDEST PUSH1 0x0 DUP2 SWAP1 POP PUSH1 0x20 DUP3 ADD SWAP1 POP SWAP2 SWAP1 POP JUMP JUMPDEST PUSH1 0x0 DUP2 SWAP1 POP PUSH1 0x20 DUP3 ADD SWAP1 POP SWAP2 SWAP1 POP JUMP JUMPDEST PUSH1 0x0 DUP2 SWAP1 POP PUSH1 0x20 DUP3 ADD SWAP1 POP SWAP2 SWAP1 POP JUMP JUMPDEST PUSH1 0x0 DUP2 MLOAD SWAP1 POP SWAP2 SWAP1 POP JUMP JUMPDEST PUSH1 0x0 DUP2 MLOAD SWAP1 POP SWAP2 SWAP1 POP JUMP JUMPDEST PUSH1 0x0 DUP2 MLOAD SWAP1 POP SWAP2 SWAP1 POP JUMP JUMPDEST PUSH1 0x0 DUP2 MLOAD SWAP1 POP SWAP2 SWAP1 POP JUMP JUMPDEST PUSH1 0x0 PUSH1 0x20 DUP3 ADD SWAP1 POP SWAP2 SWAP1 POP JUMP JUMPDEST PUSH1 0x0 PUSH1 0x20 DUP3 ADD SWAP1 POP SWAP2 SWAP1 POP JUMP JUMPDEST PUSH1 0x0 PUSH1 0x20 DUP3 ADD SWAP1 POP SWAP2 SWAP1 POP JUMP JUMPDEST PUSH1 0x0 DUP3 DUP3 MSTORE PUSH1 0x20 DUP3 ADD SWAP1 POP SWAP3 SWAP2 POP POP JUMP JUMPDEST PUSH1 0x0 DUP3 DUP3 MSTORE PUSH1 0x20 DUP3 ADD SWAP1 POP SWAP3 SWAP2 POP POP JUMP JUMPDEST PUSH1 0x0 DUP3 DUP3 MSTORE PUSH1 0x20 DUP3 ADD SWAP1 POP SWAP3 SWAP2 POP POP JUMP JUMPDEST PUSH1 0x0 DUP3 DUP3 MSTORE PUSH1 0x20 DUP3 ADD SWAP1 POP SWAP3 SWAP2 POP POP JUMP JUMPDEST PUSH1 0x0 DUP3 DUP3 MSTORE PUSH1 0x20 DUP3 ADD SWAP1 POP SWAP3 SWAP2 POP POP JUMP JUMPDEST PUSH1 0x0 PUSH2 0x19A8 DUP3 PUSH2 0x19AF JUMP JUMPDEST SWAP1 POP SWAP2 SWAP1 POP JUMP JUMPDEST PUSH1 0x0 PUSH20 0xFFFFFFFFFFFFFFFFFFFFFFFFFFFFFFFFFFFFFFFF DUP3 AND SWAP1 POP SWAP2 SWAP1 POP JUMP JUMPDEST PUSH1 0x0 DUP2 SWAP1 POP SWAP2 SWAP1 POP JUMP JUMPDEST DUP3 DUP2 DUP4 CALLDATACOPY PUSH1 0x0 DUP4 DUP4 ADD MSTORE POP POP POP JUMP JUMPDEST PUSH1 0x0 JUMPDEST DUP4 DUP2 LT ISZERO PUSH2 0x1A06 JUMPI DUP1 DUP3 ADD MLOAD DUP2 DUP5 ADD MSTORE PUSH1 0x20 DUP2 ADD SWAP1 POP PUSH2 0x19EB JUMP JUMPDEST DUP4 DUP2 GT ISZERO PUSH2 0x1A15 JUMPI PUSH1 0x0 DUP5 DUP5 ADD MSTORE JUMPDEST POP POP POP POP JUMP JUMPDEST PUSH1 0x0 PUSH1 0x2 DUP3 DIV SWAP1 POP PUSH1 0x1 DUP3 AND DUP1 PUSH2 0x1A33 JUMPI PUSH1 0x7F DUP3 AND SWAP2 POP JUMPDEST PUSH1 0x20 DUP3 LT DUP2 EQ ISZERO PUSH2 0x1A47 JUMPI PUSH2 0x1A46 PUSH2 0x1AF6 JUMP JUMPDEST JUMPDEST POP SWAP2 SWAP1 POP JUMP JUMPDEST PUSH2 0x1A56 DUP3 PUSH2 0x1B72 JUMP JUMPDEST DUP2 ADD DUP2 DUP2 LT PUSH8 0xFFFFFFFFFFFFFFFF DUP3 GT OR ISZERO PUSH2 0x1A75 JUMPI PUSH2 0x1A74 PUSH2 0x1B25 JUMP JUMPDEST JUMPDEST DUP1 PUSH1 0x40 MSTORE POP POP POP JUMP JUMPDEST PUSH1 0x0 PUSH2 0x1A89 DUP3 PUSH2 0x19CF JUMP JUMPDEST SWAP2 POP PUSH32 0xFFFFFFFFFFFFFFFFFFFFFFFFFFFFFFFFFFFFFFFFFFFFFFFFFFFFFFFFFFFFFFFF DUP3 EQ ISZERO PUSH2 0x1ABC JUMPI PUSH2 0x1ABB PUSH2 0x1AC7 JUMP JUMPDEST JUMPDEST PUSH1 0x1 DUP3 ADD SWAP1 POP SWAP2 SWAP1 POP JUMP JUMPDEST PUSH32 0x4E487B7100000000000000000000000000000000000000000000000000000000 PUSH1 0x0 MSTORE PUSH1 0x11 PUSH1 0x4 MSTORE PUSH1 0x24 PUSH1 0x0 REVERT JUMPDEST PUSH32 0x4E487B7100000000000000000000000000000000000000000000000000000000 PUSH1 0x0 MSTORE PUSH1 0x22 PUSH1 0x4 MSTORE PUSH1 0x24 PUSH1 0x0 REVERT JUMPDEST PUSH32 0x4E487B7100000000000000000000000000000000000000000000000000000000 PUSH1 0x0 MSTORE PUSH1 0x41 PUSH1 0x4 MSTORE PUSH1 0x24 PUSH1 0x0 REVERT JUMPDEST PUSH1 0x0 DUP1 REVERT JUMPDEST PUSH1 0x0 DUP1 REVERT JUMPDEST PUSH1 0x0 DUP1 REVERT JUMPDEST PUSH1 0x0 DUP1 REVERT JUMPDEST PUSH1 0x0 DUP1 REVERT JUMPDEST PUSH1 0x0 DUP1 REVERT JUMPDEST PUSH1 0x0 PUSH1 0x1F NOT PUSH1 0x1F DUP4 ADD AND SWAP1 POP SWAP2 SWAP1 POP JUMP JUMPDEST PUSH2 0x1B8C DUP2 PUSH2 0x199D JUMP JUMPDEST DUP2 EQ PUSH2 0x1B97 JUMPI PUSH1 0x0 DUP1 REVERT JUMPDEST POP JUMP JUMPDEST PUSH2 0x1BA3 DUP2 PUSH2 0x19CF JUMP JUMPDEST DUP2 EQ PUSH2 0x1BAE JUMPI PUSH1 0x0 DUP1 REVERT JUMPDEST POP JUMP INVALID LOG2 PUSH5 0x6970667358 0x22 SLT KECCAK256 0x29 0x5E 0x4E SWAP8 0xC1 ADDRESS LOG3 0xEE COINBASE 0xEE 0xA7 0xB2 0x21 SWAP10 KECCAK256 0xC 0xE9 0xB3 KECCAK256 MULMOD DUP11 0xCF 0xDB DUP11 EQ 0xD1 0xDA LOG4 DUP2 0xB9 DUP9 REVERT PUSH5 0x736F6C6343 STOP ADDMOD SMOD STOP CALLER "
				},
				"gasEstimates": {
					"creation": {
						"codeDepositCost": "1428600",
						"executionCost": "23599",
						"totalCost": "1452199"
					},
					"external": {
						"addManufacturerProduct(address[],bytes[],bytes,bytes,bytes,bytes,bytes,bytes)": "infinite",
						"addressToproductsIdMapping(address,uint256)": "infinite",
						"deleteProduct(uint256)": "infinite",
						"getManufacturerProducts()": "infinite",
						"getProduct(uint256)": "infinite",
						"productsIdMappingToStructMapping(uint256)": "infinite"
					}
				},
				"methodIdentifiers": {
					"addManufacturerProduct(address[],bytes[],bytes,bytes,bytes,bytes,bytes,bytes)": "9b14a135",
					"addressToproductsIdMapping(address,uint256)": "21c6f9e5",
					"deleteProduct(uint256)": "ed90c7b7",
					"getManufacturerProducts()": "12c972c6",
					"getProduct(uint256)": "b9db15b4",
					"productsIdMappingToStructMapping(uint256)": "9e9c191d"
				}
			},
			"storageLayout": {
				"storage": [
					{
						"astId": 55,
						"contract": "contracts/manufacturerProduct.sol:manufacturerProduct",
						"label": "productCounter",
						"offset": 0,
						"slot": "0",
						"type": "t_uint256"
					},
					{
						"astId": 58,
						"contract": "contracts/manufacturerProduct.sol:manufacturerProduct",
						"label": "allProducts",
						"offset": 0,
						"slot": "1",
						"type": "t_array(t_uint256)dyn_storage"
					},
					{
						"astId": 63,
						"contract": "contracts/manufacturerProduct.sol:manufacturerProduct",
						"label": "productsIdMappingToStructMapping",
						"offset": 0,
						"slot": "2",
						"type": "t_mapping(t_uint256,t_struct(manufacturerProduct)20_storage)"
					},
					{
						"astId": 68,
						"contract": "contracts/manufacturerProduct.sol:manufacturerProduct",
						"label": "addressToproductsIdMapping",
						"offset": 0,
						"slot": "3",
						"type": "t_mapping(t_address,t_array(t_uint256)dyn_storage)"
					}
				],
				"types": {
					"t_address": {
						"encoding": "inplace",
						"label": "address",
						"numberOfBytes": "20"
					},
					"t_array(t_address)dyn_storage": {
						"base": "t_address",
						"encoding": "dynamic_array",
						"label": "address[]",
						"numberOfBytes": "32"
					},
					"t_array(t_bytes_storage)dyn_storage": {
						"base": "t_bytes_storage",
						"encoding": "dynamic_array",
						"label": "bytes[]",
						"numberOfBytes": "32"
					},
					"t_array(t_uint256)dyn_storage": {
						"base": "t_uint256",
						"encoding": "dynamic_array",
						"label": "uint256[]",
						"numberOfBytes": "32"
					},
					"t_bytes_storage": {
						"encoding": "bytes",
						"label": "bytes",
						"numberOfBytes": "32"
					},
					"t_mapping(t_address,t_array(t_uint256)dyn_storage)": {
						"encoding": "mapping",
						"key": "t_address",
						"label": "mapping(address => uint256[])",
						"numberOfBytes": "32",
						"value": "t_array(t_uint256)dyn_storage"
					},
					"t_mapping(t_uint256,t_struct(manufacturerProduct)20_storage)": {
						"encoding": "mapping",
						"key": "t_uint256",
						"label": "mapping(uint256 => struct IManufacturerProduct.manufacturerProduct)",
						"numberOfBytes": "32",
						"value": "t_struct(manufacturerProduct)20_storage"
					},
					"t_struct(manufacturerProduct)20_storage": {
						"encoding": "inplace",
						"label": "struct IManufacturerProduct.manufacturerProduct",
						"members": [
							{
								"astId": 4,
								"contract": "contracts/manufacturerProduct.sol:manufacturerProduct",
								"label": "supplierAddress",
								"offset": 0,
								"slot": "0",
								"type": "t_array(t_address)dyn_storage"
							},
							{
								"astId": 7,
								"contract": "contracts/manufacturerProduct.sol:manufacturerProduct",
								"label": "sm_id",
								"offset": 0,
								"slot": "1",
								"type": "t_array(t_bytes_storage)dyn_storage"
							},
							{
								"astId": 9,
								"contract": "contracts/manufacturerProduct.sol:manufacturerProduct",
								"label": "mp_name",
								"offset": 0,
								"slot": "2",
								"type": "t_bytes_storage"
							},
							{
								"astId": 11,
								"contract": "contracts/manufacturerProduct.sol:manufacturerProduct",
								"label": "mp_description",
								"offset": 0,
								"slot": "3",
								"type": "t_bytes_storage"
							},
							{
								"astId": 13,
								"contract": "contracts/manufacturerProduct.sol:manufacturerProduct",
								"label": "mp_unit",
								"offset": 0,
								"slot": "4",
								"type": "t_bytes_storage"
							},
							{
								"astId": 15,
								"contract": "contracts/manufacturerProduct.sol:manufacturerProduct",
								"label": "mp_price",
								"offset": 0,
								"slot": "5",
								"type": "t_bytes_storage"
							},
							{
								"astId": 17,
								"contract": "contracts/manufacturerProduct.sol:manufacturerProduct",
								"label": "mp_date",
								"offset": 0,
								"slot": "6",
								"type": "t_bytes_storage"
							},
							{
								"astId": 19,
								"contract": "contracts/manufacturerProduct.sol:manufacturerProduct",
								"label": "mp_expiryDate",
								"offset": 0,
								"slot": "7",
								"type": "t_bytes_storage"
							}
						],
						"numberOfBytes": "256"
					},
					"t_uint256": {
						"encoding": "inplace",
						"label": "uint256",
						"numberOfBytes": "32"
					}
				}
			},
			"userdoc": {
				"kind": "user",
				"methods": {},
				"version": 1
			}
		}
	}
}