{
	"contracts/supplierManufacturer.sol": {
		"supplierManufacturer": {
			"abi": [
				{
					"anonymous": false,
					"inputs": [
						{
							"indexed": false,
							"internalType": "uint32",
							"name": "_arrivalTime",
							"type": "uint32"
						}
					],
					"name": "eventArrivalTime",
					"type": "event"
				},
				{
					"anonymous": false,
					"inputs": [
						{
							"indexed": true,
							"internalType": "uint256",
							"name": "_smId",
							"type": "uint256"
						},
						{
							"indexed": true,
							"internalType": "uint256",
							"name": "_spId",
							"type": "uint256"
						},
						{
							"indexed": false,
							"internalType": "address",
							"name": "_supplierAddress",
							"type": "address"
						},
						{
							"indexed": false,
							"internalType": "address",
							"name": "_manufacturerAddress",
							"type": "address"
						},
						{
							"indexed": false,
							"internalType": "uint32",
							"name": "_dispatchTime",
							"type": "uint32"
						}
					],
					"name": "eventSupplierManufacturerTransfer",
					"type": "event"
				},
				{
					"inputs": [
						{
							"internalType": "address",
							"name": "_manufacturerAddress",
							"type": "address"
						}
					],
					"name": "getAllSmIdForManufacturer",
					"outputs": [
						{
							"components": [
								{
									"internalType": "uint256",
									"name": "spId",
									"type": "uint256"
								},
								{
									"internalType": "address",
									"name": "supplierAddress",
									"type": "address"
								},
								{
									"internalType": "address",
									"name": "manufacturerAddress",
									"type": "address"
								},
								{
									"internalType": "uint32",
									"name": "dispatchTime",
									"type": "uint32"
								},
								{
									"internalType": "uint32",
									"name": "arrivalTime",
									"type": "uint32"
								}
							],
							"internalType": "struct ISupplierManufacturer.supplierManufacturer[]",
							"name": "",
							"type": "tuple[]"
						}
					],
					"stateMutability": "view",
					"type": "function"
				},
				{
					"inputs": [
						{
							"internalType": "uint256",
							"name": "_smId",
							"type": "uint256"
						}
					],
					"name": "getProduct",
					"outputs": [
						{
							"components": [
								{
									"internalType": "uint256",
									"name": "spId",
									"type": "uint256"
								},
								{
									"internalType": "address",
									"name": "supplierAddress",
									"type": "address"
								},
								{
									"internalType": "address",
									"name": "manufacturerAddress",
									"type": "address"
								},
								{
									"internalType": "uint32",
									"name": "dispatchTime",
									"type": "uint32"
								},
								{
									"internalType": "uint32",
									"name": "arrivalTime",
									"type": "uint32"
								}
							],
							"internalType": "struct ISupplierManufacturer.supplierManufacturer",
							"name": "",
							"type": "tuple"
						}
					],
					"stateMutability": "view",
					"type": "function"
				},
				{
					"inputs": [
						{
							"internalType": "address",
							"name": "",
							"type": "address"
						},
						{
							"internalType": "uint256",
							"name": "",
							"type": "uint256"
						}
					],
					"name": "manufacturerTosmIdMapping",
					"outputs": [
						{
							"internalType": "uint256",
							"name": "",
							"type": "uint256"
						}
					],
					"stateMutability": "view",
					"type": "function"
				},
				{
					"inputs": [
						{
							"internalType": "uint256",
							"name": "_smId",
							"type": "uint256"
						}
					],
					"name": "receiveProduct",
					"outputs": [],
					"stateMutability": "nonpayable",
					"type": "function"
				},
				{
					"inputs": [],
					"name": "smId",
					"outputs": [
						{
							"internalType": "uint256",
							"name": "",
							"type": "uint256"
						}
					],
					"stateMutability": "view",
					"type": "function"
				},
				{
					"inputs": [
						{
							"internalType": "uint256",
							"name": "",
							"type": "uint256"
						}
					],
					"name": "smIdToStructMapping",
					"outputs": [
						{
							"internalType": "uint256",
							"name": "spId",
							"type": "uint256"
						},
						{
							"internalType": "address",
							"name": "supplierAddress",
							"type": "address"
						},
						{
							"internalType": "address",
							"name": "manufacturerAddress",
							"type": "address"
						},
						{
							"internalType": "uint32",
							"name": "dispatchTime",
							"type": "uint32"
						},
						{
							"internalType": "uint32",
							"name": "arrivalTime",
							"type": "uint32"
						}
					],
					"stateMutability": "view",
					"type": "function"
				},
				{
					"inputs": [
						{
							"internalType": "uint256",
							"name": "_spId",
							"type": "uint256"
						},
						{
							"internalType": "address",
							"name": "_supplierAddress",
							"type": "address"
						},
						{
							"internalType": "address",
							"name": "_manufacturerAddress",
							"type": "address"
						},
						{
							"internalType": "uint32",
							"name": "_dispatchTime",
							"type": "uint32"
						}
					],
					"name": "transferProduct",
					"outputs": [],
					"stateMutability": "nonpayable",
					"type": "function"
				}
			],
			"devdoc": {
				"author": "ProvyLens team",
				"kind": "dev",
				"methods": {},
				"title": "The contract for handling transfer between supplier and manufacturer product",
				"version": 1
			},
			"evm": {
				"assembly": "    /* \"contracts/supplierManufacturer.sol\":293:2483  contract supplierManufacturer is ISupplierManufacturer{\r... */\n  mstore(0x40, 0x80)\n    /* \"contracts/supplierManufacturer.sol\":373:374  1 */\n  0x01\n    /* \"contracts/supplierManufacturer.sol\":354:374  uint public smId = 1 */\n  0x00\n  sstore\n    /* \"contracts/supplierManufacturer.sol\":293:2483  contract supplierManufacturer is ISupplierManufacturer{\r... */\n  callvalue\n  dup1\n  iszero\n  tag_1\n  jumpi\n  0x00\n  dup1\n  revert\ntag_1:\n  pop\n  dataSize(sub_0)\n  dup1\n  dataOffset(sub_0)\n  0x00\n  codecopy\n  0x00\n  return\nstop\n\nsub_0: assembly {\n        /* \"contracts/supplierManufacturer.sol\":293:2483  contract supplierManufacturer is ISupplierManufacturer{\r... */\n      mstore(0x40, 0x80)\n      callvalue\n      dup1\n      iszero\n      tag_1\n      jumpi\n      0x00\n      dup1\n      revert\n    tag_1:\n      pop\n      jumpi(tag_2, lt(calldatasize, 0x04))\n      shr(0xe0, calldataload(0x00))\n      dup1\n      0x29d78328\n      gt\n      tag_10\n      jumpi\n      dup1\n      0x29d78328\n      eq\n      tag_6\n      jumpi\n      dup1\n      0x70b775a0\n      eq\n      tag_7\n      jumpi\n      dup1\n      0xb9db15b4\n      eq\n      tag_8\n      jumpi\n      dup1\n      0xec02181a\n      eq\n      tag_9\n      jumpi\n      jump(tag_2)\n    tag_10:\n      dup1\n      0x029e2fe4\n      eq\n      tag_3\n      jumpi\n      dup1\n      0x055498bd\n      eq\n      tag_4\n      jumpi\n      dup1\n      0x1001f30f\n      eq\n      tag_5\n      jumpi\n    tag_2:\n      0x00\n      dup1\n      revert\n        /* \"contracts/supplierManufacturer.sol\":354:374  uint public smId = 1 */\n    tag_3:\n      tag_11\n      tag_12\n      jump\t// in\n    tag_11:\n      mload(0x40)\n      tag_13\n      swap2\n      swap1\n      tag_14\n      jump\t// in\n    tag_13:\n      mload(0x40)\n      dup1\n      swap2\n      sub\n      swap1\n      return\n        /* \"contracts/supplierManufacturer.sol\":1008:1464  function transferProduct(uint _spId, address _supplierAddress,address _manufacturerAddress,uint32 _dispatchTime)external override{\r... */\n    tag_4:\n      tag_15\n      0x04\n      dup1\n      calldatasize\n      sub\n      dup2\n      add\n      swap1\n      tag_16\n      swap2\n      swap1\n      tag_17\n      jump\t// in\n    tag_16:\n      tag_18\n      jump\t// in\n    tag_15:\n      stop\n        /* \"contracts/supplierManufacturer.sol\":864:923  mapping(address => uint[]) public manufacturerTosmIdMapping */\n    tag_5:\n      tag_19\n      0x04\n      dup1\n      calldatasize\n      sub\n      dup2\n      add\n      swap1\n      tag_20\n      swap2\n      swap1\n      tag_21\n      jump\t// in\n    tag_20:\n      tag_22\n      jump\t// in\n    tag_19:\n      mload(0x40)\n      tag_23\n      swap2\n      swap1\n      tag_14\n      jump\t// in\n    tag_23:\n      mload(0x40)\n      dup1\n      swap2\n      sub\n      swap1\n      return\n        /* \"contracts/supplierManufacturer.sol\":1544:1736  function receiveProduct(uint _smId)external override{\r... */\n    tag_6:\n      tag_24\n      0x04\n      dup1\n      calldatasize\n      sub\n      dup2\n      add\n      swap1\n      tag_25\n      swap2\n      swap1\n      tag_26\n      jump\t// in\n    tag_25:\n      tag_27\n      jump\t// in\n    tag_24:\n      stop\n        /* \"contracts/supplierManufacturer.sol\":2016:2480  function getAllSmIdForManufacturer(address _manufacturerAddress) public view returns(supplierManufacturer[] memory){\r... */\n    tag_7:\n      tag_28\n      0x04\n      dup1\n      calldatasize\n      sub\n      dup2\n      add\n      swap1\n      tag_29\n      swap2\n      swap1\n      tag_30\n      jump\t// in\n    tag_29:\n      tag_31\n      jump\t// in\n    tag_28:\n      mload(0x40)\n      tag_32\n      swap2\n      swap1\n      tag_33\n      jump\t// in\n    tag_32:\n      mload(0x40)\n      dup1\n      swap2\n      sub\n      swap1\n      return\n        /* \"contracts/supplierManufacturer.sol\":1803:1935  function getProduct(uint _smId) public view returns(supplierManufacturer memory){\r... */\n    tag_8:\n      tag_34\n      0x04\n      dup1\n      calldatasize\n      sub\n      dup2\n      add\n      swap1\n      tag_35\n      swap2\n      swap1\n      tag_26\n      jump\t// in\n    tag_35:\n      tag_36\n      jump\t// in\n    tag_34:\n      mload(0x40)\n      tag_37\n      swap2\n      swap1\n      tag_38\n      jump\t// in\n    tag_37:\n      mload(0x40)\n      dup1\n      swap2\n      sub\n      swap1\n      return\n        /* \"contracts/supplierManufacturer.sol\":731:795  mapping(uint => supplierManufacturer) public smIdToStructMapping */\n    tag_9:\n      tag_39\n      0x04\n      dup1\n      calldatasize\n      sub\n      dup2\n      add\n      swap1\n      tag_40\n      swap2\n      swap1\n      tag_26\n      jump\t// in\n    tag_40:\n      tag_41\n      jump\t// in\n    tag_39:\n      mload(0x40)\n      tag_42\n      swap6\n      swap5\n      swap4\n      swap3\n      swap2\n      swap1\n      tag_43\n      jump\t// in\n    tag_42:\n      mload(0x40)\n      dup1\n      swap2\n      sub\n      swap1\n      return\n        /* \"contracts/supplierManufacturer.sol\":354:374  uint public smId = 1 */\n    tag_12:\n      sload(0x00)\n      dup2\n      jump\t// out\n        /* \"contracts/supplierManufacturer.sol\":1008:1464  function transferProduct(uint _spId, address _supplierAddress,address _manufacturerAddress,uint32 _dispatchTime)external override{\r... */\n    tag_18:\n        /* \"contracts/supplierManufacturer.sol\":1176:1257  supplierManufacturer(_spId,_supplierAddress,_manufacturerAddress,_dispatchTime,0) */\n      mload(0x40)\n      dup1\n      0xa0\n      add\n      0x40\n      mstore\n      dup1\n        /* \"contracts/supplierManufacturer.sol\":1197:1202  _spId */\n      dup6\n        /* \"contracts/supplierManufacturer.sol\":1176:1257  supplierManufacturer(_spId,_supplierAddress,_manufacturerAddress,_dispatchTime,0) */\n      dup2\n      mstore\n      0x20\n      add\n        /* \"contracts/supplierManufacturer.sol\":1203:1219  _supplierAddress */\n      dup5\n        /* \"contracts/supplierManufacturer.sol\":1176:1257  supplierManufacturer(_spId,_supplierAddress,_manufacturerAddress,_dispatchTime,0) */\n      0xffffffffffffffffffffffffffffffffffffffff\n      and\n      dup2\n      mstore\n      0x20\n      add\n        /* \"contracts/supplierManufacturer.sol\":1220:1240  _manufacturerAddress */\n      dup4\n        /* \"contracts/supplierManufacturer.sol\":1176:1257  supplierManufacturer(_spId,_supplierAddress,_manufacturerAddress,_dispatchTime,0) */\n      0xffffffffffffffffffffffffffffffffffffffff\n      and\n      dup2\n      mstore\n      0x20\n      add\n        /* \"contracts/supplierManufacturer.sol\":1241:1254  _dispatchTime */\n      dup3\n        /* \"contracts/supplierManufacturer.sol\":1176:1257  supplierManufacturer(_spId,_supplierAddress,_manufacturerAddress,_dispatchTime,0) */\n      0xffffffff\n      and\n      dup2\n      mstore\n      0x20\n      add\n        /* \"contracts/supplierManufacturer.sol\":1255:1256  0 */\n      0x00\n        /* \"contracts/supplierManufacturer.sol\":1176:1257  supplierManufacturer(_spId,_supplierAddress,_manufacturerAddress,_dispatchTime,0) */\n      0xffffffff\n      and\n      dup2\n      mstore\n      pop\n        /* \"contracts/supplierManufacturer.sol\":1148:1167  smIdToStructMapping */\n      0x01\n        /* \"contracts/supplierManufacturer.sol\":1148:1173  smIdToStructMapping[smId] */\n      0x00\n        /* \"contracts/supplierManufacturer.sol\":1168:1172  smId */\n      dup1\n      sload\n        /* \"contracts/supplierManufacturer.sol\":1148:1173  smIdToStructMapping[smId] */\n      dup2\n      mstore\n      0x20\n      add\n      swap1\n      dup2\n      mstore\n      0x20\n      add\n      0x00\n      keccak256\n        /* \"contracts/supplierManufacturer.sol\":1148:1257  smIdToStructMapping[smId] = supplierManufacturer(_spId,_supplierAddress,_manufacturerAddress,_dispatchTime,0) */\n      0x00\n      dup3\n      add\n      mload\n      dup2\n      0x00\n      add\n      sstore\n      0x20\n      dup3\n      add\n      mload\n      dup2\n      0x01\n      add\n      exp(0x0100, 0x00)\n      dup2\n      sload\n      dup2\n      0xffffffffffffffffffffffffffffffffffffffff\n      mul\n      not\n      and\n      swap1\n      dup4\n      0xffffffffffffffffffffffffffffffffffffffff\n      and\n      mul\n      or\n      swap1\n      sstore\n      pop\n      0x40\n      dup3\n      add\n      mload\n      dup2\n      0x02\n      add\n      exp(0x0100, 0x00)\n      dup2\n      sload\n      dup2\n      0xffffffffffffffffffffffffffffffffffffffff\n      mul\n      not\n      and\n      swap1\n      dup4\n      0xffffffffffffffffffffffffffffffffffffffff\n      and\n      mul\n      or\n      swap1\n      sstore\n      pop\n      0x60\n      dup3\n      add\n      mload\n      dup2\n      0x02\n      add\n      exp(0x0100, 0x14)\n      dup2\n      sload\n      dup2\n      0xffffffff\n      mul\n      not\n      and\n      swap1\n      dup4\n      0xffffffff\n      and\n      mul\n      or\n      swap1\n      sstore\n      pop\n      0x80\n      dup3\n      add\n      mload\n      dup2\n      0x02\n      add\n      exp(0x0100, 0x18)\n      dup2\n      sload\n      dup2\n      0xffffffff\n      mul\n      not\n      and\n      swap1\n      dup4\n      0xffffffff\n      and\n      mul\n      or\n      swap1\n      sstore\n      pop\n      swap1\n      pop\n      pop\n        /* \"contracts/supplierManufacturer.sol\":1268:1293  manufacturerTosmIdMapping */\n      0x02\n        /* \"contracts/supplierManufacturer.sol\":1268:1315  manufacturerTosmIdMapping[_manufacturerAddress] */\n      0x00\n        /* \"contracts/supplierManufacturer.sol\":1294:1314  _manufacturerAddress */\n      dup4\n        /* \"contracts/supplierManufacturer.sol\":1268:1315  manufacturerTosmIdMapping[_manufacturerAddress] */\n      0xffffffffffffffffffffffffffffffffffffffff\n      and\n      0xffffffffffffffffffffffffffffffffffffffff\n      and\n      dup2\n      mstore\n      0x20\n      add\n      swap1\n      dup2\n      mstore\n      0x20\n      add\n      0x00\n      keccak256\n        /* \"contracts/supplierManufacturer.sol\":1321:1325  smId */\n      sload(0x00)\n        /* \"contracts/supplierManufacturer.sol\":1268:1326  manufacturerTosmIdMapping[_manufacturerAddress].push(smId) */\n      swap1\n      dup1\n      0x01\n      dup2\n      sload\n      add\n      dup1\n      dup3\n      sstore\n      dup1\n      swap2\n      pop\n      pop\n      0x01\n      swap1\n      sub\n      swap1\n      0x00\n      mstore\n      keccak256(0x00, 0x20)\n      add\n      0x00\n      swap1\n      swap2\n      swap1\n      swap2\n      swap1\n      swap2\n      pop\n      sstore\n        /* \"contracts/supplierManufacturer.sol\":1381:1386  _spId */\n      dup4\n        /* \"contracts/supplierManufacturer.sol\":1376:1380  smId */\n      sload(0x00)\n        /* \"contracts/supplierManufacturer.sol\":1342:1439  eventSupplierManufacturerTransfer(smId,_spId,_supplierAddress,_manufacturerAddress,_dispatchTime) */\n      0x6abc5964a9f8c02bee56a206f75c7526ea67f5abd5cbbe939c60d4a489607e49\n        /* \"contracts/supplierManufacturer.sol\":1387:1403  _supplierAddress */\n      dup6\n        /* \"contracts/supplierManufacturer.sol\":1404:1424  _manufacturerAddress */\n      dup6\n        /* \"contracts/supplierManufacturer.sol\":1425:1438  _dispatchTime */\n      dup6\n        /* \"contracts/supplierManufacturer.sol\":1342:1439  eventSupplierManufacturerTransfer(smId,_spId,_supplierAddress,_manufacturerAddress,_dispatchTime) */\n      mload(0x40)\n      tag_46\n      swap4\n      swap3\n      swap2\n      swap1\n      tag_47\n      jump\t// in\n    tag_46:\n      mload(0x40)\n      dup1\n      swap2\n      sub\n      swap1\n      log3\n        /* \"contracts/supplierManufacturer.sol\":1450:1454  smId */\n      0x00\n      dup1\n        /* \"contracts/supplierManufacturer.sol\":1450:1456  smId++ */\n      dup2\n      sload\n      dup1\n      swap3\n      swap2\n      swap1\n      tag_48\n      swap1\n      tag_49\n      jump\t// in\n    tag_48:\n      swap2\n      swap1\n      pop\n      sstore\n      pop\n        /* \"contracts/supplierManufacturer.sol\":1008:1464  function transferProduct(uint _spId, address _supplierAddress,address _manufacturerAddress,uint32 _dispatchTime)external override{\r... */\n      pop\n      pop\n      pop\n      pop\n      jump\t// out\n        /* \"contracts/supplierManufacturer.sol\":864:923  mapping(address => uint[]) public manufacturerTosmIdMapping */\n    tag_22:\n      mstore(0x20, 0x02)\n      dup2\n      0x00\n      mstore\n      keccak256(0x00, 0x40)\n      dup2\n      dup2\n      sload\n      dup2\n      lt\n      tag_50\n      jumpi\n      0x00\n      dup1\n      revert\n    tag_50:\n      swap1\n      0x00\n      mstore\n      keccak256(0x00, 0x20)\n      add\n      0x00\n      swap2\n      pop\n      swap2\n      pop\n      pop\n      sload\n      dup2\n      jump\t// out\n        /* \"contracts/supplierManufacturer.sol\":1544:1736  function receiveProduct(uint _smId)external override{\r... */\n    tag_27:\n        /* \"contracts/supplierManufacturer.sol\":1655:1670  block.timestamp */\n      timestamp\n        /* \"contracts/supplierManufacturer.sol\":1607:1626  smIdToStructMapping */\n      0x01\n        /* \"contracts/supplierManufacturer.sol\":1607:1633  smIdToStructMapping[_smId] */\n      0x00\n        /* \"contracts/supplierManufacturer.sol\":1627:1632  _smId */\n      dup4\n        /* \"contracts/supplierManufacturer.sol\":1607:1633  smIdToStructMapping[_smId] */\n      dup2\n      mstore\n      0x20\n      add\n      swap1\n      dup2\n      mstore\n      0x20\n      add\n      0x00\n      keccak256\n        /* \"contracts/supplierManufacturer.sol\":1607:1645  smIdToStructMapping[_smId].arrivalTime */\n      0x02\n      add\n      0x18\n        /* \"contracts/supplierManufacturer.sol\":1607:1671  smIdToStructMapping[_smId].arrivalTime = uint32(block.timestamp) */\n      0x0100\n      exp\n      dup2\n      sload\n      dup2\n      0xffffffff\n      mul\n      not\n      and\n      swap1\n      dup4\n      0xffffffff\n      and\n      mul\n      or\n      swap1\n      sstore\n      pop\n        /* \"contracts/supplierManufacturer.sol\":1687:1728  eventArrivalTime(uint32(block.timestamp)) */\n      0x64e64e323422dcfed18a892f84596ccf7cc94b1952625f3cc82e6461b529fff1\n        /* \"contracts/supplierManufacturer.sol\":1711:1726  block.timestamp */\n      timestamp\n        /* \"contracts/supplierManufacturer.sol\":1687:1728  eventArrivalTime(uint32(block.timestamp)) */\n      mload(0x40)\n      tag_53\n      swap2\n      swap1\n      tag_54\n      jump\t// in\n    tag_53:\n      mload(0x40)\n      dup1\n      swap2\n      sub\n      swap1\n      log1\n        /* \"contracts/supplierManufacturer.sol\":1544:1736  function receiveProduct(uint _smId)external override{\r... */\n      pop\n      jump\t// out\n        /* \"contracts/supplierManufacturer.sol\":2016:2480  function getAllSmIdForManufacturer(address _manufacturerAddress) public view returns(supplierManufacturer[] memory){\r... */\n    tag_31:\n        /* \"contracts/supplierManufacturer.sol\":2101:2130  supplierManufacturer[] memory */\n      0x60\n        /* \"contracts/supplierManufacturer.sol\":2142:2164  uint[] memory smIdData */\n      0x00\n        /* \"contracts/supplierManufacturer.sol\":2167:2192  manufacturerTosmIdMapping */\n      0x02\n        /* \"contracts/supplierManufacturer.sol\":2167:2214  manufacturerTosmIdMapping[_manufacturerAddress] */\n      0x00\n        /* \"contracts/supplierManufacturer.sol\":2193:2213  _manufacturerAddress */\n      dup5\n        /* \"contracts/supplierManufacturer.sol\":2167:2214  manufacturerTosmIdMapping[_manufacturerAddress] */\n      0xffffffffffffffffffffffffffffffffffffffff\n      and\n      0xffffffffffffffffffffffffffffffffffffffff\n      and\n      dup2\n      mstore\n      0x20\n      add\n      swap1\n      dup2\n      mstore\n      0x20\n      add\n      0x00\n      keccak256\n        /* \"contracts/supplierManufacturer.sol\":2142:2214  uint[] memory smIdData = manufacturerTosmIdMapping[_manufacturerAddress] */\n      dup1\n      sload\n      dup1\n      0x20\n      mul\n      0x20\n      add\n      mload(0x40)\n      swap1\n      dup2\n      add\n      0x40\n      mstore\n      dup1\n      swap3\n      swap2\n      swap1\n      dup2\n      dup2\n      mstore\n      0x20\n      add\n      dup3\n      dup1\n      sload\n      dup1\n      iszero\n      tag_56\n      jumpi\n      0x20\n      mul\n      dup3\n      add\n      swap2\n      swap1\n      0x00\n      mstore\n      keccak256(0x00, 0x20)\n      swap1\n    tag_57:\n      dup2\n      sload\n      dup2\n      mstore\n      0x20\n      add\n      swap1\n      0x01\n      add\n      swap1\n      dup1\n      dup4\n      gt\n      tag_57\n      jumpi\n    tag_56:\n      pop\n      pop\n      pop\n      pop\n      pop\n      swap1\n      pop\n        /* \"contracts/supplierManufacturer.sol\":2225:2266  supplierManufacturer[] memory smIdDetails */\n      0x00\n        /* \"contracts/supplierManufacturer.sol\":2296:2304  smIdData */\n      dup2\n        /* \"contracts/supplierManufacturer.sol\":2296:2311  smIdData.length */\n      mload\n        /* \"contracts/supplierManufacturer.sol\":2269:2312  new supplierManufacturer[](smIdData.length) */\n      0xffffffffffffffff\n      dup2\n      gt\n      iszero\n      tag_58\n      jumpi\n      tag_59\n      tag_60\n      jump\t// in\n    tag_59:\n    tag_58:\n      mload(0x40)\n      swap1\n      dup1\n      dup3\n      mstore\n      dup1\n      0x20\n      mul\n      0x20\n      add\n      dup3\n      add\n      0x40\n      mstore\n      dup1\n      iszero\n      tag_61\n      jumpi\n      dup2\n      0x20\n      add\n    tag_62:\n      tag_63\n      tag_64\n      jump\t// in\n    tag_63:\n      dup2\n      mstore\n      0x20\n      add\n      swap1\n      0x01\n      swap1\n      sub\n      swap1\n      dup2\n      tag_62\n      jumpi\n      swap1\n      pop\n    tag_61:\n      pop\n        /* \"contracts/supplierManufacturer.sol\":2225:2312  supplierManufacturer[] memory smIdDetails = new supplierManufacturer[](smIdData.length) */\n      swap1\n      pop\n        /* \"contracts/supplierManufacturer.sol\":2327:2333  uint i */\n      0x00\n        /* \"contracts/supplierManufacturer.sol\":2323:2444  for(uint i=0;i<smIdData.length;i++)\r... */\n    tag_65:\n        /* \"contracts/supplierManufacturer.sol\":2338:2346  smIdData */\n      dup3\n        /* \"contracts/supplierManufacturer.sol\":2338:2353  smIdData.length */\n      mload\n        /* \"contracts/supplierManufacturer.sol\":2336:2337  i */\n      dup2\n        /* \"contracts/supplierManufacturer.sol\":2336:2353  i<smIdData.length */\n      lt\n        /* \"contracts/supplierManufacturer.sol\":2323:2444  for(uint i=0;i<smIdData.length;i++)\r... */\n      iszero\n      tag_66\n      jumpi\n        /* \"contracts/supplierManufacturer.sol\":2400:2419  smIdToStructMapping */\n      0x01\n        /* \"contracts/supplierManufacturer.sol\":2400:2432  smIdToStructMapping[smIdData[i]] */\n      0x00\n        /* \"contracts/supplierManufacturer.sol\":2420:2428  smIdData */\n      dup5\n        /* \"contracts/supplierManufacturer.sol\":2429:2430  i */\n      dup4\n        /* \"contracts/supplierManufacturer.sol\":2420:2431  smIdData[i] */\n      dup2\n      mload\n      dup2\n      lt\n      tag_68\n      jumpi\n      tag_69\n      tag_70\n      jump\t// in\n    tag_69:\n    tag_68:\n      0x20\n      mul\n      0x20\n      add\n      add\n      mload\n        /* \"contracts/supplierManufacturer.sol\":2400:2432  smIdToStructMapping[smIdData[i]] */\n      dup2\n      mstore\n      0x20\n      add\n      swap1\n      dup2\n      mstore\n      0x20\n      add\n      0x00\n      keccak256\n        /* \"contracts/supplierManufacturer.sol\":2383:2432  smIdDetails[i] = smIdToStructMapping[smIdData[i]] */\n      mload(0x40)\n      dup1\n      0xa0\n      add\n      0x40\n      mstore\n      swap1\n      dup2\n      0x00\n      dup3\n      add\n      sload\n      dup2\n      mstore\n      0x20\n      add\n      0x01\n      dup3\n      add\n      0x00\n      swap1\n      sload\n      swap1\n      0x0100\n      exp\n      swap1\n      div\n      0xffffffffffffffffffffffffffffffffffffffff\n      and\n      0xffffffffffffffffffffffffffffffffffffffff\n      and\n      0xffffffffffffffffffffffffffffffffffffffff\n      and\n      dup2\n      mstore\n      0x20\n      add\n      0x02\n      dup3\n      add\n      0x00\n      swap1\n      sload\n      swap1\n      0x0100\n      exp\n      swap1\n      div\n      0xffffffffffffffffffffffffffffffffffffffff\n      and\n      0xffffffffffffffffffffffffffffffffffffffff\n      and\n      0xffffffffffffffffffffffffffffffffffffffff\n      and\n      dup2\n      mstore\n      0x20\n      add\n      0x02\n      dup3\n      add\n      0x14\n      swap1\n      sload\n      swap1\n      0x0100\n      exp\n      swap1\n      div\n      0xffffffff\n      and\n      0xffffffff\n      and\n      0xffffffff\n      and\n      dup2\n      mstore\n      0x20\n      add\n      0x02\n      dup3\n      add\n      0x18\n      swap1\n      sload\n      swap1\n      0x0100\n      exp\n      swap1\n      div\n      0xffffffff\n      and\n      0xffffffff\n      and\n      0xffffffff\n      and\n      dup2\n      mstore\n      pop\n      pop\n        /* \"contracts/supplierManufacturer.sol\":2383:2394  smIdDetails */\n      dup3\n        /* \"contracts/supplierManufacturer.sol\":2395:2396  i */\n      dup3\n        /* \"contracts/supplierManufacturer.sol\":2383:2397  smIdDetails[i] */\n      dup2\n      mload\n      dup2\n      lt\n      tag_71\n      jumpi\n      tag_72\n      tag_70\n      jump\t// in\n    tag_72:\n    tag_71:\n      0x20\n      mul\n      0x20\n      add\n      add\n        /* \"contracts/supplierManufacturer.sol\":2383:2432  smIdDetails[i] = smIdToStructMapping[smIdData[i]] */\n      dup2\n      swap1\n      mstore\n      pop\n        /* \"contracts/supplierManufacturer.sol\":2354:2357  i++ */\n      dup1\n      dup1\n      tag_73\n      swap1\n      tag_49\n      jump\t// in\n    tag_73:\n      swap2\n      pop\n      pop\n        /* \"contracts/supplierManufacturer.sol\":2323:2444  for(uint i=0;i<smIdData.length;i++)\r... */\n      jump(tag_65)\n    tag_66:\n      pop\n        /* \"contracts/supplierManufacturer.sol\":2461:2472  smIdDetails */\n      dup1\n        /* \"contracts/supplierManufacturer.sol\":2454:2472  return smIdDetails */\n      swap3\n      pop\n      pop\n      pop\n        /* \"contracts/supplierManufacturer.sol\":2016:2480  function getAllSmIdForManufacturer(address _manufacturerAddress) public view returns(supplierManufacturer[] memory){\r... */\n      swap2\n      swap1\n      pop\n      jump\t// out\n        /* \"contracts/supplierManufacturer.sol\":1803:1935  function getProduct(uint _smId) public view returns(supplierManufacturer memory){\r... */\n    tag_36:\n        /* \"contracts/supplierManufacturer.sol\":1855:1882  supplierManufacturer memory */\n      tag_74\n      tag_64\n      jump\t// in\n    tag_74:\n        /* \"contracts/supplierManufacturer.sol\":1901:1920  smIdToStructMapping */\n      0x01\n        /* \"contracts/supplierManufacturer.sol\":1901:1927  smIdToStructMapping[_smId] */\n      0x00\n        /* \"contracts/supplierManufacturer.sol\":1921:1926  _smId */\n      dup4\n        /* \"contracts/supplierManufacturer.sol\":1901:1927  smIdToStructMapping[_smId] */\n      dup2\n      mstore\n      0x20\n      add\n      swap1\n      dup2\n      mstore\n      0x20\n      add\n      0x00\n      keccak256\n        /* \"contracts/supplierManufacturer.sol\":1894:1927  return smIdToStructMapping[_smId] */\n      mload(0x40)\n      dup1\n      0xa0\n      add\n      0x40\n      mstore\n      swap1\n      dup2\n      0x00\n      dup3\n      add\n      sload\n      dup2\n      mstore\n      0x20\n      add\n      0x01\n      dup3\n      add\n      0x00\n      swap1\n      sload\n      swap1\n      0x0100\n      exp\n      swap1\n      div\n      0xffffffffffffffffffffffffffffffffffffffff\n      and\n      0xffffffffffffffffffffffffffffffffffffffff\n      and\n      0xffffffffffffffffffffffffffffffffffffffff\n      and\n      dup2\n      mstore\n      0x20\n      add\n      0x02\n      dup3\n      add\n      0x00\n      swap1\n      sload\n      swap1\n      0x0100\n      exp\n      swap1\n      div\n      0xffffffffffffffffffffffffffffffffffffffff\n      and\n      0xffffffffffffffffffffffffffffffffffffffff\n      and\n      0xffffffffffffffffffffffffffffffffffffffff\n      and\n      dup2\n      mstore\n      0x20\n      add\n      0x02\n      dup3\n      add\n      0x14\n      swap1\n      sload\n      swap1\n      0x0100\n      exp\n      swap1\n      div\n      0xffffffff\n      and\n      0xffffffff\n      and\n      0xffffffff\n      and\n      dup2\n      mstore\n      0x20\n      add\n      0x02\n      dup3\n      add\n      0x18\n      swap1\n      sload\n      swap1\n      0x0100\n      exp\n      swap1\n      div\n      0xffffffff\n      and\n      0xffffffff\n      and\n      0xffffffff\n      and\n      dup2\n      mstore\n      pop\n      pop\n      swap1\n      pop\n        /* \"contracts/supplierManufacturer.sol\":1803:1935  function getProduct(uint _smId) public view returns(supplierManufacturer memory){\r... */\n      swap2\n      swap1\n      pop\n      jump\t// out\n        /* \"contracts/supplierManufacturer.sol\":731:795  mapping(uint => supplierManufacturer) public smIdToStructMapping */\n    tag_41:\n      mstore(0x20, 0x01)\n      dup1\n      0x00\n      mstore\n      keccak256(0x00, 0x40)\n      0x00\n      swap2\n      pop\n      swap1\n      pop\n      dup1\n      0x00\n      add\n      sload\n      swap1\n      dup1\n      0x01\n      add\n      0x00\n      swap1\n      sload\n      swap1\n      0x0100\n      exp\n      swap1\n      div\n      0xffffffffffffffffffffffffffffffffffffffff\n      and\n      swap1\n      dup1\n      0x02\n      add\n      0x00\n      swap1\n      sload\n      swap1\n      0x0100\n      exp\n      swap1\n      div\n      0xffffffffffffffffffffffffffffffffffffffff\n      and\n      swap1\n      dup1\n      0x02\n      add\n      0x14\n      swap1\n      sload\n      swap1\n      0x0100\n      exp\n      swap1\n      div\n      0xffffffff\n      and\n      swap1\n      dup1\n      0x02\n      add\n      0x18\n      swap1\n      sload\n      swap1\n      0x0100\n      exp\n      swap1\n      div\n      0xffffffff\n      and\n      swap1\n      pop\n      dup6\n      jump\t// out\n    tag_64:\n      mload(0x40)\n      dup1\n      0xa0\n      add\n      0x40\n      mstore\n      dup1\n      0x00\n      dup2\n      mstore\n      0x20\n      add\n      and(0xffffffffffffffffffffffffffffffffffffffff, 0x00)\n      dup2\n      mstore\n      0x20\n      add\n      and(0xffffffffffffffffffffffffffffffffffffffff, 0x00)\n      dup2\n      mstore\n      0x20\n      add\n      and(0xffffffff, 0x00)\n      dup2\n      mstore\n      0x20\n      add\n      and(0xffffffff, 0x00)\n      dup2\n      mstore\n      pop\n      swap1\n      jump\t// out\n        /* \"#utility.yul\":7:146   */\n    tag_77:\n        /* \"#utility.yul\":53:58   */\n      0x00\n        /* \"#utility.yul\":91:97   */\n      dup2\n        /* \"#utility.yul\":78:98   */\n      calldataload\n        /* \"#utility.yul\":69:98   */\n      swap1\n      pop\n        /* \"#utility.yul\":107:140   */\n      tag_79\n        /* \"#utility.yul\":134:139   */\n      dup2\n        /* \"#utility.yul\":107:140   */\n      tag_80\n      jump\t// in\n    tag_79:\n        /* \"#utility.yul\":7:146   */\n      swap3\n      swap2\n      pop\n      pop\n      jump\t// out\n        /* \"#utility.yul\":152:291   */\n    tag_81:\n        /* \"#utility.yul\":198:203   */\n      0x00\n        /* \"#utility.yul\":236:242   */\n      dup2\n        /* \"#utility.yul\":223:243   */\n      calldataload\n        /* \"#utility.yul\":214:243   */\n      swap1\n      pop\n        /* \"#utility.yul\":252:285   */\n      tag_83\n        /* \"#utility.yul\":279:284   */\n      dup2\n        /* \"#utility.yul\":252:285   */\n      tag_84\n      jump\t// in\n    tag_83:\n        /* \"#utility.yul\":152:291   */\n      swap3\n      swap2\n      pop\n      pop\n      jump\t// out\n        /* \"#utility.yul\":297:434   */\n    tag_85:\n        /* \"#utility.yul\":342:347   */\n      0x00\n        /* \"#utility.yul\":380:386   */\n      dup2\n        /* \"#utility.yul\":367:387   */\n      calldataload\n        /* \"#utility.yul\":358:387   */\n      swap1\n      pop\n        /* \"#utility.yul\":396:428   */\n      tag_87\n        /* \"#utility.yul\":422:427   */\n      dup2\n        /* \"#utility.yul\":396:428   */\n      tag_88\n      jump\t// in\n    tag_87:\n        /* \"#utility.yul\":297:434   */\n      swap3\n      swap2\n      pop\n      pop\n      jump\t// out\n        /* \"#utility.yul\":440:769   */\n    tag_30:\n        /* \"#utility.yul\":499:505   */\n      0x00\n        /* \"#utility.yul\":548:550   */\n      0x20\n        /* \"#utility.yul\":536:545   */\n      dup3\n        /* \"#utility.yul\":527:534   */\n      dup5\n        /* \"#utility.yul\":523:546   */\n      sub\n        /* \"#utility.yul\":519:551   */\n      slt\n        /* \"#utility.yul\":516:635   */\n      iszero\n      tag_90\n      jumpi\n        /* \"#utility.yul\":554:633   */\n      tag_91\n      tag_92\n      jump\t// in\n    tag_91:\n        /* \"#utility.yul\":516:635   */\n    tag_90:\n        /* \"#utility.yul\":674:675   */\n      0x00\n        /* \"#utility.yul\":699:752   */\n      tag_93\n        /* \"#utility.yul\":744:751   */\n      dup5\n        /* \"#utility.yul\":735:741   */\n      dup3\n        /* \"#utility.yul\":724:733   */\n      dup6\n        /* \"#utility.yul\":720:742   */\n      add\n        /* \"#utility.yul\":699:752   */\n      tag_77\n      jump\t// in\n    tag_93:\n        /* \"#utility.yul\":689:752   */\n      swap2\n      pop\n        /* \"#utility.yul\":645:762   */\n      pop\n        /* \"#utility.yul\":440:769   */\n      swap3\n      swap2\n      pop\n      pop\n      jump\t// out\n        /* \"#utility.yul\":775:1249   */\n    tag_21:\n        /* \"#utility.yul\":843:849   */\n      0x00\n        /* \"#utility.yul\":851:857   */\n      dup1\n        /* \"#utility.yul\":900:902   */\n      0x40\n        /* \"#utility.yul\":888:897   */\n      dup4\n        /* \"#utility.yul\":879:886   */\n      dup6\n        /* \"#utility.yul\":875:898   */\n      sub\n        /* \"#utility.yul\":871:903   */\n      slt\n        /* \"#utility.yul\":868:987   */\n      iszero\n      tag_95\n      jumpi\n        /* \"#utility.yul\":906:985   */\n      tag_96\n      tag_92\n      jump\t// in\n    tag_96:\n        /* \"#utility.yul\":868:987   */\n    tag_95:\n        /* \"#utility.yul\":1026:1027   */\n      0x00\n        /* \"#utility.yul\":1051:1104   */\n      tag_97\n        /* \"#utility.yul\":1096:1103   */\n      dup6\n        /* \"#utility.yul\":1087:1093   */\n      dup3\n        /* \"#utility.yul\":1076:1085   */\n      dup7\n        /* \"#utility.yul\":1072:1094   */\n      add\n        /* \"#utility.yul\":1051:1104   */\n      tag_77\n      jump\t// in\n    tag_97:\n        /* \"#utility.yul\":1041:1104   */\n      swap3\n      pop\n        /* \"#utility.yul\":997:1114   */\n      pop\n        /* \"#utility.yul\":1153:1155   */\n      0x20\n        /* \"#utility.yul\":1179:1232   */\n      tag_98\n        /* \"#utility.yul\":1224:1231   */\n      dup6\n        /* \"#utility.yul\":1215:1221   */\n      dup3\n        /* \"#utility.yul\":1204:1213   */\n      dup7\n        /* \"#utility.yul\":1200:1222   */\n      add\n        /* \"#utility.yul\":1179:1232   */\n      tag_81\n      jump\t// in\n    tag_98:\n        /* \"#utility.yul\":1169:1232   */\n      swap2\n      pop\n        /* \"#utility.yul\":1124:1242   */\n      pop\n        /* \"#utility.yul\":775:1249   */\n      swap3\n      pop\n      swap3\n      swap1\n      pop\n      jump\t// out\n        /* \"#utility.yul\":1255:1584   */\n    tag_26:\n        /* \"#utility.yul\":1314:1320   */\n      0x00\n        /* \"#utility.yul\":1363:1365   */\n      0x20\n        /* \"#utility.yul\":1351:1360   */\n      dup3\n        /* \"#utility.yul\":1342:1349   */\n      dup5\n        /* \"#utility.yul\":1338:1361   */\n      sub\n        /* \"#utility.yul\":1334:1366   */\n      slt\n        /* \"#utility.yul\":1331:1450   */\n      iszero\n      tag_100\n      jumpi\n        /* \"#utility.yul\":1369:1448   */\n      tag_101\n      tag_92\n      jump\t// in\n    tag_101:\n        /* \"#utility.yul\":1331:1450   */\n    tag_100:\n        /* \"#utility.yul\":1489:1490   */\n      0x00\n        /* \"#utility.yul\":1514:1567   */\n      tag_102\n        /* \"#utility.yul\":1559:1566   */\n      dup5\n        /* \"#utility.yul\":1550:1556   */\n      dup3\n        /* \"#utility.yul\":1539:1548   */\n      dup6\n        /* \"#utility.yul\":1535:1557   */\n      add\n        /* \"#utility.yul\":1514:1567   */\n      tag_81\n      jump\t// in\n    tag_102:\n        /* \"#utility.yul\":1504:1567   */\n      swap2\n      pop\n        /* \"#utility.yul\":1460:1577   */\n      pop\n        /* \"#utility.yul\":1255:1584   */\n      swap3\n      swap2\n      pop\n      pop\n      jump\t// out\n        /* \"#utility.yul\":1590:2353   */\n    tag_17:\n        /* \"#utility.yul\":1675:1681   */\n      0x00\n        /* \"#utility.yul\":1683:1689   */\n      dup1\n        /* \"#utility.yul\":1691:1697   */\n      0x00\n        /* \"#utility.yul\":1699:1705   */\n      dup1\n        /* \"#utility.yul\":1748:1751   */\n      0x80\n        /* \"#utility.yul\":1736:1745   */\n      dup6\n        /* \"#utility.yul\":1727:1734   */\n      dup8\n        /* \"#utility.yul\":1723:1746   */\n      sub\n        /* \"#utility.yul\":1719:1752   */\n      slt\n        /* \"#utility.yul\":1716:1836   */\n      iszero\n      tag_104\n      jumpi\n        /* \"#utility.yul\":1755:1834   */\n      tag_105\n      tag_92\n      jump\t// in\n    tag_105:\n        /* \"#utility.yul\":1716:1836   */\n    tag_104:\n        /* \"#utility.yul\":1875:1876   */\n      0x00\n        /* \"#utility.yul\":1900:1953   */\n      tag_106\n        /* \"#utility.yul\":1945:1952   */\n      dup8\n        /* \"#utility.yul\":1936:1942   */\n      dup3\n        /* \"#utility.yul\":1925:1934   */\n      dup9\n        /* \"#utility.yul\":1921:1943   */\n      add\n        /* \"#utility.yul\":1900:1953   */\n      tag_81\n      jump\t// in\n    tag_106:\n        /* \"#utility.yul\":1890:1953   */\n      swap5\n      pop\n        /* \"#utility.yul\":1846:1963   */\n      pop\n        /* \"#utility.yul\":2002:2004   */\n      0x20\n        /* \"#utility.yul\":2028:2081   */\n      tag_107\n        /* \"#utility.yul\":2073:2080   */\n      dup8\n        /* \"#utility.yul\":2064:2070   */\n      dup3\n        /* \"#utility.yul\":2053:2062   */\n      dup9\n        /* \"#utility.yul\":2049:2071   */\n      add\n        /* \"#utility.yul\":2028:2081   */\n      tag_77\n      jump\t// in\n    tag_107:\n        /* \"#utility.yul\":2018:2081   */\n      swap4\n      pop\n        /* \"#utility.yul\":1973:2091   */\n      pop\n        /* \"#utility.yul\":2130:2132   */\n      0x40\n        /* \"#utility.yul\":2156:2209   */\n      tag_108\n        /* \"#utility.yul\":2201:2208   */\n      dup8\n        /* \"#utility.yul\":2192:2198   */\n      dup3\n        /* \"#utility.yul\":2181:2190   */\n      dup9\n        /* \"#utility.yul\":2177:2199   */\n      add\n        /* \"#utility.yul\":2156:2209   */\n      tag_77\n      jump\t// in\n    tag_108:\n        /* \"#utility.yul\":2146:2209   */\n      swap3\n      pop\n        /* \"#utility.yul\":2101:2219   */\n      pop\n        /* \"#utility.yul\":2258:2260   */\n      0x60\n        /* \"#utility.yul\":2284:2336   */\n      tag_109\n        /* \"#utility.yul\":2328:2335   */\n      dup8\n        /* \"#utility.yul\":2319:2325   */\n      dup3\n        /* \"#utility.yul\":2308:2317   */\n      dup9\n        /* \"#utility.yul\":2304:2326   */\n      add\n        /* \"#utility.yul\":2284:2336   */\n      tag_85\n      jump\t// in\n    tag_109:\n        /* \"#utility.yul\":2274:2336   */\n      swap2\n      pop\n        /* \"#utility.yul\":2229:2346   */\n      pop\n        /* \"#utility.yul\":1590:2353   */\n      swap3\n      swap6\n      swap2\n      swap5\n      pop\n      swap3\n      pop\n      jump\t// out\n        /* \"#utility.yul\":2359:2682   */\n    tag_110:\n        /* \"#utility.yul\":2500:2510   */\n      0x00\n        /* \"#utility.yul\":2521:2639   */\n      tag_112\n        /* \"#utility.yul\":2635:2638   */\n      dup4\n        /* \"#utility.yul\":2627:2633   */\n      dup4\n        /* \"#utility.yul\":2521:2639   */\n      tag_113\n      jump\t// in\n    tag_112:\n        /* \"#utility.yul\":2671:2675   */\n      0xa0\n        /* \"#utility.yul\":2666:2669   */\n      dup4\n        /* \"#utility.yul\":2662:2676   */\n      add\n        /* \"#utility.yul\":2648:2676   */\n      swap1\n      pop\n        /* \"#utility.yul\":2359:2682   */\n      swap3\n      swap2\n      pop\n      pop\n      jump\t// out\n        /* \"#utility.yul\":2688:2796   */\n    tag_114:\n        /* \"#utility.yul\":2765:2789   */\n      tag_116\n        /* \"#utility.yul\":2783:2788   */\n      dup2\n        /* \"#utility.yul\":2765:2789   */\n      tag_117\n      jump\t// in\n    tag_116:\n        /* \"#utility.yul\":2760:2763   */\n      dup3\n        /* \"#utility.yul\":2753:2790   */\n      mstore\n        /* \"#utility.yul\":2688:2796   */\n      pop\n      pop\n      jump\t// out\n        /* \"#utility.yul\":2802:2920   */\n    tag_118:\n        /* \"#utility.yul\":2889:2913   */\n      tag_120\n        /* \"#utility.yul\":2907:2912   */\n      dup2\n        /* \"#utility.yul\":2889:2913   */\n      tag_117\n      jump\t// in\n    tag_120:\n        /* \"#utility.yul\":2884:2887   */\n      dup3\n        /* \"#utility.yul\":2877:2914   */\n      mstore\n        /* \"#utility.yul\":2802:2920   */\n      pop\n      pop\n      jump\t// out\n        /* \"#utility.yul\":3040:4060   */\n    tag_121:\n        /* \"#utility.yul\":3231:3234   */\n      0x00\n        /* \"#utility.yul\":3260:3350   */\n      tag_123\n        /* \"#utility.yul\":3344:3349   */\n      dup3\n        /* \"#utility.yul\":3260:3350   */\n      tag_124\n      jump\t// in\n    tag_123:\n        /* \"#utility.yul\":3366:3488   */\n      tag_125\n        /* \"#utility.yul\":3481:3487   */\n      dup2\n        /* \"#utility.yul\":3476:3479   */\n      dup6\n        /* \"#utility.yul\":3366:3488   */\n      tag_126\n      jump\t// in\n    tag_125:\n        /* \"#utility.yul\":3359:3488   */\n      swap4\n      pop\n        /* \"#utility.yul\":3512:3604   */\n      tag_127\n        /* \"#utility.yul\":3598:3603   */\n      dup4\n        /* \"#utility.yul\":3512:3604   */\n      tag_128\n      jump\t// in\n    tag_127:\n        /* \"#utility.yul\":3627:3634   */\n      dup1\n        /* \"#utility.yul\":3658:3659   */\n      0x00\n        /* \"#utility.yul\":3643:4035   */\n    tag_129:\n        /* \"#utility.yul\":3668:3674   */\n      dup4\n        /* \"#utility.yul\":3665:3666   */\n      dup2\n        /* \"#utility.yul\":3662:3675   */\n      lt\n        /* \"#utility.yul\":3643:4035   */\n      iszero\n      tag_131\n      jumpi\n        /* \"#utility.yul\":3744:3750   */\n      dup2\n        /* \"#utility.yul\":3738:3751   */\n      mload\n        /* \"#utility.yul\":3771:3906   */\n      tag_132\n        /* \"#utility.yul\":3902:3905   */\n      dup9\n        /* \"#utility.yul\":3887:3900   */\n      dup3\n        /* \"#utility.yul\":3771:3906   */\n      tag_110\n      jump\t// in\n    tag_132:\n        /* \"#utility.yul\":3764:3906   */\n      swap8\n      pop\n        /* \"#utility.yul\":3929:4025   */\n      tag_133\n        /* \"#utility.yul\":4018:4024   */\n      dup4\n        /* \"#utility.yul\":3929:4025   */\n      tag_134\n      jump\t// in\n    tag_133:\n        /* \"#utility.yul\":3919:4025   */\n      swap3\n      pop\n        /* \"#utility.yul\":3703:4035   */\n      pop\n        /* \"#utility.yul\":3690:3691   */\n      0x01\n        /* \"#utility.yul\":3687:3688   */\n      dup2\n        /* \"#utility.yul\":3683:3692   */\n      add\n        /* \"#utility.yul\":3678:3692   */\n      swap1\n      pop\n        /* \"#utility.yul\":3643:4035   */\n      jump(tag_129)\n    tag_131:\n        /* \"#utility.yul\":3647:3661   */\n      pop\n        /* \"#utility.yul\":4051:4054   */\n      dup6\n        /* \"#utility.yul\":4044:4054   */\n      swap4\n      pop\n        /* \"#utility.yul\":3236:4060   */\n      pop\n      pop\n      pop\n        /* \"#utility.yul\":3040:4060   */\n      swap3\n      swap2\n      pop\n      pop\n      jump\t// out\n        /* \"#utility.yul\":4176:5254   */\n    tag_113:\n        /* \"#utility.yul\":4335:4339   */\n      0xa0\n        /* \"#utility.yul\":4330:4333   */\n      dup3\n        /* \"#utility.yul\":4326:4340   */\n      add\n        /* \"#utility.yul\":4422:4426   */\n      0x00\n        /* \"#utility.yul\":4415:4420   */\n      dup3\n        /* \"#utility.yul\":4411:4427   */\n      add\n        /* \"#utility.yul\":4405:4428   */\n      mload\n        /* \"#utility.yul\":4441:4504   */\n      tag_136\n        /* \"#utility.yul\":4498:4502   */\n      0x00\n        /* \"#utility.yul\":4493:4496   */\n      dup6\n        /* \"#utility.yul\":4489:4503   */\n      add\n        /* \"#utility.yul\":4475:4487   */\n      dup3\n        /* \"#utility.yul\":4441:4504   */\n      tag_137\n      jump\t// in\n    tag_136:\n        /* \"#utility.yul\":4350:4514   */\n      pop\n        /* \"#utility.yul\":4607:4611   */\n      0x20\n        /* \"#utility.yul\":4600:4605   */\n      dup3\n        /* \"#utility.yul\":4596:4612   */\n      add\n        /* \"#utility.yul\":4590:4613   */\n      mload\n        /* \"#utility.yul\":4626:4689   */\n      tag_138\n        /* \"#utility.yul\":4683:4687   */\n      0x20\n        /* \"#utility.yul\":4678:4681   */\n      dup6\n        /* \"#utility.yul\":4674:4688   */\n      add\n        /* \"#utility.yul\":4660:4672   */\n      dup3\n        /* \"#utility.yul\":4626:4689   */\n      tag_114\n      jump\t// in\n    tag_138:\n        /* \"#utility.yul\":4524:4699   */\n      pop\n        /* \"#utility.yul\":4796:4800   */\n      0x40\n        /* \"#utility.yul\":4789:4794   */\n      dup3\n        /* \"#utility.yul\":4785:4801   */\n      add\n        /* \"#utility.yul\":4779:4802   */\n      mload\n        /* \"#utility.yul\":4815:4878   */\n      tag_139\n        /* \"#utility.yul\":4872:4876   */\n      0x40\n        /* \"#utility.yul\":4867:4870   */\n      dup6\n        /* \"#utility.yul\":4863:4877   */\n      add\n        /* \"#utility.yul\":4849:4861   */\n      dup3\n        /* \"#utility.yul\":4815:4878   */\n      tag_114\n      jump\t// in\n    tag_139:\n        /* \"#utility.yul\":4709:4888   */\n      pop\n        /* \"#utility.yul\":4978:4982   */\n      0x60\n        /* \"#utility.yul\":4971:4976   */\n      dup3\n        /* \"#utility.yul\":4967:4983   */\n      add\n        /* \"#utility.yul\":4961:4984   */\n      mload\n        /* \"#utility.yul\":4997:5058   */\n      tag_140\n        /* \"#utility.yul\":5052:5056   */\n      0x60\n        /* \"#utility.yul\":5047:5050   */\n      dup6\n        /* \"#utility.yul\":5043:5057   */\n      add\n        /* \"#utility.yul\":5029:5041   */\n      dup3\n        /* \"#utility.yul\":4997:5058   */\n      tag_141\n      jump\t// in\n    tag_140:\n        /* \"#utility.yul\":4898:5068   */\n      pop\n        /* \"#utility.yul\":5157:5161   */\n      0x80\n        /* \"#utility.yul\":5150:5155   */\n      dup3\n        /* \"#utility.yul\":5146:5162   */\n      add\n        /* \"#utility.yul\":5140:5163   */\n      mload\n        /* \"#utility.yul\":5176:5237   */\n      tag_142\n        /* \"#utility.yul\":5231:5235   */\n      0x80\n        /* \"#utility.yul\":5226:5229   */\n      dup6\n        /* \"#utility.yul\":5222:5236   */\n      add\n        /* \"#utility.yul\":5208:5220   */\n      dup3\n        /* \"#utility.yul\":5176:5237   */\n      tag_141\n      jump\t// in\n    tag_142:\n        /* \"#utility.yul\":5078:5247   */\n      pop\n        /* \"#utility.yul\":4304:5254   */\n      pop\n        /* \"#utility.yul\":4176:5254   */\n      pop\n      pop\n      jump\t// out\n        /* \"#utility.yul\":5370:6458   */\n    tag_143:\n        /* \"#utility.yul\":5539:5543   */\n      0xa0\n        /* \"#utility.yul\":5534:5537   */\n      dup3\n        /* \"#utility.yul\":5530:5544   */\n      add\n        /* \"#utility.yul\":5626:5630   */\n      0x00\n        /* \"#utility.yul\":5619:5624   */\n      dup3\n        /* \"#utility.yul\":5615:5631   */\n      add\n        /* \"#utility.yul\":5609:5632   */\n      mload\n        /* \"#utility.yul\":5645:5708   */\n      tag_145\n        /* \"#utility.yul\":5702:5706   */\n      0x00\n        /* \"#utility.yul\":5697:5700   */\n      dup6\n        /* \"#utility.yul\":5693:5707   */\n      add\n        /* \"#utility.yul\":5679:5691   */\n      dup3\n        /* \"#utility.yul\":5645:5708   */\n      tag_137\n      jump\t// in\n    tag_145:\n        /* \"#utility.yul\":5554:5718   */\n      pop\n        /* \"#utility.yul\":5811:5815   */\n      0x20\n        /* \"#utility.yul\":5804:5809   */\n      dup3\n        /* \"#utility.yul\":5800:5816   */\n      add\n        /* \"#utility.yul\":5794:5817   */\n      mload\n        /* \"#utility.yul\":5830:5893   */\n      tag_146\n        /* \"#utility.yul\":5887:5891   */\n      0x20\n        /* \"#utility.yul\":5882:5885   */\n      dup6\n        /* \"#utility.yul\":5878:5892   */\n      add\n        /* \"#utility.yul\":5864:5876   */\n      dup3\n        /* \"#utility.yul\":5830:5893   */\n      tag_114\n      jump\t// in\n    tag_146:\n        /* \"#utility.yul\":5728:5903   */\n      pop\n        /* \"#utility.yul\":6000:6004   */\n      0x40\n        /* \"#utility.yul\":5993:5998   */\n      dup3\n        /* \"#utility.yul\":5989:6005   */\n      add\n        /* \"#utility.yul\":5983:6006   */\n      mload\n        /* \"#utility.yul\":6019:6082   */\n      tag_147\n        /* \"#utility.yul\":6076:6080   */\n      0x40\n        /* \"#utility.yul\":6071:6074   */\n      dup6\n        /* \"#utility.yul\":6067:6081   */\n      add\n        /* \"#utility.yul\":6053:6065   */\n      dup3\n        /* \"#utility.yul\":6019:6082   */\n      tag_114\n      jump\t// in\n    tag_147:\n        /* \"#utility.yul\":5913:6092   */\n      pop\n        /* \"#utility.yul\":6182:6186   */\n      0x60\n        /* \"#utility.yul\":6175:6180   */\n      dup3\n        /* \"#utility.yul\":6171:6187   */\n      add\n        /* \"#utility.yul\":6165:6188   */\n      mload\n        /* \"#utility.yul\":6201:6262   */\n      tag_148\n        /* \"#utility.yul\":6256:6260   */\n      0x60\n        /* \"#utility.yul\":6251:6254   */\n      dup6\n        /* \"#utility.yul\":6247:6261   */\n      add\n        /* \"#utility.yul\":6233:6245   */\n      dup3\n        /* \"#utility.yul\":6201:6262   */\n      tag_141\n      jump\t// in\n    tag_148:\n        /* \"#utility.yul\":6102:6272   */\n      pop\n        /* \"#utility.yul\":6361:6365   */\n      0x80\n        /* \"#utility.yul\":6354:6359   */\n      dup3\n        /* \"#utility.yul\":6350:6366   */\n      add\n        /* \"#utility.yul\":6344:6367   */\n      mload\n        /* \"#utility.yul\":6380:6441   */\n      tag_149\n        /* \"#utility.yul\":6435:6439   */\n      0x80\n        /* \"#utility.yul\":6430:6433   */\n      dup6\n        /* \"#utility.yul\":6426:6440   */\n      add\n        /* \"#utility.yul\":6412:6424   */\n      dup3\n        /* \"#utility.yul\":6380:6441   */\n      tag_141\n      jump\t// in\n    tag_149:\n        /* \"#utility.yul\":6282:6451   */\n      pop\n        /* \"#utility.yul\":5508:6458   */\n      pop\n        /* \"#utility.yul\":5370:6458   */\n      pop\n      pop\n      jump\t// out\n        /* \"#utility.yul\":6464:6572   */\n    tag_137:\n        /* \"#utility.yul\":6541:6565   */\n      tag_151\n        /* \"#utility.yul\":6559:6564   */\n      dup2\n        /* \"#utility.yul\":6541:6565   */\n      tag_152\n      jump\t// in\n    tag_151:\n        /* \"#utility.yul\":6536:6539   */\n      dup3\n        /* \"#utility.yul\":6529:6566   */\n      mstore\n        /* \"#utility.yul\":6464:6572   */\n      pop\n      pop\n      jump\t// out\n        /* \"#utility.yul\":6578:6696   */\n    tag_153:\n        /* \"#utility.yul\":6665:6689   */\n      tag_155\n        /* \"#utility.yul\":6683:6688   */\n      dup2\n        /* \"#utility.yul\":6665:6689   */\n      tag_152\n      jump\t// in\n    tag_155:\n        /* \"#utility.yul\":6660:6663   */\n      dup3\n        /* \"#utility.yul\":6653:6690   */\n      mstore\n        /* \"#utility.yul\":6578:6696   */\n      pop\n      pop\n      jump\t// out\n        /* \"#utility.yul\":6702:6807   */\n    tag_141:\n        /* \"#utility.yul\":6777:6800   */\n      tag_157\n        /* \"#utility.yul\":6794:6799   */\n      dup2\n        /* \"#utility.yul\":6777:6800   */\n      tag_158\n      jump\t// in\n    tag_157:\n        /* \"#utility.yul\":6772:6775   */\n      dup3\n        /* \"#utility.yul\":6765:6801   */\n      mstore\n        /* \"#utility.yul\":6702:6807   */\n      pop\n      pop\n      jump\t// out\n        /* \"#utility.yul\":6813:6928   */\n    tag_159:\n        /* \"#utility.yul\":6898:6921   */\n      tag_161\n        /* \"#utility.yul\":6915:6920   */\n      dup2\n        /* \"#utility.yul\":6898:6921   */\n      tag_158\n      jump\t// in\n    tag_161:\n        /* \"#utility.yul\":6893:6896   */\n      dup3\n        /* \"#utility.yul\":6886:6922   */\n      mstore\n        /* \"#utility.yul\":6813:6928   */\n      pop\n      pop\n      jump\t// out\n        /* \"#utility.yul\":6934:7372   */\n    tag_47:\n        /* \"#utility.yul\":7081:7085   */\n      0x00\n        /* \"#utility.yul\":7119:7121   */\n      0x60\n        /* \"#utility.yul\":7108:7117   */\n      dup3\n        /* \"#utility.yul\":7104:7122   */\n      add\n        /* \"#utility.yul\":7096:7122   */\n      swap1\n      pop\n        /* \"#utility.yul\":7132:7203   */\n      tag_163\n        /* \"#utility.yul\":7200:7201   */\n      0x00\n        /* \"#utility.yul\":7189:7198   */\n      dup4\n        /* \"#utility.yul\":7185:7202   */\n      add\n        /* \"#utility.yul\":7176:7182   */\n      dup7\n        /* \"#utility.yul\":7132:7203   */\n      tag_118\n      jump\t// in\n    tag_163:\n        /* \"#utility.yul\":7213:7285   */\n      tag_164\n        /* \"#utility.yul\":7281:7283   */\n      0x20\n        /* \"#utility.yul\":7270:7279   */\n      dup4\n        /* \"#utility.yul\":7266:7284   */\n      add\n        /* \"#utility.yul\":7257:7263   */\n      dup6\n        /* \"#utility.yul\":7213:7285   */\n      tag_118\n      jump\t// in\n    tag_164:\n        /* \"#utility.yul\":7295:7365   */\n      tag_165\n        /* \"#utility.yul\":7361:7363   */\n      0x40\n        /* \"#utility.yul\":7350:7359   */\n      dup4\n        /* \"#utility.yul\":7346:7364   */\n      add\n        /* \"#utility.yul\":7337:7343   */\n      dup5\n        /* \"#utility.yul\":7295:7365   */\n      tag_159\n      jump\t// in\n    tag_165:\n        /* \"#utility.yul\":6934:7372   */\n      swap5\n      swap4\n      pop\n      pop\n      pop\n      pop\n      jump\t// out\n        /* \"#utility.yul\":7378:7895   */\n    tag_33:\n        /* \"#utility.yul\":7593:7597   */\n      0x00\n        /* \"#utility.yul\":7631:7633   */\n      0x20\n        /* \"#utility.yul\":7620:7629   */\n      dup3\n        /* \"#utility.yul\":7616:7634   */\n      add\n        /* \"#utility.yul\":7608:7634   */\n      swap1\n      pop\n        /* \"#utility.yul\":7680:7689   */\n      dup2\n        /* \"#utility.yul\":7674:7678   */\n      dup2\n        /* \"#utility.yul\":7670:7690   */\n      sub\n        /* \"#utility.yul\":7666:7667   */\n      0x00\n        /* \"#utility.yul\":7655:7664   */\n      dup4\n        /* \"#utility.yul\":7651:7668   */\n      add\n        /* \"#utility.yul\":7644:7691   */\n      mstore\n        /* \"#utility.yul\":7708:7888   */\n      tag_167\n        /* \"#utility.yul\":7883:7887   */\n      dup2\n        /* \"#utility.yul\":7874:7880   */\n      dup5\n        /* \"#utility.yul\":7708:7888   */\n      tag_121\n      jump\t// in\n    tag_167:\n        /* \"#utility.yul\":7700:7888   */\n      swap1\n      pop\n        /* \"#utility.yul\":7378:7895   */\n      swap3\n      swap2\n      pop\n      pop\n      jump\t// out\n        /* \"#utility.yul\":7901:8268   */\n    tag_38:\n        /* \"#utility.yul\":8066:8070   */\n      0x00\n        /* \"#utility.yul\":8104:8107   */\n      0xa0\n        /* \"#utility.yul\":8093:8102   */\n      dup3\n        /* \"#utility.yul\":8089:8108   */\n      add\n        /* \"#utility.yul\":8081:8108   */\n      swap1\n      pop\n        /* \"#utility.yul\":8118:8261   */\n      tag_169\n        /* \"#utility.yul\":8258:8259   */\n      0x00\n        /* \"#utility.yul\":8247:8256   */\n      dup4\n        /* \"#utility.yul\":8243:8260   */\n      add\n        /* \"#utility.yul\":8234:8240   */\n      dup5\n        /* \"#utility.yul\":8118:8261   */\n      tag_143\n      jump\t// in\n    tag_169:\n        /* \"#utility.yul\":7901:8268   */\n      swap3\n      swap2\n      pop\n      pop\n      jump\t// out\n        /* \"#utility.yul\":8274:8496   */\n    tag_14:\n        /* \"#utility.yul\":8367:8371   */\n      0x00\n        /* \"#utility.yul\":8405:8407   */\n      0x20\n        /* \"#utility.yul\":8394:8403   */\n      dup3\n        /* \"#utility.yul\":8390:8408   */\n      add\n        /* \"#utility.yul\":8382:8408   */\n      swap1\n      pop\n        /* \"#utility.yul\":8418:8489   */\n      tag_171\n        /* \"#utility.yul\":8486:8487   */\n      0x00\n        /* \"#utility.yul\":8475:8484   */\n      dup4\n        /* \"#utility.yul\":8471:8488   */\n      add\n        /* \"#utility.yul\":8462:8468   */\n      dup5\n        /* \"#utility.yul\":8418:8489   */\n      tag_153\n      jump\t// in\n    tag_171:\n        /* \"#utility.yul\":8274:8496   */\n      swap3\n      swap2\n      pop\n      pop\n      jump\t// out\n        /* \"#utility.yul\":8502:9158   */\n    tag_43:\n        /* \"#utility.yul\":8703:8707   */\n      0x00\n        /* \"#utility.yul\":8741:8744   */\n      0xa0\n        /* \"#utility.yul\":8730:8739   */\n      dup3\n        /* \"#utility.yul\":8726:8745   */\n      add\n        /* \"#utility.yul\":8718:8745   */\n      swap1\n      pop\n        /* \"#utility.yul\":8755:8826   */\n      tag_173\n        /* \"#utility.yul\":8823:8824   */\n      0x00\n        /* \"#utility.yul\":8812:8821   */\n      dup4\n        /* \"#utility.yul\":8808:8825   */\n      add\n        /* \"#utility.yul\":8799:8805   */\n      dup9\n        /* \"#utility.yul\":8755:8826   */\n      tag_153\n      jump\t// in\n    tag_173:\n        /* \"#utility.yul\":8836:8908   */\n      tag_174\n        /* \"#utility.yul\":8904:8906   */\n      0x20\n        /* \"#utility.yul\":8893:8902   */\n      dup4\n        /* \"#utility.yul\":8889:8907   */\n      add\n        /* \"#utility.yul\":8880:8886   */\n      dup8\n        /* \"#utility.yul\":8836:8908   */\n      tag_118\n      jump\t// in\n    tag_174:\n        /* \"#utility.yul\":8918:8990   */\n      tag_175\n        /* \"#utility.yul\":8986:8988   */\n      0x40\n        /* \"#utility.yul\":8975:8984   */\n      dup4\n        /* \"#utility.yul\":8971:8989   */\n      add\n        /* \"#utility.yul\":8962:8968   */\n      dup7\n        /* \"#utility.yul\":8918:8990   */\n      tag_118\n      jump\t// in\n    tag_175:\n        /* \"#utility.yul\":9000:9070   */\n      tag_176\n        /* \"#utility.yul\":9066:9068   */\n      0x60\n        /* \"#utility.yul\":9055:9064   */\n      dup4\n        /* \"#utility.yul\":9051:9069   */\n      add\n        /* \"#utility.yul\":9042:9048   */\n      dup6\n        /* \"#utility.yul\":9000:9070   */\n      tag_159\n      jump\t// in\n    tag_176:\n        /* \"#utility.yul\":9080:9151   */\n      tag_177\n        /* \"#utility.yul\":9146:9149   */\n      0x80\n        /* \"#utility.yul\":9135:9144   */\n      dup4\n        /* \"#utility.yul\":9131:9150   */\n      add\n        /* \"#utility.yul\":9122:9128   */\n      dup5\n        /* \"#utility.yul\":9080:9151   */\n      tag_159\n      jump\t// in\n    tag_177:\n        /* \"#utility.yul\":8502:9158   */\n      swap7\n      swap6\n      pop\n      pop\n      pop\n      pop\n      pop\n      pop\n      jump\t// out\n        /* \"#utility.yul\":9164:9382   */\n    tag_54:\n        /* \"#utility.yul\":9255:9259   */\n      0x00\n        /* \"#utility.yul\":9293:9295   */\n      0x20\n        /* \"#utility.yul\":9282:9291   */\n      dup3\n        /* \"#utility.yul\":9278:9296   */\n      add\n        /* \"#utility.yul\":9270:9296   */\n      swap1\n      pop\n        /* \"#utility.yul\":9306:9375   */\n      tag_179\n        /* \"#utility.yul\":9372:9373   */\n      0x00\n        /* \"#utility.yul\":9361:9370   */\n      dup4\n        /* \"#utility.yul\":9357:9374   */\n      add\n        /* \"#utility.yul\":9348:9354   */\n      dup5\n        /* \"#utility.yul\":9306:9375   */\n      tag_159\n      jump\t// in\n    tag_179:\n        /* \"#utility.yul\":9164:9382   */\n      swap3\n      swap2\n      pop\n      pop\n      jump\t// out\n        /* \"#utility.yul\":9469:9637   */\n    tag_128:\n        /* \"#utility.yul\":9572:9576   */\n      0x00\n        /* \"#utility.yul\":9595:9598   */\n      dup2\n        /* \"#utility.yul\":9587:9598   */\n      swap1\n      pop\n        /* \"#utility.yul\":9625:9629   */\n      0x20\n        /* \"#utility.yul\":9620:9623   */\n      dup3\n        /* \"#utility.yul\":9616:9630   */\n      add\n        /* \"#utility.yul\":9608:9630   */\n      swap1\n      pop\n        /* \"#utility.yul\":9469:9637   */\n      swap2\n      swap1\n      pop\n      jump\t// out\n        /* \"#utility.yul\":9643:9793   */\n    tag_124:\n        /* \"#utility.yul\":9746:9752   */\n      0x00\n        /* \"#utility.yul\":9780:9785   */\n      dup2\n        /* \"#utility.yul\":9774:9786   */\n      mload\n        /* \"#utility.yul\":9764:9786   */\n      swap1\n      pop\n        /* \"#utility.yul\":9643:9793   */\n      swap2\n      swap1\n      pop\n      jump\t// out\n        /* \"#utility.yul\":9799:9948   */\n    tag_134:\n        /* \"#utility.yul\":9905:9909   */\n      0x00\n        /* \"#utility.yul\":9937:9941   */\n      0x20\n        /* \"#utility.yul\":9932:9935   */\n      dup3\n        /* \"#utility.yul\":9928:9942   */\n      add\n        /* \"#utility.yul\":9920:9942   */\n      swap1\n      pop\n        /* \"#utility.yul\":9799:9948   */\n      swap2\n      swap1\n      pop\n      jump\t// out\n        /* \"#utility.yul\":9954:10174   */\n    tag_126:\n        /* \"#utility.yul\":10089:10100   */\n      0x00\n        /* \"#utility.yul\":10123:10129   */\n      dup3\n        /* \"#utility.yul\":10118:10121   */\n      dup3\n        /* \"#utility.yul\":10111:10130   */\n      mstore\n        /* \"#utility.yul\":10163:10167   */\n      0x20\n        /* \"#utility.yul\":10158:10161   */\n      dup3\n        /* \"#utility.yul\":10154:10168   */\n      add\n        /* \"#utility.yul\":10139:10168   */\n      swap1\n      pop\n        /* \"#utility.yul\":9954:10174   */\n      swap3\n      swap2\n      pop\n      pop\n      jump\t// out\n        /* \"#utility.yul\":10180:10276   */\n    tag_117:\n        /* \"#utility.yul\":10217:10224   */\n      0x00\n        /* \"#utility.yul\":10246:10270   */\n      tag_187\n        /* \"#utility.yul\":10264:10269   */\n      dup3\n        /* \"#utility.yul\":10246:10270   */\n      tag_188\n      jump\t// in\n    tag_187:\n        /* \"#utility.yul\":10235:10270   */\n      swap1\n      pop\n        /* \"#utility.yul\":10180:10276   */\n      swap2\n      swap1\n      pop\n      jump\t// out\n        /* \"#utility.yul\":10282:10408   */\n    tag_188:\n        /* \"#utility.yul\":10319:10326   */\n      0x00\n        /* \"#utility.yul\":10359:10401   */\n      0xffffffffffffffffffffffffffffffffffffffff\n        /* \"#utility.yul\":10352:10357   */\n      dup3\n        /* \"#utility.yul\":10348:10402   */\n      and\n        /* \"#utility.yul\":10337:10402   */\n      swap1\n      pop\n        /* \"#utility.yul\":10282:10408   */\n      swap2\n      swap1\n      pop\n      jump\t// out\n        /* \"#utility.yul\":10414:10491   */\n    tag_152:\n        /* \"#utility.yul\":10451:10458   */\n      0x00\n        /* \"#utility.yul\":10480:10485   */\n      dup2\n        /* \"#utility.yul\":10469:10485   */\n      swap1\n      pop\n        /* \"#utility.yul\":10414:10491   */\n      swap2\n      swap1\n      pop\n      jump\t// out\n        /* \"#utility.yul\":10497:10590   */\n    tag_158:\n        /* \"#utility.yul\":10533:10540   */\n      0x00\n        /* \"#utility.yul\":10573:10583   */\n      0xffffffff\n        /* \"#utility.yul\":10566:10571   */\n      dup3\n        /* \"#utility.yul\":10562:10584   */\n      and\n        /* \"#utility.yul\":10551:10584   */\n      swap1\n      pop\n        /* \"#utility.yul\":10497:10590   */\n      swap2\n      swap1\n      pop\n      jump\t// out\n        /* \"#utility.yul\":10596:10829   */\n    tag_49:\n        /* \"#utility.yul\":10635:10638   */\n      0x00\n        /* \"#utility.yul\":10658:10682   */\n      tag_193\n        /* \"#utility.yul\":10676:10681   */\n      dup3\n        /* \"#utility.yul\":10658:10682   */\n      tag_152\n      jump\t// in\n    tag_193:\n        /* \"#utility.yul\":10649:10682   */\n      swap2\n      pop\n        /* \"#utility.yul\":10704:10770   */\n      0xffffffffffffffffffffffffffffffffffffffffffffffffffffffffffffffff\n        /* \"#utility.yul\":10697:10702   */\n      dup3\n        /* \"#utility.yul\":10694:10771   */\n      eq\n        /* \"#utility.yul\":10691:10794   */\n      iszero\n      tag_194\n      jumpi\n        /* \"#utility.yul\":10774:10792   */\n      tag_195\n      tag_196\n      jump\t// in\n    tag_195:\n        /* \"#utility.yul\":10691:10794   */\n    tag_194:\n        /* \"#utility.yul\":10821:10822   */\n      0x01\n        /* \"#utility.yul\":10814:10819   */\n      dup3\n        /* \"#utility.yul\":10810:10823   */\n      add\n        /* \"#utility.yul\":10803:10823   */\n      swap1\n      pop\n        /* \"#utility.yul\":10596:10829   */\n      swap2\n      swap1\n      pop\n      jump\t// out\n        /* \"#utility.yul\":10835:11015   */\n    tag_196:\n        /* \"#utility.yul\":10883:10960   */\n      0x4e487b7100000000000000000000000000000000000000000000000000000000\n        /* \"#utility.yul\":10880:10881   */\n      0x00\n        /* \"#utility.yul\":10873:10961   */\n      mstore\n        /* \"#utility.yul\":10980:10984   */\n      0x11\n        /* \"#utility.yul\":10977:10978   */\n      0x04\n        /* \"#utility.yul\":10970:10985   */\n      mstore\n        /* \"#utility.yul\":11004:11008   */\n      0x24\n        /* \"#utility.yul\":11001:11002   */\n      0x00\n        /* \"#utility.yul\":10994:11009   */\n      revert\n        /* \"#utility.yul\":11021:11201   */\n    tag_70:\n        /* \"#utility.yul\":11069:11146   */\n      0x4e487b7100000000000000000000000000000000000000000000000000000000\n        /* \"#utility.yul\":11066:11067   */\n      0x00\n        /* \"#utility.yul\":11059:11147   */\n      mstore\n        /* \"#utility.yul\":11166:11170   */\n      0x32\n        /* \"#utility.yul\":11163:11164   */\n      0x04\n        /* \"#utility.yul\":11156:11171   */\n      mstore\n        /* \"#utility.yul\":11190:11194   */\n      0x24\n        /* \"#utility.yul\":11187:11188   */\n      0x00\n        /* \"#utility.yul\":11180:11195   */\n      revert\n        /* \"#utility.yul\":11207:11387   */\n    tag_60:\n        /* \"#utility.yul\":11255:11332   */\n      0x4e487b7100000000000000000000000000000000000000000000000000000000\n        /* \"#utility.yul\":11252:11253   */\n      0x00\n        /* \"#utility.yul\":11245:11333   */\n      mstore\n        /* \"#utility.yul\":11352:11356   */\n      0x41\n        /* \"#utility.yul\":11349:11350   */\n      0x04\n        /* \"#utility.yul\":11342:11357   */\n      mstore\n        /* \"#utility.yul\":11376:11380   */\n      0x24\n        /* \"#utility.yul\":11373:11374   */\n      0x00\n        /* \"#utility.yul\":11366:11381   */\n      revert\n        /* \"#utility.yul\":11516:11633   */\n    tag_92:\n        /* \"#utility.yul\":11625:11626   */\n      0x00\n        /* \"#utility.yul\":11622:11623   */\n      dup1\n        /* \"#utility.yul\":11615:11627   */\n      revert\n        /* \"#utility.yul\":11639:11761   */\n    tag_80:\n        /* \"#utility.yul\":11712:11736   */\n      tag_204\n        /* \"#utility.yul\":11730:11735   */\n      dup2\n        /* \"#utility.yul\":11712:11736   */\n      tag_117\n      jump\t// in\n    tag_204:\n        /* \"#utility.yul\":11705:11710   */\n      dup2\n        /* \"#utility.yul\":11702:11737   */\n      eq\n        /* \"#utility.yul\":11692:11755   */\n      tag_205\n      jumpi\n        /* \"#utility.yul\":11751:11752   */\n      0x00\n        /* \"#utility.yul\":11748:11749   */\n      dup1\n        /* \"#utility.yul\":11741:11753   */\n      revert\n        /* \"#utility.yul\":11692:11755   */\n    tag_205:\n        /* \"#utility.yul\":11639:11761   */\n      pop\n      jump\t// out\n        /* \"#utility.yul\":11767:11889   */\n    tag_84:\n        /* \"#utility.yul\":11840:11864   */\n      tag_207\n        /* \"#utility.yul\":11858:11863   */\n      dup2\n        /* \"#utility.yul\":11840:11864   */\n      tag_152\n      jump\t// in\n    tag_207:\n        /* \"#utility.yul\":11833:11838   */\n      dup2\n        /* \"#utility.yul\":11830:11865   */\n      eq\n        /* \"#utility.yul\":11820:11883   */\n      tag_208\n      jumpi\n        /* \"#utility.yul\":11879:11880   */\n      0x00\n        /* \"#utility.yul\":11876:11877   */\n      dup1\n        /* \"#utility.yul\":11869:11881   */\n      revert\n        /* \"#utility.yul\":11820:11883   */\n    tag_208:\n        /* \"#utility.yul\":11767:11889   */\n      pop\n      jump\t// out\n        /* \"#utility.yul\":11895:12015   */\n    tag_88:\n        /* \"#utility.yul\":11967:11990   */\n      tag_210\n        /* \"#utility.yul\":11984:11989   */\n      dup2\n        /* \"#utility.yul\":11967:11990   */\n      tag_158\n      jump\t// in\n    tag_210:\n        /* \"#utility.yul\":11960:11965   */\n      dup2\n        /* \"#utility.yul\":11957:11991   */\n      eq\n        /* \"#utility.yul\":11947:12009   */\n      tag_211\n      jumpi\n        /* \"#utility.yul\":12005:12006   */\n      0x00\n        /* \"#utility.yul\":12002:12003   */\n      dup1\n        /* \"#utility.yul\":11995:12007   */\n      revert\n        /* \"#utility.yul\":11947:12009   */\n    tag_211:\n        /* \"#utility.yul\":11895:12015   */\n      pop\n      jump\t// out\n\n    auxdata: 0xa2646970667358221220f5e6a5d81957b43de0419655b30781e8df08a4333f1ef940f76170d5eeedf0f264736f6c63430008070033\n}\n",
				"bytecode": {
					"linkReferences": {},
					"object": "6080604052600160005534801561001557600080fd5b50610eb6806100256000396000f3fe608060405234801561001057600080fd5b506004361061007d5760003560e01c806329d783281161005b57806329d78328146100ec57806370b775a014610108578063b9db15b414610138578063ec02181a146101685761007d565b8063029e2fe414610082578063055498bd146100a05780631001f30f146100bc575b600080fd5b61008a61019c565b6040516100979190610c52565b60405180910390f35b6100ba60048036038101906100b591906109d7565b6101a2565b005b6100d660048036038101906100d1919061096a565b6103c3565b6040516100e39190610c52565b60405180910390f35b610106600480360381019061010191906109aa565b6103f4565b005b610122600480360381019061011d919061093d565b610463565b60405161012f9190610c15565b60405180910390f35b610152600480360381019061014d91906109aa565b6106d2565b60405161015f9190610c37565b60405180910390f35b610182600480360381019061017d91906109aa565b610801565b604051610193959493929190610c6d565b60405180910390f35b60005481565b6040518060a001604052808581526020018473ffffffffffffffffffffffffffffffffffffffff1681526020018373ffffffffffffffffffffffffffffffffffffffff1681526020018263ffffffff168152602001600063ffffffff1681525060016000805481526020019081526020016000206000820151816000015560208201518160010160006101000a81548173ffffffffffffffffffffffffffffffffffffffff021916908373ffffffffffffffffffffffffffffffffffffffff16021790555060408201518160020160006101000a81548173ffffffffffffffffffffffffffffffffffffffff021916908373ffffffffffffffffffffffffffffffffffffffff16021790555060608201518160020160146101000a81548163ffffffff021916908363ffffffff16021790555060808201518160020160186101000a81548163ffffffff021916908363ffffffff160217905550905050600260008373ffffffffffffffffffffffffffffffffffffffff1673ffffffffffffffffffffffffffffffffffffffff1681526020019081526020016000206000549080600181540180825580915050600190039060005260206000200160009091909190915055836000547f6abc5964a9f8c02bee56a206f75c7526ea67f5abd5cbbe939c60d4a489607e4985858560405161039e93929190610bde565b60405180910390a36000808154809291906103b890610d60565b919050555050505050565b600260205281600052604060002081815481106103df57600080fd5b90600052602060002001600091509150505481565b426001600083815260200190815260200160002060020160186101000a81548163ffffffff021916908363ffffffff1602179055507f64e64e323422dcfed18a892f84596ccf7cc94b1952625f3cc82e6461b529fff1426040516104589190610cc0565b60405180910390a150565b60606000600260008473ffffffffffffffffffffffffffffffffffffffff1673ffffffffffffffffffffffffffffffffffffffff1681526020019081526020016000208054806020026020016040519081016040528092919081815260200182805480156104f057602002820191906000526020600020905b8154815260200190600101908083116104dc575b505050505090506000815167ffffffffffffffff81111561051457610513610e07565b5b60405190808252806020026020018201604052801561054d57816020015b61053a610897565b8152602001906001900390816105325790505b50905060005b82518110156106c7576001600084838151811061057357610572610dd8565b5b602002602001015181526020019081526020016000206040518060a0016040529081600082015481526020016001820160009054906101000a900473ffffffffffffffffffffffffffffffffffffffff1673ffffffffffffffffffffffffffffffffffffffff1673ffffffffffffffffffffffffffffffffffffffff1681526020016002820160009054906101000a900473ffffffffffffffffffffffffffffffffffffffff1673ffffffffffffffffffffffffffffffffffffffff1673ffffffffffffffffffffffffffffffffffffffff1681526020016002820160149054906101000a900463ffffffff1663ffffffff1663ffffffff1681526020016002820160189054906101000a900463ffffffff1663ffffffff1663ffffffff16815250508282815181106106a9576106a8610dd8565b5b602002602001018190525080806106bf90610d60565b915050610553565b508092505050919050565b6106da610897565b600160008381526020019081526020016000206040518060a0016040529081600082015481526020016001820160009054906101000a900473ffffffffffffffffffffffffffffffffffffffff1673ffffffffffffffffffffffffffffffffffffffff1673ffffffffffffffffffffffffffffffffffffffff1681526020016002820160009054906101000a900473ffffffffffffffffffffffffffffffffffffffff1673ffffffffffffffffffffffffffffffffffffffff1673ffffffffffffffffffffffffffffffffffffffff1681526020016002820160149054906101000a900463ffffffff1663ffffffff1663ffffffff1681526020016002820160189054906101000a900463ffffffff1663ffffffff1663ffffffff16815250509050919050565b60016020528060005260406000206000915090508060000154908060010160009054906101000a900473ffffffffffffffffffffffffffffffffffffffff16908060020160009054906101000a900473ffffffffffffffffffffffffffffffffffffffff16908060020160149054906101000a900463ffffffff16908060020160189054906101000a900463ffffffff16905085565b6040518060a0016040528060008152602001600073ffffffffffffffffffffffffffffffffffffffff168152602001600073ffffffffffffffffffffffffffffffffffffffff168152602001600063ffffffff168152602001600063ffffffff1681525090565b60008135905061090d81610e3b565b92915050565b60008135905061092281610e52565b92915050565b60008135905061093781610e69565b92915050565b60006020828403121561095357610952610e36565b5b6000610961848285016108fe565b91505092915050565b6000806040838503121561098157610980610e36565b5b600061098f858286016108fe565b92505060206109a085828601610913565b9150509250929050565b6000602082840312156109c0576109bf610e36565b5b60006109ce84828501610913565b91505092915050565b600080600080608085870312156109f1576109f0610e36565b5b60006109ff87828801610913565b9450506020610a10878288016108fe565b9350506040610a21878288016108fe565b9250506060610a3287828801610928565b91505092959194509250565b6000610a4a8383610ad2565b60a08301905092915050565b610a5f81610d14565b82525050565b610a6e81610d14565b82525050565b6000610a7f82610ceb565b610a898185610d03565b9350610a9483610cdb565b8060005b83811015610ac5578151610aac8882610a3e565b9750610ab783610cf6565b925050600181019050610a98565b5085935050505092915050565b60a082016000820151610ae86000850182610ba2565b506020820151610afb6020850182610a56565b506040820151610b0e6040850182610a56565b506060820151610b216060850182610bc0565b506080820151610b346080850182610bc0565b50505050565b60a082016000820151610b506000850182610ba2565b506020820151610b636020850182610a56565b506040820151610b766040850182610a56565b506060820151610b896060850182610bc0565b506080820151610b9c6080850182610bc0565b50505050565b610bab81610d46565b82525050565b610bba81610d46565b82525050565b610bc981610d50565b82525050565b610bd881610d50565b82525050565b6000606082019050610bf36000830186610a65565b610c006020830185610a65565b610c0d6040830184610bcf565b949350505050565b60006020820190508181036000830152610c2f8184610a74565b905092915050565b600060a082019050610c4c6000830184610b3a565b92915050565b6000602082019050610c676000830184610bb1565b92915050565b600060a082019050610c826000830188610bb1565b610c8f6020830187610a65565b610c9c6040830186610a65565b610ca96060830185610bcf565b610cb66080830184610bcf565b9695505050505050565b6000602082019050610cd56000830184610bcf565b92915050565b6000819050602082019050919050565b600081519050919050565b6000602082019050919050565b600082825260208201905092915050565b6000610d1f82610d26565b9050919050565b600073ffffffffffffffffffffffffffffffffffffffff82169050919050565b6000819050919050565b600063ffffffff82169050919050565b6000610d6b82610d46565b91507fffffffffffffffffffffffffffffffffffffffffffffffffffffffffffffffff821415610d9e57610d9d610da9565b5b600182019050919050565b7f4e487b7100000000000000000000000000000000000000000000000000000000600052601160045260246000fd5b7f4e487b7100000000000000000000000000000000000000000000000000000000600052603260045260246000fd5b7f4e487b7100000000000000000000000000000000000000000000000000000000600052604160045260246000fd5b600080fd5b610e4481610d14565b8114610e4f57600080fd5b50565b610e5b81610d46565b8114610e6657600080fd5b50565b610e7281610d50565b8114610e7d57600080fd5b5056fea2646970667358221220f5e6a5d81957b43de0419655b30781e8df08a4333f1ef940f76170d5eeedf0f264736f6c63430008070033",
					"opcodes": "PUSH1 0x80 PUSH1 0x40 MSTORE PUSH1 0x1 PUSH1 0x0 SSTORE CALLVALUE DUP1 ISZERO PUSH2 0x15 JUMPI PUSH1 0x0 DUP1 REVERT JUMPDEST POP PUSH2 0xEB6 DUP1 PUSH2 0x25 PUSH1 0x0 CODECOPY PUSH1 0x0 RETURN INVALID PUSH1 0x80 PUSH1 0x40 MSTORE CALLVALUE DUP1 ISZERO PUSH2 0x10 JUMPI PUSH1 0x0 DUP1 REVERT JUMPDEST POP PUSH1 0x4 CALLDATASIZE LT PUSH2 0x7D JUMPI PUSH1 0x0 CALLDATALOAD PUSH1 0xE0 SHR DUP1 PUSH4 0x29D78328 GT PUSH2 0x5B JUMPI DUP1 PUSH4 0x29D78328 EQ PUSH2 0xEC JUMPI DUP1 PUSH4 0x70B775A0 EQ PUSH2 0x108 JUMPI DUP1 PUSH4 0xB9DB15B4 EQ PUSH2 0x138 JUMPI DUP1 PUSH4 0xEC02181A EQ PUSH2 0x168 JUMPI PUSH2 0x7D JUMP JUMPDEST DUP1 PUSH4 0x29E2FE4 EQ PUSH2 0x82 JUMPI DUP1 PUSH4 0x55498BD EQ PUSH2 0xA0 JUMPI DUP1 PUSH4 0x1001F30F EQ PUSH2 0xBC JUMPI JUMPDEST PUSH1 0x0 DUP1 REVERT JUMPDEST PUSH2 0x8A PUSH2 0x19C JUMP JUMPDEST PUSH1 0x40 MLOAD PUSH2 0x97 SWAP2 SWAP1 PUSH2 0xC52 JUMP JUMPDEST PUSH1 0x40 MLOAD DUP1 SWAP2 SUB SWAP1 RETURN JUMPDEST PUSH2 0xBA PUSH1 0x4 DUP1 CALLDATASIZE SUB DUP2 ADD SWAP1 PUSH2 0xB5 SWAP2 SWAP1 PUSH2 0x9D7 JUMP JUMPDEST PUSH2 0x1A2 JUMP JUMPDEST STOP JUMPDEST PUSH2 0xD6 PUSH1 0x4 DUP1 CALLDATASIZE SUB DUP2 ADD SWAP1 PUSH2 0xD1 SWAP2 SWAP1 PUSH2 0x96A JUMP JUMPDEST PUSH2 0x3C3 JUMP JUMPDEST PUSH1 0x40 MLOAD PUSH2 0xE3 SWAP2 SWAP1 PUSH2 0xC52 JUMP JUMPDEST PUSH1 0x40 MLOAD DUP1 SWAP2 SUB SWAP1 RETURN JUMPDEST PUSH2 0x106 PUSH1 0x4 DUP1 CALLDATASIZE SUB DUP2 ADD SWAP1 PUSH2 0x101 SWAP2 SWAP1 PUSH2 0x9AA JUMP JUMPDEST PUSH2 0x3F4 JUMP JUMPDEST STOP JUMPDEST PUSH2 0x122 PUSH1 0x4 DUP1 CALLDATASIZE SUB DUP2 ADD SWAP1 PUSH2 0x11D SWAP2 SWAP1 PUSH2 0x93D JUMP JUMPDEST PUSH2 0x463 JUMP JUMPDEST PUSH1 0x40 MLOAD PUSH2 0x12F SWAP2 SWAP1 PUSH2 0xC15 JUMP JUMPDEST PUSH1 0x40 MLOAD DUP1 SWAP2 SUB SWAP1 RETURN JUMPDEST PUSH2 0x152 PUSH1 0x4 DUP1 CALLDATASIZE SUB DUP2 ADD SWAP1 PUSH2 0x14D SWAP2 SWAP1 PUSH2 0x9AA JUMP JUMPDEST PUSH2 0x6D2 JUMP JUMPDEST PUSH1 0x40 MLOAD PUSH2 0x15F SWAP2 SWAP1 PUSH2 0xC37 JUMP JUMPDEST PUSH1 0x40 MLOAD DUP1 SWAP2 SUB SWAP1 RETURN JUMPDEST PUSH2 0x182 PUSH1 0x4 DUP1 CALLDATASIZE SUB DUP2 ADD SWAP1 PUSH2 0x17D SWAP2 SWAP1 PUSH2 0x9AA JUMP JUMPDEST PUSH2 0x801 JUMP JUMPDEST PUSH1 0x40 MLOAD PUSH2 0x193 SWAP6 SWAP5 SWAP4 SWAP3 SWAP2 SWAP1 PUSH2 0xC6D JUMP JUMPDEST PUSH1 0x40 MLOAD DUP1 SWAP2 SUB SWAP1 RETURN JUMPDEST PUSH1 0x0 SLOAD DUP2 JUMP JUMPDEST PUSH1 0x40 MLOAD DUP1 PUSH1 0xA0 ADD PUSH1 0x40 MSTORE DUP1 DUP6 DUP2 MSTORE PUSH1 0x20 ADD DUP5 PUSH20 0xFFFFFFFFFFFFFFFFFFFFFFFFFFFFFFFFFFFFFFFF AND DUP2 MSTORE PUSH1 0x20 ADD DUP4 PUSH20 0xFFFFFFFFFFFFFFFFFFFFFFFFFFFFFFFFFFFFFFFF AND DUP2 MSTORE PUSH1 0x20 ADD DUP3 PUSH4 0xFFFFFFFF AND DUP2 MSTORE PUSH1 0x20 ADD PUSH1 0x0 PUSH4 0xFFFFFFFF AND DUP2 MSTORE POP PUSH1 0x1 PUSH1 0x0 DUP1 SLOAD DUP2 MSTORE PUSH1 0x20 ADD SWAP1 DUP2 MSTORE PUSH1 0x20 ADD PUSH1 0x0 KECCAK256 PUSH1 0x0 DUP3 ADD MLOAD DUP2 PUSH1 0x0 ADD SSTORE PUSH1 0x20 DUP3 ADD MLOAD DUP2 PUSH1 0x1 ADD PUSH1 0x0 PUSH2 0x100 EXP DUP2 SLOAD DUP2 PUSH20 0xFFFFFFFFFFFFFFFFFFFFFFFFFFFFFFFFFFFFFFFF MUL NOT AND SWAP1 DUP4 PUSH20 0xFFFFFFFFFFFFFFFFFFFFFFFFFFFFFFFFFFFFFFFF AND MUL OR SWAP1 SSTORE POP PUSH1 0x40 DUP3 ADD MLOAD DUP2 PUSH1 0x2 ADD PUSH1 0x0 PUSH2 0x100 EXP DUP2 SLOAD DUP2 PUSH20 0xFFFFFFFFFFFFFFFFFFFFFFFFFFFFFFFFFFFFFFFF MUL NOT AND SWAP1 DUP4 PUSH20 0xFFFFFFFFFFFFFFFFFFFFFFFFFFFFFFFFFFFFFFFF AND MUL OR SWAP1 SSTORE POP PUSH1 0x60 DUP3 ADD MLOAD DUP2 PUSH1 0x2 ADD PUSH1 0x14 PUSH2 0x100 EXP DUP2 SLOAD DUP2 PUSH4 0xFFFFFFFF MUL NOT AND SWAP1 DUP4 PUSH4 0xFFFFFFFF AND MUL OR SWAP1 SSTORE POP PUSH1 0x80 DUP3 ADD MLOAD DUP2 PUSH1 0x2 ADD PUSH1 0x18 PUSH2 0x100 EXP DUP2 SLOAD DUP2 PUSH4 0xFFFFFFFF MUL NOT AND SWAP1 DUP4 PUSH4 0xFFFFFFFF AND MUL OR SWAP1 SSTORE POP SWAP1 POP POP PUSH1 0x2 PUSH1 0x0 DUP4 PUSH20 0xFFFFFFFFFFFFFFFFFFFFFFFFFFFFFFFFFFFFFFFF AND PUSH20 0xFFFFFFFFFFFFFFFFFFFFFFFFFFFFFFFFFFFFFFFF AND DUP2 MSTORE PUSH1 0x20 ADD SWAP1 DUP2 MSTORE PUSH1 0x20 ADD PUSH1 0x0 KECCAK256 PUSH1 0x0 SLOAD SWAP1 DUP1 PUSH1 0x1 DUP2 SLOAD ADD DUP1 DUP3 SSTORE DUP1 SWAP2 POP POP PUSH1 0x1 SWAP1 SUB SWAP1 PUSH1 0x0 MSTORE PUSH1 0x20 PUSH1 0x0 KECCAK256 ADD PUSH1 0x0 SWAP1 SWAP2 SWAP1 SWAP2 SWAP1 SWAP2 POP SSTORE DUP4 PUSH1 0x0 SLOAD PUSH32 0x6ABC5964A9F8C02BEE56A206F75C7526EA67F5ABD5CBBE939C60D4A489607E49 DUP6 DUP6 DUP6 PUSH1 0x40 MLOAD PUSH2 0x39E SWAP4 SWAP3 SWAP2 SWAP1 PUSH2 0xBDE JUMP JUMPDEST PUSH1 0x40 MLOAD DUP1 SWAP2 SUB SWAP1 LOG3 PUSH1 0x0 DUP1 DUP2 SLOAD DUP1 SWAP3 SWAP2 SWAP1 PUSH2 0x3B8 SWAP1 PUSH2 0xD60 JUMP JUMPDEST SWAP2 SWAP1 POP SSTORE POP POP POP POP POP JUMP JUMPDEST PUSH1 0x2 PUSH1 0x20 MSTORE DUP2 PUSH1 0x0 MSTORE PUSH1 0x40 PUSH1 0x0 KECCAK256 DUP2 DUP2 SLOAD DUP2 LT PUSH2 0x3DF JUMPI PUSH1 0x0 DUP1 REVERT JUMPDEST SWAP1 PUSH1 0x0 MSTORE PUSH1 0x20 PUSH1 0x0 KECCAK256 ADD PUSH1 0x0 SWAP2 POP SWAP2 POP POP SLOAD DUP2 JUMP JUMPDEST TIMESTAMP PUSH1 0x1 PUSH1 0x0 DUP4 DUP2 MSTORE PUSH1 0x20 ADD SWAP1 DUP2 MSTORE PUSH1 0x20 ADD PUSH1 0x0 KECCAK256 PUSH1 0x2 ADD PUSH1 0x18 PUSH2 0x100 EXP DUP2 SLOAD DUP2 PUSH4 0xFFFFFFFF MUL NOT AND SWAP1 DUP4 PUSH4 0xFFFFFFFF AND MUL OR SWAP1 SSTORE POP PUSH32 0x64E64E323422DCFED18A892F84596CCF7CC94B1952625F3CC82E6461B529FFF1 TIMESTAMP PUSH1 0x40 MLOAD PUSH2 0x458 SWAP2 SWAP1 PUSH2 0xCC0 JUMP JUMPDEST PUSH1 0x40 MLOAD DUP1 SWAP2 SUB SWAP1 LOG1 POP JUMP JUMPDEST PUSH1 0x60 PUSH1 0x0 PUSH1 0x2 PUSH1 0x0 DUP5 PUSH20 0xFFFFFFFFFFFFFFFFFFFFFFFFFFFFFFFFFFFFFFFF AND PUSH20 0xFFFFFFFFFFFFFFFFFFFFFFFFFFFFFFFFFFFFFFFF AND DUP2 MSTORE PUSH1 0x20 ADD SWAP1 DUP2 MSTORE PUSH1 0x20 ADD PUSH1 0x0 KECCAK256 DUP1 SLOAD DUP1 PUSH1 0x20 MUL PUSH1 0x20 ADD PUSH1 0x40 MLOAD SWAP1 DUP2 ADD PUSH1 0x40 MSTORE DUP1 SWAP3 SWAP2 SWAP1 DUP2 DUP2 MSTORE PUSH1 0x20 ADD DUP3 DUP1 SLOAD DUP1 ISZERO PUSH2 0x4F0 JUMPI PUSH1 0x20 MUL DUP3 ADD SWAP2 SWAP1 PUSH1 0x0 MSTORE PUSH1 0x20 PUSH1 0x0 KECCAK256 SWAP1 JUMPDEST DUP2 SLOAD DUP2 MSTORE PUSH1 0x20 ADD SWAP1 PUSH1 0x1 ADD SWAP1 DUP1 DUP4 GT PUSH2 0x4DC JUMPI JUMPDEST POP POP POP POP POP SWAP1 POP PUSH1 0x0 DUP2 MLOAD PUSH8 0xFFFFFFFFFFFFFFFF DUP2 GT ISZERO PUSH2 0x514 JUMPI PUSH2 0x513 PUSH2 0xE07 JUMP JUMPDEST JUMPDEST PUSH1 0x40 MLOAD SWAP1 DUP1 DUP3 MSTORE DUP1 PUSH1 0x20 MUL PUSH1 0x20 ADD DUP3 ADD PUSH1 0x40 MSTORE DUP1 ISZERO PUSH2 0x54D JUMPI DUP2 PUSH1 0x20 ADD JUMPDEST PUSH2 0x53A PUSH2 0x897 JUMP JUMPDEST DUP2 MSTORE PUSH1 0x20 ADD SWAP1 PUSH1 0x1 SWAP1 SUB SWAP1 DUP2 PUSH2 0x532 JUMPI SWAP1 POP JUMPDEST POP SWAP1 POP PUSH1 0x0 JUMPDEST DUP3 MLOAD DUP2 LT ISZERO PUSH2 0x6C7 JUMPI PUSH1 0x1 PUSH1 0x0 DUP5 DUP4 DUP2 MLOAD DUP2 LT PUSH2 0x573 JUMPI PUSH2 0x572 PUSH2 0xDD8 JUMP JUMPDEST JUMPDEST PUSH1 0x20 MUL PUSH1 0x20 ADD ADD MLOAD DUP2 MSTORE PUSH1 0x20 ADD SWAP1 DUP2 MSTORE PUSH1 0x20 ADD PUSH1 0x0 KECCAK256 PUSH1 0x40 MLOAD DUP1 PUSH1 0xA0 ADD PUSH1 0x40 MSTORE SWAP1 DUP2 PUSH1 0x0 DUP3 ADD SLOAD DUP2 MSTORE PUSH1 0x20 ADD PUSH1 0x1 DUP3 ADD PUSH1 0x0 SWAP1 SLOAD SWAP1 PUSH2 0x100 EXP SWAP1 DIV PUSH20 0xFFFFFFFFFFFFFFFFFFFFFFFFFFFFFFFFFFFFFFFF AND PUSH20 0xFFFFFFFFFFFFFFFFFFFFFFFFFFFFFFFFFFFFFFFF AND PUSH20 0xFFFFFFFFFFFFFFFFFFFFFFFFFFFFFFFFFFFFFFFF AND DUP2 MSTORE PUSH1 0x20 ADD PUSH1 0x2 DUP3 ADD PUSH1 0x0 SWAP1 SLOAD SWAP1 PUSH2 0x100 EXP SWAP1 DIV PUSH20 0xFFFFFFFFFFFFFFFFFFFFFFFFFFFFFFFFFFFFFFFF AND PUSH20 0xFFFFFFFFFFFFFFFFFFFFFFFFFFFFFFFFFFFFFFFF AND PUSH20 0xFFFFFFFFFFFFFFFFFFFFFFFFFFFFFFFFFFFFFFFF AND DUP2 MSTORE PUSH1 0x20 ADD PUSH1 0x2 DUP3 ADD PUSH1 0x14 SWAP1 SLOAD SWAP1 PUSH2 0x100 EXP SWAP1 DIV PUSH4 0xFFFFFFFF AND PUSH4 0xFFFFFFFF AND PUSH4 0xFFFFFFFF AND DUP2 MSTORE PUSH1 0x20 ADD PUSH1 0x2 DUP3 ADD PUSH1 0x18 SWAP1 SLOAD SWAP1 PUSH2 0x100 EXP SWAP1 DIV PUSH4 0xFFFFFFFF AND PUSH4 0xFFFFFFFF AND PUSH4 0xFFFFFFFF AND DUP2 MSTORE POP POP DUP3 DUP3 DUP2 MLOAD DUP2 LT PUSH2 0x6A9 JUMPI PUSH2 0x6A8 PUSH2 0xDD8 JUMP JUMPDEST JUMPDEST PUSH1 0x20 MUL PUSH1 0x20 ADD ADD DUP2 SWAP1 MSTORE POP DUP1 DUP1 PUSH2 0x6BF SWAP1 PUSH2 0xD60 JUMP JUMPDEST SWAP2 POP POP PUSH2 0x553 JUMP JUMPDEST POP DUP1 SWAP3 POP POP POP SWAP2 SWAP1 POP JUMP JUMPDEST PUSH2 0x6DA PUSH2 0x897 JUMP JUMPDEST PUSH1 0x1 PUSH1 0x0 DUP4 DUP2 MSTORE PUSH1 0x20 ADD SWAP1 DUP2 MSTORE PUSH1 0x20 ADD PUSH1 0x0 KECCAK256 PUSH1 0x40 MLOAD DUP1 PUSH1 0xA0 ADD PUSH1 0x40 MSTORE SWAP1 DUP2 PUSH1 0x0 DUP3 ADD SLOAD DUP2 MSTORE PUSH1 0x20 ADD PUSH1 0x1 DUP3 ADD PUSH1 0x0 SWAP1 SLOAD SWAP1 PUSH2 0x100 EXP SWAP1 DIV PUSH20 0xFFFFFFFFFFFFFFFFFFFFFFFFFFFFFFFFFFFFFFFF AND PUSH20 0xFFFFFFFFFFFFFFFFFFFFFFFFFFFFFFFFFFFFFFFF AND PUSH20 0xFFFFFFFFFFFFFFFFFFFFFFFFFFFFFFFFFFFFFFFF AND DUP2 MSTORE PUSH1 0x20 ADD PUSH1 0x2 DUP3 ADD PUSH1 0x0 SWAP1 SLOAD SWAP1 PUSH2 0x100 EXP SWAP1 DIV PUSH20 0xFFFFFFFFFFFFFFFFFFFFFFFFFFFFFFFFFFFFFFFF AND PUSH20 0xFFFFFFFFFFFFFFFFFFFFFFFFFFFFFFFFFFFFFFFF AND PUSH20 0xFFFFFFFFFFFFFFFFFFFFFFFFFFFFFFFFFFFFFFFF AND DUP2 MSTORE PUSH1 0x20 ADD PUSH1 0x2 DUP3 ADD PUSH1 0x14 SWAP1 SLOAD SWAP1 PUSH2 0x100 EXP SWAP1 DIV PUSH4 0xFFFFFFFF AND PUSH4 0xFFFFFFFF AND PUSH4 0xFFFFFFFF AND DUP2 MSTORE PUSH1 0x20 ADD PUSH1 0x2 DUP3 ADD PUSH1 0x18 SWAP1 SLOAD SWAP1 PUSH2 0x100 EXP SWAP1 DIV PUSH4 0xFFFFFFFF AND PUSH4 0xFFFFFFFF AND PUSH4 0xFFFFFFFF AND DUP2 MSTORE POP POP SWAP1 POP SWAP2 SWAP1 POP JUMP JUMPDEST PUSH1 0x1 PUSH1 0x20 MSTORE DUP1 PUSH1 0x0 MSTORE PUSH1 0x40 PUSH1 0x0 KECCAK256 PUSH1 0x0 SWAP2 POP SWAP1 POP DUP1 PUSH1 0x0 ADD SLOAD SWAP1 DUP1 PUSH1 0x1 ADD PUSH1 0x0 SWAP1 SLOAD SWAP1 PUSH2 0x100 EXP SWAP1 DIV PUSH20 0xFFFFFFFFFFFFFFFFFFFFFFFFFFFFFFFFFFFFFFFF AND SWAP1 DUP1 PUSH1 0x2 ADD PUSH1 0x0 SWAP1 SLOAD SWAP1 PUSH2 0x100 EXP SWAP1 DIV PUSH20 0xFFFFFFFFFFFFFFFFFFFFFFFFFFFFFFFFFFFFFFFF AND SWAP1 DUP1 PUSH1 0x2 ADD PUSH1 0x14 SWAP1 SLOAD SWAP1 PUSH2 0x100 EXP SWAP1 DIV PUSH4 0xFFFFFFFF AND SWAP1 DUP1 PUSH1 0x2 ADD PUSH1 0x18 SWAP1 SLOAD SWAP1 PUSH2 0x100 EXP SWAP1 DIV PUSH4 0xFFFFFFFF AND SWAP1 POP DUP6 JUMP JUMPDEST PUSH1 0x40 MLOAD DUP1 PUSH1 0xA0 ADD PUSH1 0x40 MSTORE DUP1 PUSH1 0x0 DUP2 MSTORE PUSH1 0x20 ADD PUSH1 0x0 PUSH20 0xFFFFFFFFFFFFFFFFFFFFFFFFFFFFFFFFFFFFFFFF AND DUP2 MSTORE PUSH1 0x20 ADD PUSH1 0x0 PUSH20 0xFFFFFFFFFFFFFFFFFFFFFFFFFFFFFFFFFFFFFFFF AND DUP2 MSTORE PUSH1 0x20 ADD PUSH1 0x0 PUSH4 0xFFFFFFFF AND DUP2 MSTORE PUSH1 0x20 ADD PUSH1 0x0 PUSH4 0xFFFFFFFF AND DUP2 MSTORE POP SWAP1 JUMP JUMPDEST PUSH1 0x0 DUP2 CALLDATALOAD SWAP1 POP PUSH2 0x90D DUP2 PUSH2 0xE3B JUMP JUMPDEST SWAP3 SWAP2 POP POP JUMP JUMPDEST PUSH1 0x0 DUP2 CALLDATALOAD SWAP1 POP PUSH2 0x922 DUP2 PUSH2 0xE52 JUMP JUMPDEST SWAP3 SWAP2 POP POP JUMP JUMPDEST PUSH1 0x0 DUP2 CALLDATALOAD SWAP1 POP PUSH2 0x937 DUP2 PUSH2 0xE69 JUMP JUMPDEST SWAP3 SWAP2 POP POP JUMP JUMPDEST PUSH1 0x0 PUSH1 0x20 DUP3 DUP5 SUB SLT ISZERO PUSH2 0x953 JUMPI PUSH2 0x952 PUSH2 0xE36 JUMP JUMPDEST JUMPDEST PUSH1 0x0 PUSH2 0x961 DUP5 DUP3 DUP6 ADD PUSH2 0x8FE JUMP JUMPDEST SWAP2 POP POP SWAP3 SWAP2 POP POP JUMP JUMPDEST PUSH1 0x0 DUP1 PUSH1 0x40 DUP4 DUP6 SUB SLT ISZERO PUSH2 0x981 JUMPI PUSH2 0x980 PUSH2 0xE36 JUMP JUMPDEST JUMPDEST PUSH1 0x0 PUSH2 0x98F DUP6 DUP3 DUP7 ADD PUSH2 0x8FE JUMP JUMPDEST SWAP3 POP POP PUSH1 0x20 PUSH2 0x9A0 DUP6 DUP3 DUP7 ADD PUSH2 0x913 JUMP JUMPDEST SWAP2 POP POP SWAP3 POP SWAP3 SWAP1 POP JUMP JUMPDEST PUSH1 0x0 PUSH1 0x20 DUP3 DUP5 SUB SLT ISZERO PUSH2 0x9C0 JUMPI PUSH2 0x9BF PUSH2 0xE36 JUMP JUMPDEST JUMPDEST PUSH1 0x0 PUSH2 0x9CE DUP5 DUP3 DUP6 ADD PUSH2 0x913 JUMP JUMPDEST SWAP2 POP POP SWAP3 SWAP2 POP POP JUMP JUMPDEST PUSH1 0x0 DUP1 PUSH1 0x0 DUP1 PUSH1 0x80 DUP6 DUP8 SUB SLT ISZERO PUSH2 0x9F1 JUMPI PUSH2 0x9F0 PUSH2 0xE36 JUMP JUMPDEST JUMPDEST PUSH1 0x0 PUSH2 0x9FF DUP8 DUP3 DUP9 ADD PUSH2 0x913 JUMP JUMPDEST SWAP5 POP POP PUSH1 0x20 PUSH2 0xA10 DUP8 DUP3 DUP9 ADD PUSH2 0x8FE JUMP JUMPDEST SWAP4 POP POP PUSH1 0x40 PUSH2 0xA21 DUP8 DUP3 DUP9 ADD PUSH2 0x8FE JUMP JUMPDEST SWAP3 POP POP PUSH1 0x60 PUSH2 0xA32 DUP8 DUP3 DUP9 ADD PUSH2 0x928 JUMP JUMPDEST SWAP2 POP POP SWAP3 SWAP6 SWAP2 SWAP5 POP SWAP3 POP JUMP JUMPDEST PUSH1 0x0 PUSH2 0xA4A DUP4 DUP4 PUSH2 0xAD2 JUMP JUMPDEST PUSH1 0xA0 DUP4 ADD SWAP1 POP SWAP3 SWAP2 POP POP JUMP JUMPDEST PUSH2 0xA5F DUP2 PUSH2 0xD14 JUMP JUMPDEST DUP3 MSTORE POP POP JUMP JUMPDEST PUSH2 0xA6E DUP2 PUSH2 0xD14 JUMP JUMPDEST DUP3 MSTORE POP POP JUMP JUMPDEST PUSH1 0x0 PUSH2 0xA7F DUP3 PUSH2 0xCEB JUMP JUMPDEST PUSH2 0xA89 DUP2 DUP6 PUSH2 0xD03 JUMP JUMPDEST SWAP4 POP PUSH2 0xA94 DUP4 PUSH2 0xCDB JUMP JUMPDEST DUP1 PUSH1 0x0 JUMPDEST DUP4 DUP2 LT ISZERO PUSH2 0xAC5 JUMPI DUP2 MLOAD PUSH2 0xAAC DUP9 DUP3 PUSH2 0xA3E JUMP JUMPDEST SWAP8 POP PUSH2 0xAB7 DUP4 PUSH2 0xCF6 JUMP JUMPDEST SWAP3 POP POP PUSH1 0x1 DUP2 ADD SWAP1 POP PUSH2 0xA98 JUMP JUMPDEST POP DUP6 SWAP4 POP POP POP POP SWAP3 SWAP2 POP POP JUMP JUMPDEST PUSH1 0xA0 DUP3 ADD PUSH1 0x0 DUP3 ADD MLOAD PUSH2 0xAE8 PUSH1 0x0 DUP6 ADD DUP3 PUSH2 0xBA2 JUMP JUMPDEST POP PUSH1 0x20 DUP3 ADD MLOAD PUSH2 0xAFB PUSH1 0x20 DUP6 ADD DUP3 PUSH2 0xA56 JUMP JUMPDEST POP PUSH1 0x40 DUP3 ADD MLOAD PUSH2 0xB0E PUSH1 0x40 DUP6 ADD DUP3 PUSH2 0xA56 JUMP JUMPDEST POP PUSH1 0x60 DUP3 ADD MLOAD PUSH2 0xB21 PUSH1 0x60 DUP6 ADD DUP3 PUSH2 0xBC0 JUMP JUMPDEST POP PUSH1 0x80 DUP3 ADD MLOAD PUSH2 0xB34 PUSH1 0x80 DUP6 ADD DUP3 PUSH2 0xBC0 JUMP JUMPDEST POP POP POP POP JUMP JUMPDEST PUSH1 0xA0 DUP3 ADD PUSH1 0x0 DUP3 ADD MLOAD PUSH2 0xB50 PUSH1 0x0 DUP6 ADD DUP3 PUSH2 0xBA2 JUMP JUMPDEST POP PUSH1 0x20 DUP3 ADD MLOAD PUSH2 0xB63 PUSH1 0x20 DUP6 ADD DUP3 PUSH2 0xA56 JUMP JUMPDEST POP PUSH1 0x40 DUP3 ADD MLOAD PUSH2 0xB76 PUSH1 0x40 DUP6 ADD DUP3 PUSH2 0xA56 JUMP JUMPDEST POP PUSH1 0x60 DUP3 ADD MLOAD PUSH2 0xB89 PUSH1 0x60 DUP6 ADD DUP3 PUSH2 0xBC0 JUMP JUMPDEST POP PUSH1 0x80 DUP3 ADD MLOAD PUSH2 0xB9C PUSH1 0x80 DUP6 ADD DUP3 PUSH2 0xBC0 JUMP JUMPDEST POP POP POP POP JUMP JUMPDEST PUSH2 0xBAB DUP2 PUSH2 0xD46 JUMP JUMPDEST DUP3 MSTORE POP POP JUMP JUMPDEST PUSH2 0xBBA DUP2 PUSH2 0xD46 JUMP JUMPDEST DUP3 MSTORE POP POP JUMP JUMPDEST PUSH2 0xBC9 DUP2 PUSH2 0xD50 JUMP JUMPDEST DUP3 MSTORE POP POP JUMP JUMPDEST PUSH2 0xBD8 DUP2 PUSH2 0xD50 JUMP JUMPDEST DUP3 MSTORE POP POP JUMP JUMPDEST PUSH1 0x0 PUSH1 0x60 DUP3 ADD SWAP1 POP PUSH2 0xBF3 PUSH1 0x0 DUP4 ADD DUP7 PUSH2 0xA65 JUMP JUMPDEST PUSH2 0xC00 PUSH1 0x20 DUP4 ADD DUP6 PUSH2 0xA65 JUMP JUMPDEST PUSH2 0xC0D PUSH1 0x40 DUP4 ADD DUP5 PUSH2 0xBCF JUMP JUMPDEST SWAP5 SWAP4 POP POP POP POP JUMP JUMPDEST PUSH1 0x0 PUSH1 0x20 DUP3 ADD SWAP1 POP DUP2 DUP2 SUB PUSH1 0x0 DUP4 ADD MSTORE PUSH2 0xC2F DUP2 DUP5 PUSH2 0xA74 JUMP JUMPDEST SWAP1 POP SWAP3 SWAP2 POP POP JUMP JUMPDEST PUSH1 0x0 PUSH1 0xA0 DUP3 ADD SWAP1 POP PUSH2 0xC4C PUSH1 0x0 DUP4 ADD DUP5 PUSH2 0xB3A JUMP JUMPDEST SWAP3 SWAP2 POP POP JUMP JUMPDEST PUSH1 0x0 PUSH1 0x20 DUP3 ADD SWAP1 POP PUSH2 0xC67 PUSH1 0x0 DUP4 ADD DUP5 PUSH2 0xBB1 JUMP JUMPDEST SWAP3 SWAP2 POP POP JUMP JUMPDEST PUSH1 0x0 PUSH1 0xA0 DUP3 ADD SWAP1 POP PUSH2 0xC82 PUSH1 0x0 DUP4 ADD DUP9 PUSH2 0xBB1 JUMP JUMPDEST PUSH2 0xC8F PUSH1 0x20 DUP4 ADD DUP8 PUSH2 0xA65 JUMP JUMPDEST PUSH2 0xC9C PUSH1 0x40 DUP4 ADD DUP7 PUSH2 0xA65 JUMP JUMPDEST PUSH2 0xCA9 PUSH1 0x60 DUP4 ADD DUP6 PUSH2 0xBCF JUMP JUMPDEST PUSH2 0xCB6 PUSH1 0x80 DUP4 ADD DUP5 PUSH2 0xBCF JUMP JUMPDEST SWAP7 SWAP6 POP POP POP POP POP POP JUMP JUMPDEST PUSH1 0x0 PUSH1 0x20 DUP3 ADD SWAP1 POP PUSH2 0xCD5 PUSH1 0x0 DUP4 ADD DUP5 PUSH2 0xBCF JUMP JUMPDEST SWAP3 SWAP2 POP POP JUMP JUMPDEST PUSH1 0x0 DUP2 SWAP1 POP PUSH1 0x20 DUP3 ADD SWAP1 POP SWAP2 SWAP1 POP JUMP JUMPDEST PUSH1 0x0 DUP2 MLOAD SWAP1 POP SWAP2 SWAP1 POP JUMP JUMPDEST PUSH1 0x0 PUSH1 0x20 DUP3 ADD SWAP1 POP SWAP2 SWAP1 POP JUMP JUMPDEST PUSH1 0x0 DUP3 DUP3 MSTORE PUSH1 0x20 DUP3 ADD SWAP1 POP SWAP3 SWAP2 POP POP JUMP JUMPDEST PUSH1 0x0 PUSH2 0xD1F DUP3 PUSH2 0xD26 JUMP JUMPDEST SWAP1 POP SWAP2 SWAP1 POP JUMP JUMPDEST PUSH1 0x0 PUSH20 0xFFFFFFFFFFFFFFFFFFFFFFFFFFFFFFFFFFFFFFFF DUP3 AND SWAP1 POP SWAP2 SWAP1 POP JUMP JUMPDEST PUSH1 0x0 DUP2 SWAP1 POP SWAP2 SWAP1 POP JUMP JUMPDEST PUSH1 0x0 PUSH4 0xFFFFFFFF DUP3 AND SWAP1 POP SWAP2 SWAP1 POP JUMP JUMPDEST PUSH1 0x0 PUSH2 0xD6B DUP3 PUSH2 0xD46 JUMP JUMPDEST SWAP2 POP PUSH32 0xFFFFFFFFFFFFFFFFFFFFFFFFFFFFFFFFFFFFFFFFFFFFFFFFFFFFFFFFFFFFFFFF DUP3 EQ ISZERO PUSH2 0xD9E JUMPI PUSH2 0xD9D PUSH2 0xDA9 JUMP JUMPDEST JUMPDEST PUSH1 0x1 DUP3 ADD SWAP1 POP SWAP2 SWAP1 POP JUMP JUMPDEST PUSH32 0x4E487B7100000000000000000000000000000000000000000000000000000000 PUSH1 0x0 MSTORE PUSH1 0x11 PUSH1 0x4 MSTORE PUSH1 0x24 PUSH1 0x0 REVERT JUMPDEST PUSH32 0x4E487B7100000000000000000000000000000000000000000000000000000000 PUSH1 0x0 MSTORE PUSH1 0x32 PUSH1 0x4 MSTORE PUSH1 0x24 PUSH1 0x0 REVERT JUMPDEST PUSH32 0x4E487B7100000000000000000000000000000000000000000000000000000000 PUSH1 0x0 MSTORE PUSH1 0x41 PUSH1 0x4 MSTORE PUSH1 0x24 PUSH1 0x0 REVERT JUMPDEST PUSH1 0x0 DUP1 REVERT JUMPDEST PUSH2 0xE44 DUP2 PUSH2 0xD14 JUMP JUMPDEST DUP2 EQ PUSH2 0xE4F JUMPI PUSH1 0x0 DUP1 REVERT JUMPDEST POP JUMP JUMPDEST PUSH2 0xE5B DUP2 PUSH2 0xD46 JUMP JUMPDEST DUP2 EQ PUSH2 0xE66 JUMPI PUSH1 0x0 DUP1 REVERT JUMPDEST POP JUMP JUMPDEST PUSH2 0xE72 DUP2 PUSH2 0xD50 JUMP JUMPDEST DUP2 EQ PUSH2 0xE7D JUMPI PUSH1 0x0 DUP1 REVERT JUMPDEST POP JUMP INVALID LOG2 PUSH5 0x6970667358 0x22 SLT KECCAK256 CREATE2 0xE6 0xA5 0xD8 NOT JUMPI 0xB4 RETURNDATASIZE 0xE0 COINBASE SWAP7 SSTORE 0xB3 SMOD DUP2 0xE8 0xDF ADDMOD LOG4 CALLER EXTCODEHASH 0x1E 0xF9 BLOCKHASH 0xF7 PUSH2 0x70D5 0xEE 0xED CREATE CALLCODE PUSH5 0x736F6C6343 STOP ADDMOD SMOD STOP CALLER "
				},
				"gasEstimates": {
					"creation": {
						"codeDepositCost": "753200",
						"executionCost": "22892",
						"totalCost": "776092"
					},
					"external": {
						"getAllSmIdForManufacturer(address)": "infinite",
						"getProduct(uint256)": "infinite",
						"manufacturerTosmIdMapping(address,uint256)": "infinite",
						"receiveProduct(uint256)": "26002",
						"smId()": "2430",
						"smIdToStructMapping(uint256)": "infinite",
						"transferProduct(uint256,address,address,uint32)": "infinite"
					}
				},
				"methodIdentifiers": {
					"getAllSmIdForManufacturer(address)": "70b775a0",
					"getProduct(uint256)": "b9db15b4",
					"manufacturerTosmIdMapping(address,uint256)": "1001f30f",
					"receiveProduct(uint256)": "29d78328",
					"smId()": "029e2fe4",
					"smIdToStructMapping(uint256)": "ec02181a",
					"transferProduct(uint256,address,address,uint32)": "055498bd"
				}
			},
			"storageLayout": {
				"storage": [
					{
						"astId": 54,
						"contract": "contracts/supplierManufacturer.sol:supplierManufacturer",
						"label": "smId",
						"offset": 0,
						"slot": "0",
						"type": "t_uint256"
					},
					{
						"astId": 60,
						"contract": "contracts/supplierManufacturer.sol:supplierManufacturer",
						"label": "smIdToStructMapping",
						"offset": 0,
						"slot": "1",
						"type": "t_mapping(t_uint256,t_struct(supplierManufacturer)12_storage)"
					},
					{
						"astId": 66,
						"contract": "contracts/supplierManufacturer.sol:supplierManufacturer",
						"label": "manufacturerTosmIdMapping",
						"offset": 0,
						"slot": "2",
						"type": "t_mapping(t_address,t_array(t_uint256)dyn_storage)"
					}
				],
				"types": {
					"t_address": {
						"encoding": "inplace",
						"label": "address",
						"numberOfBytes": "20"
					},
					"t_array(t_uint256)dyn_storage": {
						"base": "t_uint256",
						"encoding": "dynamic_array",
						"label": "uint256[]",
						"numberOfBytes": "32"
					},
					"t_mapping(t_address,t_array(t_uint256)dyn_storage)": {
						"encoding": "mapping",
						"key": "t_address",
						"label": "mapping(address => uint256[])",
						"numberOfBytes": "32",
						"value": "t_array(t_uint256)dyn_storage"
					},
					"t_mapping(t_uint256,t_struct(supplierManufacturer)12_storage)": {
						"encoding": "mapping",
						"key": "t_uint256",
						"label": "mapping(uint256 => struct ISupplierManufacturer.supplierManufacturer)",
						"numberOfBytes": "32",
						"value": "t_struct(supplierManufacturer)12_storage"
					},
					"t_struct(supplierManufacturer)12_storage": {
						"encoding": "inplace",
						"label": "struct ISupplierManufacturer.supplierManufacturer",
						"members": [
							{
								"astId": 3,
								"contract": "contracts/supplierManufacturer.sol:supplierManufacturer",
								"label": "spId",
								"offset": 0,
								"slot": "0",
								"type": "t_uint256"
							},
							{
								"astId": 5,
								"contract": "contracts/supplierManufacturer.sol:supplierManufacturer",
								"label": "supplierAddress",
								"offset": 0,
								"slot": "1",
								"type": "t_address"
							},
							{
								"astId": 7,
								"contract": "contracts/supplierManufacturer.sol:supplierManufacturer",
								"label": "manufacturerAddress",
								"offset": 0,
								"slot": "2",
								"type": "t_address"
							},
							{
								"astId": 9,
								"contract": "contracts/supplierManufacturer.sol:supplierManufacturer",
								"label": "dispatchTime",
								"offset": 20,
								"slot": "2",
								"type": "t_uint32"
							},
							{
								"astId": 11,
								"contract": "contracts/supplierManufacturer.sol:supplierManufacturer",
								"label": "arrivalTime",
								"offset": 24,
								"slot": "2",
								"type": "t_uint32"
							}
						],
						"numberOfBytes": "96"
					},
					"t_uint256": {
						"encoding": "inplace",
						"label": "uint256",
						"numberOfBytes": "32"
					},
					"t_uint32": {
						"encoding": "inplace",
						"label": "uint32",
						"numberOfBytes": "4"
					}
				}
			},
			"userdoc": {
				"kind": "user",
				"methods": {
					"getAllSmIdForManufacturer(address)": {
						"notice": "function to get all trasnfers manufacturer has received"
					},
					"getProduct(uint256)": {
						"notice": "function to get all transfer information"
					},
					"manufacturerTosmIdMapping(address,uint256)": {
						"notice": "mapping address with all the created smIds"
					},
					"receiveProduct(uint256)": {
						"notice": "function to update that the product has been received"
					},
					"smIdToStructMapping(uint256)": {
						"notice": "mapping smId index with supplierManufacturer"
					},
					"transferProduct(uint256,address,address,uint32)": {
						"notice": "function to transfer product from supplier to manufacturer"
					}
				},
				"notice": "Uses ISupplierManufacturer interface",
				"version": 1
			}
		}
	}
}