{
	"contracts/distributorProduct.sol": {
		"distributorProduct": {
			"abi": [
				{
					"inputs": [
						{
							"internalType": "address[]",
							"name": "_manufacturerAddress",
							"type": "address[]"
						},
						{
							"internalType": "bytes[]",
							"name": "_md_id",
							"type": "bytes[]"
						},
						{
							"internalType": "bytes",
							"name": "_name",
							"type": "bytes"
						},
						{
							"internalType": "bytes",
							"name": "_description",
							"type": "bytes"
						},
						{
							"internalType": "bytes",
							"name": "_unit",
							"type": "bytes"
						},
						{
							"internalType": "bytes",
							"name": "_price",
							"type": "bytes"
						},
						{
							"internalType": "bytes",
							"name": "_date",
							"type": "bytes"
						},
						{
							"internalType": "bytes",
							"name": "_expiryDate",
							"type": "bytes"
						}
					],
					"name": "addDistributorProduct",
					"outputs": [],
					"stateMutability": "nonpayable",
					"type": "function"
				},
				{
					"inputs": [
						{
							"internalType": "address",
							"name": "",
							"type": "address"
						},
						{
							"internalType": "uint256",
							"name": "",
							"type": "uint256"
						}
					],
					"name": "addressToproductsIdMapping",
					"outputs": [
						{
							"internalType": "uint256",
							"name": "",
							"type": "uint256"
						}
					],
					"stateMutability": "view",
					"type": "function"
				},
				{
					"inputs": [
						{
							"internalType": "uint256",
							"name": "_id",
							"type": "uint256"
						}
					],
					"name": "deleteProduct",
					"outputs": [],
					"stateMutability": "nonpayable",
					"type": "function"
				},
				{
					"inputs": [
						{
							"internalType": "address",
							"name": "_distributorAddress",
							"type": "address"
						}
					],
					"name": "getAllProductsOfDistributor",
					"outputs": [
						{
							"components": [
								{
									"internalType": "address[]",
									"name": "manufacturerAddress",
									"type": "address[]"
								},
								{
									"internalType": "bytes[]",
									"name": "md_id",
									"type": "bytes[]"
								},
								{
									"internalType": "bytes",
									"name": "dp_name",
									"type": "bytes"
								},
								{
									"internalType": "bytes",
									"name": "dp_description",
									"type": "bytes"
								},
								{
									"internalType": "bytes",
									"name": "dp_unit",
									"type": "bytes"
								},
								{
									"internalType": "bytes",
									"name": "dp_price",
									"type": "bytes"
								},
								{
									"internalType": "bytes",
									"name": "dp_date",
									"type": "bytes"
								},
								{
									"internalType": "bytes",
									"name": "dp_expiryDate",
									"type": "bytes"
								}
							],
							"internalType": "struct IDistributorProduct.distributorProduct[]",
							"name": "",
							"type": "tuple[]"
						}
					],
					"stateMutability": "view",
					"type": "function"
				},
				{
					"inputs": [],
					"name": "getDistributorProductIds",
					"outputs": [
						{
							"internalType": "uint256[]",
							"name": "",
							"type": "uint256[]"
						}
					],
					"stateMutability": "view",
					"type": "function"
				},
				{
					"inputs": [
						{
							"internalType": "uint256",
							"name": "_id",
							"type": "uint256"
						}
					],
					"name": "getSingleProduct",
					"outputs": [
						{
							"components": [
								{
									"internalType": "address[]",
									"name": "manufacturerAddress",
									"type": "address[]"
								},
								{
									"internalType": "bytes[]",
									"name": "md_id",
									"type": "bytes[]"
								},
								{
									"internalType": "bytes",
									"name": "dp_name",
									"type": "bytes"
								},
								{
									"internalType": "bytes",
									"name": "dp_description",
									"type": "bytes"
								},
								{
									"internalType": "bytes",
									"name": "dp_unit",
									"type": "bytes"
								},
								{
									"internalType": "bytes",
									"name": "dp_price",
									"type": "bytes"
								},
								{
									"internalType": "bytes",
									"name": "dp_date",
									"type": "bytes"
								},
								{
									"internalType": "bytes",
									"name": "dp_expiryDate",
									"type": "bytes"
								}
							],
							"internalType": "struct IDistributorProduct.distributorProduct",
							"name": "",
							"type": "tuple"
						}
					],
					"stateMutability": "view",
					"type": "function"
				},
				{
					"inputs": [
						{
							"internalType": "uint256",
							"name": "",
							"type": "uint256"
						}
					],
					"name": "productsIdMappingToStructMapping",
					"outputs": [
						{
							"internalType": "bytes",
							"name": "dp_name",
							"type": "bytes"
						},
						{
							"internalType": "bytes",
							"name": "dp_description",
							"type": "bytes"
						},
						{
							"internalType": "bytes",
							"name": "dp_unit",
							"type": "bytes"
						},
						{
							"internalType": "bytes",
							"name": "dp_price",
							"type": "bytes"
						},
						{
							"internalType": "bytes",
							"name": "dp_date",
							"type": "bytes"
						},
						{
							"internalType": "bytes",
							"name": "dp_expiryDate",
							"type": "bytes"
						}
					],
					"stateMutability": "view",
					"type": "function"
				}
			],
			"devdoc": {
				"kind": "dev",
				"methods": {},
				"version": 1
			},
			"evm": {
				"assembly": "    /* \"contracts/distributorProduct.sol\":120:2040  contract distributorProduct is IDistributorProduct{... */\n  mstore(0x40, 0x80)\n    /* \"contracts/distributorProduct.sol\":199:200  1 */\n  0x01\n    /* \"contracts/distributorProduct.sol\":177:200  uint productCounter = 1 */\n  0x00\n  sstore\n    /* \"contracts/distributorProduct.sol\":120:2040  contract distributorProduct is IDistributorProduct{... */\n  callvalue\n  dup1\n  iszero\n  tag_1\n  jumpi\n  0x00\n  dup1\n  revert\ntag_1:\n  pop\n  dataSize(sub_0)\n  dup1\n  dataOffset(sub_0)\n  0x00\n  codecopy\n  0x00\n  return\nstop\n\nsub_0: assembly {\n        /* \"contracts/distributorProduct.sol\":120:2040  contract distributorProduct is IDistributorProduct{... */\n      mstore(0x40, 0x80)\n      callvalue\n      dup1\n      iszero\n      tag_1\n      jumpi\n      0x00\n      dup1\n      revert\n    tag_1:\n      pop\n      jumpi(tag_2, lt(calldatasize, 0x04))\n      shr(0xe0, calldataload(0x00))\n      dup1\n      0x9c9ed59f\n      gt\n      tag_10\n      jumpi\n      dup1\n      0x9c9ed59f\n      eq\n      tag_6\n      jumpi\n      dup1\n      0x9e9c191d\n      eq\n      tag_7\n      jumpi\n      dup1\n      0xed90c7b7\n      eq\n      tag_8\n      jumpi\n      dup1\n      0xf1afff56\n      eq\n      tag_9\n      jumpi\n      jump(tag_2)\n    tag_10:\n      dup1\n      0x21c6f9e5\n      eq\n      tag_3\n      jumpi\n      dup1\n      0x2e1f9763\n      eq\n      tag_4\n      jumpi\n      dup1\n      0x987259a6\n      eq\n      tag_5\n      jumpi\n    tag_2:\n      0x00\n      dup1\n      revert\n        /* \"contracts/distributorProduct.sol\":314:374  mapping(address => uint[]) public addressToproductsIdMapping */\n    tag_3:\n      tag_11\n      0x04\n      dup1\n      calldatasize\n      sub\n      dup2\n      add\n      swap1\n      tag_12\n      swap2\n      swap1\n      tag_13\n      jump\t// in\n    tag_12:\n      tag_14\n      jump\t// in\n    tag_11:\n      mload(0x40)\n      tag_15\n      swap2\n      swap1\n      tag_16\n      jump\t// in\n    tag_15:\n      mload(0x40)\n      dup1\n      swap2\n      sub\n      swap1\n      return\n        /* \"contracts/distributorProduct.sol\":1273:1418  function getSingleProduct(uint _id) public view returns(distributorProduct memory){... */\n    tag_4:\n      tag_17\n      0x04\n      dup1\n      calldatasize\n      sub\n      dup2\n      add\n      swap1\n      tag_18\n      swap2\n      swap1\n      tag_19\n      jump\t// in\n    tag_18:\n      tag_20\n      jump\t// in\n    tag_17:\n      mload(0x40)\n      tag_21\n      swap2\n      swap1\n      tag_22\n      jump\t// in\n    tag_21:\n      mload(0x40)\n      dup1\n      swap2\n      sub\n      swap1\n      return\n        /* \"contracts/distributorProduct.sol\":619:1123  function addDistributorProduct(address[] memory _manufacturerAddress,bytes[] memory _md_id, bytes calldata _name,bytes calldata _description,bytes memory _unit,bytes memory _price,bytes memory _date,bytes memory _expiryDate)public override {... */\n    tag_5:\n      tag_23\n      0x04\n      dup1\n      calldatasize\n      sub\n      dup2\n      add\n      swap1\n      tag_24\n      swap2\n      swap1\n      tag_25\n      jump\t// in\n    tag_24:\n      tag_26\n      jump\t// in\n    tag_23:\n      stop\n        /* \"contracts/distributorProduct.sol\":1131:1265  function getDistributorProductIds() public view returns(uint[] memory){... */\n    tag_6:\n      tag_27\n      tag_28\n      jump\t// in\n    tag_27:\n      mload(0x40)\n      tag_29\n      swap2\n      swap1\n      tag_30\n      jump\t// in\n    tag_29:\n      mload(0x40)\n      dup1\n      swap2\n      sub\n      swap1\n      return\n        /* \"contracts/distributorProduct.sol\":232:307  mapping(uint => distributorProduct) public productsIdMappingToStructMapping */\n    tag_7:\n      tag_31\n      0x04\n      dup1\n      calldatasize\n      sub\n      dup2\n      add\n      swap1\n      tag_32\n      swap2\n      swap1\n      tag_19\n      jump\t// in\n    tag_32:\n      tag_33\n      jump\t// in\n    tag_31:\n      mload(0x40)\n      tag_34\n      swap7\n      swap6\n      swap5\n      swap4\n      swap3\n      swap2\n      swap1\n      tag_35\n      jump\t// in\n    tag_34:\n      mload(0x40)\n      dup1\n      swap2\n      sub\n      swap1\n      return\n        /* \"contracts/distributorProduct.sol\":1925:2037  function deleteProduct(uint _id)external override{... */\n    tag_8:\n      tag_36\n      0x04\n      dup1\n      calldatasize\n      sub\n      dup2\n      add\n      swap1\n      tag_37\n      swap2\n      swap1\n      tag_19\n      jump\t// in\n    tag_37:\n      tag_38\n      jump\t// in\n    tag_36:\n      stop\n        /* \"contracts/distributorProduct.sol\":1426:1917  function getAllProductsOfDistributor(address _distributorAddress) public view returns(distributorProduct[] memory)... */\n    tag_9:\n      tag_39\n      0x04\n      dup1\n      calldatasize\n      sub\n      dup2\n      add\n      swap1\n      tag_40\n      swap2\n      swap1\n      tag_41\n      jump\t// in\n    tag_40:\n      tag_42\n      jump\t// in\n    tag_39:\n      mload(0x40)\n      tag_43\n      swap2\n      swap1\n      tag_44\n      jump\t// in\n    tag_43:\n      mload(0x40)\n      dup1\n      swap2\n      sub\n      swap1\n      return\n        /* \"contracts/distributorProduct.sol\":314:374  mapping(address => uint[]) public addressToproductsIdMapping */\n    tag_14:\n      mstore(0x20, 0x03)\n      dup2\n      0x00\n      mstore\n      keccak256(0x00, 0x40)\n      dup2\n      dup2\n      sload\n      dup2\n      lt\n      tag_45\n      jumpi\n      0x00\n      dup1\n      revert\n    tag_45:\n      swap1\n      0x00\n      mstore\n      keccak256(0x00, 0x20)\n      add\n      0x00\n      swap2\n      pop\n      swap2\n      pop\n      pop\n      sload\n      dup2\n      jump\t// out\n        /* \"contracts/distributorProduct.sol\":1273:1418  function getSingleProduct(uint _id) public view returns(distributorProduct memory){... */\n    tag_20:\n        /* \"contracts/distributorProduct.sol\":1329:1354  distributorProduct memory */\n      tag_47\n      tag_48\n      jump\t// in\n    tag_47:\n        /* \"contracts/distributorProduct.sol\":1373:1405  productsIdMappingToStructMapping */\n      0x02\n        /* \"contracts/distributorProduct.sol\":1373:1410  productsIdMappingToStructMapping[_id] */\n      0x00\n        /* \"contracts/distributorProduct.sol\":1406:1409  _id */\n      dup4\n        /* \"contracts/distributorProduct.sol\":1373:1410  productsIdMappingToStructMapping[_id] */\n      dup2\n      mstore\n      0x20\n      add\n      swap1\n      dup2\n      mstore\n      0x20\n      add\n      0x00\n      keccak256\n        /* \"contracts/distributorProduct.sol\":1366:1410  return productsIdMappingToStructMapping[_id] */\n      mload(0x40)\n      dup1\n      0x0100\n      add\n      0x40\n      mstore\n      swap1\n      dup2\n      0x00\n      dup3\n      add\n      dup1\n      sload\n      dup1\n      0x20\n      mul\n      0x20\n      add\n      mload(0x40)\n      swap1\n      dup2\n      add\n      0x40\n      mstore\n      dup1\n      swap3\n      swap2\n      swap1\n      dup2\n      dup2\n      mstore\n      0x20\n      add\n      dup3\n      dup1\n      sload\n      dup1\n      iszero\n      tag_50\n      jumpi\n      0x20\n      mul\n      dup3\n      add\n      swap2\n      swap1\n      0x00\n      mstore\n      keccak256(0x00, 0x20)\n      swap1\n    tag_51:\n      dup2\n      0x00\n      swap1\n      sload\n      swap1\n      0x0100\n      exp\n      swap1\n      div\n      0xffffffffffffffffffffffffffffffffffffffff\n      and\n      0xffffffffffffffffffffffffffffffffffffffff\n      and\n      dup2\n      mstore\n      0x20\n      add\n      swap1\n      0x01\n      add\n      swap1\n      dup1\n      dup4\n      gt\n      tag_51\n      jumpi\n    tag_50:\n      pop\n      pop\n      pop\n      pop\n      pop\n      dup2\n      mstore\n      0x20\n      add\n      0x01\n      dup3\n      add\n      dup1\n      sload\n      dup1\n      0x20\n      mul\n      0x20\n      add\n      mload(0x40)\n      swap1\n      dup2\n      add\n      0x40\n      mstore\n      dup1\n      swap3\n      swap2\n      swap1\n      dup2\n      dup2\n      mstore\n      0x20\n      add\n      0x00\n      swap1\n    tag_52:\n      dup3\n      dup3\n      lt\n      iszero\n      tag_53\n      jumpi\n      dup4\n      dup3\n      swap1\n      0x00\n      mstore\n      keccak256(0x00, 0x20)\n      add\n      dup1\n      sload\n      tag_55\n      swap1\n      tag_56\n      jump\t// in\n    tag_55:\n      dup1\n      0x1f\n      add\n      0x20\n      dup1\n      swap2\n      div\n      mul\n      0x20\n      add\n      mload(0x40)\n      swap1\n      dup2\n      add\n      0x40\n      mstore\n      dup1\n      swap3\n      swap2\n      swap1\n      dup2\n      dup2\n      mstore\n      0x20\n      add\n      dup3\n      dup1\n      sload\n      tag_57\n      swap1\n      tag_56\n      jump\t// in\n    tag_57:\n      dup1\n      iszero\n      tag_58\n      jumpi\n      dup1\n      0x1f\n      lt\n      tag_59\n      jumpi\n      0x0100\n      dup1\n      dup4\n      sload\n      div\n      mul\n      dup4\n      mstore\n      swap2\n      0x20\n      add\n      swap2\n      jump(tag_58)\n    tag_59:\n      dup3\n      add\n      swap2\n      swap1\n      0x00\n      mstore\n      keccak256(0x00, 0x20)\n      swap1\n    tag_60:\n      dup2\n      sload\n      dup2\n      mstore\n      swap1\n      0x01\n      add\n      swap1\n      0x20\n      add\n      dup1\n      dup4\n      gt\n      tag_60\n      jumpi\n      dup3\n      swap1\n      sub\n      0x1f\n      and\n      dup3\n      add\n      swap2\n    tag_58:\n      pop\n      pop\n      pop\n      pop\n      pop\n      dup2\n      mstore\n      0x20\n      add\n      swap1\n      0x01\n      add\n      swap1\n      jump(tag_52)\n    tag_53:\n      pop\n      pop\n      pop\n      pop\n      dup2\n      mstore\n      0x20\n      add\n      0x02\n      dup3\n      add\n      dup1\n      sload\n      tag_61\n      swap1\n      tag_56\n      jump\t// in\n    tag_61:\n      dup1\n      0x1f\n      add\n      0x20\n      dup1\n      swap2\n      div\n      mul\n      0x20\n      add\n      mload(0x40)\n      swap1\n      dup2\n      add\n      0x40\n      mstore\n      dup1\n      swap3\n      swap2\n      swap1\n      dup2\n      dup2\n      mstore\n      0x20\n      add\n      dup3\n      dup1\n      sload\n      tag_62\n      swap1\n      tag_56\n      jump\t// in\n    tag_62:\n      dup1\n      iszero\n      tag_63\n      jumpi\n      dup1\n      0x1f\n      lt\n      tag_64\n      jumpi\n      0x0100\n      dup1\n      dup4\n      sload\n      div\n      mul\n      dup4\n      mstore\n      swap2\n      0x20\n      add\n      swap2\n      jump(tag_63)\n    tag_64:\n      dup3\n      add\n      swap2\n      swap1\n      0x00\n      mstore\n      keccak256(0x00, 0x20)\n      swap1\n    tag_65:\n      dup2\n      sload\n      dup2\n      mstore\n      swap1\n      0x01\n      add\n      swap1\n      0x20\n      add\n      dup1\n      dup4\n      gt\n      tag_65\n      jumpi\n      dup3\n      swap1\n      sub\n      0x1f\n      and\n      dup3\n      add\n      swap2\n    tag_63:\n      pop\n      pop\n      pop\n      pop\n      pop\n      dup2\n      mstore\n      0x20\n      add\n      0x03\n      dup3\n      add\n      dup1\n      sload\n      tag_66\n      swap1\n      tag_56\n      jump\t// in\n    tag_66:\n      dup1\n      0x1f\n      add\n      0x20\n      dup1\n      swap2\n      div\n      mul\n      0x20\n      add\n      mload(0x40)\n      swap1\n      dup2\n      add\n      0x40\n      mstore\n      dup1\n      swap3\n      swap2\n      swap1\n      dup2\n      dup2\n      mstore\n      0x20\n      add\n      dup3\n      dup1\n      sload\n      tag_67\n      swap1\n      tag_56\n      jump\t// in\n    tag_67:\n      dup1\n      iszero\n      tag_68\n      jumpi\n      dup1\n      0x1f\n      lt\n      tag_69\n      jumpi\n      0x0100\n      dup1\n      dup4\n      sload\n      div\n      mul\n      dup4\n      mstore\n      swap2\n      0x20\n      add\n      swap2\n      jump(tag_68)\n    tag_69:\n      dup3\n      add\n      swap2\n      swap1\n      0x00\n      mstore\n      keccak256(0x00, 0x20)\n      swap1\n    tag_70:\n      dup2\n      sload\n      dup2\n      mstore\n      swap1\n      0x01\n      add\n      swap1\n      0x20\n      add\n      dup1\n      dup4\n      gt\n      tag_70\n      jumpi\n      dup3\n      swap1\n      sub\n      0x1f\n      and\n      dup3\n      add\n      swap2\n    tag_68:\n      pop\n      pop\n      pop\n      pop\n      pop\n      dup2\n      mstore\n      0x20\n      add\n      0x04\n      dup3\n      add\n      dup1\n      sload\n      tag_71\n      swap1\n      tag_56\n      jump\t// in\n    tag_71:\n      dup1\n      0x1f\n      add\n      0x20\n      dup1\n      swap2\n      div\n      mul\n      0x20\n      add\n      mload(0x40)\n      swap1\n      dup2\n      add\n      0x40\n      mstore\n      dup1\n      swap3\n      swap2\n      swap1\n      dup2\n      dup2\n      mstore\n      0x20\n      add\n      dup3\n      dup1\n      sload\n      tag_72\n      swap1\n      tag_56\n      jump\t// in\n    tag_72:\n      dup1\n      iszero\n      tag_73\n      jumpi\n      dup1\n      0x1f\n      lt\n      tag_74\n      jumpi\n      0x0100\n      dup1\n      dup4\n      sload\n      div\n      mul\n      dup4\n      mstore\n      swap2\n      0x20\n      add\n      swap2\n      jump(tag_73)\n    tag_74:\n      dup3\n      add\n      swap2\n      swap1\n      0x00\n      mstore\n      keccak256(0x00, 0x20)\n      swap1\n    tag_75:\n      dup2\n      sload\n      dup2\n      mstore\n      swap1\n      0x01\n      add\n      swap1\n      0x20\n      add\n      dup1\n      dup4\n      gt\n      tag_75\n      jumpi\n      dup3\n      swap1\n      sub\n      0x1f\n      and\n      dup3\n      add\n      swap2\n    tag_73:\n      pop\n      pop\n      pop\n      pop\n      pop\n      dup2\n      mstore\n      0x20\n      add\n      0x05\n      dup3\n      add\n      dup1\n      sload\n      tag_76\n      swap1\n      tag_56\n      jump\t// in\n    tag_76:\n      dup1\n      0x1f\n      add\n      0x20\n      dup1\n      swap2\n      div\n      mul\n      0x20\n      add\n      mload(0x40)\n      swap1\n      dup2\n      add\n      0x40\n      mstore\n      dup1\n      swap3\n      swap2\n      swap1\n      dup2\n      dup2\n      mstore\n      0x20\n      add\n      dup3\n      dup1\n      sload\n      tag_77\n      swap1\n      tag_56\n      jump\t// in\n    tag_77:\n      dup1\n      iszero\n      tag_78\n      jumpi\n      dup1\n      0x1f\n      lt\n      tag_79\n      jumpi\n      0x0100\n      dup1\n      dup4\n      sload\n      div\n      mul\n      dup4\n      mstore\n      swap2\n      0x20\n      add\n      swap2\n      jump(tag_78)\n    tag_79:\n      dup3\n      add\n      swap2\n      swap1\n      0x00\n      mstore\n      keccak256(0x00, 0x20)\n      swap1\n    tag_80:\n      dup2\n      sload\n      dup2\n      mstore\n      swap1\n      0x01\n      add\n      swap1\n      0x20\n      add\n      dup1\n      dup4\n      gt\n      tag_80\n      jumpi\n      dup3\n      swap1\n      sub\n      0x1f\n      and\n      dup3\n      add\n      swap2\n    tag_78:\n      pop\n      pop\n      pop\n      pop\n      pop\n      dup2\n      mstore\n      0x20\n      add\n      0x06\n      dup3\n      add\n      dup1\n      sload\n      tag_81\n      swap1\n      tag_56\n      jump\t// in\n    tag_81:\n      dup1\n      0x1f\n      add\n      0x20\n      dup1\n      swap2\n      div\n      mul\n      0x20\n      add\n      mload(0x40)\n      swap1\n      dup2\n      add\n      0x40\n      mstore\n      dup1\n      swap3\n      swap2\n      swap1\n      dup2\n      dup2\n      mstore\n      0x20\n      add\n      dup3\n      dup1\n      sload\n      tag_82\n      swap1\n      tag_56\n      jump\t// in\n    tag_82:\n      dup1\n      iszero\n      tag_83\n      jumpi\n      dup1\n      0x1f\n      lt\n      tag_84\n      jumpi\n      0x0100\n      dup1\n      dup4\n      sload\n      div\n      mul\n      dup4\n      mstore\n      swap2\n      0x20\n      add\n      swap2\n      jump(tag_83)\n    tag_84:\n      dup3\n      add\n      swap2\n      swap1\n      0x00\n      mstore\n      keccak256(0x00, 0x20)\n      swap1\n    tag_85:\n      dup2\n      sload\n      dup2\n      mstore\n      swap1\n      0x01\n      add\n      swap1\n      0x20\n      add\n      dup1\n      dup4\n      gt\n      tag_85\n      jumpi\n      dup3\n      swap1\n      sub\n      0x1f\n      and\n      dup3\n      add\n      swap2\n    tag_83:\n      pop\n      pop\n      pop\n      pop\n      pop\n      dup2\n      mstore\n      0x20\n      add\n      0x07\n      dup3\n      add\n      dup1\n      sload\n      tag_86\n      swap1\n      tag_56\n      jump\t// in\n    tag_86:\n      dup1\n      0x1f\n      add\n      0x20\n      dup1\n      swap2\n      div\n      mul\n      0x20\n      add\n      mload(0x40)\n      swap1\n      dup2\n      add\n      0x40\n      mstore\n      dup1\n      swap3\n      swap2\n      swap1\n      dup2\n      dup2\n      mstore\n      0x20\n      add\n      dup3\n      dup1\n      sload\n      tag_87\n      swap1\n      tag_56\n      jump\t// in\n    tag_87:\n      dup1\n      iszero\n      tag_88\n      jumpi\n      dup1\n      0x1f\n      lt\n      tag_89\n      jumpi\n      0x0100\n      dup1\n      dup4\n      sload\n      div\n      mul\n      dup4\n      mstore\n      swap2\n      0x20\n      add\n      swap2\n      jump(tag_88)\n    tag_89:\n      dup3\n      add\n      swap2\n      swap1\n      0x00\n      mstore\n      keccak256(0x00, 0x20)\n      swap1\n    tag_90:\n      dup2\n      sload\n      dup2\n      mstore\n      swap1\n      0x01\n      add\n      swap1\n      0x20\n      add\n      dup1\n      dup4\n      gt\n      tag_90\n      jumpi\n      dup3\n      swap1\n      sub\n      0x1f\n      and\n      dup3\n      add\n      swap2\n    tag_88:\n      pop\n      pop\n      pop\n      pop\n      pop\n      dup2\n      mstore\n      pop\n      pop\n      swap1\n      pop\n        /* \"contracts/distributorProduct.sol\":1273:1418  function getSingleProduct(uint _id) public view returns(distributorProduct memory){... */\n      swap2\n      swap1\n      pop\n      jump\t// out\n        /* \"contracts/distributorProduct.sol\":619:1123  function addDistributorProduct(address[] memory _manufacturerAddress,bytes[] memory _md_id, bytes calldata _name,bytes calldata _description,bytes memory _unit,bytes memory _price,bytes memory _date,bytes memory _expiryDate)public override {... */\n    tag_26:\n        /* \"contracts/distributorProduct.sol\":921:1018  distributorProduct(_manufacturerAddress,_md_id,_name,_description,_unit,_price,_date,_expiryDate) */\n      mload(0x40)\n      dup1\n      0x0100\n      add\n      0x40\n      mstore\n      dup1\n        /* \"contracts/distributorProduct.sol\":940:960  _manufacturerAddress */\n      dup12\n        /* \"contracts/distributorProduct.sol\":921:1018  distributorProduct(_manufacturerAddress,_md_id,_name,_description,_unit,_price,_date,_expiryDate) */\n      dup2\n      mstore\n      0x20\n      add\n        /* \"contracts/distributorProduct.sol\":961:967  _md_id */\n      dup11\n        /* \"contracts/distributorProduct.sol\":921:1018  distributorProduct(_manufacturerAddress,_md_id,_name,_description,_unit,_price,_date,_expiryDate) */\n      dup2\n      mstore\n      0x20\n      add\n        /* \"contracts/distributorProduct.sol\":968:973  _name */\n      dup10\n      dup10\n        /* \"contracts/distributorProduct.sol\":921:1018  distributorProduct(_manufacturerAddress,_md_id,_name,_description,_unit,_price,_date,_expiryDate) */\n      dup1\n      dup1\n      0x1f\n      add\n      0x20\n      dup1\n      swap2\n      div\n      mul\n      0x20\n      add\n      mload(0x40)\n      swap1\n      dup2\n      add\n      0x40\n      mstore\n      dup1\n      swap4\n      swap3\n      swap2\n      swap1\n      dup2\n      dup2\n      mstore\n      0x20\n      add\n      dup4\n      dup4\n      dup1\n      dup3\n      dup5\n      calldatacopy\n      0x00\n      dup2\n      dup5\n      add\n      mstore\n      not(0x1f)\n      0x1f\n      dup3\n      add\n      and\n      swap1\n      pop\n      dup1\n      dup4\n      add\n      swap3\n      pop\n      pop\n      pop\n      pop\n      pop\n      pop\n      pop\n      dup2\n      mstore\n      0x20\n      add\n        /* \"contracts/distributorProduct.sol\":974:986  _description */\n      dup8\n      dup8\n        /* \"contracts/distributorProduct.sol\":921:1018  distributorProduct(_manufacturerAddress,_md_id,_name,_description,_unit,_price,_date,_expiryDate) */\n      dup1\n      dup1\n      0x1f\n      add\n      0x20\n      dup1\n      swap2\n      div\n      mul\n      0x20\n      add\n      mload(0x40)\n      swap1\n      dup2\n      add\n      0x40\n      mstore\n      dup1\n      swap4\n      swap3\n      swap2\n      swap1\n      dup2\n      dup2\n      mstore\n      0x20\n      add\n      dup4\n      dup4\n      dup1\n      dup3\n      dup5\n      calldatacopy\n      0x00\n      dup2\n      dup5\n      add\n      mstore\n      not(0x1f)\n      0x1f\n      dup3\n      add\n      and\n      swap1\n      pop\n      dup1\n      dup4\n      add\n      swap3\n      pop\n      pop\n      pop\n      pop\n      pop\n      pop\n      pop\n      dup2\n      mstore\n      0x20\n      add\n        /* \"contracts/distributorProduct.sol\":987:992  _unit */\n      dup6\n        /* \"contracts/distributorProduct.sol\":921:1018  distributorProduct(_manufacturerAddress,_md_id,_name,_description,_unit,_price,_date,_expiryDate) */\n      dup2\n      mstore\n      0x20\n      add\n        /* \"contracts/distributorProduct.sol\":993:999  _price */\n      dup5\n        /* \"contracts/distributorProduct.sol\":921:1018  distributorProduct(_manufacturerAddress,_md_id,_name,_description,_unit,_price,_date,_expiryDate) */\n      dup2\n      mstore\n      0x20\n      add\n        /* \"contracts/distributorProduct.sol\":1000:1005  _date */\n      dup4\n        /* \"contracts/distributorProduct.sol\":921:1018  distributorProduct(_manufacturerAddress,_md_id,_name,_description,_unit,_price,_date,_expiryDate) */\n      dup2\n      mstore\n      0x20\n      add\n        /* \"contracts/distributorProduct.sol\":1006:1017  _expiryDate */\n      dup3\n        /* \"contracts/distributorProduct.sol\":921:1018  distributorProduct(_manufacturerAddress,_md_id,_name,_description,_unit,_price,_date,_expiryDate) */\n      dup2\n      mstore\n      pop\n        /* \"contracts/distributorProduct.sol\":870:902  productsIdMappingToStructMapping */\n      0x02\n        /* \"contracts/distributorProduct.sol\":870:918  productsIdMappingToStructMapping[productCounter] */\n      0x00\n        /* \"contracts/distributorProduct.sol\":903:917  productCounter */\n      dup1\n      sload\n        /* \"contracts/distributorProduct.sol\":870:918  productsIdMappingToStructMapping[productCounter] */\n      dup2\n      mstore\n      0x20\n      add\n      swap1\n      dup2\n      mstore\n      0x20\n      add\n      0x00\n      keccak256\n        /* \"contracts/distributorProduct.sol\":870:1018  productsIdMappingToStructMapping[productCounter] = distributorProduct(_manufacturerAddress,_md_id,_name,_description,_unit,_price,_date,_expiryDate) */\n      0x00\n      dup3\n      add\n      mload\n      dup2\n      0x00\n      add\n      swap1\n      dup1\n      mload\n      swap1\n      0x20\n      add\n      swap1\n      tag_92\n      swap3\n      swap2\n      swap1\n      tag_93\n      jump\t// in\n    tag_92:\n      pop\n      0x20\n      dup3\n      add\n      mload\n      dup2\n      0x01\n      add\n      swap1\n      dup1\n      mload\n      swap1\n      0x20\n      add\n      swap1\n      tag_94\n      swap3\n      swap2\n      swap1\n      tag_95\n      jump\t// in\n    tag_94:\n      pop\n      0x40\n      dup3\n      add\n      mload\n      dup2\n      0x02\n      add\n      swap1\n      dup2\n      tag_96\n      swap2\n      swap1\n      tag_97\n      jump\t// in\n    tag_96:\n      pop\n      0x60\n      dup3\n      add\n      mload\n      dup2\n      0x03\n      add\n      swap1\n      dup2\n      tag_98\n      swap2\n      swap1\n      tag_97\n      jump\t// in\n    tag_98:\n      pop\n      0x80\n      dup3\n      add\n      mload\n      dup2\n      0x04\n      add\n      swap1\n      dup2\n      tag_99\n      swap2\n      swap1\n      tag_97\n      jump\t// in\n    tag_99:\n      pop\n      0xa0\n      dup3\n      add\n      mload\n      dup2\n      0x05\n      add\n      swap1\n      dup2\n      tag_100\n      swap2\n      swap1\n      tag_97\n      jump\t// in\n    tag_100:\n      pop\n      0xc0\n      dup3\n      add\n      mload\n      dup2\n      0x06\n      add\n      swap1\n      dup2\n      tag_101\n      swap2\n      swap1\n      tag_97\n      jump\t// in\n    tag_101:\n      pop\n      0xe0\n      dup3\n      add\n      mload\n      dup2\n      0x07\n      add\n      swap1\n      dup2\n      tag_102\n      swap2\n      swap1\n      tag_97\n      jump\t// in\n    tag_102:\n      pop\n      swap1\n      pop\n      pop\n        /* \"contracts/distributorProduct.sol\":1029:1055  addressToproductsIdMapping */\n      0x03\n        /* \"contracts/distributorProduct.sol\":1029:1067  addressToproductsIdMapping[msg.sender] */\n      0x00\n        /* \"contracts/distributorProduct.sol\":1056:1066  msg.sender */\n      caller\n        /* \"contracts/distributorProduct.sol\":1029:1067  addressToproductsIdMapping[msg.sender] */\n      0xffffffffffffffffffffffffffffffffffffffff\n      and\n      0xffffffffffffffffffffffffffffffffffffffff\n      and\n      dup2\n      mstore\n      0x20\n      add\n      swap1\n      dup2\n      mstore\n      0x20\n      add\n      0x00\n      keccak256\n        /* \"contracts/distributorProduct.sol\":1073:1087  productCounter */\n      sload(0x00)\n        /* \"contracts/distributorProduct.sol\":1029:1088  addressToproductsIdMapping[msg.sender].push(productCounter) */\n      swap1\n      dup1\n      0x01\n      dup2\n      sload\n      add\n      dup1\n      dup3\n      sstore\n      dup1\n      swap2\n      pop\n      pop\n      0x01\n      swap1\n      sub\n      swap1\n      0x00\n      mstore\n      keccak256(0x00, 0x20)\n      add\n      0x00\n      swap1\n      swap2\n      swap1\n      swap2\n      swap1\n      swap2\n      pop\n      sstore\n        /* \"contracts/distributorProduct.sol\":1099:1113  productCounter */\n      0x00\n      dup1\n        /* \"contracts/distributorProduct.sol\":1099:1115  productCounter++ */\n      dup2\n      sload\n      dup1\n      swap3\n      swap2\n      swap1\n      tag_104\n      swap1\n      tag_105\n      jump\t// in\n    tag_104:\n      swap2\n      swap1\n      pop\n      sstore\n      pop\n        /* \"contracts/distributorProduct.sol\":619:1123  function addDistributorProduct(address[] memory _manufacturerAddress,bytes[] memory _md_id, bytes calldata _name,bytes calldata _description,bytes memory _unit,bytes memory _price,bytes memory _date,bytes memory _expiryDate)public override {... */\n      pop\n      pop\n      pop\n      pop\n      pop\n      pop\n      pop\n      pop\n      pop\n      pop\n      jump\t// out\n        /* \"contracts/distributorProduct.sol\":1131:1265  function getDistributorProductIds() public view returns(uint[] memory){... */\n    tag_28:\n        /* \"contracts/distributorProduct.sol\":1187:1200  uint[] memory */\n      0x60\n        /* \"contracts/distributorProduct.sol\":1219:1245  addressToproductsIdMapping */\n      0x03\n        /* \"contracts/distributorProduct.sol\":1219:1257  addressToproductsIdMapping[msg.sender] */\n      0x00\n        /* \"contracts/distributorProduct.sol\":1246:1256  msg.sender */\n      caller\n        /* \"contracts/distributorProduct.sol\":1219:1257  addressToproductsIdMapping[msg.sender] */\n      0xffffffffffffffffffffffffffffffffffffffff\n      and\n      0xffffffffffffffffffffffffffffffffffffffff\n      and\n      dup2\n      mstore\n      0x20\n      add\n      swap1\n      dup2\n      mstore\n      0x20\n      add\n      0x00\n      keccak256\n        /* \"contracts/distributorProduct.sol\":1212:1257  return addressToproductsIdMapping[msg.sender] */\n      dup1\n      sload\n      dup1\n      0x20\n      mul\n      0x20\n      add\n      mload(0x40)\n      swap1\n      dup2\n      add\n      0x40\n      mstore\n      dup1\n      swap3\n      swap2\n      swap1\n      dup2\n      dup2\n      mstore\n      0x20\n      add\n      dup3\n      dup1\n      sload\n      dup1\n      iszero\n      tag_107\n      jumpi\n      0x20\n      mul\n      dup3\n      add\n      swap2\n      swap1\n      0x00\n      mstore\n      keccak256(0x00, 0x20)\n      swap1\n    tag_108:\n      dup2\n      sload\n      dup2\n      mstore\n      0x20\n      add\n      swap1\n      0x01\n      add\n      swap1\n      dup1\n      dup4\n      gt\n      tag_108\n      jumpi\n    tag_107:\n      pop\n      pop\n      pop\n      pop\n      pop\n      swap1\n      pop\n        /* \"contracts/distributorProduct.sol\":1131:1265  function getDistributorProductIds() public view returns(uint[] memory){... */\n      swap1\n      jump\t// out\n        /* \"contracts/distributorProduct.sol\":232:307  mapping(uint => distributorProduct) public productsIdMappingToStructMapping */\n    tag_33:\n      mstore(0x20, 0x02)\n      dup1\n      0x00\n      mstore\n      keccak256(0x00, 0x40)\n      0x00\n      swap2\n      pop\n      swap1\n      pop\n      dup1\n      0x02\n      add\n      dup1\n      sload\n      tag_109\n      swap1\n      tag_56\n      jump\t// in\n    tag_109:\n      dup1\n      0x1f\n      add\n      0x20\n      dup1\n      swap2\n      div\n      mul\n      0x20\n      add\n      mload(0x40)\n      swap1\n      dup2\n      add\n      0x40\n      mstore\n      dup1\n      swap3\n      swap2\n      swap1\n      dup2\n      dup2\n      mstore\n      0x20\n      add\n      dup3\n      dup1\n      sload\n      tag_110\n      swap1\n      tag_56\n      jump\t// in\n    tag_110:\n      dup1\n      iszero\n      tag_111\n      jumpi\n      dup1\n      0x1f\n      lt\n      tag_112\n      jumpi\n      0x0100\n      dup1\n      dup4\n      sload\n      div\n      mul\n      dup4\n      mstore\n      swap2\n      0x20\n      add\n      swap2\n      jump(tag_111)\n    tag_112:\n      dup3\n      add\n      swap2\n      swap1\n      0x00\n      mstore\n      keccak256(0x00, 0x20)\n      swap1\n    tag_113:\n      dup2\n      sload\n      dup2\n      mstore\n      swap1\n      0x01\n      add\n      swap1\n      0x20\n      add\n      dup1\n      dup4\n      gt\n      tag_113\n      jumpi\n      dup3\n      swap1\n      sub\n      0x1f\n      and\n      dup3\n      add\n      swap2\n    tag_111:\n      pop\n      pop\n      pop\n      pop\n      pop\n      swap1\n      dup1\n      0x03\n      add\n      dup1\n      sload\n      tag_114\n      swap1\n      tag_56\n      jump\t// in\n    tag_114:\n      dup1\n      0x1f\n      add\n      0x20\n      dup1\n      swap2\n      div\n      mul\n      0x20\n      add\n      mload(0x40)\n      swap1\n      dup2\n      add\n      0x40\n      mstore\n      dup1\n      swap3\n      swap2\n      swap1\n      dup2\n      dup2\n      mstore\n      0x20\n      add\n      dup3\n      dup1\n      sload\n      tag_115\n      swap1\n      tag_56\n      jump\t// in\n    tag_115:\n      dup1\n      iszero\n      tag_116\n      jumpi\n      dup1\n      0x1f\n      lt\n      tag_117\n      jumpi\n      0x0100\n      dup1\n      dup4\n      sload\n      div\n      mul\n      dup4\n      mstore\n      swap2\n      0x20\n      add\n      swap2\n      jump(tag_116)\n    tag_117:\n      dup3\n      add\n      swap2\n      swap1\n      0x00\n      mstore\n      keccak256(0x00, 0x20)\n      swap1\n    tag_118:\n      dup2\n      sload\n      dup2\n      mstore\n      swap1\n      0x01\n      add\n      swap1\n      0x20\n      add\n      dup1\n      dup4\n      gt\n      tag_118\n      jumpi\n      dup3\n      swap1\n      sub\n      0x1f\n      and\n      dup3\n      add\n      swap2\n    tag_116:\n      pop\n      pop\n      pop\n      pop\n      pop\n      swap1\n      dup1\n      0x04\n      add\n      dup1\n      sload\n      tag_119\n      swap1\n      tag_56\n      jump\t// in\n    tag_119:\n      dup1\n      0x1f\n      add\n      0x20\n      dup1\n      swap2\n      div\n      mul\n      0x20\n      add\n      mload(0x40)\n      swap1\n      dup2\n      add\n      0x40\n      mstore\n      dup1\n      swap3\n      swap2\n      swap1\n      dup2\n      dup2\n      mstore\n      0x20\n      add\n      dup3\n      dup1\n      sload\n      tag_120\n      swap1\n      tag_56\n      jump\t// in\n    tag_120:\n      dup1\n      iszero\n      tag_121\n      jumpi\n      dup1\n      0x1f\n      lt\n      tag_122\n      jumpi\n      0x0100\n      dup1\n      dup4\n      sload\n      div\n      mul\n      dup4\n      mstore\n      swap2\n      0x20\n      add\n      swap2\n      jump(tag_121)\n    tag_122:\n      dup3\n      add\n      swap2\n      swap1\n      0x00\n      mstore\n      keccak256(0x00, 0x20)\n      swap1\n    tag_123:\n      dup2\n      sload\n      dup2\n      mstore\n      swap1\n      0x01\n      add\n      swap1\n      0x20\n      add\n      dup1\n      dup4\n      gt\n      tag_123\n      jumpi\n      dup3\n      swap1\n      sub\n      0x1f\n      and\n      dup3\n      add\n      swap2\n    tag_121:\n      pop\n      pop\n      pop\n      pop\n      pop\n      swap1\n      dup1\n      0x05\n      add\n      dup1\n      sload\n      tag_124\n      swap1\n      tag_56\n      jump\t// in\n    tag_124:\n      dup1\n      0x1f\n      add\n      0x20\n      dup1\n      swap2\n      div\n      mul\n      0x20\n      add\n      mload(0x40)\n      swap1\n      dup2\n      add\n      0x40\n      mstore\n      dup1\n      swap3\n      swap2\n      swap1\n      dup2\n      dup2\n      mstore\n      0x20\n      add\n      dup3\n      dup1\n      sload\n      tag_125\n      swap1\n      tag_56\n      jump\t// in\n    tag_125:\n      dup1\n      iszero\n      tag_126\n      jumpi\n      dup1\n      0x1f\n      lt\n      tag_127\n      jumpi\n      0x0100\n      dup1\n      dup4\n      sload\n      div\n      mul\n      dup4\n      mstore\n      swap2\n      0x20\n      add\n      swap2\n      jump(tag_126)\n    tag_127:\n      dup3\n      add\n      swap2\n      swap1\n      0x00\n      mstore\n      keccak256(0x00, 0x20)\n      swap1\n    tag_128:\n      dup2\n      sload\n      dup2\n      mstore\n      swap1\n      0x01\n      add\n      swap1\n      0x20\n      add\n      dup1\n      dup4\n      gt\n      tag_128\n      jumpi\n      dup3\n      swap1\n      sub\n      0x1f\n      and\n      dup3\n      add\n      swap2\n    tag_126:\n      pop\n      pop\n      pop\n      pop\n      pop\n      swap1\n      dup1\n      0x06\n      add\n      dup1\n      sload\n      tag_129\n      swap1\n      tag_56\n      jump\t// in\n    tag_129:\n      dup1\n      0x1f\n      add\n      0x20\n      dup1\n      swap2\n      div\n      mul\n      0x20\n      add\n      mload(0x40)\n      swap1\n      dup2\n      add\n      0x40\n      mstore\n      dup1\n      swap3\n      swap2\n      swap1\n      dup2\n      dup2\n      mstore\n      0x20\n      add\n      dup3\n      dup1\n      sload\n      tag_130\n      swap1\n      tag_56\n      jump\t// in\n    tag_130:\n      dup1\n      iszero\n      tag_131\n      jumpi\n      dup1\n      0x1f\n      lt\n      tag_132\n      jumpi\n      0x0100\n      dup1\n      dup4\n      sload\n      div\n      mul\n      dup4\n      mstore\n      swap2\n      0x20\n      add\n      swap2\n      jump(tag_131)\n    tag_132:\n      dup3\n      add\n      swap2\n      swap1\n      0x00\n      mstore\n      keccak256(0x00, 0x20)\n      swap1\n    tag_133:\n      dup2\n      sload\n      dup2\n      mstore\n      swap1\n      0x01\n      add\n      swap1\n      0x20\n      add\n      dup1\n      dup4\n      gt\n      tag_133\n      jumpi\n      dup3\n      swap1\n      sub\n      0x1f\n      and\n      dup3\n      add\n      swap2\n    tag_131:\n      pop\n      pop\n      pop\n      pop\n      pop\n      swap1\n      dup1\n      0x07\n      add\n      dup1\n      sload\n      tag_134\n      swap1\n      tag_56\n      jump\t// in\n    tag_134:\n      dup1\n      0x1f\n      add\n      0x20\n      dup1\n      swap2\n      div\n      mul\n      0x20\n      add\n      mload(0x40)\n      swap1\n      dup2\n      add\n      0x40\n      mstore\n      dup1\n      swap3\n      swap2\n      swap1\n      dup2\n      dup2\n      mstore\n      0x20\n      add\n      dup3\n      dup1\n      sload\n      tag_135\n      swap1\n      tag_56\n      jump\t// in\n    tag_135:\n      dup1\n      iszero\n      tag_136\n      jumpi\n      dup1\n      0x1f\n      lt\n      tag_137\n      jumpi\n      0x0100\n      dup1\n      dup4\n      sload\n      div\n      mul\n      dup4\n      mstore\n      swap2\n      0x20\n      add\n      swap2\n      jump(tag_136)\n    tag_137:\n      dup3\n      add\n      swap2\n      swap1\n      0x00\n      mstore\n      keccak256(0x00, 0x20)\n      swap1\n    tag_138:\n      dup2\n      sload\n      dup2\n      mstore\n      swap1\n      0x01\n      add\n      swap1\n      0x20\n      add\n      dup1\n      dup4\n      gt\n      tag_138\n      jumpi\n      dup3\n      swap1\n      sub\n      0x1f\n      and\n      dup3\n      add\n      swap2\n    tag_136:\n      pop\n      pop\n      pop\n      pop\n      pop\n      swap1\n      pop\n      dup7\n      jump\t// out\n        /* \"contracts/distributorProduct.sol\":1925:2037  function deleteProduct(uint _id)external override{... */\n    tag_38:\n        /* \"contracts/distributorProduct.sol\":1992:2024  productsIdMappingToStructMapping */\n      0x02\n        /* \"contracts/distributorProduct.sol\":1992:2029  productsIdMappingToStructMapping[_id] */\n      0x00\n        /* \"contracts/distributorProduct.sol\":2025:2028  _id */\n      dup3\n        /* \"contracts/distributorProduct.sol\":1992:2029  productsIdMappingToStructMapping[_id] */\n      dup2\n      mstore\n      0x20\n      add\n      swap1\n      dup2\n      mstore\n      0x20\n      add\n      0x00\n      keccak256\n      0x00\n        /* \"contracts/distributorProduct.sol\":1985:2029  delete productsIdMappingToStructMapping[_id] */\n      dup1\n      dup3\n      add\n      0x00\n      tag_140\n      swap2\n      swap1\n      tag_141\n      jump\t// in\n    tag_140:\n      0x01\n      dup3\n      add\n      0x00\n      tag_142\n      swap2\n      swap1\n      tag_143\n      jump\t// in\n    tag_142:\n      0x02\n      dup3\n      add\n      0x00\n      tag_144\n      swap2\n      swap1\n      tag_145\n      jump\t// in\n    tag_144:\n      0x03\n      dup3\n      add\n      0x00\n      tag_146\n      swap2\n      swap1\n      tag_145\n      jump\t// in\n    tag_146:\n      0x04\n      dup3\n      add\n      0x00\n      tag_147\n      swap2\n      swap1\n      tag_145\n      jump\t// in\n    tag_147:\n      0x05\n      dup3\n      add\n      0x00\n      tag_148\n      swap2\n      swap1\n      tag_145\n      jump\t// in\n    tag_148:\n      0x06\n      dup3\n      add\n      0x00\n      tag_149\n      swap2\n      swap1\n      tag_145\n      jump\t// in\n    tag_149:\n      0x07\n      dup3\n      add\n      0x00\n      tag_150\n      swap2\n      swap1\n      tag_145\n      jump\t// in\n    tag_150:\n      pop\n      pop\n        /* \"contracts/distributorProduct.sol\":1925:2037  function deleteProduct(uint _id)external override{... */\n      pop\n      jump\t// out\n        /* \"contracts/distributorProduct.sol\":1426:1917  function getAllProductsOfDistributor(address _distributorAddress) public view returns(distributorProduct[] memory)... */\n    tag_42:\n        /* \"contracts/distributorProduct.sol\":1512:1539  distributorProduct[] memory */\n      0x60\n        /* \"contracts/distributorProduct.sol\":1557:1581  uint[] memory productIds */\n      0x00\n        /* \"contracts/distributorProduct.sol\":1583:1609  addressToproductsIdMapping */\n      0x03\n        /* \"contracts/distributorProduct.sol\":1583:1630  addressToproductsIdMapping[_distributorAddress] */\n      0x00\n        /* \"contracts/distributorProduct.sol\":1610:1629  _distributorAddress */\n      dup5\n        /* \"contracts/distributorProduct.sol\":1583:1630  addressToproductsIdMapping[_distributorAddress] */\n      0xffffffffffffffffffffffffffffffffffffffff\n      and\n      0xffffffffffffffffffffffffffffffffffffffff\n      and\n      dup2\n      mstore\n      0x20\n      add\n      swap1\n      dup2\n      mstore\n      0x20\n      add\n      0x00\n      keccak256\n        /* \"contracts/distributorProduct.sol\":1557:1630  uint[] memory productIds= addressToproductsIdMapping[_distributorAddress] */\n      dup1\n      sload\n      dup1\n      0x20\n      mul\n      0x20\n      add\n      mload(0x40)\n      swap1\n      dup2\n      add\n      0x40\n      mstore\n      dup1\n      swap3\n      swap2\n      swap1\n      dup2\n      dup2\n      mstore\n      0x20\n      add\n      dup3\n      dup1\n      sload\n      dup1\n      iszero\n      tag_152\n      jumpi\n      0x20\n      mul\n      dup3\n      add\n      swap2\n      swap1\n      0x00\n      mstore\n      keccak256(0x00, 0x20)\n      swap1\n    tag_153:\n      dup2\n      sload\n      dup2\n      mstore\n      0x20\n      add\n      swap1\n      0x01\n      add\n      swap1\n      dup1\n      dup4\n      gt\n      tag_153\n      jumpi\n    tag_152:\n      pop\n      pop\n      pop\n      pop\n      pop\n      swap1\n      pop\n        /* \"contracts/distributorProduct.sol\":1641:1681  distributorProduct[] memory DistributorP */\n      0x00\n        /* \"contracts/distributorProduct.sol\":1709:1719  productIds */\n      dup2\n        /* \"contracts/distributorProduct.sol\":1709:1726  productIds.length */\n      mload\n        /* \"contracts/distributorProduct.sol\":1684:1727  new distributorProduct[](productIds.length) */\n      0xffffffffffffffff\n      dup2\n      gt\n      iszero\n      tag_154\n      jumpi\n      tag_155\n      tag_156\n      jump\t// in\n    tag_155:\n    tag_154:\n      mload(0x40)\n      swap1\n      dup1\n      dup3\n      mstore\n      dup1\n      0x20\n      mul\n      0x20\n      add\n      dup3\n      add\n      0x40\n      mstore\n      dup1\n      iszero\n      tag_157\n      jumpi\n      dup2\n      0x20\n      add\n    tag_158:\n      tag_159\n      tag_48\n      jump\t// in\n    tag_159:\n      dup2\n      mstore\n      0x20\n      add\n      swap1\n      0x01\n      swap1\n      sub\n      swap1\n      dup2\n      tag_158\n      jumpi\n      swap1\n      pop\n    tag_157:\n      pop\n        /* \"contracts/distributorProduct.sol\":1641:1727  distributorProduct[] memory DistributorP = new distributorProduct[](productIds.length) */\n      swap1\n      pop\n        /* \"contracts/distributorProduct.sol\":1742:1748  uint i */\n      0x00\n        /* \"contracts/distributorProduct.sol\":1738:1880  for(uint i=0;i<productIds.length;i++)... */\n    tag_160:\n        /* \"contracts/distributorProduct.sol\":1753:1763  productIds */\n      dup3\n        /* \"contracts/distributorProduct.sol\":1753:1770  productIds.length */\n      mload\n        /* \"contracts/distributorProduct.sol\":1751:1752  i */\n      dup2\n        /* \"contracts/distributorProduct.sol\":1751:1770  i<productIds.length */\n      lt\n        /* \"contracts/distributorProduct.sol\":1738:1880  for(uint i=0;i<productIds.length;i++)... */\n      iszero\n      tag_161\n      jumpi\n        /* \"contracts/distributorProduct.sol\":1821:1853  productsIdMappingToStructMapping */\n      0x02\n        /* \"contracts/distributorProduct.sol\":1821:1868  productsIdMappingToStructMapping[productIds[i]] */\n      0x00\n        /* \"contracts/distributorProduct.sol\":1854:1864  productIds */\n      dup5\n        /* \"contracts/distributorProduct.sol\":1865:1866  i */\n      dup4\n        /* \"contracts/distributorProduct.sol\":1854:1867  productIds[i] */\n      dup2\n      mload\n      dup2\n      lt\n      tag_163\n      jumpi\n      tag_164\n      tag_165\n      jump\t// in\n    tag_164:\n    tag_163:\n      0x20\n      mul\n      0x20\n      add\n      add\n      mload\n        /* \"contracts/distributorProduct.sol\":1821:1868  productsIdMappingToStructMapping[productIds[i]] */\n      dup2\n      mstore\n      0x20\n      add\n      swap1\n      dup2\n      mstore\n      0x20\n      add\n      0x00\n      keccak256\n        /* \"contracts/distributorProduct.sol\":1804:1868  DistributorP[i] =productsIdMappingToStructMapping[productIds[i]] */\n      mload(0x40)\n      dup1\n      0x0100\n      add\n      0x40\n      mstore\n      swap1\n      dup2\n      0x00\n      dup3\n      add\n      dup1\n      sload\n      dup1\n      0x20\n      mul\n      0x20\n      add\n      mload(0x40)\n      swap1\n      dup2\n      add\n      0x40\n      mstore\n      dup1\n      swap3\n      swap2\n      swap1\n      dup2\n      dup2\n      mstore\n      0x20\n      add\n      dup3\n      dup1\n      sload\n      dup1\n      iszero\n      tag_166\n      jumpi\n      0x20\n      mul\n      dup3\n      add\n      swap2\n      swap1\n      0x00\n      mstore\n      keccak256(0x00, 0x20)\n      swap1\n    tag_167:\n      dup2\n      0x00\n      swap1\n      sload\n      swap1\n      0x0100\n      exp\n      swap1\n      div\n      0xffffffffffffffffffffffffffffffffffffffff\n      and\n      0xffffffffffffffffffffffffffffffffffffffff\n      and\n      dup2\n      mstore\n      0x20\n      add\n      swap1\n      0x01\n      add\n      swap1\n      dup1\n      dup4\n      gt\n      tag_167\n      jumpi\n    tag_166:\n      pop\n      pop\n      pop\n      pop\n      pop\n      dup2\n      mstore\n      0x20\n      add\n      0x01\n      dup3\n      add\n      dup1\n      sload\n      dup1\n      0x20\n      mul\n      0x20\n      add\n      mload(0x40)\n      swap1\n      dup2\n      add\n      0x40\n      mstore\n      dup1\n      swap3\n      swap2\n      swap1\n      dup2\n      dup2\n      mstore\n      0x20\n      add\n      0x00\n      swap1\n    tag_168:\n      dup3\n      dup3\n      lt\n      iszero\n      tag_169\n      jumpi\n      dup4\n      dup3\n      swap1\n      0x00\n      mstore\n      keccak256(0x00, 0x20)\n      add\n      dup1\n      sload\n      tag_171\n      swap1\n      tag_56\n      jump\t// in\n    tag_171:\n      dup1\n      0x1f\n      add\n      0x20\n      dup1\n      swap2\n      div\n      mul\n      0x20\n      add\n      mload(0x40)\n      swap1\n      dup2\n      add\n      0x40\n      mstore\n      dup1\n      swap3\n      swap2\n      swap1\n      dup2\n      dup2\n      mstore\n      0x20\n      add\n      dup3\n      dup1\n      sload\n      tag_172\n      swap1\n      tag_56\n      jump\t// in\n    tag_172:\n      dup1\n      iszero\n      tag_173\n      jumpi\n      dup1\n      0x1f\n      lt\n      tag_174\n      jumpi\n      0x0100\n      dup1\n      dup4\n      sload\n      div\n      mul\n      dup4\n      mstore\n      swap2\n      0x20\n      add\n      swap2\n      jump(tag_173)\n    tag_174:\n      dup3\n      add\n      swap2\n      swap1\n      0x00\n      mstore\n      keccak256(0x00, 0x20)\n      swap1\n    tag_175:\n      dup2\n      sload\n      dup2\n      mstore\n      swap1\n      0x01\n      add\n      swap1\n      0x20\n      add\n      dup1\n      dup4\n      gt\n      tag_175\n      jumpi\n      dup3\n      swap1\n      sub\n      0x1f\n      and\n      dup3\n      add\n      swap2\n    tag_173:\n      pop\n      pop\n      pop\n      pop\n      pop\n      dup2\n      mstore\n      0x20\n      add\n      swap1\n      0x01\n      add\n      swap1\n      jump(tag_168)\n    tag_169:\n      pop\n      pop\n      pop\n      pop\n      dup2\n      mstore\n      0x20\n      add\n      0x02\n      dup3\n      add\n      dup1\n      sload\n      tag_176\n      swap1\n      tag_56\n      jump\t// in\n    tag_176:\n      dup1\n      0x1f\n      add\n      0x20\n      dup1\n      swap2\n      div\n      mul\n      0x20\n      add\n      mload(0x40)\n      swap1\n      dup2\n      add\n      0x40\n      mstore\n      dup1\n      swap3\n      swap2\n      swap1\n      dup2\n      dup2\n      mstore\n      0x20\n      add\n      dup3\n      dup1\n      sload\n      tag_177\n      swap1\n      tag_56\n      jump\t// in\n    tag_177:\n      dup1\n      iszero\n      tag_178\n      jumpi\n      dup1\n      0x1f\n      lt\n      tag_179\n      jumpi\n      0x0100\n      dup1\n      dup4\n      sload\n      div\n      mul\n      dup4\n      mstore\n      swap2\n      0x20\n      add\n      swap2\n      jump(tag_178)\n    tag_179:\n      dup3\n      add\n      swap2\n      swap1\n      0x00\n      mstore\n      keccak256(0x00, 0x20)\n      swap1\n    tag_180:\n      dup2\n      sload\n      dup2\n      mstore\n      swap1\n      0x01\n      add\n      swap1\n      0x20\n      add\n      dup1\n      dup4\n      gt\n      tag_180\n      jumpi\n      dup3\n      swap1\n      sub\n      0x1f\n      and\n      dup3\n      add\n      swap2\n    tag_178:\n      pop\n      pop\n      pop\n      pop\n      pop\n      dup2\n      mstore\n      0x20\n      add\n      0x03\n      dup3\n      add\n      dup1\n      sload\n      tag_181\n      swap1\n      tag_56\n      jump\t// in\n    tag_181:\n      dup1\n      0x1f\n      add\n      0x20\n      dup1\n      swap2\n      div\n      mul\n      0x20\n      add\n      mload(0x40)\n      swap1\n      dup2\n      add\n      0x40\n      mstore\n      dup1\n      swap3\n      swap2\n      swap1\n      dup2\n      dup2\n      mstore\n      0x20\n      add\n      dup3\n      dup1\n      sload\n      tag_182\n      swap1\n      tag_56\n      jump\t// in\n    tag_182:\n      dup1\n      iszero\n      tag_183\n      jumpi\n      dup1\n      0x1f\n      lt\n      tag_184\n      jumpi\n      0x0100\n      dup1\n      dup4\n      sload\n      div\n      mul\n      dup4\n      mstore\n      swap2\n      0x20\n      add\n      swap2\n      jump(tag_183)\n    tag_184:\n      dup3\n      add\n      swap2\n      swap1\n      0x00\n      mstore\n      keccak256(0x00, 0x20)\n      swap1\n    tag_185:\n      dup2\n      sload\n      dup2\n      mstore\n      swap1\n      0x01\n      add\n      swap1\n      0x20\n      add\n      dup1\n      dup4\n      gt\n      tag_185\n      jumpi\n      dup3\n      swap1\n      sub\n      0x1f\n      and\n      dup3\n      add\n      swap2\n    tag_183:\n      pop\n      pop\n      pop\n      pop\n      pop\n      dup2\n      mstore\n      0x20\n      add\n      0x04\n      dup3\n      add\n      dup1\n      sload\n      tag_186\n      swap1\n      tag_56\n      jump\t// in\n    tag_186:\n      dup1\n      0x1f\n      add\n      0x20\n      dup1\n      swap2\n      div\n      mul\n      0x20\n      add\n      mload(0x40)\n      swap1\n      dup2\n      add\n      0x40\n      mstore\n      dup1\n      swap3\n      swap2\n      swap1\n      dup2\n      dup2\n      mstore\n      0x20\n      add\n      dup3\n      dup1\n      sload\n      tag_187\n      swap1\n      tag_56\n      jump\t// in\n    tag_187:\n      dup1\n      iszero\n      tag_188\n      jumpi\n      dup1\n      0x1f\n      lt\n      tag_189\n      jumpi\n      0x0100\n      dup1\n      dup4\n      sload\n      div\n      mul\n      dup4\n      mstore\n      swap2\n      0x20\n      add\n      swap2\n      jump(tag_188)\n    tag_189:\n      dup3\n      add\n      swap2\n      swap1\n      0x00\n      mstore\n      keccak256(0x00, 0x20)\n      swap1\n    tag_190:\n      dup2\n      sload\n      dup2\n      mstore\n      swap1\n      0x01\n      add\n      swap1\n      0x20\n      add\n      dup1\n      dup4\n      gt\n      tag_190\n      jumpi\n      dup3\n      swap1\n      sub\n      0x1f\n      and\n      dup3\n      add\n      swap2\n    tag_188:\n      pop\n      pop\n      pop\n      pop\n      pop\n      dup2\n      mstore\n      0x20\n      add\n      0x05\n      dup3\n      add\n      dup1\n      sload\n      tag_191\n      swap1\n      tag_56\n      jump\t// in\n    tag_191:\n      dup1\n      0x1f\n      add\n      0x20\n      dup1\n      swap2\n      div\n      mul\n      0x20\n      add\n      mload(0x40)\n      swap1\n      dup2\n      add\n      0x40\n      mstore\n      dup1\n      swap3\n      swap2\n      swap1\n      dup2\n      dup2\n      mstore\n      0x20\n      add\n      dup3\n      dup1\n      sload\n      tag_192\n      swap1\n      tag_56\n      jump\t// in\n    tag_192:\n      dup1\n      iszero\n      tag_193\n      jumpi\n      dup1\n      0x1f\n      lt\n      tag_194\n      jumpi\n      0x0100\n      dup1\n      dup4\n      sload\n      div\n      mul\n      dup4\n      mstore\n      swap2\n      0x20\n      add\n      swap2\n      jump(tag_193)\n    tag_194:\n      dup3\n      add\n      swap2\n      swap1\n      0x00\n      mstore\n      keccak256(0x00, 0x20)\n      swap1\n    tag_195:\n      dup2\n      sload\n      dup2\n      mstore\n      swap1\n      0x01\n      add\n      swap1\n      0x20\n      add\n      dup1\n      dup4\n      gt\n      tag_195\n      jumpi\n      dup3\n      swap1\n      sub\n      0x1f\n      and\n      dup3\n      add\n      swap2\n    tag_193:\n      pop\n      pop\n      pop\n      pop\n      pop\n      dup2\n      mstore\n      0x20\n      add\n      0x06\n      dup3\n      add\n      dup1\n      sload\n      tag_196\n      swap1\n      tag_56\n      jump\t// in\n    tag_196:\n      dup1\n      0x1f\n      add\n      0x20\n      dup1\n      swap2\n      div\n      mul\n      0x20\n      add\n      mload(0x40)\n      swap1\n      dup2\n      add\n      0x40\n      mstore\n      dup1\n      swap3\n      swap2\n      swap1\n      dup2\n      dup2\n      mstore\n      0x20\n      add\n      dup3\n      dup1\n      sload\n      tag_197\n      swap1\n      tag_56\n      jump\t// in\n    tag_197:\n      dup1\n      iszero\n      tag_198\n      jumpi\n      dup1\n      0x1f\n      lt\n      tag_199\n      jumpi\n      0x0100\n      dup1\n      dup4\n      sload\n      div\n      mul\n      dup4\n      mstore\n      swap2\n      0x20\n      add\n      swap2\n      jump(tag_198)\n    tag_199:\n      dup3\n      add\n      swap2\n      swap1\n      0x00\n      mstore\n      keccak256(0x00, 0x20)\n      swap1\n    tag_200:\n      dup2\n      sload\n      dup2\n      mstore\n      swap1\n      0x01\n      add\n      swap1\n      0x20\n      add\n      dup1\n      dup4\n      gt\n      tag_200\n      jumpi\n      dup3\n      swap1\n      sub\n      0x1f\n      and\n      dup3\n      add\n      swap2\n    tag_198:\n      pop\n      pop\n      pop\n      pop\n      pop\n      dup2\n      mstore\n      0x20\n      add\n      0x07\n      dup3\n      add\n      dup1\n      sload\n      tag_201\n      swap1\n      tag_56\n      jump\t// in\n    tag_201:\n      dup1\n      0x1f\n      add\n      0x20\n      dup1\n      swap2\n      div\n      mul\n      0x20\n      add\n      mload(0x40)\n      swap1\n      dup2\n      add\n      0x40\n      mstore\n      dup1\n      swap3\n      swap2\n      swap1\n      dup2\n      dup2\n      mstore\n      0x20\n      add\n      dup3\n      dup1\n      sload\n      tag_202\n      swap1\n      tag_56\n      jump\t// in\n    tag_202:\n      dup1\n      iszero\n      tag_203\n      jumpi\n      dup1\n      0x1f\n      lt\n      tag_204\n      jumpi\n      0x0100\n      dup1\n      dup4\n      sload\n      div\n      mul\n      dup4\n      mstore\n      swap2\n      0x20\n      add\n      swap2\n      jump(tag_203)\n    tag_204:\n      dup3\n      add\n      swap2\n      swap1\n      0x00\n      mstore\n      keccak256(0x00, 0x20)\n      swap1\n    tag_205:\n      dup2\n      sload\n      dup2\n      mstore\n      swap1\n      0x01\n      add\n      swap1\n      0x20\n      add\n      dup1\n      dup4\n      gt\n      tag_205\n      jumpi\n      dup3\n      swap1\n      sub\n      0x1f\n      and\n      dup3\n      add\n      swap2\n    tag_203:\n      pop\n      pop\n      pop\n      pop\n      pop\n      dup2\n      mstore\n      pop\n      pop\n        /* \"contracts/distributorProduct.sol\":1804:1816  DistributorP */\n      dup3\n        /* \"contracts/distributorProduct.sol\":1817:1818  i */\n      dup3\n        /* \"contracts/distributorProduct.sol\":1804:1819  DistributorP[i] */\n      dup2\n      mload\n      dup2\n      lt\n      tag_206\n      jumpi\n      tag_207\n      tag_165\n      jump\t// in\n    tag_207:\n    tag_206:\n      0x20\n      mul\n      0x20\n      add\n      add\n        /* \"contracts/distributorProduct.sol\":1804:1868  DistributorP[i] =productsIdMappingToStructMapping[productIds[i]] */\n      dup2\n      swap1\n      mstore\n      pop\n        /* \"contracts/distributorProduct.sol\":1771:1774  i++ */\n      dup1\n      dup1\n      tag_208\n      swap1\n      tag_105\n      jump\t// in\n    tag_208:\n      swap2\n      pop\n      pop\n        /* \"contracts/distributorProduct.sol\":1738:1880  for(uint i=0;i<productIds.length;i++)... */\n      jump(tag_160)\n    tag_161:\n      pop\n        /* \"contracts/distributorProduct.sol\":1897:1909  DistributorP */\n      dup1\n        /* \"contracts/distributorProduct.sol\":1890:1909  return DistributorP */\n      swap3\n      pop\n      pop\n      pop\n        /* \"contracts/distributorProduct.sol\":1426:1917  function getAllProductsOfDistributor(address _distributorAddress) public view returns(distributorProduct[] memory)... */\n      swap2\n      swap1\n      pop\n      jump\t// out\n    tag_48:\n      mload(0x40)\n      dup1\n      0x0100\n      add\n      0x40\n      mstore\n      dup1\n      0x60\n      dup2\n      mstore\n      0x20\n      add\n      0x60\n      dup2\n      mstore\n      0x20\n      add\n      0x60\n      dup2\n      mstore\n      0x20\n      add\n      0x60\n      dup2\n      mstore\n      0x20\n      add\n      0x60\n      dup2\n      mstore\n      0x20\n      add\n      0x60\n      dup2\n      mstore\n      0x20\n      add\n      0x60\n      dup2\n      mstore\n      0x20\n      add\n      0x60\n      dup2\n      mstore\n      pop\n      swap1\n      jump\t// out\n    tag_93:\n      dup3\n      dup1\n      sload\n      dup3\n      dup3\n      sstore\n      swap1\n      0x00\n      mstore\n      keccak256(0x00, 0x20)\n      swap1\n      dup2\n      add\n      swap3\n      dup3\n      iszero\n      tag_209\n      jumpi\n      swap2\n      0x20\n      mul\n      dup3\n      add\n    tag_210:\n      dup3\n      dup2\n      gt\n      iszero\n      tag_211\n      jumpi\n      dup3\n      mload\n      dup3\n      exp(0x0100, 0x00)\n      dup2\n      sload\n      dup2\n      0xffffffffffffffffffffffffffffffffffffffff\n      mul\n      not\n      and\n      swap1\n      dup4\n      0xffffffffffffffffffffffffffffffffffffffff\n      and\n      mul\n      or\n      swap1\n      sstore\n      pop\n      swap2\n      0x20\n      add\n      swap2\n      swap1\n      0x01\n      add\n      swap1\n      jump(tag_210)\n    tag_211:\n    tag_209:\n      pop\n      swap1\n      pop\n      tag_212\n      swap2\n      swap1\n      tag_213\n      jump\t// in\n    tag_212:\n      pop\n      swap1\n      jump\t// out\n    tag_95:\n      dup3\n      dup1\n      sload\n      dup3\n      dup3\n      sstore\n      swap1\n      0x00\n      mstore\n      keccak256(0x00, 0x20)\n      swap1\n      dup2\n      add\n      swap3\n      dup3\n      iszero\n      tag_214\n      jumpi\n      swap2\n      0x20\n      mul\n      dup3\n      add\n    tag_215:\n      dup3\n      dup2\n      gt\n      iszero\n      tag_216\n      jumpi\n      dup3\n      mload\n      dup3\n      swap1\n      dup2\n      tag_217\n      swap2\n      swap1\n      tag_97\n      jump\t// in\n    tag_217:\n      pop\n      swap2\n      0x20\n      add\n      swap2\n      swap1\n      0x01\n      add\n      swap1\n      jump(tag_215)\n    tag_216:\n    tag_214:\n      pop\n      swap1\n      pop\n      tag_218\n      swap2\n      swap1\n      tag_219\n      jump\t// in\n    tag_218:\n      pop\n      swap1\n      jump\t// out\n    tag_141:\n      pop\n      dup1\n      sload\n      0x00\n      dup3\n      sstore\n      swap1\n      0x00\n      mstore\n      keccak256(0x00, 0x20)\n      swap1\n      dup2\n      add\n      swap1\n      tag_221\n      swap2\n      swap1\n      tag_213\n      jump\t// in\n    tag_221:\n      pop\n      jump\t// out\n    tag_143:\n      pop\n      dup1\n      sload\n      0x00\n      dup3\n      sstore\n      swap1\n      0x00\n      mstore\n      keccak256(0x00, 0x20)\n      swap1\n      dup2\n      add\n      swap1\n      tag_223\n      swap2\n      swap1\n      tag_219\n      jump\t// in\n    tag_223:\n      pop\n      jump\t// out\n    tag_145:\n      pop\n      dup1\n      sload\n      tag_224\n      swap1\n      tag_56\n      jump\t// in\n    tag_224:\n      0x00\n      dup3\n      sstore\n      dup1\n      0x1f\n      lt\n      tag_226\n      jumpi\n      pop\n      jump(tag_225)\n    tag_226:\n      0x1f\n      add\n      0x20\n      swap1\n      div\n      swap1\n      0x00\n      mstore\n      keccak256(0x00, 0x20)\n      swap1\n      dup2\n      add\n      swap1\n      tag_227\n      swap2\n      swap1\n      tag_213\n      jump\t// in\n    tag_227:\n    tag_225:\n      pop\n      jump\t// out\n    tag_213:\n    tag_228:\n      dup1\n      dup3\n      gt\n      iszero\n      tag_229\n      jumpi\n      0x00\n      dup2\n      0x00\n      swap1\n      sstore\n      pop\n      0x01\n      add\n      jump(tag_228)\n    tag_229:\n      pop\n      swap1\n      jump\t// out\n    tag_219:\n    tag_230:\n      dup1\n      dup3\n      gt\n      iszero\n      tag_231\n      jumpi\n      0x00\n      dup2\n      dup2\n      tag_232\n      swap2\n      swap1\n      tag_145\n      jump\t// in\n    tag_232:\n      pop\n      0x01\n      add\n      jump(tag_230)\n    tag_231:\n      pop\n      swap1\n      jump\t// out\n        /* \"#utility.yul\":7:82   */\n    tag_233:\n        /* \"#utility.yul\":40:46   */\n      0x00\n        /* \"#utility.yul\":73:75   */\n      0x40\n        /* \"#utility.yul\":67:76   */\n      mload\n        /* \"#utility.yul\":57:76   */\n      swap1\n      pop\n        /* \"#utility.yul\":7:82   */\n      swap1\n      jump\t// out\n        /* \"#utility.yul\":88:205   */\n    tag_234:\n        /* \"#utility.yul\":197:198   */\n      0x00\n        /* \"#utility.yul\":194:195   */\n      dup1\n        /* \"#utility.yul\":187:199   */\n      revert\n        /* \"#utility.yul\":211:328   */\n    tag_235:\n        /* \"#utility.yul\":320:321   */\n      0x00\n        /* \"#utility.yul\":317:318   */\n      dup1\n        /* \"#utility.yul\":310:322   */\n      revert\n        /* \"#utility.yul\":334:460   */\n    tag_236:\n        /* \"#utility.yul\":371:378   */\n      0x00\n        /* \"#utility.yul\":411:453   */\n      0xffffffffffffffffffffffffffffffffffffffff\n        /* \"#utility.yul\":404:409   */\n      dup3\n        /* \"#utility.yul\":400:454   */\n      and\n        /* \"#utility.yul\":389:454   */\n      swap1\n      pop\n        /* \"#utility.yul\":334:460   */\n      swap2\n      swap1\n      pop\n      jump\t// out\n        /* \"#utility.yul\":466:562   */\n    tag_237:\n        /* \"#utility.yul\":503:510   */\n      0x00\n        /* \"#utility.yul\":532:556   */\n      tag_319\n        /* \"#utility.yul\":550:555   */\n      dup3\n        /* \"#utility.yul\":532:556   */\n      tag_236\n      jump\t// in\n    tag_319:\n        /* \"#utility.yul\":521:556   */\n      swap1\n      pop\n        /* \"#utility.yul\":466:562   */\n      swap2\n      swap1\n      pop\n      jump\t// out\n        /* \"#utility.yul\":568:690   */\n    tag_238:\n        /* \"#utility.yul\":641:665   */\n      tag_321\n        /* \"#utility.yul\":659:664   */\n      dup2\n        /* \"#utility.yul\":641:665   */\n      tag_237\n      jump\t// in\n    tag_321:\n        /* \"#utility.yul\":634:639   */\n      dup2\n        /* \"#utility.yul\":631:666   */\n      eq\n        /* \"#utility.yul\":621:684   */\n      tag_322\n      jumpi\n        /* \"#utility.yul\":680:681   */\n      0x00\n        /* \"#utility.yul\":677:678   */\n      dup1\n        /* \"#utility.yul\":670:682   */\n      revert\n        /* \"#utility.yul\":621:684   */\n    tag_322:\n        /* \"#utility.yul\":568:690   */\n      pop\n      jump\t// out\n        /* \"#utility.yul\":696:835   */\n    tag_239:\n        /* \"#utility.yul\":742:747   */\n      0x00\n        /* \"#utility.yul\":780:786   */\n      dup2\n        /* \"#utility.yul\":767:787   */\n      calldataload\n        /* \"#utility.yul\":758:787   */\n      swap1\n      pop\n        /* \"#utility.yul\":796:829   */\n      tag_324\n        /* \"#utility.yul\":823:828   */\n      dup2\n        /* \"#utility.yul\":796:829   */\n      tag_238\n      jump\t// in\n    tag_324:\n        /* \"#utility.yul\":696:835   */\n      swap3\n      swap2\n      pop\n      pop\n      jump\t// out\n        /* \"#utility.yul\":841:918   */\n    tag_240:\n        /* \"#utility.yul\":878:885   */\n      0x00\n        /* \"#utility.yul\":907:912   */\n      dup2\n        /* \"#utility.yul\":896:912   */\n      swap1\n      pop\n        /* \"#utility.yul\":841:918   */\n      swap2\n      swap1\n      pop\n      jump\t// out\n        /* \"#utility.yul\":924:1046   */\n    tag_241:\n        /* \"#utility.yul\":997:1021   */\n      tag_327\n        /* \"#utility.yul\":1015:1020   */\n      dup2\n        /* \"#utility.yul\":997:1021   */\n      tag_240\n      jump\t// in\n    tag_327:\n        /* \"#utility.yul\":990:995   */\n      dup2\n        /* \"#utility.yul\":987:1022   */\n      eq\n        /* \"#utility.yul\":977:1040   */\n      tag_328\n      jumpi\n        /* \"#utility.yul\":1036:1037   */\n      0x00\n        /* \"#utility.yul\":1033:1034   */\n      dup1\n        /* \"#utility.yul\":1026:1038   */\n      revert\n        /* \"#utility.yul\":977:1040   */\n    tag_328:\n        /* \"#utility.yul\":924:1046   */\n      pop\n      jump\t// out\n        /* \"#utility.yul\":1052:1191   */\n    tag_242:\n        /* \"#utility.yul\":1098:1103   */\n      0x00\n        /* \"#utility.yul\":1136:1142   */\n      dup2\n        /* \"#utility.yul\":1123:1143   */\n      calldataload\n        /* \"#utility.yul\":1114:1143   */\n      swap1\n      pop\n        /* \"#utility.yul\":1152:1185   */\n      tag_330\n        /* \"#utility.yul\":1179:1184   */\n      dup2\n        /* \"#utility.yul\":1152:1185   */\n      tag_241\n      jump\t// in\n    tag_330:\n        /* \"#utility.yul\":1052:1191   */\n      swap3\n      swap2\n      pop\n      pop\n      jump\t// out\n        /* \"#utility.yul\":1197:1671   */\n    tag_13:\n        /* \"#utility.yul\":1265:1271   */\n      0x00\n        /* \"#utility.yul\":1273:1279   */\n      dup1\n        /* \"#utility.yul\":1322:1324   */\n      0x40\n        /* \"#utility.yul\":1310:1319   */\n      dup4\n        /* \"#utility.yul\":1301:1308   */\n      dup6\n        /* \"#utility.yul\":1297:1320   */\n      sub\n        /* \"#utility.yul\":1293:1325   */\n      slt\n        /* \"#utility.yul\":1290:1409   */\n      iszero\n      tag_332\n      jumpi\n        /* \"#utility.yul\":1328:1407   */\n      tag_333\n      tag_234\n      jump\t// in\n    tag_333:\n        /* \"#utility.yul\":1290:1409   */\n    tag_332:\n        /* \"#utility.yul\":1448:1449   */\n      0x00\n        /* \"#utility.yul\":1473:1526   */\n      tag_334\n        /* \"#utility.yul\":1518:1525   */\n      dup6\n        /* \"#utility.yul\":1509:1515   */\n      dup3\n        /* \"#utility.yul\":1498:1507   */\n      dup7\n        /* \"#utility.yul\":1494:1516   */\n      add\n        /* \"#utility.yul\":1473:1526   */\n      tag_239\n      jump\t// in\n    tag_334:\n        /* \"#utility.yul\":1463:1526   */\n      swap3\n      pop\n        /* \"#utility.yul\":1419:1536   */\n      pop\n        /* \"#utility.yul\":1575:1577   */\n      0x20\n        /* \"#utility.yul\":1601:1654   */\n      tag_335\n        /* \"#utility.yul\":1646:1653   */\n      dup6\n        /* \"#utility.yul\":1637:1643   */\n      dup3\n        /* \"#utility.yul\":1626:1635   */\n      dup7\n        /* \"#utility.yul\":1622:1644   */\n      add\n        /* \"#utility.yul\":1601:1654   */\n      tag_242\n      jump\t// in\n    tag_335:\n        /* \"#utility.yul\":1591:1654   */\n      swap2\n      pop\n        /* \"#utility.yul\":1546:1664   */\n      pop\n        /* \"#utility.yul\":1197:1671   */\n      swap3\n      pop\n      swap3\n      swap1\n      pop\n      jump\t// out\n        /* \"#utility.yul\":1677:1795   */\n    tag_243:\n        /* \"#utility.yul\":1764:1788   */\n      tag_337\n        /* \"#utility.yul\":1782:1787   */\n      dup2\n        /* \"#utility.yul\":1764:1788   */\n      tag_240\n      jump\t// in\n    tag_337:\n        /* \"#utility.yul\":1759:1762   */\n      dup3\n        /* \"#utility.yul\":1752:1789   */\n      mstore\n        /* \"#utility.yul\":1677:1795   */\n      pop\n      pop\n      jump\t// out\n        /* \"#utility.yul\":1801:2023   */\n    tag_16:\n        /* \"#utility.yul\":1894:1898   */\n      0x00\n        /* \"#utility.yul\":1932:1934   */\n      0x20\n        /* \"#utility.yul\":1921:1930   */\n      dup3\n        /* \"#utility.yul\":1917:1935   */\n      add\n        /* \"#utility.yul\":1909:1935   */\n      swap1\n      pop\n        /* \"#utility.yul\":1945:2016   */\n      tag_339\n        /* \"#utility.yul\":2013:2014   */\n      0x00\n        /* \"#utility.yul\":2002:2011   */\n      dup4\n        /* \"#utility.yul\":1998:2015   */\n      add\n        /* \"#utility.yul\":1989:1995   */\n      dup5\n        /* \"#utility.yul\":1945:2016   */\n      tag_243\n      jump\t// in\n    tag_339:\n        /* \"#utility.yul\":1801:2023   */\n      swap3\n      swap2\n      pop\n      pop\n      jump\t// out\n        /* \"#utility.yul\":2029:2358   */\n    tag_19:\n        /* \"#utility.yul\":2088:2094   */\n      0x00\n        /* \"#utility.yul\":2137:2139   */\n      0x20\n        /* \"#utility.yul\":2125:2134   */\n      dup3\n        /* \"#utility.yul\":2116:2123   */\n      dup5\n        /* \"#utility.yul\":2112:2135   */\n      sub\n        /* \"#utility.yul\":2108:2140   */\n      slt\n        /* \"#utility.yul\":2105:2224   */\n      iszero\n      tag_341\n      jumpi\n        /* \"#utility.yul\":2143:2222   */\n      tag_342\n      tag_234\n      jump\t// in\n    tag_342:\n        /* \"#utility.yul\":2105:2224   */\n    tag_341:\n        /* \"#utility.yul\":2263:2264   */\n      0x00\n        /* \"#utility.yul\":2288:2341   */\n      tag_343\n        /* \"#utility.yul\":2333:2340   */\n      dup5\n        /* \"#utility.yul\":2324:2330   */\n      dup3\n        /* \"#utility.yul\":2313:2322   */\n      dup6\n        /* \"#utility.yul\":2309:2331   */\n      add\n        /* \"#utility.yul\":2288:2341   */\n      tag_242\n      jump\t// in\n    tag_343:\n        /* \"#utility.yul\":2278:2341   */\n      swap2\n      pop\n        /* \"#utility.yul\":2234:2351   */\n      pop\n        /* \"#utility.yul\":2029:2358   */\n      swap3\n      swap2\n      pop\n      pop\n      jump\t// out\n        /* \"#utility.yul\":2364:2478   */\n    tag_244:\n        /* \"#utility.yul\":2431:2437   */\n      0x00\n        /* \"#utility.yul\":2465:2470   */\n      dup2\n        /* \"#utility.yul\":2459:2471   */\n      mload\n        /* \"#utility.yul\":2449:2471   */\n      swap1\n      pop\n        /* \"#utility.yul\":2364:2478   */\n      swap2\n      swap1\n      pop\n      jump\t// out\n        /* \"#utility.yul\":2484:2658   */\n    tag_245:\n        /* \"#utility.yul\":2573:2584   */\n      0x00\n        /* \"#utility.yul\":2607:2613   */\n      dup3\n        /* \"#utility.yul\":2602:2605   */\n      dup3\n        /* \"#utility.yul\":2595:2614   */\n      mstore\n        /* \"#utility.yul\":2647:2651   */\n      0x20\n        /* \"#utility.yul\":2642:2645   */\n      dup3\n        /* \"#utility.yul\":2638:2652   */\n      add\n        /* \"#utility.yul\":2623:2652   */\n      swap1\n      pop\n        /* \"#utility.yul\":2484:2658   */\n      swap3\n      swap2\n      pop\n      pop\n      jump\t// out\n        /* \"#utility.yul\":2664:2796   */\n    tag_246:\n        /* \"#utility.yul\":2731:2735   */\n      0x00\n        /* \"#utility.yul\":2754:2757   */\n      dup2\n        /* \"#utility.yul\":2746:2757   */\n      swap1\n      pop\n        /* \"#utility.yul\":2784:2788   */\n      0x20\n        /* \"#utility.yul\":2779:2782   */\n      dup3\n        /* \"#utility.yul\":2775:2789   */\n      add\n        /* \"#utility.yul\":2767:2789   */\n      swap1\n      pop\n        /* \"#utility.yul\":2664:2796   */\n      swap2\n      swap1\n      pop\n      jump\t// out\n        /* \"#utility.yul\":2802:2910   */\n    tag_247:\n        /* \"#utility.yul\":2879:2903   */\n      tag_348\n        /* \"#utility.yul\":2897:2902   */\n      dup2\n        /* \"#utility.yul\":2879:2903   */\n      tag_237\n      jump\t// in\n    tag_348:\n        /* \"#utility.yul\":2874:2877   */\n      dup3\n        /* \"#utility.yul\":2867:2904   */\n      mstore\n        /* \"#utility.yul\":2802:2910   */\n      pop\n      pop\n      jump\t// out\n        /* \"#utility.yul\":2916:3095   */\n    tag_248:\n        /* \"#utility.yul\":2985:2995   */\n      0x00\n        /* \"#utility.yul\":3006:3052   */\n      tag_350\n        /* \"#utility.yul\":3048:3051   */\n      dup4\n        /* \"#utility.yul\":3040:3046   */\n      dup4\n        /* \"#utility.yul\":3006:3052   */\n      tag_247\n      jump\t// in\n    tag_350:\n        /* \"#utility.yul\":3084:3088   */\n      0x20\n        /* \"#utility.yul\":3079:3082   */\n      dup4\n        /* \"#utility.yul\":3075:3089   */\n      add\n        /* \"#utility.yul\":3061:3089   */\n      swap1\n      pop\n        /* \"#utility.yul\":2916:3095   */\n      swap3\n      swap2\n      pop\n      pop\n      jump\t// out\n        /* \"#utility.yul\":3101:3214   */\n    tag_249:\n        /* \"#utility.yul\":3171:3175   */\n      0x00\n        /* \"#utility.yul\":3203:3207   */\n      0x20\n        /* \"#utility.yul\":3198:3201   */\n      dup3\n        /* \"#utility.yul\":3194:3208   */\n      add\n        /* \"#utility.yul\":3186:3208   */\n      swap1\n      pop\n        /* \"#utility.yul\":3101:3214   */\n      swap2\n      swap1\n      pop\n      jump\t// out\n        /* \"#utility.yul\":3250:3962   */\n    tag_250:\n        /* \"#utility.yul\":3359:3362   */\n      0x00\n        /* \"#utility.yul\":3388:3442   */\n      tag_353\n        /* \"#utility.yul\":3436:3441   */\n      dup3\n        /* \"#utility.yul\":3388:3442   */\n      tag_244\n      jump\t// in\n    tag_353:\n        /* \"#utility.yul\":3458:3534   */\n      tag_354\n        /* \"#utility.yul\":3527:3533   */\n      dup2\n        /* \"#utility.yul\":3522:3525   */\n      dup6\n        /* \"#utility.yul\":3458:3534   */\n      tag_245\n      jump\t// in\n    tag_354:\n        /* \"#utility.yul\":3451:3534   */\n      swap4\n      pop\n        /* \"#utility.yul\":3558:3614   */\n      tag_355\n        /* \"#utility.yul\":3608:3613   */\n      dup4\n        /* \"#utility.yul\":3558:3614   */\n      tag_246\n      jump\t// in\n    tag_355:\n        /* \"#utility.yul\":3637:3644   */\n      dup1\n        /* \"#utility.yul\":3668:3669   */\n      0x00\n        /* \"#utility.yul\":3653:3937   */\n    tag_356:\n        /* \"#utility.yul\":3678:3684   */\n      dup4\n        /* \"#utility.yul\":3675:3676   */\n      dup2\n        /* \"#utility.yul\":3672:3685   */\n      lt\n        /* \"#utility.yul\":3653:3937   */\n      iszero\n      tag_358\n      jumpi\n        /* \"#utility.yul\":3754:3760   */\n      dup2\n        /* \"#utility.yul\":3748:3761   */\n      mload\n        /* \"#utility.yul\":3781:3844   */\n      tag_359\n        /* \"#utility.yul\":3840:3843   */\n      dup9\n        /* \"#utility.yul\":3825:3838   */\n      dup3\n        /* \"#utility.yul\":3781:3844   */\n      tag_248\n      jump\t// in\n    tag_359:\n        /* \"#utility.yul\":3774:3844   */\n      swap8\n      pop\n        /* \"#utility.yul\":3867:3927   */\n      tag_360\n        /* \"#utility.yul\":3920:3926   */\n      dup4\n        /* \"#utility.yul\":3867:3927   */\n      tag_249\n      jump\t// in\n    tag_360:\n        /* \"#utility.yul\":3857:3927   */\n      swap3\n      pop\n        /* \"#utility.yul\":3713:3937   */\n      pop\n        /* \"#utility.yul\":3700:3701   */\n      0x01\n        /* \"#utility.yul\":3697:3698   */\n      dup2\n        /* \"#utility.yul\":3693:3702   */\n      add\n        /* \"#utility.yul\":3688:3702   */\n      swap1\n      pop\n        /* \"#utility.yul\":3653:3937   */\n      jump(tag_356)\n    tag_358:\n        /* \"#utility.yul\":3657:3671   */\n      pop\n        /* \"#utility.yul\":3953:3956   */\n      dup6\n        /* \"#utility.yul\":3946:3956   */\n      swap4\n      pop\n        /* \"#utility.yul\":3364:3962   */\n      pop\n      pop\n      pop\n        /* \"#utility.yul\":3250:3962   */\n      swap3\n      swap2\n      pop\n      pop\n      jump\t// out\n        /* \"#utility.yul\":3968:4091   */\n    tag_251:\n        /* \"#utility.yul\":4044:4050   */\n      0x00\n        /* \"#utility.yul\":4078:4083   */\n      dup2\n        /* \"#utility.yul\":4072:4084   */\n      mload\n        /* \"#utility.yul\":4062:4084   */\n      swap1\n      pop\n        /* \"#utility.yul\":3968:4091   */\n      swap2\n      swap1\n      pop\n      jump\t// out\n        /* \"#utility.yul\":4097:4280   */\n    tag_252:\n        /* \"#utility.yul\":4195:4206   */\n      0x00\n        /* \"#utility.yul\":4229:4235   */\n      dup3\n        /* \"#utility.yul\":4224:4227   */\n      dup3\n        /* \"#utility.yul\":4217:4236   */\n      mstore\n        /* \"#utility.yul\":4269:4273   */\n      0x20\n        /* \"#utility.yul\":4264:4267   */\n      dup3\n        /* \"#utility.yul\":4260:4274   */\n      add\n        /* \"#utility.yul\":4245:4274   */\n      swap1\n      pop\n        /* \"#utility.yul\":4097:4280   */\n      swap3\n      swap2\n      pop\n      pop\n      jump\t// out\n        /* \"#utility.yul\":4286:4427   */\n    tag_253:\n        /* \"#utility.yul\":4362:4366   */\n      0x00\n        /* \"#utility.yul\":4385:4388   */\n      dup2\n        /* \"#utility.yul\":4377:4388   */\n      swap1\n      pop\n        /* \"#utility.yul\":4415:4419   */\n      0x20\n        /* \"#utility.yul\":4410:4413   */\n      dup3\n        /* \"#utility.yul\":4406:4420   */\n      add\n        /* \"#utility.yul\":4398:4420   */\n      swap1\n      pop\n        /* \"#utility.yul\":4286:4427   */\n      swap2\n      swap1\n      pop\n      jump\t// out\n        /* \"#utility.yul\":4433:4531   */\n    tag_254:\n        /* \"#utility.yul\":4484:4490   */\n      0x00\n        /* \"#utility.yul\":4518:4523   */\n      dup2\n        /* \"#utility.yul\":4512:4524   */\n      mload\n        /* \"#utility.yul\":4502:4524   */\n      swap1\n      pop\n        /* \"#utility.yul\":4433:4531   */\n      swap2\n      swap1\n      pop\n      jump\t// out\n        /* \"#utility.yul\":4537:4695   */\n    tag_255:\n        /* \"#utility.yul\":4610:4621   */\n      0x00\n        /* \"#utility.yul\":4644:4650   */\n      dup3\n        /* \"#utility.yul\":4639:4642   */\n      dup3\n        /* \"#utility.yul\":4632:4651   */\n      mstore\n        /* \"#utility.yul\":4684:4688   */\n      0x20\n        /* \"#utility.yul\":4679:4682   */\n      dup3\n        /* \"#utility.yul\":4675:4689   */\n      add\n        /* \"#utility.yul\":4660:4689   */\n      swap1\n      pop\n        /* \"#utility.yul\":4537:4695   */\n      swap3\n      swap2\n      pop\n      pop\n      jump\t// out\n        /* \"#utility.yul\":4701:4947   */\n    tag_256:\n        /* \"#utility.yul\":4782:4783   */\n      0x00\n        /* \"#utility.yul\":4792:4905   */\n    tag_367:\n        /* \"#utility.yul\":4806:4812   */\n      dup4\n        /* \"#utility.yul\":4803:4804   */\n      dup2\n        /* \"#utility.yul\":4800:4813   */\n      lt\n        /* \"#utility.yul\":4792:4905   */\n      iszero\n      tag_369\n      jumpi\n        /* \"#utility.yul\":4891:4892   */\n      dup1\n        /* \"#utility.yul\":4886:4889   */\n      dup3\n        /* \"#utility.yul\":4882:4893   */\n      add\n        /* \"#utility.yul\":4876:4894   */\n      mload\n        /* \"#utility.yul\":4872:4873   */\n      dup2\n        /* \"#utility.yul\":4867:4870   */\n      dup5\n        /* \"#utility.yul\":4863:4874   */\n      add\n        /* \"#utility.yul\":4856:4895   */\n      mstore\n        /* \"#utility.yul\":4828:4830   */\n      0x20\n        /* \"#utility.yul\":4825:4826   */\n      dup2\n        /* \"#utility.yul\":4821:4831   */\n      add\n        /* \"#utility.yul\":4816:4831   */\n      swap1\n      pop\n        /* \"#utility.yul\":4792:4905   */\n      jump(tag_367)\n    tag_369:\n        /* \"#utility.yul\":4939:4940   */\n      0x00\n        /* \"#utility.yul\":4930:4936   */\n      dup5\n        /* \"#utility.yul\":4925:4928   */\n      dup5\n        /* \"#utility.yul\":4921:4937   */\n      add\n        /* \"#utility.yul\":4914:4941   */\n      mstore\n        /* \"#utility.yul\":4763:4947   */\n      pop\n        /* \"#utility.yul\":4701:4947   */\n      pop\n      pop\n      pop\n      jump\t// out\n        /* \"#utility.yul\":4953:5055   */\n    tag_257:\n        /* \"#utility.yul\":4994:5000   */\n      0x00\n        /* \"#utility.yul\":5045:5047   */\n      0x1f\n        /* \"#utility.yul\":5041:5048   */\n      not\n        /* \"#utility.yul\":5036:5038   */\n      0x1f\n        /* \"#utility.yul\":5029:5034   */\n      dup4\n        /* \"#utility.yul\":5025:5039   */\n      add\n        /* \"#utility.yul\":5021:5049   */\n      and\n        /* \"#utility.yul\":5011:5049   */\n      swap1\n      pop\n        /* \"#utility.yul\":4953:5055   */\n      swap2\n      swap1\n      pop\n      jump\t// out\n        /* \"#utility.yul\":5061:5414   */\n    tag_258:\n        /* \"#utility.yul\":5137:5140   */\n      0x00\n        /* \"#utility.yul\":5165:5203   */\n      tag_372\n        /* \"#utility.yul\":5197:5202   */\n      dup3\n        /* \"#utility.yul\":5165:5203   */\n      tag_254\n      jump\t// in\n    tag_372:\n        /* \"#utility.yul\":5219:5279   */\n      tag_373\n        /* \"#utility.yul\":5272:5278   */\n      dup2\n        /* \"#utility.yul\":5267:5270   */\n      dup6\n        /* \"#utility.yul\":5219:5279   */\n      tag_255\n      jump\t// in\n    tag_373:\n        /* \"#utility.yul\":5212:5279   */\n      swap4\n      pop\n        /* \"#utility.yul\":5288:5353   */\n      tag_374\n        /* \"#utility.yul\":5346:5352   */\n      dup2\n        /* \"#utility.yul\":5341:5344   */\n      dup6\n        /* \"#utility.yul\":5334:5338   */\n      0x20\n        /* \"#utility.yul\":5327:5332   */\n      dup7\n        /* \"#utility.yul\":5323:5339   */\n      add\n        /* \"#utility.yul\":5288:5353   */\n      tag_256\n      jump\t// in\n    tag_374:\n        /* \"#utility.yul\":5378:5407   */\n      tag_375\n        /* \"#utility.yul\":5400:5406   */\n      dup2\n        /* \"#utility.yul\":5378:5407   */\n      tag_257\n      jump\t// in\n    tag_375:\n        /* \"#utility.yul\":5373:5376   */\n      dup5\n        /* \"#utility.yul\":5369:5408   */\n      add\n        /* \"#utility.yul\":5362:5408   */\n      swap2\n      pop\n        /* \"#utility.yul\":5141:5414   */\n      pop\n        /* \"#utility.yul\":5061:5414   */\n      swap3\n      swap2\n      pop\n      pop\n      jump\t// out\n        /* \"#utility.yul\":5420:5612   */\n    tag_259:\n        /* \"#utility.yul\":5507:5517   */\n      0x00\n        /* \"#utility.yul\":5542:5606   */\n      tag_377\n        /* \"#utility.yul\":5602:5605   */\n      dup4\n        /* \"#utility.yul\":5594:5600   */\n      dup4\n        /* \"#utility.yul\":5542:5606   */\n      tag_258\n      jump\t// in\n    tag_377:\n        /* \"#utility.yul\":5528:5606   */\n      swap1\n      pop\n        /* \"#utility.yul\":5420:5612   */\n      swap3\n      swap2\n      pop\n      pop\n      jump\t// out\n        /* \"#utility.yul\":5618:5740   */\n    tag_260:\n        /* \"#utility.yul\":5697:5701   */\n      0x00\n        /* \"#utility.yul\":5729:5733   */\n      0x20\n        /* \"#utility.yul\":5724:5727   */\n      dup3\n        /* \"#utility.yul\":5720:5734   */\n      add\n        /* \"#utility.yul\":5712:5734   */\n      swap1\n      pop\n        /* \"#utility.yul\":5618:5740   */\n      swap2\n      swap1\n      pop\n      jump\t// out\n        /* \"#utility.yul\":5772:6735   */\n    tag_261:\n        /* \"#utility.yul\":5899:5902   */\n      0x00\n        /* \"#utility.yul\":5928:5991   */\n      tag_380\n        /* \"#utility.yul\":5985:5990   */\n      dup3\n        /* \"#utility.yul\":5928:5991   */\n      tag_251\n      jump\t// in\n    tag_380:\n        /* \"#utility.yul\":6007:6092   */\n      tag_381\n        /* \"#utility.yul\":6085:6091   */\n      dup2\n        /* \"#utility.yul\":6080:6083   */\n      dup6\n        /* \"#utility.yul\":6007:6092   */\n      tag_252\n      jump\t// in\n    tag_381:\n        /* \"#utility.yul\":6000:6092   */\n      swap4\n      pop\n        /* \"#utility.yul\":6118:6121   */\n      dup4\n        /* \"#utility.yul\":6163:6167   */\n      0x20\n        /* \"#utility.yul\":6155:6161   */\n      dup3\n        /* \"#utility.yul\":6151:6168   */\n      mul\n        /* \"#utility.yul\":6146:6149   */\n      dup6\n        /* \"#utility.yul\":6142:6169   */\n      add\n        /* \"#utility.yul\":6193:6258   */\n      tag_382\n        /* \"#utility.yul\":6252:6257   */\n      dup6\n        /* \"#utility.yul\":6193:6258   */\n      tag_253\n      jump\t// in\n    tag_382:\n        /* \"#utility.yul\":6281:6288   */\n      dup1\n        /* \"#utility.yul\":6312:6313   */\n      0x00\n        /* \"#utility.yul\":6297:6690   */\n    tag_383:\n        /* \"#utility.yul\":6322:6328   */\n      dup6\n        /* \"#utility.yul\":6319:6320   */\n      dup2\n        /* \"#utility.yul\":6316:6329   */\n      lt\n        /* \"#utility.yul\":6297:6690   */\n      iszero\n      tag_385\n      jumpi\n        /* \"#utility.yul\":6393:6402   */\n      dup5\n        /* \"#utility.yul\":6387:6391   */\n      dup5\n        /* \"#utility.yul\":6383:6403   */\n      sub\n        /* \"#utility.yul\":6378:6381   */\n      dup10\n        /* \"#utility.yul\":6371:6404   */\n      mstore\n        /* \"#utility.yul\":6444:6450   */\n      dup2\n        /* \"#utility.yul\":6438:6451   */\n      mload\n        /* \"#utility.yul\":6472:6554   */\n      tag_386\n        /* \"#utility.yul\":6549:6553   */\n      dup6\n        /* \"#utility.yul\":6534:6547   */\n      dup3\n        /* \"#utility.yul\":6472:6554   */\n      tag_259\n      jump\t// in\n    tag_386:\n        /* \"#utility.yul\":6464:6554   */\n      swap5\n      pop\n        /* \"#utility.yul\":6577:6646   */\n      tag_387\n        /* \"#utility.yul\":6639:6645   */\n      dup4\n        /* \"#utility.yul\":6577:6646   */\n      tag_260\n      jump\t// in\n    tag_387:\n        /* \"#utility.yul\":6567:6646   */\n      swap3\n      pop\n        /* \"#utility.yul\":6675:6679   */\n      0x20\n        /* \"#utility.yul\":6670:6673   */\n      dup11\n        /* \"#utility.yul\":6666:6680   */\n      add\n        /* \"#utility.yul\":6659:6680   */\n      swap10\n      pop\n        /* \"#utility.yul\":6357:6690   */\n      pop\n        /* \"#utility.yul\":6344:6345   */\n      0x01\n        /* \"#utility.yul\":6341:6342   */\n      dup2\n        /* \"#utility.yul\":6337:6346   */\n      add\n        /* \"#utility.yul\":6332:6346   */\n      swap1\n      pop\n        /* \"#utility.yul\":6297:6690   */\n      jump(tag_383)\n    tag_385:\n        /* \"#utility.yul\":6301:6315   */\n      pop\n        /* \"#utility.yul\":6706:6710   */\n      dup3\n        /* \"#utility.yul\":6699:6710   */\n      swap8\n      pop\n        /* \"#utility.yul\":6726:6729   */\n      dup8\n        /* \"#utility.yul\":6719:6729   */\n      swap6\n      pop\n        /* \"#utility.yul\":5904:6735   */\n      pop\n      pop\n      pop\n      pop\n      pop\n        /* \"#utility.yul\":5772:6735   */\n      swap3\n      swap2\n      pop\n      pop\n      jump\t// out\n        /* \"#utility.yul\":6843:9124   */\n    tag_262:\n        /* \"#utility.yul\":6980:6983   */\n      0x00\n        /* \"#utility.yul\":7016:7022   */\n      0x0100\n        /* \"#utility.yul\":7011:7014   */\n      dup4\n        /* \"#utility.yul\":7007:7023   */\n      add\n        /* \"#utility.yul\":7120:7124   */\n      0x00\n        /* \"#utility.yul\":7113:7118   */\n      dup4\n        /* \"#utility.yul\":7109:7125   */\n      add\n        /* \"#utility.yul\":7103:7126   */\n      mload\n        /* \"#utility.yul\":7173:7176   */\n      dup5\n        /* \"#utility.yul\":7167:7171   */\n      dup3\n        /* \"#utility.yul\":7163:7177   */\n      sub\n        /* \"#utility.yul\":7156:7160   */\n      0x00\n        /* \"#utility.yul\":7151:7154   */\n      dup7\n        /* \"#utility.yul\":7147:7161   */\n      add\n        /* \"#utility.yul\":7140:7178   */\n      mstore\n        /* \"#utility.yul\":7199:7302   */\n      tag_389\n        /* \"#utility.yul\":7297:7301   */\n      dup3\n        /* \"#utility.yul\":7283:7295   */\n      dup3\n        /* \"#utility.yul\":7199:7302   */\n      tag_250\n      jump\t// in\n    tag_389:\n        /* \"#utility.yul\":7191:7302   */\n      swap2\n      pop\n        /* \"#utility.yul\":7033:7313   */\n      pop\n        /* \"#utility.yul\":7396:7400   */\n      0x20\n        /* \"#utility.yul\":7389:7394   */\n      dup4\n        /* \"#utility.yul\":7385:7401   */\n      add\n        /* \"#utility.yul\":7379:7402   */\n      mload\n        /* \"#utility.yul\":7449:7452   */\n      dup5\n        /* \"#utility.yul\":7443:7447   */\n      dup3\n        /* \"#utility.yul\":7439:7453   */\n      sub\n        /* \"#utility.yul\":7432:7436   */\n      0x20\n        /* \"#utility.yul\":7427:7430   */\n      dup7\n        /* \"#utility.yul\":7423:7437   */\n      add\n        /* \"#utility.yul\":7416:7454   */\n      mstore\n        /* \"#utility.yul\":7475:7596   */\n      tag_390\n        /* \"#utility.yul\":7591:7595   */\n      dup3\n        /* \"#utility.yul\":7577:7589   */\n      dup3\n        /* \"#utility.yul\":7475:7596   */\n      tag_261\n      jump\t// in\n    tag_390:\n        /* \"#utility.yul\":7467:7596   */\n      swap2\n      pop\n        /* \"#utility.yul\":7323:7607   */\n      pop\n        /* \"#utility.yul\":7692:7696   */\n      0x40\n        /* \"#utility.yul\":7685:7690   */\n      dup4\n        /* \"#utility.yul\":7681:7697   */\n      add\n        /* \"#utility.yul\":7675:7698   */\n      mload\n        /* \"#utility.yul\":7745:7748   */\n      dup5\n        /* \"#utility.yul\":7739:7743   */\n      dup3\n        /* \"#utility.yul\":7735:7749   */\n      sub\n        /* \"#utility.yul\":7728:7732   */\n      0x40\n        /* \"#utility.yul\":7723:7726   */\n      dup7\n        /* \"#utility.yul\":7719:7733   */\n      add\n        /* \"#utility.yul\":7712:7750   */\n      mstore\n        /* \"#utility.yul\":7771:7842   */\n      tag_391\n        /* \"#utility.yul\":7837:7841   */\n      dup3\n        /* \"#utility.yul\":7823:7835   */\n      dup3\n        /* \"#utility.yul\":7771:7842   */\n      tag_258\n      jump\t// in\n    tag_391:\n        /* \"#utility.yul\":7763:7842   */\n      swap2\n      pop\n        /* \"#utility.yul\":7617:7853   */\n      pop\n        /* \"#utility.yul\":7945:7949   */\n      0x60\n        /* \"#utility.yul\":7938:7943   */\n      dup4\n        /* \"#utility.yul\":7934:7950   */\n      add\n        /* \"#utility.yul\":7928:7951   */\n      mload\n        /* \"#utility.yul\":7998:8001   */\n      dup5\n        /* \"#utility.yul\":7992:7996   */\n      dup3\n        /* \"#utility.yul\":7988:8002   */\n      sub\n        /* \"#utility.yul\":7981:7985   */\n      0x60\n        /* \"#utility.yul\":7976:7979   */\n      dup7\n        /* \"#utility.yul\":7972:7986   */\n      add\n        /* \"#utility.yul\":7965:8003   */\n      mstore\n        /* \"#utility.yul\":8024:8095   */\n      tag_392\n        /* \"#utility.yul\":8090:8094   */\n      dup3\n        /* \"#utility.yul\":8076:8088   */\n      dup3\n        /* \"#utility.yul\":8024:8095   */\n      tag_258\n      jump\t// in\n    tag_392:\n        /* \"#utility.yul\":8016:8095   */\n      swap2\n      pop\n        /* \"#utility.yul\":7863:8106   */\n      pop\n        /* \"#utility.yul\":8191:8195   */\n      0x80\n        /* \"#utility.yul\":8184:8189   */\n      dup4\n        /* \"#utility.yul\":8180:8196   */\n      add\n        /* \"#utility.yul\":8174:8197   */\n      mload\n        /* \"#utility.yul\":8244:8247   */\n      dup5\n        /* \"#utility.yul\":8238:8242   */\n      dup3\n        /* \"#utility.yul\":8234:8248   */\n      sub\n        /* \"#utility.yul\":8227:8231   */\n      0x80\n        /* \"#utility.yul\":8222:8225   */\n      dup7\n        /* \"#utility.yul\":8218:8232   */\n      add\n        /* \"#utility.yul\":8211:8249   */\n      mstore\n        /* \"#utility.yul\":8270:8341   */\n      tag_393\n        /* \"#utility.yul\":8336:8340   */\n      dup3\n        /* \"#utility.yul\":8322:8334   */\n      dup3\n        /* \"#utility.yul\":8270:8341   */\n      tag_258\n      jump\t// in\n    tag_393:\n        /* \"#utility.yul\":8262:8341   */\n      swap2\n      pop\n        /* \"#utility.yul\":8116:8352   */\n      pop\n        /* \"#utility.yul\":8438:8442   */\n      0xa0\n        /* \"#utility.yul\":8431:8436   */\n      dup4\n        /* \"#utility.yul\":8427:8443   */\n      add\n        /* \"#utility.yul\":8421:8444   */\n      mload\n        /* \"#utility.yul\":8491:8494   */\n      dup5\n        /* \"#utility.yul\":8485:8489   */\n      dup3\n        /* \"#utility.yul\":8481:8495   */\n      sub\n        /* \"#utility.yul\":8474:8478   */\n      0xa0\n        /* \"#utility.yul\":8469:8472   */\n      dup7\n        /* \"#utility.yul\":8465:8479   */\n      add\n        /* \"#utility.yul\":8458:8496   */\n      mstore\n        /* \"#utility.yul\":8517:8588   */\n      tag_394\n        /* \"#utility.yul\":8583:8587   */\n      dup3\n        /* \"#utility.yul\":8569:8581   */\n      dup3\n        /* \"#utility.yul\":8517:8588   */\n      tag_258\n      jump\t// in\n    tag_394:\n        /* \"#utility.yul\":8509:8588   */\n      swap2\n      pop\n        /* \"#utility.yul\":8362:8599   */\n      pop\n        /* \"#utility.yul\":8684:8688   */\n      0xc0\n        /* \"#utility.yul\":8677:8682   */\n      dup4\n        /* \"#utility.yul\":8673:8689   */\n      add\n        /* \"#utility.yul\":8667:8690   */\n      mload\n        /* \"#utility.yul\":8737:8740   */\n      dup5\n        /* \"#utility.yul\":8731:8735   */\n      dup3\n        /* \"#utility.yul\":8727:8741   */\n      sub\n        /* \"#utility.yul\":8720:8724   */\n      0xc0\n        /* \"#utility.yul\":8715:8718   */\n      dup7\n        /* \"#utility.yul\":8711:8725   */\n      add\n        /* \"#utility.yul\":8704:8742   */\n      mstore\n        /* \"#utility.yul\":8763:8834   */\n      tag_395\n        /* \"#utility.yul\":8829:8833   */\n      dup3\n        /* \"#utility.yul\":8815:8827   */\n      dup3\n        /* \"#utility.yul\":8763:8834   */\n      tag_258\n      jump\t// in\n    tag_395:\n        /* \"#utility.yul\":8755:8834   */\n      swap2\n      pop\n        /* \"#utility.yul\":8609:8845   */\n      pop\n        /* \"#utility.yul\":8936:8940   */\n      0xe0\n        /* \"#utility.yul\":8929:8934   */\n      dup4\n        /* \"#utility.yul\":8925:8941   */\n      add\n        /* \"#utility.yul\":8919:8942   */\n      mload\n        /* \"#utility.yul\":8989:8992   */\n      dup5\n        /* \"#utility.yul\":8983:8987   */\n      dup3\n        /* \"#utility.yul\":8979:8993   */\n      sub\n        /* \"#utility.yul\":8972:8976   */\n      0xe0\n        /* \"#utility.yul\":8967:8970   */\n      dup7\n        /* \"#utility.yul\":8963:8977   */\n      add\n        /* \"#utility.yul\":8956:8994   */\n      mstore\n        /* \"#utility.yul\":9015:9086   */\n      tag_396\n        /* \"#utility.yul\":9081:9085   */\n      dup3\n        /* \"#utility.yul\":9067:9079   */\n      dup3\n        /* \"#utility.yul\":9015:9086   */\n      tag_258\n      jump\t// in\n    tag_396:\n        /* \"#utility.yul\":9007:9086   */\n      swap2\n      pop\n        /* \"#utility.yul\":8855:9097   */\n      pop\n        /* \"#utility.yul\":9114:9118   */\n      dup1\n        /* \"#utility.yul\":9107:9118   */\n      swap2\n      pop\n        /* \"#utility.yul\":6985:9124   */\n      pop\n        /* \"#utility.yul\":6843:9124   */\n      swap3\n      swap2\n      pop\n      pop\n      jump\t// out\n        /* \"#utility.yul\":9130:9539   */\n    tag_22:\n        /* \"#utility.yul\":9291:9295   */\n      0x00\n        /* \"#utility.yul\":9329:9331   */\n      0x20\n        /* \"#utility.yul\":9318:9327   */\n      dup3\n        /* \"#utility.yul\":9314:9332   */\n      add\n        /* \"#utility.yul\":9306:9332   */\n      swap1\n      pop\n        /* \"#utility.yul\":9378:9387   */\n      dup2\n        /* \"#utility.yul\":9372:9376   */\n      dup2\n        /* \"#utility.yul\":9368:9388   */\n      sub\n        /* \"#utility.yul\":9364:9365   */\n      0x00\n        /* \"#utility.yul\":9353:9362   */\n      dup4\n        /* \"#utility.yul\":9349:9366   */\n      add\n        /* \"#utility.yul\":9342:9389   */\n      mstore\n        /* \"#utility.yul\":9406:9532   */\n      tag_398\n        /* \"#utility.yul\":9527:9531   */\n      dup2\n        /* \"#utility.yul\":9518:9524   */\n      dup5\n        /* \"#utility.yul\":9406:9532   */\n      tag_262\n      jump\t// in\n    tag_398:\n        /* \"#utility.yul\":9398:9532   */\n      swap1\n      pop\n        /* \"#utility.yul\":9130:9539   */\n      swap3\n      swap2\n      pop\n      pop\n      jump\t// out\n        /* \"#utility.yul\":9545:9662   */\n    tag_263:\n        /* \"#utility.yul\":9654:9655   */\n      0x00\n        /* \"#utility.yul\":9651:9652   */\n      dup1\n        /* \"#utility.yul\":9644:9656   */\n      revert\n        /* \"#utility.yul\":9668:9848   */\n    tag_156:\n        /* \"#utility.yul\":9716:9793   */\n      0x4e487b7100000000000000000000000000000000000000000000000000000000\n        /* \"#utility.yul\":9713:9714   */\n      0x00\n        /* \"#utility.yul\":9706:9794   */\n      mstore\n        /* \"#utility.yul\":9813:9817   */\n      0x41\n        /* \"#utility.yul\":9810:9811   */\n      0x04\n        /* \"#utility.yul\":9803:9818   */\n      mstore\n        /* \"#utility.yul\":9837:9841   */\n      0x24\n        /* \"#utility.yul\":9834:9835   */\n      0x00\n        /* \"#utility.yul\":9827:9842   */\n      revert\n        /* \"#utility.yul\":9854:10135   */\n    tag_264:\n        /* \"#utility.yul\":9937:9964   */\n      tag_402\n        /* \"#utility.yul\":9959:9963   */\n      dup3\n        /* \"#utility.yul\":9937:9964   */\n      tag_257\n      jump\t// in\n    tag_402:\n        /* \"#utility.yul\":9929:9935   */\n      dup2\n        /* \"#utility.yul\":9925:9965   */\n      add\n        /* \"#utility.yul\":10067:10073   */\n      dup2\n        /* \"#utility.yul\":10055:10065   */\n      dup2\n        /* \"#utility.yul\":10052:10074   */\n      lt\n        /* \"#utility.yul\":10031:10049   */\n      0xffffffffffffffff\n        /* \"#utility.yul\":10019:10029   */\n      dup3\n        /* \"#utility.yul\":10016:10050   */\n      gt\n        /* \"#utility.yul\":10013:10075   */\n      or\n        /* \"#utility.yul\":10010:10098   */\n      iszero\n      tag_403\n      jumpi\n        /* \"#utility.yul\":10078:10096   */\n      tag_404\n      tag_156\n      jump\t// in\n    tag_404:\n        /* \"#utility.yul\":10010:10098   */\n    tag_403:\n        /* \"#utility.yul\":10118:10128   */\n      dup1\n        /* \"#utility.yul\":10114:10116   */\n      0x40\n        /* \"#utility.yul\":10107:10129   */\n      mstore\n        /* \"#utility.yul\":9897:10135   */\n      pop\n        /* \"#utility.yul\":9854:10135   */\n      pop\n      pop\n      jump\t// out\n        /* \"#utility.yul\":10141:10270   */\n    tag_265:\n        /* \"#utility.yul\":10175:10181   */\n      0x00\n        /* \"#utility.yul\":10202:10222   */\n      tag_406\n      tag_233\n      jump\t// in\n    tag_406:\n        /* \"#utility.yul\":10192:10222   */\n      swap1\n      pop\n        /* \"#utility.yul\":10231:10264   */\n      tag_407\n        /* \"#utility.yul\":10259:10263   */\n      dup3\n        /* \"#utility.yul\":10251:10257   */\n      dup3\n        /* \"#utility.yul\":10231:10264   */\n      tag_264\n      jump\t// in\n    tag_407:\n        /* \"#utility.yul\":10141:10270   */\n      swap2\n      swap1\n      pop\n      jump\t// out\n        /* \"#utility.yul\":10276:10587   */\n    tag_266:\n        /* \"#utility.yul\":10353:10357   */\n      0x00\n        /* \"#utility.yul\":10443:10461   */\n      0xffffffffffffffff\n        /* \"#utility.yul\":10435:10441   */\n      dup3\n        /* \"#utility.yul\":10432:10462   */\n      gt\n        /* \"#utility.yul\":10429:10485   */\n      iszero\n      tag_409\n      jumpi\n        /* \"#utility.yul\":10465:10483   */\n      tag_410\n      tag_156\n      jump\t// in\n    tag_410:\n        /* \"#utility.yul\":10429:10485   */\n    tag_409:\n        /* \"#utility.yul\":10515:10519   */\n      0x20\n        /* \"#utility.yul\":10507:10513   */\n      dup3\n        /* \"#utility.yul\":10503:10520   */\n      mul\n        /* \"#utility.yul\":10495:10520   */\n      swap1\n      pop\n        /* \"#utility.yul\":10575:10579   */\n      0x20\n        /* \"#utility.yul\":10569:10573   */\n      dup2\n        /* \"#utility.yul\":10565:10580   */\n      add\n        /* \"#utility.yul\":10557:10580   */\n      swap1\n      pop\n        /* \"#utility.yul\":10276:10587   */\n      swap2\n      swap1\n      pop\n      jump\t// out\n        /* \"#utility.yul\":10593:10710   */\n    tag_267:\n        /* \"#utility.yul\":10702:10703   */\n      0x00\n        /* \"#utility.yul\":10699:10700   */\n      dup1\n        /* \"#utility.yul\":10692:10704   */\n      revert\n        /* \"#utility.yul\":10733:11443   */\n    tag_268:\n        /* \"#utility.yul\":10829:10834   */\n      0x00\n        /* \"#utility.yul\":10854:10935   */\n      tag_413\n        /* \"#utility.yul\":10870:10934   */\n      tag_414\n        /* \"#utility.yul\":10927:10933   */\n      dup5\n        /* \"#utility.yul\":10870:10934   */\n      tag_266\n      jump\t// in\n    tag_414:\n        /* \"#utility.yul\":10854:10935   */\n      tag_265\n      jump\t// in\n    tag_413:\n        /* \"#utility.yul\":10845:10935   */\n      swap1\n      pop\n        /* \"#utility.yul\":10955:10960   */\n      dup1\n        /* \"#utility.yul\":10984:10990   */\n      dup4\n        /* \"#utility.yul\":10977:10982   */\n      dup3\n        /* \"#utility.yul\":10970:10991   */\n      mstore\n        /* \"#utility.yul\":11018:11022   */\n      0x20\n        /* \"#utility.yul\":11011:11016   */\n      dup3\n        /* \"#utility.yul\":11007:11023   */\n      add\n        /* \"#utility.yul\":11000:11023   */\n      swap1\n      pop\n        /* \"#utility.yul\":11071:11075   */\n      0x20\n        /* \"#utility.yul\":11063:11069   */\n      dup5\n        /* \"#utility.yul\":11059:11076   */\n      mul\n        /* \"#utility.yul\":11051:11057   */\n      dup4\n        /* \"#utility.yul\":11047:11077   */\n      add\n        /* \"#utility.yul\":11100:11103   */\n      dup6\n        /* \"#utility.yul\":11092:11098   */\n      dup2\n        /* \"#utility.yul\":11089:11104   */\n      gt\n        /* \"#utility.yul\":11086:11208   */\n      iszero\n      tag_415\n      jumpi\n        /* \"#utility.yul\":11119:11198   */\n      tag_416\n      tag_267\n      jump\t// in\n    tag_416:\n        /* \"#utility.yul\":11086:11208   */\n    tag_415:\n        /* \"#utility.yul\":11234:11240   */\n      dup4\n        /* \"#utility.yul\":11217:11437   */\n    tag_417:\n        /* \"#utility.yul\":11251:11257   */\n      dup2\n        /* \"#utility.yul\":11246:11249   */\n      dup2\n        /* \"#utility.yul\":11243:11258   */\n      lt\n        /* \"#utility.yul\":11217:11437   */\n      iszero\n      tag_419\n      jumpi\n        /* \"#utility.yul\":11326:11329   */\n      dup1\n        /* \"#utility.yul\":11355:11392   */\n      tag_420\n        /* \"#utility.yul\":11388:11391   */\n      dup9\n        /* \"#utility.yul\":11376:11386   */\n      dup3\n        /* \"#utility.yul\":11355:11392   */\n      tag_239\n      jump\t// in\n    tag_420:\n        /* \"#utility.yul\":11350:11353   */\n      dup5\n        /* \"#utility.yul\":11343:11393   */\n      mstore\n        /* \"#utility.yul\":11422:11426   */\n      0x20\n        /* \"#utility.yul\":11417:11420   */\n      dup5\n        /* \"#utility.yul\":11413:11427   */\n      add\n        /* \"#utility.yul\":11406:11427   */\n      swap4\n      pop\n        /* \"#utility.yul\":11293:11437   */\n      pop\n        /* \"#utility.yul\":11277:11281   */\n      0x20\n        /* \"#utility.yul\":11272:11275   */\n      dup2\n        /* \"#utility.yul\":11268:11282   */\n      add\n        /* \"#utility.yul\":11261:11282   */\n      swap1\n      pop\n        /* \"#utility.yul\":11217:11437   */\n      jump(tag_417)\n    tag_419:\n        /* \"#utility.yul\":11221:11242   */\n      pop\n        /* \"#utility.yul\":10835:11443   */\n      pop\n      pop\n        /* \"#utility.yul\":10733:11443   */\n      swap4\n      swap3\n      pop\n      pop\n      pop\n      jump\t// out\n        /* \"#utility.yul\":11466:11836   */\n    tag_269:\n        /* \"#utility.yul\":11537:11542   */\n      0x00\n        /* \"#utility.yul\":11586:11589   */\n      dup3\n        /* \"#utility.yul\":11579:11583   */\n      0x1f\n        /* \"#utility.yul\":11571:11577   */\n      dup4\n        /* \"#utility.yul\":11567:11584   */\n      add\n        /* \"#utility.yul\":11563:11590   */\n      slt\n        /* \"#utility.yul\":11553:11675   */\n      tag_422\n      jumpi\n        /* \"#utility.yul\":11594:11673   */\n      tag_423\n      tag_263\n      jump\t// in\n    tag_423:\n        /* \"#utility.yul\":11553:11675   */\n    tag_422:\n        /* \"#utility.yul\":11711:11717   */\n      dup2\n        /* \"#utility.yul\":11698:11718   */\n      calldataload\n        /* \"#utility.yul\":11736:11830   */\n      tag_424\n        /* \"#utility.yul\":11826:11829   */\n      dup5\n        /* \"#utility.yul\":11818:11824   */\n      dup3\n        /* \"#utility.yul\":11811:11815   */\n      0x20\n        /* \"#utility.yul\":11803:11809   */\n      dup7\n        /* \"#utility.yul\":11799:11816   */\n      add\n        /* \"#utility.yul\":11736:11830   */\n      tag_268\n      jump\t// in\n    tag_424:\n        /* \"#utility.yul\":11727:11830   */\n      swap2\n      pop\n        /* \"#utility.yul\":11543:11836   */\n      pop\n        /* \"#utility.yul\":11466:11836   */\n      swap3\n      swap2\n      pop\n      pop\n      jump\t// out\n        /* \"#utility.yul\":11842:12162   */\n    tag_270:\n        /* \"#utility.yul\":11928:11932   */\n      0x00\n        /* \"#utility.yul\":12018:12036   */\n      0xffffffffffffffff\n        /* \"#utility.yul\":12010:12016   */\n      dup3\n        /* \"#utility.yul\":12007:12037   */\n      gt\n        /* \"#utility.yul\":12004:12060   */\n      iszero\n      tag_426\n      jumpi\n        /* \"#utility.yul\":12040:12058   */\n      tag_427\n      tag_156\n      jump\t// in\n    tag_427:\n        /* \"#utility.yul\":12004:12060   */\n    tag_426:\n        /* \"#utility.yul\":12090:12094   */\n      0x20\n        /* \"#utility.yul\":12082:12088   */\n      dup3\n        /* \"#utility.yul\":12078:12095   */\n      mul\n        /* \"#utility.yul\":12070:12095   */\n      swap1\n      pop\n        /* \"#utility.yul\":12150:12154   */\n      0x20\n        /* \"#utility.yul\":12144:12148   */\n      dup2\n        /* \"#utility.yul\":12140:12155   */\n      add\n        /* \"#utility.yul\":12132:12155   */\n      swap1\n      pop\n        /* \"#utility.yul\":11842:12162   */\n      swap2\n      swap1\n      pop\n      jump\t// out\n        /* \"#utility.yul\":12168:12285   */\n    tag_271:\n        /* \"#utility.yul\":12277:12278   */\n      0x00\n        /* \"#utility.yul\":12274:12275   */\n      dup1\n        /* \"#utility.yul\":12267:12279   */\n      revert\n        /* \"#utility.yul\":12291:12598   */\n    tag_272:\n        /* \"#utility.yul\":12352:12356   */\n      0x00\n        /* \"#utility.yul\":12442:12460   */\n      0xffffffffffffffff\n        /* \"#utility.yul\":12434:12440   */\n      dup3\n        /* \"#utility.yul\":12431:12461   */\n      gt\n        /* \"#utility.yul\":12428:12484   */\n      iszero\n      tag_430\n      jumpi\n        /* \"#utility.yul\":12464:12482   */\n      tag_431\n      tag_156\n      jump\t// in\n    tag_431:\n        /* \"#utility.yul\":12428:12484   */\n    tag_430:\n        /* \"#utility.yul\":12502:12531   */\n      tag_432\n        /* \"#utility.yul\":12524:12530   */\n      dup3\n        /* \"#utility.yul\":12502:12531   */\n      tag_257\n      jump\t// in\n    tag_432:\n        /* \"#utility.yul\":12494:12531   */\n      swap1\n      pop\n        /* \"#utility.yul\":12586:12590   */\n      0x20\n        /* \"#utility.yul\":12580:12584   */\n      dup2\n        /* \"#utility.yul\":12576:12591   */\n      add\n        /* \"#utility.yul\":12568:12591   */\n      swap1\n      pop\n        /* \"#utility.yul\":12291:12598   */\n      swap2\n      swap1\n      pop\n      jump\t// out\n        /* \"#utility.yul\":12604:12750   */\n    tag_273:\n        /* \"#utility.yul\":12701:12707   */\n      dup3\n        /* \"#utility.yul\":12696:12699   */\n      dup2\n        /* \"#utility.yul\":12691:12694   */\n      dup4\n        /* \"#utility.yul\":12678:12708   */\n      calldatacopy\n        /* \"#utility.yul\":12742:12743   */\n      0x00\n        /* \"#utility.yul\":12733:12739   */\n      dup4\n        /* \"#utility.yul\":12728:12731   */\n      dup4\n        /* \"#utility.yul\":12724:12740   */\n      add\n        /* \"#utility.yul\":12717:12744   */\n      mstore\n        /* \"#utility.yul\":12604:12750   */\n      pop\n      pop\n      pop\n      jump\t// out\n        /* \"#utility.yul\":12756:13179   */\n    tag_274:\n        /* \"#utility.yul\":12833:12838   */\n      0x00\n        /* \"#utility.yul\":12858:12923   */\n      tag_435\n        /* \"#utility.yul\":12874:12922   */\n      tag_436\n        /* \"#utility.yul\":12915:12921   */\n      dup5\n        /* \"#utility.yul\":12874:12922   */\n      tag_272\n      jump\t// in\n    tag_436:\n        /* \"#utility.yul\":12858:12923   */\n      tag_265\n      jump\t// in\n    tag_435:\n        /* \"#utility.yul\":12849:12923   */\n      swap1\n      pop\n        /* \"#utility.yul\":12946:12952   */\n      dup3\n        /* \"#utility.yul\":12939:12944   */\n      dup2\n        /* \"#utility.yul\":12932:12953   */\n      mstore\n        /* \"#utility.yul\":12984:12988   */\n      0x20\n        /* \"#utility.yul\":12977:12982   */\n      dup2\n        /* \"#utility.yul\":12973:12989   */\n      add\n        /* \"#utility.yul\":13022:13025   */\n      dup5\n        /* \"#utility.yul\":13013:13019   */\n      dup5\n        /* \"#utility.yul\":13008:13011   */\n      dup5\n        /* \"#utility.yul\":13004:13020   */\n      add\n        /* \"#utility.yul\":13001:13026   */\n      gt\n        /* \"#utility.yul\":12998:13110   */\n      iszero\n      tag_437\n      jumpi\n        /* \"#utility.yul\":13029:13108   */\n      tag_438\n      tag_271\n      jump\t// in\n    tag_438:\n        /* \"#utility.yul\":12998:13110   */\n    tag_437:\n        /* \"#utility.yul\":13119:13173   */\n      tag_439\n        /* \"#utility.yul\":13166:13172   */\n      dup5\n        /* \"#utility.yul\":13161:13164   */\n      dup3\n        /* \"#utility.yul\":13156:13159   */\n      dup6\n        /* \"#utility.yul\":13119:13173   */\n      tag_273\n      jump\t// in\n    tag_439:\n        /* \"#utility.yul\":12839:13179   */\n      pop\n        /* \"#utility.yul\":12756:13179   */\n      swap4\n      swap3\n      pop\n      pop\n      pop\n      jump\t// out\n        /* \"#utility.yul\":13198:13536   */\n    tag_275:\n        /* \"#utility.yul\":13253:13258   */\n      0x00\n        /* \"#utility.yul\":13302:13305   */\n      dup3\n        /* \"#utility.yul\":13295:13299   */\n      0x1f\n        /* \"#utility.yul\":13287:13293   */\n      dup4\n        /* \"#utility.yul\":13283:13300   */\n      add\n        /* \"#utility.yul\":13279:13306   */\n      slt\n        /* \"#utility.yul\":13269:13391   */\n      tag_441\n      jumpi\n        /* \"#utility.yul\":13310:13389   */\n      tag_442\n      tag_263\n      jump\t// in\n    tag_442:\n        /* \"#utility.yul\":13269:13391   */\n    tag_441:\n        /* \"#utility.yul\":13427:13433   */\n      dup2\n        /* \"#utility.yul\":13414:13434   */\n      calldataload\n        /* \"#utility.yul\":13452:13530   */\n      tag_443\n        /* \"#utility.yul\":13526:13529   */\n      dup5\n        /* \"#utility.yul\":13518:13524   */\n      dup3\n        /* \"#utility.yul\":13511:13515   */\n      0x20\n        /* \"#utility.yul\":13503:13509   */\n      dup7\n        /* \"#utility.yul\":13499:13516   */\n      add\n        /* \"#utility.yul\":13452:13530   */\n      tag_274\n      jump\t// in\n    tag_443:\n        /* \"#utility.yul\":13443:13530   */\n      swap2\n      pop\n        /* \"#utility.yul\":13259:13536   */\n      pop\n        /* \"#utility.yul\":13198:13536   */\n      swap3\n      swap2\n      pop\n      pop\n      jump\t// out\n        /* \"#utility.yul\":13557:14499   */\n    tag_276:\n        /* \"#utility.yul\":13662:13667   */\n      0x00\n        /* \"#utility.yul\":13687:13777   */\n      tag_445\n        /* \"#utility.yul\":13703:13776   */\n      tag_446\n        /* \"#utility.yul\":13769:13775   */\n      dup5\n        /* \"#utility.yul\":13703:13776   */\n      tag_270\n      jump\t// in\n    tag_446:\n        /* \"#utility.yul\":13687:13777   */\n      tag_265\n      jump\t// in\n    tag_445:\n        /* \"#utility.yul\":13678:13777   */\n      swap1\n      pop\n        /* \"#utility.yul\":13797:13802   */\n      dup1\n        /* \"#utility.yul\":13826:13832   */\n      dup4\n        /* \"#utility.yul\":13819:13824   */\n      dup3\n        /* \"#utility.yul\":13812:13833   */\n      mstore\n        /* \"#utility.yul\":13860:13864   */\n      0x20\n        /* \"#utility.yul\":13853:13858   */\n      dup3\n        /* \"#utility.yul\":13849:13865   */\n      add\n        /* \"#utility.yul\":13842:13865   */\n      swap1\n      pop\n        /* \"#utility.yul\":13913:13917   */\n      0x20\n        /* \"#utility.yul\":13905:13911   */\n      dup5\n        /* \"#utility.yul\":13901:13918   */\n      mul\n        /* \"#utility.yul\":13893:13899   */\n      dup4\n        /* \"#utility.yul\":13889:13919   */\n      add\n        /* \"#utility.yul\":13942:13945   */\n      dup6\n        /* \"#utility.yul\":13934:13940   */\n      dup2\n        /* \"#utility.yul\":13931:13946   */\n      gt\n        /* \"#utility.yul\":13928:14050   */\n      iszero\n      tag_447\n      jumpi\n        /* \"#utility.yul\":13961:14040   */\n      tag_448\n      tag_267\n      jump\t// in\n    tag_448:\n        /* \"#utility.yul\":13928:14050   */\n    tag_447:\n        /* \"#utility.yul\":14076:14082   */\n      dup4\n        /* \"#utility.yul\":14059:14493   */\n    tag_449:\n        /* \"#utility.yul\":14093:14099   */\n      dup2\n        /* \"#utility.yul\":14088:14091   */\n      dup2\n        /* \"#utility.yul\":14085:14100   */\n      lt\n        /* \"#utility.yul\":14059:14493   */\n      iszero\n      tag_451\n      jumpi\n        /* \"#utility.yul\":14182:14185   */\n      dup1\n        /* \"#utility.yul\":14169:14186   */\n      calldataload\n        /* \"#utility.yul\":14218:14236   */\n      0xffffffffffffffff\n        /* \"#utility.yul\":14205:14216   */\n      dup2\n        /* \"#utility.yul\":14202:14237   */\n      gt\n        /* \"#utility.yul\":14199:14321   */\n      iszero\n      tag_452\n      jumpi\n        /* \"#utility.yul\":14240:14319   */\n      tag_453\n      tag_263\n      jump\t// in\n    tag_453:\n        /* \"#utility.yul\":14199:14321   */\n    tag_452:\n        /* \"#utility.yul\":14364:14375   */\n      dup1\n        /* \"#utility.yul\":14356:14362   */\n      dup7\n        /* \"#utility.yul\":14352:14376   */\n      add\n        /* \"#utility.yul\":14402:14448   */\n      tag_454\n        /* \"#utility.yul\":14444:14447   */\n      dup10\n        /* \"#utility.yul\":14432:14442   */\n      dup3\n        /* \"#utility.yul\":14402:14448   */\n      tag_275\n      jump\t// in\n    tag_454:\n        /* \"#utility.yul\":14397:14400   */\n      dup6\n        /* \"#utility.yul\":14390:14449   */\n      mstore\n        /* \"#utility.yul\":14478:14482   */\n      0x20\n        /* \"#utility.yul\":14473:14476   */\n      dup6\n        /* \"#utility.yul\":14469:14483   */\n      add\n        /* \"#utility.yul\":14462:14483   */\n      swap5\n      pop\n        /* \"#utility.yul\":14135:14493   */\n      pop\n      pop\n        /* \"#utility.yul\":14119:14123   */\n      0x20\n        /* \"#utility.yul\":14114:14117   */\n      dup2\n        /* \"#utility.yul\":14110:14124   */\n      add\n        /* \"#utility.yul\":14103:14124   */\n      swap1\n      pop\n        /* \"#utility.yul\":14059:14493   */\n      jump(tag_449)\n    tag_451:\n        /* \"#utility.yul\":14063:14084   */\n      pop\n        /* \"#utility.yul\":13668:14499   */\n      pop\n      pop\n        /* \"#utility.yul\":13557:14499   */\n      swap4\n      swap3\n      pop\n      pop\n      pop\n      jump\t// out\n        /* \"#utility.yul\":14520:14908   */\n    tag_277:\n        /* \"#utility.yul\":14600:14605   */\n      0x00\n        /* \"#utility.yul\":14649:14652   */\n      dup3\n        /* \"#utility.yul\":14642:14646   */\n      0x1f\n        /* \"#utility.yul\":14634:14640   */\n      dup4\n        /* \"#utility.yul\":14630:14647   */\n      add\n        /* \"#utility.yul\":14626:14653   */\n      slt\n        /* \"#utility.yul\":14616:14738   */\n      tag_456\n      jumpi\n        /* \"#utility.yul\":14657:14736   */\n      tag_457\n      tag_263\n      jump\t// in\n    tag_457:\n        /* \"#utility.yul\":14616:14738   */\n    tag_456:\n        /* \"#utility.yul\":14774:14780   */\n      dup2\n        /* \"#utility.yul\":14761:14781   */\n      calldataload\n        /* \"#utility.yul\":14799:14902   */\n      tag_458\n        /* \"#utility.yul\":14898:14901   */\n      dup5\n        /* \"#utility.yul\":14890:14896   */\n      dup3\n        /* \"#utility.yul\":14883:14887   */\n      0x20\n        /* \"#utility.yul\":14875:14881   */\n      dup7\n        /* \"#utility.yul\":14871:14888   */\n      add\n        /* \"#utility.yul\":14799:14902   */\n      tag_276\n      jump\t// in\n    tag_458:\n        /* \"#utility.yul\":14790:14902   */\n      swap2\n      pop\n        /* \"#utility.yul\":14606:14908   */\n      pop\n        /* \"#utility.yul\":14520:14908   */\n      swap3\n      swap2\n      pop\n      pop\n      jump\t// out\n        /* \"#utility.yul\":14914:15031   */\n    tag_278:\n        /* \"#utility.yul\":15023:15024   */\n      0x00\n        /* \"#utility.yul\":15020:15021   */\n      dup1\n        /* \"#utility.yul\":15013:15025   */\n      revert\n        /* \"#utility.yul\":15050:15602   */\n    tag_279:\n        /* \"#utility.yul\":15107:15115   */\n      0x00\n        /* \"#utility.yul\":15117:15123   */\n      dup1\n        /* \"#utility.yul\":15167:15170   */\n      dup4\n        /* \"#utility.yul\":15160:15164   */\n      0x1f\n        /* \"#utility.yul\":15152:15158   */\n      dup5\n        /* \"#utility.yul\":15148:15165   */\n      add\n        /* \"#utility.yul\":15144:15171   */\n      slt\n        /* \"#utility.yul\":15134:15256   */\n      tag_461\n      jumpi\n        /* \"#utility.yul\":15175:15254   */\n      tag_462\n      tag_263\n      jump\t// in\n    tag_462:\n        /* \"#utility.yul\":15134:15256   */\n    tag_461:\n        /* \"#utility.yul\":15288:15294   */\n      dup3\n        /* \"#utility.yul\":15275:15295   */\n      calldataload\n        /* \"#utility.yul\":15265:15295   */\n      swap1\n      pop\n        /* \"#utility.yul\":15318:15336   */\n      0xffffffffffffffff\n        /* \"#utility.yul\":15310:15316   */\n      dup2\n        /* \"#utility.yul\":15307:15337   */\n      gt\n        /* \"#utility.yul\":15304:15421   */\n      iszero\n      tag_463\n      jumpi\n        /* \"#utility.yul\":15340:15419   */\n      tag_464\n      tag_278\n      jump\t// in\n    tag_464:\n        /* \"#utility.yul\":15304:15421   */\n    tag_463:\n        /* \"#utility.yul\":15454:15458   */\n      0x20\n        /* \"#utility.yul\":15446:15452   */\n      dup4\n        /* \"#utility.yul\":15442:15459   */\n      add\n        /* \"#utility.yul\":15430:15459   */\n      swap2\n      pop\n        /* \"#utility.yul\":15508:15511   */\n      dup4\n        /* \"#utility.yul\":15500:15504   */\n      0x01\n        /* \"#utility.yul\":15492:15498   */\n      dup3\n        /* \"#utility.yul\":15488:15505   */\n      mul\n        /* \"#utility.yul\":15478:15486   */\n      dup4\n        /* \"#utility.yul\":15474:15506   */\n      add\n        /* \"#utility.yul\":15471:15512   */\n      gt\n        /* \"#utility.yul\":15468:15596   */\n      iszero\n      tag_465\n      jumpi\n        /* \"#utility.yul\":15515:15594   */\n      tag_466\n      tag_267\n      jump\t// in\n    tag_466:\n        /* \"#utility.yul\":15468:15596   */\n    tag_465:\n        /* \"#utility.yul\":15050:15602   */\n      swap3\n      pop\n      swap3\n      swap1\n      pop\n      jump\t// out\n        /* \"#utility.yul\":15608:18503   */\n    tag_25:\n        /* \"#utility.yul\":15847:15853   */\n      0x00\n        /* \"#utility.yul\":15855:15861   */\n      dup1\n        /* \"#utility.yul\":15863:15869   */\n      0x00\n        /* \"#utility.yul\":15871:15877   */\n      dup1\n        /* \"#utility.yul\":15879:15885   */\n      0x00\n        /* \"#utility.yul\":15887:15893   */\n      dup1\n        /* \"#utility.yul\":15895:15901   */\n      0x00\n        /* \"#utility.yul\":15903:15909   */\n      dup1\n        /* \"#utility.yul\":15911:15917   */\n      0x00\n        /* \"#utility.yul\":15919:15925   */\n      dup1\n        /* \"#utility.yul\":15968:15971   */\n      0x0100\n        /* \"#utility.yul\":15956:15965   */\n      dup12\n        /* \"#utility.yul\":15947:15954   */\n      dup14\n        /* \"#utility.yul\":15943:15966   */\n      sub\n        /* \"#utility.yul\":15939:15972   */\n      slt\n        /* \"#utility.yul\":15936:16056   */\n      iszero\n      tag_468\n      jumpi\n        /* \"#utility.yul\":15975:16054   */\n      tag_469\n      tag_234\n      jump\t// in\n    tag_469:\n        /* \"#utility.yul\":15936:16056   */\n    tag_468:\n        /* \"#utility.yul\":16123:16124   */\n      0x00\n        /* \"#utility.yul\":16112:16121   */\n      dup12\n        /* \"#utility.yul\":16108:16125   */\n      add\n        /* \"#utility.yul\":16095:16126   */\n      calldataload\n        /* \"#utility.yul\":16153:16171   */\n      0xffffffffffffffff\n        /* \"#utility.yul\":16145:16151   */\n      dup2\n        /* \"#utility.yul\":16142:16172   */\n      gt\n        /* \"#utility.yul\":16139:16256   */\n      iszero\n      tag_470\n      jumpi\n        /* \"#utility.yul\":16175:16254   */\n      tag_471\n      tag_235\n      jump\t// in\n    tag_471:\n        /* \"#utility.yul\":16139:16256   */\n    tag_470:\n        /* \"#utility.yul\":16280:16358   */\n      tag_472\n        /* \"#utility.yul\":16350:16357   */\n      dup14\n        /* \"#utility.yul\":16341:16347   */\n      dup3\n        /* \"#utility.yul\":16330:16339   */\n      dup15\n        /* \"#utility.yul\":16326:16348   */\n      add\n        /* \"#utility.yul\":16280:16358   */\n      tag_269\n      jump\t// in\n    tag_472:\n        /* \"#utility.yul\":16270:16358   */\n      swap11\n      pop\n        /* \"#utility.yul\":16066:16368   */\n      pop\n        /* \"#utility.yul\":16435:16437   */\n      0x20\n        /* \"#utility.yul\":16424:16433   */\n      dup12\n        /* \"#utility.yul\":16420:16438   */\n      add\n        /* \"#utility.yul\":16407:16439   */\n      calldataload\n        /* \"#utility.yul\":16466:16484   */\n      0xffffffffffffffff\n        /* \"#utility.yul\":16458:16464   */\n      dup2\n        /* \"#utility.yul\":16455:16485   */\n      gt\n        /* \"#utility.yul\":16452:16569   */\n      iszero\n      tag_473\n      jumpi\n        /* \"#utility.yul\":16488:16567   */\n      tag_474\n      tag_235\n      jump\t// in\n    tag_474:\n        /* \"#utility.yul\":16452:16569   */\n    tag_473:\n        /* \"#utility.yul\":16593:16680   */\n      tag_475\n        /* \"#utility.yul\":16672:16679   */\n      dup14\n        /* \"#utility.yul\":16663:16669   */\n      dup3\n        /* \"#utility.yul\":16652:16661   */\n      dup15\n        /* \"#utility.yul\":16648:16670   */\n      add\n        /* \"#utility.yul\":16593:16680   */\n      tag_277\n      jump\t// in\n    tag_475:\n        /* \"#utility.yul\":16583:16680   */\n      swap10\n      pop\n        /* \"#utility.yul\":16378:16690   */\n      pop\n        /* \"#utility.yul\":16757:16759   */\n      0x40\n        /* \"#utility.yul\":16746:16755   */\n      dup12\n        /* \"#utility.yul\":16742:16760   */\n      add\n        /* \"#utility.yul\":16729:16761   */\n      calldataload\n        /* \"#utility.yul\":16788:16806   */\n      0xffffffffffffffff\n        /* \"#utility.yul\":16780:16786   */\n      dup2\n        /* \"#utility.yul\":16777:16807   */\n      gt\n        /* \"#utility.yul\":16774:16891   */\n      iszero\n      tag_476\n      jumpi\n        /* \"#utility.yul\":16810:16889   */\n      tag_477\n      tag_235\n      jump\t// in\n    tag_477:\n        /* \"#utility.yul\":16774:16891   */\n    tag_476:\n        /* \"#utility.yul\":16923:16987   */\n      tag_478\n        /* \"#utility.yul\":16979:16986   */\n      dup14\n        /* \"#utility.yul\":16970:16976   */\n      dup3\n        /* \"#utility.yul\":16959:16968   */\n      dup15\n        /* \"#utility.yul\":16955:16977   */\n      add\n        /* \"#utility.yul\":16923:16987   */\n      tag_279\n      jump\t// in\n    tag_478:\n        /* \"#utility.yul\":16905:16987   */\n      swap9\n      pop\n      swap9\n      pop\n        /* \"#utility.yul\":16700:16997   */\n      pop\n        /* \"#utility.yul\":17064:17066   */\n      0x60\n        /* \"#utility.yul\":17053:17062   */\n      dup12\n        /* \"#utility.yul\":17049:17067   */\n      add\n        /* \"#utility.yul\":17036:17068   */\n      calldataload\n        /* \"#utility.yul\":17095:17113   */\n      0xffffffffffffffff\n        /* \"#utility.yul\":17087:17093   */\n      dup2\n        /* \"#utility.yul\":17084:17114   */\n      gt\n        /* \"#utility.yul\":17081:17198   */\n      iszero\n      tag_479\n      jumpi\n        /* \"#utility.yul\":17117:17196   */\n      tag_480\n      tag_235\n      jump\t// in\n    tag_480:\n        /* \"#utility.yul\":17081:17198   */\n    tag_479:\n        /* \"#utility.yul\":17230:17294   */\n      tag_481\n        /* \"#utility.yul\":17286:17293   */\n      dup14\n        /* \"#utility.yul\":17277:17283   */\n      dup3\n        /* \"#utility.yul\":17266:17275   */\n      dup15\n        /* \"#utility.yul\":17262:17284   */\n      add\n        /* \"#utility.yul\":17230:17294   */\n      tag_279\n      jump\t// in\n    tag_481:\n        /* \"#utility.yul\":17212:17294   */\n      swap7\n      pop\n      swap7\n      pop\n        /* \"#utility.yul\":17007:17304   */\n      pop\n        /* \"#utility.yul\":17371:17374   */\n      0x80\n        /* \"#utility.yul\":17360:17369   */\n      dup12\n        /* \"#utility.yul\":17356:17375   */\n      add\n        /* \"#utility.yul\":17343:17376   */\n      calldataload\n        /* \"#utility.yul\":17403:17421   */\n      0xffffffffffffffff\n        /* \"#utility.yul\":17395:17401   */\n      dup2\n        /* \"#utility.yul\":17392:17422   */\n      gt\n        /* \"#utility.yul\":17389:17506   */\n      iszero\n      tag_482\n      jumpi\n        /* \"#utility.yul\":17425:17504   */\n      tag_483\n      tag_235\n      jump\t// in\n    tag_483:\n        /* \"#utility.yul\":17389:17506   */\n    tag_482:\n        /* \"#utility.yul\":17530:17592   */\n      tag_484\n        /* \"#utility.yul\":17584:17591   */\n      dup14\n        /* \"#utility.yul\":17575:17581   */\n      dup3\n        /* \"#utility.yul\":17564:17573   */\n      dup15\n        /* \"#utility.yul\":17560:17582   */\n      add\n        /* \"#utility.yul\":17530:17592   */\n      tag_275\n      jump\t// in\n    tag_484:\n        /* \"#utility.yul\":17520:17592   */\n      swap5\n      pop\n        /* \"#utility.yul\":17314:17602   */\n      pop\n        /* \"#utility.yul\":17669:17672   */\n      0xa0\n        /* \"#utility.yul\":17658:17667   */\n      dup12\n        /* \"#utility.yul\":17654:17673   */\n      add\n        /* \"#utility.yul\":17641:17674   */\n      calldataload\n        /* \"#utility.yul\":17701:17719   */\n      0xffffffffffffffff\n        /* \"#utility.yul\":17693:17699   */\n      dup2\n        /* \"#utility.yul\":17690:17720   */\n      gt\n        /* \"#utility.yul\":17687:17804   */\n      iszero\n      tag_485\n      jumpi\n        /* \"#utility.yul\":17723:17802   */\n      tag_486\n      tag_235\n      jump\t// in\n    tag_486:\n        /* \"#utility.yul\":17687:17804   */\n    tag_485:\n        /* \"#utility.yul\":17828:17890   */\n      tag_487\n        /* \"#utility.yul\":17882:17889   */\n      dup14\n        /* \"#utility.yul\":17873:17879   */\n      dup3\n        /* \"#utility.yul\":17862:17871   */\n      dup15\n        /* \"#utility.yul\":17858:17880   */\n      add\n        /* \"#utility.yul\":17828:17890   */\n      tag_275\n      jump\t// in\n    tag_487:\n        /* \"#utility.yul\":17818:17890   */\n      swap4\n      pop\n        /* \"#utility.yul\":17612:17900   */\n      pop\n        /* \"#utility.yul\":17967:17970   */\n      0xc0\n        /* \"#utility.yul\":17956:17965   */\n      dup12\n        /* \"#utility.yul\":17952:17971   */\n      add\n        /* \"#utility.yul\":17939:17972   */\n      calldataload\n        /* \"#utility.yul\":17999:18017   */\n      0xffffffffffffffff\n        /* \"#utility.yul\":17991:17997   */\n      dup2\n        /* \"#utility.yul\":17988:18018   */\n      gt\n        /* \"#utility.yul\":17985:18102   */\n      iszero\n      tag_488\n      jumpi\n        /* \"#utility.yul\":18021:18100   */\n      tag_489\n      tag_235\n      jump\t// in\n    tag_489:\n        /* \"#utility.yul\":17985:18102   */\n    tag_488:\n        /* \"#utility.yul\":18126:18188   */\n      tag_490\n        /* \"#utility.yul\":18180:18187   */\n      dup14\n        /* \"#utility.yul\":18171:18177   */\n      dup3\n        /* \"#utility.yul\":18160:18169   */\n      dup15\n        /* \"#utility.yul\":18156:18178   */\n      add\n        /* \"#utility.yul\":18126:18188   */\n      tag_275\n      jump\t// in\n    tag_490:\n        /* \"#utility.yul\":18116:18188   */\n      swap3\n      pop\n        /* \"#utility.yul\":17910:18198   */\n      pop\n        /* \"#utility.yul\":18265:18268   */\n      0xe0\n        /* \"#utility.yul\":18254:18263   */\n      dup12\n        /* \"#utility.yul\":18250:18269   */\n      add\n        /* \"#utility.yul\":18237:18270   */\n      calldataload\n        /* \"#utility.yul\":18297:18315   */\n      0xffffffffffffffff\n        /* \"#utility.yul\":18289:18295   */\n      dup2\n        /* \"#utility.yul\":18286:18316   */\n      gt\n        /* \"#utility.yul\":18283:18400   */\n      iszero\n      tag_491\n      jumpi\n        /* \"#utility.yul\":18319:18398   */\n      tag_492\n      tag_235\n      jump\t// in\n    tag_492:\n        /* \"#utility.yul\":18283:18400   */\n    tag_491:\n        /* \"#utility.yul\":18424:18486   */\n      tag_493\n        /* \"#utility.yul\":18478:18485   */\n      dup14\n        /* \"#utility.yul\":18469:18475   */\n      dup3\n        /* \"#utility.yul\":18458:18467   */\n      dup15\n        /* \"#utility.yul\":18454:18476   */\n      add\n        /* \"#utility.yul\":18424:18486   */\n      tag_275\n      jump\t// in\n    tag_493:\n        /* \"#utility.yul\":18414:18486   */\n      swap2\n      pop\n        /* \"#utility.yul\":18208:18496   */\n      pop\n        /* \"#utility.yul\":15608:18503   */\n      swap3\n      swap6\n      swap9\n      swap12\n      swap2\n      swap5\n      swap8\n      swap11\n      pop\n      swap3\n      swap6\n      swap9\n      pop\n      jump\t// out\n        /* \"#utility.yul\":18509:18623   */\n    tag_280:\n        /* \"#utility.yul\":18576:18582   */\n      0x00\n        /* \"#utility.yul\":18610:18615   */\n      dup2\n        /* \"#utility.yul\":18604:18616   */\n      mload\n        /* \"#utility.yul\":18594:18616   */\n      swap1\n      pop\n        /* \"#utility.yul\":18509:18623   */\n      swap2\n      swap1\n      pop\n      jump\t// out\n        /* \"#utility.yul\":18629:18813   */\n    tag_281:\n        /* \"#utility.yul\":18728:18739   */\n      0x00\n        /* \"#utility.yul\":18762:18768   */\n      dup3\n        /* \"#utility.yul\":18757:18760   */\n      dup3\n        /* \"#utility.yul\":18750:18769   */\n      mstore\n        /* \"#utility.yul\":18802:18806   */\n      0x20\n        /* \"#utility.yul\":18797:18800   */\n      dup3\n        /* \"#utility.yul\":18793:18807   */\n      add\n        /* \"#utility.yul\":18778:18807   */\n      swap1\n      pop\n        /* \"#utility.yul\":18629:18813   */\n      swap3\n      swap2\n      pop\n      pop\n      jump\t// out\n        /* \"#utility.yul\":18819:18951   */\n    tag_282:\n        /* \"#utility.yul\":18886:18890   */\n      0x00\n        /* \"#utility.yul\":18909:18912   */\n      dup2\n        /* \"#utility.yul\":18901:18912   */\n      swap1\n      pop\n        /* \"#utility.yul\":18939:18943   */\n      0x20\n        /* \"#utility.yul\":18934:18937   */\n      dup3\n        /* \"#utility.yul\":18930:18944   */\n      add\n        /* \"#utility.yul\":18922:18944   */\n      swap1\n      pop\n        /* \"#utility.yul\":18819:18951   */\n      swap2\n      swap1\n      pop\n      jump\t// out\n        /* \"#utility.yul\":18957:19065   */\n    tag_283:\n        /* \"#utility.yul\":19034:19058   */\n      tag_498\n        /* \"#utility.yul\":19052:19057   */\n      dup2\n        /* \"#utility.yul\":19034:19058   */\n      tag_240\n      jump\t// in\n    tag_498:\n        /* \"#utility.yul\":19029:19032   */\n      dup3\n        /* \"#utility.yul\":19022:19059   */\n      mstore\n        /* \"#utility.yul\":18957:19065   */\n      pop\n      pop\n      jump\t// out\n        /* \"#utility.yul\":19071:19250   */\n    tag_284:\n        /* \"#utility.yul\":19140:19150   */\n      0x00\n        /* \"#utility.yul\":19161:19207   */\n      tag_500\n        /* \"#utility.yul\":19203:19206   */\n      dup4\n        /* \"#utility.yul\":19195:19201   */\n      dup4\n        /* \"#utility.yul\":19161:19207   */\n      tag_283\n      jump\t// in\n    tag_500:\n        /* \"#utility.yul\":19239:19243   */\n      0x20\n        /* \"#utility.yul\":19234:19237   */\n      dup4\n        /* \"#utility.yul\":19230:19244   */\n      add\n        /* \"#utility.yul\":19216:19244   */\n      swap1\n      pop\n        /* \"#utility.yul\":19071:19250   */\n      swap3\n      swap2\n      pop\n      pop\n      jump\t// out\n        /* \"#utility.yul\":19256:19369   */\n    tag_285:\n        /* \"#utility.yul\":19326:19330   */\n      0x00\n        /* \"#utility.yul\":19358:19362   */\n      0x20\n        /* \"#utility.yul\":19353:19356   */\n      dup3\n        /* \"#utility.yul\":19349:19363   */\n      add\n        /* \"#utility.yul\":19341:19363   */\n      swap1\n      pop\n        /* \"#utility.yul\":19256:19369   */\n      swap2\n      swap1\n      pop\n      jump\t// out\n        /* \"#utility.yul\":19405:20137   */\n    tag_286:\n        /* \"#utility.yul\":19524:19527   */\n      0x00\n        /* \"#utility.yul\":19553:19607   */\n      tag_503\n        /* \"#utility.yul\":19601:19606   */\n      dup3\n        /* \"#utility.yul\":19553:19607   */\n      tag_280\n      jump\t// in\n    tag_503:\n        /* \"#utility.yul\":19623:19709   */\n      tag_504\n        /* \"#utility.yul\":19702:19708   */\n      dup2\n        /* \"#utility.yul\":19697:19700   */\n      dup6\n        /* \"#utility.yul\":19623:19709   */\n      tag_281\n      jump\t// in\n    tag_504:\n        /* \"#utility.yul\":19616:19709   */\n      swap4\n      pop\n        /* \"#utility.yul\":19733:19789   */\n      tag_505\n        /* \"#utility.yul\":19783:19788   */\n      dup4\n        /* \"#utility.yul\":19733:19789   */\n      tag_282\n      jump\t// in\n    tag_505:\n        /* \"#utility.yul\":19812:19819   */\n      dup1\n        /* \"#utility.yul\":19843:19844   */\n      0x00\n        /* \"#utility.yul\":19828:20112   */\n    tag_506:\n        /* \"#utility.yul\":19853:19859   */\n      dup4\n        /* \"#utility.yul\":19850:19851   */\n      dup2\n        /* \"#utility.yul\":19847:19860   */\n      lt\n        /* \"#utility.yul\":19828:20112   */\n      iszero\n      tag_508\n      jumpi\n        /* \"#utility.yul\":19929:19935   */\n      dup2\n        /* \"#utility.yul\":19923:19936   */\n      mload\n        /* \"#utility.yul\":19956:20019   */\n      tag_509\n        /* \"#utility.yul\":20015:20018   */\n      dup9\n        /* \"#utility.yul\":20000:20013   */\n      dup3\n        /* \"#utility.yul\":19956:20019   */\n      tag_284\n      jump\t// in\n    tag_509:\n        /* \"#utility.yul\":19949:20019   */\n      swap8\n      pop\n        /* \"#utility.yul\":20042:20102   */\n      tag_510\n        /* \"#utility.yul\":20095:20101   */\n      dup4\n        /* \"#utility.yul\":20042:20102   */\n      tag_285\n      jump\t// in\n    tag_510:\n        /* \"#utility.yul\":20032:20102   */\n      swap3\n      pop\n        /* \"#utility.yul\":19888:20112   */\n      pop\n        /* \"#utility.yul\":19875:19876   */\n      0x01\n        /* \"#utility.yul\":19872:19873   */\n      dup2\n        /* \"#utility.yul\":19868:19877   */\n      add\n        /* \"#utility.yul\":19863:19877   */\n      swap1\n      pop\n        /* \"#utility.yul\":19828:20112   */\n      jump(tag_506)\n    tag_508:\n        /* \"#utility.yul\":19832:19846   */\n      pop\n        /* \"#utility.yul\":20128:20131   */\n      dup6\n        /* \"#utility.yul\":20121:20131   */\n      swap4\n      pop\n        /* \"#utility.yul\":19529:20137   */\n      pop\n      pop\n      pop\n        /* \"#utility.yul\":19405:20137   */\n      swap3\n      swap2\n      pop\n      pop\n      jump\t// out\n        /* \"#utility.yul\":20143:20516   */\n    tag_30:\n        /* \"#utility.yul\":20286:20290   */\n      0x00\n        /* \"#utility.yul\":20324:20326   */\n      0x20\n        /* \"#utility.yul\":20313:20322   */\n      dup3\n        /* \"#utility.yul\":20309:20327   */\n      add\n        /* \"#utility.yul\":20301:20327   */\n      swap1\n      pop\n        /* \"#utility.yul\":20373:20382   */\n      dup2\n        /* \"#utility.yul\":20367:20371   */\n      dup2\n        /* \"#utility.yul\":20363:20383   */\n      sub\n        /* \"#utility.yul\":20359:20360   */\n      0x00\n        /* \"#utility.yul\":20348:20357   */\n      dup4\n        /* \"#utility.yul\":20344:20361   */\n      add\n        /* \"#utility.yul\":20337:20384   */\n      mstore\n        /* \"#utility.yul\":20401:20509   */\n      tag_512\n        /* \"#utility.yul\":20504:20508   */\n      dup2\n        /* \"#utility.yul\":20495:20501   */\n      dup5\n        /* \"#utility.yul\":20401:20509   */\n      tag_286\n      jump\t// in\n    tag_512:\n        /* \"#utility.yul\":20393:20509   */\n      swap1\n      pop\n        /* \"#utility.yul\":20143:20516   */\n      swap3\n      swap2\n      pop\n      pop\n      jump\t// out\n        /* \"#utility.yul\":20522:20690   */\n    tag_287:\n        /* \"#utility.yul\":20605:20616   */\n      0x00\n        /* \"#utility.yul\":20639:20645   */\n      dup3\n        /* \"#utility.yul\":20634:20637   */\n      dup3\n        /* \"#utility.yul\":20627:20646   */\n      mstore\n        /* \"#utility.yul\":20679:20683   */\n      0x20\n        /* \"#utility.yul\":20674:20677   */\n      dup3\n        /* \"#utility.yul\":20670:20684   */\n      add\n        /* \"#utility.yul\":20655:20684   */\n      swap1\n      pop\n        /* \"#utility.yul\":20522:20690   */\n      swap3\n      swap2\n      pop\n      pop\n      jump\t// out\n        /* \"#utility.yul\":20696:21069   */\n    tag_288:\n        /* \"#utility.yul\":20782:20785   */\n      0x00\n        /* \"#utility.yul\":20810:20848   */\n      tag_515\n        /* \"#utility.yul\":20842:20847   */\n      dup3\n        /* \"#utility.yul\":20810:20848   */\n      tag_254\n      jump\t// in\n    tag_515:\n        /* \"#utility.yul\":20864:20934   */\n      tag_516\n        /* \"#utility.yul\":20927:20933   */\n      dup2\n        /* \"#utility.yul\":20922:20925   */\n      dup6\n        /* \"#utility.yul\":20864:20934   */\n      tag_287\n      jump\t// in\n    tag_516:\n        /* \"#utility.yul\":20857:20934   */\n      swap4\n      pop\n        /* \"#utility.yul\":20943:21008   */\n      tag_517\n        /* \"#utility.yul\":21001:21007   */\n      dup2\n        /* \"#utility.yul\":20996:20999   */\n      dup6\n        /* \"#utility.yul\":20989:20993   */\n      0x20\n        /* \"#utility.yul\":20982:20987   */\n      dup7\n        /* \"#utility.yul\":20978:20994   */\n      add\n        /* \"#utility.yul\":20943:21008   */\n      tag_256\n      jump\t// in\n    tag_517:\n        /* \"#utility.yul\":21033:21062   */\n      tag_518\n        /* \"#utility.yul\":21055:21061   */\n      dup2\n        /* \"#utility.yul\":21033:21062   */\n      tag_257\n      jump\t// in\n    tag_518:\n        /* \"#utility.yul\":21028:21031   */\n      dup5\n        /* \"#utility.yul\":21024:21063   */\n      add\n        /* \"#utility.yul\":21017:21063   */\n      swap2\n      pop\n        /* \"#utility.yul\":20786:21069   */\n      pop\n        /* \"#utility.yul\":20696:21069   */\n      swap3\n      swap2\n      pop\n      pop\n      jump\t// out\n        /* \"#utility.yul\":21075:22372   */\n    tag_35:\n        /* \"#utility.yul\":21416:21420   */\n      0x00\n        /* \"#utility.yul\":21454:21457   */\n      0xc0\n        /* \"#utility.yul\":21443:21452   */\n      dup3\n        /* \"#utility.yul\":21439:21458   */\n      add\n        /* \"#utility.yul\":21431:21458   */\n      swap1\n      pop\n        /* \"#utility.yul\":21504:21513   */\n      dup2\n        /* \"#utility.yul\":21498:21502   */\n      dup2\n        /* \"#utility.yul\":21494:21514   */\n      sub\n        /* \"#utility.yul\":21490:21491   */\n      0x00\n        /* \"#utility.yul\":21479:21488   */\n      dup4\n        /* \"#utility.yul\":21475:21492   */\n      add\n        /* \"#utility.yul\":21468:21515   */\n      mstore\n        /* \"#utility.yul\":21532:21608   */\n      tag_520\n        /* \"#utility.yul\":21603:21607   */\n      dup2\n        /* \"#utility.yul\":21594:21600   */\n      dup10\n        /* \"#utility.yul\":21532:21608   */\n      tag_288\n      jump\t// in\n    tag_520:\n        /* \"#utility.yul\":21524:21608   */\n      swap1\n      pop\n        /* \"#utility.yul\":21655:21664   */\n      dup2\n        /* \"#utility.yul\":21649:21653   */\n      dup2\n        /* \"#utility.yul\":21645:21665   */\n      sub\n        /* \"#utility.yul\":21640:21642   */\n      0x20\n        /* \"#utility.yul\":21629:21638   */\n      dup4\n        /* \"#utility.yul\":21625:21643   */\n      add\n        /* \"#utility.yul\":21618:21666   */\n      mstore\n        /* \"#utility.yul\":21683:21759   */\n      tag_521\n        /* \"#utility.yul\":21754:21758   */\n      dup2\n        /* \"#utility.yul\":21745:21751   */\n      dup9\n        /* \"#utility.yul\":21683:21759   */\n      tag_288\n      jump\t// in\n    tag_521:\n        /* \"#utility.yul\":21675:21759   */\n      swap1\n      pop\n        /* \"#utility.yul\":21806:21815   */\n      dup2\n        /* \"#utility.yul\":21800:21804   */\n      dup2\n        /* \"#utility.yul\":21796:21816   */\n      sub\n        /* \"#utility.yul\":21791:21793   */\n      0x40\n        /* \"#utility.yul\":21780:21789   */\n      dup4\n        /* \"#utility.yul\":21776:21794   */\n      add\n        /* \"#utility.yul\":21769:21817   */\n      mstore\n        /* \"#utility.yul\":21834:21910   */\n      tag_522\n        /* \"#utility.yul\":21905:21909   */\n      dup2\n        /* \"#utility.yul\":21896:21902   */\n      dup8\n        /* \"#utility.yul\":21834:21910   */\n      tag_288\n      jump\t// in\n    tag_522:\n        /* \"#utility.yul\":21826:21910   */\n      swap1\n      pop\n        /* \"#utility.yul\":21957:21966   */\n      dup2\n        /* \"#utility.yul\":21951:21955   */\n      dup2\n        /* \"#utility.yul\":21947:21967   */\n      sub\n        /* \"#utility.yul\":21942:21944   */\n      0x60\n        /* \"#utility.yul\":21931:21940   */\n      dup4\n        /* \"#utility.yul\":21927:21945   */\n      add\n        /* \"#utility.yul\":21920:21968   */\n      mstore\n        /* \"#utility.yul\":21985:22061   */\n      tag_523\n        /* \"#utility.yul\":22056:22060   */\n      dup2\n        /* \"#utility.yul\":22047:22053   */\n      dup7\n        /* \"#utility.yul\":21985:22061   */\n      tag_288\n      jump\t// in\n    tag_523:\n        /* \"#utility.yul\":21977:22061   */\n      swap1\n      pop\n        /* \"#utility.yul\":22109:22118   */\n      dup2\n        /* \"#utility.yul\":22103:22107   */\n      dup2\n        /* \"#utility.yul\":22099:22119   */\n      sub\n        /* \"#utility.yul\":22093:22096   */\n      0x80\n        /* \"#utility.yul\":22082:22091   */\n      dup4\n        /* \"#utility.yul\":22078:22097   */\n      add\n        /* \"#utility.yul\":22071:22120   */\n      mstore\n        /* \"#utility.yul\":22137:22213   */\n      tag_524\n        /* \"#utility.yul\":22208:22212   */\n      dup2\n        /* \"#utility.yul\":22199:22205   */\n      dup6\n        /* \"#utility.yul\":22137:22213   */\n      tag_288\n      jump\t// in\n    tag_524:\n        /* \"#utility.yul\":22129:22213   */\n      swap1\n      pop\n        /* \"#utility.yul\":22261:22270   */\n      dup2\n        /* \"#utility.yul\":22255:22259   */\n      dup2\n        /* \"#utility.yul\":22251:22271   */\n      sub\n        /* \"#utility.yul\":22245:22248   */\n      0xa0\n        /* \"#utility.yul\":22234:22243   */\n      dup4\n        /* \"#utility.yul\":22230:22249   */\n      add\n        /* \"#utility.yul\":22223:22272   */\n      mstore\n        /* \"#utility.yul\":22289:22365   */\n      tag_525\n        /* \"#utility.yul\":22360:22364   */\n      dup2\n        /* \"#utility.yul\":22351:22357   */\n      dup5\n        /* \"#utility.yul\":22289:22365   */\n      tag_288\n      jump\t// in\n    tag_525:\n        /* \"#utility.yul\":22281:22365   */\n      swap1\n      pop\n        /* \"#utility.yul\":21075:22372   */\n      swap8\n      swap7\n      pop\n      pop\n      pop\n      pop\n      pop\n      pop\n      pop\n      jump\t// out\n        /* \"#utility.yul\":22378:22707   */\n    tag_41:\n        /* \"#utility.yul\":22437:22443   */\n      0x00\n        /* \"#utility.yul\":22486:22488   */\n      0x20\n        /* \"#utility.yul\":22474:22483   */\n      dup3\n        /* \"#utility.yul\":22465:22472   */\n      dup5\n        /* \"#utility.yul\":22461:22484   */\n      sub\n        /* \"#utility.yul\":22457:22489   */\n      slt\n        /* \"#utility.yul\":22454:22573   */\n      iszero\n      tag_527\n      jumpi\n        /* \"#utility.yul\":22492:22571   */\n      tag_528\n      tag_234\n      jump\t// in\n    tag_528:\n        /* \"#utility.yul\":22454:22573   */\n    tag_527:\n        /* \"#utility.yul\":22612:22613   */\n      0x00\n        /* \"#utility.yul\":22637:22690   */\n      tag_529\n        /* \"#utility.yul\":22682:22689   */\n      dup5\n        /* \"#utility.yul\":22673:22679   */\n      dup3\n        /* \"#utility.yul\":22662:22671   */\n      dup6\n        /* \"#utility.yul\":22658:22680   */\n      add\n        /* \"#utility.yul\":22637:22690   */\n      tag_239\n      jump\t// in\n    tag_529:\n        /* \"#utility.yul\":22627:22690   */\n      swap2\n      pop\n        /* \"#utility.yul\":22583:22700   */\n      pop\n        /* \"#utility.yul\":22378:22707   */\n      swap3\n      swap2\n      pop\n      pop\n      jump\t// out\n        /* \"#utility.yul\":22713:22861   */\n    tag_289:\n        /* \"#utility.yul\":22814:22820   */\n      0x00\n        /* \"#utility.yul\":22848:22853   */\n      dup2\n        /* \"#utility.yul\":22842:22854   */\n      mload\n        /* \"#utility.yul\":22832:22854   */\n      swap1\n      pop\n        /* \"#utility.yul\":22713:22861   */\n      swap2\n      swap1\n      pop\n      jump\t// out\n        /* \"#utility.yul\":22867:23085   */\n    tag_290:\n        /* \"#utility.yul\":23000:23011   */\n      0x00\n        /* \"#utility.yul\":23034:23040   */\n      dup3\n        /* \"#utility.yul\":23029:23032   */\n      dup3\n        /* \"#utility.yul\":23022:23041   */\n      mstore\n        /* \"#utility.yul\":23074:23078   */\n      0x20\n        /* \"#utility.yul\":23069:23072   */\n      dup3\n        /* \"#utility.yul\":23065:23079   */\n      add\n        /* \"#utility.yul\":23050:23079   */\n      swap1\n      pop\n        /* \"#utility.yul\":22867:23085   */\n      swap3\n      swap2\n      pop\n      pop\n      jump\t// out\n        /* \"#utility.yul\":23091:23257   */\n    tag_291:\n        /* \"#utility.yul\":23192:23196   */\n      0x00\n        /* \"#utility.yul\":23215:23218   */\n      dup2\n        /* \"#utility.yul\":23207:23218   */\n      swap1\n      pop\n        /* \"#utility.yul\":23245:23249   */\n      0x20\n        /* \"#utility.yul\":23240:23243   */\n      dup3\n        /* \"#utility.yul\":23236:23250   */\n      add\n        /* \"#utility.yul\":23228:23250   */\n      swap1\n      pop\n        /* \"#utility.yul\":23091:23257   */\n      swap2\n      swap1\n      pop\n      jump\t// out\n        /* \"#utility.yul\":23365:25636   */\n    tag_292:\n        /* \"#utility.yul\":23492:23495   */\n      0x00\n        /* \"#utility.yul\":23528:23534   */\n      0x0100\n        /* \"#utility.yul\":23523:23526   */\n      dup4\n        /* \"#utility.yul\":23519:23535   */\n      add\n        /* \"#utility.yul\":23632:23636   */\n      0x00\n        /* \"#utility.yul\":23625:23630   */\n      dup4\n        /* \"#utility.yul\":23621:23637   */\n      add\n        /* \"#utility.yul\":23615:23638   */\n      mload\n        /* \"#utility.yul\":23685:23688   */\n      dup5\n        /* \"#utility.yul\":23679:23683   */\n      dup3\n        /* \"#utility.yul\":23675:23689   */\n      sub\n        /* \"#utility.yul\":23668:23672   */\n      0x00\n        /* \"#utility.yul\":23663:23666   */\n      dup7\n        /* \"#utility.yul\":23659:23673   */\n      add\n        /* \"#utility.yul\":23652:23690   */\n      mstore\n        /* \"#utility.yul\":23711:23814   */\n      tag_534\n        /* \"#utility.yul\":23809:23813   */\n      dup3\n        /* \"#utility.yul\":23795:23807   */\n      dup3\n        /* \"#utility.yul\":23711:23814   */\n      tag_250\n      jump\t// in\n    tag_534:\n        /* \"#utility.yul\":23703:23814   */\n      swap2\n      pop\n        /* \"#utility.yul\":23545:23825   */\n      pop\n        /* \"#utility.yul\":23908:23912   */\n      0x20\n        /* \"#utility.yul\":23901:23906   */\n      dup4\n        /* \"#utility.yul\":23897:23913   */\n      add\n        /* \"#utility.yul\":23891:23914   */\n      mload\n        /* \"#utility.yul\":23961:23964   */\n      dup5\n        /* \"#utility.yul\":23955:23959   */\n      dup3\n        /* \"#utility.yul\":23951:23965   */\n      sub\n        /* \"#utility.yul\":23944:23948   */\n      0x20\n        /* \"#utility.yul\":23939:23942   */\n      dup7\n        /* \"#utility.yul\":23935:23949   */\n      add\n        /* \"#utility.yul\":23928:23966   */\n      mstore\n        /* \"#utility.yul\":23987:24108   */\n      tag_535\n        /* \"#utility.yul\":24103:24107   */\n      dup3\n        /* \"#utility.yul\":24089:24101   */\n      dup3\n        /* \"#utility.yul\":23987:24108   */\n      tag_261\n      jump\t// in\n    tag_535:\n        /* \"#utility.yul\":23979:24108   */\n      swap2\n      pop\n        /* \"#utility.yul\":23835:24119   */\n      pop\n        /* \"#utility.yul\":24204:24208   */\n      0x40\n        /* \"#utility.yul\":24197:24202   */\n      dup4\n        /* \"#utility.yul\":24193:24209   */\n      add\n        /* \"#utility.yul\":24187:24210   */\n      mload\n        /* \"#utility.yul\":24257:24260   */\n      dup5\n        /* \"#utility.yul\":24251:24255   */\n      dup3\n        /* \"#utility.yul\":24247:24261   */\n      sub\n        /* \"#utility.yul\":24240:24244   */\n      0x40\n        /* \"#utility.yul\":24235:24238   */\n      dup7\n        /* \"#utility.yul\":24231:24245   */\n      add\n        /* \"#utility.yul\":24224:24262   */\n      mstore\n        /* \"#utility.yul\":24283:24354   */\n      tag_536\n        /* \"#utility.yul\":24349:24353   */\n      dup3\n        /* \"#utility.yul\":24335:24347   */\n      dup3\n        /* \"#utility.yul\":24283:24354   */\n      tag_258\n      jump\t// in\n    tag_536:\n        /* \"#utility.yul\":24275:24354   */\n      swap2\n      pop\n        /* \"#utility.yul\":24129:24365   */\n      pop\n        /* \"#utility.yul\":24457:24461   */\n      0x60\n        /* \"#utility.yul\":24450:24455   */\n      dup4\n        /* \"#utility.yul\":24446:24462   */\n      add\n        /* \"#utility.yul\":24440:24463   */\n      mload\n        /* \"#utility.yul\":24510:24513   */\n      dup5\n        /* \"#utility.yul\":24504:24508   */\n      dup3\n        /* \"#utility.yul\":24500:24514   */\n      sub\n        /* \"#utility.yul\":24493:24497   */\n      0x60\n        /* \"#utility.yul\":24488:24491   */\n      dup7\n        /* \"#utility.yul\":24484:24498   */\n      add\n        /* \"#utility.yul\":24477:24515   */\n      mstore\n        /* \"#utility.yul\":24536:24607   */\n      tag_537\n        /* \"#utility.yul\":24602:24606   */\n      dup3\n        /* \"#utility.yul\":24588:24600   */\n      dup3\n        /* \"#utility.yul\":24536:24607   */\n      tag_258\n      jump\t// in\n    tag_537:\n        /* \"#utility.yul\":24528:24607   */\n      swap2\n      pop\n        /* \"#utility.yul\":24375:24618   */\n      pop\n        /* \"#utility.yul\":24703:24707   */\n      0x80\n        /* \"#utility.yul\":24696:24701   */\n      dup4\n        /* \"#utility.yul\":24692:24708   */\n      add\n        /* \"#utility.yul\":24686:24709   */\n      mload\n        /* \"#utility.yul\":24756:24759   */\n      dup5\n        /* \"#utility.yul\":24750:24754   */\n      dup3\n        /* \"#utility.yul\":24746:24760   */\n      sub\n        /* \"#utility.yul\":24739:24743   */\n      0x80\n        /* \"#utility.yul\":24734:24737   */\n      dup7\n        /* \"#utility.yul\":24730:24744   */\n      add\n        /* \"#utility.yul\":24723:24761   */\n      mstore\n        /* \"#utility.yul\":24782:24853   */\n      tag_538\n        /* \"#utility.yul\":24848:24852   */\n      dup3\n        /* \"#utility.yul\":24834:24846   */\n      dup3\n        /* \"#utility.yul\":24782:24853   */\n      tag_258\n      jump\t// in\n    tag_538:\n        /* \"#utility.yul\":24774:24853   */\n      swap2\n      pop\n        /* \"#utility.yul\":24628:24864   */\n      pop\n        /* \"#utility.yul\":24950:24954   */\n      0xa0\n        /* \"#utility.yul\":24943:24948   */\n      dup4\n        /* \"#utility.yul\":24939:24955   */\n      add\n        /* \"#utility.yul\":24933:24956   */\n      mload\n        /* \"#utility.yul\":25003:25006   */\n      dup5\n        /* \"#utility.yul\":24997:25001   */\n      dup3\n        /* \"#utility.yul\":24993:25007   */\n      sub\n        /* \"#utility.yul\":24986:24990   */\n      0xa0\n        /* \"#utility.yul\":24981:24984   */\n      dup7\n        /* \"#utility.yul\":24977:24991   */\n      add\n        /* \"#utility.yul\":24970:25008   */\n      mstore\n        /* \"#utility.yul\":25029:25100   */\n      tag_539\n        /* \"#utility.yul\":25095:25099   */\n      dup3\n        /* \"#utility.yul\":25081:25093   */\n      dup3\n        /* \"#utility.yul\":25029:25100   */\n      tag_258\n      jump\t// in\n    tag_539:\n        /* \"#utility.yul\":25021:25100   */\n      swap2\n      pop\n        /* \"#utility.yul\":24874:25111   */\n      pop\n        /* \"#utility.yul\":25196:25200   */\n      0xc0\n        /* \"#utility.yul\":25189:25194   */\n      dup4\n        /* \"#utility.yul\":25185:25201   */\n      add\n        /* \"#utility.yul\":25179:25202   */\n      mload\n        /* \"#utility.yul\":25249:25252   */\n      dup5\n        /* \"#utility.yul\":25243:25247   */\n      dup3\n        /* \"#utility.yul\":25239:25253   */\n      sub\n        /* \"#utility.yul\":25232:25236   */\n      0xc0\n        /* \"#utility.yul\":25227:25230   */\n      dup7\n        /* \"#utility.yul\":25223:25237   */\n      add\n        /* \"#utility.yul\":25216:25254   */\n      mstore\n        /* \"#utility.yul\":25275:25346   */\n      tag_540\n        /* \"#utility.yul\":25341:25345   */\n      dup3\n        /* \"#utility.yul\":25327:25339   */\n      dup3\n        /* \"#utility.yul\":25275:25346   */\n      tag_258\n      jump\t// in\n    tag_540:\n        /* \"#utility.yul\":25267:25346   */\n      swap2\n      pop\n        /* \"#utility.yul\":25121:25357   */\n      pop\n        /* \"#utility.yul\":25448:25452   */\n      0xe0\n        /* \"#utility.yul\":25441:25446   */\n      dup4\n        /* \"#utility.yul\":25437:25453   */\n      add\n        /* \"#utility.yul\":25431:25454   */\n      mload\n        /* \"#utility.yul\":25501:25504   */\n      dup5\n        /* \"#utility.yul\":25495:25499   */\n      dup3\n        /* \"#utility.yul\":25491:25505   */\n      sub\n        /* \"#utility.yul\":25484:25488   */\n      0xe0\n        /* \"#utility.yul\":25479:25482   */\n      dup7\n        /* \"#utility.yul\":25475:25489   */\n      add\n        /* \"#utility.yul\":25468:25506   */\n      mstore\n        /* \"#utility.yul\":25527:25598   */\n      tag_541\n        /* \"#utility.yul\":25593:25597   */\n      dup3\n        /* \"#utility.yul\":25579:25591   */\n      dup3\n        /* \"#utility.yul\":25527:25598   */\n      tag_258\n      jump\t// in\n    tag_541:\n        /* \"#utility.yul\":25519:25598   */\n      swap2\n      pop\n        /* \"#utility.yul\":25367:25609   */\n      pop\n        /* \"#utility.yul\":25626:25630   */\n      dup1\n        /* \"#utility.yul\":25619:25630   */\n      swap2\n      pop\n        /* \"#utility.yul\":23497:25636   */\n      pop\n        /* \"#utility.yul\":23365:25636   */\n      swap3\n      swap2\n      pop\n      pop\n      jump\t// out\n        /* \"#utility.yul\":25642:25934   */\n    tag_293:\n        /* \"#utility.yul\":25779:25789   */\n      0x00\n        /* \"#utility.yul\":25814:25928   */\n      tag_543\n        /* \"#utility.yul\":25924:25927   */\n      dup4\n        /* \"#utility.yul\":25916:25922   */\n      dup4\n        /* \"#utility.yul\":25814:25928   */\n      tag_292\n      jump\t// in\n    tag_543:\n        /* \"#utility.yul\":25800:25928   */\n      swap1\n      pop\n        /* \"#utility.yul\":25642:25934   */\n      swap3\n      swap2\n      pop\n      pop\n      jump\t// out\n        /* \"#utility.yul\":25940:26087   */\n    tag_294:\n        /* \"#utility.yul\":26044:26048   */\n      0x00\n        /* \"#utility.yul\":26076:26080   */\n      0x20\n        /* \"#utility.yul\":26071:26074   */\n      dup3\n        /* \"#utility.yul\":26067:26081   */\n      add\n        /* \"#utility.yul\":26059:26081   */\n      swap1\n      pop\n        /* \"#utility.yul\":25940:26087   */\n      swap2\n      swap1\n      pop\n      jump\t// out\n        /* \"#utility.yul\":26199:27382   */\n    tag_295:\n        /* \"#utility.yul\":26386:26389   */\n      0x00\n        /* \"#utility.yul\":26415:26503   */\n      tag_546\n        /* \"#utility.yul\":26497:26502   */\n      dup3\n        /* \"#utility.yul\":26415:26503   */\n      tag_289\n      jump\t// in\n    tag_546:\n        /* \"#utility.yul\":26519:26639   */\n      tag_547\n        /* \"#utility.yul\":26632:26638   */\n      dup2\n        /* \"#utility.yul\":26627:26630   */\n      dup6\n        /* \"#utility.yul\":26519:26639   */\n      tag_290\n      jump\t// in\n    tag_547:\n        /* \"#utility.yul\":26512:26639   */\n      swap4\n      pop\n        /* \"#utility.yul\":26665:26668   */\n      dup4\n        /* \"#utility.yul\":26710:26714   */\n      0x20\n        /* \"#utility.yul\":26702:26708   */\n      dup3\n        /* \"#utility.yul\":26698:26715   */\n      mul\n        /* \"#utility.yul\":26693:26696   */\n      dup6\n        /* \"#utility.yul\":26689:26716   */\n      add\n        /* \"#utility.yul\":26740:26830   */\n      tag_548\n        /* \"#utility.yul\":26824:26829   */\n      dup6\n        /* \"#utility.yul\":26740:26830   */\n      tag_291\n      jump\t// in\n    tag_548:\n        /* \"#utility.yul\":26853:26860   */\n      dup1\n        /* \"#utility.yul\":26884:26885   */\n      0x00\n        /* \"#utility.yul\":26869:27337   */\n    tag_549:\n        /* \"#utility.yul\":26894:26900   */\n      dup6\n        /* \"#utility.yul\":26891:26892   */\n      dup2\n        /* \"#utility.yul\":26888:26901   */\n      lt\n        /* \"#utility.yul\":26869:27337   */\n      iszero\n      tag_551\n      jumpi\n        /* \"#utility.yul\":26965:26974   */\n      dup5\n        /* \"#utility.yul\":26959:26963   */\n      dup5\n        /* \"#utility.yul\":26955:26975   */\n      sub\n        /* \"#utility.yul\":26950:26953   */\n      dup10\n        /* \"#utility.yul\":26943:26976   */\n      mstore\n        /* \"#utility.yul\":27016:27022   */\n      dup2\n        /* \"#utility.yul\":27010:27023   */\n      mload\n        /* \"#utility.yul\":27044:27176   */\n      tag_552\n        /* \"#utility.yul\":27171:27175   */\n      dup6\n        /* \"#utility.yul\":27156:27169   */\n      dup3\n        /* \"#utility.yul\":27044:27176   */\n      tag_293\n      jump\t// in\n    tag_552:\n        /* \"#utility.yul\":27036:27176   */\n      swap5\n      pop\n        /* \"#utility.yul\":27199:27293   */\n      tag_553\n        /* \"#utility.yul\":27286:27292   */\n      dup4\n        /* \"#utility.yul\":27199:27293   */\n      tag_294\n      jump\t// in\n    tag_553:\n        /* \"#utility.yul\":27189:27293   */\n      swap3\n      pop\n        /* \"#utility.yul\":27322:27326   */\n      0x20\n        /* \"#utility.yul\":27317:27320   */\n      dup11\n        /* \"#utility.yul\":27313:27327   */\n      add\n        /* \"#utility.yul\":27306:27327   */\n      swap10\n      pop\n        /* \"#utility.yul\":26929:27337   */\n      pop\n        /* \"#utility.yul\":26916:26917   */\n      0x01\n        /* \"#utility.yul\":26913:26914   */\n      dup2\n        /* \"#utility.yul\":26909:26918   */\n      add\n        /* \"#utility.yul\":26904:26918   */\n      swap1\n      pop\n        /* \"#utility.yul\":26869:27337   */\n      jump(tag_549)\n    tag_551:\n        /* \"#utility.yul\":26873:26887   */\n      pop\n        /* \"#utility.yul\":27353:27357   */\n      dup3\n        /* \"#utility.yul\":27346:27357   */\n      swap8\n      pop\n        /* \"#utility.yul\":27373:27376   */\n      dup8\n        /* \"#utility.yul\":27366:27376   */\n      swap6\n      pop\n        /* \"#utility.yul\":26391:27382   */\n      pop\n      pop\n      pop\n      pop\n      pop\n        /* \"#utility.yul\":26199:27382   */\n      swap3\n      swap2\n      pop\n      pop\n      jump\t// out\n        /* \"#utility.yul\":27388:27897   */\n    tag_44:\n        /* \"#utility.yul\":27599:27603   */\n      0x00\n        /* \"#utility.yul\":27637:27639   */\n      0x20\n        /* \"#utility.yul\":27626:27635   */\n      dup3\n        /* \"#utility.yul\":27622:27640   */\n      add\n        /* \"#utility.yul\":27614:27640   */\n      swap1\n      pop\n        /* \"#utility.yul\":27686:27695   */\n      dup2\n        /* \"#utility.yul\":27680:27684   */\n      dup2\n        /* \"#utility.yul\":27676:27696   */\n      sub\n        /* \"#utility.yul\":27672:27673   */\n      0x00\n        /* \"#utility.yul\":27661:27670   */\n      dup4\n        /* \"#utility.yul\":27657:27674   */\n      add\n        /* \"#utility.yul\":27650:27697   */\n      mstore\n        /* \"#utility.yul\":27714:27890   */\n      tag_555\n        /* \"#utility.yul\":27885:27889   */\n      dup2\n        /* \"#utility.yul\":27876:27882   */\n      dup5\n        /* \"#utility.yul\":27714:27890   */\n      tag_295\n      jump\t// in\n    tag_555:\n        /* \"#utility.yul\":27706:27890   */\n      swap1\n      pop\n        /* \"#utility.yul\":27388:27897   */\n      swap3\n      swap2\n      pop\n      pop\n      jump\t// out\n        /* \"#utility.yul\":27903:28083   */\n    tag_296:\n        /* \"#utility.yul\":27951:28028   */\n      0x4e487b7100000000000000000000000000000000000000000000000000000000\n        /* \"#utility.yul\":27948:27949   */\n      0x00\n        /* \"#utility.yul\":27941:28029   */\n      mstore\n        /* \"#utility.yul\":28048:28052   */\n      0x22\n        /* \"#utility.yul\":28045:28046   */\n      0x04\n        /* \"#utility.yul\":28038:28053   */\n      mstore\n        /* \"#utility.yul\":28072:28076   */\n      0x24\n        /* \"#utility.yul\":28069:28070   */\n      0x00\n        /* \"#utility.yul\":28062:28077   */\n      revert\n        /* \"#utility.yul\":28089:28409   */\n    tag_56:\n        /* \"#utility.yul\":28133:28139   */\n      0x00\n        /* \"#utility.yul\":28170:28171   */\n      0x02\n        /* \"#utility.yul\":28164:28168   */\n      dup3\n        /* \"#utility.yul\":28160:28172   */\n      div\n        /* \"#utility.yul\":28150:28172   */\n      swap1\n      pop\n        /* \"#utility.yul\":28217:28218   */\n      0x01\n        /* \"#utility.yul\":28211:28215   */\n      dup3\n        /* \"#utility.yul\":28207:28219   */\n      and\n        /* \"#utility.yul\":28238:28256   */\n      dup1\n        /* \"#utility.yul\":28228:28309   */\n      tag_558\n      jumpi\n        /* \"#utility.yul\":28294:28298   */\n      0x7f\n        /* \"#utility.yul\":28286:28292   */\n      dup3\n        /* \"#utility.yul\":28282:28299   */\n      and\n        /* \"#utility.yul\":28272:28299   */\n      swap2\n      pop\n        /* \"#utility.yul\":28228:28309   */\n    tag_558:\n        /* \"#utility.yul\":28356:28358   */\n      0x20\n        /* \"#utility.yul\":28348:28354   */\n      dup3\n        /* \"#utility.yul\":28345:28359   */\n      lt\n        /* \"#utility.yul\":28325:28343   */\n      dup2\n        /* \"#utility.yul\":28322:28360   */\n      sub\n        /* \"#utility.yul\":28319:28403   */\n      tag_559\n      jumpi\n        /* \"#utility.yul\":28375:28393   */\n      tag_560\n      tag_296\n      jump\t// in\n    tag_560:\n        /* \"#utility.yul\":28319:28403   */\n    tag_559:\n        /* \"#utility.yul\":28140:28409   */\n      pop\n        /* \"#utility.yul\":28089:28409   */\n      swap2\n      swap1\n      pop\n      jump\t// out\n        /* \"#utility.yul\":28415:28555   */\n    tag_297:\n        /* \"#utility.yul\":28463:28467   */\n      0x00\n        /* \"#utility.yul\":28486:28489   */\n      dup2\n        /* \"#utility.yul\":28478:28489   */\n      swap1\n      pop\n        /* \"#utility.yul\":28509:28512   */\n      dup2\n        /* \"#utility.yul\":28506:28507   */\n      0x00\n        /* \"#utility.yul\":28499:28513   */\n      mstore\n        /* \"#utility.yul\":28543:28547   */\n      0x20\n        /* \"#utility.yul\":28540:28541   */\n      0x00\n        /* \"#utility.yul\":28530:28548   */\n      keccak256\n        /* \"#utility.yul\":28522:28548   */\n      swap1\n      pop\n        /* \"#utility.yul\":28415:28555   */\n      swap2\n      swap1\n      pop\n      jump\t// out\n        /* \"#utility.yul\":28561:28654   */\n    tag_298:\n        /* \"#utility.yul\":28598:28604   */\n      0x00\n        /* \"#utility.yul\":28645:28647   */\n      0x20\n        /* \"#utility.yul\":28640:28642   */\n      0x1f\n        /* \"#utility.yul\":28633:28638   */\n      dup4\n        /* \"#utility.yul\":28629:28643   */\n      add\n        /* \"#utility.yul\":28625:28648   */\n      div\n        /* \"#utility.yul\":28615:28648   */\n      swap1\n      pop\n        /* \"#utility.yul\":28561:28654   */\n      swap2\n      swap1\n      pop\n      jump\t// out\n        /* \"#utility.yul\":28660:28767   */\n    tag_299:\n        /* \"#utility.yul\":28704:28712   */\n      0x00\n        /* \"#utility.yul\":28754:28759   */\n      dup3\n        /* \"#utility.yul\":28748:28752   */\n      dup3\n        /* \"#utility.yul\":28744:28760   */\n      shl\n        /* \"#utility.yul\":28723:28760   */\n      swap1\n      pop\n        /* \"#utility.yul\":28660:28767   */\n      swap3\n      swap2\n      pop\n      pop\n      jump\t// out\n        /* \"#utility.yul\":28773:29166   */\n    tag_300:\n        /* \"#utility.yul\":28842:28848   */\n      0x00\n        /* \"#utility.yul\":28892:28893   */\n      0x08\n        /* \"#utility.yul\":28880:28890   */\n      dup4\n        /* \"#utility.yul\":28876:28894   */\n      mul\n        /* \"#utility.yul\":28915:29012   */\n      tag_565\n        /* \"#utility.yul\":28945:29011   */\n      0xffffffffffffffffffffffffffffffffffffffffffffffffffffffffffffffff\n        /* \"#utility.yul\":28934:28943   */\n      dup3\n        /* \"#utility.yul\":28915:29012   */\n      tag_299\n      jump\t// in\n    tag_565:\n        /* \"#utility.yul\":29033:29072   */\n      tag_566\n        /* \"#utility.yul\":29063:29071   */\n      dup7\n        /* \"#utility.yul\":29052:29061   */\n      dup4\n        /* \"#utility.yul\":29033:29072   */\n      tag_299\n      jump\t// in\n    tag_566:\n        /* \"#utility.yul\":29021:29072   */\n      swap6\n      pop\n        /* \"#utility.yul\":29105:29109   */\n      dup1\n        /* \"#utility.yul\":29101:29110   */\n      not\n        /* \"#utility.yul\":29094:29099   */\n      dup5\n        /* \"#utility.yul\":29090:29111   */\n      and\n        /* \"#utility.yul\":29081:29111   */\n      swap4\n      pop\n        /* \"#utility.yul\":29154:29158   */\n      dup1\n        /* \"#utility.yul\":29144:29152   */\n      dup7\n        /* \"#utility.yul\":29140:29159   */\n      and\n        /* \"#utility.yul\":29133:29138   */\n      dup5\n        /* \"#utility.yul\":29130:29160   */\n      or\n        /* \"#utility.yul\":29120:29160   */\n      swap3\n      pop\n        /* \"#utility.yul\":28849:29166   */\n      pop\n      pop\n        /* \"#utility.yul\":28773:29166   */\n      swap4\n      swap3\n      pop\n      pop\n      pop\n      jump\t// out\n        /* \"#utility.yul\":29172:29232   */\n    tag_301:\n        /* \"#utility.yul\":29200:29203   */\n      0x00\n        /* \"#utility.yul\":29221:29226   */\n      dup2\n        /* \"#utility.yul\":29214:29226   */\n      swap1\n      pop\n        /* \"#utility.yul\":29172:29232   */\n      swap2\n      swap1\n      pop\n      jump\t// out\n        /* \"#utility.yul\":29238:29380   */\n    tag_302:\n        /* \"#utility.yul\":29288:29297   */\n      0x00\n        /* \"#utility.yul\":29321:29374   */\n      tag_569\n        /* \"#utility.yul\":29339:29373   */\n      tag_570\n        /* \"#utility.yul\":29348:29372   */\n      tag_571\n        /* \"#utility.yul\":29366:29371   */\n      dup5\n        /* \"#utility.yul\":29348:29372   */\n      tag_240\n      jump\t// in\n    tag_571:\n        /* \"#utility.yul\":29339:29373   */\n      tag_301\n      jump\t// in\n    tag_570:\n        /* \"#utility.yul\":29321:29374   */\n      tag_240\n      jump\t// in\n    tag_569:\n        /* \"#utility.yul\":29308:29374   */\n      swap1\n      pop\n        /* \"#utility.yul\":29238:29380   */\n      swap2\n      swap1\n      pop\n      jump\t// out\n        /* \"#utility.yul\":29386:29461   */\n    tag_303:\n        /* \"#utility.yul\":29429:29432   */\n      0x00\n        /* \"#utility.yul\":29450:29455   */\n      dup2\n        /* \"#utility.yul\":29443:29455   */\n      swap1\n      pop\n        /* \"#utility.yul\":29386:29461   */\n      swap2\n      swap1\n      pop\n      jump\t// out\n        /* \"#utility.yul\":29467:29736   */\n    tag_304:\n        /* \"#utility.yul\":29577:29616   */\n      tag_574\n        /* \"#utility.yul\":29608:29615   */\n      dup4\n        /* \"#utility.yul\":29577:29616   */\n      tag_302\n      jump\t// in\n    tag_574:\n        /* \"#utility.yul\":29638:29729   */\n      tag_575\n        /* \"#utility.yul\":29687:29728   */\n      tag_576\n        /* \"#utility.yul\":29711:29727   */\n      dup3\n        /* \"#utility.yul\":29687:29728   */\n      tag_303\n      jump\t// in\n    tag_576:\n        /* \"#utility.yul\":29679:29685   */\n      dup5\n        /* \"#utility.yul\":29672:29676   */\n      dup5\n        /* \"#utility.yul\":29666:29677   */\n      sload\n        /* \"#utility.yul\":29638:29729   */\n      tag_300\n      jump\t// in\n    tag_575:\n        /* \"#utility.yul\":29632:29636   */\n      dup3\n        /* \"#utility.yul\":29625:29730   */\n      sstore\n        /* \"#utility.yul\":29543:29736   */\n      pop\n        /* \"#utility.yul\":29467:29736   */\n      pop\n      pop\n      pop\n      jump\t// out\n        /* \"#utility.yul\":29742:29815   */\n    tag_305:\n        /* \"#utility.yul\":29787:29790   */\n      0x00\n        /* \"#utility.yul\":29742:29815   */\n      swap1\n      jump\t// out\n        /* \"#utility.yul\":29821:30010   */\n    tag_306:\n        /* \"#utility.yul\":29898:29930   */\n      tag_579\n      tag_305\n      jump\t// in\n    tag_579:\n        /* \"#utility.yul\":29939:30004   */\n      tag_580\n        /* \"#utility.yul\":29997:30003   */\n      dup2\n        /* \"#utility.yul\":29989:29995   */\n      dup5\n        /* \"#utility.yul\":29983:29987   */\n      dup5\n        /* \"#utility.yul\":29939:30004   */\n      tag_304\n      jump\t// in\n    tag_580:\n        /* \"#utility.yul\":29874:30010   */\n      pop\n        /* \"#utility.yul\":29821:30010   */\n      pop\n      pop\n      jump\t// out\n        /* \"#utility.yul\":30016:30202   */\n    tag_307:\n        /* \"#utility.yul\":30076:30196   */\n    tag_582:\n        /* \"#utility.yul\":30093:30096   */\n      dup2\n        /* \"#utility.yul\":30086:30091   */\n      dup2\n        /* \"#utility.yul\":30083:30097   */\n      lt\n        /* \"#utility.yul\":30076:30196   */\n      iszero\n      tag_584\n      jumpi\n        /* \"#utility.yul\":30147:30186   */\n      tag_585\n        /* \"#utility.yul\":30184:30185   */\n      0x00\n        /* \"#utility.yul\":30177:30182   */\n      dup3\n        /* \"#utility.yul\":30147:30186   */\n      tag_306\n      jump\t// in\n    tag_585:\n        /* \"#utility.yul\":30120:30121   */\n      0x01\n        /* \"#utility.yul\":30113:30118   */\n      dup2\n        /* \"#utility.yul\":30109:30122   */\n      add\n        /* \"#utility.yul\":30100:30122   */\n      swap1\n      pop\n        /* \"#utility.yul\":30076:30196   */\n      jump(tag_582)\n    tag_584:\n        /* \"#utility.yul\":30016:30202   */\n      pop\n      pop\n      jump\t// out\n        /* \"#utility.yul\":30208:30749   */\n    tag_308:\n        /* \"#utility.yul\":30308:30310   */\n      0x1f\n        /* \"#utility.yul\":30303:30306   */\n      dup3\n        /* \"#utility.yul\":30300:30311   */\n      gt\n        /* \"#utility.yul\":30297:30742   */\n      iszero\n      tag_587\n      jumpi\n        /* \"#utility.yul\":30342:30379   */\n      tag_588\n        /* \"#utility.yul\":30373:30378   */\n      dup2\n        /* \"#utility.yul\":30342:30379   */\n      tag_297\n      jump\t// in\n    tag_588:\n        /* \"#utility.yul\":30425:30454   */\n      tag_589\n        /* \"#utility.yul\":30443:30453   */\n      dup5\n        /* \"#utility.yul\":30425:30454   */\n      tag_298\n      jump\t// in\n    tag_589:\n        /* \"#utility.yul\":30415:30423   */\n      dup2\n        /* \"#utility.yul\":30411:30455   */\n      add\n        /* \"#utility.yul\":30608:30610   */\n      0x20\n        /* \"#utility.yul\":30596:30606   */\n      dup6\n        /* \"#utility.yul\":30593:30611   */\n      lt\n        /* \"#utility.yul\":30590:30639   */\n      iszero\n      tag_590\n      jumpi\n        /* \"#utility.yul\":30629:30637   */\n      dup2\n        /* \"#utility.yul\":30614:30637   */\n      swap1\n      pop\n        /* \"#utility.yul\":30590:30639   */\n    tag_590:\n        /* \"#utility.yul\":30652:30732   */\n      tag_591\n        /* \"#utility.yul\":30708:30730   */\n      tag_592\n        /* \"#utility.yul\":30726:30729   */\n      dup6\n        /* \"#utility.yul\":30708:30730   */\n      tag_298\n      jump\t// in\n    tag_592:\n        /* \"#utility.yul\":30698:30706   */\n      dup4\n        /* \"#utility.yul\":30694:30731   */\n      add\n        /* \"#utility.yul\":30681:30692   */\n      dup3\n        /* \"#utility.yul\":30652:30732   */\n      tag_307\n      jump\t// in\n    tag_591:\n        /* \"#utility.yul\":30312:30742   */\n      pop\n      pop\n        /* \"#utility.yul\":30297:30742   */\n    tag_587:\n        /* \"#utility.yul\":30208:30749   */\n      pop\n      pop\n      pop\n      jump\t// out\n        /* \"#utility.yul\":30755:30872   */\n    tag_309:\n        /* \"#utility.yul\":30809:30817   */\n      0x00\n        /* \"#utility.yul\":30859:30864   */\n      dup3\n        /* \"#utility.yul\":30853:30857   */\n      dup3\n        /* \"#utility.yul\":30849:30865   */\n      shr\n        /* \"#utility.yul\":30828:30865   */\n      swap1\n      pop\n        /* \"#utility.yul\":30755:30872   */\n      swap3\n      swap2\n      pop\n      pop\n      jump\t// out\n        /* \"#utility.yul\":30878:31047   */\n    tag_310:\n        /* \"#utility.yul\":30922:30928   */\n      0x00\n        /* \"#utility.yul\":30955:31006   */\n      tag_595\n        /* \"#utility.yul\":31003:31004   */\n      0x00\n        /* \"#utility.yul\":30999:31005   */\n      not\n        /* \"#utility.yul\":30991:30996   */\n      dup5\n        /* \"#utility.yul\":30988:30989   */\n      0x08\n        /* \"#utility.yul\":30984:30997   */\n      mul\n        /* \"#utility.yul\":30955:31006   */\n      tag_309\n      jump\t// in\n    tag_595:\n        /* \"#utility.yul\":30951:31007   */\n      not\n        /* \"#utility.yul\":31036:31040   */\n      dup1\n        /* \"#utility.yul\":31030:31034   */\n      dup4\n        /* \"#utility.yul\":31026:31041   */\n      and\n        /* \"#utility.yul\":31016:31041   */\n      swap2\n      pop\n        /* \"#utility.yul\":30929:31047   */\n      pop\n        /* \"#utility.yul\":30878:31047   */\n      swap3\n      swap2\n      pop\n      pop\n      jump\t// out\n        /* \"#utility.yul\":31052:31347   */\n    tag_311:\n        /* \"#utility.yul\":31128:31132   */\n      0x00\n        /* \"#utility.yul\":31274:31303   */\n      tag_597\n        /* \"#utility.yul\":31299:31302   */\n      dup4\n        /* \"#utility.yul\":31293:31297   */\n      dup4\n        /* \"#utility.yul\":31274:31303   */\n      tag_310\n      jump\t// in\n    tag_597:\n        /* \"#utility.yul\":31266:31303   */\n      swap2\n      pop\n        /* \"#utility.yul\":31336:31339   */\n      dup3\n        /* \"#utility.yul\":31333:31334   */\n      0x02\n        /* \"#utility.yul\":31329:31340   */\n      mul\n        /* \"#utility.yul\":31323:31327   */\n      dup3\n        /* \"#utility.yul\":31320:31341   */\n      or\n        /* \"#utility.yul\":31312:31341   */\n      swap1\n      pop\n        /* \"#utility.yul\":31052:31347   */\n      swap3\n      swap2\n      pop\n      pop\n      jump\t// out\n        /* \"#utility.yul\":31352:32742   */\n    tag_97:\n        /* \"#utility.yul\":31467:31503   */\n      tag_599\n        /* \"#utility.yul\":31499:31502   */\n      dup3\n        /* \"#utility.yul\":31467:31503   */\n      tag_254\n      jump\t// in\n    tag_599:\n        /* \"#utility.yul\":31568:31586   */\n      0xffffffffffffffff\n        /* \"#utility.yul\":31560:31566   */\n      dup2\n        /* \"#utility.yul\":31557:31587   */\n      gt\n        /* \"#utility.yul\":31554:31610   */\n      iszero\n      tag_600\n      jumpi\n        /* \"#utility.yul\":31590:31608   */\n      tag_601\n      tag_156\n      jump\t// in\n    tag_601:\n        /* \"#utility.yul\":31554:31610   */\n    tag_600:\n        /* \"#utility.yul\":31634:31672   */\n      tag_602\n        /* \"#utility.yul\":31666:31670   */\n      dup3\n        /* \"#utility.yul\":31660:31671   */\n      sload\n        /* \"#utility.yul\":31634:31672   */\n      tag_56\n      jump\t// in\n    tag_602:\n        /* \"#utility.yul\":31719:31785   */\n      tag_603\n        /* \"#utility.yul\":31778:31784   */\n      dup3\n        /* \"#utility.yul\":31770:31776   */\n      dup3\n        /* \"#utility.yul\":31764:31768   */\n      dup6\n        /* \"#utility.yul\":31719:31785   */\n      tag_308\n      jump\t// in\n    tag_603:\n        /* \"#utility.yul\":31812:31813   */\n      0x00\n        /* \"#utility.yul\":31836:31840   */\n      0x20\n        /* \"#utility.yul\":31823:31840   */\n      swap1\n      pop\n        /* \"#utility.yul\":31868:31870   */\n      0x1f\n        /* \"#utility.yul\":31860:31866   */\n      dup4\n        /* \"#utility.yul\":31857:31871   */\n      gt\n        /* \"#utility.yul\":31885:31886   */\n      0x01\n        /* \"#utility.yul\":31880:32497   */\n      dup2\n      eq\n      tag_605\n      jumpi\n        /* \"#utility.yul\":32541:32542   */\n      0x00\n        /* \"#utility.yul\":32558:32564   */\n      dup5\n        /* \"#utility.yul\":32555:32632   */\n      iszero\n      tag_606\n      jumpi\n        /* \"#utility.yul\":32607:32616   */\n      dup3\n        /* \"#utility.yul\":32602:32605   */\n      dup8\n        /* \"#utility.yul\":32598:32617   */\n      add\n        /* \"#utility.yul\":32592:32618   */\n      mload\n        /* \"#utility.yul\":32583:32618   */\n      swap1\n      pop\n        /* \"#utility.yul\":32555:32632   */\n    tag_606:\n        /* \"#utility.yul\":32658:32725   */\n      tag_607\n        /* \"#utility.yul\":32718:32724   */\n      dup6\n        /* \"#utility.yul\":32711:32716   */\n      dup3\n        /* \"#utility.yul\":32658:32725   */\n      tag_311\n      jump\t// in\n    tag_607:\n        /* \"#utility.yul\":32652:32656   */\n      dup7\n        /* \"#utility.yul\":32645:32726   */\n      sstore\n        /* \"#utility.yul\":32514:32736   */\n      pop\n        /* \"#utility.yul\":31850:32736   */\n      jump(tag_604)\n        /* \"#utility.yul\":31880:32497   */\n    tag_605:\n        /* \"#utility.yul\":31932:31936   */\n      0x1f\n        /* \"#utility.yul\":31928:31937   */\n      not\n        /* \"#utility.yul\":31920:31926   */\n      dup5\n        /* \"#utility.yul\":31916:31938   */\n      and\n        /* \"#utility.yul\":31966:32002   */\n      tag_608\n        /* \"#utility.yul\":31997:32001   */\n      dup7\n        /* \"#utility.yul\":31966:32002   */\n      tag_297\n      jump\t// in\n    tag_608:\n        /* \"#utility.yul\":32024:32025   */\n      0x00\n        /* \"#utility.yul\":32038:32246   */\n    tag_609:\n        /* \"#utility.yul\":32052:32059   */\n      dup3\n        /* \"#utility.yul\":32049:32050   */\n      dup2\n        /* \"#utility.yul\":32046:32060   */\n      lt\n        /* \"#utility.yul\":32038:32246   */\n      iszero\n      tag_611\n      jumpi\n        /* \"#utility.yul\":32131:32140   */\n      dup5\n        /* \"#utility.yul\":32126:32129   */\n      dup10\n        /* \"#utility.yul\":32122:32141   */\n      add\n        /* \"#utility.yul\":32116:32142   */\n      mload\n        /* \"#utility.yul\":32108:32114   */\n      dup3\n        /* \"#utility.yul\":32101:32143   */\n      sstore\n        /* \"#utility.yul\":32182:32183   */\n      0x01\n        /* \"#utility.yul\":32174:32180   */\n      dup3\n        /* \"#utility.yul\":32170:32184   */\n      add\n        /* \"#utility.yul\":32160:32184   */\n      swap2\n      pop\n        /* \"#utility.yul\":32229:32231   */\n      0x20\n        /* \"#utility.yul\":32218:32227   */\n      dup6\n        /* \"#utility.yul\":32214:32232   */\n      add\n        /* \"#utility.yul\":32201:32232   */\n      swap5\n      pop\n        /* \"#utility.yul\":32075:32079   */\n      0x20\n        /* \"#utility.yul\":32072:32073   */\n      dup2\n        /* \"#utility.yul\":32068:32080   */\n      add\n        /* \"#utility.yul\":32063:32080   */\n      swap1\n      pop\n        /* \"#utility.yul\":32038:32246   */\n      jump(tag_609)\n    tag_611:\n        /* \"#utility.yul\":32274:32280   */\n      dup7\n        /* \"#utility.yul\":32265:32272   */\n      dup4\n        /* \"#utility.yul\":32262:32281   */\n      lt\n        /* \"#utility.yul\":32259:32438   */\n      iszero\n      tag_612\n      jumpi\n        /* \"#utility.yul\":32332:32341   */\n      dup5\n        /* \"#utility.yul\":32327:32330   */\n      dup10\n        /* \"#utility.yul\":32323:32342   */\n      add\n        /* \"#utility.yul\":32317:32343   */\n      mload\n        /* \"#utility.yul\":32375:32423   */\n      tag_613\n        /* \"#utility.yul\":32417:32421   */\n      0x1f\n        /* \"#utility.yul\":32409:32415   */\n      dup10\n        /* \"#utility.yul\":32405:32422   */\n      and\n        /* \"#utility.yul\":32394:32403   */\n      dup3\n        /* \"#utility.yul\":32375:32423   */\n      tag_310\n      jump\t// in\n    tag_613:\n        /* \"#utility.yul\":32367:32373   */\n      dup4\n        /* \"#utility.yul\":32360:32424   */\n      sstore\n        /* \"#utility.yul\":32282:32438   */\n      pop\n        /* \"#utility.yul\":32259:32438   */\n    tag_612:\n        /* \"#utility.yul\":32484:32485   */\n      0x01\n        /* \"#utility.yul\":32480:32481   */\n      0x02\n        /* \"#utility.yul\":32472:32478   */\n      dup9\n        /* \"#utility.yul\":32468:32482   */\n      mul\n        /* \"#utility.yul\":32464:32486   */\n      add\n        /* \"#utility.yul\":32458:32462   */\n      dup9\n        /* \"#utility.yul\":32451:32487   */\n      sstore\n        /* \"#utility.yul\":31887:32497   */\n      pop\n      pop\n      pop\n        /* \"#utility.yul\":31850:32736   */\n    tag_604:\n      pop\n        /* \"#utility.yul\":31442:32742   */\n      pop\n      pop\n      pop\n        /* \"#utility.yul\":31352:32742   */\n      pop\n      pop\n      jump\t// out\n        /* \"#utility.yul\":32748:32928   */\n    tag_312:\n        /* \"#utility.yul\":32796:32873   */\n      0x4e487b7100000000000000000000000000000000000000000000000000000000\n        /* \"#utility.yul\":32793:32794   */\n      0x00\n        /* \"#utility.yul\":32786:32874   */\n      mstore\n        /* \"#utility.yul\":32893:32897   */\n      0x11\n        /* \"#utility.yul\":32890:32891   */\n      0x04\n        /* \"#utility.yul\":32883:32898   */\n      mstore\n        /* \"#utility.yul\":32917:32921   */\n      0x24\n        /* \"#utility.yul\":32914:32915   */\n      0x00\n        /* \"#utility.yul\":32907:32922   */\n      revert\n        /* \"#utility.yul\":32934:33167   */\n    tag_105:\n        /* \"#utility.yul\":32973:32976   */\n      0x00\n        /* \"#utility.yul\":32996:33020   */\n      tag_616\n        /* \"#utility.yul\":33014:33019   */\n      dup3\n        /* \"#utility.yul\":32996:33020   */\n      tag_240\n      jump\t// in\n    tag_616:\n        /* \"#utility.yul\":32987:33020   */\n      swap2\n      pop\n        /* \"#utility.yul\":33042:33108   */\n      0xffffffffffffffffffffffffffffffffffffffffffffffffffffffffffffffff\n        /* \"#utility.yul\":33035:33040   */\n      dup3\n        /* \"#utility.yul\":33032:33109   */\n      sub\n        /* \"#utility.yul\":33029:33132   */\n      tag_617\n      jumpi\n        /* \"#utility.yul\":33112:33130   */\n      tag_618\n      tag_312\n      jump\t// in\n    tag_618:\n        /* \"#utility.yul\":33029:33132   */\n    tag_617:\n        /* \"#utility.yul\":33159:33160   */\n      0x01\n        /* \"#utility.yul\":33152:33157   */\n      dup3\n        /* \"#utility.yul\":33148:33161   */\n      add\n        /* \"#utility.yul\":33141:33161   */\n      swap1\n      pop\n        /* \"#utility.yul\":32934:33167   */\n      swap2\n      swap1\n      pop\n      jump\t// out\n        /* \"#utility.yul\":33173:33353   */\n    tag_165:\n        /* \"#utility.yul\":33221:33298   */\n      0x4e487b7100000000000000000000000000000000000000000000000000000000\n        /* \"#utility.yul\":33218:33219   */\n      0x00\n        /* \"#utility.yul\":33211:33299   */\n      mstore\n        /* \"#utility.yul\":33318:33322   */\n      0x32\n        /* \"#utility.yul\":33315:33316   */\n      0x04\n        /* \"#utility.yul\":33308:33323   */\n      mstore\n        /* \"#utility.yul\":33342:33346   */\n      0x24\n        /* \"#utility.yul\":33339:33340   */\n      0x00\n        /* \"#utility.yul\":33332:33347   */\n      revert\n\n    auxdata: 0xa264697066735822122007787715d773990051344ddbbbafd9ec4843ac1e9819deecdbc9ed05cd53e80964736f6c63430008120033\n}\n",
				"bytecode": {
					"linkReferences": {},
					"object": "6080604052600160005534801561001557600080fd5b50612642806100256000396000f3fe608060405234801561001057600080fd5b506004361061007d5760003560e01c80639c9ed59f1161005b5780639c9ed59f146100fe5780639e9c191d1461011c578063ed90c7b714610151578063f1afff561461016d5761007d565b806321c6f9e5146100825780632e1f9763146100b2578063987259a6146100e2575b600080fd5b61009c6004803603810190610097919061165f565b61019d565b6040516100a991906116ae565b60405180910390f35b6100cc60048036038101906100c791906116c9565b6101ce565b6040516100d991906119e7565b60405180910390f35b6100fc60048036038101906100f79190611d42565b6106cf565b005b6101066108f1565b6040516101139190611f9f565b60405180910390f35b610136600480360381019061013191906116c9565b610986565b6040516101489695949392919061200b565b60405180910390f35b61016b600480360381019061016691906116c9565b610cf2565b005b61018760048036038101906101829190612096565b610d8b565b6040516101949190612266565b60405180910390f35b600360205281600052604060002081815481106101b957600080fd5b90600052602060002001600091509150505481565b6101d66113cc565b60026000838152602001908152602001600020604051806101000160405290816000820180548060200260200160405190810160405280929190818152602001828054801561027a57602002820191906000526020600020905b8160009054906101000a900473ffffffffffffffffffffffffffffffffffffffff1673ffffffffffffffffffffffffffffffffffffffff1681526020019060010190808311610230575b5050505050815260200160018201805480602002602001604051908101604052809291908181526020016000905b828210156103545783829060005260206000200180546102c7906122b7565b80601f01602080910402602001604051908101604052809291908181526020018280546102f3906122b7565b80156103405780601f1061031557610100808354040283529160200191610340565b820191906000526020600020905b81548152906001019060200180831161032357829003601f168201915b5050505050815260200190600101906102a8565b50505050815260200160028201805461036c906122b7565b80601f0160208091040260200160405190810160405280929190818152602001828054610398906122b7565b80156103e55780601f106103ba576101008083540402835291602001916103e5565b820191906000526020600020905b8154815290600101906020018083116103c857829003601f168201915b505050505081526020016003820180546103fe906122b7565b80601f016020809104026020016040519081016040528092919081815260200182805461042a906122b7565b80156104775780601f1061044c57610100808354040283529160200191610477565b820191906000526020600020905b81548152906001019060200180831161045a57829003601f168201915b50505050508152602001600482018054610490906122b7565b80601f01602080910402602001604051908101604052809291908181526020018280546104bc906122b7565b80156105095780601f106104de57610100808354040283529160200191610509565b820191906000526020600020905b8154815290600101906020018083116104ec57829003601f168201915b50505050508152602001600582018054610522906122b7565b80601f016020809104026020016040519081016040528092919081815260200182805461054e906122b7565b801561059b5780601f106105705761010080835404028352916020019161059b565b820191906000526020600020905b81548152906001019060200180831161057e57829003601f168201915b505050505081526020016006820180546105b4906122b7565b80601f01602080910402602001604051908101604052809291908181526020018280546105e0906122b7565b801561062d5780601f106106025761010080835404028352916020019161062d565b820191906000526020600020905b81548152906001019060200180831161061057829003601f168201915b50505050508152602001600782018054610646906122b7565b80601f0160208091040260200160405190810160405280929190818152602001828054610672906122b7565b80156106bf5780601f10610694576101008083540402835291602001916106bf565b820191906000526020600020905b8154815290600101906020018083116106a257829003601f168201915b5050505050815250509050919050565b6040518061010001604052808b81526020018a815260200189898080601f016020809104026020016040519081016040528093929190818152602001838380828437600081840152601f19601f82011690508083019250505050505050815260200187878080601f016020809104026020016040519081016040528093929190818152602001838380828437600081840152601f19601f82011690508083019250505050505050815260200185815260200184815260200183815260200182815250600260008054815260200190815260200160002060008201518160000190805190602001906107c1929190611411565b5060208201518160010190805190602001906107de92919061149b565b5060408201518160020190816107f49190612494565b50606082015181600301908161080a9190612494565b5060808201518160040190816108209190612494565b5060a08201518160050190816108369190612494565b5060c082015181600601908161084c9190612494565b5060e08201518160070190816108629190612494565b50905050600360003373ffffffffffffffffffffffffffffffffffffffff1673ffffffffffffffffffffffffffffffffffffffff16815260200190815260200160002060005490806001815401808255809150506001900390600052602060002001600090919091909150556000808154809291906108e090612595565b919050555050505050505050505050565b6060600360003373ffffffffffffffffffffffffffffffffffffffff1673ffffffffffffffffffffffffffffffffffffffff16815260200190815260200160002080548060200260200160405190810160405280929190818152602001828054801561097c57602002820191906000526020600020905b815481526020019060010190808311610968575b5050505050905090565b60026020528060005260406000206000915090508060020180546109a9906122b7565b80601f01602080910402602001604051908101604052809291908181526020018280546109d5906122b7565b8015610a225780601f106109f757610100808354040283529160200191610a22565b820191906000526020600020905b815481529060010190602001808311610a0557829003601f168201915b505050505090806003018054610a37906122b7565b80601f0160208091040260200160405190810160405280929190818152602001828054610a63906122b7565b8015610ab05780601f10610a8557610100808354040283529160200191610ab0565b820191906000526020600020905b815481529060010190602001808311610a9357829003601f168201915b505050505090806004018054610ac5906122b7565b80601f0160208091040260200160405190810160405280929190818152602001828054610af1906122b7565b8015610b3e5780601f10610b1357610100808354040283529160200191610b3e565b820191906000526020600020905b815481529060010190602001808311610b2157829003601f168201915b505050505090806005018054610b53906122b7565b80601f0160208091040260200160405190810160405280929190818152602001828054610b7f906122b7565b8015610bcc5780601f10610ba157610100808354040283529160200191610bcc565b820191906000526020600020905b815481529060010190602001808311610baf57829003601f168201915b505050505090806006018054610be1906122b7565b80601f0160208091040260200160405190810160405280929190818152602001828054610c0d906122b7565b8015610c5a5780601f10610c2f57610100808354040283529160200191610c5a565b820191906000526020600020905b815481529060010190602001808311610c3d57829003601f168201915b505050505090806007018054610c6f906122b7565b80601f0160208091040260200160405190810160405280929190818152602001828054610c9b906122b7565b8015610ce85780601f10610cbd57610100808354040283529160200191610ce8565b820191906000526020600020905b815481529060010190602001808311610ccb57829003601f168201915b5050505050905086565b6002600082815260200190815260200160002060008082016000610d1691906114f4565b600182016000610d269190611515565b600282016000610d369190611536565b600382016000610d469190611536565b600482016000610d569190611536565b600582016000610d669190611536565b600682016000610d769190611536565b600782016000610d869190611536565b505050565b60606000600360008473ffffffffffffffffffffffffffffffffffffffff1673ffffffffffffffffffffffffffffffffffffffff168152602001908152602001600020805480602002602001604051908101604052809291908181526020018280548015610e1857602002820191906000526020600020905b815481526020019060010190808311610e04575b505050505090506000815167ffffffffffffffff811115610e3c57610e3b611a0e565b5b604051908082528060200260200182016040528015610e7557816020015b610e626113cc565b815260200190600190039081610e5a5790505b50905060005b82518110156113c15760026000848381518110610e9b57610e9a6125dd565b5b602002602001015181526020019081526020016000206040518061010001604052908160008201805480602002602001604051908101604052809291908181526020018280548015610f4257602002820191906000526020600020905b8160009054906101000a900473ffffffffffffffffffffffffffffffffffffffff1673ffffffffffffffffffffffffffffffffffffffff1681526020019060010190808311610ef8575b5050505050815260200160018201805480602002602001604051908101604052809291908181526020016000905b8282101561101c578382906000526020600020018054610f8f906122b7565b80601f0160208091040260200160405190810160405280929190818152602001828054610fbb906122b7565b80156110085780601f10610fdd57610100808354040283529160200191611008565b820191906000526020600020905b815481529060010190602001808311610feb57829003601f168201915b505050505081526020019060010190610f70565b505050508152602001600282018054611034906122b7565b80601f0160208091040260200160405190810160405280929190818152602001828054611060906122b7565b80156110ad5780601f10611082576101008083540402835291602001916110ad565b820191906000526020600020905b81548152906001019060200180831161109057829003601f168201915b505050505081526020016003820180546110c6906122b7565b80601f01602080910402602001604051908101604052809291908181526020018280546110f2906122b7565b801561113f5780601f106111145761010080835404028352916020019161113f565b820191906000526020600020905b81548152906001019060200180831161112257829003601f168201915b50505050508152602001600482018054611158906122b7565b80601f0160208091040260200160405190810160405280929190818152602001828054611184906122b7565b80156111d15780601f106111a6576101008083540402835291602001916111d1565b820191906000526020600020905b8154815290600101906020018083116111b457829003601f168201915b505050505081526020016005820180546111ea906122b7565b80601f0160208091040260200160405190810160405280929190818152602001828054611216906122b7565b80156112635780601f1061123857610100808354040283529160200191611263565b820191906000526020600020905b81548152906001019060200180831161124657829003601f168201915b5050505050815260200160068201805461127c906122b7565b80601f01602080910402602001604051908101604052809291908181526020018280546112a8906122b7565b80156112f55780601f106112ca576101008083540402835291602001916112f5565b820191906000526020600020905b8154815290600101906020018083116112d857829003601f168201915b5050505050815260200160078201805461130e906122b7565b80601f016020809104026020016040519081016040528092919081815260200182805461133a906122b7565b80156113875780601f1061135c57610100808354040283529160200191611387565b820191906000526020600020905b81548152906001019060200180831161136a57829003601f168201915b5050505050815250508282815181106113a3576113a26125dd565b5b602002602001018190525080806113b990612595565b915050610e7b565b508092505050919050565b60405180610100016040528060608152602001606081526020016060815260200160608152602001606081526020016060815260200160608152602001606081525090565b82805482825590600052602060002090810192821561148a579160200282015b828111156114895782518260006101000a81548173ffffffffffffffffffffffffffffffffffffffff021916908373ffffffffffffffffffffffffffffffffffffffff16021790555091602001919060010190611431565b5b5090506114979190611576565b5090565b8280548282559060005260206000209081019282156114e3579160200282015b828111156114e25782518290816114d29190612494565b50916020019190600101906114bb565b5b5090506114f09190611593565b5090565b50805460008255906000526020600020908101906115129190611576565b50565b50805460008255906000526020600020908101906115339190611593565b50565b508054611542906122b7565b6000825580601f106115545750611573565b601f0160209004906000526020600020908101906115729190611576565b5b50565b5b8082111561158f576000816000905550600101611577565b5090565b5b808211156115b357600081816115aa9190611536565b50600101611594565b5090565b6000604051905090565b600080fd5b600080fd5b600073ffffffffffffffffffffffffffffffffffffffff82169050919050565b60006115f6826115cb565b9050919050565b611606816115eb565b811461161157600080fd5b50565b600081359050611623816115fd565b92915050565b6000819050919050565b61163c81611629565b811461164757600080fd5b50565b60008135905061165981611633565b92915050565b60008060408385031215611676576116756115c1565b5b600061168485828601611614565b92505060206116958582860161164a565b9150509250929050565b6116a881611629565b82525050565b60006020820190506116c3600083018461169f565b92915050565b6000602082840312156116df576116de6115c1565b5b60006116ed8482850161164a565b91505092915050565b600081519050919050565b600082825260208201905092915050565b6000819050602082019050919050565b61172b816115eb565b82525050565b600061173d8383611722565b60208301905092915050565b6000602082019050919050565b6000611761826116f6565b61176b8185611701565b935061177683611712565b8060005b838110156117a757815161178e8882611731565b975061179983611749565b92505060018101905061177a565b5085935050505092915050565b600081519050919050565b600082825260208201905092915050565b6000819050602082019050919050565b600081519050919050565b600082825260208201905092915050565b60005b8381101561181a5780820151818401526020810190506117ff565b60008484015250505050565b6000601f19601f8301169050919050565b6000611842826117e0565b61184c81856117eb565b935061185c8185602086016117fc565b61186581611826565b840191505092915050565b600061187c8383611837565b905092915050565b6000602082019050919050565b600061189c826117b4565b6118a681856117bf565b9350836020820285016118b8856117d0565b8060005b858110156118f457848403895281516118d58582611870565b94506118e083611884565b925060208a019950506001810190506118bc565b50829750879550505050505092915050565b60006101008301600083015184820360008601526119248282611756565b9150506020830151848203602086015261193e8282611891565b915050604083015184820360408601526119588282611837565b915050606083015184820360608601526119728282611837565b9150506080830151848203608086015261198c8282611837565b91505060a083015184820360a08601526119a68282611837565b91505060c083015184820360c08601526119c08282611837565b91505060e083015184820360e08601526119da8282611837565b9150508091505092915050565b60006020820190508181036000830152611a018184611906565b905092915050565b600080fd5b7f4e487b7100000000000000000000000000000000000000000000000000000000600052604160045260246000fd5b611a4682611826565b810181811067ffffffffffffffff82111715611a6557611a64611a0e565b5b80604052505050565b6000611a786115b7565b9050611a848282611a3d565b919050565b600067ffffffffffffffff821115611aa457611aa3611a0e565b5b602082029050602081019050919050565b600080fd5b6000611acd611ac884611a89565b611a6e565b90508083825260208201905060208402830185811115611af057611aef611ab5565b5b835b81811015611b195780611b058882611614565b845260208401935050602081019050611af2565b5050509392505050565b600082601f830112611b3857611b37611a09565b5b8135611b48848260208601611aba565b91505092915050565b600067ffffffffffffffff821115611b6c57611b6b611a0e565b5b602082029050602081019050919050565b600080fd5b600067ffffffffffffffff821115611b9d57611b9c611a0e565b5b611ba682611826565b9050602081019050919050565b82818337600083830152505050565b6000611bd5611bd084611b82565b611a6e565b905082815260208101848484011115611bf157611bf0611b7d565b5b611bfc848285611bb3565b509392505050565b600082601f830112611c1957611c18611a09565b5b8135611c29848260208601611bc2565b91505092915050565b6000611c45611c4084611b51565b611a6e565b90508083825260208201905060208402830185811115611c6857611c67611ab5565b5b835b81811015611caf57803567ffffffffffffffff811115611c8d57611c8c611a09565b5b808601611c9a8982611c04565b85526020850194505050602081019050611c6a565b5050509392505050565b600082601f830112611cce57611ccd611a09565b5b8135611cde848260208601611c32565b91505092915050565b600080fd5b60008083601f840112611d0257611d01611a09565b5b8235905067ffffffffffffffff811115611d1f57611d1e611ce7565b5b602083019150836001820283011115611d3b57611d3a611ab5565b5b9250929050565b6000806000806000806000806000806101008b8d031215611d6657611d656115c1565b5b60008b013567ffffffffffffffff811115611d8457611d836115c6565b5b611d908d828e01611b23565b9a505060208b013567ffffffffffffffff811115611db157611db06115c6565b5b611dbd8d828e01611cb9565b99505060408b013567ffffffffffffffff811115611dde57611ddd6115c6565b5b611dea8d828e01611cec565b985098505060608b013567ffffffffffffffff811115611e0d57611e0c6115c6565b5b611e198d828e01611cec565b965096505060808b013567ffffffffffffffff811115611e3c57611e3b6115c6565b5b611e488d828e01611c04565b94505060a08b013567ffffffffffffffff811115611e6957611e686115c6565b5b611e758d828e01611c04565b93505060c08b013567ffffffffffffffff811115611e9657611e956115c6565b5b611ea28d828e01611c04565b92505060e08b013567ffffffffffffffff811115611ec357611ec26115c6565b5b611ecf8d828e01611c04565b9150509295989b9194979a5092959850565b600081519050919050565b600082825260208201905092915050565b6000819050602082019050919050565b611f1681611629565b82525050565b6000611f288383611f0d565b60208301905092915050565b6000602082019050919050565b6000611f4c82611ee1565b611f568185611eec565b9350611f6183611efd565b8060005b83811015611f92578151611f798882611f1c565b9750611f8483611f34565b925050600181019050611f65565b5085935050505092915050565b60006020820190508181036000830152611fb98184611f41565b905092915050565b600082825260208201905092915050565b6000611fdd826117e0565b611fe78185611fc1565b9350611ff78185602086016117fc565b61200081611826565b840191505092915050565b600060c08201905081810360008301526120258189611fd2565b905081810360208301526120398188611fd2565b9050818103604083015261204d8187611fd2565b905081810360608301526120618186611fd2565b905081810360808301526120758185611fd2565b905081810360a08301526120898184611fd2565b9050979650505050505050565b6000602082840312156120ac576120ab6115c1565b5b60006120ba84828501611614565b91505092915050565b600081519050919050565b600082825260208201905092915050565b6000819050602082019050919050565b600061010083016000830151848203600086015261210d8282611756565b915050602083015184820360208601526121278282611891565b915050604083015184820360408601526121418282611837565b9150506060830151848203606086015261215b8282611837565b915050608083015184820360808601526121758282611837565b91505060a083015184820360a086015261218f8282611837565b91505060c083015184820360c08601526121a98282611837565b91505060e083015184820360e08601526121c38282611837565b9150508091505092915050565b60006121dc83836120ef565b905092915050565b6000602082019050919050565b60006121fc826120c3565b61220681856120ce565b935083602082028501612218856120df565b8060005b85811015612254578484038952815161223585826121d0565b9450612240836121e4565b925060208a0199505060018101905061221c565b50829750879550505050505092915050565b6000602082019050818103600083015261228081846121f1565b905092915050565b7f4e487b7100000000000000000000000000000000000000000000000000000000600052602260045260246000fd5b600060028204905060018216806122cf57607f821691505b6020821081036122e2576122e1612288565b5b50919050565b60008190508160005260206000209050919050565b60006020601f8301049050919050565b600082821b905092915050565b60006008830261234a7fffffffffffffffffffffffffffffffffffffffffffffffffffffffffffffffff8261230d565b612354868361230d565b95508019841693508086168417925050509392505050565b6000819050919050565b600061239161238c61238784611629565b61236c565b611629565b9050919050565b6000819050919050565b6123ab83612376565b6123bf6123b782612398565b84845461231a565b825550505050565b600090565b6123d46123c7565b6123df8184846123a2565b505050565b5b81811015612403576123f86000826123cc565b6001810190506123e5565b5050565b601f82111561244857612419816122e8565b612422846122fd565b81016020851015612431578190505b61244561243d856122fd565b8301826123e4565b50505b505050565b600082821c905092915050565b600061246b6000198460080261244d565b1980831691505092915050565b6000612484838361245a565b9150826002028217905092915050565b61249d826117e0565b67ffffffffffffffff8111156124b6576124b5611a0e565b5b6124c082546122b7565b6124cb828285612407565b600060209050601f8311600181146124fe57600084156124ec578287015190505b6124f68582612478565b86555061255e565b601f19841661250c866122e8565b60005b828110156125345784890151825560018201915060208501945060208101905061250f565b86831015612551578489015161254d601f89168261245a565b8355505b6001600288020188555050505b505050505050565b7f4e487b7100000000000000000000000000000000000000000000000000000000600052601160045260246000fd5b60006125a082611629565b91507fffffffffffffffffffffffffffffffffffffffffffffffffffffffffffffffff82036125d2576125d1612566565b5b600182019050919050565b7f4e487b7100000000000000000000000000000000000000000000000000000000600052603260045260246000fdfea264697066735822122007787715d773990051344ddbbbafd9ec4843ac1e9819deecdbc9ed05cd53e80964736f6c63430008120033",
					"opcodes": "PUSH1 0x80 PUSH1 0x40 MSTORE PUSH1 0x1 PUSH1 0x0 SSTORE CALLVALUE DUP1 ISZERO PUSH2 0x15 JUMPI PUSH1 0x0 DUP1 REVERT JUMPDEST POP PUSH2 0x2642 DUP1 PUSH2 0x25 PUSH1 0x0 CODECOPY PUSH1 0x0 RETURN INVALID PUSH1 0x80 PUSH1 0x40 MSTORE CALLVALUE DUP1 ISZERO PUSH2 0x10 JUMPI PUSH1 0x0 DUP1 REVERT JUMPDEST POP PUSH1 0x4 CALLDATASIZE LT PUSH2 0x7D JUMPI PUSH1 0x0 CALLDATALOAD PUSH1 0xE0 SHR DUP1 PUSH4 0x9C9ED59F GT PUSH2 0x5B JUMPI DUP1 PUSH4 0x9C9ED59F EQ PUSH2 0xFE JUMPI DUP1 PUSH4 0x9E9C191D EQ PUSH2 0x11C JUMPI DUP1 PUSH4 0xED90C7B7 EQ PUSH2 0x151 JUMPI DUP1 PUSH4 0xF1AFFF56 EQ PUSH2 0x16D JUMPI PUSH2 0x7D JUMP JUMPDEST DUP1 PUSH4 0x21C6F9E5 EQ PUSH2 0x82 JUMPI DUP1 PUSH4 0x2E1F9763 EQ PUSH2 0xB2 JUMPI DUP1 PUSH4 0x987259A6 EQ PUSH2 0xE2 JUMPI JUMPDEST PUSH1 0x0 DUP1 REVERT JUMPDEST PUSH2 0x9C PUSH1 0x4 DUP1 CALLDATASIZE SUB DUP2 ADD SWAP1 PUSH2 0x97 SWAP2 SWAP1 PUSH2 0x165F JUMP JUMPDEST PUSH2 0x19D JUMP JUMPDEST PUSH1 0x40 MLOAD PUSH2 0xA9 SWAP2 SWAP1 PUSH2 0x16AE JUMP JUMPDEST PUSH1 0x40 MLOAD DUP1 SWAP2 SUB SWAP1 RETURN JUMPDEST PUSH2 0xCC PUSH1 0x4 DUP1 CALLDATASIZE SUB DUP2 ADD SWAP1 PUSH2 0xC7 SWAP2 SWAP1 PUSH2 0x16C9 JUMP JUMPDEST PUSH2 0x1CE JUMP JUMPDEST PUSH1 0x40 MLOAD PUSH2 0xD9 SWAP2 SWAP1 PUSH2 0x19E7 JUMP JUMPDEST PUSH1 0x40 MLOAD DUP1 SWAP2 SUB SWAP1 RETURN JUMPDEST PUSH2 0xFC PUSH1 0x4 DUP1 CALLDATASIZE SUB DUP2 ADD SWAP1 PUSH2 0xF7 SWAP2 SWAP1 PUSH2 0x1D42 JUMP JUMPDEST PUSH2 0x6CF JUMP JUMPDEST STOP JUMPDEST PUSH2 0x106 PUSH2 0x8F1 JUMP JUMPDEST PUSH1 0x40 MLOAD PUSH2 0x113 SWAP2 SWAP1 PUSH2 0x1F9F JUMP JUMPDEST PUSH1 0x40 MLOAD DUP1 SWAP2 SUB SWAP1 RETURN JUMPDEST PUSH2 0x136 PUSH1 0x4 DUP1 CALLDATASIZE SUB DUP2 ADD SWAP1 PUSH2 0x131 SWAP2 SWAP1 PUSH2 0x16C9 JUMP JUMPDEST PUSH2 0x986 JUMP JUMPDEST PUSH1 0x40 MLOAD PUSH2 0x148 SWAP7 SWAP6 SWAP5 SWAP4 SWAP3 SWAP2 SWAP1 PUSH2 0x200B JUMP JUMPDEST PUSH1 0x40 MLOAD DUP1 SWAP2 SUB SWAP1 RETURN JUMPDEST PUSH2 0x16B PUSH1 0x4 DUP1 CALLDATASIZE SUB DUP2 ADD SWAP1 PUSH2 0x166 SWAP2 SWAP1 PUSH2 0x16C9 JUMP JUMPDEST PUSH2 0xCF2 JUMP JUMPDEST STOP JUMPDEST PUSH2 0x187 PUSH1 0x4 DUP1 CALLDATASIZE SUB DUP2 ADD SWAP1 PUSH2 0x182 SWAP2 SWAP1 PUSH2 0x2096 JUMP JUMPDEST PUSH2 0xD8B JUMP JUMPDEST PUSH1 0x40 MLOAD PUSH2 0x194 SWAP2 SWAP1 PUSH2 0x2266 JUMP JUMPDEST PUSH1 0x40 MLOAD DUP1 SWAP2 SUB SWAP1 RETURN JUMPDEST PUSH1 0x3 PUSH1 0x20 MSTORE DUP2 PUSH1 0x0 MSTORE PUSH1 0x40 PUSH1 0x0 KECCAK256 DUP2 DUP2 SLOAD DUP2 LT PUSH2 0x1B9 JUMPI PUSH1 0x0 DUP1 REVERT JUMPDEST SWAP1 PUSH1 0x0 MSTORE PUSH1 0x20 PUSH1 0x0 KECCAK256 ADD PUSH1 0x0 SWAP2 POP SWAP2 POP POP SLOAD DUP2 JUMP JUMPDEST PUSH2 0x1D6 PUSH2 0x13CC JUMP JUMPDEST PUSH1 0x2 PUSH1 0x0 DUP4 DUP2 MSTORE PUSH1 0x20 ADD SWAP1 DUP2 MSTORE PUSH1 0x20 ADD PUSH1 0x0 KECCAK256 PUSH1 0x40 MLOAD DUP1 PUSH2 0x100 ADD PUSH1 0x40 MSTORE SWAP1 DUP2 PUSH1 0x0 DUP3 ADD DUP1 SLOAD DUP1 PUSH1 0x20 MUL PUSH1 0x20 ADD PUSH1 0x40 MLOAD SWAP1 DUP2 ADD PUSH1 0x40 MSTORE DUP1 SWAP3 SWAP2 SWAP1 DUP2 DUP2 MSTORE PUSH1 0x20 ADD DUP3 DUP1 SLOAD DUP1 ISZERO PUSH2 0x27A JUMPI PUSH1 0x20 MUL DUP3 ADD SWAP2 SWAP1 PUSH1 0x0 MSTORE PUSH1 0x20 PUSH1 0x0 KECCAK256 SWAP1 JUMPDEST DUP2 PUSH1 0x0 SWAP1 SLOAD SWAP1 PUSH2 0x100 EXP SWAP1 DIV PUSH20 0xFFFFFFFFFFFFFFFFFFFFFFFFFFFFFFFFFFFFFFFF AND PUSH20 0xFFFFFFFFFFFFFFFFFFFFFFFFFFFFFFFFFFFFFFFF AND DUP2 MSTORE PUSH1 0x20 ADD SWAP1 PUSH1 0x1 ADD SWAP1 DUP1 DUP4 GT PUSH2 0x230 JUMPI JUMPDEST POP POP POP POP POP DUP2 MSTORE PUSH1 0x20 ADD PUSH1 0x1 DUP3 ADD DUP1 SLOAD DUP1 PUSH1 0x20 MUL PUSH1 0x20 ADD PUSH1 0x40 MLOAD SWAP1 DUP2 ADD PUSH1 0x40 MSTORE DUP1 SWAP3 SWAP2 SWAP1 DUP2 DUP2 MSTORE PUSH1 0x20 ADD PUSH1 0x0 SWAP1 JUMPDEST DUP3 DUP3 LT ISZERO PUSH2 0x354 JUMPI DUP4 DUP3 SWAP1 PUSH1 0x0 MSTORE PUSH1 0x20 PUSH1 0x0 KECCAK256 ADD DUP1 SLOAD PUSH2 0x2C7 SWAP1 PUSH2 0x22B7 JUMP JUMPDEST DUP1 PUSH1 0x1F ADD PUSH1 0x20 DUP1 SWAP2 DIV MUL PUSH1 0x20 ADD PUSH1 0x40 MLOAD SWAP1 DUP2 ADD PUSH1 0x40 MSTORE DUP1 SWAP3 SWAP2 SWAP1 DUP2 DUP2 MSTORE PUSH1 0x20 ADD DUP3 DUP1 SLOAD PUSH2 0x2F3 SWAP1 PUSH2 0x22B7 JUMP JUMPDEST DUP1 ISZERO PUSH2 0x340 JUMPI DUP1 PUSH1 0x1F LT PUSH2 0x315 JUMPI PUSH2 0x100 DUP1 DUP4 SLOAD DIV MUL DUP4 MSTORE SWAP2 PUSH1 0x20 ADD SWAP2 PUSH2 0x340 JUMP JUMPDEST DUP3 ADD SWAP2 SWAP1 PUSH1 0x0 MSTORE PUSH1 0x20 PUSH1 0x0 KECCAK256 SWAP1 JUMPDEST DUP2 SLOAD DUP2 MSTORE SWAP1 PUSH1 0x1 ADD SWAP1 PUSH1 0x20 ADD DUP1 DUP4 GT PUSH2 0x323 JUMPI DUP3 SWAP1 SUB PUSH1 0x1F AND DUP3 ADD SWAP2 JUMPDEST POP POP POP POP POP DUP2 MSTORE PUSH1 0x20 ADD SWAP1 PUSH1 0x1 ADD SWAP1 PUSH2 0x2A8 JUMP JUMPDEST POP POP POP POP DUP2 MSTORE PUSH1 0x20 ADD PUSH1 0x2 DUP3 ADD DUP1 SLOAD PUSH2 0x36C SWAP1 PUSH2 0x22B7 JUMP JUMPDEST DUP1 PUSH1 0x1F ADD PUSH1 0x20 DUP1 SWAP2 DIV MUL PUSH1 0x20 ADD PUSH1 0x40 MLOAD SWAP1 DUP2 ADD PUSH1 0x40 MSTORE DUP1 SWAP3 SWAP2 SWAP1 DUP2 DUP2 MSTORE PUSH1 0x20 ADD DUP3 DUP1 SLOAD PUSH2 0x398 SWAP1 PUSH2 0x22B7 JUMP JUMPDEST DUP1 ISZERO PUSH2 0x3E5 JUMPI DUP1 PUSH1 0x1F LT PUSH2 0x3BA JUMPI PUSH2 0x100 DUP1 DUP4 SLOAD DIV MUL DUP4 MSTORE SWAP2 PUSH1 0x20 ADD SWAP2 PUSH2 0x3E5 JUMP JUMPDEST DUP3 ADD SWAP2 SWAP1 PUSH1 0x0 MSTORE PUSH1 0x20 PUSH1 0x0 KECCAK256 SWAP1 JUMPDEST DUP2 SLOAD DUP2 MSTORE SWAP1 PUSH1 0x1 ADD SWAP1 PUSH1 0x20 ADD DUP1 DUP4 GT PUSH2 0x3C8 JUMPI DUP3 SWAP1 SUB PUSH1 0x1F AND DUP3 ADD SWAP2 JUMPDEST POP POP POP POP POP DUP2 MSTORE PUSH1 0x20 ADD PUSH1 0x3 DUP3 ADD DUP1 SLOAD PUSH2 0x3FE SWAP1 PUSH2 0x22B7 JUMP JUMPDEST DUP1 PUSH1 0x1F ADD PUSH1 0x20 DUP1 SWAP2 DIV MUL PUSH1 0x20 ADD PUSH1 0x40 MLOAD SWAP1 DUP2 ADD PUSH1 0x40 MSTORE DUP1 SWAP3 SWAP2 SWAP1 DUP2 DUP2 MSTORE PUSH1 0x20 ADD DUP3 DUP1 SLOAD PUSH2 0x42A SWAP1 PUSH2 0x22B7 JUMP JUMPDEST DUP1 ISZERO PUSH2 0x477 JUMPI DUP1 PUSH1 0x1F LT PUSH2 0x44C JUMPI PUSH2 0x100 DUP1 DUP4 SLOAD DIV MUL DUP4 MSTORE SWAP2 PUSH1 0x20 ADD SWAP2 PUSH2 0x477 JUMP JUMPDEST DUP3 ADD SWAP2 SWAP1 PUSH1 0x0 MSTORE PUSH1 0x20 PUSH1 0x0 KECCAK256 SWAP1 JUMPDEST DUP2 SLOAD DUP2 MSTORE SWAP1 PUSH1 0x1 ADD SWAP1 PUSH1 0x20 ADD DUP1 DUP4 GT PUSH2 0x45A JUMPI DUP3 SWAP1 SUB PUSH1 0x1F AND DUP3 ADD SWAP2 JUMPDEST POP POP POP POP POP DUP2 MSTORE PUSH1 0x20 ADD PUSH1 0x4 DUP3 ADD DUP1 SLOAD PUSH2 0x490 SWAP1 PUSH2 0x22B7 JUMP JUMPDEST DUP1 PUSH1 0x1F ADD PUSH1 0x20 DUP1 SWAP2 DIV MUL PUSH1 0x20 ADD PUSH1 0x40 MLOAD SWAP1 DUP2 ADD PUSH1 0x40 MSTORE DUP1 SWAP3 SWAP2 SWAP1 DUP2 DUP2 MSTORE PUSH1 0x20 ADD DUP3 DUP1 SLOAD PUSH2 0x4BC SWAP1 PUSH2 0x22B7 JUMP JUMPDEST DUP1 ISZERO PUSH2 0x509 JUMPI DUP1 PUSH1 0x1F LT PUSH2 0x4DE JUMPI PUSH2 0x100 DUP1 DUP4 SLOAD DIV MUL DUP4 MSTORE SWAP2 PUSH1 0x20 ADD SWAP2 PUSH2 0x509 JUMP JUMPDEST DUP3 ADD SWAP2 SWAP1 PUSH1 0x0 MSTORE PUSH1 0x20 PUSH1 0x0 KECCAK256 SWAP1 JUMPDEST DUP2 SLOAD DUP2 MSTORE SWAP1 PUSH1 0x1 ADD SWAP1 PUSH1 0x20 ADD DUP1 DUP4 GT PUSH2 0x4EC JUMPI DUP3 SWAP1 SUB PUSH1 0x1F AND DUP3 ADD SWAP2 JUMPDEST POP POP POP POP POP DUP2 MSTORE PUSH1 0x20 ADD PUSH1 0x5 DUP3 ADD DUP1 SLOAD PUSH2 0x522 SWAP1 PUSH2 0x22B7 JUMP JUMPDEST DUP1 PUSH1 0x1F ADD PUSH1 0x20 DUP1 SWAP2 DIV MUL PUSH1 0x20 ADD PUSH1 0x40 MLOAD SWAP1 DUP2 ADD PUSH1 0x40 MSTORE DUP1 SWAP3 SWAP2 SWAP1 DUP2 DUP2 MSTORE PUSH1 0x20 ADD DUP3 DUP1 SLOAD PUSH2 0x54E SWAP1 PUSH2 0x22B7 JUMP JUMPDEST DUP1 ISZERO PUSH2 0x59B JUMPI DUP1 PUSH1 0x1F LT PUSH2 0x570 JUMPI PUSH2 0x100 DUP1 DUP4 SLOAD DIV MUL DUP4 MSTORE SWAP2 PUSH1 0x20 ADD SWAP2 PUSH2 0x59B JUMP JUMPDEST DUP3 ADD SWAP2 SWAP1 PUSH1 0x0 MSTORE PUSH1 0x20 PUSH1 0x0 KECCAK256 SWAP1 JUMPDEST DUP2 SLOAD DUP2 MSTORE SWAP1 PUSH1 0x1 ADD SWAP1 PUSH1 0x20 ADD DUP1 DUP4 GT PUSH2 0x57E JUMPI DUP3 SWAP1 SUB PUSH1 0x1F AND DUP3 ADD SWAP2 JUMPDEST POP POP POP POP POP DUP2 MSTORE PUSH1 0x20 ADD PUSH1 0x6 DUP3 ADD DUP1 SLOAD PUSH2 0x5B4 SWAP1 PUSH2 0x22B7 JUMP JUMPDEST DUP1 PUSH1 0x1F ADD PUSH1 0x20 DUP1 SWAP2 DIV MUL PUSH1 0x20 ADD PUSH1 0x40 MLOAD SWAP1 DUP2 ADD PUSH1 0x40 MSTORE DUP1 SWAP3 SWAP2 SWAP1 DUP2 DUP2 MSTORE PUSH1 0x20 ADD DUP3 DUP1 SLOAD PUSH2 0x5E0 SWAP1 PUSH2 0x22B7 JUMP JUMPDEST DUP1 ISZERO PUSH2 0x62D JUMPI DUP1 PUSH1 0x1F LT PUSH2 0x602 JUMPI PUSH2 0x100 DUP1 DUP4 SLOAD DIV MUL DUP4 MSTORE SWAP2 PUSH1 0x20 ADD SWAP2 PUSH2 0x62D JUMP JUMPDEST DUP3 ADD SWAP2 SWAP1 PUSH1 0x0 MSTORE PUSH1 0x20 PUSH1 0x0 KECCAK256 SWAP1 JUMPDEST DUP2 SLOAD DUP2 MSTORE SWAP1 PUSH1 0x1 ADD SWAP1 PUSH1 0x20 ADD DUP1 DUP4 GT PUSH2 0x610 JUMPI DUP3 SWAP1 SUB PUSH1 0x1F AND DUP3 ADD SWAP2 JUMPDEST POP POP POP POP POP DUP2 MSTORE PUSH1 0x20 ADD PUSH1 0x7 DUP3 ADD DUP1 SLOAD PUSH2 0x646 SWAP1 PUSH2 0x22B7 JUMP JUMPDEST DUP1 PUSH1 0x1F ADD PUSH1 0x20 DUP1 SWAP2 DIV MUL PUSH1 0x20 ADD PUSH1 0x40 MLOAD SWAP1 DUP2 ADD PUSH1 0x40 MSTORE DUP1 SWAP3 SWAP2 SWAP1 DUP2 DUP2 MSTORE PUSH1 0x20 ADD DUP3 DUP1 SLOAD PUSH2 0x672 SWAP1 PUSH2 0x22B7 JUMP JUMPDEST DUP1 ISZERO PUSH2 0x6BF JUMPI DUP1 PUSH1 0x1F LT PUSH2 0x694 JUMPI PUSH2 0x100 DUP1 DUP4 SLOAD DIV MUL DUP4 MSTORE SWAP2 PUSH1 0x20 ADD SWAP2 PUSH2 0x6BF JUMP JUMPDEST DUP3 ADD SWAP2 SWAP1 PUSH1 0x0 MSTORE PUSH1 0x20 PUSH1 0x0 KECCAK256 SWAP1 JUMPDEST DUP2 SLOAD DUP2 MSTORE SWAP1 PUSH1 0x1 ADD SWAP1 PUSH1 0x20 ADD DUP1 DUP4 GT PUSH2 0x6A2 JUMPI DUP3 SWAP1 SUB PUSH1 0x1F AND DUP3 ADD SWAP2 JUMPDEST POP POP POP POP POP DUP2 MSTORE POP POP SWAP1 POP SWAP2 SWAP1 POP JUMP JUMPDEST PUSH1 0x40 MLOAD DUP1 PUSH2 0x100 ADD PUSH1 0x40 MSTORE DUP1 DUP12 DUP2 MSTORE PUSH1 0x20 ADD DUP11 DUP2 MSTORE PUSH1 0x20 ADD DUP10 DUP10 DUP1 DUP1 PUSH1 0x1F ADD PUSH1 0x20 DUP1 SWAP2 DIV MUL PUSH1 0x20 ADD PUSH1 0x40 MLOAD SWAP1 DUP2 ADD PUSH1 0x40 MSTORE DUP1 SWAP4 SWAP3 SWAP2 SWAP1 DUP2 DUP2 MSTORE PUSH1 0x20 ADD DUP4 DUP4 DUP1 DUP3 DUP5 CALLDATACOPY PUSH1 0x0 DUP2 DUP5 ADD MSTORE PUSH1 0x1F NOT PUSH1 0x1F DUP3 ADD AND SWAP1 POP DUP1 DUP4 ADD SWAP3 POP POP POP POP POP POP POP DUP2 MSTORE PUSH1 0x20 ADD DUP8 DUP8 DUP1 DUP1 PUSH1 0x1F ADD PUSH1 0x20 DUP1 SWAP2 DIV MUL PUSH1 0x20 ADD PUSH1 0x40 MLOAD SWAP1 DUP2 ADD PUSH1 0x40 MSTORE DUP1 SWAP4 SWAP3 SWAP2 SWAP1 DUP2 DUP2 MSTORE PUSH1 0x20 ADD DUP4 DUP4 DUP1 DUP3 DUP5 CALLDATACOPY PUSH1 0x0 DUP2 DUP5 ADD MSTORE PUSH1 0x1F NOT PUSH1 0x1F DUP3 ADD AND SWAP1 POP DUP1 DUP4 ADD SWAP3 POP POP POP POP POP POP POP DUP2 MSTORE PUSH1 0x20 ADD DUP6 DUP2 MSTORE PUSH1 0x20 ADD DUP5 DUP2 MSTORE PUSH1 0x20 ADD DUP4 DUP2 MSTORE PUSH1 0x20 ADD DUP3 DUP2 MSTORE POP PUSH1 0x2 PUSH1 0x0 DUP1 SLOAD DUP2 MSTORE PUSH1 0x20 ADD SWAP1 DUP2 MSTORE PUSH1 0x20 ADD PUSH1 0x0 KECCAK256 PUSH1 0x0 DUP3 ADD MLOAD DUP2 PUSH1 0x0 ADD SWAP1 DUP1 MLOAD SWAP1 PUSH1 0x20 ADD SWAP1 PUSH2 0x7C1 SWAP3 SWAP2 SWAP1 PUSH2 0x1411 JUMP JUMPDEST POP PUSH1 0x20 DUP3 ADD MLOAD DUP2 PUSH1 0x1 ADD SWAP1 DUP1 MLOAD SWAP1 PUSH1 0x20 ADD SWAP1 PUSH2 0x7DE SWAP3 SWAP2 SWAP1 PUSH2 0x149B JUMP JUMPDEST POP PUSH1 0x40 DUP3 ADD MLOAD DUP2 PUSH1 0x2 ADD SWAP1 DUP2 PUSH2 0x7F4 SWAP2 SWAP1 PUSH2 0x2494 JUMP JUMPDEST POP PUSH1 0x60 DUP3 ADD MLOAD DUP2 PUSH1 0x3 ADD SWAP1 DUP2 PUSH2 0x80A SWAP2 SWAP1 PUSH2 0x2494 JUMP JUMPDEST POP PUSH1 0x80 DUP3 ADD MLOAD DUP2 PUSH1 0x4 ADD SWAP1 DUP2 PUSH2 0x820 SWAP2 SWAP1 PUSH2 0x2494 JUMP JUMPDEST POP PUSH1 0xA0 DUP3 ADD MLOAD DUP2 PUSH1 0x5 ADD SWAP1 DUP2 PUSH2 0x836 SWAP2 SWAP1 PUSH2 0x2494 JUMP JUMPDEST POP PUSH1 0xC0 DUP3 ADD MLOAD DUP2 PUSH1 0x6 ADD SWAP1 DUP2 PUSH2 0x84C SWAP2 SWAP1 PUSH2 0x2494 JUMP JUMPDEST POP PUSH1 0xE0 DUP3 ADD MLOAD DUP2 PUSH1 0x7 ADD SWAP1 DUP2 PUSH2 0x862 SWAP2 SWAP1 PUSH2 0x2494 JUMP JUMPDEST POP SWAP1 POP POP PUSH1 0x3 PUSH1 0x0 CALLER PUSH20 0xFFFFFFFFFFFFFFFFFFFFFFFFFFFFFFFFFFFFFFFF AND PUSH20 0xFFFFFFFFFFFFFFFFFFFFFFFFFFFFFFFFFFFFFFFF AND DUP2 MSTORE PUSH1 0x20 ADD SWAP1 DUP2 MSTORE PUSH1 0x20 ADD PUSH1 0x0 KECCAK256 PUSH1 0x0 SLOAD SWAP1 DUP1 PUSH1 0x1 DUP2 SLOAD ADD DUP1 DUP3 SSTORE DUP1 SWAP2 POP POP PUSH1 0x1 SWAP1 SUB SWAP1 PUSH1 0x0 MSTORE PUSH1 0x20 PUSH1 0x0 KECCAK256 ADD PUSH1 0x0 SWAP1 SWAP2 SWAP1 SWAP2 SWAP1 SWAP2 POP SSTORE PUSH1 0x0 DUP1 DUP2 SLOAD DUP1 SWAP3 SWAP2 SWAP1 PUSH2 0x8E0 SWAP1 PUSH2 0x2595 JUMP JUMPDEST SWAP2 SWAP1 POP SSTORE POP POP POP POP POP POP POP POP POP POP POP JUMP JUMPDEST PUSH1 0x60 PUSH1 0x3 PUSH1 0x0 CALLER PUSH20 0xFFFFFFFFFFFFFFFFFFFFFFFFFFFFFFFFFFFFFFFF AND PUSH20 0xFFFFFFFFFFFFFFFFFFFFFFFFFFFFFFFFFFFFFFFF AND DUP2 MSTORE PUSH1 0x20 ADD SWAP1 DUP2 MSTORE PUSH1 0x20 ADD PUSH1 0x0 KECCAK256 DUP1 SLOAD DUP1 PUSH1 0x20 MUL PUSH1 0x20 ADD PUSH1 0x40 MLOAD SWAP1 DUP2 ADD PUSH1 0x40 MSTORE DUP1 SWAP3 SWAP2 SWAP1 DUP2 DUP2 MSTORE PUSH1 0x20 ADD DUP3 DUP1 SLOAD DUP1 ISZERO PUSH2 0x97C JUMPI PUSH1 0x20 MUL DUP3 ADD SWAP2 SWAP1 PUSH1 0x0 MSTORE PUSH1 0x20 PUSH1 0x0 KECCAK256 SWAP1 JUMPDEST DUP2 SLOAD DUP2 MSTORE PUSH1 0x20 ADD SWAP1 PUSH1 0x1 ADD SWAP1 DUP1 DUP4 GT PUSH2 0x968 JUMPI JUMPDEST POP POP POP POP POP SWAP1 POP SWAP1 JUMP JUMPDEST PUSH1 0x2 PUSH1 0x20 MSTORE DUP1 PUSH1 0x0 MSTORE PUSH1 0x40 PUSH1 0x0 KECCAK256 PUSH1 0x0 SWAP2 POP SWAP1 POP DUP1 PUSH1 0x2 ADD DUP1 SLOAD PUSH2 0x9A9 SWAP1 PUSH2 0x22B7 JUMP JUMPDEST DUP1 PUSH1 0x1F ADD PUSH1 0x20 DUP1 SWAP2 DIV MUL PUSH1 0x20 ADD PUSH1 0x40 MLOAD SWAP1 DUP2 ADD PUSH1 0x40 MSTORE DUP1 SWAP3 SWAP2 SWAP1 DUP2 DUP2 MSTORE PUSH1 0x20 ADD DUP3 DUP1 SLOAD PUSH2 0x9D5 SWAP1 PUSH2 0x22B7 JUMP JUMPDEST DUP1 ISZERO PUSH2 0xA22 JUMPI DUP1 PUSH1 0x1F LT PUSH2 0x9F7 JUMPI PUSH2 0x100 DUP1 DUP4 SLOAD DIV MUL DUP4 MSTORE SWAP2 PUSH1 0x20 ADD SWAP2 PUSH2 0xA22 JUMP JUMPDEST DUP3 ADD SWAP2 SWAP1 PUSH1 0x0 MSTORE PUSH1 0x20 PUSH1 0x0 KECCAK256 SWAP1 JUMPDEST DUP2 SLOAD DUP2 MSTORE SWAP1 PUSH1 0x1 ADD SWAP1 PUSH1 0x20 ADD DUP1 DUP4 GT PUSH2 0xA05 JUMPI DUP3 SWAP1 SUB PUSH1 0x1F AND DUP3 ADD SWAP2 JUMPDEST POP POP POP POP POP SWAP1 DUP1 PUSH1 0x3 ADD DUP1 SLOAD PUSH2 0xA37 SWAP1 PUSH2 0x22B7 JUMP JUMPDEST DUP1 PUSH1 0x1F ADD PUSH1 0x20 DUP1 SWAP2 DIV MUL PUSH1 0x20 ADD PUSH1 0x40 MLOAD SWAP1 DUP2 ADD PUSH1 0x40 MSTORE DUP1 SWAP3 SWAP2 SWAP1 DUP2 DUP2 MSTORE PUSH1 0x20 ADD DUP3 DUP1 SLOAD PUSH2 0xA63 SWAP1 PUSH2 0x22B7 JUMP JUMPDEST DUP1 ISZERO PUSH2 0xAB0 JUMPI DUP1 PUSH1 0x1F LT PUSH2 0xA85 JUMPI PUSH2 0x100 DUP1 DUP4 SLOAD DIV MUL DUP4 MSTORE SWAP2 PUSH1 0x20 ADD SWAP2 PUSH2 0xAB0 JUMP JUMPDEST DUP3 ADD SWAP2 SWAP1 PUSH1 0x0 MSTORE PUSH1 0x20 PUSH1 0x0 KECCAK256 SWAP1 JUMPDEST DUP2 SLOAD DUP2 MSTORE SWAP1 PUSH1 0x1 ADD SWAP1 PUSH1 0x20 ADD DUP1 DUP4 GT PUSH2 0xA93 JUMPI DUP3 SWAP1 SUB PUSH1 0x1F AND DUP3 ADD SWAP2 JUMPDEST POP POP POP POP POP SWAP1 DUP1 PUSH1 0x4 ADD DUP1 SLOAD PUSH2 0xAC5 SWAP1 PUSH2 0x22B7 JUMP JUMPDEST DUP1 PUSH1 0x1F ADD PUSH1 0x20 DUP1 SWAP2 DIV MUL PUSH1 0x20 ADD PUSH1 0x40 MLOAD SWAP1 DUP2 ADD PUSH1 0x40 MSTORE DUP1 SWAP3 SWAP2 SWAP1 DUP2 DUP2 MSTORE PUSH1 0x20 ADD DUP3 DUP1 SLOAD PUSH2 0xAF1 SWAP1 PUSH2 0x22B7 JUMP JUMPDEST DUP1 ISZERO PUSH2 0xB3E JUMPI DUP1 PUSH1 0x1F LT PUSH2 0xB13 JUMPI PUSH2 0x100 DUP1 DUP4 SLOAD DIV MUL DUP4 MSTORE SWAP2 PUSH1 0x20 ADD SWAP2 PUSH2 0xB3E JUMP JUMPDEST DUP3 ADD SWAP2 SWAP1 PUSH1 0x0 MSTORE PUSH1 0x20 PUSH1 0x0 KECCAK256 SWAP1 JUMPDEST DUP2 SLOAD DUP2 MSTORE SWAP1 PUSH1 0x1 ADD SWAP1 PUSH1 0x20 ADD DUP1 DUP4 GT PUSH2 0xB21 JUMPI DUP3 SWAP1 SUB PUSH1 0x1F AND DUP3 ADD SWAP2 JUMPDEST POP POP POP POP POP SWAP1 DUP1 PUSH1 0x5 ADD DUP1 SLOAD PUSH2 0xB53 SWAP1 PUSH2 0x22B7 JUMP JUMPDEST DUP1 PUSH1 0x1F ADD PUSH1 0x20 DUP1 SWAP2 DIV MUL PUSH1 0x20 ADD PUSH1 0x40 MLOAD SWAP1 DUP2 ADD PUSH1 0x40 MSTORE DUP1 SWAP3 SWAP2 SWAP1 DUP2 DUP2 MSTORE PUSH1 0x20 ADD DUP3 DUP1 SLOAD PUSH2 0xB7F SWAP1 PUSH2 0x22B7 JUMP JUMPDEST DUP1 ISZERO PUSH2 0xBCC JUMPI DUP1 PUSH1 0x1F LT PUSH2 0xBA1 JUMPI PUSH2 0x100 DUP1 DUP4 SLOAD DIV MUL DUP4 MSTORE SWAP2 PUSH1 0x20 ADD SWAP2 PUSH2 0xBCC JUMP JUMPDEST DUP3 ADD SWAP2 SWAP1 PUSH1 0x0 MSTORE PUSH1 0x20 PUSH1 0x0 KECCAK256 SWAP1 JUMPDEST DUP2 SLOAD DUP2 MSTORE SWAP1 PUSH1 0x1 ADD SWAP1 PUSH1 0x20 ADD DUP1 DUP4 GT PUSH2 0xBAF JUMPI DUP3 SWAP1 SUB PUSH1 0x1F AND DUP3 ADD SWAP2 JUMPDEST POP POP POP POP POP SWAP1 DUP1 PUSH1 0x6 ADD DUP1 SLOAD PUSH2 0xBE1 SWAP1 PUSH2 0x22B7 JUMP JUMPDEST DUP1 PUSH1 0x1F ADD PUSH1 0x20 DUP1 SWAP2 DIV MUL PUSH1 0x20 ADD PUSH1 0x40 MLOAD SWAP1 DUP2 ADD PUSH1 0x40 MSTORE DUP1 SWAP3 SWAP2 SWAP1 DUP2 DUP2 MSTORE PUSH1 0x20 ADD DUP3 DUP1 SLOAD PUSH2 0xC0D SWAP1 PUSH2 0x22B7 JUMP JUMPDEST DUP1 ISZERO PUSH2 0xC5A JUMPI DUP1 PUSH1 0x1F LT PUSH2 0xC2F JUMPI PUSH2 0x100 DUP1 DUP4 SLOAD DIV MUL DUP4 MSTORE SWAP2 PUSH1 0x20 ADD SWAP2 PUSH2 0xC5A JUMP JUMPDEST DUP3 ADD SWAP2 SWAP1 PUSH1 0x0 MSTORE PUSH1 0x20 PUSH1 0x0 KECCAK256 SWAP1 JUMPDEST DUP2 SLOAD DUP2 MSTORE SWAP1 PUSH1 0x1 ADD SWAP1 PUSH1 0x20 ADD DUP1 DUP4 GT PUSH2 0xC3D JUMPI DUP3 SWAP1 SUB PUSH1 0x1F AND DUP3 ADD SWAP2 JUMPDEST POP POP POP POP POP SWAP1 DUP1 PUSH1 0x7 ADD DUP1 SLOAD PUSH2 0xC6F SWAP1 PUSH2 0x22B7 JUMP JUMPDEST DUP1 PUSH1 0x1F ADD PUSH1 0x20 DUP1 SWAP2 DIV MUL PUSH1 0x20 ADD PUSH1 0x40 MLOAD SWAP1 DUP2 ADD PUSH1 0x40 MSTORE DUP1 SWAP3 SWAP2 SWAP1 DUP2 DUP2 MSTORE PUSH1 0x20 ADD DUP3 DUP1 SLOAD PUSH2 0xC9B SWAP1 PUSH2 0x22B7 JUMP JUMPDEST DUP1 ISZERO PUSH2 0xCE8 JUMPI DUP1 PUSH1 0x1F LT PUSH2 0xCBD JUMPI PUSH2 0x100 DUP1 DUP4 SLOAD DIV MUL DUP4 MSTORE SWAP2 PUSH1 0x20 ADD SWAP2 PUSH2 0xCE8 JUMP JUMPDEST DUP3 ADD SWAP2 SWAP1 PUSH1 0x0 MSTORE PUSH1 0x20 PUSH1 0x0 KECCAK256 SWAP1 JUMPDEST DUP2 SLOAD DUP2 MSTORE SWAP1 PUSH1 0x1 ADD SWAP1 PUSH1 0x20 ADD DUP1 DUP4 GT PUSH2 0xCCB JUMPI DUP3 SWAP1 SUB PUSH1 0x1F AND DUP3 ADD SWAP2 JUMPDEST POP POP POP POP POP SWAP1 POP DUP7 JUMP JUMPDEST PUSH1 0x2 PUSH1 0x0 DUP3 DUP2 MSTORE PUSH1 0x20 ADD SWAP1 DUP2 MSTORE PUSH1 0x20 ADD PUSH1 0x0 KECCAK256 PUSH1 0x0 DUP1 DUP3 ADD PUSH1 0x0 PUSH2 0xD16 SWAP2 SWAP1 PUSH2 0x14F4 JUMP JUMPDEST PUSH1 0x1 DUP3 ADD PUSH1 0x0 PUSH2 0xD26 SWAP2 SWAP1 PUSH2 0x1515 JUMP JUMPDEST PUSH1 0x2 DUP3 ADD PUSH1 0x0 PUSH2 0xD36 SWAP2 SWAP1 PUSH2 0x1536 JUMP JUMPDEST PUSH1 0x3 DUP3 ADD PUSH1 0x0 PUSH2 0xD46 SWAP2 SWAP1 PUSH2 0x1536 JUMP JUMPDEST PUSH1 0x4 DUP3 ADD PUSH1 0x0 PUSH2 0xD56 SWAP2 SWAP1 PUSH2 0x1536 JUMP JUMPDEST PUSH1 0x5 DUP3 ADD PUSH1 0x0 PUSH2 0xD66 SWAP2 SWAP1 PUSH2 0x1536 JUMP JUMPDEST PUSH1 0x6 DUP3 ADD PUSH1 0x0 PUSH2 0xD76 SWAP2 SWAP1 PUSH2 0x1536 JUMP JUMPDEST PUSH1 0x7 DUP3 ADD PUSH1 0x0 PUSH2 0xD86 SWAP2 SWAP1 PUSH2 0x1536 JUMP JUMPDEST POP POP POP JUMP JUMPDEST PUSH1 0x60 PUSH1 0x0 PUSH1 0x3 PUSH1 0x0 DUP5 PUSH20 0xFFFFFFFFFFFFFFFFFFFFFFFFFFFFFFFFFFFFFFFF AND PUSH20 0xFFFFFFFFFFFFFFFFFFFFFFFFFFFFFFFFFFFFFFFF AND DUP2 MSTORE PUSH1 0x20 ADD SWAP1 DUP2 MSTORE PUSH1 0x20 ADD PUSH1 0x0 KECCAK256 DUP1 SLOAD DUP1 PUSH1 0x20 MUL PUSH1 0x20 ADD PUSH1 0x40 MLOAD SWAP1 DUP2 ADD PUSH1 0x40 MSTORE DUP1 SWAP3 SWAP2 SWAP1 DUP2 DUP2 MSTORE PUSH1 0x20 ADD DUP3 DUP1 SLOAD DUP1 ISZERO PUSH2 0xE18 JUMPI PUSH1 0x20 MUL DUP3 ADD SWAP2 SWAP1 PUSH1 0x0 MSTORE PUSH1 0x20 PUSH1 0x0 KECCAK256 SWAP1 JUMPDEST DUP2 SLOAD DUP2 MSTORE PUSH1 0x20 ADD SWAP1 PUSH1 0x1 ADD SWAP1 DUP1 DUP4 GT PUSH2 0xE04 JUMPI JUMPDEST POP POP POP POP POP SWAP1 POP PUSH1 0x0 DUP2 MLOAD PUSH8 0xFFFFFFFFFFFFFFFF DUP2 GT ISZERO PUSH2 0xE3C JUMPI PUSH2 0xE3B PUSH2 0x1A0E JUMP JUMPDEST JUMPDEST PUSH1 0x40 MLOAD SWAP1 DUP1 DUP3 MSTORE DUP1 PUSH1 0x20 MUL PUSH1 0x20 ADD DUP3 ADD PUSH1 0x40 MSTORE DUP1 ISZERO PUSH2 0xE75 JUMPI DUP2 PUSH1 0x20 ADD JUMPDEST PUSH2 0xE62 PUSH2 0x13CC JUMP JUMPDEST DUP2 MSTORE PUSH1 0x20 ADD SWAP1 PUSH1 0x1 SWAP1 SUB SWAP1 DUP2 PUSH2 0xE5A JUMPI SWAP1 POP JUMPDEST POP SWAP1 POP PUSH1 0x0 JUMPDEST DUP3 MLOAD DUP2 LT ISZERO PUSH2 0x13C1 JUMPI PUSH1 0x2 PUSH1 0x0 DUP5 DUP4 DUP2 MLOAD DUP2 LT PUSH2 0xE9B JUMPI PUSH2 0xE9A PUSH2 0x25DD JUMP JUMPDEST JUMPDEST PUSH1 0x20 MUL PUSH1 0x20 ADD ADD MLOAD DUP2 MSTORE PUSH1 0x20 ADD SWAP1 DUP2 MSTORE PUSH1 0x20 ADD PUSH1 0x0 KECCAK256 PUSH1 0x40 MLOAD DUP1 PUSH2 0x100 ADD PUSH1 0x40 MSTORE SWAP1 DUP2 PUSH1 0x0 DUP3 ADD DUP1 SLOAD DUP1 PUSH1 0x20 MUL PUSH1 0x20 ADD PUSH1 0x40 MLOAD SWAP1 DUP2 ADD PUSH1 0x40 MSTORE DUP1 SWAP3 SWAP2 SWAP1 DUP2 DUP2 MSTORE PUSH1 0x20 ADD DUP3 DUP1 SLOAD DUP1 ISZERO PUSH2 0xF42 JUMPI PUSH1 0x20 MUL DUP3 ADD SWAP2 SWAP1 PUSH1 0x0 MSTORE PUSH1 0x20 PUSH1 0x0 KECCAK256 SWAP1 JUMPDEST DUP2 PUSH1 0x0 SWAP1 SLOAD SWAP1 PUSH2 0x100 EXP SWAP1 DIV PUSH20 0xFFFFFFFFFFFFFFFFFFFFFFFFFFFFFFFFFFFFFFFF AND PUSH20 0xFFFFFFFFFFFFFFFFFFFFFFFFFFFFFFFFFFFFFFFF AND DUP2 MSTORE PUSH1 0x20 ADD SWAP1 PUSH1 0x1 ADD SWAP1 DUP1 DUP4 GT PUSH2 0xEF8 JUMPI JUMPDEST POP POP POP POP POP DUP2 MSTORE PUSH1 0x20 ADD PUSH1 0x1 DUP3 ADD DUP1 SLOAD DUP1 PUSH1 0x20 MUL PUSH1 0x20 ADD PUSH1 0x40 MLOAD SWAP1 DUP2 ADD PUSH1 0x40 MSTORE DUP1 SWAP3 SWAP2 SWAP1 DUP2 DUP2 MSTORE PUSH1 0x20 ADD PUSH1 0x0 SWAP1 JUMPDEST DUP3 DUP3 LT ISZERO PUSH2 0x101C JUMPI DUP4 DUP3 SWAP1 PUSH1 0x0 MSTORE PUSH1 0x20 PUSH1 0x0 KECCAK256 ADD DUP1 SLOAD PUSH2 0xF8F SWAP1 PUSH2 0x22B7 JUMP JUMPDEST DUP1 PUSH1 0x1F ADD PUSH1 0x20 DUP1 SWAP2 DIV MUL PUSH1 0x20 ADD PUSH1 0x40 MLOAD SWAP1 DUP2 ADD PUSH1 0x40 MSTORE DUP1 SWAP3 SWAP2 SWAP1 DUP2 DUP2 MSTORE PUSH1 0x20 ADD DUP3 DUP1 SLOAD PUSH2 0xFBB SWAP1 PUSH2 0x22B7 JUMP JUMPDEST DUP1 ISZERO PUSH2 0x1008 JUMPI DUP1 PUSH1 0x1F LT PUSH2 0xFDD JUMPI PUSH2 0x100 DUP1 DUP4 SLOAD DIV MUL DUP4 MSTORE SWAP2 PUSH1 0x20 ADD SWAP2 PUSH2 0x1008 JUMP JUMPDEST DUP3 ADD SWAP2 SWAP1 PUSH1 0x0 MSTORE PUSH1 0x20 PUSH1 0x0 KECCAK256 SWAP1 JUMPDEST DUP2 SLOAD DUP2 MSTORE SWAP1 PUSH1 0x1 ADD SWAP1 PUSH1 0x20 ADD DUP1 DUP4 GT PUSH2 0xFEB JUMPI DUP3 SWAP1 SUB PUSH1 0x1F AND DUP3 ADD SWAP2 JUMPDEST POP POP POP POP POP DUP2 MSTORE PUSH1 0x20 ADD SWAP1 PUSH1 0x1 ADD SWAP1 PUSH2 0xF70 JUMP JUMPDEST POP POP POP POP DUP2 MSTORE PUSH1 0x20 ADD PUSH1 0x2 DUP3 ADD DUP1 SLOAD PUSH2 0x1034 SWAP1 PUSH2 0x22B7 JUMP JUMPDEST DUP1 PUSH1 0x1F ADD PUSH1 0x20 DUP1 SWAP2 DIV MUL PUSH1 0x20 ADD PUSH1 0x40 MLOAD SWAP1 DUP2 ADD PUSH1 0x40 MSTORE DUP1 SWAP3 SWAP2 SWAP1 DUP2 DUP2 MSTORE PUSH1 0x20 ADD DUP3 DUP1 SLOAD PUSH2 0x1060 SWAP1 PUSH2 0x22B7 JUMP JUMPDEST DUP1 ISZERO PUSH2 0x10AD JUMPI DUP1 PUSH1 0x1F LT PUSH2 0x1082 JUMPI PUSH2 0x100 DUP1 DUP4 SLOAD DIV MUL DUP4 MSTORE SWAP2 PUSH1 0x20 ADD SWAP2 PUSH2 0x10AD JUMP JUMPDEST DUP3 ADD SWAP2 SWAP1 PUSH1 0x0 MSTORE PUSH1 0x20 PUSH1 0x0 KECCAK256 SWAP1 JUMPDEST DUP2 SLOAD DUP2 MSTORE SWAP1 PUSH1 0x1 ADD SWAP1 PUSH1 0x20 ADD DUP1 DUP4 GT PUSH2 0x1090 JUMPI DUP3 SWAP1 SUB PUSH1 0x1F AND DUP3 ADD SWAP2 JUMPDEST POP POP POP POP POP DUP2 MSTORE PUSH1 0x20 ADD PUSH1 0x3 DUP3 ADD DUP1 SLOAD PUSH2 0x10C6 SWAP1 PUSH2 0x22B7 JUMP JUMPDEST DUP1 PUSH1 0x1F ADD PUSH1 0x20 DUP1 SWAP2 DIV MUL PUSH1 0x20 ADD PUSH1 0x40 MLOAD SWAP1 DUP2 ADD PUSH1 0x40 MSTORE DUP1 SWAP3 SWAP2 SWAP1 DUP2 DUP2 MSTORE PUSH1 0x20 ADD DUP3 DUP1 SLOAD PUSH2 0x10F2 SWAP1 PUSH2 0x22B7 JUMP JUMPDEST DUP1 ISZERO PUSH2 0x113F JUMPI DUP1 PUSH1 0x1F LT PUSH2 0x1114 JUMPI PUSH2 0x100 DUP1 DUP4 SLOAD DIV MUL DUP4 MSTORE SWAP2 PUSH1 0x20 ADD SWAP2 PUSH2 0x113F JUMP JUMPDEST DUP3 ADD SWAP2 SWAP1 PUSH1 0x0 MSTORE PUSH1 0x20 PUSH1 0x0 KECCAK256 SWAP1 JUMPDEST DUP2 SLOAD DUP2 MSTORE SWAP1 PUSH1 0x1 ADD SWAP1 PUSH1 0x20 ADD DUP1 DUP4 GT PUSH2 0x1122 JUMPI DUP3 SWAP1 SUB PUSH1 0x1F AND DUP3 ADD SWAP2 JUMPDEST POP POP POP POP POP DUP2 MSTORE PUSH1 0x20 ADD PUSH1 0x4 DUP3 ADD DUP1 SLOAD PUSH2 0x1158 SWAP1 PUSH2 0x22B7 JUMP JUMPDEST DUP1 PUSH1 0x1F ADD PUSH1 0x20 DUP1 SWAP2 DIV MUL PUSH1 0x20 ADD PUSH1 0x40 MLOAD SWAP1 DUP2 ADD PUSH1 0x40 MSTORE DUP1 SWAP3 SWAP2 SWAP1 DUP2 DUP2 MSTORE PUSH1 0x20 ADD DUP3 DUP1 SLOAD PUSH2 0x1184 SWAP1 PUSH2 0x22B7 JUMP JUMPDEST DUP1 ISZERO PUSH2 0x11D1 JUMPI DUP1 PUSH1 0x1F LT PUSH2 0x11A6 JUMPI PUSH2 0x100 DUP1 DUP4 SLOAD DIV MUL DUP4 MSTORE SWAP2 PUSH1 0x20 ADD SWAP2 PUSH2 0x11D1 JUMP JUMPDEST DUP3 ADD SWAP2 SWAP1 PUSH1 0x0 MSTORE PUSH1 0x20 PUSH1 0x0 KECCAK256 SWAP1 JUMPDEST DUP2 SLOAD DUP2 MSTORE SWAP1 PUSH1 0x1 ADD SWAP1 PUSH1 0x20 ADD DUP1 DUP4 GT PUSH2 0x11B4 JUMPI DUP3 SWAP1 SUB PUSH1 0x1F AND DUP3 ADD SWAP2 JUMPDEST POP POP POP POP POP DUP2 MSTORE PUSH1 0x20 ADD PUSH1 0x5 DUP3 ADD DUP1 SLOAD PUSH2 0x11EA SWAP1 PUSH2 0x22B7 JUMP JUMPDEST DUP1 PUSH1 0x1F ADD PUSH1 0x20 DUP1 SWAP2 DIV MUL PUSH1 0x20 ADD PUSH1 0x40 MLOAD SWAP1 DUP2 ADD PUSH1 0x40 MSTORE DUP1 SWAP3 SWAP2 SWAP1 DUP2 DUP2 MSTORE PUSH1 0x20 ADD DUP3 DUP1 SLOAD PUSH2 0x1216 SWAP1 PUSH2 0x22B7 JUMP JUMPDEST DUP1 ISZERO PUSH2 0x1263 JUMPI DUP1 PUSH1 0x1F LT PUSH2 0x1238 JUMPI PUSH2 0x100 DUP1 DUP4 SLOAD DIV MUL DUP4 MSTORE SWAP2 PUSH1 0x20 ADD SWAP2 PUSH2 0x1263 JUMP JUMPDEST DUP3 ADD SWAP2 SWAP1 PUSH1 0x0 MSTORE PUSH1 0x20 PUSH1 0x0 KECCAK256 SWAP1 JUMPDEST DUP2 SLOAD DUP2 MSTORE SWAP1 PUSH1 0x1 ADD SWAP1 PUSH1 0x20 ADD DUP1 DUP4 GT PUSH2 0x1246 JUMPI DUP3 SWAP1 SUB PUSH1 0x1F AND DUP3 ADD SWAP2 JUMPDEST POP POP POP POP POP DUP2 MSTORE PUSH1 0x20 ADD PUSH1 0x6 DUP3 ADD DUP1 SLOAD PUSH2 0x127C SWAP1 PUSH2 0x22B7 JUMP JUMPDEST DUP1 PUSH1 0x1F ADD PUSH1 0x20 DUP1 SWAP2 DIV MUL PUSH1 0x20 ADD PUSH1 0x40 MLOAD SWAP1 DUP2 ADD PUSH1 0x40 MSTORE DUP1 SWAP3 SWAP2 SWAP1 DUP2 DUP2 MSTORE PUSH1 0x20 ADD DUP3 DUP1 SLOAD PUSH2 0x12A8 SWAP1 PUSH2 0x22B7 JUMP JUMPDEST DUP1 ISZERO PUSH2 0x12F5 JUMPI DUP1 PUSH1 0x1F LT PUSH2 0x12CA JUMPI PUSH2 0x100 DUP1 DUP4 SLOAD DIV MUL DUP4 MSTORE SWAP2 PUSH1 0x20 ADD SWAP2 PUSH2 0x12F5 JUMP JUMPDEST DUP3 ADD SWAP2 SWAP1 PUSH1 0x0 MSTORE PUSH1 0x20 PUSH1 0x0 KECCAK256 SWAP1 JUMPDEST DUP2 SLOAD DUP2 MSTORE SWAP1 PUSH1 0x1 ADD SWAP1 PUSH1 0x20 ADD DUP1 DUP4 GT PUSH2 0x12D8 JUMPI DUP3 SWAP1 SUB PUSH1 0x1F AND DUP3 ADD SWAP2 JUMPDEST POP POP POP POP POP DUP2 MSTORE PUSH1 0x20 ADD PUSH1 0x7 DUP3 ADD DUP1 SLOAD PUSH2 0x130E SWAP1 PUSH2 0x22B7 JUMP JUMPDEST DUP1 PUSH1 0x1F ADD PUSH1 0x20 DUP1 SWAP2 DIV MUL PUSH1 0x20 ADD PUSH1 0x40 MLOAD SWAP1 DUP2 ADD PUSH1 0x40 MSTORE DUP1 SWAP3 SWAP2 SWAP1 DUP2 DUP2 MSTORE PUSH1 0x20 ADD DUP3 DUP1 SLOAD PUSH2 0x133A SWAP1 PUSH2 0x22B7 JUMP JUMPDEST DUP1 ISZERO PUSH2 0x1387 JUMPI DUP1 PUSH1 0x1F LT PUSH2 0x135C JUMPI PUSH2 0x100 DUP1 DUP4 SLOAD DIV MUL DUP4 MSTORE SWAP2 PUSH1 0x20 ADD SWAP2 PUSH2 0x1387 JUMP JUMPDEST DUP3 ADD SWAP2 SWAP1 PUSH1 0x0 MSTORE PUSH1 0x20 PUSH1 0x0 KECCAK256 SWAP1 JUMPDEST DUP2 SLOAD DUP2 MSTORE SWAP1 PUSH1 0x1 ADD SWAP1 PUSH1 0x20 ADD DUP1 DUP4 GT PUSH2 0x136A JUMPI DUP3 SWAP1 SUB PUSH1 0x1F AND DUP3 ADD SWAP2 JUMPDEST POP POP POP POP POP DUP2 MSTORE POP POP DUP3 DUP3 DUP2 MLOAD DUP2 LT PUSH2 0x13A3 JUMPI PUSH2 0x13A2 PUSH2 0x25DD JUMP JUMPDEST JUMPDEST PUSH1 0x20 MUL PUSH1 0x20 ADD ADD DUP2 SWAP1 MSTORE POP DUP1 DUP1 PUSH2 0x13B9 SWAP1 PUSH2 0x2595 JUMP JUMPDEST SWAP2 POP POP PUSH2 0xE7B JUMP JUMPDEST POP DUP1 SWAP3 POP POP POP SWAP2 SWAP1 POP JUMP JUMPDEST PUSH1 0x40 MLOAD DUP1 PUSH2 0x100 ADD PUSH1 0x40 MSTORE DUP1 PUSH1 0x60 DUP2 MSTORE PUSH1 0x20 ADD PUSH1 0x60 DUP2 MSTORE PUSH1 0x20 ADD PUSH1 0x60 DUP2 MSTORE PUSH1 0x20 ADD PUSH1 0x60 DUP2 MSTORE PUSH1 0x20 ADD PUSH1 0x60 DUP2 MSTORE PUSH1 0x20 ADD PUSH1 0x60 DUP2 MSTORE PUSH1 0x20 ADD PUSH1 0x60 DUP2 MSTORE PUSH1 0x20 ADD PUSH1 0x60 DUP2 MSTORE POP SWAP1 JUMP JUMPDEST DUP3 DUP1 SLOAD DUP3 DUP3 SSTORE SWAP1 PUSH1 0x0 MSTORE PUSH1 0x20 PUSH1 0x0 KECCAK256 SWAP1 DUP2 ADD SWAP3 DUP3 ISZERO PUSH2 0x148A JUMPI SWAP2 PUSH1 0x20 MUL DUP3 ADD JUMPDEST DUP3 DUP2 GT ISZERO PUSH2 0x1489 JUMPI DUP3 MLOAD DUP3 PUSH1 0x0 PUSH2 0x100 EXP DUP2 SLOAD DUP2 PUSH20 0xFFFFFFFFFFFFFFFFFFFFFFFFFFFFFFFFFFFFFFFF MUL NOT AND SWAP1 DUP4 PUSH20 0xFFFFFFFFFFFFFFFFFFFFFFFFFFFFFFFFFFFFFFFF AND MUL OR SWAP1 SSTORE POP SWAP2 PUSH1 0x20 ADD SWAP2 SWAP1 PUSH1 0x1 ADD SWAP1 PUSH2 0x1431 JUMP JUMPDEST JUMPDEST POP SWAP1 POP PUSH2 0x1497 SWAP2 SWAP1 PUSH2 0x1576 JUMP JUMPDEST POP SWAP1 JUMP JUMPDEST DUP3 DUP1 SLOAD DUP3 DUP3 SSTORE SWAP1 PUSH1 0x0 MSTORE PUSH1 0x20 PUSH1 0x0 KECCAK256 SWAP1 DUP2 ADD SWAP3 DUP3 ISZERO PUSH2 0x14E3 JUMPI SWAP2 PUSH1 0x20 MUL DUP3 ADD JUMPDEST DUP3 DUP2 GT ISZERO PUSH2 0x14E2 JUMPI DUP3 MLOAD DUP3 SWAP1 DUP2 PUSH2 0x14D2 SWAP2 SWAP1 PUSH2 0x2494 JUMP JUMPDEST POP SWAP2 PUSH1 0x20 ADD SWAP2 SWAP1 PUSH1 0x1 ADD SWAP1 PUSH2 0x14BB JUMP JUMPDEST JUMPDEST POP SWAP1 POP PUSH2 0x14F0 SWAP2 SWAP1 PUSH2 0x1593 JUMP JUMPDEST POP SWAP1 JUMP JUMPDEST POP DUP1 SLOAD PUSH1 0x0 DUP3 SSTORE SWAP1 PUSH1 0x0 MSTORE PUSH1 0x20 PUSH1 0x0 KECCAK256 SWAP1 DUP2 ADD SWAP1 PUSH2 0x1512 SWAP2 SWAP1 PUSH2 0x1576 JUMP JUMPDEST POP JUMP JUMPDEST POP DUP1 SLOAD PUSH1 0x0 DUP3 SSTORE SWAP1 PUSH1 0x0 MSTORE PUSH1 0x20 PUSH1 0x0 KECCAK256 SWAP1 DUP2 ADD SWAP1 PUSH2 0x1533 SWAP2 SWAP1 PUSH2 0x1593 JUMP JUMPDEST POP JUMP JUMPDEST POP DUP1 SLOAD PUSH2 0x1542 SWAP1 PUSH2 0x22B7 JUMP JUMPDEST PUSH1 0x0 DUP3 SSTORE DUP1 PUSH1 0x1F LT PUSH2 0x1554 JUMPI POP PUSH2 0x1573 JUMP JUMPDEST PUSH1 0x1F ADD PUSH1 0x20 SWAP1 DIV SWAP1 PUSH1 0x0 MSTORE PUSH1 0x20 PUSH1 0x0 KECCAK256 SWAP1 DUP2 ADD SWAP1 PUSH2 0x1572 SWAP2 SWAP1 PUSH2 0x1576 JUMP JUMPDEST JUMPDEST POP JUMP JUMPDEST JUMPDEST DUP1 DUP3 GT ISZERO PUSH2 0x158F JUMPI PUSH1 0x0 DUP2 PUSH1 0x0 SWAP1 SSTORE POP PUSH1 0x1 ADD PUSH2 0x1577 JUMP JUMPDEST POP SWAP1 JUMP JUMPDEST JUMPDEST DUP1 DUP3 GT ISZERO PUSH2 0x15B3 JUMPI PUSH1 0x0 DUP2 DUP2 PUSH2 0x15AA SWAP2 SWAP1 PUSH2 0x1536 JUMP JUMPDEST POP PUSH1 0x1 ADD PUSH2 0x1594 JUMP JUMPDEST POP SWAP1 JUMP JUMPDEST PUSH1 0x0 PUSH1 0x40 MLOAD SWAP1 POP SWAP1 JUMP JUMPDEST PUSH1 0x0 DUP1 REVERT JUMPDEST PUSH1 0x0 DUP1 REVERT JUMPDEST PUSH1 0x0 PUSH20 0xFFFFFFFFFFFFFFFFFFFFFFFFFFFFFFFFFFFFFFFF DUP3 AND SWAP1 POP SWAP2 SWAP1 POP JUMP JUMPDEST PUSH1 0x0 PUSH2 0x15F6 DUP3 PUSH2 0x15CB JUMP JUMPDEST SWAP1 POP SWAP2 SWAP1 POP JUMP JUMPDEST PUSH2 0x1606 DUP2 PUSH2 0x15EB JUMP JUMPDEST DUP2 EQ PUSH2 0x1611 JUMPI PUSH1 0x0 DUP1 REVERT JUMPDEST POP JUMP JUMPDEST PUSH1 0x0 DUP2 CALLDATALOAD SWAP1 POP PUSH2 0x1623 DUP2 PUSH2 0x15FD JUMP JUMPDEST SWAP3 SWAP2 POP POP JUMP JUMPDEST PUSH1 0x0 DUP2 SWAP1 POP SWAP2 SWAP1 POP JUMP JUMPDEST PUSH2 0x163C DUP2 PUSH2 0x1629 JUMP JUMPDEST DUP2 EQ PUSH2 0x1647 JUMPI PUSH1 0x0 DUP1 REVERT JUMPDEST POP JUMP JUMPDEST PUSH1 0x0 DUP2 CALLDATALOAD SWAP1 POP PUSH2 0x1659 DUP2 PUSH2 0x1633 JUMP JUMPDEST SWAP3 SWAP2 POP POP JUMP JUMPDEST PUSH1 0x0 DUP1 PUSH1 0x40 DUP4 DUP6 SUB SLT ISZERO PUSH2 0x1676 JUMPI PUSH2 0x1675 PUSH2 0x15C1 JUMP JUMPDEST JUMPDEST PUSH1 0x0 PUSH2 0x1684 DUP6 DUP3 DUP7 ADD PUSH2 0x1614 JUMP JUMPDEST SWAP3 POP POP PUSH1 0x20 PUSH2 0x1695 DUP6 DUP3 DUP7 ADD PUSH2 0x164A JUMP JUMPDEST SWAP2 POP POP SWAP3 POP SWAP3 SWAP1 POP JUMP JUMPDEST PUSH2 0x16A8 DUP2 PUSH2 0x1629 JUMP JUMPDEST DUP3 MSTORE POP POP JUMP JUMPDEST PUSH1 0x0 PUSH1 0x20 DUP3 ADD SWAP1 POP PUSH2 0x16C3 PUSH1 0x0 DUP4 ADD DUP5 PUSH2 0x169F JUMP JUMPDEST SWAP3 SWAP2 POP POP JUMP JUMPDEST PUSH1 0x0 PUSH1 0x20 DUP3 DUP5 SUB SLT ISZERO PUSH2 0x16DF JUMPI PUSH2 0x16DE PUSH2 0x15C1 JUMP JUMPDEST JUMPDEST PUSH1 0x0 PUSH2 0x16ED DUP5 DUP3 DUP6 ADD PUSH2 0x164A JUMP JUMPDEST SWAP2 POP POP SWAP3 SWAP2 POP POP JUMP JUMPDEST PUSH1 0x0 DUP2 MLOAD SWAP1 POP SWAP2 SWAP1 POP JUMP JUMPDEST PUSH1 0x0 DUP3 DUP3 MSTORE PUSH1 0x20 DUP3 ADD SWAP1 POP SWAP3 SWAP2 POP POP JUMP JUMPDEST PUSH1 0x0 DUP2 SWAP1 POP PUSH1 0x20 DUP3 ADD SWAP1 POP SWAP2 SWAP1 POP JUMP JUMPDEST PUSH2 0x172B DUP2 PUSH2 0x15EB JUMP JUMPDEST DUP3 MSTORE POP POP JUMP JUMPDEST PUSH1 0x0 PUSH2 0x173D DUP4 DUP4 PUSH2 0x1722 JUMP JUMPDEST PUSH1 0x20 DUP4 ADD SWAP1 POP SWAP3 SWAP2 POP POP JUMP JUMPDEST PUSH1 0x0 PUSH1 0x20 DUP3 ADD SWAP1 POP SWAP2 SWAP1 POP JUMP JUMPDEST PUSH1 0x0 PUSH2 0x1761 DUP3 PUSH2 0x16F6 JUMP JUMPDEST PUSH2 0x176B DUP2 DUP6 PUSH2 0x1701 JUMP JUMPDEST SWAP4 POP PUSH2 0x1776 DUP4 PUSH2 0x1712 JUMP JUMPDEST DUP1 PUSH1 0x0 JUMPDEST DUP4 DUP2 LT ISZERO PUSH2 0x17A7 JUMPI DUP2 MLOAD PUSH2 0x178E DUP9 DUP3 PUSH2 0x1731 JUMP JUMPDEST SWAP8 POP PUSH2 0x1799 DUP4 PUSH2 0x1749 JUMP JUMPDEST SWAP3 POP POP PUSH1 0x1 DUP2 ADD SWAP1 POP PUSH2 0x177A JUMP JUMPDEST POP DUP6 SWAP4 POP POP POP POP SWAP3 SWAP2 POP POP JUMP JUMPDEST PUSH1 0x0 DUP2 MLOAD SWAP1 POP SWAP2 SWAP1 POP JUMP JUMPDEST PUSH1 0x0 DUP3 DUP3 MSTORE PUSH1 0x20 DUP3 ADD SWAP1 POP SWAP3 SWAP2 POP POP JUMP JUMPDEST PUSH1 0x0 DUP2 SWAP1 POP PUSH1 0x20 DUP3 ADD SWAP1 POP SWAP2 SWAP1 POP JUMP JUMPDEST PUSH1 0x0 DUP2 MLOAD SWAP1 POP SWAP2 SWAP1 POP JUMP JUMPDEST PUSH1 0x0 DUP3 DUP3 MSTORE PUSH1 0x20 DUP3 ADD SWAP1 POP SWAP3 SWAP2 POP POP JUMP JUMPDEST PUSH1 0x0 JUMPDEST DUP4 DUP2 LT ISZERO PUSH2 0x181A JUMPI DUP1 DUP3 ADD MLOAD DUP2 DUP5 ADD MSTORE PUSH1 0x20 DUP2 ADD SWAP1 POP PUSH2 0x17FF JUMP JUMPDEST PUSH1 0x0 DUP5 DUP5 ADD MSTORE POP POP POP POP JUMP JUMPDEST PUSH1 0x0 PUSH1 0x1F NOT PUSH1 0x1F DUP4 ADD AND SWAP1 POP SWAP2 SWAP1 POP JUMP JUMPDEST PUSH1 0x0 PUSH2 0x1842 DUP3 PUSH2 0x17E0 JUMP JUMPDEST PUSH2 0x184C DUP2 DUP6 PUSH2 0x17EB JUMP JUMPDEST SWAP4 POP PUSH2 0x185C DUP2 DUP6 PUSH1 0x20 DUP7 ADD PUSH2 0x17FC JUMP JUMPDEST PUSH2 0x1865 DUP2 PUSH2 0x1826 JUMP JUMPDEST DUP5 ADD SWAP2 POP POP SWAP3 SWAP2 POP POP JUMP JUMPDEST PUSH1 0x0 PUSH2 0x187C DUP4 DUP4 PUSH2 0x1837 JUMP JUMPDEST SWAP1 POP SWAP3 SWAP2 POP POP JUMP JUMPDEST PUSH1 0x0 PUSH1 0x20 DUP3 ADD SWAP1 POP SWAP2 SWAP1 POP JUMP JUMPDEST PUSH1 0x0 PUSH2 0x189C DUP3 PUSH2 0x17B4 JUMP JUMPDEST PUSH2 0x18A6 DUP2 DUP6 PUSH2 0x17BF JUMP JUMPDEST SWAP4 POP DUP4 PUSH1 0x20 DUP3 MUL DUP6 ADD PUSH2 0x18B8 DUP6 PUSH2 0x17D0 JUMP JUMPDEST DUP1 PUSH1 0x0 JUMPDEST DUP6 DUP2 LT ISZERO PUSH2 0x18F4 JUMPI DUP5 DUP5 SUB DUP10 MSTORE DUP2 MLOAD PUSH2 0x18D5 DUP6 DUP3 PUSH2 0x1870 JUMP JUMPDEST SWAP5 POP PUSH2 0x18E0 DUP4 PUSH2 0x1884 JUMP JUMPDEST SWAP3 POP PUSH1 0x20 DUP11 ADD SWAP10 POP POP PUSH1 0x1 DUP2 ADD SWAP1 POP PUSH2 0x18BC JUMP JUMPDEST POP DUP3 SWAP8 POP DUP8 SWAP6 POP POP POP POP POP POP SWAP3 SWAP2 POP POP JUMP JUMPDEST PUSH1 0x0 PUSH2 0x100 DUP4 ADD PUSH1 0x0 DUP4 ADD MLOAD DUP5 DUP3 SUB PUSH1 0x0 DUP7 ADD MSTORE PUSH2 0x1924 DUP3 DUP3 PUSH2 0x1756 JUMP JUMPDEST SWAP2 POP POP PUSH1 0x20 DUP4 ADD MLOAD DUP5 DUP3 SUB PUSH1 0x20 DUP7 ADD MSTORE PUSH2 0x193E DUP3 DUP3 PUSH2 0x1891 JUMP JUMPDEST SWAP2 POP POP PUSH1 0x40 DUP4 ADD MLOAD DUP5 DUP3 SUB PUSH1 0x40 DUP7 ADD MSTORE PUSH2 0x1958 DUP3 DUP3 PUSH2 0x1837 JUMP JUMPDEST SWAP2 POP POP PUSH1 0x60 DUP4 ADD MLOAD DUP5 DUP3 SUB PUSH1 0x60 DUP7 ADD MSTORE PUSH2 0x1972 DUP3 DUP3 PUSH2 0x1837 JUMP JUMPDEST SWAP2 POP POP PUSH1 0x80 DUP4 ADD MLOAD DUP5 DUP3 SUB PUSH1 0x80 DUP7 ADD MSTORE PUSH2 0x198C DUP3 DUP3 PUSH2 0x1837 JUMP JUMPDEST SWAP2 POP POP PUSH1 0xA0 DUP4 ADD MLOAD DUP5 DUP3 SUB PUSH1 0xA0 DUP7 ADD MSTORE PUSH2 0x19A6 DUP3 DUP3 PUSH2 0x1837 JUMP JUMPDEST SWAP2 POP POP PUSH1 0xC0 DUP4 ADD MLOAD DUP5 DUP3 SUB PUSH1 0xC0 DUP7 ADD MSTORE PUSH2 0x19C0 DUP3 DUP3 PUSH2 0x1837 JUMP JUMPDEST SWAP2 POP POP PUSH1 0xE0 DUP4 ADD MLOAD DUP5 DUP3 SUB PUSH1 0xE0 DUP7 ADD MSTORE PUSH2 0x19DA DUP3 DUP3 PUSH2 0x1837 JUMP JUMPDEST SWAP2 POP POP DUP1 SWAP2 POP POP SWAP3 SWAP2 POP POP JUMP JUMPDEST PUSH1 0x0 PUSH1 0x20 DUP3 ADD SWAP1 POP DUP2 DUP2 SUB PUSH1 0x0 DUP4 ADD MSTORE PUSH2 0x1A01 DUP2 DUP5 PUSH2 0x1906 JUMP JUMPDEST SWAP1 POP SWAP3 SWAP2 POP POP JUMP JUMPDEST PUSH1 0x0 DUP1 REVERT JUMPDEST PUSH32 0x4E487B7100000000000000000000000000000000000000000000000000000000 PUSH1 0x0 MSTORE PUSH1 0x41 PUSH1 0x4 MSTORE PUSH1 0x24 PUSH1 0x0 REVERT JUMPDEST PUSH2 0x1A46 DUP3 PUSH2 0x1826 JUMP JUMPDEST DUP2 ADD DUP2 DUP2 LT PUSH8 0xFFFFFFFFFFFFFFFF DUP3 GT OR ISZERO PUSH2 0x1A65 JUMPI PUSH2 0x1A64 PUSH2 0x1A0E JUMP JUMPDEST JUMPDEST DUP1 PUSH1 0x40 MSTORE POP POP POP JUMP JUMPDEST PUSH1 0x0 PUSH2 0x1A78 PUSH2 0x15B7 JUMP JUMPDEST SWAP1 POP PUSH2 0x1A84 DUP3 DUP3 PUSH2 0x1A3D JUMP JUMPDEST SWAP2 SWAP1 POP JUMP JUMPDEST PUSH1 0x0 PUSH8 0xFFFFFFFFFFFFFFFF DUP3 GT ISZERO PUSH2 0x1AA4 JUMPI PUSH2 0x1AA3 PUSH2 0x1A0E JUMP JUMPDEST JUMPDEST PUSH1 0x20 DUP3 MUL SWAP1 POP PUSH1 0x20 DUP2 ADD SWAP1 POP SWAP2 SWAP1 POP JUMP JUMPDEST PUSH1 0x0 DUP1 REVERT JUMPDEST PUSH1 0x0 PUSH2 0x1ACD PUSH2 0x1AC8 DUP5 PUSH2 0x1A89 JUMP JUMPDEST PUSH2 0x1A6E JUMP JUMPDEST SWAP1 POP DUP1 DUP4 DUP3 MSTORE PUSH1 0x20 DUP3 ADD SWAP1 POP PUSH1 0x20 DUP5 MUL DUP4 ADD DUP6 DUP2 GT ISZERO PUSH2 0x1AF0 JUMPI PUSH2 0x1AEF PUSH2 0x1AB5 JUMP JUMPDEST JUMPDEST DUP4 JUMPDEST DUP2 DUP2 LT ISZERO PUSH2 0x1B19 JUMPI DUP1 PUSH2 0x1B05 DUP9 DUP3 PUSH2 0x1614 JUMP JUMPDEST DUP5 MSTORE PUSH1 0x20 DUP5 ADD SWAP4 POP POP PUSH1 0x20 DUP2 ADD SWAP1 POP PUSH2 0x1AF2 JUMP JUMPDEST POP POP POP SWAP4 SWAP3 POP POP POP JUMP JUMPDEST PUSH1 0x0 DUP3 PUSH1 0x1F DUP4 ADD SLT PUSH2 0x1B38 JUMPI PUSH2 0x1B37 PUSH2 0x1A09 JUMP JUMPDEST JUMPDEST DUP2 CALLDATALOAD PUSH2 0x1B48 DUP5 DUP3 PUSH1 0x20 DUP7 ADD PUSH2 0x1ABA JUMP JUMPDEST SWAP2 POP POP SWAP3 SWAP2 POP POP JUMP JUMPDEST PUSH1 0x0 PUSH8 0xFFFFFFFFFFFFFFFF DUP3 GT ISZERO PUSH2 0x1B6C JUMPI PUSH2 0x1B6B PUSH2 0x1A0E JUMP JUMPDEST JUMPDEST PUSH1 0x20 DUP3 MUL SWAP1 POP PUSH1 0x20 DUP2 ADD SWAP1 POP SWAP2 SWAP1 POP JUMP JUMPDEST PUSH1 0x0 DUP1 REVERT JUMPDEST PUSH1 0x0 PUSH8 0xFFFFFFFFFFFFFFFF DUP3 GT ISZERO PUSH2 0x1B9D JUMPI PUSH2 0x1B9C PUSH2 0x1A0E JUMP JUMPDEST JUMPDEST PUSH2 0x1BA6 DUP3 PUSH2 0x1826 JUMP JUMPDEST SWAP1 POP PUSH1 0x20 DUP2 ADD SWAP1 POP SWAP2 SWAP1 POP JUMP JUMPDEST DUP3 DUP2 DUP4 CALLDATACOPY PUSH1 0x0 DUP4 DUP4 ADD MSTORE POP POP POP JUMP JUMPDEST PUSH1 0x0 PUSH2 0x1BD5 PUSH2 0x1BD0 DUP5 PUSH2 0x1B82 JUMP JUMPDEST PUSH2 0x1A6E JUMP JUMPDEST SWAP1 POP DUP3 DUP2 MSTORE PUSH1 0x20 DUP2 ADD DUP5 DUP5 DUP5 ADD GT ISZERO PUSH2 0x1BF1 JUMPI PUSH2 0x1BF0 PUSH2 0x1B7D JUMP JUMPDEST JUMPDEST PUSH2 0x1BFC DUP5 DUP3 DUP6 PUSH2 0x1BB3 JUMP JUMPDEST POP SWAP4 SWAP3 POP POP POP JUMP JUMPDEST PUSH1 0x0 DUP3 PUSH1 0x1F DUP4 ADD SLT PUSH2 0x1C19 JUMPI PUSH2 0x1C18 PUSH2 0x1A09 JUMP JUMPDEST JUMPDEST DUP2 CALLDATALOAD PUSH2 0x1C29 DUP5 DUP3 PUSH1 0x20 DUP7 ADD PUSH2 0x1BC2 JUMP JUMPDEST SWAP2 POP POP SWAP3 SWAP2 POP POP JUMP JUMPDEST PUSH1 0x0 PUSH2 0x1C45 PUSH2 0x1C40 DUP5 PUSH2 0x1B51 JUMP JUMPDEST PUSH2 0x1A6E JUMP JUMPDEST SWAP1 POP DUP1 DUP4 DUP3 MSTORE PUSH1 0x20 DUP3 ADD SWAP1 POP PUSH1 0x20 DUP5 MUL DUP4 ADD DUP6 DUP2 GT ISZERO PUSH2 0x1C68 JUMPI PUSH2 0x1C67 PUSH2 0x1AB5 JUMP JUMPDEST JUMPDEST DUP4 JUMPDEST DUP2 DUP2 LT ISZERO PUSH2 0x1CAF JUMPI DUP1 CALLDATALOAD PUSH8 0xFFFFFFFFFFFFFFFF DUP2 GT ISZERO PUSH2 0x1C8D JUMPI PUSH2 0x1C8C PUSH2 0x1A09 JUMP JUMPDEST JUMPDEST DUP1 DUP7 ADD PUSH2 0x1C9A DUP10 DUP3 PUSH2 0x1C04 JUMP JUMPDEST DUP6 MSTORE PUSH1 0x20 DUP6 ADD SWAP5 POP POP POP PUSH1 0x20 DUP2 ADD SWAP1 POP PUSH2 0x1C6A JUMP JUMPDEST POP POP POP SWAP4 SWAP3 POP POP POP JUMP JUMPDEST PUSH1 0x0 DUP3 PUSH1 0x1F DUP4 ADD SLT PUSH2 0x1CCE JUMPI PUSH2 0x1CCD PUSH2 0x1A09 JUMP JUMPDEST JUMPDEST DUP2 CALLDATALOAD PUSH2 0x1CDE DUP5 DUP3 PUSH1 0x20 DUP7 ADD PUSH2 0x1C32 JUMP JUMPDEST SWAP2 POP POP SWAP3 SWAP2 POP POP JUMP JUMPDEST PUSH1 0x0 DUP1 REVERT JUMPDEST PUSH1 0x0 DUP1 DUP4 PUSH1 0x1F DUP5 ADD SLT PUSH2 0x1D02 JUMPI PUSH2 0x1D01 PUSH2 0x1A09 JUMP JUMPDEST JUMPDEST DUP3 CALLDATALOAD SWAP1 POP PUSH8 0xFFFFFFFFFFFFFFFF DUP2 GT ISZERO PUSH2 0x1D1F JUMPI PUSH2 0x1D1E PUSH2 0x1CE7 JUMP JUMPDEST JUMPDEST PUSH1 0x20 DUP4 ADD SWAP2 POP DUP4 PUSH1 0x1 DUP3 MUL DUP4 ADD GT ISZERO PUSH2 0x1D3B JUMPI PUSH2 0x1D3A PUSH2 0x1AB5 JUMP JUMPDEST JUMPDEST SWAP3 POP SWAP3 SWAP1 POP JUMP JUMPDEST PUSH1 0x0 DUP1 PUSH1 0x0 DUP1 PUSH1 0x0 DUP1 PUSH1 0x0 DUP1 PUSH1 0x0 DUP1 PUSH2 0x100 DUP12 DUP14 SUB SLT ISZERO PUSH2 0x1D66 JUMPI PUSH2 0x1D65 PUSH2 0x15C1 JUMP JUMPDEST JUMPDEST PUSH1 0x0 DUP12 ADD CALLDATALOAD PUSH8 0xFFFFFFFFFFFFFFFF DUP2 GT ISZERO PUSH2 0x1D84 JUMPI PUSH2 0x1D83 PUSH2 0x15C6 JUMP JUMPDEST JUMPDEST PUSH2 0x1D90 DUP14 DUP3 DUP15 ADD PUSH2 0x1B23 JUMP JUMPDEST SWAP11 POP POP PUSH1 0x20 DUP12 ADD CALLDATALOAD PUSH8 0xFFFFFFFFFFFFFFFF DUP2 GT ISZERO PUSH2 0x1DB1 JUMPI PUSH2 0x1DB0 PUSH2 0x15C6 JUMP JUMPDEST JUMPDEST PUSH2 0x1DBD DUP14 DUP3 DUP15 ADD PUSH2 0x1CB9 JUMP JUMPDEST SWAP10 POP POP PUSH1 0x40 DUP12 ADD CALLDATALOAD PUSH8 0xFFFFFFFFFFFFFFFF DUP2 GT ISZERO PUSH2 0x1DDE JUMPI PUSH2 0x1DDD PUSH2 0x15C6 JUMP JUMPDEST JUMPDEST PUSH2 0x1DEA DUP14 DUP3 DUP15 ADD PUSH2 0x1CEC JUMP JUMPDEST SWAP9 POP SWAP9 POP POP PUSH1 0x60 DUP12 ADD CALLDATALOAD PUSH8 0xFFFFFFFFFFFFFFFF DUP2 GT ISZERO PUSH2 0x1E0D JUMPI PUSH2 0x1E0C PUSH2 0x15C6 JUMP JUMPDEST JUMPDEST PUSH2 0x1E19 DUP14 DUP3 DUP15 ADD PUSH2 0x1CEC JUMP JUMPDEST SWAP7 POP SWAP7 POP POP PUSH1 0x80 DUP12 ADD CALLDATALOAD PUSH8 0xFFFFFFFFFFFFFFFF DUP2 GT ISZERO PUSH2 0x1E3C JUMPI PUSH2 0x1E3B PUSH2 0x15C6 JUMP JUMPDEST JUMPDEST PUSH2 0x1E48 DUP14 DUP3 DUP15 ADD PUSH2 0x1C04 JUMP JUMPDEST SWAP5 POP POP PUSH1 0xA0 DUP12 ADD CALLDATALOAD PUSH8 0xFFFFFFFFFFFFFFFF DUP2 GT ISZERO PUSH2 0x1E69 JUMPI PUSH2 0x1E68 PUSH2 0x15C6 JUMP JUMPDEST JUMPDEST PUSH2 0x1E75 DUP14 DUP3 DUP15 ADD PUSH2 0x1C04 JUMP JUMPDEST SWAP4 POP POP PUSH1 0xC0 DUP12 ADD CALLDATALOAD PUSH8 0xFFFFFFFFFFFFFFFF DUP2 GT ISZERO PUSH2 0x1E96 JUMPI PUSH2 0x1E95 PUSH2 0x15C6 JUMP JUMPDEST JUMPDEST PUSH2 0x1EA2 DUP14 DUP3 DUP15 ADD PUSH2 0x1C04 JUMP JUMPDEST SWAP3 POP POP PUSH1 0xE0 DUP12 ADD CALLDATALOAD PUSH8 0xFFFFFFFFFFFFFFFF DUP2 GT ISZERO PUSH2 0x1EC3 JUMPI PUSH2 0x1EC2 PUSH2 0x15C6 JUMP JUMPDEST JUMPDEST PUSH2 0x1ECF DUP14 DUP3 DUP15 ADD PUSH2 0x1C04 JUMP JUMPDEST SWAP2 POP POP SWAP3 SWAP6 SWAP9 SWAP12 SWAP2 SWAP5 SWAP8 SWAP11 POP SWAP3 SWAP6 SWAP9 POP JUMP JUMPDEST PUSH1 0x0 DUP2 MLOAD SWAP1 POP SWAP2 SWAP1 POP JUMP JUMPDEST PUSH1 0x0 DUP3 DUP3 MSTORE PUSH1 0x20 DUP3 ADD SWAP1 POP SWAP3 SWAP2 POP POP JUMP JUMPDEST PUSH1 0x0 DUP2 SWAP1 POP PUSH1 0x20 DUP3 ADD SWAP1 POP SWAP2 SWAP1 POP JUMP JUMPDEST PUSH2 0x1F16 DUP2 PUSH2 0x1629 JUMP JUMPDEST DUP3 MSTORE POP POP JUMP JUMPDEST PUSH1 0x0 PUSH2 0x1F28 DUP4 DUP4 PUSH2 0x1F0D JUMP JUMPDEST PUSH1 0x20 DUP4 ADD SWAP1 POP SWAP3 SWAP2 POP POP JUMP JUMPDEST PUSH1 0x0 PUSH1 0x20 DUP3 ADD SWAP1 POP SWAP2 SWAP1 POP JUMP JUMPDEST PUSH1 0x0 PUSH2 0x1F4C DUP3 PUSH2 0x1EE1 JUMP JUMPDEST PUSH2 0x1F56 DUP2 DUP6 PUSH2 0x1EEC JUMP JUMPDEST SWAP4 POP PUSH2 0x1F61 DUP4 PUSH2 0x1EFD JUMP JUMPDEST DUP1 PUSH1 0x0 JUMPDEST DUP4 DUP2 LT ISZERO PUSH2 0x1F92 JUMPI DUP2 MLOAD PUSH2 0x1F79 DUP9 DUP3 PUSH2 0x1F1C JUMP JUMPDEST SWAP8 POP PUSH2 0x1F84 DUP4 PUSH2 0x1F34 JUMP JUMPDEST SWAP3 POP POP PUSH1 0x1 DUP2 ADD SWAP1 POP PUSH2 0x1F65 JUMP JUMPDEST POP DUP6 SWAP4 POP POP POP POP SWAP3 SWAP2 POP POP JUMP JUMPDEST PUSH1 0x0 PUSH1 0x20 DUP3 ADD SWAP1 POP DUP2 DUP2 SUB PUSH1 0x0 DUP4 ADD MSTORE PUSH2 0x1FB9 DUP2 DUP5 PUSH2 0x1F41 JUMP JUMPDEST SWAP1 POP SWAP3 SWAP2 POP POP JUMP JUMPDEST PUSH1 0x0 DUP3 DUP3 MSTORE PUSH1 0x20 DUP3 ADD SWAP1 POP SWAP3 SWAP2 POP POP JUMP JUMPDEST PUSH1 0x0 PUSH2 0x1FDD DUP3 PUSH2 0x17E0 JUMP JUMPDEST PUSH2 0x1FE7 DUP2 DUP6 PUSH2 0x1FC1 JUMP JUMPDEST SWAP4 POP PUSH2 0x1FF7 DUP2 DUP6 PUSH1 0x20 DUP7 ADD PUSH2 0x17FC JUMP JUMPDEST PUSH2 0x2000 DUP2 PUSH2 0x1826 JUMP JUMPDEST DUP5 ADD SWAP2 POP POP SWAP3 SWAP2 POP POP JUMP JUMPDEST PUSH1 0x0 PUSH1 0xC0 DUP3 ADD SWAP1 POP DUP2 DUP2 SUB PUSH1 0x0 DUP4 ADD MSTORE PUSH2 0x2025 DUP2 DUP10 PUSH2 0x1FD2 JUMP JUMPDEST SWAP1 POP DUP2 DUP2 SUB PUSH1 0x20 DUP4 ADD MSTORE PUSH2 0x2039 DUP2 DUP9 PUSH2 0x1FD2 JUMP JUMPDEST SWAP1 POP DUP2 DUP2 SUB PUSH1 0x40 DUP4 ADD MSTORE PUSH2 0x204D DUP2 DUP8 PUSH2 0x1FD2 JUMP JUMPDEST SWAP1 POP DUP2 DUP2 SUB PUSH1 0x60 DUP4 ADD MSTORE PUSH2 0x2061 DUP2 DUP7 PUSH2 0x1FD2 JUMP JUMPDEST SWAP1 POP DUP2 DUP2 SUB PUSH1 0x80 DUP4 ADD MSTORE PUSH2 0x2075 DUP2 DUP6 PUSH2 0x1FD2 JUMP JUMPDEST SWAP1 POP DUP2 DUP2 SUB PUSH1 0xA0 DUP4 ADD MSTORE PUSH2 0x2089 DUP2 DUP5 PUSH2 0x1FD2 JUMP JUMPDEST SWAP1 POP SWAP8 SWAP7 POP POP POP POP POP POP POP JUMP JUMPDEST PUSH1 0x0 PUSH1 0x20 DUP3 DUP5 SUB SLT ISZERO PUSH2 0x20AC JUMPI PUSH2 0x20AB PUSH2 0x15C1 JUMP JUMPDEST JUMPDEST PUSH1 0x0 PUSH2 0x20BA DUP5 DUP3 DUP6 ADD PUSH2 0x1614 JUMP JUMPDEST SWAP2 POP POP SWAP3 SWAP2 POP POP JUMP JUMPDEST PUSH1 0x0 DUP2 MLOAD SWAP1 POP SWAP2 SWAP1 POP JUMP JUMPDEST PUSH1 0x0 DUP3 DUP3 MSTORE PUSH1 0x20 DUP3 ADD SWAP1 POP SWAP3 SWAP2 POP POP JUMP JUMPDEST PUSH1 0x0 DUP2 SWAP1 POP PUSH1 0x20 DUP3 ADD SWAP1 POP SWAP2 SWAP1 POP JUMP JUMPDEST PUSH1 0x0 PUSH2 0x100 DUP4 ADD PUSH1 0x0 DUP4 ADD MLOAD DUP5 DUP3 SUB PUSH1 0x0 DUP7 ADD MSTORE PUSH2 0x210D DUP3 DUP3 PUSH2 0x1756 JUMP JUMPDEST SWAP2 POP POP PUSH1 0x20 DUP4 ADD MLOAD DUP5 DUP3 SUB PUSH1 0x20 DUP7 ADD MSTORE PUSH2 0x2127 DUP3 DUP3 PUSH2 0x1891 JUMP JUMPDEST SWAP2 POP POP PUSH1 0x40 DUP4 ADD MLOAD DUP5 DUP3 SUB PUSH1 0x40 DUP7 ADD MSTORE PUSH2 0x2141 DUP3 DUP3 PUSH2 0x1837 JUMP JUMPDEST SWAP2 POP POP PUSH1 0x60 DUP4 ADD MLOAD DUP5 DUP3 SUB PUSH1 0x60 DUP7 ADD MSTORE PUSH2 0x215B DUP3 DUP3 PUSH2 0x1837 JUMP JUMPDEST SWAP2 POP POP PUSH1 0x80 DUP4 ADD MLOAD DUP5 DUP3 SUB PUSH1 0x80 DUP7 ADD MSTORE PUSH2 0x2175 DUP3 DUP3 PUSH2 0x1837 JUMP JUMPDEST SWAP2 POP POP PUSH1 0xA0 DUP4 ADD MLOAD DUP5 DUP3 SUB PUSH1 0xA0 DUP7 ADD MSTORE PUSH2 0x218F DUP3 DUP3 PUSH2 0x1837 JUMP JUMPDEST SWAP2 POP POP PUSH1 0xC0 DUP4 ADD MLOAD DUP5 DUP3 SUB PUSH1 0xC0 DUP7 ADD MSTORE PUSH2 0x21A9 DUP3 DUP3 PUSH2 0x1837 JUMP JUMPDEST SWAP2 POP POP PUSH1 0xE0 DUP4 ADD MLOAD DUP5 DUP3 SUB PUSH1 0xE0 DUP7 ADD MSTORE PUSH2 0x21C3 DUP3 DUP3 PUSH2 0x1837 JUMP JUMPDEST SWAP2 POP POP DUP1 SWAP2 POP POP SWAP3 SWAP2 POP POP JUMP JUMPDEST PUSH1 0x0 PUSH2 0x21DC DUP4 DUP4 PUSH2 0x20EF JUMP JUMPDEST SWAP1 POP SWAP3 SWAP2 POP POP JUMP JUMPDEST PUSH1 0x0 PUSH1 0x20 DUP3 ADD SWAP1 POP SWAP2 SWAP1 POP JUMP JUMPDEST PUSH1 0x0 PUSH2 0x21FC DUP3 PUSH2 0x20C3 JUMP JUMPDEST PUSH2 0x2206 DUP2 DUP6 PUSH2 0x20CE JUMP JUMPDEST SWAP4 POP DUP4 PUSH1 0x20 DUP3 MUL DUP6 ADD PUSH2 0x2218 DUP6 PUSH2 0x20DF JUMP JUMPDEST DUP1 PUSH1 0x0 JUMPDEST DUP6 DUP2 LT ISZERO PUSH2 0x2254 JUMPI DUP5 DUP5 SUB DUP10 MSTORE DUP2 MLOAD PUSH2 0x2235 DUP6 DUP3 PUSH2 0x21D0 JUMP JUMPDEST SWAP5 POP PUSH2 0x2240 DUP4 PUSH2 0x21E4 JUMP JUMPDEST SWAP3 POP PUSH1 0x20 DUP11 ADD SWAP10 POP POP PUSH1 0x1 DUP2 ADD SWAP1 POP PUSH2 0x221C JUMP JUMPDEST POP DUP3 SWAP8 POP DUP8 SWAP6 POP POP POP POP POP POP SWAP3 SWAP2 POP POP JUMP JUMPDEST PUSH1 0x0 PUSH1 0x20 DUP3 ADD SWAP1 POP DUP2 DUP2 SUB PUSH1 0x0 DUP4 ADD MSTORE PUSH2 0x2280 DUP2 DUP5 PUSH2 0x21F1 JUMP JUMPDEST SWAP1 POP SWAP3 SWAP2 POP POP JUMP JUMPDEST PUSH32 0x4E487B7100000000000000000000000000000000000000000000000000000000 PUSH1 0x0 MSTORE PUSH1 0x22 PUSH1 0x4 MSTORE PUSH1 0x24 PUSH1 0x0 REVERT JUMPDEST PUSH1 0x0 PUSH1 0x2 DUP3 DIV SWAP1 POP PUSH1 0x1 DUP3 AND DUP1 PUSH2 0x22CF JUMPI PUSH1 0x7F DUP3 AND SWAP2 POP JUMPDEST PUSH1 0x20 DUP3 LT DUP2 SUB PUSH2 0x22E2 JUMPI PUSH2 0x22E1 PUSH2 0x2288 JUMP JUMPDEST JUMPDEST POP SWAP2 SWAP1 POP JUMP JUMPDEST PUSH1 0x0 DUP2 SWAP1 POP DUP2 PUSH1 0x0 MSTORE PUSH1 0x20 PUSH1 0x0 KECCAK256 SWAP1 POP SWAP2 SWAP1 POP JUMP JUMPDEST PUSH1 0x0 PUSH1 0x20 PUSH1 0x1F DUP4 ADD DIV SWAP1 POP SWAP2 SWAP1 POP JUMP JUMPDEST PUSH1 0x0 DUP3 DUP3 SHL SWAP1 POP SWAP3 SWAP2 POP POP JUMP JUMPDEST PUSH1 0x0 PUSH1 0x8 DUP4 MUL PUSH2 0x234A PUSH32 0xFFFFFFFFFFFFFFFFFFFFFFFFFFFFFFFFFFFFFFFFFFFFFFFFFFFFFFFFFFFFFFFF DUP3 PUSH2 0x230D JUMP JUMPDEST PUSH2 0x2354 DUP7 DUP4 PUSH2 0x230D JUMP JUMPDEST SWAP6 POP DUP1 NOT DUP5 AND SWAP4 POP DUP1 DUP7 AND DUP5 OR SWAP3 POP POP POP SWAP4 SWAP3 POP POP POP JUMP JUMPDEST PUSH1 0x0 DUP2 SWAP1 POP SWAP2 SWAP1 POP JUMP JUMPDEST PUSH1 0x0 PUSH2 0x2391 PUSH2 0x238C PUSH2 0x2387 DUP5 PUSH2 0x1629 JUMP JUMPDEST PUSH2 0x236C JUMP JUMPDEST PUSH2 0x1629 JUMP JUMPDEST SWAP1 POP SWAP2 SWAP1 POP JUMP JUMPDEST PUSH1 0x0 DUP2 SWAP1 POP SWAP2 SWAP1 POP JUMP JUMPDEST PUSH2 0x23AB DUP4 PUSH2 0x2376 JUMP JUMPDEST PUSH2 0x23BF PUSH2 0x23B7 DUP3 PUSH2 0x2398 JUMP JUMPDEST DUP5 DUP5 SLOAD PUSH2 0x231A JUMP JUMPDEST DUP3 SSTORE POP POP POP POP JUMP JUMPDEST PUSH1 0x0 SWAP1 JUMP JUMPDEST PUSH2 0x23D4 PUSH2 0x23C7 JUMP JUMPDEST PUSH2 0x23DF DUP2 DUP5 DUP5 PUSH2 0x23A2 JUMP JUMPDEST POP POP POP JUMP JUMPDEST JUMPDEST DUP2 DUP2 LT ISZERO PUSH2 0x2403 JUMPI PUSH2 0x23F8 PUSH1 0x0 DUP3 PUSH2 0x23CC JUMP JUMPDEST PUSH1 0x1 DUP2 ADD SWAP1 POP PUSH2 0x23E5 JUMP JUMPDEST POP POP JUMP JUMPDEST PUSH1 0x1F DUP3 GT ISZERO PUSH2 0x2448 JUMPI PUSH2 0x2419 DUP2 PUSH2 0x22E8 JUMP JUMPDEST PUSH2 0x2422 DUP5 PUSH2 0x22FD JUMP JUMPDEST DUP2 ADD PUSH1 0x20 DUP6 LT ISZERO PUSH2 0x2431 JUMPI DUP2 SWAP1 POP JUMPDEST PUSH2 0x2445 PUSH2 0x243D DUP6 PUSH2 0x22FD JUMP JUMPDEST DUP4 ADD DUP3 PUSH2 0x23E4 JUMP JUMPDEST POP POP JUMPDEST POP POP POP JUMP JUMPDEST PUSH1 0x0 DUP3 DUP3 SHR SWAP1 POP SWAP3 SWAP2 POP POP JUMP JUMPDEST PUSH1 0x0 PUSH2 0x246B PUSH1 0x0 NOT DUP5 PUSH1 0x8 MUL PUSH2 0x244D JUMP JUMPDEST NOT DUP1 DUP4 AND SWAP2 POP POP SWAP3 SWAP2 POP POP JUMP JUMPDEST PUSH1 0x0 PUSH2 0x2484 DUP4 DUP4 PUSH2 0x245A JUMP JUMPDEST SWAP2 POP DUP3 PUSH1 0x2 MUL DUP3 OR SWAP1 POP SWAP3 SWAP2 POP POP JUMP JUMPDEST PUSH2 0x249D DUP3 PUSH2 0x17E0 JUMP JUMPDEST PUSH8 0xFFFFFFFFFFFFFFFF DUP2 GT ISZERO PUSH2 0x24B6 JUMPI PUSH2 0x24B5 PUSH2 0x1A0E JUMP JUMPDEST JUMPDEST PUSH2 0x24C0 DUP3 SLOAD PUSH2 0x22B7 JUMP JUMPDEST PUSH2 0x24CB DUP3 DUP3 DUP6 PUSH2 0x2407 JUMP JUMPDEST PUSH1 0x0 PUSH1 0x20 SWAP1 POP PUSH1 0x1F DUP4 GT PUSH1 0x1 DUP2 EQ PUSH2 0x24FE JUMPI PUSH1 0x0 DUP5 ISZERO PUSH2 0x24EC JUMPI DUP3 DUP8 ADD MLOAD SWAP1 POP JUMPDEST PUSH2 0x24F6 DUP6 DUP3 PUSH2 0x2478 JUMP JUMPDEST DUP7 SSTORE POP PUSH2 0x255E JUMP JUMPDEST PUSH1 0x1F NOT DUP5 AND PUSH2 0x250C DUP7 PUSH2 0x22E8 JUMP JUMPDEST PUSH1 0x0 JUMPDEST DUP3 DUP2 LT ISZERO PUSH2 0x2534 JUMPI DUP5 DUP10 ADD MLOAD DUP3 SSTORE PUSH1 0x1 DUP3 ADD SWAP2 POP PUSH1 0x20 DUP6 ADD SWAP5 POP PUSH1 0x20 DUP2 ADD SWAP1 POP PUSH2 0x250F JUMP JUMPDEST DUP7 DUP4 LT ISZERO PUSH2 0x2551 JUMPI DUP5 DUP10 ADD MLOAD PUSH2 0x254D PUSH1 0x1F DUP10 AND DUP3 PUSH2 0x245A JUMP JUMPDEST DUP4 SSTORE POP JUMPDEST PUSH1 0x1 PUSH1 0x2 DUP9 MUL ADD DUP9 SSTORE POP POP POP JUMPDEST POP POP POP POP POP POP JUMP JUMPDEST PUSH32 0x4E487B7100000000000000000000000000000000000000000000000000000000 PUSH1 0x0 MSTORE PUSH1 0x11 PUSH1 0x4 MSTORE PUSH1 0x24 PUSH1 0x0 REVERT JUMPDEST PUSH1 0x0 PUSH2 0x25A0 DUP3 PUSH2 0x1629 JUMP JUMPDEST SWAP2 POP PUSH32 0xFFFFFFFFFFFFFFFFFFFFFFFFFFFFFFFFFFFFFFFFFFFFFFFFFFFFFFFFFFFFFFFF DUP3 SUB PUSH2 0x25D2 JUMPI PUSH2 0x25D1 PUSH2 0x2566 JUMP JUMPDEST JUMPDEST PUSH1 0x1 DUP3 ADD SWAP1 POP SWAP2 SWAP1 POP JUMP JUMPDEST PUSH32 0x4E487B7100000000000000000000000000000000000000000000000000000000 PUSH1 0x0 MSTORE PUSH1 0x32 PUSH1 0x4 MSTORE PUSH1 0x24 PUSH1 0x0 REVERT INVALID LOG2 PUSH5 0x6970667358 0x22 SLT KECCAK256 SMOD PUSH25 0x7715D773990051344DDBBBAFD9EC4843AC1E9819DEECDBC9ED SDIV 0xCD MSTORE8 0xE8 MULMOD PUSH5 0x736F6C6343 STOP ADDMOD SLT STOP CALLER "
				},
				"gasEstimates": {
					"creation": {
						"codeDepositCost": "1958800",
						"executionCost": "24183",
						"totalCost": "1982983"
					},
					"external": {
						"addDistributorProduct(address[],bytes[],bytes,bytes,bytes,bytes,bytes,bytes)": "infinite",
						"addressToproductsIdMapping(address,uint256)": "infinite",
						"deleteProduct(uint256)": "infinite",
						"getAllProductsOfDistributor(address)": "infinite",
						"getDistributorProductIds()": "infinite",
						"getSingleProduct(uint256)": "infinite",
						"productsIdMappingToStructMapping(uint256)": "infinite"
					}
				},
				"methodIdentifiers": {
					"addDistributorProduct(address[],bytes[],bytes,bytes,bytes,bytes,bytes,bytes)": "987259a6",
					"addressToproductsIdMapping(address,uint256)": "21c6f9e5",
					"deleteProduct(uint256)": "ed90c7b7",
					"getAllProductsOfDistributor(address)": "f1afff56",
					"getDistributorProductIds()": "9c9ed59f",
					"getSingleProduct(uint256)": "2e1f9763",
					"productsIdMappingToStructMapping(uint256)": "9e9c191d"
				}
			},
			"storageLayout": {
				"storage": [
					{
						"astId": 55,
						"contract": "contracts/distributorProduct.sol:distributorProduct",
						"label": "productCounter",
						"offset": 0,
						"slot": "0",
						"type": "t_uint256"
					},
					{
						"astId": 58,
						"contract": "contracts/distributorProduct.sol:distributorProduct",
						"label": "allProducts",
						"offset": 0,
						"slot": "1",
						"type": "t_array(t_uint256)dyn_storage"
					},
					{
						"astId": 63,
						"contract": "contracts/distributorProduct.sol:distributorProduct",
						"label": "productsIdMappingToStructMapping",
						"offset": 0,
						"slot": "2",
						"type": "t_mapping(t_uint256,t_struct(distributorProduct)20_storage)"
					},
					{
						"astId": 68,
						"contract": "contracts/distributorProduct.sol:distributorProduct",
						"label": "addressToproductsIdMapping",
						"offset": 0,
						"slot": "3",
						"type": "t_mapping(t_address,t_array(t_uint256)dyn_storage)"
					}
				],
				"types": {
					"t_address": {
						"encoding": "inplace",
						"label": "address",
						"numberOfBytes": "20"
					},
					"t_array(t_address)dyn_storage": {
						"base": "t_address",
						"encoding": "dynamic_array",
						"label": "address[]",
						"numberOfBytes": "32"
					},
					"t_array(t_bytes_storage)dyn_storage": {
						"base": "t_bytes_storage",
						"encoding": "dynamic_array",
						"label": "bytes[]",
						"numberOfBytes": "32"
					},
					"t_array(t_uint256)dyn_storage": {
						"base": "t_uint256",
						"encoding": "dynamic_array",
						"label": "uint256[]",
						"numberOfBytes": "32"
					},
					"t_bytes_storage": {
						"encoding": "bytes",
						"label": "bytes",
						"numberOfBytes": "32"
					},
					"t_mapping(t_address,t_array(t_uint256)dyn_storage)": {
						"encoding": "mapping",
						"key": "t_address",
						"label": "mapping(address => uint256[])",
						"numberOfBytes": "32",
						"value": "t_array(t_uint256)dyn_storage"
					},
					"t_mapping(t_uint256,t_struct(distributorProduct)20_storage)": {
						"encoding": "mapping",
						"key": "t_uint256",
						"label": "mapping(uint256 => struct IDistributorProduct.distributorProduct)",
						"numberOfBytes": "32",
						"value": "t_struct(distributorProduct)20_storage"
					},
					"t_struct(distributorProduct)20_storage": {
						"encoding": "inplace",
						"label": "struct IDistributorProduct.distributorProduct",
						"members": [
							{
								"astId": 4,
								"contract": "contracts/distributorProduct.sol:distributorProduct",
								"label": "manufacturerAddress",
								"offset": 0,
								"slot": "0",
								"type": "t_array(t_address)dyn_storage"
							},
							{
								"astId": 7,
								"contract": "contracts/distributorProduct.sol:distributorProduct",
								"label": "md_id",
								"offset": 0,
								"slot": "1",
								"type": "t_array(t_bytes_storage)dyn_storage"
							},
							{
								"astId": 9,
								"contract": "contracts/distributorProduct.sol:distributorProduct",
								"label": "dp_name",
								"offset": 0,
								"slot": "2",
								"type": "t_bytes_storage"
							},
							{
								"astId": 11,
								"contract": "contracts/distributorProduct.sol:distributorProduct",
								"label": "dp_description",
								"offset": 0,
								"slot": "3",
								"type": "t_bytes_storage"
							},
							{
								"astId": 13,
								"contract": "contracts/distributorProduct.sol:distributorProduct",
								"label": "dp_unit",
								"offset": 0,
								"slot": "4",
								"type": "t_bytes_storage"
							},
							{
								"astId": 15,
								"contract": "contracts/distributorProduct.sol:distributorProduct",
								"label": "dp_price",
								"offset": 0,
								"slot": "5",
								"type": "t_bytes_storage"
							},
							{
								"astId": 17,
								"contract": "contracts/distributorProduct.sol:distributorProduct",
								"label": "dp_date",
								"offset": 0,
								"slot": "6",
								"type": "t_bytes_storage"
							},
							{
								"astId": 19,
								"contract": "contracts/distributorProduct.sol:distributorProduct",
								"label": "dp_expiryDate",
								"offset": 0,
								"slot": "7",
								"type": "t_bytes_storage"
							}
						],
						"numberOfBytes": "256"
					},
					"t_uint256": {
						"encoding": "inplace",
						"label": "uint256",
						"numberOfBytes": "32"
					}
				}
			},
			"userdoc": {
				"kind": "user",
				"methods": {},
				"version": 1
			}
		}
	}
}