{
	"data": {
		"bytecode": {
			"linkReferences": {},
			"object": "608060405234801561001057600080fd5b50610874806100206000396000f3fe608060405234801561001057600080fd5b50600436106100625760003560e01c80630c6c92ba1461006757806330e84d5f146100835780635166608f1461009f5780636a26d064146100d25780639dfd240a146100ee578063d1bab1431461010a575b600080fd5b610081600480360381019061007c91906104e5565b610126565b005b61009d600480360381019061009891906104e5565b610129565b005b6100b960048036038101906100b4919061058c565b61012c565b6040516100c99493929190610638565b60405180910390f35b6100ec60048036038101906100e791906104e5565b61037c565b005b610108600480360381019061010391906106f9565b61037f565b005b610124600480360381019061011f91906104e5565b610388565b005b50565b50565b600060205280600052604060002060009150905080600001805461014f9061080d565b80601f016020809104026020016040519081016040528092919081815260200182805461017b9061080d565b80156101c85780601f1061019d576101008083540402835291602001916101c8565b820191906000526020600020905b8154815290600101906020018083116101ab57829003601f168201915b5050505050908060010180546101dd9061080d565b80601f01602080910402602001604051908101604052809291908181526020018280546102099061080d565b80156102565780601f1061022b57610100808354040283529160200191610256565b820191906000526020600020905b81548152906001019060200180831161023957829003601f168201915b50505050509080600201805461026b9061080d565b80601f01602080910402602001604051908101604052809291908181526020018280546102979061080d565b80156102e45780601f106102b9576101008083540402835291602001916102e4565b820191906000526020600020905b8154815290600101906020018083116102c757829003601f168201915b5050505050908060030180546102f99061080d565b80601f01602080910402602001604051908101604052809291908181526020018280546103259061080d565b80156103725780601f1061034757610100808354040283529160200191610372565b820191906000526020600020905b81548152906001019060200180831161035557829003601f168201915b5050505050905084565b50565b50505050505050565b50565b6000604051905090565b600080fd5b600080fd5b600080fd5b600080fd5b6000601f19601f8301169050919050565b7f4e487b7100000000000000000000000000000000000000000000000000000000600052604160045260246000fd5b6103f2826103a9565b810181811067ffffffffffffffff82111715610411576104106103ba565b5b80604052505050565b600061042461038b565b905061043082826103e9565b919050565b600067ffffffffffffffff8211156104505761044f6103ba565b5b610459826103a9565b9050602081019050919050565b82818337600083830152505050565b600061048861048384610435565b61041a565b9050828152602081018484840111156104a4576104a36103a4565b5b6104af848285610466565b509392505050565b600082601f8301126104cc576104cb61039f565b5b81356104dc848260208601610475565b91505092915050565b6000602082840312156104fb576104fa610395565b5b600082013567ffffffffffffffff8111156105195761051861039a565b5b610525848285016104b7565b91505092915050565b600073ffffffffffffffffffffffffffffffffffffffff82169050919050565b60006105598261052e565b9050919050565b6105698161054e565b811461057457600080fd5b50565b60008135905061058681610560565b92915050565b6000602082840312156105a2576105a1610395565b5b60006105b084828501610577565b91505092915050565b600081519050919050565b600082825260208201905092915050565b60005b838110156105f35780820151818401526020810190506105d8565b60008484015250505050565b600061060a826105b9565b61061481856105c4565b93506106248185602086016105d5565b61062d816103a9565b840191505092915050565b6000608082019050818103600083015261065281876105ff565b9050818103602083015261066681866105ff565b9050818103604083015261067a81856105ff565b9050818103606083015261068e81846105ff565b905095945050505050565b600080fd5b600080fd5b60008083601f8401126106b9576106b861039f565b5b8235905067ffffffffffffffff8111156106d6576106d5610699565b5b6020830191508360018202830111156106f2576106f161069e565b5b9250929050565b60008060008060008060006080888a03121561071857610717610395565b5b600088013567ffffffffffffffff8111156107365761073561039a565b5b6107428a828b016106a3565b9750975050602088013567ffffffffffffffff8111156107655761076461039a565b5b6107718a828b016106a3565b9550955050604088013567ffffffffffffffff8111156107945761079361039a565b5b6107a08a828b016106a3565b9350935050606088013567ffffffffffffffff8111156107c3576107c261039a565b5b6107cf8a828b016104b7565b91505092959891949750929550565b7f4e487b7100000000000000000000000000000000000000000000000000000000600052602260045260246000fd5b6000600282049050600182168061082557607f821691505b602082108103610838576108376107de565b5b5091905056fea2646970667358221220f62e9ce62368dec77f94eb0be62fafb3abc919e1dd6bb7d5fca0516a7f99225164736f6c63430008120033",
			"opcodes": "PUSH1 0x80 PUSH1 0x40 MSTORE CALLVALUE DUP1 ISZERO PUSH2 0x10 JUMPI PUSH1 0x0 DUP1 REVERT JUMPDEST POP PUSH2 0x874 DUP1 PUSH2 0x20 PUSH1 0x0 CODECOPY PUSH1 0x0 RETURN INVALID PUSH1 0x80 PUSH1 0x40 MSTORE CALLVALUE DUP1 ISZERO PUSH2 0x10 JUMPI PUSH1 0x0 DUP1 REVERT JUMPDEST POP PUSH1 0x4 CALLDATASIZE LT PUSH2 0x62 JUMPI PUSH1 0x0 CALLDATALOAD PUSH1 0xE0 SHR DUP1 PUSH4 0xC6C92BA EQ PUSH2 0x67 JUMPI DUP1 PUSH4 0x30E84D5F EQ PUSH2 0x83 JUMPI DUP1 PUSH4 0x5166608F EQ PUSH2 0x9F JUMPI DUP1 PUSH4 0x6A26D064 EQ PUSH2 0xD2 JUMPI DUP1 PUSH4 0x9DFD240A EQ PUSH2 0xEE JUMPI DUP1 PUSH4 0xD1BAB143 EQ PUSH2 0x10A JUMPI JUMPDEST PUSH1 0x0 DUP1 REVERT JUMPDEST PUSH2 0x81 PUSH1 0x4 DUP1 CALLDATASIZE SUB DUP2 ADD SWAP1 PUSH2 0x7C SWAP2 SWAP1 PUSH2 0x4E5 JUMP JUMPDEST PUSH2 0x126 JUMP JUMPDEST STOP JUMPDEST PUSH2 0x9D PUSH1 0x4 DUP1 CALLDATASIZE SUB DUP2 ADD SWAP1 PUSH2 0x98 SWAP2 SWAP1 PUSH2 0x4E5 JUMP JUMPDEST PUSH2 0x129 JUMP JUMPDEST STOP JUMPDEST PUSH2 0xB9 PUSH1 0x4 DUP1 CALLDATASIZE SUB DUP2 ADD SWAP1 PUSH2 0xB4 SWAP2 SWAP1 PUSH2 0x58C JUMP JUMPDEST PUSH2 0x12C JUMP JUMPDEST PUSH1 0x40 MLOAD PUSH2 0xC9 SWAP5 SWAP4 SWAP3 SWAP2 SWAP1 PUSH2 0x638 JUMP JUMPDEST PUSH1 0x40 MLOAD DUP1 SWAP2 SUB SWAP1 RETURN JUMPDEST PUSH2 0xEC PUSH1 0x4 DUP1 CALLDATASIZE SUB DUP2 ADD SWAP1 PUSH2 0xE7 SWAP2 SWAP1 PUSH2 0x4E5 JUMP JUMPDEST PUSH2 0x37C JUMP JUMPDEST STOP JUMPDEST PUSH2 0x108 PUSH1 0x4 DUP1 CALLDATASIZE SUB DUP2 ADD SWAP1 PUSH2 0x103 SWAP2 SWAP1 PUSH2 0x6F9 JUMP JUMPDEST PUSH2 0x37F JUMP JUMPDEST STOP JUMPDEST PUSH2 0x124 PUSH1 0x4 DUP1 CALLDATASIZE SUB DUP2 ADD SWAP1 PUSH2 0x11F SWAP2 SWAP1 PUSH2 0x4E5 JUMP JUMPDEST PUSH2 0x388 JUMP JUMPDEST STOP JUMPDEST POP JUMP JUMPDEST POP JUMP JUMPDEST PUSH1 0x0 PUSH1 0x20 MSTORE DUP1 PUSH1 0x0 MSTORE PUSH1 0x40 PUSH1 0x0 KECCAK256 PUSH1 0x0 SWAP2 POP SWAP1 POP DUP1 PUSH1 0x0 ADD DUP1 SLOAD PUSH2 0x14F SWAP1 PUSH2 0x80D JUMP JUMPDEST DUP1 PUSH1 0x1F ADD PUSH1 0x20 DUP1 SWAP2 DIV MUL PUSH1 0x20 ADD PUSH1 0x40 MLOAD SWAP1 DUP2 ADD PUSH1 0x40 MSTORE DUP1 SWAP3 SWAP2 SWAP1 DUP2 DUP2 MSTORE PUSH1 0x20 ADD DUP3 DUP1 SLOAD PUSH2 0x17B SWAP1 PUSH2 0x80D JUMP JUMPDEST DUP1 ISZERO PUSH2 0x1C8 JUMPI DUP1 PUSH1 0x1F LT PUSH2 0x19D JUMPI PUSH2 0x100 DUP1 DUP4 SLOAD DIV MUL DUP4 MSTORE SWAP2 PUSH1 0x20 ADD SWAP2 PUSH2 0x1C8 JUMP JUMPDEST DUP3 ADD SWAP2 SWAP1 PUSH1 0x0 MSTORE PUSH1 0x20 PUSH1 0x0 KECCAK256 SWAP1 JUMPDEST DUP2 SLOAD DUP2 MSTORE SWAP1 PUSH1 0x1 ADD SWAP1 PUSH1 0x20 ADD DUP1 DUP4 GT PUSH2 0x1AB JUMPI DUP3 SWAP1 SUB PUSH1 0x1F AND DUP3 ADD SWAP2 JUMPDEST POP POP POP POP POP SWAP1 DUP1 PUSH1 0x1 ADD DUP1 SLOAD PUSH2 0x1DD SWAP1 PUSH2 0x80D JUMP JUMPDEST DUP1 PUSH1 0x1F ADD PUSH1 0x20 DUP1 SWAP2 DIV MUL PUSH1 0x20 ADD PUSH1 0x40 MLOAD SWAP1 DUP2 ADD PUSH1 0x40 MSTORE DUP1 SWAP3 SWAP2 SWAP1 DUP2 DUP2 MSTORE PUSH1 0x20 ADD DUP3 DUP1 SLOAD PUSH2 0x209 SWAP1 PUSH2 0x80D JUMP JUMPDEST DUP1 ISZERO PUSH2 0x256 JUMPI DUP1 PUSH1 0x1F LT PUSH2 0x22B JUMPI PUSH2 0x100 DUP1 DUP4 SLOAD DIV MUL DUP4 MSTORE SWAP2 PUSH1 0x20 ADD SWAP2 PUSH2 0x256 JUMP JUMPDEST DUP3 ADD SWAP2 SWAP1 PUSH1 0x0 MSTORE PUSH1 0x20 PUSH1 0x0 KECCAK256 SWAP1 JUMPDEST DUP2 SLOAD DUP2 MSTORE SWAP1 PUSH1 0x1 ADD SWAP1 PUSH1 0x20 ADD DUP1 DUP4 GT PUSH2 0x239 JUMPI DUP3 SWAP1 SUB PUSH1 0x1F AND DUP3 ADD SWAP2 JUMPDEST POP POP POP POP POP SWAP1 DUP1 PUSH1 0x2 ADD DUP1 SLOAD PUSH2 0x26B SWAP1 PUSH2 0x80D JUMP JUMPDEST DUP1 PUSH1 0x1F ADD PUSH1 0x20 DUP1 SWAP2 DIV MUL PUSH1 0x20 ADD PUSH1 0x40 MLOAD SWAP1 DUP2 ADD PUSH1 0x40 MSTORE DUP1 SWAP3 SWAP2 SWAP1 DUP2 DUP2 MSTORE PUSH1 0x20 ADD DUP3 DUP1 SLOAD PUSH2 0x297 SWAP1 PUSH2 0x80D JUMP JUMPDEST DUP1 ISZERO PUSH2 0x2E4 JUMPI DUP1 PUSH1 0x1F LT PUSH2 0x2B9 JUMPI PUSH2 0x100 DUP1 DUP4 SLOAD DIV MUL DUP4 MSTORE SWAP2 PUSH1 0x20 ADD SWAP2 PUSH2 0x2E4 JUMP JUMPDEST DUP3 ADD SWAP2 SWAP1 PUSH1 0x0 MSTORE PUSH1 0x20 PUSH1 0x0 KECCAK256 SWAP1 JUMPDEST DUP2 SLOAD DUP2 MSTORE SWAP1 PUSH1 0x1 ADD SWAP1 PUSH1 0x20 ADD DUP1 DUP4 GT PUSH2 0x2C7 JUMPI DUP3 SWAP1 SUB PUSH1 0x1F AND DUP3 ADD SWAP2 JUMPDEST POP POP POP POP POP SWAP1 DUP1 PUSH1 0x3 ADD DUP1 SLOAD PUSH2 0x2F9 SWAP1 PUSH2 0x80D JUMP JUMPDEST DUP1 PUSH1 0x1F ADD PUSH1 0x20 DUP1 SWAP2 DIV MUL PUSH1 0x20 ADD PUSH1 0x40 MLOAD SWAP1 DUP2 ADD PUSH1 0x40 MSTORE DUP1 SWAP3 SWAP2 SWAP1 DUP2 DUP2 MSTORE PUSH1 0x20 ADD DUP3 DUP1 SLOAD PUSH2 0x325 SWAP1 PUSH2 0x80D JUMP JUMPDEST DUP1 ISZERO PUSH2 0x372 JUMPI DUP1 PUSH1 0x1F LT PUSH2 0x347 JUMPI PUSH2 0x100 DUP1 DUP4 SLOAD DIV MUL DUP4 MSTORE SWAP2 PUSH1 0x20 ADD SWAP2 PUSH2 0x372 JUMP JUMPDEST DUP3 ADD SWAP2 SWAP1 PUSH1 0x0 MSTORE PUSH1 0x20 PUSH1 0x0 KECCAK256 SWAP1 JUMPDEST DUP2 SLOAD DUP2 MSTORE SWAP1 PUSH1 0x1 ADD SWAP1 PUSH1 0x20 ADD DUP1 DUP4 GT PUSH2 0x355 JUMPI DUP3 SWAP1 SUB PUSH1 0x1F AND DUP3 ADD SWAP2 JUMPDEST POP POP POP POP POP SWAP1 POP DUP5 JUMP JUMPDEST POP JUMP JUMPDEST POP POP POP POP POP POP POP JUMP JUMPDEST POP JUMP JUMPDEST PUSH1 0x0 PUSH1 0x40 MLOAD SWAP1 POP SWAP1 JUMP JUMPDEST PUSH1 0x0 DUP1 REVERT JUMPDEST PUSH1 0x0 DUP1 REVERT JUMPDEST PUSH1 0x0 DUP1 REVERT JUMPDEST PUSH1 0x0 DUP1 REVERT JUMPDEST PUSH1 0x0 PUSH1 0x1F NOT PUSH1 0x1F DUP4 ADD AND SWAP1 POP SWAP2 SWAP1 POP JUMP JUMPDEST PUSH32 0x4E487B7100000000000000000000000000000000000000000000000000000000 PUSH1 0x0 MSTORE PUSH1 0x41 PUSH1 0x4 MSTORE PUSH1 0x24 PUSH1 0x0 REVERT JUMPDEST PUSH2 0x3F2 DUP3 PUSH2 0x3A9 JUMP JUMPDEST DUP2 ADD DUP2 DUP2 LT PUSH8 0xFFFFFFFFFFFFFFFF DUP3 GT OR ISZERO PUSH2 0x411 JUMPI PUSH2 0x410 PUSH2 0x3BA JUMP JUMPDEST JUMPDEST DUP1 PUSH1 0x40 MSTORE POP POP POP JUMP JUMPDEST PUSH1 0x0 PUSH2 0x424 PUSH2 0x38B JUMP JUMPDEST SWAP1 POP PUSH2 0x430 DUP3 DUP3 PUSH2 0x3E9 JUMP JUMPDEST SWAP2 SWAP1 POP JUMP JUMPDEST PUSH1 0x0 PUSH8 0xFFFFFFFFFFFFFFFF DUP3 GT ISZERO PUSH2 0x450 JUMPI PUSH2 0x44F PUSH2 0x3BA JUMP JUMPDEST JUMPDEST PUSH2 0x459 DUP3 PUSH2 0x3A9 JUMP JUMPDEST SWAP1 POP PUSH1 0x20 DUP2 ADD SWAP1 POP SWAP2 SWAP1 POP JUMP JUMPDEST DUP3 DUP2 DUP4 CALLDATACOPY PUSH1 0x0 DUP4 DUP4 ADD MSTORE POP POP POP JUMP JUMPDEST PUSH1 0x0 PUSH2 0x488 PUSH2 0x483 DUP5 PUSH2 0x435 JUMP JUMPDEST PUSH2 0x41A JUMP JUMPDEST SWAP1 POP DUP3 DUP2 MSTORE PUSH1 0x20 DUP2 ADD DUP5 DUP5 DUP5 ADD GT ISZERO PUSH2 0x4A4 JUMPI PUSH2 0x4A3 PUSH2 0x3A4 JUMP JUMPDEST JUMPDEST PUSH2 0x4AF DUP5 DUP3 DUP6 PUSH2 0x466 JUMP JUMPDEST POP SWAP4 SWAP3 POP POP POP JUMP JUMPDEST PUSH1 0x0 DUP3 PUSH1 0x1F DUP4 ADD SLT PUSH2 0x4CC JUMPI PUSH2 0x4CB PUSH2 0x39F JUMP JUMPDEST JUMPDEST DUP2 CALLDATALOAD PUSH2 0x4DC DUP5 DUP3 PUSH1 0x20 DUP7 ADD PUSH2 0x475 JUMP JUMPDEST SWAP2 POP POP SWAP3 SWAP2 POP POP JUMP JUMPDEST PUSH1 0x0 PUSH1 0x20 DUP3 DUP5 SUB SLT ISZERO PUSH2 0x4FB JUMPI PUSH2 0x4FA PUSH2 0x395 JUMP JUMPDEST JUMPDEST PUSH1 0x0 DUP3 ADD CALLDATALOAD PUSH8 0xFFFFFFFFFFFFFFFF DUP2 GT ISZERO PUSH2 0x519 JUMPI PUSH2 0x518 PUSH2 0x39A JUMP JUMPDEST JUMPDEST PUSH2 0x525 DUP5 DUP3 DUP6 ADD PUSH2 0x4B7 JUMP JUMPDEST SWAP2 POP POP SWAP3 SWAP2 POP POP JUMP JUMPDEST PUSH1 0x0 PUSH20 0xFFFFFFFFFFFFFFFFFFFFFFFFFFFFFFFFFFFFFFFF DUP3 AND SWAP1 POP SWAP2 SWAP1 POP JUMP JUMPDEST PUSH1 0x0 PUSH2 0x559 DUP3 PUSH2 0x52E JUMP JUMPDEST SWAP1 POP SWAP2 SWAP1 POP JUMP JUMPDEST PUSH2 0x569 DUP2 PUSH2 0x54E JUMP JUMPDEST DUP2 EQ PUSH2 0x574 JUMPI PUSH1 0x0 DUP1 REVERT JUMPDEST POP JUMP JUMPDEST PUSH1 0x0 DUP2 CALLDATALOAD SWAP1 POP PUSH2 0x586 DUP2 PUSH2 0x560 JUMP JUMPDEST SWAP3 SWAP2 POP POP JUMP JUMPDEST PUSH1 0x0 PUSH1 0x20 DUP3 DUP5 SUB SLT ISZERO PUSH2 0x5A2 JUMPI PUSH2 0x5A1 PUSH2 0x395 JUMP JUMPDEST JUMPDEST PUSH1 0x0 PUSH2 0x5B0 DUP5 DUP3 DUP6 ADD PUSH2 0x577 JUMP JUMPDEST SWAP2 POP POP SWAP3 SWAP2 POP POP JUMP JUMPDEST PUSH1 0x0 DUP2 MLOAD SWAP1 POP SWAP2 SWAP1 POP JUMP JUMPDEST PUSH1 0x0 DUP3 DUP3 MSTORE PUSH1 0x20 DUP3 ADD SWAP1 POP SWAP3 SWAP2 POP POP JUMP JUMPDEST PUSH1 0x0 JUMPDEST DUP4 DUP2 LT ISZERO PUSH2 0x5F3 JUMPI DUP1 DUP3 ADD MLOAD DUP2 DUP5 ADD MSTORE PUSH1 0x20 DUP2 ADD SWAP1 POP PUSH2 0x5D8 JUMP JUMPDEST PUSH1 0x0 DUP5 DUP5 ADD MSTORE POP POP POP POP JUMP JUMPDEST PUSH1 0x0 PUSH2 0x60A DUP3 PUSH2 0x5B9 JUMP JUMPDEST PUSH2 0x614 DUP2 DUP6 PUSH2 0x5C4 JUMP JUMPDEST SWAP4 POP PUSH2 0x624 DUP2 DUP6 PUSH1 0x20 DUP7 ADD PUSH2 0x5D5 JUMP JUMPDEST PUSH2 0x62D DUP2 PUSH2 0x3A9 JUMP JUMPDEST DUP5 ADD SWAP2 POP POP SWAP3 SWAP2 POP POP JUMP JUMPDEST PUSH1 0x0 PUSH1 0x80 DUP3 ADD SWAP1 POP DUP2 DUP2 SUB PUSH1 0x0 DUP4 ADD MSTORE PUSH2 0x652 DUP2 DUP8 PUSH2 0x5FF JUMP JUMPDEST SWAP1 POP DUP2 DUP2 SUB PUSH1 0x20 DUP4 ADD MSTORE PUSH2 0x666 DUP2 DUP7 PUSH2 0x5FF JUMP JUMPDEST SWAP1 POP DUP2 DUP2 SUB PUSH1 0x40 DUP4 ADD MSTORE PUSH2 0x67A DUP2 DUP6 PUSH2 0x5FF JUMP JUMPDEST SWAP1 POP DUP2 DUP2 SUB PUSH1 0x60 DUP4 ADD MSTORE PUSH2 0x68E DUP2 DUP5 PUSH2 0x5FF JUMP JUMPDEST SWAP1 POP SWAP6 SWAP5 POP POP POP POP POP JUMP JUMPDEST PUSH1 0x0 DUP1 REVERT JUMPDEST PUSH1 0x0 DUP1 REVERT JUMPDEST PUSH1 0x0 DUP1 DUP4 PUSH1 0x1F DUP5 ADD SLT PUSH2 0x6B9 JUMPI PUSH2 0x6B8 PUSH2 0x39F JUMP JUMPDEST JUMPDEST DUP3 CALLDATALOAD SWAP1 POP PUSH8 0xFFFFFFFFFFFFFFFF DUP2 GT ISZERO PUSH2 0x6D6 JUMPI PUSH2 0x6D5 PUSH2 0x699 JUMP JUMPDEST JUMPDEST PUSH1 0x20 DUP4 ADD SWAP2 POP DUP4 PUSH1 0x1 DUP3 MUL DUP4 ADD GT ISZERO PUSH2 0x6F2 JUMPI PUSH2 0x6F1 PUSH2 0x69E JUMP JUMPDEST JUMPDEST SWAP3 POP SWAP3 SWAP1 POP JUMP JUMPDEST PUSH1 0x0 DUP1 PUSH1 0x0 DUP1 PUSH1 0x0 DUP1 PUSH1 0x0 PUSH1 0x80 DUP9 DUP11 SUB SLT ISZERO PUSH2 0x718 JUMPI PUSH2 0x717 PUSH2 0x395 JUMP JUMPDEST JUMPDEST PUSH1 0x0 DUP9 ADD CALLDATALOAD PUSH8 0xFFFFFFFFFFFFFFFF DUP2 GT ISZERO PUSH2 0x736 JUMPI PUSH2 0x735 PUSH2 0x39A JUMP JUMPDEST JUMPDEST PUSH2 0x742 DUP11 DUP3 DUP12 ADD PUSH2 0x6A3 JUMP JUMPDEST SWAP8 POP SWAP8 POP POP PUSH1 0x20 DUP9 ADD CALLDATALOAD PUSH8 0xFFFFFFFFFFFFFFFF DUP2 GT ISZERO PUSH2 0x765 JUMPI PUSH2 0x764 PUSH2 0x39A JUMP JUMPDEST JUMPDEST PUSH2 0x771 DUP11 DUP3 DUP12 ADD PUSH2 0x6A3 JUMP JUMPDEST SWAP6 POP SWAP6 POP POP PUSH1 0x40 DUP9 ADD CALLDATALOAD PUSH8 0xFFFFFFFFFFFFFFFF DUP2 GT ISZERO PUSH2 0x794 JUMPI PUSH2 0x793 PUSH2 0x39A JUMP JUMPDEST JUMPDEST PUSH2 0x7A0 DUP11 DUP3 DUP12 ADD PUSH2 0x6A3 JUMP JUMPDEST SWAP4 POP SWAP4 POP POP PUSH1 0x60 DUP9 ADD CALLDATALOAD PUSH8 0xFFFFFFFFFFFFFFFF DUP2 GT ISZERO PUSH2 0x7C3 JUMPI PUSH2 0x7C2 PUSH2 0x39A JUMP JUMPDEST JUMPDEST PUSH2 0x7CF DUP11 DUP3 DUP12 ADD PUSH2 0x4B7 JUMP JUMPDEST SWAP2 POP POP SWAP3 SWAP6 SWAP9 SWAP2 SWAP5 SWAP8 POP SWAP3 SWAP6 POP JUMP JUMPDEST PUSH32 0x4E487B7100000000000000000000000000000000000000000000000000000000 PUSH1 0x0 MSTORE PUSH1 0x22 PUSH1 0x4 MSTORE PUSH1 0x24 PUSH1 0x0 REVERT JUMPDEST PUSH1 0x0 PUSH1 0x2 DUP3 DIV SWAP1 POP PUSH1 0x1 DUP3 AND DUP1 PUSH2 0x825 JUMPI PUSH1 0x7F DUP3 AND SWAP2 POP JUMPDEST PUSH1 0x20 DUP3 LT DUP2 SUB PUSH2 0x838 JUMPI PUSH2 0x837 PUSH2 0x7DE JUMP JUMPDEST JUMPDEST POP SWAP2 SWAP1 POP JUMP INVALID LOG2 PUSH5 0x6970667358 0x22 SLT KECCAK256 0xF6 0x2E SWAP13 0xE6 0x23 PUSH9 0xDEC77F94EB0BE62FAF 0xB3 0xAB 0xC9 NOT 0xE1 0xDD PUSH12 0xB7D5FCA0516A7F9922516473 PUSH16 0x6C634300081200330000000000000000 "
		},
		"gasEstimates": {
			"creation": {
				"codeDepositCost": "432800",
				"executionCost": "468",
				"totalCost": "433268"
			},
			"external": {
				"addUser(bytes,bytes,bytes,bytes)": "infinite",
				"deleteUser(bytes)": "infinite",
				"editImage(bytes)": "infinite",
				"editName(bytes)": "infinite",
				"editPhysicalAddress(bytes)": "infinite",
				"userDetailsMapping(address)": "infinite"
			}
		},
		"methodIdentifiers": {
			"addUser(bytes,bytes,bytes,bytes)": "9dfd240a",
			"deleteUser(bytes)": "30e84d5f",
			"editImage(bytes)": "d1bab143",
			"editName(bytes)": "0c6c92ba",
			"editPhysicalAddress(bytes)": "6a26d064",
			"userDetailsMapping(address)": "5166608f"
		}
	},
	"abi": [
		{
			"inputs": [
				{
					"internalType": "bytes",
					"name": "_type",
					"type": "bytes"
				},
				{
					"internalType": "bytes",
					"name": "_name",
					"type": "bytes"
				},
				{
					"internalType": "bytes",
					"name": "_physicalAddress",
					"type": "bytes"
				},
				{
					"internalType": "bytes",
					"name": "_image",
					"type": "bytes"
				}
			],
			"name": "addUser",
			"outputs": [],
			"stateMutability": "nonpayable",
			"type": "function"
		},
		{
			"inputs": [
				{
					"internalType": "bytes",
					"name": "_address",
					"type": "bytes"
				}
			],
			"name": "deleteUser",
			"outputs": [],
			"stateMutability": "nonpayable",
			"type": "function"
		},
		{
			"inputs": [
				{
					"internalType": "bytes",
					"name": "_image",
					"type": "bytes"
				}
			],
			"name": "editImage",
			"outputs": [],
			"stateMutability": "nonpayable",
			"type": "function"
		},
		{
			"inputs": [
				{
					"internalType": "bytes",
					"name": "_name",
					"type": "bytes"
				}
			],
			"name": "editName",
			"outputs": [],
			"stateMutability": "nonpayable",
			"type": "function"
		},
		{
			"inputs": [
				{
					"internalType": "bytes",
					"name": "_physicalAddress",
					"type": "bytes"
				}
			],
			"name": "editPhysicalAddress",
			"outputs": [],
			"stateMutability": "nonpayable",
			"type": "function"
		},
		{
			"inputs": [
				{
					"internalType": "address",
					"name": "",
					"type": "address"
				}
			],
			"name": "userDetailsMapping",
			"outputs": [
				{
					"internalType": "bytes",
					"name": "userType",
					"type": "bytes"
				},
				{
					"internalType": "bytes",
					"name": "userName",
					"type": "bytes"
				},
				{
					"internalType": "bytes",
					"name": "userPhysicalAddress",
					"type": "bytes"
				},
				{
					"internalType": "bytes",
					"name": "userImage",
					"type": "bytes"
				}
			],
			"stateMutability": "view",
			"type": "function"
		}
	]
}